{
	"contracts/deLink/storeUserData.sol": {
		"storeUserData": {
			"abi": [
				{
					"inputs": [
						{
							"internalType": "string",
							"name": "",
							"type": "string"
						}
					],
					"name": "UserNotFound",
					"type": "error"
				},
				{
					"inputs": [
						{
							"components": [
								{
									"internalType": "string",
									"name": "name",
									"type": "string"
								},
								{
									"internalType": "string",
									"name": "topic",
									"type": "string"
								},
								{
									"internalType": "string",
									"name": "link",
									"type": "string"
								},
								{
									"internalType": "string",
									"name": "uid",
									"type": "string"
								}
							],
							"internalType": "struct storeUserData.eachList[]",
							"name": "_userlist",
							"type": "tuple[]"
						}
					],
					"name": "addList",
					"outputs": [],
					"stateMutability": "nonpayable",
					"type": "function"
				},
				{
					"inputs": [
						{
							"internalType": "address",
							"name": "_user",
							"type": "address"
						}
					],
					"name": "checkUser",
					"outputs": [
						{
							"components": [
								{
									"internalType": "string",
									"name": "name",
									"type": "string"
								},
								{
									"internalType": "string",
									"name": "topic",
									"type": "string"
								},
								{
									"internalType": "string",
									"name": "link",
									"type": "string"
								},
								{
									"internalType": "string",
									"name": "uid",
									"type": "string"
								}
							],
							"internalType": "struct storeUserData.eachList[]",
							"name": "",
							"type": "tuple[]"
						}
					],
					"stateMutability": "view",
					"type": "function"
				},
				{
					"inputs": [
						{
							"internalType": "address",
							"name": "_user",
							"type": "address"
						}
					],
					"name": "deleteData",
					"outputs": [],
					"stateMutability": "nonpayable",
					"type": "function"
				}
			],
			"devdoc": {
				"kind": "dev",
				"methods": {},
				"version": 1
			},
			"evm": {
				"assembly": "    /* \"contracts/deLink/storeUserData.sol\":63:799  contract storeUserData{... */\n  mstore(0x40, 0x80)\n  callvalue\n  dup1\n  iszero\n  tag_1\n  jumpi\n  0x00\n  dup1\n  revert\ntag_1:\n  pop\n  dataSize(sub_0)\n  dup1\n  dataOffset(sub_0)\n  0x00\n  codecopy\n  0x00\n  return\nstop\n\nsub_0: assembly {\n        /* \"contracts/deLink/storeUserData.sol\":63:799  contract storeUserData{... */\n      mstore(0x40, 0x80)\n      callvalue\n      dup1\n      iszero\n      tag_1\n      jumpi\n      0x00\n      dup1\n      revert\n    tag_1:\n      pop\n      jumpi(tag_2, lt(calldatasize, 0x04))\n      shr(0xe0, calldataload(0x00))\n      dup1\n      0x9b41a0\n      eq\n      tag_3\n      jumpi\n      dup1\n      0x1e9d48cf\n      eq\n      tag_4\n      jumpi\n      dup1\n      0xd177b083\n      eq\n      tag_5\n      jumpi\n    tag_2:\n      0x00\n      dup1\n      revert\n        /* \"contracts/deLink/storeUserData.sol\":713:797  function deleteData(address _user) external{... */\n    tag_3:\n      tag_6\n      0x04\n      dup1\n      calldatasize\n      sub\n      dup2\n      add\n      swap1\n      tag_7\n      swap2\n      swap1\n      tag_8\n      jump\t// in\n    tag_7:\n      tag_9\n      jump\t// in\n    tag_6:\n      stop\n        /* \"contracts/deLink/storeUserData.sol\":458:708  function checkUser(address _user) external view returns(eachList[] memory){... */\n    tag_4:\n      tag_10\n      0x04\n      dup1\n      calldatasize\n      sub\n      dup2\n      add\n      swap1\n      tag_11\n      swap2\n      swap1\n      tag_8\n      jump\t// in\n    tag_11:\n      tag_12\n      jump\t// in\n    tag_10:\n      mload(0x40)\n      tag_13\n      swap2\n      swap1\n      tag_14\n      jump\t// in\n    tag_13:\n      mload(0x40)\n      dup1\n      swap2\n      sub\n      swap1\n      return\n        /* \"contracts/deLink/storeUserData.sol\":282:453  function addList(eachList[] memory _userlist) external{... */\n    tag_5:\n      tag_15\n      0x04\n      dup1\n      calldatasize\n      sub\n      dup2\n      add\n      swap1\n      tag_16\n      swap2\n      swap1\n      tag_17\n      jump\t// in\n    tag_16:\n      tag_18\n      jump\t// in\n    tag_15:\n      stop\n        /* \"contracts/deLink/storeUserData.sol\":713:797  function deleteData(address _user) external{... */\n    tag_9:\n        /* \"contracts/deLink/storeUserData.sol\":774:783  StoreList */\n      0x00\n        /* \"contracts/deLink/storeUserData.sol\":774:790  StoreList[_user] */\n      dup1\n        /* \"contracts/deLink/storeUserData.sol\":784:789  _user */\n      dup3\n        /* \"contracts/deLink/storeUserData.sol\":774:790  StoreList[_user] */\n      0xffffffffffffffffffffffffffffffffffffffff\n      and\n      0xffffffffffffffffffffffffffffffffffffffff\n      and\n      dup2\n      mstore\n      0x20\n      add\n      swap1\n      dup2\n      mstore\n      0x20\n      add\n      0x00\n      keccak256\n      0x00\n        /* \"contracts/deLink/storeUserData.sol\":766:790  delete  StoreList[_user] */\n      tag_20\n      swap2\n      swap1\n      tag_21\n      jump\t// in\n    tag_20:\n        /* \"contracts/deLink/storeUserData.sol\":713:797  function deleteData(address _user) external{... */\n      pop\n      jump\t// out\n        /* \"contracts/deLink/storeUserData.sol\":458:708  function checkUser(address _user) external view returns(eachList[] memory){... */\n    tag_12:\n        /* \"contracts/deLink/storeUserData.sol\":514:531  eachList[] memory */\n      0x60\n        /* \"contracts/deLink/storeUserData.sol\":570:571  0 */\n      0x00\n        /* \"contracts/deLink/storeUserData.sol\":545:554  StoreList */\n      dup1\n        /* \"contracts/deLink/storeUserData.sol\":545:561  StoreList[_user] */\n      0x00\n        /* \"contracts/deLink/storeUserData.sol\":555:560  _user */\n      dup5\n        /* \"contracts/deLink/storeUserData.sol\":545:561  StoreList[_user] */\n      0xffffffffffffffffffffffffffffffffffffffff\n      and\n      0xffffffffffffffffffffffffffffffffffffffff\n      and\n      dup2\n      mstore\n      0x20\n      add\n      swap1\n      dup2\n      mstore\n      0x20\n      add\n      0x00\n      keccak256\n        /* \"contracts/deLink/storeUserData.sol\":545:568  StoreList[_user].length */\n      dup1\n      sload\n      swap1\n      pop\n        /* \"contracts/deLink/storeUserData.sol\":545:571  StoreList[_user].length!=0 */\n      eq\n        /* \"contracts/deLink/storeUserData.sol\":542:620  if(StoreList[_user].length!=0){... */\n      tag_23\n      jumpi\n        /* \"contracts/deLink/storeUserData.sol\":593:602  StoreList */\n      0x00\n        /* \"contracts/deLink/storeUserData.sol\":593:609  StoreList[_user] */\n      dup1\n        /* \"contracts/deLink/storeUserData.sol\":603:608  _user */\n      dup4\n        /* \"contracts/deLink/storeUserData.sol\":593:609  StoreList[_user] */\n      0xffffffffffffffffffffffffffffffffffffffff\n      and\n      0xffffffffffffffffffffffffffffffffffffffff\n      and\n      dup2\n      mstore\n      0x20\n      add\n      swap1\n      dup2\n      mstore\n      0x20\n      add\n      0x00\n      keccak256\n        /* \"contracts/deLink/storeUserData.sol\":586:609  return StoreList[_user] */\n      dup1\n      sload\n      dup1\n      0x20\n      mul\n      0x20\n      add\n      mload(0x40)\n      swap1\n      dup2\n      add\n      0x40\n      mstore\n      dup1\n      swap3\n      swap2\n      swap1\n      dup2\n      dup2\n      mstore\n      0x20\n      add\n      0x00\n      swap1\n    tag_24:\n      dup3\n      dup3\n      lt\n      iszero\n      tag_25\n      jumpi\n      dup4\n      dup3\n      swap1\n      0x00\n      mstore\n      keccak256(0x00, 0x20)\n      swap1\n      0x04\n      mul\n      add\n      mload(0x40)\n      dup1\n      0x80\n      add\n      0x40\n      mstore\n      swap1\n      dup2\n      0x00\n      dup3\n      add\n      dup1\n      sload\n      tag_27\n      swap1\n      tag_28\n      jump\t// in\n    tag_27:\n      dup1\n      0x1f\n      add\n      0x20\n      dup1\n      swap2\n      div\n      mul\n      0x20\n      add\n      mload(0x40)\n      swap1\n      dup2\n      add\n      0x40\n      mstore\n      dup1\n      swap3\n      swap2\n      swap1\n      dup2\n      dup2\n      mstore\n      0x20\n      add\n      dup3\n      dup1\n      sload\n      tag_29\n      swap1\n      tag_28\n      jump\t// in\n    tag_29:\n      dup1\n      iszero\n      tag_30\n      jumpi\n      dup1\n      0x1f\n      lt\n      tag_31\n      jumpi\n      0x0100\n      dup1\n      dup4\n      sload\n      div\n      mul\n      dup4\n      mstore\n      swap2\n      0x20\n      add\n      swap2\n      jump(tag_30)\n    tag_31:\n      dup3\n      add\n      swap2\n      swap1\n      0x00\n      mstore\n      keccak256(0x00, 0x20)\n      swap1\n    tag_32:\n      dup2\n      sload\n      dup2\n      mstore\n      swap1\n      0x01\n      add\n      swap1\n      0x20\n      add\n      dup1\n      dup4\n      gt\n      tag_32\n      jumpi\n      dup3\n      swap1\n      sub\n      0x1f\n      and\n      dup3\n      add\n      swap2\n    tag_30:\n      pop\n      pop\n      pop\n      pop\n      pop\n      dup2\n      mstore\n      0x20\n      add\n      0x01\n      dup3\n      add\n      dup1\n      sload\n      tag_33\n      swap1\n      tag_28\n      jump\t// in\n    tag_33:\n      dup1\n      0x1f\n      add\n      0x20\n      dup1\n      swap2\n      div\n      mul\n      0x20\n      add\n      mload(0x40)\n      swap1\n      dup2\n      add\n      0x40\n      mstore\n      dup1\n      swap3\n      swap2\n      swap1\n      dup2\n      dup2\n      mstore\n      0x20\n      add\n      dup3\n      dup1\n      sload\n      tag_34\n      swap1\n      tag_28\n      jump\t// in\n    tag_34:\n      dup1\n      iszero\n      tag_35\n      jumpi\n      dup1\n      0x1f\n      lt\n      tag_36\n      jumpi\n      0x0100\n      dup1\n      dup4\n      sload\n      div\n      mul\n      dup4\n      mstore\n      swap2\n      0x20\n      add\n      swap2\n      jump(tag_35)\n    tag_36:\n      dup3\n      add\n      swap2\n      swap1\n      0x00\n      mstore\n      keccak256(0x00, 0x20)\n      swap1\n    tag_37:\n      dup2\n      sload\n      dup2\n      mstore\n      swap1\n      0x01\n      add\n      swap1\n      0x20\n      add\n      dup1\n      dup4\n      gt\n      tag_37\n      jumpi\n      dup3\n      swap1\n      sub\n      0x1f\n      and\n      dup3\n      add\n      swap2\n    tag_35:\n      pop\n      pop\n      pop\n      pop\n      pop\n      dup2\n      mstore\n      0x20\n      add\n      0x02\n      dup3\n      add\n      dup1\n      sload\n      tag_38\n      swap1\n      tag_28\n      jump\t// in\n    tag_38:\n      dup1\n      0x1f\n      add\n      0x20\n      dup1\n      swap2\n      div\n      mul\n      0x20\n      add\n      mload(0x40)\n      swap1\n      dup2\n      add\n      0x40\n      mstore\n      dup1\n      swap3\n      swap2\n      swap1\n      dup2\n      dup2\n      mstore\n      0x20\n      add\n      dup3\n      dup1\n      sload\n      tag_39\n      swap1\n      tag_28\n      jump\t// in\n    tag_39:\n      dup1\n      iszero\n      tag_40\n      jumpi\n      dup1\n      0x1f\n      lt\n      tag_41\n      jumpi\n      0x0100\n      dup1\n      dup4\n      sload\n      div\n      mul\n      dup4\n      mstore\n      swap2\n      0x20\n      add\n      swap2\n      jump(tag_40)\n    tag_41:\n      dup3\n      add\n      swap2\n      swap1\n      0x00\n      mstore\n      keccak256(0x00, 0x20)\n      swap1\n    tag_42:\n      dup2\n      sload\n      dup2\n      mstore\n      swap1\n      0x01\n      add\n      swap1\n      0x20\n      add\n      dup1\n      dup4\n      gt\n      tag_42\n      jumpi\n      dup3\n      swap1\n      sub\n      0x1f\n      and\n      dup3\n      add\n      swap2\n    tag_40:\n      pop\n      pop\n      pop\n      pop\n      pop\n      dup2\n      mstore\n      0x20\n      add\n      0x03\n      dup3\n      add\n      dup1\n      sload\n      tag_43\n      swap1\n      tag_28\n      jump\t// in\n    tag_43:\n      dup1\n      0x1f\n      add\n      0x20\n      dup1\n      swap2\n      div\n      mul\n      0x20\n      add\n      mload(0x40)\n      swap1\n      dup2\n      add\n      0x40\n      mstore\n      dup1\n      swap3\n      swap2\n      swap1\n      dup2\n      dup2\n      mstore\n      0x20\n      add\n      dup3\n      dup1\n      sload\n      tag_44\n      swap1\n      tag_28\n      jump\t// in\n    tag_44:\n      dup1\n      iszero\n      tag_45\n      jumpi\n      dup1\n      0x1f\n      lt\n      tag_46\n      jumpi\n      0x0100\n      dup1\n      dup4\n      sload\n      div\n      mul\n      dup4\n      mstore\n      swap2\n      0x20\n      add\n      swap2\n      jump(tag_45)\n    tag_46:\n      dup3\n      add\n      swap2\n      swap1\n      0x00\n      mstore\n      keccak256(0x00, 0x20)\n      swap1\n    tag_47:\n      dup2\n      sload\n      dup2\n      mstore\n      swap1\n      0x01\n      add\n      swap1\n      0x20\n      add\n      dup1\n      dup4\n      gt\n      tag_47\n      jumpi\n      dup3\n      swap1\n      sub\n      0x1f\n      and\n      dup3\n      add\n      swap2\n    tag_45:\n      pop\n      pop\n      pop\n      pop\n      pop\n      dup2\n      mstore\n      pop\n      pop\n      dup2\n      mstore\n      0x20\n      add\n      swap1\n      0x01\n      add\n      swap1\n      jump(tag_24)\n    tag_25:\n      pop\n      pop\n      pop\n      pop\n      swap1\n      pop\n      jump(tag_22)\n        /* \"contracts/deLink/storeUserData.sol\":542:620  if(StoreList[_user].length!=0){... */\n    tag_23:\n        /* \"contracts/deLink/storeUserData.sol\":636:645  StoreList */\n      0x00\n        /* \"contracts/deLink/storeUserData.sol\":636:652  StoreList[_user] */\n      dup1\n        /* \"contracts/deLink/storeUserData.sol\":646:651  _user */\n      dup4\n        /* \"contracts/deLink/storeUserData.sol\":636:652  StoreList[_user] */\n      0xffffffffffffffffffffffffffffffffffffffff\n      and\n      0xffffffffffffffffffffffffffffffffffffffff\n      and\n      dup2\n      mstore\n      0x20\n      add\n      swap1\n      dup2\n      mstore\n      0x20\n      add\n      0x00\n      keccak256\n        /* \"contracts/deLink/storeUserData.sol\":629:652  return StoreList[_user] */\n      dup1\n      sload\n      dup1\n      0x20\n      mul\n      0x20\n      add\n      mload(0x40)\n      swap1\n      dup2\n      add\n      0x40\n      mstore\n      dup1\n      swap3\n      swap2\n      swap1\n      dup2\n      dup2\n      mstore\n      0x20\n      add\n      0x00\n      swap1\n    tag_48:\n      dup3\n      dup3\n      lt\n      iszero\n      tag_49\n      jumpi\n      dup4\n      dup3\n      swap1\n      0x00\n      mstore\n      keccak256(0x00, 0x20)\n      swap1\n      0x04\n      mul\n      add\n      mload(0x40)\n      dup1\n      0x80\n      add\n      0x40\n      mstore\n      swap1\n      dup2\n      0x00\n      dup3\n      add\n      dup1\n      sload\n      tag_51\n      swap1\n      tag_28\n      jump\t// in\n    tag_51:\n      dup1\n      0x1f\n      add\n      0x20\n      dup1\n      swap2\n      div\n      mul\n      0x20\n      add\n      mload(0x40)\n      swap1\n      dup2\n      add\n      0x40\n      mstore\n      dup1\n      swap3\n      swap2\n      swap1\n      dup2\n      dup2\n      mstore\n      0x20\n      add\n      dup3\n      dup1\n      sload\n      tag_52\n      swap1\n      tag_28\n      jump\t// in\n    tag_52:\n      dup1\n      iszero\n      tag_53\n      jumpi\n      dup1\n      0x1f\n      lt\n      tag_54\n      jumpi\n      0x0100\n      dup1\n      dup4\n      sload\n      div\n      mul\n      dup4\n      mstore\n      swap2\n      0x20\n      add\n      swap2\n      jump(tag_53)\n    tag_54:\n      dup3\n      add\n      swap2\n      swap1\n      0x00\n      mstore\n      keccak256(0x00, 0x20)\n      swap1\n    tag_55:\n      dup2\n      sload\n      dup2\n      mstore\n      swap1\n      0x01\n      add\n      swap1\n      0x20\n      add\n      dup1\n      dup4\n      gt\n      tag_55\n      jumpi\n      dup3\n      swap1\n      sub\n      0x1f\n      and\n      dup3\n      add\n      swap2\n    tag_53:\n      pop\n      pop\n      pop\n      pop\n      pop\n      dup2\n      mstore\n      0x20\n      add\n      0x01\n      dup3\n      add\n      dup1\n      sload\n      tag_56\n      swap1\n      tag_28\n      jump\t// in\n    tag_56:\n      dup1\n      0x1f\n      add\n      0x20\n      dup1\n      swap2\n      div\n      mul\n      0x20\n      add\n      mload(0x40)\n      swap1\n      dup2\n      add\n      0x40\n      mstore\n      dup1\n      swap3\n      swap2\n      swap1\n      dup2\n      dup2\n      mstore\n      0x20\n      add\n      dup3\n      dup1\n      sload\n      tag_57\n      swap1\n      tag_28\n      jump\t// in\n    tag_57:\n      dup1\n      iszero\n      tag_58\n      jumpi\n      dup1\n      0x1f\n      lt\n      tag_59\n      jumpi\n      0x0100\n      dup1\n      dup4\n      sload\n      div\n      mul\n      dup4\n      mstore\n      swap2\n      0x20\n      add\n      swap2\n      jump(tag_58)\n    tag_59:\n      dup3\n      add\n      swap2\n      swap1\n      0x00\n      mstore\n      keccak256(0x00, 0x20)\n      swap1\n    tag_60:\n      dup2\n      sload\n      dup2\n      mstore\n      swap1\n      0x01\n      add\n      swap1\n      0x20\n      add\n      dup1\n      dup4\n      gt\n      tag_60\n      jumpi\n      dup3\n      swap1\n      sub\n      0x1f\n      and\n      dup3\n      add\n      swap2\n    tag_58:\n      pop\n      pop\n      pop\n      pop\n      pop\n      dup2\n      mstore\n      0x20\n      add\n      0x02\n      dup3\n      add\n      dup1\n      sload\n      tag_61\n      swap1\n      tag_28\n      jump\t// in\n    tag_61:\n      dup1\n      0x1f\n      add\n      0x20\n      dup1\n      swap2\n      div\n      mul\n      0x20\n      add\n      mload(0x40)\n      swap1\n      dup2\n      add\n      0x40\n      mstore\n      dup1\n      swap3\n      swap2\n      swap1\n      dup2\n      dup2\n      mstore\n      0x20\n      add\n      dup3\n      dup1\n      sload\n      tag_62\n      swap1\n      tag_28\n      jump\t// in\n    tag_62:\n      dup1\n      iszero\n      tag_63\n      jumpi\n      dup1\n      0x1f\n      lt\n      tag_64\n      jumpi\n      0x0100\n      dup1\n      dup4\n      sload\n      div\n      mul\n      dup4\n      mstore\n      swap2\n      0x20\n      add\n      swap2\n      jump(tag_63)\n    tag_64:\n      dup3\n      add\n      swap2\n      swap1\n      0x00\n      mstore\n      keccak256(0x00, 0x20)\n      swap1\n    tag_65:\n      dup2\n      sload\n      dup2\n      mstore\n      swap1\n      0x01\n      add\n      swap1\n      0x20\n      add\n      dup1\n      dup4\n      gt\n      tag_65\n      jumpi\n      dup3\n      swap1\n      sub\n      0x1f\n      and\n      dup3\n      add\n      swap2\n    tag_63:\n      pop\n      pop\n      pop\n      pop\n      pop\n      dup2\n      mstore\n      0x20\n      add\n      0x03\n      dup3\n      add\n      dup1\n      sload\n      tag_66\n      swap1\n      tag_28\n      jump\t// in\n    tag_66:\n      dup1\n      0x1f\n      add\n      0x20\n      dup1\n      swap2\n      div\n      mul\n      0x20\n      add\n      mload(0x40)\n      swap1\n      dup2\n      add\n      0x40\n      mstore\n      dup1\n      swap3\n      swap2\n      swap1\n      dup2\n      dup2\n      mstore\n      0x20\n      add\n      dup3\n      dup1\n      sload\n      tag_67\n      swap1\n      tag_28\n      jump\t// in\n    tag_67:\n      dup1\n      iszero\n      tag_68\n      jumpi\n      dup1\n      0x1f\n      lt\n      tag_69\n      jumpi\n      0x0100\n      dup1\n      dup4\n      sload\n      div\n      mul\n      dup4\n      mstore\n      swap2\n      0x20\n      add\n      swap2\n      jump(tag_68)\n    tag_69:\n      dup3\n      add\n      swap2\n      swap1\n      0x00\n      mstore\n      keccak256(0x00, 0x20)\n      swap1\n    tag_70:\n      dup2\n      sload\n      dup2\n      mstore\n      swap1\n      0x01\n      add\n      swap1\n      0x20\n      add\n      dup1\n      dup4\n      gt\n      tag_70\n      jumpi\n      dup3\n      swap1\n      sub\n      0x1f\n      and\n      dup3\n      add\n      swap2\n    tag_68:\n      pop\n      pop\n      pop\n      pop\n      pop\n      dup2\n      mstore\n      pop\n      pop\n      dup2\n      mstore\n      0x20\n      add\n      swap1\n      0x01\n      add\n      swap1\n      jump(tag_48)\n    tag_49:\n      pop\n      pop\n      pop\n      pop\n      swap1\n      pop\n        /* \"contracts/deLink/storeUserData.sol\":458:708  function checkUser(address _user) external view returns(eachList[] memory){... */\n    tag_22:\n      swap2\n      swap1\n      pop\n      jump\t// out\n        /* \"contracts/deLink/storeUserData.sol\":282:453  function addList(eachList[] memory _userlist) external{... */\n    tag_18:\n        /* \"contracts/deLink/storeUserData.sol\":350:356  uint i */\n      0x00\n        /* \"contracts/deLink/storeUserData.sol\":346:447  for(uint i; i<_userlist.length; i++){... */\n    tag_72:\n        /* \"contracts/deLink/storeUserData.sol\":360:369  _userlist */\n      dup2\n        /* \"contracts/deLink/storeUserData.sol\":360:376  _userlist.length */\n      mload\n        /* \"contracts/deLink/storeUserData.sol\":358:359  i */\n      dup2\n        /* \"contracts/deLink/storeUserData.sol\":358:376  i<_userlist.length */\n      lt\n        /* \"contracts/deLink/storeUserData.sol\":346:447  for(uint i; i<_userlist.length; i++){... */\n      iszero\n      tag_73\n      jumpi\n        /* \"contracts/deLink/storeUserData.sol\":396:405  StoreList */\n      0x00\n        /* \"contracts/deLink/storeUserData.sol\":396:417  StoreList[msg.sender] */\n      dup1\n        /* \"contracts/deLink/storeUserData.sol\":406:416  msg.sender */\n      caller\n        /* \"contracts/deLink/storeUserData.sol\":396:417  StoreList[msg.sender] */\n      0xffffffffffffffffffffffffffffffffffffffff\n      and\n      0xffffffffffffffffffffffffffffffffffffffff\n      and\n      dup2\n      mstore\n      0x20\n      add\n      swap1\n      dup2\n      mstore\n      0x20\n      add\n      0x00\n      keccak256\n        /* \"contracts/deLink/storeUserData.sol\":423:432  _userlist */\n      dup3\n        /* \"contracts/deLink/storeUserData.sol\":433:434  i */\n      dup3\n        /* \"contracts/deLink/storeUserData.sol\":423:435  _userlist[i] */\n      dup2\n      mload\n      dup2\n      lt\n      tag_75\n      jumpi\n      tag_76\n      tag_77\n      jump\t// in\n    tag_76:\n    tag_75:\n      0x20\n      mul\n      0x20\n      add\n      add\n      mload\n        /* \"contracts/deLink/storeUserData.sol\":396:436  StoreList[msg.sender].push(_userlist[i]) */\n      swap1\n      dup1\n      0x01\n      dup2\n      sload\n      add\n      dup1\n      dup3\n      sstore\n      dup1\n      swap2\n      pop\n      pop\n      0x01\n      swap1\n      sub\n      swap1\n      0x00\n      mstore\n      keccak256(0x00, 0x20)\n      swap1\n      0x04\n      mul\n      add\n      0x00\n      swap1\n      swap2\n      swap1\n      swap2\n      swap1\n      swap2\n      pop\n      0x00\n      dup3\n      add\n      mload\n      dup2\n      0x00\n      add\n      swap1\n      dup2\n      tag_79\n      swap2\n      swap1\n      tag_80\n      jump\t// in\n    tag_79:\n      pop\n      0x20\n      dup3\n      add\n      mload\n      dup2\n      0x01\n      add\n      swap1\n      dup2\n      tag_81\n      swap2\n      swap1\n      tag_80\n      jump\t// in\n    tag_81:\n      pop\n      0x40\n      dup3\n      add\n      mload\n      dup2\n      0x02\n      add\n      swap1\n      dup2\n      tag_82\n      swap2\n      swap1\n      tag_80\n      jump\t// in\n    tag_82:\n      pop\n      0x60\n      dup3\n      add\n      mload\n      dup2\n      0x03\n      add\n      swap1\n      dup2\n      tag_83\n      swap2\n      swap1\n      tag_80\n      jump\t// in\n    tag_83:\n      pop\n      pop\n      pop\n        /* \"contracts/deLink/storeUserData.sol\":378:381  i++ */\n      dup1\n      dup1\n      0x01\n      add\n      swap2\n      pop\n      pop\n        /* \"contracts/deLink/storeUserData.sol\":346:447  for(uint i; i<_userlist.length; i++){... */\n      jump(tag_72)\n    tag_73:\n      pop\n        /* \"contracts/deLink/storeUserData.sol\":282:453  function addList(eachList[] memory _userlist) external{... */\n      pop\n      jump\t// out\n    tag_21:\n      pop\n      dup1\n      sload\n      0x00\n      dup3\n      sstore\n      0x04\n      mul\n      swap1\n      0x00\n      mstore\n      keccak256(0x00, 0x20)\n      swap1\n      dup2\n      add\n      swap1\n      tag_85\n      swap2\n      swap1\n      tag_86\n      jump\t// in\n    tag_85:\n      pop\n      jump\t// out\n    tag_86:\n    tag_87:\n      dup1\n      dup3\n      gt\n      iszero\n      tag_88\n      jumpi\n      0x00\n      dup1\n      dup3\n      add\n      0x00\n      tag_89\n      swap2\n      swap1\n      tag_90\n      jump\t// in\n    tag_89:\n      0x01\n      dup3\n      add\n      0x00\n      tag_91\n      swap2\n      swap1\n      tag_90\n      jump\t// in\n    tag_91:\n      0x02\n      dup3\n      add\n      0x00\n      tag_92\n      swap2\n      swap1\n      tag_90\n      jump\t// in\n    tag_92:\n      0x03\n      dup3\n      add\n      0x00\n      tag_93\n      swap2\n      swap1\n      tag_90\n      jump\t// in\n    tag_93:\n      pop\n      0x04\n      add\n      jump(tag_87)\n    tag_88:\n      pop\n      swap1\n      jump\t// out\n    tag_90:\n      pop\n      dup1\n      sload\n      tag_94\n      swap1\n      tag_28\n      jump\t// in\n    tag_94:\n      0x00\n      dup3\n      sstore\n      dup1\n      0x1f\n      lt\n      tag_96\n      jumpi\n      pop\n      jump(tag_95)\n    tag_96:\n      0x1f\n      add\n      0x20\n      swap1\n      div\n      swap1\n      0x00\n      mstore\n      keccak256(0x00, 0x20)\n      swap1\n      dup2\n      add\n      swap1\n      tag_97\n      swap2\n      swap1\n      tag_98\n      jump\t// in\n    tag_97:\n    tag_95:\n      pop\n      jump\t// out\n    tag_98:\n    tag_99:\n      dup1\n      dup3\n      gt\n      iszero\n      tag_100\n      jumpi\n      0x00\n      dup2\n      0x00\n      swap1\n      sstore\n      pop\n      0x01\n      add\n      jump(tag_99)\n    tag_100:\n      pop\n      swap1\n      jump\t// out\n        /* \"#utility.yul\":7:82   */\n    tag_101:\n        /* \"#utility.yul\":40:46   */\n      0x00\n        /* \"#utility.yul\":73:75   */\n      0x40\n        /* \"#utility.yul\":67:76   */\n      mload\n        /* \"#utility.yul\":57:76   */\n      swap1\n      pop\n        /* \"#utility.yul\":7:82   */\n      swap1\n      jump\t// out\n        /* \"#utility.yul\":88:205   */\n    tag_102:\n        /* \"#utility.yul\":197:198   */\n      0x00\n        /* \"#utility.yul\":194:195   */\n      dup1\n        /* \"#utility.yul\":187:199   */\n      revert\n        /* \"#utility.yul\":211:328   */\n    tag_103:\n        /* \"#utility.yul\":320:321   */\n      0x00\n        /* \"#utility.yul\":317:318   */\n      dup1\n        /* \"#utility.yul\":310:322   */\n      revert\n        /* \"#utility.yul\":334:460   */\n    tag_104:\n        /* \"#utility.yul\":371:378   */\n      0x00\n        /* \"#utility.yul\":411:453   */\n      0xffffffffffffffffffffffffffffffffffffffff\n        /* \"#utility.yul\":404:409   */\n      dup3\n        /* \"#utility.yul\":400:454   */\n      and\n        /* \"#utility.yul\":389:454   */\n      swap1\n      pop\n        /* \"#utility.yul\":334:460   */\n      swap2\n      swap1\n      pop\n      jump\t// out\n        /* \"#utility.yul\":466:562   */\n    tag_105:\n        /* \"#utility.yul\":503:510   */\n      0x00\n        /* \"#utility.yul\":532:556   */\n      tag_159\n        /* \"#utility.yul\":550:555   */\n      dup3\n        /* \"#utility.yul\":532:556   */\n      tag_104\n      jump\t// in\n    tag_159:\n        /* \"#utility.yul\":521:556   */\n      swap1\n      pop\n        /* \"#utility.yul\":466:562   */\n      swap2\n      swap1\n      pop\n      jump\t// out\n        /* \"#utility.yul\":568:690   */\n    tag_106:\n        /* \"#utility.yul\":641:665   */\n      tag_161\n        /* \"#utility.yul\":659:664   */\n      dup2\n        /* \"#utility.yul\":641:665   */\n      tag_105\n      jump\t// in\n    tag_161:\n        /* \"#utility.yul\":634:639   */\n      dup2\n        /* \"#utility.yul\":631:666   */\n      eq\n        /* \"#utility.yul\":621:684   */\n      tag_162\n      jumpi\n        /* \"#utility.yul\":680:681   */\n      0x00\n        /* \"#utility.yul\":677:678   */\n      dup1\n        /* \"#utility.yul\":670:682   */\n      revert\n        /* \"#utility.yul\":621:684   */\n    tag_162:\n        /* \"#utility.yul\":568:690   */\n      pop\n      jump\t// out\n        /* \"#utility.yul\":696:835   */\n    tag_107:\n        /* \"#utility.yul\":742:747   */\n      0x00\n        /* \"#utility.yul\":780:786   */\n      dup2\n        /* \"#utility.yul\":767:787   */\n      calldataload\n        /* \"#utility.yul\":758:787   */\n      swap1\n      pop\n        /* \"#utility.yul\":796:829   */\n      tag_164\n        /* \"#utility.yul\":823:828   */\n      dup2\n        /* \"#utility.yul\":796:829   */\n      tag_106\n      jump\t// in\n    tag_164:\n        /* \"#utility.yul\":696:835   */\n      swap3\n      swap2\n      pop\n      pop\n      jump\t// out\n        /* \"#utility.yul\":841:1170   */\n    tag_8:\n        /* \"#utility.yul\":900:906   */\n      0x00\n        /* \"#utility.yul\":949:951   */\n      0x20\n        /* \"#utility.yul\":937:946   */\n      dup3\n        /* \"#utility.yul\":928:935   */\n      dup5\n        /* \"#utility.yul\":924:947   */\n      sub\n        /* \"#utility.yul\":920:952   */\n      slt\n        /* \"#utility.yul\":917:1036   */\n      iszero\n      tag_166\n      jumpi\n        /* \"#utility.yul\":955:1034   */\n      tag_167\n      tag_102\n      jump\t// in\n    tag_167:\n        /* \"#utility.yul\":917:1036   */\n    tag_166:\n        /* \"#utility.yul\":1075:1076   */\n      0x00\n        /* \"#utility.yul\":1100:1153   */\n      tag_168\n        /* \"#utility.yul\":1145:1152   */\n      dup5\n        /* \"#utility.yul\":1136:1142   */\n      dup3\n        /* \"#utility.yul\":1125:1134   */\n      dup6\n        /* \"#utility.yul\":1121:1143   */\n      add\n        /* \"#utility.yul\":1100:1153   */\n      tag_107\n      jump\t// in\n    tag_168:\n        /* \"#utility.yul\":1090:1153   */\n      swap2\n      pop\n        /* \"#utility.yul\":1046:1163   */\n      pop\n        /* \"#utility.yul\":841:1170   */\n      swap3\n      swap2\n      pop\n      pop\n      jump\t// out\n        /* \"#utility.yul\":1176:1314   */\n    tag_108:\n        /* \"#utility.yul\":1267:1273   */\n      0x00\n        /* \"#utility.yul\":1301:1306   */\n      dup2\n        /* \"#utility.yul\":1295:1307   */\n      mload\n        /* \"#utility.yul\":1285:1307   */\n      swap1\n      pop\n        /* \"#utility.yul\":1176:1314   */\n      swap2\n      swap1\n      pop\n      jump\t// out\n        /* \"#utility.yul\":1320:1528   */\n    tag_109:\n        /* \"#utility.yul\":1443:1454   */\n      0x00\n        /* \"#utility.yul\":1477:1483   */\n      dup3\n        /* \"#utility.yul\":1472:1475   */\n      dup3\n        /* \"#utility.yul\":1465:1484   */\n      mstore\n        /* \"#utility.yul\":1517:1521   */\n      0x20\n        /* \"#utility.yul\":1512:1515   */\n      dup3\n        /* \"#utility.yul\":1508:1522   */\n      add\n        /* \"#utility.yul\":1493:1522   */\n      swap1\n      pop\n        /* \"#utility.yul\":1320:1528   */\n      swap3\n      swap2\n      pop\n      pop\n      jump\t// out\n        /* \"#utility.yul\":1534:1690   */\n    tag_110:\n        /* \"#utility.yul\":1625:1629   */\n      0x00\n        /* \"#utility.yul\":1648:1651   */\n      dup2\n        /* \"#utility.yul\":1640:1651   */\n      swap1\n      pop\n        /* \"#utility.yul\":1678:1682   */\n      0x20\n        /* \"#utility.yul\":1673:1676   */\n      dup3\n        /* \"#utility.yul\":1669:1683   */\n      add\n        /* \"#utility.yul\":1661:1683   */\n      swap1\n      pop\n        /* \"#utility.yul\":1534:1690   */\n      swap2\n      swap1\n      pop\n      jump\t// out\n        /* \"#utility.yul\":1696:1795   */\n    tag_111:\n        /* \"#utility.yul\":1748:1754   */\n      0x00\n        /* \"#utility.yul\":1782:1787   */\n      dup2\n        /* \"#utility.yul\":1776:1788   */\n      mload\n        /* \"#utility.yul\":1766:1788   */\n      swap1\n      pop\n        /* \"#utility.yul\":1696:1795   */\n      swap2\n      swap1\n      pop\n      jump\t// out\n        /* \"#utility.yul\":1801:1960   */\n    tag_112:\n        /* \"#utility.yul\":1875:1886   */\n      0x00\n        /* \"#utility.yul\":1909:1915   */\n      dup3\n        /* \"#utility.yul\":1904:1907   */\n      dup3\n        /* \"#utility.yul\":1897:1916   */\n      mstore\n        /* \"#utility.yul\":1949:1953   */\n      0x20\n        /* \"#utility.yul\":1944:1947   */\n      dup3\n        /* \"#utility.yul\":1940:1954   */\n      add\n        /* \"#utility.yul\":1925:1954   */\n      swap1\n      pop\n        /* \"#utility.yul\":1801:1960   */\n      swap3\n      swap2\n      pop\n      pop\n      jump\t// out\n        /* \"#utility.yul\":1966:2105   */\n    tag_113:\n        /* \"#utility.yul\":2055:2061   */\n      dup3\n        /* \"#utility.yul\":2050:2053   */\n      dup2\n        /* \"#utility.yul\":2045:2048   */\n      dup4\n        /* \"#utility.yul\":2039:2062   */\n      mcopy\n        /* \"#utility.yul\":2096:2097   */\n      0x00\n        /* \"#utility.yul\":2087:2093   */\n      dup4\n        /* \"#utility.yul\":2082:2085   */\n      dup4\n        /* \"#utility.yul\":2078:2094   */\n      add\n        /* \"#utility.yul\":2071:2098   */\n      mstore\n        /* \"#utility.yul\":1966:2105   */\n      pop\n      pop\n      pop\n      jump\t// out\n        /* \"#utility.yul\":2111:2213   */\n    tag_114:\n        /* \"#utility.yul\":2152:2158   */\n      0x00\n        /* \"#utility.yul\":2203:2205   */\n      0x1f\n        /* \"#utility.yul\":2199:2206   */\n      not\n        /* \"#utility.yul\":2194:2196   */\n      0x1f\n        /* \"#utility.yul\":2187:2192   */\n      dup4\n        /* \"#utility.yul\":2183:2197   */\n      add\n        /* \"#utility.yul\":2179:2207   */\n      and\n        /* \"#utility.yul\":2169:2207   */\n      swap1\n      pop\n        /* \"#utility.yul\":2111:2213   */\n      swap2\n      swap1\n      pop\n      jump\t// out\n        /* \"#utility.yul\":2219:2576   */\n    tag_115:\n        /* \"#utility.yul\":2297:2300   */\n      0x00\n        /* \"#utility.yul\":2325:2364   */\n      tag_177\n        /* \"#utility.yul\":2358:2363   */\n      dup3\n        /* \"#utility.yul\":2325:2364   */\n      tag_111\n      jump\t// in\n    tag_177:\n        /* \"#utility.yul\":2380:2441   */\n      tag_178\n        /* \"#utility.yul\":2434:2440   */\n      dup2\n        /* \"#utility.yul\":2429:2432   */\n      dup6\n        /* \"#utility.yul\":2380:2441   */\n      tag_112\n      jump\t// in\n    tag_178:\n        /* \"#utility.yul\":2373:2441   */\n      swap4\n      pop\n        /* \"#utility.yul\":2450:2515   */\n      tag_179\n        /* \"#utility.yul\":2508:2514   */\n      dup2\n        /* \"#utility.yul\":2503:2506   */\n      dup6\n        /* \"#utility.yul\":2496:2500   */\n      0x20\n        /* \"#utility.yul\":2489:2494   */\n      dup7\n        /* \"#utility.yul\":2485:2501   */\n      add\n        /* \"#utility.yul\":2450:2515   */\n      tag_113\n      jump\t// in\n    tag_179:\n        /* \"#utility.yul\":2540:2569   */\n      tag_180\n        /* \"#utility.yul\":2562:2568   */\n      dup2\n        /* \"#utility.yul\":2540:2569   */\n      tag_114\n      jump\t// in\n    tag_180:\n        /* \"#utility.yul\":2535:2538   */\n      dup5\n        /* \"#utility.yul\":2531:2570   */\n      add\n        /* \"#utility.yul\":2524:2570   */\n      swap2\n      pop\n        /* \"#utility.yul\":2301:2576   */\n      pop\n        /* \"#utility.yul\":2219:2576   */\n      swap3\n      swap2\n      pop\n      pop\n      jump\t// out\n        /* \"#utility.yul\":2652:3807   */\n    tag_116:\n        /* \"#utility.yul\":2759:2762   */\n      0x00\n        /* \"#utility.yul\":2795:2799   */\n      0x80\n        /* \"#utility.yul\":2790:2793   */\n      dup4\n        /* \"#utility.yul\":2786:2800   */\n      add\n        /* \"#utility.yul\":2882:2886   */\n      0x00\n        /* \"#utility.yul\":2875:2880   */\n      dup4\n        /* \"#utility.yul\":2871:2887   */\n      add\n        /* \"#utility.yul\":2865:2888   */\n      mload\n        /* \"#utility.yul\":2935:2938   */\n      dup5\n        /* \"#utility.yul\":2929:2933   */\n      dup3\n        /* \"#utility.yul\":2925:2939   */\n      sub\n        /* \"#utility.yul\":2918:2922   */\n      0x00\n        /* \"#utility.yul\":2913:2916   */\n      dup7\n        /* \"#utility.yul\":2909:2923   */\n      add\n        /* \"#utility.yul\":2902:2940   */\n      mstore\n        /* \"#utility.yul\":2961:3034   */\n      tag_182\n        /* \"#utility.yul\":3029:3033   */\n      dup3\n        /* \"#utility.yul\":3015:3027   */\n      dup3\n        /* \"#utility.yul\":2961:3034   */\n      tag_115\n      jump\t// in\n    tag_182:\n        /* \"#utility.yul\":2953:3034   */\n      swap2\n      pop\n        /* \"#utility.yul\":2810:3045   */\n      pop\n        /* \"#utility.yul\":3128:3132   */\n      0x20\n        /* \"#utility.yul\":3121:3126   */\n      dup4\n        /* \"#utility.yul\":3117:3133   */\n      add\n        /* \"#utility.yul\":3111:3134   */\n      mload\n        /* \"#utility.yul\":3181:3184   */\n      dup5\n        /* \"#utility.yul\":3175:3179   */\n      dup3\n        /* \"#utility.yul\":3171:3185   */\n      sub\n        /* \"#utility.yul\":3164:3168   */\n      0x20\n        /* \"#utility.yul\":3159:3162   */\n      dup7\n        /* \"#utility.yul\":3155:3169   */\n      add\n        /* \"#utility.yul\":3148:3186   */\n      mstore\n        /* \"#utility.yul\":3207:3280   */\n      tag_183\n        /* \"#utility.yul\":3275:3279   */\n      dup3\n        /* \"#utility.yul\":3261:3273   */\n      dup3\n        /* \"#utility.yul\":3207:3280   */\n      tag_115\n      jump\t// in\n    tag_183:\n        /* \"#utility.yul\":3199:3280   */\n      swap2\n      pop\n        /* \"#utility.yul\":3055:3291   */\n      pop\n        /* \"#utility.yul\":3373:3377   */\n      0x40\n        /* \"#utility.yul\":3366:3371   */\n      dup4\n        /* \"#utility.yul\":3362:3378   */\n      add\n        /* \"#utility.yul\":3356:3379   */\n      mload\n        /* \"#utility.yul\":3426:3429   */\n      dup5\n        /* \"#utility.yul\":3420:3424   */\n      dup3\n        /* \"#utility.yul\":3416:3430   */\n      sub\n        /* \"#utility.yul\":3409:3413   */\n      0x40\n        /* \"#utility.yul\":3404:3407   */\n      dup7\n        /* \"#utility.yul\":3400:3414   */\n      add\n        /* \"#utility.yul\":3393:3431   */\n      mstore\n        /* \"#utility.yul\":3452:3525   */\n      tag_184\n        /* \"#utility.yul\":3520:3524   */\n      dup3\n        /* \"#utility.yul\":3506:3518   */\n      dup3\n        /* \"#utility.yul\":3452:3525   */\n      tag_115\n      jump\t// in\n    tag_184:\n        /* \"#utility.yul\":3444:3525   */\n      swap2\n      pop\n        /* \"#utility.yul\":3301:3536   */\n      pop\n        /* \"#utility.yul\":3617:3621   */\n      0x60\n        /* \"#utility.yul\":3610:3615   */\n      dup4\n        /* \"#utility.yul\":3606:3622   */\n      add\n        /* \"#utility.yul\":3600:3623   */\n      mload\n        /* \"#utility.yul\":3670:3673   */\n      dup5\n        /* \"#utility.yul\":3664:3668   */\n      dup3\n        /* \"#utility.yul\":3660:3674   */\n      sub\n        /* \"#utility.yul\":3653:3657   */\n      0x60\n        /* \"#utility.yul\":3648:3651   */\n      dup7\n        /* \"#utility.yul\":3644:3658   */\n      add\n        /* \"#utility.yul\":3637:3675   */\n      mstore\n        /* \"#utility.yul\":3696:3769   */\n      tag_185\n        /* \"#utility.yul\":3764:3768   */\n      dup3\n        /* \"#utility.yul\":3750:3762   */\n      dup3\n        /* \"#utility.yul\":3696:3769   */\n      tag_115\n      jump\t// in\n    tag_185:\n        /* \"#utility.yul\":3688:3769   */\n      swap2\n      pop\n        /* \"#utility.yul\":3546:3780   */\n      pop\n        /* \"#utility.yul\":3797:3801   */\n      dup1\n        /* \"#utility.yul\":3790:3801   */\n      swap2\n      pop\n        /* \"#utility.yul\":2764:3807   */\n      pop\n        /* \"#utility.yul\":2652:3807   */\n      swap3\n      swap2\n      pop\n      pop\n      jump\t// out\n        /* \"#utility.yul\":3813:4065   */\n    tag_117:\n        /* \"#utility.yul\":3930:3940   */\n      0x00\n        /* \"#utility.yul\":3965:4059   */\n      tag_187\n        /* \"#utility.yul\":4055:4058   */\n      dup4\n        /* \"#utility.yul\":4047:4053   */\n      dup4\n        /* \"#utility.yul\":3965:4059   */\n      tag_116\n      jump\t// in\n    tag_187:\n        /* \"#utility.yul\":3951:4059   */\n      swap1\n      pop\n        /* \"#utility.yul\":3813:4065   */\n      swap3\n      swap2\n      pop\n      pop\n      jump\t// out\n        /* \"#utility.yul\":4071:4208   */\n    tag_118:\n        /* \"#utility.yul\":4165:4169   */\n      0x00\n        /* \"#utility.yul\":4197:4201   */\n      0x20\n        /* \"#utility.yul\":4192:4195   */\n      dup3\n        /* \"#utility.yul\":4188:4202   */\n      add\n        /* \"#utility.yul\":4180:4202   */\n      swap1\n      pop\n        /* \"#utility.yul\":4071:4208   */\n      swap2\n      swap1\n      pop\n      jump\t// out\n        /* \"#utility.yul\":4288:5391   */\n    tag_119:\n        /* \"#utility.yul\":4455:4458   */\n      0x00\n        /* \"#utility.yul\":4484:4562   */\n      tag_190\n        /* \"#utility.yul\":4556:4561   */\n      dup3\n        /* \"#utility.yul\":4484:4562   */\n      tag_108\n      jump\t// in\n    tag_190:\n        /* \"#utility.yul\":4578:4688   */\n      tag_191\n        /* \"#utility.yul\":4681:4687   */\n      dup2\n        /* \"#utility.yul\":4676:4679   */\n      dup6\n        /* \"#utility.yul\":4578:4688   */\n      tag_109\n      jump\t// in\n    tag_191:\n        /* \"#utility.yul\":4571:4688   */\n      swap4\n      pop\n        /* \"#utility.yul\":4714:4717   */\n      dup4\n        /* \"#utility.yul\":4759:4763   */\n      0x20\n        /* \"#utility.yul\":4751:4757   */\n      dup3\n        /* \"#utility.yul\":4747:4764   */\n      mul\n        /* \"#utility.yul\":4742:4745   */\n      dup6\n        /* \"#utility.yul\":4738:4765   */\n      add\n        /* \"#utility.yul\":4789:4869   */\n      tag_192\n        /* \"#utility.yul\":4863:4868   */\n      dup6\n        /* \"#utility.yul\":4789:4869   */\n      tag_110\n      jump\t// in\n    tag_192:\n        /* \"#utility.yul\":4892:4899   */\n      dup1\n        /* \"#utility.yul\":4923:4924   */\n      0x00\n        /* \"#utility.yul\":4908:5346   */\n    tag_193:\n        /* \"#utility.yul\":4933:4939   */\n      dup6\n        /* \"#utility.yul\":4930:4931   */\n      dup2\n        /* \"#utility.yul\":4927:4940   */\n      lt\n        /* \"#utility.yul\":4908:5346   */\n      iszero\n      tag_195\n      jumpi\n        /* \"#utility.yul\":5004:5013   */\n      dup5\n        /* \"#utility.yul\":4998:5002   */\n      dup5\n        /* \"#utility.yul\":4994:5014   */\n      sub\n        /* \"#utility.yul\":4989:4992   */\n      dup10\n        /* \"#utility.yul\":4982:5015   */\n      mstore\n        /* \"#utility.yul\":5055:5061   */\n      dup2\n        /* \"#utility.yul\":5049:5062   */\n      mload\n        /* \"#utility.yul\":5083:5195   */\n      tag_196\n        /* \"#utility.yul\":5190:5194   */\n      dup6\n        /* \"#utility.yul\":5175:5188   */\n      dup3\n        /* \"#utility.yul\":5083:5195   */\n      tag_117\n      jump\t// in\n    tag_196:\n        /* \"#utility.yul\":5075:5195   */\n      swap5\n      pop\n        /* \"#utility.yul\":5218:5302   */\n      tag_197\n        /* \"#utility.yul\":5295:5301   */\n      dup4\n        /* \"#utility.yul\":5218:5302   */\n      tag_118\n      jump\t// in\n    tag_197:\n        /* \"#utility.yul\":5208:5302   */\n      swap3\n      pop\n        /* \"#utility.yul\":5331:5335   */\n      0x20\n        /* \"#utility.yul\":5326:5329   */\n      dup11\n        /* \"#utility.yul\":5322:5336   */\n      add\n        /* \"#utility.yul\":5315:5336   */\n      swap10\n      pop\n        /* \"#utility.yul\":4968:5346   */\n      pop\n        /* \"#utility.yul\":4955:4956   */\n      0x01\n        /* \"#utility.yul\":4952:4953   */\n      dup2\n        /* \"#utility.yul\":4948:4957   */\n      add\n        /* \"#utility.yul\":4943:4957   */\n      swap1\n      pop\n        /* \"#utility.yul\":4908:5346   */\n      jump(tag_193)\n    tag_195:\n        /* \"#utility.yul\":4912:4926   */\n      pop\n        /* \"#utility.yul\":5362:5366   */\n      dup3\n        /* \"#utility.yul\":5355:5366   */\n      swap8\n      pop\n        /* \"#utility.yul\":5382:5385   */\n      dup8\n        /* \"#utility.yul\":5375:5385   */\n      swap6\n      pop\n        /* \"#utility.yul\":4460:5391   */\n      pop\n      pop\n      pop\n      pop\n      pop\n        /* \"#utility.yul\":4288:5391   */\n      swap3\n      swap2\n      pop\n      pop\n      jump\t// out\n        /* \"#utility.yul\":5397:5866   */\n    tag_14:\n        /* \"#utility.yul\":5588:5592   */\n      0x00\n        /* \"#utility.yul\":5626:5628   */\n      0x20\n        /* \"#utility.yul\":5615:5624   */\n      dup3\n        /* \"#utility.yul\":5611:5629   */\n      add\n        /* \"#utility.yul\":5603:5629   */\n      swap1\n      pop\n        /* \"#utility.yul\":5675:5684   */\n      dup2\n        /* \"#utility.yul\":5669:5673   */\n      dup2\n        /* \"#utility.yul\":5665:5685   */\n      sub\n        /* \"#utility.yul\":5661:5662   */\n      0x00\n        /* \"#utility.yul\":5650:5659   */\n      dup4\n        /* \"#utility.yul\":5646:5663   */\n      add\n        /* \"#utility.yul\":5639:5686   */\n      mstore\n        /* \"#utility.yul\":5703:5859   */\n      tag_199\n        /* \"#utility.yul\":5854:5858   */\n      dup2\n        /* \"#utility.yul\":5845:5851   */\n      dup5\n        /* \"#utility.yul\":5703:5859   */\n      tag_119\n      jump\t// in\n    tag_199:\n        /* \"#utility.yul\":5695:5859   */\n      swap1\n      pop\n        /* \"#utility.yul\":5397:5866   */\n      swap3\n      swap2\n      pop\n      pop\n      jump\t// out\n        /* \"#utility.yul\":5872:5989   */\n    tag_120:\n        /* \"#utility.yul\":5981:5982   */\n      0x00\n        /* \"#utility.yul\":5978:5979   */\n      dup1\n        /* \"#utility.yul\":5971:5983   */\n      revert\n        /* \"#utility.yul\":5995:6175   */\n    tag_121:\n        /* \"#utility.yul\":6043:6120   */\n      0x4e487b7100000000000000000000000000000000000000000000000000000000\n        /* \"#utility.yul\":6040:6041   */\n      0x00\n        /* \"#utility.yul\":6033:6121   */\n      mstore\n        /* \"#utility.yul\":6140:6144   */\n      0x41\n        /* \"#utility.yul\":6137:6138   */\n      0x04\n        /* \"#utility.yul\":6130:6145   */\n      mstore\n        /* \"#utility.yul\":6164:6168   */\n      0x24\n        /* \"#utility.yul\":6161:6162   */\n      0x00\n        /* \"#utility.yul\":6154:6169   */\n      revert\n        /* \"#utility.yul\":6181:6462   */\n    tag_122:\n        /* \"#utility.yul\":6264:6291   */\n      tag_203\n        /* \"#utility.yul\":6286:6290   */\n      dup3\n        /* \"#utility.yul\":6264:6291   */\n      tag_114\n      jump\t// in\n    tag_203:\n        /* \"#utility.yul\":6256:6262   */\n      dup2\n        /* \"#utility.yul\":6252:6292   */\n      add\n        /* \"#utility.yul\":6394:6400   */\n      dup2\n        /* \"#utility.yul\":6382:6392   */\n      dup2\n        /* \"#utility.yul\":6379:6401   */\n      lt\n        /* \"#utility.yul\":6358:6376   */\n      0xffffffffffffffff\n        /* \"#utility.yul\":6346:6356   */\n      dup3\n        /* \"#utility.yul\":6343:6377   */\n      gt\n        /* \"#utility.yul\":6340:6402   */\n      or\n        /* \"#utility.yul\":6337:6425   */\n      iszero\n      tag_204\n      jumpi\n        /* \"#utility.yul\":6405:6423   */\n      tag_205\n      tag_121\n      jump\t// in\n    tag_205:\n        /* \"#utility.yul\":6337:6425   */\n    tag_204:\n        /* \"#utility.yul\":6445:6455   */\n      dup1\n        /* \"#utility.yul\":6441:6443   */\n      0x40\n        /* \"#utility.yul\":6434:6456   */\n      mstore\n        /* \"#utility.yul\":6224:6462   */\n      pop\n        /* \"#utility.yul\":6181:6462   */\n      pop\n      pop\n      jump\t// out\n        /* \"#utility.yul\":6468:6597   */\n    tag_123:\n        /* \"#utility.yul\":6502:6508   */\n      0x00\n        /* \"#utility.yul\":6529:6549   */\n      tag_207\n      tag_101\n      jump\t// in\n    tag_207:\n        /* \"#utility.yul\":6519:6549   */\n      swap1\n      pop\n        /* \"#utility.yul\":6558:6591   */\n      tag_208\n        /* \"#utility.yul\":6586:6590   */\n      dup3\n        /* \"#utility.yul\":6578:6584   */\n      dup3\n        /* \"#utility.yul\":6558:6591   */\n      tag_122\n      jump\t// in\n    tag_208:\n        /* \"#utility.yul\":6468:6597   */\n      swap2\n      swap1\n      pop\n      jump\t// out\n        /* \"#utility.yul\":6603:6938   */\n    tag_124:\n        /* \"#utility.yul\":6704:6708   */\n      0x00\n        /* \"#utility.yul\":6794:6812   */\n      0xffffffffffffffff\n        /* \"#utility.yul\":6786:6792   */\n      dup3\n        /* \"#utility.yul\":6783:6813   */\n      gt\n        /* \"#utility.yul\":6780:6836   */\n      iszero\n      tag_210\n      jumpi\n        /* \"#utility.yul\":6816:6834   */\n      tag_211\n      tag_121\n      jump\t// in\n    tag_211:\n        /* \"#utility.yul\":6780:6836   */\n    tag_210:\n        /* \"#utility.yul\":6866:6870   */\n      0x20\n        /* \"#utility.yul\":6858:6864   */\n      dup3\n        /* \"#utility.yul\":6854:6871   */\n      mul\n        /* \"#utility.yul\":6846:6871   */\n      swap1\n      pop\n        /* \"#utility.yul\":6926:6930   */\n      0x20\n        /* \"#utility.yul\":6920:6924   */\n      dup2\n        /* \"#utility.yul\":6916:6931   */\n      add\n        /* \"#utility.yul\":6908:6931   */\n      swap1\n      pop\n        /* \"#utility.yul\":6603:6938   */\n      swap2\n      swap1\n      pop\n      jump\t// out\n        /* \"#utility.yul\":6944:7061   */\n    tag_125:\n        /* \"#utility.yul\":7053:7054   */\n      0x00\n        /* \"#utility.yul\":7050:7051   */\n      dup1\n        /* \"#utility.yul\":7043:7055   */\n      revert\n        /* \"#utility.yul\":7067:7184   */\n    tag_126:\n        /* \"#utility.yul\":7176:7177   */\n      0x00\n        /* \"#utility.yul\":7173:7174   */\n      dup1\n        /* \"#utility.yul\":7166:7178   */\n      revert\n        /* \"#utility.yul\":7190:7307   */\n    tag_127:\n        /* \"#utility.yul\":7299:7300   */\n      0x00\n        /* \"#utility.yul\":7296:7297   */\n      dup1\n        /* \"#utility.yul\":7289:7301   */\n      revert\n        /* \"#utility.yul\":7313:7430   */\n    tag_128:\n        /* \"#utility.yul\":7422:7423   */\n      0x00\n        /* \"#utility.yul\":7419:7420   */\n      dup1\n        /* \"#utility.yul\":7412:7424   */\n      revert\n        /* \"#utility.yul\":7436:7744   */\n    tag_129:\n        /* \"#utility.yul\":7498:7502   */\n      0x00\n        /* \"#utility.yul\":7588:7606   */\n      0xffffffffffffffff\n        /* \"#utility.yul\":7580:7586   */\n      dup3\n        /* \"#utility.yul\":7577:7607   */\n      gt\n        /* \"#utility.yul\":7574:7630   */\n      iszero\n      tag_217\n      jumpi\n        /* \"#utility.yul\":7610:7628   */\n      tag_218\n      tag_121\n      jump\t// in\n    tag_218:\n        /* \"#utility.yul\":7574:7630   */\n    tag_217:\n        /* \"#utility.yul\":7648:7677   */\n      tag_219\n        /* \"#utility.yul\":7670:7676   */\n      dup3\n        /* \"#utility.yul\":7648:7677   */\n      tag_114\n      jump\t// in\n    tag_219:\n        /* \"#utility.yul\":7640:7677   */\n      swap1\n      pop\n        /* \"#utility.yul\":7732:7736   */\n      0x20\n        /* \"#utility.yul\":7726:7730   */\n      dup2\n        /* \"#utility.yul\":7722:7737   */\n      add\n        /* \"#utility.yul\":7714:7737   */\n      swap1\n      pop\n        /* \"#utility.yul\":7436:7744   */\n      swap2\n      swap1\n      pop\n      jump\t// out\n        /* \"#utility.yul\":7750:7898   */\n    tag_130:\n        /* \"#utility.yul\":7848:7854   */\n      dup3\n        /* \"#utility.yul\":7843:7846   */\n      dup2\n        /* \"#utility.yul\":7838:7841   */\n      dup4\n        /* \"#utility.yul\":7825:7855   */\n      calldatacopy\n        /* \"#utility.yul\":7889:7890   */\n      0x00\n        /* \"#utility.yul\":7880:7886   */\n      dup4\n        /* \"#utility.yul\":7875:7878   */\n      dup4\n        /* \"#utility.yul\":7871:7887   */\n      add\n        /* \"#utility.yul\":7864:7891   */\n      mstore\n        /* \"#utility.yul\":7750:7898   */\n      pop\n      pop\n      pop\n      jump\t// out\n        /* \"#utility.yul\":7904:8329   */\n    tag_131:\n        /* \"#utility.yul\":7982:7987   */\n      0x00\n        /* \"#utility.yul\":8007:8073   */\n      tag_222\n        /* \"#utility.yul\":8023:8072   */\n      tag_223\n        /* \"#utility.yul\":8065:8071   */\n      dup5\n        /* \"#utility.yul\":8023:8072   */\n      tag_129\n      jump\t// in\n    tag_223:\n        /* \"#utility.yul\":8007:8073   */\n      tag_123\n      jump\t// in\n    tag_222:\n        /* \"#utility.yul\":7998:8073   */\n      swap1\n      pop\n        /* \"#utility.yul\":8096:8102   */\n      dup3\n        /* \"#utility.yul\":8089:8094   */\n      dup2\n        /* \"#utility.yul\":8082:8103   */\n      mstore\n        /* \"#utility.yul\":8134:8138   */\n      0x20\n        /* \"#utility.yul\":8127:8132   */\n      dup2\n        /* \"#utility.yul\":8123:8139   */\n      add\n        /* \"#utility.yul\":8172:8175   */\n      dup5\n        /* \"#utility.yul\":8163:8169   */\n      dup5\n        /* \"#utility.yul\":8158:8161   */\n      dup5\n        /* \"#utility.yul\":8154:8170   */\n      add\n        /* \"#utility.yul\":8151:8176   */\n      gt\n        /* \"#utility.yul\":8148:8260   */\n      iszero\n      tag_224\n      jumpi\n        /* \"#utility.yul\":8179:8258   */\n      tag_225\n      tag_128\n      jump\t// in\n    tag_225:\n        /* \"#utility.yul\":8148:8260   */\n    tag_224:\n        /* \"#utility.yul\":8269:8323   */\n      tag_226\n        /* \"#utility.yul\":8316:8322   */\n      dup5\n        /* \"#utility.yul\":8311:8314   */\n      dup3\n        /* \"#utility.yul\":8306:8309   */\n      dup6\n        /* \"#utility.yul\":8269:8323   */\n      tag_130\n      jump\t// in\n    tag_226:\n        /* \"#utility.yul\":7988:8329   */\n      pop\n        /* \"#utility.yul\":7904:8329   */\n      swap4\n      swap3\n      pop\n      pop\n      pop\n      jump\t// out\n        /* \"#utility.yul\":8349:8689   */\n    tag_132:\n        /* \"#utility.yul\":8405:8410   */\n      0x00\n        /* \"#utility.yul\":8454:8457   */\n      dup3\n        /* \"#utility.yul\":8447:8451   */\n      0x1f\n        /* \"#utility.yul\":8439:8445   */\n      dup4\n        /* \"#utility.yul\":8435:8452   */\n      add\n        /* \"#utility.yul\":8431:8458   */\n      slt\n        /* \"#utility.yul\":8421:8543   */\n      tag_228\n      jumpi\n        /* \"#utility.yul\":8462:8541   */\n      tag_229\n      tag_120\n      jump\t// in\n    tag_229:\n        /* \"#utility.yul\":8421:8543   */\n    tag_228:\n        /* \"#utility.yul\":8579:8585   */\n      dup2\n        /* \"#utility.yul\":8566:8586   */\n      calldataload\n        /* \"#utility.yul\":8604:8683   */\n      tag_230\n        /* \"#utility.yul\":8679:8682   */\n      dup5\n        /* \"#utility.yul\":8671:8677   */\n      dup3\n        /* \"#utility.yul\":8664:8668   */\n      0x20\n        /* \"#utility.yul\":8656:8662   */\n      dup7\n        /* \"#utility.yul\":8652:8669   */\n      add\n        /* \"#utility.yul\":8604:8683   */\n      tag_131\n      jump\t// in\n    tag_230:\n        /* \"#utility.yul\":8595:8683   */\n      swap2\n      pop\n        /* \"#utility.yul\":8411:8689   */\n      pop\n        /* \"#utility.yul\":8349:8689   */\n      swap3\n      swap2\n      pop\n      pop\n      jump\t// out\n        /* \"#utility.yul\":8732:10307   */\n    tag_133:\n        /* \"#utility.yul\":8805:8810   */\n      0x00\n        /* \"#utility.yul\":8849:8853   */\n      0x80\n        /* \"#utility.yul\":8837:8846   */\n      dup3\n        /* \"#utility.yul\":8832:8835   */\n      dup5\n        /* \"#utility.yul\":8828:8847   */\n      sub\n        /* \"#utility.yul\":8824:8854   */\n      slt\n        /* \"#utility.yul\":8821:8938   */\n      iszero\n      tag_232\n      jumpi\n        /* \"#utility.yul\":8857:8936   */\n      tag_233\n      tag_126\n      jump\t// in\n    tag_233:\n        /* \"#utility.yul\":8821:8938   */\n    tag_232:\n        /* \"#utility.yul\":8956:8977   */\n      tag_234\n        /* \"#utility.yul\":8972:8976   */\n      0x80\n        /* \"#utility.yul\":8956:8977   */\n      tag_123\n      jump\t// in\n    tag_234:\n        /* \"#utility.yul\":8947:8977   */\n      swap1\n      pop\n        /* \"#utility.yul\":9064:9065   */\n      0x00\n        /* \"#utility.yul\":9053:9062   */\n      dup3\n        /* \"#utility.yul\":9049:9066   */\n      add\n        /* \"#utility.yul\":9036:9067   */\n      calldataload\n        /* \"#utility.yul\":9094:9112   */\n      0xffffffffffffffff\n        /* \"#utility.yul\":9086:9092   */\n      dup2\n        /* \"#utility.yul\":9083:9113   */\n      gt\n        /* \"#utility.yul\":9080:9197   */\n      iszero\n      tag_235\n      jumpi\n        /* \"#utility.yul\":9116:9195   */\n      tag_236\n      tag_127\n      jump\t// in\n    tag_236:\n        /* \"#utility.yul\":9080:9197   */\n    tag_235:\n        /* \"#utility.yul\":9236:9295   */\n      tag_237\n        /* \"#utility.yul\":9291:9294   */\n      dup5\n        /* \"#utility.yul\":9282:9288   */\n      dup3\n        /* \"#utility.yul\":9271:9280   */\n      dup6\n        /* \"#utility.yul\":9267:9289   */\n      add\n        /* \"#utility.yul\":9236:9295   */\n      tag_132\n      jump\t// in\n    tag_237:\n        /* \"#utility.yul\":9229:9233   */\n      0x00\n        /* \"#utility.yul\":9222:9227   */\n      dup4\n        /* \"#utility.yul\":9218:9234   */\n      add\n        /* \"#utility.yul\":9211:9296   */\n      mstore\n        /* \"#utility.yul\":8987:9307   */\n      pop\n        /* \"#utility.yul\":9395:9397   */\n      0x20\n        /* \"#utility.yul\":9384:9393   */\n      dup3\n        /* \"#utility.yul\":9380:9398   */\n      add\n        /* \"#utility.yul\":9367:9399   */\n      calldataload\n        /* \"#utility.yul\":9426:9444   */\n      0xffffffffffffffff\n        /* \"#utility.yul\":9418:9424   */\n      dup2\n        /* \"#utility.yul\":9415:9445   */\n      gt\n        /* \"#utility.yul\":9412:9529   */\n      iszero\n      tag_238\n      jumpi\n        /* \"#utility.yul\":9448:9527   */\n      tag_239\n      tag_127\n      jump\t// in\n    tag_239:\n        /* \"#utility.yul\":9412:9529   */\n    tag_238:\n        /* \"#utility.yul\":9568:9627   */\n      tag_240\n        /* \"#utility.yul\":9623:9626   */\n      dup5\n        /* \"#utility.yul\":9614:9620   */\n      dup3\n        /* \"#utility.yul\":9603:9612   */\n      dup6\n        /* \"#utility.yul\":9599:9621   */\n      add\n        /* \"#utility.yul\":9568:9627   */\n      tag_132\n      jump\t// in\n    tag_240:\n        /* \"#utility.yul\":9561:9565   */\n      0x20\n        /* \"#utility.yul\":9554:9559   */\n      dup4\n        /* \"#utility.yul\":9550:9566   */\n      add\n        /* \"#utility.yul\":9543:9628   */\n      mstore\n        /* \"#utility.yul\":9317:9639   */\n      pop\n        /* \"#utility.yul\":9726:9728   */\n      0x40\n        /* \"#utility.yul\":9715:9724   */\n      dup3\n        /* \"#utility.yul\":9711:9729   */\n      add\n        /* \"#utility.yul\":9698:9730   */\n      calldataload\n        /* \"#utility.yul\":9757:9775   */\n      0xffffffffffffffff\n        /* \"#utility.yul\":9749:9755   */\n      dup2\n        /* \"#utility.yul\":9746:9776   */\n      gt\n        /* \"#utility.yul\":9743:9860   */\n      iszero\n      tag_241\n      jumpi\n        /* \"#utility.yul\":9779:9858   */\n      tag_242\n      tag_127\n      jump\t// in\n    tag_242:\n        /* \"#utility.yul\":9743:9860   */\n    tag_241:\n        /* \"#utility.yul\":9899:9958   */\n      tag_243\n        /* \"#utility.yul\":9954:9957   */\n      dup5\n        /* \"#utility.yul\":9945:9951   */\n      dup3\n        /* \"#utility.yul\":9934:9943   */\n      dup6\n        /* \"#utility.yul\":9930:9952   */\n      add\n        /* \"#utility.yul\":9899:9958   */\n      tag_132\n      jump\t// in\n    tag_243:\n        /* \"#utility.yul\":9892:9896   */\n      0x40\n        /* \"#utility.yul\":9885:9890   */\n      dup4\n        /* \"#utility.yul\":9881:9897   */\n      add\n        /* \"#utility.yul\":9874:9959   */\n      mstore\n        /* \"#utility.yul\":9649:9970   */\n      pop\n        /* \"#utility.yul\":10056:10058   */\n      0x60\n        /* \"#utility.yul\":10045:10054   */\n      dup3\n        /* \"#utility.yul\":10041:10059   */\n      add\n        /* \"#utility.yul\":10028:10060   */\n      calldataload\n        /* \"#utility.yul\":10087:10105   */\n      0xffffffffffffffff\n        /* \"#utility.yul\":10079:10085   */\n      dup2\n        /* \"#utility.yul\":10076:10106   */\n      gt\n        /* \"#utility.yul\":10073:10190   */\n      iszero\n      tag_244\n      jumpi\n        /* \"#utility.yul\":10109:10188   */\n      tag_245\n      tag_127\n      jump\t// in\n    tag_245:\n        /* \"#utility.yul\":10073:10190   */\n    tag_244:\n        /* \"#utility.yul\":10229:10288   */\n      tag_246\n        /* \"#utility.yul\":10284:10287   */\n      dup5\n        /* \"#utility.yul\":10275:10281   */\n      dup3\n        /* \"#utility.yul\":10264:10273   */\n      dup6\n        /* \"#utility.yul\":10260:10282   */\n      add\n        /* \"#utility.yul\":10229:10288   */\n      tag_132\n      jump\t// in\n    tag_246:\n        /* \"#utility.yul\":10222:10226   */\n      0x60\n        /* \"#utility.yul\":10215:10220   */\n      dup4\n        /* \"#utility.yul\":10211:10227   */\n      add\n        /* \"#utility.yul\":10204:10289   */\n      mstore\n        /* \"#utility.yul\":9980:10300   */\n      pop\n        /* \"#utility.yul\":8732:10307   */\n      swap3\n      swap2\n      pop\n      pop\n      jump\t// out\n        /* \"#utility.yul\":10352:11339   */\n    tag_134:\n        /* \"#utility.yul\":10472:10477   */\n      0x00\n        /* \"#utility.yul\":10497:10602   */\n      tag_248\n        /* \"#utility.yul\":10513:10601   */\n      tag_249\n        /* \"#utility.yul\":10594:10600   */\n      dup5\n        /* \"#utility.yul\":10513:10601   */\n      tag_124\n      jump\t// in\n    tag_249:\n        /* \"#utility.yul\":10497:10602   */\n      tag_123\n      jump\t// in\n    tag_248:\n        /* \"#utility.yul\":10488:10602   */\n      swap1\n      pop\n        /* \"#utility.yul\":10622:10627   */\n      dup1\n        /* \"#utility.yul\":10651:10657   */\n      dup4\n        /* \"#utility.yul\":10644:10649   */\n      dup3\n        /* \"#utility.yul\":10637:10658   */\n      mstore\n        /* \"#utility.yul\":10685:10689   */\n      0x20\n        /* \"#utility.yul\":10678:10683   */\n      dup3\n        /* \"#utility.yul\":10674:10690   */\n      add\n        /* \"#utility.yul\":10667:10690   */\n      swap1\n      pop\n        /* \"#utility.yul\":10738:10742   */\n      0x20\n        /* \"#utility.yul\":10730:10736   */\n      dup5\n        /* \"#utility.yul\":10726:10743   */\n      mul\n        /* \"#utility.yul\":10718:10724   */\n      dup4\n        /* \"#utility.yul\":10714:10744   */\n      add\n        /* \"#utility.yul\":10767:10770   */\n      dup6\n        /* \"#utility.yul\":10759:10765   */\n      dup2\n        /* \"#utility.yul\":10756:10771   */\n      gt\n        /* \"#utility.yul\":10753:10875   */\n      iszero\n      tag_250\n      jumpi\n        /* \"#utility.yul\":10786:10865   */\n      tag_251\n      tag_125\n      jump\t// in\n    tag_251:\n        /* \"#utility.yul\":10753:10875   */\n    tag_250:\n        /* \"#utility.yul\":10901:10907   */\n      dup4\n        /* \"#utility.yul\":10884:11333   */\n    tag_252:\n        /* \"#utility.yul\":10918:10924   */\n      dup2\n        /* \"#utility.yul\":10913:10916   */\n      dup2\n        /* \"#utility.yul\":10910:10925   */\n      lt\n        /* \"#utility.yul\":10884:11333   */\n      iszero\n      tag_254\n      jumpi\n        /* \"#utility.yul\":11007:11010   */\n      dup1\n        /* \"#utility.yul\":10994:11011   */\n      calldataload\n        /* \"#utility.yul\":11043:11061   */\n      0xffffffffffffffff\n        /* \"#utility.yul\":11030:11041   */\n      dup2\n        /* \"#utility.yul\":11027:11062   */\n      gt\n        /* \"#utility.yul\":11024:11146   */\n      iszero\n      tag_255\n      jumpi\n        /* \"#utility.yul\":11065:11144   */\n      tag_256\n      tag_120\n      jump\t// in\n    tag_256:\n        /* \"#utility.yul\":11024:11146   */\n    tag_255:\n        /* \"#utility.yul\":11189:11200   */\n      dup1\n        /* \"#utility.yul\":11181:11187   */\n      dup7\n        /* \"#utility.yul\":11177:11201   */\n      add\n        /* \"#utility.yul\":11227:11288   */\n      tag_257\n        /* \"#utility.yul\":11284:11287   */\n      dup10\n        /* \"#utility.yul\":11272:11282   */\n      dup3\n        /* \"#utility.yul\":11227:11288   */\n      tag_133\n      jump\t// in\n    tag_257:\n        /* \"#utility.yul\":11222:11225   */\n      dup6\n        /* \"#utility.yul\":11215:11289   */\n      mstore\n        /* \"#utility.yul\":11318:11322   */\n      0x20\n        /* \"#utility.yul\":11313:11316   */\n      dup6\n        /* \"#utility.yul\":11309:11323   */\n      add\n        /* \"#utility.yul\":11302:11323   */\n      swap5\n      pop\n        /* \"#utility.yul\":10960:11333   */\n      pop\n      pop\n        /* \"#utility.yul\":10944:10948   */\n      0x20\n        /* \"#utility.yul\":10939:10942   */\n      dup2\n        /* \"#utility.yul\":10935:10949   */\n      add\n        /* \"#utility.yul\":10928:10949   */\n      swap1\n      pop\n        /* \"#utility.yul\":10884:11333   */\n      jump(tag_252)\n    tag_254:\n        /* \"#utility.yul\":10888:10909   */\n      pop\n        /* \"#utility.yul\":10478:11339   */\n      pop\n      pop\n        /* \"#utility.yul\":10352:11339   */\n      swap4\n      swap3\n      pop\n      pop\n      pop\n      jump\t// out\n        /* \"#utility.yul\":11384:11802   */\n    tag_135:\n        /* \"#utility.yul\":11479:11484   */\n      0x00\n        /* \"#utility.yul\":11528:11531   */\n      dup3\n        /* \"#utility.yul\":11521:11525   */\n      0x1f\n        /* \"#utility.yul\":11513:11519   */\n      dup4\n        /* \"#utility.yul\":11509:11526   */\n      add\n        /* \"#utility.yul\":11505:11532   */\n      slt\n        /* \"#utility.yul\":11495:11617   */\n      tag_259\n      jumpi\n        /* \"#utility.yul\":11536:11615   */\n      tag_260\n      tag_120\n      jump\t// in\n    tag_260:\n        /* \"#utility.yul\":11495:11617   */\n    tag_259:\n        /* \"#utility.yul\":11653:11659   */\n      dup2\n        /* \"#utility.yul\":11640:11660   */\n      calldataload\n        /* \"#utility.yul\":11678:11796   */\n      tag_261\n        /* \"#utility.yul\":11792:11795   */\n      dup5\n        /* \"#utility.yul\":11784:11790   */\n      dup3\n        /* \"#utility.yul\":11777:11781   */\n      0x20\n        /* \"#utility.yul\":11769:11775   */\n      dup7\n        /* \"#utility.yul\":11765:11782   */\n      add\n        /* \"#utility.yul\":11678:11796   */\n      tag_134\n      jump\t// in\n    tag_261:\n        /* \"#utility.yul\":11669:11796   */\n      swap2\n      pop\n        /* \"#utility.yul\":11485:11802   */\n      pop\n        /* \"#utility.yul\":11384:11802   */\n      swap3\n      swap2\n      pop\n      pop\n      jump\t// out\n        /* \"#utility.yul\":11808:12395   */\n    tag_17:\n        /* \"#utility.yul\":11916:11922   */\n      0x00\n        /* \"#utility.yul\":11965:11967   */\n      0x20\n        /* \"#utility.yul\":11953:11962   */\n      dup3\n        /* \"#utility.yul\":11944:11951   */\n      dup5\n        /* \"#utility.yul\":11940:11963   */\n      sub\n        /* \"#utility.yul\":11936:11968   */\n      slt\n        /* \"#utility.yul\":11933:12052   */\n      iszero\n      tag_263\n      jumpi\n        /* \"#utility.yul\":11971:12050   */\n      tag_264\n      tag_102\n      jump\t// in\n    tag_264:\n        /* \"#utility.yul\":11933:12052   */\n    tag_263:\n        /* \"#utility.yul\":12119:12120   */\n      0x00\n        /* \"#utility.yul\":12108:12117   */\n      dup3\n        /* \"#utility.yul\":12104:12121   */\n      add\n        /* \"#utility.yul\":12091:12122   */\n      calldataload\n        /* \"#utility.yul\":12149:12167   */\n      0xffffffffffffffff\n        /* \"#utility.yul\":12141:12147   */\n      dup2\n        /* \"#utility.yul\":12138:12168   */\n      gt\n        /* \"#utility.yul\":12135:12252   */\n      iszero\n      tag_265\n      jumpi\n        /* \"#utility.yul\":12171:12250   */\n      tag_266\n      tag_103\n      jump\t// in\n    tag_266:\n        /* \"#utility.yul\":12135:12252   */\n    tag_265:\n        /* \"#utility.yul\":12276:12378   */\n      tag_267\n        /* \"#utility.yul\":12370:12377   */\n      dup5\n        /* \"#utility.yul\":12361:12367   */\n      dup3\n        /* \"#utility.yul\":12350:12359   */\n      dup6\n        /* \"#utility.yul\":12346:12368   */\n      add\n        /* \"#utility.yul\":12276:12378   */\n      tag_135\n      jump\t// in\n    tag_267:\n        /* \"#utility.yul\":12266:12378   */\n      swap2\n      pop\n        /* \"#utility.yul\":12062:12388   */\n      pop\n        /* \"#utility.yul\":11808:12395   */\n      swap3\n      swap2\n      pop\n      pop\n      jump\t// out\n        /* \"#utility.yul\":12401:12581   */\n    tag_136:\n        /* \"#utility.yul\":12449:12526   */\n      0x4e487b7100000000000000000000000000000000000000000000000000000000\n        /* \"#utility.yul\":12446:12447   */\n      0x00\n        /* \"#utility.yul\":12439:12527   */\n      mstore\n        /* \"#utility.yul\":12546:12550   */\n      0x22\n        /* \"#utility.yul\":12543:12544   */\n      0x04\n        /* \"#utility.yul\":12536:12551   */\n      mstore\n        /* \"#utility.yul\":12570:12574   */\n      0x24\n        /* \"#utility.yul\":12567:12568   */\n      0x00\n        /* \"#utility.yul\":12560:12575   */\n      revert\n        /* \"#utility.yul\":12587:12907   */\n    tag_28:\n        /* \"#utility.yul\":12631:12637   */\n      0x00\n        /* \"#utility.yul\":12668:12669   */\n      0x02\n        /* \"#utility.yul\":12662:12666   */\n      dup3\n        /* \"#utility.yul\":12658:12670   */\n      div\n        /* \"#utility.yul\":12648:12670   */\n      swap1\n      pop\n        /* \"#utility.yul\":12715:12716   */\n      0x01\n        /* \"#utility.yul\":12709:12713   */\n      dup3\n        /* \"#utility.yul\":12705:12717   */\n      and\n        /* \"#utility.yul\":12736:12754   */\n      dup1\n        /* \"#utility.yul\":12726:12807   */\n      tag_270\n      jumpi\n        /* \"#utility.yul\":12792:12796   */\n      0x7f\n        /* \"#utility.yul\":12784:12790   */\n      dup3\n        /* \"#utility.yul\":12780:12797   */\n      and\n        /* \"#utility.yul\":12770:12797   */\n      swap2\n      pop\n        /* \"#utility.yul\":12726:12807   */\n    tag_270:\n        /* \"#utility.yul\":12854:12856   */\n      0x20\n        /* \"#utility.yul\":12846:12852   */\n      dup3\n        /* \"#utility.yul\":12843:12857   */\n      lt\n        /* \"#utility.yul\":12823:12841   */\n      dup2\n        /* \"#utility.yul\":12820:12858   */\n      sub\n        /* \"#utility.yul\":12817:12901   */\n      tag_271\n      jumpi\n        /* \"#utility.yul\":12873:12891   */\n      tag_272\n      tag_136\n      jump\t// in\n    tag_272:\n        /* \"#utility.yul\":12817:12901   */\n    tag_271:\n        /* \"#utility.yul\":12638:12907   */\n      pop\n        /* \"#utility.yul\":12587:12907   */\n      swap2\n      swap1\n      pop\n      jump\t// out\n        /* \"#utility.yul\":12913:13093   */\n    tag_77:\n        /* \"#utility.yul\":12961:13038   */\n      0x4e487b7100000000000000000000000000000000000000000000000000000000\n        /* \"#utility.yul\":12958:12959   */\n      0x00\n        /* \"#utility.yul\":12951:13039   */\n      mstore\n        /* \"#utility.yul\":13058:13062   */\n      0x32\n        /* \"#utility.yul\":13055:13056   */\n      0x04\n        /* \"#utility.yul\":13048:13063   */\n      mstore\n        /* \"#utility.yul\":13082:13086   */\n      0x24\n        /* \"#utility.yul\":13079:13080   */\n      0x00\n        /* \"#utility.yul\":13072:13087   */\n      revert\n        /* \"#utility.yul\":13099:13240   */\n    tag_137:\n        /* \"#utility.yul\":13148:13152   */\n      0x00\n        /* \"#utility.yul\":13171:13174   */\n      dup2\n        /* \"#utility.yul\":13163:13174   */\n      swap1\n      pop\n        /* \"#utility.yul\":13194:13197   */\n      dup2\n        /* \"#utility.yul\":13191:13192   */\n      0x00\n        /* \"#utility.yul\":13184:13198   */\n      mstore\n        /* \"#utility.yul\":13228:13232   */\n      0x20\n        /* \"#utility.yul\":13225:13226   */\n      0x00\n        /* \"#utility.yul\":13215:13233   */\n      keccak256\n        /* \"#utility.yul\":13207:13233   */\n      swap1\n      pop\n        /* \"#utility.yul\":13099:13240   */\n      swap2\n      swap1\n      pop\n      jump\t// out\n        /* \"#utility.yul\":13246:13339   */\n    tag_138:\n        /* \"#utility.yul\":13283:13289   */\n      0x00\n        /* \"#utility.yul\":13330:13332   */\n      0x20\n        /* \"#utility.yul\":13325:13327   */\n      0x1f\n        /* \"#utility.yul\":13318:13323   */\n      dup4\n        /* \"#utility.yul\":13314:13328   */\n      add\n        /* \"#utility.yul\":13310:13333   */\n      div\n        /* \"#utility.yul\":13300:13333   */\n      swap1\n      pop\n        /* \"#utility.yul\":13246:13339   */\n      swap2\n      swap1\n      pop\n      jump\t// out\n        /* \"#utility.yul\":13345:13452   */\n    tag_139:\n        /* \"#utility.yul\":13389:13397   */\n      0x00\n        /* \"#utility.yul\":13439:13444   */\n      dup3\n        /* \"#utility.yul\":13433:13437   */\n      dup3\n        /* \"#utility.yul\":13429:13445   */\n      shl\n        /* \"#utility.yul\":13408:13445   */\n      swap1\n      pop\n        /* \"#utility.yul\":13345:13452   */\n      swap3\n      swap2\n      pop\n      pop\n      jump\t// out\n        /* \"#utility.yul\":13458:13851   */\n    tag_140:\n        /* \"#utility.yul\":13527:13533   */\n      0x00\n        /* \"#utility.yul\":13577:13578   */\n      0x08\n        /* \"#utility.yul\":13565:13575   */\n      dup4\n        /* \"#utility.yul\":13561:13579   */\n      mul\n        /* \"#utility.yul\":13600:13697   */\n      tag_278\n        /* \"#utility.yul\":13630:13696   */\n      0xffffffffffffffffffffffffffffffffffffffffffffffffffffffffffffffff\n        /* \"#utility.yul\":13619:13628   */\n      dup3\n        /* \"#utility.yul\":13600:13697   */\n      tag_139\n      jump\t// in\n    tag_278:\n        /* \"#utility.yul\":13718:13757   */\n      tag_279\n        /* \"#utility.yul\":13748:13756   */\n      dup7\n        /* \"#utility.yul\":13737:13746   */\n      dup4\n        /* \"#utility.yul\":13718:13757   */\n      tag_139\n      jump\t// in\n    tag_279:\n        /* \"#utility.yul\":13706:13757   */\n      swap6\n      pop\n        /* \"#utility.yul\":13790:13794   */\n      dup1\n        /* \"#utility.yul\":13786:13795   */\n      not\n        /* \"#utility.yul\":13779:13784   */\n      dup5\n        /* \"#utility.yul\":13775:13796   */\n      and\n        /* \"#utility.yul\":13766:13796   */\n      swap4\n      pop\n        /* \"#utility.yul\":13839:13843   */\n      dup1\n        /* \"#utility.yul\":13829:13837   */\n      dup7\n        /* \"#utility.yul\":13825:13844   */\n      and\n        /* \"#utility.yul\":13818:13823   */\n      dup5\n        /* \"#utility.yul\":13815:13845   */\n      or\n        /* \"#utility.yul\":13805:13845   */\n      swap3\n      pop\n        /* \"#utility.yul\":13534:13851   */\n      pop\n      pop\n        /* \"#utility.yul\":13458:13851   */\n      swap4\n      swap3\n      pop\n      pop\n      pop\n      jump\t// out\n        /* \"#utility.yul\":13857:13934   */\n    tag_141:\n        /* \"#utility.yul\":13894:13901   */\n      0x00\n        /* \"#utility.yul\":13923:13928   */\n      dup2\n        /* \"#utility.yul\":13912:13928   */\n      swap1\n      pop\n        /* \"#utility.yul\":13857:13934   */\n      swap2\n      swap1\n      pop\n      jump\t// out\n        /* \"#utility.yul\":13940:14000   */\n    tag_142:\n        /* \"#utility.yul\":13968:13971   */\n      0x00\n        /* \"#utility.yul\":13989:13994   */\n      dup2\n        /* \"#utility.yul\":13982:13994   */\n      swap1\n      pop\n        /* \"#utility.yul\":13940:14000   */\n      swap2\n      swap1\n      pop\n      jump\t// out\n        /* \"#utility.yul\":14006:14148   */\n    tag_143:\n        /* \"#utility.yul\":14056:14065   */\n      0x00\n        /* \"#utility.yul\":14089:14142   */\n      tag_283\n        /* \"#utility.yul\":14107:14141   */\n      tag_284\n        /* \"#utility.yul\":14116:14140   */\n      tag_285\n        /* \"#utility.yul\":14134:14139   */\n      dup5\n        /* \"#utility.yul\":14116:14140   */\n      tag_141\n      jump\t// in\n    tag_285:\n        /* \"#utility.yul\":14107:14141   */\n      tag_142\n      jump\t// in\n    tag_284:\n        /* \"#utility.yul\":14089:14142   */\n      tag_141\n      jump\t// in\n    tag_283:\n        /* \"#utility.yul\":14076:14142   */\n      swap1\n      pop\n        /* \"#utility.yul\":14006:14148   */\n      swap2\n      swap1\n      pop\n      jump\t// out\n        /* \"#utility.yul\":14154:14229   */\n    tag_144:\n        /* \"#utility.yul\":14197:14200   */\n      0x00\n        /* \"#utility.yul\":14218:14223   */\n      dup2\n        /* \"#utility.yul\":14211:14223   */\n      swap1\n      pop\n        /* \"#utility.yul\":14154:14229   */\n      swap2\n      swap1\n      pop\n      jump\t// out\n        /* \"#utility.yul\":14235:14504   */\n    tag_145:\n        /* \"#utility.yul\":14345:14384   */\n      tag_288\n        /* \"#utility.yul\":14376:14383   */\n      dup4\n        /* \"#utility.yul\":14345:14384   */\n      tag_143\n      jump\t// in\n    tag_288:\n        /* \"#utility.yul\":14406:14497   */\n      tag_289\n        /* \"#utility.yul\":14455:14496   */\n      tag_290\n        /* \"#utility.yul\":14479:14495   */\n      dup3\n        /* \"#utility.yul\":14455:14496   */\n      tag_144\n      jump\t// in\n    tag_290:\n        /* \"#utility.yul\":14447:14453   */\n      dup5\n        /* \"#utility.yul\":14440:14444   */\n      dup5\n        /* \"#utility.yul\":14434:14445   */\n      sload\n        /* \"#utility.yul\":14406:14497   */\n      tag_140\n      jump\t// in\n    tag_289:\n        /* \"#utility.yul\":14400:14404   */\n      dup3\n        /* \"#utility.yul\":14393:14498   */\n      sstore\n        /* \"#utility.yul\":14311:14504   */\n      pop\n        /* \"#utility.yul\":14235:14504   */\n      pop\n      pop\n      pop\n      jump\t// out\n        /* \"#utility.yul\":14510:14583   */\n    tag_146:\n        /* \"#utility.yul\":14555:14558   */\n      0x00\n        /* \"#utility.yul\":14510:14583   */\n      swap1\n      jump\t// out\n        /* \"#utility.yul\":14589:14778   */\n    tag_147:\n        /* \"#utility.yul\":14666:14698   */\n      tag_293\n      tag_146\n      jump\t// in\n    tag_293:\n        /* \"#utility.yul\":14707:14772   */\n      tag_294\n        /* \"#utility.yul\":14765:14771   */\n      dup2\n        /* \"#utility.yul\":14757:14763   */\n      dup5\n        /* \"#utility.yul\":14751:14755   */\n      dup5\n        /* \"#utility.yul\":14707:14772   */\n      tag_145\n      jump\t// in\n    tag_294:\n        /* \"#utility.yul\":14642:14778   */\n      pop\n        /* \"#utility.yul\":14589:14778   */\n      pop\n      pop\n      jump\t// out\n        /* \"#utility.yul\":14784:14970   */\n    tag_148:\n        /* \"#utility.yul\":14844:14964   */\n    tag_296:\n        /* \"#utility.yul\":14861:14864   */\n      dup2\n        /* \"#utility.yul\":14854:14859   */\n      dup2\n        /* \"#utility.yul\":14851:14865   */\n      lt\n        /* \"#utility.yul\":14844:14964   */\n      iszero\n      tag_298\n      jumpi\n        /* \"#utility.yul\":14915:14954   */\n      tag_299\n        /* \"#utility.yul\":14952:14953   */\n      0x00\n        /* \"#utility.yul\":14945:14950   */\n      dup3\n        /* \"#utility.yul\":14915:14954   */\n      tag_147\n      jump\t// in\n    tag_299:\n        /* \"#utility.yul\":14888:14889   */\n      0x01\n        /* \"#utility.yul\":14881:14886   */\n      dup2\n        /* \"#utility.yul\":14877:14890   */\n      add\n        /* \"#utility.yul\":14868:14890   */\n      swap1\n      pop\n        /* \"#utility.yul\":14844:14964   */\n      jump(tag_296)\n    tag_298:\n        /* \"#utility.yul\":14784:14970   */\n      pop\n      pop\n      jump\t// out\n        /* \"#utility.yul\":14976:15519   */\n    tag_149:\n        /* \"#utility.yul\":15077:15079   */\n      0x1f\n        /* \"#utility.yul\":15072:15075   */\n      dup3\n        /* \"#utility.yul\":15069:15080   */\n      gt\n        /* \"#utility.yul\":15066:15512   */\n      iszero\n      tag_301\n      jumpi\n        /* \"#utility.yul\":15111:15149   */\n      tag_302\n        /* \"#utility.yul\":15143:15148   */\n      dup2\n        /* \"#utility.yul\":15111:15149   */\n      tag_137\n      jump\t// in\n    tag_302:\n        /* \"#utility.yul\":15195:15224   */\n      tag_303\n        /* \"#utility.yul\":15213:15223   */\n      dup5\n        /* \"#utility.yul\":15195:15224   */\n      tag_138\n      jump\t// in\n    tag_303:\n        /* \"#utility.yul\":15185:15193   */\n      dup2\n        /* \"#utility.yul\":15181:15225   */\n      add\n        /* \"#utility.yul\":15378:15380   */\n      0x20\n        /* \"#utility.yul\":15366:15376   */\n      dup6\n        /* \"#utility.yul\":15363:15381   */\n      lt\n        /* \"#utility.yul\":15360:15409   */\n      iszero\n      tag_304\n      jumpi\n        /* \"#utility.yul\":15399:15407   */\n      dup2\n        /* \"#utility.yul\":15384:15407   */\n      swap1\n      pop\n        /* \"#utility.yul\":15360:15409   */\n    tag_304:\n        /* \"#utility.yul\":15422:15502   */\n      tag_305\n        /* \"#utility.yul\":15478:15500   */\n      tag_306\n        /* \"#utility.yul\":15496:15499   */\n      dup6\n        /* \"#utility.yul\":15478:15500   */\n      tag_138\n      jump\t// in\n    tag_306:\n        /* \"#utility.yul\":15468:15476   */\n      dup4\n        /* \"#utility.yul\":15464:15501   */\n      add\n        /* \"#utility.yul\":15451:15462   */\n      dup3\n        /* \"#utility.yul\":15422:15502   */\n      tag_148\n      jump\t// in\n    tag_305:\n        /* \"#utility.yul\":15081:15512   */\n      pop\n      pop\n        /* \"#utility.yul\":15066:15512   */\n    tag_301:\n        /* \"#utility.yul\":14976:15519   */\n      pop\n      pop\n      pop\n      jump\t// out\n        /* \"#utility.yul\":15525:15642   */\n    tag_150:\n        /* \"#utility.yul\":15579:15587   */\n      0x00\n        /* \"#utility.yul\":15629:15634   */\n      dup3\n        /* \"#utility.yul\":15623:15627   */\n      dup3\n        /* \"#utility.yul\":15619:15635   */\n      shr\n        /* \"#utility.yul\":15598:15635   */\n      swap1\n      pop\n        /* \"#utility.yul\":15525:15642   */\n      swap3\n      swap2\n      pop\n      pop\n      jump\t// out\n        /* \"#utility.yul\":15648:15817   */\n    tag_151:\n        /* \"#utility.yul\":15692:15698   */\n      0x00\n        /* \"#utility.yul\":15725:15776   */\n      tag_309\n        /* \"#utility.yul\":15773:15774   */\n      0x00\n        /* \"#utility.yul\":15769:15775   */\n      not\n        /* \"#utility.yul\":15761:15766   */\n      dup5\n        /* \"#utility.yul\":15758:15759   */\n      0x08\n        /* \"#utility.yul\":15754:15767   */\n      mul\n        /* \"#utility.yul\":15725:15776   */\n      tag_150\n      jump\t// in\n    tag_309:\n        /* \"#utility.yul\":15721:15777   */\n      not\n        /* \"#utility.yul\":15806:15810   */\n      dup1\n        /* \"#utility.yul\":15800:15804   */\n      dup4\n        /* \"#utility.yul\":15796:15811   */\n      and\n        /* \"#utility.yul\":15786:15811   */\n      swap2\n      pop\n        /* \"#utility.yul\":15699:15817   */\n      pop\n        /* \"#utility.yul\":15648:15817   */\n      swap3\n      swap2\n      pop\n      pop\n      jump\t// out\n        /* \"#utility.yul\":15822:16117   */\n    tag_152:\n        /* \"#utility.yul\":15898:15902   */\n      0x00\n        /* \"#utility.yul\":16044:16073   */\n      tag_311\n        /* \"#utility.yul\":16069:16072   */\n      dup4\n        /* \"#utility.yul\":16063:16067   */\n      dup4\n        /* \"#utility.yul\":16044:16073   */\n      tag_151\n      jump\t// in\n    tag_311:\n        /* \"#utility.yul\":16036:16073   */\n      swap2\n      pop\n        /* \"#utility.yul\":16106:16109   */\n      dup3\n        /* \"#utility.yul\":16103:16104   */\n      0x02\n        /* \"#utility.yul\":16099:16110   */\n      mul\n        /* \"#utility.yul\":16093:16097   */\n      dup3\n        /* \"#utility.yul\":16090:16111   */\n      or\n        /* \"#utility.yul\":16082:16111   */\n      swap1\n      pop\n        /* \"#utility.yul\":15822:16117   */\n      swap3\n      swap2\n      pop\n      pop\n      jump\t// out\n        /* \"#utility.yul\":16122:17517   */\n    tag_80:\n        /* \"#utility.yul\":16239:16276   */\n      tag_313\n        /* \"#utility.yul\":16272:16275   */\n      dup3\n        /* \"#utility.yul\":16239:16276   */\n      tag_111\n      jump\t// in\n    tag_313:\n        /* \"#utility.yul\":16341:16359   */\n      0xffffffffffffffff\n        /* \"#utility.yul\":16333:16339   */\n      dup2\n        /* \"#utility.yul\":16330:16360   */\n      gt\n        /* \"#utility.yul\":16327:16383   */\n      iszero\n      tag_314\n      jumpi\n        /* \"#utility.yul\":16363:16381   */\n      tag_315\n      tag_121\n      jump\t// in\n    tag_315:\n        /* \"#utility.yul\":16327:16383   */\n    tag_314:\n        /* \"#utility.yul\":16407:16445   */\n      tag_316\n        /* \"#utility.yul\":16439:16443   */\n      dup3\n        /* \"#utility.yul\":16433:16444   */\n      sload\n        /* \"#utility.yul\":16407:16445   */\n      tag_28\n      jump\t// in\n    tag_316:\n        /* \"#utility.yul\":16492:16559   */\n      tag_317\n        /* \"#utility.yul\":16552:16558   */\n      dup3\n        /* \"#utility.yul\":16544:16550   */\n      dup3\n        /* \"#utility.yul\":16538:16542   */\n      dup6\n        /* \"#utility.yul\":16492:16559   */\n      tag_149\n      jump\t// in\n    tag_317:\n        /* \"#utility.yul\":16586:16587   */\n      0x00\n        /* \"#utility.yul\":16610:16614   */\n      0x20\n        /* \"#utility.yul\":16597:16614   */\n      swap1\n      pop\n        /* \"#utility.yul\":16642:16644   */\n      0x1f\n        /* \"#utility.yul\":16634:16640   */\n      dup4\n        /* \"#utility.yul\":16631:16645   */\n      gt\n        /* \"#utility.yul\":16659:16660   */\n      0x01\n        /* \"#utility.yul\":16654:17272   */\n      dup2\n      eq\n      tag_319\n      jumpi\n        /* \"#utility.yul\":17316:17317   */\n      0x00\n        /* \"#utility.yul\":17333:17339   */\n      dup5\n        /* \"#utility.yul\":17330:17407   */\n      iszero\n      tag_320\n      jumpi\n        /* \"#utility.yul\":17382:17391   */\n      dup3\n        /* \"#utility.yul\":17377:17380   */\n      dup8\n        /* \"#utility.yul\":17373:17392   */\n      add\n        /* \"#utility.yul\":17367:17393   */\n      mload\n        /* \"#utility.yul\":17358:17393   */\n      swap1\n      pop\n        /* \"#utility.yul\":17330:17407   */\n    tag_320:\n        /* \"#utility.yul\":17433:17500   */\n      tag_321\n        /* \"#utility.yul\":17493:17499   */\n      dup6\n        /* \"#utility.yul\":17486:17491   */\n      dup3\n        /* \"#utility.yul\":17433:17500   */\n      tag_152\n      jump\t// in\n    tag_321:\n        /* \"#utility.yul\":17427:17431   */\n      dup7\n        /* \"#utility.yul\":17420:17501   */\n      sstore\n        /* \"#utility.yul\":17289:17511   */\n      pop\n        /* \"#utility.yul\":16624:17511   */\n      jump(tag_318)\n        /* \"#utility.yul\":16654:17272   */\n    tag_319:\n        /* \"#utility.yul\":16706:16710   */\n      0x1f\n        /* \"#utility.yul\":16702:16711   */\n      not\n        /* \"#utility.yul\":16694:16700   */\n      dup5\n        /* \"#utility.yul\":16690:16712   */\n      and\n        /* \"#utility.yul\":16740:16777   */\n      tag_322\n        /* \"#utility.yul\":16772:16776   */\n      dup7\n        /* \"#utility.yul\":16740:16777   */\n      tag_137\n      jump\t// in\n    tag_322:\n        /* \"#utility.yul\":16799:16800   */\n      0x00\n        /* \"#utility.yul\":16813:17021   */\n    tag_323:\n        /* \"#utility.yul\":16827:16834   */\n      dup3\n        /* \"#utility.yul\":16824:16825   */\n      dup2\n        /* \"#utility.yul\":16821:16835   */\n      lt\n        /* \"#utility.yul\":16813:17021   */\n      iszero\n      tag_325\n      jumpi\n        /* \"#utility.yul\":16906:16915   */\n      dup5\n        /* \"#utility.yul\":16901:16904   */\n      dup10\n        /* \"#utility.yul\":16897:16916   */\n      add\n        /* \"#utility.yul\":16891:16917   */\n      mload\n        /* \"#utility.yul\":16883:16889   */\n      dup3\n        /* \"#utility.yul\":16876:16918   */\n      sstore\n        /* \"#utility.yul\":16957:16958   */\n      0x01\n        /* \"#utility.yul\":16949:16955   */\n      dup3\n        /* \"#utility.yul\":16945:16959   */\n      add\n        /* \"#utility.yul\":16935:16959   */\n      swap2\n      pop\n        /* \"#utility.yul\":17004:17006   */\n      0x20\n        /* \"#utility.yul\":16993:17002   */\n      dup6\n        /* \"#utility.yul\":16989:17007   */\n      add\n        /* \"#utility.yul\":16976:17007   */\n      swap5\n      pop\n        /* \"#utility.yul\":16850:16854   */\n      0x20\n        /* \"#utility.yul\":16847:16848   */\n      dup2\n        /* \"#utility.yul\":16843:16855   */\n      add\n        /* \"#utility.yul\":16838:16855   */\n      swap1\n      pop\n        /* \"#utility.yul\":16813:17021   */\n      jump(tag_323)\n    tag_325:\n        /* \"#utility.yul\":17049:17055   */\n      dup7\n        /* \"#utility.yul\":17040:17047   */\n      dup4\n        /* \"#utility.yul\":17037:17056   */\n      lt\n        /* \"#utility.yul\":17034:17213   */\n      iszero\n      tag_326\n      jumpi\n        /* \"#utility.yul\":17107:17116   */\n      dup5\n        /* \"#utility.yul\":17102:17105   */\n      dup10\n        /* \"#utility.yul\":17098:17117   */\n      add\n        /* \"#utility.yul\":17092:17118   */\n      mload\n        /* \"#utility.yul\":17150:17198   */\n      tag_327\n        /* \"#utility.yul\":17192:17196   */\n      0x1f\n        /* \"#utility.yul\":17184:17190   */\n      dup10\n        /* \"#utility.yul\":17180:17197   */\n      and\n        /* \"#utility.yul\":17169:17178   */\n      dup3\n        /* \"#utility.yul\":17150:17198   */\n      tag_151\n      jump\t// in\n    tag_327:\n        /* \"#utility.yul\":17142:17148   */\n      dup4\n        /* \"#utility.yul\":17135:17199   */\n      sstore\n        /* \"#utility.yul\":17057:17213   */\n      pop\n        /* \"#utility.yul\":17034:17213   */\n    tag_326:\n        /* \"#utility.yul\":17259:17260   */\n      0x01\n        /* \"#utility.yul\":17255:17256   */\n      0x02\n        /* \"#utility.yul\":17247:17253   */\n      dup9\n        /* \"#utility.yul\":17243:17257   */\n      mul\n        /* \"#utility.yul\":17239:17261   */\n      add\n        /* \"#utility.yul\":17233:17237   */\n      dup9\n        /* \"#utility.yul\":17226:17262   */\n      sstore\n        /* \"#utility.yul\":16661:17272   */\n      pop\n      pop\n      pop\n        /* \"#utility.yul\":16624:17511   */\n    tag_318:\n      pop\n        /* \"#utility.yul\":16214:17517   */\n      pop\n      pop\n      pop\n        /* \"#utility.yul\":16122:17517   */\n      pop\n      pop\n      jump\t// out\n\n    auxdata: 0xa26469706673582212208ce6d04e7fa9fcb5cf59c0b0c96e4af5b51ed0fa89770c995cb5b9eeddb9c06a64736f6c634300081a0033\n}\n",
				"bytecode": {
					"linkReferences": {},
					"object": "6080604052348015600e575f80fd5b506111708061001c5f395ff3fe608060405234801561000f575f80fd5b506004361061003e575f3560e01c80629b41a0146100425780631e9d48cf1461005e578063d177b0831461008e575b5f80fd5b61005c6004803603810190610057919061090e565b6100aa565b005b6100786004803603810190610073919061090e565b6100f4565b6040516100859190610ad9565b60405180910390f35b6100a860048036038101906100a39190610df4565b6106e7565b005b5f808273ffffffffffffffffffffffffffffffffffffffff1673ffffffffffffffffffffffffffffffffffffffff1681526020019081526020015f205f6100f191906107d8565b50565b60605f805f8473ffffffffffffffffffffffffffffffffffffffff1673ffffffffffffffffffffffffffffffffffffffff1681526020019081526020015f208054905014610411575f808373ffffffffffffffffffffffffffffffffffffffff1673ffffffffffffffffffffffffffffffffffffffff1681526020019081526020015f20805480602002602001604051908101604052809291908181526020015f905b82821015610406578382905f5260205f2090600402016040518060800160405290815f820180546101c790610e68565b80601f01602080910402602001604051908101604052809291908181526020018280546101f390610e68565b801561023e5780601f106102155761010080835404028352916020019161023e565b820191905f5260205f20905b81548152906001019060200180831161022157829003601f168201915b5050505050815260200160018201805461025790610e68565b80601f016020809104026020016040519081016040528092919081815260200182805461028390610e68565b80156102ce5780601f106102a5576101008083540402835291602001916102ce565b820191905f5260205f20905b8154815290600101906020018083116102b157829003601f168201915b505050505081526020016002820180546102e790610e68565b80601f016020809104026020016040519081016040528092919081815260200182805461031390610e68565b801561035e5780601f106103355761010080835404028352916020019161035e565b820191905f5260205f20905b81548152906001019060200180831161034157829003601f168201915b5050505050815260200160038201805461037790610e68565b80601f01602080910402602001604051908101604052809291908181526020018280546103a390610e68565b80156103ee5780601f106103c5576101008083540402835291602001916103ee565b820191905f5260205f20905b8154815290600101906020018083116103d157829003601f168201915b50505050508152505081526020019060010190610197565b5050505090506106e2565b5f808373ffffffffffffffffffffffffffffffffffffffff1673ffffffffffffffffffffffffffffffffffffffff1681526020019081526020015f20805480602002602001604051908101604052809291908181526020015f905b828210156106db578382905f5260205f2090600402016040518060800160405290815f8201805461049c90610e68565b80601f01602080910402602001604051908101604052809291908181526020018280546104c890610e68565b80156105135780601f106104ea57610100808354040283529160200191610513565b820191905f5260205f20905b8154815290600101906020018083116104f657829003601f168201915b5050505050815260200160018201805461052c90610e68565b80601f016020809104026020016040519081016040528092919081815260200182805461055890610e68565b80156105a35780601f1061057a576101008083540402835291602001916105a3565b820191905f5260205f20905b81548152906001019060200180831161058657829003601f168201915b505050505081526020016002820180546105bc90610e68565b80601f01602080910402602001604051908101604052809291908181526020018280546105e890610e68565b80156106335780601f1061060a57610100808354040283529160200191610633565b820191905f5260205f20905b81548152906001019060200180831161061657829003601f168201915b5050505050815260200160038201805461064c90610e68565b80601f016020809104026020016040519081016040528092919081815260200182805461067890610e68565b80156106c35780601f1061069a576101008083540402835291602001916106c3565b820191905f5260205f20905b8154815290600101906020018083116106a657829003601f168201915b5050505050815250508152602001906001019061046c565b5050505090505b919050565b5f5b81518110156107d4575f803373ffffffffffffffffffffffffffffffffffffffff1673ffffffffffffffffffffffffffffffffffffffff1681526020019081526020015f2082828151811061074157610740610e98565b5b6020026020010151908060018154018082558091505060019003905f5260205f2090600402015f909190919091505f820151815f019081610782919061106b565b506020820151816001019081610798919061106b565b5060408201518160020190816107ae919061106b565b5060608201518160030190816107c4919061106b565b50505080806001019150506106e9565b5050565b5080545f8255600402905f5260205f20908101906107f691906107f9565b50565b5b80821115610847575f8082015f610811919061084b565b600182015f610820919061084b565b600282015f61082f919061084b565b600382015f61083e919061084b565b506004016107fa565b5090565b50805461085790610e68565b5f825580601f106108685750610885565b601f0160209004905f5260205f20908101906108849190610888565b5b50565b5b8082111561089f575f815f905550600101610889565b5090565b5f604051905090565b5f80fd5b5f80fd5b5f73ffffffffffffffffffffffffffffffffffffffff82169050919050565b5f6108dd826108b4565b9050919050565b6108ed816108d3565b81146108f7575f80fd5b50565b5f81359050610908816108e4565b92915050565b5f60208284031215610923576109226108ac565b5b5f610930848285016108fa565b91505092915050565b5f81519050919050565b5f82825260208201905092915050565b5f819050602082019050919050565b5f81519050919050565b5f82825260208201905092915050565b8281835e5f83830152505050565b5f601f19601f8301169050919050565b5f6109a482610962565b6109ae818561096c565b93506109be81856020860161097c565b6109c78161098a565b840191505092915050565b5f608083015f8301518482035f8601526109ec828261099a565b91505060208301518482036020860152610a06828261099a565b91505060408301518482036040860152610a20828261099a565b91505060608301518482036060860152610a3a828261099a565b9150508091505092915050565b5f610a5283836109d2565b905092915050565b5f602082019050919050565b5f610a7082610939565b610a7a8185610943565b935083602082028501610a8c85610953565b805f5b85811015610ac75784840389528151610aa88582610a47565b9450610ab383610a5a565b925060208a01995050600181019050610a8f565b50829750879550505050505092915050565b5f6020820190508181035f830152610af18184610a66565b905092915050565b5f80fd5b7f4e487b71000000000000000000000000000000000000000000000000000000005f52604160045260245ffd5b610b338261098a565b810181811067ffffffffffffffff82111715610b5257610b51610afd565b5b80604052505050565b5f610b646108a3565b9050610b708282610b2a565b919050565b5f67ffffffffffffffff821115610b8f57610b8e610afd565b5b602082029050602081019050919050565b5f80fd5b5f80fd5b5f80fd5b5f80fd5b5f67ffffffffffffffff821115610bca57610bc9610afd565b5b610bd38261098a565b9050602081019050919050565b828183375f83830152505050565b5f610c00610bfb84610bb0565b610b5b565b905082815260208101848484011115610c1c57610c1b610bac565b5b610c27848285610be0565b509392505050565b5f82601f830112610c4357610c42610af9565b5b8135610c53848260208601610bee565b91505092915050565b5f60808284031215610c7157610c70610ba4565b5b610c7b6080610b5b565b90505f82013567ffffffffffffffff811115610c9a57610c99610ba8565b5b610ca684828501610c2f565b5f83015250602082013567ffffffffffffffff811115610cc957610cc8610ba8565b5b610cd584828501610c2f565b602083015250604082013567ffffffffffffffff811115610cf957610cf8610ba8565b5b610d0584828501610c2f565b604083015250606082013567ffffffffffffffff811115610d2957610d28610ba8565b5b610d3584828501610c2f565b60608301525092915050565b5f610d53610d4e84610b75565b610b5b565b90508083825260208201905060208402830185811115610d7657610d75610ba0565b5b835b81811015610dbd57803567ffffffffffffffff811115610d9b57610d9a610af9565b5b808601610da88982610c5c565b85526020850194505050602081019050610d78565b5050509392505050565b5f82601f830112610ddb57610dda610af9565b5b8135610deb848260208601610d41565b91505092915050565b5f60208284031215610e0957610e086108ac565b5b5f82013567ffffffffffffffff811115610e2657610e256108b0565b5b610e3284828501610dc7565b91505092915050565b7f4e487b71000000000000000000000000000000000000000000000000000000005f52602260045260245ffd5b5f6002820490506001821680610e7f57607f821691505b602082108103610e9257610e91610e3b565b5b50919050565b7f4e487b71000000000000000000000000000000000000000000000000000000005f52603260045260245ffd5b5f819050815f5260205f209050919050565b5f6020601f8301049050919050565b5f82821b905092915050565b5f60088302610f217fffffffffffffffffffffffffffffffffffffffffffffffffffffffffffffffff82610ee6565b610f2b8683610ee6565b95508019841693508086168417925050509392505050565b5f819050919050565b5f819050919050565b5f610f6f610f6a610f6584610f43565b610f4c565b610f43565b9050919050565b5f819050919050565b610f8883610f55565b610f9c610f9482610f76565b848454610ef2565b825550505050565b5f90565b610fb0610fa4565b610fbb818484610f7f565b505050565b5b81811015610fde57610fd35f82610fa8565b600181019050610fc1565b5050565b601f82111561102357610ff481610ec5565b610ffd84610ed7565b8101602085101561100c578190505b61102061101885610ed7565b830182610fc0565b50505b505050565b5f82821c905092915050565b5f6110435f1984600802611028565b1980831691505092915050565b5f61105b8383611034565b9150826002028217905092915050565b61107482610962565b67ffffffffffffffff81111561108d5761108c610afd565b5b6110978254610e68565b6110a2828285610fe2565b5f60209050601f8311600181146110d3575f84156110c1578287015190505b6110cb8582611050565b865550611132565b601f1984166110e186610ec5565b5f5b82811015611108578489015182556001820191506020850194506020810190506110e3565b868310156111255784890151611121601f891682611034565b8355505b6001600288020188555050505b50505050505056fea26469706673582212208ce6d04e7fa9fcb5cf59c0b0c96e4af5b51ed0fa89770c995cb5b9eeddb9c06a64736f6c634300081a0033",
					"opcodes": "PUSH1 0x80 PUSH1 0x40 MSTORE CALLVALUE DUP1 ISZERO PUSH1 0xE JUMPI PUSH0 DUP1 REVERT JUMPDEST POP PUSH2 0x1170 DUP1 PUSH2 0x1C PUSH0 CODECOPY PUSH0 RETURN INVALID PUSH1 0x80 PUSH1 0x40 MSTORE CALLVALUE DUP1 ISZERO PUSH2 0xF JUMPI PUSH0 DUP1 REVERT JUMPDEST POP PUSH1 0x4 CALLDATASIZE LT PUSH2 0x3E JUMPI PUSH0 CALLDATALOAD PUSH1 0xE0 SHR DUP1 PUSH3 0x9B41A0 EQ PUSH2 0x42 JUMPI DUP1 PUSH4 0x1E9D48CF EQ PUSH2 0x5E JUMPI DUP1 PUSH4 0xD177B083 EQ PUSH2 0x8E JUMPI JUMPDEST PUSH0 DUP1 REVERT JUMPDEST PUSH2 0x5C PUSH1 0x4 DUP1 CALLDATASIZE SUB DUP2 ADD SWAP1 PUSH2 0x57 SWAP2 SWAP1 PUSH2 0x90E JUMP JUMPDEST PUSH2 0xAA JUMP JUMPDEST STOP JUMPDEST PUSH2 0x78 PUSH1 0x4 DUP1 CALLDATASIZE SUB DUP2 ADD SWAP1 PUSH2 0x73 SWAP2 SWAP1 PUSH2 0x90E JUMP JUMPDEST PUSH2 0xF4 JUMP JUMPDEST PUSH1 0x40 MLOAD PUSH2 0x85 SWAP2 SWAP1 PUSH2 0xAD9 JUMP JUMPDEST PUSH1 0x40 MLOAD DUP1 SWAP2 SUB SWAP1 RETURN JUMPDEST PUSH2 0xA8 PUSH1 0x4 DUP1 CALLDATASIZE SUB DUP2 ADD SWAP1 PUSH2 0xA3 SWAP2 SWAP1 PUSH2 0xDF4 JUMP JUMPDEST PUSH2 0x6E7 JUMP JUMPDEST STOP JUMPDEST PUSH0 DUP1 DUP3 PUSH20 0xFFFFFFFFFFFFFFFFFFFFFFFFFFFFFFFFFFFFFFFF AND PUSH20 0xFFFFFFFFFFFFFFFFFFFFFFFFFFFFFFFFFFFFFFFF AND DUP2 MSTORE PUSH1 0x20 ADD SWAP1 DUP2 MSTORE PUSH1 0x20 ADD PUSH0 KECCAK256 PUSH0 PUSH2 0xF1 SWAP2 SWAP1 PUSH2 0x7D8 JUMP JUMPDEST POP JUMP JUMPDEST PUSH1 0x60 PUSH0 DUP1 PUSH0 DUP5 PUSH20 0xFFFFFFFFFFFFFFFFFFFFFFFFFFFFFFFFFFFFFFFF AND PUSH20 0xFFFFFFFFFFFFFFFFFFFFFFFFFFFFFFFFFFFFFFFF AND DUP2 MSTORE PUSH1 0x20 ADD SWAP1 DUP2 MSTORE PUSH1 0x20 ADD PUSH0 KECCAK256 DUP1 SLOAD SWAP1 POP EQ PUSH2 0x411 JUMPI PUSH0 DUP1 DUP4 PUSH20 0xFFFFFFFFFFFFFFFFFFFFFFFFFFFFFFFFFFFFFFFF AND PUSH20 0xFFFFFFFFFFFFFFFFFFFFFFFFFFFFFFFFFFFFFFFF AND DUP2 MSTORE PUSH1 0x20 ADD SWAP1 DUP2 MSTORE PUSH1 0x20 ADD PUSH0 KECCAK256 DUP1 SLOAD DUP1 PUSH1 0x20 MUL PUSH1 0x20 ADD PUSH1 0x40 MLOAD SWAP1 DUP2 ADD PUSH1 0x40 MSTORE DUP1 SWAP3 SWAP2 SWAP1 DUP2 DUP2 MSTORE PUSH1 0x20 ADD PUSH0 SWAP1 JUMPDEST DUP3 DUP3 LT ISZERO PUSH2 0x406 JUMPI DUP4 DUP3 SWAP1 PUSH0 MSTORE PUSH1 0x20 PUSH0 KECCAK256 SWAP1 PUSH1 0x4 MUL ADD PUSH1 0x40 MLOAD DUP1 PUSH1 0x80 ADD PUSH1 0x40 MSTORE SWAP1 DUP2 PUSH0 DUP3 ADD DUP1 SLOAD PUSH2 0x1C7 SWAP1 PUSH2 0xE68 JUMP JUMPDEST DUP1 PUSH1 0x1F ADD PUSH1 0x20 DUP1 SWAP2 DIV MUL PUSH1 0x20 ADD PUSH1 0x40 MLOAD SWAP1 DUP2 ADD PUSH1 0x40 MSTORE DUP1 SWAP3 SWAP2 SWAP1 DUP2 DUP2 MSTORE PUSH1 0x20 ADD DUP3 DUP1 SLOAD PUSH2 0x1F3 SWAP1 PUSH2 0xE68 JUMP JUMPDEST DUP1 ISZERO PUSH2 0x23E JUMPI DUP1 PUSH1 0x1F LT PUSH2 0x215 JUMPI PUSH2 0x100 DUP1 DUP4 SLOAD DIV MUL DUP4 MSTORE SWAP2 PUSH1 0x20 ADD SWAP2 PUSH2 0x23E JUMP JUMPDEST DUP3 ADD SWAP2 SWAP1 PUSH0 MSTORE PUSH1 0x20 PUSH0 KECCAK256 SWAP1 JUMPDEST DUP2 SLOAD DUP2 MSTORE SWAP1 PUSH1 0x1 ADD SWAP1 PUSH1 0x20 ADD DUP1 DUP4 GT PUSH2 0x221 JUMPI DUP3 SWAP1 SUB PUSH1 0x1F AND DUP3 ADD SWAP2 JUMPDEST POP POP POP POP POP DUP2 MSTORE PUSH1 0x20 ADD PUSH1 0x1 DUP3 ADD DUP1 SLOAD PUSH2 0x257 SWAP1 PUSH2 0xE68 JUMP JUMPDEST DUP1 PUSH1 0x1F ADD PUSH1 0x20 DUP1 SWAP2 DIV MUL PUSH1 0x20 ADD PUSH1 0x40 MLOAD SWAP1 DUP2 ADD PUSH1 0x40 MSTORE DUP1 SWAP3 SWAP2 SWAP1 DUP2 DUP2 MSTORE PUSH1 0x20 ADD DUP3 DUP1 SLOAD PUSH2 0x283 SWAP1 PUSH2 0xE68 JUMP JUMPDEST DUP1 ISZERO PUSH2 0x2CE JUMPI DUP1 PUSH1 0x1F LT PUSH2 0x2A5 JUMPI PUSH2 0x100 DUP1 DUP4 SLOAD DIV MUL DUP4 MSTORE SWAP2 PUSH1 0x20 ADD SWAP2 PUSH2 0x2CE JUMP JUMPDEST DUP3 ADD SWAP2 SWAP1 PUSH0 MSTORE PUSH1 0x20 PUSH0 KECCAK256 SWAP1 JUMPDEST DUP2 SLOAD DUP2 MSTORE SWAP1 PUSH1 0x1 ADD SWAP1 PUSH1 0x20 ADD DUP1 DUP4 GT PUSH2 0x2B1 JUMPI DUP3 SWAP1 SUB PUSH1 0x1F AND DUP3 ADD SWAP2 JUMPDEST POP POP POP POP POP DUP2 MSTORE PUSH1 0x20 ADD PUSH1 0x2 DUP3 ADD DUP1 SLOAD PUSH2 0x2E7 SWAP1 PUSH2 0xE68 JUMP JUMPDEST DUP1 PUSH1 0x1F ADD PUSH1 0x20 DUP1 SWAP2 DIV MUL PUSH1 0x20 ADD PUSH1 0x40 MLOAD SWAP1 DUP2 ADD PUSH1 0x40 MSTORE DUP1 SWAP3 SWAP2 SWAP1 DUP2 DUP2 MSTORE PUSH1 0x20 ADD DUP3 DUP1 SLOAD PUSH2 0x313 SWAP1 PUSH2 0xE68 JUMP JUMPDEST DUP1 ISZERO PUSH2 0x35E JUMPI DUP1 PUSH1 0x1F LT PUSH2 0x335 JUMPI PUSH2 0x100 DUP1 DUP4 SLOAD DIV MUL DUP4 MSTORE SWAP2 PUSH1 0x20 ADD SWAP2 PUSH2 0x35E JUMP JUMPDEST DUP3 ADD SWAP2 SWAP1 PUSH0 MSTORE PUSH1 0x20 PUSH0 KECCAK256 SWAP1 JUMPDEST DUP2 SLOAD DUP2 MSTORE SWAP1 PUSH1 0x1 ADD SWAP1 PUSH1 0x20 ADD DUP1 DUP4 GT PUSH2 0x341 JUMPI DUP3 SWAP1 SUB PUSH1 0x1F AND DUP3 ADD SWAP2 JUMPDEST POP POP POP POP POP DUP2 MSTORE PUSH1 0x20 ADD PUSH1 0x3 DUP3 ADD DUP1 SLOAD PUSH2 0x377 SWAP1 PUSH2 0xE68 JUMP JUMPDEST DUP1 PUSH1 0x1F ADD PUSH1 0x20 DUP1 SWAP2 DIV MUL PUSH1 0x20 ADD PUSH1 0x40 MLOAD SWAP1 DUP2 ADD PUSH1 0x40 MSTORE DUP1 SWAP3 SWAP2 SWAP1 DUP2 DUP2 MSTORE PUSH1 0x20 ADD DUP3 DUP1 SLOAD PUSH2 0x3A3 SWAP1 PUSH2 0xE68 JUMP JUMPDEST DUP1 ISZERO PUSH2 0x3EE JUMPI DUP1 PUSH1 0x1F LT PUSH2 0x3C5 JUMPI PUSH2 0x100 DUP1 DUP4 SLOAD DIV MUL DUP4 MSTORE SWAP2 PUSH1 0x20 ADD SWAP2 PUSH2 0x3EE JUMP JUMPDEST DUP3 ADD SWAP2 SWAP1 PUSH0 MSTORE PUSH1 0x20 PUSH0 KECCAK256 SWAP1 JUMPDEST DUP2 SLOAD DUP2 MSTORE SWAP1 PUSH1 0x1 ADD SWAP1 PUSH1 0x20 ADD DUP1 DUP4 GT PUSH2 0x3D1 JUMPI DUP3 SWAP1 SUB PUSH1 0x1F AND DUP3 ADD SWAP2 JUMPDEST POP POP POP POP POP DUP2 MSTORE POP POP DUP2 MSTORE PUSH1 0x20 ADD SWAP1 PUSH1 0x1 ADD SWAP1 PUSH2 0x197 JUMP JUMPDEST POP POP POP POP SWAP1 POP PUSH2 0x6E2 JUMP JUMPDEST PUSH0 DUP1 DUP4 PUSH20 0xFFFFFFFFFFFFFFFFFFFFFFFFFFFFFFFFFFFFFFFF AND PUSH20 0xFFFFFFFFFFFFFFFFFFFFFFFFFFFFFFFFFFFFFFFF AND DUP2 MSTORE PUSH1 0x20 ADD SWAP1 DUP2 MSTORE PUSH1 0x20 ADD PUSH0 KECCAK256 DUP1 SLOAD DUP1 PUSH1 0x20 MUL PUSH1 0x20 ADD PUSH1 0x40 MLOAD SWAP1 DUP2 ADD PUSH1 0x40 MSTORE DUP1 SWAP3 SWAP2 SWAP1 DUP2 DUP2 MSTORE PUSH1 0x20 ADD PUSH0 SWAP1 JUMPDEST DUP3 DUP3 LT ISZERO PUSH2 0x6DB JUMPI DUP4 DUP3 SWAP1 PUSH0 MSTORE PUSH1 0x20 PUSH0 KECCAK256 SWAP1 PUSH1 0x4 MUL ADD PUSH1 0x40 MLOAD DUP1 PUSH1 0x80 ADD PUSH1 0x40 MSTORE SWAP1 DUP2 PUSH0 DUP3 ADD DUP1 SLOAD PUSH2 0x49C SWAP1 PUSH2 0xE68 JUMP JUMPDEST DUP1 PUSH1 0x1F ADD PUSH1 0x20 DUP1 SWAP2 DIV MUL PUSH1 0x20 ADD PUSH1 0x40 MLOAD SWAP1 DUP2 ADD PUSH1 0x40 MSTORE DUP1 SWAP3 SWAP2 SWAP1 DUP2 DUP2 MSTORE PUSH1 0x20 ADD DUP3 DUP1 SLOAD PUSH2 0x4C8 SWAP1 PUSH2 0xE68 JUMP JUMPDEST DUP1 ISZERO PUSH2 0x513 JUMPI DUP1 PUSH1 0x1F LT PUSH2 0x4EA JUMPI PUSH2 0x100 DUP1 DUP4 SLOAD DIV MUL DUP4 MSTORE SWAP2 PUSH1 0x20 ADD SWAP2 PUSH2 0x513 JUMP JUMPDEST DUP3 ADD SWAP2 SWAP1 PUSH0 MSTORE PUSH1 0x20 PUSH0 KECCAK256 SWAP1 JUMPDEST DUP2 SLOAD DUP2 MSTORE SWAP1 PUSH1 0x1 ADD SWAP1 PUSH1 0x20 ADD DUP1 DUP4 GT PUSH2 0x4F6 JUMPI DUP3 SWAP1 SUB PUSH1 0x1F AND DUP3 ADD SWAP2 JUMPDEST POP POP POP POP POP DUP2 MSTORE PUSH1 0x20 ADD PUSH1 0x1 DUP3 ADD DUP1 SLOAD PUSH2 0x52C SWAP1 PUSH2 0xE68 JUMP JUMPDEST DUP1 PUSH1 0x1F ADD PUSH1 0x20 DUP1 SWAP2 DIV MUL PUSH1 0x20 ADD PUSH1 0x40 MLOAD SWAP1 DUP2 ADD PUSH1 0x40 MSTORE DUP1 SWAP3 SWAP2 SWAP1 DUP2 DUP2 MSTORE PUSH1 0x20 ADD DUP3 DUP1 SLOAD PUSH2 0x558 SWAP1 PUSH2 0xE68 JUMP JUMPDEST DUP1 ISZERO PUSH2 0x5A3 JUMPI DUP1 PUSH1 0x1F LT PUSH2 0x57A JUMPI PUSH2 0x100 DUP1 DUP4 SLOAD DIV MUL DUP4 MSTORE SWAP2 PUSH1 0x20 ADD SWAP2 PUSH2 0x5A3 JUMP JUMPDEST DUP3 ADD SWAP2 SWAP1 PUSH0 MSTORE PUSH1 0x20 PUSH0 KECCAK256 SWAP1 JUMPDEST DUP2 SLOAD DUP2 MSTORE SWAP1 PUSH1 0x1 ADD SWAP1 PUSH1 0x20 ADD DUP1 DUP4 GT PUSH2 0x586 JUMPI DUP3 SWAP1 SUB PUSH1 0x1F AND DUP3 ADD SWAP2 JUMPDEST POP POP POP POP POP DUP2 MSTORE PUSH1 0x20 ADD PUSH1 0x2 DUP3 ADD DUP1 SLOAD PUSH2 0x5BC SWAP1 PUSH2 0xE68 JUMP JUMPDEST DUP1 PUSH1 0x1F ADD PUSH1 0x20 DUP1 SWAP2 DIV MUL PUSH1 0x20 ADD PUSH1 0x40 MLOAD SWAP1 DUP2 ADD PUSH1 0x40 MSTORE DUP1 SWAP3 SWAP2 SWAP1 DUP2 DUP2 MSTORE PUSH1 0x20 ADD DUP3 DUP1 SLOAD PUSH2 0x5E8 SWAP1 PUSH2 0xE68 JUMP JUMPDEST DUP1 ISZERO PUSH2 0x633 JUMPI DUP1 PUSH1 0x1F LT PUSH2 0x60A JUMPI PUSH2 0x100 DUP1 DUP4 SLOAD DIV MUL DUP4 MSTORE SWAP2 PUSH1 0x20 ADD SWAP2 PUSH2 0x633 JUMP JUMPDEST DUP3 ADD SWAP2 SWAP1 PUSH0 MSTORE PUSH1 0x20 PUSH0 KECCAK256 SWAP1 JUMPDEST DUP2 SLOAD DUP2 MSTORE SWAP1 PUSH1 0x1 ADD SWAP1 PUSH1 0x20 ADD DUP1 DUP4 GT PUSH2 0x616 JUMPI DUP3 SWAP1 SUB PUSH1 0x1F AND DUP3 ADD SWAP2 JUMPDEST POP POP POP POP POP DUP2 MSTORE PUSH1 0x20 ADD PUSH1 0x3 DUP3 ADD DUP1 SLOAD PUSH2 0x64C SWAP1 PUSH2 0xE68 JUMP JUMPDEST DUP1 PUSH1 0x1F ADD PUSH1 0x20 DUP1 SWAP2 DIV MUL PUSH1 0x20 ADD PUSH1 0x40 MLOAD SWAP1 DUP2 ADD PUSH1 0x40 MSTORE DUP1 SWAP3 SWAP2 SWAP1 DUP2 DUP2 MSTORE PUSH1 0x20 ADD DUP3 DUP1 SLOAD PUSH2 0x678 SWAP1 PUSH2 0xE68 JUMP JUMPDEST DUP1 ISZERO PUSH2 0x6C3 JUMPI DUP1 PUSH1 0x1F LT PUSH2 0x69A JUMPI PUSH2 0x100 DUP1 DUP4 SLOAD DIV MUL DUP4 MSTORE SWAP2 PUSH1 0x20 ADD SWAP2 PUSH2 0x6C3 JUMP JUMPDEST DUP3 ADD SWAP2 SWAP1 PUSH0 MSTORE PUSH1 0x20 PUSH0 KECCAK256 SWAP1 JUMPDEST DUP2 SLOAD DUP2 MSTORE SWAP1 PUSH1 0x1 ADD SWAP1 PUSH1 0x20 ADD DUP1 DUP4 GT PUSH2 0x6A6 JUMPI DUP3 SWAP1 SUB PUSH1 0x1F AND DUP3 ADD SWAP2 JUMPDEST POP POP POP POP POP DUP2 MSTORE POP POP DUP2 MSTORE PUSH1 0x20 ADD SWAP1 PUSH1 0x1 ADD SWAP1 PUSH2 0x46C JUMP JUMPDEST POP POP POP POP SWAP1 POP JUMPDEST SWAP2 SWAP1 POP JUMP JUMPDEST PUSH0 JUMPDEST DUP2 MLOAD DUP2 LT ISZERO PUSH2 0x7D4 JUMPI PUSH0 DUP1 CALLER PUSH20 0xFFFFFFFFFFFFFFFFFFFFFFFFFFFFFFFFFFFFFFFF AND PUSH20 0xFFFFFFFFFFFFFFFFFFFFFFFFFFFFFFFFFFFFFFFF AND DUP2 MSTORE PUSH1 0x20 ADD SWAP1 DUP2 MSTORE PUSH1 0x20 ADD PUSH0 KECCAK256 DUP3 DUP3 DUP2 MLOAD DUP2 LT PUSH2 0x741 JUMPI PUSH2 0x740 PUSH2 0xE98 JUMP JUMPDEST JUMPDEST PUSH1 0x20 MUL PUSH1 0x20 ADD ADD MLOAD SWAP1 DUP1 PUSH1 0x1 DUP2 SLOAD ADD DUP1 DUP3 SSTORE DUP1 SWAP2 POP POP PUSH1 0x1 SWAP1 SUB SWAP1 PUSH0 MSTORE PUSH1 0x20 PUSH0 KECCAK256 SWAP1 PUSH1 0x4 MUL ADD PUSH0 SWAP1 SWAP2 SWAP1 SWAP2 SWAP1 SWAP2 POP PUSH0 DUP3 ADD MLOAD DUP2 PUSH0 ADD SWAP1 DUP2 PUSH2 0x782 SWAP2 SWAP1 PUSH2 0x106B JUMP JUMPDEST POP PUSH1 0x20 DUP3 ADD MLOAD DUP2 PUSH1 0x1 ADD SWAP1 DUP2 PUSH2 0x798 SWAP2 SWAP1 PUSH2 0x106B JUMP JUMPDEST POP PUSH1 0x40 DUP3 ADD MLOAD DUP2 PUSH1 0x2 ADD SWAP1 DUP2 PUSH2 0x7AE SWAP2 SWAP1 PUSH2 0x106B JUMP JUMPDEST POP PUSH1 0x60 DUP3 ADD MLOAD DUP2 PUSH1 0x3 ADD SWAP1 DUP2 PUSH2 0x7C4 SWAP2 SWAP1 PUSH2 0x106B JUMP JUMPDEST POP POP POP DUP1 DUP1 PUSH1 0x1 ADD SWAP2 POP POP PUSH2 0x6E9 JUMP JUMPDEST POP POP JUMP JUMPDEST POP DUP1 SLOAD PUSH0 DUP3 SSTORE PUSH1 0x4 MUL SWAP1 PUSH0 MSTORE PUSH1 0x20 PUSH0 KECCAK256 SWAP1 DUP2 ADD SWAP1 PUSH2 0x7F6 SWAP2 SWAP1 PUSH2 0x7F9 JUMP JUMPDEST POP JUMP JUMPDEST JUMPDEST DUP1 DUP3 GT ISZERO PUSH2 0x847 JUMPI PUSH0 DUP1 DUP3 ADD PUSH0 PUSH2 0x811 SWAP2 SWAP1 PUSH2 0x84B JUMP JUMPDEST PUSH1 0x1 DUP3 ADD PUSH0 PUSH2 0x820 SWAP2 SWAP1 PUSH2 0x84B JUMP JUMPDEST PUSH1 0x2 DUP3 ADD PUSH0 PUSH2 0x82F SWAP2 SWAP1 PUSH2 0x84B JUMP JUMPDEST PUSH1 0x3 DUP3 ADD PUSH0 PUSH2 0x83E SWAP2 SWAP1 PUSH2 0x84B JUMP JUMPDEST POP PUSH1 0x4 ADD PUSH2 0x7FA JUMP JUMPDEST POP SWAP1 JUMP JUMPDEST POP DUP1 SLOAD PUSH2 0x857 SWAP1 PUSH2 0xE68 JUMP JUMPDEST PUSH0 DUP3 SSTORE DUP1 PUSH1 0x1F LT PUSH2 0x868 JUMPI POP PUSH2 0x885 JUMP JUMPDEST PUSH1 0x1F ADD PUSH1 0x20 SWAP1 DIV SWAP1 PUSH0 MSTORE PUSH1 0x20 PUSH0 KECCAK256 SWAP1 DUP2 ADD SWAP1 PUSH2 0x884 SWAP2 SWAP1 PUSH2 0x888 JUMP JUMPDEST JUMPDEST POP JUMP JUMPDEST JUMPDEST DUP1 DUP3 GT ISZERO PUSH2 0x89F JUMPI PUSH0 DUP2 PUSH0 SWAP1 SSTORE POP PUSH1 0x1 ADD PUSH2 0x889 JUMP JUMPDEST POP SWAP1 JUMP JUMPDEST PUSH0 PUSH1 0x40 MLOAD SWAP1 POP SWAP1 JUMP JUMPDEST PUSH0 DUP1 REVERT JUMPDEST PUSH0 DUP1 REVERT JUMPDEST PUSH0 PUSH20 0xFFFFFFFFFFFFFFFFFFFFFFFFFFFFFFFFFFFFFFFF DUP3 AND SWAP1 POP SWAP2 SWAP1 POP JUMP JUMPDEST PUSH0 PUSH2 0x8DD DUP3 PUSH2 0x8B4 JUMP JUMPDEST SWAP1 POP SWAP2 SWAP1 POP JUMP JUMPDEST PUSH2 0x8ED DUP2 PUSH2 0x8D3 JUMP JUMPDEST DUP2 EQ PUSH2 0x8F7 JUMPI PUSH0 DUP1 REVERT JUMPDEST POP JUMP JUMPDEST PUSH0 DUP2 CALLDATALOAD SWAP1 POP PUSH2 0x908 DUP2 PUSH2 0x8E4 JUMP JUMPDEST SWAP3 SWAP2 POP POP JUMP JUMPDEST PUSH0 PUSH1 0x20 DUP3 DUP5 SUB SLT ISZERO PUSH2 0x923 JUMPI PUSH2 0x922 PUSH2 0x8AC JUMP JUMPDEST JUMPDEST PUSH0 PUSH2 0x930 DUP5 DUP3 DUP6 ADD PUSH2 0x8FA JUMP JUMPDEST SWAP2 POP POP SWAP3 SWAP2 POP POP JUMP JUMPDEST PUSH0 DUP2 MLOAD SWAP1 POP SWAP2 SWAP1 POP JUMP JUMPDEST PUSH0 DUP3 DUP3 MSTORE PUSH1 0x20 DUP3 ADD SWAP1 POP SWAP3 SWAP2 POP POP JUMP JUMPDEST PUSH0 DUP2 SWAP1 POP PUSH1 0x20 DUP3 ADD SWAP1 POP SWAP2 SWAP1 POP JUMP JUMPDEST PUSH0 DUP2 MLOAD SWAP1 POP SWAP2 SWAP1 POP JUMP JUMPDEST PUSH0 DUP3 DUP3 MSTORE PUSH1 0x20 DUP3 ADD SWAP1 POP SWAP3 SWAP2 POP POP JUMP JUMPDEST DUP3 DUP2 DUP4 MCOPY PUSH0 DUP4 DUP4 ADD MSTORE POP POP POP JUMP JUMPDEST PUSH0 PUSH1 0x1F NOT PUSH1 0x1F DUP4 ADD AND SWAP1 POP SWAP2 SWAP1 POP JUMP JUMPDEST PUSH0 PUSH2 0x9A4 DUP3 PUSH2 0x962 JUMP JUMPDEST PUSH2 0x9AE DUP2 DUP6 PUSH2 0x96C JUMP JUMPDEST SWAP4 POP PUSH2 0x9BE DUP2 DUP6 PUSH1 0x20 DUP7 ADD PUSH2 0x97C JUMP JUMPDEST PUSH2 0x9C7 DUP2 PUSH2 0x98A JUMP JUMPDEST DUP5 ADD SWAP2 POP POP SWAP3 SWAP2 POP POP JUMP JUMPDEST PUSH0 PUSH1 0x80 DUP4 ADD PUSH0 DUP4 ADD MLOAD DUP5 DUP3 SUB PUSH0 DUP7 ADD MSTORE PUSH2 0x9EC DUP3 DUP3 PUSH2 0x99A JUMP JUMPDEST SWAP2 POP POP PUSH1 0x20 DUP4 ADD MLOAD DUP5 DUP3 SUB PUSH1 0x20 DUP7 ADD MSTORE PUSH2 0xA06 DUP3 DUP3 PUSH2 0x99A JUMP JUMPDEST SWAP2 POP POP PUSH1 0x40 DUP4 ADD MLOAD DUP5 DUP3 SUB PUSH1 0x40 DUP7 ADD MSTORE PUSH2 0xA20 DUP3 DUP3 PUSH2 0x99A JUMP JUMPDEST SWAP2 POP POP PUSH1 0x60 DUP4 ADD MLOAD DUP5 DUP3 SUB PUSH1 0x60 DUP7 ADD MSTORE PUSH2 0xA3A DUP3 DUP3 PUSH2 0x99A JUMP JUMPDEST SWAP2 POP POP DUP1 SWAP2 POP POP SWAP3 SWAP2 POP POP JUMP JUMPDEST PUSH0 PUSH2 0xA52 DUP4 DUP4 PUSH2 0x9D2 JUMP JUMPDEST SWAP1 POP SWAP3 SWAP2 POP POP JUMP JUMPDEST PUSH0 PUSH1 0x20 DUP3 ADD SWAP1 POP SWAP2 SWAP1 POP JUMP JUMPDEST PUSH0 PUSH2 0xA70 DUP3 PUSH2 0x939 JUMP JUMPDEST PUSH2 0xA7A DUP2 DUP6 PUSH2 0x943 JUMP JUMPDEST SWAP4 POP DUP4 PUSH1 0x20 DUP3 MUL DUP6 ADD PUSH2 0xA8C DUP6 PUSH2 0x953 JUMP JUMPDEST DUP1 PUSH0 JUMPDEST DUP6 DUP2 LT ISZERO PUSH2 0xAC7 JUMPI DUP5 DUP5 SUB DUP10 MSTORE DUP2 MLOAD PUSH2 0xAA8 DUP6 DUP3 PUSH2 0xA47 JUMP JUMPDEST SWAP5 POP PUSH2 0xAB3 DUP4 PUSH2 0xA5A JUMP JUMPDEST SWAP3 POP PUSH1 0x20 DUP11 ADD SWAP10 POP POP PUSH1 0x1 DUP2 ADD SWAP1 POP PUSH2 0xA8F JUMP JUMPDEST POP DUP3 SWAP8 POP DUP8 SWAP6 POP POP POP POP POP POP SWAP3 SWAP2 POP POP JUMP JUMPDEST PUSH0 PUSH1 0x20 DUP3 ADD SWAP1 POP DUP2 DUP2 SUB PUSH0 DUP4 ADD MSTORE PUSH2 0xAF1 DUP2 DUP5 PUSH2 0xA66 JUMP JUMPDEST SWAP1 POP SWAP3 SWAP2 POP POP JUMP JUMPDEST PUSH0 DUP1 REVERT JUMPDEST PUSH32 0x4E487B7100000000000000000000000000000000000000000000000000000000 PUSH0 MSTORE PUSH1 0x41 PUSH1 0x4 MSTORE PUSH1 0x24 PUSH0 REVERT JUMPDEST PUSH2 0xB33 DUP3 PUSH2 0x98A JUMP JUMPDEST DUP2 ADD DUP2 DUP2 LT PUSH8 0xFFFFFFFFFFFFFFFF DUP3 GT OR ISZERO PUSH2 0xB52 JUMPI PUSH2 0xB51 PUSH2 0xAFD JUMP JUMPDEST JUMPDEST DUP1 PUSH1 0x40 MSTORE POP POP POP JUMP JUMPDEST PUSH0 PUSH2 0xB64 PUSH2 0x8A3 JUMP JUMPDEST SWAP1 POP PUSH2 0xB70 DUP3 DUP3 PUSH2 0xB2A JUMP JUMPDEST SWAP2 SWAP1 POP JUMP JUMPDEST PUSH0 PUSH8 0xFFFFFFFFFFFFFFFF DUP3 GT ISZERO PUSH2 0xB8F JUMPI PUSH2 0xB8E PUSH2 0xAFD JUMP JUMPDEST JUMPDEST PUSH1 0x20 DUP3 MUL SWAP1 POP PUSH1 0x20 DUP2 ADD SWAP1 POP SWAP2 SWAP1 POP JUMP JUMPDEST PUSH0 DUP1 REVERT JUMPDEST PUSH0 DUP1 REVERT JUMPDEST PUSH0 DUP1 REVERT JUMPDEST PUSH0 DUP1 REVERT JUMPDEST PUSH0 PUSH8 0xFFFFFFFFFFFFFFFF DUP3 GT ISZERO PUSH2 0xBCA JUMPI PUSH2 0xBC9 PUSH2 0xAFD JUMP JUMPDEST JUMPDEST PUSH2 0xBD3 DUP3 PUSH2 0x98A JUMP JUMPDEST SWAP1 POP PUSH1 0x20 DUP2 ADD SWAP1 POP SWAP2 SWAP1 POP JUMP JUMPDEST DUP3 DUP2 DUP4 CALLDATACOPY PUSH0 DUP4 DUP4 ADD MSTORE POP POP POP JUMP JUMPDEST PUSH0 PUSH2 0xC00 PUSH2 0xBFB DUP5 PUSH2 0xBB0 JUMP JUMPDEST PUSH2 0xB5B JUMP JUMPDEST SWAP1 POP DUP3 DUP2 MSTORE PUSH1 0x20 DUP2 ADD DUP5 DUP5 DUP5 ADD GT ISZERO PUSH2 0xC1C JUMPI PUSH2 0xC1B PUSH2 0xBAC JUMP JUMPDEST JUMPDEST PUSH2 0xC27 DUP5 DUP3 DUP6 PUSH2 0xBE0 JUMP JUMPDEST POP SWAP4 SWAP3 POP POP POP JUMP JUMPDEST PUSH0 DUP3 PUSH1 0x1F DUP4 ADD SLT PUSH2 0xC43 JUMPI PUSH2 0xC42 PUSH2 0xAF9 JUMP JUMPDEST JUMPDEST DUP2 CALLDATALOAD PUSH2 0xC53 DUP5 DUP3 PUSH1 0x20 DUP7 ADD PUSH2 0xBEE JUMP JUMPDEST SWAP2 POP POP SWAP3 SWAP2 POP POP JUMP JUMPDEST PUSH0 PUSH1 0x80 DUP3 DUP5 SUB SLT ISZERO PUSH2 0xC71 JUMPI PUSH2 0xC70 PUSH2 0xBA4 JUMP JUMPDEST JUMPDEST PUSH2 0xC7B PUSH1 0x80 PUSH2 0xB5B JUMP JUMPDEST SWAP1 POP PUSH0 DUP3 ADD CALLDATALOAD PUSH8 0xFFFFFFFFFFFFFFFF DUP2 GT ISZERO PUSH2 0xC9A JUMPI PUSH2 0xC99 PUSH2 0xBA8 JUMP JUMPDEST JUMPDEST PUSH2 0xCA6 DUP5 DUP3 DUP6 ADD PUSH2 0xC2F JUMP JUMPDEST PUSH0 DUP4 ADD MSTORE POP PUSH1 0x20 DUP3 ADD CALLDATALOAD PUSH8 0xFFFFFFFFFFFFFFFF DUP2 GT ISZERO PUSH2 0xCC9 JUMPI PUSH2 0xCC8 PUSH2 0xBA8 JUMP JUMPDEST JUMPDEST PUSH2 0xCD5 DUP5 DUP3 DUP6 ADD PUSH2 0xC2F JUMP JUMPDEST PUSH1 0x20 DUP4 ADD MSTORE POP PUSH1 0x40 DUP3 ADD CALLDATALOAD PUSH8 0xFFFFFFFFFFFFFFFF DUP2 GT ISZERO PUSH2 0xCF9 JUMPI PUSH2 0xCF8 PUSH2 0xBA8 JUMP JUMPDEST JUMPDEST PUSH2 0xD05 DUP5 DUP3 DUP6 ADD PUSH2 0xC2F JUMP JUMPDEST PUSH1 0x40 DUP4 ADD MSTORE POP PUSH1 0x60 DUP3 ADD CALLDATALOAD PUSH8 0xFFFFFFFFFFFFFFFF DUP2 GT ISZERO PUSH2 0xD29 JUMPI PUSH2 0xD28 PUSH2 0xBA8 JUMP JUMPDEST JUMPDEST PUSH2 0xD35 DUP5 DUP3 DUP6 ADD PUSH2 0xC2F JUMP JUMPDEST PUSH1 0x60 DUP4 ADD MSTORE POP SWAP3 SWAP2 POP POP JUMP JUMPDEST PUSH0 PUSH2 0xD53 PUSH2 0xD4E DUP5 PUSH2 0xB75 JUMP JUMPDEST PUSH2 0xB5B JUMP JUMPDEST SWAP1 POP DUP1 DUP4 DUP3 MSTORE PUSH1 0x20 DUP3 ADD SWAP1 POP PUSH1 0x20 DUP5 MUL DUP4 ADD DUP6 DUP2 GT ISZERO PUSH2 0xD76 JUMPI PUSH2 0xD75 PUSH2 0xBA0 JUMP JUMPDEST JUMPDEST DUP4 JUMPDEST DUP2 DUP2 LT ISZERO PUSH2 0xDBD JUMPI DUP1 CALLDATALOAD PUSH8 0xFFFFFFFFFFFFFFFF DUP2 GT ISZERO PUSH2 0xD9B JUMPI PUSH2 0xD9A PUSH2 0xAF9 JUMP JUMPDEST JUMPDEST DUP1 DUP7 ADD PUSH2 0xDA8 DUP10 DUP3 PUSH2 0xC5C JUMP JUMPDEST DUP6 MSTORE PUSH1 0x20 DUP6 ADD SWAP5 POP POP POP PUSH1 0x20 DUP2 ADD SWAP1 POP PUSH2 0xD78 JUMP JUMPDEST POP POP POP SWAP4 SWAP3 POP POP POP JUMP JUMPDEST PUSH0 DUP3 PUSH1 0x1F DUP4 ADD SLT PUSH2 0xDDB JUMPI PUSH2 0xDDA PUSH2 0xAF9 JUMP JUMPDEST JUMPDEST DUP2 CALLDATALOAD PUSH2 0xDEB DUP5 DUP3 PUSH1 0x20 DUP7 ADD PUSH2 0xD41 JUMP JUMPDEST SWAP2 POP POP SWAP3 SWAP2 POP POP JUMP JUMPDEST PUSH0 PUSH1 0x20 DUP3 DUP5 SUB SLT ISZERO PUSH2 0xE09 JUMPI PUSH2 0xE08 PUSH2 0x8AC JUMP JUMPDEST JUMPDEST PUSH0 DUP3 ADD CALLDATALOAD PUSH8 0xFFFFFFFFFFFFFFFF DUP2 GT ISZERO PUSH2 0xE26 JUMPI PUSH2 0xE25 PUSH2 0x8B0 JUMP JUMPDEST JUMPDEST PUSH2 0xE32 DUP5 DUP3 DUP6 ADD PUSH2 0xDC7 JUMP JUMPDEST SWAP2 POP POP SWAP3 SWAP2 POP POP JUMP JUMPDEST PUSH32 0x4E487B7100000000000000000000000000000000000000000000000000000000 PUSH0 MSTORE PUSH1 0x22 PUSH1 0x4 MSTORE PUSH1 0x24 PUSH0 REVERT JUMPDEST PUSH0 PUSH1 0x2 DUP3 DIV SWAP1 POP PUSH1 0x1 DUP3 AND DUP1 PUSH2 0xE7F JUMPI PUSH1 0x7F DUP3 AND SWAP2 POP JUMPDEST PUSH1 0x20 DUP3 LT DUP2 SUB PUSH2 0xE92 JUMPI PUSH2 0xE91 PUSH2 0xE3B JUMP JUMPDEST JUMPDEST POP SWAP2 SWAP1 POP JUMP JUMPDEST PUSH32 0x4E487B7100000000000000000000000000000000000000000000000000000000 PUSH0 MSTORE PUSH1 0x32 PUSH1 0x4 MSTORE PUSH1 0x24 PUSH0 REVERT JUMPDEST PUSH0 DUP2 SWAP1 POP DUP2 PUSH0 MSTORE PUSH1 0x20 PUSH0 KECCAK256 SWAP1 POP SWAP2 SWAP1 POP JUMP JUMPDEST PUSH0 PUSH1 0x20 PUSH1 0x1F DUP4 ADD DIV SWAP1 POP SWAP2 SWAP1 POP JUMP JUMPDEST PUSH0 DUP3 DUP3 SHL SWAP1 POP SWAP3 SWAP2 POP POP JUMP JUMPDEST PUSH0 PUSH1 0x8 DUP4 MUL PUSH2 0xF21 PUSH32 0xFFFFFFFFFFFFFFFFFFFFFFFFFFFFFFFFFFFFFFFFFFFFFFFFFFFFFFFFFFFFFFFF DUP3 PUSH2 0xEE6 JUMP JUMPDEST PUSH2 0xF2B DUP7 DUP4 PUSH2 0xEE6 JUMP JUMPDEST SWAP6 POP DUP1 NOT DUP5 AND SWAP4 POP DUP1 DUP7 AND DUP5 OR SWAP3 POP POP POP SWAP4 SWAP3 POP POP POP JUMP JUMPDEST PUSH0 DUP2 SWAP1 POP SWAP2 SWAP1 POP JUMP JUMPDEST PUSH0 DUP2 SWAP1 POP SWAP2 SWAP1 POP JUMP JUMPDEST PUSH0 PUSH2 0xF6F PUSH2 0xF6A PUSH2 0xF65 DUP5 PUSH2 0xF43 JUMP JUMPDEST PUSH2 0xF4C JUMP JUMPDEST PUSH2 0xF43 JUMP JUMPDEST SWAP1 POP SWAP2 SWAP1 POP JUMP JUMPDEST PUSH0 DUP2 SWAP1 POP SWAP2 SWAP1 POP JUMP JUMPDEST PUSH2 0xF88 DUP4 PUSH2 0xF55 JUMP JUMPDEST PUSH2 0xF9C PUSH2 0xF94 DUP3 PUSH2 0xF76 JUMP JUMPDEST DUP5 DUP5 SLOAD PUSH2 0xEF2 JUMP JUMPDEST DUP3 SSTORE POP POP POP POP JUMP JUMPDEST PUSH0 SWAP1 JUMP JUMPDEST PUSH2 0xFB0 PUSH2 0xFA4 JUMP JUMPDEST PUSH2 0xFBB DUP2 DUP5 DUP5 PUSH2 0xF7F JUMP JUMPDEST POP POP POP JUMP JUMPDEST JUMPDEST DUP2 DUP2 LT ISZERO PUSH2 0xFDE JUMPI PUSH2 0xFD3 PUSH0 DUP3 PUSH2 0xFA8 JUMP JUMPDEST PUSH1 0x1 DUP2 ADD SWAP1 POP PUSH2 0xFC1 JUMP JUMPDEST POP POP JUMP JUMPDEST PUSH1 0x1F DUP3 GT ISZERO PUSH2 0x1023 JUMPI PUSH2 0xFF4 DUP2 PUSH2 0xEC5 JUMP JUMPDEST PUSH2 0xFFD DUP5 PUSH2 0xED7 JUMP JUMPDEST DUP2 ADD PUSH1 0x20 DUP6 LT ISZERO PUSH2 0x100C JUMPI DUP2 SWAP1 POP JUMPDEST PUSH2 0x1020 PUSH2 0x1018 DUP6 PUSH2 0xED7 JUMP JUMPDEST DUP4 ADD DUP3 PUSH2 0xFC0 JUMP JUMPDEST POP POP JUMPDEST POP POP POP JUMP JUMPDEST PUSH0 DUP3 DUP3 SHR SWAP1 POP SWAP3 SWAP2 POP POP JUMP JUMPDEST PUSH0 PUSH2 0x1043 PUSH0 NOT DUP5 PUSH1 0x8 MUL PUSH2 0x1028 JUMP JUMPDEST NOT DUP1 DUP4 AND SWAP2 POP POP SWAP3 SWAP2 POP POP JUMP JUMPDEST PUSH0 PUSH2 0x105B DUP4 DUP4 PUSH2 0x1034 JUMP JUMPDEST SWAP2 POP DUP3 PUSH1 0x2 MUL DUP3 OR SWAP1 POP SWAP3 SWAP2 POP POP JUMP JUMPDEST PUSH2 0x1074 DUP3 PUSH2 0x962 JUMP JUMPDEST PUSH8 0xFFFFFFFFFFFFFFFF DUP2 GT ISZERO PUSH2 0x108D JUMPI PUSH2 0x108C PUSH2 0xAFD JUMP JUMPDEST JUMPDEST PUSH2 0x1097 DUP3 SLOAD PUSH2 0xE68 JUMP JUMPDEST PUSH2 0x10A2 DUP3 DUP3 DUP6 PUSH2 0xFE2 JUMP JUMPDEST PUSH0 PUSH1 0x20 SWAP1 POP PUSH1 0x1F DUP4 GT PUSH1 0x1 DUP2 EQ PUSH2 0x10D3 JUMPI PUSH0 DUP5 ISZERO PUSH2 0x10C1 JUMPI DUP3 DUP8 ADD MLOAD SWAP1 POP JUMPDEST PUSH2 0x10CB DUP6 DUP3 PUSH2 0x1050 JUMP JUMPDEST DUP7 SSTORE POP PUSH2 0x1132 JUMP JUMPDEST PUSH1 0x1F NOT DUP5 AND PUSH2 0x10E1 DUP7 PUSH2 0xEC5 JUMP JUMPDEST PUSH0 JUMPDEST DUP3 DUP2 LT ISZERO PUSH2 0x1108 JUMPI DUP5 DUP10 ADD MLOAD DUP3 SSTORE PUSH1 0x1 DUP3 ADD SWAP2 POP PUSH1 0x20 DUP6 ADD SWAP5 POP PUSH1 0x20 DUP2 ADD SWAP1 POP PUSH2 0x10E3 JUMP JUMPDEST DUP7 DUP4 LT ISZERO PUSH2 0x1125 JUMPI DUP5 DUP10 ADD MLOAD PUSH2 0x1121 PUSH1 0x1F DUP10 AND DUP3 PUSH2 0x1034 JUMP JUMPDEST DUP4 SSTORE POP JUMPDEST PUSH1 0x1 PUSH1 0x2 DUP9 MUL ADD DUP9 SSTORE POP POP POP JUMPDEST POP POP POP POP POP POP JUMP INVALID LOG2 PUSH5 0x6970667358 0x22 SLT KECCAK256 DUP13 0xE6 0xD0 0x4E PUSH32 0xA9FCB5CF59C0B0C96E4AF5B51ED0FA89770C995CB5B9EEDDB9C06A64736F6C63 NUMBER STOP ADDMOD BYTE STOP CALLER "
				},
				"gasEstimates": {
					"creation": {
						"codeDepositCost": "892800",
						"executionCost": "927",
						"totalCost": "893727"
					},
					"external": {
						"addList((string,string,string,string)[])": "infinite",
						"checkUser(address)": "infinite",
						"deleteData(address)": "infinite"
					}
				},
				"methodIdentifiers": {
					"addList((string,string,string,string)[])": "d177b083",
					"checkUser(address)": "1e9d48cf",
					"deleteData(address)": "009b41a0"
				}
			},
			"storageLayout": {
				"storage": [
					{
						"astId": 20,
						"contract": "contracts/deLink/storeUserData.sol:storeUserData",
						"label": "StoreList",
						"offset": 0,
						"slot": "0",
						"type": "t_mapping(t_address,t_array(t_struct(eachList)14_storage)dyn_storage)"
					}
				],
				"types": {
					"t_address": {
						"encoding": "inplace",
						"label": "address",
						"numberOfBytes": "20"
					},
					"t_array(t_struct(eachList)14_storage)dyn_storage": {
						"base": "t_struct(eachList)14_storage",
						"encoding": "dynamic_array",
						"label": "struct storeUserData.eachList[]",
						"numberOfBytes": "32"
					},
					"t_mapping(t_address,t_array(t_struct(eachList)14_storage)dyn_storage)": {
						"encoding": "mapping",
						"key": "t_address",
						"label": "mapping(address => struct storeUserData.eachList[])",
						"numberOfBytes": "32",
						"value": "t_array(t_struct(eachList)14_storage)dyn_storage"
					},
					"t_string_storage": {
						"encoding": "bytes",
						"label": "string",
						"numberOfBytes": "32"
					},
					"t_struct(eachList)14_storage": {
						"encoding": "inplace",
						"label": "struct storeUserData.eachList",
						"members": [
							{
								"astId": 7,
								"contract": "contracts/deLink/storeUserData.sol:storeUserData",
								"label": "name",
								"offset": 0,
								"slot": "0",
								"type": "t_string_storage"
							},
							{
								"astId": 9,
								"contract": "contracts/deLink/storeUserData.sol:storeUserData",
								"label": "topic",
								"offset": 0,
								"slot": "1",
								"type": "t_string_storage"
							},
							{
								"astId": 11,
								"contract": "contracts/deLink/storeUserData.sol:storeUserData",
								"label": "link",
								"offset": 0,
								"slot": "2",
								"type": "t_string_storage"
							},
							{
								"astId": 13,
								"contract": "contracts/deLink/storeUserData.sol:storeUserData",
								"label": "uid",
								"offset": 0,
								"slot": "3",
								"type": "t_string_storage"
							}
						],
						"numberOfBytes": "128"
					}
				}
			},
			"userdoc": {
				"kind": "user",
				"methods": {},
				"version": 1
			}
		}
	}
}