{
	"contracts/build_bounty/main_build/reward_elig.sol": {
		"RewardElig": {
			"abi": [
				{
					"inputs": [
						{
							"internalType": "address",
							"name": "_build_ca",
							"type": "address"
						}
					],
					"stateMutability": "nonpayable",
					"type": "constructor"
				},
				{
					"inputs": [
						{
							"internalType": "string",
							"name": "",
							"type": "string"
						}
					],
					"name": "DuplicateUserAdded",
					"type": "error"
				},
				{
					"inputs": [
						{
							"internalType": "string",
							"name": "",
							"type": "string"
						}
					],
					"name": "IneligibleUser",
					"type": "error"
				},
				{
					"anonymous": false,
					"inputs": [
						{
							"indexed": false,
							"internalType": "address",
							"name": "_user",
							"type": "address"
						},
						{
							"indexed": false,
							"internalType": "uint256",
							"name": "_amount",
							"type": "uint256"
						}
					],
					"name": "ClaimRewardUser",
					"type": "event"
				},
				{
					"anonymous": false,
					"inputs": [
						{
							"indexed": false,
							"internalType": "uint256",
							"name": "_total_num_user",
							"type": "uint256"
						}
					],
					"name": "TotalUserClaim",
					"type": "event"
				},
				{
					"inputs": [
						{
							"internalType": "address",
							"name": "_user",
							"type": "address"
						}
					],
					"name": "AddEligibleUser",
					"outputs": [],
					"stateMutability": "nonpayable",
					"type": "function"
				},
				{
					"inputs": [
						{
							"internalType": "address[]",
							"name": "_users",
							"type": "address[]"
						}
					],
					"name": "AddMultipleEliglibleUser",
					"outputs": [],
					"stateMutability": "nonpayable",
					"type": "function"
				},
				{
					"inputs": [],
					"name": "CallSorted",
					"outputs": [
						{
							"components": [
								{
									"internalType": "address",
									"name": "sender",
									"type": "address"
								},
								{
									"internalType": "uint256",
									"name": "amount",
									"type": "uint256"
								}
							],
							"internalType": "struct RewardElig.DonateBuildRecord[]",
							"name": "",
							"type": "tuple[]"
						}
					],
					"stateMutability": "nonpayable",
					"type": "function"
				},
				{
					"inputs": [
						{
							"internalType": "address",
							"name": "_newAdmin",
							"type": "address"
						}
					],
					"name": "ChangeAdmin",
					"outputs": [],
					"stateMutability": "nonpayable",
					"type": "function"
				},
				{
					"inputs": [],
					"name": "ClaimReward",
					"outputs": [
						{
							"internalType": "uint256",
							"name": "",
							"type": "uint256"
						}
					],
					"stateMutability": "nonpayable",
					"type": "function"
				},
				{
					"inputs": [],
					"name": "CurrentAdmin",
					"outputs": [
						{
							"internalType": "address",
							"name": "",
							"type": "address"
						}
					],
					"stateMutability": "view",
					"type": "function"
				},
				{
					"inputs": [],
					"name": "CurrentWeekStart",
					"outputs": [
						{
							"internalType": "uint256",
							"name": "",
							"type": "uint256"
						}
					],
					"stateMutability": "view",
					"type": "function"
				},
				{
					"inputs": [
						{
							"internalType": "uint256",
							"name": "_amount",
							"type": "uint256"
						}
					],
					"name": "DepositBuild",
					"outputs": [],
					"stateMutability": "nonpayable",
					"type": "function"
				},
				{
					"inputs": [],
					"name": "ReadOnlyBalance4Dev",
					"outputs": [
						{
							"internalType": "uint256",
							"name": "",
							"type": "uint256"
						}
					],
					"stateMutability": "view",
					"type": "function"
				},
				{
					"inputs": [
						{
							"internalType": "address",
							"name": "_user",
							"type": "address"
						}
					],
					"name": "RemoveEligibleUser",
					"outputs": [],
					"stateMutability": "nonpayable",
					"type": "function"
				},
				{
					"inputs": [],
					"name": "TotalBuildClaimed",
					"outputs": [
						{
							"internalType": "uint256",
							"name": "",
							"type": "uint256"
						}
					],
					"stateMutability": "view",
					"type": "function"
				},
				{
					"inputs": [],
					"name": "TotalClaimedWeek",
					"outputs": [
						{
							"internalType": "uint256",
							"name": "",
							"type": "uint256"
						}
					],
					"stateMutability": "view",
					"type": "function"
				},
				{
					"inputs": [],
					"name": "WeekTotalUser",
					"outputs": [
						{
							"internalType": "uint256",
							"name": "",
							"type": "uint256"
						}
					],
					"stateMutability": "view",
					"type": "function"
				},
				{
					"inputs": [],
					"name": "WeekTotalUserAddress",
					"outputs": [
						{
							"internalType": "address[]",
							"name": "",
							"type": "address[]"
						}
					],
					"stateMutability": "view",
					"type": "function"
				},
				{
					"inputs": [],
					"name": "lis",
					"outputs": [
						{
							"internalType": "address[]",
							"name": "",
							"type": "address[]"
						}
					],
					"stateMutability": "view",
					"type": "function"
				},
				{
					"inputs": [
						{
							"internalType": "address",
							"name": "_user",
							"type": "address"
						}
					],
					"name": "returndf",
					"outputs": [
						{
							"internalType": "uint256",
							"name": "",
							"type": "uint256"
						}
					],
					"stateMutability": "view",
					"type": "function"
				}
			],
			"devdoc": {
				"kind": "dev",
				"methods": {},
				"version": 1
			},
			"evm": {
				"assembly": "    /* \"contracts/build_bounty/main_build/reward_elig.sol\":510:6822  contract RewardElig {... */\n  mstore(0x40, 0xa0)\n    /* \"contracts/build_bounty/main_build/reward_elig.sol\":1148:1328  constructor(address _build_ca) {... */\n  callvalue\n  dup1\n  iszero\n  tag_1\n  jumpi\n  0x00\n  dup1\n  revert\ntag_1:\n  pop\n  mload(0x40)\n  sub(codesize, bytecodeSize)\n  dup1\n  bytecodeSize\n  dup4\n  codecopy\n  dup2\n  dup2\n  add\n  0x40\n  mstore\n  dup2\n  add\n  swap1\n  tag_2\n  swap2\n  swap1\n  tag_3\n  jump\t// in\ntag_2:\n    /* \"contracts/build_bounty/main_build/reward_elig.sol\":1197:1207  msg.sender */\n  caller\n    /* \"contracts/build_bounty/main_build/reward_elig.sol\":1189:1194  admin */\n  0x03\n  0x00\n    /* \"contracts/build_bounty/main_build/reward_elig.sol\":1189:1207  admin = msg.sender */\n  0x0100\n  exp\n  dup2\n  sload\n  dup2\n  0xffffffffffffffffffffffffffffffffffffffff\n  mul\n  not\n  and\n  swap1\n  dup4\n  0xffffffffffffffffffffffffffffffffffffffff\n  and\n  mul\n  or\n  swap1\n  sstore\n  pop\n    /* \"contracts/build_bounty/main_build/reward_elig.sol\":1230:1239  _build_ca */\n  dup1\n    /* \"contracts/build_bounty/main_build/reward_elig.sol\":1217:1239  MOCK_BUILD = _build_ca */\n  0xffffffffffffffffffffffffffffffffffffffff\n  and\n  0x80\n  dup2\n  0xffffffffffffffffffffffffffffffffffffffff\n  and\n  dup2\n  mstore\n  pop\n  pop\n    /* \"contracts/build_bounty/main_build/reward_elig.sol\":679:688  5 minutes */\n  0x012c\n    /* \"contracts/build_bounty/main_build/reward_elig.sol\":1287:1302  block.timestamp */\n  timestamp\n    /* \"contracts/build_bounty/main_build/reward_elig.sol\":1287:1320  block.timestamp % DURATION_PERIOD */\n  tag_6\n  swap2\n  swap1\n  tag_7\n  jump\t// in\ntag_6:\n    /* \"contracts/build_bounty/main_build/reward_elig.sol\":1268:1283  block.timestamp */\n  timestamp\n    /* \"contracts/build_bounty/main_build/reward_elig.sol\":1268:1321  block.timestamp - (block.timestamp % DURATION_PERIOD) */\n  tag_8\n  swap2\n  swap1\n  tag_9\n  jump\t// in\ntag_8:\n    /* \"contracts/build_bounty/main_build/reward_elig.sol\":1249:1265  CurrentWeekStart */\n  0x04\n    /* \"contracts/build_bounty/main_build/reward_elig.sol\":1249:1321  CurrentWeekStart = block.timestamp - (block.timestamp % DURATION_PERIOD) */\n  dup2\n  swap1\n  sstore\n  pop\n    /* \"contracts/build_bounty/main_build/reward_elig.sol\":1148:1328  constructor(address _build_ca) {... */\n  pop\n    /* \"contracts/build_bounty/main_build/reward_elig.sol\":510:6822  contract RewardElig {... */\n  jump(tag_10)\n    /* \"#utility.yul\":88:205   */\ntag_12:\n    /* \"#utility.yul\":197:198   */\n  0x00\n    /* \"#utility.yul\":194:195   */\n  dup1\n    /* \"#utility.yul\":187:199   */\n  revert\n    /* \"#utility.yul\":334:460   */\ntag_14:\n    /* \"#utility.yul\":371:378   */\n  0x00\n    /* \"#utility.yul\":411:453   */\n  0xffffffffffffffffffffffffffffffffffffffff\n    /* \"#utility.yul\":404:409   */\n  dup3\n    /* \"#utility.yul\":400:454   */\n  and\n    /* \"#utility.yul\":389:454   */\n  swap1\n  pop\n    /* \"#utility.yul\":334:460   */\n  swap2\n  swap1\n  pop\n  jump\t// out\n    /* \"#utility.yul\":466:562   */\ntag_15:\n    /* \"#utility.yul\":503:510   */\n  0x00\n    /* \"#utility.yul\":532:556   */\n  tag_27\n    /* \"#utility.yul\":550:555   */\n  dup3\n    /* \"#utility.yul\":532:556   */\n  tag_14\n  jump\t// in\ntag_27:\n    /* \"#utility.yul\":521:556   */\n  swap1\n  pop\n    /* \"#utility.yul\":466:562   */\n  swap2\n  swap1\n  pop\n  jump\t// out\n    /* \"#utility.yul\":568:690   */\ntag_16:\n    /* \"#utility.yul\":641:665   */\n  tag_29\n    /* \"#utility.yul\":659:664   */\n  dup2\n    /* \"#utility.yul\":641:665   */\n  tag_15\n  jump\t// in\ntag_29:\n    /* \"#utility.yul\":634:639   */\n  dup2\n    /* \"#utility.yul\":631:666   */\n  eq\n    /* \"#utility.yul\":621:684   */\n  tag_30\n  jumpi\n    /* \"#utility.yul\":680:681   */\n  0x00\n    /* \"#utility.yul\":677:678   */\n  dup1\n    /* \"#utility.yul\":670:682   */\n  revert\n    /* \"#utility.yul\":621:684   */\ntag_30:\n    /* \"#utility.yul\":568:690   */\n  pop\n  jump\t// out\n    /* \"#utility.yul\":696:839   */\ntag_17:\n    /* \"#utility.yul\":753:758   */\n  0x00\n    /* \"#utility.yul\":784:790   */\n  dup2\n    /* \"#utility.yul\":778:791   */\n  mload\n    /* \"#utility.yul\":769:791   */\n  swap1\n  pop\n    /* \"#utility.yul\":800:833   */\n  tag_32\n    /* \"#utility.yul\":827:832   */\n  dup2\n    /* \"#utility.yul\":800:833   */\n  tag_16\n  jump\t// in\ntag_32:\n    /* \"#utility.yul\":696:839   */\n  swap3\n  swap2\n  pop\n  pop\n  jump\t// out\n    /* \"#utility.yul\":845:1196   */\ntag_3:\n    /* \"#utility.yul\":915:921   */\n  0x00\n    /* \"#utility.yul\":964:966   */\n  0x20\n    /* \"#utility.yul\":952:961   */\n  dup3\n    /* \"#utility.yul\":943:950   */\n  dup5\n    /* \"#utility.yul\":939:962   */\n  sub\n    /* \"#utility.yul\":935:967   */\n  slt\n    /* \"#utility.yul\":932:1051   */\n  iszero\n  tag_34\n  jumpi\n    /* \"#utility.yul\":970:1049   */\n  tag_35\n  tag_12\n  jump\t// in\ntag_35:\n    /* \"#utility.yul\":932:1051   */\ntag_34:\n    /* \"#utility.yul\":1090:1091   */\n  0x00\n    /* \"#utility.yul\":1115:1179   */\n  tag_36\n    /* \"#utility.yul\":1171:1178   */\n  dup5\n    /* \"#utility.yul\":1162:1168   */\n  dup3\n    /* \"#utility.yul\":1151:1160   */\n  dup6\n    /* \"#utility.yul\":1147:1169   */\n  add\n    /* \"#utility.yul\":1115:1179   */\n  tag_17\n  jump\t// in\ntag_36:\n    /* \"#utility.yul\":1105:1179   */\n  swap2\n  pop\n    /* \"#utility.yul\":1061:1189   */\n  pop\n    /* \"#utility.yul\":845:1196   */\n  swap3\n  swap2\n  pop\n  pop\n  jump\t// out\n    /* \"#utility.yul\":1202:1279   */\ntag_18:\n    /* \"#utility.yul\":1239:1246   */\n  0x00\n    /* \"#utility.yul\":1268:1273   */\n  dup2\n    /* \"#utility.yul\":1257:1273   */\n  swap1\n  pop\n    /* \"#utility.yul\":1202:1279   */\n  swap2\n  swap1\n  pop\n  jump\t// out\n    /* \"#utility.yul\":1285:1465   */\ntag_19:\n    /* \"#utility.yul\":1333:1410   */\n  0x4e487b7100000000000000000000000000000000000000000000000000000000\n    /* \"#utility.yul\":1330:1331   */\n  0x00\n    /* \"#utility.yul\":1323:1411   */\n  mstore\n    /* \"#utility.yul\":1430:1434   */\n  0x12\n    /* \"#utility.yul\":1427:1428   */\n  0x04\n    /* \"#utility.yul\":1420:1435   */\n  mstore\n    /* \"#utility.yul\":1454:1458   */\n  0x24\n    /* \"#utility.yul\":1451:1452   */\n  0x00\n    /* \"#utility.yul\":1444:1459   */\n  revert\n    /* \"#utility.yul\":1471:1647   */\ntag_7:\n    /* \"#utility.yul\":1503:1504   */\n  0x00\n    /* \"#utility.yul\":1520:1540   */\n  tag_40\n    /* \"#utility.yul\":1538:1539   */\n  dup3\n    /* \"#utility.yul\":1520:1540   */\n  tag_18\n  jump\t// in\ntag_40:\n    /* \"#utility.yul\":1515:1540   */\n  swap2\n  pop\n    /* \"#utility.yul\":1554:1574   */\n  tag_41\n    /* \"#utility.yul\":1572:1573   */\n  dup4\n    /* \"#utility.yul\":1554:1574   */\n  tag_18\n  jump\t// in\ntag_41:\n    /* \"#utility.yul\":1549:1574   */\n  swap3\n  pop\n    /* \"#utility.yul\":1593:1594   */\n  dup3\n    /* \"#utility.yul\":1583:1618   */\n  tag_42\n  jumpi\n    /* \"#utility.yul\":1598:1616   */\n  tag_43\n  tag_19\n  jump\t// in\ntag_43:\n    /* \"#utility.yul\":1583:1618   */\ntag_42:\n    /* \"#utility.yul\":1639:1640   */\n  dup3\n    /* \"#utility.yul\":1636:1637   */\n  dup3\n    /* \"#utility.yul\":1632:1641   */\n  mod\n    /* \"#utility.yul\":1627:1641   */\n  swap1\n  pop\n    /* \"#utility.yul\":1471:1647   */\n  swap3\n  swap2\n  pop\n  pop\n  jump\t// out\n    /* \"#utility.yul\":1653:1833   */\ntag_20:\n    /* \"#utility.yul\":1701:1778   */\n  0x4e487b7100000000000000000000000000000000000000000000000000000000\n    /* \"#utility.yul\":1698:1699   */\n  0x00\n    /* \"#utility.yul\":1691:1779   */\n  mstore\n    /* \"#utility.yul\":1798:1802   */\n  0x11\n    /* \"#utility.yul\":1795:1796   */\n  0x04\n    /* \"#utility.yul\":1788:1803   */\n  mstore\n    /* \"#utility.yul\":1822:1826   */\n  0x24\n    /* \"#utility.yul\":1819:1820   */\n  0x00\n    /* \"#utility.yul\":1812:1827   */\n  revert\n    /* \"#utility.yul\":1839:2033   */\ntag_9:\n    /* \"#utility.yul\":1879:1883   */\n  0x00\n    /* \"#utility.yul\":1899:1919   */\n  tag_46\n    /* \"#utility.yul\":1917:1918   */\n  dup3\n    /* \"#utility.yul\":1899:1919   */\n  tag_18\n  jump\t// in\ntag_46:\n    /* \"#utility.yul\":1894:1919   */\n  swap2\n  pop\n    /* \"#utility.yul\":1933:1953   */\n  tag_47\n    /* \"#utility.yul\":1951:1952   */\n  dup4\n    /* \"#utility.yul\":1933:1953   */\n  tag_18\n  jump\t// in\ntag_47:\n    /* \"#utility.yul\":1928:1953   */\n  swap3\n  pop\n    /* \"#utility.yul\":1977:1978   */\n  dup3\n    /* \"#utility.yul\":1974:1975   */\n  dup3\n    /* \"#utility.yul\":1970:1979   */\n  sub\n    /* \"#utility.yul\":1962:1979   */\n  swap1\n  pop\n    /* \"#utility.yul\":2001:2002   */\n  dup2\n    /* \"#utility.yul\":1995:1999   */\n  dup2\n    /* \"#utility.yul\":1992:2003   */\n  gt\n    /* \"#utility.yul\":1989:2026   */\n  iszero\n  tag_48\n  jumpi\n    /* \"#utility.yul\":2006:2024   */\n  tag_49\n  tag_20\n  jump\t// in\ntag_49:\n    /* \"#utility.yul\":1989:2026   */\ntag_48:\n    /* \"#utility.yul\":1839:2033   */\n  swap3\n  swap2\n  pop\n  pop\n  jump\t// out\n    /* \"contracts/build_bounty/main_build/reward_elig.sol\":510:6822  contract RewardElig {... */\ntag_10:\n  mload(0x80)\n  codecopy(0x00, dataOffset(sub_0), dataSize(sub_0))\n  0x00\n  assignImmutable(\"0x2e9b7c94e032d8b3b8b30bd825717a5ac74958b53e7c37a892a4fd7dc56e4975\")\n  return(0x00, dataSize(sub_0))\nstop\n\nsub_0: assembly {\n        /* \"contracts/build_bounty/main_build/reward_elig.sol\":510:6822  contract RewardElig {... */\n      mstore(0x40, 0x80)\n      callvalue\n      dup1\n      iszero\n      tag_1\n      jumpi\n      0x00\n      dup1\n      revert\n    tag_1:\n      pop\n      jumpi(tag_2, lt(calldatasize, 0x04))\n      shr(0xe0, calldataload(0x00))\n      dup1\n      0x7a6d918e\n      gt\n      tag_19\n      jumpi\n      dup1\n      0xb70cbe35\n      gt\n      tag_20\n      jumpi\n      dup1\n      0xb70cbe35\n      eq\n      tag_15\n      jumpi\n      dup1\n      0xb7f7e6f0\n      eq\n      tag_16\n      jumpi\n      dup1\n      0xec563617\n      eq\n      tag_17\n      jumpi\n      dup1\n      0xf615a3f7\n      eq\n      tag_18\n      jumpi\n      jump(tag_2)\n    tag_20:\n      dup1\n      0x7a6d918e\n      eq\n      tag_11\n      jumpi\n      dup1\n      0x7eca453d\n      eq\n      tag_12\n      jumpi\n      dup1\n      0x927cc064\n      eq\n      tag_13\n      jumpi\n      dup1\n      0xa6f03648\n      eq\n      tag_14\n      jumpi\n      jump(tag_2)\n    tag_19:\n      dup1\n      0x36db4f53\n      gt\n      tag_21\n      jumpi\n      dup1\n      0x36db4f53\n      eq\n      tag_7\n      jumpi\n      dup1\n      0x397de728\n      eq\n      tag_8\n      jumpi\n      dup1\n      0x5e0ca3b9\n      eq\n      tag_9\n      jumpi\n      dup1\n      0x79372f9a\n      eq\n      tag_10\n      jumpi\n      jump(tag_2)\n    tag_21:\n      dup1\n      0x139722f1\n      eq\n      tag_3\n      jumpi\n      dup1\n      0x1c9bbe1d\n      eq\n      tag_4\n      jumpi\n      dup1\n      0x26dfe41f\n      eq\n      tag_5\n      jumpi\n      dup1\n      0x360cffd0\n      eq\n      tag_6\n      jumpi\n    tag_2:\n      0x00\n      dup1\n      revert\n        /* \"contracts/build_bounty/main_build/reward_elig.sol\":4544:4639  function TotalBuildClaimed() external view returns(uint){... */\n    tag_3:\n      tag_22\n      tag_23\n      jump\t// in\n    tag_22:\n      mload(0x40)\n      tag_24\n      swap2\n      swap1\n      tag_25\n      jump\t// in\n    tag_24:\n      mload(0x40)\n      dup1\n      swap2\n      sub\n      swap1\n      return\n        /* \"contracts/build_bounty/main_build/reward_elig.sol\":908:939  uint256 public CurrentWeekStart */\n    tag_4:\n      tag_26\n      tag_27\n      jump\t// in\n    tag_26:\n      mload(0x40)\n      tag_28\n      swap2\n      swap1\n      tag_25\n      jump\t// in\n    tag_28:\n      mload(0x40)\n      dup1\n      swap2\n      sub\n      swap1\n      return\n        /* \"contracts/build_bounty/main_build/reward_elig.sol\":4965:5081  function WeekTotalUserAddress() external view returns(address[] memory){... */\n    tag_5:\n      tag_29\n      tag_30\n      jump\t// in\n    tag_29:\n      mload(0x40)\n      tag_31\n      swap2\n      swap1\n      tag_32\n      jump\t// in\n    tag_31:\n      mload(0x40)\n      dup1\n      swap2\n      sub\n      swap1\n      return\n        /* \"contracts/build_bounty/main_build/reward_elig.sol\":4415:4513  function TotalClaimedWeek() external view returns(uint){... */\n    tag_6:\n      tag_33\n      tag_34\n      jump\t// in\n    tag_33:\n      mload(0x40)\n      tag_35\n      swap2\n      swap1\n      tag_25\n      jump\t// in\n    tag_35:\n      mload(0x40)\n      dup1\n      swap2\n      sub\n      swap1\n      return\n        /* \"contracts/build_bounty/main_build/reward_elig.sol\":4824:4928  function WeekTotalUser() external view returns(uint){... */\n    tag_7:\n      tag_36\n      tag_37\n      jump\t// in\n    tag_36:\n      mload(0x40)\n      tag_38\n      swap2\n      swap1\n      tag_25\n      jump\t// in\n    tag_38:\n      mload(0x40)\n      dup1\n      swap2\n      sub\n      swap1\n      return\n        /* \"contracts/build_bounty/main_build/reward_elig.sol\":6252:6335  function CurrentAdmin() external view returns(address){... */\n    tag_8:\n      tag_39\n      tag_40\n      jump\t// in\n    tag_39:\n      mload(0x40)\n      tag_41\n      swap2\n      swap1\n      tag_42\n      jump\t// in\n    tag_41:\n      mload(0x40)\n      dup1\n      swap2\n      sub\n      swap1\n      return\n        /* \"contracts/build_bounty/main_build/reward_elig.sol\":2107:2648  function RemoveEligibleUser(address _user) external onlyAdmin {... */\n    tag_9:\n      tag_43\n      0x04\n      dup1\n      calldatasize\n      sub\n      dup2\n      add\n      swap1\n      tag_44\n      swap2\n      swap1\n      tag_45\n      jump\t// in\n    tag_44:\n      tag_46\n      jump\t// in\n    tag_43:\n      stop\n        /* \"contracts/build_bounty/main_build/reward_elig.sol\":2654:4377  function ClaimReward() external returns (uint256) {... */\n    tag_10:\n      tag_47\n      tag_48\n      jump\t// in\n    tag_47:\n      mload(0x40)\n      tag_49\n      swap2\n      swap1\n      tag_25\n      jump\t// in\n    tag_49:\n      mload(0x40)\n      dup1\n      swap2\n      sub\n      swap1\n      return\n        /* \"contracts/build_bounty/main_build/reward_elig.sol\":1518:1757  function AddEligibleUser(address _user) external onlyAdmin {... */\n    tag_11:\n      tag_50\n      0x04\n      dup1\n      calldatasize\n      sub\n      dup2\n      add\n      swap1\n      tag_51\n      swap2\n      swap1\n      tag_45\n      jump\t// in\n    tag_51:\n      tag_52\n      jump\t// in\n    tag_50:\n      stop\n        /* \"contracts/build_bounty/main_build/reward_elig.sol\":6341:6436  function lis() external view returns (address[] memory) {... */\n    tag_12:\n      tag_53\n      tag_54\n      jump\t// in\n    tag_53:\n      mload(0x40)\n      tag_55\n      swap2\n      swap1\n      tag_32\n      jump\t// in\n    tag_55:\n      mload(0x40)\n      dup1\n      swap2\n      sub\n      swap1\n      return\n        /* \"contracts/build_bounty/main_build/reward_elig.sol\":6154:6246  function ChangeAdmin(address _newAdmin) external onlyAdmin{... */\n    tag_13:\n      tag_56\n      0x04\n      dup1\n      calldatasize\n      sub\n      dup2\n      add\n      swap1\n      tag_57\n      swap2\n      swap1\n      tag_45\n      jump\t// in\n    tag_57:\n      tag_58\n      jump\t// in\n    tag_56:\n      stop\n        /* \"contracts/build_bounty/main_build/reward_elig.sol\":5137:5550  function DepositBuild(uint256 _amount) external {... */\n    tag_14:\n      tag_59\n      0x04\n      dup1\n      calldatasize\n      sub\n      dup2\n      add\n      swap1\n      tag_60\n      swap2\n      swap1\n      tag_61\n      jump\t// in\n    tag_60:\n      tag_62\n      jump\t// in\n    tag_59:\n      stop\n        /* \"contracts/build_bounty/main_build/reward_elig.sol\":6590:6698  function returndf(address _user) external view returns (uint256) {... */\n    tag_15:\n      tag_63\n      0x04\n      dup1\n      calldatasize\n      sub\n      dup2\n      add\n      swap1\n      tag_64\n      swap2\n      swap1\n      tag_45\n      jump\t// in\n    tag_64:\n      tag_65\n      jump\t// in\n    tag_63:\n      mload(0x40)\n      tag_66\n      swap2\n      swap1\n      tag_25\n      jump\t// in\n    tag_66:\n      mload(0x40)\n      dup1\n      swap2\n      sub\n      swap1\n      return\n        /* \"contracts/build_bounty/main_build/reward_elig.sol\":1763:2101  function AddMultipleEliglibleUser(address[] memory _users)... */\n    tag_16:\n      tag_67\n      0x04\n      dup1\n      calldatasize\n      sub\n      dup2\n      add\n      swap1\n      tag_68\n      swap2\n      swap1\n      tag_69\n      jump\t// in\n    tag_68:\n      tag_70\n      jump\t// in\n    tag_67:\n      stop\n        /* \"contracts/build_bounty/main_build/reward_elig.sol\":5580:5706  function CallSorted() external returns(DonateBuildRecord[] memory){... */\n    tag_17:\n      tag_71\n      tag_72\n      jump\t// in\n    tag_71:\n      mload(0x40)\n      tag_73\n      swap2\n      swap1\n      tag_74\n      jump\t// in\n    tag_73:\n      mload(0x40)\n      dup1\n      swap2\n      sub\n      swap1\n      return\n        /* \"contracts/build_bounty/main_build/reward_elig.sol\":6442:6584  function ReadOnlyBalance4Dev() external view returns (uint256) {... */\n    tag_18:\n      tag_75\n      tag_76\n      jump\t// in\n    tag_75:\n      mload(0x40)\n      tag_77\n      swap2\n      swap1\n      tag_25\n      jump\t// in\n    tag_77:\n      mload(0x40)\n      dup1\n      swap2\n      sub\n      swap1\n      return\n        /* \"contracts/build_bounty/main_build/reward_elig.sol\":4544:4639  function TotalBuildClaimed() external view returns(uint){... */\n    tag_23:\n        /* \"contracts/build_bounty/main_build/reward_elig.sol\":4595:4599  uint */\n      0x00\n        /* \"contracts/build_bounty/main_build/reward_elig.sol\":4617:4632  TotalBuildClaim */\n      sload(0x06)\n        /* \"contracts/build_bounty/main_build/reward_elig.sol\":4610:4632  return TotalBuildClaim */\n      swap1\n      pop\n        /* \"contracts/build_bounty/main_build/reward_elig.sol\":4544:4639  function TotalBuildClaimed() external view returns(uint){... */\n      swap1\n      jump\t// out\n        /* \"contracts/build_bounty/main_build/reward_elig.sol\":908:939  uint256 public CurrentWeekStart */\n    tag_27:\n      sload(0x04)\n      dup2\n      jump\t// out\n        /* \"contracts/build_bounty/main_build/reward_elig.sol\":4965:5081  function WeekTotalUserAddress() external view returns(address[] memory){... */\n    tag_30:\n        /* \"contracts/build_bounty/main_build/reward_elig.sol\":5019:5035  address[] memory */\n      0x60\n        /* \"contracts/build_bounty/main_build/reward_elig.sol\":5053:5074  EligibleUserClaimWeek */\n      0x01\n        /* \"contracts/build_bounty/main_build/reward_elig.sol\":5046:5074  return EligibleUserClaimWeek */\n      dup1\n      sload\n      dup1\n      0x20\n      mul\n      0x20\n      add\n      mload(0x40)\n      swap1\n      dup2\n      add\n      0x40\n      mstore\n      dup1\n      swap3\n      swap2\n      swap1\n      dup2\n      dup2\n      mstore\n      0x20\n      add\n      dup3\n      dup1\n      sload\n      dup1\n      iszero\n      tag_80\n      jumpi\n      0x20\n      mul\n      dup3\n      add\n      swap2\n      swap1\n      0x00\n      mstore\n      keccak256(0x00, 0x20)\n      swap1\n    tag_81:\n      dup2\n      0x00\n      swap1\n      sload\n      swap1\n      0x0100\n      exp\n      swap1\n      div\n      0xffffffffffffffffffffffffffffffffffffffff\n      and\n      0xffffffffffffffffffffffffffffffffffffffff\n      and\n      dup2\n      mstore\n      0x20\n      add\n      swap1\n      0x01\n      add\n      swap1\n      dup1\n      dup4\n      gt\n      tag_81\n      jumpi\n    tag_80:\n      pop\n      pop\n      pop\n      pop\n      pop\n      swap1\n      pop\n        /* \"contracts/build_bounty/main_build/reward_elig.sol\":4965:5081  function WeekTotalUserAddress() external view returns(address[] memory){... */\n      swap1\n      jump\t// out\n        /* \"contracts/build_bounty/main_build/reward_elig.sol\":4415:4513  function TotalClaimedWeek() external view returns(uint){... */\n    tag_34:\n        /* \"contracts/build_bounty/main_build/reward_elig.sol\":4465:4469  uint */\n      0x00\n        /* \"contracts/build_bounty/main_build/reward_elig.sol\":4487:4506  WeekTotalBuildClaim */\n      sload(0x05)\n        /* \"contracts/build_bounty/main_build/reward_elig.sol\":4480:4506  return WeekTotalBuildClaim */\n      swap1\n      pop\n        /* \"contracts/build_bounty/main_build/reward_elig.sol\":4415:4513  function TotalClaimedWeek() external view returns(uint){... */\n      swap1\n      jump\t// out\n        /* \"contracts/build_bounty/main_build/reward_elig.sol\":4824:4928  function WeekTotalUser() external view returns(uint){... */\n    tag_37:\n        /* \"contracts/build_bounty/main_build/reward_elig.sol\":4871:4875  uint */\n      0x00\n        /* \"contracts/build_bounty/main_build/reward_elig.sol\":4893:4914  EligibleUserClaimWeek */\n      0x01\n        /* \"contracts/build_bounty/main_build/reward_elig.sol\":4893:4921  EligibleUserClaimWeek.length */\n      dup1\n      sload\n      swap1\n      pop\n        /* \"contracts/build_bounty/main_build/reward_elig.sol\":4886:4921  return EligibleUserClaimWeek.length */\n      swap1\n      pop\n        /* \"contracts/build_bounty/main_build/reward_elig.sol\":4824:4928  function WeekTotalUser() external view returns(uint){... */\n      swap1\n      jump\t// out\n        /* \"contracts/build_bounty/main_build/reward_elig.sol\":6252:6335  function CurrentAdmin() external view returns(address){... */\n    tag_40:\n        /* \"contracts/build_bounty/main_build/reward_elig.sol\":6298:6305  address */\n      0x00\n        /* \"contracts/build_bounty/main_build/reward_elig.sol\":6323:6328  admin */\n      0x03\n      0x00\n      swap1\n      sload\n      swap1\n      0x0100\n      exp\n      swap1\n      div\n      0xffffffffffffffffffffffffffffffffffffffff\n      and\n        /* \"contracts/build_bounty/main_build/reward_elig.sol\":6316:6328  return admin */\n      swap1\n      pop\n        /* \"contracts/build_bounty/main_build/reward_elig.sol\":6252:6335  function CurrentAdmin() external view returns(address){... */\n      swap1\n      jump\t// out\n        /* \"contracts/build_bounty/main_build/reward_elig.sol\":2107:2648  function RemoveEligibleUser(address _user) external onlyAdmin {... */\n    tag_46:\n        /* \"contracts/build_bounty/main_build/reward_elig.sol\":6752:6762  msg.sender */\n      caller\n        /* \"contracts/build_bounty/main_build/reward_elig.sol\":6743:6762  admin == msg.sender */\n      0xffffffffffffffffffffffffffffffffffffffff\n      and\n        /* \"contracts/build_bounty/main_build/reward_elig.sol\":6743:6748  admin */\n      0x03\n      0x00\n      swap1\n      sload\n      swap1\n      0x0100\n      exp\n      swap1\n      div\n      0xffffffffffffffffffffffffffffffffffffffff\n      and\n        /* \"contracts/build_bounty/main_build/reward_elig.sol\":6743:6762  admin == msg.sender */\n      0xffffffffffffffffffffffffffffffffffffffff\n      and\n      eq\n        /* \"contracts/build_bounty/main_build/reward_elig.sol\":6735:6802  require(admin == msg.sender, \"only admin can invoke this function\") */\n      tag_86\n      jumpi\n      mload(0x40)\n      0x08c379a000000000000000000000000000000000000000000000000000000000\n      dup2\n      mstore\n      0x04\n      add\n      tag_87\n      swap1\n      tag_88\n      jump\t// in\n    tag_87:\n      mload(0x40)\n      dup1\n      swap2\n      sub\n      swap1\n      revert\n    tag_86:\n        /* \"contracts/build_bounty/main_build/reward_elig.sol\":2179:2191  uint256 _len */\n      0x00\n        /* \"contracts/build_bounty/main_build/reward_elig.sol\":2194:2209  EligibleUserArr */\n      0x02\n        /* \"contracts/build_bounty/main_build/reward_elig.sol\":2194:2216  EligibleUserArr.length */\n      dup1\n      sload\n      swap1\n      pop\n        /* \"contracts/build_bounty/main_build/reward_elig.sol\":2179:2216  uint256 _len = EligibleUserArr.length */\n      swap1\n      pop\n        /* \"contracts/build_bounty/main_build/reward_elig.sol\":2234:2246  EligibleUser */\n      0x00\n        /* \"contracts/build_bounty/main_build/reward_elig.sol\":2234:2253  EligibleUser[_user] */\n      dup1\n        /* \"contracts/build_bounty/main_build/reward_elig.sol\":2247:2252  _user */\n      dup4\n        /* \"contracts/build_bounty/main_build/reward_elig.sol\":2234:2253  EligibleUser[_user] */\n      0xffffffffffffffffffffffffffffffffffffffff\n      and\n      0xffffffffffffffffffffffffffffffffffffffff\n      and\n      dup2\n      mstore\n      0x20\n      add\n      swap1\n      dup2\n      mstore\n      0x20\n      add\n      0x00\n      keccak256\n        /* \"contracts/build_bounty/main_build/reward_elig.sol\":2227:2253  delete EligibleUser[_user] */\n      0x00\n      swap1\n      sstore\n        /* \"contracts/build_bounty/main_build/reward_elig.sol\":2269:2277  uint16 i */\n      0x00\n        /* \"contracts/build_bounty/main_build/reward_elig.sol\":2264:2642  for (uint16 i; i < _len; i++) {... */\n    tag_90:\n        /* \"contracts/build_bounty/main_build/reward_elig.sol\":2283:2287  _len */\n      dup2\n        /* \"contracts/build_bounty/main_build/reward_elig.sol\":2279:2280  i */\n      dup2\n        /* \"contracts/build_bounty/main_build/reward_elig.sol\":2279:2287  i < _len */\n      0xffff\n      and\n      lt\n        /* \"contracts/build_bounty/main_build/reward_elig.sol\":2264:2642  for (uint16 i; i < _len; i++) {... */\n      iszero\n      tag_91\n      jumpi\n        /* \"contracts/build_bounty/main_build/reward_elig.sol\":2354:2359  _user */\n      dup3\n        /* \"contracts/build_bounty/main_build/reward_elig.sol\":2332:2359  EligibleUserArr[i] == _user */\n      0xffffffffffffffffffffffffffffffffffffffff\n      and\n        /* \"contracts/build_bounty/main_build/reward_elig.sol\":2332:2347  EligibleUserArr */\n      0x02\n        /* \"contracts/build_bounty/main_build/reward_elig.sol\":2348:2349  i */\n      dup3\n        /* \"contracts/build_bounty/main_build/reward_elig.sol\":2332:2350  EligibleUserArr[i] */\n      0xffff\n      and\n      dup2\n      sload\n      dup2\n      lt\n      tag_93\n      jumpi\n      tag_94\n      tag_95\n      jump\t// in\n    tag_94:\n    tag_93:\n      swap1\n      0x00\n      mstore\n      keccak256(0x00, 0x20)\n      add\n      0x00\n      swap1\n      sload\n      swap1\n      0x0100\n      exp\n      swap1\n      div\n      0xffffffffffffffffffffffffffffffffffffffff\n      and\n        /* \"contracts/build_bounty/main_build/reward_elig.sol\":2332:2359  EligibleUserArr[i] == _user */\n      0xffffffffffffffffffffffffffffffffffffffff\n      and\n      sub\n        /* \"contracts/build_bounty/main_build/reward_elig.sol\":2328:2632  if (EligibleUserArr[i] == _user) {... */\n      tag_97\n      jumpi\n        /* \"contracts/build_bounty/main_build/reward_elig.sol\":2408:2416  uint16 j */\n      0x00\n        /* \"contracts/build_bounty/main_build/reward_elig.sol\":2419:2420  i */\n      dup2\n        /* \"contracts/build_bounty/main_build/reward_elig.sol\":2408:2420  uint16 j = i */\n      swap1\n      pop\n        /* \"contracts/build_bounty/main_build/reward_elig.sol\":2403:2525  for (uint16 j = i; j < _len - 1; j++) {... */\n    tag_98:\n        /* \"contracts/build_bounty/main_build/reward_elig.sol\":2433:2434  1 */\n      0x01\n        /* \"contracts/build_bounty/main_build/reward_elig.sol\":2426:2430  _len */\n      dup4\n        /* \"contracts/build_bounty/main_build/reward_elig.sol\":2426:2434  _len - 1 */\n      tag_101\n      swap2\n      swap1\n      tag_102\n      jump\t// in\n    tag_101:\n        /* \"contracts/build_bounty/main_build/reward_elig.sol\":2422:2423  j */\n      dup2\n        /* \"contracts/build_bounty/main_build/reward_elig.sol\":2422:2434  j < _len - 1 */\n      0xffff\n      and\n      lt\n        /* \"contracts/build_bounty/main_build/reward_elig.sol\":2403:2525  for (uint16 j = i; j < _len - 1; j++) {... */\n      iszero\n      tag_99\n      jumpi\n        /* \"contracts/build_bounty/main_build/reward_elig.sol\":2484:2499  EligibleUserArr */\n      0x02\n        /* \"contracts/build_bounty/main_build/reward_elig.sol\":2504:2505  1 */\n      0x01\n        /* \"contracts/build_bounty/main_build/reward_elig.sol\":2500:2501  j */\n      dup3\n        /* \"contracts/build_bounty/main_build/reward_elig.sol\":2500:2505  j + 1 */\n      tag_103\n      swap2\n      swap1\n      tag_104\n      jump\t// in\n    tag_103:\n        /* \"contracts/build_bounty/main_build/reward_elig.sol\":2484:2506  EligibleUserArr[j + 1] */\n      0xffff\n      and\n      dup2\n      sload\n      dup2\n      lt\n      tag_105\n      jumpi\n      tag_106\n      tag_95\n      jump\t// in\n    tag_106:\n    tag_105:\n      swap1\n      0x00\n      mstore\n      keccak256(0x00, 0x20)\n      add\n      0x00\n      swap1\n      sload\n      swap1\n      0x0100\n      exp\n      swap1\n      div\n      0xffffffffffffffffffffffffffffffffffffffff\n      and\n        /* \"contracts/build_bounty/main_build/reward_elig.sol\":2463:2478  EligibleUserArr */\n      0x02\n        /* \"contracts/build_bounty/main_build/reward_elig.sol\":2479:2480  j */\n      dup3\n        /* \"contracts/build_bounty/main_build/reward_elig.sol\":2463:2481  EligibleUserArr[j] */\n      0xffff\n      and\n      dup2\n      sload\n      dup2\n      lt\n      tag_108\n      jumpi\n      tag_109\n      tag_95\n      jump\t// in\n    tag_109:\n    tag_108:\n      swap1\n      0x00\n      mstore\n      keccak256(0x00, 0x20)\n      add\n      0x00\n        /* \"contracts/build_bounty/main_build/reward_elig.sol\":2463:2506  EligibleUserArr[j] = EligibleUserArr[j + 1] */\n      0x0100\n      exp\n      dup2\n      sload\n      dup2\n      0xffffffffffffffffffffffffffffffffffffffff\n      mul\n      not\n      and\n      swap1\n      dup4\n      0xffffffffffffffffffffffffffffffffffffffff\n      and\n      mul\n      or\n      swap1\n      sstore\n      pop\n        /* \"contracts/build_bounty/main_build/reward_elig.sol\":2436:2439  j++ */\n      dup1\n      dup1\n      tag_111\n      swap1\n      tag_112\n      jump\t// in\n    tag_111:\n      swap2\n      pop\n      pop\n        /* \"contracts/build_bounty/main_build/reward_elig.sol\":2403:2525  for (uint16 j = i; j < _len - 1; j++) {... */\n      jump(tag_98)\n    tag_99:\n      pop\n        /* \"contracts/build_bounty/main_build/reward_elig.sol\":2573:2588  EligibleUserArr */\n      0x02\n        /* \"contracts/build_bounty/main_build/reward_elig.sol\":2573:2594  EligibleUserArr.pop() */\n      dup1\n      sload\n      dup1\n      tag_113\n      jumpi\n      tag_114\n      tag_115\n      jump\t// in\n    tag_114:\n    tag_113:\n      0x01\n      swap1\n      sub\n      dup2\n      dup2\n      swap1\n      0x00\n      mstore\n      keccak256(0x00, 0x20)\n      add\n      exp(0x0100, 0x00)\n      dup2\n      sload\n      swap1\n      0xffffffffffffffffffffffffffffffffffffffff\n      mul\n      not\n      and\n      swap1\n      sstore\n      swap1\n      sstore\n        /* \"contracts/build_bounty/main_build/reward_elig.sol\":2612:2617  break */\n      jump(tag_91)\n        /* \"contracts/build_bounty/main_build/reward_elig.sol\":2328:2632  if (EligibleUserArr[i] == _user) {... */\n    tag_97:\n        /* \"contracts/build_bounty/main_build/reward_elig.sol\":2289:2292  i++ */\n      dup1\n      dup1\n      tag_117\n      swap1\n      tag_112\n      jump\t// in\n    tag_117:\n      swap2\n      pop\n      pop\n        /* \"contracts/build_bounty/main_build/reward_elig.sol\":2264:2642  for (uint16 i; i < _len; i++) {... */\n      jump(tag_90)\n    tag_91:\n      pop\n        /* \"contracts/build_bounty/main_build/reward_elig.sol\":2169:2648  {... */\n      pop\n        /* \"contracts/build_bounty/main_build/reward_elig.sol\":2107:2648  function RemoveEligibleUser(address _user) external onlyAdmin {... */\n      pop\n      jump\t// out\n        /* \"contracts/build_bounty/main_build/reward_elig.sol\":2654:4377  function ClaimReward() external returns (uint256) {... */\n    tag_48:\n        /* \"contracts/build_bounty/main_build/reward_elig.sol\":2695:2702  uint256 */\n      0x00\n        /* \"contracts/build_bounty/main_build/reward_elig.sol\":679:688  5 minutes */\n      0x012c\n        /* \"contracts/build_bounty/main_build/reward_elig.sol\":2738:2754  CurrentWeekStart */\n      sload(0x04)\n        /* \"contracts/build_bounty/main_build/reward_elig.sol\":2738:2772  CurrentWeekStart + DURATION_PERIOD */\n      tag_119\n      swap2\n      swap1\n      tag_120\n      jump\t// in\n    tag_119:\n        /* \"contracts/build_bounty/main_build/reward_elig.sol\":2719:2734  block.timestamp */\n      timestamp\n        /* \"contracts/build_bounty/main_build/reward_elig.sol\":2719:2772  block.timestamp >= CurrentWeekStart + DURATION_PERIOD */\n      lt\n        /* \"contracts/build_bounty/main_build/reward_elig.sol\":2715:2908  if (block.timestamp >= CurrentWeekStart + DURATION_PERIOD ) {... */\n      tag_121\n      jumpi\n        /* \"contracts/build_bounty/main_build/reward_elig.sol\":2789:2810  ResetWeekTotalClaim() */\n      tag_122\n        /* \"contracts/build_bounty/main_build/reward_elig.sol\":2789:2808  ResetWeekTotalClaim */\n      tag_123\n        /* \"contracts/build_bounty/main_build/reward_elig.sol\":2789:2810  ResetWeekTotalClaim() */\n      jump\t// in\n    tag_122:\n        /* \"contracts/build_bounty/main_build/reward_elig.sol\":679:688  5 minutes */\n      0x012c\n        /* \"contracts/build_bounty/main_build/reward_elig.sol\":2862:2877  block.timestamp */\n      timestamp\n        /* \"contracts/build_bounty/main_build/reward_elig.sol\":2862:2895  block.timestamp % DURATION_PERIOD */\n      tag_124\n      swap2\n      swap1\n      tag_125\n      jump\t// in\n    tag_124:\n        /* \"contracts/build_bounty/main_build/reward_elig.sol\":2843:2858  block.timestamp */\n      timestamp\n        /* \"contracts/build_bounty/main_build/reward_elig.sol\":2843:2897  block.timestamp - (block.timestamp % DURATION_PERIOD ) */\n      tag_126\n      swap2\n      swap1\n      tag_102\n      jump\t// in\n    tag_126:\n        /* \"contracts/build_bounty/main_build/reward_elig.sol\":2824:2840  CurrentWeekStart */\n      0x04\n        /* \"contracts/build_bounty/main_build/reward_elig.sol\":2824:2897  CurrentWeekStart = block.timestamp - (block.timestamp % DURATION_PERIOD ) */\n      dup2\n      swap1\n      sstore\n      pop\n        /* \"contracts/build_bounty/main_build/reward_elig.sol\":2715:2908  if (block.timestamp >= CurrentWeekStart + DURATION_PERIOD ) {... */\n    tag_121:\n        /* \"contracts/build_bounty/main_build/reward_elig.sol\":2919:2936  uint256 _lastTime */\n      0x00\n        /* \"contracts/build_bounty/main_build/reward_elig.sol\":2946:2964  uint256 _totalUser */\n      dup1\n        /* \"contracts/build_bounty/main_build/reward_elig.sol\":2967:2982  EligibleUserArr */\n      0x02\n        /* \"contracts/build_bounty/main_build/reward_elig.sol\":2967:2989  EligibleUserArr.length */\n      dup1\n      sload\n      swap1\n      pop\n        /* \"contracts/build_bounty/main_build/reward_elig.sol\":2946:2989  uint256 _totalUser = EligibleUserArr.length */\n      swap1\n      pop\n        /* \"contracts/build_bounty/main_build/reward_elig.sol\":3031:3032  0 */\n      0x00\n        /* \"contracts/build_bounty/main_build/reward_elig.sol\":3003:3015  EligibleUser */\n      dup1\n        /* \"contracts/build_bounty/main_build/reward_elig.sol\":3003:3027  EligibleUser[msg.sender] */\n      0x00\n        /* \"contracts/build_bounty/main_build/reward_elig.sol\":3016:3026  msg.sender */\n      caller\n        /* \"contracts/build_bounty/main_build/reward_elig.sol\":3003:3027  EligibleUser[msg.sender] */\n      0xffffffffffffffffffffffffffffffffffffffff\n      and\n      0xffffffffffffffffffffffffffffffffffffffff\n      and\n      dup2\n      mstore\n      0x20\n      add\n      swap1\n      dup2\n      mstore\n      0x20\n      add\n      0x00\n      keccak256\n      sload\n        /* \"contracts/build_bounty/main_build/reward_elig.sol\":3003:3032  EligibleUser[msg.sender] == 0 */\n      sub\n        /* \"contracts/build_bounty/main_build/reward_elig.sol\":2999:3105  if (EligibleUser[msg.sender] == 0) {... */\n      tag_127\n      jumpi\n        /* \"contracts/build_bounty/main_build/reward_elig.sol\":3055:3094  IneligibleUser(\"Not an eligible user!\") */\n      mload(0x40)\n      0xb8fdf0b000000000000000000000000000000000000000000000000000000000\n      dup2\n      mstore\n      0x04\n      add\n      tag_128\n      swap1\n      tag_129\n      jump\t// in\n    tag_128:\n      mload(0x40)\n      dup1\n      swap2\n      sub\n      swap1\n      revert\n        /* \"contracts/build_bounty/main_build/reward_elig.sol\":2999:3105  if (EligibleUser[msg.sender] == 0) {... */\n    tag_127:\n        /* \"contracts/build_bounty/main_build/reward_elig.sol\":3147:3148  1 */\n      0x01\n        /* \"contracts/build_bounty/main_build/reward_elig.sol\":3119:3131  EligibleUser */\n      0x00\n        /* \"contracts/build_bounty/main_build/reward_elig.sol\":3119:3143  EligibleUser[msg.sender] */\n      dup1\n        /* \"contracts/build_bounty/main_build/reward_elig.sol\":3132:3142  msg.sender */\n      caller\n        /* \"contracts/build_bounty/main_build/reward_elig.sol\":3119:3143  EligibleUser[msg.sender] */\n      0xffffffffffffffffffffffffffffffffffffffff\n      and\n      0xffffffffffffffffffffffffffffffffffffffff\n      and\n      dup2\n      mstore\n      0x20\n      add\n      swap1\n      dup2\n      mstore\n      0x20\n      add\n      0x00\n      keccak256\n      sload\n        /* \"contracts/build_bounty/main_build/reward_elig.sol\":3119:3148  EligibleUser[msg.sender] == 1 */\n      sub\n        /* \"contracts/build_bounty/main_build/reward_elig.sol\":3115:3399  if (EligibleUser[msg.sender] == 1) {... */\n      tag_130\n      jumpi\n        /* \"contracts/build_bounty/main_build/reward_elig.sol\":3264:3265  1 */\n      0x01\n        /* \"contracts/build_bounty/main_build/reward_elig.sol\":679:688  5 minutes */\n      0x012c\n        /* \"contracts/build_bounty/main_build/reward_elig.sol\":3216:3228  EligibleUser */\n      0x00\n        /* \"contracts/build_bounty/main_build/reward_elig.sol\":3216:3240  EligibleUser[msg.sender] */\n      dup1\n        /* \"contracts/build_bounty/main_build/reward_elig.sol\":3229:3239  msg.sender */\n      caller\n        /* \"contracts/build_bounty/main_build/reward_elig.sol\":3216:3240  EligibleUser[msg.sender] */\n      0xffffffffffffffffffffffffffffffffffffffff\n      and\n      0xffffffffffffffffffffffffffffffffffffffff\n      and\n      dup2\n      mstore\n      0x20\n      add\n      swap1\n      dup2\n      mstore\n      0x20\n      add\n      0x00\n      keccak256\n      sload\n        /* \"contracts/build_bounty/main_build/reward_elig.sol\":3216:3259  EligibleUser[msg.sender] +  DURATION_PERIOD */\n      tag_131\n      swap2\n      swap1\n      tag_120\n      jump\t// in\n    tag_131:\n        /* \"contracts/build_bounty/main_build/reward_elig.sol\":3215:3265  (EligibleUser[msg.sender] +  DURATION_PERIOD ) - 1 */\n      tag_132\n      swap2\n      swap1\n      tag_102\n      jump\t// in\n    tag_132:\n        /* \"contracts/build_bounty/main_build/reward_elig.sol\":3203:3265  _lastTime = (EligibleUser[msg.sender] +  DURATION_PERIOD ) - 1 */\n      swap2\n      pop\n        /* \"contracts/build_bounty/main_build/reward_elig.sol\":3115:3399  if (EligibleUser[msg.sender] == 1) {... */\n      jump(tag_133)\n    tag_130:\n        /* \"contracts/build_bounty/main_build/reward_elig.sol\":3313:3314  1 */\n      0x01\n        /* \"contracts/build_bounty/main_build/reward_elig.sol\":3286:3298  EligibleUser */\n      0x00\n        /* \"contracts/build_bounty/main_build/reward_elig.sol\":3286:3310  EligibleUser[msg.sender] */\n      dup1\n        /* \"contracts/build_bounty/main_build/reward_elig.sol\":3299:3309  msg.sender */\n      caller\n        /* \"contracts/build_bounty/main_build/reward_elig.sol\":3286:3310  EligibleUser[msg.sender] */\n      0xffffffffffffffffffffffffffffffffffffffff\n      and\n      0xffffffffffffffffffffffffffffffffffffffff\n      and\n      dup2\n      mstore\n      0x20\n      add\n      swap1\n      dup2\n      mstore\n      0x20\n      add\n      0x00\n      keccak256\n      sload\n        /* \"contracts/build_bounty/main_build/reward_elig.sol\":3286:3314  EligibleUser[msg.sender] > 1 */\n      gt\n        /* \"contracts/build_bounty/main_build/reward_elig.sol\":3282:3399  if (EligibleUser[msg.sender] > 1) {... */\n      iszero\n      tag_134\n      jumpi\n        /* \"contracts/build_bounty/main_build/reward_elig.sol\":679:688  5 minutes */\n      0x012c\n        /* \"contracts/build_bounty/main_build/reward_elig.sol\":3343:3355  EligibleUser */\n      0x00\n        /* \"contracts/build_bounty/main_build/reward_elig.sol\":3343:3367  EligibleUser[msg.sender] */\n      dup1\n        /* \"contracts/build_bounty/main_build/reward_elig.sol\":3356:3366  msg.sender */\n      caller\n        /* \"contracts/build_bounty/main_build/reward_elig.sol\":3343:3367  EligibleUser[msg.sender] */\n      0xffffffffffffffffffffffffffffffffffffffff\n      and\n      0xffffffffffffffffffffffffffffffffffffffff\n      and\n      dup2\n      mstore\n      0x20\n      add\n      swap1\n      dup2\n      mstore\n      0x20\n      add\n      0x00\n      keccak256\n      sload\n        /* \"contracts/build_bounty/main_build/reward_elig.sol\":3343:3386  EligibleUser[msg.sender] +  DURATION_PERIOD */\n      tag_135\n      swap2\n      swap1\n      tag_120\n      jump\t// in\n    tag_135:\n        /* \"contracts/build_bounty/main_build/reward_elig.sol\":3330:3388  _lastTime = (EligibleUser[msg.sender] +  DURATION_PERIOD ) */\n      swap2\n      pop\n        /* \"contracts/build_bounty/main_build/reward_elig.sol\":3282:3399  if (EligibleUser[msg.sender] > 1) {... */\n    tag_134:\n        /* \"contracts/build_bounty/main_build/reward_elig.sol\":3115:3399  if (EligibleUser[msg.sender] == 1) {... */\n    tag_133:\n        /* \"contracts/build_bounty/main_build/reward_elig.sol\":3436:3445  _lastTime */\n      dup2\n        /* \"contracts/build_bounty/main_build/reward_elig.sol\":3417:3432  block.timestamp */\n      timestamp\n        /* \"contracts/build_bounty/main_build/reward_elig.sol\":3417:3445  block.timestamp >= _lastTime */\n      lt\n      iszero\n        /* \"contracts/build_bounty/main_build/reward_elig.sol\":3409:3463  require(block.timestamp >= _lastTime, \"Once per week\") */\n      tag_136\n      jumpi\n      mload(0x40)\n      0x08c379a000000000000000000000000000000000000000000000000000000000\n      dup2\n      mstore\n      0x04\n      add\n      tag_137\n      swap1\n      tag_138\n      jump\t// in\n    tag_137:\n      mload(0x40)\n      dup1\n      swap2\n      sub\n      swap1\n      revert\n    tag_136:\n        /* \"contracts/build_bounty/main_build/reward_elig.sol\":3540:3541  0 */\n      0x00\n        /* \"contracts/build_bounty/main_build/reward_elig.sol\":3501:3511  MOCK_BUILD */\n      immutable(\"0x2e9b7c94e032d8b3b8b30bd825717a5ac74958b53e7c37a892a4fd7dc56e4975\")\n        /* \"contracts/build_bounty/main_build/reward_elig.sol\":3494:3522  IERC20(MOCK_BUILD).balanceOf */\n      0xffffffffffffffffffffffffffffffffffffffff\n      and\n      0x70a08231\n        /* \"contracts/build_bounty/main_build/reward_elig.sol\":3531:3535  this */\n      address\n        /* \"contracts/build_bounty/main_build/reward_elig.sol\":3494:3537  IERC20(MOCK_BUILD).balanceOf(address(this)) */\n      mload(0x40)\n      dup3\n      0xffffffff\n      and\n      0xe0\n      shl\n      dup2\n      mstore\n      0x04\n      add\n      tag_139\n      swap2\n      swap1\n      tag_42\n      jump\t// in\n    tag_139:\n      0x20\n      mload(0x40)\n      dup1\n      dup4\n      sub\n      dup2\n      dup7\n      gas\n      staticcall\n      iszero\n      dup1\n      iszero\n      tag_141\n      jumpi\n      returndatasize\n      0x00\n      dup1\n      returndatacopy\n      revert(0x00, returndatasize)\n    tag_141:\n      pop\n      pop\n      pop\n      pop\n      mload(0x40)\n      returndatasize\n      not(0x1f)\n      0x1f\n      dup3\n      add\n      and\n      dup3\n      add\n      dup1\n      0x40\n      mstore\n      pop\n      dup2\n      add\n      swap1\n      tag_142\n      swap2\n      swap1\n      tag_143\n      jump\t// in\n    tag_142:\n        /* \"contracts/build_bounty/main_build/reward_elig.sol\":3494:3541  IERC20(MOCK_BUILD).balanceOf(address(this)) > 0 */\n      gt\n        /* \"contracts/build_bounty/main_build/reward_elig.sol\":3473:3579  require(... */\n      tag_144\n      jumpi\n      mload(0x40)\n      0x08c379a000000000000000000000000000000000000000000000000000000000\n      dup2\n      mstore\n      0x04\n      add\n      tag_145\n      swap1\n      tag_146\n      jump\t// in\n    tag_145:\n      mload(0x40)\n      dup1\n      swap2\n      sub\n      swap1\n      revert\n    tag_144:\n        /* \"contracts/build_bounty/main_build/reward_elig.sol\":3590:3615  uint256 each_pool_portion */\n      0x00\n        /* \"contracts/build_bounty/main_build/reward_elig.sol\":3632:3642  _totalUser */\n      dup2\n        /* \"contracts/build_bounty/main_build/reward_elig.sol\":576:581  10**7 */\n      0x989680\n        /* \"contracts/build_bounty/main_build/reward_elig.sol\":3618:3642  POOL_AMOUNT / _totalUser */\n      tag_147\n      swap2\n      swap1\n      tag_148\n      jump\t// in\n    tag_147:\n        /* \"contracts/build_bounty/main_build/reward_elig.sol\":3590:3642  uint256 each_pool_portion = POOL_AMOUNT / _totalUser */\n      swap1\n      pop\n        /* \"contracts/build_bounty/main_build/reward_elig.sol\":3653:3672  bool alreadyClaimed */\n      0x00\n        /* \"contracts/build_bounty/main_build/reward_elig.sol\":3695:3703  uint16 i */\n      dup1\n        /* \"contracts/build_bounty/main_build/reward_elig.sol\":3690:3889  for (uint16 i; i < EligibleUserClaimWeek.length; i++) {... */\n    tag_149:\n        /* \"contracts/build_bounty/main_build/reward_elig.sol\":3709:3730  EligibleUserClaimWeek */\n      0x01\n        /* \"contracts/build_bounty/main_build/reward_elig.sol\":3709:3737  EligibleUserClaimWeek.length */\n      dup1\n      sload\n      swap1\n      pop\n        /* \"contracts/build_bounty/main_build/reward_elig.sol\":3705:3706  i */\n      dup2\n        /* \"contracts/build_bounty/main_build/reward_elig.sol\":3705:3737  i < EligibleUserClaimWeek.length */\n      0xffff\n      and\n      lt\n        /* \"contracts/build_bounty/main_build/reward_elig.sol\":3690:3889  for (uint16 i; i < EligibleUserClaimWeek.length; i++) {... */\n      iszero\n      tag_150\n      jumpi\n        /* \"contracts/build_bounty/main_build/reward_elig.sol\":3790:3800  msg.sender */\n      caller\n        /* \"contracts/build_bounty/main_build/reward_elig.sol\":3762:3800  EligibleUserClaimWeek[i] == msg.sender */\n      0xffffffffffffffffffffffffffffffffffffffff\n      and\n        /* \"contracts/build_bounty/main_build/reward_elig.sol\":3762:3783  EligibleUserClaimWeek */\n      0x01\n        /* \"contracts/build_bounty/main_build/reward_elig.sol\":3784:3785  i */\n      dup3\n        /* \"contracts/build_bounty/main_build/reward_elig.sol\":3762:3786  EligibleUserClaimWeek[i] */\n      0xffff\n      and\n      dup2\n      sload\n      dup2\n      lt\n      tag_152\n      jumpi\n      tag_153\n      tag_95\n      jump\t// in\n    tag_153:\n    tag_152:\n      swap1\n      0x00\n      mstore\n      keccak256(0x00, 0x20)\n      add\n      0x00\n      swap1\n      sload\n      swap1\n      0x0100\n      exp\n      swap1\n      div\n      0xffffffffffffffffffffffffffffffffffffffff\n      and\n        /* \"contracts/build_bounty/main_build/reward_elig.sol\":3762:3800  EligibleUserClaimWeek[i] == msg.sender */\n      0xffffffffffffffffffffffffffffffffffffffff\n      and\n      sub\n        /* \"contracts/build_bounty/main_build/reward_elig.sol\":3758:3879  if (EligibleUserClaimWeek[i] == msg.sender) {... */\n      tag_155\n      jumpi\n        /* \"contracts/build_bounty/main_build/reward_elig.sol\":3837:3841  true */\n      0x01\n        /* \"contracts/build_bounty/main_build/reward_elig.sol\":3820:3841  alreadyClaimed = true */\n      swap2\n      pop\n        /* \"contracts/build_bounty/main_build/reward_elig.sol\":3859:3864  break */\n      jump(tag_150)\n        /* \"contracts/build_bounty/main_build/reward_elig.sol\":3758:3879  if (EligibleUserClaimWeek[i] == msg.sender) {... */\n    tag_155:\n        /* \"contracts/build_bounty/main_build/reward_elig.sol\":3739:3742  i++ */\n      dup1\n      dup1\n      tag_156\n      swap1\n      tag_112\n      jump\t// in\n    tag_156:\n      swap2\n      pop\n      pop\n        /* \"contracts/build_bounty/main_build/reward_elig.sol\":3690:3889  for (uint16 i; i < EligibleUserClaimWeek.length; i++) {... */\n      jump(tag_149)\n    tag_150:\n      pop\n        /* \"contracts/build_bounty/main_build/reward_elig.sol\":3903:3917  alreadyClaimed */\n      dup1\n        /* \"contracts/build_bounty/main_build/reward_elig.sol\":3898:4036  if (!alreadyClaimed) {... */\n      tag_157\n      jumpi\n        /* \"contracts/build_bounty/main_build/reward_elig.sol\":3956:3973  each_pool_portion */\n      dup2\n        /* \"contracts/build_bounty/main_build/reward_elig.sol\":3933:3952  WeekTotalBuildClaim */\n      0x05\n      0x00\n        /* \"contracts/build_bounty/main_build/reward_elig.sol\":3933:3973  WeekTotalBuildClaim += each_pool_portion */\n      dup3\n      dup3\n      sload\n      tag_158\n      swap2\n      swap1\n      tag_120\n      jump\t// in\n    tag_158:\n      swap3\n      pop\n      pop\n      dup2\n      swap1\n      sstore\n      pop\n        /* \"contracts/build_bounty/main_build/reward_elig.sol\":3987:4008  EligibleUserClaimWeek */\n      0x01\n        /* \"contracts/build_bounty/main_build/reward_elig.sol\":4014:4024  msg.sender */\n      caller\n        /* \"contracts/build_bounty/main_build/reward_elig.sol\":3987:4025  EligibleUserClaimWeek.push(msg.sender) */\n      swap1\n      dup1\n      0x01\n      dup2\n      sload\n      add\n      dup1\n      dup3\n      sstore\n      dup1\n      swap2\n      pop\n      pop\n      0x01\n      swap1\n      sub\n      swap1\n      0x00\n      mstore\n      keccak256(0x00, 0x20)\n      add\n      0x00\n      swap1\n      swap2\n      swap1\n      swap2\n      swap1\n      swap2\n      0x0100\n      exp\n      dup2\n      sload\n      dup2\n      0xffffffffffffffffffffffffffffffffffffffff\n      mul\n      not\n      and\n      swap1\n      dup4\n      0xffffffffffffffffffffffffffffffffffffffff\n      and\n      mul\n      or\n      swap1\n      sstore\n      pop\n        /* \"contracts/build_bounty/main_build/reward_elig.sol\":3898:4036  if (!alreadyClaimed) {... */\n    tag_157:\n        /* \"contracts/build_bounty/main_build/reward_elig.sol\":4064:4081  each_pool_portion */\n      dup2\n        /* \"contracts/build_bounty/main_build/reward_elig.sol\":4045:4060  TotalBuildClaim */\n      0x06\n      0x00\n        /* \"contracts/build_bounty/main_build/reward_elig.sol\":4045:4081  TotalBuildClaim += each_pool_portion */\n      dup3\n      dup3\n      sload\n      tag_160\n      swap2\n      swap1\n      tag_120\n      jump\t// in\n    tag_160:\n      swap3\n      pop\n      pop\n      dup2\n      swap1\n      sstore\n      pop\n        /* \"contracts/build_bounty/main_build/reward_elig.sol\":4115:4125  MOCK_BUILD */\n      immutable(\"0x2e9b7c94e032d8b3b8b30bd825717a5ac74958b53e7c37a892a4fd7dc56e4975\")\n        /* \"contracts/build_bounty/main_build/reward_elig.sol\":4108:4135  IERC20(MOCK_BUILD).transfer */\n      0xffffffffffffffffffffffffffffffffffffffff\n      and\n      0xa9059cbb\n        /* \"contracts/build_bounty/main_build/reward_elig.sol\":4136:4146  msg.sender */\n      caller\n        /* \"contracts/build_bounty/main_build/reward_elig.sol\":624:630  10**18 */\n      0x0de0b6b3a7640000\n        /* \"contracts/build_bounty/main_build/reward_elig.sol\":4148:4165  each_pool_portion */\n      dup6\n        /* \"contracts/build_bounty/main_build/reward_elig.sol\":4148:4177  each_pool_portion * magic_num */\n      tag_161\n      swap2\n      swap1\n      tag_162\n      jump\t// in\n    tag_161:\n        /* \"contracts/build_bounty/main_build/reward_elig.sol\":4108:4178  IERC20(MOCK_BUILD).transfer(msg.sender, each_pool_portion * magic_num) */\n      mload(0x40)\n      dup4\n      0xffffffff\n      and\n      0xe0\n      shl\n      dup2\n      mstore\n      0x04\n      add\n      tag_163\n      swap3\n      swap2\n      swap1\n      tag_164\n      jump\t// in\n    tag_163:\n      0x20\n      mload(0x40)\n      dup1\n      dup4\n      sub\n      dup2\n      0x00\n      dup8\n      gas\n      call\n      iszero\n      dup1\n      iszero\n      tag_166\n      jumpi\n      returndatasize\n      0x00\n      dup1\n      returndatacopy\n      revert(0x00, returndatasize)\n    tag_166:\n      pop\n      pop\n      pop\n      pop\n      mload(0x40)\n      returndatasize\n      not(0x1f)\n      0x1f\n      dup3\n      add\n      and\n      dup3\n      add\n      dup1\n      0x40\n      mstore\n      pop\n      dup2\n      add\n      swap1\n      tag_167\n      swap2\n      swap1\n      tag_168\n      jump\t// in\n    tag_167:\n      pop\n        /* \"contracts/build_bounty/main_build/reward_elig.sol\":4216:4231  block.timestamp */\n      timestamp\n        /* \"contracts/build_bounty/main_build/reward_elig.sol\":4189:4201  EligibleUser */\n      0x00\n        /* \"contracts/build_bounty/main_build/reward_elig.sol\":4189:4213  EligibleUser[msg.sender] */\n      dup1\n        /* \"contracts/build_bounty/main_build/reward_elig.sol\":4202:4212  msg.sender */\n      caller\n        /* \"contracts/build_bounty/main_build/reward_elig.sol\":4189:4213  EligibleUser[msg.sender] */\n      0xffffffffffffffffffffffffffffffffffffffff\n      and\n      0xffffffffffffffffffffffffffffffffffffffff\n      and\n      dup2\n      mstore\n      0x20\n      add\n      swap1\n      dup2\n      mstore\n      0x20\n      add\n      0x00\n      keccak256\n        /* \"contracts/build_bounty/main_build/reward_elig.sol\":4189:4231  EligibleUser[msg.sender] = block.timestamp */\n      dup2\n      swap1\n      sstore\n      pop\n        /* \"contracts/build_bounty/main_build/reward_elig.sol\":4247:4291  TotalUserClaim(EligibleUserClaimWeek.length) */\n      0x3dd8b3a7a629abb0ccd684dc47a495666a60e4bd8f7614aeed87088dfe7cede6\n        /* \"contracts/build_bounty/main_build/reward_elig.sol\":4262:4283  EligibleUserClaimWeek */\n      0x01\n        /* \"contracts/build_bounty/main_build/reward_elig.sol\":4262:4290  EligibleUserClaimWeek.length */\n      dup1\n      sload\n      swap1\n      pop\n        /* \"contracts/build_bounty/main_build/reward_elig.sol\":4247:4291  TotalUserClaim(EligibleUserClaimWeek.length) */\n      mload(0x40)\n      tag_169\n      swap2\n      swap1\n      tag_25\n      jump\t// in\n    tag_169:\n      mload(0x40)\n      dup1\n      swap2\n      sub\n      swap1\n      log1\n        /* \"contracts/build_bounty/main_build/reward_elig.sol\":4306:4352  ClaimRewardUser(msg.sender, each_pool_portion) */\n      0x60237eb95a34e0af997fdc10ea4eb2c64fec8d49df3996e657f28b28ad8a0ad9\n        /* \"contracts/build_bounty/main_build/reward_elig.sol\":4322:4332  msg.sender */\n      caller\n        /* \"contracts/build_bounty/main_build/reward_elig.sol\":4334:4351  each_pool_portion */\n      dup4\n        /* \"contracts/build_bounty/main_build/reward_elig.sol\":4306:4352  ClaimRewardUser(msg.sender, each_pool_portion) */\n      mload(0x40)\n      tag_170\n      swap3\n      swap2\n      swap1\n      tag_164\n      jump\t// in\n    tag_170:\n      mload(0x40)\n      dup1\n      swap2\n      sub\n      swap1\n      log1\n        /* \"contracts/build_bounty/main_build/reward_elig.sol\":4369:4370  0 */\n      0x00\n        /* \"contracts/build_bounty/main_build/reward_elig.sol\":4362:4370  return 0 */\n      swap5\n      pop\n      pop\n      pop\n      pop\n      pop\n        /* \"contracts/build_bounty/main_build/reward_elig.sol\":2654:4377  function ClaimReward() external returns (uint256) {... */\n      swap1\n      jump\t// out\n        /* \"contracts/build_bounty/main_build/reward_elig.sol\":1518:1757  function AddEligibleUser(address _user) external onlyAdmin {... */\n    tag_52:\n        /* \"contracts/build_bounty/main_build/reward_elig.sol\":6752:6762  msg.sender */\n      caller\n        /* \"contracts/build_bounty/main_build/reward_elig.sol\":6743:6762  admin == msg.sender */\n      0xffffffffffffffffffffffffffffffffffffffff\n      and\n        /* \"contracts/build_bounty/main_build/reward_elig.sol\":6743:6748  admin */\n      0x03\n      0x00\n      swap1\n      sload\n      swap1\n      0x0100\n      exp\n      swap1\n      div\n      0xffffffffffffffffffffffffffffffffffffffff\n      and\n        /* \"contracts/build_bounty/main_build/reward_elig.sol\":6743:6762  admin == msg.sender */\n      0xffffffffffffffffffffffffffffffffffffffff\n      and\n      eq\n        /* \"contracts/build_bounty/main_build/reward_elig.sol\":6735:6802  require(admin == msg.sender, \"only admin can invoke this function\") */\n      tag_172\n      jumpi\n      mload(0x40)\n      0x08c379a000000000000000000000000000000000000000000000000000000000\n      dup2\n      mstore\n      0x04\n      add\n      tag_173\n      swap1\n      tag_88\n      jump\t// in\n    tag_173:\n      mload(0x40)\n      dup1\n      swap2\n      sub\n      swap1\n      revert\n    tag_172:\n        /* \"contracts/build_bounty/main_build/reward_elig.sol\":1613:1614  0 */\n      0x00\n        /* \"contracts/build_bounty/main_build/reward_elig.sol\":1591:1603  EligibleUser */\n      dup1\n        /* \"contracts/build_bounty/main_build/reward_elig.sol\":1591:1610  EligibleUser[_user] */\n      0x00\n        /* \"contracts/build_bounty/main_build/reward_elig.sol\":1604:1609  _user */\n      dup4\n        /* \"contracts/build_bounty/main_build/reward_elig.sol\":1591:1610  EligibleUser[_user] */\n      0xffffffffffffffffffffffffffffffffffffffff\n      and\n      0xffffffffffffffffffffffffffffffffffffffff\n      and\n      dup2\n      mstore\n      0x20\n      add\n      swap1\n      dup2\n      mstore\n      0x20\n      add\n      0x00\n      keccak256\n      sload\n        /* \"contracts/build_bounty/main_build/reward_elig.sol\":1591:1614  EligibleUser[_user] > 0 */\n      gt\n        /* \"contracts/build_bounty/main_build/reward_elig.sol\":1587:1680  if (EligibleUser[_user] > 0) {... */\n      iszero\n      tag_175\n      jumpi\n        /* \"contracts/build_bounty/main_build/reward_elig.sol\":1637:1669  DuplicateUserAdded(\"User exist\") */\n      mload(0x40)\n      0x0e64c65800000000000000000000000000000000000000000000000000000000\n      dup2\n      mstore\n      0x04\n      add\n      tag_176\n      swap1\n      tag_177\n      jump\t// in\n    tag_176:\n      mload(0x40)\n      dup1\n      swap2\n      sub\n      swap1\n      revert\n        /* \"contracts/build_bounty/main_build/reward_elig.sol\":1587:1680  if (EligibleUser[_user] > 0) {... */\n    tag_175:\n        /* \"contracts/build_bounty/main_build/reward_elig.sol\":1712:1713  1 */\n      0x01\n        /* \"contracts/build_bounty/main_build/reward_elig.sol\":1690:1702  EligibleUser */\n      0x00\n        /* \"contracts/build_bounty/main_build/reward_elig.sol\":1690:1709  EligibleUser[_user] */\n      dup1\n        /* \"contracts/build_bounty/main_build/reward_elig.sol\":1703:1708  _user */\n      dup4\n        /* \"contracts/build_bounty/main_build/reward_elig.sol\":1690:1709  EligibleUser[_user] */\n      0xffffffffffffffffffffffffffffffffffffffff\n      and\n      0xffffffffffffffffffffffffffffffffffffffff\n      and\n      dup2\n      mstore\n      0x20\n      add\n      swap1\n      dup2\n      mstore\n      0x20\n      add\n      0x00\n      keccak256\n        /* \"contracts/build_bounty/main_build/reward_elig.sol\":1690:1713  EligibleUser[_user] = 1 */\n      dup2\n      swap1\n      sstore\n      pop\n        /* \"contracts/build_bounty/main_build/reward_elig.sol\":1723:1738  EligibleUserArr */\n      0x02\n        /* \"contracts/build_bounty/main_build/reward_elig.sol\":1744:1749  _user */\n      dup2\n        /* \"contracts/build_bounty/main_build/reward_elig.sol\":1723:1750  EligibleUserArr.push(_user) */\n      swap1\n      dup1\n      0x01\n      dup2\n      sload\n      add\n      dup1\n      dup3\n      sstore\n      dup1\n      swap2\n      pop\n      pop\n      0x01\n      swap1\n      sub\n      swap1\n      0x00\n      mstore\n      keccak256(0x00, 0x20)\n      add\n      0x00\n      swap1\n      swap2\n      swap1\n      swap2\n      swap1\n      swap2\n      0x0100\n      exp\n      dup2\n      sload\n      dup2\n      0xffffffffffffffffffffffffffffffffffffffff\n      mul\n      not\n      and\n      swap1\n      dup4\n      0xffffffffffffffffffffffffffffffffffffffff\n      and\n      mul\n      or\n      swap1\n      sstore\n      pop\n        /* \"contracts/build_bounty/main_build/reward_elig.sol\":1518:1757  function AddEligibleUser(address _user) external onlyAdmin {... */\n      pop\n      jump\t// out\n        /* \"contracts/build_bounty/main_build/reward_elig.sol\":6341:6436  function lis() external view returns (address[] memory) {... */\n    tag_54:\n        /* \"contracts/build_bounty/main_build/reward_elig.sol\":6379:6395  address[] memory */\n      0x60\n        /* \"contracts/build_bounty/main_build/reward_elig.sol\":6414:6429  EligibleUserArr */\n      0x02\n        /* \"contracts/build_bounty/main_build/reward_elig.sol\":6407:6429  return EligibleUserArr */\n      dup1\n      sload\n      dup1\n      0x20\n      mul\n      0x20\n      add\n      mload(0x40)\n      swap1\n      dup2\n      add\n      0x40\n      mstore\n      dup1\n      swap3\n      swap2\n      swap1\n      dup2\n      dup2\n      mstore\n      0x20\n      add\n      dup3\n      dup1\n      sload\n      dup1\n      iszero\n      tag_180\n      jumpi\n      0x20\n      mul\n      dup3\n      add\n      swap2\n      swap1\n      0x00\n      mstore\n      keccak256(0x00, 0x20)\n      swap1\n    tag_181:\n      dup2\n      0x00\n      swap1\n      sload\n      swap1\n      0x0100\n      exp\n      swap1\n      div\n      0xffffffffffffffffffffffffffffffffffffffff\n      and\n      0xffffffffffffffffffffffffffffffffffffffff\n      and\n      dup2\n      mstore\n      0x20\n      add\n      swap1\n      0x01\n      add\n      swap1\n      dup1\n      dup4\n      gt\n      tag_181\n      jumpi\n    tag_180:\n      pop\n      pop\n      pop\n      pop\n      pop\n      swap1\n      pop\n        /* \"contracts/build_bounty/main_build/reward_elig.sol\":6341:6436  function lis() external view returns (address[] memory) {... */\n      swap1\n      jump\t// out\n        /* \"contracts/build_bounty/main_build/reward_elig.sol\":6154:6246  function ChangeAdmin(address _newAdmin) external onlyAdmin{... */\n    tag_58:\n        /* \"contracts/build_bounty/main_build/reward_elig.sol\":6752:6762  msg.sender */\n      caller\n        /* \"contracts/build_bounty/main_build/reward_elig.sol\":6743:6762  admin == msg.sender */\n      0xffffffffffffffffffffffffffffffffffffffff\n      and\n        /* \"contracts/build_bounty/main_build/reward_elig.sol\":6743:6748  admin */\n      0x03\n      0x00\n      swap1\n      sload\n      swap1\n      0x0100\n      exp\n      swap1\n      div\n      0xffffffffffffffffffffffffffffffffffffffff\n      and\n        /* \"contracts/build_bounty/main_build/reward_elig.sol\":6743:6762  admin == msg.sender */\n      0xffffffffffffffffffffffffffffffffffffffff\n      and\n      eq\n        /* \"contracts/build_bounty/main_build/reward_elig.sol\":6735:6802  require(admin == msg.sender, \"only admin can invoke this function\") */\n      tag_183\n      jumpi\n      mload(0x40)\n      0x08c379a000000000000000000000000000000000000000000000000000000000\n      dup2\n      mstore\n      0x04\n      add\n      tag_184\n      swap1\n      tag_88\n      jump\t// in\n    tag_184:\n      mload(0x40)\n      dup1\n      swap2\n      sub\n      swap1\n      revert\n    tag_183:\n        /* \"contracts/build_bounty/main_build/reward_elig.sol\":6230:6239  _newAdmin */\n      dup1\n        /* \"contracts/build_bounty/main_build/reward_elig.sol\":6222:6227  admin */\n      0x03\n      0x00\n        /* \"contracts/build_bounty/main_build/reward_elig.sol\":6222:6239  admin = _newAdmin */\n      0x0100\n      exp\n      dup2\n      sload\n      dup2\n      0xffffffffffffffffffffffffffffffffffffffff\n      mul\n      not\n      and\n      swap1\n      dup4\n      0xffffffffffffffffffffffffffffffffffffffff\n      and\n      mul\n      or\n      swap1\n      sstore\n      pop\n        /* \"contracts/build_bounty/main_build/reward_elig.sol\":6154:6246  function ChangeAdmin(address _newAdmin) external onlyAdmin{... */\n      pop\n      jump\t// out\n        /* \"contracts/build_bounty/main_build/reward_elig.sol\":5137:5550  function DepositBuild(uint256 _amount) external {... */\n    tag_62:\n        /* \"contracts/build_bounty/main_build/reward_elig.sol\":5195:5206  bool sucess */\n      0x00\n        /* \"contracts/build_bounty/main_build/reward_elig.sol\":5216:5226  MOCK_BUILD */\n      immutable(\"0x2e9b7c94e032d8b3b8b30bd825717a5ac74958b53e7c37a892a4fd7dc56e4975\")\n        /* \"contracts/build_bounty/main_build/reward_elig.sol\":5209:5240  IERC20(MOCK_BUILD).transferFrom */\n      0xffffffffffffffffffffffffffffffffffffffff\n      and\n      0x23b872dd\n        /* \"contracts/build_bounty/main_build/reward_elig.sol\":5241:5251  msg.sender */\n      caller\n        /* \"contracts/build_bounty/main_build/reward_elig.sol\":5261:5265  this */\n      address\n        /* \"contracts/build_bounty/main_build/reward_elig.sol\":624:630  10**18 */\n      0x0de0b6b3a7640000\n        /* \"contracts/build_bounty/main_build/reward_elig.sol\":5268:5275  _amount */\n      dup7\n        /* \"contracts/build_bounty/main_build/reward_elig.sol\":5268:5287  _amount * magic_num */\n      tag_187\n      swap2\n      swap1\n      tag_162\n      jump\t// in\n    tag_187:\n        /* \"contracts/build_bounty/main_build/reward_elig.sol\":5209:5288  IERC20(MOCK_BUILD).transferFrom(msg.sender, address(this), _amount * magic_num) */\n      mload(0x40)\n      dup5\n      0xffffffff\n      and\n      0xe0\n      shl\n      dup2\n      mstore\n      0x04\n      add\n      tag_188\n      swap4\n      swap3\n      swap2\n      swap1\n      tag_189\n      jump\t// in\n    tag_188:\n      0x20\n      mload(0x40)\n      dup1\n      dup4\n      sub\n      dup2\n      0x00\n      dup8\n      gas\n      call\n      iszero\n      dup1\n      iszero\n      tag_191\n      jumpi\n      returndatasize\n      0x00\n      dup1\n      returndatacopy\n      revert(0x00, returndatasize)\n    tag_191:\n      pop\n      pop\n      pop\n      pop\n      mload(0x40)\n      returndatasize\n      not(0x1f)\n      0x1f\n      dup3\n      add\n      and\n      dup3\n      add\n      dup1\n      0x40\n      mstore\n      pop\n      dup2\n      add\n      swap1\n      tag_192\n      swap2\n      swap1\n      tag_168\n      jump\t// in\n    tag_192:\n        /* \"contracts/build_bounty/main_build/reward_elig.sol\":5195:5288  bool sucess = IERC20(MOCK_BUILD).transferFrom(msg.sender, address(this), _amount * magic_num) */\n      swap1\n      pop\n        /* \"contracts/build_bounty/main_build/reward_elig.sol\":5301:5307  sucess */\n      dup1\n        /* \"contracts/build_bounty/main_build/reward_elig.sol\":5298:5544  if(sucess){... */\n      iszero\n      tag_193\n      jumpi\n        /* \"contracts/build_bounty/main_build/reward_elig.sol\":5327:5333  uint i */\n      0x00\n        /* \"contracts/build_bounty/main_build/reward_elig.sol\":5322:5534  for (uint i; i < ArrayDonors.length; i++){... */\n    tag_194:\n        /* \"contracts/build_bounty/main_build/reward_elig.sol\":5339:5350  ArrayDonors */\n      0x07\n        /* \"contracts/build_bounty/main_build/reward_elig.sol\":5339:5357  ArrayDonors.length */\n      dup1\n      sload\n      swap1\n      pop\n        /* \"contracts/build_bounty/main_build/reward_elig.sol\":5335:5336  i */\n      dup2\n        /* \"contracts/build_bounty/main_build/reward_elig.sol\":5335:5357  i < ArrayDonors.length */\n      lt\n        /* \"contracts/build_bounty/main_build/reward_elig.sol\":5322:5534  for (uint i; i < ArrayDonors.length; i++){... */\n      iszero\n      tag_195\n      jumpi\n        /* \"contracts/build_bounty/main_build/reward_elig.sol\":5398:5409  ArrayDonors */\n      0x07\n        /* \"contracts/build_bounty/main_build/reward_elig.sol\":5410:5411  i */\n      dup2\n        /* \"contracts/build_bounty/main_build/reward_elig.sol\":5398:5412  ArrayDonors[i] */\n      dup2\n      sload\n      dup2\n      lt\n      tag_197\n      jumpi\n      tag_198\n      tag_95\n      jump\t// in\n    tag_198:\n    tag_197:\n      swap1\n      0x00\n      mstore\n      keccak256(0x00, 0x20)\n      swap1\n      0x02\n      mul\n      add\n        /* \"contracts/build_bounty/main_build/reward_elig.sol\":5398:5419  ArrayDonors[i].sender */\n      0x00\n      add\n      0x00\n      swap1\n      sload\n      swap1\n      0x0100\n      exp\n      swap1\n      div\n      0xffffffffffffffffffffffffffffffffffffffff\n      and\n        /* \"contracts/build_bounty/main_build/reward_elig.sol\":5384:5419  msg.sender == ArrayDonors[i].sender */\n      0xffffffffffffffffffffffffffffffffffffffff\n      and\n        /* \"contracts/build_bounty/main_build/reward_elig.sol\":5384:5394  msg.sender */\n      caller\n        /* \"contracts/build_bounty/main_build/reward_elig.sol\":5384:5419  msg.sender == ArrayDonors[i].sender */\n      0xffffffffffffffffffffffffffffffffffffffff\n      and\n      sub\n        /* \"contracts/build_bounty/main_build/reward_elig.sol\":5381:5520  if(msg.sender == ArrayDonors[i].sender){... */\n      tag_200\n      jumpi\n        /* \"contracts/build_bounty/main_build/reward_elig.sol\":5467:5474  _amount */\n      dup3\n        /* \"contracts/build_bounty/main_build/reward_elig.sol\":5442:5453  ArrayDonors */\n      0x07\n        /* \"contracts/build_bounty/main_build/reward_elig.sol\":5454:5455  i */\n      dup3\n        /* \"contracts/build_bounty/main_build/reward_elig.sol\":5442:5456  ArrayDonors[i] */\n      dup2\n      sload\n      dup2\n      lt\n      tag_201\n      jumpi\n      tag_202\n      tag_95\n      jump\t// in\n    tag_202:\n    tag_201:\n      swap1\n      0x00\n      mstore\n      keccak256(0x00, 0x20)\n      swap1\n      0x02\n      mul\n      add\n        /* \"contracts/build_bounty/main_build/reward_elig.sol\":5442:5463  ArrayDonors[i].amount */\n      0x01\n      add\n      0x00\n        /* \"contracts/build_bounty/main_build/reward_elig.sol\":5442:5474  ArrayDonors[i].amount += _amount */\n      dup3\n      dup3\n      sload\n      tag_204\n      swap2\n      swap1\n      tag_120\n      jump\t// in\n    tag_204:\n      swap3\n      pop\n      pop\n      dup2\n      swap1\n      sstore\n      pop\n        /* \"contracts/build_bounty/main_build/reward_elig.sol\":5496:5501  break */\n      jump(tag_195)\n        /* \"contracts/build_bounty/main_build/reward_elig.sol\":5381:5520  if(msg.sender == ArrayDonors[i].sender){... */\n    tag_200:\n        /* \"contracts/build_bounty/main_build/reward_elig.sol\":5359:5362  i++ */\n      dup1\n      dup1\n      0x01\n      add\n      swap2\n      pop\n      pop\n        /* \"contracts/build_bounty/main_build/reward_elig.sol\":5322:5534  for (uint i; i < ArrayDonors.length; i++){... */\n      jump(tag_194)\n    tag_195:\n      pop\n        /* \"contracts/build_bounty/main_build/reward_elig.sol\":5298:5544  if(sucess){... */\n    tag_193:\n        /* \"contracts/build_bounty/main_build/reward_elig.sol\":5185:5550  {... */\n      pop\n        /* \"contracts/build_bounty/main_build/reward_elig.sol\":5137:5550  function DepositBuild(uint256 _amount) external {... */\n      pop\n      jump\t// out\n        /* \"contracts/build_bounty/main_build/reward_elig.sol\":6590:6698  function returndf(address _user) external view returns (uint256) {... */\n    tag_65:\n        /* \"contracts/build_bounty/main_build/reward_elig.sol\":6646:6653  uint256 */\n      0x00\n        /* \"contracts/build_bounty/main_build/reward_elig.sol\":6672:6684  EligibleUser */\n      dup1\n        /* \"contracts/build_bounty/main_build/reward_elig.sol\":6672:6691  EligibleUser[_user] */\n      0x00\n        /* \"contracts/build_bounty/main_build/reward_elig.sol\":6685:6690  _user */\n      dup4\n        /* \"contracts/build_bounty/main_build/reward_elig.sol\":6672:6691  EligibleUser[_user] */\n      0xffffffffffffffffffffffffffffffffffffffff\n      and\n      0xffffffffffffffffffffffffffffffffffffffff\n      and\n      dup2\n      mstore\n      0x20\n      add\n      swap1\n      dup2\n      mstore\n      0x20\n      add\n      0x00\n      keccak256\n      sload\n        /* \"contracts/build_bounty/main_build/reward_elig.sol\":6665:6691  return EligibleUser[_user] */\n      swap1\n      pop\n        /* \"contracts/build_bounty/main_build/reward_elig.sol\":6590:6698  function returndf(address _user) external view returns (uint256) {... */\n      swap2\n      swap1\n      pop\n      jump\t// out\n        /* \"contracts/build_bounty/main_build/reward_elig.sol\":1763:2101  function AddMultipleEliglibleUser(address[] memory _users)... */\n    tag_70:\n        /* \"contracts/build_bounty/main_build/reward_elig.sol\":6752:6762  msg.sender */\n      caller\n        /* \"contracts/build_bounty/main_build/reward_elig.sol\":6743:6762  admin == msg.sender */\n      0xffffffffffffffffffffffffffffffffffffffff\n      and\n        /* \"contracts/build_bounty/main_build/reward_elig.sol\":6743:6748  admin */\n      0x03\n      0x00\n      swap1\n      sload\n      swap1\n      0x0100\n      exp\n      swap1\n      div\n      0xffffffffffffffffffffffffffffffffffffffff\n      and\n        /* \"contracts/build_bounty/main_build/reward_elig.sol\":6743:6762  admin == msg.sender */\n      0xffffffffffffffffffffffffffffffffffffffff\n      and\n      eq\n        /* \"contracts/build_bounty/main_build/reward_elig.sol\":6735:6802  require(admin == msg.sender, \"only admin can invoke this function\") */\n      tag_207\n      jumpi\n      mload(0x40)\n      0x08c379a000000000000000000000000000000000000000000000000000000000\n      dup2\n      mstore\n      0x04\n      add\n      tag_208\n      swap1\n      tag_88\n      jump\t// in\n    tag_208:\n      mload(0x40)\n      dup1\n      swap2\n      sub\n      swap1\n      revert\n    tag_207:\n        /* \"contracts/build_bounty/main_build/reward_elig.sol\":1876:1884  uint16 i */\n      0x00\n        /* \"contracts/build_bounty/main_build/reward_elig.sol\":1871:2095  for (uint16 i; i < _users.length; i++) {... */\n    tag_210:\n        /* \"contracts/build_bounty/main_build/reward_elig.sol\":1890:1896  _users */\n      dup2\n        /* \"contracts/build_bounty/main_build/reward_elig.sol\":1890:1903  _users.length */\n      mload\n        /* \"contracts/build_bounty/main_build/reward_elig.sol\":1886:1887  i */\n      dup2\n        /* \"contracts/build_bounty/main_build/reward_elig.sol\":1886:1903  i < _users.length */\n      0xffff\n      and\n      lt\n        /* \"contracts/build_bounty/main_build/reward_elig.sol\":1871:2095  for (uint16 i; i < _users.length; i++) {... */\n      iszero\n      tag_211\n      jumpi\n        /* \"contracts/build_bounty/main_build/reward_elig.sol\":1954:1955  0 */\n      0x00\n        /* \"contracts/build_bounty/main_build/reward_elig.sol\":1928:1940  EligibleUser */\n      dup1\n        /* \"contracts/build_bounty/main_build/reward_elig.sol\":1928:1951  EligibleUser[_users[i]] */\n      0x00\n        /* \"contracts/build_bounty/main_build/reward_elig.sol\":1941:1947  _users */\n      dup5\n        /* \"contracts/build_bounty/main_build/reward_elig.sol\":1948:1949  i */\n      dup5\n        /* \"contracts/build_bounty/main_build/reward_elig.sol\":1941:1950  _users[i] */\n      0xffff\n      and\n      dup2\n      mload\n      dup2\n      lt\n      tag_213\n      jumpi\n      tag_214\n      tag_95\n      jump\t// in\n    tag_214:\n    tag_213:\n      0x20\n      mul\n      0x20\n      add\n      add\n      mload\n        /* \"contracts/build_bounty/main_build/reward_elig.sol\":1928:1951  EligibleUser[_users[i]] */\n      0xffffffffffffffffffffffffffffffffffffffff\n      and\n      0xffffffffffffffffffffffffffffffffffffffff\n      and\n      dup2\n      mstore\n      0x20\n      add\n      swap1\n      dup2\n      mstore\n      0x20\n      add\n      0x00\n      keccak256\n      sload\n        /* \"contracts/build_bounty/main_build/reward_elig.sol\":1928:1955  EligibleUser[_users[i]] > 0 */\n      gt\n        /* \"contracts/build_bounty/main_build/reward_elig.sol\":1975:1983  continue */\n      tag_212\n        /* \"contracts/build_bounty/main_build/reward_elig.sol\":1924:1998  if (EligibleUser[_users[i]] > 0) {... */\n      jumpi\n        /* \"contracts/build_bounty/main_build/reward_elig.sol\":2038:2039  1 */\n      0x01\n        /* \"contracts/build_bounty/main_build/reward_elig.sol\":2012:2024  EligibleUser */\n      0x00\n        /* \"contracts/build_bounty/main_build/reward_elig.sol\":2012:2035  EligibleUser[_users[i]] */\n      dup1\n        /* \"contracts/build_bounty/main_build/reward_elig.sol\":2025:2031  _users */\n      dup5\n        /* \"contracts/build_bounty/main_build/reward_elig.sol\":2032:2033  i */\n      dup5\n        /* \"contracts/build_bounty/main_build/reward_elig.sol\":2025:2034  _users[i] */\n      0xffff\n      and\n      dup2\n      mload\n      dup2\n      lt\n      tag_216\n      jumpi\n      tag_217\n      tag_95\n      jump\t// in\n    tag_217:\n    tag_216:\n      0x20\n      mul\n      0x20\n      add\n      add\n      mload\n        /* \"contracts/build_bounty/main_build/reward_elig.sol\":2012:2035  EligibleUser[_users[i]] */\n      0xffffffffffffffffffffffffffffffffffffffff\n      and\n      0xffffffffffffffffffffffffffffffffffffffff\n      and\n      dup2\n      mstore\n      0x20\n      add\n      swap1\n      dup2\n      mstore\n      0x20\n      add\n      0x00\n      keccak256\n        /* \"contracts/build_bounty/main_build/reward_elig.sol\":2012:2039  EligibleUser[_users[i]] = 1 */\n      dup2\n      swap1\n      sstore\n      pop\n        /* \"contracts/build_bounty/main_build/reward_elig.sol\":2053:2068  EligibleUserArr */\n      0x02\n        /* \"contracts/build_bounty/main_build/reward_elig.sol\":2074:2080  _users */\n      dup3\n        /* \"contracts/build_bounty/main_build/reward_elig.sol\":2081:2082  i */\n      dup3\n        /* \"contracts/build_bounty/main_build/reward_elig.sol\":2074:2083  _users[i] */\n      0xffff\n      and\n      dup2\n      mload\n      dup2\n      lt\n      tag_218\n      jumpi\n      tag_219\n      tag_95\n      jump\t// in\n    tag_219:\n    tag_218:\n      0x20\n      mul\n      0x20\n      add\n      add\n      mload\n        /* \"contracts/build_bounty/main_build/reward_elig.sol\":2053:2084  EligibleUserArr.push(_users[i]) */\n      swap1\n      dup1\n      0x01\n      dup2\n      sload\n      add\n      dup1\n      dup3\n      sstore\n      dup1\n      swap2\n      pop\n      pop\n      0x01\n      swap1\n      sub\n      swap1\n      0x00\n      mstore\n      keccak256(0x00, 0x20)\n      add\n      0x00\n      swap1\n      swap2\n      swap1\n      swap2\n      swap1\n      swap2\n      0x0100\n      exp\n      dup2\n      sload\n      dup2\n      0xffffffffffffffffffffffffffffffffffffffff\n      mul\n      not\n      and\n      swap1\n      dup4\n      0xffffffffffffffffffffffffffffffffffffffff\n      and\n      mul\n      or\n      swap1\n      sstore\n      pop\n        /* \"contracts/build_bounty/main_build/reward_elig.sol\":1871:2095  for (uint16 i; i < _users.length; i++) {... */\n    tag_212:\n        /* \"contracts/build_bounty/main_build/reward_elig.sol\":1905:1908  i++ */\n      dup1\n      dup1\n      tag_221\n      swap1\n      tag_112\n      jump\t// in\n    tag_221:\n      swap2\n      pop\n      pop\n        /* \"contracts/build_bounty/main_build/reward_elig.sol\":1871:2095  for (uint16 i; i < _users.length; i++) {... */\n      jump(tag_210)\n    tag_211:\n      pop\n        /* \"contracts/build_bounty/main_build/reward_elig.sol\":1763:2101  function AddMultipleEliglibleUser(address[] memory _users)... */\n      pop\n      jump\t// out\n        /* \"contracts/build_bounty/main_build/reward_elig.sol\":5580:5706  function CallSorted() external returns(DonateBuildRecord[] memory){... */\n    tag_72:\n        /* \"contracts/build_bounty/main_build/reward_elig.sol\":5619:5645  DonateBuildRecord[] memory */\n      0x60\n        /* \"contracts/build_bounty/main_build/reward_elig.sol\":5656:5671  SortDonations() */\n      tag_223\n        /* \"contracts/build_bounty/main_build/reward_elig.sol\":5656:5669  SortDonations */\n      tag_224\n        /* \"contracts/build_bounty/main_build/reward_elig.sol\":5656:5671  SortDonations() */\n      jump\t// in\n    tag_223:\n        /* \"contracts/build_bounty/main_build/reward_elig.sol\":5688:5699  ArrayDonors */\n      0x07\n        /* \"contracts/build_bounty/main_build/reward_elig.sol\":5681:5699  return ArrayDonors */\n      dup1\n      sload\n      dup1\n      0x20\n      mul\n      0x20\n      add\n      mload(0x40)\n      swap1\n      dup2\n      add\n      0x40\n      mstore\n      dup1\n      swap3\n      swap2\n      swap1\n      dup2\n      dup2\n      mstore\n      0x20\n      add\n      0x00\n      swap1\n    tag_225:\n      dup3\n      dup3\n      lt\n      iszero\n      tag_226\n      jumpi\n      dup4\n      dup3\n      swap1\n      0x00\n      mstore\n      keccak256(0x00, 0x20)\n      swap1\n      0x02\n      mul\n      add\n      mload(0x40)\n      dup1\n      0x40\n      add\n      0x40\n      mstore\n      swap1\n      dup2\n      0x00\n      dup3\n      add\n      0x00\n      swap1\n      sload\n      swap1\n      0x0100\n      exp\n      swap1\n      div\n      0xffffffffffffffffffffffffffffffffffffffff\n      and\n      0xffffffffffffffffffffffffffffffffffffffff\n      and\n      0xffffffffffffffffffffffffffffffffffffffff\n      and\n      dup2\n      mstore\n      0x20\n      add\n      0x01\n      dup3\n      add\n      sload\n      dup2\n      mstore\n      pop\n      pop\n      dup2\n      mstore\n      0x20\n      add\n      swap1\n      0x01\n      add\n      swap1\n      jump(tag_225)\n    tag_226:\n      pop\n      pop\n      pop\n      pop\n      swap1\n      pop\n        /* \"contracts/build_bounty/main_build/reward_elig.sol\":5580:5706  function CallSorted() external returns(DonateBuildRecord[] memory){... */\n      swap1\n      jump\t// out\n        /* \"contracts/build_bounty/main_build/reward_elig.sol\":6442:6584  function ReadOnlyBalance4Dev() external view returns (uint256) {... */\n    tag_76:\n        /* \"contracts/build_bounty/main_build/reward_elig.sol\":6496:6503  uint256 */\n      0x00\n        /* \"contracts/build_bounty/main_build/reward_elig.sol\":624:630  10**18 */\n      0x0de0b6b3a7640000\n        /* \"contracts/build_bounty/main_build/reward_elig.sol\":6529:6539  MOCK_BUILD */\n      immutable(\"0x2e9b7c94e032d8b3b8b30bd825717a5ac74958b53e7c37a892a4fd7dc56e4975\")\n        /* \"contracts/build_bounty/main_build/reward_elig.sol\":6522:6550  IERC20(MOCK_BUILD).balanceOf */\n      0xffffffffffffffffffffffffffffffffffffffff\n      and\n      0x70a08231\n        /* \"contracts/build_bounty/main_build/reward_elig.sol\":6559:6563  this */\n      address\n        /* \"contracts/build_bounty/main_build/reward_elig.sol\":6522:6565  IERC20(MOCK_BUILD).balanceOf(address(this)) */\n      mload(0x40)\n      dup3\n      0xffffffff\n      and\n      0xe0\n      shl\n      dup2\n      mstore\n      0x04\n      add\n      tag_229\n      swap2\n      swap1\n      tag_42\n      jump\t// in\n    tag_229:\n      0x20\n      mload(0x40)\n      dup1\n      dup4\n      sub\n      dup2\n      dup7\n      gas\n      staticcall\n      iszero\n      dup1\n      iszero\n      tag_231\n      jumpi\n      returndatasize\n      0x00\n      dup1\n      returndatacopy\n      revert(0x00, returndatasize)\n    tag_231:\n      pop\n      pop\n      pop\n      pop\n      mload(0x40)\n      returndatasize\n      not(0x1f)\n      0x1f\n      dup3\n      add\n      and\n      dup3\n      add\n      dup1\n      0x40\n      mstore\n      pop\n      dup2\n      add\n      swap1\n      tag_232\n      swap2\n      swap1\n      tag_143\n      jump\t// in\n    tag_232:\n        /* \"contracts/build_bounty/main_build/reward_elig.sol\":6522:6577  IERC20(MOCK_BUILD).balanceOf(address(this)) / magic_num */\n      tag_233\n      swap2\n      swap1\n      tag_148\n      jump\t// in\n    tag_233:\n        /* \"contracts/build_bounty/main_build/reward_elig.sol\":6515:6577  return IERC20(MOCK_BUILD).balanceOf(address(this)) / magic_num */\n      swap1\n      pop\n        /* \"contracts/build_bounty/main_build/reward_elig.sol\":6442:6584  function ReadOnlyBalance4Dev() external view returns (uint256) {... */\n      swap1\n      jump\t// out\n        /* \"contracts/build_bounty/main_build/reward_elig.sol\":4678:4796  function ResetWeekTotalClaim() internal {... */\n    tag_123:\n        /* \"contracts/build_bounty/main_build/reward_elig.sol\":4750:4751  0 */\n      0x00\n        /* \"contracts/build_bounty/main_build/reward_elig.sol\":4728:4747  WeekTotalBuildClaim */\n      0x05\n        /* \"contracts/build_bounty/main_build/reward_elig.sol\":4728:4751  WeekTotalBuildClaim = 0 */\n      dup2\n      swap1\n      sstore\n      pop\n        /* \"contracts/build_bounty/main_build/reward_elig.sol\":4768:4789  EligibleUserClaimWeek */\n      0x01\n      0x00\n        /* \"contracts/build_bounty/main_build/reward_elig.sol\":4761:4789  delete EligibleUserClaimWeek */\n      tag_235\n      swap2\n      swap1\n      tag_236\n      jump\t// in\n    tag_235:\n        /* \"contracts/build_bounty/main_build/reward_elig.sol\":4678:4796  function ResetWeekTotalClaim() internal {... */\n      jump\t// out\n        /* \"contracts/build_bounty/main_build/reward_elig.sol\":5712:6148  function SortDonations() internal{... */\n    tag_224:\n        /* \"contracts/build_bounty/main_build/reward_elig.sol\":5760:5766  uint i */\n      0x00\n        /* \"contracts/build_bounty/main_build/reward_elig.sol\":5755:6141  for (uint i = 0 ;i < ArrayDonors.length - 1; ++ i) {... */\n    tag_238:\n        /* \"contracts/build_bounty/main_build/reward_elig.sol\":5797:5798  1 */\n      0x01\n        /* \"contracts/build_bounty/main_build/reward_elig.sol\":5776:5787  ArrayDonors */\n      0x07\n        /* \"contracts/build_bounty/main_build/reward_elig.sol\":5776:5794  ArrayDonors.length */\n      dup1\n      sload\n      swap1\n      pop\n        /* \"contracts/build_bounty/main_build/reward_elig.sol\":5776:5798  ArrayDonors.length - 1 */\n      tag_241\n      swap2\n      swap1\n      tag_102\n      jump\t// in\n    tag_241:\n        /* \"contracts/build_bounty/main_build/reward_elig.sol\":5772:5773  i */\n      dup2\n        /* \"contracts/build_bounty/main_build/reward_elig.sol\":5772:5798  i < ArrayDonors.length - 1 */\n      lt\n        /* \"contracts/build_bounty/main_build/reward_elig.sol\":5755:6141  for (uint i = 0 ;i < ArrayDonors.length - 1; ++ i) {... */\n      iszero\n      tag_239\n      jumpi\n        /* \"contracts/build_bounty/main_build/reward_elig.sol\":5825:5831  uint j */\n      0x00\n        /* \"contracts/build_bounty/main_build/reward_elig.sol\":5838:5839  1 */\n      0x01\n        /* \"contracts/build_bounty/main_build/reward_elig.sol\":5834:5835  i */\n      dup3\n        /* \"contracts/build_bounty/main_build/reward_elig.sol\":5834:5839  i + 1 */\n      tag_245\n      swap2\n      swap1\n      tag_120\n      jump\t// in\n    tag_245:\n        /* \"contracts/build_bounty/main_build/reward_elig.sol\":5825:5839  uint j = i + 1 */\n      swap1\n      pop\n        /* \"contracts/build_bounty/main_build/reward_elig.sol\":5820:6131  for (uint j = i + 1;j < ArrayDonors.length;++ j){... */\n    tag_242:\n        /* \"contracts/build_bounty/main_build/reward_elig.sol\":5844:5855  ArrayDonors */\n      0x07\n        /* \"contracts/build_bounty/main_build/reward_elig.sol\":5844:5862  ArrayDonors.length */\n      dup1\n      sload\n      swap1\n      pop\n        /* \"contracts/build_bounty/main_build/reward_elig.sol\":5840:5841  j */\n      dup2\n        /* \"contracts/build_bounty/main_build/reward_elig.sol\":5840:5862  j < ArrayDonors.length */\n      lt\n        /* \"contracts/build_bounty/main_build/reward_elig.sol\":5820:6131  for (uint j = i + 1;j < ArrayDonors.length;++ j){... */\n      iszero\n      tag_243\n      jumpi\n        /* \"contracts/build_bounty/main_build/reward_elig.sol\":5913:5924  ArrayDonors */\n      0x07\n        /* \"contracts/build_bounty/main_build/reward_elig.sol\":5925:5926  j */\n      dup2\n        /* \"contracts/build_bounty/main_build/reward_elig.sol\":5913:5927  ArrayDonors[j] */\n      dup2\n      sload\n      dup2\n      lt\n      tag_246\n      jumpi\n      tag_247\n      tag_95\n      jump\t// in\n    tag_247:\n    tag_246:\n      swap1\n      0x00\n      mstore\n      keccak256(0x00, 0x20)\n      swap1\n      0x02\n      mul\n      add\n        /* \"contracts/build_bounty/main_build/reward_elig.sol\":5913:5934  ArrayDonors[j].amount */\n      0x01\n      add\n      sload\n        /* \"contracts/build_bounty/main_build/reward_elig.sol\":5889:5900  ArrayDonors */\n      0x07\n        /* \"contracts/build_bounty/main_build/reward_elig.sol\":5901:5902  i */\n      dup4\n        /* \"contracts/build_bounty/main_build/reward_elig.sol\":5889:5903  ArrayDonors[i] */\n      dup2\n      sload\n      dup2\n      lt\n      tag_249\n      jumpi\n      tag_250\n      tag_95\n      jump\t// in\n    tag_250:\n    tag_249:\n      swap1\n      0x00\n      mstore\n      keccak256(0x00, 0x20)\n      swap1\n      0x02\n      mul\n      add\n        /* \"contracts/build_bounty/main_build/reward_elig.sol\":5889:5910  ArrayDonors[i].amount */\n      0x01\n      add\n      sload\n        /* \"contracts/build_bounty/main_build/reward_elig.sol\":5889:5934  ArrayDonors[i].amount > ArrayDonors[j].amount */\n      gt\n        /* \"contracts/build_bounty/main_build/reward_elig.sol\":5886:6117  if(ArrayDonors[i].amount > ArrayDonors[j].amount){... */\n      iszero\n      tag_252\n      jumpi\n        /* \"contracts/build_bounty/main_build/reward_elig.sol\":5957:5986  DonateBuildRecord memory temp */\n      0x00\n        /* \"contracts/build_bounty/main_build/reward_elig.sol\":5989:6000  ArrayDonors */\n      0x07\n        /* \"contracts/build_bounty/main_build/reward_elig.sol\":6001:6002  i */\n      dup4\n        /* \"contracts/build_bounty/main_build/reward_elig.sol\":5989:6003  ArrayDonors[i] */\n      dup2\n      sload\n      dup2\n      lt\n      tag_253\n      jumpi\n      tag_254\n      tag_95\n      jump\t// in\n    tag_254:\n    tag_253:\n      swap1\n      0x00\n      mstore\n      keccak256(0x00, 0x20)\n      swap1\n      0x02\n      mul\n      add\n        /* \"contracts/build_bounty/main_build/reward_elig.sol\":5957:6003  DonateBuildRecord memory temp = ArrayDonors[i] */\n      mload(0x40)\n      dup1\n      0x40\n      add\n      0x40\n      mstore\n      swap1\n      dup2\n      0x00\n      dup3\n      add\n      0x00\n      swap1\n      sload\n      swap1\n      0x0100\n      exp\n      swap1\n      div\n      0xffffffffffffffffffffffffffffffffffffffff\n      and\n      0xffffffffffffffffffffffffffffffffffffffff\n      and\n      0xffffffffffffffffffffffffffffffffffffffff\n      and\n      dup2\n      mstore\n      0x20\n      add\n      0x01\n      dup3\n      add\n      sload\n      dup2\n      mstore\n      pop\n      pop\n      swap1\n      pop\n        /* \"contracts/build_bounty/main_build/reward_elig.sol\":6040:6051  ArrayDonors */\n      0x07\n        /* \"contracts/build_bounty/main_build/reward_elig.sol\":6052:6053  j */\n      dup3\n        /* \"contracts/build_bounty/main_build/reward_elig.sol\":6040:6054  ArrayDonors[j] */\n      dup2\n      sload\n      dup2\n      lt\n      tag_256\n      jumpi\n      tag_257\n      tag_95\n      jump\t// in\n    tag_257:\n    tag_256:\n      swap1\n      0x00\n      mstore\n      keccak256(0x00, 0x20)\n      swap1\n      0x02\n      mul\n      add\n        /* \"contracts/build_bounty/main_build/reward_elig.sol\":6025:6036  ArrayDonors */\n      0x07\n        /* \"contracts/build_bounty/main_build/reward_elig.sol\":6037:6038  i */\n      dup5\n        /* \"contracts/build_bounty/main_build/reward_elig.sol\":6025:6039  ArrayDonors[i] */\n      dup2\n      sload\n      dup2\n      lt\n      tag_259\n      jumpi\n      tag_260\n      tag_95\n      jump\t// in\n    tag_260:\n    tag_259:\n      swap1\n      0x00\n      mstore\n      keccak256(0x00, 0x20)\n      swap1\n      0x02\n      mul\n      add\n        /* \"contracts/build_bounty/main_build/reward_elig.sol\":6025:6054  ArrayDonors[i]=ArrayDonors[j] */\n      0x00\n      dup3\n      add\n      0x00\n      swap1\n      sload\n      swap1\n      0x0100\n      exp\n      swap1\n      div\n      0xffffffffffffffffffffffffffffffffffffffff\n      and\n      dup2\n      0x00\n      add\n      exp(0x0100, 0x00)\n      dup2\n      sload\n      dup2\n      0xffffffffffffffffffffffffffffffffffffffff\n      mul\n      not\n      and\n      swap1\n      dup4\n      0xffffffffffffffffffffffffffffffffffffffff\n      and\n      mul\n      or\n      swap1\n      sstore\n      pop\n      0x01\n      dup3\n      add\n      sload\n      dup2\n      0x01\n      add\n      sstore\n      swap1\n      pop\n      pop\n        /* \"contracts/build_bounty/main_build/reward_elig.sol\":6093:6097  temp */\n      dup1\n        /* \"contracts/build_bounty/main_build/reward_elig.sol\":6076:6087  ArrayDonors */\n      0x07\n        /* \"contracts/build_bounty/main_build/reward_elig.sol\":6088:6089  j */\n      dup4\n        /* \"contracts/build_bounty/main_build/reward_elig.sol\":6076:6090  ArrayDonors[j] */\n      dup2\n      sload\n      dup2\n      lt\n      tag_262\n      jumpi\n      tag_263\n      tag_95\n      jump\t// in\n    tag_263:\n    tag_262:\n      swap1\n      0x00\n      mstore\n      keccak256(0x00, 0x20)\n      swap1\n      0x02\n      mul\n      add\n        /* \"contracts/build_bounty/main_build/reward_elig.sol\":6076:6097  ArrayDonors[j] = temp */\n      0x00\n      dup3\n      add\n      mload\n      dup2\n      0x00\n      add\n      exp(0x0100, 0x00)\n      dup2\n      sload\n      dup2\n      0xffffffffffffffffffffffffffffffffffffffff\n      mul\n      not\n      and\n      swap1\n      dup4\n      0xffffffffffffffffffffffffffffffffffffffff\n      and\n      mul\n      or\n      swap1\n      sstore\n      pop\n      0x20\n      dup3\n      add\n      mload\n      dup2\n      0x01\n      add\n      sstore\n      swap1\n      pop\n      pop\n        /* \"contracts/build_bounty/main_build/reward_elig.sol\":5935:6117  {... */\n      pop\n        /* \"contracts/build_bounty/main_build/reward_elig.sol\":5886:6117  if(ArrayDonors[i].amount > ArrayDonors[j].amount){... */\n    tag_252:\n        /* \"contracts/build_bounty/main_build/reward_elig.sol\":5863:5867  ++ j */\n      dup1\n      0x01\n      add\n      swap1\n      pop\n        /* \"contracts/build_bounty/main_build/reward_elig.sol\":5820:6131  for (uint j = i + 1;j < ArrayDonors.length;++ j){... */\n      jump(tag_242)\n    tag_243:\n      pop\n        /* \"contracts/build_bounty/main_build/reward_elig.sol\":5800:5804  ++ i */\n      dup1\n      0x01\n      add\n      swap1\n      pop\n        /* \"contracts/build_bounty/main_build/reward_elig.sol\":5755:6141  for (uint i = 0 ;i < ArrayDonors.length - 1; ++ i) {... */\n      jump(tag_238)\n    tag_239:\n      pop\n        /* \"contracts/build_bounty/main_build/reward_elig.sol\":5712:6148  function SortDonations() internal{... */\n      jump\t// out\n    tag_236:\n      pop\n      dup1\n      sload\n      0x00\n      dup3\n      sstore\n      swap1\n      0x00\n      mstore\n      keccak256(0x00, 0x20)\n      swap1\n      dup2\n      add\n      swap1\n      tag_266\n      swap2\n      swap1\n      tag_267\n      jump\t// in\n    tag_266:\n      pop\n      jump\t// out\n    tag_267:\n    tag_268:\n      dup1\n      dup3\n      gt\n      iszero\n      tag_269\n      jumpi\n      0x00\n      dup2\n      0x00\n      swap1\n      sstore\n      pop\n      0x01\n      add\n      jump(tag_268)\n    tag_269:\n      pop\n      swap1\n      jump\t// out\n        /* \"#utility.yul\":7:84   */\n    tag_270:\n        /* \"#utility.yul\":44:51   */\n      0x00\n        /* \"#utility.yul\":73:78   */\n      dup2\n        /* \"#utility.yul\":62:78   */\n      swap1\n      pop\n        /* \"#utility.yul\":7:84   */\n      swap2\n      swap1\n      pop\n      jump\t// out\n        /* \"#utility.yul\":90:208   */\n    tag_271:\n        /* \"#utility.yul\":177:201   */\n      tag_327\n        /* \"#utility.yul\":195:200   */\n      dup2\n        /* \"#utility.yul\":177:201   */\n      tag_270\n      jump\t// in\n    tag_327:\n        /* \"#utility.yul\":172:175   */\n      dup3\n        /* \"#utility.yul\":165:202   */\n      mstore\n        /* \"#utility.yul\":90:208   */\n      pop\n      pop\n      jump\t// out\n        /* \"#utility.yul\":214:436   */\n    tag_25:\n        /* \"#utility.yul\":307:311   */\n      0x00\n        /* \"#utility.yul\":345:347   */\n      0x20\n        /* \"#utility.yul\":334:343   */\n      dup3\n        /* \"#utility.yul\":330:348   */\n      add\n        /* \"#utility.yul\":322:348   */\n      swap1\n      pop\n        /* \"#utility.yul\":358:429   */\n      tag_329\n        /* \"#utility.yul\":426:427   */\n      0x00\n        /* \"#utility.yul\":415:424   */\n      dup4\n        /* \"#utility.yul\":411:428   */\n      add\n        /* \"#utility.yul\":402:408   */\n      dup5\n        /* \"#utility.yul\":358:429   */\n      tag_271\n      jump\t// in\n    tag_329:\n        /* \"#utility.yul\":214:436   */\n      swap3\n      swap2\n      pop\n      pop\n      jump\t// out\n        /* \"#utility.yul\":442:556   */\n    tag_272:\n        /* \"#utility.yul\":509:515   */\n      0x00\n        /* \"#utility.yul\":543:548   */\n      dup2\n        /* \"#utility.yul\":537:549   */\n      mload\n        /* \"#utility.yul\":527:549   */\n      swap1\n      pop\n        /* \"#utility.yul\":442:556   */\n      swap2\n      swap1\n      pop\n      jump\t// out\n        /* \"#utility.yul\":562:746   */\n    tag_273:\n        /* \"#utility.yul\":661:672   */\n      0x00\n        /* \"#utility.yul\":695:701   */\n      dup3\n        /* \"#utility.yul\":690:693   */\n      dup3\n        /* \"#utility.yul\":683:702   */\n      mstore\n        /* \"#utility.yul\":735:739   */\n      0x20\n        /* \"#utility.yul\":730:733   */\n      dup3\n        /* \"#utility.yul\":726:740   */\n      add\n        /* \"#utility.yul\":711:740   */\n      swap1\n      pop\n        /* \"#utility.yul\":562:746   */\n      swap3\n      swap2\n      pop\n      pop\n      jump\t// out\n        /* \"#utility.yul\":752:884   */\n    tag_274:\n        /* \"#utility.yul\":819:823   */\n      0x00\n        /* \"#utility.yul\":842:845   */\n      dup2\n        /* \"#utility.yul\":834:845   */\n      swap1\n      pop\n        /* \"#utility.yul\":872:876   */\n      0x20\n        /* \"#utility.yul\":867:870   */\n      dup3\n        /* \"#utility.yul\":863:877   */\n      add\n        /* \"#utility.yul\":855:877   */\n      swap1\n      pop\n        /* \"#utility.yul\":752:884   */\n      swap2\n      swap1\n      pop\n      jump\t// out\n        /* \"#utility.yul\":890:1016   */\n    tag_275:\n        /* \"#utility.yul\":927:934   */\n      0x00\n        /* \"#utility.yul\":967:1009   */\n      0xffffffffffffffffffffffffffffffffffffffff\n        /* \"#utility.yul\":960:965   */\n      dup3\n        /* \"#utility.yul\":956:1010   */\n      and\n        /* \"#utility.yul\":945:1010   */\n      swap1\n      pop\n        /* \"#utility.yul\":890:1016   */\n      swap2\n      swap1\n      pop\n      jump\t// out\n        /* \"#utility.yul\":1022:1118   */\n    tag_276:\n        /* \"#utility.yul\":1059:1066   */\n      0x00\n        /* \"#utility.yul\":1088:1112   */\n      tag_335\n        /* \"#utility.yul\":1106:1111   */\n      dup3\n        /* \"#utility.yul\":1088:1112   */\n      tag_275\n      jump\t// in\n    tag_335:\n        /* \"#utility.yul\":1077:1112   */\n      swap1\n      pop\n        /* \"#utility.yul\":1022:1118   */\n      swap2\n      swap1\n      pop\n      jump\t// out\n        /* \"#utility.yul\":1124:1232   */\n    tag_277:\n        /* \"#utility.yul\":1201:1225   */\n      tag_337\n        /* \"#utility.yul\":1219:1224   */\n      dup2\n        /* \"#utility.yul\":1201:1225   */\n      tag_276\n      jump\t// in\n    tag_337:\n        /* \"#utility.yul\":1196:1199   */\n      dup3\n        /* \"#utility.yul\":1189:1226   */\n      mstore\n        /* \"#utility.yul\":1124:1232   */\n      pop\n      pop\n      jump\t// out\n        /* \"#utility.yul\":1238:1417   */\n    tag_278:\n        /* \"#utility.yul\":1307:1317   */\n      0x00\n        /* \"#utility.yul\":1328:1374   */\n      tag_339\n        /* \"#utility.yul\":1370:1373   */\n      dup4\n        /* \"#utility.yul\":1362:1368   */\n      dup4\n        /* \"#utility.yul\":1328:1374   */\n      tag_277\n      jump\t// in\n    tag_339:\n        /* \"#utility.yul\":1406:1410   */\n      0x20\n        /* \"#utility.yul\":1401:1404   */\n      dup4\n        /* \"#utility.yul\":1397:1411   */\n      add\n        /* \"#utility.yul\":1383:1411   */\n      swap1\n      pop\n        /* \"#utility.yul\":1238:1417   */\n      swap3\n      swap2\n      pop\n      pop\n      jump\t// out\n        /* \"#utility.yul\":1423:1536   */\n    tag_279:\n        /* \"#utility.yul\":1493:1497   */\n      0x00\n        /* \"#utility.yul\":1525:1529   */\n      0x20\n        /* \"#utility.yul\":1520:1523   */\n      dup3\n        /* \"#utility.yul\":1516:1530   */\n      add\n        /* \"#utility.yul\":1508:1530   */\n      swap1\n      pop\n        /* \"#utility.yul\":1423:1536   */\n      swap2\n      swap1\n      pop\n      jump\t// out\n        /* \"#utility.yul\":1572:2304   */\n    tag_280:\n        /* \"#utility.yul\":1691:1694   */\n      0x00\n        /* \"#utility.yul\":1720:1774   */\n      tag_342\n        /* \"#utility.yul\":1768:1773   */\n      dup3\n        /* \"#utility.yul\":1720:1774   */\n      tag_272\n      jump\t// in\n    tag_342:\n        /* \"#utility.yul\":1790:1876   */\n      tag_343\n        /* \"#utility.yul\":1869:1875   */\n      dup2\n        /* \"#utility.yul\":1864:1867   */\n      dup6\n        /* \"#utility.yul\":1790:1876   */\n      tag_273\n      jump\t// in\n    tag_343:\n        /* \"#utility.yul\":1783:1876   */\n      swap4\n      pop\n        /* \"#utility.yul\":1900:1956   */\n      tag_344\n        /* \"#utility.yul\":1950:1955   */\n      dup4\n        /* \"#utility.yul\":1900:1956   */\n      tag_274\n      jump\t// in\n    tag_344:\n        /* \"#utility.yul\":1979:1986   */\n      dup1\n        /* \"#utility.yul\":2010:2011   */\n      0x00\n        /* \"#utility.yul\":1995:2279   */\n    tag_345:\n        /* \"#utility.yul\":2020:2026   */\n      dup4\n        /* \"#utility.yul\":2017:2018   */\n      dup2\n        /* \"#utility.yul\":2014:2027   */\n      lt\n        /* \"#utility.yul\":1995:2279   */\n      iszero\n      tag_347\n      jumpi\n        /* \"#utility.yul\":2096:2102   */\n      dup2\n        /* \"#utility.yul\":2090:2103   */\n      mload\n        /* \"#utility.yul\":2123:2186   */\n      tag_348\n        /* \"#utility.yul\":2182:2185   */\n      dup9\n        /* \"#utility.yul\":2167:2180   */\n      dup3\n        /* \"#utility.yul\":2123:2186   */\n      tag_278\n      jump\t// in\n    tag_348:\n        /* \"#utility.yul\":2116:2186   */\n      swap8\n      pop\n        /* \"#utility.yul\":2209:2269   */\n      tag_349\n        /* \"#utility.yul\":2262:2268   */\n      dup4\n        /* \"#utility.yul\":2209:2269   */\n      tag_279\n      jump\t// in\n    tag_349:\n        /* \"#utility.yul\":2199:2269   */\n      swap3\n      pop\n        /* \"#utility.yul\":2055:2279   */\n      pop\n        /* \"#utility.yul\":2042:2043   */\n      0x01\n        /* \"#utility.yul\":2039:2040   */\n      dup2\n        /* \"#utility.yul\":2035:2044   */\n      add\n        /* \"#utility.yul\":2030:2044   */\n      swap1\n      pop\n        /* \"#utility.yul\":1995:2279   */\n      jump(tag_345)\n    tag_347:\n        /* \"#utility.yul\":1999:2013   */\n      pop\n        /* \"#utility.yul\":2295:2298   */\n      dup6\n        /* \"#utility.yul\":2288:2298   */\n      swap4\n      pop\n        /* \"#utility.yul\":1696:2304   */\n      pop\n      pop\n      pop\n        /* \"#utility.yul\":1572:2304   */\n      swap3\n      swap2\n      pop\n      pop\n      jump\t// out\n        /* \"#utility.yul\":2310:2683   */\n    tag_32:\n        /* \"#utility.yul\":2453:2457   */\n      0x00\n        /* \"#utility.yul\":2491:2493   */\n      0x20\n        /* \"#utility.yul\":2480:2489   */\n      dup3\n        /* \"#utility.yul\":2476:2494   */\n      add\n        /* \"#utility.yul\":2468:2494   */\n      swap1\n      pop\n        /* \"#utility.yul\":2540:2549   */\n      dup2\n        /* \"#utility.yul\":2534:2538   */\n      dup2\n        /* \"#utility.yul\":2530:2550   */\n      sub\n        /* \"#utility.yul\":2526:2527   */\n      0x00\n        /* \"#utility.yul\":2515:2524   */\n      dup4\n        /* \"#utility.yul\":2511:2528   */\n      add\n        /* \"#utility.yul\":2504:2551   */\n      mstore\n        /* \"#utility.yul\":2568:2676   */\n      tag_351\n        /* \"#utility.yul\":2671:2675   */\n      dup2\n        /* \"#utility.yul\":2662:2668   */\n      dup5\n        /* \"#utility.yul\":2568:2676   */\n      tag_280\n      jump\t// in\n    tag_351:\n        /* \"#utility.yul\":2560:2676   */\n      swap1\n      pop\n        /* \"#utility.yul\":2310:2683   */\n      swap3\n      swap2\n      pop\n      pop\n      jump\t// out\n        /* \"#utility.yul\":2689:2807   */\n    tag_281:\n        /* \"#utility.yul\":2776:2800   */\n      tag_353\n        /* \"#utility.yul\":2794:2799   */\n      dup2\n        /* \"#utility.yul\":2776:2800   */\n      tag_276\n      jump\t// in\n    tag_353:\n        /* \"#utility.yul\":2771:2774   */\n      dup3\n        /* \"#utility.yul\":2764:2801   */\n      mstore\n        /* \"#utility.yul\":2689:2807   */\n      pop\n      pop\n      jump\t// out\n        /* \"#utility.yul\":2813:3035   */\n    tag_42:\n        /* \"#utility.yul\":2906:2910   */\n      0x00\n        /* \"#utility.yul\":2944:2946   */\n      0x20\n        /* \"#utility.yul\":2933:2942   */\n      dup3\n        /* \"#utility.yul\":2929:2947   */\n      add\n        /* \"#utility.yul\":2921:2947   */\n      swap1\n      pop\n        /* \"#utility.yul\":2957:3028   */\n      tag_355\n        /* \"#utility.yul\":3025:3026   */\n      0x00\n        /* \"#utility.yul\":3014:3023   */\n      dup4\n        /* \"#utility.yul\":3010:3027   */\n      add\n        /* \"#utility.yul\":3001:3007   */\n      dup5\n        /* \"#utility.yul\":2957:3028   */\n      tag_281\n      jump\t// in\n    tag_355:\n        /* \"#utility.yul\":2813:3035   */\n      swap3\n      swap2\n      pop\n      pop\n      jump\t// out\n        /* \"#utility.yul\":3041:3116   */\n    tag_282:\n        /* \"#utility.yul\":3074:3080   */\n      0x00\n        /* \"#utility.yul\":3107:3109   */\n      0x40\n        /* \"#utility.yul\":3101:3110   */\n      mload\n        /* \"#utility.yul\":3091:3110   */\n      swap1\n      pop\n        /* \"#utility.yul\":3041:3116   */\n      swap1\n      jump\t// out\n        /* \"#utility.yul\":3122:3239   */\n    tag_283:\n        /* \"#utility.yul\":3231:3232   */\n      0x00\n        /* \"#utility.yul\":3228:3229   */\n      dup1\n        /* \"#utility.yul\":3221:3233   */\n      revert\n        /* \"#utility.yul\":3245:3362   */\n    tag_284:\n        /* \"#utility.yul\":3354:3355   */\n      0x00\n        /* \"#utility.yul\":3351:3352   */\n      dup1\n        /* \"#utility.yul\":3344:3356   */\n      revert\n        /* \"#utility.yul\":3368:3490   */\n    tag_285:\n        /* \"#utility.yul\":3441:3465   */\n      tag_360\n        /* \"#utility.yul\":3459:3464   */\n      dup2\n        /* \"#utility.yul\":3441:3465   */\n      tag_276\n      jump\t// in\n    tag_360:\n        /* \"#utility.yul\":3434:3439   */\n      dup2\n        /* \"#utility.yul\":3431:3466   */\n      eq\n        /* \"#utility.yul\":3421:3484   */\n      tag_361\n      jumpi\n        /* \"#utility.yul\":3480:3481   */\n      0x00\n        /* \"#utility.yul\":3477:3478   */\n      dup1\n        /* \"#utility.yul\":3470:3482   */\n      revert\n        /* \"#utility.yul\":3421:3484   */\n    tag_361:\n        /* \"#utility.yul\":3368:3490   */\n      pop\n      jump\t// out\n        /* \"#utility.yul\":3496:3635   */\n    tag_286:\n        /* \"#utility.yul\":3542:3547   */\n      0x00\n        /* \"#utility.yul\":3580:3586   */\n      dup2\n        /* \"#utility.yul\":3567:3587   */\n      calldataload\n        /* \"#utility.yul\":3558:3587   */\n      swap1\n      pop\n        /* \"#utility.yul\":3596:3629   */\n      tag_363\n        /* \"#utility.yul\":3623:3628   */\n      dup2\n        /* \"#utility.yul\":3596:3629   */\n      tag_285\n      jump\t// in\n    tag_363:\n        /* \"#utility.yul\":3496:3635   */\n      swap3\n      swap2\n      pop\n      pop\n      jump\t// out\n        /* \"#utility.yul\":3641:3970   */\n    tag_45:\n        /* \"#utility.yul\":3700:3706   */\n      0x00\n        /* \"#utility.yul\":3749:3751   */\n      0x20\n        /* \"#utility.yul\":3737:3746   */\n      dup3\n        /* \"#utility.yul\":3728:3735   */\n      dup5\n        /* \"#utility.yul\":3724:3747   */\n      sub\n        /* \"#utility.yul\":3720:3752   */\n      slt\n        /* \"#utility.yul\":3717:3836   */\n      iszero\n      tag_365\n      jumpi\n        /* \"#utility.yul\":3755:3834   */\n      tag_366\n      tag_283\n      jump\t// in\n    tag_366:\n        /* \"#utility.yul\":3717:3836   */\n    tag_365:\n        /* \"#utility.yul\":3875:3876   */\n      0x00\n        /* \"#utility.yul\":3900:3953   */\n      tag_367\n        /* \"#utility.yul\":3945:3952   */\n      dup5\n        /* \"#utility.yul\":3936:3942   */\n      dup3\n        /* \"#utility.yul\":3925:3934   */\n      dup6\n        /* \"#utility.yul\":3921:3943   */\n      add\n        /* \"#utility.yul\":3900:3953   */\n      tag_286\n      jump\t// in\n    tag_367:\n        /* \"#utility.yul\":3890:3953   */\n      swap2\n      pop\n        /* \"#utility.yul\":3846:3963   */\n      pop\n        /* \"#utility.yul\":3641:3970   */\n      swap3\n      swap2\n      pop\n      pop\n      jump\t// out\n        /* \"#utility.yul\":3976:4098   */\n    tag_287:\n        /* \"#utility.yul\":4049:4073   */\n      tag_369\n        /* \"#utility.yul\":4067:4072   */\n      dup2\n        /* \"#utility.yul\":4049:4073   */\n      tag_270\n      jump\t// in\n    tag_369:\n        /* \"#utility.yul\":4042:4047   */\n      dup2\n        /* \"#utility.yul\":4039:4074   */\n      eq\n        /* \"#utility.yul\":4029:4092   */\n      tag_370\n      jumpi\n        /* \"#utility.yul\":4088:4089   */\n      0x00\n        /* \"#utility.yul\":4085:4086   */\n      dup1\n        /* \"#utility.yul\":4078:4090   */\n      revert\n        /* \"#utility.yul\":4029:4092   */\n    tag_370:\n        /* \"#utility.yul\":3976:4098   */\n      pop\n      jump\t// out\n        /* \"#utility.yul\":4104:4243   */\n    tag_288:\n        /* \"#utility.yul\":4150:4155   */\n      0x00\n        /* \"#utility.yul\":4188:4194   */\n      dup2\n        /* \"#utility.yul\":4175:4195   */\n      calldataload\n        /* \"#utility.yul\":4166:4195   */\n      swap1\n      pop\n        /* \"#utility.yul\":4204:4237   */\n      tag_372\n        /* \"#utility.yul\":4231:4236   */\n      dup2\n        /* \"#utility.yul\":4204:4237   */\n      tag_287\n      jump\t// in\n    tag_372:\n        /* \"#utility.yul\":4104:4243   */\n      swap3\n      swap2\n      pop\n      pop\n      jump\t// out\n        /* \"#utility.yul\":4249:4578   */\n    tag_61:\n        /* \"#utility.yul\":4308:4314   */\n      0x00\n        /* \"#utility.yul\":4357:4359   */\n      0x20\n        /* \"#utility.yul\":4345:4354   */\n      dup3\n        /* \"#utility.yul\":4336:4343   */\n      dup5\n        /* \"#utility.yul\":4332:4355   */\n      sub\n        /* \"#utility.yul\":4328:4360   */\n      slt\n        /* \"#utility.yul\":4325:4444   */\n      iszero\n      tag_374\n      jumpi\n        /* \"#utility.yul\":4363:4442   */\n      tag_375\n      tag_283\n      jump\t// in\n    tag_375:\n        /* \"#utility.yul\":4325:4444   */\n    tag_374:\n        /* \"#utility.yul\":4483:4484   */\n      0x00\n        /* \"#utility.yul\":4508:4561   */\n      tag_376\n        /* \"#utility.yul\":4553:4560   */\n      dup5\n        /* \"#utility.yul\":4544:4550   */\n      dup3\n        /* \"#utility.yul\":4533:4542   */\n      dup6\n        /* \"#utility.yul\":4529:4551   */\n      add\n        /* \"#utility.yul\":4508:4561   */\n      tag_288\n      jump\t// in\n    tag_376:\n        /* \"#utility.yul\":4498:4561   */\n      swap2\n      pop\n        /* \"#utility.yul\":4454:4571   */\n      pop\n        /* \"#utility.yul\":4249:4578   */\n      swap3\n      swap2\n      pop\n      pop\n      jump\t// out\n        /* \"#utility.yul\":4584:4701   */\n    tag_289:\n        /* \"#utility.yul\":4693:4694   */\n      0x00\n        /* \"#utility.yul\":4690:4691   */\n      dup1\n        /* \"#utility.yul\":4683:4695   */\n      revert\n        /* \"#utility.yul\":4707:4809   */\n    tag_290:\n        /* \"#utility.yul\":4748:4754   */\n      0x00\n        /* \"#utility.yul\":4799:4801   */\n      0x1f\n        /* \"#utility.yul\":4795:4802   */\n      not\n        /* \"#utility.yul\":4790:4792   */\n      0x1f\n        /* \"#utility.yul\":4783:4788   */\n      dup4\n        /* \"#utility.yul\":4779:4793   */\n      add\n        /* \"#utility.yul\":4775:4803   */\n      and\n        /* \"#utility.yul\":4765:4803   */\n      swap1\n      pop\n        /* \"#utility.yul\":4707:4809   */\n      swap2\n      swap1\n      pop\n      jump\t// out\n        /* \"#utility.yul\":4815:4995   */\n    tag_291:\n        /* \"#utility.yul\":4863:4940   */\n      0x4e487b7100000000000000000000000000000000000000000000000000000000\n        /* \"#utility.yul\":4860:4861   */\n      0x00\n        /* \"#utility.yul\":4853:4941   */\n      mstore\n        /* \"#utility.yul\":4960:4964   */\n      0x41\n        /* \"#utility.yul\":4957:4958   */\n      0x04\n        /* \"#utility.yul\":4950:4965   */\n      mstore\n        /* \"#utility.yul\":4984:4988   */\n      0x24\n        /* \"#utility.yul\":4981:4982   */\n      0x00\n        /* \"#utility.yul\":4974:4989   */\n      revert\n        /* \"#utility.yul\":5001:5282   */\n    tag_292:\n        /* \"#utility.yul\":5084:5111   */\n      tag_381\n        /* \"#utility.yul\":5106:5110   */\n      dup3\n        /* \"#utility.yul\":5084:5111   */\n      tag_290\n      jump\t// in\n    tag_381:\n        /* \"#utility.yul\":5076:5082   */\n      dup2\n        /* \"#utility.yul\":5072:5112   */\n      add\n        /* \"#utility.yul\":5214:5220   */\n      dup2\n        /* \"#utility.yul\":5202:5212   */\n      dup2\n        /* \"#utility.yul\":5199:5221   */\n      lt\n        /* \"#utility.yul\":5178:5196   */\n      0xffffffffffffffff\n        /* \"#utility.yul\":5166:5176   */\n      dup3\n        /* \"#utility.yul\":5163:5197   */\n      gt\n        /* \"#utility.yul\":5160:5222   */\n      or\n        /* \"#utility.yul\":5157:5245   */\n      iszero\n      tag_382\n      jumpi\n        /* \"#utility.yul\":5225:5243   */\n      tag_383\n      tag_291\n      jump\t// in\n    tag_383:\n        /* \"#utility.yul\":5157:5245   */\n    tag_382:\n        /* \"#utility.yul\":5265:5275   */\n      dup1\n        /* \"#utility.yul\":5261:5263   */\n      0x40\n        /* \"#utility.yul\":5254:5276   */\n      mstore\n        /* \"#utility.yul\":5044:5282   */\n      pop\n        /* \"#utility.yul\":5001:5282   */\n      pop\n      pop\n      jump\t// out\n        /* \"#utility.yul\":5288:5417   */\n    tag_293:\n        /* \"#utility.yul\":5322:5328   */\n      0x00\n        /* \"#utility.yul\":5349:5369   */\n      tag_385\n      tag_282\n      jump\t// in\n    tag_385:\n        /* \"#utility.yul\":5339:5369   */\n      swap1\n      pop\n        /* \"#utility.yul\":5378:5411   */\n      tag_386\n        /* \"#utility.yul\":5406:5410   */\n      dup3\n        /* \"#utility.yul\":5398:5404   */\n      dup3\n        /* \"#utility.yul\":5378:5411   */\n      tag_292\n      jump\t// in\n    tag_386:\n        /* \"#utility.yul\":5288:5417   */\n      swap2\n      swap1\n      pop\n      jump\t// out\n        /* \"#utility.yul\":5423:5734   */\n    tag_294:\n        /* \"#utility.yul\":5500:5504   */\n      0x00\n        /* \"#utility.yul\":5590:5608   */\n      0xffffffffffffffff\n        /* \"#utility.yul\":5582:5588   */\n      dup3\n        /* \"#utility.yul\":5579:5609   */\n      gt\n        /* \"#utility.yul\":5576:5632   */\n      iszero\n      tag_388\n      jumpi\n        /* \"#utility.yul\":5612:5630   */\n      tag_389\n      tag_291\n      jump\t// in\n    tag_389:\n        /* \"#utility.yul\":5576:5632   */\n    tag_388:\n        /* \"#utility.yul\":5662:5666   */\n      0x20\n        /* \"#utility.yul\":5654:5660   */\n      dup3\n        /* \"#utility.yul\":5650:5667   */\n      mul\n        /* \"#utility.yul\":5642:5667   */\n      swap1\n      pop\n        /* \"#utility.yul\":5722:5726   */\n      0x20\n        /* \"#utility.yul\":5716:5720   */\n      dup2\n        /* \"#utility.yul\":5712:5727   */\n      add\n        /* \"#utility.yul\":5704:5727   */\n      swap1\n      pop\n        /* \"#utility.yul\":5423:5734   */\n      swap2\n      swap1\n      pop\n      jump\t// out\n        /* \"#utility.yul\":5740:5857   */\n    tag_295:\n        /* \"#utility.yul\":5849:5850   */\n      0x00\n        /* \"#utility.yul\":5846:5847   */\n      dup1\n        /* \"#utility.yul\":5839:5851   */\n      revert\n        /* \"#utility.yul\":5880:6590   */\n    tag_296:\n        /* \"#utility.yul\":5976:5981   */\n      0x00\n        /* \"#utility.yul\":6001:6082   */\n      tag_392\n        /* \"#utility.yul\":6017:6081   */\n      tag_393\n        /* \"#utility.yul\":6074:6080   */\n      dup5\n        /* \"#utility.yul\":6017:6081   */\n      tag_294\n      jump\t// in\n    tag_393:\n        /* \"#utility.yul\":6001:6082   */\n      tag_293\n      jump\t// in\n    tag_392:\n        /* \"#utility.yul\":5992:6082   */\n      swap1\n      pop\n        /* \"#utility.yul\":6102:6107   */\n      dup1\n        /* \"#utility.yul\":6131:6137   */\n      dup4\n        /* \"#utility.yul\":6124:6129   */\n      dup3\n        /* \"#utility.yul\":6117:6138   */\n      mstore\n        /* \"#utility.yul\":6165:6169   */\n      0x20\n        /* \"#utility.yul\":6158:6163   */\n      dup3\n        /* \"#utility.yul\":6154:6170   */\n      add\n        /* \"#utility.yul\":6147:6170   */\n      swap1\n      pop\n        /* \"#utility.yul\":6218:6222   */\n      0x20\n        /* \"#utility.yul\":6210:6216   */\n      dup5\n        /* \"#utility.yul\":6206:6223   */\n      mul\n        /* \"#utility.yul\":6198:6204   */\n      dup4\n        /* \"#utility.yul\":6194:6224   */\n      add\n        /* \"#utility.yul\":6247:6250   */\n      dup6\n        /* \"#utility.yul\":6239:6245   */\n      dup2\n        /* \"#utility.yul\":6236:6251   */\n      gt\n        /* \"#utility.yul\":6233:6355   */\n      iszero\n      tag_394\n      jumpi\n        /* \"#utility.yul\":6266:6345   */\n      tag_395\n      tag_295\n      jump\t// in\n    tag_395:\n        /* \"#utility.yul\":6233:6355   */\n    tag_394:\n        /* \"#utility.yul\":6381:6387   */\n      dup4\n        /* \"#utility.yul\":6364:6584   */\n    tag_396:\n        /* \"#utility.yul\":6398:6404   */\n      dup2\n        /* \"#utility.yul\":6393:6396   */\n      dup2\n        /* \"#utility.yul\":6390:6405   */\n      lt\n        /* \"#utility.yul\":6364:6584   */\n      iszero\n      tag_398\n      jumpi\n        /* \"#utility.yul\":6473:6476   */\n      dup1\n        /* \"#utility.yul\":6502:6539   */\n      tag_399\n        /* \"#utility.yul\":6535:6538   */\n      dup9\n        /* \"#utility.yul\":6523:6533   */\n      dup3\n        /* \"#utility.yul\":6502:6539   */\n      tag_286\n      jump\t// in\n    tag_399:\n        /* \"#utility.yul\":6497:6500   */\n      dup5\n        /* \"#utility.yul\":6490:6540   */\n      mstore\n        /* \"#utility.yul\":6569:6573   */\n      0x20\n        /* \"#utility.yul\":6564:6567   */\n      dup5\n        /* \"#utility.yul\":6560:6574   */\n      add\n        /* \"#utility.yul\":6553:6574   */\n      swap4\n      pop\n        /* \"#utility.yul\":6440:6584   */\n      pop\n        /* \"#utility.yul\":6424:6428   */\n      0x20\n        /* \"#utility.yul\":6419:6422   */\n      dup2\n        /* \"#utility.yul\":6415:6429   */\n      add\n        /* \"#utility.yul\":6408:6429   */\n      swap1\n      pop\n        /* \"#utility.yul\":6364:6584   */\n      jump(tag_396)\n    tag_398:\n        /* \"#utility.yul\":6368:6389   */\n      pop\n        /* \"#utility.yul\":5982:6590   */\n      pop\n      pop\n        /* \"#utility.yul\":5880:6590   */\n      swap4\n      swap3\n      pop\n      pop\n      pop\n      jump\t// out\n        /* \"#utility.yul\":6613:6983   */\n    tag_297:\n        /* \"#utility.yul\":6684:6689   */\n      0x00\n        /* \"#utility.yul\":6733:6736   */\n      dup3\n        /* \"#utility.yul\":6726:6730   */\n      0x1f\n        /* \"#utility.yul\":6718:6724   */\n      dup4\n        /* \"#utility.yul\":6714:6731   */\n      add\n        /* \"#utility.yul\":6710:6737   */\n      slt\n        /* \"#utility.yul\":6700:6822   */\n      tag_401\n      jumpi\n        /* \"#utility.yul\":6741:6820   */\n      tag_402\n      tag_289\n      jump\t// in\n    tag_402:\n        /* \"#utility.yul\":6700:6822   */\n    tag_401:\n        /* \"#utility.yul\":6858:6864   */\n      dup2\n        /* \"#utility.yul\":6845:6865   */\n      calldataload\n        /* \"#utility.yul\":6883:6977   */\n      tag_403\n        /* \"#utility.yul\":6973:6976   */\n      dup5\n        /* \"#utility.yul\":6965:6971   */\n      dup3\n        /* \"#utility.yul\":6958:6962   */\n      0x20\n        /* \"#utility.yul\":6950:6956   */\n      dup7\n        /* \"#utility.yul\":6946:6963   */\n      add\n        /* \"#utility.yul\":6883:6977   */\n      tag_296\n      jump\t// in\n    tag_403:\n        /* \"#utility.yul\":6874:6977   */\n      swap2\n      pop\n        /* \"#utility.yul\":6690:6983   */\n      pop\n        /* \"#utility.yul\":6613:6983   */\n      swap3\n      swap2\n      pop\n      pop\n      jump\t// out\n        /* \"#utility.yul\":6989:7528   */\n    tag_69:\n        /* \"#utility.yul\":7073:7079   */\n      0x00\n        /* \"#utility.yul\":7122:7124   */\n      0x20\n        /* \"#utility.yul\":7110:7119   */\n      dup3\n        /* \"#utility.yul\":7101:7108   */\n      dup5\n        /* \"#utility.yul\":7097:7120   */\n      sub\n        /* \"#utility.yul\":7093:7125   */\n      slt\n        /* \"#utility.yul\":7090:7209   */\n      iszero\n      tag_405\n      jumpi\n        /* \"#utility.yul\":7128:7207   */\n      tag_406\n      tag_283\n      jump\t// in\n    tag_406:\n        /* \"#utility.yul\":7090:7209   */\n    tag_405:\n        /* \"#utility.yul\":7276:7277   */\n      0x00\n        /* \"#utility.yul\":7265:7274   */\n      dup3\n        /* \"#utility.yul\":7261:7278   */\n      add\n        /* \"#utility.yul\":7248:7279   */\n      calldataload\n        /* \"#utility.yul\":7306:7324   */\n      0xffffffffffffffff\n        /* \"#utility.yul\":7298:7304   */\n      dup2\n        /* \"#utility.yul\":7295:7325   */\n      gt\n        /* \"#utility.yul\":7292:7409   */\n      iszero\n      tag_407\n      jumpi\n        /* \"#utility.yul\":7328:7407   */\n      tag_408\n      tag_284\n      jump\t// in\n    tag_408:\n        /* \"#utility.yul\":7292:7409   */\n    tag_407:\n        /* \"#utility.yul\":7433:7511   */\n      tag_409\n        /* \"#utility.yul\":7503:7510   */\n      dup5\n        /* \"#utility.yul\":7494:7500   */\n      dup3\n        /* \"#utility.yul\":7483:7492   */\n      dup6\n        /* \"#utility.yul\":7479:7501   */\n      add\n        /* \"#utility.yul\":7433:7511   */\n      tag_297\n      jump\t// in\n    tag_409:\n        /* \"#utility.yul\":7423:7511   */\n      swap2\n      pop\n        /* \"#utility.yul\":7219:7521   */\n      pop\n        /* \"#utility.yul\":6989:7528   */\n      swap3\n      swap2\n      pop\n      pop\n      jump\t// out\n        /* \"#utility.yul\":7534:7681   */\n    tag_298:\n        /* \"#utility.yul\":7634:7640   */\n      0x00\n        /* \"#utility.yul\":7668:7673   */\n      dup2\n        /* \"#utility.yul\":7662:7674   */\n      mload\n        /* \"#utility.yul\":7652:7674   */\n      swap1\n      pop\n        /* \"#utility.yul\":7534:7681   */\n      swap2\n      swap1\n      pop\n      jump\t// out\n        /* \"#utility.yul\":7687:7904   */\n    tag_299:\n        /* \"#utility.yul\":7819:7830   */\n      0x00\n        /* \"#utility.yul\":7853:7859   */\n      dup3\n        /* \"#utility.yul\":7848:7851   */\n      dup3\n        /* \"#utility.yul\":7841:7860   */\n      mstore\n        /* \"#utility.yul\":7893:7897   */\n      0x20\n        /* \"#utility.yul\":7888:7891   */\n      dup3\n        /* \"#utility.yul\":7884:7898   */\n      add\n        /* \"#utility.yul\":7869:7898   */\n      swap1\n      pop\n        /* \"#utility.yul\":7687:7904   */\n      swap3\n      swap2\n      pop\n      pop\n      jump\t// out\n        /* \"#utility.yul\":7910:8075   */\n    tag_300:\n        /* \"#utility.yul\":8010:8014   */\n      0x00\n        /* \"#utility.yul\":8033:8036   */\n      dup2\n        /* \"#utility.yul\":8025:8036   */\n      swap1\n      pop\n        /* \"#utility.yul\":8063:8067   */\n      0x20\n        /* \"#utility.yul\":8058:8061   */\n      dup3\n        /* \"#utility.yul\":8054:8068   */\n      add\n        /* \"#utility.yul\":8046:8068   */\n      swap1\n      pop\n        /* \"#utility.yul\":7910:8075   */\n      swap2\n      swap1\n      pop\n      jump\t// out\n        /* \"#utility.yul\":8081:8189   */\n    tag_301:\n        /* \"#utility.yul\":8158:8182   */\n      tag_414\n        /* \"#utility.yul\":8176:8181   */\n      dup2\n        /* \"#utility.yul\":8158:8182   */\n      tag_270\n      jump\t// in\n    tag_414:\n        /* \"#utility.yul\":8153:8156   */\n      dup3\n        /* \"#utility.yul\":8146:8183   */\n      mstore\n        /* \"#utility.yul\":8081:8189   */\n      pop\n      pop\n      jump\t// out\n        /* \"#utility.yul\":8277:8794   */\n    tag_302:\n        /* \"#utility.yul\":8430:8434   */\n      0x40\n        /* \"#utility.yul\":8425:8428   */\n      dup3\n        /* \"#utility.yul\":8421:8435   */\n      add\n        /* \"#utility.yul\":8519:8523   */\n      0x00\n        /* \"#utility.yul\":8512:8517   */\n      dup3\n        /* \"#utility.yul\":8508:8524   */\n      add\n        /* \"#utility.yul\":8502:8525   */\n      mload\n        /* \"#utility.yul\":8538:8601   */\n      tag_416\n        /* \"#utility.yul\":8595:8599   */\n      0x00\n        /* \"#utility.yul\":8590:8593   */\n      dup6\n        /* \"#utility.yul\":8586:8600   */\n      add\n        /* \"#utility.yul\":8572:8584   */\n      dup3\n        /* \"#utility.yul\":8538:8601   */\n      tag_277\n      jump\t// in\n    tag_416:\n        /* \"#utility.yul\":8445:8611   */\n      pop\n        /* \"#utility.yul\":8695:8699   */\n      0x20\n        /* \"#utility.yul\":8688:8693   */\n      dup3\n        /* \"#utility.yul\":8684:8700   */\n      add\n        /* \"#utility.yul\":8678:8701   */\n      mload\n        /* \"#utility.yul\":8714:8777   */\n      tag_417\n        /* \"#utility.yul\":8771:8775   */\n      0x20\n        /* \"#utility.yul\":8766:8769   */\n      dup6\n        /* \"#utility.yul\":8762:8776   */\n      add\n        /* \"#utility.yul\":8748:8760   */\n      dup3\n        /* \"#utility.yul\":8714:8777   */\n      tag_301\n      jump\t// in\n    tag_417:\n        /* \"#utility.yul\":8621:8787   */\n      pop\n        /* \"#utility.yul\":8399:8794   */\n      pop\n        /* \"#utility.yul\":8277:8794   */\n      pop\n      pop\n      jump\t// out\n        /* \"#utility.yul\":8800:9111   */\n    tag_303:\n        /* \"#utility.yul\":8935:8945   */\n      0x00\n        /* \"#utility.yul\":8956:9068   */\n      tag_419\n        /* \"#utility.yul\":9064:9067   */\n      dup4\n        /* \"#utility.yul\":9056:9062   */\n      dup4\n        /* \"#utility.yul\":8956:9068   */\n      tag_302\n      jump\t// in\n    tag_419:\n        /* \"#utility.yul\":9100:9104   */\n      0x40\n        /* \"#utility.yul\":9095:9098   */\n      dup4\n        /* \"#utility.yul\":9091:9105   */\n      add\n        /* \"#utility.yul\":9077:9105   */\n      swap1\n      pop\n        /* \"#utility.yul\":8800:9111   */\n      swap3\n      swap2\n      pop\n      pop\n      jump\t// out\n        /* \"#utility.yul\":9117:9263   */\n    tag_304:\n        /* \"#utility.yul\":9220:9224   */\n      0x00\n        /* \"#utility.yul\":9252:9256   */\n      0x20\n        /* \"#utility.yul\":9247:9250   */\n      dup3\n        /* \"#utility.yul\":9243:9257   */\n      add\n        /* \"#utility.yul\":9235:9257   */\n      swap1\n      pop\n        /* \"#utility.yul\":9117:9263   */\n      swap2\n      swap1\n      pop\n      jump\t// out\n        /* \"#utility.yul\":9355:10351   */\n    tag_305:\n        /* \"#utility.yul\":9540:9543   */\n      0x00\n        /* \"#utility.yul\":9569:9656   */\n      tag_422\n        /* \"#utility.yul\":9650:9655   */\n      dup3\n        /* \"#utility.yul\":9569:9656   */\n      tag_298\n      jump\t// in\n    tag_422:\n        /* \"#utility.yul\":9672:9791   */\n      tag_423\n        /* \"#utility.yul\":9784:9790   */\n      dup2\n        /* \"#utility.yul\":9779:9782   */\n      dup6\n        /* \"#utility.yul\":9672:9791   */\n      tag_299\n      jump\t// in\n    tag_423:\n        /* \"#utility.yul\":9665:9791   */\n      swap4\n      pop\n        /* \"#utility.yul\":9815:9904   */\n      tag_424\n        /* \"#utility.yul\":9898:9903   */\n      dup4\n        /* \"#utility.yul\":9815:9904   */\n      tag_300\n      jump\t// in\n    tag_424:\n        /* \"#utility.yul\":9927:9934   */\n      dup1\n        /* \"#utility.yul\":9958:9959   */\n      0x00\n        /* \"#utility.yul\":9943:10326   */\n    tag_425:\n        /* \"#utility.yul\":9968:9974   */\n      dup4\n        /* \"#utility.yul\":9965:9966   */\n      dup2\n        /* \"#utility.yul\":9962:9975   */\n      lt\n        /* \"#utility.yul\":9943:10326   */\n      iszero\n      tag_427\n      jumpi\n        /* \"#utility.yul\":10044:10050   */\n      dup2\n        /* \"#utility.yul\":10038:10051   */\n      mload\n        /* \"#utility.yul\":10071:10200   */\n      tag_428\n        /* \"#utility.yul\":10196:10199   */\n      dup9\n        /* \"#utility.yul\":10181:10194   */\n      dup3\n        /* \"#utility.yul\":10071:10200   */\n      tag_303\n      jump\t// in\n    tag_428:\n        /* \"#utility.yul\":10064:10200   */\n      swap8\n      pop\n        /* \"#utility.yul\":10223:10316   */\n      tag_429\n        /* \"#utility.yul\":10309:10315   */\n      dup4\n        /* \"#utility.yul\":10223:10316   */\n      tag_304\n      jump\t// in\n    tag_429:\n        /* \"#utility.yul\":10213:10316   */\n      swap3\n      pop\n        /* \"#utility.yul\":10003:10326   */\n      pop\n        /* \"#utility.yul\":9990:9991   */\n      0x01\n        /* \"#utility.yul\":9987:9988   */\n      dup2\n        /* \"#utility.yul\":9983:9992   */\n      add\n        /* \"#utility.yul\":9978:9992   */\n      swap1\n      pop\n        /* \"#utility.yul\":9943:10326   */\n      jump(tag_425)\n    tag_427:\n        /* \"#utility.yul\":9947:9961   */\n      pop\n        /* \"#utility.yul\":10342:10345   */\n      dup6\n        /* \"#utility.yul\":10335:10345   */\n      swap4\n      pop\n        /* \"#utility.yul\":9545:10351   */\n      pop\n      pop\n      pop\n        /* \"#utility.yul\":9355:10351   */\n      swap3\n      swap2\n      pop\n      pop\n      jump\t// out\n        /* \"#utility.yul\":10357:10862   */\n    tag_74:\n        /* \"#utility.yul\":10566:10570   */\n      0x00\n        /* \"#utility.yul\":10604:10606   */\n      0x20\n        /* \"#utility.yul\":10593:10602   */\n      dup3\n        /* \"#utility.yul\":10589:10607   */\n      add\n        /* \"#utility.yul\":10581:10607   */\n      swap1\n      pop\n        /* \"#utility.yul\":10653:10662   */\n      dup2\n        /* \"#utility.yul\":10647:10651   */\n      dup2\n        /* \"#utility.yul\":10643:10663   */\n      sub\n        /* \"#utility.yul\":10639:10640   */\n      0x00\n        /* \"#utility.yul\":10628:10637   */\n      dup4\n        /* \"#utility.yul\":10624:10641   */\n      add\n        /* \"#utility.yul\":10617:10664   */\n      mstore\n        /* \"#utility.yul\":10681:10855   */\n      tag_431\n        /* \"#utility.yul\":10850:10854   */\n      dup2\n        /* \"#utility.yul\":10841:10847   */\n      dup5\n        /* \"#utility.yul\":10681:10855   */\n      tag_305\n      jump\t// in\n    tag_431:\n        /* \"#utility.yul\":10673:10855   */\n      swap1\n      pop\n        /* \"#utility.yul\":10357:10862   */\n      swap3\n      swap2\n      pop\n      pop\n      jump\t// out\n        /* \"#utility.yul\":10868:11037   */\n    tag_306:\n        /* \"#utility.yul\":10952:10963   */\n      0x00\n        /* \"#utility.yul\":10986:10992   */\n      dup3\n        /* \"#utility.yul\":10981:10984   */\n      dup3\n        /* \"#utility.yul\":10974:10993   */\n      mstore\n        /* \"#utility.yul\":11026:11030   */\n      0x20\n        /* \"#utility.yul\":11021:11024   */\n      dup3\n        /* \"#utility.yul\":11017:11031   */\n      add\n        /* \"#utility.yul\":11002:11031   */\n      swap1\n      pop\n        /* \"#utility.yul\":10868:11037   */\n      swap3\n      swap2\n      pop\n      pop\n      jump\t// out\n        /* \"#utility.yul\":11043:11265   */\n    tag_307:\n        /* \"#utility.yul\":11183:11217   */\n      0x6f6e6c792061646d696e2063616e20696e766f6b6520746869732066756e6374\n        /* \"#utility.yul\":11179:11180   */\n      0x00\n        /* \"#utility.yul\":11171:11177   */\n      dup3\n        /* \"#utility.yul\":11167:11181   */\n      add\n        /* \"#utility.yul\":11160:11218   */\n      mstore\n        /* \"#utility.yul\":11252:11257   */\n      0x696f6e0000000000000000000000000000000000000000000000000000000000\n        /* \"#utility.yul\":11247:11249   */\n      0x20\n        /* \"#utility.yul\":11239:11245   */\n      dup3\n        /* \"#utility.yul\":11235:11250   */\n      add\n        /* \"#utility.yul\":11228:11258   */\n      mstore\n        /* \"#utility.yul\":11043:11265   */\n      pop\n      jump\t// out\n        /* \"#utility.yul\":11271:11637   */\n    tag_308:\n        /* \"#utility.yul\":11413:11416   */\n      0x00\n        /* \"#utility.yul\":11434:11501   */\n      tag_435\n        /* \"#utility.yul\":11498:11500   */\n      0x23\n        /* \"#utility.yul\":11493:11496   */\n      dup4\n        /* \"#utility.yul\":11434:11501   */\n      tag_306\n      jump\t// in\n    tag_435:\n        /* \"#utility.yul\":11427:11501   */\n      swap2\n      pop\n        /* \"#utility.yul\":11510:11603   */\n      tag_436\n        /* \"#utility.yul\":11599:11602   */\n      dup3\n        /* \"#utility.yul\":11510:11603   */\n      tag_307\n      jump\t// in\n    tag_436:\n        /* \"#utility.yul\":11628:11630   */\n      0x40\n        /* \"#utility.yul\":11623:11626   */\n      dup3\n        /* \"#utility.yul\":11619:11631   */\n      add\n        /* \"#utility.yul\":11612:11631   */\n      swap1\n      pop\n        /* \"#utility.yul\":11271:11637   */\n      swap2\n      swap1\n      pop\n      jump\t// out\n        /* \"#utility.yul\":11643:12062   */\n    tag_88:\n        /* \"#utility.yul\":11809:11813   */\n      0x00\n        /* \"#utility.yul\":11847:11849   */\n      0x20\n        /* \"#utility.yul\":11836:11845   */\n      dup3\n        /* \"#utility.yul\":11832:11850   */\n      add\n        /* \"#utility.yul\":11824:11850   */\n      swap1\n      pop\n        /* \"#utility.yul\":11896:11905   */\n      dup2\n        /* \"#utility.yul\":11890:11894   */\n      dup2\n        /* \"#utility.yul\":11886:11906   */\n      sub\n        /* \"#utility.yul\":11882:11883   */\n      0x00\n        /* \"#utility.yul\":11871:11880   */\n      dup4\n        /* \"#utility.yul\":11867:11884   */\n      add\n        /* \"#utility.yul\":11860:11907   */\n      mstore\n        /* \"#utility.yul\":11924:12055   */\n      tag_438\n        /* \"#utility.yul\":12050:12054   */\n      dup2\n        /* \"#utility.yul\":11924:12055   */\n      tag_308\n      jump\t// in\n    tag_438:\n        /* \"#utility.yul\":11916:12055   */\n      swap1\n      pop\n        /* \"#utility.yul\":11643:12062   */\n      swap2\n      swap1\n      pop\n      jump\t// out\n        /* \"#utility.yul\":12068:12248   */\n    tag_95:\n        /* \"#utility.yul\":12116:12193   */\n      0x4e487b7100000000000000000000000000000000000000000000000000000000\n        /* \"#utility.yul\":12113:12114   */\n      0x00\n        /* \"#utility.yul\":12106:12194   */\n      mstore\n        /* \"#utility.yul\":12213:12217   */\n      0x32\n        /* \"#utility.yul\":12210:12211   */\n      0x04\n        /* \"#utility.yul\":12203:12218   */\n      mstore\n        /* \"#utility.yul\":12237:12241   */\n      0x24\n        /* \"#utility.yul\":12234:12235   */\n      0x00\n        /* \"#utility.yul\":12227:12242   */\n      revert\n        /* \"#utility.yul\":12254:12434   */\n    tag_309:\n        /* \"#utility.yul\":12302:12379   */\n      0x4e487b7100000000000000000000000000000000000000000000000000000000\n        /* \"#utility.yul\":12299:12300   */\n      0x00\n        /* \"#utility.yul\":12292:12380   */\n      mstore\n        /* \"#utility.yul\":12399:12403   */\n      0x11\n        /* \"#utility.yul\":12396:12397   */\n      0x04\n        /* \"#utility.yul\":12389:12404   */\n      mstore\n        /* \"#utility.yul\":12423:12427   */\n      0x24\n        /* \"#utility.yul\":12420:12421   */\n      0x00\n        /* \"#utility.yul\":12413:12428   */\n      revert\n        /* \"#utility.yul\":12440:12634   */\n    tag_102:\n        /* \"#utility.yul\":12480:12484   */\n      0x00\n        /* \"#utility.yul\":12500:12520   */\n      tag_442\n        /* \"#utility.yul\":12518:12519   */\n      dup3\n        /* \"#utility.yul\":12500:12520   */\n      tag_270\n      jump\t// in\n    tag_442:\n        /* \"#utility.yul\":12495:12520   */\n      swap2\n      pop\n        /* \"#utility.yul\":12534:12554   */\n      tag_443\n        /* \"#utility.yul\":12552:12553   */\n      dup4\n        /* \"#utility.yul\":12534:12554   */\n      tag_270\n      jump\t// in\n    tag_443:\n        /* \"#utility.yul\":12529:12554   */\n      swap3\n      pop\n        /* \"#utility.yul\":12578:12579   */\n      dup3\n        /* \"#utility.yul\":12575:12576   */\n      dup3\n        /* \"#utility.yul\":12571:12580   */\n      sub\n        /* \"#utility.yul\":12563:12580   */\n      swap1\n      pop\n        /* \"#utility.yul\":12602:12603   */\n      dup2\n        /* \"#utility.yul\":12596:12600   */\n      dup2\n        /* \"#utility.yul\":12593:12604   */\n      gt\n        /* \"#utility.yul\":12590:12627   */\n      iszero\n      tag_444\n      jumpi\n        /* \"#utility.yul\":12607:12625   */\n      tag_445\n      tag_309\n      jump\t// in\n    tag_445:\n        /* \"#utility.yul\":12590:12627   */\n    tag_444:\n        /* \"#utility.yul\":12440:12634   */\n      swap3\n      swap2\n      pop\n      pop\n      jump\t// out\n        /* \"#utility.yul\":12640:12729   */\n    tag_310:\n        /* \"#utility.yul\":12676:12683   */\n      0x00\n        /* \"#utility.yul\":12716:12722   */\n      0xffff\n        /* \"#utility.yul\":12709:12714   */\n      dup3\n        /* \"#utility.yul\":12705:12723   */\n      and\n        /* \"#utility.yul\":12694:12723   */\n      swap1\n      pop\n        /* \"#utility.yul\":12640:12729   */\n      swap2\n      swap1\n      pop\n      jump\t// out\n        /* \"#utility.yul\":12735:12928   */\n    tag_104:\n        /* \"#utility.yul\":12774:12777   */\n      0x00\n        /* \"#utility.yul\":12793:12812   */\n      tag_448\n        /* \"#utility.yul\":12810:12811   */\n      dup3\n        /* \"#utility.yul\":12793:12812   */\n      tag_310\n      jump\t// in\n    tag_448:\n        /* \"#utility.yul\":12788:12812   */\n      swap2\n      pop\n        /* \"#utility.yul\":12826:12845   */\n      tag_449\n        /* \"#utility.yul\":12843:12844   */\n      dup4\n        /* \"#utility.yul\":12826:12845   */\n      tag_310\n      jump\t// in\n    tag_449:\n        /* \"#utility.yul\":12821:12845   */\n      swap3\n      pop\n        /* \"#utility.yul\":12868:12869   */\n      dup3\n        /* \"#utility.yul\":12865:12866   */\n      dup3\n        /* \"#utility.yul\":12861:12870   */\n      add\n        /* \"#utility.yul\":12854:12870   */\n      swap1\n      pop\n        /* \"#utility.yul\":12891:12897   */\n      0xffff\n        /* \"#utility.yul\":12886:12889   */\n      dup2\n        /* \"#utility.yul\":12883:12898   */\n      gt\n        /* \"#utility.yul\":12880:12921   */\n      iszero\n      tag_450\n      jumpi\n        /* \"#utility.yul\":12901:12919   */\n      tag_451\n      tag_309\n      jump\t// in\n    tag_451:\n        /* \"#utility.yul\":12880:12921   */\n    tag_450:\n        /* \"#utility.yul\":12735:12928   */\n      swap3\n      swap2\n      pop\n      pop\n      jump\t// out\n        /* \"#utility.yul\":12934:13105   */\n    tag_112:\n        /* \"#utility.yul\":12972:12975   */\n      0x00\n        /* \"#utility.yul\":12995:13018   */\n      tag_453\n        /* \"#utility.yul\":13012:13017   */\n      dup3\n        /* \"#utility.yul\":12995:13018   */\n      tag_310\n      jump\t// in\n    tag_453:\n        /* \"#utility.yul\":12986:13018   */\n      swap2\n      pop\n        /* \"#utility.yul\":13040:13046   */\n      0xffff\n        /* \"#utility.yul\":13033:13038   */\n      dup3\n        /* \"#utility.yul\":13030:13047   */\n      sub\n        /* \"#utility.yul\":13027:13070   */\n      tag_454\n      jumpi\n        /* \"#utility.yul\":13050:13068   */\n      tag_455\n      tag_309\n      jump\t// in\n    tag_455:\n        /* \"#utility.yul\":13027:13070   */\n    tag_454:\n        /* \"#utility.yul\":13097:13098   */\n      0x01\n        /* \"#utility.yul\":13090:13095   */\n      dup3\n        /* \"#utility.yul\":13086:13099   */\n      add\n        /* \"#utility.yul\":13079:13099   */\n      swap1\n      pop\n        /* \"#utility.yul\":12934:13105   */\n      swap2\n      swap1\n      pop\n      jump\t// out\n        /* \"#utility.yul\":13111:13291   */\n    tag_115:\n        /* \"#utility.yul\":13159:13236   */\n      0x4e487b7100000000000000000000000000000000000000000000000000000000\n        /* \"#utility.yul\":13156:13157   */\n      0x00\n        /* \"#utility.yul\":13149:13237   */\n      mstore\n        /* \"#utility.yul\":13256:13260   */\n      0x31\n        /* \"#utility.yul\":13253:13254   */\n      0x04\n        /* \"#utility.yul\":13246:13261   */\n      mstore\n        /* \"#utility.yul\":13280:13284   */\n      0x24\n        /* \"#utility.yul\":13277:13278   */\n      0x00\n        /* \"#utility.yul\":13270:13285   */\n      revert\n        /* \"#utility.yul\":13297:13488   */\n    tag_120:\n        /* \"#utility.yul\":13337:13340   */\n      0x00\n        /* \"#utility.yul\":13356:13376   */\n      tag_458\n        /* \"#utility.yul\":13374:13375   */\n      dup3\n        /* \"#utility.yul\":13356:13376   */\n      tag_270\n      jump\t// in\n    tag_458:\n        /* \"#utility.yul\":13351:13376   */\n      swap2\n      pop\n        /* \"#utility.yul\":13390:13410   */\n      tag_459\n        /* \"#utility.yul\":13408:13409   */\n      dup4\n        /* \"#utility.yul\":13390:13410   */\n      tag_270\n      jump\t// in\n    tag_459:\n        /* \"#utility.yul\":13385:13410   */\n      swap3\n      pop\n        /* \"#utility.yul\":13433:13434   */\n      dup3\n        /* \"#utility.yul\":13430:13431   */\n      dup3\n        /* \"#utility.yul\":13426:13435   */\n      add\n        /* \"#utility.yul\":13419:13435   */\n      swap1\n      pop\n        /* \"#utility.yul\":13454:13457   */\n      dup1\n        /* \"#utility.yul\":13451:13452   */\n      dup3\n        /* \"#utility.yul\":13448:13458   */\n      gt\n        /* \"#utility.yul\":13445:13481   */\n      iszero\n      tag_460\n      jumpi\n        /* \"#utility.yul\":13461:13479   */\n      tag_461\n      tag_309\n      jump\t// in\n    tag_461:\n        /* \"#utility.yul\":13445:13481   */\n    tag_460:\n        /* \"#utility.yul\":13297:13488   */\n      swap3\n      swap2\n      pop\n      pop\n      jump\t// out\n        /* \"#utility.yul\":13494:13674   */\n    tag_311:\n        /* \"#utility.yul\":13542:13619   */\n      0x4e487b7100000000000000000000000000000000000000000000000000000000\n        /* \"#utility.yul\":13539:13540   */\n      0x00\n        /* \"#utility.yul\":13532:13620   */\n      mstore\n        /* \"#utility.yul\":13639:13643   */\n      0x12\n        /* \"#utility.yul\":13636:13637   */\n      0x04\n        /* \"#utility.yul\":13629:13644   */\n      mstore\n        /* \"#utility.yul\":13663:13667   */\n      0x24\n        /* \"#utility.yul\":13660:13661   */\n      0x00\n        /* \"#utility.yul\":13653:13668   */\n      revert\n        /* \"#utility.yul\":13680:13856   */\n    tag_125:\n        /* \"#utility.yul\":13712:13713   */\n      0x00\n        /* \"#utility.yul\":13729:13749   */\n      tag_464\n        /* \"#utility.yul\":13747:13748   */\n      dup3\n        /* \"#utility.yul\":13729:13749   */\n      tag_270\n      jump\t// in\n    tag_464:\n        /* \"#utility.yul\":13724:13749   */\n      swap2\n      pop\n        /* \"#utility.yul\":13763:13783   */\n      tag_465\n        /* \"#utility.yul\":13781:13782   */\n      dup4\n        /* \"#utility.yul\":13763:13783   */\n      tag_270\n      jump\t// in\n    tag_465:\n        /* \"#utility.yul\":13758:13783   */\n      swap3\n      pop\n        /* \"#utility.yul\":13802:13803   */\n      dup3\n        /* \"#utility.yul\":13792:13827   */\n      tag_466\n      jumpi\n        /* \"#utility.yul\":13807:13825   */\n      tag_467\n      tag_311\n      jump\t// in\n    tag_467:\n        /* \"#utility.yul\":13792:13827   */\n    tag_466:\n        /* \"#utility.yul\":13848:13849   */\n      dup3\n        /* \"#utility.yul\":13845:13846   */\n      dup3\n        /* \"#utility.yul\":13841:13850   */\n      mod\n        /* \"#utility.yul\":13836:13850   */\n      swap1\n      pop\n        /* \"#utility.yul\":13680:13856   */\n      swap3\n      swap2\n      pop\n      pop\n      jump\t// out\n        /* \"#utility.yul\":13862:14033   */\n    tag_312:\n        /* \"#utility.yul\":14002:14025   */\n      0x4e6f7420616e20656c696769626c652075736572210000000000000000000000\n        /* \"#utility.yul\":13998:13999   */\n      0x00\n        /* \"#utility.yul\":13990:13996   */\n      dup3\n        /* \"#utility.yul\":13986:14000   */\n      add\n        /* \"#utility.yul\":13979:14026   */\n      mstore\n        /* \"#utility.yul\":13862:14033   */\n      pop\n      jump\t// out\n        /* \"#utility.yul\":14039:14405   */\n    tag_313:\n        /* \"#utility.yul\":14181:14184   */\n      0x00\n        /* \"#utility.yul\":14202:14269   */\n      tag_470\n        /* \"#utility.yul\":14266:14268   */\n      0x15\n        /* \"#utility.yul\":14261:14264   */\n      dup4\n        /* \"#utility.yul\":14202:14269   */\n      tag_306\n      jump\t// in\n    tag_470:\n        /* \"#utility.yul\":14195:14269   */\n      swap2\n      pop\n        /* \"#utility.yul\":14278:14371   */\n      tag_471\n        /* \"#utility.yul\":14367:14370   */\n      dup3\n        /* \"#utility.yul\":14278:14371   */\n      tag_312\n      jump\t// in\n    tag_471:\n        /* \"#utility.yul\":14396:14398   */\n      0x20\n        /* \"#utility.yul\":14391:14394   */\n      dup3\n        /* \"#utility.yul\":14387:14399   */\n      add\n        /* \"#utility.yul\":14380:14399   */\n      swap1\n      pop\n        /* \"#utility.yul\":14039:14405   */\n      swap2\n      swap1\n      pop\n      jump\t// out\n        /* \"#utility.yul\":14411:14830   */\n    tag_129:\n        /* \"#utility.yul\":14577:14581   */\n      0x00\n        /* \"#utility.yul\":14615:14617   */\n      0x20\n        /* \"#utility.yul\":14604:14613   */\n      dup3\n        /* \"#utility.yul\":14600:14618   */\n      add\n        /* \"#utility.yul\":14592:14618   */\n      swap1\n      pop\n        /* \"#utility.yul\":14664:14673   */\n      dup2\n        /* \"#utility.yul\":14658:14662   */\n      dup2\n        /* \"#utility.yul\":14654:14674   */\n      sub\n        /* \"#utility.yul\":14650:14651   */\n      0x00\n        /* \"#utility.yul\":14639:14648   */\n      dup4\n        /* \"#utility.yul\":14635:14652   */\n      add\n        /* \"#utility.yul\":14628:14675   */\n      mstore\n        /* \"#utility.yul\":14692:14823   */\n      tag_473\n        /* \"#utility.yul\":14818:14822   */\n      dup2\n        /* \"#utility.yul\":14692:14823   */\n      tag_313\n      jump\t// in\n    tag_473:\n        /* \"#utility.yul\":14684:14823   */\n      swap1\n      pop\n        /* \"#utility.yul\":14411:14830   */\n      swap2\n      swap1\n      pop\n      jump\t// out\n        /* \"#utility.yul\":14836:14999   */\n    tag_314:\n        /* \"#utility.yul\":14976:14991   */\n      0x4f6e636520706572207765656b00000000000000000000000000000000000000\n        /* \"#utility.yul\":14972:14973   */\n      0x00\n        /* \"#utility.yul\":14964:14970   */\n      dup3\n        /* \"#utility.yul\":14960:14974   */\n      add\n        /* \"#utility.yul\":14953:14992   */\n      mstore\n        /* \"#utility.yul\":14836:14999   */\n      pop\n      jump\t// out\n        /* \"#utility.yul\":15005:15371   */\n    tag_315:\n        /* \"#utility.yul\":15147:15150   */\n      0x00\n        /* \"#utility.yul\":15168:15235   */\n      tag_476\n        /* \"#utility.yul\":15232:15234   */\n      0x0d\n        /* \"#utility.yul\":15227:15230   */\n      dup4\n        /* \"#utility.yul\":15168:15235   */\n      tag_306\n      jump\t// in\n    tag_476:\n        /* \"#utility.yul\":15161:15235   */\n      swap2\n      pop\n        /* \"#utility.yul\":15244:15337   */\n      tag_477\n        /* \"#utility.yul\":15333:15336   */\n      dup3\n        /* \"#utility.yul\":15244:15337   */\n      tag_314\n      jump\t// in\n    tag_477:\n        /* \"#utility.yul\":15362:15364   */\n      0x20\n        /* \"#utility.yul\":15357:15360   */\n      dup3\n        /* \"#utility.yul\":15353:15365   */\n      add\n        /* \"#utility.yul\":15346:15365   */\n      swap1\n      pop\n        /* \"#utility.yul\":15005:15371   */\n      swap2\n      swap1\n      pop\n      jump\t// out\n        /* \"#utility.yul\":15377:15796   */\n    tag_138:\n        /* \"#utility.yul\":15543:15547   */\n      0x00\n        /* \"#utility.yul\":15581:15583   */\n      0x20\n        /* \"#utility.yul\":15570:15579   */\n      dup3\n        /* \"#utility.yul\":15566:15584   */\n      add\n        /* \"#utility.yul\":15558:15584   */\n      swap1\n      pop\n        /* \"#utility.yul\":15630:15639   */\n      dup2\n        /* \"#utility.yul\":15624:15628   */\n      dup2\n        /* \"#utility.yul\":15620:15640   */\n      sub\n        /* \"#utility.yul\":15616:15617   */\n      0x00\n        /* \"#utility.yul\":15605:15614   */\n      dup4\n        /* \"#utility.yul\":15601:15618   */\n      add\n        /* \"#utility.yul\":15594:15641   */\n      mstore\n        /* \"#utility.yul\":15658:15789   */\n      tag_479\n        /* \"#utility.yul\":15784:15788   */\n      dup2\n        /* \"#utility.yul\":15658:15789   */\n      tag_315\n      jump\t// in\n    tag_479:\n        /* \"#utility.yul\":15650:15789   */\n      swap1\n      pop\n        /* \"#utility.yul\":15377:15796   */\n      swap2\n      swap1\n      pop\n      jump\t// out\n        /* \"#utility.yul\":15802:15945   */\n    tag_316:\n        /* \"#utility.yul\":15859:15864   */\n      0x00\n        /* \"#utility.yul\":15890:15896   */\n      dup2\n        /* \"#utility.yul\":15884:15897   */\n      mload\n        /* \"#utility.yul\":15875:15897   */\n      swap1\n      pop\n        /* \"#utility.yul\":15906:15939   */\n      tag_481\n        /* \"#utility.yul\":15933:15938   */\n      dup2\n        /* \"#utility.yul\":15906:15939   */\n      tag_287\n      jump\t// in\n    tag_481:\n        /* \"#utility.yul\":15802:15945   */\n      swap3\n      swap2\n      pop\n      pop\n      jump\t// out\n        /* \"#utility.yul\":15951:16302   */\n    tag_143:\n        /* \"#utility.yul\":16021:16027   */\n      0x00\n        /* \"#utility.yul\":16070:16072   */\n      0x20\n        /* \"#utility.yul\":16058:16067   */\n      dup3\n        /* \"#utility.yul\":16049:16056   */\n      dup5\n        /* \"#utility.yul\":16045:16068   */\n      sub\n        /* \"#utility.yul\":16041:16073   */\n      slt\n        /* \"#utility.yul\":16038:16157   */\n      iszero\n      tag_483\n      jumpi\n        /* \"#utility.yul\":16076:16155   */\n      tag_484\n      tag_283\n      jump\t// in\n    tag_484:\n        /* \"#utility.yul\":16038:16157   */\n    tag_483:\n        /* \"#utility.yul\":16196:16197   */\n      0x00\n        /* \"#utility.yul\":16221:16285   */\n      tag_485\n        /* \"#utility.yul\":16277:16284   */\n      dup5\n        /* \"#utility.yul\":16268:16274   */\n      dup3\n        /* \"#utility.yul\":16257:16266   */\n      dup6\n        /* \"#utility.yul\":16253:16275   */\n      add\n        /* \"#utility.yul\":16221:16285   */\n      tag_316\n      jump\t// in\n    tag_485:\n        /* \"#utility.yul\":16211:16285   */\n      swap2\n      pop\n        /* \"#utility.yul\":16167:16295   */\n      pop\n        /* \"#utility.yul\":15951:16302   */\n      swap3\n      swap2\n      pop\n      pop\n      jump\t// out\n        /* \"#utility.yul\":16308:16470   */\n    tag_317:\n        /* \"#utility.yul\":16448:16462   */\n      0x456d707479207661756c74210000000000000000000000000000000000000000\n        /* \"#utility.yul\":16444:16445   */\n      0x00\n        /* \"#utility.yul\":16436:16442   */\n      dup3\n        /* \"#utility.yul\":16432:16446   */\n      add\n        /* \"#utility.yul\":16425:16463   */\n      mstore\n        /* \"#utility.yul\":16308:16470   */\n      pop\n      jump\t// out\n        /* \"#utility.yul\":16476:16842   */\n    tag_318:\n        /* \"#utility.yul\":16618:16621   */\n      0x00\n        /* \"#utility.yul\":16639:16706   */\n      tag_488\n        /* \"#utility.yul\":16703:16705   */\n      0x0c\n        /* \"#utility.yul\":16698:16701   */\n      dup4\n        /* \"#utility.yul\":16639:16706   */\n      tag_306\n      jump\t// in\n    tag_488:\n        /* \"#utility.yul\":16632:16706   */\n      swap2\n      pop\n        /* \"#utility.yul\":16715:16808   */\n      tag_489\n        /* \"#utility.yul\":16804:16807   */\n      dup3\n        /* \"#utility.yul\":16715:16808   */\n      tag_317\n      jump\t// in\n    tag_489:\n        /* \"#utility.yul\":16833:16835   */\n      0x20\n        /* \"#utility.yul\":16828:16831   */\n      dup3\n        /* \"#utility.yul\":16824:16836   */\n      add\n        /* \"#utility.yul\":16817:16836   */\n      swap1\n      pop\n        /* \"#utility.yul\":16476:16842   */\n      swap2\n      swap1\n      pop\n      jump\t// out\n        /* \"#utility.yul\":16848:17267   */\n    tag_146:\n        /* \"#utility.yul\":17014:17018   */\n      0x00\n        /* \"#utility.yul\":17052:17054   */\n      0x20\n        /* \"#utility.yul\":17041:17050   */\n      dup3\n        /* \"#utility.yul\":17037:17055   */\n      add\n        /* \"#utility.yul\":17029:17055   */\n      swap1\n      pop\n        /* \"#utility.yul\":17101:17110   */\n      dup2\n        /* \"#utility.yul\":17095:17099   */\n      dup2\n        /* \"#utility.yul\":17091:17111   */\n      sub\n        /* \"#utility.yul\":17087:17088   */\n      0x00\n        /* \"#utility.yul\":17076:17085   */\n      dup4\n        /* \"#utility.yul\":17072:17089   */\n      add\n        /* \"#utility.yul\":17065:17112   */\n      mstore\n        /* \"#utility.yul\":17129:17260   */\n      tag_491\n        /* \"#utility.yul\":17255:17259   */\n      dup2\n        /* \"#utility.yul\":17129:17260   */\n      tag_318\n      jump\t// in\n    tag_491:\n        /* \"#utility.yul\":17121:17260   */\n      swap1\n      pop\n        /* \"#utility.yul\":16848:17267   */\n      swap2\n      swap1\n      pop\n      jump\t// out\n        /* \"#utility.yul\":17273:17458   */\n    tag_148:\n        /* \"#utility.yul\":17313:17314   */\n      0x00\n        /* \"#utility.yul\":17330:17350   */\n      tag_493\n        /* \"#utility.yul\":17348:17349   */\n      dup3\n        /* \"#utility.yul\":17330:17350   */\n      tag_270\n      jump\t// in\n    tag_493:\n        /* \"#utility.yul\":17325:17350   */\n      swap2\n      pop\n        /* \"#utility.yul\":17364:17384   */\n      tag_494\n        /* \"#utility.yul\":17382:17383   */\n      dup4\n        /* \"#utility.yul\":17364:17384   */\n      tag_270\n      jump\t// in\n    tag_494:\n        /* \"#utility.yul\":17359:17384   */\n      swap3\n      pop\n        /* \"#utility.yul\":17403:17404   */\n      dup3\n        /* \"#utility.yul\":17393:17428   */\n      tag_495\n      jumpi\n        /* \"#utility.yul\":17408:17426   */\n      tag_496\n      tag_311\n      jump\t// in\n    tag_496:\n        /* \"#utility.yul\":17393:17428   */\n    tag_495:\n        /* \"#utility.yul\":17450:17451   */\n      dup3\n        /* \"#utility.yul\":17447:17448   */\n      dup3\n        /* \"#utility.yul\":17443:17452   */\n      div\n        /* \"#utility.yul\":17438:17452   */\n      swap1\n      pop\n        /* \"#utility.yul\":17273:17458   */\n      swap3\n      swap2\n      pop\n      pop\n      jump\t// out\n        /* \"#utility.yul\":17464:17874   */\n    tag_162:\n        /* \"#utility.yul\":17504:17511   */\n      0x00\n        /* \"#utility.yul\":17527:17547   */\n      tag_498\n        /* \"#utility.yul\":17545:17546   */\n      dup3\n        /* \"#utility.yul\":17527:17547   */\n      tag_270\n      jump\t// in\n    tag_498:\n        /* \"#utility.yul\":17522:17547   */\n      swap2\n      pop\n        /* \"#utility.yul\":17561:17581   */\n      tag_499\n        /* \"#utility.yul\":17579:17580   */\n      dup4\n        /* \"#utility.yul\":17561:17581   */\n      tag_270\n      jump\t// in\n    tag_499:\n        /* \"#utility.yul\":17556:17581   */\n      swap3\n      pop\n        /* \"#utility.yul\":17616:17617   */\n      dup3\n        /* \"#utility.yul\":17613:17614   */\n      dup3\n        /* \"#utility.yul\":17609:17618   */\n      mul\n        /* \"#utility.yul\":17638:17668   */\n      tag_500\n        /* \"#utility.yul\":17656:17667   */\n      dup2\n        /* \"#utility.yul\":17638:17668   */\n      tag_270\n      jump\t// in\n    tag_500:\n        /* \"#utility.yul\":17627:17668   */\n      swap2\n      pop\n        /* \"#utility.yul\":17817:17818   */\n      dup3\n        /* \"#utility.yul\":17808:17815   */\n      dup3\n        /* \"#utility.yul\":17804:17819   */\n      div\n        /* \"#utility.yul\":17801:17802   */\n      dup5\n        /* \"#utility.yul\":17798:17820   */\n      eq\n        /* \"#utility.yul\":17778:17779   */\n      dup4\n        /* \"#utility.yul\":17771:17780   */\n      iszero\n        /* \"#utility.yul\":17751:17834   */\n      or\n        /* \"#utility.yul\":17728:17867   */\n      tag_501\n      jumpi\n        /* \"#utility.yul\":17847:17865   */\n      tag_502\n      tag_309\n      jump\t// in\n    tag_502:\n        /* \"#utility.yul\":17728:17867   */\n    tag_501:\n        /* \"#utility.yul\":17512:17874   */\n      pop\n        /* \"#utility.yul\":17464:17874   */\n      swap3\n      swap2\n      pop\n      pop\n      jump\t// out\n        /* \"#utility.yul\":17880:18212   */\n    tag_164:\n        /* \"#utility.yul\":18001:18005   */\n      0x00\n        /* \"#utility.yul\":18039:18041   */\n      0x40\n        /* \"#utility.yul\":18028:18037   */\n      dup3\n        /* \"#utility.yul\":18024:18042   */\n      add\n        /* \"#utility.yul\":18016:18042   */\n      swap1\n      pop\n        /* \"#utility.yul\":18052:18123   */\n      tag_504\n        /* \"#utility.yul\":18120:18121   */\n      0x00\n        /* \"#utility.yul\":18109:18118   */\n      dup4\n        /* \"#utility.yul\":18105:18122   */\n      add\n        /* \"#utility.yul\":18096:18102   */\n      dup6\n        /* \"#utility.yul\":18052:18123   */\n      tag_281\n      jump\t// in\n    tag_504:\n        /* \"#utility.yul\":18133:18205   */\n      tag_505\n        /* \"#utility.yul\":18201:18203   */\n      0x20\n        /* \"#utility.yul\":18190:18199   */\n      dup4\n        /* \"#utility.yul\":18186:18204   */\n      add\n        /* \"#utility.yul\":18177:18183   */\n      dup5\n        /* \"#utility.yul\":18133:18205   */\n      tag_271\n      jump\t// in\n    tag_505:\n        /* \"#utility.yul\":17880:18212   */\n      swap4\n      swap3\n      pop\n      pop\n      pop\n      jump\t// out\n        /* \"#utility.yul\":18218:18308   */\n    tag_319:\n        /* \"#utility.yul\":18252:18259   */\n      0x00\n        /* \"#utility.yul\":18295:18300   */\n      dup2\n        /* \"#utility.yul\":18288:18301   */\n      iszero\n        /* \"#utility.yul\":18281:18302   */\n      iszero\n        /* \"#utility.yul\":18270:18302   */\n      swap1\n      pop\n        /* \"#utility.yul\":18218:18308   */\n      swap2\n      swap1\n      pop\n      jump\t// out\n        /* \"#utility.yul\":18314:18430   */\n    tag_320:\n        /* \"#utility.yul\":18384:18405   */\n      tag_508\n        /* \"#utility.yul\":18399:18404   */\n      dup2\n        /* \"#utility.yul\":18384:18405   */\n      tag_319\n      jump\t// in\n    tag_508:\n        /* \"#utility.yul\":18377:18382   */\n      dup2\n        /* \"#utility.yul\":18374:18406   */\n      eq\n        /* \"#utility.yul\":18364:18424   */\n      tag_509\n      jumpi\n        /* \"#utility.yul\":18420:18421   */\n      0x00\n        /* \"#utility.yul\":18417:18418   */\n      dup1\n        /* \"#utility.yul\":18410:18422   */\n      revert\n        /* \"#utility.yul\":18364:18424   */\n    tag_509:\n        /* \"#utility.yul\":18314:18430   */\n      pop\n      jump\t// out\n        /* \"#utility.yul\":18436:18573   */\n    tag_321:\n        /* \"#utility.yul\":18490:18495   */\n      0x00\n        /* \"#utility.yul\":18521:18527   */\n      dup2\n        /* \"#utility.yul\":18515:18528   */\n      mload\n        /* \"#utility.yul\":18506:18528   */\n      swap1\n      pop\n        /* \"#utility.yul\":18537:18567   */\n      tag_511\n        /* \"#utility.yul\":18561:18566   */\n      dup2\n        /* \"#utility.yul\":18537:18567   */\n      tag_320\n      jump\t// in\n    tag_511:\n        /* \"#utility.yul\":18436:18573   */\n      swap3\n      swap2\n      pop\n      pop\n      jump\t// out\n        /* \"#utility.yul\":18579:18924   */\n    tag_168:\n        /* \"#utility.yul\":18646:18652   */\n      0x00\n        /* \"#utility.yul\":18695:18697   */\n      0x20\n        /* \"#utility.yul\":18683:18692   */\n      dup3\n        /* \"#utility.yul\":18674:18681   */\n      dup5\n        /* \"#utility.yul\":18670:18693   */\n      sub\n        /* \"#utility.yul\":18666:18698   */\n      slt\n        /* \"#utility.yul\":18663:18782   */\n      iszero\n      tag_513\n      jumpi\n        /* \"#utility.yul\":18701:18780   */\n      tag_514\n      tag_283\n      jump\t// in\n    tag_514:\n        /* \"#utility.yul\":18663:18782   */\n    tag_513:\n        /* \"#utility.yul\":18821:18822   */\n      0x00\n        /* \"#utility.yul\":18846:18907   */\n      tag_515\n        /* \"#utility.yul\":18899:18906   */\n      dup5\n        /* \"#utility.yul\":18890:18896   */\n      dup3\n        /* \"#utility.yul\":18879:18888   */\n      dup6\n        /* \"#utility.yul\":18875:18897   */\n      add\n        /* \"#utility.yul\":18846:18907   */\n      tag_321\n      jump\t// in\n    tag_515:\n        /* \"#utility.yul\":18836:18907   */\n      swap2\n      pop\n        /* \"#utility.yul\":18792:18917   */\n      pop\n        /* \"#utility.yul\":18579:18924   */\n      swap3\n      swap2\n      pop\n      pop\n      jump\t// out\n        /* \"#utility.yul\":18930:19090   */\n    tag_322:\n        /* \"#utility.yul\":19070:19082   */\n      0x5573657220657869737400000000000000000000000000000000000000000000\n        /* \"#utility.yul\":19066:19067   */\n      0x00\n        /* \"#utility.yul\":19058:19064   */\n      dup3\n        /* \"#utility.yul\":19054:19068   */\n      add\n        /* \"#utility.yul\":19047:19083   */\n      mstore\n        /* \"#utility.yul\":18930:19090   */\n      pop\n      jump\t// out\n        /* \"#utility.yul\":19096:19462   */\n    tag_323:\n        /* \"#utility.yul\":19238:19241   */\n      0x00\n        /* \"#utility.yul\":19259:19326   */\n      tag_518\n        /* \"#utility.yul\":19323:19325   */\n      0x0a\n        /* \"#utility.yul\":19318:19321   */\n      dup4\n        /* \"#utility.yul\":19259:19326   */\n      tag_306\n      jump\t// in\n    tag_518:\n        /* \"#utility.yul\":19252:19326   */\n      swap2\n      pop\n        /* \"#utility.yul\":19335:19428   */\n      tag_519\n        /* \"#utility.yul\":19424:19427   */\n      dup3\n        /* \"#utility.yul\":19335:19428   */\n      tag_322\n      jump\t// in\n    tag_519:\n        /* \"#utility.yul\":19453:19455   */\n      0x20\n        /* \"#utility.yul\":19448:19451   */\n      dup3\n        /* \"#utility.yul\":19444:19456   */\n      add\n        /* \"#utility.yul\":19437:19456   */\n      swap1\n      pop\n        /* \"#utility.yul\":19096:19462   */\n      swap2\n      swap1\n      pop\n      jump\t// out\n        /* \"#utility.yul\":19468:19887   */\n    tag_177:\n        /* \"#utility.yul\":19634:19638   */\n      0x00\n        /* \"#utility.yul\":19672:19674   */\n      0x20\n        /* \"#utility.yul\":19661:19670   */\n      dup3\n        /* \"#utility.yul\":19657:19675   */\n      add\n        /* \"#utility.yul\":19649:19675   */\n      swap1\n      pop\n        /* \"#utility.yul\":19721:19730   */\n      dup2\n        /* \"#utility.yul\":19715:19719   */\n      dup2\n        /* \"#utility.yul\":19711:19731   */\n      sub\n        /* \"#utility.yul\":19707:19708   */\n      0x00\n        /* \"#utility.yul\":19696:19705   */\n      dup4\n        /* \"#utility.yul\":19692:19709   */\n      add\n        /* \"#utility.yul\":19685:19732   */\n      mstore\n        /* \"#utility.yul\":19749:19880   */\n      tag_521\n        /* \"#utility.yul\":19875:19879   */\n      dup2\n        /* \"#utility.yul\":19749:19880   */\n      tag_323\n      jump\t// in\n    tag_521:\n        /* \"#utility.yul\":19741:19880   */\n      swap1\n      pop\n        /* \"#utility.yul\":19468:19887   */\n      swap2\n      swap1\n      pop\n      jump\t// out\n        /* \"#utility.yul\":19893:20335   */\n    tag_189:\n        /* \"#utility.yul\":20042:20046   */\n      0x00\n        /* \"#utility.yul\":20080:20082   */\n      0x60\n        /* \"#utility.yul\":20069:20078   */\n      dup3\n        /* \"#utility.yul\":20065:20083   */\n      add\n        /* \"#utility.yul\":20057:20083   */\n      swap1\n      pop\n        /* \"#utility.yul\":20093:20164   */\n      tag_523\n        /* \"#utility.yul\":20161:20162   */\n      0x00\n        /* \"#utility.yul\":20150:20159   */\n      dup4\n        /* \"#utility.yul\":20146:20163   */\n      add\n        /* \"#utility.yul\":20137:20143   */\n      dup7\n        /* \"#utility.yul\":20093:20164   */\n      tag_281\n      jump\t// in\n    tag_523:\n        /* \"#utility.yul\":20174:20246   */\n      tag_524\n        /* \"#utility.yul\":20242:20244   */\n      0x20\n        /* \"#utility.yul\":20231:20240   */\n      dup4\n        /* \"#utility.yul\":20227:20245   */\n      add\n        /* \"#utility.yul\":20218:20224   */\n      dup6\n        /* \"#utility.yul\":20174:20246   */\n      tag_281\n      jump\t// in\n    tag_524:\n        /* \"#utility.yul\":20256:20328   */\n      tag_525\n        /* \"#utility.yul\":20324:20326   */\n      0x40\n        /* \"#utility.yul\":20313:20322   */\n      dup4\n        /* \"#utility.yul\":20309:20327   */\n      add\n        /* \"#utility.yul\":20300:20306   */\n      dup5\n        /* \"#utility.yul\":20256:20328   */\n      tag_271\n      jump\t// in\n    tag_525:\n        /* \"#utility.yul\":19893:20335   */\n      swap5\n      swap4\n      pop\n      pop\n      pop\n      pop\n      jump\t// out\n\n    auxdata: 0xa2646970667358221220c33dc8c1a51efc5d39690ec7375ec3bbc9bf867a705bd45884d43651cbf46eb464736f6c634300081a0033\n}\n",
				"bytecode": {
					"linkReferences": {},
					"object": "60a060405234801561000f575f80fd5b5060405161239f38038061239f83398181016040528101906100319190610128565b3360035f6101000a81548173ffffffffffffffffffffffffffffffffffffffff021916908373ffffffffffffffffffffffffffffffffffffffff1602179055508073ffffffffffffffffffffffffffffffffffffffff1660808173ffffffffffffffffffffffffffffffffffffffff168152505061012c426100b39190610189565b426100be91906101e6565b60048190555050610219565b5f80fd5b5f73ffffffffffffffffffffffffffffffffffffffff82169050919050565b5f6100f7826100ce565b9050919050565b610107816100ed565b8114610111575f80fd5b50565b5f81519050610122816100fe565b92915050565b5f6020828403121561013d5761013c6100ca565b5b5f61014a84828501610114565b91505092915050565b5f819050919050565b7f4e487b71000000000000000000000000000000000000000000000000000000005f52601260045260245ffd5b5f61019382610153565b915061019e83610153565b9250826101ae576101ad61015c565b5b828206905092915050565b7f4e487b71000000000000000000000000000000000000000000000000000000005f52601160045260245ffd5b5f6101f082610153565b91506101fb83610153565b9250828203905081811115610213576102126101b9565b5b92915050565b6080516121596102465f395f818161089401528181610ab701528181610f3701526113c901526121595ff3fe608060405234801561000f575f80fd5b50600436106100fe575f3560e01c80637a6d918e11610095578063b70cbe3511610064578063b70cbe3514610262578063b7f7e6f014610292578063ec563617146102ae578063f615a3f7146102cc576100fe565b80637a6d918e146101f05780637eca453d1461020c578063927cc0641461022a578063a6f0364814610246576100fe565b806336db4f53116100d157806336db4f531461017a578063397de728146101985780635e0ca3b9146101b657806379372f9a146101d2576100fe565b8063139722f1146101025780631c9bbe1d1461012057806326dfe41f1461013e578063360cffd01461015c575b5f80fd5b61010a6102ea565b6040516101179190611726565b60405180910390f35b6101286102f3565b6040516101359190611726565b60405180910390f35b6101466102f9565b6040516101539190611826565b60405180910390f35b610164610384565b6040516101719190611726565b60405180910390f35b61018261038d565b60405161018f9190611726565b60405180910390f35b6101a0610399565b6040516101ad9190611855565b60405180910390f35b6101d060048036038101906101cb91906118a9565b6103c1565b005b6101da610653565b6040516101e79190611726565b60405180910390f35b61020a600480360381019061020591906118a9565b610c24565b005b610214610dd7565b6040516102219190611826565b60405180910390f35b610244600480360381019061023f91906118a9565b610e62565b005b610260600480360381019061025b91906118fe565b610f34565b005b61027c600480360381019061027791906118a9565b6110c1565b6040516102899190611726565b60405180910390f35b6102ac60048036038101906102a79190611a79565b611106565b005b6102b66112fb565b6040516102c39190611ba4565b60405180910390f35b6102d46113bd565b6040516102e19190611726565b60405180910390f35b5f600654905090565b60045481565b6060600180548060200260200160405190810160405280929190818152602001828054801561037a57602002820191905f5260205f20905b815f9054906101000a900473ffffffffffffffffffffffffffffffffffffffff1673ffffffffffffffffffffffffffffffffffffffff1681526020019060010190808311610331575b5050505050905090565b5f600554905090565b5f600180549050905090565b5f60035f9054906101000a900473ffffffffffffffffffffffffffffffffffffffff16905090565b3373ffffffffffffffffffffffffffffffffffffffff1660035f9054906101000a900473ffffffffffffffffffffffffffffffffffffffff1673ffffffffffffffffffffffffffffffffffffffff1614610450576040517f08c379a000000000000000000000000000000000000000000000000000000000815260040161044790611c44565b60405180910390fd5b5f60028054905090505f808373ffffffffffffffffffffffffffffffffffffffff1673ffffffffffffffffffffffffffffffffffffffff1681526020019081526020015f205f90555f5b818161ffff16101561064e578273ffffffffffffffffffffffffffffffffffffffff1660028261ffff16815481106104d5576104d4611c62565b5b905f5260205f20015f9054906101000a900473ffffffffffffffffffffffffffffffffffffffff1673ffffffffffffffffffffffffffffffffffffffff160361063b575f8190505b60018361052a9190611cbc565b8161ffff1610156105f15760026001826105449190611cfc565b61ffff168154811061055957610558611c62565b5b905f5260205f20015f9054906101000a900473ffffffffffffffffffffffffffffffffffffffff1660028261ffff168154811061059957610598611c62565b5b905f5260205f20015f6101000a81548173ffffffffffffffffffffffffffffffffffffffff021916908373ffffffffffffffffffffffffffffffffffffffff16021790555080806105e990611d31565b91505061051d565b50600280548061060457610603611d5a565b5b600190038181905f5260205f20015f6101000a81549073ffffffffffffffffffffffffffffffffffffffff0219169055905561064e565b808061064690611d31565b91505061049a565b505050565b5f61012c6004546106649190611d87565b42106106925761067261146e565b61012c426106809190611de7565b4261068b9190611cbc565b6004819055505b5f8060028054905090505f805f3373ffffffffffffffffffffffffffffffffffffffff1673ffffffffffffffffffffffffffffffffffffffff1681526020019081526020015f20540361071a576040517fb8fdf0b000000000000000000000000000000000000000000000000000000000815260040161071190611e61565b60405180910390fd5b60015f803373ffffffffffffffffffffffffffffffffffffffff1673ffffffffffffffffffffffffffffffffffffffff1681526020019081526020015f2054036107bb57600161012c5f803373ffffffffffffffffffffffffffffffffffffffff1673ffffffffffffffffffffffffffffffffffffffff1681526020019081526020015f20546107aa9190611d87565b6107b49190611cbc565b915061084e565b60015f803373ffffffffffffffffffffffffffffffffffffffff1673ffffffffffffffffffffffffffffffffffffffff1681526020019081526020015f2054111561084d5761012c5f803373ffffffffffffffffffffffffffffffffffffffff1673ffffffffffffffffffffffffffffffffffffffff1681526020019081526020015f205461084a9190611d87565b91505b5b81421015610891576040517f08c379a000000000000000000000000000000000000000000000000000000000815260040161088890611ec9565b60405180910390fd5b5f7f000000000000000000000000000000000000000000000000000000000000000073ffffffffffffffffffffffffffffffffffffffff166370a08231306040518263ffffffff1660e01b81526004016108eb9190611855565b602060405180830381865afa158015610906573d5f803e3d5ffd5b505050506040513d601f19601f8201168201806040525081019061092a9190611efb565b1161096a576040517f08c379a000000000000000000000000000000000000000000000000000000000815260040161096190611f70565b60405180910390fd5b5f816298968061097a9190611f8e565b90505f805b6001805490508161ffff161015610a1e573373ffffffffffffffffffffffffffffffffffffffff1660018261ffff16815481106109bf576109be611c62565b5b905f5260205f20015f9054906101000a900473ffffffffffffffffffffffffffffffffffffffff1673ffffffffffffffffffffffffffffffffffffffff1603610a0b5760019150610a1e565b8080610a1690611d31565b91505061097f565b5080610a9d578160055f828254610a359190611d87565b92505081905550600133908060018154018082558091505060019003905f5260205f20015f9091909190916101000a81548173ffffffffffffffffffffffffffffffffffffffff021916908373ffffffffffffffffffffffffffffffffffffffff1602179055505b8160065f828254610aae9190611d87565b925050819055507f000000000000000000000000000000000000000000000000000000000000000073ffffffffffffffffffffffffffffffffffffffff1663a9059cbb33670de0b6b3a764000085610b069190611fbe565b6040518363ffffffff1660e01b8152600401610b23929190611fff565b6020604051808303815f875af1158015610b3f573d5f803e3d5ffd5b505050506040513d601f19601f82011682018060405250810190610b63919061205b565b50425f803373ffffffffffffffffffffffffffffffffffffffff1673ffffffffffffffffffffffffffffffffffffffff1681526020019081526020015f20819055507f3dd8b3a7a629abb0ccd684dc47a495666a60e4bd8f7614aeed87088dfe7cede6600180549050604051610bd99190611726565b60405180910390a17f60237eb95a34e0af997fdc10ea4eb2c64fec8d49df3996e657f28b28ad8a0ad93383604051610c12929190611fff565b60405180910390a15f94505050505090565b3373ffffffffffffffffffffffffffffffffffffffff1660035f9054906101000a900473ffffffffffffffffffffffffffffffffffffffff1673ffffffffffffffffffffffffffffffffffffffff1614610cb3576040517f08c379a0000000000000000000000000000000000000000000000000000000008152600401610caa90611c44565b60405180910390fd5b5f805f8373ffffffffffffffffffffffffffffffffffffffff1673ffffffffffffffffffffffffffffffffffffffff1681526020019081526020015f20541115610d32576040517f0e64c658000000000000000000000000000000000000000000000000000000008152600401610d29906120d0565b60405180910390fd5b60015f808373ffffffffffffffffffffffffffffffffffffffff1673ffffffffffffffffffffffffffffffffffffffff1681526020019081526020015f2081905550600281908060018154018082558091505060019003905f5260205f20015f9091909190916101000a81548173ffffffffffffffffffffffffffffffffffffffff021916908373ffffffffffffffffffffffffffffffffffffffff16021790555050565b60606002805480602002602001604051908101604052809291908181526020018280548015610e5857602002820191905f5260205f20905b815f9054906101000a900473ffffffffffffffffffffffffffffffffffffffff1673ffffffffffffffffffffffffffffffffffffffff1681526020019060010190808311610e0f575b5050505050905090565b3373ffffffffffffffffffffffffffffffffffffffff1660035f9054906101000a900473ffffffffffffffffffffffffffffffffffffffff1673ffffffffffffffffffffffffffffffffffffffff1614610ef1576040517f08c379a0000000000000000000000000000000000000000000000000000000008152600401610ee890611c44565b60405180910390fd5b8060035f6101000a81548173ffffffffffffffffffffffffffffffffffffffff021916908373ffffffffffffffffffffffffffffffffffffffff16021790555050565b5f7f000000000000000000000000000000000000000000000000000000000000000073ffffffffffffffffffffffffffffffffffffffff166323b872dd3330670de0b6b3a764000086610f879190611fbe565b6040518463ffffffff1660e01b8152600401610fa5939291906120ee565b6020604051808303815f875af1158015610fc1573d5f803e3d5ffd5b505050506040513d601f19601f82011682018060405250810190610fe5919061205b565b905080156110bd575f5b6007805490508110156110bb57600781815481106110105761100f611c62565b5b905f5260205f2090600202015f015f9054906101000a900473ffffffffffffffffffffffffffffffffffffffff1673ffffffffffffffffffffffffffffffffffffffff163373ffffffffffffffffffffffffffffffffffffffff16036110ae57826007828154811061108557611084611c62565b5b905f5260205f2090600202016001015f8282546110a29190611d87565b925050819055506110bb565b8080600101915050610fef565b505b5050565b5f805f8373ffffffffffffffffffffffffffffffffffffffff1673ffffffffffffffffffffffffffffffffffffffff1681526020019081526020015f20549050919050565b3373ffffffffffffffffffffffffffffffffffffffff1660035f9054906101000a900473ffffffffffffffffffffffffffffffffffffffff1673ffffffffffffffffffffffffffffffffffffffff1614611195576040517f08c379a000000000000000000000000000000000000000000000000000000000815260040161118c90611c44565b60405180910390fd5b5f5b81518161ffff1610156112f7575f805f848461ffff16815181106111be576111bd611c62565b5b602002602001015173ffffffffffffffffffffffffffffffffffffffff1673ffffffffffffffffffffffffffffffffffffffff1681526020019081526020015f2054116112e45760015f80848461ffff16815181106112205761121f611c62565b5b602002602001015173ffffffffffffffffffffffffffffffffffffffff1673ffffffffffffffffffffffffffffffffffffffff1681526020019081526020015f20819055506002828261ffff168151811061127e5761127d611c62565b5b6020026020010151908060018154018082558091505060019003905f5260205f20015f9091909190916101000a81548173ffffffffffffffffffffffffffffffffffffffff021916908373ffffffffffffffffffffffffffffffffffffffff1602179055505b80806112ef90611d31565b915050611197565b5050565b6060611305611484565b6007805480602002602001604051908101604052809291908181526020015f905b828210156113b4578382905f5260205f2090600202016040518060400160405290815f82015f9054906101000a900473ffffffffffffffffffffffffffffffffffffffff1673ffffffffffffffffffffffffffffffffffffffff1673ffffffffffffffffffffffffffffffffffffffff16815260200160018201548152505081526020019060010190611326565b50505050905090565b5f670de0b6b3a76400007f000000000000000000000000000000000000000000000000000000000000000073ffffffffffffffffffffffffffffffffffffffff166370a08231306040518263ffffffff1660e01b81526004016114209190611855565b602060405180830381865afa15801561143b573d5f803e3d5ffd5b505050506040513d601f19601f8201168201806040525081019061145f9190611efb565b6114699190611f8e565b905090565b5f60058190555060015f61148291906116d5565b565b5f5b60016007805490506114989190611cbc565b8110156116d2575f6001826114ad9190611d87565b90505b6007805490508110156116c657600781815481106114d1576114d0611c62565b5b905f5260205f20906002020160010154600783815481106114f5576114f4611c62565b5b905f5260205f2090600202016001015411156116bb575f600783815481106115205761151f611c62565b5b905f5260205f2090600202016040518060400160405290815f82015f9054906101000a900473ffffffffffffffffffffffffffffffffffffffff1673ffffffffffffffffffffffffffffffffffffffff1673ffffffffffffffffffffffffffffffffffffffff1681526020016001820154815250509050600782815481106115ab576115aa611c62565b5b905f5260205f209060020201600784815481106115cb576115ca611c62565b5b905f5260205f2090600202015f82015f9054906101000a900473ffffffffffffffffffffffffffffffffffffffff16815f015f6101000a81548173ffffffffffffffffffffffffffffffffffffffff021916908373ffffffffffffffffffffffffffffffffffffffff16021790555060018201548160010155905050806007838154811061165c5761165b611c62565b5b905f5260205f2090600202015f820151815f015f6101000a81548173ffffffffffffffffffffffffffffffffffffffff021916908373ffffffffffffffffffffffffffffffffffffffff16021790555060208201518160010155905050505b8060010190506114b0565b50806001019050611486565b50565b5080545f8255905f5260205f20908101906116f091906116f3565b50565b5b8082111561170a575f815f9055506001016116f4565b5090565b5f819050919050565b6117208161170e565b82525050565b5f6020820190506117395f830184611717565b92915050565b5f81519050919050565b5f82825260208201905092915050565b5f819050602082019050919050565b5f73ffffffffffffffffffffffffffffffffffffffff82169050919050565b5f61179182611768565b9050919050565b6117a181611787565b82525050565b5f6117b28383611798565b60208301905092915050565b5f602082019050919050565b5f6117d48261173f565b6117de8185611749565b93506117e983611759565b805f5b8381101561181957815161180088826117a7565b975061180b836117be565b9250506001810190506117ec565b5085935050505092915050565b5f6020820190508181035f83015261183e81846117ca565b905092915050565b61184f81611787565b82525050565b5f6020820190506118685f830184611846565b92915050565b5f604051905090565b5f80fd5b5f80fd5b61188881611787565b8114611892575f80fd5b50565b5f813590506118a38161187f565b92915050565b5f602082840312156118be576118bd611877565b5b5f6118cb84828501611895565b91505092915050565b6118dd8161170e565b81146118e7575f80fd5b50565b5f813590506118f8816118d4565b92915050565b5f6020828403121561191357611912611877565b5b5f611920848285016118ea565b91505092915050565b5f80fd5b5f601f19601f8301169050919050565b7f4e487b71000000000000000000000000000000000000000000000000000000005f52604160045260245ffd5b6119738261192d565b810181811067ffffffffffffffff821117156119925761199161193d565b5b80604052505050565b5f6119a461186e565b90506119b0828261196a565b919050565b5f67ffffffffffffffff8211156119cf576119ce61193d565b5b602082029050602081019050919050565b5f80fd5b5f6119f66119f1846119b5565b61199b565b90508083825260208201905060208402830185811115611a1957611a186119e0565b5b835b81811015611a425780611a2e8882611895565b845260208401935050602081019050611a1b565b5050509392505050565b5f82601f830112611a6057611a5f611929565b5b8135611a708482602086016119e4565b91505092915050565b5f60208284031215611a8e57611a8d611877565b5b5f82013567ffffffffffffffff811115611aab57611aaa61187b565b5b611ab784828501611a4c565b91505092915050565b5f81519050919050565b5f82825260208201905092915050565b5f819050602082019050919050565b611af28161170e565b82525050565b604082015f820151611b0c5f850182611798565b506020820151611b1f6020850182611ae9565b50505050565b5f611b308383611af8565b60408301905092915050565b5f602082019050919050565b5f611b5282611ac0565b611b5c8185611aca565b9350611b6783611ada565b805f5b83811015611b97578151611b7e8882611b25565b9750611b8983611b3c565b925050600181019050611b6a565b5085935050505092915050565b5f6020820190508181035f830152611bbc8184611b48565b905092915050565b5f82825260208201905092915050565b7f6f6e6c792061646d696e2063616e20696e766f6b6520746869732066756e63745f8201527f696f6e0000000000000000000000000000000000000000000000000000000000602082015250565b5f611c2e602383611bc4565b9150611c3982611bd4565b604082019050919050565b5f6020820190508181035f830152611c5b81611c22565b9050919050565b7f4e487b71000000000000000000000000000000000000000000000000000000005f52603260045260245ffd5b7f4e487b71000000000000000000000000000000000000000000000000000000005f52601160045260245ffd5b5f611cc68261170e565b9150611cd18361170e565b9250828203905081811115611ce957611ce8611c8f565b5b92915050565b5f61ffff82169050919050565b5f611d0682611cef565b9150611d1183611cef565b9250828201905061ffff811115611d2b57611d2a611c8f565b5b92915050565b5f611d3b82611cef565b915061ffff8203611d4f57611d4e611c8f565b5b600182019050919050565b7f4e487b71000000000000000000000000000000000000000000000000000000005f52603160045260245ffd5b5f611d918261170e565b9150611d9c8361170e565b9250828201905080821115611db457611db3611c8f565b5b92915050565b7f4e487b71000000000000000000000000000000000000000000000000000000005f52601260045260245ffd5b5f611df18261170e565b9150611dfc8361170e565b925082611e0c57611e0b611dba565b5b828206905092915050565b7f4e6f7420616e20656c696769626c6520757365722100000000000000000000005f82015250565b5f611e4b601583611bc4565b9150611e5682611e17565b602082019050919050565b5f6020820190508181035f830152611e7881611e3f565b9050919050565b7f4f6e636520706572207765656b000000000000000000000000000000000000005f82015250565b5f611eb3600d83611bc4565b9150611ebe82611e7f565b602082019050919050565b5f6020820190508181035f830152611ee081611ea7565b9050919050565b5f81519050611ef5816118d4565b92915050565b5f60208284031215611f1057611f0f611877565b5b5f611f1d84828501611ee7565b91505092915050565b7f456d707479207661756c742100000000000000000000000000000000000000005f82015250565b5f611f5a600c83611bc4565b9150611f6582611f26565b602082019050919050565b5f6020820190508181035f830152611f8781611f4e565b9050919050565b5f611f988261170e565b9150611fa38361170e565b925082611fb357611fb2611dba565b5b828204905092915050565b5f611fc88261170e565b9150611fd38361170e565b9250828202611fe18161170e565b91508282048414831517611ff857611ff7611c8f565b5b5092915050565b5f6040820190506120125f830185611846565b61201f6020830184611717565b9392505050565b5f8115159050919050565b61203a81612026565b8114612044575f80fd5b50565b5f8151905061205581612031565b92915050565b5f602082840312156120705761206f611877565b5b5f61207d84828501612047565b91505092915050565b7f55736572206578697374000000000000000000000000000000000000000000005f82015250565b5f6120ba600a83611bc4565b91506120c582612086565b602082019050919050565b5f6020820190508181035f8301526120e7816120ae565b9050919050565b5f6060820190506121015f830186611846565b61210e6020830185611846565b61211b6040830184611717565b94935050505056fea2646970667358221220c33dc8c1a51efc5d39690ec7375ec3bbc9bf867a705bd45884d43651cbf46eb464736f6c634300081a0033",
					"opcodes": "PUSH1 0xA0 PUSH1 0x40 MSTORE CALLVALUE DUP1 ISZERO PUSH2 0xF JUMPI PUSH0 DUP1 REVERT JUMPDEST POP PUSH1 0x40 MLOAD PUSH2 0x239F CODESIZE SUB DUP1 PUSH2 0x239F DUP4 CODECOPY DUP2 DUP2 ADD PUSH1 0x40 MSTORE DUP2 ADD SWAP1 PUSH2 0x31 SWAP2 SWAP1 PUSH2 0x128 JUMP JUMPDEST CALLER PUSH1 0x3 PUSH0 PUSH2 0x100 EXP DUP2 SLOAD DUP2 PUSH20 0xFFFFFFFFFFFFFFFFFFFFFFFFFFFFFFFFFFFFFFFF MUL NOT AND SWAP1 DUP4 PUSH20 0xFFFFFFFFFFFFFFFFFFFFFFFFFFFFFFFFFFFFFFFF AND MUL OR SWAP1 SSTORE POP DUP1 PUSH20 0xFFFFFFFFFFFFFFFFFFFFFFFFFFFFFFFFFFFFFFFF AND PUSH1 0x80 DUP2 PUSH20 0xFFFFFFFFFFFFFFFFFFFFFFFFFFFFFFFFFFFFFFFF AND DUP2 MSTORE POP POP PUSH2 0x12C TIMESTAMP PUSH2 0xB3 SWAP2 SWAP1 PUSH2 0x189 JUMP JUMPDEST TIMESTAMP PUSH2 0xBE SWAP2 SWAP1 PUSH2 0x1E6 JUMP JUMPDEST PUSH1 0x4 DUP2 SWAP1 SSTORE POP POP PUSH2 0x219 JUMP JUMPDEST PUSH0 DUP1 REVERT JUMPDEST PUSH0 PUSH20 0xFFFFFFFFFFFFFFFFFFFFFFFFFFFFFFFFFFFFFFFF DUP3 AND SWAP1 POP SWAP2 SWAP1 POP JUMP JUMPDEST PUSH0 PUSH2 0xF7 DUP3 PUSH2 0xCE JUMP JUMPDEST SWAP1 POP SWAP2 SWAP1 POP JUMP JUMPDEST PUSH2 0x107 DUP2 PUSH2 0xED JUMP JUMPDEST DUP2 EQ PUSH2 0x111 JUMPI PUSH0 DUP1 REVERT JUMPDEST POP JUMP JUMPDEST PUSH0 DUP2 MLOAD SWAP1 POP PUSH2 0x122 DUP2 PUSH2 0xFE JUMP JUMPDEST SWAP3 SWAP2 POP POP JUMP JUMPDEST PUSH0 PUSH1 0x20 DUP3 DUP5 SUB SLT ISZERO PUSH2 0x13D JUMPI PUSH2 0x13C PUSH2 0xCA JUMP JUMPDEST JUMPDEST PUSH0 PUSH2 0x14A DUP5 DUP3 DUP6 ADD PUSH2 0x114 JUMP JUMPDEST SWAP2 POP POP SWAP3 SWAP2 POP POP JUMP JUMPDEST PUSH0 DUP2 SWAP1 POP SWAP2 SWAP1 POP JUMP JUMPDEST PUSH32 0x4E487B7100000000000000000000000000000000000000000000000000000000 PUSH0 MSTORE PUSH1 0x12 PUSH1 0x4 MSTORE PUSH1 0x24 PUSH0 REVERT JUMPDEST PUSH0 PUSH2 0x193 DUP3 PUSH2 0x153 JUMP JUMPDEST SWAP2 POP PUSH2 0x19E DUP4 PUSH2 0x153 JUMP JUMPDEST SWAP3 POP DUP3 PUSH2 0x1AE JUMPI PUSH2 0x1AD PUSH2 0x15C JUMP JUMPDEST JUMPDEST DUP3 DUP3 MOD SWAP1 POP SWAP3 SWAP2 POP POP JUMP JUMPDEST PUSH32 0x4E487B7100000000000000000000000000000000000000000000000000000000 PUSH0 MSTORE PUSH1 0x11 PUSH1 0x4 MSTORE PUSH1 0x24 PUSH0 REVERT JUMPDEST PUSH0 PUSH2 0x1F0 DUP3 PUSH2 0x153 JUMP JUMPDEST SWAP2 POP PUSH2 0x1FB DUP4 PUSH2 0x153 JUMP JUMPDEST SWAP3 POP DUP3 DUP3 SUB SWAP1 POP DUP2 DUP2 GT ISZERO PUSH2 0x213 JUMPI PUSH2 0x212 PUSH2 0x1B9 JUMP JUMPDEST JUMPDEST SWAP3 SWAP2 POP POP JUMP JUMPDEST PUSH1 0x80 MLOAD PUSH2 0x2159 PUSH2 0x246 PUSH0 CODECOPY PUSH0 DUP2 DUP2 PUSH2 0x894 ADD MSTORE DUP2 DUP2 PUSH2 0xAB7 ADD MSTORE DUP2 DUP2 PUSH2 0xF37 ADD MSTORE PUSH2 0x13C9 ADD MSTORE PUSH2 0x2159 PUSH0 RETURN INVALID PUSH1 0x80 PUSH1 0x40 MSTORE CALLVALUE DUP1 ISZERO PUSH2 0xF JUMPI PUSH0 DUP1 REVERT JUMPDEST POP PUSH1 0x4 CALLDATASIZE LT PUSH2 0xFE JUMPI PUSH0 CALLDATALOAD PUSH1 0xE0 SHR DUP1 PUSH4 0x7A6D918E GT PUSH2 0x95 JUMPI DUP1 PUSH4 0xB70CBE35 GT PUSH2 0x64 JUMPI DUP1 PUSH4 0xB70CBE35 EQ PUSH2 0x262 JUMPI DUP1 PUSH4 0xB7F7E6F0 EQ PUSH2 0x292 JUMPI DUP1 PUSH4 0xEC563617 EQ PUSH2 0x2AE JUMPI DUP1 PUSH4 0xF615A3F7 EQ PUSH2 0x2CC JUMPI PUSH2 0xFE JUMP JUMPDEST DUP1 PUSH4 0x7A6D918E EQ PUSH2 0x1F0 JUMPI DUP1 PUSH4 0x7ECA453D EQ PUSH2 0x20C JUMPI DUP1 PUSH4 0x927CC064 EQ PUSH2 0x22A JUMPI DUP1 PUSH4 0xA6F03648 EQ PUSH2 0x246 JUMPI PUSH2 0xFE JUMP JUMPDEST DUP1 PUSH4 0x36DB4F53 GT PUSH2 0xD1 JUMPI DUP1 PUSH4 0x36DB4F53 EQ PUSH2 0x17A JUMPI DUP1 PUSH4 0x397DE728 EQ PUSH2 0x198 JUMPI DUP1 PUSH4 0x5E0CA3B9 EQ PUSH2 0x1B6 JUMPI DUP1 PUSH4 0x79372F9A EQ PUSH2 0x1D2 JUMPI PUSH2 0xFE JUMP JUMPDEST DUP1 PUSH4 0x139722F1 EQ PUSH2 0x102 JUMPI DUP1 PUSH4 0x1C9BBE1D EQ PUSH2 0x120 JUMPI DUP1 PUSH4 0x26DFE41F EQ PUSH2 0x13E JUMPI DUP1 PUSH4 0x360CFFD0 EQ PUSH2 0x15C JUMPI JUMPDEST PUSH0 DUP1 REVERT JUMPDEST PUSH2 0x10A PUSH2 0x2EA JUMP JUMPDEST PUSH1 0x40 MLOAD PUSH2 0x117 SWAP2 SWAP1 PUSH2 0x1726 JUMP JUMPDEST PUSH1 0x40 MLOAD DUP1 SWAP2 SUB SWAP1 RETURN JUMPDEST PUSH2 0x128 PUSH2 0x2F3 JUMP JUMPDEST PUSH1 0x40 MLOAD PUSH2 0x135 SWAP2 SWAP1 PUSH2 0x1726 JUMP JUMPDEST PUSH1 0x40 MLOAD DUP1 SWAP2 SUB SWAP1 RETURN JUMPDEST PUSH2 0x146 PUSH2 0x2F9 JUMP JUMPDEST PUSH1 0x40 MLOAD PUSH2 0x153 SWAP2 SWAP1 PUSH2 0x1826 JUMP JUMPDEST PUSH1 0x40 MLOAD DUP1 SWAP2 SUB SWAP1 RETURN JUMPDEST PUSH2 0x164 PUSH2 0x384 JUMP JUMPDEST PUSH1 0x40 MLOAD PUSH2 0x171 SWAP2 SWAP1 PUSH2 0x1726 JUMP JUMPDEST PUSH1 0x40 MLOAD DUP1 SWAP2 SUB SWAP1 RETURN JUMPDEST PUSH2 0x182 PUSH2 0x38D JUMP JUMPDEST PUSH1 0x40 MLOAD PUSH2 0x18F SWAP2 SWAP1 PUSH2 0x1726 JUMP JUMPDEST PUSH1 0x40 MLOAD DUP1 SWAP2 SUB SWAP1 RETURN JUMPDEST PUSH2 0x1A0 PUSH2 0x399 JUMP JUMPDEST PUSH1 0x40 MLOAD PUSH2 0x1AD SWAP2 SWAP1 PUSH2 0x1855 JUMP JUMPDEST PUSH1 0x40 MLOAD DUP1 SWAP2 SUB SWAP1 RETURN JUMPDEST PUSH2 0x1D0 PUSH1 0x4 DUP1 CALLDATASIZE SUB DUP2 ADD SWAP1 PUSH2 0x1CB SWAP2 SWAP1 PUSH2 0x18A9 JUMP JUMPDEST PUSH2 0x3C1 JUMP JUMPDEST STOP JUMPDEST PUSH2 0x1DA PUSH2 0x653 JUMP JUMPDEST PUSH1 0x40 MLOAD PUSH2 0x1E7 SWAP2 SWAP1 PUSH2 0x1726 JUMP JUMPDEST PUSH1 0x40 MLOAD DUP1 SWAP2 SUB SWAP1 RETURN JUMPDEST PUSH2 0x20A PUSH1 0x4 DUP1 CALLDATASIZE SUB DUP2 ADD SWAP1 PUSH2 0x205 SWAP2 SWAP1 PUSH2 0x18A9 JUMP JUMPDEST PUSH2 0xC24 JUMP JUMPDEST STOP JUMPDEST PUSH2 0x214 PUSH2 0xDD7 JUMP JUMPDEST PUSH1 0x40 MLOAD PUSH2 0x221 SWAP2 SWAP1 PUSH2 0x1826 JUMP JUMPDEST PUSH1 0x40 MLOAD DUP1 SWAP2 SUB SWAP1 RETURN JUMPDEST PUSH2 0x244 PUSH1 0x4 DUP1 CALLDATASIZE SUB DUP2 ADD SWAP1 PUSH2 0x23F SWAP2 SWAP1 PUSH2 0x18A9 JUMP JUMPDEST PUSH2 0xE62 JUMP JUMPDEST STOP JUMPDEST PUSH2 0x260 PUSH1 0x4 DUP1 CALLDATASIZE SUB DUP2 ADD SWAP1 PUSH2 0x25B SWAP2 SWAP1 PUSH2 0x18FE JUMP JUMPDEST PUSH2 0xF34 JUMP JUMPDEST STOP JUMPDEST PUSH2 0x27C PUSH1 0x4 DUP1 CALLDATASIZE SUB DUP2 ADD SWAP1 PUSH2 0x277 SWAP2 SWAP1 PUSH2 0x18A9 JUMP JUMPDEST PUSH2 0x10C1 JUMP JUMPDEST PUSH1 0x40 MLOAD PUSH2 0x289 SWAP2 SWAP1 PUSH2 0x1726 JUMP JUMPDEST PUSH1 0x40 MLOAD DUP1 SWAP2 SUB SWAP1 RETURN JUMPDEST PUSH2 0x2AC PUSH1 0x4 DUP1 CALLDATASIZE SUB DUP2 ADD SWAP1 PUSH2 0x2A7 SWAP2 SWAP1 PUSH2 0x1A79 JUMP JUMPDEST PUSH2 0x1106 JUMP JUMPDEST STOP JUMPDEST PUSH2 0x2B6 PUSH2 0x12FB JUMP JUMPDEST PUSH1 0x40 MLOAD PUSH2 0x2C3 SWAP2 SWAP1 PUSH2 0x1BA4 JUMP JUMPDEST PUSH1 0x40 MLOAD DUP1 SWAP2 SUB SWAP1 RETURN JUMPDEST PUSH2 0x2D4 PUSH2 0x13BD JUMP JUMPDEST PUSH1 0x40 MLOAD PUSH2 0x2E1 SWAP2 SWAP1 PUSH2 0x1726 JUMP JUMPDEST PUSH1 0x40 MLOAD DUP1 SWAP2 SUB SWAP1 RETURN JUMPDEST PUSH0 PUSH1 0x6 SLOAD SWAP1 POP SWAP1 JUMP JUMPDEST PUSH1 0x4 SLOAD DUP2 JUMP JUMPDEST PUSH1 0x60 PUSH1 0x1 DUP1 SLOAD DUP1 PUSH1 0x20 MUL PUSH1 0x20 ADD PUSH1 0x40 MLOAD SWAP1 DUP2 ADD PUSH1 0x40 MSTORE DUP1 SWAP3 SWAP2 SWAP1 DUP2 DUP2 MSTORE PUSH1 0x20 ADD DUP3 DUP1 SLOAD DUP1 ISZERO PUSH2 0x37A JUMPI PUSH1 0x20 MUL DUP3 ADD SWAP2 SWAP1 PUSH0 MSTORE PUSH1 0x20 PUSH0 KECCAK256 SWAP1 JUMPDEST DUP2 PUSH0 SWAP1 SLOAD SWAP1 PUSH2 0x100 EXP SWAP1 DIV PUSH20 0xFFFFFFFFFFFFFFFFFFFFFFFFFFFFFFFFFFFFFFFF AND PUSH20 0xFFFFFFFFFFFFFFFFFFFFFFFFFFFFFFFFFFFFFFFF AND DUP2 MSTORE PUSH1 0x20 ADD SWAP1 PUSH1 0x1 ADD SWAP1 DUP1 DUP4 GT PUSH2 0x331 JUMPI JUMPDEST POP POP POP POP POP SWAP1 POP SWAP1 JUMP JUMPDEST PUSH0 PUSH1 0x5 SLOAD SWAP1 POP SWAP1 JUMP JUMPDEST PUSH0 PUSH1 0x1 DUP1 SLOAD SWAP1 POP SWAP1 POP SWAP1 JUMP JUMPDEST PUSH0 PUSH1 0x3 PUSH0 SWAP1 SLOAD SWAP1 PUSH2 0x100 EXP SWAP1 DIV PUSH20 0xFFFFFFFFFFFFFFFFFFFFFFFFFFFFFFFFFFFFFFFF AND SWAP1 POP SWAP1 JUMP JUMPDEST CALLER PUSH20 0xFFFFFFFFFFFFFFFFFFFFFFFFFFFFFFFFFFFFFFFF AND PUSH1 0x3 PUSH0 SWAP1 SLOAD SWAP1 PUSH2 0x100 EXP SWAP1 DIV PUSH20 0xFFFFFFFFFFFFFFFFFFFFFFFFFFFFFFFFFFFFFFFF AND PUSH20 0xFFFFFFFFFFFFFFFFFFFFFFFFFFFFFFFFFFFFFFFF AND EQ PUSH2 0x450 JUMPI PUSH1 0x40 MLOAD PUSH32 0x8C379A000000000000000000000000000000000000000000000000000000000 DUP2 MSTORE PUSH1 0x4 ADD PUSH2 0x447 SWAP1 PUSH2 0x1C44 JUMP JUMPDEST PUSH1 0x40 MLOAD DUP1 SWAP2 SUB SWAP1 REVERT JUMPDEST PUSH0 PUSH1 0x2 DUP1 SLOAD SWAP1 POP SWAP1 POP PUSH0 DUP1 DUP4 PUSH20 0xFFFFFFFFFFFFFFFFFFFFFFFFFFFFFFFFFFFFFFFF AND PUSH20 0xFFFFFFFFFFFFFFFFFFFFFFFFFFFFFFFFFFFFFFFF AND DUP2 MSTORE PUSH1 0x20 ADD SWAP1 DUP2 MSTORE PUSH1 0x20 ADD PUSH0 KECCAK256 PUSH0 SWAP1 SSTORE PUSH0 JUMPDEST DUP2 DUP2 PUSH2 0xFFFF AND LT ISZERO PUSH2 0x64E JUMPI DUP3 PUSH20 0xFFFFFFFFFFFFFFFFFFFFFFFFFFFFFFFFFFFFFFFF AND PUSH1 0x2 DUP3 PUSH2 0xFFFF AND DUP2 SLOAD DUP2 LT PUSH2 0x4D5 JUMPI PUSH2 0x4D4 PUSH2 0x1C62 JUMP JUMPDEST JUMPDEST SWAP1 PUSH0 MSTORE PUSH1 0x20 PUSH0 KECCAK256 ADD PUSH0 SWAP1 SLOAD SWAP1 PUSH2 0x100 EXP SWAP1 DIV PUSH20 0xFFFFFFFFFFFFFFFFFFFFFFFFFFFFFFFFFFFFFFFF AND PUSH20 0xFFFFFFFFFFFFFFFFFFFFFFFFFFFFFFFFFFFFFFFF AND SUB PUSH2 0x63B JUMPI PUSH0 DUP2 SWAP1 POP JUMPDEST PUSH1 0x1 DUP4 PUSH2 0x52A SWAP2 SWAP1 PUSH2 0x1CBC JUMP JUMPDEST DUP2 PUSH2 0xFFFF AND LT ISZERO PUSH2 0x5F1 JUMPI PUSH1 0x2 PUSH1 0x1 DUP3 PUSH2 0x544 SWAP2 SWAP1 PUSH2 0x1CFC JUMP JUMPDEST PUSH2 0xFFFF AND DUP2 SLOAD DUP2 LT PUSH2 0x559 JUMPI PUSH2 0x558 PUSH2 0x1C62 JUMP JUMPDEST JUMPDEST SWAP1 PUSH0 MSTORE PUSH1 0x20 PUSH0 KECCAK256 ADD PUSH0 SWAP1 SLOAD SWAP1 PUSH2 0x100 EXP SWAP1 DIV PUSH20 0xFFFFFFFFFFFFFFFFFFFFFFFFFFFFFFFFFFFFFFFF AND PUSH1 0x2 DUP3 PUSH2 0xFFFF AND DUP2 SLOAD DUP2 LT PUSH2 0x599 JUMPI PUSH2 0x598 PUSH2 0x1C62 JUMP JUMPDEST JUMPDEST SWAP1 PUSH0 MSTORE PUSH1 0x20 PUSH0 KECCAK256 ADD PUSH0 PUSH2 0x100 EXP DUP2 SLOAD DUP2 PUSH20 0xFFFFFFFFFFFFFFFFFFFFFFFFFFFFFFFFFFFFFFFF MUL NOT AND SWAP1 DUP4 PUSH20 0xFFFFFFFFFFFFFFFFFFFFFFFFFFFFFFFFFFFFFFFF AND MUL OR SWAP1 SSTORE POP DUP1 DUP1 PUSH2 0x5E9 SWAP1 PUSH2 0x1D31 JUMP JUMPDEST SWAP2 POP POP PUSH2 0x51D JUMP JUMPDEST POP PUSH1 0x2 DUP1 SLOAD DUP1 PUSH2 0x604 JUMPI PUSH2 0x603 PUSH2 0x1D5A JUMP JUMPDEST JUMPDEST PUSH1 0x1 SWAP1 SUB DUP2 DUP2 SWAP1 PUSH0 MSTORE PUSH1 0x20 PUSH0 KECCAK256 ADD PUSH0 PUSH2 0x100 EXP DUP2 SLOAD SWAP1 PUSH20 0xFFFFFFFFFFFFFFFFFFFFFFFFFFFFFFFFFFFFFFFF MUL NOT AND SWAP1 SSTORE SWAP1 SSTORE PUSH2 0x64E JUMP JUMPDEST DUP1 DUP1 PUSH2 0x646 SWAP1 PUSH2 0x1D31 JUMP JUMPDEST SWAP2 POP POP PUSH2 0x49A JUMP JUMPDEST POP POP POP JUMP JUMPDEST PUSH0 PUSH2 0x12C PUSH1 0x4 SLOAD PUSH2 0x664 SWAP2 SWAP1 PUSH2 0x1D87 JUMP JUMPDEST TIMESTAMP LT PUSH2 0x692 JUMPI PUSH2 0x672 PUSH2 0x146E JUMP JUMPDEST PUSH2 0x12C TIMESTAMP PUSH2 0x680 SWAP2 SWAP1 PUSH2 0x1DE7 JUMP JUMPDEST TIMESTAMP PUSH2 0x68B SWAP2 SWAP1 PUSH2 0x1CBC JUMP JUMPDEST PUSH1 0x4 DUP2 SWAP1 SSTORE POP JUMPDEST PUSH0 DUP1 PUSH1 0x2 DUP1 SLOAD SWAP1 POP SWAP1 POP PUSH0 DUP1 PUSH0 CALLER PUSH20 0xFFFFFFFFFFFFFFFFFFFFFFFFFFFFFFFFFFFFFFFF AND PUSH20 0xFFFFFFFFFFFFFFFFFFFFFFFFFFFFFFFFFFFFFFFF AND DUP2 MSTORE PUSH1 0x20 ADD SWAP1 DUP2 MSTORE PUSH1 0x20 ADD PUSH0 KECCAK256 SLOAD SUB PUSH2 0x71A JUMPI PUSH1 0x40 MLOAD PUSH32 0xB8FDF0B000000000000000000000000000000000000000000000000000000000 DUP2 MSTORE PUSH1 0x4 ADD PUSH2 0x711 SWAP1 PUSH2 0x1E61 JUMP JUMPDEST PUSH1 0x40 MLOAD DUP1 SWAP2 SUB SWAP1 REVERT JUMPDEST PUSH1 0x1 PUSH0 DUP1 CALLER PUSH20 0xFFFFFFFFFFFFFFFFFFFFFFFFFFFFFFFFFFFFFFFF AND PUSH20 0xFFFFFFFFFFFFFFFFFFFFFFFFFFFFFFFFFFFFFFFF AND DUP2 MSTORE PUSH1 0x20 ADD SWAP1 DUP2 MSTORE PUSH1 0x20 ADD PUSH0 KECCAK256 SLOAD SUB PUSH2 0x7BB JUMPI PUSH1 0x1 PUSH2 0x12C PUSH0 DUP1 CALLER PUSH20 0xFFFFFFFFFFFFFFFFFFFFFFFFFFFFFFFFFFFFFFFF AND PUSH20 0xFFFFFFFFFFFFFFFFFFFFFFFFFFFFFFFFFFFFFFFF AND DUP2 MSTORE PUSH1 0x20 ADD SWAP1 DUP2 MSTORE PUSH1 0x20 ADD PUSH0 KECCAK256 SLOAD PUSH2 0x7AA SWAP2 SWAP1 PUSH2 0x1D87 JUMP JUMPDEST PUSH2 0x7B4 SWAP2 SWAP1 PUSH2 0x1CBC JUMP JUMPDEST SWAP2 POP PUSH2 0x84E JUMP JUMPDEST PUSH1 0x1 PUSH0 DUP1 CALLER PUSH20 0xFFFFFFFFFFFFFFFFFFFFFFFFFFFFFFFFFFFFFFFF AND PUSH20 0xFFFFFFFFFFFFFFFFFFFFFFFFFFFFFFFFFFFFFFFF AND DUP2 MSTORE PUSH1 0x20 ADD SWAP1 DUP2 MSTORE PUSH1 0x20 ADD PUSH0 KECCAK256 SLOAD GT ISZERO PUSH2 0x84D JUMPI PUSH2 0x12C PUSH0 DUP1 CALLER PUSH20 0xFFFFFFFFFFFFFFFFFFFFFFFFFFFFFFFFFFFFFFFF AND PUSH20 0xFFFFFFFFFFFFFFFFFFFFFFFFFFFFFFFFFFFFFFFF AND DUP2 MSTORE PUSH1 0x20 ADD SWAP1 DUP2 MSTORE PUSH1 0x20 ADD PUSH0 KECCAK256 SLOAD PUSH2 0x84A SWAP2 SWAP1 PUSH2 0x1D87 JUMP JUMPDEST SWAP2 POP JUMPDEST JUMPDEST DUP2 TIMESTAMP LT ISZERO PUSH2 0x891 JUMPI PUSH1 0x40 MLOAD PUSH32 0x8C379A000000000000000000000000000000000000000000000000000000000 DUP2 MSTORE PUSH1 0x4 ADD PUSH2 0x888 SWAP1 PUSH2 0x1EC9 JUMP JUMPDEST PUSH1 0x40 MLOAD DUP1 SWAP2 SUB SWAP1 REVERT JUMPDEST PUSH0 PUSH32 0x0 PUSH20 0xFFFFFFFFFFFFFFFFFFFFFFFFFFFFFFFFFFFFFFFF AND PUSH4 0x70A08231 ADDRESS PUSH1 0x40 MLOAD DUP3 PUSH4 0xFFFFFFFF AND PUSH1 0xE0 SHL DUP2 MSTORE PUSH1 0x4 ADD PUSH2 0x8EB SWAP2 SWAP1 PUSH2 0x1855 JUMP JUMPDEST PUSH1 0x20 PUSH1 0x40 MLOAD DUP1 DUP4 SUB DUP2 DUP7 GAS STATICCALL ISZERO DUP1 ISZERO PUSH2 0x906 JUMPI RETURNDATASIZE PUSH0 DUP1 RETURNDATACOPY RETURNDATASIZE PUSH0 REVERT JUMPDEST POP POP POP POP PUSH1 0x40 MLOAD RETURNDATASIZE PUSH1 0x1F NOT PUSH1 0x1F DUP3 ADD AND DUP3 ADD DUP1 PUSH1 0x40 MSTORE POP DUP2 ADD SWAP1 PUSH2 0x92A SWAP2 SWAP1 PUSH2 0x1EFB JUMP JUMPDEST GT PUSH2 0x96A JUMPI PUSH1 0x40 MLOAD PUSH32 0x8C379A000000000000000000000000000000000000000000000000000000000 DUP2 MSTORE PUSH1 0x4 ADD PUSH2 0x961 SWAP1 PUSH2 0x1F70 JUMP JUMPDEST PUSH1 0x40 MLOAD DUP1 SWAP2 SUB SWAP1 REVERT JUMPDEST PUSH0 DUP2 PUSH3 0x989680 PUSH2 0x97A SWAP2 SWAP1 PUSH2 0x1F8E JUMP JUMPDEST SWAP1 POP PUSH0 DUP1 JUMPDEST PUSH1 0x1 DUP1 SLOAD SWAP1 POP DUP2 PUSH2 0xFFFF AND LT ISZERO PUSH2 0xA1E JUMPI CALLER PUSH20 0xFFFFFFFFFFFFFFFFFFFFFFFFFFFFFFFFFFFFFFFF AND PUSH1 0x1 DUP3 PUSH2 0xFFFF AND DUP2 SLOAD DUP2 LT PUSH2 0x9BF JUMPI PUSH2 0x9BE PUSH2 0x1C62 JUMP JUMPDEST JUMPDEST SWAP1 PUSH0 MSTORE PUSH1 0x20 PUSH0 KECCAK256 ADD PUSH0 SWAP1 SLOAD SWAP1 PUSH2 0x100 EXP SWAP1 DIV PUSH20 0xFFFFFFFFFFFFFFFFFFFFFFFFFFFFFFFFFFFFFFFF AND PUSH20 0xFFFFFFFFFFFFFFFFFFFFFFFFFFFFFFFFFFFFFFFF AND SUB PUSH2 0xA0B JUMPI PUSH1 0x1 SWAP2 POP PUSH2 0xA1E JUMP JUMPDEST DUP1 DUP1 PUSH2 0xA16 SWAP1 PUSH2 0x1D31 JUMP JUMPDEST SWAP2 POP POP PUSH2 0x97F JUMP JUMPDEST POP DUP1 PUSH2 0xA9D JUMPI DUP2 PUSH1 0x5 PUSH0 DUP3 DUP3 SLOAD PUSH2 0xA35 SWAP2 SWAP1 PUSH2 0x1D87 JUMP JUMPDEST SWAP3 POP POP DUP2 SWAP1 SSTORE POP PUSH1 0x1 CALLER SWAP1 DUP1 PUSH1 0x1 DUP2 SLOAD ADD DUP1 DUP3 SSTORE DUP1 SWAP2 POP POP PUSH1 0x1 SWAP1 SUB SWAP1 PUSH0 MSTORE PUSH1 0x20 PUSH0 KECCAK256 ADD PUSH0 SWAP1 SWAP2 SWAP1 SWAP2 SWAP1 SWAP2 PUSH2 0x100 EXP DUP2 SLOAD DUP2 PUSH20 0xFFFFFFFFFFFFFFFFFFFFFFFFFFFFFFFFFFFFFFFF MUL NOT AND SWAP1 DUP4 PUSH20 0xFFFFFFFFFFFFFFFFFFFFFFFFFFFFFFFFFFFFFFFF AND MUL OR SWAP1 SSTORE POP JUMPDEST DUP2 PUSH1 0x6 PUSH0 DUP3 DUP3 SLOAD PUSH2 0xAAE SWAP2 SWAP1 PUSH2 0x1D87 JUMP JUMPDEST SWAP3 POP POP DUP2 SWAP1 SSTORE POP PUSH32 0x0 PUSH20 0xFFFFFFFFFFFFFFFFFFFFFFFFFFFFFFFFFFFFFFFF AND PUSH4 0xA9059CBB CALLER PUSH8 0xDE0B6B3A7640000 DUP6 PUSH2 0xB06 SWAP2 SWAP1 PUSH2 0x1FBE JUMP JUMPDEST PUSH1 0x40 MLOAD DUP4 PUSH4 0xFFFFFFFF AND PUSH1 0xE0 SHL DUP2 MSTORE PUSH1 0x4 ADD PUSH2 0xB23 SWAP3 SWAP2 SWAP1 PUSH2 0x1FFF JUMP JUMPDEST PUSH1 0x20 PUSH1 0x40 MLOAD DUP1 DUP4 SUB DUP2 PUSH0 DUP8 GAS CALL ISZERO DUP1 ISZERO PUSH2 0xB3F JUMPI RETURNDATASIZE PUSH0 DUP1 RETURNDATACOPY RETURNDATASIZE PUSH0 REVERT JUMPDEST POP POP POP POP PUSH1 0x40 MLOAD RETURNDATASIZE PUSH1 0x1F NOT PUSH1 0x1F DUP3 ADD AND DUP3 ADD DUP1 PUSH1 0x40 MSTORE POP DUP2 ADD SWAP1 PUSH2 0xB63 SWAP2 SWAP1 PUSH2 0x205B JUMP JUMPDEST POP TIMESTAMP PUSH0 DUP1 CALLER PUSH20 0xFFFFFFFFFFFFFFFFFFFFFFFFFFFFFFFFFFFFFFFF AND PUSH20 0xFFFFFFFFFFFFFFFFFFFFFFFFFFFFFFFFFFFFFFFF AND DUP2 MSTORE PUSH1 0x20 ADD SWAP1 DUP2 MSTORE PUSH1 0x20 ADD PUSH0 KECCAK256 DUP2 SWAP1 SSTORE POP PUSH32 0x3DD8B3A7A629ABB0CCD684DC47A495666A60E4BD8F7614AEED87088DFE7CEDE6 PUSH1 0x1 DUP1 SLOAD SWAP1 POP PUSH1 0x40 MLOAD PUSH2 0xBD9 SWAP2 SWAP1 PUSH2 0x1726 JUMP JUMPDEST PUSH1 0x40 MLOAD DUP1 SWAP2 SUB SWAP1 LOG1 PUSH32 0x60237EB95A34E0AF997FDC10EA4EB2C64FEC8D49DF3996E657F28B28AD8A0AD9 CALLER DUP4 PUSH1 0x40 MLOAD PUSH2 0xC12 SWAP3 SWAP2 SWAP1 PUSH2 0x1FFF JUMP JUMPDEST PUSH1 0x40 MLOAD DUP1 SWAP2 SUB SWAP1 LOG1 PUSH0 SWAP5 POP POP POP POP POP SWAP1 JUMP JUMPDEST CALLER PUSH20 0xFFFFFFFFFFFFFFFFFFFFFFFFFFFFFFFFFFFFFFFF AND PUSH1 0x3 PUSH0 SWAP1 SLOAD SWAP1 PUSH2 0x100 EXP SWAP1 DIV PUSH20 0xFFFFFFFFFFFFFFFFFFFFFFFFFFFFFFFFFFFFFFFF AND PUSH20 0xFFFFFFFFFFFFFFFFFFFFFFFFFFFFFFFFFFFFFFFF AND EQ PUSH2 0xCB3 JUMPI PUSH1 0x40 MLOAD PUSH32 0x8C379A000000000000000000000000000000000000000000000000000000000 DUP2 MSTORE PUSH1 0x4 ADD PUSH2 0xCAA SWAP1 PUSH2 0x1C44 JUMP JUMPDEST PUSH1 0x40 MLOAD DUP1 SWAP2 SUB SWAP1 REVERT JUMPDEST PUSH0 DUP1 PUSH0 DUP4 PUSH20 0xFFFFFFFFFFFFFFFFFFFFFFFFFFFFFFFFFFFFFFFF AND PUSH20 0xFFFFFFFFFFFFFFFFFFFFFFFFFFFFFFFFFFFFFFFF AND DUP2 MSTORE PUSH1 0x20 ADD SWAP1 DUP2 MSTORE PUSH1 0x20 ADD PUSH0 KECCAK256 SLOAD GT ISZERO PUSH2 0xD32 JUMPI PUSH1 0x40 MLOAD PUSH32 0xE64C65800000000000000000000000000000000000000000000000000000000 DUP2 MSTORE PUSH1 0x4 ADD PUSH2 0xD29 SWAP1 PUSH2 0x20D0 JUMP JUMPDEST PUSH1 0x40 MLOAD DUP1 SWAP2 SUB SWAP1 REVERT JUMPDEST PUSH1 0x1 PUSH0 DUP1 DUP4 PUSH20 0xFFFFFFFFFFFFFFFFFFFFFFFFFFFFFFFFFFFFFFFF AND PUSH20 0xFFFFFFFFFFFFFFFFFFFFFFFFFFFFFFFFFFFFFFFF AND DUP2 MSTORE PUSH1 0x20 ADD SWAP1 DUP2 MSTORE PUSH1 0x20 ADD PUSH0 KECCAK256 DUP2 SWAP1 SSTORE POP PUSH1 0x2 DUP2 SWAP1 DUP1 PUSH1 0x1 DUP2 SLOAD ADD DUP1 DUP3 SSTORE DUP1 SWAP2 POP POP PUSH1 0x1 SWAP1 SUB SWAP1 PUSH0 MSTORE PUSH1 0x20 PUSH0 KECCAK256 ADD PUSH0 SWAP1 SWAP2 SWAP1 SWAP2 SWAP1 SWAP2 PUSH2 0x100 EXP DUP2 SLOAD DUP2 PUSH20 0xFFFFFFFFFFFFFFFFFFFFFFFFFFFFFFFFFFFFFFFF MUL NOT AND SWAP1 DUP4 PUSH20 0xFFFFFFFFFFFFFFFFFFFFFFFFFFFFFFFFFFFFFFFF AND MUL OR SWAP1 SSTORE POP POP JUMP JUMPDEST PUSH1 0x60 PUSH1 0x2 DUP1 SLOAD DUP1 PUSH1 0x20 MUL PUSH1 0x20 ADD PUSH1 0x40 MLOAD SWAP1 DUP2 ADD PUSH1 0x40 MSTORE DUP1 SWAP3 SWAP2 SWAP1 DUP2 DUP2 MSTORE PUSH1 0x20 ADD DUP3 DUP1 SLOAD DUP1 ISZERO PUSH2 0xE58 JUMPI PUSH1 0x20 MUL DUP3 ADD SWAP2 SWAP1 PUSH0 MSTORE PUSH1 0x20 PUSH0 KECCAK256 SWAP1 JUMPDEST DUP2 PUSH0 SWAP1 SLOAD SWAP1 PUSH2 0x100 EXP SWAP1 DIV PUSH20 0xFFFFFFFFFFFFFFFFFFFFFFFFFFFFFFFFFFFFFFFF AND PUSH20 0xFFFFFFFFFFFFFFFFFFFFFFFFFFFFFFFFFFFFFFFF AND DUP2 MSTORE PUSH1 0x20 ADD SWAP1 PUSH1 0x1 ADD SWAP1 DUP1 DUP4 GT PUSH2 0xE0F JUMPI JUMPDEST POP POP POP POP POP SWAP1 POP SWAP1 JUMP JUMPDEST CALLER PUSH20 0xFFFFFFFFFFFFFFFFFFFFFFFFFFFFFFFFFFFFFFFF AND PUSH1 0x3 PUSH0 SWAP1 SLOAD SWAP1 PUSH2 0x100 EXP SWAP1 DIV PUSH20 0xFFFFFFFFFFFFFFFFFFFFFFFFFFFFFFFFFFFFFFFF AND PUSH20 0xFFFFFFFFFFFFFFFFFFFFFFFFFFFFFFFFFFFFFFFF AND EQ PUSH2 0xEF1 JUMPI PUSH1 0x40 MLOAD PUSH32 0x8C379A000000000000000000000000000000000000000000000000000000000 DUP2 MSTORE PUSH1 0x4 ADD PUSH2 0xEE8 SWAP1 PUSH2 0x1C44 JUMP JUMPDEST PUSH1 0x40 MLOAD DUP1 SWAP2 SUB SWAP1 REVERT JUMPDEST DUP1 PUSH1 0x3 PUSH0 PUSH2 0x100 EXP DUP2 SLOAD DUP2 PUSH20 0xFFFFFFFFFFFFFFFFFFFFFFFFFFFFFFFFFFFFFFFF MUL NOT AND SWAP1 DUP4 PUSH20 0xFFFFFFFFFFFFFFFFFFFFFFFFFFFFFFFFFFFFFFFF AND MUL OR SWAP1 SSTORE POP POP JUMP JUMPDEST PUSH0 PUSH32 0x0 PUSH20 0xFFFFFFFFFFFFFFFFFFFFFFFFFFFFFFFFFFFFFFFF AND PUSH4 0x23B872DD CALLER ADDRESS PUSH8 0xDE0B6B3A7640000 DUP7 PUSH2 0xF87 SWAP2 SWAP1 PUSH2 0x1FBE JUMP JUMPDEST PUSH1 0x40 MLOAD DUP5 PUSH4 0xFFFFFFFF AND PUSH1 0xE0 SHL DUP2 MSTORE PUSH1 0x4 ADD PUSH2 0xFA5 SWAP4 SWAP3 SWAP2 SWAP1 PUSH2 0x20EE JUMP JUMPDEST PUSH1 0x20 PUSH1 0x40 MLOAD DUP1 DUP4 SUB DUP2 PUSH0 DUP8 GAS CALL ISZERO DUP1 ISZERO PUSH2 0xFC1 JUMPI RETURNDATASIZE PUSH0 DUP1 RETURNDATACOPY RETURNDATASIZE PUSH0 REVERT JUMPDEST POP POP POP POP PUSH1 0x40 MLOAD RETURNDATASIZE PUSH1 0x1F NOT PUSH1 0x1F DUP3 ADD AND DUP3 ADD DUP1 PUSH1 0x40 MSTORE POP DUP2 ADD SWAP1 PUSH2 0xFE5 SWAP2 SWAP1 PUSH2 0x205B JUMP JUMPDEST SWAP1 POP DUP1 ISZERO PUSH2 0x10BD JUMPI PUSH0 JUMPDEST PUSH1 0x7 DUP1 SLOAD SWAP1 POP DUP2 LT ISZERO PUSH2 0x10BB JUMPI PUSH1 0x7 DUP2 DUP2 SLOAD DUP2 LT PUSH2 0x1010 JUMPI PUSH2 0x100F PUSH2 0x1C62 JUMP JUMPDEST JUMPDEST SWAP1 PUSH0 MSTORE PUSH1 0x20 PUSH0 KECCAK256 SWAP1 PUSH1 0x2 MUL ADD PUSH0 ADD PUSH0 SWAP1 SLOAD SWAP1 PUSH2 0x100 EXP SWAP1 DIV PUSH20 0xFFFFFFFFFFFFFFFFFFFFFFFFFFFFFFFFFFFFFFFF AND PUSH20 0xFFFFFFFFFFFFFFFFFFFFFFFFFFFFFFFFFFFFFFFF AND CALLER PUSH20 0xFFFFFFFFFFFFFFFFFFFFFFFFFFFFFFFFFFFFFFFF AND SUB PUSH2 0x10AE JUMPI DUP3 PUSH1 0x7 DUP3 DUP2 SLOAD DUP2 LT PUSH2 0x1085 JUMPI PUSH2 0x1084 PUSH2 0x1C62 JUMP JUMPDEST JUMPDEST SWAP1 PUSH0 MSTORE PUSH1 0x20 PUSH0 KECCAK256 SWAP1 PUSH1 0x2 MUL ADD PUSH1 0x1 ADD PUSH0 DUP3 DUP3 SLOAD PUSH2 0x10A2 SWAP2 SWAP1 PUSH2 0x1D87 JUMP JUMPDEST SWAP3 POP POP DUP2 SWAP1 SSTORE POP PUSH2 0x10BB JUMP JUMPDEST DUP1 DUP1 PUSH1 0x1 ADD SWAP2 POP POP PUSH2 0xFEF JUMP JUMPDEST POP JUMPDEST POP POP JUMP JUMPDEST PUSH0 DUP1 PUSH0 DUP4 PUSH20 0xFFFFFFFFFFFFFFFFFFFFFFFFFFFFFFFFFFFFFFFF AND PUSH20 0xFFFFFFFFFFFFFFFFFFFFFFFFFFFFFFFFFFFFFFFF AND DUP2 MSTORE PUSH1 0x20 ADD SWAP1 DUP2 MSTORE PUSH1 0x20 ADD PUSH0 KECCAK256 SLOAD SWAP1 POP SWAP2 SWAP1 POP JUMP JUMPDEST CALLER PUSH20 0xFFFFFFFFFFFFFFFFFFFFFFFFFFFFFFFFFFFFFFFF AND PUSH1 0x3 PUSH0 SWAP1 SLOAD SWAP1 PUSH2 0x100 EXP SWAP1 DIV PUSH20 0xFFFFFFFFFFFFFFFFFFFFFFFFFFFFFFFFFFFFFFFF AND PUSH20 0xFFFFFFFFFFFFFFFFFFFFFFFFFFFFFFFFFFFFFFFF AND EQ PUSH2 0x1195 JUMPI PUSH1 0x40 MLOAD PUSH32 0x8C379A000000000000000000000000000000000000000000000000000000000 DUP2 MSTORE PUSH1 0x4 ADD PUSH2 0x118C SWAP1 PUSH2 0x1C44 JUMP JUMPDEST PUSH1 0x40 MLOAD DUP1 SWAP2 SUB SWAP1 REVERT JUMPDEST PUSH0 JUMPDEST DUP2 MLOAD DUP2 PUSH2 0xFFFF AND LT ISZERO PUSH2 0x12F7 JUMPI PUSH0 DUP1 PUSH0 DUP5 DUP5 PUSH2 0xFFFF AND DUP2 MLOAD DUP2 LT PUSH2 0x11BE JUMPI PUSH2 0x11BD PUSH2 0x1C62 JUMP JUMPDEST JUMPDEST PUSH1 0x20 MUL PUSH1 0x20 ADD ADD MLOAD PUSH20 0xFFFFFFFFFFFFFFFFFFFFFFFFFFFFFFFFFFFFFFFF AND PUSH20 0xFFFFFFFFFFFFFFFFFFFFFFFFFFFFFFFFFFFFFFFF AND DUP2 MSTORE PUSH1 0x20 ADD SWAP1 DUP2 MSTORE PUSH1 0x20 ADD PUSH0 KECCAK256 SLOAD GT PUSH2 0x12E4 JUMPI PUSH1 0x1 PUSH0 DUP1 DUP5 DUP5 PUSH2 0xFFFF AND DUP2 MLOAD DUP2 LT PUSH2 0x1220 JUMPI PUSH2 0x121F PUSH2 0x1C62 JUMP JUMPDEST JUMPDEST PUSH1 0x20 MUL PUSH1 0x20 ADD ADD MLOAD PUSH20 0xFFFFFFFFFFFFFFFFFFFFFFFFFFFFFFFFFFFFFFFF AND PUSH20 0xFFFFFFFFFFFFFFFFFFFFFFFFFFFFFFFFFFFFFFFF AND DUP2 MSTORE PUSH1 0x20 ADD SWAP1 DUP2 MSTORE PUSH1 0x20 ADD PUSH0 KECCAK256 DUP2 SWAP1 SSTORE POP PUSH1 0x2 DUP3 DUP3 PUSH2 0xFFFF AND DUP2 MLOAD DUP2 LT PUSH2 0x127E JUMPI PUSH2 0x127D PUSH2 0x1C62 JUMP JUMPDEST JUMPDEST PUSH1 0x20 MUL PUSH1 0x20 ADD ADD MLOAD SWAP1 DUP1 PUSH1 0x1 DUP2 SLOAD ADD DUP1 DUP3 SSTORE DUP1 SWAP2 POP POP PUSH1 0x1 SWAP1 SUB SWAP1 PUSH0 MSTORE PUSH1 0x20 PUSH0 KECCAK256 ADD PUSH0 SWAP1 SWAP2 SWAP1 SWAP2 SWAP1 SWAP2 PUSH2 0x100 EXP DUP2 SLOAD DUP2 PUSH20 0xFFFFFFFFFFFFFFFFFFFFFFFFFFFFFFFFFFFFFFFF MUL NOT AND SWAP1 DUP4 PUSH20 0xFFFFFFFFFFFFFFFFFFFFFFFFFFFFFFFFFFFFFFFF AND MUL OR SWAP1 SSTORE POP JUMPDEST DUP1 DUP1 PUSH2 0x12EF SWAP1 PUSH2 0x1D31 JUMP JUMPDEST SWAP2 POP POP PUSH2 0x1197 JUMP JUMPDEST POP POP JUMP JUMPDEST PUSH1 0x60 PUSH2 0x1305 PUSH2 0x1484 JUMP JUMPDEST PUSH1 0x7 DUP1 SLOAD DUP1 PUSH1 0x20 MUL PUSH1 0x20 ADD PUSH1 0x40 MLOAD SWAP1 DUP2 ADD PUSH1 0x40 MSTORE DUP1 SWAP3 SWAP2 SWAP1 DUP2 DUP2 MSTORE PUSH1 0x20 ADD PUSH0 SWAP1 JUMPDEST DUP3 DUP3 LT ISZERO PUSH2 0x13B4 JUMPI DUP4 DUP3 SWAP1 PUSH0 MSTORE PUSH1 0x20 PUSH0 KECCAK256 SWAP1 PUSH1 0x2 MUL ADD PUSH1 0x40 MLOAD DUP1 PUSH1 0x40 ADD PUSH1 0x40 MSTORE SWAP1 DUP2 PUSH0 DUP3 ADD PUSH0 SWAP1 SLOAD SWAP1 PUSH2 0x100 EXP SWAP1 DIV PUSH20 0xFFFFFFFFFFFFFFFFFFFFFFFFFFFFFFFFFFFFFFFF AND PUSH20 0xFFFFFFFFFFFFFFFFFFFFFFFFFFFFFFFFFFFFFFFF AND PUSH20 0xFFFFFFFFFFFFFFFFFFFFFFFFFFFFFFFFFFFFFFFF AND DUP2 MSTORE PUSH1 0x20 ADD PUSH1 0x1 DUP3 ADD SLOAD DUP2 MSTORE POP POP DUP2 MSTORE PUSH1 0x20 ADD SWAP1 PUSH1 0x1 ADD SWAP1 PUSH2 0x1326 JUMP JUMPDEST POP POP POP POP SWAP1 POP SWAP1 JUMP JUMPDEST PUSH0 PUSH8 0xDE0B6B3A7640000 PUSH32 0x0 PUSH20 0xFFFFFFFFFFFFFFFFFFFFFFFFFFFFFFFFFFFFFFFF AND PUSH4 0x70A08231 ADDRESS PUSH1 0x40 MLOAD DUP3 PUSH4 0xFFFFFFFF AND PUSH1 0xE0 SHL DUP2 MSTORE PUSH1 0x4 ADD PUSH2 0x1420 SWAP2 SWAP1 PUSH2 0x1855 JUMP JUMPDEST PUSH1 0x20 PUSH1 0x40 MLOAD DUP1 DUP4 SUB DUP2 DUP7 GAS STATICCALL ISZERO DUP1 ISZERO PUSH2 0x143B JUMPI RETURNDATASIZE PUSH0 DUP1 RETURNDATACOPY RETURNDATASIZE PUSH0 REVERT JUMPDEST POP POP POP POP PUSH1 0x40 MLOAD RETURNDATASIZE PUSH1 0x1F NOT PUSH1 0x1F DUP3 ADD AND DUP3 ADD DUP1 PUSH1 0x40 MSTORE POP DUP2 ADD SWAP1 PUSH2 0x145F SWAP2 SWAP1 PUSH2 0x1EFB JUMP JUMPDEST PUSH2 0x1469 SWAP2 SWAP1 PUSH2 0x1F8E JUMP JUMPDEST SWAP1 POP SWAP1 JUMP JUMPDEST PUSH0 PUSH1 0x5 DUP2 SWAP1 SSTORE POP PUSH1 0x1 PUSH0 PUSH2 0x1482 SWAP2 SWAP1 PUSH2 0x16D5 JUMP JUMPDEST JUMP JUMPDEST PUSH0 JUMPDEST PUSH1 0x1 PUSH1 0x7 DUP1 SLOAD SWAP1 POP PUSH2 0x1498 SWAP2 SWAP1 PUSH2 0x1CBC JUMP JUMPDEST DUP2 LT ISZERO PUSH2 0x16D2 JUMPI PUSH0 PUSH1 0x1 DUP3 PUSH2 0x14AD SWAP2 SWAP1 PUSH2 0x1D87 JUMP JUMPDEST SWAP1 POP JUMPDEST PUSH1 0x7 DUP1 SLOAD SWAP1 POP DUP2 LT ISZERO PUSH2 0x16C6 JUMPI PUSH1 0x7 DUP2 DUP2 SLOAD DUP2 LT PUSH2 0x14D1 JUMPI PUSH2 0x14D0 PUSH2 0x1C62 JUMP JUMPDEST JUMPDEST SWAP1 PUSH0 MSTORE PUSH1 0x20 PUSH0 KECCAK256 SWAP1 PUSH1 0x2 MUL ADD PUSH1 0x1 ADD SLOAD PUSH1 0x7 DUP4 DUP2 SLOAD DUP2 LT PUSH2 0x14F5 JUMPI PUSH2 0x14F4 PUSH2 0x1C62 JUMP JUMPDEST JUMPDEST SWAP1 PUSH0 MSTORE PUSH1 0x20 PUSH0 KECCAK256 SWAP1 PUSH1 0x2 MUL ADD PUSH1 0x1 ADD SLOAD GT ISZERO PUSH2 0x16BB JUMPI PUSH0 PUSH1 0x7 DUP4 DUP2 SLOAD DUP2 LT PUSH2 0x1520 JUMPI PUSH2 0x151F PUSH2 0x1C62 JUMP JUMPDEST JUMPDEST SWAP1 PUSH0 MSTORE PUSH1 0x20 PUSH0 KECCAK256 SWAP1 PUSH1 0x2 MUL ADD PUSH1 0x40 MLOAD DUP1 PUSH1 0x40 ADD PUSH1 0x40 MSTORE SWAP1 DUP2 PUSH0 DUP3 ADD PUSH0 SWAP1 SLOAD SWAP1 PUSH2 0x100 EXP SWAP1 DIV PUSH20 0xFFFFFFFFFFFFFFFFFFFFFFFFFFFFFFFFFFFFFFFF AND PUSH20 0xFFFFFFFFFFFFFFFFFFFFFFFFFFFFFFFFFFFFFFFF AND PUSH20 0xFFFFFFFFFFFFFFFFFFFFFFFFFFFFFFFFFFFFFFFF AND DUP2 MSTORE PUSH1 0x20 ADD PUSH1 0x1 DUP3 ADD SLOAD DUP2 MSTORE POP POP SWAP1 POP PUSH1 0x7 DUP3 DUP2 SLOAD DUP2 LT PUSH2 0x15AB JUMPI PUSH2 0x15AA PUSH2 0x1C62 JUMP JUMPDEST JUMPDEST SWAP1 PUSH0 MSTORE PUSH1 0x20 PUSH0 KECCAK256 SWAP1 PUSH1 0x2 MUL ADD PUSH1 0x7 DUP5 DUP2 SLOAD DUP2 LT PUSH2 0x15CB JUMPI PUSH2 0x15CA PUSH2 0x1C62 JUMP JUMPDEST JUMPDEST SWAP1 PUSH0 MSTORE PUSH1 0x20 PUSH0 KECCAK256 SWAP1 PUSH1 0x2 MUL ADD PUSH0 DUP3 ADD PUSH0 SWAP1 SLOAD SWAP1 PUSH2 0x100 EXP SWAP1 DIV PUSH20 0xFFFFFFFFFFFFFFFFFFFFFFFFFFFFFFFFFFFFFFFF AND DUP2 PUSH0 ADD PUSH0 PUSH2 0x100 EXP DUP2 SLOAD DUP2 PUSH20 0xFFFFFFFFFFFFFFFFFFFFFFFFFFFFFFFFFFFFFFFF MUL NOT AND SWAP1 DUP4 PUSH20 0xFFFFFFFFFFFFFFFFFFFFFFFFFFFFFFFFFFFFFFFF AND MUL OR SWAP1 SSTORE POP PUSH1 0x1 DUP3 ADD SLOAD DUP2 PUSH1 0x1 ADD SSTORE SWAP1 POP POP DUP1 PUSH1 0x7 DUP4 DUP2 SLOAD DUP2 LT PUSH2 0x165C JUMPI PUSH2 0x165B PUSH2 0x1C62 JUMP JUMPDEST JUMPDEST SWAP1 PUSH0 MSTORE PUSH1 0x20 PUSH0 KECCAK256 SWAP1 PUSH1 0x2 MUL ADD PUSH0 DUP3 ADD MLOAD DUP2 PUSH0 ADD PUSH0 PUSH2 0x100 EXP DUP2 SLOAD DUP2 PUSH20 0xFFFFFFFFFFFFFFFFFFFFFFFFFFFFFFFFFFFFFFFF MUL NOT AND SWAP1 DUP4 PUSH20 0xFFFFFFFFFFFFFFFFFFFFFFFFFFFFFFFFFFFFFFFF AND MUL OR SWAP1 SSTORE POP PUSH1 0x20 DUP3 ADD MLOAD DUP2 PUSH1 0x1 ADD SSTORE SWAP1 POP POP POP JUMPDEST DUP1 PUSH1 0x1 ADD SWAP1 POP PUSH2 0x14B0 JUMP JUMPDEST POP DUP1 PUSH1 0x1 ADD SWAP1 POP PUSH2 0x1486 JUMP JUMPDEST POP JUMP JUMPDEST POP DUP1 SLOAD PUSH0 DUP3 SSTORE SWAP1 PUSH0 MSTORE PUSH1 0x20 PUSH0 KECCAK256 SWAP1 DUP2 ADD SWAP1 PUSH2 0x16F0 SWAP2 SWAP1 PUSH2 0x16F3 JUMP JUMPDEST POP JUMP JUMPDEST JUMPDEST DUP1 DUP3 GT ISZERO PUSH2 0x170A JUMPI PUSH0 DUP2 PUSH0 SWAP1 SSTORE POP PUSH1 0x1 ADD PUSH2 0x16F4 JUMP JUMPDEST POP SWAP1 JUMP JUMPDEST PUSH0 DUP2 SWAP1 POP SWAP2 SWAP1 POP JUMP JUMPDEST PUSH2 0x1720 DUP2 PUSH2 0x170E JUMP JUMPDEST DUP3 MSTORE POP POP JUMP JUMPDEST PUSH0 PUSH1 0x20 DUP3 ADD SWAP1 POP PUSH2 0x1739 PUSH0 DUP4 ADD DUP5 PUSH2 0x1717 JUMP JUMPDEST SWAP3 SWAP2 POP POP JUMP JUMPDEST PUSH0 DUP2 MLOAD SWAP1 POP SWAP2 SWAP1 POP JUMP JUMPDEST PUSH0 DUP3 DUP3 MSTORE PUSH1 0x20 DUP3 ADD SWAP1 POP SWAP3 SWAP2 POP POP JUMP JUMPDEST PUSH0 DUP2 SWAP1 POP PUSH1 0x20 DUP3 ADD SWAP1 POP SWAP2 SWAP1 POP JUMP JUMPDEST PUSH0 PUSH20 0xFFFFFFFFFFFFFFFFFFFFFFFFFFFFFFFFFFFFFFFF DUP3 AND SWAP1 POP SWAP2 SWAP1 POP JUMP JUMPDEST PUSH0 PUSH2 0x1791 DUP3 PUSH2 0x1768 JUMP JUMPDEST SWAP1 POP SWAP2 SWAP1 POP JUMP JUMPDEST PUSH2 0x17A1 DUP2 PUSH2 0x1787 JUMP JUMPDEST DUP3 MSTORE POP POP JUMP JUMPDEST PUSH0 PUSH2 0x17B2 DUP4 DUP4 PUSH2 0x1798 JUMP JUMPDEST PUSH1 0x20 DUP4 ADD SWAP1 POP SWAP3 SWAP2 POP POP JUMP JUMPDEST PUSH0 PUSH1 0x20 DUP3 ADD SWAP1 POP SWAP2 SWAP1 POP JUMP JUMPDEST PUSH0 PUSH2 0x17D4 DUP3 PUSH2 0x173F JUMP JUMPDEST PUSH2 0x17DE DUP2 DUP6 PUSH2 0x1749 JUMP JUMPDEST SWAP4 POP PUSH2 0x17E9 DUP4 PUSH2 0x1759 JUMP JUMPDEST DUP1 PUSH0 JUMPDEST DUP4 DUP2 LT ISZERO PUSH2 0x1819 JUMPI DUP2 MLOAD PUSH2 0x1800 DUP9 DUP3 PUSH2 0x17A7 JUMP JUMPDEST SWAP8 POP PUSH2 0x180B DUP4 PUSH2 0x17BE JUMP JUMPDEST SWAP3 POP POP PUSH1 0x1 DUP2 ADD SWAP1 POP PUSH2 0x17EC JUMP JUMPDEST POP DUP6 SWAP4 POP POP POP POP SWAP3 SWAP2 POP POP JUMP JUMPDEST PUSH0 PUSH1 0x20 DUP3 ADD SWAP1 POP DUP2 DUP2 SUB PUSH0 DUP4 ADD MSTORE PUSH2 0x183E DUP2 DUP5 PUSH2 0x17CA JUMP JUMPDEST SWAP1 POP SWAP3 SWAP2 POP POP JUMP JUMPDEST PUSH2 0x184F DUP2 PUSH2 0x1787 JUMP JUMPDEST DUP3 MSTORE POP POP JUMP JUMPDEST PUSH0 PUSH1 0x20 DUP3 ADD SWAP1 POP PUSH2 0x1868 PUSH0 DUP4 ADD DUP5 PUSH2 0x1846 JUMP JUMPDEST SWAP3 SWAP2 POP POP JUMP JUMPDEST PUSH0 PUSH1 0x40 MLOAD SWAP1 POP SWAP1 JUMP JUMPDEST PUSH0 DUP1 REVERT JUMPDEST PUSH0 DUP1 REVERT JUMPDEST PUSH2 0x1888 DUP2 PUSH2 0x1787 JUMP JUMPDEST DUP2 EQ PUSH2 0x1892 JUMPI PUSH0 DUP1 REVERT JUMPDEST POP JUMP JUMPDEST PUSH0 DUP2 CALLDATALOAD SWAP1 POP PUSH2 0x18A3 DUP2 PUSH2 0x187F JUMP JUMPDEST SWAP3 SWAP2 POP POP JUMP JUMPDEST PUSH0 PUSH1 0x20 DUP3 DUP5 SUB SLT ISZERO PUSH2 0x18BE JUMPI PUSH2 0x18BD PUSH2 0x1877 JUMP JUMPDEST JUMPDEST PUSH0 PUSH2 0x18CB DUP5 DUP3 DUP6 ADD PUSH2 0x1895 JUMP JUMPDEST SWAP2 POP POP SWAP3 SWAP2 POP POP JUMP JUMPDEST PUSH2 0x18DD DUP2 PUSH2 0x170E JUMP JUMPDEST DUP2 EQ PUSH2 0x18E7 JUMPI PUSH0 DUP1 REVERT JUMPDEST POP JUMP JUMPDEST PUSH0 DUP2 CALLDATALOAD SWAP1 POP PUSH2 0x18F8 DUP2 PUSH2 0x18D4 JUMP JUMPDEST SWAP3 SWAP2 POP POP JUMP JUMPDEST PUSH0 PUSH1 0x20 DUP3 DUP5 SUB SLT ISZERO PUSH2 0x1913 JUMPI PUSH2 0x1912 PUSH2 0x1877 JUMP JUMPDEST JUMPDEST PUSH0 PUSH2 0x1920 DUP5 DUP3 DUP6 ADD PUSH2 0x18EA JUMP JUMPDEST SWAP2 POP POP SWAP3 SWAP2 POP POP JUMP JUMPDEST PUSH0 DUP1 REVERT JUMPDEST PUSH0 PUSH1 0x1F NOT PUSH1 0x1F DUP4 ADD AND SWAP1 POP SWAP2 SWAP1 POP JUMP JUMPDEST PUSH32 0x4E487B7100000000000000000000000000000000000000000000000000000000 PUSH0 MSTORE PUSH1 0x41 PUSH1 0x4 MSTORE PUSH1 0x24 PUSH0 REVERT JUMPDEST PUSH2 0x1973 DUP3 PUSH2 0x192D JUMP JUMPDEST DUP2 ADD DUP2 DUP2 LT PUSH8 0xFFFFFFFFFFFFFFFF DUP3 GT OR ISZERO PUSH2 0x1992 JUMPI PUSH2 0x1991 PUSH2 0x193D JUMP JUMPDEST JUMPDEST DUP1 PUSH1 0x40 MSTORE POP POP POP JUMP JUMPDEST PUSH0 PUSH2 0x19A4 PUSH2 0x186E JUMP JUMPDEST SWAP1 POP PUSH2 0x19B0 DUP3 DUP3 PUSH2 0x196A JUMP JUMPDEST SWAP2 SWAP1 POP JUMP JUMPDEST PUSH0 PUSH8 0xFFFFFFFFFFFFFFFF DUP3 GT ISZERO PUSH2 0x19CF JUMPI PUSH2 0x19CE PUSH2 0x193D JUMP JUMPDEST JUMPDEST PUSH1 0x20 DUP3 MUL SWAP1 POP PUSH1 0x20 DUP2 ADD SWAP1 POP SWAP2 SWAP1 POP JUMP JUMPDEST PUSH0 DUP1 REVERT JUMPDEST PUSH0 PUSH2 0x19F6 PUSH2 0x19F1 DUP5 PUSH2 0x19B5 JUMP JUMPDEST PUSH2 0x199B JUMP JUMPDEST SWAP1 POP DUP1 DUP4 DUP3 MSTORE PUSH1 0x20 DUP3 ADD SWAP1 POP PUSH1 0x20 DUP5 MUL DUP4 ADD DUP6 DUP2 GT ISZERO PUSH2 0x1A19 JUMPI PUSH2 0x1A18 PUSH2 0x19E0 JUMP JUMPDEST JUMPDEST DUP4 JUMPDEST DUP2 DUP2 LT ISZERO PUSH2 0x1A42 JUMPI DUP1 PUSH2 0x1A2E DUP9 DUP3 PUSH2 0x1895 JUMP JUMPDEST DUP5 MSTORE PUSH1 0x20 DUP5 ADD SWAP4 POP POP PUSH1 0x20 DUP2 ADD SWAP1 POP PUSH2 0x1A1B JUMP JUMPDEST POP POP POP SWAP4 SWAP3 POP POP POP JUMP JUMPDEST PUSH0 DUP3 PUSH1 0x1F DUP4 ADD SLT PUSH2 0x1A60 JUMPI PUSH2 0x1A5F PUSH2 0x1929 JUMP JUMPDEST JUMPDEST DUP2 CALLDATALOAD PUSH2 0x1A70 DUP5 DUP3 PUSH1 0x20 DUP7 ADD PUSH2 0x19E4 JUMP JUMPDEST SWAP2 POP POP SWAP3 SWAP2 POP POP JUMP JUMPDEST PUSH0 PUSH1 0x20 DUP3 DUP5 SUB SLT ISZERO PUSH2 0x1A8E JUMPI PUSH2 0x1A8D PUSH2 0x1877 JUMP JUMPDEST JUMPDEST PUSH0 DUP3 ADD CALLDATALOAD PUSH8 0xFFFFFFFFFFFFFFFF DUP2 GT ISZERO PUSH2 0x1AAB JUMPI PUSH2 0x1AAA PUSH2 0x187B JUMP JUMPDEST JUMPDEST PUSH2 0x1AB7 DUP5 DUP3 DUP6 ADD PUSH2 0x1A4C JUMP JUMPDEST SWAP2 POP POP SWAP3 SWAP2 POP POP JUMP JUMPDEST PUSH0 DUP2 MLOAD SWAP1 POP SWAP2 SWAP1 POP JUMP JUMPDEST PUSH0 DUP3 DUP3 MSTORE PUSH1 0x20 DUP3 ADD SWAP1 POP SWAP3 SWAP2 POP POP JUMP JUMPDEST PUSH0 DUP2 SWAP1 POP PUSH1 0x20 DUP3 ADD SWAP1 POP SWAP2 SWAP1 POP JUMP JUMPDEST PUSH2 0x1AF2 DUP2 PUSH2 0x170E JUMP JUMPDEST DUP3 MSTORE POP POP JUMP JUMPDEST PUSH1 0x40 DUP3 ADD PUSH0 DUP3 ADD MLOAD PUSH2 0x1B0C PUSH0 DUP6 ADD DUP3 PUSH2 0x1798 JUMP JUMPDEST POP PUSH1 0x20 DUP3 ADD MLOAD PUSH2 0x1B1F PUSH1 0x20 DUP6 ADD DUP3 PUSH2 0x1AE9 JUMP JUMPDEST POP POP POP POP JUMP JUMPDEST PUSH0 PUSH2 0x1B30 DUP4 DUP4 PUSH2 0x1AF8 JUMP JUMPDEST PUSH1 0x40 DUP4 ADD SWAP1 POP SWAP3 SWAP2 POP POP JUMP JUMPDEST PUSH0 PUSH1 0x20 DUP3 ADD SWAP1 POP SWAP2 SWAP1 POP JUMP JUMPDEST PUSH0 PUSH2 0x1B52 DUP3 PUSH2 0x1AC0 JUMP JUMPDEST PUSH2 0x1B5C DUP2 DUP6 PUSH2 0x1ACA JUMP JUMPDEST SWAP4 POP PUSH2 0x1B67 DUP4 PUSH2 0x1ADA JUMP JUMPDEST DUP1 PUSH0 JUMPDEST DUP4 DUP2 LT ISZERO PUSH2 0x1B97 JUMPI DUP2 MLOAD PUSH2 0x1B7E DUP9 DUP3 PUSH2 0x1B25 JUMP JUMPDEST SWAP8 POP PUSH2 0x1B89 DUP4 PUSH2 0x1B3C JUMP JUMPDEST SWAP3 POP POP PUSH1 0x1 DUP2 ADD SWAP1 POP PUSH2 0x1B6A JUMP JUMPDEST POP DUP6 SWAP4 POP POP POP POP SWAP3 SWAP2 POP POP JUMP JUMPDEST PUSH0 PUSH1 0x20 DUP3 ADD SWAP1 POP DUP2 DUP2 SUB PUSH0 DUP4 ADD MSTORE PUSH2 0x1BBC DUP2 DUP5 PUSH2 0x1B48 JUMP JUMPDEST SWAP1 POP SWAP3 SWAP2 POP POP JUMP JUMPDEST PUSH0 DUP3 DUP3 MSTORE PUSH1 0x20 DUP3 ADD SWAP1 POP SWAP3 SWAP2 POP POP JUMP JUMPDEST PUSH32 0x6F6E6C792061646D696E2063616E20696E766F6B6520746869732066756E6374 PUSH0 DUP3 ADD MSTORE PUSH32 0x696F6E0000000000000000000000000000000000000000000000000000000000 PUSH1 0x20 DUP3 ADD MSTORE POP JUMP JUMPDEST PUSH0 PUSH2 0x1C2E PUSH1 0x23 DUP4 PUSH2 0x1BC4 JUMP JUMPDEST SWAP2 POP PUSH2 0x1C39 DUP3 PUSH2 0x1BD4 JUMP JUMPDEST PUSH1 0x40 DUP3 ADD SWAP1 POP SWAP2 SWAP1 POP JUMP JUMPDEST PUSH0 PUSH1 0x20 DUP3 ADD SWAP1 POP DUP2 DUP2 SUB PUSH0 DUP4 ADD MSTORE PUSH2 0x1C5B DUP2 PUSH2 0x1C22 JUMP JUMPDEST SWAP1 POP SWAP2 SWAP1 POP JUMP JUMPDEST PUSH32 0x4E487B7100000000000000000000000000000000000000000000000000000000 PUSH0 MSTORE PUSH1 0x32 PUSH1 0x4 MSTORE PUSH1 0x24 PUSH0 REVERT JUMPDEST PUSH32 0x4E487B7100000000000000000000000000000000000000000000000000000000 PUSH0 MSTORE PUSH1 0x11 PUSH1 0x4 MSTORE PUSH1 0x24 PUSH0 REVERT JUMPDEST PUSH0 PUSH2 0x1CC6 DUP3 PUSH2 0x170E JUMP JUMPDEST SWAP2 POP PUSH2 0x1CD1 DUP4 PUSH2 0x170E JUMP JUMPDEST SWAP3 POP DUP3 DUP3 SUB SWAP1 POP DUP2 DUP2 GT ISZERO PUSH2 0x1CE9 JUMPI PUSH2 0x1CE8 PUSH2 0x1C8F JUMP JUMPDEST JUMPDEST SWAP3 SWAP2 POP POP JUMP JUMPDEST PUSH0 PUSH2 0xFFFF DUP3 AND SWAP1 POP SWAP2 SWAP1 POP JUMP JUMPDEST PUSH0 PUSH2 0x1D06 DUP3 PUSH2 0x1CEF JUMP JUMPDEST SWAP2 POP PUSH2 0x1D11 DUP4 PUSH2 0x1CEF JUMP JUMPDEST SWAP3 POP DUP3 DUP3 ADD SWAP1 POP PUSH2 0xFFFF DUP2 GT ISZERO PUSH2 0x1D2B JUMPI PUSH2 0x1D2A PUSH2 0x1C8F JUMP JUMPDEST JUMPDEST SWAP3 SWAP2 POP POP JUMP JUMPDEST PUSH0 PUSH2 0x1D3B DUP3 PUSH2 0x1CEF JUMP JUMPDEST SWAP2 POP PUSH2 0xFFFF DUP3 SUB PUSH2 0x1D4F JUMPI PUSH2 0x1D4E PUSH2 0x1C8F JUMP JUMPDEST JUMPDEST PUSH1 0x1 DUP3 ADD SWAP1 POP SWAP2 SWAP1 POP JUMP JUMPDEST PUSH32 0x4E487B7100000000000000000000000000000000000000000000000000000000 PUSH0 MSTORE PUSH1 0x31 PUSH1 0x4 MSTORE PUSH1 0x24 PUSH0 REVERT JUMPDEST PUSH0 PUSH2 0x1D91 DUP3 PUSH2 0x170E JUMP JUMPDEST SWAP2 POP PUSH2 0x1D9C DUP4 PUSH2 0x170E JUMP JUMPDEST SWAP3 POP DUP3 DUP3 ADD SWAP1 POP DUP1 DUP3 GT ISZERO PUSH2 0x1DB4 JUMPI PUSH2 0x1DB3 PUSH2 0x1C8F JUMP JUMPDEST JUMPDEST SWAP3 SWAP2 POP POP JUMP JUMPDEST PUSH32 0x4E487B7100000000000000000000000000000000000000000000000000000000 PUSH0 MSTORE PUSH1 0x12 PUSH1 0x4 MSTORE PUSH1 0x24 PUSH0 REVERT JUMPDEST PUSH0 PUSH2 0x1DF1 DUP3 PUSH2 0x170E JUMP JUMPDEST SWAP2 POP PUSH2 0x1DFC DUP4 PUSH2 0x170E JUMP JUMPDEST SWAP3 POP DUP3 PUSH2 0x1E0C JUMPI PUSH2 0x1E0B PUSH2 0x1DBA JUMP JUMPDEST JUMPDEST DUP3 DUP3 MOD SWAP1 POP SWAP3 SWAP2 POP POP JUMP JUMPDEST PUSH32 0x4E6F7420616E20656C696769626C652075736572210000000000000000000000 PUSH0 DUP3 ADD MSTORE POP JUMP JUMPDEST PUSH0 PUSH2 0x1E4B PUSH1 0x15 DUP4 PUSH2 0x1BC4 JUMP JUMPDEST SWAP2 POP PUSH2 0x1E56 DUP3 PUSH2 0x1E17 JUMP JUMPDEST PUSH1 0x20 DUP3 ADD SWAP1 POP SWAP2 SWAP1 POP JUMP JUMPDEST PUSH0 PUSH1 0x20 DUP3 ADD SWAP1 POP DUP2 DUP2 SUB PUSH0 DUP4 ADD MSTORE PUSH2 0x1E78 DUP2 PUSH2 0x1E3F JUMP JUMPDEST SWAP1 POP SWAP2 SWAP1 POP JUMP JUMPDEST PUSH32 0x4F6E636520706572207765656B00000000000000000000000000000000000000 PUSH0 DUP3 ADD MSTORE POP JUMP JUMPDEST PUSH0 PUSH2 0x1EB3 PUSH1 0xD DUP4 PUSH2 0x1BC4 JUMP JUMPDEST SWAP2 POP PUSH2 0x1EBE DUP3 PUSH2 0x1E7F JUMP JUMPDEST PUSH1 0x20 DUP3 ADD SWAP1 POP SWAP2 SWAP1 POP JUMP JUMPDEST PUSH0 PUSH1 0x20 DUP3 ADD SWAP1 POP DUP2 DUP2 SUB PUSH0 DUP4 ADD MSTORE PUSH2 0x1EE0 DUP2 PUSH2 0x1EA7 JUMP JUMPDEST SWAP1 POP SWAP2 SWAP1 POP JUMP JUMPDEST PUSH0 DUP2 MLOAD SWAP1 POP PUSH2 0x1EF5 DUP2 PUSH2 0x18D4 JUMP JUMPDEST SWAP3 SWAP2 POP POP JUMP JUMPDEST PUSH0 PUSH1 0x20 DUP3 DUP5 SUB SLT ISZERO PUSH2 0x1F10 JUMPI PUSH2 0x1F0F PUSH2 0x1877 JUMP JUMPDEST JUMPDEST PUSH0 PUSH2 0x1F1D DUP5 DUP3 DUP6 ADD PUSH2 0x1EE7 JUMP JUMPDEST SWAP2 POP POP SWAP3 SWAP2 POP POP JUMP JUMPDEST PUSH32 0x456D707479207661756C74210000000000000000000000000000000000000000 PUSH0 DUP3 ADD MSTORE POP JUMP JUMPDEST PUSH0 PUSH2 0x1F5A PUSH1 0xC DUP4 PUSH2 0x1BC4 JUMP JUMPDEST SWAP2 POP PUSH2 0x1F65 DUP3 PUSH2 0x1F26 JUMP JUMPDEST PUSH1 0x20 DUP3 ADD SWAP1 POP SWAP2 SWAP1 POP JUMP JUMPDEST PUSH0 PUSH1 0x20 DUP3 ADD SWAP1 POP DUP2 DUP2 SUB PUSH0 DUP4 ADD MSTORE PUSH2 0x1F87 DUP2 PUSH2 0x1F4E JUMP JUMPDEST SWAP1 POP SWAP2 SWAP1 POP JUMP JUMPDEST PUSH0 PUSH2 0x1F98 DUP3 PUSH2 0x170E JUMP JUMPDEST SWAP2 POP PUSH2 0x1FA3 DUP4 PUSH2 0x170E JUMP JUMPDEST SWAP3 POP DUP3 PUSH2 0x1FB3 JUMPI PUSH2 0x1FB2 PUSH2 0x1DBA JUMP JUMPDEST JUMPDEST DUP3 DUP3 DIV SWAP1 POP SWAP3 SWAP2 POP POP JUMP JUMPDEST PUSH0 PUSH2 0x1FC8 DUP3 PUSH2 0x170E JUMP JUMPDEST SWAP2 POP PUSH2 0x1FD3 DUP4 PUSH2 0x170E JUMP JUMPDEST SWAP3 POP DUP3 DUP3 MUL PUSH2 0x1FE1 DUP2 PUSH2 0x170E JUMP JUMPDEST SWAP2 POP DUP3 DUP3 DIV DUP5 EQ DUP4 ISZERO OR PUSH2 0x1FF8 JUMPI PUSH2 0x1FF7 PUSH2 0x1C8F JUMP JUMPDEST JUMPDEST POP SWAP3 SWAP2 POP POP JUMP JUMPDEST PUSH0 PUSH1 0x40 DUP3 ADD SWAP1 POP PUSH2 0x2012 PUSH0 DUP4 ADD DUP6 PUSH2 0x1846 JUMP JUMPDEST PUSH2 0x201F PUSH1 0x20 DUP4 ADD DUP5 PUSH2 0x1717 JUMP JUMPDEST SWAP4 SWAP3 POP POP POP JUMP JUMPDEST PUSH0 DUP2 ISZERO ISZERO SWAP1 POP SWAP2 SWAP1 POP JUMP JUMPDEST PUSH2 0x203A DUP2 PUSH2 0x2026 JUMP JUMPDEST DUP2 EQ PUSH2 0x2044 JUMPI PUSH0 DUP1 REVERT JUMPDEST POP JUMP JUMPDEST PUSH0 DUP2 MLOAD SWAP1 POP PUSH2 0x2055 DUP2 PUSH2 0x2031 JUMP JUMPDEST SWAP3 SWAP2 POP POP JUMP JUMPDEST PUSH0 PUSH1 0x20 DUP3 DUP5 SUB SLT ISZERO PUSH2 0x2070 JUMPI PUSH2 0x206F PUSH2 0x1877 JUMP JUMPDEST JUMPDEST PUSH0 PUSH2 0x207D DUP5 DUP3 DUP6 ADD PUSH2 0x2047 JUMP JUMPDEST SWAP2 POP POP SWAP3 SWAP2 POP POP JUMP JUMPDEST PUSH32 0x5573657220657869737400000000000000000000000000000000000000000000 PUSH0 DUP3 ADD MSTORE POP JUMP JUMPDEST PUSH0 PUSH2 0x20BA PUSH1 0xA DUP4 PUSH2 0x1BC4 JUMP JUMPDEST SWAP2 POP PUSH2 0x20C5 DUP3 PUSH2 0x2086 JUMP JUMPDEST PUSH1 0x20 DUP3 ADD SWAP1 POP SWAP2 SWAP1 POP JUMP JUMPDEST PUSH0 PUSH1 0x20 DUP3 ADD SWAP1 POP DUP2 DUP2 SUB PUSH0 DUP4 ADD MSTORE PUSH2 0x20E7 DUP2 PUSH2 0x20AE JUMP JUMPDEST SWAP1 POP SWAP2 SWAP1 POP JUMP JUMPDEST PUSH0 PUSH1 0x60 DUP3 ADD SWAP1 POP PUSH2 0x2101 PUSH0 DUP4 ADD DUP7 PUSH2 0x1846 JUMP JUMPDEST PUSH2 0x210E PUSH1 0x20 DUP4 ADD DUP6 PUSH2 0x1846 JUMP JUMPDEST PUSH2 0x211B PUSH1 0x40 DUP4 ADD DUP5 PUSH2 0x1717 JUMP JUMPDEST SWAP5 SWAP4 POP POP POP POP JUMP INVALID LOG2 PUSH5 0x6970667358 0x22 SLT KECCAK256 0xC3 RETURNDATASIZE 0xC8 0xC1 0xA5 0x1E 0xFC TSTORE CODECOPY PUSH10 0xEC7375EC3BBC9BF867A PUSH17 0x5BD45884D43651CBF46EB464736F6C6343 STOP ADDMOD BYTE STOP CALLER "
				},
				"gasEstimates": {
					"creation": {
						"codeDepositCost": "1707400",
						"executionCost": "infinite",
						"totalCost": "infinite"
					},
					"external": {
						"AddEligibleUser(address)": "75632",
						"AddMultipleEliglibleUser(address[])": "infinite",
						"CallSorted()": "infinite",
						"ChangeAdmin(address)": "26951",
						"ClaimReward()": "infinite",
						"CurrentAdmin()": "2560",
						"CurrentWeekStart()": "2471",
						"DepositBuild(uint256)": "infinite",
						"ReadOnlyBalance4Dev()": "infinite",
						"RemoveEligibleUser(address)": "infinite",
						"TotalBuildClaimed()": "2456",
						"TotalClaimedWeek()": "2522",
						"WeekTotalUser()": "2463",
						"WeekTotalUserAddress()": "infinite",
						"lis()": "infinite",
						"returndf(address)": "2851"
					},
					"internal": {
						"ResetWeekTotalClaim()": "infinite",
						"SortDonations()": "infinite"
					}
				},
				"methodIdentifiers": {
					"AddEligibleUser(address)": "7a6d918e",
					"AddMultipleEliglibleUser(address[])": "b7f7e6f0",
					"CallSorted()": "ec563617",
					"ChangeAdmin(address)": "927cc064",
					"ClaimReward()": "79372f9a",
					"CurrentAdmin()": "397de728",
					"CurrentWeekStart()": "1c9bbe1d",
					"DepositBuild(uint256)": "a6f03648",
					"ReadOnlyBalance4Dev()": "f615a3f7",
					"RemoveEligibleUser(address)": "5e0ca3b9",
					"TotalBuildClaimed()": "139722f1",
					"TotalClaimedWeek()": "360cffd0",
					"WeekTotalUser()": "36db4f53",
					"WeekTotalUserAddress()": "26dfe41f",
					"lis()": "7eca453d",
					"returndf(address)": "b70cbe35"
				}
			},
			"storageLayout": {
				"storage": [
					{
						"astId": 48,
						"contract": "contracts/build_bounty/main_build/reward_elig.sol:RewardElig",
						"label": "EligibleUser",
						"offset": 0,
						"slot": "0",
						"type": "t_mapping(t_address,t_uint256)"
					},
					{
						"astId": 51,
						"contract": "contracts/build_bounty/main_build/reward_elig.sol:RewardElig",
						"label": "EligibleUserClaimWeek",
						"offset": 0,
						"slot": "1",
						"type": "t_array(t_address)dyn_storage"
					},
					{
						"astId": 54,
						"contract": "contracts/build_bounty/main_build/reward_elig.sol:RewardElig",
						"label": "EligibleUserArr",
						"offset": 0,
						"slot": "2",
						"type": "t_array(t_address)dyn_storage"
					},
					{
						"astId": 56,
						"contract": "contracts/build_bounty/main_build/reward_elig.sol:RewardElig",
						"label": "admin",
						"offset": 0,
						"slot": "3",
						"type": "t_address"
					},
					{
						"astId": 58,
						"contract": "contracts/build_bounty/main_build/reward_elig.sol:RewardElig",
						"label": "CurrentWeekStart",
						"offset": 0,
						"slot": "4",
						"type": "t_uint256"
					},
					{
						"astId": 60,
						"contract": "contracts/build_bounty/main_build/reward_elig.sol:RewardElig",
						"label": "WeekTotalBuildClaim",
						"offset": 0,
						"slot": "5",
						"type": "t_uint256"
					},
					{
						"astId": 62,
						"contract": "contracts/build_bounty/main_build/reward_elig.sol:RewardElig",
						"label": "TotalBuildClaim",
						"offset": 0,
						"slot": "6",
						"type": "t_uint256"
					},
					{
						"astId": 71,
						"contract": "contracts/build_bounty/main_build/reward_elig.sol:RewardElig",
						"label": "ArrayDonors",
						"offset": 0,
						"slot": "7",
						"type": "t_array(t_struct(DonateBuildRecord)67_storage)dyn_storage"
					}
				],
				"types": {
					"t_address": {
						"encoding": "inplace",
						"label": "address",
						"numberOfBytes": "20"
					},
					"t_array(t_address)dyn_storage": {
						"base": "t_address",
						"encoding": "dynamic_array",
						"label": "address[]",
						"numberOfBytes": "32"
					},
					"t_array(t_struct(DonateBuildRecord)67_storage)dyn_storage": {
						"base": "t_struct(DonateBuildRecord)67_storage",
						"encoding": "dynamic_array",
						"label": "struct RewardElig.DonateBuildRecord[]",
						"numberOfBytes": "32"
					},
					"t_mapping(t_address,t_uint256)": {
						"encoding": "mapping",
						"key": "t_address",
						"label": "mapping(address => uint256)",
						"numberOfBytes": "32",
						"value": "t_uint256"
					},
					"t_struct(DonateBuildRecord)67_storage": {
						"encoding": "inplace",
						"label": "struct RewardElig.DonateBuildRecord",
						"members": [
							{
								"astId": 64,
								"contract": "contracts/build_bounty/main_build/reward_elig.sol:RewardElig",
								"label": "sender",
								"offset": 0,
								"slot": "0",
								"type": "t_address"
							},
							{
								"astId": 66,
								"contract": "contracts/build_bounty/main_build/reward_elig.sol:RewardElig",
								"label": "amount",
								"offset": 0,
								"slot": "1",
								"type": "t_uint256"
							}
						],
						"numberOfBytes": "64"
					},
					"t_uint256": {
						"encoding": "inplace",
						"label": "uint256",
						"numberOfBytes": "32"
					}
				}
			},
			"userdoc": {
				"kind": "user",
				"methods": {},
				"version": 1
			}
		}
	}
}