{
	"contracts/build_bounty/main_build/reward_elig.sol": {
		"RewardElig": {
			"abi": [
				{
					"inputs": [
						{
							"internalType": "address",
							"name": "_build_ca",
							"type": "address"
						}
					],
					"stateMutability": "nonpayable",
					"type": "constructor"
				},
				{
					"inputs": [
						{
							"internalType": "string",
							"name": "",
							"type": "string"
						}
					],
					"name": "DuplicateUserAdded",
					"type": "error"
				},
				{
					"inputs": [
						{
							"internalType": "string",
							"name": "",
							"type": "string"
						}
					],
					"name": "IneligibleUser",
					"type": "error"
				},
				{
					"anonymous": false,
					"inputs": [
						{
							"indexed": false,
							"internalType": "address",
							"name": "_user",
							"type": "address"
						},
						{
							"indexed": false,
							"internalType": "uint256",
							"name": "_amount",
							"type": "uint256"
						}
					],
					"name": "ClaimRewardUser",
					"type": "event"
				},
				{
					"anonymous": false,
					"inputs": [
						{
							"indexed": false,
							"internalType": "uint256",
							"name": "_total_num_user",
							"type": "uint256"
						}
					],
					"name": "TotalUserClaim",
					"type": "event"
				},
				{
					"inputs": [
						{
							"internalType": "address",
							"name": "_user",
							"type": "address"
						}
					],
					"name": "AddEligibleUser",
					"outputs": [],
					"stateMutability": "nonpayable",
					"type": "function"
				},
				{
					"inputs": [
						{
							"internalType": "address[]",
							"name": "_users",
							"type": "address[]"
						}
					],
					"name": "AddMultipleEliglibleUser",
					"outputs": [],
					"stateMutability": "nonpayable",
					"type": "function"
				},
				{
					"inputs": [
						{
							"internalType": "address",
							"name": "_newAdmin",
							"type": "address"
						}
					],
					"name": "ChangeAdmin",
					"outputs": [],
					"stateMutability": "nonpayable",
					"type": "function"
				},
				{
					"inputs": [],
					"name": "ClaimReward",
					"outputs": [
						{
							"internalType": "uint256",
							"name": "",
							"type": "uint256"
						}
					],
					"stateMutability": "nonpayable",
					"type": "function"
				},
				{
					"inputs": [],
					"name": "CurrentAdmin",
					"outputs": [
						{
							"internalType": "address",
							"name": "",
							"type": "address"
						}
					],
					"stateMutability": "view",
					"type": "function"
				},
				{
					"inputs": [],
					"name": "CurrentWeekStart",
					"outputs": [
						{
							"internalType": "uint256",
							"name": "",
							"type": "uint256"
						}
					],
					"stateMutability": "view",
					"type": "function"
				},
				{
					"inputs": [],
					"name": "ReadOnlyBalance4Dev",
					"outputs": [
						{
							"internalType": "uint256",
							"name": "",
							"type": "uint256"
						}
					],
					"stateMutability": "view",
					"type": "function"
				},
				{
					"inputs": [
						{
							"internalType": "address",
							"name": "_user",
							"type": "address"
						}
					],
					"name": "RemoveEligibleUser",
					"outputs": [],
					"stateMutability": "nonpayable",
					"type": "function"
				},
				{
					"inputs": [],
					"name": "TotalAddressAWeek",
					"outputs": [
						{
							"internalType": "address[]",
							"name": "",
							"type": "address[]"
						}
					],
					"stateMutability": "view",
					"type": "function"
				},
				{
					"inputs": [],
					"name": "TotalUserAWeek",
					"outputs": [
						{
							"internalType": "uint256",
							"name": "",
							"type": "uint256"
						}
					],
					"stateMutability": "view",
					"type": "function"
				},
				{
					"inputs": [],
					"name": "lis",
					"outputs": [
						{
							"internalType": "address[]",
							"name": "",
							"type": "address[]"
						}
					],
					"stateMutability": "view",
					"type": "function"
				},
				{
					"inputs": [
						{
							"internalType": "address",
							"name": "_user",
							"type": "address"
						}
					],
					"name": "returndf",
					"outputs": [
						{
							"internalType": "uint256",
							"name": "",
							"type": "uint256"
						}
					],
					"stateMutability": "view",
					"type": "function"
				},
				{
					"inputs": [],
					"name": "test5minsClaim",
					"outputs": [
						{
							"internalType": "uint256",
							"name": "",
							"type": "uint256"
						}
					],
					"stateMutability": "nonpayable",
					"type": "function"
				}
			],
			"devdoc": {
				"kind": "dev",
				"methods": {},
				"version": 1
			},
			"evm": {
				"assembly": "    /* \"contracts/build_bounty/main_build/reward_elig.sol\":444:6600  contract RewardElig {... */\n  mstore(0x40, 0xa0)\n    /* \"contracts/build_bounty/main_build/reward_elig.sol\":891:1071  constructor(address _build_ca) {... */\n  callvalue\n  dup1\n  iszero\n  tag_1\n  jumpi\n  0x00\n  dup1\n  revert\ntag_1:\n  pop\n  mload(0x40)\n  sub(codesize, bytecodeSize)\n  dup1\n  bytecodeSize\n  dup4\n  codecopy\n  dup2\n  dup2\n  add\n  0x40\n  mstore\n  dup2\n  add\n  swap1\n  tag_2\n  swap2\n  swap1\n  tag_3\n  jump\t// in\ntag_2:\n    /* \"contracts/build_bounty/main_build/reward_elig.sol\":940:950  msg.sender */\n  caller\n    /* \"contracts/build_bounty/main_build/reward_elig.sol\":932:937  admin */\n  0x03\n  0x00\n    /* \"contracts/build_bounty/main_build/reward_elig.sol\":932:950  admin = msg.sender */\n  0x0100\n  exp\n  dup2\n  sload\n  dup2\n  0xffffffffffffffffffffffffffffffffffffffff\n  mul\n  not\n  and\n  swap1\n  dup4\n  0xffffffffffffffffffffffffffffffffffffffff\n  and\n  mul\n  or\n  swap1\n  sstore\n  pop\n    /* \"contracts/build_bounty/main_build/reward_elig.sol\":973:982  _build_ca */\n  dup1\n    /* \"contracts/build_bounty/main_build/reward_elig.sol\":960:982  MOCK_BUILD = _build_ca */\n  0xffffffffffffffffffffffffffffffffffffffff\n  and\n  0x80\n  dup2\n  0xffffffffffffffffffffffffffffffffffffffff\n  and\n  dup2\n  mstore\n  pop\n  pop\n    /* \"contracts/build_bounty/main_build/reward_elig.sol\":613:622  5 minutes */\n  0x012c\n    /* \"contracts/build_bounty/main_build/reward_elig.sol\":1030:1045  block.timestamp */\n  timestamp\n    /* \"contracts/build_bounty/main_build/reward_elig.sol\":1030:1063  block.timestamp % DURATION_PERIOD */\n  tag_6\n  swap2\n  swap1\n  tag_7\n  jump\t// in\ntag_6:\n    /* \"contracts/build_bounty/main_build/reward_elig.sol\":1011:1026  block.timestamp */\n  timestamp\n    /* \"contracts/build_bounty/main_build/reward_elig.sol\":1011:1064  block.timestamp - (block.timestamp % DURATION_PERIOD) */\n  tag_8\n  swap2\n  swap1\n  tag_9\n  jump\t// in\ntag_8:\n    /* \"contracts/build_bounty/main_build/reward_elig.sol\":992:1008  CurrentWeekStart */\n  0x04\n    /* \"contracts/build_bounty/main_build/reward_elig.sol\":992:1064  CurrentWeekStart = block.timestamp - (block.timestamp % DURATION_PERIOD) */\n  dup2\n  swap1\n  sstore\n  pop\n    /* \"contracts/build_bounty/main_build/reward_elig.sol\":891:1071  constructor(address _build_ca) {... */\n  pop\n    /* \"contracts/build_bounty/main_build/reward_elig.sol\":444:6600  contract RewardElig {... */\n  jump(tag_10)\n    /* \"#utility.yul\":88:205   */\ntag_12:\n    /* \"#utility.yul\":197:198   */\n  0x00\n    /* \"#utility.yul\":194:195   */\n  dup1\n    /* \"#utility.yul\":187:199   */\n  revert\n    /* \"#utility.yul\":334:460   */\ntag_14:\n    /* \"#utility.yul\":371:378   */\n  0x00\n    /* \"#utility.yul\":411:453   */\n  0xffffffffffffffffffffffffffffffffffffffff\n    /* \"#utility.yul\":404:409   */\n  dup3\n    /* \"#utility.yul\":400:454   */\n  and\n    /* \"#utility.yul\":389:454   */\n  swap1\n  pop\n    /* \"#utility.yul\":334:460   */\n  swap2\n  swap1\n  pop\n  jump\t// out\n    /* \"#utility.yul\":466:562   */\ntag_15:\n    /* \"#utility.yul\":503:510   */\n  0x00\n    /* \"#utility.yul\":532:556   */\n  tag_27\n    /* \"#utility.yul\":550:555   */\n  dup3\n    /* \"#utility.yul\":532:556   */\n  tag_14\n  jump\t// in\ntag_27:\n    /* \"#utility.yul\":521:556   */\n  swap1\n  pop\n    /* \"#utility.yul\":466:562   */\n  swap2\n  swap1\n  pop\n  jump\t// out\n    /* \"#utility.yul\":568:690   */\ntag_16:\n    /* \"#utility.yul\":641:665   */\n  tag_29\n    /* \"#utility.yul\":659:664   */\n  dup2\n    /* \"#utility.yul\":641:665   */\n  tag_15\n  jump\t// in\ntag_29:\n    /* \"#utility.yul\":634:639   */\n  dup2\n    /* \"#utility.yul\":631:666   */\n  eq\n    /* \"#utility.yul\":621:684   */\n  tag_30\n  jumpi\n    /* \"#utility.yul\":680:681   */\n  0x00\n    /* \"#utility.yul\":677:678   */\n  dup1\n    /* \"#utility.yul\":670:682   */\n  revert\n    /* \"#utility.yul\":621:684   */\ntag_30:\n    /* \"#utility.yul\":568:690   */\n  pop\n  jump\t// out\n    /* \"#utility.yul\":696:839   */\ntag_17:\n    /* \"#utility.yul\":753:758   */\n  0x00\n    /* \"#utility.yul\":784:790   */\n  dup2\n    /* \"#utility.yul\":778:791   */\n  mload\n    /* \"#utility.yul\":769:791   */\n  swap1\n  pop\n    /* \"#utility.yul\":800:833   */\n  tag_32\n    /* \"#utility.yul\":827:832   */\n  dup2\n    /* \"#utility.yul\":800:833   */\n  tag_16\n  jump\t// in\ntag_32:\n    /* \"#utility.yul\":696:839   */\n  swap3\n  swap2\n  pop\n  pop\n  jump\t// out\n    /* \"#utility.yul\":845:1196   */\ntag_3:\n    /* \"#utility.yul\":915:921   */\n  0x00\n    /* \"#utility.yul\":964:966   */\n  0x20\n    /* \"#utility.yul\":952:961   */\n  dup3\n    /* \"#utility.yul\":943:950   */\n  dup5\n    /* \"#utility.yul\":939:962   */\n  sub\n    /* \"#utility.yul\":935:967   */\n  slt\n    /* \"#utility.yul\":932:1051   */\n  iszero\n  tag_34\n  jumpi\n    /* \"#utility.yul\":970:1049   */\n  tag_35\n  tag_12\n  jump\t// in\ntag_35:\n    /* \"#utility.yul\":932:1051   */\ntag_34:\n    /* \"#utility.yul\":1090:1091   */\n  0x00\n    /* \"#utility.yul\":1115:1179   */\n  tag_36\n    /* \"#utility.yul\":1171:1178   */\n  dup5\n    /* \"#utility.yul\":1162:1168   */\n  dup3\n    /* \"#utility.yul\":1151:1160   */\n  dup6\n    /* \"#utility.yul\":1147:1169   */\n  add\n    /* \"#utility.yul\":1115:1179   */\n  tag_17\n  jump\t// in\ntag_36:\n    /* \"#utility.yul\":1105:1179   */\n  swap2\n  pop\n    /* \"#utility.yul\":1061:1189   */\n  pop\n    /* \"#utility.yul\":845:1196   */\n  swap3\n  swap2\n  pop\n  pop\n  jump\t// out\n    /* \"#utility.yul\":1202:1279   */\ntag_18:\n    /* \"#utility.yul\":1239:1246   */\n  0x00\n    /* \"#utility.yul\":1268:1273   */\n  dup2\n    /* \"#utility.yul\":1257:1273   */\n  swap1\n  pop\n    /* \"#utility.yul\":1202:1279   */\n  swap2\n  swap1\n  pop\n  jump\t// out\n    /* \"#utility.yul\":1285:1465   */\ntag_19:\n    /* \"#utility.yul\":1333:1410   */\n  0x4e487b7100000000000000000000000000000000000000000000000000000000\n    /* \"#utility.yul\":1330:1331   */\n  0x00\n    /* \"#utility.yul\":1323:1411   */\n  mstore\n    /* \"#utility.yul\":1430:1434   */\n  0x12\n    /* \"#utility.yul\":1427:1428   */\n  0x04\n    /* \"#utility.yul\":1420:1435   */\n  mstore\n    /* \"#utility.yul\":1454:1458   */\n  0x24\n    /* \"#utility.yul\":1451:1452   */\n  0x00\n    /* \"#utility.yul\":1444:1459   */\n  revert\n    /* \"#utility.yul\":1471:1647   */\ntag_7:\n    /* \"#utility.yul\":1503:1504   */\n  0x00\n    /* \"#utility.yul\":1520:1540   */\n  tag_40\n    /* \"#utility.yul\":1538:1539   */\n  dup3\n    /* \"#utility.yul\":1520:1540   */\n  tag_18\n  jump\t// in\ntag_40:\n    /* \"#utility.yul\":1515:1540   */\n  swap2\n  pop\n    /* \"#utility.yul\":1554:1574   */\n  tag_41\n    /* \"#utility.yul\":1572:1573   */\n  dup4\n    /* \"#utility.yul\":1554:1574   */\n  tag_18\n  jump\t// in\ntag_41:\n    /* \"#utility.yul\":1549:1574   */\n  swap3\n  pop\n    /* \"#utility.yul\":1593:1594   */\n  dup3\n    /* \"#utility.yul\":1583:1618   */\n  tag_42\n  jumpi\n    /* \"#utility.yul\":1598:1616   */\n  tag_43\n  tag_19\n  jump\t// in\ntag_43:\n    /* \"#utility.yul\":1583:1618   */\ntag_42:\n    /* \"#utility.yul\":1639:1640   */\n  dup3\n    /* \"#utility.yul\":1636:1637   */\n  dup3\n    /* \"#utility.yul\":1632:1641   */\n  mod\n    /* \"#utility.yul\":1627:1641   */\n  swap1\n  pop\n    /* \"#utility.yul\":1471:1647   */\n  swap3\n  swap2\n  pop\n  pop\n  jump\t// out\n    /* \"#utility.yul\":1653:1833   */\ntag_20:\n    /* \"#utility.yul\":1701:1778   */\n  0x4e487b7100000000000000000000000000000000000000000000000000000000\n    /* \"#utility.yul\":1698:1699   */\n  0x00\n    /* \"#utility.yul\":1691:1779   */\n  mstore\n    /* \"#utility.yul\":1798:1802   */\n  0x11\n    /* \"#utility.yul\":1795:1796   */\n  0x04\n    /* \"#utility.yul\":1788:1803   */\n  mstore\n    /* \"#utility.yul\":1822:1826   */\n  0x24\n    /* \"#utility.yul\":1819:1820   */\n  0x00\n    /* \"#utility.yul\":1812:1827   */\n  revert\n    /* \"#utility.yul\":1839:2033   */\ntag_9:\n    /* \"#utility.yul\":1879:1883   */\n  0x00\n    /* \"#utility.yul\":1899:1919   */\n  tag_46\n    /* \"#utility.yul\":1917:1918   */\n  dup3\n    /* \"#utility.yul\":1899:1919   */\n  tag_18\n  jump\t// in\ntag_46:\n    /* \"#utility.yul\":1894:1919   */\n  swap2\n  pop\n    /* \"#utility.yul\":1933:1953   */\n  tag_47\n    /* \"#utility.yul\":1951:1952   */\n  dup4\n    /* \"#utility.yul\":1933:1953   */\n  tag_18\n  jump\t// in\ntag_47:\n    /* \"#utility.yul\":1928:1953   */\n  swap3\n  pop\n    /* \"#utility.yul\":1977:1978   */\n  dup3\n    /* \"#utility.yul\":1974:1975   */\n  dup3\n    /* \"#utility.yul\":1970:1979   */\n  sub\n    /* \"#utility.yul\":1962:1979   */\n  swap1\n  pop\n    /* \"#utility.yul\":2001:2002   */\n  dup2\n    /* \"#utility.yul\":1995:1999   */\n  dup2\n    /* \"#utility.yul\":1992:2003   */\n  gt\n    /* \"#utility.yul\":1989:2026   */\n  iszero\n  tag_48\n  jumpi\n    /* \"#utility.yul\":2006:2024   */\n  tag_49\n  tag_20\n  jump\t// in\ntag_49:\n    /* \"#utility.yul\":1989:2026   */\ntag_48:\n    /* \"#utility.yul\":1839:2033   */\n  swap3\n  swap2\n  pop\n  pop\n  jump\t// out\n    /* \"contracts/build_bounty/main_build/reward_elig.sol\":444:6600  contract RewardElig {... */\ntag_10:\n  mload(0x80)\n  codecopy(0x00, dataOffset(sub_0), dataSize(sub_0))\n  0x00\n  assignImmutable(\"0xed93c67e1a9b7f09d3b44ee593360f0073603a8e45415e2c3c69afc994a1103d\")\n  return(0x00, dataSize(sub_0))\nstop\n\nsub_0: assembly {\n        /* \"contracts/build_bounty/main_build/reward_elig.sol\":444:6600  contract RewardElig {... */\n      mstore(0x40, 0x80)\n      callvalue\n      dup1\n      iszero\n      tag_1\n      jumpi\n      0x00\n      dup1\n      revert\n    tag_1:\n      pop\n      jumpi(tag_2, lt(calldatasize, 0x04))\n      shr(0xe0, calldataload(0x00))\n      dup1\n      0x8dc7b30d\n      gt\n      tag_16\n      jumpi\n      dup1\n      0xb7f7e6f0\n      gt\n      tag_17\n      jumpi\n      dup1\n      0xb7f7e6f0\n      eq\n      tag_12\n      jumpi\n      dup1\n      0xc8804c71\n      eq\n      tag_13\n      jumpi\n      dup1\n      0xe4b7a9c0\n      eq\n      tag_14\n      jumpi\n      dup1\n      0xf615a3f7\n      eq\n      tag_15\n      jumpi\n      jump(tag_2)\n    tag_17:\n      dup1\n      0x8dc7b30d\n      eq\n      tag_9\n      jumpi\n      dup1\n      0x927cc064\n      eq\n      tag_10\n      jumpi\n      dup1\n      0xb70cbe35\n      eq\n      tag_11\n      jumpi\n      jump(tag_2)\n    tag_16:\n      dup1\n      0x1c9bbe1d\n      eq\n      tag_3\n      jumpi\n      dup1\n      0x397de728\n      eq\n      tag_4\n      jumpi\n      dup1\n      0x5e0ca3b9\n      eq\n      tag_5\n      jumpi\n      dup1\n      0x79372f9a\n      eq\n      tag_6\n      jumpi\n      dup1\n      0x7a6d918e\n      eq\n      tag_7\n      jumpi\n      dup1\n      0x7eca453d\n      eq\n      tag_8\n      jumpi\n    tag_2:\n      0x00\n      dup1\n      revert\n        /* \"contracts/build_bounty/main_build/reward_elig.sol\":842:873  uint256 public CurrentWeekStart */\n    tag_3:\n      tag_18\n      tag_19\n      jump\t// in\n    tag_18:\n      mload(0x40)\n      tag_20\n      swap2\n      swap1\n      tag_21\n      jump\t// in\n    tag_20:\n      mload(0x40)\n      dup1\n      swap2\n      sub\n      swap1\n      return\n        /* \"contracts/build_bounty/main_build/reward_elig.sol\":6030:6113  function CurrentAdmin() external view returns(address){... */\n    tag_4:\n      tag_22\n      tag_23\n      jump\t// in\n    tag_22:\n      mload(0x40)\n      tag_24\n      swap2\n      swap1\n      tag_25\n      jump\t// in\n    tag_24:\n      mload(0x40)\n      dup1\n      swap2\n      sub\n      swap1\n      return\n        /* \"contracts/build_bounty/main_build/reward_elig.sol\":1850:2391  function RemoveEligibleUser(address _user) external onlyAdmin {... */\n    tag_5:\n      tag_26\n      0x04\n      dup1\n      calldatasize\n      sub\n      dup2\n      add\n      swap1\n      tag_27\n      swap2\n      swap1\n      tag_28\n      jump\t// in\n    tag_27:\n      tag_29\n      jump\t// in\n    tag_26:\n      stop\n        /* \"contracts/build_bounty/main_build/reward_elig.sol\":4057:5599  function ClaimReward() external returns (uint256) {... */\n    tag_6:\n      tag_30\n      tag_31\n      jump\t// in\n    tag_30:\n      mload(0x40)\n      tag_32\n      swap2\n      swap1\n      tag_21\n      jump\t// in\n    tag_32:\n      mload(0x40)\n      dup1\n      swap2\n      sub\n      swap1\n      return\n        /* \"contracts/build_bounty/main_build/reward_elig.sol\":1261:1500  function AddEligibleUser(address _user) external onlyAdmin {... */\n    tag_7:\n      tag_33\n      0x04\n      dup1\n      calldatasize\n      sub\n      dup2\n      add\n      swap1\n      tag_34\n      swap2\n      swap1\n      tag_28\n      jump\t// in\n    tag_34:\n      tag_35\n      jump\t// in\n    tag_33:\n      stop\n        /* \"contracts/build_bounty/main_build/reward_elig.sol\":6119:6214  function lis() external view returns (address[] memory) {... */\n    tag_8:\n      tag_36\n      tag_37\n      jump\t// in\n    tag_36:\n      mload(0x40)\n      tag_38\n      swap2\n      swap1\n      tag_39\n      jump\t// in\n    tag_38:\n      mload(0x40)\n      dup1\n      swap2\n      sub\n      swap1\n      return\n        /* \"contracts/build_bounty/main_build/reward_elig.sol\":5697:5802  function TotalUserAWeek() external view returns(uint){... */\n    tag_9:\n      tag_40\n      tag_41\n      jump\t// in\n    tag_40:\n      mload(0x40)\n      tag_42\n      swap2\n      swap1\n      tag_21\n      jump\t// in\n    tag_42:\n      mload(0x40)\n      dup1\n      swap2\n      sub\n      swap1\n      return\n        /* \"contracts/build_bounty/main_build/reward_elig.sol\":5932:6024  function ChangeAdmin(address _newAdmin) external onlyAdmin{... */\n    tag_10:\n      tag_43\n      0x04\n      dup1\n      calldatasize\n      sub\n      dup2\n      add\n      swap1\n      tag_44\n      swap2\n      swap1\n      tag_28\n      jump\t// in\n    tag_44:\n      tag_45\n      jump\t// in\n    tag_43:\n      stop\n        /* \"contracts/build_bounty/main_build/reward_elig.sol\":6368:6476  function returndf(address _user) external view returns (uint256) {... */\n    tag_11:\n      tag_46\n      0x04\n      dup1\n      calldatasize\n      sub\n      dup2\n      add\n      swap1\n      tag_47\n      swap2\n      swap1\n      tag_28\n      jump\t// in\n    tag_47:\n      tag_48\n      jump\t// in\n    tag_46:\n      mload(0x40)\n      tag_49\n      swap2\n      swap1\n      tag_21\n      jump\t// in\n    tag_49:\n      mload(0x40)\n      dup1\n      swap2\n      sub\n      swap1\n      return\n        /* \"contracts/build_bounty/main_build/reward_elig.sol\":1506:1844  function AddMultipleEliglibleUser(address[] memory _users)... */\n    tag_12:\n      tag_50\n      0x04\n      dup1\n      calldatasize\n      sub\n      dup2\n      add\n      swap1\n      tag_51\n      swap2\n      swap1\n      tag_52\n      jump\t// in\n    tag_51:\n      tag_53\n      jump\t// in\n    tag_50:\n      stop\n        /* \"contracts/build_bounty/main_build/reward_elig.sol\":2397:4051  function test5minsClaim() external returns (uint256) {... */\n    tag_13:\n      tag_54\n      tag_55\n      jump\t// in\n    tag_54:\n      mload(0x40)\n      tag_56\n      swap2\n      swap1\n      tag_21\n      jump\t// in\n    tag_56:\n      mload(0x40)\n      dup1\n      swap2\n      sub\n      swap1\n      return\n        /* \"contracts/build_bounty/main_build/reward_elig.sol\":5808:5926  function TotalAddressAWeek() external view returns(address[] memory){... */\n    tag_14:\n      tag_57\n      tag_58\n      jump\t// in\n    tag_57:\n      mload(0x40)\n      tag_59\n      swap2\n      swap1\n      tag_39\n      jump\t// in\n    tag_59:\n      mload(0x40)\n      dup1\n      swap2\n      sub\n      swap1\n      return\n        /* \"contracts/build_bounty/main_build/reward_elig.sol\":6220:6362  function ReadOnlyBalance4Dev() external view returns (uint256) {... */\n    tag_15:\n      tag_60\n      tag_61\n      jump\t// in\n    tag_60:\n      mload(0x40)\n      tag_62\n      swap2\n      swap1\n      tag_21\n      jump\t// in\n    tag_62:\n      mload(0x40)\n      dup1\n      swap2\n      sub\n      swap1\n      return\n        /* \"contracts/build_bounty/main_build/reward_elig.sol\":842:873  uint256 public CurrentWeekStart */\n    tag_19:\n      sload(0x04)\n      dup2\n      jump\t// out\n        /* \"contracts/build_bounty/main_build/reward_elig.sol\":6030:6113  function CurrentAdmin() external view returns(address){... */\n    tag_23:\n        /* \"contracts/build_bounty/main_build/reward_elig.sol\":6076:6083  address */\n      0x00\n        /* \"contracts/build_bounty/main_build/reward_elig.sol\":6101:6106  admin */\n      0x03\n      0x00\n      swap1\n      sload\n      swap1\n      0x0100\n      exp\n      swap1\n      div\n      0xffffffffffffffffffffffffffffffffffffffff\n      and\n        /* \"contracts/build_bounty/main_build/reward_elig.sol\":6094:6106  return admin */\n      swap1\n      pop\n        /* \"contracts/build_bounty/main_build/reward_elig.sol\":6030:6113  function CurrentAdmin() external view returns(address){... */\n      swap1\n      jump\t// out\n        /* \"contracts/build_bounty/main_build/reward_elig.sol\":1850:2391  function RemoveEligibleUser(address _user) external onlyAdmin {... */\n    tag_29:\n        /* \"contracts/build_bounty/main_build/reward_elig.sol\":6530:6540  msg.sender */\n      caller\n        /* \"contracts/build_bounty/main_build/reward_elig.sol\":6521:6540  admin == msg.sender */\n      0xffffffffffffffffffffffffffffffffffffffff\n      and\n        /* \"contracts/build_bounty/main_build/reward_elig.sol\":6521:6526  admin */\n      0x03\n      0x00\n      swap1\n      sload\n      swap1\n      0x0100\n      exp\n      swap1\n      div\n      0xffffffffffffffffffffffffffffffffffffffff\n      and\n        /* \"contracts/build_bounty/main_build/reward_elig.sol\":6521:6540  admin == msg.sender */\n      0xffffffffffffffffffffffffffffffffffffffff\n      and\n      eq\n        /* \"contracts/build_bounty/main_build/reward_elig.sol\":6513:6580  require(admin == msg.sender, \"only admin can invoke this function\") */\n      tag_65\n      jumpi\n      mload(0x40)\n      0x08c379a000000000000000000000000000000000000000000000000000000000\n      dup2\n      mstore\n      0x04\n      add\n      tag_66\n      swap1\n      tag_67\n      jump\t// in\n    tag_66:\n      mload(0x40)\n      dup1\n      swap2\n      sub\n      swap1\n      revert\n    tag_65:\n        /* \"contracts/build_bounty/main_build/reward_elig.sol\":1922:1934  uint256 _len */\n      0x00\n        /* \"contracts/build_bounty/main_build/reward_elig.sol\":1937:1952  EligibleUserArr */\n      0x02\n        /* \"contracts/build_bounty/main_build/reward_elig.sol\":1937:1959  EligibleUserArr.length */\n      dup1\n      sload\n      swap1\n      pop\n        /* \"contracts/build_bounty/main_build/reward_elig.sol\":1922:1959  uint256 _len = EligibleUserArr.length */\n      swap1\n      pop\n        /* \"contracts/build_bounty/main_build/reward_elig.sol\":1977:1989  EligibleUser */\n      0x00\n        /* \"contracts/build_bounty/main_build/reward_elig.sol\":1977:1996  EligibleUser[_user] */\n      dup1\n        /* \"contracts/build_bounty/main_build/reward_elig.sol\":1990:1995  _user */\n      dup4\n        /* \"contracts/build_bounty/main_build/reward_elig.sol\":1977:1996  EligibleUser[_user] */\n      0xffffffffffffffffffffffffffffffffffffffff\n      and\n      0xffffffffffffffffffffffffffffffffffffffff\n      and\n      dup2\n      mstore\n      0x20\n      add\n      swap1\n      dup2\n      mstore\n      0x20\n      add\n      0x00\n      keccak256\n        /* \"contracts/build_bounty/main_build/reward_elig.sol\":1970:1996  delete EligibleUser[_user] */\n      0x00\n      swap1\n      sstore\n        /* \"contracts/build_bounty/main_build/reward_elig.sol\":2012:2020  uint16 i */\n      0x00\n        /* \"contracts/build_bounty/main_build/reward_elig.sol\":2007:2385  for (uint16 i; i < _len; i++) {... */\n    tag_69:\n        /* \"contracts/build_bounty/main_build/reward_elig.sol\":2026:2030  _len */\n      dup2\n        /* \"contracts/build_bounty/main_build/reward_elig.sol\":2022:2023  i */\n      dup2\n        /* \"contracts/build_bounty/main_build/reward_elig.sol\":2022:2030  i < _len */\n      0xffff\n      and\n      lt\n        /* \"contracts/build_bounty/main_build/reward_elig.sol\":2007:2385  for (uint16 i; i < _len; i++) {... */\n      iszero\n      tag_70\n      jumpi\n        /* \"contracts/build_bounty/main_build/reward_elig.sol\":2097:2102  _user */\n      dup3\n        /* \"contracts/build_bounty/main_build/reward_elig.sol\":2075:2102  EligibleUserArr[i] == _user */\n      0xffffffffffffffffffffffffffffffffffffffff\n      and\n        /* \"contracts/build_bounty/main_build/reward_elig.sol\":2075:2090  EligibleUserArr */\n      0x02\n        /* \"contracts/build_bounty/main_build/reward_elig.sol\":2091:2092  i */\n      dup3\n        /* \"contracts/build_bounty/main_build/reward_elig.sol\":2075:2093  EligibleUserArr[i] */\n      0xffff\n      and\n      dup2\n      sload\n      dup2\n      lt\n      tag_72\n      jumpi\n      tag_73\n      tag_74\n      jump\t// in\n    tag_73:\n    tag_72:\n      swap1\n      0x00\n      mstore\n      keccak256(0x00, 0x20)\n      add\n      0x00\n      swap1\n      sload\n      swap1\n      0x0100\n      exp\n      swap1\n      div\n      0xffffffffffffffffffffffffffffffffffffffff\n      and\n        /* \"contracts/build_bounty/main_build/reward_elig.sol\":2075:2102  EligibleUserArr[i] == _user */\n      0xffffffffffffffffffffffffffffffffffffffff\n      and\n      sub\n        /* \"contracts/build_bounty/main_build/reward_elig.sol\":2071:2375  if (EligibleUserArr[i] == _user) {... */\n      tag_76\n      jumpi\n        /* \"contracts/build_bounty/main_build/reward_elig.sol\":2151:2159  uint16 j */\n      0x00\n        /* \"contracts/build_bounty/main_build/reward_elig.sol\":2162:2163  i */\n      dup2\n        /* \"contracts/build_bounty/main_build/reward_elig.sol\":2151:2163  uint16 j = i */\n      swap1\n      pop\n        /* \"contracts/build_bounty/main_build/reward_elig.sol\":2146:2268  for (uint16 j = i; j < _len - 1; j++) {... */\n    tag_77:\n        /* \"contracts/build_bounty/main_build/reward_elig.sol\":2176:2177  1 */\n      0x01\n        /* \"contracts/build_bounty/main_build/reward_elig.sol\":2169:2173  _len */\n      dup4\n        /* \"contracts/build_bounty/main_build/reward_elig.sol\":2169:2177  _len - 1 */\n      tag_80\n      swap2\n      swap1\n      tag_81\n      jump\t// in\n    tag_80:\n        /* \"contracts/build_bounty/main_build/reward_elig.sol\":2165:2166  j */\n      dup2\n        /* \"contracts/build_bounty/main_build/reward_elig.sol\":2165:2177  j < _len - 1 */\n      0xffff\n      and\n      lt\n        /* \"contracts/build_bounty/main_build/reward_elig.sol\":2146:2268  for (uint16 j = i; j < _len - 1; j++) {... */\n      iszero\n      tag_78\n      jumpi\n        /* \"contracts/build_bounty/main_build/reward_elig.sol\":2227:2242  EligibleUserArr */\n      0x02\n        /* \"contracts/build_bounty/main_build/reward_elig.sol\":2247:2248  1 */\n      0x01\n        /* \"contracts/build_bounty/main_build/reward_elig.sol\":2243:2244  j */\n      dup3\n        /* \"contracts/build_bounty/main_build/reward_elig.sol\":2243:2248  j + 1 */\n      tag_82\n      swap2\n      swap1\n      tag_83\n      jump\t// in\n    tag_82:\n        /* \"contracts/build_bounty/main_build/reward_elig.sol\":2227:2249  EligibleUserArr[j + 1] */\n      0xffff\n      and\n      dup2\n      sload\n      dup2\n      lt\n      tag_84\n      jumpi\n      tag_85\n      tag_74\n      jump\t// in\n    tag_85:\n    tag_84:\n      swap1\n      0x00\n      mstore\n      keccak256(0x00, 0x20)\n      add\n      0x00\n      swap1\n      sload\n      swap1\n      0x0100\n      exp\n      swap1\n      div\n      0xffffffffffffffffffffffffffffffffffffffff\n      and\n        /* \"contracts/build_bounty/main_build/reward_elig.sol\":2206:2221  EligibleUserArr */\n      0x02\n        /* \"contracts/build_bounty/main_build/reward_elig.sol\":2222:2223  j */\n      dup3\n        /* \"contracts/build_bounty/main_build/reward_elig.sol\":2206:2224  EligibleUserArr[j] */\n      0xffff\n      and\n      dup2\n      sload\n      dup2\n      lt\n      tag_87\n      jumpi\n      tag_88\n      tag_74\n      jump\t// in\n    tag_88:\n    tag_87:\n      swap1\n      0x00\n      mstore\n      keccak256(0x00, 0x20)\n      add\n      0x00\n        /* \"contracts/build_bounty/main_build/reward_elig.sol\":2206:2249  EligibleUserArr[j] = EligibleUserArr[j + 1] */\n      0x0100\n      exp\n      dup2\n      sload\n      dup2\n      0xffffffffffffffffffffffffffffffffffffffff\n      mul\n      not\n      and\n      swap1\n      dup4\n      0xffffffffffffffffffffffffffffffffffffffff\n      and\n      mul\n      or\n      swap1\n      sstore\n      pop\n        /* \"contracts/build_bounty/main_build/reward_elig.sol\":2179:2182  j++ */\n      dup1\n      dup1\n      tag_90\n      swap1\n      tag_91\n      jump\t// in\n    tag_90:\n      swap2\n      pop\n      pop\n        /* \"contracts/build_bounty/main_build/reward_elig.sol\":2146:2268  for (uint16 j = i; j < _len - 1; j++) {... */\n      jump(tag_77)\n    tag_78:\n      pop\n        /* \"contracts/build_bounty/main_build/reward_elig.sol\":2316:2331  EligibleUserArr */\n      0x02\n        /* \"contracts/build_bounty/main_build/reward_elig.sol\":2316:2337  EligibleUserArr.pop() */\n      dup1\n      sload\n      dup1\n      tag_92\n      jumpi\n      tag_93\n      tag_94\n      jump\t// in\n    tag_93:\n    tag_92:\n      0x01\n      swap1\n      sub\n      dup2\n      dup2\n      swap1\n      0x00\n      mstore\n      keccak256(0x00, 0x20)\n      add\n      exp(0x0100, 0x00)\n      dup2\n      sload\n      swap1\n      0xffffffffffffffffffffffffffffffffffffffff\n      mul\n      not\n      and\n      swap1\n      sstore\n      swap1\n      sstore\n        /* \"contracts/build_bounty/main_build/reward_elig.sol\":2355:2360  break */\n      jump(tag_70)\n        /* \"contracts/build_bounty/main_build/reward_elig.sol\":2071:2375  if (EligibleUserArr[i] == _user) {... */\n    tag_76:\n        /* \"contracts/build_bounty/main_build/reward_elig.sol\":2032:2035  i++ */\n      dup1\n      dup1\n      tag_96\n      swap1\n      tag_91\n      jump\t// in\n    tag_96:\n      swap2\n      pop\n      pop\n        /* \"contracts/build_bounty/main_build/reward_elig.sol\":2007:2385  for (uint16 i; i < _len; i++) {... */\n      jump(tag_69)\n    tag_70:\n      pop\n        /* \"contracts/build_bounty/main_build/reward_elig.sol\":1912:2391  {... */\n      pop\n        /* \"contracts/build_bounty/main_build/reward_elig.sol\":1850:2391  function RemoveEligibleUser(address _user) external onlyAdmin {... */\n      pop\n      jump\t// out\n        /* \"contracts/build_bounty/main_build/reward_elig.sol\":4057:5599  function ClaimReward() external returns (uint256) {... */\n    tag_31:\n        /* \"contracts/build_bounty/main_build/reward_elig.sol\":4098:4105  uint256 */\n      0x00\n        /* \"contracts/build_bounty/main_build/reward_elig.sol\":613:622  5 minutes */\n      0x012c\n        /* \"contracts/build_bounty/main_build/reward_elig.sol\":4141:4157  CurrentWeekStart */\n      sload(0x04)\n        /* \"contracts/build_bounty/main_build/reward_elig.sol\":4141:4175  CurrentWeekStart + DURATION_PERIOD */\n      tag_98\n      swap2\n      swap1\n      tag_99\n      jump\t// in\n    tag_98:\n        /* \"contracts/build_bounty/main_build/reward_elig.sol\":4122:4137  block.timestamp */\n      timestamp\n        /* \"contracts/build_bounty/main_build/reward_elig.sol\":4122:4175  block.timestamp >= CurrentWeekStart + DURATION_PERIOD */\n      lt\n        /* \"contracts/build_bounty/main_build/reward_elig.sol\":4118:4307  if (block.timestamp >= CurrentWeekStart + DURATION_PERIOD ) {... */\n      tag_100\n      jumpi\n        /* \"contracts/build_bounty/main_build/reward_elig.sol\":4192:4209  ResetTotalClaim() */\n      tag_101\n        /* \"contracts/build_bounty/main_build/reward_elig.sol\":4192:4207  ResetTotalClaim */\n      tag_102\n        /* \"contracts/build_bounty/main_build/reward_elig.sol\":4192:4209  ResetTotalClaim() */\n      jump\t// in\n    tag_101:\n        /* \"contracts/build_bounty/main_build/reward_elig.sol\":613:622  5 minutes */\n      0x012c\n        /* \"contracts/build_bounty/main_build/reward_elig.sol\":4261:4276  block.timestamp */\n      timestamp\n        /* \"contracts/build_bounty/main_build/reward_elig.sol\":4261:4294  block.timestamp % DURATION_PERIOD */\n      tag_103\n      swap2\n      swap1\n      tag_104\n      jump\t// in\n    tag_103:\n        /* \"contracts/build_bounty/main_build/reward_elig.sol\":4242:4257  block.timestamp */\n      timestamp\n        /* \"contracts/build_bounty/main_build/reward_elig.sol\":4242:4296  block.timestamp - (block.timestamp % DURATION_PERIOD ) */\n      tag_105\n      swap2\n      swap1\n      tag_81\n      jump\t// in\n    tag_105:\n        /* \"contracts/build_bounty/main_build/reward_elig.sol\":4223:4239  CurrentWeekStart */\n      0x04\n        /* \"contracts/build_bounty/main_build/reward_elig.sol\":4223:4296  CurrentWeekStart = block.timestamp - (block.timestamp % DURATION_PERIOD ) */\n      dup2\n      swap1\n      sstore\n      pop\n        /* \"contracts/build_bounty/main_build/reward_elig.sol\":4118:4307  if (block.timestamp >= CurrentWeekStart + DURATION_PERIOD ) {... */\n    tag_100:\n        /* \"contracts/build_bounty/main_build/reward_elig.sol\":4318:4335  uint256 _lastTime */\n      0x00\n        /* \"contracts/build_bounty/main_build/reward_elig.sol\":4345:4363  uint256 _totalUser */\n      dup1\n        /* \"contracts/build_bounty/main_build/reward_elig.sol\":4366:4381  EligibleUserArr */\n      0x02\n        /* \"contracts/build_bounty/main_build/reward_elig.sol\":4366:4388  EligibleUserArr.length */\n      dup1\n      sload\n      swap1\n      pop\n        /* \"contracts/build_bounty/main_build/reward_elig.sol\":4345:4388  uint256 _totalUser = EligibleUserArr.length */\n      swap1\n      pop\n        /* \"contracts/build_bounty/main_build/reward_elig.sol\":4430:4431  0 */\n      0x00\n        /* \"contracts/build_bounty/main_build/reward_elig.sol\":4402:4414  EligibleUser */\n      dup1\n        /* \"contracts/build_bounty/main_build/reward_elig.sol\":4402:4426  EligibleUser[msg.sender] */\n      0x00\n        /* \"contracts/build_bounty/main_build/reward_elig.sol\":4415:4425  msg.sender */\n      caller\n        /* \"contracts/build_bounty/main_build/reward_elig.sol\":4402:4426  EligibleUser[msg.sender] */\n      0xffffffffffffffffffffffffffffffffffffffff\n      and\n      0xffffffffffffffffffffffffffffffffffffffff\n      and\n      dup2\n      mstore\n      0x20\n      add\n      swap1\n      dup2\n      mstore\n      0x20\n      add\n      0x00\n      keccak256\n      sload\n        /* \"contracts/build_bounty/main_build/reward_elig.sol\":4402:4431  EligibleUser[msg.sender] == 0 */\n      sub\n        /* \"contracts/build_bounty/main_build/reward_elig.sol\":4398:4504  if (EligibleUser[msg.sender] == 0) {... */\n      tag_106\n      jumpi\n        /* \"contracts/build_bounty/main_build/reward_elig.sol\":4454:4493  IneligibleUser(\"Not an eligible user!\") */\n      mload(0x40)\n      0xb8fdf0b000000000000000000000000000000000000000000000000000000000\n      dup2\n      mstore\n      0x04\n      add\n      tag_107\n      swap1\n      tag_108\n      jump\t// in\n    tag_107:\n      mload(0x40)\n      dup1\n      swap2\n      sub\n      swap1\n      revert\n        /* \"contracts/build_bounty/main_build/reward_elig.sol\":4398:4504  if (EligibleUser[msg.sender] == 0) {... */\n    tag_106:\n        /* \"contracts/build_bounty/main_build/reward_elig.sol\":4546:4547  1 */\n      0x01\n        /* \"contracts/build_bounty/main_build/reward_elig.sol\":4518:4530  EligibleUser */\n      0x00\n        /* \"contracts/build_bounty/main_build/reward_elig.sol\":4518:4542  EligibleUser[msg.sender] */\n      dup1\n        /* \"contracts/build_bounty/main_build/reward_elig.sol\":4531:4541  msg.sender */\n      caller\n        /* \"contracts/build_bounty/main_build/reward_elig.sol\":4518:4542  EligibleUser[msg.sender] */\n      0xffffffffffffffffffffffffffffffffffffffff\n      and\n      0xffffffffffffffffffffffffffffffffffffffff\n      and\n      dup2\n      mstore\n      0x20\n      add\n      swap1\n      dup2\n      mstore\n      0x20\n      add\n      0x00\n      keccak256\n      sload\n        /* \"contracts/build_bounty/main_build/reward_elig.sol\":4518:4547  EligibleUser[msg.sender] == 1 */\n      sub\n        /* \"contracts/build_bounty/main_build/reward_elig.sol\":4514:4798  if (EligibleUser[msg.sender] == 1) {... */\n      tag_109\n      jumpi\n        /* \"contracts/build_bounty/main_build/reward_elig.sol\":4663:4664  1 */\n      0x01\n        /* \"contracts/build_bounty/main_build/reward_elig.sol\":613:622  5 minutes */\n      0x012c\n        /* \"contracts/build_bounty/main_build/reward_elig.sol\":4615:4627  EligibleUser */\n      0x00\n        /* \"contracts/build_bounty/main_build/reward_elig.sol\":4615:4639  EligibleUser[msg.sender] */\n      dup1\n        /* \"contracts/build_bounty/main_build/reward_elig.sol\":4628:4638  msg.sender */\n      caller\n        /* \"contracts/build_bounty/main_build/reward_elig.sol\":4615:4639  EligibleUser[msg.sender] */\n      0xffffffffffffffffffffffffffffffffffffffff\n      and\n      0xffffffffffffffffffffffffffffffffffffffff\n      and\n      dup2\n      mstore\n      0x20\n      add\n      swap1\n      dup2\n      mstore\n      0x20\n      add\n      0x00\n      keccak256\n      sload\n        /* \"contracts/build_bounty/main_build/reward_elig.sol\":4615:4658  EligibleUser[msg.sender] +  DURATION_PERIOD */\n      tag_110\n      swap2\n      swap1\n      tag_99\n      jump\t// in\n    tag_110:\n        /* \"contracts/build_bounty/main_build/reward_elig.sol\":4614:4664  (EligibleUser[msg.sender] +  DURATION_PERIOD ) - 1 */\n      tag_111\n      swap2\n      swap1\n      tag_81\n      jump\t// in\n    tag_111:\n        /* \"contracts/build_bounty/main_build/reward_elig.sol\":4602:4664  _lastTime = (EligibleUser[msg.sender] +  DURATION_PERIOD ) - 1 */\n      swap2\n      pop\n        /* \"contracts/build_bounty/main_build/reward_elig.sol\":4514:4798  if (EligibleUser[msg.sender] == 1) {... */\n      jump(tag_112)\n    tag_109:\n        /* \"contracts/build_bounty/main_build/reward_elig.sol\":4712:4713  1 */\n      0x01\n        /* \"contracts/build_bounty/main_build/reward_elig.sol\":4685:4697  EligibleUser */\n      0x00\n        /* \"contracts/build_bounty/main_build/reward_elig.sol\":4685:4709  EligibleUser[msg.sender] */\n      dup1\n        /* \"contracts/build_bounty/main_build/reward_elig.sol\":4698:4708  msg.sender */\n      caller\n        /* \"contracts/build_bounty/main_build/reward_elig.sol\":4685:4709  EligibleUser[msg.sender] */\n      0xffffffffffffffffffffffffffffffffffffffff\n      and\n      0xffffffffffffffffffffffffffffffffffffffff\n      and\n      dup2\n      mstore\n      0x20\n      add\n      swap1\n      dup2\n      mstore\n      0x20\n      add\n      0x00\n      keccak256\n      sload\n        /* \"contracts/build_bounty/main_build/reward_elig.sol\":4685:4713  EligibleUser[msg.sender] > 1 */\n      gt\n        /* \"contracts/build_bounty/main_build/reward_elig.sol\":4681:4798  if (EligibleUser[msg.sender] > 1) {... */\n      iszero\n      tag_113\n      jumpi\n        /* \"contracts/build_bounty/main_build/reward_elig.sol\":613:622  5 minutes */\n      0x012c\n        /* \"contracts/build_bounty/main_build/reward_elig.sol\":4742:4754  EligibleUser */\n      0x00\n        /* \"contracts/build_bounty/main_build/reward_elig.sol\":4742:4766  EligibleUser[msg.sender] */\n      dup1\n        /* \"contracts/build_bounty/main_build/reward_elig.sol\":4755:4765  msg.sender */\n      caller\n        /* \"contracts/build_bounty/main_build/reward_elig.sol\":4742:4766  EligibleUser[msg.sender] */\n      0xffffffffffffffffffffffffffffffffffffffff\n      and\n      0xffffffffffffffffffffffffffffffffffffffff\n      and\n      dup2\n      mstore\n      0x20\n      add\n      swap1\n      dup2\n      mstore\n      0x20\n      add\n      0x00\n      keccak256\n      sload\n        /* \"contracts/build_bounty/main_build/reward_elig.sol\":4742:4785  EligibleUser[msg.sender] +  DURATION_PERIOD */\n      tag_114\n      swap2\n      swap1\n      tag_99\n      jump\t// in\n    tag_114:\n        /* \"contracts/build_bounty/main_build/reward_elig.sol\":4729:4787  _lastTime = (EligibleUser[msg.sender] +  DURATION_PERIOD ) */\n      swap2\n      pop\n        /* \"contracts/build_bounty/main_build/reward_elig.sol\":4681:4798  if (EligibleUser[msg.sender] > 1) {... */\n    tag_113:\n        /* \"contracts/build_bounty/main_build/reward_elig.sol\":4514:4798  if (EligibleUser[msg.sender] == 1) {... */\n    tag_112:\n        /* \"contracts/build_bounty/main_build/reward_elig.sol\":4835:4844  _lastTime */\n      dup2\n        /* \"contracts/build_bounty/main_build/reward_elig.sol\":4816:4831  block.timestamp */\n      timestamp\n        /* \"contracts/build_bounty/main_build/reward_elig.sol\":4816:4844  block.timestamp >= _lastTime */\n      lt\n      iszero\n        /* \"contracts/build_bounty/main_build/reward_elig.sol\":4808:4862  require(block.timestamp >= _lastTime, \"Once per week\") */\n      tag_115\n      jumpi\n      mload(0x40)\n      0x08c379a000000000000000000000000000000000000000000000000000000000\n      dup2\n      mstore\n      0x04\n      add\n      tag_116\n      swap1\n      tag_117\n      jump\t// in\n    tag_116:\n      mload(0x40)\n      dup1\n      swap2\n      sub\n      swap1\n      revert\n    tag_115:\n        /* \"contracts/build_bounty/main_build/reward_elig.sol\":4939:4940  0 */\n      0x00\n        /* \"contracts/build_bounty/main_build/reward_elig.sol\":4900:4910  MOCK_BUILD */\n      immutable(\"0xed93c67e1a9b7f09d3b44ee593360f0073603a8e45415e2c3c69afc994a1103d\")\n        /* \"contracts/build_bounty/main_build/reward_elig.sol\":4893:4921  IERC20(MOCK_BUILD).balanceOf */\n      0xffffffffffffffffffffffffffffffffffffffff\n      and\n      0x70a08231\n        /* \"contracts/build_bounty/main_build/reward_elig.sol\":4930:4934  this */\n      address\n        /* \"contracts/build_bounty/main_build/reward_elig.sol\":4893:4936  IERC20(MOCK_BUILD).balanceOf(address(this)) */\n      mload(0x40)\n      dup3\n      0xffffffff\n      and\n      0xe0\n      shl\n      dup2\n      mstore\n      0x04\n      add\n      tag_118\n      swap2\n      swap1\n      tag_25\n      jump\t// in\n    tag_118:\n      0x20\n      mload(0x40)\n      dup1\n      dup4\n      sub\n      dup2\n      dup7\n      gas\n      staticcall\n      iszero\n      dup1\n      iszero\n      tag_120\n      jumpi\n      returndatasize\n      0x00\n      dup1\n      returndatacopy\n      revert(0x00, returndatasize)\n    tag_120:\n      pop\n      pop\n      pop\n      pop\n      mload(0x40)\n      returndatasize\n      not(0x1f)\n      0x1f\n      dup3\n      add\n      and\n      dup3\n      add\n      dup1\n      0x40\n      mstore\n      pop\n      dup2\n      add\n      swap1\n      tag_121\n      swap2\n      swap1\n      tag_122\n      jump\t// in\n    tag_121:\n        /* \"contracts/build_bounty/main_build/reward_elig.sol\":4893:4940  IERC20(MOCK_BUILD).balanceOf(address(this)) > 0 */\n      gt\n        /* \"contracts/build_bounty/main_build/reward_elig.sol\":4872:4978  require(... */\n      tag_123\n      jumpi\n      mload(0x40)\n      0x08c379a000000000000000000000000000000000000000000000000000000000\n      dup2\n      mstore\n      0x04\n      add\n      tag_124\n      swap1\n      tag_125\n      jump\t// in\n    tag_124:\n      mload(0x40)\n      dup1\n      swap2\n      sub\n      swap1\n      revert\n    tag_123:\n        /* \"contracts/build_bounty/main_build/reward_elig.sol\":4996:5015  bool alreadyClaimed */\n      0x00\n        /* \"contracts/build_bounty/main_build/reward_elig.sol\":5038:5046  uint16 i */\n      dup1\n        /* \"contracts/build_bounty/main_build/reward_elig.sol\":5033:5232  for (uint16 i; i < EligibleUserClaimWeek.length; i++) {... */\n    tag_126:\n        /* \"contracts/build_bounty/main_build/reward_elig.sol\":5052:5073  EligibleUserClaimWeek */\n      0x01\n        /* \"contracts/build_bounty/main_build/reward_elig.sol\":5052:5080  EligibleUserClaimWeek.length */\n      dup1\n      sload\n      swap1\n      pop\n        /* \"contracts/build_bounty/main_build/reward_elig.sol\":5048:5049  i */\n      dup2\n        /* \"contracts/build_bounty/main_build/reward_elig.sol\":5048:5080  i < EligibleUserClaimWeek.length */\n      0xffff\n      and\n      lt\n        /* \"contracts/build_bounty/main_build/reward_elig.sol\":5033:5232  for (uint16 i; i < EligibleUserClaimWeek.length; i++) {... */\n      iszero\n      tag_127\n      jumpi\n        /* \"contracts/build_bounty/main_build/reward_elig.sol\":5133:5143  msg.sender */\n      caller\n        /* \"contracts/build_bounty/main_build/reward_elig.sol\":5105:5143  EligibleUserClaimWeek[i] == msg.sender */\n      0xffffffffffffffffffffffffffffffffffffffff\n      and\n        /* \"contracts/build_bounty/main_build/reward_elig.sol\":5105:5126  EligibleUserClaimWeek */\n      0x01\n        /* \"contracts/build_bounty/main_build/reward_elig.sol\":5127:5128  i */\n      dup3\n        /* \"contracts/build_bounty/main_build/reward_elig.sol\":5105:5129  EligibleUserClaimWeek[i] */\n      0xffff\n      and\n      dup2\n      sload\n      dup2\n      lt\n      tag_129\n      jumpi\n      tag_130\n      tag_74\n      jump\t// in\n    tag_130:\n    tag_129:\n      swap1\n      0x00\n      mstore\n      keccak256(0x00, 0x20)\n      add\n      0x00\n      swap1\n      sload\n      swap1\n      0x0100\n      exp\n      swap1\n      div\n      0xffffffffffffffffffffffffffffffffffffffff\n      and\n        /* \"contracts/build_bounty/main_build/reward_elig.sol\":5105:5143  EligibleUserClaimWeek[i] == msg.sender */\n      0xffffffffffffffffffffffffffffffffffffffff\n      and\n      sub\n        /* \"contracts/build_bounty/main_build/reward_elig.sol\":5101:5222  if (EligibleUserClaimWeek[i] == msg.sender) {... */\n      tag_132\n      jumpi\n        /* \"contracts/build_bounty/main_build/reward_elig.sol\":5180:5184  true */\n      0x01\n        /* \"contracts/build_bounty/main_build/reward_elig.sol\":5163:5184  alreadyClaimed = true */\n      swap2\n      pop\n        /* \"contracts/build_bounty/main_build/reward_elig.sol\":5202:5207  break */\n      jump(tag_127)\n        /* \"contracts/build_bounty/main_build/reward_elig.sol\":5101:5222  if (EligibleUserClaimWeek[i] == msg.sender) {... */\n    tag_132:\n        /* \"contracts/build_bounty/main_build/reward_elig.sol\":5082:5085  i++ */\n      dup1\n      dup1\n      tag_133\n      swap1\n      tag_91\n      jump\t// in\n    tag_133:\n      swap2\n      pop\n      pop\n        /* \"contracts/build_bounty/main_build/reward_elig.sol\":5033:5232  for (uint16 i; i < EligibleUserClaimWeek.length; i++) {... */\n      jump(tag_126)\n    tag_127:\n      pop\n        /* \"contracts/build_bounty/main_build/reward_elig.sol\":5246:5260  alreadyClaimed */\n      dup1\n        /* \"contracts/build_bounty/main_build/reward_elig.sol\":5241:5325  if (!alreadyClaimed) {... */\n      tag_134\n      jumpi\n        /* \"contracts/build_bounty/main_build/reward_elig.sol\":5276:5297  EligibleUserClaimWeek */\n      0x01\n        /* \"contracts/build_bounty/main_build/reward_elig.sol\":5303:5313  msg.sender */\n      caller\n        /* \"contracts/build_bounty/main_build/reward_elig.sol\":5276:5314  EligibleUserClaimWeek.push(msg.sender) */\n      swap1\n      dup1\n      0x01\n      dup2\n      sload\n      add\n      dup1\n      dup3\n      sstore\n      dup1\n      swap2\n      pop\n      pop\n      0x01\n      swap1\n      sub\n      swap1\n      0x00\n      mstore\n      keccak256(0x00, 0x20)\n      add\n      0x00\n      swap1\n      swap2\n      swap1\n      swap2\n      swap1\n      swap2\n      0x0100\n      exp\n      dup2\n      sload\n      dup2\n      0xffffffffffffffffffffffffffffffffffffffff\n      mul\n      not\n      and\n      swap1\n      dup4\n      0xffffffffffffffffffffffffffffffffffffffff\n      and\n      mul\n      or\n      swap1\n      sstore\n      pop\n        /* \"contracts/build_bounty/main_build/reward_elig.sol\":5241:5325  if (!alreadyClaimed) {... */\n    tag_134:\n        /* \"contracts/build_bounty/main_build/reward_elig.sol\":5342:5362  uint256 each_portion */\n      0x00\n        /* \"contracts/build_bounty/main_build/reward_elig.sol\":5379:5389  _totalUser */\n      dup3\n        /* \"contracts/build_bounty/main_build/reward_elig.sol\":510:515  10**7 */\n      0x989680\n        /* \"contracts/build_bounty/main_build/reward_elig.sol\":5365:5389  POOL_AMOUNT / _totalUser */\n      tag_136\n      swap2\n      swap1\n      tag_137\n      jump\t// in\n    tag_136:\n        /* \"contracts/build_bounty/main_build/reward_elig.sol\":5342:5389  uint256 each_portion = POOL_AMOUNT / _totalUser */\n      swap1\n      pop\n        /* \"contracts/build_bounty/main_build/reward_elig.sol\":5407:5417  MOCK_BUILD */\n      immutable(\"0xed93c67e1a9b7f09d3b44ee593360f0073603a8e45415e2c3c69afc994a1103d\")\n        /* \"contracts/build_bounty/main_build/reward_elig.sol\":5400:5427  IERC20(MOCK_BUILD).transfer */\n      0xffffffffffffffffffffffffffffffffffffffff\n      and\n      0xa9059cbb\n        /* \"contracts/build_bounty/main_build/reward_elig.sol\":5428:5438  msg.sender */\n      caller\n        /* \"contracts/build_bounty/main_build/reward_elig.sol\":558:564  10**18 */\n      0x0de0b6b3a7640000\n        /* \"contracts/build_bounty/main_build/reward_elig.sol\":5440:5452  each_portion */\n      dup5\n        /* \"contracts/build_bounty/main_build/reward_elig.sol\":5440:5464  each_portion * magic_num */\n      tag_138\n      swap2\n      swap1\n      tag_139\n      jump\t// in\n    tag_138:\n        /* \"contracts/build_bounty/main_build/reward_elig.sol\":5400:5465  IERC20(MOCK_BUILD).transfer(msg.sender, each_portion * magic_num) */\n      mload(0x40)\n      dup4\n      0xffffffff\n      and\n      0xe0\n      shl\n      dup2\n      mstore\n      0x04\n      add\n      tag_140\n      swap3\n      swap2\n      swap1\n      tag_141\n      jump\t// in\n    tag_140:\n      0x20\n      mload(0x40)\n      dup1\n      dup4\n      sub\n      dup2\n      0x00\n      dup8\n      gas\n      call\n      iszero\n      dup1\n      iszero\n      tag_143\n      jumpi\n      returndatasize\n      0x00\n      dup1\n      returndatacopy\n      revert(0x00, returndatasize)\n    tag_143:\n      pop\n      pop\n      pop\n      pop\n      mload(0x40)\n      returndatasize\n      not(0x1f)\n      0x1f\n      dup3\n      add\n      and\n      dup3\n      add\n      dup1\n      0x40\n      mstore\n      pop\n      dup2\n      add\n      swap1\n      tag_144\n      swap2\n      swap1\n      tag_145\n      jump\t// in\n    tag_144:\n      pop\n        /* \"contracts/build_bounty/main_build/reward_elig.sol\":5502:5517  block.timestamp */\n      timestamp\n        /* \"contracts/build_bounty/main_build/reward_elig.sol\":5475:5487  EligibleUser */\n      0x00\n        /* \"contracts/build_bounty/main_build/reward_elig.sol\":5475:5499  EligibleUser[msg.sender] */\n      dup1\n        /* \"contracts/build_bounty/main_build/reward_elig.sol\":5488:5498  msg.sender */\n      caller\n        /* \"contracts/build_bounty/main_build/reward_elig.sol\":5475:5499  EligibleUser[msg.sender] */\n      0xffffffffffffffffffffffffffffffffffffffff\n      and\n      0xffffffffffffffffffffffffffffffffffffffff\n      and\n      dup2\n      mstore\n      0x20\n      add\n      swap1\n      dup2\n      mstore\n      0x20\n      add\n      0x00\n      keccak256\n        /* \"contracts/build_bounty/main_build/reward_elig.sol\":5475:5517  EligibleUser[msg.sender] = block.timestamp */\n      dup2\n      swap1\n      sstore\n      pop\n        /* \"contracts/build_bounty/main_build/reward_elig.sol\":5533:5574  ClaimRewardUser(msg.sender, each_portion) */\n      0x60237eb95a34e0af997fdc10ea4eb2c64fec8d49df3996e657f28b28ad8a0ad9\n        /* \"contracts/build_bounty/main_build/reward_elig.sol\":5549:5559  msg.sender */\n      caller\n        /* \"contracts/build_bounty/main_build/reward_elig.sol\":5561:5573  each_portion */\n      dup3\n        /* \"contracts/build_bounty/main_build/reward_elig.sol\":5533:5574  ClaimRewardUser(msg.sender, each_portion) */\n      mload(0x40)\n      tag_146\n      swap3\n      swap2\n      swap1\n      tag_141\n      jump\t// in\n    tag_146:\n      mload(0x40)\n      dup1\n      swap2\n      sub\n      swap1\n      log1\n        /* \"contracts/build_bounty/main_build/reward_elig.sol\":5591:5592  0 */\n      0x00\n        /* \"contracts/build_bounty/main_build/reward_elig.sol\":5584:5592  return 0 */\n      swap5\n      pop\n      pop\n      pop\n      pop\n      pop\n        /* \"contracts/build_bounty/main_build/reward_elig.sol\":4057:5599  function ClaimReward() external returns (uint256) {... */\n      swap1\n      jump\t// out\n        /* \"contracts/build_bounty/main_build/reward_elig.sol\":1261:1500  function AddEligibleUser(address _user) external onlyAdmin {... */\n    tag_35:\n        /* \"contracts/build_bounty/main_build/reward_elig.sol\":6530:6540  msg.sender */\n      caller\n        /* \"contracts/build_bounty/main_build/reward_elig.sol\":6521:6540  admin == msg.sender */\n      0xffffffffffffffffffffffffffffffffffffffff\n      and\n        /* \"contracts/build_bounty/main_build/reward_elig.sol\":6521:6526  admin */\n      0x03\n      0x00\n      swap1\n      sload\n      swap1\n      0x0100\n      exp\n      swap1\n      div\n      0xffffffffffffffffffffffffffffffffffffffff\n      and\n        /* \"contracts/build_bounty/main_build/reward_elig.sol\":6521:6540  admin == msg.sender */\n      0xffffffffffffffffffffffffffffffffffffffff\n      and\n      eq\n        /* \"contracts/build_bounty/main_build/reward_elig.sol\":6513:6580  require(admin == msg.sender, \"only admin can invoke this function\") */\n      tag_148\n      jumpi\n      mload(0x40)\n      0x08c379a000000000000000000000000000000000000000000000000000000000\n      dup2\n      mstore\n      0x04\n      add\n      tag_149\n      swap1\n      tag_67\n      jump\t// in\n    tag_149:\n      mload(0x40)\n      dup1\n      swap2\n      sub\n      swap1\n      revert\n    tag_148:\n        /* \"contracts/build_bounty/main_build/reward_elig.sol\":1356:1357  0 */\n      0x00\n        /* \"contracts/build_bounty/main_build/reward_elig.sol\":1334:1346  EligibleUser */\n      dup1\n        /* \"contracts/build_bounty/main_build/reward_elig.sol\":1334:1353  EligibleUser[_user] */\n      0x00\n        /* \"contracts/build_bounty/main_build/reward_elig.sol\":1347:1352  _user */\n      dup4\n        /* \"contracts/build_bounty/main_build/reward_elig.sol\":1334:1353  EligibleUser[_user] */\n      0xffffffffffffffffffffffffffffffffffffffff\n      and\n      0xffffffffffffffffffffffffffffffffffffffff\n      and\n      dup2\n      mstore\n      0x20\n      add\n      swap1\n      dup2\n      mstore\n      0x20\n      add\n      0x00\n      keccak256\n      sload\n        /* \"contracts/build_bounty/main_build/reward_elig.sol\":1334:1357  EligibleUser[_user] > 0 */\n      gt\n        /* \"contracts/build_bounty/main_build/reward_elig.sol\":1330:1423  if (EligibleUser[_user] > 0) {... */\n      iszero\n      tag_151\n      jumpi\n        /* \"contracts/build_bounty/main_build/reward_elig.sol\":1380:1412  DuplicateUserAdded(\"User exist\") */\n      mload(0x40)\n      0x0e64c65800000000000000000000000000000000000000000000000000000000\n      dup2\n      mstore\n      0x04\n      add\n      tag_152\n      swap1\n      tag_153\n      jump\t// in\n    tag_152:\n      mload(0x40)\n      dup1\n      swap2\n      sub\n      swap1\n      revert\n        /* \"contracts/build_bounty/main_build/reward_elig.sol\":1330:1423  if (EligibleUser[_user] > 0) {... */\n    tag_151:\n        /* \"contracts/build_bounty/main_build/reward_elig.sol\":1455:1456  1 */\n      0x01\n        /* \"contracts/build_bounty/main_build/reward_elig.sol\":1433:1445  EligibleUser */\n      0x00\n        /* \"contracts/build_bounty/main_build/reward_elig.sol\":1433:1452  EligibleUser[_user] */\n      dup1\n        /* \"contracts/build_bounty/main_build/reward_elig.sol\":1446:1451  _user */\n      dup4\n        /* \"contracts/build_bounty/main_build/reward_elig.sol\":1433:1452  EligibleUser[_user] */\n      0xffffffffffffffffffffffffffffffffffffffff\n      and\n      0xffffffffffffffffffffffffffffffffffffffff\n      and\n      dup2\n      mstore\n      0x20\n      add\n      swap1\n      dup2\n      mstore\n      0x20\n      add\n      0x00\n      keccak256\n        /* \"contracts/build_bounty/main_build/reward_elig.sol\":1433:1456  EligibleUser[_user] = 1 */\n      dup2\n      swap1\n      sstore\n      pop\n        /* \"contracts/build_bounty/main_build/reward_elig.sol\":1466:1481  EligibleUserArr */\n      0x02\n        /* \"contracts/build_bounty/main_build/reward_elig.sol\":1487:1492  _user */\n      dup2\n        /* \"contracts/build_bounty/main_build/reward_elig.sol\":1466:1493  EligibleUserArr.push(_user) */\n      swap1\n      dup1\n      0x01\n      dup2\n      sload\n      add\n      dup1\n      dup3\n      sstore\n      dup1\n      swap2\n      pop\n      pop\n      0x01\n      swap1\n      sub\n      swap1\n      0x00\n      mstore\n      keccak256(0x00, 0x20)\n      add\n      0x00\n      swap1\n      swap2\n      swap1\n      swap2\n      swap1\n      swap2\n      0x0100\n      exp\n      dup2\n      sload\n      dup2\n      0xffffffffffffffffffffffffffffffffffffffff\n      mul\n      not\n      and\n      swap1\n      dup4\n      0xffffffffffffffffffffffffffffffffffffffff\n      and\n      mul\n      or\n      swap1\n      sstore\n      pop\n        /* \"contracts/build_bounty/main_build/reward_elig.sol\":1261:1500  function AddEligibleUser(address _user) external onlyAdmin {... */\n      pop\n      jump\t// out\n        /* \"contracts/build_bounty/main_build/reward_elig.sol\":6119:6214  function lis() external view returns (address[] memory) {... */\n    tag_37:\n        /* \"contracts/build_bounty/main_build/reward_elig.sol\":6157:6173  address[] memory */\n      0x60\n        /* \"contracts/build_bounty/main_build/reward_elig.sol\":6192:6207  EligibleUserArr */\n      0x02\n        /* \"contracts/build_bounty/main_build/reward_elig.sol\":6185:6207  return EligibleUserArr */\n      dup1\n      sload\n      dup1\n      0x20\n      mul\n      0x20\n      add\n      mload(0x40)\n      swap1\n      dup2\n      add\n      0x40\n      mstore\n      dup1\n      swap3\n      swap2\n      swap1\n      dup2\n      dup2\n      mstore\n      0x20\n      add\n      dup3\n      dup1\n      sload\n      dup1\n      iszero\n      tag_156\n      jumpi\n      0x20\n      mul\n      dup3\n      add\n      swap2\n      swap1\n      0x00\n      mstore\n      keccak256(0x00, 0x20)\n      swap1\n    tag_157:\n      dup2\n      0x00\n      swap1\n      sload\n      swap1\n      0x0100\n      exp\n      swap1\n      div\n      0xffffffffffffffffffffffffffffffffffffffff\n      and\n      0xffffffffffffffffffffffffffffffffffffffff\n      and\n      dup2\n      mstore\n      0x20\n      add\n      swap1\n      0x01\n      add\n      swap1\n      dup1\n      dup4\n      gt\n      tag_157\n      jumpi\n    tag_156:\n      pop\n      pop\n      pop\n      pop\n      pop\n      swap1\n      pop\n        /* \"contracts/build_bounty/main_build/reward_elig.sol\":6119:6214  function lis() external view returns (address[] memory) {... */\n      swap1\n      jump\t// out\n        /* \"contracts/build_bounty/main_build/reward_elig.sol\":5697:5802  function TotalUserAWeek() external view returns(uint){... */\n    tag_41:\n        /* \"contracts/build_bounty/main_build/reward_elig.sol\":5745:5749  uint */\n      0x00\n        /* \"contracts/build_bounty/main_build/reward_elig.sol\":5767:5788  EligibleUserClaimWeek */\n      0x01\n        /* \"contracts/build_bounty/main_build/reward_elig.sol\":5767:5795  EligibleUserClaimWeek.length */\n      dup1\n      sload\n      swap1\n      pop\n        /* \"contracts/build_bounty/main_build/reward_elig.sol\":5760:5795  return EligibleUserClaimWeek.length */\n      swap1\n      pop\n        /* \"contracts/build_bounty/main_build/reward_elig.sol\":5697:5802  function TotalUserAWeek() external view returns(uint){... */\n      swap1\n      jump\t// out\n        /* \"contracts/build_bounty/main_build/reward_elig.sol\":5932:6024  function ChangeAdmin(address _newAdmin) external onlyAdmin{... */\n    tag_45:\n        /* \"contracts/build_bounty/main_build/reward_elig.sol\":6530:6540  msg.sender */\n      caller\n        /* \"contracts/build_bounty/main_build/reward_elig.sol\":6521:6540  admin == msg.sender */\n      0xffffffffffffffffffffffffffffffffffffffff\n      and\n        /* \"contracts/build_bounty/main_build/reward_elig.sol\":6521:6526  admin */\n      0x03\n      0x00\n      swap1\n      sload\n      swap1\n      0x0100\n      exp\n      swap1\n      div\n      0xffffffffffffffffffffffffffffffffffffffff\n      and\n        /* \"contracts/build_bounty/main_build/reward_elig.sol\":6521:6540  admin == msg.sender */\n      0xffffffffffffffffffffffffffffffffffffffff\n      and\n      eq\n        /* \"contracts/build_bounty/main_build/reward_elig.sol\":6513:6580  require(admin == msg.sender, \"only admin can invoke this function\") */\n      tag_160\n      jumpi\n      mload(0x40)\n      0x08c379a000000000000000000000000000000000000000000000000000000000\n      dup2\n      mstore\n      0x04\n      add\n      tag_161\n      swap1\n      tag_67\n      jump\t// in\n    tag_161:\n      mload(0x40)\n      dup1\n      swap2\n      sub\n      swap1\n      revert\n    tag_160:\n        /* \"contracts/build_bounty/main_build/reward_elig.sol\":6008:6017  _newAdmin */\n      dup1\n        /* \"contracts/build_bounty/main_build/reward_elig.sol\":6000:6005  admin */\n      0x03\n      0x00\n        /* \"contracts/build_bounty/main_build/reward_elig.sol\":6000:6017  admin = _newAdmin */\n      0x0100\n      exp\n      dup2\n      sload\n      dup2\n      0xffffffffffffffffffffffffffffffffffffffff\n      mul\n      not\n      and\n      swap1\n      dup4\n      0xffffffffffffffffffffffffffffffffffffffff\n      and\n      mul\n      or\n      swap1\n      sstore\n      pop\n        /* \"contracts/build_bounty/main_build/reward_elig.sol\":5932:6024  function ChangeAdmin(address _newAdmin) external onlyAdmin{... */\n      pop\n      jump\t// out\n        /* \"contracts/build_bounty/main_build/reward_elig.sol\":6368:6476  function returndf(address _user) external view returns (uint256) {... */\n    tag_48:\n        /* \"contracts/build_bounty/main_build/reward_elig.sol\":6424:6431  uint256 */\n      0x00\n        /* \"contracts/build_bounty/main_build/reward_elig.sol\":6450:6462  EligibleUser */\n      dup1\n        /* \"contracts/build_bounty/main_build/reward_elig.sol\":6450:6469  EligibleUser[_user] */\n      0x00\n        /* \"contracts/build_bounty/main_build/reward_elig.sol\":6463:6468  _user */\n      dup4\n        /* \"contracts/build_bounty/main_build/reward_elig.sol\":6450:6469  EligibleUser[_user] */\n      0xffffffffffffffffffffffffffffffffffffffff\n      and\n      0xffffffffffffffffffffffffffffffffffffffff\n      and\n      dup2\n      mstore\n      0x20\n      add\n      swap1\n      dup2\n      mstore\n      0x20\n      add\n      0x00\n      keccak256\n      sload\n        /* \"contracts/build_bounty/main_build/reward_elig.sol\":6443:6469  return EligibleUser[_user] */\n      swap1\n      pop\n        /* \"contracts/build_bounty/main_build/reward_elig.sol\":6368:6476  function returndf(address _user) external view returns (uint256) {... */\n      swap2\n      swap1\n      pop\n      jump\t// out\n        /* \"contracts/build_bounty/main_build/reward_elig.sol\":1506:1844  function AddMultipleEliglibleUser(address[] memory _users)... */\n    tag_53:\n        /* \"contracts/build_bounty/main_build/reward_elig.sol\":6530:6540  msg.sender */\n      caller\n        /* \"contracts/build_bounty/main_build/reward_elig.sol\":6521:6540  admin == msg.sender */\n      0xffffffffffffffffffffffffffffffffffffffff\n      and\n        /* \"contracts/build_bounty/main_build/reward_elig.sol\":6521:6526  admin */\n      0x03\n      0x00\n      swap1\n      sload\n      swap1\n      0x0100\n      exp\n      swap1\n      div\n      0xffffffffffffffffffffffffffffffffffffffff\n      and\n        /* \"contracts/build_bounty/main_build/reward_elig.sol\":6521:6540  admin == msg.sender */\n      0xffffffffffffffffffffffffffffffffffffffff\n      and\n      eq\n        /* \"contracts/build_bounty/main_build/reward_elig.sol\":6513:6580  require(admin == msg.sender, \"only admin can invoke this function\") */\n      tag_165\n      jumpi\n      mload(0x40)\n      0x08c379a000000000000000000000000000000000000000000000000000000000\n      dup2\n      mstore\n      0x04\n      add\n      tag_166\n      swap1\n      tag_67\n      jump\t// in\n    tag_166:\n      mload(0x40)\n      dup1\n      swap2\n      sub\n      swap1\n      revert\n    tag_165:\n        /* \"contracts/build_bounty/main_build/reward_elig.sol\":1619:1627  uint16 i */\n      0x00\n        /* \"contracts/build_bounty/main_build/reward_elig.sol\":1614:1838  for (uint16 i; i < _users.length; i++) {... */\n    tag_168:\n        /* \"contracts/build_bounty/main_build/reward_elig.sol\":1633:1639  _users */\n      dup2\n        /* \"contracts/build_bounty/main_build/reward_elig.sol\":1633:1646  _users.length */\n      mload\n        /* \"contracts/build_bounty/main_build/reward_elig.sol\":1629:1630  i */\n      dup2\n        /* \"contracts/build_bounty/main_build/reward_elig.sol\":1629:1646  i < _users.length */\n      0xffff\n      and\n      lt\n        /* \"contracts/build_bounty/main_build/reward_elig.sol\":1614:1838  for (uint16 i; i < _users.length; i++) {... */\n      iszero\n      tag_169\n      jumpi\n        /* \"contracts/build_bounty/main_build/reward_elig.sol\":1697:1698  0 */\n      0x00\n        /* \"contracts/build_bounty/main_build/reward_elig.sol\":1671:1683  EligibleUser */\n      dup1\n        /* \"contracts/build_bounty/main_build/reward_elig.sol\":1671:1694  EligibleUser[_users[i]] */\n      0x00\n        /* \"contracts/build_bounty/main_build/reward_elig.sol\":1684:1690  _users */\n      dup5\n        /* \"contracts/build_bounty/main_build/reward_elig.sol\":1691:1692  i */\n      dup5\n        /* \"contracts/build_bounty/main_build/reward_elig.sol\":1684:1693  _users[i] */\n      0xffff\n      and\n      dup2\n      mload\n      dup2\n      lt\n      tag_171\n      jumpi\n      tag_172\n      tag_74\n      jump\t// in\n    tag_172:\n    tag_171:\n      0x20\n      mul\n      0x20\n      add\n      add\n      mload\n        /* \"contracts/build_bounty/main_build/reward_elig.sol\":1671:1694  EligibleUser[_users[i]] */\n      0xffffffffffffffffffffffffffffffffffffffff\n      and\n      0xffffffffffffffffffffffffffffffffffffffff\n      and\n      dup2\n      mstore\n      0x20\n      add\n      swap1\n      dup2\n      mstore\n      0x20\n      add\n      0x00\n      keccak256\n      sload\n        /* \"contracts/build_bounty/main_build/reward_elig.sol\":1671:1698  EligibleUser[_users[i]] > 0 */\n      gt\n        /* \"contracts/build_bounty/main_build/reward_elig.sol\":1718:1726  continue */\n      tag_170\n        /* \"contracts/build_bounty/main_build/reward_elig.sol\":1667:1741  if (EligibleUser[_users[i]] > 0) {... */\n      jumpi\n        /* \"contracts/build_bounty/main_build/reward_elig.sol\":1781:1782  1 */\n      0x01\n        /* \"contracts/build_bounty/main_build/reward_elig.sol\":1755:1767  EligibleUser */\n      0x00\n        /* \"contracts/build_bounty/main_build/reward_elig.sol\":1755:1778  EligibleUser[_users[i]] */\n      dup1\n        /* \"contracts/build_bounty/main_build/reward_elig.sol\":1768:1774  _users */\n      dup5\n        /* \"contracts/build_bounty/main_build/reward_elig.sol\":1775:1776  i */\n      dup5\n        /* \"contracts/build_bounty/main_build/reward_elig.sol\":1768:1777  _users[i] */\n      0xffff\n      and\n      dup2\n      mload\n      dup2\n      lt\n      tag_174\n      jumpi\n      tag_175\n      tag_74\n      jump\t// in\n    tag_175:\n    tag_174:\n      0x20\n      mul\n      0x20\n      add\n      add\n      mload\n        /* \"contracts/build_bounty/main_build/reward_elig.sol\":1755:1778  EligibleUser[_users[i]] */\n      0xffffffffffffffffffffffffffffffffffffffff\n      and\n      0xffffffffffffffffffffffffffffffffffffffff\n      and\n      dup2\n      mstore\n      0x20\n      add\n      swap1\n      dup2\n      mstore\n      0x20\n      add\n      0x00\n      keccak256\n        /* \"contracts/build_bounty/main_build/reward_elig.sol\":1755:1782  EligibleUser[_users[i]] = 1 */\n      dup2\n      swap1\n      sstore\n      pop\n        /* \"contracts/build_bounty/main_build/reward_elig.sol\":1796:1811  EligibleUserArr */\n      0x02\n        /* \"contracts/build_bounty/main_build/reward_elig.sol\":1817:1823  _users */\n      dup3\n        /* \"contracts/build_bounty/main_build/reward_elig.sol\":1824:1825  i */\n      dup3\n        /* \"contracts/build_bounty/main_build/reward_elig.sol\":1817:1826  _users[i] */\n      0xffff\n      and\n      dup2\n      mload\n      dup2\n      lt\n      tag_176\n      jumpi\n      tag_177\n      tag_74\n      jump\t// in\n    tag_177:\n    tag_176:\n      0x20\n      mul\n      0x20\n      add\n      add\n      mload\n        /* \"contracts/build_bounty/main_build/reward_elig.sol\":1796:1827  EligibleUserArr.push(_users[i]) */\n      swap1\n      dup1\n      0x01\n      dup2\n      sload\n      add\n      dup1\n      dup3\n      sstore\n      dup1\n      swap2\n      pop\n      pop\n      0x01\n      swap1\n      sub\n      swap1\n      0x00\n      mstore\n      keccak256(0x00, 0x20)\n      add\n      0x00\n      swap1\n      swap2\n      swap1\n      swap2\n      swap1\n      swap2\n      0x0100\n      exp\n      dup2\n      sload\n      dup2\n      0xffffffffffffffffffffffffffffffffffffffff\n      mul\n      not\n      and\n      swap1\n      dup4\n      0xffffffffffffffffffffffffffffffffffffffff\n      and\n      mul\n      or\n      swap1\n      sstore\n      pop\n        /* \"contracts/build_bounty/main_build/reward_elig.sol\":1614:1838  for (uint16 i; i < _users.length; i++) {... */\n    tag_170:\n        /* \"contracts/build_bounty/main_build/reward_elig.sol\":1648:1651  i++ */\n      dup1\n      dup1\n      tag_179\n      swap1\n      tag_91\n      jump\t// in\n    tag_179:\n      swap2\n      pop\n      pop\n        /* \"contracts/build_bounty/main_build/reward_elig.sol\":1614:1838  for (uint16 i; i < _users.length; i++) {... */\n      jump(tag_168)\n    tag_169:\n      pop\n        /* \"contracts/build_bounty/main_build/reward_elig.sol\":1506:1844  function AddMultipleEliglibleUser(address[] memory _users)... */\n      pop\n      jump\t// out\n        /* \"contracts/build_bounty/main_build/reward_elig.sol\":2397:4051  function test5minsClaim() external returns (uint256) {... */\n    tag_55:\n        /* \"contracts/build_bounty/main_build/reward_elig.sol\":2441:2448  uint256 */\n      0x00\n        /* \"contracts/build_bounty/main_build/reward_elig.sol\":2460:2477  uint256 _lastTime */\n      dup1\n        /* \"contracts/build_bounty/main_build/reward_elig.sol\":2487:2505  uint256 _totalUser */\n      0x00\n        /* \"contracts/build_bounty/main_build/reward_elig.sol\":2508:2523  EligibleUserArr */\n      0x02\n        /* \"contracts/build_bounty/main_build/reward_elig.sol\":2508:2530  EligibleUserArr.length */\n      dup1\n      sload\n      swap1\n      pop\n        /* \"contracts/build_bounty/main_build/reward_elig.sol\":2487:2530  uint256 _totalUser = EligibleUserArr.length */\n      swap1\n      pop\n        /* \"contracts/build_bounty/main_build/reward_elig.sol\":2572:2573  0 */\n      0x00\n        /* \"contracts/build_bounty/main_build/reward_elig.sol\":2544:2556  EligibleUser */\n      dup1\n        /* \"contracts/build_bounty/main_build/reward_elig.sol\":2544:2568  EligibleUser[msg.sender] */\n      0x00\n        /* \"contracts/build_bounty/main_build/reward_elig.sol\":2557:2567  msg.sender */\n      caller\n        /* \"contracts/build_bounty/main_build/reward_elig.sol\":2544:2568  EligibleUser[msg.sender] */\n      0xffffffffffffffffffffffffffffffffffffffff\n      and\n      0xffffffffffffffffffffffffffffffffffffffff\n      and\n      dup2\n      mstore\n      0x20\n      add\n      swap1\n      dup2\n      mstore\n      0x20\n      add\n      0x00\n      keccak256\n      sload\n        /* \"contracts/build_bounty/main_build/reward_elig.sol\":2544:2573  EligibleUser[msg.sender] == 0 */\n      sub\n        /* \"contracts/build_bounty/main_build/reward_elig.sol\":2540:2646  if (EligibleUser[msg.sender] == 0) {... */\n      tag_181\n      jumpi\n        /* \"contracts/build_bounty/main_build/reward_elig.sol\":2596:2635  IneligibleUser(\"Not an eligible user!\") */\n      mload(0x40)\n      0xb8fdf0b000000000000000000000000000000000000000000000000000000000\n      dup2\n      mstore\n      0x04\n      add\n      tag_182\n      swap1\n      tag_108\n      jump\t// in\n    tag_182:\n      mload(0x40)\n      dup1\n      swap2\n      sub\n      swap1\n      revert\n        /* \"contracts/build_bounty/main_build/reward_elig.sol\":2540:2646  if (EligibleUser[msg.sender] == 0) {... */\n    tag_181:\n        /* \"contracts/build_bounty/main_build/reward_elig.sol\":2688:2689  1 */\n      0x01\n        /* \"contracts/build_bounty/main_build/reward_elig.sol\":2660:2672  EligibleUser */\n      0x00\n        /* \"contracts/build_bounty/main_build/reward_elig.sol\":2660:2684  EligibleUser[msg.sender] */\n      dup1\n        /* \"contracts/build_bounty/main_build/reward_elig.sol\":2673:2683  msg.sender */\n      caller\n        /* \"contracts/build_bounty/main_build/reward_elig.sol\":2660:2684  EligibleUser[msg.sender] */\n      0xffffffffffffffffffffffffffffffffffffffff\n      and\n      0xffffffffffffffffffffffffffffffffffffffff\n      and\n      dup2\n      mstore\n      0x20\n      add\n      swap1\n      dup2\n      mstore\n      0x20\n      add\n      0x00\n      keccak256\n      sload\n        /* \"contracts/build_bounty/main_build/reward_elig.sol\":2660:2689  EligibleUser[msg.sender] == 1 */\n      sub\n        /* \"contracts/build_bounty/main_build/reward_elig.sol\":2656:2928  if (EligibleUser[msg.sender] == 1) {... */\n      tag_183\n      jumpi\n        /* \"contracts/build_bounty/main_build/reward_elig.sol\":2799:2800  1 */\n      0x01\n        /* \"contracts/build_bounty/main_build/reward_elig.sol\":2785:2794  5 minutes */\n      0x012c\n        /* \"contracts/build_bounty/main_build/reward_elig.sol\":2757:2769  EligibleUser */\n      0x00\n        /* \"contracts/build_bounty/main_build/reward_elig.sol\":2757:2781  EligibleUser[msg.sender] */\n      dup1\n        /* \"contracts/build_bounty/main_build/reward_elig.sol\":2770:2780  msg.sender */\n      caller\n        /* \"contracts/build_bounty/main_build/reward_elig.sol\":2757:2781  EligibleUser[msg.sender] */\n      0xffffffffffffffffffffffffffffffffffffffff\n      and\n      0xffffffffffffffffffffffffffffffffffffffff\n      and\n      dup2\n      mstore\n      0x20\n      add\n      swap1\n      dup2\n      mstore\n      0x20\n      add\n      0x00\n      keccak256\n      sload\n        /* \"contracts/build_bounty/main_build/reward_elig.sol\":2757:2794  EligibleUser[msg.sender] +  5 minutes */\n      tag_184\n      swap2\n      swap1\n      tag_99\n      jump\t// in\n    tag_184:\n        /* \"contracts/build_bounty/main_build/reward_elig.sol\":2756:2800  (EligibleUser[msg.sender] +  5 minutes ) - 1 */\n      tag_185\n      swap2\n      swap1\n      tag_81\n      jump\t// in\n    tag_185:\n        /* \"contracts/build_bounty/main_build/reward_elig.sol\":2744:2800  _lastTime = (EligibleUser[msg.sender] +  5 minutes ) - 1 */\n      swap2\n      pop\n        /* \"contracts/build_bounty/main_build/reward_elig.sol\":2656:2928  if (EligibleUser[msg.sender] == 1) {... */\n      jump(tag_186)\n    tag_183:\n        /* \"contracts/build_bounty/main_build/reward_elig.sol\":2848:2849  1 */\n      0x01\n        /* \"contracts/build_bounty/main_build/reward_elig.sol\":2821:2833  EligibleUser */\n      0x00\n        /* \"contracts/build_bounty/main_build/reward_elig.sol\":2821:2845  EligibleUser[msg.sender] */\n      dup1\n        /* \"contracts/build_bounty/main_build/reward_elig.sol\":2834:2844  msg.sender */\n      caller\n        /* \"contracts/build_bounty/main_build/reward_elig.sol\":2821:2845  EligibleUser[msg.sender] */\n      0xffffffffffffffffffffffffffffffffffffffff\n      and\n      0xffffffffffffffffffffffffffffffffffffffff\n      and\n      dup2\n      mstore\n      0x20\n      add\n      swap1\n      dup2\n      mstore\n      0x20\n      add\n      0x00\n      keccak256\n      sload\n        /* \"contracts/build_bounty/main_build/reward_elig.sol\":2821:2849  EligibleUser[msg.sender] > 1 */\n      gt\n        /* \"contracts/build_bounty/main_build/reward_elig.sol\":2817:2928  if (EligibleUser[msg.sender] > 1) {... */\n      iszero\n      tag_187\n      jumpi\n        /* \"contracts/build_bounty/main_build/reward_elig.sol\":2906:2915  5 minutes */\n      0x012c\n        /* \"contracts/build_bounty/main_build/reward_elig.sol\":2878:2890  EligibleUser */\n      0x00\n        /* \"contracts/build_bounty/main_build/reward_elig.sol\":2878:2902  EligibleUser[msg.sender] */\n      dup1\n        /* \"contracts/build_bounty/main_build/reward_elig.sol\":2891:2901  msg.sender */\n      caller\n        /* \"contracts/build_bounty/main_build/reward_elig.sol\":2878:2902  EligibleUser[msg.sender] */\n      0xffffffffffffffffffffffffffffffffffffffff\n      and\n      0xffffffffffffffffffffffffffffffffffffffff\n      and\n      dup2\n      mstore\n      0x20\n      add\n      swap1\n      dup2\n      mstore\n      0x20\n      add\n      0x00\n      keccak256\n      sload\n        /* \"contracts/build_bounty/main_build/reward_elig.sol\":2878:2915  EligibleUser[msg.sender] +  5 minutes */\n      tag_188\n      swap2\n      swap1\n      tag_99\n      jump\t// in\n    tag_188:\n        /* \"contracts/build_bounty/main_build/reward_elig.sol\":2865:2917  _lastTime = (EligibleUser[msg.sender] +  5 minutes ) */\n      swap2\n      pop\n        /* \"contracts/build_bounty/main_build/reward_elig.sol\":2817:2928  if (EligibleUser[msg.sender] > 1) {... */\n    tag_187:\n        /* \"contracts/build_bounty/main_build/reward_elig.sol\":2656:2928  if (EligibleUser[msg.sender] == 1) {... */\n    tag_186:\n        /* \"contracts/build_bounty/main_build/reward_elig.sol\":2965:2974  _lastTime */\n      dup2\n        /* \"contracts/build_bounty/main_build/reward_elig.sol\":2946:2961  block.timestamp */\n      timestamp\n        /* \"contracts/build_bounty/main_build/reward_elig.sol\":2946:2974  block.timestamp >= _lastTime */\n      lt\n      iszero\n        /* \"contracts/build_bounty/main_build/reward_elig.sol\":2938:2992  require(block.timestamp >= _lastTime, \"Once per week\") */\n      tag_189\n      jumpi\n      mload(0x40)\n      0x08c379a000000000000000000000000000000000000000000000000000000000\n      dup2\n      mstore\n      0x04\n      add\n      tag_190\n      swap1\n      tag_117\n      jump\t// in\n    tag_190:\n      mload(0x40)\n      dup1\n      swap2\n      sub\n      swap1\n      revert\n    tag_189:\n        /* \"contracts/build_bounty/main_build/reward_elig.sol\":3069:3070  0 */\n      0x00\n        /* \"contracts/build_bounty/main_build/reward_elig.sol\":3030:3040  MOCK_BUILD */\n      immutable(\"0xed93c67e1a9b7f09d3b44ee593360f0073603a8e45415e2c3c69afc994a1103d\")\n        /* \"contracts/build_bounty/main_build/reward_elig.sol\":3023:3051  IERC20(MOCK_BUILD).balanceOf */\n      0xffffffffffffffffffffffffffffffffffffffff\n      and\n      0x70a08231\n        /* \"contracts/build_bounty/main_build/reward_elig.sol\":3060:3064  this */\n      address\n        /* \"contracts/build_bounty/main_build/reward_elig.sol\":3023:3066  IERC20(MOCK_BUILD).balanceOf(address(this)) */\n      mload(0x40)\n      dup3\n      0xffffffff\n      and\n      0xe0\n      shl\n      dup2\n      mstore\n      0x04\n      add\n      tag_191\n      swap2\n      swap1\n      tag_25\n      jump\t// in\n    tag_191:\n      0x20\n      mload(0x40)\n      dup1\n      dup4\n      sub\n      dup2\n      dup7\n      gas\n      staticcall\n      iszero\n      dup1\n      iszero\n      tag_193\n      jumpi\n      returndatasize\n      0x00\n      dup1\n      returndatacopy\n      revert(0x00, returndatasize)\n    tag_193:\n      pop\n      pop\n      pop\n      pop\n      mload(0x40)\n      returndatasize\n      not(0x1f)\n      0x1f\n      dup3\n      add\n      and\n      dup3\n      add\n      dup1\n      0x40\n      mstore\n      pop\n      dup2\n      add\n      swap1\n      tag_194\n      swap2\n      swap1\n      tag_122\n      jump\t// in\n    tag_194:\n        /* \"contracts/build_bounty/main_build/reward_elig.sol\":3023:3070  IERC20(MOCK_BUILD).balanceOf(address(this)) > 0 */\n      gt\n        /* \"contracts/build_bounty/main_build/reward_elig.sol\":3002:3108  require(... */\n      tag_195\n      jumpi\n      mload(0x40)\n      0x08c379a000000000000000000000000000000000000000000000000000000000\n      dup2\n      mstore\n      0x04\n      add\n      tag_196\n      swap1\n      tag_125\n      jump\t// in\n    tag_196:\n      mload(0x40)\n      dup1\n      swap2\n      sub\n      swap1\n      revert\n    tag_195:\n        /* \"contracts/build_bounty/main_build/reward_elig.sol\":3250:3270  uint256 each_portion */\n      0x00\n        /* \"contracts/build_bounty/main_build/reward_elig.sol\":3287:3297  _totalUser */\n      dup2\n        /* \"contracts/build_bounty/main_build/reward_elig.sol\":510:515  10**7 */\n      0x989680\n        /* \"contracts/build_bounty/main_build/reward_elig.sol\":3273:3297  POOL_AMOUNT / _totalUser */\n      tag_197\n      swap2\n      swap1\n      tag_137\n      jump\t// in\n    tag_197:\n        /* \"contracts/build_bounty/main_build/reward_elig.sol\":3250:3297  uint256 each_portion = POOL_AMOUNT / _totalUser */\n      swap1\n      pop\n        /* \"contracts/build_bounty/main_build/reward_elig.sol\":3315:3325  MOCK_BUILD */\n      immutable(\"0xed93c67e1a9b7f09d3b44ee593360f0073603a8e45415e2c3c69afc994a1103d\")\n        /* \"contracts/build_bounty/main_build/reward_elig.sol\":3308:3335  IERC20(MOCK_BUILD).transfer */\n      0xffffffffffffffffffffffffffffffffffffffff\n      and\n      0xa9059cbb\n        /* \"contracts/build_bounty/main_build/reward_elig.sol\":3336:3346  msg.sender */\n      caller\n        /* \"contracts/build_bounty/main_build/reward_elig.sol\":558:564  10**18 */\n      0x0de0b6b3a7640000\n        /* \"contracts/build_bounty/main_build/reward_elig.sol\":3348:3360  each_portion */\n      dup5\n        /* \"contracts/build_bounty/main_build/reward_elig.sol\":3348:3372  each_portion * magic_num */\n      tag_198\n      swap2\n      swap1\n      tag_139\n      jump\t// in\n    tag_198:\n        /* \"contracts/build_bounty/main_build/reward_elig.sol\":3308:3373  IERC20(MOCK_BUILD).transfer(msg.sender, each_portion * magic_num) */\n      mload(0x40)\n      dup4\n      0xffffffff\n      and\n      0xe0\n      shl\n      dup2\n      mstore\n      0x04\n      add\n      tag_199\n      swap3\n      swap2\n      swap1\n      tag_141\n      jump\t// in\n    tag_199:\n      0x20\n      mload(0x40)\n      dup1\n      dup4\n      sub\n      dup2\n      0x00\n      dup8\n      gas\n      call\n      iszero\n      dup1\n      iszero\n      tag_201\n      jumpi\n      returndatasize\n      0x00\n      dup1\n      returndatacopy\n      revert(0x00, returndatasize)\n    tag_201:\n      pop\n      pop\n      pop\n      pop\n      mload(0x40)\n      returndatasize\n      not(0x1f)\n      0x1f\n      dup3\n      add\n      and\n      dup3\n      add\n      dup1\n      0x40\n      mstore\n      pop\n      dup2\n      add\n      swap1\n      tag_202\n      swap2\n      swap1\n      tag_145\n      jump\t// in\n    tag_202:\n      pop\n        /* \"contracts/build_bounty/main_build/reward_elig.sol\":3410:3425  block.timestamp */\n      timestamp\n        /* \"contracts/build_bounty/main_build/reward_elig.sol\":3383:3395  EligibleUser */\n      0x00\n        /* \"contracts/build_bounty/main_build/reward_elig.sol\":3383:3407  EligibleUser[msg.sender] */\n      dup1\n        /* \"contracts/build_bounty/main_build/reward_elig.sol\":3396:3406  msg.sender */\n      caller\n        /* \"contracts/build_bounty/main_build/reward_elig.sol\":3383:3407  EligibleUser[msg.sender] */\n      0xffffffffffffffffffffffffffffffffffffffff\n      and\n      0xffffffffffffffffffffffffffffffffffffffff\n      and\n      dup2\n      mstore\n      0x20\n      add\n      swap1\n      dup2\n      mstore\n      0x20\n      add\n      0x00\n      keccak256\n        /* \"contracts/build_bounty/main_build/reward_elig.sol\":3383:3425  EligibleUser[msg.sender] = block.timestamp */\n      dup2\n      swap1\n      sstore\n      pop\n        /* \"contracts/build_bounty/main_build/reward_elig.sol\":3442:3450  uint16 i */\n      0x00\n        /* \"contracts/build_bounty/main_build/reward_elig.sol\":3437:3863  for( uint16 i; i <EligibleUserClaimWeek.length; i++){... */\n    tag_203:\n        /* \"contracts/build_bounty/main_build/reward_elig.sol\":3455:3476  EligibleUserClaimWeek */\n      0x01\n        /* \"contracts/build_bounty/main_build/reward_elig.sol\":3455:3483  EligibleUserClaimWeek.length */\n      dup1\n      sload\n      swap1\n      pop\n        /* \"contracts/build_bounty/main_build/reward_elig.sol\":3452:3453  i */\n      dup2\n        /* \"contracts/build_bounty/main_build/reward_elig.sol\":3452:3483  i <EligibleUserClaimWeek.length */\n      0xffff\n      and\n      lt\n        /* \"contracts/build_bounty/main_build/reward_elig.sol\":3437:3863  for( uint16 i; i <EligibleUserClaimWeek.length; i++){... */\n      iszero\n      tag_204\n      jumpi\n        /* \"contracts/build_bounty/main_build/reward_elig.sol\":3568:3578  msg.sender */\n      caller\n        /* \"contracts/build_bounty/main_build/reward_elig.sol\":3540:3578  EligibleUserClaimWeek[i] == msg.sender */\n      0xffffffffffffffffffffffffffffffffffffffff\n      and\n        /* \"contracts/build_bounty/main_build/reward_elig.sol\":3540:3561  EligibleUserClaimWeek */\n      0x01\n        /* \"contracts/build_bounty/main_build/reward_elig.sol\":3562:3563  i */\n      dup3\n        /* \"contracts/build_bounty/main_build/reward_elig.sol\":3540:3564  EligibleUserClaimWeek[i] */\n      0xffff\n      and\n      dup2\n      sload\n      dup2\n      lt\n      tag_206\n      jumpi\n      tag_207\n      tag_74\n      jump\t// in\n    tag_207:\n    tag_206:\n      swap1\n      0x00\n      mstore\n      keccak256(0x00, 0x20)\n      add\n      0x00\n      swap1\n      sload\n      swap1\n      0x0100\n      exp\n      swap1\n      div\n      0xffffffffffffffffffffffffffffffffffffffff\n      and\n        /* \"contracts/build_bounty/main_build/reward_elig.sol\":3540:3578  EligibleUserClaimWeek[i] == msg.sender */\n      0xffffffffffffffffffffffffffffffffffffffff\n      and\n      sub\n        /* \"contracts/build_bounty/main_build/reward_elig.sol\":3537:3853  if(EligibleUserClaimWeek[i] == msg.sender){... */\n      tag_209\n      jumpi\n        /* \"contracts/build_bounty/main_build/reward_elig.sol\":3604:3625  EligibleUserClaimWeek */\n      0x01\n      0x00\n        /* \"contracts/build_bounty/main_build/reward_elig.sol\":3597:3625  delete EligibleUserClaimWeek */\n      tag_210\n      swap2\n      swap1\n      tag_211\n      jump\t// in\n    tag_210:\n        /* \"contracts/build_bounty/main_build/reward_elig.sol\":3643:3664  EligibleUserClaimWeek */\n      0x01\n        /* \"contracts/build_bounty/main_build/reward_elig.sol\":3670:3680  msg.sender */\n      caller\n        /* \"contracts/build_bounty/main_build/reward_elig.sol\":3643:3681  EligibleUserClaimWeek.push(msg.sender) */\n      swap1\n      dup1\n      0x01\n      dup2\n      sload\n      add\n      dup1\n      dup3\n      sstore\n      dup1\n      swap2\n      pop\n      pop\n      0x01\n      swap1\n      sub\n      swap1\n      0x00\n      mstore\n      keccak256(0x00, 0x20)\n      add\n      0x00\n      swap1\n      swap2\n      swap1\n      swap2\n      swap1\n      swap2\n      0x0100\n      exp\n      dup2\n      sload\n      dup2\n      0xffffffffffffffffffffffffffffffffffffffff\n      mul\n      not\n      and\n      swap1\n      dup4\n      0xffffffffffffffffffffffffffffffffffffffff\n      and\n      mul\n      or\n      swap1\n      sstore\n      pop\n        /* \"contracts/build_bounty/main_build/reward_elig.sol\":3704:3748  TotalUserClaim(EligibleUserClaimWeek.length) */\n      0x3dd8b3a7a629abb0ccd684dc47a495666a60e4bd8f7614aeed87088dfe7cede6\n        /* \"contracts/build_bounty/main_build/reward_elig.sol\":3719:3740  EligibleUserClaimWeek */\n      0x01\n        /* \"contracts/build_bounty/main_build/reward_elig.sol\":3719:3747  EligibleUserClaimWeek.length */\n      dup1\n      sload\n      swap1\n      pop\n        /* \"contracts/build_bounty/main_build/reward_elig.sol\":3704:3748  TotalUserClaim(EligibleUserClaimWeek.length) */\n      mload(0x40)\n      tag_213\n      swap2\n      swap1\n      tag_21\n      jump\t// in\n    tag_213:\n      mload(0x40)\n      dup1\n      swap2\n      sub\n      swap1\n      log1\n        /* \"contracts/build_bounty/main_build/reward_elig.sol\":3771:3812  ClaimRewardUser(msg.sender, each_portion) */\n      0x60237eb95a34e0af997fdc10ea4eb2c64fec8d49df3996e657f28b28ad8a0ad9\n        /* \"contracts/build_bounty/main_build/reward_elig.sol\":3787:3797  msg.sender */\n      caller\n        /* \"contracts/build_bounty/main_build/reward_elig.sol\":3799:3811  each_portion */\n      dup4\n        /* \"contracts/build_bounty/main_build/reward_elig.sol\":3771:3812  ClaimRewardUser(msg.sender, each_portion) */\n      mload(0x40)\n      tag_214\n      swap3\n      swap2\n      swap1\n      tag_141\n      jump\t// in\n    tag_214:\n      mload(0x40)\n      dup1\n      swap2\n      sub\n      swap1\n      log1\n        /* \"contracts/build_bounty/main_build/reward_elig.sol\":3837:3838  0 */\n      0x00\n        /* \"contracts/build_bounty/main_build/reward_elig.sol\":3830:3838  return 0 */\n      swap5\n      pop\n      pop\n      pop\n      pop\n      pop\n      jump(tag_180)\n        /* \"contracts/build_bounty/main_build/reward_elig.sol\":3537:3853  if(EligibleUserClaimWeek[i] == msg.sender){... */\n    tag_209:\n        /* \"contracts/build_bounty/main_build/reward_elig.sol\":3485:3488  i++ */\n      dup1\n      dup1\n      tag_215\n      swap1\n      tag_91\n      jump\t// in\n    tag_215:\n      swap2\n      pop\n      pop\n        /* \"contracts/build_bounty/main_build/reward_elig.sol\":3437:3863  for( uint16 i; i <EligibleUserClaimWeek.length; i++){... */\n      jump(tag_203)\n    tag_204:\n      pop\n        /* \"contracts/build_bounty/main_build/reward_elig.sol\":3878:3922  TotalUserClaim(EligibleUserClaimWeek.length) */\n      0x3dd8b3a7a629abb0ccd684dc47a495666a60e4bd8f7614aeed87088dfe7cede6\n        /* \"contracts/build_bounty/main_build/reward_elig.sol\":3893:3914  EligibleUserClaimWeek */\n      0x01\n        /* \"contracts/build_bounty/main_build/reward_elig.sol\":3893:3921  EligibleUserClaimWeek.length */\n      dup1\n      sload\n      swap1\n      pop\n        /* \"contracts/build_bounty/main_build/reward_elig.sol\":3878:3922  TotalUserClaim(EligibleUserClaimWeek.length) */\n      mload(0x40)\n      tag_216\n      swap2\n      swap1\n      tag_21\n      jump\t// in\n    tag_216:\n      mload(0x40)\n      dup1\n      swap2\n      sub\n      swap1\n      log1\n        /* \"contracts/build_bounty/main_build/reward_elig.sol\":3937:3978  ClaimRewardUser(msg.sender, each_portion) */\n      0x60237eb95a34e0af997fdc10ea4eb2c64fec8d49df3996e657f28b28ad8a0ad9\n        /* \"contracts/build_bounty/main_build/reward_elig.sol\":3953:3963  msg.sender */\n      caller\n        /* \"contracts/build_bounty/main_build/reward_elig.sol\":3965:3977  each_portion */\n      dup3\n        /* \"contracts/build_bounty/main_build/reward_elig.sol\":3937:3978  ClaimRewardUser(msg.sender, each_portion) */\n      mload(0x40)\n      tag_217\n      swap3\n      swap2\n      swap1\n      tag_141\n      jump\t// in\n    tag_217:\n      mload(0x40)\n      dup1\n      swap2\n      sub\n      swap1\n      log1\n        /* \"contracts/build_bounty/main_build/reward_elig.sol\":3988:4009  EligibleUserClaimWeek */\n      0x01\n        /* \"contracts/build_bounty/main_build/reward_elig.sol\":4015:4025  msg.sender */\n      caller\n        /* \"contracts/build_bounty/main_build/reward_elig.sol\":3988:4026  EligibleUserClaimWeek.push(msg.sender) */\n      swap1\n      dup1\n      0x01\n      dup2\n      sload\n      add\n      dup1\n      dup3\n      sstore\n      dup1\n      swap2\n      pop\n      pop\n      0x01\n      swap1\n      sub\n      swap1\n      0x00\n      mstore\n      keccak256(0x00, 0x20)\n      add\n      0x00\n      swap1\n      swap2\n      swap1\n      swap2\n      swap1\n      swap2\n      0x0100\n      exp\n      dup2\n      sload\n      dup2\n      0xffffffffffffffffffffffffffffffffffffffff\n      mul\n      not\n      and\n      swap1\n      dup4\n      0xffffffffffffffffffffffffffffffffffffffff\n      and\n      mul\n      or\n      swap1\n      sstore\n      pop\n        /* \"contracts/build_bounty/main_build/reward_elig.sol\":4043:4044  0 */\n      0x00\n        /* \"contracts/build_bounty/main_build/reward_elig.sol\":4036:4044  return 0 */\n      swap4\n      pop\n      pop\n      pop\n      pop\n        /* \"contracts/build_bounty/main_build/reward_elig.sol\":2397:4051  function test5minsClaim() external returns (uint256) {... */\n    tag_180:\n      swap1\n      jump\t// out\n        /* \"contracts/build_bounty/main_build/reward_elig.sol\":5808:5926  function TotalAddressAWeek() external view returns(address[] memory){... */\n    tag_58:\n        /* \"contracts/build_bounty/main_build/reward_elig.sol\":5859:5875  address[] memory */\n      0x60\n        /* \"contracts/build_bounty/main_build/reward_elig.sol\":5893:5914  EligibleUserClaimWeek */\n      0x01\n        /* \"contracts/build_bounty/main_build/reward_elig.sol\":5886:5914  return EligibleUserClaimWeek */\n      dup1\n      sload\n      dup1\n      0x20\n      mul\n      0x20\n      add\n      mload(0x40)\n      swap1\n      dup2\n      add\n      0x40\n      mstore\n      dup1\n      swap3\n      swap2\n      swap1\n      dup2\n      dup2\n      mstore\n      0x20\n      add\n      dup3\n      dup1\n      sload\n      dup1\n      iszero\n      tag_220\n      jumpi\n      0x20\n      mul\n      dup3\n      add\n      swap2\n      swap1\n      0x00\n      mstore\n      keccak256(0x00, 0x20)\n      swap1\n    tag_221:\n      dup2\n      0x00\n      swap1\n      sload\n      swap1\n      0x0100\n      exp\n      swap1\n      div\n      0xffffffffffffffffffffffffffffffffffffffff\n      and\n      0xffffffffffffffffffffffffffffffffffffffff\n      and\n      dup2\n      mstore\n      0x20\n      add\n      swap1\n      0x01\n      add\n      swap1\n      dup1\n      dup4\n      gt\n      tag_221\n      jumpi\n    tag_220:\n      pop\n      pop\n      pop\n      pop\n      pop\n      swap1\n      pop\n        /* \"contracts/build_bounty/main_build/reward_elig.sol\":5808:5926  function TotalAddressAWeek() external view returns(address[] memory){... */\n      swap1\n      jump\t// out\n        /* \"contracts/build_bounty/main_build/reward_elig.sol\":6220:6362  function ReadOnlyBalance4Dev() external view returns (uint256) {... */\n    tag_61:\n        /* \"contracts/build_bounty/main_build/reward_elig.sol\":6274:6281  uint256 */\n      0x00\n        /* \"contracts/build_bounty/main_build/reward_elig.sol\":558:564  10**18 */\n      0x0de0b6b3a7640000\n        /* \"contracts/build_bounty/main_build/reward_elig.sol\":6307:6317  MOCK_BUILD */\n      immutable(\"0xed93c67e1a9b7f09d3b44ee593360f0073603a8e45415e2c3c69afc994a1103d\")\n        /* \"contracts/build_bounty/main_build/reward_elig.sol\":6300:6328  IERC20(MOCK_BUILD).balanceOf */\n      0xffffffffffffffffffffffffffffffffffffffff\n      and\n      0x70a08231\n        /* \"contracts/build_bounty/main_build/reward_elig.sol\":6337:6341  this */\n      address\n        /* \"contracts/build_bounty/main_build/reward_elig.sol\":6300:6343  IERC20(MOCK_BUILD).balanceOf(address(this)) */\n      mload(0x40)\n      dup3\n      0xffffffff\n      and\n      0xe0\n      shl\n      dup2\n      mstore\n      0x04\n      add\n      tag_223\n      swap2\n      swap1\n      tag_25\n      jump\t// in\n    tag_223:\n      0x20\n      mload(0x40)\n      dup1\n      dup4\n      sub\n      dup2\n      dup7\n      gas\n      staticcall\n      iszero\n      dup1\n      iszero\n      tag_225\n      jumpi\n      returndatasize\n      0x00\n      dup1\n      returndatacopy\n      revert(0x00, returndatasize)\n    tag_225:\n      pop\n      pop\n      pop\n      pop\n      mload(0x40)\n      returndatasize\n      not(0x1f)\n      0x1f\n      dup3\n      add\n      and\n      dup3\n      add\n      dup1\n      0x40\n      mstore\n      pop\n      dup2\n      add\n      swap1\n      tag_226\n      swap2\n      swap1\n      tag_122\n      jump\t// in\n    tag_226:\n        /* \"contracts/build_bounty/main_build/reward_elig.sol\":6300:6355  IERC20(MOCK_BUILD).balanceOf(address(this)) / magic_num */\n      tag_227\n      swap2\n      swap1\n      tag_137\n      jump\t// in\n    tag_227:\n        /* \"contracts/build_bounty/main_build/reward_elig.sol\":6293:6355  return IERC20(MOCK_BUILD).balanceOf(address(this)) / magic_num */\n      swap1\n      pop\n        /* \"contracts/build_bounty/main_build/reward_elig.sol\":6220:6362  function ReadOnlyBalance4Dev() external view returns (uint256) {... */\n      swap1\n      jump\t// out\n        /* \"contracts/build_bounty/main_build/reward_elig.sol\":5610:5691  function ResetTotalClaim() internal {... */\n    tag_102:\n        /* \"contracts/build_bounty/main_build/reward_elig.sol\":5663:5684  EligibleUserClaimWeek */\n      0x01\n      0x00\n        /* \"contracts/build_bounty/main_build/reward_elig.sol\":5656:5684  delete EligibleUserClaimWeek */\n      tag_229\n      swap2\n      swap1\n      tag_211\n      jump\t// in\n    tag_229:\n        /* \"contracts/build_bounty/main_build/reward_elig.sol\":5610:5691  function ResetTotalClaim() internal {... */\n      jump\t// out\n    tag_211:\n      pop\n      dup1\n      sload\n      0x00\n      dup3\n      sstore\n      swap1\n      0x00\n      mstore\n      keccak256(0x00, 0x20)\n      swap1\n      dup2\n      add\n      swap1\n      tag_231\n      swap2\n      swap1\n      tag_232\n      jump\t// in\n    tag_231:\n      pop\n      jump\t// out\n    tag_232:\n    tag_233:\n      dup1\n      dup3\n      gt\n      iszero\n      tag_234\n      jumpi\n      0x00\n      dup2\n      0x00\n      swap1\n      sstore\n      pop\n      0x01\n      add\n      jump(tag_233)\n    tag_234:\n      pop\n      swap1\n      jump\t// out\n        /* \"#utility.yul\":7:84   */\n    tag_235:\n        /* \"#utility.yul\":44:51   */\n      0x00\n        /* \"#utility.yul\":73:78   */\n      dup2\n        /* \"#utility.yul\":62:78   */\n      swap1\n      pop\n        /* \"#utility.yul\":7:84   */\n      swap2\n      swap1\n      pop\n      jump\t// out\n        /* \"#utility.yul\":90:208   */\n    tag_236:\n        /* \"#utility.yul\":177:201   */\n      tag_283\n        /* \"#utility.yul\":195:200   */\n      dup2\n        /* \"#utility.yul\":177:201   */\n      tag_235\n      jump\t// in\n    tag_283:\n        /* \"#utility.yul\":172:175   */\n      dup3\n        /* \"#utility.yul\":165:202   */\n      mstore\n        /* \"#utility.yul\":90:208   */\n      pop\n      pop\n      jump\t// out\n        /* \"#utility.yul\":214:436   */\n    tag_21:\n        /* \"#utility.yul\":307:311   */\n      0x00\n        /* \"#utility.yul\":345:347   */\n      0x20\n        /* \"#utility.yul\":334:343   */\n      dup3\n        /* \"#utility.yul\":330:348   */\n      add\n        /* \"#utility.yul\":322:348   */\n      swap1\n      pop\n        /* \"#utility.yul\":358:429   */\n      tag_285\n        /* \"#utility.yul\":426:427   */\n      0x00\n        /* \"#utility.yul\":415:424   */\n      dup4\n        /* \"#utility.yul\":411:428   */\n      add\n        /* \"#utility.yul\":402:408   */\n      dup5\n        /* \"#utility.yul\":358:429   */\n      tag_236\n      jump\t// in\n    tag_285:\n        /* \"#utility.yul\":214:436   */\n      swap3\n      swap2\n      pop\n      pop\n      jump\t// out\n        /* \"#utility.yul\":442:568   */\n    tag_237:\n        /* \"#utility.yul\":479:486   */\n      0x00\n        /* \"#utility.yul\":519:561   */\n      0xffffffffffffffffffffffffffffffffffffffff\n        /* \"#utility.yul\":512:517   */\n      dup3\n        /* \"#utility.yul\":508:562   */\n      and\n        /* \"#utility.yul\":497:562   */\n      swap1\n      pop\n        /* \"#utility.yul\":442:568   */\n      swap2\n      swap1\n      pop\n      jump\t// out\n        /* \"#utility.yul\":574:670   */\n    tag_238:\n        /* \"#utility.yul\":611:618   */\n      0x00\n        /* \"#utility.yul\":640:664   */\n      tag_288\n        /* \"#utility.yul\":658:663   */\n      dup3\n        /* \"#utility.yul\":640:664   */\n      tag_237\n      jump\t// in\n    tag_288:\n        /* \"#utility.yul\":629:664   */\n      swap1\n      pop\n        /* \"#utility.yul\":574:670   */\n      swap2\n      swap1\n      pop\n      jump\t// out\n        /* \"#utility.yul\":676:794   */\n    tag_239:\n        /* \"#utility.yul\":763:787   */\n      tag_290\n        /* \"#utility.yul\":781:786   */\n      dup2\n        /* \"#utility.yul\":763:787   */\n      tag_238\n      jump\t// in\n    tag_290:\n        /* \"#utility.yul\":758:761   */\n      dup3\n        /* \"#utility.yul\":751:788   */\n      mstore\n        /* \"#utility.yul\":676:794   */\n      pop\n      pop\n      jump\t// out\n        /* \"#utility.yul\":800:1022   */\n    tag_25:\n        /* \"#utility.yul\":893:897   */\n      0x00\n        /* \"#utility.yul\":931:933   */\n      0x20\n        /* \"#utility.yul\":920:929   */\n      dup3\n        /* \"#utility.yul\":916:934   */\n      add\n        /* \"#utility.yul\":908:934   */\n      swap1\n      pop\n        /* \"#utility.yul\":944:1015   */\n      tag_292\n        /* \"#utility.yul\":1012:1013   */\n      0x00\n        /* \"#utility.yul\":1001:1010   */\n      dup4\n        /* \"#utility.yul\":997:1014   */\n      add\n        /* \"#utility.yul\":988:994   */\n      dup5\n        /* \"#utility.yul\":944:1015   */\n      tag_239\n      jump\t// in\n    tag_292:\n        /* \"#utility.yul\":800:1022   */\n      swap3\n      swap2\n      pop\n      pop\n      jump\t// out\n        /* \"#utility.yul\":1028:1103   */\n    tag_240:\n        /* \"#utility.yul\":1061:1067   */\n      0x00\n        /* \"#utility.yul\":1094:1096   */\n      0x40\n        /* \"#utility.yul\":1088:1097   */\n      mload\n        /* \"#utility.yul\":1078:1097   */\n      swap1\n      pop\n        /* \"#utility.yul\":1028:1103   */\n      swap1\n      jump\t// out\n        /* \"#utility.yul\":1109:1226   */\n    tag_241:\n        /* \"#utility.yul\":1218:1219   */\n      0x00\n        /* \"#utility.yul\":1215:1216   */\n      dup1\n        /* \"#utility.yul\":1208:1220   */\n      revert\n        /* \"#utility.yul\":1232:1349   */\n    tag_242:\n        /* \"#utility.yul\":1341:1342   */\n      0x00\n        /* \"#utility.yul\":1338:1339   */\n      dup1\n        /* \"#utility.yul\":1331:1343   */\n      revert\n        /* \"#utility.yul\":1355:1477   */\n    tag_243:\n        /* \"#utility.yul\":1428:1452   */\n      tag_297\n        /* \"#utility.yul\":1446:1451   */\n      dup2\n        /* \"#utility.yul\":1428:1452   */\n      tag_238\n      jump\t// in\n    tag_297:\n        /* \"#utility.yul\":1421:1426   */\n      dup2\n        /* \"#utility.yul\":1418:1453   */\n      eq\n        /* \"#utility.yul\":1408:1471   */\n      tag_298\n      jumpi\n        /* \"#utility.yul\":1467:1468   */\n      0x00\n        /* \"#utility.yul\":1464:1465   */\n      dup1\n        /* \"#utility.yul\":1457:1469   */\n      revert\n        /* \"#utility.yul\":1408:1471   */\n    tag_298:\n        /* \"#utility.yul\":1355:1477   */\n      pop\n      jump\t// out\n        /* \"#utility.yul\":1483:1622   */\n    tag_244:\n        /* \"#utility.yul\":1529:1534   */\n      0x00\n        /* \"#utility.yul\":1567:1573   */\n      dup2\n        /* \"#utility.yul\":1554:1574   */\n      calldataload\n        /* \"#utility.yul\":1545:1574   */\n      swap1\n      pop\n        /* \"#utility.yul\":1583:1616   */\n      tag_300\n        /* \"#utility.yul\":1610:1615   */\n      dup2\n        /* \"#utility.yul\":1583:1616   */\n      tag_243\n      jump\t// in\n    tag_300:\n        /* \"#utility.yul\":1483:1622   */\n      swap3\n      swap2\n      pop\n      pop\n      jump\t// out\n        /* \"#utility.yul\":1628:1957   */\n    tag_28:\n        /* \"#utility.yul\":1687:1693   */\n      0x00\n        /* \"#utility.yul\":1736:1738   */\n      0x20\n        /* \"#utility.yul\":1724:1733   */\n      dup3\n        /* \"#utility.yul\":1715:1722   */\n      dup5\n        /* \"#utility.yul\":1711:1734   */\n      sub\n        /* \"#utility.yul\":1707:1739   */\n      slt\n        /* \"#utility.yul\":1704:1823   */\n      iszero\n      tag_302\n      jumpi\n        /* \"#utility.yul\":1742:1821   */\n      tag_303\n      tag_241\n      jump\t// in\n    tag_303:\n        /* \"#utility.yul\":1704:1823   */\n    tag_302:\n        /* \"#utility.yul\":1862:1863   */\n      0x00\n        /* \"#utility.yul\":1887:1940   */\n      tag_304\n        /* \"#utility.yul\":1932:1939   */\n      dup5\n        /* \"#utility.yul\":1923:1929   */\n      dup3\n        /* \"#utility.yul\":1912:1921   */\n      dup6\n        /* \"#utility.yul\":1908:1930   */\n      add\n        /* \"#utility.yul\":1887:1940   */\n      tag_244\n      jump\t// in\n    tag_304:\n        /* \"#utility.yul\":1877:1940   */\n      swap2\n      pop\n        /* \"#utility.yul\":1833:1950   */\n      pop\n        /* \"#utility.yul\":1628:1957   */\n      swap3\n      swap2\n      pop\n      pop\n      jump\t// out\n        /* \"#utility.yul\":1963:2077   */\n    tag_245:\n        /* \"#utility.yul\":2030:2036   */\n      0x00\n        /* \"#utility.yul\":2064:2069   */\n      dup2\n        /* \"#utility.yul\":2058:2070   */\n      mload\n        /* \"#utility.yul\":2048:2070   */\n      swap1\n      pop\n        /* \"#utility.yul\":1963:2077   */\n      swap2\n      swap1\n      pop\n      jump\t// out\n        /* \"#utility.yul\":2083:2267   */\n    tag_246:\n        /* \"#utility.yul\":2182:2193   */\n      0x00\n        /* \"#utility.yul\":2216:2222   */\n      dup3\n        /* \"#utility.yul\":2211:2214   */\n      dup3\n        /* \"#utility.yul\":2204:2223   */\n      mstore\n        /* \"#utility.yul\":2256:2260   */\n      0x20\n        /* \"#utility.yul\":2251:2254   */\n      dup3\n        /* \"#utility.yul\":2247:2261   */\n      add\n        /* \"#utility.yul\":2232:2261   */\n      swap1\n      pop\n        /* \"#utility.yul\":2083:2267   */\n      swap3\n      swap2\n      pop\n      pop\n      jump\t// out\n        /* \"#utility.yul\":2273:2405   */\n    tag_247:\n        /* \"#utility.yul\":2340:2344   */\n      0x00\n        /* \"#utility.yul\":2363:2366   */\n      dup2\n        /* \"#utility.yul\":2355:2366   */\n      swap1\n      pop\n        /* \"#utility.yul\":2393:2397   */\n      0x20\n        /* \"#utility.yul\":2388:2391   */\n      dup3\n        /* \"#utility.yul\":2384:2398   */\n      add\n        /* \"#utility.yul\":2376:2398   */\n      swap1\n      pop\n        /* \"#utility.yul\":2273:2405   */\n      swap2\n      swap1\n      pop\n      jump\t// out\n        /* \"#utility.yul\":2411:2519   */\n    tag_248:\n        /* \"#utility.yul\":2488:2512   */\n      tag_309\n        /* \"#utility.yul\":2506:2511   */\n      dup2\n        /* \"#utility.yul\":2488:2512   */\n      tag_238\n      jump\t// in\n    tag_309:\n        /* \"#utility.yul\":2483:2486   */\n      dup3\n        /* \"#utility.yul\":2476:2513   */\n      mstore\n        /* \"#utility.yul\":2411:2519   */\n      pop\n      pop\n      jump\t// out\n        /* \"#utility.yul\":2525:2704   */\n    tag_249:\n        /* \"#utility.yul\":2594:2604   */\n      0x00\n        /* \"#utility.yul\":2615:2661   */\n      tag_311\n        /* \"#utility.yul\":2657:2660   */\n      dup4\n        /* \"#utility.yul\":2649:2655   */\n      dup4\n        /* \"#utility.yul\":2615:2661   */\n      tag_248\n      jump\t// in\n    tag_311:\n        /* \"#utility.yul\":2693:2697   */\n      0x20\n        /* \"#utility.yul\":2688:2691   */\n      dup4\n        /* \"#utility.yul\":2684:2698   */\n      add\n        /* \"#utility.yul\":2670:2698   */\n      swap1\n      pop\n        /* \"#utility.yul\":2525:2704   */\n      swap3\n      swap2\n      pop\n      pop\n      jump\t// out\n        /* \"#utility.yul\":2710:2823   */\n    tag_250:\n        /* \"#utility.yul\":2780:2784   */\n      0x00\n        /* \"#utility.yul\":2812:2816   */\n      0x20\n        /* \"#utility.yul\":2807:2810   */\n      dup3\n        /* \"#utility.yul\":2803:2817   */\n      add\n        /* \"#utility.yul\":2795:2817   */\n      swap1\n      pop\n        /* \"#utility.yul\":2710:2823   */\n      swap2\n      swap1\n      pop\n      jump\t// out\n        /* \"#utility.yul\":2859:3591   */\n    tag_251:\n        /* \"#utility.yul\":2978:2981   */\n      0x00\n        /* \"#utility.yul\":3007:3061   */\n      tag_314\n        /* \"#utility.yul\":3055:3060   */\n      dup3\n        /* \"#utility.yul\":3007:3061   */\n      tag_245\n      jump\t// in\n    tag_314:\n        /* \"#utility.yul\":3077:3163   */\n      tag_315\n        /* \"#utility.yul\":3156:3162   */\n      dup2\n        /* \"#utility.yul\":3151:3154   */\n      dup6\n        /* \"#utility.yul\":3077:3163   */\n      tag_246\n      jump\t// in\n    tag_315:\n        /* \"#utility.yul\":3070:3163   */\n      swap4\n      pop\n        /* \"#utility.yul\":3187:3243   */\n      tag_316\n        /* \"#utility.yul\":3237:3242   */\n      dup4\n        /* \"#utility.yul\":3187:3243   */\n      tag_247\n      jump\t// in\n    tag_316:\n        /* \"#utility.yul\":3266:3273   */\n      dup1\n        /* \"#utility.yul\":3297:3298   */\n      0x00\n        /* \"#utility.yul\":3282:3566   */\n    tag_317:\n        /* \"#utility.yul\":3307:3313   */\n      dup4\n        /* \"#utility.yul\":3304:3305   */\n      dup2\n        /* \"#utility.yul\":3301:3314   */\n      lt\n        /* \"#utility.yul\":3282:3566   */\n      iszero\n      tag_319\n      jumpi\n        /* \"#utility.yul\":3383:3389   */\n      dup2\n        /* \"#utility.yul\":3377:3390   */\n      mload\n        /* \"#utility.yul\":3410:3473   */\n      tag_320\n        /* \"#utility.yul\":3469:3472   */\n      dup9\n        /* \"#utility.yul\":3454:3467   */\n      dup3\n        /* \"#utility.yul\":3410:3473   */\n      tag_249\n      jump\t// in\n    tag_320:\n        /* \"#utility.yul\":3403:3473   */\n      swap8\n      pop\n        /* \"#utility.yul\":3496:3556   */\n      tag_321\n        /* \"#utility.yul\":3549:3555   */\n      dup4\n        /* \"#utility.yul\":3496:3556   */\n      tag_250\n      jump\t// in\n    tag_321:\n        /* \"#utility.yul\":3486:3556   */\n      swap3\n      pop\n        /* \"#utility.yul\":3342:3566   */\n      pop\n        /* \"#utility.yul\":3329:3330   */\n      0x01\n        /* \"#utility.yul\":3326:3327   */\n      dup2\n        /* \"#utility.yul\":3322:3331   */\n      add\n        /* \"#utility.yul\":3317:3331   */\n      swap1\n      pop\n        /* \"#utility.yul\":3282:3566   */\n      jump(tag_317)\n    tag_319:\n        /* \"#utility.yul\":3286:3300   */\n      pop\n        /* \"#utility.yul\":3582:3585   */\n      dup6\n        /* \"#utility.yul\":3575:3585   */\n      swap4\n      pop\n        /* \"#utility.yul\":2983:3591   */\n      pop\n      pop\n      pop\n        /* \"#utility.yul\":2859:3591   */\n      swap3\n      swap2\n      pop\n      pop\n      jump\t// out\n        /* \"#utility.yul\":3597:3970   */\n    tag_39:\n        /* \"#utility.yul\":3740:3744   */\n      0x00\n        /* \"#utility.yul\":3778:3780   */\n      0x20\n        /* \"#utility.yul\":3767:3776   */\n      dup3\n        /* \"#utility.yul\":3763:3781   */\n      add\n        /* \"#utility.yul\":3755:3781   */\n      swap1\n      pop\n        /* \"#utility.yul\":3827:3836   */\n      dup2\n        /* \"#utility.yul\":3821:3825   */\n      dup2\n        /* \"#utility.yul\":3817:3837   */\n      sub\n        /* \"#utility.yul\":3813:3814   */\n      0x00\n        /* \"#utility.yul\":3802:3811   */\n      dup4\n        /* \"#utility.yul\":3798:3815   */\n      add\n        /* \"#utility.yul\":3791:3838   */\n      mstore\n        /* \"#utility.yul\":3855:3963   */\n      tag_323\n        /* \"#utility.yul\":3958:3962   */\n      dup2\n        /* \"#utility.yul\":3949:3955   */\n      dup5\n        /* \"#utility.yul\":3855:3963   */\n      tag_251\n      jump\t// in\n    tag_323:\n        /* \"#utility.yul\":3847:3963   */\n      swap1\n      pop\n        /* \"#utility.yul\":3597:3970   */\n      swap3\n      swap2\n      pop\n      pop\n      jump\t// out\n        /* \"#utility.yul\":3976:4093   */\n    tag_252:\n        /* \"#utility.yul\":4085:4086   */\n      0x00\n        /* \"#utility.yul\":4082:4083   */\n      dup1\n        /* \"#utility.yul\":4075:4087   */\n      revert\n        /* \"#utility.yul\":4099:4201   */\n    tag_253:\n        /* \"#utility.yul\":4140:4146   */\n      0x00\n        /* \"#utility.yul\":4191:4193   */\n      0x1f\n        /* \"#utility.yul\":4187:4194   */\n      not\n        /* \"#utility.yul\":4182:4184   */\n      0x1f\n        /* \"#utility.yul\":4175:4180   */\n      dup4\n        /* \"#utility.yul\":4171:4185   */\n      add\n        /* \"#utility.yul\":4167:4195   */\n      and\n        /* \"#utility.yul\":4157:4195   */\n      swap1\n      pop\n        /* \"#utility.yul\":4099:4201   */\n      swap2\n      swap1\n      pop\n      jump\t// out\n        /* \"#utility.yul\":4207:4387   */\n    tag_254:\n        /* \"#utility.yul\":4255:4332   */\n      0x4e487b7100000000000000000000000000000000000000000000000000000000\n        /* \"#utility.yul\":4252:4253   */\n      0x00\n        /* \"#utility.yul\":4245:4333   */\n      mstore\n        /* \"#utility.yul\":4352:4356   */\n      0x41\n        /* \"#utility.yul\":4349:4350   */\n      0x04\n        /* \"#utility.yul\":4342:4357   */\n      mstore\n        /* \"#utility.yul\":4376:4380   */\n      0x24\n        /* \"#utility.yul\":4373:4374   */\n      0x00\n        /* \"#utility.yul\":4366:4381   */\n      revert\n        /* \"#utility.yul\":4393:4674   */\n    tag_255:\n        /* \"#utility.yul\":4476:4503   */\n      tag_328\n        /* \"#utility.yul\":4498:4502   */\n      dup3\n        /* \"#utility.yul\":4476:4503   */\n      tag_253\n      jump\t// in\n    tag_328:\n        /* \"#utility.yul\":4468:4474   */\n      dup2\n        /* \"#utility.yul\":4464:4504   */\n      add\n        /* \"#utility.yul\":4606:4612   */\n      dup2\n        /* \"#utility.yul\":4594:4604   */\n      dup2\n        /* \"#utility.yul\":4591:4613   */\n      lt\n        /* \"#utility.yul\":4570:4588   */\n      0xffffffffffffffff\n        /* \"#utility.yul\":4558:4568   */\n      dup3\n        /* \"#utility.yul\":4555:4589   */\n      gt\n        /* \"#utility.yul\":4552:4614   */\n      or\n        /* \"#utility.yul\":4549:4637   */\n      iszero\n      tag_329\n      jumpi\n        /* \"#utility.yul\":4617:4635   */\n      tag_330\n      tag_254\n      jump\t// in\n    tag_330:\n        /* \"#utility.yul\":4549:4637   */\n    tag_329:\n        /* \"#utility.yul\":4657:4667   */\n      dup1\n        /* \"#utility.yul\":4653:4655   */\n      0x40\n        /* \"#utility.yul\":4646:4668   */\n      mstore\n        /* \"#utility.yul\":4436:4674   */\n      pop\n        /* \"#utility.yul\":4393:4674   */\n      pop\n      pop\n      jump\t// out\n        /* \"#utility.yul\":4680:4809   */\n    tag_256:\n        /* \"#utility.yul\":4714:4720   */\n      0x00\n        /* \"#utility.yul\":4741:4761   */\n      tag_332\n      tag_240\n      jump\t// in\n    tag_332:\n        /* \"#utility.yul\":4731:4761   */\n      swap1\n      pop\n        /* \"#utility.yul\":4770:4803   */\n      tag_333\n        /* \"#utility.yul\":4798:4802   */\n      dup3\n        /* \"#utility.yul\":4790:4796   */\n      dup3\n        /* \"#utility.yul\":4770:4803   */\n      tag_255\n      jump\t// in\n    tag_333:\n        /* \"#utility.yul\":4680:4809   */\n      swap2\n      swap1\n      pop\n      jump\t// out\n        /* \"#utility.yul\":4815:5126   */\n    tag_257:\n        /* \"#utility.yul\":4892:4896   */\n      0x00\n        /* \"#utility.yul\":4982:5000   */\n      0xffffffffffffffff\n        /* \"#utility.yul\":4974:4980   */\n      dup3\n        /* \"#utility.yul\":4971:5001   */\n      gt\n        /* \"#utility.yul\":4968:5024   */\n      iszero\n      tag_335\n      jumpi\n        /* \"#utility.yul\":5004:5022   */\n      tag_336\n      tag_254\n      jump\t// in\n    tag_336:\n        /* \"#utility.yul\":4968:5024   */\n    tag_335:\n        /* \"#utility.yul\":5054:5058   */\n      0x20\n        /* \"#utility.yul\":5046:5052   */\n      dup3\n        /* \"#utility.yul\":5042:5059   */\n      mul\n        /* \"#utility.yul\":5034:5059   */\n      swap1\n      pop\n        /* \"#utility.yul\":5114:5118   */\n      0x20\n        /* \"#utility.yul\":5108:5112   */\n      dup2\n        /* \"#utility.yul\":5104:5119   */\n      add\n        /* \"#utility.yul\":5096:5119   */\n      swap1\n      pop\n        /* \"#utility.yul\":4815:5126   */\n      swap2\n      swap1\n      pop\n      jump\t// out\n        /* \"#utility.yul\":5132:5249   */\n    tag_258:\n        /* \"#utility.yul\":5241:5242   */\n      0x00\n        /* \"#utility.yul\":5238:5239   */\n      dup1\n        /* \"#utility.yul\":5231:5243   */\n      revert\n        /* \"#utility.yul\":5272:5982   */\n    tag_259:\n        /* \"#utility.yul\":5368:5373   */\n      0x00\n        /* \"#utility.yul\":5393:5474   */\n      tag_339\n        /* \"#utility.yul\":5409:5473   */\n      tag_340\n        /* \"#utility.yul\":5466:5472   */\n      dup5\n        /* \"#utility.yul\":5409:5473   */\n      tag_257\n      jump\t// in\n    tag_340:\n        /* \"#utility.yul\":5393:5474   */\n      tag_256\n      jump\t// in\n    tag_339:\n        /* \"#utility.yul\":5384:5474   */\n      swap1\n      pop\n        /* \"#utility.yul\":5494:5499   */\n      dup1\n        /* \"#utility.yul\":5523:5529   */\n      dup4\n        /* \"#utility.yul\":5516:5521   */\n      dup3\n        /* \"#utility.yul\":5509:5530   */\n      mstore\n        /* \"#utility.yul\":5557:5561   */\n      0x20\n        /* \"#utility.yul\":5550:5555   */\n      dup3\n        /* \"#utility.yul\":5546:5562   */\n      add\n        /* \"#utility.yul\":5539:5562   */\n      swap1\n      pop\n        /* \"#utility.yul\":5610:5614   */\n      0x20\n        /* \"#utility.yul\":5602:5608   */\n      dup5\n        /* \"#utility.yul\":5598:5615   */\n      mul\n        /* \"#utility.yul\":5590:5596   */\n      dup4\n        /* \"#utility.yul\":5586:5616   */\n      add\n        /* \"#utility.yul\":5639:5642   */\n      dup6\n        /* \"#utility.yul\":5631:5637   */\n      dup2\n        /* \"#utility.yul\":5628:5643   */\n      gt\n        /* \"#utility.yul\":5625:5747   */\n      iszero\n      tag_341\n      jumpi\n        /* \"#utility.yul\":5658:5737   */\n      tag_342\n      tag_258\n      jump\t// in\n    tag_342:\n        /* \"#utility.yul\":5625:5747   */\n    tag_341:\n        /* \"#utility.yul\":5773:5779   */\n      dup4\n        /* \"#utility.yul\":5756:5976   */\n    tag_343:\n        /* \"#utility.yul\":5790:5796   */\n      dup2\n        /* \"#utility.yul\":5785:5788   */\n      dup2\n        /* \"#utility.yul\":5782:5797   */\n      lt\n        /* \"#utility.yul\":5756:5976   */\n      iszero\n      tag_345\n      jumpi\n        /* \"#utility.yul\":5865:5868   */\n      dup1\n        /* \"#utility.yul\":5894:5931   */\n      tag_346\n        /* \"#utility.yul\":5927:5930   */\n      dup9\n        /* \"#utility.yul\":5915:5925   */\n      dup3\n        /* \"#utility.yul\":5894:5931   */\n      tag_244\n      jump\t// in\n    tag_346:\n        /* \"#utility.yul\":5889:5892   */\n      dup5\n        /* \"#utility.yul\":5882:5932   */\n      mstore\n        /* \"#utility.yul\":5961:5965   */\n      0x20\n        /* \"#utility.yul\":5956:5959   */\n      dup5\n        /* \"#utility.yul\":5952:5966   */\n      add\n        /* \"#utility.yul\":5945:5966   */\n      swap4\n      pop\n        /* \"#utility.yul\":5832:5976   */\n      pop\n        /* \"#utility.yul\":5816:5820   */\n      0x20\n        /* \"#utility.yul\":5811:5814   */\n      dup2\n        /* \"#utility.yul\":5807:5821   */\n      add\n        /* \"#utility.yul\":5800:5821   */\n      swap1\n      pop\n        /* \"#utility.yul\":5756:5976   */\n      jump(tag_343)\n    tag_345:\n        /* \"#utility.yul\":5760:5781   */\n      pop\n        /* \"#utility.yul\":5374:5982   */\n      pop\n      pop\n        /* \"#utility.yul\":5272:5982   */\n      swap4\n      swap3\n      pop\n      pop\n      pop\n      jump\t// out\n        /* \"#utility.yul\":6005:6375   */\n    tag_260:\n        /* \"#utility.yul\":6076:6081   */\n      0x00\n        /* \"#utility.yul\":6125:6128   */\n      dup3\n        /* \"#utility.yul\":6118:6122   */\n      0x1f\n        /* \"#utility.yul\":6110:6116   */\n      dup4\n        /* \"#utility.yul\":6106:6123   */\n      add\n        /* \"#utility.yul\":6102:6129   */\n      slt\n        /* \"#utility.yul\":6092:6214   */\n      tag_348\n      jumpi\n        /* \"#utility.yul\":6133:6212   */\n      tag_349\n      tag_252\n      jump\t// in\n    tag_349:\n        /* \"#utility.yul\":6092:6214   */\n    tag_348:\n        /* \"#utility.yul\":6250:6256   */\n      dup2\n        /* \"#utility.yul\":6237:6257   */\n      calldataload\n        /* \"#utility.yul\":6275:6369   */\n      tag_350\n        /* \"#utility.yul\":6365:6368   */\n      dup5\n        /* \"#utility.yul\":6357:6363   */\n      dup3\n        /* \"#utility.yul\":6350:6354   */\n      0x20\n        /* \"#utility.yul\":6342:6348   */\n      dup7\n        /* \"#utility.yul\":6338:6355   */\n      add\n        /* \"#utility.yul\":6275:6369   */\n      tag_259\n      jump\t// in\n    tag_350:\n        /* \"#utility.yul\":6266:6369   */\n      swap2\n      pop\n        /* \"#utility.yul\":6082:6375   */\n      pop\n        /* \"#utility.yul\":6005:6375   */\n      swap3\n      swap2\n      pop\n      pop\n      jump\t// out\n        /* \"#utility.yul\":6381:6920   */\n    tag_52:\n        /* \"#utility.yul\":6465:6471   */\n      0x00\n        /* \"#utility.yul\":6514:6516   */\n      0x20\n        /* \"#utility.yul\":6502:6511   */\n      dup3\n        /* \"#utility.yul\":6493:6500   */\n      dup5\n        /* \"#utility.yul\":6489:6512   */\n      sub\n        /* \"#utility.yul\":6485:6517   */\n      slt\n        /* \"#utility.yul\":6482:6601   */\n      iszero\n      tag_352\n      jumpi\n        /* \"#utility.yul\":6520:6599   */\n      tag_353\n      tag_241\n      jump\t// in\n    tag_353:\n        /* \"#utility.yul\":6482:6601   */\n    tag_352:\n        /* \"#utility.yul\":6668:6669   */\n      0x00\n        /* \"#utility.yul\":6657:6666   */\n      dup3\n        /* \"#utility.yul\":6653:6670   */\n      add\n        /* \"#utility.yul\":6640:6671   */\n      calldataload\n        /* \"#utility.yul\":6698:6716   */\n      0xffffffffffffffff\n        /* \"#utility.yul\":6690:6696   */\n      dup2\n        /* \"#utility.yul\":6687:6717   */\n      gt\n        /* \"#utility.yul\":6684:6801   */\n      iszero\n      tag_354\n      jumpi\n        /* \"#utility.yul\":6720:6799   */\n      tag_355\n      tag_242\n      jump\t// in\n    tag_355:\n        /* \"#utility.yul\":6684:6801   */\n    tag_354:\n        /* \"#utility.yul\":6825:6903   */\n      tag_356\n        /* \"#utility.yul\":6895:6902   */\n      dup5\n        /* \"#utility.yul\":6886:6892   */\n      dup3\n        /* \"#utility.yul\":6875:6884   */\n      dup6\n        /* \"#utility.yul\":6871:6893   */\n      add\n        /* \"#utility.yul\":6825:6903   */\n      tag_260\n      jump\t// in\n    tag_356:\n        /* \"#utility.yul\":6815:6903   */\n      swap2\n      pop\n        /* \"#utility.yul\":6611:6913   */\n      pop\n        /* \"#utility.yul\":6381:6920   */\n      swap3\n      swap2\n      pop\n      pop\n      jump\t// out\n        /* \"#utility.yul\":6926:7095   */\n    tag_261:\n        /* \"#utility.yul\":7010:7021   */\n      0x00\n        /* \"#utility.yul\":7044:7050   */\n      dup3\n        /* \"#utility.yul\":7039:7042   */\n      dup3\n        /* \"#utility.yul\":7032:7051   */\n      mstore\n        /* \"#utility.yul\":7084:7088   */\n      0x20\n        /* \"#utility.yul\":7079:7082   */\n      dup3\n        /* \"#utility.yul\":7075:7089   */\n      add\n        /* \"#utility.yul\":7060:7089   */\n      swap1\n      pop\n        /* \"#utility.yul\":6926:7095   */\n      swap3\n      swap2\n      pop\n      pop\n      jump\t// out\n        /* \"#utility.yul\":7101:7323   */\n    tag_262:\n        /* \"#utility.yul\":7241:7275   */\n      0x6f6e6c792061646d696e2063616e20696e766f6b6520746869732066756e6374\n        /* \"#utility.yul\":7237:7238   */\n      0x00\n        /* \"#utility.yul\":7229:7235   */\n      dup3\n        /* \"#utility.yul\":7225:7239   */\n      add\n        /* \"#utility.yul\":7218:7276   */\n      mstore\n        /* \"#utility.yul\":7310:7315   */\n      0x696f6e0000000000000000000000000000000000000000000000000000000000\n        /* \"#utility.yul\":7305:7307   */\n      0x20\n        /* \"#utility.yul\":7297:7303   */\n      dup3\n        /* \"#utility.yul\":7293:7308   */\n      add\n        /* \"#utility.yul\":7286:7316   */\n      mstore\n        /* \"#utility.yul\":7101:7323   */\n      pop\n      jump\t// out\n        /* \"#utility.yul\":7329:7695   */\n    tag_263:\n        /* \"#utility.yul\":7471:7474   */\n      0x00\n        /* \"#utility.yul\":7492:7559   */\n      tag_360\n        /* \"#utility.yul\":7556:7558   */\n      0x23\n        /* \"#utility.yul\":7551:7554   */\n      dup4\n        /* \"#utility.yul\":7492:7559   */\n      tag_261\n      jump\t// in\n    tag_360:\n        /* \"#utility.yul\":7485:7559   */\n      swap2\n      pop\n        /* \"#utility.yul\":7568:7661   */\n      tag_361\n        /* \"#utility.yul\":7657:7660   */\n      dup3\n        /* \"#utility.yul\":7568:7661   */\n      tag_262\n      jump\t// in\n    tag_361:\n        /* \"#utility.yul\":7686:7688   */\n      0x40\n        /* \"#utility.yul\":7681:7684   */\n      dup3\n        /* \"#utility.yul\":7677:7689   */\n      add\n        /* \"#utility.yul\":7670:7689   */\n      swap1\n      pop\n        /* \"#utility.yul\":7329:7695   */\n      swap2\n      swap1\n      pop\n      jump\t// out\n        /* \"#utility.yul\":7701:8120   */\n    tag_67:\n        /* \"#utility.yul\":7867:7871   */\n      0x00\n        /* \"#utility.yul\":7905:7907   */\n      0x20\n        /* \"#utility.yul\":7894:7903   */\n      dup3\n        /* \"#utility.yul\":7890:7908   */\n      add\n        /* \"#utility.yul\":7882:7908   */\n      swap1\n      pop\n        /* \"#utility.yul\":7954:7963   */\n      dup2\n        /* \"#utility.yul\":7948:7952   */\n      dup2\n        /* \"#utility.yul\":7944:7964   */\n      sub\n        /* \"#utility.yul\":7940:7941   */\n      0x00\n        /* \"#utility.yul\":7929:7938   */\n      dup4\n        /* \"#utility.yul\":7925:7942   */\n      add\n        /* \"#utility.yul\":7918:7965   */\n      mstore\n        /* \"#utility.yul\":7982:8113   */\n      tag_363\n        /* \"#utility.yul\":8108:8112   */\n      dup2\n        /* \"#utility.yul\":7982:8113   */\n      tag_263\n      jump\t// in\n    tag_363:\n        /* \"#utility.yul\":7974:8113   */\n      swap1\n      pop\n        /* \"#utility.yul\":7701:8120   */\n      swap2\n      swap1\n      pop\n      jump\t// out\n        /* \"#utility.yul\":8126:8306   */\n    tag_74:\n        /* \"#utility.yul\":8174:8251   */\n      0x4e487b7100000000000000000000000000000000000000000000000000000000\n        /* \"#utility.yul\":8171:8172   */\n      0x00\n        /* \"#utility.yul\":8164:8252   */\n      mstore\n        /* \"#utility.yul\":8271:8275   */\n      0x32\n        /* \"#utility.yul\":8268:8269   */\n      0x04\n        /* \"#utility.yul\":8261:8276   */\n      mstore\n        /* \"#utility.yul\":8295:8299   */\n      0x24\n        /* \"#utility.yul\":8292:8293   */\n      0x00\n        /* \"#utility.yul\":8285:8300   */\n      revert\n        /* \"#utility.yul\":8312:8492   */\n    tag_264:\n        /* \"#utility.yul\":8360:8437   */\n      0x4e487b7100000000000000000000000000000000000000000000000000000000\n        /* \"#utility.yul\":8357:8358   */\n      0x00\n        /* \"#utility.yul\":8350:8438   */\n      mstore\n        /* \"#utility.yul\":8457:8461   */\n      0x11\n        /* \"#utility.yul\":8454:8455   */\n      0x04\n        /* \"#utility.yul\":8447:8462   */\n      mstore\n        /* \"#utility.yul\":8481:8485   */\n      0x24\n        /* \"#utility.yul\":8478:8479   */\n      0x00\n        /* \"#utility.yul\":8471:8486   */\n      revert\n        /* \"#utility.yul\":8498:8692   */\n    tag_81:\n        /* \"#utility.yul\":8538:8542   */\n      0x00\n        /* \"#utility.yul\":8558:8578   */\n      tag_367\n        /* \"#utility.yul\":8576:8577   */\n      dup3\n        /* \"#utility.yul\":8558:8578   */\n      tag_235\n      jump\t// in\n    tag_367:\n        /* \"#utility.yul\":8553:8578   */\n      swap2\n      pop\n        /* \"#utility.yul\":8592:8612   */\n      tag_368\n        /* \"#utility.yul\":8610:8611   */\n      dup4\n        /* \"#utility.yul\":8592:8612   */\n      tag_235\n      jump\t// in\n    tag_368:\n        /* \"#utility.yul\":8587:8612   */\n      swap3\n      pop\n        /* \"#utility.yul\":8636:8637   */\n      dup3\n        /* \"#utility.yul\":8633:8634   */\n      dup3\n        /* \"#utility.yul\":8629:8638   */\n      sub\n        /* \"#utility.yul\":8621:8638   */\n      swap1\n      pop\n        /* \"#utility.yul\":8660:8661   */\n      dup2\n        /* \"#utility.yul\":8654:8658   */\n      dup2\n        /* \"#utility.yul\":8651:8662   */\n      gt\n        /* \"#utility.yul\":8648:8685   */\n      iszero\n      tag_369\n      jumpi\n        /* \"#utility.yul\":8665:8683   */\n      tag_370\n      tag_264\n      jump\t// in\n    tag_370:\n        /* \"#utility.yul\":8648:8685   */\n    tag_369:\n        /* \"#utility.yul\":8498:8692   */\n      swap3\n      swap2\n      pop\n      pop\n      jump\t// out\n        /* \"#utility.yul\":8698:8787   */\n    tag_265:\n        /* \"#utility.yul\":8734:8741   */\n      0x00\n        /* \"#utility.yul\":8774:8780   */\n      0xffff\n        /* \"#utility.yul\":8767:8772   */\n      dup3\n        /* \"#utility.yul\":8763:8781   */\n      and\n        /* \"#utility.yul\":8752:8781   */\n      swap1\n      pop\n        /* \"#utility.yul\":8698:8787   */\n      swap2\n      swap1\n      pop\n      jump\t// out\n        /* \"#utility.yul\":8793:8986   */\n    tag_83:\n        /* \"#utility.yul\":8832:8835   */\n      0x00\n        /* \"#utility.yul\":8851:8870   */\n      tag_373\n        /* \"#utility.yul\":8868:8869   */\n      dup3\n        /* \"#utility.yul\":8851:8870   */\n      tag_265\n      jump\t// in\n    tag_373:\n        /* \"#utility.yul\":8846:8870   */\n      swap2\n      pop\n        /* \"#utility.yul\":8884:8903   */\n      tag_374\n        /* \"#utility.yul\":8901:8902   */\n      dup4\n        /* \"#utility.yul\":8884:8903   */\n      tag_265\n      jump\t// in\n    tag_374:\n        /* \"#utility.yul\":8879:8903   */\n      swap3\n      pop\n        /* \"#utility.yul\":8926:8927   */\n      dup3\n        /* \"#utility.yul\":8923:8924   */\n      dup3\n        /* \"#utility.yul\":8919:8928   */\n      add\n        /* \"#utility.yul\":8912:8928   */\n      swap1\n      pop\n        /* \"#utility.yul\":8949:8955   */\n      0xffff\n        /* \"#utility.yul\":8944:8947   */\n      dup2\n        /* \"#utility.yul\":8941:8956   */\n      gt\n        /* \"#utility.yul\":8938:8979   */\n      iszero\n      tag_375\n      jumpi\n        /* \"#utility.yul\":8959:8977   */\n      tag_376\n      tag_264\n      jump\t// in\n    tag_376:\n        /* \"#utility.yul\":8938:8979   */\n    tag_375:\n        /* \"#utility.yul\":8793:8986   */\n      swap3\n      swap2\n      pop\n      pop\n      jump\t// out\n        /* \"#utility.yul\":8992:9163   */\n    tag_91:\n        /* \"#utility.yul\":9030:9033   */\n      0x00\n        /* \"#utility.yul\":9053:9076   */\n      tag_378\n        /* \"#utility.yul\":9070:9075   */\n      dup3\n        /* \"#utility.yul\":9053:9076   */\n      tag_265\n      jump\t// in\n    tag_378:\n        /* \"#utility.yul\":9044:9076   */\n      swap2\n      pop\n        /* \"#utility.yul\":9098:9104   */\n      0xffff\n        /* \"#utility.yul\":9091:9096   */\n      dup3\n        /* \"#utility.yul\":9088:9105   */\n      sub\n        /* \"#utility.yul\":9085:9128   */\n      tag_379\n      jumpi\n        /* \"#utility.yul\":9108:9126   */\n      tag_380\n      tag_264\n      jump\t// in\n    tag_380:\n        /* \"#utility.yul\":9085:9128   */\n    tag_379:\n        /* \"#utility.yul\":9155:9156   */\n      0x01\n        /* \"#utility.yul\":9148:9153   */\n      dup3\n        /* \"#utility.yul\":9144:9157   */\n      add\n        /* \"#utility.yul\":9137:9157   */\n      swap1\n      pop\n        /* \"#utility.yul\":8992:9163   */\n      swap2\n      swap1\n      pop\n      jump\t// out\n        /* \"#utility.yul\":9169:9349   */\n    tag_94:\n        /* \"#utility.yul\":9217:9294   */\n      0x4e487b7100000000000000000000000000000000000000000000000000000000\n        /* \"#utility.yul\":9214:9215   */\n      0x00\n        /* \"#utility.yul\":9207:9295   */\n      mstore\n        /* \"#utility.yul\":9314:9318   */\n      0x31\n        /* \"#utility.yul\":9311:9312   */\n      0x04\n        /* \"#utility.yul\":9304:9319   */\n      mstore\n        /* \"#utility.yul\":9338:9342   */\n      0x24\n        /* \"#utility.yul\":9335:9336   */\n      0x00\n        /* \"#utility.yul\":9328:9343   */\n      revert\n        /* \"#utility.yul\":9355:9546   */\n    tag_99:\n        /* \"#utility.yul\":9395:9398   */\n      0x00\n        /* \"#utility.yul\":9414:9434   */\n      tag_383\n        /* \"#utility.yul\":9432:9433   */\n      dup3\n        /* \"#utility.yul\":9414:9434   */\n      tag_235\n      jump\t// in\n    tag_383:\n        /* \"#utility.yul\":9409:9434   */\n      swap2\n      pop\n        /* \"#utility.yul\":9448:9468   */\n      tag_384\n        /* \"#utility.yul\":9466:9467   */\n      dup4\n        /* \"#utility.yul\":9448:9468   */\n      tag_235\n      jump\t// in\n    tag_384:\n        /* \"#utility.yul\":9443:9468   */\n      swap3\n      pop\n        /* \"#utility.yul\":9491:9492   */\n      dup3\n        /* \"#utility.yul\":9488:9489   */\n      dup3\n        /* \"#utility.yul\":9484:9493   */\n      add\n        /* \"#utility.yul\":9477:9493   */\n      swap1\n      pop\n        /* \"#utility.yul\":9512:9515   */\n      dup1\n        /* \"#utility.yul\":9509:9510   */\n      dup3\n        /* \"#utility.yul\":9506:9516   */\n      gt\n        /* \"#utility.yul\":9503:9539   */\n      iszero\n      tag_385\n      jumpi\n        /* \"#utility.yul\":9519:9537   */\n      tag_386\n      tag_264\n      jump\t// in\n    tag_386:\n        /* \"#utility.yul\":9503:9539   */\n    tag_385:\n        /* \"#utility.yul\":9355:9546   */\n      swap3\n      swap2\n      pop\n      pop\n      jump\t// out\n        /* \"#utility.yul\":9552:9732   */\n    tag_266:\n        /* \"#utility.yul\":9600:9677   */\n      0x4e487b7100000000000000000000000000000000000000000000000000000000\n        /* \"#utility.yul\":9597:9598   */\n      0x00\n        /* \"#utility.yul\":9590:9678   */\n      mstore\n        /* \"#utility.yul\":9697:9701   */\n      0x12\n        /* \"#utility.yul\":9694:9695   */\n      0x04\n        /* \"#utility.yul\":9687:9702   */\n      mstore\n        /* \"#utility.yul\":9721:9725   */\n      0x24\n        /* \"#utility.yul\":9718:9719   */\n      0x00\n        /* \"#utility.yul\":9711:9726   */\n      revert\n        /* \"#utility.yul\":9738:9914   */\n    tag_104:\n        /* \"#utility.yul\":9770:9771   */\n      0x00\n        /* \"#utility.yul\":9787:9807   */\n      tag_389\n        /* \"#utility.yul\":9805:9806   */\n      dup3\n        /* \"#utility.yul\":9787:9807   */\n      tag_235\n      jump\t// in\n    tag_389:\n        /* \"#utility.yul\":9782:9807   */\n      swap2\n      pop\n        /* \"#utility.yul\":9821:9841   */\n      tag_390\n        /* \"#utility.yul\":9839:9840   */\n      dup4\n        /* \"#utility.yul\":9821:9841   */\n      tag_235\n      jump\t// in\n    tag_390:\n        /* \"#utility.yul\":9816:9841   */\n      swap3\n      pop\n        /* \"#utility.yul\":9860:9861   */\n      dup3\n        /* \"#utility.yul\":9850:9885   */\n      tag_391\n      jumpi\n        /* \"#utility.yul\":9865:9883   */\n      tag_392\n      tag_266\n      jump\t// in\n    tag_392:\n        /* \"#utility.yul\":9850:9885   */\n    tag_391:\n        /* \"#utility.yul\":9906:9907   */\n      dup3\n        /* \"#utility.yul\":9903:9904   */\n      dup3\n        /* \"#utility.yul\":9899:9908   */\n      mod\n        /* \"#utility.yul\":9894:9908   */\n      swap1\n      pop\n        /* \"#utility.yul\":9738:9914   */\n      swap3\n      swap2\n      pop\n      pop\n      jump\t// out\n        /* \"#utility.yul\":9920:10091   */\n    tag_267:\n        /* \"#utility.yul\":10060:10083   */\n      0x4e6f7420616e20656c696769626c652075736572210000000000000000000000\n        /* \"#utility.yul\":10056:10057   */\n      0x00\n        /* \"#utility.yul\":10048:10054   */\n      dup3\n        /* \"#utility.yul\":10044:10058   */\n      add\n        /* \"#utility.yul\":10037:10084   */\n      mstore\n        /* \"#utility.yul\":9920:10091   */\n      pop\n      jump\t// out\n        /* \"#utility.yul\":10097:10463   */\n    tag_268:\n        /* \"#utility.yul\":10239:10242   */\n      0x00\n        /* \"#utility.yul\":10260:10327   */\n      tag_395\n        /* \"#utility.yul\":10324:10326   */\n      0x15\n        /* \"#utility.yul\":10319:10322   */\n      dup4\n        /* \"#utility.yul\":10260:10327   */\n      tag_261\n      jump\t// in\n    tag_395:\n        /* \"#utility.yul\":10253:10327   */\n      swap2\n      pop\n        /* \"#utility.yul\":10336:10429   */\n      tag_396\n        /* \"#utility.yul\":10425:10428   */\n      dup3\n        /* \"#utility.yul\":10336:10429   */\n      tag_267\n      jump\t// in\n    tag_396:\n        /* \"#utility.yul\":10454:10456   */\n      0x20\n        /* \"#utility.yul\":10449:10452   */\n      dup3\n        /* \"#utility.yul\":10445:10457   */\n      add\n        /* \"#utility.yul\":10438:10457   */\n      swap1\n      pop\n        /* \"#utility.yul\":10097:10463   */\n      swap2\n      swap1\n      pop\n      jump\t// out\n        /* \"#utility.yul\":10469:10888   */\n    tag_108:\n        /* \"#utility.yul\":10635:10639   */\n      0x00\n        /* \"#utility.yul\":10673:10675   */\n      0x20\n        /* \"#utility.yul\":10662:10671   */\n      dup3\n        /* \"#utility.yul\":10658:10676   */\n      add\n        /* \"#utility.yul\":10650:10676   */\n      swap1\n      pop\n        /* \"#utility.yul\":10722:10731   */\n      dup2\n        /* \"#utility.yul\":10716:10720   */\n      dup2\n        /* \"#utility.yul\":10712:10732   */\n      sub\n        /* \"#utility.yul\":10708:10709   */\n      0x00\n        /* \"#utility.yul\":10697:10706   */\n      dup4\n        /* \"#utility.yul\":10693:10710   */\n      add\n        /* \"#utility.yul\":10686:10733   */\n      mstore\n        /* \"#utility.yul\":10750:10881   */\n      tag_398\n        /* \"#utility.yul\":10876:10880   */\n      dup2\n        /* \"#utility.yul\":10750:10881   */\n      tag_268\n      jump\t// in\n    tag_398:\n        /* \"#utility.yul\":10742:10881   */\n      swap1\n      pop\n        /* \"#utility.yul\":10469:10888   */\n      swap2\n      swap1\n      pop\n      jump\t// out\n        /* \"#utility.yul\":10894:11057   */\n    tag_269:\n        /* \"#utility.yul\":11034:11049   */\n      0x4f6e636520706572207765656b00000000000000000000000000000000000000\n        /* \"#utility.yul\":11030:11031   */\n      0x00\n        /* \"#utility.yul\":11022:11028   */\n      dup3\n        /* \"#utility.yul\":11018:11032   */\n      add\n        /* \"#utility.yul\":11011:11050   */\n      mstore\n        /* \"#utility.yul\":10894:11057   */\n      pop\n      jump\t// out\n        /* \"#utility.yul\":11063:11429   */\n    tag_270:\n        /* \"#utility.yul\":11205:11208   */\n      0x00\n        /* \"#utility.yul\":11226:11293   */\n      tag_401\n        /* \"#utility.yul\":11290:11292   */\n      0x0d\n        /* \"#utility.yul\":11285:11288   */\n      dup4\n        /* \"#utility.yul\":11226:11293   */\n      tag_261\n      jump\t// in\n    tag_401:\n        /* \"#utility.yul\":11219:11293   */\n      swap2\n      pop\n        /* \"#utility.yul\":11302:11395   */\n      tag_402\n        /* \"#utility.yul\":11391:11394   */\n      dup3\n        /* \"#utility.yul\":11302:11395   */\n      tag_269\n      jump\t// in\n    tag_402:\n        /* \"#utility.yul\":11420:11422   */\n      0x20\n        /* \"#utility.yul\":11415:11418   */\n      dup3\n        /* \"#utility.yul\":11411:11423   */\n      add\n        /* \"#utility.yul\":11404:11423   */\n      swap1\n      pop\n        /* \"#utility.yul\":11063:11429   */\n      swap2\n      swap1\n      pop\n      jump\t// out\n        /* \"#utility.yul\":11435:11854   */\n    tag_117:\n        /* \"#utility.yul\":11601:11605   */\n      0x00\n        /* \"#utility.yul\":11639:11641   */\n      0x20\n        /* \"#utility.yul\":11628:11637   */\n      dup3\n        /* \"#utility.yul\":11624:11642   */\n      add\n        /* \"#utility.yul\":11616:11642   */\n      swap1\n      pop\n        /* \"#utility.yul\":11688:11697   */\n      dup2\n        /* \"#utility.yul\":11682:11686   */\n      dup2\n        /* \"#utility.yul\":11678:11698   */\n      sub\n        /* \"#utility.yul\":11674:11675   */\n      0x00\n        /* \"#utility.yul\":11663:11672   */\n      dup4\n        /* \"#utility.yul\":11659:11676   */\n      add\n        /* \"#utility.yul\":11652:11699   */\n      mstore\n        /* \"#utility.yul\":11716:11847   */\n      tag_404\n        /* \"#utility.yul\":11842:11846   */\n      dup2\n        /* \"#utility.yul\":11716:11847   */\n      tag_270\n      jump\t// in\n    tag_404:\n        /* \"#utility.yul\":11708:11847   */\n      swap1\n      pop\n        /* \"#utility.yul\":11435:11854   */\n      swap2\n      swap1\n      pop\n      jump\t// out\n        /* \"#utility.yul\":11860:11982   */\n    tag_271:\n        /* \"#utility.yul\":11933:11957   */\n      tag_406\n        /* \"#utility.yul\":11951:11956   */\n      dup2\n        /* \"#utility.yul\":11933:11957   */\n      tag_235\n      jump\t// in\n    tag_406:\n        /* \"#utility.yul\":11926:11931   */\n      dup2\n        /* \"#utility.yul\":11923:11958   */\n      eq\n        /* \"#utility.yul\":11913:11976   */\n      tag_407\n      jumpi\n        /* \"#utility.yul\":11972:11973   */\n      0x00\n        /* \"#utility.yul\":11969:11970   */\n      dup1\n        /* \"#utility.yul\":11962:11974   */\n      revert\n        /* \"#utility.yul\":11913:11976   */\n    tag_407:\n        /* \"#utility.yul\":11860:11982   */\n      pop\n      jump\t// out\n        /* \"#utility.yul\":11988:12131   */\n    tag_272:\n        /* \"#utility.yul\":12045:12050   */\n      0x00\n        /* \"#utility.yul\":12076:12082   */\n      dup2\n        /* \"#utility.yul\":12070:12083   */\n      mload\n        /* \"#utility.yul\":12061:12083   */\n      swap1\n      pop\n        /* \"#utility.yul\":12092:12125   */\n      tag_409\n        /* \"#utility.yul\":12119:12124   */\n      dup2\n        /* \"#utility.yul\":12092:12125   */\n      tag_271\n      jump\t// in\n    tag_409:\n        /* \"#utility.yul\":11988:12131   */\n      swap3\n      swap2\n      pop\n      pop\n      jump\t// out\n        /* \"#utility.yul\":12137:12488   */\n    tag_122:\n        /* \"#utility.yul\":12207:12213   */\n      0x00\n        /* \"#utility.yul\":12256:12258   */\n      0x20\n        /* \"#utility.yul\":12244:12253   */\n      dup3\n        /* \"#utility.yul\":12235:12242   */\n      dup5\n        /* \"#utility.yul\":12231:12254   */\n      sub\n        /* \"#utility.yul\":12227:12259   */\n      slt\n        /* \"#utility.yul\":12224:12343   */\n      iszero\n      tag_411\n      jumpi\n        /* \"#utility.yul\":12262:12341   */\n      tag_412\n      tag_241\n      jump\t// in\n    tag_412:\n        /* \"#utility.yul\":12224:12343   */\n    tag_411:\n        /* \"#utility.yul\":12382:12383   */\n      0x00\n        /* \"#utility.yul\":12407:12471   */\n      tag_413\n        /* \"#utility.yul\":12463:12470   */\n      dup5\n        /* \"#utility.yul\":12454:12460   */\n      dup3\n        /* \"#utility.yul\":12443:12452   */\n      dup6\n        /* \"#utility.yul\":12439:12461   */\n      add\n        /* \"#utility.yul\":12407:12471   */\n      tag_272\n      jump\t// in\n    tag_413:\n        /* \"#utility.yul\":12397:12471   */\n      swap2\n      pop\n        /* \"#utility.yul\":12353:12481   */\n      pop\n        /* \"#utility.yul\":12137:12488   */\n      swap3\n      swap2\n      pop\n      pop\n      jump\t// out\n        /* \"#utility.yul\":12494:12656   */\n    tag_273:\n        /* \"#utility.yul\":12634:12648   */\n      0x456d707479207661756c74210000000000000000000000000000000000000000\n        /* \"#utility.yul\":12630:12631   */\n      0x00\n        /* \"#utility.yul\":12622:12628   */\n      dup3\n        /* \"#utility.yul\":12618:12632   */\n      add\n        /* \"#utility.yul\":12611:12649   */\n      mstore\n        /* \"#utility.yul\":12494:12656   */\n      pop\n      jump\t// out\n        /* \"#utility.yul\":12662:13028   */\n    tag_274:\n        /* \"#utility.yul\":12804:12807   */\n      0x00\n        /* \"#utility.yul\":12825:12892   */\n      tag_416\n        /* \"#utility.yul\":12889:12891   */\n      0x0c\n        /* \"#utility.yul\":12884:12887   */\n      dup4\n        /* \"#utility.yul\":12825:12892   */\n      tag_261\n      jump\t// in\n    tag_416:\n        /* \"#utility.yul\":12818:12892   */\n      swap2\n      pop\n        /* \"#utility.yul\":12901:12994   */\n      tag_417\n        /* \"#utility.yul\":12990:12993   */\n      dup3\n        /* \"#utility.yul\":12901:12994   */\n      tag_273\n      jump\t// in\n    tag_417:\n        /* \"#utility.yul\":13019:13021   */\n      0x20\n        /* \"#utility.yul\":13014:13017   */\n      dup3\n        /* \"#utility.yul\":13010:13022   */\n      add\n        /* \"#utility.yul\":13003:13022   */\n      swap1\n      pop\n        /* \"#utility.yul\":12662:13028   */\n      swap2\n      swap1\n      pop\n      jump\t// out\n        /* \"#utility.yul\":13034:13453   */\n    tag_125:\n        /* \"#utility.yul\":13200:13204   */\n      0x00\n        /* \"#utility.yul\":13238:13240   */\n      0x20\n        /* \"#utility.yul\":13227:13236   */\n      dup3\n        /* \"#utility.yul\":13223:13241   */\n      add\n        /* \"#utility.yul\":13215:13241   */\n      swap1\n      pop\n        /* \"#utility.yul\":13287:13296   */\n      dup2\n        /* \"#utility.yul\":13281:13285   */\n      dup2\n        /* \"#utility.yul\":13277:13297   */\n      sub\n        /* \"#utility.yul\":13273:13274   */\n      0x00\n        /* \"#utility.yul\":13262:13271   */\n      dup4\n        /* \"#utility.yul\":13258:13275   */\n      add\n        /* \"#utility.yul\":13251:13298   */\n      mstore\n        /* \"#utility.yul\":13315:13446   */\n      tag_419\n        /* \"#utility.yul\":13441:13445   */\n      dup2\n        /* \"#utility.yul\":13315:13446   */\n      tag_274\n      jump\t// in\n    tag_419:\n        /* \"#utility.yul\":13307:13446   */\n      swap1\n      pop\n        /* \"#utility.yul\":13034:13453   */\n      swap2\n      swap1\n      pop\n      jump\t// out\n        /* \"#utility.yul\":13459:13644   */\n    tag_137:\n        /* \"#utility.yul\":13499:13500   */\n      0x00\n        /* \"#utility.yul\":13516:13536   */\n      tag_421\n        /* \"#utility.yul\":13534:13535   */\n      dup3\n        /* \"#utility.yul\":13516:13536   */\n      tag_235\n      jump\t// in\n    tag_421:\n        /* \"#utility.yul\":13511:13536   */\n      swap2\n      pop\n        /* \"#utility.yul\":13550:13570   */\n      tag_422\n        /* \"#utility.yul\":13568:13569   */\n      dup4\n        /* \"#utility.yul\":13550:13570   */\n      tag_235\n      jump\t// in\n    tag_422:\n        /* \"#utility.yul\":13545:13570   */\n      swap3\n      pop\n        /* \"#utility.yul\":13589:13590   */\n      dup3\n        /* \"#utility.yul\":13579:13614   */\n      tag_423\n      jumpi\n        /* \"#utility.yul\":13594:13612   */\n      tag_424\n      tag_266\n      jump\t// in\n    tag_424:\n        /* \"#utility.yul\":13579:13614   */\n    tag_423:\n        /* \"#utility.yul\":13636:13637   */\n      dup3\n        /* \"#utility.yul\":13633:13634   */\n      dup3\n        /* \"#utility.yul\":13629:13638   */\n      div\n        /* \"#utility.yul\":13624:13638   */\n      swap1\n      pop\n        /* \"#utility.yul\":13459:13644   */\n      swap3\n      swap2\n      pop\n      pop\n      jump\t// out\n        /* \"#utility.yul\":13650:14060   */\n    tag_139:\n        /* \"#utility.yul\":13690:13697   */\n      0x00\n        /* \"#utility.yul\":13713:13733   */\n      tag_426\n        /* \"#utility.yul\":13731:13732   */\n      dup3\n        /* \"#utility.yul\":13713:13733   */\n      tag_235\n      jump\t// in\n    tag_426:\n        /* \"#utility.yul\":13708:13733   */\n      swap2\n      pop\n        /* \"#utility.yul\":13747:13767   */\n      tag_427\n        /* \"#utility.yul\":13765:13766   */\n      dup4\n        /* \"#utility.yul\":13747:13767   */\n      tag_235\n      jump\t// in\n    tag_427:\n        /* \"#utility.yul\":13742:13767   */\n      swap3\n      pop\n        /* \"#utility.yul\":13802:13803   */\n      dup3\n        /* \"#utility.yul\":13799:13800   */\n      dup3\n        /* \"#utility.yul\":13795:13804   */\n      mul\n        /* \"#utility.yul\":13824:13854   */\n      tag_428\n        /* \"#utility.yul\":13842:13853   */\n      dup2\n        /* \"#utility.yul\":13824:13854   */\n      tag_235\n      jump\t// in\n    tag_428:\n        /* \"#utility.yul\":13813:13854   */\n      swap2\n      pop\n        /* \"#utility.yul\":14003:14004   */\n      dup3\n        /* \"#utility.yul\":13994:14001   */\n      dup3\n        /* \"#utility.yul\":13990:14005   */\n      div\n        /* \"#utility.yul\":13987:13988   */\n      dup5\n        /* \"#utility.yul\":13984:14006   */\n      eq\n        /* \"#utility.yul\":13964:13965   */\n      dup4\n        /* \"#utility.yul\":13957:13966   */\n      iszero\n        /* \"#utility.yul\":13937:14020   */\n      or\n        /* \"#utility.yul\":13914:14053   */\n      tag_429\n      jumpi\n        /* \"#utility.yul\":14033:14051   */\n      tag_430\n      tag_264\n      jump\t// in\n    tag_430:\n        /* \"#utility.yul\":13914:14053   */\n    tag_429:\n        /* \"#utility.yul\":13698:14060   */\n      pop\n        /* \"#utility.yul\":13650:14060   */\n      swap3\n      swap2\n      pop\n      pop\n      jump\t// out\n        /* \"#utility.yul\":14066:14398   */\n    tag_141:\n        /* \"#utility.yul\":14187:14191   */\n      0x00\n        /* \"#utility.yul\":14225:14227   */\n      0x40\n        /* \"#utility.yul\":14214:14223   */\n      dup3\n        /* \"#utility.yul\":14210:14228   */\n      add\n        /* \"#utility.yul\":14202:14228   */\n      swap1\n      pop\n        /* \"#utility.yul\":14238:14309   */\n      tag_432\n        /* \"#utility.yul\":14306:14307   */\n      0x00\n        /* \"#utility.yul\":14295:14304   */\n      dup4\n        /* \"#utility.yul\":14291:14308   */\n      add\n        /* \"#utility.yul\":14282:14288   */\n      dup6\n        /* \"#utility.yul\":14238:14309   */\n      tag_239\n      jump\t// in\n    tag_432:\n        /* \"#utility.yul\":14319:14391   */\n      tag_433\n        /* \"#utility.yul\":14387:14389   */\n      0x20\n        /* \"#utility.yul\":14376:14385   */\n      dup4\n        /* \"#utility.yul\":14372:14390   */\n      add\n        /* \"#utility.yul\":14363:14369   */\n      dup5\n        /* \"#utility.yul\":14319:14391   */\n      tag_236\n      jump\t// in\n    tag_433:\n        /* \"#utility.yul\":14066:14398   */\n      swap4\n      swap3\n      pop\n      pop\n      pop\n      jump\t// out\n        /* \"#utility.yul\":14404:14494   */\n    tag_275:\n        /* \"#utility.yul\":14438:14445   */\n      0x00\n        /* \"#utility.yul\":14481:14486   */\n      dup2\n        /* \"#utility.yul\":14474:14487   */\n      iszero\n        /* \"#utility.yul\":14467:14488   */\n      iszero\n        /* \"#utility.yul\":14456:14488   */\n      swap1\n      pop\n        /* \"#utility.yul\":14404:14494   */\n      swap2\n      swap1\n      pop\n      jump\t// out\n        /* \"#utility.yul\":14500:14616   */\n    tag_276:\n        /* \"#utility.yul\":14570:14591   */\n      tag_436\n        /* \"#utility.yul\":14585:14590   */\n      dup2\n        /* \"#utility.yul\":14570:14591   */\n      tag_275\n      jump\t// in\n    tag_436:\n        /* \"#utility.yul\":14563:14568   */\n      dup2\n        /* \"#utility.yul\":14560:14592   */\n      eq\n        /* \"#utility.yul\":14550:14610   */\n      tag_437\n      jumpi\n        /* \"#utility.yul\":14606:14607   */\n      0x00\n        /* \"#utility.yul\":14603:14604   */\n      dup1\n        /* \"#utility.yul\":14596:14608   */\n      revert\n        /* \"#utility.yul\":14550:14610   */\n    tag_437:\n        /* \"#utility.yul\":14500:14616   */\n      pop\n      jump\t// out\n        /* \"#utility.yul\":14622:14759   */\n    tag_277:\n        /* \"#utility.yul\":14676:14681   */\n      0x00\n        /* \"#utility.yul\":14707:14713   */\n      dup2\n        /* \"#utility.yul\":14701:14714   */\n      mload\n        /* \"#utility.yul\":14692:14714   */\n      swap1\n      pop\n        /* \"#utility.yul\":14723:14753   */\n      tag_439\n        /* \"#utility.yul\":14747:14752   */\n      dup2\n        /* \"#utility.yul\":14723:14753   */\n      tag_276\n      jump\t// in\n    tag_439:\n        /* \"#utility.yul\":14622:14759   */\n      swap3\n      swap2\n      pop\n      pop\n      jump\t// out\n        /* \"#utility.yul\":14765:15110   */\n    tag_145:\n        /* \"#utility.yul\":14832:14838   */\n      0x00\n        /* \"#utility.yul\":14881:14883   */\n      0x20\n        /* \"#utility.yul\":14869:14878   */\n      dup3\n        /* \"#utility.yul\":14860:14867   */\n      dup5\n        /* \"#utility.yul\":14856:14879   */\n      sub\n        /* \"#utility.yul\":14852:14884   */\n      slt\n        /* \"#utility.yul\":14849:14968   */\n      iszero\n      tag_441\n      jumpi\n        /* \"#utility.yul\":14887:14966   */\n      tag_442\n      tag_241\n      jump\t// in\n    tag_442:\n        /* \"#utility.yul\":14849:14968   */\n    tag_441:\n        /* \"#utility.yul\":15007:15008   */\n      0x00\n        /* \"#utility.yul\":15032:15093   */\n      tag_443\n        /* \"#utility.yul\":15085:15092   */\n      dup5\n        /* \"#utility.yul\":15076:15082   */\n      dup3\n        /* \"#utility.yul\":15065:15074   */\n      dup6\n        /* \"#utility.yul\":15061:15083   */\n      add\n        /* \"#utility.yul\":15032:15093   */\n      tag_277\n      jump\t// in\n    tag_443:\n        /* \"#utility.yul\":15022:15093   */\n      swap2\n      pop\n        /* \"#utility.yul\":14978:15103   */\n      pop\n        /* \"#utility.yul\":14765:15110   */\n      swap3\n      swap2\n      pop\n      pop\n      jump\t// out\n        /* \"#utility.yul\":15116:15276   */\n    tag_278:\n        /* \"#utility.yul\":15256:15268   */\n      0x5573657220657869737400000000000000000000000000000000000000000000\n        /* \"#utility.yul\":15252:15253   */\n      0x00\n        /* \"#utility.yul\":15244:15250   */\n      dup3\n        /* \"#utility.yul\":15240:15254   */\n      add\n        /* \"#utility.yul\":15233:15269   */\n      mstore\n        /* \"#utility.yul\":15116:15276   */\n      pop\n      jump\t// out\n        /* \"#utility.yul\":15282:15648   */\n    tag_279:\n        /* \"#utility.yul\":15424:15427   */\n      0x00\n        /* \"#utility.yul\":15445:15512   */\n      tag_446\n        /* \"#utility.yul\":15509:15511   */\n      0x0a\n        /* \"#utility.yul\":15504:15507   */\n      dup4\n        /* \"#utility.yul\":15445:15512   */\n      tag_261\n      jump\t// in\n    tag_446:\n        /* \"#utility.yul\":15438:15512   */\n      swap2\n      pop\n        /* \"#utility.yul\":15521:15614   */\n      tag_447\n        /* \"#utility.yul\":15610:15613   */\n      dup3\n        /* \"#utility.yul\":15521:15614   */\n      tag_278\n      jump\t// in\n    tag_447:\n        /* \"#utility.yul\":15639:15641   */\n      0x20\n        /* \"#utility.yul\":15634:15637   */\n      dup3\n        /* \"#utility.yul\":15630:15642   */\n      add\n        /* \"#utility.yul\":15623:15642   */\n      swap1\n      pop\n        /* \"#utility.yul\":15282:15648   */\n      swap2\n      swap1\n      pop\n      jump\t// out\n        /* \"#utility.yul\":15654:16073   */\n    tag_153:\n        /* \"#utility.yul\":15820:15824   */\n      0x00\n        /* \"#utility.yul\":15858:15860   */\n      0x20\n        /* \"#utility.yul\":15847:15856   */\n      dup3\n        /* \"#utility.yul\":15843:15861   */\n      add\n        /* \"#utility.yul\":15835:15861   */\n      swap1\n      pop\n        /* \"#utility.yul\":15907:15916   */\n      dup2\n        /* \"#utility.yul\":15901:15905   */\n      dup2\n        /* \"#utility.yul\":15897:15917   */\n      sub\n        /* \"#utility.yul\":15893:15894   */\n      0x00\n        /* \"#utility.yul\":15882:15891   */\n      dup4\n        /* \"#utility.yul\":15878:15895   */\n      add\n        /* \"#utility.yul\":15871:15918   */\n      mstore\n        /* \"#utility.yul\":15935:16066   */\n      tag_449\n        /* \"#utility.yul\":16061:16065   */\n      dup2\n        /* \"#utility.yul\":15935:16066   */\n      tag_279\n      jump\t// in\n    tag_449:\n        /* \"#utility.yul\":15927:16066   */\n      swap1\n      pop\n        /* \"#utility.yul\":15654:16073   */\n      swap2\n      swap1\n      pop\n      jump\t// out\n\n    auxdata: 0xa2646970667358221220cb5c2f3c95139ad3d432554571182c9fff2ddf5d73f1e90c690035044078648d64736f6c634300081a0033\n}\n",
				"bytecode": {
					"linkReferences": {},
					"object": "60a060405234801561000f575f80fd5b506040516122c13803806122c183398181016040528101906100319190610128565b3360035f6101000a81548173ffffffffffffffffffffffffffffffffffffffff021916908373ffffffffffffffffffffffffffffffffffffffff1602179055508073ffffffffffffffffffffffffffffffffffffffff1660808173ffffffffffffffffffffffffffffffffffffffff168152505061012c426100b39190610189565b426100be91906101e6565b60048190555050610219565b5f80fd5b5f73ffffffffffffffffffffffffffffffffffffffff82169050919050565b5f6100f7826100ce565b9050919050565b610107816100ed565b8114610111575f80fd5b50565b5f81519050610122816100fe565b92915050565b5f6020828403121561013d5761013c6100ca565b5b5f61014a84828501610114565b91505092915050565b5f819050919050565b7f4e487b71000000000000000000000000000000000000000000000000000000005f52601260045260245ffd5b5f61019382610153565b915061019e83610153565b9250826101ae576101ad61015c565b5b828206905092915050565b7f4e487b71000000000000000000000000000000000000000000000000000000005f52601160045260245ffd5b5f6101f082610153565b91506101fb83610153565b9250828203905081811115610213576102126101b9565b5b92915050565b60805161207461024d5f395f818161076201528181610955015281816111df015281816112c901526116b401526120745ff3fe608060405234801561000f575f80fd5b50600436106100cd575f3560e01c80638dc7b30d1161008a578063b7f7e6f011610064578063b7f7e6f0146101eb578063c8804c7114610207578063e4b7a9c014610225578063f615a3f714610243576100cd565b80638dc7b30d14610181578063927cc0641461019f578063b70cbe35146101bb576100cd565b80631c9bbe1d146100d1578063397de728146100ef5780635e0ca3b91461010d57806379372f9a146101295780637a6d918e146101475780637eca453d14610163575b5f80fd5b6100d9610261565b6040516100e691906117b9565b60405180910390f35b6100f7610267565b6040516101049190611811565b60405180910390f35b61012760048036038101906101229190611865565b61028f565b005b610131610521565b60405161013e91906117b9565b60405180910390f35b610161600480360381019061015c9190611865565b610a86565b005b61016b610c39565b6040516101789190611947565b60405180910390f35b610189610cc4565b60405161019691906117b9565b60405180910390f35b6101b960048036038101906101b49190611865565b610cd0565b005b6101d560048036038101906101d09190611865565b610da2565b6040516101e291906117b9565b60405180910390f35b61020560048036038101906102009190611ab7565b610de7565b005b61020f610fdc565b60405161021c91906117b9565b60405180910390f35b61022d61161d565b60405161023a9190611947565b60405180910390f35b61024b6116a8565b60405161025891906117b9565b60405180910390f35b60045481565b5f60035f9054906101000a900473ffffffffffffffffffffffffffffffffffffffff16905090565b3373ffffffffffffffffffffffffffffffffffffffff1660035f9054906101000a900473ffffffffffffffffffffffffffffffffffffffff1673ffffffffffffffffffffffffffffffffffffffff161461031e576040517f08c379a000000000000000000000000000000000000000000000000000000000815260040161031590611b7e565b60405180910390fd5b5f60028054905090505f808373ffffffffffffffffffffffffffffffffffffffff1673ffffffffffffffffffffffffffffffffffffffff1681526020019081526020015f205f90555f5b818161ffff16101561051c578273ffffffffffffffffffffffffffffffffffffffff1660028261ffff16815481106103a3576103a2611b9c565b5b905f5260205f20015f9054906101000a900473ffffffffffffffffffffffffffffffffffffffff1673ffffffffffffffffffffffffffffffffffffffff1603610509575f8190505b6001836103f89190611bf6565b8161ffff1610156104bf5760026001826104129190611c36565b61ffff168154811061042757610426611b9c565b5b905f5260205f20015f9054906101000a900473ffffffffffffffffffffffffffffffffffffffff1660028261ffff168154811061046757610466611b9c565b5b905f5260205f20015f6101000a81548173ffffffffffffffffffffffffffffffffffffffff021916908373ffffffffffffffffffffffffffffffffffffffff16021790555080806104b790611c6b565b9150506103eb565b5060028054806104d2576104d1611c94565b5b600190038181905f5260205f20015f6101000a81549073ffffffffffffffffffffffffffffffffffffffff0219169055905561051c565b808061051490611c6b565b915050610368565b505050565b5f61012c6004546105329190611cc1565b421061056057610540611759565b61012c4261054e9190611d21565b426105599190611bf6565b6004819055505b5f8060028054905090505f805f3373ffffffffffffffffffffffffffffffffffffffff1673ffffffffffffffffffffffffffffffffffffffff1681526020019081526020015f2054036105e8576040517fb8fdf0b00000000000000000000000000000000000000000000000000000000081526004016105df90611d9b565b60405180910390fd5b60015f803373ffffffffffffffffffffffffffffffffffffffff1673ffffffffffffffffffffffffffffffffffffffff1681526020019081526020015f20540361068957600161012c5f803373ffffffffffffffffffffffffffffffffffffffff1673ffffffffffffffffffffffffffffffffffffffff1681526020019081526020015f20546106789190611cc1565b6106829190611bf6565b915061071c565b60015f803373ffffffffffffffffffffffffffffffffffffffff1673ffffffffffffffffffffffffffffffffffffffff1681526020019081526020015f2054111561071b5761012c5f803373ffffffffffffffffffffffffffffffffffffffff1673ffffffffffffffffffffffffffffffffffffffff1681526020019081526020015f20546107189190611cc1565b91505b5b8142101561075f576040517f08c379a000000000000000000000000000000000000000000000000000000000815260040161075690611e03565b60405180910390fd5b5f7f000000000000000000000000000000000000000000000000000000000000000073ffffffffffffffffffffffffffffffffffffffff166370a08231306040518263ffffffff1660e01b81526004016107b99190611811565b602060405180830381865afa1580156107d4573d5f803e3d5ffd5b505050506040513d601f19601f820116820180604052508101906107f89190611e4b565b11610838576040517f08c379a000000000000000000000000000000000000000000000000000000000815260040161082f90611ec0565b60405180910390fd5b5f805b6001805490508161ffff1610156108da573373ffffffffffffffffffffffffffffffffffffffff1660018261ffff168154811061087b5761087a611b9c565b5b905f5260205f20015f9054906101000a900473ffffffffffffffffffffffffffffffffffffffff1673ffffffffffffffffffffffffffffffffffffffff16036108c757600191506108da565b80806108d290611c6b565b91505061083b565b508061094157600133908060018154018082558091505060019003905f5260205f20015f9091909190916101000a81548173ffffffffffffffffffffffffffffffffffffffff021916908373ffffffffffffffffffffffffffffffffffffffff1602179055505b5f82629896806109519190611ede565b90507f000000000000000000000000000000000000000000000000000000000000000073ffffffffffffffffffffffffffffffffffffffff1663a9059cbb33670de0b6b3a7640000846109a49190611f0e565b6040518363ffffffff1660e01b81526004016109c1929190611f4f565b6020604051808303815f875af11580156109dd573d5f803e3d5ffd5b505050506040513d601f19601f82011682018060405250810190610a019190611fab565b50425f803373ffffffffffffffffffffffffffffffffffffffff1673ffffffffffffffffffffffffffffffffffffffff1681526020019081526020015f20819055507f60237eb95a34e0af997fdc10ea4eb2c64fec8d49df3996e657f28b28ad8a0ad93382604051610a74929190611f4f565b60405180910390a15f94505050505090565b3373ffffffffffffffffffffffffffffffffffffffff1660035f9054906101000a900473ffffffffffffffffffffffffffffffffffffffff1673ffffffffffffffffffffffffffffffffffffffff1614610b15576040517f08c379a0000000000000000000000000000000000000000000000000000000008152600401610b0c90611b7e565b60405180910390fd5b5f805f8373ffffffffffffffffffffffffffffffffffffffff1673ffffffffffffffffffffffffffffffffffffffff1681526020019081526020015f20541115610b94576040517f0e64c658000000000000000000000000000000000000000000000000000000008152600401610b8b90612020565b60405180910390fd5b60015f808373ffffffffffffffffffffffffffffffffffffffff1673ffffffffffffffffffffffffffffffffffffffff1681526020019081526020015f2081905550600281908060018154018082558091505060019003905f5260205f20015f9091909190916101000a81548173ffffffffffffffffffffffffffffffffffffffff021916908373ffffffffffffffffffffffffffffffffffffffff16021790555050565b60606002805480602002602001604051908101604052809291908181526020018280548015610cba57602002820191905f5260205f20905b815f9054906101000a900473ffffffffffffffffffffffffffffffffffffffff1673ffffffffffffffffffffffffffffffffffffffff1681526020019060010190808311610c71575b5050505050905090565b5f600180549050905090565b3373ffffffffffffffffffffffffffffffffffffffff1660035f9054906101000a900473ffffffffffffffffffffffffffffffffffffffff1673ffffffffffffffffffffffffffffffffffffffff1614610d5f576040517f08c379a0000000000000000000000000000000000000000000000000000000008152600401610d5690611b7e565b60405180910390fd5b8060035f6101000a81548173ffffffffffffffffffffffffffffffffffffffff021916908373ffffffffffffffffffffffffffffffffffffffff16021790555050565b5f805f8373ffffffffffffffffffffffffffffffffffffffff1673ffffffffffffffffffffffffffffffffffffffff1681526020019081526020015f20549050919050565b3373ffffffffffffffffffffffffffffffffffffffff1660035f9054906101000a900473ffffffffffffffffffffffffffffffffffffffff1673ffffffffffffffffffffffffffffffffffffffff1614610e76576040517f08c379a0000000000000000000000000000000000000000000000000000000008152600401610e6d90611b7e565b60405180910390fd5b5f5b81518161ffff161015610fd8575f805f848461ffff1681518110610e9f57610e9e611b9c565b5b602002602001015173ffffffffffffffffffffffffffffffffffffffff1673ffffffffffffffffffffffffffffffffffffffff1681526020019081526020015f205411610fc55760015f80848461ffff1681518110610f0157610f00611b9c565b5b602002602001015173ffffffffffffffffffffffffffffffffffffffff1673ffffffffffffffffffffffffffffffffffffffff1681526020019081526020015f20819055506002828261ffff1681518110610f5f57610f5e611b9c565b5b6020026020010151908060018154018082558091505060019003905f5260205f20015f9091909190916101000a81548173ffffffffffffffffffffffffffffffffffffffff021916908373ffffffffffffffffffffffffffffffffffffffff1602179055505b8080610fd090611c6b565b915050610e78565b5050565b5f805f60028054905090505f805f3373ffffffffffffffffffffffffffffffffffffffff1673ffffffffffffffffffffffffffffffffffffffff1681526020019081526020015f205403611065576040517fb8fdf0b000000000000000000000000000000000000000000000000000000000815260040161105c90611d9b565b60405180910390fd5b60015f803373ffffffffffffffffffffffffffffffffffffffff1673ffffffffffffffffffffffffffffffffffffffff1681526020019081526020015f20540361110657600161012c5f803373ffffffffffffffffffffffffffffffffffffffff1673ffffffffffffffffffffffffffffffffffffffff1681526020019081526020015f20546110f59190611cc1565b6110ff9190611bf6565b9150611199565b60015f803373ffffffffffffffffffffffffffffffffffffffff1673ffffffffffffffffffffffffffffffffffffffff1681526020019081526020015f205411156111985761012c5f803373ffffffffffffffffffffffffffffffffffffffff1673ffffffffffffffffffffffffffffffffffffffff1681526020019081526020015f20546111959190611cc1565b91505b5b814210156111dc576040517f08c379a00000000000000000000000000000000000000000000000000000000081526004016111d390611e03565b60405180910390fd5b5f7f000000000000000000000000000000000000000000000000000000000000000073ffffffffffffffffffffffffffffffffffffffff166370a08231306040518263ffffffff1660e01b81526004016112369190611811565b602060405180830381865afa158015611251573d5f803e3d5ffd5b505050506040513d601f19601f820116820180604052508101906112759190611e4b565b116112b5576040517f08c379a00000000000000000000000000000000000000000000000000000000081526004016112ac90611ec0565b60405180910390fd5b5f81629896806112c59190611ede565b90507f000000000000000000000000000000000000000000000000000000000000000073ffffffffffffffffffffffffffffffffffffffff1663a9059cbb33670de0b6b3a7640000846113189190611f0e565b6040518363ffffffff1660e01b8152600401611335929190611f4f565b6020604051808303815f875af1158015611351573d5f803e3d5ffd5b505050506040513d601f19601f820116820180604052508101906113759190611fab565b50425f803373ffffffffffffffffffffffffffffffffffffffff1673ffffffffffffffffffffffffffffffffffffffff1681526020019081526020015f20819055505f5b6001805490508161ffff16101561153d573373ffffffffffffffffffffffffffffffffffffffff1660018261ffff16815481106113f9576113f8611b9c565b5b905f5260205f20015f9054906101000a900473ffffffffffffffffffffffffffffffffffffffff1673ffffffffffffffffffffffffffffffffffffffff160361152a5760015f6114499190611768565b600133908060018154018082558091505060019003905f5260205f20015f9091909190916101000a81548173ffffffffffffffffffffffffffffffffffffffff021916908373ffffffffffffffffffffffffffffffffffffffff1602179055507f3dd8b3a7a629abb0ccd684dc47a495666a60e4bd8f7614aeed87088dfe7cede66001805490506040516114dd91906117b9565b60405180910390a17f60237eb95a34e0af997fdc10ea4eb2c64fec8d49df3996e657f28b28ad8a0ad93383604051611516929190611f4f565b60405180910390a15f94505050505061161a565b808061153590611c6b565b9150506113b9565b507f3dd8b3a7a629abb0ccd684dc47a495666a60e4bd8f7614aeed87088dfe7cede660018054905060405161157291906117b9565b60405180910390a17f60237eb95a34e0af997fdc10ea4eb2c64fec8d49df3996e657f28b28ad8a0ad933826040516115ab929190611f4f565b60405180910390a1600133908060018154018082558091505060019003905f5260205f20015f9091909190916101000a81548173ffffffffffffffffffffffffffffffffffffffff021916908373ffffffffffffffffffffffffffffffffffffffff1602179055505f93505050505b90565b6060600180548060200260200160405190810160405280929190818152602001828054801561169e57602002820191905f5260205f20905b815f9054906101000a900473ffffffffffffffffffffffffffffffffffffffff1673ffffffffffffffffffffffffffffffffffffffff1681526020019060010190808311611655575b5050505050905090565b5f670de0b6b3a76400007f000000000000000000000000000000000000000000000000000000000000000073ffffffffffffffffffffffffffffffffffffffff166370a08231306040518263ffffffff1660e01b815260040161170b9190611811565b602060405180830381865afa158015611726573d5f803e3d5ffd5b505050506040513d601f19601f8201168201806040525081019061174a9190611e4b565b6117549190611ede565b905090565b60015f6117669190611768565b565b5080545f8255905f5260205f20908101906117839190611786565b50565b5b8082111561179d575f815f905550600101611787565b5090565b5f819050919050565b6117b3816117a1565b82525050565b5f6020820190506117cc5f8301846117aa565b92915050565b5f73ffffffffffffffffffffffffffffffffffffffff82169050919050565b5f6117fb826117d2565b9050919050565b61180b816117f1565b82525050565b5f6020820190506118245f830184611802565b92915050565b5f604051905090565b5f80fd5b5f80fd5b611844816117f1565b811461184e575f80fd5b50565b5f8135905061185f8161183b565b92915050565b5f6020828403121561187a57611879611833565b5b5f61188784828501611851565b91505092915050565b5f81519050919050565b5f82825260208201905092915050565b5f819050602082019050919050565b6118c2816117f1565b82525050565b5f6118d383836118b9565b60208301905092915050565b5f602082019050919050565b5f6118f582611890565b6118ff818561189a565b935061190a836118aa565b805f5b8381101561193a57815161192188826118c8565b975061192c836118df565b92505060018101905061190d565b5085935050505092915050565b5f6020820190508181035f83015261195f81846118eb565b905092915050565b5f80fd5b5f601f19601f8301169050919050565b7f4e487b71000000000000000000000000000000000000000000000000000000005f52604160045260245ffd5b6119b18261196b565b810181811067ffffffffffffffff821117156119d0576119cf61197b565b5b80604052505050565b5f6119e261182a565b90506119ee82826119a8565b919050565b5f67ffffffffffffffff821115611a0d57611a0c61197b565b5b602082029050602081019050919050565b5f80fd5b5f611a34611a2f846119f3565b6119d9565b90508083825260208201905060208402830185811115611a5757611a56611a1e565b5b835b81811015611a805780611a6c8882611851565b845260208401935050602081019050611a59565b5050509392505050565b5f82601f830112611a9e57611a9d611967565b5b8135611aae848260208601611a22565b91505092915050565b5f60208284031215611acc57611acb611833565b5b5f82013567ffffffffffffffff811115611ae957611ae8611837565b5b611af584828501611a8a565b91505092915050565b5f82825260208201905092915050565b7f6f6e6c792061646d696e2063616e20696e766f6b6520746869732066756e63745f8201527f696f6e0000000000000000000000000000000000000000000000000000000000602082015250565b5f611b68602383611afe565b9150611b7382611b0e565b604082019050919050565b5f6020820190508181035f830152611b9581611b5c565b9050919050565b7f4e487b71000000000000000000000000000000000000000000000000000000005f52603260045260245ffd5b7f4e487b71000000000000000000000000000000000000000000000000000000005f52601160045260245ffd5b5f611c00826117a1565b9150611c0b836117a1565b9250828203905081811115611c2357611c22611bc9565b5b92915050565b5f61ffff82169050919050565b5f611c4082611c29565b9150611c4b83611c29565b9250828201905061ffff811115611c6557611c64611bc9565b5b92915050565b5f611c7582611c29565b915061ffff8203611c8957611c88611bc9565b5b600182019050919050565b7f4e487b71000000000000000000000000000000000000000000000000000000005f52603160045260245ffd5b5f611ccb826117a1565b9150611cd6836117a1565b9250828201905080821115611cee57611ced611bc9565b5b92915050565b7f4e487b71000000000000000000000000000000000000000000000000000000005f52601260045260245ffd5b5f611d2b826117a1565b9150611d36836117a1565b925082611d4657611d45611cf4565b5b828206905092915050565b7f4e6f7420616e20656c696769626c6520757365722100000000000000000000005f82015250565b5f611d85601583611afe565b9150611d9082611d51565b602082019050919050565b5f6020820190508181035f830152611db281611d79565b9050919050565b7f4f6e636520706572207765656b000000000000000000000000000000000000005f82015250565b5f611ded600d83611afe565b9150611df882611db9565b602082019050919050565b5f6020820190508181035f830152611e1a81611de1565b9050919050565b611e2a816117a1565b8114611e34575f80fd5b50565b5f81519050611e4581611e21565b92915050565b5f60208284031215611e6057611e5f611833565b5b5f611e6d84828501611e37565b91505092915050565b7f456d707479207661756c742100000000000000000000000000000000000000005f82015250565b5f611eaa600c83611afe565b9150611eb582611e76565b602082019050919050565b5f6020820190508181035f830152611ed781611e9e565b9050919050565b5f611ee8826117a1565b9150611ef3836117a1565b925082611f0357611f02611cf4565b5b828204905092915050565b5f611f18826117a1565b9150611f23836117a1565b9250828202611f31816117a1565b91508282048414831517611f4857611f47611bc9565b5b5092915050565b5f604082019050611f625f830185611802565b611f6f60208301846117aa565b9392505050565b5f8115159050919050565b611f8a81611f76565b8114611f94575f80fd5b50565b5f81519050611fa581611f81565b92915050565b5f60208284031215611fc057611fbf611833565b5b5f611fcd84828501611f97565b91505092915050565b7f55736572206578697374000000000000000000000000000000000000000000005f82015250565b5f61200a600a83611afe565b915061201582611fd6565b602082019050919050565b5f6020820190508181035f83015261203781611ffe565b905091905056fea2646970667358221220cb5c2f3c95139ad3d432554571182c9fff2ddf5d73f1e90c690035044078648d64736f6c634300081a0033",
					"opcodes": "PUSH1 0xA0 PUSH1 0x40 MSTORE CALLVALUE DUP1 ISZERO PUSH2 0xF JUMPI PUSH0 DUP1 REVERT JUMPDEST POP PUSH1 0x40 MLOAD PUSH2 0x22C1 CODESIZE SUB DUP1 PUSH2 0x22C1 DUP4 CODECOPY DUP2 DUP2 ADD PUSH1 0x40 MSTORE DUP2 ADD SWAP1 PUSH2 0x31 SWAP2 SWAP1 PUSH2 0x128 JUMP JUMPDEST CALLER PUSH1 0x3 PUSH0 PUSH2 0x100 EXP DUP2 SLOAD DUP2 PUSH20 0xFFFFFFFFFFFFFFFFFFFFFFFFFFFFFFFFFFFFFFFF MUL NOT AND SWAP1 DUP4 PUSH20 0xFFFFFFFFFFFFFFFFFFFFFFFFFFFFFFFFFFFFFFFF AND MUL OR SWAP1 SSTORE POP DUP1 PUSH20 0xFFFFFFFFFFFFFFFFFFFFFFFFFFFFFFFFFFFFFFFF AND PUSH1 0x80 DUP2 PUSH20 0xFFFFFFFFFFFFFFFFFFFFFFFFFFFFFFFFFFFFFFFF AND DUP2 MSTORE POP POP PUSH2 0x12C TIMESTAMP PUSH2 0xB3 SWAP2 SWAP1 PUSH2 0x189 JUMP JUMPDEST TIMESTAMP PUSH2 0xBE SWAP2 SWAP1 PUSH2 0x1E6 JUMP JUMPDEST PUSH1 0x4 DUP2 SWAP1 SSTORE POP POP PUSH2 0x219 JUMP JUMPDEST PUSH0 DUP1 REVERT JUMPDEST PUSH0 PUSH20 0xFFFFFFFFFFFFFFFFFFFFFFFFFFFFFFFFFFFFFFFF DUP3 AND SWAP1 POP SWAP2 SWAP1 POP JUMP JUMPDEST PUSH0 PUSH2 0xF7 DUP3 PUSH2 0xCE JUMP JUMPDEST SWAP1 POP SWAP2 SWAP1 POP JUMP JUMPDEST PUSH2 0x107 DUP2 PUSH2 0xED JUMP JUMPDEST DUP2 EQ PUSH2 0x111 JUMPI PUSH0 DUP1 REVERT JUMPDEST POP JUMP JUMPDEST PUSH0 DUP2 MLOAD SWAP1 POP PUSH2 0x122 DUP2 PUSH2 0xFE JUMP JUMPDEST SWAP3 SWAP2 POP POP JUMP JUMPDEST PUSH0 PUSH1 0x20 DUP3 DUP5 SUB SLT ISZERO PUSH2 0x13D JUMPI PUSH2 0x13C PUSH2 0xCA JUMP JUMPDEST JUMPDEST PUSH0 PUSH2 0x14A DUP5 DUP3 DUP6 ADD PUSH2 0x114 JUMP JUMPDEST SWAP2 POP POP SWAP3 SWAP2 POP POP JUMP JUMPDEST PUSH0 DUP2 SWAP1 POP SWAP2 SWAP1 POP JUMP JUMPDEST PUSH32 0x4E487B7100000000000000000000000000000000000000000000000000000000 PUSH0 MSTORE PUSH1 0x12 PUSH1 0x4 MSTORE PUSH1 0x24 PUSH0 REVERT JUMPDEST PUSH0 PUSH2 0x193 DUP3 PUSH2 0x153 JUMP JUMPDEST SWAP2 POP PUSH2 0x19E DUP4 PUSH2 0x153 JUMP JUMPDEST SWAP3 POP DUP3 PUSH2 0x1AE JUMPI PUSH2 0x1AD PUSH2 0x15C JUMP JUMPDEST JUMPDEST DUP3 DUP3 MOD SWAP1 POP SWAP3 SWAP2 POP POP JUMP JUMPDEST PUSH32 0x4E487B7100000000000000000000000000000000000000000000000000000000 PUSH0 MSTORE PUSH1 0x11 PUSH1 0x4 MSTORE PUSH1 0x24 PUSH0 REVERT JUMPDEST PUSH0 PUSH2 0x1F0 DUP3 PUSH2 0x153 JUMP JUMPDEST SWAP2 POP PUSH2 0x1FB DUP4 PUSH2 0x153 JUMP JUMPDEST SWAP3 POP DUP3 DUP3 SUB SWAP1 POP DUP2 DUP2 GT ISZERO PUSH2 0x213 JUMPI PUSH2 0x212 PUSH2 0x1B9 JUMP JUMPDEST JUMPDEST SWAP3 SWAP2 POP POP JUMP JUMPDEST PUSH1 0x80 MLOAD PUSH2 0x2074 PUSH2 0x24D PUSH0 CODECOPY PUSH0 DUP2 DUP2 PUSH2 0x762 ADD MSTORE DUP2 DUP2 PUSH2 0x955 ADD MSTORE DUP2 DUP2 PUSH2 0x11DF ADD MSTORE DUP2 DUP2 PUSH2 0x12C9 ADD MSTORE PUSH2 0x16B4 ADD MSTORE PUSH2 0x2074 PUSH0 RETURN INVALID PUSH1 0x80 PUSH1 0x40 MSTORE CALLVALUE DUP1 ISZERO PUSH2 0xF JUMPI PUSH0 DUP1 REVERT JUMPDEST POP PUSH1 0x4 CALLDATASIZE LT PUSH2 0xCD JUMPI PUSH0 CALLDATALOAD PUSH1 0xE0 SHR DUP1 PUSH4 0x8DC7B30D GT PUSH2 0x8A JUMPI DUP1 PUSH4 0xB7F7E6F0 GT PUSH2 0x64 JUMPI DUP1 PUSH4 0xB7F7E6F0 EQ PUSH2 0x1EB JUMPI DUP1 PUSH4 0xC8804C71 EQ PUSH2 0x207 JUMPI DUP1 PUSH4 0xE4B7A9C0 EQ PUSH2 0x225 JUMPI DUP1 PUSH4 0xF615A3F7 EQ PUSH2 0x243 JUMPI PUSH2 0xCD JUMP JUMPDEST DUP1 PUSH4 0x8DC7B30D EQ PUSH2 0x181 JUMPI DUP1 PUSH4 0x927CC064 EQ PUSH2 0x19F JUMPI DUP1 PUSH4 0xB70CBE35 EQ PUSH2 0x1BB JUMPI PUSH2 0xCD JUMP JUMPDEST DUP1 PUSH4 0x1C9BBE1D EQ PUSH2 0xD1 JUMPI DUP1 PUSH4 0x397DE728 EQ PUSH2 0xEF JUMPI DUP1 PUSH4 0x5E0CA3B9 EQ PUSH2 0x10D JUMPI DUP1 PUSH4 0x79372F9A EQ PUSH2 0x129 JUMPI DUP1 PUSH4 0x7A6D918E EQ PUSH2 0x147 JUMPI DUP1 PUSH4 0x7ECA453D EQ PUSH2 0x163 JUMPI JUMPDEST PUSH0 DUP1 REVERT JUMPDEST PUSH2 0xD9 PUSH2 0x261 JUMP JUMPDEST PUSH1 0x40 MLOAD PUSH2 0xE6 SWAP2 SWAP1 PUSH2 0x17B9 JUMP JUMPDEST PUSH1 0x40 MLOAD DUP1 SWAP2 SUB SWAP1 RETURN JUMPDEST PUSH2 0xF7 PUSH2 0x267 JUMP JUMPDEST PUSH1 0x40 MLOAD PUSH2 0x104 SWAP2 SWAP1 PUSH2 0x1811 JUMP JUMPDEST PUSH1 0x40 MLOAD DUP1 SWAP2 SUB SWAP1 RETURN JUMPDEST PUSH2 0x127 PUSH1 0x4 DUP1 CALLDATASIZE SUB DUP2 ADD SWAP1 PUSH2 0x122 SWAP2 SWAP1 PUSH2 0x1865 JUMP JUMPDEST PUSH2 0x28F JUMP JUMPDEST STOP JUMPDEST PUSH2 0x131 PUSH2 0x521 JUMP JUMPDEST PUSH1 0x40 MLOAD PUSH2 0x13E SWAP2 SWAP1 PUSH2 0x17B9 JUMP JUMPDEST PUSH1 0x40 MLOAD DUP1 SWAP2 SUB SWAP1 RETURN JUMPDEST PUSH2 0x161 PUSH1 0x4 DUP1 CALLDATASIZE SUB DUP2 ADD SWAP1 PUSH2 0x15C SWAP2 SWAP1 PUSH2 0x1865 JUMP JUMPDEST PUSH2 0xA86 JUMP JUMPDEST STOP JUMPDEST PUSH2 0x16B PUSH2 0xC39 JUMP JUMPDEST PUSH1 0x40 MLOAD PUSH2 0x178 SWAP2 SWAP1 PUSH2 0x1947 JUMP JUMPDEST PUSH1 0x40 MLOAD DUP1 SWAP2 SUB SWAP1 RETURN JUMPDEST PUSH2 0x189 PUSH2 0xCC4 JUMP JUMPDEST PUSH1 0x40 MLOAD PUSH2 0x196 SWAP2 SWAP1 PUSH2 0x17B9 JUMP JUMPDEST PUSH1 0x40 MLOAD DUP1 SWAP2 SUB SWAP1 RETURN JUMPDEST PUSH2 0x1B9 PUSH1 0x4 DUP1 CALLDATASIZE SUB DUP2 ADD SWAP1 PUSH2 0x1B4 SWAP2 SWAP1 PUSH2 0x1865 JUMP JUMPDEST PUSH2 0xCD0 JUMP JUMPDEST STOP JUMPDEST PUSH2 0x1D5 PUSH1 0x4 DUP1 CALLDATASIZE SUB DUP2 ADD SWAP1 PUSH2 0x1D0 SWAP2 SWAP1 PUSH2 0x1865 JUMP JUMPDEST PUSH2 0xDA2 JUMP JUMPDEST PUSH1 0x40 MLOAD PUSH2 0x1E2 SWAP2 SWAP1 PUSH2 0x17B9 JUMP JUMPDEST PUSH1 0x40 MLOAD DUP1 SWAP2 SUB SWAP1 RETURN JUMPDEST PUSH2 0x205 PUSH1 0x4 DUP1 CALLDATASIZE SUB DUP2 ADD SWAP1 PUSH2 0x200 SWAP2 SWAP1 PUSH2 0x1AB7 JUMP JUMPDEST PUSH2 0xDE7 JUMP JUMPDEST STOP JUMPDEST PUSH2 0x20F PUSH2 0xFDC JUMP JUMPDEST PUSH1 0x40 MLOAD PUSH2 0x21C SWAP2 SWAP1 PUSH2 0x17B9 JUMP JUMPDEST PUSH1 0x40 MLOAD DUP1 SWAP2 SUB SWAP1 RETURN JUMPDEST PUSH2 0x22D PUSH2 0x161D JUMP JUMPDEST PUSH1 0x40 MLOAD PUSH2 0x23A SWAP2 SWAP1 PUSH2 0x1947 JUMP JUMPDEST PUSH1 0x40 MLOAD DUP1 SWAP2 SUB SWAP1 RETURN JUMPDEST PUSH2 0x24B PUSH2 0x16A8 JUMP JUMPDEST PUSH1 0x40 MLOAD PUSH2 0x258 SWAP2 SWAP1 PUSH2 0x17B9 JUMP JUMPDEST PUSH1 0x40 MLOAD DUP1 SWAP2 SUB SWAP1 RETURN JUMPDEST PUSH1 0x4 SLOAD DUP2 JUMP JUMPDEST PUSH0 PUSH1 0x3 PUSH0 SWAP1 SLOAD SWAP1 PUSH2 0x100 EXP SWAP1 DIV PUSH20 0xFFFFFFFFFFFFFFFFFFFFFFFFFFFFFFFFFFFFFFFF AND SWAP1 POP SWAP1 JUMP JUMPDEST CALLER PUSH20 0xFFFFFFFFFFFFFFFFFFFFFFFFFFFFFFFFFFFFFFFF AND PUSH1 0x3 PUSH0 SWAP1 SLOAD SWAP1 PUSH2 0x100 EXP SWAP1 DIV PUSH20 0xFFFFFFFFFFFFFFFFFFFFFFFFFFFFFFFFFFFFFFFF AND PUSH20 0xFFFFFFFFFFFFFFFFFFFFFFFFFFFFFFFFFFFFFFFF AND EQ PUSH2 0x31E JUMPI PUSH1 0x40 MLOAD PUSH32 0x8C379A000000000000000000000000000000000000000000000000000000000 DUP2 MSTORE PUSH1 0x4 ADD PUSH2 0x315 SWAP1 PUSH2 0x1B7E JUMP JUMPDEST PUSH1 0x40 MLOAD DUP1 SWAP2 SUB SWAP1 REVERT JUMPDEST PUSH0 PUSH1 0x2 DUP1 SLOAD SWAP1 POP SWAP1 POP PUSH0 DUP1 DUP4 PUSH20 0xFFFFFFFFFFFFFFFFFFFFFFFFFFFFFFFFFFFFFFFF AND PUSH20 0xFFFFFFFFFFFFFFFFFFFFFFFFFFFFFFFFFFFFFFFF AND DUP2 MSTORE PUSH1 0x20 ADD SWAP1 DUP2 MSTORE PUSH1 0x20 ADD PUSH0 KECCAK256 PUSH0 SWAP1 SSTORE PUSH0 JUMPDEST DUP2 DUP2 PUSH2 0xFFFF AND LT ISZERO PUSH2 0x51C JUMPI DUP3 PUSH20 0xFFFFFFFFFFFFFFFFFFFFFFFFFFFFFFFFFFFFFFFF AND PUSH1 0x2 DUP3 PUSH2 0xFFFF AND DUP2 SLOAD DUP2 LT PUSH2 0x3A3 JUMPI PUSH2 0x3A2 PUSH2 0x1B9C JUMP JUMPDEST JUMPDEST SWAP1 PUSH0 MSTORE PUSH1 0x20 PUSH0 KECCAK256 ADD PUSH0 SWAP1 SLOAD SWAP1 PUSH2 0x100 EXP SWAP1 DIV PUSH20 0xFFFFFFFFFFFFFFFFFFFFFFFFFFFFFFFFFFFFFFFF AND PUSH20 0xFFFFFFFFFFFFFFFFFFFFFFFFFFFFFFFFFFFFFFFF AND SUB PUSH2 0x509 JUMPI PUSH0 DUP2 SWAP1 POP JUMPDEST PUSH1 0x1 DUP4 PUSH2 0x3F8 SWAP2 SWAP1 PUSH2 0x1BF6 JUMP JUMPDEST DUP2 PUSH2 0xFFFF AND LT ISZERO PUSH2 0x4BF JUMPI PUSH1 0x2 PUSH1 0x1 DUP3 PUSH2 0x412 SWAP2 SWAP1 PUSH2 0x1C36 JUMP JUMPDEST PUSH2 0xFFFF AND DUP2 SLOAD DUP2 LT PUSH2 0x427 JUMPI PUSH2 0x426 PUSH2 0x1B9C JUMP JUMPDEST JUMPDEST SWAP1 PUSH0 MSTORE PUSH1 0x20 PUSH0 KECCAK256 ADD PUSH0 SWAP1 SLOAD SWAP1 PUSH2 0x100 EXP SWAP1 DIV PUSH20 0xFFFFFFFFFFFFFFFFFFFFFFFFFFFFFFFFFFFFFFFF AND PUSH1 0x2 DUP3 PUSH2 0xFFFF AND DUP2 SLOAD DUP2 LT PUSH2 0x467 JUMPI PUSH2 0x466 PUSH2 0x1B9C JUMP JUMPDEST JUMPDEST SWAP1 PUSH0 MSTORE PUSH1 0x20 PUSH0 KECCAK256 ADD PUSH0 PUSH2 0x100 EXP DUP2 SLOAD DUP2 PUSH20 0xFFFFFFFFFFFFFFFFFFFFFFFFFFFFFFFFFFFFFFFF MUL NOT AND SWAP1 DUP4 PUSH20 0xFFFFFFFFFFFFFFFFFFFFFFFFFFFFFFFFFFFFFFFF AND MUL OR SWAP1 SSTORE POP DUP1 DUP1 PUSH2 0x4B7 SWAP1 PUSH2 0x1C6B JUMP JUMPDEST SWAP2 POP POP PUSH2 0x3EB JUMP JUMPDEST POP PUSH1 0x2 DUP1 SLOAD DUP1 PUSH2 0x4D2 JUMPI PUSH2 0x4D1 PUSH2 0x1C94 JUMP JUMPDEST JUMPDEST PUSH1 0x1 SWAP1 SUB DUP2 DUP2 SWAP1 PUSH0 MSTORE PUSH1 0x20 PUSH0 KECCAK256 ADD PUSH0 PUSH2 0x100 EXP DUP2 SLOAD SWAP1 PUSH20 0xFFFFFFFFFFFFFFFFFFFFFFFFFFFFFFFFFFFFFFFF MUL NOT AND SWAP1 SSTORE SWAP1 SSTORE PUSH2 0x51C JUMP JUMPDEST DUP1 DUP1 PUSH2 0x514 SWAP1 PUSH2 0x1C6B JUMP JUMPDEST SWAP2 POP POP PUSH2 0x368 JUMP JUMPDEST POP POP POP JUMP JUMPDEST PUSH0 PUSH2 0x12C PUSH1 0x4 SLOAD PUSH2 0x532 SWAP2 SWAP1 PUSH2 0x1CC1 JUMP JUMPDEST TIMESTAMP LT PUSH2 0x560 JUMPI PUSH2 0x540 PUSH2 0x1759 JUMP JUMPDEST PUSH2 0x12C TIMESTAMP PUSH2 0x54E SWAP2 SWAP1 PUSH2 0x1D21 JUMP JUMPDEST TIMESTAMP PUSH2 0x559 SWAP2 SWAP1 PUSH2 0x1BF6 JUMP JUMPDEST PUSH1 0x4 DUP2 SWAP1 SSTORE POP JUMPDEST PUSH0 DUP1 PUSH1 0x2 DUP1 SLOAD SWAP1 POP SWAP1 POP PUSH0 DUP1 PUSH0 CALLER PUSH20 0xFFFFFFFFFFFFFFFFFFFFFFFFFFFFFFFFFFFFFFFF AND PUSH20 0xFFFFFFFFFFFFFFFFFFFFFFFFFFFFFFFFFFFFFFFF AND DUP2 MSTORE PUSH1 0x20 ADD SWAP1 DUP2 MSTORE PUSH1 0x20 ADD PUSH0 KECCAK256 SLOAD SUB PUSH2 0x5E8 JUMPI PUSH1 0x40 MLOAD PUSH32 0xB8FDF0B000000000000000000000000000000000000000000000000000000000 DUP2 MSTORE PUSH1 0x4 ADD PUSH2 0x5DF SWAP1 PUSH2 0x1D9B JUMP JUMPDEST PUSH1 0x40 MLOAD DUP1 SWAP2 SUB SWAP1 REVERT JUMPDEST PUSH1 0x1 PUSH0 DUP1 CALLER PUSH20 0xFFFFFFFFFFFFFFFFFFFFFFFFFFFFFFFFFFFFFFFF AND PUSH20 0xFFFFFFFFFFFFFFFFFFFFFFFFFFFFFFFFFFFFFFFF AND DUP2 MSTORE PUSH1 0x20 ADD SWAP1 DUP2 MSTORE PUSH1 0x20 ADD PUSH0 KECCAK256 SLOAD SUB PUSH2 0x689 JUMPI PUSH1 0x1 PUSH2 0x12C PUSH0 DUP1 CALLER PUSH20 0xFFFFFFFFFFFFFFFFFFFFFFFFFFFFFFFFFFFFFFFF AND PUSH20 0xFFFFFFFFFFFFFFFFFFFFFFFFFFFFFFFFFFFFFFFF AND DUP2 MSTORE PUSH1 0x20 ADD SWAP1 DUP2 MSTORE PUSH1 0x20 ADD PUSH0 KECCAK256 SLOAD PUSH2 0x678 SWAP2 SWAP1 PUSH2 0x1CC1 JUMP JUMPDEST PUSH2 0x682 SWAP2 SWAP1 PUSH2 0x1BF6 JUMP JUMPDEST SWAP2 POP PUSH2 0x71C JUMP JUMPDEST PUSH1 0x1 PUSH0 DUP1 CALLER PUSH20 0xFFFFFFFFFFFFFFFFFFFFFFFFFFFFFFFFFFFFFFFF AND PUSH20 0xFFFFFFFFFFFFFFFFFFFFFFFFFFFFFFFFFFFFFFFF AND DUP2 MSTORE PUSH1 0x20 ADD SWAP1 DUP2 MSTORE PUSH1 0x20 ADD PUSH0 KECCAK256 SLOAD GT ISZERO PUSH2 0x71B JUMPI PUSH2 0x12C PUSH0 DUP1 CALLER PUSH20 0xFFFFFFFFFFFFFFFFFFFFFFFFFFFFFFFFFFFFFFFF AND PUSH20 0xFFFFFFFFFFFFFFFFFFFFFFFFFFFFFFFFFFFFFFFF AND DUP2 MSTORE PUSH1 0x20 ADD SWAP1 DUP2 MSTORE PUSH1 0x20 ADD PUSH0 KECCAK256 SLOAD PUSH2 0x718 SWAP2 SWAP1 PUSH2 0x1CC1 JUMP JUMPDEST SWAP2 POP JUMPDEST JUMPDEST DUP2 TIMESTAMP LT ISZERO PUSH2 0x75F JUMPI PUSH1 0x40 MLOAD PUSH32 0x8C379A000000000000000000000000000000000000000000000000000000000 DUP2 MSTORE PUSH1 0x4 ADD PUSH2 0x756 SWAP1 PUSH2 0x1E03 JUMP JUMPDEST PUSH1 0x40 MLOAD DUP1 SWAP2 SUB SWAP1 REVERT JUMPDEST PUSH0 PUSH32 0x0 PUSH20 0xFFFFFFFFFFFFFFFFFFFFFFFFFFFFFFFFFFFFFFFF AND PUSH4 0x70A08231 ADDRESS PUSH1 0x40 MLOAD DUP3 PUSH4 0xFFFFFFFF AND PUSH1 0xE0 SHL DUP2 MSTORE PUSH1 0x4 ADD PUSH2 0x7B9 SWAP2 SWAP1 PUSH2 0x1811 JUMP JUMPDEST PUSH1 0x20 PUSH1 0x40 MLOAD DUP1 DUP4 SUB DUP2 DUP7 GAS STATICCALL ISZERO DUP1 ISZERO PUSH2 0x7D4 JUMPI RETURNDATASIZE PUSH0 DUP1 RETURNDATACOPY RETURNDATASIZE PUSH0 REVERT JUMPDEST POP POP POP POP PUSH1 0x40 MLOAD RETURNDATASIZE PUSH1 0x1F NOT PUSH1 0x1F DUP3 ADD AND DUP3 ADD DUP1 PUSH1 0x40 MSTORE POP DUP2 ADD SWAP1 PUSH2 0x7F8 SWAP2 SWAP1 PUSH2 0x1E4B JUMP JUMPDEST GT PUSH2 0x838 JUMPI PUSH1 0x40 MLOAD PUSH32 0x8C379A000000000000000000000000000000000000000000000000000000000 DUP2 MSTORE PUSH1 0x4 ADD PUSH2 0x82F SWAP1 PUSH2 0x1EC0 JUMP JUMPDEST PUSH1 0x40 MLOAD DUP1 SWAP2 SUB SWAP1 REVERT JUMPDEST PUSH0 DUP1 JUMPDEST PUSH1 0x1 DUP1 SLOAD SWAP1 POP DUP2 PUSH2 0xFFFF AND LT ISZERO PUSH2 0x8DA JUMPI CALLER PUSH20 0xFFFFFFFFFFFFFFFFFFFFFFFFFFFFFFFFFFFFFFFF AND PUSH1 0x1 DUP3 PUSH2 0xFFFF AND DUP2 SLOAD DUP2 LT PUSH2 0x87B JUMPI PUSH2 0x87A PUSH2 0x1B9C JUMP JUMPDEST JUMPDEST SWAP1 PUSH0 MSTORE PUSH1 0x20 PUSH0 KECCAK256 ADD PUSH0 SWAP1 SLOAD SWAP1 PUSH2 0x100 EXP SWAP1 DIV PUSH20 0xFFFFFFFFFFFFFFFFFFFFFFFFFFFFFFFFFFFFFFFF AND PUSH20 0xFFFFFFFFFFFFFFFFFFFFFFFFFFFFFFFFFFFFFFFF AND SUB PUSH2 0x8C7 JUMPI PUSH1 0x1 SWAP2 POP PUSH2 0x8DA JUMP JUMPDEST DUP1 DUP1 PUSH2 0x8D2 SWAP1 PUSH2 0x1C6B JUMP JUMPDEST SWAP2 POP POP PUSH2 0x83B JUMP JUMPDEST POP DUP1 PUSH2 0x941 JUMPI PUSH1 0x1 CALLER SWAP1 DUP1 PUSH1 0x1 DUP2 SLOAD ADD DUP1 DUP3 SSTORE DUP1 SWAP2 POP POP PUSH1 0x1 SWAP1 SUB SWAP1 PUSH0 MSTORE PUSH1 0x20 PUSH0 KECCAK256 ADD PUSH0 SWAP1 SWAP2 SWAP1 SWAP2 SWAP1 SWAP2 PUSH2 0x100 EXP DUP2 SLOAD DUP2 PUSH20 0xFFFFFFFFFFFFFFFFFFFFFFFFFFFFFFFFFFFFFFFF MUL NOT AND SWAP1 DUP4 PUSH20 0xFFFFFFFFFFFFFFFFFFFFFFFFFFFFFFFFFFFFFFFF AND MUL OR SWAP1 SSTORE POP JUMPDEST PUSH0 DUP3 PUSH3 0x989680 PUSH2 0x951 SWAP2 SWAP1 PUSH2 0x1EDE JUMP JUMPDEST SWAP1 POP PUSH32 0x0 PUSH20 0xFFFFFFFFFFFFFFFFFFFFFFFFFFFFFFFFFFFFFFFF AND PUSH4 0xA9059CBB CALLER PUSH8 0xDE0B6B3A7640000 DUP5 PUSH2 0x9A4 SWAP2 SWAP1 PUSH2 0x1F0E JUMP JUMPDEST PUSH1 0x40 MLOAD DUP4 PUSH4 0xFFFFFFFF AND PUSH1 0xE0 SHL DUP2 MSTORE PUSH1 0x4 ADD PUSH2 0x9C1 SWAP3 SWAP2 SWAP1 PUSH2 0x1F4F JUMP JUMPDEST PUSH1 0x20 PUSH1 0x40 MLOAD DUP1 DUP4 SUB DUP2 PUSH0 DUP8 GAS CALL ISZERO DUP1 ISZERO PUSH2 0x9DD JUMPI RETURNDATASIZE PUSH0 DUP1 RETURNDATACOPY RETURNDATASIZE PUSH0 REVERT JUMPDEST POP POP POP POP PUSH1 0x40 MLOAD RETURNDATASIZE PUSH1 0x1F NOT PUSH1 0x1F DUP3 ADD AND DUP3 ADD DUP1 PUSH1 0x40 MSTORE POP DUP2 ADD SWAP1 PUSH2 0xA01 SWAP2 SWAP1 PUSH2 0x1FAB JUMP JUMPDEST POP TIMESTAMP PUSH0 DUP1 CALLER PUSH20 0xFFFFFFFFFFFFFFFFFFFFFFFFFFFFFFFFFFFFFFFF AND PUSH20 0xFFFFFFFFFFFFFFFFFFFFFFFFFFFFFFFFFFFFFFFF AND DUP2 MSTORE PUSH1 0x20 ADD SWAP1 DUP2 MSTORE PUSH1 0x20 ADD PUSH0 KECCAK256 DUP2 SWAP1 SSTORE POP PUSH32 0x60237EB95A34E0AF997FDC10EA4EB2C64FEC8D49DF3996E657F28B28AD8A0AD9 CALLER DUP3 PUSH1 0x40 MLOAD PUSH2 0xA74 SWAP3 SWAP2 SWAP1 PUSH2 0x1F4F JUMP JUMPDEST PUSH1 0x40 MLOAD DUP1 SWAP2 SUB SWAP1 LOG1 PUSH0 SWAP5 POP POP POP POP POP SWAP1 JUMP JUMPDEST CALLER PUSH20 0xFFFFFFFFFFFFFFFFFFFFFFFFFFFFFFFFFFFFFFFF AND PUSH1 0x3 PUSH0 SWAP1 SLOAD SWAP1 PUSH2 0x100 EXP SWAP1 DIV PUSH20 0xFFFFFFFFFFFFFFFFFFFFFFFFFFFFFFFFFFFFFFFF AND PUSH20 0xFFFFFFFFFFFFFFFFFFFFFFFFFFFFFFFFFFFFFFFF AND EQ PUSH2 0xB15 JUMPI PUSH1 0x40 MLOAD PUSH32 0x8C379A000000000000000000000000000000000000000000000000000000000 DUP2 MSTORE PUSH1 0x4 ADD PUSH2 0xB0C SWAP1 PUSH2 0x1B7E JUMP JUMPDEST PUSH1 0x40 MLOAD DUP1 SWAP2 SUB SWAP1 REVERT JUMPDEST PUSH0 DUP1 PUSH0 DUP4 PUSH20 0xFFFFFFFFFFFFFFFFFFFFFFFFFFFFFFFFFFFFFFFF AND PUSH20 0xFFFFFFFFFFFFFFFFFFFFFFFFFFFFFFFFFFFFFFFF AND DUP2 MSTORE PUSH1 0x20 ADD SWAP1 DUP2 MSTORE PUSH1 0x20 ADD PUSH0 KECCAK256 SLOAD GT ISZERO PUSH2 0xB94 JUMPI PUSH1 0x40 MLOAD PUSH32 0xE64C65800000000000000000000000000000000000000000000000000000000 DUP2 MSTORE PUSH1 0x4 ADD PUSH2 0xB8B SWAP1 PUSH2 0x2020 JUMP JUMPDEST PUSH1 0x40 MLOAD DUP1 SWAP2 SUB SWAP1 REVERT JUMPDEST PUSH1 0x1 PUSH0 DUP1 DUP4 PUSH20 0xFFFFFFFFFFFFFFFFFFFFFFFFFFFFFFFFFFFFFFFF AND PUSH20 0xFFFFFFFFFFFFFFFFFFFFFFFFFFFFFFFFFFFFFFFF AND DUP2 MSTORE PUSH1 0x20 ADD SWAP1 DUP2 MSTORE PUSH1 0x20 ADD PUSH0 KECCAK256 DUP2 SWAP1 SSTORE POP PUSH1 0x2 DUP2 SWAP1 DUP1 PUSH1 0x1 DUP2 SLOAD ADD DUP1 DUP3 SSTORE DUP1 SWAP2 POP POP PUSH1 0x1 SWAP1 SUB SWAP1 PUSH0 MSTORE PUSH1 0x20 PUSH0 KECCAK256 ADD PUSH0 SWAP1 SWAP2 SWAP1 SWAP2 SWAP1 SWAP2 PUSH2 0x100 EXP DUP2 SLOAD DUP2 PUSH20 0xFFFFFFFFFFFFFFFFFFFFFFFFFFFFFFFFFFFFFFFF MUL NOT AND SWAP1 DUP4 PUSH20 0xFFFFFFFFFFFFFFFFFFFFFFFFFFFFFFFFFFFFFFFF AND MUL OR SWAP1 SSTORE POP POP JUMP JUMPDEST PUSH1 0x60 PUSH1 0x2 DUP1 SLOAD DUP1 PUSH1 0x20 MUL PUSH1 0x20 ADD PUSH1 0x40 MLOAD SWAP1 DUP2 ADD PUSH1 0x40 MSTORE DUP1 SWAP3 SWAP2 SWAP1 DUP2 DUP2 MSTORE PUSH1 0x20 ADD DUP3 DUP1 SLOAD DUP1 ISZERO PUSH2 0xCBA JUMPI PUSH1 0x20 MUL DUP3 ADD SWAP2 SWAP1 PUSH0 MSTORE PUSH1 0x20 PUSH0 KECCAK256 SWAP1 JUMPDEST DUP2 PUSH0 SWAP1 SLOAD SWAP1 PUSH2 0x100 EXP SWAP1 DIV PUSH20 0xFFFFFFFFFFFFFFFFFFFFFFFFFFFFFFFFFFFFFFFF AND PUSH20 0xFFFFFFFFFFFFFFFFFFFFFFFFFFFFFFFFFFFFFFFF AND DUP2 MSTORE PUSH1 0x20 ADD SWAP1 PUSH1 0x1 ADD SWAP1 DUP1 DUP4 GT PUSH2 0xC71 JUMPI JUMPDEST POP POP POP POP POP SWAP1 POP SWAP1 JUMP JUMPDEST PUSH0 PUSH1 0x1 DUP1 SLOAD SWAP1 POP SWAP1 POP SWAP1 JUMP JUMPDEST CALLER PUSH20 0xFFFFFFFFFFFFFFFFFFFFFFFFFFFFFFFFFFFFFFFF AND PUSH1 0x3 PUSH0 SWAP1 SLOAD SWAP1 PUSH2 0x100 EXP SWAP1 DIV PUSH20 0xFFFFFFFFFFFFFFFFFFFFFFFFFFFFFFFFFFFFFFFF AND PUSH20 0xFFFFFFFFFFFFFFFFFFFFFFFFFFFFFFFFFFFFFFFF AND EQ PUSH2 0xD5F JUMPI PUSH1 0x40 MLOAD PUSH32 0x8C379A000000000000000000000000000000000000000000000000000000000 DUP2 MSTORE PUSH1 0x4 ADD PUSH2 0xD56 SWAP1 PUSH2 0x1B7E JUMP JUMPDEST PUSH1 0x40 MLOAD DUP1 SWAP2 SUB SWAP1 REVERT JUMPDEST DUP1 PUSH1 0x3 PUSH0 PUSH2 0x100 EXP DUP2 SLOAD DUP2 PUSH20 0xFFFFFFFFFFFFFFFFFFFFFFFFFFFFFFFFFFFFFFFF MUL NOT AND SWAP1 DUP4 PUSH20 0xFFFFFFFFFFFFFFFFFFFFFFFFFFFFFFFFFFFFFFFF AND MUL OR SWAP1 SSTORE POP POP JUMP JUMPDEST PUSH0 DUP1 PUSH0 DUP4 PUSH20 0xFFFFFFFFFFFFFFFFFFFFFFFFFFFFFFFFFFFFFFFF AND PUSH20 0xFFFFFFFFFFFFFFFFFFFFFFFFFFFFFFFFFFFFFFFF AND DUP2 MSTORE PUSH1 0x20 ADD SWAP1 DUP2 MSTORE PUSH1 0x20 ADD PUSH0 KECCAK256 SLOAD SWAP1 POP SWAP2 SWAP1 POP JUMP JUMPDEST CALLER PUSH20 0xFFFFFFFFFFFFFFFFFFFFFFFFFFFFFFFFFFFFFFFF AND PUSH1 0x3 PUSH0 SWAP1 SLOAD SWAP1 PUSH2 0x100 EXP SWAP1 DIV PUSH20 0xFFFFFFFFFFFFFFFFFFFFFFFFFFFFFFFFFFFFFFFF AND PUSH20 0xFFFFFFFFFFFFFFFFFFFFFFFFFFFFFFFFFFFFFFFF AND EQ PUSH2 0xE76 JUMPI PUSH1 0x40 MLOAD PUSH32 0x8C379A000000000000000000000000000000000000000000000000000000000 DUP2 MSTORE PUSH1 0x4 ADD PUSH2 0xE6D SWAP1 PUSH2 0x1B7E JUMP JUMPDEST PUSH1 0x40 MLOAD DUP1 SWAP2 SUB SWAP1 REVERT JUMPDEST PUSH0 JUMPDEST DUP2 MLOAD DUP2 PUSH2 0xFFFF AND LT ISZERO PUSH2 0xFD8 JUMPI PUSH0 DUP1 PUSH0 DUP5 DUP5 PUSH2 0xFFFF AND DUP2 MLOAD DUP2 LT PUSH2 0xE9F JUMPI PUSH2 0xE9E PUSH2 0x1B9C JUMP JUMPDEST JUMPDEST PUSH1 0x20 MUL PUSH1 0x20 ADD ADD MLOAD PUSH20 0xFFFFFFFFFFFFFFFFFFFFFFFFFFFFFFFFFFFFFFFF AND PUSH20 0xFFFFFFFFFFFFFFFFFFFFFFFFFFFFFFFFFFFFFFFF AND DUP2 MSTORE PUSH1 0x20 ADD SWAP1 DUP2 MSTORE PUSH1 0x20 ADD PUSH0 KECCAK256 SLOAD GT PUSH2 0xFC5 JUMPI PUSH1 0x1 PUSH0 DUP1 DUP5 DUP5 PUSH2 0xFFFF AND DUP2 MLOAD DUP2 LT PUSH2 0xF01 JUMPI PUSH2 0xF00 PUSH2 0x1B9C JUMP JUMPDEST JUMPDEST PUSH1 0x20 MUL PUSH1 0x20 ADD ADD MLOAD PUSH20 0xFFFFFFFFFFFFFFFFFFFFFFFFFFFFFFFFFFFFFFFF AND PUSH20 0xFFFFFFFFFFFFFFFFFFFFFFFFFFFFFFFFFFFFFFFF AND DUP2 MSTORE PUSH1 0x20 ADD SWAP1 DUP2 MSTORE PUSH1 0x20 ADD PUSH0 KECCAK256 DUP2 SWAP1 SSTORE POP PUSH1 0x2 DUP3 DUP3 PUSH2 0xFFFF AND DUP2 MLOAD DUP2 LT PUSH2 0xF5F JUMPI PUSH2 0xF5E PUSH2 0x1B9C JUMP JUMPDEST JUMPDEST PUSH1 0x20 MUL PUSH1 0x20 ADD ADD MLOAD SWAP1 DUP1 PUSH1 0x1 DUP2 SLOAD ADD DUP1 DUP3 SSTORE DUP1 SWAP2 POP POP PUSH1 0x1 SWAP1 SUB SWAP1 PUSH0 MSTORE PUSH1 0x20 PUSH0 KECCAK256 ADD PUSH0 SWAP1 SWAP2 SWAP1 SWAP2 SWAP1 SWAP2 PUSH2 0x100 EXP DUP2 SLOAD DUP2 PUSH20 0xFFFFFFFFFFFFFFFFFFFFFFFFFFFFFFFFFFFFFFFF MUL NOT AND SWAP1 DUP4 PUSH20 0xFFFFFFFFFFFFFFFFFFFFFFFFFFFFFFFFFFFFFFFF AND MUL OR SWAP1 SSTORE POP JUMPDEST DUP1 DUP1 PUSH2 0xFD0 SWAP1 PUSH2 0x1C6B JUMP JUMPDEST SWAP2 POP POP PUSH2 0xE78 JUMP JUMPDEST POP POP JUMP JUMPDEST PUSH0 DUP1 PUSH0 PUSH1 0x2 DUP1 SLOAD SWAP1 POP SWAP1 POP PUSH0 DUP1 PUSH0 CALLER PUSH20 0xFFFFFFFFFFFFFFFFFFFFFFFFFFFFFFFFFFFFFFFF AND PUSH20 0xFFFFFFFFFFFFFFFFFFFFFFFFFFFFFFFFFFFFFFFF AND DUP2 MSTORE PUSH1 0x20 ADD SWAP1 DUP2 MSTORE PUSH1 0x20 ADD PUSH0 KECCAK256 SLOAD SUB PUSH2 0x1065 JUMPI PUSH1 0x40 MLOAD PUSH32 0xB8FDF0B000000000000000000000000000000000000000000000000000000000 DUP2 MSTORE PUSH1 0x4 ADD PUSH2 0x105C SWAP1 PUSH2 0x1D9B JUMP JUMPDEST PUSH1 0x40 MLOAD DUP1 SWAP2 SUB SWAP1 REVERT JUMPDEST PUSH1 0x1 PUSH0 DUP1 CALLER PUSH20 0xFFFFFFFFFFFFFFFFFFFFFFFFFFFFFFFFFFFFFFFF AND PUSH20 0xFFFFFFFFFFFFFFFFFFFFFFFFFFFFFFFFFFFFFFFF AND DUP2 MSTORE PUSH1 0x20 ADD SWAP1 DUP2 MSTORE PUSH1 0x20 ADD PUSH0 KECCAK256 SLOAD SUB PUSH2 0x1106 JUMPI PUSH1 0x1 PUSH2 0x12C PUSH0 DUP1 CALLER PUSH20 0xFFFFFFFFFFFFFFFFFFFFFFFFFFFFFFFFFFFFFFFF AND PUSH20 0xFFFFFFFFFFFFFFFFFFFFFFFFFFFFFFFFFFFFFFFF AND DUP2 MSTORE PUSH1 0x20 ADD SWAP1 DUP2 MSTORE PUSH1 0x20 ADD PUSH0 KECCAK256 SLOAD PUSH2 0x10F5 SWAP2 SWAP1 PUSH2 0x1CC1 JUMP JUMPDEST PUSH2 0x10FF SWAP2 SWAP1 PUSH2 0x1BF6 JUMP JUMPDEST SWAP2 POP PUSH2 0x1199 JUMP JUMPDEST PUSH1 0x1 PUSH0 DUP1 CALLER PUSH20 0xFFFFFFFFFFFFFFFFFFFFFFFFFFFFFFFFFFFFFFFF AND PUSH20 0xFFFFFFFFFFFFFFFFFFFFFFFFFFFFFFFFFFFFFFFF AND DUP2 MSTORE PUSH1 0x20 ADD SWAP1 DUP2 MSTORE PUSH1 0x20 ADD PUSH0 KECCAK256 SLOAD GT ISZERO PUSH2 0x1198 JUMPI PUSH2 0x12C PUSH0 DUP1 CALLER PUSH20 0xFFFFFFFFFFFFFFFFFFFFFFFFFFFFFFFFFFFFFFFF AND PUSH20 0xFFFFFFFFFFFFFFFFFFFFFFFFFFFFFFFFFFFFFFFF AND DUP2 MSTORE PUSH1 0x20 ADD SWAP1 DUP2 MSTORE PUSH1 0x20 ADD PUSH0 KECCAK256 SLOAD PUSH2 0x1195 SWAP2 SWAP1 PUSH2 0x1CC1 JUMP JUMPDEST SWAP2 POP JUMPDEST JUMPDEST DUP2 TIMESTAMP LT ISZERO PUSH2 0x11DC JUMPI PUSH1 0x40 MLOAD PUSH32 0x8C379A000000000000000000000000000000000000000000000000000000000 DUP2 MSTORE PUSH1 0x4 ADD PUSH2 0x11D3 SWAP1 PUSH2 0x1E03 JUMP JUMPDEST PUSH1 0x40 MLOAD DUP1 SWAP2 SUB SWAP1 REVERT JUMPDEST PUSH0 PUSH32 0x0 PUSH20 0xFFFFFFFFFFFFFFFFFFFFFFFFFFFFFFFFFFFFFFFF AND PUSH4 0x70A08231 ADDRESS PUSH1 0x40 MLOAD DUP3 PUSH4 0xFFFFFFFF AND PUSH1 0xE0 SHL DUP2 MSTORE PUSH1 0x4 ADD PUSH2 0x1236 SWAP2 SWAP1 PUSH2 0x1811 JUMP JUMPDEST PUSH1 0x20 PUSH1 0x40 MLOAD DUP1 DUP4 SUB DUP2 DUP7 GAS STATICCALL ISZERO DUP1 ISZERO PUSH2 0x1251 JUMPI RETURNDATASIZE PUSH0 DUP1 RETURNDATACOPY RETURNDATASIZE PUSH0 REVERT JUMPDEST POP POP POP POP PUSH1 0x40 MLOAD RETURNDATASIZE PUSH1 0x1F NOT PUSH1 0x1F DUP3 ADD AND DUP3 ADD DUP1 PUSH1 0x40 MSTORE POP DUP2 ADD SWAP1 PUSH2 0x1275 SWAP2 SWAP1 PUSH2 0x1E4B JUMP JUMPDEST GT PUSH2 0x12B5 JUMPI PUSH1 0x40 MLOAD PUSH32 0x8C379A000000000000000000000000000000000000000000000000000000000 DUP2 MSTORE PUSH1 0x4 ADD PUSH2 0x12AC SWAP1 PUSH2 0x1EC0 JUMP JUMPDEST PUSH1 0x40 MLOAD DUP1 SWAP2 SUB SWAP1 REVERT JUMPDEST PUSH0 DUP2 PUSH3 0x989680 PUSH2 0x12C5 SWAP2 SWAP1 PUSH2 0x1EDE JUMP JUMPDEST SWAP1 POP PUSH32 0x0 PUSH20 0xFFFFFFFFFFFFFFFFFFFFFFFFFFFFFFFFFFFFFFFF AND PUSH4 0xA9059CBB CALLER PUSH8 0xDE0B6B3A7640000 DUP5 PUSH2 0x1318 SWAP2 SWAP1 PUSH2 0x1F0E JUMP JUMPDEST PUSH1 0x40 MLOAD DUP4 PUSH4 0xFFFFFFFF AND PUSH1 0xE0 SHL DUP2 MSTORE PUSH1 0x4 ADD PUSH2 0x1335 SWAP3 SWAP2 SWAP1 PUSH2 0x1F4F JUMP JUMPDEST PUSH1 0x20 PUSH1 0x40 MLOAD DUP1 DUP4 SUB DUP2 PUSH0 DUP8 GAS CALL ISZERO DUP1 ISZERO PUSH2 0x1351 JUMPI RETURNDATASIZE PUSH0 DUP1 RETURNDATACOPY RETURNDATASIZE PUSH0 REVERT JUMPDEST POP POP POP POP PUSH1 0x40 MLOAD RETURNDATASIZE PUSH1 0x1F NOT PUSH1 0x1F DUP3 ADD AND DUP3 ADD DUP1 PUSH1 0x40 MSTORE POP DUP2 ADD SWAP1 PUSH2 0x1375 SWAP2 SWAP1 PUSH2 0x1FAB JUMP JUMPDEST POP TIMESTAMP PUSH0 DUP1 CALLER PUSH20 0xFFFFFFFFFFFFFFFFFFFFFFFFFFFFFFFFFFFFFFFF AND PUSH20 0xFFFFFFFFFFFFFFFFFFFFFFFFFFFFFFFFFFFFFFFF AND DUP2 MSTORE PUSH1 0x20 ADD SWAP1 DUP2 MSTORE PUSH1 0x20 ADD PUSH0 KECCAK256 DUP2 SWAP1 SSTORE POP PUSH0 JUMPDEST PUSH1 0x1 DUP1 SLOAD SWAP1 POP DUP2 PUSH2 0xFFFF AND LT ISZERO PUSH2 0x153D JUMPI CALLER PUSH20 0xFFFFFFFFFFFFFFFFFFFFFFFFFFFFFFFFFFFFFFFF AND PUSH1 0x1 DUP3 PUSH2 0xFFFF AND DUP2 SLOAD DUP2 LT PUSH2 0x13F9 JUMPI PUSH2 0x13F8 PUSH2 0x1B9C JUMP JUMPDEST JUMPDEST SWAP1 PUSH0 MSTORE PUSH1 0x20 PUSH0 KECCAK256 ADD PUSH0 SWAP1 SLOAD SWAP1 PUSH2 0x100 EXP SWAP1 DIV PUSH20 0xFFFFFFFFFFFFFFFFFFFFFFFFFFFFFFFFFFFFFFFF AND PUSH20 0xFFFFFFFFFFFFFFFFFFFFFFFFFFFFFFFFFFFFFFFF AND SUB PUSH2 0x152A JUMPI PUSH1 0x1 PUSH0 PUSH2 0x1449 SWAP2 SWAP1 PUSH2 0x1768 JUMP JUMPDEST PUSH1 0x1 CALLER SWAP1 DUP1 PUSH1 0x1 DUP2 SLOAD ADD DUP1 DUP3 SSTORE DUP1 SWAP2 POP POP PUSH1 0x1 SWAP1 SUB SWAP1 PUSH0 MSTORE PUSH1 0x20 PUSH0 KECCAK256 ADD PUSH0 SWAP1 SWAP2 SWAP1 SWAP2 SWAP1 SWAP2 PUSH2 0x100 EXP DUP2 SLOAD DUP2 PUSH20 0xFFFFFFFFFFFFFFFFFFFFFFFFFFFFFFFFFFFFFFFF MUL NOT AND SWAP1 DUP4 PUSH20 0xFFFFFFFFFFFFFFFFFFFFFFFFFFFFFFFFFFFFFFFF AND MUL OR SWAP1 SSTORE POP PUSH32 0x3DD8B3A7A629ABB0CCD684DC47A495666A60E4BD8F7614AEED87088DFE7CEDE6 PUSH1 0x1 DUP1 SLOAD SWAP1 POP PUSH1 0x40 MLOAD PUSH2 0x14DD SWAP2 SWAP1 PUSH2 0x17B9 JUMP JUMPDEST PUSH1 0x40 MLOAD DUP1 SWAP2 SUB SWAP1 LOG1 PUSH32 0x60237EB95A34E0AF997FDC10EA4EB2C64FEC8D49DF3996E657F28B28AD8A0AD9 CALLER DUP4 PUSH1 0x40 MLOAD PUSH2 0x1516 SWAP3 SWAP2 SWAP1 PUSH2 0x1F4F JUMP JUMPDEST PUSH1 0x40 MLOAD DUP1 SWAP2 SUB SWAP1 LOG1 PUSH0 SWAP5 POP POP POP POP POP PUSH2 0x161A JUMP JUMPDEST DUP1 DUP1 PUSH2 0x1535 SWAP1 PUSH2 0x1C6B JUMP JUMPDEST SWAP2 POP POP PUSH2 0x13B9 JUMP JUMPDEST POP PUSH32 0x3DD8B3A7A629ABB0CCD684DC47A495666A60E4BD8F7614AEED87088DFE7CEDE6 PUSH1 0x1 DUP1 SLOAD SWAP1 POP PUSH1 0x40 MLOAD PUSH2 0x1572 SWAP2 SWAP1 PUSH2 0x17B9 JUMP JUMPDEST PUSH1 0x40 MLOAD DUP1 SWAP2 SUB SWAP1 LOG1 PUSH32 0x60237EB95A34E0AF997FDC10EA4EB2C64FEC8D49DF3996E657F28B28AD8A0AD9 CALLER DUP3 PUSH1 0x40 MLOAD PUSH2 0x15AB SWAP3 SWAP2 SWAP1 PUSH2 0x1F4F JUMP JUMPDEST PUSH1 0x40 MLOAD DUP1 SWAP2 SUB SWAP1 LOG1 PUSH1 0x1 CALLER SWAP1 DUP1 PUSH1 0x1 DUP2 SLOAD ADD DUP1 DUP3 SSTORE DUP1 SWAP2 POP POP PUSH1 0x1 SWAP1 SUB SWAP1 PUSH0 MSTORE PUSH1 0x20 PUSH0 KECCAK256 ADD PUSH0 SWAP1 SWAP2 SWAP1 SWAP2 SWAP1 SWAP2 PUSH2 0x100 EXP DUP2 SLOAD DUP2 PUSH20 0xFFFFFFFFFFFFFFFFFFFFFFFFFFFFFFFFFFFFFFFF MUL NOT AND SWAP1 DUP4 PUSH20 0xFFFFFFFFFFFFFFFFFFFFFFFFFFFFFFFFFFFFFFFF AND MUL OR SWAP1 SSTORE POP PUSH0 SWAP4 POP POP POP POP JUMPDEST SWAP1 JUMP JUMPDEST PUSH1 0x60 PUSH1 0x1 DUP1 SLOAD DUP1 PUSH1 0x20 MUL PUSH1 0x20 ADD PUSH1 0x40 MLOAD SWAP1 DUP2 ADD PUSH1 0x40 MSTORE DUP1 SWAP3 SWAP2 SWAP1 DUP2 DUP2 MSTORE PUSH1 0x20 ADD DUP3 DUP1 SLOAD DUP1 ISZERO PUSH2 0x169E JUMPI PUSH1 0x20 MUL DUP3 ADD SWAP2 SWAP1 PUSH0 MSTORE PUSH1 0x20 PUSH0 KECCAK256 SWAP1 JUMPDEST DUP2 PUSH0 SWAP1 SLOAD SWAP1 PUSH2 0x100 EXP SWAP1 DIV PUSH20 0xFFFFFFFFFFFFFFFFFFFFFFFFFFFFFFFFFFFFFFFF AND PUSH20 0xFFFFFFFFFFFFFFFFFFFFFFFFFFFFFFFFFFFFFFFF AND DUP2 MSTORE PUSH1 0x20 ADD SWAP1 PUSH1 0x1 ADD SWAP1 DUP1 DUP4 GT PUSH2 0x1655 JUMPI JUMPDEST POP POP POP POP POP SWAP1 POP SWAP1 JUMP JUMPDEST PUSH0 PUSH8 0xDE0B6B3A7640000 PUSH32 0x0 PUSH20 0xFFFFFFFFFFFFFFFFFFFFFFFFFFFFFFFFFFFFFFFF AND PUSH4 0x70A08231 ADDRESS PUSH1 0x40 MLOAD DUP3 PUSH4 0xFFFFFFFF AND PUSH1 0xE0 SHL DUP2 MSTORE PUSH1 0x4 ADD PUSH2 0x170B SWAP2 SWAP1 PUSH2 0x1811 JUMP JUMPDEST PUSH1 0x20 PUSH1 0x40 MLOAD DUP1 DUP4 SUB DUP2 DUP7 GAS STATICCALL ISZERO DUP1 ISZERO PUSH2 0x1726 JUMPI RETURNDATASIZE PUSH0 DUP1 RETURNDATACOPY RETURNDATASIZE PUSH0 REVERT JUMPDEST POP POP POP POP PUSH1 0x40 MLOAD RETURNDATASIZE PUSH1 0x1F NOT PUSH1 0x1F DUP3 ADD AND DUP3 ADD DUP1 PUSH1 0x40 MSTORE POP DUP2 ADD SWAP1 PUSH2 0x174A SWAP2 SWAP1 PUSH2 0x1E4B JUMP JUMPDEST PUSH2 0x1754 SWAP2 SWAP1 PUSH2 0x1EDE JUMP JUMPDEST SWAP1 POP SWAP1 JUMP JUMPDEST PUSH1 0x1 PUSH0 PUSH2 0x1766 SWAP2 SWAP1 PUSH2 0x1768 JUMP JUMPDEST JUMP JUMPDEST POP DUP1 SLOAD PUSH0 DUP3 SSTORE SWAP1 PUSH0 MSTORE PUSH1 0x20 PUSH0 KECCAK256 SWAP1 DUP2 ADD SWAP1 PUSH2 0x1783 SWAP2 SWAP1 PUSH2 0x1786 JUMP JUMPDEST POP JUMP JUMPDEST JUMPDEST DUP1 DUP3 GT ISZERO PUSH2 0x179D JUMPI PUSH0 DUP2 PUSH0 SWAP1 SSTORE POP PUSH1 0x1 ADD PUSH2 0x1787 JUMP JUMPDEST POP SWAP1 JUMP JUMPDEST PUSH0 DUP2 SWAP1 POP SWAP2 SWAP1 POP JUMP JUMPDEST PUSH2 0x17B3 DUP2 PUSH2 0x17A1 JUMP JUMPDEST DUP3 MSTORE POP POP JUMP JUMPDEST PUSH0 PUSH1 0x20 DUP3 ADD SWAP1 POP PUSH2 0x17CC PUSH0 DUP4 ADD DUP5 PUSH2 0x17AA JUMP JUMPDEST SWAP3 SWAP2 POP POP JUMP JUMPDEST PUSH0 PUSH20 0xFFFFFFFFFFFFFFFFFFFFFFFFFFFFFFFFFFFFFFFF DUP3 AND SWAP1 POP SWAP2 SWAP1 POP JUMP JUMPDEST PUSH0 PUSH2 0x17FB DUP3 PUSH2 0x17D2 JUMP JUMPDEST SWAP1 POP SWAP2 SWAP1 POP JUMP JUMPDEST PUSH2 0x180B DUP2 PUSH2 0x17F1 JUMP JUMPDEST DUP3 MSTORE POP POP JUMP JUMPDEST PUSH0 PUSH1 0x20 DUP3 ADD SWAP1 POP PUSH2 0x1824 PUSH0 DUP4 ADD DUP5 PUSH2 0x1802 JUMP JUMPDEST SWAP3 SWAP2 POP POP JUMP JUMPDEST PUSH0 PUSH1 0x40 MLOAD SWAP1 POP SWAP1 JUMP JUMPDEST PUSH0 DUP1 REVERT JUMPDEST PUSH0 DUP1 REVERT JUMPDEST PUSH2 0x1844 DUP2 PUSH2 0x17F1 JUMP JUMPDEST DUP2 EQ PUSH2 0x184E JUMPI PUSH0 DUP1 REVERT JUMPDEST POP JUMP JUMPDEST PUSH0 DUP2 CALLDATALOAD SWAP1 POP PUSH2 0x185F DUP2 PUSH2 0x183B JUMP JUMPDEST SWAP3 SWAP2 POP POP JUMP JUMPDEST PUSH0 PUSH1 0x20 DUP3 DUP5 SUB SLT ISZERO PUSH2 0x187A JUMPI PUSH2 0x1879 PUSH2 0x1833 JUMP JUMPDEST JUMPDEST PUSH0 PUSH2 0x1887 DUP5 DUP3 DUP6 ADD PUSH2 0x1851 JUMP JUMPDEST SWAP2 POP POP SWAP3 SWAP2 POP POP JUMP JUMPDEST PUSH0 DUP2 MLOAD SWAP1 POP SWAP2 SWAP1 POP JUMP JUMPDEST PUSH0 DUP3 DUP3 MSTORE PUSH1 0x20 DUP3 ADD SWAP1 POP SWAP3 SWAP2 POP POP JUMP JUMPDEST PUSH0 DUP2 SWAP1 POP PUSH1 0x20 DUP3 ADD SWAP1 POP SWAP2 SWAP1 POP JUMP JUMPDEST PUSH2 0x18C2 DUP2 PUSH2 0x17F1 JUMP JUMPDEST DUP3 MSTORE POP POP JUMP JUMPDEST PUSH0 PUSH2 0x18D3 DUP4 DUP4 PUSH2 0x18B9 JUMP JUMPDEST PUSH1 0x20 DUP4 ADD SWAP1 POP SWAP3 SWAP2 POP POP JUMP JUMPDEST PUSH0 PUSH1 0x20 DUP3 ADD SWAP1 POP SWAP2 SWAP1 POP JUMP JUMPDEST PUSH0 PUSH2 0x18F5 DUP3 PUSH2 0x1890 JUMP JUMPDEST PUSH2 0x18FF DUP2 DUP6 PUSH2 0x189A JUMP JUMPDEST SWAP4 POP PUSH2 0x190A DUP4 PUSH2 0x18AA JUMP JUMPDEST DUP1 PUSH0 JUMPDEST DUP4 DUP2 LT ISZERO PUSH2 0x193A JUMPI DUP2 MLOAD PUSH2 0x1921 DUP9 DUP3 PUSH2 0x18C8 JUMP JUMPDEST SWAP8 POP PUSH2 0x192C DUP4 PUSH2 0x18DF JUMP JUMPDEST SWAP3 POP POP PUSH1 0x1 DUP2 ADD SWAP1 POP PUSH2 0x190D JUMP JUMPDEST POP DUP6 SWAP4 POP POP POP POP SWAP3 SWAP2 POP POP JUMP JUMPDEST PUSH0 PUSH1 0x20 DUP3 ADD SWAP1 POP DUP2 DUP2 SUB PUSH0 DUP4 ADD MSTORE PUSH2 0x195F DUP2 DUP5 PUSH2 0x18EB JUMP JUMPDEST SWAP1 POP SWAP3 SWAP2 POP POP JUMP JUMPDEST PUSH0 DUP1 REVERT JUMPDEST PUSH0 PUSH1 0x1F NOT PUSH1 0x1F DUP4 ADD AND SWAP1 POP SWAP2 SWAP1 POP JUMP JUMPDEST PUSH32 0x4E487B7100000000000000000000000000000000000000000000000000000000 PUSH0 MSTORE PUSH1 0x41 PUSH1 0x4 MSTORE PUSH1 0x24 PUSH0 REVERT JUMPDEST PUSH2 0x19B1 DUP3 PUSH2 0x196B JUMP JUMPDEST DUP2 ADD DUP2 DUP2 LT PUSH8 0xFFFFFFFFFFFFFFFF DUP3 GT OR ISZERO PUSH2 0x19D0 JUMPI PUSH2 0x19CF PUSH2 0x197B JUMP JUMPDEST JUMPDEST DUP1 PUSH1 0x40 MSTORE POP POP POP JUMP JUMPDEST PUSH0 PUSH2 0x19E2 PUSH2 0x182A JUMP JUMPDEST SWAP1 POP PUSH2 0x19EE DUP3 DUP3 PUSH2 0x19A8 JUMP JUMPDEST SWAP2 SWAP1 POP JUMP JUMPDEST PUSH0 PUSH8 0xFFFFFFFFFFFFFFFF DUP3 GT ISZERO PUSH2 0x1A0D JUMPI PUSH2 0x1A0C PUSH2 0x197B JUMP JUMPDEST JUMPDEST PUSH1 0x20 DUP3 MUL SWAP1 POP PUSH1 0x20 DUP2 ADD SWAP1 POP SWAP2 SWAP1 POP JUMP JUMPDEST PUSH0 DUP1 REVERT JUMPDEST PUSH0 PUSH2 0x1A34 PUSH2 0x1A2F DUP5 PUSH2 0x19F3 JUMP JUMPDEST PUSH2 0x19D9 JUMP JUMPDEST SWAP1 POP DUP1 DUP4 DUP3 MSTORE PUSH1 0x20 DUP3 ADD SWAP1 POP PUSH1 0x20 DUP5 MUL DUP4 ADD DUP6 DUP2 GT ISZERO PUSH2 0x1A57 JUMPI PUSH2 0x1A56 PUSH2 0x1A1E JUMP JUMPDEST JUMPDEST DUP4 JUMPDEST DUP2 DUP2 LT ISZERO PUSH2 0x1A80 JUMPI DUP1 PUSH2 0x1A6C DUP9 DUP3 PUSH2 0x1851 JUMP JUMPDEST DUP5 MSTORE PUSH1 0x20 DUP5 ADD SWAP4 POP POP PUSH1 0x20 DUP2 ADD SWAP1 POP PUSH2 0x1A59 JUMP JUMPDEST POP POP POP SWAP4 SWAP3 POP POP POP JUMP JUMPDEST PUSH0 DUP3 PUSH1 0x1F DUP4 ADD SLT PUSH2 0x1A9E JUMPI PUSH2 0x1A9D PUSH2 0x1967 JUMP JUMPDEST JUMPDEST DUP2 CALLDATALOAD PUSH2 0x1AAE DUP5 DUP3 PUSH1 0x20 DUP7 ADD PUSH2 0x1A22 JUMP JUMPDEST SWAP2 POP POP SWAP3 SWAP2 POP POP JUMP JUMPDEST PUSH0 PUSH1 0x20 DUP3 DUP5 SUB SLT ISZERO PUSH2 0x1ACC JUMPI PUSH2 0x1ACB PUSH2 0x1833 JUMP JUMPDEST JUMPDEST PUSH0 DUP3 ADD CALLDATALOAD PUSH8 0xFFFFFFFFFFFFFFFF DUP2 GT ISZERO PUSH2 0x1AE9 JUMPI PUSH2 0x1AE8 PUSH2 0x1837 JUMP JUMPDEST JUMPDEST PUSH2 0x1AF5 DUP5 DUP3 DUP6 ADD PUSH2 0x1A8A JUMP JUMPDEST SWAP2 POP POP SWAP3 SWAP2 POP POP JUMP JUMPDEST PUSH0 DUP3 DUP3 MSTORE PUSH1 0x20 DUP3 ADD SWAP1 POP SWAP3 SWAP2 POP POP JUMP JUMPDEST PUSH32 0x6F6E6C792061646D696E2063616E20696E766F6B6520746869732066756E6374 PUSH0 DUP3 ADD MSTORE PUSH32 0x696F6E0000000000000000000000000000000000000000000000000000000000 PUSH1 0x20 DUP3 ADD MSTORE POP JUMP JUMPDEST PUSH0 PUSH2 0x1B68 PUSH1 0x23 DUP4 PUSH2 0x1AFE JUMP JUMPDEST SWAP2 POP PUSH2 0x1B73 DUP3 PUSH2 0x1B0E JUMP JUMPDEST PUSH1 0x40 DUP3 ADD SWAP1 POP SWAP2 SWAP1 POP JUMP JUMPDEST PUSH0 PUSH1 0x20 DUP3 ADD SWAP1 POP DUP2 DUP2 SUB PUSH0 DUP4 ADD MSTORE PUSH2 0x1B95 DUP2 PUSH2 0x1B5C JUMP JUMPDEST SWAP1 POP SWAP2 SWAP1 POP JUMP JUMPDEST PUSH32 0x4E487B7100000000000000000000000000000000000000000000000000000000 PUSH0 MSTORE PUSH1 0x32 PUSH1 0x4 MSTORE PUSH1 0x24 PUSH0 REVERT JUMPDEST PUSH32 0x4E487B7100000000000000000000000000000000000000000000000000000000 PUSH0 MSTORE PUSH1 0x11 PUSH1 0x4 MSTORE PUSH1 0x24 PUSH0 REVERT JUMPDEST PUSH0 PUSH2 0x1C00 DUP3 PUSH2 0x17A1 JUMP JUMPDEST SWAP2 POP PUSH2 0x1C0B DUP4 PUSH2 0x17A1 JUMP JUMPDEST SWAP3 POP DUP3 DUP3 SUB SWAP1 POP DUP2 DUP2 GT ISZERO PUSH2 0x1C23 JUMPI PUSH2 0x1C22 PUSH2 0x1BC9 JUMP JUMPDEST JUMPDEST SWAP3 SWAP2 POP POP JUMP JUMPDEST PUSH0 PUSH2 0xFFFF DUP3 AND SWAP1 POP SWAP2 SWAP1 POP JUMP JUMPDEST PUSH0 PUSH2 0x1C40 DUP3 PUSH2 0x1C29 JUMP JUMPDEST SWAP2 POP PUSH2 0x1C4B DUP4 PUSH2 0x1C29 JUMP JUMPDEST SWAP3 POP DUP3 DUP3 ADD SWAP1 POP PUSH2 0xFFFF DUP2 GT ISZERO PUSH2 0x1C65 JUMPI PUSH2 0x1C64 PUSH2 0x1BC9 JUMP JUMPDEST JUMPDEST SWAP3 SWAP2 POP POP JUMP JUMPDEST PUSH0 PUSH2 0x1C75 DUP3 PUSH2 0x1C29 JUMP JUMPDEST SWAP2 POP PUSH2 0xFFFF DUP3 SUB PUSH2 0x1C89 JUMPI PUSH2 0x1C88 PUSH2 0x1BC9 JUMP JUMPDEST JUMPDEST PUSH1 0x1 DUP3 ADD SWAP1 POP SWAP2 SWAP1 POP JUMP JUMPDEST PUSH32 0x4E487B7100000000000000000000000000000000000000000000000000000000 PUSH0 MSTORE PUSH1 0x31 PUSH1 0x4 MSTORE PUSH1 0x24 PUSH0 REVERT JUMPDEST PUSH0 PUSH2 0x1CCB DUP3 PUSH2 0x17A1 JUMP JUMPDEST SWAP2 POP PUSH2 0x1CD6 DUP4 PUSH2 0x17A1 JUMP JUMPDEST SWAP3 POP DUP3 DUP3 ADD SWAP1 POP DUP1 DUP3 GT ISZERO PUSH2 0x1CEE JUMPI PUSH2 0x1CED PUSH2 0x1BC9 JUMP JUMPDEST JUMPDEST SWAP3 SWAP2 POP POP JUMP JUMPDEST PUSH32 0x4E487B7100000000000000000000000000000000000000000000000000000000 PUSH0 MSTORE PUSH1 0x12 PUSH1 0x4 MSTORE PUSH1 0x24 PUSH0 REVERT JUMPDEST PUSH0 PUSH2 0x1D2B DUP3 PUSH2 0x17A1 JUMP JUMPDEST SWAP2 POP PUSH2 0x1D36 DUP4 PUSH2 0x17A1 JUMP JUMPDEST SWAP3 POP DUP3 PUSH2 0x1D46 JUMPI PUSH2 0x1D45 PUSH2 0x1CF4 JUMP JUMPDEST JUMPDEST DUP3 DUP3 MOD SWAP1 POP SWAP3 SWAP2 POP POP JUMP JUMPDEST PUSH32 0x4E6F7420616E20656C696769626C652075736572210000000000000000000000 PUSH0 DUP3 ADD MSTORE POP JUMP JUMPDEST PUSH0 PUSH2 0x1D85 PUSH1 0x15 DUP4 PUSH2 0x1AFE JUMP JUMPDEST SWAP2 POP PUSH2 0x1D90 DUP3 PUSH2 0x1D51 JUMP JUMPDEST PUSH1 0x20 DUP3 ADD SWAP1 POP SWAP2 SWAP1 POP JUMP JUMPDEST PUSH0 PUSH1 0x20 DUP3 ADD SWAP1 POP DUP2 DUP2 SUB PUSH0 DUP4 ADD MSTORE PUSH2 0x1DB2 DUP2 PUSH2 0x1D79 JUMP JUMPDEST SWAP1 POP SWAP2 SWAP1 POP JUMP JUMPDEST PUSH32 0x4F6E636520706572207765656B00000000000000000000000000000000000000 PUSH0 DUP3 ADD MSTORE POP JUMP JUMPDEST PUSH0 PUSH2 0x1DED PUSH1 0xD DUP4 PUSH2 0x1AFE JUMP JUMPDEST SWAP2 POP PUSH2 0x1DF8 DUP3 PUSH2 0x1DB9 JUMP JUMPDEST PUSH1 0x20 DUP3 ADD SWAP1 POP SWAP2 SWAP1 POP JUMP JUMPDEST PUSH0 PUSH1 0x20 DUP3 ADD SWAP1 POP DUP2 DUP2 SUB PUSH0 DUP4 ADD MSTORE PUSH2 0x1E1A DUP2 PUSH2 0x1DE1 JUMP JUMPDEST SWAP1 POP SWAP2 SWAP1 POP JUMP JUMPDEST PUSH2 0x1E2A DUP2 PUSH2 0x17A1 JUMP JUMPDEST DUP2 EQ PUSH2 0x1E34 JUMPI PUSH0 DUP1 REVERT JUMPDEST POP JUMP JUMPDEST PUSH0 DUP2 MLOAD SWAP1 POP PUSH2 0x1E45 DUP2 PUSH2 0x1E21 JUMP JUMPDEST SWAP3 SWAP2 POP POP JUMP JUMPDEST PUSH0 PUSH1 0x20 DUP3 DUP5 SUB SLT ISZERO PUSH2 0x1E60 JUMPI PUSH2 0x1E5F PUSH2 0x1833 JUMP JUMPDEST JUMPDEST PUSH0 PUSH2 0x1E6D DUP5 DUP3 DUP6 ADD PUSH2 0x1E37 JUMP JUMPDEST SWAP2 POP POP SWAP3 SWAP2 POP POP JUMP JUMPDEST PUSH32 0x456D707479207661756C74210000000000000000000000000000000000000000 PUSH0 DUP3 ADD MSTORE POP JUMP JUMPDEST PUSH0 PUSH2 0x1EAA PUSH1 0xC DUP4 PUSH2 0x1AFE JUMP JUMPDEST SWAP2 POP PUSH2 0x1EB5 DUP3 PUSH2 0x1E76 JUMP JUMPDEST PUSH1 0x20 DUP3 ADD SWAP1 POP SWAP2 SWAP1 POP JUMP JUMPDEST PUSH0 PUSH1 0x20 DUP3 ADD SWAP1 POP DUP2 DUP2 SUB PUSH0 DUP4 ADD MSTORE PUSH2 0x1ED7 DUP2 PUSH2 0x1E9E JUMP JUMPDEST SWAP1 POP SWAP2 SWAP1 POP JUMP JUMPDEST PUSH0 PUSH2 0x1EE8 DUP3 PUSH2 0x17A1 JUMP JUMPDEST SWAP2 POP PUSH2 0x1EF3 DUP4 PUSH2 0x17A1 JUMP JUMPDEST SWAP3 POP DUP3 PUSH2 0x1F03 JUMPI PUSH2 0x1F02 PUSH2 0x1CF4 JUMP JUMPDEST JUMPDEST DUP3 DUP3 DIV SWAP1 POP SWAP3 SWAP2 POP POP JUMP JUMPDEST PUSH0 PUSH2 0x1F18 DUP3 PUSH2 0x17A1 JUMP JUMPDEST SWAP2 POP PUSH2 0x1F23 DUP4 PUSH2 0x17A1 JUMP JUMPDEST SWAP3 POP DUP3 DUP3 MUL PUSH2 0x1F31 DUP2 PUSH2 0x17A1 JUMP JUMPDEST SWAP2 POP DUP3 DUP3 DIV DUP5 EQ DUP4 ISZERO OR PUSH2 0x1F48 JUMPI PUSH2 0x1F47 PUSH2 0x1BC9 JUMP JUMPDEST JUMPDEST POP SWAP3 SWAP2 POP POP JUMP JUMPDEST PUSH0 PUSH1 0x40 DUP3 ADD SWAP1 POP PUSH2 0x1F62 PUSH0 DUP4 ADD DUP6 PUSH2 0x1802 JUMP JUMPDEST PUSH2 0x1F6F PUSH1 0x20 DUP4 ADD DUP5 PUSH2 0x17AA JUMP JUMPDEST SWAP4 SWAP3 POP POP POP JUMP JUMPDEST PUSH0 DUP2 ISZERO ISZERO SWAP1 POP SWAP2 SWAP1 POP JUMP JUMPDEST PUSH2 0x1F8A DUP2 PUSH2 0x1F76 JUMP JUMPDEST DUP2 EQ PUSH2 0x1F94 JUMPI PUSH0 DUP1 REVERT JUMPDEST POP JUMP JUMPDEST PUSH0 DUP2 MLOAD SWAP1 POP PUSH2 0x1FA5 DUP2 PUSH2 0x1F81 JUMP JUMPDEST SWAP3 SWAP2 POP POP JUMP JUMPDEST PUSH0 PUSH1 0x20 DUP3 DUP5 SUB SLT ISZERO PUSH2 0x1FC0 JUMPI PUSH2 0x1FBF PUSH2 0x1833 JUMP JUMPDEST JUMPDEST PUSH0 PUSH2 0x1FCD DUP5 DUP3 DUP6 ADD PUSH2 0x1F97 JUMP JUMPDEST SWAP2 POP POP SWAP3 SWAP2 POP POP JUMP JUMPDEST PUSH32 0x5573657220657869737400000000000000000000000000000000000000000000 PUSH0 DUP3 ADD MSTORE POP JUMP JUMPDEST PUSH0 PUSH2 0x200A PUSH1 0xA DUP4 PUSH2 0x1AFE JUMP JUMPDEST SWAP2 POP PUSH2 0x2015 DUP3 PUSH2 0x1FD6 JUMP JUMPDEST PUSH1 0x20 DUP3 ADD SWAP1 POP SWAP2 SWAP1 POP JUMP JUMPDEST PUSH0 PUSH1 0x20 DUP3 ADD SWAP1 POP DUP2 DUP2 SUB PUSH0 DUP4 ADD MSTORE PUSH2 0x2037 DUP2 PUSH2 0x1FFE JUMP JUMPDEST SWAP1 POP SWAP2 SWAP1 POP JUMP INVALID LOG2 PUSH5 0x6970667358 0x22 SLT KECCAK256 0xCB TLOAD 0x2F EXTCODECOPY SWAP6 SGT SWAP11 0xD3 0xD4 ORIGIN SSTORE GASLIMIT PUSH18 0x182C9FFF2DDF5D73F1E90C69003504407864 DUP14 PUSH5 0x736F6C6343 STOP ADDMOD BYTE STOP CALLER "
				},
				"gasEstimates": {
					"creation": {
						"codeDepositCost": "1661600",
						"executionCost": "infinite",
						"totalCost": "infinite"
					},
					"external": {
						"AddEligibleUser(address)": "75698",
						"AddMultipleEliglibleUser(address[])": "infinite",
						"ChangeAdmin(address)": "26929",
						"ClaimReward()": "infinite",
						"CurrentAdmin()": "2538",
						"CurrentWeekStart()": "2426",
						"ReadOnlyBalance4Dev()": "infinite",
						"RemoveEligibleUser(address)": "infinite",
						"TotalAddressAWeek()": "infinite",
						"TotalUserAWeek()": "2463",
						"lis()": "infinite",
						"returndf(address)": "2896",
						"test5minsClaim()": "infinite"
					},
					"internal": {
						"ResetTotalClaim()": "infinite"
					}
				},
				"methodIdentifiers": {
					"AddEligibleUser(address)": "7a6d918e",
					"AddMultipleEliglibleUser(address[])": "b7f7e6f0",
					"ChangeAdmin(address)": "927cc064",
					"ClaimReward()": "79372f9a",
					"CurrentAdmin()": "397de728",
					"CurrentWeekStart()": "1c9bbe1d",
					"ReadOnlyBalance4Dev()": "f615a3f7",
					"RemoveEligibleUser(address)": "5e0ca3b9",
					"TotalAddressAWeek()": "e4b7a9c0",
					"TotalUserAWeek()": "8dc7b30d",
					"lis()": "7eca453d",
					"returndf(address)": "b70cbe35",
					"test5minsClaim()": "c8804c71"
				}
			},
			"storageLayout": {
				"storage": [
					{
						"astId": 37,
						"contract": "contracts/build_bounty/main_build/reward_elig.sol:RewardElig",
						"label": "EligibleUser",
						"offset": 0,
						"slot": "0",
						"type": "t_mapping(t_address,t_uint256)"
					},
					{
						"astId": 40,
						"contract": "contracts/build_bounty/main_build/reward_elig.sol:RewardElig",
						"label": "EligibleUserClaimWeek",
						"offset": 0,
						"slot": "1",
						"type": "t_array(t_address)dyn_storage"
					},
					{
						"astId": 43,
						"contract": "contracts/build_bounty/main_build/reward_elig.sol:RewardElig",
						"label": "EligibleUserArr",
						"offset": 0,
						"slot": "2",
						"type": "t_array(t_address)dyn_storage"
					},
					{
						"astId": 45,
						"contract": "contracts/build_bounty/main_build/reward_elig.sol:RewardElig",
						"label": "admin",
						"offset": 0,
						"slot": "3",
						"type": "t_address"
					},
					{
						"astId": 47,
						"contract": "contracts/build_bounty/main_build/reward_elig.sol:RewardElig",
						"label": "CurrentWeekStart",
						"offset": 0,
						"slot": "4",
						"type": "t_uint256"
					}
				],
				"types": {
					"t_address": {
						"encoding": "inplace",
						"label": "address",
						"numberOfBytes": "20"
					},
					"t_array(t_address)dyn_storage": {
						"base": "t_address",
						"encoding": "dynamic_array",
						"label": "address[]",
						"numberOfBytes": "32"
					},
					"t_mapping(t_address,t_uint256)": {
						"encoding": "mapping",
						"key": "t_address",
						"label": "mapping(address => uint256)",
						"numberOfBytes": "32",
						"value": "t_uint256"
					},
					"t_uint256": {
						"encoding": "inplace",
						"label": "uint256",
						"numberOfBytes": "32"
					}
				}
			},
			"userdoc": {
				"kind": "user",
				"methods": {},
				"version": 1
			}
		}
	}
}