{
	"contracts/inheritsz.sol": {
		"EngineeringManager": {
			"abi": [
				{
					"inputs": [
						{
							"internalType": "uint256",
							"name": "annualSal",
							"type": "uint256"
						},
						{
							"internalType": "uint256",
							"name": "_idnum",
							"type": "uint256"
						},
						{
							"internalType": "uint256",
							"name": "manNumId",
							"type": "uint256"
						}
					],
					"stateMutability": "nonpayable",
					"type": "constructor"
				},
				{
					"inputs": [
						{
							"internalType": "uint256",
							"name": "_idNum",
							"type": "uint256"
						}
					],
					"name": "AddReport",
					"outputs": [],
					"stateMutability": "nonpayable",
					"type": "function"
				},
				{
					"inputs": [],
					"name": "AddbyEng",
					"outputs": [],
					"stateMutability": "nonpayable",
					"type": "function"
				},
				{
					"inputs": [],
					"name": "Deletem",
					"outputs": [],
					"stateMutability": "nonpayable",
					"type": "function"
				},
				{
					"inputs": [],
					"name": "annualSalary",
					"outputs": [
						{
							"internalType": "uint256",
							"name": "",
							"type": "uint256"
						}
					],
					"stateMutability": "view",
					"type": "function"
				},
				{
					"inputs": [],
					"name": "getAnnualCost",
					"outputs": [
						{
							"internalType": "uint256",
							"name": "",
							"type": "uint256"
						}
					],
					"stateMutability": "view",
					"type": "function"
				},
				{
					"inputs": [],
					"name": "idNumber",
					"outputs": [
						{
							"internalType": "uint256",
							"name": "",
							"type": "uint256"
						}
					],
					"stateMutability": "view",
					"type": "function"
				},
				{
					"inputs": [],
					"name": "managerId",
					"outputs": [
						{
							"internalType": "uint256",
							"name": "",
							"type": "uint256"
						}
					],
					"stateMutability": "view",
					"type": "function"
				},
				{
					"inputs": [],
					"name": "resetReports",
					"outputs": [],
					"stateMutability": "nonpayable",
					"type": "function"
				},
				{
					"inputs": [],
					"name": "showM",
					"outputs": [
						{
							"internalType": "uint256[]",
							"name": "",
							"type": "uint256[]"
						}
					],
					"stateMutability": "view",
					"type": "function"
				}
			],
			"devdoc": {
				"kind": "dev",
				"methods": {},
				"version": 1
			},
			"evm": {
				"assembly": "    /* \"contracts/inheritsz.sol\":1508:1941  contract EngineeringManager is Salaried,Manager{... */\n  mstore(0x40, 0x80)\n    /* \"contracts/inheritsz.sol\":1577:1696  constructor(uint annualSal,uint _idnum, uint manNumId)Salaried(_idnum, manNumId,annualSal){... */\n  callvalue\n  dup1\n  iszero\n  tag_1\n  jumpi\n  0x00\n  dup1\n  revert\ntag_1:\n  pop\n  mload(0x40)\n  sub(codesize, bytecodeSize)\n  dup1\n  bytecodeSize\n  dup4\n  codecopy\n  dup2\n  add\n  0x40\n  dup2\n  swap1\n  mstore\n  tag_2\n  swap2\n  tag_3\n  jump\t// in\ntag_2:\n    /* \"contracts/inheritsz.sol\":195:203  idNumber */\n  0x00\n    /* \"contracts/inheritsz.sol\":195:210  idNumber=_idnum */\n  dup3\n  swap1\n  sstore\n    /* \"contracts/inheritsz.sol\":220:229  managerId */\n  0x01\n    /* \"contracts/inheritsz.sol\":220:240  managerId=_managerId */\n  sstore\n    /* \"contracts/inheritsz.sol\":474:486  annualSalary */\n  0x02\n    /* \"contracts/inheritsz.sol\":474:497  annualSalary=_annualSal */\n  swap2\n  swap1\n  swap2\n  sstore\n    /* \"contracts/inheritsz.sol\":1677:1682  idnum */\n  0x04\n    /* \"contracts/inheritsz.sol\":1677:1689  idnum=_idnum */\n  sstore\n    /* \"contracts/inheritsz.sol\":1508:1941  contract EngineeringManager is Salaried,Manager{... */\n  jump(tag_11)\n    /* \"#utility.yul\":14:470   */\ntag_3:\n    /* \"#utility.yul\":102:108   */\n  0x00\n    /* \"#utility.yul\":110:116   */\n  dup1\n    /* \"#utility.yul\":118:124   */\n  0x00\n    /* \"#utility.yul\":171:173   */\n  0x60\n    /* \"#utility.yul\":159:168   */\n  dup5\n    /* \"#utility.yul\":150:157   */\n  dup7\n    /* \"#utility.yul\":146:169   */\n  sub\n    /* \"#utility.yul\":142:174   */\n  slt\n    /* \"#utility.yul\":139:191   */\n  iszero\n  tag_13\n  jumpi\n    /* \"#utility.yul\":187:188   */\n  0x00\n    /* \"#utility.yul\":184:185   */\n  dup1\n    /* \"#utility.yul\":177:189   */\n  revert\n    /* \"#utility.yul\":139:191   */\ntag_13:\n  pop\n  pop\n    /* \"#utility.yul\":232:248   */\n  dup2\n  mload\n    /* \"#utility.yul\":338:340   */\n  0x20\n    /* \"#utility.yul\":323:341   */\n  dup4\n  add\n    /* \"#utility.yul\":317:342   */\n  mload\n    /* \"#utility.yul\":434:436   */\n  0x40\n    /* \"#utility.yul\":419:437   */\n  swap1\n  swap4\n  add\n    /* \"#utility.yul\":413:438   */\n  mload\n    /* \"#utility.yul\":232:248   */\n  swap1\n  swap5\n    /* \"#utility.yul\":317:342   */\n  swap3\n  swap4\n  pop\n    /* \"#utility.yul\":413:438   */\n  swap2\n    /* \"#utility.yul\":14:470   */\n  swap1\n  pop\n  jump\t// out\ntag_11:\n    /* \"contracts/inheritsz.sol\":1508:1941  contract EngineeringManager is Salaried,Manager{... */\n  dataSize(sub_0)\n  dup1\n  dataOffset(sub_0)\n  0x00\n  codecopy\n  0x00\n  return\nstop\n\nsub_0: assembly {\n        /* \"contracts/inheritsz.sol\":1508:1941  contract EngineeringManager is Salaried,Manager{... */\n      mstore(0x40, 0x80)\n      callvalue\n      dup1\n      iszero\n      tag_1\n      jumpi\n      0x00\n      dup1\n      revert\n    tag_1:\n      pop\n      jumpi(tag_2, lt(calldatasize, 0x04))\n      shr(0xe0, calldataload(0x00))\n      dup1\n      0x7d60103a\n      gt\n      tag_12\n      jumpi\n      dup1\n      0x7d60103a\n      eq\n      tag_7\n      jumpi\n      dup1\n      0xa596d3c8\n      eq\n      tag_8\n      jumpi\n      dup1\n      0xadc2ef80\n      eq\n      tag_9\n      jumpi\n      dup1\n      0xdbca8962\n      eq\n      tag_10\n      jumpi\n      dup1\n      0xf5895a0a\n      eq\n      tag_11\n      jumpi\n      0x00\n      dup1\n      revert\n    tag_12:\n      dup1\n      0x3f83ea3b\n      eq\n      tag_3\n      jumpi\n      dup1\n      0x50dca6ab\n      eq\n      tag_4\n      jumpi\n      dup1\n      0x5cdee0c0\n      eq\n      tag_5\n      jumpi\n      dup1\n      0x6f034cd9\n      eq\n      tag_6\n      jumpi\n    tag_2:\n      0x00\n      dup1\n      revert\n        /* \"contracts/inheritsz.sol\":91:111  uint public idNumber */\n    tag_3:\n      tag_13\n      sload(0x00)\n      dup2\n      jump\n    tag_13:\n      mload(0x40)\n        /* \"#utility.yul\":160:185   */\n      swap1\n      dup2\n      mstore\n        /* \"#utility.yul\":148:150   */\n      0x20\n        /* \"#utility.yul\":133:151   */\n      add\n        /* \"contracts/inheritsz.sol\":91:111  uint public idNumber */\n    tag_15:\n      mload(0x40)\n      dup1\n      swap2\n      sub\n      swap1\n      return\n        /* \"contracts/inheritsz.sol\":350:374  uint public annualSalary */\n    tag_4:\n      tag_13\n      sload(0x02)\n      dup2\n      jump\n        /* \"contracts/inheritsz.sol\":509:605  function getAnnualCost() public override view returns (uint){... */\n    tag_5:\n        /* \"contracts/inheritsz.sol\":586:598  annualSalary */\n      sload(0x02)\n        /* \"contracts/inheritsz.sol\":509:605  function getAnnualCost() public override view returns (uint){... */\n      jump(tag_13)\n        /* \"contracts/inheritsz.sol\":1844:1939  function showM()public view returns (uint[] memory) {... */\n    tag_6:\n      tag_23\n      tag_24\n      jump\t// in\n    tag_23:\n      mload(0x40)\n      tag_15\n      swap2\n      swap1\n      tag_26\n      jump\t// in\n        /* \"contracts/inheritsz.sol\":1050:1130  function AddReport(uint _idNum) public {... */\n    tag_7:\n      tag_27\n      tag_28\n      calldatasize\n      0x04\n      tag_29\n      jump\t// in\n    tag_28:\n        /* \"contracts/inheritsz.sol\":1099:1110  employeeIds */\n      0x03\n        /* \"contracts/inheritsz.sol\":1099:1123  employeeIds.push(_idNum) */\n      dup1\n      sload\n      0x01\n      dup2\n      add\n      dup3\n      sstore\n      0x00\n      swap2\n      swap1\n      swap2\n      mstore\n      0xc2575a0e9e593c00f959f8c92f12db2869c3395a3b0502d05e2516446f71f85b\n      add\n      sstore\n        /* \"contracts/inheritsz.sol\":1050:1130  function AddReport(uint _idNum) public {... */\n      jump\n    tag_27:\n      stop\n        /* \"contracts/inheritsz.sol\":1135:1201  function resetReports() public {... */\n    tag_8:\n      tag_27\n      tag_32\n      jump\t// in\n        /* \"contracts/inheritsz.sol\":1701:1770  function AddbyEng()public   {... */\n    tag_9:\n      tag_27\n      tag_34\n      jump\t// in\n        /* \"contracts/inheritsz.sol\":1775:1839  function Deletem()public {... */\n    tag_10:\n      tag_27\n      tag_36\n      jump\t// in\n        /* \"contracts/inheritsz.sol\":117:138  uint public managerId */\n    tag_11:\n      tag_13\n      sload(0x01)\n      dup2\n      jump\n        /* \"contracts/inheritsz.sol\":1844:1939  function showM()public view returns (uint[] memory) {... */\n    tag_24:\n        /* \"contracts/inheritsz.sol\":1881:1894  uint[] memory */\n      0x60\n        /* \"contracts/inheritsz.sol\":1913:1932  Manager.employeeIds */\n      0x03\n        /* \"contracts/inheritsz.sol\":1906:1932  return Manager.employeeIds */\n      dup1\n      sload\n      dup1\n      0x20\n      mul\n      0x20\n      add\n      mload(0x40)\n      swap1\n      dup2\n      add\n      0x40\n      mstore\n      dup1\n      swap3\n      swap2\n      swap1\n      dup2\n      dup2\n      mstore\n      0x20\n      add\n      dup3\n      dup1\n      sload\n      dup1\n      iszero\n      tag_42\n      jumpi\n      0x20\n      mul\n      dup3\n      add\n      swap2\n      swap1\n      0x00\n      mstore\n      keccak256(0x00, 0x20)\n      swap1\n    tag_43:\n      dup2\n      sload\n      dup2\n      mstore\n      0x20\n      add\n      swap1\n      0x01\n      add\n      swap1\n      dup1\n      dup4\n      gt\n      tag_43\n      jumpi\n    tag_42:\n      pop\n      pop\n      pop\n      pop\n      pop\n      swap1\n      pop\n        /* \"contracts/inheritsz.sol\":1844:1939  function showM()public view returns (uint[] memory) {... */\n      swap1\n      jump\t// out\n        /* \"contracts/inheritsz.sol\":1135:1201  function resetReports() public {... */\n    tag_32:\n        /* \"contracts/inheritsz.sol\":1176:1194  delete employeeIds */\n      tag_47\n        /* \"contracts/inheritsz.sol\":1183:1194  employeeIds */\n      0x03\n      0x00\n        /* \"contracts/inheritsz.sol\":1176:1194  delete employeeIds */\n      tag_48\n      jump\t// in\n    tag_47:\n        /* \"contracts/inheritsz.sol\":1135:1201  function resetReports() public {... */\n      jump\t// out\n        /* \"contracts/inheritsz.sol\":1701:1770  function AddbyEng()public   {... */\n    tag_34:\n        /* \"contracts/inheritsz.sol\":1739:1763  Manager.AddReport(idnum) */\n      tag_47\n        /* \"contracts/inheritsz.sol\":1757:1762  idnum */\n      sload(0x04)\n        /* \"contracts/inheritsz.sol\":1099:1110  employeeIds */\n      0x03\n        /* \"contracts/inheritsz.sol\":1099:1123  employeeIds.push(_idNum) */\n      dup1\n      sload\n      0x01\n      dup2\n      add\n      dup3\n      sstore\n      0x00\n      swap2\n      swap1\n      swap2\n      mstore\n      0xc2575a0e9e593c00f959f8c92f12db2869c3395a3b0502d05e2516446f71f85b\n      add\n      sstore\n        /* \"contracts/inheritsz.sol\":1050:1130  function AddReport(uint _idNum) public {... */\n      jump\n        /* \"contracts/inheritsz.sol\":1775:1839  function Deletem()public {... */\n    tag_36:\n        /* \"contracts/inheritsz.sol\":1810:1832  Manager.resetReports() */\n      tag_47\n        /* \"contracts/inheritsz.sol\":1810:1830  Manager.resetReports */\n      tag_32\n        /* \"contracts/inheritsz.sol\":1810:1832  Manager.resetReports() */\n      jump\t// in\n    tag_48:\n      pop\n      dup1\n      sload\n      0x00\n      dup3\n      sstore\n      swap1\n      0x00\n      mstore\n      keccak256(0x00, 0x20)\n      swap1\n      dup2\n      add\n      swap1\n      tag_54\n      swap2\n      swap1\n      tag_55\n      jump\t// in\n    tag_54:\n      pop\n      jump\t// out\n    tag_55:\n    tag_56:\n      dup1\n      dup3\n      gt\n      iszero\n      tag_57\n      jumpi\n      0x00\n      dup2\n      sstore\n      0x01\n      add\n      jump(tag_56)\n    tag_57:\n      pop\n      swap1\n      jump\t// out\n        /* \"#utility.yul\":196:807   */\n    tag_26:\n        /* \"#utility.yul\":386:388   */\n      0x20\n        /* \"#utility.yul\":398:419   */\n      dup1\n      dup3\n      mstore\n        /* \"#utility.yul\":468:481   */\n      dup3\n      mload\n        /* \"#utility.yul\":371:389   */\n      dup3\n      dup3\n      add\n        /* \"#utility.yul\":490:512   */\n      dup2\n      swap1\n      mstore\n        /* \"#utility.yul\":338:342   */\n      0x00\n      swap2\n        /* \"#utility.yul\":569:584   */\n      dup5\n      add\n      swap1\n        /* \"#utility.yul\":543:545   */\n      0x40\n        /* \"#utility.yul\":528:546   */\n      dup5\n      add\n      swap1\n        /* \"#utility.yul\":338:342   */\n      dup4\n        /* \"#utility.yul\":612:781   */\n    tag_61:\n        /* \"#utility.yul\":626:632   */\n      dup2\n        /* \"#utility.yul\":623:624   */\n      dup2\n        /* \"#utility.yul\":620:633   */\n      lt\n        /* \"#utility.yul\":612:781   */\n      iszero\n      tag_63\n      jumpi\n        /* \"#utility.yul\":687:700   */\n      dup4\n      mload\n        /* \"#utility.yul\":675:701   */\n      dup4\n      mstore\n        /* \"#utility.yul\":730:732   */\n      0x20\n        /* \"#utility.yul\":756:771   */\n      swap4\n      dup5\n      add\n      swap4\n        /* \"#utility.yul\":721:733   */\n      swap1\n      swap3\n      add\n      swap2\n        /* \"#utility.yul\":648:649   */\n      0x01\n        /* \"#utility.yul\":641:650   */\n      add\n        /* \"#utility.yul\":612:781   */\n      jump(tag_61)\n    tag_63:\n      pop\n        /* \"#utility.yul\":798:801   */\n      swap1\n      swap6\n        /* \"#utility.yul\":196:807   */\n      swap5\n      pop\n      pop\n      pop\n      pop\n      pop\n      jump\t// out\n        /* \"#utility.yul\":812:992   */\n    tag_29:\n        /* \"#utility.yul\":871:877   */\n      0x00\n        /* \"#utility.yul\":924:926   */\n      0x20\n        /* \"#utility.yul\":912:921   */\n      dup3\n        /* \"#utility.yul\":903:910   */\n      dup5\n        /* \"#utility.yul\":899:922   */\n      sub\n        /* \"#utility.yul\":895:927   */\n      slt\n        /* \"#utility.yul\":892:944   */\n      iszero\n      tag_65\n      jumpi\n        /* \"#utility.yul\":940:941   */\n      0x00\n        /* \"#utility.yul\":937:938   */\n      dup1\n        /* \"#utility.yul\":930:942   */\n      revert\n        /* \"#utility.yul\":892:944   */\n    tag_65:\n      pop\n        /* \"#utility.yul\":963:986   */\n      calldataload\n      swap2\n        /* \"#utility.yul\":812:992   */\n      swap1\n      pop\n      jump\t// out\n\n    auxdata: 0xa2646970667358221220f8da6ab19c22b09998b3ceb3ad4f63eb85f22cba99adb647be2b29dbef6bfb4b64736f6c634300081a0033\n}\n",
				"bytecode": {
					"linkReferences": {},
					"object": "6080604052348015600e575f80fd5b5060405161031a38038061031a833981016040819052602b91603f565b5f8290556001556002919091556004556069565b5f805f606084860312156050575f80fd5b5050815160208301516040909301519094929350919050565b6102a4806100765f395ff3fe608060405234801561000f575f80fd5b5060043610610090575f3560e01c80637d60103a116100635780637d60103a146100d5578063a596d3c814610119578063adc2ef8014610121578063dbca896214610129578063f5895a0a14610131575f80fd5b80633f83ea3b1461009457806350dca6ab146100af5780635cdee0c0146100b85780636f034cd9146100c0575b5f80fd5b61009c5f5481565b6040519081526020015b60405180910390f35b61009c60025481565b60025461009c565b6100c861013a565b6040516100a69190610215565b6101176100e3366004610257565b600380546001810182555f919091527fc2575a0e9e593c00f959f8c92f12db2869c3395a3b0502d05e2516446f71f85b0155565b005b610117610190565b61011761019d565b6101176101d7565b61009c60015481565b6060600380548060200260200160405190810160405280929190818152602001828054801561018657602002820191905f5260205f20905b815481526020019060010190808311610172575b5050505050905090565b61019b60035f6101df565b565b61019b600454600380546001810182555f919091527fc2575a0e9e593c00f959f8c92f12db2869c3395a3b0502d05e2516446f71f85b0155565b61019b610190565b5080545f8255905f5260205f20908101906101fa91906101fd565b50565b5b80821115610211575f81556001016101fe565b5090565b602080825282518282018190525f918401906040840190835b8181101561024c57835183526020938401939092019160010161022e565b509095945050505050565b5f60208284031215610267575f80fd5b503591905056fea2646970667358221220f8da6ab19c22b09998b3ceb3ad4f63eb85f22cba99adb647be2b29dbef6bfb4b64736f6c634300081a0033",
					"opcodes": "PUSH1 0x80 PUSH1 0x40 MSTORE CALLVALUE DUP1 ISZERO PUSH1 0xE JUMPI PUSH0 DUP1 REVERT JUMPDEST POP PUSH1 0x40 MLOAD PUSH2 0x31A CODESIZE SUB DUP1 PUSH2 0x31A DUP4 CODECOPY DUP2 ADD PUSH1 0x40 DUP2 SWAP1 MSTORE PUSH1 0x2B SWAP2 PUSH1 0x3F JUMP JUMPDEST PUSH0 DUP3 SWAP1 SSTORE PUSH1 0x1 SSTORE PUSH1 0x2 SWAP2 SWAP1 SWAP2 SSTORE PUSH1 0x4 SSTORE PUSH1 0x69 JUMP JUMPDEST PUSH0 DUP1 PUSH0 PUSH1 0x60 DUP5 DUP7 SUB SLT ISZERO PUSH1 0x50 JUMPI PUSH0 DUP1 REVERT JUMPDEST POP POP DUP2 MLOAD PUSH1 0x20 DUP4 ADD MLOAD PUSH1 0x40 SWAP1 SWAP4 ADD MLOAD SWAP1 SWAP5 SWAP3 SWAP4 POP SWAP2 SWAP1 POP JUMP JUMPDEST PUSH2 0x2A4 DUP1 PUSH2 0x76 PUSH0 CODECOPY PUSH0 RETURN INVALID PUSH1 0x80 PUSH1 0x40 MSTORE CALLVALUE DUP1 ISZERO PUSH2 0xF JUMPI PUSH0 DUP1 REVERT JUMPDEST POP PUSH1 0x4 CALLDATASIZE LT PUSH2 0x90 JUMPI PUSH0 CALLDATALOAD PUSH1 0xE0 SHR DUP1 PUSH4 0x7D60103A GT PUSH2 0x63 JUMPI DUP1 PUSH4 0x7D60103A EQ PUSH2 0xD5 JUMPI DUP1 PUSH4 0xA596D3C8 EQ PUSH2 0x119 JUMPI DUP1 PUSH4 0xADC2EF80 EQ PUSH2 0x121 JUMPI DUP1 PUSH4 0xDBCA8962 EQ PUSH2 0x129 JUMPI DUP1 PUSH4 0xF5895A0A EQ PUSH2 0x131 JUMPI PUSH0 DUP1 REVERT JUMPDEST DUP1 PUSH4 0x3F83EA3B EQ PUSH2 0x94 JUMPI DUP1 PUSH4 0x50DCA6AB EQ PUSH2 0xAF JUMPI DUP1 PUSH4 0x5CDEE0C0 EQ PUSH2 0xB8 JUMPI DUP1 PUSH4 0x6F034CD9 EQ PUSH2 0xC0 JUMPI JUMPDEST PUSH0 DUP1 REVERT JUMPDEST PUSH2 0x9C PUSH0 SLOAD DUP2 JUMP JUMPDEST PUSH1 0x40 MLOAD SWAP1 DUP2 MSTORE PUSH1 0x20 ADD JUMPDEST PUSH1 0x40 MLOAD DUP1 SWAP2 SUB SWAP1 RETURN JUMPDEST PUSH2 0x9C PUSH1 0x2 SLOAD DUP2 JUMP JUMPDEST PUSH1 0x2 SLOAD PUSH2 0x9C JUMP JUMPDEST PUSH2 0xC8 PUSH2 0x13A JUMP JUMPDEST PUSH1 0x40 MLOAD PUSH2 0xA6 SWAP2 SWAP1 PUSH2 0x215 JUMP JUMPDEST PUSH2 0x117 PUSH2 0xE3 CALLDATASIZE PUSH1 0x4 PUSH2 0x257 JUMP JUMPDEST PUSH1 0x3 DUP1 SLOAD PUSH1 0x1 DUP2 ADD DUP3 SSTORE PUSH0 SWAP2 SWAP1 SWAP2 MSTORE PUSH32 0xC2575A0E9E593C00F959F8C92F12DB2869C3395A3B0502D05E2516446F71F85B ADD SSTORE JUMP JUMPDEST STOP JUMPDEST PUSH2 0x117 PUSH2 0x190 JUMP JUMPDEST PUSH2 0x117 PUSH2 0x19D JUMP JUMPDEST PUSH2 0x117 PUSH2 0x1D7 JUMP JUMPDEST PUSH2 0x9C PUSH1 0x1 SLOAD DUP2 JUMP JUMPDEST PUSH1 0x60 PUSH1 0x3 DUP1 SLOAD DUP1 PUSH1 0x20 MUL PUSH1 0x20 ADD PUSH1 0x40 MLOAD SWAP1 DUP2 ADD PUSH1 0x40 MSTORE DUP1 SWAP3 SWAP2 SWAP1 DUP2 DUP2 MSTORE PUSH1 0x20 ADD DUP3 DUP1 SLOAD DUP1 ISZERO PUSH2 0x186 JUMPI PUSH1 0x20 MUL DUP3 ADD SWAP2 SWAP1 PUSH0 MSTORE PUSH1 0x20 PUSH0 KECCAK256 SWAP1 JUMPDEST DUP2 SLOAD DUP2 MSTORE PUSH1 0x20 ADD SWAP1 PUSH1 0x1 ADD SWAP1 DUP1 DUP4 GT PUSH2 0x172 JUMPI JUMPDEST POP POP POP POP POP SWAP1 POP SWAP1 JUMP JUMPDEST PUSH2 0x19B PUSH1 0x3 PUSH0 PUSH2 0x1DF JUMP JUMPDEST JUMP JUMPDEST PUSH2 0x19B PUSH1 0x4 SLOAD PUSH1 0x3 DUP1 SLOAD PUSH1 0x1 DUP2 ADD DUP3 SSTORE PUSH0 SWAP2 SWAP1 SWAP2 MSTORE PUSH32 0xC2575A0E9E593C00F959F8C92F12DB2869C3395A3B0502D05E2516446F71F85B ADD SSTORE JUMP JUMPDEST PUSH2 0x19B PUSH2 0x190 JUMP JUMPDEST POP DUP1 SLOAD PUSH0 DUP3 SSTORE SWAP1 PUSH0 MSTORE PUSH1 0x20 PUSH0 KECCAK256 SWAP1 DUP2 ADD SWAP1 PUSH2 0x1FA SWAP2 SWAP1 PUSH2 0x1FD JUMP JUMPDEST POP JUMP JUMPDEST JUMPDEST DUP1 DUP3 GT ISZERO PUSH2 0x211 JUMPI PUSH0 DUP2 SSTORE PUSH1 0x1 ADD PUSH2 0x1FE JUMP JUMPDEST POP SWAP1 JUMP JUMPDEST PUSH1 0x20 DUP1 DUP3 MSTORE DUP3 MLOAD DUP3 DUP3 ADD DUP2 SWAP1 MSTORE PUSH0 SWAP2 DUP5 ADD SWAP1 PUSH1 0x40 DUP5 ADD SWAP1 DUP4 JUMPDEST DUP2 DUP2 LT ISZERO PUSH2 0x24C JUMPI DUP4 MLOAD DUP4 MSTORE PUSH1 0x20 SWAP4 DUP5 ADD SWAP4 SWAP1 SWAP3 ADD SWAP2 PUSH1 0x1 ADD PUSH2 0x22E JUMP JUMPDEST POP SWAP1 SWAP6 SWAP5 POP POP POP POP POP JUMP JUMPDEST PUSH0 PUSH1 0x20 DUP3 DUP5 SUB SLT ISZERO PUSH2 0x267 JUMPI PUSH0 DUP1 REVERT JUMPDEST POP CALLDATALOAD SWAP2 SWAP1 POP JUMP INVALID LOG2 PUSH5 0x6970667358 0x22 SLT KECCAK256 0xF8 0xDA PUSH11 0xB19C22B09998B3CEB3AD4F PUSH4 0xEB85F22C 0xBA SWAP10 0xAD 0xB6 SELFBALANCE 0xBE 0x2B 0x29 0xDB 0xEF PUSH12 0xFB4B64736F6C634300081A00 CALLER "
				},
				"gasEstimates": {
					"creation": {
						"codeDepositCost": "135200",
						"executionCost": "infinite",
						"totalCost": "infinite"
					},
					"external": {
						"AddReport(uint256)": "46545",
						"AddbyEng()": "48640",
						"Deletem()": "infinite",
						"annualSalary()": "2306",
						"getAnnualCost()": "2325",
						"idNumber()": "2283",
						"managerId()": "2371",
						"resetReports()": "infinite",
						"showM()": "infinite"
					}
				},
				"methodIdentifiers": {
					"AddReport(uint256)": "7d60103a",
					"AddbyEng()": "adc2ef80",
					"Deletem()": "dbca8962",
					"annualSalary()": "50dca6ab",
					"getAnnualCost()": "5cdee0c0",
					"idNumber()": "3f83ea3b",
					"managerId()": "f5895a0a",
					"resetReports()": "a596d3c8",
					"showM()": "6f034cd9"
				}
			},
			"storageLayout": {
				"storage": [
					{
						"astId": 3,
						"contract": "contracts/inheritsz.sol:EngineeringManager",
						"label": "idNumber",
						"offset": 0,
						"slot": "0",
						"type": "t_uint256"
					},
					{
						"astId": 5,
						"contract": "contracts/inheritsz.sol:EngineeringManager",
						"label": "managerId",
						"offset": 0,
						"slot": "1",
						"type": "t_uint256"
					},
					{
						"astId": 31,
						"contract": "contracts/inheritsz.sol:EngineeringManager",
						"label": "annualSalary",
						"offset": 0,
						"slot": "2",
						"type": "t_uint256"
					},
					{
						"astId": 106,
						"contract": "contracts/inheritsz.sol:EngineeringManager",
						"label": "employeeIds",
						"offset": 0,
						"slot": "3",
						"type": "t_array(t_uint256)dyn_storage"
					},
					{
						"astId": 165,
						"contract": "contracts/inheritsz.sol:EngineeringManager",
						"label": "idnum",
						"offset": 0,
						"slot": "4",
						"type": "t_uint256"
					}
				],
				"types": {
					"t_array(t_uint256)dyn_storage": {
						"base": "t_uint256",
						"encoding": "dynamic_array",
						"label": "uint256[]",
						"numberOfBytes": "32"
					},
					"t_uint256": {
						"encoding": "inplace",
						"label": "uint256",
						"numberOfBytes": "32"
					}
				}
			},
			"userdoc": {
				"kind": "user",
				"methods": {},
				"version": 1
			}
		}
	}
}