{
	"contracts/claimTrvx.sol": {
		"Claim": {
			"abi": [
				{
					"inputs": [],
					"stateMutability": "nonpayable",
					"type": "constructor"
				},
				{
					"inputs": [],
					"name": "UserClaimedToken",
					"type": "error"
				},
				{
					"inputs": [
						{
							"internalType": "address",
							"name": "_user",
							"type": "address"
						}
					],
					"name": "getToken",
					"outputs": [],
					"stateMutability": "nonpayable",
					"type": "function"
				}
			],
			"devdoc": {
				"kind": "dev",
				"methods": {},
				"version": 1
			},
			"evm": {
				"assembly": "    /* \"contracts/claimTrvx.sol\":336:879  contract Claim{... */\n  mstore(0x40, 0xc0)\n    /* \"contracts/claimTrvx.sol\":382:424  0x1241676d45b1Cb5B573b6258C4A838e149A1D191 */\n  0x1241676d45b1cb5b573b6258c4a838e149a1d191\n    /* \"contracts/claimTrvx.sol\":356:424  address immutable token = 0x1241676d45b1Cb5B573b6258C4A838e149A1D191 */\n  0xffffffffffffffffffffffffffffffffffffffff\n  and\n  0x80\n  swap1\n  0xffffffffffffffffffffffffffffffffffffffff\n  and\n  dup2\n  mstore\n  pop\n    /* \"contracts/claimTrvx.sol\":451:454  1e6 */\n  0x0f4240\n    /* \"contracts/claimTrvx.sol\":430:454  uint immutable dec = 1e6 */\n  0xa0\n  swap1\n  dup2\n  mstore\n  pop\n    /* \"contracts/claimTrvx.sol\":488:539  constructor() {... */\n  callvalue\n  dup1\n  iszero\n  tag_1\n  jumpi\n  0x00\n  dup1\n  revert\ntag_1:\n  pop\n    /* \"contracts/claimTrvx.sol\":521:531  msg.sender */\n  caller\n    /* \"contracts/claimTrvx.sol\":513:518  owner */\n  0x00\n  dup1\n    /* \"contracts/claimTrvx.sol\":513:531  owner = msg.sender */\n  0x0100\n  exp\n  dup2\n  sload\n  dup2\n  0xffffffffffffffffffffffffffffffffffffffff\n  mul\n  not\n  and\n  swap1\n  dup4\n  0xffffffffffffffffffffffffffffffffffffffff\n  and\n  mul\n  or\n  swap1\n  sstore\n  pop\n    /* \"contracts/claimTrvx.sol\":336:879  contract Claim{... */\n  mload(0x80)\n  mload(0xa0)\n  codecopy(0x00, dataOffset(sub_0), dataSize(sub_0))\n  0x00\n  assignImmutable(\"0x5ca7b081b8c6c57b0469c340dba43ec8d33c0b898c69e55c4f74ff7ed9ac71ea\")\n  0x00\n  assignImmutable(\"0x8b953cbb84328003779eb1ef176ef07f7dd0ae3d4a8e408de53d15a36466c86e\")\n  return(0x00, dataSize(sub_0))\nstop\n\nsub_0: assembly {\n        /* \"contracts/claimTrvx.sol\":336:879  contract Claim{... */\n      mstore(0x40, 0x80)\n      callvalue\n      dup1\n      iszero\n      tag_1\n      jumpi\n      0x00\n      dup1\n      revert\n    tag_1:\n      pop\n      jumpi(tag_2, lt(calldatasize, 0x04))\n      shr(0xe0, calldataload(0x00))\n      dup1\n      0x59770438\n      eq\n      tag_3\n      jumpi\n    tag_2:\n      0x00\n      dup1\n      revert\n        /* \"contracts/claimTrvx.sol\":575:793  function getToken(address _user) public onlyAdmin {... */\n    tag_3:\n      tag_4\n      0x04\n      dup1\n      calldatasize\n      sub\n      dup2\n      add\n      swap1\n      tag_5\n      swap2\n      swap1\n      tag_6\n      jump\t// in\n    tag_5:\n      tag_7\n      jump\t// in\n    tag_4:\n      stop\n    tag_7:\n        /* \"contracts/claimTrvx.sol\":851:856  owner */\n      0x00\n      dup1\n      sload\n      swap1\n      0x0100\n      exp\n      swap1\n      div\n      0xffffffffffffffffffffffffffffffffffffffff\n      and\n        /* \"contracts/claimTrvx.sol\":837:856  msg.sender == owner */\n      0xffffffffffffffffffffffffffffffffffffffff\n      and\n        /* \"contracts/claimTrvx.sol\":837:847  msg.sender */\n      caller\n        /* \"contracts/claimTrvx.sol\":837:856  msg.sender == owner */\n      0xffffffffffffffffffffffffffffffffffffffff\n      and\n      eq\n        /* \"contracts/claimTrvx.sol\":829:858  require(msg.sender == owner ) */\n      tag_9\n      jumpi\n      0x00\n      dup1\n      revert\n    tag_9:\n        /* \"contracts/claimTrvx.sol\":689:692  dec */\n      immutable(\"0x5ca7b081b8c6c57b0469c340dba43ec8d33c0b898c69e55c4f74ff7ed9ac71ea\")\n        /* \"contracts/claimTrvx.sol\":682:686  2000 */\n      0x07d0\n        /* \"contracts/claimTrvx.sol\":682:692  2000 * dec */\n      tag_11\n      swap2\n      swap1\n      tag_12\n      jump\t// in\n    tag_11:\n        /* \"contracts/claimTrvx.sol\":656:661  token */\n      immutable(\"0x8b953cbb84328003779eb1ef176ef07f7dd0ae3d4a8e408de53d15a36466c86e\")\n        /* \"contracts/claimTrvx.sol\":649:672  IERC20(token).balanceOf */\n      0xffffffffffffffffffffffffffffffffffffffff\n      and\n      0x70a08231\n        /* \"contracts/claimTrvx.sol\":673:678  _user */\n      dup4\n        /* \"contracts/claimTrvx.sol\":649:679  IERC20(token).balanceOf(_user) */\n      mload(0x40)\n      dup3\n      0xffffffff\n      and\n      0xe0\n      shl\n      dup2\n      mstore\n      0x04\n      add\n      tag_13\n      swap2\n      swap1\n      tag_14\n      jump\t// in\n    tag_13:\n      0x20\n      mload(0x40)\n      dup1\n      dup4\n      sub\n      dup2\n      dup7\n      gas\n      staticcall\n      iszero\n      dup1\n      iszero\n      tag_16\n      jumpi\n      returndatasize\n      0x00\n      dup1\n      returndatacopy\n      revert(0x00, returndatasize)\n    tag_16:\n      pop\n      pop\n      pop\n      pop\n      mload(0x40)\n      returndatasize\n      not(0x1f)\n      0x1f\n      dup3\n      add\n      and\n      dup3\n      add\n      dup1\n      0x40\n      mstore\n      pop\n      dup2\n      add\n      swap1\n      tag_17\n      swap2\n      swap1\n      tag_18\n      jump\t// in\n    tag_17:\n        /* \"contracts/claimTrvx.sol\":649:692  IERC20(token).balanceOf(_user) > 2000 * dec */\n      gt\n        /* \"contracts/claimTrvx.sol\":644:743  if ( IERC20(token).balanceOf(_user) > 2000 * dec){... */\n      iszero\n      tag_19\n      jumpi\n        /* \"contracts/claimTrvx.sol\":714:732  UserClaimedToken() */\n      mload(0x40)\n      0x756f034900000000000000000000000000000000000000000000000000000000\n      dup2\n      mstore\n      0x04\n      add\n      mload(0x40)\n      dup1\n      swap2\n      sub\n      swap1\n      revert\n        /* \"contracts/claimTrvx.sol\":644:743  if ( IERC20(token).balanceOf(_user) > 2000 * dec){... */\n    tag_19:\n        /* \"contracts/claimTrvx.sol\":756:761  token */\n      immutable(\"0x8b953cbb84328003779eb1ef176ef07f7dd0ae3d4a8e408de53d15a36466c86e\")\n        /* \"contracts/claimTrvx.sol\":749:771  IERC20(token).transfer */\n      0xffffffffffffffffffffffffffffffffffffffff\n      and\n      0xa9059cbb\n        /* \"contracts/claimTrvx.sol\":772:777  _user */\n      dup3\n        /* \"contracts/claimTrvx.sol\":786:789  dec */\n      immutable(\"0x5ca7b081b8c6c57b0469c340dba43ec8d33c0b898c69e55c4f74ff7ed9ac71ea\")\n        /* \"contracts/claimTrvx.sol\":779:783  5000 */\n      0x1388\n        /* \"contracts/claimTrvx.sol\":779:789  5000 * dec */\n      tag_20\n      swap2\n      swap1\n      tag_12\n      jump\t// in\n    tag_20:\n        /* \"contracts/claimTrvx.sol\":749:790  IERC20(token).transfer(_user, 5000 * dec) */\n      mload(0x40)\n      dup4\n      0xffffffff\n      and\n      0xe0\n      shl\n      dup2\n      mstore\n      0x04\n      add\n      tag_21\n      swap3\n      swap2\n      swap1\n      tag_22\n      jump\t// in\n    tag_21:\n      0x20\n      mload(0x40)\n      dup1\n      dup4\n      sub\n      dup2\n      0x00\n      dup8\n      gas\n      call\n      iszero\n      dup1\n      iszero\n      tag_24\n      jumpi\n      returndatasize\n      0x00\n      dup1\n      returndatacopy\n      revert(0x00, returndatasize)\n    tag_24:\n      pop\n      pop\n      pop\n      pop\n      mload(0x40)\n      returndatasize\n      not(0x1f)\n      0x1f\n      dup3\n      add\n      and\n      dup3\n      add\n      dup1\n      0x40\n      mstore\n      pop\n      dup2\n      add\n      swap1\n      tag_25\n      swap2\n      swap1\n      tag_26\n      jump\t// in\n    tag_25:\n      pop\n        /* \"contracts/claimTrvx.sol\":575:793  function getToken(address _user) public onlyAdmin {... */\n      pop\n      jump\t// out\n        /* \"#utility.yul\":88:205   */\n    tag_28:\n        /* \"#utility.yul\":197:198   */\n      0x00\n        /* \"#utility.yul\":194:195   */\n      dup1\n        /* \"#utility.yul\":187:199   */\n      revert\n        /* \"#utility.yul\":334:460   */\n    tag_30:\n        /* \"#utility.yul\":371:378   */\n      0x00\n        /* \"#utility.yul\":411:453   */\n      0xffffffffffffffffffffffffffffffffffffffff\n        /* \"#utility.yul\":404:409   */\n      dup3\n        /* \"#utility.yul\":400:454   */\n      and\n        /* \"#utility.yul\":389:454   */\n      swap1\n      pop\n        /* \"#utility.yul\":334:460   */\n      swap2\n      swap1\n      pop\n      jump\t// out\n        /* \"#utility.yul\":466:562   */\n    tag_31:\n        /* \"#utility.yul\":503:510   */\n      0x00\n        /* \"#utility.yul\":532:556   */\n      tag_49\n        /* \"#utility.yul\":550:555   */\n      dup3\n        /* \"#utility.yul\":532:556   */\n      tag_30\n      jump\t// in\n    tag_49:\n        /* \"#utility.yul\":521:556   */\n      swap1\n      pop\n        /* \"#utility.yul\":466:562   */\n      swap2\n      swap1\n      pop\n      jump\t// out\n        /* \"#utility.yul\":568:690   */\n    tag_32:\n        /* \"#utility.yul\":641:665   */\n      tag_51\n        /* \"#utility.yul\":659:664   */\n      dup2\n        /* \"#utility.yul\":641:665   */\n      tag_31\n      jump\t// in\n    tag_51:\n        /* \"#utility.yul\":634:639   */\n      dup2\n        /* \"#utility.yul\":631:666   */\n      eq\n        /* \"#utility.yul\":621:684   */\n      tag_52\n      jumpi\n        /* \"#utility.yul\":680:681   */\n      0x00\n        /* \"#utility.yul\":677:678   */\n      dup1\n        /* \"#utility.yul\":670:682   */\n      revert\n        /* \"#utility.yul\":621:684   */\n    tag_52:\n        /* \"#utility.yul\":568:690   */\n      pop\n      jump\t// out\n        /* \"#utility.yul\":696:835   */\n    tag_33:\n        /* \"#utility.yul\":742:747   */\n      0x00\n        /* \"#utility.yul\":780:786   */\n      dup2\n        /* \"#utility.yul\":767:787   */\n      calldataload\n        /* \"#utility.yul\":758:787   */\n      swap1\n      pop\n        /* \"#utility.yul\":796:829   */\n      tag_54\n        /* \"#utility.yul\":823:828   */\n      dup2\n        /* \"#utility.yul\":796:829   */\n      tag_32\n      jump\t// in\n    tag_54:\n        /* \"#utility.yul\":696:835   */\n      swap3\n      swap2\n      pop\n      pop\n      jump\t// out\n        /* \"#utility.yul\":841:1170   */\n    tag_6:\n        /* \"#utility.yul\":900:906   */\n      0x00\n        /* \"#utility.yul\":949:951   */\n      0x20\n        /* \"#utility.yul\":937:946   */\n      dup3\n        /* \"#utility.yul\":928:935   */\n      dup5\n        /* \"#utility.yul\":924:947   */\n      sub\n        /* \"#utility.yul\":920:952   */\n      slt\n        /* \"#utility.yul\":917:1036   */\n      iszero\n      tag_56\n      jumpi\n        /* \"#utility.yul\":955:1034   */\n      tag_57\n      tag_28\n      jump\t// in\n    tag_57:\n        /* \"#utility.yul\":917:1036   */\n    tag_56:\n        /* \"#utility.yul\":1075:1076   */\n      0x00\n        /* \"#utility.yul\":1100:1153   */\n      tag_58\n        /* \"#utility.yul\":1145:1152   */\n      dup5\n        /* \"#utility.yul\":1136:1142   */\n      dup3\n        /* \"#utility.yul\":1125:1134   */\n      dup6\n        /* \"#utility.yul\":1121:1143   */\n      add\n        /* \"#utility.yul\":1100:1153   */\n      tag_33\n      jump\t// in\n    tag_58:\n        /* \"#utility.yul\":1090:1153   */\n      swap2\n      pop\n        /* \"#utility.yul\":1046:1163   */\n      pop\n        /* \"#utility.yul\":841:1170   */\n      swap3\n      swap2\n      pop\n      pop\n      jump\t// out\n        /* \"#utility.yul\":1176:1253   */\n    tag_34:\n        /* \"#utility.yul\":1213:1220   */\n      0x00\n        /* \"#utility.yul\":1242:1247   */\n      dup2\n        /* \"#utility.yul\":1231:1247   */\n      swap1\n      pop\n        /* \"#utility.yul\":1176:1253   */\n      swap2\n      swap1\n      pop\n      jump\t// out\n        /* \"#utility.yul\":1259:1439   */\n    tag_35:\n        /* \"#utility.yul\":1307:1384   */\n      0x4e487b7100000000000000000000000000000000000000000000000000000000\n        /* \"#utility.yul\":1304:1305   */\n      0x00\n        /* \"#utility.yul\":1297:1385   */\n      mstore\n        /* \"#utility.yul\":1404:1408   */\n      0x11\n        /* \"#utility.yul\":1401:1402   */\n      0x04\n        /* \"#utility.yul\":1394:1409   */\n      mstore\n        /* \"#utility.yul\":1428:1432   */\n      0x24\n        /* \"#utility.yul\":1425:1426   */\n      0x00\n        /* \"#utility.yul\":1418:1433   */\n      revert\n        /* \"#utility.yul\":1445:1855   */\n    tag_12:\n        /* \"#utility.yul\":1485:1492   */\n      0x00\n        /* \"#utility.yul\":1508:1528   */\n      tag_62\n        /* \"#utility.yul\":1526:1527   */\n      dup3\n        /* \"#utility.yul\":1508:1528   */\n      tag_34\n      jump\t// in\n    tag_62:\n        /* \"#utility.yul\":1503:1528   */\n      swap2\n      pop\n        /* \"#utility.yul\":1542:1562   */\n      tag_63\n        /* \"#utility.yul\":1560:1561   */\n      dup4\n        /* \"#utility.yul\":1542:1562   */\n      tag_34\n      jump\t// in\n    tag_63:\n        /* \"#utility.yul\":1537:1562   */\n      swap3\n      pop\n        /* \"#utility.yul\":1597:1598   */\n      dup3\n        /* \"#utility.yul\":1594:1595   */\n      dup3\n        /* \"#utility.yul\":1590:1599   */\n      mul\n        /* \"#utility.yul\":1619:1649   */\n      tag_64\n        /* \"#utility.yul\":1637:1648   */\n      dup2\n        /* \"#utility.yul\":1619:1649   */\n      tag_34\n      jump\t// in\n    tag_64:\n        /* \"#utility.yul\":1608:1649   */\n      swap2\n      pop\n        /* \"#utility.yul\":1798:1799   */\n      dup3\n        /* \"#utility.yul\":1789:1796   */\n      dup3\n        /* \"#utility.yul\":1785:1800   */\n      div\n        /* \"#utility.yul\":1782:1783   */\n      dup5\n        /* \"#utility.yul\":1779:1801   */\n      eq\n        /* \"#utility.yul\":1759:1760   */\n      dup4\n        /* \"#utility.yul\":1752:1761   */\n      iszero\n        /* \"#utility.yul\":1732:1815   */\n      or\n        /* \"#utility.yul\":1709:1848   */\n      tag_65\n      jumpi\n        /* \"#utility.yul\":1828:1846   */\n      tag_66\n      tag_35\n      jump\t// in\n    tag_66:\n        /* \"#utility.yul\":1709:1848   */\n    tag_65:\n        /* \"#utility.yul\":1493:1855   */\n      pop\n        /* \"#utility.yul\":1445:1855   */\n      swap3\n      swap2\n      pop\n      pop\n      jump\t// out\n        /* \"#utility.yul\":1861:1979   */\n    tag_36:\n        /* \"#utility.yul\":1948:1972   */\n      tag_68\n        /* \"#utility.yul\":1966:1971   */\n      dup2\n        /* \"#utility.yul\":1948:1972   */\n      tag_31\n      jump\t// in\n    tag_68:\n        /* \"#utility.yul\":1943:1946   */\n      dup3\n        /* \"#utility.yul\":1936:1973   */\n      mstore\n        /* \"#utility.yul\":1861:1979   */\n      pop\n      pop\n      jump\t// out\n        /* \"#utility.yul\":1985:2207   */\n    tag_14:\n        /* \"#utility.yul\":2078:2082   */\n      0x00\n        /* \"#utility.yul\":2116:2118   */\n      0x20\n        /* \"#utility.yul\":2105:2114   */\n      dup3\n        /* \"#utility.yul\":2101:2119   */\n      add\n        /* \"#utility.yul\":2093:2119   */\n      swap1\n      pop\n        /* \"#utility.yul\":2129:2200   */\n      tag_70\n        /* \"#utility.yul\":2197:2198   */\n      0x00\n        /* \"#utility.yul\":2186:2195   */\n      dup4\n        /* \"#utility.yul\":2182:2199   */\n      add\n        /* \"#utility.yul\":2173:2179   */\n      dup5\n        /* \"#utility.yul\":2129:2200   */\n      tag_36\n      jump\t// in\n    tag_70:\n        /* \"#utility.yul\":1985:2207   */\n      swap3\n      swap2\n      pop\n      pop\n      jump\t// out\n        /* \"#utility.yul\":2213:2335   */\n    tag_37:\n        /* \"#utility.yul\":2286:2310   */\n      tag_72\n        /* \"#utility.yul\":2304:2309   */\n      dup2\n        /* \"#utility.yul\":2286:2310   */\n      tag_34\n      jump\t// in\n    tag_72:\n        /* \"#utility.yul\":2279:2284   */\n      dup2\n        /* \"#utility.yul\":2276:2311   */\n      eq\n        /* \"#utility.yul\":2266:2329   */\n      tag_73\n      jumpi\n        /* \"#utility.yul\":2325:2326   */\n      0x00\n        /* \"#utility.yul\":2322:2323   */\n      dup1\n        /* \"#utility.yul\":2315:2327   */\n      revert\n        /* \"#utility.yul\":2266:2329   */\n    tag_73:\n        /* \"#utility.yul\":2213:2335   */\n      pop\n      jump\t// out\n        /* \"#utility.yul\":2341:2484   */\n    tag_38:\n        /* \"#utility.yul\":2398:2403   */\n      0x00\n        /* \"#utility.yul\":2429:2435   */\n      dup2\n        /* \"#utility.yul\":2423:2436   */\n      mload\n        /* \"#utility.yul\":2414:2436   */\n      swap1\n      pop\n        /* \"#utility.yul\":2445:2478   */\n      tag_75\n        /* \"#utility.yul\":2472:2477   */\n      dup2\n        /* \"#utility.yul\":2445:2478   */\n      tag_37\n      jump\t// in\n    tag_75:\n        /* \"#utility.yul\":2341:2484   */\n      swap3\n      swap2\n      pop\n      pop\n      jump\t// out\n        /* \"#utility.yul\":2490:2841   */\n    tag_18:\n        /* \"#utility.yul\":2560:2566   */\n      0x00\n        /* \"#utility.yul\":2609:2611   */\n      0x20\n        /* \"#utility.yul\":2597:2606   */\n      dup3\n        /* \"#utility.yul\":2588:2595   */\n      dup5\n        /* \"#utility.yul\":2584:2607   */\n      sub\n        /* \"#utility.yul\":2580:2612   */\n      slt\n        /* \"#utility.yul\":2577:2696   */\n      iszero\n      tag_77\n      jumpi\n        /* \"#utility.yul\":2615:2694   */\n      tag_78\n      tag_28\n      jump\t// in\n    tag_78:\n        /* \"#utility.yul\":2577:2696   */\n    tag_77:\n        /* \"#utility.yul\":2735:2736   */\n      0x00\n        /* \"#utility.yul\":2760:2824   */\n      tag_79\n        /* \"#utility.yul\":2816:2823   */\n      dup5\n        /* \"#utility.yul\":2807:2813   */\n      dup3\n        /* \"#utility.yul\":2796:2805   */\n      dup6\n        /* \"#utility.yul\":2792:2814   */\n      add\n        /* \"#utility.yul\":2760:2824   */\n      tag_38\n      jump\t// in\n    tag_79:\n        /* \"#utility.yul\":2750:2824   */\n      swap2\n      pop\n        /* \"#utility.yul\":2706:2834   */\n      pop\n        /* \"#utility.yul\":2490:2841   */\n      swap3\n      swap2\n      pop\n      pop\n      jump\t// out\n        /* \"#utility.yul\":2847:2965   */\n    tag_39:\n        /* \"#utility.yul\":2934:2958   */\n      tag_81\n        /* \"#utility.yul\":2952:2957   */\n      dup2\n        /* \"#utility.yul\":2934:2958   */\n      tag_34\n      jump\t// in\n    tag_81:\n        /* \"#utility.yul\":2929:2932   */\n      dup3\n        /* \"#utility.yul\":2922:2959   */\n      mstore\n        /* \"#utility.yul\":2847:2965   */\n      pop\n      pop\n      jump\t// out\n        /* \"#utility.yul\":2971:3303   */\n    tag_22:\n        /* \"#utility.yul\":3092:3096   */\n      0x00\n        /* \"#utility.yul\":3130:3132   */\n      0x40\n        /* \"#utility.yul\":3119:3128   */\n      dup3\n        /* \"#utility.yul\":3115:3133   */\n      add\n        /* \"#utility.yul\":3107:3133   */\n      swap1\n      pop\n        /* \"#utility.yul\":3143:3214   */\n      tag_83\n        /* \"#utility.yul\":3211:3212   */\n      0x00\n        /* \"#utility.yul\":3200:3209   */\n      dup4\n        /* \"#utility.yul\":3196:3213   */\n      add\n        /* \"#utility.yul\":3187:3193   */\n      dup6\n        /* \"#utility.yul\":3143:3214   */\n      tag_36\n      jump\t// in\n    tag_83:\n        /* \"#utility.yul\":3224:3296   */\n      tag_84\n        /* \"#utility.yul\":3292:3294   */\n      0x20\n        /* \"#utility.yul\":3281:3290   */\n      dup4\n        /* \"#utility.yul\":3277:3295   */\n      add\n        /* \"#utility.yul\":3268:3274   */\n      dup5\n        /* \"#utility.yul\":3224:3296   */\n      tag_39\n      jump\t// in\n    tag_84:\n        /* \"#utility.yul\":2971:3303   */\n      swap4\n      swap3\n      pop\n      pop\n      pop\n      jump\t// out\n        /* \"#utility.yul\":3309:3399   */\n    tag_40:\n        /* \"#utility.yul\":3343:3350   */\n      0x00\n        /* \"#utility.yul\":3386:3391   */\n      dup2\n        /* \"#utility.yul\":3379:3392   */\n      iszero\n        /* \"#utility.yul\":3372:3393   */\n      iszero\n        /* \"#utility.yul\":3361:3393   */\n      swap1\n      pop\n        /* \"#utility.yul\":3309:3399   */\n      swap2\n      swap1\n      pop\n      jump\t// out\n        /* \"#utility.yul\":3405:3521   */\n    tag_41:\n        /* \"#utility.yul\":3475:3496   */\n      tag_87\n        /* \"#utility.yul\":3490:3495   */\n      dup2\n        /* \"#utility.yul\":3475:3496   */\n      tag_40\n      jump\t// in\n    tag_87:\n        /* \"#utility.yul\":3468:3473   */\n      dup2\n        /* \"#utility.yul\":3465:3497   */\n      eq\n        /* \"#utility.yul\":3455:3515   */\n      tag_88\n      jumpi\n        /* \"#utility.yul\":3511:3512   */\n      0x00\n        /* \"#utility.yul\":3508:3509   */\n      dup1\n        /* \"#utility.yul\":3501:3513   */\n      revert\n        /* \"#utility.yul\":3455:3515   */\n    tag_88:\n        /* \"#utility.yul\":3405:3521   */\n      pop\n      jump\t// out\n        /* \"#utility.yul\":3527:3664   */\n    tag_42:\n        /* \"#utility.yul\":3581:3586   */\n      0x00\n        /* \"#utility.yul\":3612:3618   */\n      dup2\n        /* \"#utility.yul\":3606:3619   */\n      mload\n        /* \"#utility.yul\":3597:3619   */\n      swap1\n      pop\n        /* \"#utility.yul\":3628:3658   */\n      tag_90\n        /* \"#utility.yul\":3652:3657   */\n      dup2\n        /* \"#utility.yul\":3628:3658   */\n      tag_41\n      jump\t// in\n    tag_90:\n        /* \"#utility.yul\":3527:3664   */\n      swap3\n      swap2\n      pop\n      pop\n      jump\t// out\n        /* \"#utility.yul\":3670:4015   */\n    tag_26:\n        /* \"#utility.yul\":3737:3743   */\n      0x00\n        /* \"#utility.yul\":3786:3788   */\n      0x20\n        /* \"#utility.yul\":3774:3783   */\n      dup3\n        /* \"#utility.yul\":3765:3772   */\n      dup5\n        /* \"#utility.yul\":3761:3784   */\n      sub\n        /* \"#utility.yul\":3757:3789   */\n      slt\n        /* \"#utility.yul\":3754:3873   */\n      iszero\n      tag_92\n      jumpi\n        /* \"#utility.yul\":3792:3871   */\n      tag_93\n      tag_28\n      jump\t// in\n    tag_93:\n        /* \"#utility.yul\":3754:3873   */\n    tag_92:\n        /* \"#utility.yul\":3912:3913   */\n      0x00\n        /* \"#utility.yul\":3937:3998   */\n      tag_94\n        /* \"#utility.yul\":3990:3997   */\n      dup5\n        /* \"#utility.yul\":3981:3987   */\n      dup3\n        /* \"#utility.yul\":3970:3979   */\n      dup6\n        /* \"#utility.yul\":3966:3988   */\n      add\n        /* \"#utility.yul\":3937:3998   */\n      tag_42\n      jump\t// in\n    tag_94:\n        /* \"#utility.yul\":3927:3998   */\n      swap2\n      pop\n        /* \"#utility.yul\":3883:4008   */\n      pop\n        /* \"#utility.yul\":3670:4015   */\n      swap3\n      swap2\n      pop\n      pop\n      jump\t// out\n\n    auxdata: 0xa2646970667358221220befdf0766af8c6c3bc88fc588f119d9d3084d2235b2ad366ee5575549fd3ead764736f6c634300081a0033\n}\n",
				"bytecode": {
					"linkReferences": {},
					"object": "60c0604052731241676d45b1cb5b573b6258c4a838e149a1d19173ffffffffffffffffffffffffffffffffffffffff1660809073ffffffffffffffffffffffffffffffffffffffff16815250620f424060a090815250348015610060575f80fd5b50335f806101000a81548173ffffffffffffffffffffffffffffffffffffffff021916908373ffffffffffffffffffffffffffffffffffffffff16021790555060805160a0516104b26100cd5f395f818160a101526101dc01525f818160cf015261019f01526104b25ff3fe608060405234801561000f575f80fd5b5060043610610029575f3560e01c8063597704381461002d575b5f80fd5b610047600480360381019061004291906102c7565b610049565b005b5f8054906101000a900473ffffffffffffffffffffffffffffffffffffffff1673ffffffffffffffffffffffffffffffffffffffff163373ffffffffffffffffffffffffffffffffffffffff161461009f575f80fd5b7f00000000000000000000000000000000000000000000000000000000000000006107d06100cd9190610328565b7f000000000000000000000000000000000000000000000000000000000000000073ffffffffffffffffffffffffffffffffffffffff166370a08231836040518263ffffffff1660e01b81526004016101269190610378565b602060405180830381865afa158015610141573d5f803e3d5ffd5b505050506040513d601f19601f8201168201806040525081019061016591906103bb565b111561019d576040517f756f034900000000000000000000000000000000000000000000000000000000815260040160405180910390fd5b7f000000000000000000000000000000000000000000000000000000000000000073ffffffffffffffffffffffffffffffffffffffff1663a9059cbb827f00000000000000000000000000000000000000000000000000000000000000006113886102089190610328565b6040518363ffffffff1660e01b81526004016102259291906103f5565b6020604051808303815f875af1158015610241573d5f803e3d5ffd5b505050506040513d601f19601f820116820180604052508101906102659190610451565b5050565b5f80fd5b5f73ffffffffffffffffffffffffffffffffffffffff82169050919050565b5f6102968261026d565b9050919050565b6102a68161028c565b81146102b0575f80fd5b50565b5f813590506102c18161029d565b92915050565b5f602082840312156102dc576102db610269565b5b5f6102e9848285016102b3565b91505092915050565b5f819050919050565b7f4e487b71000000000000000000000000000000000000000000000000000000005f52601160045260245ffd5b5f610332826102f2565b915061033d836102f2565b925082820261034b816102f2565b91508282048414831517610362576103616102fb565b5b5092915050565b6103728161028c565b82525050565b5f60208201905061038b5f830184610369565b92915050565b61039a816102f2565b81146103a4575f80fd5b50565b5f815190506103b581610391565b92915050565b5f602082840312156103d0576103cf610269565b5b5f6103dd848285016103a7565b91505092915050565b6103ef816102f2565b82525050565b5f6040820190506104085f830185610369565b61041560208301846103e6565b9392505050565b5f8115159050919050565b6104308161041c565b811461043a575f80fd5b50565b5f8151905061044b81610427565b92915050565b5f6020828403121561046657610465610269565b5b5f6104738482850161043d565b9150509291505056fea2646970667358221220befdf0766af8c6c3bc88fc588f119d9d3084d2235b2ad366ee5575549fd3ead764736f6c634300081a0033",
					"opcodes": "PUSH1 0xC0 PUSH1 0x40 MSTORE PUSH20 0x1241676D45B1CB5B573B6258C4A838E149A1D191 PUSH20 0xFFFFFFFFFFFFFFFFFFFFFFFFFFFFFFFFFFFFFFFF AND PUSH1 0x80 SWAP1 PUSH20 0xFFFFFFFFFFFFFFFFFFFFFFFFFFFFFFFFFFFFFFFF AND DUP2 MSTORE POP PUSH3 0xF4240 PUSH1 0xA0 SWAP1 DUP2 MSTORE POP CALLVALUE DUP1 ISZERO PUSH2 0x60 JUMPI PUSH0 DUP1 REVERT JUMPDEST POP CALLER PUSH0 DUP1 PUSH2 0x100 EXP DUP2 SLOAD DUP2 PUSH20 0xFFFFFFFFFFFFFFFFFFFFFFFFFFFFFFFFFFFFFFFF MUL NOT AND SWAP1 DUP4 PUSH20 0xFFFFFFFFFFFFFFFFFFFFFFFFFFFFFFFFFFFFFFFF AND MUL OR SWAP1 SSTORE POP PUSH1 0x80 MLOAD PUSH1 0xA0 MLOAD PUSH2 0x4B2 PUSH2 0xCD PUSH0 CODECOPY PUSH0 DUP2 DUP2 PUSH1 0xA1 ADD MSTORE PUSH2 0x1DC ADD MSTORE PUSH0 DUP2 DUP2 PUSH1 0xCF ADD MSTORE PUSH2 0x19F ADD MSTORE PUSH2 0x4B2 PUSH0 RETURN INVALID PUSH1 0x80 PUSH1 0x40 MSTORE CALLVALUE DUP1 ISZERO PUSH2 0xF JUMPI PUSH0 DUP1 REVERT JUMPDEST POP PUSH1 0x4 CALLDATASIZE LT PUSH2 0x29 JUMPI PUSH0 CALLDATALOAD PUSH1 0xE0 SHR DUP1 PUSH4 0x59770438 EQ PUSH2 0x2D JUMPI JUMPDEST PUSH0 DUP1 REVERT JUMPDEST PUSH2 0x47 PUSH1 0x4 DUP1 CALLDATASIZE SUB DUP2 ADD SWAP1 PUSH2 0x42 SWAP2 SWAP1 PUSH2 0x2C7 JUMP JUMPDEST PUSH2 0x49 JUMP JUMPDEST STOP JUMPDEST PUSH0 DUP1 SLOAD SWAP1 PUSH2 0x100 EXP SWAP1 DIV PUSH20 0xFFFFFFFFFFFFFFFFFFFFFFFFFFFFFFFFFFFFFFFF AND PUSH20 0xFFFFFFFFFFFFFFFFFFFFFFFFFFFFFFFFFFFFFFFF AND CALLER PUSH20 0xFFFFFFFFFFFFFFFFFFFFFFFFFFFFFFFFFFFFFFFF AND EQ PUSH2 0x9F JUMPI PUSH0 DUP1 REVERT JUMPDEST PUSH32 0x0 PUSH2 0x7D0 PUSH2 0xCD SWAP2 SWAP1 PUSH2 0x328 JUMP JUMPDEST PUSH32 0x0 PUSH20 0xFFFFFFFFFFFFFFFFFFFFFFFFFFFFFFFFFFFFFFFF AND PUSH4 0x70A08231 DUP4 PUSH1 0x40 MLOAD DUP3 PUSH4 0xFFFFFFFF AND PUSH1 0xE0 SHL DUP2 MSTORE PUSH1 0x4 ADD PUSH2 0x126 SWAP2 SWAP1 PUSH2 0x378 JUMP JUMPDEST PUSH1 0x20 PUSH1 0x40 MLOAD DUP1 DUP4 SUB DUP2 DUP7 GAS STATICCALL ISZERO DUP1 ISZERO PUSH2 0x141 JUMPI RETURNDATASIZE PUSH0 DUP1 RETURNDATACOPY RETURNDATASIZE PUSH0 REVERT JUMPDEST POP POP POP POP PUSH1 0x40 MLOAD RETURNDATASIZE PUSH1 0x1F NOT PUSH1 0x1F DUP3 ADD AND DUP3 ADD DUP1 PUSH1 0x40 MSTORE POP DUP2 ADD SWAP1 PUSH2 0x165 SWAP2 SWAP1 PUSH2 0x3BB JUMP JUMPDEST GT ISZERO PUSH2 0x19D JUMPI PUSH1 0x40 MLOAD PUSH32 0x756F034900000000000000000000000000000000000000000000000000000000 DUP2 MSTORE PUSH1 0x4 ADD PUSH1 0x40 MLOAD DUP1 SWAP2 SUB SWAP1 REVERT JUMPDEST PUSH32 0x0 PUSH20 0xFFFFFFFFFFFFFFFFFFFFFFFFFFFFFFFFFFFFFFFF AND PUSH4 0xA9059CBB DUP3 PUSH32 0x0 PUSH2 0x1388 PUSH2 0x208 SWAP2 SWAP1 PUSH2 0x328 JUMP JUMPDEST PUSH1 0x40 MLOAD DUP4 PUSH4 0xFFFFFFFF AND PUSH1 0xE0 SHL DUP2 MSTORE PUSH1 0x4 ADD PUSH2 0x225 SWAP3 SWAP2 SWAP1 PUSH2 0x3F5 JUMP JUMPDEST PUSH1 0x20 PUSH1 0x40 MLOAD DUP1 DUP4 SUB DUP2 PUSH0 DUP8 GAS CALL ISZERO DUP1 ISZERO PUSH2 0x241 JUMPI RETURNDATASIZE PUSH0 DUP1 RETURNDATACOPY RETURNDATASIZE PUSH0 REVERT JUMPDEST POP POP POP POP PUSH1 0x40 MLOAD RETURNDATASIZE PUSH1 0x1F NOT PUSH1 0x1F DUP3 ADD AND DUP3 ADD DUP1 PUSH1 0x40 MSTORE POP DUP2 ADD SWAP1 PUSH2 0x265 SWAP2 SWAP1 PUSH2 0x451 JUMP JUMPDEST POP POP JUMP JUMPDEST PUSH0 DUP1 REVERT JUMPDEST PUSH0 PUSH20 0xFFFFFFFFFFFFFFFFFFFFFFFFFFFFFFFFFFFFFFFF DUP3 AND SWAP1 POP SWAP2 SWAP1 POP JUMP JUMPDEST PUSH0 PUSH2 0x296 DUP3 PUSH2 0x26D JUMP JUMPDEST SWAP1 POP SWAP2 SWAP1 POP JUMP JUMPDEST PUSH2 0x2A6 DUP2 PUSH2 0x28C JUMP JUMPDEST DUP2 EQ PUSH2 0x2B0 JUMPI PUSH0 DUP1 REVERT JUMPDEST POP JUMP JUMPDEST PUSH0 DUP2 CALLDATALOAD SWAP1 POP PUSH2 0x2C1 DUP2 PUSH2 0x29D JUMP JUMPDEST SWAP3 SWAP2 POP POP JUMP JUMPDEST PUSH0 PUSH1 0x20 DUP3 DUP5 SUB SLT ISZERO PUSH2 0x2DC JUMPI PUSH2 0x2DB PUSH2 0x269 JUMP JUMPDEST JUMPDEST PUSH0 PUSH2 0x2E9 DUP5 DUP3 DUP6 ADD PUSH2 0x2B3 JUMP JUMPDEST SWAP2 POP POP SWAP3 SWAP2 POP POP JUMP JUMPDEST PUSH0 DUP2 SWAP1 POP SWAP2 SWAP1 POP JUMP JUMPDEST PUSH32 0x4E487B7100000000000000000000000000000000000000000000000000000000 PUSH0 MSTORE PUSH1 0x11 PUSH1 0x4 MSTORE PUSH1 0x24 PUSH0 REVERT JUMPDEST PUSH0 PUSH2 0x332 DUP3 PUSH2 0x2F2 JUMP JUMPDEST SWAP2 POP PUSH2 0x33D DUP4 PUSH2 0x2F2 JUMP JUMPDEST SWAP3 POP DUP3 DUP3 MUL PUSH2 0x34B DUP2 PUSH2 0x2F2 JUMP JUMPDEST SWAP2 POP DUP3 DUP3 DIV DUP5 EQ DUP4 ISZERO OR PUSH2 0x362 JUMPI PUSH2 0x361 PUSH2 0x2FB JUMP JUMPDEST JUMPDEST POP SWAP3 SWAP2 POP POP JUMP JUMPDEST PUSH2 0x372 DUP2 PUSH2 0x28C JUMP JUMPDEST DUP3 MSTORE POP POP JUMP JUMPDEST PUSH0 PUSH1 0x20 DUP3 ADD SWAP1 POP PUSH2 0x38B PUSH0 DUP4 ADD DUP5 PUSH2 0x369 JUMP JUMPDEST SWAP3 SWAP2 POP POP JUMP JUMPDEST PUSH2 0x39A DUP2 PUSH2 0x2F2 JUMP JUMPDEST DUP2 EQ PUSH2 0x3A4 JUMPI PUSH0 DUP1 REVERT JUMPDEST POP JUMP JUMPDEST PUSH0 DUP2 MLOAD SWAP1 POP PUSH2 0x3B5 DUP2 PUSH2 0x391 JUMP JUMPDEST SWAP3 SWAP2 POP POP JUMP JUMPDEST PUSH0 PUSH1 0x20 DUP3 DUP5 SUB SLT ISZERO PUSH2 0x3D0 JUMPI PUSH2 0x3CF PUSH2 0x269 JUMP JUMPDEST JUMPDEST PUSH0 PUSH2 0x3DD DUP5 DUP3 DUP6 ADD PUSH2 0x3A7 JUMP JUMPDEST SWAP2 POP POP SWAP3 SWAP2 POP POP JUMP JUMPDEST PUSH2 0x3EF DUP2 PUSH2 0x2F2 JUMP JUMPDEST DUP3 MSTORE POP POP JUMP JUMPDEST PUSH0 PUSH1 0x40 DUP3 ADD SWAP1 POP PUSH2 0x408 PUSH0 DUP4 ADD DUP6 PUSH2 0x369 JUMP JUMPDEST PUSH2 0x415 PUSH1 0x20 DUP4 ADD DUP5 PUSH2 0x3E6 JUMP JUMPDEST SWAP4 SWAP3 POP POP POP JUMP JUMPDEST PUSH0 DUP2 ISZERO ISZERO SWAP1 POP SWAP2 SWAP1 POP JUMP JUMPDEST PUSH2 0x430 DUP2 PUSH2 0x41C JUMP JUMPDEST DUP2 EQ PUSH2 0x43A JUMPI PUSH0 DUP1 REVERT JUMPDEST POP JUMP JUMPDEST PUSH0 DUP2 MLOAD SWAP1 POP PUSH2 0x44B DUP2 PUSH2 0x427 JUMP JUMPDEST SWAP3 SWAP2 POP POP JUMP JUMPDEST PUSH0 PUSH1 0x20 DUP3 DUP5 SUB SLT ISZERO PUSH2 0x466 JUMPI PUSH2 0x465 PUSH2 0x269 JUMP JUMPDEST JUMPDEST PUSH0 PUSH2 0x473 DUP5 DUP3 DUP6 ADD PUSH2 0x43D JUMP JUMPDEST SWAP2 POP POP SWAP3 SWAP2 POP POP JUMP INVALID LOG2 PUSH5 0x6970667358 0x22 SLT KECCAK256 0xBE REVERT CREATE PUSH23 0x6AF8C6C3BC88FC588F119D9D3084D2235B2AD366EE5575 SLOAD SWAP16 0xD3 0xEA 0xD7 PUSH5 0x736F6C6343 STOP ADDMOD BYTE STOP CALLER "
				},
				"gasEstimates": {
					"creation": {
						"codeDepositCost": "240400",
						"executionCost": "infinite",
						"totalCost": "infinite"
					},
					"external": {
						"getToken(address)": "infinite"
					}
				},
				"methodIdentifiers": {
					"getToken(address)": "59770438"
				}
			},
			"storageLayout": {
				"storage": [
					{
						"astId": 37,
						"contract": "contracts/claimTrvx.sol:Claim",
						"label": "owner",
						"offset": 0,
						"slot": "0",
						"type": "t_address"
					}
				],
				"types": {
					"t_address": {
						"encoding": "inplace",
						"label": "address",
						"numberOfBytes": "20"
					}
				}
			},
			"userdoc": {
				"kind": "user",
				"methods": {},
				"version": 1
			}
		}
	}
}