{
	"contracts/complimet.sol": {
		"FactoryCompliment": {
			"abi": [
				{
					"inputs": [],
					"name": "DisplayMessage",
					"outputs": [
						{
							"internalType": "string",
							"name": "",
							"type": "string"
						}
					],
					"stateMutability": "view",
					"type": "function"
				},
				{
					"inputs": [
						{
							"internalType": "string",
							"name": "_name",
							"type": "string"
						}
					],
					"name": "createCompilment",
					"outputs": [
						{
							"internalType": "string",
							"name": "",
							"type": "string"
						}
					],
					"stateMutability": "nonpayable",
					"type": "function"
				},
				{
					"inputs": [],
					"name": "message",
					"outputs": [
						{
							"internalType": "string",
							"name": "",
							"type": "string"
						}
					],
					"stateMutability": "view",
					"type": "function"
				}
			],
			"devdoc": {
				"kind": "dev",
				"methods": {},
				"version": 1
			},
			"evm": {
				"assembly": "    /* \"contracts/complimet.sol\":292:678  contract FactoryCompliment{... */\n  mstore(0x40, 0x80)\n  callvalue\n  dup1\n  iszero\n  tag_1\n  jumpi\n  0x00\n  dup1\n  revert\ntag_1:\n  pop\n  dataSize(sub_0)\n  dup1\n  dataOffset(sub_0)\n  0x00\n  codecopy\n  0x00\n  return\nstop\n\nsub_0: assembly {\n        /* \"contracts/complimet.sol\":292:678  contract FactoryCompliment{... */\n      mstore(0x40, 0x80)\n      callvalue\n      dup1\n      iszero\n      tag_1\n      jumpi\n      0x00\n      dup1\n      revert\n    tag_1:\n      pop\n      jumpi(tag_2, lt(calldatasize, 0x04))\n      shr(0xe0, calldataload(0x00))\n      dup1\n      0x476aa751\n      eq\n      tag_3\n      jumpi\n      dup1\n      0xe1a26cd8\n      eq\n      tag_4\n      jumpi\n      dup1\n      0xe21f37ce\n      eq\n      tag_5\n      jumpi\n    tag_2:\n      0x00\n      dup1\n      revert\n        /* \"contracts/complimet.sol\":381:603  function createCompilment(string memory _name) public returns (string memory) {... */\n    tag_3:\n      tag_6\n      0x04\n      dup1\n      calldatasize\n      sub\n      dup2\n      add\n      swap1\n      tag_7\n      swap2\n      swap1\n      tag_8\n      jump\t// in\n    tag_7:\n      tag_9\n      jump\t// in\n    tag_6:\n      mload(0x40)\n      tag_10\n      swap2\n      swap1\n      tag_11\n      jump\t// in\n    tag_10:\n      mload(0x40)\n      dup1\n      swap2\n      sub\n      swap1\n      return\n        /* \"contracts/complimet.sol\":608:676  function DisplayMessage() public view returns(string memory){... */\n    tag_4:\n      tag_12\n      tag_13\n      jump\t// in\n    tag_12:\n      mload(0x40)\n      tag_14\n      swap2\n      swap1\n      tag_11\n      jump\t// in\n    tag_14:\n      mload(0x40)\n      dup1\n      swap2\n      sub\n      swap1\n      return\n        /* \"contracts/complimet.sol\":354:375  string public message */\n    tag_5:\n      tag_15\n      tag_16\n      jump\t// in\n    tag_15:\n      mload(0x40)\n      tag_17\n      swap2\n      swap1\n      tag_11\n      jump\t// in\n    tag_17:\n      mload(0x40)\n      dup1\n      swap2\n      sub\n      swap1\n      return\n        /* \"contracts/complimet.sol\":381:603  function createCompilment(string memory _name) public returns (string memory) {... */\n    tag_9:\n        /* \"contracts/complimet.sol\":444:457  string memory */\n      0x60\n        /* \"contracts/complimet.sol\":499:504  _name */\n      dup2\n        /* \"contracts/complimet.sol\":484:505  new Compliment(_name) */\n      mload(0x40)\n      tag_19\n      swap1\n      tag_20\n      jump\t// in\n    tag_19:\n      tag_21\n      swap2\n      swap1\n      tag_11\n      jump\t// in\n    tag_21:\n      mload(0x40)\n      dup1\n      swap2\n      sub\n      swap1\n      0x00\n      create\n      dup1\n      iszero\n      dup1\n      iszero\n      tag_22\n      jumpi\n      returndatasize\n      0x00\n      dup1\n      returndatacopy\n      revert(0x00, returndatasize)\n    tag_22:\n      pop\n        /* \"contracts/complimet.sol\":469:482  newCompliment */\n      0x00\n      dup1\n        /* \"contracts/complimet.sol\":469:505  newCompliment= new Compliment(_name) */\n      0x0100\n      exp\n      dup2\n      sload\n      dup2\n      0xffffffffffffffffffffffffffffffffffffffff\n      mul\n      not\n      and\n      swap1\n      dup4\n      0xffffffffffffffffffffffffffffffffffffffff\n      and\n      mul\n      or\n      swap1\n      sstore\n      pop\n        /* \"contracts/complimet.sol\":523:536  newCompliment */\n      0x00\n      dup1\n      sload\n      swap1\n      0x0100\n      exp\n      swap1\n      div\n      0xffffffffffffffffffffffffffffffffffffffff\n      and\n        /* \"contracts/complimet.sol\":523:549  newCompliment.greetMessage */\n      0xffffffffffffffffffffffffffffffffffffffff\n      and\n      0x5489a245\n        /* \"contracts/complimet.sol\":523:551  newCompliment.greetMessage() */\n      mload(0x40)\n      dup2\n      0xffffffff\n      and\n      0xe0\n      shl\n      dup2\n      mstore\n      0x04\n      add\n      0x00\n      mload(0x40)\n      dup1\n      dup4\n      sub\n      dup2\n      dup7\n      gas\n      staticcall\n      iszero\n      dup1\n      iszero\n      tag_24\n      jumpi\n      returndatasize\n      0x00\n      dup1\n      returndatacopy\n      revert(0x00, returndatasize)\n    tag_24:\n      pop\n      pop\n      pop\n      pop\n      mload(0x40)\n      returndatasize\n      0x00\n      dup3\n      returndatacopy\n      returndatasize\n      not(0x1f)\n      0x1f\n      dup3\n      add\n      and\n      dup3\n      add\n      dup1\n      0x40\n      mstore\n      pop\n      dup2\n      add\n      swap1\n      tag_25\n      swap2\n      swap1\n      tag_26\n      jump\t// in\n    tag_25:\n        /* \"contracts/complimet.sol\":515:522  message */\n      0x01\n        /* \"contracts/complimet.sol\":515:551  message=newCompliment.greetMessage() */\n      swap1\n      dup2\n      tag_27\n      swap2\n      swap1\n      tag_28\n      jump\t// in\n    tag_27:\n      pop\n        /* \"contracts/complimet.sol\":568:581  newCompliment */\n      0x00\n      dup1\n      sload\n      swap1\n      0x0100\n      exp\n      swap1\n      div\n      0xffffffffffffffffffffffffffffffffffffffff\n      and\n        /* \"contracts/complimet.sol\":568:594  newCompliment.greetMessage */\n      0xffffffffffffffffffffffffffffffffffffffff\n      and\n      0x5489a245\n        /* \"contracts/complimet.sol\":568:596  newCompliment.greetMessage() */\n      mload(0x40)\n      dup2\n      0xffffffff\n      and\n      0xe0\n      shl\n      dup2\n      mstore\n      0x04\n      add\n      0x00\n      mload(0x40)\n      dup1\n      dup4\n      sub\n      dup2\n      dup7\n      gas\n      staticcall\n      iszero\n      dup1\n      iszero\n      tag_30\n      jumpi\n      returndatasize\n      0x00\n      dup1\n      returndatacopy\n      revert(0x00, returndatasize)\n    tag_30:\n      pop\n      pop\n      pop\n      pop\n      mload(0x40)\n      returndatasize\n      0x00\n      dup3\n      returndatacopy\n      returndatasize\n      not(0x1f)\n      0x1f\n      dup3\n      add\n      and\n      dup3\n      add\n      dup1\n      0x40\n      mstore\n      pop\n      dup2\n      add\n      swap1\n      tag_31\n      swap2\n      swap1\n      tag_26\n      jump\t// in\n    tag_31:\n        /* \"contracts/complimet.sol\":561:596  return newCompliment.greetMessage() */\n      swap1\n      pop\n        /* \"contracts/complimet.sol\":381:603  function createCompilment(string memory _name) public returns (string memory) {... */\n      swap2\n      swap1\n      pop\n      jump\t// out\n        /* \"contracts/complimet.sol\":608:676  function DisplayMessage() public view returns(string memory){... */\n    tag_13:\n        /* \"contracts/complimet.sol\":654:667  string memory */\n      0x60\n        /* \"contracts/complimet.sol\":608:676  function DisplayMessage() public view returns(string memory){... */\n      swap1\n      jump\t// out\n        /* \"contracts/complimet.sol\":354:375  string public message */\n    tag_16:\n      0x01\n      dup1\n      sload\n      tag_33\n      swap1\n      tag_34\n      jump\t// in\n    tag_33:\n      dup1\n      0x1f\n      add\n      0x20\n      dup1\n      swap2\n      div\n      mul\n      0x20\n      add\n      mload(0x40)\n      swap1\n      dup2\n      add\n      0x40\n      mstore\n      dup1\n      swap3\n      swap2\n      swap1\n      dup2\n      dup2\n      mstore\n      0x20\n      add\n      dup3\n      dup1\n      sload\n      tag_35\n      swap1\n      tag_34\n      jump\t// in\n    tag_35:\n      dup1\n      iszero\n      tag_36\n      jumpi\n      dup1\n      0x1f\n      lt\n      tag_37\n      jumpi\n      0x0100\n      dup1\n      dup4\n      sload\n      div\n      mul\n      dup4\n      mstore\n      swap2\n      0x20\n      add\n      swap2\n      jump(tag_36)\n    tag_37:\n      dup3\n      add\n      swap2\n      swap1\n      0x00\n      mstore\n      keccak256(0x00, 0x20)\n      swap1\n    tag_38:\n      dup2\n      sload\n      dup2\n      mstore\n      swap1\n      0x01\n      add\n      swap1\n      0x20\n      add\n      dup1\n      dup4\n      gt\n      tag_38\n      jumpi\n      dup3\n      swap1\n      sub\n      0x1f\n      and\n      dup3\n      add\n      swap2\n    tag_36:\n      pop\n      pop\n      pop\n      pop\n      pop\n      dup2\n      jump\t// out\n    tag_20:\n      dataSize(sub_0)\n      dup1\n      dataOffset(sub_0)\n      dup4\n      codecopy\n      add\n      swap1\n      jump\t// out\n        /* \"#utility.yul\":7:82   */\n    tag_39:\n        /* \"#utility.yul\":40:46   */\n      0x00\n        /* \"#utility.yul\":73:75   */\n      0x40\n        /* \"#utility.yul\":67:76   */\n      mload\n        /* \"#utility.yul\":57:76   */\n      swap1\n      pop\n        /* \"#utility.yul\":7:82   */\n      swap1\n      jump\t// out\n        /* \"#utility.yul\":88:205   */\n    tag_40:\n        /* \"#utility.yul\":197:198   */\n      0x00\n        /* \"#utility.yul\":194:195   */\n      dup1\n        /* \"#utility.yul\":187:199   */\n      revert\n        /* \"#utility.yul\":211:328   */\n    tag_41:\n        /* \"#utility.yul\":320:321   */\n      0x00\n        /* \"#utility.yul\":317:318   */\n      dup1\n        /* \"#utility.yul\":310:322   */\n      revert\n        /* \"#utility.yul\":334:451   */\n    tag_42:\n        /* \"#utility.yul\":443:444   */\n      0x00\n        /* \"#utility.yul\":440:441   */\n      dup1\n        /* \"#utility.yul\":433:445   */\n      revert\n        /* \"#utility.yul\":457:574   */\n    tag_43:\n        /* \"#utility.yul\":566:567   */\n      0x00\n        /* \"#utility.yul\":563:564   */\n      dup1\n        /* \"#utility.yul\":556:568   */\n      revert\n        /* \"#utility.yul\":580:682   */\n    tag_44:\n        /* \"#utility.yul\":621:627   */\n      0x00\n        /* \"#utility.yul\":672:674   */\n      0x1f\n        /* \"#utility.yul\":668:675   */\n      not\n        /* \"#utility.yul\":663:665   */\n      0x1f\n        /* \"#utility.yul\":656:661   */\n      dup4\n        /* \"#utility.yul\":652:666   */\n      add\n        /* \"#utility.yul\":648:676   */\n      and\n        /* \"#utility.yul\":638:676   */\n      swap1\n      pop\n        /* \"#utility.yul\":580:682   */\n      swap2\n      swap1\n      pop\n      jump\t// out\n        /* \"#utility.yul\":688:868   */\n    tag_45:\n        /* \"#utility.yul\":736:813   */\n      0x4e487b7100000000000000000000000000000000000000000000000000000000\n        /* \"#utility.yul\":733:734   */\n      0x00\n        /* \"#utility.yul\":726:814   */\n      mstore\n        /* \"#utility.yul\":833:837   */\n      0x41\n        /* \"#utility.yul\":830:831   */\n      0x04\n        /* \"#utility.yul\":823:838   */\n      mstore\n        /* \"#utility.yul\":857:861   */\n      0x24\n        /* \"#utility.yul\":854:855   */\n      0x00\n        /* \"#utility.yul\":847:862   */\n      revert\n        /* \"#utility.yul\":874:1155   */\n    tag_46:\n        /* \"#utility.yul\":957:984   */\n      tag_84\n        /* \"#utility.yul\":979:983   */\n      dup3\n        /* \"#utility.yul\":957:984   */\n      tag_44\n      jump\t// in\n    tag_84:\n        /* \"#utility.yul\":949:955   */\n      dup2\n        /* \"#utility.yul\":945:985   */\n      add\n        /* \"#utility.yul\":1087:1093   */\n      dup2\n        /* \"#utility.yul\":1075:1085   */\n      dup2\n        /* \"#utility.yul\":1072:1094   */\n      lt\n        /* \"#utility.yul\":1051:1069   */\n      0xffffffffffffffff\n        /* \"#utility.yul\":1039:1049   */\n      dup3\n        /* \"#utility.yul\":1036:1070   */\n      gt\n        /* \"#utility.yul\":1033:1095   */\n      or\n        /* \"#utility.yul\":1030:1118   */\n      iszero\n      tag_85\n      jumpi\n        /* \"#utility.yul\":1098:1116   */\n      tag_86\n      tag_45\n      jump\t// in\n    tag_86:\n        /* \"#utility.yul\":1030:1118   */\n    tag_85:\n        /* \"#utility.yul\":1138:1148   */\n      dup1\n        /* \"#utility.yul\":1134:1136   */\n      0x40\n        /* \"#utility.yul\":1127:1149   */\n      mstore\n        /* \"#utility.yul\":917:1155   */\n      pop\n        /* \"#utility.yul\":874:1155   */\n      pop\n      pop\n      jump\t// out\n        /* \"#utility.yul\":1161:1290   */\n    tag_47:\n        /* \"#utility.yul\":1195:1201   */\n      0x00\n        /* \"#utility.yul\":1222:1242   */\n      tag_88\n      tag_39\n      jump\t// in\n    tag_88:\n        /* \"#utility.yul\":1212:1242   */\n      swap1\n      pop\n        /* \"#utility.yul\":1251:1284   */\n      tag_89\n        /* \"#utility.yul\":1279:1283   */\n      dup3\n        /* \"#utility.yul\":1271:1277   */\n      dup3\n        /* \"#utility.yul\":1251:1284   */\n      tag_46\n      jump\t// in\n    tag_89:\n        /* \"#utility.yul\":1161:1290   */\n      swap2\n      swap1\n      pop\n      jump\t// out\n        /* \"#utility.yul\":1296:1604   */\n    tag_48:\n        /* \"#utility.yul\":1358:1362   */\n      0x00\n        /* \"#utility.yul\":1448:1466   */\n      0xffffffffffffffff\n        /* \"#utility.yul\":1440:1446   */\n      dup3\n        /* \"#utility.yul\":1437:1467   */\n      gt\n        /* \"#utility.yul\":1434:1490   */\n      iszero\n      tag_91\n      jumpi\n        /* \"#utility.yul\":1470:1488   */\n      tag_92\n      tag_45\n      jump\t// in\n    tag_92:\n        /* \"#utility.yul\":1434:1490   */\n    tag_91:\n        /* \"#utility.yul\":1508:1537   */\n      tag_93\n        /* \"#utility.yul\":1530:1536   */\n      dup3\n        /* \"#utility.yul\":1508:1537   */\n      tag_44\n      jump\t// in\n    tag_93:\n        /* \"#utility.yul\":1500:1537   */\n      swap1\n      pop\n        /* \"#utility.yul\":1592:1596   */\n      0x20\n        /* \"#utility.yul\":1586:1590   */\n      dup2\n        /* \"#utility.yul\":1582:1597   */\n      add\n        /* \"#utility.yul\":1574:1597   */\n      swap1\n      pop\n        /* \"#utility.yul\":1296:1604   */\n      swap2\n      swap1\n      pop\n      jump\t// out\n        /* \"#utility.yul\":1610:1758   */\n    tag_49:\n        /* \"#utility.yul\":1708:1714   */\n      dup3\n        /* \"#utility.yul\":1703:1706   */\n      dup2\n        /* \"#utility.yul\":1698:1701   */\n      dup4\n        /* \"#utility.yul\":1685:1715   */\n      calldatacopy\n        /* \"#utility.yul\":1749:1750   */\n      0x00\n        /* \"#utility.yul\":1740:1746   */\n      dup4\n        /* \"#utility.yul\":1735:1738   */\n      dup4\n        /* \"#utility.yul\":1731:1747   */\n      add\n        /* \"#utility.yul\":1724:1751   */\n      mstore\n        /* \"#utility.yul\":1610:1758   */\n      pop\n      pop\n      pop\n      jump\t// out\n        /* \"#utility.yul\":1764:2189   */\n    tag_50:\n        /* \"#utility.yul\":1842:1847   */\n      0x00\n        /* \"#utility.yul\":1867:1933   */\n      tag_96\n        /* \"#utility.yul\":1883:1932   */\n      tag_97\n        /* \"#utility.yul\":1925:1931   */\n      dup5\n        /* \"#utility.yul\":1883:1932   */\n      tag_48\n      jump\t// in\n    tag_97:\n        /* \"#utility.yul\":1867:1933   */\n      tag_47\n      jump\t// in\n    tag_96:\n        /* \"#utility.yul\":1858:1933   */\n      swap1\n      pop\n        /* \"#utility.yul\":1956:1962   */\n      dup3\n        /* \"#utility.yul\":1949:1954   */\n      dup2\n        /* \"#utility.yul\":1942:1963   */\n      mstore\n        /* \"#utility.yul\":1994:1998   */\n      0x20\n        /* \"#utility.yul\":1987:1992   */\n      dup2\n        /* \"#utility.yul\":1983:1999   */\n      add\n        /* \"#utility.yul\":2032:2035   */\n      dup5\n        /* \"#utility.yul\":2023:2029   */\n      dup5\n        /* \"#utility.yul\":2018:2021   */\n      dup5\n        /* \"#utility.yul\":2014:2030   */\n      add\n        /* \"#utility.yul\":2011:2036   */\n      gt\n        /* \"#utility.yul\":2008:2120   */\n      iszero\n      tag_98\n      jumpi\n        /* \"#utility.yul\":2039:2118   */\n      tag_99\n      tag_43\n      jump\t// in\n    tag_99:\n        /* \"#utility.yul\":2008:2120   */\n    tag_98:\n        /* \"#utility.yul\":2129:2183   */\n      tag_100\n        /* \"#utility.yul\":2176:2182   */\n      dup5\n        /* \"#utility.yul\":2171:2174   */\n      dup3\n        /* \"#utility.yul\":2166:2169   */\n      dup6\n        /* \"#utility.yul\":2129:2183   */\n      tag_49\n      jump\t// in\n    tag_100:\n        /* \"#utility.yul\":1848:2189   */\n      pop\n        /* \"#utility.yul\":1764:2189   */\n      swap4\n      swap3\n      pop\n      pop\n      pop\n      jump\t// out\n        /* \"#utility.yul\":2209:2549   */\n    tag_51:\n        /* \"#utility.yul\":2265:2270   */\n      0x00\n        /* \"#utility.yul\":2314:2317   */\n      dup3\n        /* \"#utility.yul\":2307:2311   */\n      0x1f\n        /* \"#utility.yul\":2299:2305   */\n      dup4\n        /* \"#utility.yul\":2295:2312   */\n      add\n        /* \"#utility.yul\":2291:2318   */\n      slt\n        /* \"#utility.yul\":2281:2403   */\n      tag_102\n      jumpi\n        /* \"#utility.yul\":2322:2401   */\n      tag_103\n      tag_42\n      jump\t// in\n    tag_103:\n        /* \"#utility.yul\":2281:2403   */\n    tag_102:\n        /* \"#utility.yul\":2439:2445   */\n      dup2\n        /* \"#utility.yul\":2426:2446   */\n      calldataload\n        /* \"#utility.yul\":2464:2543   */\n      tag_104\n        /* \"#utility.yul\":2539:2542   */\n      dup5\n        /* \"#utility.yul\":2531:2537   */\n      dup3\n        /* \"#utility.yul\":2524:2528   */\n      0x20\n        /* \"#utility.yul\":2516:2522   */\n      dup7\n        /* \"#utility.yul\":2512:2529   */\n      add\n        /* \"#utility.yul\":2464:2543   */\n      tag_50\n      jump\t// in\n    tag_104:\n        /* \"#utility.yul\":2455:2543   */\n      swap2\n      pop\n        /* \"#utility.yul\":2271:2549   */\n      pop\n        /* \"#utility.yul\":2209:2549   */\n      swap3\n      swap2\n      pop\n      pop\n      jump\t// out\n        /* \"#utility.yul\":2555:3064   */\n    tag_8:\n        /* \"#utility.yul\":2624:2630   */\n      0x00\n        /* \"#utility.yul\":2673:2675   */\n      0x20\n        /* \"#utility.yul\":2661:2670   */\n      dup3\n        /* \"#utility.yul\":2652:2659   */\n      dup5\n        /* \"#utility.yul\":2648:2671   */\n      sub\n        /* \"#utility.yul\":2644:2676   */\n      slt\n        /* \"#utility.yul\":2641:2760   */\n      iszero\n      tag_106\n      jumpi\n        /* \"#utility.yul\":2679:2758   */\n      tag_107\n      tag_40\n      jump\t// in\n    tag_107:\n        /* \"#utility.yul\":2641:2760   */\n    tag_106:\n        /* \"#utility.yul\":2827:2828   */\n      0x00\n        /* \"#utility.yul\":2816:2825   */\n      dup3\n        /* \"#utility.yul\":2812:2829   */\n      add\n        /* \"#utility.yul\":2799:2830   */\n      calldataload\n        /* \"#utility.yul\":2857:2875   */\n      0xffffffffffffffff\n        /* \"#utility.yul\":2849:2855   */\n      dup2\n        /* \"#utility.yul\":2846:2876   */\n      gt\n        /* \"#utility.yul\":2843:2960   */\n      iszero\n      tag_108\n      jumpi\n        /* \"#utility.yul\":2879:2958   */\n      tag_109\n      tag_41\n      jump\t// in\n    tag_109:\n        /* \"#utility.yul\":2843:2960   */\n    tag_108:\n        /* \"#utility.yul\":2984:3047   */\n      tag_110\n        /* \"#utility.yul\":3039:3046   */\n      dup5\n        /* \"#utility.yul\":3030:3036   */\n      dup3\n        /* \"#utility.yul\":3019:3028   */\n      dup6\n        /* \"#utility.yul\":3015:3037   */\n      add\n        /* \"#utility.yul\":2984:3047   */\n      tag_51\n      jump\t// in\n    tag_110:\n        /* \"#utility.yul\":2974:3047   */\n      swap2\n      pop\n        /* \"#utility.yul\":2770:3057   */\n      pop\n        /* \"#utility.yul\":2555:3064   */\n      swap3\n      swap2\n      pop\n      pop\n      jump\t// out\n        /* \"#utility.yul\":3070:3169   */\n    tag_52:\n        /* \"#utility.yul\":3122:3128   */\n      0x00\n        /* \"#utility.yul\":3156:3161   */\n      dup2\n        /* \"#utility.yul\":3150:3162   */\n      mload\n        /* \"#utility.yul\":3140:3162   */\n      swap1\n      pop\n        /* \"#utility.yul\":3070:3169   */\n      swap2\n      swap1\n      pop\n      jump\t// out\n        /* \"#utility.yul\":3175:3344   */\n    tag_53:\n        /* \"#utility.yul\":3259:3270   */\n      0x00\n        /* \"#utility.yul\":3293:3299   */\n      dup3\n        /* \"#utility.yul\":3288:3291   */\n      dup3\n        /* \"#utility.yul\":3281:3300   */\n      mstore\n        /* \"#utility.yul\":3333:3337   */\n      0x20\n        /* \"#utility.yul\":3328:3331   */\n      dup3\n        /* \"#utility.yul\":3324:3338   */\n      add\n        /* \"#utility.yul\":3309:3338   */\n      swap1\n      pop\n        /* \"#utility.yul\":3175:3344   */\n      swap3\n      swap2\n      pop\n      pop\n      jump\t// out\n        /* \"#utility.yul\":3350:3489   */\n    tag_54:\n        /* \"#utility.yul\":3439:3445   */\n      dup3\n        /* \"#utility.yul\":3434:3437   */\n      dup2\n        /* \"#utility.yul\":3429:3432   */\n      dup4\n        /* \"#utility.yul\":3423:3446   */\n      mcopy\n        /* \"#utility.yul\":3480:3481   */\n      0x00\n        /* \"#utility.yul\":3471:3477   */\n      dup4\n        /* \"#utility.yul\":3466:3469   */\n      dup4\n        /* \"#utility.yul\":3462:3478   */\n      add\n        /* \"#utility.yul\":3455:3482   */\n      mstore\n        /* \"#utility.yul\":3350:3489   */\n      pop\n      pop\n      pop\n      jump\t// out\n        /* \"#utility.yul\":3495:3872   */\n    tag_55:\n        /* \"#utility.yul\":3583:3586   */\n      0x00\n        /* \"#utility.yul\":3611:3650   */\n      tag_115\n        /* \"#utility.yul\":3644:3649   */\n      dup3\n        /* \"#utility.yul\":3611:3650   */\n      tag_52\n      jump\t// in\n    tag_115:\n        /* \"#utility.yul\":3666:3737   */\n      tag_116\n        /* \"#utility.yul\":3730:3736   */\n      dup2\n        /* \"#utility.yul\":3725:3728   */\n      dup6\n        /* \"#utility.yul\":3666:3737   */\n      tag_53\n      jump\t// in\n    tag_116:\n        /* \"#utility.yul\":3659:3737   */\n      swap4\n      pop\n        /* \"#utility.yul\":3746:3811   */\n      tag_117\n        /* \"#utility.yul\":3804:3810   */\n      dup2\n        /* \"#utility.yul\":3799:3802   */\n      dup6\n        /* \"#utility.yul\":3792:3796   */\n      0x20\n        /* \"#utility.yul\":3785:3790   */\n      dup7\n        /* \"#utility.yul\":3781:3797   */\n      add\n        /* \"#utility.yul\":3746:3811   */\n      tag_54\n      jump\t// in\n    tag_117:\n        /* \"#utility.yul\":3836:3865   */\n      tag_118\n        /* \"#utility.yul\":3858:3864   */\n      dup2\n        /* \"#utility.yul\":3836:3865   */\n      tag_44\n      jump\t// in\n    tag_118:\n        /* \"#utility.yul\":3831:3834   */\n      dup5\n        /* \"#utility.yul\":3827:3866   */\n      add\n        /* \"#utility.yul\":3820:3866   */\n      swap2\n      pop\n        /* \"#utility.yul\":3587:3872   */\n      pop\n        /* \"#utility.yul\":3495:3872   */\n      swap3\n      swap2\n      pop\n      pop\n      jump\t// out\n        /* \"#utility.yul\":3878:4191   */\n    tag_11:\n        /* \"#utility.yul\":3991:3995   */\n      0x00\n        /* \"#utility.yul\":4029:4031   */\n      0x20\n        /* \"#utility.yul\":4018:4027   */\n      dup3\n        /* \"#utility.yul\":4014:4032   */\n      add\n        /* \"#utility.yul\":4006:4032   */\n      swap1\n      pop\n        /* \"#utility.yul\":4078:4087   */\n      dup2\n        /* \"#utility.yul\":4072:4076   */\n      dup2\n        /* \"#utility.yul\":4068:4088   */\n      sub\n        /* \"#utility.yul\":4064:4065   */\n      0x00\n        /* \"#utility.yul\":4053:4062   */\n      dup4\n        /* \"#utility.yul\":4049:4066   */\n      add\n        /* \"#utility.yul\":4042:4089   */\n      mstore\n        /* \"#utility.yul\":4106:4184   */\n      tag_120\n        /* \"#utility.yul\":4179:4183   */\n      dup2\n        /* \"#utility.yul\":4170:4176   */\n      dup5\n        /* \"#utility.yul\":4106:4184   */\n      tag_55\n      jump\t// in\n    tag_120:\n        /* \"#utility.yul\":4098:4184   */\n      swap1\n      pop\n        /* \"#utility.yul\":3878:4191   */\n      swap3\n      swap2\n      pop\n      pop\n      jump\t// out\n        /* \"#utility.yul\":4197:4631   */\n    tag_56:\n        /* \"#utility.yul\":4286:4291   */\n      0x00\n        /* \"#utility.yul\":4311:4377   */\n      tag_122\n        /* \"#utility.yul\":4327:4376   */\n      tag_123\n        /* \"#utility.yul\":4369:4375   */\n      dup5\n        /* \"#utility.yul\":4327:4376   */\n      tag_48\n      jump\t// in\n    tag_123:\n        /* \"#utility.yul\":4311:4377   */\n      tag_47\n      jump\t// in\n    tag_122:\n        /* \"#utility.yul\":4302:4377   */\n      swap1\n      pop\n        /* \"#utility.yul\":4400:4406   */\n      dup3\n        /* \"#utility.yul\":4393:4398   */\n      dup2\n        /* \"#utility.yul\":4386:4407   */\n      mstore\n        /* \"#utility.yul\":4438:4442   */\n      0x20\n        /* \"#utility.yul\":4431:4436   */\n      dup2\n        /* \"#utility.yul\":4427:4443   */\n      add\n        /* \"#utility.yul\":4476:4479   */\n      dup5\n        /* \"#utility.yul\":4467:4473   */\n      dup5\n        /* \"#utility.yul\":4462:4465   */\n      dup5\n        /* \"#utility.yul\":4458:4474   */\n      add\n        /* \"#utility.yul\":4455:4480   */\n      gt\n        /* \"#utility.yul\":4452:4564   */\n      iszero\n      tag_124\n      jumpi\n        /* \"#utility.yul\":4483:4562   */\n      tag_125\n      tag_43\n      jump\t// in\n    tag_125:\n        /* \"#utility.yul\":4452:4564   */\n    tag_124:\n        /* \"#utility.yul\":4573:4625   */\n      tag_126\n        /* \"#utility.yul\":4618:4624   */\n      dup5\n        /* \"#utility.yul\":4613:4616   */\n      dup3\n        /* \"#utility.yul\":4608:4611   */\n      dup6\n        /* \"#utility.yul\":4573:4625   */\n      tag_54\n      jump\t// in\n    tag_126:\n        /* \"#utility.yul\":4292:4631   */\n      pop\n        /* \"#utility.yul\":4197:4631   */\n      swap4\n      swap3\n      pop\n      pop\n      pop\n      jump\t// out\n        /* \"#utility.yul\":4651:5006   */\n    tag_57:\n        /* \"#utility.yul\":4718:4723   */\n      0x00\n        /* \"#utility.yul\":4767:4770   */\n      dup3\n        /* \"#utility.yul\":4760:4764   */\n      0x1f\n        /* \"#utility.yul\":4752:4758   */\n      dup4\n        /* \"#utility.yul\":4748:4765   */\n      add\n        /* \"#utility.yul\":4744:4771   */\n      slt\n        /* \"#utility.yul\":4734:4856   */\n      tag_128\n      jumpi\n        /* \"#utility.yul\":4775:4854   */\n      tag_129\n      tag_42\n      jump\t// in\n    tag_129:\n        /* \"#utility.yul\":4734:4856   */\n    tag_128:\n        /* \"#utility.yul\":4885:4891   */\n      dup2\n        /* \"#utility.yul\":4879:4892   */\n      mload\n        /* \"#utility.yul\":4910:5000   */\n      tag_130\n        /* \"#utility.yul\":4996:4999   */\n      dup5\n        /* \"#utility.yul\":4988:4994   */\n      dup3\n        /* \"#utility.yul\":4981:4985   */\n      0x20\n        /* \"#utility.yul\":4973:4979   */\n      dup7\n        /* \"#utility.yul\":4969:4986   */\n      add\n        /* \"#utility.yul\":4910:5000   */\n      tag_56\n      jump\t// in\n    tag_130:\n        /* \"#utility.yul\":4901:5000   */\n      swap2\n      pop\n        /* \"#utility.yul\":4724:5006   */\n      pop\n        /* \"#utility.yul\":4651:5006   */\n      swap3\n      swap2\n      pop\n      pop\n      jump\t// out\n        /* \"#utility.yul\":5012:5536   */\n    tag_26:\n        /* \"#utility.yul\":5092:5098   */\n      0x00\n        /* \"#utility.yul\":5141:5143   */\n      0x20\n        /* \"#utility.yul\":5129:5138   */\n      dup3\n        /* \"#utility.yul\":5120:5127   */\n      dup5\n        /* \"#utility.yul\":5116:5139   */\n      sub\n        /* \"#utility.yul\":5112:5144   */\n      slt\n        /* \"#utility.yul\":5109:5228   */\n      iszero\n      tag_132\n      jumpi\n        /* \"#utility.yul\":5147:5226   */\n      tag_133\n      tag_40\n      jump\t// in\n    tag_133:\n        /* \"#utility.yul\":5109:5228   */\n    tag_132:\n        /* \"#utility.yul\":5288:5289   */\n      0x00\n        /* \"#utility.yul\":5277:5286   */\n      dup3\n        /* \"#utility.yul\":5273:5290   */\n      add\n        /* \"#utility.yul\":5267:5291   */\n      mload\n        /* \"#utility.yul\":5318:5336   */\n      0xffffffffffffffff\n        /* \"#utility.yul\":5310:5316   */\n      dup2\n        /* \"#utility.yul\":5307:5337   */\n      gt\n        /* \"#utility.yul\":5304:5421   */\n      iszero\n      tag_134\n      jumpi\n        /* \"#utility.yul\":5340:5419   */\n      tag_135\n      tag_41\n      jump\t// in\n    tag_135:\n        /* \"#utility.yul\":5304:5421   */\n    tag_134:\n        /* \"#utility.yul\":5445:5519   */\n      tag_136\n        /* \"#utility.yul\":5511:5518   */\n      dup5\n        /* \"#utility.yul\":5502:5508   */\n      dup3\n        /* \"#utility.yul\":5491:5500   */\n      dup6\n        /* \"#utility.yul\":5487:5509   */\n      add\n        /* \"#utility.yul\":5445:5519   */\n      tag_57\n      jump\t// in\n    tag_136:\n        /* \"#utility.yul\":5435:5519   */\n      swap2\n      pop\n        /* \"#utility.yul\":5238:5529   */\n      pop\n        /* \"#utility.yul\":5012:5536   */\n      swap3\n      swap2\n      pop\n      pop\n      jump\t// out\n        /* \"#utility.yul\":5542:5722   */\n    tag_58:\n        /* \"#utility.yul\":5590:5667   */\n      0x4e487b7100000000000000000000000000000000000000000000000000000000\n        /* \"#utility.yul\":5587:5588   */\n      0x00\n        /* \"#utility.yul\":5580:5668   */\n      mstore\n        /* \"#utility.yul\":5687:5691   */\n      0x22\n        /* \"#utility.yul\":5684:5685   */\n      0x04\n        /* \"#utility.yul\":5677:5692   */\n      mstore\n        /* \"#utility.yul\":5711:5715   */\n      0x24\n        /* \"#utility.yul\":5708:5709   */\n      0x00\n        /* \"#utility.yul\":5701:5716   */\n      revert\n        /* \"#utility.yul\":5728:6048   */\n    tag_34:\n        /* \"#utility.yul\":5772:5778   */\n      0x00\n        /* \"#utility.yul\":5809:5810   */\n      0x02\n        /* \"#utility.yul\":5803:5807   */\n      dup3\n        /* \"#utility.yul\":5799:5811   */\n      div\n        /* \"#utility.yul\":5789:5811   */\n      swap1\n      pop\n        /* \"#utility.yul\":5856:5857   */\n      0x01\n        /* \"#utility.yul\":5850:5854   */\n      dup3\n        /* \"#utility.yul\":5846:5858   */\n      and\n        /* \"#utility.yul\":5877:5895   */\n      dup1\n        /* \"#utility.yul\":5867:5948   */\n      tag_139\n      jumpi\n        /* \"#utility.yul\":5933:5937   */\n      0x7f\n        /* \"#utility.yul\":5925:5931   */\n      dup3\n        /* \"#utility.yul\":5921:5938   */\n      and\n        /* \"#utility.yul\":5911:5938   */\n      swap2\n      pop\n        /* \"#utility.yul\":5867:5948   */\n    tag_139:\n        /* \"#utility.yul\":5995:5997   */\n      0x20\n        /* \"#utility.yul\":5987:5993   */\n      dup3\n        /* \"#utility.yul\":5984:5998   */\n      lt\n        /* \"#utility.yul\":5964:5982   */\n      dup2\n        /* \"#utility.yul\":5961:5999   */\n      sub\n        /* \"#utility.yul\":5958:6042   */\n      tag_140\n      jumpi\n        /* \"#utility.yul\":6014:6032   */\n      tag_141\n      tag_58\n      jump\t// in\n    tag_141:\n        /* \"#utility.yul\":5958:6042   */\n    tag_140:\n        /* \"#utility.yul\":5779:6048   */\n      pop\n        /* \"#utility.yul\":5728:6048   */\n      swap2\n      swap1\n      pop\n      jump\t// out\n        /* \"#utility.yul\":6054:6195   */\n    tag_59:\n        /* \"#utility.yul\":6103:6107   */\n      0x00\n        /* \"#utility.yul\":6126:6129   */\n      dup2\n        /* \"#utility.yul\":6118:6129   */\n      swap1\n      pop\n        /* \"#utility.yul\":6149:6152   */\n      dup2\n        /* \"#utility.yul\":6146:6147   */\n      0x00\n        /* \"#utility.yul\":6139:6153   */\n      mstore\n        /* \"#utility.yul\":6183:6187   */\n      0x20\n        /* \"#utility.yul\":6180:6181   */\n      0x00\n        /* \"#utility.yul\":6170:6188   */\n      keccak256\n        /* \"#utility.yul\":6162:6188   */\n      swap1\n      pop\n        /* \"#utility.yul\":6054:6195   */\n      swap2\n      swap1\n      pop\n      jump\t// out\n        /* \"#utility.yul\":6201:6294   */\n    tag_60:\n        /* \"#utility.yul\":6238:6244   */\n      0x00\n        /* \"#utility.yul\":6285:6287   */\n      0x20\n        /* \"#utility.yul\":6280:6282   */\n      0x1f\n        /* \"#utility.yul\":6273:6278   */\n      dup4\n        /* \"#utility.yul\":6269:6283   */\n      add\n        /* \"#utility.yul\":6265:6288   */\n      div\n        /* \"#utility.yul\":6255:6288   */\n      swap1\n      pop\n        /* \"#utility.yul\":6201:6294   */\n      swap2\n      swap1\n      pop\n      jump\t// out\n        /* \"#utility.yul\":6300:6407   */\n    tag_61:\n        /* \"#utility.yul\":6344:6352   */\n      0x00\n        /* \"#utility.yul\":6394:6399   */\n      dup3\n        /* \"#utility.yul\":6388:6392   */\n      dup3\n        /* \"#utility.yul\":6384:6400   */\n      shl\n        /* \"#utility.yul\":6363:6400   */\n      swap1\n      pop\n        /* \"#utility.yul\":6300:6407   */\n      swap3\n      swap2\n      pop\n      pop\n      jump\t// out\n        /* \"#utility.yul\":6413:6806   */\n    tag_62:\n        /* \"#utility.yul\":6482:6488   */\n      0x00\n        /* \"#utility.yul\":6532:6533   */\n      0x08\n        /* \"#utility.yul\":6520:6530   */\n      dup4\n        /* \"#utility.yul\":6516:6534   */\n      mul\n        /* \"#utility.yul\":6555:6652   */\n      tag_146\n        /* \"#utility.yul\":6585:6651   */\n      0xffffffffffffffffffffffffffffffffffffffffffffffffffffffffffffffff\n        /* \"#utility.yul\":6574:6583   */\n      dup3\n        /* \"#utility.yul\":6555:6652   */\n      tag_61\n      jump\t// in\n    tag_146:\n        /* \"#utility.yul\":6673:6712   */\n      tag_147\n        /* \"#utility.yul\":6703:6711   */\n      dup7\n        /* \"#utility.yul\":6692:6701   */\n      dup4\n        /* \"#utility.yul\":6673:6712   */\n      tag_61\n      jump\t// in\n    tag_147:\n        /* \"#utility.yul\":6661:6712   */\n      swap6\n      pop\n        /* \"#utility.yul\":6745:6749   */\n      dup1\n        /* \"#utility.yul\":6741:6750   */\n      not\n        /* \"#utility.yul\":6734:6739   */\n      dup5\n        /* \"#utility.yul\":6730:6751   */\n      and\n        /* \"#utility.yul\":6721:6751   */\n      swap4\n      pop\n        /* \"#utility.yul\":6794:6798   */\n      dup1\n        /* \"#utility.yul\":6784:6792   */\n      dup7\n        /* \"#utility.yul\":6780:6799   */\n      and\n        /* \"#utility.yul\":6773:6778   */\n      dup5\n        /* \"#utility.yul\":6770:6800   */\n      or\n        /* \"#utility.yul\":6760:6800   */\n      swap3\n      pop\n        /* \"#utility.yul\":6489:6806   */\n      pop\n      pop\n        /* \"#utility.yul\":6413:6806   */\n      swap4\n      swap3\n      pop\n      pop\n      pop\n      jump\t// out\n        /* \"#utility.yul\":6812:6889   */\n    tag_63:\n        /* \"#utility.yul\":6849:6856   */\n      0x00\n        /* \"#utility.yul\":6878:6883   */\n      dup2\n        /* \"#utility.yul\":6867:6883   */\n      swap1\n      pop\n        /* \"#utility.yul\":6812:6889   */\n      swap2\n      swap1\n      pop\n      jump\t// out\n        /* \"#utility.yul\":6895:6955   */\n    tag_64:\n        /* \"#utility.yul\":6923:6926   */\n      0x00\n        /* \"#utility.yul\":6944:6949   */\n      dup2\n        /* \"#utility.yul\":6937:6949   */\n      swap1\n      pop\n        /* \"#utility.yul\":6895:6955   */\n      swap2\n      swap1\n      pop\n      jump\t// out\n        /* \"#utility.yul\":6961:7103   */\n    tag_65:\n        /* \"#utility.yul\":7011:7020   */\n      0x00\n        /* \"#utility.yul\":7044:7097   */\n      tag_151\n        /* \"#utility.yul\":7062:7096   */\n      tag_152\n        /* \"#utility.yul\":7071:7095   */\n      tag_153\n        /* \"#utility.yul\":7089:7094   */\n      dup5\n        /* \"#utility.yul\":7071:7095   */\n      tag_63\n      jump\t// in\n    tag_153:\n        /* \"#utility.yul\":7062:7096   */\n      tag_64\n      jump\t// in\n    tag_152:\n        /* \"#utility.yul\":7044:7097   */\n      tag_63\n      jump\t// in\n    tag_151:\n        /* \"#utility.yul\":7031:7097   */\n      swap1\n      pop\n        /* \"#utility.yul\":6961:7103   */\n      swap2\n      swap1\n      pop\n      jump\t// out\n        /* \"#utility.yul\":7109:7184   */\n    tag_66:\n        /* \"#utility.yul\":7152:7155   */\n      0x00\n        /* \"#utility.yul\":7173:7178   */\n      dup2\n        /* \"#utility.yul\":7166:7178   */\n      swap1\n      pop\n        /* \"#utility.yul\":7109:7184   */\n      swap2\n      swap1\n      pop\n      jump\t// out\n        /* \"#utility.yul\":7190:7459   */\n    tag_67:\n        /* \"#utility.yul\":7300:7339   */\n      tag_156\n        /* \"#utility.yul\":7331:7338   */\n      dup4\n        /* \"#utility.yul\":7300:7339   */\n      tag_65\n      jump\t// in\n    tag_156:\n        /* \"#utility.yul\":7361:7452   */\n      tag_157\n        /* \"#utility.yul\":7410:7451   */\n      tag_158\n        /* \"#utility.yul\":7434:7450   */\n      dup3\n        /* \"#utility.yul\":7410:7451   */\n      tag_66\n      jump\t// in\n    tag_158:\n        /* \"#utility.yul\":7402:7408   */\n      dup5\n        /* \"#utility.yul\":7395:7399   */\n      dup5\n        /* \"#utility.yul\":7389:7400   */\n      sload\n        /* \"#utility.yul\":7361:7452   */\n      tag_62\n      jump\t// in\n    tag_157:\n        /* \"#utility.yul\":7355:7359   */\n      dup3\n        /* \"#utility.yul\":7348:7453   */\n      sstore\n        /* \"#utility.yul\":7266:7459   */\n      pop\n        /* \"#utility.yul\":7190:7459   */\n      pop\n      pop\n      pop\n      jump\t// out\n        /* \"#utility.yul\":7465:7538   */\n    tag_68:\n        /* \"#utility.yul\":7510:7513   */\n      0x00\n        /* \"#utility.yul\":7465:7538   */\n      swap1\n      jump\t// out\n        /* \"#utility.yul\":7544:7733   */\n    tag_69:\n        /* \"#utility.yul\":7621:7653   */\n      tag_161\n      tag_68\n      jump\t// in\n    tag_161:\n        /* \"#utility.yul\":7662:7727   */\n      tag_162\n        /* \"#utility.yul\":7720:7726   */\n      dup2\n        /* \"#utility.yul\":7712:7718   */\n      dup5\n        /* \"#utility.yul\":7706:7710   */\n      dup5\n        /* \"#utility.yul\":7662:7727   */\n      tag_67\n      jump\t// in\n    tag_162:\n        /* \"#utility.yul\":7597:7733   */\n      pop\n        /* \"#utility.yul\":7544:7733   */\n      pop\n      pop\n      jump\t// out\n        /* \"#utility.yul\":7739:7925   */\n    tag_70:\n        /* \"#utility.yul\":7799:7919   */\n    tag_164:\n        /* \"#utility.yul\":7816:7819   */\n      dup2\n        /* \"#utility.yul\":7809:7814   */\n      dup2\n        /* \"#utility.yul\":7806:7820   */\n      lt\n        /* \"#utility.yul\":7799:7919   */\n      iszero\n      tag_166\n      jumpi\n        /* \"#utility.yul\":7870:7909   */\n      tag_167\n        /* \"#utility.yul\":7907:7908   */\n      0x00\n        /* \"#utility.yul\":7900:7905   */\n      dup3\n        /* \"#utility.yul\":7870:7909   */\n      tag_69\n      jump\t// in\n    tag_167:\n        /* \"#utility.yul\":7843:7844   */\n      0x01\n        /* \"#utility.yul\":7836:7841   */\n      dup2\n        /* \"#utility.yul\":7832:7845   */\n      add\n        /* \"#utility.yul\":7823:7845   */\n      swap1\n      pop\n        /* \"#utility.yul\":7799:7919   */\n      jump(tag_164)\n    tag_166:\n        /* \"#utility.yul\":7739:7925   */\n      pop\n      pop\n      jump\t// out\n        /* \"#utility.yul\":7931:8474   */\n    tag_71:\n        /* \"#utility.yul\":8032:8034   */\n      0x1f\n        /* \"#utility.yul\":8027:8030   */\n      dup3\n        /* \"#utility.yul\":8024:8035   */\n      gt\n        /* \"#utility.yul\":8021:8467   */\n      iszero\n      tag_169\n      jumpi\n        /* \"#utility.yul\":8066:8104   */\n      tag_170\n        /* \"#utility.yul\":8098:8103   */\n      dup2\n        /* \"#utility.yul\":8066:8104   */\n      tag_59\n      jump\t// in\n    tag_170:\n        /* \"#utility.yul\":8150:8179   */\n      tag_171\n        /* \"#utility.yul\":8168:8178   */\n      dup5\n        /* \"#utility.yul\":8150:8179   */\n      tag_60\n      jump\t// in\n    tag_171:\n        /* \"#utility.yul\":8140:8148   */\n      dup2\n        /* \"#utility.yul\":8136:8180   */\n      add\n        /* \"#utility.yul\":8333:8335   */\n      0x20\n        /* \"#utility.yul\":8321:8331   */\n      dup6\n        /* \"#utility.yul\":8318:8336   */\n      lt\n        /* \"#utility.yul\":8315:8364   */\n      iszero\n      tag_172\n      jumpi\n        /* \"#utility.yul\":8354:8362   */\n      dup2\n        /* \"#utility.yul\":8339:8362   */\n      swap1\n      pop\n        /* \"#utility.yul\":8315:8364   */\n    tag_172:\n        /* \"#utility.yul\":8377:8457   */\n      tag_173\n        /* \"#utility.yul\":8433:8455   */\n      tag_174\n        /* \"#utility.yul\":8451:8454   */\n      dup6\n        /* \"#utility.yul\":8433:8455   */\n      tag_60\n      jump\t// in\n    tag_174:\n        /* \"#utility.yul\":8423:8431   */\n      dup4\n        /* \"#utility.yul\":8419:8456   */\n      add\n        /* \"#utility.yul\":8406:8417   */\n      dup3\n        /* \"#utility.yul\":8377:8457   */\n      tag_70\n      jump\t// in\n    tag_173:\n        /* \"#utility.yul\":8036:8467   */\n      pop\n      pop\n        /* \"#utility.yul\":8021:8467   */\n    tag_169:\n        /* \"#utility.yul\":7931:8474   */\n      pop\n      pop\n      pop\n      jump\t// out\n        /* \"#utility.yul\":8480:8597   */\n    tag_72:\n        /* \"#utility.yul\":8534:8542   */\n      0x00\n        /* \"#utility.yul\":8584:8589   */\n      dup3\n        /* \"#utility.yul\":8578:8582   */\n      dup3\n        /* \"#utility.yul\":8574:8590   */\n      shr\n        /* \"#utility.yul\":8553:8590   */\n      swap1\n      pop\n        /* \"#utility.yul\":8480:8597   */\n      swap3\n      swap2\n      pop\n      pop\n      jump\t// out\n        /* \"#utility.yul\":8603:8772   */\n    tag_73:\n        /* \"#utility.yul\":8647:8653   */\n      0x00\n        /* \"#utility.yul\":8680:8731   */\n      tag_177\n        /* \"#utility.yul\":8728:8729   */\n      0x00\n        /* \"#utility.yul\":8724:8730   */\n      not\n        /* \"#utility.yul\":8716:8721   */\n      dup5\n        /* \"#utility.yul\":8713:8714   */\n      0x08\n        /* \"#utility.yul\":8709:8722   */\n      mul\n        /* \"#utility.yul\":8680:8731   */\n      tag_72\n      jump\t// in\n    tag_177:\n        /* \"#utility.yul\":8676:8732   */\n      not\n        /* \"#utility.yul\":8761:8765   */\n      dup1\n        /* \"#utility.yul\":8755:8759   */\n      dup4\n        /* \"#utility.yul\":8751:8766   */\n      and\n        /* \"#utility.yul\":8741:8766   */\n      swap2\n      pop\n        /* \"#utility.yul\":8654:8772   */\n      pop\n        /* \"#utility.yul\":8603:8772   */\n      swap3\n      swap2\n      pop\n      pop\n      jump\t// out\n        /* \"#utility.yul\":8777:9072   */\n    tag_74:\n        /* \"#utility.yul\":8853:8857   */\n      0x00\n        /* \"#utility.yul\":8999:9028   */\n      tag_179\n        /* \"#utility.yul\":9024:9027   */\n      dup4\n        /* \"#utility.yul\":9018:9022   */\n      dup4\n        /* \"#utility.yul\":8999:9028   */\n      tag_73\n      jump\t// in\n    tag_179:\n        /* \"#utility.yul\":8991:9028   */\n      swap2\n      pop\n        /* \"#utility.yul\":9061:9064   */\n      dup3\n        /* \"#utility.yul\":9058:9059   */\n      0x02\n        /* \"#utility.yul\":9054:9065   */\n      mul\n        /* \"#utility.yul\":9048:9052   */\n      dup3\n        /* \"#utility.yul\":9045:9066   */\n      or\n        /* \"#utility.yul\":9037:9066   */\n      swap1\n      pop\n        /* \"#utility.yul\":8777:9072   */\n      swap3\n      swap2\n      pop\n      pop\n      jump\t// out\n        /* \"#utility.yul\":9077:10472   */\n    tag_28:\n        /* \"#utility.yul\":9194:9231   */\n      tag_181\n        /* \"#utility.yul\":9227:9230   */\n      dup3\n        /* \"#utility.yul\":9194:9231   */\n      tag_52\n      jump\t// in\n    tag_181:\n        /* \"#utility.yul\":9296:9314   */\n      0xffffffffffffffff\n        /* \"#utility.yul\":9288:9294   */\n      dup2\n        /* \"#utility.yul\":9285:9315   */\n      gt\n        /* \"#utility.yul\":9282:9338   */\n      iszero\n      tag_182\n      jumpi\n        /* \"#utility.yul\":9318:9336   */\n      tag_183\n      tag_45\n      jump\t// in\n    tag_183:\n        /* \"#utility.yul\":9282:9338   */\n    tag_182:\n        /* \"#utility.yul\":9362:9400   */\n      tag_184\n        /* \"#utility.yul\":9394:9398   */\n      dup3\n        /* \"#utility.yul\":9388:9399   */\n      sload\n        /* \"#utility.yul\":9362:9400   */\n      tag_34\n      jump\t// in\n    tag_184:\n        /* \"#utility.yul\":9447:9514   */\n      tag_185\n        /* \"#utility.yul\":9507:9513   */\n      dup3\n        /* \"#utility.yul\":9499:9505   */\n      dup3\n        /* \"#utility.yul\":9493:9497   */\n      dup6\n        /* \"#utility.yul\":9447:9514   */\n      tag_71\n      jump\t// in\n    tag_185:\n        /* \"#utility.yul\":9541:9542   */\n      0x00\n        /* \"#utility.yul\":9565:9569   */\n      0x20\n        /* \"#utility.yul\":9552:9569   */\n      swap1\n      pop\n        /* \"#utility.yul\":9597:9599   */\n      0x1f\n        /* \"#utility.yul\":9589:9595   */\n      dup4\n        /* \"#utility.yul\":9586:9600   */\n      gt\n        /* \"#utility.yul\":9614:9615   */\n      0x01\n        /* \"#utility.yul\":9609:10227   */\n      dup2\n      eq\n      tag_187\n      jumpi\n        /* \"#utility.yul\":10271:10272   */\n      0x00\n        /* \"#utility.yul\":10288:10294   */\n      dup5\n        /* \"#utility.yul\":10285:10362   */\n      iszero\n      tag_188\n      jumpi\n        /* \"#utility.yul\":10337:10346   */\n      dup3\n        /* \"#utility.yul\":10332:10335   */\n      dup8\n        /* \"#utility.yul\":10328:10347   */\n      add\n        /* \"#utility.yul\":10322:10348   */\n      mload\n        /* \"#utility.yul\":10313:10348   */\n      swap1\n      pop\n        /* \"#utility.yul\":10285:10362   */\n    tag_188:\n        /* \"#utility.yul\":10388:10455   */\n      tag_189\n        /* \"#utility.yul\":10448:10454   */\n      dup6\n        /* \"#utility.yul\":10441:10446   */\n      dup3\n        /* \"#utility.yul\":10388:10455   */\n      tag_74\n      jump\t// in\n    tag_189:\n        /* \"#utility.yul\":10382:10386   */\n      dup7\n        /* \"#utility.yul\":10375:10456   */\n      sstore\n        /* \"#utility.yul\":10244:10466   */\n      pop\n        /* \"#utility.yul\":9579:10466   */\n      jump(tag_186)\n        /* \"#utility.yul\":9609:10227   */\n    tag_187:\n        /* \"#utility.yul\":9661:9665   */\n      0x1f\n        /* \"#utility.yul\":9657:9666   */\n      not\n        /* \"#utility.yul\":9649:9655   */\n      dup5\n        /* \"#utility.yul\":9645:9667   */\n      and\n        /* \"#utility.yul\":9695:9732   */\n      tag_190\n        /* \"#utility.yul\":9727:9731   */\n      dup7\n        /* \"#utility.yul\":9695:9732   */\n      tag_59\n      jump\t// in\n    tag_190:\n        /* \"#utility.yul\":9754:9755   */\n      0x00\n        /* \"#utility.yul\":9768:9976   */\n    tag_191:\n        /* \"#utility.yul\":9782:9789   */\n      dup3\n        /* \"#utility.yul\":9779:9780   */\n      dup2\n        /* \"#utility.yul\":9776:9790   */\n      lt\n        /* \"#utility.yul\":9768:9976   */\n      iszero\n      tag_193\n      jumpi\n        /* \"#utility.yul\":9861:9870   */\n      dup5\n        /* \"#utility.yul\":9856:9859   */\n      dup10\n        /* \"#utility.yul\":9852:9871   */\n      add\n        /* \"#utility.yul\":9846:9872   */\n      mload\n        /* \"#utility.yul\":9838:9844   */\n      dup3\n        /* \"#utility.yul\":9831:9873   */\n      sstore\n        /* \"#utility.yul\":9912:9913   */\n      0x01\n        /* \"#utility.yul\":9904:9910   */\n      dup3\n        /* \"#utility.yul\":9900:9914   */\n      add\n        /* \"#utility.yul\":9890:9914   */\n      swap2\n      pop\n        /* \"#utility.yul\":9959:9961   */\n      0x20\n        /* \"#utility.yul\":9948:9957   */\n      dup6\n        /* \"#utility.yul\":9944:9962   */\n      add\n        /* \"#utility.yul\":9931:9962   */\n      swap5\n      pop\n        /* \"#utility.yul\":9805:9809   */\n      0x20\n        /* \"#utility.yul\":9802:9803   */\n      dup2\n        /* \"#utility.yul\":9798:9810   */\n      add\n        /* \"#utility.yul\":9793:9810   */\n      swap1\n      pop\n        /* \"#utility.yul\":9768:9976   */\n      jump(tag_191)\n    tag_193:\n        /* \"#utility.yul\":10004:10010   */\n      dup7\n        /* \"#utility.yul\":9995:10002   */\n      dup4\n        /* \"#utility.yul\":9992:10011   */\n      lt\n        /* \"#utility.yul\":9989:10168   */\n      iszero\n      tag_194\n      jumpi\n        /* \"#utility.yul\":10062:10071   */\n      dup5\n        /* \"#utility.yul\":10057:10060   */\n      dup10\n        /* \"#utility.yul\":10053:10072   */\n      add\n        /* \"#utility.yul\":10047:10073   */\n      mload\n        /* \"#utility.yul\":10105:10153   */\n      tag_195\n        /* \"#utility.yul\":10147:10151   */\n      0x1f\n        /* \"#utility.yul\":10139:10145   */\n      dup10\n        /* \"#utility.yul\":10135:10152   */\n      and\n        /* \"#utility.yul\":10124:10133   */\n      dup3\n        /* \"#utility.yul\":10105:10153   */\n      tag_73\n      jump\t// in\n    tag_195:\n        /* \"#utility.yul\":10097:10103   */\n      dup4\n        /* \"#utility.yul\":10090:10154   */\n      sstore\n        /* \"#utility.yul\":10012:10168   */\n      pop\n        /* \"#utility.yul\":9989:10168   */\n    tag_194:\n        /* \"#utility.yul\":10214:10215   */\n      0x01\n        /* \"#utility.yul\":10210:10211   */\n      0x02\n        /* \"#utility.yul\":10202:10208   */\n      dup9\n        /* \"#utility.yul\":10198:10212   */\n      mul\n        /* \"#utility.yul\":10194:10216   */\n      add\n        /* \"#utility.yul\":10188:10192   */\n      dup9\n        /* \"#utility.yul\":10181:10217   */\n      sstore\n        /* \"#utility.yul\":9616:10227   */\n      pop\n      pop\n      pop\n        /* \"#utility.yul\":9579:10466   */\n    tag_186:\n      pop\n        /* \"#utility.yul\":9169:10472   */\n      pop\n      pop\n      pop\n        /* \"#utility.yul\":9077:10472   */\n      pop\n      pop\n      jump\t// out\n    stop\n\n    sub_0: assembly {\n            /* \"contracts/complimet.sol\":58:290  contract Compliment{... */\n          mstore(0x40, 0x80)\n            /* \"contracts/complimet.sol\":100:160  constructor( string memory _name){... */\n          callvalue\n          dup1\n          iszero\n          tag_1\n          jumpi\n          0x00\n          dup1\n          revert\n        tag_1:\n          pop\n          mload(0x40)\n          sub(codesize, bytecodeSize)\n          dup1\n          bytecodeSize\n          dup4\n          codecopy\n          dup2\n          dup2\n          add\n          0x40\n          mstore\n          dup2\n          add\n          swap1\n          tag_2\n          swap2\n          swap1\n          tag_3\n          jump\t// in\n        tag_2:\n            /* \"contracts/complimet.sol\":148:153  _name */\n          dup1\n            /* \"contracts/complimet.sol\":143:147  name */\n          0x00\n            /* \"contracts/complimet.sol\":143:153  name=_name */\n          swap1\n          dup2\n          tag_6\n          swap2\n          swap1\n          tag_7\n          jump\t// in\n        tag_6:\n          pop\n            /* \"contracts/complimet.sol\":100:160  constructor( string memory _name){... */\n          pop\n            /* \"contracts/complimet.sol\":58:290  contract Compliment{... */\n          jump(tag_8)\n            /* \"#utility.yul\":7:82   */\n        tag_9:\n            /* \"#utility.yul\":40:46   */\n          0x00\n            /* \"#utility.yul\":73:75   */\n          0x40\n            /* \"#utility.yul\":67:76   */\n          mload\n            /* \"#utility.yul\":57:76   */\n          swap1\n          pop\n            /* \"#utility.yul\":7:82   */\n          swap1\n          jump\t// out\n            /* \"#utility.yul\":88:205   */\n        tag_10:\n            /* \"#utility.yul\":197:198   */\n          0x00\n            /* \"#utility.yul\":194:195   */\n          dup1\n            /* \"#utility.yul\":187:199   */\n          revert\n            /* \"#utility.yul\":211:328   */\n        tag_11:\n            /* \"#utility.yul\":320:321   */\n          0x00\n            /* \"#utility.yul\":317:318   */\n          dup1\n            /* \"#utility.yul\":310:322   */\n          revert\n            /* \"#utility.yul\":334:451   */\n        tag_12:\n            /* \"#utility.yul\":443:444   */\n          0x00\n            /* \"#utility.yul\":440:441   */\n          dup1\n            /* \"#utility.yul\":433:445   */\n          revert\n            /* \"#utility.yul\":457:574   */\n        tag_13:\n            /* \"#utility.yul\":566:567   */\n          0x00\n            /* \"#utility.yul\":563:564   */\n          dup1\n            /* \"#utility.yul\":556:568   */\n          revert\n            /* \"#utility.yul\":580:682   */\n        tag_14:\n            /* \"#utility.yul\":621:627   */\n          0x00\n            /* \"#utility.yul\":672:674   */\n          0x1f\n            /* \"#utility.yul\":668:675   */\n          not\n            /* \"#utility.yul\":663:665   */\n          0x1f\n            /* \"#utility.yul\":656:661   */\n          dup4\n            /* \"#utility.yul\":652:666   */\n          add\n            /* \"#utility.yul\":648:676   */\n          and\n            /* \"#utility.yul\":638:676   */\n          swap1\n          pop\n            /* \"#utility.yul\":580:682   */\n          swap2\n          swap1\n          pop\n          jump\t// out\n            /* \"#utility.yul\":688:868   */\n        tag_15:\n            /* \"#utility.yul\":736:813   */\n          0x4e487b7100000000000000000000000000000000000000000000000000000000\n            /* \"#utility.yul\":733:734   */\n          0x00\n            /* \"#utility.yul\":726:814   */\n          mstore\n            /* \"#utility.yul\":833:837   */\n          0x41\n            /* \"#utility.yul\":830:831   */\n          0x04\n            /* \"#utility.yul\":823:838   */\n          mstore\n            /* \"#utility.yul\":857:861   */\n          0x24\n            /* \"#utility.yul\":854:855   */\n          0x00\n            /* \"#utility.yul\":847:862   */\n          revert\n            /* \"#utility.yul\":874:1155   */\n        tag_16:\n            /* \"#utility.yul\":957:984   */\n          tag_50\n            /* \"#utility.yul\":979:983   */\n          dup3\n            /* \"#utility.yul\":957:984   */\n          tag_14\n          jump\t// in\n        tag_50:\n            /* \"#utility.yul\":949:955   */\n          dup2\n            /* \"#utility.yul\":945:985   */\n          add\n            /* \"#utility.yul\":1087:1093   */\n          dup2\n            /* \"#utility.yul\":1075:1085   */\n          dup2\n            /* \"#utility.yul\":1072:1094   */\n          lt\n            /* \"#utility.yul\":1051:1069   */\n          0xffffffffffffffff\n            /* \"#utility.yul\":1039:1049   */\n          dup3\n            /* \"#utility.yul\":1036:1070   */\n          gt\n            /* \"#utility.yul\":1033:1095   */\n          or\n            /* \"#utility.yul\":1030:1118   */\n          iszero\n          tag_51\n          jumpi\n            /* \"#utility.yul\":1098:1116   */\n          tag_52\n          tag_15\n          jump\t// in\n        tag_52:\n            /* \"#utility.yul\":1030:1118   */\n        tag_51:\n            /* \"#utility.yul\":1138:1148   */\n          dup1\n            /* \"#utility.yul\":1134:1136   */\n          0x40\n            /* \"#utility.yul\":1127:1149   */\n          mstore\n            /* \"#utility.yul\":917:1155   */\n          pop\n            /* \"#utility.yul\":874:1155   */\n          pop\n          pop\n          jump\t// out\n            /* \"#utility.yul\":1161:1290   */\n        tag_17:\n            /* \"#utility.yul\":1195:1201   */\n          0x00\n            /* \"#utility.yul\":1222:1242   */\n          tag_54\n          tag_9\n          jump\t// in\n        tag_54:\n            /* \"#utility.yul\":1212:1242   */\n          swap1\n          pop\n            /* \"#utility.yul\":1251:1284   */\n          tag_55\n            /* \"#utility.yul\":1279:1283   */\n          dup3\n            /* \"#utility.yul\":1271:1277   */\n          dup3\n            /* \"#utility.yul\":1251:1284   */\n          tag_16\n          jump\t// in\n        tag_55:\n            /* \"#utility.yul\":1161:1290   */\n          swap2\n          swap1\n          pop\n          jump\t// out\n            /* \"#utility.yul\":1296:1604   */\n        tag_18:\n            /* \"#utility.yul\":1358:1362   */\n          0x00\n            /* \"#utility.yul\":1448:1466   */\n          0xffffffffffffffff\n            /* \"#utility.yul\":1440:1446   */\n          dup3\n            /* \"#utility.yul\":1437:1467   */\n          gt\n            /* \"#utility.yul\":1434:1490   */\n          iszero\n          tag_57\n          jumpi\n            /* \"#utility.yul\":1470:1488   */\n          tag_58\n          tag_15\n          jump\t// in\n        tag_58:\n            /* \"#utility.yul\":1434:1490   */\n        tag_57:\n            /* \"#utility.yul\":1508:1537   */\n          tag_59\n            /* \"#utility.yul\":1530:1536   */\n          dup3\n            /* \"#utility.yul\":1508:1537   */\n          tag_14\n          jump\t// in\n        tag_59:\n            /* \"#utility.yul\":1500:1537   */\n          swap1\n          pop\n            /* \"#utility.yul\":1592:1596   */\n          0x20\n            /* \"#utility.yul\":1586:1590   */\n          dup2\n            /* \"#utility.yul\":1582:1597   */\n          add\n            /* \"#utility.yul\":1574:1597   */\n          swap1\n          pop\n            /* \"#utility.yul\":1296:1604   */\n          swap2\n          swap1\n          pop\n          jump\t// out\n            /* \"#utility.yul\":1610:1749   */\n        tag_19:\n            /* \"#utility.yul\":1699:1705   */\n          dup3\n            /* \"#utility.yul\":1694:1697   */\n          dup2\n            /* \"#utility.yul\":1689:1692   */\n          dup4\n            /* \"#utility.yul\":1683:1706   */\n          mcopy\n            /* \"#utility.yul\":1740:1741   */\n          0x00\n            /* \"#utility.yul\":1731:1737   */\n          dup4\n            /* \"#utility.yul\":1726:1729   */\n          dup4\n            /* \"#utility.yul\":1722:1738   */\n          add\n            /* \"#utility.yul\":1715:1742   */\n          mstore\n            /* \"#utility.yul\":1610:1749   */\n          pop\n          pop\n          pop\n          jump\t// out\n            /* \"#utility.yul\":1755:2189   */\n        tag_20:\n            /* \"#utility.yul\":1844:1849   */\n          0x00\n            /* \"#utility.yul\":1869:1935   */\n          tag_62\n            /* \"#utility.yul\":1885:1934   */\n          tag_63\n            /* \"#utility.yul\":1927:1933   */\n          dup5\n            /* \"#utility.yul\":1885:1934   */\n          tag_18\n          jump\t// in\n        tag_63:\n            /* \"#utility.yul\":1869:1935   */\n          tag_17\n          jump\t// in\n        tag_62:\n            /* \"#utility.yul\":1860:1935   */\n          swap1\n          pop\n            /* \"#utility.yul\":1958:1964   */\n          dup3\n            /* \"#utility.yul\":1951:1956   */\n          dup2\n            /* \"#utility.yul\":1944:1965   */\n          mstore\n            /* \"#utility.yul\":1996:2000   */\n          0x20\n            /* \"#utility.yul\":1989:1994   */\n          dup2\n            /* \"#utility.yul\":1985:2001   */\n          add\n            /* \"#utility.yul\":2034:2037   */\n          dup5\n            /* \"#utility.yul\":2025:2031   */\n          dup5\n            /* \"#utility.yul\":2020:2023   */\n          dup5\n            /* \"#utility.yul\":2016:2032   */\n          add\n            /* \"#utility.yul\":2013:2038   */\n          gt\n            /* \"#utility.yul\":2010:2122   */\n          iszero\n          tag_64\n          jumpi\n            /* \"#utility.yul\":2041:2120   */\n          tag_65\n          tag_13\n          jump\t// in\n        tag_65:\n            /* \"#utility.yul\":2010:2122   */\n        tag_64:\n            /* \"#utility.yul\":2131:2183   */\n          tag_66\n            /* \"#utility.yul\":2176:2182   */\n          dup5\n            /* \"#utility.yul\":2171:2174   */\n          dup3\n            /* \"#utility.yul\":2166:2169   */\n          dup6\n            /* \"#utility.yul\":2131:2183   */\n          tag_19\n          jump\t// in\n        tag_66:\n            /* \"#utility.yul\":1850:2189   */\n          pop\n            /* \"#utility.yul\":1755:2189   */\n          swap4\n          swap3\n          pop\n          pop\n          pop\n          jump\t// out\n            /* \"#utility.yul\":2209:2564   */\n        tag_21:\n            /* \"#utility.yul\":2276:2281   */\n          0x00\n            /* \"#utility.yul\":2325:2328   */\n          dup3\n            /* \"#utility.yul\":2318:2322   */\n          0x1f\n            /* \"#utility.yul\":2310:2316   */\n          dup4\n            /* \"#utility.yul\":2306:2323   */\n          add\n            /* \"#utility.yul\":2302:2329   */\n          slt\n            /* \"#utility.yul\":2292:2414   */\n          tag_68\n          jumpi\n            /* \"#utility.yul\":2333:2412   */\n          tag_69\n          tag_12\n          jump\t// in\n        tag_69:\n            /* \"#utility.yul\":2292:2414   */\n        tag_68:\n            /* \"#utility.yul\":2443:2449   */\n          dup2\n            /* \"#utility.yul\":2437:2450   */\n          mload\n            /* \"#utility.yul\":2468:2558   */\n          tag_70\n            /* \"#utility.yul\":2554:2557   */\n          dup5\n            /* \"#utility.yul\":2546:2552   */\n          dup3\n            /* \"#utility.yul\":2539:2543   */\n          0x20\n            /* \"#utility.yul\":2531:2537   */\n          dup7\n            /* \"#utility.yul\":2527:2544   */\n          add\n            /* \"#utility.yul\":2468:2558   */\n          tag_20\n          jump\t// in\n        tag_70:\n            /* \"#utility.yul\":2459:2558   */\n          swap2\n          pop\n            /* \"#utility.yul\":2282:2564   */\n          pop\n            /* \"#utility.yul\":2209:2564   */\n          swap3\n          swap2\n          pop\n          pop\n          jump\t// out\n            /* \"#utility.yul\":2570:3094   */\n        tag_3:\n            /* \"#utility.yul\":2650:2656   */\n          0x00\n            /* \"#utility.yul\":2699:2701   */\n          0x20\n            /* \"#utility.yul\":2687:2696   */\n          dup3\n            /* \"#utility.yul\":2678:2685   */\n          dup5\n            /* \"#utility.yul\":2674:2697   */\n          sub\n            /* \"#utility.yul\":2670:2702   */\n          slt\n            /* \"#utility.yul\":2667:2786   */\n          iszero\n          tag_72\n          jumpi\n            /* \"#utility.yul\":2705:2784   */\n          tag_73\n          tag_10\n          jump\t// in\n        tag_73:\n            /* \"#utility.yul\":2667:2786   */\n        tag_72:\n            /* \"#utility.yul\":2846:2847   */\n          0x00\n            /* \"#utility.yul\":2835:2844   */\n          dup3\n            /* \"#utility.yul\":2831:2848   */\n          add\n            /* \"#utility.yul\":2825:2849   */\n          mload\n            /* \"#utility.yul\":2876:2894   */\n          0xffffffffffffffff\n            /* \"#utility.yul\":2868:2874   */\n          dup2\n            /* \"#utility.yul\":2865:2895   */\n          gt\n            /* \"#utility.yul\":2862:2979   */\n          iszero\n          tag_74\n          jumpi\n            /* \"#utility.yul\":2898:2977   */\n          tag_75\n          tag_11\n          jump\t// in\n        tag_75:\n            /* \"#utility.yul\":2862:2979   */\n        tag_74:\n            /* \"#utility.yul\":3003:3077   */\n          tag_76\n            /* \"#utility.yul\":3069:3076   */\n          dup5\n            /* \"#utility.yul\":3060:3066   */\n          dup3\n            /* \"#utility.yul\":3049:3058   */\n          dup6\n            /* \"#utility.yul\":3045:3067   */\n          add\n            /* \"#utility.yul\":3003:3077   */\n          tag_21\n          jump\t// in\n        tag_76:\n            /* \"#utility.yul\":2993:3077   */\n          swap2\n          pop\n            /* \"#utility.yul\":2796:3087   */\n          pop\n            /* \"#utility.yul\":2570:3094   */\n          swap3\n          swap2\n          pop\n          pop\n          jump\t// out\n            /* \"#utility.yul\":3100:3199   */\n        tag_22:\n            /* \"#utility.yul\":3152:3158   */\n          0x00\n            /* \"#utility.yul\":3186:3191   */\n          dup2\n            /* \"#utility.yul\":3180:3192   */\n          mload\n            /* \"#utility.yul\":3170:3192   */\n          swap1\n          pop\n            /* \"#utility.yul\":3100:3199   */\n          swap2\n          swap1\n          pop\n          jump\t// out\n            /* \"#utility.yul\":3205:3385   */\n        tag_23:\n            /* \"#utility.yul\":3253:3330   */\n          0x4e487b7100000000000000000000000000000000000000000000000000000000\n            /* \"#utility.yul\":3250:3251   */\n          0x00\n            /* \"#utility.yul\":3243:3331   */\n          mstore\n            /* \"#utility.yul\":3350:3354   */\n          0x22\n            /* \"#utility.yul\":3347:3348   */\n          0x04\n            /* \"#utility.yul\":3340:3355   */\n          mstore\n            /* \"#utility.yul\":3374:3378   */\n          0x24\n            /* \"#utility.yul\":3371:3372   */\n          0x00\n            /* \"#utility.yul\":3364:3379   */\n          revert\n            /* \"#utility.yul\":3391:3711   */\n        tag_24:\n            /* \"#utility.yul\":3435:3441   */\n          0x00\n            /* \"#utility.yul\":3472:3473   */\n          0x02\n            /* \"#utility.yul\":3466:3470   */\n          dup3\n            /* \"#utility.yul\":3462:3474   */\n          div\n            /* \"#utility.yul\":3452:3474   */\n          swap1\n          pop\n            /* \"#utility.yul\":3519:3520   */\n          0x01\n            /* \"#utility.yul\":3513:3517   */\n          dup3\n            /* \"#utility.yul\":3509:3521   */\n          and\n            /* \"#utility.yul\":3540:3558   */\n          dup1\n            /* \"#utility.yul\":3530:3611   */\n          tag_80\n          jumpi\n            /* \"#utility.yul\":3596:3600   */\n          0x7f\n            /* \"#utility.yul\":3588:3594   */\n          dup3\n            /* \"#utility.yul\":3584:3601   */\n          and\n            /* \"#utility.yul\":3574:3601   */\n          swap2\n          pop\n            /* \"#utility.yul\":3530:3611   */\n        tag_80:\n            /* \"#utility.yul\":3658:3660   */\n          0x20\n            /* \"#utility.yul\":3650:3656   */\n          dup3\n            /* \"#utility.yul\":3647:3661   */\n          lt\n            /* \"#utility.yul\":3627:3645   */\n          dup2\n            /* \"#utility.yul\":3624:3662   */\n          sub\n            /* \"#utility.yul\":3621:3705   */\n          tag_81\n          jumpi\n            /* \"#utility.yul\":3677:3695   */\n          tag_82\n          tag_23\n          jump\t// in\n        tag_82:\n            /* \"#utility.yul\":3621:3705   */\n        tag_81:\n            /* \"#utility.yul\":3442:3711   */\n          pop\n            /* \"#utility.yul\":3391:3711   */\n          swap2\n          swap1\n          pop\n          jump\t// out\n            /* \"#utility.yul\":3717:3858   */\n        tag_25:\n            /* \"#utility.yul\":3766:3770   */\n          0x00\n            /* \"#utility.yul\":3789:3792   */\n          dup2\n            /* \"#utility.yul\":3781:3792   */\n          swap1\n          pop\n            /* \"#utility.yul\":3812:3815   */\n          dup2\n            /* \"#utility.yul\":3809:3810   */\n          0x00\n            /* \"#utility.yul\":3802:3816   */\n          mstore\n            /* \"#utility.yul\":3846:3850   */\n          0x20\n            /* \"#utility.yul\":3843:3844   */\n          0x00\n            /* \"#utility.yul\":3833:3851   */\n          keccak256\n            /* \"#utility.yul\":3825:3851   */\n          swap1\n          pop\n            /* \"#utility.yul\":3717:3858   */\n          swap2\n          swap1\n          pop\n          jump\t// out\n            /* \"#utility.yul\":3864:3957   */\n        tag_26:\n            /* \"#utility.yul\":3901:3907   */\n          0x00\n            /* \"#utility.yul\":3948:3950   */\n          0x20\n            /* \"#utility.yul\":3943:3945   */\n          0x1f\n            /* \"#utility.yul\":3936:3941   */\n          dup4\n            /* \"#utility.yul\":3932:3946   */\n          add\n            /* \"#utility.yul\":3928:3951   */\n          div\n            /* \"#utility.yul\":3918:3951   */\n          swap1\n          pop\n            /* \"#utility.yul\":3864:3957   */\n          swap2\n          swap1\n          pop\n          jump\t// out\n            /* \"#utility.yul\":3963:4070   */\n        tag_27:\n            /* \"#utility.yul\":4007:4015   */\n          0x00\n            /* \"#utility.yul\":4057:4062   */\n          dup3\n            /* \"#utility.yul\":4051:4055   */\n          dup3\n            /* \"#utility.yul\":4047:4063   */\n          shl\n            /* \"#utility.yul\":4026:4063   */\n          swap1\n          pop\n            /* \"#utility.yul\":3963:4070   */\n          swap3\n          swap2\n          pop\n          pop\n          jump\t// out\n            /* \"#utility.yul\":4076:4469   */\n        tag_28:\n            /* \"#utility.yul\":4145:4151   */\n          0x00\n            /* \"#utility.yul\":4195:4196   */\n          0x08\n            /* \"#utility.yul\":4183:4193   */\n          dup4\n            /* \"#utility.yul\":4179:4197   */\n          mul\n            /* \"#utility.yul\":4218:4315   */\n          tag_87\n            /* \"#utility.yul\":4248:4314   */\n          0xffffffffffffffffffffffffffffffffffffffffffffffffffffffffffffffff\n            /* \"#utility.yul\":4237:4246   */\n          dup3\n            /* \"#utility.yul\":4218:4315   */\n          tag_27\n          jump\t// in\n        tag_87:\n            /* \"#utility.yul\":4336:4375   */\n          tag_88\n            /* \"#utility.yul\":4366:4374   */\n          dup7\n            /* \"#utility.yul\":4355:4364   */\n          dup4\n            /* \"#utility.yul\":4336:4375   */\n          tag_27\n          jump\t// in\n        tag_88:\n            /* \"#utility.yul\":4324:4375   */\n          swap6\n          pop\n            /* \"#utility.yul\":4408:4412   */\n          dup1\n            /* \"#utility.yul\":4404:4413   */\n          not\n            /* \"#utility.yul\":4397:4402   */\n          dup5\n            /* \"#utility.yul\":4393:4414   */\n          and\n            /* \"#utility.yul\":4384:4414   */\n          swap4\n          pop\n            /* \"#utility.yul\":4457:4461   */\n          dup1\n            /* \"#utility.yul\":4447:4455   */\n          dup7\n            /* \"#utility.yul\":4443:4462   */\n          and\n            /* \"#utility.yul\":4436:4441   */\n          dup5\n            /* \"#utility.yul\":4433:4463   */\n          or\n            /* \"#utility.yul\":4423:4463   */\n          swap3\n          pop\n            /* \"#utility.yul\":4152:4469   */\n          pop\n          pop\n            /* \"#utility.yul\":4076:4469   */\n          swap4\n          swap3\n          pop\n          pop\n          pop\n          jump\t// out\n            /* \"#utility.yul\":4475:4552   */\n        tag_29:\n            /* \"#utility.yul\":4512:4519   */\n          0x00\n            /* \"#utility.yul\":4541:4546   */\n          dup2\n            /* \"#utility.yul\":4530:4546   */\n          swap1\n          pop\n            /* \"#utility.yul\":4475:4552   */\n          swap2\n          swap1\n          pop\n          jump\t// out\n            /* \"#utility.yul\":4558:4618   */\n        tag_30:\n            /* \"#utility.yul\":4586:4589   */\n          0x00\n            /* \"#utility.yul\":4607:4612   */\n          dup2\n            /* \"#utility.yul\":4600:4612   */\n          swap1\n          pop\n            /* \"#utility.yul\":4558:4618   */\n          swap2\n          swap1\n          pop\n          jump\t// out\n            /* \"#utility.yul\":4624:4766   */\n        tag_31:\n            /* \"#utility.yul\":4674:4683   */\n          0x00\n            /* \"#utility.yul\":4707:4760   */\n          tag_92\n            /* \"#utility.yul\":4725:4759   */\n          tag_93\n            /* \"#utility.yul\":4734:4758   */\n          tag_94\n            /* \"#utility.yul\":4752:4757   */\n          dup5\n            /* \"#utility.yul\":4734:4758   */\n          tag_29\n          jump\t// in\n        tag_94:\n            /* \"#utility.yul\":4725:4759   */\n          tag_30\n          jump\t// in\n        tag_93:\n            /* \"#utility.yul\":4707:4760   */\n          tag_29\n          jump\t// in\n        tag_92:\n            /* \"#utility.yul\":4694:4760   */\n          swap1\n          pop\n            /* \"#utility.yul\":4624:4766   */\n          swap2\n          swap1\n          pop\n          jump\t// out\n            /* \"#utility.yul\":4772:4847   */\n        tag_32:\n            /* \"#utility.yul\":4815:4818   */\n          0x00\n            /* \"#utility.yul\":4836:4841   */\n          dup2\n            /* \"#utility.yul\":4829:4841   */\n          swap1\n          pop\n            /* \"#utility.yul\":4772:4847   */\n          swap2\n          swap1\n          pop\n          jump\t// out\n            /* \"#utility.yul\":4853:5122   */\n        tag_33:\n            /* \"#utility.yul\":4963:5002   */\n          tag_97\n            /* \"#utility.yul\":4994:5001   */\n          dup4\n            /* \"#utility.yul\":4963:5002   */\n          tag_31\n          jump\t// in\n        tag_97:\n            /* \"#utility.yul\":5024:5115   */\n          tag_98\n            /* \"#utility.yul\":5073:5114   */\n          tag_99\n            /* \"#utility.yul\":5097:5113   */\n          dup3\n            /* \"#utility.yul\":5073:5114   */\n          tag_32\n          jump\t// in\n        tag_99:\n            /* \"#utility.yul\":5065:5071   */\n          dup5\n            /* \"#utility.yul\":5058:5062   */\n          dup5\n            /* \"#utility.yul\":5052:5063   */\n          sload\n            /* \"#utility.yul\":5024:5115   */\n          tag_28\n          jump\t// in\n        tag_98:\n            /* \"#utility.yul\":5018:5022   */\n          dup3\n            /* \"#utility.yul\":5011:5116   */\n          sstore\n            /* \"#utility.yul\":4929:5122   */\n          pop\n            /* \"#utility.yul\":4853:5122   */\n          pop\n          pop\n          pop\n          jump\t// out\n            /* \"#utility.yul\":5128:5201   */\n        tag_34:\n            /* \"#utility.yul\":5173:5176   */\n          0x00\n            /* \"#utility.yul\":5128:5201   */\n          swap1\n          jump\t// out\n            /* \"#utility.yul\":5207:5396   */\n        tag_35:\n            /* \"#utility.yul\":5284:5316   */\n          tag_102\n          tag_34\n          jump\t// in\n        tag_102:\n            /* \"#utility.yul\":5325:5390   */\n          tag_103\n            /* \"#utility.yul\":5383:5389   */\n          dup2\n            /* \"#utility.yul\":5375:5381   */\n          dup5\n            /* \"#utility.yul\":5369:5373   */\n          dup5\n            /* \"#utility.yul\":5325:5390   */\n          tag_33\n          jump\t// in\n        tag_103:\n            /* \"#utility.yul\":5260:5396   */\n          pop\n            /* \"#utility.yul\":5207:5396   */\n          pop\n          pop\n          jump\t// out\n            /* \"#utility.yul\":5402:5588   */\n        tag_36:\n            /* \"#utility.yul\":5462:5582   */\n        tag_105:\n            /* \"#utility.yul\":5479:5482   */\n          dup2\n            /* \"#utility.yul\":5472:5477   */\n          dup2\n            /* \"#utility.yul\":5469:5483   */\n          lt\n            /* \"#utility.yul\":5462:5582   */\n          iszero\n          tag_107\n          jumpi\n            /* \"#utility.yul\":5533:5572   */\n          tag_108\n            /* \"#utility.yul\":5570:5571   */\n          0x00\n            /* \"#utility.yul\":5563:5568   */\n          dup3\n            /* \"#utility.yul\":5533:5572   */\n          tag_35\n          jump\t// in\n        tag_108:\n            /* \"#utility.yul\":5506:5507   */\n          0x01\n            /* \"#utility.yul\":5499:5504   */\n          dup2\n            /* \"#utility.yul\":5495:5508   */\n          add\n            /* \"#utility.yul\":5486:5508   */\n          swap1\n          pop\n            /* \"#utility.yul\":5462:5582   */\n          jump(tag_105)\n        tag_107:\n            /* \"#utility.yul\":5402:5588   */\n          pop\n          pop\n          jump\t// out\n            /* \"#utility.yul\":5594:6137   */\n        tag_37:\n            /* \"#utility.yul\":5695:5697   */\n          0x1f\n            /* \"#utility.yul\":5690:5693   */\n          dup3\n            /* \"#utility.yul\":5687:5698   */\n          gt\n            /* \"#utility.yul\":5684:6130   */\n          iszero\n          tag_110\n          jumpi\n            /* \"#utility.yul\":5729:5767   */\n          tag_111\n            /* \"#utility.yul\":5761:5766   */\n          dup2\n            /* \"#utility.yul\":5729:5767   */\n          tag_25\n          jump\t// in\n        tag_111:\n            /* \"#utility.yul\":5813:5842   */\n          tag_112\n            /* \"#utility.yul\":5831:5841   */\n          dup5\n            /* \"#utility.yul\":5813:5842   */\n          tag_26\n          jump\t// in\n        tag_112:\n            /* \"#utility.yul\":5803:5811   */\n          dup2\n            /* \"#utility.yul\":5799:5843   */\n          add\n            /* \"#utility.yul\":5996:5998   */\n          0x20\n            /* \"#utility.yul\":5984:5994   */\n          dup6\n            /* \"#utility.yul\":5981:5999   */\n          lt\n            /* \"#utility.yul\":5978:6027   */\n          iszero\n          tag_113\n          jumpi\n            /* \"#utility.yul\":6017:6025   */\n          dup2\n            /* \"#utility.yul\":6002:6025   */\n          swap1\n          pop\n            /* \"#utility.yul\":5978:6027   */\n        tag_113:\n            /* \"#utility.yul\":6040:6120   */\n          tag_114\n            /* \"#utility.yul\":6096:6118   */\n          tag_115\n            /* \"#utility.yul\":6114:6117   */\n          dup6\n            /* \"#utility.yul\":6096:6118   */\n          tag_26\n          jump\t// in\n        tag_115:\n            /* \"#utility.yul\":6086:6094   */\n          dup4\n            /* \"#utility.yul\":6082:6119   */\n          add\n            /* \"#utility.yul\":6069:6080   */\n          dup3\n            /* \"#utility.yul\":6040:6120   */\n          tag_36\n          jump\t// in\n        tag_114:\n            /* \"#utility.yul\":5699:6130   */\n          pop\n          pop\n            /* \"#utility.yul\":5684:6130   */\n        tag_110:\n            /* \"#utility.yul\":5594:6137   */\n          pop\n          pop\n          pop\n          jump\t// out\n            /* \"#utility.yul\":6143:6260   */\n        tag_38:\n            /* \"#utility.yul\":6197:6205   */\n          0x00\n            /* \"#utility.yul\":6247:6252   */\n          dup3\n            /* \"#utility.yul\":6241:6245   */\n          dup3\n            /* \"#utility.yul\":6237:6253   */\n          shr\n            /* \"#utility.yul\":6216:6253   */\n          swap1\n          pop\n            /* \"#utility.yul\":6143:6260   */\n          swap3\n          swap2\n          pop\n          pop\n          jump\t// out\n            /* \"#utility.yul\":6266:6435   */\n        tag_39:\n            /* \"#utility.yul\":6310:6316   */\n          0x00\n            /* \"#utility.yul\":6343:6394   */\n          tag_118\n            /* \"#utility.yul\":6391:6392   */\n          0x00\n            /* \"#utility.yul\":6387:6393   */\n          not\n            /* \"#utility.yul\":6379:6384   */\n          dup5\n            /* \"#utility.yul\":6376:6377   */\n          0x08\n            /* \"#utility.yul\":6372:6385   */\n          mul\n            /* \"#utility.yul\":6343:6394   */\n          tag_38\n          jump\t// in\n        tag_118:\n            /* \"#utility.yul\":6339:6395   */\n          not\n            /* \"#utility.yul\":6424:6428   */\n          dup1\n            /* \"#utility.yul\":6418:6422   */\n          dup4\n            /* \"#utility.yul\":6414:6429   */\n          and\n            /* \"#utility.yul\":6404:6429   */\n          swap2\n          pop\n            /* \"#utility.yul\":6317:6435   */\n          pop\n            /* \"#utility.yul\":6266:6435   */\n          swap3\n          swap2\n          pop\n          pop\n          jump\t// out\n            /* \"#utility.yul\":6440:6735   */\n        tag_40:\n            /* \"#utility.yul\":6516:6520   */\n          0x00\n            /* \"#utility.yul\":6662:6691   */\n          tag_120\n            /* \"#utility.yul\":6687:6690   */\n          dup4\n            /* \"#utility.yul\":6681:6685   */\n          dup4\n            /* \"#utility.yul\":6662:6691   */\n          tag_39\n          jump\t// in\n        tag_120:\n            /* \"#utility.yul\":6654:6691   */\n          swap2\n          pop\n            /* \"#utility.yul\":6724:6727   */\n          dup3\n            /* \"#utility.yul\":6721:6722   */\n          0x02\n            /* \"#utility.yul\":6717:6728   */\n          mul\n            /* \"#utility.yul\":6711:6715   */\n          dup3\n            /* \"#utility.yul\":6708:6729   */\n          or\n            /* \"#utility.yul\":6700:6729   */\n          swap1\n          pop\n            /* \"#utility.yul\":6440:6735   */\n          swap3\n          swap2\n          pop\n          pop\n          jump\t// out\n            /* \"#utility.yul\":6740:8135   */\n        tag_7:\n            /* \"#utility.yul\":6857:6894   */\n          tag_122\n            /* \"#utility.yul\":6890:6893   */\n          dup3\n            /* \"#utility.yul\":6857:6894   */\n          tag_22\n          jump\t// in\n        tag_122:\n            /* \"#utility.yul\":6959:6977   */\n          0xffffffffffffffff\n            /* \"#utility.yul\":6951:6957   */\n          dup2\n            /* \"#utility.yul\":6948:6978   */\n          gt\n            /* \"#utility.yul\":6945:7001   */\n          iszero\n          tag_123\n          jumpi\n            /* \"#utility.yul\":6981:6999   */\n          tag_124\n          tag_15\n          jump\t// in\n        tag_124:\n            /* \"#utility.yul\":6945:7001   */\n        tag_123:\n            /* \"#utility.yul\":7025:7063   */\n          tag_125\n            /* \"#utility.yul\":7057:7061   */\n          dup3\n            /* \"#utility.yul\":7051:7062   */\n          sload\n            /* \"#utility.yul\":7025:7063   */\n          tag_24\n          jump\t// in\n        tag_125:\n            /* \"#utility.yul\":7110:7177   */\n          tag_126\n            /* \"#utility.yul\":7170:7176   */\n          dup3\n            /* \"#utility.yul\":7162:7168   */\n          dup3\n            /* \"#utility.yul\":7156:7160   */\n          dup6\n            /* \"#utility.yul\":7110:7177   */\n          tag_37\n          jump\t// in\n        tag_126:\n            /* \"#utility.yul\":7204:7205   */\n          0x00\n            /* \"#utility.yul\":7228:7232   */\n          0x20\n            /* \"#utility.yul\":7215:7232   */\n          swap1\n          pop\n            /* \"#utility.yul\":7260:7262   */\n          0x1f\n            /* \"#utility.yul\":7252:7258   */\n          dup4\n            /* \"#utility.yul\":7249:7263   */\n          gt\n            /* \"#utility.yul\":7277:7278   */\n          0x01\n            /* \"#utility.yul\":7272:7890   */\n          dup2\n          eq\n          tag_128\n          jumpi\n            /* \"#utility.yul\":7934:7935   */\n          0x00\n            /* \"#utility.yul\":7951:7957   */\n          dup5\n            /* \"#utility.yul\":7948:8025   */\n          iszero\n          tag_129\n          jumpi\n            /* \"#utility.yul\":8000:8009   */\n          dup3\n            /* \"#utility.yul\":7995:7998   */\n          dup8\n            /* \"#utility.yul\":7991:8010   */\n          add\n            /* \"#utility.yul\":7985:8011   */\n          mload\n            /* \"#utility.yul\":7976:8011   */\n          swap1\n          pop\n            /* \"#utility.yul\":7948:8025   */\n        tag_129:\n            /* \"#utility.yul\":8051:8118   */\n          tag_130\n            /* \"#utility.yul\":8111:8117   */\n          dup6\n            /* \"#utility.yul\":8104:8109   */\n          dup3\n            /* \"#utility.yul\":8051:8118   */\n          tag_40\n          jump\t// in\n        tag_130:\n            /* \"#utility.yul\":8045:8049   */\n          dup7\n            /* \"#utility.yul\":8038:8119   */\n          sstore\n            /* \"#utility.yul\":7907:8129   */\n          pop\n            /* \"#utility.yul\":7242:8129   */\n          jump(tag_127)\n            /* \"#utility.yul\":7272:7890   */\n        tag_128:\n            /* \"#utility.yul\":7324:7328   */\n          0x1f\n            /* \"#utility.yul\":7320:7329   */\n          not\n            /* \"#utility.yul\":7312:7318   */\n          dup5\n            /* \"#utility.yul\":7308:7330   */\n          and\n            /* \"#utility.yul\":7358:7395   */\n          tag_131\n            /* \"#utility.yul\":7390:7394   */\n          dup7\n            /* \"#utility.yul\":7358:7395   */\n          tag_25\n          jump\t// in\n        tag_131:\n            /* \"#utility.yul\":7417:7418   */\n          0x00\n            /* \"#utility.yul\":7431:7639   */\n        tag_132:\n            /* \"#utility.yul\":7445:7452   */\n          dup3\n            /* \"#utility.yul\":7442:7443   */\n          dup2\n            /* \"#utility.yul\":7439:7453   */\n          lt\n            /* \"#utility.yul\":7431:7639   */\n          iszero\n          tag_134\n          jumpi\n            /* \"#utility.yul\":7524:7533   */\n          dup5\n            /* \"#utility.yul\":7519:7522   */\n          dup10\n            /* \"#utility.yul\":7515:7534   */\n          add\n            /* \"#utility.yul\":7509:7535   */\n          mload\n            /* \"#utility.yul\":7501:7507   */\n          dup3\n            /* \"#utility.yul\":7494:7536   */\n          sstore\n            /* \"#utility.yul\":7575:7576   */\n          0x01\n            /* \"#utility.yul\":7567:7573   */\n          dup3\n            /* \"#utility.yul\":7563:7577   */\n          add\n            /* \"#utility.yul\":7553:7577   */\n          swap2\n          pop\n            /* \"#utility.yul\":7622:7624   */\n          0x20\n            /* \"#utility.yul\":7611:7620   */\n          dup6\n            /* \"#utility.yul\":7607:7625   */\n          add\n            /* \"#utility.yul\":7594:7625   */\n          swap5\n          pop\n            /* \"#utility.yul\":7468:7472   */\n          0x20\n            /* \"#utility.yul\":7465:7466   */\n          dup2\n            /* \"#utility.yul\":7461:7473   */\n          add\n            /* \"#utility.yul\":7456:7473   */\n          swap1\n          pop\n            /* \"#utility.yul\":7431:7639   */\n          jump(tag_132)\n        tag_134:\n            /* \"#utility.yul\":7667:7673   */\n          dup7\n            /* \"#utility.yul\":7658:7665   */\n          dup4\n            /* \"#utility.yul\":7655:7674   */\n          lt\n            /* \"#utility.yul\":7652:7831   */\n          iszero\n          tag_135\n          jumpi\n            /* \"#utility.yul\":7725:7734   */\n          dup5\n            /* \"#utility.yul\":7720:7723   */\n          dup10\n            /* \"#utility.yul\":7716:7735   */\n          add\n            /* \"#utility.yul\":7710:7736   */\n          mload\n            /* \"#utility.yul\":7768:7816   */\n          tag_136\n            /* \"#utility.yul\":7810:7814   */\n          0x1f\n            /* \"#utility.yul\":7802:7808   */\n          dup10\n            /* \"#utility.yul\":7798:7815   */\n          and\n            /* \"#utility.yul\":7787:7796   */\n          dup3\n            /* \"#utility.yul\":7768:7816   */\n          tag_39\n          jump\t// in\n        tag_136:\n            /* \"#utility.yul\":7760:7766   */\n          dup4\n            /* \"#utility.yul\":7753:7817   */\n          sstore\n            /* \"#utility.yul\":7675:7831   */\n          pop\n            /* \"#utility.yul\":7652:7831   */\n        tag_135:\n            /* \"#utility.yul\":7877:7878   */\n          0x01\n            /* \"#utility.yul\":7873:7874   */\n          0x02\n            /* \"#utility.yul\":7865:7871   */\n          dup9\n            /* \"#utility.yul\":7861:7875   */\n          mul\n            /* \"#utility.yul\":7857:7879   */\n          add\n            /* \"#utility.yul\":7851:7855   */\n          dup9\n            /* \"#utility.yul\":7844:7880   */\n          sstore\n            /* \"#utility.yul\":7279:7890   */\n          pop\n          pop\n          pop\n            /* \"#utility.yul\":7242:8129   */\n        tag_127:\n          pop\n            /* \"#utility.yul\":6832:8135   */\n          pop\n          pop\n          pop\n            /* \"#utility.yul\":6740:8135   */\n          pop\n          pop\n          jump\t// out\n            /* \"contracts/complimet.sol\":58:290  contract Compliment{... */\n        tag_8:\n          dataSize(sub_0)\n          dup1\n          dataOffset(sub_0)\n          0x00\n          codecopy\n          0x00\n          return\n        stop\n\n        sub_0: assembly {\n                /* \"contracts/complimet.sol\":58:290  contract Compliment{... */\n              mstore(0x40, 0x80)\n              callvalue\n              dup1\n              iszero\n              tag_1\n              jumpi\n              0x00\n              dup1\n              revert\n            tag_1:\n              pop\n              jumpi(tag_2, lt(calldatasize, 0x04))\n              shr(0xe0, calldataload(0x00))\n              dup1\n              0x5489a245\n              eq\n              tag_3\n              jumpi\n            tag_2:\n              0x00\n              dup1\n              revert\n                /* \"contracts/complimet.sol\":165:288  function greetMessage() public view returns(string memory){... */\n            tag_3:\n              tag_4\n              tag_5\n              jump\t// in\n            tag_4:\n              mload(0x40)\n              tag_6\n              swap2\n              swap1\n              tag_7\n              jump\t// in\n            tag_6:\n              mload(0x40)\n              dup1\n              swap2\n              sub\n              swap1\n              return\n            tag_5:\n                /* \"contracts/complimet.sol\":209:222  string memory */\n              0x60\n                /* \"contracts/complimet.sol\":276:280  name */\n              0x00\n                /* \"contracts/complimet.sol\":241:281  string.concat(\"Nice to meet you \", name) */\n              add(0x20, mload(0x40))\n              tag_9\n              swap2\n              swap1\n              tag_10\n              jump\t// in\n            tag_9:\n              mload(0x40)\n              0x20\n              dup2\n              dup4\n              sub\n              sub\n              dup2\n              mstore\n              swap1\n              0x40\n              mstore\n                /* \"contracts/complimet.sol\":233:281  return  string.concat(\"Nice to meet you \", name) */\n              swap1\n              pop\n                /* \"contracts/complimet.sol\":165:288  function greetMessage() public view returns(string memory){... */\n              swap1\n              jump\t// out\n                /* \"#utility.yul\":7:106   */\n            tag_11:\n                /* \"#utility.yul\":59:65   */\n              0x00\n                /* \"#utility.yul\":93:98   */\n              dup2\n                /* \"#utility.yul\":87:99   */\n              mload\n                /* \"#utility.yul\":77:99   */\n              swap1\n              pop\n                /* \"#utility.yul\":7:106   */\n              swap2\n              swap1\n              pop\n              jump\t// out\n                /* \"#utility.yul\":112:281   */\n            tag_12:\n                /* \"#utility.yul\":196:207   */\n              0x00\n                /* \"#utility.yul\":230:236   */\n              dup3\n                /* \"#utility.yul\":225:228   */\n              dup3\n                /* \"#utility.yul\":218:237   */\n              mstore\n                /* \"#utility.yul\":270:274   */\n              0x20\n                /* \"#utility.yul\":265:268   */\n              dup3\n                /* \"#utility.yul\":261:275   */\n              add\n                /* \"#utility.yul\":246:275   */\n              swap1\n              pop\n                /* \"#utility.yul\":112:281   */\n              swap3\n              swap2\n              pop\n              pop\n              jump\t// out\n                /* \"#utility.yul\":287:426   */\n            tag_13:\n                /* \"#utility.yul\":376:382   */\n              dup3\n                /* \"#utility.yul\":371:374   */\n              dup2\n                /* \"#utility.yul\":366:369   */\n              dup4\n                /* \"#utility.yul\":360:383   */\n              mcopy\n                /* \"#utility.yul\":417:418   */\n              0x00\n                /* \"#utility.yul\":408:414   */\n              dup4\n                /* \"#utility.yul\":403:406   */\n              dup4\n                /* \"#utility.yul\":399:415   */\n              add\n                /* \"#utility.yul\":392:419   */\n              mstore\n                /* \"#utility.yul\":287:426   */\n              pop\n              pop\n              pop\n              jump\t// out\n                /* \"#utility.yul\":432:534   */\n            tag_14:\n                /* \"#utility.yul\":473:479   */\n              0x00\n                /* \"#utility.yul\":524:526   */\n              0x1f\n                /* \"#utility.yul\":520:527   */\n              not\n                /* \"#utility.yul\":515:517   */\n              0x1f\n                /* \"#utility.yul\":508:513   */\n              dup4\n                /* \"#utility.yul\":504:518   */\n              add\n                /* \"#utility.yul\":500:528   */\n              and\n                /* \"#utility.yul\":490:528   */\n              swap1\n              pop\n                /* \"#utility.yul\":432:534   */\n              swap2\n              swap1\n              pop\n              jump\t// out\n                /* \"#utility.yul\":540:917   */\n            tag_15:\n                /* \"#utility.yul\":628:631   */\n              0x00\n                /* \"#utility.yul\":656:695   */\n              tag_28\n                /* \"#utility.yul\":689:694   */\n              dup3\n                /* \"#utility.yul\":656:695   */\n              tag_11\n              jump\t// in\n            tag_28:\n                /* \"#utility.yul\":711:782   */\n              tag_29\n                /* \"#utility.yul\":775:781   */\n              dup2\n                /* \"#utility.yul\":770:773   */\n              dup6\n                /* \"#utility.yul\":711:782   */\n              tag_12\n              jump\t// in\n            tag_29:\n                /* \"#utility.yul\":704:782   */\n              swap4\n              pop\n                /* \"#utility.yul\":791:856   */\n              tag_30\n                /* \"#utility.yul\":849:855   */\n              dup2\n                /* \"#utility.yul\":844:847   */\n              dup6\n                /* \"#utility.yul\":837:841   */\n              0x20\n                /* \"#utility.yul\":830:835   */\n              dup7\n                /* \"#utility.yul\":826:842   */\n              add\n                /* \"#utility.yul\":791:856   */\n              tag_13\n              jump\t// in\n            tag_30:\n                /* \"#utility.yul\":881:910   */\n              tag_31\n                /* \"#utility.yul\":903:909   */\n              dup2\n                /* \"#utility.yul\":881:910   */\n              tag_14\n              jump\t// in\n            tag_31:\n                /* \"#utility.yul\":876:879   */\n              dup5\n                /* \"#utility.yul\":872:911   */\n              add\n                /* \"#utility.yul\":865:911   */\n              swap2\n              pop\n                /* \"#utility.yul\":632:917   */\n              pop\n                /* \"#utility.yul\":540:917   */\n              swap3\n              swap2\n              pop\n              pop\n              jump\t// out\n                /* \"#utility.yul\":923:1236   */\n            tag_7:\n                /* \"#utility.yul\":1036:1040   */\n              0x00\n                /* \"#utility.yul\":1074:1076   */\n              0x20\n                /* \"#utility.yul\":1063:1072   */\n              dup3\n                /* \"#utility.yul\":1059:1077   */\n              add\n                /* \"#utility.yul\":1051:1077   */\n              swap1\n              pop\n                /* \"#utility.yul\":1123:1132   */\n              dup2\n                /* \"#utility.yul\":1117:1121   */\n              dup2\n                /* \"#utility.yul\":1113:1133   */\n              sub\n                /* \"#utility.yul\":1109:1110   */\n              0x00\n                /* \"#utility.yul\":1098:1107   */\n              dup4\n                /* \"#utility.yul\":1094:1111   */\n              add\n                /* \"#utility.yul\":1087:1134   */\n              mstore\n                /* \"#utility.yul\":1151:1229   */\n              tag_33\n                /* \"#utility.yul\":1224:1228   */\n              dup2\n                /* \"#utility.yul\":1215:1221   */\n              dup5\n                /* \"#utility.yul\":1151:1229   */\n              tag_15\n              jump\t// in\n            tag_33:\n                /* \"#utility.yul\":1143:1229   */\n              swap1\n              pop\n                /* \"#utility.yul\":923:1236   */\n              swap3\n              swap2\n              pop\n              pop\n              jump\t// out\n                /* \"#utility.yul\":1242:1437   */\n            tag_16:\n                /* \"#utility.yul\":1411:1430   */\n              0x4e69636520746f206d65657420796f7520000000000000000000000000000000\n                /* \"#utility.yul\":1406:1409   */\n              dup2\n                /* \"#utility.yul\":1399:1431   */\n              mstore\n                /* \"#utility.yul\":1242:1437   */\n              pop\n              jump\t// out\n                /* \"#utility.yul\":1443:1623   */\n            tag_17:\n                /* \"#utility.yul\":1491:1568   */\n              0x4e487b7100000000000000000000000000000000000000000000000000000000\n                /* \"#utility.yul\":1488:1489   */\n              0x00\n                /* \"#utility.yul\":1481:1569   */\n              mstore\n                /* \"#utility.yul\":1588:1592   */\n              0x22\n                /* \"#utility.yul\":1585:1586   */\n              0x04\n                /* \"#utility.yul\":1578:1593   */\n              mstore\n                /* \"#utility.yul\":1612:1616   */\n              0x24\n                /* \"#utility.yul\":1609:1610   */\n              0x00\n                /* \"#utility.yul\":1602:1617   */\n              revert\n                /* \"#utility.yul\":1629:1949   */\n            tag_18:\n                /* \"#utility.yul\":1673:1679   */\n              0x00\n                /* \"#utility.yul\":1710:1711   */\n              0x02\n                /* \"#utility.yul\":1704:1708   */\n              dup3\n                /* \"#utility.yul\":1700:1712   */\n              div\n                /* \"#utility.yul\":1690:1712   */\n              swap1\n              pop\n                /* \"#utility.yul\":1757:1758   */\n              0x01\n                /* \"#utility.yul\":1751:1755   */\n              dup3\n                /* \"#utility.yul\":1747:1759   */\n              and\n                /* \"#utility.yul\":1778:1796   */\n              dup1\n                /* \"#utility.yul\":1768:1849   */\n              tag_37\n              jumpi\n                /* \"#utility.yul\":1834:1838   */\n              0x7f\n                /* \"#utility.yul\":1826:1832   */\n              dup3\n                /* \"#utility.yul\":1822:1839   */\n              and\n                /* \"#utility.yul\":1812:1839   */\n              swap2\n              pop\n                /* \"#utility.yul\":1768:1849   */\n            tag_37:\n                /* \"#utility.yul\":1896:1898   */\n              0x20\n                /* \"#utility.yul\":1888:1894   */\n              dup3\n                /* \"#utility.yul\":1885:1899   */\n              lt\n                /* \"#utility.yul\":1865:1883   */\n              dup2\n                /* \"#utility.yul\":1862:1900   */\n              sub\n                /* \"#utility.yul\":1859:1943   */\n              tag_38\n              jumpi\n                /* \"#utility.yul\":1915:1933   */\n              tag_39\n              tag_17\n              jump\t// in\n            tag_39:\n                /* \"#utility.yul\":1859:1943   */\n            tag_38:\n                /* \"#utility.yul\":1680:1949   */\n              pop\n                /* \"#utility.yul\":1629:1949   */\n              swap2\n              swap1\n              pop\n              jump\t// out\n                /* \"#utility.yul\":1955:2103   */\n            tag_19:\n                /* \"#utility.yul\":2057:2068   */\n              0x00\n                /* \"#utility.yul\":2094:2097   */\n              dup2\n                /* \"#utility.yul\":2079:2097   */\n              swap1\n              pop\n                /* \"#utility.yul\":1955:2103   */\n              swap3\n              swap2\n              pop\n              pop\n              jump\t// out\n                /* \"#utility.yul\":2109:2250   */\n            tag_20:\n                /* \"#utility.yul\":2158:2162   */\n              0x00\n                /* \"#utility.yul\":2181:2184   */\n              dup2\n                /* \"#utility.yul\":2173:2184   */\n              swap1\n              pop\n                /* \"#utility.yul\":2204:2207   */\n              dup2\n                /* \"#utility.yul\":2201:2202   */\n              0x00\n                /* \"#utility.yul\":2194:2208   */\n              mstore\n                /* \"#utility.yul\":2238:2242   */\n              0x20\n                /* \"#utility.yul\":2235:2236   */\n              0x00\n                /* \"#utility.yul\":2225:2243   */\n              keccak256\n                /* \"#utility.yul\":2217:2243   */\n              swap1\n              pop\n                /* \"#utility.yul\":2109:2250   */\n              swap2\n              swap1\n              pop\n              jump\t// out\n                /* \"#utility.yul\":2280:3154   */\n            tag_21:\n                /* \"#utility.yul\":2383:2386   */\n              0x00\n                /* \"#utility.yul\":2420:2425   */\n              dup2\n                /* \"#utility.yul\":2414:2426   */\n              sload\n                /* \"#utility.yul\":2449:2485   */\n              tag_43\n                /* \"#utility.yul\":2475:2484   */\n              dup2\n                /* \"#utility.yul\":2449:2485   */\n              tag_18\n              jump\t// in\n            tag_43:\n                /* \"#utility.yul\":2501:2590   */\n              tag_44\n                /* \"#utility.yul\":2583:2589   */\n              dup2\n                /* \"#utility.yul\":2578:2581   */\n              dup7\n                /* \"#utility.yul\":2501:2590   */\n              tag_19\n              jump\t// in\n            tag_44:\n                /* \"#utility.yul\":2494:2590   */\n              swap5\n              pop\n                /* \"#utility.yul\":2621:2622   */\n              0x01\n                /* \"#utility.yul\":2610:2619   */\n              dup3\n                /* \"#utility.yul\":2606:2623   */\n              and\n                /* \"#utility.yul\":2637:2638   */\n              0x00\n                /* \"#utility.yul\":2632:2798   */\n              dup2\n              eq\n              tag_46\n              jumpi\n                /* \"#utility.yul\":2812:2813   */\n              0x01\n                /* \"#utility.yul\":2807:3148   */\n              dup2\n              eq\n              tag_47\n              jumpi\n                /* \"#utility.yul\":2599:3148   */\n              jump(tag_45)\n                /* \"#utility.yul\":2632:2798   */\n            tag_46:\n                /* \"#utility.yul\":2716:2720   */\n              0xff\n                /* \"#utility.yul\":2712:2721   */\n              not\n                /* \"#utility.yul\":2701:2710   */\n              dup4\n                /* \"#utility.yul\":2697:2722   */\n              and\n                /* \"#utility.yul\":2692:2695   */\n              dup7\n                /* \"#utility.yul\":2685:2723   */\n              mstore\n                /* \"#utility.yul\":2778:2784   */\n              dup2\n                /* \"#utility.yul\":2771:2785   */\n              iszero\n                /* \"#utility.yul\":2764:2786   */\n              iszero\n                /* \"#utility.yul\":2756:2762   */\n              dup3\n                /* \"#utility.yul\":2752:2787   */\n              mul\n                /* \"#utility.yul\":2747:2750   */\n              dup7\n                /* \"#utility.yul\":2743:2788   */\n              add\n                /* \"#utility.yul\":2736:2788   */\n              swap4\n              pop\n                /* \"#utility.yul\":2632:2798   */\n              jump(tag_45)\n                /* \"#utility.yul\":2807:3148   */\n            tag_47:\n                /* \"#utility.yul\":2874:2912   */\n              tag_48\n                /* \"#utility.yul\":2906:2911   */\n              dup6\n                /* \"#utility.yul\":2874:2912   */\n              tag_20\n              jump\t// in\n            tag_48:\n                /* \"#utility.yul\":2934:2935   */\n              0x00\n                /* \"#utility.yul\":2948:3102   */\n            tag_49:\n                /* \"#utility.yul\":2962:2968   */\n              dup4\n                /* \"#utility.yul\":2959:2960   */\n              dup2\n                /* \"#utility.yul\":2956:2969   */\n              lt\n                /* \"#utility.yul\":2948:3102   */\n              iszero\n              tag_51\n              jumpi\n                /* \"#utility.yul\":3036:3043   */\n              dup2\n                /* \"#utility.yul\":3030:3044   */\n              sload\n                /* \"#utility.yul\":3026:3027   */\n              dup2\n                /* \"#utility.yul\":3021:3024   */\n              dup10\n                /* \"#utility.yul\":3017:3028   */\n              add\n                /* \"#utility.yul\":3010:3045   */\n              mstore\n                /* \"#utility.yul\":3086:3087   */\n              0x01\n                /* \"#utility.yul\":3077:3084   */\n              dup3\n                /* \"#utility.yul\":3073:3088   */\n              add\n                /* \"#utility.yul\":3062:3088   */\n              swap2\n              pop\n                /* \"#utility.yul\":2984:2988   */\n              0x20\n                /* \"#utility.yul\":2981:2982   */\n              dup2\n                /* \"#utility.yul\":2977:2989   */\n              add\n                /* \"#utility.yul\":2972:2989   */\n              swap1\n              pop\n                /* \"#utility.yul\":2948:3102   */\n              jump(tag_49)\n            tag_51:\n                /* \"#utility.yul\":3131:3137   */\n              dup4\n                /* \"#utility.yul\":3126:3129   */\n              dup9\n                /* \"#utility.yul\":3122:3138   */\n              add\n                /* \"#utility.yul\":3115:3138   */\n              swap6\n              pop\n                /* \"#utility.yul\":2814:3148   */\n              pop\n              pop\n                /* \"#utility.yul\":2599:3148   */\n            tag_45:\n              pop\n                /* \"#utility.yul\":2387:3154   */\n              pop\n              pop\n                /* \"#utility.yul\":2280:3154   */\n              swap3\n              swap2\n              pop\n              pop\n              jump\t// out\n                /* \"#utility.yul\":3160:3696   */\n            tag_10:\n                /* \"#utility.yul\":3380:3383   */\n              0x00\n                /* \"#utility.yul\":3395:3533   */\n              tag_53\n                /* \"#utility.yul\":3529:3532   */\n              dup3\n                /* \"#utility.yul\":3395:3533   */\n              tag_16\n              jump\t// in\n            tag_53:\n                /* \"#utility.yul\":3558:3560   */\n              0x11\n                /* \"#utility.yul\":3553:3556   */\n              dup3\n                /* \"#utility.yul\":3549:3561   */\n              add\n                /* \"#utility.yul\":3542:3561   */\n              swap2\n              pop\n                /* \"#utility.yul\":3578:3670   */\n              tag_54\n                /* \"#utility.yul\":3666:3669   */\n              dup3\n                /* \"#utility.yul\":3657:3663   */\n              dup5\n                /* \"#utility.yul\":3578:3670   */\n              tag_21\n              jump\t// in\n            tag_54:\n                /* \"#utility.yul\":3571:3670   */\n              swap2\n              pop\n                /* \"#utility.yul\":3687:3690   */\n              dup2\n                /* \"#utility.yul\":3680:3690   */\n              swap1\n              pop\n                /* \"#utility.yul\":3160:3696   */\n              swap3\n              swap2\n              pop\n              pop\n              jump\t// out\n\n            auxdata: 0xa2646970667358221220bb66bfdd7d47e76d14c19116f356c35e8296c35b97c54a786bdaaf956103956464736f6c634300081a0033\n        }\n    }\n\n    auxdata: 0xa2646970667358221220dc90c0f900671d94c227db5ef628650255e16e02feb36dcbd6e44e3e34493c2a64736f6c634300081a0033\n}\n",
				"bytecode": {
					"linkReferences": {},
					"object": "6080604052348015600e575f80fd5b506110028061001c5f395ff3fe608060405234801561000f575f80fd5b506004361061003f575f3560e01c8063476aa75114610043578063e1a26cd814610073578063e21f37ce14610091575b5f80fd5b61005d6004803603810190610058919061043f565b6100af565b60405161006a91906104e6565b60405180910390f35b61007b610254565b60405161008891906104e6565b60405180910390f35b610099610259565b6040516100a691906104e6565b60405180910390f35b6060816040516100be906102e5565b6100c891906104e6565b604051809103905ff0801580156100e1573d5f803e3d5ffd5b505f806101000a81548173ffffffffffffffffffffffffffffffffffffffff021916908373ffffffffffffffffffffffffffffffffffffffff1602179055505f8054906101000a900473ffffffffffffffffffffffffffffffffffffffff1673ffffffffffffffffffffffffffffffffffffffff16635489a2456040518163ffffffff1660e01b81526004015f60405180830381865afa158015610187573d5f803e3d5ffd5b505050506040513d5f823e3d601f19601f820116820180604052508101906101af9190610574565b600190816101bd91906107be565b505f8054906101000a900473ffffffffffffffffffffffffffffffffffffffff1673ffffffffffffffffffffffffffffffffffffffff16635489a2456040518163ffffffff1660e01b81526004015f60405180830381865afa158015610225573d5f803e3d5ffd5b505050506040513d5f823e3d601f19601f8201168201806040525081019061024d9190610574565b9050919050565b606090565b60018054610266906105e8565b80601f0160208091040260200160405190810160405280929190818152602001828054610292906105e8565b80156102dd5780601f106102b4576101008083540402835291602001916102dd565b820191905f5260205f20905b8154815290600101906020018083116102c057829003601f168201915b505050505081565b61073f8061088e83390190565b5f604051905090565b5f80fd5b5f80fd5b5f80fd5b5f80fd5b5f601f19601f8301169050919050565b7f4e487b71000000000000000000000000000000000000000000000000000000005f52604160045260245ffd5b6103518261030b565b810181811067ffffffffffffffff821117156103705761036f61031b565b5b80604052505050565b5f6103826102f2565b905061038e8282610348565b919050565b5f67ffffffffffffffff8211156103ad576103ac61031b565b5b6103b68261030b565b9050602081019050919050565b828183375f83830152505050565b5f6103e36103de84610393565b610379565b9050828152602081018484840111156103ff576103fe610307565b5b61040a8482856103c3565b509392505050565b5f82601f83011261042657610425610303565b5b81356104368482602086016103d1565b91505092915050565b5f60208284031215610454576104536102fb565b5b5f82013567ffffffffffffffff811115610471576104706102ff565b5b61047d84828501610412565b91505092915050565b5f81519050919050565b5f82825260208201905092915050565b8281835e5f83830152505050565b5f6104b882610486565b6104c28185610490565b93506104d28185602086016104a0565b6104db8161030b565b840191505092915050565b5f6020820190508181035f8301526104fe81846104ae565b905092915050565b5f61051861051384610393565b610379565b90508281526020810184848401111561053457610533610307565b5b61053f8482856104a0565b509392505050565b5f82601f83011261055b5761055a610303565b5b815161056b848260208601610506565b91505092915050565b5f60208284031215610589576105886102fb565b5b5f82015167ffffffffffffffff8111156105a6576105a56102ff565b5b6105b284828501610547565b91505092915050565b7f4e487b71000000000000000000000000000000000000000000000000000000005f52602260045260245ffd5b5f60028204905060018216806105ff57607f821691505b602082108103610612576106116105bb565b5b50919050565b5f819050815f5260205f209050919050565b5f6020601f8301049050919050565b5f82821b905092915050565b5f600883026106747fffffffffffffffffffffffffffffffffffffffffffffffffffffffffffffffff82610639565b61067e8683610639565b95508019841693508086168417925050509392505050565b5f819050919050565b5f819050919050565b5f6106c26106bd6106b884610696565b61069f565b610696565b9050919050565b5f819050919050565b6106db836106a8565b6106ef6106e7826106c9565b848454610645565b825550505050565b5f90565b6107036106f7565b61070e8184846106d2565b505050565b5b81811015610731576107265f826106fb565b600181019050610714565b5050565b601f8211156107765761074781610618565b6107508461062a565b8101602085101561075f578190505b61077361076b8561062a565b830182610713565b50505b505050565b5f82821c905092915050565b5f6107965f198460080261077b565b1980831691505092915050565b5f6107ae8383610787565b9150826002028217905092915050565b6107c782610486565b67ffffffffffffffff8111156107e0576107df61031b565b5b6107ea82546105e8565b6107f5828285610735565b5f60209050601f831160018114610826575f8415610814578287015190505b61081e85826107a3565b865550610885565b601f19841661083486610618565b5f5b8281101561085b57848901518255600182019150602085019450602081019050610836565b868310156108785784890151610874601f891682610787565b8355505b6001600288020188555050505b50505050505056fe608060405234801561000f575f80fd5b5060405161073f38038061073f83398181016040528101906100319190610193565b805f908161003f91906103e7565b50506104b6565b5f604051905090565b5f80fd5b5f80fd5b5f80fd5b5f80fd5b5f601f19601f8301169050919050565b7f4e487b71000000000000000000000000000000000000000000000000000000005f52604160045260245ffd5b6100a58261005f565b810181811067ffffffffffffffff821117156100c4576100c361006f565b5b80604052505050565b5f6100d6610046565b90506100e2828261009c565b919050565b5f67ffffffffffffffff8211156101015761010061006f565b5b61010a8261005f565b9050602081019050919050565b8281835e5f83830152505050565b5f610137610132846100e7565b6100cd565b9050828152602081018484840111156101535761015261005b565b5b61015e848285610117565b509392505050565b5f82601f83011261017a57610179610057565b5b815161018a848260208601610125565b91505092915050565b5f602082840312156101a8576101a761004f565b5b5f82015167ffffffffffffffff8111156101c5576101c4610053565b5b6101d184828501610166565b91505092915050565b5f81519050919050565b7f4e487b71000000000000000000000000000000000000000000000000000000005f52602260045260245ffd5b5f600282049050600182168061022857607f821691505b60208210810361023b5761023a6101e4565b5b50919050565b5f819050815f5260205f209050919050565b5f6020601f8301049050919050565b5f82821b905092915050565b5f6008830261029d7fffffffffffffffffffffffffffffffffffffffffffffffffffffffffffffffff82610262565b6102a78683610262565b95508019841693508086168417925050509392505050565b5f819050919050565b5f819050919050565b5f6102eb6102e66102e1846102bf565b6102c8565b6102bf565b9050919050565b5f819050919050565b610304836102d1565b610318610310826102f2565b84845461026e565b825550505050565b5f90565b61032c610320565b6103378184846102fb565b505050565b5b8181101561035a5761034f5f82610324565b60018101905061033d565b5050565b601f82111561039f5761037081610241565b61037984610253565b81016020851015610388578190505b61039c61039485610253565b83018261033c565b50505b505050565b5f82821c905092915050565b5f6103bf5f19846008026103a4565b1980831691505092915050565b5f6103d783836103b0565b9150826002028217905092915050565b6103f0826101da565b67ffffffffffffffff8111156104095761040861006f565b5b6104138254610211565b61041e82828561035e565b5f60209050601f83116001811461044f575f841561043d578287015190505b61044785826103cc565b8655506104ae565b601f19841661045d86610241565b5f5b828110156104845784890151825560018201915060208501945060208101905061045f565b868310156104a1578489015161049d601f8916826103b0565b8355505b6001600288020188555050505b505050505050565b61027c806104c35f395ff3fe608060405234801561000f575f80fd5b5060043610610029575f3560e01c80635489a2451461002d575b5f80fd5b61003561004b565b60405161004291906100e2565b60405180910390f35b60605f60405160200161005e9190610221565b604051602081830303815290604052905090565b5f81519050919050565b5f82825260208201905092915050565b8281835e5f83830152505050565b5f601f19601f8301169050919050565b5f6100b482610072565b6100be818561007c565b93506100ce81856020860161008c565b6100d78161009a565b840191505092915050565b5f6020820190508181035f8301526100fa81846100aa565b905092915050565b7f4e69636520746f206d65657420796f7520000000000000000000000000000000815250565b7f4e487b71000000000000000000000000000000000000000000000000000000005f52602260045260245ffd5b5f600282049050600182168061016c57607f821691505b60208210810361017f5761017e610128565b5b50919050565b5f81905092915050565b5f819050815f5260205f209050919050565b5f81546101ad81610155565b6101b78186610185565b9450600182165f81146101d157600181146101e657610218565b60ff1983168652811515820286019350610218565b6101ef8561018f565b5f5b83811015610210578154818901526001820191506020810190506101f1565b838801955050505b50505092915050565b5f61022b82610102565b60118201915061023b82846101a1565b91508190509291505056fea2646970667358221220bb66bfdd7d47e76d14c19116f356c35e8296c35b97c54a786bdaaf956103956464736f6c634300081a0033a2646970667358221220dc90c0f900671d94c227db5ef628650255e16e02feb36dcbd6e44e3e34493c2a64736f6c634300081a0033",
					"opcodes": "PUSH1 0x80 PUSH1 0x40 MSTORE CALLVALUE DUP1 ISZERO PUSH1 0xE JUMPI PUSH0 DUP1 REVERT JUMPDEST POP PUSH2 0x1002 DUP1 PUSH2 0x1C PUSH0 CODECOPY PUSH0 RETURN INVALID PUSH1 0x80 PUSH1 0x40 MSTORE CALLVALUE DUP1 ISZERO PUSH2 0xF JUMPI PUSH0 DUP1 REVERT JUMPDEST POP PUSH1 0x4 CALLDATASIZE LT PUSH2 0x3F JUMPI PUSH0 CALLDATALOAD PUSH1 0xE0 SHR DUP1 PUSH4 0x476AA751 EQ PUSH2 0x43 JUMPI DUP1 PUSH4 0xE1A26CD8 EQ PUSH2 0x73 JUMPI DUP1 PUSH4 0xE21F37CE EQ PUSH2 0x91 JUMPI JUMPDEST PUSH0 DUP1 REVERT JUMPDEST PUSH2 0x5D PUSH1 0x4 DUP1 CALLDATASIZE SUB DUP2 ADD SWAP1 PUSH2 0x58 SWAP2 SWAP1 PUSH2 0x43F JUMP JUMPDEST PUSH2 0xAF JUMP JUMPDEST PUSH1 0x40 MLOAD PUSH2 0x6A SWAP2 SWAP1 PUSH2 0x4E6 JUMP JUMPDEST PUSH1 0x40 MLOAD DUP1 SWAP2 SUB SWAP1 RETURN JUMPDEST PUSH2 0x7B PUSH2 0x254 JUMP JUMPDEST PUSH1 0x40 MLOAD PUSH2 0x88 SWAP2 SWAP1 PUSH2 0x4E6 JUMP JUMPDEST PUSH1 0x40 MLOAD DUP1 SWAP2 SUB SWAP1 RETURN JUMPDEST PUSH2 0x99 PUSH2 0x259 JUMP JUMPDEST PUSH1 0x40 MLOAD PUSH2 0xA6 SWAP2 SWAP1 PUSH2 0x4E6 JUMP JUMPDEST PUSH1 0x40 MLOAD DUP1 SWAP2 SUB SWAP1 RETURN JUMPDEST PUSH1 0x60 DUP2 PUSH1 0x40 MLOAD PUSH2 0xBE SWAP1 PUSH2 0x2E5 JUMP JUMPDEST PUSH2 0xC8 SWAP2 SWAP1 PUSH2 0x4E6 JUMP JUMPDEST PUSH1 0x40 MLOAD DUP1 SWAP2 SUB SWAP1 PUSH0 CREATE DUP1 ISZERO DUP1 ISZERO PUSH2 0xE1 JUMPI RETURNDATASIZE PUSH0 DUP1 RETURNDATACOPY RETURNDATASIZE PUSH0 REVERT JUMPDEST POP PUSH0 DUP1 PUSH2 0x100 EXP DUP2 SLOAD DUP2 PUSH20 0xFFFFFFFFFFFFFFFFFFFFFFFFFFFFFFFFFFFFFFFF MUL NOT AND SWAP1 DUP4 PUSH20 0xFFFFFFFFFFFFFFFFFFFFFFFFFFFFFFFFFFFFFFFF AND MUL OR SWAP1 SSTORE POP PUSH0 DUP1 SLOAD SWAP1 PUSH2 0x100 EXP SWAP1 DIV PUSH20 0xFFFFFFFFFFFFFFFFFFFFFFFFFFFFFFFFFFFFFFFF AND PUSH20 0xFFFFFFFFFFFFFFFFFFFFFFFFFFFFFFFFFFFFFFFF AND PUSH4 0x5489A245 PUSH1 0x40 MLOAD DUP2 PUSH4 0xFFFFFFFF AND PUSH1 0xE0 SHL DUP2 MSTORE PUSH1 0x4 ADD PUSH0 PUSH1 0x40 MLOAD DUP1 DUP4 SUB DUP2 DUP7 GAS STATICCALL ISZERO DUP1 ISZERO PUSH2 0x187 JUMPI RETURNDATASIZE PUSH0 DUP1 RETURNDATACOPY RETURNDATASIZE PUSH0 REVERT JUMPDEST POP POP POP POP PUSH1 0x40 MLOAD RETURNDATASIZE PUSH0 DUP3 RETURNDATACOPY RETURNDATASIZE PUSH1 0x1F NOT PUSH1 0x1F DUP3 ADD AND DUP3 ADD DUP1 PUSH1 0x40 MSTORE POP DUP2 ADD SWAP1 PUSH2 0x1AF SWAP2 SWAP1 PUSH2 0x574 JUMP JUMPDEST PUSH1 0x1 SWAP1 DUP2 PUSH2 0x1BD SWAP2 SWAP1 PUSH2 0x7BE JUMP JUMPDEST POP PUSH0 DUP1 SLOAD SWAP1 PUSH2 0x100 EXP SWAP1 DIV PUSH20 0xFFFFFFFFFFFFFFFFFFFFFFFFFFFFFFFFFFFFFFFF AND PUSH20 0xFFFFFFFFFFFFFFFFFFFFFFFFFFFFFFFFFFFFFFFF AND PUSH4 0x5489A245 PUSH1 0x40 MLOAD DUP2 PUSH4 0xFFFFFFFF AND PUSH1 0xE0 SHL DUP2 MSTORE PUSH1 0x4 ADD PUSH0 PUSH1 0x40 MLOAD DUP1 DUP4 SUB DUP2 DUP7 GAS STATICCALL ISZERO DUP1 ISZERO PUSH2 0x225 JUMPI RETURNDATASIZE PUSH0 DUP1 RETURNDATACOPY RETURNDATASIZE PUSH0 REVERT JUMPDEST POP POP POP POP PUSH1 0x40 MLOAD RETURNDATASIZE PUSH0 DUP3 RETURNDATACOPY RETURNDATASIZE PUSH1 0x1F NOT PUSH1 0x1F DUP3 ADD AND DUP3 ADD DUP1 PUSH1 0x40 MSTORE POP DUP2 ADD SWAP1 PUSH2 0x24D SWAP2 SWAP1 PUSH2 0x574 JUMP JUMPDEST SWAP1 POP SWAP2 SWAP1 POP JUMP JUMPDEST PUSH1 0x60 SWAP1 JUMP JUMPDEST PUSH1 0x1 DUP1 SLOAD PUSH2 0x266 SWAP1 PUSH2 0x5E8 JUMP JUMPDEST DUP1 PUSH1 0x1F ADD PUSH1 0x20 DUP1 SWAP2 DIV MUL PUSH1 0x20 ADD PUSH1 0x40 MLOAD SWAP1 DUP2 ADD PUSH1 0x40 MSTORE DUP1 SWAP3 SWAP2 SWAP1 DUP2 DUP2 MSTORE PUSH1 0x20 ADD DUP3 DUP1 SLOAD PUSH2 0x292 SWAP1 PUSH2 0x5E8 JUMP JUMPDEST DUP1 ISZERO PUSH2 0x2DD JUMPI DUP1 PUSH1 0x1F LT PUSH2 0x2B4 JUMPI PUSH2 0x100 DUP1 DUP4 SLOAD DIV MUL DUP4 MSTORE SWAP2 PUSH1 0x20 ADD SWAP2 PUSH2 0x2DD JUMP JUMPDEST DUP3 ADD SWAP2 SWAP1 PUSH0 MSTORE PUSH1 0x20 PUSH0 KECCAK256 SWAP1 JUMPDEST DUP2 SLOAD DUP2 MSTORE SWAP1 PUSH1 0x1 ADD SWAP1 PUSH1 0x20 ADD DUP1 DUP4 GT PUSH2 0x2C0 JUMPI DUP3 SWAP1 SUB PUSH1 0x1F AND DUP3 ADD SWAP2 JUMPDEST POP POP POP POP POP DUP2 JUMP JUMPDEST PUSH2 0x73F DUP1 PUSH2 0x88E DUP4 CODECOPY ADD SWAP1 JUMP JUMPDEST PUSH0 PUSH1 0x40 MLOAD SWAP1 POP SWAP1 JUMP JUMPDEST PUSH0 DUP1 REVERT JUMPDEST PUSH0 DUP1 REVERT JUMPDEST PUSH0 DUP1 REVERT JUMPDEST PUSH0 DUP1 REVERT JUMPDEST PUSH0 PUSH1 0x1F NOT PUSH1 0x1F DUP4 ADD AND SWAP1 POP SWAP2 SWAP1 POP JUMP JUMPDEST PUSH32 0x4E487B7100000000000000000000000000000000000000000000000000000000 PUSH0 MSTORE PUSH1 0x41 PUSH1 0x4 MSTORE PUSH1 0x24 PUSH0 REVERT JUMPDEST PUSH2 0x351 DUP3 PUSH2 0x30B JUMP JUMPDEST DUP2 ADD DUP2 DUP2 LT PUSH8 0xFFFFFFFFFFFFFFFF DUP3 GT OR ISZERO PUSH2 0x370 JUMPI PUSH2 0x36F PUSH2 0x31B JUMP JUMPDEST JUMPDEST DUP1 PUSH1 0x40 MSTORE POP POP POP JUMP JUMPDEST PUSH0 PUSH2 0x382 PUSH2 0x2F2 JUMP JUMPDEST SWAP1 POP PUSH2 0x38E DUP3 DUP3 PUSH2 0x348 JUMP JUMPDEST SWAP2 SWAP1 POP JUMP JUMPDEST PUSH0 PUSH8 0xFFFFFFFFFFFFFFFF DUP3 GT ISZERO PUSH2 0x3AD JUMPI PUSH2 0x3AC PUSH2 0x31B JUMP JUMPDEST JUMPDEST PUSH2 0x3B6 DUP3 PUSH2 0x30B JUMP JUMPDEST SWAP1 POP PUSH1 0x20 DUP2 ADD SWAP1 POP SWAP2 SWAP1 POP JUMP JUMPDEST DUP3 DUP2 DUP4 CALLDATACOPY PUSH0 DUP4 DUP4 ADD MSTORE POP POP POP JUMP JUMPDEST PUSH0 PUSH2 0x3E3 PUSH2 0x3DE DUP5 PUSH2 0x393 JUMP JUMPDEST PUSH2 0x379 JUMP JUMPDEST SWAP1 POP DUP3 DUP2 MSTORE PUSH1 0x20 DUP2 ADD DUP5 DUP5 DUP5 ADD GT ISZERO PUSH2 0x3FF JUMPI PUSH2 0x3FE PUSH2 0x307 JUMP JUMPDEST JUMPDEST PUSH2 0x40A DUP5 DUP3 DUP6 PUSH2 0x3C3 JUMP JUMPDEST POP SWAP4 SWAP3 POP POP POP JUMP JUMPDEST PUSH0 DUP3 PUSH1 0x1F DUP4 ADD SLT PUSH2 0x426 JUMPI PUSH2 0x425 PUSH2 0x303 JUMP JUMPDEST JUMPDEST DUP2 CALLDATALOAD PUSH2 0x436 DUP5 DUP3 PUSH1 0x20 DUP7 ADD PUSH2 0x3D1 JUMP JUMPDEST SWAP2 POP POP SWAP3 SWAP2 POP POP JUMP JUMPDEST PUSH0 PUSH1 0x20 DUP3 DUP5 SUB SLT ISZERO PUSH2 0x454 JUMPI PUSH2 0x453 PUSH2 0x2FB JUMP JUMPDEST JUMPDEST PUSH0 DUP3 ADD CALLDATALOAD PUSH8 0xFFFFFFFFFFFFFFFF DUP2 GT ISZERO PUSH2 0x471 JUMPI PUSH2 0x470 PUSH2 0x2FF JUMP JUMPDEST JUMPDEST PUSH2 0x47D DUP5 DUP3 DUP6 ADD PUSH2 0x412 JUMP JUMPDEST SWAP2 POP POP SWAP3 SWAP2 POP POP JUMP JUMPDEST PUSH0 DUP2 MLOAD SWAP1 POP SWAP2 SWAP1 POP JUMP JUMPDEST PUSH0 DUP3 DUP3 MSTORE PUSH1 0x20 DUP3 ADD SWAP1 POP SWAP3 SWAP2 POP POP JUMP JUMPDEST DUP3 DUP2 DUP4 MCOPY PUSH0 DUP4 DUP4 ADD MSTORE POP POP POP JUMP JUMPDEST PUSH0 PUSH2 0x4B8 DUP3 PUSH2 0x486 JUMP JUMPDEST PUSH2 0x4C2 DUP2 DUP6 PUSH2 0x490 JUMP JUMPDEST SWAP4 POP PUSH2 0x4D2 DUP2 DUP6 PUSH1 0x20 DUP7 ADD PUSH2 0x4A0 JUMP JUMPDEST PUSH2 0x4DB DUP2 PUSH2 0x30B JUMP JUMPDEST DUP5 ADD SWAP2 POP POP SWAP3 SWAP2 POP POP JUMP JUMPDEST PUSH0 PUSH1 0x20 DUP3 ADD SWAP1 POP DUP2 DUP2 SUB PUSH0 DUP4 ADD MSTORE PUSH2 0x4FE DUP2 DUP5 PUSH2 0x4AE JUMP JUMPDEST SWAP1 POP SWAP3 SWAP2 POP POP JUMP JUMPDEST PUSH0 PUSH2 0x518 PUSH2 0x513 DUP5 PUSH2 0x393 JUMP JUMPDEST PUSH2 0x379 JUMP JUMPDEST SWAP1 POP DUP3 DUP2 MSTORE PUSH1 0x20 DUP2 ADD DUP5 DUP5 DUP5 ADD GT ISZERO PUSH2 0x534 JUMPI PUSH2 0x533 PUSH2 0x307 JUMP JUMPDEST JUMPDEST PUSH2 0x53F DUP5 DUP3 DUP6 PUSH2 0x4A0 JUMP JUMPDEST POP SWAP4 SWAP3 POP POP POP JUMP JUMPDEST PUSH0 DUP3 PUSH1 0x1F DUP4 ADD SLT PUSH2 0x55B JUMPI PUSH2 0x55A PUSH2 0x303 JUMP JUMPDEST JUMPDEST DUP2 MLOAD PUSH2 0x56B DUP5 DUP3 PUSH1 0x20 DUP7 ADD PUSH2 0x506 JUMP JUMPDEST SWAP2 POP POP SWAP3 SWAP2 POP POP JUMP JUMPDEST PUSH0 PUSH1 0x20 DUP3 DUP5 SUB SLT ISZERO PUSH2 0x589 JUMPI PUSH2 0x588 PUSH2 0x2FB JUMP JUMPDEST JUMPDEST PUSH0 DUP3 ADD MLOAD PUSH8 0xFFFFFFFFFFFFFFFF DUP2 GT ISZERO PUSH2 0x5A6 JUMPI PUSH2 0x5A5 PUSH2 0x2FF JUMP JUMPDEST JUMPDEST PUSH2 0x5B2 DUP5 DUP3 DUP6 ADD PUSH2 0x547 JUMP JUMPDEST SWAP2 POP POP SWAP3 SWAP2 POP POP JUMP JUMPDEST PUSH32 0x4E487B7100000000000000000000000000000000000000000000000000000000 PUSH0 MSTORE PUSH1 0x22 PUSH1 0x4 MSTORE PUSH1 0x24 PUSH0 REVERT JUMPDEST PUSH0 PUSH1 0x2 DUP3 DIV SWAP1 POP PUSH1 0x1 DUP3 AND DUP1 PUSH2 0x5FF JUMPI PUSH1 0x7F DUP3 AND SWAP2 POP JUMPDEST PUSH1 0x20 DUP3 LT DUP2 SUB PUSH2 0x612 JUMPI PUSH2 0x611 PUSH2 0x5BB JUMP JUMPDEST JUMPDEST POP SWAP2 SWAP1 POP JUMP JUMPDEST PUSH0 DUP2 SWAP1 POP DUP2 PUSH0 MSTORE PUSH1 0x20 PUSH0 KECCAK256 SWAP1 POP SWAP2 SWAP1 POP JUMP JUMPDEST PUSH0 PUSH1 0x20 PUSH1 0x1F DUP4 ADD DIV SWAP1 POP SWAP2 SWAP1 POP JUMP JUMPDEST PUSH0 DUP3 DUP3 SHL SWAP1 POP SWAP3 SWAP2 POP POP JUMP JUMPDEST PUSH0 PUSH1 0x8 DUP4 MUL PUSH2 0x674 PUSH32 0xFFFFFFFFFFFFFFFFFFFFFFFFFFFFFFFFFFFFFFFFFFFFFFFFFFFFFFFFFFFFFFFF DUP3 PUSH2 0x639 JUMP JUMPDEST PUSH2 0x67E DUP7 DUP4 PUSH2 0x639 JUMP JUMPDEST SWAP6 POP DUP1 NOT DUP5 AND SWAP4 POP DUP1 DUP7 AND DUP5 OR SWAP3 POP POP POP SWAP4 SWAP3 POP POP POP JUMP JUMPDEST PUSH0 DUP2 SWAP1 POP SWAP2 SWAP1 POP JUMP JUMPDEST PUSH0 DUP2 SWAP1 POP SWAP2 SWAP1 POP JUMP JUMPDEST PUSH0 PUSH2 0x6C2 PUSH2 0x6BD PUSH2 0x6B8 DUP5 PUSH2 0x696 JUMP JUMPDEST PUSH2 0x69F JUMP JUMPDEST PUSH2 0x696 JUMP JUMPDEST SWAP1 POP SWAP2 SWAP1 POP JUMP JUMPDEST PUSH0 DUP2 SWAP1 POP SWAP2 SWAP1 POP JUMP JUMPDEST PUSH2 0x6DB DUP4 PUSH2 0x6A8 JUMP JUMPDEST PUSH2 0x6EF PUSH2 0x6E7 DUP3 PUSH2 0x6C9 JUMP JUMPDEST DUP5 DUP5 SLOAD PUSH2 0x645 JUMP JUMPDEST DUP3 SSTORE POP POP POP POP JUMP JUMPDEST PUSH0 SWAP1 JUMP JUMPDEST PUSH2 0x703 PUSH2 0x6F7 JUMP JUMPDEST PUSH2 0x70E DUP2 DUP5 DUP5 PUSH2 0x6D2 JUMP JUMPDEST POP POP POP JUMP JUMPDEST JUMPDEST DUP2 DUP2 LT ISZERO PUSH2 0x731 JUMPI PUSH2 0x726 PUSH0 DUP3 PUSH2 0x6FB JUMP JUMPDEST PUSH1 0x1 DUP2 ADD SWAP1 POP PUSH2 0x714 JUMP JUMPDEST POP POP JUMP JUMPDEST PUSH1 0x1F DUP3 GT ISZERO PUSH2 0x776 JUMPI PUSH2 0x747 DUP2 PUSH2 0x618 JUMP JUMPDEST PUSH2 0x750 DUP5 PUSH2 0x62A JUMP JUMPDEST DUP2 ADD PUSH1 0x20 DUP6 LT ISZERO PUSH2 0x75F JUMPI DUP2 SWAP1 POP JUMPDEST PUSH2 0x773 PUSH2 0x76B DUP6 PUSH2 0x62A JUMP JUMPDEST DUP4 ADD DUP3 PUSH2 0x713 JUMP JUMPDEST POP POP JUMPDEST POP POP POP JUMP JUMPDEST PUSH0 DUP3 DUP3 SHR SWAP1 POP SWAP3 SWAP2 POP POP JUMP JUMPDEST PUSH0 PUSH2 0x796 PUSH0 NOT DUP5 PUSH1 0x8 MUL PUSH2 0x77B JUMP JUMPDEST NOT DUP1 DUP4 AND SWAP2 POP POP SWAP3 SWAP2 POP POP JUMP JUMPDEST PUSH0 PUSH2 0x7AE DUP4 DUP4 PUSH2 0x787 JUMP JUMPDEST SWAP2 POP DUP3 PUSH1 0x2 MUL DUP3 OR SWAP1 POP SWAP3 SWAP2 POP POP JUMP JUMPDEST PUSH2 0x7C7 DUP3 PUSH2 0x486 JUMP JUMPDEST PUSH8 0xFFFFFFFFFFFFFFFF DUP2 GT ISZERO PUSH2 0x7E0 JUMPI PUSH2 0x7DF PUSH2 0x31B JUMP JUMPDEST JUMPDEST PUSH2 0x7EA DUP3 SLOAD PUSH2 0x5E8 JUMP JUMPDEST PUSH2 0x7F5 DUP3 DUP3 DUP6 PUSH2 0x735 JUMP JUMPDEST PUSH0 PUSH1 0x20 SWAP1 POP PUSH1 0x1F DUP4 GT PUSH1 0x1 DUP2 EQ PUSH2 0x826 JUMPI PUSH0 DUP5 ISZERO PUSH2 0x814 JUMPI DUP3 DUP8 ADD MLOAD SWAP1 POP JUMPDEST PUSH2 0x81E DUP6 DUP3 PUSH2 0x7A3 JUMP JUMPDEST DUP7 SSTORE POP PUSH2 0x885 JUMP JUMPDEST PUSH1 0x1F NOT DUP5 AND PUSH2 0x834 DUP7 PUSH2 0x618 JUMP JUMPDEST PUSH0 JUMPDEST DUP3 DUP2 LT ISZERO PUSH2 0x85B JUMPI DUP5 DUP10 ADD MLOAD DUP3 SSTORE PUSH1 0x1 DUP3 ADD SWAP2 POP PUSH1 0x20 DUP6 ADD SWAP5 POP PUSH1 0x20 DUP2 ADD SWAP1 POP PUSH2 0x836 JUMP JUMPDEST DUP7 DUP4 LT ISZERO PUSH2 0x878 JUMPI DUP5 DUP10 ADD MLOAD PUSH2 0x874 PUSH1 0x1F DUP10 AND DUP3 PUSH2 0x787 JUMP JUMPDEST DUP4 SSTORE POP JUMPDEST PUSH1 0x1 PUSH1 0x2 DUP9 MUL ADD DUP9 SSTORE POP POP POP JUMPDEST POP POP POP POP POP POP JUMP INVALID PUSH1 0x80 PUSH1 0x40 MSTORE CALLVALUE DUP1 ISZERO PUSH2 0xF JUMPI PUSH0 DUP1 REVERT JUMPDEST POP PUSH1 0x40 MLOAD PUSH2 0x73F CODESIZE SUB DUP1 PUSH2 0x73F DUP4 CODECOPY DUP2 DUP2 ADD PUSH1 0x40 MSTORE DUP2 ADD SWAP1 PUSH2 0x31 SWAP2 SWAP1 PUSH2 0x193 JUMP JUMPDEST DUP1 PUSH0 SWAP1 DUP2 PUSH2 0x3F SWAP2 SWAP1 PUSH2 0x3E7 JUMP JUMPDEST POP POP PUSH2 0x4B6 JUMP JUMPDEST PUSH0 PUSH1 0x40 MLOAD SWAP1 POP SWAP1 JUMP JUMPDEST PUSH0 DUP1 REVERT JUMPDEST PUSH0 DUP1 REVERT JUMPDEST PUSH0 DUP1 REVERT JUMPDEST PUSH0 DUP1 REVERT JUMPDEST PUSH0 PUSH1 0x1F NOT PUSH1 0x1F DUP4 ADD AND SWAP1 POP SWAP2 SWAP1 POP JUMP JUMPDEST PUSH32 0x4E487B7100000000000000000000000000000000000000000000000000000000 PUSH0 MSTORE PUSH1 0x41 PUSH1 0x4 MSTORE PUSH1 0x24 PUSH0 REVERT JUMPDEST PUSH2 0xA5 DUP3 PUSH2 0x5F JUMP JUMPDEST DUP2 ADD DUP2 DUP2 LT PUSH8 0xFFFFFFFFFFFFFFFF DUP3 GT OR ISZERO PUSH2 0xC4 JUMPI PUSH2 0xC3 PUSH2 0x6F JUMP JUMPDEST JUMPDEST DUP1 PUSH1 0x40 MSTORE POP POP POP JUMP JUMPDEST PUSH0 PUSH2 0xD6 PUSH2 0x46 JUMP JUMPDEST SWAP1 POP PUSH2 0xE2 DUP3 DUP3 PUSH2 0x9C JUMP JUMPDEST SWAP2 SWAP1 POP JUMP JUMPDEST PUSH0 PUSH8 0xFFFFFFFFFFFFFFFF DUP3 GT ISZERO PUSH2 0x101 JUMPI PUSH2 0x100 PUSH2 0x6F JUMP JUMPDEST JUMPDEST PUSH2 0x10A DUP3 PUSH2 0x5F JUMP JUMPDEST SWAP1 POP PUSH1 0x20 DUP2 ADD SWAP1 POP SWAP2 SWAP1 POP JUMP JUMPDEST DUP3 DUP2 DUP4 MCOPY PUSH0 DUP4 DUP4 ADD MSTORE POP POP POP JUMP JUMPDEST PUSH0 PUSH2 0x137 PUSH2 0x132 DUP5 PUSH2 0xE7 JUMP JUMPDEST PUSH2 0xCD JUMP JUMPDEST SWAP1 POP DUP3 DUP2 MSTORE PUSH1 0x20 DUP2 ADD DUP5 DUP5 DUP5 ADD GT ISZERO PUSH2 0x153 JUMPI PUSH2 0x152 PUSH2 0x5B JUMP JUMPDEST JUMPDEST PUSH2 0x15E DUP5 DUP3 DUP6 PUSH2 0x117 JUMP JUMPDEST POP SWAP4 SWAP3 POP POP POP JUMP JUMPDEST PUSH0 DUP3 PUSH1 0x1F DUP4 ADD SLT PUSH2 0x17A JUMPI PUSH2 0x179 PUSH2 0x57 JUMP JUMPDEST JUMPDEST DUP2 MLOAD PUSH2 0x18A DUP5 DUP3 PUSH1 0x20 DUP7 ADD PUSH2 0x125 JUMP JUMPDEST SWAP2 POP POP SWAP3 SWAP2 POP POP JUMP JUMPDEST PUSH0 PUSH1 0x20 DUP3 DUP5 SUB SLT ISZERO PUSH2 0x1A8 JUMPI PUSH2 0x1A7 PUSH2 0x4F JUMP JUMPDEST JUMPDEST PUSH0 DUP3 ADD MLOAD PUSH8 0xFFFFFFFFFFFFFFFF DUP2 GT ISZERO PUSH2 0x1C5 JUMPI PUSH2 0x1C4 PUSH2 0x53 JUMP JUMPDEST JUMPDEST PUSH2 0x1D1 DUP5 DUP3 DUP6 ADD PUSH2 0x166 JUMP JUMPDEST SWAP2 POP POP SWAP3 SWAP2 POP POP JUMP JUMPDEST PUSH0 DUP2 MLOAD SWAP1 POP SWAP2 SWAP1 POP JUMP JUMPDEST PUSH32 0x4E487B7100000000000000000000000000000000000000000000000000000000 PUSH0 MSTORE PUSH1 0x22 PUSH1 0x4 MSTORE PUSH1 0x24 PUSH0 REVERT JUMPDEST PUSH0 PUSH1 0x2 DUP3 DIV SWAP1 POP PUSH1 0x1 DUP3 AND DUP1 PUSH2 0x228 JUMPI PUSH1 0x7F DUP3 AND SWAP2 POP JUMPDEST PUSH1 0x20 DUP3 LT DUP2 SUB PUSH2 0x23B JUMPI PUSH2 0x23A PUSH2 0x1E4 JUMP JUMPDEST JUMPDEST POP SWAP2 SWAP1 POP JUMP JUMPDEST PUSH0 DUP2 SWAP1 POP DUP2 PUSH0 MSTORE PUSH1 0x20 PUSH0 KECCAK256 SWAP1 POP SWAP2 SWAP1 POP JUMP JUMPDEST PUSH0 PUSH1 0x20 PUSH1 0x1F DUP4 ADD DIV SWAP1 POP SWAP2 SWAP1 POP JUMP JUMPDEST PUSH0 DUP3 DUP3 SHL SWAP1 POP SWAP3 SWAP2 POP POP JUMP JUMPDEST PUSH0 PUSH1 0x8 DUP4 MUL PUSH2 0x29D PUSH32 0xFFFFFFFFFFFFFFFFFFFFFFFFFFFFFFFFFFFFFFFFFFFFFFFFFFFFFFFFFFFFFFFF DUP3 PUSH2 0x262 JUMP JUMPDEST PUSH2 0x2A7 DUP7 DUP4 PUSH2 0x262 JUMP JUMPDEST SWAP6 POP DUP1 NOT DUP5 AND SWAP4 POP DUP1 DUP7 AND DUP5 OR SWAP3 POP POP POP SWAP4 SWAP3 POP POP POP JUMP JUMPDEST PUSH0 DUP2 SWAP1 POP SWAP2 SWAP1 POP JUMP JUMPDEST PUSH0 DUP2 SWAP1 POP SWAP2 SWAP1 POP JUMP JUMPDEST PUSH0 PUSH2 0x2EB PUSH2 0x2E6 PUSH2 0x2E1 DUP5 PUSH2 0x2BF JUMP JUMPDEST PUSH2 0x2C8 JUMP JUMPDEST PUSH2 0x2BF JUMP JUMPDEST SWAP1 POP SWAP2 SWAP1 POP JUMP JUMPDEST PUSH0 DUP2 SWAP1 POP SWAP2 SWAP1 POP JUMP JUMPDEST PUSH2 0x304 DUP4 PUSH2 0x2D1 JUMP JUMPDEST PUSH2 0x318 PUSH2 0x310 DUP3 PUSH2 0x2F2 JUMP JUMPDEST DUP5 DUP5 SLOAD PUSH2 0x26E JUMP JUMPDEST DUP3 SSTORE POP POP POP POP JUMP JUMPDEST PUSH0 SWAP1 JUMP JUMPDEST PUSH2 0x32C PUSH2 0x320 JUMP JUMPDEST PUSH2 0x337 DUP2 DUP5 DUP5 PUSH2 0x2FB JUMP JUMPDEST POP POP POP JUMP JUMPDEST JUMPDEST DUP2 DUP2 LT ISZERO PUSH2 0x35A JUMPI PUSH2 0x34F PUSH0 DUP3 PUSH2 0x324 JUMP JUMPDEST PUSH1 0x1 DUP2 ADD SWAP1 POP PUSH2 0x33D JUMP JUMPDEST POP POP JUMP JUMPDEST PUSH1 0x1F DUP3 GT ISZERO PUSH2 0x39F JUMPI PUSH2 0x370 DUP2 PUSH2 0x241 JUMP JUMPDEST PUSH2 0x379 DUP5 PUSH2 0x253 JUMP JUMPDEST DUP2 ADD PUSH1 0x20 DUP6 LT ISZERO PUSH2 0x388 JUMPI DUP2 SWAP1 POP JUMPDEST PUSH2 0x39C PUSH2 0x394 DUP6 PUSH2 0x253 JUMP JUMPDEST DUP4 ADD DUP3 PUSH2 0x33C JUMP JUMPDEST POP POP JUMPDEST POP POP POP JUMP JUMPDEST PUSH0 DUP3 DUP3 SHR SWAP1 POP SWAP3 SWAP2 POP POP JUMP JUMPDEST PUSH0 PUSH2 0x3BF PUSH0 NOT DUP5 PUSH1 0x8 MUL PUSH2 0x3A4 JUMP JUMPDEST NOT DUP1 DUP4 AND SWAP2 POP POP SWAP3 SWAP2 POP POP JUMP JUMPDEST PUSH0 PUSH2 0x3D7 DUP4 DUP4 PUSH2 0x3B0 JUMP JUMPDEST SWAP2 POP DUP3 PUSH1 0x2 MUL DUP3 OR SWAP1 POP SWAP3 SWAP2 POP POP JUMP JUMPDEST PUSH2 0x3F0 DUP3 PUSH2 0x1DA JUMP JUMPDEST PUSH8 0xFFFFFFFFFFFFFFFF DUP2 GT ISZERO PUSH2 0x409 JUMPI PUSH2 0x408 PUSH2 0x6F JUMP JUMPDEST JUMPDEST PUSH2 0x413 DUP3 SLOAD PUSH2 0x211 JUMP JUMPDEST PUSH2 0x41E DUP3 DUP3 DUP6 PUSH2 0x35E JUMP JUMPDEST PUSH0 PUSH1 0x20 SWAP1 POP PUSH1 0x1F DUP4 GT PUSH1 0x1 DUP2 EQ PUSH2 0x44F JUMPI PUSH0 DUP5 ISZERO PUSH2 0x43D JUMPI DUP3 DUP8 ADD MLOAD SWAP1 POP JUMPDEST PUSH2 0x447 DUP6 DUP3 PUSH2 0x3CC JUMP JUMPDEST DUP7 SSTORE POP PUSH2 0x4AE JUMP JUMPDEST PUSH1 0x1F NOT DUP5 AND PUSH2 0x45D DUP7 PUSH2 0x241 JUMP JUMPDEST PUSH0 JUMPDEST DUP3 DUP2 LT ISZERO PUSH2 0x484 JUMPI DUP5 DUP10 ADD MLOAD DUP3 SSTORE PUSH1 0x1 DUP3 ADD SWAP2 POP PUSH1 0x20 DUP6 ADD SWAP5 POP PUSH1 0x20 DUP2 ADD SWAP1 POP PUSH2 0x45F JUMP JUMPDEST DUP7 DUP4 LT ISZERO PUSH2 0x4A1 JUMPI DUP5 DUP10 ADD MLOAD PUSH2 0x49D PUSH1 0x1F DUP10 AND DUP3 PUSH2 0x3B0 JUMP JUMPDEST DUP4 SSTORE POP JUMPDEST PUSH1 0x1 PUSH1 0x2 DUP9 MUL ADD DUP9 SSTORE POP POP POP JUMPDEST POP POP POP POP POP POP JUMP JUMPDEST PUSH2 0x27C DUP1 PUSH2 0x4C3 PUSH0 CODECOPY PUSH0 RETURN INVALID PUSH1 0x80 PUSH1 0x40 MSTORE CALLVALUE DUP1 ISZERO PUSH2 0xF JUMPI PUSH0 DUP1 REVERT JUMPDEST POP PUSH1 0x4 CALLDATASIZE LT PUSH2 0x29 JUMPI PUSH0 CALLDATALOAD PUSH1 0xE0 SHR DUP1 PUSH4 0x5489A245 EQ PUSH2 0x2D JUMPI JUMPDEST PUSH0 DUP1 REVERT JUMPDEST PUSH2 0x35 PUSH2 0x4B JUMP JUMPDEST PUSH1 0x40 MLOAD PUSH2 0x42 SWAP2 SWAP1 PUSH2 0xE2 JUMP JUMPDEST PUSH1 0x40 MLOAD DUP1 SWAP2 SUB SWAP1 RETURN JUMPDEST PUSH1 0x60 PUSH0 PUSH1 0x40 MLOAD PUSH1 0x20 ADD PUSH2 0x5E SWAP2 SWAP1 PUSH2 0x221 JUMP JUMPDEST PUSH1 0x40 MLOAD PUSH1 0x20 DUP2 DUP4 SUB SUB DUP2 MSTORE SWAP1 PUSH1 0x40 MSTORE SWAP1 POP SWAP1 JUMP JUMPDEST PUSH0 DUP2 MLOAD SWAP1 POP SWAP2 SWAP1 POP JUMP JUMPDEST PUSH0 DUP3 DUP3 MSTORE PUSH1 0x20 DUP3 ADD SWAP1 POP SWAP3 SWAP2 POP POP JUMP JUMPDEST DUP3 DUP2 DUP4 MCOPY PUSH0 DUP4 DUP4 ADD MSTORE POP POP POP JUMP JUMPDEST PUSH0 PUSH1 0x1F NOT PUSH1 0x1F DUP4 ADD AND SWAP1 POP SWAP2 SWAP1 POP JUMP JUMPDEST PUSH0 PUSH2 0xB4 DUP3 PUSH2 0x72 JUMP JUMPDEST PUSH2 0xBE DUP2 DUP6 PUSH2 0x7C JUMP JUMPDEST SWAP4 POP PUSH2 0xCE DUP2 DUP6 PUSH1 0x20 DUP7 ADD PUSH2 0x8C JUMP JUMPDEST PUSH2 0xD7 DUP2 PUSH2 0x9A JUMP JUMPDEST DUP5 ADD SWAP2 POP POP SWAP3 SWAP2 POP POP JUMP JUMPDEST PUSH0 PUSH1 0x20 DUP3 ADD SWAP1 POP DUP2 DUP2 SUB PUSH0 DUP4 ADD MSTORE PUSH2 0xFA DUP2 DUP5 PUSH2 0xAA JUMP JUMPDEST SWAP1 POP SWAP3 SWAP2 POP POP JUMP JUMPDEST PUSH32 0x4E69636520746F206D65657420796F7520000000000000000000000000000000 DUP2 MSTORE POP JUMP JUMPDEST PUSH32 0x4E487B7100000000000000000000000000000000000000000000000000000000 PUSH0 MSTORE PUSH1 0x22 PUSH1 0x4 MSTORE PUSH1 0x24 PUSH0 REVERT JUMPDEST PUSH0 PUSH1 0x2 DUP3 DIV SWAP1 POP PUSH1 0x1 DUP3 AND DUP1 PUSH2 0x16C JUMPI PUSH1 0x7F DUP3 AND SWAP2 POP JUMPDEST PUSH1 0x20 DUP3 LT DUP2 SUB PUSH2 0x17F JUMPI PUSH2 0x17E PUSH2 0x128 JUMP JUMPDEST JUMPDEST POP SWAP2 SWAP1 POP JUMP JUMPDEST PUSH0 DUP2 SWAP1 POP SWAP3 SWAP2 POP POP JUMP JUMPDEST PUSH0 DUP2 SWAP1 POP DUP2 PUSH0 MSTORE PUSH1 0x20 PUSH0 KECCAK256 SWAP1 POP SWAP2 SWAP1 POP JUMP JUMPDEST PUSH0 DUP2 SLOAD PUSH2 0x1AD DUP2 PUSH2 0x155 JUMP JUMPDEST PUSH2 0x1B7 DUP2 DUP7 PUSH2 0x185 JUMP JUMPDEST SWAP5 POP PUSH1 0x1 DUP3 AND PUSH0 DUP2 EQ PUSH2 0x1D1 JUMPI PUSH1 0x1 DUP2 EQ PUSH2 0x1E6 JUMPI PUSH2 0x218 JUMP JUMPDEST PUSH1 0xFF NOT DUP4 AND DUP7 MSTORE DUP2 ISZERO ISZERO DUP3 MUL DUP7 ADD SWAP4 POP PUSH2 0x218 JUMP JUMPDEST PUSH2 0x1EF DUP6 PUSH2 0x18F JUMP JUMPDEST PUSH0 JUMPDEST DUP4 DUP2 LT ISZERO PUSH2 0x210 JUMPI DUP2 SLOAD DUP2 DUP10 ADD MSTORE PUSH1 0x1 DUP3 ADD SWAP2 POP PUSH1 0x20 DUP2 ADD SWAP1 POP PUSH2 0x1F1 JUMP JUMPDEST DUP4 DUP9 ADD SWAP6 POP POP POP JUMPDEST POP POP POP SWAP3 SWAP2 POP POP JUMP JUMPDEST PUSH0 PUSH2 0x22B DUP3 PUSH2 0x102 JUMP JUMPDEST PUSH1 0x11 DUP3 ADD SWAP2 POP PUSH2 0x23B DUP3 DUP5 PUSH2 0x1A1 JUMP JUMPDEST SWAP2 POP DUP2 SWAP1 POP SWAP3 SWAP2 POP POP JUMP INVALID LOG2 PUSH5 0x6970667358 0x22 SLT KECCAK256 0xBB PUSH7 0xBFDD7D47E76D14 0xC1 SWAP2 AND RETURN JUMP 0xC3 MCOPY DUP3 SWAP7 0xC3 JUMPDEST SWAP8 0xC5 BLOBBASEFEE PUSH25 0x6BDAAF956103956464736F6C634300081A0033A26469706673 PC 0x22 SLT KECCAK256 0xDC SWAP1 0xC0 0xF9 STOP PUSH8 0x1D94C227DB5EF628 PUSH6 0x255E16E02FE 0xB3 PUSH14 0xCBD6E44E3E34493C2A64736F6C63 NUMBER STOP ADDMOD BYTE STOP CALLER "
				},
				"gasEstimates": {
					"creation": {
						"codeDepositCost": "819600",
						"executionCost": "855",
						"totalCost": "820455"
					},
					"external": {
						"DisplayMessage()": "infinite",
						"createCompilment(string)": "infinite",
						"message()": "infinite"
					}
				},
				"methodIdentifiers": {
					"DisplayMessage()": "e1a26cd8",
					"createCompilment(string)": "476aa751",
					"message()": "e21f37ce"
				}
			},
			"storageLayout": {
				"storage": [
					{
						"astId": 30,
						"contract": "contracts/complimet.sol:FactoryCompliment",
						"label": "newCompliment",
						"offset": 0,
						"slot": "0",
						"type": "t_contract(Compliment)27"
					},
					{
						"astId": 32,
						"contract": "contracts/complimet.sol:FactoryCompliment",
						"label": "message",
						"offset": 0,
						"slot": "1",
						"type": "t_string_storage"
					}
				],
				"types": {
					"t_contract(Compliment)27": {
						"encoding": "inplace",
						"label": "contract Compliment",
						"numberOfBytes": "20"
					},
					"t_string_storage": {
						"encoding": "bytes",
						"label": "string",
						"numberOfBytes": "32"
					}
				}
			},
			"userdoc": {
				"kind": "user",
				"methods": {},
				"version": 1
			}
		}
	}
}