{
	"contracts/flipit.sol": {
		"flipit": {
			"abi": [
				{
					"inputs": [
						{
							"internalType": "string",
							"name": "_name",
							"type": "string"
						},
						{
							"internalType": "string",
							"name": "_symbol",
							"type": "string"
						}
					],
					"stateMutability": "nonpayable",
					"type": "constructor"
				},
				{
					"inputs": [
						{
							"internalType": "string",
							"name": "",
							"type": "string"
						}
					],
					"name": "AddressNotFound",
					"type": "error"
				},
				{
					"inputs": [
						{
							"internalType": "address",
							"name": "spender",
							"type": "address"
						},
						{
							"internalType": "uint256",
							"name": "allowance",
							"type": "uint256"
						},
						{
							"internalType": "uint256",
							"name": "needed",
							"type": "uint256"
						}
					],
					"name": "ERC20InsufficientAllowance",
					"type": "error"
				},
				{
					"inputs": [
						{
							"internalType": "address",
							"name": "sender",
							"type": "address"
						},
						{
							"internalType": "uint256",
							"name": "balance",
							"type": "uint256"
						},
						{
							"internalType": "uint256",
							"name": "needed",
							"type": "uint256"
						}
					],
					"name": "ERC20InsufficientBalance",
					"type": "error"
				},
				{
					"inputs": [
						{
							"internalType": "address",
							"name": "approver",
							"type": "address"
						}
					],
					"name": "ERC20InvalidApprover",
					"type": "error"
				},
				{
					"inputs": [
						{
							"internalType": "address",
							"name": "receiver",
							"type": "address"
						}
					],
					"name": "ERC20InvalidReceiver",
					"type": "error"
				},
				{
					"inputs": [
						{
							"internalType": "address",
							"name": "sender",
							"type": "address"
						}
					],
					"name": "ERC20InvalidSender",
					"type": "error"
				},
				{
					"inputs": [
						{
							"internalType": "address",
							"name": "spender",
							"type": "address"
						}
					],
					"name": "ERC20InvalidSpender",
					"type": "error"
				},
				{
					"inputs": [
						{
							"internalType": "string",
							"name": "",
							"type": "string"
						}
					],
					"name": "NoToken",
					"type": "error"
				},
				{
					"inputs": [
						{
							"internalType": "string",
							"name": "",
							"type": "string"
						}
					],
					"name": "TokenClaimed",
					"type": "error"
				},
				{
					"anonymous": false,
					"inputs": [
						{
							"indexed": true,
							"internalType": "address",
							"name": "owner",
							"type": "address"
						},
						{
							"indexed": true,
							"internalType": "address",
							"name": "spender",
							"type": "address"
						},
						{
							"indexed": false,
							"internalType": "uint256",
							"name": "value",
							"type": "uint256"
						}
					],
					"name": "Approval",
					"type": "event"
				},
				{
					"anonymous": false,
					"inputs": [
						{
							"indexed": true,
							"internalType": "address",
							"name": "from",
							"type": "address"
						},
						{
							"indexed": true,
							"internalType": "address",
							"name": "to",
							"type": "address"
						},
						{
							"indexed": false,
							"internalType": "uint256",
							"name": "value",
							"type": "uint256"
						}
					],
					"name": "Transfer",
					"type": "event"
				},
				{
					"inputs": [
						{
							"internalType": "address",
							"name": "_user",
							"type": "address"
						}
					],
					"name": "Balance",
					"outputs": [
						{
							"internalType": "uint256",
							"name": "",
							"type": "uint256"
						}
					],
					"stateMutability": "view",
					"type": "function"
				},
				{
					"inputs": [
						{
							"internalType": "uint256",
							"name": "_value",
							"type": "uint256"
						}
					],
					"name": "Burn",
					"outputs": [],
					"stateMutability": "nonpayable",
					"type": "function"
				},
				{
					"inputs": [
						{
							"internalType": "address",
							"name": "_addrs",
							"type": "address"
						},
						{
							"internalType": "uint256",
							"name": "_amount",
							"type": "uint256"
						}
					],
					"name": "Claim",
					"outputs": [],
					"stateMutability": "nonpayable",
					"type": "function"
				},
				{
					"inputs": [],
					"name": "SenderEth",
					"outputs": [
						{
							"internalType": "address[]",
							"name": "",
							"type": "address[]"
						}
					],
					"stateMutability": "view",
					"type": "function"
				},
				{
					"inputs": [
						{
							"internalType": "address",
							"name": "_user",
							"type": "address"
						}
					],
					"name": "addressBalnc",
					"outputs": [
						{
							"internalType": "uint256",
							"name": "",
							"type": "uint256"
						}
					],
					"stateMutability": "view",
					"type": "function"
				},
				{
					"inputs": [
						{
							"internalType": "address",
							"name": "owner",
							"type": "address"
						},
						{
							"internalType": "address",
							"name": "spender",
							"type": "address"
						}
					],
					"name": "allowance",
					"outputs": [
						{
							"internalType": "uint256",
							"name": "",
							"type": "uint256"
						}
					],
					"stateMutability": "view",
					"type": "function"
				},
				{
					"inputs": [
						{
							"internalType": "address",
							"name": "spender",
							"type": "address"
						},
						{
							"internalType": "uint256",
							"name": "value",
							"type": "uint256"
						}
					],
					"name": "approve",
					"outputs": [
						{
							"internalType": "bool",
							"name": "",
							"type": "bool"
						}
					],
					"stateMutability": "nonpayable",
					"type": "function"
				},
				{
					"inputs": [
						{
							"internalType": "address",
							"name": "account",
							"type": "address"
						}
					],
					"name": "balanceOf",
					"outputs": [
						{
							"internalType": "uint256",
							"name": "",
							"type": "uint256"
						}
					],
					"stateMutability": "view",
					"type": "function"
				},
				{
					"inputs": [],
					"name": "decimals",
					"outputs": [
						{
							"internalType": "uint8",
							"name": "",
							"type": "uint8"
						}
					],
					"stateMutability": "view",
					"type": "function"
				},
				{
					"inputs": [],
					"name": "decimalsz",
					"outputs": [
						{
							"internalType": "uint256",
							"name": "",
							"type": "uint256"
						}
					],
					"stateMutability": "pure",
					"type": "function"
				},
				{
					"inputs": [
						{
							"internalType": "address",
							"name": "_addrs",
							"type": "address"
						},
						{
							"internalType": "uint256",
							"name": "_amount",
							"type": "uint256"
						}
					],
					"name": "flipClick",
					"outputs": [],
					"stateMutability": "nonpayable",
					"type": "function"
				},
				{
					"inputs": [
						{
							"internalType": "address",
							"name": "_addrs",
							"type": "address"
						},
						{
							"internalType": "uint256",
							"name": "_tokenStaked",
							"type": "uint256"
						}
					],
					"name": "gain",
					"outputs": [],
					"stateMutability": "nonpayable",
					"type": "function"
				},
				{
					"inputs": [],
					"name": "name",
					"outputs": [
						{
							"internalType": "string",
							"name": "",
							"type": "string"
						}
					],
					"stateMutability": "view",
					"type": "function"
				},
				{
					"inputs": [],
					"name": "payContractGasFee",
					"outputs": [],
					"stateMutability": "payable",
					"type": "function"
				},
				{
					"inputs": [
						{
							"internalType": "uint256",
							"name": "_pumpMint",
							"type": "uint256"
						}
					],
					"name": "pumptit",
					"outputs": [],
					"stateMutability": "nonpayable",
					"type": "function"
				},
				{
					"inputs": [
						{
							"internalType": "address",
							"name": "_addrs",
							"type": "address"
						}
					],
					"name": "realTime",
					"outputs": [
						{
							"internalType": "uint256",
							"name": "",
							"type": "uint256"
						}
					],
					"stateMutability": "view",
					"type": "function"
				},
				{
					"inputs": [],
					"name": "symbol",
					"outputs": [
						{
							"internalType": "string",
							"name": "",
							"type": "string"
						}
					],
					"stateMutability": "view",
					"type": "function"
				},
				{
					"inputs": [],
					"name": "totalSupply",
					"outputs": [
						{
							"internalType": "uint256",
							"name": "",
							"type": "uint256"
						}
					],
					"stateMutability": "view",
					"type": "function"
				},
				{
					"inputs": [
						{
							"internalType": "address",
							"name": "to",
							"type": "address"
						},
						{
							"internalType": "uint256",
							"name": "value",
							"type": "uint256"
						}
					],
					"name": "transfer",
					"outputs": [
						{
							"internalType": "bool",
							"name": "",
							"type": "bool"
						}
					],
					"stateMutability": "nonpayable",
					"type": "function"
				},
				{
					"inputs": [
						{
							"internalType": "address",
							"name": "from",
							"type": "address"
						},
						{
							"internalType": "address",
							"name": "to",
							"type": "address"
						},
						{
							"internalType": "uint256",
							"name": "value",
							"type": "uint256"
						}
					],
					"name": "transferFrom",
					"outputs": [
						{
							"internalType": "bool",
							"name": "",
							"type": "bool"
						}
					],
					"stateMutability": "nonpayable",
					"type": "function"
				},
				{
					"inputs": [],
					"name": "withDraw",
					"outputs": [],
					"stateMutability": "nonpayable",
					"type": "function"
				}
			],
			"devdoc": {
				"errors": {
					"ERC20InsufficientAllowance(address,uint256,uint256)": [
						{
							"details": "Indicates a failure with the `spender`’s `allowance`. Used in transfers.",
							"params": {
								"allowance": "Amount of tokens a `spender` is allowed to operate with.",
								"needed": "Minimum amount required to perform a transfer.",
								"spender": "Address that may be allowed to operate on tokens without being their owner."
							}
						}
					],
					"ERC20InsufficientBalance(address,uint256,uint256)": [
						{
							"details": "Indicates an error related to the current `balance` of a `sender`. Used in transfers.",
							"params": {
								"balance": "Current balance for the interacting account.",
								"needed": "Minimum amount required to perform a transfer.",
								"sender": "Address whose tokens are being transferred."
							}
						}
					],
					"ERC20InvalidApprover(address)": [
						{
							"details": "Indicates a failure with the `approver` of a token to be approved. Used in approvals.",
							"params": {
								"approver": "Address initiating an approval operation."
							}
						}
					],
					"ERC20InvalidReceiver(address)": [
						{
							"details": "Indicates a failure with the token `receiver`. Used in transfers.",
							"params": {
								"receiver": "Address to which tokens are being transferred."
							}
						}
					],
					"ERC20InvalidSender(address)": [
						{
							"details": "Indicates a failure with the token `sender`. Used in transfers.",
							"params": {
								"sender": "Address whose tokens are being transferred."
							}
						}
					],
					"ERC20InvalidSpender(address)": [
						{
							"details": "Indicates a failure with the `spender` to be approved. Used in approvals.",
							"params": {
								"spender": "Address that may be allowed to operate on tokens without being their owner."
							}
						}
					]
				},
				"events": {
					"Approval(address,address,uint256)": {
						"details": "Emitted when the allowance of a `spender` for an `owner` is set by a call to {approve}. `value` is the new allowance."
					},
					"Transfer(address,address,uint256)": {
						"details": "Emitted when `value` tokens are moved from one account (`from`) to another (`to`). Note that `value` may be zero."
					}
				},
				"kind": "dev",
				"methods": {
					"allowance(address,address)": {
						"details": "See {IERC20-allowance}."
					},
					"approve(address,uint256)": {
						"details": "See {IERC20-approve}. NOTE: If `value` is the maximum `uint256`, the allowance is not updated on `transferFrom`. This is semantically equivalent to an infinite approval. Requirements: - `spender` cannot be the zero address."
					},
					"balanceOf(address)": {
						"details": "See {IERC20-balanceOf}."
					},
					"decimals()": {
						"details": "Returns the number of decimals used to get its user representation. For example, if `decimals` equals `2`, a balance of `505` tokens should be displayed to a user as `5.05` (`505 / 10 ** 2`). Tokens usually opt for a value of 18, imitating the relationship between Ether and Wei. This is the default value returned by this function, unless it's overridden. NOTE: This information is only used for _display_ purposes: it in no way affects any of the arithmetic of the contract, including {IERC20-balanceOf} and {IERC20-transfer}."
					},
					"name()": {
						"details": "Returns the name of the token."
					},
					"symbol()": {
						"details": "Returns the symbol of the token, usually a shorter version of the name."
					},
					"totalSupply()": {
						"details": "See {IERC20-totalSupply}."
					},
					"transfer(address,uint256)": {
						"details": "See {IERC20-transfer}. Requirements: - `to` cannot be the zero address. - the caller must have a balance of at least `value`."
					},
					"transferFrom(address,address,uint256)": {
						"details": "See {IERC20-transferFrom}. Skips emitting an {Approval} event indicating an allowance update. This is not required by the ERC. See {xref-ERC20-_approve-address-address-uint256-bool-}[_approve]. NOTE: Does not update the allowance if the current allowance is the maximum `uint256`. Requirements: - `from` and `to` cannot be the zero address. - `from` must have a balance of at least `value`. - the caller must have allowance for ``from``'s tokens of at least `value`."
					}
				},
				"version": 1
			},
			"evm": {
				"assembly": "    /* \"contracts/flipit.sol\":169:2796  contract flipit is ERC20 {... */\n  mstore(0x40, 0x80)\n    /* \"contracts/flipit.sol\":469:743  constructor(string memory _name, string memory _symbol)... */\n  callvalue\n  dup1\n  iszero\n  tag_1\n  jumpi\n  0x00\n  dup1\n  revert\ntag_1:\n  pop\n  mload(0x40)\n  sub(codesize, bytecodeSize)\n  dup1\n  bytecodeSize\n  dup4\n  codecopy\n  dup2\n  dup2\n  add\n  0x40\n  mstore\n  dup2\n  add\n  swap1\n  tag_2\n  swap2\n  swap1\n  tag_3\n  jump\t// in\ntag_2:\n    /* \"contracts/flipit.sol\":539:544  _name */\n  dup2\n    /* \"contracts/flipit.sol\":546:553  _symbol */\n  dup2\n    /* \"https://github.com/OpenZeppelin/openzeppelin-contracts/blob/master/contracts/token/ERC20/ERC20.sol\":1675:1680  name_ */\n  dup2\n    /* \"https://github.com/OpenZeppelin/openzeppelin-contracts/blob/master/contracts/token/ERC20/ERC20.sol\":1667:1672  _name */\n  0x03\n    /* \"https://github.com/OpenZeppelin/openzeppelin-contracts/blob/master/contracts/token/ERC20/ERC20.sol\":1667:1680  _name = name_ */\n  swap1\n  dup2\n  tag_7\n  swap2\n  swap1\n  tag_8\n  jump\t// in\ntag_7:\n  pop\n    /* \"https://github.com/OpenZeppelin/openzeppelin-contracts/blob/master/contracts/token/ERC20/ERC20.sol\":1700:1707  symbol_ */\n  dup1\n    /* \"https://github.com/OpenZeppelin/openzeppelin-contracts/blob/master/contracts/token/ERC20/ERC20.sol\":1690:1697  _symbol */\n  0x04\n    /* \"https://github.com/OpenZeppelin/openzeppelin-contracts/blob/master/contracts/token/ERC20/ERC20.sol\":1690:1707  _symbol = symbol_ */\n  swap1\n  dup2\n  tag_9\n  swap2\n  swap1\n  tag_8\n  jump\t// in\ntag_9:\n  pop\n    /* \"https://github.com/OpenZeppelin/openzeppelin-contracts/blob/master/contracts/token/ERC20/ERC20.sol\":1601:1714  constructor(string memory name_, string memory symbol_) {... */\n  pop\n  pop\n    /* \"contracts/flipit.sol\":613:664  _mint(address(this), 10_000_000_000_000 * DECIMALS) */\n  tag_11\n    /* \"contracts/flipit.sol\":627:631  this */\n  address\n    /* \"contracts/flipit.sol\":300:306  10**18 */\n  0x0de0b6b3a7640000\n    /* \"contracts/flipit.sol\":634:652  10_000_000_000_000 */\n  0x09184e72a000\n    /* \"contracts/flipit.sol\":634:663  10_000_000_000_000 * DECIMALS */\n  tag_12\n  swap2\n  swap1\n  tag_13\n  jump\t// in\ntag_12:\n    /* \"contracts/flipit.sol\":613:618  _mint */\n  shl(0x20, tag_14)\n    /* \"contracts/flipit.sol\":613:664  _mint(address(this), 10_000_000_000_000 * DECIMALS) */\n  0x20\n  shr\n  jump\t// in\ntag_11:\n    /* \"contracts/flipit.sol\":684:694  msg.sender */\n  caller\n    /* \"contracts/flipit.sol\":674:681  _owner_ */\n  0x05\n  0x00\n    /* \"contracts/flipit.sol\":674:694  _owner_ = msg.sender */\n  0x0100\n  exp\n  dup2\n  sload\n  dup2\n  0xffffffffffffffffffffffffffffffffffffffff\n  mul\n  not\n  and\n  swap1\n  dup4\n  0xffffffffffffffffffffffffffffffffffffffff\n  and\n  mul\n  or\n  swap1\n  sstore\n  pop\n    /* \"contracts/flipit.sol\":730:734  this */\n  address\n    /* \"contracts/flipit.sol\":704:719  contractAddress */\n  0x06\n  0x00\n    /* \"contracts/flipit.sol\":704:735  contractAddress = address(this) */\n  0x0100\n  exp\n  dup2\n  sload\n  dup2\n  0xffffffffffffffffffffffffffffffffffffffff\n  mul\n  not\n  and\n  swap1\n  dup4\n  0xffffffffffffffffffffffffffffffffffffffff\n  and\n  mul\n  or\n  swap1\n  sstore\n  pop\n    /* \"contracts/flipit.sol\":469:743  constructor(string memory _name, string memory _symbol)... */\n  pop\n  pop\n    /* \"contracts/flipit.sol\":169:2796  contract flipit is ERC20 {... */\n  jump(tag_15)\n    /* \"https://github.com/OpenZeppelin/openzeppelin-contracts/blob/master/contracts/token/ERC20/ERC20.sol\":7462:7670  function _mint(address account, uint256 value) internal {... */\ntag_14:\n    /* \"https://github.com/OpenZeppelin/openzeppelin-contracts/blob/master/contracts/token/ERC20/ERC20.sol\":7551:7552  0 */\n  0x00\n    /* \"https://github.com/OpenZeppelin/openzeppelin-contracts/blob/master/contracts/token/ERC20/ERC20.sol\":7532:7553  account == address(0) */\n  0xffffffffffffffffffffffffffffffffffffffff\n  and\n    /* \"https://github.com/OpenZeppelin/openzeppelin-contracts/blob/master/contracts/token/ERC20/ERC20.sol\":7532:7539  account */\n  dup3\n    /* \"https://github.com/OpenZeppelin/openzeppelin-contracts/blob/master/contracts/token/ERC20/ERC20.sol\":7532:7553  account == address(0) */\n  0xffffffffffffffffffffffffffffffffffffffff\n  and\n  sub\n    /* \"https://github.com/OpenZeppelin/openzeppelin-contracts/blob/master/contracts/token/ERC20/ERC20.sol\":7528:7619  if (account == address(0)) {... */\n  tag_17\n  jumpi\n    /* \"https://github.com/OpenZeppelin/openzeppelin-contracts/blob/master/contracts/token/ERC20/ERC20.sol\":7605:7606  0 */\n  0x00\n    /* \"https://github.com/OpenZeppelin/openzeppelin-contracts/blob/master/contracts/token/ERC20/ERC20.sol\":7576:7608  ERC20InvalidReceiver(address(0)) */\n  mload(0x40)\n  0xec442f0500000000000000000000000000000000000000000000000000000000\n  dup2\n  mstore\n  0x04\n  add\n  tag_18\n  swap2\n  swap1\n  tag_19\n  jump\t// in\ntag_18:\n  mload(0x40)\n  dup1\n  swap2\n  sub\n  swap1\n  revert\n    /* \"https://github.com/OpenZeppelin/openzeppelin-contracts/blob/master/contracts/token/ERC20/ERC20.sol\":7528:7619  if (account == address(0)) {... */\ntag_17:\n    /* \"https://github.com/OpenZeppelin/openzeppelin-contracts/blob/master/contracts/token/ERC20/ERC20.sol\":7628:7663  _update(address(0), account, value) */\n  tag_20\n    /* \"https://github.com/OpenZeppelin/openzeppelin-contracts/blob/master/contracts/token/ERC20/ERC20.sol\":7644:7645  0 */\n  0x00\n    /* \"https://github.com/OpenZeppelin/openzeppelin-contracts/blob/master/contracts/token/ERC20/ERC20.sol\":7648:7655  account */\n  dup4\n    /* \"https://github.com/OpenZeppelin/openzeppelin-contracts/blob/master/contracts/token/ERC20/ERC20.sol\":7657:7662  value */\n  dup4\n    /* \"https://github.com/OpenZeppelin/openzeppelin-contracts/blob/master/contracts/token/ERC20/ERC20.sol\":7628:7635  _update */\n  shl(0x20, tag_21)\n    /* \"https://github.com/OpenZeppelin/openzeppelin-contracts/blob/master/contracts/token/ERC20/ERC20.sol\":7628:7663  _update(address(0), account, value) */\n  0x20\n  shr\n  jump\t// in\ntag_20:\n    /* \"https://github.com/OpenZeppelin/openzeppelin-contracts/blob/master/contracts/token/ERC20/ERC20.sol\":7462:7670  function _mint(address account, uint256 value) internal {... */\n  pop\n  pop\n  jump\t// out\n    /* \"https://github.com/OpenZeppelin/openzeppelin-contracts/blob/master/contracts/token/ERC20/ERC20.sol\":6012:7119  function _update(address from, address to, uint256 value) internal virtual {... */\ntag_21:\n    /* \"https://github.com/OpenZeppelin/openzeppelin-contracts/blob/master/contracts/token/ERC20/ERC20.sol\":6117:6118  0 */\n  0x00\n    /* \"https://github.com/OpenZeppelin/openzeppelin-contracts/blob/master/contracts/token/ERC20/ERC20.sol\":6101:6119  from == address(0) */\n  0xffffffffffffffffffffffffffffffffffffffff\n  and\n    /* \"https://github.com/OpenZeppelin/openzeppelin-contracts/blob/master/contracts/token/ERC20/ERC20.sol\":6101:6105  from */\n  dup4\n    /* \"https://github.com/OpenZeppelin/openzeppelin-contracts/blob/master/contracts/token/ERC20/ERC20.sol\":6101:6119  from == address(0) */\n  0xffffffffffffffffffffffffffffffffffffffff\n  and\n  sub\n    /* \"https://github.com/OpenZeppelin/openzeppelin-contracts/blob/master/contracts/token/ERC20/ERC20.sol\":6097:6637  if (from == address(0)) {... */\n  tag_23\n  jumpi\n    /* \"https://github.com/OpenZeppelin/openzeppelin-contracts/blob/master/contracts/token/ERC20/ERC20.sol\":6253:6258  value */\n  dup1\n    /* \"https://github.com/OpenZeppelin/openzeppelin-contracts/blob/master/contracts/token/ERC20/ERC20.sol\":6237:6249  _totalSupply */\n  0x02\n  0x00\n    /* \"https://github.com/OpenZeppelin/openzeppelin-contracts/blob/master/contracts/token/ERC20/ERC20.sol\":6237:6258  _totalSupply += value */\n  dup3\n  dup3\n  sload\n  tag_24\n  swap2\n  swap1\n  tag_25\n  jump\t// in\ntag_24:\n  swap3\n  pop\n  pop\n  dup2\n  swap1\n  sstore\n  pop\n    /* \"https://github.com/OpenZeppelin/openzeppelin-contracts/blob/master/contracts/token/ERC20/ERC20.sol\":6097:6637  if (from == address(0)) {... */\n  jump(tag_26)\ntag_23:\n    /* \"https://github.com/OpenZeppelin/openzeppelin-contracts/blob/master/contracts/token/ERC20/ERC20.sol\":6289:6308  uint256 fromBalance */\n  0x00\n    /* \"https://github.com/OpenZeppelin/openzeppelin-contracts/blob/master/contracts/token/ERC20/ERC20.sol\":6311:6320  _balances */\n  dup1\n    /* \"https://github.com/OpenZeppelin/openzeppelin-contracts/blob/master/contracts/token/ERC20/ERC20.sol\":6311:6326  _balances[from] */\n  0x00\n    /* \"https://github.com/OpenZeppelin/openzeppelin-contracts/blob/master/contracts/token/ERC20/ERC20.sol\":6321:6325  from */\n  dup6\n    /* \"https://github.com/OpenZeppelin/openzeppelin-contracts/blob/master/contracts/token/ERC20/ERC20.sol\":6311:6326  _balances[from] */\n  0xffffffffffffffffffffffffffffffffffffffff\n  and\n  0xffffffffffffffffffffffffffffffffffffffff\n  and\n  dup2\n  mstore\n  0x20\n  add\n  swap1\n  dup2\n  mstore\n  0x20\n  add\n  0x00\n  keccak256\n  sload\n    /* \"https://github.com/OpenZeppelin/openzeppelin-contracts/blob/master/contracts/token/ERC20/ERC20.sol\":6289:6326  uint256 fromBalance = _balances[from] */\n  swap1\n  pop\n    /* \"https://github.com/OpenZeppelin/openzeppelin-contracts/blob/master/contracts/token/ERC20/ERC20.sol\":6358:6363  value */\n  dup2\n    /* \"https://github.com/OpenZeppelin/openzeppelin-contracts/blob/master/contracts/token/ERC20/ERC20.sol\":6344:6355  fromBalance */\n  dup2\n    /* \"https://github.com/OpenZeppelin/openzeppelin-contracts/blob/master/contracts/token/ERC20/ERC20.sol\":6344:6363  fromBalance < value */\n  lt\n    /* \"https://github.com/OpenZeppelin/openzeppelin-contracts/blob/master/contracts/token/ERC20/ERC20.sol\":6340:6455  if (fromBalance < value) {... */\n  iszero\n  tag_27\n  jumpi\n    /* \"https://github.com/OpenZeppelin/openzeppelin-contracts/blob/master/contracts/token/ERC20/ERC20.sol\":6415:6419  from */\n  dup4\n    /* \"https://github.com/OpenZeppelin/openzeppelin-contracts/blob/master/contracts/token/ERC20/ERC20.sol\":6421:6432  fromBalance */\n  dup2\n    /* \"https://github.com/OpenZeppelin/openzeppelin-contracts/blob/master/contracts/token/ERC20/ERC20.sol\":6434:6439  value */\n  dup4\n    /* \"https://github.com/OpenZeppelin/openzeppelin-contracts/blob/master/contracts/token/ERC20/ERC20.sol\":6390:6440  ERC20InsufficientBalance(from, fromBalance, value) */\n  mload(0x40)\n  0xe450d38c00000000000000000000000000000000000000000000000000000000\n  dup2\n  mstore\n  0x04\n  add\n  tag_28\n  swap4\n  swap3\n  swap2\n  swap1\n  tag_29\n  jump\t// in\ntag_28:\n  mload(0x40)\n  dup1\n  swap2\n  sub\n  swap1\n  revert\n    /* \"https://github.com/OpenZeppelin/openzeppelin-contracts/blob/master/contracts/token/ERC20/ERC20.sol\":6340:6455  if (fromBalance < value) {... */\ntag_27:\n    /* \"https://github.com/OpenZeppelin/openzeppelin-contracts/blob/master/contracts/token/ERC20/ERC20.sol\":6607:6612  value */\n  dup2\n    /* \"https://github.com/OpenZeppelin/openzeppelin-contracts/blob/master/contracts/token/ERC20/ERC20.sol\":6593:6604  fromBalance */\n  dup2\n    /* \"https://github.com/OpenZeppelin/openzeppelin-contracts/blob/master/contracts/token/ERC20/ERC20.sol\":6593:6612  fromBalance - value */\n  sub\n    /* \"https://github.com/OpenZeppelin/openzeppelin-contracts/blob/master/contracts/token/ERC20/ERC20.sol\":6575:6584  _balances */\n  0x00\n    /* \"https://github.com/OpenZeppelin/openzeppelin-contracts/blob/master/contracts/token/ERC20/ERC20.sol\":6575:6590  _balances[from] */\n  dup1\n    /* \"https://github.com/OpenZeppelin/openzeppelin-contracts/blob/master/contracts/token/ERC20/ERC20.sol\":6585:6589  from */\n  dup7\n    /* \"https://github.com/OpenZeppelin/openzeppelin-contracts/blob/master/contracts/token/ERC20/ERC20.sol\":6575:6590  _balances[from] */\n  0xffffffffffffffffffffffffffffffffffffffff\n  and\n  0xffffffffffffffffffffffffffffffffffffffff\n  and\n  dup2\n  mstore\n  0x20\n  add\n  swap1\n  dup2\n  mstore\n  0x20\n  add\n  0x00\n  keccak256\n    /* \"https://github.com/OpenZeppelin/openzeppelin-contracts/blob/master/contracts/token/ERC20/ERC20.sol\":6575:6612  _balances[from] = fromBalance - value */\n  dup2\n  swap1\n  sstore\n  pop\n    /* \"https://github.com/OpenZeppelin/openzeppelin-contracts/blob/master/contracts/token/ERC20/ERC20.sol\":6275:6637  {... */\n  pop\n    /* \"https://github.com/OpenZeppelin/openzeppelin-contracts/blob/master/contracts/token/ERC20/ERC20.sol\":6097:6637  if (from == address(0)) {... */\ntag_26:\n    /* \"https://github.com/OpenZeppelin/openzeppelin-contracts/blob/master/contracts/token/ERC20/ERC20.sol\":6665:6666  0 */\n  0x00\n    /* \"https://github.com/OpenZeppelin/openzeppelin-contracts/blob/master/contracts/token/ERC20/ERC20.sol\":6651:6667  to == address(0) */\n  0xffffffffffffffffffffffffffffffffffffffff\n  and\n    /* \"https://github.com/OpenZeppelin/openzeppelin-contracts/blob/master/contracts/token/ERC20/ERC20.sol\":6651:6653  to */\n  dup3\n    /* \"https://github.com/OpenZeppelin/openzeppelin-contracts/blob/master/contracts/token/ERC20/ERC20.sol\":6651:6667  to == address(0) */\n  0xffffffffffffffffffffffffffffffffffffffff\n  and\n  sub\n    /* \"https://github.com/OpenZeppelin/openzeppelin-contracts/blob/master/contracts/token/ERC20/ERC20.sol\":6647:7072  if (to == address(0)) {... */\n  tag_30\n  jumpi\n    /* \"https://github.com/OpenZeppelin/openzeppelin-contracts/blob/master/contracts/token/ERC20/ERC20.sol\":6830:6835  value */\n  dup1\n    /* \"https://github.com/OpenZeppelin/openzeppelin-contracts/blob/master/contracts/token/ERC20/ERC20.sol\":6814:6826  _totalSupply */\n  0x02\n  0x00\n    /* \"https://github.com/OpenZeppelin/openzeppelin-contracts/blob/master/contracts/token/ERC20/ERC20.sol\":6814:6835  _totalSupply -= value */\n  dup3\n  dup3\n  sload\n  sub\n  swap3\n  pop\n  pop\n  dup2\n  swap1\n  sstore\n  pop\n    /* \"https://github.com/OpenZeppelin/openzeppelin-contracts/blob/master/contracts/token/ERC20/ERC20.sol\":6647:7072  if (to == address(0)) {... */\n  jump(tag_31)\ntag_30:\n    /* \"https://github.com/OpenZeppelin/openzeppelin-contracts/blob/master/contracts/token/ERC20/ERC20.sol\":7042:7047  value */\n  dup1\n    /* \"https://github.com/OpenZeppelin/openzeppelin-contracts/blob/master/contracts/token/ERC20/ERC20.sol\":7025:7034  _balances */\n  0x00\n    /* \"https://github.com/OpenZeppelin/openzeppelin-contracts/blob/master/contracts/token/ERC20/ERC20.sol\":7025:7038  _balances[to] */\n  dup1\n    /* \"https://github.com/OpenZeppelin/openzeppelin-contracts/blob/master/contracts/token/ERC20/ERC20.sol\":7035:7037  to */\n  dup5\n    /* \"https://github.com/OpenZeppelin/openzeppelin-contracts/blob/master/contracts/token/ERC20/ERC20.sol\":7025:7038  _balances[to] */\n  0xffffffffffffffffffffffffffffffffffffffff\n  and\n  0xffffffffffffffffffffffffffffffffffffffff\n  and\n  dup2\n  mstore\n  0x20\n  add\n  swap1\n  dup2\n  mstore\n  0x20\n  add\n  0x00\n  keccak256\n  0x00\n    /* \"https://github.com/OpenZeppelin/openzeppelin-contracts/blob/master/contracts/token/ERC20/ERC20.sol\":7025:7047  _balances[to] += value */\n  dup3\n  dup3\n  sload\n  add\n  swap3\n  pop\n  pop\n  dup2\n  swap1\n  sstore\n  pop\n    /* \"https://github.com/OpenZeppelin/openzeppelin-contracts/blob/master/contracts/token/ERC20/ERC20.sol\":6647:7072  if (to == address(0)) {... */\ntag_31:\n    /* \"https://github.com/OpenZeppelin/openzeppelin-contracts/blob/master/contracts/token/ERC20/ERC20.sol\":7102:7104  to */\n  dup2\n    /* \"https://github.com/OpenZeppelin/openzeppelin-contracts/blob/master/contracts/token/ERC20/ERC20.sol\":7087:7112  Transfer(from, to, value) */\n  0xffffffffffffffffffffffffffffffffffffffff\n  and\n    /* \"https://github.com/OpenZeppelin/openzeppelin-contracts/blob/master/contracts/token/ERC20/ERC20.sol\":7096:7100  from */\n  dup4\n    /* \"https://github.com/OpenZeppelin/openzeppelin-contracts/blob/master/contracts/token/ERC20/ERC20.sol\":7087:7112  Transfer(from, to, value) */\n  0xffffffffffffffffffffffffffffffffffffffff\n  and\n  0xddf252ad1be2c89b69c2b068fc378daa952ba7f163c4a11628f55a4df523b3ef\n    /* \"https://github.com/OpenZeppelin/openzeppelin-contracts/blob/master/contracts/token/ERC20/ERC20.sol\":7106:7111  value */\n  dup4\n    /* \"https://github.com/OpenZeppelin/openzeppelin-contracts/blob/master/contracts/token/ERC20/ERC20.sol\":7087:7112  Transfer(from, to, value) */\n  mload(0x40)\n  tag_32\n  swap2\n  swap1\n  tag_33\n  jump\t// in\ntag_32:\n  mload(0x40)\n  dup1\n  swap2\n  sub\n  swap1\n  log3\n    /* \"https://github.com/OpenZeppelin/openzeppelin-contracts/blob/master/contracts/token/ERC20/ERC20.sol\":6012:7119  function _update(address from, address to, uint256 value) internal virtual {... */\n  pop\n  pop\n  pop\n  jump\t// out\n    /* \"#utility.yul\":7:82   */\ntag_34:\n    /* \"#utility.yul\":40:46   */\n  0x00\n    /* \"#utility.yul\":73:75   */\n  0x40\n    /* \"#utility.yul\":67:76   */\n  mload\n    /* \"#utility.yul\":57:76   */\n  swap1\n  pop\n    /* \"#utility.yul\":7:82   */\n  swap1\n  jump\t// out\n    /* \"#utility.yul\":88:205   */\ntag_35:\n    /* \"#utility.yul\":197:198   */\n  0x00\n    /* \"#utility.yul\":194:195   */\n  dup1\n    /* \"#utility.yul\":187:199   */\n  revert\n    /* \"#utility.yul\":211:328   */\ntag_36:\n    /* \"#utility.yul\":320:321   */\n  0x00\n    /* \"#utility.yul\":317:318   */\n  dup1\n    /* \"#utility.yul\":310:322   */\n  revert\n    /* \"#utility.yul\":334:451   */\ntag_37:\n    /* \"#utility.yul\":443:444   */\n  0x00\n    /* \"#utility.yul\":440:441   */\n  dup1\n    /* \"#utility.yul\":433:445   */\n  revert\n    /* \"#utility.yul\":457:574   */\ntag_38:\n    /* \"#utility.yul\":566:567   */\n  0x00\n    /* \"#utility.yul\":563:564   */\n  dup1\n    /* \"#utility.yul\":556:568   */\n  revert\n    /* \"#utility.yul\":580:682   */\ntag_39:\n    /* \"#utility.yul\":621:627   */\n  0x00\n    /* \"#utility.yul\":672:674   */\n  0x1f\n    /* \"#utility.yul\":668:675   */\n  not\n    /* \"#utility.yul\":663:665   */\n  0x1f\n    /* \"#utility.yul\":656:661   */\n  dup4\n    /* \"#utility.yul\":652:666   */\n  add\n    /* \"#utility.yul\":648:676   */\n  and\n    /* \"#utility.yul\":638:676   */\n  swap1\n  pop\n    /* \"#utility.yul\":580:682   */\n  swap2\n  swap1\n  pop\n  jump\t// out\n    /* \"#utility.yul\":688:868   */\ntag_40:\n    /* \"#utility.yul\":736:813   */\n  0x4e487b7100000000000000000000000000000000000000000000000000000000\n    /* \"#utility.yul\":733:734   */\n  0x00\n    /* \"#utility.yul\":726:814   */\n  mstore\n    /* \"#utility.yul\":833:837   */\n  0x41\n    /* \"#utility.yul\":830:831   */\n  0x04\n    /* \"#utility.yul\":823:838   */\n  mstore\n    /* \"#utility.yul\":857:861   */\n  0x24\n    /* \"#utility.yul\":854:855   */\n  0x00\n    /* \"#utility.yul\":847:862   */\n  revert\n    /* \"#utility.yul\":874:1155   */\ntag_41:\n    /* \"#utility.yul\":957:984   */\n  tag_80\n    /* \"#utility.yul\":979:983   */\n  dup3\n    /* \"#utility.yul\":957:984   */\n  tag_39\n  jump\t// in\ntag_80:\n    /* \"#utility.yul\":949:955   */\n  dup2\n    /* \"#utility.yul\":945:985   */\n  add\n    /* \"#utility.yul\":1087:1093   */\n  dup2\n    /* \"#utility.yul\":1075:1085   */\n  dup2\n    /* \"#utility.yul\":1072:1094   */\n  lt\n    /* \"#utility.yul\":1051:1069   */\n  0xffffffffffffffff\n    /* \"#utility.yul\":1039:1049   */\n  dup3\n    /* \"#utility.yul\":1036:1070   */\n  gt\n    /* \"#utility.yul\":1033:1095   */\n  or\n    /* \"#utility.yul\":1030:1118   */\n  iszero\n  tag_81\n  jumpi\n    /* \"#utility.yul\":1098:1116   */\n  tag_82\n  tag_40\n  jump\t// in\ntag_82:\n    /* \"#utility.yul\":1030:1118   */\ntag_81:\n    /* \"#utility.yul\":1138:1148   */\n  dup1\n    /* \"#utility.yul\":1134:1136   */\n  0x40\n    /* \"#utility.yul\":1127:1149   */\n  mstore\n    /* \"#utility.yul\":917:1155   */\n  pop\n    /* \"#utility.yul\":874:1155   */\n  pop\n  pop\n  jump\t// out\n    /* \"#utility.yul\":1161:1290   */\ntag_42:\n    /* \"#utility.yul\":1195:1201   */\n  0x00\n    /* \"#utility.yul\":1222:1242   */\n  tag_84\n  tag_34\n  jump\t// in\ntag_84:\n    /* \"#utility.yul\":1212:1242   */\n  swap1\n  pop\n    /* \"#utility.yul\":1251:1284   */\n  tag_85\n    /* \"#utility.yul\":1279:1283   */\n  dup3\n    /* \"#utility.yul\":1271:1277   */\n  dup3\n    /* \"#utility.yul\":1251:1284   */\n  tag_41\n  jump\t// in\ntag_85:\n    /* \"#utility.yul\":1161:1290   */\n  swap2\n  swap1\n  pop\n  jump\t// out\n    /* \"#utility.yul\":1296:1604   */\ntag_43:\n    /* \"#utility.yul\":1358:1362   */\n  0x00\n    /* \"#utility.yul\":1448:1466   */\n  0xffffffffffffffff\n    /* \"#utility.yul\":1440:1446   */\n  dup3\n    /* \"#utility.yul\":1437:1467   */\n  gt\n    /* \"#utility.yul\":1434:1490   */\n  iszero\n  tag_87\n  jumpi\n    /* \"#utility.yul\":1470:1488   */\n  tag_88\n  tag_40\n  jump\t// in\ntag_88:\n    /* \"#utility.yul\":1434:1490   */\ntag_87:\n    /* \"#utility.yul\":1508:1537   */\n  tag_89\n    /* \"#utility.yul\":1530:1536   */\n  dup3\n    /* \"#utility.yul\":1508:1537   */\n  tag_39\n  jump\t// in\ntag_89:\n    /* \"#utility.yul\":1500:1537   */\n  swap1\n  pop\n    /* \"#utility.yul\":1592:1596   */\n  0x20\n    /* \"#utility.yul\":1586:1590   */\n  dup2\n    /* \"#utility.yul\":1582:1597   */\n  add\n    /* \"#utility.yul\":1574:1597   */\n  swap1\n  pop\n    /* \"#utility.yul\":1296:1604   */\n  swap2\n  swap1\n  pop\n  jump\t// out\n    /* \"#utility.yul\":1610:1749   */\ntag_44:\n    /* \"#utility.yul\":1699:1705   */\n  dup3\n    /* \"#utility.yul\":1694:1697   */\n  dup2\n    /* \"#utility.yul\":1689:1692   */\n  dup4\n    /* \"#utility.yul\":1683:1706   */\n  mcopy\n    /* \"#utility.yul\":1740:1741   */\n  0x00\n    /* \"#utility.yul\":1731:1737   */\n  dup4\n    /* \"#utility.yul\":1726:1729   */\n  dup4\n    /* \"#utility.yul\":1722:1738   */\n  add\n    /* \"#utility.yul\":1715:1742   */\n  mstore\n    /* \"#utility.yul\":1610:1749   */\n  pop\n  pop\n  pop\n  jump\t// out\n    /* \"#utility.yul\":1755:2189   */\ntag_45:\n    /* \"#utility.yul\":1844:1849   */\n  0x00\n    /* \"#utility.yul\":1869:1935   */\n  tag_92\n    /* \"#utility.yul\":1885:1934   */\n  tag_93\n    /* \"#utility.yul\":1927:1933   */\n  dup5\n    /* \"#utility.yul\":1885:1934   */\n  tag_43\n  jump\t// in\ntag_93:\n    /* \"#utility.yul\":1869:1935   */\n  tag_42\n  jump\t// in\ntag_92:\n    /* \"#utility.yul\":1860:1935   */\n  swap1\n  pop\n    /* \"#utility.yul\":1958:1964   */\n  dup3\n    /* \"#utility.yul\":1951:1956   */\n  dup2\n    /* \"#utility.yul\":1944:1965   */\n  mstore\n    /* \"#utility.yul\":1996:2000   */\n  0x20\n    /* \"#utility.yul\":1989:1994   */\n  dup2\n    /* \"#utility.yul\":1985:2001   */\n  add\n    /* \"#utility.yul\":2034:2037   */\n  dup5\n    /* \"#utility.yul\":2025:2031   */\n  dup5\n    /* \"#utility.yul\":2020:2023   */\n  dup5\n    /* \"#utility.yul\":2016:2032   */\n  add\n    /* \"#utility.yul\":2013:2038   */\n  gt\n    /* \"#utility.yul\":2010:2122   */\n  iszero\n  tag_94\n  jumpi\n    /* \"#utility.yul\":2041:2120   */\n  tag_95\n  tag_38\n  jump\t// in\ntag_95:\n    /* \"#utility.yul\":2010:2122   */\ntag_94:\n    /* \"#utility.yul\":2131:2183   */\n  tag_96\n    /* \"#utility.yul\":2176:2182   */\n  dup5\n    /* \"#utility.yul\":2171:2174   */\n  dup3\n    /* \"#utility.yul\":2166:2169   */\n  dup6\n    /* \"#utility.yul\":2131:2183   */\n  tag_44\n  jump\t// in\ntag_96:\n    /* \"#utility.yul\":1850:2189   */\n  pop\n    /* \"#utility.yul\":1755:2189   */\n  swap4\n  swap3\n  pop\n  pop\n  pop\n  jump\t// out\n    /* \"#utility.yul\":2209:2564   */\ntag_46:\n    /* \"#utility.yul\":2276:2281   */\n  0x00\n    /* \"#utility.yul\":2325:2328   */\n  dup3\n    /* \"#utility.yul\":2318:2322   */\n  0x1f\n    /* \"#utility.yul\":2310:2316   */\n  dup4\n    /* \"#utility.yul\":2306:2323   */\n  add\n    /* \"#utility.yul\":2302:2329   */\n  slt\n    /* \"#utility.yul\":2292:2414   */\n  tag_98\n  jumpi\n    /* \"#utility.yul\":2333:2412   */\n  tag_99\n  tag_37\n  jump\t// in\ntag_99:\n    /* \"#utility.yul\":2292:2414   */\ntag_98:\n    /* \"#utility.yul\":2443:2449   */\n  dup2\n    /* \"#utility.yul\":2437:2450   */\n  mload\n    /* \"#utility.yul\":2468:2558   */\n  tag_100\n    /* \"#utility.yul\":2554:2557   */\n  dup5\n    /* \"#utility.yul\":2546:2552   */\n  dup3\n    /* \"#utility.yul\":2539:2543   */\n  0x20\n    /* \"#utility.yul\":2531:2537   */\n  dup7\n    /* \"#utility.yul\":2527:2544   */\n  add\n    /* \"#utility.yul\":2468:2558   */\n  tag_45\n  jump\t// in\ntag_100:\n    /* \"#utility.yul\":2459:2558   */\n  swap2\n  pop\n    /* \"#utility.yul\":2282:2564   */\n  pop\n    /* \"#utility.yul\":2209:2564   */\n  swap3\n  swap2\n  pop\n  pop\n  jump\t// out\n    /* \"#utility.yul\":2570:3423   */\ntag_3:\n    /* \"#utility.yul\":2669:2675   */\n  0x00\n    /* \"#utility.yul\":2677:2683   */\n  dup1\n    /* \"#utility.yul\":2726:2728   */\n  0x40\n    /* \"#utility.yul\":2714:2723   */\n  dup4\n    /* \"#utility.yul\":2705:2712   */\n  dup6\n    /* \"#utility.yul\":2701:2724   */\n  sub\n    /* \"#utility.yul\":2697:2729   */\n  slt\n    /* \"#utility.yul\":2694:2813   */\n  iszero\n  tag_102\n  jumpi\n    /* \"#utility.yul\":2732:2811   */\n  tag_103\n  tag_35\n  jump\t// in\ntag_103:\n    /* \"#utility.yul\":2694:2813   */\ntag_102:\n    /* \"#utility.yul\":2873:2874   */\n  0x00\n    /* \"#utility.yul\":2862:2871   */\n  dup4\n    /* \"#utility.yul\":2858:2875   */\n  add\n    /* \"#utility.yul\":2852:2876   */\n  mload\n    /* \"#utility.yul\":2903:2921   */\n  0xffffffffffffffff\n    /* \"#utility.yul\":2895:2901   */\n  dup2\n    /* \"#utility.yul\":2892:2922   */\n  gt\n    /* \"#utility.yul\":2889:3006   */\n  iszero\n  tag_104\n  jumpi\n    /* \"#utility.yul\":2925:3004   */\n  tag_105\n  tag_36\n  jump\t// in\ntag_105:\n    /* \"#utility.yul\":2889:3006   */\ntag_104:\n    /* \"#utility.yul\":3030:3104   */\n  tag_106\n    /* \"#utility.yul\":3096:3103   */\n  dup6\n    /* \"#utility.yul\":3087:3093   */\n  dup3\n    /* \"#utility.yul\":3076:3085   */\n  dup7\n    /* \"#utility.yul\":3072:3094   */\n  add\n    /* \"#utility.yul\":3030:3104   */\n  tag_46\n  jump\t// in\ntag_106:\n    /* \"#utility.yul\":3020:3104   */\n  swap3\n  pop\n    /* \"#utility.yul\":2823:3114   */\n  pop\n    /* \"#utility.yul\":3174:3176   */\n  0x20\n    /* \"#utility.yul\":3163:3172   */\n  dup4\n    /* \"#utility.yul\":3159:3177   */\n  add\n    /* \"#utility.yul\":3153:3178   */\n  mload\n    /* \"#utility.yul\":3205:3223   */\n  0xffffffffffffffff\n    /* \"#utility.yul\":3197:3203   */\n  dup2\n    /* \"#utility.yul\":3194:3224   */\n  gt\n    /* \"#utility.yul\":3191:3308   */\n  iszero\n  tag_107\n  jumpi\n    /* \"#utility.yul\":3227:3306   */\n  tag_108\n  tag_36\n  jump\t// in\ntag_108:\n    /* \"#utility.yul\":3191:3308   */\ntag_107:\n    /* \"#utility.yul\":3332:3406   */\n  tag_109\n    /* \"#utility.yul\":3398:3405   */\n  dup6\n    /* \"#utility.yul\":3389:3395   */\n  dup3\n    /* \"#utility.yul\":3378:3387   */\n  dup7\n    /* \"#utility.yul\":3374:3396   */\n  add\n    /* \"#utility.yul\":3332:3406   */\n  tag_46\n  jump\t// in\ntag_109:\n    /* \"#utility.yul\":3322:3406   */\n  swap2\n  pop\n    /* \"#utility.yul\":3124:3416   */\n  pop\n    /* \"#utility.yul\":2570:3423   */\n  swap3\n  pop\n  swap3\n  swap1\n  pop\n  jump\t// out\n    /* \"#utility.yul\":3429:3528   */\ntag_47:\n    /* \"#utility.yul\":3481:3487   */\n  0x00\n    /* \"#utility.yul\":3515:3520   */\n  dup2\n    /* \"#utility.yul\":3509:3521   */\n  mload\n    /* \"#utility.yul\":3499:3521   */\n  swap1\n  pop\n    /* \"#utility.yul\":3429:3528   */\n  swap2\n  swap1\n  pop\n  jump\t// out\n    /* \"#utility.yul\":3534:3714   */\ntag_48:\n    /* \"#utility.yul\":3582:3659   */\n  0x4e487b7100000000000000000000000000000000000000000000000000000000\n    /* \"#utility.yul\":3579:3580   */\n  0x00\n    /* \"#utility.yul\":3572:3660   */\n  mstore\n    /* \"#utility.yul\":3679:3683   */\n  0x22\n    /* \"#utility.yul\":3676:3677   */\n  0x04\n    /* \"#utility.yul\":3669:3684   */\n  mstore\n    /* \"#utility.yul\":3703:3707   */\n  0x24\n    /* \"#utility.yul\":3700:3701   */\n  0x00\n    /* \"#utility.yul\":3693:3708   */\n  revert\n    /* \"#utility.yul\":3720:4040   */\ntag_49:\n    /* \"#utility.yul\":3764:3770   */\n  0x00\n    /* \"#utility.yul\":3801:3802   */\n  0x02\n    /* \"#utility.yul\":3795:3799   */\n  dup3\n    /* \"#utility.yul\":3791:3803   */\n  div\n    /* \"#utility.yul\":3781:3803   */\n  swap1\n  pop\n    /* \"#utility.yul\":3848:3849   */\n  0x01\n    /* \"#utility.yul\":3842:3846   */\n  dup3\n    /* \"#utility.yul\":3838:3850   */\n  and\n    /* \"#utility.yul\":3869:3887   */\n  dup1\n    /* \"#utility.yul\":3859:3940   */\n  tag_113\n  jumpi\n    /* \"#utility.yul\":3925:3929   */\n  0x7f\n    /* \"#utility.yul\":3917:3923   */\n  dup3\n    /* \"#utility.yul\":3913:3930   */\n  and\n    /* \"#utility.yul\":3903:3930   */\n  swap2\n  pop\n    /* \"#utility.yul\":3859:3940   */\ntag_113:\n    /* \"#utility.yul\":3987:3989   */\n  0x20\n    /* \"#utility.yul\":3979:3985   */\n  dup3\n    /* \"#utility.yul\":3976:3990   */\n  lt\n    /* \"#utility.yul\":3956:3974   */\n  dup2\n    /* \"#utility.yul\":3953:3991   */\n  sub\n    /* \"#utility.yul\":3950:4034   */\n  tag_114\n  jumpi\n    /* \"#utility.yul\":4006:4024   */\n  tag_115\n  tag_48\n  jump\t// in\ntag_115:\n    /* \"#utility.yul\":3950:4034   */\ntag_114:\n    /* \"#utility.yul\":3771:4040   */\n  pop\n    /* \"#utility.yul\":3720:4040   */\n  swap2\n  swap1\n  pop\n  jump\t// out\n    /* \"#utility.yul\":4046:4187   */\ntag_50:\n    /* \"#utility.yul\":4095:4099   */\n  0x00\n    /* \"#utility.yul\":4118:4121   */\n  dup2\n    /* \"#utility.yul\":4110:4121   */\n  swap1\n  pop\n    /* \"#utility.yul\":4141:4144   */\n  dup2\n    /* \"#utility.yul\":4138:4139   */\n  0x00\n    /* \"#utility.yul\":4131:4145   */\n  mstore\n    /* \"#utility.yul\":4175:4179   */\n  0x20\n    /* \"#utility.yul\":4172:4173   */\n  0x00\n    /* \"#utility.yul\":4162:4180   */\n  keccak256\n    /* \"#utility.yul\":4154:4180   */\n  swap1\n  pop\n    /* \"#utility.yul\":4046:4187   */\n  swap2\n  swap1\n  pop\n  jump\t// out\n    /* \"#utility.yul\":4193:4286   */\ntag_51:\n    /* \"#utility.yul\":4230:4236   */\n  0x00\n    /* \"#utility.yul\":4277:4279   */\n  0x20\n    /* \"#utility.yul\":4272:4274   */\n  0x1f\n    /* \"#utility.yul\":4265:4270   */\n  dup4\n    /* \"#utility.yul\":4261:4275   */\n  add\n    /* \"#utility.yul\":4257:4280   */\n  div\n    /* \"#utility.yul\":4247:4280   */\n  swap1\n  pop\n    /* \"#utility.yul\":4193:4286   */\n  swap2\n  swap1\n  pop\n  jump\t// out\n    /* \"#utility.yul\":4292:4399   */\ntag_52:\n    /* \"#utility.yul\":4336:4344   */\n  0x00\n    /* \"#utility.yul\":4386:4391   */\n  dup3\n    /* \"#utility.yul\":4380:4384   */\n  dup3\n    /* \"#utility.yul\":4376:4392   */\n  shl\n    /* \"#utility.yul\":4355:4392   */\n  swap1\n  pop\n    /* \"#utility.yul\":4292:4399   */\n  swap3\n  swap2\n  pop\n  pop\n  jump\t// out\n    /* \"#utility.yul\":4405:4798   */\ntag_53:\n    /* \"#utility.yul\":4474:4480   */\n  0x00\n    /* \"#utility.yul\":4524:4525   */\n  0x08\n    /* \"#utility.yul\":4512:4522   */\n  dup4\n    /* \"#utility.yul\":4508:4526   */\n  mul\n    /* \"#utility.yul\":4547:4644   */\n  tag_120\n    /* \"#utility.yul\":4577:4643   */\n  0xffffffffffffffffffffffffffffffffffffffffffffffffffffffffffffffff\n    /* \"#utility.yul\":4566:4575   */\n  dup3\n    /* \"#utility.yul\":4547:4644   */\n  tag_52\n  jump\t// in\ntag_120:\n    /* \"#utility.yul\":4665:4704   */\n  tag_121\n    /* \"#utility.yul\":4695:4703   */\n  dup7\n    /* \"#utility.yul\":4684:4693   */\n  dup4\n    /* \"#utility.yul\":4665:4704   */\n  tag_52\n  jump\t// in\ntag_121:\n    /* \"#utility.yul\":4653:4704   */\n  swap6\n  pop\n    /* \"#utility.yul\":4737:4741   */\n  dup1\n    /* \"#utility.yul\":4733:4742   */\n  not\n    /* \"#utility.yul\":4726:4731   */\n  dup5\n    /* \"#utility.yul\":4722:4743   */\n  and\n    /* \"#utility.yul\":4713:4743   */\n  swap4\n  pop\n    /* \"#utility.yul\":4786:4790   */\n  dup1\n    /* \"#utility.yul\":4776:4784   */\n  dup7\n    /* \"#utility.yul\":4772:4791   */\n  and\n    /* \"#utility.yul\":4765:4770   */\n  dup5\n    /* \"#utility.yul\":4762:4792   */\n  or\n    /* \"#utility.yul\":4752:4792   */\n  swap3\n  pop\n    /* \"#utility.yul\":4481:4798   */\n  pop\n  pop\n    /* \"#utility.yul\":4405:4798   */\n  swap4\n  swap3\n  pop\n  pop\n  pop\n  jump\t// out\n    /* \"#utility.yul\":4804:4881   */\ntag_54:\n    /* \"#utility.yul\":4841:4848   */\n  0x00\n    /* \"#utility.yul\":4870:4875   */\n  dup2\n    /* \"#utility.yul\":4859:4875   */\n  swap1\n  pop\n    /* \"#utility.yul\":4804:4881   */\n  swap2\n  swap1\n  pop\n  jump\t// out\n    /* \"#utility.yul\":4887:4947   */\ntag_55:\n    /* \"#utility.yul\":4915:4918   */\n  0x00\n    /* \"#utility.yul\":4936:4941   */\n  dup2\n    /* \"#utility.yul\":4929:4941   */\n  swap1\n  pop\n    /* \"#utility.yul\":4887:4947   */\n  swap2\n  swap1\n  pop\n  jump\t// out\n    /* \"#utility.yul\":4953:5095   */\ntag_56:\n    /* \"#utility.yul\":5003:5012   */\n  0x00\n    /* \"#utility.yul\":5036:5089   */\n  tag_125\n    /* \"#utility.yul\":5054:5088   */\n  tag_126\n    /* \"#utility.yul\":5063:5087   */\n  tag_127\n    /* \"#utility.yul\":5081:5086   */\n  dup5\n    /* \"#utility.yul\":5063:5087   */\n  tag_54\n  jump\t// in\ntag_127:\n    /* \"#utility.yul\":5054:5088   */\n  tag_55\n  jump\t// in\ntag_126:\n    /* \"#utility.yul\":5036:5089   */\n  tag_54\n  jump\t// in\ntag_125:\n    /* \"#utility.yul\":5023:5089   */\n  swap1\n  pop\n    /* \"#utility.yul\":4953:5095   */\n  swap2\n  swap1\n  pop\n  jump\t// out\n    /* \"#utility.yul\":5101:5176   */\ntag_57:\n    /* \"#utility.yul\":5144:5147   */\n  0x00\n    /* \"#utility.yul\":5165:5170   */\n  dup2\n    /* \"#utility.yul\":5158:5170   */\n  swap1\n  pop\n    /* \"#utility.yul\":5101:5176   */\n  swap2\n  swap1\n  pop\n  jump\t// out\n    /* \"#utility.yul\":5182:5451   */\ntag_58:\n    /* \"#utility.yul\":5292:5331   */\n  tag_130\n    /* \"#utility.yul\":5323:5330   */\n  dup4\n    /* \"#utility.yul\":5292:5331   */\n  tag_56\n  jump\t// in\ntag_130:\n    /* \"#utility.yul\":5353:5444   */\n  tag_131\n    /* \"#utility.yul\":5402:5443   */\n  tag_132\n    /* \"#utility.yul\":5426:5442   */\n  dup3\n    /* \"#utility.yul\":5402:5443   */\n  tag_57\n  jump\t// in\ntag_132:\n    /* \"#utility.yul\":5394:5400   */\n  dup5\n    /* \"#utility.yul\":5387:5391   */\n  dup5\n    /* \"#utility.yul\":5381:5392   */\n  sload\n    /* \"#utility.yul\":5353:5444   */\n  tag_53\n  jump\t// in\ntag_131:\n    /* \"#utility.yul\":5347:5351   */\n  dup3\n    /* \"#utility.yul\":5340:5445   */\n  sstore\n    /* \"#utility.yul\":5258:5451   */\n  pop\n    /* \"#utility.yul\":5182:5451   */\n  pop\n  pop\n  pop\n  jump\t// out\n    /* \"#utility.yul\":5457:5530   */\ntag_59:\n    /* \"#utility.yul\":5502:5505   */\n  0x00\n    /* \"#utility.yul\":5457:5530   */\n  swap1\n  jump\t// out\n    /* \"#utility.yul\":5536:5725   */\ntag_60:\n    /* \"#utility.yul\":5613:5645   */\n  tag_135\n  tag_59\n  jump\t// in\ntag_135:\n    /* \"#utility.yul\":5654:5719   */\n  tag_136\n    /* \"#utility.yul\":5712:5718   */\n  dup2\n    /* \"#utility.yul\":5704:5710   */\n  dup5\n    /* \"#utility.yul\":5698:5702   */\n  dup5\n    /* \"#utility.yul\":5654:5719   */\n  tag_58\n  jump\t// in\ntag_136:\n    /* \"#utility.yul\":5589:5725   */\n  pop\n    /* \"#utility.yul\":5536:5725   */\n  pop\n  pop\n  jump\t// out\n    /* \"#utility.yul\":5731:5917   */\ntag_61:\n    /* \"#utility.yul\":5791:5911   */\ntag_138:\n    /* \"#utility.yul\":5808:5811   */\n  dup2\n    /* \"#utility.yul\":5801:5806   */\n  dup2\n    /* \"#utility.yul\":5798:5812   */\n  lt\n    /* \"#utility.yul\":5791:5911   */\n  iszero\n  tag_140\n  jumpi\n    /* \"#utility.yul\":5862:5901   */\n  tag_141\n    /* \"#utility.yul\":5899:5900   */\n  0x00\n    /* \"#utility.yul\":5892:5897   */\n  dup3\n    /* \"#utility.yul\":5862:5901   */\n  tag_60\n  jump\t// in\ntag_141:\n    /* \"#utility.yul\":5835:5836   */\n  0x01\n    /* \"#utility.yul\":5828:5833   */\n  dup2\n    /* \"#utility.yul\":5824:5837   */\n  add\n    /* \"#utility.yul\":5815:5837   */\n  swap1\n  pop\n    /* \"#utility.yul\":5791:5911   */\n  jump(tag_138)\ntag_140:\n    /* \"#utility.yul\":5731:5917   */\n  pop\n  pop\n  jump\t// out\n    /* \"#utility.yul\":5923:6466   */\ntag_62:\n    /* \"#utility.yul\":6024:6026   */\n  0x1f\n    /* \"#utility.yul\":6019:6022   */\n  dup3\n    /* \"#utility.yul\":6016:6027   */\n  gt\n    /* \"#utility.yul\":6013:6459   */\n  iszero\n  tag_143\n  jumpi\n    /* \"#utility.yul\":6058:6096   */\n  tag_144\n    /* \"#utility.yul\":6090:6095   */\n  dup2\n    /* \"#utility.yul\":6058:6096   */\n  tag_50\n  jump\t// in\ntag_144:\n    /* \"#utility.yul\":6142:6171   */\n  tag_145\n    /* \"#utility.yul\":6160:6170   */\n  dup5\n    /* \"#utility.yul\":6142:6171   */\n  tag_51\n  jump\t// in\ntag_145:\n    /* \"#utility.yul\":6132:6140   */\n  dup2\n    /* \"#utility.yul\":6128:6172   */\n  add\n    /* \"#utility.yul\":6325:6327   */\n  0x20\n    /* \"#utility.yul\":6313:6323   */\n  dup6\n    /* \"#utility.yul\":6310:6328   */\n  lt\n    /* \"#utility.yul\":6307:6356   */\n  iszero\n  tag_146\n  jumpi\n    /* \"#utility.yul\":6346:6354   */\n  dup2\n    /* \"#utility.yul\":6331:6354   */\n  swap1\n  pop\n    /* \"#utility.yul\":6307:6356   */\ntag_146:\n    /* \"#utility.yul\":6369:6449   */\n  tag_147\n    /* \"#utility.yul\":6425:6447   */\n  tag_148\n    /* \"#utility.yul\":6443:6446   */\n  dup6\n    /* \"#utility.yul\":6425:6447   */\n  tag_51\n  jump\t// in\ntag_148:\n    /* \"#utility.yul\":6415:6423   */\n  dup4\n    /* \"#utility.yul\":6411:6448   */\n  add\n    /* \"#utility.yul\":6398:6409   */\n  dup3\n    /* \"#utility.yul\":6369:6449   */\n  tag_61\n  jump\t// in\ntag_147:\n    /* \"#utility.yul\":6028:6459   */\n  pop\n  pop\n    /* \"#utility.yul\":6013:6459   */\ntag_143:\n    /* \"#utility.yul\":5923:6466   */\n  pop\n  pop\n  pop\n  jump\t// out\n    /* \"#utility.yul\":6472:6589   */\ntag_63:\n    /* \"#utility.yul\":6526:6534   */\n  0x00\n    /* \"#utility.yul\":6576:6581   */\n  dup3\n    /* \"#utility.yul\":6570:6574   */\n  dup3\n    /* \"#utility.yul\":6566:6582   */\n  shr\n    /* \"#utility.yul\":6545:6582   */\n  swap1\n  pop\n    /* \"#utility.yul\":6472:6589   */\n  swap3\n  swap2\n  pop\n  pop\n  jump\t// out\n    /* \"#utility.yul\":6595:6764   */\ntag_64:\n    /* \"#utility.yul\":6639:6645   */\n  0x00\n    /* \"#utility.yul\":6672:6723   */\n  tag_151\n    /* \"#utility.yul\":6720:6721   */\n  0x00\n    /* \"#utility.yul\":6716:6722   */\n  not\n    /* \"#utility.yul\":6708:6713   */\n  dup5\n    /* \"#utility.yul\":6705:6706   */\n  0x08\n    /* \"#utility.yul\":6701:6714   */\n  mul\n    /* \"#utility.yul\":6672:6723   */\n  tag_63\n  jump\t// in\ntag_151:\n    /* \"#utility.yul\":6668:6724   */\n  not\n    /* \"#utility.yul\":6753:6757   */\n  dup1\n    /* \"#utility.yul\":6747:6751   */\n  dup4\n    /* \"#utility.yul\":6743:6758   */\n  and\n    /* \"#utility.yul\":6733:6758   */\n  swap2\n  pop\n    /* \"#utility.yul\":6646:6764   */\n  pop\n    /* \"#utility.yul\":6595:6764   */\n  swap3\n  swap2\n  pop\n  pop\n  jump\t// out\n    /* \"#utility.yul\":6769:7064   */\ntag_65:\n    /* \"#utility.yul\":6845:6849   */\n  0x00\n    /* \"#utility.yul\":6991:7020   */\n  tag_153\n    /* \"#utility.yul\":7016:7019   */\n  dup4\n    /* \"#utility.yul\":7010:7014   */\n  dup4\n    /* \"#utility.yul\":6991:7020   */\n  tag_64\n  jump\t// in\ntag_153:\n    /* \"#utility.yul\":6983:7020   */\n  swap2\n  pop\n    /* \"#utility.yul\":7053:7056   */\n  dup3\n    /* \"#utility.yul\":7050:7051   */\n  0x02\n    /* \"#utility.yul\":7046:7057   */\n  mul\n    /* \"#utility.yul\":7040:7044   */\n  dup3\n    /* \"#utility.yul\":7037:7058   */\n  or\n    /* \"#utility.yul\":7029:7058   */\n  swap1\n  pop\n    /* \"#utility.yul\":6769:7064   */\n  swap3\n  swap2\n  pop\n  pop\n  jump\t// out\n    /* \"#utility.yul\":7069:8464   */\ntag_8:\n    /* \"#utility.yul\":7186:7223   */\n  tag_155\n    /* \"#utility.yul\":7219:7222   */\n  dup3\n    /* \"#utility.yul\":7186:7223   */\n  tag_47\n  jump\t// in\ntag_155:\n    /* \"#utility.yul\":7288:7306   */\n  0xffffffffffffffff\n    /* \"#utility.yul\":7280:7286   */\n  dup2\n    /* \"#utility.yul\":7277:7307   */\n  gt\n    /* \"#utility.yul\":7274:7330   */\n  iszero\n  tag_156\n  jumpi\n    /* \"#utility.yul\":7310:7328   */\n  tag_157\n  tag_40\n  jump\t// in\ntag_157:\n    /* \"#utility.yul\":7274:7330   */\ntag_156:\n    /* \"#utility.yul\":7354:7392   */\n  tag_158\n    /* \"#utility.yul\":7386:7390   */\n  dup3\n    /* \"#utility.yul\":7380:7391   */\n  sload\n    /* \"#utility.yul\":7354:7392   */\n  tag_49\n  jump\t// in\ntag_158:\n    /* \"#utility.yul\":7439:7506   */\n  tag_159\n    /* \"#utility.yul\":7499:7505   */\n  dup3\n    /* \"#utility.yul\":7491:7497   */\n  dup3\n    /* \"#utility.yul\":7485:7489   */\n  dup6\n    /* \"#utility.yul\":7439:7506   */\n  tag_62\n  jump\t// in\ntag_159:\n    /* \"#utility.yul\":7533:7534   */\n  0x00\n    /* \"#utility.yul\":7557:7561   */\n  0x20\n    /* \"#utility.yul\":7544:7561   */\n  swap1\n  pop\n    /* \"#utility.yul\":7589:7591   */\n  0x1f\n    /* \"#utility.yul\":7581:7587   */\n  dup4\n    /* \"#utility.yul\":7578:7592   */\n  gt\n    /* \"#utility.yul\":7606:7607   */\n  0x01\n    /* \"#utility.yul\":7601:8219   */\n  dup2\n  eq\n  tag_161\n  jumpi\n    /* \"#utility.yul\":8263:8264   */\n  0x00\n    /* \"#utility.yul\":8280:8286   */\n  dup5\n    /* \"#utility.yul\":8277:8354   */\n  iszero\n  tag_162\n  jumpi\n    /* \"#utility.yul\":8329:8338   */\n  dup3\n    /* \"#utility.yul\":8324:8327   */\n  dup8\n    /* \"#utility.yul\":8320:8339   */\n  add\n    /* \"#utility.yul\":8314:8340   */\n  mload\n    /* \"#utility.yul\":8305:8340   */\n  swap1\n  pop\n    /* \"#utility.yul\":8277:8354   */\ntag_162:\n    /* \"#utility.yul\":8380:8447   */\n  tag_163\n    /* \"#utility.yul\":8440:8446   */\n  dup6\n    /* \"#utility.yul\":8433:8438   */\n  dup3\n    /* \"#utility.yul\":8380:8447   */\n  tag_65\n  jump\t// in\ntag_163:\n    /* \"#utility.yul\":8374:8378   */\n  dup7\n    /* \"#utility.yul\":8367:8448   */\n  sstore\n    /* \"#utility.yul\":8236:8458   */\n  pop\n    /* \"#utility.yul\":7571:8458   */\n  jump(tag_160)\n    /* \"#utility.yul\":7601:8219   */\ntag_161:\n    /* \"#utility.yul\":7653:7657   */\n  0x1f\n    /* \"#utility.yul\":7649:7658   */\n  not\n    /* \"#utility.yul\":7641:7647   */\n  dup5\n    /* \"#utility.yul\":7637:7659   */\n  and\n    /* \"#utility.yul\":7687:7724   */\n  tag_164\n    /* \"#utility.yul\":7719:7723   */\n  dup7\n    /* \"#utility.yul\":7687:7724   */\n  tag_50\n  jump\t// in\ntag_164:\n    /* \"#utility.yul\":7746:7747   */\n  0x00\n    /* \"#utility.yul\":7760:7968   */\ntag_165:\n    /* \"#utility.yul\":7774:7781   */\n  dup3\n    /* \"#utility.yul\":7771:7772   */\n  dup2\n    /* \"#utility.yul\":7768:7782   */\n  lt\n    /* \"#utility.yul\":7760:7968   */\n  iszero\n  tag_167\n  jumpi\n    /* \"#utility.yul\":7853:7862   */\n  dup5\n    /* \"#utility.yul\":7848:7851   */\n  dup10\n    /* \"#utility.yul\":7844:7863   */\n  add\n    /* \"#utility.yul\":7838:7864   */\n  mload\n    /* \"#utility.yul\":7830:7836   */\n  dup3\n    /* \"#utility.yul\":7823:7865   */\n  sstore\n    /* \"#utility.yul\":7904:7905   */\n  0x01\n    /* \"#utility.yul\":7896:7902   */\n  dup3\n    /* \"#utility.yul\":7892:7906   */\n  add\n    /* \"#utility.yul\":7882:7906   */\n  swap2\n  pop\n    /* \"#utility.yul\":7951:7953   */\n  0x20\n    /* \"#utility.yul\":7940:7949   */\n  dup6\n    /* \"#utility.yul\":7936:7954   */\n  add\n    /* \"#utility.yul\":7923:7954   */\n  swap5\n  pop\n    /* \"#utility.yul\":7797:7801   */\n  0x20\n    /* \"#utility.yul\":7794:7795   */\n  dup2\n    /* \"#utility.yul\":7790:7802   */\n  add\n    /* \"#utility.yul\":7785:7802   */\n  swap1\n  pop\n    /* \"#utility.yul\":7760:7968   */\n  jump(tag_165)\ntag_167:\n    /* \"#utility.yul\":7996:8002   */\n  dup7\n    /* \"#utility.yul\":7987:7994   */\n  dup4\n    /* \"#utility.yul\":7984:8003   */\n  lt\n    /* \"#utility.yul\":7981:8160   */\n  iszero\n  tag_168\n  jumpi\n    /* \"#utility.yul\":8054:8063   */\n  dup5\n    /* \"#utility.yul\":8049:8052   */\n  dup10\n    /* \"#utility.yul\":8045:8064   */\n  add\n    /* \"#utility.yul\":8039:8065   */\n  mload\n    /* \"#utility.yul\":8097:8145   */\n  tag_169\n    /* \"#utility.yul\":8139:8143   */\n  0x1f\n    /* \"#utility.yul\":8131:8137   */\n  dup10\n    /* \"#utility.yul\":8127:8144   */\n  and\n    /* \"#utility.yul\":8116:8125   */\n  dup3\n    /* \"#utility.yul\":8097:8145   */\n  tag_64\n  jump\t// in\ntag_169:\n    /* \"#utility.yul\":8089:8095   */\n  dup4\n    /* \"#utility.yul\":8082:8146   */\n  sstore\n    /* \"#utility.yul\":8004:8160   */\n  pop\n    /* \"#utility.yul\":7981:8160   */\ntag_168:\n    /* \"#utility.yul\":8206:8207   */\n  0x01\n    /* \"#utility.yul\":8202:8203   */\n  0x02\n    /* \"#utility.yul\":8194:8200   */\n  dup9\n    /* \"#utility.yul\":8190:8204   */\n  mul\n    /* \"#utility.yul\":8186:8208   */\n  add\n    /* \"#utility.yul\":8180:8184   */\n  dup9\n    /* \"#utility.yul\":8173:8209   */\n  sstore\n    /* \"#utility.yul\":7608:8219   */\n  pop\n  pop\n  pop\n    /* \"#utility.yul\":7571:8458   */\ntag_160:\n  pop\n    /* \"#utility.yul\":7161:8464   */\n  pop\n  pop\n  pop\n    /* \"#utility.yul\":7069:8464   */\n  pop\n  pop\n  jump\t// out\n    /* \"#utility.yul\":8470:8650   */\ntag_66:\n    /* \"#utility.yul\":8518:8595   */\n  0x4e487b7100000000000000000000000000000000000000000000000000000000\n    /* \"#utility.yul\":8515:8516   */\n  0x00\n    /* \"#utility.yul\":8508:8596   */\n  mstore\n    /* \"#utility.yul\":8615:8619   */\n  0x11\n    /* \"#utility.yul\":8612:8613   */\n  0x04\n    /* \"#utility.yul\":8605:8620   */\n  mstore\n    /* \"#utility.yul\":8639:8643   */\n  0x24\n    /* \"#utility.yul\":8636:8637   */\n  0x00\n    /* \"#utility.yul\":8629:8644   */\n  revert\n    /* \"#utility.yul\":8656:9066   */\ntag_13:\n    /* \"#utility.yul\":8696:8703   */\n  0x00\n    /* \"#utility.yul\":8719:8739   */\n  tag_172\n    /* \"#utility.yul\":8737:8738   */\n  dup3\n    /* \"#utility.yul\":8719:8739   */\n  tag_54\n  jump\t// in\ntag_172:\n    /* \"#utility.yul\":8714:8739   */\n  swap2\n  pop\n    /* \"#utility.yul\":8753:8773   */\n  tag_173\n    /* \"#utility.yul\":8771:8772   */\n  dup4\n    /* \"#utility.yul\":8753:8773   */\n  tag_54\n  jump\t// in\ntag_173:\n    /* \"#utility.yul\":8748:8773   */\n  swap3\n  pop\n    /* \"#utility.yul\":8808:8809   */\n  dup3\n    /* \"#utility.yul\":8805:8806   */\n  dup3\n    /* \"#utility.yul\":8801:8810   */\n  mul\n    /* \"#utility.yul\":8830:8860   */\n  tag_174\n    /* \"#utility.yul\":8848:8859   */\n  dup2\n    /* \"#utility.yul\":8830:8860   */\n  tag_54\n  jump\t// in\ntag_174:\n    /* \"#utility.yul\":8819:8860   */\n  swap2\n  pop\n    /* \"#utility.yul\":9009:9010   */\n  dup3\n    /* \"#utility.yul\":9000:9007   */\n  dup3\n    /* \"#utility.yul\":8996:9011   */\n  div\n    /* \"#utility.yul\":8993:8994   */\n  dup5\n    /* \"#utility.yul\":8990:9012   */\n  eq\n    /* \"#utility.yul\":8970:8971   */\n  dup4\n    /* \"#utility.yul\":8963:8972   */\n  iszero\n    /* \"#utility.yul\":8943:9026   */\n  or\n    /* \"#utility.yul\":8920:9059   */\n  tag_175\n  jumpi\n    /* \"#utility.yul\":9039:9057   */\n  tag_176\n  tag_66\n  jump\t// in\ntag_176:\n    /* \"#utility.yul\":8920:9059   */\ntag_175:\n    /* \"#utility.yul\":8704:9066   */\n  pop\n    /* \"#utility.yul\":8656:9066   */\n  swap3\n  swap2\n  pop\n  pop\n  jump\t// out\n    /* \"#utility.yul\":9072:9198   */\ntag_67:\n    /* \"#utility.yul\":9109:9116   */\n  0x00\n    /* \"#utility.yul\":9149:9191   */\n  0xffffffffffffffffffffffffffffffffffffffff\n    /* \"#utility.yul\":9142:9147   */\n  dup3\n    /* \"#utility.yul\":9138:9192   */\n  and\n    /* \"#utility.yul\":9127:9192   */\n  swap1\n  pop\n    /* \"#utility.yul\":9072:9198   */\n  swap2\n  swap1\n  pop\n  jump\t// out\n    /* \"#utility.yul\":9204:9300   */\ntag_68:\n    /* \"#utility.yul\":9241:9248   */\n  0x00\n    /* \"#utility.yul\":9270:9294   */\n  tag_179\n    /* \"#utility.yul\":9288:9293   */\n  dup3\n    /* \"#utility.yul\":9270:9294   */\n  tag_67\n  jump\t// in\ntag_179:\n    /* \"#utility.yul\":9259:9294   */\n  swap1\n  pop\n    /* \"#utility.yul\":9204:9300   */\n  swap2\n  swap1\n  pop\n  jump\t// out\n    /* \"#utility.yul\":9306:9424   */\ntag_69:\n    /* \"#utility.yul\":9393:9417   */\n  tag_181\n    /* \"#utility.yul\":9411:9416   */\n  dup2\n    /* \"#utility.yul\":9393:9417   */\n  tag_68\n  jump\t// in\ntag_181:\n    /* \"#utility.yul\":9388:9391   */\n  dup3\n    /* \"#utility.yul\":9381:9418   */\n  mstore\n    /* \"#utility.yul\":9306:9424   */\n  pop\n  pop\n  jump\t// out\n    /* \"#utility.yul\":9430:9652   */\ntag_19:\n    /* \"#utility.yul\":9523:9527   */\n  0x00\n    /* \"#utility.yul\":9561:9563   */\n  0x20\n    /* \"#utility.yul\":9550:9559   */\n  dup3\n    /* \"#utility.yul\":9546:9564   */\n  add\n    /* \"#utility.yul\":9538:9564   */\n  swap1\n  pop\n    /* \"#utility.yul\":9574:9645   */\n  tag_183\n    /* \"#utility.yul\":9642:9643   */\n  0x00\n    /* \"#utility.yul\":9631:9640   */\n  dup4\n    /* \"#utility.yul\":9627:9644   */\n  add\n    /* \"#utility.yul\":9618:9624   */\n  dup5\n    /* \"#utility.yul\":9574:9645   */\n  tag_69\n  jump\t// in\ntag_183:\n    /* \"#utility.yul\":9430:9652   */\n  swap3\n  swap2\n  pop\n  pop\n  jump\t// out\n    /* \"#utility.yul\":9658:9849   */\ntag_25:\n    /* \"#utility.yul\":9698:9701   */\n  0x00\n    /* \"#utility.yul\":9717:9737   */\n  tag_185\n    /* \"#utility.yul\":9735:9736   */\n  dup3\n    /* \"#utility.yul\":9717:9737   */\n  tag_54\n  jump\t// in\ntag_185:\n    /* \"#utility.yul\":9712:9737   */\n  swap2\n  pop\n    /* \"#utility.yul\":9751:9771   */\n  tag_186\n    /* \"#utility.yul\":9769:9770   */\n  dup4\n    /* \"#utility.yul\":9751:9771   */\n  tag_54\n  jump\t// in\ntag_186:\n    /* \"#utility.yul\":9746:9771   */\n  swap3\n  pop\n    /* \"#utility.yul\":9794:9795   */\n  dup3\n    /* \"#utility.yul\":9791:9792   */\n  dup3\n    /* \"#utility.yul\":9787:9796   */\n  add\n    /* \"#utility.yul\":9780:9796   */\n  swap1\n  pop\n    /* \"#utility.yul\":9815:9818   */\n  dup1\n    /* \"#utility.yul\":9812:9813   */\n  dup3\n    /* \"#utility.yul\":9809:9819   */\n  gt\n    /* \"#utility.yul\":9806:9842   */\n  iszero\n  tag_187\n  jumpi\n    /* \"#utility.yul\":9822:9840   */\n  tag_188\n  tag_66\n  jump\t// in\ntag_188:\n    /* \"#utility.yul\":9806:9842   */\ntag_187:\n    /* \"#utility.yul\":9658:9849   */\n  swap3\n  swap2\n  pop\n  pop\n  jump\t// out\n    /* \"#utility.yul\":9855:9973   */\ntag_70:\n    /* \"#utility.yul\":9942:9966   */\n  tag_190\n    /* \"#utility.yul\":9960:9965   */\n  dup2\n    /* \"#utility.yul\":9942:9966   */\n  tag_54\n  jump\t// in\ntag_190:\n    /* \"#utility.yul\":9937:9940   */\n  dup3\n    /* \"#utility.yul\":9930:9967   */\n  mstore\n    /* \"#utility.yul\":9855:9973   */\n  pop\n  pop\n  jump\t// out\n    /* \"#utility.yul\":9979:10421   */\ntag_29:\n    /* \"#utility.yul\":10128:10132   */\n  0x00\n    /* \"#utility.yul\":10166:10168   */\n  0x60\n    /* \"#utility.yul\":10155:10164   */\n  dup3\n    /* \"#utility.yul\":10151:10169   */\n  add\n    /* \"#utility.yul\":10143:10169   */\n  swap1\n  pop\n    /* \"#utility.yul\":10179:10250   */\n  tag_192\n    /* \"#utility.yul\":10247:10248   */\n  0x00\n    /* \"#utility.yul\":10236:10245   */\n  dup4\n    /* \"#utility.yul\":10232:10249   */\n  add\n    /* \"#utility.yul\":10223:10229   */\n  dup7\n    /* \"#utility.yul\":10179:10250   */\n  tag_69\n  jump\t// in\ntag_192:\n    /* \"#utility.yul\":10260:10332   */\n  tag_193\n    /* \"#utility.yul\":10328:10330   */\n  0x20\n    /* \"#utility.yul\":10317:10326   */\n  dup4\n    /* \"#utility.yul\":10313:10331   */\n  add\n    /* \"#utility.yul\":10304:10310   */\n  dup6\n    /* \"#utility.yul\":10260:10332   */\n  tag_70\n  jump\t// in\ntag_193:\n    /* \"#utility.yul\":10342:10414   */\n  tag_194\n    /* \"#utility.yul\":10410:10412   */\n  0x40\n    /* \"#utility.yul\":10399:10408   */\n  dup4\n    /* \"#utility.yul\":10395:10413   */\n  add\n    /* \"#utility.yul\":10386:10392   */\n  dup5\n    /* \"#utility.yul\":10342:10414   */\n  tag_70\n  jump\t// in\ntag_194:\n    /* \"#utility.yul\":9979:10421   */\n  swap5\n  swap4\n  pop\n  pop\n  pop\n  pop\n  jump\t// out\n    /* \"#utility.yul\":10427:10649   */\ntag_33:\n    /* \"#utility.yul\":10520:10524   */\n  0x00\n    /* \"#utility.yul\":10558:10560   */\n  0x20\n    /* \"#utility.yul\":10547:10556   */\n  dup3\n    /* \"#utility.yul\":10543:10561   */\n  add\n    /* \"#utility.yul\":10535:10561   */\n  swap1\n  pop\n    /* \"#utility.yul\":10571:10642   */\n  tag_196\n    /* \"#utility.yul\":10639:10640   */\n  0x00\n    /* \"#utility.yul\":10628:10637   */\n  dup4\n    /* \"#utility.yul\":10624:10641   */\n  add\n    /* \"#utility.yul\":10615:10621   */\n  dup5\n    /* \"#utility.yul\":10571:10642   */\n  tag_70\n  jump\t// in\ntag_196:\n    /* \"#utility.yul\":10427:10649   */\n  swap3\n  swap2\n  pop\n  pop\n  jump\t// out\n    /* \"contracts/flipit.sol\":169:2796  contract flipit is ERC20 {... */\ntag_15:\n  dataSize(sub_0)\n  dup1\n  dataOffset(sub_0)\n  0x00\n  codecopy\n  0x00\n  return\nstop\n\nsub_0: assembly {\n        /* \"contracts/flipit.sol\":169:2796  contract flipit is ERC20 {... */\n      mstore(0x40, 0x80)\n      jumpi(tag_1, lt(calldatasize, 0x04))\n      shr(0xe0, calldataload(0x00))\n      dup1\n      0x313ce567\n      gt\n      tag_23\n      jumpi\n      dup1\n      0x95d89b41\n      gt\n      tag_24\n      jumpi\n      dup1\n      0x95d89b41\n      eq\n      tag_17\n      jumpi\n      dup1\n      0x9fe5491c\n      eq\n      tag_18\n      jumpi\n      dup1\n      0xa9059cbb\n      eq\n      tag_19\n      jumpi\n      dup1\n      0xb90306ad\n      eq\n      tag_20\n      jumpi\n      dup1\n      0xc12019eb\n      eq\n      tag_21\n      jumpi\n      dup1\n      0xdd62ed3e\n      eq\n      tag_22\n      jumpi\n      jump(tag_1)\n    tag_24:\n      dup1\n      0x313ce567\n      eq\n      tag_12\n      jumpi\n      dup1\n      0x47cee97c\n      eq\n      tag_13\n      jumpi\n      dup1\n      0x6010b797\n      eq\n      tag_14\n      jumpi\n      dup1\n      0x6d41b22c\n      eq\n      tag_15\n      jumpi\n      dup1\n      0x70a08231\n      eq\n      tag_16\n      jumpi\n      jump(tag_1)\n    tag_23:\n      dup1\n      0x1e548d7a\n      gt\n      tag_25\n      jumpi\n      dup1\n      0x1e548d7a\n      eq\n      tag_7\n      jumpi\n      dup1\n      0x20c63d56\n      eq\n      tag_8\n      jumpi\n      dup1\n      0x21ba18a1\n      eq\n      tag_9\n      jumpi\n      dup1\n      0x239fcf0f\n      eq\n      tag_10\n      jumpi\n      dup1\n      0x23b872dd\n      eq\n      tag_11\n      jumpi\n      jump(tag_1)\n    tag_25:\n      dup1\n      0x06763788\n      eq\n      tag_2\n      jumpi\n      dup1\n      0x06fdde03\n      eq\n      tag_3\n      jumpi\n      dup1\n      0x095ea7b3\n      eq\n      tag_4\n      jumpi\n      dup1\n      0x0fdb1c10\n      eq\n      tag_5\n      jumpi\n      dup1\n      0x18160ddd\n      eq\n      tag_6\n      jumpi\n    tag_1:\n      0x00\n      dup1\n      revert\n        /* \"contracts/flipit.sol\":2671:2794  function addressBalnc(address _user) public view  returns (uint256){... */\n    tag_2:\n      callvalue\n      dup1\n      iszero\n      tag_26\n      jumpi\n      0x00\n      dup1\n      revert\n    tag_26:\n      pop\n      tag_27\n      0x04\n      dup1\n      calldatasize\n      sub\n      dup2\n      add\n      swap1\n      tag_28\n      swap2\n      swap1\n      tag_29\n      jump\t// in\n    tag_28:\n      tag_30\n      jump\t// in\n    tag_27:\n      mload(0x40)\n      tag_31\n      swap2\n      swap1\n      tag_32\n      jump\t// in\n    tag_31:\n      mload(0x40)\n      dup1\n      swap2\n      sub\n      swap1\n      return\n        /* \"https://github.com/OpenZeppelin/openzeppelin-contracts/blob/master/contracts/token/ERC20/ERC20.sol\":1779:1868  function name() public view virtual returns (string memory) {... */\n    tag_3:\n      callvalue\n      dup1\n      iszero\n      tag_33\n      jumpi\n      0x00\n      dup1\n      revert\n    tag_33:\n      pop\n      tag_34\n      tag_35\n      jump\t// in\n    tag_34:\n      mload(0x40)\n      tag_36\n      swap2\n      swap1\n      tag_37\n      jump\t// in\n    tag_36:\n      mload(0x40)\n      dup1\n      swap2\n      sub\n      swap1\n      return\n        /* \"https://github.com/OpenZeppelin/openzeppelin-contracts/blob/master/contracts/token/ERC20/ERC20.sol\":4002:4188  function approve(address spender, uint256 value) public virtual returns (bool) {... */\n    tag_4:\n      callvalue\n      dup1\n      iszero\n      tag_38\n      jumpi\n      0x00\n      dup1\n      revert\n    tag_38:\n      pop\n      tag_39\n      0x04\n      dup1\n      calldatasize\n      sub\n      dup2\n      add\n      swap1\n      tag_40\n      swap2\n      swap1\n      tag_41\n      jump\t// in\n    tag_40:\n      tag_42\n      jump\t// in\n    tag_39:\n      mload(0x40)\n      tag_43\n      swap2\n      swap1\n      tag_44\n      jump\t// in\n    tag_43:\n      mload(0x40)\n      dup1\n      swap2\n      sub\n      swap1\n      return\n        /* \"contracts/flipit.sol\":2519:2666  function withDraw() public {... */\n    tag_5:\n      callvalue\n      dup1\n      iszero\n      tag_45\n      jumpi\n      0x00\n      dup1\n      revert\n    tag_45:\n      pop\n      tag_46\n      tag_47\n      jump\t// in\n    tag_46:\n      stop\n        /* \"https://github.com/OpenZeppelin/openzeppelin-contracts/blob/master/contracts/token/ERC20/ERC20.sol\":2849:2946  function totalSupply() public view virtual returns (uint256) {... */\n    tag_6:\n      callvalue\n      dup1\n      iszero\n      tag_48\n      jumpi\n      0x00\n      dup1\n      revert\n    tag_48:\n      pop\n      tag_49\n      tag_50\n      jump\t// in\n    tag_49:\n      mload(0x40)\n      tag_51\n      swap2\n      swap1\n      tag_32\n      jump\t// in\n    tag_51:\n      mload(0x40)\n      dup1\n      swap2\n      sub\n      swap1\n      return\n        /* \"contracts/flipit.sol\":748:901  function pumptit(uint256 _pumpMint) public {... */\n    tag_7:\n      callvalue\n      dup1\n      iszero\n      tag_52\n      jumpi\n      0x00\n      dup1\n      revert\n    tag_52:\n      pop\n      tag_53\n      0x04\n      dup1\n      calldatasize\n      sub\n      dup2\n      add\n      swap1\n      tag_54\n      swap2\n      swap1\n      tag_55\n      jump\t// in\n    tag_54:\n      tag_56\n      jump\t// in\n    tag_53:\n      stop\n        /* \"contracts/flipit.sol\":2058:2146  function payContractGasFee() public payable {... */\n    tag_8:\n      tag_57\n      tag_58\n      jump\t// in\n    tag_57:\n      stop\n        /* \"contracts/flipit.sol\":1639:1874  function flipClick(address _addrs, uint256 _amount) external {... */\n    tag_9:\n      callvalue\n      dup1\n      iszero\n      tag_59\n      jumpi\n      0x00\n      dup1\n      revert\n    tag_59:\n      pop\n      tag_60\n      0x04\n      dup1\n      calldatasize\n      sub\n      dup2\n      add\n      swap1\n      tag_61\n      swap2\n      swap1\n      tag_41\n      jump\t// in\n    tag_61:\n      tag_62\n      jump\t// in\n    tag_60:\n      stop\n        /* \"contracts/flipit.sol\":1529:1633  function Balance(address _user) external view returns (uint256) {... */\n    tag_10:\n      callvalue\n      dup1\n      iszero\n      tag_63\n      jumpi\n      0x00\n      dup1\n      revert\n    tag_63:\n      pop\n      tag_64\n      0x04\n      dup1\n      calldatasize\n      sub\n      dup2\n      add\n      swap1\n      tag_65\n      swap2\n      swap1\n      tag_29\n      jump\t// in\n    tag_65:\n      tag_66\n      jump\t// in\n    tag_64:\n      mload(0x40)\n      tag_67\n      swap2\n      swap1\n      tag_32\n      jump\t// in\n    tag_67:\n      mload(0x40)\n      dup1\n      swap2\n      sub\n      swap1\n      return\n        /* \"https://github.com/OpenZeppelin/openzeppelin-contracts/blob/master/contracts/token/ERC20/ERC20.sol\":4780:5024  function transferFrom(address from, address to, uint256 value) public virtual returns (bool) {... */\n    tag_11:\n      callvalue\n      dup1\n      iszero\n      tag_68\n      jumpi\n      0x00\n      dup1\n      revert\n    tag_68:\n      pop\n      tag_69\n      0x04\n      dup1\n      calldatasize\n      sub\n      dup2\n      add\n      swap1\n      tag_70\n      swap2\n      swap1\n      tag_71\n      jump\t// in\n    tag_70:\n      tag_72\n      jump\t// in\n    tag_69:\n      mload(0x40)\n      tag_73\n      swap2\n      swap1\n      tag_44\n      jump\t// in\n    tag_73:\n      mload(0x40)\n      dup1\n      swap2\n      sub\n      swap1\n      return\n        /* \"https://github.com/OpenZeppelin/openzeppelin-contracts/blob/master/contracts/token/ERC20/ERC20.sol\":2707:2789  function decimals() public view virtual returns (uint8) {... */\n    tag_12:\n      callvalue\n      dup1\n      iszero\n      tag_74\n      jumpi\n      0x00\n      dup1\n      revert\n    tag_74:\n      pop\n      tag_75\n      tag_76\n      jump\t// in\n    tag_75:\n      mload(0x40)\n      tag_77\n      swap2\n      swap1\n      tag_78\n      jump\t// in\n    tag_77:\n      mload(0x40)\n      dup1\n      swap2\n      sub\n      swap1\n      return\n        /* \"contracts/flipit.sol\":989:1325  function Claim(address _addrs, uint _amount) external {... */\n    tag_13:\n      callvalue\n      dup1\n      iszero\n      tag_79\n      jumpi\n      0x00\n      dup1\n      revert\n    tag_79:\n      pop\n      tag_80\n      0x04\n      dup1\n      calldatasize\n      sub\n      dup2\n      add\n      swap1\n      tag_81\n      swap2\n      swap1\n      tag_41\n      jump\t// in\n    tag_81:\n      tag_82\n      jump\t// in\n    tag_80:\n      stop\n        /* \"contracts/flipit.sol\":2151:2363  function realTime(address _addrs) public view returns(uint256){... */\n    tag_14:\n      callvalue\n      dup1\n      iszero\n      tag_83\n      jumpi\n      0x00\n      dup1\n      revert\n    tag_83:\n      pop\n      tag_84\n      0x04\n      dup1\n      calldatasize\n      sub\n      dup2\n      add\n      swap1\n      tag_85\n      swap2\n      swap1\n      tag_29\n      jump\t// in\n    tag_85:\n      tag_86\n      jump\t// in\n    tag_84:\n      mload(0x40)\n      tag_87\n      swap2\n      swap1\n      tag_32\n      jump\t// in\n    tag_87:\n      mload(0x40)\n      dup1\n      swap2\n      sub\n      swap1\n      return\n        /* \"contracts/flipit.sol\":906:984  function decimalsz() public pure returns(uint){... */\n    tag_15:\n      callvalue\n      dup1\n      iszero\n      tag_88\n      jumpi\n      0x00\n      dup1\n      revert\n    tag_88:\n      pop\n      tag_89\n      tag_90\n      jump\t// in\n    tag_89:\n      mload(0x40)\n      tag_91\n      swap2\n      swap1\n      tag_32\n      jump\t// in\n    tag_91:\n      mload(0x40)\n      dup1\n      swap2\n      sub\n      swap1\n      return\n        /* \"https://github.com/OpenZeppelin/openzeppelin-contracts/blob/master/contracts/token/ERC20/ERC20.sol\":3004:3120  function balanceOf(address account) public view virtual returns (uint256) {... */\n    tag_16:\n      callvalue\n      dup1\n      iszero\n      tag_92\n      jumpi\n      0x00\n      dup1\n      revert\n    tag_92:\n      pop\n      tag_93\n      0x04\n      dup1\n      calldatasize\n      sub\n      dup2\n      add\n      swap1\n      tag_94\n      swap2\n      swap1\n      tag_29\n      jump\t// in\n    tag_94:\n      tag_95\n      jump\t// in\n    tag_93:\n      mload(0x40)\n      tag_96\n      swap2\n      swap1\n      tag_32\n      jump\t// in\n    tag_96:\n      mload(0x40)\n      dup1\n      swap2\n      sub\n      swap1\n      return\n        /* \"https://github.com/OpenZeppelin/openzeppelin-contracts/blob/master/contracts/token/ERC20/ERC20.sol\":1981:2074  function symbol() public view virtual returns (string memory) {... */\n    tag_17:\n      callvalue\n      dup1\n      iszero\n      tag_97\n      jumpi\n      0x00\n      dup1\n      revert\n    tag_97:\n      pop\n      tag_98\n      tag_99\n      jump\t// in\n    tag_98:\n      mload(0x40)\n      tag_100\n      swap2\n      swap1\n      tag_37\n      jump\t// in\n    tag_100:\n      mload(0x40)\n      dup1\n      swap2\n      sub\n      swap1\n      return\n        /* \"contracts/flipit.sol\":1880:2052  function gain(address _addrs, uint256 _tokenStaked) public {... */\n    tag_18:\n      callvalue\n      dup1\n      iszero\n      tag_101\n      jumpi\n      0x00\n      dup1\n      revert\n    tag_101:\n      pop\n      tag_102\n      0x04\n      dup1\n      calldatasize\n      sub\n      dup2\n      add\n      swap1\n      tag_103\n      swap2\n      swap1\n      tag_41\n      jump\t// in\n    tag_103:\n      tag_104\n      jump\t// in\n    tag_102:\n      stop\n        /* \"https://github.com/OpenZeppelin/openzeppelin-contracts/blob/master/contracts/token/ERC20/ERC20.sol\":3319:3497  function transfer(address to, uint256 value) public virtual returns (bool) {... */\n    tag_19:\n      callvalue\n      dup1\n      iszero\n      tag_105\n      jumpi\n      0x00\n      dup1\n      revert\n    tag_105:\n      pop\n      tag_106\n      0x04\n      dup1\n      calldatasize\n      sub\n      dup2\n      add\n      swap1\n      tag_107\n      swap2\n      swap1\n      tag_41\n      jump\t// in\n    tag_107:\n      tag_108\n      jump\t// in\n    tag_106:\n      mload(0x40)\n      tag_109\n      swap2\n      swap1\n      tag_44\n      jump\t// in\n    tag_109:\n      mload(0x40)\n      dup1\n      swap2\n      sub\n      swap1\n      return\n        /* \"contracts/flipit.sol\":1331:1523  function Burn(uint256 _value) external {... */\n    tag_20:\n      callvalue\n      dup1\n      iszero\n      tag_110\n      jumpi\n      0x00\n      dup1\n      revert\n    tag_110:\n      pop\n      tag_111\n      0x04\n      dup1\n      calldatasize\n      sub\n      dup2\n      add\n      swap1\n      tag_112\n      swap2\n      swap1\n      tag_55\n      jump\t// in\n    tag_112:\n      tag_113\n      jump\t// in\n    tag_111:\n      stop\n        /* \"contracts/flipit.sol\":2368:2514  function SenderEth() public view returns(address[] memory){... */\n    tag_21:\n      callvalue\n      dup1\n      iszero\n      tag_114\n      jumpi\n      0x00\n      dup1\n      revert\n    tag_114:\n      pop\n      tag_115\n      tag_116\n      jump\t// in\n    tag_115:\n      mload(0x40)\n      tag_117\n      swap2\n      swap1\n      tag_118\n      jump\t// in\n    tag_117:\n      mload(0x40)\n      dup1\n      swap2\n      sub\n      swap1\n      return\n        /* \"https://github.com/OpenZeppelin/openzeppelin-contracts/blob/master/contracts/token/ERC20/ERC20.sol\":3555:3695  function allowance(address owner, address spender) public view virtual returns (uint256) {... */\n    tag_22:\n      callvalue\n      dup1\n      iszero\n      tag_119\n      jumpi\n      0x00\n      dup1\n      revert\n    tag_119:\n      pop\n      tag_120\n      0x04\n      dup1\n      calldatasize\n      sub\n      dup2\n      add\n      swap1\n      tag_121\n      swap2\n      swap1\n      tag_122\n      jump\t// in\n    tag_121:\n      tag_123\n      jump\t// in\n    tag_120:\n      mload(0x40)\n      tag_124\n      swap2\n      swap1\n      tag_32\n      jump\t// in\n    tag_124:\n      mload(0x40)\n      dup1\n      swap2\n      sub\n      swap1\n      return\n        /* \"contracts/flipit.sol\":2671:2794  function addressBalnc(address _user) public view  returns (uint256){... */\n    tag_30:\n        /* \"contracts/flipit.sol\":2730:2737  uint256 */\n      0x00\n        /* \"contracts/flipit.sol\":2755:2760  _user */\n      dup2\n        /* \"contracts/flipit.sol\":2755:2768  _user.balance */\n      0xffffffffffffffffffffffffffffffffffffffff\n      and\n      balance\n        /* \"contracts/flipit.sol\":2748:2768  return _user.balance */\n      swap1\n      pop\n        /* \"contracts/flipit.sol\":2671:2794  function addressBalnc(address _user) public view  returns (uint256){... */\n      swap2\n      swap1\n      pop\n      jump\t// out\n        /* \"https://github.com/OpenZeppelin/openzeppelin-contracts/blob/master/contracts/token/ERC20/ERC20.sol\":1779:1868  function name() public view virtual returns (string memory) {... */\n    tag_35:\n        /* \"https://github.com/OpenZeppelin/openzeppelin-contracts/blob/master/contracts/token/ERC20/ERC20.sol\":1824:1837  string memory */\n      0x60\n        /* \"https://github.com/OpenZeppelin/openzeppelin-contracts/blob/master/contracts/token/ERC20/ERC20.sol\":1856:1861  _name */\n      0x03\n        /* \"https://github.com/OpenZeppelin/openzeppelin-contracts/blob/master/contracts/token/ERC20/ERC20.sol\":1849:1861  return _name */\n      dup1\n      sload\n      tag_127\n      swap1\n      tag_128\n      jump\t// in\n    tag_127:\n      dup1\n      0x1f\n      add\n      0x20\n      dup1\n      swap2\n      div\n      mul\n      0x20\n      add\n      mload(0x40)\n      swap1\n      dup2\n      add\n      0x40\n      mstore\n      dup1\n      swap3\n      swap2\n      swap1\n      dup2\n      dup2\n      mstore\n      0x20\n      add\n      dup3\n      dup1\n      sload\n      tag_129\n      swap1\n      tag_128\n      jump\t// in\n    tag_129:\n      dup1\n      iszero\n      tag_130\n      jumpi\n      dup1\n      0x1f\n      lt\n      tag_131\n      jumpi\n      0x0100\n      dup1\n      dup4\n      sload\n      div\n      mul\n      dup4\n      mstore\n      swap2\n      0x20\n      add\n      swap2\n      jump(tag_130)\n    tag_131:\n      dup3\n      add\n      swap2\n      swap1\n      0x00\n      mstore\n      keccak256(0x00, 0x20)\n      swap1\n    tag_132:\n      dup2\n      sload\n      dup2\n      mstore\n      swap1\n      0x01\n      add\n      swap1\n      0x20\n      add\n      dup1\n      dup4\n      gt\n      tag_132\n      jumpi\n      dup3\n      swap1\n      sub\n      0x1f\n      and\n      dup3\n      add\n      swap2\n    tag_130:\n      pop\n      pop\n      pop\n      pop\n      pop\n      swap1\n      pop\n        /* \"https://github.com/OpenZeppelin/openzeppelin-contracts/blob/master/contracts/token/ERC20/ERC20.sol\":1779:1868  function name() public view virtual returns (string memory) {... */\n      swap1\n      jump\t// out\n        /* \"https://github.com/OpenZeppelin/openzeppelin-contracts/blob/master/contracts/token/ERC20/ERC20.sol\":4002:4188  function approve(address spender, uint256 value) public virtual returns (bool) {... */\n    tag_42:\n        /* \"https://github.com/OpenZeppelin/openzeppelin-contracts/blob/master/contracts/token/ERC20/ERC20.sol\":4075:4079  bool */\n      0x00\n        /* \"https://github.com/OpenZeppelin/openzeppelin-contracts/blob/master/contracts/token/ERC20/ERC20.sol\":4091:4104  address owner */\n      dup1\n        /* \"https://github.com/OpenZeppelin/openzeppelin-contracts/blob/master/contracts/token/ERC20/ERC20.sol\":4107:4119  _msgSender() */\n      tag_134\n        /* \"https://github.com/OpenZeppelin/openzeppelin-contracts/blob/master/contracts/token/ERC20/ERC20.sol\":4107:4117  _msgSender */\n      tag_135\n        /* \"https://github.com/OpenZeppelin/openzeppelin-contracts/blob/master/contracts/token/ERC20/ERC20.sol\":4107:4119  _msgSender() */\n      jump\t// in\n    tag_134:\n        /* \"https://github.com/OpenZeppelin/openzeppelin-contracts/blob/master/contracts/token/ERC20/ERC20.sol\":4091:4119  address owner = _msgSender() */\n      swap1\n      pop\n        /* \"https://github.com/OpenZeppelin/openzeppelin-contracts/blob/master/contracts/token/ERC20/ERC20.sol\":4129:4160  _approve(owner, spender, value) */\n      tag_136\n        /* \"https://github.com/OpenZeppelin/openzeppelin-contracts/blob/master/contracts/token/ERC20/ERC20.sol\":4138:4143  owner */\n      dup2\n        /* \"https://github.com/OpenZeppelin/openzeppelin-contracts/blob/master/contracts/token/ERC20/ERC20.sol\":4145:4152  spender */\n      dup6\n        /* \"https://github.com/OpenZeppelin/openzeppelin-contracts/blob/master/contracts/token/ERC20/ERC20.sol\":4154:4159  value */\n      dup6\n        /* \"https://github.com/OpenZeppelin/openzeppelin-contracts/blob/master/contracts/token/ERC20/ERC20.sol\":4129:4137  _approve */\n      tag_137\n        /* \"https://github.com/OpenZeppelin/openzeppelin-contracts/blob/master/contracts/token/ERC20/ERC20.sol\":4129:4160  _approve(owner, spender, value) */\n      jump\t// in\n    tag_136:\n        /* \"https://github.com/OpenZeppelin/openzeppelin-contracts/blob/master/contracts/token/ERC20/ERC20.sol\":4177:4181  true */\n      0x01\n        /* \"https://github.com/OpenZeppelin/openzeppelin-contracts/blob/master/contracts/token/ERC20/ERC20.sol\":4170:4181  return true */\n      swap2\n      pop\n      pop\n        /* \"https://github.com/OpenZeppelin/openzeppelin-contracts/blob/master/contracts/token/ERC20/ERC20.sol\":4002:4188  function approve(address spender, uint256 value) public virtual returns (bool) {... */\n      swap3\n      swap2\n      pop\n      pop\n      jump\t// out\n        /* \"contracts/flipit.sol\":2519:2666  function withDraw() public {... */\n    tag_47:\n        /* \"contracts/flipit.sol\":2575:2585  msg.sender */\n      caller\n        /* \"contracts/flipit.sol\":2564:2585  _owner_ == msg.sender */\n      0xffffffffffffffffffffffffffffffffffffffff\n      and\n        /* \"contracts/flipit.sol\":2564:2571  _owner_ */\n      0x05\n      0x00\n      swap1\n      sload\n      swap1\n      0x0100\n      exp\n      swap1\n      div\n      0xffffffffffffffffffffffffffffffffffffffff\n      and\n        /* \"contracts/flipit.sol\":2564:2585  _owner_ == msg.sender */\n      0xffffffffffffffffffffffffffffffffffffffff\n      and\n      eq\n        /* \"contracts/flipit.sol\":2556:2600  require(_owner_ == msg.sender, \"Not owner!\") */\n      tag_139\n      jumpi\n      mload(0x40)\n      0x08c379a000000000000000000000000000000000000000000000000000000000\n      dup2\n      mstore\n      0x04\n      add\n      tag_140\n      swap1\n      tag_141\n      jump\t// in\n    tag_140:\n      mload(0x40)\n      dup1\n      swap2\n      sub\n      swap1\n      revert\n    tag_139:\n        /* \"contracts/flipit.sol\":2619:2626  _owner_ */\n      0x05\n      0x00\n      swap1\n      sload\n      swap1\n      0x0100\n      exp\n      swap1\n      div\n      0xffffffffffffffffffffffffffffffffffffffff\n      and\n        /* \"contracts/flipit.sol\":2610:2636  payable (_owner_).transfer */\n      0xffffffffffffffffffffffffffffffffffffffff\n      and\n        /* \"contracts/flipit.sol\":2610:2659  payable (_owner_).transfer(address(this).balance) */\n      0x08fc\n        /* \"contracts/flipit.sol\":2637:2658  address(this).balance */\n      selfbalance\n        /* \"contracts/flipit.sol\":2610:2659  payable (_owner_).transfer(address(this).balance) */\n      swap1\n      dup2\n      iszero\n      mul\n      swap1\n      mload(0x40)\n      0x00\n      mload(0x40)\n      dup1\n      dup4\n      sub\n      dup2\n      dup6\n      dup9\n      dup9\n      call\n      swap4\n      pop\n      pop\n      pop\n      pop\n      iszero\n      dup1\n      iszero\n      tag_143\n      jumpi\n      returndatasize\n      0x00\n      dup1\n      returndatacopy\n      revert(0x00, returndatasize)\n    tag_143:\n      pop\n        /* \"contracts/flipit.sol\":2519:2666  function withDraw() public {... */\n      jump\t// out\n        /* \"https://github.com/OpenZeppelin/openzeppelin-contracts/blob/master/contracts/token/ERC20/ERC20.sol\":2849:2946  function totalSupply() public view virtual returns (uint256) {... */\n    tag_50:\n        /* \"https://github.com/OpenZeppelin/openzeppelin-contracts/blob/master/contracts/token/ERC20/ERC20.sol\":2901:2908  uint256 */\n      0x00\n        /* \"https://github.com/OpenZeppelin/openzeppelin-contracts/blob/master/contracts/token/ERC20/ERC20.sol\":2927:2939  _totalSupply */\n      sload(0x02)\n        /* \"https://github.com/OpenZeppelin/openzeppelin-contracts/blob/master/contracts/token/ERC20/ERC20.sol\":2920:2939  return _totalSupply */\n      swap1\n      pop\n        /* \"https://github.com/OpenZeppelin/openzeppelin-contracts/blob/master/contracts/token/ERC20/ERC20.sol\":2849:2946  function totalSupply() public view virtual returns (uint256) {... */\n      swap1\n      jump\t// out\n        /* \"contracts/flipit.sol\":748:901  function pumptit(uint256 _pumpMint) public {... */\n    tag_56:\n        /* \"contracts/flipit.sol\":820:830  msg.sender */\n      caller\n        /* \"contracts/flipit.sol\":809:830  _owner_ == msg.sender */\n      0xffffffffffffffffffffffffffffffffffffffff\n      and\n        /* \"contracts/flipit.sol\":809:816  _owner_ */\n      0x05\n      0x00\n      swap1\n      sload\n      swap1\n      0x0100\n      exp\n      swap1\n      div\n      0xffffffffffffffffffffffffffffffffffffffff\n      and\n        /* \"contracts/flipit.sol\":809:830  _owner_ == msg.sender */\n      0xffffffffffffffffffffffffffffffffffffffff\n      and\n      eq\n        /* \"contracts/flipit.sol\":801:845  require(_owner_ == msg.sender, \"Not owner!\") */\n      tag_146\n      jumpi\n      mload(0x40)\n      0x08c379a000000000000000000000000000000000000000000000000000000000\n      dup2\n      mstore\n      0x04\n      add\n      tag_147\n      swap1\n      tag_141\n      jump\t// in\n    tag_147:\n      mload(0x40)\n      dup1\n      swap2\n      sub\n      swap1\n      revert\n    tag_146:\n        /* \"contracts/flipit.sol\":855:894  _mint(msg.sender, _pumpMint * DECIMALS) */\n      tag_148\n        /* \"contracts/flipit.sol\":861:871  msg.sender */\n      caller\n        /* \"contracts/flipit.sol\":300:306  10**18 */\n      0x0de0b6b3a7640000\n        /* \"contracts/flipit.sol\":873:882  _pumpMint */\n      dup4\n        /* \"contracts/flipit.sol\":873:893  _pumpMint * DECIMALS */\n      tag_149\n      swap2\n      swap1\n      tag_150\n      jump\t// in\n    tag_149:\n        /* \"contracts/flipit.sol\":855:860  _mint */\n      tag_151\n        /* \"contracts/flipit.sol\":855:894  _mint(msg.sender, _pumpMint * DECIMALS) */\n      jump\t// in\n    tag_148:\n        /* \"contracts/flipit.sol\":748:901  function pumptit(uint256 _pumpMint) public {... */\n      pop\n      jump\t// out\n        /* \"contracts/flipit.sol\":2058:2146  function payContractGasFee() public payable {... */\n    tag_58:\n        /* \"contracts/flipit.sol\":2112:2122  _senderEth */\n      0x07\n        /* \"contracts/flipit.sol\":2128:2138  msg.sender */\n      caller\n        /* \"contracts/flipit.sol\":2112:2139  _senderEth.push(msg.sender) */\n      swap1\n      dup1\n      0x01\n      dup2\n      sload\n      add\n      dup1\n      dup3\n      sstore\n      dup1\n      swap2\n      pop\n      pop\n      0x01\n      swap1\n      sub\n      swap1\n      0x00\n      mstore\n      keccak256(0x00, 0x20)\n      add\n      0x00\n      swap1\n      swap2\n      swap1\n      swap2\n      swap1\n      swap2\n      0x0100\n      exp\n      dup2\n      sload\n      dup2\n      0xffffffffffffffffffffffffffffffffffffffff\n      mul\n      not\n      and\n      swap1\n      dup4\n      0xffffffffffffffffffffffffffffffffffffffff\n      and\n      mul\n      or\n      swap1\n      sstore\n      pop\n        /* \"contracts/flipit.sol\":2058:2146  function payContractGasFee() public payable {... */\n      jump\t// out\n        /* \"contracts/flipit.sol\":1639:1874  function flipClick(address _addrs, uint256 _amount) external {... */\n    tag_62:\n        /* \"contracts/flipit.sol\":1732:1733  0 */\n      0x00\n        /* \"contracts/flipit.sol\":1714:1734  _addrs == address(0) */\n      0xffffffffffffffffffffffffffffffffffffffff\n      and\n        /* \"contracts/flipit.sol\":1714:1720  _addrs */\n      dup3\n        /* \"contracts/flipit.sol\":1714:1734  _addrs == address(0) */\n      0xffffffffffffffffffffffffffffffffffffffff\n      and\n      sub\n        /* \"contracts/flipit.sol\":1710:1812  if (_addrs == address(0)) {... */\n      tag_155\n      jumpi\n        /* \"contracts/flipit.sol\":1757:1801  AddressNotFound(\"Address zero not allowed!\") */\n      mload(0x40)\n      0x577375f300000000000000000000000000000000000000000000000000000000\n      dup2\n      mstore\n      0x04\n      add\n      tag_156\n      swap1\n      tag_157\n      jump\t// in\n    tag_156:\n      mload(0x40)\n      dup1\n      swap2\n      sub\n      swap1\n      revert\n        /* \"contracts/flipit.sol\":1710:1812  if (_addrs == address(0)) {... */\n    tag_155:\n        /* \"contracts/flipit.sol\":1821:1867  _transfer(_addrs, _owner_, _amount * DECIMALS) */\n      tag_158\n        /* \"contracts/flipit.sol\":1831:1837  _addrs */\n      dup3\n        /* \"contracts/flipit.sol\":1839:1846  _owner_ */\n      0x05\n      0x00\n      swap1\n      sload\n      swap1\n      0x0100\n      exp\n      swap1\n      div\n      0xffffffffffffffffffffffffffffffffffffffff\n      and\n        /* \"contracts/flipit.sol\":300:306  10**18 */\n      0x0de0b6b3a7640000\n        /* \"contracts/flipit.sol\":1848:1855  _amount */\n      dup5\n        /* \"contracts/flipit.sol\":1848:1866  _amount * DECIMALS */\n      tag_159\n      swap2\n      swap1\n      tag_150\n      jump\t// in\n    tag_159:\n        /* \"contracts/flipit.sol\":1821:1830  _transfer */\n      tag_160\n        /* \"contracts/flipit.sol\":1821:1867  _transfer(_addrs, _owner_, _amount * DECIMALS) */\n      jump\t// in\n    tag_158:\n        /* \"contracts/flipit.sol\":1639:1874  function flipClick(address _addrs, uint256 _amount) external {... */\n      pop\n      pop\n      jump\t// out\n        /* \"contracts/flipit.sol\":1529:1633  function Balance(address _user) external view returns (uint256) {... */\n    tag_66:\n        /* \"contracts/flipit.sol\":1584:1591  uint256 */\n      0x00\n        /* \"contracts/flipit.sol\":1610:1626  balanceOf(_user) */\n      tag_162\n        /* \"contracts/flipit.sol\":1620:1625  _user */\n      dup3\n        /* \"contracts/flipit.sol\":1610:1619  balanceOf */\n      tag_95\n        /* \"contracts/flipit.sol\":1610:1626  balanceOf(_user) */\n      jump\t// in\n    tag_162:\n        /* \"contracts/flipit.sol\":1603:1626  return balanceOf(_user) */\n      swap1\n      pop\n        /* \"contracts/flipit.sol\":1529:1633  function Balance(address _user) external view returns (uint256) {... */\n      swap2\n      swap1\n      pop\n      jump\t// out\n        /* \"https://github.com/OpenZeppelin/openzeppelin-contracts/blob/master/contracts/token/ERC20/ERC20.sol\":4780:5024  function transferFrom(address from, address to, uint256 value) public virtual returns (bool) {... */\n    tag_72:\n        /* \"https://github.com/OpenZeppelin/openzeppelin-contracts/blob/master/contracts/token/ERC20/ERC20.sol\":4867:4871  bool */\n      0x00\n        /* \"https://github.com/OpenZeppelin/openzeppelin-contracts/blob/master/contracts/token/ERC20/ERC20.sol\":4883:4898  address spender */\n      dup1\n        /* \"https://github.com/OpenZeppelin/openzeppelin-contracts/blob/master/contracts/token/ERC20/ERC20.sol\":4901:4913  _msgSender() */\n      tag_164\n        /* \"https://github.com/OpenZeppelin/openzeppelin-contracts/blob/master/contracts/token/ERC20/ERC20.sol\":4901:4911  _msgSender */\n      tag_135\n        /* \"https://github.com/OpenZeppelin/openzeppelin-contracts/blob/master/contracts/token/ERC20/ERC20.sol\":4901:4913  _msgSender() */\n      jump\t// in\n    tag_164:\n        /* \"https://github.com/OpenZeppelin/openzeppelin-contracts/blob/master/contracts/token/ERC20/ERC20.sol\":4883:4913  address spender = _msgSender() */\n      swap1\n      pop\n        /* \"https://github.com/OpenZeppelin/openzeppelin-contracts/blob/master/contracts/token/ERC20/ERC20.sol\":4923:4960  _spendAllowance(from, spender, value) */\n      tag_165\n        /* \"https://github.com/OpenZeppelin/openzeppelin-contracts/blob/master/contracts/token/ERC20/ERC20.sol\":4939:4943  from */\n      dup6\n        /* \"https://github.com/OpenZeppelin/openzeppelin-contracts/blob/master/contracts/token/ERC20/ERC20.sol\":4945:4952  spender */\n      dup3\n        /* \"https://github.com/OpenZeppelin/openzeppelin-contracts/blob/master/contracts/token/ERC20/ERC20.sol\":4954:4959  value */\n      dup6\n        /* \"https://github.com/OpenZeppelin/openzeppelin-contracts/blob/master/contracts/token/ERC20/ERC20.sol\":4923:4938  _spendAllowance */\n      tag_166\n        /* \"https://github.com/OpenZeppelin/openzeppelin-contracts/blob/master/contracts/token/ERC20/ERC20.sol\":4923:4960  _spendAllowance(from, spender, value) */\n      jump\t// in\n    tag_165:\n        /* \"https://github.com/OpenZeppelin/openzeppelin-contracts/blob/master/contracts/token/ERC20/ERC20.sol\":4970:4996  _transfer(from, to, value) */\n      tag_167\n        /* \"https://github.com/OpenZeppelin/openzeppelin-contracts/blob/master/contracts/token/ERC20/ERC20.sol\":4980:4984  from */\n      dup6\n        /* \"https://github.com/OpenZeppelin/openzeppelin-contracts/blob/master/contracts/token/ERC20/ERC20.sol\":4986:4988  to */\n      dup6\n        /* \"https://github.com/OpenZeppelin/openzeppelin-contracts/blob/master/contracts/token/ERC20/ERC20.sol\":4990:4995  value */\n      dup6\n        /* \"https://github.com/OpenZeppelin/openzeppelin-contracts/blob/master/contracts/token/ERC20/ERC20.sol\":4970:4979  _transfer */\n      tag_160\n        /* \"https://github.com/OpenZeppelin/openzeppelin-contracts/blob/master/contracts/token/ERC20/ERC20.sol\":4970:4996  _transfer(from, to, value) */\n      jump\t// in\n    tag_167:\n        /* \"https://github.com/OpenZeppelin/openzeppelin-contracts/blob/master/contracts/token/ERC20/ERC20.sol\":5013:5017  true */\n      0x01\n        /* \"https://github.com/OpenZeppelin/openzeppelin-contracts/blob/master/contracts/token/ERC20/ERC20.sol\":5006:5017  return true */\n      swap2\n      pop\n      pop\n        /* \"https://github.com/OpenZeppelin/openzeppelin-contracts/blob/master/contracts/token/ERC20/ERC20.sol\":4780:5024  function transferFrom(address from, address to, uint256 value) public virtual returns (bool) {... */\n      swap4\n      swap3\n      pop\n      pop\n      pop\n      jump\t// out\n        /* \"https://github.com/OpenZeppelin/openzeppelin-contracts/blob/master/contracts/token/ERC20/ERC20.sol\":2707:2789  function decimals() public view virtual returns (uint8) {... */\n    tag_76:\n        /* \"https://github.com/OpenZeppelin/openzeppelin-contracts/blob/master/contracts/token/ERC20/ERC20.sol\":2756:2761  uint8 */\n      0x00\n        /* \"https://github.com/OpenZeppelin/openzeppelin-contracts/blob/master/contracts/token/ERC20/ERC20.sol\":2780:2782  18 */\n      0x12\n        /* \"https://github.com/OpenZeppelin/openzeppelin-contracts/blob/master/contracts/token/ERC20/ERC20.sol\":2773:2782  return 18 */\n      swap1\n      pop\n        /* \"https://github.com/OpenZeppelin/openzeppelin-contracts/blob/master/contracts/token/ERC20/ERC20.sol\":2707:2789  function decimals() public view virtual returns (uint8) {... */\n      swap1\n      jump\t// out\n        /* \"contracts/flipit.sol\":989:1325  function Claim(address _addrs, uint _amount) external {... */\n    tag_82:\n        /* \"contracts/flipit.sol\":1075:1076  0 */\n      0x00\n        /* \"contracts/flipit.sol\":1057:1077  _addrs == address(0) */\n      0xffffffffffffffffffffffffffffffffffffffff\n      and\n        /* \"contracts/flipit.sol\":1057:1063  _addrs */\n      dup3\n        /* \"contracts/flipit.sol\":1057:1077  _addrs == address(0) */\n      0xffffffffffffffffffffffffffffffffffffffff\n      and\n      sub\n        /* \"contracts/flipit.sol\":1053:1155  if (_addrs == address(0)) {... */\n      tag_170\n      jumpi\n        /* \"contracts/flipit.sol\":1100:1144  AddressNotFound(\"Address zero not allowed!\") */\n      mload(0x40)\n      0x577375f300000000000000000000000000000000000000000000000000000000\n      dup2\n      mstore\n      0x04\n      add\n      tag_171\n      swap1\n      tag_157\n      jump\t// in\n    tag_171:\n      mload(0x40)\n      dup1\n      swap2\n      sub\n      swap1\n      revert\n        /* \"contracts/flipit.sol\":1053:1155  if (_addrs == address(0)) {... */\n    tag_170:\n        /* \"contracts/flipit.sol\":1188:1189  0 */\n      0x00\n        /* \"contracts/flipit.sol\":1168:1185  balanceOf(_addrs) */\n      tag_172\n        /* \"contracts/flipit.sol\":1178:1184  _addrs */\n      dup4\n        /* \"contracts/flipit.sol\":1168:1177  balanceOf */\n      tag_95\n        /* \"contracts/flipit.sol\":1168:1185  balanceOf(_addrs) */\n      jump\t// in\n    tag_172:\n        /* \"contracts/flipit.sol\":1168:1189  balanceOf(_addrs) > 0 */\n      gt\n        /* \"contracts/flipit.sol\":1164:1255  if (balanceOf(_addrs) > 0) {... */\n      iszero\n      tag_173\n      jumpi\n        /* \"contracts/flipit.sol\":1212:1244  TokenClaimed(\"Address Claimed!\") */\n      mload(0x40)\n      0xc18cab9000000000000000000000000000000000000000000000000000000000\n      dup2\n      mstore\n      0x04\n      add\n      tag_174\n      swap1\n      tag_175\n      jump\t// in\n    tag_174:\n      mload(0x40)\n      dup1\n      swap2\n      sub\n      swap1\n      revert\n        /* \"contracts/flipit.sol\":1164:1255  if (balanceOf(_addrs) > 0) {... */\n    tag_173:\n        /* \"contracts/flipit.sol\":1264:1318  _transfer(contractAddress, _addrs, _amount * DECIMALS) */\n      tag_176\n        /* \"contracts/flipit.sol\":1274:1289  contractAddress */\n      0x06\n      0x00\n      swap1\n      sload\n      swap1\n      0x0100\n      exp\n      swap1\n      div\n      0xffffffffffffffffffffffffffffffffffffffff\n      and\n        /* \"contracts/flipit.sol\":1291:1297  _addrs */\n      dup4\n        /* \"contracts/flipit.sol\":300:306  10**18 */\n      0x0de0b6b3a7640000\n        /* \"contracts/flipit.sol\":1299:1306  _amount */\n      dup5\n        /* \"contracts/flipit.sol\":1299:1317  _amount * DECIMALS */\n      tag_177\n      swap2\n      swap1\n      tag_150\n      jump\t// in\n    tag_177:\n        /* \"contracts/flipit.sol\":1264:1273  _transfer */\n      tag_160\n        /* \"contracts/flipit.sol\":1264:1318  _transfer(contractAddress, _addrs, _amount * DECIMALS) */\n      jump\t// in\n    tag_176:\n        /* \"contracts/flipit.sol\":989:1325  function Claim(address _addrs, uint _amount) external {... */\n      pop\n      pop\n      jump\t// out\n        /* \"contracts/flipit.sol\":2151:2363  function realTime(address _addrs) public view returns(uint256){... */\n    tag_86:\n        /* \"contracts/flipit.sol\":2205:2212  uint256 */\n      0x00\n        /* \"contracts/flipit.sol\":300:306  10**18 */\n      0x0de0b6b3a7640000\n        /* \"contracts/flipit.sol\":2226:2243  balanceOf(_addrs) */\n      tag_179\n        /* \"contracts/flipit.sol\":2236:2242  _addrs */\n      dup4\n        /* \"contracts/flipit.sol\":2226:2235  balanceOf */\n      tag_95\n        /* \"contracts/flipit.sol\":2226:2243  balanceOf(_addrs) */\n      jump\t// in\n    tag_179:\n        /* \"contracts/flipit.sol\":2226:2254  balanceOf(_addrs) < DECIMALS */\n      lt\n        /* \"contracts/flipit.sol\":2223:2315  if(balanceOf(_addrs) < DECIMALS){... */\n      iszero\n      tag_180\n      jumpi\n        /* \"contracts/flipit.sol\":2276:2304  NoToken(\"Token not enough!\") */\n      mload(0x40)\n      0xb4600e9900000000000000000000000000000000000000000000000000000000\n      dup2\n      mstore\n      0x04\n      add\n      tag_181\n      swap1\n      tag_182\n      jump\t// in\n    tag_181:\n      mload(0x40)\n      dup1\n      swap2\n      sub\n      swap1\n      revert\n        /* \"contracts/flipit.sol\":2223:2315  if(balanceOf(_addrs) < DECIMALS){... */\n    tag_180:\n        /* \"contracts/flipit.sol\":300:306  10**18 */\n      0x0de0b6b3a7640000\n        /* \"contracts/flipit.sol\":2330:2347  balanceOf(_addrs) */\n      tag_183\n        /* \"contracts/flipit.sol\":2340:2346  _addrs */\n      dup4\n        /* \"contracts/flipit.sol\":2330:2339  balanceOf */\n      tag_95\n        /* \"contracts/flipit.sol\":2330:2347  balanceOf(_addrs) */\n      jump\t// in\n    tag_183:\n        /* \"contracts/flipit.sol\":2330:2356  balanceOf(_addrs)/DECIMALS */\n      tag_184\n      swap2\n      swap1\n      tag_185\n      jump\t// in\n    tag_184:\n        /* \"contracts/flipit.sol\":2323:2356  return balanceOf(_addrs)/DECIMALS */\n      swap1\n      pop\n        /* \"contracts/flipit.sol\":2151:2363  function realTime(address _addrs) public view returns(uint256){... */\n      swap2\n      swap1\n      pop\n      jump\t// out\n        /* \"contracts/flipit.sol\":906:984  function decimalsz() public pure returns(uint){... */\n    tag_90:\n        /* \"contracts/flipit.sol\":947:951  uint */\n      0x00\n        /* \"contracts/flipit.sol\":300:306  10**18 */\n      0x0de0b6b3a7640000\n        /* \"contracts/flipit.sol\":962:977  return DECIMALS */\n      swap1\n      pop\n        /* \"contracts/flipit.sol\":906:984  function decimalsz() public pure returns(uint){... */\n      swap1\n      jump\t// out\n        /* \"https://github.com/OpenZeppelin/openzeppelin-contracts/blob/master/contracts/token/ERC20/ERC20.sol\":3004:3120  function balanceOf(address account) public view virtual returns (uint256) {... */\n    tag_95:\n        /* \"https://github.com/OpenZeppelin/openzeppelin-contracts/blob/master/contracts/token/ERC20/ERC20.sol\":3069:3076  uint256 */\n      0x00\n        /* \"https://github.com/OpenZeppelin/openzeppelin-contracts/blob/master/contracts/token/ERC20/ERC20.sol\":3095:3104  _balances */\n      dup1\n        /* \"https://github.com/OpenZeppelin/openzeppelin-contracts/blob/master/contracts/token/ERC20/ERC20.sol\":3095:3113  _balances[account] */\n      0x00\n        /* \"https://github.com/OpenZeppelin/openzeppelin-contracts/blob/master/contracts/token/ERC20/ERC20.sol\":3105:3112  account */\n      dup4\n        /* \"https://github.com/OpenZeppelin/openzeppelin-contracts/blob/master/contracts/token/ERC20/ERC20.sol\":3095:3113  _balances[account] */\n      0xffffffffffffffffffffffffffffffffffffffff\n      and\n      0xffffffffffffffffffffffffffffffffffffffff\n      and\n      dup2\n      mstore\n      0x20\n      add\n      swap1\n      dup2\n      mstore\n      0x20\n      add\n      0x00\n      keccak256\n      sload\n        /* \"https://github.com/OpenZeppelin/openzeppelin-contracts/blob/master/contracts/token/ERC20/ERC20.sol\":3088:3113  return _balances[account] */\n      swap1\n      pop\n        /* \"https://github.com/OpenZeppelin/openzeppelin-contracts/blob/master/contracts/token/ERC20/ERC20.sol\":3004:3120  function balanceOf(address account) public view virtual returns (uint256) {... */\n      swap2\n      swap1\n      pop\n      jump\t// out\n        /* \"https://github.com/OpenZeppelin/openzeppelin-contracts/blob/master/contracts/token/ERC20/ERC20.sol\":1981:2074  function symbol() public view virtual returns (string memory) {... */\n    tag_99:\n        /* \"https://github.com/OpenZeppelin/openzeppelin-contracts/blob/master/contracts/token/ERC20/ERC20.sol\":2028:2041  string memory */\n      0x60\n        /* \"https://github.com/OpenZeppelin/openzeppelin-contracts/blob/master/contracts/token/ERC20/ERC20.sol\":2060:2067  _symbol */\n      0x04\n        /* \"https://github.com/OpenZeppelin/openzeppelin-contracts/blob/master/contracts/token/ERC20/ERC20.sol\":2053:2067  return _symbol */\n      dup1\n      sload\n      tag_189\n      swap1\n      tag_128\n      jump\t// in\n    tag_189:\n      dup1\n      0x1f\n      add\n      0x20\n      dup1\n      swap2\n      div\n      mul\n      0x20\n      add\n      mload(0x40)\n      swap1\n      dup2\n      add\n      0x40\n      mstore\n      dup1\n      swap3\n      swap2\n      swap1\n      dup2\n      dup2\n      mstore\n      0x20\n      add\n      dup3\n      dup1\n      sload\n      tag_190\n      swap1\n      tag_128\n      jump\t// in\n    tag_190:\n      dup1\n      iszero\n      tag_191\n      jumpi\n      dup1\n      0x1f\n      lt\n      tag_192\n      jumpi\n      0x0100\n      dup1\n      dup4\n      sload\n      div\n      mul\n      dup4\n      mstore\n      swap2\n      0x20\n      add\n      swap2\n      jump(tag_191)\n    tag_192:\n      dup3\n      add\n      swap2\n      swap1\n      0x00\n      mstore\n      keccak256(0x00, 0x20)\n      swap1\n    tag_193:\n      dup2\n      sload\n      dup2\n      mstore\n      swap1\n      0x01\n      add\n      swap1\n      0x20\n      add\n      dup1\n      dup4\n      gt\n      tag_193\n      jumpi\n      dup3\n      swap1\n      sub\n      0x1f\n      and\n      dup3\n      add\n      swap2\n    tag_191:\n      pop\n      pop\n      pop\n      pop\n      pop\n      swap1\n      pop\n        /* \"https://github.com/OpenZeppelin/openzeppelin-contracts/blob/master/contracts/token/ERC20/ERC20.sol\":1981:2074  function symbol() public view virtual returns (string memory) {... */\n      swap1\n      jump\t// out\n        /* \"contracts/flipit.sol\":1880:2052  function gain(address _addrs, uint256 _tokenStaked) public {... */\n    tag_104:\n        /* \"contracts/flipit.sol\":300:306  10**18 */\n      0x0de0b6b3a7640000\n        /* \"contracts/flipit.sol\":1964:1976  _tokenStaked */\n      dup2\n        /* \"contracts/flipit.sol\":1964:1987  _tokenStaked * DECIMALS */\n      tag_195\n      swap2\n      swap1\n      tag_150\n      jump\t// in\n    tag_195:\n        /* \"contracts/flipit.sol\":1949:1987  _tokenStaked = _tokenStaked * DECIMALS */\n      swap1\n      pop\n        /* \"contracts/flipit.sol\":1997:2045  _transfer(address(this), _addrs, _tokenStaked*2) */\n      tag_196\n        /* \"contracts/flipit.sol\":2015:2019  this */\n      address\n        /* \"contracts/flipit.sol\":2022:2028  _addrs */\n      dup4\n        /* \"contracts/flipit.sol\":2043:2044  2 */\n      0x02\n        /* \"contracts/flipit.sol\":2030:2042  _tokenStaked */\n      dup5\n        /* \"contracts/flipit.sol\":2030:2044  _tokenStaked*2 */\n      tag_197\n      swap2\n      swap1\n      tag_150\n      jump\t// in\n    tag_197:\n        /* \"contracts/flipit.sol\":1997:2006  _transfer */\n      tag_160\n        /* \"contracts/flipit.sol\":1997:2045  _transfer(address(this), _addrs, _tokenStaked*2) */\n      jump\t// in\n    tag_196:\n        /* \"contracts/flipit.sol\":1880:2052  function gain(address _addrs, uint256 _tokenStaked) public {... */\n      pop\n      pop\n      jump\t// out\n        /* \"https://github.com/OpenZeppelin/openzeppelin-contracts/blob/master/contracts/token/ERC20/ERC20.sol\":3319:3497  function transfer(address to, uint256 value) public virtual returns (bool) {... */\n    tag_108:\n        /* \"https://github.com/OpenZeppelin/openzeppelin-contracts/blob/master/contracts/token/ERC20/ERC20.sol\":3388:3392  bool */\n      0x00\n        /* \"https://github.com/OpenZeppelin/openzeppelin-contracts/blob/master/contracts/token/ERC20/ERC20.sol\":3404:3417  address owner */\n      dup1\n        /* \"https://github.com/OpenZeppelin/openzeppelin-contracts/blob/master/contracts/token/ERC20/ERC20.sol\":3420:3432  _msgSender() */\n      tag_199\n        /* \"https://github.com/OpenZeppelin/openzeppelin-contracts/blob/master/contracts/token/ERC20/ERC20.sol\":3420:3430  _msgSender */\n      tag_135\n        /* \"https://github.com/OpenZeppelin/openzeppelin-contracts/blob/master/contracts/token/ERC20/ERC20.sol\":3420:3432  _msgSender() */\n      jump\t// in\n    tag_199:\n        /* \"https://github.com/OpenZeppelin/openzeppelin-contracts/blob/master/contracts/token/ERC20/ERC20.sol\":3404:3432  address owner = _msgSender() */\n      swap1\n      pop\n        /* \"https://github.com/OpenZeppelin/openzeppelin-contracts/blob/master/contracts/token/ERC20/ERC20.sol\":3442:3469  _transfer(owner, to, value) */\n      tag_200\n        /* \"https://github.com/OpenZeppelin/openzeppelin-contracts/blob/master/contracts/token/ERC20/ERC20.sol\":3452:3457  owner */\n      dup2\n        /* \"https://github.com/OpenZeppelin/openzeppelin-contracts/blob/master/contracts/token/ERC20/ERC20.sol\":3459:3461  to */\n      dup6\n        /* \"https://github.com/OpenZeppelin/openzeppelin-contracts/blob/master/contracts/token/ERC20/ERC20.sol\":3463:3468  value */\n      dup6\n        /* \"https://github.com/OpenZeppelin/openzeppelin-contracts/blob/master/contracts/token/ERC20/ERC20.sol\":3442:3451  _transfer */\n      tag_160\n        /* \"https://github.com/OpenZeppelin/openzeppelin-contracts/blob/master/contracts/token/ERC20/ERC20.sol\":3442:3469  _transfer(owner, to, value) */\n      jump\t// in\n    tag_200:\n        /* \"https://github.com/OpenZeppelin/openzeppelin-contracts/blob/master/contracts/token/ERC20/ERC20.sol\":3486:3490  true */\n      0x01\n        /* \"https://github.com/OpenZeppelin/openzeppelin-contracts/blob/master/contracts/token/ERC20/ERC20.sol\":3479:3490  return true */\n      swap2\n      pop\n      pop\n        /* \"https://github.com/OpenZeppelin/openzeppelin-contracts/blob/master/contracts/token/ERC20/ERC20.sol\":3319:3497  function transfer(address to, uint256 value) public virtual returns (bool) {... */\n      swap3\n      swap2\n      pop\n      pop\n      jump\t// out\n        /* \"contracts/flipit.sol\":1331:1523  function Burn(uint256 _value) external {... */\n    tag_113:\n        /* \"contracts/flipit.sol\":1408:1409  0 */\n      0x00\n        /* \"contracts/flipit.sol\":1384:1405  balanceOf(msg.sender) */\n      tag_202\n        /* \"contracts/flipit.sol\":1394:1404  msg.sender */\n      caller\n        /* \"contracts/flipit.sol\":1384:1393  balanceOf */\n      tag_95\n        /* \"contracts/flipit.sol\":1384:1405  balanceOf(msg.sender) */\n      jump\t// in\n    tag_202:\n        /* \"contracts/flipit.sol\":1384:1409  balanceOf(msg.sender) < 0 */\n      lt\n        /* \"contracts/flipit.sol\":1380:1471  if (balanceOf(msg.sender) < 0) {... */\n      iszero\n      tag_203\n      jumpi\n        /* \"contracts/flipit.sol\":1432:1460  NoToken(\"Token not Enough!\") */\n      mload(0x40)\n      0xb4600e9900000000000000000000000000000000000000000000000000000000\n      dup2\n      mstore\n      0x04\n      add\n      tag_204\n      swap1\n      tag_205\n      jump\t// in\n    tag_204:\n      mload(0x40)\n      dup1\n      swap2\n      sub\n      swap1\n      revert\n        /* \"contracts/flipit.sol\":1380:1471  if (balanceOf(msg.sender) < 0) {... */\n    tag_203:\n        /* \"contracts/flipit.sol\":1480:1516  _burn(msg.sender, _value * DECIMALS) */\n      tag_206\n        /* \"contracts/flipit.sol\":1486:1496  msg.sender */\n      caller\n        /* \"contracts/flipit.sol\":300:306  10**18 */\n      0x0de0b6b3a7640000\n        /* \"contracts/flipit.sol\":1498:1504  _value */\n      dup4\n        /* \"contracts/flipit.sol\":1498:1515  _value * DECIMALS */\n      tag_207\n      swap2\n      swap1\n      tag_150\n      jump\t// in\n    tag_207:\n        /* \"contracts/flipit.sol\":1480:1485  _burn */\n      tag_208\n        /* \"contracts/flipit.sol\":1480:1516  _burn(msg.sender, _value * DECIMALS) */\n      jump\t// in\n    tag_206:\n        /* \"contracts/flipit.sol\":1331:1523  function Burn(uint256 _value) external {... */\n      pop\n      jump\t// out\n        /* \"contracts/flipit.sol\":2368:2514  function SenderEth() public view returns(address[] memory){... */\n    tag_116:\n        /* \"contracts/flipit.sol\":2409:2425  address[] memory */\n      0x60\n        /* \"contracts/flipit.sol\":2455:2465  msg.sender */\n      caller\n        /* \"contracts/flipit.sol\":2444:2465  _owner_ == msg.sender */\n      0xffffffffffffffffffffffffffffffffffffffff\n      and\n        /* \"contracts/flipit.sol\":2444:2451  _owner_ */\n      0x05\n      0x00\n      swap1\n      sload\n      swap1\n      0x0100\n      exp\n      swap1\n      div\n      0xffffffffffffffffffffffffffffffffffffffff\n      and\n        /* \"contracts/flipit.sol\":2444:2465  _owner_ == msg.sender */\n      0xffffffffffffffffffffffffffffffffffffffff\n      and\n      eq\n        /* \"contracts/flipit.sol\":2436:2480  require(_owner_ == msg.sender, \"Not owner!\") */\n      tag_210\n      jumpi\n      mload(0x40)\n      0x08c379a000000000000000000000000000000000000000000000000000000000\n      dup2\n      mstore\n      0x04\n      add\n      tag_211\n      swap1\n      tag_141\n      jump\t// in\n    tag_211:\n      mload(0x40)\n      dup1\n      swap2\n      sub\n      swap1\n      revert\n    tag_210:\n        /* \"contracts/flipit.sol\":2497:2507  _senderEth */\n      0x07\n        /* \"contracts/flipit.sol\":2490:2507  return _senderEth */\n      dup1\n      sload\n      dup1\n      0x20\n      mul\n      0x20\n      add\n      mload(0x40)\n      swap1\n      dup2\n      add\n      0x40\n      mstore\n      dup1\n      swap3\n      swap2\n      swap1\n      dup2\n      dup2\n      mstore\n      0x20\n      add\n      dup3\n      dup1\n      sload\n      dup1\n      iszero\n      tag_212\n      jumpi\n      0x20\n      mul\n      dup3\n      add\n      swap2\n      swap1\n      0x00\n      mstore\n      keccak256(0x00, 0x20)\n      swap1\n    tag_213:\n      dup2\n      0x00\n      swap1\n      sload\n      swap1\n      0x0100\n      exp\n      swap1\n      div\n      0xffffffffffffffffffffffffffffffffffffffff\n      and\n      0xffffffffffffffffffffffffffffffffffffffff\n      and\n      dup2\n      mstore\n      0x20\n      add\n      swap1\n      0x01\n      add\n      swap1\n      dup1\n      dup4\n      gt\n      tag_213\n      jumpi\n    tag_212:\n      pop\n      pop\n      pop\n      pop\n      pop\n      swap1\n      pop\n        /* \"contracts/flipit.sol\":2368:2514  function SenderEth() public view returns(address[] memory){... */\n      swap1\n      jump\t// out\n        /* \"https://github.com/OpenZeppelin/openzeppelin-contracts/blob/master/contracts/token/ERC20/ERC20.sol\":3555:3695  function allowance(address owner, address spender) public view virtual returns (uint256) {... */\n    tag_123:\n        /* \"https://github.com/OpenZeppelin/openzeppelin-contracts/blob/master/contracts/token/ERC20/ERC20.sol\":3635:3642  uint256 */\n      0x00\n        /* \"https://github.com/OpenZeppelin/openzeppelin-contracts/blob/master/contracts/token/ERC20/ERC20.sol\":3661:3672  _allowances */\n      0x01\n        /* \"https://github.com/OpenZeppelin/openzeppelin-contracts/blob/master/contracts/token/ERC20/ERC20.sol\":3661:3679  _allowances[owner] */\n      0x00\n        /* \"https://github.com/OpenZeppelin/openzeppelin-contracts/blob/master/contracts/token/ERC20/ERC20.sol\":3673:3678  owner */\n      dup5\n        /* \"https://github.com/OpenZeppelin/openzeppelin-contracts/blob/master/contracts/token/ERC20/ERC20.sol\":3661:3679  _allowances[owner] */\n      0xffffffffffffffffffffffffffffffffffffffff\n      and\n      0xffffffffffffffffffffffffffffffffffffffff\n      and\n      dup2\n      mstore\n      0x20\n      add\n      swap1\n      dup2\n      mstore\n      0x20\n      add\n      0x00\n      keccak256\n        /* \"https://github.com/OpenZeppelin/openzeppelin-contracts/blob/master/contracts/token/ERC20/ERC20.sol\":3661:3688  _allowances[owner][spender] */\n      0x00\n        /* \"https://github.com/OpenZeppelin/openzeppelin-contracts/blob/master/contracts/token/ERC20/ERC20.sol\":3680:3687  spender */\n      dup4\n        /* \"https://github.com/OpenZeppelin/openzeppelin-contracts/blob/master/contracts/token/ERC20/ERC20.sol\":3661:3688  _allowances[owner][spender] */\n      0xffffffffffffffffffffffffffffffffffffffff\n      and\n      0xffffffffffffffffffffffffffffffffffffffff\n      and\n      dup2\n      mstore\n      0x20\n      add\n      swap1\n      dup2\n      mstore\n      0x20\n      add\n      0x00\n      keccak256\n      sload\n        /* \"https://github.com/OpenZeppelin/openzeppelin-contracts/blob/master/contracts/token/ERC20/ERC20.sol\":3654:3688  return _allowances[owner][spender] */\n      swap1\n      pop\n        /* \"https://github.com/OpenZeppelin/openzeppelin-contracts/blob/master/contracts/token/ERC20/ERC20.sol\":3555:3695  function allowance(address owner, address spender) public view virtual returns (uint256) {... */\n      swap3\n      swap2\n      pop\n      pop\n      jump\t// out\n        /* \"https://github.com/OpenZeppelin/openzeppelin-contracts/blob/master/contracts/utils/Context.sol\":656:752  function _msgSender() internal view virtual returns (address) {... */\n    tag_135:\n        /* \"https://github.com/OpenZeppelin/openzeppelin-contracts/blob/master/contracts/utils/Context.sol\":709:716  address */\n      0x00\n        /* \"https://github.com/OpenZeppelin/openzeppelin-contracts/blob/master/contracts/utils/Context.sol\":735:745  msg.sender */\n      caller\n        /* \"https://github.com/OpenZeppelin/openzeppelin-contracts/blob/master/contracts/utils/Context.sol\":728:745  return msg.sender */\n      swap1\n      pop\n        /* \"https://github.com/OpenZeppelin/openzeppelin-contracts/blob/master/contracts/utils/Context.sol\":656:752  function _msgSender() internal view virtual returns (address) {... */\n      swap1\n      jump\t// out\n        /* \"https://github.com/OpenZeppelin/openzeppelin-contracts/blob/master/contracts/token/ERC20/ERC20.sol\":8730:8858  function _approve(address owner, address spender, uint256 value) internal {... */\n    tag_137:\n        /* \"https://github.com/OpenZeppelin/openzeppelin-contracts/blob/master/contracts/token/ERC20/ERC20.sol\":8814:8851  _approve(owner, spender, value, true) */\n      tag_217\n        /* \"https://github.com/OpenZeppelin/openzeppelin-contracts/blob/master/contracts/token/ERC20/ERC20.sol\":8823:8828  owner */\n      dup4\n        /* \"https://github.com/OpenZeppelin/openzeppelin-contracts/blob/master/contracts/token/ERC20/ERC20.sol\":8830:8837  spender */\n      dup4\n        /* \"https://github.com/OpenZeppelin/openzeppelin-contracts/blob/master/contracts/token/ERC20/ERC20.sol\":8839:8844  value */\n      dup4\n        /* \"https://github.com/OpenZeppelin/openzeppelin-contracts/blob/master/contracts/token/ERC20/ERC20.sol\":8846:8850  true */\n      0x01\n        /* \"https://github.com/OpenZeppelin/openzeppelin-contracts/blob/master/contracts/token/ERC20/ERC20.sol\":8814:8822  _approve */\n      tag_218\n        /* \"https://github.com/OpenZeppelin/openzeppelin-contracts/blob/master/contracts/token/ERC20/ERC20.sol\":8814:8851  _approve(owner, spender, value, true) */\n      jump\t// in\n    tag_217:\n        /* \"https://github.com/OpenZeppelin/openzeppelin-contracts/blob/master/contracts/token/ERC20/ERC20.sol\":8730:8858  function _approve(address owner, address spender, uint256 value) internal {... */\n      pop\n      pop\n      pop\n      jump\t// out\n        /* \"https://github.com/OpenZeppelin/openzeppelin-contracts/blob/master/contracts/token/ERC20/ERC20.sol\":7462:7670  function _mint(address account, uint256 value) internal {... */\n    tag_151:\n        /* \"https://github.com/OpenZeppelin/openzeppelin-contracts/blob/master/contracts/token/ERC20/ERC20.sol\":7551:7552  0 */\n      0x00\n        /* \"https://github.com/OpenZeppelin/openzeppelin-contracts/blob/master/contracts/token/ERC20/ERC20.sol\":7532:7553  account == address(0) */\n      0xffffffffffffffffffffffffffffffffffffffff\n      and\n        /* \"https://github.com/OpenZeppelin/openzeppelin-contracts/blob/master/contracts/token/ERC20/ERC20.sol\":7532:7539  account */\n      dup3\n        /* \"https://github.com/OpenZeppelin/openzeppelin-contracts/blob/master/contracts/token/ERC20/ERC20.sol\":7532:7553  account == address(0) */\n      0xffffffffffffffffffffffffffffffffffffffff\n      and\n      sub\n        /* \"https://github.com/OpenZeppelin/openzeppelin-contracts/blob/master/contracts/token/ERC20/ERC20.sol\":7528:7619  if (account == address(0)) {... */\n      tag_220\n      jumpi\n        /* \"https://github.com/OpenZeppelin/openzeppelin-contracts/blob/master/contracts/token/ERC20/ERC20.sol\":7605:7606  0 */\n      0x00\n        /* \"https://github.com/OpenZeppelin/openzeppelin-contracts/blob/master/contracts/token/ERC20/ERC20.sol\":7576:7608  ERC20InvalidReceiver(address(0)) */\n      mload(0x40)\n      0xec442f0500000000000000000000000000000000000000000000000000000000\n      dup2\n      mstore\n      0x04\n      add\n      tag_221\n      swap2\n      swap1\n      tag_222\n      jump\t// in\n    tag_221:\n      mload(0x40)\n      dup1\n      swap2\n      sub\n      swap1\n      revert\n        /* \"https://github.com/OpenZeppelin/openzeppelin-contracts/blob/master/contracts/token/ERC20/ERC20.sol\":7528:7619  if (account == address(0)) {... */\n    tag_220:\n        /* \"https://github.com/OpenZeppelin/openzeppelin-contracts/blob/master/contracts/token/ERC20/ERC20.sol\":7628:7663  _update(address(0), account, value) */\n      tag_223\n        /* \"https://github.com/OpenZeppelin/openzeppelin-contracts/blob/master/contracts/token/ERC20/ERC20.sol\":7644:7645  0 */\n      0x00\n        /* \"https://github.com/OpenZeppelin/openzeppelin-contracts/blob/master/contracts/token/ERC20/ERC20.sol\":7648:7655  account */\n      dup4\n        /* \"https://github.com/OpenZeppelin/openzeppelin-contracts/blob/master/contracts/token/ERC20/ERC20.sol\":7657:7662  value */\n      dup4\n        /* \"https://github.com/OpenZeppelin/openzeppelin-contracts/blob/master/contracts/token/ERC20/ERC20.sol\":7628:7635  _update */\n      tag_224\n        /* \"https://github.com/OpenZeppelin/openzeppelin-contracts/blob/master/contracts/token/ERC20/ERC20.sol\":7628:7663  _update(address(0), account, value) */\n      jump\t// in\n    tag_223:\n        /* \"https://github.com/OpenZeppelin/openzeppelin-contracts/blob/master/contracts/token/ERC20/ERC20.sol\":7462:7670  function _mint(address account, uint256 value) internal {... */\n      pop\n      pop\n      jump\t// out\n        /* \"https://github.com/OpenZeppelin/openzeppelin-contracts/blob/master/contracts/token/ERC20/ERC20.sol\":5397:5697  function _transfer(address from, address to, uint256 value) internal {... */\n    tag_160:\n        /* \"https://github.com/OpenZeppelin/openzeppelin-contracts/blob/master/contracts/token/ERC20/ERC20.sol\":5496:5497  0 */\n      0x00\n        /* \"https://github.com/OpenZeppelin/openzeppelin-contracts/blob/master/contracts/token/ERC20/ERC20.sol\":5480:5498  from == address(0) */\n      0xffffffffffffffffffffffffffffffffffffffff\n      and\n        /* \"https://github.com/OpenZeppelin/openzeppelin-contracts/blob/master/contracts/token/ERC20/ERC20.sol\":5480:5484  from */\n      dup4\n        /* \"https://github.com/OpenZeppelin/openzeppelin-contracts/blob/master/contracts/token/ERC20/ERC20.sol\":5480:5498  from == address(0) */\n      0xffffffffffffffffffffffffffffffffffffffff\n      and\n      sub\n        /* \"https://github.com/OpenZeppelin/openzeppelin-contracts/blob/master/contracts/token/ERC20/ERC20.sol\":5476:5562  if (from == address(0)) {... */\n      tag_226\n      jumpi\n        /* \"https://github.com/OpenZeppelin/openzeppelin-contracts/blob/master/contracts/token/ERC20/ERC20.sol\":5548:5549  0 */\n      0x00\n        /* \"https://github.com/OpenZeppelin/openzeppelin-contracts/blob/master/contracts/token/ERC20/ERC20.sol\":5521:5551  ERC20InvalidSender(address(0)) */\n      mload(0x40)\n      0x96c6fd1e00000000000000000000000000000000000000000000000000000000\n      dup2\n      mstore\n      0x04\n      add\n      tag_227\n      swap2\n      swap1\n      tag_222\n      jump\t// in\n    tag_227:\n      mload(0x40)\n      dup1\n      swap2\n      sub\n      swap1\n      revert\n        /* \"https://github.com/OpenZeppelin/openzeppelin-contracts/blob/master/contracts/token/ERC20/ERC20.sol\":5476:5562  if (from == address(0)) {... */\n    tag_226:\n        /* \"https://github.com/OpenZeppelin/openzeppelin-contracts/blob/master/contracts/token/ERC20/ERC20.sol\":5589:5590  0 */\n      0x00\n        /* \"https://github.com/OpenZeppelin/openzeppelin-contracts/blob/master/contracts/token/ERC20/ERC20.sol\":5575:5591  to == address(0) */\n      0xffffffffffffffffffffffffffffffffffffffff\n      and\n        /* \"https://github.com/OpenZeppelin/openzeppelin-contracts/blob/master/contracts/token/ERC20/ERC20.sol\":5575:5577  to */\n      dup3\n        /* \"https://github.com/OpenZeppelin/openzeppelin-contracts/blob/master/contracts/token/ERC20/ERC20.sol\":5575:5591  to == address(0) */\n      0xffffffffffffffffffffffffffffffffffffffff\n      and\n      sub\n        /* \"https://github.com/OpenZeppelin/openzeppelin-contracts/blob/master/contracts/token/ERC20/ERC20.sol\":5571:5657  if (to == address(0)) {... */\n      tag_228\n      jumpi\n        /* \"https://github.com/OpenZeppelin/openzeppelin-contracts/blob/master/contracts/token/ERC20/ERC20.sol\":5643:5644  0 */\n      0x00\n        /* \"https://github.com/OpenZeppelin/openzeppelin-contracts/blob/master/contracts/token/ERC20/ERC20.sol\":5614:5646  ERC20InvalidReceiver(address(0)) */\n      mload(0x40)\n      0xec442f0500000000000000000000000000000000000000000000000000000000\n      dup2\n      mstore\n      0x04\n      add\n      tag_229\n      swap2\n      swap1\n      tag_222\n      jump\t// in\n    tag_229:\n      mload(0x40)\n      dup1\n      swap2\n      sub\n      swap1\n      revert\n        /* \"https://github.com/OpenZeppelin/openzeppelin-contracts/blob/master/contracts/token/ERC20/ERC20.sol\":5571:5657  if (to == address(0)) {... */\n    tag_228:\n        /* \"https://github.com/OpenZeppelin/openzeppelin-contracts/blob/master/contracts/token/ERC20/ERC20.sol\":5666:5690  _update(from, to, value) */\n      tag_230\n        /* \"https://github.com/OpenZeppelin/openzeppelin-contracts/blob/master/contracts/token/ERC20/ERC20.sol\":5674:5678  from */\n      dup4\n        /* \"https://github.com/OpenZeppelin/openzeppelin-contracts/blob/master/contracts/token/ERC20/ERC20.sol\":5680:5682  to */\n      dup4\n        /* \"https://github.com/OpenZeppelin/openzeppelin-contracts/blob/master/contracts/token/ERC20/ERC20.sol\":5684:5689  value */\n      dup4\n        /* \"https://github.com/OpenZeppelin/openzeppelin-contracts/blob/master/contracts/token/ERC20/ERC20.sol\":5666:5673  _update */\n      tag_224\n        /* \"https://github.com/OpenZeppelin/openzeppelin-contracts/blob/master/contracts/token/ERC20/ERC20.sol\":5666:5690  _update(from, to, value) */\n      jump\t// in\n    tag_230:\n        /* \"https://github.com/OpenZeppelin/openzeppelin-contracts/blob/master/contracts/token/ERC20/ERC20.sol\":5397:5697  function _transfer(address from, address to, uint256 value) internal {... */\n      pop\n      pop\n      pop\n      jump\t// out\n        /* \"https://github.com/OpenZeppelin/openzeppelin-contracts/blob/master/contracts/token/ERC20/ERC20.sol\":10419:10895  function _spendAllowance(address owner, address spender, uint256 value) internal virtual {... */\n    tag_166:\n        /* \"https://github.com/OpenZeppelin/openzeppelin-contracts/blob/master/contracts/token/ERC20/ERC20.sol\":10518:10542  uint256 currentAllowance */\n      0x00\n        /* \"https://github.com/OpenZeppelin/openzeppelin-contracts/blob/master/contracts/token/ERC20/ERC20.sol\":10545:10570  allowance(owner, spender) */\n      tag_232\n        /* \"https://github.com/OpenZeppelin/openzeppelin-contracts/blob/master/contracts/token/ERC20/ERC20.sol\":10555:10560  owner */\n      dup5\n        /* \"https://github.com/OpenZeppelin/openzeppelin-contracts/blob/master/contracts/token/ERC20/ERC20.sol\":10562:10569  spender */\n      dup5\n        /* \"https://github.com/OpenZeppelin/openzeppelin-contracts/blob/master/contracts/token/ERC20/ERC20.sol\":10545:10554  allowance */\n      tag_123\n        /* \"https://github.com/OpenZeppelin/openzeppelin-contracts/blob/master/contracts/token/ERC20/ERC20.sol\":10545:10570  allowance(owner, spender) */\n      jump\t// in\n    tag_232:\n        /* \"https://github.com/OpenZeppelin/openzeppelin-contracts/blob/master/contracts/token/ERC20/ERC20.sol\":10518:10570  uint256 currentAllowance = allowance(owner, spender) */\n      swap1\n      pop\n        /* \"https://github.com/OpenZeppelin/openzeppelin-contracts/blob/master/contracts/token/ERC20/ERC20.sol\":10603:10620  type(uint256).max */\n      0xffffffffffffffffffffffffffffffffffffffffffffffffffffffffffffffff\n        /* \"https://github.com/OpenZeppelin/openzeppelin-contracts/blob/master/contracts/token/ERC20/ERC20.sol\":10584:10600  currentAllowance */\n      dup2\n        /* \"https://github.com/OpenZeppelin/openzeppelin-contracts/blob/master/contracts/token/ERC20/ERC20.sol\":10584:10620  currentAllowance < type(uint256).max */\n      lt\n        /* \"https://github.com/OpenZeppelin/openzeppelin-contracts/blob/master/contracts/token/ERC20/ERC20.sol\":10580:10889  if (currentAllowance < type(uint256).max) {... */\n      iszero\n      tag_233\n      jumpi\n        /* \"https://github.com/OpenZeppelin/openzeppelin-contracts/blob/master/contracts/token/ERC20/ERC20.sol\":10659:10664  value */\n      dup2\n        /* \"https://github.com/OpenZeppelin/openzeppelin-contracts/blob/master/contracts/token/ERC20/ERC20.sol\":10640:10656  currentAllowance */\n      dup2\n        /* \"https://github.com/OpenZeppelin/openzeppelin-contracts/blob/master/contracts/token/ERC20/ERC20.sol\":10640:10664  currentAllowance < value */\n      lt\n        /* \"https://github.com/OpenZeppelin/openzeppelin-contracts/blob/master/contracts/token/ERC20/ERC20.sol\":10636:10766  if (currentAllowance < value) {... */\n      iszero\n      tag_234\n      jumpi\n        /* \"https://github.com/OpenZeppelin/openzeppelin-contracts/blob/master/contracts/token/ERC20/ERC20.sol\":10718:10725  spender */\n      dup3\n        /* \"https://github.com/OpenZeppelin/openzeppelin-contracts/blob/master/contracts/token/ERC20/ERC20.sol\":10727:10743  currentAllowance */\n      dup2\n        /* \"https://github.com/OpenZeppelin/openzeppelin-contracts/blob/master/contracts/token/ERC20/ERC20.sol\":10745:10750  value */\n      dup4\n        /* \"https://github.com/OpenZeppelin/openzeppelin-contracts/blob/master/contracts/token/ERC20/ERC20.sol\":10691:10751  ERC20InsufficientAllowance(spender, currentAllowance, value) */\n      mload(0x40)\n      0xfb8f41b200000000000000000000000000000000000000000000000000000000\n      dup2\n      mstore\n      0x04\n      add\n      tag_235\n      swap4\n      swap3\n      swap2\n      swap1\n      tag_236\n      jump\t// in\n    tag_235:\n      mload(0x40)\n      dup1\n      swap2\n      sub\n      swap1\n      revert\n        /* \"https://github.com/OpenZeppelin/openzeppelin-contracts/blob/master/contracts/token/ERC20/ERC20.sol\":10636:10766  if (currentAllowance < value) {... */\n    tag_234:\n        /* \"https://github.com/OpenZeppelin/openzeppelin-contracts/blob/master/contracts/token/ERC20/ERC20.sol\":10807:10864  _approve(owner, spender, currentAllowance - value, false) */\n      tag_237\n        /* \"https://github.com/OpenZeppelin/openzeppelin-contracts/blob/master/contracts/token/ERC20/ERC20.sol\":10816:10821  owner */\n      dup5\n        /* \"https://github.com/OpenZeppelin/openzeppelin-contracts/blob/master/contracts/token/ERC20/ERC20.sol\":10823:10830  spender */\n      dup5\n        /* \"https://github.com/OpenZeppelin/openzeppelin-contracts/blob/master/contracts/token/ERC20/ERC20.sol\":10851:10856  value */\n      dup5\n        /* \"https://github.com/OpenZeppelin/openzeppelin-contracts/blob/master/contracts/token/ERC20/ERC20.sol\":10832:10848  currentAllowance */\n      dup5\n        /* \"https://github.com/OpenZeppelin/openzeppelin-contracts/blob/master/contracts/token/ERC20/ERC20.sol\":10832:10856  currentAllowance - value */\n      sub\n        /* \"https://github.com/OpenZeppelin/openzeppelin-contracts/blob/master/contracts/token/ERC20/ERC20.sol\":10858:10863  false */\n      0x00\n        /* \"https://github.com/OpenZeppelin/openzeppelin-contracts/blob/master/contracts/token/ERC20/ERC20.sol\":10807:10815  _approve */\n      tag_218\n        /* \"https://github.com/OpenZeppelin/openzeppelin-contracts/blob/master/contracts/token/ERC20/ERC20.sol\":10807:10864  _approve(owner, spender, currentAllowance - value, false) */\n      jump\t// in\n    tag_237:\n        /* \"https://github.com/OpenZeppelin/openzeppelin-contracts/blob/master/contracts/token/ERC20/ERC20.sol\":10580:10889  if (currentAllowance < type(uint256).max) {... */\n    tag_233:\n        /* \"https://github.com/OpenZeppelin/openzeppelin-contracts/blob/master/contracts/token/ERC20/ERC20.sol\":10508:10895  {... */\n      pop\n        /* \"https://github.com/OpenZeppelin/openzeppelin-contracts/blob/master/contracts/token/ERC20/ERC20.sol\":10419:10895  function _spendAllowance(address owner, address spender, uint256 value) internal virtual {... */\n      pop\n      pop\n      pop\n      jump\t// out\n        /* \"https://github.com/OpenZeppelin/openzeppelin-contracts/blob/master/contracts/token/ERC20/ERC20.sol\":7988:8194  function _burn(address account, uint256 value) internal {... */\n    tag_208:\n        /* \"https://github.com/OpenZeppelin/openzeppelin-contracts/blob/master/contracts/token/ERC20/ERC20.sol\":8077:8078  0 */\n      0x00\n        /* \"https://github.com/OpenZeppelin/openzeppelin-contracts/blob/master/contracts/token/ERC20/ERC20.sol\":8058:8079  account == address(0) */\n      0xffffffffffffffffffffffffffffffffffffffff\n      and\n        /* \"https://github.com/OpenZeppelin/openzeppelin-contracts/blob/master/contracts/token/ERC20/ERC20.sol\":8058:8065  account */\n      dup3\n        /* \"https://github.com/OpenZeppelin/openzeppelin-contracts/blob/master/contracts/token/ERC20/ERC20.sol\":8058:8079  account == address(0) */\n      0xffffffffffffffffffffffffffffffffffffffff\n      and\n      sub\n        /* \"https://github.com/OpenZeppelin/openzeppelin-contracts/blob/master/contracts/token/ERC20/ERC20.sol\":8054:8143  if (account == address(0)) {... */\n      tag_239\n      jumpi\n        /* \"https://github.com/OpenZeppelin/openzeppelin-contracts/blob/master/contracts/token/ERC20/ERC20.sol\":8129:8130  0 */\n      0x00\n        /* \"https://github.com/OpenZeppelin/openzeppelin-contracts/blob/master/contracts/token/ERC20/ERC20.sol\":8102:8132  ERC20InvalidSender(address(0)) */\n      mload(0x40)\n      0x96c6fd1e00000000000000000000000000000000000000000000000000000000\n      dup2\n      mstore\n      0x04\n      add\n      tag_240\n      swap2\n      swap1\n      tag_222\n      jump\t// in\n    tag_240:\n      mload(0x40)\n      dup1\n      swap2\n      sub\n      swap1\n      revert\n        /* \"https://github.com/OpenZeppelin/openzeppelin-contracts/blob/master/contracts/token/ERC20/ERC20.sol\":8054:8143  if (account == address(0)) {... */\n    tag_239:\n        /* \"https://github.com/OpenZeppelin/openzeppelin-contracts/blob/master/contracts/token/ERC20/ERC20.sol\":8152:8187  _update(account, address(0), value) */\n      tag_241\n        /* \"https://github.com/OpenZeppelin/openzeppelin-contracts/blob/master/contracts/token/ERC20/ERC20.sol\":8160:8167  account */\n      dup3\n        /* \"https://github.com/OpenZeppelin/openzeppelin-contracts/blob/master/contracts/token/ERC20/ERC20.sol\":8177:8178  0 */\n      0x00\n        /* \"https://github.com/OpenZeppelin/openzeppelin-contracts/blob/master/contracts/token/ERC20/ERC20.sol\":8181:8186  value */\n      dup4\n        /* \"https://github.com/OpenZeppelin/openzeppelin-contracts/blob/master/contracts/token/ERC20/ERC20.sol\":8152:8159  _update */\n      tag_224\n        /* \"https://github.com/OpenZeppelin/openzeppelin-contracts/blob/master/contracts/token/ERC20/ERC20.sol\":8152:8187  _update(account, address(0), value) */\n      jump\t// in\n    tag_241:\n        /* \"https://github.com/OpenZeppelin/openzeppelin-contracts/blob/master/contracts/token/ERC20/ERC20.sol\":7988:8194  function _burn(address account, uint256 value) internal {... */\n      pop\n      pop\n      jump\t// out\n        /* \"https://github.com/OpenZeppelin/openzeppelin-contracts/blob/master/contracts/token/ERC20/ERC20.sol\":9705:10137  function _approve(address owner, address spender, uint256 value, bool emitEvent) internal virtual {... */\n    tag_218:\n        /* \"https://github.com/OpenZeppelin/openzeppelin-contracts/blob/master/contracts/token/ERC20/ERC20.sol\":9834:9835  0 */\n      0x00\n        /* \"https://github.com/OpenZeppelin/openzeppelin-contracts/blob/master/contracts/token/ERC20/ERC20.sol\":9817:9836  owner == address(0) */\n      0xffffffffffffffffffffffffffffffffffffffff\n      and\n        /* \"https://github.com/OpenZeppelin/openzeppelin-contracts/blob/master/contracts/token/ERC20/ERC20.sol\":9817:9822  owner */\n      dup5\n        /* \"https://github.com/OpenZeppelin/openzeppelin-contracts/blob/master/contracts/token/ERC20/ERC20.sol\":9817:9836  owner == address(0) */\n      0xffffffffffffffffffffffffffffffffffffffff\n      and\n      sub\n        /* \"https://github.com/OpenZeppelin/openzeppelin-contracts/blob/master/contracts/token/ERC20/ERC20.sol\":9813:9902  if (owner == address(0)) {... */\n      tag_243\n      jumpi\n        /* \"https://github.com/OpenZeppelin/openzeppelin-contracts/blob/master/contracts/token/ERC20/ERC20.sol\":9888:9889  0 */\n      0x00\n        /* \"https://github.com/OpenZeppelin/openzeppelin-contracts/blob/master/contracts/token/ERC20/ERC20.sol\":9859:9891  ERC20InvalidApprover(address(0)) */\n      mload(0x40)\n      0xe602df0500000000000000000000000000000000000000000000000000000000\n      dup2\n      mstore\n      0x04\n      add\n      tag_244\n      swap2\n      swap1\n      tag_222\n      jump\t// in\n    tag_244:\n      mload(0x40)\n      dup1\n      swap2\n      sub\n      swap1\n      revert\n        /* \"https://github.com/OpenZeppelin/openzeppelin-contracts/blob/master/contracts/token/ERC20/ERC20.sol\":9813:9902  if (owner == address(0)) {... */\n    tag_243:\n        /* \"https://github.com/OpenZeppelin/openzeppelin-contracts/blob/master/contracts/token/ERC20/ERC20.sol\":9934:9935  0 */\n      0x00\n        /* \"https://github.com/OpenZeppelin/openzeppelin-contracts/blob/master/contracts/token/ERC20/ERC20.sol\":9915:9936  spender == address(0) */\n      0xffffffffffffffffffffffffffffffffffffffff\n      and\n        /* \"https://github.com/OpenZeppelin/openzeppelin-contracts/blob/master/contracts/token/ERC20/ERC20.sol\":9915:9922  spender */\n      dup4\n        /* \"https://github.com/OpenZeppelin/openzeppelin-contracts/blob/master/contracts/token/ERC20/ERC20.sol\":9915:9936  spender == address(0) */\n      0xffffffffffffffffffffffffffffffffffffffff\n      and\n      sub\n        /* \"https://github.com/OpenZeppelin/openzeppelin-contracts/blob/master/contracts/token/ERC20/ERC20.sol\":9911:10001  if (spender == address(0)) {... */\n      tag_245\n      jumpi\n        /* \"https://github.com/OpenZeppelin/openzeppelin-contracts/blob/master/contracts/token/ERC20/ERC20.sol\":9987:9988  0 */\n      0x00\n        /* \"https://github.com/OpenZeppelin/openzeppelin-contracts/blob/master/contracts/token/ERC20/ERC20.sol\":9959:9990  ERC20InvalidSpender(address(0)) */\n      mload(0x40)\n      0x94280d6200000000000000000000000000000000000000000000000000000000\n      dup2\n      mstore\n      0x04\n      add\n      tag_246\n      swap2\n      swap1\n      tag_222\n      jump\t// in\n    tag_246:\n      mload(0x40)\n      dup1\n      swap2\n      sub\n      swap1\n      revert\n        /* \"https://github.com/OpenZeppelin/openzeppelin-contracts/blob/master/contracts/token/ERC20/ERC20.sol\":9911:10001  if (spender == address(0)) {... */\n    tag_245:\n        /* \"https://github.com/OpenZeppelin/openzeppelin-contracts/blob/master/contracts/token/ERC20/ERC20.sol\":10040:10045  value */\n      dup2\n        /* \"https://github.com/OpenZeppelin/openzeppelin-contracts/blob/master/contracts/token/ERC20/ERC20.sol\":10010:10021  _allowances */\n      0x01\n        /* \"https://github.com/OpenZeppelin/openzeppelin-contracts/blob/master/contracts/token/ERC20/ERC20.sol\":10010:10028  _allowances[owner] */\n      0x00\n        /* \"https://github.com/OpenZeppelin/openzeppelin-contracts/blob/master/contracts/token/ERC20/ERC20.sol\":10022:10027  owner */\n      dup7\n        /* \"https://github.com/OpenZeppelin/openzeppelin-contracts/blob/master/contracts/token/ERC20/ERC20.sol\":10010:10028  _allowances[owner] */\n      0xffffffffffffffffffffffffffffffffffffffff\n      and\n      0xffffffffffffffffffffffffffffffffffffffff\n      and\n      dup2\n      mstore\n      0x20\n      add\n      swap1\n      dup2\n      mstore\n      0x20\n      add\n      0x00\n      keccak256\n        /* \"https://github.com/OpenZeppelin/openzeppelin-contracts/blob/master/contracts/token/ERC20/ERC20.sol\":10010:10037  _allowances[owner][spender] */\n      0x00\n        /* \"https://github.com/OpenZeppelin/openzeppelin-contracts/blob/master/contracts/token/ERC20/ERC20.sol\":10029:10036  spender */\n      dup6\n        /* \"https://github.com/OpenZeppelin/openzeppelin-contracts/blob/master/contracts/token/ERC20/ERC20.sol\":10010:10037  _allowances[owner][spender] */\n      0xffffffffffffffffffffffffffffffffffffffff\n      and\n      0xffffffffffffffffffffffffffffffffffffffff\n      and\n      dup2\n      mstore\n      0x20\n      add\n      swap1\n      dup2\n      mstore\n      0x20\n      add\n      0x00\n      keccak256\n        /* \"https://github.com/OpenZeppelin/openzeppelin-contracts/blob/master/contracts/token/ERC20/ERC20.sol\":10010:10045  _allowances[owner][spender] = value */\n      dup2\n      swap1\n      sstore\n      pop\n        /* \"https://github.com/OpenZeppelin/openzeppelin-contracts/blob/master/contracts/token/ERC20/ERC20.sol\":10059:10068  emitEvent */\n      dup1\n        /* \"https://github.com/OpenZeppelin/openzeppelin-contracts/blob/master/contracts/token/ERC20/ERC20.sol\":10055:10131  if (emitEvent) {... */\n      iszero\n      tag_247\n      jumpi\n        /* \"https://github.com/OpenZeppelin/openzeppelin-contracts/blob/master/contracts/token/ERC20/ERC20.sol\":10105:10112  spender */\n      dup3\n        /* \"https://github.com/OpenZeppelin/openzeppelin-contracts/blob/master/contracts/token/ERC20/ERC20.sol\":10089:10120  Approval(owner, spender, value) */\n      0xffffffffffffffffffffffffffffffffffffffff\n      and\n        /* \"https://github.com/OpenZeppelin/openzeppelin-contracts/blob/master/contracts/token/ERC20/ERC20.sol\":10098:10103  owner */\n      dup5\n        /* \"https://github.com/OpenZeppelin/openzeppelin-contracts/blob/master/contracts/token/ERC20/ERC20.sol\":10089:10120  Approval(owner, spender, value) */\n      0xffffffffffffffffffffffffffffffffffffffff\n      and\n      0x8c5be1e5ebec7d5bd14f71427d1e84f3dd0314c0f7b2291e5b200ac8c7c3b925\n        /* \"https://github.com/OpenZeppelin/openzeppelin-contracts/blob/master/contracts/token/ERC20/ERC20.sol\":10114:10119  value */\n      dup5\n        /* \"https://github.com/OpenZeppelin/openzeppelin-contracts/blob/master/contracts/token/ERC20/ERC20.sol\":10089:10120  Approval(owner, spender, value) */\n      mload(0x40)\n      tag_248\n      swap2\n      swap1\n      tag_32\n      jump\t// in\n    tag_248:\n      mload(0x40)\n      dup1\n      swap2\n      sub\n      swap1\n      log3\n        /* \"https://github.com/OpenZeppelin/openzeppelin-contracts/blob/master/contracts/token/ERC20/ERC20.sol\":10055:10131  if (emitEvent) {... */\n    tag_247:\n        /* \"https://github.com/OpenZeppelin/openzeppelin-contracts/blob/master/contracts/token/ERC20/ERC20.sol\":9705:10137  function _approve(address owner, address spender, uint256 value, bool emitEvent) internal virtual {... */\n      pop\n      pop\n      pop\n      pop\n      jump\t// out\n        /* \"https://github.com/OpenZeppelin/openzeppelin-contracts/blob/master/contracts/token/ERC20/ERC20.sol\":6012:7119  function _update(address from, address to, uint256 value) internal virtual {... */\n    tag_224:\n        /* \"https://github.com/OpenZeppelin/openzeppelin-contracts/blob/master/contracts/token/ERC20/ERC20.sol\":6117:6118  0 */\n      0x00\n        /* \"https://github.com/OpenZeppelin/openzeppelin-contracts/blob/master/contracts/token/ERC20/ERC20.sol\":6101:6119  from == address(0) */\n      0xffffffffffffffffffffffffffffffffffffffff\n      and\n        /* \"https://github.com/OpenZeppelin/openzeppelin-contracts/blob/master/contracts/token/ERC20/ERC20.sol\":6101:6105  from */\n      dup4\n        /* \"https://github.com/OpenZeppelin/openzeppelin-contracts/blob/master/contracts/token/ERC20/ERC20.sol\":6101:6119  from == address(0) */\n      0xffffffffffffffffffffffffffffffffffffffff\n      and\n      sub\n        /* \"https://github.com/OpenZeppelin/openzeppelin-contracts/blob/master/contracts/token/ERC20/ERC20.sol\":6097:6637  if (from == address(0)) {... */\n      tag_250\n      jumpi\n        /* \"https://github.com/OpenZeppelin/openzeppelin-contracts/blob/master/contracts/token/ERC20/ERC20.sol\":6253:6258  value */\n      dup1\n        /* \"https://github.com/OpenZeppelin/openzeppelin-contracts/blob/master/contracts/token/ERC20/ERC20.sol\":6237:6249  _totalSupply */\n      0x02\n      0x00\n        /* \"https://github.com/OpenZeppelin/openzeppelin-contracts/blob/master/contracts/token/ERC20/ERC20.sol\":6237:6258  _totalSupply += value */\n      dup3\n      dup3\n      sload\n      tag_251\n      swap2\n      swap1\n      tag_252\n      jump\t// in\n    tag_251:\n      swap3\n      pop\n      pop\n      dup2\n      swap1\n      sstore\n      pop\n        /* \"https://github.com/OpenZeppelin/openzeppelin-contracts/blob/master/contracts/token/ERC20/ERC20.sol\":6097:6637  if (from == address(0)) {... */\n      jump(tag_253)\n    tag_250:\n        /* \"https://github.com/OpenZeppelin/openzeppelin-contracts/blob/master/contracts/token/ERC20/ERC20.sol\":6289:6308  uint256 fromBalance */\n      0x00\n        /* \"https://github.com/OpenZeppelin/openzeppelin-contracts/blob/master/contracts/token/ERC20/ERC20.sol\":6311:6320  _balances */\n      dup1\n        /* \"https://github.com/OpenZeppelin/openzeppelin-contracts/blob/master/contracts/token/ERC20/ERC20.sol\":6311:6326  _balances[from] */\n      0x00\n        /* \"https://github.com/OpenZeppelin/openzeppelin-contracts/blob/master/contracts/token/ERC20/ERC20.sol\":6321:6325  from */\n      dup6\n        /* \"https://github.com/OpenZeppelin/openzeppelin-contracts/blob/master/contracts/token/ERC20/ERC20.sol\":6311:6326  _balances[from] */\n      0xffffffffffffffffffffffffffffffffffffffff\n      and\n      0xffffffffffffffffffffffffffffffffffffffff\n      and\n      dup2\n      mstore\n      0x20\n      add\n      swap1\n      dup2\n      mstore\n      0x20\n      add\n      0x00\n      keccak256\n      sload\n        /* \"https://github.com/OpenZeppelin/openzeppelin-contracts/blob/master/contracts/token/ERC20/ERC20.sol\":6289:6326  uint256 fromBalance = _balances[from] */\n      swap1\n      pop\n        /* \"https://github.com/OpenZeppelin/openzeppelin-contracts/blob/master/contracts/token/ERC20/ERC20.sol\":6358:6363  value */\n      dup2\n        /* \"https://github.com/OpenZeppelin/openzeppelin-contracts/blob/master/contracts/token/ERC20/ERC20.sol\":6344:6355  fromBalance */\n      dup2\n        /* \"https://github.com/OpenZeppelin/openzeppelin-contracts/blob/master/contracts/token/ERC20/ERC20.sol\":6344:6363  fromBalance < value */\n      lt\n        /* \"https://github.com/OpenZeppelin/openzeppelin-contracts/blob/master/contracts/token/ERC20/ERC20.sol\":6340:6455  if (fromBalance < value) {... */\n      iszero\n      tag_254\n      jumpi\n        /* \"https://github.com/OpenZeppelin/openzeppelin-contracts/blob/master/contracts/token/ERC20/ERC20.sol\":6415:6419  from */\n      dup4\n        /* \"https://github.com/OpenZeppelin/openzeppelin-contracts/blob/master/contracts/token/ERC20/ERC20.sol\":6421:6432  fromBalance */\n      dup2\n        /* \"https://github.com/OpenZeppelin/openzeppelin-contracts/blob/master/contracts/token/ERC20/ERC20.sol\":6434:6439  value */\n      dup4\n        /* \"https://github.com/OpenZeppelin/openzeppelin-contracts/blob/master/contracts/token/ERC20/ERC20.sol\":6390:6440  ERC20InsufficientBalance(from, fromBalance, value) */\n      mload(0x40)\n      0xe450d38c00000000000000000000000000000000000000000000000000000000\n      dup2\n      mstore\n      0x04\n      add\n      tag_255\n      swap4\n      swap3\n      swap2\n      swap1\n      tag_236\n      jump\t// in\n    tag_255:\n      mload(0x40)\n      dup1\n      swap2\n      sub\n      swap1\n      revert\n        /* \"https://github.com/OpenZeppelin/openzeppelin-contracts/blob/master/contracts/token/ERC20/ERC20.sol\":6340:6455  if (fromBalance < value) {... */\n    tag_254:\n        /* \"https://github.com/OpenZeppelin/openzeppelin-contracts/blob/master/contracts/token/ERC20/ERC20.sol\":6607:6612  value */\n      dup2\n        /* \"https://github.com/OpenZeppelin/openzeppelin-contracts/blob/master/contracts/token/ERC20/ERC20.sol\":6593:6604  fromBalance */\n      dup2\n        /* \"https://github.com/OpenZeppelin/openzeppelin-contracts/blob/master/contracts/token/ERC20/ERC20.sol\":6593:6612  fromBalance - value */\n      sub\n        /* \"https://github.com/OpenZeppelin/openzeppelin-contracts/blob/master/contracts/token/ERC20/ERC20.sol\":6575:6584  _balances */\n      0x00\n        /* \"https://github.com/OpenZeppelin/openzeppelin-contracts/blob/master/contracts/token/ERC20/ERC20.sol\":6575:6590  _balances[from] */\n      dup1\n        /* \"https://github.com/OpenZeppelin/openzeppelin-contracts/blob/master/contracts/token/ERC20/ERC20.sol\":6585:6589  from */\n      dup7\n        /* \"https://github.com/OpenZeppelin/openzeppelin-contracts/blob/master/contracts/token/ERC20/ERC20.sol\":6575:6590  _balances[from] */\n      0xffffffffffffffffffffffffffffffffffffffff\n      and\n      0xffffffffffffffffffffffffffffffffffffffff\n      and\n      dup2\n      mstore\n      0x20\n      add\n      swap1\n      dup2\n      mstore\n      0x20\n      add\n      0x00\n      keccak256\n        /* \"https://github.com/OpenZeppelin/openzeppelin-contracts/blob/master/contracts/token/ERC20/ERC20.sol\":6575:6612  _balances[from] = fromBalance - value */\n      dup2\n      swap1\n      sstore\n      pop\n        /* \"https://github.com/OpenZeppelin/openzeppelin-contracts/blob/master/contracts/token/ERC20/ERC20.sol\":6275:6637  {... */\n      pop\n        /* \"https://github.com/OpenZeppelin/openzeppelin-contracts/blob/master/contracts/token/ERC20/ERC20.sol\":6097:6637  if (from == address(0)) {... */\n    tag_253:\n        /* \"https://github.com/OpenZeppelin/openzeppelin-contracts/blob/master/contracts/token/ERC20/ERC20.sol\":6665:6666  0 */\n      0x00\n        /* \"https://github.com/OpenZeppelin/openzeppelin-contracts/blob/master/contracts/token/ERC20/ERC20.sol\":6651:6667  to == address(0) */\n      0xffffffffffffffffffffffffffffffffffffffff\n      and\n        /* \"https://github.com/OpenZeppelin/openzeppelin-contracts/blob/master/contracts/token/ERC20/ERC20.sol\":6651:6653  to */\n      dup3\n        /* \"https://github.com/OpenZeppelin/openzeppelin-contracts/blob/master/contracts/token/ERC20/ERC20.sol\":6651:6667  to == address(0) */\n      0xffffffffffffffffffffffffffffffffffffffff\n      and\n      sub\n        /* \"https://github.com/OpenZeppelin/openzeppelin-contracts/blob/master/contracts/token/ERC20/ERC20.sol\":6647:7072  if (to == address(0)) {... */\n      tag_256\n      jumpi\n        /* \"https://github.com/OpenZeppelin/openzeppelin-contracts/blob/master/contracts/token/ERC20/ERC20.sol\":6830:6835  value */\n      dup1\n        /* \"https://github.com/OpenZeppelin/openzeppelin-contracts/blob/master/contracts/token/ERC20/ERC20.sol\":6814:6826  _totalSupply */\n      0x02\n      0x00\n        /* \"https://github.com/OpenZeppelin/openzeppelin-contracts/blob/master/contracts/token/ERC20/ERC20.sol\":6814:6835  _totalSupply -= value */\n      dup3\n      dup3\n      sload\n      sub\n      swap3\n      pop\n      pop\n      dup2\n      swap1\n      sstore\n      pop\n        /* \"https://github.com/OpenZeppelin/openzeppelin-contracts/blob/master/contracts/token/ERC20/ERC20.sol\":6647:7072  if (to == address(0)) {... */\n      jump(tag_257)\n    tag_256:\n        /* \"https://github.com/OpenZeppelin/openzeppelin-contracts/blob/master/contracts/token/ERC20/ERC20.sol\":7042:7047  value */\n      dup1\n        /* \"https://github.com/OpenZeppelin/openzeppelin-contracts/blob/master/contracts/token/ERC20/ERC20.sol\":7025:7034  _balances */\n      0x00\n        /* \"https://github.com/OpenZeppelin/openzeppelin-contracts/blob/master/contracts/token/ERC20/ERC20.sol\":7025:7038  _balances[to] */\n      dup1\n        /* \"https://github.com/OpenZeppelin/openzeppelin-contracts/blob/master/contracts/token/ERC20/ERC20.sol\":7035:7037  to */\n      dup5\n        /* \"https://github.com/OpenZeppelin/openzeppelin-contracts/blob/master/contracts/token/ERC20/ERC20.sol\":7025:7038  _balances[to] */\n      0xffffffffffffffffffffffffffffffffffffffff\n      and\n      0xffffffffffffffffffffffffffffffffffffffff\n      and\n      dup2\n      mstore\n      0x20\n      add\n      swap1\n      dup2\n      mstore\n      0x20\n      add\n      0x00\n      keccak256\n      0x00\n        /* \"https://github.com/OpenZeppelin/openzeppelin-contracts/blob/master/contracts/token/ERC20/ERC20.sol\":7025:7047  _balances[to] += value */\n      dup3\n      dup3\n      sload\n      add\n      swap3\n      pop\n      pop\n      dup2\n      swap1\n      sstore\n      pop\n        /* \"https://github.com/OpenZeppelin/openzeppelin-contracts/blob/master/contracts/token/ERC20/ERC20.sol\":6647:7072  if (to == address(0)) {... */\n    tag_257:\n        /* \"https://github.com/OpenZeppelin/openzeppelin-contracts/blob/master/contracts/token/ERC20/ERC20.sol\":7102:7104  to */\n      dup2\n        /* \"https://github.com/OpenZeppelin/openzeppelin-contracts/blob/master/contracts/token/ERC20/ERC20.sol\":7087:7112  Transfer(from, to, value) */\n      0xffffffffffffffffffffffffffffffffffffffff\n      and\n        /* \"https://github.com/OpenZeppelin/openzeppelin-contracts/blob/master/contracts/token/ERC20/ERC20.sol\":7096:7100  from */\n      dup4\n        /* \"https://github.com/OpenZeppelin/openzeppelin-contracts/blob/master/contracts/token/ERC20/ERC20.sol\":7087:7112  Transfer(from, to, value) */\n      0xffffffffffffffffffffffffffffffffffffffff\n      and\n      0xddf252ad1be2c89b69c2b068fc378daa952ba7f163c4a11628f55a4df523b3ef\n        /* \"https://github.com/OpenZeppelin/openzeppelin-contracts/blob/master/contracts/token/ERC20/ERC20.sol\":7106:7111  value */\n      dup4\n        /* \"https://github.com/OpenZeppelin/openzeppelin-contracts/blob/master/contracts/token/ERC20/ERC20.sol\":7087:7112  Transfer(from, to, value) */\n      mload(0x40)\n      tag_258\n      swap2\n      swap1\n      tag_32\n      jump\t// in\n    tag_258:\n      mload(0x40)\n      dup1\n      swap2\n      sub\n      swap1\n      log3\n        /* \"https://github.com/OpenZeppelin/openzeppelin-contracts/blob/master/contracts/token/ERC20/ERC20.sol\":6012:7119  function _update(address from, address to, uint256 value) internal virtual {... */\n      pop\n      pop\n      pop\n      jump\t// out\n        /* \"#utility.yul\":88:205   */\n    tag_260:\n        /* \"#utility.yul\":197:198   */\n      0x00\n        /* \"#utility.yul\":194:195   */\n      dup1\n        /* \"#utility.yul\":187:199   */\n      revert\n        /* \"#utility.yul\":334:460   */\n    tag_262:\n        /* \"#utility.yul\":371:378   */\n      0x00\n        /* \"#utility.yul\":411:453   */\n      0xffffffffffffffffffffffffffffffffffffffff\n        /* \"#utility.yul\":404:409   */\n      dup3\n        /* \"#utility.yul\":400:454   */\n      and\n        /* \"#utility.yul\":389:454   */\n      swap1\n      pop\n        /* \"#utility.yul\":334:460   */\n      swap2\n      swap1\n      pop\n      jump\t// out\n        /* \"#utility.yul\":466:562   */\n    tag_263:\n        /* \"#utility.yul\":503:510   */\n      0x00\n        /* \"#utility.yul\":532:556   */\n      tag_306\n        /* \"#utility.yul\":550:555   */\n      dup3\n        /* \"#utility.yul\":532:556   */\n      tag_262\n      jump\t// in\n    tag_306:\n        /* \"#utility.yul\":521:556   */\n      swap1\n      pop\n        /* \"#utility.yul\":466:562   */\n      swap2\n      swap1\n      pop\n      jump\t// out\n        /* \"#utility.yul\":568:690   */\n    tag_264:\n        /* \"#utility.yul\":641:665   */\n      tag_308\n        /* \"#utility.yul\":659:664   */\n      dup2\n        /* \"#utility.yul\":641:665   */\n      tag_263\n      jump\t// in\n    tag_308:\n        /* \"#utility.yul\":634:639   */\n      dup2\n        /* \"#utility.yul\":631:666   */\n      eq\n        /* \"#utility.yul\":621:684   */\n      tag_309\n      jumpi\n        /* \"#utility.yul\":680:681   */\n      0x00\n        /* \"#utility.yul\":677:678   */\n      dup1\n        /* \"#utility.yul\":670:682   */\n      revert\n        /* \"#utility.yul\":621:684   */\n    tag_309:\n        /* \"#utility.yul\":568:690   */\n      pop\n      jump\t// out\n        /* \"#utility.yul\":696:835   */\n    tag_265:\n        /* \"#utility.yul\":742:747   */\n      0x00\n        /* \"#utility.yul\":780:786   */\n      dup2\n        /* \"#utility.yul\":767:787   */\n      calldataload\n        /* \"#utility.yul\":758:787   */\n      swap1\n      pop\n        /* \"#utility.yul\":796:829   */\n      tag_311\n        /* \"#utility.yul\":823:828   */\n      dup2\n        /* \"#utility.yul\":796:829   */\n      tag_264\n      jump\t// in\n    tag_311:\n        /* \"#utility.yul\":696:835   */\n      swap3\n      swap2\n      pop\n      pop\n      jump\t// out\n        /* \"#utility.yul\":841:1170   */\n    tag_29:\n        /* \"#utility.yul\":900:906   */\n      0x00\n        /* \"#utility.yul\":949:951   */\n      0x20\n        /* \"#utility.yul\":937:946   */\n      dup3\n        /* \"#utility.yul\":928:935   */\n      dup5\n        /* \"#utility.yul\":924:947   */\n      sub\n        /* \"#utility.yul\":920:952   */\n      slt\n        /* \"#utility.yul\":917:1036   */\n      iszero\n      tag_313\n      jumpi\n        /* \"#utility.yul\":955:1034   */\n      tag_314\n      tag_260\n      jump\t// in\n    tag_314:\n        /* \"#utility.yul\":917:1036   */\n    tag_313:\n        /* \"#utility.yul\":1075:1076   */\n      0x00\n        /* \"#utility.yul\":1100:1153   */\n      tag_315\n        /* \"#utility.yul\":1145:1152   */\n      dup5\n        /* \"#utility.yul\":1136:1142   */\n      dup3\n        /* \"#utility.yul\":1125:1134   */\n      dup6\n        /* \"#utility.yul\":1121:1143   */\n      add\n        /* \"#utility.yul\":1100:1153   */\n      tag_265\n      jump\t// in\n    tag_315:\n        /* \"#utility.yul\":1090:1153   */\n      swap2\n      pop\n        /* \"#utility.yul\":1046:1163   */\n      pop\n        /* \"#utility.yul\":841:1170   */\n      swap3\n      swap2\n      pop\n      pop\n      jump\t// out\n        /* \"#utility.yul\":1176:1253   */\n    tag_266:\n        /* \"#utility.yul\":1213:1220   */\n      0x00\n        /* \"#utility.yul\":1242:1247   */\n      dup2\n        /* \"#utility.yul\":1231:1247   */\n      swap1\n      pop\n        /* \"#utility.yul\":1176:1253   */\n      swap2\n      swap1\n      pop\n      jump\t// out\n        /* \"#utility.yul\":1259:1377   */\n    tag_267:\n        /* \"#utility.yul\":1346:1370   */\n      tag_318\n        /* \"#utility.yul\":1364:1369   */\n      dup2\n        /* \"#utility.yul\":1346:1370   */\n      tag_266\n      jump\t// in\n    tag_318:\n        /* \"#utility.yul\":1341:1344   */\n      dup3\n        /* \"#utility.yul\":1334:1371   */\n      mstore\n        /* \"#utility.yul\":1259:1377   */\n      pop\n      pop\n      jump\t// out\n        /* \"#utility.yul\":1383:1605   */\n    tag_32:\n        /* \"#utility.yul\":1476:1480   */\n      0x00\n        /* \"#utility.yul\":1514:1516   */\n      0x20\n        /* \"#utility.yul\":1503:1512   */\n      dup3\n        /* \"#utility.yul\":1499:1517   */\n      add\n        /* \"#utility.yul\":1491:1517   */\n      swap1\n      pop\n        /* \"#utility.yul\":1527:1598   */\n      tag_320\n        /* \"#utility.yul\":1595:1596   */\n      0x00\n        /* \"#utility.yul\":1584:1593   */\n      dup4\n        /* \"#utility.yul\":1580:1597   */\n      add\n        /* \"#utility.yul\":1571:1577   */\n      dup5\n        /* \"#utility.yul\":1527:1598   */\n      tag_267\n      jump\t// in\n    tag_320:\n        /* \"#utility.yul\":1383:1605   */\n      swap3\n      swap2\n      pop\n      pop\n      jump\t// out\n        /* \"#utility.yul\":1611:1710   */\n    tag_268:\n        /* \"#utility.yul\":1663:1669   */\n      0x00\n        /* \"#utility.yul\":1697:1702   */\n      dup2\n        /* \"#utility.yul\":1691:1703   */\n      mload\n        /* \"#utility.yul\":1681:1703   */\n      swap1\n      pop\n        /* \"#utility.yul\":1611:1710   */\n      swap2\n      swap1\n      pop\n      jump\t// out\n        /* \"#utility.yul\":1716:1885   */\n    tag_269:\n        /* \"#utility.yul\":1800:1811   */\n      0x00\n        /* \"#utility.yul\":1834:1840   */\n      dup3\n        /* \"#utility.yul\":1829:1832   */\n      dup3\n        /* \"#utility.yul\":1822:1841   */\n      mstore\n        /* \"#utility.yul\":1874:1878   */\n      0x20\n        /* \"#utility.yul\":1869:1872   */\n      dup3\n        /* \"#utility.yul\":1865:1879   */\n      add\n        /* \"#utility.yul\":1850:1879   */\n      swap1\n      pop\n        /* \"#utility.yul\":1716:1885   */\n      swap3\n      swap2\n      pop\n      pop\n      jump\t// out\n        /* \"#utility.yul\":1891:2030   */\n    tag_270:\n        /* \"#utility.yul\":1980:1986   */\n      dup3\n        /* \"#utility.yul\":1975:1978   */\n      dup2\n        /* \"#utility.yul\":1970:1973   */\n      dup4\n        /* \"#utility.yul\":1964:1987   */\n      mcopy\n        /* \"#utility.yul\":2021:2022   */\n      0x00\n        /* \"#utility.yul\":2012:2018   */\n      dup4\n        /* \"#utility.yul\":2007:2010   */\n      dup4\n        /* \"#utility.yul\":2003:2019   */\n      add\n        /* \"#utility.yul\":1996:2023   */\n      mstore\n        /* \"#utility.yul\":1891:2030   */\n      pop\n      pop\n      pop\n      jump\t// out\n        /* \"#utility.yul\":2036:2138   */\n    tag_271:\n        /* \"#utility.yul\":2077:2083   */\n      0x00\n        /* \"#utility.yul\":2128:2130   */\n      0x1f\n        /* \"#utility.yul\":2124:2131   */\n      not\n        /* \"#utility.yul\":2119:2121   */\n      0x1f\n        /* \"#utility.yul\":2112:2117   */\n      dup4\n        /* \"#utility.yul\":2108:2122   */\n      add\n        /* \"#utility.yul\":2104:2132   */\n      and\n        /* \"#utility.yul\":2094:2132   */\n      swap1\n      pop\n        /* \"#utility.yul\":2036:2138   */\n      swap2\n      swap1\n      pop\n      jump\t// out\n        /* \"#utility.yul\":2144:2521   */\n    tag_272:\n        /* \"#utility.yul\":2232:2235   */\n      0x00\n        /* \"#utility.yul\":2260:2299   */\n      tag_326\n        /* \"#utility.yul\":2293:2298   */\n      dup3\n        /* \"#utility.yul\":2260:2299   */\n      tag_268\n      jump\t// in\n    tag_326:\n        /* \"#utility.yul\":2315:2386   */\n      tag_327\n        /* \"#utility.yul\":2379:2385   */\n      dup2\n        /* \"#utility.yul\":2374:2377   */\n      dup6\n        /* \"#utility.yul\":2315:2386   */\n      tag_269\n      jump\t// in\n    tag_327:\n        /* \"#utility.yul\":2308:2386   */\n      swap4\n      pop\n        /* \"#utility.yul\":2395:2460   */\n      tag_328\n        /* \"#utility.yul\":2453:2459   */\n      dup2\n        /* \"#utility.yul\":2448:2451   */\n      dup6\n        /* \"#utility.yul\":2441:2445   */\n      0x20\n        /* \"#utility.yul\":2434:2439   */\n      dup7\n        /* \"#utility.yul\":2430:2446   */\n      add\n        /* \"#utility.yul\":2395:2460   */\n      tag_270\n      jump\t// in\n    tag_328:\n        /* \"#utility.yul\":2485:2514   */\n      tag_329\n        /* \"#utility.yul\":2507:2513   */\n      dup2\n        /* \"#utility.yul\":2485:2514   */\n      tag_271\n      jump\t// in\n    tag_329:\n        /* \"#utility.yul\":2480:2483   */\n      dup5\n        /* \"#utility.yul\":2476:2515   */\n      add\n        /* \"#utility.yul\":2469:2515   */\n      swap2\n      pop\n        /* \"#utility.yul\":2236:2521   */\n      pop\n        /* \"#utility.yul\":2144:2521   */\n      swap3\n      swap2\n      pop\n      pop\n      jump\t// out\n        /* \"#utility.yul\":2527:2840   */\n    tag_37:\n        /* \"#utility.yul\":2640:2644   */\n      0x00\n        /* \"#utility.yul\":2678:2680   */\n      0x20\n        /* \"#utility.yul\":2667:2676   */\n      dup3\n        /* \"#utility.yul\":2663:2681   */\n      add\n        /* \"#utility.yul\":2655:2681   */\n      swap1\n      pop\n        /* \"#utility.yul\":2727:2736   */\n      dup2\n        /* \"#utility.yul\":2721:2725   */\n      dup2\n        /* \"#utility.yul\":2717:2737   */\n      sub\n        /* \"#utility.yul\":2713:2714   */\n      0x00\n        /* \"#utility.yul\":2702:2711   */\n      dup4\n        /* \"#utility.yul\":2698:2715   */\n      add\n        /* \"#utility.yul\":2691:2738   */\n      mstore\n        /* \"#utility.yul\":2755:2833   */\n      tag_331\n        /* \"#utility.yul\":2828:2832   */\n      dup2\n        /* \"#utility.yul\":2819:2825   */\n      dup5\n        /* \"#utility.yul\":2755:2833   */\n      tag_272\n      jump\t// in\n    tag_331:\n        /* \"#utility.yul\":2747:2833   */\n      swap1\n      pop\n        /* \"#utility.yul\":2527:2840   */\n      swap3\n      swap2\n      pop\n      pop\n      jump\t// out\n        /* \"#utility.yul\":2846:2968   */\n    tag_273:\n        /* \"#utility.yul\":2919:2943   */\n      tag_333\n        /* \"#utility.yul\":2937:2942   */\n      dup2\n        /* \"#utility.yul\":2919:2943   */\n      tag_266\n      jump\t// in\n    tag_333:\n        /* \"#utility.yul\":2912:2917   */\n      dup2\n        /* \"#utility.yul\":2909:2944   */\n      eq\n        /* \"#utility.yul\":2899:2962   */\n      tag_334\n      jumpi\n        /* \"#utility.yul\":2958:2959   */\n      0x00\n        /* \"#utility.yul\":2955:2956   */\n      dup1\n        /* \"#utility.yul\":2948:2960   */\n      revert\n        /* \"#utility.yul\":2899:2962   */\n    tag_334:\n        /* \"#utility.yul\":2846:2968   */\n      pop\n      jump\t// out\n        /* \"#utility.yul\":2974:3113   */\n    tag_274:\n        /* \"#utility.yul\":3020:3025   */\n      0x00\n        /* \"#utility.yul\":3058:3064   */\n      dup2\n        /* \"#utility.yul\":3045:3065   */\n      calldataload\n        /* \"#utility.yul\":3036:3065   */\n      swap1\n      pop\n        /* \"#utility.yul\":3074:3107   */\n      tag_336\n        /* \"#utility.yul\":3101:3106   */\n      dup2\n        /* \"#utility.yul\":3074:3107   */\n      tag_273\n      jump\t// in\n    tag_336:\n        /* \"#utility.yul\":2974:3113   */\n      swap3\n      swap2\n      pop\n      pop\n      jump\t// out\n        /* \"#utility.yul\":3119:3593   */\n    tag_41:\n        /* \"#utility.yul\":3187:3193   */\n      0x00\n        /* \"#utility.yul\":3195:3201   */\n      dup1\n        /* \"#utility.yul\":3244:3246   */\n      0x40\n        /* \"#utility.yul\":3232:3241   */\n      dup4\n        /* \"#utility.yul\":3223:3230   */\n      dup6\n        /* \"#utility.yul\":3219:3242   */\n      sub\n        /* \"#utility.yul\":3215:3247   */\n      slt\n        /* \"#utility.yul\":3212:3331   */\n      iszero\n      tag_338\n      jumpi\n        /* \"#utility.yul\":3250:3329   */\n      tag_339\n      tag_260\n      jump\t// in\n    tag_339:\n        /* \"#utility.yul\":3212:3331   */\n    tag_338:\n        /* \"#utility.yul\":3370:3371   */\n      0x00\n        /* \"#utility.yul\":3395:3448   */\n      tag_340\n        /* \"#utility.yul\":3440:3447   */\n      dup6\n        /* \"#utility.yul\":3431:3437   */\n      dup3\n        /* \"#utility.yul\":3420:3429   */\n      dup7\n        /* \"#utility.yul\":3416:3438   */\n      add\n        /* \"#utility.yul\":3395:3448   */\n      tag_265\n      jump\t// in\n    tag_340:\n        /* \"#utility.yul\":3385:3448   */\n      swap3\n      pop\n        /* \"#utility.yul\":3341:3458   */\n      pop\n        /* \"#utility.yul\":3497:3499   */\n      0x20\n        /* \"#utility.yul\":3523:3576   */\n      tag_341\n        /* \"#utility.yul\":3568:3575   */\n      dup6\n        /* \"#utility.yul\":3559:3565   */\n      dup3\n        /* \"#utility.yul\":3548:3557   */\n      dup7\n        /* \"#utility.yul\":3544:3566   */\n      add\n        /* \"#utility.yul\":3523:3576   */\n      tag_274\n      jump\t// in\n    tag_341:\n        /* \"#utility.yul\":3513:3576   */\n      swap2\n      pop\n        /* \"#utility.yul\":3468:3586   */\n      pop\n        /* \"#utility.yul\":3119:3593   */\n      swap3\n      pop\n      swap3\n      swap1\n      pop\n      jump\t// out\n        /* \"#utility.yul\":3599:3689   */\n    tag_275:\n        /* \"#utility.yul\":3633:3640   */\n      0x00\n        /* \"#utility.yul\":3676:3681   */\n      dup2\n        /* \"#utility.yul\":3669:3682   */\n      iszero\n        /* \"#utility.yul\":3662:3683   */\n      iszero\n        /* \"#utility.yul\":3651:3683   */\n      swap1\n      pop\n        /* \"#utility.yul\":3599:3689   */\n      swap2\n      swap1\n      pop\n      jump\t// out\n        /* \"#utility.yul\":3695:3804   */\n    tag_276:\n        /* \"#utility.yul\":3776:3797   */\n      tag_344\n        /* \"#utility.yul\":3791:3796   */\n      dup2\n        /* \"#utility.yul\":3776:3797   */\n      tag_275\n      jump\t// in\n    tag_344:\n        /* \"#utility.yul\":3771:3774   */\n      dup3\n        /* \"#utility.yul\":3764:3798   */\n      mstore\n        /* \"#utility.yul\":3695:3804   */\n      pop\n      pop\n      jump\t// out\n        /* \"#utility.yul\":3810:4020   */\n    tag_44:\n        /* \"#utility.yul\":3897:3901   */\n      0x00\n        /* \"#utility.yul\":3935:3937   */\n      0x20\n        /* \"#utility.yul\":3924:3933   */\n      dup3\n        /* \"#utility.yul\":3920:3938   */\n      add\n        /* \"#utility.yul\":3912:3938   */\n      swap1\n      pop\n        /* \"#utility.yul\":3948:4013   */\n      tag_346\n        /* \"#utility.yul\":4010:4011   */\n      0x00\n        /* \"#utility.yul\":3999:4008   */\n      dup4\n        /* \"#utility.yul\":3995:4012   */\n      add\n        /* \"#utility.yul\":3986:3992   */\n      dup5\n        /* \"#utility.yul\":3948:4013   */\n      tag_276\n      jump\t// in\n    tag_346:\n        /* \"#utility.yul\":3810:4020   */\n      swap3\n      swap2\n      pop\n      pop\n      jump\t// out\n        /* \"#utility.yul\":4026:4355   */\n    tag_55:\n        /* \"#utility.yul\":4085:4091   */\n      0x00\n        /* \"#utility.yul\":4134:4136   */\n      0x20\n        /* \"#utility.yul\":4122:4131   */\n      dup3\n        /* \"#utility.yul\":4113:4120   */\n      dup5\n        /* \"#utility.yul\":4109:4132   */\n      sub\n        /* \"#utility.yul\":4105:4137   */\n      slt\n        /* \"#utility.yul\":4102:4221   */\n      iszero\n      tag_348\n      jumpi\n        /* \"#utility.yul\":4140:4219   */\n      tag_349\n      tag_260\n      jump\t// in\n    tag_349:\n        /* \"#utility.yul\":4102:4221   */\n    tag_348:\n        /* \"#utility.yul\":4260:4261   */\n      0x00\n        /* \"#utility.yul\":4285:4338   */\n      tag_350\n        /* \"#utility.yul\":4330:4337   */\n      dup5\n        /* \"#utility.yul\":4321:4327   */\n      dup3\n        /* \"#utility.yul\":4310:4319   */\n      dup6\n        /* \"#utility.yul\":4306:4328   */\n      add\n        /* \"#utility.yul\":4285:4338   */\n      tag_274\n      jump\t// in\n    tag_350:\n        /* \"#utility.yul\":4275:4338   */\n      swap2\n      pop\n        /* \"#utility.yul\":4231:4348   */\n      pop\n        /* \"#utility.yul\":4026:4355   */\n      swap3\n      swap2\n      pop\n      pop\n      jump\t// out\n        /* \"#utility.yul\":4361:4980   */\n    tag_71:\n        /* \"#utility.yul\":4438:4444   */\n      0x00\n        /* \"#utility.yul\":4446:4452   */\n      dup1\n        /* \"#utility.yul\":4454:4460   */\n      0x00\n        /* \"#utility.yul\":4503:4505   */\n      0x60\n        /* \"#utility.yul\":4491:4500   */\n      dup5\n        /* \"#utility.yul\":4482:4489   */\n      dup7\n        /* \"#utility.yul\":4478:4501   */\n      sub\n        /* \"#utility.yul\":4474:4506   */\n      slt\n        /* \"#utility.yul\":4471:4590   */\n      iszero\n      tag_352\n      jumpi\n        /* \"#utility.yul\":4509:4588   */\n      tag_353\n      tag_260\n      jump\t// in\n    tag_353:\n        /* \"#utility.yul\":4471:4590   */\n    tag_352:\n        /* \"#utility.yul\":4629:4630   */\n      0x00\n        /* \"#utility.yul\":4654:4707   */\n      tag_354\n        /* \"#utility.yul\":4699:4706   */\n      dup7\n        /* \"#utility.yul\":4690:4696   */\n      dup3\n        /* \"#utility.yul\":4679:4688   */\n      dup8\n        /* \"#utility.yul\":4675:4697   */\n      add\n        /* \"#utility.yul\":4654:4707   */\n      tag_265\n      jump\t// in\n    tag_354:\n        /* \"#utility.yul\":4644:4707   */\n      swap4\n      pop\n        /* \"#utility.yul\":4600:4717   */\n      pop\n        /* \"#utility.yul\":4756:4758   */\n      0x20\n        /* \"#utility.yul\":4782:4835   */\n      tag_355\n        /* \"#utility.yul\":4827:4834   */\n      dup7\n        /* \"#utility.yul\":4818:4824   */\n      dup3\n        /* \"#utility.yul\":4807:4816   */\n      dup8\n        /* \"#utility.yul\":4803:4825   */\n      add\n        /* \"#utility.yul\":4782:4835   */\n      tag_265\n      jump\t// in\n    tag_355:\n        /* \"#utility.yul\":4772:4835   */\n      swap3\n      pop\n        /* \"#utility.yul\":4727:4845   */\n      pop\n        /* \"#utility.yul\":4884:4886   */\n      0x40\n        /* \"#utility.yul\":4910:4963   */\n      tag_356\n        /* \"#utility.yul\":4955:4962   */\n      dup7\n        /* \"#utility.yul\":4946:4952   */\n      dup3\n        /* \"#utility.yul\":4935:4944   */\n      dup8\n        /* \"#utility.yul\":4931:4953   */\n      add\n        /* \"#utility.yul\":4910:4963   */\n      tag_274\n      jump\t// in\n    tag_356:\n        /* \"#utility.yul\":4900:4963   */\n      swap2\n      pop\n        /* \"#utility.yul\":4855:4973   */\n      pop\n        /* \"#utility.yul\":4361:4980   */\n      swap3\n      pop\n      swap3\n      pop\n      swap3\n      jump\t// out\n        /* \"#utility.yul\":4986:5072   */\n    tag_277:\n        /* \"#utility.yul\":5021:5028   */\n      0x00\n        /* \"#utility.yul\":5061:5065   */\n      0xff\n        /* \"#utility.yul\":5054:5059   */\n      dup3\n        /* \"#utility.yul\":5050:5066   */\n      and\n        /* \"#utility.yul\":5039:5066   */\n      swap1\n      pop\n        /* \"#utility.yul\":4986:5072   */\n      swap2\n      swap1\n      pop\n      jump\t// out\n        /* \"#utility.yul\":5078:5190   */\n    tag_278:\n        /* \"#utility.yul\":5161:5183   */\n      tag_359\n        /* \"#utility.yul\":5177:5182   */\n      dup2\n        /* \"#utility.yul\":5161:5183   */\n      tag_277\n      jump\t// in\n    tag_359:\n        /* \"#utility.yul\":5156:5159   */\n      dup3\n        /* \"#utility.yul\":5149:5184   */\n      mstore\n        /* \"#utility.yul\":5078:5190   */\n      pop\n      pop\n      jump\t// out\n        /* \"#utility.yul\":5196:5410   */\n    tag_78:\n        /* \"#utility.yul\":5285:5289   */\n      0x00\n        /* \"#utility.yul\":5323:5325   */\n      0x20\n        /* \"#utility.yul\":5312:5321   */\n      dup3\n        /* \"#utility.yul\":5308:5326   */\n      add\n        /* \"#utility.yul\":5300:5326   */\n      swap1\n      pop\n        /* \"#utility.yul\":5336:5403   */\n      tag_361\n        /* \"#utility.yul\":5400:5401   */\n      0x00\n        /* \"#utility.yul\":5389:5398   */\n      dup4\n        /* \"#utility.yul\":5385:5402   */\n      add\n        /* \"#utility.yul\":5376:5382   */\n      dup5\n        /* \"#utility.yul\":5336:5403   */\n      tag_278\n      jump\t// in\n    tag_361:\n        /* \"#utility.yul\":5196:5410   */\n      swap3\n      swap2\n      pop\n      pop\n      jump\t// out\n        /* \"#utility.yul\":5416:5530   */\n    tag_279:\n        /* \"#utility.yul\":5483:5489   */\n      0x00\n        /* \"#utility.yul\":5517:5522   */\n      dup2\n        /* \"#utility.yul\":5511:5523   */\n      mload\n        /* \"#utility.yul\":5501:5523   */\n      swap1\n      pop\n        /* \"#utility.yul\":5416:5530   */\n      swap2\n      swap1\n      pop\n      jump\t// out\n        /* \"#utility.yul\":5536:5720   */\n    tag_280:\n        /* \"#utility.yul\":5635:5646   */\n      0x00\n        /* \"#utility.yul\":5669:5675   */\n      dup3\n        /* \"#utility.yul\":5664:5667   */\n      dup3\n        /* \"#utility.yul\":5657:5676   */\n      mstore\n        /* \"#utility.yul\":5709:5713   */\n      0x20\n        /* \"#utility.yul\":5704:5707   */\n      dup3\n        /* \"#utility.yul\":5700:5714   */\n      add\n        /* \"#utility.yul\":5685:5714   */\n      swap1\n      pop\n        /* \"#utility.yul\":5536:5720   */\n      swap3\n      swap2\n      pop\n      pop\n      jump\t// out\n        /* \"#utility.yul\":5726:5858   */\n    tag_281:\n        /* \"#utility.yul\":5793:5797   */\n      0x00\n        /* \"#utility.yul\":5816:5819   */\n      dup2\n        /* \"#utility.yul\":5808:5819   */\n      swap1\n      pop\n        /* \"#utility.yul\":5846:5850   */\n      0x20\n        /* \"#utility.yul\":5841:5844   */\n      dup3\n        /* \"#utility.yul\":5837:5851   */\n      add\n        /* \"#utility.yul\":5829:5851   */\n      swap1\n      pop\n        /* \"#utility.yul\":5726:5858   */\n      swap2\n      swap1\n      pop\n      jump\t// out\n        /* \"#utility.yul\":5864:5972   */\n    tag_282:\n        /* \"#utility.yul\":5941:5965   */\n      tag_366\n        /* \"#utility.yul\":5959:5964   */\n      dup2\n        /* \"#utility.yul\":5941:5965   */\n      tag_263\n      jump\t// in\n    tag_366:\n        /* \"#utility.yul\":5936:5939   */\n      dup3\n        /* \"#utility.yul\":5929:5966   */\n      mstore\n        /* \"#utility.yul\":5864:5972   */\n      pop\n      pop\n      jump\t// out\n        /* \"#utility.yul\":5978:6157   */\n    tag_283:\n        /* \"#utility.yul\":6047:6057   */\n      0x00\n        /* \"#utility.yul\":6068:6114   */\n      tag_368\n        /* \"#utility.yul\":6110:6113   */\n      dup4\n        /* \"#utility.yul\":6102:6108   */\n      dup4\n        /* \"#utility.yul\":6068:6114   */\n      tag_282\n      jump\t// in\n    tag_368:\n        /* \"#utility.yul\":6146:6150   */\n      0x20\n        /* \"#utility.yul\":6141:6144   */\n      dup4\n        /* \"#utility.yul\":6137:6151   */\n      add\n        /* \"#utility.yul\":6123:6151   */\n      swap1\n      pop\n        /* \"#utility.yul\":5978:6157   */\n      swap3\n      swap2\n      pop\n      pop\n      jump\t// out\n        /* \"#utility.yul\":6163:6276   */\n    tag_284:\n        /* \"#utility.yul\":6233:6237   */\n      0x00\n        /* \"#utility.yul\":6265:6269   */\n      0x20\n        /* \"#utility.yul\":6260:6263   */\n      dup3\n        /* \"#utility.yul\":6256:6270   */\n      add\n        /* \"#utility.yul\":6248:6270   */\n      swap1\n      pop\n        /* \"#utility.yul\":6163:6276   */\n      swap2\n      swap1\n      pop\n      jump\t// out\n        /* \"#utility.yul\":6312:7044   */\n    tag_285:\n        /* \"#utility.yul\":6431:6434   */\n      0x00\n        /* \"#utility.yul\":6460:6514   */\n      tag_371\n        /* \"#utility.yul\":6508:6513   */\n      dup3\n        /* \"#utility.yul\":6460:6514   */\n      tag_279\n      jump\t// in\n    tag_371:\n        /* \"#utility.yul\":6530:6616   */\n      tag_372\n        /* \"#utility.yul\":6609:6615   */\n      dup2\n        /* \"#utility.yul\":6604:6607   */\n      dup6\n        /* \"#utility.yul\":6530:6616   */\n      tag_280\n      jump\t// in\n    tag_372:\n        /* \"#utility.yul\":6523:6616   */\n      swap4\n      pop\n        /* \"#utility.yul\":6640:6696   */\n      tag_373\n        /* \"#utility.yul\":6690:6695   */\n      dup4\n        /* \"#utility.yul\":6640:6696   */\n      tag_281\n      jump\t// in\n    tag_373:\n        /* \"#utility.yul\":6719:6726   */\n      dup1\n        /* \"#utility.yul\":6750:6751   */\n      0x00\n        /* \"#utility.yul\":6735:7019   */\n    tag_374:\n        /* \"#utility.yul\":6760:6766   */\n      dup4\n        /* \"#utility.yul\":6757:6758   */\n      dup2\n        /* \"#utility.yul\":6754:6767   */\n      lt\n        /* \"#utility.yul\":6735:7019   */\n      iszero\n      tag_376\n      jumpi\n        /* \"#utility.yul\":6836:6842   */\n      dup2\n        /* \"#utility.yul\":6830:6843   */\n      mload\n        /* \"#utility.yul\":6863:6926   */\n      tag_377\n        /* \"#utility.yul\":6922:6925   */\n      dup9\n        /* \"#utility.yul\":6907:6920   */\n      dup3\n        /* \"#utility.yul\":6863:6926   */\n      tag_283\n      jump\t// in\n    tag_377:\n        /* \"#utility.yul\":6856:6926   */\n      swap8\n      pop\n        /* \"#utility.yul\":6949:7009   */\n      tag_378\n        /* \"#utility.yul\":7002:7008   */\n      dup4\n        /* \"#utility.yul\":6949:7009   */\n      tag_284\n      jump\t// in\n    tag_378:\n        /* \"#utility.yul\":6939:7009   */\n      swap3\n      pop\n        /* \"#utility.yul\":6795:7019   */\n      pop\n        /* \"#utility.yul\":6782:6783   */\n      0x01\n        /* \"#utility.yul\":6779:6780   */\n      dup2\n        /* \"#utility.yul\":6775:6784   */\n      add\n        /* \"#utility.yul\":6770:6784   */\n      swap1\n      pop\n        /* \"#utility.yul\":6735:7019   */\n      jump(tag_374)\n    tag_376:\n        /* \"#utility.yul\":6739:6753   */\n      pop\n        /* \"#utility.yul\":7035:7038   */\n      dup6\n        /* \"#utility.yul\":7028:7038   */\n      swap4\n      pop\n        /* \"#utility.yul\":6436:7044   */\n      pop\n      pop\n      pop\n        /* \"#utility.yul\":6312:7044   */\n      swap3\n      swap2\n      pop\n      pop\n      jump\t// out\n        /* \"#utility.yul\":7050:7423   */\n    tag_118:\n        /* \"#utility.yul\":7193:7197   */\n      0x00\n        /* \"#utility.yul\":7231:7233   */\n      0x20\n        /* \"#utility.yul\":7220:7229   */\n      dup3\n        /* \"#utility.yul\":7216:7234   */\n      add\n        /* \"#utility.yul\":7208:7234   */\n      swap1\n      pop\n        /* \"#utility.yul\":7280:7289   */\n      dup2\n        /* \"#utility.yul\":7274:7278   */\n      dup2\n        /* \"#utility.yul\":7270:7290   */\n      sub\n        /* \"#utility.yul\":7266:7267   */\n      0x00\n        /* \"#utility.yul\":7255:7264   */\n      dup4\n        /* \"#utility.yul\":7251:7268   */\n      add\n        /* \"#utility.yul\":7244:7291   */\n      mstore\n        /* \"#utility.yul\":7308:7416   */\n      tag_380\n        /* \"#utility.yul\":7411:7415   */\n      dup2\n        /* \"#utility.yul\":7402:7408   */\n      dup5\n        /* \"#utility.yul\":7308:7416   */\n      tag_285\n      jump\t// in\n    tag_380:\n        /* \"#utility.yul\":7300:7416   */\n      swap1\n      pop\n        /* \"#utility.yul\":7050:7423   */\n      swap3\n      swap2\n      pop\n      pop\n      jump\t// out\n        /* \"#utility.yul\":7429:7903   */\n    tag_122:\n        /* \"#utility.yul\":7497:7503   */\n      0x00\n        /* \"#utility.yul\":7505:7511   */\n      dup1\n        /* \"#utility.yul\":7554:7556   */\n      0x40\n        /* \"#utility.yul\":7542:7551   */\n      dup4\n        /* \"#utility.yul\":7533:7540   */\n      dup6\n        /* \"#utility.yul\":7529:7552   */\n      sub\n        /* \"#utility.yul\":7525:7557   */\n      slt\n        /* \"#utility.yul\":7522:7641   */\n      iszero\n      tag_382\n      jumpi\n        /* \"#utility.yul\":7560:7639   */\n      tag_383\n      tag_260\n      jump\t// in\n    tag_383:\n        /* \"#utility.yul\":7522:7641   */\n    tag_382:\n        /* \"#utility.yul\":7680:7681   */\n      0x00\n        /* \"#utility.yul\":7705:7758   */\n      tag_384\n        /* \"#utility.yul\":7750:7757   */\n      dup6\n        /* \"#utility.yul\":7741:7747   */\n      dup3\n        /* \"#utility.yul\":7730:7739   */\n      dup7\n        /* \"#utility.yul\":7726:7748   */\n      add\n        /* \"#utility.yul\":7705:7758   */\n      tag_265\n      jump\t// in\n    tag_384:\n        /* \"#utility.yul\":7695:7758   */\n      swap3\n      pop\n        /* \"#utility.yul\":7651:7768   */\n      pop\n        /* \"#utility.yul\":7807:7809   */\n      0x20\n        /* \"#utility.yul\":7833:7886   */\n      tag_385\n        /* \"#utility.yul\":7878:7885   */\n      dup6\n        /* \"#utility.yul\":7869:7875   */\n      dup3\n        /* \"#utility.yul\":7858:7867   */\n      dup7\n        /* \"#utility.yul\":7854:7876   */\n      add\n        /* \"#utility.yul\":7833:7886   */\n      tag_265\n      jump\t// in\n    tag_385:\n        /* \"#utility.yul\":7823:7886   */\n      swap2\n      pop\n        /* \"#utility.yul\":7778:7896   */\n      pop\n        /* \"#utility.yul\":7429:7903   */\n      swap3\n      pop\n      swap3\n      swap1\n      pop\n      jump\t// out\n        /* \"#utility.yul\":7909:8089   */\n    tag_286:\n        /* \"#utility.yul\":7957:8034   */\n      0x4e487b7100000000000000000000000000000000000000000000000000000000\n        /* \"#utility.yul\":7954:7955   */\n      0x00\n        /* \"#utility.yul\":7947:8035   */\n      mstore\n        /* \"#utility.yul\":8054:8058   */\n      0x22\n        /* \"#utility.yul\":8051:8052   */\n      0x04\n        /* \"#utility.yul\":8044:8059   */\n      mstore\n        /* \"#utility.yul\":8078:8082   */\n      0x24\n        /* \"#utility.yul\":8075:8076   */\n      0x00\n        /* \"#utility.yul\":8068:8083   */\n      revert\n        /* \"#utility.yul\":8095:8415   */\n    tag_128:\n        /* \"#utility.yul\":8139:8145   */\n      0x00\n        /* \"#utility.yul\":8176:8177   */\n      0x02\n        /* \"#utility.yul\":8170:8174   */\n      dup3\n        /* \"#utility.yul\":8166:8178   */\n      div\n        /* \"#utility.yul\":8156:8178   */\n      swap1\n      pop\n        /* \"#utility.yul\":8223:8224   */\n      0x01\n        /* \"#utility.yul\":8217:8221   */\n      dup3\n        /* \"#utility.yul\":8213:8225   */\n      and\n        /* \"#utility.yul\":8244:8262   */\n      dup1\n        /* \"#utility.yul\":8234:8315   */\n      tag_388\n      jumpi\n        /* \"#utility.yul\":8300:8304   */\n      0x7f\n        /* \"#utility.yul\":8292:8298   */\n      dup3\n        /* \"#utility.yul\":8288:8305   */\n      and\n        /* \"#utility.yul\":8278:8305   */\n      swap2\n      pop\n        /* \"#utility.yul\":8234:8315   */\n    tag_388:\n        /* \"#utility.yul\":8362:8364   */\n      0x20\n        /* \"#utility.yul\":8354:8360   */\n      dup3\n        /* \"#utility.yul\":8351:8365   */\n      lt\n        /* \"#utility.yul\":8331:8349   */\n      dup2\n        /* \"#utility.yul\":8328:8366   */\n      sub\n        /* \"#utility.yul\":8325:8409   */\n      tag_389\n      jumpi\n        /* \"#utility.yul\":8381:8399   */\n      tag_390\n      tag_286\n      jump\t// in\n    tag_390:\n        /* \"#utility.yul\":8325:8409   */\n    tag_389:\n        /* \"#utility.yul\":8146:8415   */\n      pop\n        /* \"#utility.yul\":8095:8415   */\n      swap2\n      swap1\n      pop\n      jump\t// out\n        /* \"#utility.yul\":8421:8581   */\n    tag_287:\n        /* \"#utility.yul\":8561:8573   */\n      0x4e6f74206f776e65722100000000000000000000000000000000000000000000\n        /* \"#utility.yul\":8557:8558   */\n      0x00\n        /* \"#utility.yul\":8549:8555   */\n      dup3\n        /* \"#utility.yul\":8545:8559   */\n      add\n        /* \"#utility.yul\":8538:8574   */\n      mstore\n        /* \"#utility.yul\":8421:8581   */\n      pop\n      jump\t// out\n        /* \"#utility.yul\":8587:8953   */\n    tag_288:\n        /* \"#utility.yul\":8729:8732   */\n      0x00\n        /* \"#utility.yul\":8750:8817   */\n      tag_393\n        /* \"#utility.yul\":8814:8816   */\n      0x0a\n        /* \"#utility.yul\":8809:8812   */\n      dup4\n        /* \"#utility.yul\":8750:8817   */\n      tag_269\n      jump\t// in\n    tag_393:\n        /* \"#utility.yul\":8743:8817   */\n      swap2\n      pop\n        /* \"#utility.yul\":8826:8919   */\n      tag_394\n        /* \"#utility.yul\":8915:8918   */\n      dup3\n        /* \"#utility.yul\":8826:8919   */\n      tag_287\n      jump\t// in\n    tag_394:\n        /* \"#utility.yul\":8944:8946   */\n      0x20\n        /* \"#utility.yul\":8939:8942   */\n      dup3\n        /* \"#utility.yul\":8935:8947   */\n      add\n        /* \"#utility.yul\":8928:8947   */\n      swap1\n      pop\n        /* \"#utility.yul\":8587:8953   */\n      swap2\n      swap1\n      pop\n      jump\t// out\n        /* \"#utility.yul\":8959:9378   */\n    tag_141:\n        /* \"#utility.yul\":9125:9129   */\n      0x00\n        /* \"#utility.yul\":9163:9165   */\n      0x20\n        /* \"#utility.yul\":9152:9161   */\n      dup3\n        /* \"#utility.yul\":9148:9166   */\n      add\n        /* \"#utility.yul\":9140:9166   */\n      swap1\n      pop\n        /* \"#utility.yul\":9212:9221   */\n      dup2\n        /* \"#utility.yul\":9206:9210   */\n      dup2\n        /* \"#utility.yul\":9202:9222   */\n      sub\n        /* \"#utility.yul\":9198:9199   */\n      0x00\n        /* \"#utility.yul\":9187:9196   */\n      dup4\n        /* \"#utility.yul\":9183:9200   */\n      add\n        /* \"#utility.yul\":9176:9223   */\n      mstore\n        /* \"#utility.yul\":9240:9371   */\n      tag_396\n        /* \"#utility.yul\":9366:9370   */\n      dup2\n        /* \"#utility.yul\":9240:9371   */\n      tag_288\n      jump\t// in\n    tag_396:\n        /* \"#utility.yul\":9232:9371   */\n      swap1\n      pop\n        /* \"#utility.yul\":8959:9378   */\n      swap2\n      swap1\n      pop\n      jump\t// out\n        /* \"#utility.yul\":9384:9564   */\n    tag_289:\n        /* \"#utility.yul\":9432:9509   */\n      0x4e487b7100000000000000000000000000000000000000000000000000000000\n        /* \"#utility.yul\":9429:9430   */\n      0x00\n        /* \"#utility.yul\":9422:9510   */\n      mstore\n        /* \"#utility.yul\":9529:9533   */\n      0x11\n        /* \"#utility.yul\":9526:9527   */\n      0x04\n        /* \"#utility.yul\":9519:9534   */\n      mstore\n        /* \"#utility.yul\":9553:9557   */\n      0x24\n        /* \"#utility.yul\":9550:9551   */\n      0x00\n        /* \"#utility.yul\":9543:9558   */\n      revert\n        /* \"#utility.yul\":9570:9980   */\n    tag_150:\n        /* \"#utility.yul\":9610:9617   */\n      0x00\n        /* \"#utility.yul\":9633:9653   */\n      tag_399\n        /* \"#utility.yul\":9651:9652   */\n      dup3\n        /* \"#utility.yul\":9633:9653   */\n      tag_266\n      jump\t// in\n    tag_399:\n        /* \"#utility.yul\":9628:9653   */\n      swap2\n      pop\n        /* \"#utility.yul\":9667:9687   */\n      tag_400\n        /* \"#utility.yul\":9685:9686   */\n      dup4\n        /* \"#utility.yul\":9667:9687   */\n      tag_266\n      jump\t// in\n    tag_400:\n        /* \"#utility.yul\":9662:9687   */\n      swap3\n      pop\n        /* \"#utility.yul\":9722:9723   */\n      dup3\n        /* \"#utility.yul\":9719:9720   */\n      dup3\n        /* \"#utility.yul\":9715:9724   */\n      mul\n        /* \"#utility.yul\":9744:9774   */\n      tag_401\n        /* \"#utility.yul\":9762:9773   */\n      dup2\n        /* \"#utility.yul\":9744:9774   */\n      tag_266\n      jump\t// in\n    tag_401:\n        /* \"#utility.yul\":9733:9774   */\n      swap2\n      pop\n        /* \"#utility.yul\":9923:9924   */\n      dup3\n        /* \"#utility.yul\":9914:9921   */\n      dup3\n        /* \"#utility.yul\":9910:9925   */\n      div\n        /* \"#utility.yul\":9907:9908   */\n      dup5\n        /* \"#utility.yul\":9904:9926   */\n      eq\n        /* \"#utility.yul\":9884:9885   */\n      dup4\n        /* \"#utility.yul\":9877:9886   */\n      iszero\n        /* \"#utility.yul\":9857:9940   */\n      or\n        /* \"#utility.yul\":9834:9973   */\n      tag_402\n      jumpi\n        /* \"#utility.yul\":9953:9971   */\n      tag_403\n      tag_289\n      jump\t// in\n    tag_403:\n        /* \"#utility.yul\":9834:9973   */\n    tag_402:\n        /* \"#utility.yul\":9618:9980   */\n      pop\n        /* \"#utility.yul\":9570:9980   */\n      swap3\n      swap2\n      pop\n      pop\n      jump\t// out\n        /* \"#utility.yul\":9986:10161   */\n    tag_290:\n        /* \"#utility.yul\":10126:10153   */\n      0x41646472657373207a65726f206e6f7420616c6c6f7765642100000000000000\n        /* \"#utility.yul\":10122:10123   */\n      0x00\n        /* \"#utility.yul\":10114:10120   */\n      dup3\n        /* \"#utility.yul\":10110:10124   */\n      add\n        /* \"#utility.yul\":10103:10154   */\n      mstore\n        /* \"#utility.yul\":9986:10161   */\n      pop\n      jump\t// out\n        /* \"#utility.yul\":10167:10533   */\n    tag_291:\n        /* \"#utility.yul\":10309:10312   */\n      0x00\n        /* \"#utility.yul\":10330:10397   */\n      tag_406\n        /* \"#utility.yul\":10394:10396   */\n      0x19\n        /* \"#utility.yul\":10389:10392   */\n      dup4\n        /* \"#utility.yul\":10330:10397   */\n      tag_269\n      jump\t// in\n    tag_406:\n        /* \"#utility.yul\":10323:10397   */\n      swap2\n      pop\n        /* \"#utility.yul\":10406:10499   */\n      tag_407\n        /* \"#utility.yul\":10495:10498   */\n      dup3\n        /* \"#utility.yul\":10406:10499   */\n      tag_290\n      jump\t// in\n    tag_407:\n        /* \"#utility.yul\":10524:10526   */\n      0x20\n        /* \"#utility.yul\":10519:10522   */\n      dup3\n        /* \"#utility.yul\":10515:10527   */\n      add\n        /* \"#utility.yul\":10508:10527   */\n      swap1\n      pop\n        /* \"#utility.yul\":10167:10533   */\n      swap2\n      swap1\n      pop\n      jump\t// out\n        /* \"#utility.yul\":10539:10958   */\n    tag_157:\n        /* \"#utility.yul\":10705:10709   */\n      0x00\n        /* \"#utility.yul\":10743:10745   */\n      0x20\n        /* \"#utility.yul\":10732:10741   */\n      dup3\n        /* \"#utility.yul\":10728:10746   */\n      add\n        /* \"#utility.yul\":10720:10746   */\n      swap1\n      pop\n        /* \"#utility.yul\":10792:10801   */\n      dup2\n        /* \"#utility.yul\":10786:10790   */\n      dup2\n        /* \"#utility.yul\":10782:10802   */\n      sub\n        /* \"#utility.yul\":10778:10779   */\n      0x00\n        /* \"#utility.yul\":10767:10776   */\n      dup4\n        /* \"#utility.yul\":10763:10780   */\n      add\n        /* \"#utility.yul\":10756:10803   */\n      mstore\n        /* \"#utility.yul\":10820:10951   */\n      tag_409\n        /* \"#utility.yul\":10946:10950   */\n      dup2\n        /* \"#utility.yul\":10820:10951   */\n      tag_291\n      jump\t// in\n    tag_409:\n        /* \"#utility.yul\":10812:10951   */\n      swap1\n      pop\n        /* \"#utility.yul\":10539:10958   */\n      swap2\n      swap1\n      pop\n      jump\t// out\n        /* \"#utility.yul\":10964:11130   */\n    tag_292:\n        /* \"#utility.yul\":11104:11122   */\n      0x4164647265737320436c61696d65642100000000000000000000000000000000\n        /* \"#utility.yul\":11100:11101   */\n      0x00\n        /* \"#utility.yul\":11092:11098   */\n      dup3\n        /* \"#utility.yul\":11088:11102   */\n      add\n        /* \"#utility.yul\":11081:11123   */\n      mstore\n        /* \"#utility.yul\":10964:11130   */\n      pop\n      jump\t// out\n        /* \"#utility.yul\":11136:11502   */\n    tag_293:\n        /* \"#utility.yul\":11278:11281   */\n      0x00\n        /* \"#utility.yul\":11299:11366   */\n      tag_412\n        /* \"#utility.yul\":11363:11365   */\n      0x10\n        /* \"#utility.yul\":11358:11361   */\n      dup4\n        /* \"#utility.yul\":11299:11366   */\n      tag_269\n      jump\t// in\n    tag_412:\n        /* \"#utility.yul\":11292:11366   */\n      swap2\n      pop\n        /* \"#utility.yul\":11375:11468   */\n      tag_413\n        /* \"#utility.yul\":11464:11467   */\n      dup3\n        /* \"#utility.yul\":11375:11468   */\n      tag_292\n      jump\t// in\n    tag_413:\n        /* \"#utility.yul\":11493:11495   */\n      0x20\n        /* \"#utility.yul\":11488:11491   */\n      dup3\n        /* \"#utility.yul\":11484:11496   */\n      add\n        /* \"#utility.yul\":11477:11496   */\n      swap1\n      pop\n        /* \"#utility.yul\":11136:11502   */\n      swap2\n      swap1\n      pop\n      jump\t// out\n        /* \"#utility.yul\":11508:11927   */\n    tag_175:\n        /* \"#utility.yul\":11674:11678   */\n      0x00\n        /* \"#utility.yul\":11712:11714   */\n      0x20\n        /* \"#utility.yul\":11701:11710   */\n      dup3\n        /* \"#utility.yul\":11697:11715   */\n      add\n        /* \"#utility.yul\":11689:11715   */\n      swap1\n      pop\n        /* \"#utility.yul\":11761:11770   */\n      dup2\n        /* \"#utility.yul\":11755:11759   */\n      dup2\n        /* \"#utility.yul\":11751:11771   */\n      sub\n        /* \"#utility.yul\":11747:11748   */\n      0x00\n        /* \"#utility.yul\":11736:11745   */\n      dup4\n        /* \"#utility.yul\":11732:11749   */\n      add\n        /* \"#utility.yul\":11725:11772   */\n      mstore\n        /* \"#utility.yul\":11789:11920   */\n      tag_415\n        /* \"#utility.yul\":11915:11919   */\n      dup2\n        /* \"#utility.yul\":11789:11920   */\n      tag_293\n      jump\t// in\n    tag_415:\n        /* \"#utility.yul\":11781:11920   */\n      swap1\n      pop\n        /* \"#utility.yul\":11508:11927   */\n      swap2\n      swap1\n      pop\n      jump\t// out\n        /* \"#utility.yul\":11933:12100   */\n    tag_294:\n        /* \"#utility.yul\":12073:12092   */\n      0x546f6b656e206e6f7420656e6f75676821000000000000000000000000000000\n        /* \"#utility.yul\":12069:12070   */\n      0x00\n        /* \"#utility.yul\":12061:12067   */\n      dup3\n        /* \"#utility.yul\":12057:12071   */\n      add\n        /* \"#utility.yul\":12050:12093   */\n      mstore\n        /* \"#utility.yul\":11933:12100   */\n      pop\n      jump\t// out\n        /* \"#utility.yul\":12106:12472   */\n    tag_295:\n        /* \"#utility.yul\":12248:12251   */\n      0x00\n        /* \"#utility.yul\":12269:12336   */\n      tag_418\n        /* \"#utility.yul\":12333:12335   */\n      0x11\n        /* \"#utility.yul\":12328:12331   */\n      dup4\n        /* \"#utility.yul\":12269:12336   */\n      tag_269\n      jump\t// in\n    tag_418:\n        /* \"#utility.yul\":12262:12336   */\n      swap2\n      pop\n        /* \"#utility.yul\":12345:12438   */\n      tag_419\n        /* \"#utility.yul\":12434:12437   */\n      dup3\n        /* \"#utility.yul\":12345:12438   */\n      tag_294\n      jump\t// in\n    tag_419:\n        /* \"#utility.yul\":12463:12465   */\n      0x20\n        /* \"#utility.yul\":12458:12461   */\n      dup3\n        /* \"#utility.yul\":12454:12466   */\n      add\n        /* \"#utility.yul\":12447:12466   */\n      swap1\n      pop\n        /* \"#utility.yul\":12106:12472   */\n      swap2\n      swap1\n      pop\n      jump\t// out\n        /* \"#utility.yul\":12478:12897   */\n    tag_182:\n        /* \"#utility.yul\":12644:12648   */\n      0x00\n        /* \"#utility.yul\":12682:12684   */\n      0x20\n        /* \"#utility.yul\":12671:12680   */\n      dup3\n        /* \"#utility.yul\":12667:12685   */\n      add\n        /* \"#utility.yul\":12659:12685   */\n      swap1\n      pop\n        /* \"#utility.yul\":12731:12740   */\n      dup2\n        /* \"#utility.yul\":12725:12729   */\n      dup2\n        /* \"#utility.yul\":12721:12741   */\n      sub\n        /* \"#utility.yul\":12717:12718   */\n      0x00\n        /* \"#utility.yul\":12706:12715   */\n      dup4\n        /* \"#utility.yul\":12702:12719   */\n      add\n        /* \"#utility.yul\":12695:12742   */\n      mstore\n        /* \"#utility.yul\":12759:12890   */\n      tag_421\n        /* \"#utility.yul\":12885:12889   */\n      dup2\n        /* \"#utility.yul\":12759:12890   */\n      tag_295\n      jump\t// in\n    tag_421:\n        /* \"#utility.yul\":12751:12890   */\n      swap1\n      pop\n        /* \"#utility.yul\":12478:12897   */\n      swap2\n      swap1\n      pop\n      jump\t// out\n        /* \"#utility.yul\":12903:13083   */\n    tag_296:\n        /* \"#utility.yul\":12951:13028   */\n      0x4e487b7100000000000000000000000000000000000000000000000000000000\n        /* \"#utility.yul\":12948:12949   */\n      0x00\n        /* \"#utility.yul\":12941:13029   */\n      mstore\n        /* \"#utility.yul\":13048:13052   */\n      0x12\n        /* \"#utility.yul\":13045:13046   */\n      0x04\n        /* \"#utility.yul\":13038:13053   */\n      mstore\n        /* \"#utility.yul\":13072:13076   */\n      0x24\n        /* \"#utility.yul\":13069:13070   */\n      0x00\n        /* \"#utility.yul\":13062:13077   */\n      revert\n        /* \"#utility.yul\":13089:13274   */\n    tag_185:\n        /* \"#utility.yul\":13129:13130   */\n      0x00\n        /* \"#utility.yul\":13146:13166   */\n      tag_424\n        /* \"#utility.yul\":13164:13165   */\n      dup3\n        /* \"#utility.yul\":13146:13166   */\n      tag_266\n      jump\t// in\n    tag_424:\n        /* \"#utility.yul\":13141:13166   */\n      swap2\n      pop\n        /* \"#utility.yul\":13180:13200   */\n      tag_425\n        /* \"#utility.yul\":13198:13199   */\n      dup4\n        /* \"#utility.yul\":13180:13200   */\n      tag_266\n      jump\t// in\n    tag_425:\n        /* \"#utility.yul\":13175:13200   */\n      swap3\n      pop\n        /* \"#utility.yul\":13219:13220   */\n      dup3\n        /* \"#utility.yul\":13209:13244   */\n      tag_426\n      jumpi\n        /* \"#utility.yul\":13224:13242   */\n      tag_427\n      tag_296\n      jump\t// in\n    tag_427:\n        /* \"#utility.yul\":13209:13244   */\n    tag_426:\n        /* \"#utility.yul\":13266:13267   */\n      dup3\n        /* \"#utility.yul\":13263:13264   */\n      dup3\n        /* \"#utility.yul\":13259:13268   */\n      div\n        /* \"#utility.yul\":13254:13268   */\n      swap1\n      pop\n        /* \"#utility.yul\":13089:13274   */\n      swap3\n      swap2\n      pop\n      pop\n      jump\t// out\n        /* \"#utility.yul\":13280:13447   */\n    tag_297:\n        /* \"#utility.yul\":13420:13439   */\n      0x546f6b656e206e6f7420456e6f75676821000000000000000000000000000000\n        /* \"#utility.yul\":13416:13417   */\n      0x00\n        /* \"#utility.yul\":13408:13414   */\n      dup3\n        /* \"#utility.yul\":13404:13418   */\n      add\n        /* \"#utility.yul\":13397:13440   */\n      mstore\n        /* \"#utility.yul\":13280:13447   */\n      pop\n      jump\t// out\n        /* \"#utility.yul\":13453:13819   */\n    tag_298:\n        /* \"#utility.yul\":13595:13598   */\n      0x00\n        /* \"#utility.yul\":13616:13683   */\n      tag_430\n        /* \"#utility.yul\":13680:13682   */\n      0x11\n        /* \"#utility.yul\":13675:13678   */\n      dup4\n        /* \"#utility.yul\":13616:13683   */\n      tag_269\n      jump\t// in\n    tag_430:\n        /* \"#utility.yul\":13609:13683   */\n      swap2\n      pop\n        /* \"#utility.yul\":13692:13785   */\n      tag_431\n        /* \"#utility.yul\":13781:13784   */\n      dup3\n        /* \"#utility.yul\":13692:13785   */\n      tag_297\n      jump\t// in\n    tag_431:\n        /* \"#utility.yul\":13810:13812   */\n      0x20\n        /* \"#utility.yul\":13805:13808   */\n      dup3\n        /* \"#utility.yul\":13801:13813   */\n      add\n        /* \"#utility.yul\":13794:13813   */\n      swap1\n      pop\n        /* \"#utility.yul\":13453:13819   */\n      swap2\n      swap1\n      pop\n      jump\t// out\n        /* \"#utility.yul\":13825:14244   */\n    tag_205:\n        /* \"#utility.yul\":13991:13995   */\n      0x00\n        /* \"#utility.yul\":14029:14031   */\n      0x20\n        /* \"#utility.yul\":14018:14027   */\n      dup3\n        /* \"#utility.yul\":14014:14032   */\n      add\n        /* \"#utility.yul\":14006:14032   */\n      swap1\n      pop\n        /* \"#utility.yul\":14078:14087   */\n      dup2\n        /* \"#utility.yul\":14072:14076   */\n      dup2\n        /* \"#utility.yul\":14068:14088   */\n      sub\n        /* \"#utility.yul\":14064:14065   */\n      0x00\n        /* \"#utility.yul\":14053:14062   */\n      dup4\n        /* \"#utility.yul\":14049:14066   */\n      add\n        /* \"#utility.yul\":14042:14089   */\n      mstore\n        /* \"#utility.yul\":14106:14237   */\n      tag_433\n        /* \"#utility.yul\":14232:14236   */\n      dup2\n        /* \"#utility.yul\":14106:14237   */\n      tag_298\n      jump\t// in\n    tag_433:\n        /* \"#utility.yul\":14098:14237   */\n      swap1\n      pop\n        /* \"#utility.yul\":13825:14244   */\n      swap2\n      swap1\n      pop\n      jump\t// out\n        /* \"#utility.yul\":14250:14368   */\n    tag_299:\n        /* \"#utility.yul\":14337:14361   */\n      tag_435\n        /* \"#utility.yul\":14355:14360   */\n      dup2\n        /* \"#utility.yul\":14337:14361   */\n      tag_263\n      jump\t// in\n    tag_435:\n        /* \"#utility.yul\":14332:14335   */\n      dup3\n        /* \"#utility.yul\":14325:14362   */\n      mstore\n        /* \"#utility.yul\":14250:14368   */\n      pop\n      pop\n      jump\t// out\n        /* \"#utility.yul\":14374:14596   */\n    tag_222:\n        /* \"#utility.yul\":14467:14471   */\n      0x00\n        /* \"#utility.yul\":14505:14507   */\n      0x20\n        /* \"#utility.yul\":14494:14503   */\n      dup3\n        /* \"#utility.yul\":14490:14508   */\n      add\n        /* \"#utility.yul\":14482:14508   */\n      swap1\n      pop\n        /* \"#utility.yul\":14518:14589   */\n      tag_437\n        /* \"#utility.yul\":14586:14587   */\n      0x00\n        /* \"#utility.yul\":14575:14584   */\n      dup4\n        /* \"#utility.yul\":14571:14588   */\n      add\n        /* \"#utility.yul\":14562:14568   */\n      dup5\n        /* \"#utility.yul\":14518:14589   */\n      tag_299\n      jump\t// in\n    tag_437:\n        /* \"#utility.yul\":14374:14596   */\n      swap3\n      swap2\n      pop\n      pop\n      jump\t// out\n        /* \"#utility.yul\":14602:15044   */\n    tag_236:\n        /* \"#utility.yul\":14751:14755   */\n      0x00\n        /* \"#utility.yul\":14789:14791   */\n      0x60\n        /* \"#utility.yul\":14778:14787   */\n      dup3\n        /* \"#utility.yul\":14774:14792   */\n      add\n        /* \"#utility.yul\":14766:14792   */\n      swap1\n      pop\n        /* \"#utility.yul\":14802:14873   */\n      tag_439\n        /* \"#utility.yul\":14870:14871   */\n      0x00\n        /* \"#utility.yul\":14859:14868   */\n      dup4\n        /* \"#utility.yul\":14855:14872   */\n      add\n        /* \"#utility.yul\":14846:14852   */\n      dup7\n        /* \"#utility.yul\":14802:14873   */\n      tag_299\n      jump\t// in\n    tag_439:\n        /* \"#utility.yul\":14883:14955   */\n      tag_440\n        /* \"#utility.yul\":14951:14953   */\n      0x20\n        /* \"#utility.yul\":14940:14949   */\n      dup4\n        /* \"#utility.yul\":14936:14954   */\n      add\n        /* \"#utility.yul\":14927:14933   */\n      dup6\n        /* \"#utility.yul\":14883:14955   */\n      tag_267\n      jump\t// in\n    tag_440:\n        /* \"#utility.yul\":14965:15037   */\n      tag_441\n        /* \"#utility.yul\":15033:15035   */\n      0x40\n        /* \"#utility.yul\":15022:15031   */\n      dup4\n        /* \"#utility.yul\":15018:15036   */\n      add\n        /* \"#utility.yul\":15009:15015   */\n      dup5\n        /* \"#utility.yul\":14965:15037   */\n      tag_267\n      jump\t// in\n    tag_441:\n        /* \"#utility.yul\":14602:15044   */\n      swap5\n      swap4\n      pop\n      pop\n      pop\n      pop\n      jump\t// out\n        /* \"#utility.yul\":15050:15241   */\n    tag_252:\n        /* \"#utility.yul\":15090:15093   */\n      0x00\n        /* \"#utility.yul\":15109:15129   */\n      tag_443\n        /* \"#utility.yul\":15127:15128   */\n      dup3\n        /* \"#utility.yul\":15109:15129   */\n      tag_266\n      jump\t// in\n    tag_443:\n        /* \"#utility.yul\":15104:15129   */\n      swap2\n      pop\n        /* \"#utility.yul\":15143:15163   */\n      tag_444\n        /* \"#utility.yul\":15161:15162   */\n      dup4\n        /* \"#utility.yul\":15143:15163   */\n      tag_266\n      jump\t// in\n    tag_444:\n        /* \"#utility.yul\":15138:15163   */\n      swap3\n      pop\n        /* \"#utility.yul\":15186:15187   */\n      dup3\n        /* \"#utility.yul\":15183:15184   */\n      dup3\n        /* \"#utility.yul\":15179:15188   */\n      add\n        /* \"#utility.yul\":15172:15188   */\n      swap1\n      pop\n        /* \"#utility.yul\":15207:15210   */\n      dup1\n        /* \"#utility.yul\":15204:15205   */\n      dup3\n        /* \"#utility.yul\":15201:15211   */\n      gt\n        /* \"#utility.yul\":15198:15234   */\n      iszero\n      tag_445\n      jumpi\n        /* \"#utility.yul\":15214:15232   */\n      tag_446\n      tag_289\n      jump\t// in\n    tag_446:\n        /* \"#utility.yul\":15198:15234   */\n    tag_445:\n        /* \"#utility.yul\":15050:15241   */\n      swap3\n      swap2\n      pop\n      pop\n      jump\t// out\n\n    auxdata: 0xa2646970667358221220acf72ca333ac27c4b1a3024514972de62bcdc94bf8bd61b97a22af67d3b0a98264736f6c634300081a0033\n}\n",
				"bytecode": {
					"linkReferences": {},
					"object": "608060405234801561000f575f80fd5b50604051612542380380612542833981810160405281019061003191906104f0565b818181600390816100429190610773565b5080600490816100529190610773565b50505061007e30670de0b6b3a76400006509184e72a000610073919061086f565b61010560201b60201c565b3360055f6101000a81548173ffffffffffffffffffffffffffffffffffffffff021916908373ffffffffffffffffffffffffffffffffffffffff1602179055503060065f6101000a81548173ffffffffffffffffffffffffffffffffffffffff021916908373ffffffffffffffffffffffffffffffffffffffff1602179055505050610998565b5f73ffffffffffffffffffffffffffffffffffffffff168273ffffffffffffffffffffffffffffffffffffffff1603610175575f6040517fec442f0500000000000000000000000000000000000000000000000000000000815260040161016c91906108ef565b60405180910390fd5b6101865f838361018a60201b60201c565b5050565b5f73ffffffffffffffffffffffffffffffffffffffff168373ffffffffffffffffffffffffffffffffffffffff16036101da578060025f8282546101ce9190610908565b925050819055506102a8565b5f805f8573ffffffffffffffffffffffffffffffffffffffff1673ffffffffffffffffffffffffffffffffffffffff1681526020019081526020015f2054905081811015610263578381836040517fe450d38c00000000000000000000000000000000000000000000000000000000815260040161025a9392919061094a565b60405180910390fd5b8181035f808673ffffffffffffffffffffffffffffffffffffffff1673ffffffffffffffffffffffffffffffffffffffff1681526020019081526020015f2081905550505b5f73ffffffffffffffffffffffffffffffffffffffff168273ffffffffffffffffffffffffffffffffffffffff16036102ef578060025f8282540392505081905550610339565b805f808473ffffffffffffffffffffffffffffffffffffffff1673ffffffffffffffffffffffffffffffffffffffff1681526020019081526020015f205f82825401925050819055505b8173ffffffffffffffffffffffffffffffffffffffff168373ffffffffffffffffffffffffffffffffffffffff167fddf252ad1be2c89b69c2b068fc378daa952ba7f163c4a11628f55a4df523b3ef83604051610396919061097f565b60405180910390a3505050565b5f604051905090565b5f80fd5b5f80fd5b5f80fd5b5f80fd5b5f601f19601f8301169050919050565b7f4e487b71000000000000000000000000000000000000000000000000000000005f52604160045260245ffd5b610402826103bc565b810181811067ffffffffffffffff82111715610421576104206103cc565b5b80604052505050565b5f6104336103a3565b905061043f82826103f9565b919050565b5f67ffffffffffffffff82111561045e5761045d6103cc565b5b610467826103bc565b9050602081019050919050565b8281835e5f83830152505050565b5f61049461048f84610444565b61042a565b9050828152602081018484840111156104b0576104af6103b8565b5b6104bb848285610474565b509392505050565b5f82601f8301126104d7576104d66103b4565b5b81516104e7848260208601610482565b91505092915050565b5f8060408385031215610506576105056103ac565b5b5f83015167ffffffffffffffff811115610523576105226103b0565b5b61052f858286016104c3565b925050602083015167ffffffffffffffff8111156105505761054f6103b0565b5b61055c858286016104c3565b9150509250929050565b5f81519050919050565b7f4e487b71000000000000000000000000000000000000000000000000000000005f52602260045260245ffd5b5f60028204905060018216806105b457607f821691505b6020821081036105c7576105c6610570565b5b50919050565b5f819050815f5260205f209050919050565b5f6020601f8301049050919050565b5f82821b905092915050565b5f600883026106297fffffffffffffffffffffffffffffffffffffffffffffffffffffffffffffffff826105ee565b61063386836105ee565b95508019841693508086168417925050509392505050565b5f819050919050565b5f819050919050565b5f61067761067261066d8461064b565b610654565b61064b565b9050919050565b5f819050919050565b6106908361065d565b6106a461069c8261067e565b8484546105fa565b825550505050565b5f90565b6106b86106ac565b6106c3818484610687565b505050565b5b818110156106e6576106db5f826106b0565b6001810190506106c9565b5050565b601f82111561072b576106fc816105cd565b610705846105df565b81016020851015610714578190505b610728610720856105df565b8301826106c8565b50505b505050565b5f82821c905092915050565b5f61074b5f1984600802610730565b1980831691505092915050565b5f610763838361073c565b9150826002028217905092915050565b61077c82610566565b67ffffffffffffffff811115610795576107946103cc565b5b61079f825461059d565b6107aa8282856106ea565b5f60209050601f8311600181146107db575f84156107c9578287015190505b6107d38582610758565b86555061083a565b601f1984166107e9866105cd565b5f5b82811015610810578489015182556001820191506020850194506020810190506107eb565b8683101561082d5784890151610829601f89168261073c565b8355505b6001600288020188555050505b505050505050565b7f4e487b71000000000000000000000000000000000000000000000000000000005f52601160045260245ffd5b5f6108798261064b565b91506108848361064b565b92508282026108928161064b565b915082820484148315176108a9576108a8610842565b5b5092915050565b5f73ffffffffffffffffffffffffffffffffffffffff82169050919050565b5f6108d9826108b0565b9050919050565b6108e9816108cf565b82525050565b5f6020820190506109025f8301846108e0565b92915050565b5f6109128261064b565b915061091d8361064b565b925082820190508082111561093557610934610842565b5b92915050565b6109448161064b565b82525050565b5f60608201905061095d5f8301866108e0565b61096a602083018561093b565b610977604083018461093b565b949350505050565b5f6020820190506109925f83018461093b565b92915050565b611b9d806109a55f395ff3fe608060405260043610610129575f3560e01c8063313ce567116100aa57806395d89b411161006e57806395d89b41146103d55780639fe5491c146103ff578063a9059cbb14610427578063b90306ad14610463578063c12019eb1461048b578063dd62ed3e146104b557610129565b8063313ce567146102e157806347cee97c1461030b5780636010b797146103335780636d41b22c1461036f57806370a082311461039957610129565b80631e548d7a116100f15780631e548d7a1461020f57806320c63d561461023757806321ba18a114610241578063239fcf0f1461026957806323b872dd146102a557610129565b8063067637881461012d57806306fdde0314610169578063095ea7b3146101935780630fdb1c10146101cf57806318160ddd146101e5575b5f80fd5b348015610138575f80fd5b50610153600480360381019061014e919061145c565b6104f1565b604051610160919061149f565b60405180910390f35b348015610174575f80fd5b5061017d610511565b60405161018a9190611528565b60405180910390f35b34801561019e575f80fd5b506101b960048036038101906101b49190611572565b6105a1565b6040516101c691906115ca565b60405180910390f35b3480156101da575f80fd5b506101e36105c3565b005b3480156101f0575f80fd5b506101f96106b9565b604051610206919061149f565b60405180910390f35b34801561021a575f80fd5b50610235600480360381019061023091906115e3565b6106c2565b005b61023f610771565b005b34801561024c575f80fd5b5061026760048036038101906102629190611572565b6107d3565b005b348015610274575f80fd5b5061028f600480360381019061028a919061145c565b610884565b60405161029c919061149f565b60405180910390f35b3480156102b0575f80fd5b506102cb60048036038101906102c6919061160e565b610895565b6040516102d891906115ca565b60405180910390f35b3480156102ec575f80fd5b506102f56108c3565b6040516103029190611679565b60405180910390f35b348015610316575f80fd5b50610331600480360381019061032c9190611572565b6108cb565b005b34801561033e575f80fd5b506103596004803603810190610354919061145c565b6109c7565b604051610366919061149f565b60405180910390f35b34801561037a575f80fd5b50610383610a3e565b604051610390919061149f565b60405180910390f35b3480156103a4575f80fd5b506103bf60048036038101906103ba919061145c565b610a4d565b6040516103cc919061149f565b60405180910390f35b3480156103e0575f80fd5b506103e9610a92565b6040516103f69190611528565b60405180910390f35b34801561040a575f80fd5b5061042560048036038101906104209190611572565b610b22565b005b348015610432575f80fd5b5061044d60048036038101906104489190611572565b610b53565b60405161045a91906115ca565b60405180910390f35b34801561046e575f80fd5b50610489600480360381019061048491906115e3565b610b75565b005b348015610496575f80fd5b5061049f610be0565b6040516104ac9190611749565b60405180910390f35b3480156104c0575f80fd5b506104db60048036038101906104d69190611769565b610cfa565b6040516104e8919061149f565b60405180910390f35b5f8173ffffffffffffffffffffffffffffffffffffffff16319050919050565b606060038054610520906117d4565b80601f016020809104026020016040519081016040528092919081815260200182805461054c906117d4565b80156105975780601f1061056e57610100808354040283529160200191610597565b820191905f5260205f20905b81548152906001019060200180831161057a57829003601f168201915b5050505050905090565b5f806105ab610d7c565b90506105b8818585610d83565b600191505092915050565b3373ffffffffffffffffffffffffffffffffffffffff1660055f9054906101000a900473ffffffffffffffffffffffffffffffffffffffff1673ffffffffffffffffffffffffffffffffffffffff1614610652576040517f08c379a00000000000000000000000000000000000000000000000000000000081526004016106499061184e565b60405180910390fd5b60055f9054906101000a900473ffffffffffffffffffffffffffffffffffffffff1673ffffffffffffffffffffffffffffffffffffffff166108fc4790811502906040515f60405180830381858888f193505050501580156106b6573d5f803e3d5ffd5b50565b5f600254905090565b3373ffffffffffffffffffffffffffffffffffffffff1660055f9054906101000a900473ffffffffffffffffffffffffffffffffffffffff1673ffffffffffffffffffffffffffffffffffffffff1614610751576040517f08c379a00000000000000000000000000000000000000000000000000000000081526004016107489061184e565b60405180910390fd5b61076e33670de0b6b3a7640000836107699190611899565b610d95565b50565b600733908060018154018082558091505060019003905f5260205f20015f9091909190916101000a81548173ffffffffffffffffffffffffffffffffffffffff021916908373ffffffffffffffffffffffffffffffffffffffff160217905550565b5f73ffffffffffffffffffffffffffffffffffffffff168273ffffffffffffffffffffffffffffffffffffffff1603610841576040517f577375f300000000000000000000000000000000000000000000000000000000815260040161083890611924565b60405180910390fd5b6108808260055f9054906101000a900473ffffffffffffffffffffffffffffffffffffffff16670de0b6b3a76400008461087b9190611899565b610e14565b5050565b5f61088e82610a4d565b9050919050565b5f8061089f610d7c565b90506108ac858285610f04565b6108b7858585610e14565b60019150509392505050565b5f6012905090565b5f73ffffffffffffffffffffffffffffffffffffffff168273ffffffffffffffffffffffffffffffffffffffff1603610939576040517f577375f300000000000000000000000000000000000000000000000000000000815260040161093090611924565b60405180910390fd5b5f61094383610a4d565b1115610984576040517fc18cab9000000000000000000000000000000000000000000000000000000000815260040161097b9061198c565b60405180910390fd5b6109c360065f9054906101000a900473ffffffffffffffffffffffffffffffffffffffff1683670de0b6b3a7640000846109be9190611899565b610e14565b5050565b5f670de0b6b3a76400006109da83610a4d565b1015610a1b576040517fb4600e99000000000000000000000000000000000000000000000000000000008152600401610a12906119f4565b60405180910390fd5b670de0b6b3a7640000610a2d83610a4d565b610a379190611a3f565b9050919050565b5f670de0b6b3a7640000905090565b5f805f8373ffffffffffffffffffffffffffffffffffffffff1673ffffffffffffffffffffffffffffffffffffffff1681526020019081526020015f20549050919050565b606060048054610aa1906117d4565b80601f0160208091040260200160405190810160405280929190818152602001828054610acd906117d4565b8015610b185780601f10610aef57610100808354040283529160200191610b18565b820191905f5260205f20905b815481529060010190602001808311610afb57829003601f168201915b5050505050905090565b670de0b6b3a764000081610b369190611899565b9050610b4f3083600284610b4a9190611899565b610e14565b5050565b5f80610b5d610d7c565b9050610b6a818585610e14565b600191505092915050565b5f610b7f33610a4d565b1015610bc0576040517fb4600e99000000000000000000000000000000000000000000000000000000008152600401610bb790611ab9565b60405180910390fd5b610bdd33670de0b6b3a764000083610bd89190611899565b610f97565b50565b60603373ffffffffffffffffffffffffffffffffffffffff1660055f9054906101000a900473ffffffffffffffffffffffffffffffffffffffff1673ffffffffffffffffffffffffffffffffffffffff1614610c71576040517f08c379a0000000000000000000000000000000000000000000000000000000008152600401610c689061184e565b60405180910390fd5b6007805480602002602001604051908101604052809291908181526020018280548015610cf057602002820191905f5260205f20905b815f9054906101000a900473ffffffffffffffffffffffffffffffffffffffff1673ffffffffffffffffffffffffffffffffffffffff1681526020019060010190808311610ca7575b5050505050905090565b5f60015f8473ffffffffffffffffffffffffffffffffffffffff1673ffffffffffffffffffffffffffffffffffffffff1681526020019081526020015f205f8373ffffffffffffffffffffffffffffffffffffffff1673ffffffffffffffffffffffffffffffffffffffff1681526020019081526020015f2054905092915050565b5f33905090565b610d908383836001611016565b505050565b5f73ffffffffffffffffffffffffffffffffffffffff168273ffffffffffffffffffffffffffffffffffffffff1603610e05575f6040517fec442f05000000000000000000000000000000000000000000000000000000008152600401610dfc9190611ae6565b60405180910390fd5b610e105f83836111e5565b5050565b5f73ffffffffffffffffffffffffffffffffffffffff168373ffffffffffffffffffffffffffffffffffffffff1603610e84575f6040517f96c6fd1e000000000000000000000000000000000000000000000000000000008152600401610e7b9190611ae6565b60405180910390fd5b5f73ffffffffffffffffffffffffffffffffffffffff168273ffffffffffffffffffffffffffffffffffffffff1603610ef4575f6040517fec442f05000000000000000000000000000000000000000000000000000000008152600401610eeb9190611ae6565b60405180910390fd5b610eff8383836111e5565b505050565b5f610f0f8484610cfa565b90507fffffffffffffffffffffffffffffffffffffffffffffffffffffffffffffffff811015610f915781811015610f82578281836040517ffb8f41b2000000000000000000000000000000000000000000000000000000008152600401610f7993929190611aff565b60405180910390fd5b610f9084848484035f611016565b5b50505050565b5f73ffffffffffffffffffffffffffffffffffffffff168273ffffffffffffffffffffffffffffffffffffffff1603611007575f6040517f96c6fd1e000000000000000000000000000000000000000000000000000000008152600401610ffe9190611ae6565b60405180910390fd5b611012825f836111e5565b5050565b5f73ffffffffffffffffffffffffffffffffffffffff168473ffffffffffffffffffffffffffffffffffffffff1603611086575f6040517fe602df0500000000000000000000000000000000000000000000000000000000815260040161107d9190611ae6565b60405180910390fd5b5f73ffffffffffffffffffffffffffffffffffffffff168373ffffffffffffffffffffffffffffffffffffffff16036110f6575f6040517f94280d620000000000000000000000000000000000000000000000000000000081526004016110ed9190611ae6565b60405180910390fd5b8160015f8673ffffffffffffffffffffffffffffffffffffffff1673ffffffffffffffffffffffffffffffffffffffff1681526020019081526020015f205f8573ffffffffffffffffffffffffffffffffffffffff1673ffffffffffffffffffffffffffffffffffffffff1681526020019081526020015f208190555080156111df578273ffffffffffffffffffffffffffffffffffffffff168473ffffffffffffffffffffffffffffffffffffffff167f8c5be1e5ebec7d5bd14f71427d1e84f3dd0314c0f7b2291e5b200ac8c7c3b925846040516111d6919061149f565b60405180910390a35b50505050565b5f73ffffffffffffffffffffffffffffffffffffffff168373ffffffffffffffffffffffffffffffffffffffff1603611235578060025f8282546112299190611b34565b92505081905550611303565b5f805f8573ffffffffffffffffffffffffffffffffffffffff1673ffffffffffffffffffffffffffffffffffffffff1681526020019081526020015f20549050818110156112be578381836040517fe450d38c0000000000000000000000000000000000000000000000000000000081526004016112b593929190611aff565b60405180910390fd5b8181035f808673ffffffffffffffffffffffffffffffffffffffff1673ffffffffffffffffffffffffffffffffffffffff1681526020019081526020015f2081905550505b5f73ffffffffffffffffffffffffffffffffffffffff168273ffffffffffffffffffffffffffffffffffffffff160361134a578060025f8282540392505081905550611394565b805f808473ffffffffffffffffffffffffffffffffffffffff1673ffffffffffffffffffffffffffffffffffffffff1681526020019081526020015f205f82825401925050819055505b8173ffffffffffffffffffffffffffffffffffffffff168373ffffffffffffffffffffffffffffffffffffffff167fddf252ad1be2c89b69c2b068fc378daa952ba7f163c4a11628f55a4df523b3ef836040516113f1919061149f565b60405180910390a3505050565b5f80fd5b5f73ffffffffffffffffffffffffffffffffffffffff82169050919050565b5f61142b82611402565b9050919050565b61143b81611421565b8114611445575f80fd5b50565b5f8135905061145681611432565b92915050565b5f60208284031215611471576114706113fe565b5b5f61147e84828501611448565b91505092915050565b5f819050919050565b61149981611487565b82525050565b5f6020820190506114b25f830184611490565b92915050565b5f81519050919050565b5f82825260208201905092915050565b8281835e5f83830152505050565b5f601f19601f8301169050919050565b5f6114fa826114b8565b61150481856114c2565b93506115148185602086016114d2565b61151d816114e0565b840191505092915050565b5f6020820190508181035f83015261154081846114f0565b905092915050565b61155181611487565b811461155b575f80fd5b50565b5f8135905061156c81611548565b92915050565b5f8060408385031215611588576115876113fe565b5b5f61159585828601611448565b92505060206115a68582860161155e565b9150509250929050565b5f8115159050919050565b6115c4816115b0565b82525050565b5f6020820190506115dd5f8301846115bb565b92915050565b5f602082840312156115f8576115f76113fe565b5b5f6116058482850161155e565b91505092915050565b5f805f60608486031215611625576116246113fe565b5b5f61163286828701611448565b935050602061164386828701611448565b92505060406116548682870161155e565b9150509250925092565b5f60ff82169050919050565b6116738161165e565b82525050565b5f60208201905061168c5f83018461166a565b92915050565b5f81519050919050565b5f82825260208201905092915050565b5f819050602082019050919050565b6116c481611421565b82525050565b5f6116d583836116bb565b60208301905092915050565b5f602082019050919050565b5f6116f782611692565b611701818561169c565b935061170c836116ac565b805f5b8381101561173c57815161172388826116ca565b975061172e836116e1565b92505060018101905061170f565b5085935050505092915050565b5f6020820190508181035f83015261176181846116ed565b905092915050565b5f806040838503121561177f5761177e6113fe565b5b5f61178c85828601611448565b925050602061179d85828601611448565b9150509250929050565b7f4e487b71000000000000000000000000000000000000000000000000000000005f52602260045260245ffd5b5f60028204905060018216806117eb57607f821691505b6020821081036117fe576117fd6117a7565b5b50919050565b7f4e6f74206f776e657221000000000000000000000000000000000000000000005f82015250565b5f611838600a836114c2565b915061184382611804565b602082019050919050565b5f6020820190508181035f8301526118658161182c565b9050919050565b7f4e487b71000000000000000000000000000000000000000000000000000000005f52601160045260245ffd5b5f6118a382611487565b91506118ae83611487565b92508282026118bc81611487565b915082820484148315176118d3576118d261186c565b5b5092915050565b7f41646472657373207a65726f206e6f7420616c6c6f77656421000000000000005f82015250565b5f61190e6019836114c2565b9150611919826118da565b602082019050919050565b5f6020820190508181035f83015261193b81611902565b9050919050565b7f4164647265737320436c61696d656421000000000000000000000000000000005f82015250565b5f6119766010836114c2565b915061198182611942565b602082019050919050565b5f6020820190508181035f8301526119a38161196a565b9050919050565b7f546f6b656e206e6f7420656e6f756768210000000000000000000000000000005f82015250565b5f6119de6011836114c2565b91506119e9826119aa565b602082019050919050565b5f6020820190508181035f830152611a0b816119d2565b9050919050565b7f4e487b71000000000000000000000000000000000000000000000000000000005f52601260045260245ffd5b5f611a4982611487565b9150611a5483611487565b925082611a6457611a63611a12565b5b828204905092915050565b7f546f6b656e206e6f7420456e6f756768210000000000000000000000000000005f82015250565b5f611aa36011836114c2565b9150611aae82611a6f565b602082019050919050565b5f6020820190508181035f830152611ad081611a97565b9050919050565b611ae081611421565b82525050565b5f602082019050611af95f830184611ad7565b92915050565b5f606082019050611b125f830186611ad7565b611b1f6020830185611490565b611b2c6040830184611490565b949350505050565b5f611b3e82611487565b9150611b4983611487565b9250828201905080821115611b6157611b6061186c565b5b9291505056fea2646970667358221220acf72ca333ac27c4b1a3024514972de62bcdc94bf8bd61b97a22af67d3b0a98264736f6c634300081a0033",
					"opcodes": "PUSH1 0x80 PUSH1 0x40 MSTORE CALLVALUE DUP1 ISZERO PUSH2 0xF JUMPI PUSH0 DUP1 REVERT JUMPDEST POP PUSH1 0x40 MLOAD PUSH2 0x2542 CODESIZE SUB DUP1 PUSH2 0x2542 DUP4 CODECOPY DUP2 DUP2 ADD PUSH1 0x40 MSTORE DUP2 ADD SWAP1 PUSH2 0x31 SWAP2 SWAP1 PUSH2 0x4F0 JUMP JUMPDEST DUP2 DUP2 DUP2 PUSH1 0x3 SWAP1 DUP2 PUSH2 0x42 SWAP2 SWAP1 PUSH2 0x773 JUMP JUMPDEST POP DUP1 PUSH1 0x4 SWAP1 DUP2 PUSH2 0x52 SWAP2 SWAP1 PUSH2 0x773 JUMP JUMPDEST POP POP POP PUSH2 0x7E ADDRESS PUSH8 0xDE0B6B3A7640000 PUSH6 0x9184E72A000 PUSH2 0x73 SWAP2 SWAP1 PUSH2 0x86F JUMP JUMPDEST PUSH2 0x105 PUSH1 0x20 SHL PUSH1 0x20 SHR JUMP JUMPDEST CALLER PUSH1 0x5 PUSH0 PUSH2 0x100 EXP DUP2 SLOAD DUP2 PUSH20 0xFFFFFFFFFFFFFFFFFFFFFFFFFFFFFFFFFFFFFFFF MUL NOT AND SWAP1 DUP4 PUSH20 0xFFFFFFFFFFFFFFFFFFFFFFFFFFFFFFFFFFFFFFFF AND MUL OR SWAP1 SSTORE POP ADDRESS PUSH1 0x6 PUSH0 PUSH2 0x100 EXP DUP2 SLOAD DUP2 PUSH20 0xFFFFFFFFFFFFFFFFFFFFFFFFFFFFFFFFFFFFFFFF MUL NOT AND SWAP1 DUP4 PUSH20 0xFFFFFFFFFFFFFFFFFFFFFFFFFFFFFFFFFFFFFFFF AND MUL OR SWAP1 SSTORE POP POP POP PUSH2 0x998 JUMP JUMPDEST PUSH0 PUSH20 0xFFFFFFFFFFFFFFFFFFFFFFFFFFFFFFFFFFFFFFFF AND DUP3 PUSH20 0xFFFFFFFFFFFFFFFFFFFFFFFFFFFFFFFFFFFFFFFF AND SUB PUSH2 0x175 JUMPI PUSH0 PUSH1 0x40 MLOAD PUSH32 0xEC442F0500000000000000000000000000000000000000000000000000000000 DUP2 MSTORE PUSH1 0x4 ADD PUSH2 0x16C SWAP2 SWAP1 PUSH2 0x8EF JUMP JUMPDEST PUSH1 0x40 MLOAD DUP1 SWAP2 SUB SWAP1 REVERT JUMPDEST PUSH2 0x186 PUSH0 DUP4 DUP4 PUSH2 0x18A PUSH1 0x20 SHL PUSH1 0x20 SHR JUMP JUMPDEST POP POP JUMP JUMPDEST PUSH0 PUSH20 0xFFFFFFFFFFFFFFFFFFFFFFFFFFFFFFFFFFFFFFFF AND DUP4 PUSH20 0xFFFFFFFFFFFFFFFFFFFFFFFFFFFFFFFFFFFFFFFF AND SUB PUSH2 0x1DA JUMPI DUP1 PUSH1 0x2 PUSH0 DUP3 DUP3 SLOAD PUSH2 0x1CE SWAP2 SWAP1 PUSH2 0x908 JUMP JUMPDEST SWAP3 POP POP DUP2 SWAP1 SSTORE POP PUSH2 0x2A8 JUMP JUMPDEST PUSH0 DUP1 PUSH0 DUP6 PUSH20 0xFFFFFFFFFFFFFFFFFFFFFFFFFFFFFFFFFFFFFFFF AND PUSH20 0xFFFFFFFFFFFFFFFFFFFFFFFFFFFFFFFFFFFFFFFF AND DUP2 MSTORE PUSH1 0x20 ADD SWAP1 DUP2 MSTORE PUSH1 0x20 ADD PUSH0 KECCAK256 SLOAD SWAP1 POP DUP2 DUP2 LT ISZERO PUSH2 0x263 JUMPI DUP4 DUP2 DUP4 PUSH1 0x40 MLOAD PUSH32 0xE450D38C00000000000000000000000000000000000000000000000000000000 DUP2 MSTORE PUSH1 0x4 ADD PUSH2 0x25A SWAP4 SWAP3 SWAP2 SWAP1 PUSH2 0x94A JUMP JUMPDEST PUSH1 0x40 MLOAD DUP1 SWAP2 SUB SWAP1 REVERT JUMPDEST DUP2 DUP2 SUB PUSH0 DUP1 DUP7 PUSH20 0xFFFFFFFFFFFFFFFFFFFFFFFFFFFFFFFFFFFFFFFF AND PUSH20 0xFFFFFFFFFFFFFFFFFFFFFFFFFFFFFFFFFFFFFFFF AND DUP2 MSTORE PUSH1 0x20 ADD SWAP1 DUP2 MSTORE PUSH1 0x20 ADD PUSH0 KECCAK256 DUP2 SWAP1 SSTORE POP POP JUMPDEST PUSH0 PUSH20 0xFFFFFFFFFFFFFFFFFFFFFFFFFFFFFFFFFFFFFFFF AND DUP3 PUSH20 0xFFFFFFFFFFFFFFFFFFFFFFFFFFFFFFFFFFFFFFFF AND SUB PUSH2 0x2EF JUMPI DUP1 PUSH1 0x2 PUSH0 DUP3 DUP3 SLOAD SUB SWAP3 POP POP DUP2 SWAP1 SSTORE POP PUSH2 0x339 JUMP JUMPDEST DUP1 PUSH0 DUP1 DUP5 PUSH20 0xFFFFFFFFFFFFFFFFFFFFFFFFFFFFFFFFFFFFFFFF AND PUSH20 0xFFFFFFFFFFFFFFFFFFFFFFFFFFFFFFFFFFFFFFFF AND DUP2 MSTORE PUSH1 0x20 ADD SWAP1 DUP2 MSTORE PUSH1 0x20 ADD PUSH0 KECCAK256 PUSH0 DUP3 DUP3 SLOAD ADD SWAP3 POP POP DUP2 SWAP1 SSTORE POP JUMPDEST DUP2 PUSH20 0xFFFFFFFFFFFFFFFFFFFFFFFFFFFFFFFFFFFFFFFF AND DUP4 PUSH20 0xFFFFFFFFFFFFFFFFFFFFFFFFFFFFFFFFFFFFFFFF AND PUSH32 0xDDF252AD1BE2C89B69C2B068FC378DAA952BA7F163C4A11628F55A4DF523B3EF DUP4 PUSH1 0x40 MLOAD PUSH2 0x396 SWAP2 SWAP1 PUSH2 0x97F JUMP JUMPDEST PUSH1 0x40 MLOAD DUP1 SWAP2 SUB SWAP1 LOG3 POP POP POP JUMP JUMPDEST PUSH0 PUSH1 0x40 MLOAD SWAP1 POP SWAP1 JUMP JUMPDEST PUSH0 DUP1 REVERT JUMPDEST PUSH0 DUP1 REVERT JUMPDEST PUSH0 DUP1 REVERT JUMPDEST PUSH0 DUP1 REVERT JUMPDEST PUSH0 PUSH1 0x1F NOT PUSH1 0x1F DUP4 ADD AND SWAP1 POP SWAP2 SWAP1 POP JUMP JUMPDEST PUSH32 0x4E487B7100000000000000000000000000000000000000000000000000000000 PUSH0 MSTORE PUSH1 0x41 PUSH1 0x4 MSTORE PUSH1 0x24 PUSH0 REVERT JUMPDEST PUSH2 0x402 DUP3 PUSH2 0x3BC JUMP JUMPDEST DUP2 ADD DUP2 DUP2 LT PUSH8 0xFFFFFFFFFFFFFFFF DUP3 GT OR ISZERO PUSH2 0x421 JUMPI PUSH2 0x420 PUSH2 0x3CC JUMP JUMPDEST JUMPDEST DUP1 PUSH1 0x40 MSTORE POP POP POP JUMP JUMPDEST PUSH0 PUSH2 0x433 PUSH2 0x3A3 JUMP JUMPDEST SWAP1 POP PUSH2 0x43F DUP3 DUP3 PUSH2 0x3F9 JUMP JUMPDEST SWAP2 SWAP1 POP JUMP JUMPDEST PUSH0 PUSH8 0xFFFFFFFFFFFFFFFF DUP3 GT ISZERO PUSH2 0x45E JUMPI PUSH2 0x45D PUSH2 0x3CC JUMP JUMPDEST JUMPDEST PUSH2 0x467 DUP3 PUSH2 0x3BC JUMP JUMPDEST SWAP1 POP PUSH1 0x20 DUP2 ADD SWAP1 POP SWAP2 SWAP1 POP JUMP JUMPDEST DUP3 DUP2 DUP4 MCOPY PUSH0 DUP4 DUP4 ADD MSTORE POP POP POP JUMP JUMPDEST PUSH0 PUSH2 0x494 PUSH2 0x48F DUP5 PUSH2 0x444 JUMP JUMPDEST PUSH2 0x42A JUMP JUMPDEST SWAP1 POP DUP3 DUP2 MSTORE PUSH1 0x20 DUP2 ADD DUP5 DUP5 DUP5 ADD GT ISZERO PUSH2 0x4B0 JUMPI PUSH2 0x4AF PUSH2 0x3B8 JUMP JUMPDEST JUMPDEST PUSH2 0x4BB DUP5 DUP3 DUP6 PUSH2 0x474 JUMP JUMPDEST POP SWAP4 SWAP3 POP POP POP JUMP JUMPDEST PUSH0 DUP3 PUSH1 0x1F DUP4 ADD SLT PUSH2 0x4D7 JUMPI PUSH2 0x4D6 PUSH2 0x3B4 JUMP JUMPDEST JUMPDEST DUP2 MLOAD PUSH2 0x4E7 DUP5 DUP3 PUSH1 0x20 DUP7 ADD PUSH2 0x482 JUMP JUMPDEST SWAP2 POP POP SWAP3 SWAP2 POP POP JUMP JUMPDEST PUSH0 DUP1 PUSH1 0x40 DUP4 DUP6 SUB SLT ISZERO PUSH2 0x506 JUMPI PUSH2 0x505 PUSH2 0x3AC JUMP JUMPDEST JUMPDEST PUSH0 DUP4 ADD MLOAD PUSH8 0xFFFFFFFFFFFFFFFF DUP2 GT ISZERO PUSH2 0x523 JUMPI PUSH2 0x522 PUSH2 0x3B0 JUMP JUMPDEST JUMPDEST PUSH2 0x52F DUP6 DUP3 DUP7 ADD PUSH2 0x4C3 JUMP JUMPDEST SWAP3 POP POP PUSH1 0x20 DUP4 ADD MLOAD PUSH8 0xFFFFFFFFFFFFFFFF DUP2 GT ISZERO PUSH2 0x550 JUMPI PUSH2 0x54F PUSH2 0x3B0 JUMP JUMPDEST JUMPDEST PUSH2 0x55C DUP6 DUP3 DUP7 ADD PUSH2 0x4C3 JUMP JUMPDEST SWAP2 POP POP SWAP3 POP SWAP3 SWAP1 POP JUMP JUMPDEST PUSH0 DUP2 MLOAD SWAP1 POP SWAP2 SWAP1 POP JUMP JUMPDEST PUSH32 0x4E487B7100000000000000000000000000000000000000000000000000000000 PUSH0 MSTORE PUSH1 0x22 PUSH1 0x4 MSTORE PUSH1 0x24 PUSH0 REVERT JUMPDEST PUSH0 PUSH1 0x2 DUP3 DIV SWAP1 POP PUSH1 0x1 DUP3 AND DUP1 PUSH2 0x5B4 JUMPI PUSH1 0x7F DUP3 AND SWAP2 POP JUMPDEST PUSH1 0x20 DUP3 LT DUP2 SUB PUSH2 0x5C7 JUMPI PUSH2 0x5C6 PUSH2 0x570 JUMP JUMPDEST JUMPDEST POP SWAP2 SWAP1 POP JUMP JUMPDEST PUSH0 DUP2 SWAP1 POP DUP2 PUSH0 MSTORE PUSH1 0x20 PUSH0 KECCAK256 SWAP1 POP SWAP2 SWAP1 POP JUMP JUMPDEST PUSH0 PUSH1 0x20 PUSH1 0x1F DUP4 ADD DIV SWAP1 POP SWAP2 SWAP1 POP JUMP JUMPDEST PUSH0 DUP3 DUP3 SHL SWAP1 POP SWAP3 SWAP2 POP POP JUMP JUMPDEST PUSH0 PUSH1 0x8 DUP4 MUL PUSH2 0x629 PUSH32 0xFFFFFFFFFFFFFFFFFFFFFFFFFFFFFFFFFFFFFFFFFFFFFFFFFFFFFFFFFFFFFFFF DUP3 PUSH2 0x5EE JUMP JUMPDEST PUSH2 0x633 DUP7 DUP4 PUSH2 0x5EE JUMP JUMPDEST SWAP6 POP DUP1 NOT DUP5 AND SWAP4 POP DUP1 DUP7 AND DUP5 OR SWAP3 POP POP POP SWAP4 SWAP3 POP POP POP JUMP JUMPDEST PUSH0 DUP2 SWAP1 POP SWAP2 SWAP1 POP JUMP JUMPDEST PUSH0 DUP2 SWAP1 POP SWAP2 SWAP1 POP JUMP JUMPDEST PUSH0 PUSH2 0x677 PUSH2 0x672 PUSH2 0x66D DUP5 PUSH2 0x64B JUMP JUMPDEST PUSH2 0x654 JUMP JUMPDEST PUSH2 0x64B JUMP JUMPDEST SWAP1 POP SWAP2 SWAP1 POP JUMP JUMPDEST PUSH0 DUP2 SWAP1 POP SWAP2 SWAP1 POP JUMP JUMPDEST PUSH2 0x690 DUP4 PUSH2 0x65D JUMP JUMPDEST PUSH2 0x6A4 PUSH2 0x69C DUP3 PUSH2 0x67E JUMP JUMPDEST DUP5 DUP5 SLOAD PUSH2 0x5FA JUMP JUMPDEST DUP3 SSTORE POP POP POP POP JUMP JUMPDEST PUSH0 SWAP1 JUMP JUMPDEST PUSH2 0x6B8 PUSH2 0x6AC JUMP JUMPDEST PUSH2 0x6C3 DUP2 DUP5 DUP5 PUSH2 0x687 JUMP JUMPDEST POP POP POP JUMP JUMPDEST JUMPDEST DUP2 DUP2 LT ISZERO PUSH2 0x6E6 JUMPI PUSH2 0x6DB PUSH0 DUP3 PUSH2 0x6B0 JUMP JUMPDEST PUSH1 0x1 DUP2 ADD SWAP1 POP PUSH2 0x6C9 JUMP JUMPDEST POP POP JUMP JUMPDEST PUSH1 0x1F DUP3 GT ISZERO PUSH2 0x72B JUMPI PUSH2 0x6FC DUP2 PUSH2 0x5CD JUMP JUMPDEST PUSH2 0x705 DUP5 PUSH2 0x5DF JUMP JUMPDEST DUP2 ADD PUSH1 0x20 DUP6 LT ISZERO PUSH2 0x714 JUMPI DUP2 SWAP1 POP JUMPDEST PUSH2 0x728 PUSH2 0x720 DUP6 PUSH2 0x5DF JUMP JUMPDEST DUP4 ADD DUP3 PUSH2 0x6C8 JUMP JUMPDEST POP POP JUMPDEST POP POP POP JUMP JUMPDEST PUSH0 DUP3 DUP3 SHR SWAP1 POP SWAP3 SWAP2 POP POP JUMP JUMPDEST PUSH0 PUSH2 0x74B PUSH0 NOT DUP5 PUSH1 0x8 MUL PUSH2 0x730 JUMP JUMPDEST NOT DUP1 DUP4 AND SWAP2 POP POP SWAP3 SWAP2 POP POP JUMP JUMPDEST PUSH0 PUSH2 0x763 DUP4 DUP4 PUSH2 0x73C JUMP JUMPDEST SWAP2 POP DUP3 PUSH1 0x2 MUL DUP3 OR SWAP1 POP SWAP3 SWAP2 POP POP JUMP JUMPDEST PUSH2 0x77C DUP3 PUSH2 0x566 JUMP JUMPDEST PUSH8 0xFFFFFFFFFFFFFFFF DUP2 GT ISZERO PUSH2 0x795 JUMPI PUSH2 0x794 PUSH2 0x3CC JUMP JUMPDEST JUMPDEST PUSH2 0x79F DUP3 SLOAD PUSH2 0x59D JUMP JUMPDEST PUSH2 0x7AA DUP3 DUP3 DUP6 PUSH2 0x6EA JUMP JUMPDEST PUSH0 PUSH1 0x20 SWAP1 POP PUSH1 0x1F DUP4 GT PUSH1 0x1 DUP2 EQ PUSH2 0x7DB JUMPI PUSH0 DUP5 ISZERO PUSH2 0x7C9 JUMPI DUP3 DUP8 ADD MLOAD SWAP1 POP JUMPDEST PUSH2 0x7D3 DUP6 DUP3 PUSH2 0x758 JUMP JUMPDEST DUP7 SSTORE POP PUSH2 0x83A JUMP JUMPDEST PUSH1 0x1F NOT DUP5 AND PUSH2 0x7E9 DUP7 PUSH2 0x5CD JUMP JUMPDEST PUSH0 JUMPDEST DUP3 DUP2 LT ISZERO PUSH2 0x810 JUMPI DUP5 DUP10 ADD MLOAD DUP3 SSTORE PUSH1 0x1 DUP3 ADD SWAP2 POP PUSH1 0x20 DUP6 ADD SWAP5 POP PUSH1 0x20 DUP2 ADD SWAP1 POP PUSH2 0x7EB JUMP JUMPDEST DUP7 DUP4 LT ISZERO PUSH2 0x82D JUMPI DUP5 DUP10 ADD MLOAD PUSH2 0x829 PUSH1 0x1F DUP10 AND DUP3 PUSH2 0x73C JUMP JUMPDEST DUP4 SSTORE POP JUMPDEST PUSH1 0x1 PUSH1 0x2 DUP9 MUL ADD DUP9 SSTORE POP POP POP JUMPDEST POP POP POP POP POP POP JUMP JUMPDEST PUSH32 0x4E487B7100000000000000000000000000000000000000000000000000000000 PUSH0 MSTORE PUSH1 0x11 PUSH1 0x4 MSTORE PUSH1 0x24 PUSH0 REVERT JUMPDEST PUSH0 PUSH2 0x879 DUP3 PUSH2 0x64B JUMP JUMPDEST SWAP2 POP PUSH2 0x884 DUP4 PUSH2 0x64B JUMP JUMPDEST SWAP3 POP DUP3 DUP3 MUL PUSH2 0x892 DUP2 PUSH2 0x64B JUMP JUMPDEST SWAP2 POP DUP3 DUP3 DIV DUP5 EQ DUP4 ISZERO OR PUSH2 0x8A9 JUMPI PUSH2 0x8A8 PUSH2 0x842 JUMP JUMPDEST JUMPDEST POP SWAP3 SWAP2 POP POP JUMP JUMPDEST PUSH0 PUSH20 0xFFFFFFFFFFFFFFFFFFFFFFFFFFFFFFFFFFFFFFFF DUP3 AND SWAP1 POP SWAP2 SWAP1 POP JUMP JUMPDEST PUSH0 PUSH2 0x8D9 DUP3 PUSH2 0x8B0 JUMP JUMPDEST SWAP1 POP SWAP2 SWAP1 POP JUMP JUMPDEST PUSH2 0x8E9 DUP2 PUSH2 0x8CF JUMP JUMPDEST DUP3 MSTORE POP POP JUMP JUMPDEST PUSH0 PUSH1 0x20 DUP3 ADD SWAP1 POP PUSH2 0x902 PUSH0 DUP4 ADD DUP5 PUSH2 0x8E0 JUMP JUMPDEST SWAP3 SWAP2 POP POP JUMP JUMPDEST PUSH0 PUSH2 0x912 DUP3 PUSH2 0x64B JUMP JUMPDEST SWAP2 POP PUSH2 0x91D DUP4 PUSH2 0x64B JUMP JUMPDEST SWAP3 POP DUP3 DUP3 ADD SWAP1 POP DUP1 DUP3 GT ISZERO PUSH2 0x935 JUMPI PUSH2 0x934 PUSH2 0x842 JUMP JUMPDEST JUMPDEST SWAP3 SWAP2 POP POP JUMP JUMPDEST PUSH2 0x944 DUP2 PUSH2 0x64B JUMP JUMPDEST DUP3 MSTORE POP POP JUMP JUMPDEST PUSH0 PUSH1 0x60 DUP3 ADD SWAP1 POP PUSH2 0x95D PUSH0 DUP4 ADD DUP7 PUSH2 0x8E0 JUMP JUMPDEST PUSH2 0x96A PUSH1 0x20 DUP4 ADD DUP6 PUSH2 0x93B JUMP JUMPDEST PUSH2 0x977 PUSH1 0x40 DUP4 ADD DUP5 PUSH2 0x93B JUMP JUMPDEST SWAP5 SWAP4 POP POP POP POP JUMP JUMPDEST PUSH0 PUSH1 0x20 DUP3 ADD SWAP1 POP PUSH2 0x992 PUSH0 DUP4 ADD DUP5 PUSH2 0x93B JUMP JUMPDEST SWAP3 SWAP2 POP POP JUMP JUMPDEST PUSH2 0x1B9D DUP1 PUSH2 0x9A5 PUSH0 CODECOPY PUSH0 RETURN INVALID PUSH1 0x80 PUSH1 0x40 MSTORE PUSH1 0x4 CALLDATASIZE LT PUSH2 0x129 JUMPI PUSH0 CALLDATALOAD PUSH1 0xE0 SHR DUP1 PUSH4 0x313CE567 GT PUSH2 0xAA JUMPI DUP1 PUSH4 0x95D89B41 GT PUSH2 0x6E JUMPI DUP1 PUSH4 0x95D89B41 EQ PUSH2 0x3D5 JUMPI DUP1 PUSH4 0x9FE5491C EQ PUSH2 0x3FF JUMPI DUP1 PUSH4 0xA9059CBB EQ PUSH2 0x427 JUMPI DUP1 PUSH4 0xB90306AD EQ PUSH2 0x463 JUMPI DUP1 PUSH4 0xC12019EB EQ PUSH2 0x48B JUMPI DUP1 PUSH4 0xDD62ED3E EQ PUSH2 0x4B5 JUMPI PUSH2 0x129 JUMP JUMPDEST DUP1 PUSH4 0x313CE567 EQ PUSH2 0x2E1 JUMPI DUP1 PUSH4 0x47CEE97C EQ PUSH2 0x30B JUMPI DUP1 PUSH4 0x6010B797 EQ PUSH2 0x333 JUMPI DUP1 PUSH4 0x6D41B22C EQ PUSH2 0x36F JUMPI DUP1 PUSH4 0x70A08231 EQ PUSH2 0x399 JUMPI PUSH2 0x129 JUMP JUMPDEST DUP1 PUSH4 0x1E548D7A GT PUSH2 0xF1 JUMPI DUP1 PUSH4 0x1E548D7A EQ PUSH2 0x20F JUMPI DUP1 PUSH4 0x20C63D56 EQ PUSH2 0x237 JUMPI DUP1 PUSH4 0x21BA18A1 EQ PUSH2 0x241 JUMPI DUP1 PUSH4 0x239FCF0F EQ PUSH2 0x269 JUMPI DUP1 PUSH4 0x23B872DD EQ PUSH2 0x2A5 JUMPI PUSH2 0x129 JUMP JUMPDEST DUP1 PUSH4 0x6763788 EQ PUSH2 0x12D JUMPI DUP1 PUSH4 0x6FDDE03 EQ PUSH2 0x169 JUMPI DUP1 PUSH4 0x95EA7B3 EQ PUSH2 0x193 JUMPI DUP1 PUSH4 0xFDB1C10 EQ PUSH2 0x1CF JUMPI DUP1 PUSH4 0x18160DDD EQ PUSH2 0x1E5 JUMPI JUMPDEST PUSH0 DUP1 REVERT JUMPDEST CALLVALUE DUP1 ISZERO PUSH2 0x138 JUMPI PUSH0 DUP1 REVERT JUMPDEST POP PUSH2 0x153 PUSH1 0x4 DUP1 CALLDATASIZE SUB DUP2 ADD SWAP1 PUSH2 0x14E SWAP2 SWAP1 PUSH2 0x145C JUMP JUMPDEST PUSH2 0x4F1 JUMP JUMPDEST PUSH1 0x40 MLOAD PUSH2 0x160 SWAP2 SWAP1 PUSH2 0x149F JUMP JUMPDEST PUSH1 0x40 MLOAD DUP1 SWAP2 SUB SWAP1 RETURN JUMPDEST CALLVALUE DUP1 ISZERO PUSH2 0x174 JUMPI PUSH0 DUP1 REVERT JUMPDEST POP PUSH2 0x17D PUSH2 0x511 JUMP JUMPDEST PUSH1 0x40 MLOAD PUSH2 0x18A SWAP2 SWAP1 PUSH2 0x1528 JUMP JUMPDEST PUSH1 0x40 MLOAD DUP1 SWAP2 SUB SWAP1 RETURN JUMPDEST CALLVALUE DUP1 ISZERO PUSH2 0x19E JUMPI PUSH0 DUP1 REVERT JUMPDEST POP PUSH2 0x1B9 PUSH1 0x4 DUP1 CALLDATASIZE SUB DUP2 ADD SWAP1 PUSH2 0x1B4 SWAP2 SWAP1 PUSH2 0x1572 JUMP JUMPDEST PUSH2 0x5A1 JUMP JUMPDEST PUSH1 0x40 MLOAD PUSH2 0x1C6 SWAP2 SWAP1 PUSH2 0x15CA JUMP JUMPDEST PUSH1 0x40 MLOAD DUP1 SWAP2 SUB SWAP1 RETURN JUMPDEST CALLVALUE DUP1 ISZERO PUSH2 0x1DA JUMPI PUSH0 DUP1 REVERT JUMPDEST POP PUSH2 0x1E3 PUSH2 0x5C3 JUMP JUMPDEST STOP JUMPDEST CALLVALUE DUP1 ISZERO PUSH2 0x1F0 JUMPI PUSH0 DUP1 REVERT JUMPDEST POP PUSH2 0x1F9 PUSH2 0x6B9 JUMP JUMPDEST PUSH1 0x40 MLOAD PUSH2 0x206 SWAP2 SWAP1 PUSH2 0x149F JUMP JUMPDEST PUSH1 0x40 MLOAD DUP1 SWAP2 SUB SWAP1 RETURN JUMPDEST CALLVALUE DUP1 ISZERO PUSH2 0x21A JUMPI PUSH0 DUP1 REVERT JUMPDEST POP PUSH2 0x235 PUSH1 0x4 DUP1 CALLDATASIZE SUB DUP2 ADD SWAP1 PUSH2 0x230 SWAP2 SWAP1 PUSH2 0x15E3 JUMP JUMPDEST PUSH2 0x6C2 JUMP JUMPDEST STOP JUMPDEST PUSH2 0x23F PUSH2 0x771 JUMP JUMPDEST STOP JUMPDEST CALLVALUE DUP1 ISZERO PUSH2 0x24C JUMPI PUSH0 DUP1 REVERT JUMPDEST POP PUSH2 0x267 PUSH1 0x4 DUP1 CALLDATASIZE SUB DUP2 ADD SWAP1 PUSH2 0x262 SWAP2 SWAP1 PUSH2 0x1572 JUMP JUMPDEST PUSH2 0x7D3 JUMP JUMPDEST STOP JUMPDEST CALLVALUE DUP1 ISZERO PUSH2 0x274 JUMPI PUSH0 DUP1 REVERT JUMPDEST POP PUSH2 0x28F PUSH1 0x4 DUP1 CALLDATASIZE SUB DUP2 ADD SWAP1 PUSH2 0x28A SWAP2 SWAP1 PUSH2 0x145C JUMP JUMPDEST PUSH2 0x884 JUMP JUMPDEST PUSH1 0x40 MLOAD PUSH2 0x29C SWAP2 SWAP1 PUSH2 0x149F JUMP JUMPDEST PUSH1 0x40 MLOAD DUP1 SWAP2 SUB SWAP1 RETURN JUMPDEST CALLVALUE DUP1 ISZERO PUSH2 0x2B0 JUMPI PUSH0 DUP1 REVERT JUMPDEST POP PUSH2 0x2CB PUSH1 0x4 DUP1 CALLDATASIZE SUB DUP2 ADD SWAP1 PUSH2 0x2C6 SWAP2 SWAP1 PUSH2 0x160E JUMP JUMPDEST PUSH2 0x895 JUMP JUMPDEST PUSH1 0x40 MLOAD PUSH2 0x2D8 SWAP2 SWAP1 PUSH2 0x15CA JUMP JUMPDEST PUSH1 0x40 MLOAD DUP1 SWAP2 SUB SWAP1 RETURN JUMPDEST CALLVALUE DUP1 ISZERO PUSH2 0x2EC JUMPI PUSH0 DUP1 REVERT JUMPDEST POP PUSH2 0x2F5 PUSH2 0x8C3 JUMP JUMPDEST PUSH1 0x40 MLOAD PUSH2 0x302 SWAP2 SWAP1 PUSH2 0x1679 JUMP JUMPDEST PUSH1 0x40 MLOAD DUP1 SWAP2 SUB SWAP1 RETURN JUMPDEST CALLVALUE DUP1 ISZERO PUSH2 0x316 JUMPI PUSH0 DUP1 REVERT JUMPDEST POP PUSH2 0x331 PUSH1 0x4 DUP1 CALLDATASIZE SUB DUP2 ADD SWAP1 PUSH2 0x32C SWAP2 SWAP1 PUSH2 0x1572 JUMP JUMPDEST PUSH2 0x8CB JUMP JUMPDEST STOP JUMPDEST CALLVALUE DUP1 ISZERO PUSH2 0x33E JUMPI PUSH0 DUP1 REVERT JUMPDEST POP PUSH2 0x359 PUSH1 0x4 DUP1 CALLDATASIZE SUB DUP2 ADD SWAP1 PUSH2 0x354 SWAP2 SWAP1 PUSH2 0x145C JUMP JUMPDEST PUSH2 0x9C7 JUMP JUMPDEST PUSH1 0x40 MLOAD PUSH2 0x366 SWAP2 SWAP1 PUSH2 0x149F JUMP JUMPDEST PUSH1 0x40 MLOAD DUP1 SWAP2 SUB SWAP1 RETURN JUMPDEST CALLVALUE DUP1 ISZERO PUSH2 0x37A JUMPI PUSH0 DUP1 REVERT JUMPDEST POP PUSH2 0x383 PUSH2 0xA3E JUMP JUMPDEST PUSH1 0x40 MLOAD PUSH2 0x390 SWAP2 SWAP1 PUSH2 0x149F JUMP JUMPDEST PUSH1 0x40 MLOAD DUP1 SWAP2 SUB SWAP1 RETURN JUMPDEST CALLVALUE DUP1 ISZERO PUSH2 0x3A4 JUMPI PUSH0 DUP1 REVERT JUMPDEST POP PUSH2 0x3BF PUSH1 0x4 DUP1 CALLDATASIZE SUB DUP2 ADD SWAP1 PUSH2 0x3BA SWAP2 SWAP1 PUSH2 0x145C JUMP JUMPDEST PUSH2 0xA4D JUMP JUMPDEST PUSH1 0x40 MLOAD PUSH2 0x3CC SWAP2 SWAP1 PUSH2 0x149F JUMP JUMPDEST PUSH1 0x40 MLOAD DUP1 SWAP2 SUB SWAP1 RETURN JUMPDEST CALLVALUE DUP1 ISZERO PUSH2 0x3E0 JUMPI PUSH0 DUP1 REVERT JUMPDEST POP PUSH2 0x3E9 PUSH2 0xA92 JUMP JUMPDEST PUSH1 0x40 MLOAD PUSH2 0x3F6 SWAP2 SWAP1 PUSH2 0x1528 JUMP JUMPDEST PUSH1 0x40 MLOAD DUP1 SWAP2 SUB SWAP1 RETURN JUMPDEST CALLVALUE DUP1 ISZERO PUSH2 0x40A JUMPI PUSH0 DUP1 REVERT JUMPDEST POP PUSH2 0x425 PUSH1 0x4 DUP1 CALLDATASIZE SUB DUP2 ADD SWAP1 PUSH2 0x420 SWAP2 SWAP1 PUSH2 0x1572 JUMP JUMPDEST PUSH2 0xB22 JUMP JUMPDEST STOP JUMPDEST CALLVALUE DUP1 ISZERO PUSH2 0x432 JUMPI PUSH0 DUP1 REVERT JUMPDEST POP PUSH2 0x44D PUSH1 0x4 DUP1 CALLDATASIZE SUB DUP2 ADD SWAP1 PUSH2 0x448 SWAP2 SWAP1 PUSH2 0x1572 JUMP JUMPDEST PUSH2 0xB53 JUMP JUMPDEST PUSH1 0x40 MLOAD PUSH2 0x45A SWAP2 SWAP1 PUSH2 0x15CA JUMP JUMPDEST PUSH1 0x40 MLOAD DUP1 SWAP2 SUB SWAP1 RETURN JUMPDEST CALLVALUE DUP1 ISZERO PUSH2 0x46E JUMPI PUSH0 DUP1 REVERT JUMPDEST POP PUSH2 0x489 PUSH1 0x4 DUP1 CALLDATASIZE SUB DUP2 ADD SWAP1 PUSH2 0x484 SWAP2 SWAP1 PUSH2 0x15E3 JUMP JUMPDEST PUSH2 0xB75 JUMP JUMPDEST STOP JUMPDEST CALLVALUE DUP1 ISZERO PUSH2 0x496 JUMPI PUSH0 DUP1 REVERT JUMPDEST POP PUSH2 0x49F PUSH2 0xBE0 JUMP JUMPDEST PUSH1 0x40 MLOAD PUSH2 0x4AC SWAP2 SWAP1 PUSH2 0x1749 JUMP JUMPDEST PUSH1 0x40 MLOAD DUP1 SWAP2 SUB SWAP1 RETURN JUMPDEST CALLVALUE DUP1 ISZERO PUSH2 0x4C0 JUMPI PUSH0 DUP1 REVERT JUMPDEST POP PUSH2 0x4DB PUSH1 0x4 DUP1 CALLDATASIZE SUB DUP2 ADD SWAP1 PUSH2 0x4D6 SWAP2 SWAP1 PUSH2 0x1769 JUMP JUMPDEST PUSH2 0xCFA JUMP JUMPDEST PUSH1 0x40 MLOAD PUSH2 0x4E8 SWAP2 SWAP1 PUSH2 0x149F JUMP JUMPDEST PUSH1 0x40 MLOAD DUP1 SWAP2 SUB SWAP1 RETURN JUMPDEST PUSH0 DUP2 PUSH20 0xFFFFFFFFFFFFFFFFFFFFFFFFFFFFFFFFFFFFFFFF AND BALANCE SWAP1 POP SWAP2 SWAP1 POP JUMP JUMPDEST PUSH1 0x60 PUSH1 0x3 DUP1 SLOAD PUSH2 0x520 SWAP1 PUSH2 0x17D4 JUMP JUMPDEST DUP1 PUSH1 0x1F ADD PUSH1 0x20 DUP1 SWAP2 DIV MUL PUSH1 0x20 ADD PUSH1 0x40 MLOAD SWAP1 DUP2 ADD PUSH1 0x40 MSTORE DUP1 SWAP3 SWAP2 SWAP1 DUP2 DUP2 MSTORE PUSH1 0x20 ADD DUP3 DUP1 SLOAD PUSH2 0x54C SWAP1 PUSH2 0x17D4 JUMP JUMPDEST DUP1 ISZERO PUSH2 0x597 JUMPI DUP1 PUSH1 0x1F LT PUSH2 0x56E JUMPI PUSH2 0x100 DUP1 DUP4 SLOAD DIV MUL DUP4 MSTORE SWAP2 PUSH1 0x20 ADD SWAP2 PUSH2 0x597 JUMP JUMPDEST DUP3 ADD SWAP2 SWAP1 PUSH0 MSTORE PUSH1 0x20 PUSH0 KECCAK256 SWAP1 JUMPDEST DUP2 SLOAD DUP2 MSTORE SWAP1 PUSH1 0x1 ADD SWAP1 PUSH1 0x20 ADD DUP1 DUP4 GT PUSH2 0x57A JUMPI DUP3 SWAP1 SUB PUSH1 0x1F AND DUP3 ADD SWAP2 JUMPDEST POP POP POP POP POP SWAP1 POP SWAP1 JUMP JUMPDEST PUSH0 DUP1 PUSH2 0x5AB PUSH2 0xD7C JUMP JUMPDEST SWAP1 POP PUSH2 0x5B8 DUP2 DUP6 DUP6 PUSH2 0xD83 JUMP JUMPDEST PUSH1 0x1 SWAP2 POP POP SWAP3 SWAP2 POP POP JUMP JUMPDEST CALLER PUSH20 0xFFFFFFFFFFFFFFFFFFFFFFFFFFFFFFFFFFFFFFFF AND PUSH1 0x5 PUSH0 SWAP1 SLOAD SWAP1 PUSH2 0x100 EXP SWAP1 DIV PUSH20 0xFFFFFFFFFFFFFFFFFFFFFFFFFFFFFFFFFFFFFFFF AND PUSH20 0xFFFFFFFFFFFFFFFFFFFFFFFFFFFFFFFFFFFFFFFF AND EQ PUSH2 0x652 JUMPI PUSH1 0x40 MLOAD PUSH32 0x8C379A000000000000000000000000000000000000000000000000000000000 DUP2 MSTORE PUSH1 0x4 ADD PUSH2 0x649 SWAP1 PUSH2 0x184E JUMP JUMPDEST PUSH1 0x40 MLOAD DUP1 SWAP2 SUB SWAP1 REVERT JUMPDEST PUSH1 0x5 PUSH0 SWAP1 SLOAD SWAP1 PUSH2 0x100 EXP SWAP1 DIV PUSH20 0xFFFFFFFFFFFFFFFFFFFFFFFFFFFFFFFFFFFFFFFF AND PUSH20 0xFFFFFFFFFFFFFFFFFFFFFFFFFFFFFFFFFFFFFFFF AND PUSH2 0x8FC SELFBALANCE SWAP1 DUP2 ISZERO MUL SWAP1 PUSH1 0x40 MLOAD PUSH0 PUSH1 0x40 MLOAD DUP1 DUP4 SUB DUP2 DUP6 DUP9 DUP9 CALL SWAP4 POP POP POP POP ISZERO DUP1 ISZERO PUSH2 0x6B6 JUMPI RETURNDATASIZE PUSH0 DUP1 RETURNDATACOPY RETURNDATASIZE PUSH0 REVERT JUMPDEST POP JUMP JUMPDEST PUSH0 PUSH1 0x2 SLOAD SWAP1 POP SWAP1 JUMP JUMPDEST CALLER PUSH20 0xFFFFFFFFFFFFFFFFFFFFFFFFFFFFFFFFFFFFFFFF AND PUSH1 0x5 PUSH0 SWAP1 SLOAD SWAP1 PUSH2 0x100 EXP SWAP1 DIV PUSH20 0xFFFFFFFFFFFFFFFFFFFFFFFFFFFFFFFFFFFFFFFF AND PUSH20 0xFFFFFFFFFFFFFFFFFFFFFFFFFFFFFFFFFFFFFFFF AND EQ PUSH2 0x751 JUMPI PUSH1 0x40 MLOAD PUSH32 0x8C379A000000000000000000000000000000000000000000000000000000000 DUP2 MSTORE PUSH1 0x4 ADD PUSH2 0x748 SWAP1 PUSH2 0x184E JUMP JUMPDEST PUSH1 0x40 MLOAD DUP1 SWAP2 SUB SWAP1 REVERT JUMPDEST PUSH2 0x76E CALLER PUSH8 0xDE0B6B3A7640000 DUP4 PUSH2 0x769 SWAP2 SWAP1 PUSH2 0x1899 JUMP JUMPDEST PUSH2 0xD95 JUMP JUMPDEST POP JUMP JUMPDEST PUSH1 0x7 CALLER SWAP1 DUP1 PUSH1 0x1 DUP2 SLOAD ADD DUP1 DUP3 SSTORE DUP1 SWAP2 POP POP PUSH1 0x1 SWAP1 SUB SWAP1 PUSH0 MSTORE PUSH1 0x20 PUSH0 KECCAK256 ADD PUSH0 SWAP1 SWAP2 SWAP1 SWAP2 SWAP1 SWAP2 PUSH2 0x100 EXP DUP2 SLOAD DUP2 PUSH20 0xFFFFFFFFFFFFFFFFFFFFFFFFFFFFFFFFFFFFFFFF MUL NOT AND SWAP1 DUP4 PUSH20 0xFFFFFFFFFFFFFFFFFFFFFFFFFFFFFFFFFFFFFFFF AND MUL OR SWAP1 SSTORE POP JUMP JUMPDEST PUSH0 PUSH20 0xFFFFFFFFFFFFFFFFFFFFFFFFFFFFFFFFFFFFFFFF AND DUP3 PUSH20 0xFFFFFFFFFFFFFFFFFFFFFFFFFFFFFFFFFFFFFFFF AND SUB PUSH2 0x841 JUMPI PUSH1 0x40 MLOAD PUSH32 0x577375F300000000000000000000000000000000000000000000000000000000 DUP2 MSTORE PUSH1 0x4 ADD PUSH2 0x838 SWAP1 PUSH2 0x1924 JUMP JUMPDEST PUSH1 0x40 MLOAD DUP1 SWAP2 SUB SWAP1 REVERT JUMPDEST PUSH2 0x880 DUP3 PUSH1 0x5 PUSH0 SWAP1 SLOAD SWAP1 PUSH2 0x100 EXP SWAP1 DIV PUSH20 0xFFFFFFFFFFFFFFFFFFFFFFFFFFFFFFFFFFFFFFFF AND PUSH8 0xDE0B6B3A7640000 DUP5 PUSH2 0x87B SWAP2 SWAP1 PUSH2 0x1899 JUMP JUMPDEST PUSH2 0xE14 JUMP JUMPDEST POP POP JUMP JUMPDEST PUSH0 PUSH2 0x88E DUP3 PUSH2 0xA4D JUMP JUMPDEST SWAP1 POP SWAP2 SWAP1 POP JUMP JUMPDEST PUSH0 DUP1 PUSH2 0x89F PUSH2 0xD7C JUMP JUMPDEST SWAP1 POP PUSH2 0x8AC DUP6 DUP3 DUP6 PUSH2 0xF04 JUMP JUMPDEST PUSH2 0x8B7 DUP6 DUP6 DUP6 PUSH2 0xE14 JUMP JUMPDEST PUSH1 0x1 SWAP2 POP POP SWAP4 SWAP3 POP POP POP JUMP JUMPDEST PUSH0 PUSH1 0x12 SWAP1 POP SWAP1 JUMP JUMPDEST PUSH0 PUSH20 0xFFFFFFFFFFFFFFFFFFFFFFFFFFFFFFFFFFFFFFFF AND DUP3 PUSH20 0xFFFFFFFFFFFFFFFFFFFFFFFFFFFFFFFFFFFFFFFF AND SUB PUSH2 0x939 JUMPI PUSH1 0x40 MLOAD PUSH32 0x577375F300000000000000000000000000000000000000000000000000000000 DUP2 MSTORE PUSH1 0x4 ADD PUSH2 0x930 SWAP1 PUSH2 0x1924 JUMP JUMPDEST PUSH1 0x40 MLOAD DUP1 SWAP2 SUB SWAP1 REVERT JUMPDEST PUSH0 PUSH2 0x943 DUP4 PUSH2 0xA4D JUMP JUMPDEST GT ISZERO PUSH2 0x984 JUMPI PUSH1 0x40 MLOAD PUSH32 0xC18CAB9000000000000000000000000000000000000000000000000000000000 DUP2 MSTORE PUSH1 0x4 ADD PUSH2 0x97B SWAP1 PUSH2 0x198C JUMP JUMPDEST PUSH1 0x40 MLOAD DUP1 SWAP2 SUB SWAP1 REVERT JUMPDEST PUSH2 0x9C3 PUSH1 0x6 PUSH0 SWAP1 SLOAD SWAP1 PUSH2 0x100 EXP SWAP1 DIV PUSH20 0xFFFFFFFFFFFFFFFFFFFFFFFFFFFFFFFFFFFFFFFF AND DUP4 PUSH8 0xDE0B6B3A7640000 DUP5 PUSH2 0x9BE SWAP2 SWAP1 PUSH2 0x1899 JUMP JUMPDEST PUSH2 0xE14 JUMP JUMPDEST POP POP JUMP JUMPDEST PUSH0 PUSH8 0xDE0B6B3A7640000 PUSH2 0x9DA DUP4 PUSH2 0xA4D JUMP JUMPDEST LT ISZERO PUSH2 0xA1B JUMPI PUSH1 0x40 MLOAD PUSH32 0xB4600E9900000000000000000000000000000000000000000000000000000000 DUP2 MSTORE PUSH1 0x4 ADD PUSH2 0xA12 SWAP1 PUSH2 0x19F4 JUMP JUMPDEST PUSH1 0x40 MLOAD DUP1 SWAP2 SUB SWAP1 REVERT JUMPDEST PUSH8 0xDE0B6B3A7640000 PUSH2 0xA2D DUP4 PUSH2 0xA4D JUMP JUMPDEST PUSH2 0xA37 SWAP2 SWAP1 PUSH2 0x1A3F JUMP JUMPDEST SWAP1 POP SWAP2 SWAP1 POP JUMP JUMPDEST PUSH0 PUSH8 0xDE0B6B3A7640000 SWAP1 POP SWAP1 JUMP JUMPDEST PUSH0 DUP1 PUSH0 DUP4 PUSH20 0xFFFFFFFFFFFFFFFFFFFFFFFFFFFFFFFFFFFFFFFF AND PUSH20 0xFFFFFFFFFFFFFFFFFFFFFFFFFFFFFFFFFFFFFFFF AND DUP2 MSTORE PUSH1 0x20 ADD SWAP1 DUP2 MSTORE PUSH1 0x20 ADD PUSH0 KECCAK256 SLOAD SWAP1 POP SWAP2 SWAP1 POP JUMP JUMPDEST PUSH1 0x60 PUSH1 0x4 DUP1 SLOAD PUSH2 0xAA1 SWAP1 PUSH2 0x17D4 JUMP JUMPDEST DUP1 PUSH1 0x1F ADD PUSH1 0x20 DUP1 SWAP2 DIV MUL PUSH1 0x20 ADD PUSH1 0x40 MLOAD SWAP1 DUP2 ADD PUSH1 0x40 MSTORE DUP1 SWAP3 SWAP2 SWAP1 DUP2 DUP2 MSTORE PUSH1 0x20 ADD DUP3 DUP1 SLOAD PUSH2 0xACD SWAP1 PUSH2 0x17D4 JUMP JUMPDEST DUP1 ISZERO PUSH2 0xB18 JUMPI DUP1 PUSH1 0x1F LT PUSH2 0xAEF JUMPI PUSH2 0x100 DUP1 DUP4 SLOAD DIV MUL DUP4 MSTORE SWAP2 PUSH1 0x20 ADD SWAP2 PUSH2 0xB18 JUMP JUMPDEST DUP3 ADD SWAP2 SWAP1 PUSH0 MSTORE PUSH1 0x20 PUSH0 KECCAK256 SWAP1 JUMPDEST DUP2 SLOAD DUP2 MSTORE SWAP1 PUSH1 0x1 ADD SWAP1 PUSH1 0x20 ADD DUP1 DUP4 GT PUSH2 0xAFB JUMPI DUP3 SWAP1 SUB PUSH1 0x1F AND DUP3 ADD SWAP2 JUMPDEST POP POP POP POP POP SWAP1 POP SWAP1 JUMP JUMPDEST PUSH8 0xDE0B6B3A7640000 DUP2 PUSH2 0xB36 SWAP2 SWAP1 PUSH2 0x1899 JUMP JUMPDEST SWAP1 POP PUSH2 0xB4F ADDRESS DUP4 PUSH1 0x2 DUP5 PUSH2 0xB4A SWAP2 SWAP1 PUSH2 0x1899 JUMP JUMPDEST PUSH2 0xE14 JUMP JUMPDEST POP POP JUMP JUMPDEST PUSH0 DUP1 PUSH2 0xB5D PUSH2 0xD7C JUMP JUMPDEST SWAP1 POP PUSH2 0xB6A DUP2 DUP6 DUP6 PUSH2 0xE14 JUMP JUMPDEST PUSH1 0x1 SWAP2 POP POP SWAP3 SWAP2 POP POP JUMP JUMPDEST PUSH0 PUSH2 0xB7F CALLER PUSH2 0xA4D JUMP JUMPDEST LT ISZERO PUSH2 0xBC0 JUMPI PUSH1 0x40 MLOAD PUSH32 0xB4600E9900000000000000000000000000000000000000000000000000000000 DUP2 MSTORE PUSH1 0x4 ADD PUSH2 0xBB7 SWAP1 PUSH2 0x1AB9 JUMP JUMPDEST PUSH1 0x40 MLOAD DUP1 SWAP2 SUB SWAP1 REVERT JUMPDEST PUSH2 0xBDD CALLER PUSH8 0xDE0B6B3A7640000 DUP4 PUSH2 0xBD8 SWAP2 SWAP1 PUSH2 0x1899 JUMP JUMPDEST PUSH2 0xF97 JUMP JUMPDEST POP JUMP JUMPDEST PUSH1 0x60 CALLER PUSH20 0xFFFFFFFFFFFFFFFFFFFFFFFFFFFFFFFFFFFFFFFF AND PUSH1 0x5 PUSH0 SWAP1 SLOAD SWAP1 PUSH2 0x100 EXP SWAP1 DIV PUSH20 0xFFFFFFFFFFFFFFFFFFFFFFFFFFFFFFFFFFFFFFFF AND PUSH20 0xFFFFFFFFFFFFFFFFFFFFFFFFFFFFFFFFFFFFFFFF AND EQ PUSH2 0xC71 JUMPI PUSH1 0x40 MLOAD PUSH32 0x8C379A000000000000000000000000000000000000000000000000000000000 DUP2 MSTORE PUSH1 0x4 ADD PUSH2 0xC68 SWAP1 PUSH2 0x184E JUMP JUMPDEST PUSH1 0x40 MLOAD DUP1 SWAP2 SUB SWAP1 REVERT JUMPDEST PUSH1 0x7 DUP1 SLOAD DUP1 PUSH1 0x20 MUL PUSH1 0x20 ADD PUSH1 0x40 MLOAD SWAP1 DUP2 ADD PUSH1 0x40 MSTORE DUP1 SWAP3 SWAP2 SWAP1 DUP2 DUP2 MSTORE PUSH1 0x20 ADD DUP3 DUP1 SLOAD DUP1 ISZERO PUSH2 0xCF0 JUMPI PUSH1 0x20 MUL DUP3 ADD SWAP2 SWAP1 PUSH0 MSTORE PUSH1 0x20 PUSH0 KECCAK256 SWAP1 JUMPDEST DUP2 PUSH0 SWAP1 SLOAD SWAP1 PUSH2 0x100 EXP SWAP1 DIV PUSH20 0xFFFFFFFFFFFFFFFFFFFFFFFFFFFFFFFFFFFFFFFF AND PUSH20 0xFFFFFFFFFFFFFFFFFFFFFFFFFFFFFFFFFFFFFFFF AND DUP2 MSTORE PUSH1 0x20 ADD SWAP1 PUSH1 0x1 ADD SWAP1 DUP1 DUP4 GT PUSH2 0xCA7 JUMPI JUMPDEST POP POP POP POP POP SWAP1 POP SWAP1 JUMP JUMPDEST PUSH0 PUSH1 0x1 PUSH0 DUP5 PUSH20 0xFFFFFFFFFFFFFFFFFFFFFFFFFFFFFFFFFFFFFFFF AND PUSH20 0xFFFFFFFFFFFFFFFFFFFFFFFFFFFFFFFFFFFFFFFF AND DUP2 MSTORE PUSH1 0x20 ADD SWAP1 DUP2 MSTORE PUSH1 0x20 ADD PUSH0 KECCAK256 PUSH0 DUP4 PUSH20 0xFFFFFFFFFFFFFFFFFFFFFFFFFFFFFFFFFFFFFFFF AND PUSH20 0xFFFFFFFFFFFFFFFFFFFFFFFFFFFFFFFFFFFFFFFF AND DUP2 MSTORE PUSH1 0x20 ADD SWAP1 DUP2 MSTORE PUSH1 0x20 ADD PUSH0 KECCAK256 SLOAD SWAP1 POP SWAP3 SWAP2 POP POP JUMP JUMPDEST PUSH0 CALLER SWAP1 POP SWAP1 JUMP JUMPDEST PUSH2 0xD90 DUP4 DUP4 DUP4 PUSH1 0x1 PUSH2 0x1016 JUMP JUMPDEST POP POP POP JUMP JUMPDEST PUSH0 PUSH20 0xFFFFFFFFFFFFFFFFFFFFFFFFFFFFFFFFFFFFFFFF AND DUP3 PUSH20 0xFFFFFFFFFFFFFFFFFFFFFFFFFFFFFFFFFFFFFFFF AND SUB PUSH2 0xE05 JUMPI PUSH0 PUSH1 0x40 MLOAD PUSH32 0xEC442F0500000000000000000000000000000000000000000000000000000000 DUP2 MSTORE PUSH1 0x4 ADD PUSH2 0xDFC SWAP2 SWAP1 PUSH2 0x1AE6 JUMP JUMPDEST PUSH1 0x40 MLOAD DUP1 SWAP2 SUB SWAP1 REVERT JUMPDEST PUSH2 0xE10 PUSH0 DUP4 DUP4 PUSH2 0x11E5 JUMP JUMPDEST POP POP JUMP JUMPDEST PUSH0 PUSH20 0xFFFFFFFFFFFFFFFFFFFFFFFFFFFFFFFFFFFFFFFF AND DUP4 PUSH20 0xFFFFFFFFFFFFFFFFFFFFFFFFFFFFFFFFFFFFFFFF AND SUB PUSH2 0xE84 JUMPI PUSH0 PUSH1 0x40 MLOAD PUSH32 0x96C6FD1E00000000000000000000000000000000000000000000000000000000 DUP2 MSTORE PUSH1 0x4 ADD PUSH2 0xE7B SWAP2 SWAP1 PUSH2 0x1AE6 JUMP JUMPDEST PUSH1 0x40 MLOAD DUP1 SWAP2 SUB SWAP1 REVERT JUMPDEST PUSH0 PUSH20 0xFFFFFFFFFFFFFFFFFFFFFFFFFFFFFFFFFFFFFFFF AND DUP3 PUSH20 0xFFFFFFFFFFFFFFFFFFFFFFFFFFFFFFFFFFFFFFFF AND SUB PUSH2 0xEF4 JUMPI PUSH0 PUSH1 0x40 MLOAD PUSH32 0xEC442F0500000000000000000000000000000000000000000000000000000000 DUP2 MSTORE PUSH1 0x4 ADD PUSH2 0xEEB SWAP2 SWAP1 PUSH2 0x1AE6 JUMP JUMPDEST PUSH1 0x40 MLOAD DUP1 SWAP2 SUB SWAP1 REVERT JUMPDEST PUSH2 0xEFF DUP4 DUP4 DUP4 PUSH2 0x11E5 JUMP JUMPDEST POP POP POP JUMP JUMPDEST PUSH0 PUSH2 0xF0F DUP5 DUP5 PUSH2 0xCFA JUMP JUMPDEST SWAP1 POP PUSH32 0xFFFFFFFFFFFFFFFFFFFFFFFFFFFFFFFFFFFFFFFFFFFFFFFFFFFFFFFFFFFFFFFF DUP2 LT ISZERO PUSH2 0xF91 JUMPI DUP2 DUP2 LT ISZERO PUSH2 0xF82 JUMPI DUP3 DUP2 DUP4 PUSH1 0x40 MLOAD PUSH32 0xFB8F41B200000000000000000000000000000000000000000000000000000000 DUP2 MSTORE PUSH1 0x4 ADD PUSH2 0xF79 SWAP4 SWAP3 SWAP2 SWAP1 PUSH2 0x1AFF JUMP JUMPDEST PUSH1 0x40 MLOAD DUP1 SWAP2 SUB SWAP1 REVERT JUMPDEST PUSH2 0xF90 DUP5 DUP5 DUP5 DUP5 SUB PUSH0 PUSH2 0x1016 JUMP JUMPDEST JUMPDEST POP POP POP POP JUMP JUMPDEST PUSH0 PUSH20 0xFFFFFFFFFFFFFFFFFFFFFFFFFFFFFFFFFFFFFFFF AND DUP3 PUSH20 0xFFFFFFFFFFFFFFFFFFFFFFFFFFFFFFFFFFFFFFFF AND SUB PUSH2 0x1007 JUMPI PUSH0 PUSH1 0x40 MLOAD PUSH32 0x96C6FD1E00000000000000000000000000000000000000000000000000000000 DUP2 MSTORE PUSH1 0x4 ADD PUSH2 0xFFE SWAP2 SWAP1 PUSH2 0x1AE6 JUMP JUMPDEST PUSH1 0x40 MLOAD DUP1 SWAP2 SUB SWAP1 REVERT JUMPDEST PUSH2 0x1012 DUP3 PUSH0 DUP4 PUSH2 0x11E5 JUMP JUMPDEST POP POP JUMP JUMPDEST PUSH0 PUSH20 0xFFFFFFFFFFFFFFFFFFFFFFFFFFFFFFFFFFFFFFFF AND DUP5 PUSH20 0xFFFFFFFFFFFFFFFFFFFFFFFFFFFFFFFFFFFFFFFF AND SUB PUSH2 0x1086 JUMPI PUSH0 PUSH1 0x40 MLOAD PUSH32 0xE602DF0500000000000000000000000000000000000000000000000000000000 DUP2 MSTORE PUSH1 0x4 ADD PUSH2 0x107D SWAP2 SWAP1 PUSH2 0x1AE6 JUMP JUMPDEST PUSH1 0x40 MLOAD DUP1 SWAP2 SUB SWAP1 REVERT JUMPDEST PUSH0 PUSH20 0xFFFFFFFFFFFFFFFFFFFFFFFFFFFFFFFFFFFFFFFF AND DUP4 PUSH20 0xFFFFFFFFFFFFFFFFFFFFFFFFFFFFFFFFFFFFFFFF AND SUB PUSH2 0x10F6 JUMPI PUSH0 PUSH1 0x40 MLOAD PUSH32 0x94280D6200000000000000000000000000000000000000000000000000000000 DUP2 MSTORE PUSH1 0x4 ADD PUSH2 0x10ED SWAP2 SWAP1 PUSH2 0x1AE6 JUMP JUMPDEST PUSH1 0x40 MLOAD DUP1 SWAP2 SUB SWAP1 REVERT JUMPDEST DUP2 PUSH1 0x1 PUSH0 DUP7 PUSH20 0xFFFFFFFFFFFFFFFFFFFFFFFFFFFFFFFFFFFFFFFF AND PUSH20 0xFFFFFFFFFFFFFFFFFFFFFFFFFFFFFFFFFFFFFFFF AND DUP2 MSTORE PUSH1 0x20 ADD SWAP1 DUP2 MSTORE PUSH1 0x20 ADD PUSH0 KECCAK256 PUSH0 DUP6 PUSH20 0xFFFFFFFFFFFFFFFFFFFFFFFFFFFFFFFFFFFFFFFF AND PUSH20 0xFFFFFFFFFFFFFFFFFFFFFFFFFFFFFFFFFFFFFFFF AND DUP2 MSTORE PUSH1 0x20 ADD SWAP1 DUP2 MSTORE PUSH1 0x20 ADD PUSH0 KECCAK256 DUP2 SWAP1 SSTORE POP DUP1 ISZERO PUSH2 0x11DF JUMPI DUP3 PUSH20 0xFFFFFFFFFFFFFFFFFFFFFFFFFFFFFFFFFFFFFFFF AND DUP5 PUSH20 0xFFFFFFFFFFFFFFFFFFFFFFFFFFFFFFFFFFFFFFFF AND PUSH32 0x8C5BE1E5EBEC7D5BD14F71427D1E84F3DD0314C0F7B2291E5B200AC8C7C3B925 DUP5 PUSH1 0x40 MLOAD PUSH2 0x11D6 SWAP2 SWAP1 PUSH2 0x149F JUMP JUMPDEST PUSH1 0x40 MLOAD DUP1 SWAP2 SUB SWAP1 LOG3 JUMPDEST POP POP POP POP JUMP JUMPDEST PUSH0 PUSH20 0xFFFFFFFFFFFFFFFFFFFFFFFFFFFFFFFFFFFFFFFF AND DUP4 PUSH20 0xFFFFFFFFFFFFFFFFFFFFFFFFFFFFFFFFFFFFFFFF AND SUB PUSH2 0x1235 JUMPI DUP1 PUSH1 0x2 PUSH0 DUP3 DUP3 SLOAD PUSH2 0x1229 SWAP2 SWAP1 PUSH2 0x1B34 JUMP JUMPDEST SWAP3 POP POP DUP2 SWAP1 SSTORE POP PUSH2 0x1303 JUMP JUMPDEST PUSH0 DUP1 PUSH0 DUP6 PUSH20 0xFFFFFFFFFFFFFFFFFFFFFFFFFFFFFFFFFFFFFFFF AND PUSH20 0xFFFFFFFFFFFFFFFFFFFFFFFFFFFFFFFFFFFFFFFF AND DUP2 MSTORE PUSH1 0x20 ADD SWAP1 DUP2 MSTORE PUSH1 0x20 ADD PUSH0 KECCAK256 SLOAD SWAP1 POP DUP2 DUP2 LT ISZERO PUSH2 0x12BE JUMPI DUP4 DUP2 DUP4 PUSH1 0x40 MLOAD PUSH32 0xE450D38C00000000000000000000000000000000000000000000000000000000 DUP2 MSTORE PUSH1 0x4 ADD PUSH2 0x12B5 SWAP4 SWAP3 SWAP2 SWAP1 PUSH2 0x1AFF JUMP JUMPDEST PUSH1 0x40 MLOAD DUP1 SWAP2 SUB SWAP1 REVERT JUMPDEST DUP2 DUP2 SUB PUSH0 DUP1 DUP7 PUSH20 0xFFFFFFFFFFFFFFFFFFFFFFFFFFFFFFFFFFFFFFFF AND PUSH20 0xFFFFFFFFFFFFFFFFFFFFFFFFFFFFFFFFFFFFFFFF AND DUP2 MSTORE PUSH1 0x20 ADD SWAP1 DUP2 MSTORE PUSH1 0x20 ADD PUSH0 KECCAK256 DUP2 SWAP1 SSTORE POP POP JUMPDEST PUSH0 PUSH20 0xFFFFFFFFFFFFFFFFFFFFFFFFFFFFFFFFFFFFFFFF AND DUP3 PUSH20 0xFFFFFFFFFFFFFFFFFFFFFFFFFFFFFFFFFFFFFFFF AND SUB PUSH2 0x134A JUMPI DUP1 PUSH1 0x2 PUSH0 DUP3 DUP3 SLOAD SUB SWAP3 POP POP DUP2 SWAP1 SSTORE POP PUSH2 0x1394 JUMP JUMPDEST DUP1 PUSH0 DUP1 DUP5 PUSH20 0xFFFFFFFFFFFFFFFFFFFFFFFFFFFFFFFFFFFFFFFF AND PUSH20 0xFFFFFFFFFFFFFFFFFFFFFFFFFFFFFFFFFFFFFFFF AND DUP2 MSTORE PUSH1 0x20 ADD SWAP1 DUP2 MSTORE PUSH1 0x20 ADD PUSH0 KECCAK256 PUSH0 DUP3 DUP3 SLOAD ADD SWAP3 POP POP DUP2 SWAP1 SSTORE POP JUMPDEST DUP2 PUSH20 0xFFFFFFFFFFFFFFFFFFFFFFFFFFFFFFFFFFFFFFFF AND DUP4 PUSH20 0xFFFFFFFFFFFFFFFFFFFFFFFFFFFFFFFFFFFFFFFF AND PUSH32 0xDDF252AD1BE2C89B69C2B068FC378DAA952BA7F163C4A11628F55A4DF523B3EF DUP4 PUSH1 0x40 MLOAD PUSH2 0x13F1 SWAP2 SWAP1 PUSH2 0x149F JUMP JUMPDEST PUSH1 0x40 MLOAD DUP1 SWAP2 SUB SWAP1 LOG3 POP POP POP JUMP JUMPDEST PUSH0 DUP1 REVERT JUMPDEST PUSH0 PUSH20 0xFFFFFFFFFFFFFFFFFFFFFFFFFFFFFFFFFFFFFFFF DUP3 AND SWAP1 POP SWAP2 SWAP1 POP JUMP JUMPDEST PUSH0 PUSH2 0x142B DUP3 PUSH2 0x1402 JUMP JUMPDEST SWAP1 POP SWAP2 SWAP1 POP JUMP JUMPDEST PUSH2 0x143B DUP2 PUSH2 0x1421 JUMP JUMPDEST DUP2 EQ PUSH2 0x1445 JUMPI PUSH0 DUP1 REVERT JUMPDEST POP JUMP JUMPDEST PUSH0 DUP2 CALLDATALOAD SWAP1 POP PUSH2 0x1456 DUP2 PUSH2 0x1432 JUMP JUMPDEST SWAP3 SWAP2 POP POP JUMP JUMPDEST PUSH0 PUSH1 0x20 DUP3 DUP5 SUB SLT ISZERO PUSH2 0x1471 JUMPI PUSH2 0x1470 PUSH2 0x13FE JUMP JUMPDEST JUMPDEST PUSH0 PUSH2 0x147E DUP5 DUP3 DUP6 ADD PUSH2 0x1448 JUMP JUMPDEST SWAP2 POP POP SWAP3 SWAP2 POP POP JUMP JUMPDEST PUSH0 DUP2 SWAP1 POP SWAP2 SWAP1 POP JUMP JUMPDEST PUSH2 0x1499 DUP2 PUSH2 0x1487 JUMP JUMPDEST DUP3 MSTORE POP POP JUMP JUMPDEST PUSH0 PUSH1 0x20 DUP3 ADD SWAP1 POP PUSH2 0x14B2 PUSH0 DUP4 ADD DUP5 PUSH2 0x1490 JUMP JUMPDEST SWAP3 SWAP2 POP POP JUMP JUMPDEST PUSH0 DUP2 MLOAD SWAP1 POP SWAP2 SWAP1 POP JUMP JUMPDEST PUSH0 DUP3 DUP3 MSTORE PUSH1 0x20 DUP3 ADD SWAP1 POP SWAP3 SWAP2 POP POP JUMP JUMPDEST DUP3 DUP2 DUP4 MCOPY PUSH0 DUP4 DUP4 ADD MSTORE POP POP POP JUMP JUMPDEST PUSH0 PUSH1 0x1F NOT PUSH1 0x1F DUP4 ADD AND SWAP1 POP SWAP2 SWAP1 POP JUMP JUMPDEST PUSH0 PUSH2 0x14FA DUP3 PUSH2 0x14B8 JUMP JUMPDEST PUSH2 0x1504 DUP2 DUP6 PUSH2 0x14C2 JUMP JUMPDEST SWAP4 POP PUSH2 0x1514 DUP2 DUP6 PUSH1 0x20 DUP7 ADD PUSH2 0x14D2 JUMP JUMPDEST PUSH2 0x151D DUP2 PUSH2 0x14E0 JUMP JUMPDEST DUP5 ADD SWAP2 POP POP SWAP3 SWAP2 POP POP JUMP JUMPDEST PUSH0 PUSH1 0x20 DUP3 ADD SWAP1 POP DUP2 DUP2 SUB PUSH0 DUP4 ADD MSTORE PUSH2 0x1540 DUP2 DUP5 PUSH2 0x14F0 JUMP JUMPDEST SWAP1 POP SWAP3 SWAP2 POP POP JUMP JUMPDEST PUSH2 0x1551 DUP2 PUSH2 0x1487 JUMP JUMPDEST DUP2 EQ PUSH2 0x155B JUMPI PUSH0 DUP1 REVERT JUMPDEST POP JUMP JUMPDEST PUSH0 DUP2 CALLDATALOAD SWAP1 POP PUSH2 0x156C DUP2 PUSH2 0x1548 JUMP JUMPDEST SWAP3 SWAP2 POP POP JUMP JUMPDEST PUSH0 DUP1 PUSH1 0x40 DUP4 DUP6 SUB SLT ISZERO PUSH2 0x1588 JUMPI PUSH2 0x1587 PUSH2 0x13FE JUMP JUMPDEST JUMPDEST PUSH0 PUSH2 0x1595 DUP6 DUP3 DUP7 ADD PUSH2 0x1448 JUMP JUMPDEST SWAP3 POP POP PUSH1 0x20 PUSH2 0x15A6 DUP6 DUP3 DUP7 ADD PUSH2 0x155E JUMP JUMPDEST SWAP2 POP POP SWAP3 POP SWAP3 SWAP1 POP JUMP JUMPDEST PUSH0 DUP2 ISZERO ISZERO SWAP1 POP SWAP2 SWAP1 POP JUMP JUMPDEST PUSH2 0x15C4 DUP2 PUSH2 0x15B0 JUMP JUMPDEST DUP3 MSTORE POP POP JUMP JUMPDEST PUSH0 PUSH1 0x20 DUP3 ADD SWAP1 POP PUSH2 0x15DD PUSH0 DUP4 ADD DUP5 PUSH2 0x15BB JUMP JUMPDEST SWAP3 SWAP2 POP POP JUMP JUMPDEST PUSH0 PUSH1 0x20 DUP3 DUP5 SUB SLT ISZERO PUSH2 0x15F8 JUMPI PUSH2 0x15F7 PUSH2 0x13FE JUMP JUMPDEST JUMPDEST PUSH0 PUSH2 0x1605 DUP5 DUP3 DUP6 ADD PUSH2 0x155E JUMP JUMPDEST SWAP2 POP POP SWAP3 SWAP2 POP POP JUMP JUMPDEST PUSH0 DUP1 PUSH0 PUSH1 0x60 DUP5 DUP7 SUB SLT ISZERO PUSH2 0x1625 JUMPI PUSH2 0x1624 PUSH2 0x13FE JUMP JUMPDEST JUMPDEST PUSH0 PUSH2 0x1632 DUP7 DUP3 DUP8 ADD PUSH2 0x1448 JUMP JUMPDEST SWAP4 POP POP PUSH1 0x20 PUSH2 0x1643 DUP7 DUP3 DUP8 ADD PUSH2 0x1448 JUMP JUMPDEST SWAP3 POP POP PUSH1 0x40 PUSH2 0x1654 DUP7 DUP3 DUP8 ADD PUSH2 0x155E JUMP JUMPDEST SWAP2 POP POP SWAP3 POP SWAP3 POP SWAP3 JUMP JUMPDEST PUSH0 PUSH1 0xFF DUP3 AND SWAP1 POP SWAP2 SWAP1 POP JUMP JUMPDEST PUSH2 0x1673 DUP2 PUSH2 0x165E JUMP JUMPDEST DUP3 MSTORE POP POP JUMP JUMPDEST PUSH0 PUSH1 0x20 DUP3 ADD SWAP1 POP PUSH2 0x168C PUSH0 DUP4 ADD DUP5 PUSH2 0x166A JUMP JUMPDEST SWAP3 SWAP2 POP POP JUMP JUMPDEST PUSH0 DUP2 MLOAD SWAP1 POP SWAP2 SWAP1 POP JUMP JUMPDEST PUSH0 DUP3 DUP3 MSTORE PUSH1 0x20 DUP3 ADD SWAP1 POP SWAP3 SWAP2 POP POP JUMP JUMPDEST PUSH0 DUP2 SWAP1 POP PUSH1 0x20 DUP3 ADD SWAP1 POP SWAP2 SWAP1 POP JUMP JUMPDEST PUSH2 0x16C4 DUP2 PUSH2 0x1421 JUMP JUMPDEST DUP3 MSTORE POP POP JUMP JUMPDEST PUSH0 PUSH2 0x16D5 DUP4 DUP4 PUSH2 0x16BB JUMP JUMPDEST PUSH1 0x20 DUP4 ADD SWAP1 POP SWAP3 SWAP2 POP POP JUMP JUMPDEST PUSH0 PUSH1 0x20 DUP3 ADD SWAP1 POP SWAP2 SWAP1 POP JUMP JUMPDEST PUSH0 PUSH2 0x16F7 DUP3 PUSH2 0x1692 JUMP JUMPDEST PUSH2 0x1701 DUP2 DUP6 PUSH2 0x169C JUMP JUMPDEST SWAP4 POP PUSH2 0x170C DUP4 PUSH2 0x16AC JUMP JUMPDEST DUP1 PUSH0 JUMPDEST DUP4 DUP2 LT ISZERO PUSH2 0x173C JUMPI DUP2 MLOAD PUSH2 0x1723 DUP9 DUP3 PUSH2 0x16CA JUMP JUMPDEST SWAP8 POP PUSH2 0x172E DUP4 PUSH2 0x16E1 JUMP JUMPDEST SWAP3 POP POP PUSH1 0x1 DUP2 ADD SWAP1 POP PUSH2 0x170F JUMP JUMPDEST POP DUP6 SWAP4 POP POP POP POP SWAP3 SWAP2 POP POP JUMP JUMPDEST PUSH0 PUSH1 0x20 DUP3 ADD SWAP1 POP DUP2 DUP2 SUB PUSH0 DUP4 ADD MSTORE PUSH2 0x1761 DUP2 DUP5 PUSH2 0x16ED JUMP JUMPDEST SWAP1 POP SWAP3 SWAP2 POP POP JUMP JUMPDEST PUSH0 DUP1 PUSH1 0x40 DUP4 DUP6 SUB SLT ISZERO PUSH2 0x177F JUMPI PUSH2 0x177E PUSH2 0x13FE JUMP JUMPDEST JUMPDEST PUSH0 PUSH2 0x178C DUP6 DUP3 DUP7 ADD PUSH2 0x1448 JUMP JUMPDEST SWAP3 POP POP PUSH1 0x20 PUSH2 0x179D DUP6 DUP3 DUP7 ADD PUSH2 0x1448 JUMP JUMPDEST SWAP2 POP POP SWAP3 POP SWAP3 SWAP1 POP JUMP JUMPDEST PUSH32 0x4E487B7100000000000000000000000000000000000000000000000000000000 PUSH0 MSTORE PUSH1 0x22 PUSH1 0x4 MSTORE PUSH1 0x24 PUSH0 REVERT JUMPDEST PUSH0 PUSH1 0x2 DUP3 DIV SWAP1 POP PUSH1 0x1 DUP3 AND DUP1 PUSH2 0x17EB JUMPI PUSH1 0x7F DUP3 AND SWAP2 POP JUMPDEST PUSH1 0x20 DUP3 LT DUP2 SUB PUSH2 0x17FE JUMPI PUSH2 0x17FD PUSH2 0x17A7 JUMP JUMPDEST JUMPDEST POP SWAP2 SWAP1 POP JUMP JUMPDEST PUSH32 0x4E6F74206F776E65722100000000000000000000000000000000000000000000 PUSH0 DUP3 ADD MSTORE POP JUMP JUMPDEST PUSH0 PUSH2 0x1838 PUSH1 0xA DUP4 PUSH2 0x14C2 JUMP JUMPDEST SWAP2 POP PUSH2 0x1843 DUP3 PUSH2 0x1804 JUMP JUMPDEST PUSH1 0x20 DUP3 ADD SWAP1 POP SWAP2 SWAP1 POP JUMP JUMPDEST PUSH0 PUSH1 0x20 DUP3 ADD SWAP1 POP DUP2 DUP2 SUB PUSH0 DUP4 ADD MSTORE PUSH2 0x1865 DUP2 PUSH2 0x182C JUMP JUMPDEST SWAP1 POP SWAP2 SWAP1 POP JUMP JUMPDEST PUSH32 0x4E487B7100000000000000000000000000000000000000000000000000000000 PUSH0 MSTORE PUSH1 0x11 PUSH1 0x4 MSTORE PUSH1 0x24 PUSH0 REVERT JUMPDEST PUSH0 PUSH2 0x18A3 DUP3 PUSH2 0x1487 JUMP JUMPDEST SWAP2 POP PUSH2 0x18AE DUP4 PUSH2 0x1487 JUMP JUMPDEST SWAP3 POP DUP3 DUP3 MUL PUSH2 0x18BC DUP2 PUSH2 0x1487 JUMP JUMPDEST SWAP2 POP DUP3 DUP3 DIV DUP5 EQ DUP4 ISZERO OR PUSH2 0x18D3 JUMPI PUSH2 0x18D2 PUSH2 0x186C JUMP JUMPDEST JUMPDEST POP SWAP3 SWAP2 POP POP JUMP JUMPDEST PUSH32 0x41646472657373207A65726F206E6F7420616C6C6F7765642100000000000000 PUSH0 DUP3 ADD MSTORE POP JUMP JUMPDEST PUSH0 PUSH2 0x190E PUSH1 0x19 DUP4 PUSH2 0x14C2 JUMP JUMPDEST SWAP2 POP PUSH2 0x1919 DUP3 PUSH2 0x18DA JUMP JUMPDEST PUSH1 0x20 DUP3 ADD SWAP1 POP SWAP2 SWAP1 POP JUMP JUMPDEST PUSH0 PUSH1 0x20 DUP3 ADD SWAP1 POP DUP2 DUP2 SUB PUSH0 DUP4 ADD MSTORE PUSH2 0x193B DUP2 PUSH2 0x1902 JUMP JUMPDEST SWAP1 POP SWAP2 SWAP1 POP JUMP JUMPDEST PUSH32 0x4164647265737320436C61696D65642100000000000000000000000000000000 PUSH0 DUP3 ADD MSTORE POP JUMP JUMPDEST PUSH0 PUSH2 0x1976 PUSH1 0x10 DUP4 PUSH2 0x14C2 JUMP JUMPDEST SWAP2 POP PUSH2 0x1981 DUP3 PUSH2 0x1942 JUMP JUMPDEST PUSH1 0x20 DUP3 ADD SWAP1 POP SWAP2 SWAP1 POP JUMP JUMPDEST PUSH0 PUSH1 0x20 DUP3 ADD SWAP1 POP DUP2 DUP2 SUB PUSH0 DUP4 ADD MSTORE PUSH2 0x19A3 DUP2 PUSH2 0x196A JUMP JUMPDEST SWAP1 POP SWAP2 SWAP1 POP JUMP JUMPDEST PUSH32 0x546F6B656E206E6F7420656E6F75676821000000000000000000000000000000 PUSH0 DUP3 ADD MSTORE POP JUMP JUMPDEST PUSH0 PUSH2 0x19DE PUSH1 0x11 DUP4 PUSH2 0x14C2 JUMP JUMPDEST SWAP2 POP PUSH2 0x19E9 DUP3 PUSH2 0x19AA JUMP JUMPDEST PUSH1 0x20 DUP3 ADD SWAP1 POP SWAP2 SWAP1 POP JUMP JUMPDEST PUSH0 PUSH1 0x20 DUP3 ADD SWAP1 POP DUP2 DUP2 SUB PUSH0 DUP4 ADD MSTORE PUSH2 0x1A0B DUP2 PUSH2 0x19D2 JUMP JUMPDEST SWAP1 POP SWAP2 SWAP1 POP JUMP JUMPDEST PUSH32 0x4E487B7100000000000000000000000000000000000000000000000000000000 PUSH0 MSTORE PUSH1 0x12 PUSH1 0x4 MSTORE PUSH1 0x24 PUSH0 REVERT JUMPDEST PUSH0 PUSH2 0x1A49 DUP3 PUSH2 0x1487 JUMP JUMPDEST SWAP2 POP PUSH2 0x1A54 DUP4 PUSH2 0x1487 JUMP JUMPDEST SWAP3 POP DUP3 PUSH2 0x1A64 JUMPI PUSH2 0x1A63 PUSH2 0x1A12 JUMP JUMPDEST JUMPDEST DUP3 DUP3 DIV SWAP1 POP SWAP3 SWAP2 POP POP JUMP JUMPDEST PUSH32 0x546F6B656E206E6F7420456E6F75676821000000000000000000000000000000 PUSH0 DUP3 ADD MSTORE POP JUMP JUMPDEST PUSH0 PUSH2 0x1AA3 PUSH1 0x11 DUP4 PUSH2 0x14C2 JUMP JUMPDEST SWAP2 POP PUSH2 0x1AAE DUP3 PUSH2 0x1A6F JUMP JUMPDEST PUSH1 0x20 DUP3 ADD SWAP1 POP SWAP2 SWAP1 POP JUMP JUMPDEST PUSH0 PUSH1 0x20 DUP3 ADD SWAP1 POP DUP2 DUP2 SUB PUSH0 DUP4 ADD MSTORE PUSH2 0x1AD0 DUP2 PUSH2 0x1A97 JUMP JUMPDEST SWAP1 POP SWAP2 SWAP1 POP JUMP JUMPDEST PUSH2 0x1AE0 DUP2 PUSH2 0x1421 JUMP JUMPDEST DUP3 MSTORE POP POP JUMP JUMPDEST PUSH0 PUSH1 0x20 DUP3 ADD SWAP1 POP PUSH2 0x1AF9 PUSH0 DUP4 ADD DUP5 PUSH2 0x1AD7 JUMP JUMPDEST SWAP3 SWAP2 POP POP JUMP JUMPDEST PUSH0 PUSH1 0x60 DUP3 ADD SWAP1 POP PUSH2 0x1B12 PUSH0 DUP4 ADD DUP7 PUSH2 0x1AD7 JUMP JUMPDEST PUSH2 0x1B1F PUSH1 0x20 DUP4 ADD DUP6 PUSH2 0x1490 JUMP JUMPDEST PUSH2 0x1B2C PUSH1 0x40 DUP4 ADD DUP5 PUSH2 0x1490 JUMP JUMPDEST SWAP5 SWAP4 POP POP POP POP JUMP JUMPDEST PUSH0 PUSH2 0x1B3E DUP3 PUSH2 0x1487 JUMP JUMPDEST SWAP2 POP PUSH2 0x1B49 DUP4 PUSH2 0x1487 JUMP JUMPDEST SWAP3 POP DUP3 DUP3 ADD SWAP1 POP DUP1 DUP3 GT ISZERO PUSH2 0x1B61 JUMPI PUSH2 0x1B60 PUSH2 0x186C JUMP JUMPDEST JUMPDEST SWAP3 SWAP2 POP POP JUMP INVALID LOG2 PUSH5 0x6970667358 0x22 SLT KECCAK256 0xAC 0xF7 0x2C LOG3 CALLER 0xAC 0x27 0xC4 0xB1 LOG3 MUL GASLIMIT EQ SWAP8 0x2D 0xE6 0x2B 0xCD 0xC9 0x4B 0xF8 0xBD PUSH2 0xB97A 0x22 0xAF PUSH8 0xD3B0A98264736F6C PUSH4 0x4300081A STOP CALLER "
				},
				"gasEstimates": {
					"creation": {
						"codeDepositCost": "1413800",
						"executionCost": "infinite",
						"totalCost": "infinite"
					},
					"external": {
						"Balance(address)": "2960",
						"Burn(uint256)": "infinite",
						"Claim(address,uint256)": "infinite",
						"SenderEth()": "infinite",
						"addressBalnc(address)": "3271",
						"allowance(address,address)": "infinite",
						"approve(address,uint256)": "infinite",
						"balanceOf(address)": "2940",
						"decimals()": "361",
						"decimalsz()": "421",
						"flipClick(address,uint256)": "infinite",
						"gain(address,uint256)": "infinite",
						"name()": "infinite",
						"payContractGasFee()": "48739",
						"pumptit(uint256)": "infinite",
						"realTime(address)": "infinite",
						"symbol()": "infinite",
						"totalSupply()": "2544",
						"transfer(address,uint256)": "infinite",
						"transferFrom(address,address,uint256)": "infinite",
						"withDraw()": "infinite"
					}
				},
				"methodIdentifiers": {
					"Balance(address)": "239fcf0f",
					"Burn(uint256)": "b90306ad",
					"Claim(address,uint256)": "47cee97c",
					"SenderEth()": "c12019eb",
					"addressBalnc(address)": "06763788",
					"allowance(address,address)": "dd62ed3e",
					"approve(address,uint256)": "095ea7b3",
					"balanceOf(address)": "70a08231",
					"decimals()": "313ce567",
					"decimalsz()": "6d41b22c",
					"flipClick(address,uint256)": "21ba18a1",
					"gain(address,uint256)": "9fe5491c",
					"name()": "06fdde03",
					"payContractGasFee()": "20c63d56",
					"pumptit(uint256)": "1e548d7a",
					"realTime(address)": "6010b797",
					"symbol()": "95d89b41",
					"totalSupply()": "18160ddd",
					"transfer(address,uint256)": "a9059cbb",
					"transferFrom(address,address,uint256)": "23b872dd",
					"withDraw()": "0fdb1c10"
				}
			},
			"storageLayout": {
				"storage": [
					{
						"astId": 471,
						"contract": "contracts/flipit.sol:flipit",
						"label": "_balances",
						"offset": 0,
						"slot": "0",
						"type": "t_mapping(t_address,t_uint256)"
					},
					{
						"astId": 477,
						"contract": "contracts/flipit.sol:flipit",
						"label": "_allowances",
						"offset": 0,
						"slot": "1",
						"type": "t_mapping(t_address,t_mapping(t_address,t_uint256))"
					},
					{
						"astId": 479,
						"contract": "contracts/flipit.sol:flipit",
						"label": "_totalSupply",
						"offset": 0,
						"slot": "2",
						"type": "t_uint256"
					},
					{
						"astId": 481,
						"contract": "contracts/flipit.sol:flipit",
						"label": "_name",
						"offset": 0,
						"slot": "3",
						"type": "t_string_storage"
					},
					{
						"astId": 483,
						"contract": "contracts/flipit.sol:flipit",
						"label": "_symbol",
						"offset": 0,
						"slot": "4",
						"type": "t_string_storage"
					},
					{
						"astId": 6,
						"contract": "contracts/flipit.sol:flipit",
						"label": "_owner_",
						"offset": 0,
						"slot": "5",
						"type": "t_address"
					},
					{
						"astId": 13,
						"contract": "contracts/flipit.sol:flipit",
						"label": "contractAddress",
						"offset": 0,
						"slot": "6",
						"type": "t_address"
					},
					{
						"astId": 28,
						"contract": "contracts/flipit.sol:flipit",
						"label": "_senderEth",
						"offset": 0,
						"slot": "7",
						"type": "t_array(t_address)dyn_storage"
					}
				],
				"types": {
					"t_address": {
						"encoding": "inplace",
						"label": "address",
						"numberOfBytes": "20"
					},
					"t_array(t_address)dyn_storage": {
						"base": "t_address",
						"encoding": "dynamic_array",
						"label": "address[]",
						"numberOfBytes": "32"
					},
					"t_mapping(t_address,t_mapping(t_address,t_uint256))": {
						"encoding": "mapping",
						"key": "t_address",
						"label": "mapping(address => mapping(address => uint256))",
						"numberOfBytes": "32",
						"value": "t_mapping(t_address,t_uint256)"
					},
					"t_mapping(t_address,t_uint256)": {
						"encoding": "mapping",
						"key": "t_address",
						"label": "mapping(address => uint256)",
						"numberOfBytes": "32",
						"value": "t_uint256"
					},
					"t_string_storage": {
						"encoding": "bytes",
						"label": "string",
						"numberOfBytes": "32"
					},
					"t_uint256": {
						"encoding": "inplace",
						"label": "uint256",
						"numberOfBytes": "32"
					}
				}
			},
			"userdoc": {
				"kind": "user",
				"methods": {},
				"version": 1
			}
		}
	}
}