{
	"contracts/FizzBuzz.sol": {
		"FizzBuzz": {
			"abi": [
				{
					"inputs": [
						{
							"internalType": "uint256",
							"name": "time",
							"type": "uint256"
						}
					],
					"name": "AfterHours",
					"type": "error"
				},
				{
					"inputs": [
						{
							"internalType": "uint256",
							"name": "_time",
							"type": "uint256"
						}
					],
					"name": "doNotDisturb",
					"outputs": [
						{
							"internalType": "string",
							"name": "message",
							"type": "string"
						}
					],
					"stateMutability": "pure",
					"type": "function"
				},
				{
					"inputs": [
						{
							"internalType": "uint256",
							"name": "_number",
							"type": "uint256"
						}
					],
					"name": "fizzBuzz",
					"outputs": [
						{
							"internalType": "string",
							"name": "",
							"type": "string"
						}
					],
					"stateMutability": "pure",
					"type": "function"
				}
			],
			"devdoc": {
				"kind": "dev",
				"methods": {},
				"version": 1
			},
			"evm": {
				"assembly": "    /* \"contracts/FizzBuzz.sol\":56:1491  contract FizzBuzz{... */\n  mstore(0x40, 0x80)\n  callvalue\n  dup1\n  iszero\n  tag_1\n  jumpi\n  0x00\n  dup1\n  revert\ntag_1:\n  pop\n  dataSize(sub_0)\n  dup1\n  dataOffset(sub_0)\n  0x00\n  codecopy\n  0x00\n  return\nstop\n\nsub_0: assembly {\n        /* \"contracts/FizzBuzz.sol\":56:1491  contract FizzBuzz{... */\n      mstore(0x40, 0x80)\n      callvalue\n      dup1\n      iszero\n      tag_1\n      jumpi\n      0x00\n      dup1\n      revert\n    tag_1:\n      pop\n      jumpi(tag_2, lt(calldatasize, 0x04))\n      shr(0xe0, calldataload(0x00))\n      dup1\n      0x440c93e2\n      eq\n      tag_3\n      jumpi\n      dup1\n      0xe655b7bb\n      eq\n      tag_4\n      jumpi\n    tag_2:\n      0x00\n      dup1\n      revert\n        /* \"contracts/FizzBuzz.sol\":79:414  function fizzBuzz(uint _number) external pure returns (string memory ){... */\n    tag_3:\n      tag_5\n      tag_6\n      calldatasize\n      0x04\n      tag_7\n      jump\t// in\n    tag_6:\n      tag_8\n      jump\t// in\n    tag_5:\n      mload(0x40)\n      tag_9\n      swap2\n      swap1\n      tag_10\n      jump\t// in\n    tag_9:\n      mload(0x40)\n      dup1\n      swap2\n      sub\n      swap1\n      return\n        /* \"contracts/FizzBuzz.sol\":452:1489  function doNotDisturb(uint _time) public pure returns (string memory message){... */\n    tag_4:\n      tag_5\n      tag_12\n      calldatasize\n      0x04\n      tag_7\n      jump\t// in\n    tag_12:\n      tag_13\n      jump\t// in\n        /* \"contracts/FizzBuzz.sol\":79:414  function fizzBuzz(uint _number) external pure returns (string memory ){... */\n    tag_8:\n        /* \"contracts/FizzBuzz.sol\":134:147  string memory */\n      0x60\n        /* \"contracts/FizzBuzz.sol\":162:172  _number%15 */\n      tag_16\n        /* \"contracts/FizzBuzz.sol\":170:172  15 */\n      0x0f\n        /* \"contracts/FizzBuzz.sol\":162:169  _number */\n      dup4\n        /* \"contracts/FizzBuzz.sol\":162:172  _number%15 */\n      tag_17\n      jump\t// in\n    tag_16:\n        /* \"contracts/FizzBuzz.sol\":174:175  0 */\n      0x00\n        /* \"contracts/FizzBuzz.sol\":162:175  _number%15==0 */\n      sub\n        /* \"contracts/FizzBuzz.sol\":159:407  if(_number%15==0){... */\n      tag_18\n      jumpi\n      pop\n      pop\n        /* \"contracts/FizzBuzz.sol\":190:207  return \"FizzBuzz\" */\n      0x40\n      dup1\n      mload\n      dup1\n      dup3\n      add\n      swap1\n      swap2\n      mstore\n      0x08\n      dup2\n      mstore\n      shl(0xc1, 0x2334bd3d213abd3d)\n      0x20\n      dup3\n      add\n      mstore\n      swap1\n        /* \"contracts/FizzBuzz.sol\":79:414  function fizzBuzz(uint _number) external pure returns (string memory ){... */\n      jump\t// out\n        /* \"contracts/FizzBuzz.sol\":159:407  if(_number%15==0){... */\n    tag_18:\n        /* \"contracts/FizzBuzz.sol\":235:244  _number%3 */\n      tag_20\n        /* \"contracts/FizzBuzz.sol\":243:244  3 */\n      0x03\n        /* \"contracts/FizzBuzz.sol\":235:242  _number */\n      dup4\n        /* \"contracts/FizzBuzz.sol\":235:244  _number%3 */\n      tag_17\n      jump\t// in\n    tag_20:\n        /* \"contracts/FizzBuzz.sol\":246:247  0 */\n      0x00\n        /* \"contracts/FizzBuzz.sol\":235:247  _number%3==0 */\n      sub\n        /* \"contracts/FizzBuzz.sol\":232:407  if(_number%3==0) {... */\n      tag_21\n      jumpi\n      pop\n      pop\n        /* \"contracts/FizzBuzz.sol\":263:276  return \"Fizz\" */\n      0x40\n      dup1\n      mload\n      dup1\n      dup3\n      add\n      swap1\n      swap2\n      mstore\n      0x04\n      dup2\n      mstore\n      shl(0xe1, 0x2334bd3d)\n      0x20\n      dup3\n      add\n      mstore\n      swap1\n        /* \"contracts/FizzBuzz.sol\":79:414  function fizzBuzz(uint _number) external pure returns (string memory ){... */\n      jump\t// out\n        /* \"contracts/FizzBuzz.sol\":232:407  if(_number%3==0) {... */\n    tag_21:\n        /* \"contracts/FizzBuzz.sol\":304:313  _number%5 */\n      tag_23\n        /* \"contracts/FizzBuzz.sol\":312:313  5 */\n      0x05\n        /* \"contracts/FizzBuzz.sol\":304:311  _number */\n      dup4\n        /* \"contracts/FizzBuzz.sol\":304:313  _number%5 */\n      tag_17\n      jump\t// in\n    tag_23:\n        /* \"contracts/FizzBuzz.sol\":315:316  0 */\n      0x00\n        /* \"contracts/FizzBuzz.sol\":304:316  _number%5==0 */\n      sub\n        /* \"contracts/FizzBuzz.sol\":301:407  if(_number%5==0){... */\n      tag_24\n      jumpi\n      pop\n      pop\n        /* \"contracts/FizzBuzz.sol\":331:344  return \"Buzz\" */\n      0x40\n      dup1\n      mload\n      dup1\n      dup3\n      add\n      swap1\n      swap2\n      mstore\n      0x04\n      dup2\n      mstore\n      shl(0xe1, 0x213abd3d)\n      0x20\n      dup3\n      add\n      mstore\n      swap1\n        /* \"contracts/FizzBuzz.sol\":79:414  function fizzBuzz(uint _number) external pure returns (string memory ){... */\n      jump\t// out\n        /* \"contracts/FizzBuzz.sol\":301:407  if(_number%5==0){... */\n    tag_24:\n      pop\n      pop\n        /* \"contracts/FizzBuzz.sol\":382:396  return \"Splat\" */\n      0x40\n      dup1\n      mload\n      dup1\n      dup3\n      add\n      swap1\n      swap2\n      mstore\n      0x05\n      dup2\n      mstore\n      shl(0xda, 0x14dc1b185d)\n      0x20\n      dup3\n      add\n      mstore\n      swap1\n        /* \"contracts/FizzBuzz.sol\":79:414  function fizzBuzz(uint _number) external pure returns (string memory ){... */\n      jump\t// out\n        /* \"contracts/FizzBuzz.sol\":301:407  if(_number%5==0){... */\n    tag_25:\n        /* \"contracts/FizzBuzz.sol\":79:414  function fizzBuzz(uint _number) external pure returns (string memory ){... */\n      swap2\n      swap1\n      pop\n      jump\t// out\n        /* \"contracts/FizzBuzz.sol\":452:1489  function doNotDisturb(uint _time) public pure returns (string memory message){... */\n    tag_13:\n        /* \"contracts/FizzBuzz.sol\":507:528  string memory message */\n      0x60\n        /* \"contracts/FizzBuzz.sol\":939:943  2400 */\n      0x0960\n        /* \"contracts/FizzBuzz.sol\":933:938  _time */\n      dup3\n        /* \"contracts/FizzBuzz.sol\":933:943  _time<2400 */\n      lt\n        /* \"contracts/FizzBuzz.sol\":926:944  assert(_time<2400) */\n      tag_28\n      jumpi\n      tag_28\n      tag_29\n      jump\t// in\n    tag_28:\n        /* \"contracts/FizzBuzz.sol\":970:972  10 */\n      0x0a\n        /* \"contracts/FizzBuzz.sol\":963:968  _time */\n      dup3\n        /* \"contracts/FizzBuzz.sol\":963:972  _time>=10 */\n      lt\n      iszero\n        /* \"contracts/FizzBuzz.sol\":963:987  _time>=10 && _time<=1199 */\n      dup1\n      iszero\n      tag_30\n      jumpi\n      pop\n        /* \"contracts/FizzBuzz.sol\":983:987  1199 */\n      0x04af\n        /* \"contracts/FizzBuzz.sol\":976:981  _time */\n      dup3\n        /* \"contracts/FizzBuzz.sol\":976:987  _time<=1199 */\n      gt\n      iszero\n        /* \"contracts/FizzBuzz.sol\":963:987  _time>=10 && _time<=1199 */\n    tag_30:\n        /* \"contracts/FizzBuzz.sol\":963:1017  _time>=10 && _time<=1199 || _time>=1300 && _time<=2399 */\n      dup1\n      tag_32\n      jumpi\n      pop\n        /* \"contracts/FizzBuzz.sol\":998:1002  1300 */\n      0x0514\n        /* \"contracts/FizzBuzz.sol\":991:996  _time */\n      dup3\n        /* \"contracts/FizzBuzz.sol\":991:1002  _time>=1300 */\n      lt\n      iszero\n        /* \"contracts/FizzBuzz.sol\":991:1017  _time>=1300 && _time<=2399 */\n      dup1\n      iszero\n      tag_32\n      jumpi\n      pop\n        /* \"contracts/FizzBuzz.sol\":1013:1017  2399 */\n      0x095f\n        /* \"contracts/FizzBuzz.sol\":1006:1011  _time */\n      dup3\n        /* \"contracts/FizzBuzz.sol\":1006:1017  _time<=2399 */\n      gt\n      iszero\n        /* \"contracts/FizzBuzz.sol\":991:1017  _time>=1300 && _time<=2399 */\n    tag_32:\n        /* \"contracts/FizzBuzz.sol\":954:1031  require( _time>=10 && _time<=1199 || _time>=1300 && _time<=2399, \"At lunch!\") */\n      tag_33\n      jumpi\n      mload(0x40)\n      shl(0xe5, 0x461bcd)\n      dup2\n      mstore\n        /* \"#utility.yul\":1170:1172   */\n      0x20\n        /* \"contracts/FizzBuzz.sol\":954:1031  require( _time>=10 && _time<=1199 || _time>=1300 && _time<=2399, \"At lunch!\") */\n      0x04\n      dup3\n      add\n        /* \"#utility.yul\":1152:1173   */\n      mstore\n        /* \"#utility.yul\":1209:1210   */\n      0x09\n        /* \"#utility.yul\":1189:1207   */\n      0x24\n      dup3\n      add\n        /* \"#utility.yul\":1182:1211   */\n      mstore\n      shl(0xb8, 0x4174206c756e636821)\n        /* \"#utility.yul\":1227:1245   */\n      0x44\n      dup3\n      add\n        /* \"#utility.yul\":1220:1259   */\n      mstore\n        /* \"#utility.yul\":1276:1294   */\n      0x64\n      add\n        /* \"contracts/FizzBuzz.sol\":954:1031  require( _time>=10 && _time<=1199 || _time>=1300 && _time<=2399, \"At lunch!\") */\n    tag_34:\n      mload(0x40)\n      dup1\n      swap2\n      sub\n      swap1\n      revert\n    tag_33:\n        /* \"contracts/FizzBuzz.sol\":1052:1055  800 */\n      0x0320\n        /* \"contracts/FizzBuzz.sol\":1044:1049  _time */\n      dup3\n        /* \"contracts/FizzBuzz.sol\":1044:1055  _time < 800 */\n      lt\n        /* \"contracts/FizzBuzz.sol\":1044:1069  _time < 800 || _time>2200 */\n      dup1\n      tag_36\n      jumpi\n      pop\n        /* \"contracts/FizzBuzz.sol\":1065:1069  2200 */\n      0x0898\n        /* \"contracts/FizzBuzz.sol\":1059:1064  _time */\n      dup3\n        /* \"contracts/FizzBuzz.sol\":1059:1069  _time>2200 */\n      gt\n        /* \"contracts/FizzBuzz.sol\":1044:1069  _time < 800 || _time>2200 */\n    tag_36:\n        /* \"contracts/FizzBuzz.sol\":1041:1119  if(_time < 800 || _time>2200){... */\n      iszero\n      tag_37\n      jumpi\n        /* \"contracts/FizzBuzz.sol\":1091:1108  AfterHours(_time) */\n      mload(0x40)\n      shl(0xe1, 0x525fb80f)\n      dup2\n      mstore\n      0x04\n      dup2\n      add\n        /* \"#utility.yul\":1451:1476   */\n      dup4\n      swap1\n      mstore\n        /* \"#utility.yul\":1424:1442   */\n      0x24\n      add\n        /* \"contracts/FizzBuzz.sol\":1091:1108  AfterHours(_time) */\n      tag_34\n        /* \"#utility.yul\":1305:1482   */\n      jump\n        /* \"contracts/FizzBuzz.sol\":1041:1119  if(_time < 800 || _time>2200){... */\n    tag_37:\n        /* \"contracts/FizzBuzz.sol\":1140:1143  800 */\n      0x0320\n        /* \"contracts/FizzBuzz.sol\":1133:1138  _time */\n      dup3\n        /* \"contracts/FizzBuzz.sol\":1133:1143  _time>=800 */\n      lt\n      iszero\n        /* \"contracts/FizzBuzz.sol\":1132:1163  (_time>=800) && (_time <= 1199) */\n      dup1\n      iszero\n      tag_40\n      jumpi\n      pop\n        /* \"contracts/FizzBuzz.sol\":1158:1162  1199 */\n      0x04af\n        /* \"contracts/FizzBuzz.sol\":1149:1154  _time */\n      dup3\n        /* \"contracts/FizzBuzz.sol\":1149:1162  _time <= 1199 */\n      gt\n      iszero\n        /* \"contracts/FizzBuzz.sol\":1132:1163  (_time>=800) && (_time <= 1199) */\n    tag_40:\n        /* \"contracts/FizzBuzz.sol\":1128:1481  if ((_time>=800) && (_time <= 1199)){... */\n      iszero\n      tag_41\n      jumpi\n      pop\n      pop\n        /* \"contracts/FizzBuzz.sol\":1178:1197  message =\"Morning!\" */\n      0x40\n      dup1\n      mload\n      dup1\n      dup3\n      add\n      swap1\n      swap2\n      mstore\n      0x08\n      dup2\n      mstore\n      shl(0xc0, 0x4d6f726e696e6721)\n      0x20\n      dup3\n      add\n      mstore\n      swap1\n        /* \"contracts/FizzBuzz.sol\":452:1489  function doNotDisturb(uint _time) public pure returns (string memory message){... */\n      jump\t// out\n        /* \"contracts/FizzBuzz.sol\":1128:1481  if ((_time>=800) && (_time <= 1199)){... */\n    tag_41:\n        /* \"contracts/FizzBuzz.sol\":1261:1265  1300 */\n      0x0514\n        /* \"contracts/FizzBuzz.sol\":1254:1259  _time */\n      dup3\n        /* \"contracts/FizzBuzz.sol\":1254:1265  _time>=1300 */\n      lt\n      iszero\n        /* \"contracts/FizzBuzz.sol\":1253:1283  (_time>=1300) && (_time<=1799) */\n      dup1\n      iszero\n      tag_43\n      jumpi\n      pop\n        /* \"contracts/FizzBuzz.sol\":1278:1282  1799 */\n      0x0707\n        /* \"contracts/FizzBuzz.sol\":1271:1276  _time */\n      dup3\n        /* \"contracts/FizzBuzz.sol\":1271:1282  _time<=1799 */\n      gt\n      iszero\n        /* \"contracts/FizzBuzz.sol\":1253:1283  (_time>=1300) && (_time<=1799) */\n    tag_43:\n        /* \"contracts/FizzBuzz.sol\":1250:1481  if((_time>=1300) && (_time<=1799)){... */\n      iszero\n      tag_44\n      jumpi\n      pop\n      pop\n        /* \"contracts/FizzBuzz.sol\":1298:1319  message =\"Afternoon!\" */\n      0x40\n      dup1\n      mload\n      dup1\n      dup3\n      add\n      swap1\n      swap2\n      mstore\n      0x0a\n      dup2\n      mstore\n      shl(0xb0, 0x41667465726e6f6f6e21)\n      0x20\n      dup3\n      add\n      mstore\n      swap1\n        /* \"contracts/FizzBuzz.sol\":452:1489  function doNotDisturb(uint _time) public pure returns (string memory message){... */\n      jump\t// out\n        /* \"contracts/FizzBuzz.sol\":1250:1481  if((_time>=1300) && (_time<=1799)){... */\n    tag_44:\n        /* \"contracts/FizzBuzz.sol\":1385:1389  1800 */\n      0x0708\n        /* \"contracts/FizzBuzz.sol\":1378:1383  _time */\n      dup3\n        /* \"contracts/FizzBuzz.sol\":1378:1389  _time>=1800 */\n      lt\n      iszero\n        /* \"contracts/FizzBuzz.sol\":1377:1407  (_time>=1800) && (_time<=2200) */\n      dup1\n      iszero\n      tag_46\n      jumpi\n      pop\n        /* \"contracts/FizzBuzz.sol\":1402:1406  2200 */\n      0x0898\n        /* \"contracts/FizzBuzz.sol\":1395:1400  _time */\n      dup3\n        /* \"contracts/FizzBuzz.sol\":1395:1406  _time<=2200 */\n      gt\n      iszero\n        /* \"contracts/FizzBuzz.sol\":1377:1407  (_time>=1800) && (_time<=2200) */\n    tag_46:\n        /* \"contracts/FizzBuzz.sol\":1373:1481  if ((_time>=1800) && (_time<=2200)){... */\n      iszero\n      tag_25\n      jumpi\n      pop\n      pop\n        /* \"contracts/FizzBuzz.sol\":1422:1441  message =\"Evening!\" */\n      0x40\n      dup1\n      mload\n      dup1\n      dup3\n      add\n      swap1\n      swap2\n      mstore\n      0x08\n      dup2\n      mstore\n      shl(0xc0, 0x4576656e696e6721)\n      0x20\n      dup3\n      add\n      mstore\n      swap1\n        /* \"contracts/FizzBuzz.sol\":452:1489  function doNotDisturb(uint _time) public pure returns (string memory message){... */\n      jump\t// out\n        /* \"#utility.yul\":14:194   */\n    tag_7:\n        /* \"#utility.yul\":73:79   */\n      0x00\n        /* \"#utility.yul\":126:128   */\n      0x20\n        /* \"#utility.yul\":114:123   */\n      dup3\n        /* \"#utility.yul\":105:112   */\n      dup5\n        /* \"#utility.yul\":101:124   */\n      sub\n        /* \"#utility.yul\":97:129   */\n      slt\n        /* \"#utility.yul\":94:146   */\n      iszero\n      tag_50\n      jumpi\n        /* \"#utility.yul\":142:143   */\n      0x00\n        /* \"#utility.yul\":139:140   */\n      dup1\n        /* \"#utility.yul\":132:144   */\n      revert\n        /* \"#utility.yul\":94:146   */\n    tag_50:\n      pop\n        /* \"#utility.yul\":165:188   */\n      calldataload\n      swap2\n        /* \"#utility.yul\":14:194   */\n      swap1\n      pop\n      jump\t// out\n        /* \"#utility.yul\":199:617   */\n    tag_10:\n        /* \"#utility.yul\":348:350   */\n      0x20\n        /* \"#utility.yul\":337:346   */\n      dup2\n        /* \"#utility.yul\":330:351   */\n      mstore\n        /* \"#utility.yul\":311:315   */\n      0x00\n        /* \"#utility.yul\":380:386   */\n      dup3\n        /* \"#utility.yul\":374:387   */\n      mload\n        /* \"#utility.yul\":423:429   */\n      dup1\n        /* \"#utility.yul\":418:420   */\n      0x20\n        /* \"#utility.yul\":407:416   */\n      dup5\n        /* \"#utility.yul\":403:421   */\n      add\n        /* \"#utility.yul\":396:430   */\n      mstore\n        /* \"#utility.yul\":482:488   */\n      dup1\n        /* \"#utility.yul\":477:479   */\n      0x20\n        /* \"#utility.yul\":469:475   */\n      dup6\n        /* \"#utility.yul\":465:480   */\n      add\n        /* \"#utility.yul\":460:462   */\n      0x40\n        /* \"#utility.yul\":449:458   */\n      dup6\n        /* \"#utility.yul\":445:463   */\n      add\n        /* \"#utility.yul\":439:489   */\n      mcopy\n        /* \"#utility.yul\":538:539   */\n      0x00\n        /* \"#utility.yul\":533:535   */\n      0x40\n        /* \"#utility.yul\":524:530   */\n      dup3\n        /* \"#utility.yul\":513:522   */\n      dup6\n        /* \"#utility.yul\":509:531   */\n      add\n        /* \"#utility.yul\":505:536   */\n      add\n        /* \"#utility.yul\":498:540   */\n      mstore\n        /* \"#utility.yul\":608:610   */\n      0x40\n        /* \"#utility.yul\":601:603   */\n      0x1f\n        /* \"#utility.yul\":597:604   */\n      not\n        /* \"#utility.yul\":592:594   */\n      0x1f\n        /* \"#utility.yul\":584:590   */\n      dup4\n        /* \"#utility.yul\":580:595   */\n      add\n        /* \"#utility.yul\":576:605   */\n      and\n        /* \"#utility.yul\":565:574   */\n      dup5\n        /* \"#utility.yul\":561:606   */\n      add\n        /* \"#utility.yul\":557:611   */\n      add\n        /* \"#utility.yul\":549:611   */\n      swap2\n      pop\n      pop\n        /* \"#utility.yul\":199:617   */\n      swap3\n      swap2\n      pop\n      pop\n      jump\t// out\n        /* \"#utility.yul\":622:831   */\n    tag_17:\n        /* \"#utility.yul\":654:655   */\n      0x00\n        /* \"#utility.yul\":680:681   */\n      dup3\n        /* \"#utility.yul\":670:802   */\n      tag_53\n      jumpi\n        /* \"#utility.yul\":724:734   */\n      0x4e487b71\n        /* \"#utility.yul\":719:722   */\n      0xe0\n        /* \"#utility.yul\":715:735   */\n      shl\n        /* \"#utility.yul\":712:713   */\n      0x00\n        /* \"#utility.yul\":705:736   */\n      mstore\n        /* \"#utility.yul\":759:763   */\n      0x12\n        /* \"#utility.yul\":756:757   */\n      0x04\n        /* \"#utility.yul\":749:764   */\n      mstore\n        /* \"#utility.yul\":787:791   */\n      0x24\n        /* \"#utility.yul\":784:785   */\n      0x00\n        /* \"#utility.yul\":777:792   */\n      revert\n        /* \"#utility.yul\":670:802   */\n    tag_53:\n      pop\n        /* \"#utility.yul\":816:825   */\n      mod\n      swap1\n        /* \"#utility.yul\":622:831   */\n      jump\t// out\n        /* \"#utility.yul\":836:963   */\n    tag_29:\n        /* \"#utility.yul\":897:907   */\n      0x4e487b71\n        /* \"#utility.yul\":892:895   */\n      0xe0\n        /* \"#utility.yul\":888:908   */\n      shl\n        /* \"#utility.yul\":885:886   */\n      0x00\n        /* \"#utility.yul\":878:909   */\n      mstore\n        /* \"#utility.yul\":928:932   */\n      0x01\n        /* \"#utility.yul\":925:926   */\n      0x04\n        /* \"#utility.yul\":918:933   */\n      mstore\n        /* \"#utility.yul\":952:956   */\n      0x24\n        /* \"#utility.yul\":949:950   */\n      0x00\n        /* \"#utility.yul\":942:957   */\n      revert\n\n    auxdata: 0xa2646970667358221220c9188b9274ef568e8d0f43ba4e7a9808516be76d6519620e3260bc873290df9964736f6c634300081a0033\n}\n",
				"bytecode": {
					"linkReferences": {},
					"object": "6080604052348015600e575f80fd5b506103508061001c5f395ff3fe608060405234801561000f575f80fd5b5060043610610034575f3560e01c8063440c93e214610038578063e655b7bb14610061575b5f80fd5b61004b61004636600461029b565b610074565b60405161005891906102b2565b60405180910390f35b61004b61006f36600461029b565b610133565b6060610081600f836102e7565b5f036100ab5750506040805180820190915260088152672334bd3d213abd3d60c11b602082015290565b6100b66003836102e7565b5f036100dc5750506040805180820190915260048152632334bd3d60e11b602082015290565b6100e76005836102e7565b5f0361010d575050604080518082019091526004815263213abd3d60e11b602082015290565b505060408051808201909152600581526414dc1b185d60da1b602082015290565b919050565b6060610960821061014657610146610306565b600a821015801561015957506104af8211155b8061017357506105148210158015610173575061095f8211155b6101b05760405162461bcd60e51b81526020600482015260096024820152684174206c756e63682160b81b60448201526064015b60405180910390fd5b6103208210806101c1575061089882115b156101e25760405163525fb80f60e11b8152600481018390526024016101a7565b61032082101580156101f657506104af8211155b1561021f5750506040805180820190915260088152674d6f726e696e672160c01b602082015290565b610514821015801561023357506107078211155b1561025e57505060408051808201909152600a81526941667465726e6f6f6e2160b01b602082015290565b610708821015801561027257506108988211155b1561012e5750506040805180820190915260088152674576656e696e672160c01b602082015290565b5f602082840312156102ab575f80fd5b5035919050565b602081525f82518060208401528060208501604085015e5f604082850101526040601f19601f83011684010191505092915050565b5f8261030157634e487b7160e01b5f52601260045260245ffd5b500690565b634e487b7160e01b5f52600160045260245ffdfea2646970667358221220c9188b9274ef568e8d0f43ba4e7a9808516be76d6519620e3260bc873290df9964736f6c634300081a0033",
					"opcodes": "PUSH1 0x80 PUSH1 0x40 MSTORE CALLVALUE DUP1 ISZERO PUSH1 0xE JUMPI PUSH0 DUP1 REVERT JUMPDEST POP PUSH2 0x350 DUP1 PUSH2 0x1C PUSH0 CODECOPY PUSH0 RETURN INVALID PUSH1 0x80 PUSH1 0x40 MSTORE CALLVALUE DUP1 ISZERO PUSH2 0xF JUMPI PUSH0 DUP1 REVERT JUMPDEST POP PUSH1 0x4 CALLDATASIZE LT PUSH2 0x34 JUMPI PUSH0 CALLDATALOAD PUSH1 0xE0 SHR DUP1 PUSH4 0x440C93E2 EQ PUSH2 0x38 JUMPI DUP1 PUSH4 0xE655B7BB EQ PUSH2 0x61 JUMPI JUMPDEST PUSH0 DUP1 REVERT JUMPDEST PUSH2 0x4B PUSH2 0x46 CALLDATASIZE PUSH1 0x4 PUSH2 0x29B JUMP JUMPDEST PUSH2 0x74 JUMP JUMPDEST PUSH1 0x40 MLOAD PUSH2 0x58 SWAP2 SWAP1 PUSH2 0x2B2 JUMP JUMPDEST PUSH1 0x40 MLOAD DUP1 SWAP2 SUB SWAP1 RETURN JUMPDEST PUSH2 0x4B PUSH2 0x6F CALLDATASIZE PUSH1 0x4 PUSH2 0x29B JUMP JUMPDEST PUSH2 0x133 JUMP JUMPDEST PUSH1 0x60 PUSH2 0x81 PUSH1 0xF DUP4 PUSH2 0x2E7 JUMP JUMPDEST PUSH0 SUB PUSH2 0xAB JUMPI POP POP PUSH1 0x40 DUP1 MLOAD DUP1 DUP3 ADD SWAP1 SWAP2 MSTORE PUSH1 0x8 DUP2 MSTORE PUSH8 0x2334BD3D213ABD3D PUSH1 0xC1 SHL PUSH1 0x20 DUP3 ADD MSTORE SWAP1 JUMP JUMPDEST PUSH2 0xB6 PUSH1 0x3 DUP4 PUSH2 0x2E7 JUMP JUMPDEST PUSH0 SUB PUSH2 0xDC JUMPI POP POP PUSH1 0x40 DUP1 MLOAD DUP1 DUP3 ADD SWAP1 SWAP2 MSTORE PUSH1 0x4 DUP2 MSTORE PUSH4 0x2334BD3D PUSH1 0xE1 SHL PUSH1 0x20 DUP3 ADD MSTORE SWAP1 JUMP JUMPDEST PUSH2 0xE7 PUSH1 0x5 DUP4 PUSH2 0x2E7 JUMP JUMPDEST PUSH0 SUB PUSH2 0x10D JUMPI POP POP PUSH1 0x40 DUP1 MLOAD DUP1 DUP3 ADD SWAP1 SWAP2 MSTORE PUSH1 0x4 DUP2 MSTORE PUSH4 0x213ABD3D PUSH1 0xE1 SHL PUSH1 0x20 DUP3 ADD MSTORE SWAP1 JUMP JUMPDEST POP POP PUSH1 0x40 DUP1 MLOAD DUP1 DUP3 ADD SWAP1 SWAP2 MSTORE PUSH1 0x5 DUP2 MSTORE PUSH5 0x14DC1B185D PUSH1 0xDA SHL PUSH1 0x20 DUP3 ADD MSTORE SWAP1 JUMP JUMPDEST SWAP2 SWAP1 POP JUMP JUMPDEST PUSH1 0x60 PUSH2 0x960 DUP3 LT PUSH2 0x146 JUMPI PUSH2 0x146 PUSH2 0x306 JUMP JUMPDEST PUSH1 0xA DUP3 LT ISZERO DUP1 ISZERO PUSH2 0x159 JUMPI POP PUSH2 0x4AF DUP3 GT ISZERO JUMPDEST DUP1 PUSH2 0x173 JUMPI POP PUSH2 0x514 DUP3 LT ISZERO DUP1 ISZERO PUSH2 0x173 JUMPI POP PUSH2 0x95F DUP3 GT ISZERO JUMPDEST PUSH2 0x1B0 JUMPI PUSH1 0x40 MLOAD PUSH3 0x461BCD PUSH1 0xE5 SHL DUP2 MSTORE PUSH1 0x20 PUSH1 0x4 DUP3 ADD MSTORE PUSH1 0x9 PUSH1 0x24 DUP3 ADD MSTORE PUSH9 0x4174206C756E636821 PUSH1 0xB8 SHL PUSH1 0x44 DUP3 ADD MSTORE PUSH1 0x64 ADD JUMPDEST PUSH1 0x40 MLOAD DUP1 SWAP2 SUB SWAP1 REVERT JUMPDEST PUSH2 0x320 DUP3 LT DUP1 PUSH2 0x1C1 JUMPI POP PUSH2 0x898 DUP3 GT JUMPDEST ISZERO PUSH2 0x1E2 JUMPI PUSH1 0x40 MLOAD PUSH4 0x525FB80F PUSH1 0xE1 SHL DUP2 MSTORE PUSH1 0x4 DUP2 ADD DUP4 SWAP1 MSTORE PUSH1 0x24 ADD PUSH2 0x1A7 JUMP JUMPDEST PUSH2 0x320 DUP3 LT ISZERO DUP1 ISZERO PUSH2 0x1F6 JUMPI POP PUSH2 0x4AF DUP3 GT ISZERO JUMPDEST ISZERO PUSH2 0x21F JUMPI POP POP PUSH1 0x40 DUP1 MLOAD DUP1 DUP3 ADD SWAP1 SWAP2 MSTORE PUSH1 0x8 DUP2 MSTORE PUSH8 0x4D6F726E696E6721 PUSH1 0xC0 SHL PUSH1 0x20 DUP3 ADD MSTORE SWAP1 JUMP JUMPDEST PUSH2 0x514 DUP3 LT ISZERO DUP1 ISZERO PUSH2 0x233 JUMPI POP PUSH2 0x707 DUP3 GT ISZERO JUMPDEST ISZERO PUSH2 0x25E JUMPI POP POP PUSH1 0x40 DUP1 MLOAD DUP1 DUP3 ADD SWAP1 SWAP2 MSTORE PUSH1 0xA DUP2 MSTORE PUSH10 0x41667465726E6F6F6E21 PUSH1 0xB0 SHL PUSH1 0x20 DUP3 ADD MSTORE SWAP1 JUMP JUMPDEST PUSH2 0x708 DUP3 LT ISZERO DUP1 ISZERO PUSH2 0x272 JUMPI POP PUSH2 0x898 DUP3 GT ISZERO JUMPDEST ISZERO PUSH2 0x12E JUMPI POP POP PUSH1 0x40 DUP1 MLOAD DUP1 DUP3 ADD SWAP1 SWAP2 MSTORE PUSH1 0x8 DUP2 MSTORE PUSH8 0x4576656E696E6721 PUSH1 0xC0 SHL PUSH1 0x20 DUP3 ADD MSTORE SWAP1 JUMP JUMPDEST PUSH0 PUSH1 0x20 DUP3 DUP5 SUB SLT ISZERO PUSH2 0x2AB JUMPI PUSH0 DUP1 REVERT JUMPDEST POP CALLDATALOAD SWAP2 SWAP1 POP JUMP JUMPDEST PUSH1 0x20 DUP2 MSTORE PUSH0 DUP3 MLOAD DUP1 PUSH1 0x20 DUP5 ADD MSTORE DUP1 PUSH1 0x20 DUP6 ADD PUSH1 0x40 DUP6 ADD MCOPY PUSH0 PUSH1 0x40 DUP3 DUP6 ADD ADD MSTORE PUSH1 0x40 PUSH1 0x1F NOT PUSH1 0x1F DUP4 ADD AND DUP5 ADD ADD SWAP2 POP POP SWAP3 SWAP2 POP POP JUMP JUMPDEST PUSH0 DUP3 PUSH2 0x301 JUMPI PUSH4 0x4E487B71 PUSH1 0xE0 SHL PUSH0 MSTORE PUSH1 0x12 PUSH1 0x4 MSTORE PUSH1 0x24 PUSH0 REVERT JUMPDEST POP MOD SWAP1 JUMP JUMPDEST PUSH4 0x4E487B71 PUSH1 0xE0 SHL PUSH0 MSTORE PUSH1 0x1 PUSH1 0x4 MSTORE PUSH1 0x24 PUSH0 REVERT INVALID LOG2 PUSH5 0x6970667358 0x22 SLT KECCAK256 0xC9 XOR DUP12 SWAP3 PUSH21 0xEF568E8D0F43BA4E7A9808516BE76D6519620E3260 0xBC DUP8 ORIGIN SWAP1 0xDF SWAP10 PUSH5 0x736F6C6343 STOP ADDMOD BYTE STOP CALLER "
				},
				"gasEstimates": {
					"creation": {
						"codeDepositCost": "169600",
						"executionCost": "212",
						"totalCost": "169812"
					},
					"external": {
						"doNotDisturb(uint256)": "infinite",
						"fizzBuzz(uint256)": "infinite"
					}
				},
				"methodIdentifiers": {
					"doNotDisturb(uint256)": "e655b7bb",
					"fizzBuzz(uint256)": "440c93e2"
				}
			},
			"storageLayout": {
				"storage": [],
				"types": null
			},
			"userdoc": {
				"kind": "user",
				"methods": {},
				"version": 1
			}
		}
	}
}