{
	"contracts/effct2.sol": {
		"TriviaBase": {
			"abi": [
				{
					"inputs": [],
					"name": "InsufficientContractBalance",
					"type": "error"
				},
				{
					"anonymous": false,
					"inputs": [
						{
							"indexed": false,
							"internalType": "address[3]",
							"name": "winners",
							"type": "address[3]"
						},
						{
							"indexed": false,
							"internalType": "uint256[3]",
							"name": "rewards",
							"type": "uint256[3]"
						}
					],
					"name": "RewardsDistributed",
					"type": "event"
				},
				{
					"inputs": [],
					"name": "EmergencyWithdrawalAdmin",
					"outputs": [],
					"stateMutability": "nonpayable",
					"type": "function"
				},
				{
					"inputs": [],
					"name": "ReturnContractBalnc",
					"outputs": [
						{
							"internalType": "uint256",
							"name": "",
							"type": "uint256"
						}
					],
					"stateMutability": "view",
					"type": "function"
				},
				{
					"inputs": [
						{
							"internalType": "address[3]",
							"name": "_users",
							"type": "address[3]"
						}
					],
					"name": "RewardWinners",
					"outputs": [],
					"stateMutability": "nonpayable",
					"type": "function"
				}
			],
			"devdoc": {
				"kind": "dev",
				"methods": {},
				"version": 1
			},
			"evm": {
				"assembly": "    /* \"contracts/effct2.sol\":337:1818  contract TriviaBase {... */\n  mstore(0x40, 0xc0)\n    /* \"contracts/effct2.sol\":419:461  0x833589fCD6eDb6E08f4c7C32D4f71b54bdA02913 */\n  0x833589fcd6edb6e08f4c7c32d4f71b54bda02913\n    /* \"contracts/effct2.sol\":378:461  address private immutable MAINNET_USDC = 0x833589fCD6eDb6E08f4c7C32D4f71b54bdA02913 */\n  0xffffffffffffffffffffffffffffffffffffffff\n  and\n  0x80\n  swap1\n  0xffffffffffffffffffffffffffffffffffffffff\n  and\n  dup2\n  mstore\n  pop\n    /* \"contracts/effct2.sol\":501:543  0x52c043C7120d7DA35fFdDF6C5c2359d503ceE5F8 */\n  0x52c043c7120d7da35ffddf6c5c2359d503cee5f8\n    /* \"contracts/effct2.sol\":467:543  address private immutable ADMIN = 0x52c043C7120d7DA35fFdDF6C5c2359d503ceE5F8 */\n  0xffffffffffffffffffffffffffffffffffffffff\n  and\n  0xa0\n  swap1\n  0xffffffffffffffffffffffffffffffffffffffff\n  and\n  dup2\n  mstore\n  pop\n    /* \"contracts/effct2.sol\":337:1818  contract TriviaBase {... */\n  callvalue\n  dup1\n  iszero\n  tag_1\n  jumpi\n  0x00\n  dup1\n  revert\ntag_1:\n  pop\n  mload(0x80)\n  mload(0xa0)\n  codecopy(0x00, dataOffset(sub_0), dataSize(sub_0))\n  0x00\n  assignImmutable(\"0x75bcc28b7fac24eeec9856ca179c749c015847969c966f0a0315f3d435961b2d\")\n  0x00\n  assignImmutable(\"0xaaf3f8a03bf981e82bfa1e6e69fda395c89cda31e9dff74038d977f68cce1756\")\n  return(0x00, dataSize(sub_0))\nstop\n\nsub_0: assembly {\n        /* \"contracts/effct2.sol\":337:1818  contract TriviaBase {... */\n      mstore(0x40, 0x80)\n      callvalue\n      dup1\n      iszero\n      tag_1\n      jumpi\n      0x00\n      dup1\n      revert\n    tag_1:\n      pop\n      jumpi(tag_2, lt(calldatasize, 0x04))\n      shr(0xe0, calldataload(0x00))\n      dup1\n      0x90decdae\n      eq\n      tag_3\n      jumpi\n      dup1\n      0xb321e227\n      eq\n      tag_4\n      jumpi\n      dup1\n      0xfe272fd9\n      eq\n      tag_5\n      jumpi\n    tag_2:\n      0x00\n      dup1\n      revert\n        /* \"contracts/effct2.sol\":661:874  function EmergencyWithdrawalAdmin() external onlyAddress{... */\n    tag_3:\n      tag_6\n      tag_7\n      jump\t// in\n    tag_6:\n      stop\n        /* \"contracts/effct2.sol\":880:1007  function ReturnContractBalnc() external view returns(uint){... */\n    tag_4:\n      tag_8\n      tag_9\n      jump\t// in\n    tag_8:\n      mload(0x40)\n      tag_10\n      swap2\n      swap1\n      tag_11\n      jump\t// in\n    tag_10:\n      mload(0x40)\n      dup1\n      swap2\n      sub\n      swap1\n      return\n        /* \"contracts/effct2.sol\":1013:1709  function RewardWinners(address[3] memory _users) external onlyAddress {... */\n    tag_5:\n      tag_12\n      0x04\n      dup1\n      calldatasize\n      sub\n      dup2\n      add\n      swap1\n      tag_13\n      swap2\n      swap1\n      tag_14\n      jump\t// in\n    tag_13:\n      tag_15\n      jump\t// in\n    tag_12:\n      stop\n        /* \"contracts/effct2.sol\":661:874  function EmergencyWithdrawalAdmin() external onlyAddress{... */\n    tag_7:\n        /* \"contracts/effct2.sol\":1770:1775  ADMIN */\n      immutable(\"0x75bcc28b7fac24eeec9856ca179c749c015847969c966f0a0315f3d435961b2d\")\n        /* \"contracts/effct2.sol\":1756:1775  msg.sender == ADMIN */\n      0xffffffffffffffffffffffffffffffffffffffff\n      and\n        /* \"contracts/effct2.sol\":1756:1766  msg.sender */\n      caller\n        /* \"contracts/effct2.sol\":1756:1775  msg.sender == ADMIN */\n      0xffffffffffffffffffffffffffffffffffffffff\n      and\n      eq\n        /* \"contracts/effct2.sol\":1748:1798  require(msg.sender == ADMIN, \"Only admin wallet!\") */\n      tag_17\n      jumpi\n      mload(0x40)\n      0x08c379a000000000000000000000000000000000000000000000000000000000\n      dup2\n      mstore\n      0x04\n      add\n      tag_18\n      swap1\n      tag_19\n      jump\t// in\n    tag_18:\n      mload(0x40)\n      dup1\n      swap2\n      sub\n      swap1\n      revert\n    tag_17:\n        /* \"contracts/effct2.sol\":727:747  uint contractBalance */\n      0x00\n        /* \"contracts/effct2.sol\":757:769  MAINNET_USDC */\n      immutable(\"0xaaf3f8a03bf981e82bfa1e6e69fda395c89cda31e9dff74038d977f68cce1756\")\n        /* \"contracts/effct2.sol\":750:780  IERC20(MAINNET_USDC).balanceOf */\n      0xffffffffffffffffffffffffffffffffffffffff\n      and\n      0x70a08231\n        /* \"contracts/effct2.sol\":789:793  this */\n      address\n        /* \"contracts/effct2.sol\":750:795  IERC20(MAINNET_USDC).balanceOf(address(this)) */\n      mload(0x40)\n      dup3\n      0xffffffff\n      and\n      0xe0\n      shl\n      dup2\n      mstore\n      0x04\n      add\n      tag_21\n      swap2\n      swap1\n      tag_22\n      jump\t// in\n    tag_21:\n      0x20\n      mload(0x40)\n      dup1\n      dup4\n      sub\n      dup2\n      dup7\n      gas\n      staticcall\n      iszero\n      dup1\n      iszero\n      tag_24\n      jumpi\n      returndatasize\n      0x00\n      dup1\n      returndatacopy\n      revert(0x00, returndatasize)\n    tag_24:\n      pop\n      pop\n      pop\n      pop\n      mload(0x40)\n      returndatasize\n      not(0x1f)\n      0x1f\n      dup3\n      add\n      and\n      dup3\n      add\n      dup1\n      0x40\n      mstore\n      pop\n      dup2\n      add\n      swap1\n      tag_25\n      swap2\n      swap1\n      tag_26\n      jump\t// in\n    tag_25:\n        /* \"contracts/effct2.sol\":727:795  uint contractBalance = IERC20(MAINNET_USDC).balanceOf(address(this)) */\n      swap1\n      pop\n        /* \"contracts/effct2.sol\":812:824  MAINNET_USDC */\n      immutable(\"0xaaf3f8a03bf981e82bfa1e6e69fda395c89cda31e9dff74038d977f68cce1756\")\n        /* \"contracts/effct2.sol\":805:834  IERC20(MAINNET_USDC).transfer */\n      0xffffffffffffffffffffffffffffffffffffffff\n      and\n      0xa9059cbb\n        /* \"contracts/effct2.sol\":835:840  ADMIN */\n      immutable(\"0x75bcc28b7fac24eeec9856ca179c749c015847969c966f0a0315f3d435961b2d\")\n        /* \"contracts/effct2.sol\":842:857  contractBalance */\n      dup4\n        /* \"contracts/effct2.sol\":805:858  IERC20(MAINNET_USDC).transfer(ADMIN, contractBalance) */\n      mload(0x40)\n      dup4\n      0xffffffff\n      and\n      0xe0\n      shl\n      dup2\n      mstore\n      0x04\n      add\n      tag_27\n      swap3\n      swap2\n      swap1\n      tag_28\n      jump\t// in\n    tag_27:\n      0x20\n      mload(0x40)\n      dup1\n      dup4\n      sub\n      dup2\n      0x00\n      dup8\n      gas\n      call\n      iszero\n      dup1\n      iszero\n      tag_30\n      jumpi\n      returndatasize\n      0x00\n      dup1\n      returndatacopy\n      revert(0x00, returndatasize)\n    tag_30:\n      pop\n      pop\n      pop\n      pop\n      mload(0x40)\n      returndatasize\n      not(0x1f)\n      0x1f\n      dup3\n      add\n      and\n      dup3\n      add\n      dup1\n      0x40\n      mstore\n      pop\n      dup2\n      add\n      swap1\n      tag_31\n      swap2\n      swap1\n      tag_32\n      jump\t// in\n    tag_31:\n      pop\n        /* \"contracts/effct2.sol\":717:874  {... */\n      pop\n        /* \"contracts/effct2.sol\":661:874  function EmergencyWithdrawalAdmin() external onlyAddress{... */\n      jump\t// out\n        /* \"contracts/effct2.sol\":880:1007  function ReturnContractBalnc() external view returns(uint){... */\n    tag_9:\n        /* \"contracts/effct2.sol\":933:937  uint */\n      0x00\n        /* \"contracts/effct2.sol\":962:974  MAINNET_USDC */\n      immutable(\"0xaaf3f8a03bf981e82bfa1e6e69fda395c89cda31e9dff74038d977f68cce1756\")\n        /* \"contracts/effct2.sol\":955:985  IERC20(MAINNET_USDC).balanceOf */\n      0xffffffffffffffffffffffffffffffffffffffff\n      and\n      0x70a08231\n        /* \"contracts/effct2.sol\":994:998  this */\n      address\n        /* \"contracts/effct2.sol\":955:1000  IERC20(MAINNET_USDC).balanceOf(address(this)) */\n      mload(0x40)\n      dup3\n      0xffffffff\n      and\n      0xe0\n      shl\n      dup2\n      mstore\n      0x04\n      add\n      tag_34\n      swap2\n      swap1\n      tag_22\n      jump\t// in\n    tag_34:\n      0x20\n      mload(0x40)\n      dup1\n      dup4\n      sub\n      dup2\n      dup7\n      gas\n      staticcall\n      iszero\n      dup1\n      iszero\n      tag_36\n      jumpi\n      returndatasize\n      0x00\n      dup1\n      returndatacopy\n      revert(0x00, returndatasize)\n    tag_36:\n      pop\n      pop\n      pop\n      pop\n      mload(0x40)\n      returndatasize\n      not(0x1f)\n      0x1f\n      dup3\n      add\n      and\n      dup3\n      add\n      dup1\n      0x40\n      mstore\n      pop\n      dup2\n      add\n      swap1\n      tag_37\n      swap2\n      swap1\n      tag_26\n      jump\t// in\n    tag_37:\n        /* \"contracts/effct2.sol\":948:1000  return IERC20(MAINNET_USDC).balanceOf(address(this)) */\n      swap1\n      pop\n        /* \"contracts/effct2.sol\":880:1007  function ReturnContractBalnc() external view returns(uint){... */\n      swap1\n      jump\t// out\n        /* \"contracts/effct2.sol\":1013:1709  function RewardWinners(address[3] memory _users) external onlyAddress {... */\n    tag_15:\n        /* \"contracts/effct2.sol\":1770:1775  ADMIN */\n      immutable(\"0x75bcc28b7fac24eeec9856ca179c749c015847969c966f0a0315f3d435961b2d\")\n        /* \"contracts/effct2.sol\":1756:1775  msg.sender == ADMIN */\n      0xffffffffffffffffffffffffffffffffffffffff\n      and\n        /* \"contracts/effct2.sol\":1756:1766  msg.sender */\n      caller\n        /* \"contracts/effct2.sol\":1756:1775  msg.sender == ADMIN */\n      0xffffffffffffffffffffffffffffffffffffffff\n      and\n      eq\n        /* \"contracts/effct2.sol\":1748:1798  require(msg.sender == ADMIN, \"Only admin wallet!\") */\n      tag_39\n      jumpi\n      mload(0x40)\n      0x08c379a000000000000000000000000000000000000000000000000000000000\n      dup2\n      mstore\n      0x04\n      add\n      tag_40\n      swap1\n      tag_19\n      jump\t// in\n    tag_40:\n      mload(0x40)\n      dup1\n      swap2\n      sub\n      swap1\n      revert\n    tag_39:\n        /* \"contracts/effct2.sol\":1094:1114  uint contractBalance */\n      0x00\n        /* \"contracts/effct2.sol\":1124:1136  MAINNET_USDC */\n      immutable(\"0xaaf3f8a03bf981e82bfa1e6e69fda395c89cda31e9dff74038d977f68cce1756\")\n        /* \"contracts/effct2.sol\":1117:1147  IERC20(MAINNET_USDC).balanceOf */\n      0xffffffffffffffffffffffffffffffffffffffff\n      and\n      0x70a08231\n        /* \"contracts/effct2.sol\":1156:1160  this */\n      address\n        /* \"contracts/effct2.sol\":1117:1162  IERC20(MAINNET_USDC).balanceOf(address(this)) */\n      mload(0x40)\n      dup3\n      0xffffffff\n      and\n      0xe0\n      shl\n      dup2\n      mstore\n      0x04\n      add\n      tag_42\n      swap2\n      swap1\n      tag_22\n      jump\t// in\n    tag_42:\n      0x20\n      mload(0x40)\n      dup1\n      dup4\n      sub\n      dup2\n      dup7\n      gas\n      staticcall\n      iszero\n      dup1\n      iszero\n      tag_44\n      jumpi\n      returndatasize\n      0x00\n      dup1\n      returndatacopy\n      revert(0x00, returndatasize)\n    tag_44:\n      pop\n      pop\n      pop\n      pop\n      mload(0x40)\n      returndatasize\n      not(0x1f)\n      0x1f\n      dup3\n      add\n      and\n      dup3\n      add\n      dup1\n      0x40\n      mstore\n      pop\n      dup2\n      add\n      swap1\n      tag_45\n      swap2\n      swap1\n      tag_26\n      jump\t// in\n    tag_45:\n        /* \"contracts/effct2.sol\":1094:1162  uint contractBalance = IERC20(MAINNET_USDC).balanceOf(address(this)) */\n      swap1\n      pop\n        /* \"contracts/effct2.sol\":1195:1196  0 */\n      0x00\n        /* \"contracts/effct2.sol\":1176:1191  contractBalance */\n      dup2\n        /* \"contracts/effct2.sol\":1176:1196  contractBalance == 0 */\n      sub\n        /* \"contracts/effct2.sol\":1172:1234  if (contractBalance == 0) revert InsufficientContractBalance() */\n      tag_46\n      jumpi\n        /* \"contracts/effct2.sol\":1205:1234  InsufficientContractBalance() */\n      mload(0x40)\n      0x786e0a9900000000000000000000000000000000000000000000000000000000\n      dup2\n      mstore\n      0x04\n      add\n      mload(0x40)\n      dup1\n      swap2\n      sub\n      swap1\n      revert\n        /* \"contracts/effct2.sol\":1172:1234  if (contractBalance == 0) revert InsufficientContractBalance() */\n    tag_46:\n        /* \"contracts/effct2.sol\":1245:1271  uint[3] memory user_reward */\n      0x00\n        /* \"contracts/effct2.sol\":1245:1410  uint[3] memory user_reward = [... */\n      mload(0x40)\n      dup1\n      0x60\n      add\n      0x40\n      mstore\n      dup1\n        /* \"contracts/effct2.sol\":1313:1316  100 */\n      0x64\n        /* \"contracts/effct2.sol\":1294:1309  contractBalance */\n      dup5\n        /* \"contracts/effct2.sol\":1289:1291  48 */\n      0x30\n        /* \"contracts/effct2.sol\":1289:1309  48 * contractBalance */\n      tag_47\n      swap2\n      swap1\n      tag_48\n      jump\t// in\n    tag_47:\n        /* \"contracts/effct2.sol\":1288:1316  (48 * contractBalance) / 100 */\n      tag_49\n      swap2\n      swap1\n      tag_50\n      jump\t// in\n    tag_49:\n        /* \"contracts/effct2.sol\":1245:1410  uint[3] memory user_reward = [... */\n      dup2\n      mstore\n      0x20\n      add\n        /* \"contracts/effct2.sol\":1355:1358  100 */\n      0x64\n        /* \"contracts/effct2.sol\":1336:1351  contractBalance */\n      dup5\n        /* \"contracts/effct2.sol\":1331:1333  29 */\n      0x1d\n        /* \"contracts/effct2.sol\":1331:1351  29 * contractBalance */\n      tag_51\n      swap2\n      swap1\n      tag_48\n      jump\t// in\n    tag_51:\n        /* \"contracts/effct2.sol\":1330:1358  (29 * contractBalance) / 100 */\n      tag_52\n      swap2\n      swap1\n      tag_50\n      jump\t// in\n    tag_52:\n        /* \"contracts/effct2.sol\":1245:1410  uint[3] memory user_reward = [... */\n      dup2\n      mstore\n      0x20\n      add\n        /* \"contracts/effct2.sol\":1397:1400  100 */\n      0x64\n        /* \"contracts/effct2.sol\":1378:1393  contractBalance */\n      dup5\n        /* \"contracts/effct2.sol\":1373:1375  19 */\n      0x13\n        /* \"contracts/effct2.sol\":1373:1393  19 * contractBalance */\n      tag_53\n      swap2\n      swap1\n      tag_48\n      jump\t// in\n    tag_53:\n        /* \"contracts/effct2.sol\":1372:1400  (19 * contractBalance) / 100 */\n      tag_54\n      swap2\n      swap1\n      tag_50\n      jump\t// in\n    tag_54:\n        /* \"contracts/effct2.sol\":1245:1410  uint[3] memory user_reward = [... */\n      dup2\n      mstore\n      pop\n      swap1\n      pop\n        /* \"contracts/effct2.sol\":1421:1438  uint admin_reward */\n      0x00\n        /* \"contracts/effct2.sol\":1465:1468  100 */\n      0x64\n        /* \"contracts/effct2.sol\":1446:1461  contractBalance */\n      dup4\n        /* \"contracts/effct2.sol\":1442:1443  4 */\n      0x04\n        /* \"contracts/effct2.sol\":1442:1461  4 * contractBalance */\n      tag_55\n      swap2\n      swap1\n      tag_48\n      jump\t// in\n    tag_55:\n        /* \"contracts/effct2.sol\":1441:1468  (4 * contractBalance) / 100 */\n      tag_56\n      swap2\n      swap1\n      tag_50\n      jump\t// in\n    tag_56:\n        /* \"contracts/effct2.sol\":1421:1468  uint admin_reward = (4 * contractBalance) / 100 */\n      swap1\n      pop\n        /* \"contracts/effct2.sol\":1484:1490  uint i */\n      0x00\n        /* \"contracts/effct2.sol\":1479:1589  for (uint i = 0; i < 3; i++) {... */\n    tag_57:\n        /* \"contracts/effct2.sol\":1500:1501  3 */\n      0x03\n        /* \"contracts/effct2.sol\":1496:1497  i */\n      dup2\n        /* \"contracts/effct2.sol\":1496:1501  i < 3 */\n      lt\n        /* \"contracts/effct2.sol\":1479:1589  for (uint i = 0; i < 3; i++) {... */\n      iszero\n      tag_58\n      jumpi\n        /* \"contracts/effct2.sol\":1529:1541  MAINNET_USDC */\n      immutable(\"0xaaf3f8a03bf981e82bfa1e6e69fda395c89cda31e9dff74038d977f68cce1756\")\n        /* \"contracts/effct2.sol\":1522:1551  IERC20(MAINNET_USDC).transfer */\n      0xffffffffffffffffffffffffffffffffffffffff\n      and\n      0xa9059cbb\n        /* \"contracts/effct2.sol\":1552:1558  _users */\n      dup7\n        /* \"contracts/effct2.sol\":1559:1560  i */\n      dup4\n        /* \"contracts/effct2.sol\":1552:1561  _users[i] */\n      0x03\n      dup2\n      lt\n      tag_60\n      jumpi\n      tag_61\n      tag_62\n      jump\t// in\n    tag_61:\n    tag_60:\n      0x20\n      mul\n      add\n      mload\n        /* \"contracts/effct2.sol\":1563:1574  user_reward */\n      dup6\n        /* \"contracts/effct2.sol\":1575:1576  i */\n      dup5\n        /* \"contracts/effct2.sol\":1563:1577  user_reward[i] */\n      0x03\n      dup2\n      lt\n      tag_63\n      jumpi\n      tag_64\n      tag_62\n      jump\t// in\n    tag_64:\n    tag_63:\n      0x20\n      mul\n      add\n      mload\n        /* \"contracts/effct2.sol\":1522:1578  IERC20(MAINNET_USDC).transfer(_users[i], user_reward[i]) */\n      mload(0x40)\n      dup4\n      0xffffffff\n      and\n      0xe0\n      shl\n      dup2\n      mstore\n      0x04\n      add\n      tag_65\n      swap3\n      swap2\n      swap1\n      tag_28\n      jump\t// in\n    tag_65:\n      0x20\n      mload(0x40)\n      dup1\n      dup4\n      sub\n      dup2\n      0x00\n      dup8\n      gas\n      call\n      iszero\n      dup1\n      iszero\n      tag_67\n      jumpi\n      returndatasize\n      0x00\n      dup1\n      returndatacopy\n      revert(0x00, returndatasize)\n    tag_67:\n      pop\n      pop\n      pop\n      pop\n      mload(0x40)\n      returndatasize\n      not(0x1f)\n      0x1f\n      dup3\n      add\n      and\n      dup3\n      add\n      dup1\n      0x40\n      mstore\n      pop\n      dup2\n      add\n      swap1\n      tag_68\n      swap2\n      swap1\n      tag_32\n      jump\t// in\n    tag_68:\n      pop\n        /* \"contracts/effct2.sol\":1503:1506  i++ */\n      dup1\n      dup1\n      0x01\n      add\n      swap2\n      pop\n      pop\n        /* \"contracts/effct2.sol\":1479:1589  for (uint i = 0; i < 3; i++) {... */\n      jump(tag_57)\n    tag_58:\n      pop\n        /* \"contracts/effct2.sol\":1605:1617  MAINNET_USDC */\n      immutable(\"0xaaf3f8a03bf981e82bfa1e6e69fda395c89cda31e9dff74038d977f68cce1756\")\n        /* \"contracts/effct2.sol\":1598:1627  IERC20(MAINNET_USDC).transfer */\n      0xffffffffffffffffffffffffffffffffffffffff\n      and\n      0xa9059cbb\n        /* \"contracts/effct2.sol\":1628:1633  ADMIN */\n      immutable(\"0x75bcc28b7fac24eeec9856ca179c749c015847969c966f0a0315f3d435961b2d\")\n        /* \"contracts/effct2.sol\":1635:1647  admin_reward */\n      dup4\n        /* \"contracts/effct2.sol\":1598:1648  IERC20(MAINNET_USDC).transfer(ADMIN, admin_reward) */\n      mload(0x40)\n      dup4\n      0xffffffff\n      and\n      0xe0\n      shl\n      dup2\n      mstore\n      0x04\n      add\n      tag_69\n      swap3\n      swap2\n      swap1\n      tag_28\n      jump\t// in\n    tag_69:\n      0x20\n      mload(0x40)\n      dup1\n      dup4\n      sub\n      dup2\n      0x00\n      dup8\n      gas\n      call\n      iszero\n      dup1\n      iszero\n      tag_71\n      jumpi\n      returndatasize\n      0x00\n      dup1\n      returndatacopy\n      revert(0x00, returndatasize)\n    tag_71:\n      pop\n      pop\n      pop\n      pop\n      mload(0x40)\n      returndatasize\n      not(0x1f)\n      0x1f\n      dup3\n      add\n      and\n      dup3\n      add\n      dup1\n      0x40\n      mstore\n      pop\n      dup2\n      add\n      swap1\n      tag_72\n      swap2\n      swap1\n      tag_32\n      jump\t// in\n    tag_72:\n      pop\n        /* \"contracts/effct2.sol\":1663:1702  RewardsDistributed(_users, user_reward) */\n      0x6b6ef27261dfd975a881981cb28adc6afe7963673c859bce73d79e0e09be34b0\n        /* \"contracts/effct2.sol\":1682:1688  _users */\n      dup5\n        /* \"contracts/effct2.sol\":1690:1701  user_reward */\n      dup4\n        /* \"contracts/effct2.sol\":1663:1702  RewardsDistributed(_users, user_reward) */\n      mload(0x40)\n      tag_73\n      swap3\n      swap2\n      swap1\n      tag_74\n      jump\t// in\n    tag_73:\n      mload(0x40)\n      dup1\n      swap2\n      sub\n      swap1\n      log1\n        /* \"contracts/effct2.sol\":1083:1709  {... */\n      pop\n      pop\n      pop\n        /* \"contracts/effct2.sol\":1013:1709  function RewardWinners(address[3] memory _users) external onlyAddress {... */\n      pop\n      jump\t// out\n        /* \"#utility.yul\":7:84   */\n    tag_75:\n        /* \"#utility.yul\":44:51   */\n      0x00\n        /* \"#utility.yul\":73:78   */\n      dup2\n        /* \"#utility.yul\":62:78   */\n      swap1\n      pop\n        /* \"#utility.yul\":7:84   */\n      swap2\n      swap1\n      pop\n      jump\t// out\n        /* \"#utility.yul\":90:208   */\n    tag_76:\n        /* \"#utility.yul\":177:201   */\n      tag_121\n        /* \"#utility.yul\":195:200   */\n      dup2\n        /* \"#utility.yul\":177:201   */\n      tag_75\n      jump\t// in\n    tag_121:\n        /* \"#utility.yul\":172:175   */\n      dup3\n        /* \"#utility.yul\":165:202   */\n      mstore\n        /* \"#utility.yul\":90:208   */\n      pop\n      pop\n      jump\t// out\n        /* \"#utility.yul\":214:436   */\n    tag_11:\n        /* \"#utility.yul\":307:311   */\n      0x00\n        /* \"#utility.yul\":345:347   */\n      0x20\n        /* \"#utility.yul\":334:343   */\n      dup3\n        /* \"#utility.yul\":330:348   */\n      add\n        /* \"#utility.yul\":322:348   */\n      swap1\n      pop\n        /* \"#utility.yul\":358:429   */\n      tag_123\n        /* \"#utility.yul\":426:427   */\n      0x00\n        /* \"#utility.yul\":415:424   */\n      dup4\n        /* \"#utility.yul\":411:428   */\n      add\n        /* \"#utility.yul\":402:408   */\n      dup5\n        /* \"#utility.yul\":358:429   */\n      tag_76\n      jump\t// in\n    tag_123:\n        /* \"#utility.yul\":214:436   */\n      swap3\n      swap2\n      pop\n      pop\n      jump\t// out\n        /* \"#utility.yul\":442:517   */\n    tag_77:\n        /* \"#utility.yul\":475:481   */\n      0x00\n        /* \"#utility.yul\":508:510   */\n      0x40\n        /* \"#utility.yul\":502:511   */\n      mload\n        /* \"#utility.yul\":492:511   */\n      swap1\n      pop\n        /* \"#utility.yul\":442:517   */\n      swap1\n      jump\t// out\n        /* \"#utility.yul\":523:640   */\n    tag_78:\n        /* \"#utility.yul\":632:633   */\n      0x00\n        /* \"#utility.yul\":629:630   */\n      dup1\n        /* \"#utility.yul\":622:634   */\n      revert\n        /* \"#utility.yul\":769:886   */\n    tag_80:\n        /* \"#utility.yul\":878:879   */\n      0x00\n        /* \"#utility.yul\":875:876   */\n      dup1\n        /* \"#utility.yul\":868:880   */\n      revert\n        /* \"#utility.yul\":892:994   */\n    tag_81:\n        /* \"#utility.yul\":933:939   */\n      0x00\n        /* \"#utility.yul\":984:986   */\n      0x1f\n        /* \"#utility.yul\":980:987   */\n      not\n        /* \"#utility.yul\":975:977   */\n      0x1f\n        /* \"#utility.yul\":968:973   */\n      dup4\n        /* \"#utility.yul\":964:978   */\n      add\n        /* \"#utility.yul\":960:988   */\n      and\n        /* \"#utility.yul\":950:988   */\n      swap1\n      pop\n        /* \"#utility.yul\":892:994   */\n      swap2\n      swap1\n      pop\n      jump\t// out\n        /* \"#utility.yul\":1000:1180   */\n    tag_82:\n        /* \"#utility.yul\":1048:1125   */\n      0x4e487b7100000000000000000000000000000000000000000000000000000000\n        /* \"#utility.yul\":1045:1046   */\n      0x00\n        /* \"#utility.yul\":1038:1126   */\n      mstore\n        /* \"#utility.yul\":1145:1149   */\n      0x41\n        /* \"#utility.yul\":1142:1143   */\n      0x04\n        /* \"#utility.yul\":1135:1150   */\n      mstore\n        /* \"#utility.yul\":1169:1173   */\n      0x24\n        /* \"#utility.yul\":1166:1167   */\n      0x00\n        /* \"#utility.yul\":1159:1174   */\n      revert\n        /* \"#utility.yul\":1186:1467   */\n    tag_83:\n        /* \"#utility.yul\":1269:1296   */\n      tag_131\n        /* \"#utility.yul\":1291:1295   */\n      dup3\n        /* \"#utility.yul\":1269:1296   */\n      tag_81\n      jump\t// in\n    tag_131:\n        /* \"#utility.yul\":1261:1267   */\n      dup2\n        /* \"#utility.yul\":1257:1297   */\n      add\n        /* \"#utility.yul\":1399:1405   */\n      dup2\n        /* \"#utility.yul\":1387:1397   */\n      dup2\n        /* \"#utility.yul\":1384:1406   */\n      lt\n        /* \"#utility.yul\":1363:1381   */\n      0xffffffffffffffff\n        /* \"#utility.yul\":1351:1361   */\n      dup3\n        /* \"#utility.yul\":1348:1382   */\n      gt\n        /* \"#utility.yul\":1345:1407   */\n      or\n        /* \"#utility.yul\":1342:1430   */\n      iszero\n      tag_132\n      jumpi\n        /* \"#utility.yul\":1410:1428   */\n      tag_133\n      tag_82\n      jump\t// in\n    tag_133:\n        /* \"#utility.yul\":1342:1430   */\n    tag_132:\n        /* \"#utility.yul\":1450:1460   */\n      dup1\n        /* \"#utility.yul\":1446:1448   */\n      0x40\n        /* \"#utility.yul\":1439:1461   */\n      mstore\n        /* \"#utility.yul\":1229:1467   */\n      pop\n        /* \"#utility.yul\":1186:1467   */\n      pop\n      pop\n      jump\t// out\n        /* \"#utility.yul\":1473:1602   */\n    tag_84:\n        /* \"#utility.yul\":1507:1513   */\n      0x00\n        /* \"#utility.yul\":1534:1554   */\n      tag_135\n      tag_77\n      jump\t// in\n    tag_135:\n        /* \"#utility.yul\":1524:1554   */\n      swap1\n      pop\n        /* \"#utility.yul\":1563:1596   */\n      tag_136\n        /* \"#utility.yul\":1591:1595   */\n      dup3\n        /* \"#utility.yul\":1583:1589   */\n      dup3\n        /* \"#utility.yul\":1563:1596   */\n      tag_83\n      jump\t// in\n    tag_136:\n        /* \"#utility.yul\":1473:1602   */\n      swap2\n      swap1\n      pop\n      jump\t// out\n        /* \"#utility.yul\":1608:1857   */\n    tag_85:\n        /* \"#utility.yul\":1683:1687   */\n      0x00\n        /* \"#utility.yul\":1773:1791   */\n      0xffffffffffffffff\n        /* \"#utility.yul\":1765:1771   */\n      dup3\n        /* \"#utility.yul\":1762:1792   */\n      gt\n        /* \"#utility.yul\":1759:1815   */\n      iszero\n      tag_138\n      jumpi\n        /* \"#utility.yul\":1795:1813   */\n      tag_139\n      tag_82\n      jump\t// in\n    tag_139:\n        /* \"#utility.yul\":1759:1815   */\n    tag_138:\n        /* \"#utility.yul\":1845:1849   */\n      0x20\n        /* \"#utility.yul\":1837:1843   */\n      dup3\n        /* \"#utility.yul\":1833:1850   */\n      mul\n        /* \"#utility.yul\":1825:1850   */\n      swap1\n      pop\n        /* \"#utility.yul\":1608:1857   */\n      swap2\n      swap1\n      pop\n      jump\t// out\n        /* \"#utility.yul\":1863:1980   */\n    tag_86:\n        /* \"#utility.yul\":1972:1973   */\n      0x00\n        /* \"#utility.yul\":1969:1970   */\n      dup1\n        /* \"#utility.yul\":1962:1974   */\n      revert\n        /* \"#utility.yul\":1986:2112   */\n    tag_87:\n        /* \"#utility.yul\":2023:2030   */\n      0x00\n        /* \"#utility.yul\":2063:2105   */\n      0xffffffffffffffffffffffffffffffffffffffff\n        /* \"#utility.yul\":2056:2061   */\n      dup3\n        /* \"#utility.yul\":2052:2106   */\n      and\n        /* \"#utility.yul\":2041:2106   */\n      swap1\n      pop\n        /* \"#utility.yul\":1986:2112   */\n      swap2\n      swap1\n      pop\n      jump\t// out\n        /* \"#utility.yul\":2118:2214   */\n    tag_88:\n        /* \"#utility.yul\":2155:2162   */\n      0x00\n        /* \"#utility.yul\":2184:2208   */\n      tag_143\n        /* \"#utility.yul\":2202:2207   */\n      dup3\n        /* \"#utility.yul\":2184:2208   */\n      tag_87\n      jump\t// in\n    tag_143:\n        /* \"#utility.yul\":2173:2208   */\n      swap1\n      pop\n        /* \"#utility.yul\":2118:2214   */\n      swap2\n      swap1\n      pop\n      jump\t// out\n        /* \"#utility.yul\":2220:2342   */\n    tag_89:\n        /* \"#utility.yul\":2293:2317   */\n      tag_145\n        /* \"#utility.yul\":2311:2316   */\n      dup2\n        /* \"#utility.yul\":2293:2317   */\n      tag_88\n      jump\t// in\n    tag_145:\n        /* \"#utility.yul\":2286:2291   */\n      dup2\n        /* \"#utility.yul\":2283:2318   */\n      eq\n        /* \"#utility.yul\":2273:2336   */\n      tag_146\n      jumpi\n        /* \"#utility.yul\":2332:2333   */\n      0x00\n        /* \"#utility.yul\":2329:2330   */\n      dup1\n        /* \"#utility.yul\":2322:2334   */\n      revert\n        /* \"#utility.yul\":2273:2336   */\n    tag_146:\n        /* \"#utility.yul\":2220:2342   */\n      pop\n      jump\t// out\n        /* \"#utility.yul\":2348:2487   */\n    tag_90:\n        /* \"#utility.yul\":2394:2399   */\n      0x00\n        /* \"#utility.yul\":2432:2438   */\n      dup2\n        /* \"#utility.yul\":2419:2439   */\n      calldataload\n        /* \"#utility.yul\":2410:2439   */\n      swap1\n      pop\n        /* \"#utility.yul\":2448:2481   */\n      tag_148\n        /* \"#utility.yul\":2475:2480   */\n      dup2\n        /* \"#utility.yul\":2448:2481   */\n      tag_89\n      jump\t// in\n    tag_148:\n        /* \"#utility.yul\":2348:2487   */\n      swap3\n      swap2\n      pop\n      pop\n      jump\t// out\n        /* \"#utility.yul\":2511:3154   */\n    tag_91:\n        /* \"#utility.yul\":2605:2610   */\n      0x00\n        /* \"#utility.yul\":2630:2709   */\n      tag_150\n        /* \"#utility.yul\":2646:2708   */\n      tag_151\n        /* \"#utility.yul\":2701:2707   */\n      dup5\n        /* \"#utility.yul\":2646:2708   */\n      tag_85\n      jump\t// in\n    tag_151:\n        /* \"#utility.yul\":2630:2709   */\n      tag_84\n      jump\t// in\n    tag_150:\n        /* \"#utility.yul\":2621:2709   */\n      swap1\n      pop\n        /* \"#utility.yul\":2729:2734   */\n      dup1\n        /* \"#utility.yul\":2782:2786   */\n      0x20\n        /* \"#utility.yul\":2774:2780   */\n      dup5\n        /* \"#utility.yul\":2770:2787   */\n      mul\n        /* \"#utility.yul\":2762:2768   */\n      dup4\n        /* \"#utility.yul\":2758:2788   */\n      add\n        /* \"#utility.yul\":2811:2814   */\n      dup6\n        /* \"#utility.yul\":2803:2809   */\n      dup2\n        /* \"#utility.yul\":2800:2815   */\n      gt\n        /* \"#utility.yul\":2797:2919   */\n      iszero\n      tag_152\n      jumpi\n        /* \"#utility.yul\":2830:2909   */\n      tag_153\n      tag_86\n      jump\t// in\n    tag_153:\n        /* \"#utility.yul\":2797:2919   */\n    tag_152:\n        /* \"#utility.yul\":2945:2951   */\n      dup4\n        /* \"#utility.yul\":2928:3148   */\n    tag_154:\n        /* \"#utility.yul\":2962:2968   */\n      dup2\n        /* \"#utility.yul\":2957:2960   */\n      dup2\n        /* \"#utility.yul\":2954:2969   */\n      lt\n        /* \"#utility.yul\":2928:3148   */\n      iszero\n      tag_156\n      jumpi\n        /* \"#utility.yul\":3037:3040   */\n      dup1\n        /* \"#utility.yul\":3066:3103   */\n      tag_157\n        /* \"#utility.yul\":3099:3102   */\n      dup9\n        /* \"#utility.yul\":3087:3097   */\n      dup3\n        /* \"#utility.yul\":3066:3103   */\n      tag_90\n      jump\t// in\n    tag_157:\n        /* \"#utility.yul\":3061:3064   */\n      dup5\n        /* \"#utility.yul\":3054:3104   */\n      mstore\n        /* \"#utility.yul\":3133:3137   */\n      0x20\n        /* \"#utility.yul\":3128:3131   */\n      dup5\n        /* \"#utility.yul\":3124:3138   */\n      add\n        /* \"#utility.yul\":3117:3138   */\n      swap4\n      pop\n        /* \"#utility.yul\":3004:3148   */\n      pop\n        /* \"#utility.yul\":2988:2992   */\n      0x20\n        /* \"#utility.yul\":2983:2986   */\n      dup2\n        /* \"#utility.yul\":2979:2993   */\n      add\n        /* \"#utility.yul\":2972:2993   */\n      swap1\n      pop\n        /* \"#utility.yul\":2928:3148   */\n      jump(tag_154)\n    tag_156:\n        /* \"#utility.yul\":2932:2953   */\n      pop\n        /* \"#utility.yul\":2611:3154   */\n      pop\n      pop\n        /* \"#utility.yul\":2511:3154   */\n      swap4\n      swap3\n      pop\n      pop\n      pop\n      jump\t// out\n        /* \"#utility.yul\":3178:3517   */\n    tag_92:\n        /* \"#utility.yul\":3247:3252   */\n      0x00\n        /* \"#utility.yul\":3296:3299   */\n      dup3\n        /* \"#utility.yul\":3289:3293   */\n      0x1f\n        /* \"#utility.yul\":3281:3287   */\n      dup4\n        /* \"#utility.yul\":3277:3294   */\n      add\n        /* \"#utility.yul\":3273:3300   */\n      slt\n        /* \"#utility.yul\":3263:3385   */\n      tag_159\n      jumpi\n        /* \"#utility.yul\":3304:3383   */\n      tag_160\n      tag_80\n      jump\t// in\n    tag_160:\n        /* \"#utility.yul\":3263:3385   */\n    tag_159:\n        /* \"#utility.yul\":3408:3412   */\n      0x03\n        /* \"#utility.yul\":3430:3511   */\n      tag_161\n        /* \"#utility.yul\":3507:3510   */\n      dup5\n        /* \"#utility.yul\":3499:3505   */\n      dup3\n        /* \"#utility.yul\":3491:3497   */\n      dup6\n        /* \"#utility.yul\":3430:3511   */\n      tag_91\n      jump\t// in\n    tag_161:\n        /* \"#utility.yul\":3421:3511   */\n      swap2\n      pop\n        /* \"#utility.yul\":3253:3517   */\n      pop\n        /* \"#utility.yul\":3178:3517   */\n      swap3\n      swap2\n      pop\n      pop\n      jump\t// out\n        /* \"#utility.yul\":3523:3898   */\n    tag_14:\n        /* \"#utility.yul\":3605:3611   */\n      0x00\n        /* \"#utility.yul\":3654:3656   */\n      0x60\n        /* \"#utility.yul\":3642:3651   */\n      dup3\n        /* \"#utility.yul\":3633:3640   */\n      dup5\n        /* \"#utility.yul\":3629:3652   */\n      sub\n        /* \"#utility.yul\":3625:3657   */\n      slt\n        /* \"#utility.yul\":3622:3741   */\n      iszero\n      tag_163\n      jumpi\n        /* \"#utility.yul\":3660:3739   */\n      tag_164\n      tag_78\n      jump\t// in\n    tag_164:\n        /* \"#utility.yul\":3622:3741   */\n    tag_163:\n        /* \"#utility.yul\":3780:3781   */\n      0x00\n        /* \"#utility.yul\":3805:3881   */\n      tag_165\n        /* \"#utility.yul\":3873:3880   */\n      dup5\n        /* \"#utility.yul\":3864:3870   */\n      dup3\n        /* \"#utility.yul\":3853:3862   */\n      dup6\n        /* \"#utility.yul\":3849:3871   */\n      add\n        /* \"#utility.yul\":3805:3881   */\n      tag_92\n      jump\t// in\n    tag_165:\n        /* \"#utility.yul\":3795:3881   */\n      swap2\n      pop\n        /* \"#utility.yul\":3751:3891   */\n      pop\n        /* \"#utility.yul\":3523:3898   */\n      swap3\n      swap2\n      pop\n      pop\n      jump\t// out\n        /* \"#utility.yul\":3904:4073   */\n    tag_93:\n        /* \"#utility.yul\":3988:3999   */\n      0x00\n        /* \"#utility.yul\":4022:4028   */\n      dup3\n        /* \"#utility.yul\":4017:4020   */\n      dup3\n        /* \"#utility.yul\":4010:4029   */\n      mstore\n        /* \"#utility.yul\":4062:4066   */\n      0x20\n        /* \"#utility.yul\":4057:4060   */\n      dup3\n        /* \"#utility.yul\":4053:4067   */\n      add\n        /* \"#utility.yul\":4038:4067   */\n      swap1\n      pop\n        /* \"#utility.yul\":3904:4073   */\n      swap3\n      swap2\n      pop\n      pop\n      jump\t// out\n        /* \"#utility.yul\":4079:4247   */\n    tag_94:\n        /* \"#utility.yul\":4219:4239   */\n      0x4f6e6c792061646d696e2077616c6c6574210000000000000000000000000000\n        /* \"#utility.yul\":4215:4216   */\n      0x00\n        /* \"#utility.yul\":4207:4213   */\n      dup3\n        /* \"#utility.yul\":4203:4217   */\n      add\n        /* \"#utility.yul\":4196:4240   */\n      mstore\n        /* \"#utility.yul\":4079:4247   */\n      pop\n      jump\t// out\n        /* \"#utility.yul\":4253:4619   */\n    tag_95:\n        /* \"#utility.yul\":4395:4398   */\n      0x00\n        /* \"#utility.yul\":4416:4483   */\n      tag_169\n        /* \"#utility.yul\":4480:4482   */\n      0x12\n        /* \"#utility.yul\":4475:4478   */\n      dup4\n        /* \"#utility.yul\":4416:4483   */\n      tag_93\n      jump\t// in\n    tag_169:\n        /* \"#utility.yul\":4409:4483   */\n      swap2\n      pop\n        /* \"#utility.yul\":4492:4585   */\n      tag_170\n        /* \"#utility.yul\":4581:4584   */\n      dup3\n        /* \"#utility.yul\":4492:4585   */\n      tag_94\n      jump\t// in\n    tag_170:\n        /* \"#utility.yul\":4610:4612   */\n      0x20\n        /* \"#utility.yul\":4605:4608   */\n      dup3\n        /* \"#utility.yul\":4601:4613   */\n      add\n        /* \"#utility.yul\":4594:4613   */\n      swap1\n      pop\n        /* \"#utility.yul\":4253:4619   */\n      swap2\n      swap1\n      pop\n      jump\t// out\n        /* \"#utility.yul\":4625:5044   */\n    tag_19:\n        /* \"#utility.yul\":4791:4795   */\n      0x00\n        /* \"#utility.yul\":4829:4831   */\n      0x20\n        /* \"#utility.yul\":4818:4827   */\n      dup3\n        /* \"#utility.yul\":4814:4832   */\n      add\n        /* \"#utility.yul\":4806:4832   */\n      swap1\n      pop\n        /* \"#utility.yul\":4878:4887   */\n      dup2\n        /* \"#utility.yul\":4872:4876   */\n      dup2\n        /* \"#utility.yul\":4868:4888   */\n      sub\n        /* \"#utility.yul\":4864:4865   */\n      0x00\n        /* \"#utility.yul\":4853:4862   */\n      dup4\n        /* \"#utility.yul\":4849:4866   */\n      add\n        /* \"#utility.yul\":4842:4889   */\n      mstore\n        /* \"#utility.yul\":4906:5037   */\n      tag_172\n        /* \"#utility.yul\":5032:5036   */\n      dup2\n        /* \"#utility.yul\":4906:5037   */\n      tag_95\n      jump\t// in\n    tag_172:\n        /* \"#utility.yul\":4898:5037   */\n      swap1\n      pop\n        /* \"#utility.yul\":4625:5044   */\n      swap2\n      swap1\n      pop\n      jump\t// out\n        /* \"#utility.yul\":5050:5168   */\n    tag_96:\n        /* \"#utility.yul\":5137:5161   */\n      tag_174\n        /* \"#utility.yul\":5155:5160   */\n      dup2\n        /* \"#utility.yul\":5137:5161   */\n      tag_88\n      jump\t// in\n    tag_174:\n        /* \"#utility.yul\":5132:5135   */\n      dup3\n        /* \"#utility.yul\":5125:5162   */\n      mstore\n        /* \"#utility.yul\":5050:5168   */\n      pop\n      pop\n      jump\t// out\n        /* \"#utility.yul\":5174:5396   */\n    tag_22:\n        /* \"#utility.yul\":5267:5271   */\n      0x00\n        /* \"#utility.yul\":5305:5307   */\n      0x20\n        /* \"#utility.yul\":5294:5303   */\n      dup3\n        /* \"#utility.yul\":5290:5308   */\n      add\n        /* \"#utility.yul\":5282:5308   */\n      swap1\n      pop\n        /* \"#utility.yul\":5318:5389   */\n      tag_176\n        /* \"#utility.yul\":5386:5387   */\n      0x00\n        /* \"#utility.yul\":5375:5384   */\n      dup4\n        /* \"#utility.yul\":5371:5388   */\n      add\n        /* \"#utility.yul\":5362:5368   */\n      dup5\n        /* \"#utility.yul\":5318:5389   */\n      tag_96\n      jump\t// in\n    tag_176:\n        /* \"#utility.yul\":5174:5396   */\n      swap3\n      swap2\n      pop\n      pop\n      jump\t// out\n        /* \"#utility.yul\":5402:5524   */\n    tag_97:\n        /* \"#utility.yul\":5475:5499   */\n      tag_178\n        /* \"#utility.yul\":5493:5498   */\n      dup2\n        /* \"#utility.yul\":5475:5499   */\n      tag_75\n      jump\t// in\n    tag_178:\n        /* \"#utility.yul\":5468:5473   */\n      dup2\n        /* \"#utility.yul\":5465:5500   */\n      eq\n        /* \"#utility.yul\":5455:5518   */\n      tag_179\n      jumpi\n        /* \"#utility.yul\":5514:5515   */\n      0x00\n        /* \"#utility.yul\":5511:5512   */\n      dup1\n        /* \"#utility.yul\":5504:5516   */\n      revert\n        /* \"#utility.yul\":5455:5518   */\n    tag_179:\n        /* \"#utility.yul\":5402:5524   */\n      pop\n      jump\t// out\n        /* \"#utility.yul\":5530:5673   */\n    tag_98:\n        /* \"#utility.yul\":5587:5592   */\n      0x00\n        /* \"#utility.yul\":5618:5624   */\n      dup2\n        /* \"#utility.yul\":5612:5625   */\n      mload\n        /* \"#utility.yul\":5603:5625   */\n      swap1\n      pop\n        /* \"#utility.yul\":5634:5667   */\n      tag_181\n        /* \"#utility.yul\":5661:5666   */\n      dup2\n        /* \"#utility.yul\":5634:5667   */\n      tag_97\n      jump\t// in\n    tag_181:\n        /* \"#utility.yul\":5530:5673   */\n      swap3\n      swap2\n      pop\n      pop\n      jump\t// out\n        /* \"#utility.yul\":5679:6030   */\n    tag_26:\n        /* \"#utility.yul\":5749:5755   */\n      0x00\n        /* \"#utility.yul\":5798:5800   */\n      0x20\n        /* \"#utility.yul\":5786:5795   */\n      dup3\n        /* \"#utility.yul\":5777:5784   */\n      dup5\n        /* \"#utility.yul\":5773:5796   */\n      sub\n        /* \"#utility.yul\":5769:5801   */\n      slt\n        /* \"#utility.yul\":5766:5885   */\n      iszero\n      tag_183\n      jumpi\n        /* \"#utility.yul\":5804:5883   */\n      tag_184\n      tag_78\n      jump\t// in\n    tag_184:\n        /* \"#utility.yul\":5766:5885   */\n    tag_183:\n        /* \"#utility.yul\":5924:5925   */\n      0x00\n        /* \"#utility.yul\":5949:6013   */\n      tag_185\n        /* \"#utility.yul\":6005:6012   */\n      dup5\n        /* \"#utility.yul\":5996:6002   */\n      dup3\n        /* \"#utility.yul\":5985:5994   */\n      dup6\n        /* \"#utility.yul\":5981:6003   */\n      add\n        /* \"#utility.yul\":5949:6013   */\n      tag_98\n      jump\t// in\n    tag_185:\n        /* \"#utility.yul\":5939:6013   */\n      swap2\n      pop\n        /* \"#utility.yul\":5895:6023   */\n      pop\n        /* \"#utility.yul\":5679:6030   */\n      swap3\n      swap2\n      pop\n      pop\n      jump\t// out\n        /* \"#utility.yul\":6036:6368   */\n    tag_28:\n        /* \"#utility.yul\":6157:6161   */\n      0x00\n        /* \"#utility.yul\":6195:6197   */\n      0x40\n        /* \"#utility.yul\":6184:6193   */\n      dup3\n        /* \"#utility.yul\":6180:6198   */\n      add\n        /* \"#utility.yul\":6172:6198   */\n      swap1\n      pop\n        /* \"#utility.yul\":6208:6279   */\n      tag_187\n        /* \"#utility.yul\":6276:6277   */\n      0x00\n        /* \"#utility.yul\":6265:6274   */\n      dup4\n        /* \"#utility.yul\":6261:6278   */\n      add\n        /* \"#utility.yul\":6252:6258   */\n      dup6\n        /* \"#utility.yul\":6208:6279   */\n      tag_96\n      jump\t// in\n    tag_187:\n        /* \"#utility.yul\":6289:6361   */\n      tag_188\n        /* \"#utility.yul\":6357:6359   */\n      0x20\n        /* \"#utility.yul\":6346:6355   */\n      dup4\n        /* \"#utility.yul\":6342:6360   */\n      add\n        /* \"#utility.yul\":6333:6339   */\n      dup5\n        /* \"#utility.yul\":6289:6361   */\n      tag_76\n      jump\t// in\n    tag_188:\n        /* \"#utility.yul\":6036:6368   */\n      swap4\n      swap3\n      pop\n      pop\n      pop\n      jump\t// out\n        /* \"#utility.yul\":6374:6464   */\n    tag_99:\n        /* \"#utility.yul\":6408:6415   */\n      0x00\n        /* \"#utility.yul\":6451:6456   */\n      dup2\n        /* \"#utility.yul\":6444:6457   */\n      iszero\n        /* \"#utility.yul\":6437:6458   */\n      iszero\n        /* \"#utility.yul\":6426:6458   */\n      swap1\n      pop\n        /* \"#utility.yul\":6374:6464   */\n      swap2\n      swap1\n      pop\n      jump\t// out\n        /* \"#utility.yul\":6470:6586   */\n    tag_100:\n        /* \"#utility.yul\":6540:6561   */\n      tag_191\n        /* \"#utility.yul\":6555:6560   */\n      dup2\n        /* \"#utility.yul\":6540:6561   */\n      tag_99\n      jump\t// in\n    tag_191:\n        /* \"#utility.yul\":6533:6538   */\n      dup2\n        /* \"#utility.yul\":6530:6562   */\n      eq\n        /* \"#utility.yul\":6520:6580   */\n      tag_192\n      jumpi\n        /* \"#utility.yul\":6576:6577   */\n      0x00\n        /* \"#utility.yul\":6573:6574   */\n      dup1\n        /* \"#utility.yul\":6566:6578   */\n      revert\n        /* \"#utility.yul\":6520:6580   */\n    tag_192:\n        /* \"#utility.yul\":6470:6586   */\n      pop\n      jump\t// out\n        /* \"#utility.yul\":6592:6729   */\n    tag_101:\n        /* \"#utility.yul\":6646:6651   */\n      0x00\n        /* \"#utility.yul\":6677:6683   */\n      dup2\n        /* \"#utility.yul\":6671:6684   */\n      mload\n        /* \"#utility.yul\":6662:6684   */\n      swap1\n      pop\n        /* \"#utility.yul\":6693:6723   */\n      tag_194\n        /* \"#utility.yul\":6717:6722   */\n      dup2\n        /* \"#utility.yul\":6693:6723   */\n      tag_100\n      jump\t// in\n    tag_194:\n        /* \"#utility.yul\":6592:6729   */\n      swap3\n      swap2\n      pop\n      pop\n      jump\t// out\n        /* \"#utility.yul\":6735:7080   */\n    tag_32:\n        /* \"#utility.yul\":6802:6808   */\n      0x00\n        /* \"#utility.yul\":6851:6853   */\n      0x20\n        /* \"#utility.yul\":6839:6848   */\n      dup3\n        /* \"#utility.yul\":6830:6837   */\n      dup5\n        /* \"#utility.yul\":6826:6849   */\n      sub\n        /* \"#utility.yul\":6822:6854   */\n      slt\n        /* \"#utility.yul\":6819:6938   */\n      iszero\n      tag_196\n      jumpi\n        /* \"#utility.yul\":6857:6936   */\n      tag_197\n      tag_78\n      jump\t// in\n    tag_197:\n        /* \"#utility.yul\":6819:6938   */\n    tag_196:\n        /* \"#utility.yul\":6977:6978   */\n      0x00\n        /* \"#utility.yul\":7002:7063   */\n      tag_198\n        /* \"#utility.yul\":7055:7062   */\n      dup5\n        /* \"#utility.yul\":7046:7052   */\n      dup3\n        /* \"#utility.yul\":7035:7044   */\n      dup6\n        /* \"#utility.yul\":7031:7053   */\n      add\n        /* \"#utility.yul\":7002:7063   */\n      tag_101\n      jump\t// in\n    tag_198:\n        /* \"#utility.yul\":6992:7063   */\n      swap2\n      pop\n        /* \"#utility.yul\":6948:7073   */\n      pop\n        /* \"#utility.yul\":6735:7080   */\n      swap3\n      swap2\n      pop\n      pop\n      jump\t// out\n        /* \"#utility.yul\":7086:7266   */\n    tag_102:\n        /* \"#utility.yul\":7134:7211   */\n      0x4e487b7100000000000000000000000000000000000000000000000000000000\n        /* \"#utility.yul\":7131:7132   */\n      0x00\n        /* \"#utility.yul\":7124:7212   */\n      mstore\n        /* \"#utility.yul\":7231:7235   */\n      0x11\n        /* \"#utility.yul\":7228:7229   */\n      0x04\n        /* \"#utility.yul\":7221:7236   */\n      mstore\n        /* \"#utility.yul\":7255:7259   */\n      0x24\n        /* \"#utility.yul\":7252:7253   */\n      0x00\n        /* \"#utility.yul\":7245:7260   */\n      revert\n        /* \"#utility.yul\":7272:7682   */\n    tag_48:\n        /* \"#utility.yul\":7312:7319   */\n      0x00\n        /* \"#utility.yul\":7335:7355   */\n      tag_201\n        /* \"#utility.yul\":7353:7354   */\n      dup3\n        /* \"#utility.yul\":7335:7355   */\n      tag_75\n      jump\t// in\n    tag_201:\n        /* \"#utility.yul\":7330:7355   */\n      swap2\n      pop\n        /* \"#utility.yul\":7369:7389   */\n      tag_202\n        /* \"#utility.yul\":7387:7388   */\n      dup4\n        /* \"#utility.yul\":7369:7389   */\n      tag_75\n      jump\t// in\n    tag_202:\n        /* \"#utility.yul\":7364:7389   */\n      swap3\n      pop\n        /* \"#utility.yul\":7424:7425   */\n      dup3\n        /* \"#utility.yul\":7421:7422   */\n      dup3\n        /* \"#utility.yul\":7417:7426   */\n      mul\n        /* \"#utility.yul\":7446:7476   */\n      tag_203\n        /* \"#utility.yul\":7464:7475   */\n      dup2\n        /* \"#utility.yul\":7446:7476   */\n      tag_75\n      jump\t// in\n    tag_203:\n        /* \"#utility.yul\":7435:7476   */\n      swap2\n      pop\n        /* \"#utility.yul\":7625:7626   */\n      dup3\n        /* \"#utility.yul\":7616:7623   */\n      dup3\n        /* \"#utility.yul\":7612:7627   */\n      div\n        /* \"#utility.yul\":7609:7610   */\n      dup5\n        /* \"#utility.yul\":7606:7628   */\n      eq\n        /* \"#utility.yul\":7586:7587   */\n      dup4\n        /* \"#utility.yul\":7579:7588   */\n      iszero\n        /* \"#utility.yul\":7559:7642   */\n      or\n        /* \"#utility.yul\":7536:7675   */\n      tag_204\n      jumpi\n        /* \"#utility.yul\":7655:7673   */\n      tag_205\n      tag_102\n      jump\t// in\n    tag_205:\n        /* \"#utility.yul\":7536:7675   */\n    tag_204:\n        /* \"#utility.yul\":7320:7682   */\n      pop\n        /* \"#utility.yul\":7272:7682   */\n      swap3\n      swap2\n      pop\n      pop\n      jump\t// out\n        /* \"#utility.yul\":7688:7868   */\n    tag_103:\n        /* \"#utility.yul\":7736:7813   */\n      0x4e487b7100000000000000000000000000000000000000000000000000000000\n        /* \"#utility.yul\":7733:7734   */\n      0x00\n        /* \"#utility.yul\":7726:7814   */\n      mstore\n        /* \"#utility.yul\":7833:7837   */\n      0x12\n        /* \"#utility.yul\":7830:7831   */\n      0x04\n        /* \"#utility.yul\":7823:7838   */\n      mstore\n        /* \"#utility.yul\":7857:7861   */\n      0x24\n        /* \"#utility.yul\":7854:7855   */\n      0x00\n        /* \"#utility.yul\":7847:7862   */\n      revert\n        /* \"#utility.yul\":7874:8059   */\n    tag_50:\n        /* \"#utility.yul\":7914:7915   */\n      0x00\n        /* \"#utility.yul\":7931:7951   */\n      tag_208\n        /* \"#utility.yul\":7949:7950   */\n      dup3\n        /* \"#utility.yul\":7931:7951   */\n      tag_75\n      jump\t// in\n    tag_208:\n        /* \"#utility.yul\":7926:7951   */\n      swap2\n      pop\n        /* \"#utility.yul\":7965:7985   */\n      tag_209\n        /* \"#utility.yul\":7983:7984   */\n      dup4\n        /* \"#utility.yul\":7965:7985   */\n      tag_75\n      jump\t// in\n    tag_209:\n        /* \"#utility.yul\":7960:7985   */\n      swap3\n      pop\n        /* \"#utility.yul\":8004:8005   */\n      dup3\n        /* \"#utility.yul\":7994:8029   */\n      tag_210\n      jumpi\n        /* \"#utility.yul\":8009:8027   */\n      tag_211\n      tag_103\n      jump\t// in\n    tag_211:\n        /* \"#utility.yul\":7994:8029   */\n    tag_210:\n        /* \"#utility.yul\":8051:8052   */\n      dup3\n        /* \"#utility.yul\":8048:8049   */\n      dup3\n        /* \"#utility.yul\":8044:8053   */\n      div\n        /* \"#utility.yul\":8039:8053   */\n      swap1\n      pop\n        /* \"#utility.yul\":7874:8059   */\n      swap3\n      swap2\n      pop\n      pop\n      jump\t// out\n        /* \"#utility.yul\":8065:8245   */\n    tag_62:\n        /* \"#utility.yul\":8113:8190   */\n      0x4e487b7100000000000000000000000000000000000000000000000000000000\n        /* \"#utility.yul\":8110:8111   */\n      0x00\n        /* \"#utility.yul\":8103:8191   */\n      mstore\n        /* \"#utility.yul\":8210:8214   */\n      0x32\n        /* \"#utility.yul\":8207:8208   */\n      0x04\n        /* \"#utility.yul\":8200:8215   */\n      mstore\n        /* \"#utility.yul\":8234:8238   */\n      0x24\n        /* \"#utility.yul\":8231:8232   */\n      0x00\n        /* \"#utility.yul\":8224:8239   */\n      revert\n        /* \"#utility.yul\":8251:8355   */\n    tag_104:\n        /* \"#utility.yul\":8316:8322   */\n      0x00\n        /* \"#utility.yul\":8344:8348   */\n      0x03\n        /* \"#utility.yul\":8334:8348   */\n      swap1\n      pop\n        /* \"#utility.yul\":8251:8355   */\n      swap2\n      swap1\n      pop\n      jump\t// out\n        /* \"#utility.yul\":8361:8504   */\n    tag_105:\n        /* \"#utility.yul\":8458:8469   */\n      0x00\n        /* \"#utility.yul\":8495:8498   */\n      dup2\n        /* \"#utility.yul\":8480:8498   */\n      swap1\n      pop\n        /* \"#utility.yul\":8361:8504   */\n      swap3\n      swap2\n      pop\n      pop\n      jump\t// out\n        /* \"#utility.yul\":8510:8608   */\n    tag_106:\n        /* \"#utility.yul\":8575:8579   */\n      0x00\n        /* \"#utility.yul\":8598:8601   */\n      dup2\n        /* \"#utility.yul\":8590:8601   */\n      swap1\n      pop\n        /* \"#utility.yul\":8510:8608   */\n      swap2\n      swap1\n      pop\n      jump\t// out\n        /* \"#utility.yul\":8614:8722   */\n    tag_107:\n        /* \"#utility.yul\":8691:8715   */\n      tag_217\n        /* \"#utility.yul\":8709:8714   */\n      dup2\n        /* \"#utility.yul\":8691:8715   */\n      tag_88\n      jump\t// in\n    tag_217:\n        /* \"#utility.yul\":8686:8689   */\n      dup3\n        /* \"#utility.yul\":8679:8716   */\n      mstore\n        /* \"#utility.yul\":8614:8722   */\n      pop\n      pop\n      jump\t// out\n        /* \"#utility.yul\":8728:8907   */\n    tag_108:\n        /* \"#utility.yul\":8797:8807   */\n      0x00\n        /* \"#utility.yul\":8818:8864   */\n      tag_219\n        /* \"#utility.yul\":8860:8863   */\n      dup4\n        /* \"#utility.yul\":8852:8858   */\n      dup4\n        /* \"#utility.yul\":8818:8864   */\n      tag_107\n      jump\t// in\n    tag_219:\n        /* \"#utility.yul\":8896:8900   */\n      0x20\n        /* \"#utility.yul\":8891:8894   */\n      dup4\n        /* \"#utility.yul\":8887:8901   */\n      add\n        /* \"#utility.yul\":8873:8901   */\n      swap1\n      pop\n        /* \"#utility.yul\":8728:8907   */\n      swap3\n      swap2\n      pop\n      pop\n      jump\t// out\n        /* \"#utility.yul\":8913:9024   */\n    tag_109:\n        /* \"#utility.yul\":8981:8985   */\n      0x00\n        /* \"#utility.yul\":9013:9017   */\n      0x20\n        /* \"#utility.yul\":9008:9011   */\n      dup3\n        /* \"#utility.yul\":9004:9018   */\n      add\n        /* \"#utility.yul\":8996:9018   */\n      swap1\n      pop\n        /* \"#utility.yul\":8913:9024   */\n      swap2\n      swap1\n      pop\n      jump\t// out\n        /* \"#utility.yul\":9062:9756   */\n    tag_110:\n        /* \"#utility.yul\":9198:9250   */\n      tag_222\n        /* \"#utility.yul\":9244:9249   */\n      dup2\n        /* \"#utility.yul\":9198:9250   */\n      tag_104\n      jump\t// in\n    tag_222:\n        /* \"#utility.yul\":9266:9350   */\n      tag_223\n        /* \"#utility.yul\":9343:9349   */\n      dup2\n        /* \"#utility.yul\":9338:9341   */\n      dup5\n        /* \"#utility.yul\":9266:9350   */\n      tag_105\n      jump\t// in\n    tag_223:\n        /* \"#utility.yul\":9259:9350   */\n      swap3\n      pop\n        /* \"#utility.yul\":9374:9428   */\n      tag_224\n        /* \"#utility.yul\":9422:9427   */\n      dup3\n        /* \"#utility.yul\":9374:9428   */\n      tag_106\n      jump\t// in\n    tag_224:\n        /* \"#utility.yul\":9451:9458   */\n      dup1\n        /* \"#utility.yul\":9482:9483   */\n      0x00\n        /* \"#utility.yul\":9467:9749   */\n    tag_225:\n        /* \"#utility.yul\":9492:9498   */\n      dup4\n        /* \"#utility.yul\":9489:9490   */\n      dup2\n        /* \"#utility.yul\":9486:9499   */\n      lt\n        /* \"#utility.yul\":9467:9749   */\n      iszero\n      tag_227\n      jumpi\n        /* \"#utility.yul\":9568:9574   */\n      dup2\n        /* \"#utility.yul\":9562:9575   */\n      mload\n        /* \"#utility.yul\":9595:9658   */\n      tag_228\n        /* \"#utility.yul\":9654:9657   */\n      dup8\n        /* \"#utility.yul\":9639:9652   */\n      dup3\n        /* \"#utility.yul\":9595:9658   */\n      tag_108\n      jump\t// in\n    tag_228:\n        /* \"#utility.yul\":9588:9658   */\n      swap7\n      pop\n        /* \"#utility.yul\":9681:9739   */\n      tag_229\n        /* \"#utility.yul\":9732:9738   */\n      dup4\n        /* \"#utility.yul\":9681:9739   */\n      tag_109\n      jump\t// in\n    tag_229:\n        /* \"#utility.yul\":9671:9739   */\n      swap3\n      pop\n        /* \"#utility.yul\":9527:9749   */\n      pop\n        /* \"#utility.yul\":9514:9515   */\n      0x01\n        /* \"#utility.yul\":9511:9512   */\n      dup2\n        /* \"#utility.yul\":9507:9516   */\n      add\n        /* \"#utility.yul\":9502:9516   */\n      swap1\n      pop\n        /* \"#utility.yul\":9467:9749   */\n      jump(tag_225)\n    tag_227:\n        /* \"#utility.yul\":9471:9485   */\n      pop\n        /* \"#utility.yul\":9174:9756   */\n      pop\n      pop\n      pop\n        /* \"#utility.yul\":9062:9756   */\n      pop\n      pop\n      jump\t// out\n        /* \"#utility.yul\":9762:9866   */\n    tag_111:\n        /* \"#utility.yul\":9827:9833   */\n      0x00\n        /* \"#utility.yul\":9855:9859   */\n      0x03\n        /* \"#utility.yul\":9845:9859   */\n      swap1\n      pop\n        /* \"#utility.yul\":9762:9866   */\n      swap2\n      swap1\n      pop\n      jump\t// out\n        /* \"#utility.yul\":9872:10015   */\n    tag_112:\n        /* \"#utility.yul\":9969:9980   */\n      0x00\n        /* \"#utility.yul\":10006:10009   */\n      dup2\n        /* \"#utility.yul\":9991:10009   */\n      swap1\n      pop\n        /* \"#utility.yul\":9872:10015   */\n      swap3\n      swap2\n      pop\n      pop\n      jump\t// out\n        /* \"#utility.yul\":10021:10119   */\n    tag_113:\n        /* \"#utility.yul\":10086:10090   */\n      0x00\n        /* \"#utility.yul\":10109:10112   */\n      dup2\n        /* \"#utility.yul\":10101:10112   */\n      swap1\n      pop\n        /* \"#utility.yul\":10021:10119   */\n      swap2\n      swap1\n      pop\n      jump\t// out\n        /* \"#utility.yul\":10125:10233   */\n    tag_114:\n        /* \"#utility.yul\":10202:10226   */\n      tag_234\n        /* \"#utility.yul\":10220:10225   */\n      dup2\n        /* \"#utility.yul\":10202:10226   */\n      tag_75\n      jump\t// in\n    tag_234:\n        /* \"#utility.yul\":10197:10200   */\n      dup3\n        /* \"#utility.yul\":10190:10227   */\n      mstore\n        /* \"#utility.yul\":10125:10233   */\n      pop\n      pop\n      jump\t// out\n        /* \"#utility.yul\":10239:10418   */\n    tag_115:\n        /* \"#utility.yul\":10308:10318   */\n      0x00\n        /* \"#utility.yul\":10329:10375   */\n      tag_236\n        /* \"#utility.yul\":10371:10374   */\n      dup4\n        /* \"#utility.yul\":10363:10369   */\n      dup4\n        /* \"#utility.yul\":10329:10375   */\n      tag_114\n      jump\t// in\n    tag_236:\n        /* \"#utility.yul\":10407:10411   */\n      0x20\n        /* \"#utility.yul\":10402:10405   */\n      dup4\n        /* \"#utility.yul\":10398:10412   */\n      add\n        /* \"#utility.yul\":10384:10412   */\n      swap1\n      pop\n        /* \"#utility.yul\":10239:10418   */\n      swap3\n      swap2\n      pop\n      pop\n      jump\t// out\n        /* \"#utility.yul\":10424:10535   */\n    tag_116:\n        /* \"#utility.yul\":10492:10496   */\n      0x00\n        /* \"#utility.yul\":10524:10528   */\n      0x20\n        /* \"#utility.yul\":10519:10522   */\n      dup3\n        /* \"#utility.yul\":10515:10529   */\n      add\n        /* \"#utility.yul\":10507:10529   */\n      swap1\n      pop\n        /* \"#utility.yul\":10424:10535   */\n      swap2\n      swap1\n      pop\n      jump\t// out\n        /* \"#utility.yul\":10573:11267   */\n    tag_117:\n        /* \"#utility.yul\":10709:10761   */\n      tag_239\n        /* \"#utility.yul\":10755:10760   */\n      dup2\n        /* \"#utility.yul\":10709:10761   */\n      tag_111\n      jump\t// in\n    tag_239:\n        /* \"#utility.yul\":10777:10861   */\n      tag_240\n        /* \"#utility.yul\":10854:10860   */\n      dup2\n        /* \"#utility.yul\":10849:10852   */\n      dup5\n        /* \"#utility.yul\":10777:10861   */\n      tag_112\n      jump\t// in\n    tag_240:\n        /* \"#utility.yul\":10770:10861   */\n      swap3\n      pop\n        /* \"#utility.yul\":10885:10939   */\n      tag_241\n        /* \"#utility.yul\":10933:10938   */\n      dup3\n        /* \"#utility.yul\":10885:10939   */\n      tag_113\n      jump\t// in\n    tag_241:\n        /* \"#utility.yul\":10962:10969   */\n      dup1\n        /* \"#utility.yul\":10993:10994   */\n      0x00\n        /* \"#utility.yul\":10978:11260   */\n    tag_242:\n        /* \"#utility.yul\":11003:11009   */\n      dup4\n        /* \"#utility.yul\":11000:11001   */\n      dup2\n        /* \"#utility.yul\":10997:11010   */\n      lt\n        /* \"#utility.yul\":10978:11260   */\n      iszero\n      tag_244\n      jumpi\n        /* \"#utility.yul\":11079:11085   */\n      dup2\n        /* \"#utility.yul\":11073:11086   */\n      mload\n        /* \"#utility.yul\":11106:11169   */\n      tag_245\n        /* \"#utility.yul\":11165:11168   */\n      dup8\n        /* \"#utility.yul\":11150:11163   */\n      dup3\n        /* \"#utility.yul\":11106:11169   */\n      tag_115\n      jump\t// in\n    tag_245:\n        /* \"#utility.yul\":11099:11169   */\n      swap7\n      pop\n        /* \"#utility.yul\":11192:11250   */\n      tag_246\n        /* \"#utility.yul\":11243:11249   */\n      dup4\n        /* \"#utility.yul\":11192:11250   */\n      tag_116\n      jump\t// in\n    tag_246:\n        /* \"#utility.yul\":11182:11250   */\n      swap3\n      pop\n        /* \"#utility.yul\":11038:11260   */\n      pop\n        /* \"#utility.yul\":11025:11026   */\n      0x01\n        /* \"#utility.yul\":11022:11023   */\n      dup2\n        /* \"#utility.yul\":11018:11027   */\n      add\n        /* \"#utility.yul\":11013:11027   */\n      swap1\n      pop\n        /* \"#utility.yul\":10978:11260   */\n      jump(tag_242)\n    tag_244:\n        /* \"#utility.yul\":10982:10996   */\n      pop\n        /* \"#utility.yul\":10685:11267   */\n      pop\n      pop\n      pop\n        /* \"#utility.yul\":10573:11267   */\n      pop\n      pop\n      jump\t// out\n        /* \"#utility.yul\":11273:11790   */\n    tag_74:\n        /* \"#utility.yul\":11486:11490   */\n      0x00\n        /* \"#utility.yul\":11524:11527   */\n      0xc0\n        /* \"#utility.yul\":11513:11522   */\n      dup3\n        /* \"#utility.yul\":11509:11528   */\n      add\n        /* \"#utility.yul\":11501:11528   */\n      swap1\n      pop\n        /* \"#utility.yul\":11538:11655   */\n      tag_248\n        /* \"#utility.yul\":11652:11653   */\n      0x00\n        /* \"#utility.yul\":11641:11650   */\n      dup4\n        /* \"#utility.yul\":11637:11654   */\n      add\n        /* \"#utility.yul\":11628:11634   */\n      dup6\n        /* \"#utility.yul\":11538:11655   */\n      tag_110\n      jump\t// in\n    tag_248:\n        /* \"#utility.yul\":11665:11783   */\n      tag_249\n        /* \"#utility.yul\":11779:11781   */\n      0x60\n        /* \"#utility.yul\":11768:11777   */\n      dup4\n        /* \"#utility.yul\":11764:11782   */\n      add\n        /* \"#utility.yul\":11755:11761   */\n      dup5\n        /* \"#utility.yul\":11665:11783   */\n      tag_117\n      jump\t// in\n    tag_249:\n        /* \"#utility.yul\":11273:11790   */\n      swap4\n      swap3\n      pop\n      pop\n      pop\n      jump\t// out\n\n    auxdata: 0xa2646970667358221220c7777280e329c0e244e7067269f34ff51058f588a7a3e109337de352cdac4a1f64736f6c634300081a0033\n}\n",
				"bytecode": {
					"linkReferences": {},
					"object": "60c060405273833589fcd6edb6e08f4c7c32d4f71b54bda0291373ffffffffffffffffffffffffffffffffffffffff1660809073ffffffffffffffffffffffffffffffffffffffff168152507352c043c7120d7da35ffddf6c5c2359d503cee5f873ffffffffffffffffffffffffffffffffffffffff1660a09073ffffffffffffffffffffffffffffffffffffffff1681525034801561009d575f80fd5b5060805160a051610ceb6100f65f395f81816089015281816101ee0152818161030f015261061201525f8181610118015281816101b2015281816102720152818161039e015281816104fe01526105d60152610ceb5ff3fe608060405234801561000f575f80fd5b506004361061003f575f3560e01c806390decdae14610043578063b321e2271461004d578063fe272fd91461006b575b5f80fd5b61004b610087565b005b61005561026f565b60405161006291906106e7565b60405180910390f35b610085600480360381019061008091906108a5565b61030d565b005b7f000000000000000000000000000000000000000000000000000000000000000073ffffffffffffffffffffffffffffffffffffffff163373ffffffffffffffffffffffffffffffffffffffff1614610115576040517f08c379a000000000000000000000000000000000000000000000000000000000815260040161010c9061092a565b60405180910390fd5b5f7f000000000000000000000000000000000000000000000000000000000000000073ffffffffffffffffffffffffffffffffffffffff166370a08231306040518263ffffffff1660e01b815260040161016f9190610957565b602060405180830381865afa15801561018a573d5f803e3d5ffd5b505050506040513d601f19601f820116820180604052508101906101ae919061099a565b90507f000000000000000000000000000000000000000000000000000000000000000073ffffffffffffffffffffffffffffffffffffffff1663a9059cbb7f0000000000000000000000000000000000000000000000000000000000000000836040518363ffffffff1660e01b815260040161022b9291906109c5565b6020604051808303815f875af1158015610247573d5f803e3d5ffd5b505050506040513d601f19601f8201168201806040525081019061026b9190610a21565b5050565b5f7f000000000000000000000000000000000000000000000000000000000000000073ffffffffffffffffffffffffffffffffffffffff166370a08231306040518263ffffffff1660e01b81526004016102c99190610957565b602060405180830381865afa1580156102e4573d5f803e3d5ffd5b505050506040513d601f19601f82011682018060405250810190610308919061099a565b905090565b7f000000000000000000000000000000000000000000000000000000000000000073ffffffffffffffffffffffffffffffffffffffff163373ffffffffffffffffffffffffffffffffffffffff161461039b576040517f08c379a00000000000000000000000000000000000000000000000000000000081526004016103929061092a565b60405180910390fd5b5f7f000000000000000000000000000000000000000000000000000000000000000073ffffffffffffffffffffffffffffffffffffffff166370a08231306040518263ffffffff1660e01b81526004016103f59190610957565b602060405180830381865afa158015610410573d5f803e3d5ffd5b505050506040513d601f19601f82011682018060405250810190610434919061099a565b90505f810361046f576040517f786e0a9900000000000000000000000000000000000000000000000000000000815260040160405180910390fd5b5f6040518060600160405280606484603061048a9190610a79565b6104949190610ae7565b8152602001606484601d6104a89190610a79565b6104b29190610ae7565b815260200160648460136104c69190610a79565b6104d09190610ae7565b81525090505f60648360046104e59190610a79565b6104ef9190610ae7565b90505f5b60038110156105d3577f000000000000000000000000000000000000000000000000000000000000000073ffffffffffffffffffffffffffffffffffffffff1663a9059cbb86836003811061054b5761054a610b17565b5b602002015185846003811061056357610562610b17565b5b60200201516040518363ffffffff1660e01b81526004016105859291906109c5565b6020604051808303815f875af11580156105a1573d5f803e3d5ffd5b505050506040513d601f19601f820116820180604052508101906105c59190610a21565b5080806001019150506104f3565b507f000000000000000000000000000000000000000000000000000000000000000073ffffffffffffffffffffffffffffffffffffffff1663a9059cbb7f0000000000000000000000000000000000000000000000000000000000000000836040518363ffffffff1660e01b815260040161064f9291906109c5565b6020604051808303815f875af115801561066b573d5f803e3d5ffd5b505050506040513d601f19601f8201168201806040525081019061068f9190610a21565b507f6b6ef27261dfd975a881981cb28adc6afe7963673c859bce73d79e0e09be34b084836040516106c1929190610c8e565b60405180910390a150505050565b5f819050919050565b6106e1816106cf565b82525050565b5f6020820190506106fa5f8301846106d8565b92915050565b5f604051905090565b5f80fd5b5f80fd5b5f601f19601f8301169050919050565b7f4e487b71000000000000000000000000000000000000000000000000000000005f52604160045260245ffd5b61075782610711565b810181811067ffffffffffffffff8211171561077657610775610721565b5b80604052505050565b5f610788610700565b9050610794828261074e565b919050565b5f67ffffffffffffffff8211156107b3576107b2610721565b5b602082029050919050565b5f80fd5b5f73ffffffffffffffffffffffffffffffffffffffff82169050919050565b5f6107eb826107c2565b9050919050565b6107fb816107e1565b8114610805575f80fd5b50565b5f81359050610816816107f2565b92915050565b5f61082e61082984610799565b61077f565b90508060208402830185811115610848576108476107be565b5b835b81811015610871578061085d8882610808565b84526020840193505060208101905061084a565b5050509392505050565b5f82601f83011261088f5761088e61070d565b5b600361089c84828561081c565b91505092915050565b5f606082840312156108ba576108b9610709565b5b5f6108c78482850161087b565b91505092915050565b5f82825260208201905092915050565b7f4f6e6c792061646d696e2077616c6c65742100000000000000000000000000005f82015250565b5f6109146012836108d0565b915061091f826108e0565b602082019050919050565b5f6020820190508181035f83015261094181610908565b9050919050565b610951816107e1565b82525050565b5f60208201905061096a5f830184610948565b92915050565b610979816106cf565b8114610983575f80fd5b50565b5f8151905061099481610970565b92915050565b5f602082840312156109af576109ae610709565b5b5f6109bc84828501610986565b91505092915050565b5f6040820190506109d85f830185610948565b6109e560208301846106d8565b9392505050565b5f8115159050919050565b610a00816109ec565b8114610a0a575f80fd5b50565b5f81519050610a1b816109f7565b92915050565b5f60208284031215610a3657610a35610709565b5b5f610a4384828501610a0d565b91505092915050565b7f4e487b71000000000000000000000000000000000000000000000000000000005f52601160045260245ffd5b5f610a83826106cf565b9150610a8e836106cf565b9250828202610a9c816106cf565b91508282048414831517610ab357610ab2610a4c565b5b5092915050565b7f4e487b71000000000000000000000000000000000000000000000000000000005f52601260045260245ffd5b5f610af1826106cf565b9150610afc836106cf565b925082610b0c57610b0b610aba565b5b828204905092915050565b7f4e487b71000000000000000000000000000000000000000000000000000000005f52603260045260245ffd5b5f60039050919050565b5f81905092915050565b5f819050919050565b610b6a816107e1565b82525050565b5f610b7b8383610b61565b60208301905092915050565b5f602082019050919050565b610b9c81610b44565b610ba68184610b4e565b9250610bb182610b58565b805f5b83811015610be1578151610bc88782610b70565b9650610bd383610b87565b925050600181019050610bb4565b505050505050565b5f60039050919050565b5f81905092915050565b5f819050919050565b610c0f816106cf565b82525050565b5f610c208383610c06565b60208301905092915050565b5f602082019050919050565b610c4181610be9565b610c4b8184610bf3565b9250610c5682610bfd565b805f5b83811015610c86578151610c6d8782610c15565b9650610c7883610c2c565b925050600181019050610c59565b505050505050565b5f60c082019050610ca15f830185610b93565b610cae6060830184610c38565b939250505056fea2646970667358221220c7777280e329c0e244e7067269f34ff51058f588a7a3e109337de352cdac4a1f64736f6c634300081a0033",
					"opcodes": "PUSH1 0xC0 PUSH1 0x40 MSTORE PUSH20 0x833589FCD6EDB6E08F4C7C32D4F71B54BDA02913 PUSH20 0xFFFFFFFFFFFFFFFFFFFFFFFFFFFFFFFFFFFFFFFF AND PUSH1 0x80 SWAP1 PUSH20 0xFFFFFFFFFFFFFFFFFFFFFFFFFFFFFFFFFFFFFFFF AND DUP2 MSTORE POP PUSH20 0x52C043C7120D7DA35FFDDF6C5C2359D503CEE5F8 PUSH20 0xFFFFFFFFFFFFFFFFFFFFFFFFFFFFFFFFFFFFFFFF AND PUSH1 0xA0 SWAP1 PUSH20 0xFFFFFFFFFFFFFFFFFFFFFFFFFFFFFFFFFFFFFFFF AND DUP2 MSTORE POP CALLVALUE DUP1 ISZERO PUSH2 0x9D JUMPI PUSH0 DUP1 REVERT JUMPDEST POP PUSH1 0x80 MLOAD PUSH1 0xA0 MLOAD PUSH2 0xCEB PUSH2 0xF6 PUSH0 CODECOPY PUSH0 DUP2 DUP2 PUSH1 0x89 ADD MSTORE DUP2 DUP2 PUSH2 0x1EE ADD MSTORE DUP2 DUP2 PUSH2 0x30F ADD MSTORE PUSH2 0x612 ADD MSTORE PUSH0 DUP2 DUP2 PUSH2 0x118 ADD MSTORE DUP2 DUP2 PUSH2 0x1B2 ADD MSTORE DUP2 DUP2 PUSH2 0x272 ADD MSTORE DUP2 DUP2 PUSH2 0x39E ADD MSTORE DUP2 DUP2 PUSH2 0x4FE ADD MSTORE PUSH2 0x5D6 ADD MSTORE PUSH2 0xCEB PUSH0 RETURN INVALID PUSH1 0x80 PUSH1 0x40 MSTORE CALLVALUE DUP1 ISZERO PUSH2 0xF JUMPI PUSH0 DUP1 REVERT JUMPDEST POP PUSH1 0x4 CALLDATASIZE LT PUSH2 0x3F JUMPI PUSH0 CALLDATALOAD PUSH1 0xE0 SHR DUP1 PUSH4 0x90DECDAE EQ PUSH2 0x43 JUMPI DUP1 PUSH4 0xB321E227 EQ PUSH2 0x4D JUMPI DUP1 PUSH4 0xFE272FD9 EQ PUSH2 0x6B JUMPI JUMPDEST PUSH0 DUP1 REVERT JUMPDEST PUSH2 0x4B PUSH2 0x87 JUMP JUMPDEST STOP JUMPDEST PUSH2 0x55 PUSH2 0x26F JUMP JUMPDEST PUSH1 0x40 MLOAD PUSH2 0x62 SWAP2 SWAP1 PUSH2 0x6E7 JUMP JUMPDEST PUSH1 0x40 MLOAD DUP1 SWAP2 SUB SWAP1 RETURN JUMPDEST PUSH2 0x85 PUSH1 0x4 DUP1 CALLDATASIZE SUB DUP2 ADD SWAP1 PUSH2 0x80 SWAP2 SWAP1 PUSH2 0x8A5 JUMP JUMPDEST PUSH2 0x30D JUMP JUMPDEST STOP JUMPDEST PUSH32 0x0 PUSH20 0xFFFFFFFFFFFFFFFFFFFFFFFFFFFFFFFFFFFFFFFF AND CALLER PUSH20 0xFFFFFFFFFFFFFFFFFFFFFFFFFFFFFFFFFFFFFFFF AND EQ PUSH2 0x115 JUMPI PUSH1 0x40 MLOAD PUSH32 0x8C379A000000000000000000000000000000000000000000000000000000000 DUP2 MSTORE PUSH1 0x4 ADD PUSH2 0x10C SWAP1 PUSH2 0x92A JUMP JUMPDEST PUSH1 0x40 MLOAD DUP1 SWAP2 SUB SWAP1 REVERT JUMPDEST PUSH0 PUSH32 0x0 PUSH20 0xFFFFFFFFFFFFFFFFFFFFFFFFFFFFFFFFFFFFFFFF AND PUSH4 0x70A08231 ADDRESS PUSH1 0x40 MLOAD DUP3 PUSH4 0xFFFFFFFF AND PUSH1 0xE0 SHL DUP2 MSTORE PUSH1 0x4 ADD PUSH2 0x16F SWAP2 SWAP1 PUSH2 0x957 JUMP JUMPDEST PUSH1 0x20 PUSH1 0x40 MLOAD DUP1 DUP4 SUB DUP2 DUP7 GAS STATICCALL ISZERO DUP1 ISZERO PUSH2 0x18A JUMPI RETURNDATASIZE PUSH0 DUP1 RETURNDATACOPY RETURNDATASIZE PUSH0 REVERT JUMPDEST POP POP POP POP PUSH1 0x40 MLOAD RETURNDATASIZE PUSH1 0x1F NOT PUSH1 0x1F DUP3 ADD AND DUP3 ADD DUP1 PUSH1 0x40 MSTORE POP DUP2 ADD SWAP1 PUSH2 0x1AE SWAP2 SWAP1 PUSH2 0x99A JUMP JUMPDEST SWAP1 POP PUSH32 0x0 PUSH20 0xFFFFFFFFFFFFFFFFFFFFFFFFFFFFFFFFFFFFFFFF AND PUSH4 0xA9059CBB PUSH32 0x0 DUP4 PUSH1 0x40 MLOAD DUP4 PUSH4 0xFFFFFFFF AND PUSH1 0xE0 SHL DUP2 MSTORE PUSH1 0x4 ADD PUSH2 0x22B SWAP3 SWAP2 SWAP1 PUSH2 0x9C5 JUMP JUMPDEST PUSH1 0x20 PUSH1 0x40 MLOAD DUP1 DUP4 SUB DUP2 PUSH0 DUP8 GAS CALL ISZERO DUP1 ISZERO PUSH2 0x247 JUMPI RETURNDATASIZE PUSH0 DUP1 RETURNDATACOPY RETURNDATASIZE PUSH0 REVERT JUMPDEST POP POP POP POP PUSH1 0x40 MLOAD RETURNDATASIZE PUSH1 0x1F NOT PUSH1 0x1F DUP3 ADD AND DUP3 ADD DUP1 PUSH1 0x40 MSTORE POP DUP2 ADD SWAP1 PUSH2 0x26B SWAP2 SWAP1 PUSH2 0xA21 JUMP JUMPDEST POP POP JUMP JUMPDEST PUSH0 PUSH32 0x0 PUSH20 0xFFFFFFFFFFFFFFFFFFFFFFFFFFFFFFFFFFFFFFFF AND PUSH4 0x70A08231 ADDRESS PUSH1 0x40 MLOAD DUP3 PUSH4 0xFFFFFFFF AND PUSH1 0xE0 SHL DUP2 MSTORE PUSH1 0x4 ADD PUSH2 0x2C9 SWAP2 SWAP1 PUSH2 0x957 JUMP JUMPDEST PUSH1 0x20 PUSH1 0x40 MLOAD DUP1 DUP4 SUB DUP2 DUP7 GAS STATICCALL ISZERO DUP1 ISZERO PUSH2 0x2E4 JUMPI RETURNDATASIZE PUSH0 DUP1 RETURNDATACOPY RETURNDATASIZE PUSH0 REVERT JUMPDEST POP POP POP POP PUSH1 0x40 MLOAD RETURNDATASIZE PUSH1 0x1F NOT PUSH1 0x1F DUP3 ADD AND DUP3 ADD DUP1 PUSH1 0x40 MSTORE POP DUP2 ADD SWAP1 PUSH2 0x308 SWAP2 SWAP1 PUSH2 0x99A JUMP JUMPDEST SWAP1 POP SWAP1 JUMP JUMPDEST PUSH32 0x0 PUSH20 0xFFFFFFFFFFFFFFFFFFFFFFFFFFFFFFFFFFFFFFFF AND CALLER PUSH20 0xFFFFFFFFFFFFFFFFFFFFFFFFFFFFFFFFFFFFFFFF AND EQ PUSH2 0x39B JUMPI PUSH1 0x40 MLOAD PUSH32 0x8C379A000000000000000000000000000000000000000000000000000000000 DUP2 MSTORE PUSH1 0x4 ADD PUSH2 0x392 SWAP1 PUSH2 0x92A JUMP JUMPDEST PUSH1 0x40 MLOAD DUP1 SWAP2 SUB SWAP1 REVERT JUMPDEST PUSH0 PUSH32 0x0 PUSH20 0xFFFFFFFFFFFFFFFFFFFFFFFFFFFFFFFFFFFFFFFF AND PUSH4 0x70A08231 ADDRESS PUSH1 0x40 MLOAD DUP3 PUSH4 0xFFFFFFFF AND PUSH1 0xE0 SHL DUP2 MSTORE PUSH1 0x4 ADD PUSH2 0x3F5 SWAP2 SWAP1 PUSH2 0x957 JUMP JUMPDEST PUSH1 0x20 PUSH1 0x40 MLOAD DUP1 DUP4 SUB DUP2 DUP7 GAS STATICCALL ISZERO DUP1 ISZERO PUSH2 0x410 JUMPI RETURNDATASIZE PUSH0 DUP1 RETURNDATACOPY RETURNDATASIZE PUSH0 REVERT JUMPDEST POP POP POP POP PUSH1 0x40 MLOAD RETURNDATASIZE PUSH1 0x1F NOT PUSH1 0x1F DUP3 ADD AND DUP3 ADD DUP1 PUSH1 0x40 MSTORE POP DUP2 ADD SWAP1 PUSH2 0x434 SWAP2 SWAP1 PUSH2 0x99A JUMP JUMPDEST SWAP1 POP PUSH0 DUP2 SUB PUSH2 0x46F JUMPI PUSH1 0x40 MLOAD PUSH32 0x786E0A9900000000000000000000000000000000000000000000000000000000 DUP2 MSTORE PUSH1 0x4 ADD PUSH1 0x40 MLOAD DUP1 SWAP2 SUB SWAP1 REVERT JUMPDEST PUSH0 PUSH1 0x40 MLOAD DUP1 PUSH1 0x60 ADD PUSH1 0x40 MSTORE DUP1 PUSH1 0x64 DUP5 PUSH1 0x30 PUSH2 0x48A SWAP2 SWAP1 PUSH2 0xA79 JUMP JUMPDEST PUSH2 0x494 SWAP2 SWAP1 PUSH2 0xAE7 JUMP JUMPDEST DUP2 MSTORE PUSH1 0x20 ADD PUSH1 0x64 DUP5 PUSH1 0x1D PUSH2 0x4A8 SWAP2 SWAP1 PUSH2 0xA79 JUMP JUMPDEST PUSH2 0x4B2 SWAP2 SWAP1 PUSH2 0xAE7 JUMP JUMPDEST DUP2 MSTORE PUSH1 0x20 ADD PUSH1 0x64 DUP5 PUSH1 0x13 PUSH2 0x4C6 SWAP2 SWAP1 PUSH2 0xA79 JUMP JUMPDEST PUSH2 0x4D0 SWAP2 SWAP1 PUSH2 0xAE7 JUMP JUMPDEST DUP2 MSTORE POP SWAP1 POP PUSH0 PUSH1 0x64 DUP4 PUSH1 0x4 PUSH2 0x4E5 SWAP2 SWAP1 PUSH2 0xA79 JUMP JUMPDEST PUSH2 0x4EF SWAP2 SWAP1 PUSH2 0xAE7 JUMP JUMPDEST SWAP1 POP PUSH0 JUMPDEST PUSH1 0x3 DUP2 LT ISZERO PUSH2 0x5D3 JUMPI PUSH32 0x0 PUSH20 0xFFFFFFFFFFFFFFFFFFFFFFFFFFFFFFFFFFFFFFFF AND PUSH4 0xA9059CBB DUP7 DUP4 PUSH1 0x3 DUP2 LT PUSH2 0x54B JUMPI PUSH2 0x54A PUSH2 0xB17 JUMP JUMPDEST JUMPDEST PUSH1 0x20 MUL ADD MLOAD DUP6 DUP5 PUSH1 0x3 DUP2 LT PUSH2 0x563 JUMPI PUSH2 0x562 PUSH2 0xB17 JUMP JUMPDEST JUMPDEST PUSH1 0x20 MUL ADD MLOAD PUSH1 0x40 MLOAD DUP4 PUSH4 0xFFFFFFFF AND PUSH1 0xE0 SHL DUP2 MSTORE PUSH1 0x4 ADD PUSH2 0x585 SWAP3 SWAP2 SWAP1 PUSH2 0x9C5 JUMP JUMPDEST PUSH1 0x20 PUSH1 0x40 MLOAD DUP1 DUP4 SUB DUP2 PUSH0 DUP8 GAS CALL ISZERO DUP1 ISZERO PUSH2 0x5A1 JUMPI RETURNDATASIZE PUSH0 DUP1 RETURNDATACOPY RETURNDATASIZE PUSH0 REVERT JUMPDEST POP POP POP POP PUSH1 0x40 MLOAD RETURNDATASIZE PUSH1 0x1F NOT PUSH1 0x1F DUP3 ADD AND DUP3 ADD DUP1 PUSH1 0x40 MSTORE POP DUP2 ADD SWAP1 PUSH2 0x5C5 SWAP2 SWAP1 PUSH2 0xA21 JUMP JUMPDEST POP DUP1 DUP1 PUSH1 0x1 ADD SWAP2 POP POP PUSH2 0x4F3 JUMP JUMPDEST POP PUSH32 0x0 PUSH20 0xFFFFFFFFFFFFFFFFFFFFFFFFFFFFFFFFFFFFFFFF AND PUSH4 0xA9059CBB PUSH32 0x0 DUP4 PUSH1 0x40 MLOAD DUP4 PUSH4 0xFFFFFFFF AND PUSH1 0xE0 SHL DUP2 MSTORE PUSH1 0x4 ADD PUSH2 0x64F SWAP3 SWAP2 SWAP1 PUSH2 0x9C5 JUMP JUMPDEST PUSH1 0x20 PUSH1 0x40 MLOAD DUP1 DUP4 SUB DUP2 PUSH0 DUP8 GAS CALL ISZERO DUP1 ISZERO PUSH2 0x66B JUMPI RETURNDATASIZE PUSH0 DUP1 RETURNDATACOPY RETURNDATASIZE PUSH0 REVERT JUMPDEST POP POP POP POP PUSH1 0x40 MLOAD RETURNDATASIZE PUSH1 0x1F NOT PUSH1 0x1F DUP3 ADD AND DUP3 ADD DUP1 PUSH1 0x40 MSTORE POP DUP2 ADD SWAP1 PUSH2 0x68F SWAP2 SWAP1 PUSH2 0xA21 JUMP JUMPDEST POP PUSH32 0x6B6EF27261DFD975A881981CB28ADC6AFE7963673C859BCE73D79E0E09BE34B0 DUP5 DUP4 PUSH1 0x40 MLOAD PUSH2 0x6C1 SWAP3 SWAP2 SWAP1 PUSH2 0xC8E JUMP JUMPDEST PUSH1 0x40 MLOAD DUP1 SWAP2 SUB SWAP1 LOG1 POP POP POP POP JUMP JUMPDEST PUSH0 DUP2 SWAP1 POP SWAP2 SWAP1 POP JUMP JUMPDEST PUSH2 0x6E1 DUP2 PUSH2 0x6CF JUMP JUMPDEST DUP3 MSTORE POP POP JUMP JUMPDEST PUSH0 PUSH1 0x20 DUP3 ADD SWAP1 POP PUSH2 0x6FA PUSH0 DUP4 ADD DUP5 PUSH2 0x6D8 JUMP JUMPDEST SWAP3 SWAP2 POP POP JUMP JUMPDEST PUSH0 PUSH1 0x40 MLOAD SWAP1 POP SWAP1 JUMP JUMPDEST PUSH0 DUP1 REVERT JUMPDEST PUSH0 DUP1 REVERT JUMPDEST PUSH0 PUSH1 0x1F NOT PUSH1 0x1F DUP4 ADD AND SWAP1 POP SWAP2 SWAP1 POP JUMP JUMPDEST PUSH32 0x4E487B7100000000000000000000000000000000000000000000000000000000 PUSH0 MSTORE PUSH1 0x41 PUSH1 0x4 MSTORE PUSH1 0x24 PUSH0 REVERT JUMPDEST PUSH2 0x757 DUP3 PUSH2 0x711 JUMP JUMPDEST DUP2 ADD DUP2 DUP2 LT PUSH8 0xFFFFFFFFFFFFFFFF DUP3 GT OR ISZERO PUSH2 0x776 JUMPI PUSH2 0x775 PUSH2 0x721 JUMP JUMPDEST JUMPDEST DUP1 PUSH1 0x40 MSTORE POP POP POP JUMP JUMPDEST PUSH0 PUSH2 0x788 PUSH2 0x700 JUMP JUMPDEST SWAP1 POP PUSH2 0x794 DUP3 DUP3 PUSH2 0x74E JUMP JUMPDEST SWAP2 SWAP1 POP JUMP JUMPDEST PUSH0 PUSH8 0xFFFFFFFFFFFFFFFF DUP3 GT ISZERO PUSH2 0x7B3 JUMPI PUSH2 0x7B2 PUSH2 0x721 JUMP JUMPDEST JUMPDEST PUSH1 0x20 DUP3 MUL SWAP1 POP SWAP2 SWAP1 POP JUMP JUMPDEST PUSH0 DUP1 REVERT JUMPDEST PUSH0 PUSH20 0xFFFFFFFFFFFFFFFFFFFFFFFFFFFFFFFFFFFFFFFF DUP3 AND SWAP1 POP SWAP2 SWAP1 POP JUMP JUMPDEST PUSH0 PUSH2 0x7EB DUP3 PUSH2 0x7C2 JUMP JUMPDEST SWAP1 POP SWAP2 SWAP1 POP JUMP JUMPDEST PUSH2 0x7FB DUP2 PUSH2 0x7E1 JUMP JUMPDEST DUP2 EQ PUSH2 0x805 JUMPI PUSH0 DUP1 REVERT JUMPDEST POP JUMP JUMPDEST PUSH0 DUP2 CALLDATALOAD SWAP1 POP PUSH2 0x816 DUP2 PUSH2 0x7F2 JUMP JUMPDEST SWAP3 SWAP2 POP POP JUMP JUMPDEST PUSH0 PUSH2 0x82E PUSH2 0x829 DUP5 PUSH2 0x799 JUMP JUMPDEST PUSH2 0x77F JUMP JUMPDEST SWAP1 POP DUP1 PUSH1 0x20 DUP5 MUL DUP4 ADD DUP6 DUP2 GT ISZERO PUSH2 0x848 JUMPI PUSH2 0x847 PUSH2 0x7BE JUMP JUMPDEST JUMPDEST DUP4 JUMPDEST DUP2 DUP2 LT ISZERO PUSH2 0x871 JUMPI DUP1 PUSH2 0x85D DUP9 DUP3 PUSH2 0x808 JUMP JUMPDEST DUP5 MSTORE PUSH1 0x20 DUP5 ADD SWAP4 POP POP PUSH1 0x20 DUP2 ADD SWAP1 POP PUSH2 0x84A JUMP JUMPDEST POP POP POP SWAP4 SWAP3 POP POP POP JUMP JUMPDEST PUSH0 DUP3 PUSH1 0x1F DUP4 ADD SLT PUSH2 0x88F JUMPI PUSH2 0x88E PUSH2 0x70D JUMP JUMPDEST JUMPDEST PUSH1 0x3 PUSH2 0x89C DUP5 DUP3 DUP6 PUSH2 0x81C JUMP JUMPDEST SWAP2 POP POP SWAP3 SWAP2 POP POP JUMP JUMPDEST PUSH0 PUSH1 0x60 DUP3 DUP5 SUB SLT ISZERO PUSH2 0x8BA JUMPI PUSH2 0x8B9 PUSH2 0x709 JUMP JUMPDEST JUMPDEST PUSH0 PUSH2 0x8C7 DUP5 DUP3 DUP6 ADD PUSH2 0x87B JUMP JUMPDEST SWAP2 POP POP SWAP3 SWAP2 POP POP JUMP JUMPDEST PUSH0 DUP3 DUP3 MSTORE PUSH1 0x20 DUP3 ADD SWAP1 POP SWAP3 SWAP2 POP POP JUMP JUMPDEST PUSH32 0x4F6E6C792061646D696E2077616C6C6574210000000000000000000000000000 PUSH0 DUP3 ADD MSTORE POP JUMP JUMPDEST PUSH0 PUSH2 0x914 PUSH1 0x12 DUP4 PUSH2 0x8D0 JUMP JUMPDEST SWAP2 POP PUSH2 0x91F DUP3 PUSH2 0x8E0 JUMP JUMPDEST PUSH1 0x20 DUP3 ADD SWAP1 POP SWAP2 SWAP1 POP JUMP JUMPDEST PUSH0 PUSH1 0x20 DUP3 ADD SWAP1 POP DUP2 DUP2 SUB PUSH0 DUP4 ADD MSTORE PUSH2 0x941 DUP2 PUSH2 0x908 JUMP JUMPDEST SWAP1 POP SWAP2 SWAP1 POP JUMP JUMPDEST PUSH2 0x951 DUP2 PUSH2 0x7E1 JUMP JUMPDEST DUP3 MSTORE POP POP JUMP JUMPDEST PUSH0 PUSH1 0x20 DUP3 ADD SWAP1 POP PUSH2 0x96A PUSH0 DUP4 ADD DUP5 PUSH2 0x948 JUMP JUMPDEST SWAP3 SWAP2 POP POP JUMP JUMPDEST PUSH2 0x979 DUP2 PUSH2 0x6CF JUMP JUMPDEST DUP2 EQ PUSH2 0x983 JUMPI PUSH0 DUP1 REVERT JUMPDEST POP JUMP JUMPDEST PUSH0 DUP2 MLOAD SWAP1 POP PUSH2 0x994 DUP2 PUSH2 0x970 JUMP JUMPDEST SWAP3 SWAP2 POP POP JUMP JUMPDEST PUSH0 PUSH1 0x20 DUP3 DUP5 SUB SLT ISZERO PUSH2 0x9AF JUMPI PUSH2 0x9AE PUSH2 0x709 JUMP JUMPDEST JUMPDEST PUSH0 PUSH2 0x9BC DUP5 DUP3 DUP6 ADD PUSH2 0x986 JUMP JUMPDEST SWAP2 POP POP SWAP3 SWAP2 POP POP JUMP JUMPDEST PUSH0 PUSH1 0x40 DUP3 ADD SWAP1 POP PUSH2 0x9D8 PUSH0 DUP4 ADD DUP6 PUSH2 0x948 JUMP JUMPDEST PUSH2 0x9E5 PUSH1 0x20 DUP4 ADD DUP5 PUSH2 0x6D8 JUMP JUMPDEST SWAP4 SWAP3 POP POP POP JUMP JUMPDEST PUSH0 DUP2 ISZERO ISZERO SWAP1 POP SWAP2 SWAP1 POP JUMP JUMPDEST PUSH2 0xA00 DUP2 PUSH2 0x9EC JUMP JUMPDEST DUP2 EQ PUSH2 0xA0A JUMPI PUSH0 DUP1 REVERT JUMPDEST POP JUMP JUMPDEST PUSH0 DUP2 MLOAD SWAP1 POP PUSH2 0xA1B DUP2 PUSH2 0x9F7 JUMP JUMPDEST SWAP3 SWAP2 POP POP JUMP JUMPDEST PUSH0 PUSH1 0x20 DUP3 DUP5 SUB SLT ISZERO PUSH2 0xA36 JUMPI PUSH2 0xA35 PUSH2 0x709 JUMP JUMPDEST JUMPDEST PUSH0 PUSH2 0xA43 DUP5 DUP3 DUP6 ADD PUSH2 0xA0D JUMP JUMPDEST SWAP2 POP POP SWAP3 SWAP2 POP POP JUMP JUMPDEST PUSH32 0x4E487B7100000000000000000000000000000000000000000000000000000000 PUSH0 MSTORE PUSH1 0x11 PUSH1 0x4 MSTORE PUSH1 0x24 PUSH0 REVERT JUMPDEST PUSH0 PUSH2 0xA83 DUP3 PUSH2 0x6CF JUMP JUMPDEST SWAP2 POP PUSH2 0xA8E DUP4 PUSH2 0x6CF JUMP JUMPDEST SWAP3 POP DUP3 DUP3 MUL PUSH2 0xA9C DUP2 PUSH2 0x6CF JUMP JUMPDEST SWAP2 POP DUP3 DUP3 DIV DUP5 EQ DUP4 ISZERO OR PUSH2 0xAB3 JUMPI PUSH2 0xAB2 PUSH2 0xA4C JUMP JUMPDEST JUMPDEST POP SWAP3 SWAP2 POP POP JUMP JUMPDEST PUSH32 0x4E487B7100000000000000000000000000000000000000000000000000000000 PUSH0 MSTORE PUSH1 0x12 PUSH1 0x4 MSTORE PUSH1 0x24 PUSH0 REVERT JUMPDEST PUSH0 PUSH2 0xAF1 DUP3 PUSH2 0x6CF JUMP JUMPDEST SWAP2 POP PUSH2 0xAFC DUP4 PUSH2 0x6CF JUMP JUMPDEST SWAP3 POP DUP3 PUSH2 0xB0C JUMPI PUSH2 0xB0B PUSH2 0xABA JUMP JUMPDEST JUMPDEST DUP3 DUP3 DIV SWAP1 POP SWAP3 SWAP2 POP POP JUMP JUMPDEST PUSH32 0x4E487B7100000000000000000000000000000000000000000000000000000000 PUSH0 MSTORE PUSH1 0x32 PUSH1 0x4 MSTORE PUSH1 0x24 PUSH0 REVERT JUMPDEST PUSH0 PUSH1 0x3 SWAP1 POP SWAP2 SWAP1 POP JUMP JUMPDEST PUSH0 DUP2 SWAP1 POP SWAP3 SWAP2 POP POP JUMP JUMPDEST PUSH0 DUP2 SWAP1 POP SWAP2 SWAP1 POP JUMP JUMPDEST PUSH2 0xB6A DUP2 PUSH2 0x7E1 JUMP JUMPDEST DUP3 MSTORE POP POP JUMP JUMPDEST PUSH0 PUSH2 0xB7B DUP4 DUP4 PUSH2 0xB61 JUMP JUMPDEST PUSH1 0x20 DUP4 ADD SWAP1 POP SWAP3 SWAP2 POP POP JUMP JUMPDEST PUSH0 PUSH1 0x20 DUP3 ADD SWAP1 POP SWAP2 SWAP1 POP JUMP JUMPDEST PUSH2 0xB9C DUP2 PUSH2 0xB44 JUMP JUMPDEST PUSH2 0xBA6 DUP2 DUP5 PUSH2 0xB4E JUMP JUMPDEST SWAP3 POP PUSH2 0xBB1 DUP3 PUSH2 0xB58 JUMP JUMPDEST DUP1 PUSH0 JUMPDEST DUP4 DUP2 LT ISZERO PUSH2 0xBE1 JUMPI DUP2 MLOAD PUSH2 0xBC8 DUP8 DUP3 PUSH2 0xB70 JUMP JUMPDEST SWAP7 POP PUSH2 0xBD3 DUP4 PUSH2 0xB87 JUMP JUMPDEST SWAP3 POP POP PUSH1 0x1 DUP2 ADD SWAP1 POP PUSH2 0xBB4 JUMP JUMPDEST POP POP POP POP POP POP JUMP JUMPDEST PUSH0 PUSH1 0x3 SWAP1 POP SWAP2 SWAP1 POP JUMP JUMPDEST PUSH0 DUP2 SWAP1 POP SWAP3 SWAP2 POP POP JUMP JUMPDEST PUSH0 DUP2 SWAP1 POP SWAP2 SWAP1 POP JUMP JUMPDEST PUSH2 0xC0F DUP2 PUSH2 0x6CF JUMP JUMPDEST DUP3 MSTORE POP POP JUMP JUMPDEST PUSH0 PUSH2 0xC20 DUP4 DUP4 PUSH2 0xC06 JUMP JUMPDEST PUSH1 0x20 DUP4 ADD SWAP1 POP SWAP3 SWAP2 POP POP JUMP JUMPDEST PUSH0 PUSH1 0x20 DUP3 ADD SWAP1 POP SWAP2 SWAP1 POP JUMP JUMPDEST PUSH2 0xC41 DUP2 PUSH2 0xBE9 JUMP JUMPDEST PUSH2 0xC4B DUP2 DUP5 PUSH2 0xBF3 JUMP JUMPDEST SWAP3 POP PUSH2 0xC56 DUP3 PUSH2 0xBFD JUMP JUMPDEST DUP1 PUSH0 JUMPDEST DUP4 DUP2 LT ISZERO PUSH2 0xC86 JUMPI DUP2 MLOAD PUSH2 0xC6D DUP8 DUP3 PUSH2 0xC15 JUMP JUMPDEST SWAP7 POP PUSH2 0xC78 DUP4 PUSH2 0xC2C JUMP JUMPDEST SWAP3 POP POP PUSH1 0x1 DUP2 ADD SWAP1 POP PUSH2 0xC59 JUMP JUMPDEST POP POP POP POP POP POP JUMP JUMPDEST PUSH0 PUSH1 0xC0 DUP3 ADD SWAP1 POP PUSH2 0xCA1 PUSH0 DUP4 ADD DUP6 PUSH2 0xB93 JUMP JUMPDEST PUSH2 0xCAE PUSH1 0x60 DUP4 ADD DUP5 PUSH2 0xC38 JUMP JUMPDEST SWAP4 SWAP3 POP POP POP JUMP INVALID LOG2 PUSH5 0x6970667358 0x22 SLT KECCAK256 0xC7 PUSH24 0x7280E329C0E244E7067269F34FF51058F588A7A3E109337D 0xE3 MSTORE 0xCD 0xAC BLOBBASEFEE 0x1F PUSH5 0x736F6C6343 STOP ADDMOD BYTE STOP CALLER "
				},
				"gasEstimates": {
					"creation": {
						"codeDepositCost": "661400",
						"executionCost": "infinite",
						"totalCost": "infinite"
					},
					"external": {
						"EmergencyWithdrawalAdmin()": "infinite",
						"ReturnContractBalnc()": "infinite",
						"RewardWinners(address[3])": "infinite"
					}
				},
				"methodIdentifiers": {
					"EmergencyWithdrawalAdmin()": "90decdae",
					"ReturnContractBalnc()": "b321e227",
					"RewardWinners(address[3])": "fe272fd9"
				}
			},
			"storageLayout": {
				"storage": [],
				"types": null
			},
			"userdoc": {
				"kind": "user",
				"methods": {},
				"version": 1
			}
		}
	}
}