{
	"contracts/effct2.sol": {
		"TriviaBaseFactory": {
			"abi": [
				{
					"inputs": [],
					"name": "FailedDeployment",
					"type": "error"
				},
				{
					"inputs": [
						{
							"internalType": "uint256",
							"name": "balance",
							"type": "uint256"
						},
						{
							"internalType": "uint256",
							"name": "needed",
							"type": "uint256"
						}
					],
					"name": "InsufficientBalance",
					"type": "error"
				},
				{
					"anonymous": false,
					"inputs": [
						{
							"indexed": false,
							"internalType": "address",
							"name": "_TriviaBase",
							"type": "address"
						}
					],
					"name": "EmitNewTriviaContract",
					"type": "event"
				},
				{
					"inputs": [],
					"name": "createTriviaContract",
					"outputs": [
						{
							"internalType": "address",
							"name": "",
							"type": "address"
						}
					],
					"stateMutability": "nonpayable",
					"type": "function"
				}
			],
			"devdoc": {
				"errors": {
					"FailedDeployment()": [
						{
							"details": "The deployment failed."
						}
					],
					"InsufficientBalance(uint256,uint256)": [
						{
							"details": "The ETH balance of the account is not enough to perform the operation."
						}
					]
				},
				"kind": "dev",
				"methods": {},
				"version": 1
			},
			"evm": {
				"assembly": "    /* \"contracts/effct2.sol\":2006:2386  contract TriviaBaseFactory {... */\n  mstore(0x40, 0xa0)\n    /* \"contracts/effct2.sol\":2074:2116  0x8241C4E08E270fC790a34B63226d6E57EC22261f */\n  0x8241c4e08e270fc790a34b63226d6e57ec22261f\n    /* \"contracts/effct2.sol\":2039:2116  address private immutable TRIVIA = 0x8241C4E08E270fC790a34B63226d6E57EC22261f */\n  0xffffffffffffffffffffffffffffffffffffffff\n  and\n  0x80\n  swap1\n  0xffffffffffffffffffffffffffffffffffffffff\n  and\n  dup2\n  mstore\n  pop\n    /* \"contracts/effct2.sol\":2006:2386  contract TriviaBaseFactory {... */\n  callvalue\n  dup1\n  iszero\n  tag_1\n  jumpi\n  0x00\n  dup1\n  revert\ntag_1:\n  pop\n  mload(0x80)\n  codecopy(0x00, dataOffset(sub_0), dataSize(sub_0))\n  0x00\n  assignImmutable(\"0x792fb9957b0c7c0af16304f5602126f9e16a84a7f6f8a55e0144210b32419511\")\n  return(0x00, dataSize(sub_0))\nstop\n\nsub_0: assembly {\n        /* \"contracts/effct2.sol\":2006:2386  contract TriviaBaseFactory {... */\n      mstore(0x40, 0x80)\n      callvalue\n      dup1\n      iszero\n      tag_1\n      jumpi\n      0x00\n      dup1\n      revert\n    tag_1:\n      pop\n      jumpi(tag_2, lt(calldatasize, 0x04))\n      shr(0xe0, calldataload(0x00))\n      dup1\n      0xc313889c\n      eq\n      tag_3\n      jumpi\n    tag_2:\n      0x00\n      dup1\n      revert\n        /* \"contracts/effct2.sol\":2180:2384  function createTriviaContract() external returns (address) {... */\n    tag_3:\n      tag_4\n      tag_5\n      jump\t// in\n    tag_4:\n      mload(0x40)\n      tag_6\n      swap2\n      swap1\n      tag_7\n      jump\t// in\n    tag_6:\n      mload(0x40)\n      dup1\n      swap2\n      sub\n      swap1\n      return\n    tag_5:\n        /* \"contracts/effct2.sol\":2230:2237  address */\n      0x00\n        /* \"contracts/effct2.sol\":2249:2271  address newconstTrivia */\n      dup1\n        /* \"contracts/effct2.sol\":2274:2294  Clones.clone(TRIVIA) */\n      tag_9\n        /* \"contracts/effct2.sol\":2287:2293  TRIVIA */\n      immutable(\"0x792fb9957b0c7c0af16304f5602126f9e16a84a7f6f8a55e0144210b32419511\")\n        /* \"contracts/effct2.sol\":2274:2286  Clones.clone */\n      tag_10\n        /* \"contracts/effct2.sol\":2274:2294  Clones.clone(TRIVIA) */\n      jump\t// in\n    tag_9:\n        /* \"contracts/effct2.sol\":2249:2294  address newconstTrivia = Clones.clone(TRIVIA) */\n      swap1\n      pop\n        /* \"contracts/effct2.sol\":2309:2346  EmitNewTriviaContract(newconstTrivia) */\n      0x456f613c0980b2ac67372535d8b1cd435b82dc1d50d713328c70ca9a28ccb1af\n        /* \"contracts/effct2.sol\":2331:2345  newconstTrivia */\n      dup2\n        /* \"contracts/effct2.sol\":2309:2346  EmitNewTriviaContract(newconstTrivia) */\n      mload(0x40)\n      tag_11\n      swap2\n      swap1\n      tag_7\n      jump\t// in\n    tag_11:\n      mload(0x40)\n      dup1\n      swap2\n      sub\n      swap1\n      log1\n        /* \"contracts/effct2.sol\":2363:2377  newconstTrivia */\n      dup1\n        /* \"contracts/effct2.sol\":2356:2377  return newconstTrivia */\n      swap2\n      pop\n      pop\n        /* \"contracts/effct2.sol\":2180:2384  function createTriviaContract() external returns (address) {... */\n      swap1\n      jump\t// out\n        /* \"@openzeppelin/contracts/proxy/Clones.sol\":989:1112  function clone(address implementation) internal returns (address instance) {... */\n    tag_10:\n        /* \"@openzeppelin/contracts/proxy/Clones.sol\":1046:1062  address instance */\n      0x00\n        /* \"@openzeppelin/contracts/proxy/Clones.sol\":1081:1105  clone(implementation, 0) */\n      tag_13\n        /* \"@openzeppelin/contracts/proxy/Clones.sol\":1087:1101  implementation */\n      dup3\n        /* \"@openzeppelin/contracts/proxy/Clones.sol\":1103:1104  0 */\n      0x00\n        /* \"@openzeppelin/contracts/proxy/Clones.sol\":1081:1086  clone */\n      tag_14\n        /* \"@openzeppelin/contracts/proxy/Clones.sol\":1081:1105  clone(implementation, 0) */\n      jump\t// in\n    tag_13:\n        /* \"@openzeppelin/contracts/proxy/Clones.sol\":1074:1105  return clone(implementation, 0) */\n      swap1\n      pop\n        /* \"@openzeppelin/contracts/proxy/Clones.sol\":989:1112  function clone(address implementation) internal returns (address instance) {... */\n      swap2\n      swap1\n      pop\n      jump\t// out\n        /* \"@openzeppelin/contracts/proxy/Clones.sol\":1504:2414  function clone(address implementation, uint256 value) internal returns (address instance) {... */\n    tag_14:\n        /* \"@openzeppelin/contracts/proxy/Clones.sol\":1576:1592  address instance */\n      0x00\n        /* \"@openzeppelin/contracts/proxy/Clones.sol\":1632:1637  value */\n      dup2\n        /* \"@openzeppelin/contracts/proxy/Clones.sol\":1608:1629  address(this).balance */\n      selfbalance\n        /* \"@openzeppelin/contracts/proxy/Clones.sol\":1608:1637  address(this).balance < value */\n      lt\n        /* \"@openzeppelin/contracts/proxy/Clones.sol\":1604:1727  if (address(this).balance < value) {... */\n      iszero\n      tag_16\n      jumpi\n        /* \"@openzeppelin/contracts/proxy/Clones.sol\":1687:1708  address(this).balance */\n      selfbalance\n        /* \"@openzeppelin/contracts/proxy/Clones.sol\":1710:1715  value */\n      dup3\n        /* \"@openzeppelin/contracts/proxy/Clones.sol\":1660:1716  Errors.InsufficientBalance(address(this).balance, value) */\n      mload(0x40)\n      0xcf47918100000000000000000000000000000000000000000000000000000000\n      dup2\n      mstore\n      0x04\n      add\n      tag_17\n      swap3\n      swap2\n      swap1\n      tag_18\n      jump\t// in\n    tag_17:\n      mload(0x40)\n      dup1\n      swap2\n      sub\n      swap1\n      revert\n        /* \"@openzeppelin/contracts/proxy/Clones.sol\":1604:1727  if (address(this).balance < value) {... */\n    tag_16:\n        /* \"@openzeppelin/contracts/proxy/Clones.sol\":2013:2061  0x3d602d80600a3d3981f3363d3d373d3d3d363d73000000 */\n      0x3d602d80600a3d3981f3363d3d373d3d3d363d73000000\n        /* \"@openzeppelin/contracts/proxy/Clones.sol\":1995:2009  implementation */\n      dup4\n        /* \"@openzeppelin/contracts/proxy/Clones.sol\":1989:1993  0x60 */\n      0x60\n        /* \"@openzeppelin/contracts/proxy/Clones.sol\":1985:2010  shl(0x60, implementation) */\n      shl\n        /* \"@openzeppelin/contracts/proxy/Clones.sol\":1979:1983  0xe8 */\n      0xe8\n        /* \"@openzeppelin/contracts/proxy/Clones.sol\":1975:2011  shr(0xe8, shl(0x60, implementation)) */\n      shr\n        /* \"@openzeppelin/contracts/proxy/Clones.sol\":1972:2062  or(shr(0xe8, shl(0x60, implementation)), 0x3d602d80600a3d3981f3363d3d373d3d3d363d73000000) */\n      or\n        /* \"@openzeppelin/contracts/proxy/Clones.sol\":1966:1970  0x00 */\n      0x00\n        /* \"@openzeppelin/contracts/proxy/Clones.sol\":1959:2063  mstore(0x00, or(shr(0xe8, shl(0x60, implementation)), 0x3d602d80600a3d3981f3363d3d373d3d3d363d73000000)) */\n      mstore\n        /* \"@openzeppelin/contracts/proxy/Clones.sol\":2220:2252  0x5af43d82803e903d91602b57fd5bf3 */\n      0x5af43d82803e903d91602b57fd5bf3\n        /* \"@openzeppelin/contracts/proxy/Clones.sol\":2203:2217  implementation */\n      dup4\n        /* \"@openzeppelin/contracts/proxy/Clones.sol\":2197:2201  0x78 */\n      0x78\n        /* \"@openzeppelin/contracts/proxy/Clones.sol\":2193:2218  shl(0x78, implementation) */\n      shl\n        /* \"@openzeppelin/contracts/proxy/Clones.sol\":2190:2253  or(shl(0x78, implementation), 0x5af43d82803e903d91602b57fd5bf3) */\n      or\n        /* \"@openzeppelin/contracts/proxy/Clones.sol\":2184:2188  0x20 */\n      0x20\n        /* \"@openzeppelin/contracts/proxy/Clones.sol\":2177:2254  mstore(0x20, or(shl(0x78, implementation), 0x5af43d82803e903d91602b57fd5bf3)) */\n      mstore\n        /* \"@openzeppelin/contracts/proxy/Clones.sol\":2299:2303  0x37 */\n      0x37\n        /* \"@openzeppelin/contracts/proxy/Clones.sol\":2293:2297  0x09 */\n      0x09\n        /* \"@openzeppelin/contracts/proxy/Clones.sol\":2286:2291  value */\n      dup4\n        /* \"@openzeppelin/contracts/proxy/Clones.sol\":2279:2304  create(value, 0x09, 0x37) */\n      create\n        /* \"@openzeppelin/contracts/proxy/Clones.sol\":2267:2304  instance := create(value, 0x09, 0x37) */\n      swap1\n      pop\n        /* \"@openzeppelin/contracts/proxy/Clones.sol\":2347:2348  0 */\n      0x00\n        /* \"@openzeppelin/contracts/proxy/Clones.sol\":2327:2349  instance == address(0) */\n      0xffffffffffffffffffffffffffffffffffffffff\n      and\n        /* \"@openzeppelin/contracts/proxy/Clones.sol\":2327:2335  instance */\n      dup2\n        /* \"@openzeppelin/contracts/proxy/Clones.sol\":2327:2349  instance == address(0) */\n      0xffffffffffffffffffffffffffffffffffffffff\n      and\n      sub\n        /* \"@openzeppelin/contracts/proxy/Clones.sol\":2323:2408  if (instance == address(0)) {... */\n      tag_19\n      jumpi\n        /* \"@openzeppelin/contracts/proxy/Clones.sol\":2372:2397  Errors.FailedDeployment() */\n      mload(0x40)\n      0xb06ebf3d00000000000000000000000000000000000000000000000000000000\n      dup2\n      mstore\n      0x04\n      add\n      mload(0x40)\n      dup1\n      swap2\n      sub\n      swap1\n      revert\n        /* \"@openzeppelin/contracts/proxy/Clones.sol\":2323:2408  if (instance == address(0)) {... */\n    tag_19:\n        /* \"@openzeppelin/contracts/proxy/Clones.sol\":1504:2414  function clone(address implementation, uint256 value) internal returns (address instance) {... */\n      swap3\n      swap2\n      pop\n      pop\n      jump\t// out\n        /* \"#utility.yul\":7:133   */\n    tag_20:\n        /* \"#utility.yul\":44:51   */\n      0x00\n        /* \"#utility.yul\":84:126   */\n      0xffffffffffffffffffffffffffffffffffffffff\n        /* \"#utility.yul\":77:82   */\n      dup3\n        /* \"#utility.yul\":73:127   */\n      and\n        /* \"#utility.yul\":62:127   */\n      swap1\n      pop\n        /* \"#utility.yul\":7:133   */\n      swap2\n      swap1\n      pop\n      jump\t// out\n        /* \"#utility.yul\":139:235   */\n    tag_21:\n        /* \"#utility.yul\":176:183   */\n      0x00\n        /* \"#utility.yul\":205:229   */\n      tag_28\n        /* \"#utility.yul\":223:228   */\n      dup3\n        /* \"#utility.yul\":205:229   */\n      tag_20\n      jump\t// in\n    tag_28:\n        /* \"#utility.yul\":194:229   */\n      swap1\n      pop\n        /* \"#utility.yul\":139:235   */\n      swap2\n      swap1\n      pop\n      jump\t// out\n        /* \"#utility.yul\":241:359   */\n    tag_22:\n        /* \"#utility.yul\":328:352   */\n      tag_30\n        /* \"#utility.yul\":346:351   */\n      dup2\n        /* \"#utility.yul\":328:352   */\n      tag_21\n      jump\t// in\n    tag_30:\n        /* \"#utility.yul\":323:326   */\n      dup3\n        /* \"#utility.yul\":316:353   */\n      mstore\n        /* \"#utility.yul\":241:359   */\n      pop\n      pop\n      jump\t// out\n        /* \"#utility.yul\":365:587   */\n    tag_7:\n        /* \"#utility.yul\":458:462   */\n      0x00\n        /* \"#utility.yul\":496:498   */\n      0x20\n        /* \"#utility.yul\":485:494   */\n      dup3\n        /* \"#utility.yul\":481:499   */\n      add\n        /* \"#utility.yul\":473:499   */\n      swap1\n      pop\n        /* \"#utility.yul\":509:580   */\n      tag_32\n        /* \"#utility.yul\":577:578   */\n      0x00\n        /* \"#utility.yul\":566:575   */\n      dup4\n        /* \"#utility.yul\":562:579   */\n      add\n        /* \"#utility.yul\":553:559   */\n      dup5\n        /* \"#utility.yul\":509:580   */\n      tag_22\n      jump\t// in\n    tag_32:\n        /* \"#utility.yul\":365:587   */\n      swap3\n      swap2\n      pop\n      pop\n      jump\t// out\n        /* \"#utility.yul\":593:670   */\n    tag_23:\n        /* \"#utility.yul\":630:637   */\n      0x00\n        /* \"#utility.yul\":659:664   */\n      dup2\n        /* \"#utility.yul\":648:664   */\n      swap1\n      pop\n        /* \"#utility.yul\":593:670   */\n      swap2\n      swap1\n      pop\n      jump\t// out\n        /* \"#utility.yul\":676:794   */\n    tag_24:\n        /* \"#utility.yul\":763:787   */\n      tag_35\n        /* \"#utility.yul\":781:786   */\n      dup2\n        /* \"#utility.yul\":763:787   */\n      tag_23\n      jump\t// in\n    tag_35:\n        /* \"#utility.yul\":758:761   */\n      dup3\n        /* \"#utility.yul\":751:788   */\n      mstore\n        /* \"#utility.yul\":676:794   */\n      pop\n      pop\n      jump\t// out\n        /* \"#utility.yul\":800:1132   */\n    tag_18:\n        /* \"#utility.yul\":921:925   */\n      0x00\n        /* \"#utility.yul\":959:961   */\n      0x40\n        /* \"#utility.yul\":948:957   */\n      dup3\n        /* \"#utility.yul\":944:962   */\n      add\n        /* \"#utility.yul\":936:962   */\n      swap1\n      pop\n        /* \"#utility.yul\":972:1043   */\n      tag_37\n        /* \"#utility.yul\":1040:1041   */\n      0x00\n        /* \"#utility.yul\":1029:1038   */\n      dup4\n        /* \"#utility.yul\":1025:1042   */\n      add\n        /* \"#utility.yul\":1016:1022   */\n      dup6\n        /* \"#utility.yul\":972:1043   */\n      tag_24\n      jump\t// in\n    tag_37:\n        /* \"#utility.yul\":1053:1125   */\n      tag_38\n        /* \"#utility.yul\":1121:1123   */\n      0x20\n        /* \"#utility.yul\":1110:1119   */\n      dup4\n        /* \"#utility.yul\":1106:1124   */\n      add\n        /* \"#utility.yul\":1097:1103   */\n      dup5\n        /* \"#utility.yul\":1053:1125   */\n      tag_24\n      jump\t// in\n    tag_38:\n        /* \"#utility.yul\":800:1132   */\n      swap4\n      swap3\n      pop\n      pop\n      pop\n      jump\t// out\n\n    auxdata: 0xa264697066735822122082f33a7417f644eb18d13823c6a88c85f53bc57050564e28a2c43db04a1dd7c064736f6c634300081a0033\n}\n",
				"bytecode": {
					"linkReferences": {},
					"object": "60a0604052738241c4e08e270fc790a34b63226d6e57ec22261f73ffffffffffffffffffffffffffffffffffffffff1660809073ffffffffffffffffffffffffffffffffffffffff168152503480156055575f80fd5b5060805161028a61006d5f395f6052015261028a5ff3fe608060405234801561000f575f80fd5b5060043610610029575f3560e01c8063c313889c1461002d575b5f80fd5b61003561004b565b60405161004291906101fc565b60405180910390f35b5f806100767f00000000000000000000000000000000000000000000000000000000000000006100b6565b90507f456f613c0980b2ac67372535d8b1cd435b82dc1d50d713328c70ca9a28ccb1af816040516100a791906101fc565b60405180910390a18091505090565b5f6100c1825f6100c8565b9050919050565b5f814710156101105747826040517fcf47918100000000000000000000000000000000000000000000000000000000815260040161010792919061022d565b60405180910390fd5b763d602d80600a3d3981f3363d3d373d3d3d363d730000008360601b60e81c175f526e5af43d82803e903d91602b57fd5bf38360781b176020526037600983f090505f73ffffffffffffffffffffffffffffffffffffffff168173ffffffffffffffffffffffffffffffffffffffff16036101b7576040517fb06ebf3d00000000000000000000000000000000000000000000000000000000815260040160405180910390fd5b92915050565b5f73ffffffffffffffffffffffffffffffffffffffff82169050919050565b5f6101e6826101bd565b9050919050565b6101f6816101dc565b82525050565b5f60208201905061020f5f8301846101ed565b92915050565b5f819050919050565b61022781610215565b82525050565b5f6040820190506102405f83018561021e565b61024d602083018461021e565b939250505056fea264697066735822122082f33a7417f644eb18d13823c6a88c85f53bc57050564e28a2c43db04a1dd7c064736f6c634300081a0033",
					"opcodes": "PUSH1 0xA0 PUSH1 0x40 MSTORE PUSH20 0x8241C4E08E270FC790A34B63226D6E57EC22261F PUSH20 0xFFFFFFFFFFFFFFFFFFFFFFFFFFFFFFFFFFFFFFFF AND PUSH1 0x80 SWAP1 PUSH20 0xFFFFFFFFFFFFFFFFFFFFFFFFFFFFFFFFFFFFFFFF AND DUP2 MSTORE POP CALLVALUE DUP1 ISZERO PUSH1 0x55 JUMPI PUSH0 DUP1 REVERT JUMPDEST POP PUSH1 0x80 MLOAD PUSH2 0x28A PUSH2 0x6D PUSH0 CODECOPY PUSH0 PUSH1 0x52 ADD MSTORE PUSH2 0x28A PUSH0 RETURN INVALID PUSH1 0x80 PUSH1 0x40 MSTORE CALLVALUE DUP1 ISZERO PUSH2 0xF JUMPI PUSH0 DUP1 REVERT JUMPDEST POP PUSH1 0x4 CALLDATASIZE LT PUSH2 0x29 JUMPI PUSH0 CALLDATALOAD PUSH1 0xE0 SHR DUP1 PUSH4 0xC313889C EQ PUSH2 0x2D JUMPI JUMPDEST PUSH0 DUP1 REVERT JUMPDEST PUSH2 0x35 PUSH2 0x4B JUMP JUMPDEST PUSH1 0x40 MLOAD PUSH2 0x42 SWAP2 SWAP1 PUSH2 0x1FC JUMP JUMPDEST PUSH1 0x40 MLOAD DUP1 SWAP2 SUB SWAP1 RETURN JUMPDEST PUSH0 DUP1 PUSH2 0x76 PUSH32 0x0 PUSH2 0xB6 JUMP JUMPDEST SWAP1 POP PUSH32 0x456F613C0980B2AC67372535D8B1CD435B82DC1D50D713328C70CA9A28CCB1AF DUP2 PUSH1 0x40 MLOAD PUSH2 0xA7 SWAP2 SWAP1 PUSH2 0x1FC JUMP JUMPDEST PUSH1 0x40 MLOAD DUP1 SWAP2 SUB SWAP1 LOG1 DUP1 SWAP2 POP POP SWAP1 JUMP JUMPDEST PUSH0 PUSH2 0xC1 DUP3 PUSH0 PUSH2 0xC8 JUMP JUMPDEST SWAP1 POP SWAP2 SWAP1 POP JUMP JUMPDEST PUSH0 DUP2 SELFBALANCE LT ISZERO PUSH2 0x110 JUMPI SELFBALANCE DUP3 PUSH1 0x40 MLOAD PUSH32 0xCF47918100000000000000000000000000000000000000000000000000000000 DUP2 MSTORE PUSH1 0x4 ADD PUSH2 0x107 SWAP3 SWAP2 SWAP1 PUSH2 0x22D JUMP JUMPDEST PUSH1 0x40 MLOAD DUP1 SWAP2 SUB SWAP1 REVERT JUMPDEST PUSH23 0x3D602D80600A3D3981F3363D3D373D3D3D363D73000000 DUP4 PUSH1 0x60 SHL PUSH1 0xE8 SHR OR PUSH0 MSTORE PUSH15 0x5AF43D82803E903D91602B57FD5BF3 DUP4 PUSH1 0x78 SHL OR PUSH1 0x20 MSTORE PUSH1 0x37 PUSH1 0x9 DUP4 CREATE SWAP1 POP PUSH0 PUSH20 0xFFFFFFFFFFFFFFFFFFFFFFFFFFFFFFFFFFFFFFFF AND DUP2 PUSH20 0xFFFFFFFFFFFFFFFFFFFFFFFFFFFFFFFFFFFFFFFF AND SUB PUSH2 0x1B7 JUMPI PUSH1 0x40 MLOAD PUSH32 0xB06EBF3D00000000000000000000000000000000000000000000000000000000 DUP2 MSTORE PUSH1 0x4 ADD PUSH1 0x40 MLOAD DUP1 SWAP2 SUB SWAP1 REVERT JUMPDEST SWAP3 SWAP2 POP POP JUMP JUMPDEST PUSH0 PUSH20 0xFFFFFFFFFFFFFFFFFFFFFFFFFFFFFFFFFFFFFFFF DUP3 AND SWAP1 POP SWAP2 SWAP1 POP JUMP JUMPDEST PUSH0 PUSH2 0x1E6 DUP3 PUSH2 0x1BD JUMP JUMPDEST SWAP1 POP SWAP2 SWAP1 POP JUMP JUMPDEST PUSH2 0x1F6 DUP2 PUSH2 0x1DC JUMP JUMPDEST DUP3 MSTORE POP POP JUMP JUMPDEST PUSH0 PUSH1 0x20 DUP3 ADD SWAP1 POP PUSH2 0x20F PUSH0 DUP4 ADD DUP5 PUSH2 0x1ED JUMP JUMPDEST SWAP3 SWAP2 POP POP JUMP JUMPDEST PUSH0 DUP2 SWAP1 POP SWAP2 SWAP1 POP JUMP JUMPDEST PUSH2 0x227 DUP2 PUSH2 0x215 JUMP JUMPDEST DUP3 MSTORE POP POP JUMP JUMPDEST PUSH0 PUSH1 0x40 DUP3 ADD SWAP1 POP PUSH2 0x240 PUSH0 DUP4 ADD DUP6 PUSH2 0x21E JUMP JUMPDEST PUSH2 0x24D PUSH1 0x20 DUP4 ADD DUP5 PUSH2 0x21E JUMP JUMPDEST SWAP4 SWAP3 POP POP POP JUMP INVALID LOG2 PUSH5 0x6970667358 0x22 SLT KECCAK256 DUP3 RETURN GASPRICE PUSH21 0x17F644EB18D13823C6A88C85F53BC57050564E28A2 0xC4 RETURNDATASIZE 0xB0 BLOBBASEFEE SAR 0xD7 0xC0 PUSH5 0x736F6C6343 STOP ADDMOD BYTE STOP CALLER "
				},
				"gasEstimates": {
					"creation": {
						"codeDepositCost": "130000",
						"executionCost": "infinite",
						"totalCost": "infinite"
					},
					"external": {
						"createTriviaContract()": "infinite"
					}
				},
				"methodIdentifiers": {
					"createTriviaContract()": "c313889c"
				}
			},
			"storageLayout": {
				"storage": [],
				"types": null
			},
			"userdoc": {
				"kind": "user",
				"methods": {},
				"version": 1
			}
		}
	}
}