{
	"contracts/minimal.sol": {
		"UnburnableToken": {
			"abi": [
				{
					"inputs": [],
					"stateMutability": "nonpayable",
					"type": "constructor"
				},
				{
					"inputs": [],
					"name": "AllTokensClaimed",
					"type": "error"
				},
				{
					"inputs": [],
					"name": "TokensClaimed",
					"type": "error"
				},
				{
					"inputs": [
						{
							"internalType": "address",
							"name": "",
							"type": "address"
						}
					],
					"name": "UnsafeTransfer",
					"type": "error"
				},
				{
					"inputs": [
						{
							"internalType": "address",
							"name": "",
							"type": "address"
						}
					],
					"name": "balances",
					"outputs": [
						{
							"internalType": "uint256",
							"name": "",
							"type": "uint256"
						}
					],
					"stateMutability": "view",
					"type": "function"
				},
				{
					"inputs": [],
					"name": "claim",
					"outputs": [],
					"stateMutability": "nonpayable",
					"type": "function"
				},
				{
					"inputs": [
						{
							"internalType": "address",
							"name": "_to",
							"type": "address"
						},
						{
							"internalType": "uint256",
							"name": "_amount",
							"type": "uint256"
						}
					],
					"name": "safeTransfer",
					"outputs": [],
					"stateMutability": "nonpayable",
					"type": "function"
				},
				{
					"inputs": [],
					"name": "totalClaimed",
					"outputs": [
						{
							"internalType": "uint256",
							"name": "",
							"type": "uint256"
						}
					],
					"stateMutability": "view",
					"type": "function"
				},
				{
					"inputs": [],
					"name": "totalSupply",
					"outputs": [
						{
							"internalType": "uint256",
							"name": "",
							"type": "uint256"
						}
					],
					"stateMutability": "view",
					"type": "function"
				}
			],
			"devdoc": {
				"kind": "dev",
				"methods": {},
				"version": 1
			},
			"evm": {
				"assembly": "    /* \"contracts/minimal.sol\":57:1175  contract UnburnableToken {... */\n  mstore(0x40, 0x80)\n    /* \"contracts/minimal.sol\":203:296  constructor() {... */\n  callvalue\n  dup1\n  iszero\n  tag_1\n  jumpi\n  0x00\n  dup1\n  revert\ntag_1:\n  pop\n    /* \"contracts/minimal.sol\":241:250  100000000 */\n  0x05f5e100\n    /* \"contracts/minimal.sol\":227:238  totalSupply */\n  0x01\n    /* \"contracts/minimal.sol\":227:250  totalSupply = 100000000 */\n  dup2\n  swap1\n  sstore\n  pop\n    /* \"contracts/minimal.sol\":57:1175  contract UnburnableToken {... */\n  dataSize(sub_0)\n  dup1\n  dataOffset(sub_0)\n  0x00\n  codecopy\n  0x00\n  return\nstop\n\nsub_0: assembly {\n        /* \"contracts/minimal.sol\":57:1175  contract UnburnableToken {... */\n      mstore(0x40, 0x80)\n      callvalue\n      dup1\n      iszero\n      tag_1\n      jumpi\n      0x00\n      dup1\n      revert\n    tag_1:\n      pop\n      jumpi(tag_2, lt(calldatasize, 0x04))\n      shr(0xe0, calldataload(0x00))\n      dup1\n      0x18160ddd\n      eq\n      tag_3\n      jumpi\n      dup1\n      0x27e235e3\n      eq\n      tag_4\n      jumpi\n      dup1\n      0x423f6cef\n      eq\n      tag_5\n      jumpi\n      dup1\n      0x4e71d92d\n      eq\n      tag_6\n      jumpi\n      dup1\n      0xd54ad2a1\n      eq\n      tag_7\n      jumpi\n    tag_2:\n      0x00\n      dup1\n      revert\n        /* \"contracts/minimal.sol\":137:163  uint256 public totalSupply */\n    tag_3:\n      tag_8\n      tag_9\n      jump\t// in\n    tag_8:\n      mload(0x40)\n      tag_10\n      swap2\n      swap1\n      tag_11\n      jump\t// in\n    tag_10:\n      mload(0x40)\n      dup1\n      swap2\n      sub\n      swap1\n      return\n        /* \"contracts/minimal.sol\":88:131  mapping(address => uint256) public balances */\n    tag_4:\n      tag_12\n      0x04\n      dup1\n      calldatasize\n      sub\n      dup2\n      add\n      swap1\n      tag_13\n      swap2\n      swap1\n      tag_14\n      jump\t// in\n    tag_13:\n      tag_15\n      jump\t// in\n    tag_12:\n      mload(0x40)\n      tag_16\n      swap2\n      swap1\n      tag_11\n      jump\t// in\n    tag_16:\n      mload(0x40)\n      dup1\n      swap2\n      sub\n      swap1\n      return\n        /* \"contracts/minimal.sol\":726:1173  function safeTransfer(address _to, uint256 _amount) public {... */\n    tag_5:\n      tag_17\n      0x04\n      dup1\n      calldatasize\n      sub\n      dup2\n      add\n      swap1\n      tag_18\n      swap2\n      swap1\n      tag_19\n      jump\t// in\n    tag_18:\n      tag_20\n      jump\t// in\n    tag_17:\n      stop\n        /* \"contracts/minimal.sol\":395:672  function claim() public {... */\n    tag_6:\n      tag_21\n      tag_22\n      jump\t// in\n    tag_21:\n      stop\n        /* \"contracts/minimal.sol\":169:196  uint256 public totalClaimed */\n    tag_7:\n      tag_23\n      tag_24\n      jump\t// in\n    tag_23:\n      mload(0x40)\n      tag_25\n      swap2\n      swap1\n      tag_11\n      jump\t// in\n    tag_25:\n      mload(0x40)\n      dup1\n      swap2\n      sub\n      swap1\n      return\n        /* \"contracts/minimal.sol\":137:163  uint256 public totalSupply */\n    tag_9:\n      sload(0x01)\n      dup2\n      jump\t// out\n        /* \"contracts/minimal.sol\":88:131  mapping(address => uint256) public balances */\n    tag_15:\n      mstore(0x20, 0x00)\n      dup1\n      0x00\n      mstore\n      keccak256(0x00, 0x40)\n      0x00\n      swap2\n      pop\n      swap1\n      pop\n      sload\n      dup2\n      jump\t// out\n        /* \"contracts/minimal.sol\":726:1173  function safeTransfer(address _to, uint256 _amount) public {... */\n    tag_20:\n        /* \"contracts/minimal.sol\":795:814  uint256 sendrBalnce */\n      0x00\n        /* \"contracts/minimal.sol\":817:820  _to */\n      dup3\n        /* \"contracts/minimal.sol\":817:828  _to.balance */\n      0xffffffffffffffffffffffffffffffffffffffff\n      and\n      balance\n        /* \"contracts/minimal.sol\":795:828  uint256 sendrBalnce = _to.balance */\n      swap1\n      pop\n        /* \"contracts/minimal.sol\":862:904  0x0000000000000000000000000000000000000000 */\n      0x00\n        /* \"contracts/minimal.sol\":855:904  _to != 0x0000000000000000000000000000000000000000 */\n      0xffffffffffffffffffffffffffffffffffffffff\n      and\n        /* \"contracts/minimal.sol\":855:858  _to */\n      dup4\n        /* \"contracts/minimal.sol\":855:904  _to != 0x0000000000000000000000000000000000000000 */\n      0xffffffffffffffffffffffffffffffffffffffff\n      and\n      eq\n      iszero\n        /* \"contracts/minimal.sol\":855:937  _to != 0x0000000000000000000000000000000000000000 &&... */\n      dup1\n      iszero\n      tag_27\n      jumpi\n      pop\n        /* \"contracts/minimal.sol\":935:936  0 */\n      0x00\n        /* \"contracts/minimal.sol\":921:932  sendrBalnce */\n      dup2\n        /* \"contracts/minimal.sol\":921:936  sendrBalnce > 0 */\n      gt\n        /* \"contracts/minimal.sol\":855:937  _to != 0x0000000000000000000000000000000000000000 &&... */\n    tag_27:\n        /* \"contracts/minimal.sol\":855:984  _to != 0x0000000000000000000000000000000000000000 &&... */\n      dup1\n      iszero\n      tag_28\n      jumpi\n      pop\n        /* \"contracts/minimal.sol\":977:984  _amount */\n      dup2\n        /* \"contracts/minimal.sol\":953:961  balances */\n      0x00\n        /* \"contracts/minimal.sol\":953:973  balances[msg.sender] */\n      dup1\n        /* \"contracts/minimal.sol\":962:972  msg.sender */\n      caller\n        /* \"contracts/minimal.sol\":953:973  balances[msg.sender] */\n      0xffffffffffffffffffffffffffffffffffffffff\n      and\n      0xffffffffffffffffffffffffffffffffffffffff\n      and\n      dup2\n      mstore\n      0x20\n      add\n      swap1\n      dup2\n      mstore\n      0x20\n      add\n      0x00\n      keccak256\n      sload\n        /* \"contracts/minimal.sol\":953:984  balances[msg.sender] >= _amount */\n      lt\n      iszero\n        /* \"contracts/minimal.sol\":855:984  _to != 0x0000000000000000000000000000000000000000 &&... */\n    tag_28:\n        /* \"contracts/minimal.sol\":838:1167  if (... */\n      iszero\n      tag_29\n      jumpi\n        /* \"contracts/minimal.sol\":1055:1062  _amount */\n      dup2\n        /* \"contracts/minimal.sol\":1032:1040  balances */\n      0x00\n        /* \"contracts/minimal.sol\":1032:1052  balances[msg.sender] */\n      dup1\n        /* \"contracts/minimal.sol\":1041:1051  msg.sender */\n      caller\n        /* \"contracts/minimal.sol\":1032:1052  balances[msg.sender] */\n      0xffffffffffffffffffffffffffffffffffffffff\n      and\n      0xffffffffffffffffffffffffffffffffffffffff\n      and\n      dup2\n      mstore\n      0x20\n      add\n      swap1\n      dup2\n      mstore\n      0x20\n      add\n      0x00\n      keccak256\n      sload\n        /* \"contracts/minimal.sol\":1032:1062  balances[msg.sender] - _amount */\n      tag_30\n      swap2\n      swap1\n      tag_31\n      jump\t// in\n    tag_30:\n        /* \"contracts/minimal.sol\":1009:1017  balances */\n      0x00\n        /* \"contracts/minimal.sol\":1009:1029  balances[msg.sender] */\n      dup1\n        /* \"contracts/minimal.sol\":1018:1028  msg.sender */\n      caller\n        /* \"contracts/minimal.sol\":1009:1029  balances[msg.sender] */\n      0xffffffffffffffffffffffffffffffffffffffff\n      and\n      0xffffffffffffffffffffffffffffffffffffffff\n      and\n      dup2\n      mstore\n      0x20\n      add\n      swap1\n      dup2\n      mstore\n      0x20\n      add\n      0x00\n      keccak256\n        /* \"contracts/minimal.sol\":1009:1062  balances[msg.sender] = balances[msg.sender] - _amount */\n      dup2\n      swap1\n      sstore\n      pop\n        /* \"contracts/minimal.sol\":1092:1099  _amount */\n      dup2\n        /* \"contracts/minimal.sol\":1076:1084  balances */\n      0x00\n        /* \"contracts/minimal.sol\":1076:1089  balances[_to] */\n      dup1\n        /* \"contracts/minimal.sol\":1085:1088  _to */\n      dup6\n        /* \"contracts/minimal.sol\":1076:1089  balances[_to] */\n      0xffffffffffffffffffffffffffffffffffffffff\n      and\n      0xffffffffffffffffffffffffffffffffffffffff\n      and\n      dup2\n      mstore\n      0x20\n      add\n      swap1\n      dup2\n      mstore\n      0x20\n      add\n      0x00\n      keccak256\n        /* \"contracts/minimal.sol\":1076:1099  balances[_to] = _amount */\n      dup2\n      swap1\n      sstore\n      pop\n        /* \"contracts/minimal.sol\":838:1167  if (... */\n      jump(tag_32)\n    tag_29:\n        /* \"contracts/minimal.sol\":1152:1155  _to */\n      dup3\n        /* \"contracts/minimal.sol\":1137:1156  UnsafeTransfer(_to) */\n      mload(0x40)\n      0x6a86d24c00000000000000000000000000000000000000000000000000000000\n      dup2\n      mstore\n      0x04\n      add\n      tag_33\n      swap2\n      swap1\n      tag_34\n      jump\t// in\n    tag_33:\n      mload(0x40)\n      dup1\n      swap2\n      sub\n      swap1\n      revert\n        /* \"contracts/minimal.sol\":838:1167  if (... */\n    tag_32:\n        /* \"contracts/minimal.sol\":785:1173  {... */\n      pop\n        /* \"contracts/minimal.sol\":726:1173  function safeTransfer(address _to, uint256 _amount) public {... */\n      pop\n      pop\n      jump\t// out\n        /* \"contracts/minimal.sol\":395:672  function claim() public {... */\n    tag_22:\n        /* \"contracts/minimal.sol\":449:460  totalSupply */\n      sload(0x01)\n        /* \"contracts/minimal.sol\":433:445  totalClaimed */\n      sload(0x02)\n        /* \"contracts/minimal.sol\":433:460  totalClaimed == totalSupply */\n      sub\n        /* \"contracts/minimal.sol\":429:512  if (totalClaimed == totalSupply) {... */\n      tag_36\n      jumpi\n        /* \"contracts/minimal.sol\":483:501  AllTokensClaimed() */\n      mload(0x40)\n      0xcbe2483100000000000000000000000000000000000000000000000000000000\n      dup2\n      mstore\n      0x04\n      add\n      mload(0x40)\n      dup1\n      swap2\n      sub\n      swap1\n      revert\n        /* \"contracts/minimal.sol\":429:512  if (totalClaimed == totalSupply) {... */\n    tag_36:\n        /* \"contracts/minimal.sol\":549:550  0 */\n      0x00\n        /* \"contracts/minimal.sol\":525:533  balances */\n      dup1\n        /* \"contracts/minimal.sol\":525:545  balances[msg.sender] */\n      0x00\n        /* \"contracts/minimal.sol\":534:544  msg.sender */\n      caller\n        /* \"contracts/minimal.sol\":525:545  balances[msg.sender] */\n      0xffffffffffffffffffffffffffffffffffffffff\n      and\n      0xffffffffffffffffffffffffffffffffffffffff\n      and\n      dup2\n      mstore\n      0x20\n      add\n      swap1\n      dup2\n      mstore\n      0x20\n      add\n      0x00\n      keccak256\n      sload\n        /* \"contracts/minimal.sol\":525:550  balances[msg.sender] != 0 */\n      eq\n        /* \"contracts/minimal.sol\":521:599  if (balances[msg.sender] != 0) {... */\n      tag_37\n      jumpi\n        /* \"contracts/minimal.sol\":573:588  TokensClaimed() */\n      mload(0x40)\n      0x0b1327a600000000000000000000000000000000000000000000000000000000\n      dup2\n      mstore\n      0x04\n      add\n      mload(0x40)\n      dup1\n      swap2\n      sub\n      swap1\n      revert\n        /* \"contracts/minimal.sol\":521:599  if (balances[msg.sender] != 0) {... */\n    tag_37:\n        /* \"contracts/minimal.sol\":631:635  1000 */\n      0x03e8\n        /* \"contracts/minimal.sol\":608:616  balances */\n      0x00\n        /* \"contracts/minimal.sol\":608:628  balances[msg.sender] */\n      dup1\n        /* \"contracts/minimal.sol\":617:627  msg.sender */\n      caller\n        /* \"contracts/minimal.sol\":608:628  balances[msg.sender] */\n      0xffffffffffffffffffffffffffffffffffffffff\n      and\n      0xffffffffffffffffffffffffffffffffffffffff\n      and\n      dup2\n      mstore\n      0x20\n      add\n      swap1\n      dup2\n      mstore\n      0x20\n      add\n      0x00\n      keccak256\n        /* \"contracts/minimal.sol\":608:635  balances[msg.sender] = 1000 */\n      dup2\n      swap1\n      sstore\n      pop\n        /* \"contracts/minimal.sol\":661:665  1000 */\n      0x03e8\n        /* \"contracts/minimal.sol\":645:657  totalClaimed */\n      0x02\n      0x00\n        /* \"contracts/minimal.sol\":645:665  totalClaimed += 1000 */\n      dup3\n      dup3\n      sload\n      tag_38\n      swap2\n      swap1\n      tag_39\n      jump\t// in\n    tag_38:\n      swap3\n      pop\n      pop\n      dup2\n      swap1\n      sstore\n      pop\n        /* \"contracts/minimal.sol\":395:672  function claim() public {... */\n      jump\t// out\n        /* \"contracts/minimal.sol\":169:196  uint256 public totalClaimed */\n    tag_24:\n      sload(0x02)\n      dup2\n      jump\t// out\n        /* \"#utility.yul\":7:84   */\n    tag_40:\n        /* \"#utility.yul\":44:51   */\n      0x00\n        /* \"#utility.yul\":73:78   */\n      dup2\n        /* \"#utility.yul\":62:78   */\n      swap1\n      pop\n        /* \"#utility.yul\":7:84   */\n      swap2\n      swap1\n      pop\n      jump\t// out\n        /* \"#utility.yul\":90:208   */\n    tag_41:\n        /* \"#utility.yul\":177:201   */\n      tag_56\n        /* \"#utility.yul\":195:200   */\n      dup2\n        /* \"#utility.yul\":177:201   */\n      tag_40\n      jump\t// in\n    tag_56:\n        /* \"#utility.yul\":172:175   */\n      dup3\n        /* \"#utility.yul\":165:202   */\n      mstore\n        /* \"#utility.yul\":90:208   */\n      pop\n      pop\n      jump\t// out\n        /* \"#utility.yul\":214:436   */\n    tag_11:\n        /* \"#utility.yul\":307:311   */\n      0x00\n        /* \"#utility.yul\":345:347   */\n      0x20\n        /* \"#utility.yul\":334:343   */\n      dup3\n        /* \"#utility.yul\":330:348   */\n      add\n        /* \"#utility.yul\":322:348   */\n      swap1\n      pop\n        /* \"#utility.yul\":358:429   */\n      tag_58\n        /* \"#utility.yul\":426:427   */\n      0x00\n        /* \"#utility.yul\":415:424   */\n      dup4\n        /* \"#utility.yul\":411:428   */\n      add\n        /* \"#utility.yul\":402:408   */\n      dup5\n        /* \"#utility.yul\":358:429   */\n      tag_41\n      jump\t// in\n    tag_58:\n        /* \"#utility.yul\":214:436   */\n      swap3\n      swap2\n      pop\n      pop\n      jump\t// out\n        /* \"#utility.yul\":523:640   */\n    tag_43:\n        /* \"#utility.yul\":632:633   */\n      0x00\n        /* \"#utility.yul\":629:630   */\n      dup1\n        /* \"#utility.yul\":622:634   */\n      revert\n        /* \"#utility.yul\":769:895   */\n    tag_45:\n        /* \"#utility.yul\":806:813   */\n      0x00\n        /* \"#utility.yul\":846:888   */\n      0xffffffffffffffffffffffffffffffffffffffff\n        /* \"#utility.yul\":839:844   */\n      dup3\n        /* \"#utility.yul\":835:889   */\n      and\n        /* \"#utility.yul\":824:889   */\n      swap1\n      pop\n        /* \"#utility.yul\":769:895   */\n      swap2\n      swap1\n      pop\n      jump\t// out\n        /* \"#utility.yul\":901:997   */\n    tag_46:\n        /* \"#utility.yul\":938:945   */\n      0x00\n        /* \"#utility.yul\":967:991   */\n      tag_64\n        /* \"#utility.yul\":985:990   */\n      dup3\n        /* \"#utility.yul\":967:991   */\n      tag_45\n      jump\t// in\n    tag_64:\n        /* \"#utility.yul\":956:991   */\n      swap1\n      pop\n        /* \"#utility.yul\":901:997   */\n      swap2\n      swap1\n      pop\n      jump\t// out\n        /* \"#utility.yul\":1003:1125   */\n    tag_47:\n        /* \"#utility.yul\":1076:1100   */\n      tag_66\n        /* \"#utility.yul\":1094:1099   */\n      dup2\n        /* \"#utility.yul\":1076:1100   */\n      tag_46\n      jump\t// in\n    tag_66:\n        /* \"#utility.yul\":1069:1074   */\n      dup2\n        /* \"#utility.yul\":1066:1101   */\n      eq\n        /* \"#utility.yul\":1056:1119   */\n      tag_67\n      jumpi\n        /* \"#utility.yul\":1115:1116   */\n      0x00\n        /* \"#utility.yul\":1112:1113   */\n      dup1\n        /* \"#utility.yul\":1105:1117   */\n      revert\n        /* \"#utility.yul\":1056:1119   */\n    tag_67:\n        /* \"#utility.yul\":1003:1125   */\n      pop\n      jump\t// out\n        /* \"#utility.yul\":1131:1270   */\n    tag_48:\n        /* \"#utility.yul\":1177:1182   */\n      0x00\n        /* \"#utility.yul\":1215:1221   */\n      dup2\n        /* \"#utility.yul\":1202:1222   */\n      calldataload\n        /* \"#utility.yul\":1193:1222   */\n      swap1\n      pop\n        /* \"#utility.yul\":1231:1264   */\n      tag_69\n        /* \"#utility.yul\":1258:1263   */\n      dup2\n        /* \"#utility.yul\":1231:1264   */\n      tag_47\n      jump\t// in\n    tag_69:\n        /* \"#utility.yul\":1131:1270   */\n      swap3\n      swap2\n      pop\n      pop\n      jump\t// out\n        /* \"#utility.yul\":1276:1605   */\n    tag_14:\n        /* \"#utility.yul\":1335:1341   */\n      0x00\n        /* \"#utility.yul\":1384:1386   */\n      0x20\n        /* \"#utility.yul\":1372:1381   */\n      dup3\n        /* \"#utility.yul\":1363:1370   */\n      dup5\n        /* \"#utility.yul\":1359:1382   */\n      sub\n        /* \"#utility.yul\":1355:1387   */\n      slt\n        /* \"#utility.yul\":1352:1471   */\n      iszero\n      tag_71\n      jumpi\n        /* \"#utility.yul\":1390:1469   */\n      tag_72\n      tag_43\n      jump\t// in\n    tag_72:\n        /* \"#utility.yul\":1352:1471   */\n    tag_71:\n        /* \"#utility.yul\":1510:1511   */\n      0x00\n        /* \"#utility.yul\":1535:1588   */\n      tag_73\n        /* \"#utility.yul\":1580:1587   */\n      dup5\n        /* \"#utility.yul\":1571:1577   */\n      dup3\n        /* \"#utility.yul\":1560:1569   */\n      dup6\n        /* \"#utility.yul\":1556:1578   */\n      add\n        /* \"#utility.yul\":1535:1588   */\n      tag_48\n      jump\t// in\n    tag_73:\n        /* \"#utility.yul\":1525:1588   */\n      swap2\n      pop\n        /* \"#utility.yul\":1481:1598   */\n      pop\n        /* \"#utility.yul\":1276:1605   */\n      swap3\n      swap2\n      pop\n      pop\n      jump\t// out\n        /* \"#utility.yul\":1611:1733   */\n    tag_49:\n        /* \"#utility.yul\":1684:1708   */\n      tag_75\n        /* \"#utility.yul\":1702:1707   */\n      dup2\n        /* \"#utility.yul\":1684:1708   */\n      tag_40\n      jump\t// in\n    tag_75:\n        /* \"#utility.yul\":1677:1682   */\n      dup2\n        /* \"#utility.yul\":1674:1709   */\n      eq\n        /* \"#utility.yul\":1664:1727   */\n      tag_76\n      jumpi\n        /* \"#utility.yul\":1723:1724   */\n      0x00\n        /* \"#utility.yul\":1720:1721   */\n      dup1\n        /* \"#utility.yul\":1713:1725   */\n      revert\n        /* \"#utility.yul\":1664:1727   */\n    tag_76:\n        /* \"#utility.yul\":1611:1733   */\n      pop\n      jump\t// out\n        /* \"#utility.yul\":1739:1878   */\n    tag_50:\n        /* \"#utility.yul\":1785:1790   */\n      0x00\n        /* \"#utility.yul\":1823:1829   */\n      dup2\n        /* \"#utility.yul\":1810:1830   */\n      calldataload\n        /* \"#utility.yul\":1801:1830   */\n      swap1\n      pop\n        /* \"#utility.yul\":1839:1872   */\n      tag_78\n        /* \"#utility.yul\":1866:1871   */\n      dup2\n        /* \"#utility.yul\":1839:1872   */\n      tag_49\n      jump\t// in\n    tag_78:\n        /* \"#utility.yul\":1739:1878   */\n      swap3\n      swap2\n      pop\n      pop\n      jump\t// out\n        /* \"#utility.yul\":1884:2358   */\n    tag_19:\n        /* \"#utility.yul\":1952:1958   */\n      0x00\n        /* \"#utility.yul\":1960:1966   */\n      dup1\n        /* \"#utility.yul\":2009:2011   */\n      0x40\n        /* \"#utility.yul\":1997:2006   */\n      dup4\n        /* \"#utility.yul\":1988:1995   */\n      dup6\n        /* \"#utility.yul\":1984:2007   */\n      sub\n        /* \"#utility.yul\":1980:2012   */\n      slt\n        /* \"#utility.yul\":1977:2096   */\n      iszero\n      tag_80\n      jumpi\n        /* \"#utility.yul\":2015:2094   */\n      tag_81\n      tag_43\n      jump\t// in\n    tag_81:\n        /* \"#utility.yul\":1977:2096   */\n    tag_80:\n        /* \"#utility.yul\":2135:2136   */\n      0x00\n        /* \"#utility.yul\":2160:2213   */\n      tag_82\n        /* \"#utility.yul\":2205:2212   */\n      dup6\n        /* \"#utility.yul\":2196:2202   */\n      dup3\n        /* \"#utility.yul\":2185:2194   */\n      dup7\n        /* \"#utility.yul\":2181:2203   */\n      add\n        /* \"#utility.yul\":2160:2213   */\n      tag_48\n      jump\t// in\n    tag_82:\n        /* \"#utility.yul\":2150:2213   */\n      swap3\n      pop\n        /* \"#utility.yul\":2106:2223   */\n      pop\n        /* \"#utility.yul\":2262:2264   */\n      0x20\n        /* \"#utility.yul\":2288:2341   */\n      tag_83\n        /* \"#utility.yul\":2333:2340   */\n      dup6\n        /* \"#utility.yul\":2324:2330   */\n      dup3\n        /* \"#utility.yul\":2313:2322   */\n      dup7\n        /* \"#utility.yul\":2309:2331   */\n      add\n        /* \"#utility.yul\":2288:2341   */\n      tag_50\n      jump\t// in\n    tag_83:\n        /* \"#utility.yul\":2278:2341   */\n      swap2\n      pop\n        /* \"#utility.yul\":2233:2351   */\n      pop\n        /* \"#utility.yul\":1884:2358   */\n      swap3\n      pop\n      swap3\n      swap1\n      pop\n      jump\t// out\n        /* \"#utility.yul\":2364:2544   */\n    tag_51:\n        /* \"#utility.yul\":2412:2489   */\n      0x4e487b7100000000000000000000000000000000000000000000000000000000\n        /* \"#utility.yul\":2409:2410   */\n      0x00\n        /* \"#utility.yul\":2402:2490   */\n      mstore\n        /* \"#utility.yul\":2509:2513   */\n      0x11\n        /* \"#utility.yul\":2506:2507   */\n      0x04\n        /* \"#utility.yul\":2499:2514   */\n      mstore\n        /* \"#utility.yul\":2533:2537   */\n      0x24\n        /* \"#utility.yul\":2530:2531   */\n      0x00\n        /* \"#utility.yul\":2523:2538   */\n      revert\n        /* \"#utility.yul\":2550:2744   */\n    tag_31:\n        /* \"#utility.yul\":2590:2594   */\n      0x00\n        /* \"#utility.yul\":2610:2630   */\n      tag_86\n        /* \"#utility.yul\":2628:2629   */\n      dup3\n        /* \"#utility.yul\":2610:2630   */\n      tag_40\n      jump\t// in\n    tag_86:\n        /* \"#utility.yul\":2605:2630   */\n      swap2\n      pop\n        /* \"#utility.yul\":2644:2664   */\n      tag_87\n        /* \"#utility.yul\":2662:2663   */\n      dup4\n        /* \"#utility.yul\":2644:2664   */\n      tag_40\n      jump\t// in\n    tag_87:\n        /* \"#utility.yul\":2639:2664   */\n      swap3\n      pop\n        /* \"#utility.yul\":2688:2689   */\n      dup3\n        /* \"#utility.yul\":2685:2686   */\n      dup3\n        /* \"#utility.yul\":2681:2690   */\n      sub\n        /* \"#utility.yul\":2673:2690   */\n      swap1\n      pop\n        /* \"#utility.yul\":2712:2713   */\n      dup2\n        /* \"#utility.yul\":2706:2710   */\n      dup2\n        /* \"#utility.yul\":2703:2714   */\n      gt\n        /* \"#utility.yul\":2700:2737   */\n      iszero\n      tag_88\n      jumpi\n        /* \"#utility.yul\":2717:2735   */\n      tag_89\n      tag_51\n      jump\t// in\n    tag_89:\n        /* \"#utility.yul\":2700:2737   */\n    tag_88:\n        /* \"#utility.yul\":2550:2744   */\n      swap3\n      swap2\n      pop\n      pop\n      jump\t// out\n        /* \"#utility.yul\":2750:2868   */\n    tag_52:\n        /* \"#utility.yul\":2837:2861   */\n      tag_91\n        /* \"#utility.yul\":2855:2860   */\n      dup2\n        /* \"#utility.yul\":2837:2861   */\n      tag_46\n      jump\t// in\n    tag_91:\n        /* \"#utility.yul\":2832:2835   */\n      dup3\n        /* \"#utility.yul\":2825:2862   */\n      mstore\n        /* \"#utility.yul\":2750:2868   */\n      pop\n      pop\n      jump\t// out\n        /* \"#utility.yul\":2874:3096   */\n    tag_34:\n        /* \"#utility.yul\":2967:2971   */\n      0x00\n        /* \"#utility.yul\":3005:3007   */\n      0x20\n        /* \"#utility.yul\":2994:3003   */\n      dup3\n        /* \"#utility.yul\":2990:3008   */\n      add\n        /* \"#utility.yul\":2982:3008   */\n      swap1\n      pop\n        /* \"#utility.yul\":3018:3089   */\n      tag_93\n        /* \"#utility.yul\":3086:3087   */\n      0x00\n        /* \"#utility.yul\":3075:3084   */\n      dup4\n        /* \"#utility.yul\":3071:3088   */\n      add\n        /* \"#utility.yul\":3062:3068   */\n      dup5\n        /* \"#utility.yul\":3018:3089   */\n      tag_52\n      jump\t// in\n    tag_93:\n        /* \"#utility.yul\":2874:3096   */\n      swap3\n      swap2\n      pop\n      pop\n      jump\t// out\n        /* \"#utility.yul\":3102:3293   */\n    tag_39:\n        /* \"#utility.yul\":3142:3145   */\n      0x00\n        /* \"#utility.yul\":3161:3181   */\n      tag_95\n        /* \"#utility.yul\":3179:3180   */\n      dup3\n        /* \"#utility.yul\":3161:3181   */\n      tag_40\n      jump\t// in\n    tag_95:\n        /* \"#utility.yul\":3156:3181   */\n      swap2\n      pop\n        /* \"#utility.yul\":3195:3215   */\n      tag_96\n        /* \"#utility.yul\":3213:3214   */\n      dup4\n        /* \"#utility.yul\":3195:3215   */\n      tag_40\n      jump\t// in\n    tag_96:\n        /* \"#utility.yul\":3190:3215   */\n      swap3\n      pop\n        /* \"#utility.yul\":3238:3239   */\n      dup3\n        /* \"#utility.yul\":3235:3236   */\n      dup3\n        /* \"#utility.yul\":3231:3240   */\n      add\n        /* \"#utility.yul\":3224:3240   */\n      swap1\n      pop\n        /* \"#utility.yul\":3259:3262   */\n      dup1\n        /* \"#utility.yul\":3256:3257   */\n      dup3\n        /* \"#utility.yul\":3253:3263   */\n      gt\n        /* \"#utility.yul\":3250:3286   */\n      iszero\n      tag_97\n      jumpi\n        /* \"#utility.yul\":3266:3284   */\n      tag_98\n      tag_51\n      jump\t// in\n    tag_98:\n        /* \"#utility.yul\":3250:3286   */\n    tag_97:\n        /* \"#utility.yul\":3102:3293   */\n      swap3\n      swap2\n      pop\n      pop\n      jump\t// out\n\n    auxdata: 0xa264697066735822122075149d9ecd928db4c179fd4a4e6537b219859f94ba53f66915d7be5cda5d9a4564736f6c634300081a0033\n}\n",
				"bytecode": {
					"linkReferences": {},
					"object": "6080604052348015600e575f80fd5b506305f5e1006001819055506105e2806100275f395ff3fe608060405234801561000f575f80fd5b5060043610610055575f3560e01c806318160ddd1461005957806327e235e314610077578063423f6cef146100a75780634e71d92d146100c3578063d54ad2a1146100cd575b5f80fd5b6100616100eb565b60405161006e91906103e7565b60405180910390f35b610091600480360381019061008c919061045e565b6100f1565b60405161009e91906103e7565b60405180910390f35b6100c160048036038101906100bc91906104b3565b610105565b005b6100cb6102b8565b005b6100d56103c9565b6040516100e291906103e7565b60405180910390f35b60015481565b5f602052805f5260405f205f915090505481565b5f8273ffffffffffffffffffffffffffffffffffffffff163190505f73ffffffffffffffffffffffffffffffffffffffff168373ffffffffffffffffffffffffffffffffffffffff161415801561015b57505f81115b80156101a35750815f803373ffffffffffffffffffffffffffffffffffffffff1673ffffffffffffffffffffffffffffffffffffffff1681526020019081526020015f205410155b1561027657815f803373ffffffffffffffffffffffffffffffffffffffff1673ffffffffffffffffffffffffffffffffffffffff1681526020019081526020015f20546101f0919061051e565b5f803373ffffffffffffffffffffffffffffffffffffffff1673ffffffffffffffffffffffffffffffffffffffff1681526020019081526020015f2081905550815f808573ffffffffffffffffffffffffffffffffffffffff1673ffffffffffffffffffffffffffffffffffffffff1681526020019081526020015f20819055506102b3565b826040517f6a86d24c0000000000000000000000000000000000000000000000000000000081526004016102aa9190610560565b60405180910390fd5b505050565b600154600254036102f5576040517fcbe2483100000000000000000000000000000000000000000000000000000000815260040160405180910390fd5b5f805f3373ffffffffffffffffffffffffffffffffffffffff1673ffffffffffffffffffffffffffffffffffffffff1681526020019081526020015f20541461036a576040517f0b1327a600000000000000000000000000000000000000000000000000000000815260040160405180910390fd5b6103e85f803373ffffffffffffffffffffffffffffffffffffffff1673ffffffffffffffffffffffffffffffffffffffff1681526020019081526020015f20819055506103e860025f8282546103c09190610579565b92505081905550565b60025481565b5f819050919050565b6103e1816103cf565b82525050565b5f6020820190506103fa5f8301846103d8565b92915050565b5f80fd5b5f73ffffffffffffffffffffffffffffffffffffffff82169050919050565b5f61042d82610404565b9050919050565b61043d81610423565b8114610447575f80fd5b50565b5f8135905061045881610434565b92915050565b5f6020828403121561047357610472610400565b5b5f6104808482850161044a565b91505092915050565b610492816103cf565b811461049c575f80fd5b50565b5f813590506104ad81610489565b92915050565b5f80604083850312156104c9576104c8610400565b5b5f6104d68582860161044a565b92505060206104e78582860161049f565b9150509250929050565b7f4e487b71000000000000000000000000000000000000000000000000000000005f52601160045260245ffd5b5f610528826103cf565b9150610533836103cf565b925082820390508181111561054b5761054a6104f1565b5b92915050565b61055a81610423565b82525050565b5f6020820190506105735f830184610551565b92915050565b5f610583826103cf565b915061058e836103cf565b92508282019050808211156105a6576105a56104f1565b5b9291505056fea264697066735822122075149d9ecd928db4c179fd4a4e6537b219859f94ba53f66915d7be5cda5d9a4564736f6c634300081a0033",
					"opcodes": "PUSH1 0x80 PUSH1 0x40 MSTORE CALLVALUE DUP1 ISZERO PUSH1 0xE JUMPI PUSH0 DUP1 REVERT JUMPDEST POP PUSH4 0x5F5E100 PUSH1 0x1 DUP2 SWAP1 SSTORE POP PUSH2 0x5E2 DUP1 PUSH2 0x27 PUSH0 CODECOPY PUSH0 RETURN INVALID PUSH1 0x80 PUSH1 0x40 MSTORE CALLVALUE DUP1 ISZERO PUSH2 0xF JUMPI PUSH0 DUP1 REVERT JUMPDEST POP PUSH1 0x4 CALLDATASIZE LT PUSH2 0x55 JUMPI PUSH0 CALLDATALOAD PUSH1 0xE0 SHR DUP1 PUSH4 0x18160DDD EQ PUSH2 0x59 JUMPI DUP1 PUSH4 0x27E235E3 EQ PUSH2 0x77 JUMPI DUP1 PUSH4 0x423F6CEF EQ PUSH2 0xA7 JUMPI DUP1 PUSH4 0x4E71D92D EQ PUSH2 0xC3 JUMPI DUP1 PUSH4 0xD54AD2A1 EQ PUSH2 0xCD JUMPI JUMPDEST PUSH0 DUP1 REVERT JUMPDEST PUSH2 0x61 PUSH2 0xEB JUMP JUMPDEST PUSH1 0x40 MLOAD PUSH2 0x6E SWAP2 SWAP1 PUSH2 0x3E7 JUMP JUMPDEST PUSH1 0x40 MLOAD DUP1 SWAP2 SUB SWAP1 RETURN JUMPDEST PUSH2 0x91 PUSH1 0x4 DUP1 CALLDATASIZE SUB DUP2 ADD SWAP1 PUSH2 0x8C SWAP2 SWAP1 PUSH2 0x45E JUMP JUMPDEST PUSH2 0xF1 JUMP JUMPDEST PUSH1 0x40 MLOAD PUSH2 0x9E SWAP2 SWAP1 PUSH2 0x3E7 JUMP JUMPDEST PUSH1 0x40 MLOAD DUP1 SWAP2 SUB SWAP1 RETURN JUMPDEST PUSH2 0xC1 PUSH1 0x4 DUP1 CALLDATASIZE SUB DUP2 ADD SWAP1 PUSH2 0xBC SWAP2 SWAP1 PUSH2 0x4B3 JUMP JUMPDEST PUSH2 0x105 JUMP JUMPDEST STOP JUMPDEST PUSH2 0xCB PUSH2 0x2B8 JUMP JUMPDEST STOP JUMPDEST PUSH2 0xD5 PUSH2 0x3C9 JUMP JUMPDEST PUSH1 0x40 MLOAD PUSH2 0xE2 SWAP2 SWAP1 PUSH2 0x3E7 JUMP JUMPDEST PUSH1 0x40 MLOAD DUP1 SWAP2 SUB SWAP1 RETURN JUMPDEST PUSH1 0x1 SLOAD DUP2 JUMP JUMPDEST PUSH0 PUSH1 0x20 MSTORE DUP1 PUSH0 MSTORE PUSH1 0x40 PUSH0 KECCAK256 PUSH0 SWAP2 POP SWAP1 POP SLOAD DUP2 JUMP JUMPDEST PUSH0 DUP3 PUSH20 0xFFFFFFFFFFFFFFFFFFFFFFFFFFFFFFFFFFFFFFFF AND BALANCE SWAP1 POP PUSH0 PUSH20 0xFFFFFFFFFFFFFFFFFFFFFFFFFFFFFFFFFFFFFFFF AND DUP4 PUSH20 0xFFFFFFFFFFFFFFFFFFFFFFFFFFFFFFFFFFFFFFFF AND EQ ISZERO DUP1 ISZERO PUSH2 0x15B JUMPI POP PUSH0 DUP2 GT JUMPDEST DUP1 ISZERO PUSH2 0x1A3 JUMPI POP DUP2 PUSH0 DUP1 CALLER PUSH20 0xFFFFFFFFFFFFFFFFFFFFFFFFFFFFFFFFFFFFFFFF AND PUSH20 0xFFFFFFFFFFFFFFFFFFFFFFFFFFFFFFFFFFFFFFFF AND DUP2 MSTORE PUSH1 0x20 ADD SWAP1 DUP2 MSTORE PUSH1 0x20 ADD PUSH0 KECCAK256 SLOAD LT ISZERO JUMPDEST ISZERO PUSH2 0x276 JUMPI DUP2 PUSH0 DUP1 CALLER PUSH20 0xFFFFFFFFFFFFFFFFFFFFFFFFFFFFFFFFFFFFFFFF AND PUSH20 0xFFFFFFFFFFFFFFFFFFFFFFFFFFFFFFFFFFFFFFFF AND DUP2 MSTORE PUSH1 0x20 ADD SWAP1 DUP2 MSTORE PUSH1 0x20 ADD PUSH0 KECCAK256 SLOAD PUSH2 0x1F0 SWAP2 SWAP1 PUSH2 0x51E JUMP JUMPDEST PUSH0 DUP1 CALLER PUSH20 0xFFFFFFFFFFFFFFFFFFFFFFFFFFFFFFFFFFFFFFFF AND PUSH20 0xFFFFFFFFFFFFFFFFFFFFFFFFFFFFFFFFFFFFFFFF AND DUP2 MSTORE PUSH1 0x20 ADD SWAP1 DUP2 MSTORE PUSH1 0x20 ADD PUSH0 KECCAK256 DUP2 SWAP1 SSTORE POP DUP2 PUSH0 DUP1 DUP6 PUSH20 0xFFFFFFFFFFFFFFFFFFFFFFFFFFFFFFFFFFFFFFFF AND PUSH20 0xFFFFFFFFFFFFFFFFFFFFFFFFFFFFFFFFFFFFFFFF AND DUP2 MSTORE PUSH1 0x20 ADD SWAP1 DUP2 MSTORE PUSH1 0x20 ADD PUSH0 KECCAK256 DUP2 SWAP1 SSTORE POP PUSH2 0x2B3 JUMP JUMPDEST DUP3 PUSH1 0x40 MLOAD PUSH32 0x6A86D24C00000000000000000000000000000000000000000000000000000000 DUP2 MSTORE PUSH1 0x4 ADD PUSH2 0x2AA SWAP2 SWAP1 PUSH2 0x560 JUMP JUMPDEST PUSH1 0x40 MLOAD DUP1 SWAP2 SUB SWAP1 REVERT JUMPDEST POP POP POP JUMP JUMPDEST PUSH1 0x1 SLOAD PUSH1 0x2 SLOAD SUB PUSH2 0x2F5 JUMPI PUSH1 0x40 MLOAD PUSH32 0xCBE2483100000000000000000000000000000000000000000000000000000000 DUP2 MSTORE PUSH1 0x4 ADD PUSH1 0x40 MLOAD DUP1 SWAP2 SUB SWAP1 REVERT JUMPDEST PUSH0 DUP1 PUSH0 CALLER PUSH20 0xFFFFFFFFFFFFFFFFFFFFFFFFFFFFFFFFFFFFFFFF AND PUSH20 0xFFFFFFFFFFFFFFFFFFFFFFFFFFFFFFFFFFFFFFFF AND DUP2 MSTORE PUSH1 0x20 ADD SWAP1 DUP2 MSTORE PUSH1 0x20 ADD PUSH0 KECCAK256 SLOAD EQ PUSH2 0x36A JUMPI PUSH1 0x40 MLOAD PUSH32 0xB1327A600000000000000000000000000000000000000000000000000000000 DUP2 MSTORE PUSH1 0x4 ADD PUSH1 0x40 MLOAD DUP1 SWAP2 SUB SWAP1 REVERT JUMPDEST PUSH2 0x3E8 PUSH0 DUP1 CALLER PUSH20 0xFFFFFFFFFFFFFFFFFFFFFFFFFFFFFFFFFFFFFFFF AND PUSH20 0xFFFFFFFFFFFFFFFFFFFFFFFFFFFFFFFFFFFFFFFF AND DUP2 MSTORE PUSH1 0x20 ADD SWAP1 DUP2 MSTORE PUSH1 0x20 ADD PUSH0 KECCAK256 DUP2 SWAP1 SSTORE POP PUSH2 0x3E8 PUSH1 0x2 PUSH0 DUP3 DUP3 SLOAD PUSH2 0x3C0 SWAP2 SWAP1 PUSH2 0x579 JUMP JUMPDEST SWAP3 POP POP DUP2 SWAP1 SSTORE POP JUMP JUMPDEST PUSH1 0x2 SLOAD DUP2 JUMP JUMPDEST PUSH0 DUP2 SWAP1 POP SWAP2 SWAP1 POP JUMP JUMPDEST PUSH2 0x3E1 DUP2 PUSH2 0x3CF JUMP JUMPDEST DUP3 MSTORE POP POP JUMP JUMPDEST PUSH0 PUSH1 0x20 DUP3 ADD SWAP1 POP PUSH2 0x3FA PUSH0 DUP4 ADD DUP5 PUSH2 0x3D8 JUMP JUMPDEST SWAP3 SWAP2 POP POP JUMP JUMPDEST PUSH0 DUP1 REVERT JUMPDEST PUSH0 PUSH20 0xFFFFFFFFFFFFFFFFFFFFFFFFFFFFFFFFFFFFFFFF DUP3 AND SWAP1 POP SWAP2 SWAP1 POP JUMP JUMPDEST PUSH0 PUSH2 0x42D DUP3 PUSH2 0x404 JUMP JUMPDEST SWAP1 POP SWAP2 SWAP1 POP JUMP JUMPDEST PUSH2 0x43D DUP2 PUSH2 0x423 JUMP JUMPDEST DUP2 EQ PUSH2 0x447 JUMPI PUSH0 DUP1 REVERT JUMPDEST POP JUMP JUMPDEST PUSH0 DUP2 CALLDATALOAD SWAP1 POP PUSH2 0x458 DUP2 PUSH2 0x434 JUMP JUMPDEST SWAP3 SWAP2 POP POP JUMP JUMPDEST PUSH0 PUSH1 0x20 DUP3 DUP5 SUB SLT ISZERO PUSH2 0x473 JUMPI PUSH2 0x472 PUSH2 0x400 JUMP JUMPDEST JUMPDEST PUSH0 PUSH2 0x480 DUP5 DUP3 DUP6 ADD PUSH2 0x44A JUMP JUMPDEST SWAP2 POP POP SWAP3 SWAP2 POP POP JUMP JUMPDEST PUSH2 0x492 DUP2 PUSH2 0x3CF JUMP JUMPDEST DUP2 EQ PUSH2 0x49C JUMPI PUSH0 DUP1 REVERT JUMPDEST POP JUMP JUMPDEST PUSH0 DUP2 CALLDATALOAD SWAP1 POP PUSH2 0x4AD DUP2 PUSH2 0x489 JUMP JUMPDEST SWAP3 SWAP2 POP POP JUMP JUMPDEST PUSH0 DUP1 PUSH1 0x40 DUP4 DUP6 SUB SLT ISZERO PUSH2 0x4C9 JUMPI PUSH2 0x4C8 PUSH2 0x400 JUMP JUMPDEST JUMPDEST PUSH0 PUSH2 0x4D6 DUP6 DUP3 DUP7 ADD PUSH2 0x44A JUMP JUMPDEST SWAP3 POP POP PUSH1 0x20 PUSH2 0x4E7 DUP6 DUP3 DUP7 ADD PUSH2 0x49F JUMP JUMPDEST SWAP2 POP POP SWAP3 POP SWAP3 SWAP1 POP JUMP JUMPDEST PUSH32 0x4E487B7100000000000000000000000000000000000000000000000000000000 PUSH0 MSTORE PUSH1 0x11 PUSH1 0x4 MSTORE PUSH1 0x24 PUSH0 REVERT JUMPDEST PUSH0 PUSH2 0x528 DUP3 PUSH2 0x3CF JUMP JUMPDEST SWAP2 POP PUSH2 0x533 DUP4 PUSH2 0x3CF JUMP JUMPDEST SWAP3 POP DUP3 DUP3 SUB SWAP1 POP DUP2 DUP2 GT ISZERO PUSH2 0x54B JUMPI PUSH2 0x54A PUSH2 0x4F1 JUMP JUMPDEST JUMPDEST SWAP3 SWAP2 POP POP JUMP JUMPDEST PUSH2 0x55A DUP2 PUSH2 0x423 JUMP JUMPDEST DUP3 MSTORE POP POP JUMP JUMPDEST PUSH0 PUSH1 0x20 DUP3 ADD SWAP1 POP PUSH2 0x573 PUSH0 DUP4 ADD DUP5 PUSH2 0x551 JUMP JUMPDEST SWAP3 SWAP2 POP POP JUMP JUMPDEST PUSH0 PUSH2 0x583 DUP3 PUSH2 0x3CF JUMP JUMPDEST SWAP2 POP PUSH2 0x58E DUP4 PUSH2 0x3CF JUMP JUMPDEST SWAP3 POP DUP3 DUP3 ADD SWAP1 POP DUP1 DUP3 GT ISZERO PUSH2 0x5A6 JUMPI PUSH2 0x5A5 PUSH2 0x4F1 JUMP JUMPDEST JUMPDEST SWAP3 SWAP2 POP POP JUMP INVALID LOG2 PUSH5 0x6970667358 0x22 SLT KECCAK256 PUSH22 0x149D9ECD928DB4C179FD4A4E6537B219859F94BA53F6 PUSH10 0x15D7BE5CDA5D9A456473 PUSH16 0x6C634300081A00330000000000000000 "
				},
				"gasEstimates": {
					"creation": {
						"codeDepositCost": "301200",
						"executionCost": "22455",
						"totalCost": "323655"
					},
					"external": {
						"balances(address)": "2801",
						"claim()": "infinite",
						"safeTransfer(address,uint256)": "infinite",
						"totalClaimed()": "2491",
						"totalSupply()": "2403"
					}
				},
				"methodIdentifiers": {
					"balances(address)": "27e235e3",
					"claim()": "4e71d92d",
					"safeTransfer(address,uint256)": "423f6cef",
					"totalClaimed()": "d54ad2a1",
					"totalSupply()": "18160ddd"
				}
			},
			"storageLayout": {
				"storage": [
					{
						"astId": 5,
						"contract": "contracts/minimal.sol:UnburnableToken",
						"label": "balances",
						"offset": 0,
						"slot": "0",
						"type": "t_mapping(t_address,t_uint256)"
					},
					{
						"astId": 7,
						"contract": "contracts/minimal.sol:UnburnableToken",
						"label": "totalSupply",
						"offset": 0,
						"slot": "1",
						"type": "t_uint256"
					},
					{
						"astId": 9,
						"contract": "contracts/minimal.sol:UnburnableToken",
						"label": "totalClaimed",
						"offset": 0,
						"slot": "2",
						"type": "t_uint256"
					}
				],
				"types": {
					"t_address": {
						"encoding": "inplace",
						"label": "address",
						"numberOfBytes": "20"
					},
					"t_mapping(t_address,t_uint256)": {
						"encoding": "mapping",
						"key": "t_address",
						"label": "mapping(address => uint256)",
						"numberOfBytes": "32",
						"value": "t_uint256"
					},
					"t_uint256": {
						"encoding": "inplace",
						"label": "uint256",
						"numberOfBytes": "32"
					}
				}
			},
			"userdoc": {
				"kind": "user",
				"methods": {},
				"version": 1
			}
		}
	}
}