{
	"contracts/constructr.sol": {
		"wrtContrust": {
			"abi": [
				{
					"inputs": [
						{
							"internalType": "uint8",
							"name": "_age",
							"type": "uint8"
						},
						{
							"internalType": "uint8",
							"name": "_cars",
							"type": "uint8"
						}
					],
					"stateMutability": "nonpayable",
					"type": "constructor"
				},
				{
					"inputs": [],
					"name": "age",
					"outputs": [
						{
							"internalType": "uint8",
							"name": "",
							"type": "uint8"
						}
					],
					"stateMutability": "view",
					"type": "function"
				},
				{
					"inputs": [],
					"name": "cars",
					"outputs": [
						{
							"internalType": "uint8",
							"name": "",
							"type": "uint8"
						}
					],
					"stateMutability": "view",
					"type": "function"
				},
				{
					"inputs": [
						{
							"internalType": "uint8",
							"name": "_age",
							"type": "uint8"
						}
					],
					"name": "changeAge",
					"outputs": [],
					"stateMutability": "nonpayable",
					"type": "function"
				},
				{
					"inputs": [],
					"name": "increaseAge",
					"outputs": [],
					"stateMutability": "nonpayable",
					"type": "function"
				},
				{
					"inputs": [
						{
							"internalType": "uint8",
							"name": "_cars",
							"type": "uint8"
						}
					],
					"name": "updateCars",
					"outputs": [],
					"stateMutability": "nonpayable",
					"type": "function"
				}
			],
			"devdoc": {
				"kind": "dev",
				"methods": {},
				"version": 1
			},
			"evm": {
				"assembly": "    /* \"contracts/constructr.sol\":57:409  contract wrtContrust{... */\n  mstore(0x40, 0x80)\n    /* \"contracts/constructr.sol\":128:210  constructor (uint8 _age, uint8 _cars){... */\n  callvalue\n  dup1\n  iszero\n  tag_1\n  jumpi\n  0x00\n  dup1\n  revert\ntag_1:\n  pop\n  mload(0x40)\n  sub(codesize, bytecodeSize)\n  dup1\n  bytecodeSize\n  dup4\n  codecopy\n  dup2\n  dup2\n  add\n  0x40\n  mstore\n  dup2\n  add\n  swap1\n  tag_2\n  swap2\n  swap1\n  tag_3\n  jump\t// in\ntag_2:\n    /* \"contracts/constructr.sol\":179:183  _age */\n  dup2\n    /* \"contracts/constructr.sol\":175:178  age */\n  0x00\n  dup1\n    /* \"contracts/constructr.sol\":175:183  age=_age */\n  0x0100\n  exp\n  dup2\n  sload\n  dup2\n  0xff\n  mul\n  not\n  and\n  swap1\n  dup4\n  0xff\n  and\n  mul\n  or\n  swap1\n  sstore\n  pop\n    /* \"contracts/constructr.sol\":198:203  _cars */\n  dup1\n    /* \"contracts/constructr.sol\":193:197  cars */\n  0x00\n  0x01\n    /* \"contracts/constructr.sol\":193:203  cars=_cars */\n  0x0100\n  exp\n  dup2\n  sload\n  dup2\n  0xff\n  mul\n  not\n  and\n  swap1\n  dup4\n  0xff\n  and\n  mul\n  or\n  swap1\n  sstore\n  pop\n    /* \"contracts/constructr.sol\":128:210  constructor (uint8 _age, uint8 _cars){... */\n  pop\n  pop\n    /* \"contracts/constructr.sol\":57:409  contract wrtContrust{... */\n  jump(tag_6)\n    /* \"#utility.yul\":88:205   */\ntag_8:\n    /* \"#utility.yul\":197:198   */\n  0x00\n    /* \"#utility.yul\":194:195   */\n  dup1\n    /* \"#utility.yul\":187:199   */\n  revert\n    /* \"#utility.yul\":334:420   */\ntag_10:\n    /* \"#utility.yul\":369:376   */\n  0x00\n    /* \"#utility.yul\":409:413   */\n  0xff\n    /* \"#utility.yul\":402:407   */\n  dup3\n    /* \"#utility.yul\":398:414   */\n  and\n    /* \"#utility.yul\":387:414   */\n  swap1\n  pop\n    /* \"#utility.yul\":334:420   */\n  swap2\n  swap1\n  pop\n  jump\t// out\n    /* \"#utility.yul\":426:544   */\ntag_11:\n    /* \"#utility.yul\":497:519   */\n  tag_19\n    /* \"#utility.yul\":513:518   */\n  dup2\n    /* \"#utility.yul\":497:519   */\n  tag_10\n  jump\t// in\ntag_19:\n    /* \"#utility.yul\":490:495   */\n  dup2\n    /* \"#utility.yul\":487:520   */\n  eq\n    /* \"#utility.yul\":477:538   */\n  tag_20\n  jumpi\n    /* \"#utility.yul\":534:535   */\n  0x00\n    /* \"#utility.yul\":531:532   */\n  dup1\n    /* \"#utility.yul\":524:536   */\n  revert\n    /* \"#utility.yul\":477:538   */\ntag_20:\n    /* \"#utility.yul\":426:544   */\n  pop\n  jump\t// out\n    /* \"#utility.yul\":550:689   */\ntag_12:\n    /* \"#utility.yul\":605:610   */\n  0x00\n    /* \"#utility.yul\":636:642   */\n  dup2\n    /* \"#utility.yul\":630:643   */\n  mload\n    /* \"#utility.yul\":621:643   */\n  swap1\n  pop\n    /* \"#utility.yul\":652:683   */\n  tag_22\n    /* \"#utility.yul\":677:682   */\n  dup2\n    /* \"#utility.yul\":652:683   */\n  tag_11\n  jump\t// in\ntag_22:\n    /* \"#utility.yul\":550:689   */\n  swap3\n  swap2\n  pop\n  pop\n  jump\t// out\n    /* \"#utility.yul\":695:1194   */\ntag_3:\n    /* \"#utility.yul\":770:776   */\n  0x00\n    /* \"#utility.yul\":778:784   */\n  dup1\n    /* \"#utility.yul\":827:829   */\n  0x40\n    /* \"#utility.yul\":815:824   */\n  dup4\n    /* \"#utility.yul\":806:813   */\n  dup6\n    /* \"#utility.yul\":802:825   */\n  sub\n    /* \"#utility.yul\":798:830   */\n  slt\n    /* \"#utility.yul\":795:914   */\n  iszero\n  tag_24\n  jumpi\n    /* \"#utility.yul\":833:912   */\n  tag_25\n  tag_8\n  jump\t// in\ntag_25:\n    /* \"#utility.yul\":795:914   */\ntag_24:\n    /* \"#utility.yul\":953:954   */\n  0x00\n    /* \"#utility.yul\":978:1040   */\n  tag_26\n    /* \"#utility.yul\":1032:1039   */\n  dup6\n    /* \"#utility.yul\":1023:1029   */\n  dup3\n    /* \"#utility.yul\":1012:1021   */\n  dup7\n    /* \"#utility.yul\":1008:1030   */\n  add\n    /* \"#utility.yul\":978:1040   */\n  tag_12\n  jump\t// in\ntag_26:\n    /* \"#utility.yul\":968:1040   */\n  swap3\n  pop\n    /* \"#utility.yul\":924:1050   */\n  pop\n    /* \"#utility.yul\":1089:1091   */\n  0x20\n    /* \"#utility.yul\":1115:1177   */\n  tag_27\n    /* \"#utility.yul\":1169:1176   */\n  dup6\n    /* \"#utility.yul\":1160:1166   */\n  dup3\n    /* \"#utility.yul\":1149:1158   */\n  dup7\n    /* \"#utility.yul\":1145:1167   */\n  add\n    /* \"#utility.yul\":1115:1177   */\n  tag_12\n  jump\t// in\ntag_27:\n    /* \"#utility.yul\":1105:1177   */\n  swap2\n  pop\n    /* \"#utility.yul\":1060:1187   */\n  pop\n    /* \"#utility.yul\":695:1194   */\n  swap3\n  pop\n  swap3\n  swap1\n  pop\n  jump\t// out\n    /* \"contracts/constructr.sol\":57:409  contract wrtContrust{... */\ntag_6:\n  dataSize(sub_0)\n  dup1\n  dataOffset(sub_0)\n  0x00\n  codecopy\n  0x00\n  return\nstop\n\nsub_0: assembly {\n        /* \"contracts/constructr.sol\":57:409  contract wrtContrust{... */\n      mstore(0x40, 0x80)\n      callvalue\n      dup1\n      iszero\n      tag_1\n      jumpi\n      0x00\n      dup1\n      revert\n    tag_1:\n      pop\n      jumpi(tag_2, lt(calldatasize, 0x04))\n      shr(0xe0, calldataload(0x00))\n      dup1\n      0x262a9dff\n      eq\n      tag_3\n      jumpi\n      dup1\n      0x317d749b\n      eq\n      tag_4\n      jumpi\n      dup1\n      0x36bcb4c9\n      eq\n      tag_5\n      jumpi\n      dup1\n      0x9a7ffc57\n      eq\n      tag_6\n      jumpi\n      dup1\n      0xd4ec9fc2\n      eq\n      tag_7\n      jumpi\n    tag_2:\n      0x00\n      dup1\n      revert\n        /* \"contracts/constructr.sol\":83:99  uint8 public age */\n    tag_3:\n      tag_8\n      tag_9\n      jump\t// in\n    tag_8:\n      mload(0x40)\n      tag_10\n      swap2\n      swap1\n      tag_11\n      jump\t// in\n    tag_10:\n      mload(0x40)\n      dup1\n      swap2\n      sub\n      swap1\n      return\n        /* \"contracts/constructr.sol\":215:281  function updateCars(uint8 _cars) public{... */\n    tag_4:\n      tag_12\n      0x04\n      dup1\n      calldatasize\n      sub\n      dup2\n      add\n      swap1\n      tag_13\n      swap2\n      swap1\n      tag_14\n      jump\t// in\n    tag_13:\n      tag_15\n      jump\t// in\n    tag_12:\n      stop\n        /* \"contracts/constructr.sol\":343:407  function changeAge(uint8 _age) public{... */\n    tag_5:\n      tag_16\n      0x04\n      dup1\n      calldatasize\n      sub\n      dup2\n      add\n      swap1\n      tag_17\n      swap2\n      swap1\n      tag_14\n      jump\t// in\n    tag_17:\n      tag_18\n      jump\t// in\n    tag_16:\n      stop\n        /* \"contracts/constructr.sol\":105:122  uint8 public cars */\n    tag_6:\n      tag_19\n      tag_20\n      jump\t// in\n    tag_19:\n      mload(0x40)\n      tag_21\n      swap2\n      swap1\n      tag_11\n      jump\t// in\n    tag_21:\n      mload(0x40)\n      dup1\n      swap2\n      sub\n      swap1\n      return\n        /* \"contracts/constructr.sol\":286:338  function increaseAge() public {... */\n    tag_7:\n      tag_22\n      tag_23\n      jump\t// in\n    tag_22:\n      stop\n        /* \"contracts/constructr.sol\":83:99  uint8 public age */\n    tag_9:\n      0x00\n      dup1\n      sload\n      swap1\n      0x0100\n      exp\n      swap1\n      div\n      0xff\n      and\n      dup2\n      jump\t// out\n        /* \"contracts/constructr.sol\":215:281  function updateCars(uint8 _cars) public{... */\n    tag_15:\n        /* \"contracts/constructr.sol\":269:274  _cars */\n      dup1\n        /* \"contracts/constructr.sol\":264:268  cars */\n      0x00\n      0x01\n        /* \"contracts/constructr.sol\":264:274  cars=_cars */\n      0x0100\n      exp\n      dup2\n      sload\n      dup2\n      0xff\n      mul\n      not\n      and\n      swap1\n      dup4\n      0xff\n      and\n      mul\n      or\n      swap1\n      sstore\n      pop\n        /* \"contracts/constructr.sol\":215:281  function updateCars(uint8 _cars) public{... */\n      pop\n      jump\t// out\n        /* \"contracts/constructr.sol\":343:407  function changeAge(uint8 _age) public{... */\n    tag_18:\n        /* \"contracts/constructr.sol\":396:400  _age */\n      dup1\n        /* \"contracts/constructr.sol\":390:393  age */\n      0x00\n      dup1\n        /* \"contracts/constructr.sol\":390:400  age = _age */\n      0x0100\n      exp\n      dup2\n      sload\n      dup2\n      0xff\n      mul\n      not\n      and\n      swap1\n      dup4\n      0xff\n      and\n      mul\n      or\n      swap1\n      sstore\n      pop\n        /* \"contracts/constructr.sol\":343:407  function changeAge(uint8 _age) public{... */\n      pop\n      jump\t// out\n        /* \"contracts/constructr.sol\":105:122  uint8 public cars */\n    tag_20:\n      0x00\n      0x01\n      swap1\n      sload\n      swap1\n      0x0100\n      exp\n      swap1\n      div\n      0xff\n      and\n      dup2\n      jump\t// out\n        /* \"contracts/constructr.sol\":286:338  function increaseAge() public {... */\n    tag_23:\n        /* \"contracts/constructr.sol\":326:329  age */\n      0x00\n      dup1\n        /* \"contracts/constructr.sol\":326:331  age++ */\n      dup2\n      dup2\n      swap1\n      sload\n      swap1\n      0x0100\n      exp\n      swap1\n      div\n      0xff\n      and\n      dup1\n      swap3\n      swap2\n      swap1\n      tag_27\n      swap1\n      tag_28\n      jump\t// in\n    tag_27:\n      swap2\n      swap1\n      0x0100\n      exp\n      dup2\n      sload\n      dup2\n      0xff\n      mul\n      not\n      and\n      swap1\n      dup4\n      0xff\n      and\n      mul\n      or\n      swap1\n      sstore\n      pop\n      pop\n        /* \"contracts/constructr.sol\":286:338  function increaseAge() public {... */\n      jump\t// out\n        /* \"#utility.yul\":7:93   */\n    tag_29:\n        /* \"#utility.yul\":42:49   */\n      0x00\n        /* \"#utility.yul\":82:86   */\n      0xff\n        /* \"#utility.yul\":75:80   */\n      dup3\n        /* \"#utility.yul\":71:87   */\n      and\n        /* \"#utility.yul\":60:87   */\n      swap1\n      pop\n        /* \"#utility.yul\":7:93   */\n      swap2\n      swap1\n      pop\n      jump\t// out\n        /* \"#utility.yul\":99:211   */\n    tag_30:\n        /* \"#utility.yul\":182:204   */\n      tag_40\n        /* \"#utility.yul\":198:203   */\n      dup2\n        /* \"#utility.yul\":182:204   */\n      tag_29\n      jump\t// in\n    tag_40:\n        /* \"#utility.yul\":177:180   */\n      dup3\n        /* \"#utility.yul\":170:205   */\n      mstore\n        /* \"#utility.yul\":99:211   */\n      pop\n      pop\n      jump\t// out\n        /* \"#utility.yul\":217:431   */\n    tag_11:\n        /* \"#utility.yul\":306:310   */\n      0x00\n        /* \"#utility.yul\":344:346   */\n      0x20\n        /* \"#utility.yul\":333:342   */\n      dup3\n        /* \"#utility.yul\":329:347   */\n      add\n        /* \"#utility.yul\":321:347   */\n      swap1\n      pop\n        /* \"#utility.yul\":357:424   */\n      tag_42\n        /* \"#utility.yul\":421:422   */\n      0x00\n        /* \"#utility.yul\":410:419   */\n      dup4\n        /* \"#utility.yul\":406:423   */\n      add\n        /* \"#utility.yul\":397:403   */\n      dup5\n        /* \"#utility.yul\":357:424   */\n      tag_30\n      jump\t// in\n    tag_42:\n        /* \"#utility.yul\":217:431   */\n      swap3\n      swap2\n      pop\n      pop\n      jump\t// out\n        /* \"#utility.yul\":518:635   */\n    tag_32:\n        /* \"#utility.yul\":627:628   */\n      0x00\n        /* \"#utility.yul\":624:625   */\n      dup1\n        /* \"#utility.yul\":617:629   */\n      revert\n        /* \"#utility.yul\":764:882   */\n    tag_34:\n        /* \"#utility.yul\":835:857   */\n      tag_47\n        /* \"#utility.yul\":851:856   */\n      dup2\n        /* \"#utility.yul\":835:857   */\n      tag_29\n      jump\t// in\n    tag_47:\n        /* \"#utility.yul\":828:833   */\n      dup2\n        /* \"#utility.yul\":825:858   */\n      eq\n        /* \"#utility.yul\":815:876   */\n      tag_48\n      jumpi\n        /* \"#utility.yul\":872:873   */\n      0x00\n        /* \"#utility.yul\":869:870   */\n      dup1\n        /* \"#utility.yul\":862:874   */\n      revert\n        /* \"#utility.yul\":815:876   */\n    tag_48:\n        /* \"#utility.yul\":764:882   */\n      pop\n      jump\t// out\n        /* \"#utility.yul\":888:1023   */\n    tag_35:\n        /* \"#utility.yul\":932:937   */\n      0x00\n        /* \"#utility.yul\":970:976   */\n      dup2\n        /* \"#utility.yul\":957:977   */\n      calldataload\n        /* \"#utility.yul\":948:977   */\n      swap1\n      pop\n        /* \"#utility.yul\":986:1017   */\n      tag_50\n        /* \"#utility.yul\":1011:1016   */\n      dup2\n        /* \"#utility.yul\":986:1017   */\n      tag_34\n      jump\t// in\n    tag_50:\n        /* \"#utility.yul\":888:1023   */\n      swap3\n      swap2\n      pop\n      pop\n      jump\t// out\n        /* \"#utility.yul\":1029:1354   */\n    tag_14:\n        /* \"#utility.yul\":1086:1092   */\n      0x00\n        /* \"#utility.yul\":1135:1137   */\n      0x20\n        /* \"#utility.yul\":1123:1132   */\n      dup3\n        /* \"#utility.yul\":1114:1121   */\n      dup5\n        /* \"#utility.yul\":1110:1133   */\n      sub\n        /* \"#utility.yul\":1106:1138   */\n      slt\n        /* \"#utility.yul\":1103:1222   */\n      iszero\n      tag_52\n      jumpi\n        /* \"#utility.yul\":1141:1220   */\n      tag_53\n      tag_32\n      jump\t// in\n    tag_53:\n        /* \"#utility.yul\":1103:1222   */\n    tag_52:\n        /* \"#utility.yul\":1261:1262   */\n      0x00\n        /* \"#utility.yul\":1286:1337   */\n      tag_54\n        /* \"#utility.yul\":1329:1336   */\n      dup5\n        /* \"#utility.yul\":1320:1326   */\n      dup3\n        /* \"#utility.yul\":1309:1318   */\n      dup6\n        /* \"#utility.yul\":1305:1327   */\n      add\n        /* \"#utility.yul\":1286:1337   */\n      tag_35\n      jump\t// in\n    tag_54:\n        /* \"#utility.yul\":1276:1337   */\n      swap2\n      pop\n        /* \"#utility.yul\":1232:1347   */\n      pop\n        /* \"#utility.yul\":1029:1354   */\n      swap3\n      swap2\n      pop\n      pop\n      jump\t// out\n        /* \"#utility.yul\":1360:1540   */\n    tag_36:\n        /* \"#utility.yul\":1408:1485   */\n      0x4e487b7100000000000000000000000000000000000000000000000000000000\n        /* \"#utility.yul\":1405:1406   */\n      0x00\n        /* \"#utility.yul\":1398:1486   */\n      mstore\n        /* \"#utility.yul\":1505:1509   */\n      0x11\n        /* \"#utility.yul\":1502:1503   */\n      0x04\n        /* \"#utility.yul\":1495:1510   */\n      mstore\n        /* \"#utility.yul\":1529:1533   */\n      0x24\n        /* \"#utility.yul\":1526:1527   */\n      0x00\n        /* \"#utility.yul\":1519:1534   */\n      revert\n        /* \"#utility.yul\":1546:1713   */\n    tag_28:\n        /* \"#utility.yul\":1583:1586   */\n      0x00\n        /* \"#utility.yul\":1606:1628   */\n      tag_57\n        /* \"#utility.yul\":1622:1627   */\n      dup3\n        /* \"#utility.yul\":1606:1628   */\n      tag_29\n      jump\t// in\n    tag_57:\n        /* \"#utility.yul\":1597:1628   */\n      swap2\n      pop\n        /* \"#utility.yul\":1650:1654   */\n      0xff\n        /* \"#utility.yul\":1643:1648   */\n      dup3\n        /* \"#utility.yul\":1640:1655   */\n      sub\n        /* \"#utility.yul\":1637:1678   */\n      tag_58\n      jumpi\n        /* \"#utility.yul\":1658:1676   */\n      tag_59\n      tag_36\n      jump\t// in\n    tag_59:\n        /* \"#utility.yul\":1637:1678   */\n    tag_58:\n        /* \"#utility.yul\":1705:1706   */\n      0x01\n        /* \"#utility.yul\":1698:1703   */\n      dup3\n        /* \"#utility.yul\":1694:1707   */\n      add\n        /* \"#utility.yul\":1687:1707   */\n      swap1\n      pop\n        /* \"#utility.yul\":1546:1713   */\n      swap2\n      swap1\n      pop\n      jump\t// out\n\n    auxdata: 0xa26469706673582212205e0afda8db177ace2fe945b3522712d3cd55f568646cbd3b66eb0cd53968c63a64736f6c634300081a0033\n}\n",
				"bytecode": {
					"linkReferences": {},
					"object": "608060405234801561000f575f80fd5b50604051610372380380610372833981810160405281019061003191906100a5565b815f806101000a81548160ff021916908360ff160217905550805f60016101000a81548160ff021916908360ff16021790555050506100e3565b5f80fd5b5f60ff82169050919050565b6100848161006f565b811461008e575f80fd5b50565b5f8151905061009f8161007b565b92915050565b5f80604083850312156100bb576100ba61006b565b5b5f6100c885828601610091565b92505060206100d985828601610091565b9150509250929050565b610282806100f05f395ff3fe608060405234801561000f575f80fd5b5060043610610055575f3560e01c8063262a9dff14610059578063317d749b1461007757806336bcb4c9146100935780639a7ffc57146100af578063d4ec9fc2146100cd575b5f80fd5b6100616100d7565b60405161006e9190610185565b60405180910390f35b610091600480360381019061008c91906101cc565b6100e7565b005b6100ad60048036038101906100a891906101cc565b610104565b005b6100b7610120565b6040516100c49190610185565b60405180910390f35b6100d5610132565b005b5f8054906101000a900460ff1681565b805f60016101000a81548160ff021916908360ff16021790555050565b805f806101000a81548160ff021916908360ff16021790555050565b5f60019054906101000a900460ff1681565b5f8081819054906101000a900460ff168092919061014f90610224565b91906101000a81548160ff021916908360ff16021790555050565b5f60ff82169050919050565b61017f8161016a565b82525050565b5f6020820190506101985f830184610176565b92915050565b5f80fd5b6101ab8161016a565b81146101b5575f80fd5b50565b5f813590506101c6816101a2565b92915050565b5f602082840312156101e1576101e061019e565b5b5f6101ee848285016101b8565b91505092915050565b7f4e487b71000000000000000000000000000000000000000000000000000000005f52601160045260245ffd5b5f61022e8261016a565b915060ff8203610241576102406101f7565b5b60018201905091905056fea26469706673582212205e0afda8db177ace2fe945b3522712d3cd55f568646cbd3b66eb0cd53968c63a64736f6c634300081a0033",
					"opcodes": "PUSH1 0x80 PUSH1 0x40 MSTORE CALLVALUE DUP1 ISZERO PUSH2 0xF JUMPI PUSH0 DUP1 REVERT JUMPDEST POP PUSH1 0x40 MLOAD PUSH2 0x372 CODESIZE SUB DUP1 PUSH2 0x372 DUP4 CODECOPY DUP2 DUP2 ADD PUSH1 0x40 MSTORE DUP2 ADD SWAP1 PUSH2 0x31 SWAP2 SWAP1 PUSH2 0xA5 JUMP JUMPDEST DUP2 PUSH0 DUP1 PUSH2 0x100 EXP DUP2 SLOAD DUP2 PUSH1 0xFF MUL NOT AND SWAP1 DUP4 PUSH1 0xFF AND MUL OR SWAP1 SSTORE POP DUP1 PUSH0 PUSH1 0x1 PUSH2 0x100 EXP DUP2 SLOAD DUP2 PUSH1 0xFF MUL NOT AND SWAP1 DUP4 PUSH1 0xFF AND MUL OR SWAP1 SSTORE POP POP POP PUSH2 0xE3 JUMP JUMPDEST PUSH0 DUP1 REVERT JUMPDEST PUSH0 PUSH1 0xFF DUP3 AND SWAP1 POP SWAP2 SWAP1 POP JUMP JUMPDEST PUSH2 0x84 DUP2 PUSH2 0x6F JUMP JUMPDEST DUP2 EQ PUSH2 0x8E JUMPI PUSH0 DUP1 REVERT JUMPDEST POP JUMP JUMPDEST PUSH0 DUP2 MLOAD SWAP1 POP PUSH2 0x9F DUP2 PUSH2 0x7B JUMP JUMPDEST SWAP3 SWAP2 POP POP JUMP JUMPDEST PUSH0 DUP1 PUSH1 0x40 DUP4 DUP6 SUB SLT ISZERO PUSH2 0xBB JUMPI PUSH2 0xBA PUSH2 0x6B JUMP JUMPDEST JUMPDEST PUSH0 PUSH2 0xC8 DUP6 DUP3 DUP7 ADD PUSH2 0x91 JUMP JUMPDEST SWAP3 POP POP PUSH1 0x20 PUSH2 0xD9 DUP6 DUP3 DUP7 ADD PUSH2 0x91 JUMP JUMPDEST SWAP2 POP POP SWAP3 POP SWAP3 SWAP1 POP JUMP JUMPDEST PUSH2 0x282 DUP1 PUSH2 0xF0 PUSH0 CODECOPY PUSH0 RETURN INVALID PUSH1 0x80 PUSH1 0x40 MSTORE CALLVALUE DUP1 ISZERO PUSH2 0xF JUMPI PUSH0 DUP1 REVERT JUMPDEST POP PUSH1 0x4 CALLDATASIZE LT PUSH2 0x55 JUMPI PUSH0 CALLDATALOAD PUSH1 0xE0 SHR DUP1 PUSH4 0x262A9DFF EQ PUSH2 0x59 JUMPI DUP1 PUSH4 0x317D749B EQ PUSH2 0x77 JUMPI DUP1 PUSH4 0x36BCB4C9 EQ PUSH2 0x93 JUMPI DUP1 PUSH4 0x9A7FFC57 EQ PUSH2 0xAF JUMPI DUP1 PUSH4 0xD4EC9FC2 EQ PUSH2 0xCD JUMPI JUMPDEST PUSH0 DUP1 REVERT JUMPDEST PUSH2 0x61 PUSH2 0xD7 JUMP JUMPDEST PUSH1 0x40 MLOAD PUSH2 0x6E SWAP2 SWAP1 PUSH2 0x185 JUMP JUMPDEST PUSH1 0x40 MLOAD DUP1 SWAP2 SUB SWAP1 RETURN JUMPDEST PUSH2 0x91 PUSH1 0x4 DUP1 CALLDATASIZE SUB DUP2 ADD SWAP1 PUSH2 0x8C SWAP2 SWAP1 PUSH2 0x1CC JUMP JUMPDEST PUSH2 0xE7 JUMP JUMPDEST STOP JUMPDEST PUSH2 0xAD PUSH1 0x4 DUP1 CALLDATASIZE SUB DUP2 ADD SWAP1 PUSH2 0xA8 SWAP2 SWAP1 PUSH2 0x1CC JUMP JUMPDEST PUSH2 0x104 JUMP JUMPDEST STOP JUMPDEST PUSH2 0xB7 PUSH2 0x120 JUMP JUMPDEST PUSH1 0x40 MLOAD PUSH2 0xC4 SWAP2 SWAP1 PUSH2 0x185 JUMP JUMPDEST PUSH1 0x40 MLOAD DUP1 SWAP2 SUB SWAP1 RETURN JUMPDEST PUSH2 0xD5 PUSH2 0x132 JUMP JUMPDEST STOP JUMPDEST PUSH0 DUP1 SLOAD SWAP1 PUSH2 0x100 EXP SWAP1 DIV PUSH1 0xFF AND DUP2 JUMP JUMPDEST DUP1 PUSH0 PUSH1 0x1 PUSH2 0x100 EXP DUP2 SLOAD DUP2 PUSH1 0xFF MUL NOT AND SWAP1 DUP4 PUSH1 0xFF AND MUL OR SWAP1 SSTORE POP POP JUMP JUMPDEST DUP1 PUSH0 DUP1 PUSH2 0x100 EXP DUP2 SLOAD DUP2 PUSH1 0xFF MUL NOT AND SWAP1 DUP4 PUSH1 0xFF AND MUL OR SWAP1 SSTORE POP POP JUMP JUMPDEST PUSH0 PUSH1 0x1 SWAP1 SLOAD SWAP1 PUSH2 0x100 EXP SWAP1 DIV PUSH1 0xFF AND DUP2 JUMP JUMPDEST PUSH0 DUP1 DUP2 DUP2 SWAP1 SLOAD SWAP1 PUSH2 0x100 EXP SWAP1 DIV PUSH1 0xFF AND DUP1 SWAP3 SWAP2 SWAP1 PUSH2 0x14F SWAP1 PUSH2 0x224 JUMP JUMPDEST SWAP2 SWAP1 PUSH2 0x100 EXP DUP2 SLOAD DUP2 PUSH1 0xFF MUL NOT AND SWAP1 DUP4 PUSH1 0xFF AND MUL OR SWAP1 SSTORE POP POP JUMP JUMPDEST PUSH0 PUSH1 0xFF DUP3 AND SWAP1 POP SWAP2 SWAP1 POP JUMP JUMPDEST PUSH2 0x17F DUP2 PUSH2 0x16A JUMP JUMPDEST DUP3 MSTORE POP POP JUMP JUMPDEST PUSH0 PUSH1 0x20 DUP3 ADD SWAP1 POP PUSH2 0x198 PUSH0 DUP4 ADD DUP5 PUSH2 0x176 JUMP JUMPDEST SWAP3 SWAP2 POP POP JUMP JUMPDEST PUSH0 DUP1 REVERT JUMPDEST PUSH2 0x1AB DUP2 PUSH2 0x16A JUMP JUMPDEST DUP2 EQ PUSH2 0x1B5 JUMPI PUSH0 DUP1 REVERT JUMPDEST POP JUMP JUMPDEST PUSH0 DUP2 CALLDATALOAD SWAP1 POP PUSH2 0x1C6 DUP2 PUSH2 0x1A2 JUMP JUMPDEST SWAP3 SWAP2 POP POP JUMP JUMPDEST PUSH0 PUSH1 0x20 DUP3 DUP5 SUB SLT ISZERO PUSH2 0x1E1 JUMPI PUSH2 0x1E0 PUSH2 0x19E JUMP JUMPDEST JUMPDEST PUSH0 PUSH2 0x1EE DUP5 DUP3 DUP6 ADD PUSH2 0x1B8 JUMP JUMPDEST SWAP2 POP POP SWAP3 SWAP2 POP POP JUMP JUMPDEST PUSH32 0x4E487B7100000000000000000000000000000000000000000000000000000000 PUSH0 MSTORE PUSH1 0x11 PUSH1 0x4 MSTORE PUSH1 0x24 PUSH0 REVERT JUMPDEST PUSH0 PUSH2 0x22E DUP3 PUSH2 0x16A JUMP JUMPDEST SWAP2 POP PUSH1 0xFF DUP3 SUB PUSH2 0x241 JUMPI PUSH2 0x240 PUSH2 0x1F7 JUMP JUMPDEST JUMPDEST PUSH1 0x1 DUP3 ADD SWAP1 POP SWAP2 SWAP1 POP JUMP INVALID LOG2 PUSH5 0x6970667358 0x22 SLT KECCAK256 MCOPY EXP REVERT 0xA8 0xDB OR PUSH27 0xCE2FE945B3522712D3CD55F568646CBD3B66EB0CD53968C63A6473 PUSH16 0x6C634300081A00330000000000000000 "
				},
				"gasEstimates": {
					"creation": {
						"codeDepositCost": "128400",
						"executionCost": "infinite",
						"totalCost": "infinite"
					},
					"external": {
						"age()": "2441",
						"cars()": "2560",
						"changeAge(uint8)": "24695",
						"increaseAge()": "26761",
						"updateCars(uint8)": "24723"
					}
				},
				"methodIdentifiers": {
					"age()": "262a9dff",
					"cars()": "9a7ffc57",
					"changeAge(uint8)": "36bcb4c9",
					"increaseAge()": "d4ec9fc2",
					"updateCars(uint8)": "317d749b"
				}
			},
			"storageLayout": {
				"storage": [
					{
						"astId": 3,
						"contract": "contracts/constructr.sol:wrtContrust",
						"label": "age",
						"offset": 0,
						"slot": "0",
						"type": "t_uint8"
					},
					{
						"astId": 5,
						"contract": "contracts/constructr.sol:wrtContrust",
						"label": "cars",
						"offset": 1,
						"slot": "0",
						"type": "t_uint8"
					}
				],
				"types": {
					"t_uint8": {
						"encoding": "inplace",
						"label": "uint8",
						"numberOfBytes": "1"
					}
				}
			},
			"userdoc": {
				"kind": "user",
				"methods": {},
				"version": 1
			}
		}
	}
}