{
	"contracts/Fund.sol": {
		"Fund": {
			"abi": [
				{
					"inputs": [],
					"name": "balc",
					"outputs": [
						{
							"internalType": "uint256",
							"name": "",
							"type": "uint256"
						}
					],
					"stateMutability": "view",
					"type": "function"
				},
				{
					"inputs": [],
					"name": "deposit",
					"outputs": [],
					"stateMutability": "payable",
					"type": "function"
				},
				{
					"inputs": [],
					"name": "price",
					"outputs": [
						{
							"internalType": "uint256",
							"name": "",
							"type": "uint256"
						}
					],
					"stateMutability": "view",
					"type": "function"
				},
				{
					"inputs": [
						{
							"internalType": "uint256",
							"name": "_number",
							"type": "uint256"
						}
					],
					"name": "withDraw",
					"outputs": [],
					"stateMutability": "nonpayable",
					"type": "function"
				}
			],
			"devdoc": {
				"kind": "dev",
				"methods": {},
				"version": 1
			},
			"evm": {
				"assembly": "    /* \"contracts/Fund.sol\":134:868  contract Fund{... */\n  mstore(0x40, 0x80)\n    /* \"contracts/Fund.sol\":629:633  1e18 */\n  0x0de0b6b3a7640000\n    /* \"contracts/Fund.sol\":623:627  1e10 */\n  0x02540be400\n    /* \"contracts/Fund.sol\":612:622  getPrice() */\n  tag_1\n    /* \"contracts/Fund.sol\":612:620  getPrice */\n  shl(0x20, tag_2)\n    /* \"contracts/Fund.sol\":612:622  getPrice() */\n  0x20\n  shr\n  jump\t// in\ntag_1:\n    /* \"contracts/Fund.sol\":612:627  getPrice()*1e10 */\n  tag_3\n  swap2\n  swap1\n  tag_4\n  jump\t// in\ntag_3:\n    /* \"contracts/Fund.sol\":611:633  (getPrice()*1e10)/1e18 */\n  tag_5\n  swap2\n  swap1\n  tag_6\n  jump\t// in\ntag_5:\n    /* \"contracts/Fund.sol\":591:633  uint public price = (getPrice()*1e10)/1e18 */\n  0x00\n  sstore\n    /* \"contracts/Fund.sol\":134:868  contract Fund{... */\n  callvalue\n  dup1\n  iszero\n  tag_7\n  jumpi\n  0x00\n  dup1\n  revert\ntag_7:\n  pop\n  jump(tag_8)\n    /* \"contracts/Fund.sol\":301:586  function getPrice() internal view returns (uint256) {... */\ntag_2:\n    /* \"contracts/Fund.sol\":344:351  uint256 */\n  0x00\n    /* \"contracts/Fund.sol\":363:394  AggregatorV3Interface priceFeed */\n  dup1\n    /* \"contracts/Fund.sol\":432:474  0x0FB99723Aee6f420beAD13e6bBB79b7E6F034298 */\n  0x0fb99723aee6f420bead13e6bbb79b7e6f034298\n    /* \"contracts/Fund.sol\":363:484  AggregatorV3Interface priceFeed = AggregatorV3Interface(... */\n  swap1\n  pop\n    /* \"contracts/Fund.sol\":497:510  int256 answer */\n  0x00\n    /* \"contracts/Fund.sol\":520:529  priceFeed */\n  dup2\n    /* \"contracts/Fund.sol\":520:545  priceFeed.latestRoundData */\n  0xffffffffffffffffffffffffffffffffffffffff\n  and\n  0xfeaf968c\n    /* \"contracts/Fund.sol\":520:547  priceFeed.latestRoundData() */\n  mload(0x40)\n  dup2\n  0xffffffff\n  and\n  0xe0\n  shl\n  dup2\n  mstore\n  0x04\n  add\n  0xa0\n  mload(0x40)\n  dup1\n  dup4\n  sub\n  dup2\n  dup7\n  gas\n  staticcall\n  iszero\n  dup1\n  iszero\n  tag_11\n  jumpi\n  returndatasize\n  0x00\n  dup1\n  returndatacopy\n  revert(0x00, returndatasize)\ntag_11:\n  pop\n  pop\n  pop\n  pop\n  mload(0x40)\n  returndatasize\n  not(0x1f)\n  0x1f\n  dup3\n  add\n  and\n  dup3\n  add\n  dup1\n  0x40\n  mstore\n  pop\n  dup2\n  add\n  swap1\n  tag_12\n  swap2\n  swap1\n  tag_13\n  jump\t// in\ntag_12:\n    /* \"contracts/Fund.sol\":494:547  (, int256 answer, , , ) = priceFeed.latestRoundData() */\n  pop\n  pop\n  pop\n  swap2\n  pop\n  pop\n    /* \"contracts/Fund.sol\":572:578  answer */\n  dup1\n    /* \"contracts/Fund.sol\":557:579  return uint256(answer) */\n  swap3\n  pop\n  pop\n  pop\n    /* \"contracts/Fund.sol\":301:586  function getPrice() internal view returns (uint256) {... */\n  swap1\n  jump\t// out\n    /* \"#utility.yul\":7:84   */\ntag_14:\n    /* \"#utility.yul\":44:51   */\n  0x00\n    /* \"#utility.yul\":73:78   */\n  dup2\n    /* \"#utility.yul\":62:78   */\n  swap1\n  pop\n    /* \"#utility.yul\":7:84   */\n  swap2\n  swap1\n  pop\n  jump\t// out\n    /* \"#utility.yul\":90:270   */\ntag_15:\n    /* \"#utility.yul\":138:215   */\n  0x4e487b7100000000000000000000000000000000000000000000000000000000\n    /* \"#utility.yul\":135:136   */\n  0x00\n    /* \"#utility.yul\":128:216   */\n  mstore\n    /* \"#utility.yul\":235:239   */\n  0x11\n    /* \"#utility.yul\":232:233   */\n  0x04\n    /* \"#utility.yul\":225:240   */\n  mstore\n    /* \"#utility.yul\":259:263   */\n  0x24\n    /* \"#utility.yul\":256:257   */\n  0x00\n    /* \"#utility.yul\":249:264   */\n  revert\n    /* \"#utility.yul\":276:686   */\ntag_4:\n    /* \"#utility.yul\":316:323   */\n  0x00\n    /* \"#utility.yul\":339:359   */\n  tag_32\n    /* \"#utility.yul\":357:358   */\n  dup3\n    /* \"#utility.yul\":339:359   */\n  tag_14\n  jump\t// in\ntag_32:\n    /* \"#utility.yul\":334:359   */\n  swap2\n  pop\n    /* \"#utility.yul\":373:393   */\n  tag_33\n    /* \"#utility.yul\":391:392   */\n  dup4\n    /* \"#utility.yul\":373:393   */\n  tag_14\n  jump\t// in\ntag_33:\n    /* \"#utility.yul\":368:393   */\n  swap3\n  pop\n    /* \"#utility.yul\":428:429   */\n  dup3\n    /* \"#utility.yul\":425:426   */\n  dup3\n    /* \"#utility.yul\":421:430   */\n  mul\n    /* \"#utility.yul\":450:480   */\n  tag_34\n    /* \"#utility.yul\":468:479   */\n  dup2\n    /* \"#utility.yul\":450:480   */\n  tag_14\n  jump\t// in\ntag_34:\n    /* \"#utility.yul\":439:480   */\n  swap2\n  pop\n    /* \"#utility.yul\":629:630   */\n  dup3\n    /* \"#utility.yul\":620:627   */\n  dup3\n    /* \"#utility.yul\":616:631   */\n  div\n    /* \"#utility.yul\":613:614   */\n  dup5\n    /* \"#utility.yul\":610:632   */\n  eq\n    /* \"#utility.yul\":590:591   */\n  dup4\n    /* \"#utility.yul\":583:592   */\n  iszero\n    /* \"#utility.yul\":563:646   */\n  or\n    /* \"#utility.yul\":540:679   */\n  tag_35\n  jumpi\n    /* \"#utility.yul\":659:677   */\n  tag_36\n  tag_15\n  jump\t// in\ntag_36:\n    /* \"#utility.yul\":540:679   */\ntag_35:\n    /* \"#utility.yul\":324:686   */\n  pop\n    /* \"#utility.yul\":276:686   */\n  swap3\n  swap2\n  pop\n  pop\n  jump\t// out\n    /* \"#utility.yul\":692:872   */\ntag_16:\n    /* \"#utility.yul\":740:817   */\n  0x4e487b7100000000000000000000000000000000000000000000000000000000\n    /* \"#utility.yul\":737:738   */\n  0x00\n    /* \"#utility.yul\":730:818   */\n  mstore\n    /* \"#utility.yul\":837:841   */\n  0x12\n    /* \"#utility.yul\":834:835   */\n  0x04\n    /* \"#utility.yul\":827:842   */\n  mstore\n    /* \"#utility.yul\":861:865   */\n  0x24\n    /* \"#utility.yul\":858:859   */\n  0x00\n    /* \"#utility.yul\":851:866   */\n  revert\n    /* \"#utility.yul\":878:1063   */\ntag_6:\n    /* \"#utility.yul\":918:919   */\n  0x00\n    /* \"#utility.yul\":935:955   */\n  tag_39\n    /* \"#utility.yul\":953:954   */\n  dup3\n    /* \"#utility.yul\":935:955   */\n  tag_14\n  jump\t// in\ntag_39:\n    /* \"#utility.yul\":930:955   */\n  swap2\n  pop\n    /* \"#utility.yul\":969:989   */\n  tag_40\n    /* \"#utility.yul\":987:988   */\n  dup4\n    /* \"#utility.yul\":969:989   */\n  tag_14\n  jump\t// in\ntag_40:\n    /* \"#utility.yul\":964:989   */\n  swap3\n  pop\n    /* \"#utility.yul\":1008:1009   */\n  dup3\n    /* \"#utility.yul\":998:1033   */\n  tag_41\n  jumpi\n    /* \"#utility.yul\":1013:1031   */\n  tag_42\n  tag_16\n  jump\t// in\ntag_42:\n    /* \"#utility.yul\":998:1033   */\ntag_41:\n    /* \"#utility.yul\":1055:1056   */\n  dup3\n    /* \"#utility.yul\":1052:1053   */\n  dup3\n    /* \"#utility.yul\":1048:1057   */\n  div\n    /* \"#utility.yul\":1043:1057   */\n  swap1\n  pop\n    /* \"#utility.yul\":878:1063   */\n  swap3\n  swap2\n  pop\n  pop\n  jump\t// out\n    /* \"#utility.yul\":1150:1267   */\ntag_18:\n    /* \"#utility.yul\":1259:1260   */\n  0x00\n    /* \"#utility.yul\":1256:1257   */\n  dup1\n    /* \"#utility.yul\":1249:1261   */\n  revert\n    /* \"#utility.yul\":1396:1501   */\ntag_20:\n    /* \"#utility.yul\":1432:1439   */\n  0x00\n    /* \"#utility.yul\":1472:1494   */\n  0xffffffffffffffffffff\n    /* \"#utility.yul\":1465:1470   */\n  dup3\n    /* \"#utility.yul\":1461:1495   */\n  and\n    /* \"#utility.yul\":1450:1495   */\n  swap1\n  pop\n    /* \"#utility.yul\":1396:1501   */\n  swap2\n  swap1\n  pop\n  jump\t// out\n    /* \"#utility.yul\":1507:1627   */\ntag_21:\n    /* \"#utility.yul\":1579:1602   */\n  tag_48\n    /* \"#utility.yul\":1596:1601   */\n  dup2\n    /* \"#utility.yul\":1579:1602   */\n  tag_20\n  jump\t// in\ntag_48:\n    /* \"#utility.yul\":1572:1577   */\n  dup2\n    /* \"#utility.yul\":1569:1603   */\n  eq\n    /* \"#utility.yul\":1559:1621   */\n  tag_49\n  jumpi\n    /* \"#utility.yul\":1617:1618   */\n  0x00\n    /* \"#utility.yul\":1614:1615   */\n  dup1\n    /* \"#utility.yul\":1607:1619   */\n  revert\n    /* \"#utility.yul\":1559:1621   */\ntag_49:\n    /* \"#utility.yul\":1507:1627   */\n  pop\n  jump\t// out\n    /* \"#utility.yul\":1633:1774   */\ntag_22:\n    /* \"#utility.yul\":1689:1694   */\n  0x00\n    /* \"#utility.yul\":1720:1726   */\n  dup2\n    /* \"#utility.yul\":1714:1727   */\n  mload\n    /* \"#utility.yul\":1705:1727   */\n  swap1\n  pop\n    /* \"#utility.yul\":1736:1768   */\n  tag_51\n    /* \"#utility.yul\":1762:1767   */\n  dup2\n    /* \"#utility.yul\":1736:1768   */\n  tag_21\n  jump\t// in\ntag_51:\n    /* \"#utility.yul\":1633:1774   */\n  swap3\n  swap2\n  pop\n  pop\n  jump\t// out\n    /* \"#utility.yul\":1780:1856   */\ntag_23:\n    /* \"#utility.yul\":1816:1823   */\n  0x00\n    /* \"#utility.yul\":1845:1850   */\n  dup2\n    /* \"#utility.yul\":1834:1850   */\n  swap1\n  pop\n    /* \"#utility.yul\":1780:1856   */\n  swap2\n  swap1\n  pop\n  jump\t// out\n    /* \"#utility.yul\":1862:1982   */\ntag_24:\n    /* \"#utility.yul\":1934:1957   */\n  tag_54\n    /* \"#utility.yul\":1951:1956   */\n  dup2\n    /* \"#utility.yul\":1934:1957   */\n  tag_23\n  jump\t// in\ntag_54:\n    /* \"#utility.yul\":1927:1932   */\n  dup2\n    /* \"#utility.yul\":1924:1958   */\n  eq\n    /* \"#utility.yul\":1914:1976   */\n  tag_55\n  jumpi\n    /* \"#utility.yul\":1972:1973   */\n  0x00\n    /* \"#utility.yul\":1969:1970   */\n  dup1\n    /* \"#utility.yul\":1962:1974   */\n  revert\n    /* \"#utility.yul\":1914:1976   */\ntag_55:\n    /* \"#utility.yul\":1862:1982   */\n  pop\n  jump\t// out\n    /* \"#utility.yul\":1988:2129   */\ntag_25:\n    /* \"#utility.yul\":2044:2049   */\n  0x00\n    /* \"#utility.yul\":2075:2081   */\n  dup2\n    /* \"#utility.yul\":2069:2082   */\n  mload\n    /* \"#utility.yul\":2060:2082   */\n  swap1\n  pop\n    /* \"#utility.yul\":2091:2123   */\n  tag_57\n    /* \"#utility.yul\":2117:2122   */\n  dup2\n    /* \"#utility.yul\":2091:2123   */\n  tag_24\n  jump\t// in\ntag_57:\n    /* \"#utility.yul\":1988:2129   */\n  swap3\n  swap2\n  pop\n  pop\n  jump\t// out\n    /* \"#utility.yul\":2135:2257   */\ntag_26:\n    /* \"#utility.yul\":2208:2232   */\n  tag_59\n    /* \"#utility.yul\":2226:2231   */\n  dup2\n    /* \"#utility.yul\":2208:2232   */\n  tag_14\n  jump\t// in\ntag_59:\n    /* \"#utility.yul\":2201:2206   */\n  dup2\n    /* \"#utility.yul\":2198:2233   */\n  eq\n    /* \"#utility.yul\":2188:2251   */\n  tag_60\n  jumpi\n    /* \"#utility.yul\":2247:2248   */\n  0x00\n    /* \"#utility.yul\":2244:2245   */\n  dup1\n    /* \"#utility.yul\":2237:2249   */\n  revert\n    /* \"#utility.yul\":2188:2251   */\ntag_60:\n    /* \"#utility.yul\":2135:2257   */\n  pop\n  jump\t// out\n    /* \"#utility.yul\":2263:2406   */\ntag_27:\n    /* \"#utility.yul\":2320:2325   */\n  0x00\n    /* \"#utility.yul\":2351:2357   */\n  dup2\n    /* \"#utility.yul\":2345:2358   */\n  mload\n    /* \"#utility.yul\":2336:2358   */\n  swap1\n  pop\n    /* \"#utility.yul\":2367:2400   */\n  tag_62\n    /* \"#utility.yul\":2394:2399   */\n  dup2\n    /* \"#utility.yul\":2367:2400   */\n  tag_26\n  jump\t// in\ntag_62:\n    /* \"#utility.yul\":2263:2406   */\n  swap3\n  swap2\n  pop\n  pop\n  jump\t// out\n    /* \"#utility.yul\":2412:3383   */\ntag_13:\n    /* \"#utility.yul\":2515:2521   */\n  0x00\n    /* \"#utility.yul\":2523:2529   */\n  dup1\n    /* \"#utility.yul\":2531:2537   */\n  0x00\n    /* \"#utility.yul\":2539:2545   */\n  dup1\n    /* \"#utility.yul\":2547:2553   */\n  0x00\n    /* \"#utility.yul\":2596:2599   */\n  0xa0\n    /* \"#utility.yul\":2584:2593   */\n  dup7\n    /* \"#utility.yul\":2575:2582   */\n  dup9\n    /* \"#utility.yul\":2571:2594   */\n  sub\n    /* \"#utility.yul\":2567:2600   */\n  slt\n    /* \"#utility.yul\":2564:2684   */\n  iszero\n  tag_64\n  jumpi\n    /* \"#utility.yul\":2603:2682   */\n  tag_65\n  tag_18\n  jump\t// in\ntag_65:\n    /* \"#utility.yul\":2564:2684   */\ntag_64:\n    /* \"#utility.yul\":2723:2724   */\n  0x00\n    /* \"#utility.yul\":2748:2811   */\n  tag_66\n    /* \"#utility.yul\":2803:2810   */\n  dup9\n    /* \"#utility.yul\":2794:2800   */\n  dup3\n    /* \"#utility.yul\":2783:2792   */\n  dup10\n    /* \"#utility.yul\":2779:2801   */\n  add\n    /* \"#utility.yul\":2748:2811   */\n  tag_22\n  jump\t// in\ntag_66:\n    /* \"#utility.yul\":2738:2811   */\n  swap6\n  pop\n    /* \"#utility.yul\":2694:2821   */\n  pop\n    /* \"#utility.yul\":2860:2862   */\n  0x20\n    /* \"#utility.yul\":2886:2949   */\n  tag_67\n    /* \"#utility.yul\":2941:2948   */\n  dup9\n    /* \"#utility.yul\":2932:2938   */\n  dup3\n    /* \"#utility.yul\":2921:2930   */\n  dup10\n    /* \"#utility.yul\":2917:2939   */\n  add\n    /* \"#utility.yul\":2886:2949   */\n  tag_25\n  jump\t// in\ntag_67:\n    /* \"#utility.yul\":2876:2949   */\n  swap5\n  pop\n    /* \"#utility.yul\":2831:2959   */\n  pop\n    /* \"#utility.yul\":2998:3000   */\n  0x40\n    /* \"#utility.yul\":3024:3088   */\n  tag_68\n    /* \"#utility.yul\":3080:3087   */\n  dup9\n    /* \"#utility.yul\":3071:3077   */\n  dup3\n    /* \"#utility.yul\":3060:3069   */\n  dup10\n    /* \"#utility.yul\":3056:3078   */\n  add\n    /* \"#utility.yul\":3024:3088   */\n  tag_27\n  jump\t// in\ntag_68:\n    /* \"#utility.yul\":3014:3088   */\n  swap4\n  pop\n    /* \"#utility.yul\":2969:3098   */\n  pop\n    /* \"#utility.yul\":3137:3139   */\n  0x60\n    /* \"#utility.yul\":3163:3227   */\n  tag_69\n    /* \"#utility.yul\":3219:3226   */\n  dup9\n    /* \"#utility.yul\":3210:3216   */\n  dup3\n    /* \"#utility.yul\":3199:3208   */\n  dup10\n    /* \"#utility.yul\":3195:3217   */\n  add\n    /* \"#utility.yul\":3163:3227   */\n  tag_27\n  jump\t// in\ntag_69:\n    /* \"#utility.yul\":3153:3227   */\n  swap3\n  pop\n    /* \"#utility.yul\":3108:3237   */\n  pop\n    /* \"#utility.yul\":3276:3279   */\n  0x80\n    /* \"#utility.yul\":3303:3366   */\n  tag_70\n    /* \"#utility.yul\":3358:3365   */\n  dup9\n    /* \"#utility.yul\":3349:3355   */\n  dup3\n    /* \"#utility.yul\":3338:3347   */\n  dup10\n    /* \"#utility.yul\":3334:3356   */\n  add\n    /* \"#utility.yul\":3303:3366   */\n  tag_22\n  jump\t// in\ntag_70:\n    /* \"#utility.yul\":3293:3366   */\n  swap2\n  pop\n    /* \"#utility.yul\":3247:3376   */\n  pop\n    /* \"#utility.yul\":2412:3383   */\n  swap3\n  swap6\n  pop\n  swap3\n  swap6\n  swap1\n  swap4\n  pop\n  jump\t// out\n    /* \"contracts/Fund.sol\":134:868  contract Fund{... */\ntag_8:\n  dataSize(sub_0)\n  dup1\n  dataOffset(sub_0)\n  0x00\n  codecopy\n  0x00\n  return\nstop\n\nsub_0: assembly {\n        /* \"contracts/Fund.sol\":134:868  contract Fund{... */\n      mstore(0x40, 0x80)\n      jumpi(tag_1, lt(calldatasize, 0x04))\n      shr(0xe0, calldataload(0x00))\n      dup1\n      0x14174f33\n      eq\n      tag_2\n      jumpi\n      dup1\n      0x2fdb4c59\n      eq\n      tag_3\n      jumpi\n      dup1\n      0xa035b1fe\n      eq\n      tag_4\n      jumpi\n      dup1\n      0xd0e30db0\n      eq\n      tag_5\n      jumpi\n    tag_1:\n      0x00\n      dup1\n      revert\n        /* \"contracts/Fund.sol\":640:767  function withDraw(uint _number) public{... */\n    tag_2:\n      callvalue\n      dup1\n      iszero\n      tag_6\n      jumpi\n      0x00\n      dup1\n      revert\n    tag_6:\n      pop\n      tag_7\n      0x04\n      dup1\n      calldatasize\n      sub\n      dup2\n      add\n      swap1\n      tag_8\n      swap2\n      swap1\n      tag_9\n      jump\t// in\n    tag_8:\n      tag_10\n      jump\t// in\n    tag_7:\n      stop\n        /* \"contracts/Fund.sol\":772:866  function balc() public view returns(uint256){... */\n    tag_3:\n      callvalue\n      dup1\n      iszero\n      tag_11\n      jumpi\n      0x00\n      dup1\n      revert\n    tag_11:\n      pop\n      tag_12\n      tag_13\n      jump\t// in\n    tag_12:\n      mload(0x40)\n      tag_14\n      swap2\n      swap1\n      tag_15\n      jump\t// in\n    tag_14:\n      mload(0x40)\n      dup1\n      swap2\n      sub\n      swap1\n      return\n        /* \"contracts/Fund.sol\":591:633  uint public price = (getPrice()*1e10)/1e18 */\n    tag_4:\n      callvalue\n      dup1\n      iszero\n      tag_16\n      jumpi\n      0x00\n      dup1\n      revert\n    tag_16:\n      pop\n      tag_17\n      tag_18\n      jump\t// in\n    tag_17:\n      mload(0x40)\n      tag_19\n      swap2\n      swap1\n      tag_15\n      jump\t// in\n    tag_19:\n      mload(0x40)\n      dup1\n      swap2\n      sub\n      swap1\n      return\n        /* \"contracts/Fund.sol\":259:296  function deposit() external payable{} */\n    tag_5:\n      tag_20\n      tag_21\n      jump\t// in\n    tag_20:\n      stop\n        /* \"contracts/Fund.sol\":640:767  function withDraw(uint _number) public{... */\n    tag_10:\n        /* \"contracts/Fund.sol\":708:712  1e18 */\n      0x0de0b6b3a7640000\n        /* \"contracts/Fund.sol\":698:705  _number */\n      dup2\n        /* \"contracts/Fund.sol\":698:712  _number * 1e18 */\n      tag_23\n      swap2\n      swap1\n      tag_24\n      jump\t// in\n    tag_23:\n        /* \"contracts/Fund.sol\":688:712  _number = _number * 1e18 */\n      swap1\n      pop\n        /* \"contracts/Fund.sol\":731:741  msg.sender */\n      caller\n        /* \"contracts/Fund.sol\":723:751  payable(msg.sender).transfer */\n      0xffffffffffffffffffffffffffffffffffffffff\n      and\n        /* \"contracts/Fund.sol\":723:760  payable(msg.sender).transfer(_number) */\n      0x08fc\n        /* \"contracts/Fund.sol\":752:759  _number */\n      dup3\n        /* \"contracts/Fund.sol\":723:760  payable(msg.sender).transfer(_number) */\n      swap1\n      dup2\n      iszero\n      mul\n      swap1\n      mload(0x40)\n      0x00\n      mload(0x40)\n      dup1\n      dup4\n      sub\n      dup2\n      dup6\n      dup9\n      dup9\n      call\n      swap4\n      pop\n      pop\n      pop\n      pop\n      iszero\n      dup1\n      iszero\n      tag_26\n      jumpi\n      returndatasize\n      0x00\n      dup1\n      returndatacopy\n      revert(0x00, returndatasize)\n    tag_26:\n      pop\n        /* \"contracts/Fund.sol\":640:767  function withDraw(uint _number) public{... */\n      pop\n      jump\t// out\n        /* \"contracts/Fund.sol\":772:866  function balc() public view returns(uint256){... */\n    tag_13:\n        /* \"contracts/Fund.sol\":808:815  uint256 */\n      0x00\n        /* \"contracts/Fund.sol\":855:859  1e18 */\n      0x0de0b6b3a7640000\n        /* \"contracts/Fund.sol\":833:854  address(this).balance */\n      selfbalance\n        /* \"contracts/Fund.sol\":833:859  address(this).balance/1e18 */\n      tag_28\n      swap2\n      swap1\n      tag_29\n      jump\t// in\n    tag_28:\n        /* \"contracts/Fund.sol\":826:859  return address(this).balance/1e18 */\n      swap1\n      pop\n        /* \"contracts/Fund.sol\":772:866  function balc() public view returns(uint256){... */\n      swap1\n      jump\t// out\n        /* \"contracts/Fund.sol\":591:633  uint public price = (getPrice()*1e10)/1e18 */\n    tag_18:\n      sload(0x00)\n      dup2\n      jump\t// out\n        /* \"contracts/Fund.sol\":259:296  function deposit() external payable{} */\n    tag_21:\n      jump\t// out\n        /* \"#utility.yul\":88:205   */\n    tag_32:\n        /* \"#utility.yul\":197:198   */\n      0x00\n        /* \"#utility.yul\":194:195   */\n      dup1\n        /* \"#utility.yul\":187:199   */\n      revert\n        /* \"#utility.yul\":334:411   */\n    tag_34:\n        /* \"#utility.yul\":371:378   */\n      0x00\n        /* \"#utility.yul\":400:405   */\n      dup2\n        /* \"#utility.yul\":389:405   */\n      swap1\n      pop\n        /* \"#utility.yul\":334:411   */\n      swap2\n      swap1\n      pop\n      jump\t// out\n        /* \"#utility.yul\":417:539   */\n    tag_35:\n        /* \"#utility.yul\":490:514   */\n      tag_46\n        /* \"#utility.yul\":508:513   */\n      dup2\n        /* \"#utility.yul\":490:514   */\n      tag_34\n      jump\t// in\n    tag_46:\n        /* \"#utility.yul\":483:488   */\n      dup2\n        /* \"#utility.yul\":480:515   */\n      eq\n        /* \"#utility.yul\":470:533   */\n      tag_47\n      jumpi\n        /* \"#utility.yul\":529:530   */\n      0x00\n        /* \"#utility.yul\":526:527   */\n      dup1\n        /* \"#utility.yul\":519:531   */\n      revert\n        /* \"#utility.yul\":470:533   */\n    tag_47:\n        /* \"#utility.yul\":417:539   */\n      pop\n      jump\t// out\n        /* \"#utility.yul\":545:684   */\n    tag_36:\n        /* \"#utility.yul\":591:596   */\n      0x00\n        /* \"#utility.yul\":629:635   */\n      dup2\n        /* \"#utility.yul\":616:636   */\n      calldataload\n        /* \"#utility.yul\":607:636   */\n      swap1\n      pop\n        /* \"#utility.yul\":645:678   */\n      tag_49\n        /* \"#utility.yul\":672:677   */\n      dup2\n        /* \"#utility.yul\":645:678   */\n      tag_35\n      jump\t// in\n    tag_49:\n        /* \"#utility.yul\":545:684   */\n      swap3\n      swap2\n      pop\n      pop\n      jump\t// out\n        /* \"#utility.yul\":690:1019   */\n    tag_9:\n        /* \"#utility.yul\":749:755   */\n      0x00\n        /* \"#utility.yul\":798:800   */\n      0x20\n        /* \"#utility.yul\":786:795   */\n      dup3\n        /* \"#utility.yul\":777:784   */\n      dup5\n        /* \"#utility.yul\":773:796   */\n      sub\n        /* \"#utility.yul\":769:801   */\n      slt\n        /* \"#utility.yul\":766:885   */\n      iszero\n      tag_51\n      jumpi\n        /* \"#utility.yul\":804:883   */\n      tag_52\n      tag_32\n      jump\t// in\n    tag_52:\n        /* \"#utility.yul\":766:885   */\n    tag_51:\n        /* \"#utility.yul\":924:925   */\n      0x00\n        /* \"#utility.yul\":949:1002   */\n      tag_53\n        /* \"#utility.yul\":994:1001   */\n      dup5\n        /* \"#utility.yul\":985:991   */\n      dup3\n        /* \"#utility.yul\":974:983   */\n      dup6\n        /* \"#utility.yul\":970:992   */\n      add\n        /* \"#utility.yul\":949:1002   */\n      tag_36\n      jump\t// in\n    tag_53:\n        /* \"#utility.yul\":939:1002   */\n      swap2\n      pop\n        /* \"#utility.yul\":895:1012   */\n      pop\n        /* \"#utility.yul\":690:1019   */\n      swap3\n      swap2\n      pop\n      pop\n      jump\t// out\n        /* \"#utility.yul\":1025:1143   */\n    tag_37:\n        /* \"#utility.yul\":1112:1136   */\n      tag_55\n        /* \"#utility.yul\":1130:1135   */\n      dup2\n        /* \"#utility.yul\":1112:1136   */\n      tag_34\n      jump\t// in\n    tag_55:\n        /* \"#utility.yul\":1107:1110   */\n      dup3\n        /* \"#utility.yul\":1100:1137   */\n      mstore\n        /* \"#utility.yul\":1025:1143   */\n      pop\n      pop\n      jump\t// out\n        /* \"#utility.yul\":1149:1371   */\n    tag_15:\n        /* \"#utility.yul\":1242:1246   */\n      0x00\n        /* \"#utility.yul\":1280:1282   */\n      0x20\n        /* \"#utility.yul\":1269:1278   */\n      dup3\n        /* \"#utility.yul\":1265:1283   */\n      add\n        /* \"#utility.yul\":1257:1283   */\n      swap1\n      pop\n        /* \"#utility.yul\":1293:1364   */\n      tag_57\n        /* \"#utility.yul\":1361:1362   */\n      0x00\n        /* \"#utility.yul\":1350:1359   */\n      dup4\n        /* \"#utility.yul\":1346:1363   */\n      add\n        /* \"#utility.yul\":1337:1343   */\n      dup5\n        /* \"#utility.yul\":1293:1364   */\n      tag_37\n      jump\t// in\n    tag_57:\n        /* \"#utility.yul\":1149:1371   */\n      swap3\n      swap2\n      pop\n      pop\n      jump\t// out\n        /* \"#utility.yul\":1377:1557   */\n    tag_38:\n        /* \"#utility.yul\":1425:1502   */\n      0x4e487b7100000000000000000000000000000000000000000000000000000000\n        /* \"#utility.yul\":1422:1423   */\n      0x00\n        /* \"#utility.yul\":1415:1503   */\n      mstore\n        /* \"#utility.yul\":1522:1526   */\n      0x11\n        /* \"#utility.yul\":1519:1520   */\n      0x04\n        /* \"#utility.yul\":1512:1527   */\n      mstore\n        /* \"#utility.yul\":1546:1550   */\n      0x24\n        /* \"#utility.yul\":1543:1544   */\n      0x00\n        /* \"#utility.yul\":1536:1551   */\n      revert\n        /* \"#utility.yul\":1563:1973   */\n    tag_24:\n        /* \"#utility.yul\":1603:1610   */\n      0x00\n        /* \"#utility.yul\":1626:1646   */\n      tag_60\n        /* \"#utility.yul\":1644:1645   */\n      dup3\n        /* \"#utility.yul\":1626:1646   */\n      tag_34\n      jump\t// in\n    tag_60:\n        /* \"#utility.yul\":1621:1646   */\n      swap2\n      pop\n        /* \"#utility.yul\":1660:1680   */\n      tag_61\n        /* \"#utility.yul\":1678:1679   */\n      dup4\n        /* \"#utility.yul\":1660:1680   */\n      tag_34\n      jump\t// in\n    tag_61:\n        /* \"#utility.yul\":1655:1680   */\n      swap3\n      pop\n        /* \"#utility.yul\":1715:1716   */\n      dup3\n        /* \"#utility.yul\":1712:1713   */\n      dup3\n        /* \"#utility.yul\":1708:1717   */\n      mul\n        /* \"#utility.yul\":1737:1767   */\n      tag_62\n        /* \"#utility.yul\":1755:1766   */\n      dup2\n        /* \"#utility.yul\":1737:1767   */\n      tag_34\n      jump\t// in\n    tag_62:\n        /* \"#utility.yul\":1726:1767   */\n      swap2\n      pop\n        /* \"#utility.yul\":1916:1917   */\n      dup3\n        /* \"#utility.yul\":1907:1914   */\n      dup3\n        /* \"#utility.yul\":1903:1918   */\n      div\n        /* \"#utility.yul\":1900:1901   */\n      dup5\n        /* \"#utility.yul\":1897:1919   */\n      eq\n        /* \"#utility.yul\":1877:1878   */\n      dup4\n        /* \"#utility.yul\":1870:1879   */\n      iszero\n        /* \"#utility.yul\":1850:1933   */\n      or\n        /* \"#utility.yul\":1827:1966   */\n      tag_63\n      jumpi\n        /* \"#utility.yul\":1946:1964   */\n      tag_64\n      tag_38\n      jump\t// in\n    tag_64:\n        /* \"#utility.yul\":1827:1966   */\n    tag_63:\n        /* \"#utility.yul\":1611:1973   */\n      pop\n        /* \"#utility.yul\":1563:1973   */\n      swap3\n      swap2\n      pop\n      pop\n      jump\t// out\n        /* \"#utility.yul\":1979:2159   */\n    tag_39:\n        /* \"#utility.yul\":2027:2104   */\n      0x4e487b7100000000000000000000000000000000000000000000000000000000\n        /* \"#utility.yul\":2024:2025   */\n      0x00\n        /* \"#utility.yul\":2017:2105   */\n      mstore\n        /* \"#utility.yul\":2124:2128   */\n      0x12\n        /* \"#utility.yul\":2121:2122   */\n      0x04\n        /* \"#utility.yul\":2114:2129   */\n      mstore\n        /* \"#utility.yul\":2148:2152   */\n      0x24\n        /* \"#utility.yul\":2145:2146   */\n      0x00\n        /* \"#utility.yul\":2138:2153   */\n      revert\n        /* \"#utility.yul\":2165:2350   */\n    tag_29:\n        /* \"#utility.yul\":2205:2206   */\n      0x00\n        /* \"#utility.yul\":2222:2242   */\n      tag_67\n        /* \"#utility.yul\":2240:2241   */\n      dup3\n        /* \"#utility.yul\":2222:2242   */\n      tag_34\n      jump\t// in\n    tag_67:\n        /* \"#utility.yul\":2217:2242   */\n      swap2\n      pop\n        /* \"#utility.yul\":2256:2276   */\n      tag_68\n        /* \"#utility.yul\":2274:2275   */\n      dup4\n        /* \"#utility.yul\":2256:2276   */\n      tag_34\n      jump\t// in\n    tag_68:\n        /* \"#utility.yul\":2251:2276   */\n      swap3\n      pop\n        /* \"#utility.yul\":2295:2296   */\n      dup3\n        /* \"#utility.yul\":2285:2320   */\n      tag_69\n      jumpi\n        /* \"#utility.yul\":2300:2318   */\n      tag_70\n      tag_39\n      jump\t// in\n    tag_70:\n        /* \"#utility.yul\":2285:2320   */\n    tag_69:\n        /* \"#utility.yul\":2342:2343   */\n      dup3\n        /* \"#utility.yul\":2339:2340   */\n      dup3\n        /* \"#utility.yul\":2335:2344   */\n      div\n        /* \"#utility.yul\":2330:2344   */\n      swap1\n      pop\n        /* \"#utility.yul\":2165:2350   */\n      swap3\n      swap2\n      pop\n      pop\n      jump\t// out\n\n    auxdata: 0xa2646970667358221220dd94226f7f4d32c454e763dff825811f159bfb367cf7bafb758e6208d22d517164736f6c634300081a0033\n}\n",
				"bytecode": {
					"linkReferences": {},
					"object": "6080604052670de0b6b3a76400006402540be40061002161004860201b60201c565b61002b9190610113565b6100359190610181565b5f55348015610042575f80fd5b506102c8565b5f80730fb99723aee6f420bead13e6bbb79b7e6f03429890505f8173ffffffffffffffffffffffffffffffffffffffff1663feaf968c6040518163ffffffff1660e01b815260040160a060405180830381865afa1580156100ab573d5f803e3d5ffd5b505050506040513d601f19601f820116820180604052508101906100cf9190610251565b505050915050809250505090565b5f819050919050565b7f4e487b71000000000000000000000000000000000000000000000000000000005f52601160045260245ffd5b5f61011d826100dd565b9150610128836100dd565b9250828202610136816100dd565b9150828204841483151761014d5761014c6100e6565b5b5092915050565b7f4e487b71000000000000000000000000000000000000000000000000000000005f52601260045260245ffd5b5f61018b826100dd565b9150610196836100dd565b9250826101a6576101a5610154565b5b828204905092915050565b5f80fd5b5f69ffffffffffffffffffff82169050919050565b6101d3816101b5565b81146101dd575f80fd5b50565b5f815190506101ee816101ca565b92915050565b5f819050919050565b610206816101f4565b8114610210575f80fd5b50565b5f81519050610221816101fd565b92915050565b610230816100dd565b811461023a575f80fd5b50565b5f8151905061024b81610227565b92915050565b5f805f805f60a0868803121561026a576102696101b1565b5b5f610277888289016101e0565b955050602061028888828901610213565b94505060406102998882890161023d565b93505060606102aa8882890161023d565b92505060806102bb888289016101e0565b9150509295509295909350565b6102d1806102d55f395ff3fe60806040526004361061003e575f3560e01c806314174f33146100425780632fdb4c591461006a578063a035b1fe14610094578063d0e30db0146100be575b5f80fd5b34801561004d575f80fd5b506100686004803603810190610063919061017d565b6100c8565b005b348015610075575f80fd5b5061007e610125565b60405161008b91906101b7565b60405180910390f35b34801561009f575f80fd5b506100a861013f565b6040516100b591906101b7565b60405180910390f35b6100c6610144565b005b670de0b6b3a7640000816100dc91906101fd565b90503373ffffffffffffffffffffffffffffffffffffffff166108fc8290811502906040515f60405180830381858888f19350505050158015610121573d5f803e3d5ffd5b5050565b5f670de0b6b3a76400004761013a919061026b565b905090565b5f5481565b565b5f80fd5b5f819050919050565b61015c8161014a565b8114610166575f80fd5b50565b5f8135905061017781610153565b92915050565b5f6020828403121561019257610191610146565b5b5f61019f84828501610169565b91505092915050565b6101b18161014a565b82525050565b5f6020820190506101ca5f8301846101a8565b92915050565b7f4e487b71000000000000000000000000000000000000000000000000000000005f52601160045260245ffd5b5f6102078261014a565b91506102128361014a565b92508282026102208161014a565b91508282048414831517610237576102366101d0565b5b5092915050565b7f4e487b71000000000000000000000000000000000000000000000000000000005f52601260045260245ffd5b5f6102758261014a565b91506102808361014a565b9250826102905761028f61023e565b5b82820490509291505056fea2646970667358221220dd94226f7f4d32c454e763dff825811f159bfb367cf7bafb758e6208d22d517164736f6c634300081a0033",
					"opcodes": "PUSH1 0x80 PUSH1 0x40 MSTORE PUSH8 0xDE0B6B3A7640000 PUSH5 0x2540BE400 PUSH2 0x21 PUSH2 0x48 PUSH1 0x20 SHL PUSH1 0x20 SHR JUMP JUMPDEST PUSH2 0x2B SWAP2 SWAP1 PUSH2 0x113 JUMP JUMPDEST PUSH2 0x35 SWAP2 SWAP1 PUSH2 0x181 JUMP JUMPDEST PUSH0 SSTORE CALLVALUE DUP1 ISZERO PUSH2 0x42 JUMPI PUSH0 DUP1 REVERT JUMPDEST POP PUSH2 0x2C8 JUMP JUMPDEST PUSH0 DUP1 PUSH20 0xFB99723AEE6F420BEAD13E6BBB79B7E6F034298 SWAP1 POP PUSH0 DUP2 PUSH20 0xFFFFFFFFFFFFFFFFFFFFFFFFFFFFFFFFFFFFFFFF AND PUSH4 0xFEAF968C PUSH1 0x40 MLOAD DUP2 PUSH4 0xFFFFFFFF AND PUSH1 0xE0 SHL DUP2 MSTORE PUSH1 0x4 ADD PUSH1 0xA0 PUSH1 0x40 MLOAD DUP1 DUP4 SUB DUP2 DUP7 GAS STATICCALL ISZERO DUP1 ISZERO PUSH2 0xAB JUMPI RETURNDATASIZE PUSH0 DUP1 RETURNDATACOPY RETURNDATASIZE PUSH0 REVERT JUMPDEST POP POP POP POP PUSH1 0x40 MLOAD RETURNDATASIZE PUSH1 0x1F NOT PUSH1 0x1F DUP3 ADD AND DUP3 ADD DUP1 PUSH1 0x40 MSTORE POP DUP2 ADD SWAP1 PUSH2 0xCF SWAP2 SWAP1 PUSH2 0x251 JUMP JUMPDEST POP POP POP SWAP2 POP POP DUP1 SWAP3 POP POP POP SWAP1 JUMP JUMPDEST PUSH0 DUP2 SWAP1 POP SWAP2 SWAP1 POP JUMP JUMPDEST PUSH32 0x4E487B7100000000000000000000000000000000000000000000000000000000 PUSH0 MSTORE PUSH1 0x11 PUSH1 0x4 MSTORE PUSH1 0x24 PUSH0 REVERT JUMPDEST PUSH0 PUSH2 0x11D DUP3 PUSH2 0xDD JUMP JUMPDEST SWAP2 POP PUSH2 0x128 DUP4 PUSH2 0xDD JUMP JUMPDEST SWAP3 POP DUP3 DUP3 MUL PUSH2 0x136 DUP2 PUSH2 0xDD JUMP JUMPDEST SWAP2 POP DUP3 DUP3 DIV DUP5 EQ DUP4 ISZERO OR PUSH2 0x14D JUMPI PUSH2 0x14C PUSH2 0xE6 JUMP JUMPDEST JUMPDEST POP SWAP3 SWAP2 POP POP JUMP JUMPDEST PUSH32 0x4E487B7100000000000000000000000000000000000000000000000000000000 PUSH0 MSTORE PUSH1 0x12 PUSH1 0x4 MSTORE PUSH1 0x24 PUSH0 REVERT JUMPDEST PUSH0 PUSH2 0x18B DUP3 PUSH2 0xDD JUMP JUMPDEST SWAP2 POP PUSH2 0x196 DUP4 PUSH2 0xDD JUMP JUMPDEST SWAP3 POP DUP3 PUSH2 0x1A6 JUMPI PUSH2 0x1A5 PUSH2 0x154 JUMP JUMPDEST JUMPDEST DUP3 DUP3 DIV SWAP1 POP SWAP3 SWAP2 POP POP JUMP JUMPDEST PUSH0 DUP1 REVERT JUMPDEST PUSH0 PUSH10 0xFFFFFFFFFFFFFFFFFFFF DUP3 AND SWAP1 POP SWAP2 SWAP1 POP JUMP JUMPDEST PUSH2 0x1D3 DUP2 PUSH2 0x1B5 JUMP JUMPDEST DUP2 EQ PUSH2 0x1DD JUMPI PUSH0 DUP1 REVERT JUMPDEST POP JUMP JUMPDEST PUSH0 DUP2 MLOAD SWAP1 POP PUSH2 0x1EE DUP2 PUSH2 0x1CA JUMP JUMPDEST SWAP3 SWAP2 POP POP JUMP JUMPDEST PUSH0 DUP2 SWAP1 POP SWAP2 SWAP1 POP JUMP JUMPDEST PUSH2 0x206 DUP2 PUSH2 0x1F4 JUMP JUMPDEST DUP2 EQ PUSH2 0x210 JUMPI PUSH0 DUP1 REVERT JUMPDEST POP JUMP JUMPDEST PUSH0 DUP2 MLOAD SWAP1 POP PUSH2 0x221 DUP2 PUSH2 0x1FD JUMP JUMPDEST SWAP3 SWAP2 POP POP JUMP JUMPDEST PUSH2 0x230 DUP2 PUSH2 0xDD JUMP JUMPDEST DUP2 EQ PUSH2 0x23A JUMPI PUSH0 DUP1 REVERT JUMPDEST POP JUMP JUMPDEST PUSH0 DUP2 MLOAD SWAP1 POP PUSH2 0x24B DUP2 PUSH2 0x227 JUMP JUMPDEST SWAP3 SWAP2 POP POP JUMP JUMPDEST PUSH0 DUP1 PUSH0 DUP1 PUSH0 PUSH1 0xA0 DUP7 DUP9 SUB SLT ISZERO PUSH2 0x26A JUMPI PUSH2 0x269 PUSH2 0x1B1 JUMP JUMPDEST JUMPDEST PUSH0 PUSH2 0x277 DUP9 DUP3 DUP10 ADD PUSH2 0x1E0 JUMP JUMPDEST SWAP6 POP POP PUSH1 0x20 PUSH2 0x288 DUP9 DUP3 DUP10 ADD PUSH2 0x213 JUMP JUMPDEST SWAP5 POP POP PUSH1 0x40 PUSH2 0x299 DUP9 DUP3 DUP10 ADD PUSH2 0x23D JUMP JUMPDEST SWAP4 POP POP PUSH1 0x60 PUSH2 0x2AA DUP9 DUP3 DUP10 ADD PUSH2 0x23D JUMP JUMPDEST SWAP3 POP POP PUSH1 0x80 PUSH2 0x2BB DUP9 DUP3 DUP10 ADD PUSH2 0x1E0 JUMP JUMPDEST SWAP2 POP POP SWAP3 SWAP6 POP SWAP3 SWAP6 SWAP1 SWAP4 POP JUMP JUMPDEST PUSH2 0x2D1 DUP1 PUSH2 0x2D5 PUSH0 CODECOPY PUSH0 RETURN INVALID PUSH1 0x80 PUSH1 0x40 MSTORE PUSH1 0x4 CALLDATASIZE LT PUSH2 0x3E JUMPI PUSH0 CALLDATALOAD PUSH1 0xE0 SHR DUP1 PUSH4 0x14174F33 EQ PUSH2 0x42 JUMPI DUP1 PUSH4 0x2FDB4C59 EQ PUSH2 0x6A JUMPI DUP1 PUSH4 0xA035B1FE EQ PUSH2 0x94 JUMPI DUP1 PUSH4 0xD0E30DB0 EQ PUSH2 0xBE JUMPI JUMPDEST PUSH0 DUP1 REVERT JUMPDEST CALLVALUE DUP1 ISZERO PUSH2 0x4D JUMPI PUSH0 DUP1 REVERT JUMPDEST POP PUSH2 0x68 PUSH1 0x4 DUP1 CALLDATASIZE SUB DUP2 ADD SWAP1 PUSH2 0x63 SWAP2 SWAP1 PUSH2 0x17D JUMP JUMPDEST PUSH2 0xC8 JUMP JUMPDEST STOP JUMPDEST CALLVALUE DUP1 ISZERO PUSH2 0x75 JUMPI PUSH0 DUP1 REVERT JUMPDEST POP PUSH2 0x7E PUSH2 0x125 JUMP JUMPDEST PUSH1 0x40 MLOAD PUSH2 0x8B SWAP2 SWAP1 PUSH2 0x1B7 JUMP JUMPDEST PUSH1 0x40 MLOAD DUP1 SWAP2 SUB SWAP1 RETURN JUMPDEST CALLVALUE DUP1 ISZERO PUSH2 0x9F JUMPI PUSH0 DUP1 REVERT JUMPDEST POP PUSH2 0xA8 PUSH2 0x13F JUMP JUMPDEST PUSH1 0x40 MLOAD PUSH2 0xB5 SWAP2 SWAP1 PUSH2 0x1B7 JUMP JUMPDEST PUSH1 0x40 MLOAD DUP1 SWAP2 SUB SWAP1 RETURN JUMPDEST PUSH2 0xC6 PUSH2 0x144 JUMP JUMPDEST STOP JUMPDEST PUSH8 0xDE0B6B3A7640000 DUP2 PUSH2 0xDC SWAP2 SWAP1 PUSH2 0x1FD JUMP JUMPDEST SWAP1 POP CALLER PUSH20 0xFFFFFFFFFFFFFFFFFFFFFFFFFFFFFFFFFFFFFFFF AND PUSH2 0x8FC DUP3 SWAP1 DUP2 ISZERO MUL SWAP1 PUSH1 0x40 MLOAD PUSH0 PUSH1 0x40 MLOAD DUP1 DUP4 SUB DUP2 DUP6 DUP9 DUP9 CALL SWAP4 POP POP POP POP ISZERO DUP1 ISZERO PUSH2 0x121 JUMPI RETURNDATASIZE PUSH0 DUP1 RETURNDATACOPY RETURNDATASIZE PUSH0 REVERT JUMPDEST POP POP JUMP JUMPDEST PUSH0 PUSH8 0xDE0B6B3A7640000 SELFBALANCE PUSH2 0x13A SWAP2 SWAP1 PUSH2 0x26B JUMP JUMPDEST SWAP1 POP SWAP1 JUMP JUMPDEST PUSH0 SLOAD DUP2 JUMP JUMPDEST JUMP JUMPDEST PUSH0 DUP1 REVERT JUMPDEST PUSH0 DUP2 SWAP1 POP SWAP2 SWAP1 POP JUMP JUMPDEST PUSH2 0x15C DUP2 PUSH2 0x14A JUMP JUMPDEST DUP2 EQ PUSH2 0x166 JUMPI PUSH0 DUP1 REVERT JUMPDEST POP JUMP JUMPDEST PUSH0 DUP2 CALLDATALOAD SWAP1 POP PUSH2 0x177 DUP2 PUSH2 0x153 JUMP JUMPDEST SWAP3 SWAP2 POP POP JUMP JUMPDEST PUSH0 PUSH1 0x20 DUP3 DUP5 SUB SLT ISZERO PUSH2 0x192 JUMPI PUSH2 0x191 PUSH2 0x146 JUMP JUMPDEST JUMPDEST PUSH0 PUSH2 0x19F DUP5 DUP3 DUP6 ADD PUSH2 0x169 JUMP JUMPDEST SWAP2 POP POP SWAP3 SWAP2 POP POP JUMP JUMPDEST PUSH2 0x1B1 DUP2 PUSH2 0x14A JUMP JUMPDEST DUP3 MSTORE POP POP JUMP JUMPDEST PUSH0 PUSH1 0x20 DUP3 ADD SWAP1 POP PUSH2 0x1CA PUSH0 DUP4 ADD DUP5 PUSH2 0x1A8 JUMP JUMPDEST SWAP3 SWAP2 POP POP JUMP JUMPDEST PUSH32 0x4E487B7100000000000000000000000000000000000000000000000000000000 PUSH0 MSTORE PUSH1 0x11 PUSH1 0x4 MSTORE PUSH1 0x24 PUSH0 REVERT JUMPDEST PUSH0 PUSH2 0x207 DUP3 PUSH2 0x14A JUMP JUMPDEST SWAP2 POP PUSH2 0x212 DUP4 PUSH2 0x14A JUMP JUMPDEST SWAP3 POP DUP3 DUP3 MUL PUSH2 0x220 DUP2 PUSH2 0x14A JUMP JUMPDEST SWAP2 POP DUP3 DUP3 DIV DUP5 EQ DUP4 ISZERO OR PUSH2 0x237 JUMPI PUSH2 0x236 PUSH2 0x1D0 JUMP JUMPDEST JUMPDEST POP SWAP3 SWAP2 POP POP JUMP JUMPDEST PUSH32 0x4E487B7100000000000000000000000000000000000000000000000000000000 PUSH0 MSTORE PUSH1 0x12 PUSH1 0x4 MSTORE PUSH1 0x24 PUSH0 REVERT JUMPDEST PUSH0 PUSH2 0x275 DUP3 PUSH2 0x14A JUMP JUMPDEST SWAP2 POP PUSH2 0x280 DUP4 PUSH2 0x14A JUMP JUMPDEST SWAP3 POP DUP3 PUSH2 0x290 JUMPI PUSH2 0x28F PUSH2 0x23E JUMP JUMPDEST JUMPDEST DUP3 DUP3 DIV SWAP1 POP SWAP3 SWAP2 POP POP JUMP INVALID LOG2 PUSH5 0x6970667358 0x22 SLT KECCAK256 0xDD SWAP5 0x22 PUSH16 0x7F4D32C454E763DFF825811F159BFB36 PUSH29 0xF7BAFB758E6208D22D517164736F6C634300081A003300000000000000 "
				},
				"gasEstimates": {
					"creation": {
						"codeDepositCost": "144200",
						"executionCost": "infinite",
						"totalCost": "infinite"
					},
					"external": {
						"balc()": "infinite",
						"deposit()": "163",
						"price()": "2446",
						"withDraw(uint256)": "infinite"
					},
					"internal": {
						"getPrice()": "infinite"
					}
				},
				"methodIdentifiers": {
					"balc()": "2fdb4c59",
					"deposit()": "d0e30db0",
					"price()": "a035b1fe",
					"withDraw(uint256)": "14174f33"
				}
			},
			"storageLayout": {
				"storage": [
					{
						"astId": 85,
						"contract": "contracts/Fund.sol:Fund",
						"label": "price",
						"offset": 0,
						"slot": "0",
						"type": "t_uint256"
					}
				],
				"types": {
					"t_uint256": {
						"encoding": "inplace",
						"label": "uint256",
						"numberOfBytes": "32"
					}
				}
			},
			"userdoc": {
				"kind": "user",
				"methods": {},
				"version": 1
			}
		}
	}
}