{
	"contracts/MapAddrs.sol": {
		"FavoriteRecords": {
			"abi": [
				{
					"inputs": [],
					"stateMutability": "nonpayable",
					"type": "constructor"
				},
				{
					"inputs": [
						{
							"internalType": "string",
							"name": "",
							"type": "string"
						}
					],
					"name": "NotApproved",
					"type": "error"
				},
				{
					"inputs": [
						{
							"internalType": "string",
							"name": "_album",
							"type": "string"
						}
					],
					"name": "addRecord",
					"outputs": [],
					"stateMutability": "nonpayable",
					"type": "function"
				},
				{
					"inputs": [],
					"name": "getApprovedRecords",
					"outputs": [
						{
							"internalType": "string[]",
							"name": "",
							"type": "string[]"
						}
					],
					"stateMutability": "view",
					"type": "function"
				},
				{
					"inputs": [
						{
							"internalType": "address",
							"name": "addr",
							"type": "address"
						}
					],
					"name": "getUserFavorites",
					"outputs": [
						{
							"internalType": "string[]",
							"name": "",
							"type": "string[]"
						}
					],
					"stateMutability": "view",
					"type": "function"
				},
				{
					"inputs": [],
					"name": "resetUserFavorites",
					"outputs": [],
					"stateMutability": "nonpayable",
					"type": "function"
				}
			],
			"devdoc": {
				"kind": "dev",
				"methods": {},
				"version": 1
			},
			"evm": {
				"assembly": "    /* \"contracts/MapAddrs.sol\":723:1011  string[] approvedRecordsList=[... */\n  0x08\n  0x01a0\n  swap1\n  dup2\n  mstore\n  mstore(0x01c0, shl(0xc1, 0x2a343934b63632b9))\n    /* \"contracts/MapAddrs.sol\":57:2157  contract FavoriteRecords{... */\n  0x80\n    /* \"contracts/MapAddrs.sol\":723:1011  string[] approvedRecordsList=[... */\n  swap1\n  dup2\n  mstore\n  0x0d\n  0x01e0\n  dup2\n  dup2\n  mstore\n  mstore(0x0200, shl(0x98, 0x4261636b20696e20426c61636b))\n  0xa0\n  mstore\n  0x0220\n  swap1\n  dup2\n  mstore\n  mstore(0x0240, shl(0x9a, 0x151a1948109bd91e59dd585c99))\n  0xc0\n  mstore\n  0x19\n  0x0260\n  swap1\n  dup2\n  mstore\n  mstore(0x0280, 0x546865204461726b2053696465206f6620746865204d6f6f6e00000000000000)\n  0xe0\n  mstore\n  0x1f\n  0x02a0\n  swap1\n  dup2\n  mstore\n  mstore(0x02c0, 0x546865697220477265617465737420486974732028313937312d313937352900)\n  0x0100\n  mstore\n  0x10\n  0x02e0\n  swap1\n  dup2\n  mstore\n  mstore(0x0300, shl(0x80, 0x486f74656c2043616c69666f726e6961))\n  0x0120\n  mstore\n  0x0c\n  0x0320\n  swap1\n  dup2\n  mstore\n  mstore(0x0340, shl(0xa1, 0x21b7b6b29027b71027bb32b9))\n  0x0140\n  mstore\n  0x07\n  0x0360\n  swap1\n  dup2\n  mstore\n  mstore(0x0380, shl(0xc8, 0x52756d6f757273))\n  0x0160\n  mstore\n  0x03e0\n    /* \"contracts/MapAddrs.sol\":57:2157  contract FavoriteRecords{... */\n  0x40\n    /* \"contracts/MapAddrs.sol\":723:1011  string[] approvedRecordsList=[... */\n  mstore\n  0x14\n  0x03a0\n  swap1\n  dup2\n  mstore\n  mstore(0x03c0, 0x5361747572646179204e69676874204665766572000000000000000000000000)\n  0x0180\n  mstore\n  tag_1\n  swap1\n  0x02\n  swap1\n  0x09\n  tag_2\n  jump\t// in\ntag_1:\n  pop\n    /* \"contracts/MapAddrs.sol\":198:687  constructor(){... */\n  callvalue\n  dup1\n  iszero\n  tag_3\n  jumpi\n  0x00\n  dup1\n  revert\ntag_3:\n  pop\n    /* \"contracts/MapAddrs.sol\":251:255  true */\n  0x01\n    /* \"contracts/MapAddrs.sol\":221:236  approvedRecords */\n  0x00\n    /* \"contracts/MapAddrs.sol\":221:248  approvedRecords[\"Thriller\"] */\n  mload(0x40)\n  tag_6\n  swap1\n  shl(0xc1, 0x2a343934b63632b9)\n    /* \"#utility.yul\":216:239   */\n  dup2\n  mstore\n    /* \"#utility.yul\":264:265   */\n  0x08\n    /* \"#utility.yul\":255:266   */\n  add\n  swap1\n    /* \"#utility.yul\":14:272   */\n  jump\n    /* \"contracts/MapAddrs.sol\":221:248  approvedRecords[\"Thriller\"] */\ntag_6:\n  swap1\n  dup2\n  mstore\n  0x40\n  dup1\n  mload\n  swap2\n  dup3\n  swap1\n  sub\n  0x20\n  add\n  dup3\n  keccak256\n    /* \"contracts/MapAddrs.sol\":221:255  approvedRecords[\"Thriller\"] = true */\n  dup1\n  sload\n  swap4\n  iszero\n  iszero\n  not(0xff)\n  swap5\n  dup6\n  and\n  or\n  swap1\n  sstore\n  shl(0x98, 0x4261636b20696e20426c61636b)\n    /* \"#utility.yul\":479:507   */\n  dup3\n  mstore\n  0x00\n    /* \"#utility.yul\":532:534   */\n  0x0d\n    /* \"#utility.yul\":523:535   */\n  dup1\n  dup5\n  add\n    /* \"contracts/MapAddrs.sol\":265:297  approvedRecords[\"Back in Black\"] */\n  dup3\n  swap1\n  mstore\n  dup3\n  mload\n  swap4\n  dup5\n  swap1\n  sub\n  0x2d\n  swap1\n  dup2\n  add\n  dup6\n  keccak256\n    /* \"contracts/MapAddrs.sol\":265:304  approvedRecords[\"Back in Black\"] = true */\n  dup1\n  sload\n  dup8\n  and\n  0x01\n  swap1\n  dup2\n  or\n  swap1\n  swap2\n  sstore\n  shl(0x9a, 0x151a1948109bd91e59dd585c99)\n    /* \"#utility.yul\":748:776   */\n  dup7\n  mstore\n    /* \"#utility.yul\":792:804   */\n  swap2\n  dup6\n  add\n    /* \"contracts/MapAddrs.sol\":314:346  approvedRecords[\"The Bodyguard\"] */\n  dup4\n  swap1\n  mstore\n  dup4\n  mload\n  swap5\n  dup6\n  swap1\n  sub\n  add\n  dup5\n  keccak256\n    /* \"contracts/MapAddrs.sol\":314:353  approvedRecords[\"The Bodyguard\"] = true */\n  dup1\n  sload\n  dup7\n  and\n  dup3\n  or\n  swap1\n  sstore\n    /* \"#utility.yul\":1029:1056   */\n  0x546865204461726b2053696465206f6620746865204d6f6f6e00000000000000\n    /* \"#utility.yul\":1017:1057   */\n  dup5\n  mstore\n    /* \"#utility.yul\":1082:1084   */\n  0x19\n    /* \"#utility.yul\":1073:1085   */\n  dup5\n  add\n    /* \"contracts/MapAddrs.sol\":363:407  approvedRecords[\"The Dark Side of the Moon\"] */\n  dup3\n  swap1\n  mstore\n  dup3\n  mload\n  swap4\n  dup5\n  swap1\n  sub\n  0x39\n  add\n  dup5\n  keccak256\n    /* \"contracts/MapAddrs.sol\":363:414  approvedRecords[\"The Dark Side of the Moon\"] = true */\n  dup1\n  sload\n  dup7\n  and\n  dup3\n  or\n  swap1\n  sstore\n    /* \"#utility.yul\":1310:1343   */\n  0x546865697220477265617465737420486974732028313937312d313937352900\n    /* \"#utility.yul\":1298:1344   */\n  dup5\n  mstore\n    /* \"#utility.yul\":1369:1371   */\n  0x1f\n    /* \"#utility.yul\":1360:1372   */\n  dup5\n  add\n    /* \"contracts/MapAddrs.sol\":424:474  approvedRecords[\"Their Greatest Hits (1971-1975)\"] */\n  dup3\n  swap1\n  mstore\n  dup3\n  mload\n  swap4\n  dup5\n  swap1\n  sub\n  0x3f\n  add\n  dup5\n  keccak256\n    /* \"contracts/MapAddrs.sol\":424:481  approvedRecords[\"Their Greatest Hits (1971-1975)\"] = true */\n  dup1\n  sload\n  dup7\n  and\n  dup3\n  or\n  swap1\n  sstore\n  shl(0x80, 0x486f74656c2043616c69666f726e6961)\n    /* \"#utility.yul\":1585:1616   */\n  dup5\n  mstore\n    /* \"#utility.yul\":1641:1643   */\n  0x10\n    /* \"#utility.yul\":1632:1644   */\n  dup5\n  add\n    /* \"contracts/MapAddrs.sol\":491:526  approvedRecords[\"Hotel California\"] */\n  dup3\n  swap1\n  mstore\n  dup3\n  mload\n  swap4\n  dup5\n  swap1\n  sub\n  0x30\n  add\n  dup5\n  keccak256\n    /* \"contracts/MapAddrs.sol\":491:533  approvedRecords[\"Hotel California\"] = true */\n  dup1\n  sload\n  dup7\n  and\n  dup3\n  or\n  swap1\n  sstore\n  shl(0xa1, 0x21b7b6b29027b71027bb32b9)\n    /* \"#utility.yul\":1857:1884   */\n  dup5\n  mstore\n    /* \"#utility.yul\":1909:1911   */\n  0x0c\n    /* \"#utility.yul\":1900:1912   */\n  dup5\n  add\n    /* \"contracts/MapAddrs.sol\":543:574  approvedRecords[\"Come On Over\"] */\n  dup3\n  swap1\n  mstore\n  dup3\n  mload\n  swap4\n  dup5\n  swap1\n  sub\n  0x2c\n  add\n  dup5\n  keccak256\n    /* \"contracts/MapAddrs.sol\":543:581  approvedRecords[\"Come On Over\"] = true */\n  dup1\n  sload\n  dup7\n  and\n  dup3\n  or\n  swap1\n  sstore\n  shl(0xc8, 0x52756d6f757273)\n    /* \"#utility.yul\":2125:2147   */\n  dup5\n  mstore\n    /* \"#utility.yul\":2172:2173   */\n  0x07\n    /* \"#utility.yul\":2163:2174   */\n  dup5\n  add\n    /* \"contracts/MapAddrs.sol\":591:617  approvedRecords[\"Rumours\"] */\n  dup3\n  swap1\n  mstore\n  dup3\n  mload\n  swap4\n  dup5\n  swap1\n  sub\n  0x27\n  add\n  dup5\n  keccak256\n    /* \"contracts/MapAddrs.sol\":591:624  approvedRecords[\"Rumours\"] = true */\n  dup1\n  sload\n  dup7\n  and\n  dup3\n  or\n  swap1\n  sstore\n    /* \"#utility.yul\":2399:2421   */\n  0x5361747572646179204e69676874204665766572000000000000000000000000\n    /* \"#utility.yul\":2387:2422   */\n  dup5\n  mstore\n    /* \"#utility.yul\":2447:2449   */\n  0x14\n    /* \"#utility.yul\":2438:2450   */\n  dup5\n  add\n    /* \"contracts/MapAddrs.sol\":634:673  approvedRecords[\"Saturday Night Fever\"] */\n  swap2\n  swap1\n  swap2\n  mstore\n  swap1\n  mload\n  swap2\n  dup3\n  swap1\n  sub\n  0x34\n  add\n  swap1\n  swap2\n  keccak256\n    /* \"contracts/MapAddrs.sol\":634:680  approvedRecords[\"Saturday Night Fever\"] = true */\n  dup1\n  sload\n  swap1\n  swap3\n  and\n  or\n  swap1\n  sstore\n    /* \"contracts/MapAddrs.sol\":57:2157  contract FavoriteRecords{... */\n  jump(tag_48)\ntag_2:\n  dup3\n  dup1\n  sload\n  dup3\n  dup3\n  sstore\n  swap1\n  0x00\n  mstore\n  keccak256(0x00, 0x20)\n  swap1\n  dup2\n  add\n  swap3\n  dup3\n  iszero\n  tag_27\n  jumpi\n  swap2\n  0x20\n  mul\n  dup3\n  add\ntag_26:\n  dup3\n  dup2\n  gt\n  iszero\n  tag_27\n  jumpi\n  dup3\n  mload\n  dup3\n  swap1\n  tag_28\n  swap1\n  dup3\n  tag_29\n  jump\t// in\ntag_28:\n  pop\n  swap2\n  0x20\n  add\n  swap2\n  swap1\n  0x01\n  add\n  swap1\n  jump(tag_26)\ntag_27:\n  pop\n  tag_30\n  swap3\n  swap2\n  pop\n  tag_31\n  jump\t// in\ntag_30:\n  pop\n  swap1\n  jump\t// out\ntag_31:\n  dup1\n  dup3\n  gt\n  iszero\n  tag_30\n  jumpi\n  0x00\n  tag_34\n  dup3\n  dup3\n  tag_35\n  jump\t// in\ntag_34:\n  pop\n  0x01\n  add\n  jump(tag_31)\ntag_35:\n  pop\n  dup1\n  sload\n  tag_36\n  swap1\n  tag_37\n  jump\t// in\ntag_36:\n  0x00\n  dup3\n  sstore\n  dup1\n  0x1f\n  lt\n  tag_39\n  jumpi\n  pop\n  pop\n  jump\t// out\ntag_39:\n  0x1f\n  add\n  0x20\n  swap1\n  div\n  swap1\n  0x00\n  mstore\n  keccak256(0x00, 0x20)\n  swap1\n  dup2\n  add\n  swap1\n  tag_40\n  swap2\n  swap1\n  tag_41\n  jump\t// in\ntag_40:\n  pop\n  jump\t// out\ntag_41:\ntag_42:\n  dup1\n  dup3\n  gt\n  iszero\n  tag_30\n  jumpi\n  0x00\n  dup2\n  sstore\n  0x01\n  add\n  jump(tag_42)\n    /* \"#utility.yul\":2461:2588   */\ntag_44:\n    /* \"#utility.yul\":2522:2532   */\n  0x4e487b71\n    /* \"#utility.yul\":2517:2520   */\n  0xe0\n    /* \"#utility.yul\":2513:2533   */\n  shl\n    /* \"#utility.yul\":2510:2511   */\n  0x00\n    /* \"#utility.yul\":2503:2534   */\n  mstore\n    /* \"#utility.yul\":2553:2557   */\n  0x41\n    /* \"#utility.yul\":2550:2551   */\n  0x04\n    /* \"#utility.yul\":2543:2558   */\n  mstore\n    /* \"#utility.yul\":2577:2581   */\n  0x24\n    /* \"#utility.yul\":2574:2575   */\n  0x00\n    /* \"#utility.yul\":2567:2582   */\n  revert\n    /* \"#utility.yul\":2593:2973   */\ntag_37:\n    /* \"#utility.yul\":2672:2673   */\n  0x01\n    /* \"#utility.yul\":2668:2680   */\n  dup2\n  dup2\n  shr\n  swap1\n    /* \"#utility.yul\":2715:2727   */\n  dup3\n  and\n  dup1\n    /* \"#utility.yul\":2736:2797   */\n  tag_60\n  jumpi\n    /* \"#utility.yul\":2790:2794   */\n  0x7f\n    /* \"#utility.yul\":2782:2788   */\n  dup3\n    /* \"#utility.yul\":2778:2795   */\n  and\n    /* \"#utility.yul\":2768:2795   */\n  swap2\n  pop\n    /* \"#utility.yul\":2736:2797   */\ntag_60:\n    /* \"#utility.yul\":2843:2845   */\n  0x20\n    /* \"#utility.yul\":2835:2841   */\n  dup3\n    /* \"#utility.yul\":2832:2846   */\n  lt\n    /* \"#utility.yul\":2812:2830   */\n  dup2\n    /* \"#utility.yul\":2809:2847   */\n  sub\n    /* \"#utility.yul\":2806:2967   */\n  tag_61\n  jumpi\n    /* \"#utility.yul\":2889:2899   */\n  0x4e487b71\n    /* \"#utility.yul\":2884:2887   */\n  0xe0\n    /* \"#utility.yul\":2880:2900   */\n  shl\n    /* \"#utility.yul\":2877:2878   */\n  0x00\n    /* \"#utility.yul\":2870:2901   */\n  mstore\n    /* \"#utility.yul\":2924:2928   */\n  0x22\n    /* \"#utility.yul\":2921:2922   */\n  0x04\n    /* \"#utility.yul\":2914:2929   */\n  mstore\n    /* \"#utility.yul\":2952:2956   */\n  0x24\n    /* \"#utility.yul\":2949:2950   */\n  0x00\n    /* \"#utility.yul\":2942:2957   */\n  revert\n    /* \"#utility.yul\":2806:2967   */\ntag_61:\n  pop\n    /* \"#utility.yul\":2593:2973   */\n  swap2\n  swap1\n  pop\n  jump\t// out\n    /* \"#utility.yul\":3104:3622   */\ntag_46:\n    /* \"#utility.yul\":3206:3208   */\n  0x1f\n    /* \"#utility.yul\":3201:3204   */\n  dup3\n    /* \"#utility.yul\":3198:3209   */\n  gt\n    /* \"#utility.yul\":3195:3616   */\n  iszero\n  tag_64\n  jumpi\n    /* \"#utility.yul\":3242:3247   */\n  dup1\n    /* \"#utility.yul\":3239:3240   */\n  0x00\n    /* \"#utility.yul\":3232:3248   */\n  mstore\n    /* \"#utility.yul\":3286:3290   */\n  0x20\n    /* \"#utility.yul\":3283:3284   */\n  0x00\n    /* \"#utility.yul\":3273:3291   */\n  keccak256\n    /* \"#utility.yul\":3356:3358   */\n  0x1f\n    /* \"#utility.yul\":3344:3354   */\n  dup5\n    /* \"#utility.yul\":3340:3359   */\n  add\n    /* \"#utility.yul\":3337:3338   */\n  0x05\n    /* \"#utility.yul\":3333:3360   */\n  shr\n    /* \"#utility.yul\":3327:3331   */\n  dup2\n    /* \"#utility.yul\":3323:3361   */\n  add\n    /* \"#utility.yul\":3392:3396   */\n  0x20\n    /* \"#utility.yul\":3380:3390   */\n  dup6\n    /* \"#utility.yul\":3377:3397   */\n  lt\n    /* \"#utility.yul\":3374:3421   */\n  iszero\n  tag_65\n  jumpi\n  pop\n    /* \"#utility.yul\":3415:3419   */\n  dup1\n    /* \"#utility.yul\":3374:3421   */\ntag_65:\n    /* \"#utility.yul\":3470:3472   */\n  0x1f\n    /* \"#utility.yul\":3465:3468   */\n  dup5\n    /* \"#utility.yul\":3461:3473   */\n  add\n    /* \"#utility.yul\":3458:3459   */\n  0x05\n    /* \"#utility.yul\":3454:3474   */\n  shr\n    /* \"#utility.yul\":3448:3452   */\n  dup3\n    /* \"#utility.yul\":3444:3475   */\n  add\n    /* \"#utility.yul\":3434:3475   */\n  swap2\n  pop\n    /* \"#utility.yul\":3525:3606   */\ntag_66:\n    /* \"#utility.yul\":3543:3545   */\n  dup2\n    /* \"#utility.yul\":3536:3541   */\n  dup2\n    /* \"#utility.yul\":3533:3546   */\n  lt\n    /* \"#utility.yul\":3525:3606   */\n  iszero\n  tag_68\n  jumpi\n    /* \"#utility.yul\":3602:3603   */\n  0x00\n    /* \"#utility.yul\":3588:3604   */\n  dup2\n  sstore\n    /* \"#utility.yul\":3569:3570   */\n  0x01\n    /* \"#utility.yul\":3558:3571   */\n  add\n    /* \"#utility.yul\":3525:3606   */\n  jump(tag_66)\ntag_68:\n    /* \"#utility.yul\":3529:3532   */\n  pop\n  pop\n    /* \"#utility.yul\":3195:3616   */\ntag_64:\n    /* \"#utility.yul\":3104:3622   */\n  pop\n  pop\n  pop\n  jump\t// out\n    /* \"#utility.yul\":3798:5097   */\ntag_29:\n    /* \"#utility.yul\":3918:3928   */\n  dup2\n  mload\n  sub(shl(0x40, 0x01), 0x01)\n    /* \"#utility.yul\":3940:3970   */\n  dup2\n  gt\n    /* \"#utility.yul\":3937:3993   */\n  iszero\n  tag_72\n  jumpi\n    /* \"#utility.yul\":3973:3991   */\n  tag_72\n  tag_44\n  jump\t// in\ntag_72:\n    /* \"#utility.yul\":4002:4099   */\n  tag_73\n    /* \"#utility.yul\":4092:4098   */\n  dup2\n    /* \"#utility.yul\":4052:4090   */\n  tag_74\n    /* \"#utility.yul\":4084:4088   */\n  dup5\n    /* \"#utility.yul\":4078:4089   */\n  sload\n    /* \"#utility.yul\":4052:4090   */\n  tag_37\n  jump\t// in\ntag_74:\n    /* \"#utility.yul\":4046:4050   */\n  dup5\n    /* \"#utility.yul\":4002:4099   */\n  tag_46\n  jump\t// in\ntag_73:\n    /* \"#utility.yul\":4148:4152   */\n  0x20\n    /* \"#utility.yul\":4179:4181   */\n  0x1f\n    /* \"#utility.yul\":4168:4182   */\n  dup3\n  gt\n    /* \"#utility.yul\":4196:4197   */\n  0x01\n    /* \"#utility.yul\":4191:4840   */\n  dup2\n  eq\n  tag_76\n  jumpi\n    /* \"#utility.yul\":4884:4885   */\n  0x00\n    /* \"#utility.yul\":4901:4907   */\n  dup4\n    /* \"#utility.yul\":4898:4987   */\n  iszero\n  tag_77\n  jumpi\n  pop\n    /* \"#utility.yul\":4953:4972   */\n  dup5\n  dup3\n  add\n    /* \"#utility.yul\":4947:4973   */\n  mload\n    /* \"#utility.yul\":4898:4987   */\ntag_77:\n  not(0x00)\n    /* \"#utility.yul\":3755:3756   */\n  0x03\n    /* \"#utility.yul\":3751:3762   */\n  dup6\n  swap1\n  shl\n    /* \"#utility.yul\":3747:3771   */\n  shr\n    /* \"#utility.yul\":3743:3772   */\n  not\n    /* \"#utility.yul\":3733:3773   */\n  and\n    /* \"#utility.yul\":3779:3780   */\n  0x01\n    /* \"#utility.yul\":3775:3786   */\n  dup5\n  swap1\n  shl\n    /* \"#utility.yul\":3730:3787   */\n  or\n    /* \"#utility.yul\":5000:5081   */\n  dup5\n  sstore\n    /* \"#utility.yul\":4161:5091   */\n  jump(tag_68)\n    /* \"#utility.yul\":4191:4840   */\ntag_76:\n    /* \"#utility.yul\":3051:3052   */\n  0x00\n    /* \"#utility.yul\":3044:3058   */\n  dup5\n  dup2\n  mstore\n    /* \"#utility.yul\":3088:3092   */\n  0x20\n    /* \"#utility.yul\":3075:3093   */\n  dup2\n  keccak256\n  not(0x1f)\n    /* \"#utility.yul\":4227:4247   */\n  dup6\n  and\n  swap2\n    /* \"#utility.yul\":4345:4567   */\ntag_80:\n    /* \"#utility.yul\":4359:4366   */\n  dup3\n    /* \"#utility.yul\":4356:4357   */\n  dup2\n    /* \"#utility.yul\":4353:4367   */\n  lt\n    /* \"#utility.yul\":4345:4567   */\n  iszero\n  tag_82\n  jumpi\n    /* \"#utility.yul\":4441:4460   */\n  dup8\n  dup6\n  add\n    /* \"#utility.yul\":4435:4461   */\n  mload\n    /* \"#utility.yul\":4420:4462   */\n  dup3\n  sstore\n    /* \"#utility.yul\":4548:4552   */\n  0x20\n    /* \"#utility.yul\":4533:4553   */\n  swap5\n  dup6\n  add\n  swap5\n    /* \"#utility.yul\":4501:4502   */\n  0x01\n    /* \"#utility.yul\":4489:4503   */\n  swap1\n  swap3\n  add\n  swap2\n    /* \"#utility.yul\":4375:4387   */\n  add\n    /* \"#utility.yul\":4345:4567   */\n  jump(tag_80)\ntag_82:\n    /* \"#utility.yul\":4349:4352   */\n  pop\n    /* \"#utility.yul\":4595:4601   */\n  dup5\n    /* \"#utility.yul\":4586:4593   */\n  dup3\n    /* \"#utility.yul\":4583:4602   */\n  lt\n    /* \"#utility.yul\":4580:4781   */\n  iszero\n  tag_83\n  jumpi\n    /* \"#utility.yul\":4656:4675   */\n  dup7\n  dup5\n  add\n    /* \"#utility.yul\":4650:4676   */\n  mload\n  not(0x00)\n    /* \"#utility.yul\":4739:4740   */\n  0x03\n    /* \"#utility.yul\":4735:4749   */\n  dup8\n  swap1\n  shl\n    /* \"#utility.yul\":4751:4754   */\n  0xf8\n    /* \"#utility.yul\":4731:4755   */\n  and\n    /* \"#utility.yul\":4727:4764   */\n  shr\n    /* \"#utility.yul\":4723:4765   */\n  not\n    /* \"#utility.yul\":4708:4766   */\n  and\n    /* \"#utility.yul\":4693:4767   */\n  dup2\n  sstore\n    /* \"#utility.yul\":4580:4781   */\ntag_83:\n  pop\n  pop\n  pop\n  pop\n    /* \"#utility.yul\":4827:4828   */\n  0x01\n    /* \"#utility.yul\":4811:4825   */\n  swap1\n  dup2\n  shl\n    /* \"#utility.yul\":4807:4829   */\n  add\n    /* \"#utility.yul\":4794:4830   */\n  swap1\n  sstore\n  pop\n    /* \"#utility.yul\":3798:5097   */\n  jump\t// out\ntag_48:\n    /* \"contracts/MapAddrs.sol\":57:2157  contract FavoriteRecords{... */\n  dataSize(sub_0)\n  dup1\n  dataOffset(sub_0)\n  0x00\n  codecopy\n  0x00\n  return\nstop\n\nsub_0: assembly {\n        /* \"contracts/MapAddrs.sol\":57:2157  contract FavoriteRecords{... */\n      mstore(0x40, 0x80)\n      callvalue\n      dup1\n      iszero\n      tag_1\n      jumpi\n      0x00\n      dup1\n      revert\n    tag_1:\n      pop\n      jumpi(tag_2, lt(calldatasize, 0x04))\n      shr(0xe0, calldataload(0x00))\n      dup1\n      0x1cf0830b\n      eq\n      tag_3\n      jumpi\n      dup1\n      0x837f8878\n      eq\n      tag_4\n      jumpi\n      dup1\n      0xc7853148\n      eq\n      tag_5\n      jumpi\n      dup1\n      0xd81aa8c4\n      eq\n      tag_6\n      jumpi\n    tag_2:\n      0x00\n      dup1\n      revert\n        /* \"contracts/MapAddrs.sol\":1017:1130  function getApprovedRecords() external view  returns (string[] memory){... */\n    tag_3:\n      tag_7\n      tag_8\n      jump\t// in\n    tag_7:\n      mload(0x40)\n      tag_9\n      swap2\n      swap1\n      tag_10\n      jump\t// in\n    tag_9:\n      mload(0x40)\n      dup1\n      swap2\n      sub\n      swap1\n      return\n        /* \"contracts/MapAddrs.sol\":1946:2155  function resetUserFavorites() external {... */\n    tag_4:\n      tag_11\n      tag_12\n      jump\t// in\n    tag_11:\n      stop\n        /* \"contracts/MapAddrs.sol\":1347:1941  function getUserFavorites(address addr) external view returns(string[] memory){... */\n    tag_5:\n      tag_7\n      tag_14\n      calldatasize\n      0x04\n      tag_15\n      jump\t// in\n    tag_14:\n      tag_16\n      jump\t// in\n        /* \"contracts/MapAddrs.sol\":1135:1341  function addRecord( string memory _album) external{... */\n    tag_6:\n      tag_11\n      tag_19\n      calldatasize\n      0x04\n      tag_20\n      jump\t// in\n    tag_19:\n      tag_21\n      jump\t// in\n        /* \"contracts/MapAddrs.sol\":1017:1130  function getApprovedRecords() external view  returns (string[] memory){... */\n    tag_8:\n        /* \"contracts/MapAddrs.sol\":1071:1086  string[] memory */\n      0x60\n        /* \"contracts/MapAddrs.sol\":1104:1123  approvedRecordsList */\n      0x02\n        /* \"contracts/MapAddrs.sol\":1097:1123  return approvedRecordsList */\n      dup1\n      sload\n      dup1\n      0x20\n      mul\n      0x20\n      add\n      mload(0x40)\n      swap1\n      dup2\n      add\n      0x40\n      mstore\n      dup1\n      swap3\n      swap2\n      swap1\n      dup2\n      dup2\n      mstore\n      0x20\n      add\n      0x00\n      swap1\n    tag_23:\n      dup3\n      dup3\n      lt\n      iszero\n      tag_24\n      jumpi\n      dup4\n      dup3\n      swap1\n      0x00\n      mstore\n      keccak256(0x00, 0x20)\n      add\n      dup1\n      sload\n      tag_26\n      swap1\n      tag_27\n      jump\t// in\n    tag_26:\n      dup1\n      0x1f\n      add\n      0x20\n      dup1\n      swap2\n      div\n      mul\n      0x20\n      add\n      mload(0x40)\n      swap1\n      dup2\n      add\n      0x40\n      mstore\n      dup1\n      swap3\n      swap2\n      swap1\n      dup2\n      dup2\n      mstore\n      0x20\n      add\n      dup3\n      dup1\n      sload\n      tag_28\n      swap1\n      tag_27\n      jump\t// in\n    tag_28:\n      dup1\n      iszero\n      tag_29\n      jumpi\n      dup1\n      0x1f\n      lt\n      tag_30\n      jumpi\n      0x0100\n      dup1\n      dup4\n      sload\n      div\n      mul\n      dup4\n      mstore\n      swap2\n      0x20\n      add\n      swap2\n      jump(tag_29)\n    tag_30:\n      dup3\n      add\n      swap2\n      swap1\n      0x00\n      mstore\n      keccak256(0x00, 0x20)\n      swap1\n    tag_31:\n      dup2\n      sload\n      dup2\n      mstore\n      swap1\n      0x01\n      add\n      swap1\n      0x20\n      add\n      dup1\n      dup4\n      gt\n      tag_31\n      jumpi\n      dup3\n      swap1\n      sub\n      0x1f\n      and\n      dup3\n      add\n      swap2\n    tag_29:\n      pop\n      pop\n      pop\n      pop\n      pop\n      dup2\n      mstore\n      0x20\n      add\n      swap1\n      0x01\n      add\n      swap1\n      jump(tag_23)\n    tag_24:\n      pop\n      pop\n      pop\n      pop\n      swap1\n      pop\n        /* \"contracts/MapAddrs.sol\":1017:1130  function getApprovedRecords() external view  returns (string[] memory){... */\n      swap1\n      jump\t// out\n        /* \"contracts/MapAddrs.sol\":1946:2155  function resetUserFavorites() external {... */\n    tag_12:\n        /* \"contracts/MapAddrs.sol\":2000:2009  uint256 i */\n      0x00\n        /* \"contracts/MapAddrs.sol\":1995:2149  for (uint256 i = 0; i < 9; i++) {... */\n    tag_33:\n        /* \"contracts/MapAddrs.sol\":2019:2020  9 */\n      0x09\n        /* \"contracts/MapAddrs.sol\":2015:2016  i */\n      dup2\n        /* \"contracts/MapAddrs.sol\":2015:2020  i < 9 */\n      lt\n        /* \"contracts/MapAddrs.sol\":1995:2149  for (uint256 i = 0; i < 9; i++) {... */\n      iszero\n      tag_34\n      jumpi\n        /* \"contracts/MapAddrs.sol\":2041:2060  string memory album */\n      0x00\n        /* \"contracts/MapAddrs.sol\":2063:2082  approvedRecordsList */\n      0x02\n        /* \"contracts/MapAddrs.sol\":2083:2084  i */\n      dup3\n        /* \"contracts/MapAddrs.sol\":2063:2085  approvedRecordsList[i] */\n      dup2\n      sload\n      dup2\n      lt\n      tag_37\n      jumpi\n      tag_37\n      tag_38\n      jump\t// in\n    tag_37:\n      swap1\n      0x00\n      mstore\n      keccak256(0x00, 0x20)\n      add\n        /* \"contracts/MapAddrs.sol\":2041:2085  string memory album = approvedRecordsList[i] */\n      dup1\n      sload\n      tag_40\n      swap1\n      tag_27\n      jump\t// in\n    tag_40:\n      dup1\n      0x1f\n      add\n      0x20\n      dup1\n      swap2\n      div\n      mul\n      0x20\n      add\n      mload(0x40)\n      swap1\n      dup2\n      add\n      0x40\n      mstore\n      dup1\n      swap3\n      swap2\n      swap1\n      dup2\n      dup2\n      mstore\n      0x20\n      add\n      dup3\n      dup1\n      sload\n      tag_41\n      swap1\n      tag_27\n      jump\t// in\n    tag_41:\n      dup1\n      iszero\n      tag_42\n      jumpi\n      dup1\n      0x1f\n      lt\n      tag_43\n      jumpi\n      0x0100\n      dup1\n      dup4\n      sload\n      div\n      mul\n      dup4\n      mstore\n      swap2\n      0x20\n      add\n      swap2\n      jump(tag_42)\n    tag_43:\n      dup3\n      add\n      swap2\n      swap1\n      0x00\n      mstore\n      keccak256(0x00, 0x20)\n      swap1\n    tag_44:\n      dup2\n      sload\n      dup2\n      mstore\n      swap1\n      0x01\n      add\n      swap1\n      0x20\n      add\n      dup1\n      dup4\n      gt\n      tag_44\n      jumpi\n      dup3\n      swap1\n      sub\n      0x1f\n      and\n      dup3\n      add\n      swap2\n    tag_42:\n      pop\n      pop\n        /* \"contracts/MapAddrs.sol\":2120:2130  msg.sender */\n      caller\n        /* \"contracts/MapAddrs.sol\":2106:2131  userFavorites[msg.sender] */\n      0x00\n      swap1\n      dup2\n      mstore\n        /* \"contracts/MapAddrs.sol\":2106:2119  userFavorites */\n      0x01\n        /* \"contracts/MapAddrs.sol\":2106:2131  userFavorites[msg.sender] */\n      0x20\n      mstore\n      0x40\n      swap1\n      dup2\n      swap1\n      keccak256\n        /* \"contracts/MapAddrs.sol\":2106:2138  userFavorites[msg.sender][album] */\n      swap1\n      mload\n        /* \"contracts/MapAddrs.sol\":2041:2085  string memory album = approvedRecordsList[i] */\n      swap5\n      swap6\n      pop\n        /* \"contracts/MapAddrs.sol\":2106:2131  userFavorites[msg.sender] */\n      swap4\n        /* \"contracts/MapAddrs.sol\":2106:2138  userFavorites[msg.sender][album] */\n      tag_45\n      swap4\n      pop\n        /* \"contracts/MapAddrs.sol\":2041:2085  string memory album = approvedRecordsList[i] */\n      dup6\n      swap3\n      pop\n        /* \"contracts/MapAddrs.sol\":2106:2138  userFavorites[msg.sender][album] */\n      swap1\n      pop\n      tag_46\n      jump\t// in\n    tag_45:\n      swap1\n      dup2\n      mstore\n      mload(0x40)\n      swap1\n      dup2\n      swap1\n      sub\n      0x20\n      add\n      swap1\n      keccak256\n        /* \"contracts/MapAddrs.sol\":2099:2138  delete userFavorites[msg.sender][album] */\n      dup1\n      sload\n      not(0xff)\n      and\n      swap1\n      sstore\n      pop\n      0x01\n        /* \"contracts/MapAddrs.sol\":2022:2025  i++ */\n      add\n        /* \"contracts/MapAddrs.sol\":1995:2149  for (uint256 i = 0; i < 9; i++) {... */\n      jump(tag_33)\n    tag_34:\n      pop\n        /* \"contracts/MapAddrs.sol\":1946:2155  function resetUserFavorites() external {... */\n      jump\t// out\n        /* \"contracts/MapAddrs.sol\":1347:1941  function getUserFavorites(address addr) external view returns(string[] memory){... */\n    tag_16:\n        /* \"contracts/MapAddrs.sol\":1475:1494  approvedRecordsList */\n      0x02\n        /* \"contracts/MapAddrs.sol\":1475:1501  approvedRecordsList.length */\n      sload\n        /* \"contracts/MapAddrs.sol\":1409:1424  string[] memory */\n      0x60\n      swap1\n        /* \"contracts/MapAddrs.sol\":1435:1460  string[] memory favorites */\n      0x00\n      swap1\n        /* \"contracts/MapAddrs.sol\":1462:1502  new string[](approvedRecordsList.length) */\n      0xffffffffffffffff\n      dup2\n      gt\n      iszero\n      tag_49\n      jumpi\n      tag_49\n      tag_50\n      jump\t// in\n    tag_49:\n      mload(0x40)\n      swap1\n      dup1\n      dup3\n      mstore\n      dup1\n      0x20\n      mul\n      0x20\n      add\n      dup3\n      add\n      0x40\n      mstore\n      dup1\n      iszero\n      tag_51\n      jumpi\n      dup2\n      0x20\n      add\n    tag_52:\n      0x60\n      dup2\n      mstore\n      0x20\n      add\n      swap1\n      0x01\n      swap1\n      sub\n      swap1\n      dup2\n      tag_52\n      jumpi\n      swap1\n      pop\n    tag_51:\n      pop\n        /* \"contracts/MapAddrs.sol\":1435:1502  string[] memory favorites= new string[](approvedRecordsList.length) */\n      swap1\n      pop\n        /* \"contracts/MapAddrs.sol\":1512:1523  uint8 count */\n      0x00\n        /* \"contracts/MapAddrs.sol\":1539:1546  uint8 i */\n      dup1\n        /* \"contracts/MapAddrs.sol\":1535:1742  for(uint8 i=0; i<favorites.length; i++){... */\n    tag_53:\n        /* \"contracts/MapAddrs.sol\":1552:1561  favorites */\n      dup3\n        /* \"contracts/MapAddrs.sol\":1552:1568  favorites.length */\n      mload\n        /* \"contracts/MapAddrs.sol\":1550:1551  i */\n      dup2\n        /* \"contracts/MapAddrs.sol\":1550:1568  i<favorites.length */\n      0xff\n      and\n      lt\n        /* \"contracts/MapAddrs.sol\":1535:1742  for(uint8 i=0; i<favorites.length; i++){... */\n      iszero\n      tag_54\n      jumpi\n      sub(shl(0xa0, 0x01), 0x01)\n        /* \"contracts/MapAddrs.sol\":1591:1610  userFavorites[addr] */\n      dup6\n      and\n      0x00\n      swap1\n      dup2\n      mstore\n        /* \"contracts/MapAddrs.sol\":1591:1604  userFavorites */\n      0x01\n        /* \"contracts/MapAddrs.sol\":1591:1610  userFavorites[addr] */\n      0x20\n      mstore\n      0x40\n      swap1\n      keccak256\n        /* \"contracts/MapAddrs.sol\":1611:1630  approvedRecordsList */\n      0x02\n        /* \"contracts/MapAddrs.sol\":1611:1633  approvedRecordsList[i] */\n      dup1\n      sload\n      0xff\n      dup5\n      and\n      swap1\n      dup2\n      lt\n      tag_57\n      jumpi\n      tag_57\n      tag_38\n      jump\t// in\n    tag_57:\n      swap1\n      0x00\n      mstore\n      keccak256(0x00, 0x20)\n      add\n        /* \"contracts/MapAddrs.sol\":1591:1634  userFavorites[addr][approvedRecordsList[i]] */\n      mload(0x40)\n      tag_59\n      swap2\n      swap1\n      tag_60\n      jump\t// in\n    tag_59:\n      swap1\n      dup2\n      mstore\n      mload(0x40)\n      swap1\n      dup2\n      swap1\n      sub\n      0x20\n      add\n      swap1\n      keccak256\n      sload\n      0xff\n      and\n        /* \"contracts/MapAddrs.sol\":1588:1732  if(userFavorites[addr][approvedRecordsList[i]]){... */\n      iszero\n      tag_61\n      jumpi\n        /* \"contracts/MapAddrs.sol\":1670:1689  approvedRecordsList */\n      0x02\n        /* \"contracts/MapAddrs.sol\":1690:1691  i */\n      dup2\n        /* \"contracts/MapAddrs.sol\":1670:1692  approvedRecordsList[i] */\n      0xff\n      and\n      dup2\n      sload\n      dup2\n      lt\n      tag_63\n      jumpi\n      tag_63\n      tag_38\n      jump\t// in\n    tag_63:\n      swap1\n      0x00\n      mstore\n      keccak256(0x00, 0x20)\n      add\n        /* \"contracts/MapAddrs.sol\":1653:1692  favorites[count]=approvedRecordsList[i] */\n      dup1\n      sload\n      tag_65\n      swap1\n      tag_27\n      jump\t// in\n    tag_65:\n      dup1\n      0x1f\n      add\n      0x20\n      dup1\n      swap2\n      div\n      mul\n      0x20\n      add\n      mload(0x40)\n      swap1\n      dup2\n      add\n      0x40\n      mstore\n      dup1\n      swap3\n      swap2\n      swap1\n      dup2\n      dup2\n      mstore\n      0x20\n      add\n      dup3\n      dup1\n      sload\n      tag_66\n      swap1\n      tag_27\n      jump\t// in\n    tag_66:\n      dup1\n      iszero\n      tag_67\n      jumpi\n      dup1\n      0x1f\n      lt\n      tag_68\n      jumpi\n      0x0100\n      dup1\n      dup4\n      sload\n      div\n      mul\n      dup4\n      mstore\n      swap2\n      0x20\n      add\n      swap2\n      jump(tag_67)\n    tag_68:\n      dup3\n      add\n      swap2\n      swap1\n      0x00\n      mstore\n      keccak256(0x00, 0x20)\n      swap1\n    tag_69:\n      dup2\n      sload\n      dup2\n      mstore\n      swap1\n      0x01\n      add\n      swap1\n      0x20\n      add\n      dup1\n      dup4\n      gt\n      tag_69\n      jumpi\n      dup3\n      swap1\n      sub\n      0x1f\n      and\n      dup3\n      add\n      swap2\n    tag_67:\n      pop\n      pop\n      pop\n      pop\n      pop\n        /* \"contracts/MapAddrs.sol\":1653:1662  favorites */\n      dup4\n        /* \"contracts/MapAddrs.sol\":1663:1668  count */\n      dup4\n        /* \"contracts/MapAddrs.sol\":1653:1669  favorites[count] */\n      0xff\n      and\n      dup2\n      mload\n      dup2\n      lt\n      tag_71\n      jumpi\n      tag_71\n      tag_38\n      jump\t// in\n    tag_71:\n      0x20\n      mul\n      0x20\n      add\n      add\n        /* \"contracts/MapAddrs.sol\":1653:1692  favorites[count]=approvedRecordsList[i] */\n      dup2\n      swap1\n      mstore\n      pop\n        /* \"contracts/MapAddrs.sol\":1710:1717  count++ */\n      dup2\n      dup1\n      tag_72\n      swap1\n      tag_73\n      jump\t// in\n    tag_72:\n      swap3\n      pop\n      pop\n        /* \"contracts/MapAddrs.sol\":1588:1732  if(userFavorites[addr][approvedRecordsList[i]]){... */\n    tag_61:\n        /* \"contracts/MapAddrs.sol\":1570:1573  i++ */\n      dup1\n      tag_74\n      dup2\n      tag_73\n      jump\t// in\n    tag_74:\n      swap2\n      pop\n      pop\n        /* \"contracts/MapAddrs.sol\":1535:1742  for(uint8 i=0; i<favorites.length; i++){... */\n      jump(tag_53)\n    tag_54:\n      pop\n        /* \"contracts/MapAddrs.sol\":1751:1773  string[] memory usrcnt */\n      0x00\n        /* \"contracts/MapAddrs.sol\":1789:1794  count */\n      dup2\n        /* \"contracts/MapAddrs.sol\":1775:1795  new string[] (count) */\n      0xff\n      and\n      0xffffffffffffffff\n      dup2\n      gt\n      iszero\n      tag_76\n      jumpi\n      tag_76\n      tag_50\n      jump\t// in\n    tag_76:\n      mload(0x40)\n      swap1\n      dup1\n      dup3\n      mstore\n      dup1\n      0x20\n      mul\n      0x20\n      add\n      dup3\n      add\n      0x40\n      mstore\n      dup1\n      iszero\n      tag_77\n      jumpi\n      dup2\n      0x20\n      add\n    tag_78:\n      0x60\n      dup2\n      mstore\n      0x20\n      add\n      swap1\n      0x01\n      swap1\n      sub\n      swap1\n      dup2\n      tag_78\n      jumpi\n      swap1\n      pop\n    tag_77:\n      pop\n        /* \"contracts/MapAddrs.sol\":1751:1795  string[] memory usrcnt= new string[] (count) */\n      swap1\n      pop\n        /* \"contracts/MapAddrs.sol\":1809:1816  uint8 i */\n      0x00\n        /* \"contracts/MapAddrs.sol\":1805:1884  for(uint8 i=0; i<count; i++){... */\n    tag_79:\n        /* \"contracts/MapAddrs.sol\":1822:1827  count */\n      dup3\n        /* \"contracts/MapAddrs.sol\":1820:1827  i<count */\n      0xff\n      and\n        /* \"contracts/MapAddrs.sol\":1820:1821  i */\n      dup2\n        /* \"contracts/MapAddrs.sol\":1820:1827  i<count */\n      0xff\n      and\n      lt\n        /* \"contracts/MapAddrs.sol\":1805:1884  for(uint8 i=0; i<count; i++){... */\n      iszero\n      tag_80\n      jumpi\n        /* \"contracts/MapAddrs.sol\":1861:1870  favorites */\n      dup4\n        /* \"contracts/MapAddrs.sol\":1871:1872  i */\n      dup2\n        /* \"contracts/MapAddrs.sol\":1861:1873  favorites[i] */\n      0xff\n      and\n      dup2\n      mload\n      dup2\n      lt\n      tag_83\n      jumpi\n      tag_83\n      tag_38\n      jump\t// in\n    tag_83:\n      0x20\n      mul\n      0x20\n      add\n      add\n      mload\n        /* \"contracts/MapAddrs.sol\":1851:1857  usrcnt */\n      dup3\n        /* \"contracts/MapAddrs.sol\":1858:1859  i */\n      dup3\n        /* \"contracts/MapAddrs.sol\":1851:1860  usrcnt[i] */\n      0xff\n      and\n      dup2\n      mload\n      dup2\n      lt\n      tag_85\n      jumpi\n      tag_85\n      tag_38\n      jump\t// in\n    tag_85:\n      0x20\n      swap1\n      dup2\n      mul\n      swap2\n      swap1\n      swap2\n      add\n      add\n        /* \"contracts/MapAddrs.sol\":1851:1873  usrcnt[i]=favorites[i] */\n      mstore\n        /* \"contracts/MapAddrs.sol\":1829:1832  i++ */\n      0x01\n      add\n        /* \"contracts/MapAddrs.sol\":1805:1884  for(uint8 i=0; i<count; i++){... */\n      jump(tag_79)\n    tag_80:\n      pop\n        /* \"contracts/MapAddrs.sol\":1928:1934  usrcnt */\n      swap5\n        /* \"contracts/MapAddrs.sol\":1347:1941  function getUserFavorites(address addr) external view returns(string[] memory){... */\n      swap4\n      pop\n      pop\n      pop\n      pop\n      jump\t// out\n        /* \"contracts/MapAddrs.sol\":1135:1341  function addRecord( string memory _album) external{... */\n    tag_21:\n        /* \"contracts/MapAddrs.sol\":1204:1219  approvedRecords */\n      0x00\n        /* \"contracts/MapAddrs.sol\":1220:1226  _album */\n      dup2\n        /* \"contracts/MapAddrs.sol\":1204:1227  approvedRecords[_album] */\n      mload(0x40)\n      tag_87\n      swap2\n      swap1\n      tag_46\n      jump\t// in\n    tag_87:\n      swap1\n      dup2\n      mstore\n      mload(0x40)\n      swap1\n      dup2\n      swap1\n      sub\n      0x20\n      add\n      swap1\n      keccak256\n      sload\n      0xff\n      and\n        /* \"contracts/MapAddrs.sol\":1199:1287  if (!approvedRecords[_album]){... */\n      tag_88\n      jumpi\n        /* \"contracts/MapAddrs.sol\":1265:1271  _album */\n      dup1\n        /* \"contracts/MapAddrs.sol\":1253:1272  NotApproved(_album) */\n      mload(0x40)\n      shl(0xe0, 0x4f0ffc1b)\n      dup2\n      mstore\n      0x04\n      add\n      tag_89\n      swap2\n      swap1\n      tag_90\n      jump\t// in\n    tag_89:\n      mload(0x40)\n      dup1\n      swap2\n      sub\n      swap1\n      revert\n        /* \"contracts/MapAddrs.sol\":1199:1287  if (!approvedRecords[_album]){... */\n    tag_88:\n        /* \"contracts/MapAddrs.sol\":1310:1320  msg.sender */\n      caller\n        /* \"contracts/MapAddrs.sol\":1296:1321  userFavorites[msg.sender] */\n      0x00\n      swap1\n      dup2\n      mstore\n        /* \"contracts/MapAddrs.sol\":1330:1334  true */\n      0x01\n        /* \"contracts/MapAddrs.sol\":1296:1321  userFavorites[msg.sender] */\n      0x20\n      dup2\n      swap1\n      mstore\n      0x40\n      swap2\n      dup3\n      swap1\n      keccak256\n        /* \"contracts/MapAddrs.sol\":1296:1329  userFavorites[msg.sender][_album] */\n      swap2\n      mload\n        /* \"contracts/MapAddrs.sol\":1330:1334  true */\n      swap1\n      swap2\n        /* \"contracts/MapAddrs.sol\":1296:1321  userFavorites[msg.sender] */\n      swap1\n        /* \"contracts/MapAddrs.sol\":1296:1329  userFavorites[msg.sender][_album] */\n      tag_91\n      swap1\n        /* \"contracts/MapAddrs.sol\":1322:1328  _album */\n      dup5\n      swap1\n        /* \"contracts/MapAddrs.sol\":1296:1329  userFavorites[msg.sender][_album] */\n      tag_46\n      jump\t// in\n    tag_91:\n      swap1\n      dup2\n      mstore\n      mload(0x40)\n      swap1\n      dup2\n      swap1\n      sub\n      0x20\n      add\n      swap1\n      keccak256\n        /* \"contracts/MapAddrs.sol\":1296:1334  userFavorites[msg.sender][_album]=true */\n      dup1\n      sload\n      swap2\n      iszero\n      iszero\n      not(0xff)\n      swap1\n      swap3\n      and\n      swap2\n      swap1\n      swap2\n      or\n      swap1\n      sstore\n      pop\n        /* \"contracts/MapAddrs.sol\":1135:1341  function addRecord( string memory _album) external{... */\n      jump\t// out\n        /* \"#utility.yul\":14:303   */\n    tag_92:\n        /* \"#utility.yul\":56:59   */\n      0x00\n        /* \"#utility.yul\":94:99   */\n      dup2\n        /* \"#utility.yul\":88:100   */\n      mload\n        /* \"#utility.yul\":121:127   */\n      dup1\n        /* \"#utility.yul\":116:119   */\n      dup5\n        /* \"#utility.yul\":109:128   */\n      mstore\n        /* \"#utility.yul\":177:183   */\n      dup1\n        /* \"#utility.yul\":170:174   */\n      0x20\n        /* \"#utility.yul\":163:168   */\n      dup5\n        /* \"#utility.yul\":159:175   */\n      add\n        /* \"#utility.yul\":152:156   */\n      0x20\n        /* \"#utility.yul\":147:150   */\n      dup7\n        /* \"#utility.yul\":143:157   */\n      add\n        /* \"#utility.yul\":137:184   */\n      mcopy\n        /* \"#utility.yul\":229:230   */\n      0x00\n        /* \"#utility.yul\":222:226   */\n      0x20\n        /* \"#utility.yul\":213:219   */\n      dup3\n        /* \"#utility.yul\":208:211   */\n      dup7\n        /* \"#utility.yul\":204:220   */\n      add\n        /* \"#utility.yul\":200:227   */\n      add\n        /* \"#utility.yul\":193:231   */\n      mstore\n        /* \"#utility.yul\":292:296   */\n      0x20\n        /* \"#utility.yul\":285:287   */\n      0x1f\n        /* \"#utility.yul\":281:288   */\n      not\n        /* \"#utility.yul\":276:278   */\n      0x1f\n        /* \"#utility.yul\":268:274   */\n      dup4\n        /* \"#utility.yul\":264:279   */\n      add\n        /* \"#utility.yul\":260:289   */\n      and\n        /* \"#utility.yul\":255:258   */\n      dup6\n        /* \"#utility.yul\":251:290   */\n      add\n        /* \"#utility.yul\":247:297   */\n      add\n        /* \"#utility.yul\":240:297   */\n      swap2\n      pop\n      pop\n        /* \"#utility.yul\":14:303   */\n      swap3\n      swap2\n      pop\n      pop\n      jump\t// out\n        /* \"#utility.yul\":308:1090   */\n    tag_10:\n        /* \"#utility.yul\":470:474   */\n      0x00\n        /* \"#utility.yul\":518:520   */\n      0x20\n        /* \"#utility.yul\":507:516   */\n      dup3\n        /* \"#utility.yul\":503:521   */\n      add\n        /* \"#utility.yul\":548:550   */\n      0x20\n        /* \"#utility.yul\":537:546   */\n      dup4\n        /* \"#utility.yul\":530:551   */\n      mstore\n        /* \"#utility.yul\":571:577   */\n      dup1\n        /* \"#utility.yul\":606:612   */\n      dup5\n        /* \"#utility.yul\":600:613   */\n      mload\n        /* \"#utility.yul\":637:643   */\n      dup1\n        /* \"#utility.yul\":629:635   */\n      dup4\n        /* \"#utility.yul\":622:644   */\n      mstore\n        /* \"#utility.yul\":675:677   */\n      0x40\n        /* \"#utility.yul\":664:673   */\n      dup6\n        /* \"#utility.yul\":660:678   */\n      add\n        /* \"#utility.yul\":653:678   */\n      swap2\n      pop\n        /* \"#utility.yul\":737:739   */\n      0x40\n        /* \"#utility.yul\":727:733   */\n      dup2\n        /* \"#utility.yul\":724:725   */\n      0x05\n        /* \"#utility.yul\":720:734   */\n      shl\n        /* \"#utility.yul\":709:718   */\n      dup7\n        /* \"#utility.yul\":705:735   */\n      add\n        /* \"#utility.yul\":701:740   */\n      add\n        /* \"#utility.yul\":687:740   */\n      swap3\n      pop\n        /* \"#utility.yul\":775:777   */\n      0x20\n        /* \"#utility.yul\":767:773   */\n      dup7\n        /* \"#utility.yul\":763:778   */\n      add\n        /* \"#utility.yul\":796:797   */\n      0x00\n        /* \"#utility.yul\":806:1061   */\n    tag_97:\n        /* \"#utility.yul\":820:826   */\n      dup3\n        /* \"#utility.yul\":817:818   */\n      dup2\n        /* \"#utility.yul\":814:827   */\n      lt\n        /* \"#utility.yul\":806:1061   */\n      iszero\n      tag_99\n      jumpi\n        /* \"#utility.yul\":913:915   */\n      0x3f\n        /* \"#utility.yul\":909:916   */\n      not\n        /* \"#utility.yul\":897:906   */\n      dup8\n        /* \"#utility.yul\":889:895   */\n      dup7\n        /* \"#utility.yul\":885:907   */\n      sub\n        /* \"#utility.yul\":881:917   */\n      add\n        /* \"#utility.yul\":876:879   */\n      dup5\n        /* \"#utility.yul\":869:918   */\n      mstore\n        /* \"#utility.yul\":941:981   */\n      tag_100\n        /* \"#utility.yul\":974:980   */\n      dup6\n        /* \"#utility.yul\":965:971   */\n      dup4\n        /* \"#utility.yul\":959:972   */\n      mload\n        /* \"#utility.yul\":941:981   */\n      tag_92\n      jump\t// in\n    tag_100:\n        /* \"#utility.yul\":931:981   */\n      swap5\n      pop\n        /* \"#utility.yul\":1016:1018   */\n      0x20\n        /* \"#utility.yul\":1039:1051   */\n      swap4\n      dup5\n      add\n      swap4\n        /* \"#utility.yul\":1004:1019   */\n      swap2\n      swap1\n      swap2\n      add\n      swap1\n        /* \"#utility.yul\":842:843   */\n      0x01\n        /* \"#utility.yul\":835:844   */\n      add\n        /* \"#utility.yul\":806:1061   */\n      jump(tag_97)\n    tag_99:\n      pop\n        /* \"#utility.yul\":1078:1084   */\n      swap3\n      swap7\n        /* \"#utility.yul\":308:1090   */\n      swap6\n      pop\n      pop\n      pop\n      pop\n      pop\n      pop\n      jump\t// out\n        /* \"#utility.yul\":1095:1381   */\n    tag_15:\n        /* \"#utility.yul\":1154:1160   */\n      0x00\n        /* \"#utility.yul\":1207:1209   */\n      0x20\n        /* \"#utility.yul\":1195:1204   */\n      dup3\n        /* \"#utility.yul\":1186:1193   */\n      dup5\n        /* \"#utility.yul\":1182:1205   */\n      sub\n        /* \"#utility.yul\":1178:1210   */\n      slt\n        /* \"#utility.yul\":1175:1227   */\n      iszero\n      tag_102\n      jumpi\n        /* \"#utility.yul\":1223:1224   */\n      0x00\n        /* \"#utility.yul\":1220:1221   */\n      dup1\n        /* \"#utility.yul\":1213:1225   */\n      revert\n        /* \"#utility.yul\":1175:1227   */\n    tag_102:\n        /* \"#utility.yul\":1249:1272   */\n      dup2\n      calldataload\n      sub(shl(0xa0, 0x01), 0x01)\n        /* \"#utility.yul\":1301:1332   */\n      dup2\n      and\n        /* \"#utility.yul\":1291:1333   */\n      dup2\n      eq\n        /* \"#utility.yul\":1281:1351   */\n      tag_103\n      jumpi\n        /* \"#utility.yul\":1347:1348   */\n      0x00\n        /* \"#utility.yul\":1344:1345   */\n      dup1\n        /* \"#utility.yul\":1337:1349   */\n      revert\n        /* \"#utility.yul\":1281:1351   */\n    tag_103:\n        /* \"#utility.yul\":1370:1375   */\n      swap4\n        /* \"#utility.yul\":1095:1381   */\n      swap3\n      pop\n      pop\n      pop\n      jump\t// out\n        /* \"#utility.yul\":1386:1513   */\n    tag_50:\n        /* \"#utility.yul\":1447:1457   */\n      0x4e487b71\n        /* \"#utility.yul\":1442:1445   */\n      0xe0\n        /* \"#utility.yul\":1438:1458   */\n      shl\n        /* \"#utility.yul\":1435:1436   */\n      0x00\n        /* \"#utility.yul\":1428:1459   */\n      mstore\n        /* \"#utility.yul\":1478:1482   */\n      0x41\n        /* \"#utility.yul\":1475:1476   */\n      0x04\n        /* \"#utility.yul\":1468:1483   */\n      mstore\n        /* \"#utility.yul\":1502:1506   */\n      0x24\n        /* \"#utility.yul\":1499:1500   */\n      0x00\n        /* \"#utility.yul\":1492:1507   */\n      revert\n        /* \"#utility.yul\":1518:2463   */\n    tag_20:\n        /* \"#utility.yul\":1587:1593   */\n      0x00\n        /* \"#utility.yul\":1640:1642   */\n      0x20\n        /* \"#utility.yul\":1628:1637   */\n      dup3\n        /* \"#utility.yul\":1619:1626   */\n      dup5\n        /* \"#utility.yul\":1615:1638   */\n      sub\n        /* \"#utility.yul\":1611:1643   */\n      slt\n        /* \"#utility.yul\":1608:1660   */\n      iszero\n      tag_106\n      jumpi\n        /* \"#utility.yul\":1656:1657   */\n      0x00\n        /* \"#utility.yul\":1653:1654   */\n      dup1\n        /* \"#utility.yul\":1646:1658   */\n      revert\n        /* \"#utility.yul\":1608:1660   */\n    tag_106:\n        /* \"#utility.yul\":1696:1705   */\n      dup2\n        /* \"#utility.yul\":1683:1706   */\n      calldataload\n        /* \"#utility.yul\":1729:1747   */\n      0xffffffffffffffff\n        /* \"#utility.yul\":1721:1727   */\n      dup2\n        /* \"#utility.yul\":1718:1748   */\n      gt\n        /* \"#utility.yul\":1715:1765   */\n      iszero\n      tag_107\n      jumpi\n        /* \"#utility.yul\":1761:1762   */\n      0x00\n        /* \"#utility.yul\":1758:1759   */\n      dup1\n        /* \"#utility.yul\":1751:1763   */\n      revert\n        /* \"#utility.yul\":1715:1765   */\n    tag_107:\n        /* \"#utility.yul\":1784:1806   */\n      dup3\n      add\n        /* \"#utility.yul\":1837:1841   */\n      0x1f\n        /* \"#utility.yul\":1829:1842   */\n      dup2\n      add\n        /* \"#utility.yul\":1825:1852   */\n      dup5\n      sgt\n        /* \"#utility.yul\":1815:1870   */\n      tag_108\n      jumpi\n        /* \"#utility.yul\":1866:1867   */\n      0x00\n        /* \"#utility.yul\":1863:1864   */\n      dup1\n        /* \"#utility.yul\":1856:1868   */\n      revert\n        /* \"#utility.yul\":1815:1870   */\n    tag_108:\n        /* \"#utility.yul\":1906:1908   */\n      dup1\n        /* \"#utility.yul\":1893:1909   */\n      calldataload\n        /* \"#utility.yul\":1932:1950   */\n      0xffffffffffffffff\n        /* \"#utility.yul\":1924:1930   */\n      dup2\n        /* \"#utility.yul\":1921:1951   */\n      gt\n        /* \"#utility.yul\":1918:1974   */\n      iszero\n      tag_110\n      jumpi\n        /* \"#utility.yul\":1954:1972   */\n      tag_110\n      tag_50\n      jump\t// in\n    tag_110:\n        /* \"#utility.yul\":2003:2005   */\n      0x40\n        /* \"#utility.yul\":1997:2006   */\n      mload\n        /* \"#utility.yul\":2095:2097   */\n      0x1f\n        /* \"#utility.yul\":2057:2074   */\n      dup3\n      add\n      not(0x1f)\n        /* \"#utility.yul\":2053:2084   */\n      swap1\n      dup2\n      and\n        /* \"#utility.yul\":2086:2088   */\n      0x3f\n        /* \"#utility.yul\":2049:2089   */\n      add\n        /* \"#utility.yul\":2045:2099   */\n      and\n        /* \"#utility.yul\":2033:2100   */\n      dup2\n      add\n        /* \"#utility.yul\":2130:2148   */\n      0xffffffffffffffff\n        /* \"#utility.yul\":2115:2149   */\n      dup2\n      gt\n        /* \"#utility.yul\":2151:2173   */\n      dup3\n      dup3\n      lt\n        /* \"#utility.yul\":2112:2174   */\n      or\n        /* \"#utility.yul\":2109:2197   */\n      iszero\n      tag_112\n      jumpi\n        /* \"#utility.yul\":2177:2195   */\n      tag_112\n      tag_50\n      jump\t// in\n    tag_112:\n        /* \"#utility.yul\":2213:2215   */\n      0x40\n        /* \"#utility.yul\":2206:2228   */\n      mstore\n        /* \"#utility.yul\":2237:2259   */\n      dup2\n      dup2\n      mstore\n        /* \"#utility.yul\":2278:2293   */\n      dup3\n      dup3\n      add\n        /* \"#utility.yul\":2295:2297   */\n      0x20\n        /* \"#utility.yul\":2274:2298   */\n      add\n        /* \"#utility.yul\":2271:2308   */\n      dup7\n      lt\n        /* \"#utility.yul\":2268:2325   */\n      iszero\n      tag_113\n      jumpi\n        /* \"#utility.yul\":2321:2322   */\n      0x00\n        /* \"#utility.yul\":2318:2319   */\n      dup1\n        /* \"#utility.yul\":2311:2323   */\n      revert\n        /* \"#utility.yul\":2268:2325   */\n    tag_113:\n        /* \"#utility.yul\":2377:2383   */\n      dup2\n        /* \"#utility.yul\":2372:2374   */\n      0x20\n        /* \"#utility.yul\":2368:2370   */\n      dup5\n        /* \"#utility.yul\":2364:2375   */\n      add\n        /* \"#utility.yul\":2359:2361   */\n      0x20\n        /* \"#utility.yul\":2351:2357   */\n      dup4\n        /* \"#utility.yul\":2347:2362   */\n      add\n        /* \"#utility.yul\":2334:2384   */\n      calldatacopy\n        /* \"#utility.yul\":2430:2431   */\n      0x00\n        /* \"#utility.yul\":2404:2423   */\n      swap2\n      dup2\n      add\n        /* \"#utility.yul\":2425:2427   */\n      0x20\n        /* \"#utility.yul\":2400:2428   */\n      add\n        /* \"#utility.yul\":2393:2432   */\n      swap2\n      swap1\n      swap2\n      mstore\n        /* \"#utility.yul\":2408:2414   */\n      swap5\n        /* \"#utility.yul\":1518:2463   */\n      swap4\n      pop\n      pop\n      pop\n      pop\n      jump\t// out\n        /* \"#utility.yul\":2468:2848   */\n    tag_27:\n        /* \"#utility.yul\":2547:2548   */\n      0x01\n        /* \"#utility.yul\":2543:2555   */\n      dup2\n      dup2\n      shr\n      swap1\n        /* \"#utility.yul\":2590:2602   */\n      dup3\n      and\n      dup1\n        /* \"#utility.yul\":2611:2672   */\n      tag_115\n      jumpi\n        /* \"#utility.yul\":2665:2669   */\n      0x7f\n        /* \"#utility.yul\":2657:2663   */\n      dup3\n        /* \"#utility.yul\":2653:2670   */\n      and\n        /* \"#utility.yul\":2643:2670   */\n      swap2\n      pop\n        /* \"#utility.yul\":2611:2672   */\n    tag_115:\n        /* \"#utility.yul\":2718:2720   */\n      0x20\n        /* \"#utility.yul\":2710:2716   */\n      dup3\n        /* \"#utility.yul\":2707:2721   */\n      lt\n        /* \"#utility.yul\":2687:2705   */\n      dup2\n        /* \"#utility.yul\":2684:2722   */\n      sub\n        /* \"#utility.yul\":2681:2842   */\n      tag_116\n      jumpi\n        /* \"#utility.yul\":2764:2774   */\n      0x4e487b71\n        /* \"#utility.yul\":2759:2762   */\n      0xe0\n        /* \"#utility.yul\":2755:2775   */\n      shl\n        /* \"#utility.yul\":2752:2753   */\n      0x00\n        /* \"#utility.yul\":2745:2776   */\n      mstore\n        /* \"#utility.yul\":2799:2803   */\n      0x22\n        /* \"#utility.yul\":2796:2797   */\n      0x04\n        /* \"#utility.yul\":2789:2804   */\n      mstore\n        /* \"#utility.yul\":2827:2831   */\n      0x24\n        /* \"#utility.yul\":2824:2825   */\n      0x00\n        /* \"#utility.yul\":2817:2832   */\n      revert\n        /* \"#utility.yul\":2681:2842   */\n    tag_116:\n      pop\n        /* \"#utility.yul\":2468:2848   */\n      swap2\n      swap1\n      pop\n      jump\t// out\n        /* \"#utility.yul\":2853:2980   */\n    tag_38:\n        /* \"#utility.yul\":2914:2924   */\n      0x4e487b71\n        /* \"#utility.yul\":2909:2912   */\n      0xe0\n        /* \"#utility.yul\":2905:2925   */\n      shl\n        /* \"#utility.yul\":2902:2903   */\n      0x00\n        /* \"#utility.yul\":2895:2926   */\n      mstore\n        /* \"#utility.yul\":2945:2949   */\n      0x32\n        /* \"#utility.yul\":2942:2943   */\n      0x04\n        /* \"#utility.yul\":2935:2950   */\n      mstore\n        /* \"#utility.yul\":2969:2973   */\n      0x24\n        /* \"#utility.yul\":2966:2967   */\n      0x00\n        /* \"#utility.yul\":2959:2974   */\n      revert\n        /* \"#utility.yul\":2985:3288   */\n    tag_46:\n        /* \"#utility.yul\":3116:3119   */\n      0x00\n        /* \"#utility.yul\":3154:3160   */\n      dup3\n        /* \"#utility.yul\":3148:3161   */\n      mload\n        /* \"#utility.yul\":3200:3206   */\n      dup1\n        /* \"#utility.yul\":3193:3197   */\n      0x20\n        /* \"#utility.yul\":3185:3191   */\n      dup6\n        /* \"#utility.yul\":3181:3198   */\n      add\n        /* \"#utility.yul\":3176:3179   */\n      dup5\n        /* \"#utility.yul\":3170:3207   */\n      mcopy\n        /* \"#utility.yul\":3262:3263   */\n      0x00\n        /* \"#utility.yul\":3226:3242   */\n      swap3\n      add\n        /* \"#utility.yul\":3251:3264   */\n      swap2\n      dup3\n      mstore\n      pop\n        /* \"#utility.yul\":3226:3242   */\n      swap2\n        /* \"#utility.yul\":2985:3288   */\n      swap1\n      pop\n      jump\t// out\n        /* \"#utility.yul\":3419:4497   */\n    tag_60:\n        /* \"#utility.yul\":3547:3550   */\n      0x00\n        /* \"#utility.yul\":3576:3577   */\n      dup1\n        /* \"#utility.yul\":3609:3615   */\n      dup4\n        /* \"#utility.yul\":3603:3616   */\n      sload\n        /* \"#utility.yul\":3639:3640   */\n      0x00\n        /* \"#utility.yul\":3666:3675   */\n      dup2\n        /* \"#utility.yul\":3663:3664   */\n      0x01\n        /* \"#utility.yul\":3659:3676   */\n      shr\n        /* \"#utility.yul\":3649:3676   */\n      swap1\n      pop\n        /* \"#utility.yul\":3726:3727   */\n      0x01\n        /* \"#utility.yul\":3715:3724   */\n      dup3\n        /* \"#utility.yul\":3711:3728   */\n      and\n        /* \"#utility.yul\":3747:3765   */\n      dup1\n        /* \"#utility.yul\":3737:3798   */\n      tag_121\n      jumpi\n        /* \"#utility.yul\":3791:3795   */\n      0x7f\n        /* \"#utility.yul\":3783:3789   */\n      dup3\n        /* \"#utility.yul\":3779:3796   */\n      and\n        /* \"#utility.yul\":3769:3796   */\n      swap2\n      pop\n        /* \"#utility.yul\":3737:3798   */\n    tag_121:\n        /* \"#utility.yul\":3844:3846   */\n      0x20\n        /* \"#utility.yul\":3836:3842   */\n      dup3\n        /* \"#utility.yul\":3833:3847   */\n      lt\n        /* \"#utility.yul\":3813:3831   */\n      dup2\n        /* \"#utility.yul\":3810:3848   */\n      sub\n        /* \"#utility.yul\":3807:3968   */\n      tag_122\n      jumpi\n        /* \"#utility.yul\":3890:3900   */\n      0x4e487b71\n        /* \"#utility.yul\":3885:3888   */\n      0xe0\n        /* \"#utility.yul\":3881:3901   */\n      shl\n        /* \"#utility.yul\":3878:3879   */\n      0x00\n        /* \"#utility.yul\":3871:3902   */\n      mstore\n        /* \"#utility.yul\":3925:3929   */\n      0x22\n        /* \"#utility.yul\":3922:3923   */\n      0x04\n        /* \"#utility.yul\":3915:3930   */\n      mstore\n        /* \"#utility.yul\":3953:3957   */\n      0x24\n        /* \"#utility.yul\":3950:3951   */\n      0x00\n        /* \"#utility.yul\":3943:3958   */\n      revert\n        /* \"#utility.yul\":3807:3968   */\n    tag_122:\n        /* \"#utility.yul\":3984:4002   */\n      dup1\n        /* \"#utility.yul\":4011:4144   */\n      dup1\n      iszero\n      tag_124\n      jumpi\n        /* \"#utility.yul\":4158:4159   */\n      0x01\n        /* \"#utility.yul\":4153:4472   */\n      dup2\n      eq\n      tag_125\n      jumpi\n        /* \"#utility.yul\":3977:4472   */\n      jump(tag_99)\n        /* \"#utility.yul\":4011:4144   */\n    tag_124:\n      not(0xff)\n        /* \"#utility.yul\":4044:4068   */\n      dup5\n      and\n        /* \"#utility.yul\":4032:4069   */\n      dup8\n      mstore\n        /* \"#utility.yul\":4117:4131   */\n      dup3\n      iszero\n        /* \"#utility.yul\":4110:4132   */\n      iszero\n        /* \"#utility.yul\":4098:4133   */\n      dup4\n      mul\n        /* \"#utility.yul\":4089:4134   */\n      dup8\n      add\n      swap5\n      pop\n        /* \"#utility.yul\":4011:4144   */\n      jump(tag_99)\n        /* \"#utility.yul\":4153:4472   */\n    tag_125:\n        /* \"#utility.yul\":3366:3367   */\n      0x00\n        /* \"#utility.yul\":3359:3373   */\n      dup9\n      dup2\n      mstore\n        /* \"#utility.yul\":3403:3407   */\n      0x20\n        /* \"#utility.yul\":3390:3408   */\n      swap1\n      keccak256\n        /* \"#utility.yul\":4248:4249   */\n      0x00\n        /* \"#utility.yul\":4262:4426   */\n    tag_127:\n        /* \"#utility.yul\":4276:4282   */\n      dup5\n        /* \"#utility.yul\":4273:4274   */\n      dup2\n        /* \"#utility.yul\":4270:4283   */\n      lt\n        /* \"#utility.yul\":4262:4426   */\n      iszero\n      tag_129\n      jumpi\n        /* \"#utility.yul\":4354:4368   */\n      dup2\n      sload\n        /* \"#utility.yul\":4341:4352   */\n      dup10\n      dup3\n      add\n        /* \"#utility.yul\":4334:4369   */\n      mstore\n        /* \"#utility.yul\":4410:4411   */\n      0x01\n        /* \"#utility.yul\":4397:4412   */\n      swap1\n      swap2\n      add\n      swap1\n        /* \"#utility.yul\":4298:4300   */\n      0x20\n        /* \"#utility.yul\":4291:4301   */\n      add\n        /* \"#utility.yul\":4262:4426   */\n      jump(tag_127)\n    tag_129:\n      pop\n      pop\n      pop\n        /* \"#utility.yul\":4446:4462   */\n      swap5\n      add\n      swap6\n        /* \"#utility.yul\":4488:4491   */\n      swap5\n      pop\n      pop\n      pop\n      pop\n      pop\n        /* \"#utility.yul\":3419:4497   */\n      jump\t// out\n        /* \"#utility.yul\":4502:4774   */\n    tag_73:\n        /* \"#utility.yul\":4539:4542   */\n      0x00\n        /* \"#utility.yul\":4583:4587   */\n      0xff\n        /* \"#utility.yul\":4576:4581   */\n      dup3\n        /* \"#utility.yul\":4572:4588   */\n      and\n        /* \"#utility.yul\":4612:4616   */\n      0xff\n        /* \"#utility.yul\":4603:4610   */\n      dup2\n        /* \"#utility.yul\":4600:4617   */\n      sub\n        /* \"#utility.yul\":4597:4737   */\n      tag_131\n      jumpi\n        /* \"#utility.yul\":4659:4669   */\n      0x4e487b71\n        /* \"#utility.yul\":4654:4657   */\n      0xe0\n        /* \"#utility.yul\":4650:4670   */\n      shl\n        /* \"#utility.yul\":4647:4648   */\n      0x00\n        /* \"#utility.yul\":4640:4671   */\n      mstore\n        /* \"#utility.yul\":4694:4698   */\n      0x11\n        /* \"#utility.yul\":4691:4692   */\n      0x04\n        /* \"#utility.yul\":4684:4699   */\n      mstore\n        /* \"#utility.yul\":4722:4726   */\n      0x24\n        /* \"#utility.yul\":4719:4720   */\n      0x00\n        /* \"#utility.yul\":4712:4727   */\n      revert\n        /* \"#utility.yul\":4597:4737   */\n    tag_131:\n        /* \"#utility.yul\":4766:4767   */\n      0x01\n        /* \"#utility.yul\":4753:4768   */\n      add\n      swap3\n        /* \"#utility.yul\":4502:4774   */\n      swap2\n      pop\n      pop\n      jump\t// out\n        /* \"#utility.yul\":4779:4999   */\n    tag_90:\n        /* \"#utility.yul\":4928:4930   */\n      0x20\n        /* \"#utility.yul\":4917:4926   */\n      dup2\n        /* \"#utility.yul\":4910:4931   */\n      mstore\n        /* \"#utility.yul\":4891:4895   */\n      0x00\n        /* \"#utility.yul\":4948:4993   */\n      tag_103\n        /* \"#utility.yul\":4989:4991   */\n      0x20\n        /* \"#utility.yul\":4978:4987   */\n      dup4\n        /* \"#utility.yul\":4974:4992   */\n      add\n        /* \"#utility.yul\":4966:4972   */\n      dup5\n        /* \"#utility.yul\":4948:4993   */\n      tag_92\n      jump\t// in\n\n    auxdata: 0xa26469706673582212202c810f3de8acc66a711861fab24aaea3c49f8252111a94f2c58995a53dc1ab1d64736f6c634300081a0033\n}\n",
				"bytecode": {
					"linkReferences": {},
					"object": "60086101a0908152672a343934b63632b960c11b6101c0526080908152600d6101e08181526c4261636b20696e20426c61636b60981b6102005260a0526102209081526c151a1948109bd91e59dd585c99609a1b6102405260c05260196102609081527f546865204461726b2053696465206f6620746865204d6f6f6e000000000000006102805260e052601f6102a09081527f546865697220477265617465737420486974732028313937312d3139373529006102c0526101005260106102e09081526f486f74656c2043616c69666f726e696160801b6103005261012052600c6103209081526b21b7b6b29027b71027bb32b960a11b610340526101405260076103609081526652756d6f75727360c81b61038052610160526103e060405260146103a09081527f5361747572646179204e696768742046657665720000000000000000000000006103c0526101805261015f906002906009610348565b5034801561016b575f80fd5b5060015f60405161018a90672a343934b63632b960c11b815260080190565b90815260408051918290036020018220805493151560ff199485161790556c4261636b20696e20426c61636b60981b82525f600d808401829052825193849003602d90810185208054871660019081179091556c151a1948109bd91e59dd585c99609a1b865291850183905283519485900301842080548616821790557f546865204461726b2053696465206f6620746865204d6f6f6e00000000000000845260198401829052825193849003603901842080548616821790557f546865697220477265617465737420486974732028313937312d3139373529008452601f8401829052825193849003603f01842080548616821790556f486f74656c2043616c69666f726e696160801b845260108401829052825193849003603001842080548616821790556b21b7b6b29027b71027bb32b960a11b8452600c8401829052825193849003602c01842080548616821790556652756d6f75727360c81b845260078401829052825193849003602701842080548616821790557f5361747572646179204e69676874204665766572000000000000000000000000845260148401919091529051918290036034019091208054909216179055610558565b828054828255905f5260205f2090810192821561038c579160200282015b8281111561038c578251829061037c908261049e565b5091602001919060010190610366565b5061039892915061039c565b5090565b80821115610398575f6103af82826103b8565b5060010161039c565b5080546103c49061041a565b5f825580601f106103d3575050565b601f0160209004905f5260205f20908101906103ef91906103f2565b50565b5b80821115610398575f81556001016103f3565b634e487b7160e01b5f52604160045260245ffd5b600181811c9082168061042e57607f821691505b60208210810361044c57634e487b7160e01b5f52602260045260245ffd5b50919050565b601f82111561049957805f5260205f20601f840160051c810160208510156104775750805b601f840160051c820191505b81811015610496575f8155600101610483565b50505b505050565b81516001600160401b038111156104b7576104b7610406565b6104cb816104c5845461041a565b84610452565b6020601f8211600181146104fd575f83156104e65750848201515b5f19600385901b1c1916600184901b178455610496565b5f84815260208120601f198516915b8281101561052c578785015182556020948501946001909201910161050c565b508482101561054957868401515f19600387901b60f8161c191681555b50505050600190811b01905550565b610839806105655f395ff3fe608060405234801561000f575f80fd5b506004361061004a575f3560e01c80631cf0830b1461004e578063837f88781461006c578063c785314814610076578063d81aa8c414610089575b5f80fd5b61005661009c565b6040516100639190610578565b60405180910390f35b610074610170565b005b6100566100843660046105db565b610263565b61007461009736600461061c565b6104bb565b60606002805480602002602001604051908101604052809291908181526020015f905b82821015610167578382905f5260205f200180546100dc906106cf565b80601f0160208091040260200160405190810160405280929190818152602001828054610108906106cf565b80156101535780601f1061012a57610100808354040283529160200191610153565b820191905f5260205f20905b81548152906001019060200180831161013657829003601f168201915b5050505050815260200190600101906100bf565b50505050905090565b5f5b6009811015610260575f6002828154811061018f5761018f610707565b905f5260205f200180546101a2906106cf565b80601f01602080910402602001604051908101604052809291908181526020018280546101ce906106cf565b80156102195780601f106101f057610100808354040283529160200191610219565b820191905f5260205f20905b8154815290600101906020018083116101fc57829003601f168201915b5050335f90815260016020526040908190209051949550936102409350859250905061071b565b908152604051908190036020019020805460ff1916905550600101610172565b50565b6002546060905f9067ffffffffffffffff81111561028357610283610608565b6040519080825280602002602001820160405280156102b657816020015b60608152602001906001900390816102a15790505b5090505f805b82518160ff161015610409576001600160a01b0385165f9081526001602052604090206002805460ff84169081106102f6576102f6610707565b905f5260205f200160405161030b9190610731565b9081526040519081900360200190205460ff16156103f75760028160ff168154811061033957610339610707565b905f5260205f2001805461034c906106cf565b80601f0160208091040260200160405190810160405280929190818152602001828054610378906106cf565b80156103c35780601f1061039a576101008083540402835291602001916103c3565b820191905f5260205f20905b8154815290600101906020018083116103a657829003601f168201915b5050505050838360ff16815181106103dd576103dd610707565b602002602001018190525081806103f3906107c7565b9250505b80610401816107c7565b9150506102bc565b505f8160ff1667ffffffffffffffff81111561042757610427610608565b60405190808252806020026020018201604052801561045a57816020015b60608152602001906001900390816104455790505b5090505f5b8260ff168160ff1610156104b257838160ff168151811061048257610482610707565b6020026020010151828260ff168151811061049f5761049f610707565b602090810291909101015260010161045f565b50949350505050565b5f816040516104ca919061071b565b9081526040519081900360200190205460ff166105055780604051634f0ffc1b60e01b81526004016104fc91906107f1565b60405180910390fd5b335f90815260016020819052604091829020915190919061052790849061071b565b908152604051908190036020019020805491151560ff1990921691909117905550565b5f81518084528060208401602086015e5f602082860101526020601f19601f83011685010191505092915050565b5f602082016020835280845180835260408501915060408160051b8601019250602086015f5b828110156105cf57603f198786030184526105ba85835161054a565b9450602093840193919091019060010161059e565b50929695505050505050565b5f602082840312156105eb575f80fd5b81356001600160a01b0381168114610601575f80fd5b9392505050565b634e487b7160e01b5f52604160045260245ffd5b5f6020828403121561062c575f80fd5b813567ffffffffffffffff811115610642575f80fd5b8201601f81018413610652575f80fd5b803567ffffffffffffffff81111561066c5761066c610608565b604051601f8201601f19908116603f0116810167ffffffffffffffff8111828210171561069b5761069b610608565b6040528181528282016020018610156106b2575f80fd5b816020840160208301375f91810160200191909152949350505050565b600181811c908216806106e357607f821691505b60208210810361070157634e487b7160e01b5f52602260045260245ffd5b50919050565b634e487b7160e01b5f52603260045260245ffd5b5f82518060208501845e5f920191825250919050565b5f8083545f8160011c9050600182168061074c57607f821691505b60208210810361076a57634e487b7160e01b5f52602260045260245ffd5b80801561077e5760018114610793576105cf565b60ff19841687528215158302870194506105cf565b5f888152602090205f5b848110156107b95781548982015260019091019060200161079d565b505050940195945050505050565b5f60ff821660ff81036107e857634e487b7160e01b5f52601160045260245ffd5b60010192915050565b602081525f610601602083018461054a56fea26469706673582212202c810f3de8acc66a711861fab24aaea3c49f8252111a94f2c58995a53dc1ab1d64736f6c634300081a0033",
					"opcodes": "PUSH1 0x8 PUSH2 0x1A0 SWAP1 DUP2 MSTORE PUSH8 0x2A343934B63632B9 PUSH1 0xC1 SHL PUSH2 0x1C0 MSTORE PUSH1 0x80 SWAP1 DUP2 MSTORE PUSH1 0xD PUSH2 0x1E0 DUP2 DUP2 MSTORE PUSH13 0x4261636B20696E20426C61636B PUSH1 0x98 SHL PUSH2 0x200 MSTORE PUSH1 0xA0 MSTORE PUSH2 0x220 SWAP1 DUP2 MSTORE PUSH13 0x151A1948109BD91E59DD585C99 PUSH1 0x9A SHL PUSH2 0x240 MSTORE PUSH1 0xC0 MSTORE PUSH1 0x19 PUSH2 0x260 SWAP1 DUP2 MSTORE PUSH32 0x546865204461726B2053696465206F6620746865204D6F6F6E00000000000000 PUSH2 0x280 MSTORE PUSH1 0xE0 MSTORE PUSH1 0x1F PUSH2 0x2A0 SWAP1 DUP2 MSTORE PUSH32 0x546865697220477265617465737420486974732028313937312D313937352900 PUSH2 0x2C0 MSTORE PUSH2 0x100 MSTORE PUSH1 0x10 PUSH2 0x2E0 SWAP1 DUP2 MSTORE PUSH16 0x486F74656C2043616C69666F726E6961 PUSH1 0x80 SHL PUSH2 0x300 MSTORE PUSH2 0x120 MSTORE PUSH1 0xC PUSH2 0x320 SWAP1 DUP2 MSTORE PUSH12 0x21B7B6B29027B71027BB32B9 PUSH1 0xA1 SHL PUSH2 0x340 MSTORE PUSH2 0x140 MSTORE PUSH1 0x7 PUSH2 0x360 SWAP1 DUP2 MSTORE PUSH7 0x52756D6F757273 PUSH1 0xC8 SHL PUSH2 0x380 MSTORE PUSH2 0x160 MSTORE PUSH2 0x3E0 PUSH1 0x40 MSTORE PUSH1 0x14 PUSH2 0x3A0 SWAP1 DUP2 MSTORE PUSH32 0x5361747572646179204E69676874204665766572000000000000000000000000 PUSH2 0x3C0 MSTORE PUSH2 0x180 MSTORE PUSH2 0x15F SWAP1 PUSH1 0x2 SWAP1 PUSH1 0x9 PUSH2 0x348 JUMP JUMPDEST POP CALLVALUE DUP1 ISZERO PUSH2 0x16B JUMPI PUSH0 DUP1 REVERT JUMPDEST POP PUSH1 0x1 PUSH0 PUSH1 0x40 MLOAD PUSH2 0x18A SWAP1 PUSH8 0x2A343934B63632B9 PUSH1 0xC1 SHL DUP2 MSTORE PUSH1 0x8 ADD SWAP1 JUMP JUMPDEST SWAP1 DUP2 MSTORE PUSH1 0x40 DUP1 MLOAD SWAP2 DUP3 SWAP1 SUB PUSH1 0x20 ADD DUP3 KECCAK256 DUP1 SLOAD SWAP4 ISZERO ISZERO PUSH1 0xFF NOT SWAP5 DUP6 AND OR SWAP1 SSTORE PUSH13 0x4261636B20696E20426C61636B PUSH1 0x98 SHL DUP3 MSTORE PUSH0 PUSH1 0xD DUP1 DUP5 ADD DUP3 SWAP1 MSTORE DUP3 MLOAD SWAP4 DUP5 SWAP1 SUB PUSH1 0x2D SWAP1 DUP2 ADD DUP6 KECCAK256 DUP1 SLOAD DUP8 AND PUSH1 0x1 SWAP1 DUP2 OR SWAP1 SWAP2 SSTORE PUSH13 0x151A1948109BD91E59DD585C99 PUSH1 0x9A SHL DUP7 MSTORE SWAP2 DUP6 ADD DUP4 SWAP1 MSTORE DUP4 MLOAD SWAP5 DUP6 SWAP1 SUB ADD DUP5 KECCAK256 DUP1 SLOAD DUP7 AND DUP3 OR SWAP1 SSTORE PUSH32 0x546865204461726B2053696465206F6620746865204D6F6F6E00000000000000 DUP5 MSTORE PUSH1 0x19 DUP5 ADD DUP3 SWAP1 MSTORE DUP3 MLOAD SWAP4 DUP5 SWAP1 SUB PUSH1 0x39 ADD DUP5 KECCAK256 DUP1 SLOAD DUP7 AND DUP3 OR SWAP1 SSTORE PUSH32 0x546865697220477265617465737420486974732028313937312D313937352900 DUP5 MSTORE PUSH1 0x1F DUP5 ADD DUP3 SWAP1 MSTORE DUP3 MLOAD SWAP4 DUP5 SWAP1 SUB PUSH1 0x3F ADD DUP5 KECCAK256 DUP1 SLOAD DUP7 AND DUP3 OR SWAP1 SSTORE PUSH16 0x486F74656C2043616C69666F726E6961 PUSH1 0x80 SHL DUP5 MSTORE PUSH1 0x10 DUP5 ADD DUP3 SWAP1 MSTORE DUP3 MLOAD SWAP4 DUP5 SWAP1 SUB PUSH1 0x30 ADD DUP5 KECCAK256 DUP1 SLOAD DUP7 AND DUP3 OR SWAP1 SSTORE PUSH12 0x21B7B6B29027B71027BB32B9 PUSH1 0xA1 SHL DUP5 MSTORE PUSH1 0xC DUP5 ADD DUP3 SWAP1 MSTORE DUP3 MLOAD SWAP4 DUP5 SWAP1 SUB PUSH1 0x2C ADD DUP5 KECCAK256 DUP1 SLOAD DUP7 AND DUP3 OR SWAP1 SSTORE PUSH7 0x52756D6F757273 PUSH1 0xC8 SHL DUP5 MSTORE PUSH1 0x7 DUP5 ADD DUP3 SWAP1 MSTORE DUP3 MLOAD SWAP4 DUP5 SWAP1 SUB PUSH1 0x27 ADD DUP5 KECCAK256 DUP1 SLOAD DUP7 AND DUP3 OR SWAP1 SSTORE PUSH32 0x5361747572646179204E69676874204665766572000000000000000000000000 DUP5 MSTORE PUSH1 0x14 DUP5 ADD SWAP2 SWAP1 SWAP2 MSTORE SWAP1 MLOAD SWAP2 DUP3 SWAP1 SUB PUSH1 0x34 ADD SWAP1 SWAP2 KECCAK256 DUP1 SLOAD SWAP1 SWAP3 AND OR SWAP1 SSTORE PUSH2 0x558 JUMP JUMPDEST DUP3 DUP1 SLOAD DUP3 DUP3 SSTORE SWAP1 PUSH0 MSTORE PUSH1 0x20 PUSH0 KECCAK256 SWAP1 DUP2 ADD SWAP3 DUP3 ISZERO PUSH2 0x38C JUMPI SWAP2 PUSH1 0x20 MUL DUP3 ADD JUMPDEST DUP3 DUP2 GT ISZERO PUSH2 0x38C JUMPI DUP3 MLOAD DUP3 SWAP1 PUSH2 0x37C SWAP1 DUP3 PUSH2 0x49E JUMP JUMPDEST POP SWAP2 PUSH1 0x20 ADD SWAP2 SWAP1 PUSH1 0x1 ADD SWAP1 PUSH2 0x366 JUMP JUMPDEST POP PUSH2 0x398 SWAP3 SWAP2 POP PUSH2 0x39C JUMP JUMPDEST POP SWAP1 JUMP JUMPDEST DUP1 DUP3 GT ISZERO PUSH2 0x398 JUMPI PUSH0 PUSH2 0x3AF DUP3 DUP3 PUSH2 0x3B8 JUMP JUMPDEST POP PUSH1 0x1 ADD PUSH2 0x39C JUMP JUMPDEST POP DUP1 SLOAD PUSH2 0x3C4 SWAP1 PUSH2 0x41A JUMP JUMPDEST PUSH0 DUP3 SSTORE DUP1 PUSH1 0x1F LT PUSH2 0x3D3 JUMPI POP POP JUMP JUMPDEST PUSH1 0x1F ADD PUSH1 0x20 SWAP1 DIV SWAP1 PUSH0 MSTORE PUSH1 0x20 PUSH0 KECCAK256 SWAP1 DUP2 ADD SWAP1 PUSH2 0x3EF SWAP2 SWAP1 PUSH2 0x3F2 JUMP JUMPDEST POP JUMP JUMPDEST JUMPDEST DUP1 DUP3 GT ISZERO PUSH2 0x398 JUMPI PUSH0 DUP2 SSTORE PUSH1 0x1 ADD PUSH2 0x3F3 JUMP JUMPDEST PUSH4 0x4E487B71 PUSH1 0xE0 SHL PUSH0 MSTORE PUSH1 0x41 PUSH1 0x4 MSTORE PUSH1 0x24 PUSH0 REVERT JUMPDEST PUSH1 0x1 DUP2 DUP2 SHR SWAP1 DUP3 AND DUP1 PUSH2 0x42E JUMPI PUSH1 0x7F DUP3 AND SWAP2 POP JUMPDEST PUSH1 0x20 DUP3 LT DUP2 SUB PUSH2 0x44C JUMPI PUSH4 0x4E487B71 PUSH1 0xE0 SHL PUSH0 MSTORE PUSH1 0x22 PUSH1 0x4 MSTORE PUSH1 0x24 PUSH0 REVERT JUMPDEST POP SWAP2 SWAP1 POP JUMP JUMPDEST PUSH1 0x1F DUP3 GT ISZERO PUSH2 0x499 JUMPI DUP1 PUSH0 MSTORE PUSH1 0x20 PUSH0 KECCAK256 PUSH1 0x1F DUP5 ADD PUSH1 0x5 SHR DUP2 ADD PUSH1 0x20 DUP6 LT ISZERO PUSH2 0x477 JUMPI POP DUP1 JUMPDEST PUSH1 0x1F DUP5 ADD PUSH1 0x5 SHR DUP3 ADD SWAP2 POP JUMPDEST DUP2 DUP2 LT ISZERO PUSH2 0x496 JUMPI PUSH0 DUP2 SSTORE PUSH1 0x1 ADD PUSH2 0x483 JUMP JUMPDEST POP POP JUMPDEST POP POP POP JUMP JUMPDEST DUP2 MLOAD PUSH1 0x1 PUSH1 0x1 PUSH1 0x40 SHL SUB DUP2 GT ISZERO PUSH2 0x4B7 JUMPI PUSH2 0x4B7 PUSH2 0x406 JUMP JUMPDEST PUSH2 0x4CB DUP2 PUSH2 0x4C5 DUP5 SLOAD PUSH2 0x41A JUMP JUMPDEST DUP5 PUSH2 0x452 JUMP JUMPDEST PUSH1 0x20 PUSH1 0x1F DUP3 GT PUSH1 0x1 DUP2 EQ PUSH2 0x4FD JUMPI PUSH0 DUP4 ISZERO PUSH2 0x4E6 JUMPI POP DUP5 DUP3 ADD MLOAD JUMPDEST PUSH0 NOT PUSH1 0x3 DUP6 SWAP1 SHL SHR NOT AND PUSH1 0x1 DUP5 SWAP1 SHL OR DUP5 SSTORE PUSH2 0x496 JUMP JUMPDEST PUSH0 DUP5 DUP2 MSTORE PUSH1 0x20 DUP2 KECCAK256 PUSH1 0x1F NOT DUP6 AND SWAP2 JUMPDEST DUP3 DUP2 LT ISZERO PUSH2 0x52C JUMPI DUP8 DUP6 ADD MLOAD DUP3 SSTORE PUSH1 0x20 SWAP5 DUP6 ADD SWAP5 PUSH1 0x1 SWAP1 SWAP3 ADD SWAP2 ADD PUSH2 0x50C JUMP JUMPDEST POP DUP5 DUP3 LT ISZERO PUSH2 0x549 JUMPI DUP7 DUP5 ADD MLOAD PUSH0 NOT PUSH1 0x3 DUP8 SWAP1 SHL PUSH1 0xF8 AND SHR NOT AND DUP2 SSTORE JUMPDEST POP POP POP POP PUSH1 0x1 SWAP1 DUP2 SHL ADD SWAP1 SSTORE POP JUMP JUMPDEST PUSH2 0x839 DUP1 PUSH2 0x565 PUSH0 CODECOPY PUSH0 RETURN INVALID PUSH1 0x80 PUSH1 0x40 MSTORE CALLVALUE DUP1 ISZERO PUSH2 0xF JUMPI PUSH0 DUP1 REVERT JUMPDEST POP PUSH1 0x4 CALLDATASIZE LT PUSH2 0x4A JUMPI PUSH0 CALLDATALOAD PUSH1 0xE0 SHR DUP1 PUSH4 0x1CF0830B EQ PUSH2 0x4E JUMPI DUP1 PUSH4 0x837F8878 EQ PUSH2 0x6C JUMPI DUP1 PUSH4 0xC7853148 EQ PUSH2 0x76 JUMPI DUP1 PUSH4 0xD81AA8C4 EQ PUSH2 0x89 JUMPI JUMPDEST PUSH0 DUP1 REVERT JUMPDEST PUSH2 0x56 PUSH2 0x9C JUMP JUMPDEST PUSH1 0x40 MLOAD PUSH2 0x63 SWAP2 SWAP1 PUSH2 0x578 JUMP JUMPDEST PUSH1 0x40 MLOAD DUP1 SWAP2 SUB SWAP1 RETURN JUMPDEST PUSH2 0x74 PUSH2 0x170 JUMP JUMPDEST STOP JUMPDEST PUSH2 0x56 PUSH2 0x84 CALLDATASIZE PUSH1 0x4 PUSH2 0x5DB JUMP JUMPDEST PUSH2 0x263 JUMP JUMPDEST PUSH2 0x74 PUSH2 0x97 CALLDATASIZE PUSH1 0x4 PUSH2 0x61C JUMP JUMPDEST PUSH2 0x4BB JUMP JUMPDEST PUSH1 0x60 PUSH1 0x2 DUP1 SLOAD DUP1 PUSH1 0x20 MUL PUSH1 0x20 ADD PUSH1 0x40 MLOAD SWAP1 DUP2 ADD PUSH1 0x40 MSTORE DUP1 SWAP3 SWAP2 SWAP1 DUP2 DUP2 MSTORE PUSH1 0x20 ADD PUSH0 SWAP1 JUMPDEST DUP3 DUP3 LT ISZERO PUSH2 0x167 JUMPI DUP4 DUP3 SWAP1 PUSH0 MSTORE PUSH1 0x20 PUSH0 KECCAK256 ADD DUP1 SLOAD PUSH2 0xDC SWAP1 PUSH2 0x6CF JUMP JUMPDEST DUP1 PUSH1 0x1F ADD PUSH1 0x20 DUP1 SWAP2 DIV MUL PUSH1 0x20 ADD PUSH1 0x40 MLOAD SWAP1 DUP2 ADD PUSH1 0x40 MSTORE DUP1 SWAP3 SWAP2 SWAP1 DUP2 DUP2 MSTORE PUSH1 0x20 ADD DUP3 DUP1 SLOAD PUSH2 0x108 SWAP1 PUSH2 0x6CF JUMP JUMPDEST DUP1 ISZERO PUSH2 0x153 JUMPI DUP1 PUSH1 0x1F LT PUSH2 0x12A JUMPI PUSH2 0x100 DUP1 DUP4 SLOAD DIV MUL DUP4 MSTORE SWAP2 PUSH1 0x20 ADD SWAP2 PUSH2 0x153 JUMP JUMPDEST DUP3 ADD SWAP2 SWAP1 PUSH0 MSTORE PUSH1 0x20 PUSH0 KECCAK256 SWAP1 JUMPDEST DUP2 SLOAD DUP2 MSTORE SWAP1 PUSH1 0x1 ADD SWAP1 PUSH1 0x20 ADD DUP1 DUP4 GT PUSH2 0x136 JUMPI DUP3 SWAP1 SUB PUSH1 0x1F AND DUP3 ADD SWAP2 JUMPDEST POP POP POP POP POP DUP2 MSTORE PUSH1 0x20 ADD SWAP1 PUSH1 0x1 ADD SWAP1 PUSH2 0xBF JUMP JUMPDEST POP POP POP POP SWAP1 POP SWAP1 JUMP JUMPDEST PUSH0 JUMPDEST PUSH1 0x9 DUP2 LT ISZERO PUSH2 0x260 JUMPI PUSH0 PUSH1 0x2 DUP3 DUP2 SLOAD DUP2 LT PUSH2 0x18F JUMPI PUSH2 0x18F PUSH2 0x707 JUMP JUMPDEST SWAP1 PUSH0 MSTORE PUSH1 0x20 PUSH0 KECCAK256 ADD DUP1 SLOAD PUSH2 0x1A2 SWAP1 PUSH2 0x6CF JUMP JUMPDEST DUP1 PUSH1 0x1F ADD PUSH1 0x20 DUP1 SWAP2 DIV MUL PUSH1 0x20 ADD PUSH1 0x40 MLOAD SWAP1 DUP2 ADD PUSH1 0x40 MSTORE DUP1 SWAP3 SWAP2 SWAP1 DUP2 DUP2 MSTORE PUSH1 0x20 ADD DUP3 DUP1 SLOAD PUSH2 0x1CE SWAP1 PUSH2 0x6CF JUMP JUMPDEST DUP1 ISZERO PUSH2 0x219 JUMPI DUP1 PUSH1 0x1F LT PUSH2 0x1F0 JUMPI PUSH2 0x100 DUP1 DUP4 SLOAD DIV MUL DUP4 MSTORE SWAP2 PUSH1 0x20 ADD SWAP2 PUSH2 0x219 JUMP JUMPDEST DUP3 ADD SWAP2 SWAP1 PUSH0 MSTORE PUSH1 0x20 PUSH0 KECCAK256 SWAP1 JUMPDEST DUP2 SLOAD DUP2 MSTORE SWAP1 PUSH1 0x1 ADD SWAP1 PUSH1 0x20 ADD DUP1 DUP4 GT PUSH2 0x1FC JUMPI DUP3 SWAP1 SUB PUSH1 0x1F AND DUP3 ADD SWAP2 JUMPDEST POP POP CALLER PUSH0 SWAP1 DUP2 MSTORE PUSH1 0x1 PUSH1 0x20 MSTORE PUSH1 0x40 SWAP1 DUP2 SWAP1 KECCAK256 SWAP1 MLOAD SWAP5 SWAP6 POP SWAP4 PUSH2 0x240 SWAP4 POP DUP6 SWAP3 POP SWAP1 POP PUSH2 0x71B JUMP JUMPDEST SWAP1 DUP2 MSTORE PUSH1 0x40 MLOAD SWAP1 DUP2 SWAP1 SUB PUSH1 0x20 ADD SWAP1 KECCAK256 DUP1 SLOAD PUSH1 0xFF NOT AND SWAP1 SSTORE POP PUSH1 0x1 ADD PUSH2 0x172 JUMP JUMPDEST POP JUMP JUMPDEST PUSH1 0x2 SLOAD PUSH1 0x60 SWAP1 PUSH0 SWAP1 PUSH8 0xFFFFFFFFFFFFFFFF DUP2 GT ISZERO PUSH2 0x283 JUMPI PUSH2 0x283 PUSH2 0x608 JUMP JUMPDEST PUSH1 0x40 MLOAD SWAP1 DUP1 DUP3 MSTORE DUP1 PUSH1 0x20 MUL PUSH1 0x20 ADD DUP3 ADD PUSH1 0x40 MSTORE DUP1 ISZERO PUSH2 0x2B6 JUMPI DUP2 PUSH1 0x20 ADD JUMPDEST PUSH1 0x60 DUP2 MSTORE PUSH1 0x20 ADD SWAP1 PUSH1 0x1 SWAP1 SUB SWAP1 DUP2 PUSH2 0x2A1 JUMPI SWAP1 POP JUMPDEST POP SWAP1 POP PUSH0 DUP1 JUMPDEST DUP3 MLOAD DUP2 PUSH1 0xFF AND LT ISZERO PUSH2 0x409 JUMPI PUSH1 0x1 PUSH1 0x1 PUSH1 0xA0 SHL SUB DUP6 AND PUSH0 SWAP1 DUP2 MSTORE PUSH1 0x1 PUSH1 0x20 MSTORE PUSH1 0x40 SWAP1 KECCAK256 PUSH1 0x2 DUP1 SLOAD PUSH1 0xFF DUP5 AND SWAP1 DUP2 LT PUSH2 0x2F6 JUMPI PUSH2 0x2F6 PUSH2 0x707 JUMP JUMPDEST SWAP1 PUSH0 MSTORE PUSH1 0x20 PUSH0 KECCAK256 ADD PUSH1 0x40 MLOAD PUSH2 0x30B SWAP2 SWAP1 PUSH2 0x731 JUMP JUMPDEST SWAP1 DUP2 MSTORE PUSH1 0x40 MLOAD SWAP1 DUP2 SWAP1 SUB PUSH1 0x20 ADD SWAP1 KECCAK256 SLOAD PUSH1 0xFF AND ISZERO PUSH2 0x3F7 JUMPI PUSH1 0x2 DUP2 PUSH1 0xFF AND DUP2 SLOAD DUP2 LT PUSH2 0x339 JUMPI PUSH2 0x339 PUSH2 0x707 JUMP JUMPDEST SWAP1 PUSH0 MSTORE PUSH1 0x20 PUSH0 KECCAK256 ADD DUP1 SLOAD PUSH2 0x34C SWAP1 PUSH2 0x6CF JUMP JUMPDEST DUP1 PUSH1 0x1F ADD PUSH1 0x20 DUP1 SWAP2 DIV MUL PUSH1 0x20 ADD PUSH1 0x40 MLOAD SWAP1 DUP2 ADD PUSH1 0x40 MSTORE DUP1 SWAP3 SWAP2 SWAP1 DUP2 DUP2 MSTORE PUSH1 0x20 ADD DUP3 DUP1 SLOAD PUSH2 0x378 SWAP1 PUSH2 0x6CF JUMP JUMPDEST DUP1 ISZERO PUSH2 0x3C3 JUMPI DUP1 PUSH1 0x1F LT PUSH2 0x39A JUMPI PUSH2 0x100 DUP1 DUP4 SLOAD DIV MUL DUP4 MSTORE SWAP2 PUSH1 0x20 ADD SWAP2 PUSH2 0x3C3 JUMP JUMPDEST DUP3 ADD SWAP2 SWAP1 PUSH0 MSTORE PUSH1 0x20 PUSH0 KECCAK256 SWAP1 JUMPDEST DUP2 SLOAD DUP2 MSTORE SWAP1 PUSH1 0x1 ADD SWAP1 PUSH1 0x20 ADD DUP1 DUP4 GT PUSH2 0x3A6 JUMPI DUP3 SWAP1 SUB PUSH1 0x1F AND DUP3 ADD SWAP2 JUMPDEST POP POP POP POP POP DUP4 DUP4 PUSH1 0xFF AND DUP2 MLOAD DUP2 LT PUSH2 0x3DD JUMPI PUSH2 0x3DD PUSH2 0x707 JUMP JUMPDEST PUSH1 0x20 MUL PUSH1 0x20 ADD ADD DUP2 SWAP1 MSTORE POP DUP2 DUP1 PUSH2 0x3F3 SWAP1 PUSH2 0x7C7 JUMP JUMPDEST SWAP3 POP POP JUMPDEST DUP1 PUSH2 0x401 DUP2 PUSH2 0x7C7 JUMP JUMPDEST SWAP2 POP POP PUSH2 0x2BC JUMP JUMPDEST POP PUSH0 DUP2 PUSH1 0xFF AND PUSH8 0xFFFFFFFFFFFFFFFF DUP2 GT ISZERO PUSH2 0x427 JUMPI PUSH2 0x427 PUSH2 0x608 JUMP JUMPDEST PUSH1 0x40 MLOAD SWAP1 DUP1 DUP3 MSTORE DUP1 PUSH1 0x20 MUL PUSH1 0x20 ADD DUP3 ADD PUSH1 0x40 MSTORE DUP1 ISZERO PUSH2 0x45A JUMPI DUP2 PUSH1 0x20 ADD JUMPDEST PUSH1 0x60 DUP2 MSTORE PUSH1 0x20 ADD SWAP1 PUSH1 0x1 SWAP1 SUB SWAP1 DUP2 PUSH2 0x445 JUMPI SWAP1 POP JUMPDEST POP SWAP1 POP PUSH0 JUMPDEST DUP3 PUSH1 0xFF AND DUP2 PUSH1 0xFF AND LT ISZERO PUSH2 0x4B2 JUMPI DUP4 DUP2 PUSH1 0xFF AND DUP2 MLOAD DUP2 LT PUSH2 0x482 JUMPI PUSH2 0x482 PUSH2 0x707 JUMP JUMPDEST PUSH1 0x20 MUL PUSH1 0x20 ADD ADD MLOAD DUP3 DUP3 PUSH1 0xFF AND DUP2 MLOAD DUP2 LT PUSH2 0x49F JUMPI PUSH2 0x49F PUSH2 0x707 JUMP JUMPDEST PUSH1 0x20 SWAP1 DUP2 MUL SWAP2 SWAP1 SWAP2 ADD ADD MSTORE PUSH1 0x1 ADD PUSH2 0x45F JUMP JUMPDEST POP SWAP5 SWAP4 POP POP POP POP JUMP JUMPDEST PUSH0 DUP2 PUSH1 0x40 MLOAD PUSH2 0x4CA SWAP2 SWAP1 PUSH2 0x71B JUMP JUMPDEST SWAP1 DUP2 MSTORE PUSH1 0x40 MLOAD SWAP1 DUP2 SWAP1 SUB PUSH1 0x20 ADD SWAP1 KECCAK256 SLOAD PUSH1 0xFF AND PUSH2 0x505 JUMPI DUP1 PUSH1 0x40 MLOAD PUSH4 0x4F0FFC1B PUSH1 0xE0 SHL DUP2 MSTORE PUSH1 0x4 ADD PUSH2 0x4FC SWAP2 SWAP1 PUSH2 0x7F1 JUMP JUMPDEST PUSH1 0x40 MLOAD DUP1 SWAP2 SUB SWAP1 REVERT JUMPDEST CALLER PUSH0 SWAP1 DUP2 MSTORE PUSH1 0x1 PUSH1 0x20 DUP2 SWAP1 MSTORE PUSH1 0x40 SWAP2 DUP3 SWAP1 KECCAK256 SWAP2 MLOAD SWAP1 SWAP2 SWAP1 PUSH2 0x527 SWAP1 DUP5 SWAP1 PUSH2 0x71B JUMP JUMPDEST SWAP1 DUP2 MSTORE PUSH1 0x40 MLOAD SWAP1 DUP2 SWAP1 SUB PUSH1 0x20 ADD SWAP1 KECCAK256 DUP1 SLOAD SWAP2 ISZERO ISZERO PUSH1 0xFF NOT SWAP1 SWAP3 AND SWAP2 SWAP1 SWAP2 OR SWAP1 SSTORE POP JUMP JUMPDEST PUSH0 DUP2 MLOAD DUP1 DUP5 MSTORE DUP1 PUSH1 0x20 DUP5 ADD PUSH1 0x20 DUP7 ADD MCOPY PUSH0 PUSH1 0x20 DUP3 DUP7 ADD ADD MSTORE PUSH1 0x20 PUSH1 0x1F NOT PUSH1 0x1F DUP4 ADD AND DUP6 ADD ADD SWAP2 POP POP SWAP3 SWAP2 POP POP JUMP JUMPDEST PUSH0 PUSH1 0x20 DUP3 ADD PUSH1 0x20 DUP4 MSTORE DUP1 DUP5 MLOAD DUP1 DUP4 MSTORE PUSH1 0x40 DUP6 ADD SWAP2 POP PUSH1 0x40 DUP2 PUSH1 0x5 SHL DUP7 ADD ADD SWAP3 POP PUSH1 0x20 DUP7 ADD PUSH0 JUMPDEST DUP3 DUP2 LT ISZERO PUSH2 0x5CF JUMPI PUSH1 0x3F NOT DUP8 DUP7 SUB ADD DUP5 MSTORE PUSH2 0x5BA DUP6 DUP4 MLOAD PUSH2 0x54A JUMP JUMPDEST SWAP5 POP PUSH1 0x20 SWAP4 DUP5 ADD SWAP4 SWAP2 SWAP1 SWAP2 ADD SWAP1 PUSH1 0x1 ADD PUSH2 0x59E JUMP JUMPDEST POP SWAP3 SWAP7 SWAP6 POP POP POP POP POP POP JUMP JUMPDEST PUSH0 PUSH1 0x20 DUP3 DUP5 SUB SLT ISZERO PUSH2 0x5EB JUMPI PUSH0 DUP1 REVERT JUMPDEST DUP2 CALLDATALOAD PUSH1 0x1 PUSH1 0x1 PUSH1 0xA0 SHL SUB DUP2 AND DUP2 EQ PUSH2 0x601 JUMPI PUSH0 DUP1 REVERT JUMPDEST SWAP4 SWAP3 POP POP POP JUMP JUMPDEST PUSH4 0x4E487B71 PUSH1 0xE0 SHL PUSH0 MSTORE PUSH1 0x41 PUSH1 0x4 MSTORE PUSH1 0x24 PUSH0 REVERT JUMPDEST PUSH0 PUSH1 0x20 DUP3 DUP5 SUB SLT ISZERO PUSH2 0x62C JUMPI PUSH0 DUP1 REVERT JUMPDEST DUP2 CALLDATALOAD PUSH8 0xFFFFFFFFFFFFFFFF DUP2 GT ISZERO PUSH2 0x642 JUMPI PUSH0 DUP1 REVERT JUMPDEST DUP3 ADD PUSH1 0x1F DUP2 ADD DUP5 SGT PUSH2 0x652 JUMPI PUSH0 DUP1 REVERT JUMPDEST DUP1 CALLDATALOAD PUSH8 0xFFFFFFFFFFFFFFFF DUP2 GT ISZERO PUSH2 0x66C JUMPI PUSH2 0x66C PUSH2 0x608 JUMP JUMPDEST PUSH1 0x40 MLOAD PUSH1 0x1F DUP3 ADD PUSH1 0x1F NOT SWAP1 DUP2 AND PUSH1 0x3F ADD AND DUP2 ADD PUSH8 0xFFFFFFFFFFFFFFFF DUP2 GT DUP3 DUP3 LT OR ISZERO PUSH2 0x69B JUMPI PUSH2 0x69B PUSH2 0x608 JUMP JUMPDEST PUSH1 0x40 MSTORE DUP2 DUP2 MSTORE DUP3 DUP3 ADD PUSH1 0x20 ADD DUP7 LT ISZERO PUSH2 0x6B2 JUMPI PUSH0 DUP1 REVERT JUMPDEST DUP2 PUSH1 0x20 DUP5 ADD PUSH1 0x20 DUP4 ADD CALLDATACOPY PUSH0 SWAP2 DUP2 ADD PUSH1 0x20 ADD SWAP2 SWAP1 SWAP2 MSTORE SWAP5 SWAP4 POP POP POP POP JUMP JUMPDEST PUSH1 0x1 DUP2 DUP2 SHR SWAP1 DUP3 AND DUP1 PUSH2 0x6E3 JUMPI PUSH1 0x7F DUP3 AND SWAP2 POP JUMPDEST PUSH1 0x20 DUP3 LT DUP2 SUB PUSH2 0x701 JUMPI PUSH4 0x4E487B71 PUSH1 0xE0 SHL PUSH0 MSTORE PUSH1 0x22 PUSH1 0x4 MSTORE PUSH1 0x24 PUSH0 REVERT JUMPDEST POP SWAP2 SWAP1 POP JUMP JUMPDEST PUSH4 0x4E487B71 PUSH1 0xE0 SHL PUSH0 MSTORE PUSH1 0x32 PUSH1 0x4 MSTORE PUSH1 0x24 PUSH0 REVERT JUMPDEST PUSH0 DUP3 MLOAD DUP1 PUSH1 0x20 DUP6 ADD DUP5 MCOPY PUSH0 SWAP3 ADD SWAP2 DUP3 MSTORE POP SWAP2 SWAP1 POP JUMP JUMPDEST PUSH0 DUP1 DUP4 SLOAD PUSH0 DUP2 PUSH1 0x1 SHR SWAP1 POP PUSH1 0x1 DUP3 AND DUP1 PUSH2 0x74C JUMPI PUSH1 0x7F DUP3 AND SWAP2 POP JUMPDEST PUSH1 0x20 DUP3 LT DUP2 SUB PUSH2 0x76A JUMPI PUSH4 0x4E487B71 PUSH1 0xE0 SHL PUSH0 MSTORE PUSH1 0x22 PUSH1 0x4 MSTORE PUSH1 0x24 PUSH0 REVERT JUMPDEST DUP1 DUP1 ISZERO PUSH2 0x77E JUMPI PUSH1 0x1 DUP2 EQ PUSH2 0x793 JUMPI PUSH2 0x5CF JUMP JUMPDEST PUSH1 0xFF NOT DUP5 AND DUP8 MSTORE DUP3 ISZERO ISZERO DUP4 MUL DUP8 ADD SWAP5 POP PUSH2 0x5CF JUMP JUMPDEST PUSH0 DUP9 DUP2 MSTORE PUSH1 0x20 SWAP1 KECCAK256 PUSH0 JUMPDEST DUP5 DUP2 LT ISZERO PUSH2 0x7B9 JUMPI DUP2 SLOAD DUP10 DUP3 ADD MSTORE PUSH1 0x1 SWAP1 SWAP2 ADD SWAP1 PUSH1 0x20 ADD PUSH2 0x79D JUMP JUMPDEST POP POP POP SWAP5 ADD SWAP6 SWAP5 POP POP POP POP POP JUMP JUMPDEST PUSH0 PUSH1 0xFF DUP3 AND PUSH1 0xFF DUP2 SUB PUSH2 0x7E8 JUMPI PUSH4 0x4E487B71 PUSH1 0xE0 SHL PUSH0 MSTORE PUSH1 0x11 PUSH1 0x4 MSTORE PUSH1 0x24 PUSH0 REVERT JUMPDEST PUSH1 0x1 ADD SWAP3 SWAP2 POP POP JUMP JUMPDEST PUSH1 0x20 DUP2 MSTORE PUSH0 PUSH2 0x601 PUSH1 0x20 DUP4 ADD DUP5 PUSH2 0x54A JUMP INVALID LOG2 PUSH5 0x6970667358 0x22 SLT KECCAK256 0x2C DUP2 0xF RETURNDATASIZE 0xE8 0xAC 0xC6 PUSH11 0x711861FAB24AAEA3C49F82 MSTORE GT BYTE SWAP5 CALLCODE 0xC5 DUP10 SWAP6 0xA5 RETURNDATASIZE 0xC1 0xAB SAR PUSH5 0x736F6C6343 STOP ADDMOD BYTE STOP CALLER "
				},
				"gasEstimates": {
					"creation": {
						"codeDepositCost": "421000",
						"executionCost": "infinite",
						"totalCost": "infinite"
					},
					"external": {
						"addRecord(string)": "infinite",
						"getApprovedRecords()": "infinite",
						"getUserFavorites(address)": "infinite",
						"resetUserFavorites()": "infinite"
					}
				},
				"methodIdentifiers": {
					"addRecord(string)": "d81aa8c4",
					"getApprovedRecords()": "1cf0830b",
					"getUserFavorites(address)": "c7853148",
					"resetUserFavorites()": "837f8878"
				}
			},
			"storageLayout": {
				"storage": [
					{
						"astId": 5,
						"contract": "contracts/MapAddrs.sol:FavoriteRecords",
						"label": "approvedRecords",
						"offset": 0,
						"slot": "0",
						"type": "t_mapping(t_string_memory_ptr,t_bool)"
					},
					{
						"astId": 11,
						"contract": "contracts/MapAddrs.sol:FavoriteRecords",
						"label": "userFavorites",
						"offset": 0,
						"slot": "1",
						"type": "t_mapping(t_address,t_mapping(t_string_memory_ptr,t_bool))"
					},
					{
						"astId": 86,
						"contract": "contracts/MapAddrs.sol:FavoriteRecords",
						"label": "approvedRecordsList",
						"offset": 0,
						"slot": "2",
						"type": "t_array(t_string_storage)dyn_storage"
					}
				],
				"types": {
					"t_address": {
						"encoding": "inplace",
						"label": "address",
						"numberOfBytes": "20"
					},
					"t_array(t_string_storage)dyn_storage": {
						"base": "t_string_storage",
						"encoding": "dynamic_array",
						"label": "string[]",
						"numberOfBytes": "32"
					},
					"t_bool": {
						"encoding": "inplace",
						"label": "bool",
						"numberOfBytes": "1"
					},
					"t_mapping(t_address,t_mapping(t_string_memory_ptr,t_bool))": {
						"encoding": "mapping",
						"key": "t_address",
						"label": "mapping(address => mapping(string => bool))",
						"numberOfBytes": "32",
						"value": "t_mapping(t_string_memory_ptr,t_bool)"
					},
					"t_mapping(t_string_memory_ptr,t_bool)": {
						"encoding": "mapping",
						"key": "t_string_memory_ptr",
						"label": "mapping(string => bool)",
						"numberOfBytes": "32",
						"value": "t_bool"
					},
					"t_string_memory_ptr": {
						"encoding": "bytes",
						"label": "string",
						"numberOfBytes": "32"
					},
					"t_string_storage": {
						"encoding": "bytes",
						"label": "string",
						"numberOfBytes": "32"
					}
				}
			},
			"userdoc": {
				"kind": "user",
				"methods": {},
				"version": 1
			}
		}
	}
}