{
	"contracts/testWalk.sol": {
		"TestNameCollect": {
			"abi": [
				{
					"inputs": [
						{
							"internalType": "string",
							"name": "",
							"type": "string"
						}
					],
					"name": "RevertWithme",
					"type": "error"
				},
				{
					"inputs": [
						{
							"internalType": "string",
							"name": "_name",
							"type": "string"
						},
						{
							"internalType": "uint8",
							"name": "_age",
							"type": "uint8"
						}
					],
					"name": "addEachPerson",
					"outputs": [],
					"stateMutability": "nonpayable",
					"type": "function"
				},
				{
					"inputs": [
						{
							"internalType": "address",
							"name": "userAddress",
							"type": "address"
						}
					],
					"name": "showPeople",
					"outputs": [
						{
							"internalType": "string",
							"name": "",
							"type": "string"
						},
						{
							"internalType": "uint8",
							"name": "",
							"type": "uint8"
						}
					],
					"stateMutability": "view",
					"type": "function"
				}
			],
			"devdoc": {
				"kind": "dev",
				"methods": {},
				"version": 1
			},
			"evm": {
				"assembly": "    /* \"contracts/testWalk.sol\":57:904  contract TestNameCollect{... */\n  mstore(0x40, 0x80)\n  callvalue\n  dup1\n  iszero\n  tag_1\n  jumpi\n  0x00\n  dup1\n  revert\ntag_1:\n  pop\n  dataSize(sub_0)\n  dup1\n  dataOffset(sub_0)\n  0x00\n  codecopy\n  0x00\n  return\nstop\n\nsub_0: assembly {\n        /* \"contracts/testWalk.sol\":57:904  contract TestNameCollect{... */\n      mstore(0x40, 0x80)\n      callvalue\n      dup1\n      iszero\n      tag_1\n      jumpi\n      0x00\n      dup1\n      revert\n    tag_1:\n      pop\n      jumpi(tag_2, lt(calldatasize, 0x04))\n      shr(0xe0, calldataload(0x00))\n      dup1\n      0x29c8dc19\n      eq\n      tag_3\n      jumpi\n      dup1\n      0x79d3fbc9\n      eq\n      tag_4\n      jumpi\n    tag_2:\n      0x00\n      dup1\n      revert\n        /* \"contracts/testWalk.sol\":401:902  function showPeople(address userAddress) external view returns(string memory, uint8) {... */\n    tag_3:\n      tag_5\n      tag_6\n      calldatasize\n      0x04\n      tag_7\n      jump\t// in\n    tag_6:\n      tag_8\n      jump\t// in\n    tag_5:\n      mload(0x40)\n      tag_9\n      swap3\n      swap2\n      swap1\n      tag_10\n      jump\t// in\n    tag_9:\n      mload(0x40)\n      dup1\n      swap2\n      sub\n      swap1\n      return\n        /* \"contracts/testWalk.sol\":236:396  function addEachPerson(string memory _name, uint8 _age ) external {... */\n    tag_4:\n      tag_11\n      tag_12\n      calldatasize\n      0x04\n      tag_13\n      jump\t// in\n    tag_12:\n      tag_14\n      jump\t// in\n    tag_11:\n      stop\n        /* \"contracts/testWalk.sol\":401:902  function showPeople(address userAddress) external view returns(string memory, uint8) {... */\n    tag_8:\n      sub(shl(0xa0, 0x01), 0x01)\n        /* \"contracts/testWalk.sol\":646:675  ListStoredPeople[userAddress] */\n      dup2\n      and\n        /* \"contracts/testWalk.sol\":479:484  uint8 */\n      0x00\n        /* \"contracts/testWalk.sol\":646:675  ListStoredPeople[userAddress] */\n      swap1\n      dup2\n      mstore\n      0x20\n      dup2\n      swap1\n      mstore\n      0x40\n      dup2\n      keccak256\n        /* \"contracts/testWalk.sol\":646:682  ListStoredPeople[userAddress].length */\n      sload\n        /* \"contracts/testWalk.sol\":464:477  string memory */\n      0x60\n      swap2\n        /* \"contracts/testWalk.sol\":479:484  uint8 */\n      swap1\n        /* \"contracts/testWalk.sol\":643:735  if(ListStoredPeople[userAddress].length<=0){... */\n      tag_16\n      jumpi\n        /* \"contracts/testWalk.sol\":700:724  revert(\"User not found\") */\n      mload(0x40)\n      shl(0xe5, 0x461bcd)\n      dup2\n      mstore\n        /* \"#utility.yul\":2335:2337   */\n      0x20\n        /* \"contracts/testWalk.sol\":700:724  revert(\"User not found\") */\n      0x04\n      dup3\n      add\n        /* \"#utility.yul\":2317:2338   */\n      mstore\n        /* \"#utility.yul\":2374:2376   */\n      0x0e\n        /* \"#utility.yul\":2354:2372   */\n      0x24\n      dup3\n      add\n        /* \"#utility.yul\":2347:2377   */\n      mstore\n      shl(0x92, 0x155cd95c881b9bdd08199bdd5b99)\n        /* \"#utility.yul\":2393:2411   */\n      0x44\n      dup3\n      add\n        /* \"#utility.yul\":2386:2430   */\n      mstore\n        /* \"#utility.yul\":2447:2465   */\n      0x64\n      add\n        /* \"contracts/testWalk.sol\":700:724  revert(\"User not found\") */\n      mload(0x40)\n      dup1\n      swap2\n      sub\n      swap1\n      revert\n        /* \"contracts/testWalk.sol\":643:735  if(ListStoredPeople[userAddress].length<=0){... */\n    tag_16:\n      sub(shl(0xa0, 0x01), 0x01)\n        /* \"contracts/testWalk.sol\":758:787  ListStoredPeople[userAddress] */\n      dup4\n      and\n        /* \"contracts/testWalk.sol\":744:757  uint8 ageHere */\n      0x00\n        /* \"contracts/testWalk.sol\":758:787  ListStoredPeople[userAddress] */\n      swap1\n      dup2\n      mstore\n      0x20\n      dup2\n      swap1\n      mstore\n      0x40\n      dup2\n      keccak256\n        /* \"contracts/testWalk.sol\":758:790  ListStoredPeople[userAddress][0] */\n      dup1\n      sload\n        /* \"contracts/testWalk.sol\":744:757  uint8 ageHere */\n      dup3\n      swap1\n        /* \"contracts/testWalk.sol\":758:790  ListStoredPeople[userAddress][0] */\n      tag_20\n      jumpi\n      tag_20\n      tag_21\n      jump\t// in\n    tag_20:\n      0x00\n      swap2\n      dup3\n      mstore\n      0x20\n      dup1\n      dup4\n      keccak256\n        /* \"contracts/testWalk.sol\":758:794  ListStoredPeople[userAddress][0].age */\n      0x01\n        /* \"contracts/testWalk.sol\":758:790  ListStoredPeople[userAddress][0] */\n      0x02\n      swap1\n      swap4\n      mul\n      add\n        /* \"contracts/testWalk.sol\":758:794  ListStoredPeople[userAddress][0].age */\n      swap2\n      swap1\n      swap2\n      add\n      sload\n      sub(shl(0xa0, 0x01), 0x01)\n        /* \"contracts/testWalk.sol\":823:852  ListStoredPeople[userAddress] */\n      dup8\n      and\n      dup4\n      mstore\n      swap1\n      dup3\n      swap1\n      mstore\n      0x40\n      dup3\n      keccak256\n        /* \"contracts/testWalk.sol\":823:855  ListStoredPeople[userAddress][0] */\n      dup1\n      sload\n        /* \"contracts/testWalk.sol\":758:794  ListStoredPeople[userAddress][0].age */\n      0xff\n      swap1\n      swap3\n      and\n      swap4\n      pop\n        /* \"contracts/testWalk.sol\":823:852  ListStoredPeople[userAddress] */\n      swap1\n        /* \"contracts/testWalk.sol\":758:790  ListStoredPeople[userAddress][0] */\n      dup3\n      swap1\n        /* \"contracts/testWalk.sol\":823:855  ListStoredPeople[userAddress][0] */\n      tag_24\n      jumpi\n      tag_24\n      tag_21\n      jump\t// in\n    tag_24:\n      swap1\n      0x00\n      mstore\n      keccak256(0x00, 0x20)\n      swap1\n      0x02\n      mul\n      add\n        /* \"contracts/testWalk.sol\":823:860  ListStoredPeople[userAddress][0].name */\n      0x00\n      add\n        /* \"contracts/testWalk.sol\":804:860  string memory nmae=ListStoredPeople[userAddress][0].name */\n      dup1\n      sload\n      tag_26\n      swap1\n      tag_27\n      jump\t// in\n    tag_26:\n      dup1\n      0x1f\n      add\n      0x20\n      dup1\n      swap2\n      div\n      mul\n      0x20\n      add\n      mload(0x40)\n      swap1\n      dup2\n      add\n      0x40\n      mstore\n      dup1\n      swap3\n      swap2\n      swap1\n      dup2\n      dup2\n      mstore\n      0x20\n      add\n      dup3\n      dup1\n      sload\n      tag_28\n      swap1\n      tag_27\n      jump\t// in\n    tag_28:\n      dup1\n      iszero\n      tag_29\n      jumpi\n      dup1\n      0x1f\n      lt\n      tag_30\n      jumpi\n      0x0100\n      dup1\n      dup4\n      sload\n      div\n      mul\n      dup4\n      mstore\n      swap2\n      0x20\n      add\n      swap2\n      jump(tag_29)\n    tag_30:\n      dup3\n      add\n      swap2\n      swap1\n      0x00\n      mstore\n      keccak256(0x00, 0x20)\n      swap1\n    tag_31:\n      dup2\n      sload\n      dup2\n      mstore\n      swap1\n      0x01\n      add\n      swap1\n      0x20\n      add\n      dup1\n      dup4\n      gt\n      tag_31\n      jumpi\n      dup3\n      swap1\n      sub\n      0x1f\n      and\n      dup3\n      add\n      swap2\n    tag_29:\n      pop\n      swap4\n      swap10\n        /* \"contracts/testWalk.sol\":886:893  ageHere */\n      swap6\n      swap9\n      pop\n        /* \"contracts/testWalk.sol\":401:902  function showPeople(address userAddress) external view returns(string memory, uint8) {... */\n      swap5\n      swap7\n      pop\n      pop\n      pop\n      pop\n      pop\n      pop\n      pop\n      jump\t// out\n        /* \"contracts/testWalk.sol\":236:396  function addEachPerson(string memory _name, uint8 _age ) external {... */\n    tag_14:\n        /* \"contracts/testWalk.sol\":329:339  msg.sender */\n      caller\n        /* \"contracts/testWalk.sol\":312:328  ListStoredPeople */\n      0x00\n        /* \"contracts/testWalk.sol\":312:340  ListStoredPeople[msg.sender] */\n      swap1\n      dup2\n      mstore\n      0x20\n      dup2\n      dup2\n      mstore\n      0x40\n      dup1\n      dup4\n      keccak256\n        /* \"contracts/testWalk.sol\":359:379  Person(_name, _age ) */\n      dup2\n      mload\n      dup1\n      dup4\n      add\n      swap1\n      swap3\n      mstore\n      dup6\n      dup3\n      mstore\n      0xff\n      dup6\n      and\n      dup3\n      dup5\n      add\n      mstore\n        /* \"contracts/testWalk.sol\":312:389  ListStoredPeople[msg.sender].push(... */\n      dup1\n      sload\n      0x01\n      dup2\n      add\n      dup3\n      sstore\n      swap1\n      dup5\n      mstore\n      swap2\n      swap1\n      swap3\n      keccak256\n      dup3\n      mload\n      0x02\n      swap1\n      swap3\n      mul\n      add\n      swap1\n      dup2\n      swap1\n      tag_34\n      swap1\n      dup3\n      tag_35\n      jump\t// in\n    tag_34:\n      pop\n      0x20\n      swap2\n      swap1\n      swap2\n      add\n      mload\n      0x01\n      swap1\n      swap2\n      add\n      dup1\n      sload\n      not(0xff)\n      and\n      0xff\n      swap1\n      swap3\n      and\n      swap2\n      swap1\n      swap2\n      or\n      swap1\n      sstore\n      pop\n      pop\n        /* \"contracts/testWalk.sol\":236:396  function addEachPerson(string memory _name, uint8 _age ) external {... */\n      jump\t// out\n        /* \"#utility.yul\":14:300   */\n    tag_7:\n        /* \"#utility.yul\":73:79   */\n      0x00\n        /* \"#utility.yul\":126:128   */\n      0x20\n        /* \"#utility.yul\":114:123   */\n      dup3\n        /* \"#utility.yul\":105:112   */\n      dup5\n        /* \"#utility.yul\":101:124   */\n      sub\n        /* \"#utility.yul\":97:129   */\n      slt\n        /* \"#utility.yul\":94:146   */\n      iszero\n      tag_43\n      jumpi\n        /* \"#utility.yul\":142:143   */\n      0x00\n        /* \"#utility.yul\":139:140   */\n      dup1\n        /* \"#utility.yul\":132:144   */\n      revert\n        /* \"#utility.yul\":94:146   */\n    tag_43:\n        /* \"#utility.yul\":168:191   */\n      dup2\n      calldataload\n      sub(shl(0xa0, 0x01), 0x01)\n        /* \"#utility.yul\":220:251   */\n      dup2\n      and\n        /* \"#utility.yul\":210:252   */\n      dup2\n      eq\n        /* \"#utility.yul\":200:270   */\n      tag_44\n      jumpi\n        /* \"#utility.yul\":266:267   */\n      0x00\n        /* \"#utility.yul\":263:264   */\n      dup1\n        /* \"#utility.yul\":256:268   */\n      revert\n        /* \"#utility.yul\":200:270   */\n    tag_44:\n        /* \"#utility.yul\":289:294   */\n      swap4\n        /* \"#utility.yul\":14:300   */\n      swap3\n      pop\n      pop\n      pop\n      jump\t// out\n        /* \"#utility.yul\":305:805   */\n    tag_10:\n        /* \"#utility.yul\":478:480   */\n      0x40\n        /* \"#utility.yul\":467:476   */\n      dup2\n        /* \"#utility.yul\":460:481   */\n      mstore\n        /* \"#utility.yul\":441:445   */\n      0x00\n        /* \"#utility.yul\":510:516   */\n      dup4\n        /* \"#utility.yul\":504:517   */\n      mload\n        /* \"#utility.yul\":553:559   */\n      dup1\n        /* \"#utility.yul\":548:550   */\n      0x40\n        /* \"#utility.yul\":537:546   */\n      dup5\n        /* \"#utility.yul\":533:551   */\n      add\n        /* \"#utility.yul\":526:560   */\n      mstore\n        /* \"#utility.yul\":614:620   */\n      dup1\n        /* \"#utility.yul\":607:611   */\n      0x20\n        /* \"#utility.yul\":599:605   */\n      dup7\n        /* \"#utility.yul\":595:612   */\n      add\n        /* \"#utility.yul\":590:592   */\n      0x60\n        /* \"#utility.yul\":579:588   */\n      dup6\n        /* \"#utility.yul\":575:593   */\n      add\n        /* \"#utility.yul\":569:621   */\n      mcopy\n        /* \"#utility.yul\":670:671   */\n      0x00\n        /* \"#utility.yul\":665:667   */\n      0x60\n        /* \"#utility.yul\":656:662   */\n      dup3\n        /* \"#utility.yul\":645:654   */\n      dup6\n        /* \"#utility.yul\":641:663   */\n      add\n        /* \"#utility.yul\":637:668   */\n      add\n        /* \"#utility.yul\":630:672   */\n      mstore\n        /* \"#utility.yul\":740:742   */\n      0x60\n        /* \"#utility.yul\":733:735   */\n      0x1f\n        /* \"#utility.yul\":729:736   */\n      not\n        /* \"#utility.yul\":724:726   */\n      0x1f\n        /* \"#utility.yul\":716:722   */\n      dup4\n        /* \"#utility.yul\":712:727   */\n      add\n        /* \"#utility.yul\":708:737   */\n      and\n        /* \"#utility.yul\":697:706   */\n      dup5\n        /* \"#utility.yul\":693:738   */\n      add\n        /* \"#utility.yul\":689:743   */\n      add\n        /* \"#utility.yul\":681:743   */\n      swap2\n      pop\n      pop\n        /* \"#utility.yul\":793:797   */\n      0xff\n        /* \"#utility.yul\":785:791   */\n      dup4\n        /* \"#utility.yul\":781:798   */\n      and\n        /* \"#utility.yul\":774:778   */\n      0x20\n        /* \"#utility.yul\":763:772   */\n      dup4\n        /* \"#utility.yul\":759:779   */\n      add\n        /* \"#utility.yul\":752:799   */\n      mstore\n        /* \"#utility.yul\":305:805   */\n      swap4\n      swap3\n      pop\n      pop\n      pop\n      jump\t// out\n        /* \"#utility.yul\":810:937   */\n    tag_36:\n        /* \"#utility.yul\":871:881   */\n      0x4e487b71\n        /* \"#utility.yul\":866:869   */\n      0xe0\n        /* \"#utility.yul\":862:882   */\n      shl\n        /* \"#utility.yul\":859:860   */\n      0x00\n        /* \"#utility.yul\":852:883   */\n      mstore\n        /* \"#utility.yul\":902:906   */\n      0x41\n        /* \"#utility.yul\":899:900   */\n      0x04\n        /* \"#utility.yul\":892:907   */\n      mstore\n        /* \"#utility.yul\":926:930   */\n      0x24\n        /* \"#utility.yul\":923:924   */\n      0x00\n        /* \"#utility.yul\":916:931   */\n      revert\n        /* \"#utility.yul\":942:1098   */\n    tag_37:\n        /* \"#utility.yul\":1008:1028   */\n      dup1\n      calldataload\n        /* \"#utility.yul\":1068:1072   */\n      0xff\n        /* \"#utility.yul\":1057:1073   */\n      dup2\n      and\n        /* \"#utility.yul\":1047:1074   */\n      dup2\n      eq\n        /* \"#utility.yul\":1037:1092   */\n      tag_48\n      jumpi\n        /* \"#utility.yul\":1088:1089   */\n      0x00\n        /* \"#utility.yul\":1085:1086   */\n      dup1\n        /* \"#utility.yul\":1078:1090   */\n      revert\n        /* \"#utility.yul\":1037:1092   */\n    tag_48:\n        /* \"#utility.yul\":942:1098   */\n      swap2\n      swap1\n      pop\n      jump\t// out\n        /* \"#utility.yul\":1103:2128   */\n    tag_13:\n        /* \"#utility.yul\":1179:1185   */\n      0x00\n        /* \"#utility.yul\":1187:1193   */\n      dup1\n        /* \"#utility.yul\":1240:1242   */\n      0x40\n        /* \"#utility.yul\":1228:1237   */\n      dup4\n        /* \"#utility.yul\":1219:1226   */\n      dup6\n        /* \"#utility.yul\":1215:1238   */\n      sub\n        /* \"#utility.yul\":1211:1243   */\n      slt\n        /* \"#utility.yul\":1208:1260   */\n      iszero\n      tag_50\n      jumpi\n        /* \"#utility.yul\":1256:1257   */\n      0x00\n        /* \"#utility.yul\":1253:1254   */\n      dup1\n        /* \"#utility.yul\":1246:1258   */\n      revert\n        /* \"#utility.yul\":1208:1260   */\n    tag_50:\n        /* \"#utility.yul\":1296:1305   */\n      dup3\n        /* \"#utility.yul\":1283:1306   */\n      calldataload\n        /* \"#utility.yul\":1329:1347   */\n      0xffffffffffffffff\n        /* \"#utility.yul\":1321:1327   */\n      dup2\n        /* \"#utility.yul\":1318:1348   */\n      gt\n        /* \"#utility.yul\":1315:1365   */\n      iszero\n      tag_51\n      jumpi\n        /* \"#utility.yul\":1361:1362   */\n      0x00\n        /* \"#utility.yul\":1358:1359   */\n      dup1\n        /* \"#utility.yul\":1351:1363   */\n      revert\n        /* \"#utility.yul\":1315:1365   */\n    tag_51:\n        /* \"#utility.yul\":1384:1406   */\n      dup4\n      add\n        /* \"#utility.yul\":1437:1441   */\n      0x1f\n        /* \"#utility.yul\":1429:1442   */\n      dup2\n      add\n        /* \"#utility.yul\":1425:1452   */\n      dup6\n      sgt\n        /* \"#utility.yul\":1415:1470   */\n      tag_52\n      jumpi\n        /* \"#utility.yul\":1466:1467   */\n      0x00\n        /* \"#utility.yul\":1463:1464   */\n      dup1\n        /* \"#utility.yul\":1456:1468   */\n      revert\n        /* \"#utility.yul\":1415:1470   */\n    tag_52:\n        /* \"#utility.yul\":1506:1508   */\n      dup1\n        /* \"#utility.yul\":1493:1509   */\n      calldataload\n        /* \"#utility.yul\":1532:1550   */\n      0xffffffffffffffff\n        /* \"#utility.yul\":1524:1530   */\n      dup2\n        /* \"#utility.yul\":1521:1551   */\n      gt\n        /* \"#utility.yul\":1518:1574   */\n      iszero\n      tag_54\n      jumpi\n        /* \"#utility.yul\":1554:1572   */\n      tag_54\n      tag_36\n      jump\t// in\n    tag_54:\n        /* \"#utility.yul\":1603:1605   */\n      0x40\n        /* \"#utility.yul\":1597:1606   */\n      mload\n        /* \"#utility.yul\":1695:1697   */\n      0x1f\n        /* \"#utility.yul\":1657:1674   */\n      dup3\n      add\n      not(0x1f)\n        /* \"#utility.yul\":1653:1684   */\n      swap1\n      dup2\n      and\n        /* \"#utility.yul\":1686:1688   */\n      0x3f\n        /* \"#utility.yul\":1649:1689   */\n      add\n        /* \"#utility.yul\":1645:1699   */\n      and\n        /* \"#utility.yul\":1633:1700   */\n      dup2\n      add\n        /* \"#utility.yul\":1730:1748   */\n      0xffffffffffffffff\n        /* \"#utility.yul\":1715:1749   */\n      dup2\n      gt\n        /* \"#utility.yul\":1751:1773   */\n      dup3\n      dup3\n      lt\n        /* \"#utility.yul\":1712:1774   */\n      or\n        /* \"#utility.yul\":1709:1797   */\n      iszero\n      tag_56\n      jumpi\n        /* \"#utility.yul\":1777:1795   */\n      tag_56\n      tag_36\n      jump\t// in\n    tag_56:\n        /* \"#utility.yul\":1813:1815   */\n      0x40\n        /* \"#utility.yul\":1806:1828   */\n      mstore\n        /* \"#utility.yul\":1837:1859   */\n      dup2\n      dup2\n      mstore\n        /* \"#utility.yul\":1878:1893   */\n      dup3\n      dup3\n      add\n        /* \"#utility.yul\":1895:1899   */\n      0x20\n        /* \"#utility.yul\":1874:1900   */\n      add\n        /* \"#utility.yul\":1871:1910   */\n      dup8\n      lt\n        /* \"#utility.yul\":1868:1927   */\n      iszero\n      tag_57\n      jumpi\n        /* \"#utility.yul\":1923:1924   */\n      0x00\n        /* \"#utility.yul\":1920:1921   */\n      dup1\n        /* \"#utility.yul\":1913:1925   */\n      revert\n        /* \"#utility.yul\":1868:1927   */\n    tag_57:\n        /* \"#utility.yul\":1983:1989   */\n      dup2\n        /* \"#utility.yul\":1976:1980   */\n      0x20\n        /* \"#utility.yul\":1972:1974   */\n      dup5\n        /* \"#utility.yul\":1968:1981   */\n      add\n        /* \"#utility.yul\":1961:1965   */\n      0x20\n        /* \"#utility.yul\":1953:1959   */\n      dup4\n        /* \"#utility.yul\":1949:1966   */\n      add\n        /* \"#utility.yul\":1936:1990   */\n      calldatacopy\n        /* \"#utility.yul\":2038:2039   */\n      0x00\n        /* \"#utility.yul\":2031:2035   */\n      0x20\n        /* \"#utility.yul\":2022:2028   */\n      dup4\n        /* \"#utility.yul\":2014:2020   */\n      dup4\n        /* \"#utility.yul\":2010:2029   */\n      add\n        /* \"#utility.yul\":2006:2036   */\n      add\n        /* \"#utility.yul\":1999:2040   */\n      mstore\n        /* \"#utility.yul\":2059:2065   */\n      dup1\n        /* \"#utility.yul\":2049:2065   */\n      swap5\n      pop\n      pop\n      pop\n      pop\n        /* \"#utility.yul\":2084:2122   */\n      tag_58\n        /* \"#utility.yul\":2116:2120   */\n      0x20\n        /* \"#utility.yul\":2105:2114   */\n      dup5\n        /* \"#utility.yul\":2101:2121   */\n      add\n        /* \"#utility.yul\":2084:2122   */\n      tag_37\n      jump\t// in\n    tag_58:\n        /* \"#utility.yul\":2074:2122   */\n      swap1\n      pop\n        /* \"#utility.yul\":1103:2128   */\n      swap3\n      pop\n      swap3\n      swap1\n      pop\n      jump\t// out\n        /* \"#utility.yul\":2476:2603   */\n    tag_21:\n        /* \"#utility.yul\":2537:2547   */\n      0x4e487b71\n        /* \"#utility.yul\":2532:2535   */\n      0xe0\n        /* \"#utility.yul\":2528:2548   */\n      shl\n        /* \"#utility.yul\":2525:2526   */\n      0x00\n        /* \"#utility.yul\":2518:2549   */\n      mstore\n        /* \"#utility.yul\":2568:2572   */\n      0x32\n        /* \"#utility.yul\":2565:2566   */\n      0x04\n        /* \"#utility.yul\":2558:2573   */\n      mstore\n        /* \"#utility.yul\":2592:2596   */\n      0x24\n        /* \"#utility.yul\":2589:2590   */\n      0x00\n        /* \"#utility.yul\":2582:2597   */\n      revert\n        /* \"#utility.yul\":2608:2988   */\n    tag_27:\n        /* \"#utility.yul\":2687:2688   */\n      0x01\n        /* \"#utility.yul\":2683:2695   */\n      dup2\n      dup2\n      shr\n      swap1\n        /* \"#utility.yul\":2730:2742   */\n      dup3\n      and\n      dup1\n        /* \"#utility.yul\":2751:2812   */\n      tag_62\n      jumpi\n        /* \"#utility.yul\":2805:2809   */\n      0x7f\n        /* \"#utility.yul\":2797:2803   */\n      dup3\n        /* \"#utility.yul\":2793:2810   */\n      and\n        /* \"#utility.yul\":2783:2810   */\n      swap2\n      pop\n        /* \"#utility.yul\":2751:2812   */\n    tag_62:\n        /* \"#utility.yul\":2858:2860   */\n      0x20\n        /* \"#utility.yul\":2850:2856   */\n      dup3\n        /* \"#utility.yul\":2847:2861   */\n      lt\n        /* \"#utility.yul\":2827:2845   */\n      dup2\n        /* \"#utility.yul\":2824:2862   */\n      sub\n        /* \"#utility.yul\":2821:2982   */\n      tag_63\n      jumpi\n        /* \"#utility.yul\":2904:2914   */\n      0x4e487b71\n        /* \"#utility.yul\":2899:2902   */\n      0xe0\n        /* \"#utility.yul\":2895:2915   */\n      shl\n        /* \"#utility.yul\":2892:2893   */\n      0x00\n        /* \"#utility.yul\":2885:2916   */\n      mstore\n        /* \"#utility.yul\":2939:2943   */\n      0x22\n        /* \"#utility.yul\":2936:2937   */\n      0x04\n        /* \"#utility.yul\":2929:2944   */\n      mstore\n        /* \"#utility.yul\":2967:2971   */\n      0x24\n        /* \"#utility.yul\":2964:2965   */\n      0x00\n        /* \"#utility.yul\":2957:2972   */\n      revert\n        /* \"#utility.yul\":2821:2982   */\n    tag_63:\n      pop\n        /* \"#utility.yul\":2608:2988   */\n      swap2\n      swap1\n      pop\n      jump\t// out\n        /* \"#utility.yul\":3119:3637   */\n    tag_39:\n        /* \"#utility.yul\":3221:3223   */\n      0x1f\n        /* \"#utility.yul\":3216:3219   */\n      dup3\n        /* \"#utility.yul\":3213:3224   */\n      gt\n        /* \"#utility.yul\":3210:3631   */\n      iszero\n      tag_66\n      jumpi\n        /* \"#utility.yul\":3257:3262   */\n      dup1\n        /* \"#utility.yul\":3254:3255   */\n      0x00\n        /* \"#utility.yul\":3247:3263   */\n      mstore\n        /* \"#utility.yul\":3301:3305   */\n      0x20\n        /* \"#utility.yul\":3298:3299   */\n      0x00\n        /* \"#utility.yul\":3288:3306   */\n      keccak256\n        /* \"#utility.yul\":3371:3373   */\n      0x1f\n        /* \"#utility.yul\":3359:3369   */\n      dup5\n        /* \"#utility.yul\":3355:3374   */\n      add\n        /* \"#utility.yul\":3352:3353   */\n      0x05\n        /* \"#utility.yul\":3348:3375   */\n      shr\n        /* \"#utility.yul\":3342:3346   */\n      dup2\n        /* \"#utility.yul\":3338:3376   */\n      add\n        /* \"#utility.yul\":3407:3411   */\n      0x20\n        /* \"#utility.yul\":3395:3405   */\n      dup6\n        /* \"#utility.yul\":3392:3412   */\n      lt\n        /* \"#utility.yul\":3389:3436   */\n      iszero\n      tag_67\n      jumpi\n      pop\n        /* \"#utility.yul\":3430:3434   */\n      dup1\n        /* \"#utility.yul\":3389:3436   */\n    tag_67:\n        /* \"#utility.yul\":3485:3487   */\n      0x1f\n        /* \"#utility.yul\":3480:3483   */\n      dup5\n        /* \"#utility.yul\":3476:3488   */\n      add\n        /* \"#utility.yul\":3473:3474   */\n      0x05\n        /* \"#utility.yul\":3469:3489   */\n      shr\n        /* \"#utility.yul\":3463:3467   */\n      dup3\n        /* \"#utility.yul\":3459:3490   */\n      add\n        /* \"#utility.yul\":3449:3490   */\n      swap2\n      pop\n        /* \"#utility.yul\":3540:3621   */\n    tag_68:\n        /* \"#utility.yul\":3558:3560   */\n      dup2\n        /* \"#utility.yul\":3551:3556   */\n      dup2\n        /* \"#utility.yul\":3548:3561   */\n      lt\n        /* \"#utility.yul\":3540:3621   */\n      iszero\n      tag_70\n      jumpi\n        /* \"#utility.yul\":3617:3618   */\n      0x00\n        /* \"#utility.yul\":3603:3619   */\n      dup2\n      sstore\n        /* \"#utility.yul\":3584:3585   */\n      0x01\n        /* \"#utility.yul\":3573:3586   */\n      add\n        /* \"#utility.yul\":3540:3621   */\n      jump(tag_68)\n    tag_70:\n        /* \"#utility.yul\":3544:3547   */\n      pop\n      pop\n        /* \"#utility.yul\":3210:3631   */\n    tag_66:\n        /* \"#utility.yul\":3119:3637   */\n      pop\n      pop\n      pop\n      jump\t// out\n        /* \"#utility.yul\":3813:5112   */\n    tag_35:\n        /* \"#utility.yul\":3939:3942   */\n      dup2\n        /* \"#utility.yul\":3933:3943   */\n      mload\n        /* \"#utility.yul\":3966:3984   */\n      0xffffffffffffffff\n        /* \"#utility.yul\":3958:3964   */\n      dup2\n        /* \"#utility.yul\":3955:3985   */\n      gt\n        /* \"#utility.yul\":3952:4008   */\n      iszero\n      tag_74\n      jumpi\n        /* \"#utility.yul\":3988:4006   */\n      tag_74\n      tag_36\n      jump\t// in\n    tag_74:\n        /* \"#utility.yul\":4017:4114   */\n      tag_75\n        /* \"#utility.yul\":4107:4113   */\n      dup2\n        /* \"#utility.yul\":4067:4105   */\n      tag_76\n        /* \"#utility.yul\":4099:4103   */\n      dup5\n        /* \"#utility.yul\":4093:4104   */\n      sload\n        /* \"#utility.yul\":4067:4105   */\n      tag_27\n      jump\t// in\n    tag_76:\n        /* \"#utility.yul\":4061:4065   */\n      dup5\n        /* \"#utility.yul\":4017:4114   */\n      tag_39\n      jump\t// in\n    tag_75:\n        /* \"#utility.yul\":4163:4167   */\n      0x20\n        /* \"#utility.yul\":4194:4196   */\n      0x1f\n        /* \"#utility.yul\":4183:4197   */\n      dup3\n      gt\n        /* \"#utility.yul\":4211:4212   */\n      0x01\n        /* \"#utility.yul\":4206:4855   */\n      dup2\n      eq\n      tag_78\n      jumpi\n        /* \"#utility.yul\":4899:4900   */\n      0x00\n        /* \"#utility.yul\":4916:4922   */\n      dup4\n        /* \"#utility.yul\":4913:5002   */\n      iszero\n      tag_79\n      jumpi\n      pop\n        /* \"#utility.yul\":4968:4987   */\n      dup5\n      dup3\n      add\n        /* \"#utility.yul\":4962:4988   */\n      mload\n        /* \"#utility.yul\":4913:5002   */\n    tag_79:\n      not(0x00)\n        /* \"#utility.yul\":3770:3771   */\n      0x03\n        /* \"#utility.yul\":3766:3777   */\n      dup6\n      swap1\n      shl\n        /* \"#utility.yul\":3762:3786   */\n      shr\n        /* \"#utility.yul\":3758:3787   */\n      not\n        /* \"#utility.yul\":3748:3788   */\n      and\n        /* \"#utility.yul\":3794:3795   */\n      0x01\n        /* \"#utility.yul\":3790:3801   */\n      dup5\n      swap1\n      shl\n        /* \"#utility.yul\":3745:3802   */\n      or\n        /* \"#utility.yul\":5015:5096   */\n      dup5\n      sstore\n        /* \"#utility.yul\":4176:5106   */\n      jump(tag_70)\n        /* \"#utility.yul\":4206:4855   */\n    tag_78:\n        /* \"#utility.yul\":3066:3067   */\n      0x00\n        /* \"#utility.yul\":3059:3073   */\n      dup5\n      dup2\n      mstore\n        /* \"#utility.yul\":3103:3107   */\n      0x20\n        /* \"#utility.yul\":3090:3108   */\n      dup2\n      keccak256\n      not(0x1f)\n        /* \"#utility.yul\":4242:4262   */\n      dup6\n      and\n      swap2\n        /* \"#utility.yul\":4360:4582   */\n    tag_82:\n        /* \"#utility.yul\":4374:4381   */\n      dup3\n        /* \"#utility.yul\":4371:4372   */\n      dup2\n        /* \"#utility.yul\":4368:4382   */\n      lt\n        /* \"#utility.yul\":4360:4582   */\n      iszero\n      tag_84\n      jumpi\n        /* \"#utility.yul\":4456:4475   */\n      dup8\n      dup6\n      add\n        /* \"#utility.yul\":4450:4476   */\n      mload\n        /* \"#utility.yul\":4435:4477   */\n      dup3\n      sstore\n        /* \"#utility.yul\":4563:4567   */\n      0x20\n        /* \"#utility.yul\":4548:4568   */\n      swap5\n      dup6\n      add\n      swap5\n        /* \"#utility.yul\":4516:4517   */\n      0x01\n        /* \"#utility.yul\":4504:4518   */\n      swap1\n      swap3\n      add\n      swap2\n        /* \"#utility.yul\":4390:4402   */\n      add\n        /* \"#utility.yul\":4360:4582   */\n      jump(tag_82)\n    tag_84:\n        /* \"#utility.yul\":4364:4367   */\n      pop\n        /* \"#utility.yul\":4610:4616   */\n      dup5\n        /* \"#utility.yul\":4601:4608   */\n      dup3\n        /* \"#utility.yul\":4598:4617   */\n      lt\n        /* \"#utility.yul\":4595:4796   */\n      iszero\n      tag_85\n      jumpi\n        /* \"#utility.yul\":4671:4690   */\n      dup7\n      dup5\n      add\n        /* \"#utility.yul\":4665:4691   */\n      mload\n      not(0x00)\n        /* \"#utility.yul\":4754:4755   */\n      0x03\n        /* \"#utility.yul\":4750:4764   */\n      dup8\n      swap1\n      shl\n        /* \"#utility.yul\":4766:4769   */\n      0xf8\n        /* \"#utility.yul\":4746:4770   */\n      and\n        /* \"#utility.yul\":4742:4779   */\n      shr\n        /* \"#utility.yul\":4738:4780   */\n      not\n        /* \"#utility.yul\":4723:4781   */\n      and\n        /* \"#utility.yul\":4708:4782   */\n      dup2\n      sstore\n        /* \"#utility.yul\":4595:4796   */\n    tag_85:\n      pop\n      pop\n      pop\n      pop\n        /* \"#utility.yul\":4842:4843   */\n      0x01\n        /* \"#utility.yul\":4826:4840   */\n      swap1\n      dup2\n      shl\n        /* \"#utility.yul\":4822:4844   */\n      add\n        /* \"#utility.yul\":4809:4845   */\n      swap1\n      sstore\n      pop\n        /* \"#utility.yul\":3813:5112   */\n      jump\t// out\n\n    auxdata: 0xa2646970667358221220914e793fb75fffe2ced7c6139a9c7095359d21c6f8407ce9cbf617056f94885764736f6c634300081a0033\n}\n",
				"bytecode": {
					"linkReferences": {},
					"object": "6080604052348015600e575f80fd5b506105288061001c5f395ff3fe608060405234801561000f575f80fd5b5060043610610034575f3560e01c806329c8dc191461003857806379d3fbc914610062575b5f80fd5b61004b610046366004610246565b610077565b604051610059929190610273565b60405180910390f35b6100756100703660046102db565b6101de565b005b6001600160a01b0381165f90815260208190526040812054606091906100d45760405162461bcd60e51b815260206004820152600e60248201526d155cd95c881b9bdd08199bdd5b9960921b604482015260640160405180910390fd5b6001600160a01b0383165f908152602081905260408120805482906100fb576100fb61039f565b5f9182526020808320600160029093020191909101546001600160a01b03871683529082905260408220805460ff909216935090829061013d5761013d61039f565b905f5260205f2090600202015f018054610156906103b3565b80601f0160208091040260200160405190810160405280929190818152602001828054610182906103b3565b80156101cd5780601f106101a4576101008083540402835291602001916101cd565b820191905f5260205f20905b8154815290600101906020018083116101b057829003601f168201915b509399959850949650505050505050565b335f90815260208181526040808320815180830190925285825260ff85168284015280546001810182559084529190922082516002909202019081906102249082610437565b50602091909101516001909101805460ff191660ff9092169190911790555050565b5f60208284031215610256575f80fd5b81356001600160a01b038116811461026c575f80fd5b9392505050565b604081525f83518060408401528060208601606085015e5f606082850101526060601f19601f83011684010191505060ff831660208301529392505050565b634e487b7160e01b5f52604160045260245ffd5b803560ff811681146102d6575f80fd5b919050565b5f80604083850312156102ec575f80fd5b823567ffffffffffffffff811115610302575f80fd5b8301601f81018513610312575f80fd5b803567ffffffffffffffff81111561032c5761032c6102b2565b604051601f8201601f19908116603f0116810167ffffffffffffffff8111828210171561035b5761035b6102b2565b604052818152828201602001871015610372575f80fd5b816020840160208301375f60208383010152809450505050610396602084016102c6565b90509250929050565b634e487b7160e01b5f52603260045260245ffd5b600181811c908216806103c757607f821691505b6020821081036103e557634e487b7160e01b5f52602260045260245ffd5b50919050565b601f82111561043257805f5260205f20601f840160051c810160208510156104105750805b601f840160051c820191505b8181101561042f575f815560010161041c565b50505b505050565b815167ffffffffffffffff811115610451576104516102b2565b6104658161045f84546103b3565b846103eb565b6020601f821160018114610497575f83156104805750848201515b5f19600385901b1c1916600184901b17845561042f565b5f84815260208120601f198516915b828110156104c657878501518255602094850194600190920191016104a6565b50848210156104e357868401515f19600387901b60f8161c191681555b50505050600190811b0190555056fea2646970667358221220914e793fb75fffe2ced7c6139a9c7095359d21c6f8407ce9cbf617056f94885764736f6c634300081a0033",
					"opcodes": "PUSH1 0x80 PUSH1 0x40 MSTORE CALLVALUE DUP1 ISZERO PUSH1 0xE JUMPI PUSH0 DUP1 REVERT JUMPDEST POP PUSH2 0x528 DUP1 PUSH2 0x1C PUSH0 CODECOPY PUSH0 RETURN INVALID PUSH1 0x80 PUSH1 0x40 MSTORE CALLVALUE DUP1 ISZERO PUSH2 0xF JUMPI PUSH0 DUP1 REVERT JUMPDEST POP PUSH1 0x4 CALLDATASIZE LT PUSH2 0x34 JUMPI PUSH0 CALLDATALOAD PUSH1 0xE0 SHR DUP1 PUSH4 0x29C8DC19 EQ PUSH2 0x38 JUMPI DUP1 PUSH4 0x79D3FBC9 EQ PUSH2 0x62 JUMPI JUMPDEST PUSH0 DUP1 REVERT JUMPDEST PUSH2 0x4B PUSH2 0x46 CALLDATASIZE PUSH1 0x4 PUSH2 0x246 JUMP JUMPDEST PUSH2 0x77 JUMP JUMPDEST PUSH1 0x40 MLOAD PUSH2 0x59 SWAP3 SWAP2 SWAP1 PUSH2 0x273 JUMP JUMPDEST PUSH1 0x40 MLOAD DUP1 SWAP2 SUB SWAP1 RETURN JUMPDEST PUSH2 0x75 PUSH2 0x70 CALLDATASIZE PUSH1 0x4 PUSH2 0x2DB JUMP JUMPDEST PUSH2 0x1DE JUMP JUMPDEST STOP JUMPDEST PUSH1 0x1 PUSH1 0x1 PUSH1 0xA0 SHL SUB DUP2 AND PUSH0 SWAP1 DUP2 MSTORE PUSH1 0x20 DUP2 SWAP1 MSTORE PUSH1 0x40 DUP2 KECCAK256 SLOAD PUSH1 0x60 SWAP2 SWAP1 PUSH2 0xD4 JUMPI PUSH1 0x40 MLOAD PUSH3 0x461BCD PUSH1 0xE5 SHL DUP2 MSTORE PUSH1 0x20 PUSH1 0x4 DUP3 ADD MSTORE PUSH1 0xE PUSH1 0x24 DUP3 ADD MSTORE PUSH14 0x155CD95C881B9BDD08199BDD5B99 PUSH1 0x92 SHL PUSH1 0x44 DUP3 ADD MSTORE PUSH1 0x64 ADD PUSH1 0x40 MLOAD DUP1 SWAP2 SUB SWAP1 REVERT JUMPDEST PUSH1 0x1 PUSH1 0x1 PUSH1 0xA0 SHL SUB DUP4 AND PUSH0 SWAP1 DUP2 MSTORE PUSH1 0x20 DUP2 SWAP1 MSTORE PUSH1 0x40 DUP2 KECCAK256 DUP1 SLOAD DUP3 SWAP1 PUSH2 0xFB JUMPI PUSH2 0xFB PUSH2 0x39F JUMP JUMPDEST PUSH0 SWAP2 DUP3 MSTORE PUSH1 0x20 DUP1 DUP4 KECCAK256 PUSH1 0x1 PUSH1 0x2 SWAP1 SWAP4 MUL ADD SWAP2 SWAP1 SWAP2 ADD SLOAD PUSH1 0x1 PUSH1 0x1 PUSH1 0xA0 SHL SUB DUP8 AND DUP4 MSTORE SWAP1 DUP3 SWAP1 MSTORE PUSH1 0x40 DUP3 KECCAK256 DUP1 SLOAD PUSH1 0xFF SWAP1 SWAP3 AND SWAP4 POP SWAP1 DUP3 SWAP1 PUSH2 0x13D JUMPI PUSH2 0x13D PUSH2 0x39F JUMP JUMPDEST SWAP1 PUSH0 MSTORE PUSH1 0x20 PUSH0 KECCAK256 SWAP1 PUSH1 0x2 MUL ADD PUSH0 ADD DUP1 SLOAD PUSH2 0x156 SWAP1 PUSH2 0x3B3 JUMP JUMPDEST DUP1 PUSH1 0x1F ADD PUSH1 0x20 DUP1 SWAP2 DIV MUL PUSH1 0x20 ADD PUSH1 0x40 MLOAD SWAP1 DUP2 ADD PUSH1 0x40 MSTORE DUP1 SWAP3 SWAP2 SWAP1 DUP2 DUP2 MSTORE PUSH1 0x20 ADD DUP3 DUP1 SLOAD PUSH2 0x182 SWAP1 PUSH2 0x3B3 JUMP JUMPDEST DUP1 ISZERO PUSH2 0x1CD JUMPI DUP1 PUSH1 0x1F LT PUSH2 0x1A4 JUMPI PUSH2 0x100 DUP1 DUP4 SLOAD DIV MUL DUP4 MSTORE SWAP2 PUSH1 0x20 ADD SWAP2 PUSH2 0x1CD JUMP JUMPDEST DUP3 ADD SWAP2 SWAP1 PUSH0 MSTORE PUSH1 0x20 PUSH0 KECCAK256 SWAP1 JUMPDEST DUP2 SLOAD DUP2 MSTORE SWAP1 PUSH1 0x1 ADD SWAP1 PUSH1 0x20 ADD DUP1 DUP4 GT PUSH2 0x1B0 JUMPI DUP3 SWAP1 SUB PUSH1 0x1F AND DUP3 ADD SWAP2 JUMPDEST POP SWAP4 SWAP10 SWAP6 SWAP9 POP SWAP5 SWAP7 POP POP POP POP POP POP POP JUMP JUMPDEST CALLER PUSH0 SWAP1 DUP2 MSTORE PUSH1 0x20 DUP2 DUP2 MSTORE PUSH1 0x40 DUP1 DUP4 KECCAK256 DUP2 MLOAD DUP1 DUP4 ADD SWAP1 SWAP3 MSTORE DUP6 DUP3 MSTORE PUSH1 0xFF DUP6 AND DUP3 DUP5 ADD MSTORE DUP1 SLOAD PUSH1 0x1 DUP2 ADD DUP3 SSTORE SWAP1 DUP5 MSTORE SWAP2 SWAP1 SWAP3 KECCAK256 DUP3 MLOAD PUSH1 0x2 SWAP1 SWAP3 MUL ADD SWAP1 DUP2 SWAP1 PUSH2 0x224 SWAP1 DUP3 PUSH2 0x437 JUMP JUMPDEST POP PUSH1 0x20 SWAP2 SWAP1 SWAP2 ADD MLOAD PUSH1 0x1 SWAP1 SWAP2 ADD DUP1 SLOAD PUSH1 0xFF NOT AND PUSH1 0xFF SWAP1 SWAP3 AND SWAP2 SWAP1 SWAP2 OR SWAP1 SSTORE POP POP JUMP JUMPDEST PUSH0 PUSH1 0x20 DUP3 DUP5 SUB SLT ISZERO PUSH2 0x256 JUMPI PUSH0 DUP1 REVERT JUMPDEST DUP2 CALLDATALOAD PUSH1 0x1 PUSH1 0x1 PUSH1 0xA0 SHL SUB DUP2 AND DUP2 EQ PUSH2 0x26C JUMPI PUSH0 DUP1 REVERT JUMPDEST SWAP4 SWAP3 POP POP POP JUMP JUMPDEST PUSH1 0x40 DUP2 MSTORE PUSH0 DUP4 MLOAD DUP1 PUSH1 0x40 DUP5 ADD MSTORE DUP1 PUSH1 0x20 DUP7 ADD PUSH1 0x60 DUP6 ADD MCOPY PUSH0 PUSH1 0x60 DUP3 DUP6 ADD ADD MSTORE PUSH1 0x60 PUSH1 0x1F NOT PUSH1 0x1F DUP4 ADD AND DUP5 ADD ADD SWAP2 POP POP PUSH1 0xFF DUP4 AND PUSH1 0x20 DUP4 ADD MSTORE SWAP4 SWAP3 POP POP POP JUMP JUMPDEST PUSH4 0x4E487B71 PUSH1 0xE0 SHL PUSH0 MSTORE PUSH1 0x41 PUSH1 0x4 MSTORE PUSH1 0x24 PUSH0 REVERT JUMPDEST DUP1 CALLDATALOAD PUSH1 0xFF DUP2 AND DUP2 EQ PUSH2 0x2D6 JUMPI PUSH0 DUP1 REVERT JUMPDEST SWAP2 SWAP1 POP JUMP JUMPDEST PUSH0 DUP1 PUSH1 0x40 DUP4 DUP6 SUB SLT ISZERO PUSH2 0x2EC JUMPI PUSH0 DUP1 REVERT JUMPDEST DUP3 CALLDATALOAD PUSH8 0xFFFFFFFFFFFFFFFF DUP2 GT ISZERO PUSH2 0x302 JUMPI PUSH0 DUP1 REVERT JUMPDEST DUP4 ADD PUSH1 0x1F DUP2 ADD DUP6 SGT PUSH2 0x312 JUMPI PUSH0 DUP1 REVERT JUMPDEST DUP1 CALLDATALOAD PUSH8 0xFFFFFFFFFFFFFFFF DUP2 GT ISZERO PUSH2 0x32C JUMPI PUSH2 0x32C PUSH2 0x2B2 JUMP JUMPDEST PUSH1 0x40 MLOAD PUSH1 0x1F DUP3 ADD PUSH1 0x1F NOT SWAP1 DUP2 AND PUSH1 0x3F ADD AND DUP2 ADD PUSH8 0xFFFFFFFFFFFFFFFF DUP2 GT DUP3 DUP3 LT OR ISZERO PUSH2 0x35B JUMPI PUSH2 0x35B PUSH2 0x2B2 JUMP JUMPDEST PUSH1 0x40 MSTORE DUP2 DUP2 MSTORE DUP3 DUP3 ADD PUSH1 0x20 ADD DUP8 LT ISZERO PUSH2 0x372 JUMPI PUSH0 DUP1 REVERT JUMPDEST DUP2 PUSH1 0x20 DUP5 ADD PUSH1 0x20 DUP4 ADD CALLDATACOPY PUSH0 PUSH1 0x20 DUP4 DUP4 ADD ADD MSTORE DUP1 SWAP5 POP POP POP POP PUSH2 0x396 PUSH1 0x20 DUP5 ADD PUSH2 0x2C6 JUMP JUMPDEST SWAP1 POP SWAP3 POP SWAP3 SWAP1 POP JUMP JUMPDEST PUSH4 0x4E487B71 PUSH1 0xE0 SHL PUSH0 MSTORE PUSH1 0x32 PUSH1 0x4 MSTORE PUSH1 0x24 PUSH0 REVERT JUMPDEST PUSH1 0x1 DUP2 DUP2 SHR SWAP1 DUP3 AND DUP1 PUSH2 0x3C7 JUMPI PUSH1 0x7F DUP3 AND SWAP2 POP JUMPDEST PUSH1 0x20 DUP3 LT DUP2 SUB PUSH2 0x3E5 JUMPI PUSH4 0x4E487B71 PUSH1 0xE0 SHL PUSH0 MSTORE PUSH1 0x22 PUSH1 0x4 MSTORE PUSH1 0x24 PUSH0 REVERT JUMPDEST POP SWAP2 SWAP1 POP JUMP JUMPDEST PUSH1 0x1F DUP3 GT ISZERO PUSH2 0x432 JUMPI DUP1 PUSH0 MSTORE PUSH1 0x20 PUSH0 KECCAK256 PUSH1 0x1F DUP5 ADD PUSH1 0x5 SHR DUP2 ADD PUSH1 0x20 DUP6 LT ISZERO PUSH2 0x410 JUMPI POP DUP1 JUMPDEST PUSH1 0x1F DUP5 ADD PUSH1 0x5 SHR DUP3 ADD SWAP2 POP JUMPDEST DUP2 DUP2 LT ISZERO PUSH2 0x42F JUMPI PUSH0 DUP2 SSTORE PUSH1 0x1 ADD PUSH2 0x41C JUMP JUMPDEST POP POP JUMPDEST POP POP POP JUMP JUMPDEST DUP2 MLOAD PUSH8 0xFFFFFFFFFFFFFFFF DUP2 GT ISZERO PUSH2 0x451 JUMPI PUSH2 0x451 PUSH2 0x2B2 JUMP JUMPDEST PUSH2 0x465 DUP2 PUSH2 0x45F DUP5 SLOAD PUSH2 0x3B3 JUMP JUMPDEST DUP5 PUSH2 0x3EB JUMP JUMPDEST PUSH1 0x20 PUSH1 0x1F DUP3 GT PUSH1 0x1 DUP2 EQ PUSH2 0x497 JUMPI PUSH0 DUP4 ISZERO PUSH2 0x480 JUMPI POP DUP5 DUP3 ADD MLOAD JUMPDEST PUSH0 NOT PUSH1 0x3 DUP6 SWAP1 SHL SHR NOT AND PUSH1 0x1 DUP5 SWAP1 SHL OR DUP5 SSTORE PUSH2 0x42F JUMP JUMPDEST PUSH0 DUP5 DUP2 MSTORE PUSH1 0x20 DUP2 KECCAK256 PUSH1 0x1F NOT DUP6 AND SWAP2 JUMPDEST DUP3 DUP2 LT ISZERO PUSH2 0x4C6 JUMPI DUP8 DUP6 ADD MLOAD DUP3 SSTORE PUSH1 0x20 SWAP5 DUP6 ADD SWAP5 PUSH1 0x1 SWAP1 SWAP3 ADD SWAP2 ADD PUSH2 0x4A6 JUMP JUMPDEST POP DUP5 DUP3 LT ISZERO PUSH2 0x4E3 JUMPI DUP7 DUP5 ADD MLOAD PUSH0 NOT PUSH1 0x3 DUP8 SWAP1 SHL PUSH1 0xF8 AND SHR NOT AND DUP2 SSTORE JUMPDEST POP POP POP POP PUSH1 0x1 SWAP1 DUP2 SHL ADD SWAP1 SSTORE POP JUMP INVALID LOG2 PUSH5 0x6970667358 0x22 SLT KECCAK256 SWAP2 0x4E PUSH26 0x3FB75FFFE2CED7C6139A9C7095359D21C6F8407CE9CBF617056F SWAP5 DUP9 JUMPI PUSH5 0x736F6C6343 STOP ADDMOD BYTE STOP CALLER "
				},
				"gasEstimates": {
					"creation": {
						"codeDepositCost": "264000",
						"executionCost": "304",
						"totalCost": "264304"
					},
					"external": {
						"addEachPerson(string,uint8)": "infinite",
						"showPeople(address)": "infinite"
					}
				},
				"methodIdentifiers": {
					"addEachPerson(string,uint8)": "79d3fbc9",
					"showPeople(address)": "29c8dc19"
				}
			},
			"storageLayout": {
				"storage": [
					{
						"astId": 12,
						"contract": "contracts/testWalk.sol:TestNameCollect",
						"label": "ListStoredPeople",
						"offset": 0,
						"slot": "0",
						"type": "t_mapping(t_address,t_array(t_struct(Person)6_storage)dyn_storage)"
					}
				],
				"types": {
					"t_address": {
						"encoding": "inplace",
						"label": "address",
						"numberOfBytes": "20"
					},
					"t_array(t_struct(Person)6_storage)dyn_storage": {
						"base": "t_struct(Person)6_storage",
						"encoding": "dynamic_array",
						"label": "struct TestNameCollect.Person[]",
						"numberOfBytes": "32"
					},
					"t_mapping(t_address,t_array(t_struct(Person)6_storage)dyn_storage)": {
						"encoding": "mapping",
						"key": "t_address",
						"label": "mapping(address => struct TestNameCollect.Person[])",
						"numberOfBytes": "32",
						"value": "t_array(t_struct(Person)6_storage)dyn_storage"
					},
					"t_string_storage": {
						"encoding": "bytes",
						"label": "string",
						"numberOfBytes": "32"
					},
					"t_struct(Person)6_storage": {
						"encoding": "inplace",
						"label": "struct TestNameCollect.Person",
						"members": [
							{
								"astId": 3,
								"contract": "contracts/testWalk.sol:TestNameCollect",
								"label": "name",
								"offset": 0,
								"slot": "0",
								"type": "t_string_storage"
							},
							{
								"astId": 5,
								"contract": "contracts/testWalk.sol:TestNameCollect",
								"label": "age",
								"offset": 0,
								"slot": "1",
								"type": "t_uint8"
							}
						],
						"numberOfBytes": "64"
					},
					"t_uint8": {
						"encoding": "inplace",
						"label": "uint8",
						"numberOfBytes": "1"
					}
				}
			},
			"userdoc": {
				"kind": "user",
				"methods": {},
				"version": 1
			}
		}
	}
}