{
	"contracts/typetrvx.sol": {
		"TriviaBaseCreate": {
			"abi": [
				{
					"inputs": [],
					"name": "createTriviaContract",
					"outputs": [
						{
							"internalType": "address",
							"name": "",
							"type": "address"
						}
					],
					"stateMutability": "nonpayable",
					"type": "function"
				},
				{
					"inputs": [],
					"name": "heyhey",
					"outputs": [
						{
							"internalType": "address",
							"name": "",
							"type": "address"
						}
					],
					"stateMutability": "nonpayable",
					"type": "function"
				}
			],
			"devdoc": {
				"kind": "dev",
				"methods": {},
				"version": 1
			},
			"evm": {
				"assembly": "    /* \"contracts/typetrvx.sol\":2548:2827  contract TriviaBaseCreate{    ... */\n  mstore(0x40, 0x80)\n  callvalue\n  dup1\n  iszero\n  tag_1\n  jumpi\n  0x00\n  dup1\n  revert\ntag_1:\n  pop\n  dataSize(sub_0)\n  dup1\n  dataOffset(sub_0)\n  0x00\n  codecopy\n  0x00\n  return\nstop\n\nsub_0: assembly {\n        /* \"contracts/typetrvx.sol\":2548:2827  contract TriviaBaseCreate{    ... */\n      mstore(0x40, 0x80)\n      callvalue\n      dup1\n      iszero\n      tag_1\n      jumpi\n      0x00\n      dup1\n      revert\n    tag_1:\n      pop\n      jumpi(tag_2, lt(calldatasize, 0x04))\n      shr(0xe0, calldataload(0x00))\n      dup1\n      0xb4a74ef7\n      eq\n      tag_3\n      jumpi\n      dup1\n      0xc313889c\n      eq\n      tag_4\n      jumpi\n    tag_2:\n      0x00\n      dup1\n      revert\n        /* \"contracts/typetrvx.sol\":2734:2825  function heyhey() external returns(address){... */\n    tag_3:\n      tag_5\n      tag_6\n      jump\t// in\n    tag_5:\n      mload(0x40)\n      tag_7\n      swap2\n      swap1\n      tag_8\n      jump\t// in\n    tag_7:\n      mload(0x40)\n      dup1\n      swap2\n      sub\n      swap1\n      return\n        /* \"contracts/typetrvx.sol\":2584:2729  function createTriviaContract() external returns(address) {... */\n    tag_4:\n      tag_9\n      tag_10\n      jump\t// in\n    tag_9:\n      mload(0x40)\n      tag_11\n      swap2\n      swap1\n      tag_8\n      jump\t// in\n    tag_11:\n      mload(0x40)\n      dup1\n      swap2\n      sub\n      swap1\n      return\n        /* \"contracts/typetrvx.sol\":2734:2825  function heyhey() external returns(address){... */\n    tag_6:\n        /* \"contracts/typetrvx.sol\":2769:2776  address */\n      0x00\n        /* \"contracts/typetrvx.sol\":2734:2825  function heyhey() external returns(address){... */\n      swap1\n      jump\t// out\n        /* \"contracts/typetrvx.sol\":2584:2729  function createTriviaContract() external returns(address) {... */\n    tag_10:\n        /* \"contracts/typetrvx.sol\":2633:2640  address */\n      0x00\n        /* \"contracts/typetrvx.sol\":2652:2670  TriviaBase _trivia */\n      dup1\n        /* \"contracts/typetrvx.sol\":2673:2689  new TriviaBase() */\n      mload(0x40)\n      tag_14\n      swap1\n      tag_15\n      jump\t// in\n    tag_14:\n      mload(0x40)\n      dup1\n      swap2\n      sub\n      swap1\n      0x00\n      create\n      dup1\n      iszero\n      dup1\n      iszero\n      tag_16\n      jumpi\n      returndatasize\n      0x00\n      dup1\n      returndatacopy\n      revert(0x00, returndatasize)\n    tag_16:\n      pop\n        /* \"contracts/typetrvx.sol\":2652:2689  TriviaBase _trivia = new TriviaBase() */\n      swap1\n      pop\n        /* \"contracts/typetrvx.sol\":2714:2721  _trivia */\n      dup1\n        /* \"contracts/typetrvx.sol\":2699:2722  return address(_trivia) */\n      swap2\n      pop\n      pop\n        /* \"contracts/typetrvx.sol\":2584:2729  function createTriviaContract() external returns(address) {... */\n      swap1\n      jump\t// out\n    tag_15:\n      dataSize(sub_0)\n      dup1\n      dataOffset(sub_0)\n      dup4\n      codecopy\n      add\n      swap1\n      jump\t// out\n        /* \"#utility.yul\":7:133   */\n    tag_17:\n        /* \"#utility.yul\":44:51   */\n      0x00\n        /* \"#utility.yul\":84:126   */\n      0xffffffffffffffffffffffffffffffffffffffff\n        /* \"#utility.yul\":77:82   */\n      dup3\n        /* \"#utility.yul\":73:127   */\n      and\n        /* \"#utility.yul\":62:127   */\n      swap1\n      pop\n        /* \"#utility.yul\":7:133   */\n      swap2\n      swap1\n      pop\n      jump\t// out\n        /* \"#utility.yul\":139:235   */\n    tag_18:\n        /* \"#utility.yul\":176:183   */\n      0x00\n        /* \"#utility.yul\":205:229   */\n      tag_23\n        /* \"#utility.yul\":223:228   */\n      dup3\n        /* \"#utility.yul\":205:229   */\n      tag_17\n      jump\t// in\n    tag_23:\n        /* \"#utility.yul\":194:229   */\n      swap1\n      pop\n        /* \"#utility.yul\":139:235   */\n      swap2\n      swap1\n      pop\n      jump\t// out\n        /* \"#utility.yul\":241:359   */\n    tag_19:\n        /* \"#utility.yul\":328:352   */\n      tag_25\n        /* \"#utility.yul\":346:351   */\n      dup2\n        /* \"#utility.yul\":328:352   */\n      tag_18\n      jump\t// in\n    tag_25:\n        /* \"#utility.yul\":323:326   */\n      dup3\n        /* \"#utility.yul\":316:353   */\n      mstore\n        /* \"#utility.yul\":241:359   */\n      pop\n      pop\n      jump\t// out\n        /* \"#utility.yul\":365:587   */\n    tag_8:\n        /* \"#utility.yul\":458:462   */\n      0x00\n        /* \"#utility.yul\":496:498   */\n      0x20\n        /* \"#utility.yul\":485:494   */\n      dup3\n        /* \"#utility.yul\":481:499   */\n      add\n        /* \"#utility.yul\":473:499   */\n      swap1\n      pop\n        /* \"#utility.yul\":509:580   */\n      tag_27\n        /* \"#utility.yul\":577:578   */\n      0x00\n        /* \"#utility.yul\":566:575   */\n      dup4\n        /* \"#utility.yul\":562:579   */\n      add\n        /* \"#utility.yul\":553:559   */\n      dup5\n        /* \"#utility.yul\":509:580   */\n      tag_19\n      jump\t// in\n    tag_27:\n        /* \"#utility.yul\":365:587   */\n      swap3\n      swap2\n      pop\n      pop\n      jump\t// out\n    stop\n\n    sub_0: assembly {\n            /* \"contracts/typetrvx.sol\":425:2546  contract TriviaBase{... */\n          mstore(0x40, 0x80)\n          callvalue\n          dup1\n          iszero\n          tag_1\n          jumpi\n          0x00\n          dup1\n          revert\n        tag_1:\n          pop\n          dataSize(sub_0)\n          dup1\n          dataOffset(sub_0)\n          0x00\n          codecopy\n          0x00\n          return\n        stop\n\n        sub_0: assembly {\n                /* \"contracts/typetrvx.sol\":425:2546  contract TriviaBase{... */\n              mstore(0x40, 0x80)\n              callvalue\n              dup1\n              iszero\n              tag_1\n              jumpi\n              0x00\n              dup1\n              revert\n            tag_1:\n              pop\n              jumpi(tag_2, lt(calldatasize, 0x04))\n              shr(0xe0, calldataload(0x00))\n              dup1\n              0x3b668059\n              eq\n              tag_3\n              jumpi\n              dup1\n              0xb0690867\n              eq\n              tag_4\n              jumpi\n              dup1\n              0xd3e62601\n              eq\n              tag_5\n              jumpi\n            tag_2:\n              0x00\n              dup1\n              revert\n                /* \"contracts/typetrvx.sol\":1903:2082  function ContractBalance() external view returns(uint){... */\n            tag_3:\n              tag_6\n              tag_7\n              jump\t// in\n            tag_6:\n              mload(0x40)\n              tag_8\n              swap2\n              swap1\n              tag_9\n              jump\t// in\n            tag_8:\n              mload(0x40)\n              dup1\n              swap2\n              sub\n              swap1\n              return\n                /* \"contracts/typetrvx.sol\":1026:1898  function sndRewards(address[] memory _users) external {... */\n            tag_4:\n              tag_10\n              0x04\n              dup1\n              calldatasize\n              sub\n              dup2\n              add\n              swap1\n              tag_11\n              swap2\n              swap1\n              tag_12\n              jump\t// in\n            tag_11:\n              tag_13\n              jump\t// in\n            tag_10:\n              stop\n                /* \"contracts/typetrvx.sol\":735:1021  function transferFunctionUsdc(uint _amount) external returns(address _sender) {... */\n            tag_5:\n              tag_14\n              0x04\n              dup1\n              calldatasize\n              sub\n              dup2\n              add\n              swap1\n              tag_15\n              swap2\n              swap1\n              tag_16\n              jump\t// in\n            tag_15:\n              tag_17\n              jump\t// in\n            tag_14:\n              mload(0x40)\n              tag_18\n              swap2\n              swap1\n              tag_19\n              jump\t// in\n            tag_18:\n              mload(0x40)\n              dup1\n              swap2\n              sub\n              swap1\n              return\n                /* \"contracts/typetrvx.sol\":1903:2082  function ContractBalance() external view returns(uint){... */\n            tag_7:\n                /* \"contracts/typetrvx.sol\":1952:1956  uint */\n              0x00\n                /* \"contracts/typetrvx.sol\":1967:1988  uint _contractBalance */\n              dup1\n                /* \"contracts/typetrvx.sol\":647:652  1*1e6 */\n              0x0f4240\n                /* \"contracts/typetrvx.sol\":490:532  0xb634247Abf7A50Dd7b9Cf6671A3e83F34f5f78D0 */\n              0xb634247abf7a50dd7b9cf6671a3e83f34f5f78d0\n                /* \"contracts/typetrvx.sol\":1992:2023  IERC20(usdcMockToken).balanceOf */\n              0xffffffffffffffffffffffffffffffffffffffff\n              and\n              0x70a08231\n                /* \"contracts/typetrvx.sol\":2032:2036  this */\n              address\n                /* \"contracts/typetrvx.sol\":1992:2038  IERC20(usdcMockToken).balanceOf(address(this)) */\n              mload(0x40)\n              dup3\n              0xffffffff\n              and\n              0xe0\n              shl\n              dup2\n              mstore\n              0x04\n              add\n              tag_21\n              swap2\n              swap1\n              tag_19\n              jump\t// in\n            tag_21:\n              0x20\n              mload(0x40)\n              dup1\n              dup4\n              sub\n              dup2\n              dup7\n              gas\n              staticcall\n              iszero\n              dup1\n              iszero\n              tag_23\n              jumpi\n              returndatasize\n              0x00\n              dup1\n              returndatacopy\n              revert(0x00, returndatasize)\n            tag_23:\n              pop\n              pop\n              pop\n              pop\n              mload(0x40)\n              returndatasize\n              not(0x1f)\n              0x1f\n              dup3\n              add\n              and\n              dup3\n              add\n              dup1\n              0x40\n              mstore\n              pop\n              dup2\n              add\n              swap1\n              tag_24\n              swap2\n              swap1\n              tag_25\n              jump\t// in\n            tag_24:\n                /* \"contracts/typetrvx.sol\":1992:2042  IERC20(usdcMockToken).balanceOf(address(this))/dec */\n              tag_26\n              swap2\n              swap1\n              tag_27\n              jump\t// in\n            tag_26:\n                /* \"contracts/typetrvx.sol\":1967:2042  uint _contractBalance =  IERC20(usdcMockToken).balanceOf(address(this))/dec */\n              swap1\n              pop\n                /* \"contracts/typetrvx.sol\":2059:2075  _contractBalance */\n              dup1\n                /* \"contracts/typetrvx.sol\":2052:2075  return _contractBalance */\n              swap2\n              pop\n              pop\n                /* \"contracts/typetrvx.sol\":1903:2082  function ContractBalance() external view returns(uint){... */\n              swap1\n              jump\t// out\n                /* \"contracts/typetrvx.sol\":1026:1898  function sndRewards(address[] memory _users) external {... */\n            tag_13:\n                /* \"contracts/typetrvx.sol\":1090:1116  address[3] memory _winners */\n              tag_29\n              tag_30\n              jump\t// in\n            tag_29:\n                /* \"contracts/typetrvx.sol\":1241:1247  _users */\n              dup2\n                /* \"contracts/typetrvx.sol\":1248:1249  0 */\n              0x00\n                /* \"contracts/typetrvx.sol\":1241:1250  _users[0] */\n              dup2\n              mload\n              dup2\n              lt\n              tag_31\n              jumpi\n              tag_32\n              tag_33\n              jump\t// in\n            tag_32:\n            tag_31:\n              0x20\n              mul\n              0x20\n              add\n              add\n              mload\n                /* \"contracts/typetrvx.sol\":1227:1235  _winners */\n              dup2\n                /* \"contracts/typetrvx.sol\":1236:1237  0 */\n              0x00\n                /* \"contracts/typetrvx.sol\":1227:1238  _winners[0] */\n              0x03\n              dup2\n              lt\n              tag_34\n              jumpi\n              tag_35\n              tag_33\n              jump\t// in\n            tag_35:\n            tag_34:\n              0x20\n              mul\n              add\n                /* \"contracts/typetrvx.sol\":1227:1250  _winners[0] = _users[0] */\n              swap1\n              0xffffffffffffffffffffffffffffffffffffffff\n              and\n              swap1\n              dup2\n              0xffffffffffffffffffffffffffffffffffffffff\n              and\n              dup2\n              mstore\n              pop\n              pop\n                /* \"contracts/typetrvx.sol\":1274:1280  _users */\n              dup2\n                /* \"contracts/typetrvx.sol\":1281:1282  1 */\n              0x01\n                /* \"contracts/typetrvx.sol\":1274:1283  _users[1] */\n              dup2\n              mload\n              dup2\n              lt\n              tag_36\n              jumpi\n              tag_37\n              tag_33\n              jump\t// in\n            tag_37:\n            tag_36:\n              0x20\n              mul\n              0x20\n              add\n              add\n              mload\n                /* \"contracts/typetrvx.sol\":1260:1268  _winners */\n              dup2\n                /* \"contracts/typetrvx.sol\":1269:1270  1 */\n              0x01\n                /* \"contracts/typetrvx.sol\":1260:1271  _winners[1] */\n              0x03\n              dup2\n              lt\n              tag_38\n              jumpi\n              tag_39\n              tag_33\n              jump\t// in\n            tag_39:\n            tag_38:\n              0x20\n              mul\n              add\n                /* \"contracts/typetrvx.sol\":1260:1283  _winners[1] = _users[1] */\n              swap1\n              0xffffffffffffffffffffffffffffffffffffffff\n              and\n              swap1\n              dup2\n              0xffffffffffffffffffffffffffffffffffffffff\n              and\n              dup2\n              mstore\n              pop\n              pop\n                /* \"contracts/typetrvx.sol\":1307:1313  _users */\n              dup2\n                /* \"contracts/typetrvx.sol\":1314:1315  2 */\n              0x02\n                /* \"contracts/typetrvx.sol\":1307:1316  _users[2] */\n              dup2\n              mload\n              dup2\n              lt\n              tag_40\n              jumpi\n              tag_41\n              tag_33\n              jump\t// in\n            tag_41:\n            tag_40:\n              0x20\n              mul\n              0x20\n              add\n              add\n              mload\n                /* \"contracts/typetrvx.sol\":1293:1301  _winners */\n              dup2\n                /* \"contracts/typetrvx.sol\":1302:1303  2 */\n              0x02\n                /* \"contracts/typetrvx.sol\":1293:1304  _winners[2] */\n              0x03\n              dup2\n              lt\n              tag_42\n              jumpi\n              tag_43\n              tag_33\n              jump\t// in\n            tag_43:\n            tag_42:\n              0x20\n              mul\n              add\n                /* \"contracts/typetrvx.sol\":1293:1316  _winners[2] = _users[2] */\n              swap1\n              0xffffffffffffffffffffffffffffffffffffffff\n              and\n              swap1\n              dup2\n              0xffffffffffffffffffffffffffffffffffffffff\n              and\n              dup2\n              mstore\n              pop\n              pop\n                /* \"contracts/typetrvx.sol\":1326:1346  uint contractRewards */\n              0x00\n                /* \"contracts/typetrvx.sol\":490:532  0xb634247Abf7A50Dd7b9Cf6671A3e83F34f5f78D0 */\n              0xb634247abf7a50dd7b9cf6671a3e83f34f5f78d0\n                /* \"contracts/typetrvx.sol\":1350:1381  IERC20(usdcMockToken).balanceOf */\n              0xffffffffffffffffffffffffffffffffffffffff\n              and\n              0x70a08231\n                /* \"contracts/typetrvx.sol\":1390:1394  this */\n              address\n                /* \"contracts/typetrvx.sol\":1350:1396  IERC20(usdcMockToken).balanceOf(address(this)) */\n              mload(0x40)\n              dup3\n              0xffffffff\n              and\n              0xe0\n              shl\n              dup2\n              mstore\n              0x04\n              add\n              tag_44\n              swap2\n              swap1\n              tag_19\n              jump\t// in\n            tag_44:\n              0x20\n              mload(0x40)\n              dup1\n              dup4\n              sub\n              dup2\n              dup7\n              gas\n              staticcall\n              iszero\n              dup1\n              iszero\n              tag_46\n              jumpi\n              returndatasize\n              0x00\n              dup1\n              returndatacopy\n              revert(0x00, returndatasize)\n            tag_46:\n              pop\n              pop\n              pop\n              pop\n              mload(0x40)\n              returndatasize\n              not(0x1f)\n              0x1f\n              dup3\n              add\n              and\n              dup3\n              add\n              dup1\n              0x40\n              mstore\n              pop\n              dup2\n              add\n              swap1\n              tag_47\n              swap2\n              swap1\n              tag_25\n              jump\t// in\n            tag_47:\n                /* \"contracts/typetrvx.sol\":1326:1396  uint contractRewards =  IERC20(usdcMockToken).balanceOf(address(this)) */\n              swap1\n              pop\n                /* \"contracts/typetrvx.sol\":1428:1429  0 */\n              0x00\n                /* \"contracts/typetrvx.sol\":1409:1424  contractRewards */\n              dup2\n                /* \"contracts/typetrvx.sol\":1409:1429  contractRewards == 0 */\n              sub\n                /* \"contracts/typetrvx.sol\":1406:1491  if(contractRewards == 0){... */\n              tag_48\n              jumpi\n                /* \"contracts/typetrvx.sol\":1451:1480  insufficientContractBalance() */\n              mload(0x40)\n              0xb09959a600000000000000000000000000000000000000000000000000000000\n              dup2\n              mstore\n              0x04\n              add\n              mload(0x40)\n              dup1\n              swap2\n              sub\n              swap1\n              revert\n                /* \"contracts/typetrvx.sol\":1406:1491  if(contractRewards == 0){... */\n            tag_48:\n                /* \"contracts/typetrvx.sol\":1500:1516  uint firstPlayer */\n              0x00\n                /* \"contracts/typetrvx.sol\":647:652  1*1e6 */\n              0x0f4240\n                /* \"contracts/typetrvx.sol\":1549:1552  100 */\n              0x64\n                /* \"contracts/typetrvx.sol\":1549:1558  100 * dec */\n              tag_49\n              swap2\n              swap1\n              tag_50\n              jump\t// in\n            tag_49:\n                /* \"contracts/typetrvx.sol\":647:652  1*1e6 */\n              0x0f4240\n                /* \"contracts/typetrvx.sol\":1525:1540  contractRewards */\n              dup4\n                /* \"contracts/typetrvx.sol\":1520:1522  58 */\n              0x3a\n                /* \"contracts/typetrvx.sol\":1520:1540  58 * contractRewards */\n              tag_51\n              swap2\n              swap1\n              tag_50\n              jump\t// in\n            tag_51:\n                /* \"contracts/typetrvx.sol\":1520:1546  58 * contractRewards * dec */\n              tag_52\n              swap2\n              swap1\n              tag_50\n              jump\t// in\n            tag_52:\n                /* \"contracts/typetrvx.sol\":1519:1559  (58 * contractRewards * dec)/(100 * dec) */\n              tag_53\n              swap2\n              swap1\n              tag_27\n              jump\t// in\n            tag_53:\n                /* \"contracts/typetrvx.sol\":1500:1559  uint firstPlayer = (58 * contractRewards * dec)/(100 * dec) */\n              swap1\n              pop\n                /* \"contracts/typetrvx.sol\":1569:1586  uint secondPlayer */\n              0x00\n                /* \"contracts/typetrvx.sol\":647:652  1*1e6 */\n              0x0f4240\n                /* \"contracts/typetrvx.sol\":1619:1622  100 */\n              0x64\n                /* \"contracts/typetrvx.sol\":1619:1628  100 * dec */\n              tag_54\n              swap2\n              swap1\n              tag_50\n              jump\t// in\n            tag_54:\n                /* \"contracts/typetrvx.sol\":647:652  1*1e6 */\n              0x0f4240\n                /* \"contracts/typetrvx.sol\":1595:1610  contractRewards */\n              dup5\n                /* \"contracts/typetrvx.sol\":1590:1592  29 */\n              0x1d\n                /* \"contracts/typetrvx.sol\":1590:1610  29 * contractRewards */\n              tag_55\n              swap2\n              swap1\n              tag_50\n              jump\t// in\n            tag_55:\n                /* \"contracts/typetrvx.sol\":1590:1616  29 * contractRewards * dec */\n              tag_56\n              swap2\n              swap1\n              tag_50\n              jump\t// in\n            tag_56:\n                /* \"contracts/typetrvx.sol\":1589:1629  (29 * contractRewards * dec)/(100 * dec) */\n              tag_57\n              swap2\n              swap1\n              tag_27\n              jump\t// in\n            tag_57:\n                /* \"contracts/typetrvx.sol\":1569:1629  uint secondPlayer = (29 * contractRewards * dec)/(100 * dec) */\n              swap1\n              pop\n                /* \"contracts/typetrvx.sol\":1639:1655  uint thirdPlayer */\n              0x00\n                /* \"contracts/typetrvx.sol\":647:652  1*1e6 */\n              0x0f4240\n                /* \"contracts/typetrvx.sol\":1687:1690  100 */\n              0x64\n                /* \"contracts/typetrvx.sol\":1687:1696  100 * dec */\n              tag_58\n              swap2\n              swap1\n              tag_50\n              jump\t// in\n            tag_58:\n                /* \"contracts/typetrvx.sol\":647:652  1*1e6 */\n              0x0f4240\n                /* \"contracts/typetrvx.sol\":1663:1678  contractRewards */\n              dup6\n                /* \"contracts/typetrvx.sol\":1659:1660  9 */\n              0x09\n                /* \"contracts/typetrvx.sol\":1659:1678  9 * contractRewards */\n              tag_59\n              swap2\n              swap1\n              tag_50\n              jump\t// in\n            tag_59:\n                /* \"contracts/typetrvx.sol\":1659:1684  9 * contractRewards * dec */\n              tag_60\n              swap2\n              swap1\n              tag_50\n              jump\t// in\n            tag_60:\n                /* \"contracts/typetrvx.sol\":1658:1697  (9 * contractRewards * dec)/(100 * dec) */\n              tag_61\n              swap2\n              swap1\n              tag_27\n              jump\t// in\n            tag_61:\n                /* \"contracts/typetrvx.sol\":1639:1697  uint thirdPlayer = (9 * contractRewards * dec)/(100 * dec) */\n              swap1\n              pop\n                /* \"contracts/typetrvx.sol\":490:532  0xb634247Abf7A50Dd7b9Cf6671A3e83F34f5f78D0 */\n              0xb634247abf7a50dd7b9cf6671a3e83f34f5f78d0\n                /* \"contracts/typetrvx.sol\":1708:1738  IERC20(usdcMockToken).transfer */\n              0xffffffffffffffffffffffffffffffffffffffff\n              and\n              0xa9059cbb\n                /* \"contracts/typetrvx.sol\":1739:1746  winners */\n              0x00\n                /* \"contracts/typetrvx.sol\":1747:1748  0 */\n              dup1\n                /* \"contracts/typetrvx.sol\":1739:1749  winners[0] */\n              dup2\n              sload\n              dup2\n              lt\n              tag_62\n              jumpi\n              tag_63\n              tag_33\n              jump\t// in\n            tag_63:\n            tag_62:\n              swap1\n              0x00\n              mstore\n              keccak256(0x00, 0x20)\n              add\n              0x00\n              swap1\n              sload\n              swap1\n              0x0100\n              exp\n              swap1\n              div\n              0xffffffffffffffffffffffffffffffffffffffff\n              and\n                /* \"contracts/typetrvx.sol\":1750:1761  firstPlayer */\n              dup6\n                /* \"contracts/typetrvx.sol\":1708:1762  IERC20(usdcMockToken).transfer(winners[0],firstPlayer) */\n              mload(0x40)\n              dup4\n              0xffffffff\n              and\n              0xe0\n              shl\n              dup2\n              mstore\n              0x04\n              add\n              tag_65\n              swap3\n              swap2\n              swap1\n              tag_66\n              jump\t// in\n            tag_65:\n              0x20\n              mload(0x40)\n              dup1\n              dup4\n              sub\n              dup2\n              0x00\n              dup8\n              gas\n              call\n              iszero\n              dup1\n              iszero\n              tag_68\n              jumpi\n              returndatasize\n              0x00\n              dup1\n              returndatacopy\n              revert(0x00, returndatasize)\n            tag_68:\n              pop\n              pop\n              pop\n              pop\n              mload(0x40)\n              returndatasize\n              not(0x1f)\n              0x1f\n              dup3\n              add\n              and\n              dup3\n              add\n              dup1\n              0x40\n              mstore\n              pop\n              dup2\n              add\n              swap1\n              tag_69\n              swap2\n              swap1\n              tag_70\n              jump\t// in\n            tag_69:\n              pop\n                /* \"contracts/typetrvx.sol\":490:532  0xb634247Abf7A50Dd7b9Cf6671A3e83F34f5f78D0 */\n              0xb634247abf7a50dd7b9cf6671a3e83f34f5f78d0\n                /* \"contracts/typetrvx.sol\":1772:1802  IERC20(usdcMockToken).transfer */\n              0xffffffffffffffffffffffffffffffffffffffff\n              and\n              0xa9059cbb\n                /* \"contracts/typetrvx.sol\":1803:1810  winners */\n              0x00\n                /* \"contracts/typetrvx.sol\":1811:1812  1 */\n              0x01\n                /* \"contracts/typetrvx.sol\":1803:1813  winners[1] */\n              dup2\n              sload\n              dup2\n              lt\n              tag_71\n              jumpi\n              tag_72\n              tag_33\n              jump\t// in\n            tag_72:\n            tag_71:\n              swap1\n              0x00\n              mstore\n              keccak256(0x00, 0x20)\n              add\n              0x00\n              swap1\n              sload\n              swap1\n              0x0100\n              exp\n              swap1\n              div\n              0xffffffffffffffffffffffffffffffffffffffff\n              and\n                /* \"contracts/typetrvx.sol\":1814:1826  secondPlayer */\n              dup5\n                /* \"contracts/typetrvx.sol\":1772:1827  IERC20(usdcMockToken).transfer(winners[1],secondPlayer) */\n              mload(0x40)\n              dup4\n              0xffffffff\n              and\n              0xe0\n              shl\n              dup2\n              mstore\n              0x04\n              add\n              tag_74\n              swap3\n              swap2\n              swap1\n              tag_66\n              jump\t// in\n            tag_74:\n              0x20\n              mload(0x40)\n              dup1\n              dup4\n              sub\n              dup2\n              0x00\n              dup8\n              gas\n              call\n              iszero\n              dup1\n              iszero\n              tag_76\n              jumpi\n              returndatasize\n              0x00\n              dup1\n              returndatacopy\n              revert(0x00, returndatasize)\n            tag_76:\n              pop\n              pop\n              pop\n              pop\n              mload(0x40)\n              returndatasize\n              not(0x1f)\n              0x1f\n              dup3\n              add\n              and\n              dup3\n              add\n              dup1\n              0x40\n              mstore\n              pop\n              dup2\n              add\n              swap1\n              tag_77\n              swap2\n              swap1\n              tag_70\n              jump\t// in\n            tag_77:\n              pop\n                /* \"contracts/typetrvx.sol\":490:532  0xb634247Abf7A50Dd7b9Cf6671A3e83F34f5f78D0 */\n              0xb634247abf7a50dd7b9cf6671a3e83f34f5f78d0\n                /* \"contracts/typetrvx.sol\":1837:1867  IERC20(usdcMockToken).transfer */\n              0xffffffffffffffffffffffffffffffffffffffff\n              and\n              0xa9059cbb\n                /* \"contracts/typetrvx.sol\":1868:1875  winners */\n              0x00\n                /* \"contracts/typetrvx.sol\":1876:1877  2 */\n              0x02\n                /* \"contracts/typetrvx.sol\":1868:1878  winners[2] */\n              dup2\n              sload\n              dup2\n              lt\n              tag_78\n              jumpi\n              tag_79\n              tag_33\n              jump\t// in\n            tag_79:\n            tag_78:\n              swap1\n              0x00\n              mstore\n              keccak256(0x00, 0x20)\n              add\n              0x00\n              swap1\n              sload\n              swap1\n              0x0100\n              exp\n              swap1\n              div\n              0xffffffffffffffffffffffffffffffffffffffff\n              and\n                /* \"contracts/typetrvx.sol\":1879:1890  thirdPlayer */\n              dup4\n                /* \"contracts/typetrvx.sol\":1837:1891  IERC20(usdcMockToken).transfer(winners[2],thirdPlayer) */\n              mload(0x40)\n              dup4\n              0xffffffff\n              and\n              0xe0\n              shl\n              dup2\n              mstore\n              0x04\n              add\n              tag_81\n              swap3\n              swap2\n              swap1\n              tag_66\n              jump\t// in\n            tag_81:\n              0x20\n              mload(0x40)\n              dup1\n              dup4\n              sub\n              dup2\n              0x00\n              dup8\n              gas\n              call\n              iszero\n              dup1\n              iszero\n              tag_83\n              jumpi\n              returndatasize\n              0x00\n              dup1\n              returndatacopy\n              revert(0x00, returndatasize)\n            tag_83:\n              pop\n              pop\n              pop\n              pop\n              mload(0x40)\n              returndatasize\n              not(0x1f)\n              0x1f\n              dup3\n              add\n              and\n              dup3\n              add\n              dup1\n              0x40\n              mstore\n              pop\n              dup2\n              add\n              swap1\n              tag_84\n              swap2\n              swap1\n              tag_70\n              jump\t// in\n            tag_84:\n              pop\n                /* \"contracts/typetrvx.sol\":1080:1898  {... */\n              pop\n              pop\n              pop\n              pop\n              pop\n                /* \"contracts/typetrvx.sol\":1026:1898  function sndRewards(address[] memory _users) external {... */\n              pop\n              jump\t// out\n                /* \"contracts/typetrvx.sol\":735:1021  function transferFunctionUsdc(uint _amount) external returns(address _sender) {... */\n            tag_17:\n                /* \"contracts/typetrvx.sol\":796:811  address _sender */\n              0x00\n                /* \"contracts/typetrvx.sol\":876:883  _amount */\n              dup2\n                /* \"contracts/typetrvx.sol\":490:532  0xb634247Abf7A50Dd7b9Cf6671A3e83F34f5f78D0 */\n              0xb634247abf7a50dd7b9cf6671a3e83f34f5f78d0\n                /* \"contracts/typetrvx.sol\":831:862  IERC20(usdcMockToken).balanceOf */\n              0xffffffffffffffffffffffffffffffffffffffff\n              and\n              0x70a08231\n                /* \"contracts/typetrvx.sol\":863:873  msg.sender */\n              caller\n                /* \"contracts/typetrvx.sol\":831:874  IERC20(usdcMockToken).balanceOf(msg.sender) */\n              mload(0x40)\n              dup3\n              0xffffffff\n              and\n              0xe0\n              shl\n              dup2\n              mstore\n              0x04\n              add\n              tag_86\n              swap2\n              swap1\n              tag_19\n              jump\t// in\n            tag_86:\n              0x20\n              mload(0x40)\n              dup1\n              dup4\n              sub\n              dup2\n              dup7\n              gas\n              staticcall\n              iszero\n              dup1\n              iszero\n              tag_88\n              jumpi\n              returndatasize\n              0x00\n              dup1\n              returndatacopy\n              revert(0x00, returndatasize)\n            tag_88:\n              pop\n              pop\n              pop\n              pop\n              mload(0x40)\n              returndatasize\n              not(0x1f)\n              0x1f\n              dup3\n              add\n              and\n              dup3\n              add\n              dup1\n              0x40\n              mstore\n              pop\n              dup2\n              add\n              swap1\n              tag_89\n              swap2\n              swap1\n              tag_25\n              jump\t// in\n            tag_89:\n                /* \"contracts/typetrvx.sol\":831:883  IERC20(usdcMockToken).balanceOf(msg.sender)>=_amount */\n              lt\n              iszero\n                /* \"contracts/typetrvx.sol\":823:907  require(IERC20(usdcMockToken).balanceOf(msg.sender)>=_amount, \"Insufficent Balance\") */\n              tag_90\n              jumpi\n              mload(0x40)\n              0x08c379a000000000000000000000000000000000000000000000000000000000\n              dup2\n              mstore\n              0x04\n              add\n              tag_91\n              swap1\n              tag_92\n              jump\t// in\n            tag_91:\n              mload(0x40)\n              dup1\n              swap2\n              sub\n              swap1\n              revert\n            tag_90:\n                /* \"contracts/typetrvx.sol\":490:532  0xb634247Abf7A50Dd7b9Cf6671A3e83F34f5f78D0 */\n              0xb634247abf7a50dd7b9cf6671a3e83f34f5f78d0\n                /* \"contracts/typetrvx.sol\":917:951  IERC20(usdcMockToken).transferFrom */\n              0xffffffffffffffffffffffffffffffffffffffff\n              and\n              0x23b872dd\n                /* \"contracts/typetrvx.sol\":952:962  msg.sender */\n              caller\n                /* \"contracts/typetrvx.sol\":972:976  this */\n              address\n                /* \"contracts/typetrvx.sol\":979:986  _amount */\n              dup6\n                /* \"contracts/typetrvx.sol\":917:987  IERC20(usdcMockToken).transferFrom(msg.sender, address(this), _amount) */\n              mload(0x40)\n              dup5\n              0xffffffff\n              and\n              0xe0\n              shl\n              dup2\n              mstore\n              0x04\n              add\n              tag_93\n              swap4\n              swap3\n              swap2\n              swap1\n              tag_94\n              jump\t// in\n            tag_93:\n              0x20\n              mload(0x40)\n              dup1\n              dup4\n              sub\n              dup2\n              0x00\n              dup8\n              gas\n              call\n              iszero\n              dup1\n              iszero\n              tag_96\n              jumpi\n              returndatasize\n              0x00\n              dup1\n              returndatacopy\n              revert(0x00, returndatasize)\n            tag_96:\n              pop\n              pop\n              pop\n              pop\n              mload(0x40)\n              returndatasize\n              not(0x1f)\n              0x1f\n              dup3\n              add\n              and\n              dup3\n              add\n              dup1\n              0x40\n              mstore\n              pop\n              dup2\n              add\n              swap1\n              tag_97\n              swap2\n              swap1\n              tag_70\n              jump\t// in\n            tag_97:\n              pop\n                /* \"contracts/typetrvx.sol\":1004:1014  msg.sender */\n              caller\n                /* \"contracts/typetrvx.sol\":997:1014  return msg.sender */\n              swap1\n              pop\n                /* \"contracts/typetrvx.sol\":735:1021  function transferFunctionUsdc(uint _amount) external returns(address _sender) {... */\n              swap2\n              swap1\n              pop\n              jump\t// out\n            tag_30:\n              mload(0x40)\n              dup1\n              0x60\n              add\n              0x40\n              mstore\n              dup1\n              0x03\n              swap1\n              0x20\n              dup3\n              mul\n              dup1\n              calldatasize\n              dup4\n              calldatacopy\n              dup1\n              dup3\n              add\n              swap2\n              pop\n              pop\n              swap1\n              pop\n              pop\n              swap1\n              jump\t// out\n                /* \"#utility.yul\":7:84   */\n            tag_98:\n                /* \"#utility.yul\":44:51   */\n              0x00\n                /* \"#utility.yul\":73:78   */\n              dup2\n                /* \"#utility.yul\":62:78   */\n              swap1\n              pop\n                /* \"#utility.yul\":7:84   */\n              swap2\n              swap1\n              pop\n              jump\t// out\n                /* \"#utility.yul\":90:208   */\n            tag_99:\n                /* \"#utility.yul\":177:201   */\n              tag_131\n                /* \"#utility.yul\":195:200   */\n              dup2\n                /* \"#utility.yul\":177:201   */\n              tag_98\n              jump\t// in\n            tag_131:\n                /* \"#utility.yul\":172:175   */\n              dup3\n                /* \"#utility.yul\":165:202   */\n              mstore\n                /* \"#utility.yul\":90:208   */\n              pop\n              pop\n              jump\t// out\n                /* \"#utility.yul\":214:436   */\n            tag_9:\n                /* \"#utility.yul\":307:311   */\n              0x00\n                /* \"#utility.yul\":345:347   */\n              0x20\n                /* \"#utility.yul\":334:343   */\n              dup3\n                /* \"#utility.yul\":330:348   */\n              add\n                /* \"#utility.yul\":322:348   */\n              swap1\n              pop\n                /* \"#utility.yul\":358:429   */\n              tag_133\n                /* \"#utility.yul\":426:427   */\n              0x00\n                /* \"#utility.yul\":415:424   */\n              dup4\n                /* \"#utility.yul\":411:428   */\n              add\n                /* \"#utility.yul\":402:408   */\n              dup5\n                /* \"#utility.yul\":358:429   */\n              tag_99\n              jump\t// in\n            tag_133:\n                /* \"#utility.yul\":214:436   */\n              swap3\n              swap2\n              pop\n              pop\n              jump\t// out\n                /* \"#utility.yul\":442:517   */\n            tag_100:\n                /* \"#utility.yul\":475:481   */\n              0x00\n                /* \"#utility.yul\":508:510   */\n              0x40\n                /* \"#utility.yul\":502:511   */\n              mload\n                /* \"#utility.yul\":492:511   */\n              swap1\n              pop\n                /* \"#utility.yul\":442:517   */\n              swap1\n              jump\t// out\n                /* \"#utility.yul\":523:640   */\n            tag_101:\n                /* \"#utility.yul\":632:633   */\n              0x00\n                /* \"#utility.yul\":629:630   */\n              dup1\n                /* \"#utility.yul\":622:634   */\n              revert\n                /* \"#utility.yul\":646:763   */\n            tag_102:\n                /* \"#utility.yul\":755:756   */\n              0x00\n                /* \"#utility.yul\":752:753   */\n              dup1\n                /* \"#utility.yul\":745:757   */\n              revert\n                /* \"#utility.yul\":769:886   */\n            tag_103:\n                /* \"#utility.yul\":878:879   */\n              0x00\n                /* \"#utility.yul\":875:876   */\n              dup1\n                /* \"#utility.yul\":868:880   */\n              revert\n                /* \"#utility.yul\":892:994   */\n            tag_104:\n                /* \"#utility.yul\":933:939   */\n              0x00\n                /* \"#utility.yul\":984:986   */\n              0x1f\n                /* \"#utility.yul\":980:987   */\n              not\n                /* \"#utility.yul\":975:977   */\n              0x1f\n                /* \"#utility.yul\":968:973   */\n              dup4\n                /* \"#utility.yul\":964:978   */\n              add\n                /* \"#utility.yul\":960:988   */\n              and\n                /* \"#utility.yul\":950:988   */\n              swap1\n              pop\n                /* \"#utility.yul\":892:994   */\n              swap2\n              swap1\n              pop\n              jump\t// out\n                /* \"#utility.yul\":1000:1180   */\n            tag_105:\n                /* \"#utility.yul\":1048:1125   */\n              0x4e487b7100000000000000000000000000000000000000000000000000000000\n                /* \"#utility.yul\":1045:1046   */\n              0x00\n                /* \"#utility.yul\":1038:1126   */\n              mstore\n                /* \"#utility.yul\":1145:1149   */\n              0x41\n                /* \"#utility.yul\":1142:1143   */\n              0x04\n                /* \"#utility.yul\":1135:1150   */\n              mstore\n                /* \"#utility.yul\":1169:1173   */\n              0x24\n                /* \"#utility.yul\":1166:1167   */\n              0x00\n                /* \"#utility.yul\":1159:1174   */\n              revert\n                /* \"#utility.yul\":1186:1467   */\n            tag_106:\n                /* \"#utility.yul\":1269:1296   */\n              tag_141\n                /* \"#utility.yul\":1291:1295   */\n              dup3\n                /* \"#utility.yul\":1269:1296   */\n              tag_104\n              jump\t// in\n            tag_141:\n                /* \"#utility.yul\":1261:1267   */\n              dup2\n                /* \"#utility.yul\":1257:1297   */\n              add\n                /* \"#utility.yul\":1399:1405   */\n              dup2\n                /* \"#utility.yul\":1387:1397   */\n              dup2\n                /* \"#utility.yul\":1384:1406   */\n              lt\n                /* \"#utility.yul\":1363:1381   */\n              0xffffffffffffffff\n                /* \"#utility.yul\":1351:1361   */\n              dup3\n                /* \"#utility.yul\":1348:1382   */\n              gt\n                /* \"#utility.yul\":1345:1407   */\n              or\n                /* \"#utility.yul\":1342:1430   */\n              iszero\n              tag_142\n              jumpi\n                /* \"#utility.yul\":1410:1428   */\n              tag_143\n              tag_105\n              jump\t// in\n            tag_143:\n                /* \"#utility.yul\":1342:1430   */\n            tag_142:\n                /* \"#utility.yul\":1450:1460   */\n              dup1\n                /* \"#utility.yul\":1446:1448   */\n              0x40\n                /* \"#utility.yul\":1439:1461   */\n              mstore\n                /* \"#utility.yul\":1229:1467   */\n              pop\n                /* \"#utility.yul\":1186:1467   */\n              pop\n              pop\n              jump\t// out\n                /* \"#utility.yul\":1473:1602   */\n            tag_107:\n                /* \"#utility.yul\":1507:1513   */\n              0x00\n                /* \"#utility.yul\":1534:1554   */\n              tag_145\n              tag_100\n              jump\t// in\n            tag_145:\n                /* \"#utility.yul\":1524:1554   */\n              swap1\n              pop\n                /* \"#utility.yul\":1563:1596   */\n              tag_146\n                /* \"#utility.yul\":1591:1595   */\n              dup3\n                /* \"#utility.yul\":1583:1589   */\n              dup3\n                /* \"#utility.yul\":1563:1596   */\n              tag_106\n              jump\t// in\n            tag_146:\n                /* \"#utility.yul\":1473:1602   */\n              swap2\n              swap1\n              pop\n              jump\t// out\n                /* \"#utility.yul\":1608:1919   */\n            tag_108:\n                /* \"#utility.yul\":1685:1689   */\n              0x00\n                /* \"#utility.yul\":1775:1793   */\n              0xffffffffffffffff\n                /* \"#utility.yul\":1767:1773   */\n              dup3\n                /* \"#utility.yul\":1764:1794   */\n              gt\n                /* \"#utility.yul\":1761:1817   */\n              iszero\n              tag_148\n              jumpi\n                /* \"#utility.yul\":1797:1815   */\n              tag_149\n              tag_105\n              jump\t// in\n            tag_149:\n                /* \"#utility.yul\":1761:1817   */\n            tag_148:\n                /* \"#utility.yul\":1847:1851   */\n              0x20\n                /* \"#utility.yul\":1839:1845   */\n              dup3\n                /* \"#utility.yul\":1835:1852   */\n              mul\n                /* \"#utility.yul\":1827:1852   */\n              swap1\n              pop\n                /* \"#utility.yul\":1907:1911   */\n              0x20\n                /* \"#utility.yul\":1901:1905   */\n              dup2\n                /* \"#utility.yul\":1897:1912   */\n              add\n                /* \"#utility.yul\":1889:1912   */\n              swap1\n              pop\n                /* \"#utility.yul\":1608:1919   */\n              swap2\n              swap1\n              pop\n              jump\t// out\n                /* \"#utility.yul\":1925:2042   */\n            tag_109:\n                /* \"#utility.yul\":2034:2035   */\n              0x00\n                /* \"#utility.yul\":2031:2032   */\n              dup1\n                /* \"#utility.yul\":2024:2036   */\n              revert\n                /* \"#utility.yul\":2048:2174   */\n            tag_110:\n                /* \"#utility.yul\":2085:2092   */\n              0x00\n                /* \"#utility.yul\":2125:2167   */\n              0xffffffffffffffffffffffffffffffffffffffff\n                /* \"#utility.yul\":2118:2123   */\n              dup3\n                /* \"#utility.yul\":2114:2168   */\n              and\n                /* \"#utility.yul\":2103:2168   */\n              swap1\n              pop\n                /* \"#utility.yul\":2048:2174   */\n              swap2\n              swap1\n              pop\n              jump\t// out\n                /* \"#utility.yul\":2180:2276   */\n            tag_111:\n                /* \"#utility.yul\":2217:2224   */\n              0x00\n                /* \"#utility.yul\":2246:2270   */\n              tag_153\n                /* \"#utility.yul\":2264:2269   */\n              dup3\n                /* \"#utility.yul\":2246:2270   */\n              tag_110\n              jump\t// in\n            tag_153:\n                /* \"#utility.yul\":2235:2270   */\n              swap1\n              pop\n                /* \"#utility.yul\":2180:2276   */\n              swap2\n              swap1\n              pop\n              jump\t// out\n                /* \"#utility.yul\":2282:2404   */\n            tag_112:\n                /* \"#utility.yul\":2355:2379   */\n              tag_155\n                /* \"#utility.yul\":2373:2378   */\n              dup2\n                /* \"#utility.yul\":2355:2379   */\n              tag_111\n              jump\t// in\n            tag_155:\n                /* \"#utility.yul\":2348:2353   */\n              dup2\n                /* \"#utility.yul\":2345:2380   */\n              eq\n                /* \"#utility.yul\":2335:2398   */\n              tag_156\n              jumpi\n                /* \"#utility.yul\":2394:2395   */\n              0x00\n                /* \"#utility.yul\":2391:2392   */\n              dup1\n                /* \"#utility.yul\":2384:2396   */\n              revert\n                /* \"#utility.yul\":2335:2398   */\n            tag_156:\n                /* \"#utility.yul\":2282:2404   */\n              pop\n              jump\t// out\n                /* \"#utility.yul\":2410:2549   */\n            tag_113:\n                /* \"#utility.yul\":2456:2461   */\n              0x00\n                /* \"#utility.yul\":2494:2500   */\n              dup2\n                /* \"#utility.yul\":2481:2501   */\n              calldataload\n                /* \"#utility.yul\":2472:2501   */\n              swap1\n              pop\n                /* \"#utility.yul\":2510:2543   */\n              tag_158\n                /* \"#utility.yul\":2537:2542   */\n              dup2\n                /* \"#utility.yul\":2510:2543   */\n              tag_112\n              jump\t// in\n            tag_158:\n                /* \"#utility.yul\":2410:2549   */\n              swap3\n              swap2\n              pop\n              pop\n              jump\t// out\n                /* \"#utility.yul\":2572:3282   */\n            tag_114:\n                /* \"#utility.yul\":2668:2673   */\n              0x00\n                /* \"#utility.yul\":2693:2774   */\n              tag_160\n                /* \"#utility.yul\":2709:2773   */\n              tag_161\n                /* \"#utility.yul\":2766:2772   */\n              dup5\n                /* \"#utility.yul\":2709:2773   */\n              tag_108\n              jump\t// in\n            tag_161:\n                /* \"#utility.yul\":2693:2774   */\n              tag_107\n              jump\t// in\n            tag_160:\n                /* \"#utility.yul\":2684:2774   */\n              swap1\n              pop\n                /* \"#utility.yul\":2794:2799   */\n              dup1\n                /* \"#utility.yul\":2823:2829   */\n              dup4\n                /* \"#utility.yul\":2816:2821   */\n              dup3\n                /* \"#utility.yul\":2809:2830   */\n              mstore\n                /* \"#utility.yul\":2857:2861   */\n              0x20\n                /* \"#utility.yul\":2850:2855   */\n              dup3\n                /* \"#utility.yul\":2846:2862   */\n              add\n                /* \"#utility.yul\":2839:2862   */\n              swap1\n              pop\n                /* \"#utility.yul\":2910:2914   */\n              0x20\n                /* \"#utility.yul\":2902:2908   */\n              dup5\n                /* \"#utility.yul\":2898:2915   */\n              mul\n                /* \"#utility.yul\":2890:2896   */\n              dup4\n                /* \"#utility.yul\":2886:2916   */\n              add\n                /* \"#utility.yul\":2939:2942   */\n              dup6\n                /* \"#utility.yul\":2931:2937   */\n              dup2\n                /* \"#utility.yul\":2928:2943   */\n              gt\n                /* \"#utility.yul\":2925:3047   */\n              iszero\n              tag_162\n              jumpi\n                /* \"#utility.yul\":2958:3037   */\n              tag_163\n              tag_109\n              jump\t// in\n            tag_163:\n                /* \"#utility.yul\":2925:3047   */\n            tag_162:\n                /* \"#utility.yul\":3073:3079   */\n              dup4\n                /* \"#utility.yul\":3056:3276   */\n            tag_164:\n                /* \"#utility.yul\":3090:3096   */\n              dup2\n                /* \"#utility.yul\":3085:3088   */\n              dup2\n                /* \"#utility.yul\":3082:3097   */\n              lt\n                /* \"#utility.yul\":3056:3276   */\n              iszero\n              tag_166\n              jumpi\n                /* \"#utility.yul\":3165:3168   */\n              dup1\n                /* \"#utility.yul\":3194:3231   */\n              tag_167\n                /* \"#utility.yul\":3227:3230   */\n              dup9\n                /* \"#utility.yul\":3215:3225   */\n              dup3\n                /* \"#utility.yul\":3194:3231   */\n              tag_113\n              jump\t// in\n            tag_167:\n                /* \"#utility.yul\":3189:3192   */\n              dup5\n                /* \"#utility.yul\":3182:3232   */\n              mstore\n                /* \"#utility.yul\":3261:3265   */\n              0x20\n                /* \"#utility.yul\":3256:3259   */\n              dup5\n                /* \"#utility.yul\":3252:3266   */\n              add\n                /* \"#utility.yul\":3245:3266   */\n              swap4\n              pop\n                /* \"#utility.yul\":3132:3276   */\n              pop\n                /* \"#utility.yul\":3116:3120   */\n              0x20\n                /* \"#utility.yul\":3111:3114   */\n              dup2\n                /* \"#utility.yul\":3107:3121   */\n              add\n                /* \"#utility.yul\":3100:3121   */\n              swap1\n              pop\n                /* \"#utility.yul\":3056:3276   */\n              jump(tag_164)\n            tag_166:\n                /* \"#utility.yul\":3060:3081   */\n              pop\n                /* \"#utility.yul\":2674:3282   */\n              pop\n              pop\n                /* \"#utility.yul\":2572:3282   */\n              swap4\n              swap3\n              pop\n              pop\n              pop\n              jump\t// out\n                /* \"#utility.yul\":3305:3675   */\n            tag_115:\n                /* \"#utility.yul\":3376:3381   */\n              0x00\n                /* \"#utility.yul\":3425:3428   */\n              dup3\n                /* \"#utility.yul\":3418:3422   */\n              0x1f\n                /* \"#utility.yul\":3410:3416   */\n              dup4\n                /* \"#utility.yul\":3406:3423   */\n              add\n                /* \"#utility.yul\":3402:3429   */\n              slt\n                /* \"#utility.yul\":3392:3514   */\n              tag_169\n              jumpi\n                /* \"#utility.yul\":3433:3512   */\n              tag_170\n              tag_103\n              jump\t// in\n            tag_170:\n                /* \"#utility.yul\":3392:3514   */\n            tag_169:\n                /* \"#utility.yul\":3550:3556   */\n              dup2\n                /* \"#utility.yul\":3537:3557   */\n              calldataload\n                /* \"#utility.yul\":3575:3669   */\n              tag_171\n                /* \"#utility.yul\":3665:3668   */\n              dup5\n                /* \"#utility.yul\":3657:3663   */\n              dup3\n                /* \"#utility.yul\":3650:3654   */\n              0x20\n                /* \"#utility.yul\":3642:3648   */\n              dup7\n                /* \"#utility.yul\":3638:3655   */\n              add\n                /* \"#utility.yul\":3575:3669   */\n              tag_114\n              jump\t// in\n            tag_171:\n                /* \"#utility.yul\":3566:3669   */\n              swap2\n              pop\n                /* \"#utility.yul\":3382:3675   */\n              pop\n                /* \"#utility.yul\":3305:3675   */\n              swap3\n              swap2\n              pop\n              pop\n              jump\t// out\n                /* \"#utility.yul\":3681:4220   */\n            tag_12:\n                /* \"#utility.yul\":3765:3771   */\n              0x00\n                /* \"#utility.yul\":3814:3816   */\n              0x20\n                /* \"#utility.yul\":3802:3811   */\n              dup3\n                /* \"#utility.yul\":3793:3800   */\n              dup5\n                /* \"#utility.yul\":3789:3812   */\n              sub\n                /* \"#utility.yul\":3785:3817   */\n              slt\n                /* \"#utility.yul\":3782:3901   */\n              iszero\n              tag_173\n              jumpi\n                /* \"#utility.yul\":3820:3899   */\n              tag_174\n              tag_101\n              jump\t// in\n            tag_174:\n                /* \"#utility.yul\":3782:3901   */\n            tag_173:\n                /* \"#utility.yul\":3968:3969   */\n              0x00\n                /* \"#utility.yul\":3957:3966   */\n              dup3\n                /* \"#utility.yul\":3953:3970   */\n              add\n                /* \"#utility.yul\":3940:3971   */\n              calldataload\n                /* \"#utility.yul\":3998:4016   */\n              0xffffffffffffffff\n                /* \"#utility.yul\":3990:3996   */\n              dup2\n                /* \"#utility.yul\":3987:4017   */\n              gt\n                /* \"#utility.yul\":3984:4101   */\n              iszero\n              tag_175\n              jumpi\n                /* \"#utility.yul\":4020:4099   */\n              tag_176\n              tag_102\n              jump\t// in\n            tag_176:\n                /* \"#utility.yul\":3984:4101   */\n            tag_175:\n                /* \"#utility.yul\":4125:4203   */\n              tag_177\n                /* \"#utility.yul\":4195:4202   */\n              dup5\n                /* \"#utility.yul\":4186:4192   */\n              dup3\n                /* \"#utility.yul\":4175:4184   */\n              dup6\n                /* \"#utility.yul\":4171:4193   */\n              add\n                /* \"#utility.yul\":4125:4203   */\n              tag_115\n              jump\t// in\n            tag_177:\n                /* \"#utility.yul\":4115:4203   */\n              swap2\n              pop\n                /* \"#utility.yul\":3911:4213   */\n              pop\n                /* \"#utility.yul\":3681:4220   */\n              swap3\n              swap2\n              pop\n              pop\n              jump\t// out\n                /* \"#utility.yul\":4226:4348   */\n            tag_116:\n                /* \"#utility.yul\":4299:4323   */\n              tag_179\n                /* \"#utility.yul\":4317:4322   */\n              dup2\n                /* \"#utility.yul\":4299:4323   */\n              tag_98\n              jump\t// in\n            tag_179:\n                /* \"#utility.yul\":4292:4297   */\n              dup2\n                /* \"#utility.yul\":4289:4324   */\n              eq\n                /* \"#utility.yul\":4279:4342   */\n              tag_180\n              jumpi\n                /* \"#utility.yul\":4338:4339   */\n              0x00\n                /* \"#utility.yul\":4335:4336   */\n              dup1\n                /* \"#utility.yul\":4328:4340   */\n              revert\n                /* \"#utility.yul\":4279:4342   */\n            tag_180:\n                /* \"#utility.yul\":4226:4348   */\n              pop\n              jump\t// out\n                /* \"#utility.yul\":4354:4493   */\n            tag_117:\n                /* \"#utility.yul\":4400:4405   */\n              0x00\n                /* \"#utility.yul\":4438:4444   */\n              dup2\n                /* \"#utility.yul\":4425:4445   */\n              calldataload\n                /* \"#utility.yul\":4416:4445   */\n              swap1\n              pop\n                /* \"#utility.yul\":4454:4487   */\n              tag_182\n                /* \"#utility.yul\":4481:4486   */\n              dup2\n                /* \"#utility.yul\":4454:4487   */\n              tag_116\n              jump\t// in\n            tag_182:\n                /* \"#utility.yul\":4354:4493   */\n              swap3\n              swap2\n              pop\n              pop\n              jump\t// out\n                /* \"#utility.yul\":4499:4828   */\n            tag_16:\n                /* \"#utility.yul\":4558:4564   */\n              0x00\n                /* \"#utility.yul\":4607:4609   */\n              0x20\n                /* \"#utility.yul\":4595:4604   */\n              dup3\n                /* \"#utility.yul\":4586:4593   */\n              dup5\n                /* \"#utility.yul\":4582:4605   */\n              sub\n                /* \"#utility.yul\":4578:4610   */\n              slt\n                /* \"#utility.yul\":4575:4694   */\n              iszero\n              tag_184\n              jumpi\n                /* \"#utility.yul\":4613:4692   */\n              tag_185\n              tag_101\n              jump\t// in\n            tag_185:\n                /* \"#utility.yul\":4575:4694   */\n            tag_184:\n                /* \"#utility.yul\":4733:4734   */\n              0x00\n                /* \"#utility.yul\":4758:4811   */\n              tag_186\n                /* \"#utility.yul\":4803:4810   */\n              dup5\n                /* \"#utility.yul\":4794:4800   */\n              dup3\n                /* \"#utility.yul\":4783:4792   */\n              dup6\n                /* \"#utility.yul\":4779:4801   */\n              add\n                /* \"#utility.yul\":4758:4811   */\n              tag_117\n              jump\t// in\n            tag_186:\n                /* \"#utility.yul\":4748:4811   */\n              swap2\n              pop\n                /* \"#utility.yul\":4704:4821   */\n              pop\n                /* \"#utility.yul\":4499:4828   */\n              swap3\n              swap2\n              pop\n              pop\n              jump\t// out\n                /* \"#utility.yul\":4834:4952   */\n            tag_118:\n                /* \"#utility.yul\":4921:4945   */\n              tag_188\n                /* \"#utility.yul\":4939:4944   */\n              dup2\n                /* \"#utility.yul\":4921:4945   */\n              tag_111\n              jump\t// in\n            tag_188:\n                /* \"#utility.yul\":4916:4919   */\n              dup3\n                /* \"#utility.yul\":4909:4946   */\n              mstore\n                /* \"#utility.yul\":4834:4952   */\n              pop\n              pop\n              jump\t// out\n                /* \"#utility.yul\":4958:5180   */\n            tag_19:\n                /* \"#utility.yul\":5051:5055   */\n              0x00\n                /* \"#utility.yul\":5089:5091   */\n              0x20\n                /* \"#utility.yul\":5078:5087   */\n              dup3\n                /* \"#utility.yul\":5074:5092   */\n              add\n                /* \"#utility.yul\":5066:5092   */\n              swap1\n              pop\n                /* \"#utility.yul\":5102:5173   */\n              tag_190\n                /* \"#utility.yul\":5170:5171   */\n              0x00\n                /* \"#utility.yul\":5159:5168   */\n              dup4\n                /* \"#utility.yul\":5155:5172   */\n              add\n                /* \"#utility.yul\":5146:5152   */\n              dup5\n                /* \"#utility.yul\":5102:5173   */\n              tag_118\n              jump\t// in\n            tag_190:\n                /* \"#utility.yul\":4958:5180   */\n              swap3\n              swap2\n              pop\n              pop\n              jump\t// out\n                /* \"#utility.yul\":5186:5329   */\n            tag_119:\n                /* \"#utility.yul\":5243:5248   */\n              0x00\n                /* \"#utility.yul\":5274:5280   */\n              dup2\n                /* \"#utility.yul\":5268:5281   */\n              mload\n                /* \"#utility.yul\":5259:5281   */\n              swap1\n              pop\n                /* \"#utility.yul\":5290:5323   */\n              tag_192\n                /* \"#utility.yul\":5317:5322   */\n              dup2\n                /* \"#utility.yul\":5290:5323   */\n              tag_116\n              jump\t// in\n            tag_192:\n                /* \"#utility.yul\":5186:5329   */\n              swap3\n              swap2\n              pop\n              pop\n              jump\t// out\n                /* \"#utility.yul\":5335:5686   */\n            tag_25:\n                /* \"#utility.yul\":5405:5411   */\n              0x00\n                /* \"#utility.yul\":5454:5456   */\n              0x20\n                /* \"#utility.yul\":5442:5451   */\n              dup3\n                /* \"#utility.yul\":5433:5440   */\n              dup5\n                /* \"#utility.yul\":5429:5452   */\n              sub\n                /* \"#utility.yul\":5425:5457   */\n              slt\n                /* \"#utility.yul\":5422:5541   */\n              iszero\n              tag_194\n              jumpi\n                /* \"#utility.yul\":5460:5539   */\n              tag_195\n              tag_101\n              jump\t// in\n            tag_195:\n                /* \"#utility.yul\":5422:5541   */\n            tag_194:\n                /* \"#utility.yul\":5580:5581   */\n              0x00\n                /* \"#utility.yul\":5605:5669   */\n              tag_196\n                /* \"#utility.yul\":5661:5668   */\n              dup5\n                /* \"#utility.yul\":5652:5658   */\n              dup3\n                /* \"#utility.yul\":5641:5650   */\n              dup6\n                /* \"#utility.yul\":5637:5659   */\n              add\n                /* \"#utility.yul\":5605:5669   */\n              tag_119\n              jump\t// in\n            tag_196:\n                /* \"#utility.yul\":5595:5669   */\n              swap2\n              pop\n                /* \"#utility.yul\":5551:5679   */\n              pop\n                /* \"#utility.yul\":5335:5686   */\n              swap3\n              swap2\n              pop\n              pop\n              jump\t// out\n                /* \"#utility.yul\":5692:5872   */\n            tag_120:\n                /* \"#utility.yul\":5740:5817   */\n              0x4e487b7100000000000000000000000000000000000000000000000000000000\n                /* \"#utility.yul\":5737:5738   */\n              0x00\n                /* \"#utility.yul\":5730:5818   */\n              mstore\n                /* \"#utility.yul\":5837:5841   */\n              0x12\n                /* \"#utility.yul\":5834:5835   */\n              0x04\n                /* \"#utility.yul\":5827:5842   */\n              mstore\n                /* \"#utility.yul\":5861:5865   */\n              0x24\n                /* \"#utility.yul\":5858:5859   */\n              0x00\n                /* \"#utility.yul\":5851:5866   */\n              revert\n                /* \"#utility.yul\":5878:6058   */\n            tag_121:\n                /* \"#utility.yul\":5926:6003   */\n              0x4e487b7100000000000000000000000000000000000000000000000000000000\n                /* \"#utility.yul\":5923:5924   */\n              0x00\n                /* \"#utility.yul\":5916:6004   */\n              mstore\n                /* \"#utility.yul\":6023:6027   */\n              0x11\n                /* \"#utility.yul\":6020:6021   */\n              0x04\n                /* \"#utility.yul\":6013:6028   */\n              mstore\n                /* \"#utility.yul\":6047:6051   */\n              0x24\n                /* \"#utility.yul\":6044:6045   */\n              0x00\n                /* \"#utility.yul\":6037:6052   */\n              revert\n                /* \"#utility.yul\":6064:6249   */\n            tag_27:\n                /* \"#utility.yul\":6104:6105   */\n              0x00\n                /* \"#utility.yul\":6121:6141   */\n              tag_200\n                /* \"#utility.yul\":6139:6140   */\n              dup3\n                /* \"#utility.yul\":6121:6141   */\n              tag_98\n              jump\t// in\n            tag_200:\n                /* \"#utility.yul\":6116:6141   */\n              swap2\n              pop\n                /* \"#utility.yul\":6155:6175   */\n              tag_201\n                /* \"#utility.yul\":6173:6174   */\n              dup4\n                /* \"#utility.yul\":6155:6175   */\n              tag_98\n              jump\t// in\n            tag_201:\n                /* \"#utility.yul\":6150:6175   */\n              swap3\n              pop\n                /* \"#utility.yul\":6194:6195   */\n              dup3\n                /* \"#utility.yul\":6184:6219   */\n              tag_202\n              jumpi\n                /* \"#utility.yul\":6199:6217   */\n              tag_203\n              tag_120\n              jump\t// in\n            tag_203:\n                /* \"#utility.yul\":6184:6219   */\n            tag_202:\n                /* \"#utility.yul\":6241:6242   */\n              dup3\n                /* \"#utility.yul\":6238:6239   */\n              dup3\n                /* \"#utility.yul\":6234:6243   */\n              div\n                /* \"#utility.yul\":6229:6243   */\n              swap1\n              pop\n                /* \"#utility.yul\":6064:6249   */\n              swap3\n              swap2\n              pop\n              pop\n              jump\t// out\n                /* \"#utility.yul\":6255:6435   */\n            tag_33:\n                /* \"#utility.yul\":6303:6380   */\n              0x4e487b7100000000000000000000000000000000000000000000000000000000\n                /* \"#utility.yul\":6300:6301   */\n              0x00\n                /* \"#utility.yul\":6293:6381   */\n              mstore\n                /* \"#utility.yul\":6400:6404   */\n              0x32\n                /* \"#utility.yul\":6397:6398   */\n              0x04\n                /* \"#utility.yul\":6390:6405   */\n              mstore\n                /* \"#utility.yul\":6424:6428   */\n              0x24\n                /* \"#utility.yul\":6421:6422   */\n              0x00\n                /* \"#utility.yul\":6414:6429   */\n              revert\n                /* \"#utility.yul\":6441:6851   */\n            tag_50:\n                /* \"#utility.yul\":6481:6488   */\n              0x00\n                /* \"#utility.yul\":6504:6524   */\n              tag_206\n                /* \"#utility.yul\":6522:6523   */\n              dup3\n                /* \"#utility.yul\":6504:6524   */\n              tag_98\n              jump\t// in\n            tag_206:\n                /* \"#utility.yul\":6499:6524   */\n              swap2\n              pop\n                /* \"#utility.yul\":6538:6558   */\n              tag_207\n                /* \"#utility.yul\":6556:6557   */\n              dup4\n                /* \"#utility.yul\":6538:6558   */\n              tag_98\n              jump\t// in\n            tag_207:\n                /* \"#utility.yul\":6533:6558   */\n              swap3\n              pop\n                /* \"#utility.yul\":6593:6594   */\n              dup3\n                /* \"#utility.yul\":6590:6591   */\n              dup3\n                /* \"#utility.yul\":6586:6595   */\n              mul\n                /* \"#utility.yul\":6615:6645   */\n              tag_208\n                /* \"#utility.yul\":6633:6644   */\n              dup2\n                /* \"#utility.yul\":6615:6645   */\n              tag_98\n              jump\t// in\n            tag_208:\n                /* \"#utility.yul\":6604:6645   */\n              swap2\n              pop\n                /* \"#utility.yul\":6794:6795   */\n              dup3\n                /* \"#utility.yul\":6785:6792   */\n              dup3\n                /* \"#utility.yul\":6781:6796   */\n              div\n                /* \"#utility.yul\":6778:6779   */\n              dup5\n                /* \"#utility.yul\":6775:6797   */\n              eq\n                /* \"#utility.yul\":6755:6756   */\n              dup4\n                /* \"#utility.yul\":6748:6757   */\n              iszero\n                /* \"#utility.yul\":6728:6811   */\n              or\n                /* \"#utility.yul\":6705:6844   */\n              tag_209\n              jumpi\n                /* \"#utility.yul\":6824:6842   */\n              tag_210\n              tag_121\n              jump\t// in\n            tag_210:\n                /* \"#utility.yul\":6705:6844   */\n            tag_209:\n                /* \"#utility.yul\":6489:6851   */\n              pop\n                /* \"#utility.yul\":6441:6851   */\n              swap3\n              swap2\n              pop\n              pop\n              jump\t// out\n                /* \"#utility.yul\":6857:7189   */\n            tag_66:\n                /* \"#utility.yul\":6978:6982   */\n              0x00\n                /* \"#utility.yul\":7016:7018   */\n              0x40\n                /* \"#utility.yul\":7005:7014   */\n              dup3\n                /* \"#utility.yul\":7001:7019   */\n              add\n                /* \"#utility.yul\":6993:7019   */\n              swap1\n              pop\n                /* \"#utility.yul\":7029:7100   */\n              tag_212\n                /* \"#utility.yul\":7097:7098   */\n              0x00\n                /* \"#utility.yul\":7086:7095   */\n              dup4\n                /* \"#utility.yul\":7082:7099   */\n              add\n                /* \"#utility.yul\":7073:7079   */\n              dup6\n                /* \"#utility.yul\":7029:7100   */\n              tag_118\n              jump\t// in\n            tag_212:\n                /* \"#utility.yul\":7110:7182   */\n              tag_213\n                /* \"#utility.yul\":7178:7180   */\n              0x20\n                /* \"#utility.yul\":7167:7176   */\n              dup4\n                /* \"#utility.yul\":7163:7181   */\n              add\n                /* \"#utility.yul\":7154:7160   */\n              dup5\n                /* \"#utility.yul\":7110:7182   */\n              tag_99\n              jump\t// in\n            tag_213:\n                /* \"#utility.yul\":6857:7189   */\n              swap4\n              swap3\n              pop\n              pop\n              pop\n              jump\t// out\n                /* \"#utility.yul\":7195:7285   */\n            tag_122:\n                /* \"#utility.yul\":7229:7236   */\n              0x00\n                /* \"#utility.yul\":7272:7277   */\n              dup2\n                /* \"#utility.yul\":7265:7278   */\n              iszero\n                /* \"#utility.yul\":7258:7279   */\n              iszero\n                /* \"#utility.yul\":7247:7279   */\n              swap1\n              pop\n                /* \"#utility.yul\":7195:7285   */\n              swap2\n              swap1\n              pop\n              jump\t// out\n                /* \"#utility.yul\":7291:7407   */\n            tag_123:\n                /* \"#utility.yul\":7361:7382   */\n              tag_216\n                /* \"#utility.yul\":7376:7381   */\n              dup2\n                /* \"#utility.yul\":7361:7382   */\n              tag_122\n              jump\t// in\n            tag_216:\n                /* \"#utility.yul\":7354:7359   */\n              dup2\n                /* \"#utility.yul\":7351:7383   */\n              eq\n                /* \"#utility.yul\":7341:7401   */\n              tag_217\n              jumpi\n                /* \"#utility.yul\":7397:7398   */\n              0x00\n                /* \"#utility.yul\":7394:7395   */\n              dup1\n                /* \"#utility.yul\":7387:7399   */\n              revert\n                /* \"#utility.yul\":7341:7401   */\n            tag_217:\n                /* \"#utility.yul\":7291:7407   */\n              pop\n              jump\t// out\n                /* \"#utility.yul\":7413:7550   */\n            tag_124:\n                /* \"#utility.yul\":7467:7472   */\n              0x00\n                /* \"#utility.yul\":7498:7504   */\n              dup2\n                /* \"#utility.yul\":7492:7505   */\n              mload\n                /* \"#utility.yul\":7483:7505   */\n              swap1\n              pop\n                /* \"#utility.yul\":7514:7544   */\n              tag_219\n                /* \"#utility.yul\":7538:7543   */\n              dup2\n                /* \"#utility.yul\":7514:7544   */\n              tag_123\n              jump\t// in\n            tag_219:\n                /* \"#utility.yul\":7413:7550   */\n              swap3\n              swap2\n              pop\n              pop\n              jump\t// out\n                /* \"#utility.yul\":7556:7901   */\n            tag_70:\n                /* \"#utility.yul\":7623:7629   */\n              0x00\n                /* \"#utility.yul\":7672:7674   */\n              0x20\n                /* \"#utility.yul\":7660:7669   */\n              dup3\n                /* \"#utility.yul\":7651:7658   */\n              dup5\n                /* \"#utility.yul\":7647:7670   */\n              sub\n                /* \"#utility.yul\":7643:7675   */\n              slt\n                /* \"#utility.yul\":7640:7759   */\n              iszero\n              tag_221\n              jumpi\n                /* \"#utility.yul\":7678:7757   */\n              tag_222\n              tag_101\n              jump\t// in\n            tag_222:\n                /* \"#utility.yul\":7640:7759   */\n            tag_221:\n                /* \"#utility.yul\":7798:7799   */\n              0x00\n                /* \"#utility.yul\":7823:7884   */\n              tag_223\n                /* \"#utility.yul\":7876:7883   */\n              dup5\n                /* \"#utility.yul\":7867:7873   */\n              dup3\n                /* \"#utility.yul\":7856:7865   */\n              dup6\n                /* \"#utility.yul\":7852:7874   */\n              add\n                /* \"#utility.yul\":7823:7884   */\n              tag_124\n              jump\t// in\n            tag_223:\n                /* \"#utility.yul\":7813:7884   */\n              swap2\n              pop\n                /* \"#utility.yul\":7769:7894   */\n              pop\n                /* \"#utility.yul\":7556:7901   */\n              swap3\n              swap2\n              pop\n              pop\n              jump\t// out\n                /* \"#utility.yul\":7907:8076   */\n            tag_125:\n                /* \"#utility.yul\":7991:8002   */\n              0x00\n                /* \"#utility.yul\":8025:8031   */\n              dup3\n                /* \"#utility.yul\":8020:8023   */\n              dup3\n                /* \"#utility.yul\":8013:8032   */\n              mstore\n                /* \"#utility.yul\":8065:8069   */\n              0x20\n                /* \"#utility.yul\":8060:8063   */\n              dup3\n                /* \"#utility.yul\":8056:8070   */\n              add\n                /* \"#utility.yul\":8041:8070   */\n              swap1\n              pop\n                /* \"#utility.yul\":7907:8076   */\n              swap3\n              swap2\n              pop\n              pop\n              jump\t// out\n                /* \"#utility.yul\":8082:8251   */\n            tag_126:\n                /* \"#utility.yul\":8222:8243   */\n              0x496e737566666963656e742042616c616e636500000000000000000000000000\n                /* \"#utility.yul\":8218:8219   */\n              0x00\n                /* \"#utility.yul\":8210:8216   */\n              dup3\n                /* \"#utility.yul\":8206:8220   */\n              add\n                /* \"#utility.yul\":8199:8244   */\n              mstore\n                /* \"#utility.yul\":8082:8251   */\n              pop\n              jump\t// out\n                /* \"#utility.yul\":8257:8623   */\n            tag_127:\n                /* \"#utility.yul\":8399:8402   */\n              0x00\n                /* \"#utility.yul\":8420:8487   */\n              tag_227\n                /* \"#utility.yul\":8484:8486   */\n              0x13\n                /* \"#utility.yul\":8479:8482   */\n              dup4\n                /* \"#utility.yul\":8420:8487   */\n              tag_125\n              jump\t// in\n            tag_227:\n                /* \"#utility.yul\":8413:8487   */\n              swap2\n              pop\n                /* \"#utility.yul\":8496:8589   */\n              tag_228\n                /* \"#utility.yul\":8585:8588   */\n              dup3\n                /* \"#utility.yul\":8496:8589   */\n              tag_126\n              jump\t// in\n            tag_228:\n                /* \"#utility.yul\":8614:8616   */\n              0x20\n                /* \"#utility.yul\":8609:8612   */\n              dup3\n                /* \"#utility.yul\":8605:8617   */\n              add\n                /* \"#utility.yul\":8598:8617   */\n              swap1\n              pop\n                /* \"#utility.yul\":8257:8623   */\n              swap2\n              swap1\n              pop\n              jump\t// out\n                /* \"#utility.yul\":8629:9048   */\n            tag_92:\n                /* \"#utility.yul\":8795:8799   */\n              0x00\n                /* \"#utility.yul\":8833:8835   */\n              0x20\n                /* \"#utility.yul\":8822:8831   */\n              dup3\n                /* \"#utility.yul\":8818:8836   */\n              add\n                /* \"#utility.yul\":8810:8836   */\n              swap1\n              pop\n                /* \"#utility.yul\":8882:8891   */\n              dup2\n                /* \"#utility.yul\":8876:8880   */\n              dup2\n                /* \"#utility.yul\":8872:8892   */\n              sub\n                /* \"#utility.yul\":8868:8869   */\n              0x00\n                /* \"#utility.yul\":8857:8866   */\n              dup4\n                /* \"#utility.yul\":8853:8870   */\n              add\n                /* \"#utility.yul\":8846:8893   */\n              mstore\n                /* \"#utility.yul\":8910:9041   */\n              tag_230\n                /* \"#utility.yul\":9036:9040   */\n              dup2\n                /* \"#utility.yul\":8910:9041   */\n              tag_127\n              jump\t// in\n            tag_230:\n                /* \"#utility.yul\":8902:9041   */\n              swap1\n              pop\n                /* \"#utility.yul\":8629:9048   */\n              swap2\n              swap1\n              pop\n              jump\t// out\n                /* \"#utility.yul\":9054:9496   */\n            tag_94:\n                /* \"#utility.yul\":9203:9207   */\n              0x00\n                /* \"#utility.yul\":9241:9243   */\n              0x60\n                /* \"#utility.yul\":9230:9239   */\n              dup3\n                /* \"#utility.yul\":9226:9244   */\n              add\n                /* \"#utility.yul\":9218:9244   */\n              swap1\n              pop\n                /* \"#utility.yul\":9254:9325   */\n              tag_232\n                /* \"#utility.yul\":9322:9323   */\n              0x00\n                /* \"#utility.yul\":9311:9320   */\n              dup4\n                /* \"#utility.yul\":9307:9324   */\n              add\n                /* \"#utility.yul\":9298:9304   */\n              dup7\n                /* \"#utility.yul\":9254:9325   */\n              tag_118\n              jump\t// in\n            tag_232:\n                /* \"#utility.yul\":9335:9407   */\n              tag_233\n                /* \"#utility.yul\":9403:9405   */\n              0x20\n                /* \"#utility.yul\":9392:9401   */\n              dup4\n                /* \"#utility.yul\":9388:9406   */\n              add\n                /* \"#utility.yul\":9379:9385   */\n              dup6\n                /* \"#utility.yul\":9335:9407   */\n              tag_118\n              jump\t// in\n            tag_233:\n                /* \"#utility.yul\":9417:9489   */\n              tag_234\n                /* \"#utility.yul\":9485:9487   */\n              0x40\n                /* \"#utility.yul\":9474:9483   */\n              dup4\n                /* \"#utility.yul\":9470:9488   */\n              add\n                /* \"#utility.yul\":9461:9467   */\n              dup5\n                /* \"#utility.yul\":9417:9489   */\n              tag_99\n              jump\t// in\n            tag_234:\n                /* \"#utility.yul\":9054:9496   */\n              swap5\n              swap4\n              pop\n              pop\n              pop\n              pop\n              jump\t// out\n\n            auxdata: 0xa264697066735822122089ef19e121a5ef5652792f683526ce116e5eeb9526960a183935699a57890fda64736f6c634300081a0033\n        }\n    }\n\n    auxdata: 0xa2646970667358221220cf4611ecc2c2f5b3f717f4e9e426c450c7979c78c2630d9e3067d04f3d62900164736f6c634300081a0033\n}\n",
				"bytecode": {
					"linkReferences": {},
					"object": "6080604052348015600e575f80fd5b50610ea18061001c5f395ff3fe608060405234801561000f575f80fd5b5060043610610034575f3560e01c8063b4a74ef714610038578063c313889c14610056575b5f80fd5b610040610074565b60405161004d91906100f5565b60405180910390f35b61005e610078565b60405161006b91906100f5565b60405180910390f35b5f90565b5f80604051610086906100a9565b604051809103905ff08015801561009f573d5f803e3d5ffd5b5090508091505090565b610d5d8061010f83390190565b5f73ffffffffffffffffffffffffffffffffffffffff82169050919050565b5f6100df826100b6565b9050919050565b6100ef816100d5565b82525050565b5f6020820190506101085f8301846100e6565b9291505056fe6080604052348015600e575f80fd5b50610d418061001c5f395ff3fe608060405234801561000f575f80fd5b506004361061003f575f3560e01c80633b66805914610043578063b069086714610061578063d3e626011461007d575b5f80fd5b61004b6100ad565b6040516100589190610808565b60405180910390f35b61007b600480360381019061007691906109dc565b610152565b005b61009760048036038101906100929190610a4d565b610665565b6040516100a49190610a87565b60405180910390f35b5f80620f424073b634247abf7a50dd7b9cf6671a3e83f34f5f78d073ffffffffffffffffffffffffffffffffffffffff166370a08231306040518263ffffffff1660e01b81526004016101009190610a87565b602060405180830381865afa15801561011b573d5f803e3d5ffd5b505050506040513d601f19601f8201168201806040525081019061013f9190610ab4565b6101499190610b39565b90508091505090565b61015a6107ce565b815f8151811061016d5761016c610b69565b5b6020026020010151815f6003811061018857610187610b69565b5b602002019073ffffffffffffffffffffffffffffffffffffffff16908173ffffffffffffffffffffffffffffffffffffffff1681525050816001815181106101d3576101d2610b69565b5b6020026020010151816001600381106101ef576101ee610b69565b5b602002019073ffffffffffffffffffffffffffffffffffffffff16908173ffffffffffffffffffffffffffffffffffffffff16815250508160028151811061023a57610239610b69565b5b60200260200101518160026003811061025657610255610b69565b5b602002019073ffffffffffffffffffffffffffffffffffffffff16908173ffffffffffffffffffffffffffffffffffffffff16815250505f73b634247abf7a50dd7b9cf6671a3e83f34f5f78d073ffffffffffffffffffffffffffffffffffffffff166370a08231306040518263ffffffff1660e01b81526004016102db9190610a87565b602060405180830381865afa1580156102f6573d5f803e3d5ffd5b505050506040513d601f19601f8201168201806040525081019061031a9190610ab4565b90505f8103610355576040517fb09959a600000000000000000000000000000000000000000000000000000000815260040160405180910390fd5b5f620f424060646103669190610b96565b620f424083603a6103779190610b96565b6103819190610b96565b61038b9190610b39565b90505f620f4240606461039e9190610b96565b620f424084601d6103af9190610b96565b6103b99190610b96565b6103c39190610b39565b90505f620f424060646103d69190610b96565b620f42408560096103e79190610b96565b6103f19190610b96565b6103fb9190610b39565b905073b634247abf7a50dd7b9cf6671a3e83f34f5f78d073ffffffffffffffffffffffffffffffffffffffff1663a9059cbb5f80815481106104405761043f610b69565b5b905f5260205f20015f9054906101000a900473ffffffffffffffffffffffffffffffffffffffff16856040518363ffffffff1660e01b8152600401610486929190610bd7565b6020604051808303815f875af11580156104a2573d5f803e3d5ffd5b505050506040513d601f19601f820116820180604052508101906104c69190610c33565b5073b634247abf7a50dd7b9cf6671a3e83f34f5f78d073ffffffffffffffffffffffffffffffffffffffff1663a9059cbb5f60018154811061050b5761050a610b69565b5b905f5260205f20015f9054906101000a900473ffffffffffffffffffffffffffffffffffffffff16846040518363ffffffff1660e01b8152600401610551929190610bd7565b6020604051808303815f875af115801561056d573d5f803e3d5ffd5b505050506040513d601f19601f820116820180604052508101906105919190610c33565b5073b634247abf7a50dd7b9cf6671a3e83f34f5f78d073ffffffffffffffffffffffffffffffffffffffff1663a9059cbb5f6002815481106105d6576105d5610b69565b5b905f5260205f20015f9054906101000a900473ffffffffffffffffffffffffffffffffffffffff16836040518363ffffffff1660e01b815260040161061c929190610bd7565b6020604051808303815f875af1158015610638573d5f803e3d5ffd5b505050506040513d601f19601f8201168201806040525081019061065c9190610c33565b50505050505050565b5f8173b634247abf7a50dd7b9cf6671a3e83f34f5f78d073ffffffffffffffffffffffffffffffffffffffff166370a08231336040518263ffffffff1660e01b81526004016106b49190610a87565b602060405180830381865afa1580156106cf573d5f803e3d5ffd5b505050506040513d601f19601f820116820180604052508101906106f39190610ab4565b1015610734576040517f08c379a000000000000000000000000000000000000000000000000000000000815260040161072b90610cb8565b60405180910390fd5b73b634247abf7a50dd7b9cf6671a3e83f34f5f78d073ffffffffffffffffffffffffffffffffffffffff166323b872dd3330856040518463ffffffff1660e01b815260040161078593929190610cd6565b6020604051808303815f875af11580156107a1573d5f803e3d5ffd5b505050506040513d601f19601f820116820180604052508101906107c59190610c33565b50339050919050565b6040518060600160405280600390602082028036833780820191505090505090565b5f819050919050565b610802816107f0565b82525050565b5f60208201905061081b5f8301846107f9565b92915050565b5f604051905090565b5f80fd5b5f80fd5b5f80fd5b5f601f19601f8301169050919050565b7f4e487b71000000000000000000000000000000000000000000000000000000005f52604160045260245ffd5b61087c82610836565b810181811067ffffffffffffffff8211171561089b5761089a610846565b5b80604052505050565b5f6108ad610821565b90506108b98282610873565b919050565b5f67ffffffffffffffff8211156108d8576108d7610846565b5b602082029050602081019050919050565b5f80fd5b5f73ffffffffffffffffffffffffffffffffffffffff82169050919050565b5f610916826108ed565b9050919050565b6109268161090c565b8114610930575f80fd5b50565b5f813590506109418161091d565b92915050565b5f610959610954846108be565b6108a4565b9050808382526020820190506020840283018581111561097c5761097b6108e9565b5b835b818110156109a557806109918882610933565b84526020840193505060208101905061097e565b5050509392505050565b5f82601f8301126109c3576109c2610832565b5b81356109d3848260208601610947565b91505092915050565b5f602082840312156109f1576109f061082a565b5b5f82013567ffffffffffffffff811115610a0e57610a0d61082e565b5b610a1a848285016109af565b91505092915050565b610a2c816107f0565b8114610a36575f80fd5b50565b5f81359050610a4781610a23565b92915050565b5f60208284031215610a6257610a6161082a565b5b5f610a6f84828501610a39565b91505092915050565b610a818161090c565b82525050565b5f602082019050610a9a5f830184610a78565b92915050565b5f81519050610aae81610a23565b92915050565b5f60208284031215610ac957610ac861082a565b5b5f610ad684828501610aa0565b91505092915050565b7f4e487b71000000000000000000000000000000000000000000000000000000005f52601260045260245ffd5b7f4e487b71000000000000000000000000000000000000000000000000000000005f52601160045260245ffd5b5f610b43826107f0565b9150610b4e836107f0565b925082610b5e57610b5d610adf565b5b828204905092915050565b7f4e487b71000000000000000000000000000000000000000000000000000000005f52603260045260245ffd5b5f610ba0826107f0565b9150610bab836107f0565b9250828202610bb9816107f0565b91508282048414831517610bd057610bcf610b0c565b5b5092915050565b5f604082019050610bea5f830185610a78565b610bf760208301846107f9565b9392505050565b5f8115159050919050565b610c1281610bfe565b8114610c1c575f80fd5b50565b5f81519050610c2d81610c09565b92915050565b5f60208284031215610c4857610c4761082a565b5b5f610c5584828501610c1f565b91505092915050565b5f82825260208201905092915050565b7f496e737566666963656e742042616c616e6365000000000000000000000000005f82015250565b5f610ca2601383610c5e565b9150610cad82610c6e565b602082019050919050565b5f6020820190508181035f830152610ccf81610c96565b9050919050565b5f606082019050610ce95f830186610a78565b610cf66020830185610a78565b610d0360408301846107f9565b94935050505056fea264697066735822122089ef19e121a5ef5652792f683526ce116e5eeb9526960a183935699a57890fda64736f6c634300081a0033a2646970667358221220cf4611ecc2c2f5b3f717f4e9e426c450c7979c78c2630d9e3067d04f3d62900164736f6c634300081a0033",
					"opcodes": "PUSH1 0x80 PUSH1 0x40 MSTORE CALLVALUE DUP1 ISZERO PUSH1 0xE JUMPI PUSH0 DUP1 REVERT JUMPDEST POP PUSH2 0xEA1 DUP1 PUSH2 0x1C PUSH0 CODECOPY PUSH0 RETURN INVALID PUSH1 0x80 PUSH1 0x40 MSTORE CALLVALUE DUP1 ISZERO PUSH2 0xF JUMPI PUSH0 DUP1 REVERT JUMPDEST POP PUSH1 0x4 CALLDATASIZE LT PUSH2 0x34 JUMPI PUSH0 CALLDATALOAD PUSH1 0xE0 SHR DUP1 PUSH4 0xB4A74EF7 EQ PUSH2 0x38 JUMPI DUP1 PUSH4 0xC313889C EQ PUSH2 0x56 JUMPI JUMPDEST PUSH0 DUP1 REVERT JUMPDEST PUSH2 0x40 PUSH2 0x74 JUMP JUMPDEST PUSH1 0x40 MLOAD PUSH2 0x4D SWAP2 SWAP1 PUSH2 0xF5 JUMP JUMPDEST PUSH1 0x40 MLOAD DUP1 SWAP2 SUB SWAP1 RETURN JUMPDEST PUSH2 0x5E PUSH2 0x78 JUMP JUMPDEST PUSH1 0x40 MLOAD PUSH2 0x6B SWAP2 SWAP1 PUSH2 0xF5 JUMP JUMPDEST PUSH1 0x40 MLOAD DUP1 SWAP2 SUB SWAP1 RETURN JUMPDEST PUSH0 SWAP1 JUMP JUMPDEST PUSH0 DUP1 PUSH1 0x40 MLOAD PUSH2 0x86 SWAP1 PUSH2 0xA9 JUMP JUMPDEST PUSH1 0x40 MLOAD DUP1 SWAP2 SUB SWAP1 PUSH0 CREATE DUP1 ISZERO DUP1 ISZERO PUSH2 0x9F JUMPI RETURNDATASIZE PUSH0 DUP1 RETURNDATACOPY RETURNDATASIZE PUSH0 REVERT JUMPDEST POP SWAP1 POP DUP1 SWAP2 POP POP SWAP1 JUMP JUMPDEST PUSH2 0xD5D DUP1 PUSH2 0x10F DUP4 CODECOPY ADD SWAP1 JUMP JUMPDEST PUSH0 PUSH20 0xFFFFFFFFFFFFFFFFFFFFFFFFFFFFFFFFFFFFFFFF DUP3 AND SWAP1 POP SWAP2 SWAP1 POP JUMP JUMPDEST PUSH0 PUSH2 0xDF DUP3 PUSH2 0xB6 JUMP JUMPDEST SWAP1 POP SWAP2 SWAP1 POP JUMP JUMPDEST PUSH2 0xEF DUP2 PUSH2 0xD5 JUMP JUMPDEST DUP3 MSTORE POP POP JUMP JUMPDEST PUSH0 PUSH1 0x20 DUP3 ADD SWAP1 POP PUSH2 0x108 PUSH0 DUP4 ADD DUP5 PUSH2 0xE6 JUMP JUMPDEST SWAP3 SWAP2 POP POP JUMP INVALID PUSH1 0x80 PUSH1 0x40 MSTORE CALLVALUE DUP1 ISZERO PUSH1 0xE JUMPI PUSH0 DUP1 REVERT JUMPDEST POP PUSH2 0xD41 DUP1 PUSH2 0x1C PUSH0 CODECOPY PUSH0 RETURN INVALID PUSH1 0x80 PUSH1 0x40 MSTORE CALLVALUE DUP1 ISZERO PUSH2 0xF JUMPI PUSH0 DUP1 REVERT JUMPDEST POP PUSH1 0x4 CALLDATASIZE LT PUSH2 0x3F JUMPI PUSH0 CALLDATALOAD PUSH1 0xE0 SHR DUP1 PUSH4 0x3B668059 EQ PUSH2 0x43 JUMPI DUP1 PUSH4 0xB0690867 EQ PUSH2 0x61 JUMPI DUP1 PUSH4 0xD3E62601 EQ PUSH2 0x7D JUMPI JUMPDEST PUSH0 DUP1 REVERT JUMPDEST PUSH2 0x4B PUSH2 0xAD JUMP JUMPDEST PUSH1 0x40 MLOAD PUSH2 0x58 SWAP2 SWAP1 PUSH2 0x808 JUMP JUMPDEST PUSH1 0x40 MLOAD DUP1 SWAP2 SUB SWAP1 RETURN JUMPDEST PUSH2 0x7B PUSH1 0x4 DUP1 CALLDATASIZE SUB DUP2 ADD SWAP1 PUSH2 0x76 SWAP2 SWAP1 PUSH2 0x9DC JUMP JUMPDEST PUSH2 0x152 JUMP JUMPDEST STOP JUMPDEST PUSH2 0x97 PUSH1 0x4 DUP1 CALLDATASIZE SUB DUP2 ADD SWAP1 PUSH2 0x92 SWAP2 SWAP1 PUSH2 0xA4D JUMP JUMPDEST PUSH2 0x665 JUMP JUMPDEST PUSH1 0x40 MLOAD PUSH2 0xA4 SWAP2 SWAP1 PUSH2 0xA87 JUMP JUMPDEST PUSH1 0x40 MLOAD DUP1 SWAP2 SUB SWAP1 RETURN JUMPDEST PUSH0 DUP1 PUSH3 0xF4240 PUSH20 0xB634247ABF7A50DD7B9CF6671A3E83F34F5F78D0 PUSH20 0xFFFFFFFFFFFFFFFFFFFFFFFFFFFFFFFFFFFFFFFF AND PUSH4 0x70A08231 ADDRESS PUSH1 0x40 MLOAD DUP3 PUSH4 0xFFFFFFFF AND PUSH1 0xE0 SHL DUP2 MSTORE PUSH1 0x4 ADD PUSH2 0x100 SWAP2 SWAP1 PUSH2 0xA87 JUMP JUMPDEST PUSH1 0x20 PUSH1 0x40 MLOAD DUP1 DUP4 SUB DUP2 DUP7 GAS STATICCALL ISZERO DUP1 ISZERO PUSH2 0x11B JUMPI RETURNDATASIZE PUSH0 DUP1 RETURNDATACOPY RETURNDATASIZE PUSH0 REVERT JUMPDEST POP POP POP POP PUSH1 0x40 MLOAD RETURNDATASIZE PUSH1 0x1F NOT PUSH1 0x1F DUP3 ADD AND DUP3 ADD DUP1 PUSH1 0x40 MSTORE POP DUP2 ADD SWAP1 PUSH2 0x13F SWAP2 SWAP1 PUSH2 0xAB4 JUMP JUMPDEST PUSH2 0x149 SWAP2 SWAP1 PUSH2 0xB39 JUMP JUMPDEST SWAP1 POP DUP1 SWAP2 POP POP SWAP1 JUMP JUMPDEST PUSH2 0x15A PUSH2 0x7CE JUMP JUMPDEST DUP2 PUSH0 DUP2 MLOAD DUP2 LT PUSH2 0x16D JUMPI PUSH2 0x16C PUSH2 0xB69 JUMP JUMPDEST JUMPDEST PUSH1 0x20 MUL PUSH1 0x20 ADD ADD MLOAD DUP2 PUSH0 PUSH1 0x3 DUP2 LT PUSH2 0x188 JUMPI PUSH2 0x187 PUSH2 0xB69 JUMP JUMPDEST JUMPDEST PUSH1 0x20 MUL ADD SWAP1 PUSH20 0xFFFFFFFFFFFFFFFFFFFFFFFFFFFFFFFFFFFFFFFF AND SWAP1 DUP2 PUSH20 0xFFFFFFFFFFFFFFFFFFFFFFFFFFFFFFFFFFFFFFFF AND DUP2 MSTORE POP POP DUP2 PUSH1 0x1 DUP2 MLOAD DUP2 LT PUSH2 0x1D3 JUMPI PUSH2 0x1D2 PUSH2 0xB69 JUMP JUMPDEST JUMPDEST PUSH1 0x20 MUL PUSH1 0x20 ADD ADD MLOAD DUP2 PUSH1 0x1 PUSH1 0x3 DUP2 LT PUSH2 0x1EF JUMPI PUSH2 0x1EE PUSH2 0xB69 JUMP JUMPDEST JUMPDEST PUSH1 0x20 MUL ADD SWAP1 PUSH20 0xFFFFFFFFFFFFFFFFFFFFFFFFFFFFFFFFFFFFFFFF AND SWAP1 DUP2 PUSH20 0xFFFFFFFFFFFFFFFFFFFFFFFFFFFFFFFFFFFFFFFF AND DUP2 MSTORE POP POP DUP2 PUSH1 0x2 DUP2 MLOAD DUP2 LT PUSH2 0x23A JUMPI PUSH2 0x239 PUSH2 0xB69 JUMP JUMPDEST JUMPDEST PUSH1 0x20 MUL PUSH1 0x20 ADD ADD MLOAD DUP2 PUSH1 0x2 PUSH1 0x3 DUP2 LT PUSH2 0x256 JUMPI PUSH2 0x255 PUSH2 0xB69 JUMP JUMPDEST JUMPDEST PUSH1 0x20 MUL ADD SWAP1 PUSH20 0xFFFFFFFFFFFFFFFFFFFFFFFFFFFFFFFFFFFFFFFF AND SWAP1 DUP2 PUSH20 0xFFFFFFFFFFFFFFFFFFFFFFFFFFFFFFFFFFFFFFFF AND DUP2 MSTORE POP POP PUSH0 PUSH20 0xB634247ABF7A50DD7B9CF6671A3E83F34F5F78D0 PUSH20 0xFFFFFFFFFFFFFFFFFFFFFFFFFFFFFFFFFFFFFFFF AND PUSH4 0x70A08231 ADDRESS PUSH1 0x40 MLOAD DUP3 PUSH4 0xFFFFFFFF AND PUSH1 0xE0 SHL DUP2 MSTORE PUSH1 0x4 ADD PUSH2 0x2DB SWAP2 SWAP1 PUSH2 0xA87 JUMP JUMPDEST PUSH1 0x20 PUSH1 0x40 MLOAD DUP1 DUP4 SUB DUP2 DUP7 GAS STATICCALL ISZERO DUP1 ISZERO PUSH2 0x2F6 JUMPI RETURNDATASIZE PUSH0 DUP1 RETURNDATACOPY RETURNDATASIZE PUSH0 REVERT JUMPDEST POP POP POP POP PUSH1 0x40 MLOAD RETURNDATASIZE PUSH1 0x1F NOT PUSH1 0x1F DUP3 ADD AND DUP3 ADD DUP1 PUSH1 0x40 MSTORE POP DUP2 ADD SWAP1 PUSH2 0x31A SWAP2 SWAP1 PUSH2 0xAB4 JUMP JUMPDEST SWAP1 POP PUSH0 DUP2 SUB PUSH2 0x355 JUMPI PUSH1 0x40 MLOAD PUSH32 0xB09959A600000000000000000000000000000000000000000000000000000000 DUP2 MSTORE PUSH1 0x4 ADD PUSH1 0x40 MLOAD DUP1 SWAP2 SUB SWAP1 REVERT JUMPDEST PUSH0 PUSH3 0xF4240 PUSH1 0x64 PUSH2 0x366 SWAP2 SWAP1 PUSH2 0xB96 JUMP JUMPDEST PUSH3 0xF4240 DUP4 PUSH1 0x3A PUSH2 0x377 SWAP2 SWAP1 PUSH2 0xB96 JUMP JUMPDEST PUSH2 0x381 SWAP2 SWAP1 PUSH2 0xB96 JUMP JUMPDEST PUSH2 0x38B SWAP2 SWAP1 PUSH2 0xB39 JUMP JUMPDEST SWAP1 POP PUSH0 PUSH3 0xF4240 PUSH1 0x64 PUSH2 0x39E SWAP2 SWAP1 PUSH2 0xB96 JUMP JUMPDEST PUSH3 0xF4240 DUP5 PUSH1 0x1D PUSH2 0x3AF SWAP2 SWAP1 PUSH2 0xB96 JUMP JUMPDEST PUSH2 0x3B9 SWAP2 SWAP1 PUSH2 0xB96 JUMP JUMPDEST PUSH2 0x3C3 SWAP2 SWAP1 PUSH2 0xB39 JUMP JUMPDEST SWAP1 POP PUSH0 PUSH3 0xF4240 PUSH1 0x64 PUSH2 0x3D6 SWAP2 SWAP1 PUSH2 0xB96 JUMP JUMPDEST PUSH3 0xF4240 DUP6 PUSH1 0x9 PUSH2 0x3E7 SWAP2 SWAP1 PUSH2 0xB96 JUMP JUMPDEST PUSH2 0x3F1 SWAP2 SWAP1 PUSH2 0xB96 JUMP JUMPDEST PUSH2 0x3FB SWAP2 SWAP1 PUSH2 0xB39 JUMP JUMPDEST SWAP1 POP PUSH20 0xB634247ABF7A50DD7B9CF6671A3E83F34F5F78D0 PUSH20 0xFFFFFFFFFFFFFFFFFFFFFFFFFFFFFFFFFFFFFFFF AND PUSH4 0xA9059CBB PUSH0 DUP1 DUP2 SLOAD DUP2 LT PUSH2 0x440 JUMPI PUSH2 0x43F PUSH2 0xB69 JUMP JUMPDEST JUMPDEST SWAP1 PUSH0 MSTORE PUSH1 0x20 PUSH0 KECCAK256 ADD PUSH0 SWAP1 SLOAD SWAP1 PUSH2 0x100 EXP SWAP1 DIV PUSH20 0xFFFFFFFFFFFFFFFFFFFFFFFFFFFFFFFFFFFFFFFF AND DUP6 PUSH1 0x40 MLOAD DUP4 PUSH4 0xFFFFFFFF AND PUSH1 0xE0 SHL DUP2 MSTORE PUSH1 0x4 ADD PUSH2 0x486 SWAP3 SWAP2 SWAP1 PUSH2 0xBD7 JUMP JUMPDEST PUSH1 0x20 PUSH1 0x40 MLOAD DUP1 DUP4 SUB DUP2 PUSH0 DUP8 GAS CALL ISZERO DUP1 ISZERO PUSH2 0x4A2 JUMPI RETURNDATASIZE PUSH0 DUP1 RETURNDATACOPY RETURNDATASIZE PUSH0 REVERT JUMPDEST POP POP POP POP PUSH1 0x40 MLOAD RETURNDATASIZE PUSH1 0x1F NOT PUSH1 0x1F DUP3 ADD AND DUP3 ADD DUP1 PUSH1 0x40 MSTORE POP DUP2 ADD SWAP1 PUSH2 0x4C6 SWAP2 SWAP1 PUSH2 0xC33 JUMP JUMPDEST POP PUSH20 0xB634247ABF7A50DD7B9CF6671A3E83F34F5F78D0 PUSH20 0xFFFFFFFFFFFFFFFFFFFFFFFFFFFFFFFFFFFFFFFF AND PUSH4 0xA9059CBB PUSH0 PUSH1 0x1 DUP2 SLOAD DUP2 LT PUSH2 0x50B JUMPI PUSH2 0x50A PUSH2 0xB69 JUMP JUMPDEST JUMPDEST SWAP1 PUSH0 MSTORE PUSH1 0x20 PUSH0 KECCAK256 ADD PUSH0 SWAP1 SLOAD SWAP1 PUSH2 0x100 EXP SWAP1 DIV PUSH20 0xFFFFFFFFFFFFFFFFFFFFFFFFFFFFFFFFFFFFFFFF AND DUP5 PUSH1 0x40 MLOAD DUP4 PUSH4 0xFFFFFFFF AND PUSH1 0xE0 SHL DUP2 MSTORE PUSH1 0x4 ADD PUSH2 0x551 SWAP3 SWAP2 SWAP1 PUSH2 0xBD7 JUMP JUMPDEST PUSH1 0x20 PUSH1 0x40 MLOAD DUP1 DUP4 SUB DUP2 PUSH0 DUP8 GAS CALL ISZERO DUP1 ISZERO PUSH2 0x56D JUMPI RETURNDATASIZE PUSH0 DUP1 RETURNDATACOPY RETURNDATASIZE PUSH0 REVERT JUMPDEST POP POP POP POP PUSH1 0x40 MLOAD RETURNDATASIZE PUSH1 0x1F NOT PUSH1 0x1F DUP3 ADD AND DUP3 ADD DUP1 PUSH1 0x40 MSTORE POP DUP2 ADD SWAP1 PUSH2 0x591 SWAP2 SWAP1 PUSH2 0xC33 JUMP JUMPDEST POP PUSH20 0xB634247ABF7A50DD7B9CF6671A3E83F34F5F78D0 PUSH20 0xFFFFFFFFFFFFFFFFFFFFFFFFFFFFFFFFFFFFFFFF AND PUSH4 0xA9059CBB PUSH0 PUSH1 0x2 DUP2 SLOAD DUP2 LT PUSH2 0x5D6 JUMPI PUSH2 0x5D5 PUSH2 0xB69 JUMP JUMPDEST JUMPDEST SWAP1 PUSH0 MSTORE PUSH1 0x20 PUSH0 KECCAK256 ADD PUSH0 SWAP1 SLOAD SWAP1 PUSH2 0x100 EXP SWAP1 DIV PUSH20 0xFFFFFFFFFFFFFFFFFFFFFFFFFFFFFFFFFFFFFFFF AND DUP4 PUSH1 0x40 MLOAD DUP4 PUSH4 0xFFFFFFFF AND PUSH1 0xE0 SHL DUP2 MSTORE PUSH1 0x4 ADD PUSH2 0x61C SWAP3 SWAP2 SWAP1 PUSH2 0xBD7 JUMP JUMPDEST PUSH1 0x20 PUSH1 0x40 MLOAD DUP1 DUP4 SUB DUP2 PUSH0 DUP8 GAS CALL ISZERO DUP1 ISZERO PUSH2 0x638 JUMPI RETURNDATASIZE PUSH0 DUP1 RETURNDATACOPY RETURNDATASIZE PUSH0 REVERT JUMPDEST POP POP POP POP PUSH1 0x40 MLOAD RETURNDATASIZE PUSH1 0x1F NOT PUSH1 0x1F DUP3 ADD AND DUP3 ADD DUP1 PUSH1 0x40 MSTORE POP DUP2 ADD SWAP1 PUSH2 0x65C SWAP2 SWAP1 PUSH2 0xC33 JUMP JUMPDEST POP POP POP POP POP POP POP JUMP JUMPDEST PUSH0 DUP2 PUSH20 0xB634247ABF7A50DD7B9CF6671A3E83F34F5F78D0 PUSH20 0xFFFFFFFFFFFFFFFFFFFFFFFFFFFFFFFFFFFFFFFF AND PUSH4 0x70A08231 CALLER PUSH1 0x40 MLOAD DUP3 PUSH4 0xFFFFFFFF AND PUSH1 0xE0 SHL DUP2 MSTORE PUSH1 0x4 ADD PUSH2 0x6B4 SWAP2 SWAP1 PUSH2 0xA87 JUMP JUMPDEST PUSH1 0x20 PUSH1 0x40 MLOAD DUP1 DUP4 SUB DUP2 DUP7 GAS STATICCALL ISZERO DUP1 ISZERO PUSH2 0x6CF JUMPI RETURNDATASIZE PUSH0 DUP1 RETURNDATACOPY RETURNDATASIZE PUSH0 REVERT JUMPDEST POP POP POP POP PUSH1 0x40 MLOAD RETURNDATASIZE PUSH1 0x1F NOT PUSH1 0x1F DUP3 ADD AND DUP3 ADD DUP1 PUSH1 0x40 MSTORE POP DUP2 ADD SWAP1 PUSH2 0x6F3 SWAP2 SWAP1 PUSH2 0xAB4 JUMP JUMPDEST LT ISZERO PUSH2 0x734 JUMPI PUSH1 0x40 MLOAD PUSH32 0x8C379A000000000000000000000000000000000000000000000000000000000 DUP2 MSTORE PUSH1 0x4 ADD PUSH2 0x72B SWAP1 PUSH2 0xCB8 JUMP JUMPDEST PUSH1 0x40 MLOAD DUP1 SWAP2 SUB SWAP1 REVERT JUMPDEST PUSH20 0xB634247ABF7A50DD7B9CF6671A3E83F34F5F78D0 PUSH20 0xFFFFFFFFFFFFFFFFFFFFFFFFFFFFFFFFFFFFFFFF AND PUSH4 0x23B872DD CALLER ADDRESS DUP6 PUSH1 0x40 MLOAD DUP5 PUSH4 0xFFFFFFFF AND PUSH1 0xE0 SHL DUP2 MSTORE PUSH1 0x4 ADD PUSH2 0x785 SWAP4 SWAP3 SWAP2 SWAP1 PUSH2 0xCD6 JUMP JUMPDEST PUSH1 0x20 PUSH1 0x40 MLOAD DUP1 DUP4 SUB DUP2 PUSH0 DUP8 GAS CALL ISZERO DUP1 ISZERO PUSH2 0x7A1 JUMPI RETURNDATASIZE PUSH0 DUP1 RETURNDATACOPY RETURNDATASIZE PUSH0 REVERT JUMPDEST POP POP POP POP PUSH1 0x40 MLOAD RETURNDATASIZE PUSH1 0x1F NOT PUSH1 0x1F DUP3 ADD AND DUP3 ADD DUP1 PUSH1 0x40 MSTORE POP DUP2 ADD SWAP1 PUSH2 0x7C5 SWAP2 SWAP1 PUSH2 0xC33 JUMP JUMPDEST POP CALLER SWAP1 POP SWAP2 SWAP1 POP JUMP JUMPDEST PUSH1 0x40 MLOAD DUP1 PUSH1 0x60 ADD PUSH1 0x40 MSTORE DUP1 PUSH1 0x3 SWAP1 PUSH1 0x20 DUP3 MUL DUP1 CALLDATASIZE DUP4 CALLDATACOPY DUP1 DUP3 ADD SWAP2 POP POP SWAP1 POP POP SWAP1 JUMP JUMPDEST PUSH0 DUP2 SWAP1 POP SWAP2 SWAP1 POP JUMP JUMPDEST PUSH2 0x802 DUP2 PUSH2 0x7F0 JUMP JUMPDEST DUP3 MSTORE POP POP JUMP JUMPDEST PUSH0 PUSH1 0x20 DUP3 ADD SWAP1 POP PUSH2 0x81B PUSH0 DUP4 ADD DUP5 PUSH2 0x7F9 JUMP JUMPDEST SWAP3 SWAP2 POP POP JUMP JUMPDEST PUSH0 PUSH1 0x40 MLOAD SWAP1 POP SWAP1 JUMP JUMPDEST PUSH0 DUP1 REVERT JUMPDEST PUSH0 DUP1 REVERT JUMPDEST PUSH0 DUP1 REVERT JUMPDEST PUSH0 PUSH1 0x1F NOT PUSH1 0x1F DUP4 ADD AND SWAP1 POP SWAP2 SWAP1 POP JUMP JUMPDEST PUSH32 0x4E487B7100000000000000000000000000000000000000000000000000000000 PUSH0 MSTORE PUSH1 0x41 PUSH1 0x4 MSTORE PUSH1 0x24 PUSH0 REVERT JUMPDEST PUSH2 0x87C DUP3 PUSH2 0x836 JUMP JUMPDEST DUP2 ADD DUP2 DUP2 LT PUSH8 0xFFFFFFFFFFFFFFFF DUP3 GT OR ISZERO PUSH2 0x89B JUMPI PUSH2 0x89A PUSH2 0x846 JUMP JUMPDEST JUMPDEST DUP1 PUSH1 0x40 MSTORE POP POP POP JUMP JUMPDEST PUSH0 PUSH2 0x8AD PUSH2 0x821 JUMP JUMPDEST SWAP1 POP PUSH2 0x8B9 DUP3 DUP3 PUSH2 0x873 JUMP JUMPDEST SWAP2 SWAP1 POP JUMP JUMPDEST PUSH0 PUSH8 0xFFFFFFFFFFFFFFFF DUP3 GT ISZERO PUSH2 0x8D8 JUMPI PUSH2 0x8D7 PUSH2 0x846 JUMP JUMPDEST JUMPDEST PUSH1 0x20 DUP3 MUL SWAP1 POP PUSH1 0x20 DUP2 ADD SWAP1 POP SWAP2 SWAP1 POP JUMP JUMPDEST PUSH0 DUP1 REVERT JUMPDEST PUSH0 PUSH20 0xFFFFFFFFFFFFFFFFFFFFFFFFFFFFFFFFFFFFFFFF DUP3 AND SWAP1 POP SWAP2 SWAP1 POP JUMP JUMPDEST PUSH0 PUSH2 0x916 DUP3 PUSH2 0x8ED JUMP JUMPDEST SWAP1 POP SWAP2 SWAP1 POP JUMP JUMPDEST PUSH2 0x926 DUP2 PUSH2 0x90C JUMP JUMPDEST DUP2 EQ PUSH2 0x930 JUMPI PUSH0 DUP1 REVERT JUMPDEST POP JUMP JUMPDEST PUSH0 DUP2 CALLDATALOAD SWAP1 POP PUSH2 0x941 DUP2 PUSH2 0x91D JUMP JUMPDEST SWAP3 SWAP2 POP POP JUMP JUMPDEST PUSH0 PUSH2 0x959 PUSH2 0x954 DUP5 PUSH2 0x8BE JUMP JUMPDEST PUSH2 0x8A4 JUMP JUMPDEST SWAP1 POP DUP1 DUP4 DUP3 MSTORE PUSH1 0x20 DUP3 ADD SWAP1 POP PUSH1 0x20 DUP5 MUL DUP4 ADD DUP6 DUP2 GT ISZERO PUSH2 0x97C JUMPI PUSH2 0x97B PUSH2 0x8E9 JUMP JUMPDEST JUMPDEST DUP4 JUMPDEST DUP2 DUP2 LT ISZERO PUSH2 0x9A5 JUMPI DUP1 PUSH2 0x991 DUP9 DUP3 PUSH2 0x933 JUMP JUMPDEST DUP5 MSTORE PUSH1 0x20 DUP5 ADD SWAP4 POP POP PUSH1 0x20 DUP2 ADD SWAP1 POP PUSH2 0x97E JUMP JUMPDEST POP POP POP SWAP4 SWAP3 POP POP POP JUMP JUMPDEST PUSH0 DUP3 PUSH1 0x1F DUP4 ADD SLT PUSH2 0x9C3 JUMPI PUSH2 0x9C2 PUSH2 0x832 JUMP JUMPDEST JUMPDEST DUP2 CALLDATALOAD PUSH2 0x9D3 DUP5 DUP3 PUSH1 0x20 DUP7 ADD PUSH2 0x947 JUMP JUMPDEST SWAP2 POP POP SWAP3 SWAP2 POP POP JUMP JUMPDEST PUSH0 PUSH1 0x20 DUP3 DUP5 SUB SLT ISZERO PUSH2 0x9F1 JUMPI PUSH2 0x9F0 PUSH2 0x82A JUMP JUMPDEST JUMPDEST PUSH0 DUP3 ADD CALLDATALOAD PUSH8 0xFFFFFFFFFFFFFFFF DUP2 GT ISZERO PUSH2 0xA0E JUMPI PUSH2 0xA0D PUSH2 0x82E JUMP JUMPDEST JUMPDEST PUSH2 0xA1A DUP5 DUP3 DUP6 ADD PUSH2 0x9AF JUMP JUMPDEST SWAP2 POP POP SWAP3 SWAP2 POP POP JUMP JUMPDEST PUSH2 0xA2C DUP2 PUSH2 0x7F0 JUMP JUMPDEST DUP2 EQ PUSH2 0xA36 JUMPI PUSH0 DUP1 REVERT JUMPDEST POP JUMP JUMPDEST PUSH0 DUP2 CALLDATALOAD SWAP1 POP PUSH2 0xA47 DUP2 PUSH2 0xA23 JUMP JUMPDEST SWAP3 SWAP2 POP POP JUMP JUMPDEST PUSH0 PUSH1 0x20 DUP3 DUP5 SUB SLT ISZERO PUSH2 0xA62 JUMPI PUSH2 0xA61 PUSH2 0x82A JUMP JUMPDEST JUMPDEST PUSH0 PUSH2 0xA6F DUP5 DUP3 DUP6 ADD PUSH2 0xA39 JUMP JUMPDEST SWAP2 POP POP SWAP3 SWAP2 POP POP JUMP JUMPDEST PUSH2 0xA81 DUP2 PUSH2 0x90C JUMP JUMPDEST DUP3 MSTORE POP POP JUMP JUMPDEST PUSH0 PUSH1 0x20 DUP3 ADD SWAP1 POP PUSH2 0xA9A PUSH0 DUP4 ADD DUP5 PUSH2 0xA78 JUMP JUMPDEST SWAP3 SWAP2 POP POP JUMP JUMPDEST PUSH0 DUP2 MLOAD SWAP1 POP PUSH2 0xAAE DUP2 PUSH2 0xA23 JUMP JUMPDEST SWAP3 SWAP2 POP POP JUMP JUMPDEST PUSH0 PUSH1 0x20 DUP3 DUP5 SUB SLT ISZERO PUSH2 0xAC9 JUMPI PUSH2 0xAC8 PUSH2 0x82A JUMP JUMPDEST JUMPDEST PUSH0 PUSH2 0xAD6 DUP5 DUP3 DUP6 ADD PUSH2 0xAA0 JUMP JUMPDEST SWAP2 POP POP SWAP3 SWAP2 POP POP JUMP JUMPDEST PUSH32 0x4E487B7100000000000000000000000000000000000000000000000000000000 PUSH0 MSTORE PUSH1 0x12 PUSH1 0x4 MSTORE PUSH1 0x24 PUSH0 REVERT JUMPDEST PUSH32 0x4E487B7100000000000000000000000000000000000000000000000000000000 PUSH0 MSTORE PUSH1 0x11 PUSH1 0x4 MSTORE PUSH1 0x24 PUSH0 REVERT JUMPDEST PUSH0 PUSH2 0xB43 DUP3 PUSH2 0x7F0 JUMP JUMPDEST SWAP2 POP PUSH2 0xB4E DUP4 PUSH2 0x7F0 JUMP JUMPDEST SWAP3 POP DUP3 PUSH2 0xB5E JUMPI PUSH2 0xB5D PUSH2 0xADF JUMP JUMPDEST JUMPDEST DUP3 DUP3 DIV SWAP1 POP SWAP3 SWAP2 POP POP JUMP JUMPDEST PUSH32 0x4E487B7100000000000000000000000000000000000000000000000000000000 PUSH0 MSTORE PUSH1 0x32 PUSH1 0x4 MSTORE PUSH1 0x24 PUSH0 REVERT JUMPDEST PUSH0 PUSH2 0xBA0 DUP3 PUSH2 0x7F0 JUMP JUMPDEST SWAP2 POP PUSH2 0xBAB DUP4 PUSH2 0x7F0 JUMP JUMPDEST SWAP3 POP DUP3 DUP3 MUL PUSH2 0xBB9 DUP2 PUSH2 0x7F0 JUMP JUMPDEST SWAP2 POP DUP3 DUP3 DIV DUP5 EQ DUP4 ISZERO OR PUSH2 0xBD0 JUMPI PUSH2 0xBCF PUSH2 0xB0C JUMP JUMPDEST JUMPDEST POP SWAP3 SWAP2 POP POP JUMP JUMPDEST PUSH0 PUSH1 0x40 DUP3 ADD SWAP1 POP PUSH2 0xBEA PUSH0 DUP4 ADD DUP6 PUSH2 0xA78 JUMP JUMPDEST PUSH2 0xBF7 PUSH1 0x20 DUP4 ADD DUP5 PUSH2 0x7F9 JUMP JUMPDEST SWAP4 SWAP3 POP POP POP JUMP JUMPDEST PUSH0 DUP2 ISZERO ISZERO SWAP1 POP SWAP2 SWAP1 POP JUMP JUMPDEST PUSH2 0xC12 DUP2 PUSH2 0xBFE JUMP JUMPDEST DUP2 EQ PUSH2 0xC1C JUMPI PUSH0 DUP1 REVERT JUMPDEST POP JUMP JUMPDEST PUSH0 DUP2 MLOAD SWAP1 POP PUSH2 0xC2D DUP2 PUSH2 0xC09 JUMP JUMPDEST SWAP3 SWAP2 POP POP JUMP JUMPDEST PUSH0 PUSH1 0x20 DUP3 DUP5 SUB SLT ISZERO PUSH2 0xC48 JUMPI PUSH2 0xC47 PUSH2 0x82A JUMP JUMPDEST JUMPDEST PUSH0 PUSH2 0xC55 DUP5 DUP3 DUP6 ADD PUSH2 0xC1F JUMP JUMPDEST SWAP2 POP POP SWAP3 SWAP2 POP POP JUMP JUMPDEST PUSH0 DUP3 DUP3 MSTORE PUSH1 0x20 DUP3 ADD SWAP1 POP SWAP3 SWAP2 POP POP JUMP JUMPDEST PUSH32 0x496E737566666963656E742042616C616E636500000000000000000000000000 PUSH0 DUP3 ADD MSTORE POP JUMP JUMPDEST PUSH0 PUSH2 0xCA2 PUSH1 0x13 DUP4 PUSH2 0xC5E JUMP JUMPDEST SWAP2 POP PUSH2 0xCAD DUP3 PUSH2 0xC6E JUMP JUMPDEST PUSH1 0x20 DUP3 ADD SWAP1 POP SWAP2 SWAP1 POP JUMP JUMPDEST PUSH0 PUSH1 0x20 DUP3 ADD SWAP1 POP DUP2 DUP2 SUB PUSH0 DUP4 ADD MSTORE PUSH2 0xCCF DUP2 PUSH2 0xC96 JUMP JUMPDEST SWAP1 POP SWAP2 SWAP1 POP JUMP JUMPDEST PUSH0 PUSH1 0x60 DUP3 ADD SWAP1 POP PUSH2 0xCE9 PUSH0 DUP4 ADD DUP7 PUSH2 0xA78 JUMP JUMPDEST PUSH2 0xCF6 PUSH1 0x20 DUP4 ADD DUP6 PUSH2 0xA78 JUMP JUMPDEST PUSH2 0xD03 PUSH1 0x40 DUP4 ADD DUP5 PUSH2 0x7F9 JUMP JUMPDEST SWAP5 SWAP4 POP POP POP POP JUMP INVALID LOG2 PUSH5 0x6970667358 0x22 SLT KECCAK256 DUP10 0xEF NOT 0xE1 0x21 0xA5 0xEF JUMP MSTORE PUSH26 0x2F683526CE116E5EEB9526960A183935699A57890FDA64736F6C PUSH4 0x4300081A STOP CALLER LOG2 PUSH5 0x6970667358 0x22 SLT KECCAK256 0xCF CHAINID GT 0xEC 0xC2 0xC2 CREATE2 0xB3 0xF7 OR DELEGATECALL 0xE9 0xE4 0x26 0xC4 POP 0xC7 SWAP8 SWAP13 PUSH25 0xC2630D9E3067D04F3D62900164736F6C634300081A00330000 "
				},
				"gasEstimates": {
					"creation": {
						"codeDepositCost": "749000",
						"executionCost": "784",
						"totalCost": "749784"
					},
					"external": {
						"createTriviaContract()": "infinite",
						"heyhey()": "350"
					}
				},
				"methodIdentifiers": {
					"createTriviaContract()": "c313889c",
					"heyhey()": "b4a74ef7"
				}
			},
			"storageLayout": {
				"storage": [],
				"types": null
			},
			"userdoc": {
				"kind": "user",
				"methods": {},
				"version": 1
			}
		}
	}
}