{
	"contracts/new.sol": {
		"FactoryCompliment": {
			"abi": [
				{
					"inputs": [
						{
							"internalType": "string",
							"name": "_name",
							"type": "string"
						}
					],
					"name": "createComplim",
					"outputs": [
						{
							"internalType": "address",
							"name": "",
							"type": "address"
						}
					],
					"stateMutability": "nonpayable",
					"type": "function"
				}
			],
			"devdoc": {
				"kind": "dev",
				"methods": {},
				"version": 1
			},
			"evm": {
				"assembly": "    /* \"contracts/new.sol\":297:505  contract FactoryCompliment{... */\n  mstore(0x40, 0x80)\n  callvalue\n  dup1\n  iszero\n  tag_1\n  jumpi\n  0x00\n  dup1\n  revert\ntag_1:\n  pop\n  dataSize(sub_0)\n  dup1\n  dataOffset(sub_0)\n  0x00\n  codecopy\n  0x00\n  return\nstop\n\nsub_0: assembly {\n        /* \"contracts/new.sol\":297:505  contract FactoryCompliment{... */\n      mstore(0x40, 0x80)\n      callvalue\n      dup1\n      iszero\n      tag_1\n      jumpi\n      0x00\n      dup1\n      revert\n    tag_1:\n      pop\n      jumpi(tag_2, lt(calldatasize, 0x04))\n      shr(0xe0, calldataload(0x00))\n      dup1\n      0x99e19966\n      eq\n      tag_3\n      jumpi\n    tag_2:\n      0x00\n      dup1\n      revert\n        /* \"contracts/new.sol\":329:503  function createComplim(string memory _name) external returns(address){... */\n    tag_3:\n      tag_4\n      0x04\n      dup1\n      calldatasize\n      sub\n      dup2\n      add\n      swap1\n      tag_5\n      swap2\n      swap1\n      tag_6\n      jump\t// in\n    tag_5:\n      tag_7\n      jump\t// in\n    tag_4:\n      mload(0x40)\n      tag_8\n      swap2\n      swap1\n      tag_9\n      jump\t// in\n    tag_8:\n      mload(0x40)\n      dup1\n      swap2\n      sub\n      swap1\n      return\n    tag_7:\n        /* \"contracts/new.sol\":390:397  address */\n      0x00\n        /* \"contracts/new.sol\":408:433  Complimenter newComplimnt */\n      dup1\n        /* \"contracts/new.sol\":451:456  _name */\n      dup3\n        /* \"contracts/new.sol\":434:457  new Complimenter(_name) */\n      mload(0x40)\n      tag_11\n      swap1\n      tag_12\n      jump\t// in\n    tag_11:\n      tag_13\n      swap2\n      swap1\n      tag_14\n      jump\t// in\n    tag_13:\n      mload(0x40)\n      dup1\n      swap2\n      sub\n      swap1\n      0x00\n      create\n      dup1\n      iszero\n      dup1\n      iszero\n      tag_15\n      jumpi\n      returndatasize\n      0x00\n      dup1\n      returndatacopy\n      revert(0x00, returndatasize)\n    tag_15:\n      pop\n        /* \"contracts/new.sol\":408:457  Complimenter newComplimnt=new Complimenter(_name) */\n      swap1\n      pop\n        /* \"contracts/new.sol\":482:494  newComplimnt */\n      dup1\n        /* \"contracts/new.sol\":467:495  return address(newComplimnt) */\n      swap2\n      pop\n      pop\n        /* \"contracts/new.sol\":329:503  function createComplim(string memory _name) external returns(address){... */\n      swap2\n      swap1\n      pop\n      jump\t// out\n    tag_12:\n      dataSize(sub_0)\n      dup1\n      dataOffset(sub_0)\n      dup4\n      codecopy\n      add\n      swap1\n      jump\t// out\n        /* \"#utility.yul\":7:82   */\n    tag_16:\n        /* \"#utility.yul\":40:46   */\n      0x00\n        /* \"#utility.yul\":73:75   */\n      0x40\n        /* \"#utility.yul\":67:76   */\n      mload\n        /* \"#utility.yul\":57:76   */\n      swap1\n      pop\n        /* \"#utility.yul\":7:82   */\n      swap1\n      jump\t// out\n        /* \"#utility.yul\":88:205   */\n    tag_17:\n        /* \"#utility.yul\":197:198   */\n      0x00\n        /* \"#utility.yul\":194:195   */\n      dup1\n        /* \"#utility.yul\":187:199   */\n      revert\n        /* \"#utility.yul\":211:328   */\n    tag_18:\n        /* \"#utility.yul\":320:321   */\n      0x00\n        /* \"#utility.yul\":317:318   */\n      dup1\n        /* \"#utility.yul\":310:322   */\n      revert\n        /* \"#utility.yul\":334:451   */\n    tag_19:\n        /* \"#utility.yul\":443:444   */\n      0x00\n        /* \"#utility.yul\":440:441   */\n      dup1\n        /* \"#utility.yul\":433:445   */\n      revert\n        /* \"#utility.yul\":457:574   */\n    tag_20:\n        /* \"#utility.yul\":566:567   */\n      0x00\n        /* \"#utility.yul\":563:564   */\n      dup1\n        /* \"#utility.yul\":556:568   */\n      revert\n        /* \"#utility.yul\":580:682   */\n    tag_21:\n        /* \"#utility.yul\":621:627   */\n      0x00\n        /* \"#utility.yul\":672:674   */\n      0x1f\n        /* \"#utility.yul\":668:675   */\n      not\n        /* \"#utility.yul\":663:665   */\n      0x1f\n        /* \"#utility.yul\":656:661   */\n      dup4\n        /* \"#utility.yul\":652:666   */\n      add\n        /* \"#utility.yul\":648:676   */\n      and\n        /* \"#utility.yul\":638:676   */\n      swap1\n      pop\n        /* \"#utility.yul\":580:682   */\n      swap2\n      swap1\n      pop\n      jump\t// out\n        /* \"#utility.yul\":688:868   */\n    tag_22:\n        /* \"#utility.yul\":736:813   */\n      0x4e487b7100000000000000000000000000000000000000000000000000000000\n        /* \"#utility.yul\":733:734   */\n      0x00\n        /* \"#utility.yul\":726:814   */\n      mstore\n        /* \"#utility.yul\":833:837   */\n      0x41\n        /* \"#utility.yul\":830:831   */\n      0x04\n        /* \"#utility.yul\":823:838   */\n      mstore\n        /* \"#utility.yul\":857:861   */\n      0x24\n        /* \"#utility.yul\":854:855   */\n      0x00\n        /* \"#utility.yul\":847:862   */\n      revert\n        /* \"#utility.yul\":874:1155   */\n    tag_23:\n        /* \"#utility.yul\":957:984   */\n      tag_45\n        /* \"#utility.yul\":979:983   */\n      dup3\n        /* \"#utility.yul\":957:984   */\n      tag_21\n      jump\t// in\n    tag_45:\n        /* \"#utility.yul\":949:955   */\n      dup2\n        /* \"#utility.yul\":945:985   */\n      add\n        /* \"#utility.yul\":1087:1093   */\n      dup2\n        /* \"#utility.yul\":1075:1085   */\n      dup2\n        /* \"#utility.yul\":1072:1094   */\n      lt\n        /* \"#utility.yul\":1051:1069   */\n      0xffffffffffffffff\n        /* \"#utility.yul\":1039:1049   */\n      dup3\n        /* \"#utility.yul\":1036:1070   */\n      gt\n        /* \"#utility.yul\":1033:1095   */\n      or\n        /* \"#utility.yul\":1030:1118   */\n      iszero\n      tag_46\n      jumpi\n        /* \"#utility.yul\":1098:1116   */\n      tag_47\n      tag_22\n      jump\t// in\n    tag_47:\n        /* \"#utility.yul\":1030:1118   */\n    tag_46:\n        /* \"#utility.yul\":1138:1148   */\n      dup1\n        /* \"#utility.yul\":1134:1136   */\n      0x40\n        /* \"#utility.yul\":1127:1149   */\n      mstore\n        /* \"#utility.yul\":917:1155   */\n      pop\n        /* \"#utility.yul\":874:1155   */\n      pop\n      pop\n      jump\t// out\n        /* \"#utility.yul\":1161:1290   */\n    tag_24:\n        /* \"#utility.yul\":1195:1201   */\n      0x00\n        /* \"#utility.yul\":1222:1242   */\n      tag_49\n      tag_16\n      jump\t// in\n    tag_49:\n        /* \"#utility.yul\":1212:1242   */\n      swap1\n      pop\n        /* \"#utility.yul\":1251:1284   */\n      tag_50\n        /* \"#utility.yul\":1279:1283   */\n      dup3\n        /* \"#utility.yul\":1271:1277   */\n      dup3\n        /* \"#utility.yul\":1251:1284   */\n      tag_23\n      jump\t// in\n    tag_50:\n        /* \"#utility.yul\":1161:1290   */\n      swap2\n      swap1\n      pop\n      jump\t// out\n        /* \"#utility.yul\":1296:1604   */\n    tag_25:\n        /* \"#utility.yul\":1358:1362   */\n      0x00\n        /* \"#utility.yul\":1448:1466   */\n      0xffffffffffffffff\n        /* \"#utility.yul\":1440:1446   */\n      dup3\n        /* \"#utility.yul\":1437:1467   */\n      gt\n        /* \"#utility.yul\":1434:1490   */\n      iszero\n      tag_52\n      jumpi\n        /* \"#utility.yul\":1470:1488   */\n      tag_53\n      tag_22\n      jump\t// in\n    tag_53:\n        /* \"#utility.yul\":1434:1490   */\n    tag_52:\n        /* \"#utility.yul\":1508:1537   */\n      tag_54\n        /* \"#utility.yul\":1530:1536   */\n      dup3\n        /* \"#utility.yul\":1508:1537   */\n      tag_21\n      jump\t// in\n    tag_54:\n        /* \"#utility.yul\":1500:1537   */\n      swap1\n      pop\n        /* \"#utility.yul\":1592:1596   */\n      0x20\n        /* \"#utility.yul\":1586:1590   */\n      dup2\n        /* \"#utility.yul\":1582:1597   */\n      add\n        /* \"#utility.yul\":1574:1597   */\n      swap1\n      pop\n        /* \"#utility.yul\":1296:1604   */\n      swap2\n      swap1\n      pop\n      jump\t// out\n        /* \"#utility.yul\":1610:1758   */\n    tag_26:\n        /* \"#utility.yul\":1708:1714   */\n      dup3\n        /* \"#utility.yul\":1703:1706   */\n      dup2\n        /* \"#utility.yul\":1698:1701   */\n      dup4\n        /* \"#utility.yul\":1685:1715   */\n      calldatacopy\n        /* \"#utility.yul\":1749:1750   */\n      0x00\n        /* \"#utility.yul\":1740:1746   */\n      dup4\n        /* \"#utility.yul\":1735:1738   */\n      dup4\n        /* \"#utility.yul\":1731:1747   */\n      add\n        /* \"#utility.yul\":1724:1751   */\n      mstore\n        /* \"#utility.yul\":1610:1758   */\n      pop\n      pop\n      pop\n      jump\t// out\n        /* \"#utility.yul\":1764:2189   */\n    tag_27:\n        /* \"#utility.yul\":1842:1847   */\n      0x00\n        /* \"#utility.yul\":1867:1933   */\n      tag_57\n        /* \"#utility.yul\":1883:1932   */\n      tag_58\n        /* \"#utility.yul\":1925:1931   */\n      dup5\n        /* \"#utility.yul\":1883:1932   */\n      tag_25\n      jump\t// in\n    tag_58:\n        /* \"#utility.yul\":1867:1933   */\n      tag_24\n      jump\t// in\n    tag_57:\n        /* \"#utility.yul\":1858:1933   */\n      swap1\n      pop\n        /* \"#utility.yul\":1956:1962   */\n      dup3\n        /* \"#utility.yul\":1949:1954   */\n      dup2\n        /* \"#utility.yul\":1942:1963   */\n      mstore\n        /* \"#utility.yul\":1994:1998   */\n      0x20\n        /* \"#utility.yul\":1987:1992   */\n      dup2\n        /* \"#utility.yul\":1983:1999   */\n      add\n        /* \"#utility.yul\":2032:2035   */\n      dup5\n        /* \"#utility.yul\":2023:2029   */\n      dup5\n        /* \"#utility.yul\":2018:2021   */\n      dup5\n        /* \"#utility.yul\":2014:2030   */\n      add\n        /* \"#utility.yul\":2011:2036   */\n      gt\n        /* \"#utility.yul\":2008:2120   */\n      iszero\n      tag_59\n      jumpi\n        /* \"#utility.yul\":2039:2118   */\n      tag_60\n      tag_20\n      jump\t// in\n    tag_60:\n        /* \"#utility.yul\":2008:2120   */\n    tag_59:\n        /* \"#utility.yul\":2129:2183   */\n      tag_61\n        /* \"#utility.yul\":2176:2182   */\n      dup5\n        /* \"#utility.yul\":2171:2174   */\n      dup3\n        /* \"#utility.yul\":2166:2169   */\n      dup6\n        /* \"#utility.yul\":2129:2183   */\n      tag_26\n      jump\t// in\n    tag_61:\n        /* \"#utility.yul\":1848:2189   */\n      pop\n        /* \"#utility.yul\":1764:2189   */\n      swap4\n      swap3\n      pop\n      pop\n      pop\n      jump\t// out\n        /* \"#utility.yul\":2209:2549   */\n    tag_28:\n        /* \"#utility.yul\":2265:2270   */\n      0x00\n        /* \"#utility.yul\":2314:2317   */\n      dup3\n        /* \"#utility.yul\":2307:2311   */\n      0x1f\n        /* \"#utility.yul\":2299:2305   */\n      dup4\n        /* \"#utility.yul\":2295:2312   */\n      add\n        /* \"#utility.yul\":2291:2318   */\n      slt\n        /* \"#utility.yul\":2281:2403   */\n      tag_63\n      jumpi\n        /* \"#utility.yul\":2322:2401   */\n      tag_64\n      tag_19\n      jump\t// in\n    tag_64:\n        /* \"#utility.yul\":2281:2403   */\n    tag_63:\n        /* \"#utility.yul\":2439:2445   */\n      dup2\n        /* \"#utility.yul\":2426:2446   */\n      calldataload\n        /* \"#utility.yul\":2464:2543   */\n      tag_65\n        /* \"#utility.yul\":2539:2542   */\n      dup5\n        /* \"#utility.yul\":2531:2537   */\n      dup3\n        /* \"#utility.yul\":2524:2528   */\n      0x20\n        /* \"#utility.yul\":2516:2522   */\n      dup7\n        /* \"#utility.yul\":2512:2529   */\n      add\n        /* \"#utility.yul\":2464:2543   */\n      tag_27\n      jump\t// in\n    tag_65:\n        /* \"#utility.yul\":2455:2543   */\n      swap2\n      pop\n        /* \"#utility.yul\":2271:2549   */\n      pop\n        /* \"#utility.yul\":2209:2549   */\n      swap3\n      swap2\n      pop\n      pop\n      jump\t// out\n        /* \"#utility.yul\":2555:3064   */\n    tag_6:\n        /* \"#utility.yul\":2624:2630   */\n      0x00\n        /* \"#utility.yul\":2673:2675   */\n      0x20\n        /* \"#utility.yul\":2661:2670   */\n      dup3\n        /* \"#utility.yul\":2652:2659   */\n      dup5\n        /* \"#utility.yul\":2648:2671   */\n      sub\n        /* \"#utility.yul\":2644:2676   */\n      slt\n        /* \"#utility.yul\":2641:2760   */\n      iszero\n      tag_67\n      jumpi\n        /* \"#utility.yul\":2679:2758   */\n      tag_68\n      tag_17\n      jump\t// in\n    tag_68:\n        /* \"#utility.yul\":2641:2760   */\n    tag_67:\n        /* \"#utility.yul\":2827:2828   */\n      0x00\n        /* \"#utility.yul\":2816:2825   */\n      dup3\n        /* \"#utility.yul\":2812:2829   */\n      add\n        /* \"#utility.yul\":2799:2830   */\n      calldataload\n        /* \"#utility.yul\":2857:2875   */\n      0xffffffffffffffff\n        /* \"#utility.yul\":2849:2855   */\n      dup2\n        /* \"#utility.yul\":2846:2876   */\n      gt\n        /* \"#utility.yul\":2843:2960   */\n      iszero\n      tag_69\n      jumpi\n        /* \"#utility.yul\":2879:2958   */\n      tag_70\n      tag_18\n      jump\t// in\n    tag_70:\n        /* \"#utility.yul\":2843:2960   */\n    tag_69:\n        /* \"#utility.yul\":2984:3047   */\n      tag_71\n        /* \"#utility.yul\":3039:3046   */\n      dup5\n        /* \"#utility.yul\":3030:3036   */\n      dup3\n        /* \"#utility.yul\":3019:3028   */\n      dup6\n        /* \"#utility.yul\":3015:3037   */\n      add\n        /* \"#utility.yul\":2984:3047   */\n      tag_28\n      jump\t// in\n    tag_71:\n        /* \"#utility.yul\":2974:3047   */\n      swap2\n      pop\n        /* \"#utility.yul\":2770:3057   */\n      pop\n        /* \"#utility.yul\":2555:3064   */\n      swap3\n      swap2\n      pop\n      pop\n      jump\t// out\n        /* \"#utility.yul\":3070:3196   */\n    tag_29:\n        /* \"#utility.yul\":3107:3114   */\n      0x00\n        /* \"#utility.yul\":3147:3189   */\n      0xffffffffffffffffffffffffffffffffffffffff\n        /* \"#utility.yul\":3140:3145   */\n      dup3\n        /* \"#utility.yul\":3136:3190   */\n      and\n        /* \"#utility.yul\":3125:3190   */\n      swap1\n      pop\n        /* \"#utility.yul\":3070:3196   */\n      swap2\n      swap1\n      pop\n      jump\t// out\n        /* \"#utility.yul\":3202:3298   */\n    tag_30:\n        /* \"#utility.yul\":3239:3246   */\n      0x00\n        /* \"#utility.yul\":3268:3292   */\n      tag_74\n        /* \"#utility.yul\":3286:3291   */\n      dup3\n        /* \"#utility.yul\":3268:3292   */\n      tag_29\n      jump\t// in\n    tag_74:\n        /* \"#utility.yul\":3257:3292   */\n      swap1\n      pop\n        /* \"#utility.yul\":3202:3298   */\n      swap2\n      swap1\n      pop\n      jump\t// out\n        /* \"#utility.yul\":3304:3422   */\n    tag_31:\n        /* \"#utility.yul\":3391:3415   */\n      tag_76\n        /* \"#utility.yul\":3409:3414   */\n      dup2\n        /* \"#utility.yul\":3391:3415   */\n      tag_30\n      jump\t// in\n    tag_76:\n        /* \"#utility.yul\":3386:3389   */\n      dup3\n        /* \"#utility.yul\":3379:3416   */\n      mstore\n        /* \"#utility.yul\":3304:3422   */\n      pop\n      pop\n      jump\t// out\n        /* \"#utility.yul\":3428:3650   */\n    tag_9:\n        /* \"#utility.yul\":3521:3525   */\n      0x00\n        /* \"#utility.yul\":3559:3561   */\n      0x20\n        /* \"#utility.yul\":3548:3557   */\n      dup3\n        /* \"#utility.yul\":3544:3562   */\n      add\n        /* \"#utility.yul\":3536:3562   */\n      swap1\n      pop\n        /* \"#utility.yul\":3572:3643   */\n      tag_78\n        /* \"#utility.yul\":3640:3641   */\n      0x00\n        /* \"#utility.yul\":3629:3638   */\n      dup4\n        /* \"#utility.yul\":3625:3642   */\n      add\n        /* \"#utility.yul\":3616:3622   */\n      dup5\n        /* \"#utility.yul\":3572:3643   */\n      tag_31\n      jump\t// in\n    tag_78:\n        /* \"#utility.yul\":3428:3650   */\n      swap3\n      swap2\n      pop\n      pop\n      jump\t// out\n        /* \"#utility.yul\":3656:3755   */\n    tag_32:\n        /* \"#utility.yul\":3708:3714   */\n      0x00\n        /* \"#utility.yul\":3742:3747   */\n      dup2\n        /* \"#utility.yul\":3736:3748   */\n      mload\n        /* \"#utility.yul\":3726:3748   */\n      swap1\n      pop\n        /* \"#utility.yul\":3656:3755   */\n      swap2\n      swap1\n      pop\n      jump\t// out\n        /* \"#utility.yul\":3761:3930   */\n    tag_33:\n        /* \"#utility.yul\":3845:3856   */\n      0x00\n        /* \"#utility.yul\":3879:3885   */\n      dup3\n        /* \"#utility.yul\":3874:3877   */\n      dup3\n        /* \"#utility.yul\":3867:3886   */\n      mstore\n        /* \"#utility.yul\":3919:3923   */\n      0x20\n        /* \"#utility.yul\":3914:3917   */\n      dup3\n        /* \"#utility.yul\":3910:3924   */\n      add\n        /* \"#utility.yul\":3895:3924   */\n      swap1\n      pop\n        /* \"#utility.yul\":3761:3930   */\n      swap3\n      swap2\n      pop\n      pop\n      jump\t// out\n        /* \"#utility.yul\":3936:4075   */\n    tag_34:\n        /* \"#utility.yul\":4025:4031   */\n      dup3\n        /* \"#utility.yul\":4020:4023   */\n      dup2\n        /* \"#utility.yul\":4015:4018   */\n      dup4\n        /* \"#utility.yul\":4009:4032   */\n      mcopy\n        /* \"#utility.yul\":4066:4067   */\n      0x00\n        /* \"#utility.yul\":4057:4063   */\n      dup4\n        /* \"#utility.yul\":4052:4055   */\n      dup4\n        /* \"#utility.yul\":4048:4064   */\n      add\n        /* \"#utility.yul\":4041:4068   */\n      mstore\n        /* \"#utility.yul\":3936:4075   */\n      pop\n      pop\n      pop\n      jump\t// out\n        /* \"#utility.yul\":4081:4458   */\n    tag_35:\n        /* \"#utility.yul\":4169:4172   */\n      0x00\n        /* \"#utility.yul\":4197:4236   */\n      tag_83\n        /* \"#utility.yul\":4230:4235   */\n      dup3\n        /* \"#utility.yul\":4197:4236   */\n      tag_32\n      jump\t// in\n    tag_83:\n        /* \"#utility.yul\":4252:4323   */\n      tag_84\n        /* \"#utility.yul\":4316:4322   */\n      dup2\n        /* \"#utility.yul\":4311:4314   */\n      dup6\n        /* \"#utility.yul\":4252:4323   */\n      tag_33\n      jump\t// in\n    tag_84:\n        /* \"#utility.yul\":4245:4323   */\n      swap4\n      pop\n        /* \"#utility.yul\":4332:4397   */\n      tag_85\n        /* \"#utility.yul\":4390:4396   */\n      dup2\n        /* \"#utility.yul\":4385:4388   */\n      dup6\n        /* \"#utility.yul\":4378:4382   */\n      0x20\n        /* \"#utility.yul\":4371:4376   */\n      dup7\n        /* \"#utility.yul\":4367:4383   */\n      add\n        /* \"#utility.yul\":4332:4397   */\n      tag_34\n      jump\t// in\n    tag_85:\n        /* \"#utility.yul\":4422:4451   */\n      tag_86\n        /* \"#utility.yul\":4444:4450   */\n      dup2\n        /* \"#utility.yul\":4422:4451   */\n      tag_21\n      jump\t// in\n    tag_86:\n        /* \"#utility.yul\":4417:4420   */\n      dup5\n        /* \"#utility.yul\":4413:4452   */\n      add\n        /* \"#utility.yul\":4406:4452   */\n      swap2\n      pop\n        /* \"#utility.yul\":4173:4458   */\n      pop\n        /* \"#utility.yul\":4081:4458   */\n      swap3\n      swap2\n      pop\n      pop\n      jump\t// out\n        /* \"#utility.yul\":4464:4777   */\n    tag_14:\n        /* \"#utility.yul\":4577:4581   */\n      0x00\n        /* \"#utility.yul\":4615:4617   */\n      0x20\n        /* \"#utility.yul\":4604:4613   */\n      dup3\n        /* \"#utility.yul\":4600:4618   */\n      add\n        /* \"#utility.yul\":4592:4618   */\n      swap1\n      pop\n        /* \"#utility.yul\":4664:4673   */\n      dup2\n        /* \"#utility.yul\":4658:4662   */\n      dup2\n        /* \"#utility.yul\":4654:4674   */\n      sub\n        /* \"#utility.yul\":4650:4651   */\n      0x00\n        /* \"#utility.yul\":4639:4648   */\n      dup4\n        /* \"#utility.yul\":4635:4652   */\n      add\n        /* \"#utility.yul\":4628:4675   */\n      mstore\n        /* \"#utility.yul\":4692:4770   */\n      tag_88\n        /* \"#utility.yul\":4765:4769   */\n      dup2\n        /* \"#utility.yul\":4756:4762   */\n      dup5\n        /* \"#utility.yul\":4692:4770   */\n      tag_35\n      jump\t// in\n    tag_88:\n        /* \"#utility.yul\":4684:4770   */\n      swap1\n      pop\n        /* \"#utility.yul\":4464:4777   */\n      swap3\n      swap2\n      pop\n      pop\n      jump\t// out\n    stop\n\n    sub_0: assembly {\n            /* \"contracts/new.sol\":55:296  contract Complimenter{... */\n          mstore(0x40, 0x80)\n            /* \"contracts/new.sol\":99:158  constructor(string memory _name){... */\n          callvalue\n          dup1\n          iszero\n          tag_1\n          jumpi\n          0x00\n          dup1\n          revert\n        tag_1:\n          pop\n          mload(0x40)\n          sub(codesize, bytecodeSize)\n          dup1\n          bytecodeSize\n          dup4\n          codecopy\n          dup2\n          dup2\n          add\n          0x40\n          mstore\n          dup2\n          add\n          swap1\n          tag_2\n          swap2\n          swap1\n          tag_3\n          jump\t// in\n        tag_2:\n            /* \"contracts/new.sol\":146:151  _name */\n          dup1\n            /* \"contracts/new.sol\":141:145  name */\n          0x00\n            /* \"contracts/new.sol\":141:151  name=_name */\n          swap1\n          dup2\n          tag_6\n          swap2\n          swap1\n          tag_7\n          jump\t// in\n        tag_6:\n          pop\n            /* \"contracts/new.sol\":99:158  constructor(string memory _name){... */\n          pop\n            /* \"contracts/new.sol\":55:296  contract Complimenter{... */\n          jump(tag_8)\n            /* \"#utility.yul\":7:82   */\n        tag_9:\n            /* \"#utility.yul\":40:46   */\n          0x00\n            /* \"#utility.yul\":73:75   */\n          0x40\n            /* \"#utility.yul\":67:76   */\n          mload\n            /* \"#utility.yul\":57:76   */\n          swap1\n          pop\n            /* \"#utility.yul\":7:82   */\n          swap1\n          jump\t// out\n            /* \"#utility.yul\":88:205   */\n        tag_10:\n            /* \"#utility.yul\":197:198   */\n          0x00\n            /* \"#utility.yul\":194:195   */\n          dup1\n            /* \"#utility.yul\":187:199   */\n          revert\n            /* \"#utility.yul\":211:328   */\n        tag_11:\n            /* \"#utility.yul\":320:321   */\n          0x00\n            /* \"#utility.yul\":317:318   */\n          dup1\n            /* \"#utility.yul\":310:322   */\n          revert\n            /* \"#utility.yul\":334:451   */\n        tag_12:\n            /* \"#utility.yul\":443:444   */\n          0x00\n            /* \"#utility.yul\":440:441   */\n          dup1\n            /* \"#utility.yul\":433:445   */\n          revert\n            /* \"#utility.yul\":457:574   */\n        tag_13:\n            /* \"#utility.yul\":566:567   */\n          0x00\n            /* \"#utility.yul\":563:564   */\n          dup1\n            /* \"#utility.yul\":556:568   */\n          revert\n            /* \"#utility.yul\":580:682   */\n        tag_14:\n            /* \"#utility.yul\":621:627   */\n          0x00\n            /* \"#utility.yul\":672:674   */\n          0x1f\n            /* \"#utility.yul\":668:675   */\n          not\n            /* \"#utility.yul\":663:665   */\n          0x1f\n            /* \"#utility.yul\":656:661   */\n          dup4\n            /* \"#utility.yul\":652:666   */\n          add\n            /* \"#utility.yul\":648:676   */\n          and\n            /* \"#utility.yul\":638:676   */\n          swap1\n          pop\n            /* \"#utility.yul\":580:682   */\n          swap2\n          swap1\n          pop\n          jump\t// out\n            /* \"#utility.yul\":688:868   */\n        tag_15:\n            /* \"#utility.yul\":736:813   */\n          0x4e487b7100000000000000000000000000000000000000000000000000000000\n            /* \"#utility.yul\":733:734   */\n          0x00\n            /* \"#utility.yul\":726:814   */\n          mstore\n            /* \"#utility.yul\":833:837   */\n          0x41\n            /* \"#utility.yul\":830:831   */\n          0x04\n            /* \"#utility.yul\":823:838   */\n          mstore\n            /* \"#utility.yul\":857:861   */\n          0x24\n            /* \"#utility.yul\":854:855   */\n          0x00\n            /* \"#utility.yul\":847:862   */\n          revert\n            /* \"#utility.yul\":874:1155   */\n        tag_16:\n            /* \"#utility.yul\":957:984   */\n          tag_50\n            /* \"#utility.yul\":979:983   */\n          dup3\n            /* \"#utility.yul\":957:984   */\n          tag_14\n          jump\t// in\n        tag_50:\n            /* \"#utility.yul\":949:955   */\n          dup2\n            /* \"#utility.yul\":945:985   */\n          add\n            /* \"#utility.yul\":1087:1093   */\n          dup2\n            /* \"#utility.yul\":1075:1085   */\n          dup2\n            /* \"#utility.yul\":1072:1094   */\n          lt\n            /* \"#utility.yul\":1051:1069   */\n          0xffffffffffffffff\n            /* \"#utility.yul\":1039:1049   */\n          dup3\n            /* \"#utility.yul\":1036:1070   */\n          gt\n            /* \"#utility.yul\":1033:1095   */\n          or\n            /* \"#utility.yul\":1030:1118   */\n          iszero\n          tag_51\n          jumpi\n            /* \"#utility.yul\":1098:1116   */\n          tag_52\n          tag_15\n          jump\t// in\n        tag_52:\n            /* \"#utility.yul\":1030:1118   */\n        tag_51:\n            /* \"#utility.yul\":1138:1148   */\n          dup1\n            /* \"#utility.yul\":1134:1136   */\n          0x40\n            /* \"#utility.yul\":1127:1149   */\n          mstore\n            /* \"#utility.yul\":917:1155   */\n          pop\n            /* \"#utility.yul\":874:1155   */\n          pop\n          pop\n          jump\t// out\n            /* \"#utility.yul\":1161:1290   */\n        tag_17:\n            /* \"#utility.yul\":1195:1201   */\n          0x00\n            /* \"#utility.yul\":1222:1242   */\n          tag_54\n          tag_9\n          jump\t// in\n        tag_54:\n            /* \"#utility.yul\":1212:1242   */\n          swap1\n          pop\n            /* \"#utility.yul\":1251:1284   */\n          tag_55\n            /* \"#utility.yul\":1279:1283   */\n          dup3\n            /* \"#utility.yul\":1271:1277   */\n          dup3\n            /* \"#utility.yul\":1251:1284   */\n          tag_16\n          jump\t// in\n        tag_55:\n            /* \"#utility.yul\":1161:1290   */\n          swap2\n          swap1\n          pop\n          jump\t// out\n            /* \"#utility.yul\":1296:1604   */\n        tag_18:\n            /* \"#utility.yul\":1358:1362   */\n          0x00\n            /* \"#utility.yul\":1448:1466   */\n          0xffffffffffffffff\n            /* \"#utility.yul\":1440:1446   */\n          dup3\n            /* \"#utility.yul\":1437:1467   */\n          gt\n            /* \"#utility.yul\":1434:1490   */\n          iszero\n          tag_57\n          jumpi\n            /* \"#utility.yul\":1470:1488   */\n          tag_58\n          tag_15\n          jump\t// in\n        tag_58:\n            /* \"#utility.yul\":1434:1490   */\n        tag_57:\n            /* \"#utility.yul\":1508:1537   */\n          tag_59\n            /* \"#utility.yul\":1530:1536   */\n          dup3\n            /* \"#utility.yul\":1508:1537   */\n          tag_14\n          jump\t// in\n        tag_59:\n            /* \"#utility.yul\":1500:1537   */\n          swap1\n          pop\n            /* \"#utility.yul\":1592:1596   */\n          0x20\n            /* \"#utility.yul\":1586:1590   */\n          dup2\n            /* \"#utility.yul\":1582:1597   */\n          add\n            /* \"#utility.yul\":1574:1597   */\n          swap1\n          pop\n            /* \"#utility.yul\":1296:1604   */\n          swap2\n          swap1\n          pop\n          jump\t// out\n            /* \"#utility.yul\":1610:1749   */\n        tag_19:\n            /* \"#utility.yul\":1699:1705   */\n          dup3\n            /* \"#utility.yul\":1694:1697   */\n          dup2\n            /* \"#utility.yul\":1689:1692   */\n          dup4\n            /* \"#utility.yul\":1683:1706   */\n          mcopy\n            /* \"#utility.yul\":1740:1741   */\n          0x00\n            /* \"#utility.yul\":1731:1737   */\n          dup4\n            /* \"#utility.yul\":1726:1729   */\n          dup4\n            /* \"#utility.yul\":1722:1738   */\n          add\n            /* \"#utility.yul\":1715:1742   */\n          mstore\n            /* \"#utility.yul\":1610:1749   */\n          pop\n          pop\n          pop\n          jump\t// out\n            /* \"#utility.yul\":1755:2189   */\n        tag_20:\n            /* \"#utility.yul\":1844:1849   */\n          0x00\n            /* \"#utility.yul\":1869:1935   */\n          tag_62\n            /* \"#utility.yul\":1885:1934   */\n          tag_63\n            /* \"#utility.yul\":1927:1933   */\n          dup5\n            /* \"#utility.yul\":1885:1934   */\n          tag_18\n          jump\t// in\n        tag_63:\n            /* \"#utility.yul\":1869:1935   */\n          tag_17\n          jump\t// in\n        tag_62:\n            /* \"#utility.yul\":1860:1935   */\n          swap1\n          pop\n            /* \"#utility.yul\":1958:1964   */\n          dup3\n            /* \"#utility.yul\":1951:1956   */\n          dup2\n            /* \"#utility.yul\":1944:1965   */\n          mstore\n            /* \"#utility.yul\":1996:2000   */\n          0x20\n            /* \"#utility.yul\":1989:1994   */\n          dup2\n            /* \"#utility.yul\":1985:2001   */\n          add\n            /* \"#utility.yul\":2034:2037   */\n          dup5\n            /* \"#utility.yul\":2025:2031   */\n          dup5\n            /* \"#utility.yul\":2020:2023   */\n          dup5\n            /* \"#utility.yul\":2016:2032   */\n          add\n            /* \"#utility.yul\":2013:2038   */\n          gt\n            /* \"#utility.yul\":2010:2122   */\n          iszero\n          tag_64\n          jumpi\n            /* \"#utility.yul\":2041:2120   */\n          tag_65\n          tag_13\n          jump\t// in\n        tag_65:\n            /* \"#utility.yul\":2010:2122   */\n        tag_64:\n            /* \"#utility.yul\":2131:2183   */\n          tag_66\n            /* \"#utility.yul\":2176:2182   */\n          dup5\n            /* \"#utility.yul\":2171:2174   */\n          dup3\n            /* \"#utility.yul\":2166:2169   */\n          dup6\n            /* \"#utility.yul\":2131:2183   */\n          tag_19\n          jump\t// in\n        tag_66:\n            /* \"#utility.yul\":1850:2189   */\n          pop\n            /* \"#utility.yul\":1755:2189   */\n          swap4\n          swap3\n          pop\n          pop\n          pop\n          jump\t// out\n            /* \"#utility.yul\":2209:2564   */\n        tag_21:\n            /* \"#utility.yul\":2276:2281   */\n          0x00\n            /* \"#utility.yul\":2325:2328   */\n          dup3\n            /* \"#utility.yul\":2318:2322   */\n          0x1f\n            /* \"#utility.yul\":2310:2316   */\n          dup4\n            /* \"#utility.yul\":2306:2323   */\n          add\n            /* \"#utility.yul\":2302:2329   */\n          slt\n            /* \"#utility.yul\":2292:2414   */\n          tag_68\n          jumpi\n            /* \"#utility.yul\":2333:2412   */\n          tag_69\n          tag_12\n          jump\t// in\n        tag_69:\n            /* \"#utility.yul\":2292:2414   */\n        tag_68:\n            /* \"#utility.yul\":2443:2449   */\n          dup2\n            /* \"#utility.yul\":2437:2450   */\n          mload\n            /* \"#utility.yul\":2468:2558   */\n          tag_70\n            /* \"#utility.yul\":2554:2557   */\n          dup5\n            /* \"#utility.yul\":2546:2552   */\n          dup3\n            /* \"#utility.yul\":2539:2543   */\n          0x20\n            /* \"#utility.yul\":2531:2537   */\n          dup7\n            /* \"#utility.yul\":2527:2544   */\n          add\n            /* \"#utility.yul\":2468:2558   */\n          tag_20\n          jump\t// in\n        tag_70:\n            /* \"#utility.yul\":2459:2558   */\n          swap2\n          pop\n            /* \"#utility.yul\":2282:2564   */\n          pop\n            /* \"#utility.yul\":2209:2564   */\n          swap3\n          swap2\n          pop\n          pop\n          jump\t// out\n            /* \"#utility.yul\":2570:3094   */\n        tag_3:\n            /* \"#utility.yul\":2650:2656   */\n          0x00\n            /* \"#utility.yul\":2699:2701   */\n          0x20\n            /* \"#utility.yul\":2687:2696   */\n          dup3\n            /* \"#utility.yul\":2678:2685   */\n          dup5\n            /* \"#utility.yul\":2674:2697   */\n          sub\n            /* \"#utility.yul\":2670:2702   */\n          slt\n            /* \"#utility.yul\":2667:2786   */\n          iszero\n          tag_72\n          jumpi\n            /* \"#utility.yul\":2705:2784   */\n          tag_73\n          tag_10\n          jump\t// in\n        tag_73:\n            /* \"#utility.yul\":2667:2786   */\n        tag_72:\n            /* \"#utility.yul\":2846:2847   */\n          0x00\n            /* \"#utility.yul\":2835:2844   */\n          dup3\n            /* \"#utility.yul\":2831:2848   */\n          add\n            /* \"#utility.yul\":2825:2849   */\n          mload\n            /* \"#utility.yul\":2876:2894   */\n          0xffffffffffffffff\n            /* \"#utility.yul\":2868:2874   */\n          dup2\n            /* \"#utility.yul\":2865:2895   */\n          gt\n            /* \"#utility.yul\":2862:2979   */\n          iszero\n          tag_74\n          jumpi\n            /* \"#utility.yul\":2898:2977   */\n          tag_75\n          tag_11\n          jump\t// in\n        tag_75:\n            /* \"#utility.yul\":2862:2979   */\n        tag_74:\n            /* \"#utility.yul\":3003:3077   */\n          tag_76\n            /* \"#utility.yul\":3069:3076   */\n          dup5\n            /* \"#utility.yul\":3060:3066   */\n          dup3\n            /* \"#utility.yul\":3049:3058   */\n          dup6\n            /* \"#utility.yul\":3045:3067   */\n          add\n            /* \"#utility.yul\":3003:3077   */\n          tag_21\n          jump\t// in\n        tag_76:\n            /* \"#utility.yul\":2993:3077   */\n          swap2\n          pop\n            /* \"#utility.yul\":2796:3087   */\n          pop\n            /* \"#utility.yul\":2570:3094   */\n          swap3\n          swap2\n          pop\n          pop\n          jump\t// out\n            /* \"#utility.yul\":3100:3199   */\n        tag_22:\n            /* \"#utility.yul\":3152:3158   */\n          0x00\n            /* \"#utility.yul\":3186:3191   */\n          dup2\n            /* \"#utility.yul\":3180:3192   */\n          mload\n            /* \"#utility.yul\":3170:3192   */\n          swap1\n          pop\n            /* \"#utility.yul\":3100:3199   */\n          swap2\n          swap1\n          pop\n          jump\t// out\n            /* \"#utility.yul\":3205:3385   */\n        tag_23:\n            /* \"#utility.yul\":3253:3330   */\n          0x4e487b7100000000000000000000000000000000000000000000000000000000\n            /* \"#utility.yul\":3250:3251   */\n          0x00\n            /* \"#utility.yul\":3243:3331   */\n          mstore\n            /* \"#utility.yul\":3350:3354   */\n          0x22\n            /* \"#utility.yul\":3347:3348   */\n          0x04\n            /* \"#utility.yul\":3340:3355   */\n          mstore\n            /* \"#utility.yul\":3374:3378   */\n          0x24\n            /* \"#utility.yul\":3371:3372   */\n          0x00\n            /* \"#utility.yul\":3364:3379   */\n          revert\n            /* \"#utility.yul\":3391:3711   */\n        tag_24:\n            /* \"#utility.yul\":3435:3441   */\n          0x00\n            /* \"#utility.yul\":3472:3473   */\n          0x02\n            /* \"#utility.yul\":3466:3470   */\n          dup3\n            /* \"#utility.yul\":3462:3474   */\n          div\n            /* \"#utility.yul\":3452:3474   */\n          swap1\n          pop\n            /* \"#utility.yul\":3519:3520   */\n          0x01\n            /* \"#utility.yul\":3513:3517   */\n          dup3\n            /* \"#utility.yul\":3509:3521   */\n          and\n            /* \"#utility.yul\":3540:3558   */\n          dup1\n            /* \"#utility.yul\":3530:3611   */\n          tag_80\n          jumpi\n            /* \"#utility.yul\":3596:3600   */\n          0x7f\n            /* \"#utility.yul\":3588:3594   */\n          dup3\n            /* \"#utility.yul\":3584:3601   */\n          and\n            /* \"#utility.yul\":3574:3601   */\n          swap2\n          pop\n            /* \"#utility.yul\":3530:3611   */\n        tag_80:\n            /* \"#utility.yul\":3658:3660   */\n          0x20\n            /* \"#utility.yul\":3650:3656   */\n          dup3\n            /* \"#utility.yul\":3647:3661   */\n          lt\n            /* \"#utility.yul\":3627:3645   */\n          dup2\n            /* \"#utility.yul\":3624:3662   */\n          sub\n            /* \"#utility.yul\":3621:3705   */\n          tag_81\n          jumpi\n            /* \"#utility.yul\":3677:3695   */\n          tag_82\n          tag_23\n          jump\t// in\n        tag_82:\n            /* \"#utility.yul\":3621:3705   */\n        tag_81:\n            /* \"#utility.yul\":3442:3711   */\n          pop\n            /* \"#utility.yul\":3391:3711   */\n          swap2\n          swap1\n          pop\n          jump\t// out\n            /* \"#utility.yul\":3717:3858   */\n        tag_25:\n            /* \"#utility.yul\":3766:3770   */\n          0x00\n            /* \"#utility.yul\":3789:3792   */\n          dup2\n            /* \"#utility.yul\":3781:3792   */\n          swap1\n          pop\n            /* \"#utility.yul\":3812:3815   */\n          dup2\n            /* \"#utility.yul\":3809:3810   */\n          0x00\n            /* \"#utility.yul\":3802:3816   */\n          mstore\n            /* \"#utility.yul\":3846:3850   */\n          0x20\n            /* \"#utility.yul\":3843:3844   */\n          0x00\n            /* \"#utility.yul\":3833:3851   */\n          keccak256\n            /* \"#utility.yul\":3825:3851   */\n          swap1\n          pop\n            /* \"#utility.yul\":3717:3858   */\n          swap2\n          swap1\n          pop\n          jump\t// out\n            /* \"#utility.yul\":3864:3957   */\n        tag_26:\n            /* \"#utility.yul\":3901:3907   */\n          0x00\n            /* \"#utility.yul\":3948:3950   */\n          0x20\n            /* \"#utility.yul\":3943:3945   */\n          0x1f\n            /* \"#utility.yul\":3936:3941   */\n          dup4\n            /* \"#utility.yul\":3932:3946   */\n          add\n            /* \"#utility.yul\":3928:3951   */\n          div\n            /* \"#utility.yul\":3918:3951   */\n          swap1\n          pop\n            /* \"#utility.yul\":3864:3957   */\n          swap2\n          swap1\n          pop\n          jump\t// out\n            /* \"#utility.yul\":3963:4070   */\n        tag_27:\n            /* \"#utility.yul\":4007:4015   */\n          0x00\n            /* \"#utility.yul\":4057:4062   */\n          dup3\n            /* \"#utility.yul\":4051:4055   */\n          dup3\n            /* \"#utility.yul\":4047:4063   */\n          shl\n            /* \"#utility.yul\":4026:4063   */\n          swap1\n          pop\n            /* \"#utility.yul\":3963:4070   */\n          swap3\n          swap2\n          pop\n          pop\n          jump\t// out\n            /* \"#utility.yul\":4076:4469   */\n        tag_28:\n            /* \"#utility.yul\":4145:4151   */\n          0x00\n            /* \"#utility.yul\":4195:4196   */\n          0x08\n            /* \"#utility.yul\":4183:4193   */\n          dup4\n            /* \"#utility.yul\":4179:4197   */\n          mul\n            /* \"#utility.yul\":4218:4315   */\n          tag_87\n            /* \"#utility.yul\":4248:4314   */\n          0xffffffffffffffffffffffffffffffffffffffffffffffffffffffffffffffff\n            /* \"#utility.yul\":4237:4246   */\n          dup3\n            /* \"#utility.yul\":4218:4315   */\n          tag_27\n          jump\t// in\n        tag_87:\n            /* \"#utility.yul\":4336:4375   */\n          tag_88\n            /* \"#utility.yul\":4366:4374   */\n          dup7\n            /* \"#utility.yul\":4355:4364   */\n          dup4\n            /* \"#utility.yul\":4336:4375   */\n          tag_27\n          jump\t// in\n        tag_88:\n            /* \"#utility.yul\":4324:4375   */\n          swap6\n          pop\n            /* \"#utility.yul\":4408:4412   */\n          dup1\n            /* \"#utility.yul\":4404:4413   */\n          not\n            /* \"#utility.yul\":4397:4402   */\n          dup5\n            /* \"#utility.yul\":4393:4414   */\n          and\n            /* \"#utility.yul\":4384:4414   */\n          swap4\n          pop\n            /* \"#utility.yul\":4457:4461   */\n          dup1\n            /* \"#utility.yul\":4447:4455   */\n          dup7\n            /* \"#utility.yul\":4443:4462   */\n          and\n            /* \"#utility.yul\":4436:4441   */\n          dup5\n            /* \"#utility.yul\":4433:4463   */\n          or\n            /* \"#utility.yul\":4423:4463   */\n          swap3\n          pop\n            /* \"#utility.yul\":4152:4469   */\n          pop\n          pop\n            /* \"#utility.yul\":4076:4469   */\n          swap4\n          swap3\n          pop\n          pop\n          pop\n          jump\t// out\n            /* \"#utility.yul\":4475:4552   */\n        tag_29:\n            /* \"#utility.yul\":4512:4519   */\n          0x00\n            /* \"#utility.yul\":4541:4546   */\n          dup2\n            /* \"#utility.yul\":4530:4546   */\n          swap1\n          pop\n            /* \"#utility.yul\":4475:4552   */\n          swap2\n          swap1\n          pop\n          jump\t// out\n            /* \"#utility.yul\":4558:4618   */\n        tag_30:\n            /* \"#utility.yul\":4586:4589   */\n          0x00\n            /* \"#utility.yul\":4607:4612   */\n          dup2\n            /* \"#utility.yul\":4600:4612   */\n          swap1\n          pop\n            /* \"#utility.yul\":4558:4618   */\n          swap2\n          swap1\n          pop\n          jump\t// out\n            /* \"#utility.yul\":4624:4766   */\n        tag_31:\n            /* \"#utility.yul\":4674:4683   */\n          0x00\n            /* \"#utility.yul\":4707:4760   */\n          tag_92\n            /* \"#utility.yul\":4725:4759   */\n          tag_93\n            /* \"#utility.yul\":4734:4758   */\n          tag_94\n            /* \"#utility.yul\":4752:4757   */\n          dup5\n            /* \"#utility.yul\":4734:4758   */\n          tag_29\n          jump\t// in\n        tag_94:\n            /* \"#utility.yul\":4725:4759   */\n          tag_30\n          jump\t// in\n        tag_93:\n            /* \"#utility.yul\":4707:4760   */\n          tag_29\n          jump\t// in\n        tag_92:\n            /* \"#utility.yul\":4694:4760   */\n          swap1\n          pop\n            /* \"#utility.yul\":4624:4766   */\n          swap2\n          swap1\n          pop\n          jump\t// out\n            /* \"#utility.yul\":4772:4847   */\n        tag_32:\n            /* \"#utility.yul\":4815:4818   */\n          0x00\n            /* \"#utility.yul\":4836:4841   */\n          dup2\n            /* \"#utility.yul\":4829:4841   */\n          swap1\n          pop\n            /* \"#utility.yul\":4772:4847   */\n          swap2\n          swap1\n          pop\n          jump\t// out\n            /* \"#utility.yul\":4853:5122   */\n        tag_33:\n            /* \"#utility.yul\":4963:5002   */\n          tag_97\n            /* \"#utility.yul\":4994:5001   */\n          dup4\n            /* \"#utility.yul\":4963:5002   */\n          tag_31\n          jump\t// in\n        tag_97:\n            /* \"#utility.yul\":5024:5115   */\n          tag_98\n            /* \"#utility.yul\":5073:5114   */\n          tag_99\n            /* \"#utility.yul\":5097:5113   */\n          dup3\n            /* \"#utility.yul\":5073:5114   */\n          tag_32\n          jump\t// in\n        tag_99:\n            /* \"#utility.yul\":5065:5071   */\n          dup5\n            /* \"#utility.yul\":5058:5062   */\n          dup5\n            /* \"#utility.yul\":5052:5063   */\n          sload\n            /* \"#utility.yul\":5024:5115   */\n          tag_28\n          jump\t// in\n        tag_98:\n            /* \"#utility.yul\":5018:5022   */\n          dup3\n            /* \"#utility.yul\":5011:5116   */\n          sstore\n            /* \"#utility.yul\":4929:5122   */\n          pop\n            /* \"#utility.yul\":4853:5122   */\n          pop\n          pop\n          pop\n          jump\t// out\n            /* \"#utility.yul\":5128:5201   */\n        tag_34:\n            /* \"#utility.yul\":5173:5176   */\n          0x00\n            /* \"#utility.yul\":5128:5201   */\n          swap1\n          jump\t// out\n            /* \"#utility.yul\":5207:5396   */\n        tag_35:\n            /* \"#utility.yul\":5284:5316   */\n          tag_102\n          tag_34\n          jump\t// in\n        tag_102:\n            /* \"#utility.yul\":5325:5390   */\n          tag_103\n            /* \"#utility.yul\":5383:5389   */\n          dup2\n            /* \"#utility.yul\":5375:5381   */\n          dup5\n            /* \"#utility.yul\":5369:5373   */\n          dup5\n            /* \"#utility.yul\":5325:5390   */\n          tag_33\n          jump\t// in\n        tag_103:\n            /* \"#utility.yul\":5260:5396   */\n          pop\n            /* \"#utility.yul\":5207:5396   */\n          pop\n          pop\n          jump\t// out\n            /* \"#utility.yul\":5402:5588   */\n        tag_36:\n            /* \"#utility.yul\":5462:5582   */\n        tag_105:\n            /* \"#utility.yul\":5479:5482   */\n          dup2\n            /* \"#utility.yul\":5472:5477   */\n          dup2\n            /* \"#utility.yul\":5469:5483   */\n          lt\n            /* \"#utility.yul\":5462:5582   */\n          iszero\n          tag_107\n          jumpi\n            /* \"#utility.yul\":5533:5572   */\n          tag_108\n            /* \"#utility.yul\":5570:5571   */\n          0x00\n            /* \"#utility.yul\":5563:5568   */\n          dup3\n            /* \"#utility.yul\":5533:5572   */\n          tag_35\n          jump\t// in\n        tag_108:\n            /* \"#utility.yul\":5506:5507   */\n          0x01\n            /* \"#utility.yul\":5499:5504   */\n          dup2\n            /* \"#utility.yul\":5495:5508   */\n          add\n            /* \"#utility.yul\":5486:5508   */\n          swap1\n          pop\n            /* \"#utility.yul\":5462:5582   */\n          jump(tag_105)\n        tag_107:\n            /* \"#utility.yul\":5402:5588   */\n          pop\n          pop\n          jump\t// out\n            /* \"#utility.yul\":5594:6137   */\n        tag_37:\n            /* \"#utility.yul\":5695:5697   */\n          0x1f\n            /* \"#utility.yul\":5690:5693   */\n          dup3\n            /* \"#utility.yul\":5687:5698   */\n          gt\n            /* \"#utility.yul\":5684:6130   */\n          iszero\n          tag_110\n          jumpi\n            /* \"#utility.yul\":5729:5767   */\n          tag_111\n            /* \"#utility.yul\":5761:5766   */\n          dup2\n            /* \"#utility.yul\":5729:5767   */\n          tag_25\n          jump\t// in\n        tag_111:\n            /* \"#utility.yul\":5813:5842   */\n          tag_112\n            /* \"#utility.yul\":5831:5841   */\n          dup5\n            /* \"#utility.yul\":5813:5842   */\n          tag_26\n          jump\t// in\n        tag_112:\n            /* \"#utility.yul\":5803:5811   */\n          dup2\n            /* \"#utility.yul\":5799:5843   */\n          add\n            /* \"#utility.yul\":5996:5998   */\n          0x20\n            /* \"#utility.yul\":5984:5994   */\n          dup6\n            /* \"#utility.yul\":5981:5999   */\n          lt\n            /* \"#utility.yul\":5978:6027   */\n          iszero\n          tag_113\n          jumpi\n            /* \"#utility.yul\":6017:6025   */\n          dup2\n            /* \"#utility.yul\":6002:6025   */\n          swap1\n          pop\n            /* \"#utility.yul\":5978:6027   */\n        tag_113:\n            /* \"#utility.yul\":6040:6120   */\n          tag_114\n            /* \"#utility.yul\":6096:6118   */\n          tag_115\n            /* \"#utility.yul\":6114:6117   */\n          dup6\n            /* \"#utility.yul\":6096:6118   */\n          tag_26\n          jump\t// in\n        tag_115:\n            /* \"#utility.yul\":6086:6094   */\n          dup4\n            /* \"#utility.yul\":6082:6119   */\n          add\n            /* \"#utility.yul\":6069:6080   */\n          dup3\n            /* \"#utility.yul\":6040:6120   */\n          tag_36\n          jump\t// in\n        tag_114:\n            /* \"#utility.yul\":5699:6130   */\n          pop\n          pop\n            /* \"#utility.yul\":5684:6130   */\n        tag_110:\n            /* \"#utility.yul\":5594:6137   */\n          pop\n          pop\n          pop\n          jump\t// out\n            /* \"#utility.yul\":6143:6260   */\n        tag_38:\n            /* \"#utility.yul\":6197:6205   */\n          0x00\n            /* \"#utility.yul\":6247:6252   */\n          dup3\n            /* \"#utility.yul\":6241:6245   */\n          dup3\n            /* \"#utility.yul\":6237:6253   */\n          shr\n            /* \"#utility.yul\":6216:6253   */\n          swap1\n          pop\n            /* \"#utility.yul\":6143:6260   */\n          swap3\n          swap2\n          pop\n          pop\n          jump\t// out\n            /* \"#utility.yul\":6266:6435   */\n        tag_39:\n            /* \"#utility.yul\":6310:6316   */\n          0x00\n            /* \"#utility.yul\":6343:6394   */\n          tag_118\n            /* \"#utility.yul\":6391:6392   */\n          0x00\n            /* \"#utility.yul\":6387:6393   */\n          not\n            /* \"#utility.yul\":6379:6384   */\n          dup5\n            /* \"#utility.yul\":6376:6377   */\n          0x08\n            /* \"#utility.yul\":6372:6385   */\n          mul\n            /* \"#utility.yul\":6343:6394   */\n          tag_38\n          jump\t// in\n        tag_118:\n            /* \"#utility.yul\":6339:6395   */\n          not\n            /* \"#utility.yul\":6424:6428   */\n          dup1\n            /* \"#utility.yul\":6418:6422   */\n          dup4\n            /* \"#utility.yul\":6414:6429   */\n          and\n            /* \"#utility.yul\":6404:6429   */\n          swap2\n          pop\n            /* \"#utility.yul\":6317:6435   */\n          pop\n            /* \"#utility.yul\":6266:6435   */\n          swap3\n          swap2\n          pop\n          pop\n          jump\t// out\n            /* \"#utility.yul\":6440:6735   */\n        tag_40:\n            /* \"#utility.yul\":6516:6520   */\n          0x00\n            /* \"#utility.yul\":6662:6691   */\n          tag_120\n            /* \"#utility.yul\":6687:6690   */\n          dup4\n            /* \"#utility.yul\":6681:6685   */\n          dup4\n            /* \"#utility.yul\":6662:6691   */\n          tag_39\n          jump\t// in\n        tag_120:\n            /* \"#utility.yul\":6654:6691   */\n          swap2\n          pop\n            /* \"#utility.yul\":6724:6727   */\n          dup3\n            /* \"#utility.yul\":6721:6722   */\n          0x02\n            /* \"#utility.yul\":6717:6728   */\n          mul\n            /* \"#utility.yul\":6711:6715   */\n          dup3\n            /* \"#utility.yul\":6708:6729   */\n          or\n            /* \"#utility.yul\":6700:6729   */\n          swap1\n          pop\n            /* \"#utility.yul\":6440:6735   */\n          swap3\n          swap2\n          pop\n          pop\n          jump\t// out\n            /* \"#utility.yul\":6740:8135   */\n        tag_7:\n            /* \"#utility.yul\":6857:6894   */\n          tag_122\n            /* \"#utility.yul\":6890:6893   */\n          dup3\n            /* \"#utility.yul\":6857:6894   */\n          tag_22\n          jump\t// in\n        tag_122:\n            /* \"#utility.yul\":6959:6977   */\n          0xffffffffffffffff\n            /* \"#utility.yul\":6951:6957   */\n          dup2\n            /* \"#utility.yul\":6948:6978   */\n          gt\n            /* \"#utility.yul\":6945:7001   */\n          iszero\n          tag_123\n          jumpi\n            /* \"#utility.yul\":6981:6999   */\n          tag_124\n          tag_15\n          jump\t// in\n        tag_124:\n            /* \"#utility.yul\":6945:7001   */\n        tag_123:\n            /* \"#utility.yul\":7025:7063   */\n          tag_125\n            /* \"#utility.yul\":7057:7061   */\n          dup3\n            /* \"#utility.yul\":7051:7062   */\n          sload\n            /* \"#utility.yul\":7025:7063   */\n          tag_24\n          jump\t// in\n        tag_125:\n            /* \"#utility.yul\":7110:7177   */\n          tag_126\n            /* \"#utility.yul\":7170:7176   */\n          dup3\n            /* \"#utility.yul\":7162:7168   */\n          dup3\n            /* \"#utility.yul\":7156:7160   */\n          dup6\n            /* \"#utility.yul\":7110:7177   */\n          tag_37\n          jump\t// in\n        tag_126:\n            /* \"#utility.yul\":7204:7205   */\n          0x00\n            /* \"#utility.yul\":7228:7232   */\n          0x20\n            /* \"#utility.yul\":7215:7232   */\n          swap1\n          pop\n            /* \"#utility.yul\":7260:7262   */\n          0x1f\n            /* \"#utility.yul\":7252:7258   */\n          dup4\n            /* \"#utility.yul\":7249:7263   */\n          gt\n            /* \"#utility.yul\":7277:7278   */\n          0x01\n            /* \"#utility.yul\":7272:7890   */\n          dup2\n          eq\n          tag_128\n          jumpi\n            /* \"#utility.yul\":7934:7935   */\n          0x00\n            /* \"#utility.yul\":7951:7957   */\n          dup5\n            /* \"#utility.yul\":7948:8025   */\n          iszero\n          tag_129\n          jumpi\n            /* \"#utility.yul\":8000:8009   */\n          dup3\n            /* \"#utility.yul\":7995:7998   */\n          dup8\n            /* \"#utility.yul\":7991:8010   */\n          add\n            /* \"#utility.yul\":7985:8011   */\n          mload\n            /* \"#utility.yul\":7976:8011   */\n          swap1\n          pop\n            /* \"#utility.yul\":7948:8025   */\n        tag_129:\n            /* \"#utility.yul\":8051:8118   */\n          tag_130\n            /* \"#utility.yul\":8111:8117   */\n          dup6\n            /* \"#utility.yul\":8104:8109   */\n          dup3\n            /* \"#utility.yul\":8051:8118   */\n          tag_40\n          jump\t// in\n        tag_130:\n            /* \"#utility.yul\":8045:8049   */\n          dup7\n            /* \"#utility.yul\":8038:8119   */\n          sstore\n            /* \"#utility.yul\":7907:8129   */\n          pop\n            /* \"#utility.yul\":7242:8129   */\n          jump(tag_127)\n            /* \"#utility.yul\":7272:7890   */\n        tag_128:\n            /* \"#utility.yul\":7324:7328   */\n          0x1f\n            /* \"#utility.yul\":7320:7329   */\n          not\n            /* \"#utility.yul\":7312:7318   */\n          dup5\n            /* \"#utility.yul\":7308:7330   */\n          and\n            /* \"#utility.yul\":7358:7395   */\n          tag_131\n            /* \"#utility.yul\":7390:7394   */\n          dup7\n            /* \"#utility.yul\":7358:7395   */\n          tag_25\n          jump\t// in\n        tag_131:\n            /* \"#utility.yul\":7417:7418   */\n          0x00\n            /* \"#utility.yul\":7431:7639   */\n        tag_132:\n            /* \"#utility.yul\":7445:7452   */\n          dup3\n            /* \"#utility.yul\":7442:7443   */\n          dup2\n            /* \"#utility.yul\":7439:7453   */\n          lt\n            /* \"#utility.yul\":7431:7639   */\n          iszero\n          tag_134\n          jumpi\n            /* \"#utility.yul\":7524:7533   */\n          dup5\n            /* \"#utility.yul\":7519:7522   */\n          dup10\n            /* \"#utility.yul\":7515:7534   */\n          add\n            /* \"#utility.yul\":7509:7535   */\n          mload\n            /* \"#utility.yul\":7501:7507   */\n          dup3\n            /* \"#utility.yul\":7494:7536   */\n          sstore\n            /* \"#utility.yul\":7575:7576   */\n          0x01\n            /* \"#utility.yul\":7567:7573   */\n          dup3\n            /* \"#utility.yul\":7563:7577   */\n          add\n            /* \"#utility.yul\":7553:7577   */\n          swap2\n          pop\n            /* \"#utility.yul\":7622:7624   */\n          0x20\n            /* \"#utility.yul\":7611:7620   */\n          dup6\n            /* \"#utility.yul\":7607:7625   */\n          add\n            /* \"#utility.yul\":7594:7625   */\n          swap5\n          pop\n            /* \"#utility.yul\":7468:7472   */\n          0x20\n            /* \"#utility.yul\":7465:7466   */\n          dup2\n            /* \"#utility.yul\":7461:7473   */\n          add\n            /* \"#utility.yul\":7456:7473   */\n          swap1\n          pop\n            /* \"#utility.yul\":7431:7639   */\n          jump(tag_132)\n        tag_134:\n            /* \"#utility.yul\":7667:7673   */\n          dup7\n            /* \"#utility.yul\":7658:7665   */\n          dup4\n            /* \"#utility.yul\":7655:7674   */\n          lt\n            /* \"#utility.yul\":7652:7831   */\n          iszero\n          tag_135\n          jumpi\n            /* \"#utility.yul\":7725:7734   */\n          dup5\n            /* \"#utility.yul\":7720:7723   */\n          dup10\n            /* \"#utility.yul\":7716:7735   */\n          add\n            /* \"#utility.yul\":7710:7736   */\n          mload\n            /* \"#utility.yul\":7768:7816   */\n          tag_136\n            /* \"#utility.yul\":7810:7814   */\n          0x1f\n            /* \"#utility.yul\":7802:7808   */\n          dup10\n            /* \"#utility.yul\":7798:7815   */\n          and\n            /* \"#utility.yul\":7787:7796   */\n          dup3\n            /* \"#utility.yul\":7768:7816   */\n          tag_39\n          jump\t// in\n        tag_136:\n            /* \"#utility.yul\":7760:7766   */\n          dup4\n            /* \"#utility.yul\":7753:7817   */\n          sstore\n            /* \"#utility.yul\":7675:7831   */\n          pop\n            /* \"#utility.yul\":7652:7831   */\n        tag_135:\n            /* \"#utility.yul\":7877:7878   */\n          0x01\n            /* \"#utility.yul\":7873:7874   */\n          0x02\n            /* \"#utility.yul\":7865:7871   */\n          dup9\n            /* \"#utility.yul\":7861:7875   */\n          mul\n            /* \"#utility.yul\":7857:7879   */\n          add\n            /* \"#utility.yul\":7851:7855   */\n          dup9\n            /* \"#utility.yul\":7844:7880   */\n          sstore\n            /* \"#utility.yul\":7279:7890   */\n          pop\n          pop\n          pop\n            /* \"#utility.yul\":7242:8129   */\n        tag_127:\n          pop\n            /* \"#utility.yul\":6832:8135   */\n          pop\n          pop\n          pop\n            /* \"#utility.yul\":6740:8135   */\n          pop\n          pop\n          jump\t// out\n            /* \"contracts/new.sol\":55:296  contract Complimenter{... */\n        tag_8:\n          dataSize(sub_0)\n          dup1\n          dataOffset(sub_0)\n          0x00\n          codecopy\n          0x00\n          return\n        stop\n\n        sub_0: assembly {\n                /* \"contracts/new.sol\":55:296  contract Complimenter{... */\n              mstore(0x40, 0x80)\n              callvalue\n              dup1\n              iszero\n              tag_1\n              jumpi\n              0x00\n              dup1\n              revert\n            tag_1:\n              pop\n              jumpi(tag_2, lt(calldatasize, 0x04))\n              shr(0xe0, calldataload(0x00))\n              dup1\n              0x444186cc\n              eq\n              tag_3\n              jumpi\n            tag_2:\n              0x00\n              dup1\n              revert\n                /* \"contracts/new.sol\":163:286  function complimnt() external view returns (string memory){... */\n            tag_3:\n              tag_4\n              tag_5\n              jump\t// in\n            tag_4:\n              mload(0x40)\n              tag_6\n              swap2\n              swap1\n              tag_7\n              jump\t// in\n            tag_6:\n              mload(0x40)\n              dup1\n              swap2\n              sub\n              swap1\n              return\n            tag_5:\n                /* \"contracts/new.sol\":207:220  string memory */\n              0x60\n                /* \"contracts/new.sol\":274:278  name */\n              0x00\n                /* \"contracts/new.sol\":238:279  string.concat(\"how are you doing \", name) */\n              add(0x20, mload(0x40))\n              tag_9\n              swap2\n              swap1\n              tag_10\n              jump\t// in\n            tag_9:\n              mload(0x40)\n              0x20\n              dup2\n              dup4\n              sub\n              sub\n              dup2\n              mstore\n              swap1\n              0x40\n              mstore\n                /* \"contracts/new.sol\":231:279  return string.concat(\"how are you doing \", name) */\n              swap1\n              pop\n                /* \"contracts/new.sol\":163:286  function complimnt() external view returns (string memory){... */\n              swap1\n              jump\t// out\n                /* \"#utility.yul\":7:106   */\n            tag_11:\n                /* \"#utility.yul\":59:65   */\n              0x00\n                /* \"#utility.yul\":93:98   */\n              dup2\n                /* \"#utility.yul\":87:99   */\n              mload\n                /* \"#utility.yul\":77:99   */\n              swap1\n              pop\n                /* \"#utility.yul\":7:106   */\n              swap2\n              swap1\n              pop\n              jump\t// out\n                /* \"#utility.yul\":112:281   */\n            tag_12:\n                /* \"#utility.yul\":196:207   */\n              0x00\n                /* \"#utility.yul\":230:236   */\n              dup3\n                /* \"#utility.yul\":225:228   */\n              dup3\n                /* \"#utility.yul\":218:237   */\n              mstore\n                /* \"#utility.yul\":270:274   */\n              0x20\n                /* \"#utility.yul\":265:268   */\n              dup3\n                /* \"#utility.yul\":261:275   */\n              add\n                /* \"#utility.yul\":246:275   */\n              swap1\n              pop\n                /* \"#utility.yul\":112:281   */\n              swap3\n              swap2\n              pop\n              pop\n              jump\t// out\n                /* \"#utility.yul\":287:426   */\n            tag_13:\n                /* \"#utility.yul\":376:382   */\n              dup3\n                /* \"#utility.yul\":371:374   */\n              dup2\n                /* \"#utility.yul\":366:369   */\n              dup4\n                /* \"#utility.yul\":360:383   */\n              mcopy\n                /* \"#utility.yul\":417:418   */\n              0x00\n                /* \"#utility.yul\":408:414   */\n              dup4\n                /* \"#utility.yul\":403:406   */\n              dup4\n                /* \"#utility.yul\":399:415   */\n              add\n                /* \"#utility.yul\":392:419   */\n              mstore\n                /* \"#utility.yul\":287:426   */\n              pop\n              pop\n              pop\n              jump\t// out\n                /* \"#utility.yul\":432:534   */\n            tag_14:\n                /* \"#utility.yul\":473:479   */\n              0x00\n                /* \"#utility.yul\":524:526   */\n              0x1f\n                /* \"#utility.yul\":520:527   */\n              not\n                /* \"#utility.yul\":515:517   */\n              0x1f\n                /* \"#utility.yul\":508:513   */\n              dup4\n                /* \"#utility.yul\":504:518   */\n              add\n                /* \"#utility.yul\":500:528   */\n              and\n                /* \"#utility.yul\":490:528   */\n              swap1\n              pop\n                /* \"#utility.yul\":432:534   */\n              swap2\n              swap1\n              pop\n              jump\t// out\n                /* \"#utility.yul\":540:917   */\n            tag_15:\n                /* \"#utility.yul\":628:631   */\n              0x00\n                /* \"#utility.yul\":656:695   */\n              tag_28\n                /* \"#utility.yul\":689:694   */\n              dup3\n                /* \"#utility.yul\":656:695   */\n              tag_11\n              jump\t// in\n            tag_28:\n                /* \"#utility.yul\":711:782   */\n              tag_29\n                /* \"#utility.yul\":775:781   */\n              dup2\n                /* \"#utility.yul\":770:773   */\n              dup6\n                /* \"#utility.yul\":711:782   */\n              tag_12\n              jump\t// in\n            tag_29:\n                /* \"#utility.yul\":704:782   */\n              swap4\n              pop\n                /* \"#utility.yul\":791:856   */\n              tag_30\n                /* \"#utility.yul\":849:855   */\n              dup2\n                /* \"#utility.yul\":844:847   */\n              dup6\n                /* \"#utility.yul\":837:841   */\n              0x20\n                /* \"#utility.yul\":830:835   */\n              dup7\n                /* \"#utility.yul\":826:842   */\n              add\n                /* \"#utility.yul\":791:856   */\n              tag_13\n              jump\t// in\n            tag_30:\n                /* \"#utility.yul\":881:910   */\n              tag_31\n                /* \"#utility.yul\":903:909   */\n              dup2\n                /* \"#utility.yul\":881:910   */\n              tag_14\n              jump\t// in\n            tag_31:\n                /* \"#utility.yul\":876:879   */\n              dup5\n                /* \"#utility.yul\":872:911   */\n              add\n                /* \"#utility.yul\":865:911   */\n              swap2\n              pop\n                /* \"#utility.yul\":632:917   */\n              pop\n                /* \"#utility.yul\":540:917   */\n              swap3\n              swap2\n              pop\n              pop\n              jump\t// out\n                /* \"#utility.yul\":923:1236   */\n            tag_7:\n                /* \"#utility.yul\":1036:1040   */\n              0x00\n                /* \"#utility.yul\":1074:1076   */\n              0x20\n                /* \"#utility.yul\":1063:1072   */\n              dup3\n                /* \"#utility.yul\":1059:1077   */\n              add\n                /* \"#utility.yul\":1051:1077   */\n              swap1\n              pop\n                /* \"#utility.yul\":1123:1132   */\n              dup2\n                /* \"#utility.yul\":1117:1121   */\n              dup2\n                /* \"#utility.yul\":1113:1133   */\n              sub\n                /* \"#utility.yul\":1109:1110   */\n              0x00\n                /* \"#utility.yul\":1098:1107   */\n              dup4\n                /* \"#utility.yul\":1094:1111   */\n              add\n                /* \"#utility.yul\":1087:1134   */\n              mstore\n                /* \"#utility.yul\":1151:1229   */\n              tag_33\n                /* \"#utility.yul\":1224:1228   */\n              dup2\n                /* \"#utility.yul\":1215:1221   */\n              dup5\n                /* \"#utility.yul\":1151:1229   */\n              tag_15\n              jump\t// in\n            tag_33:\n                /* \"#utility.yul\":1143:1229   */\n              swap1\n              pop\n                /* \"#utility.yul\":923:1236   */\n              swap3\n              swap2\n              pop\n              pop\n              jump\t// out\n                /* \"#utility.yul\":1242:1438   */\n            tag_16:\n                /* \"#utility.yul\":1411:1431   */\n              0x686f772061726520796f7520646f696e67200000000000000000000000000000\n                /* \"#utility.yul\":1406:1409   */\n              dup2\n                /* \"#utility.yul\":1399:1432   */\n              mstore\n                /* \"#utility.yul\":1242:1438   */\n              pop\n              jump\t// out\n                /* \"#utility.yul\":1444:1624   */\n            tag_17:\n                /* \"#utility.yul\":1492:1569   */\n              0x4e487b7100000000000000000000000000000000000000000000000000000000\n                /* \"#utility.yul\":1489:1490   */\n              0x00\n                /* \"#utility.yul\":1482:1570   */\n              mstore\n                /* \"#utility.yul\":1589:1593   */\n              0x22\n                /* \"#utility.yul\":1586:1587   */\n              0x04\n                /* \"#utility.yul\":1579:1594   */\n              mstore\n                /* \"#utility.yul\":1613:1617   */\n              0x24\n                /* \"#utility.yul\":1610:1611   */\n              0x00\n                /* \"#utility.yul\":1603:1618   */\n              revert\n                /* \"#utility.yul\":1630:1950   */\n            tag_18:\n                /* \"#utility.yul\":1674:1680   */\n              0x00\n                /* \"#utility.yul\":1711:1712   */\n              0x02\n                /* \"#utility.yul\":1705:1709   */\n              dup3\n                /* \"#utility.yul\":1701:1713   */\n              div\n                /* \"#utility.yul\":1691:1713   */\n              swap1\n              pop\n                /* \"#utility.yul\":1758:1759   */\n              0x01\n                /* \"#utility.yul\":1752:1756   */\n              dup3\n                /* \"#utility.yul\":1748:1760   */\n              and\n                /* \"#utility.yul\":1779:1797   */\n              dup1\n                /* \"#utility.yul\":1769:1850   */\n              tag_37\n              jumpi\n                /* \"#utility.yul\":1835:1839   */\n              0x7f\n                /* \"#utility.yul\":1827:1833   */\n              dup3\n                /* \"#utility.yul\":1823:1840   */\n              and\n                /* \"#utility.yul\":1813:1840   */\n              swap2\n              pop\n                /* \"#utility.yul\":1769:1850   */\n            tag_37:\n                /* \"#utility.yul\":1897:1899   */\n              0x20\n                /* \"#utility.yul\":1889:1895   */\n              dup3\n                /* \"#utility.yul\":1886:1900   */\n              lt\n                /* \"#utility.yul\":1866:1884   */\n              dup2\n                /* \"#utility.yul\":1863:1901   */\n              sub\n                /* \"#utility.yul\":1860:1944   */\n              tag_38\n              jumpi\n                /* \"#utility.yul\":1916:1934   */\n              tag_39\n              tag_17\n              jump\t// in\n            tag_39:\n                /* \"#utility.yul\":1860:1944   */\n            tag_38:\n                /* \"#utility.yul\":1681:1950   */\n              pop\n                /* \"#utility.yul\":1630:1950   */\n              swap2\n              swap1\n              pop\n              jump\t// out\n                /* \"#utility.yul\":1956:2104   */\n            tag_19:\n                /* \"#utility.yul\":2058:2069   */\n              0x00\n                /* \"#utility.yul\":2095:2098   */\n              dup2\n                /* \"#utility.yul\":2080:2098   */\n              swap1\n              pop\n                /* \"#utility.yul\":1956:2104   */\n              swap3\n              swap2\n              pop\n              pop\n              jump\t// out\n                /* \"#utility.yul\":2110:2251   */\n            tag_20:\n                /* \"#utility.yul\":2159:2163   */\n              0x00\n                /* \"#utility.yul\":2182:2185   */\n              dup2\n                /* \"#utility.yul\":2174:2185   */\n              swap1\n              pop\n                /* \"#utility.yul\":2205:2208   */\n              dup2\n                /* \"#utility.yul\":2202:2203   */\n              0x00\n                /* \"#utility.yul\":2195:2209   */\n              mstore\n                /* \"#utility.yul\":2239:2243   */\n              0x20\n                /* \"#utility.yul\":2236:2237   */\n              0x00\n                /* \"#utility.yul\":2226:2244   */\n              keccak256\n                /* \"#utility.yul\":2218:2244   */\n              swap1\n              pop\n                /* \"#utility.yul\":2110:2251   */\n              swap2\n              swap1\n              pop\n              jump\t// out\n                /* \"#utility.yul\":2281:3155   */\n            tag_21:\n                /* \"#utility.yul\":2384:2387   */\n              0x00\n                /* \"#utility.yul\":2421:2426   */\n              dup2\n                /* \"#utility.yul\":2415:2427   */\n              sload\n                /* \"#utility.yul\":2450:2486   */\n              tag_43\n                /* \"#utility.yul\":2476:2485   */\n              dup2\n                /* \"#utility.yul\":2450:2486   */\n              tag_18\n              jump\t// in\n            tag_43:\n                /* \"#utility.yul\":2502:2591   */\n              tag_44\n                /* \"#utility.yul\":2584:2590   */\n              dup2\n                /* \"#utility.yul\":2579:2582   */\n              dup7\n                /* \"#utility.yul\":2502:2591   */\n              tag_19\n              jump\t// in\n            tag_44:\n                /* \"#utility.yul\":2495:2591   */\n              swap5\n              pop\n                /* \"#utility.yul\":2622:2623   */\n              0x01\n                /* \"#utility.yul\":2611:2620   */\n              dup3\n                /* \"#utility.yul\":2607:2624   */\n              and\n                /* \"#utility.yul\":2638:2639   */\n              0x00\n                /* \"#utility.yul\":2633:2799   */\n              dup2\n              eq\n              tag_46\n              jumpi\n                /* \"#utility.yul\":2813:2814   */\n              0x01\n                /* \"#utility.yul\":2808:3149   */\n              dup2\n              eq\n              tag_47\n              jumpi\n                /* \"#utility.yul\":2600:3149   */\n              jump(tag_45)\n                /* \"#utility.yul\":2633:2799   */\n            tag_46:\n                /* \"#utility.yul\":2717:2721   */\n              0xff\n                /* \"#utility.yul\":2713:2722   */\n              not\n                /* \"#utility.yul\":2702:2711   */\n              dup4\n                /* \"#utility.yul\":2698:2723   */\n              and\n                /* \"#utility.yul\":2693:2696   */\n              dup7\n                /* \"#utility.yul\":2686:2724   */\n              mstore\n                /* \"#utility.yul\":2779:2785   */\n              dup2\n                /* \"#utility.yul\":2772:2786   */\n              iszero\n                /* \"#utility.yul\":2765:2787   */\n              iszero\n                /* \"#utility.yul\":2757:2763   */\n              dup3\n                /* \"#utility.yul\":2753:2788   */\n              mul\n                /* \"#utility.yul\":2748:2751   */\n              dup7\n                /* \"#utility.yul\":2744:2789   */\n              add\n                /* \"#utility.yul\":2737:2789   */\n              swap4\n              pop\n                /* \"#utility.yul\":2633:2799   */\n              jump(tag_45)\n                /* \"#utility.yul\":2808:3149   */\n            tag_47:\n                /* \"#utility.yul\":2875:2913   */\n              tag_48\n                /* \"#utility.yul\":2907:2912   */\n              dup6\n                /* \"#utility.yul\":2875:2913   */\n              tag_20\n              jump\t// in\n            tag_48:\n                /* \"#utility.yul\":2935:2936   */\n              0x00\n                /* \"#utility.yul\":2949:3103   */\n            tag_49:\n                /* \"#utility.yul\":2963:2969   */\n              dup4\n                /* \"#utility.yul\":2960:2961   */\n              dup2\n                /* \"#utility.yul\":2957:2970   */\n              lt\n                /* \"#utility.yul\":2949:3103   */\n              iszero\n              tag_51\n              jumpi\n                /* \"#utility.yul\":3037:3044   */\n              dup2\n                /* \"#utility.yul\":3031:3045   */\n              sload\n                /* \"#utility.yul\":3027:3028   */\n              dup2\n                /* \"#utility.yul\":3022:3025   */\n              dup10\n                /* \"#utility.yul\":3018:3029   */\n              add\n                /* \"#utility.yul\":3011:3046   */\n              mstore\n                /* \"#utility.yul\":3087:3088   */\n              0x01\n                /* \"#utility.yul\":3078:3085   */\n              dup3\n                /* \"#utility.yul\":3074:3089   */\n              add\n                /* \"#utility.yul\":3063:3089   */\n              swap2\n              pop\n                /* \"#utility.yul\":2985:2989   */\n              0x20\n                /* \"#utility.yul\":2982:2983   */\n              dup2\n                /* \"#utility.yul\":2978:2990   */\n              add\n                /* \"#utility.yul\":2973:2990   */\n              swap1\n              pop\n                /* \"#utility.yul\":2949:3103   */\n              jump(tag_49)\n            tag_51:\n                /* \"#utility.yul\":3132:3138   */\n              dup4\n                /* \"#utility.yul\":3127:3130   */\n              dup9\n                /* \"#utility.yul\":3123:3139   */\n              add\n                /* \"#utility.yul\":3116:3139   */\n              swap6\n              pop\n                /* \"#utility.yul\":2815:3149   */\n              pop\n              pop\n                /* \"#utility.yul\":2600:3149   */\n            tag_45:\n              pop\n                /* \"#utility.yul\":2388:3155   */\n              pop\n              pop\n                /* \"#utility.yul\":2281:3155   */\n              swap3\n              swap2\n              pop\n              pop\n              jump\t// out\n                /* \"#utility.yul\":3161:3697   */\n            tag_10:\n                /* \"#utility.yul\":3381:3384   */\n              0x00\n                /* \"#utility.yul\":3396:3534   */\n              tag_53\n                /* \"#utility.yul\":3530:3533   */\n              dup3\n                /* \"#utility.yul\":3396:3534   */\n              tag_16\n              jump\t// in\n            tag_53:\n                /* \"#utility.yul\":3559:3561   */\n              0x12\n                /* \"#utility.yul\":3554:3557   */\n              dup3\n                /* \"#utility.yul\":3550:3562   */\n              add\n                /* \"#utility.yul\":3543:3562   */\n              swap2\n              pop\n                /* \"#utility.yul\":3579:3671   */\n              tag_54\n                /* \"#utility.yul\":3667:3670   */\n              dup3\n                /* \"#utility.yul\":3658:3664   */\n              dup5\n                /* \"#utility.yul\":3579:3671   */\n              tag_21\n              jump\t// in\n            tag_54:\n                /* \"#utility.yul\":3572:3671   */\n              swap2\n              pop\n                /* \"#utility.yul\":3688:3691   */\n              dup2\n                /* \"#utility.yul\":3681:3691   */\n              swap1\n              pop\n                /* \"#utility.yul\":3161:3697   */\n              swap3\n              swap2\n              pop\n              pop\n              jump\t// out\n\n            auxdata: 0xa26469706673582212200149f25fe10a987f7397f167dc3663423d9ea7e149724a897e140804a0672ac064736f6c634300081a0033\n        }\n    }\n\n    auxdata: 0xa2646970667358221220484d0cc7bce6c2315237a9aae2e7424dda00f563f9daefd96f20c512e7edd27e64736f6c634300081a0033\n}\n",
				"bytecode": {
					"linkReferences": {},
					"object": "6080604052348015600e575f80fd5b50610a898061001c5f395ff3fe608060405234801561000f575f80fd5b5060043610610029575f3560e01c806399e199661461002d575b5f80fd5b610047600480360381019061004291906101f5565b61005d565b604051610054919061027b565b60405180910390f35b5f808260405161006c9061009b565b61007691906102f4565b604051809103905ff08015801561008f573d5f803e3d5ffd5b50905080915050919050565b61073f8061031583390190565b5f604051905090565b5f80fd5b5f80fd5b5f80fd5b5f80fd5b5f601f19601f8301169050919050565b7f4e487b71000000000000000000000000000000000000000000000000000000005f52604160045260245ffd5b610107826100c1565b810181811067ffffffffffffffff82111715610126576101256100d1565b5b80604052505050565b5f6101386100a8565b905061014482826100fe565b919050565b5f67ffffffffffffffff821115610163576101626100d1565b5b61016c826100c1565b9050602081019050919050565b828183375f83830152505050565b5f61019961019484610149565b61012f565b9050828152602081018484840111156101b5576101b46100bd565b5b6101c0848285610179565b509392505050565b5f82601f8301126101dc576101db6100b9565b5b81356101ec848260208601610187565b91505092915050565b5f6020828403121561020a576102096100b1565b5b5f82013567ffffffffffffffff811115610227576102266100b5565b5b610233848285016101c8565b91505092915050565b5f73ffffffffffffffffffffffffffffffffffffffff82169050919050565b5f6102658261023c565b9050919050565b6102758161025b565b82525050565b5f60208201905061028e5f83018461026c565b92915050565b5f81519050919050565b5f82825260208201905092915050565b8281835e5f83830152505050565b5f6102c682610294565b6102d0818561029e565b93506102e08185602086016102ae565b6102e9816100c1565b840191505092915050565b5f6020820190508181035f83015261030c81846102bc565b90509291505056fe608060405234801561000f575f80fd5b5060405161073f38038061073f83398181016040528101906100319190610193565b805f908161003f91906103e7565b50506104b6565b5f604051905090565b5f80fd5b5f80fd5b5f80fd5b5f80fd5b5f601f19601f8301169050919050565b7f4e487b71000000000000000000000000000000000000000000000000000000005f52604160045260245ffd5b6100a58261005f565b810181811067ffffffffffffffff821117156100c4576100c361006f565b5b80604052505050565b5f6100d6610046565b90506100e2828261009c565b919050565b5f67ffffffffffffffff8211156101015761010061006f565b5b61010a8261005f565b9050602081019050919050565b8281835e5f83830152505050565b5f610137610132846100e7565b6100cd565b9050828152602081018484840111156101535761015261005b565b5b61015e848285610117565b509392505050565b5f82601f83011261017a57610179610057565b5b815161018a848260208601610125565b91505092915050565b5f602082840312156101a8576101a761004f565b5b5f82015167ffffffffffffffff8111156101c5576101c4610053565b5b6101d184828501610166565b91505092915050565b5f81519050919050565b7f4e487b71000000000000000000000000000000000000000000000000000000005f52602260045260245ffd5b5f600282049050600182168061022857607f821691505b60208210810361023b5761023a6101e4565b5b50919050565b5f819050815f5260205f209050919050565b5f6020601f8301049050919050565b5f82821b905092915050565b5f6008830261029d7fffffffffffffffffffffffffffffffffffffffffffffffffffffffffffffffff82610262565b6102a78683610262565b95508019841693508086168417925050509392505050565b5f819050919050565b5f819050919050565b5f6102eb6102e66102e1846102bf565b6102c8565b6102bf565b9050919050565b5f819050919050565b610304836102d1565b610318610310826102f2565b84845461026e565b825550505050565b5f90565b61032c610320565b6103378184846102fb565b505050565b5b8181101561035a5761034f5f82610324565b60018101905061033d565b5050565b601f82111561039f5761037081610241565b61037984610253565b81016020851015610388578190505b61039c61039485610253565b83018261033c565b50505b505050565b5f82821c905092915050565b5f6103bf5f19846008026103a4565b1980831691505092915050565b5f6103d783836103b0565b9150826002028217905092915050565b6103f0826101da565b67ffffffffffffffff8111156104095761040861006f565b5b6104138254610211565b61041e82828561035e565b5f60209050601f83116001811461044f575f841561043d578287015190505b61044785826103cc565b8655506104ae565b601f19841661045d86610241565b5f5b828110156104845784890151825560018201915060208501945060208101905061045f565b868310156104a1578489015161049d601f8916826103b0565b8355505b6001600288020188555050505b505050505050565b61027c806104c35f395ff3fe608060405234801561000f575f80fd5b5060043610610029575f3560e01c8063444186cc1461002d575b5f80fd5b61003561004b565b60405161004291906100e2565b60405180910390f35b60605f60405160200161005e9190610221565b604051602081830303815290604052905090565b5f81519050919050565b5f82825260208201905092915050565b8281835e5f83830152505050565b5f601f19601f8301169050919050565b5f6100b482610072565b6100be818561007c565b93506100ce81856020860161008c565b6100d78161009a565b840191505092915050565b5f6020820190508181035f8301526100fa81846100aa565b905092915050565b7f686f772061726520796f7520646f696e67200000000000000000000000000000815250565b7f4e487b71000000000000000000000000000000000000000000000000000000005f52602260045260245ffd5b5f600282049050600182168061016c57607f821691505b60208210810361017f5761017e610128565b5b50919050565b5f81905092915050565b5f819050815f5260205f209050919050565b5f81546101ad81610155565b6101b78186610185565b9450600182165f81146101d157600181146101e657610218565b60ff1983168652811515820286019350610218565b6101ef8561018f565b5f5b83811015610210578154818901526001820191506020810190506101f1565b838801955050505b50505092915050565b5f61022b82610102565b60128201915061023b82846101a1565b91508190509291505056fea26469706673582212200149f25fe10a987f7397f167dc3663423d9ea7e149724a897e140804a0672ac064736f6c634300081a0033a2646970667358221220484d0cc7bce6c2315237a9aae2e7424dda00f563f9daefd96f20c512e7edd27e64736f6c634300081a0033",
					"opcodes": "PUSH1 0x80 PUSH1 0x40 MSTORE CALLVALUE DUP1 ISZERO PUSH1 0xE JUMPI PUSH0 DUP1 REVERT JUMPDEST POP PUSH2 0xA89 DUP1 PUSH2 0x1C PUSH0 CODECOPY PUSH0 RETURN INVALID PUSH1 0x80 PUSH1 0x40 MSTORE CALLVALUE DUP1 ISZERO PUSH2 0xF JUMPI PUSH0 DUP1 REVERT JUMPDEST POP PUSH1 0x4 CALLDATASIZE LT PUSH2 0x29 JUMPI PUSH0 CALLDATALOAD PUSH1 0xE0 SHR DUP1 PUSH4 0x99E19966 EQ PUSH2 0x2D JUMPI JUMPDEST PUSH0 DUP1 REVERT JUMPDEST PUSH2 0x47 PUSH1 0x4 DUP1 CALLDATASIZE SUB DUP2 ADD SWAP1 PUSH2 0x42 SWAP2 SWAP1 PUSH2 0x1F5 JUMP JUMPDEST PUSH2 0x5D JUMP JUMPDEST PUSH1 0x40 MLOAD PUSH2 0x54 SWAP2 SWAP1 PUSH2 0x27B JUMP JUMPDEST PUSH1 0x40 MLOAD DUP1 SWAP2 SUB SWAP1 RETURN JUMPDEST PUSH0 DUP1 DUP3 PUSH1 0x40 MLOAD PUSH2 0x6C SWAP1 PUSH2 0x9B JUMP JUMPDEST PUSH2 0x76 SWAP2 SWAP1 PUSH2 0x2F4 JUMP JUMPDEST PUSH1 0x40 MLOAD DUP1 SWAP2 SUB SWAP1 PUSH0 CREATE DUP1 ISZERO DUP1 ISZERO PUSH2 0x8F JUMPI RETURNDATASIZE PUSH0 DUP1 RETURNDATACOPY RETURNDATASIZE PUSH0 REVERT JUMPDEST POP SWAP1 POP DUP1 SWAP2 POP POP SWAP2 SWAP1 POP JUMP JUMPDEST PUSH2 0x73F DUP1 PUSH2 0x315 DUP4 CODECOPY ADD SWAP1 JUMP JUMPDEST PUSH0 PUSH1 0x40 MLOAD SWAP1 POP SWAP1 JUMP JUMPDEST PUSH0 DUP1 REVERT JUMPDEST PUSH0 DUP1 REVERT JUMPDEST PUSH0 DUP1 REVERT JUMPDEST PUSH0 DUP1 REVERT JUMPDEST PUSH0 PUSH1 0x1F NOT PUSH1 0x1F DUP4 ADD AND SWAP1 POP SWAP2 SWAP1 POP JUMP JUMPDEST PUSH32 0x4E487B7100000000000000000000000000000000000000000000000000000000 PUSH0 MSTORE PUSH1 0x41 PUSH1 0x4 MSTORE PUSH1 0x24 PUSH0 REVERT JUMPDEST PUSH2 0x107 DUP3 PUSH2 0xC1 JUMP JUMPDEST DUP2 ADD DUP2 DUP2 LT PUSH8 0xFFFFFFFFFFFFFFFF DUP3 GT OR ISZERO PUSH2 0x126 JUMPI PUSH2 0x125 PUSH2 0xD1 JUMP JUMPDEST JUMPDEST DUP1 PUSH1 0x40 MSTORE POP POP POP JUMP JUMPDEST PUSH0 PUSH2 0x138 PUSH2 0xA8 JUMP JUMPDEST SWAP1 POP PUSH2 0x144 DUP3 DUP3 PUSH2 0xFE JUMP JUMPDEST SWAP2 SWAP1 POP JUMP JUMPDEST PUSH0 PUSH8 0xFFFFFFFFFFFFFFFF DUP3 GT ISZERO PUSH2 0x163 JUMPI PUSH2 0x162 PUSH2 0xD1 JUMP JUMPDEST JUMPDEST PUSH2 0x16C DUP3 PUSH2 0xC1 JUMP JUMPDEST SWAP1 POP PUSH1 0x20 DUP2 ADD SWAP1 POP SWAP2 SWAP1 POP JUMP JUMPDEST DUP3 DUP2 DUP4 CALLDATACOPY PUSH0 DUP4 DUP4 ADD MSTORE POP POP POP JUMP JUMPDEST PUSH0 PUSH2 0x199 PUSH2 0x194 DUP5 PUSH2 0x149 JUMP JUMPDEST PUSH2 0x12F JUMP JUMPDEST SWAP1 POP DUP3 DUP2 MSTORE PUSH1 0x20 DUP2 ADD DUP5 DUP5 DUP5 ADD GT ISZERO PUSH2 0x1B5 JUMPI PUSH2 0x1B4 PUSH2 0xBD JUMP JUMPDEST JUMPDEST PUSH2 0x1C0 DUP5 DUP3 DUP6 PUSH2 0x179 JUMP JUMPDEST POP SWAP4 SWAP3 POP POP POP JUMP JUMPDEST PUSH0 DUP3 PUSH1 0x1F DUP4 ADD SLT PUSH2 0x1DC JUMPI PUSH2 0x1DB PUSH2 0xB9 JUMP JUMPDEST JUMPDEST DUP2 CALLDATALOAD PUSH2 0x1EC DUP5 DUP3 PUSH1 0x20 DUP7 ADD PUSH2 0x187 JUMP JUMPDEST SWAP2 POP POP SWAP3 SWAP2 POP POP JUMP JUMPDEST PUSH0 PUSH1 0x20 DUP3 DUP5 SUB SLT ISZERO PUSH2 0x20A JUMPI PUSH2 0x209 PUSH2 0xB1 JUMP JUMPDEST JUMPDEST PUSH0 DUP3 ADD CALLDATALOAD PUSH8 0xFFFFFFFFFFFFFFFF DUP2 GT ISZERO PUSH2 0x227 JUMPI PUSH2 0x226 PUSH2 0xB5 JUMP JUMPDEST JUMPDEST PUSH2 0x233 DUP5 DUP3 DUP6 ADD PUSH2 0x1C8 JUMP JUMPDEST SWAP2 POP POP SWAP3 SWAP2 POP POP JUMP JUMPDEST PUSH0 PUSH20 0xFFFFFFFFFFFFFFFFFFFFFFFFFFFFFFFFFFFFFFFF DUP3 AND SWAP1 POP SWAP2 SWAP1 POP JUMP JUMPDEST PUSH0 PUSH2 0x265 DUP3 PUSH2 0x23C JUMP JUMPDEST SWAP1 POP SWAP2 SWAP1 POP JUMP JUMPDEST PUSH2 0x275 DUP2 PUSH2 0x25B JUMP JUMPDEST DUP3 MSTORE POP POP JUMP JUMPDEST PUSH0 PUSH1 0x20 DUP3 ADD SWAP1 POP PUSH2 0x28E PUSH0 DUP4 ADD DUP5 PUSH2 0x26C JUMP JUMPDEST SWAP3 SWAP2 POP POP JUMP JUMPDEST PUSH0 DUP2 MLOAD SWAP1 POP SWAP2 SWAP1 POP JUMP JUMPDEST PUSH0 DUP3 DUP3 MSTORE PUSH1 0x20 DUP3 ADD SWAP1 POP SWAP3 SWAP2 POP POP JUMP JUMPDEST DUP3 DUP2 DUP4 MCOPY PUSH0 DUP4 DUP4 ADD MSTORE POP POP POP JUMP JUMPDEST PUSH0 PUSH2 0x2C6 DUP3 PUSH2 0x294 JUMP JUMPDEST PUSH2 0x2D0 DUP2 DUP6 PUSH2 0x29E JUMP JUMPDEST SWAP4 POP PUSH2 0x2E0 DUP2 DUP6 PUSH1 0x20 DUP7 ADD PUSH2 0x2AE JUMP JUMPDEST PUSH2 0x2E9 DUP2 PUSH2 0xC1 JUMP JUMPDEST DUP5 ADD SWAP2 POP POP SWAP3 SWAP2 POP POP JUMP JUMPDEST PUSH0 PUSH1 0x20 DUP3 ADD SWAP1 POP DUP2 DUP2 SUB PUSH0 DUP4 ADD MSTORE PUSH2 0x30C DUP2 DUP5 PUSH2 0x2BC JUMP JUMPDEST SWAP1 POP SWAP3 SWAP2 POP POP JUMP INVALID PUSH1 0x80 PUSH1 0x40 MSTORE CALLVALUE DUP1 ISZERO PUSH2 0xF JUMPI PUSH0 DUP1 REVERT JUMPDEST POP PUSH1 0x40 MLOAD PUSH2 0x73F CODESIZE SUB DUP1 PUSH2 0x73F DUP4 CODECOPY DUP2 DUP2 ADD PUSH1 0x40 MSTORE DUP2 ADD SWAP1 PUSH2 0x31 SWAP2 SWAP1 PUSH2 0x193 JUMP JUMPDEST DUP1 PUSH0 SWAP1 DUP2 PUSH2 0x3F SWAP2 SWAP1 PUSH2 0x3E7 JUMP JUMPDEST POP POP PUSH2 0x4B6 JUMP JUMPDEST PUSH0 PUSH1 0x40 MLOAD SWAP1 POP SWAP1 JUMP JUMPDEST PUSH0 DUP1 REVERT JUMPDEST PUSH0 DUP1 REVERT JUMPDEST PUSH0 DUP1 REVERT JUMPDEST PUSH0 DUP1 REVERT JUMPDEST PUSH0 PUSH1 0x1F NOT PUSH1 0x1F DUP4 ADD AND SWAP1 POP SWAP2 SWAP1 POP JUMP JUMPDEST PUSH32 0x4E487B7100000000000000000000000000000000000000000000000000000000 PUSH0 MSTORE PUSH1 0x41 PUSH1 0x4 MSTORE PUSH1 0x24 PUSH0 REVERT JUMPDEST PUSH2 0xA5 DUP3 PUSH2 0x5F JUMP JUMPDEST DUP2 ADD DUP2 DUP2 LT PUSH8 0xFFFFFFFFFFFFFFFF DUP3 GT OR ISZERO PUSH2 0xC4 JUMPI PUSH2 0xC3 PUSH2 0x6F JUMP JUMPDEST JUMPDEST DUP1 PUSH1 0x40 MSTORE POP POP POP JUMP JUMPDEST PUSH0 PUSH2 0xD6 PUSH2 0x46 JUMP JUMPDEST SWAP1 POP PUSH2 0xE2 DUP3 DUP3 PUSH2 0x9C JUMP JUMPDEST SWAP2 SWAP1 POP JUMP JUMPDEST PUSH0 PUSH8 0xFFFFFFFFFFFFFFFF DUP3 GT ISZERO PUSH2 0x101 JUMPI PUSH2 0x100 PUSH2 0x6F JUMP JUMPDEST JUMPDEST PUSH2 0x10A DUP3 PUSH2 0x5F JUMP JUMPDEST SWAP1 POP PUSH1 0x20 DUP2 ADD SWAP1 POP SWAP2 SWAP1 POP JUMP JUMPDEST DUP3 DUP2 DUP4 MCOPY PUSH0 DUP4 DUP4 ADD MSTORE POP POP POP JUMP JUMPDEST PUSH0 PUSH2 0x137 PUSH2 0x132 DUP5 PUSH2 0xE7 JUMP JUMPDEST PUSH2 0xCD JUMP JUMPDEST SWAP1 POP DUP3 DUP2 MSTORE PUSH1 0x20 DUP2 ADD DUP5 DUP5 DUP5 ADD GT ISZERO PUSH2 0x153 JUMPI PUSH2 0x152 PUSH2 0x5B JUMP JUMPDEST JUMPDEST PUSH2 0x15E DUP5 DUP3 DUP6 PUSH2 0x117 JUMP JUMPDEST POP SWAP4 SWAP3 POP POP POP JUMP JUMPDEST PUSH0 DUP3 PUSH1 0x1F DUP4 ADD SLT PUSH2 0x17A JUMPI PUSH2 0x179 PUSH2 0x57 JUMP JUMPDEST JUMPDEST DUP2 MLOAD PUSH2 0x18A DUP5 DUP3 PUSH1 0x20 DUP7 ADD PUSH2 0x125 JUMP JUMPDEST SWAP2 POP POP SWAP3 SWAP2 POP POP JUMP JUMPDEST PUSH0 PUSH1 0x20 DUP3 DUP5 SUB SLT ISZERO PUSH2 0x1A8 JUMPI PUSH2 0x1A7 PUSH2 0x4F JUMP JUMPDEST JUMPDEST PUSH0 DUP3 ADD MLOAD PUSH8 0xFFFFFFFFFFFFFFFF DUP2 GT ISZERO PUSH2 0x1C5 JUMPI PUSH2 0x1C4 PUSH2 0x53 JUMP JUMPDEST JUMPDEST PUSH2 0x1D1 DUP5 DUP3 DUP6 ADD PUSH2 0x166 JUMP JUMPDEST SWAP2 POP POP SWAP3 SWAP2 POP POP JUMP JUMPDEST PUSH0 DUP2 MLOAD SWAP1 POP SWAP2 SWAP1 POP JUMP JUMPDEST PUSH32 0x4E487B7100000000000000000000000000000000000000000000000000000000 PUSH0 MSTORE PUSH1 0x22 PUSH1 0x4 MSTORE PUSH1 0x24 PUSH0 REVERT JUMPDEST PUSH0 PUSH1 0x2 DUP3 DIV SWAP1 POP PUSH1 0x1 DUP3 AND DUP1 PUSH2 0x228 JUMPI PUSH1 0x7F DUP3 AND SWAP2 POP JUMPDEST PUSH1 0x20 DUP3 LT DUP2 SUB PUSH2 0x23B JUMPI PUSH2 0x23A PUSH2 0x1E4 JUMP JUMPDEST JUMPDEST POP SWAP2 SWAP1 POP JUMP JUMPDEST PUSH0 DUP2 SWAP1 POP DUP2 PUSH0 MSTORE PUSH1 0x20 PUSH0 KECCAK256 SWAP1 POP SWAP2 SWAP1 POP JUMP JUMPDEST PUSH0 PUSH1 0x20 PUSH1 0x1F DUP4 ADD DIV SWAP1 POP SWAP2 SWAP1 POP JUMP JUMPDEST PUSH0 DUP3 DUP3 SHL SWAP1 POP SWAP3 SWAP2 POP POP JUMP JUMPDEST PUSH0 PUSH1 0x8 DUP4 MUL PUSH2 0x29D PUSH32 0xFFFFFFFFFFFFFFFFFFFFFFFFFFFFFFFFFFFFFFFFFFFFFFFFFFFFFFFFFFFFFFFF DUP3 PUSH2 0x262 JUMP JUMPDEST PUSH2 0x2A7 DUP7 DUP4 PUSH2 0x262 JUMP JUMPDEST SWAP6 POP DUP1 NOT DUP5 AND SWAP4 POP DUP1 DUP7 AND DUP5 OR SWAP3 POP POP POP SWAP4 SWAP3 POP POP POP JUMP JUMPDEST PUSH0 DUP2 SWAP1 POP SWAP2 SWAP1 POP JUMP JUMPDEST PUSH0 DUP2 SWAP1 POP SWAP2 SWAP1 POP JUMP JUMPDEST PUSH0 PUSH2 0x2EB PUSH2 0x2E6 PUSH2 0x2E1 DUP5 PUSH2 0x2BF JUMP JUMPDEST PUSH2 0x2C8 JUMP JUMPDEST PUSH2 0x2BF JUMP JUMPDEST SWAP1 POP SWAP2 SWAP1 POP JUMP JUMPDEST PUSH0 DUP2 SWAP1 POP SWAP2 SWAP1 POP JUMP JUMPDEST PUSH2 0x304 DUP4 PUSH2 0x2D1 JUMP JUMPDEST PUSH2 0x318 PUSH2 0x310 DUP3 PUSH2 0x2F2 JUMP JUMPDEST DUP5 DUP5 SLOAD PUSH2 0x26E JUMP JUMPDEST DUP3 SSTORE POP POP POP POP JUMP JUMPDEST PUSH0 SWAP1 JUMP JUMPDEST PUSH2 0x32C PUSH2 0x320 JUMP JUMPDEST PUSH2 0x337 DUP2 DUP5 DUP5 PUSH2 0x2FB JUMP JUMPDEST POP POP POP JUMP JUMPDEST JUMPDEST DUP2 DUP2 LT ISZERO PUSH2 0x35A JUMPI PUSH2 0x34F PUSH0 DUP3 PUSH2 0x324 JUMP JUMPDEST PUSH1 0x1 DUP2 ADD SWAP1 POP PUSH2 0x33D JUMP JUMPDEST POP POP JUMP JUMPDEST PUSH1 0x1F DUP3 GT ISZERO PUSH2 0x39F JUMPI PUSH2 0x370 DUP2 PUSH2 0x241 JUMP JUMPDEST PUSH2 0x379 DUP5 PUSH2 0x253 JUMP JUMPDEST DUP2 ADD PUSH1 0x20 DUP6 LT ISZERO PUSH2 0x388 JUMPI DUP2 SWAP1 POP JUMPDEST PUSH2 0x39C PUSH2 0x394 DUP6 PUSH2 0x253 JUMP JUMPDEST DUP4 ADD DUP3 PUSH2 0x33C JUMP JUMPDEST POP POP JUMPDEST POP POP POP JUMP JUMPDEST PUSH0 DUP3 DUP3 SHR SWAP1 POP SWAP3 SWAP2 POP POP JUMP JUMPDEST PUSH0 PUSH2 0x3BF PUSH0 NOT DUP5 PUSH1 0x8 MUL PUSH2 0x3A4 JUMP JUMPDEST NOT DUP1 DUP4 AND SWAP2 POP POP SWAP3 SWAP2 POP POP JUMP JUMPDEST PUSH0 PUSH2 0x3D7 DUP4 DUP4 PUSH2 0x3B0 JUMP JUMPDEST SWAP2 POP DUP3 PUSH1 0x2 MUL DUP3 OR SWAP1 POP SWAP3 SWAP2 POP POP JUMP JUMPDEST PUSH2 0x3F0 DUP3 PUSH2 0x1DA JUMP JUMPDEST PUSH8 0xFFFFFFFFFFFFFFFF DUP2 GT ISZERO PUSH2 0x409 JUMPI PUSH2 0x408 PUSH2 0x6F JUMP JUMPDEST JUMPDEST PUSH2 0x413 DUP3 SLOAD PUSH2 0x211 JUMP JUMPDEST PUSH2 0x41E DUP3 DUP3 DUP6 PUSH2 0x35E JUMP JUMPDEST PUSH0 PUSH1 0x20 SWAP1 POP PUSH1 0x1F DUP4 GT PUSH1 0x1 DUP2 EQ PUSH2 0x44F JUMPI PUSH0 DUP5 ISZERO PUSH2 0x43D JUMPI DUP3 DUP8 ADD MLOAD SWAP1 POP JUMPDEST PUSH2 0x447 DUP6 DUP3 PUSH2 0x3CC JUMP JUMPDEST DUP7 SSTORE POP PUSH2 0x4AE JUMP JUMPDEST PUSH1 0x1F NOT DUP5 AND PUSH2 0x45D DUP7 PUSH2 0x241 JUMP JUMPDEST PUSH0 JUMPDEST DUP3 DUP2 LT ISZERO PUSH2 0x484 JUMPI DUP5 DUP10 ADD MLOAD DUP3 SSTORE PUSH1 0x1 DUP3 ADD SWAP2 POP PUSH1 0x20 DUP6 ADD SWAP5 POP PUSH1 0x20 DUP2 ADD SWAP1 POP PUSH2 0x45F JUMP JUMPDEST DUP7 DUP4 LT ISZERO PUSH2 0x4A1 JUMPI DUP5 DUP10 ADD MLOAD PUSH2 0x49D PUSH1 0x1F DUP10 AND DUP3 PUSH2 0x3B0 JUMP JUMPDEST DUP4 SSTORE POP JUMPDEST PUSH1 0x1 PUSH1 0x2 DUP9 MUL ADD DUP9 SSTORE POP POP POP JUMPDEST POP POP POP POP POP POP JUMP JUMPDEST PUSH2 0x27C DUP1 PUSH2 0x4C3 PUSH0 CODECOPY PUSH0 RETURN INVALID PUSH1 0x80 PUSH1 0x40 MSTORE CALLVALUE DUP1 ISZERO PUSH2 0xF JUMPI PUSH0 DUP1 REVERT JUMPDEST POP PUSH1 0x4 CALLDATASIZE LT PUSH2 0x29 JUMPI PUSH0 CALLDATALOAD PUSH1 0xE0 SHR DUP1 PUSH4 0x444186CC EQ PUSH2 0x2D JUMPI JUMPDEST PUSH0 DUP1 REVERT JUMPDEST PUSH2 0x35 PUSH2 0x4B JUMP JUMPDEST PUSH1 0x40 MLOAD PUSH2 0x42 SWAP2 SWAP1 PUSH2 0xE2 JUMP JUMPDEST PUSH1 0x40 MLOAD DUP1 SWAP2 SUB SWAP1 RETURN JUMPDEST PUSH1 0x60 PUSH0 PUSH1 0x40 MLOAD PUSH1 0x20 ADD PUSH2 0x5E SWAP2 SWAP1 PUSH2 0x221 JUMP JUMPDEST PUSH1 0x40 MLOAD PUSH1 0x20 DUP2 DUP4 SUB SUB DUP2 MSTORE SWAP1 PUSH1 0x40 MSTORE SWAP1 POP SWAP1 JUMP JUMPDEST PUSH0 DUP2 MLOAD SWAP1 POP SWAP2 SWAP1 POP JUMP JUMPDEST PUSH0 DUP3 DUP3 MSTORE PUSH1 0x20 DUP3 ADD SWAP1 POP SWAP3 SWAP2 POP POP JUMP JUMPDEST DUP3 DUP2 DUP4 MCOPY PUSH0 DUP4 DUP4 ADD MSTORE POP POP POP JUMP JUMPDEST PUSH0 PUSH1 0x1F NOT PUSH1 0x1F DUP4 ADD AND SWAP1 POP SWAP2 SWAP1 POP JUMP JUMPDEST PUSH0 PUSH2 0xB4 DUP3 PUSH2 0x72 JUMP JUMPDEST PUSH2 0xBE DUP2 DUP6 PUSH2 0x7C JUMP JUMPDEST SWAP4 POP PUSH2 0xCE DUP2 DUP6 PUSH1 0x20 DUP7 ADD PUSH2 0x8C JUMP JUMPDEST PUSH2 0xD7 DUP2 PUSH2 0x9A JUMP JUMPDEST DUP5 ADD SWAP2 POP POP SWAP3 SWAP2 POP POP JUMP JUMPDEST PUSH0 PUSH1 0x20 DUP3 ADD SWAP1 POP DUP2 DUP2 SUB PUSH0 DUP4 ADD MSTORE PUSH2 0xFA DUP2 DUP5 PUSH2 0xAA JUMP JUMPDEST SWAP1 POP SWAP3 SWAP2 POP POP JUMP JUMPDEST PUSH32 0x686F772061726520796F7520646F696E67200000000000000000000000000000 DUP2 MSTORE POP JUMP JUMPDEST PUSH32 0x4E487B7100000000000000000000000000000000000000000000000000000000 PUSH0 MSTORE PUSH1 0x22 PUSH1 0x4 MSTORE PUSH1 0x24 PUSH0 REVERT JUMPDEST PUSH0 PUSH1 0x2 DUP3 DIV SWAP1 POP PUSH1 0x1 DUP3 AND DUP1 PUSH2 0x16C JUMPI PUSH1 0x7F DUP3 AND SWAP2 POP JUMPDEST PUSH1 0x20 DUP3 LT DUP2 SUB PUSH2 0x17F JUMPI PUSH2 0x17E PUSH2 0x128 JUMP JUMPDEST JUMPDEST POP SWAP2 SWAP1 POP JUMP JUMPDEST PUSH0 DUP2 SWAP1 POP SWAP3 SWAP2 POP POP JUMP JUMPDEST PUSH0 DUP2 SWAP1 POP DUP2 PUSH0 MSTORE PUSH1 0x20 PUSH0 KECCAK256 SWAP1 POP SWAP2 SWAP1 POP JUMP JUMPDEST PUSH0 DUP2 SLOAD PUSH2 0x1AD DUP2 PUSH2 0x155 JUMP JUMPDEST PUSH2 0x1B7 DUP2 DUP7 PUSH2 0x185 JUMP JUMPDEST SWAP5 POP PUSH1 0x1 DUP3 AND PUSH0 DUP2 EQ PUSH2 0x1D1 JUMPI PUSH1 0x1 DUP2 EQ PUSH2 0x1E6 JUMPI PUSH2 0x218 JUMP JUMPDEST PUSH1 0xFF NOT DUP4 AND DUP7 MSTORE DUP2 ISZERO ISZERO DUP3 MUL DUP7 ADD SWAP4 POP PUSH2 0x218 JUMP JUMPDEST PUSH2 0x1EF DUP6 PUSH2 0x18F JUMP JUMPDEST PUSH0 JUMPDEST DUP4 DUP2 LT ISZERO PUSH2 0x210 JUMPI DUP2 SLOAD DUP2 DUP10 ADD MSTORE PUSH1 0x1 DUP3 ADD SWAP2 POP PUSH1 0x20 DUP2 ADD SWAP1 POP PUSH2 0x1F1 JUMP JUMPDEST DUP4 DUP9 ADD SWAP6 POP POP POP JUMPDEST POP POP POP SWAP3 SWAP2 POP POP JUMP JUMPDEST PUSH0 PUSH2 0x22B DUP3 PUSH2 0x102 JUMP JUMPDEST PUSH1 0x12 DUP3 ADD SWAP2 POP PUSH2 0x23B DUP3 DUP5 PUSH2 0x1A1 JUMP JUMPDEST SWAP2 POP DUP2 SWAP1 POP SWAP3 SWAP2 POP POP JUMP INVALID LOG2 PUSH5 0x6970667358 0x22 SLT KECCAK256 ADD BLOBHASH CALLCODE PUSH0 0xE1 EXP SWAP9 PUSH32 0x7397F167DC3663423D9EA7E149724A897E140804A0672AC064736F6C63430008 BYTE STOP CALLER LOG2 PUSH5 0x6970667358 0x22 SLT KECCAK256 BASEFEE 0x4D 0xC 0xC7 0xBC 0xE6 0xC2 BALANCE MSTORE CALLDATACOPY 0xA9 0xAA 0xE2 0xE7 TIMESTAMP 0x4D 0xDA STOP CREATE2 PUSH4 0xF9DAEFD9 PUSH16 0x20C512E7EDD27E64736F6C634300081A STOP CALLER "
				},
				"gasEstimates": {
					"creation": {
						"codeDepositCost": "539400",
						"executionCost": "573",
						"totalCost": "539973"
					},
					"external": {
						"createComplim(string)": "infinite"
					}
				},
				"methodIdentifiers": {
					"createComplim(string)": "99e19966"
				}
			},
			"storageLayout": {
				"storage": [],
				"types": null
			},
			"userdoc": {
				"kind": "user",
				"methods": {},
				"version": 1
			}
		}
	}
}