{
	"contracts/sample.sol": {
		"FavoriteRecords": {
			"abi": [
				{
					"inputs": [],
					"stateMutability": "nonpayable",
					"type": "constructor"
				},
				{
					"inputs": [
						{
							"internalType": "string",
							"name": "recordName",
							"type": "string"
						}
					],
					"name": "NotApproved",
					"type": "error"
				},
				{
					"inputs": [
						{
							"internalType": "string",
							"name": "albumName",
							"type": "string"
						}
					],
					"name": "addRecord",
					"outputs": [],
					"stateMutability": "nonpayable",
					"type": "function"
				},
				{
					"inputs": [
						{
							"internalType": "string",
							"name": "",
							"type": "string"
						}
					],
					"name": "approvedRecords",
					"outputs": [
						{
							"internalType": "bool",
							"name": "",
							"type": "bool"
						}
					],
					"stateMutability": "view",
					"type": "function"
				},
				{
					"inputs": [],
					"name": "getApprovedRecords",
					"outputs": [
						{
							"internalType": "string[]",
							"name": "",
							"type": "string[]"
						}
					],
					"stateMutability": "view",
					"type": "function"
				},
				{
					"inputs": [
						{
							"internalType": "address",
							"name": "user",
							"type": "address"
						}
					],
					"name": "getUserFavorites",
					"outputs": [
						{
							"internalType": "string[]",
							"name": "",
							"type": "string[]"
						}
					],
					"stateMutability": "view",
					"type": "function"
				},
				{
					"inputs": [],
					"name": "resetUserFavorites",
					"outputs": [],
					"stateMutability": "nonpayable",
					"type": "function"
				},
				{
					"inputs": [
						{
							"internalType": "address",
							"name": "",
							"type": "address"
						},
						{
							"internalType": "string",
							"name": "",
							"type": "string"
						}
					],
					"name": "userFavorites",
					"outputs": [
						{
							"internalType": "bool",
							"name": "",
							"type": "bool"
						}
					],
					"stateMutability": "view",
					"type": "function"
				}
			],
			"devdoc": {
				"kind": "dev",
				"methods": {},
				"version": 1
			},
			"evm": {
				"assembly": "    /* \"contracts/sample.sol\":57:2301  contract FavoriteRecords {... */\n  mstore(0x40, 0x80)\n    /* \"contracts/sample.sol\":295:1116  constructor() {... */\n  callvalue\n  dup1\n  iszero\n  tag_1\n  jumpi\n  0x00\n  dup1\n  revert\ntag_1:\n  pop\n    /* \"contracts/sample.sol\":349:353  true */\n  0x01\n    /* \"contracts/sample.sol\":319:334  approvedRecords */\n  0x00\n    /* \"contracts/sample.sol\":319:346  approvedRecords[\"Thriller\"] */\n  mload(0x40)\n  tag_4\n  swap1\n  shl(0xc1, 0x2a343934b63632b9)\n    /* \"#utility.yul\":216:239   */\n  dup2\n  mstore\n    /* \"#utility.yul\":264:265   */\n  0x08\n    /* \"#utility.yul\":255:266   */\n  add\n  swap1\n    /* \"#utility.yul\":14:272   */\n  jump\n    /* \"contracts/sample.sol\":319:346  approvedRecords[\"Thriller\"] */\ntag_4:\n  swap1\n  dup2\n  mstore\n  mload(0x40)\n  swap1\n  dup2\n  swap1\n  sub\n  0x20\n  add\n  dup2\n  keccak256\n    /* \"contracts/sample.sol\":319:353  approvedRecords[\"Thriller\"] = true */\n  dup1\n  sload\n  swap3\n  iszero\n  iszero\n  not(0xff)\n  swap1\n  swap4\n  and\n  swap3\n  swap1\n  swap3\n  or\n  swap1\n  swap2\n  sstore\n  shl(0x98, 0x4261636b20696e20426c61636b)\n    /* \"#utility.yul\":479:507   */\n  dup2\n  mstore\n  0x01\n  swap1\n  0x00\n  swap1\n    /* \"#utility.yul\":532:534   */\n  0x0d\n    /* \"#utility.yul\":523:535   */\n  add\n    /* \"contracts/sample.sol\":363:395  approvedRecords[\"Back in Black\"] */\n  swap1\n  dup2\n  mstore\n  mload(0x40)\n  swap1\n  dup2\n  swap1\n  sub\n  0x20\n  add\n  dup2\n  keccak256\n    /* \"contracts/sample.sol\":363:402  approvedRecords[\"Back in Black\"] = true */\n  dup1\n  sload\n  swap3\n  iszero\n  iszero\n  not(0xff)\n  swap1\n  swap4\n  and\n  swap3\n  swap1\n  swap3\n  or\n  swap1\n  swap2\n  sstore\n  shl(0x9a, 0x151a1948109bd91e59dd585c99)\n    /* \"#utility.yul\":748:776   */\n  dup2\n  mstore\n  0x01\n  swap1\n  0x00\n  swap1\n    /* \"#utility.yul\":801:803   */\n  0x0d\n    /* \"#utility.yul\":792:804   */\n  add\n    /* \"contracts/sample.sol\":412:444  approvedRecords[\"The Bodyguard\"] */\n  swap1\n  dup2\n  mstore\n  mload(0x40)\n  swap1\n  dup2\n  swap1\n  sub\n  0x20\n  add\n  dup2\n  keccak256\n    /* \"contracts/sample.sol\":412:451  approvedRecords[\"The Bodyguard\"] = true */\n  dup1\n  sload\n  swap3\n  iszero\n  iszero\n  not(0xff)\n  swap1\n  swap4\n  and\n  swap3\n  swap1\n  swap3\n  or\n  swap1\n  swap2\n  sstore\n    /* \"#utility.yul\":1029:1056   */\n  0x546865204461726b2053696465206f6620746865204d6f6f6e00000000000000\n    /* \"#utility.yul\":1017:1057   */\n  dup2\n  mstore\n  0x01\n  swap1\n  0x00\n  swap1\n    /* \"#utility.yul\":1082:1084   */\n  0x19\n    /* \"#utility.yul\":1073:1085   */\n  add\n    /* \"contracts/sample.sol\":461:505  approvedRecords[\"The Dark Side of the Moon\"] */\n  swap1\n  dup2\n  mstore\n  mload(0x40)\n  swap1\n  dup2\n  swap1\n  sub\n  0x20\n  add\n  dup2\n  keccak256\n    /* \"contracts/sample.sol\":461:512  approvedRecords[\"The Dark Side of the Moon\"] = true */\n  dup1\n  sload\n  swap3\n  iszero\n  iszero\n  not(0xff)\n  swap1\n  swap4\n  and\n  swap3\n  swap1\n  swap3\n  or\n  swap1\n  swap2\n  sstore\n    /* \"#utility.yul\":1310:1343   */\n  0x546865697220477265617465737420486974732028313937312d313937352900\n    /* \"#utility.yul\":1298:1344   */\n  dup2\n  mstore\n  0x01\n  swap1\n  0x00\n  swap1\n    /* \"#utility.yul\":1369:1371   */\n  0x1f\n    /* \"#utility.yul\":1360:1372   */\n  add\n    /* \"contracts/sample.sol\":522:572  approvedRecords[\"Their Greatest Hits (1971-1975)\"] */\n  swap1\n  dup2\n  mstore\n  mload(0x40)\n  swap1\n  dup2\n  swap1\n  sub\n  0x20\n  add\n  dup2\n  keccak256\n    /* \"contracts/sample.sol\":522:579  approvedRecords[\"Their Greatest Hits (1971-1975)\"] = true */\n  dup1\n  sload\n  swap3\n  iszero\n  iszero\n  not(0xff)\n  swap1\n  swap4\n  and\n  swap3\n  swap1\n  swap3\n  or\n  swap1\n  swap2\n  sstore\n  shl(0x80, 0x486f74656c2043616c69666f726e6961)\n    /* \"#utility.yul\":1585:1616   */\n  dup2\n  mstore\n  0x01\n  swap1\n  0x00\n  swap1\n    /* \"#utility.yul\":1641:1643   */\n  0x10\n    /* \"#utility.yul\":1632:1644   */\n  add\n    /* \"contracts/sample.sol\":589:624  approvedRecords[\"Hotel California\"] */\n  swap1\n  dup2\n  mstore\n  mload(0x40)\n  swap1\n  dup2\n  swap1\n  sub\n  0x20\n  add\n  dup2\n  keccak256\n    /* \"contracts/sample.sol\":589:631  approvedRecords[\"Hotel California\"] = true */\n  dup1\n  sload\n  swap3\n  iszero\n  iszero\n  not(0xff)\n  swap1\n  swap4\n  and\n  swap3\n  swap1\n  swap3\n  or\n  swap1\n  swap2\n  sstore\n  shl(0xa1, 0x21b7b6b29027b71027bb32b9)\n    /* \"#utility.yul\":1857:1884   */\n  dup2\n  mstore\n  0x01\n  swap1\n  0x00\n  swap1\n    /* \"#utility.yul\":1909:1911   */\n  0x0c\n    /* \"#utility.yul\":1900:1912   */\n  add\n    /* \"contracts/sample.sol\":641:672  approvedRecords[\"Come On Over\"] */\n  swap1\n  dup2\n  mstore\n  mload(0x40)\n  swap1\n  dup2\n  swap1\n  sub\n  0x20\n  add\n  dup2\n  keccak256\n    /* \"contracts/sample.sol\":641:679  approvedRecords[\"Come On Over\"] = true */\n  dup1\n  sload\n  swap3\n  iszero\n  iszero\n  not(0xff)\n  swap1\n  swap4\n  and\n  swap3\n  swap1\n  swap3\n  or\n  swap1\n  swap2\n  sstore\n  shl(0xc8, 0x52756d6f757273)\n    /* \"#utility.yul\":2125:2147   */\n  dup2\n  mstore\n  0x01\n  swap1\n  0x00\n  swap1\n    /* \"#utility.yul\":2172:2173   */\n  0x07\n    /* \"#utility.yul\":2163:2174   */\n  add\n    /* \"contracts/sample.sol\":689:715  approvedRecords[\"Rumours\"] */\n  swap1\n  dup2\n  mstore\n  mload(0x40)\n  swap1\n  dup2\n  swap1\n  sub\n  0x20\n  add\n  dup2\n  keccak256\n    /* \"contracts/sample.sol\":689:722  approvedRecords[\"Rumours\"] = true */\n  dup1\n  sload\n  swap3\n  iszero\n  iszero\n  not(0xff)\n  swap1\n  swap4\n  and\n  swap3\n  swap1\n  swap3\n  or\n  swap1\n  swap2\n  sstore\n    /* \"#utility.yul\":2399:2421   */\n  0x5361747572646179204e69676874204665766572000000000000000000000000\n    /* \"#utility.yul\":2387:2422   */\n  dup2\n  mstore\n  0x01\n  swap1\n  0x00\n  swap1\n    /* \"#utility.yul\":2447:2449   */\n  0x14\n    /* \"#utility.yul\":2438:2450   */\n  add\n    /* \"contracts/sample.sol\":732:771  approvedRecords[\"Saturday Night Fever\"] */\n  swap1\n  dup2\n  mstore\n  0x40\n  dup1\n  mload\n  0x20\n  swap3\n  dup2\n  swap1\n  sub\n  dup4\n  add\n  dup2\n  keccak256\n    /* \"contracts/sample.sol\":732:778  approvedRecords[\"Saturday Night Fever\"] = true */\n  dup1\n  sload\n  not(0xff)\n  and\n  swap5\n  iszero\n  iszero\n  swap5\n  swap1\n  swap5\n  or\n  swap1\n  swap4\n  sstore\n    /* \"contracts/sample.sol\":789:1109  approvedRecordList = [... */\n  0x0160\n  dup4\n  add\n  dup2\n  mstore\n  0x08\n  0x0120\n  dup5\n  add\n  swap1\n  dup2\n  mstore\n  shl(0xc1, 0x2a343934b63632b9)\n  0x0140\n  dup6\n  add\n  mstore\n  dup4\n  mstore\n  dup1\n  mload\n  dup1\n  dup3\n  add\n  dup3\n  mstore\n  0x0d\n  dup1\n  dup3\n  mstore\n  shl(0x98, 0x4261636b20696e20426c61636b)\n  dup3\n  dup6\n  add\n  mstore\n  dup4\n  dup6\n  add\n  swap2\n  swap1\n  swap2\n  mstore\n  dup2\n  mload\n  dup1\n  dup4\n  add\n  dup4\n  mstore\n  swap1\n  dup2\n  mstore\n  shl(0x9a, 0x151a1948109bd91e59dd585c99)\n  dup2\n  dup5\n  add\n  mstore\n  dup4\n  dup3\n  add\n  mstore\n  dup1\n  mload\n  dup1\n  dup3\n  add\n  dup3\n  mstore\n  0x19\n  dup2\n  mstore\n  0x546865204461726b2053696465206f6620746865204d6f6f6e00000000000000\n  dup2\n  dup5\n  add\n  mstore\n  0x60\n  dup5\n  add\n  mstore\n  dup1\n  mload\n  dup1\n  dup3\n  add\n  dup3\n  mstore\n  0x1f\n  dup2\n  mstore\n  0x546865697220477265617465737420486974732028313937312d313937352900\n  dup2\n  dup5\n  add\n  mstore\n  0x80\n  dup5\n  add\n  mstore\n  dup1\n  mload\n  dup1\n  dup3\n  add\n  dup3\n  mstore\n  0x10\n  dup2\n  mstore\n  shl(0x80, 0x486f74656c2043616c69666f726e6961)\n  dup2\n  dup5\n  add\n  mstore\n  0xa0\n  dup5\n  add\n  mstore\n  dup1\n  mload\n  dup1\n  dup3\n  add\n  dup3\n  mstore\n  0x0c\n  dup2\n  mstore\n  shl(0xa1, 0x21b7b6b29027b71027bb32b9)\n  dup2\n  dup5\n  add\n  mstore\n  0xc0\n  dup5\n  add\n  mstore\n  dup1\n  mload\n  dup1\n  dup3\n  add\n  dup3\n  mstore\n  0x07\n  dup2\n  mstore\n  shl(0xc8, 0x52756d6f757273)\n  dup2\n  dup5\n  add\n  mstore\n  0xe0\n  dup5\n  add\n  mstore\n  dup1\n  mload\n  dup1\n  dup3\n  add\n  swap1\n  swap2\n  mstore\n  0x14\n  dup2\n  mstore\n  0x5361747572646179204e69676874204665766572000000000000000000000000\n  swap2\n  dup2\n  add\n  swap2\n  swap1\n  swap2\n  mstore\n  0x0100\n  dup3\n  add\n  mstore\n  tag_22\n  swap1\n    /* \"contracts/sample.sol\":789:807  approvedRecordList */\n  0x02\n  swap1\n    /* \"contracts/sample.sol\":789:1109  approvedRecordList = [... */\n  0x09\n  tag_23\n  jump\t// in\ntag_22:\n  pop\n    /* \"contracts/sample.sol\":57:2301  contract FavoriteRecords {... */\n  jump(tag_48)\ntag_23:\n  dup3\n  dup1\n  sload\n  dup3\n  dup3\n  sstore\n  swap1\n  0x00\n  mstore\n  keccak256(0x00, 0x20)\n  swap1\n  dup2\n  add\n  swap3\n  dup3\n  iszero\n  tag_27\n  jumpi\n  swap2\n  0x20\n  mul\n  dup3\n  add\ntag_26:\n  dup3\n  dup2\n  gt\n  iszero\n  tag_27\n  jumpi\n  dup3\n  mload\n  dup3\n  swap1\n  tag_28\n  swap1\n  dup3\n  tag_29\n  jump\t// in\ntag_28:\n  pop\n  swap2\n  0x20\n  add\n  swap2\n  swap1\n  0x01\n  add\n  swap1\n  jump(tag_26)\ntag_27:\n  pop\n  tag_30\n  swap3\n  swap2\n  pop\n  tag_31\n  jump\t// in\ntag_30:\n  pop\n  swap1\n  jump\t// out\ntag_31:\n  dup1\n  dup3\n  gt\n  iszero\n  tag_30\n  jumpi\n  0x00\n  tag_34\n  dup3\n  dup3\n  tag_35\n  jump\t// in\ntag_34:\n  pop\n  0x01\n  add\n  jump(tag_31)\ntag_35:\n  pop\n  dup1\n  sload\n  tag_36\n  swap1\n  tag_37\n  jump\t// in\ntag_36:\n  0x00\n  dup3\n  sstore\n  dup1\n  0x1f\n  lt\n  tag_39\n  jumpi\n  pop\n  pop\n  jump\t// out\ntag_39:\n  0x1f\n  add\n  0x20\n  swap1\n  div\n  swap1\n  0x00\n  mstore\n  keccak256(0x00, 0x20)\n  swap1\n  dup2\n  add\n  swap1\n  tag_40\n  swap2\n  swap1\n  tag_41\n  jump\t// in\ntag_40:\n  pop\n  jump\t// out\ntag_41:\ntag_42:\n  dup1\n  dup3\n  gt\n  iszero\n  tag_30\n  jumpi\n  0x00\n  dup2\n  sstore\n  0x01\n  add\n  jump(tag_42)\n    /* \"#utility.yul\":2461:2588   */\ntag_44:\n    /* \"#utility.yul\":2522:2532   */\n  0x4e487b71\n    /* \"#utility.yul\":2517:2520   */\n  0xe0\n    /* \"#utility.yul\":2513:2533   */\n  shl\n    /* \"#utility.yul\":2510:2511   */\n  0x00\n    /* \"#utility.yul\":2503:2534   */\n  mstore\n    /* \"#utility.yul\":2553:2557   */\n  0x41\n    /* \"#utility.yul\":2550:2551   */\n  0x04\n    /* \"#utility.yul\":2543:2558   */\n  mstore\n    /* \"#utility.yul\":2577:2581   */\n  0x24\n    /* \"#utility.yul\":2574:2575   */\n  0x00\n    /* \"#utility.yul\":2567:2582   */\n  revert\n    /* \"#utility.yul\":2593:2973   */\ntag_37:\n    /* \"#utility.yul\":2672:2673   */\n  0x01\n    /* \"#utility.yul\":2668:2680   */\n  dup2\n  dup2\n  shr\n  swap1\n    /* \"#utility.yul\":2715:2727   */\n  dup3\n  and\n  dup1\n    /* \"#utility.yul\":2736:2797   */\n  tag_60\n  jumpi\n    /* \"#utility.yul\":2790:2794   */\n  0x7f\n    /* \"#utility.yul\":2782:2788   */\n  dup3\n    /* \"#utility.yul\":2778:2795   */\n  and\n    /* \"#utility.yul\":2768:2795   */\n  swap2\n  pop\n    /* \"#utility.yul\":2736:2797   */\ntag_60:\n    /* \"#utility.yul\":2843:2845   */\n  0x20\n    /* \"#utility.yul\":2835:2841   */\n  dup3\n    /* \"#utility.yul\":2832:2846   */\n  lt\n    /* \"#utility.yul\":2812:2830   */\n  dup2\n    /* \"#utility.yul\":2809:2847   */\n  sub\n    /* \"#utility.yul\":2806:2967   */\n  tag_61\n  jumpi\n    /* \"#utility.yul\":2889:2899   */\n  0x4e487b71\n    /* \"#utility.yul\":2884:2887   */\n  0xe0\n    /* \"#utility.yul\":2880:2900   */\n  shl\n    /* \"#utility.yul\":2877:2878   */\n  0x00\n    /* \"#utility.yul\":2870:2901   */\n  mstore\n    /* \"#utility.yul\":2924:2928   */\n  0x22\n    /* \"#utility.yul\":2921:2922   */\n  0x04\n    /* \"#utility.yul\":2914:2929   */\n  mstore\n    /* \"#utility.yul\":2952:2956   */\n  0x24\n    /* \"#utility.yul\":2949:2950   */\n  0x00\n    /* \"#utility.yul\":2942:2957   */\n  revert\n    /* \"#utility.yul\":2806:2967   */\ntag_61:\n  pop\n    /* \"#utility.yul\":2593:2973   */\n  swap2\n  swap1\n  pop\n  jump\t// out\n    /* \"#utility.yul\":3104:3622   */\ntag_46:\n    /* \"#utility.yul\":3206:3208   */\n  0x1f\n    /* \"#utility.yul\":3201:3204   */\n  dup3\n    /* \"#utility.yul\":3198:3209   */\n  gt\n    /* \"#utility.yul\":3195:3616   */\n  iszero\n  tag_64\n  jumpi\n    /* \"#utility.yul\":3242:3247   */\n  dup1\n    /* \"#utility.yul\":3239:3240   */\n  0x00\n    /* \"#utility.yul\":3232:3248   */\n  mstore\n    /* \"#utility.yul\":3286:3290   */\n  0x20\n    /* \"#utility.yul\":3283:3284   */\n  0x00\n    /* \"#utility.yul\":3273:3291   */\n  keccak256\n    /* \"#utility.yul\":3356:3358   */\n  0x1f\n    /* \"#utility.yul\":3344:3354   */\n  dup5\n    /* \"#utility.yul\":3340:3359   */\n  add\n    /* \"#utility.yul\":3337:3338   */\n  0x05\n    /* \"#utility.yul\":3333:3360   */\n  shr\n    /* \"#utility.yul\":3327:3331   */\n  dup2\n    /* \"#utility.yul\":3323:3361   */\n  add\n    /* \"#utility.yul\":3392:3396   */\n  0x20\n    /* \"#utility.yul\":3380:3390   */\n  dup6\n    /* \"#utility.yul\":3377:3397   */\n  lt\n    /* \"#utility.yul\":3374:3421   */\n  iszero\n  tag_65\n  jumpi\n  pop\n    /* \"#utility.yul\":3415:3419   */\n  dup1\n    /* \"#utility.yul\":3374:3421   */\ntag_65:\n    /* \"#utility.yul\":3470:3472   */\n  0x1f\n    /* \"#utility.yul\":3465:3468   */\n  dup5\n    /* \"#utility.yul\":3461:3473   */\n  add\n    /* \"#utility.yul\":3458:3459   */\n  0x05\n    /* \"#utility.yul\":3454:3474   */\n  shr\n    /* \"#utility.yul\":3448:3452   */\n  dup3\n    /* \"#utility.yul\":3444:3475   */\n  add\n    /* \"#utility.yul\":3434:3475   */\n  swap2\n  pop\n    /* \"#utility.yul\":3525:3606   */\ntag_66:\n    /* \"#utility.yul\":3543:3545   */\n  dup2\n    /* \"#utility.yul\":3536:3541   */\n  dup2\n    /* \"#utility.yul\":3533:3546   */\n  lt\n    /* \"#utility.yul\":3525:3606   */\n  iszero\n  tag_68\n  jumpi\n    /* \"#utility.yul\":3602:3603   */\n  0x00\n    /* \"#utility.yul\":3588:3604   */\n  dup2\n  sstore\n    /* \"#utility.yul\":3569:3570   */\n  0x01\n    /* \"#utility.yul\":3558:3571   */\n  add\n    /* \"#utility.yul\":3525:3606   */\n  jump(tag_66)\ntag_68:\n    /* \"#utility.yul\":3529:3532   */\n  pop\n  pop\n    /* \"#utility.yul\":3195:3616   */\ntag_64:\n    /* \"#utility.yul\":3104:3622   */\n  pop\n  pop\n  pop\n  jump\t// out\n    /* \"#utility.yul\":3798:5097   */\ntag_29:\n    /* \"#utility.yul\":3918:3928   */\n  dup2\n  mload\n  sub(shl(0x40, 0x01), 0x01)\n    /* \"#utility.yul\":3940:3970   */\n  dup2\n  gt\n    /* \"#utility.yul\":3937:3993   */\n  iszero\n  tag_72\n  jumpi\n    /* \"#utility.yul\":3973:3991   */\n  tag_72\n  tag_44\n  jump\t// in\ntag_72:\n    /* \"#utility.yul\":4002:4099   */\n  tag_73\n    /* \"#utility.yul\":4092:4098   */\n  dup2\n    /* \"#utility.yul\":4052:4090   */\n  tag_74\n    /* \"#utility.yul\":4084:4088   */\n  dup5\n    /* \"#utility.yul\":4078:4089   */\n  sload\n    /* \"#utility.yul\":4052:4090   */\n  tag_37\n  jump\t// in\ntag_74:\n    /* \"#utility.yul\":4046:4050   */\n  dup5\n    /* \"#utility.yul\":4002:4099   */\n  tag_46\n  jump\t// in\ntag_73:\n    /* \"#utility.yul\":4148:4152   */\n  0x20\n    /* \"#utility.yul\":4179:4181   */\n  0x1f\n    /* \"#utility.yul\":4168:4182   */\n  dup3\n  gt\n    /* \"#utility.yul\":4196:4197   */\n  0x01\n    /* \"#utility.yul\":4191:4840   */\n  dup2\n  eq\n  tag_76\n  jumpi\n    /* \"#utility.yul\":4884:4885   */\n  0x00\n    /* \"#utility.yul\":4901:4907   */\n  dup4\n    /* \"#utility.yul\":4898:4987   */\n  iszero\n  tag_77\n  jumpi\n  pop\n    /* \"#utility.yul\":4953:4972   */\n  dup5\n  dup3\n  add\n    /* \"#utility.yul\":4947:4973   */\n  mload\n    /* \"#utility.yul\":4898:4987   */\ntag_77:\n  not(0x00)\n    /* \"#utility.yul\":3755:3756   */\n  0x03\n    /* \"#utility.yul\":3751:3762   */\n  dup6\n  swap1\n  shl\n    /* \"#utility.yul\":3747:3771   */\n  shr\n    /* \"#utility.yul\":3743:3772   */\n  not\n    /* \"#utility.yul\":3733:3773   */\n  and\n    /* \"#utility.yul\":3779:3780   */\n  0x01\n    /* \"#utility.yul\":3775:3786   */\n  dup5\n  swap1\n  shl\n    /* \"#utility.yul\":3730:3787   */\n  or\n    /* \"#utility.yul\":5000:5081   */\n  dup5\n  sstore\n    /* \"#utility.yul\":4161:5091   */\n  jump(tag_68)\n    /* \"#utility.yul\":4191:4840   */\ntag_76:\n    /* \"#utility.yul\":3051:3052   */\n  0x00\n    /* \"#utility.yul\":3044:3058   */\n  dup5\n  dup2\n  mstore\n    /* \"#utility.yul\":3088:3092   */\n  0x20\n    /* \"#utility.yul\":3075:3093   */\n  dup2\n  keccak256\n  not(0x1f)\n    /* \"#utility.yul\":4227:4247   */\n  dup6\n  and\n  swap2\n    /* \"#utility.yul\":4345:4567   */\ntag_80:\n    /* \"#utility.yul\":4359:4366   */\n  dup3\n    /* \"#utility.yul\":4356:4357   */\n  dup2\n    /* \"#utility.yul\":4353:4367   */\n  lt\n    /* \"#utility.yul\":4345:4567   */\n  iszero\n  tag_82\n  jumpi\n    /* \"#utility.yul\":4441:4460   */\n  dup8\n  dup6\n  add\n    /* \"#utility.yul\":4435:4461   */\n  mload\n    /* \"#utility.yul\":4420:4462   */\n  dup3\n  sstore\n    /* \"#utility.yul\":4548:4552   */\n  0x20\n    /* \"#utility.yul\":4533:4553   */\n  swap5\n  dup6\n  add\n  swap5\n    /* \"#utility.yul\":4501:4502   */\n  0x01\n    /* \"#utility.yul\":4489:4503   */\n  swap1\n  swap3\n  add\n  swap2\n    /* \"#utility.yul\":4375:4387   */\n  add\n    /* \"#utility.yul\":4345:4567   */\n  jump(tag_80)\ntag_82:\n    /* \"#utility.yul\":4349:4352   */\n  pop\n    /* \"#utility.yul\":4595:4601   */\n  dup5\n    /* \"#utility.yul\":4586:4593   */\n  dup3\n    /* \"#utility.yul\":4583:4602   */\n  lt\n    /* \"#utility.yul\":4580:4781   */\n  iszero\n  tag_83\n  jumpi\n    /* \"#utility.yul\":4656:4675   */\n  dup7\n  dup5\n  add\n    /* \"#utility.yul\":4650:4676   */\n  mload\n  not(0x00)\n    /* \"#utility.yul\":4739:4740   */\n  0x03\n    /* \"#utility.yul\":4735:4749   */\n  dup8\n  swap1\n  shl\n    /* \"#utility.yul\":4751:4754   */\n  0xf8\n    /* \"#utility.yul\":4731:4755   */\n  and\n    /* \"#utility.yul\":4727:4764   */\n  shr\n    /* \"#utility.yul\":4723:4765   */\n  not\n    /* \"#utility.yul\":4708:4766   */\n  and\n    /* \"#utility.yul\":4693:4767   */\n  dup2\n  sstore\n    /* \"#utility.yul\":4580:4781   */\ntag_83:\n  pop\n  pop\n  pop\n  pop\n    /* \"#utility.yul\":4827:4828   */\n  0x01\n    /* \"#utility.yul\":4811:4825   */\n  swap1\n  dup2\n  shl\n    /* \"#utility.yul\":4807:4829   */\n  add\n    /* \"#utility.yul\":4794:4830   */\n  swap1\n  sstore\n  pop\n    /* \"#utility.yul\":3798:5097   */\n  jump\t// out\ntag_48:\n    /* \"contracts/sample.sol\":57:2301  contract FavoriteRecords {... */\n  dataSize(sub_0)\n  dup1\n  dataOffset(sub_0)\n  0x00\n  codecopy\n  0x00\n  return\nstop\n\nsub_0: assembly {\n        /* \"contracts/sample.sol\":57:2301  contract FavoriteRecords {... */\n      mstore(0x40, 0x80)\n      callvalue\n      dup1\n      iszero\n      tag_1\n      jumpi\n      0x00\n      dup1\n      revert\n    tag_1:\n      pop\n      jumpi(tag_2, lt(calldatasize, 0x04))\n      shr(0xe0, calldataload(0x00))\n      dup1\n      0x1cf0830b\n      eq\n      tag_3\n      jumpi\n      dup1\n      0x837f8878\n      eq\n      tag_4\n      jumpi\n      dup1\n      0xb374ac59\n      eq\n      tag_5\n      jumpi\n      dup1\n      0xc75c333c\n      eq\n      tag_6\n      jumpi\n      dup1\n      0xc7853148\n      eq\n      tag_7\n      jumpi\n      dup1\n      0xd81aa8c4\n      eq\n      tag_8\n      jumpi\n    tag_2:\n      0x00\n      dup1\n      revert\n        /* \"contracts/sample.sol\":1122:1232  function getApprovedRecords() public view returns (string[] memory) {... */\n    tag_3:\n      tag_9\n      tag_10\n      jump\t// in\n    tag_9:\n      mload(0x40)\n      tag_11\n      swap2\n      swap1\n      tag_12\n      jump\t// in\n    tag_11:\n      mload(0x40)\n      dup1\n      swap2\n      sub\n      swap1\n      return\n        /* \"contracts/sample.sol\":2110:2299  function resetUserFavorites() public {... */\n    tag_4:\n      tag_13\n      tag_14\n      jump\t// in\n    tag_13:\n      stop\n        /* \"contracts/sample.sol\":88:134  mapping(string => bool) public approvedRecords */\n    tag_5:\n      tag_15\n      tag_16\n      calldatasize\n      0x04\n      tag_17\n      jump\t// in\n    tag_16:\n      dup1\n      mload\n      0x20\n      dup2\n      dup4\n      add\n      dup2\n      add\n      dup1\n      mload\n      0x00\n      dup3\n      mstore\n      swap3\n      dup3\n      add\n      swap2\n      swap1\n      swap4\n      add\n      keccak256\n      swap2\n      mstore\n      sload\n      0xff\n      and\n      dup2\n      jump\n    tag_15:\n      mload(0x40)\n        /* \"#utility.yul\":2450:2464   */\n      swap1\n      iszero\n        /* \"#utility.yul\":2443:2465   */\n      iszero\n        /* \"#utility.yul\":2425:2466   */\n      dup2\n      mstore\n        /* \"#utility.yul\":2413:2415   */\n      0x20\n        /* \"#utility.yul\":2398:2416   */\n      add\n        /* \"contracts/sample.sol\":88:134  mapping(string => bool) public approvedRecords */\n      tag_11\n        /* \"#utility.yul\":2285:2472   */\n      jump\n        /* \"contracts/sample.sol\":140:204  mapping(address => mapping(string => bool)) public userFavorites */\n    tag_6:\n      tag_15\n      tag_22\n      calldatasize\n      0x04\n      tag_23\n      jump\t// in\n    tag_22:\n      0x01\n      0x20\n      swap1\n      dup2\n      mstore\n      0x00\n      swap3\n      dup4\n      mstore\n      0x40\n      swap1\n      swap3\n      keccak256\n      dup2\n      mload\n      dup1\n      dup4\n      add\n      dup5\n      add\n      dup1\n      mload\n      swap3\n      dup2\n      mstore\n      swap1\n      dup5\n      add\n      swap3\n      swap1\n      swap4\n      add\n      swap2\n      swap1\n      swap2\n      keccak256\n      swap2\n      mstore\n      sload\n      0xff\n      and\n      dup2\n      jump\n        /* \"contracts/sample.sol\":1451:2104  function getUserFavorites(address user) public view returns (string[] memory) {... */\n    tag_7:\n      tag_9\n      tag_27\n      calldatasize\n      0x04\n      tag_28\n      jump\t// in\n    tag_27:\n      tag_29\n      jump\t// in\n        /* \"contracts/sample.sol\":1238:1445  function addRecord(string memory albumName) public {... */\n    tag_8:\n      tag_13\n      tag_32\n      calldatasize\n      0x04\n      tag_17\n      jump\t// in\n    tag_32:\n      tag_33\n      jump\t// in\n        /* \"contracts/sample.sol\":1122:1232  function getApprovedRecords() public view returns (string[] memory) {... */\n    tag_10:\n        /* \"contracts/sample.sol\":1173:1188  string[] memory */\n      0x60\n        /* \"contracts/sample.sol\":1207:1225  approvedRecordList */\n      0x02\n        /* \"contracts/sample.sol\":1200:1225  return approvedRecordList */\n      dup1\n      sload\n      dup1\n      0x20\n      mul\n      0x20\n      add\n      mload(0x40)\n      swap1\n      dup2\n      add\n      0x40\n      mstore\n      dup1\n      swap3\n      swap2\n      swap1\n      dup2\n      dup2\n      mstore\n      0x20\n      add\n      0x00\n      swap1\n    tag_35:\n      dup3\n      dup3\n      lt\n      iszero\n      tag_36\n      jumpi\n      dup4\n      dup3\n      swap1\n      0x00\n      mstore\n      keccak256(0x00, 0x20)\n      add\n      dup1\n      sload\n      tag_38\n      swap1\n      tag_39\n      jump\t// in\n    tag_38:\n      dup1\n      0x1f\n      add\n      0x20\n      dup1\n      swap2\n      div\n      mul\n      0x20\n      add\n      mload(0x40)\n      swap1\n      dup2\n      add\n      0x40\n      mstore\n      dup1\n      swap3\n      swap2\n      swap1\n      dup2\n      dup2\n      mstore\n      0x20\n      add\n      dup3\n      dup1\n      sload\n      tag_40\n      swap1\n      tag_39\n      jump\t// in\n    tag_40:\n      dup1\n      iszero\n      tag_41\n      jumpi\n      dup1\n      0x1f\n      lt\n      tag_42\n      jumpi\n      0x0100\n      dup1\n      dup4\n      sload\n      div\n      mul\n      dup4\n      mstore\n      swap2\n      0x20\n      add\n      swap2\n      jump(tag_41)\n    tag_42:\n      dup3\n      add\n      swap2\n      swap1\n      0x00\n      mstore\n      keccak256(0x00, 0x20)\n      swap1\n    tag_43:\n      dup2\n      sload\n      dup2\n      mstore\n      swap1\n      0x01\n      add\n      swap1\n      0x20\n      add\n      dup1\n      dup4\n      gt\n      tag_43\n      jumpi\n      dup3\n      swap1\n      sub\n      0x1f\n      and\n      dup3\n      add\n      swap2\n    tag_41:\n      pop\n      pop\n      pop\n      pop\n      pop\n      dup2\n      mstore\n      0x20\n      add\n      swap1\n      0x01\n      add\n      swap1\n      jump(tag_35)\n    tag_36:\n      pop\n      pop\n      pop\n      pop\n      swap1\n      pop\n        /* \"contracts/sample.sol\":1122:1232  function getApprovedRecords() public view returns (string[] memory) {... */\n      swap1\n      jump\t// out\n        /* \"contracts/sample.sol\":2110:2299  function resetUserFavorites() public {... */\n    tag_14:\n        /* \"contracts/sample.sol\":2162:2171  uint256 i */\n      0x00\n        /* \"contracts/sample.sol\":2157:2293  for (uint256 i = 0; i < approvedRecordList.length; i++) {... */\n    tag_45:\n        /* \"contracts/sample.sol\":2181:2199  approvedRecordList */\n      0x02\n        /* \"contracts/sample.sol\":2181:2206  approvedRecordList.length */\n      sload\n        /* \"contracts/sample.sol\":2177:2206  i < approvedRecordList.length */\n      dup2\n      lt\n        /* \"contracts/sample.sol\":2157:2293  for (uint256 i = 0; i < approvedRecordList.length; i++) {... */\n      iszero\n      tag_46\n      jumpi\n        /* \"contracts/sample.sol\":2248:2258  msg.sender */\n      caller\n        /* \"contracts/sample.sol\":2234:2259  userFavorites[msg.sender] */\n      0x00\n      swap1\n      dup2\n      mstore\n        /* \"contracts/sample.sol\":2234:2247  userFavorites */\n      0x01\n        /* \"contracts/sample.sol\":2234:2259  userFavorites[msg.sender] */\n      0x20\n      mstore\n      0x40\n      swap1\n      keccak256\n        /* \"contracts/sample.sol\":2260:2278  approvedRecordList */\n      0x02\n        /* \"contracts/sample.sol\":2260:2281  approvedRecordList[i] */\n      dup1\n      sload\n        /* \"contracts/sample.sol\":2279:2280  i */\n      dup4\n      swap1\n        /* \"contracts/sample.sol\":2260:2281  approvedRecordList[i] */\n      dup2\n      lt\n      tag_49\n      jumpi\n      tag_49\n      tag_50\n      jump\t// in\n    tag_49:\n      swap1\n      0x00\n      mstore\n      keccak256(0x00, 0x20)\n      add\n        /* \"contracts/sample.sol\":2234:2282  userFavorites[msg.sender][approvedRecordList[i]] */\n      mload(0x40)\n      tag_52\n      swap2\n      swap1\n      tag_53\n      jump\t// in\n    tag_52:\n      swap1\n      dup2\n      mstore\n      mload(0x40)\n      swap1\n      dup2\n      swap1\n      sub\n      0x20\n      add\n      swap1\n      keccak256\n        /* \"contracts/sample.sol\":2227:2282  delete userFavorites[msg.sender][approvedRecordList[i]] */\n      dup1\n      sload\n      not(0xff)\n      and\n      swap1\n      sstore\n      0x01\n        /* \"contracts/sample.sol\":2208:2211  i++ */\n      add\n        /* \"contracts/sample.sol\":2157:2293  for (uint256 i = 0; i < approvedRecordList.length; i++) {... */\n      jump(tag_45)\n    tag_46:\n      pop\n        /* \"contracts/sample.sol\":2110:2299  function resetUserFavorites() public {... */\n      jump\t// out\n        /* \"contracts/sample.sol\":1451:2104  function getUserFavorites(address user) public view returns (string[] memory) {... */\n    tag_29:\n        /* \"contracts/sample.sol\":1580:1598  approvedRecordList */\n      0x02\n        /* \"contracts/sample.sol\":1580:1605  approvedRecordList.length */\n      sload\n        /* \"contracts/sample.sol\":1512:1527  string[] memory */\n      0x60\n      swap1\n        /* \"contracts/sample.sol\":1539:1564  string[] memory favorites */\n      0x00\n      swap1\n        /* \"contracts/sample.sol\":1567:1606  new string[](approvedRecordList.length) */\n      0xffffffffffffffff\n      dup2\n      gt\n      iszero\n      tag_56\n      jumpi\n      tag_56\n      tag_57\n      jump\t// in\n    tag_56:\n      mload(0x40)\n      swap1\n      dup1\n      dup3\n      mstore\n      dup1\n      0x20\n      mul\n      0x20\n      add\n      dup3\n      add\n      0x40\n      mstore\n      dup1\n      iszero\n      tag_58\n      jumpi\n      dup2\n      0x20\n      add\n    tag_59:\n      0x60\n      dup2\n      mstore\n      0x20\n      add\n      swap1\n      0x01\n      swap1\n      sub\n      swap1\n      dup2\n      tag_59\n      jumpi\n      swap1\n      pop\n    tag_58:\n      pop\n        /* \"contracts/sample.sol\":1539:1606  string[] memory favorites = new string[](approvedRecordList.length) */\n      swap1\n      pop\n        /* \"contracts/sample.sol\":1616:1629  uint256 count */\n      0x00\n        /* \"contracts/sample.sol\":1649:1658  uint256 i */\n      dup1\n        /* \"contracts/sample.sol\":1644:1870  for (uint256 i = 0; i < approvedRecordList.length; i++) {... */\n    tag_60:\n        /* \"contracts/sample.sol\":1668:1686  approvedRecordList */\n      0x02\n        /* \"contracts/sample.sol\":1668:1693  approvedRecordList.length */\n      sload\n        /* \"contracts/sample.sol\":1664:1693  i < approvedRecordList.length */\n      dup2\n      lt\n        /* \"contracts/sample.sol\":1644:1870  for (uint256 i = 0; i < approvedRecordList.length; i++) {... */\n      iszero\n      tag_61\n      jumpi\n      sub(shl(0xa0, 0x01), 0x01)\n        /* \"contracts/sample.sol\":1718:1737  userFavorites[user] */\n      dup6\n      and\n      0x00\n      swap1\n      dup2\n      mstore\n        /* \"contracts/sample.sol\":1718:1731  userFavorites */\n      0x01\n        /* \"contracts/sample.sol\":1718:1737  userFavorites[user] */\n      0x20\n      mstore\n      0x40\n      swap1\n      keccak256\n        /* \"contracts/sample.sol\":1738:1756  approvedRecordList */\n      0x02\n        /* \"contracts/sample.sol\":1738:1759  approvedRecordList[i] */\n      dup1\n      sload\n        /* \"contracts/sample.sol\":1757:1758  i */\n      dup4\n      swap1\n        /* \"contracts/sample.sol\":1738:1759  approvedRecordList[i] */\n      dup2\n      lt\n      tag_64\n      jumpi\n      tag_64\n      tag_50\n      jump\t// in\n    tag_64:\n      swap1\n      0x00\n      mstore\n      keccak256(0x00, 0x20)\n      add\n        /* \"contracts/sample.sol\":1718:1760  userFavorites[user][approvedRecordList[i]] */\n      mload(0x40)\n      tag_66\n      swap2\n      swap1\n      tag_53\n      jump\t// in\n    tag_66:\n      swap1\n      dup2\n      mstore\n      mload(0x40)\n      swap1\n      dup2\n      swap1\n      sub\n      0x20\n      add\n      swap1\n      keccak256\n      sload\n      0xff\n      and\n        /* \"contracts/sample.sol\":1714:1860  if (userFavorites[user][approvedRecordList[i]]) {... */\n      iszero\n      tag_67\n      jumpi\n        /* \"contracts/sample.sol\":1799:1817  approvedRecordList */\n      0x02\n        /* \"contracts/sample.sol\":1818:1819  i */\n      dup2\n        /* \"contracts/sample.sol\":1799:1820  approvedRecordList[i] */\n      dup2\n      sload\n      dup2\n      lt\n      tag_69\n      jumpi\n      tag_69\n      tag_50\n      jump\t// in\n    tag_69:\n      swap1\n      0x00\n      mstore\n      keccak256(0x00, 0x20)\n      add\n        /* \"contracts/sample.sol\":1780:1820  favorites[count] = approvedRecordList[i] */\n      dup1\n      sload\n      tag_71\n      swap1\n      tag_39\n      jump\t// in\n    tag_71:\n      dup1\n      0x1f\n      add\n      0x20\n      dup1\n      swap2\n      div\n      mul\n      0x20\n      add\n      mload(0x40)\n      swap1\n      dup2\n      add\n      0x40\n      mstore\n      dup1\n      swap3\n      swap2\n      swap1\n      dup2\n      dup2\n      mstore\n      0x20\n      add\n      dup3\n      dup1\n      sload\n      tag_72\n      swap1\n      tag_39\n      jump\t// in\n    tag_72:\n      dup1\n      iszero\n      tag_73\n      jumpi\n      dup1\n      0x1f\n      lt\n      tag_74\n      jumpi\n      0x0100\n      dup1\n      dup4\n      sload\n      div\n      mul\n      dup4\n      mstore\n      swap2\n      0x20\n      add\n      swap2\n      jump(tag_73)\n    tag_74:\n      dup3\n      add\n      swap2\n      swap1\n      0x00\n      mstore\n      keccak256(0x00, 0x20)\n      swap1\n    tag_75:\n      dup2\n      sload\n      dup2\n      mstore\n      swap1\n      0x01\n      add\n      swap1\n      0x20\n      add\n      dup1\n      dup4\n      gt\n      tag_75\n      jumpi\n      dup3\n      swap1\n      sub\n      0x1f\n      and\n      dup3\n      add\n      swap2\n    tag_73:\n      pop\n      pop\n      pop\n      pop\n      pop\n        /* \"contracts/sample.sol\":1780:1789  favorites */\n      dup4\n        /* \"contracts/sample.sol\":1790:1795  count */\n      dup4\n        /* \"contracts/sample.sol\":1780:1796  favorites[count] */\n      dup2\n      mload\n      dup2\n      lt\n      tag_77\n      jumpi\n      tag_77\n      tag_50\n      jump\t// in\n    tag_77:\n      0x20\n      mul\n      0x20\n      add\n      add\n        /* \"contracts/sample.sol\":1780:1820  favorites[count] = approvedRecordList[i] */\n      dup2\n      swap1\n      mstore\n      pop\n        /* \"contracts/sample.sol\":1838:1845  count++ */\n      dup2\n      dup1\n      tag_78\n      swap1\n      tag_79\n      jump\t// in\n    tag_78:\n      swap3\n      pop\n      pop\n        /* \"contracts/sample.sol\":1714:1860  if (userFavorites[user][approvedRecordList[i]]) {... */\n    tag_67:\n        /* \"contracts/sample.sol\":1695:1698  i++ */\n      0x01\n      add\n        /* \"contracts/sample.sol\":1644:1870  for (uint256 i = 0; i < approvedRecordList.length; i++) {... */\n      jump(tag_60)\n    tag_61:\n      pop\n        /* \"contracts/sample.sol\":1935:1957  string[] memory result */\n      0x00\n        /* \"contracts/sample.sol\":1973:1978  count */\n      dup2\n        /* \"contracts/sample.sol\":1960:1979  new string[](count) */\n      0xffffffffffffffff\n      dup2\n      gt\n      iszero\n      tag_81\n      jumpi\n      tag_81\n      tag_57\n      jump\t// in\n    tag_81:\n      mload(0x40)\n      swap1\n      dup1\n      dup3\n      mstore\n      dup1\n      0x20\n      mul\n      0x20\n      add\n      dup3\n      add\n      0x40\n      mstore\n      dup1\n      iszero\n      tag_82\n      jumpi\n      dup2\n      0x20\n      add\n    tag_83:\n      0x60\n      dup2\n      mstore\n      0x20\n      add\n      swap1\n      0x01\n      swap1\n      sub\n      swap1\n      dup2\n      tag_83\n      jumpi\n      swap1\n      pop\n    tag_82:\n      pop\n        /* \"contracts/sample.sol\":1935:1979  string[] memory result = new string[](count) */\n      swap1\n      pop\n        /* \"contracts/sample.sol\":1994:2003  uint256 j */\n      0x00\n        /* \"contracts/sample.sol\":1989:2074  for (uint256 j = 0; j < count; j++) {... */\n    tag_84:\n        /* \"contracts/sample.sol\":2013:2018  count */\n      dup3\n        /* \"contracts/sample.sol\":2009:2010  j */\n      dup2\n        /* \"contracts/sample.sol\":2009:2018  j < count */\n      lt\n        /* \"contracts/sample.sol\":1989:2074  for (uint256 j = 0; j < count; j++) {... */\n      iszero\n      tag_85\n      jumpi\n        /* \"contracts/sample.sol\":2051:2060  favorites */\n      dup4\n        /* \"contracts/sample.sol\":2061:2062  j */\n      dup2\n        /* \"contracts/sample.sol\":2051:2063  favorites[j] */\n      dup2\n      mload\n      dup2\n      lt\n      tag_88\n      jumpi\n      tag_88\n      tag_50\n      jump\t// in\n    tag_88:\n      0x20\n      mul\n      0x20\n      add\n      add\n      mload\n        /* \"contracts/sample.sol\":2039:2045  result */\n      dup3\n        /* \"contracts/sample.sol\":2046:2047  j */\n      dup3\n        /* \"contracts/sample.sol\":2039:2048  result[j] */\n      dup2\n      mload\n      dup2\n      lt\n      tag_90\n      jumpi\n      tag_90\n      tag_50\n      jump\t// in\n    tag_90:\n      0x20\n      swap1\n      dup2\n      mul\n      swap2\n      swap1\n      swap2\n      add\n      add\n        /* \"contracts/sample.sol\":2039:2063  result[j] = favorites[j] */\n      mstore\n        /* \"contracts/sample.sol\":2020:2023  j++ */\n      0x01\n      add\n        /* \"contracts/sample.sol\":1989:2074  for (uint256 j = 0; j < count; j++) {... */\n      jump(tag_84)\n    tag_85:\n      pop\n        /* \"contracts/sample.sol\":2091:2097  result */\n      swap5\n        /* \"contracts/sample.sol\":1451:2104  function getUserFavorites(address user) public view returns (string[] memory) {... */\n      swap4\n      pop\n      pop\n      pop\n      pop\n      jump\t// out\n        /* \"contracts/sample.sol\":1238:1445  function addRecord(string memory albumName) public {... */\n    tag_33:\n        /* \"contracts/sample.sol\":1304:1319  approvedRecords */\n      0x00\n        /* \"contracts/sample.sol\":1320:1329  albumName */\n      dup2\n        /* \"contracts/sample.sol\":1304:1330  approvedRecords[albumName] */\n      mload(0x40)\n      tag_92\n      swap2\n      swap1\n      tag_93\n      jump\t// in\n    tag_92:\n      swap1\n      dup2\n      mstore\n      mload(0x40)\n      swap1\n      dup2\n      swap1\n      sub\n      0x20\n      add\n      swap1\n      keccak256\n      sload\n      0xff\n      and\n        /* \"contracts/sample.sol\":1299:1386  if (!approvedRecords[albumName]) {... */\n      tag_94\n      jumpi\n        /* \"contracts/sample.sol\":1365:1374  albumName */\n      dup1\n        /* \"contracts/sample.sol\":1353:1375  NotApproved(albumName) */\n      mload(0x40)\n      shl(0xe0, 0x4f0ffc1b)\n      dup2\n      mstore\n      0x04\n      add\n      tag_95\n      swap2\n      swap1\n      tag_96\n      jump\t// in\n    tag_95:\n      mload(0x40)\n      dup1\n      swap2\n      sub\n      swap1\n      revert\n        /* \"contracts/sample.sol\":1299:1386  if (!approvedRecords[albumName]) {... */\n    tag_94:\n        /* \"contracts/sample.sol\":1409:1419  msg.sender */\n      caller\n        /* \"contracts/sample.sol\":1395:1420  userFavorites[msg.sender] */\n      0x00\n      swap1\n      dup2\n      mstore\n        /* \"contracts/sample.sol\":1434:1438  true */\n      0x01\n        /* \"contracts/sample.sol\":1395:1420  userFavorites[msg.sender] */\n      0x20\n      dup2\n      swap1\n      mstore\n      0x40\n      swap2\n      dup3\n      swap1\n      keccak256\n        /* \"contracts/sample.sol\":1395:1431  userFavorites[msg.sender][albumName] */\n      swap2\n      mload\n        /* \"contracts/sample.sol\":1434:1438  true */\n      swap1\n      swap2\n        /* \"contracts/sample.sol\":1395:1420  userFavorites[msg.sender] */\n      swap1\n        /* \"contracts/sample.sol\":1395:1431  userFavorites[msg.sender][albumName] */\n      tag_97\n      swap1\n        /* \"contracts/sample.sol\":1421:1430  albumName */\n      dup5\n      swap1\n        /* \"contracts/sample.sol\":1395:1431  userFavorites[msg.sender][albumName] */\n      tag_93\n      jump\t// in\n    tag_97:\n      swap1\n      dup2\n      mstore\n      mload(0x40)\n      swap1\n      dup2\n      swap1\n      sub\n      0x20\n      add\n      swap1\n      keccak256\n        /* \"contracts/sample.sol\":1395:1438  userFavorites[msg.sender][albumName] = true */\n      dup1\n      sload\n      swap2\n      iszero\n      iszero\n      not(0xff)\n      swap1\n      swap3\n      and\n      swap2\n      swap1\n      swap2\n      or\n      swap1\n      sstore\n      pop\n        /* \"contracts/sample.sol\":1238:1445  function addRecord(string memory albumName) public {... */\n      jump\t// out\n        /* \"#utility.yul\":14:303   */\n    tag_98:\n        /* \"#utility.yul\":56:59   */\n      0x00\n        /* \"#utility.yul\":94:99   */\n      dup2\n        /* \"#utility.yul\":88:100   */\n      mload\n        /* \"#utility.yul\":121:127   */\n      dup1\n        /* \"#utility.yul\":116:119   */\n      dup5\n        /* \"#utility.yul\":109:128   */\n      mstore\n        /* \"#utility.yul\":177:183   */\n      dup1\n        /* \"#utility.yul\":170:174   */\n      0x20\n        /* \"#utility.yul\":163:168   */\n      dup5\n        /* \"#utility.yul\":159:175   */\n      add\n        /* \"#utility.yul\":152:156   */\n      0x20\n        /* \"#utility.yul\":147:150   */\n      dup7\n        /* \"#utility.yul\":143:157   */\n      add\n        /* \"#utility.yul\":137:184   */\n      mcopy\n        /* \"#utility.yul\":229:230   */\n      0x00\n        /* \"#utility.yul\":222:226   */\n      0x20\n        /* \"#utility.yul\":213:219   */\n      dup3\n        /* \"#utility.yul\":208:211   */\n      dup7\n        /* \"#utility.yul\":204:220   */\n      add\n        /* \"#utility.yul\":200:227   */\n      add\n        /* \"#utility.yul\":193:231   */\n      mstore\n        /* \"#utility.yul\":292:296   */\n      0x20\n        /* \"#utility.yul\":285:287   */\n      0x1f\n        /* \"#utility.yul\":281:288   */\n      not\n        /* \"#utility.yul\":276:278   */\n      0x1f\n        /* \"#utility.yul\":268:274   */\n      dup4\n        /* \"#utility.yul\":264:279   */\n      add\n        /* \"#utility.yul\":260:289   */\n      and\n        /* \"#utility.yul\":255:258   */\n      dup6\n        /* \"#utility.yul\":251:290   */\n      add\n        /* \"#utility.yul\":247:297   */\n      add\n        /* \"#utility.yul\":240:297   */\n      swap2\n      pop\n      pop\n        /* \"#utility.yul\":14:303   */\n      swap3\n      swap2\n      pop\n      pop\n      jump\t// out\n        /* \"#utility.yul\":308:1090   */\n    tag_12:\n        /* \"#utility.yul\":470:474   */\n      0x00\n        /* \"#utility.yul\":518:520   */\n      0x20\n        /* \"#utility.yul\":507:516   */\n      dup3\n        /* \"#utility.yul\":503:521   */\n      add\n        /* \"#utility.yul\":548:550   */\n      0x20\n        /* \"#utility.yul\":537:546   */\n      dup4\n        /* \"#utility.yul\":530:551   */\n      mstore\n        /* \"#utility.yul\":571:577   */\n      dup1\n        /* \"#utility.yul\":606:612   */\n      dup5\n        /* \"#utility.yul\":600:613   */\n      mload\n        /* \"#utility.yul\":637:643   */\n      dup1\n        /* \"#utility.yul\":629:635   */\n      dup4\n        /* \"#utility.yul\":622:644   */\n      mstore\n        /* \"#utility.yul\":675:677   */\n      0x40\n        /* \"#utility.yul\":664:673   */\n      dup6\n        /* \"#utility.yul\":660:678   */\n      add\n        /* \"#utility.yul\":653:678   */\n      swap2\n      pop\n        /* \"#utility.yul\":737:739   */\n      0x40\n        /* \"#utility.yul\":727:733   */\n      dup2\n        /* \"#utility.yul\":724:725   */\n      0x05\n        /* \"#utility.yul\":720:734   */\n      shl\n        /* \"#utility.yul\":709:718   */\n      dup7\n        /* \"#utility.yul\":705:735   */\n      add\n        /* \"#utility.yul\":701:740   */\n      add\n        /* \"#utility.yul\":687:740   */\n      swap3\n      pop\n        /* \"#utility.yul\":775:777   */\n      0x20\n        /* \"#utility.yul\":767:773   */\n      dup7\n        /* \"#utility.yul\":763:778   */\n      add\n        /* \"#utility.yul\":796:797   */\n      0x00\n        /* \"#utility.yul\":806:1061   */\n    tag_105:\n        /* \"#utility.yul\":820:826   */\n      dup3\n        /* \"#utility.yul\":817:818   */\n      dup2\n        /* \"#utility.yul\":814:827   */\n      lt\n        /* \"#utility.yul\":806:1061   */\n      iszero\n      tag_107\n      jumpi\n        /* \"#utility.yul\":913:915   */\n      0x3f\n        /* \"#utility.yul\":909:916   */\n      not\n        /* \"#utility.yul\":897:906   */\n      dup8\n        /* \"#utility.yul\":889:895   */\n      dup7\n        /* \"#utility.yul\":885:907   */\n      sub\n        /* \"#utility.yul\":881:917   */\n      add\n        /* \"#utility.yul\":876:879   */\n      dup5\n        /* \"#utility.yul\":869:918   */\n      mstore\n        /* \"#utility.yul\":941:981   */\n      tag_108\n        /* \"#utility.yul\":974:980   */\n      dup6\n        /* \"#utility.yul\":965:971   */\n      dup4\n        /* \"#utility.yul\":959:972   */\n      mload\n        /* \"#utility.yul\":941:981   */\n      tag_98\n      jump\t// in\n    tag_108:\n        /* \"#utility.yul\":931:981   */\n      swap5\n      pop\n        /* \"#utility.yul\":1016:1018   */\n      0x20\n        /* \"#utility.yul\":1039:1051   */\n      swap4\n      dup5\n      add\n      swap4\n        /* \"#utility.yul\":1004:1019   */\n      swap2\n      swap1\n      swap2\n      add\n      swap1\n        /* \"#utility.yul\":842:843   */\n      0x01\n        /* \"#utility.yul\":835:844   */\n      add\n        /* \"#utility.yul\":806:1061   */\n      jump(tag_105)\n    tag_107:\n      pop\n        /* \"#utility.yul\":1078:1084   */\n      swap3\n      swap7\n        /* \"#utility.yul\":308:1090   */\n      swap6\n      pop\n      pop\n      pop\n      pop\n      pop\n      pop\n      jump\t// out\n        /* \"#utility.yul\":1095:1222   */\n    tag_57:\n        /* \"#utility.yul\":1156:1166   */\n      0x4e487b71\n        /* \"#utility.yul\":1151:1154   */\n      0xe0\n        /* \"#utility.yul\":1147:1167   */\n      shl\n        /* \"#utility.yul\":1144:1145   */\n      0x00\n        /* \"#utility.yul\":1137:1168   */\n      mstore\n        /* \"#utility.yul\":1187:1191   */\n      0x41\n        /* \"#utility.yul\":1184:1185   */\n      0x04\n        /* \"#utility.yul\":1177:1192   */\n      mstore\n        /* \"#utility.yul\":1211:1215   */\n      0x24\n        /* \"#utility.yul\":1208:1209   */\n      0x00\n        /* \"#utility.yul\":1201:1216   */\n      revert\n        /* \"#utility.yul\":1227:1953   */\n    tag_99:\n        /* \"#utility.yul\":1270:1275   */\n      0x00\n        /* \"#utility.yul\":1323:1326   */\n      dup3\n        /* \"#utility.yul\":1316:1320   */\n      0x1f\n        /* \"#utility.yul\":1308:1314   */\n      dup4\n        /* \"#utility.yul\":1304:1321   */\n      add\n        /* \"#utility.yul\":1300:1327   */\n      slt\n        /* \"#utility.yul\":1290:1345   */\n      tag_111\n      jumpi\n        /* \"#utility.yul\":1341:1342   */\n      0x00\n        /* \"#utility.yul\":1338:1339   */\n      dup1\n        /* \"#utility.yul\":1331:1343   */\n      revert\n        /* \"#utility.yul\":1290:1345   */\n    tag_111:\n        /* \"#utility.yul\":1381:1387   */\n      dup2\n        /* \"#utility.yul\":1368:1388   */\n      calldataload\n        /* \"#utility.yul\":1411:1429   */\n      0xffffffffffffffff\n        /* \"#utility.yul\":1403:1409   */\n      dup2\n        /* \"#utility.yul\":1400:1430   */\n      gt\n        /* \"#utility.yul\":1397:1453   */\n      iszero\n      tag_113\n      jumpi\n        /* \"#utility.yul\":1433:1451   */\n      tag_113\n      tag_57\n      jump\t// in\n    tag_113:\n        /* \"#utility.yul\":1482:1484   */\n      0x40\n        /* \"#utility.yul\":1476:1485   */\n      mload\n        /* \"#utility.yul\":1574:1576   */\n      0x1f\n        /* \"#utility.yul\":1536:1553   */\n      dup3\n      add\n      not(0x1f)\n        /* \"#utility.yul\":1532:1563   */\n      swap1\n      dup2\n      and\n        /* \"#utility.yul\":1565:1567   */\n      0x3f\n        /* \"#utility.yul\":1528:1568   */\n      add\n        /* \"#utility.yul\":1524:1578   */\n      and\n        /* \"#utility.yul\":1512:1579   */\n      dup2\n      add\n        /* \"#utility.yul\":1609:1627   */\n      0xffffffffffffffff\n        /* \"#utility.yul\":1594:1628   */\n      dup2\n      gt\n        /* \"#utility.yul\":1630:1652   */\n      dup3\n      dup3\n      lt\n        /* \"#utility.yul\":1591:1653   */\n      or\n        /* \"#utility.yul\":1588:1676   */\n      iszero\n      tag_115\n      jumpi\n        /* \"#utility.yul\":1656:1674   */\n      tag_115\n      tag_57\n      jump\t// in\n    tag_115:\n        /* \"#utility.yul\":1692:1694   */\n      0x40\n        /* \"#utility.yul\":1685:1707   */\n      mstore\n        /* \"#utility.yul\":1716:1738   */\n      dup2\n      dup2\n      mstore\n        /* \"#utility.yul\":1757:1776   */\n      dup4\n      dup3\n      add\n        /* \"#utility.yul\":1778:1782   */\n      0x20\n        /* \"#utility.yul\":1753:1783   */\n      add\n        /* \"#utility.yul\":1750:1789   */\n      dup6\n      lt\n        /* \"#utility.yul\":1747:1806   */\n      iszero\n      tag_116\n      jumpi\n        /* \"#utility.yul\":1802:1803   */\n      0x00\n        /* \"#utility.yul\":1799:1800   */\n      dup1\n        /* \"#utility.yul\":1792:1804   */\n      revert\n        /* \"#utility.yul\":1747:1806   */\n    tag_116:\n        /* \"#utility.yul\":1866:1872   */\n      dup2\n        /* \"#utility.yul\":1859:1863   */\n      0x20\n        /* \"#utility.yul\":1851:1857   */\n      dup6\n        /* \"#utility.yul\":1847:1864   */\n      add\n        /* \"#utility.yul\":1840:1844   */\n      0x20\n        /* \"#utility.yul\":1832:1838   */\n      dup4\n        /* \"#utility.yul\":1828:1845   */\n      add\n        /* \"#utility.yul\":1815:1873   */\n      calldatacopy\n        /* \"#utility.yul\":1921:1922   */\n      0x00\n        /* \"#utility.yul\":1893:1912   */\n      swap2\n      dup2\n      add\n        /* \"#utility.yul\":1914:1918   */\n      0x20\n        /* \"#utility.yul\":1889:1919   */\n      add\n        /* \"#utility.yul\":1882:1923   */\n      swap2\n      swap1\n      swap2\n      mstore\n        /* \"#utility.yul\":1897:1903   */\n      swap4\n        /* \"#utility.yul\":1227:1953   */\n      swap3\n      pop\n      pop\n      pop\n      jump\t// out\n        /* \"#utility.yul\":1958:2280   */\n    tag_17:\n        /* \"#utility.yul\":2027:2033   */\n      0x00\n        /* \"#utility.yul\":2080:2082   */\n      0x20\n        /* \"#utility.yul\":2068:2077   */\n      dup3\n        /* \"#utility.yul\":2059:2066   */\n      dup5\n        /* \"#utility.yul\":2055:2078   */\n      sub\n        /* \"#utility.yul\":2051:2083   */\n      slt\n        /* \"#utility.yul\":2048:2100   */\n      iszero\n      tag_118\n      jumpi\n        /* \"#utility.yul\":2096:2097   */\n      0x00\n        /* \"#utility.yul\":2093:2094   */\n      dup1\n        /* \"#utility.yul\":2086:2098   */\n      revert\n        /* \"#utility.yul\":2048:2100   */\n    tag_118:\n        /* \"#utility.yul\":2136:2145   */\n      dup2\n        /* \"#utility.yul\":2123:2146   */\n      calldataload\n        /* \"#utility.yul\":2169:2187   */\n      0xffffffffffffffff\n        /* \"#utility.yul\":2161:2167   */\n      dup2\n        /* \"#utility.yul\":2158:2188   */\n      gt\n        /* \"#utility.yul\":2155:2205   */\n      iszero\n      tag_119\n      jumpi\n        /* \"#utility.yul\":2201:2202   */\n      0x00\n        /* \"#utility.yul\":2198:2199   */\n      dup1\n        /* \"#utility.yul\":2191:2203   */\n      revert\n        /* \"#utility.yul\":2155:2205   */\n    tag_119:\n        /* \"#utility.yul\":2224:2274   */\n      tag_120\n        /* \"#utility.yul\":2266:2273   */\n      dup5\n        /* \"#utility.yul\":2257:2263   */\n      dup3\n        /* \"#utility.yul\":2246:2255   */\n      dup6\n        /* \"#utility.yul\":2242:2264   */\n      add\n        /* \"#utility.yul\":2224:2274   */\n      tag_99\n      jump\t// in\n    tag_120:\n        /* \"#utility.yul\":2214:2274   */\n      swap5\n        /* \"#utility.yul\":1958:2280   */\n      swap4\n      pop\n      pop\n      pop\n      pop\n      jump\t// out\n        /* \"#utility.yul\":2477:2650   */\n    tag_100:\n        /* \"#utility.yul\":2545:2565   */\n      dup1\n      calldataload\n      sub(shl(0xa0, 0x01), 0x01)\n        /* \"#utility.yul\":2594:2625   */\n      dup2\n      and\n        /* \"#utility.yul\":2584:2626   */\n      dup2\n      eq\n        /* \"#utility.yul\":2574:2644   */\n      tag_123\n      jumpi\n        /* \"#utility.yul\":2640:2641   */\n      0x00\n        /* \"#utility.yul\":2637:2638   */\n      dup1\n        /* \"#utility.yul\":2630:2642   */\n      revert\n        /* \"#utility.yul\":2574:2644   */\n    tag_123:\n        /* \"#utility.yul\":2477:2650   */\n      swap2\n      swap1\n      pop\n      jump\t// out\n        /* \"#utility.yul\":2655:3051   */\n    tag_23:\n        /* \"#utility.yul\":2733:2739   */\n      0x00\n        /* \"#utility.yul\":2741:2747   */\n      dup1\n        /* \"#utility.yul\":2794:2796   */\n      0x40\n        /* \"#utility.yul\":2782:2791   */\n      dup4\n        /* \"#utility.yul\":2773:2780   */\n      dup6\n        /* \"#utility.yul\":2769:2792   */\n      sub\n        /* \"#utility.yul\":2765:2797   */\n      slt\n        /* \"#utility.yul\":2762:2814   */\n      iszero\n      tag_125\n      jumpi\n        /* \"#utility.yul\":2810:2811   */\n      0x00\n        /* \"#utility.yul\":2807:2808   */\n      dup1\n        /* \"#utility.yul\":2800:2812   */\n      revert\n        /* \"#utility.yul\":2762:2814   */\n    tag_125:\n        /* \"#utility.yul\":2833:2862   */\n      tag_126\n        /* \"#utility.yul\":2852:2861   */\n      dup4\n        /* \"#utility.yul\":2833:2862   */\n      tag_100\n      jump\t// in\n    tag_126:\n        /* \"#utility.yul\":2823:2862   */\n      swap2\n      pop\n        /* \"#utility.yul\":2913:2915   */\n      0x20\n        /* \"#utility.yul\":2902:2911   */\n      dup4\n        /* \"#utility.yul\":2898:2916   */\n      add\n        /* \"#utility.yul\":2885:2917   */\n      calldataload\n        /* \"#utility.yul\":2940:2958   */\n      0xffffffffffffffff\n        /* \"#utility.yul\":2932:2938   */\n      dup2\n        /* \"#utility.yul\":2929:2959   */\n      gt\n        /* \"#utility.yul\":2926:2976   */\n      iszero\n      tag_127\n      jumpi\n        /* \"#utility.yul\":2972:2973   */\n      0x00\n        /* \"#utility.yul\":2969:2970   */\n      dup1\n        /* \"#utility.yul\":2962:2974   */\n      revert\n        /* \"#utility.yul\":2926:2976   */\n    tag_127:\n        /* \"#utility.yul\":2995:3045   */\n      tag_128\n        /* \"#utility.yul\":3037:3044   */\n      dup6\n        /* \"#utility.yul\":3028:3034   */\n      dup3\n        /* \"#utility.yul\":3017:3026   */\n      dup7\n        /* \"#utility.yul\":3013:3035   */\n      add\n        /* \"#utility.yul\":2995:3045   */\n      tag_99\n      jump\t// in\n    tag_128:\n        /* \"#utility.yul\":2985:3045   */\n      swap2\n      pop\n      pop\n        /* \"#utility.yul\":2655:3051   */\n      swap3\n      pop\n      swap3\n      swap1\n      pop\n      jump\t// out\n        /* \"#utility.yul\":3056:3242   */\n    tag_28:\n        /* \"#utility.yul\":3115:3121   */\n      0x00\n        /* \"#utility.yul\":3168:3170   */\n      0x20\n        /* \"#utility.yul\":3156:3165   */\n      dup3\n        /* \"#utility.yul\":3147:3154   */\n      dup5\n        /* \"#utility.yul\":3143:3166   */\n      sub\n        /* \"#utility.yul\":3139:3171   */\n      slt\n        /* \"#utility.yul\":3136:3188   */\n      iszero\n      tag_130\n      jumpi\n        /* \"#utility.yul\":3184:3185   */\n      0x00\n        /* \"#utility.yul\":3181:3182   */\n      dup1\n        /* \"#utility.yul\":3174:3186   */\n      revert\n        /* \"#utility.yul\":3136:3188   */\n    tag_130:\n        /* \"#utility.yul\":3207:3236   */\n      tag_131\n        /* \"#utility.yul\":3226:3235   */\n      dup3\n        /* \"#utility.yul\":3207:3236   */\n      tag_100\n      jump\t// in\n    tag_131:\n        /* \"#utility.yul\":3197:3236   */\n      swap4\n        /* \"#utility.yul\":3056:3242   */\n      swap3\n      pop\n      pop\n      pop\n      jump\t// out\n        /* \"#utility.yul\":3247:3627   */\n    tag_39:\n        /* \"#utility.yul\":3326:3327   */\n      0x01\n        /* \"#utility.yul\":3322:3334   */\n      dup2\n      dup2\n      shr\n      swap1\n        /* \"#utility.yul\":3369:3381   */\n      dup3\n      and\n      dup1\n        /* \"#utility.yul\":3390:3451   */\n      tag_133\n      jumpi\n        /* \"#utility.yul\":3444:3448   */\n      0x7f\n        /* \"#utility.yul\":3436:3442   */\n      dup3\n        /* \"#utility.yul\":3432:3449   */\n      and\n        /* \"#utility.yul\":3422:3449   */\n      swap2\n      pop\n        /* \"#utility.yul\":3390:3451   */\n    tag_133:\n        /* \"#utility.yul\":3497:3499   */\n      0x20\n        /* \"#utility.yul\":3489:3495   */\n      dup3\n        /* \"#utility.yul\":3486:3500   */\n      lt\n        /* \"#utility.yul\":3466:3484   */\n      dup2\n        /* \"#utility.yul\":3463:3501   */\n      sub\n        /* \"#utility.yul\":3460:3621   */\n      tag_134\n      jumpi\n        /* \"#utility.yul\":3543:3553   */\n      0x4e487b71\n        /* \"#utility.yul\":3538:3541   */\n      0xe0\n        /* \"#utility.yul\":3534:3554   */\n      shl\n        /* \"#utility.yul\":3531:3532   */\n      0x00\n        /* \"#utility.yul\":3524:3555   */\n      mstore\n        /* \"#utility.yul\":3578:3582   */\n      0x22\n        /* \"#utility.yul\":3575:3576   */\n      0x04\n        /* \"#utility.yul\":3568:3583   */\n      mstore\n        /* \"#utility.yul\":3606:3610   */\n      0x24\n        /* \"#utility.yul\":3603:3604   */\n      0x00\n        /* \"#utility.yul\":3596:3611   */\n      revert\n        /* \"#utility.yul\":3460:3621   */\n    tag_134:\n      pop\n        /* \"#utility.yul\":3247:3627   */\n      swap2\n      swap1\n      pop\n      jump\t// out\n        /* \"#utility.yul\":3632:3759   */\n    tag_50:\n        /* \"#utility.yul\":3693:3703   */\n      0x4e487b71\n        /* \"#utility.yul\":3688:3691   */\n      0xe0\n        /* \"#utility.yul\":3684:3704   */\n      shl\n        /* \"#utility.yul\":3681:3682   */\n      0x00\n        /* \"#utility.yul\":3674:3705   */\n      mstore\n        /* \"#utility.yul\":3724:3728   */\n      0x32\n        /* \"#utility.yul\":3721:3722   */\n      0x04\n        /* \"#utility.yul\":3714:3729   */\n      mstore\n        /* \"#utility.yul\":3748:3752   */\n      0x24\n        /* \"#utility.yul\":3745:3746   */\n      0x00\n        /* \"#utility.yul\":3738:3753   */\n      revert\n        /* \"#utility.yul\":3890:4968   */\n    tag_53:\n        /* \"#utility.yul\":4018:4021   */\n      0x00\n        /* \"#utility.yul\":4047:4048   */\n      dup1\n        /* \"#utility.yul\":4080:4086   */\n      dup4\n        /* \"#utility.yul\":4074:4087   */\n      sload\n        /* \"#utility.yul\":4110:4111   */\n      0x00\n        /* \"#utility.yul\":4137:4146   */\n      dup2\n        /* \"#utility.yul\":4134:4135   */\n      0x01\n        /* \"#utility.yul\":4130:4147   */\n      shr\n        /* \"#utility.yul\":4120:4147   */\n      swap1\n      pop\n        /* \"#utility.yul\":4197:4198   */\n      0x01\n        /* \"#utility.yul\":4186:4195   */\n      dup3\n        /* \"#utility.yul\":4182:4199   */\n      and\n        /* \"#utility.yul\":4218:4236   */\n      dup1\n        /* \"#utility.yul\":4208:4269   */\n      tag_138\n      jumpi\n        /* \"#utility.yul\":4262:4266   */\n      0x7f\n        /* \"#utility.yul\":4254:4260   */\n      dup3\n        /* \"#utility.yul\":4250:4267   */\n      and\n        /* \"#utility.yul\":4240:4267   */\n      swap2\n      pop\n        /* \"#utility.yul\":4208:4269   */\n    tag_138:\n        /* \"#utility.yul\":4315:4317   */\n      0x20\n        /* \"#utility.yul\":4307:4313   */\n      dup3\n        /* \"#utility.yul\":4304:4318   */\n      lt\n        /* \"#utility.yul\":4284:4302   */\n      dup2\n        /* \"#utility.yul\":4281:4319   */\n      sub\n        /* \"#utility.yul\":4278:4439   */\n      tag_139\n      jumpi\n        /* \"#utility.yul\":4361:4371   */\n      0x4e487b71\n        /* \"#utility.yul\":4356:4359   */\n      0xe0\n        /* \"#utility.yul\":4352:4372   */\n      shl\n        /* \"#utility.yul\":4349:4350   */\n      0x00\n        /* \"#utility.yul\":4342:4373   */\n      mstore\n        /* \"#utility.yul\":4396:4400   */\n      0x22\n        /* \"#utility.yul\":4393:4394   */\n      0x04\n        /* \"#utility.yul\":4386:4401   */\n      mstore\n        /* \"#utility.yul\":4424:4428   */\n      0x24\n        /* \"#utility.yul\":4421:4422   */\n      0x00\n        /* \"#utility.yul\":4414:4429   */\n      revert\n        /* \"#utility.yul\":4278:4439   */\n    tag_139:\n        /* \"#utility.yul\":4455:4473   */\n      dup1\n        /* \"#utility.yul\":4482:4615   */\n      dup1\n      iszero\n      tag_141\n      jumpi\n        /* \"#utility.yul\":4629:4630   */\n      0x01\n        /* \"#utility.yul\":4624:4943   */\n      dup2\n      eq\n      tag_142\n      jumpi\n        /* \"#utility.yul\":4448:4943   */\n      jump(tag_107)\n        /* \"#utility.yul\":4482:4615   */\n    tag_141:\n      not(0xff)\n        /* \"#utility.yul\":4515:4539   */\n      dup5\n      and\n        /* \"#utility.yul\":4503:4540   */\n      dup8\n      mstore\n        /* \"#utility.yul\":4588:4602   */\n      dup3\n      iszero\n        /* \"#utility.yul\":4581:4603   */\n      iszero\n        /* \"#utility.yul\":4569:4604   */\n      dup4\n      mul\n        /* \"#utility.yul\":4560:4605   */\n      dup8\n      add\n      swap5\n      pop\n        /* \"#utility.yul\":4482:4615   */\n      jump(tag_107)\n        /* \"#utility.yul\":4624:4943   */\n    tag_142:\n        /* \"#utility.yul\":3837:3838   */\n      0x00\n        /* \"#utility.yul\":3830:3844   */\n      dup9\n      dup2\n      mstore\n        /* \"#utility.yul\":3874:3878   */\n      0x20\n        /* \"#utility.yul\":3861:3879   */\n      swap1\n      keccak256\n        /* \"#utility.yul\":4719:4720   */\n      0x00\n        /* \"#utility.yul\":4733:4897   */\n    tag_144:\n        /* \"#utility.yul\":4747:4753   */\n      dup5\n        /* \"#utility.yul\":4744:4745   */\n      dup2\n        /* \"#utility.yul\":4741:4754   */\n      lt\n        /* \"#utility.yul\":4733:4897   */\n      iszero\n      tag_146\n      jumpi\n        /* \"#utility.yul\":4825:4839   */\n      dup2\n      sload\n        /* \"#utility.yul\":4812:4823   */\n      dup10\n      dup3\n      add\n        /* \"#utility.yul\":4805:4840   */\n      mstore\n        /* \"#utility.yul\":4881:4882   */\n      0x01\n        /* \"#utility.yul\":4868:4883   */\n      swap1\n      swap2\n      add\n      swap1\n        /* \"#utility.yul\":4769:4771   */\n      0x20\n        /* \"#utility.yul\":4762:4772   */\n      add\n        /* \"#utility.yul\":4733:4897   */\n      jump(tag_144)\n    tag_146:\n      pop\n      pop\n      pop\n        /* \"#utility.yul\":4917:4933   */\n      swap5\n      add\n      swap6\n        /* \"#utility.yul\":4959:4962   */\n      swap5\n      pop\n      pop\n      pop\n      pop\n      pop\n        /* \"#utility.yul\":3890:4968   */\n      jump\t// out\n        /* \"#utility.yul\":4973:5205   */\n    tag_79:\n        /* \"#utility.yul\":5012:5015   */\n      0x00\n        /* \"#utility.yul\":5033:5050   */\n      0x01\n      dup3\n      add\n        /* \"#utility.yul\":5030:5170   */\n      tag_148\n      jumpi\n        /* \"#utility.yul\":5092:5102   */\n      0x4e487b71\n        /* \"#utility.yul\":5087:5090   */\n      0xe0\n        /* \"#utility.yul\":5083:5103   */\n      shl\n        /* \"#utility.yul\":5080:5081   */\n      0x00\n        /* \"#utility.yul\":5073:5104   */\n      mstore\n        /* \"#utility.yul\":5127:5131   */\n      0x11\n        /* \"#utility.yul\":5124:5125   */\n      0x04\n        /* \"#utility.yul\":5117:5132   */\n      mstore\n        /* \"#utility.yul\":5155:5159   */\n      0x24\n        /* \"#utility.yul\":5152:5153   */\n      0x00\n        /* \"#utility.yul\":5145:5160   */\n      revert\n        /* \"#utility.yul\":5030:5170   */\n    tag_148:\n      pop\n        /* \"#utility.yul\":5197:5198   */\n      0x01\n        /* \"#utility.yul\":5186:5199   */\n      add\n      swap1\n        /* \"#utility.yul\":4973:5205   */\n      jump\t// out\n        /* \"#utility.yul\":5210:5513   */\n    tag_93:\n        /* \"#utility.yul\":5341:5344   */\n      0x00\n        /* \"#utility.yul\":5379:5385   */\n      dup3\n        /* \"#utility.yul\":5373:5386   */\n      mload\n        /* \"#utility.yul\":5425:5431   */\n      dup1\n        /* \"#utility.yul\":5418:5422   */\n      0x20\n        /* \"#utility.yul\":5410:5416   */\n      dup6\n        /* \"#utility.yul\":5406:5423   */\n      add\n        /* \"#utility.yul\":5401:5404   */\n      dup5\n        /* \"#utility.yul\":5395:5432   */\n      mcopy\n        /* \"#utility.yul\":5487:5488   */\n      0x00\n        /* \"#utility.yul\":5451:5467   */\n      swap3\n      add\n        /* \"#utility.yul\":5476:5489   */\n      swap2\n      dup3\n      mstore\n      pop\n        /* \"#utility.yul\":5451:5467   */\n      swap2\n        /* \"#utility.yul\":5210:5513   */\n      swap1\n      pop\n      jump\t// out\n        /* \"#utility.yul\":5518:5738   */\n    tag_96:\n        /* \"#utility.yul\":5667:5669   */\n      0x20\n        /* \"#utility.yul\":5656:5665   */\n      dup2\n        /* \"#utility.yul\":5649:5670   */\n      mstore\n        /* \"#utility.yul\":5630:5634   */\n      0x00\n        /* \"#utility.yul\":5687:5732   */\n      tag_131\n        /* \"#utility.yul\":5728:5730   */\n      0x20\n        /* \"#utility.yul\":5717:5726   */\n      dup4\n        /* \"#utility.yul\":5713:5731   */\n      add\n        /* \"#utility.yul\":5705:5711   */\n      dup5\n        /* \"#utility.yul\":5687:5732   */\n      tag_98\n      jump\t// in\n\n    auxdata: 0xa2646970667358221220bfe28af797322720d8dad1f2f2a372c1236da34cb85b4595cc2a737c402465aa64736f6c634300081a0033\n}\n",
				"bytecode": {
					"linkReferences": {},
					"object": "608060405234801561000f575f80fd5b5060015f60405161002e90672a343934b63632b960c11b815260080190565b908152604051908190036020018120805492151560ff19909316929092179091556c4261636b20696e20426c61636b60981b81526001905f90600d01908152604051908190036020018120805492151560ff19909316929092179091556c151a1948109bd91e59dd585c99609a1b81526001905f90600d01908152604051908190036020018120805492151560ff19909316929092179091557f546865204461726b2053696465206f6620746865204d6f6f6e0000000000000081526001905f90601901908152604051908190036020018120805492151560ff19909316929092179091557f546865697220477265617465737420486974732028313937312d31393735290081526001905f90601f01908152604051908190036020018120805492151560ff19909316929092179091556f486f74656c2043616c69666f726e696160801b81526001905f90601001908152604051908190036020018120805492151560ff19909316929092179091556b21b7b6b29027b71027bb32b960a11b81526001905f90600c01908152604051908190036020018120805492151560ff19909316929092179091556652756d6f75727360c81b81526001905f90600701908152604051908190036020018120805492151560ff19909316929092179091557f5361747572646179204e6967687420466576657200000000000000000000000081526001905f906014019081526040805160209281900383018120805460ff1916941515949094179093556101608301815260086101208401908152672a343934b63632b960c11b610140850152835280518082018252600d8082526c4261636b20696e20426c61636b60981b8285015283850191909152815180830183529081526c151a1948109bd91e59dd585c99609a1b818401528382015280518082018252601981527f546865204461726b2053696465206f6620746865204d6f6f6e0000000000000081840152606084015280518082018252601f81527f546865697220477265617465737420486974732028313937312d31393735290081840152608084015280518082018252601081526f486f74656c2043616c69666f726e696160801b8184015260a084015280518082018252600c81526b21b7b6b29027b71027bb32b960a11b8184015260c084015280518082018252600781526652756d6f75727360c81b8184015260e08401528051808201909152601481527f5361747572646179204e69676874204665766572000000000000000000000000918101919091526101008201526103e89060029060096103ee565b506105fe565b828054828255905f5260205f20908101928215610432579160200282015b8281111561043257825182906104229082610544565b509160200191906001019061040c565b5061043e929150610442565b5090565b8082111561043e575f610455828261045e565b50600101610442565b50805461046a906104c0565b5f825580601f10610479575050565b601f0160209004905f5260205f20908101906104959190610498565b50565b5b8082111561043e575f8155600101610499565b634e487b7160e01b5f52604160045260245ffd5b600181811c908216806104d457607f821691505b6020821081036104f257634e487b7160e01b5f52602260045260245ffd5b50919050565b601f82111561053f57805f5260205f20601f840160051c8101602085101561051d5750805b601f840160051c820191505b8181101561053c575f8155600101610529565b50505b505050565b81516001600160401b0381111561055d5761055d6104ac565b6105718161056b84546104c0565b846104f8565b6020601f8211600181146105a3575f831561058c5750848201515b5f19600385901b1c1916600184901b17845561053c565b5f84815260208120601f198516915b828110156105d257878501518255602094850194600190920191016105b2565b50848210156105ef57868401515f19600387901b60f8161c191681555b50505050600190811b01905550565b61087d8061060b5f395ff3fe608060405234801561000f575f80fd5b5060043610610060575f3560e01c80631cf0830b14610064578063837f887814610082578063b374ac591461008c578063c75c333c146100c9578063c785314814610107578063d81aa8c41461011a575b5f80fd5b61006c61012d565b6040516100799190610557565b60405180910390f35b61008a610201565b005b6100b961009a366004610659565b80516020818301810180515f8252928201919093012091525460ff1681565b6040519015158152602001610079565b6100b96100d73660046106ae565b600160209081525f9283526040909220815180830184018051928152908401929093019190912091525460ff1681565b61006c6101153660046106f9565b610266565b61008a610128366004610659565b61049a565b60606002805480602002602001604051908101604052809291908181526020015f905b828210156101f8578382905f5260205f2001805461016d90610719565b80601f016020809104026020016040519081016040528092919081815260200182805461019990610719565b80156101e45780601f106101bb576101008083540402835291602001916101e4565b820191905f5260205f20905b8154815290600101906020018083116101c757829003601f168201915b505050505081526020019060010190610150565b50505050905090565b5f5b60025481101561026357335f908152600160205260409020600280548390811061022f5761022f610751565b905f5260205f20016040516102449190610765565b908152604051908190036020019020805460ff19169055600101610203565b50565b6002546060905f9067ffffffffffffffff811115610286576102866105ba565b6040519080825280602002602001820160405280156102b957816020015b60608152602001906001900390816102a45790505b5090505f805b6002548110156103f7576001600160a01b0385165f90815260016020526040902060028054839081106102f4576102f4610751565b905f5260205f20016040516103099190610765565b9081526040519081900360200190205460ff16156103ef576002818154811061033457610334610751565b905f5260205f2001805461034790610719565b80601f016020809104026020016040519081016040528092919081815260200182805461037390610719565b80156103be5780601f10610395576101008083540402835291602001916103be565b820191905f5260205f20905b8154815290600101906020018083116103a157829003601f168201915b50505050508383815181106103d5576103d5610751565b602002602001018190525081806103eb906107fb565b9250505b6001016102bf565b505f8167ffffffffffffffff811115610412576104126105ba565b60405190808252806020026020018201604052801561044557816020015b60608152602001906001900390816104305790505b5090505f5b828110156104915783818151811061046457610464610751565b602002602001015182828151811061047e5761047e610751565b602090810291909101015260010161044a565b50949350505050565b5f816040516104a9919061081f565b9081526040519081900360200190205460ff166104e45780604051634f0ffc1b60e01b81526004016104db9190610835565b60405180910390fd5b335f90815260016020819052604091829020915190919061050690849061081f565b908152604051908190036020019020805491151560ff1990921691909117905550565b5f81518084528060208401602086015e5f602082860101526020601f19601f83011685010191505092915050565b5f602082016020835280845180835260408501915060408160051b8601019250602086015f5b828110156105ae57603f19878603018452610599858351610529565b9450602093840193919091019060010161057d565b50929695505050505050565b634e487b7160e01b5f52604160045260245ffd5b5f82601f8301126105dd575f80fd5b813567ffffffffffffffff8111156105f7576105f76105ba565b604051601f8201601f19908116603f0116810167ffffffffffffffff81118282101715610626576106266105ba565b60405281815283820160200185101561063d575f80fd5b816020850160208301375f918101602001919091529392505050565b5f60208284031215610669575f80fd5b813567ffffffffffffffff81111561067f575f80fd5b61068b848285016105ce565b949350505050565b80356001600160a01b03811681146106a9575f80fd5b919050565b5f80604083850312156106bf575f80fd5b6106c883610693565b9150602083013567ffffffffffffffff8111156106e3575f80fd5b6106ef858286016105ce565b9150509250929050565b5f60208284031215610709575f80fd5b61071282610693565b9392505050565b600181811c9082168061072d57607f821691505b60208210810361074b57634e487b7160e01b5f52602260045260245ffd5b50919050565b634e487b7160e01b5f52603260045260245ffd5b5f8083545f8160011c9050600182168061078057607f821691505b60208210810361079e57634e487b7160e01b5f52602260045260245ffd5b8080156107b257600181146107c7576105ae565b60ff19841687528215158302870194506105ae565b5f888152602090205f5b848110156107ed578154898201526001909101906020016107d1565b505050940195945050505050565b5f6001820161081857634e487b7160e01b5f52601160045260245ffd5b5060010190565b5f82518060208501845e5f920191825250919050565b602081525f610712602083018461052956fea2646970667358221220bfe28af797322720d8dad1f2f2a372c1236da34cb85b4595cc2a737c402465aa64736f6c634300081a0033",
					"opcodes": "PUSH1 0x80 PUSH1 0x40 MSTORE CALLVALUE DUP1 ISZERO PUSH2 0xF JUMPI PUSH0 DUP1 REVERT JUMPDEST POP PUSH1 0x1 PUSH0 PUSH1 0x40 MLOAD PUSH2 0x2E SWAP1 PUSH8 0x2A343934B63632B9 PUSH1 0xC1 SHL DUP2 MSTORE PUSH1 0x8 ADD SWAP1 JUMP JUMPDEST SWAP1 DUP2 MSTORE PUSH1 0x40 MLOAD SWAP1 DUP2 SWAP1 SUB PUSH1 0x20 ADD DUP2 KECCAK256 DUP1 SLOAD SWAP3 ISZERO ISZERO PUSH1 0xFF NOT SWAP1 SWAP4 AND SWAP3 SWAP1 SWAP3 OR SWAP1 SWAP2 SSTORE PUSH13 0x4261636B20696E20426C61636B PUSH1 0x98 SHL DUP2 MSTORE PUSH1 0x1 SWAP1 PUSH0 SWAP1 PUSH1 0xD ADD SWAP1 DUP2 MSTORE PUSH1 0x40 MLOAD SWAP1 DUP2 SWAP1 SUB PUSH1 0x20 ADD DUP2 KECCAK256 DUP1 SLOAD SWAP3 ISZERO ISZERO PUSH1 0xFF NOT SWAP1 SWAP4 AND SWAP3 SWAP1 SWAP3 OR SWAP1 SWAP2 SSTORE PUSH13 0x151A1948109BD91E59DD585C99 PUSH1 0x9A SHL DUP2 MSTORE PUSH1 0x1 SWAP1 PUSH0 SWAP1 PUSH1 0xD ADD SWAP1 DUP2 MSTORE PUSH1 0x40 MLOAD SWAP1 DUP2 SWAP1 SUB PUSH1 0x20 ADD DUP2 KECCAK256 DUP1 SLOAD SWAP3 ISZERO ISZERO PUSH1 0xFF NOT SWAP1 SWAP4 AND SWAP3 SWAP1 SWAP3 OR SWAP1 SWAP2 SSTORE PUSH32 0x546865204461726B2053696465206F6620746865204D6F6F6E00000000000000 DUP2 MSTORE PUSH1 0x1 SWAP1 PUSH0 SWAP1 PUSH1 0x19 ADD SWAP1 DUP2 MSTORE PUSH1 0x40 MLOAD SWAP1 DUP2 SWAP1 SUB PUSH1 0x20 ADD DUP2 KECCAK256 DUP1 SLOAD SWAP3 ISZERO ISZERO PUSH1 0xFF NOT SWAP1 SWAP4 AND SWAP3 SWAP1 SWAP3 OR SWAP1 SWAP2 SSTORE PUSH32 0x546865697220477265617465737420486974732028313937312D313937352900 DUP2 MSTORE PUSH1 0x1 SWAP1 PUSH0 SWAP1 PUSH1 0x1F ADD SWAP1 DUP2 MSTORE PUSH1 0x40 MLOAD SWAP1 DUP2 SWAP1 SUB PUSH1 0x20 ADD DUP2 KECCAK256 DUP1 SLOAD SWAP3 ISZERO ISZERO PUSH1 0xFF NOT SWAP1 SWAP4 AND SWAP3 SWAP1 SWAP3 OR SWAP1 SWAP2 SSTORE PUSH16 0x486F74656C2043616C69666F726E6961 PUSH1 0x80 SHL DUP2 MSTORE PUSH1 0x1 SWAP1 PUSH0 SWAP1 PUSH1 0x10 ADD SWAP1 DUP2 MSTORE PUSH1 0x40 MLOAD SWAP1 DUP2 SWAP1 SUB PUSH1 0x20 ADD DUP2 KECCAK256 DUP1 SLOAD SWAP3 ISZERO ISZERO PUSH1 0xFF NOT SWAP1 SWAP4 AND SWAP3 SWAP1 SWAP3 OR SWAP1 SWAP2 SSTORE PUSH12 0x21B7B6B29027B71027BB32B9 PUSH1 0xA1 SHL DUP2 MSTORE PUSH1 0x1 SWAP1 PUSH0 SWAP1 PUSH1 0xC ADD SWAP1 DUP2 MSTORE PUSH1 0x40 MLOAD SWAP1 DUP2 SWAP1 SUB PUSH1 0x20 ADD DUP2 KECCAK256 DUP1 SLOAD SWAP3 ISZERO ISZERO PUSH1 0xFF NOT SWAP1 SWAP4 AND SWAP3 SWAP1 SWAP3 OR SWAP1 SWAP2 SSTORE PUSH7 0x52756D6F757273 PUSH1 0xC8 SHL DUP2 MSTORE PUSH1 0x1 SWAP1 PUSH0 SWAP1 PUSH1 0x7 ADD SWAP1 DUP2 MSTORE PUSH1 0x40 MLOAD SWAP1 DUP2 SWAP1 SUB PUSH1 0x20 ADD DUP2 KECCAK256 DUP1 SLOAD SWAP3 ISZERO ISZERO PUSH1 0xFF NOT SWAP1 SWAP4 AND SWAP3 SWAP1 SWAP3 OR SWAP1 SWAP2 SSTORE PUSH32 0x5361747572646179204E69676874204665766572000000000000000000000000 DUP2 MSTORE PUSH1 0x1 SWAP1 PUSH0 SWAP1 PUSH1 0x14 ADD SWAP1 DUP2 MSTORE PUSH1 0x40 DUP1 MLOAD PUSH1 0x20 SWAP3 DUP2 SWAP1 SUB DUP4 ADD DUP2 KECCAK256 DUP1 SLOAD PUSH1 0xFF NOT AND SWAP5 ISZERO ISZERO SWAP5 SWAP1 SWAP5 OR SWAP1 SWAP4 SSTORE PUSH2 0x160 DUP4 ADD DUP2 MSTORE PUSH1 0x8 PUSH2 0x120 DUP5 ADD SWAP1 DUP2 MSTORE PUSH8 0x2A343934B63632B9 PUSH1 0xC1 SHL PUSH2 0x140 DUP6 ADD MSTORE DUP4 MSTORE DUP1 MLOAD DUP1 DUP3 ADD DUP3 MSTORE PUSH1 0xD DUP1 DUP3 MSTORE PUSH13 0x4261636B20696E20426C61636B PUSH1 0x98 SHL DUP3 DUP6 ADD MSTORE DUP4 DUP6 ADD SWAP2 SWAP1 SWAP2 MSTORE DUP2 MLOAD DUP1 DUP4 ADD DUP4 MSTORE SWAP1 DUP2 MSTORE PUSH13 0x151A1948109BD91E59DD585C99 PUSH1 0x9A SHL DUP2 DUP5 ADD MSTORE DUP4 DUP3 ADD MSTORE DUP1 MLOAD DUP1 DUP3 ADD DUP3 MSTORE PUSH1 0x19 DUP2 MSTORE PUSH32 0x546865204461726B2053696465206F6620746865204D6F6F6E00000000000000 DUP2 DUP5 ADD MSTORE PUSH1 0x60 DUP5 ADD MSTORE DUP1 MLOAD DUP1 DUP3 ADD DUP3 MSTORE PUSH1 0x1F DUP2 MSTORE PUSH32 0x546865697220477265617465737420486974732028313937312D313937352900 DUP2 DUP5 ADD MSTORE PUSH1 0x80 DUP5 ADD MSTORE DUP1 MLOAD DUP1 DUP3 ADD DUP3 MSTORE PUSH1 0x10 DUP2 MSTORE PUSH16 0x486F74656C2043616C69666F726E6961 PUSH1 0x80 SHL DUP2 DUP5 ADD MSTORE PUSH1 0xA0 DUP5 ADD MSTORE DUP1 MLOAD DUP1 DUP3 ADD DUP3 MSTORE PUSH1 0xC DUP2 MSTORE PUSH12 0x21B7B6B29027B71027BB32B9 PUSH1 0xA1 SHL DUP2 DUP5 ADD MSTORE PUSH1 0xC0 DUP5 ADD MSTORE DUP1 MLOAD DUP1 DUP3 ADD DUP3 MSTORE PUSH1 0x7 DUP2 MSTORE PUSH7 0x52756D6F757273 PUSH1 0xC8 SHL DUP2 DUP5 ADD MSTORE PUSH1 0xE0 DUP5 ADD MSTORE DUP1 MLOAD DUP1 DUP3 ADD SWAP1 SWAP2 MSTORE PUSH1 0x14 DUP2 MSTORE PUSH32 0x5361747572646179204E69676874204665766572000000000000000000000000 SWAP2 DUP2 ADD SWAP2 SWAP1 SWAP2 MSTORE PUSH2 0x100 DUP3 ADD MSTORE PUSH2 0x3E8 SWAP1 PUSH1 0x2 SWAP1 PUSH1 0x9 PUSH2 0x3EE JUMP JUMPDEST POP PUSH2 0x5FE JUMP JUMPDEST DUP3 DUP1 SLOAD DUP3 DUP3 SSTORE SWAP1 PUSH0 MSTORE PUSH1 0x20 PUSH0 KECCAK256 SWAP1 DUP2 ADD SWAP3 DUP3 ISZERO PUSH2 0x432 JUMPI SWAP2 PUSH1 0x20 MUL DUP3 ADD JUMPDEST DUP3 DUP2 GT ISZERO PUSH2 0x432 JUMPI DUP3 MLOAD DUP3 SWAP1 PUSH2 0x422 SWAP1 DUP3 PUSH2 0x544 JUMP JUMPDEST POP SWAP2 PUSH1 0x20 ADD SWAP2 SWAP1 PUSH1 0x1 ADD SWAP1 PUSH2 0x40C JUMP JUMPDEST POP PUSH2 0x43E SWAP3 SWAP2 POP PUSH2 0x442 JUMP JUMPDEST POP SWAP1 JUMP JUMPDEST DUP1 DUP3 GT ISZERO PUSH2 0x43E JUMPI PUSH0 PUSH2 0x455 DUP3 DUP3 PUSH2 0x45E JUMP JUMPDEST POP PUSH1 0x1 ADD PUSH2 0x442 JUMP JUMPDEST POP DUP1 SLOAD PUSH2 0x46A SWAP1 PUSH2 0x4C0 JUMP JUMPDEST PUSH0 DUP3 SSTORE DUP1 PUSH1 0x1F LT PUSH2 0x479 JUMPI POP POP JUMP JUMPDEST PUSH1 0x1F ADD PUSH1 0x20 SWAP1 DIV SWAP1 PUSH0 MSTORE PUSH1 0x20 PUSH0 KECCAK256 SWAP1 DUP2 ADD SWAP1 PUSH2 0x495 SWAP2 SWAP1 PUSH2 0x498 JUMP JUMPDEST POP JUMP JUMPDEST JUMPDEST DUP1 DUP3 GT ISZERO PUSH2 0x43E JUMPI PUSH0 DUP2 SSTORE PUSH1 0x1 ADD PUSH2 0x499 JUMP JUMPDEST PUSH4 0x4E487B71 PUSH1 0xE0 SHL PUSH0 MSTORE PUSH1 0x41 PUSH1 0x4 MSTORE PUSH1 0x24 PUSH0 REVERT JUMPDEST PUSH1 0x1 DUP2 DUP2 SHR SWAP1 DUP3 AND DUP1 PUSH2 0x4D4 JUMPI PUSH1 0x7F DUP3 AND SWAP2 POP JUMPDEST PUSH1 0x20 DUP3 LT DUP2 SUB PUSH2 0x4F2 JUMPI PUSH4 0x4E487B71 PUSH1 0xE0 SHL PUSH0 MSTORE PUSH1 0x22 PUSH1 0x4 MSTORE PUSH1 0x24 PUSH0 REVERT JUMPDEST POP SWAP2 SWAP1 POP JUMP JUMPDEST PUSH1 0x1F DUP3 GT ISZERO PUSH2 0x53F JUMPI DUP1 PUSH0 MSTORE PUSH1 0x20 PUSH0 KECCAK256 PUSH1 0x1F DUP5 ADD PUSH1 0x5 SHR DUP2 ADD PUSH1 0x20 DUP6 LT ISZERO PUSH2 0x51D JUMPI POP DUP1 JUMPDEST PUSH1 0x1F DUP5 ADD PUSH1 0x5 SHR DUP3 ADD SWAP2 POP JUMPDEST DUP2 DUP2 LT ISZERO PUSH2 0x53C JUMPI PUSH0 DUP2 SSTORE PUSH1 0x1 ADD PUSH2 0x529 JUMP JUMPDEST POP POP JUMPDEST POP POP POP JUMP JUMPDEST DUP2 MLOAD PUSH1 0x1 PUSH1 0x1 PUSH1 0x40 SHL SUB DUP2 GT ISZERO PUSH2 0x55D JUMPI PUSH2 0x55D PUSH2 0x4AC JUMP JUMPDEST PUSH2 0x571 DUP2 PUSH2 0x56B DUP5 SLOAD PUSH2 0x4C0 JUMP JUMPDEST DUP5 PUSH2 0x4F8 JUMP JUMPDEST PUSH1 0x20 PUSH1 0x1F DUP3 GT PUSH1 0x1 DUP2 EQ PUSH2 0x5A3 JUMPI PUSH0 DUP4 ISZERO PUSH2 0x58C JUMPI POP DUP5 DUP3 ADD MLOAD JUMPDEST PUSH0 NOT PUSH1 0x3 DUP6 SWAP1 SHL SHR NOT AND PUSH1 0x1 DUP5 SWAP1 SHL OR DUP5 SSTORE PUSH2 0x53C JUMP JUMPDEST PUSH0 DUP5 DUP2 MSTORE PUSH1 0x20 DUP2 KECCAK256 PUSH1 0x1F NOT DUP6 AND SWAP2 JUMPDEST DUP3 DUP2 LT ISZERO PUSH2 0x5D2 JUMPI DUP8 DUP6 ADD MLOAD DUP3 SSTORE PUSH1 0x20 SWAP5 DUP6 ADD SWAP5 PUSH1 0x1 SWAP1 SWAP3 ADD SWAP2 ADD PUSH2 0x5B2 JUMP JUMPDEST POP DUP5 DUP3 LT ISZERO PUSH2 0x5EF JUMPI DUP7 DUP5 ADD MLOAD PUSH0 NOT PUSH1 0x3 DUP8 SWAP1 SHL PUSH1 0xF8 AND SHR NOT AND DUP2 SSTORE JUMPDEST POP POP POP POP PUSH1 0x1 SWAP1 DUP2 SHL ADD SWAP1 SSTORE POP JUMP JUMPDEST PUSH2 0x87D DUP1 PUSH2 0x60B PUSH0 CODECOPY PUSH0 RETURN INVALID PUSH1 0x80 PUSH1 0x40 MSTORE CALLVALUE DUP1 ISZERO PUSH2 0xF JUMPI PUSH0 DUP1 REVERT JUMPDEST POP PUSH1 0x4 CALLDATASIZE LT PUSH2 0x60 JUMPI PUSH0 CALLDATALOAD PUSH1 0xE0 SHR DUP1 PUSH4 0x1CF0830B EQ PUSH2 0x64 JUMPI DUP1 PUSH4 0x837F8878 EQ PUSH2 0x82 JUMPI DUP1 PUSH4 0xB374AC59 EQ PUSH2 0x8C JUMPI DUP1 PUSH4 0xC75C333C EQ PUSH2 0xC9 JUMPI DUP1 PUSH4 0xC7853148 EQ PUSH2 0x107 JUMPI DUP1 PUSH4 0xD81AA8C4 EQ PUSH2 0x11A JUMPI JUMPDEST PUSH0 DUP1 REVERT JUMPDEST PUSH2 0x6C PUSH2 0x12D JUMP JUMPDEST PUSH1 0x40 MLOAD PUSH2 0x79 SWAP2 SWAP1 PUSH2 0x557 JUMP JUMPDEST PUSH1 0x40 MLOAD DUP1 SWAP2 SUB SWAP1 RETURN JUMPDEST PUSH2 0x8A PUSH2 0x201 JUMP JUMPDEST STOP JUMPDEST PUSH2 0xB9 PUSH2 0x9A CALLDATASIZE PUSH1 0x4 PUSH2 0x659 JUMP JUMPDEST DUP1 MLOAD PUSH1 0x20 DUP2 DUP4 ADD DUP2 ADD DUP1 MLOAD PUSH0 DUP3 MSTORE SWAP3 DUP3 ADD SWAP2 SWAP1 SWAP4 ADD KECCAK256 SWAP2 MSTORE SLOAD PUSH1 0xFF AND DUP2 JUMP JUMPDEST PUSH1 0x40 MLOAD SWAP1 ISZERO ISZERO DUP2 MSTORE PUSH1 0x20 ADD PUSH2 0x79 JUMP JUMPDEST PUSH2 0xB9 PUSH2 0xD7 CALLDATASIZE PUSH1 0x4 PUSH2 0x6AE JUMP JUMPDEST PUSH1 0x1 PUSH1 0x20 SWAP1 DUP2 MSTORE PUSH0 SWAP3 DUP4 MSTORE PUSH1 0x40 SWAP1 SWAP3 KECCAK256 DUP2 MLOAD DUP1 DUP4 ADD DUP5 ADD DUP1 MLOAD SWAP3 DUP2 MSTORE SWAP1 DUP5 ADD SWAP3 SWAP1 SWAP4 ADD SWAP2 SWAP1 SWAP2 KECCAK256 SWAP2 MSTORE SLOAD PUSH1 0xFF AND DUP2 JUMP JUMPDEST PUSH2 0x6C PUSH2 0x115 CALLDATASIZE PUSH1 0x4 PUSH2 0x6F9 JUMP JUMPDEST PUSH2 0x266 JUMP JUMPDEST PUSH2 0x8A PUSH2 0x128 CALLDATASIZE PUSH1 0x4 PUSH2 0x659 JUMP JUMPDEST PUSH2 0x49A JUMP JUMPDEST PUSH1 0x60 PUSH1 0x2 DUP1 SLOAD DUP1 PUSH1 0x20 MUL PUSH1 0x20 ADD PUSH1 0x40 MLOAD SWAP1 DUP2 ADD PUSH1 0x40 MSTORE DUP1 SWAP3 SWAP2 SWAP1 DUP2 DUP2 MSTORE PUSH1 0x20 ADD PUSH0 SWAP1 JUMPDEST DUP3 DUP3 LT ISZERO PUSH2 0x1F8 JUMPI DUP4 DUP3 SWAP1 PUSH0 MSTORE PUSH1 0x20 PUSH0 KECCAK256 ADD DUP1 SLOAD PUSH2 0x16D SWAP1 PUSH2 0x719 JUMP JUMPDEST DUP1 PUSH1 0x1F ADD PUSH1 0x20 DUP1 SWAP2 DIV MUL PUSH1 0x20 ADD PUSH1 0x40 MLOAD SWAP1 DUP2 ADD PUSH1 0x40 MSTORE DUP1 SWAP3 SWAP2 SWAP1 DUP2 DUP2 MSTORE PUSH1 0x20 ADD DUP3 DUP1 SLOAD PUSH2 0x199 SWAP1 PUSH2 0x719 JUMP JUMPDEST DUP1 ISZERO PUSH2 0x1E4 JUMPI DUP1 PUSH1 0x1F LT PUSH2 0x1BB JUMPI PUSH2 0x100 DUP1 DUP4 SLOAD DIV MUL DUP4 MSTORE SWAP2 PUSH1 0x20 ADD SWAP2 PUSH2 0x1E4 JUMP JUMPDEST DUP3 ADD SWAP2 SWAP1 PUSH0 MSTORE PUSH1 0x20 PUSH0 KECCAK256 SWAP1 JUMPDEST DUP2 SLOAD DUP2 MSTORE SWAP1 PUSH1 0x1 ADD SWAP1 PUSH1 0x20 ADD DUP1 DUP4 GT PUSH2 0x1C7 JUMPI DUP3 SWAP1 SUB PUSH1 0x1F AND DUP3 ADD SWAP2 JUMPDEST POP POP POP POP POP DUP2 MSTORE PUSH1 0x20 ADD SWAP1 PUSH1 0x1 ADD SWAP1 PUSH2 0x150 JUMP JUMPDEST POP POP POP POP SWAP1 POP SWAP1 JUMP JUMPDEST PUSH0 JUMPDEST PUSH1 0x2 SLOAD DUP2 LT ISZERO PUSH2 0x263 JUMPI CALLER PUSH0 SWAP1 DUP2 MSTORE PUSH1 0x1 PUSH1 0x20 MSTORE PUSH1 0x40 SWAP1 KECCAK256 PUSH1 0x2 DUP1 SLOAD DUP4 SWAP1 DUP2 LT PUSH2 0x22F JUMPI PUSH2 0x22F PUSH2 0x751 JUMP JUMPDEST SWAP1 PUSH0 MSTORE PUSH1 0x20 PUSH0 KECCAK256 ADD PUSH1 0x40 MLOAD PUSH2 0x244 SWAP2 SWAP1 PUSH2 0x765 JUMP JUMPDEST SWAP1 DUP2 MSTORE PUSH1 0x40 MLOAD SWAP1 DUP2 SWAP1 SUB PUSH1 0x20 ADD SWAP1 KECCAK256 DUP1 SLOAD PUSH1 0xFF NOT AND SWAP1 SSTORE PUSH1 0x1 ADD PUSH2 0x203 JUMP JUMPDEST POP JUMP JUMPDEST PUSH1 0x2 SLOAD PUSH1 0x60 SWAP1 PUSH0 SWAP1 PUSH8 0xFFFFFFFFFFFFFFFF DUP2 GT ISZERO PUSH2 0x286 JUMPI PUSH2 0x286 PUSH2 0x5BA JUMP JUMPDEST PUSH1 0x40 MLOAD SWAP1 DUP1 DUP3 MSTORE DUP1 PUSH1 0x20 MUL PUSH1 0x20 ADD DUP3 ADD PUSH1 0x40 MSTORE DUP1 ISZERO PUSH2 0x2B9 JUMPI DUP2 PUSH1 0x20 ADD JUMPDEST PUSH1 0x60 DUP2 MSTORE PUSH1 0x20 ADD SWAP1 PUSH1 0x1 SWAP1 SUB SWAP1 DUP2 PUSH2 0x2A4 JUMPI SWAP1 POP JUMPDEST POP SWAP1 POP PUSH0 DUP1 JUMPDEST PUSH1 0x2 SLOAD DUP2 LT ISZERO PUSH2 0x3F7 JUMPI PUSH1 0x1 PUSH1 0x1 PUSH1 0xA0 SHL SUB DUP6 AND PUSH0 SWAP1 DUP2 MSTORE PUSH1 0x1 PUSH1 0x20 MSTORE PUSH1 0x40 SWAP1 KECCAK256 PUSH1 0x2 DUP1 SLOAD DUP4 SWAP1 DUP2 LT PUSH2 0x2F4 JUMPI PUSH2 0x2F4 PUSH2 0x751 JUMP JUMPDEST SWAP1 PUSH0 MSTORE PUSH1 0x20 PUSH0 KECCAK256 ADD PUSH1 0x40 MLOAD PUSH2 0x309 SWAP2 SWAP1 PUSH2 0x765 JUMP JUMPDEST SWAP1 DUP2 MSTORE PUSH1 0x40 MLOAD SWAP1 DUP2 SWAP1 SUB PUSH1 0x20 ADD SWAP1 KECCAK256 SLOAD PUSH1 0xFF AND ISZERO PUSH2 0x3EF JUMPI PUSH1 0x2 DUP2 DUP2 SLOAD DUP2 LT PUSH2 0x334 JUMPI PUSH2 0x334 PUSH2 0x751 JUMP JUMPDEST SWAP1 PUSH0 MSTORE PUSH1 0x20 PUSH0 KECCAK256 ADD DUP1 SLOAD PUSH2 0x347 SWAP1 PUSH2 0x719 JUMP JUMPDEST DUP1 PUSH1 0x1F ADD PUSH1 0x20 DUP1 SWAP2 DIV MUL PUSH1 0x20 ADD PUSH1 0x40 MLOAD SWAP1 DUP2 ADD PUSH1 0x40 MSTORE DUP1 SWAP3 SWAP2 SWAP1 DUP2 DUP2 MSTORE PUSH1 0x20 ADD DUP3 DUP1 SLOAD PUSH2 0x373 SWAP1 PUSH2 0x719 JUMP JUMPDEST DUP1 ISZERO PUSH2 0x3BE JUMPI DUP1 PUSH1 0x1F LT PUSH2 0x395 JUMPI PUSH2 0x100 DUP1 DUP4 SLOAD DIV MUL DUP4 MSTORE SWAP2 PUSH1 0x20 ADD SWAP2 PUSH2 0x3BE JUMP JUMPDEST DUP3 ADD SWAP2 SWAP1 PUSH0 MSTORE PUSH1 0x20 PUSH0 KECCAK256 SWAP1 JUMPDEST DUP2 SLOAD DUP2 MSTORE SWAP1 PUSH1 0x1 ADD SWAP1 PUSH1 0x20 ADD DUP1 DUP4 GT PUSH2 0x3A1 JUMPI DUP3 SWAP1 SUB PUSH1 0x1F AND DUP3 ADD SWAP2 JUMPDEST POP POP POP POP POP DUP4 DUP4 DUP2 MLOAD DUP2 LT PUSH2 0x3D5 JUMPI PUSH2 0x3D5 PUSH2 0x751 JUMP JUMPDEST PUSH1 0x20 MUL PUSH1 0x20 ADD ADD DUP2 SWAP1 MSTORE POP DUP2 DUP1 PUSH2 0x3EB SWAP1 PUSH2 0x7FB JUMP JUMPDEST SWAP3 POP POP JUMPDEST PUSH1 0x1 ADD PUSH2 0x2BF JUMP JUMPDEST POP PUSH0 DUP2 PUSH8 0xFFFFFFFFFFFFFFFF DUP2 GT ISZERO PUSH2 0x412 JUMPI PUSH2 0x412 PUSH2 0x5BA JUMP JUMPDEST PUSH1 0x40 MLOAD SWAP1 DUP1 DUP3 MSTORE DUP1 PUSH1 0x20 MUL PUSH1 0x20 ADD DUP3 ADD PUSH1 0x40 MSTORE DUP1 ISZERO PUSH2 0x445 JUMPI DUP2 PUSH1 0x20 ADD JUMPDEST PUSH1 0x60 DUP2 MSTORE PUSH1 0x20 ADD SWAP1 PUSH1 0x1 SWAP1 SUB SWAP1 DUP2 PUSH2 0x430 JUMPI SWAP1 POP JUMPDEST POP SWAP1 POP PUSH0 JUMPDEST DUP3 DUP2 LT ISZERO PUSH2 0x491 JUMPI DUP4 DUP2 DUP2 MLOAD DUP2 LT PUSH2 0x464 JUMPI PUSH2 0x464 PUSH2 0x751 JUMP JUMPDEST PUSH1 0x20 MUL PUSH1 0x20 ADD ADD MLOAD DUP3 DUP3 DUP2 MLOAD DUP2 LT PUSH2 0x47E JUMPI PUSH2 0x47E PUSH2 0x751 JUMP JUMPDEST PUSH1 0x20 SWAP1 DUP2 MUL SWAP2 SWAP1 SWAP2 ADD ADD MSTORE PUSH1 0x1 ADD PUSH2 0x44A JUMP JUMPDEST POP SWAP5 SWAP4 POP POP POP POP JUMP JUMPDEST PUSH0 DUP2 PUSH1 0x40 MLOAD PUSH2 0x4A9 SWAP2 SWAP1 PUSH2 0x81F JUMP JUMPDEST SWAP1 DUP2 MSTORE PUSH1 0x40 MLOAD SWAP1 DUP2 SWAP1 SUB PUSH1 0x20 ADD SWAP1 KECCAK256 SLOAD PUSH1 0xFF AND PUSH2 0x4E4 JUMPI DUP1 PUSH1 0x40 MLOAD PUSH4 0x4F0FFC1B PUSH1 0xE0 SHL DUP2 MSTORE PUSH1 0x4 ADD PUSH2 0x4DB SWAP2 SWAP1 PUSH2 0x835 JUMP JUMPDEST PUSH1 0x40 MLOAD DUP1 SWAP2 SUB SWAP1 REVERT JUMPDEST CALLER PUSH0 SWAP1 DUP2 MSTORE PUSH1 0x1 PUSH1 0x20 DUP2 SWAP1 MSTORE PUSH1 0x40 SWAP2 DUP3 SWAP1 KECCAK256 SWAP2 MLOAD SWAP1 SWAP2 SWAP1 PUSH2 0x506 SWAP1 DUP5 SWAP1 PUSH2 0x81F JUMP JUMPDEST SWAP1 DUP2 MSTORE PUSH1 0x40 MLOAD SWAP1 DUP2 SWAP1 SUB PUSH1 0x20 ADD SWAP1 KECCAK256 DUP1 SLOAD SWAP2 ISZERO ISZERO PUSH1 0xFF NOT SWAP1 SWAP3 AND SWAP2 SWAP1 SWAP2 OR SWAP1 SSTORE POP JUMP JUMPDEST PUSH0 DUP2 MLOAD DUP1 DUP5 MSTORE DUP1 PUSH1 0x20 DUP5 ADD PUSH1 0x20 DUP7 ADD MCOPY PUSH0 PUSH1 0x20 DUP3 DUP7 ADD ADD MSTORE PUSH1 0x20 PUSH1 0x1F NOT PUSH1 0x1F DUP4 ADD AND DUP6 ADD ADD SWAP2 POP POP SWAP3 SWAP2 POP POP JUMP JUMPDEST PUSH0 PUSH1 0x20 DUP3 ADD PUSH1 0x20 DUP4 MSTORE DUP1 DUP5 MLOAD DUP1 DUP4 MSTORE PUSH1 0x40 DUP6 ADD SWAP2 POP PUSH1 0x40 DUP2 PUSH1 0x5 SHL DUP7 ADD ADD SWAP3 POP PUSH1 0x20 DUP7 ADD PUSH0 JUMPDEST DUP3 DUP2 LT ISZERO PUSH2 0x5AE JUMPI PUSH1 0x3F NOT DUP8 DUP7 SUB ADD DUP5 MSTORE PUSH2 0x599 DUP6 DUP4 MLOAD PUSH2 0x529 JUMP JUMPDEST SWAP5 POP PUSH1 0x20 SWAP4 DUP5 ADD SWAP4 SWAP2 SWAP1 SWAP2 ADD SWAP1 PUSH1 0x1 ADD PUSH2 0x57D JUMP JUMPDEST POP SWAP3 SWAP7 SWAP6 POP POP POP POP POP POP JUMP JUMPDEST PUSH4 0x4E487B71 PUSH1 0xE0 SHL PUSH0 MSTORE PUSH1 0x41 PUSH1 0x4 MSTORE PUSH1 0x24 PUSH0 REVERT JUMPDEST PUSH0 DUP3 PUSH1 0x1F DUP4 ADD SLT PUSH2 0x5DD JUMPI PUSH0 DUP1 REVERT JUMPDEST DUP2 CALLDATALOAD PUSH8 0xFFFFFFFFFFFFFFFF DUP2 GT ISZERO PUSH2 0x5F7 JUMPI PUSH2 0x5F7 PUSH2 0x5BA JUMP JUMPDEST PUSH1 0x40 MLOAD PUSH1 0x1F DUP3 ADD PUSH1 0x1F NOT SWAP1 DUP2 AND PUSH1 0x3F ADD AND DUP2 ADD PUSH8 0xFFFFFFFFFFFFFFFF DUP2 GT DUP3 DUP3 LT OR ISZERO PUSH2 0x626 JUMPI PUSH2 0x626 PUSH2 0x5BA JUMP JUMPDEST PUSH1 0x40 MSTORE DUP2 DUP2 MSTORE DUP4 DUP3 ADD PUSH1 0x20 ADD DUP6 LT ISZERO PUSH2 0x63D JUMPI PUSH0 DUP1 REVERT JUMPDEST DUP2 PUSH1 0x20 DUP6 ADD PUSH1 0x20 DUP4 ADD CALLDATACOPY PUSH0 SWAP2 DUP2 ADD PUSH1 0x20 ADD SWAP2 SWAP1 SWAP2 MSTORE SWAP4 SWAP3 POP POP POP JUMP JUMPDEST PUSH0 PUSH1 0x20 DUP3 DUP5 SUB SLT ISZERO PUSH2 0x669 JUMPI PUSH0 DUP1 REVERT JUMPDEST DUP2 CALLDATALOAD PUSH8 0xFFFFFFFFFFFFFFFF DUP2 GT ISZERO PUSH2 0x67F JUMPI PUSH0 DUP1 REVERT JUMPDEST PUSH2 0x68B DUP5 DUP3 DUP6 ADD PUSH2 0x5CE JUMP JUMPDEST SWAP5 SWAP4 POP POP POP POP JUMP JUMPDEST DUP1 CALLDATALOAD PUSH1 0x1 PUSH1 0x1 PUSH1 0xA0 SHL SUB DUP2 AND DUP2 EQ PUSH2 0x6A9 JUMPI PUSH0 DUP1 REVERT JUMPDEST SWAP2 SWAP1 POP JUMP JUMPDEST PUSH0 DUP1 PUSH1 0x40 DUP4 DUP6 SUB SLT ISZERO PUSH2 0x6BF JUMPI PUSH0 DUP1 REVERT JUMPDEST PUSH2 0x6C8 DUP4 PUSH2 0x693 JUMP JUMPDEST SWAP2 POP PUSH1 0x20 DUP4 ADD CALLDATALOAD PUSH8 0xFFFFFFFFFFFFFFFF DUP2 GT ISZERO PUSH2 0x6E3 JUMPI PUSH0 DUP1 REVERT JUMPDEST PUSH2 0x6EF DUP6 DUP3 DUP7 ADD PUSH2 0x5CE JUMP JUMPDEST SWAP2 POP POP SWAP3 POP SWAP3 SWAP1 POP JUMP JUMPDEST PUSH0 PUSH1 0x20 DUP3 DUP5 SUB SLT ISZERO PUSH2 0x709 JUMPI PUSH0 DUP1 REVERT JUMPDEST PUSH2 0x712 DUP3 PUSH2 0x693 JUMP JUMPDEST SWAP4 SWAP3 POP POP POP JUMP JUMPDEST PUSH1 0x1 DUP2 DUP2 SHR SWAP1 DUP3 AND DUP1 PUSH2 0x72D JUMPI PUSH1 0x7F DUP3 AND SWAP2 POP JUMPDEST PUSH1 0x20 DUP3 LT DUP2 SUB PUSH2 0x74B JUMPI PUSH4 0x4E487B71 PUSH1 0xE0 SHL PUSH0 MSTORE PUSH1 0x22 PUSH1 0x4 MSTORE PUSH1 0x24 PUSH0 REVERT JUMPDEST POP SWAP2 SWAP1 POP JUMP JUMPDEST PUSH4 0x4E487B71 PUSH1 0xE0 SHL PUSH0 MSTORE PUSH1 0x32 PUSH1 0x4 MSTORE PUSH1 0x24 PUSH0 REVERT JUMPDEST PUSH0 DUP1 DUP4 SLOAD PUSH0 DUP2 PUSH1 0x1 SHR SWAP1 POP PUSH1 0x1 DUP3 AND DUP1 PUSH2 0x780 JUMPI PUSH1 0x7F DUP3 AND SWAP2 POP JUMPDEST PUSH1 0x20 DUP3 LT DUP2 SUB PUSH2 0x79E JUMPI PUSH4 0x4E487B71 PUSH1 0xE0 SHL PUSH0 MSTORE PUSH1 0x22 PUSH1 0x4 MSTORE PUSH1 0x24 PUSH0 REVERT JUMPDEST DUP1 DUP1 ISZERO PUSH2 0x7B2 JUMPI PUSH1 0x1 DUP2 EQ PUSH2 0x7C7 JUMPI PUSH2 0x5AE JUMP JUMPDEST PUSH1 0xFF NOT DUP5 AND DUP8 MSTORE DUP3 ISZERO ISZERO DUP4 MUL DUP8 ADD SWAP5 POP PUSH2 0x5AE JUMP JUMPDEST PUSH0 DUP9 DUP2 MSTORE PUSH1 0x20 SWAP1 KECCAK256 PUSH0 JUMPDEST DUP5 DUP2 LT ISZERO PUSH2 0x7ED JUMPI DUP2 SLOAD DUP10 DUP3 ADD MSTORE PUSH1 0x1 SWAP1 SWAP2 ADD SWAP1 PUSH1 0x20 ADD PUSH2 0x7D1 JUMP JUMPDEST POP POP POP SWAP5 ADD SWAP6 SWAP5 POP POP POP POP POP JUMP JUMPDEST PUSH0 PUSH1 0x1 DUP3 ADD PUSH2 0x818 JUMPI PUSH4 0x4E487B71 PUSH1 0xE0 SHL PUSH0 MSTORE PUSH1 0x11 PUSH1 0x4 MSTORE PUSH1 0x24 PUSH0 REVERT JUMPDEST POP PUSH1 0x1 ADD SWAP1 JUMP JUMPDEST PUSH0 DUP3 MLOAD DUP1 PUSH1 0x20 DUP6 ADD DUP5 MCOPY PUSH0 SWAP3 ADD SWAP2 DUP3 MSTORE POP SWAP2 SWAP1 POP JUMP JUMPDEST PUSH1 0x20 DUP2 MSTORE PUSH0 PUSH2 0x712 PUSH1 0x20 DUP4 ADD DUP5 PUSH2 0x529 JUMP INVALID LOG2 PUSH5 0x6970667358 0x22 SLT KECCAK256 0xBF 0xE2 DUP11 0xF7 SWAP8 ORIGIN 0x27 KECCAK256 0xD8 0xDA 0xD1 CALLCODE CALLCODE LOG3 PUSH19 0xC1236DA34CB85B4595CC2A737C402465AA6473 PUSH16 0x6C634300081A00330000000000000000 "
				},
				"gasEstimates": {
					"creation": {
						"codeDepositCost": "434600",
						"executionCost": "infinite",
						"totalCost": "infinite"
					},
					"external": {
						"addRecord(string)": "infinite",
						"approvedRecords(string)": "infinite",
						"getApprovedRecords()": "infinite",
						"getUserFavorites(address)": "infinite",
						"resetUserFavorites()": "infinite",
						"userFavorites(address,string)": "infinite"
					}
				},
				"methodIdentifiers": {
					"addRecord(string)": "d81aa8c4",
					"approvedRecords(string)": "b374ac59",
					"getApprovedRecords()": "1cf0830b",
					"getUserFavorites(address)": "c7853148",
					"resetUserFavorites()": "837f8878",
					"userFavorites(address,string)": "c75c333c"
				}
			},
			"storageLayout": {
				"storage": [
					{
						"astId": 5,
						"contract": "contracts/sample.sol:FavoriteRecords",
						"label": "approvedRecords",
						"offset": 0,
						"slot": "0",
						"type": "t_mapping(t_string_memory_ptr,t_bool)"
					},
					{
						"astId": 11,
						"contract": "contracts/sample.sol:FavoriteRecords",
						"label": "userFavorites",
						"offset": 0,
						"slot": "1",
						"type": "t_mapping(t_address,t_mapping(t_string_memory_ptr,t_bool))"
					},
					{
						"astId": 14,
						"contract": "contracts/sample.sol:FavoriteRecords",
						"label": "approvedRecordList",
						"offset": 0,
						"slot": "2",
						"type": "t_array(t_string_storage)dyn_storage"
					}
				],
				"types": {
					"t_address": {
						"encoding": "inplace",
						"label": "address",
						"numberOfBytes": "20"
					},
					"t_array(t_string_storage)dyn_storage": {
						"base": "t_string_storage",
						"encoding": "dynamic_array",
						"label": "string[]",
						"numberOfBytes": "32"
					},
					"t_bool": {
						"encoding": "inplace",
						"label": "bool",
						"numberOfBytes": "1"
					},
					"t_mapping(t_address,t_mapping(t_string_memory_ptr,t_bool))": {
						"encoding": "mapping",
						"key": "t_address",
						"label": "mapping(address => mapping(string => bool))",
						"numberOfBytes": "32",
						"value": "t_mapping(t_string_memory_ptr,t_bool)"
					},
					"t_mapping(t_string_memory_ptr,t_bool)": {
						"encoding": "mapping",
						"key": "t_string_memory_ptr",
						"label": "mapping(string => bool)",
						"numberOfBytes": "32",
						"value": "t_bool"
					},
					"t_string_memory_ptr": {
						"encoding": "bytes",
						"label": "string",
						"numberOfBytes": "32"
					},
					"t_string_storage": {
						"encoding": "bytes",
						"label": "string",
						"numberOfBytes": "32"
					}
				}
			},
			"userdoc": {
				"kind": "user",
				"methods": {},
				"version": 1
			}
		}
	}
}