{
	"contracts/admin.sol": {
		"AdminBank": {
			"abi": [
				{
					"inputs": [],
					"stateMutability": "nonpayable",
					"type": "constructor"
				},
				{
					"inputs": [
						{
							"internalType": "address",
							"name": "_admin",
							"type": "address"
						}
					],
					"name": "AdminChange",
					"outputs": [],
					"stateMutability": "nonpayable",
					"type": "function"
				},
				{
					"inputs": [],
					"name": "CurrentAdmin",
					"outputs": [
						{
							"internalType": "address",
							"name": "",
							"type": "address"
						}
					],
					"stateMutability": "view",
					"type": "function"
				},
				{
					"inputs": [],
					"name": "EtherBalance",
					"outputs": [
						{
							"internalType": "uint256",
							"name": "",
							"type": "uint256"
						}
					],
					"stateMutability": "view",
					"type": "function"
				},
				{
					"inputs": [],
					"name": "EtherWiththdraw",
					"outputs": [],
					"stateMutability": "nonpayable",
					"type": "function"
				},
				{
					"inputs": [],
					"name": "USDC_Balance",
					"outputs": [
						{
							"internalType": "uint256",
							"name": "",
							"type": "uint256"
						}
					],
					"stateMutability": "view",
					"type": "function"
				},
				{
					"inputs": [],
					"name": "USDC_Transfer",
					"outputs": [],
					"stateMutability": "nonpayable",
					"type": "function"
				},
				{
					"stateMutability": "payable",
					"type": "receive"
				}
			],
			"devdoc": {
				"kind": "dev",
				"methods": {},
				"version": 1
			},
			"evm": {
				"assembly": "    /* \"contracts/admin.sol\":337:1737  contract AdminBank{... */\n  mstore(0x40, 0xa0)\n    /* \"contracts/admin.sol\":523:667  constructor(){... */\n  callvalue\n  dup1\n  iszero\n  tag_1\n  jumpi\n  0x00\n  dup1\n  revert\ntag_1:\n  pop\n    /* \"contracts/admin.sol\":554:596  0x70ca4a44A227645BB4815AE4d68098eA68aB926F */\n  0x70ca4a44a227645bb4815ae4d68098ea68ab926f\n    /* \"contracts/admin.sol\":546:551  admin */\n  0x00\n  dup1\n    /* \"contracts/admin.sol\":546:596  admin = 0x70ca4a44A227645BB4815AE4d68098eA68aB926F */\n  0x0100\n  exp\n  dup2\n  sload\n  dup2\n  0xffffffffffffffffffffffffffffffffffffffff\n  mul\n  not\n  and\n  swap1\n  dup4\n  0xffffffffffffffffffffffffffffffffffffffff\n  and\n  mul\n  or\n  swap1\n  sstore\n  pop\n    /* \"contracts/admin.sol\":618:660  0x1241676d45b1Cb5B573b6258C4A838e149A1D191 */\n  0x1241676d45b1cb5b573b6258c4a838e149a1d191\n    /* \"contracts/admin.sol\":606:660  MOCK_USDC = 0x1241676d45b1Cb5B573b6258C4A838e149A1D191 */\n  0xffffffffffffffffffffffffffffffffffffffff\n  and\n  0x80\n  dup2\n  0xffffffffffffffffffffffffffffffffffffffff\n  and\n  dup2\n  mstore\n  pop\n  pop\n    /* \"contracts/admin.sol\":337:1737  contract AdminBank{... */\n  mload(0x80)\n  codecopy(0x00, dataOffset(sub_0), dataSize(sub_0))\n  0x00\n  assignImmutable(\"0xed93c67e1a9b7f09d3b44ee593360f0073603a8e45415e2c3c69afc994a1103d\")\n  return(0x00, dataSize(sub_0))\nstop\n\nsub_0: assembly {\n        /* \"contracts/admin.sol\":337:1737  contract AdminBank{... */\n      mstore(0x40, 0x80)\n      jumpi(tag_1, lt(calldatasize, 0x04))\n      shr(0xe0, calldataload(0x00))\n      dup1\n      0x103f0ad9\n      eq\n      tag_3\n      jumpi\n      dup1\n      0x216ff22b\n      eq\n      tag_4\n      jumpi\n      dup1\n      0x397de728\n      eq\n      tag_5\n      jumpi\n      dup1\n      0x5971b5ff\n      eq\n      tag_6\n      jumpi\n      dup1\n      0x7af5a4c7\n      eq\n      tag_7\n      jumpi\n      dup1\n      0x9d265e75\n      eq\n      tag_8\n      jumpi\n      jump(tag_2)\n    tag_1:\n      jumpi(tag_2, calldatasize)\n      stop\n    tag_2:\n      0x00\n      dup1\n      revert\n        /* \"contracts/admin.sol\":1120:1294  function EtherWiththdraw() external onlyAdmin{... */\n    tag_3:\n      callvalue\n      dup1\n      iszero\n      tag_11\n      jumpi\n      0x00\n      dup1\n      revert\n    tag_11:\n      pop\n      tag_12\n      tag_13\n      jump\t// in\n    tag_12:\n      stop\n        /* \"contracts/admin.sol\":673:842  function USDC_Transfer() external onlyAdmin{... */\n    tag_4:\n      callvalue\n      dup1\n      iszero\n      tag_14\n      jumpi\n      0x00\n      dup1\n      revert\n    tag_14:\n      pop\n      tag_15\n      tag_16\n      jump\t// in\n    tag_15:\n      stop\n        /* \"contracts/admin.sol\":1459:1542  function CurrentAdmin() external view returns(address){... */\n    tag_5:\n      callvalue\n      dup1\n      iszero\n      tag_17\n      jumpi\n      0x00\n      dup1\n      revert\n    tag_17:\n      pop\n      tag_18\n      tag_19\n      jump\t// in\n    tag_18:\n      mload(0x40)\n      tag_20\n      swap2\n      swap1\n      tag_21\n      jump\t// in\n    tag_20:\n      mload(0x40)\n      dup1\n      swap2\n      sub\n      swap1\n      return\n        /* \"contracts/admin.sol\":848:965  function USDC_Balance() external view returns(uint){... */\n    tag_6:\n      callvalue\n      dup1\n      iszero\n      tag_22\n      jumpi\n      0x00\n      dup1\n      revert\n    tag_22:\n      pop\n      tag_23\n      tag_24\n      jump\t// in\n    tag_23:\n      mload(0x40)\n      tag_25\n      swap2\n      swap1\n      tag_26\n      jump\t// in\n    tag_25:\n      mload(0x40)\n      dup1\n      swap2\n      sub\n      swap1\n      return\n        /* \"contracts/admin.sol\":1018:1114  function EtherBalance() external view returns(uint){... */\n    tag_7:\n      callvalue\n      dup1\n      iszero\n      tag_27\n      jumpi\n      0x00\n      dup1\n      revert\n    tag_27:\n      pop\n      tag_28\n      tag_29\n      jump\t// in\n    tag_28:\n      mload(0x40)\n      tag_30\n      swap2\n      swap1\n      tag_26\n      jump\t// in\n    tag_30:\n      mload(0x40)\n      dup1\n      swap2\n      sub\n      swap1\n      return\n        /* \"contracts/admin.sol\":1300:1453  function AdminChange(address _admin) external onlyAdmin{... */\n    tag_8:\n      callvalue\n      dup1\n      iszero\n      tag_31\n      jumpi\n      0x00\n      dup1\n      revert\n    tag_31:\n      pop\n      tag_32\n      0x04\n      dup1\n      calldatasize\n      sub\n      dup2\n      add\n      swap1\n      tag_33\n      swap2\n      swap1\n      tag_34\n      jump\t// in\n    tag_33:\n      tag_35\n      jump\t// in\n    tag_32:\n      stop\n        /* \"contracts/admin.sol\":1120:1294  function EtherWiththdraw() external onlyAdmin{... */\n    tag_13:\n        /* \"contracts/admin.sol\":1637:1642  admin */\n      0x00\n      dup1\n      sload\n      swap1\n      0x0100\n      exp\n      swap1\n      div\n      0xffffffffffffffffffffffffffffffffffffffff\n      and\n        /* \"contracts/admin.sol\":1623:1642  msg.sender == admin */\n      0xffffffffffffffffffffffffffffffffffffffff\n      and\n        /* \"contracts/admin.sol\":1623:1633  msg.sender */\n      caller\n        /* \"contracts/admin.sol\":1623:1642  msg.sender == admin */\n      0xffffffffffffffffffffffffffffffffffffffff\n      and\n      eq\n        /* \"contracts/admin.sol\":1614:1665  require( msg.sender == admin , \"Admin Only Access\") */\n      tag_37\n      jumpi\n      mload(0x40)\n      0x08c379a000000000000000000000000000000000000000000000000000000000\n      dup2\n      mstore\n      0x04\n      add\n      tag_38\n      swap1\n      tag_39\n      jump\t// in\n    tag_38:\n      mload(0x40)\n      dup1\n      swap2\n      sub\n      swap1\n      revert\n    tag_37:\n        /* \"contracts/admin.sol\":1200:1201  0 */\n      0x00\n        /* \"contracts/admin.sol\":1183:1202  admin != address(0) */\n      0xffffffffffffffffffffffffffffffffffffffff\n      and\n        /* \"contracts/admin.sol\":1183:1188  admin */\n      0x00\n      dup1\n      sload\n      swap1\n      0x0100\n      exp\n      swap1\n      div\n      0xffffffffffffffffffffffffffffffffffffffff\n      and\n        /* \"contracts/admin.sol\":1183:1202  admin != address(0) */\n      0xffffffffffffffffffffffffffffffffffffffff\n      and\n      sub\n        /* \"contracts/admin.sol\":1175:1231  require(admin != address(0), \"Address Zero not allowed\") */\n      tag_41\n      jumpi\n      mload(0x40)\n      0x08c379a000000000000000000000000000000000000000000000000000000000\n      dup2\n      mstore\n      0x04\n      add\n      tag_42\n      swap1\n      tag_43\n      jump\t// in\n    tag_42:\n      mload(0x40)\n      dup1\n      swap2\n      sub\n      swap1\n      revert\n    tag_41:\n        /* \"contracts/admin.sol\":1249:1254  admin */\n      0x00\n      dup1\n      sload\n      swap1\n      0x0100\n      exp\n      swap1\n      div\n      0xffffffffffffffffffffffffffffffffffffffff\n      and\n        /* \"contracts/admin.sol\":1241:1264  payable(admin).transfer */\n      0xffffffffffffffffffffffffffffffffffffffff\n      and\n        /* \"contracts/admin.sol\":1241:1287  payable(admin).transfer(address(this).balance) */\n      0x08fc\n        /* \"contracts/admin.sol\":1265:1286  address(this).balance */\n      selfbalance\n        /* \"contracts/admin.sol\":1241:1287  payable(admin).transfer(address(this).balance) */\n      swap1\n      dup2\n      iszero\n      mul\n      swap1\n      mload(0x40)\n      0x00\n      mload(0x40)\n      dup1\n      dup4\n      sub\n      dup2\n      dup6\n      dup9\n      dup9\n      call\n      swap4\n      pop\n      pop\n      pop\n      pop\n      iszero\n      dup1\n      iszero\n      tag_45\n      jumpi\n      returndatasize\n      0x00\n      dup1\n      returndatacopy\n      revert(0x00, returndatasize)\n    tag_45:\n      pop\n        /* \"contracts/admin.sol\":1120:1294  function EtherWiththdraw() external onlyAdmin{... */\n      jump\t// out\n        /* \"contracts/admin.sol\":673:842  function USDC_Transfer() external onlyAdmin{... */\n    tag_16:\n        /* \"contracts/admin.sol\":1637:1642  admin */\n      0x00\n      dup1\n      sload\n      swap1\n      0x0100\n      exp\n      swap1\n      div\n      0xffffffffffffffffffffffffffffffffffffffff\n      and\n        /* \"contracts/admin.sol\":1623:1642  msg.sender == admin */\n      0xffffffffffffffffffffffffffffffffffffffff\n      and\n        /* \"contracts/admin.sol\":1623:1633  msg.sender */\n      caller\n        /* \"contracts/admin.sol\":1623:1642  msg.sender == admin */\n      0xffffffffffffffffffffffffffffffffffffffff\n      and\n      eq\n        /* \"contracts/admin.sol\":1614:1665  require( msg.sender == admin , \"Admin Only Access\") */\n      tag_47\n      jumpi\n      mload(0x40)\n      0x08c379a000000000000000000000000000000000000000000000000000000000\n      dup2\n      mstore\n      0x04\n      add\n      tag_48\n      swap1\n      tag_39\n      jump\t// in\n    tag_48:\n      mload(0x40)\n      dup1\n      swap2\n      sub\n      swap1\n      revert\n    tag_47:\n        /* \"contracts/admin.sol\":726:738  uint balance */\n      0x00\n        /* \"contracts/admin.sol\":748:757  MOCK_USDC */\n      immutable(\"0xed93c67e1a9b7f09d3b44ee593360f0073603a8e45415e2c3c69afc994a1103d\")\n        /* \"contracts/admin.sol\":741:768  IERC20(MOCK_USDC).balanceOf */\n      0xffffffffffffffffffffffffffffffffffffffff\n      and\n      0x70a08231\n        /* \"contracts/admin.sol\":777:781  this */\n      address\n        /* \"contracts/admin.sol\":741:783  IERC20(MOCK_USDC).balanceOf(address(this)) */\n      mload(0x40)\n      dup3\n      0xffffffff\n      and\n      0xe0\n      shl\n      dup2\n      mstore\n      0x04\n      add\n      tag_50\n      swap2\n      swap1\n      tag_21\n      jump\t// in\n    tag_50:\n      0x20\n      mload(0x40)\n      dup1\n      dup4\n      sub\n      dup2\n      dup7\n      gas\n      staticcall\n      iszero\n      dup1\n      iszero\n      tag_52\n      jumpi\n      returndatasize\n      0x00\n      dup1\n      returndatacopy\n      revert(0x00, returndatasize)\n    tag_52:\n      pop\n      pop\n      pop\n      pop\n      mload(0x40)\n      returndatasize\n      not(0x1f)\n      0x1f\n      dup3\n      add\n      and\n      dup3\n      add\n      dup1\n      0x40\n      mstore\n      pop\n      dup2\n      add\n      swap1\n      tag_53\n      swap2\n      swap1\n      tag_54\n      jump\t// in\n    tag_53:\n        /* \"contracts/admin.sol\":726:783  uint balance = IERC20(MOCK_USDC).balanceOf(address(this)) */\n      swap1\n      pop\n        /* \"contracts/admin.sol\":800:809  MOCK_USDC */\n      immutable(\"0xed93c67e1a9b7f09d3b44ee593360f0073603a8e45415e2c3c69afc994a1103d\")\n        /* \"contracts/admin.sol\":793:819  IERC20(MOCK_USDC).transfer */\n      0xffffffffffffffffffffffffffffffffffffffff\n      and\n      0xa9059cbb\n        /* \"contracts/admin.sol\":820:825  admin */\n      0x00\n      dup1\n      sload\n      swap1\n      0x0100\n      exp\n      swap1\n      div\n      0xffffffffffffffffffffffffffffffffffffffff\n      and\n        /* \"contracts/admin.sol\":827:834  balance */\n      dup4\n        /* \"contracts/admin.sol\":793:835  IERC20(MOCK_USDC).transfer(admin, balance) */\n      mload(0x40)\n      dup4\n      0xffffffff\n      and\n      0xe0\n      shl\n      dup2\n      mstore\n      0x04\n      add\n      tag_55\n      swap3\n      swap2\n      swap1\n      tag_56\n      jump\t// in\n    tag_55:\n      0x20\n      mload(0x40)\n      dup1\n      dup4\n      sub\n      dup2\n      0x00\n      dup8\n      gas\n      call\n      iszero\n      dup1\n      iszero\n      tag_58\n      jumpi\n      returndatasize\n      0x00\n      dup1\n      returndatacopy\n      revert(0x00, returndatasize)\n    tag_58:\n      pop\n      pop\n      pop\n      pop\n      mload(0x40)\n      returndatasize\n      not(0x1f)\n      0x1f\n      dup3\n      add\n      and\n      dup3\n      add\n      dup1\n      0x40\n      mstore\n      pop\n      dup2\n      add\n      swap1\n      tag_59\n      swap2\n      swap1\n      tag_60\n      jump\t// in\n    tag_59:\n      pop\n        /* \"contracts/admin.sol\":716:842  {... */\n      pop\n        /* \"contracts/admin.sol\":673:842  function USDC_Transfer() external onlyAdmin{... */\n      jump\t// out\n        /* \"contracts/admin.sol\":1459:1542  function CurrentAdmin() external view returns(address){... */\n    tag_19:\n        /* \"contracts/admin.sol\":1505:1512  address */\n      0x00\n        /* \"contracts/admin.sol\":1530:1535  admin */\n      dup1\n      0x00\n      swap1\n      sload\n      swap1\n      0x0100\n      exp\n      swap1\n      div\n      0xffffffffffffffffffffffffffffffffffffffff\n      and\n        /* \"contracts/admin.sol\":1523:1535  return admin */\n      swap1\n      pop\n        /* \"contracts/admin.sol\":1459:1542  function CurrentAdmin() external view returns(address){... */\n      swap1\n      jump\t// out\n        /* \"contracts/admin.sol\":848:965  function USDC_Balance() external view returns(uint){... */\n    tag_24:\n        /* \"contracts/admin.sol\":894:898  uint */\n      0x00\n        /* \"contracts/admin.sol\":923:932  MOCK_USDC */\n      immutable(\"0xed93c67e1a9b7f09d3b44ee593360f0073603a8e45415e2c3c69afc994a1103d\")\n        /* \"contracts/admin.sol\":916:943  IERC20(MOCK_USDC).balanceOf */\n      0xffffffffffffffffffffffffffffffffffffffff\n      and\n      0x70a08231\n        /* \"contracts/admin.sol\":952:956  this */\n      address\n        /* \"contracts/admin.sol\":916:958  IERC20(MOCK_USDC).balanceOf(address(this)) */\n      mload(0x40)\n      dup3\n      0xffffffff\n      and\n      0xe0\n      shl\n      dup2\n      mstore\n      0x04\n      add\n      tag_63\n      swap2\n      swap1\n      tag_21\n      jump\t// in\n    tag_63:\n      0x20\n      mload(0x40)\n      dup1\n      dup4\n      sub\n      dup2\n      dup7\n      gas\n      staticcall\n      iszero\n      dup1\n      iszero\n      tag_65\n      jumpi\n      returndatasize\n      0x00\n      dup1\n      returndatacopy\n      revert(0x00, returndatasize)\n    tag_65:\n      pop\n      pop\n      pop\n      pop\n      mload(0x40)\n      returndatasize\n      not(0x1f)\n      0x1f\n      dup3\n      add\n      and\n      dup3\n      add\n      dup1\n      0x40\n      mstore\n      pop\n      dup2\n      add\n      swap1\n      tag_66\n      swap2\n      swap1\n      tag_54\n      jump\t// in\n    tag_66:\n        /* \"contracts/admin.sol\":909:958  return IERC20(MOCK_USDC).balanceOf(address(this)) */\n      swap1\n      pop\n        /* \"contracts/admin.sol\":848:965  function USDC_Balance() external view returns(uint){... */\n      swap1\n      jump\t// out\n        /* \"contracts/admin.sol\":1018:1114  function EtherBalance() external view returns(uint){... */\n    tag_29:\n        /* \"contracts/admin.sol\":1064:1068  uint */\n      0x00\n        /* \"contracts/admin.sol\":1086:1107  address(this).balance */\n      selfbalance\n        /* \"contracts/admin.sol\":1079:1107  return address(this).balance */\n      swap1\n      pop\n        /* \"contracts/admin.sol\":1018:1114  function EtherBalance() external view returns(uint){... */\n      swap1\n      jump\t// out\n        /* \"contracts/admin.sol\":1300:1453  function AdminChange(address _admin) external onlyAdmin{... */\n    tag_35:\n        /* \"contracts/admin.sol\":1637:1642  admin */\n      0x00\n      dup1\n      sload\n      swap1\n      0x0100\n      exp\n      swap1\n      div\n      0xffffffffffffffffffffffffffffffffffffffff\n      and\n        /* \"contracts/admin.sol\":1623:1642  msg.sender == admin */\n      0xffffffffffffffffffffffffffffffffffffffff\n      and\n        /* \"contracts/admin.sol\":1623:1633  msg.sender */\n      caller\n        /* \"contracts/admin.sol\":1623:1642  msg.sender == admin */\n      0xffffffffffffffffffffffffffffffffffffffff\n      and\n      eq\n        /* \"contracts/admin.sol\":1614:1665  require( msg.sender == admin , \"Admin Only Access\") */\n      tag_69\n      jumpi\n      mload(0x40)\n      0x08c379a000000000000000000000000000000000000000000000000000000000\n      dup2\n      mstore\n      0x04\n      add\n      tag_70\n      swap1\n      tag_39\n      jump\t// in\n    tag_70:\n      mload(0x40)\n      dup1\n      swap2\n      sub\n      swap1\n      revert\n    tag_69:\n        /* \"contracts/admin.sol\":1391:1392  0 */\n      0x00\n        /* \"contracts/admin.sol\":1373:1393  _admin != address(0) */\n      0xffffffffffffffffffffffffffffffffffffffff\n      and\n        /* \"contracts/admin.sol\":1373:1379  _admin */\n      dup2\n        /* \"contracts/admin.sol\":1373:1393  _admin != address(0) */\n      0xffffffffffffffffffffffffffffffffffffffff\n      and\n      sub\n        /* \"contracts/admin.sol\":1365:1422  require(_admin != address(0), \"Address Zero not allowed\") */\n      tag_72\n      jumpi\n      mload(0x40)\n      0x08c379a000000000000000000000000000000000000000000000000000000000\n      dup2\n      mstore\n      0x04\n      add\n      tag_73\n      swap1\n      tag_43\n      jump\t// in\n    tag_73:\n      mload(0x40)\n      dup1\n      swap2\n      sub\n      swap1\n      revert\n    tag_72:\n        /* \"contracts/admin.sol\":1440:1446  _admin */\n      dup1\n        /* \"contracts/admin.sol\":1432:1437  admin */\n      0x00\n      dup1\n        /* \"contracts/admin.sol\":1432:1446  admin = _admin */\n      0x0100\n      exp\n      dup2\n      sload\n      dup2\n      0xffffffffffffffffffffffffffffffffffffffff\n      mul\n      not\n      and\n      swap1\n      dup4\n      0xffffffffffffffffffffffffffffffffffffffff\n      and\n      mul\n      or\n      swap1\n      sstore\n      pop\n        /* \"contracts/admin.sol\":1300:1453  function AdminChange(address _admin) external onlyAdmin{... */\n      pop\n      jump\t// out\n        /* \"#utility.yul\":7:133   */\n    tag_74:\n        /* \"#utility.yul\":44:51   */\n      0x00\n        /* \"#utility.yul\":84:126   */\n      0xffffffffffffffffffffffffffffffffffffffff\n        /* \"#utility.yul\":77:82   */\n      dup3\n        /* \"#utility.yul\":73:127   */\n      and\n        /* \"#utility.yul\":62:127   */\n      swap1\n      pop\n        /* \"#utility.yul\":7:133   */\n      swap2\n      swap1\n      pop\n      jump\t// out\n        /* \"#utility.yul\":139:235   */\n    tag_75:\n        /* \"#utility.yul\":176:183   */\n      0x00\n        /* \"#utility.yul\":205:229   */\n      tag_97\n        /* \"#utility.yul\":223:228   */\n      dup3\n        /* \"#utility.yul\":205:229   */\n      tag_74\n      jump\t// in\n    tag_97:\n        /* \"#utility.yul\":194:229   */\n      swap1\n      pop\n        /* \"#utility.yul\":139:235   */\n      swap2\n      swap1\n      pop\n      jump\t// out\n        /* \"#utility.yul\":241:359   */\n    tag_76:\n        /* \"#utility.yul\":328:352   */\n      tag_99\n        /* \"#utility.yul\":346:351   */\n      dup2\n        /* \"#utility.yul\":328:352   */\n      tag_75\n      jump\t// in\n    tag_99:\n        /* \"#utility.yul\":323:326   */\n      dup3\n        /* \"#utility.yul\":316:353   */\n      mstore\n        /* \"#utility.yul\":241:359   */\n      pop\n      pop\n      jump\t// out\n        /* \"#utility.yul\":365:587   */\n    tag_21:\n        /* \"#utility.yul\":458:462   */\n      0x00\n        /* \"#utility.yul\":496:498   */\n      0x20\n        /* \"#utility.yul\":485:494   */\n      dup3\n        /* \"#utility.yul\":481:499   */\n      add\n        /* \"#utility.yul\":473:499   */\n      swap1\n      pop\n        /* \"#utility.yul\":509:580   */\n      tag_101\n        /* \"#utility.yul\":577:578   */\n      0x00\n        /* \"#utility.yul\":566:575   */\n      dup4\n        /* \"#utility.yul\":562:579   */\n      add\n        /* \"#utility.yul\":553:559   */\n      dup5\n        /* \"#utility.yul\":509:580   */\n      tag_76\n      jump\t// in\n    tag_101:\n        /* \"#utility.yul\":365:587   */\n      swap3\n      swap2\n      pop\n      pop\n      jump\t// out\n        /* \"#utility.yul\":593:670   */\n    tag_77:\n        /* \"#utility.yul\":630:637   */\n      0x00\n        /* \"#utility.yul\":659:664   */\n      dup2\n        /* \"#utility.yul\":648:664   */\n      swap1\n      pop\n        /* \"#utility.yul\":593:670   */\n      swap2\n      swap1\n      pop\n      jump\t// out\n        /* \"#utility.yul\":676:794   */\n    tag_78:\n        /* \"#utility.yul\":763:787   */\n      tag_104\n        /* \"#utility.yul\":781:786   */\n      dup2\n        /* \"#utility.yul\":763:787   */\n      tag_77\n      jump\t// in\n    tag_104:\n        /* \"#utility.yul\":758:761   */\n      dup3\n        /* \"#utility.yul\":751:788   */\n      mstore\n        /* \"#utility.yul\":676:794   */\n      pop\n      pop\n      jump\t// out\n        /* \"#utility.yul\":800:1022   */\n    tag_26:\n        /* \"#utility.yul\":893:897   */\n      0x00\n        /* \"#utility.yul\":931:933   */\n      0x20\n        /* \"#utility.yul\":920:929   */\n      dup3\n        /* \"#utility.yul\":916:934   */\n      add\n        /* \"#utility.yul\":908:934   */\n      swap1\n      pop\n        /* \"#utility.yul\":944:1015   */\n      tag_106\n        /* \"#utility.yul\":1012:1013   */\n      0x00\n        /* \"#utility.yul\":1001:1010   */\n      dup4\n        /* \"#utility.yul\":997:1014   */\n      add\n        /* \"#utility.yul\":988:994   */\n      dup5\n        /* \"#utility.yul\":944:1015   */\n      tag_78\n      jump\t// in\n    tag_106:\n        /* \"#utility.yul\":800:1022   */\n      swap3\n      swap2\n      pop\n      pop\n      jump\t// out\n        /* \"#utility.yul\":1109:1226   */\n    tag_80:\n        /* \"#utility.yul\":1218:1219   */\n      0x00\n        /* \"#utility.yul\":1215:1216   */\n      dup1\n        /* \"#utility.yul\":1208:1220   */\n      revert\n        /* \"#utility.yul\":1355:1477   */\n    tag_82:\n        /* \"#utility.yul\":1428:1452   */\n      tag_111\n        /* \"#utility.yul\":1446:1451   */\n      dup2\n        /* \"#utility.yul\":1428:1452   */\n      tag_75\n      jump\t// in\n    tag_111:\n        /* \"#utility.yul\":1421:1426   */\n      dup2\n        /* \"#utility.yul\":1418:1453   */\n      eq\n        /* \"#utility.yul\":1408:1471   */\n      tag_112\n      jumpi\n        /* \"#utility.yul\":1467:1468   */\n      0x00\n        /* \"#utility.yul\":1464:1465   */\n      dup1\n        /* \"#utility.yul\":1457:1469   */\n      revert\n        /* \"#utility.yul\":1408:1471   */\n    tag_112:\n        /* \"#utility.yul\":1355:1477   */\n      pop\n      jump\t// out\n        /* \"#utility.yul\":1483:1622   */\n    tag_83:\n        /* \"#utility.yul\":1529:1534   */\n      0x00\n        /* \"#utility.yul\":1567:1573   */\n      dup2\n        /* \"#utility.yul\":1554:1574   */\n      calldataload\n        /* \"#utility.yul\":1545:1574   */\n      swap1\n      pop\n        /* \"#utility.yul\":1583:1616   */\n      tag_114\n        /* \"#utility.yul\":1610:1615   */\n      dup2\n        /* \"#utility.yul\":1583:1616   */\n      tag_82\n      jump\t// in\n    tag_114:\n        /* \"#utility.yul\":1483:1622   */\n      swap3\n      swap2\n      pop\n      pop\n      jump\t// out\n        /* \"#utility.yul\":1628:1957   */\n    tag_34:\n        /* \"#utility.yul\":1687:1693   */\n      0x00\n        /* \"#utility.yul\":1736:1738   */\n      0x20\n        /* \"#utility.yul\":1724:1733   */\n      dup3\n        /* \"#utility.yul\":1715:1722   */\n      dup5\n        /* \"#utility.yul\":1711:1734   */\n      sub\n        /* \"#utility.yul\":1707:1739   */\n      slt\n        /* \"#utility.yul\":1704:1823   */\n      iszero\n      tag_116\n      jumpi\n        /* \"#utility.yul\":1742:1821   */\n      tag_117\n      tag_80\n      jump\t// in\n    tag_117:\n        /* \"#utility.yul\":1704:1823   */\n    tag_116:\n        /* \"#utility.yul\":1862:1863   */\n      0x00\n        /* \"#utility.yul\":1887:1940   */\n      tag_118\n        /* \"#utility.yul\":1932:1939   */\n      dup5\n        /* \"#utility.yul\":1923:1929   */\n      dup3\n        /* \"#utility.yul\":1912:1921   */\n      dup6\n        /* \"#utility.yul\":1908:1930   */\n      add\n        /* \"#utility.yul\":1887:1940   */\n      tag_83\n      jump\t// in\n    tag_118:\n        /* \"#utility.yul\":1877:1940   */\n      swap2\n      pop\n        /* \"#utility.yul\":1833:1950   */\n      pop\n        /* \"#utility.yul\":1628:1957   */\n      swap3\n      swap2\n      pop\n      pop\n      jump\t// out\n        /* \"#utility.yul\":1963:2132   */\n    tag_84:\n        /* \"#utility.yul\":2047:2058   */\n      0x00\n        /* \"#utility.yul\":2081:2087   */\n      dup3\n        /* \"#utility.yul\":2076:2079   */\n      dup3\n        /* \"#utility.yul\":2069:2088   */\n      mstore\n        /* \"#utility.yul\":2121:2125   */\n      0x20\n        /* \"#utility.yul\":2116:2119   */\n      dup3\n        /* \"#utility.yul\":2112:2126   */\n      add\n        /* \"#utility.yul\":2097:2126   */\n      swap1\n      pop\n        /* \"#utility.yul\":1963:2132   */\n      swap3\n      swap2\n      pop\n      pop\n      jump\t// out\n        /* \"#utility.yul\":2138:2305   */\n    tag_85:\n        /* \"#utility.yul\":2278:2297   */\n      0x41646d696e204f6e6c7920416363657373000000000000000000000000000000\n        /* \"#utility.yul\":2274:2275   */\n      0x00\n        /* \"#utility.yul\":2266:2272   */\n      dup3\n        /* \"#utility.yul\":2262:2276   */\n      add\n        /* \"#utility.yul\":2255:2298   */\n      mstore\n        /* \"#utility.yul\":2138:2305   */\n      pop\n      jump\t// out\n        /* \"#utility.yul\":2311:2677   */\n    tag_86:\n        /* \"#utility.yul\":2453:2456   */\n      0x00\n        /* \"#utility.yul\":2474:2541   */\n      tag_122\n        /* \"#utility.yul\":2538:2540   */\n      0x11\n        /* \"#utility.yul\":2533:2536   */\n      dup4\n        /* \"#utility.yul\":2474:2541   */\n      tag_84\n      jump\t// in\n    tag_122:\n        /* \"#utility.yul\":2467:2541   */\n      swap2\n      pop\n        /* \"#utility.yul\":2550:2643   */\n      tag_123\n        /* \"#utility.yul\":2639:2642   */\n      dup3\n        /* \"#utility.yul\":2550:2643   */\n      tag_85\n      jump\t// in\n    tag_123:\n        /* \"#utility.yul\":2668:2670   */\n      0x20\n        /* \"#utility.yul\":2663:2666   */\n      dup3\n        /* \"#utility.yul\":2659:2671   */\n      add\n        /* \"#utility.yul\":2652:2671   */\n      swap1\n      pop\n        /* \"#utility.yul\":2311:2677   */\n      swap2\n      swap1\n      pop\n      jump\t// out\n        /* \"#utility.yul\":2683:3102   */\n    tag_39:\n        /* \"#utility.yul\":2849:2853   */\n      0x00\n        /* \"#utility.yul\":2887:2889   */\n      0x20\n        /* \"#utility.yul\":2876:2885   */\n      dup3\n        /* \"#utility.yul\":2872:2890   */\n      add\n        /* \"#utility.yul\":2864:2890   */\n      swap1\n      pop\n        /* \"#utility.yul\":2936:2945   */\n      dup2\n        /* \"#utility.yul\":2930:2934   */\n      dup2\n        /* \"#utility.yul\":2926:2946   */\n      sub\n        /* \"#utility.yul\":2922:2923   */\n      0x00\n        /* \"#utility.yul\":2911:2920   */\n      dup4\n        /* \"#utility.yul\":2907:2924   */\n      add\n        /* \"#utility.yul\":2900:2947   */\n      mstore\n        /* \"#utility.yul\":2964:3095   */\n      tag_125\n        /* \"#utility.yul\":3090:3094   */\n      dup2\n        /* \"#utility.yul\":2964:3095   */\n      tag_86\n      jump\t// in\n    tag_125:\n        /* \"#utility.yul\":2956:3095   */\n      swap1\n      pop\n        /* \"#utility.yul\":2683:3102   */\n      swap2\n      swap1\n      pop\n      jump\t// out\n        /* \"#utility.yul\":3108:3282   */\n    tag_87:\n        /* \"#utility.yul\":3248:3274   */\n      0x41646472657373205a65726f206e6f7420616c6c6f7765640000000000000000\n        /* \"#utility.yul\":3244:3245   */\n      0x00\n        /* \"#utility.yul\":3236:3242   */\n      dup3\n        /* \"#utility.yul\":3232:3246   */\n      add\n        /* \"#utility.yul\":3225:3275   */\n      mstore\n        /* \"#utility.yul\":3108:3282   */\n      pop\n      jump\t// out\n        /* \"#utility.yul\":3288:3654   */\n    tag_88:\n        /* \"#utility.yul\":3430:3433   */\n      0x00\n        /* \"#utility.yul\":3451:3518   */\n      tag_128\n        /* \"#utility.yul\":3515:3517   */\n      0x18\n        /* \"#utility.yul\":3510:3513   */\n      dup4\n        /* \"#utility.yul\":3451:3518   */\n      tag_84\n      jump\t// in\n    tag_128:\n        /* \"#utility.yul\":3444:3518   */\n      swap2\n      pop\n        /* \"#utility.yul\":3527:3620   */\n      tag_129\n        /* \"#utility.yul\":3616:3619   */\n      dup3\n        /* \"#utility.yul\":3527:3620   */\n      tag_87\n      jump\t// in\n    tag_129:\n        /* \"#utility.yul\":3645:3647   */\n      0x20\n        /* \"#utility.yul\":3640:3643   */\n      dup3\n        /* \"#utility.yul\":3636:3648   */\n      add\n        /* \"#utility.yul\":3629:3648   */\n      swap1\n      pop\n        /* \"#utility.yul\":3288:3654   */\n      swap2\n      swap1\n      pop\n      jump\t// out\n        /* \"#utility.yul\":3660:4079   */\n    tag_43:\n        /* \"#utility.yul\":3826:3830   */\n      0x00\n        /* \"#utility.yul\":3864:3866   */\n      0x20\n        /* \"#utility.yul\":3853:3862   */\n      dup3\n        /* \"#utility.yul\":3849:3867   */\n      add\n        /* \"#utility.yul\":3841:3867   */\n      swap1\n      pop\n        /* \"#utility.yul\":3913:3922   */\n      dup2\n        /* \"#utility.yul\":3907:3911   */\n      dup2\n        /* \"#utility.yul\":3903:3923   */\n      sub\n        /* \"#utility.yul\":3899:3900   */\n      0x00\n        /* \"#utility.yul\":3888:3897   */\n      dup4\n        /* \"#utility.yul\":3884:3901   */\n      add\n        /* \"#utility.yul\":3877:3924   */\n      mstore\n        /* \"#utility.yul\":3941:4072   */\n      tag_131\n        /* \"#utility.yul\":4067:4071   */\n      dup2\n        /* \"#utility.yul\":3941:4072   */\n      tag_88\n      jump\t// in\n    tag_131:\n        /* \"#utility.yul\":3933:4072   */\n      swap1\n      pop\n        /* \"#utility.yul\":3660:4079   */\n      swap2\n      swap1\n      pop\n      jump\t// out\n        /* \"#utility.yul\":4085:4207   */\n    tag_89:\n        /* \"#utility.yul\":4158:4182   */\n      tag_133\n        /* \"#utility.yul\":4176:4181   */\n      dup2\n        /* \"#utility.yul\":4158:4182   */\n      tag_77\n      jump\t// in\n    tag_133:\n        /* \"#utility.yul\":4151:4156   */\n      dup2\n        /* \"#utility.yul\":4148:4183   */\n      eq\n        /* \"#utility.yul\":4138:4201   */\n      tag_134\n      jumpi\n        /* \"#utility.yul\":4197:4198   */\n      0x00\n        /* \"#utility.yul\":4194:4195   */\n      dup1\n        /* \"#utility.yul\":4187:4199   */\n      revert\n        /* \"#utility.yul\":4138:4201   */\n    tag_134:\n        /* \"#utility.yul\":4085:4207   */\n      pop\n      jump\t// out\n        /* \"#utility.yul\":4213:4356   */\n    tag_90:\n        /* \"#utility.yul\":4270:4275   */\n      0x00\n        /* \"#utility.yul\":4301:4307   */\n      dup2\n        /* \"#utility.yul\":4295:4308   */\n      mload\n        /* \"#utility.yul\":4286:4308   */\n      swap1\n      pop\n        /* \"#utility.yul\":4317:4350   */\n      tag_136\n        /* \"#utility.yul\":4344:4349   */\n      dup2\n        /* \"#utility.yul\":4317:4350   */\n      tag_89\n      jump\t// in\n    tag_136:\n        /* \"#utility.yul\":4213:4356   */\n      swap3\n      swap2\n      pop\n      pop\n      jump\t// out\n        /* \"#utility.yul\":4362:4713   */\n    tag_54:\n        /* \"#utility.yul\":4432:4438   */\n      0x00\n        /* \"#utility.yul\":4481:4483   */\n      0x20\n        /* \"#utility.yul\":4469:4478   */\n      dup3\n        /* \"#utility.yul\":4460:4467   */\n      dup5\n        /* \"#utility.yul\":4456:4479   */\n      sub\n        /* \"#utility.yul\":4452:4484   */\n      slt\n        /* \"#utility.yul\":4449:4568   */\n      iszero\n      tag_138\n      jumpi\n        /* \"#utility.yul\":4487:4566   */\n      tag_139\n      tag_80\n      jump\t// in\n    tag_139:\n        /* \"#utility.yul\":4449:4568   */\n    tag_138:\n        /* \"#utility.yul\":4607:4608   */\n      0x00\n        /* \"#utility.yul\":4632:4696   */\n      tag_140\n        /* \"#utility.yul\":4688:4695   */\n      dup5\n        /* \"#utility.yul\":4679:4685   */\n      dup3\n        /* \"#utility.yul\":4668:4677   */\n      dup6\n        /* \"#utility.yul\":4664:4686   */\n      add\n        /* \"#utility.yul\":4632:4696   */\n      tag_90\n      jump\t// in\n    tag_140:\n        /* \"#utility.yul\":4622:4696   */\n      swap2\n      pop\n        /* \"#utility.yul\":4578:4706   */\n      pop\n        /* \"#utility.yul\":4362:4713   */\n      swap3\n      swap2\n      pop\n      pop\n      jump\t// out\n        /* \"#utility.yul\":4719:5051   */\n    tag_56:\n        /* \"#utility.yul\":4840:4844   */\n      0x00\n        /* \"#utility.yul\":4878:4880   */\n      0x40\n        /* \"#utility.yul\":4867:4876   */\n      dup3\n        /* \"#utility.yul\":4863:4881   */\n      add\n        /* \"#utility.yul\":4855:4881   */\n      swap1\n      pop\n        /* \"#utility.yul\":4891:4962   */\n      tag_142\n        /* \"#utility.yul\":4959:4960   */\n      0x00\n        /* \"#utility.yul\":4948:4957   */\n      dup4\n        /* \"#utility.yul\":4944:4961   */\n      add\n        /* \"#utility.yul\":4935:4941   */\n      dup6\n        /* \"#utility.yul\":4891:4962   */\n      tag_76\n      jump\t// in\n    tag_142:\n        /* \"#utility.yul\":4972:5044   */\n      tag_143\n        /* \"#utility.yul\":5040:5042   */\n      0x20\n        /* \"#utility.yul\":5029:5038   */\n      dup4\n        /* \"#utility.yul\":5025:5043   */\n      add\n        /* \"#utility.yul\":5016:5022   */\n      dup5\n        /* \"#utility.yul\":4972:5044   */\n      tag_78\n      jump\t// in\n    tag_143:\n        /* \"#utility.yul\":4719:5051   */\n      swap4\n      swap3\n      pop\n      pop\n      pop\n      jump\t// out\n        /* \"#utility.yul\":5057:5147   */\n    tag_91:\n        /* \"#utility.yul\":5091:5098   */\n      0x00\n        /* \"#utility.yul\":5134:5139   */\n      dup2\n        /* \"#utility.yul\":5127:5140   */\n      iszero\n        /* \"#utility.yul\":5120:5141   */\n      iszero\n        /* \"#utility.yul\":5109:5141   */\n      swap1\n      pop\n        /* \"#utility.yul\":5057:5147   */\n      swap2\n      swap1\n      pop\n      jump\t// out\n        /* \"#utility.yul\":5153:5269   */\n    tag_92:\n        /* \"#utility.yul\":5223:5244   */\n      tag_146\n        /* \"#utility.yul\":5238:5243   */\n      dup2\n        /* \"#utility.yul\":5223:5244   */\n      tag_91\n      jump\t// in\n    tag_146:\n        /* \"#utility.yul\":5216:5221   */\n      dup2\n        /* \"#utility.yul\":5213:5245   */\n      eq\n        /* \"#utility.yul\":5203:5263   */\n      tag_147\n      jumpi\n        /* \"#utility.yul\":5259:5260   */\n      0x00\n        /* \"#utility.yul\":5256:5257   */\n      dup1\n        /* \"#utility.yul\":5249:5261   */\n      revert\n        /* \"#utility.yul\":5203:5263   */\n    tag_147:\n        /* \"#utility.yul\":5153:5269   */\n      pop\n      jump\t// out\n        /* \"#utility.yul\":5275:5412   */\n    tag_93:\n        /* \"#utility.yul\":5329:5334   */\n      0x00\n        /* \"#utility.yul\":5360:5366   */\n      dup2\n        /* \"#utility.yul\":5354:5367   */\n      mload\n        /* \"#utility.yul\":5345:5367   */\n      swap1\n      pop\n        /* \"#utility.yul\":5376:5406   */\n      tag_149\n        /* \"#utility.yul\":5400:5405   */\n      dup2\n        /* \"#utility.yul\":5376:5406   */\n      tag_92\n      jump\t// in\n    tag_149:\n        /* \"#utility.yul\":5275:5412   */\n      swap3\n      swap2\n      pop\n      pop\n      jump\t// out\n        /* \"#utility.yul\":5418:5763   */\n    tag_60:\n        /* \"#utility.yul\":5485:5491   */\n      0x00\n        /* \"#utility.yul\":5534:5536   */\n      0x20\n        /* \"#utility.yul\":5522:5531   */\n      dup3\n        /* \"#utility.yul\":5513:5520   */\n      dup5\n        /* \"#utility.yul\":5509:5532   */\n      sub\n        /* \"#utility.yul\":5505:5537   */\n      slt\n        /* \"#utility.yul\":5502:5621   */\n      iszero\n      tag_151\n      jumpi\n        /* \"#utility.yul\":5540:5619   */\n      tag_152\n      tag_80\n      jump\t// in\n    tag_152:\n        /* \"#utility.yul\":5502:5621   */\n    tag_151:\n        /* \"#utility.yul\":5660:5661   */\n      0x00\n        /* \"#utility.yul\":5685:5746   */\n      tag_153\n        /* \"#utility.yul\":5738:5745   */\n      dup5\n        /* \"#utility.yul\":5729:5735   */\n      dup3\n        /* \"#utility.yul\":5718:5727   */\n      dup6\n        /* \"#utility.yul\":5714:5736   */\n      add\n        /* \"#utility.yul\":5685:5746   */\n      tag_93\n      jump\t// in\n    tag_153:\n        /* \"#utility.yul\":5675:5746   */\n      swap2\n      pop\n        /* \"#utility.yul\":5631:5756   */\n      pop\n        /* \"#utility.yul\":5418:5763   */\n      swap3\n      swap2\n      pop\n      pop\n      jump\t// out\n\n    auxdata: 0xa26469706673582212207f0718b57f0091fefcad5dcdd23fbd1454f252c3f06f928a4bd785e445b23dbf64736f6c634300081a0033\n}\n",
				"bytecode": {
					"linkReferences": {},
					"object": "60a0604052348015600e575f80fd5b507370ca4a44a227645bb4815ae4d68098ea68ab926f5f806101000a81548173ffffffffffffffffffffffffffffffffffffffff021916908373ffffffffffffffffffffffffffffffffffffffff160217905550731241676d45b1cb5b573b6258c4a838e149a1d19173ffffffffffffffffffffffffffffffffffffffff1660808173ffffffffffffffffffffffffffffffffffffffff16815250506080516109776100d05f395f8181610344015281816103de01526104c401526109775ff3fe608060405260043610610058575f3560e01c8063103f0ad914610063578063216ff22b14610079578063397de7281461008f5780635971b5ff146100b95780637af5a4c7146100e35780639d265e751461010d5761005f565b3661005f57005b5f80fd5b34801561006e575f80fd5b50610077610135565b005b348015610084575f80fd5b5061008d6102b4565b005b34801561009a575f80fd5b506100a361049a565b6040516100b091906106e2565b60405180910390f35b3480156100c4575f80fd5b506100cd6104c1565b6040516100da9190610713565b60405180910390f35b3480156100ee575f80fd5b506100f761055f565b6040516101049190610713565b60405180910390f35b348015610118575f80fd5b50610133600480360381019061012e919061075a565b610566565b005b5f8054906101000a900473ffffffffffffffffffffffffffffffffffffffff1673ffffffffffffffffffffffffffffffffffffffff163373ffffffffffffffffffffffffffffffffffffffff16146101c2576040517f08c379a00000000000000000000000000000000000000000000000000000000081526004016101b9906107df565b60405180910390fd5b5f73ffffffffffffffffffffffffffffffffffffffff165f8054906101000a900473ffffffffffffffffffffffffffffffffffffffff1673ffffffffffffffffffffffffffffffffffffffff160361024f576040517f08c379a000000000000000000000000000000000000000000000000000000000815260040161024690610847565b60405180910390fd5b5f8054906101000a900473ffffffffffffffffffffffffffffffffffffffff1673ffffffffffffffffffffffffffffffffffffffff166108fc4790811502906040515f60405180830381858888f193505050501580156102b1573d5f803e3d5ffd5b50565b5f8054906101000a900473ffffffffffffffffffffffffffffffffffffffff1673ffffffffffffffffffffffffffffffffffffffff163373ffffffffffffffffffffffffffffffffffffffff1614610341576040517f08c379a0000000000000000000000000000000000000000000000000000000008152600401610338906107df565b60405180910390fd5b5f7f000000000000000000000000000000000000000000000000000000000000000073ffffffffffffffffffffffffffffffffffffffff166370a08231306040518263ffffffff1660e01b815260040161039b91906106e2565b602060405180830381865afa1580156103b6573d5f803e3d5ffd5b505050506040513d601f19601f820116820180604052508101906103da919061088f565b90507f000000000000000000000000000000000000000000000000000000000000000073ffffffffffffffffffffffffffffffffffffffff1663a9059cbb5f8054906101000a900473ffffffffffffffffffffffffffffffffffffffff16836040518363ffffffff1660e01b81526004016104569291906108ba565b6020604051808303815f875af1158015610472573d5f803e3d5ffd5b505050506040513d601f19601f820116820180604052508101906104969190610916565b5050565b5f805f9054906101000a900473ffffffffffffffffffffffffffffffffffffffff16905090565b5f7f000000000000000000000000000000000000000000000000000000000000000073ffffffffffffffffffffffffffffffffffffffff166370a08231306040518263ffffffff1660e01b815260040161051b91906106e2565b602060405180830381865afa158015610536573d5f803e3d5ffd5b505050506040513d601f19601f8201168201806040525081019061055a919061088f565b905090565b5f47905090565b5f8054906101000a900473ffffffffffffffffffffffffffffffffffffffff1673ffffffffffffffffffffffffffffffffffffffff163373ffffffffffffffffffffffffffffffffffffffff16146105f3576040517f08c379a00000000000000000000000000000000000000000000000000000000081526004016105ea906107df565b60405180910390fd5b5f73ffffffffffffffffffffffffffffffffffffffff168173ffffffffffffffffffffffffffffffffffffffff1603610661576040517f08c379a000000000000000000000000000000000000000000000000000000000815260040161065890610847565b60405180910390fd5b805f806101000a81548173ffffffffffffffffffffffffffffffffffffffff021916908373ffffffffffffffffffffffffffffffffffffffff16021790555050565b5f73ffffffffffffffffffffffffffffffffffffffff82169050919050565b5f6106cc826106a3565b9050919050565b6106dc816106c2565b82525050565b5f6020820190506106f55f8301846106d3565b92915050565b5f819050919050565b61070d816106fb565b82525050565b5f6020820190506107265f830184610704565b92915050565b5f80fd5b610739816106c2565b8114610743575f80fd5b50565b5f8135905061075481610730565b92915050565b5f6020828403121561076f5761076e61072c565b5b5f61077c84828501610746565b91505092915050565b5f82825260208201905092915050565b7f41646d696e204f6e6c79204163636573730000000000000000000000000000005f82015250565b5f6107c9601183610785565b91506107d482610795565b602082019050919050565b5f6020820190508181035f8301526107f6816107bd565b9050919050565b7f41646472657373205a65726f206e6f7420616c6c6f77656400000000000000005f82015250565b5f610831601883610785565b915061083c826107fd565b602082019050919050565b5f6020820190508181035f83015261085e81610825565b9050919050565b61086e816106fb565b8114610878575f80fd5b50565b5f8151905061088981610865565b92915050565b5f602082840312156108a4576108a361072c565b5b5f6108b18482850161087b565b91505092915050565b5f6040820190506108cd5f8301856106d3565b6108da6020830184610704565b9392505050565b5f8115159050919050565b6108f5816108e1565b81146108ff575f80fd5b50565b5f81519050610910816108ec565b92915050565b5f6020828403121561092b5761092a61072c565b5b5f61093884828501610902565b9150509291505056fea26469706673582212207f0718b57f0091fefcad5dcdd23fbd1454f252c3f06f928a4bd785e445b23dbf64736f6c634300081a0033",
					"opcodes": "PUSH1 0xA0 PUSH1 0x40 MSTORE CALLVALUE DUP1 ISZERO PUSH1 0xE JUMPI PUSH0 DUP1 REVERT JUMPDEST POP PUSH20 0x70CA4A44A227645BB4815AE4D68098EA68AB926F PUSH0 DUP1 PUSH2 0x100 EXP DUP2 SLOAD DUP2 PUSH20 0xFFFFFFFFFFFFFFFFFFFFFFFFFFFFFFFFFFFFFFFF MUL NOT AND SWAP1 DUP4 PUSH20 0xFFFFFFFFFFFFFFFFFFFFFFFFFFFFFFFFFFFFFFFF AND MUL OR SWAP1 SSTORE POP PUSH20 0x1241676D45B1CB5B573B6258C4A838E149A1D191 PUSH20 0xFFFFFFFFFFFFFFFFFFFFFFFFFFFFFFFFFFFFFFFF AND PUSH1 0x80 DUP2 PUSH20 0xFFFFFFFFFFFFFFFFFFFFFFFFFFFFFFFFFFFFFFFF AND DUP2 MSTORE POP POP PUSH1 0x80 MLOAD PUSH2 0x977 PUSH2 0xD0 PUSH0 CODECOPY PUSH0 DUP2 DUP2 PUSH2 0x344 ADD MSTORE DUP2 DUP2 PUSH2 0x3DE ADD MSTORE PUSH2 0x4C4 ADD MSTORE PUSH2 0x977 PUSH0 RETURN INVALID PUSH1 0x80 PUSH1 0x40 MSTORE PUSH1 0x4 CALLDATASIZE LT PUSH2 0x58 JUMPI PUSH0 CALLDATALOAD PUSH1 0xE0 SHR DUP1 PUSH4 0x103F0AD9 EQ PUSH2 0x63 JUMPI DUP1 PUSH4 0x216FF22B EQ PUSH2 0x79 JUMPI DUP1 PUSH4 0x397DE728 EQ PUSH2 0x8F JUMPI DUP1 PUSH4 0x5971B5FF EQ PUSH2 0xB9 JUMPI DUP1 PUSH4 0x7AF5A4C7 EQ PUSH2 0xE3 JUMPI DUP1 PUSH4 0x9D265E75 EQ PUSH2 0x10D JUMPI PUSH2 0x5F JUMP JUMPDEST CALLDATASIZE PUSH2 0x5F JUMPI STOP JUMPDEST PUSH0 DUP1 REVERT JUMPDEST CALLVALUE DUP1 ISZERO PUSH2 0x6E JUMPI PUSH0 DUP1 REVERT JUMPDEST POP PUSH2 0x77 PUSH2 0x135 JUMP JUMPDEST STOP JUMPDEST CALLVALUE DUP1 ISZERO PUSH2 0x84 JUMPI PUSH0 DUP1 REVERT JUMPDEST POP PUSH2 0x8D PUSH2 0x2B4 JUMP JUMPDEST STOP JUMPDEST CALLVALUE DUP1 ISZERO PUSH2 0x9A JUMPI PUSH0 DUP1 REVERT JUMPDEST POP PUSH2 0xA3 PUSH2 0x49A JUMP JUMPDEST PUSH1 0x40 MLOAD PUSH2 0xB0 SWAP2 SWAP1 PUSH2 0x6E2 JUMP JUMPDEST PUSH1 0x40 MLOAD DUP1 SWAP2 SUB SWAP1 RETURN JUMPDEST CALLVALUE DUP1 ISZERO PUSH2 0xC4 JUMPI PUSH0 DUP1 REVERT JUMPDEST POP PUSH2 0xCD PUSH2 0x4C1 JUMP JUMPDEST PUSH1 0x40 MLOAD PUSH2 0xDA SWAP2 SWAP1 PUSH2 0x713 JUMP JUMPDEST PUSH1 0x40 MLOAD DUP1 SWAP2 SUB SWAP1 RETURN JUMPDEST CALLVALUE DUP1 ISZERO PUSH2 0xEE JUMPI PUSH0 DUP1 REVERT JUMPDEST POP PUSH2 0xF7 PUSH2 0x55F JUMP JUMPDEST PUSH1 0x40 MLOAD PUSH2 0x104 SWAP2 SWAP1 PUSH2 0x713 JUMP JUMPDEST PUSH1 0x40 MLOAD DUP1 SWAP2 SUB SWAP1 RETURN JUMPDEST CALLVALUE DUP1 ISZERO PUSH2 0x118 JUMPI PUSH0 DUP1 REVERT JUMPDEST POP PUSH2 0x133 PUSH1 0x4 DUP1 CALLDATASIZE SUB DUP2 ADD SWAP1 PUSH2 0x12E SWAP2 SWAP1 PUSH2 0x75A JUMP JUMPDEST PUSH2 0x566 JUMP JUMPDEST STOP JUMPDEST PUSH0 DUP1 SLOAD SWAP1 PUSH2 0x100 EXP SWAP1 DIV PUSH20 0xFFFFFFFFFFFFFFFFFFFFFFFFFFFFFFFFFFFFFFFF AND PUSH20 0xFFFFFFFFFFFFFFFFFFFFFFFFFFFFFFFFFFFFFFFF AND CALLER PUSH20 0xFFFFFFFFFFFFFFFFFFFFFFFFFFFFFFFFFFFFFFFF AND EQ PUSH2 0x1C2 JUMPI PUSH1 0x40 MLOAD PUSH32 0x8C379A000000000000000000000000000000000000000000000000000000000 DUP2 MSTORE PUSH1 0x4 ADD PUSH2 0x1B9 SWAP1 PUSH2 0x7DF JUMP JUMPDEST PUSH1 0x40 MLOAD DUP1 SWAP2 SUB SWAP1 REVERT JUMPDEST PUSH0 PUSH20 0xFFFFFFFFFFFFFFFFFFFFFFFFFFFFFFFFFFFFFFFF AND PUSH0 DUP1 SLOAD SWAP1 PUSH2 0x100 EXP SWAP1 DIV PUSH20 0xFFFFFFFFFFFFFFFFFFFFFFFFFFFFFFFFFFFFFFFF AND PUSH20 0xFFFFFFFFFFFFFFFFFFFFFFFFFFFFFFFFFFFFFFFF AND SUB PUSH2 0x24F JUMPI PUSH1 0x40 MLOAD PUSH32 0x8C379A000000000000000000000000000000000000000000000000000000000 DUP2 MSTORE PUSH1 0x4 ADD PUSH2 0x246 SWAP1 PUSH2 0x847 JUMP JUMPDEST PUSH1 0x40 MLOAD DUP1 SWAP2 SUB SWAP1 REVERT JUMPDEST PUSH0 DUP1 SLOAD SWAP1 PUSH2 0x100 EXP SWAP1 DIV PUSH20 0xFFFFFFFFFFFFFFFFFFFFFFFFFFFFFFFFFFFFFFFF AND PUSH20 0xFFFFFFFFFFFFFFFFFFFFFFFFFFFFFFFFFFFFFFFF AND PUSH2 0x8FC SELFBALANCE SWAP1 DUP2 ISZERO MUL SWAP1 PUSH1 0x40 MLOAD PUSH0 PUSH1 0x40 MLOAD DUP1 DUP4 SUB DUP2 DUP6 DUP9 DUP9 CALL SWAP4 POP POP POP POP ISZERO DUP1 ISZERO PUSH2 0x2B1 JUMPI RETURNDATASIZE PUSH0 DUP1 RETURNDATACOPY RETURNDATASIZE PUSH0 REVERT JUMPDEST POP JUMP JUMPDEST PUSH0 DUP1 SLOAD SWAP1 PUSH2 0x100 EXP SWAP1 DIV PUSH20 0xFFFFFFFFFFFFFFFFFFFFFFFFFFFFFFFFFFFFFFFF AND PUSH20 0xFFFFFFFFFFFFFFFFFFFFFFFFFFFFFFFFFFFFFFFF AND CALLER PUSH20 0xFFFFFFFFFFFFFFFFFFFFFFFFFFFFFFFFFFFFFFFF AND EQ PUSH2 0x341 JUMPI PUSH1 0x40 MLOAD PUSH32 0x8C379A000000000000000000000000000000000000000000000000000000000 DUP2 MSTORE PUSH1 0x4 ADD PUSH2 0x338 SWAP1 PUSH2 0x7DF JUMP JUMPDEST PUSH1 0x40 MLOAD DUP1 SWAP2 SUB SWAP1 REVERT JUMPDEST PUSH0 PUSH32 0x0 PUSH20 0xFFFFFFFFFFFFFFFFFFFFFFFFFFFFFFFFFFFFFFFF AND PUSH4 0x70A08231 ADDRESS PUSH1 0x40 MLOAD DUP3 PUSH4 0xFFFFFFFF AND PUSH1 0xE0 SHL DUP2 MSTORE PUSH1 0x4 ADD PUSH2 0x39B SWAP2 SWAP1 PUSH2 0x6E2 JUMP JUMPDEST PUSH1 0x20 PUSH1 0x40 MLOAD DUP1 DUP4 SUB DUP2 DUP7 GAS STATICCALL ISZERO DUP1 ISZERO PUSH2 0x3B6 JUMPI RETURNDATASIZE PUSH0 DUP1 RETURNDATACOPY RETURNDATASIZE PUSH0 REVERT JUMPDEST POP POP POP POP PUSH1 0x40 MLOAD RETURNDATASIZE PUSH1 0x1F NOT PUSH1 0x1F DUP3 ADD AND DUP3 ADD DUP1 PUSH1 0x40 MSTORE POP DUP2 ADD SWAP1 PUSH2 0x3DA SWAP2 SWAP1 PUSH2 0x88F JUMP JUMPDEST SWAP1 POP PUSH32 0x0 PUSH20 0xFFFFFFFFFFFFFFFFFFFFFFFFFFFFFFFFFFFFFFFF AND PUSH4 0xA9059CBB PUSH0 DUP1 SLOAD SWAP1 PUSH2 0x100 EXP SWAP1 DIV PUSH20 0xFFFFFFFFFFFFFFFFFFFFFFFFFFFFFFFFFFFFFFFF AND DUP4 PUSH1 0x40 MLOAD DUP4 PUSH4 0xFFFFFFFF AND PUSH1 0xE0 SHL DUP2 MSTORE PUSH1 0x4 ADD PUSH2 0x456 SWAP3 SWAP2 SWAP1 PUSH2 0x8BA JUMP JUMPDEST PUSH1 0x20 PUSH1 0x40 MLOAD DUP1 DUP4 SUB DUP2 PUSH0 DUP8 GAS CALL ISZERO DUP1 ISZERO PUSH2 0x472 JUMPI RETURNDATASIZE PUSH0 DUP1 RETURNDATACOPY RETURNDATASIZE PUSH0 REVERT JUMPDEST POP POP POP POP PUSH1 0x40 MLOAD RETURNDATASIZE PUSH1 0x1F NOT PUSH1 0x1F DUP3 ADD AND DUP3 ADD DUP1 PUSH1 0x40 MSTORE POP DUP2 ADD SWAP1 PUSH2 0x496 SWAP2 SWAP1 PUSH2 0x916 JUMP JUMPDEST POP POP JUMP JUMPDEST PUSH0 DUP1 PUSH0 SWAP1 SLOAD SWAP1 PUSH2 0x100 EXP SWAP1 DIV PUSH20 0xFFFFFFFFFFFFFFFFFFFFFFFFFFFFFFFFFFFFFFFF AND SWAP1 POP SWAP1 JUMP JUMPDEST PUSH0 PUSH32 0x0 PUSH20 0xFFFFFFFFFFFFFFFFFFFFFFFFFFFFFFFFFFFFFFFF AND PUSH4 0x70A08231 ADDRESS PUSH1 0x40 MLOAD DUP3 PUSH4 0xFFFFFFFF AND PUSH1 0xE0 SHL DUP2 MSTORE PUSH1 0x4 ADD PUSH2 0x51B SWAP2 SWAP1 PUSH2 0x6E2 JUMP JUMPDEST PUSH1 0x20 PUSH1 0x40 MLOAD DUP1 DUP4 SUB DUP2 DUP7 GAS STATICCALL ISZERO DUP1 ISZERO PUSH2 0x536 JUMPI RETURNDATASIZE PUSH0 DUP1 RETURNDATACOPY RETURNDATASIZE PUSH0 REVERT JUMPDEST POP POP POP POP PUSH1 0x40 MLOAD RETURNDATASIZE PUSH1 0x1F NOT PUSH1 0x1F DUP3 ADD AND DUP3 ADD DUP1 PUSH1 0x40 MSTORE POP DUP2 ADD SWAP1 PUSH2 0x55A SWAP2 SWAP1 PUSH2 0x88F JUMP JUMPDEST SWAP1 POP SWAP1 JUMP JUMPDEST PUSH0 SELFBALANCE SWAP1 POP SWAP1 JUMP JUMPDEST PUSH0 DUP1 SLOAD SWAP1 PUSH2 0x100 EXP SWAP1 DIV PUSH20 0xFFFFFFFFFFFFFFFFFFFFFFFFFFFFFFFFFFFFFFFF AND PUSH20 0xFFFFFFFFFFFFFFFFFFFFFFFFFFFFFFFFFFFFFFFF AND CALLER PUSH20 0xFFFFFFFFFFFFFFFFFFFFFFFFFFFFFFFFFFFFFFFF AND EQ PUSH2 0x5F3 JUMPI PUSH1 0x40 MLOAD PUSH32 0x8C379A000000000000000000000000000000000000000000000000000000000 DUP2 MSTORE PUSH1 0x4 ADD PUSH2 0x5EA SWAP1 PUSH2 0x7DF JUMP JUMPDEST PUSH1 0x40 MLOAD DUP1 SWAP2 SUB SWAP1 REVERT JUMPDEST PUSH0 PUSH20 0xFFFFFFFFFFFFFFFFFFFFFFFFFFFFFFFFFFFFFFFF AND DUP2 PUSH20 0xFFFFFFFFFFFFFFFFFFFFFFFFFFFFFFFFFFFFFFFF AND SUB PUSH2 0x661 JUMPI PUSH1 0x40 MLOAD PUSH32 0x8C379A000000000000000000000000000000000000000000000000000000000 DUP2 MSTORE PUSH1 0x4 ADD PUSH2 0x658 SWAP1 PUSH2 0x847 JUMP JUMPDEST PUSH1 0x40 MLOAD DUP1 SWAP2 SUB SWAP1 REVERT JUMPDEST DUP1 PUSH0 DUP1 PUSH2 0x100 EXP DUP2 SLOAD DUP2 PUSH20 0xFFFFFFFFFFFFFFFFFFFFFFFFFFFFFFFFFFFFFFFF MUL NOT AND SWAP1 DUP4 PUSH20 0xFFFFFFFFFFFFFFFFFFFFFFFFFFFFFFFFFFFFFFFF AND MUL OR SWAP1 SSTORE POP POP JUMP JUMPDEST PUSH0 PUSH20 0xFFFFFFFFFFFFFFFFFFFFFFFFFFFFFFFFFFFFFFFF DUP3 AND SWAP1 POP SWAP2 SWAP1 POP JUMP JUMPDEST PUSH0 PUSH2 0x6CC DUP3 PUSH2 0x6A3 JUMP JUMPDEST SWAP1 POP SWAP2 SWAP1 POP JUMP JUMPDEST PUSH2 0x6DC DUP2 PUSH2 0x6C2 JUMP JUMPDEST DUP3 MSTORE POP POP JUMP JUMPDEST PUSH0 PUSH1 0x20 DUP3 ADD SWAP1 POP PUSH2 0x6F5 PUSH0 DUP4 ADD DUP5 PUSH2 0x6D3 JUMP JUMPDEST SWAP3 SWAP2 POP POP JUMP JUMPDEST PUSH0 DUP2 SWAP1 POP SWAP2 SWAP1 POP JUMP JUMPDEST PUSH2 0x70D DUP2 PUSH2 0x6FB JUMP JUMPDEST DUP3 MSTORE POP POP JUMP JUMPDEST PUSH0 PUSH1 0x20 DUP3 ADD SWAP1 POP PUSH2 0x726 PUSH0 DUP4 ADD DUP5 PUSH2 0x704 JUMP JUMPDEST SWAP3 SWAP2 POP POP JUMP JUMPDEST PUSH0 DUP1 REVERT JUMPDEST PUSH2 0x739 DUP2 PUSH2 0x6C2 JUMP JUMPDEST DUP2 EQ PUSH2 0x743 JUMPI PUSH0 DUP1 REVERT JUMPDEST POP JUMP JUMPDEST PUSH0 DUP2 CALLDATALOAD SWAP1 POP PUSH2 0x754 DUP2 PUSH2 0x730 JUMP JUMPDEST SWAP3 SWAP2 POP POP JUMP JUMPDEST PUSH0 PUSH1 0x20 DUP3 DUP5 SUB SLT ISZERO PUSH2 0x76F JUMPI PUSH2 0x76E PUSH2 0x72C JUMP JUMPDEST JUMPDEST PUSH0 PUSH2 0x77C DUP5 DUP3 DUP6 ADD PUSH2 0x746 JUMP JUMPDEST SWAP2 POP POP SWAP3 SWAP2 POP POP JUMP JUMPDEST PUSH0 DUP3 DUP3 MSTORE PUSH1 0x20 DUP3 ADD SWAP1 POP SWAP3 SWAP2 POP POP JUMP JUMPDEST PUSH32 0x41646D696E204F6E6C7920416363657373000000000000000000000000000000 PUSH0 DUP3 ADD MSTORE POP JUMP JUMPDEST PUSH0 PUSH2 0x7C9 PUSH1 0x11 DUP4 PUSH2 0x785 JUMP JUMPDEST SWAP2 POP PUSH2 0x7D4 DUP3 PUSH2 0x795 JUMP JUMPDEST PUSH1 0x20 DUP3 ADD SWAP1 POP SWAP2 SWAP1 POP JUMP JUMPDEST PUSH0 PUSH1 0x20 DUP3 ADD SWAP1 POP DUP2 DUP2 SUB PUSH0 DUP4 ADD MSTORE PUSH2 0x7F6 DUP2 PUSH2 0x7BD JUMP JUMPDEST SWAP1 POP SWAP2 SWAP1 POP JUMP JUMPDEST PUSH32 0x41646472657373205A65726F206E6F7420616C6C6F7765640000000000000000 PUSH0 DUP3 ADD MSTORE POP JUMP JUMPDEST PUSH0 PUSH2 0x831 PUSH1 0x18 DUP4 PUSH2 0x785 JUMP JUMPDEST SWAP2 POP PUSH2 0x83C DUP3 PUSH2 0x7FD JUMP JUMPDEST PUSH1 0x20 DUP3 ADD SWAP1 POP SWAP2 SWAP1 POP JUMP JUMPDEST PUSH0 PUSH1 0x20 DUP3 ADD SWAP1 POP DUP2 DUP2 SUB PUSH0 DUP4 ADD MSTORE PUSH2 0x85E DUP2 PUSH2 0x825 JUMP JUMPDEST SWAP1 POP SWAP2 SWAP1 POP JUMP JUMPDEST PUSH2 0x86E DUP2 PUSH2 0x6FB JUMP JUMPDEST DUP2 EQ PUSH2 0x878 JUMPI PUSH0 DUP1 REVERT JUMPDEST POP JUMP JUMPDEST PUSH0 DUP2 MLOAD SWAP1 POP PUSH2 0x889 DUP2 PUSH2 0x865 JUMP JUMPDEST SWAP3 SWAP2 POP POP JUMP JUMPDEST PUSH0 PUSH1 0x20 DUP3 DUP5 SUB SLT ISZERO PUSH2 0x8A4 JUMPI PUSH2 0x8A3 PUSH2 0x72C JUMP JUMPDEST JUMPDEST PUSH0 PUSH2 0x8B1 DUP5 DUP3 DUP6 ADD PUSH2 0x87B JUMP JUMPDEST SWAP2 POP POP SWAP3 SWAP2 POP POP JUMP JUMPDEST PUSH0 PUSH1 0x40 DUP3 ADD SWAP1 POP PUSH2 0x8CD PUSH0 DUP4 ADD DUP6 PUSH2 0x6D3 JUMP JUMPDEST PUSH2 0x8DA PUSH1 0x20 DUP4 ADD DUP5 PUSH2 0x704 JUMP JUMPDEST SWAP4 SWAP3 POP POP POP JUMP JUMPDEST PUSH0 DUP2 ISZERO ISZERO SWAP1 POP SWAP2 SWAP1 POP JUMP JUMPDEST PUSH2 0x8F5 DUP2 PUSH2 0x8E1 JUMP JUMPDEST DUP2 EQ PUSH2 0x8FF JUMPI PUSH0 DUP1 REVERT JUMPDEST POP JUMP JUMPDEST PUSH0 DUP2 MLOAD SWAP1 POP PUSH2 0x910 DUP2 PUSH2 0x8EC JUMP JUMPDEST SWAP3 SWAP2 POP POP JUMP JUMPDEST PUSH0 PUSH1 0x20 DUP3 DUP5 SUB SLT ISZERO PUSH2 0x92B JUMPI PUSH2 0x92A PUSH2 0x72C JUMP JUMPDEST JUMPDEST PUSH0 PUSH2 0x938 DUP5 DUP3 DUP6 ADD PUSH2 0x902 JUMP JUMPDEST SWAP2 POP POP SWAP3 SWAP2 POP POP JUMP INVALID LOG2 PUSH5 0x6970667358 0x22 SLT KECCAK256 PUSH32 0x718B57F0091FEFCAD5DCDD23FBD1454F252C3F06F928A4BD785E445B23DBF64 PUSH20 0x6F6C634300081A00330000000000000000000000 "
				},
				"gasEstimates": {
					"creation": {
						"codeDepositCost": "484600",
						"executionCost": "infinite",
						"totalCost": "infinite"
					},
					"external": {
						"AdminChange(address)": "27003",
						"CurrentAdmin()": "2537",
						"EtherBalance()": "400",
						"EtherWiththdraw()": "infinite",
						"USDC_Balance()": "infinite",
						"USDC_Transfer()": "infinite"
					}
				},
				"methodIdentifiers": {
					"AdminChange(address)": "9d265e75",
					"CurrentAdmin()": "397de728",
					"EtherBalance()": "7af5a4c7",
					"EtherWiththdraw()": "103f0ad9",
					"USDC_Balance()": "5971b5ff",
					"USDC_Transfer()": "216ff22b"
				}
			},
			"storageLayout": {
				"storage": [
					{
						"astId": 31,
						"contract": "contracts/admin.sol:AdminBank",
						"label": "admin",
						"offset": 0,
						"slot": "0",
						"type": "t_address"
					}
				],
				"types": {
					"t_address": {
						"encoding": "inplace",
						"label": "address",
						"numberOfBytes": "20"
					}
				}
			},
			"userdoc": {
				"kind": "user",
				"methods": {},
				"version": 1
			}
		}
	}
}