{
	"contracts/trvx.sol": {
		"TriviaBase": {
			"abi": [
				{
					"inputs": [
						{
							"internalType": "address",
							"name": "_contract",
							"type": "address"
						}
					],
					"stateMutability": "nonpayable",
					"type": "constructor"
				},
				{
					"inputs": [],
					"name": "insufficientContractBalance",
					"type": "error"
				},
				{
					"inputs": [
						{
							"internalType": "address",
							"name": "_user",
							"type": "address"
						}
					],
					"name": "balance",
					"outputs": [
						{
							"internalType": "uint256",
							"name": "",
							"type": "uint256"
						}
					],
					"stateMutability": "view",
					"type": "function"
				},
				{
					"inputs": [
						{
							"internalType": "address",
							"name": "_user",
							"type": "address"
						}
					],
					"name": "callPLayed",
					"outputs": [
						{
							"internalType": "uint256",
							"name": "",
							"type": "uint256"
						},
						{
							"internalType": "uint256",
							"name": "",
							"type": "uint256"
						}
					],
					"stateMutability": "view",
					"type": "function"
				},
				{
					"inputs": [
						{
							"internalType": "address[]",
							"name": "_users",
							"type": "address[]"
						}
					],
					"name": "sendInfo",
					"outputs": [],
					"stateMutability": "nonpayable",
					"type": "function"
				},
				{
					"inputs": [],
					"name": "sendRewards",
					"outputs": [],
					"stateMutability": "nonpayable",
					"type": "function"
				},
				{
					"inputs": [
						{
							"internalType": "uint256",
							"name": "_amount",
							"type": "uint256"
						}
					],
					"name": "transfer2CA",
					"outputs": [
						{
							"internalType": "address",
							"name": "_sender",
							"type": "address"
						}
					],
					"stateMutability": "nonpayable",
					"type": "function"
				}
			],
			"devdoc": {
				"kind": "dev",
				"methods": {},
				"version": 1
			},
			"evm": {
				"assembly": "    /* \"contracts/trvx.sol\":504:3034  contract TriviaBase{... */\n  mstore(0x40, 0x80)\n    /* \"contracts/trvx.sol\":728:820  constructor (address _contract) {... */\n  callvalue\n  dup1\n  iszero\n  tag_1\n  jumpi\n  0x00\n  dup1\n  revert\ntag_1:\n  pop\n  mload(0x40)\n  sub(codesize, bytecodeSize)\n  dup1\n  bytecodeSize\n  dup4\n  codecopy\n  dup2\n  dup2\n  add\n  0x40\n  mstore\n  dup2\n  add\n  swap1\n  tag_2\n  swap2\n  swap1\n  tag_3\n  jump\t// in\ntag_2:\n    /* \"contracts/trvx.sol\":803:812  _contract */\n  dup1\n    /* \"contracts/trvx.sol\":770:783  storeUserData */\n  0x00\n  dup1\n    /* \"contracts/trvx.sol\":770:813  storeUserData = TriviaBaseCreate(_contract) */\n  0x0100\n  exp\n  dup2\n  sload\n  dup2\n  0xffffffffffffffffffffffffffffffffffffffff\n  mul\n  not\n  and\n  swap1\n  dup4\n  0xffffffffffffffffffffffffffffffffffffffff\n  and\n  mul\n  or\n  swap1\n  sstore\n  pop\n    /* \"contracts/trvx.sol\":728:820  constructor (address _contract) {... */\n  pop\n    /* \"contracts/trvx.sol\":504:3034  contract TriviaBase{... */\n  jump(tag_6)\n    /* \"#utility.yul\":88:205   */\ntag_8:\n    /* \"#utility.yul\":197:198   */\n  0x00\n    /* \"#utility.yul\":194:195   */\n  dup1\n    /* \"#utility.yul\":187:199   */\n  revert\n    /* \"#utility.yul\":334:460   */\ntag_10:\n    /* \"#utility.yul\":371:378   */\n  0x00\n    /* \"#utility.yul\":411:453   */\n  0xffffffffffffffffffffffffffffffffffffffff\n    /* \"#utility.yul\":404:409   */\n  dup3\n    /* \"#utility.yul\":400:454   */\n  and\n    /* \"#utility.yul\":389:454   */\n  swap1\n  pop\n    /* \"#utility.yul\":334:460   */\n  swap2\n  swap1\n  pop\n  jump\t// out\n    /* \"#utility.yul\":466:562   */\ntag_11:\n    /* \"#utility.yul\":503:510   */\n  0x00\n    /* \"#utility.yul\":532:556   */\n  tag_20\n    /* \"#utility.yul\":550:555   */\n  dup3\n    /* \"#utility.yul\":532:556   */\n  tag_10\n  jump\t// in\ntag_20:\n    /* \"#utility.yul\":521:556   */\n  swap1\n  pop\n    /* \"#utility.yul\":466:562   */\n  swap2\n  swap1\n  pop\n  jump\t// out\n    /* \"#utility.yul\":568:690   */\ntag_12:\n    /* \"#utility.yul\":641:665   */\n  tag_22\n    /* \"#utility.yul\":659:664   */\n  dup2\n    /* \"#utility.yul\":641:665   */\n  tag_11\n  jump\t// in\ntag_22:\n    /* \"#utility.yul\":634:639   */\n  dup2\n    /* \"#utility.yul\":631:666   */\n  eq\n    /* \"#utility.yul\":621:684   */\n  tag_23\n  jumpi\n    /* \"#utility.yul\":680:681   */\n  0x00\n    /* \"#utility.yul\":677:678   */\n  dup1\n    /* \"#utility.yul\":670:682   */\n  revert\n    /* \"#utility.yul\":621:684   */\ntag_23:\n    /* \"#utility.yul\":568:690   */\n  pop\n  jump\t// out\n    /* \"#utility.yul\":696:839   */\ntag_13:\n    /* \"#utility.yul\":753:758   */\n  0x00\n    /* \"#utility.yul\":784:790   */\n  dup2\n    /* \"#utility.yul\":778:791   */\n  mload\n    /* \"#utility.yul\":769:791   */\n  swap1\n  pop\n    /* \"#utility.yul\":800:833   */\n  tag_25\n    /* \"#utility.yul\":827:832   */\n  dup2\n    /* \"#utility.yul\":800:833   */\n  tag_12\n  jump\t// in\ntag_25:\n    /* \"#utility.yul\":696:839   */\n  swap3\n  swap2\n  pop\n  pop\n  jump\t// out\n    /* \"#utility.yul\":845:1196   */\ntag_3:\n    /* \"#utility.yul\":915:921   */\n  0x00\n    /* \"#utility.yul\":964:966   */\n  0x20\n    /* \"#utility.yul\":952:961   */\n  dup3\n    /* \"#utility.yul\":943:950   */\n  dup5\n    /* \"#utility.yul\":939:962   */\n  sub\n    /* \"#utility.yul\":935:967   */\n  slt\n    /* \"#utility.yul\":932:1051   */\n  iszero\n  tag_27\n  jumpi\n    /* \"#utility.yul\":970:1049   */\n  tag_28\n  tag_8\n  jump\t// in\ntag_28:\n    /* \"#utility.yul\":932:1051   */\ntag_27:\n    /* \"#utility.yul\":1090:1091   */\n  0x00\n    /* \"#utility.yul\":1115:1179   */\n  tag_29\n    /* \"#utility.yul\":1171:1178   */\n  dup5\n    /* \"#utility.yul\":1162:1168   */\n  dup3\n    /* \"#utility.yul\":1151:1160   */\n  dup6\n    /* \"#utility.yul\":1147:1169   */\n  add\n    /* \"#utility.yul\":1115:1179   */\n  tag_13\n  jump\t// in\ntag_29:\n    /* \"#utility.yul\":1105:1179   */\n  swap2\n  pop\n    /* \"#utility.yul\":1061:1189   */\n  pop\n    /* \"#utility.yul\":845:1196   */\n  swap3\n  swap2\n  pop\n  pop\n  jump\t// out\n    /* \"contracts/trvx.sol\":504:3034  contract TriviaBase{... */\ntag_6:\n  dataSize(sub_0)\n  dup1\n  dataOffset(sub_0)\n  0x00\n  codecopy\n  0x00\n  return\nstop\n\nsub_0: assembly {\n        /* \"contracts/trvx.sol\":504:3034  contract TriviaBase{... */\n      mstore(0x40, 0x80)\n      callvalue\n      dup1\n      iszero\n      tag_1\n      jumpi\n      0x00\n      dup1\n      revert\n    tag_1:\n      pop\n      jumpi(tag_2, lt(calldatasize, 0x04))\n      shr(0xe0, calldataload(0x00))\n      dup1\n      0x1920d117\n      eq\n      tag_3\n      jumpi\n      dup1\n      0x8f665496\n      eq\n      tag_4\n      jumpi\n      dup1\n      0x95cb1b1e\n      eq\n      tag_5\n      jumpi\n      dup1\n      0xe3d670d7\n      eq\n      tag_6\n      jumpi\n      dup1\n      0xf7f85b89\n      eq\n      tag_7\n      jumpi\n    tag_2:\n      0x00\n      dup1\n      revert\n        /* \"contracts/trvx.sol\":900:1199  function transfer2CA(uint _amount) external returns(address _sender) {... */\n    tag_3:\n      tag_8\n      0x04\n      dup1\n      calldatasize\n      sub\n      dup2\n      add\n      swap1\n      tag_9\n      swap2\n      swap1\n      tag_10\n      jump\t// in\n    tag_9:\n      tag_11\n      jump\t// in\n    tag_8:\n      mload(0x40)\n      tag_12\n      swap2\n      swap1\n      tag_13\n      jump\t// in\n    tag_12:\n      mload(0x40)\n      dup1\n      swap2\n      sub\n      swap1\n      return\n        /* \"contracts/trvx.sol\":2665:2842  function callPLayed(address _user)external view returns(uint, uint){... */\n    tag_4:\n      tag_14\n      0x04\n      dup1\n      calldatasize\n      sub\n      dup2\n      add\n      swap1\n      tag_15\n      swap2\n      swap1\n      tag_16\n      jump\t// in\n    tag_15:\n      tag_17\n      jump\t// in\n    tag_14:\n      mload(0x40)\n      tag_18\n      swap3\n      swap2\n      swap1\n      tag_19\n      jump\t// in\n    tag_18:\n      mload(0x40)\n      dup1\n      swap2\n      sub\n      swap1\n      return\n        /* \"contracts/trvx.sol\":1851:2655  function sendRewards() external {... */\n    tag_5:\n      tag_20\n      tag_21\n      jump\t// in\n    tag_20:\n      stop\n        /* \"contracts/trvx.sol\":2852:3032  function balance( address _user) external view returns(uint){... */\n    tag_6:\n      tag_22\n      0x04\n      dup1\n      calldatasize\n      sub\n      dup2\n      add\n      swap1\n      tag_23\n      swap2\n      swap1\n      tag_16\n      jump\t// in\n    tag_23:\n      tag_24\n      jump\t// in\n    tag_22:\n      mload(0x40)\n      tag_25\n      swap2\n      swap1\n      tag_26\n      jump\t// in\n    tag_25:\n      mload(0x40)\n      dup1\n      swap2\n      sub\n      swap1\n      return\n        /* \"contracts/trvx.sol\":1262:1841  function sendInfo(address[] memory _users) external {... */\n    tag_7:\n      tag_27\n      0x04\n      dup1\n      calldatasize\n      sub\n      dup2\n      add\n      swap1\n      tag_28\n      swap2\n      swap1\n      tag_29\n      jump\t// in\n    tag_28:\n      tag_30\n      jump\t// in\n    tag_27:\n      stop\n        /* \"contracts/trvx.sol\":900:1199  function transfer2CA(uint _amount) external returns(address _sender) {... */\n    tag_11:\n        /* \"contracts/trvx.sol\":952:967  address _sender */\n      0x00\n        /* \"contracts/trvx.sol\":1039:1046  _amount */\n      dup2\n        /* \"contracts/trvx.sol\":564:606  0xb634247Abf7A50Dd7b9Cf6671A3e83F34f5f78D0 */\n      0xb634247abf7a50dd7b9cf6671a3e83f34f5f78d0\n        /* \"contracts/trvx.sol\":991:1025  IERC20(usdctokenAddress).balanceOf */\n      0xffffffffffffffffffffffffffffffffffffffff\n      and\n      0x70a08231\n        /* \"contracts/trvx.sol\":1026:1036  msg.sender */\n      caller\n        /* \"contracts/trvx.sol\":991:1037  IERC20(usdctokenAddress).balanceOf(msg.sender) */\n      mload(0x40)\n      dup3\n      0xffffffff\n      and\n      0xe0\n      shl\n      dup2\n      mstore\n      0x04\n      add\n      tag_32\n      swap2\n      swap1\n      tag_13\n      jump\t// in\n    tag_32:\n      0x20\n      mload(0x40)\n      dup1\n      dup4\n      sub\n      dup2\n      dup7\n      gas\n      staticcall\n      iszero\n      dup1\n      iszero\n      tag_34\n      jumpi\n      returndatasize\n      0x00\n      dup1\n      returndatacopy\n      revert(0x00, returndatasize)\n    tag_34:\n      pop\n      pop\n      pop\n      pop\n      mload(0x40)\n      returndatasize\n      not(0x1f)\n      0x1f\n      dup3\n      add\n      and\n      dup3\n      add\n      dup1\n      0x40\n      mstore\n      pop\n      dup2\n      add\n      swap1\n      tag_35\n      swap2\n      swap1\n      tag_36\n      jump\t// in\n    tag_35:\n        /* \"contracts/trvx.sol\":991:1046  IERC20(usdctokenAddress).balanceOf(msg.sender)>=_amount */\n      lt\n      iszero\n        /* \"contracts/trvx.sol\":983:1070  require(IERC20(usdctokenAddress).balanceOf(msg.sender)>=_amount, \"Insufficent Balance\") */\n      tag_37\n      jumpi\n      mload(0x40)\n      0x08c379a000000000000000000000000000000000000000000000000000000000\n      dup2\n      mstore\n      0x04\n      add\n      tag_38\n      swap1\n      tag_39\n      jump\t// in\n    tag_38:\n      mload(0x40)\n      dup1\n      swap2\n      sub\n      swap1\n      revert\n    tag_37:\n        /* \"contracts/trvx.sol\":564:606  0xb634247Abf7A50Dd7b9Cf6671A3e83F34f5f78D0 */\n      0xb634247abf7a50dd7b9cf6671a3e83f34f5f78d0\n        /* \"contracts/trvx.sol\":1084:1121  IERC20(usdctokenAddress).transferFrom */\n      0xffffffffffffffffffffffffffffffffffffffff\n      and\n      0x23b872dd\n        /* \"contracts/trvx.sol\":1122:1132  msg.sender */\n      caller\n        /* \"contracts/trvx.sol\":1142:1146  this */\n      address\n        /* \"contracts/trvx.sol\":1149:1156  _amount */\n      dup6\n        /* \"contracts/trvx.sol\":1084:1157  IERC20(usdctokenAddress).transferFrom(msg.sender, address(this), _amount) */\n      mload(0x40)\n      dup5\n      0xffffffff\n      and\n      0xe0\n      shl\n      dup2\n      mstore\n      0x04\n      add\n      tag_40\n      swap4\n      swap3\n      swap2\n      swap1\n      tag_41\n      jump\t// in\n    tag_40:\n      0x20\n      mload(0x40)\n      dup1\n      dup4\n      sub\n      dup2\n      0x00\n      dup8\n      gas\n      call\n      iszero\n      dup1\n      iszero\n      tag_43\n      jumpi\n      returndatasize\n      0x00\n      dup1\n      returndatacopy\n      revert(0x00, returndatasize)\n    tag_43:\n      pop\n      pop\n      pop\n      pop\n      mload(0x40)\n      returndatasize\n      not(0x1f)\n      0x1f\n      dup3\n      add\n      and\n      dup3\n      add\n      dup1\n      0x40\n      mstore\n      pop\n      dup2\n      add\n      swap1\n      tag_44\n      swap2\n      swap1\n      tag_45\n      jump\t// in\n    tag_44:\n      pop\n        /* \"contracts/trvx.sol\":1178:1188  msg.sender */\n      caller\n        /* \"contracts/trvx.sol\":1171:1188  return msg.sender */\n      swap1\n      pop\n        /* \"contracts/trvx.sol\":900:1199  function transfer2CA(uint _amount) external returns(address _sender) {... */\n      swap2\n      swap1\n      pop\n      jump\t// out\n        /* \"contracts/trvx.sol\":2665:2842  function callPLayed(address _user)external view returns(uint, uint){... */\n    tag_17:\n        /* \"contracts/trvx.sol\":2721:2725  uint */\n      0x00\n        /* \"contracts/trvx.sol\":2727:2731  uint */\n      dup1\n        /* \"contracts/trvx.sol\":2753:2766  storeUserData */\n      0x00\n      dup1\n      sload\n      swap1\n      0x0100\n      exp\n      swap1\n      div\n      0xffffffffffffffffffffffffffffffffffffffff\n      and\n        /* \"contracts/trvx.sol\":2753:2785  storeUserData.displayTotalPlayed */\n      0xffffffffffffffffffffffffffffffffffffffff\n      and\n      0x6723eb45\n        /* \"contracts/trvx.sol\":2786:2791  _user */\n      dup5\n        /* \"contracts/trvx.sol\":2753:2792  storeUserData.displayTotalPlayed(_user) */\n      mload(0x40)\n      dup3\n      0xffffffff\n      and\n      0xe0\n      shl\n      dup2\n      mstore\n      0x04\n      add\n      tag_47\n      swap2\n      swap1\n      tag_13\n      jump\t// in\n    tag_47:\n      0x20\n      mload(0x40)\n      dup1\n      dup4\n      sub\n      dup2\n      dup7\n      gas\n      staticcall\n      iszero\n      dup1\n      iszero\n      tag_49\n      jumpi\n      returndatasize\n      0x00\n      dup1\n      returndatacopy\n      revert(0x00, returndatasize)\n    tag_49:\n      pop\n      pop\n      pop\n      pop\n      mload(0x40)\n      returndatasize\n      not(0x1f)\n      0x1f\n      dup3\n      add\n      and\n      dup3\n      add\n      dup1\n      0x40\n      mstore\n      pop\n      dup2\n      add\n      swap1\n      tag_50\n      swap2\n      swap1\n      tag_36\n      jump\t// in\n    tag_50:\n        /* \"contracts/trvx.sol\":2794:2807  storeUserData */\n      0x00\n      dup1\n      sload\n      swap1\n      0x0100\n      exp\n      swap1\n      div\n      0xffffffffffffffffffffffffffffffffffffffff\n      and\n        /* \"contracts/trvx.sol\":2794:2823  storeUserData.displayTotalWon */\n      0xffffffffffffffffffffffffffffffffffffffff\n      and\n      0x297af9d4\n        /* \"contracts/trvx.sol\":2824:2829  _user */\n      dup6\n        /* \"contracts/trvx.sol\":2794:2830  storeUserData.displayTotalWon(_user) */\n      mload(0x40)\n      dup3\n      0xffffffff\n      and\n      0xe0\n      shl\n      dup2\n      mstore\n      0x04\n      add\n      tag_51\n      swap2\n      swap1\n      tag_13\n      jump\t// in\n    tag_51:\n      0x20\n      mload(0x40)\n      dup1\n      dup4\n      sub\n      dup2\n      dup7\n      gas\n      staticcall\n      iszero\n      dup1\n      iszero\n      tag_53\n      jumpi\n      returndatasize\n      0x00\n      dup1\n      returndatacopy\n      revert(0x00, returndatasize)\n    tag_53:\n      pop\n      pop\n      pop\n      pop\n      mload(0x40)\n      returndatasize\n      not(0x1f)\n      0x1f\n      dup3\n      add\n      and\n      dup3\n      add\n      dup1\n      0x40\n      mstore\n      pop\n      dup2\n      add\n      swap1\n      tag_54\n      swap2\n      swap1\n      tag_36\n      jump\t// in\n    tag_54:\n        /* \"contracts/trvx.sol\":2745:2831  return (storeUserData.displayTotalPlayed(_user), storeUserData.displayTotalWon(_user)) */\n      swap2\n      pop\n      swap2\n      pop\n        /* \"contracts/trvx.sol\":2665:2842  function callPLayed(address _user)external view returns(uint, uint){... */\n      swap2\n      pop\n      swap2\n      jump\t// out\n        /* \"contracts/trvx.sol\":1851:2655  function sendRewards() external {... */\n    tag_21:\n        /* \"contracts/trvx.sol\":1897:1917  uint contractRewards */\n      0x00\n        /* \"contracts/trvx.sol\":564:606  0xb634247Abf7A50Dd7b9Cf6671A3e83F34f5f78D0 */\n      0xb634247abf7a50dd7b9cf6671a3e83f34f5f78d0\n        /* \"contracts/trvx.sol\":1921:1955  IERC20(usdctokenAddress).balanceOf */\n      0xffffffffffffffffffffffffffffffffffffffff\n      and\n      0x70a08231\n        /* \"contracts/trvx.sol\":1964:1968  this */\n      address\n        /* \"contracts/trvx.sol\":1921:1970  IERC20(usdctokenAddress).balanceOf(address(this)) */\n      mload(0x40)\n      dup3\n      0xffffffff\n      and\n      0xe0\n      shl\n      dup2\n      mstore\n      0x04\n      add\n      tag_56\n      swap2\n      swap1\n      tag_13\n      jump\t// in\n    tag_56:\n      0x20\n      mload(0x40)\n      dup1\n      dup4\n      sub\n      dup2\n      dup7\n      gas\n      staticcall\n      iszero\n      dup1\n      iszero\n      tag_58\n      jumpi\n      returndatasize\n      0x00\n      dup1\n      returndatacopy\n      revert(0x00, returndatasize)\n    tag_58:\n      pop\n      pop\n      pop\n      pop\n      mload(0x40)\n      returndatasize\n      not(0x1f)\n      0x1f\n      dup3\n      add\n      and\n      dup3\n      add\n      dup1\n      0x40\n      mstore\n      pop\n      dup2\n      add\n      swap1\n      tag_59\n      swap2\n      swap1\n      tag_36\n      jump\t// in\n    tag_59:\n        /* \"contracts/trvx.sol\":1897:1970  uint contractRewards =  IERC20(usdctokenAddress).balanceOf(address(this)) */\n      swap1\n      pop\n        /* \"contracts/trvx.sol\":2006:2007  0 */\n      0x00\n        /* \"contracts/trvx.sol\":1987:2002  contractRewards */\n      dup2\n        /* \"contracts/trvx.sol\":1987:2007  contractRewards == 0 */\n      sub\n        /* \"contracts/trvx.sol\":1984:2077  if(contractRewards == 0){... */\n      tag_60\n      jumpi\n        /* \"contracts/trvx.sol\":2033:2062  insufficientContractBalance() */\n      mload(0x40)\n      0xb09959a600000000000000000000000000000000000000000000000000000000\n      dup2\n      mstore\n      0x04\n      add\n      mload(0x40)\n      dup1\n      swap2\n      sub\n      swap1\n      revert\n        /* \"contracts/trvx.sol\":1984:2077  if(contractRewards == 0){... */\n    tag_60:\n        /* \"contracts/trvx.sol\":2090:2106  uint firstPlayer */\n      0x00\n        /* \"contracts/trvx.sol\":640:645  1*1e6 */\n      0x0f4240\n        /* \"contracts/trvx.sol\":2139:2142  100 */\n      0x64\n        /* \"contracts/trvx.sol\":2139:2148  100 * dec */\n      tag_61\n      swap2\n      swap1\n      tag_62\n      jump\t// in\n    tag_61:\n        /* \"contracts/trvx.sol\":640:645  1*1e6 */\n      0x0f4240\n        /* \"contracts/trvx.sol\":2115:2130  contractRewards */\n      dup4\n        /* \"contracts/trvx.sol\":2110:2112  58 */\n      0x3a\n        /* \"contracts/trvx.sol\":2110:2130  58 * contractRewards */\n      tag_63\n      swap2\n      swap1\n      tag_62\n      jump\t// in\n    tag_63:\n        /* \"contracts/trvx.sol\":2110:2136  58 * contractRewards * dec */\n      tag_64\n      swap2\n      swap1\n      tag_62\n      jump\t// in\n    tag_64:\n        /* \"contracts/trvx.sol\":2109:2149  (58 * contractRewards * dec)/(100 * dec) */\n      tag_65\n      swap2\n      swap1\n      tag_66\n      jump\t// in\n    tag_65:\n        /* \"contracts/trvx.sol\":2090:2149  uint firstPlayer = (58 * contractRewards * dec)/(100 * dec) */\n      swap1\n      pop\n        /* \"contracts/trvx.sol\":2163:2180  uint secondPlayer */\n      0x00\n        /* \"contracts/trvx.sol\":640:645  1*1e6 */\n      0x0f4240\n        /* \"contracts/trvx.sol\":2213:2216  100 */\n      0x64\n        /* \"contracts/trvx.sol\":2213:2222  100 * dec */\n      tag_67\n      swap2\n      swap1\n      tag_62\n      jump\t// in\n    tag_67:\n        /* \"contracts/trvx.sol\":640:645  1*1e6 */\n      0x0f4240\n        /* \"contracts/trvx.sol\":2189:2204  contractRewards */\n      dup5\n        /* \"contracts/trvx.sol\":2184:2186  29 */\n      0x1d\n        /* \"contracts/trvx.sol\":2184:2204  29 * contractRewards */\n      tag_68\n      swap2\n      swap1\n      tag_62\n      jump\t// in\n    tag_68:\n        /* \"contracts/trvx.sol\":2184:2210  29 * contractRewards * dec */\n      tag_69\n      swap2\n      swap1\n      tag_62\n      jump\t// in\n    tag_69:\n        /* \"contracts/trvx.sol\":2183:2223  (29 * contractRewards * dec)/(100 * dec) */\n      tag_70\n      swap2\n      swap1\n      tag_66\n      jump\t// in\n    tag_70:\n        /* \"contracts/trvx.sol\":2163:2223  uint secondPlayer = (29 * contractRewards * dec)/(100 * dec) */\n      swap1\n      pop\n        /* \"contracts/trvx.sol\":2237:2253  uint thirdPlayer */\n      0x00\n        /* \"contracts/trvx.sol\":640:645  1*1e6 */\n      0x0f4240\n        /* \"contracts/trvx.sol\":2285:2288  100 */\n      0x64\n        /* \"contracts/trvx.sol\":2285:2294  100 * dec */\n      tag_71\n      swap2\n      swap1\n      tag_62\n      jump\t// in\n    tag_71:\n        /* \"contracts/trvx.sol\":640:645  1*1e6 */\n      0x0f4240\n        /* \"contracts/trvx.sol\":2261:2276  contractRewards */\n      dup6\n        /* \"contracts/trvx.sol\":2257:2258  9 */\n      0x09\n        /* \"contracts/trvx.sol\":2257:2276  9 * contractRewards */\n      tag_72\n      swap2\n      swap1\n      tag_62\n      jump\t// in\n    tag_72:\n        /* \"contracts/trvx.sol\":2257:2282  9 * contractRewards * dec */\n      tag_73\n      swap2\n      swap1\n      tag_62\n      jump\t// in\n    tag_73:\n        /* \"contracts/trvx.sol\":2256:2295  (9 * contractRewards * dec)/(100 * dec) */\n      tag_74\n      swap2\n      swap1\n      tag_66\n      jump\t// in\n    tag_74:\n        /* \"contracts/trvx.sol\":2237:2295  uint thirdPlayer = (9 * contractRewards * dec)/(100 * dec) */\n      swap1\n      pop\n        /* \"contracts/trvx.sol\":564:606  0xb634247Abf7A50Dd7b9Cf6671A3e83F34f5f78D0 */\n      0xb634247abf7a50dd7b9cf6671a3e83f34f5f78d0\n        /* \"contracts/trvx.sol\":2310:2343  IERC20(usdctokenAddress).transfer */\n      0xffffffffffffffffffffffffffffffffffffffff\n      and\n      0xa9059cbb\n        /* \"contracts/trvx.sol\":2344:2351  winners */\n      0x01\n        /* \"contracts/trvx.sol\":2352:2353  0 */\n      0x00\n        /* \"contracts/trvx.sol\":2344:2354  winners[0] */\n      dup2\n      sload\n      dup2\n      lt\n      tag_75\n      jumpi\n      tag_76\n      tag_77\n      jump\t// in\n    tag_76:\n    tag_75:\n      swap1\n      0x00\n      mstore\n      keccak256(0x00, 0x20)\n      add\n      0x00\n      swap1\n      sload\n      swap1\n      0x0100\n      exp\n      swap1\n      div\n      0xffffffffffffffffffffffffffffffffffffffff\n      and\n        /* \"contracts/trvx.sol\":2355:2366  firstPlayer */\n      dup6\n        /* \"contracts/trvx.sol\":2310:2367  IERC20(usdctokenAddress).transfer(winners[0],firstPlayer) */\n      mload(0x40)\n      dup4\n      0xffffffff\n      and\n      0xe0\n      shl\n      dup2\n      mstore\n      0x04\n      add\n      tag_79\n      swap3\n      swap2\n      swap1\n      tag_80\n      jump\t// in\n    tag_79:\n      0x20\n      mload(0x40)\n      dup1\n      dup4\n      sub\n      dup2\n      0x00\n      dup8\n      gas\n      call\n      iszero\n      dup1\n      iszero\n      tag_82\n      jumpi\n      returndatasize\n      0x00\n      dup1\n      returndatacopy\n      revert(0x00, returndatasize)\n    tag_82:\n      pop\n      pop\n      pop\n      pop\n      mload(0x40)\n      returndatasize\n      not(0x1f)\n      0x1f\n      dup3\n      add\n      and\n      dup3\n      add\n      dup1\n      0x40\n      mstore\n      pop\n      dup2\n      add\n      swap1\n      tag_83\n      swap2\n      swap1\n      tag_45\n      jump\t// in\n    tag_83:\n      pop\n        /* \"contracts/trvx.sol\":564:606  0xb634247Abf7A50Dd7b9Cf6671A3e83F34f5f78D0 */\n      0xb634247abf7a50dd7b9cf6671a3e83f34f5f78d0\n        /* \"contracts/trvx.sol\":2381:2414  IERC20(usdctokenAddress).transfer */\n      0xffffffffffffffffffffffffffffffffffffffff\n      and\n      0xa9059cbb\n        /* \"contracts/trvx.sol\":2415:2422  winners */\n      0x01\n        /* \"contracts/trvx.sol\":2423:2424  1 */\n      dup1\n        /* \"contracts/trvx.sol\":2415:2425  winners[1] */\n      dup2\n      sload\n      dup2\n      lt\n      tag_84\n      jumpi\n      tag_85\n      tag_77\n      jump\t// in\n    tag_85:\n    tag_84:\n      swap1\n      0x00\n      mstore\n      keccak256(0x00, 0x20)\n      add\n      0x00\n      swap1\n      sload\n      swap1\n      0x0100\n      exp\n      swap1\n      div\n      0xffffffffffffffffffffffffffffffffffffffff\n      and\n        /* \"contracts/trvx.sol\":2426:2438  secondPlayer */\n      dup5\n        /* \"contracts/trvx.sol\":2381:2439  IERC20(usdctokenAddress).transfer(winners[1],secondPlayer) */\n      mload(0x40)\n      dup4\n      0xffffffff\n      and\n      0xe0\n      shl\n      dup2\n      mstore\n      0x04\n      add\n      tag_87\n      swap3\n      swap2\n      swap1\n      tag_80\n      jump\t// in\n    tag_87:\n      0x20\n      mload(0x40)\n      dup1\n      dup4\n      sub\n      dup2\n      0x00\n      dup8\n      gas\n      call\n      iszero\n      dup1\n      iszero\n      tag_89\n      jumpi\n      returndatasize\n      0x00\n      dup1\n      returndatacopy\n      revert(0x00, returndatasize)\n    tag_89:\n      pop\n      pop\n      pop\n      pop\n      mload(0x40)\n      returndatasize\n      not(0x1f)\n      0x1f\n      dup3\n      add\n      and\n      dup3\n      add\n      dup1\n      0x40\n      mstore\n      pop\n      dup2\n      add\n      swap1\n      tag_90\n      swap2\n      swap1\n      tag_45\n      jump\t// in\n    tag_90:\n      pop\n        /* \"contracts/trvx.sol\":564:606  0xb634247Abf7A50Dd7b9Cf6671A3e83F34f5f78D0 */\n      0xb634247abf7a50dd7b9cf6671a3e83f34f5f78d0\n        /* \"contracts/trvx.sol\":2453:2486  IERC20(usdctokenAddress).transfer */\n      0xffffffffffffffffffffffffffffffffffffffff\n      and\n      0xa9059cbb\n        /* \"contracts/trvx.sol\":2487:2494  winners */\n      0x01\n        /* \"contracts/trvx.sol\":2495:2496  2 */\n      0x02\n        /* \"contracts/trvx.sol\":2487:2497  winners[2] */\n      dup2\n      sload\n      dup2\n      lt\n      tag_91\n      jumpi\n      tag_92\n      tag_77\n      jump\t// in\n    tag_92:\n    tag_91:\n      swap1\n      0x00\n      mstore\n      keccak256(0x00, 0x20)\n      add\n      0x00\n      swap1\n      sload\n      swap1\n      0x0100\n      exp\n      swap1\n      div\n      0xffffffffffffffffffffffffffffffffffffffff\n      and\n        /* \"contracts/trvx.sol\":2498:2509  thirdPlayer */\n      dup4\n        /* \"contracts/trvx.sol\":2453:2510  IERC20(usdctokenAddress).transfer(winners[2],thirdPlayer) */\n      mload(0x40)\n      dup4\n      0xffffffff\n      and\n      0xe0\n      shl\n      dup2\n      mstore\n      0x04\n      add\n      tag_94\n      swap3\n      swap2\n      swap1\n      tag_80\n      jump\t// in\n    tag_94:\n      0x20\n      mload(0x40)\n      dup1\n      dup4\n      sub\n      dup2\n      0x00\n      dup8\n      gas\n      call\n      iszero\n      dup1\n      iszero\n      tag_96\n      jumpi\n      returndatasize\n      0x00\n      dup1\n      returndatacopy\n      revert(0x00, returndatasize)\n    tag_96:\n      pop\n      pop\n      pop\n      pop\n      mload(0x40)\n      returndatasize\n      not(0x1f)\n      0x1f\n      dup3\n      add\n      and\n      dup3\n      add\n      dup1\n      0x40\n      mstore\n      pop\n      dup2\n      add\n      swap1\n      tag_97\n      swap2\n      swap1\n      tag_45\n      jump\t// in\n    tag_97:\n      pop\n        /* \"contracts/trvx.sol\":2531:2538  winners */\n      0x01\n      0x00\n        /* \"contracts/trvx.sol\":2524:2538  delete winners */\n      tag_98\n      swap2\n      swap1\n      tag_99\n      jump\t// in\n    tag_98:\n        /* \"contracts/trvx.sol\":1883:2655  {... */\n      pop\n      pop\n      pop\n      pop\n        /* \"contracts/trvx.sol\":1851:2655  function sendRewards() external {... */\n      jump\t// out\n        /* \"contracts/trvx.sol\":2852:3032  function balance( address _user) external view returns(uint){... */\n    tag_24:\n        /* \"contracts/trvx.sol\":2907:2911  uint */\n      0x00\n        /* \"contracts/trvx.sol\":2926:2943  uint ownerBalance */\n      dup1\n        /* \"contracts/trvx.sol\":564:606  0xb634247Abf7A50Dd7b9Cf6671A3e83F34f5f78D0 */\n      0xb634247abf7a50dd7b9cf6671a3e83f34f5f78d0\n        /* \"contracts/trvx.sol\":2947:2981  IERC20(usdctokenAddress).balanceOf */\n      0xffffffffffffffffffffffffffffffffffffffff\n      and\n      0x70a08231\n        /* \"contracts/trvx.sol\":2982:2987  _user */\n      dup5\n        /* \"contracts/trvx.sol\":2947:2988  IERC20(usdctokenAddress).balanceOf(_user) */\n      mload(0x40)\n      dup3\n      0xffffffff\n      and\n      0xe0\n      shl\n      dup2\n      mstore\n      0x04\n      add\n      tag_101\n      swap2\n      swap1\n      tag_13\n      jump\t// in\n    tag_101:\n      0x20\n      mload(0x40)\n      dup1\n      dup4\n      sub\n      dup2\n      dup7\n      gas\n      staticcall\n      iszero\n      dup1\n      iszero\n      tag_103\n      jumpi\n      returndatasize\n      0x00\n      dup1\n      returndatacopy\n      revert(0x00, returndatasize)\n    tag_103:\n      pop\n      pop\n      pop\n      pop\n      mload(0x40)\n      returndatasize\n      not(0x1f)\n      0x1f\n      dup3\n      add\n      and\n      dup3\n      add\n      dup1\n      0x40\n      mstore\n      pop\n      dup2\n      add\n      swap1\n      tag_104\n      swap2\n      swap1\n      tag_36\n      jump\t// in\n    tag_104:\n        /* \"contracts/trvx.sol\":2926:2988  uint ownerBalance =  IERC20(usdctokenAddress).balanceOf(_user) */\n      swap1\n      pop\n        /* \"contracts/trvx.sol\":3009:3021  ownerBalance */\n      dup1\n        /* \"contracts/trvx.sol\":3002:3021  return ownerBalance */\n      swap2\n      pop\n      pop\n        /* \"contracts/trvx.sol\":2852:3032  function balance( address _user) external view returns(uint){... */\n      swap2\n      swap1\n      pop\n      jump\t// out\n        /* \"contracts/trvx.sol\":1262:1841  function sendInfo(address[] memory _users) external {... */\n    tag_30:\n        /* \"contracts/trvx.sol\":1328:1354  address[3] memory _winners */\n      tag_106\n      tag_107\n      jump\t// in\n    tag_106:\n        /* \"contracts/trvx.sol\":1373:1379  uint i */\n      0x00\n        /* \"contracts/trvx.sol\":1368:1522  for (uint i=0; i < _winners.length; i++){... */\n    tag_108:\n        /* \"contracts/trvx.sol\":1387:1402  _winners.length */\n      0x03\n        /* \"contracts/trvx.sol\":1383:1384  i */\n      dup2\n        /* \"contracts/trvx.sol\":1383:1402  i < _winners.length */\n      lt\n        /* \"contracts/trvx.sol\":1368:1522  for (uint i=0; i < _winners.length; i++){... */\n      iszero\n      tag_109\n      jumpi\n        /* \"contracts/trvx.sol\":1426:1439  storeUserData */\n      0x00\n      dup1\n      sload\n      swap1\n      0x0100\n      exp\n      swap1\n      div\n      0xffffffffffffffffffffffffffffffffffffffff\n      and\n        /* \"contracts/trvx.sol\":1426:1457  storeUserData.incrementTotalWon */\n      0xffffffffffffffffffffffffffffffffffffffff\n      and\n      0x1950111c\n        /* \"contracts/trvx.sol\":1458:1464  _users */\n      dup5\n        /* \"contracts/trvx.sol\":1465:1466  i */\n      dup4\n        /* \"contracts/trvx.sol\":1458:1467  _users[i] */\n      dup2\n      mload\n      dup2\n      lt\n      tag_111\n      jumpi\n      tag_112\n      tag_77\n      jump\t// in\n    tag_112:\n    tag_111:\n      0x20\n      mul\n      0x20\n      add\n      add\n      mload\n        /* \"contracts/trvx.sol\":1426:1468  storeUserData.incrementTotalWon(_users[i]) */\n      mload(0x40)\n      dup3\n      0xffffffff\n      and\n      0xe0\n      shl\n      dup2\n      mstore\n      0x04\n      add\n      tag_113\n      swap2\n      swap1\n      tag_13\n      jump\t// in\n    tag_113:\n      0x00\n      mload(0x40)\n      dup1\n      dup4\n      sub\n      dup2\n      0x00\n      dup8\n      dup1\n      extcodesize\n      iszero\n      dup1\n      iszero\n      tag_114\n      jumpi\n      0x00\n      dup1\n      revert\n    tag_114:\n      pop\n      gas\n      call\n      iszero\n      dup1\n      iszero\n      tag_116\n      jumpi\n      returndatasize\n      0x00\n      dup1\n      returndatacopy\n      revert(0x00, returndatasize)\n    tag_116:\n      pop\n      pop\n      pop\n      pop\n        /* \"contracts/trvx.sol\":1498:1504  _users */\n      dup3\n        /* \"contracts/trvx.sol\":1505:1506  i */\n      dup2\n        /* \"contracts/trvx.sol\":1498:1507  _users[i] */\n      dup2\n      mload\n      dup2\n      lt\n      tag_117\n      jumpi\n      tag_118\n      tag_77\n      jump\t// in\n    tag_118:\n    tag_117:\n      0x20\n      mul\n      0x20\n      add\n      add\n      mload\n        /* \"contracts/trvx.sol\":1486:1494  _winners */\n      dup3\n        /* \"contracts/trvx.sol\":1495:1496  i */\n      dup3\n        /* \"contracts/trvx.sol\":1486:1497  _winners[i] */\n      0x03\n      dup2\n      lt\n      tag_119\n      jumpi\n      tag_120\n      tag_77\n      jump\t// in\n    tag_120:\n    tag_119:\n      0x20\n      mul\n      add\n        /* \"contracts/trvx.sol\":1486:1507  _winners[i]=_users[i] */\n      swap1\n      0xffffffffffffffffffffffffffffffffffffffff\n      and\n      swap1\n      dup2\n      0xffffffffffffffffffffffffffffffffffffffff\n      and\n      dup2\n      mstore\n      pop\n      pop\n        /* \"contracts/trvx.sol\":1404:1407  i++ */\n      dup1\n      dup1\n      0x01\n      add\n      swap2\n      pop\n      pop\n        /* \"contracts/trvx.sol\":1368:1522  for (uint i=0; i < _winners.length; i++){... */\n      jump(tag_108)\n    tag_109:\n      pop\n        /* \"contracts/trvx.sol\":1554:1560  uint i */\n      0x00\n        /* \"contracts/trvx.sol\":1549:1666  for (uint i=0; i < _users.length; i++) {... */\n    tag_121:\n        /* \"contracts/trvx.sol\":1568:1574  _users */\n      dup3\n        /* \"contracts/trvx.sol\":1568:1581  _users.length */\n      mload\n        /* \"contracts/trvx.sol\":1564:1565  i */\n      dup2\n        /* \"contracts/trvx.sol\":1564:1581  i < _users.length */\n      lt\n        /* \"contracts/trvx.sol\":1549:1666  for (uint i=0; i < _users.length; i++) {... */\n      iszero\n      tag_122\n      jumpi\n        /* \"contracts/trvx.sol\":1606:1619  storeUserData */\n      0x00\n      dup1\n      sload\n      swap1\n      0x0100\n      exp\n      swap1\n      div\n      0xffffffffffffffffffffffffffffffffffffffff\n      and\n        /* \"contracts/trvx.sol\":1606:1640  storeUserData.incrementTotalPlayed */\n      0xffffffffffffffffffffffffffffffffffffffff\n      and\n      0x8a3202e9\n        /* \"contracts/trvx.sol\":1641:1647  _users */\n      dup5\n        /* \"contracts/trvx.sol\":1648:1649  i */\n      dup4\n        /* \"contracts/trvx.sol\":1641:1650  _users[i] */\n      dup2\n      mload\n      dup2\n      lt\n      tag_124\n      jumpi\n      tag_125\n      tag_77\n      jump\t// in\n    tag_125:\n    tag_124:\n      0x20\n      mul\n      0x20\n      add\n      add\n      mload\n        /* \"contracts/trvx.sol\":1606:1651  storeUserData.incrementTotalPlayed(_users[i]) */\n      mload(0x40)\n      dup3\n      0xffffffff\n      and\n      0xe0\n      shl\n      dup2\n      mstore\n      0x04\n      add\n      tag_126\n      swap2\n      swap1\n      tag_13\n      jump\t// in\n    tag_126:\n      0x00\n      mload(0x40)\n      dup1\n      dup4\n      sub\n      dup2\n      0x00\n      dup8\n      dup1\n      extcodesize\n      iszero\n      dup1\n      iszero\n      tag_127\n      jumpi\n      0x00\n      dup1\n      revert\n    tag_127:\n      pop\n      gas\n      call\n      iszero\n      dup1\n      iszero\n      tag_129\n      jumpi\n      returndatasize\n      0x00\n      dup1\n      returndatacopy\n      revert(0x00, returndatasize)\n    tag_129:\n      pop\n      pop\n      pop\n      pop\n        /* \"contracts/trvx.sol\":1583:1586  i++ */\n      dup1\n      dup1\n      0x01\n      add\n      swap2\n      pop\n      pop\n        /* \"contracts/trvx.sol\":1549:1666  for (uint i=0; i < _users.length; i++) {... */\n      jump(tag_121)\n    tag_122:\n      pop\n        /* \"contracts/trvx.sol\":1685:1691  uint i */\n      0x00\n        /* \"contracts/trvx.sol\":1692:1693  3 */\n      0x03\n        /* \"contracts/trvx.sol\":1685:1693  uint i=3 */\n      swap1\n      pop\n        /* \"contracts/trvx.sol\":1680:1831  for (uint i=3; i < _users.length; i++){... */\n    tag_130:\n        /* \"contracts/trvx.sol\":1699:1705  _users */\n      dup3\n        /* \"contracts/trvx.sol\":1699:1712  _users.length */\n      mload\n        /* \"contracts/trvx.sol\":1695:1696  i */\n      dup2\n        /* \"contracts/trvx.sol\":1695:1712  i < _users.length */\n      lt\n        /* \"contracts/trvx.sol\":1680:1831  for (uint i=3; i < _users.length; i++){... */\n      iszero\n      tag_131\n      jumpi\n        /* \"contracts/trvx.sol\":1778:1791  storeUserData */\n      0x00\n      dup1\n      sload\n      swap1\n      0x0100\n      exp\n      swap1\n      div\n      0xffffffffffffffffffffffffffffffffffffffff\n      and\n        /* \"contracts/trvx.sol\":1778:1805  storeUserData.userTotalLoss */\n      0xffffffffffffffffffffffffffffffffffffffff\n      and\n      0xc651c426\n        /* \"contracts/trvx.sol\":1806:1812  _users */\n      dup5\n        /* \"contracts/trvx.sol\":1813:1814  i */\n      dup4\n        /* \"contracts/trvx.sol\":1806:1815  _users[i] */\n      dup2\n      mload\n      dup2\n      lt\n      tag_133\n      jumpi\n      tag_134\n      tag_77\n      jump\t// in\n    tag_134:\n    tag_133:\n      0x20\n      mul\n      0x20\n      add\n      add\n      mload\n        /* \"contracts/trvx.sol\":1778:1816  storeUserData.userTotalLoss(_users[i]) */\n      mload(0x40)\n      dup3\n      0xffffffff\n      and\n      0xe0\n      shl\n      dup2\n      mstore\n      0x04\n      add\n      tag_135\n      swap2\n      swap1\n      tag_13\n      jump\t// in\n    tag_135:\n      0x20\n      mload(0x40)\n      dup1\n      dup4\n      sub\n      dup2\n      dup7\n      gas\n      staticcall\n      iszero\n      dup1\n      iszero\n      tag_137\n      jumpi\n      returndatasize\n      0x00\n      dup1\n      returndatacopy\n      revert(0x00, returndatasize)\n    tag_137:\n      pop\n      pop\n      pop\n      pop\n      mload(0x40)\n      returndatasize\n      not(0x1f)\n      0x1f\n      dup3\n      add\n      and\n      dup3\n      add\n      dup1\n      0x40\n      mstore\n      pop\n      dup2\n      add\n      swap1\n      tag_138\n      swap2\n      swap1\n      tag_36\n      jump\t// in\n    tag_138:\n      pop\n        /* \"contracts/trvx.sol\":1714:1717  i++ */\n      dup1\n      dup1\n      0x01\n      add\n      swap2\n      pop\n      pop\n        /* \"contracts/trvx.sol\":1680:1831  for (uint i=3; i < _users.length; i++){... */\n      jump(tag_130)\n    tag_131:\n      pop\n        /* \"contracts/trvx.sol\":1314:1841  {... */\n      pop\n        /* \"contracts/trvx.sol\":1262:1841  function sendInfo(address[] memory _users) external {... */\n      pop\n      jump\t// out\n    tag_99:\n      pop\n      dup1\n      sload\n      0x00\n      dup3\n      sstore\n      swap1\n      0x00\n      mstore\n      keccak256(0x00, 0x20)\n      swap1\n      dup2\n      add\n      swap1\n      tag_140\n      swap2\n      swap1\n      tag_141\n      jump\t// in\n    tag_140:\n      pop\n      jump\t// out\n    tag_107:\n      mload(0x40)\n      dup1\n      0x60\n      add\n      0x40\n      mstore\n      dup1\n      0x03\n      swap1\n      0x20\n      dup3\n      mul\n      dup1\n      calldatasize\n      dup4\n      calldatacopy\n      dup1\n      dup3\n      add\n      swap2\n      pop\n      pop\n      swap1\n      pop\n      pop\n      swap1\n      jump\t// out\n    tag_141:\n    tag_142:\n      dup1\n      dup3\n      gt\n      iszero\n      tag_143\n      jumpi\n      0x00\n      dup2\n      0x00\n      swap1\n      sstore\n      pop\n      0x01\n      add\n      jump(tag_142)\n    tag_143:\n      pop\n      swap1\n      jump\t// out\n        /* \"#utility.yul\":7:82   */\n    tag_144:\n        /* \"#utility.yul\":40:46   */\n      0x00\n        /* \"#utility.yul\":73:75   */\n      0x40\n        /* \"#utility.yul\":67:76   */\n      mload\n        /* \"#utility.yul\":57:76   */\n      swap1\n      pop\n        /* \"#utility.yul\":7:82   */\n      swap1\n      jump\t// out\n        /* \"#utility.yul\":88:205   */\n    tag_145:\n        /* \"#utility.yul\":197:198   */\n      0x00\n        /* \"#utility.yul\":194:195   */\n      dup1\n        /* \"#utility.yul\":187:199   */\n      revert\n        /* \"#utility.yul\":211:328   */\n    tag_146:\n        /* \"#utility.yul\":320:321   */\n      0x00\n        /* \"#utility.yul\":317:318   */\n      dup1\n        /* \"#utility.yul\":310:322   */\n      revert\n        /* \"#utility.yul\":334:411   */\n    tag_147:\n        /* \"#utility.yul\":371:378   */\n      0x00\n        /* \"#utility.yul\":400:405   */\n      dup2\n        /* \"#utility.yul\":389:405   */\n      swap1\n      pop\n        /* \"#utility.yul\":334:411   */\n      swap2\n      swap1\n      pop\n      jump\t// out\n        /* \"#utility.yul\":417:539   */\n    tag_148:\n        /* \"#utility.yul\":490:514   */\n      tag_180\n        /* \"#utility.yul\":508:513   */\n      dup2\n        /* \"#utility.yul\":490:514   */\n      tag_147\n      jump\t// in\n    tag_180:\n        /* \"#utility.yul\":483:488   */\n      dup2\n        /* \"#utility.yul\":480:515   */\n      eq\n        /* \"#utility.yul\":470:533   */\n      tag_181\n      jumpi\n        /* \"#utility.yul\":529:530   */\n      0x00\n        /* \"#utility.yul\":526:527   */\n      dup1\n        /* \"#utility.yul\":519:531   */\n      revert\n        /* \"#utility.yul\":470:533   */\n    tag_181:\n        /* \"#utility.yul\":417:539   */\n      pop\n      jump\t// out\n        /* \"#utility.yul\":545:684   */\n    tag_149:\n        /* \"#utility.yul\":591:596   */\n      0x00\n        /* \"#utility.yul\":629:635   */\n      dup2\n        /* \"#utility.yul\":616:636   */\n      calldataload\n        /* \"#utility.yul\":607:636   */\n      swap1\n      pop\n        /* \"#utility.yul\":645:678   */\n      tag_183\n        /* \"#utility.yul\":672:677   */\n      dup2\n        /* \"#utility.yul\":645:678   */\n      tag_148\n      jump\t// in\n    tag_183:\n        /* \"#utility.yul\":545:684   */\n      swap3\n      swap2\n      pop\n      pop\n      jump\t// out\n        /* \"#utility.yul\":690:1019   */\n    tag_10:\n        /* \"#utility.yul\":749:755   */\n      0x00\n        /* \"#utility.yul\":798:800   */\n      0x20\n        /* \"#utility.yul\":786:795   */\n      dup3\n        /* \"#utility.yul\":777:784   */\n      dup5\n        /* \"#utility.yul\":773:796   */\n      sub\n        /* \"#utility.yul\":769:801   */\n      slt\n        /* \"#utility.yul\":766:885   */\n      iszero\n      tag_185\n      jumpi\n        /* \"#utility.yul\":804:883   */\n      tag_186\n      tag_145\n      jump\t// in\n    tag_186:\n        /* \"#utility.yul\":766:885   */\n    tag_185:\n        /* \"#utility.yul\":924:925   */\n      0x00\n        /* \"#utility.yul\":949:1002   */\n      tag_187\n        /* \"#utility.yul\":994:1001   */\n      dup5\n        /* \"#utility.yul\":985:991   */\n      dup3\n        /* \"#utility.yul\":974:983   */\n      dup6\n        /* \"#utility.yul\":970:992   */\n      add\n        /* \"#utility.yul\":949:1002   */\n      tag_149\n      jump\t// in\n    tag_187:\n        /* \"#utility.yul\":939:1002   */\n      swap2\n      pop\n        /* \"#utility.yul\":895:1012   */\n      pop\n        /* \"#utility.yul\":690:1019   */\n      swap3\n      swap2\n      pop\n      pop\n      jump\t// out\n        /* \"#utility.yul\":1025:1151   */\n    tag_150:\n        /* \"#utility.yul\":1062:1069   */\n      0x00\n        /* \"#utility.yul\":1102:1144   */\n      0xffffffffffffffffffffffffffffffffffffffff\n        /* \"#utility.yul\":1095:1100   */\n      dup3\n        /* \"#utility.yul\":1091:1145   */\n      and\n        /* \"#utility.yul\":1080:1145   */\n      swap1\n      pop\n        /* \"#utility.yul\":1025:1151   */\n      swap2\n      swap1\n      pop\n      jump\t// out\n        /* \"#utility.yul\":1157:1253   */\n    tag_151:\n        /* \"#utility.yul\":1194:1201   */\n      0x00\n        /* \"#utility.yul\":1223:1247   */\n      tag_190\n        /* \"#utility.yul\":1241:1246   */\n      dup3\n        /* \"#utility.yul\":1223:1247   */\n      tag_150\n      jump\t// in\n    tag_190:\n        /* \"#utility.yul\":1212:1247   */\n      swap1\n      pop\n        /* \"#utility.yul\":1157:1253   */\n      swap2\n      swap1\n      pop\n      jump\t// out\n        /* \"#utility.yul\":1259:1377   */\n    tag_152:\n        /* \"#utility.yul\":1346:1370   */\n      tag_192\n        /* \"#utility.yul\":1364:1369   */\n      dup2\n        /* \"#utility.yul\":1346:1370   */\n      tag_151\n      jump\t// in\n    tag_192:\n        /* \"#utility.yul\":1341:1344   */\n      dup3\n        /* \"#utility.yul\":1334:1371   */\n      mstore\n        /* \"#utility.yul\":1259:1377   */\n      pop\n      pop\n      jump\t// out\n        /* \"#utility.yul\":1383:1605   */\n    tag_13:\n        /* \"#utility.yul\":1476:1480   */\n      0x00\n        /* \"#utility.yul\":1514:1516   */\n      0x20\n        /* \"#utility.yul\":1503:1512   */\n      dup3\n        /* \"#utility.yul\":1499:1517   */\n      add\n        /* \"#utility.yul\":1491:1517   */\n      swap1\n      pop\n        /* \"#utility.yul\":1527:1598   */\n      tag_194\n        /* \"#utility.yul\":1595:1596   */\n      0x00\n        /* \"#utility.yul\":1584:1593   */\n      dup4\n        /* \"#utility.yul\":1580:1597   */\n      add\n        /* \"#utility.yul\":1571:1577   */\n      dup5\n        /* \"#utility.yul\":1527:1598   */\n      tag_152\n      jump\t// in\n    tag_194:\n        /* \"#utility.yul\":1383:1605   */\n      swap3\n      swap2\n      pop\n      pop\n      jump\t// out\n        /* \"#utility.yul\":1611:1733   */\n    tag_153:\n        /* \"#utility.yul\":1684:1708   */\n      tag_196\n        /* \"#utility.yul\":1702:1707   */\n      dup2\n        /* \"#utility.yul\":1684:1708   */\n      tag_151\n      jump\t// in\n    tag_196:\n        /* \"#utility.yul\":1677:1682   */\n      dup2\n        /* \"#utility.yul\":1674:1709   */\n      eq\n        /* \"#utility.yul\":1664:1727   */\n      tag_197\n      jumpi\n        /* \"#utility.yul\":1723:1724   */\n      0x00\n        /* \"#utility.yul\":1720:1721   */\n      dup1\n        /* \"#utility.yul\":1713:1725   */\n      revert\n        /* \"#utility.yul\":1664:1727   */\n    tag_197:\n        /* \"#utility.yul\":1611:1733   */\n      pop\n      jump\t// out\n        /* \"#utility.yul\":1739:1878   */\n    tag_154:\n        /* \"#utility.yul\":1785:1790   */\n      0x00\n        /* \"#utility.yul\":1823:1829   */\n      dup2\n        /* \"#utility.yul\":1810:1830   */\n      calldataload\n        /* \"#utility.yul\":1801:1830   */\n      swap1\n      pop\n        /* \"#utility.yul\":1839:1872   */\n      tag_199\n        /* \"#utility.yul\":1866:1871   */\n      dup2\n        /* \"#utility.yul\":1839:1872   */\n      tag_153\n      jump\t// in\n    tag_199:\n        /* \"#utility.yul\":1739:1878   */\n      swap3\n      swap2\n      pop\n      pop\n      jump\t// out\n        /* \"#utility.yul\":1884:2213   */\n    tag_16:\n        /* \"#utility.yul\":1943:1949   */\n      0x00\n        /* \"#utility.yul\":1992:1994   */\n      0x20\n        /* \"#utility.yul\":1980:1989   */\n      dup3\n        /* \"#utility.yul\":1971:1978   */\n      dup5\n        /* \"#utility.yul\":1967:1990   */\n      sub\n        /* \"#utility.yul\":1963:1995   */\n      slt\n        /* \"#utility.yul\":1960:2079   */\n      iszero\n      tag_201\n      jumpi\n        /* \"#utility.yul\":1998:2077   */\n      tag_202\n      tag_145\n      jump\t// in\n    tag_202:\n        /* \"#utility.yul\":1960:2079   */\n    tag_201:\n        /* \"#utility.yul\":2118:2119   */\n      0x00\n        /* \"#utility.yul\":2143:2196   */\n      tag_203\n        /* \"#utility.yul\":2188:2195   */\n      dup5\n        /* \"#utility.yul\":2179:2185   */\n      dup3\n        /* \"#utility.yul\":2168:2177   */\n      dup6\n        /* \"#utility.yul\":2164:2186   */\n      add\n        /* \"#utility.yul\":2143:2196   */\n      tag_154\n      jump\t// in\n    tag_203:\n        /* \"#utility.yul\":2133:2196   */\n      swap2\n      pop\n        /* \"#utility.yul\":2089:2206   */\n      pop\n        /* \"#utility.yul\":1884:2213   */\n      swap3\n      swap2\n      pop\n      pop\n      jump\t// out\n        /* \"#utility.yul\":2219:2337   */\n    tag_155:\n        /* \"#utility.yul\":2306:2330   */\n      tag_205\n        /* \"#utility.yul\":2324:2329   */\n      dup2\n        /* \"#utility.yul\":2306:2330   */\n      tag_147\n      jump\t// in\n    tag_205:\n        /* \"#utility.yul\":2301:2304   */\n      dup3\n        /* \"#utility.yul\":2294:2331   */\n      mstore\n        /* \"#utility.yul\":2219:2337   */\n      pop\n      pop\n      jump\t// out\n        /* \"#utility.yul\":2343:2675   */\n    tag_19:\n        /* \"#utility.yul\":2464:2468   */\n      0x00\n        /* \"#utility.yul\":2502:2504   */\n      0x40\n        /* \"#utility.yul\":2491:2500   */\n      dup3\n        /* \"#utility.yul\":2487:2505   */\n      add\n        /* \"#utility.yul\":2479:2505   */\n      swap1\n      pop\n        /* \"#utility.yul\":2515:2586   */\n      tag_207\n        /* \"#utility.yul\":2583:2584   */\n      0x00\n        /* \"#utility.yul\":2572:2581   */\n      dup4\n        /* \"#utility.yul\":2568:2585   */\n      add\n        /* \"#utility.yul\":2559:2565   */\n      dup6\n        /* \"#utility.yul\":2515:2586   */\n      tag_155\n      jump\t// in\n    tag_207:\n        /* \"#utility.yul\":2596:2668   */\n      tag_208\n        /* \"#utility.yul\":2664:2666   */\n      0x20\n        /* \"#utility.yul\":2653:2662   */\n      dup4\n        /* \"#utility.yul\":2649:2667   */\n      add\n        /* \"#utility.yul\":2640:2646   */\n      dup5\n        /* \"#utility.yul\":2596:2668   */\n      tag_155\n      jump\t// in\n    tag_208:\n        /* \"#utility.yul\":2343:2675   */\n      swap4\n      swap3\n      pop\n      pop\n      pop\n      jump\t// out\n        /* \"#utility.yul\":2681:2903   */\n    tag_26:\n        /* \"#utility.yul\":2774:2778   */\n      0x00\n        /* \"#utility.yul\":2812:2814   */\n      0x20\n        /* \"#utility.yul\":2801:2810   */\n      dup3\n        /* \"#utility.yul\":2797:2815   */\n      add\n        /* \"#utility.yul\":2789:2815   */\n      swap1\n      pop\n        /* \"#utility.yul\":2825:2896   */\n      tag_210\n        /* \"#utility.yul\":2893:2894   */\n      0x00\n        /* \"#utility.yul\":2882:2891   */\n      dup4\n        /* \"#utility.yul\":2878:2895   */\n      add\n        /* \"#utility.yul\":2869:2875   */\n      dup5\n        /* \"#utility.yul\":2825:2896   */\n      tag_155\n      jump\t// in\n    tag_210:\n        /* \"#utility.yul\":2681:2903   */\n      swap3\n      swap2\n      pop\n      pop\n      jump\t// out\n        /* \"#utility.yul\":2909:3026   */\n    tag_156:\n        /* \"#utility.yul\":3018:3019   */\n      0x00\n        /* \"#utility.yul\":3015:3016   */\n      dup1\n        /* \"#utility.yul\":3008:3020   */\n      revert\n        /* \"#utility.yul\":3032:3134   */\n    tag_157:\n        /* \"#utility.yul\":3073:3079   */\n      0x00\n        /* \"#utility.yul\":3124:3126   */\n      0x1f\n        /* \"#utility.yul\":3120:3127   */\n      not\n        /* \"#utility.yul\":3115:3117   */\n      0x1f\n        /* \"#utility.yul\":3108:3113   */\n      dup4\n        /* \"#utility.yul\":3104:3118   */\n      add\n        /* \"#utility.yul\":3100:3128   */\n      and\n        /* \"#utility.yul\":3090:3128   */\n      swap1\n      pop\n        /* \"#utility.yul\":3032:3134   */\n      swap2\n      swap1\n      pop\n      jump\t// out\n        /* \"#utility.yul\":3140:3320   */\n    tag_158:\n        /* \"#utility.yul\":3188:3265   */\n      0x4e487b7100000000000000000000000000000000000000000000000000000000\n        /* \"#utility.yul\":3185:3186   */\n      0x00\n        /* \"#utility.yul\":3178:3266   */\n      mstore\n        /* \"#utility.yul\":3285:3289   */\n      0x41\n        /* \"#utility.yul\":3282:3283   */\n      0x04\n        /* \"#utility.yul\":3275:3290   */\n      mstore\n        /* \"#utility.yul\":3309:3313   */\n      0x24\n        /* \"#utility.yul\":3306:3307   */\n      0x00\n        /* \"#utility.yul\":3299:3314   */\n      revert\n        /* \"#utility.yul\":3326:3607   */\n    tag_159:\n        /* \"#utility.yul\":3409:3436   */\n      tag_215\n        /* \"#utility.yul\":3431:3435   */\n      dup3\n        /* \"#utility.yul\":3409:3436   */\n      tag_157\n      jump\t// in\n    tag_215:\n        /* \"#utility.yul\":3401:3407   */\n      dup2\n        /* \"#utility.yul\":3397:3437   */\n      add\n        /* \"#utility.yul\":3539:3545   */\n      dup2\n        /* \"#utility.yul\":3527:3537   */\n      dup2\n        /* \"#utility.yul\":3524:3546   */\n      lt\n        /* \"#utility.yul\":3503:3521   */\n      0xffffffffffffffff\n        /* \"#utility.yul\":3491:3501   */\n      dup3\n        /* \"#utility.yul\":3488:3522   */\n      gt\n        /* \"#utility.yul\":3485:3547   */\n      or\n        /* \"#utility.yul\":3482:3570   */\n      iszero\n      tag_216\n      jumpi\n        /* \"#utility.yul\":3550:3568   */\n      tag_217\n      tag_158\n      jump\t// in\n    tag_217:\n        /* \"#utility.yul\":3482:3570   */\n    tag_216:\n        /* \"#utility.yul\":3590:3600   */\n      dup1\n        /* \"#utility.yul\":3586:3588   */\n      0x40\n        /* \"#utility.yul\":3579:3601   */\n      mstore\n        /* \"#utility.yul\":3369:3607   */\n      pop\n        /* \"#utility.yul\":3326:3607   */\n      pop\n      pop\n      jump\t// out\n        /* \"#utility.yul\":3613:3742   */\n    tag_160:\n        /* \"#utility.yul\":3647:3653   */\n      0x00\n        /* \"#utility.yul\":3674:3694   */\n      tag_219\n      tag_144\n      jump\t// in\n    tag_219:\n        /* \"#utility.yul\":3664:3694   */\n      swap1\n      pop\n        /* \"#utility.yul\":3703:3736   */\n      tag_220\n        /* \"#utility.yul\":3731:3735   */\n      dup3\n        /* \"#utility.yul\":3723:3729   */\n      dup3\n        /* \"#utility.yul\":3703:3736   */\n      tag_159\n      jump\t// in\n    tag_220:\n        /* \"#utility.yul\":3613:3742   */\n      swap2\n      swap1\n      pop\n      jump\t// out\n        /* \"#utility.yul\":3748:4059   */\n    tag_161:\n        /* \"#utility.yul\":3825:3829   */\n      0x00\n        /* \"#utility.yul\":3915:3933   */\n      0xffffffffffffffff\n        /* \"#utility.yul\":3907:3913   */\n      dup3\n        /* \"#utility.yul\":3904:3934   */\n      gt\n        /* \"#utility.yul\":3901:3957   */\n      iszero\n      tag_222\n      jumpi\n        /* \"#utility.yul\":3937:3955   */\n      tag_223\n      tag_158\n      jump\t// in\n    tag_223:\n        /* \"#utility.yul\":3901:3957   */\n    tag_222:\n        /* \"#utility.yul\":3987:3991   */\n      0x20\n        /* \"#utility.yul\":3979:3985   */\n      dup3\n        /* \"#utility.yul\":3975:3992   */\n      mul\n        /* \"#utility.yul\":3967:3992   */\n      swap1\n      pop\n        /* \"#utility.yul\":4047:4051   */\n      0x20\n        /* \"#utility.yul\":4041:4045   */\n      dup2\n        /* \"#utility.yul\":4037:4052   */\n      add\n        /* \"#utility.yul\":4029:4052   */\n      swap1\n      pop\n        /* \"#utility.yul\":3748:4059   */\n      swap2\n      swap1\n      pop\n      jump\t// out\n        /* \"#utility.yul\":4065:4182   */\n    tag_162:\n        /* \"#utility.yul\":4174:4175   */\n      0x00\n        /* \"#utility.yul\":4171:4172   */\n      dup1\n        /* \"#utility.yul\":4164:4176   */\n      revert\n        /* \"#utility.yul\":4205:4915   */\n    tag_163:\n        /* \"#utility.yul\":4301:4306   */\n      0x00\n        /* \"#utility.yul\":4326:4407   */\n      tag_226\n        /* \"#utility.yul\":4342:4406   */\n      tag_227\n        /* \"#utility.yul\":4399:4405   */\n      dup5\n        /* \"#utility.yul\":4342:4406   */\n      tag_161\n      jump\t// in\n    tag_227:\n        /* \"#utility.yul\":4326:4407   */\n      tag_160\n      jump\t// in\n    tag_226:\n        /* \"#utility.yul\":4317:4407   */\n      swap1\n      pop\n        /* \"#utility.yul\":4427:4432   */\n      dup1\n        /* \"#utility.yul\":4456:4462   */\n      dup4\n        /* \"#utility.yul\":4449:4454   */\n      dup3\n        /* \"#utility.yul\":4442:4463   */\n      mstore\n        /* \"#utility.yul\":4490:4494   */\n      0x20\n        /* \"#utility.yul\":4483:4488   */\n      dup3\n        /* \"#utility.yul\":4479:4495   */\n      add\n        /* \"#utility.yul\":4472:4495   */\n      swap1\n      pop\n        /* \"#utility.yul\":4543:4547   */\n      0x20\n        /* \"#utility.yul\":4535:4541   */\n      dup5\n        /* \"#utility.yul\":4531:4548   */\n      mul\n        /* \"#utility.yul\":4523:4529   */\n      dup4\n        /* \"#utility.yul\":4519:4549   */\n      add\n        /* \"#utility.yul\":4572:4575   */\n      dup6\n        /* \"#utility.yul\":4564:4570   */\n      dup2\n        /* \"#utility.yul\":4561:4576   */\n      gt\n        /* \"#utility.yul\":4558:4680   */\n      iszero\n      tag_228\n      jumpi\n        /* \"#utility.yul\":4591:4670   */\n      tag_229\n      tag_162\n      jump\t// in\n    tag_229:\n        /* \"#utility.yul\":4558:4680   */\n    tag_228:\n        /* \"#utility.yul\":4706:4712   */\n      dup4\n        /* \"#utility.yul\":4689:4909   */\n    tag_230:\n        /* \"#utility.yul\":4723:4729   */\n      dup2\n        /* \"#utility.yul\":4718:4721   */\n      dup2\n        /* \"#utility.yul\":4715:4730   */\n      lt\n        /* \"#utility.yul\":4689:4909   */\n      iszero\n      tag_232\n      jumpi\n        /* \"#utility.yul\":4798:4801   */\n      dup1\n        /* \"#utility.yul\":4827:4864   */\n      tag_233\n        /* \"#utility.yul\":4860:4863   */\n      dup9\n        /* \"#utility.yul\":4848:4858   */\n      dup3\n        /* \"#utility.yul\":4827:4864   */\n      tag_154\n      jump\t// in\n    tag_233:\n        /* \"#utility.yul\":4822:4825   */\n      dup5\n        /* \"#utility.yul\":4815:4865   */\n      mstore\n        /* \"#utility.yul\":4894:4898   */\n      0x20\n        /* \"#utility.yul\":4889:4892   */\n      dup5\n        /* \"#utility.yul\":4885:4899   */\n      add\n        /* \"#utility.yul\":4878:4899   */\n      swap4\n      pop\n        /* \"#utility.yul\":4765:4909   */\n      pop\n        /* \"#utility.yul\":4749:4753   */\n      0x20\n        /* \"#utility.yul\":4744:4747   */\n      dup2\n        /* \"#utility.yul\":4740:4754   */\n      add\n        /* \"#utility.yul\":4733:4754   */\n      swap1\n      pop\n        /* \"#utility.yul\":4689:4909   */\n      jump(tag_230)\n    tag_232:\n        /* \"#utility.yul\":4693:4714   */\n      pop\n        /* \"#utility.yul\":4307:4915   */\n      pop\n      pop\n        /* \"#utility.yul\":4205:4915   */\n      swap4\n      swap3\n      pop\n      pop\n      pop\n      jump\t// out\n        /* \"#utility.yul\":4938:5308   */\n    tag_164:\n        /* \"#utility.yul\":5009:5014   */\n      0x00\n        /* \"#utility.yul\":5058:5061   */\n      dup3\n        /* \"#utility.yul\":5051:5055   */\n      0x1f\n        /* \"#utility.yul\":5043:5049   */\n      dup4\n        /* \"#utility.yul\":5039:5056   */\n      add\n        /* \"#utility.yul\":5035:5062   */\n      slt\n        /* \"#utility.yul\":5025:5147   */\n      tag_235\n      jumpi\n        /* \"#utility.yul\":5066:5145   */\n      tag_236\n      tag_156\n      jump\t// in\n    tag_236:\n        /* \"#utility.yul\":5025:5147   */\n    tag_235:\n        /* \"#utility.yul\":5183:5189   */\n      dup2\n        /* \"#utility.yul\":5170:5190   */\n      calldataload\n        /* \"#utility.yul\":5208:5302   */\n      tag_237\n        /* \"#utility.yul\":5298:5301   */\n      dup5\n        /* \"#utility.yul\":5290:5296   */\n      dup3\n        /* \"#utility.yul\":5283:5287   */\n      0x20\n        /* \"#utility.yul\":5275:5281   */\n      dup7\n        /* \"#utility.yul\":5271:5288   */\n      add\n        /* \"#utility.yul\":5208:5302   */\n      tag_163\n      jump\t// in\n    tag_237:\n        /* \"#utility.yul\":5199:5302   */\n      swap2\n      pop\n        /* \"#utility.yul\":5015:5308   */\n      pop\n        /* \"#utility.yul\":4938:5308   */\n      swap3\n      swap2\n      pop\n      pop\n      jump\t// out\n        /* \"#utility.yul\":5314:5853   */\n    tag_29:\n        /* \"#utility.yul\":5398:5404   */\n      0x00\n        /* \"#utility.yul\":5447:5449   */\n      0x20\n        /* \"#utility.yul\":5435:5444   */\n      dup3\n        /* \"#utility.yul\":5426:5433   */\n      dup5\n        /* \"#utility.yul\":5422:5445   */\n      sub\n        /* \"#utility.yul\":5418:5450   */\n      slt\n        /* \"#utility.yul\":5415:5534   */\n      iszero\n      tag_239\n      jumpi\n        /* \"#utility.yul\":5453:5532   */\n      tag_240\n      tag_145\n      jump\t// in\n    tag_240:\n        /* \"#utility.yul\":5415:5534   */\n    tag_239:\n        /* \"#utility.yul\":5601:5602   */\n      0x00\n        /* \"#utility.yul\":5590:5599   */\n      dup3\n        /* \"#utility.yul\":5586:5603   */\n      add\n        /* \"#utility.yul\":5573:5604   */\n      calldataload\n        /* \"#utility.yul\":5631:5649   */\n      0xffffffffffffffff\n        /* \"#utility.yul\":5623:5629   */\n      dup2\n        /* \"#utility.yul\":5620:5650   */\n      gt\n        /* \"#utility.yul\":5617:5734   */\n      iszero\n      tag_241\n      jumpi\n        /* \"#utility.yul\":5653:5732   */\n      tag_242\n      tag_146\n      jump\t// in\n    tag_242:\n        /* \"#utility.yul\":5617:5734   */\n    tag_241:\n        /* \"#utility.yul\":5758:5836   */\n      tag_243\n        /* \"#utility.yul\":5828:5835   */\n      dup5\n        /* \"#utility.yul\":5819:5825   */\n      dup3\n        /* \"#utility.yul\":5808:5817   */\n      dup6\n        /* \"#utility.yul\":5804:5826   */\n      add\n        /* \"#utility.yul\":5758:5836   */\n      tag_164\n      jump\t// in\n    tag_243:\n        /* \"#utility.yul\":5748:5836   */\n      swap2\n      pop\n        /* \"#utility.yul\":5544:5846   */\n      pop\n        /* \"#utility.yul\":5314:5853   */\n      swap3\n      swap2\n      pop\n      pop\n      jump\t// out\n        /* \"#utility.yul\":5859:6002   */\n    tag_165:\n        /* \"#utility.yul\":5916:5921   */\n      0x00\n        /* \"#utility.yul\":5947:5953   */\n      dup2\n        /* \"#utility.yul\":5941:5954   */\n      mload\n        /* \"#utility.yul\":5932:5954   */\n      swap1\n      pop\n        /* \"#utility.yul\":5963:5996   */\n      tag_245\n        /* \"#utility.yul\":5990:5995   */\n      dup2\n        /* \"#utility.yul\":5963:5996   */\n      tag_148\n      jump\t// in\n    tag_245:\n        /* \"#utility.yul\":5859:6002   */\n      swap3\n      swap2\n      pop\n      pop\n      jump\t// out\n        /* \"#utility.yul\":6008:6359   */\n    tag_36:\n        /* \"#utility.yul\":6078:6084   */\n      0x00\n        /* \"#utility.yul\":6127:6129   */\n      0x20\n        /* \"#utility.yul\":6115:6124   */\n      dup3\n        /* \"#utility.yul\":6106:6113   */\n      dup5\n        /* \"#utility.yul\":6102:6125   */\n      sub\n        /* \"#utility.yul\":6098:6130   */\n      slt\n        /* \"#utility.yul\":6095:6214   */\n      iszero\n      tag_247\n      jumpi\n        /* \"#utility.yul\":6133:6212   */\n      tag_248\n      tag_145\n      jump\t// in\n    tag_248:\n        /* \"#utility.yul\":6095:6214   */\n    tag_247:\n        /* \"#utility.yul\":6253:6254   */\n      0x00\n        /* \"#utility.yul\":6278:6342   */\n      tag_249\n        /* \"#utility.yul\":6334:6341   */\n      dup5\n        /* \"#utility.yul\":6325:6331   */\n      dup3\n        /* \"#utility.yul\":6314:6323   */\n      dup6\n        /* \"#utility.yul\":6310:6332   */\n      add\n        /* \"#utility.yul\":6278:6342   */\n      tag_165\n      jump\t// in\n    tag_249:\n        /* \"#utility.yul\":6268:6342   */\n      swap2\n      pop\n        /* \"#utility.yul\":6224:6352   */\n      pop\n        /* \"#utility.yul\":6008:6359   */\n      swap3\n      swap2\n      pop\n      pop\n      jump\t// out\n        /* \"#utility.yul\":6365:6534   */\n    tag_166:\n        /* \"#utility.yul\":6449:6460   */\n      0x00\n        /* \"#utility.yul\":6483:6489   */\n      dup3\n        /* \"#utility.yul\":6478:6481   */\n      dup3\n        /* \"#utility.yul\":6471:6490   */\n      mstore\n        /* \"#utility.yul\":6523:6527   */\n      0x20\n        /* \"#utility.yul\":6518:6521   */\n      dup3\n        /* \"#utility.yul\":6514:6528   */\n      add\n        /* \"#utility.yul\":6499:6528   */\n      swap1\n      pop\n        /* \"#utility.yul\":6365:6534   */\n      swap3\n      swap2\n      pop\n      pop\n      jump\t// out\n        /* \"#utility.yul\":6540:6709   */\n    tag_167:\n        /* \"#utility.yul\":6680:6701   */\n      0x496e737566666963656e742042616c616e636500000000000000000000000000\n        /* \"#utility.yul\":6676:6677   */\n      0x00\n        /* \"#utility.yul\":6668:6674   */\n      dup3\n        /* \"#utility.yul\":6664:6678   */\n      add\n        /* \"#utility.yul\":6657:6702   */\n      mstore\n        /* \"#utility.yul\":6540:6709   */\n      pop\n      jump\t// out\n        /* \"#utility.yul\":6715:7081   */\n    tag_168:\n        /* \"#utility.yul\":6857:6860   */\n      0x00\n        /* \"#utility.yul\":6878:6945   */\n      tag_253\n        /* \"#utility.yul\":6942:6944   */\n      0x13\n        /* \"#utility.yul\":6937:6940   */\n      dup4\n        /* \"#utility.yul\":6878:6945   */\n      tag_166\n      jump\t// in\n    tag_253:\n        /* \"#utility.yul\":6871:6945   */\n      swap2\n      pop\n        /* \"#utility.yul\":6954:7047   */\n      tag_254\n        /* \"#utility.yul\":7043:7046   */\n      dup3\n        /* \"#utility.yul\":6954:7047   */\n      tag_167\n      jump\t// in\n    tag_254:\n        /* \"#utility.yul\":7072:7074   */\n      0x20\n        /* \"#utility.yul\":7067:7070   */\n      dup3\n        /* \"#utility.yul\":7063:7075   */\n      add\n        /* \"#utility.yul\":7056:7075   */\n      swap1\n      pop\n        /* \"#utility.yul\":6715:7081   */\n      swap2\n      swap1\n      pop\n      jump\t// out\n        /* \"#utility.yul\":7087:7506   */\n    tag_39:\n        /* \"#utility.yul\":7253:7257   */\n      0x00\n        /* \"#utility.yul\":7291:7293   */\n      0x20\n        /* \"#utility.yul\":7280:7289   */\n      dup3\n        /* \"#utility.yul\":7276:7294   */\n      add\n        /* \"#utility.yul\":7268:7294   */\n      swap1\n      pop\n        /* \"#utility.yul\":7340:7349   */\n      dup2\n        /* \"#utility.yul\":7334:7338   */\n      dup2\n        /* \"#utility.yul\":7330:7350   */\n      sub\n        /* \"#utility.yul\":7326:7327   */\n      0x00\n        /* \"#utility.yul\":7315:7324   */\n      dup4\n        /* \"#utility.yul\":7311:7328   */\n      add\n        /* \"#utility.yul\":7304:7351   */\n      mstore\n        /* \"#utility.yul\":7368:7499   */\n      tag_256\n        /* \"#utility.yul\":7494:7498   */\n      dup2\n        /* \"#utility.yul\":7368:7499   */\n      tag_168\n      jump\t// in\n    tag_256:\n        /* \"#utility.yul\":7360:7499   */\n      swap1\n      pop\n        /* \"#utility.yul\":7087:7506   */\n      swap2\n      swap1\n      pop\n      jump\t// out\n        /* \"#utility.yul\":7512:7954   */\n    tag_41:\n        /* \"#utility.yul\":7661:7665   */\n      0x00\n        /* \"#utility.yul\":7699:7701   */\n      0x60\n        /* \"#utility.yul\":7688:7697   */\n      dup3\n        /* \"#utility.yul\":7684:7702   */\n      add\n        /* \"#utility.yul\":7676:7702   */\n      swap1\n      pop\n        /* \"#utility.yul\":7712:7783   */\n      tag_258\n        /* \"#utility.yul\":7780:7781   */\n      0x00\n        /* \"#utility.yul\":7769:7778   */\n      dup4\n        /* \"#utility.yul\":7765:7782   */\n      add\n        /* \"#utility.yul\":7756:7762   */\n      dup7\n        /* \"#utility.yul\":7712:7783   */\n      tag_152\n      jump\t// in\n    tag_258:\n        /* \"#utility.yul\":7793:7865   */\n      tag_259\n        /* \"#utility.yul\":7861:7863   */\n      0x20\n        /* \"#utility.yul\":7850:7859   */\n      dup4\n        /* \"#utility.yul\":7846:7864   */\n      add\n        /* \"#utility.yul\":7837:7843   */\n      dup6\n        /* \"#utility.yul\":7793:7865   */\n      tag_152\n      jump\t// in\n    tag_259:\n        /* \"#utility.yul\":7875:7947   */\n      tag_260\n        /* \"#utility.yul\":7943:7945   */\n      0x40\n        /* \"#utility.yul\":7932:7941   */\n      dup4\n        /* \"#utility.yul\":7928:7946   */\n      add\n        /* \"#utility.yul\":7919:7925   */\n      dup5\n        /* \"#utility.yul\":7875:7947   */\n      tag_155\n      jump\t// in\n    tag_260:\n        /* \"#utility.yul\":7512:7954   */\n      swap5\n      swap4\n      pop\n      pop\n      pop\n      pop\n      jump\t// out\n        /* \"#utility.yul\":7960:8050   */\n    tag_169:\n        /* \"#utility.yul\":7994:8001   */\n      0x00\n        /* \"#utility.yul\":8037:8042   */\n      dup2\n        /* \"#utility.yul\":8030:8043   */\n      iszero\n        /* \"#utility.yul\":8023:8044   */\n      iszero\n        /* \"#utility.yul\":8012:8044   */\n      swap1\n      pop\n        /* \"#utility.yul\":7960:8050   */\n      swap2\n      swap1\n      pop\n      jump\t// out\n        /* \"#utility.yul\":8056:8172   */\n    tag_170:\n        /* \"#utility.yul\":8126:8147   */\n      tag_263\n        /* \"#utility.yul\":8141:8146   */\n      dup2\n        /* \"#utility.yul\":8126:8147   */\n      tag_169\n      jump\t// in\n    tag_263:\n        /* \"#utility.yul\":8119:8124   */\n      dup2\n        /* \"#utility.yul\":8116:8148   */\n      eq\n        /* \"#utility.yul\":8106:8166   */\n      tag_264\n      jumpi\n        /* \"#utility.yul\":8162:8163   */\n      0x00\n        /* \"#utility.yul\":8159:8160   */\n      dup1\n        /* \"#utility.yul\":8152:8164   */\n      revert\n        /* \"#utility.yul\":8106:8166   */\n    tag_264:\n        /* \"#utility.yul\":8056:8172   */\n      pop\n      jump\t// out\n        /* \"#utility.yul\":8178:8315   */\n    tag_171:\n        /* \"#utility.yul\":8232:8237   */\n      0x00\n        /* \"#utility.yul\":8263:8269   */\n      dup2\n        /* \"#utility.yul\":8257:8270   */\n      mload\n        /* \"#utility.yul\":8248:8270   */\n      swap1\n      pop\n        /* \"#utility.yul\":8279:8309   */\n      tag_266\n        /* \"#utility.yul\":8303:8308   */\n      dup2\n        /* \"#utility.yul\":8279:8309   */\n      tag_170\n      jump\t// in\n    tag_266:\n        /* \"#utility.yul\":8178:8315   */\n      swap3\n      swap2\n      pop\n      pop\n      jump\t// out\n        /* \"#utility.yul\":8321:8666   */\n    tag_45:\n        /* \"#utility.yul\":8388:8394   */\n      0x00\n        /* \"#utility.yul\":8437:8439   */\n      0x20\n        /* \"#utility.yul\":8425:8434   */\n      dup3\n        /* \"#utility.yul\":8416:8423   */\n      dup5\n        /* \"#utility.yul\":8412:8435   */\n      sub\n        /* \"#utility.yul\":8408:8440   */\n      slt\n        /* \"#utility.yul\":8405:8524   */\n      iszero\n      tag_268\n      jumpi\n        /* \"#utility.yul\":8443:8522   */\n      tag_269\n      tag_145\n      jump\t// in\n    tag_269:\n        /* \"#utility.yul\":8405:8524   */\n    tag_268:\n        /* \"#utility.yul\":8563:8564   */\n      0x00\n        /* \"#utility.yul\":8588:8649   */\n      tag_270\n        /* \"#utility.yul\":8641:8648   */\n      dup5\n        /* \"#utility.yul\":8632:8638   */\n      dup3\n        /* \"#utility.yul\":8621:8630   */\n      dup6\n        /* \"#utility.yul\":8617:8639   */\n      add\n        /* \"#utility.yul\":8588:8649   */\n      tag_171\n      jump\t// in\n    tag_270:\n        /* \"#utility.yul\":8578:8649   */\n      swap2\n      pop\n        /* \"#utility.yul\":8534:8659   */\n      pop\n        /* \"#utility.yul\":8321:8666   */\n      swap3\n      swap2\n      pop\n      pop\n      jump\t// out\n        /* \"#utility.yul\":8672:8852   */\n    tag_172:\n        /* \"#utility.yul\":8720:8797   */\n      0x4e487b7100000000000000000000000000000000000000000000000000000000\n        /* \"#utility.yul\":8717:8718   */\n      0x00\n        /* \"#utility.yul\":8710:8798   */\n      mstore\n        /* \"#utility.yul\":8817:8821   */\n      0x11\n        /* \"#utility.yul\":8814:8815   */\n      0x04\n        /* \"#utility.yul\":8807:8822   */\n      mstore\n        /* \"#utility.yul\":8841:8845   */\n      0x24\n        /* \"#utility.yul\":8838:8839   */\n      0x00\n        /* \"#utility.yul\":8831:8846   */\n      revert\n        /* \"#utility.yul\":8858:9268   */\n    tag_62:\n        /* \"#utility.yul\":8898:8905   */\n      0x00\n        /* \"#utility.yul\":8921:8941   */\n      tag_273\n        /* \"#utility.yul\":8939:8940   */\n      dup3\n        /* \"#utility.yul\":8921:8941   */\n      tag_147\n      jump\t// in\n    tag_273:\n        /* \"#utility.yul\":8916:8941   */\n      swap2\n      pop\n        /* \"#utility.yul\":8955:8975   */\n      tag_274\n        /* \"#utility.yul\":8973:8974   */\n      dup4\n        /* \"#utility.yul\":8955:8975   */\n      tag_147\n      jump\t// in\n    tag_274:\n        /* \"#utility.yul\":8950:8975   */\n      swap3\n      pop\n        /* \"#utility.yul\":9010:9011   */\n      dup3\n        /* \"#utility.yul\":9007:9008   */\n      dup3\n        /* \"#utility.yul\":9003:9012   */\n      mul\n        /* \"#utility.yul\":9032:9062   */\n      tag_275\n        /* \"#utility.yul\":9050:9061   */\n      dup2\n        /* \"#utility.yul\":9032:9062   */\n      tag_147\n      jump\t// in\n    tag_275:\n        /* \"#utility.yul\":9021:9062   */\n      swap2\n      pop\n        /* \"#utility.yul\":9211:9212   */\n      dup3\n        /* \"#utility.yul\":9202:9209   */\n      dup3\n        /* \"#utility.yul\":9198:9213   */\n      div\n        /* \"#utility.yul\":9195:9196   */\n      dup5\n        /* \"#utility.yul\":9192:9214   */\n      eq\n        /* \"#utility.yul\":9172:9173   */\n      dup4\n        /* \"#utility.yul\":9165:9174   */\n      iszero\n        /* \"#utility.yul\":9145:9228   */\n      or\n        /* \"#utility.yul\":9122:9261   */\n      tag_276\n      jumpi\n        /* \"#utility.yul\":9241:9259   */\n      tag_277\n      tag_172\n      jump\t// in\n    tag_277:\n        /* \"#utility.yul\":9122:9261   */\n    tag_276:\n        /* \"#utility.yul\":8906:9268   */\n      pop\n        /* \"#utility.yul\":8858:9268   */\n      swap3\n      swap2\n      pop\n      pop\n      jump\t// out\n        /* \"#utility.yul\":9274:9454   */\n    tag_173:\n        /* \"#utility.yul\":9322:9399   */\n      0x4e487b7100000000000000000000000000000000000000000000000000000000\n        /* \"#utility.yul\":9319:9320   */\n      0x00\n        /* \"#utility.yul\":9312:9400   */\n      mstore\n        /* \"#utility.yul\":9419:9423   */\n      0x12\n        /* \"#utility.yul\":9416:9417   */\n      0x04\n        /* \"#utility.yul\":9409:9424   */\n      mstore\n        /* \"#utility.yul\":9443:9447   */\n      0x24\n        /* \"#utility.yul\":9440:9441   */\n      0x00\n        /* \"#utility.yul\":9433:9448   */\n      revert\n        /* \"#utility.yul\":9460:9645   */\n    tag_66:\n        /* \"#utility.yul\":9500:9501   */\n      0x00\n        /* \"#utility.yul\":9517:9537   */\n      tag_280\n        /* \"#utility.yul\":9535:9536   */\n      dup3\n        /* \"#utility.yul\":9517:9537   */\n      tag_147\n      jump\t// in\n    tag_280:\n        /* \"#utility.yul\":9512:9537   */\n      swap2\n      pop\n        /* \"#utility.yul\":9551:9571   */\n      tag_281\n        /* \"#utility.yul\":9569:9570   */\n      dup4\n        /* \"#utility.yul\":9551:9571   */\n      tag_147\n      jump\t// in\n    tag_281:\n        /* \"#utility.yul\":9546:9571   */\n      swap3\n      pop\n        /* \"#utility.yul\":9590:9591   */\n      dup3\n        /* \"#utility.yul\":9580:9615   */\n      tag_282\n      jumpi\n        /* \"#utility.yul\":9595:9613   */\n      tag_283\n      tag_173\n      jump\t// in\n    tag_283:\n        /* \"#utility.yul\":9580:9615   */\n    tag_282:\n        /* \"#utility.yul\":9637:9638   */\n      dup3\n        /* \"#utility.yul\":9634:9635   */\n      dup3\n        /* \"#utility.yul\":9630:9639   */\n      div\n        /* \"#utility.yul\":9625:9639   */\n      swap1\n      pop\n        /* \"#utility.yul\":9460:9645   */\n      swap3\n      swap2\n      pop\n      pop\n      jump\t// out\n        /* \"#utility.yul\":9651:9831   */\n    tag_77:\n        /* \"#utility.yul\":9699:9776   */\n      0x4e487b7100000000000000000000000000000000000000000000000000000000\n        /* \"#utility.yul\":9696:9697   */\n      0x00\n        /* \"#utility.yul\":9689:9777   */\n      mstore\n        /* \"#utility.yul\":9796:9800   */\n      0x32\n        /* \"#utility.yul\":9793:9794   */\n      0x04\n        /* \"#utility.yul\":9786:9801   */\n      mstore\n        /* \"#utility.yul\":9820:9824   */\n      0x24\n        /* \"#utility.yul\":9817:9818   */\n      0x00\n        /* \"#utility.yul\":9810:9825   */\n      revert\n        /* \"#utility.yul\":9837:10169   */\n    tag_80:\n        /* \"#utility.yul\":9958:9962   */\n      0x00\n        /* \"#utility.yul\":9996:9998   */\n      0x40\n        /* \"#utility.yul\":9985:9994   */\n      dup3\n        /* \"#utility.yul\":9981:9999   */\n      add\n        /* \"#utility.yul\":9973:9999   */\n      swap1\n      pop\n        /* \"#utility.yul\":10009:10080   */\n      tag_286\n        /* \"#utility.yul\":10077:10078   */\n      0x00\n        /* \"#utility.yul\":10066:10075   */\n      dup4\n        /* \"#utility.yul\":10062:10079   */\n      add\n        /* \"#utility.yul\":10053:10059   */\n      dup6\n        /* \"#utility.yul\":10009:10080   */\n      tag_152\n      jump\t// in\n    tag_286:\n        /* \"#utility.yul\":10090:10162   */\n      tag_287\n        /* \"#utility.yul\":10158:10160   */\n      0x20\n        /* \"#utility.yul\":10147:10156   */\n      dup4\n        /* \"#utility.yul\":10143:10161   */\n      add\n        /* \"#utility.yul\":10134:10140   */\n      dup5\n        /* \"#utility.yul\":10090:10162   */\n      tag_155\n      jump\t// in\n    tag_287:\n        /* \"#utility.yul\":9837:10169   */\n      swap4\n      swap3\n      pop\n      pop\n      pop\n      jump\t// out\n\n    auxdata: 0xa26469706673582212201c23b0fa2f1d921fe2ec36be74ccf7f3e4384f464eba111fe12f3ec20446d1f764736f6c634300081a0033\n}\n",
				"bytecode": {
					"linkReferences": {},
					"object": "608060405234801561000f575f80fd5b506040516111ea3803806111ea833981810160405281019061003191906100d4565b805f806101000a81548173ffffffffffffffffffffffffffffffffffffffff021916908373ffffffffffffffffffffffffffffffffffffffff160217905550506100ff565b5f80fd5b5f73ffffffffffffffffffffffffffffffffffffffff82169050919050565b5f6100a38261007a565b9050919050565b6100b381610099565b81146100bd575f80fd5b50565b5f815190506100ce816100aa565b92915050565b5f602082840312156100e9576100e8610076565b5b5f6100f6848285016100c0565b91505092915050565b6110de8061010c5f395ff3fe608060405234801561000f575f80fd5b5060043610610055575f3560e01c80631920d117146100595780638f6654961461008957806395cb1b1e146100ba578063e3d670d7146100c4578063f7f85b89146100f4575b5f80fd5b610073600480360381019061006e9190610b7f565b610110565b6040516100809190610be9565b60405180910390f35b6100a3600480360381019061009e9190610c2c565b610279565b6040516100b1929190610c66565b60405180910390f35b6100c26103b2565b005b6100de60048036038101906100d99190610c2c565b610797565b6040516100eb9190610c8d565b60405180910390f35b61010e60048036038101906101099190610df6565b610830565b005b5f8173b634247abf7a50dd7b9cf6671a3e83f34f5f78d073ffffffffffffffffffffffffffffffffffffffff166370a08231336040518263ffffffff1660e01b815260040161015f9190610be9565b602060405180830381865afa15801561017a573d5f803e3d5ffd5b505050506040513d601f19601f8201168201806040525081019061019e9190610e51565b10156101df576040517f08c379a00000000000000000000000000000000000000000000000000000000081526004016101d690610ed6565b60405180910390fd5b73b634247abf7a50dd7b9cf6671a3e83f34f5f78d073ffffffffffffffffffffffffffffffffffffffff166323b872dd3330856040518463ffffffff1660e01b815260040161023093929190610ef4565b6020604051808303815f875af115801561024c573d5f803e3d5ffd5b505050506040513d601f19601f820116820180604052508101906102709190610f5e565b50339050919050565b5f805f8054906101000a900473ffffffffffffffffffffffffffffffffffffffff1673ffffffffffffffffffffffffffffffffffffffff16636723eb45846040518263ffffffff1660e01b81526004016102d39190610be9565b602060405180830381865afa1580156102ee573d5f803e3d5ffd5b505050506040513d601f19601f820116820180604052508101906103129190610e51565b5f8054906101000a900473ffffffffffffffffffffffffffffffffffffffff1673ffffffffffffffffffffffffffffffffffffffff1663297af9d4856040518263ffffffff1660e01b815260040161036a9190610be9565b602060405180830381865afa158015610385573d5f803e3d5ffd5b505050506040513d601f19601f820116820180604052508101906103a99190610e51565b91509150915091565b5f73b634247abf7a50dd7b9cf6671a3e83f34f5f78d073ffffffffffffffffffffffffffffffffffffffff166370a08231306040518263ffffffff1660e01b81526004016104009190610be9565b602060405180830381865afa15801561041b573d5f803e3d5ffd5b505050506040513d601f19601f8201168201806040525081019061043f9190610e51565b90505f810361047a576040517fb09959a600000000000000000000000000000000000000000000000000000000815260040160405180910390fd5b5f620f4240606461048b9190610fb6565b620f424083603a61049c9190610fb6565b6104a69190610fb6565b6104b09190611024565b90505f620f424060646104c39190610fb6565b620f424084601d6104d49190610fb6565b6104de9190610fb6565b6104e89190611024565b90505f620f424060646104fb9190610fb6565b620f424085600961050c9190610fb6565b6105169190610fb6565b6105209190611024565b905073b634247abf7a50dd7b9cf6671a3e83f34f5f78d073ffffffffffffffffffffffffffffffffffffffff1663a9059cbb60015f8154811061056657610565611054565b5b905f5260205f20015f9054906101000a900473ffffffffffffffffffffffffffffffffffffffff16856040518363ffffffff1660e01b81526004016105ac929190611081565b6020604051808303815f875af11580156105c8573d5f803e3d5ffd5b505050506040513d601f19601f820116820180604052508101906105ec9190610f5e565b5073b634247abf7a50dd7b9cf6671a3e83f34f5f78d073ffffffffffffffffffffffffffffffffffffffff1663a9059cbb6001808154811061063157610630611054565b5b905f5260205f20015f9054906101000a900473ffffffffffffffffffffffffffffffffffffffff16846040518363ffffffff1660e01b8152600401610677929190611081565b6020604051808303815f875af1158015610693573d5f803e3d5ffd5b505050506040513d601f19601f820116820180604052508101906106b79190610f5e565b5073b634247abf7a50dd7b9cf6671a3e83f34f5f78d073ffffffffffffffffffffffffffffffffffffffff1663a9059cbb60016002815481106106fd576106fc611054565b5b905f5260205f20015f9054906101000a900473ffffffffffffffffffffffffffffffffffffffff16836040518363ffffffff1660e01b8152600401610743929190611081565b6020604051808303815f875af115801561075f573d5f803e3d5ffd5b505050506040513d601f19601f820116820180604052508101906107839190610f5e565b5060015f6107919190610ae0565b50505050565b5f8073b634247abf7a50dd7b9cf6671a3e83f34f5f78d073ffffffffffffffffffffffffffffffffffffffff166370a08231846040518263ffffffff1660e01b81526004016107e69190610be9565b602060405180830381865afa158015610801573d5f803e3d5ffd5b505050506040513d601f19601f820116820180604052508101906108259190610e51565b905080915050919050565b610838610afe565b5f5b6003811015610954575f8054906101000a900473ffffffffffffffffffffffffffffffffffffffff1673ffffffffffffffffffffffffffffffffffffffff16631950111c84838151811061089157610890611054565b5b60200260200101516040518263ffffffff1660e01b81526004016108b59190610be9565b5f604051808303815f87803b1580156108cc575f80fd5b505af11580156108de573d5f803e3d5ffd5b505050508281815181106108f5576108f4611054565b5b60200260200101518282600381106109105761090f611054565b5b602002019073ffffffffffffffffffffffffffffffffffffffff16908173ffffffffffffffffffffffffffffffffffffffff1681525050808060010191505061083a565b505f5b8251811015610a0c575f8054906101000a900473ffffffffffffffffffffffffffffffffffffffff1673ffffffffffffffffffffffffffffffffffffffff16638a3202e98483815181106109ae576109ad611054565b5b60200260200101516040518263ffffffff1660e01b81526004016109d29190610be9565b5f604051808303815f87803b1580156109e9575f80fd5b505af11580156109fb573d5f803e3d5ffd5b505050508080600101915050610957565b505f600390505b8251811015610adb575f8054906101000a900473ffffffffffffffffffffffffffffffffffffffff1673ffffffffffffffffffffffffffffffffffffffff1663c651c426848381518110610a6a57610a69611054565b5b60200260200101516040518263ffffffff1660e01b8152600401610a8e9190610be9565b602060405180830381865afa158015610aa9573d5f803e3d5ffd5b505050506040513d601f19601f82011682018060405250810190610acd9190610e51565b508080600101915050610a13565b505050565b5080545f8255905f5260205f2090810190610afb9190610b20565b50565b6040518060600160405280600390602082028036833780820191505090505090565b5b80821115610b37575f815f905550600101610b21565b5090565b5f604051905090565b5f80fd5b5f80fd5b5f819050919050565b610b5e81610b4c565b8114610b68575f80fd5b50565b5f81359050610b7981610b55565b92915050565b5f60208284031215610b9457610b93610b44565b5b5f610ba184828501610b6b565b91505092915050565b5f73ffffffffffffffffffffffffffffffffffffffff82169050919050565b5f610bd382610baa565b9050919050565b610be381610bc9565b82525050565b5f602082019050610bfc5f830184610bda565b92915050565b610c0b81610bc9565b8114610c15575f80fd5b50565b5f81359050610c2681610c02565b92915050565b5f60208284031215610c4157610c40610b44565b5b5f610c4e84828501610c18565b91505092915050565b610c6081610b4c565b82525050565b5f604082019050610c795f830185610c57565b610c866020830184610c57565b9392505050565b5f602082019050610ca05f830184610c57565b92915050565b5f80fd5b5f601f19601f8301169050919050565b7f4e487b71000000000000000000000000000000000000000000000000000000005f52604160045260245ffd5b610cf082610caa565b810181811067ffffffffffffffff82111715610d0f57610d0e610cba565b5b80604052505050565b5f610d21610b3b565b9050610d2d8282610ce7565b919050565b5f67ffffffffffffffff821115610d4c57610d4b610cba565b5b602082029050602081019050919050565b5f80fd5b5f610d73610d6e84610d32565b610d18565b90508083825260208201905060208402830185811115610d9657610d95610d5d565b5b835b81811015610dbf5780610dab8882610c18565b845260208401935050602081019050610d98565b5050509392505050565b5f82601f830112610ddd57610ddc610ca6565b5b8135610ded848260208601610d61565b91505092915050565b5f60208284031215610e0b57610e0a610b44565b5b5f82013567ffffffffffffffff811115610e2857610e27610b48565b5b610e3484828501610dc9565b91505092915050565b5f81519050610e4b81610b55565b92915050565b5f60208284031215610e6657610e65610b44565b5b5f610e7384828501610e3d565b91505092915050565b5f82825260208201905092915050565b7f496e737566666963656e742042616c616e6365000000000000000000000000005f82015250565b5f610ec0601383610e7c565b9150610ecb82610e8c565b602082019050919050565b5f6020820190508181035f830152610eed81610eb4565b9050919050565b5f606082019050610f075f830186610bda565b610f146020830185610bda565b610f216040830184610c57565b949350505050565b5f8115159050919050565b610f3d81610f29565b8114610f47575f80fd5b50565b5f81519050610f5881610f34565b92915050565b5f60208284031215610f7357610f72610b44565b5b5f610f8084828501610f4a565b91505092915050565b7f4e487b71000000000000000000000000000000000000000000000000000000005f52601160045260245ffd5b5f610fc082610b4c565b9150610fcb83610b4c565b9250828202610fd981610b4c565b91508282048414831517610ff057610fef610f89565b5b5092915050565b7f4e487b71000000000000000000000000000000000000000000000000000000005f52601260045260245ffd5b5f61102e82610b4c565b915061103983610b4c565b92508261104957611048610ff7565b5b828204905092915050565b7f4e487b71000000000000000000000000000000000000000000000000000000005f52603260045260245ffd5b5f6040820190506110945f830185610bda565b6110a16020830184610c57565b939250505056fea26469706673582212201c23b0fa2f1d921fe2ec36be74ccf7f3e4384f464eba111fe12f3ec20446d1f764736f6c634300081a0033",
					"opcodes": "PUSH1 0x80 PUSH1 0x40 MSTORE CALLVALUE DUP1 ISZERO PUSH2 0xF JUMPI PUSH0 DUP1 REVERT JUMPDEST POP PUSH1 0x40 MLOAD PUSH2 0x11EA CODESIZE SUB DUP1 PUSH2 0x11EA DUP4 CODECOPY DUP2 DUP2 ADD PUSH1 0x40 MSTORE DUP2 ADD SWAP1 PUSH2 0x31 SWAP2 SWAP1 PUSH2 0xD4 JUMP JUMPDEST DUP1 PUSH0 DUP1 PUSH2 0x100 EXP DUP2 SLOAD DUP2 PUSH20 0xFFFFFFFFFFFFFFFFFFFFFFFFFFFFFFFFFFFFFFFF MUL NOT AND SWAP1 DUP4 PUSH20 0xFFFFFFFFFFFFFFFFFFFFFFFFFFFFFFFFFFFFFFFF AND MUL OR SWAP1 SSTORE POP POP PUSH2 0xFF JUMP JUMPDEST PUSH0 DUP1 REVERT JUMPDEST PUSH0 PUSH20 0xFFFFFFFFFFFFFFFFFFFFFFFFFFFFFFFFFFFFFFFF DUP3 AND SWAP1 POP SWAP2 SWAP1 POP JUMP JUMPDEST PUSH0 PUSH2 0xA3 DUP3 PUSH2 0x7A JUMP JUMPDEST SWAP1 POP SWAP2 SWAP1 POP JUMP JUMPDEST PUSH2 0xB3 DUP2 PUSH2 0x99 JUMP JUMPDEST DUP2 EQ PUSH2 0xBD JUMPI PUSH0 DUP1 REVERT JUMPDEST POP JUMP JUMPDEST PUSH0 DUP2 MLOAD SWAP1 POP PUSH2 0xCE DUP2 PUSH2 0xAA JUMP JUMPDEST SWAP3 SWAP2 POP POP JUMP JUMPDEST PUSH0 PUSH1 0x20 DUP3 DUP5 SUB SLT ISZERO PUSH2 0xE9 JUMPI PUSH2 0xE8 PUSH2 0x76 JUMP JUMPDEST JUMPDEST PUSH0 PUSH2 0xF6 DUP5 DUP3 DUP6 ADD PUSH2 0xC0 JUMP JUMPDEST SWAP2 POP POP SWAP3 SWAP2 POP POP JUMP JUMPDEST PUSH2 0x10DE DUP1 PUSH2 0x10C PUSH0 CODECOPY PUSH0 RETURN INVALID PUSH1 0x80 PUSH1 0x40 MSTORE CALLVALUE DUP1 ISZERO PUSH2 0xF JUMPI PUSH0 DUP1 REVERT JUMPDEST POP PUSH1 0x4 CALLDATASIZE LT PUSH2 0x55 JUMPI PUSH0 CALLDATALOAD PUSH1 0xE0 SHR DUP1 PUSH4 0x1920D117 EQ PUSH2 0x59 JUMPI DUP1 PUSH4 0x8F665496 EQ PUSH2 0x89 JUMPI DUP1 PUSH4 0x95CB1B1E EQ PUSH2 0xBA JUMPI DUP1 PUSH4 0xE3D670D7 EQ PUSH2 0xC4 JUMPI DUP1 PUSH4 0xF7F85B89 EQ PUSH2 0xF4 JUMPI JUMPDEST PUSH0 DUP1 REVERT JUMPDEST PUSH2 0x73 PUSH1 0x4 DUP1 CALLDATASIZE SUB DUP2 ADD SWAP1 PUSH2 0x6E SWAP2 SWAP1 PUSH2 0xB7F JUMP JUMPDEST PUSH2 0x110 JUMP JUMPDEST PUSH1 0x40 MLOAD PUSH2 0x80 SWAP2 SWAP1 PUSH2 0xBE9 JUMP JUMPDEST PUSH1 0x40 MLOAD DUP1 SWAP2 SUB SWAP1 RETURN JUMPDEST PUSH2 0xA3 PUSH1 0x4 DUP1 CALLDATASIZE SUB DUP2 ADD SWAP1 PUSH2 0x9E SWAP2 SWAP1 PUSH2 0xC2C JUMP JUMPDEST PUSH2 0x279 JUMP JUMPDEST PUSH1 0x40 MLOAD PUSH2 0xB1 SWAP3 SWAP2 SWAP1 PUSH2 0xC66 JUMP JUMPDEST PUSH1 0x40 MLOAD DUP1 SWAP2 SUB SWAP1 RETURN JUMPDEST PUSH2 0xC2 PUSH2 0x3B2 JUMP JUMPDEST STOP JUMPDEST PUSH2 0xDE PUSH1 0x4 DUP1 CALLDATASIZE SUB DUP2 ADD SWAP1 PUSH2 0xD9 SWAP2 SWAP1 PUSH2 0xC2C JUMP JUMPDEST PUSH2 0x797 JUMP JUMPDEST PUSH1 0x40 MLOAD PUSH2 0xEB SWAP2 SWAP1 PUSH2 0xC8D JUMP JUMPDEST PUSH1 0x40 MLOAD DUP1 SWAP2 SUB SWAP1 RETURN JUMPDEST PUSH2 0x10E PUSH1 0x4 DUP1 CALLDATASIZE SUB DUP2 ADD SWAP1 PUSH2 0x109 SWAP2 SWAP1 PUSH2 0xDF6 JUMP JUMPDEST PUSH2 0x830 JUMP JUMPDEST STOP JUMPDEST PUSH0 DUP2 PUSH20 0xB634247ABF7A50DD7B9CF6671A3E83F34F5F78D0 PUSH20 0xFFFFFFFFFFFFFFFFFFFFFFFFFFFFFFFFFFFFFFFF AND PUSH4 0x70A08231 CALLER PUSH1 0x40 MLOAD DUP3 PUSH4 0xFFFFFFFF AND PUSH1 0xE0 SHL DUP2 MSTORE PUSH1 0x4 ADD PUSH2 0x15F SWAP2 SWAP1 PUSH2 0xBE9 JUMP JUMPDEST PUSH1 0x20 PUSH1 0x40 MLOAD DUP1 DUP4 SUB DUP2 DUP7 GAS STATICCALL ISZERO DUP1 ISZERO PUSH2 0x17A JUMPI RETURNDATASIZE PUSH0 DUP1 RETURNDATACOPY RETURNDATASIZE PUSH0 REVERT JUMPDEST POP POP POP POP PUSH1 0x40 MLOAD RETURNDATASIZE PUSH1 0x1F NOT PUSH1 0x1F DUP3 ADD AND DUP3 ADD DUP1 PUSH1 0x40 MSTORE POP DUP2 ADD SWAP1 PUSH2 0x19E SWAP2 SWAP1 PUSH2 0xE51 JUMP JUMPDEST LT ISZERO PUSH2 0x1DF JUMPI PUSH1 0x40 MLOAD PUSH32 0x8C379A000000000000000000000000000000000000000000000000000000000 DUP2 MSTORE PUSH1 0x4 ADD PUSH2 0x1D6 SWAP1 PUSH2 0xED6 JUMP JUMPDEST PUSH1 0x40 MLOAD DUP1 SWAP2 SUB SWAP1 REVERT JUMPDEST PUSH20 0xB634247ABF7A50DD7B9CF6671A3E83F34F5F78D0 PUSH20 0xFFFFFFFFFFFFFFFFFFFFFFFFFFFFFFFFFFFFFFFF AND PUSH4 0x23B872DD CALLER ADDRESS DUP6 PUSH1 0x40 MLOAD DUP5 PUSH4 0xFFFFFFFF AND PUSH1 0xE0 SHL DUP2 MSTORE PUSH1 0x4 ADD PUSH2 0x230 SWAP4 SWAP3 SWAP2 SWAP1 PUSH2 0xEF4 JUMP JUMPDEST PUSH1 0x20 PUSH1 0x40 MLOAD DUP1 DUP4 SUB DUP2 PUSH0 DUP8 GAS CALL ISZERO DUP1 ISZERO PUSH2 0x24C JUMPI RETURNDATASIZE PUSH0 DUP1 RETURNDATACOPY RETURNDATASIZE PUSH0 REVERT JUMPDEST POP POP POP POP PUSH1 0x40 MLOAD RETURNDATASIZE PUSH1 0x1F NOT PUSH1 0x1F DUP3 ADD AND DUP3 ADD DUP1 PUSH1 0x40 MSTORE POP DUP2 ADD SWAP1 PUSH2 0x270 SWAP2 SWAP1 PUSH2 0xF5E JUMP JUMPDEST POP CALLER SWAP1 POP SWAP2 SWAP1 POP JUMP JUMPDEST PUSH0 DUP1 PUSH0 DUP1 SLOAD SWAP1 PUSH2 0x100 EXP SWAP1 DIV PUSH20 0xFFFFFFFFFFFFFFFFFFFFFFFFFFFFFFFFFFFFFFFF AND PUSH20 0xFFFFFFFFFFFFFFFFFFFFFFFFFFFFFFFFFFFFFFFF AND PUSH4 0x6723EB45 DUP5 PUSH1 0x40 MLOAD DUP3 PUSH4 0xFFFFFFFF AND PUSH1 0xE0 SHL DUP2 MSTORE PUSH1 0x4 ADD PUSH2 0x2D3 SWAP2 SWAP1 PUSH2 0xBE9 JUMP JUMPDEST PUSH1 0x20 PUSH1 0x40 MLOAD DUP1 DUP4 SUB DUP2 DUP7 GAS STATICCALL ISZERO DUP1 ISZERO PUSH2 0x2EE JUMPI RETURNDATASIZE PUSH0 DUP1 RETURNDATACOPY RETURNDATASIZE PUSH0 REVERT JUMPDEST POP POP POP POP PUSH1 0x40 MLOAD RETURNDATASIZE PUSH1 0x1F NOT PUSH1 0x1F DUP3 ADD AND DUP3 ADD DUP1 PUSH1 0x40 MSTORE POP DUP2 ADD SWAP1 PUSH2 0x312 SWAP2 SWAP1 PUSH2 0xE51 JUMP JUMPDEST PUSH0 DUP1 SLOAD SWAP1 PUSH2 0x100 EXP SWAP1 DIV PUSH20 0xFFFFFFFFFFFFFFFFFFFFFFFFFFFFFFFFFFFFFFFF AND PUSH20 0xFFFFFFFFFFFFFFFFFFFFFFFFFFFFFFFFFFFFFFFF AND PUSH4 0x297AF9D4 DUP6 PUSH1 0x40 MLOAD DUP3 PUSH4 0xFFFFFFFF AND PUSH1 0xE0 SHL DUP2 MSTORE PUSH1 0x4 ADD PUSH2 0x36A SWAP2 SWAP1 PUSH2 0xBE9 JUMP JUMPDEST PUSH1 0x20 PUSH1 0x40 MLOAD DUP1 DUP4 SUB DUP2 DUP7 GAS STATICCALL ISZERO DUP1 ISZERO PUSH2 0x385 JUMPI RETURNDATASIZE PUSH0 DUP1 RETURNDATACOPY RETURNDATASIZE PUSH0 REVERT JUMPDEST POP POP POP POP PUSH1 0x40 MLOAD RETURNDATASIZE PUSH1 0x1F NOT PUSH1 0x1F DUP3 ADD AND DUP3 ADD DUP1 PUSH1 0x40 MSTORE POP DUP2 ADD SWAP1 PUSH2 0x3A9 SWAP2 SWAP1 PUSH2 0xE51 JUMP JUMPDEST SWAP2 POP SWAP2 POP SWAP2 POP SWAP2 JUMP JUMPDEST PUSH0 PUSH20 0xB634247ABF7A50DD7B9CF6671A3E83F34F5F78D0 PUSH20 0xFFFFFFFFFFFFFFFFFFFFFFFFFFFFFFFFFFFFFFFF AND PUSH4 0x70A08231 ADDRESS PUSH1 0x40 MLOAD DUP3 PUSH4 0xFFFFFFFF AND PUSH1 0xE0 SHL DUP2 MSTORE PUSH1 0x4 ADD PUSH2 0x400 SWAP2 SWAP1 PUSH2 0xBE9 JUMP JUMPDEST PUSH1 0x20 PUSH1 0x40 MLOAD DUP1 DUP4 SUB DUP2 DUP7 GAS STATICCALL ISZERO DUP1 ISZERO PUSH2 0x41B JUMPI RETURNDATASIZE PUSH0 DUP1 RETURNDATACOPY RETURNDATASIZE PUSH0 REVERT JUMPDEST POP POP POP POP PUSH1 0x40 MLOAD RETURNDATASIZE PUSH1 0x1F NOT PUSH1 0x1F DUP3 ADD AND DUP3 ADD DUP1 PUSH1 0x40 MSTORE POP DUP2 ADD SWAP1 PUSH2 0x43F SWAP2 SWAP1 PUSH2 0xE51 JUMP JUMPDEST SWAP1 POP PUSH0 DUP2 SUB PUSH2 0x47A JUMPI PUSH1 0x40 MLOAD PUSH32 0xB09959A600000000000000000000000000000000000000000000000000000000 DUP2 MSTORE PUSH1 0x4 ADD PUSH1 0x40 MLOAD DUP1 SWAP2 SUB SWAP1 REVERT JUMPDEST PUSH0 PUSH3 0xF4240 PUSH1 0x64 PUSH2 0x48B SWAP2 SWAP1 PUSH2 0xFB6 JUMP JUMPDEST PUSH3 0xF4240 DUP4 PUSH1 0x3A PUSH2 0x49C SWAP2 SWAP1 PUSH2 0xFB6 JUMP JUMPDEST PUSH2 0x4A6 SWAP2 SWAP1 PUSH2 0xFB6 JUMP JUMPDEST PUSH2 0x4B0 SWAP2 SWAP1 PUSH2 0x1024 JUMP JUMPDEST SWAP1 POP PUSH0 PUSH3 0xF4240 PUSH1 0x64 PUSH2 0x4C3 SWAP2 SWAP1 PUSH2 0xFB6 JUMP JUMPDEST PUSH3 0xF4240 DUP5 PUSH1 0x1D PUSH2 0x4D4 SWAP2 SWAP1 PUSH2 0xFB6 JUMP JUMPDEST PUSH2 0x4DE SWAP2 SWAP1 PUSH2 0xFB6 JUMP JUMPDEST PUSH2 0x4E8 SWAP2 SWAP1 PUSH2 0x1024 JUMP JUMPDEST SWAP1 POP PUSH0 PUSH3 0xF4240 PUSH1 0x64 PUSH2 0x4FB SWAP2 SWAP1 PUSH2 0xFB6 JUMP JUMPDEST PUSH3 0xF4240 DUP6 PUSH1 0x9 PUSH2 0x50C SWAP2 SWAP1 PUSH2 0xFB6 JUMP JUMPDEST PUSH2 0x516 SWAP2 SWAP1 PUSH2 0xFB6 JUMP JUMPDEST PUSH2 0x520 SWAP2 SWAP1 PUSH2 0x1024 JUMP JUMPDEST SWAP1 POP PUSH20 0xB634247ABF7A50DD7B9CF6671A3E83F34F5F78D0 PUSH20 0xFFFFFFFFFFFFFFFFFFFFFFFFFFFFFFFFFFFFFFFF AND PUSH4 0xA9059CBB PUSH1 0x1 PUSH0 DUP2 SLOAD DUP2 LT PUSH2 0x566 JUMPI PUSH2 0x565 PUSH2 0x1054 JUMP JUMPDEST JUMPDEST SWAP1 PUSH0 MSTORE PUSH1 0x20 PUSH0 KECCAK256 ADD PUSH0 SWAP1 SLOAD SWAP1 PUSH2 0x100 EXP SWAP1 DIV PUSH20 0xFFFFFFFFFFFFFFFFFFFFFFFFFFFFFFFFFFFFFFFF AND DUP6 PUSH1 0x40 MLOAD DUP4 PUSH4 0xFFFFFFFF AND PUSH1 0xE0 SHL DUP2 MSTORE PUSH1 0x4 ADD PUSH2 0x5AC SWAP3 SWAP2 SWAP1 PUSH2 0x1081 JUMP JUMPDEST PUSH1 0x20 PUSH1 0x40 MLOAD DUP1 DUP4 SUB DUP2 PUSH0 DUP8 GAS CALL ISZERO DUP1 ISZERO PUSH2 0x5C8 JUMPI RETURNDATASIZE PUSH0 DUP1 RETURNDATACOPY RETURNDATASIZE PUSH0 REVERT JUMPDEST POP POP POP POP PUSH1 0x40 MLOAD RETURNDATASIZE PUSH1 0x1F NOT PUSH1 0x1F DUP3 ADD AND DUP3 ADD DUP1 PUSH1 0x40 MSTORE POP DUP2 ADD SWAP1 PUSH2 0x5EC SWAP2 SWAP1 PUSH2 0xF5E JUMP JUMPDEST POP PUSH20 0xB634247ABF7A50DD7B9CF6671A3E83F34F5F78D0 PUSH20 0xFFFFFFFFFFFFFFFFFFFFFFFFFFFFFFFFFFFFFFFF AND PUSH4 0xA9059CBB PUSH1 0x1 DUP1 DUP2 SLOAD DUP2 LT PUSH2 0x631 JUMPI PUSH2 0x630 PUSH2 0x1054 JUMP JUMPDEST JUMPDEST SWAP1 PUSH0 MSTORE PUSH1 0x20 PUSH0 KECCAK256 ADD PUSH0 SWAP1 SLOAD SWAP1 PUSH2 0x100 EXP SWAP1 DIV PUSH20 0xFFFFFFFFFFFFFFFFFFFFFFFFFFFFFFFFFFFFFFFF AND DUP5 PUSH1 0x40 MLOAD DUP4 PUSH4 0xFFFFFFFF AND PUSH1 0xE0 SHL DUP2 MSTORE PUSH1 0x4 ADD PUSH2 0x677 SWAP3 SWAP2 SWAP1 PUSH2 0x1081 JUMP JUMPDEST PUSH1 0x20 PUSH1 0x40 MLOAD DUP1 DUP4 SUB DUP2 PUSH0 DUP8 GAS CALL ISZERO DUP1 ISZERO PUSH2 0x693 JUMPI RETURNDATASIZE PUSH0 DUP1 RETURNDATACOPY RETURNDATASIZE PUSH0 REVERT JUMPDEST POP POP POP POP PUSH1 0x40 MLOAD RETURNDATASIZE PUSH1 0x1F NOT PUSH1 0x1F DUP3 ADD AND DUP3 ADD DUP1 PUSH1 0x40 MSTORE POP DUP2 ADD SWAP1 PUSH2 0x6B7 SWAP2 SWAP1 PUSH2 0xF5E JUMP JUMPDEST POP PUSH20 0xB634247ABF7A50DD7B9CF6671A3E83F34F5F78D0 PUSH20 0xFFFFFFFFFFFFFFFFFFFFFFFFFFFFFFFFFFFFFFFF AND PUSH4 0xA9059CBB PUSH1 0x1 PUSH1 0x2 DUP2 SLOAD DUP2 LT PUSH2 0x6FD JUMPI PUSH2 0x6FC PUSH2 0x1054 JUMP JUMPDEST JUMPDEST SWAP1 PUSH0 MSTORE PUSH1 0x20 PUSH0 KECCAK256 ADD PUSH0 SWAP1 SLOAD SWAP1 PUSH2 0x100 EXP SWAP1 DIV PUSH20 0xFFFFFFFFFFFFFFFFFFFFFFFFFFFFFFFFFFFFFFFF AND DUP4 PUSH1 0x40 MLOAD DUP4 PUSH4 0xFFFFFFFF AND PUSH1 0xE0 SHL DUP2 MSTORE PUSH1 0x4 ADD PUSH2 0x743 SWAP3 SWAP2 SWAP1 PUSH2 0x1081 JUMP JUMPDEST PUSH1 0x20 PUSH1 0x40 MLOAD DUP1 DUP4 SUB DUP2 PUSH0 DUP8 GAS CALL ISZERO DUP1 ISZERO PUSH2 0x75F JUMPI RETURNDATASIZE PUSH0 DUP1 RETURNDATACOPY RETURNDATASIZE PUSH0 REVERT JUMPDEST POP POP POP POP PUSH1 0x40 MLOAD RETURNDATASIZE PUSH1 0x1F NOT PUSH1 0x1F DUP3 ADD AND DUP3 ADD DUP1 PUSH1 0x40 MSTORE POP DUP2 ADD SWAP1 PUSH2 0x783 SWAP2 SWAP1 PUSH2 0xF5E JUMP JUMPDEST POP PUSH1 0x1 PUSH0 PUSH2 0x791 SWAP2 SWAP1 PUSH2 0xAE0 JUMP JUMPDEST POP POP POP POP JUMP JUMPDEST PUSH0 DUP1 PUSH20 0xB634247ABF7A50DD7B9CF6671A3E83F34F5F78D0 PUSH20 0xFFFFFFFFFFFFFFFFFFFFFFFFFFFFFFFFFFFFFFFF AND PUSH4 0x70A08231 DUP5 PUSH1 0x40 MLOAD DUP3 PUSH4 0xFFFFFFFF AND PUSH1 0xE0 SHL DUP2 MSTORE PUSH1 0x4 ADD PUSH2 0x7E6 SWAP2 SWAP1 PUSH2 0xBE9 JUMP JUMPDEST PUSH1 0x20 PUSH1 0x40 MLOAD DUP1 DUP4 SUB DUP2 DUP7 GAS STATICCALL ISZERO DUP1 ISZERO PUSH2 0x801 JUMPI RETURNDATASIZE PUSH0 DUP1 RETURNDATACOPY RETURNDATASIZE PUSH0 REVERT JUMPDEST POP POP POP POP PUSH1 0x40 MLOAD RETURNDATASIZE PUSH1 0x1F NOT PUSH1 0x1F DUP3 ADD AND DUP3 ADD DUP1 PUSH1 0x40 MSTORE POP DUP2 ADD SWAP1 PUSH2 0x825 SWAP2 SWAP1 PUSH2 0xE51 JUMP JUMPDEST SWAP1 POP DUP1 SWAP2 POP POP SWAP2 SWAP1 POP JUMP JUMPDEST PUSH2 0x838 PUSH2 0xAFE JUMP JUMPDEST PUSH0 JUMPDEST PUSH1 0x3 DUP2 LT ISZERO PUSH2 0x954 JUMPI PUSH0 DUP1 SLOAD SWAP1 PUSH2 0x100 EXP SWAP1 DIV PUSH20 0xFFFFFFFFFFFFFFFFFFFFFFFFFFFFFFFFFFFFFFFF AND PUSH20 0xFFFFFFFFFFFFFFFFFFFFFFFFFFFFFFFFFFFFFFFF AND PUSH4 0x1950111C DUP5 DUP4 DUP2 MLOAD DUP2 LT PUSH2 0x891 JUMPI PUSH2 0x890 PUSH2 0x1054 JUMP JUMPDEST JUMPDEST PUSH1 0x20 MUL PUSH1 0x20 ADD ADD MLOAD PUSH1 0x40 MLOAD DUP3 PUSH4 0xFFFFFFFF AND PUSH1 0xE0 SHL DUP2 MSTORE PUSH1 0x4 ADD PUSH2 0x8B5 SWAP2 SWAP1 PUSH2 0xBE9 JUMP JUMPDEST PUSH0 PUSH1 0x40 MLOAD DUP1 DUP4 SUB DUP2 PUSH0 DUP8 DUP1 EXTCODESIZE ISZERO DUP1 ISZERO PUSH2 0x8CC JUMPI PUSH0 DUP1 REVERT JUMPDEST POP GAS CALL ISZERO DUP1 ISZERO PUSH2 0x8DE JUMPI RETURNDATASIZE PUSH0 DUP1 RETURNDATACOPY RETURNDATASIZE PUSH0 REVERT JUMPDEST POP POP POP POP DUP3 DUP2 DUP2 MLOAD DUP2 LT PUSH2 0x8F5 JUMPI PUSH2 0x8F4 PUSH2 0x1054 JUMP JUMPDEST JUMPDEST PUSH1 0x20 MUL PUSH1 0x20 ADD ADD MLOAD DUP3 DUP3 PUSH1 0x3 DUP2 LT PUSH2 0x910 JUMPI PUSH2 0x90F PUSH2 0x1054 JUMP JUMPDEST JUMPDEST PUSH1 0x20 MUL ADD SWAP1 PUSH20 0xFFFFFFFFFFFFFFFFFFFFFFFFFFFFFFFFFFFFFFFF AND SWAP1 DUP2 PUSH20 0xFFFFFFFFFFFFFFFFFFFFFFFFFFFFFFFFFFFFFFFF AND DUP2 MSTORE POP POP DUP1 DUP1 PUSH1 0x1 ADD SWAP2 POP POP PUSH2 0x83A JUMP JUMPDEST POP PUSH0 JUMPDEST DUP3 MLOAD DUP2 LT ISZERO PUSH2 0xA0C JUMPI PUSH0 DUP1 SLOAD SWAP1 PUSH2 0x100 EXP SWAP1 DIV PUSH20 0xFFFFFFFFFFFFFFFFFFFFFFFFFFFFFFFFFFFFFFFF AND PUSH20 0xFFFFFFFFFFFFFFFFFFFFFFFFFFFFFFFFFFFFFFFF AND PUSH4 0x8A3202E9 DUP5 DUP4 DUP2 MLOAD DUP2 LT PUSH2 0x9AE JUMPI PUSH2 0x9AD PUSH2 0x1054 JUMP JUMPDEST JUMPDEST PUSH1 0x20 MUL PUSH1 0x20 ADD ADD MLOAD PUSH1 0x40 MLOAD DUP3 PUSH4 0xFFFFFFFF AND PUSH1 0xE0 SHL DUP2 MSTORE PUSH1 0x4 ADD PUSH2 0x9D2 SWAP2 SWAP1 PUSH2 0xBE9 JUMP JUMPDEST PUSH0 PUSH1 0x40 MLOAD DUP1 DUP4 SUB DUP2 PUSH0 DUP8 DUP1 EXTCODESIZE ISZERO DUP1 ISZERO PUSH2 0x9E9 JUMPI PUSH0 DUP1 REVERT JUMPDEST POP GAS CALL ISZERO DUP1 ISZERO PUSH2 0x9FB JUMPI RETURNDATASIZE PUSH0 DUP1 RETURNDATACOPY RETURNDATASIZE PUSH0 REVERT JUMPDEST POP POP POP POP DUP1 DUP1 PUSH1 0x1 ADD SWAP2 POP POP PUSH2 0x957 JUMP JUMPDEST POP PUSH0 PUSH1 0x3 SWAP1 POP JUMPDEST DUP3 MLOAD DUP2 LT ISZERO PUSH2 0xADB JUMPI PUSH0 DUP1 SLOAD SWAP1 PUSH2 0x100 EXP SWAP1 DIV PUSH20 0xFFFFFFFFFFFFFFFFFFFFFFFFFFFFFFFFFFFFFFFF AND PUSH20 0xFFFFFFFFFFFFFFFFFFFFFFFFFFFFFFFFFFFFFFFF AND PUSH4 0xC651C426 DUP5 DUP4 DUP2 MLOAD DUP2 LT PUSH2 0xA6A JUMPI PUSH2 0xA69 PUSH2 0x1054 JUMP JUMPDEST JUMPDEST PUSH1 0x20 MUL PUSH1 0x20 ADD ADD MLOAD PUSH1 0x40 MLOAD DUP3 PUSH4 0xFFFFFFFF AND PUSH1 0xE0 SHL DUP2 MSTORE PUSH1 0x4 ADD PUSH2 0xA8E SWAP2 SWAP1 PUSH2 0xBE9 JUMP JUMPDEST PUSH1 0x20 PUSH1 0x40 MLOAD DUP1 DUP4 SUB DUP2 DUP7 GAS STATICCALL ISZERO DUP1 ISZERO PUSH2 0xAA9 JUMPI RETURNDATASIZE PUSH0 DUP1 RETURNDATACOPY RETURNDATASIZE PUSH0 REVERT JUMPDEST POP POP POP POP PUSH1 0x40 MLOAD RETURNDATASIZE PUSH1 0x1F NOT PUSH1 0x1F DUP3 ADD AND DUP3 ADD DUP1 PUSH1 0x40 MSTORE POP DUP2 ADD SWAP1 PUSH2 0xACD SWAP2 SWAP1 PUSH2 0xE51 JUMP JUMPDEST POP DUP1 DUP1 PUSH1 0x1 ADD SWAP2 POP POP PUSH2 0xA13 JUMP JUMPDEST POP POP POP JUMP JUMPDEST POP DUP1 SLOAD PUSH0 DUP3 SSTORE SWAP1 PUSH0 MSTORE PUSH1 0x20 PUSH0 KECCAK256 SWAP1 DUP2 ADD SWAP1 PUSH2 0xAFB SWAP2 SWAP1 PUSH2 0xB20 JUMP JUMPDEST POP JUMP JUMPDEST PUSH1 0x40 MLOAD DUP1 PUSH1 0x60 ADD PUSH1 0x40 MSTORE DUP1 PUSH1 0x3 SWAP1 PUSH1 0x20 DUP3 MUL DUP1 CALLDATASIZE DUP4 CALLDATACOPY DUP1 DUP3 ADD SWAP2 POP POP SWAP1 POP POP SWAP1 JUMP JUMPDEST JUMPDEST DUP1 DUP3 GT ISZERO PUSH2 0xB37 JUMPI PUSH0 DUP2 PUSH0 SWAP1 SSTORE POP PUSH1 0x1 ADD PUSH2 0xB21 JUMP JUMPDEST POP SWAP1 JUMP JUMPDEST PUSH0 PUSH1 0x40 MLOAD SWAP1 POP SWAP1 JUMP JUMPDEST PUSH0 DUP1 REVERT JUMPDEST PUSH0 DUP1 REVERT JUMPDEST PUSH0 DUP2 SWAP1 POP SWAP2 SWAP1 POP JUMP JUMPDEST PUSH2 0xB5E DUP2 PUSH2 0xB4C JUMP JUMPDEST DUP2 EQ PUSH2 0xB68 JUMPI PUSH0 DUP1 REVERT JUMPDEST POP JUMP JUMPDEST PUSH0 DUP2 CALLDATALOAD SWAP1 POP PUSH2 0xB79 DUP2 PUSH2 0xB55 JUMP JUMPDEST SWAP3 SWAP2 POP POP JUMP JUMPDEST PUSH0 PUSH1 0x20 DUP3 DUP5 SUB SLT ISZERO PUSH2 0xB94 JUMPI PUSH2 0xB93 PUSH2 0xB44 JUMP JUMPDEST JUMPDEST PUSH0 PUSH2 0xBA1 DUP5 DUP3 DUP6 ADD PUSH2 0xB6B JUMP JUMPDEST SWAP2 POP POP SWAP3 SWAP2 POP POP JUMP JUMPDEST PUSH0 PUSH20 0xFFFFFFFFFFFFFFFFFFFFFFFFFFFFFFFFFFFFFFFF DUP3 AND SWAP1 POP SWAP2 SWAP1 POP JUMP JUMPDEST PUSH0 PUSH2 0xBD3 DUP3 PUSH2 0xBAA JUMP JUMPDEST SWAP1 POP SWAP2 SWAP1 POP JUMP JUMPDEST PUSH2 0xBE3 DUP2 PUSH2 0xBC9 JUMP JUMPDEST DUP3 MSTORE POP POP JUMP JUMPDEST PUSH0 PUSH1 0x20 DUP3 ADD SWAP1 POP PUSH2 0xBFC PUSH0 DUP4 ADD DUP5 PUSH2 0xBDA JUMP JUMPDEST SWAP3 SWAP2 POP POP JUMP JUMPDEST PUSH2 0xC0B DUP2 PUSH2 0xBC9 JUMP JUMPDEST DUP2 EQ PUSH2 0xC15 JUMPI PUSH0 DUP1 REVERT JUMPDEST POP JUMP JUMPDEST PUSH0 DUP2 CALLDATALOAD SWAP1 POP PUSH2 0xC26 DUP2 PUSH2 0xC02 JUMP JUMPDEST SWAP3 SWAP2 POP POP JUMP JUMPDEST PUSH0 PUSH1 0x20 DUP3 DUP5 SUB SLT ISZERO PUSH2 0xC41 JUMPI PUSH2 0xC40 PUSH2 0xB44 JUMP JUMPDEST JUMPDEST PUSH0 PUSH2 0xC4E DUP5 DUP3 DUP6 ADD PUSH2 0xC18 JUMP JUMPDEST SWAP2 POP POP SWAP3 SWAP2 POP POP JUMP JUMPDEST PUSH2 0xC60 DUP2 PUSH2 0xB4C JUMP JUMPDEST DUP3 MSTORE POP POP JUMP JUMPDEST PUSH0 PUSH1 0x40 DUP3 ADD SWAP1 POP PUSH2 0xC79 PUSH0 DUP4 ADD DUP6 PUSH2 0xC57 JUMP JUMPDEST PUSH2 0xC86 PUSH1 0x20 DUP4 ADD DUP5 PUSH2 0xC57 JUMP JUMPDEST SWAP4 SWAP3 POP POP POP JUMP JUMPDEST PUSH0 PUSH1 0x20 DUP3 ADD SWAP1 POP PUSH2 0xCA0 PUSH0 DUP4 ADD DUP5 PUSH2 0xC57 JUMP JUMPDEST SWAP3 SWAP2 POP POP JUMP JUMPDEST PUSH0 DUP1 REVERT JUMPDEST PUSH0 PUSH1 0x1F NOT PUSH1 0x1F DUP4 ADD AND SWAP1 POP SWAP2 SWAP1 POP JUMP JUMPDEST PUSH32 0x4E487B7100000000000000000000000000000000000000000000000000000000 PUSH0 MSTORE PUSH1 0x41 PUSH1 0x4 MSTORE PUSH1 0x24 PUSH0 REVERT JUMPDEST PUSH2 0xCF0 DUP3 PUSH2 0xCAA JUMP JUMPDEST DUP2 ADD DUP2 DUP2 LT PUSH8 0xFFFFFFFFFFFFFFFF DUP3 GT OR ISZERO PUSH2 0xD0F JUMPI PUSH2 0xD0E PUSH2 0xCBA JUMP JUMPDEST JUMPDEST DUP1 PUSH1 0x40 MSTORE POP POP POP JUMP JUMPDEST PUSH0 PUSH2 0xD21 PUSH2 0xB3B JUMP JUMPDEST SWAP1 POP PUSH2 0xD2D DUP3 DUP3 PUSH2 0xCE7 JUMP JUMPDEST SWAP2 SWAP1 POP JUMP JUMPDEST PUSH0 PUSH8 0xFFFFFFFFFFFFFFFF DUP3 GT ISZERO PUSH2 0xD4C JUMPI PUSH2 0xD4B PUSH2 0xCBA JUMP JUMPDEST JUMPDEST PUSH1 0x20 DUP3 MUL SWAP1 POP PUSH1 0x20 DUP2 ADD SWAP1 POP SWAP2 SWAP1 POP JUMP JUMPDEST PUSH0 DUP1 REVERT JUMPDEST PUSH0 PUSH2 0xD73 PUSH2 0xD6E DUP5 PUSH2 0xD32 JUMP JUMPDEST PUSH2 0xD18 JUMP JUMPDEST SWAP1 POP DUP1 DUP4 DUP3 MSTORE PUSH1 0x20 DUP3 ADD SWAP1 POP PUSH1 0x20 DUP5 MUL DUP4 ADD DUP6 DUP2 GT ISZERO PUSH2 0xD96 JUMPI PUSH2 0xD95 PUSH2 0xD5D JUMP JUMPDEST JUMPDEST DUP4 JUMPDEST DUP2 DUP2 LT ISZERO PUSH2 0xDBF JUMPI DUP1 PUSH2 0xDAB DUP9 DUP3 PUSH2 0xC18 JUMP JUMPDEST DUP5 MSTORE PUSH1 0x20 DUP5 ADD SWAP4 POP POP PUSH1 0x20 DUP2 ADD SWAP1 POP PUSH2 0xD98 JUMP JUMPDEST POP POP POP SWAP4 SWAP3 POP POP POP JUMP JUMPDEST PUSH0 DUP3 PUSH1 0x1F DUP4 ADD SLT PUSH2 0xDDD JUMPI PUSH2 0xDDC PUSH2 0xCA6 JUMP JUMPDEST JUMPDEST DUP2 CALLDATALOAD PUSH2 0xDED DUP5 DUP3 PUSH1 0x20 DUP7 ADD PUSH2 0xD61 JUMP JUMPDEST SWAP2 POP POP SWAP3 SWAP2 POP POP JUMP JUMPDEST PUSH0 PUSH1 0x20 DUP3 DUP5 SUB SLT ISZERO PUSH2 0xE0B JUMPI PUSH2 0xE0A PUSH2 0xB44 JUMP JUMPDEST JUMPDEST PUSH0 DUP3 ADD CALLDATALOAD PUSH8 0xFFFFFFFFFFFFFFFF DUP2 GT ISZERO PUSH2 0xE28 JUMPI PUSH2 0xE27 PUSH2 0xB48 JUMP JUMPDEST JUMPDEST PUSH2 0xE34 DUP5 DUP3 DUP6 ADD PUSH2 0xDC9 JUMP JUMPDEST SWAP2 POP POP SWAP3 SWAP2 POP POP JUMP JUMPDEST PUSH0 DUP2 MLOAD SWAP1 POP PUSH2 0xE4B DUP2 PUSH2 0xB55 JUMP JUMPDEST SWAP3 SWAP2 POP POP JUMP JUMPDEST PUSH0 PUSH1 0x20 DUP3 DUP5 SUB SLT ISZERO PUSH2 0xE66 JUMPI PUSH2 0xE65 PUSH2 0xB44 JUMP JUMPDEST JUMPDEST PUSH0 PUSH2 0xE73 DUP5 DUP3 DUP6 ADD PUSH2 0xE3D JUMP JUMPDEST SWAP2 POP POP SWAP3 SWAP2 POP POP JUMP JUMPDEST PUSH0 DUP3 DUP3 MSTORE PUSH1 0x20 DUP3 ADD SWAP1 POP SWAP3 SWAP2 POP POP JUMP JUMPDEST PUSH32 0x496E737566666963656E742042616C616E636500000000000000000000000000 PUSH0 DUP3 ADD MSTORE POP JUMP JUMPDEST PUSH0 PUSH2 0xEC0 PUSH1 0x13 DUP4 PUSH2 0xE7C JUMP JUMPDEST SWAP2 POP PUSH2 0xECB DUP3 PUSH2 0xE8C JUMP JUMPDEST PUSH1 0x20 DUP3 ADD SWAP1 POP SWAP2 SWAP1 POP JUMP JUMPDEST PUSH0 PUSH1 0x20 DUP3 ADD SWAP1 POP DUP2 DUP2 SUB PUSH0 DUP4 ADD MSTORE PUSH2 0xEED DUP2 PUSH2 0xEB4 JUMP JUMPDEST SWAP1 POP SWAP2 SWAP1 POP JUMP JUMPDEST PUSH0 PUSH1 0x60 DUP3 ADD SWAP1 POP PUSH2 0xF07 PUSH0 DUP4 ADD DUP7 PUSH2 0xBDA JUMP JUMPDEST PUSH2 0xF14 PUSH1 0x20 DUP4 ADD DUP6 PUSH2 0xBDA JUMP JUMPDEST PUSH2 0xF21 PUSH1 0x40 DUP4 ADD DUP5 PUSH2 0xC57 JUMP JUMPDEST SWAP5 SWAP4 POP POP POP POP JUMP JUMPDEST PUSH0 DUP2 ISZERO ISZERO SWAP1 POP SWAP2 SWAP1 POP JUMP JUMPDEST PUSH2 0xF3D DUP2 PUSH2 0xF29 JUMP JUMPDEST DUP2 EQ PUSH2 0xF47 JUMPI PUSH0 DUP1 REVERT JUMPDEST POP JUMP JUMPDEST PUSH0 DUP2 MLOAD SWAP1 POP PUSH2 0xF58 DUP2 PUSH2 0xF34 JUMP JUMPDEST SWAP3 SWAP2 POP POP JUMP JUMPDEST PUSH0 PUSH1 0x20 DUP3 DUP5 SUB SLT ISZERO PUSH2 0xF73 JUMPI PUSH2 0xF72 PUSH2 0xB44 JUMP JUMPDEST JUMPDEST PUSH0 PUSH2 0xF80 DUP5 DUP3 DUP6 ADD PUSH2 0xF4A JUMP JUMPDEST SWAP2 POP POP SWAP3 SWAP2 POP POP JUMP JUMPDEST PUSH32 0x4E487B7100000000000000000000000000000000000000000000000000000000 PUSH0 MSTORE PUSH1 0x11 PUSH1 0x4 MSTORE PUSH1 0x24 PUSH0 REVERT JUMPDEST PUSH0 PUSH2 0xFC0 DUP3 PUSH2 0xB4C JUMP JUMPDEST SWAP2 POP PUSH2 0xFCB DUP4 PUSH2 0xB4C JUMP JUMPDEST SWAP3 POP DUP3 DUP3 MUL PUSH2 0xFD9 DUP2 PUSH2 0xB4C JUMP JUMPDEST SWAP2 POP DUP3 DUP3 DIV DUP5 EQ DUP4 ISZERO OR PUSH2 0xFF0 JUMPI PUSH2 0xFEF PUSH2 0xF89 JUMP JUMPDEST JUMPDEST POP SWAP3 SWAP2 POP POP JUMP JUMPDEST PUSH32 0x4E487B7100000000000000000000000000000000000000000000000000000000 PUSH0 MSTORE PUSH1 0x12 PUSH1 0x4 MSTORE PUSH1 0x24 PUSH0 REVERT JUMPDEST PUSH0 PUSH2 0x102E DUP3 PUSH2 0xB4C JUMP JUMPDEST SWAP2 POP PUSH2 0x1039 DUP4 PUSH2 0xB4C JUMP JUMPDEST SWAP3 POP DUP3 PUSH2 0x1049 JUMPI PUSH2 0x1048 PUSH2 0xFF7 JUMP JUMPDEST JUMPDEST DUP3 DUP3 DIV SWAP1 POP SWAP3 SWAP2 POP POP JUMP JUMPDEST PUSH32 0x4E487B7100000000000000000000000000000000000000000000000000000000 PUSH0 MSTORE PUSH1 0x32 PUSH1 0x4 MSTORE PUSH1 0x24 PUSH0 REVERT JUMPDEST PUSH0 PUSH1 0x40 DUP3 ADD SWAP1 POP PUSH2 0x1094 PUSH0 DUP4 ADD DUP6 PUSH2 0xBDA JUMP JUMPDEST PUSH2 0x10A1 PUSH1 0x20 DUP4 ADD DUP5 PUSH2 0xC57 JUMP JUMPDEST SWAP4 SWAP3 POP POP POP JUMP INVALID LOG2 PUSH5 0x6970667358 0x22 SLT KECCAK256 SHR 0x23 0xB0 STATICCALL 0x2F SAR SWAP3 0x1F 0xE2 0xEC CALLDATASIZE 0xBE PUSH21 0xCCF7F3E4384F464EBA111FE12F3EC20446D1F76473 PUSH16 0x6C634300081A00330000000000000000 "
				},
				"gasEstimates": {
					"creation": {
						"codeDepositCost": "863600",
						"executionCost": "infinite",
						"totalCost": "infinite"
					},
					"external": {
						"balance(address)": "infinite",
						"callPLayed(address)": "infinite",
						"sendInfo(address[])": "infinite",
						"sendRewards()": "infinite",
						"transfer2CA(uint256)": "infinite"
					}
				},
				"methodIdentifiers": {
					"balance(address)": "e3d670d7",
					"callPLayed(address)": "8f665496",
					"sendInfo(address[])": "f7f85b89",
					"sendRewards()": "95cb1b1e",
					"transfer2CA(uint256)": "1920d117"
				}
			},
			"storageLayout": {
				"storage": [
					{
						"astId": 58,
						"contract": "contracts/trvx.sol:TriviaBase",
						"label": "storeUserData",
						"offset": 0,
						"slot": "0",
						"type": "t_contract(TriviaBaseCreate)464"
					},
					{
						"astId": 112,
						"contract": "contracts/trvx.sol:TriviaBase",
						"label": "winners",
						"offset": 0,
						"slot": "1",
						"type": "t_array(t_address)dyn_storage"
					},
					{
						"astId": 115,
						"contract": "contracts/trvx.sol:TriviaBase",
						"label": "losers",
						"offset": 0,
						"slot": "2",
						"type": "t_array(t_address)dyn_storage"
					}
				],
				"types": {
					"t_address": {
						"encoding": "inplace",
						"label": "address",
						"numberOfBytes": "20"
					},
					"t_array(t_address)dyn_storage": {
						"base": "t_address",
						"encoding": "dynamic_array",
						"label": "address[]",
						"numberOfBytes": "32"
					},
					"t_contract(TriviaBaseCreate)464": {
						"encoding": "inplace",
						"label": "contract TriviaBaseCreate",
						"numberOfBytes": "20"
					}
				}
			},
			"userdoc": {
				"kind": "user",
				"methods": {},
				"version": 1
			}
		}
	}
}