{
	"contracts/erc20base.sol": {
		"WeightedVoting": {
			"abi": [
				{
					"inputs": [],
					"stateMutability": "nonpayable",
					"type": "constructor"
				},
				{
					"inputs": [],
					"name": "AllTokensClaimed",
					"type": "error"
				},
				{
					"inputs": [],
					"name": "AlreadyVoted",
					"type": "error"
				},
				{
					"inputs": [
						{
							"internalType": "address",
							"name": "spender",
							"type": "address"
						},
						{
							"internalType": "uint256",
							"name": "allowance",
							"type": "uint256"
						},
						{
							"internalType": "uint256",
							"name": "needed",
							"type": "uint256"
						}
					],
					"name": "ERC20InsufficientAllowance",
					"type": "error"
				},
				{
					"inputs": [
						{
							"internalType": "address",
							"name": "sender",
							"type": "address"
						},
						{
							"internalType": "uint256",
							"name": "balance",
							"type": "uint256"
						},
						{
							"internalType": "uint256",
							"name": "needed",
							"type": "uint256"
						}
					],
					"name": "ERC20InsufficientBalance",
					"type": "error"
				},
				{
					"inputs": [
						{
							"internalType": "address",
							"name": "approver",
							"type": "address"
						}
					],
					"name": "ERC20InvalidApprover",
					"type": "error"
				},
				{
					"inputs": [
						{
							"internalType": "address",
							"name": "receiver",
							"type": "address"
						}
					],
					"name": "ERC20InvalidReceiver",
					"type": "error"
				},
				{
					"inputs": [
						{
							"internalType": "address",
							"name": "sender",
							"type": "address"
						}
					],
					"name": "ERC20InvalidSender",
					"type": "error"
				},
				{
					"inputs": [
						{
							"internalType": "address",
							"name": "spender",
							"type": "address"
						}
					],
					"name": "ERC20InvalidSpender",
					"type": "error"
				},
				{
					"inputs": [],
					"name": "NoTokensHeld",
					"type": "error"
				},
				{
					"inputs": [
						{
							"internalType": "uint256",
							"name": "quorum",
							"type": "uint256"
						}
					],
					"name": "QuorumTooHigh",
					"type": "error"
				},
				{
					"inputs": [],
					"name": "TokensClaimed",
					"type": "error"
				},
				{
					"inputs": [],
					"name": "VotingClosed",
					"type": "error"
				},
				{
					"anonymous": false,
					"inputs": [
						{
							"indexed": true,
							"internalType": "address",
							"name": "owner",
							"type": "address"
						},
						{
							"indexed": true,
							"internalType": "address",
							"name": "spender",
							"type": "address"
						},
						{
							"indexed": false,
							"internalType": "uint256",
							"name": "value",
							"type": "uint256"
						}
					],
					"name": "Approval",
					"type": "event"
				},
				{
					"anonymous": false,
					"inputs": [
						{
							"indexed": true,
							"internalType": "address",
							"name": "from",
							"type": "address"
						},
						{
							"indexed": true,
							"internalType": "address",
							"name": "to",
							"type": "address"
						},
						{
							"indexed": false,
							"internalType": "uint256",
							"name": "value",
							"type": "uint256"
						}
					],
					"name": "Transfer",
					"type": "event"
				},
				{
					"inputs": [
						{
							"internalType": "address",
							"name": "owner",
							"type": "address"
						},
						{
							"internalType": "address",
							"name": "spender",
							"type": "address"
						}
					],
					"name": "allowance",
					"outputs": [
						{
							"internalType": "uint256",
							"name": "",
							"type": "uint256"
						}
					],
					"stateMutability": "view",
					"type": "function"
				},
				{
					"inputs": [
						{
							"internalType": "address",
							"name": "spender",
							"type": "address"
						},
						{
							"internalType": "uint256",
							"name": "value",
							"type": "uint256"
						}
					],
					"name": "approve",
					"outputs": [
						{
							"internalType": "bool",
							"name": "",
							"type": "bool"
						}
					],
					"stateMutability": "nonpayable",
					"type": "function"
				},
				{
					"inputs": [
						{
							"internalType": "address",
							"name": "account",
							"type": "address"
						}
					],
					"name": "balanceOf",
					"outputs": [
						{
							"internalType": "uint256",
							"name": "",
							"type": "uint256"
						}
					],
					"stateMutability": "view",
					"type": "function"
				},
				{
					"inputs": [],
					"name": "claim",
					"outputs": [],
					"stateMutability": "nonpayable",
					"type": "function"
				},
				{
					"inputs": [
						{
							"internalType": "string",
							"name": "_issueDesc",
							"type": "string"
						},
						{
							"internalType": "uint256",
							"name": "_quorum",
							"type": "uint256"
						}
					],
					"name": "createIssue",
					"outputs": [
						{
							"internalType": "uint256",
							"name": "",
							"type": "uint256"
						}
					],
					"stateMutability": "nonpayable",
					"type": "function"
				},
				{
					"inputs": [],
					"name": "decimals",
					"outputs": [
						{
							"internalType": "uint8",
							"name": "",
							"type": "uint8"
						}
					],
					"stateMutability": "view",
					"type": "function"
				},
				{
					"inputs": [
						{
							"internalType": "uint256",
							"name": "_id",
							"type": "uint256"
						}
					],
					"name": "getIssue",
					"outputs": [
						{
							"components": [
								{
									"internalType": "string",
									"name": "issueDesc",
									"type": "string"
								},
								{
									"internalType": "uint256",
									"name": "votesFor",
									"type": "uint256"
								},
								{
									"internalType": "uint256",
									"name": "votesAgainst",
									"type": "uint256"
								},
								{
									"internalType": "uint256",
									"name": "votesAbstain",
									"type": "uint256"
								},
								{
									"internalType": "uint256",
									"name": "totalVotes",
									"type": "uint256"
								},
								{
									"internalType": "uint256",
									"name": "quorum",
									"type": "uint256"
								},
								{
									"internalType": "bool",
									"name": "passed",
									"type": "bool"
								},
								{
									"internalType": "bool",
									"name": "closed",
									"type": "bool"
								}
							],
							"internalType": "struct WeightedVoting.IssueView",
							"name": "",
							"type": "tuple"
						}
					],
					"stateMutability": "view",
					"type": "function"
				},
				{
					"inputs": [],
					"name": "maxSupply",
					"outputs": [
						{
							"internalType": "uint256",
							"name": "",
							"type": "uint256"
						}
					],
					"stateMutability": "view",
					"type": "function"
				},
				{
					"inputs": [],
					"name": "name",
					"outputs": [
						{
							"internalType": "string",
							"name": "",
							"type": "string"
						}
					],
					"stateMutability": "view",
					"type": "function"
				},
				{
					"inputs": [],
					"name": "symbol",
					"outputs": [
						{
							"internalType": "string",
							"name": "",
							"type": "string"
						}
					],
					"stateMutability": "view",
					"type": "function"
				},
				{
					"inputs": [],
					"name": "totalSupply",
					"outputs": [
						{
							"internalType": "uint256",
							"name": "",
							"type": "uint256"
						}
					],
					"stateMutability": "view",
					"type": "function"
				},
				{
					"inputs": [
						{
							"internalType": "address",
							"name": "to",
							"type": "address"
						},
						{
							"internalType": "uint256",
							"name": "value",
							"type": "uint256"
						}
					],
					"name": "transfer",
					"outputs": [
						{
							"internalType": "bool",
							"name": "",
							"type": "bool"
						}
					],
					"stateMutability": "nonpayable",
					"type": "function"
				},
				{
					"inputs": [
						{
							"internalType": "address",
							"name": "from",
							"type": "address"
						},
						{
							"internalType": "address",
							"name": "to",
							"type": "address"
						},
						{
							"internalType": "uint256",
							"name": "value",
							"type": "uint256"
						}
					],
					"name": "transferFrom",
					"outputs": [
						{
							"internalType": "bool",
							"name": "",
							"type": "bool"
						}
					],
					"stateMutability": "nonpayable",
					"type": "function"
				},
				{
					"inputs": [
						{
							"internalType": "uint256",
							"name": "_issueId",
							"type": "uint256"
						},
						{
							"internalType": "enum WeightedVoting.Vote",
							"name": "_vote",
							"type": "uint8"
						}
					],
					"name": "vote",
					"outputs": [],
					"stateMutability": "nonpayable",
					"type": "function"
				}
			],
			"devdoc": {
				"errors": {
					"ERC20InsufficientAllowance(address,uint256,uint256)": [
						{
							"details": "Indicates a failure with the `spender`’s `allowance`. Used in transfers.",
							"params": {
								"allowance": "Amount of tokens a `spender` is allowed to operate with.",
								"needed": "Minimum amount required to perform a transfer.",
								"spender": "Address that may be allowed to operate on tokens without being their owner."
							}
						}
					],
					"ERC20InsufficientBalance(address,uint256,uint256)": [
						{
							"details": "Indicates an error related to the current `balance` of a `sender`. Used in transfers.",
							"params": {
								"balance": "Current balance for the interacting account.",
								"needed": "Minimum amount required to perform a transfer.",
								"sender": "Address whose tokens are being transferred."
							}
						}
					],
					"ERC20InvalidApprover(address)": [
						{
							"details": "Indicates a failure with the `approver` of a token to be approved. Used in approvals.",
							"params": {
								"approver": "Address initiating an approval operation."
							}
						}
					],
					"ERC20InvalidReceiver(address)": [
						{
							"details": "Indicates a failure with the token `receiver`. Used in transfers.",
							"params": {
								"receiver": "Address to which tokens are being transferred."
							}
						}
					],
					"ERC20InvalidSender(address)": [
						{
							"details": "Indicates a failure with the token `sender`. Used in transfers.",
							"params": {
								"sender": "Address whose tokens are being transferred."
							}
						}
					],
					"ERC20InvalidSpender(address)": [
						{
							"details": "Indicates a failure with the `spender` to be approved. Used in approvals.",
							"params": {
								"spender": "Address that may be allowed to operate on tokens without being their owner."
							}
						}
					]
				},
				"events": {
					"Approval(address,address,uint256)": {
						"details": "Emitted when the allowance of a `spender` for an `owner` is set by a call to {approve}. `value` is the new allowance."
					},
					"Transfer(address,address,uint256)": {
						"details": "Emitted when `value` tokens are moved from one account (`from`) to another (`to`). Note that `value` may be zero."
					}
				},
				"kind": "dev",
				"methods": {
					"allowance(address,address)": {
						"details": "See {IERC20-allowance}."
					},
					"approve(address,uint256)": {
						"details": "See {IERC20-approve}. NOTE: If `value` is the maximum `uint256`, the allowance is not updated on `transferFrom`. This is semantically equivalent to an infinite approval. Requirements: - `spender` cannot be the zero address."
					},
					"balanceOf(address)": {
						"details": "See {IERC20-balanceOf}."
					},
					"decimals()": {
						"details": "Returns the number of decimals used to get its user representation. For example, if `decimals` equals `2`, a balance of `505` tokens should be displayed to a user as `5.05` (`505 / 10 ** 2`). Tokens usually opt for a value of 18, imitating the relationship between Ether and Wei. This is the default value returned by this function, unless it's overridden. NOTE: This information is only used for _display_ purposes: it in no way affects any of the arithmetic of the contract, including {IERC20-balanceOf} and {IERC20-transfer}."
					},
					"name()": {
						"details": "Returns the name of the token."
					},
					"symbol()": {
						"details": "Returns the symbol of the token, usually a shorter version of the name."
					},
					"totalSupply()": {
						"details": "See {IERC20-totalSupply}."
					},
					"transfer(address,uint256)": {
						"details": "See {IERC20-transfer}. Requirements: - `to` cannot be the zero address. - the caller must have a balance of at least `value`."
					},
					"transferFrom(address,address,uint256)": {
						"details": "See {IERC20-transferFrom}. Skips emitting an {Approval} event indicating an allowance update. This is not required by the ERC. See {xref-ERC20-_approve-address-address-uint256-bool-}[_approve]. NOTE: Does not update the allowance if the current allowance is the maximum `uint256`. Requirements: - `from` and `to` cannot be the zero address. - `from` must have a balance of at least `value`. - the caller must have allowance for ``from``'s tokens of at least `value`."
					}
				},
				"version": 1
			},
			"evm": {
				"assembly": "    /* \"contracts/erc20base.sol\":287:3547  contract WeightedVoting is ERC20 {... */\n  mstore(0x40, 0x80)\n    /* \"contracts/erc20base.sol\":425:435  decimals() */\n  tag_1\n    /* \"contracts/erc20base.sol\":425:433  decimals */\n  shl(0x20, tag_2)\n    /* \"contracts/erc20base.sol\":425:435  decimals() */\n  0x20\n  shr\n  jump\t// in\ntag_1:\n    /* \"contracts/erc20base.sol\":421:423  10 */\n  0x0a\n    /* \"contracts/erc20base.sol\":421:435  10**decimals() */\n  tag_3\n  swap2\n  swap1\n  tag_4\n  jump\t// in\ntag_3:\n    /* \"contracts/erc20base.sol\":408:417  1_000_000 */\n  0x0f4240\n    /* \"contracts/erc20base.sol\":408:436  1_000_000 * (10**decimals()) */\n  tag_5\n  swap2\n  swap1\n  tag_6\n  jump\t// in\ntag_5:\n    /* \"contracts/erc20base.sol\":381:436  uint256 public maxSupply = 1_000_000 * (10**decimals()) */\n  0x05\n  sstore\n    /* \"contracts/erc20base.sol\":1268:1356  constructor() ERC20(\"WeightedToken\", \"WT\") {... */\n  callvalue\n  dup1\n  iszero\n  tag_7\n  jumpi\n  0x00\n  dup1\n  revert\ntag_7:\n  pop\n    /* \"https://github.com/OpenZeppelin/openzeppelin-contracts/blob/master/contracts/token/ERC20/ERC20.sol\":1601:1714  constructor(string memory name_, string memory symbol_) {... */\n  mload(0x40)\n  dup1\n  0x40\n  add\n  0x40\n  mstore\n  dup1\n  0x0d\n  dup2\n  mstore\n  0x20\n  add\n  0x5765696768746564546f6b656e00000000000000000000000000000000000000\n  dup2\n  mstore\n  pop\n  mload(0x40)\n  dup1\n  0x40\n  add\n  0x40\n  mstore\n  dup1\n  0x02\n  dup2\n  mstore\n  0x20\n  add\n  0x5754000000000000000000000000000000000000000000000000000000000000\n  dup2\n  mstore\n  pop\n    /* \"https://github.com/OpenZeppelin/openzeppelin-contracts/blob/master/contracts/token/ERC20/ERC20.sol\":1675:1680  name_ */\n  dup2\n    /* \"https://github.com/OpenZeppelin/openzeppelin-contracts/blob/master/contracts/token/ERC20/ERC20.sol\":1667:1672  _name */\n  0x03\n    /* \"https://github.com/OpenZeppelin/openzeppelin-contracts/blob/master/contracts/token/ERC20/ERC20.sol\":1667:1680  _name = name_ */\n  swap1\n  dup2\n  tag_11\n  swap2\n  swap1\n  tag_12\n  jump\t// in\ntag_11:\n  pop\n    /* \"https://github.com/OpenZeppelin/openzeppelin-contracts/blob/master/contracts/token/ERC20/ERC20.sol\":1700:1707  symbol_ */\n  dup1\n    /* \"https://github.com/OpenZeppelin/openzeppelin-contracts/blob/master/contracts/token/ERC20/ERC20.sol\":1690:1697  _symbol */\n  0x04\n    /* \"https://github.com/OpenZeppelin/openzeppelin-contracts/blob/master/contracts/token/ERC20/ERC20.sol\":1690:1707  _symbol = symbol_ */\n  swap1\n  dup2\n  tag_13\n  swap2\n  swap1\n  tag_12\n  jump\t// in\ntag_13:\n  pop\n    /* \"https://github.com/OpenZeppelin/openzeppelin-contracts/blob/master/contracts/token/ERC20/ERC20.sol\":1601:1714  constructor(string memory name_, string memory symbol_) {... */\n  pop\n  pop\n    /* \"contracts/erc20base.sol\":1321:1349  _mint(msg.sender, maxSupply) */\n  tag_15\n    /* \"contracts/erc20base.sol\":1327:1337  msg.sender */\n  caller\n    /* \"contracts/erc20base.sol\":1339:1348  maxSupply */\n  sload(0x05)\n    /* \"contracts/erc20base.sol\":1321:1326  _mint */\n  shl(0x20, tag_16)\n    /* \"contracts/erc20base.sol\":1321:1349  _mint(msg.sender, maxSupply) */\n  0x20\n  shr\n  jump\t// in\ntag_15:\n    /* \"contracts/erc20base.sol\":287:3547  contract WeightedVoting is ERC20 {... */\n  jump(tag_17)\n    /* \"https://github.com/OpenZeppelin/openzeppelin-contracts/blob/master/contracts/token/ERC20/ERC20.sol\":2707:2789  function decimals() public view virtual returns (uint8) {... */\ntag_2:\n    /* \"https://github.com/OpenZeppelin/openzeppelin-contracts/blob/master/contracts/token/ERC20/ERC20.sol\":2756:2761  uint8 */\n  0x00\n    /* \"https://github.com/OpenZeppelin/openzeppelin-contracts/blob/master/contracts/token/ERC20/ERC20.sol\":2780:2782  18 */\n  0x12\n    /* \"https://github.com/OpenZeppelin/openzeppelin-contracts/blob/master/contracts/token/ERC20/ERC20.sol\":2773:2782  return 18 */\n  swap1\n  pop\n    /* \"https://github.com/OpenZeppelin/openzeppelin-contracts/blob/master/contracts/token/ERC20/ERC20.sol\":2707:2789  function decimals() public view virtual returns (uint8) {... */\n  swap1\n  jump\t// out\n    /* \"https://github.com/OpenZeppelin/openzeppelin-contracts/blob/master/contracts/token/ERC20/ERC20.sol\":7458:7666  function _mint(address account, uint256 value) internal {... */\ntag_16:\n    /* \"https://github.com/OpenZeppelin/openzeppelin-contracts/blob/master/contracts/token/ERC20/ERC20.sol\":7547:7548  0 */\n  0x00\n    /* \"https://github.com/OpenZeppelin/openzeppelin-contracts/blob/master/contracts/token/ERC20/ERC20.sol\":7528:7549  account == address(0) */\n  0xffffffffffffffffffffffffffffffffffffffff\n  and\n    /* \"https://github.com/OpenZeppelin/openzeppelin-contracts/blob/master/contracts/token/ERC20/ERC20.sol\":7528:7535  account */\n  dup3\n    /* \"https://github.com/OpenZeppelin/openzeppelin-contracts/blob/master/contracts/token/ERC20/ERC20.sol\":7528:7549  account == address(0) */\n  0xffffffffffffffffffffffffffffffffffffffff\n  and\n  sub\n    /* \"https://github.com/OpenZeppelin/openzeppelin-contracts/blob/master/contracts/token/ERC20/ERC20.sol\":7524:7615  if (account == address(0)) {... */\n  tag_20\n  jumpi\n    /* \"https://github.com/OpenZeppelin/openzeppelin-contracts/blob/master/contracts/token/ERC20/ERC20.sol\":7601:7602  0 */\n  0x00\n    /* \"https://github.com/OpenZeppelin/openzeppelin-contracts/blob/master/contracts/token/ERC20/ERC20.sol\":7572:7604  ERC20InvalidReceiver(address(0)) */\n  mload(0x40)\n  0xec442f0500000000000000000000000000000000000000000000000000000000\n  dup2\n  mstore\n  0x04\n  add\n  tag_21\n  swap2\n  swap1\n  tag_22\n  jump\t// in\ntag_21:\n  mload(0x40)\n  dup1\n  swap2\n  sub\n  swap1\n  revert\n    /* \"https://github.com/OpenZeppelin/openzeppelin-contracts/blob/master/contracts/token/ERC20/ERC20.sol\":7524:7615  if (account == address(0)) {... */\ntag_20:\n    /* \"https://github.com/OpenZeppelin/openzeppelin-contracts/blob/master/contracts/token/ERC20/ERC20.sol\":7624:7659  _update(address(0), account, value) */\n  tag_23\n    /* \"https://github.com/OpenZeppelin/openzeppelin-contracts/blob/master/contracts/token/ERC20/ERC20.sol\":7640:7641  0 */\n  0x00\n    /* \"https://github.com/OpenZeppelin/openzeppelin-contracts/blob/master/contracts/token/ERC20/ERC20.sol\":7644:7651  account */\n  dup4\n    /* \"https://github.com/OpenZeppelin/openzeppelin-contracts/blob/master/contracts/token/ERC20/ERC20.sol\":7653:7658  value */\n  dup4\n    /* \"https://github.com/OpenZeppelin/openzeppelin-contracts/blob/master/contracts/token/ERC20/ERC20.sol\":7624:7631  _update */\n  shl(0x20, tag_24)\n    /* \"https://github.com/OpenZeppelin/openzeppelin-contracts/blob/master/contracts/token/ERC20/ERC20.sol\":7624:7659  _update(address(0), account, value) */\n  0x20\n  shr\n  jump\t// in\ntag_23:\n    /* \"https://github.com/OpenZeppelin/openzeppelin-contracts/blob/master/contracts/token/ERC20/ERC20.sol\":7458:7666  function _mint(address account, uint256 value) internal {... */\n  pop\n  pop\n  jump\t// out\n    /* \"https://github.com/OpenZeppelin/openzeppelin-contracts/blob/master/contracts/token/ERC20/ERC20.sol\":6008:7115  function _update(address from, address to, uint256 value) internal virtual {... */\ntag_24:\n    /* \"https://github.com/OpenZeppelin/openzeppelin-contracts/blob/master/contracts/token/ERC20/ERC20.sol\":6113:6114  0 */\n  0x00\n    /* \"https://github.com/OpenZeppelin/openzeppelin-contracts/blob/master/contracts/token/ERC20/ERC20.sol\":6097:6115  from == address(0) */\n  0xffffffffffffffffffffffffffffffffffffffff\n  and\n    /* \"https://github.com/OpenZeppelin/openzeppelin-contracts/blob/master/contracts/token/ERC20/ERC20.sol\":6097:6101  from */\n  dup4\n    /* \"https://github.com/OpenZeppelin/openzeppelin-contracts/blob/master/contracts/token/ERC20/ERC20.sol\":6097:6115  from == address(0) */\n  0xffffffffffffffffffffffffffffffffffffffff\n  and\n  sub\n    /* \"https://github.com/OpenZeppelin/openzeppelin-contracts/blob/master/contracts/token/ERC20/ERC20.sol\":6093:6633  if (from == address(0)) {... */\n  tag_26\n  jumpi\n    /* \"https://github.com/OpenZeppelin/openzeppelin-contracts/blob/master/contracts/token/ERC20/ERC20.sol\":6249:6254  value */\n  dup1\n    /* \"https://github.com/OpenZeppelin/openzeppelin-contracts/blob/master/contracts/token/ERC20/ERC20.sol\":6233:6245  _totalSupply */\n  0x02\n  0x00\n    /* \"https://github.com/OpenZeppelin/openzeppelin-contracts/blob/master/contracts/token/ERC20/ERC20.sol\":6233:6254  _totalSupply += value */\n  dup3\n  dup3\n  sload\n  tag_27\n  swap2\n  swap1\n  tag_28\n  jump\t// in\ntag_27:\n  swap3\n  pop\n  pop\n  dup2\n  swap1\n  sstore\n  pop\n    /* \"https://github.com/OpenZeppelin/openzeppelin-contracts/blob/master/contracts/token/ERC20/ERC20.sol\":6093:6633  if (from == address(0)) {... */\n  jump(tag_29)\ntag_26:\n    /* \"https://github.com/OpenZeppelin/openzeppelin-contracts/blob/master/contracts/token/ERC20/ERC20.sol\":6285:6304  uint256 fromBalance */\n  0x00\n    /* \"https://github.com/OpenZeppelin/openzeppelin-contracts/blob/master/contracts/token/ERC20/ERC20.sol\":6307:6316  _balances */\n  dup1\n    /* \"https://github.com/OpenZeppelin/openzeppelin-contracts/blob/master/contracts/token/ERC20/ERC20.sol\":6307:6322  _balances[from] */\n  0x00\n    /* \"https://github.com/OpenZeppelin/openzeppelin-contracts/blob/master/contracts/token/ERC20/ERC20.sol\":6317:6321  from */\n  dup6\n    /* \"https://github.com/OpenZeppelin/openzeppelin-contracts/blob/master/contracts/token/ERC20/ERC20.sol\":6307:6322  _balances[from] */\n  0xffffffffffffffffffffffffffffffffffffffff\n  and\n  0xffffffffffffffffffffffffffffffffffffffff\n  and\n  dup2\n  mstore\n  0x20\n  add\n  swap1\n  dup2\n  mstore\n  0x20\n  add\n  0x00\n  keccak256\n  sload\n    /* \"https://github.com/OpenZeppelin/openzeppelin-contracts/blob/master/contracts/token/ERC20/ERC20.sol\":6285:6322  uint256 fromBalance = _balances[from] */\n  swap1\n  pop\n    /* \"https://github.com/OpenZeppelin/openzeppelin-contracts/blob/master/contracts/token/ERC20/ERC20.sol\":6354:6359  value */\n  dup2\n    /* \"https://github.com/OpenZeppelin/openzeppelin-contracts/blob/master/contracts/token/ERC20/ERC20.sol\":6340:6351  fromBalance */\n  dup2\n    /* \"https://github.com/OpenZeppelin/openzeppelin-contracts/blob/master/contracts/token/ERC20/ERC20.sol\":6340:6359  fromBalance < value */\n  lt\n    /* \"https://github.com/OpenZeppelin/openzeppelin-contracts/blob/master/contracts/token/ERC20/ERC20.sol\":6336:6451  if (fromBalance < value) {... */\n  iszero\n  tag_30\n  jumpi\n    /* \"https://github.com/OpenZeppelin/openzeppelin-contracts/blob/master/contracts/token/ERC20/ERC20.sol\":6411:6415  from */\n  dup4\n    /* \"https://github.com/OpenZeppelin/openzeppelin-contracts/blob/master/contracts/token/ERC20/ERC20.sol\":6417:6428  fromBalance */\n  dup2\n    /* \"https://github.com/OpenZeppelin/openzeppelin-contracts/blob/master/contracts/token/ERC20/ERC20.sol\":6430:6435  value */\n  dup4\n    /* \"https://github.com/OpenZeppelin/openzeppelin-contracts/blob/master/contracts/token/ERC20/ERC20.sol\":6386:6436  ERC20InsufficientBalance(from, fromBalance, value) */\n  mload(0x40)\n  0xe450d38c00000000000000000000000000000000000000000000000000000000\n  dup2\n  mstore\n  0x04\n  add\n  tag_31\n  swap4\n  swap3\n  swap2\n  swap1\n  tag_32\n  jump\t// in\ntag_31:\n  mload(0x40)\n  dup1\n  swap2\n  sub\n  swap1\n  revert\n    /* \"https://github.com/OpenZeppelin/openzeppelin-contracts/blob/master/contracts/token/ERC20/ERC20.sol\":6336:6451  if (fromBalance < value) {... */\ntag_30:\n    /* \"https://github.com/OpenZeppelin/openzeppelin-contracts/blob/master/contracts/token/ERC20/ERC20.sol\":6603:6608  value */\n  dup2\n    /* \"https://github.com/OpenZeppelin/openzeppelin-contracts/blob/master/contracts/token/ERC20/ERC20.sol\":6589:6600  fromBalance */\n  dup2\n    /* \"https://github.com/OpenZeppelin/openzeppelin-contracts/blob/master/contracts/token/ERC20/ERC20.sol\":6589:6608  fromBalance - value */\n  sub\n    /* \"https://github.com/OpenZeppelin/openzeppelin-contracts/blob/master/contracts/token/ERC20/ERC20.sol\":6571:6580  _balances */\n  0x00\n    /* \"https://github.com/OpenZeppelin/openzeppelin-contracts/blob/master/contracts/token/ERC20/ERC20.sol\":6571:6586  _balances[from] */\n  dup1\n    /* \"https://github.com/OpenZeppelin/openzeppelin-contracts/blob/master/contracts/token/ERC20/ERC20.sol\":6581:6585  from */\n  dup7\n    /* \"https://github.com/OpenZeppelin/openzeppelin-contracts/blob/master/contracts/token/ERC20/ERC20.sol\":6571:6586  _balances[from] */\n  0xffffffffffffffffffffffffffffffffffffffff\n  and\n  0xffffffffffffffffffffffffffffffffffffffff\n  and\n  dup2\n  mstore\n  0x20\n  add\n  swap1\n  dup2\n  mstore\n  0x20\n  add\n  0x00\n  keccak256\n    /* \"https://github.com/OpenZeppelin/openzeppelin-contracts/blob/master/contracts/token/ERC20/ERC20.sol\":6571:6608  _balances[from] = fromBalance - value */\n  dup2\n  swap1\n  sstore\n  pop\n    /* \"https://github.com/OpenZeppelin/openzeppelin-contracts/blob/master/contracts/token/ERC20/ERC20.sol\":6271:6633  {... */\n  pop\n    /* \"https://github.com/OpenZeppelin/openzeppelin-contracts/blob/master/contracts/token/ERC20/ERC20.sol\":6093:6633  if (from == address(0)) {... */\ntag_29:\n    /* \"https://github.com/OpenZeppelin/openzeppelin-contracts/blob/master/contracts/token/ERC20/ERC20.sol\":6661:6662  0 */\n  0x00\n    /* \"https://github.com/OpenZeppelin/openzeppelin-contracts/blob/master/contracts/token/ERC20/ERC20.sol\":6647:6663  to == address(0) */\n  0xffffffffffffffffffffffffffffffffffffffff\n  and\n    /* \"https://github.com/OpenZeppelin/openzeppelin-contracts/blob/master/contracts/token/ERC20/ERC20.sol\":6647:6649  to */\n  dup3\n    /* \"https://github.com/OpenZeppelin/openzeppelin-contracts/blob/master/contracts/token/ERC20/ERC20.sol\":6647:6663  to == address(0) */\n  0xffffffffffffffffffffffffffffffffffffffff\n  and\n  sub\n    /* \"https://github.com/OpenZeppelin/openzeppelin-contracts/blob/master/contracts/token/ERC20/ERC20.sol\":6643:7068  if (to == address(0)) {... */\n  tag_33\n  jumpi\n    /* \"https://github.com/OpenZeppelin/openzeppelin-contracts/blob/master/contracts/token/ERC20/ERC20.sol\":6826:6831  value */\n  dup1\n    /* \"https://github.com/OpenZeppelin/openzeppelin-contracts/blob/master/contracts/token/ERC20/ERC20.sol\":6810:6822  _totalSupply */\n  0x02\n  0x00\n    /* \"https://github.com/OpenZeppelin/openzeppelin-contracts/blob/master/contracts/token/ERC20/ERC20.sol\":6810:6831  _totalSupply -= value */\n  dup3\n  dup3\n  sload\n  sub\n  swap3\n  pop\n  pop\n  dup2\n  swap1\n  sstore\n  pop\n    /* \"https://github.com/OpenZeppelin/openzeppelin-contracts/blob/master/contracts/token/ERC20/ERC20.sol\":6643:7068  if (to == address(0)) {... */\n  jump(tag_34)\ntag_33:\n    /* \"https://github.com/OpenZeppelin/openzeppelin-contracts/blob/master/contracts/token/ERC20/ERC20.sol\":7038:7043  value */\n  dup1\n    /* \"https://github.com/OpenZeppelin/openzeppelin-contracts/blob/master/contracts/token/ERC20/ERC20.sol\":7021:7030  _balances */\n  0x00\n    /* \"https://github.com/OpenZeppelin/openzeppelin-contracts/blob/master/contracts/token/ERC20/ERC20.sol\":7021:7034  _balances[to] */\n  dup1\n    /* \"https://github.com/OpenZeppelin/openzeppelin-contracts/blob/master/contracts/token/ERC20/ERC20.sol\":7031:7033  to */\n  dup5\n    /* \"https://github.com/OpenZeppelin/openzeppelin-contracts/blob/master/contracts/token/ERC20/ERC20.sol\":7021:7034  _balances[to] */\n  0xffffffffffffffffffffffffffffffffffffffff\n  and\n  0xffffffffffffffffffffffffffffffffffffffff\n  and\n  dup2\n  mstore\n  0x20\n  add\n  swap1\n  dup2\n  mstore\n  0x20\n  add\n  0x00\n  keccak256\n  0x00\n    /* \"https://github.com/OpenZeppelin/openzeppelin-contracts/blob/master/contracts/token/ERC20/ERC20.sol\":7021:7043  _balances[to] += value */\n  dup3\n  dup3\n  sload\n  add\n  swap3\n  pop\n  pop\n  dup2\n  swap1\n  sstore\n  pop\n    /* \"https://github.com/OpenZeppelin/openzeppelin-contracts/blob/master/contracts/token/ERC20/ERC20.sol\":6643:7068  if (to == address(0)) {... */\ntag_34:\n    /* \"https://github.com/OpenZeppelin/openzeppelin-contracts/blob/master/contracts/token/ERC20/ERC20.sol\":7098:7100  to */\n  dup2\n    /* \"https://github.com/OpenZeppelin/openzeppelin-contracts/blob/master/contracts/token/ERC20/ERC20.sol\":7083:7108  Transfer(from, to, value) */\n  0xffffffffffffffffffffffffffffffffffffffff\n  and\n    /* \"https://github.com/OpenZeppelin/openzeppelin-contracts/blob/master/contracts/token/ERC20/ERC20.sol\":7092:7096  from */\n  dup4\n    /* \"https://github.com/OpenZeppelin/openzeppelin-contracts/blob/master/contracts/token/ERC20/ERC20.sol\":7083:7108  Transfer(from, to, value) */\n  0xffffffffffffffffffffffffffffffffffffffff\n  and\n  0xddf252ad1be2c89b69c2b068fc378daa952ba7f163c4a11628f55a4df523b3ef\n    /* \"https://github.com/OpenZeppelin/openzeppelin-contracts/blob/master/contracts/token/ERC20/ERC20.sol\":7102:7107  value */\n  dup4\n    /* \"https://github.com/OpenZeppelin/openzeppelin-contracts/blob/master/contracts/token/ERC20/ERC20.sol\":7083:7108  Transfer(from, to, value) */\n  mload(0x40)\n  tag_35\n  swap2\n  swap1\n  tag_36\n  jump\t// in\ntag_35:\n  mload(0x40)\n  dup1\n  swap2\n  sub\n  swap1\n  log3\n    /* \"https://github.com/OpenZeppelin/openzeppelin-contracts/blob/master/contracts/token/ERC20/ERC20.sol\":6008:7115  function _update(address from, address to, uint256 value) internal virtual {... */\n  pop\n  pop\n  pop\n  jump\t// out\n    /* \"#utility.yul\":7:187   */\ntag_37:\n    /* \"#utility.yul\":55:132   */\n  0x4e487b7100000000000000000000000000000000000000000000000000000000\n    /* \"#utility.yul\":52:53   */\n  0x00\n    /* \"#utility.yul\":45:133   */\n  mstore\n    /* \"#utility.yul\":152:156   */\n  0x11\n    /* \"#utility.yul\":149:150   */\n  0x04\n    /* \"#utility.yul\":142:157   */\n  mstore\n    /* \"#utility.yul\":176:180   */\n  0x24\n    /* \"#utility.yul\":173:174   */\n  0x00\n    /* \"#utility.yul\":166:181   */\n  revert\n    /* \"#utility.yul\":193:295   */\ntag_38:\n    /* \"#utility.yul\":235:243   */\n  0x00\n    /* \"#utility.yul\":282:287   */\n  dup2\n    /* \"#utility.yul\":279:280   */\n  0x01\n    /* \"#utility.yul\":275:288   */\n  shr\n    /* \"#utility.yul\":254:288   */\n  swap1\n  pop\n    /* \"#utility.yul\":193:295   */\n  swap2\n  swap1\n  pop\n  jump\t// out\n    /* \"#utility.yul\":301:1149   */\ntag_39:\n    /* \"#utility.yul\":362:367   */\n  0x00\n    /* \"#utility.yul\":369:373   */\n  dup1\n    /* \"#utility.yul\":393:399   */\n  dup3\n    /* \"#utility.yul\":384:399   */\n  swap2\n  pop\n    /* \"#utility.yul\":417:422   */\n  dup4\n    /* \"#utility.yul\":408:422   */\n  swap1\n  pop\n    /* \"#utility.yul\":431:1143   */\ntag_70:\n    /* \"#utility.yul\":452:453   */\n  0x01\n    /* \"#utility.yul\":442:450   */\n  dup6\n    /* \"#utility.yul\":439:454   */\n  gt\n    /* \"#utility.yul\":431:1143   */\n  iszero\n  tag_72\n  jumpi\n    /* \"#utility.yul\":547:551   */\n  dup1\n    /* \"#utility.yul\":542:545   */\n  dup7\n    /* \"#utility.yul\":538:552   */\n  div\n    /* \"#utility.yul\":532:536   */\n  dup2\n    /* \"#utility.yul\":529:553   */\n  gt\n    /* \"#utility.yul\":526:576   */\n  iszero\n  tag_73\n  jumpi\n    /* \"#utility.yul\":556:574   */\n  tag_74\n  tag_37\n  jump\t// in\ntag_74:\n    /* \"#utility.yul\":526:576   */\ntag_73:\n    /* \"#utility.yul\":606:607   */\n  0x01\n    /* \"#utility.yul\":596:604   */\n  dup6\n    /* \"#utility.yul\":592:608   */\n  and\n    /* \"#utility.yul\":589:1040   */\n  iszero\n  tag_75\n  jumpi\n    /* \"#utility.yul\":1021:1025   */\n  dup1\n    /* \"#utility.yul\":1014:1019   */\n  dup3\n    /* \"#utility.yul\":1010:1026   */\n  mul\n    /* \"#utility.yul\":1001:1026   */\n  swap2\n  pop\n    /* \"#utility.yul\":589:1040   */\ntag_75:\n    /* \"#utility.yul\":1071:1075   */\n  dup1\n    /* \"#utility.yul\":1065:1069   */\n  dup2\n    /* \"#utility.yul\":1061:1076   */\n  mul\n    /* \"#utility.yul\":1053:1076   */\n  swap1\n  pop\n    /* \"#utility.yul\":1101:1133   */\n  tag_76\n    /* \"#utility.yul\":1124:1132   */\n  dup6\n    /* \"#utility.yul\":1101:1133   */\n  tag_38\n  jump\t// in\ntag_76:\n    /* \"#utility.yul\":1089:1133   */\n  swap5\n  pop\n    /* \"#utility.yul\":431:1143   */\n  jump(tag_70)\ntag_72:\n    /* \"#utility.yul\":301:1149   */\n  swap5\n  pop\n  swap5\n  swap3\n  pop\n  pop\n  pop\n  jump\t// out\n    /* \"#utility.yul\":1155:2228   */\ntag_40:\n    /* \"#utility.yul\":1209:1214   */\n  0x00\n    /* \"#utility.yul\":1400:1408   */\n  dup3\n    /* \"#utility.yul\":1390:1430   */\n  tag_78\n  jumpi\n    /* \"#utility.yul\":1421:1422   */\n  0x01\n    /* \"#utility.yul\":1412:1422   */\n  swap1\n  pop\n    /* \"#utility.yul\":1423:1428   */\n  jump(tag_77)\n    /* \"#utility.yul\":1390:1430   */\ntag_78:\n    /* \"#utility.yul\":1449:1453   */\n  dup2\n    /* \"#utility.yul\":1439:1475   */\n  tag_79\n  jumpi\n    /* \"#utility.yul\":1466:1467   */\n  0x00\n    /* \"#utility.yul\":1457:1467   */\n  swap1\n  pop\n    /* \"#utility.yul\":1468:1473   */\n  jump(tag_77)\n    /* \"#utility.yul\":1439:1475   */\ntag_79:\n    /* \"#utility.yul\":1535:1539   */\n  dup2\n    /* \"#utility.yul\":1583:1584   */\n  0x01\n    /* \"#utility.yul\":1578:1605   */\n  dup2\n  eq\n  tag_81\n  jumpi\n    /* \"#utility.yul\":1619:1620   */\n  0x02\n    /* \"#utility.yul\":1614:1805   */\n  dup2\n  eq\n  tag_82\n  jumpi\n    /* \"#utility.yul\":1528:1805   */\n  jump(tag_80)\n    /* \"#utility.yul\":1578:1605   */\ntag_81:\n    /* \"#utility.yul\":1596:1597   */\n  0x01\n    /* \"#utility.yul\":1587:1597   */\n  swap2\n  pop\n    /* \"#utility.yul\":1598:1603   */\n  pop\n  jump(tag_77)\n    /* \"#utility.yul\":1614:1805   */\ntag_82:\n    /* \"#utility.yul\":1659:1662   */\n  0xff\n    /* \"#utility.yul\":1649:1657   */\n  dup5\n    /* \"#utility.yul\":1646:1663   */\n  gt\n    /* \"#utility.yul\":1643:1686   */\n  iszero\n  tag_83\n  jumpi\n    /* \"#utility.yul\":1666:1684   */\n  tag_84\n  tag_37\n  jump\t// in\ntag_84:\n    /* \"#utility.yul\":1643:1686   */\ntag_83:\n    /* \"#utility.yul\":1715:1723   */\n  dup4\n    /* \"#utility.yul\":1712:1713   */\n  0x02\n    /* \"#utility.yul\":1708:1724   */\n  exp\n    /* \"#utility.yul\":1699:1724   */\n  swap2\n  pop\n    /* \"#utility.yul\":1750:1753   */\n  dup5\n    /* \"#utility.yul\":1743:1748   */\n  dup3\n    /* \"#utility.yul\":1740:1754   */\n  gt\n    /* \"#utility.yul\":1737:1777   */\n  iszero\n  tag_85\n  jumpi\n    /* \"#utility.yul\":1757:1775   */\n  tag_86\n  tag_37\n  jump\t// in\ntag_86:\n    /* \"#utility.yul\":1737:1777   */\ntag_85:\n    /* \"#utility.yul\":1790:1795   */\n  pop\n  jump(tag_77)\n    /* \"#utility.yul\":1528:1805   */\ntag_80:\n  pop\n    /* \"#utility.yul\":1914:1916   */\n  0x20\n    /* \"#utility.yul\":1904:1912   */\n  dup4\n    /* \"#utility.yul\":1901:1917   */\n  lt\n    /* \"#utility.yul\":1895:1898   */\n  0x0133\n    /* \"#utility.yul\":1889:1893   */\n  dup4\n    /* \"#utility.yul\":1886:1899   */\n  lt\n    /* \"#utility.yul\":1882:1918   */\n  and\n    /* \"#utility.yul\":1864:1866   */\n  0x4e\n    /* \"#utility.yul\":1854:1862   */\n  dup5\n    /* \"#utility.yul\":1851:1867   */\n  lt\n    /* \"#utility.yul\":1846:1848   */\n  0x0b\n    /* \"#utility.yul\":1840:1844   */\n  dup5\n    /* \"#utility.yul\":1837:1849   */\n  lt\n    /* \"#utility.yul\":1833:1868   */\n  and\n    /* \"#utility.yul\":1817:1928   */\n  or\n    /* \"#utility.yul\":1814:2060   */\n  iszero\n  tag_87\n  jumpi\n    /* \"#utility.yul\":1970:1978   */\n  dup3\n    /* \"#utility.yul\":1964:1968   */\n  dup3\n    /* \"#utility.yul\":1960:1979   */\n  exp\n    /* \"#utility.yul\":1951:1979   */\n  swap1\n  pop\n    /* \"#utility.yul\":2005:2008   */\n  dup4\n    /* \"#utility.yul\":1998:2003   */\n  dup2\n    /* \"#utility.yul\":1995:2009   */\n  gt\n    /* \"#utility.yul\":1992:2032   */\n  iszero\n  tag_88\n  jumpi\n    /* \"#utility.yul\":2012:2030   */\n  tag_89\n  tag_37\n  jump\t// in\ntag_89:\n    /* \"#utility.yul\":1992:2032   */\ntag_88:\n    /* \"#utility.yul\":2045:2050   */\n  jump(tag_77)\n    /* \"#utility.yul\":1814:2060   */\ntag_87:\n    /* \"#utility.yul\":2085:2127   */\n  tag_90\n    /* \"#utility.yul\":2123:2126   */\n  dup5\n    /* \"#utility.yul\":2113:2121   */\n  dup5\n    /* \"#utility.yul\":2107:2111   */\n  dup5\n    /* \"#utility.yul\":2104:2105   */\n  0x01\n    /* \"#utility.yul\":2085:2127   */\n  tag_39\n  jump\t// in\ntag_90:\n    /* \"#utility.yul\":2070:2127   */\n  swap3\n  pop\n  swap1\n  pop\n    /* \"#utility.yul\":2159:2163   */\n  dup2\n    /* \"#utility.yul\":2154:2157   */\n  dup5\n    /* \"#utility.yul\":2150:2164   */\n  div\n    /* \"#utility.yul\":2143:2148   */\n  dup2\n    /* \"#utility.yul\":2140:2165   */\n  gt\n    /* \"#utility.yul\":2137:2188   */\n  iszero\n  tag_91\n  jumpi\n    /* \"#utility.yul\":2168:2186   */\n  tag_92\n  tag_37\n  jump\t// in\ntag_92:\n    /* \"#utility.yul\":2137:2188   */\ntag_91:\n    /* \"#utility.yul\":2217:2221   */\n  dup2\n    /* \"#utility.yul\":2210:2215   */\n  dup2\n    /* \"#utility.yul\":2206:2222   */\n  mul\n    /* \"#utility.yul\":2197:2222   */\n  swap1\n  pop\n    /* \"#utility.yul\":1155:2228   */\ntag_77:\n  swap4\n  swap3\n  pop\n  pop\n  pop\n  jump\t// out\n    /* \"#utility.yul\":2234:2311   */\ntag_41:\n    /* \"#utility.yul\":2271:2278   */\n  0x00\n    /* \"#utility.yul\":2300:2305   */\n  dup2\n    /* \"#utility.yul\":2289:2305   */\n  swap1\n  pop\n    /* \"#utility.yul\":2234:2311   */\n  swap2\n  swap1\n  pop\n  jump\t// out\n    /* \"#utility.yul\":2317:2403   */\ntag_42:\n    /* \"#utility.yul\":2352:2359   */\n  0x00\n    /* \"#utility.yul\":2392:2396   */\n  0xff\n    /* \"#utility.yul\":2385:2390   */\n  dup3\n    /* \"#utility.yul\":2381:2397   */\n  and\n    /* \"#utility.yul\":2370:2397   */\n  swap1\n  pop\n    /* \"#utility.yul\":2317:2403   */\n  swap2\n  swap1\n  pop\n  jump\t// out\n    /* \"#utility.yul\":2409:2690   */\ntag_4:\n    /* \"#utility.yul\":2467:2472   */\n  0x00\n    /* \"#utility.yul\":2491:2514   */\n  tag_96\n    /* \"#utility.yul\":2509:2513   */\n  dup3\n    /* \"#utility.yul\":2491:2514   */\n  tag_41\n  jump\t// in\ntag_96:\n    /* \"#utility.yul\":2483:2514   */\n  swap2\n  pop\n    /* \"#utility.yul\":2535:2560   */\n  tag_97\n    /* \"#utility.yul\":2551:2559   */\n  dup4\n    /* \"#utility.yul\":2535:2560   */\n  tag_42\n  jump\t// in\ntag_97:\n    /* \"#utility.yul\":2523:2560   */\n  swap3\n  pop\n    /* \"#utility.yul\":2579:2683   */\n  tag_98\n    /* \"#utility.yul\":2616:2682   */\n  0xffffffffffffffffffffffffffffffffffffffffffffffffffffffffffffffff\n    /* \"#utility.yul\":2606:2614   */\n  dup5\n    /* \"#utility.yul\":2600:2604   */\n  dup5\n    /* \"#utility.yul\":2579:2683   */\n  tag_40\n  jump\t// in\ntag_98:\n    /* \"#utility.yul\":2570:2683   */\n  swap1\n  pop\n    /* \"#utility.yul\":2409:2690   */\n  swap3\n  swap2\n  pop\n  pop\n  jump\t// out\n    /* \"#utility.yul\":2696:3106   */\ntag_6:\n    /* \"#utility.yul\":2736:2743   */\n  0x00\n    /* \"#utility.yul\":2759:2779   */\n  tag_100\n    /* \"#utility.yul\":2777:2778   */\n  dup3\n    /* \"#utility.yul\":2759:2779   */\n  tag_41\n  jump\t// in\ntag_100:\n    /* \"#utility.yul\":2754:2779   */\n  swap2\n  pop\n    /* \"#utility.yul\":2793:2813   */\n  tag_101\n    /* \"#utility.yul\":2811:2812   */\n  dup4\n    /* \"#utility.yul\":2793:2813   */\n  tag_41\n  jump\t// in\ntag_101:\n    /* \"#utility.yul\":2788:2813   */\n  swap3\n  pop\n    /* \"#utility.yul\":2848:2849   */\n  dup3\n    /* \"#utility.yul\":2845:2846   */\n  dup3\n    /* \"#utility.yul\":2841:2850   */\n  mul\n    /* \"#utility.yul\":2870:2900   */\n  tag_102\n    /* \"#utility.yul\":2888:2899   */\n  dup2\n    /* \"#utility.yul\":2870:2900   */\n  tag_41\n  jump\t// in\ntag_102:\n    /* \"#utility.yul\":2859:2900   */\n  swap2\n  pop\n    /* \"#utility.yul\":3049:3050   */\n  dup3\n    /* \"#utility.yul\":3040:3047   */\n  dup3\n    /* \"#utility.yul\":3036:3051   */\n  div\n    /* \"#utility.yul\":3033:3034   */\n  dup5\n    /* \"#utility.yul\":3030:3052   */\n  eq\n    /* \"#utility.yul\":3010:3011   */\n  dup4\n    /* \"#utility.yul\":3003:3012   */\n  iszero\n    /* \"#utility.yul\":2983:3066   */\n  or\n    /* \"#utility.yul\":2960:3099   */\n  tag_103\n  jumpi\n    /* \"#utility.yul\":3079:3097   */\n  tag_104\n  tag_37\n  jump\t// in\ntag_104:\n    /* \"#utility.yul\":2960:3099   */\ntag_103:\n    /* \"#utility.yul\":2744:3106   */\n  pop\n    /* \"#utility.yul\":2696:3106   */\n  swap3\n  swap2\n  pop\n  pop\n  jump\t// out\n    /* \"#utility.yul\":3112:3211   */\ntag_43:\n    /* \"#utility.yul\":3164:3170   */\n  0x00\n    /* \"#utility.yul\":3198:3203   */\n  dup2\n    /* \"#utility.yul\":3192:3204   */\n  mload\n    /* \"#utility.yul\":3182:3204   */\n  swap1\n  pop\n    /* \"#utility.yul\":3112:3211   */\n  swap2\n  swap1\n  pop\n  jump\t// out\n    /* \"#utility.yul\":3217:3397   */\ntag_44:\n    /* \"#utility.yul\":3265:3342   */\n  0x4e487b7100000000000000000000000000000000000000000000000000000000\n    /* \"#utility.yul\":3262:3263   */\n  0x00\n    /* \"#utility.yul\":3255:3343   */\n  mstore\n    /* \"#utility.yul\":3362:3366   */\n  0x41\n    /* \"#utility.yul\":3359:3360   */\n  0x04\n    /* \"#utility.yul\":3352:3367   */\n  mstore\n    /* \"#utility.yul\":3386:3390   */\n  0x24\n    /* \"#utility.yul\":3383:3384   */\n  0x00\n    /* \"#utility.yul\":3376:3391   */\n  revert\n    /* \"#utility.yul\":3403:3583   */\ntag_45:\n    /* \"#utility.yul\":3451:3528   */\n  0x4e487b7100000000000000000000000000000000000000000000000000000000\n    /* \"#utility.yul\":3448:3449   */\n  0x00\n    /* \"#utility.yul\":3441:3529   */\n  mstore\n    /* \"#utility.yul\":3548:3552   */\n  0x22\n    /* \"#utility.yul\":3545:3546   */\n  0x04\n    /* \"#utility.yul\":3538:3553   */\n  mstore\n    /* \"#utility.yul\":3572:3576   */\n  0x24\n    /* \"#utility.yul\":3569:3570   */\n  0x00\n    /* \"#utility.yul\":3562:3577   */\n  revert\n    /* \"#utility.yul\":3589:3909   */\ntag_46:\n    /* \"#utility.yul\":3633:3639   */\n  0x00\n    /* \"#utility.yul\":3670:3671   */\n  0x02\n    /* \"#utility.yul\":3664:3668   */\n  dup3\n    /* \"#utility.yul\":3660:3672   */\n  div\n    /* \"#utility.yul\":3650:3672   */\n  swap1\n  pop\n    /* \"#utility.yul\":3717:3718   */\n  0x01\n    /* \"#utility.yul\":3711:3715   */\n  dup3\n    /* \"#utility.yul\":3707:3719   */\n  and\n    /* \"#utility.yul\":3738:3756   */\n  dup1\n    /* \"#utility.yul\":3728:3809   */\n  tag_109\n  jumpi\n    /* \"#utility.yul\":3794:3798   */\n  0x7f\n    /* \"#utility.yul\":3786:3792   */\n  dup3\n    /* \"#utility.yul\":3782:3799   */\n  and\n    /* \"#utility.yul\":3772:3799   */\n  swap2\n  pop\n    /* \"#utility.yul\":3728:3809   */\ntag_109:\n    /* \"#utility.yul\":3856:3858   */\n  0x20\n    /* \"#utility.yul\":3848:3854   */\n  dup3\n    /* \"#utility.yul\":3845:3859   */\n  lt\n    /* \"#utility.yul\":3825:3843   */\n  dup2\n    /* \"#utility.yul\":3822:3860   */\n  sub\n    /* \"#utility.yul\":3819:3903   */\n  tag_110\n  jumpi\n    /* \"#utility.yul\":3875:3893   */\n  tag_111\n  tag_45\n  jump\t// in\ntag_111:\n    /* \"#utility.yul\":3819:3903   */\ntag_110:\n    /* \"#utility.yul\":3640:3909   */\n  pop\n    /* \"#utility.yul\":3589:3909   */\n  swap2\n  swap1\n  pop\n  jump\t// out\n    /* \"#utility.yul\":3915:4056   */\ntag_47:\n    /* \"#utility.yul\":3964:3968   */\n  0x00\n    /* \"#utility.yul\":3987:3990   */\n  dup2\n    /* \"#utility.yul\":3979:3990   */\n  swap1\n  pop\n    /* \"#utility.yul\":4010:4013   */\n  dup2\n    /* \"#utility.yul\":4007:4008   */\n  0x00\n    /* \"#utility.yul\":4000:4014   */\n  mstore\n    /* \"#utility.yul\":4044:4048   */\n  0x20\n    /* \"#utility.yul\":4041:4042   */\n  0x00\n    /* \"#utility.yul\":4031:4049   */\n  keccak256\n    /* \"#utility.yul\":4023:4049   */\n  swap1\n  pop\n    /* \"#utility.yul\":3915:4056   */\n  swap2\n  swap1\n  pop\n  jump\t// out\n    /* \"#utility.yul\":4062:4155   */\ntag_48:\n    /* \"#utility.yul\":4099:4105   */\n  0x00\n    /* \"#utility.yul\":4146:4148   */\n  0x20\n    /* \"#utility.yul\":4141:4143   */\n  0x1f\n    /* \"#utility.yul\":4134:4139   */\n  dup4\n    /* \"#utility.yul\":4130:4144   */\n  add\n    /* \"#utility.yul\":4126:4149   */\n  div\n    /* \"#utility.yul\":4116:4149   */\n  swap1\n  pop\n    /* \"#utility.yul\":4062:4155   */\n  swap2\n  swap1\n  pop\n  jump\t// out\n    /* \"#utility.yul\":4161:4268   */\ntag_49:\n    /* \"#utility.yul\":4205:4213   */\n  0x00\n    /* \"#utility.yul\":4255:4260   */\n  dup3\n    /* \"#utility.yul\":4249:4253   */\n  dup3\n    /* \"#utility.yul\":4245:4261   */\n  shl\n    /* \"#utility.yul\":4224:4261   */\n  swap1\n  pop\n    /* \"#utility.yul\":4161:4268   */\n  swap3\n  swap2\n  pop\n  pop\n  jump\t// out\n    /* \"#utility.yul\":4274:4667   */\ntag_50:\n    /* \"#utility.yul\":4343:4349   */\n  0x00\n    /* \"#utility.yul\":4393:4394   */\n  0x08\n    /* \"#utility.yul\":4381:4391   */\n  dup4\n    /* \"#utility.yul\":4377:4395   */\n  mul\n    /* \"#utility.yul\":4416:4513   */\n  tag_116\n    /* \"#utility.yul\":4446:4512   */\n  0xffffffffffffffffffffffffffffffffffffffffffffffffffffffffffffffff\n    /* \"#utility.yul\":4435:4444   */\n  dup3\n    /* \"#utility.yul\":4416:4513   */\n  tag_49\n  jump\t// in\ntag_116:\n    /* \"#utility.yul\":4534:4573   */\n  tag_117\n    /* \"#utility.yul\":4564:4572   */\n  dup7\n    /* \"#utility.yul\":4553:4562   */\n  dup4\n    /* \"#utility.yul\":4534:4573   */\n  tag_49\n  jump\t// in\ntag_117:\n    /* \"#utility.yul\":4522:4573   */\n  swap6\n  pop\n    /* \"#utility.yul\":4606:4610   */\n  dup1\n    /* \"#utility.yul\":4602:4611   */\n  not\n    /* \"#utility.yul\":4595:4600   */\n  dup5\n    /* \"#utility.yul\":4591:4612   */\n  and\n    /* \"#utility.yul\":4582:4612   */\n  swap4\n  pop\n    /* \"#utility.yul\":4655:4659   */\n  dup1\n    /* \"#utility.yul\":4645:4653   */\n  dup7\n    /* \"#utility.yul\":4641:4660   */\n  and\n    /* \"#utility.yul\":4634:4639   */\n  dup5\n    /* \"#utility.yul\":4631:4661   */\n  or\n    /* \"#utility.yul\":4621:4661   */\n  swap3\n  pop\n    /* \"#utility.yul\":4350:4667   */\n  pop\n  pop\n    /* \"#utility.yul\":4274:4667   */\n  swap4\n  swap3\n  pop\n  pop\n  pop\n  jump\t// out\n    /* \"#utility.yul\":4673:4733   */\ntag_51:\n    /* \"#utility.yul\":4701:4704   */\n  0x00\n    /* \"#utility.yul\":4722:4727   */\n  dup2\n    /* \"#utility.yul\":4715:4727   */\n  swap1\n  pop\n    /* \"#utility.yul\":4673:4733   */\n  swap2\n  swap1\n  pop\n  jump\t// out\n    /* \"#utility.yul\":4739:4881   */\ntag_52:\n    /* \"#utility.yul\":4789:4798   */\n  0x00\n    /* \"#utility.yul\":4822:4875   */\n  tag_120\n    /* \"#utility.yul\":4840:4874   */\n  tag_121\n    /* \"#utility.yul\":4849:4873   */\n  tag_122\n    /* \"#utility.yul\":4867:4872   */\n  dup5\n    /* \"#utility.yul\":4849:4873   */\n  tag_41\n  jump\t// in\ntag_122:\n    /* \"#utility.yul\":4840:4874   */\n  tag_51\n  jump\t// in\ntag_121:\n    /* \"#utility.yul\":4822:4875   */\n  tag_41\n  jump\t// in\ntag_120:\n    /* \"#utility.yul\":4809:4875   */\n  swap1\n  pop\n    /* \"#utility.yul\":4739:4881   */\n  swap2\n  swap1\n  pop\n  jump\t// out\n    /* \"#utility.yul\":4887:4962   */\ntag_53:\n    /* \"#utility.yul\":4930:4933   */\n  0x00\n    /* \"#utility.yul\":4951:4956   */\n  dup2\n    /* \"#utility.yul\":4944:4956   */\n  swap1\n  pop\n    /* \"#utility.yul\":4887:4962   */\n  swap2\n  swap1\n  pop\n  jump\t// out\n    /* \"#utility.yul\":4968:5237   */\ntag_54:\n    /* \"#utility.yul\":5078:5117   */\n  tag_125\n    /* \"#utility.yul\":5109:5116   */\n  dup4\n    /* \"#utility.yul\":5078:5117   */\n  tag_52\n  jump\t// in\ntag_125:\n    /* \"#utility.yul\":5139:5230   */\n  tag_126\n    /* \"#utility.yul\":5188:5229   */\n  tag_127\n    /* \"#utility.yul\":5212:5228   */\n  dup3\n    /* \"#utility.yul\":5188:5229   */\n  tag_53\n  jump\t// in\ntag_127:\n    /* \"#utility.yul\":5180:5186   */\n  dup5\n    /* \"#utility.yul\":5173:5177   */\n  dup5\n    /* \"#utility.yul\":5167:5178   */\n  sload\n    /* \"#utility.yul\":5139:5230   */\n  tag_50\n  jump\t// in\ntag_126:\n    /* \"#utility.yul\":5133:5137   */\n  dup3\n    /* \"#utility.yul\":5126:5231   */\n  sstore\n    /* \"#utility.yul\":5044:5237   */\n  pop\n    /* \"#utility.yul\":4968:5237   */\n  pop\n  pop\n  pop\n  jump\t// out\n    /* \"#utility.yul\":5243:5316   */\ntag_55:\n    /* \"#utility.yul\":5288:5291   */\n  0x00\n    /* \"#utility.yul\":5243:5316   */\n  swap1\n  jump\t// out\n    /* \"#utility.yul\":5322:5511   */\ntag_56:\n    /* \"#utility.yul\":5399:5431   */\n  tag_130\n  tag_55\n  jump\t// in\ntag_130:\n    /* \"#utility.yul\":5440:5505   */\n  tag_131\n    /* \"#utility.yul\":5498:5504   */\n  dup2\n    /* \"#utility.yul\":5490:5496   */\n  dup5\n    /* \"#utility.yul\":5484:5488   */\n  dup5\n    /* \"#utility.yul\":5440:5505   */\n  tag_54\n  jump\t// in\ntag_131:\n    /* \"#utility.yul\":5375:5511   */\n  pop\n    /* \"#utility.yul\":5322:5511   */\n  pop\n  pop\n  jump\t// out\n    /* \"#utility.yul\":5517:5703   */\ntag_57:\n    /* \"#utility.yul\":5577:5697   */\ntag_133:\n    /* \"#utility.yul\":5594:5597   */\n  dup2\n    /* \"#utility.yul\":5587:5592   */\n  dup2\n    /* \"#utility.yul\":5584:5598   */\n  lt\n    /* \"#utility.yul\":5577:5697   */\n  iszero\n  tag_135\n  jumpi\n    /* \"#utility.yul\":5648:5687   */\n  tag_136\n    /* \"#utility.yul\":5685:5686   */\n  0x00\n    /* \"#utility.yul\":5678:5683   */\n  dup3\n    /* \"#utility.yul\":5648:5687   */\n  tag_56\n  jump\t// in\ntag_136:\n    /* \"#utility.yul\":5621:5622   */\n  0x01\n    /* \"#utility.yul\":5614:5619   */\n  dup2\n    /* \"#utility.yul\":5610:5623   */\n  add\n    /* \"#utility.yul\":5601:5623   */\n  swap1\n  pop\n    /* \"#utility.yul\":5577:5697   */\n  jump(tag_133)\ntag_135:\n    /* \"#utility.yul\":5517:5703   */\n  pop\n  pop\n  jump\t// out\n    /* \"#utility.yul\":5709:6252   */\ntag_58:\n    /* \"#utility.yul\":5810:5812   */\n  0x1f\n    /* \"#utility.yul\":5805:5808   */\n  dup3\n    /* \"#utility.yul\":5802:5813   */\n  gt\n    /* \"#utility.yul\":5799:6245   */\n  iszero\n  tag_138\n  jumpi\n    /* \"#utility.yul\":5844:5882   */\n  tag_139\n    /* \"#utility.yul\":5876:5881   */\n  dup2\n    /* \"#utility.yul\":5844:5882   */\n  tag_47\n  jump\t// in\ntag_139:\n    /* \"#utility.yul\":5928:5957   */\n  tag_140\n    /* \"#utility.yul\":5946:5956   */\n  dup5\n    /* \"#utility.yul\":5928:5957   */\n  tag_48\n  jump\t// in\ntag_140:\n    /* \"#utility.yul\":5918:5926   */\n  dup2\n    /* \"#utility.yul\":5914:5958   */\n  add\n    /* \"#utility.yul\":6111:6113   */\n  0x20\n    /* \"#utility.yul\":6099:6109   */\n  dup6\n    /* \"#utility.yul\":6096:6114   */\n  lt\n    /* \"#utility.yul\":6093:6142   */\n  iszero\n  tag_141\n  jumpi\n    /* \"#utility.yul\":6132:6140   */\n  dup2\n    /* \"#utility.yul\":6117:6140   */\n  swap1\n  pop\n    /* \"#utility.yul\":6093:6142   */\ntag_141:\n    /* \"#utility.yul\":6155:6235   */\n  tag_142\n    /* \"#utility.yul\":6211:6233   */\n  tag_143\n    /* \"#utility.yul\":6229:6232   */\n  dup6\n    /* \"#utility.yul\":6211:6233   */\n  tag_48\n  jump\t// in\ntag_143:\n    /* \"#utility.yul\":6201:6209   */\n  dup4\n    /* \"#utility.yul\":6197:6234   */\n  add\n    /* \"#utility.yul\":6184:6195   */\n  dup3\n    /* \"#utility.yul\":6155:6235   */\n  tag_57\n  jump\t// in\ntag_142:\n    /* \"#utility.yul\":5814:6245   */\n  pop\n  pop\n    /* \"#utility.yul\":5799:6245   */\ntag_138:\n    /* \"#utility.yul\":5709:6252   */\n  pop\n  pop\n  pop\n  jump\t// out\n    /* \"#utility.yul\":6258:6375   */\ntag_59:\n    /* \"#utility.yul\":6312:6320   */\n  0x00\n    /* \"#utility.yul\":6362:6367   */\n  dup3\n    /* \"#utility.yul\":6356:6360   */\n  dup3\n    /* \"#utility.yul\":6352:6368   */\n  shr\n    /* \"#utility.yul\":6331:6368   */\n  swap1\n  pop\n    /* \"#utility.yul\":6258:6375   */\n  swap3\n  swap2\n  pop\n  pop\n  jump\t// out\n    /* \"#utility.yul\":6381:6550   */\ntag_60:\n    /* \"#utility.yul\":6425:6431   */\n  0x00\n    /* \"#utility.yul\":6458:6509   */\n  tag_146\n    /* \"#utility.yul\":6506:6507   */\n  0x00\n    /* \"#utility.yul\":6502:6508   */\n  not\n    /* \"#utility.yul\":6494:6499   */\n  dup5\n    /* \"#utility.yul\":6491:6492   */\n  0x08\n    /* \"#utility.yul\":6487:6500   */\n  mul\n    /* \"#utility.yul\":6458:6509   */\n  tag_59\n  jump\t// in\ntag_146:\n    /* \"#utility.yul\":6454:6510   */\n  not\n    /* \"#utility.yul\":6539:6543   */\n  dup1\n    /* \"#utility.yul\":6533:6537   */\n  dup4\n    /* \"#utility.yul\":6529:6544   */\n  and\n    /* \"#utility.yul\":6519:6544   */\n  swap2\n  pop\n    /* \"#utility.yul\":6432:6550   */\n  pop\n    /* \"#utility.yul\":6381:6550   */\n  swap3\n  swap2\n  pop\n  pop\n  jump\t// out\n    /* \"#utility.yul\":6555:6850   */\ntag_61:\n    /* \"#utility.yul\":6631:6635   */\n  0x00\n    /* \"#utility.yul\":6777:6806   */\n  tag_148\n    /* \"#utility.yul\":6802:6805   */\n  dup4\n    /* \"#utility.yul\":6796:6800   */\n  dup4\n    /* \"#utility.yul\":6777:6806   */\n  tag_60\n  jump\t// in\ntag_148:\n    /* \"#utility.yul\":6769:6806   */\n  swap2\n  pop\n    /* \"#utility.yul\":6839:6842   */\n  dup3\n    /* \"#utility.yul\":6836:6837   */\n  0x02\n    /* \"#utility.yul\":6832:6843   */\n  mul\n    /* \"#utility.yul\":6826:6830   */\n  dup3\n    /* \"#utility.yul\":6823:6844   */\n  or\n    /* \"#utility.yul\":6815:6844   */\n  swap1\n  pop\n    /* \"#utility.yul\":6555:6850   */\n  swap3\n  swap2\n  pop\n  pop\n  jump\t// out\n    /* \"#utility.yul\":6855:8250   */\ntag_12:\n    /* \"#utility.yul\":6972:7009   */\n  tag_150\n    /* \"#utility.yul\":7005:7008   */\n  dup3\n    /* \"#utility.yul\":6972:7009   */\n  tag_43\n  jump\t// in\ntag_150:\n    /* \"#utility.yul\":7074:7092   */\n  0xffffffffffffffff\n    /* \"#utility.yul\":7066:7072   */\n  dup2\n    /* \"#utility.yul\":7063:7093   */\n  gt\n    /* \"#utility.yul\":7060:7116   */\n  iszero\n  tag_151\n  jumpi\n    /* \"#utility.yul\":7096:7114   */\n  tag_152\n  tag_44\n  jump\t// in\ntag_152:\n    /* \"#utility.yul\":7060:7116   */\ntag_151:\n    /* \"#utility.yul\":7140:7178   */\n  tag_153\n    /* \"#utility.yul\":7172:7176   */\n  dup3\n    /* \"#utility.yul\":7166:7177   */\n  sload\n    /* \"#utility.yul\":7140:7178   */\n  tag_46\n  jump\t// in\ntag_153:\n    /* \"#utility.yul\":7225:7292   */\n  tag_154\n    /* \"#utility.yul\":7285:7291   */\n  dup3\n    /* \"#utility.yul\":7277:7283   */\n  dup3\n    /* \"#utility.yul\":7271:7275   */\n  dup6\n    /* \"#utility.yul\":7225:7292   */\n  tag_58\n  jump\t// in\ntag_154:\n    /* \"#utility.yul\":7319:7320   */\n  0x00\n    /* \"#utility.yul\":7343:7347   */\n  0x20\n    /* \"#utility.yul\":7330:7347   */\n  swap1\n  pop\n    /* \"#utility.yul\":7375:7377   */\n  0x1f\n    /* \"#utility.yul\":7367:7373   */\n  dup4\n    /* \"#utility.yul\":7364:7378   */\n  gt\n    /* \"#utility.yul\":7392:7393   */\n  0x01\n    /* \"#utility.yul\":7387:8005   */\n  dup2\n  eq\n  tag_156\n  jumpi\n    /* \"#utility.yul\":8049:8050   */\n  0x00\n    /* \"#utility.yul\":8066:8072   */\n  dup5\n    /* \"#utility.yul\":8063:8140   */\n  iszero\n  tag_157\n  jumpi\n    /* \"#utility.yul\":8115:8124   */\n  dup3\n    /* \"#utility.yul\":8110:8113   */\n  dup8\n    /* \"#utility.yul\":8106:8125   */\n  add\n    /* \"#utility.yul\":8100:8126   */\n  mload\n    /* \"#utility.yul\":8091:8126   */\n  swap1\n  pop\n    /* \"#utility.yul\":8063:8140   */\ntag_157:\n    /* \"#utility.yul\":8166:8233   */\n  tag_158\n    /* \"#utility.yul\":8226:8232   */\n  dup6\n    /* \"#utility.yul\":8219:8224   */\n  dup3\n    /* \"#utility.yul\":8166:8233   */\n  tag_61\n  jump\t// in\ntag_158:\n    /* \"#utility.yul\":8160:8164   */\n  dup7\n    /* \"#utility.yul\":8153:8234   */\n  sstore\n    /* \"#utility.yul\":8022:8244   */\n  pop\n    /* \"#utility.yul\":7357:8244   */\n  jump(tag_155)\n    /* \"#utility.yul\":7387:8005   */\ntag_156:\n    /* \"#utility.yul\":7439:7443   */\n  0x1f\n    /* \"#utility.yul\":7435:7444   */\n  not\n    /* \"#utility.yul\":7427:7433   */\n  dup5\n    /* \"#utility.yul\":7423:7445   */\n  and\n    /* \"#utility.yul\":7473:7510   */\n  tag_159\n    /* \"#utility.yul\":7505:7509   */\n  dup7\n    /* \"#utility.yul\":7473:7510   */\n  tag_47\n  jump\t// in\ntag_159:\n    /* \"#utility.yul\":7532:7533   */\n  0x00\n    /* \"#utility.yul\":7546:7754   */\ntag_160:\n    /* \"#utility.yul\":7560:7567   */\n  dup3\n    /* \"#utility.yul\":7557:7558   */\n  dup2\n    /* \"#utility.yul\":7554:7568   */\n  lt\n    /* \"#utility.yul\":7546:7754   */\n  iszero\n  tag_162\n  jumpi\n    /* \"#utility.yul\":7639:7648   */\n  dup5\n    /* \"#utility.yul\":7634:7637   */\n  dup10\n    /* \"#utility.yul\":7630:7649   */\n  add\n    /* \"#utility.yul\":7624:7650   */\n  mload\n    /* \"#utility.yul\":7616:7622   */\n  dup3\n    /* \"#utility.yul\":7609:7651   */\n  sstore\n    /* \"#utility.yul\":7690:7691   */\n  0x01\n    /* \"#utility.yul\":7682:7688   */\n  dup3\n    /* \"#utility.yul\":7678:7692   */\n  add\n    /* \"#utility.yul\":7668:7692   */\n  swap2\n  pop\n    /* \"#utility.yul\":7737:7739   */\n  0x20\n    /* \"#utility.yul\":7726:7735   */\n  dup6\n    /* \"#utility.yul\":7722:7740   */\n  add\n    /* \"#utility.yul\":7709:7740   */\n  swap5\n  pop\n    /* \"#utility.yul\":7583:7587   */\n  0x20\n    /* \"#utility.yul\":7580:7581   */\n  dup2\n    /* \"#utility.yul\":7576:7588   */\n  add\n    /* \"#utility.yul\":7571:7588   */\n  swap1\n  pop\n    /* \"#utility.yul\":7546:7754   */\n  jump(tag_160)\ntag_162:\n    /* \"#utility.yul\":7782:7788   */\n  dup7\n    /* \"#utility.yul\":7773:7780   */\n  dup4\n    /* \"#utility.yul\":7770:7789   */\n  lt\n    /* \"#utility.yul\":7767:7946   */\n  iszero\n  tag_163\n  jumpi\n    /* \"#utility.yul\":7840:7849   */\n  dup5\n    /* \"#utility.yul\":7835:7838   */\n  dup10\n    /* \"#utility.yul\":7831:7850   */\n  add\n    /* \"#utility.yul\":7825:7851   */\n  mload\n    /* \"#utility.yul\":7883:7931   */\n  tag_164\n    /* \"#utility.yul\":7925:7929   */\n  0x1f\n    /* \"#utility.yul\":7917:7923   */\n  dup10\n    /* \"#utility.yul\":7913:7930   */\n  and\n    /* \"#utility.yul\":7902:7911   */\n  dup3\n    /* \"#utility.yul\":7883:7931   */\n  tag_60\n  jump\t// in\ntag_164:\n    /* \"#utility.yul\":7875:7881   */\n  dup4\n    /* \"#utility.yul\":7868:7932   */\n  sstore\n    /* \"#utility.yul\":7790:7946   */\n  pop\n    /* \"#utility.yul\":7767:7946   */\ntag_163:\n    /* \"#utility.yul\":7992:7993   */\n  0x01\n    /* \"#utility.yul\":7988:7989   */\n  0x02\n    /* \"#utility.yul\":7980:7986   */\n  dup9\n    /* \"#utility.yul\":7976:7990   */\n  mul\n    /* \"#utility.yul\":7972:7994   */\n  add\n    /* \"#utility.yul\":7966:7970   */\n  dup9\n    /* \"#utility.yul\":7959:7995   */\n  sstore\n    /* \"#utility.yul\":7394:8005   */\n  pop\n  pop\n  pop\n    /* \"#utility.yul\":7357:8244   */\ntag_155:\n  pop\n    /* \"#utility.yul\":6947:8250   */\n  pop\n  pop\n  pop\n    /* \"#utility.yul\":6855:8250   */\n  pop\n  pop\n  jump\t// out\n    /* \"#utility.yul\":8256:8382   */\ntag_62:\n    /* \"#utility.yul\":8293:8300   */\n  0x00\n    /* \"#utility.yul\":8333:8375   */\n  0xffffffffffffffffffffffffffffffffffffffff\n    /* \"#utility.yul\":8326:8331   */\n  dup3\n    /* \"#utility.yul\":8322:8376   */\n  and\n    /* \"#utility.yul\":8311:8376   */\n  swap1\n  pop\n    /* \"#utility.yul\":8256:8382   */\n  swap2\n  swap1\n  pop\n  jump\t// out\n    /* \"#utility.yul\":8388:8484   */\ntag_63:\n    /* \"#utility.yul\":8425:8432   */\n  0x00\n    /* \"#utility.yul\":8454:8478   */\n  tag_167\n    /* \"#utility.yul\":8472:8477   */\n  dup3\n    /* \"#utility.yul\":8454:8478   */\n  tag_62\n  jump\t// in\ntag_167:\n    /* \"#utility.yul\":8443:8478   */\n  swap1\n  pop\n    /* \"#utility.yul\":8388:8484   */\n  swap2\n  swap1\n  pop\n  jump\t// out\n    /* \"#utility.yul\":8490:8608   */\ntag_64:\n    /* \"#utility.yul\":8577:8601   */\n  tag_169\n    /* \"#utility.yul\":8595:8600   */\n  dup2\n    /* \"#utility.yul\":8577:8601   */\n  tag_63\n  jump\t// in\ntag_169:\n    /* \"#utility.yul\":8572:8575   */\n  dup3\n    /* \"#utility.yul\":8565:8602   */\n  mstore\n    /* \"#utility.yul\":8490:8608   */\n  pop\n  pop\n  jump\t// out\n    /* \"#utility.yul\":8614:8836   */\ntag_22:\n    /* \"#utility.yul\":8707:8711   */\n  0x00\n    /* \"#utility.yul\":8745:8747   */\n  0x20\n    /* \"#utility.yul\":8734:8743   */\n  dup3\n    /* \"#utility.yul\":8730:8748   */\n  add\n    /* \"#utility.yul\":8722:8748   */\n  swap1\n  pop\n    /* \"#utility.yul\":8758:8829   */\n  tag_171\n    /* \"#utility.yul\":8826:8827   */\n  0x00\n    /* \"#utility.yul\":8815:8824   */\n  dup4\n    /* \"#utility.yul\":8811:8828   */\n  add\n    /* \"#utility.yul\":8802:8808   */\n  dup5\n    /* \"#utility.yul\":8758:8829   */\n  tag_64\n  jump\t// in\ntag_171:\n    /* \"#utility.yul\":8614:8836   */\n  swap3\n  swap2\n  pop\n  pop\n  jump\t// out\n    /* \"#utility.yul\":8842:9033   */\ntag_28:\n    /* \"#utility.yul\":8882:8885   */\n  0x00\n    /* \"#utility.yul\":8901:8921   */\n  tag_173\n    /* \"#utility.yul\":8919:8920   */\n  dup3\n    /* \"#utility.yul\":8901:8921   */\n  tag_41\n  jump\t// in\ntag_173:\n    /* \"#utility.yul\":8896:8921   */\n  swap2\n  pop\n    /* \"#utility.yul\":8935:8955   */\n  tag_174\n    /* \"#utility.yul\":8953:8954   */\n  dup4\n    /* \"#utility.yul\":8935:8955   */\n  tag_41\n  jump\t// in\ntag_174:\n    /* \"#utility.yul\":8930:8955   */\n  swap3\n  pop\n    /* \"#utility.yul\":8978:8979   */\n  dup3\n    /* \"#utility.yul\":8975:8976   */\n  dup3\n    /* \"#utility.yul\":8971:8980   */\n  add\n    /* \"#utility.yul\":8964:8980   */\n  swap1\n  pop\n    /* \"#utility.yul\":8999:9002   */\n  dup1\n    /* \"#utility.yul\":8996:8997   */\n  dup3\n    /* \"#utility.yul\":8993:9003   */\n  gt\n    /* \"#utility.yul\":8990:9026   */\n  iszero\n  tag_175\n  jumpi\n    /* \"#utility.yul\":9006:9024   */\n  tag_176\n  tag_37\n  jump\t// in\ntag_176:\n    /* \"#utility.yul\":8990:9026   */\ntag_175:\n    /* \"#utility.yul\":8842:9033   */\n  swap3\n  swap2\n  pop\n  pop\n  jump\t// out\n    /* \"#utility.yul\":9039:9157   */\ntag_65:\n    /* \"#utility.yul\":9126:9150   */\n  tag_178\n    /* \"#utility.yul\":9144:9149   */\n  dup2\n    /* \"#utility.yul\":9126:9150   */\n  tag_41\n  jump\t// in\ntag_178:\n    /* \"#utility.yul\":9121:9124   */\n  dup3\n    /* \"#utility.yul\":9114:9151   */\n  mstore\n    /* \"#utility.yul\":9039:9157   */\n  pop\n  pop\n  jump\t// out\n    /* \"#utility.yul\":9163:9605   */\ntag_32:\n    /* \"#utility.yul\":9312:9316   */\n  0x00\n    /* \"#utility.yul\":9350:9352   */\n  0x60\n    /* \"#utility.yul\":9339:9348   */\n  dup3\n    /* \"#utility.yul\":9335:9353   */\n  add\n    /* \"#utility.yul\":9327:9353   */\n  swap1\n  pop\n    /* \"#utility.yul\":9363:9434   */\n  tag_180\n    /* \"#utility.yul\":9431:9432   */\n  0x00\n    /* \"#utility.yul\":9420:9429   */\n  dup4\n    /* \"#utility.yul\":9416:9433   */\n  add\n    /* \"#utility.yul\":9407:9413   */\n  dup7\n    /* \"#utility.yul\":9363:9434   */\n  tag_64\n  jump\t// in\ntag_180:\n    /* \"#utility.yul\":9444:9516   */\n  tag_181\n    /* \"#utility.yul\":9512:9514   */\n  0x20\n    /* \"#utility.yul\":9501:9510   */\n  dup4\n    /* \"#utility.yul\":9497:9515   */\n  add\n    /* \"#utility.yul\":9488:9494   */\n  dup6\n    /* \"#utility.yul\":9444:9516   */\n  tag_65\n  jump\t// in\ntag_181:\n    /* \"#utility.yul\":9526:9598   */\n  tag_182\n    /* \"#utility.yul\":9594:9596   */\n  0x40\n    /* \"#utility.yul\":9583:9592   */\n  dup4\n    /* \"#utility.yul\":9579:9597   */\n  add\n    /* \"#utility.yul\":9570:9576   */\n  dup5\n    /* \"#utility.yul\":9526:9598   */\n  tag_65\n  jump\t// in\ntag_182:\n    /* \"#utility.yul\":9163:9605   */\n  swap5\n  swap4\n  pop\n  pop\n  pop\n  pop\n  jump\t// out\n    /* \"#utility.yul\":9611:9833   */\ntag_36:\n    /* \"#utility.yul\":9704:9708   */\n  0x00\n    /* \"#utility.yul\":9742:9744   */\n  0x20\n    /* \"#utility.yul\":9731:9740   */\n  dup3\n    /* \"#utility.yul\":9727:9745   */\n  add\n    /* \"#utility.yul\":9719:9745   */\n  swap1\n  pop\n    /* \"#utility.yul\":9755:9826   */\n  tag_184\n    /* \"#utility.yul\":9823:9824   */\n  0x00\n    /* \"#utility.yul\":9812:9821   */\n  dup4\n    /* \"#utility.yul\":9808:9825   */\n  add\n    /* \"#utility.yul\":9799:9805   */\n  dup5\n    /* \"#utility.yul\":9755:9826   */\n  tag_65\n  jump\t// in\ntag_184:\n    /* \"#utility.yul\":9611:9833   */\n  swap3\n  swap2\n  pop\n  pop\n  jump\t// out\n    /* \"contracts/erc20base.sol\":287:3547  contract WeightedVoting is ERC20 {... */\ntag_17:\n  dataSize(sub_0)\n  dup1\n  dataOffset(sub_0)\n  0x00\n  codecopy\n  0x00\n  return\nstop\n\nsub_0: assembly {\n        /* \"contracts/erc20base.sol\":287:3547  contract WeightedVoting is ERC20 {... */\n      mstore(0x40, 0x80)\n      callvalue\n      dup1\n      iszero\n      tag_1\n      jumpi\n      0x00\n      dup1\n      revert\n    tag_1:\n      pop\n      jumpi(tag_2, lt(calldatasize, 0x04))\n      shr(0xe0, calldataload(0x00))\n      dup1\n      0x8615d855\n      gt\n      tag_17\n      jumpi\n      dup1\n      0x976b3113\n      gt\n      tag_18\n      jumpi\n      dup1\n      0x976b3113\n      eq\n      tag_13\n      jumpi\n      dup1\n      0xa9059cbb\n      eq\n      tag_14\n      jumpi\n      dup1\n      0xd5abeb01\n      eq\n      tag_15\n      jumpi\n      dup1\n      0xdd62ed3e\n      eq\n      tag_16\n      jumpi\n      jump(tag_2)\n    tag_18:\n      dup1\n      0x8615d855\n      eq\n      tag_10\n      jumpi\n      dup1\n      0x943e8216\n      eq\n      tag_11\n      jumpi\n      dup1\n      0x95d89b41\n      eq\n      tag_12\n      jumpi\n      jump(tag_2)\n    tag_17:\n      dup1\n      0x23b872dd\n      gt\n      tag_19\n      jumpi\n      dup1\n      0x23b872dd\n      eq\n      tag_6\n      jumpi\n      dup1\n      0x313ce567\n      eq\n      tag_7\n      jumpi\n      dup1\n      0x4e71d92d\n      eq\n      tag_8\n      jumpi\n      dup1\n      0x70a08231\n      eq\n      tag_9\n      jumpi\n      jump(tag_2)\n    tag_19:\n      dup1\n      0x06fdde03\n      eq\n      tag_3\n      jumpi\n      dup1\n      0x095ea7b3\n      eq\n      tag_4\n      jumpi\n      dup1\n      0x18160ddd\n      eq\n      tag_5\n      jumpi\n    tag_2:\n      0x00\n      dup1\n      revert\n        /* \"https://github.com/OpenZeppelin/openzeppelin-contracts/blob/master/contracts/token/ERC20/ERC20.sol\":1779:1868  function name() public view virtual returns (string memory) {... */\n    tag_3:\n      tag_20\n      tag_21\n      jump\t// in\n    tag_20:\n      mload(0x40)\n      tag_22\n      swap2\n      swap1\n      tag_23\n      jump\t// in\n    tag_22:\n      mload(0x40)\n      dup1\n      swap2\n      sub\n      swap1\n      return\n        /* \"https://github.com/OpenZeppelin/openzeppelin-contracts/blob/master/contracts/token/ERC20/ERC20.sol\":3998:4184  function approve(address spender, uint256 value) public virtual returns (bool) {... */\n    tag_4:\n      tag_24\n      0x04\n      dup1\n      calldatasize\n      sub\n      dup2\n      add\n      swap1\n      tag_25\n      swap2\n      swap1\n      tag_26\n      jump\t// in\n    tag_25:\n      tag_27\n      jump\t// in\n    tag_24:\n      mload(0x40)\n      tag_28\n      swap2\n      swap1\n      tag_29\n      jump\t// in\n    tag_28:\n      mload(0x40)\n      dup1\n      swap2\n      sub\n      swap1\n      return\n        /* \"https://github.com/OpenZeppelin/openzeppelin-contracts/blob/master/contracts/token/ERC20/ERC20.sol\":2849:2946  function totalSupply() public view virtual returns (uint256) {... */\n    tag_5:\n      tag_30\n      tag_31\n      jump\t// in\n    tag_30:\n      mload(0x40)\n      tag_32\n      swap2\n      swap1\n      tag_33\n      jump\t// in\n    tag_32:\n      mload(0x40)\n      dup1\n      swap2\n      sub\n      swap1\n      return\n        /* \"https://github.com/OpenZeppelin/openzeppelin-contracts/blob/master/contracts/token/ERC20/ERC20.sol\":4776:5020  function transferFrom(address from, address to, uint256 value) public virtual returns (bool) {... */\n    tag_6:\n      tag_34\n      0x04\n      dup1\n      calldatasize\n      sub\n      dup2\n      add\n      swap1\n      tag_35\n      swap2\n      swap1\n      tag_36\n      jump\t// in\n    tag_35:\n      tag_37\n      jump\t// in\n    tag_34:\n      mload(0x40)\n      tag_38\n      swap2\n      swap1\n      tag_29\n      jump\t// in\n    tag_38:\n      mload(0x40)\n      dup1\n      swap2\n      sub\n      swap1\n      return\n        /* \"https://github.com/OpenZeppelin/openzeppelin-contracts/blob/master/contracts/token/ERC20/ERC20.sol\":2707:2789  function decimals() public view virtual returns (uint8) {... */\n    tag_7:\n      tag_39\n      tag_40\n      jump\t// in\n    tag_39:\n      mload(0x40)\n      tag_41\n      swap2\n      swap1\n      tag_42\n      jump\t// in\n    tag_41:\n      mload(0x40)\n      dup1\n      swap2\n      sub\n      swap1\n      return\n        /* \"contracts/erc20base.sol\":1362:1613  function claim() external {... */\n    tag_8:\n      tag_43\n      tag_44\n      jump\t// in\n    tag_43:\n      stop\n        /* \"https://github.com/OpenZeppelin/openzeppelin-contracts/blob/master/contracts/token/ERC20/ERC20.sol\":3004:3120  function balanceOf(address account) public view virtual returns (uint256) {... */\n    tag_9:\n      tag_45\n      0x04\n      dup1\n      calldatasize\n      sub\n      dup2\n      add\n      swap1\n      tag_46\n      swap2\n      swap1\n      tag_47\n      jump\t// in\n    tag_46:\n      tag_48\n      jump\t// in\n    tag_45:\n      mload(0x40)\n      tag_49\n      swap2\n      swap1\n      tag_33\n      jump\t// in\n    tag_49:\n      mload(0x40)\n      dup1\n      swap2\n      sub\n      swap1\n      return\n        /* \"contracts/erc20base.sol\":1619:2253  function createIssue(string memory _issueDesc, uint256 _quorum)... */\n    tag_10:\n      tag_50\n      0x04\n      dup1\n      calldatasize\n      sub\n      dup2\n      add\n      swap1\n      tag_51\n      swap2\n      swap1\n      tag_52\n      jump\t// in\n    tag_51:\n      tag_53\n      jump\t// in\n    tag_50:\n      mload(0x40)\n      tag_54\n      swap2\n      swap1\n      tag_33\n      jump\t// in\n    tag_54:\n      mload(0x40)\n      dup1\n      swap2\n      sub\n      swap1\n      return\n        /* \"contracts/erc20base.sol\":2787:3545  function vote(uint256 _issueId, Vote _vote) external {... */\n    tag_11:\n      tag_55\n      0x04\n      dup1\n      calldatasize\n      sub\n      dup2\n      add\n      swap1\n      tag_56\n      swap2\n      swap1\n      tag_57\n      jump\t// in\n    tag_56:\n      tag_58\n      jump\t// in\n    tag_55:\n      stop\n        /* \"https://github.com/OpenZeppelin/openzeppelin-contracts/blob/master/contracts/token/ERC20/ERC20.sol\":1981:2074  function symbol() public view virtual returns (string memory) {... */\n    tag_12:\n      tag_59\n      tag_60\n      jump\t// in\n    tag_59:\n      mload(0x40)\n      tag_61\n      swap2\n      swap1\n      tag_23\n      jump\t// in\n    tag_61:\n      mload(0x40)\n      dup1\n      swap2\n      sub\n      swap1\n      return\n        /* \"contracts/erc20base.sol\":2259:2781  function getIssue(uint256 _id) external view returns (IssueView memory) {... */\n    tag_13:\n      tag_62\n      0x04\n      dup1\n      calldatasize\n      sub\n      dup2\n      add\n      swap1\n      tag_63\n      swap2\n      swap1\n      tag_64\n      jump\t// in\n    tag_63:\n      tag_65\n      jump\t// in\n    tag_62:\n      mload(0x40)\n      tag_66\n      swap2\n      swap1\n      tag_67\n      jump\t// in\n    tag_66:\n      mload(0x40)\n      dup1\n      swap2\n      sub\n      swap1\n      return\n        /* \"https://github.com/OpenZeppelin/openzeppelin-contracts/blob/master/contracts/token/ERC20/ERC20.sol\":3315:3493  function transfer(address to, uint256 value) public virtual returns (bool) {... */\n    tag_14:\n      tag_68\n      0x04\n      dup1\n      calldatasize\n      sub\n      dup2\n      add\n      swap1\n      tag_69\n      swap2\n      swap1\n      tag_26\n      jump\t// in\n    tag_69:\n      tag_70\n      jump\t// in\n    tag_68:\n      mload(0x40)\n      tag_71\n      swap2\n      swap1\n      tag_29\n      jump\t// in\n    tag_71:\n      mload(0x40)\n      dup1\n      swap2\n      sub\n      swap1\n      return\n        /* \"contracts/erc20base.sol\":381:436  uint256 public maxSupply = 1_000_000 * (10**decimals()) */\n    tag_15:\n      tag_72\n      tag_73\n      jump\t// in\n    tag_72:\n      mload(0x40)\n      tag_74\n      swap2\n      swap1\n      tag_33\n      jump\t// in\n    tag_74:\n      mload(0x40)\n      dup1\n      swap2\n      sub\n      swap1\n      return\n        /* \"https://github.com/OpenZeppelin/openzeppelin-contracts/blob/master/contracts/token/ERC20/ERC20.sol\":3551:3691  function allowance(address owner, address spender) public view virtual returns (uint256) {... */\n    tag_16:\n      tag_75\n      0x04\n      dup1\n      calldatasize\n      sub\n      dup2\n      add\n      swap1\n      tag_76\n      swap2\n      swap1\n      tag_77\n      jump\t// in\n    tag_76:\n      tag_78\n      jump\t// in\n    tag_75:\n      mload(0x40)\n      tag_79\n      swap2\n      swap1\n      tag_33\n      jump\t// in\n    tag_79:\n      mload(0x40)\n      dup1\n      swap2\n      sub\n      swap1\n      return\n        /* \"https://github.com/OpenZeppelin/openzeppelin-contracts/blob/master/contracts/token/ERC20/ERC20.sol\":1779:1868  function name() public view virtual returns (string memory) {... */\n    tag_21:\n        /* \"https://github.com/OpenZeppelin/openzeppelin-contracts/blob/master/contracts/token/ERC20/ERC20.sol\":1824:1837  string memory */\n      0x60\n        /* \"https://github.com/OpenZeppelin/openzeppelin-contracts/blob/master/contracts/token/ERC20/ERC20.sol\":1856:1861  _name */\n      0x03\n        /* \"https://github.com/OpenZeppelin/openzeppelin-contracts/blob/master/contracts/token/ERC20/ERC20.sol\":1849:1861  return _name */\n      dup1\n      sload\n      tag_81\n      swap1\n      tag_82\n      jump\t// in\n    tag_81:\n      dup1\n      0x1f\n      add\n      0x20\n      dup1\n      swap2\n      div\n      mul\n      0x20\n      add\n      mload(0x40)\n      swap1\n      dup2\n      add\n      0x40\n      mstore\n      dup1\n      swap3\n      swap2\n      swap1\n      dup2\n      dup2\n      mstore\n      0x20\n      add\n      dup3\n      dup1\n      sload\n      tag_83\n      swap1\n      tag_82\n      jump\t// in\n    tag_83:\n      dup1\n      iszero\n      tag_84\n      jumpi\n      dup1\n      0x1f\n      lt\n      tag_85\n      jumpi\n      0x0100\n      dup1\n      dup4\n      sload\n      div\n      mul\n      dup4\n      mstore\n      swap2\n      0x20\n      add\n      swap2\n      jump(tag_84)\n    tag_85:\n      dup3\n      add\n      swap2\n      swap1\n      0x00\n      mstore\n      keccak256(0x00, 0x20)\n      swap1\n    tag_86:\n      dup2\n      sload\n      dup2\n      mstore\n      swap1\n      0x01\n      add\n      swap1\n      0x20\n      add\n      dup1\n      dup4\n      gt\n      tag_86\n      jumpi\n      dup3\n      swap1\n      sub\n      0x1f\n      and\n      dup3\n      add\n      swap2\n    tag_84:\n      pop\n      pop\n      pop\n      pop\n      pop\n      swap1\n      pop\n        /* \"https://github.com/OpenZeppelin/openzeppelin-contracts/blob/master/contracts/token/ERC20/ERC20.sol\":1779:1868  function name() public view virtual returns (string memory) {... */\n      swap1\n      jump\t// out\n        /* \"https://github.com/OpenZeppelin/openzeppelin-contracts/blob/master/contracts/token/ERC20/ERC20.sol\":3998:4184  function approve(address spender, uint256 value) public virtual returns (bool) {... */\n    tag_27:\n        /* \"https://github.com/OpenZeppelin/openzeppelin-contracts/blob/master/contracts/token/ERC20/ERC20.sol\":4071:4075  bool */\n      0x00\n        /* \"https://github.com/OpenZeppelin/openzeppelin-contracts/blob/master/contracts/token/ERC20/ERC20.sol\":4087:4100  address owner */\n      dup1\n        /* \"https://github.com/OpenZeppelin/openzeppelin-contracts/blob/master/contracts/token/ERC20/ERC20.sol\":4103:4115  _msgSender() */\n      tag_88\n        /* \"https://github.com/OpenZeppelin/openzeppelin-contracts/blob/master/contracts/token/ERC20/ERC20.sol\":4103:4113  _msgSender */\n      tag_89\n        /* \"https://github.com/OpenZeppelin/openzeppelin-contracts/blob/master/contracts/token/ERC20/ERC20.sol\":4103:4115  _msgSender() */\n      jump\t// in\n    tag_88:\n        /* \"https://github.com/OpenZeppelin/openzeppelin-contracts/blob/master/contracts/token/ERC20/ERC20.sol\":4087:4115  address owner = _msgSender() */\n      swap1\n      pop\n        /* \"https://github.com/OpenZeppelin/openzeppelin-contracts/blob/master/contracts/token/ERC20/ERC20.sol\":4125:4156  _approve(owner, spender, value) */\n      tag_90\n        /* \"https://github.com/OpenZeppelin/openzeppelin-contracts/blob/master/contracts/token/ERC20/ERC20.sol\":4134:4139  owner */\n      dup2\n        /* \"https://github.com/OpenZeppelin/openzeppelin-contracts/blob/master/contracts/token/ERC20/ERC20.sol\":4141:4148  spender */\n      dup6\n        /* \"https://github.com/OpenZeppelin/openzeppelin-contracts/blob/master/contracts/token/ERC20/ERC20.sol\":4150:4155  value */\n      dup6\n        /* \"https://github.com/OpenZeppelin/openzeppelin-contracts/blob/master/contracts/token/ERC20/ERC20.sol\":4125:4133  _approve */\n      tag_91\n        /* \"https://github.com/OpenZeppelin/openzeppelin-contracts/blob/master/contracts/token/ERC20/ERC20.sol\":4125:4156  _approve(owner, spender, value) */\n      jump\t// in\n    tag_90:\n        /* \"https://github.com/OpenZeppelin/openzeppelin-contracts/blob/master/contracts/token/ERC20/ERC20.sol\":4173:4177  true */\n      0x01\n        /* \"https://github.com/OpenZeppelin/openzeppelin-contracts/blob/master/contracts/token/ERC20/ERC20.sol\":4166:4177  return true */\n      swap2\n      pop\n      pop\n        /* \"https://github.com/OpenZeppelin/openzeppelin-contracts/blob/master/contracts/token/ERC20/ERC20.sol\":3998:4184  function approve(address spender, uint256 value) public virtual returns (bool) {... */\n      swap3\n      swap2\n      pop\n      pop\n      jump\t// out\n        /* \"https://github.com/OpenZeppelin/openzeppelin-contracts/blob/master/contracts/token/ERC20/ERC20.sol\":2849:2946  function totalSupply() public view virtual returns (uint256) {... */\n    tag_31:\n        /* \"https://github.com/OpenZeppelin/openzeppelin-contracts/blob/master/contracts/token/ERC20/ERC20.sol\":2901:2908  uint256 */\n      0x00\n        /* \"https://github.com/OpenZeppelin/openzeppelin-contracts/blob/master/contracts/token/ERC20/ERC20.sol\":2927:2939  _totalSupply */\n      sload(0x02)\n        /* \"https://github.com/OpenZeppelin/openzeppelin-contracts/blob/master/contracts/token/ERC20/ERC20.sol\":2920:2939  return _totalSupply */\n      swap1\n      pop\n        /* \"https://github.com/OpenZeppelin/openzeppelin-contracts/blob/master/contracts/token/ERC20/ERC20.sol\":2849:2946  function totalSupply() public view virtual returns (uint256) {... */\n      swap1\n      jump\t// out\n        /* \"https://github.com/OpenZeppelin/openzeppelin-contracts/blob/master/contracts/token/ERC20/ERC20.sol\":4776:5020  function transferFrom(address from, address to, uint256 value) public virtual returns (bool) {... */\n    tag_37:\n        /* \"https://github.com/OpenZeppelin/openzeppelin-contracts/blob/master/contracts/token/ERC20/ERC20.sol\":4863:4867  bool */\n      0x00\n        /* \"https://github.com/OpenZeppelin/openzeppelin-contracts/blob/master/contracts/token/ERC20/ERC20.sol\":4879:4894  address spender */\n      dup1\n        /* \"https://github.com/OpenZeppelin/openzeppelin-contracts/blob/master/contracts/token/ERC20/ERC20.sol\":4897:4909  _msgSender() */\n      tag_94\n        /* \"https://github.com/OpenZeppelin/openzeppelin-contracts/blob/master/contracts/token/ERC20/ERC20.sol\":4897:4907  _msgSender */\n      tag_89\n        /* \"https://github.com/OpenZeppelin/openzeppelin-contracts/blob/master/contracts/token/ERC20/ERC20.sol\":4897:4909  _msgSender() */\n      jump\t// in\n    tag_94:\n        /* \"https://github.com/OpenZeppelin/openzeppelin-contracts/blob/master/contracts/token/ERC20/ERC20.sol\":4879:4909  address spender = _msgSender() */\n      swap1\n      pop\n        /* \"https://github.com/OpenZeppelin/openzeppelin-contracts/blob/master/contracts/token/ERC20/ERC20.sol\":4919:4956  _spendAllowance(from, spender, value) */\n      tag_95\n        /* \"https://github.com/OpenZeppelin/openzeppelin-contracts/blob/master/contracts/token/ERC20/ERC20.sol\":4935:4939  from */\n      dup6\n        /* \"https://github.com/OpenZeppelin/openzeppelin-contracts/blob/master/contracts/token/ERC20/ERC20.sol\":4941:4948  spender */\n      dup3\n        /* \"https://github.com/OpenZeppelin/openzeppelin-contracts/blob/master/contracts/token/ERC20/ERC20.sol\":4950:4955  value */\n      dup6\n        /* \"https://github.com/OpenZeppelin/openzeppelin-contracts/blob/master/contracts/token/ERC20/ERC20.sol\":4919:4934  _spendAllowance */\n      tag_96\n        /* \"https://github.com/OpenZeppelin/openzeppelin-contracts/blob/master/contracts/token/ERC20/ERC20.sol\":4919:4956  _spendAllowance(from, spender, value) */\n      jump\t// in\n    tag_95:\n        /* \"https://github.com/OpenZeppelin/openzeppelin-contracts/blob/master/contracts/token/ERC20/ERC20.sol\":4966:4992  _transfer(from, to, value) */\n      tag_97\n        /* \"https://github.com/OpenZeppelin/openzeppelin-contracts/blob/master/contracts/token/ERC20/ERC20.sol\":4976:4980  from */\n      dup6\n        /* \"https://github.com/OpenZeppelin/openzeppelin-contracts/blob/master/contracts/token/ERC20/ERC20.sol\":4982:4984  to */\n      dup6\n        /* \"https://github.com/OpenZeppelin/openzeppelin-contracts/blob/master/contracts/token/ERC20/ERC20.sol\":4986:4991  value */\n      dup6\n        /* \"https://github.com/OpenZeppelin/openzeppelin-contracts/blob/master/contracts/token/ERC20/ERC20.sol\":4966:4975  _transfer */\n      tag_98\n        /* \"https://github.com/OpenZeppelin/openzeppelin-contracts/blob/master/contracts/token/ERC20/ERC20.sol\":4966:4992  _transfer(from, to, value) */\n      jump\t// in\n    tag_97:\n        /* \"https://github.com/OpenZeppelin/openzeppelin-contracts/blob/master/contracts/token/ERC20/ERC20.sol\":5009:5013  true */\n      0x01\n        /* \"https://github.com/OpenZeppelin/openzeppelin-contracts/blob/master/contracts/token/ERC20/ERC20.sol\":5002:5013  return true */\n      swap2\n      pop\n      pop\n        /* \"https://github.com/OpenZeppelin/openzeppelin-contracts/blob/master/contracts/token/ERC20/ERC20.sol\":4776:5020  function transferFrom(address from, address to, uint256 value) public virtual returns (bool) {... */\n      swap4\n      swap3\n      pop\n      pop\n      pop\n      jump\t// out\n        /* \"https://github.com/OpenZeppelin/openzeppelin-contracts/blob/master/contracts/token/ERC20/ERC20.sol\":2707:2789  function decimals() public view virtual returns (uint8) {... */\n    tag_40:\n        /* \"https://github.com/OpenZeppelin/openzeppelin-contracts/blob/master/contracts/token/ERC20/ERC20.sol\":2756:2761  uint8 */\n      0x00\n        /* \"https://github.com/OpenZeppelin/openzeppelin-contracts/blob/master/contracts/token/ERC20/ERC20.sol\":2780:2782  18 */\n      0x12\n        /* \"https://github.com/OpenZeppelin/openzeppelin-contracts/blob/master/contracts/token/ERC20/ERC20.sol\":2773:2782  return 18 */\n      swap1\n      pop\n        /* \"https://github.com/OpenZeppelin/openzeppelin-contracts/blob/master/contracts/token/ERC20/ERC20.sol\":2707:2789  function decimals() public view virtual returns (uint8) {... */\n      swap1\n      jump\t// out\n        /* \"contracts/erc20base.sol\":1362:1613  function claim() external {... */\n    tag_44:\n        /* \"contracts/erc20base.sol\":1402:1412  hasClaimed */\n      0x07\n        /* \"contracts/erc20base.sol\":1402:1424  hasClaimed[msg.sender] */\n      0x00\n        /* \"contracts/erc20base.sol\":1413:1423  msg.sender */\n      caller\n        /* \"contracts/erc20base.sol\":1402:1424  hasClaimed[msg.sender] */\n      0xffffffffffffffffffffffffffffffffffffffff\n      and\n      0xffffffffffffffffffffffffffffffffffffffff\n      and\n      dup2\n      mstore\n      0x20\n      add\n      swap1\n      dup2\n      mstore\n      0x20\n      add\n      0x00\n      keccak256\n      0x00\n      swap1\n      sload\n      swap1\n      0x0100\n      exp\n      swap1\n      div\n      0xff\n      and\n        /* \"contracts/erc20base.sol\":1398:1448  if (hasClaimed[msg.sender]) revert TokensClaimed() */\n      iszero\n      tag_101\n      jumpi\n        /* \"contracts/erc20base.sol\":1433:1448  TokensClaimed() */\n      mload(0x40)\n      0x0b1327a600000000000000000000000000000000000000000000000000000000\n      dup2\n      mstore\n      0x04\n      add\n      mload(0x40)\n      dup1\n      swap2\n      sub\n      swap1\n      revert\n        /* \"contracts/erc20base.sol\":1398:1448  if (hasClaimed[msg.sender]) revert TokensClaimed() */\n    tag_101:\n        /* \"contracts/erc20base.sol\":1479:1488  maxSupply */\n      sload(0x05)\n        /* \"contracts/erc20base.sol\":1462:1475  totalSupply() */\n      tag_102\n        /* \"contracts/erc20base.sol\":1462:1473  totalSupply */\n      tag_31\n        /* \"contracts/erc20base.sol\":1462:1475  totalSupply() */\n      jump\t// in\n    tag_102:\n        /* \"contracts/erc20base.sol\":1462:1488  totalSupply() >= maxSupply */\n      lt\n        /* \"contracts/erc20base.sol\":1458:1515  if (totalSupply() >= maxSupply) revert AllTokensClaimed() */\n      tag_103\n      jumpi\n        /* \"contracts/erc20base.sol\":1497:1515  AllTokensClaimed() */\n      mload(0x40)\n      0xcbe2483100000000000000000000000000000000000000000000000000000000\n      dup2\n      mstore\n      0x04\n      add\n      mload(0x40)\n      dup1\n      swap2\n      sub\n      swap1\n      revert\n        /* \"contracts/erc20base.sol\":1458:1515  if (totalSupply() >= maxSupply) revert AllTokensClaimed() */\n    tag_103:\n        /* \"contracts/erc20base.sol\":1526:1567  _mint(msg.sender, 100 * (10**decimals())) */\n      tag_104\n        /* \"contracts/erc20base.sol\":1532:1542  msg.sender */\n      caller\n        /* \"contracts/erc20base.sol\":1555:1565  decimals() */\n      tag_105\n        /* \"contracts/erc20base.sol\":1555:1563  decimals */\n      tag_40\n        /* \"contracts/erc20base.sol\":1555:1565  decimals() */\n      jump\t// in\n    tag_105:\n        /* \"contracts/erc20base.sol\":1551:1553  10 */\n      0x0a\n        /* \"contracts/erc20base.sol\":1551:1565  10**decimals() */\n      tag_106\n      swap2\n      swap1\n      tag_107\n      jump\t// in\n    tag_106:\n        /* \"contracts/erc20base.sol\":1544:1547  100 */\n      0x64\n        /* \"contracts/erc20base.sol\":1544:1566  100 * (10**decimals()) */\n      tag_108\n      swap2\n      swap1\n      tag_109\n      jump\t// in\n    tag_108:\n        /* \"contracts/erc20base.sol\":1526:1531  _mint */\n      tag_110\n        /* \"contracts/erc20base.sol\":1526:1567  _mint(msg.sender, 100 * (10**decimals())) */\n      jump\t// in\n    tag_104:\n        /* \"contracts/erc20base.sol\":1602:1606  true */\n      0x01\n        /* \"contracts/erc20base.sol\":1577:1587  hasClaimed */\n      0x07\n        /* \"contracts/erc20base.sol\":1577:1599  hasClaimed[msg.sender] */\n      0x00\n        /* \"contracts/erc20base.sol\":1588:1598  msg.sender */\n      caller\n        /* \"contracts/erc20base.sol\":1577:1599  hasClaimed[msg.sender] */\n      0xffffffffffffffffffffffffffffffffffffffff\n      and\n      0xffffffffffffffffffffffffffffffffffffffff\n      and\n      dup2\n      mstore\n      0x20\n      add\n      swap1\n      dup2\n      mstore\n      0x20\n      add\n      0x00\n      keccak256\n      0x00\n        /* \"contracts/erc20base.sol\":1577:1606  hasClaimed[msg.sender] = true */\n      0x0100\n      exp\n      dup2\n      sload\n      dup2\n      0xff\n      mul\n      not\n      and\n      swap1\n      dup4\n      iszero\n      iszero\n      mul\n      or\n      swap1\n      sstore\n      pop\n        /* \"contracts/erc20base.sol\":1362:1613  function claim() external {... */\n      jump\t// out\n        /* \"https://github.com/OpenZeppelin/openzeppelin-contracts/blob/master/contracts/token/ERC20/ERC20.sol\":3004:3120  function balanceOf(address account) public view virtual returns (uint256) {... */\n    tag_48:\n        /* \"https://github.com/OpenZeppelin/openzeppelin-contracts/blob/master/contracts/token/ERC20/ERC20.sol\":3069:3076  uint256 */\n      0x00\n        /* \"https://github.com/OpenZeppelin/openzeppelin-contracts/blob/master/contracts/token/ERC20/ERC20.sol\":3095:3104  _balances */\n      dup1\n        /* \"https://github.com/OpenZeppelin/openzeppelin-contracts/blob/master/contracts/token/ERC20/ERC20.sol\":3095:3113  _balances[account] */\n      0x00\n        /* \"https://github.com/OpenZeppelin/openzeppelin-contracts/blob/master/contracts/token/ERC20/ERC20.sol\":3105:3112  account */\n      dup4\n        /* \"https://github.com/OpenZeppelin/openzeppelin-contracts/blob/master/contracts/token/ERC20/ERC20.sol\":3095:3113  _balances[account] */\n      0xffffffffffffffffffffffffffffffffffffffff\n      and\n      0xffffffffffffffffffffffffffffffffffffffff\n      and\n      dup2\n      mstore\n      0x20\n      add\n      swap1\n      dup2\n      mstore\n      0x20\n      add\n      0x00\n      keccak256\n      sload\n        /* \"https://github.com/OpenZeppelin/openzeppelin-contracts/blob/master/contracts/token/ERC20/ERC20.sol\":3088:3113  return _balances[account] */\n      swap1\n      pop\n        /* \"https://github.com/OpenZeppelin/openzeppelin-contracts/blob/master/contracts/token/ERC20/ERC20.sol\":3004:3120  function balanceOf(address account) public view virtual returns (uint256) {... */\n      swap2\n      swap1\n      pop\n      jump\t// out\n        /* \"contracts/erc20base.sol\":1619:2253  function createIssue(string memory _issueDesc, uint256 _quorum)... */\n    tag_53:\n        /* \"contracts/erc20base.sol\":1717:1724  uint256 */\n      0x00\n        /* \"contracts/erc20base.sol\":1772:1773  0 */\n      dup1\n        /* \"contracts/erc20base.sol\":1748:1769  balanceOf(msg.sender) */\n      tag_113\n        /* \"contracts/erc20base.sol\":1758:1768  msg.sender */\n      caller\n        /* \"contracts/erc20base.sol\":1748:1757  balanceOf */\n      tag_48\n        /* \"contracts/erc20base.sol\":1748:1769  balanceOf(msg.sender) */\n      jump\t// in\n    tag_113:\n        /* \"contracts/erc20base.sol\":1748:1773  balanceOf(msg.sender) > 0 */\n      gt\n        /* \"contracts/erc20base.sol\":1740:1790  require(balanceOf(msg.sender) > 0, \"NoTokensHeld\") */\n      tag_114\n      jumpi\n      mload(0x40)\n      0x08c379a000000000000000000000000000000000000000000000000000000000\n      dup2\n      mstore\n      0x04\n      add\n      tag_115\n      swap1\n      tag_116\n      jump\t// in\n    tag_115:\n      mload(0x40)\n      dup1\n      swap2\n      sub\n      swap1\n      revert\n    tag_114:\n        /* \"contracts/erc20base.sol\":1819:1832  totalSupply() */\n      tag_117\n        /* \"contracts/erc20base.sol\":1819:1830  totalSupply */\n      tag_31\n        /* \"contracts/erc20base.sol\":1819:1832  totalSupply() */\n      jump\t// in\n    tag_117:\n        /* \"contracts/erc20base.sol\":1808:1815  _quorum */\n      dup3\n        /* \"contracts/erc20base.sol\":1808:1832  _quorum <= totalSupply() */\n      gt\n      iszero\n        /* \"contracts/erc20base.sol\":1800:1850  require(_quorum <= totalSupply(), \"QuorumTooHigh\") */\n      tag_118\n      jumpi\n      mload(0x40)\n      0x08c379a000000000000000000000000000000000000000000000000000000000\n      dup2\n      mstore\n      0x04\n      add\n      tag_119\n      swap1\n      tag_120\n      jump\t// in\n    tag_119:\n      mload(0x40)\n      dup1\n      swap2\n      sub\n      swap1\n      revert\n    tag_118:\n        /* \"contracts/erc20base.sol\":1861:1867  issues */\n      0x06\n        /* \"contracts/erc20base.sol\":1861:1874  issues.push() */\n      0x01\n      dup2\n      0x01\n      dup2\n      sload\n      add\n      dup1\n      dup3\n      sstore\n      dup1\n      swap2\n      pop\n      pop\n      sub\n      swap1\n      0x00\n      mstore\n      keccak256(0x00, 0x20)\n      swap1\n      pop\n      pop\n        /* \"contracts/erc20base.sol\":1884:1906  Issue storage newIssue */\n      0x00\n        /* \"contracts/erc20base.sol\":1909:1915  issues */\n      0x06\n        /* \"contracts/erc20base.sol\":1932:1933  1 */\n      0x01\n        /* \"contracts/erc20base.sol\":1916:1922  issues */\n      0x06\n        /* \"contracts/erc20base.sol\":1916:1929  issues.length */\n      dup1\n      sload\n      swap1\n      pop\n        /* \"contracts/erc20base.sol\":1916:1933  issues.length - 1 */\n      tag_122\n      swap2\n      swap1\n      tag_123\n      jump\t// in\n    tag_122:\n        /* \"contracts/erc20base.sol\":1909:1934  issues[issues.length - 1] */\n      dup2\n      sload\n      dup2\n      lt\n      tag_124\n      jumpi\n      tag_125\n      tag_126\n      jump\t// in\n    tag_125:\n    tag_124:\n      swap1\n      0x00\n      mstore\n      keccak256(0x00, 0x20)\n      swap1\n      0x09\n      mul\n      add\n        /* \"contracts/erc20base.sol\":1884:1934  Issue storage newIssue = issues[issues.length - 1] */\n      swap1\n      pop\n        /* \"contracts/erc20base.sol\":1966:1976  _issueDesc */\n      dup4\n        /* \"contracts/erc20base.sol\":1945:1953  newIssue */\n      dup2\n        /* \"contracts/erc20base.sol\":1945:1963  newIssue.issueDesc */\n      0x02\n      add\n        /* \"contracts/erc20base.sol\":1945:1976  newIssue.issueDesc = _issueDesc */\n      swap1\n      dup2\n      tag_128\n      swap2\n      swap1\n      tag_129\n      jump\t// in\n    tag_128:\n      pop\n        /* \"contracts/erc20base.sol\":2004:2011  _quorum */\n      dup3\n        /* \"contracts/erc20base.sol\":1986:1994  newIssue */\n      dup2\n        /* \"contracts/erc20base.sol\":1986:2001  newIssue.quorum */\n      0x07\n      add\n        /* \"contracts/erc20base.sol\":1986:2011  newIssue.quorum = _quorum */\n      dup2\n      swap1\n      sstore\n      pop\n        /* \"contracts/erc20base.sol\":2041:2042  0 */\n      0x00\n        /* \"contracts/erc20base.sol\":2021:2029  newIssue */\n      dup2\n        /* \"contracts/erc20base.sol\":2021:2038  newIssue.votesFor */\n      0x03\n      add\n        /* \"contracts/erc20base.sol\":2021:2042  newIssue.votesFor = 0 */\n      dup2\n      swap1\n      sstore\n      pop\n        /* \"contracts/erc20base.sol\":2076:2077  0 */\n      0x00\n        /* \"contracts/erc20base.sol\":2052:2060  newIssue */\n      dup2\n        /* \"contracts/erc20base.sol\":2052:2073  newIssue.votesAgainst */\n      0x04\n      add\n        /* \"contracts/erc20base.sol\":2052:2077  newIssue.votesAgainst = 0 */\n      dup2\n      swap1\n      sstore\n      pop\n        /* \"contracts/erc20base.sol\":2111:2112  0 */\n      0x00\n        /* \"contracts/erc20base.sol\":2087:2095  newIssue */\n      dup2\n        /* \"contracts/erc20base.sol\":2087:2108  newIssue.votesAbstain */\n      0x05\n      add\n        /* \"contracts/erc20base.sol\":2087:2112  newIssue.votesAbstain = 0 */\n      dup2\n      swap1\n      sstore\n      pop\n        /* \"contracts/erc20base.sol\":2144:2145  0 */\n      0x00\n        /* \"contracts/erc20base.sol\":2122:2130  newIssue */\n      dup2\n        /* \"contracts/erc20base.sol\":2122:2141  newIssue.totalVotes */\n      0x06\n      add\n        /* \"contracts/erc20base.sol\":2122:2145  newIssue.totalVotes = 0 */\n      dup2\n      swap1\n      sstore\n      pop\n        /* \"contracts/erc20base.sol\":2173:2178  false */\n      0x00\n        /* \"contracts/erc20base.sol\":2155:2163  newIssue */\n      dup2\n        /* \"contracts/erc20base.sol\":2155:2170  newIssue.passed */\n      0x08\n      add\n      0x00\n        /* \"contracts/erc20base.sol\":2155:2178  newIssue.passed = false */\n      0x0100\n      exp\n      dup2\n      sload\n      dup2\n      0xff\n      mul\n      not\n      and\n      swap1\n      dup4\n      iszero\n      iszero\n      mul\n      or\n      swap1\n      sstore\n      pop\n        /* \"contracts/erc20base.sol\":2206:2211  false */\n      0x00\n        /* \"contracts/erc20base.sol\":2188:2196  newIssue */\n      dup2\n        /* \"contracts/erc20base.sol\":2188:2203  newIssue.closed */\n      0x08\n      add\n      0x01\n        /* \"contracts/erc20base.sol\":2188:2211  newIssue.closed = false */\n      0x0100\n      exp\n      dup2\n      sload\n      dup2\n      0xff\n      mul\n      not\n      and\n      swap1\n      dup4\n      iszero\n      iszero\n      mul\n      or\n      swap1\n      sstore\n      pop\n        /* \"contracts/erc20base.sol\":2245:2246  1 */\n      0x01\n        /* \"contracts/erc20base.sol\":2229:2235  issues */\n      0x06\n        /* \"contracts/erc20base.sol\":2229:2242  issues.length */\n      dup1\n      sload\n      swap1\n      pop\n        /* \"contracts/erc20base.sol\":2229:2246  issues.length - 1 */\n      tag_130\n      swap2\n      swap1\n      tag_123\n      jump\t// in\n    tag_130:\n        /* \"contracts/erc20base.sol\":2222:2246  return issues.length - 1 */\n      swap2\n      pop\n      pop\n        /* \"contracts/erc20base.sol\":1619:2253  function createIssue(string memory _issueDesc, uint256 _quorum)... */\n      swap3\n      swap2\n      pop\n      pop\n      jump\t// out\n        /* \"contracts/erc20base.sol\":2787:3545  function vote(uint256 _issueId, Vote _vote) external {... */\n    tag_58:\n        /* \"contracts/erc20base.sol\":2850:2869  Issue storage issue */\n      0x00\n        /* \"contracts/erc20base.sol\":2872:2878  issues */\n      0x06\n        /* \"contracts/erc20base.sol\":2879:2887  _issueId */\n      dup4\n        /* \"contracts/erc20base.sol\":2872:2888  issues[_issueId] */\n      dup2\n      sload\n      dup2\n      lt\n      tag_132\n      jumpi\n      tag_133\n      tag_126\n      jump\t// in\n    tag_133:\n    tag_132:\n      swap1\n      0x00\n      mstore\n      keccak256(0x00, 0x20)\n      swap1\n      0x09\n      mul\n      add\n        /* \"contracts/erc20base.sol\":2850:2888  Issue storage issue = issues[_issueId] */\n      swap1\n      pop\n        /* \"contracts/erc20base.sol\":2903:2908  issue */\n      dup1\n        /* \"contracts/erc20base.sol\":2903:2915  issue.closed */\n      0x08\n      add\n      0x01\n      swap1\n      sload\n      swap1\n      0x0100\n      exp\n      swap1\n      div\n      0xff\n      and\n        /* \"contracts/erc20base.sol\":2899:2938  if (issue.closed) revert VotingClosed() */\n      iszero\n      tag_135\n      jumpi\n        /* \"contracts/erc20base.sol\":2924:2938  VotingClosed() */\n      mload(0x40)\n      0x66b6cb4a00000000000000000000000000000000000000000000000000000000\n      dup2\n      mstore\n      0x04\n      add\n      mload(0x40)\n      dup1\n      swap2\n      sub\n      swap1\n      revert\n        /* \"contracts/erc20base.sol\":2899:2938  if (issue.closed) revert VotingClosed() */\n    tag_135:\n        /* \"contracts/erc20base.sol\":2952:2985  issue.voters.contains(msg.sender) */\n      tag_136\n        /* \"contracts/erc20base.sol\":2974:2984  msg.sender */\n      caller\n        /* \"contracts/erc20base.sol\":2952:2957  issue */\n      dup3\n        /* \"contracts/erc20base.sol\":2952:2964  issue.voters */\n      0x00\n      add\n        /* \"contracts/erc20base.sol\":2952:2973  issue.voters.contains */\n      tag_137\n      swap1\n        /* \"contracts/erc20base.sol\":2952:2985  issue.voters.contains(msg.sender) */\n      swap2\n      swap1\n      0xffffffff\n      and\n      jump\t// in\n    tag_136:\n        /* \"contracts/erc20base.sol\":2948:3008  if (issue.voters.contains(msg.sender)) revert AlreadyVoted() */\n      iszero\n      tag_138\n      jumpi\n        /* \"contracts/erc20base.sol\":2994:3008  AlreadyVoted() */\n      mload(0x40)\n      0x7c9a1cf900000000000000000000000000000000000000000000000000000000\n      dup2\n      mstore\n      0x04\n      add\n      mload(0x40)\n      dup1\n      swap2\n      sub\n      swap1\n      revert\n        /* \"contracts/erc20base.sol\":2948:3008  if (issue.voters.contains(msg.sender)) revert AlreadyVoted() */\n    tag_138:\n        /* \"contracts/erc20base.sol\":3018:3032  uint256 weight */\n      0x00\n        /* \"contracts/erc20base.sol\":3035:3056  balanceOf(msg.sender) */\n      tag_139\n        /* \"contracts/erc20base.sol\":3045:3055  msg.sender */\n      caller\n        /* \"contracts/erc20base.sol\":3035:3044  balanceOf */\n      tag_48\n        /* \"contracts/erc20base.sol\":3035:3056  balanceOf(msg.sender) */\n      jump\t// in\n    tag_139:\n        /* \"contracts/erc20base.sol\":3018:3056  uint256 weight = balanceOf(msg.sender) */\n      swap1\n      pop\n        /* \"contracts/erc20base.sol\":3083:3084  0 */\n      0x00\n        /* \"contracts/erc20base.sol\":3074:3080  weight */\n      dup2\n        /* \"contracts/erc20base.sol\":3074:3084  weight > 0 */\n      gt\n        /* \"contracts/erc20base.sol\":3066:3106  require(weight > 0, \"No tokens to vote\") */\n      tag_140\n      jumpi\n      mload(0x40)\n      0x08c379a000000000000000000000000000000000000000000000000000000000\n      dup2\n      mstore\n      0x04\n      add\n      tag_141\n      swap1\n      tag_142\n      jump\t// in\n    tag_141:\n      mload(0x40)\n      dup1\n      swap2\n      sub\n      swap1\n      revert\n    tag_140:\n        /* \"contracts/erc20base.sol\":3117:3145  issue.voters.add(msg.sender) */\n      tag_143\n        /* \"contracts/erc20base.sol\":3134:3144  msg.sender */\n      caller\n        /* \"contracts/erc20base.sol\":3117:3122  issue */\n      dup4\n        /* \"contracts/erc20base.sol\":3117:3129  issue.voters */\n      0x00\n      add\n        /* \"contracts/erc20base.sol\":3117:3133  issue.voters.add */\n      tag_144\n      swap1\n        /* \"contracts/erc20base.sol\":3117:3145  issue.voters.add(msg.sender) */\n      swap2\n      swap1\n      0xffffffff\n      and\n      jump\t// in\n    tag_143:\n      pop\n        /* \"contracts/erc20base.sol\":3169:3177  Vote.FOR */\n      0x01\n        /* \"contracts/erc20base.sol\":3160:3177  _vote == Vote.FOR */\n      0x02\n      dup2\n      gt\n      iszero\n      tag_145\n      jumpi\n      tag_146\n      tag_147\n      jump\t// in\n    tag_146:\n    tag_145:\n        /* \"contracts/erc20base.sol\":3160:3165  _vote */\n      dup4\n        /* \"contracts/erc20base.sol\":3160:3177  _vote == Vote.FOR */\n      0x02\n      dup2\n      gt\n      iszero\n      tag_148\n      jumpi\n      tag_149\n      tag_147\n      jump\t// in\n    tag_149:\n    tag_148:\n      sub\n        /* \"contracts/erc20base.sol\":3156:3343  if (_vote == Vote.FOR) issue.votesFor += weight;... */\n      tag_150\n      jumpi\n        /* \"contracts/erc20base.sol\":3197:3203  weight */\n      dup1\n        /* \"contracts/erc20base.sol\":3179:3184  issue */\n      dup3\n        /* \"contracts/erc20base.sol\":3179:3193  issue.votesFor */\n      0x03\n      add\n      0x00\n        /* \"contracts/erc20base.sol\":3179:3203  issue.votesFor += weight */\n      dup3\n      dup3\n      sload\n      tag_151\n      swap2\n      swap1\n      tag_152\n      jump\t// in\n    tag_151:\n      swap3\n      pop\n      pop\n      dup2\n      swap1\n      sstore\n      pop\n        /* \"contracts/erc20base.sol\":3156:3343  if (_vote == Vote.FOR) issue.votesFor += weight;... */\n      jump(tag_153)\n    tag_150:\n        /* \"contracts/erc20base.sol\":3231:3243  Vote.AGAINST */\n      0x00\n        /* \"contracts/erc20base.sol\":3222:3243  _vote == Vote.AGAINST */\n      0x02\n      dup2\n      gt\n      iszero\n      tag_154\n      jumpi\n      tag_155\n      tag_147\n      jump\t// in\n    tag_155:\n    tag_154:\n        /* \"contracts/erc20base.sol\":3222:3227  _vote */\n      dup4\n        /* \"contracts/erc20base.sol\":3222:3243  _vote == Vote.AGAINST */\n      0x02\n      dup2\n      gt\n      iszero\n      tag_156\n      jumpi\n      tag_157\n      tag_147\n      jump\t// in\n    tag_157:\n    tag_156:\n      sub\n        /* \"contracts/erc20base.sol\":3218:3343  if (_vote == Vote.AGAINST) issue.votesAgainst += weight;... */\n      tag_158\n      jumpi\n        /* \"contracts/erc20base.sol\":3267:3273  weight */\n      dup1\n        /* \"contracts/erc20base.sol\":3245:3250  issue */\n      dup3\n        /* \"contracts/erc20base.sol\":3245:3263  issue.votesAgainst */\n      0x04\n      add\n      0x00\n        /* \"contracts/erc20base.sol\":3245:3273  issue.votesAgainst += weight */\n      dup3\n      dup3\n      sload\n      tag_159\n      swap2\n      swap1\n      tag_152\n      jump\t// in\n    tag_159:\n      swap3\n      pop\n      pop\n      dup2\n      swap1\n      sstore\n      pop\n        /* \"contracts/erc20base.sol\":3218:3343  if (_vote == Vote.AGAINST) issue.votesAgainst += weight;... */\n      jump(tag_160)\n    tag_158:\n        /* \"contracts/erc20base.sol\":3301:3313  Vote.ABSTAIN */\n      0x02\n        /* \"contracts/erc20base.sol\":3292:3313  _vote == Vote.ABSTAIN */\n      dup1\n      dup2\n      gt\n      iszero\n      tag_161\n      jumpi\n      tag_162\n      tag_147\n      jump\t// in\n    tag_162:\n    tag_161:\n        /* \"contracts/erc20base.sol\":3292:3297  _vote */\n      dup4\n        /* \"contracts/erc20base.sol\":3292:3313  _vote == Vote.ABSTAIN */\n      0x02\n      dup2\n      gt\n      iszero\n      tag_163\n      jumpi\n      tag_164\n      tag_147\n      jump\t// in\n    tag_164:\n    tag_163:\n      sub\n        /* \"contracts/erc20base.sol\":3288:3343  if (_vote == Vote.ABSTAIN) issue.votesAbstain += weight */\n      tag_165\n      jumpi\n        /* \"contracts/erc20base.sol\":3337:3343  weight */\n      dup1\n        /* \"contracts/erc20base.sol\":3315:3320  issue */\n      dup3\n        /* \"contracts/erc20base.sol\":3315:3333  issue.votesAbstain */\n      0x05\n      add\n      0x00\n        /* \"contracts/erc20base.sol\":3315:3343  issue.votesAbstain += weight */\n      dup3\n      dup3\n      sload\n      tag_166\n      swap2\n      swap1\n      tag_152\n      jump\t// in\n    tag_166:\n      swap3\n      pop\n      pop\n      dup2\n      swap1\n      sstore\n      pop\n        /* \"contracts/erc20base.sol\":3288:3343  if (_vote == Vote.ABSTAIN) issue.votesAbstain += weight */\n    tag_165:\n        /* \"contracts/erc20base.sol\":3218:3343  if (_vote == Vote.AGAINST) issue.votesAgainst += weight;... */\n    tag_160:\n        /* \"contracts/erc20base.sol\":3156:3343  if (_vote == Vote.FOR) issue.votesFor += weight;... */\n    tag_153:\n        /* \"contracts/erc20base.sol\":3374:3380  weight */\n      dup1\n        /* \"contracts/erc20base.sol\":3354:3359  issue */\n      dup3\n        /* \"contracts/erc20base.sol\":3354:3370  issue.totalVotes */\n      0x06\n      add\n      0x00\n        /* \"contracts/erc20base.sol\":3354:3380  issue.totalVotes += weight */\n      dup3\n      dup3\n      sload\n      tag_167\n      swap2\n      swap1\n      tag_152\n      jump\t// in\n    tag_167:\n      swap3\n      pop\n      pop\n      dup2\n      swap1\n      sstore\n      pop\n        /* \"contracts/erc20base.sol\":3415:3420  issue */\n      dup2\n        /* \"contracts/erc20base.sol\":3415:3427  issue.quorum */\n      0x07\n      add\n      sload\n        /* \"contracts/erc20base.sol\":3395:3400  issue */\n      dup3\n        /* \"contracts/erc20base.sol\":3395:3411  issue.totalVotes */\n      0x06\n      add\n      sload\n        /* \"contracts/erc20base.sol\":3395:3427  issue.totalVotes >= issue.quorum */\n      lt\n        /* \"contracts/erc20base.sol\":3391:3539  if (issue.totalVotes >= issue.quorum) {... */\n      tag_168\n      jumpi\n        /* \"contracts/erc20base.sol\":3458:3462  true */\n      0x01\n        /* \"contracts/erc20base.sol\":3443:3448  issue */\n      dup3\n        /* \"contracts/erc20base.sol\":3443:3455  issue.closed */\n      0x08\n      add\n      0x01\n        /* \"contracts/erc20base.sol\":3443:3462  issue.closed = true */\n      0x0100\n      exp\n      dup2\n      sload\n      dup2\n      0xff\n      mul\n      not\n      and\n      swap1\n      dup4\n      iszero\n      iszero\n      mul\n      or\n      swap1\n      sstore\n      pop\n        /* \"contracts/erc20base.sol\":3509:3514  issue */\n      dup2\n        /* \"contracts/erc20base.sol\":3509:3527  issue.votesAgainst */\n      0x04\n      add\n      sload\n        /* \"contracts/erc20base.sol\":3492:3497  issue */\n      dup3\n        /* \"contracts/erc20base.sol\":3492:3506  issue.votesFor */\n      0x03\n      add\n      sload\n        /* \"contracts/erc20base.sol\":3492:3527  issue.votesFor > issue.votesAgainst */\n      gt\n        /* \"contracts/erc20base.sol\":3476:3481  issue */\n      dup3\n        /* \"contracts/erc20base.sol\":3476:3488  issue.passed */\n      0x08\n      add\n      0x00\n        /* \"contracts/erc20base.sol\":3476:3528  issue.passed = (issue.votesFor > issue.votesAgainst) */\n      0x0100\n      exp\n      dup2\n      sload\n      dup2\n      0xff\n      mul\n      not\n      and\n      swap1\n      dup4\n      iszero\n      iszero\n      mul\n      or\n      swap1\n      sstore\n      pop\n        /* \"contracts/erc20base.sol\":3391:3539  if (issue.totalVotes >= issue.quorum) {... */\n    tag_168:\n        /* \"contracts/erc20base.sol\":2840:3545  {... */\n      pop\n      pop\n        /* \"contracts/erc20base.sol\":2787:3545  function vote(uint256 _issueId, Vote _vote) external {... */\n      pop\n      pop\n      jump\t// out\n        /* \"https://github.com/OpenZeppelin/openzeppelin-contracts/blob/master/contracts/token/ERC20/ERC20.sol\":1981:2074  function symbol() public view virtual returns (string memory) {... */\n    tag_60:\n        /* \"https://github.com/OpenZeppelin/openzeppelin-contracts/blob/master/contracts/token/ERC20/ERC20.sol\":2028:2041  string memory */\n      0x60\n        /* \"https://github.com/OpenZeppelin/openzeppelin-contracts/blob/master/contracts/token/ERC20/ERC20.sol\":2060:2067  _symbol */\n      0x04\n        /* \"https://github.com/OpenZeppelin/openzeppelin-contracts/blob/master/contracts/token/ERC20/ERC20.sol\":2053:2067  return _symbol */\n      dup1\n      sload\n      tag_170\n      swap1\n      tag_82\n      jump\t// in\n    tag_170:\n      dup1\n      0x1f\n      add\n      0x20\n      dup1\n      swap2\n      div\n      mul\n      0x20\n      add\n      mload(0x40)\n      swap1\n      dup2\n      add\n      0x40\n      mstore\n      dup1\n      swap3\n      swap2\n      swap1\n      dup2\n      dup2\n      mstore\n      0x20\n      add\n      dup3\n      dup1\n      sload\n      tag_171\n      swap1\n      tag_82\n      jump\t// in\n    tag_171:\n      dup1\n      iszero\n      tag_172\n      jumpi\n      dup1\n      0x1f\n      lt\n      tag_173\n      jumpi\n      0x0100\n      dup1\n      dup4\n      sload\n      div\n      mul\n      dup4\n      mstore\n      swap2\n      0x20\n      add\n      swap2\n      jump(tag_172)\n    tag_173:\n      dup3\n      add\n      swap2\n      swap1\n      0x00\n      mstore\n      keccak256(0x00, 0x20)\n      swap1\n    tag_174:\n      dup2\n      sload\n      dup2\n      mstore\n      swap1\n      0x01\n      add\n      swap1\n      0x20\n      add\n      dup1\n      dup4\n      gt\n      tag_174\n      jumpi\n      dup3\n      swap1\n      sub\n      0x1f\n      and\n      dup3\n      add\n      swap2\n    tag_172:\n      pop\n      pop\n      pop\n      pop\n      pop\n      swap1\n      pop\n        /* \"https://github.com/OpenZeppelin/openzeppelin-contracts/blob/master/contracts/token/ERC20/ERC20.sol\":1981:2074  function symbol() public view virtual returns (string memory) {... */\n      swap1\n      jump\t// out\n        /* \"contracts/erc20base.sol\":2259:2781  function getIssue(uint256 _id) external view returns (IssueView memory) {... */\n    tag_65:\n        /* \"contracts/erc20base.sol\":2313:2329  IssueView memory */\n      tag_175\n      tag_176\n      jump\t// in\n    tag_175:\n        /* \"contracts/erc20base.sol\":2341:2360  Issue storage issue */\n      0x00\n        /* \"contracts/erc20base.sol\":2363:2369  issues */\n      0x06\n        /* \"contracts/erc20base.sol\":2370:2373  _id */\n      dup4\n        /* \"contracts/erc20base.sol\":2363:2374  issues[_id] */\n      dup2\n      sload\n      dup2\n      lt\n      tag_178\n      jumpi\n      tag_179\n      tag_126\n      jump\t// in\n    tag_179:\n    tag_178:\n      swap1\n      0x00\n      mstore\n      keccak256(0x00, 0x20)\n      swap1\n      0x09\n      mul\n      add\n        /* \"contracts/erc20base.sol\":2341:2374  Issue storage issue = issues[_id] */\n      swap1\n      pop\n        /* \"contracts/erc20base.sol\":2403:2774  IssueView({... */\n      mload(0x40)\n      dup1\n      0x0100\n      add\n      0x40\n      mstore\n      dup1\n        /* \"contracts/erc20base.sol\":2442:2447  issue */\n      dup3\n        /* \"contracts/erc20base.sol\":2442:2457  issue.issueDesc */\n      0x02\n      add\n        /* \"contracts/erc20base.sol\":2403:2774  IssueView({... */\n      dup1\n      sload\n      tag_181\n      swap1\n      tag_82\n      jump\t// in\n    tag_181:\n      dup1\n      0x1f\n      add\n      0x20\n      dup1\n      swap2\n      div\n      mul\n      0x20\n      add\n      mload(0x40)\n      swap1\n      dup2\n      add\n      0x40\n      mstore\n      dup1\n      swap3\n      swap2\n      swap1\n      dup2\n      dup2\n      mstore\n      0x20\n      add\n      dup3\n      dup1\n      sload\n      tag_182\n      swap1\n      tag_82\n      jump\t// in\n    tag_182:\n      dup1\n      iszero\n      tag_183\n      jumpi\n      dup1\n      0x1f\n      lt\n      tag_184\n      jumpi\n      0x0100\n      dup1\n      dup4\n      sload\n      div\n      mul\n      dup4\n      mstore\n      swap2\n      0x20\n      add\n      swap2\n      jump(tag_183)\n    tag_184:\n      dup3\n      add\n      swap2\n      swap1\n      0x00\n      mstore\n      keccak256(0x00, 0x20)\n      swap1\n    tag_185:\n      dup2\n      sload\n      dup2\n      mstore\n      swap1\n      0x01\n      add\n      swap1\n      0x20\n      add\n      dup1\n      dup4\n      gt\n      tag_185\n      jumpi\n      dup3\n      swap1\n      sub\n      0x1f\n      and\n      dup3\n      add\n      swap2\n    tag_183:\n      pop\n      pop\n      pop\n      pop\n      pop\n      dup2\n      mstore\n      0x20\n      add\n        /* \"contracts/erc20base.sol\":2485:2490  issue */\n      dup3\n        /* \"contracts/erc20base.sol\":2485:2499  issue.votesFor */\n      0x03\n      add\n      sload\n        /* \"contracts/erc20base.sol\":2403:2774  IssueView({... */\n      dup2\n      mstore\n      0x20\n      add\n        /* \"contracts/erc20base.sol\":2531:2536  issue */\n      dup3\n        /* \"contracts/erc20base.sol\":2531:2549  issue.votesAgainst */\n      0x04\n      add\n      sload\n        /* \"contracts/erc20base.sol\":2403:2774  IssueView({... */\n      dup2\n      mstore\n      0x20\n      add\n        /* \"contracts/erc20base.sol\":2581:2586  issue */\n      dup3\n        /* \"contracts/erc20base.sol\":2581:2599  issue.votesAbstain */\n      0x05\n      add\n      sload\n        /* \"contracts/erc20base.sol\":2403:2774  IssueView({... */\n      dup2\n      mstore\n      0x20\n      add\n        /* \"contracts/erc20base.sol\":2629:2634  issue */\n      dup3\n        /* \"contracts/erc20base.sol\":2629:2645  issue.totalVotes */\n      0x06\n      add\n      sload\n        /* \"contracts/erc20base.sol\":2403:2774  IssueView({... */\n      dup2\n      mstore\n      0x20\n      add\n        /* \"contracts/erc20base.sol\":2671:2676  issue */\n      dup3\n        /* \"contracts/erc20base.sol\":2671:2683  issue.quorum */\n      0x07\n      add\n      sload\n        /* \"contracts/erc20base.sol\":2403:2774  IssueView({... */\n      dup2\n      mstore\n      0x20\n      add\n        /* \"contracts/erc20base.sol\":2709:2714  issue */\n      dup3\n        /* \"contracts/erc20base.sol\":2709:2721  issue.passed */\n      0x08\n      add\n      0x00\n      swap1\n      sload\n      swap1\n      0x0100\n      exp\n      swap1\n      div\n      0xff\n      and\n        /* \"contracts/erc20base.sol\":2403:2774  IssueView({... */\n      iszero\n      iszero\n      dup2\n      mstore\n      0x20\n      add\n        /* \"contracts/erc20base.sol\":2747:2752  issue */\n      dup3\n        /* \"contracts/erc20base.sol\":2747:2759  issue.closed */\n      0x08\n      add\n      0x01\n      swap1\n      sload\n      swap1\n      0x0100\n      exp\n      swap1\n      div\n      0xff\n      and\n        /* \"contracts/erc20base.sol\":2403:2774  IssueView({... */\n      iszero\n      iszero\n      dup2\n      mstore\n      pop\n        /* \"contracts/erc20base.sol\":2384:2774  return... */\n      swap2\n      pop\n      pop\n        /* \"contracts/erc20base.sol\":2259:2781  function getIssue(uint256 _id) external view returns (IssueView memory) {... */\n      swap2\n      swap1\n      pop\n      jump\t// out\n        /* \"https://github.com/OpenZeppelin/openzeppelin-contracts/blob/master/contracts/token/ERC20/ERC20.sol\":3315:3493  function transfer(address to, uint256 value) public virtual returns (bool) {... */\n    tag_70:\n        /* \"https://github.com/OpenZeppelin/openzeppelin-contracts/blob/master/contracts/token/ERC20/ERC20.sol\":3384:3388  bool */\n      0x00\n        /* \"https://github.com/OpenZeppelin/openzeppelin-contracts/blob/master/contracts/token/ERC20/ERC20.sol\":3400:3413  address owner */\n      dup1\n        /* \"https://github.com/OpenZeppelin/openzeppelin-contracts/blob/master/contracts/token/ERC20/ERC20.sol\":3416:3428  _msgSender() */\n      tag_187\n        /* \"https://github.com/OpenZeppelin/openzeppelin-contracts/blob/master/contracts/token/ERC20/ERC20.sol\":3416:3426  _msgSender */\n      tag_89\n        /* \"https://github.com/OpenZeppelin/openzeppelin-contracts/blob/master/contracts/token/ERC20/ERC20.sol\":3416:3428  _msgSender() */\n      jump\t// in\n    tag_187:\n        /* \"https://github.com/OpenZeppelin/openzeppelin-contracts/blob/master/contracts/token/ERC20/ERC20.sol\":3400:3428  address owner = _msgSender() */\n      swap1\n      pop\n        /* \"https://github.com/OpenZeppelin/openzeppelin-contracts/blob/master/contracts/token/ERC20/ERC20.sol\":3438:3465  _transfer(owner, to, value) */\n      tag_188\n        /* \"https://github.com/OpenZeppelin/openzeppelin-contracts/blob/master/contracts/token/ERC20/ERC20.sol\":3448:3453  owner */\n      dup2\n        /* \"https://github.com/OpenZeppelin/openzeppelin-contracts/blob/master/contracts/token/ERC20/ERC20.sol\":3455:3457  to */\n      dup6\n        /* \"https://github.com/OpenZeppelin/openzeppelin-contracts/blob/master/contracts/token/ERC20/ERC20.sol\":3459:3464  value */\n      dup6\n        /* \"https://github.com/OpenZeppelin/openzeppelin-contracts/blob/master/contracts/token/ERC20/ERC20.sol\":3438:3447  _transfer */\n      tag_98\n        /* \"https://github.com/OpenZeppelin/openzeppelin-contracts/blob/master/contracts/token/ERC20/ERC20.sol\":3438:3465  _transfer(owner, to, value) */\n      jump\t// in\n    tag_188:\n        /* \"https://github.com/OpenZeppelin/openzeppelin-contracts/blob/master/contracts/token/ERC20/ERC20.sol\":3482:3486  true */\n      0x01\n        /* \"https://github.com/OpenZeppelin/openzeppelin-contracts/blob/master/contracts/token/ERC20/ERC20.sol\":3475:3486  return true */\n      swap2\n      pop\n      pop\n        /* \"https://github.com/OpenZeppelin/openzeppelin-contracts/blob/master/contracts/token/ERC20/ERC20.sol\":3315:3493  function transfer(address to, uint256 value) public virtual returns (bool) {... */\n      swap3\n      swap2\n      pop\n      pop\n      jump\t// out\n        /* \"contracts/erc20base.sol\":381:436  uint256 public maxSupply = 1_000_000 * (10**decimals()) */\n    tag_73:\n      sload(0x05)\n      dup2\n      jump\t// out\n        /* \"https://github.com/OpenZeppelin/openzeppelin-contracts/blob/master/contracts/token/ERC20/ERC20.sol\":3551:3691  function allowance(address owner, address spender) public view virtual returns (uint256) {... */\n    tag_78:\n        /* \"https://github.com/OpenZeppelin/openzeppelin-contracts/blob/master/contracts/token/ERC20/ERC20.sol\":3631:3638  uint256 */\n      0x00\n        /* \"https://github.com/OpenZeppelin/openzeppelin-contracts/blob/master/contracts/token/ERC20/ERC20.sol\":3657:3668  _allowances */\n      0x01\n        /* \"https://github.com/OpenZeppelin/openzeppelin-contracts/blob/master/contracts/token/ERC20/ERC20.sol\":3657:3675  _allowances[owner] */\n      0x00\n        /* \"https://github.com/OpenZeppelin/openzeppelin-contracts/blob/master/contracts/token/ERC20/ERC20.sol\":3669:3674  owner */\n      dup5\n        /* \"https://github.com/OpenZeppelin/openzeppelin-contracts/blob/master/contracts/token/ERC20/ERC20.sol\":3657:3675  _allowances[owner] */\n      0xffffffffffffffffffffffffffffffffffffffff\n      and\n      0xffffffffffffffffffffffffffffffffffffffff\n      and\n      dup2\n      mstore\n      0x20\n      add\n      swap1\n      dup2\n      mstore\n      0x20\n      add\n      0x00\n      keccak256\n        /* \"https://github.com/OpenZeppelin/openzeppelin-contracts/blob/master/contracts/token/ERC20/ERC20.sol\":3657:3684  _allowances[owner][spender] */\n      0x00\n        /* \"https://github.com/OpenZeppelin/openzeppelin-contracts/blob/master/contracts/token/ERC20/ERC20.sol\":3676:3683  spender */\n      dup4\n        /* \"https://github.com/OpenZeppelin/openzeppelin-contracts/blob/master/contracts/token/ERC20/ERC20.sol\":3657:3684  _allowances[owner][spender] */\n      0xffffffffffffffffffffffffffffffffffffffff\n      and\n      0xffffffffffffffffffffffffffffffffffffffff\n      and\n      dup2\n      mstore\n      0x20\n      add\n      swap1\n      dup2\n      mstore\n      0x20\n      add\n      0x00\n      keccak256\n      sload\n        /* \"https://github.com/OpenZeppelin/openzeppelin-contracts/blob/master/contracts/token/ERC20/ERC20.sol\":3650:3684  return _allowances[owner][spender] */\n      swap1\n      pop\n        /* \"https://github.com/OpenZeppelin/openzeppelin-contracts/blob/master/contracts/token/ERC20/ERC20.sol\":3551:3691  function allowance(address owner, address spender) public view virtual returns (uint256) {... */\n      swap3\n      swap2\n      pop\n      pop\n      jump\t// out\n        /* \"https://github.com/OpenZeppelin/openzeppelin-contracts/blob/master/contracts/utils/Context.sol\":656:752  function _msgSender() internal view virtual returns (address) {... */\n    tag_89:\n        /* \"https://github.com/OpenZeppelin/openzeppelin-contracts/blob/master/contracts/utils/Context.sol\":709:716  address */\n      0x00\n        /* \"https://github.com/OpenZeppelin/openzeppelin-contracts/blob/master/contracts/utils/Context.sol\":735:745  msg.sender */\n      caller\n        /* \"https://github.com/OpenZeppelin/openzeppelin-contracts/blob/master/contracts/utils/Context.sol\":728:745  return msg.sender */\n      swap1\n      pop\n        /* \"https://github.com/OpenZeppelin/openzeppelin-contracts/blob/master/contracts/utils/Context.sol\":656:752  function _msgSender() internal view virtual returns (address) {... */\n      swap1\n      jump\t// out\n        /* \"https://github.com/OpenZeppelin/openzeppelin-contracts/blob/master/contracts/token/ERC20/ERC20.sol\":8726:8854  function _approve(address owner, address spender, uint256 value) internal {... */\n    tag_91:\n        /* \"https://github.com/OpenZeppelin/openzeppelin-contracts/blob/master/contracts/token/ERC20/ERC20.sol\":8810:8847  _approve(owner, spender, value, true) */\n      tag_192\n        /* \"https://github.com/OpenZeppelin/openzeppelin-contracts/blob/master/contracts/token/ERC20/ERC20.sol\":8819:8824  owner */\n      dup4\n        /* \"https://github.com/OpenZeppelin/openzeppelin-contracts/blob/master/contracts/token/ERC20/ERC20.sol\":8826:8833  spender */\n      dup4\n        /* \"https://github.com/OpenZeppelin/openzeppelin-contracts/blob/master/contracts/token/ERC20/ERC20.sol\":8835:8840  value */\n      dup4\n        /* \"https://github.com/OpenZeppelin/openzeppelin-contracts/blob/master/contracts/token/ERC20/ERC20.sol\":8842:8846  true */\n      0x01\n        /* \"https://github.com/OpenZeppelin/openzeppelin-contracts/blob/master/contracts/token/ERC20/ERC20.sol\":8810:8818  _approve */\n      tag_193\n        /* \"https://github.com/OpenZeppelin/openzeppelin-contracts/blob/master/contracts/token/ERC20/ERC20.sol\":8810:8847  _approve(owner, spender, value, true) */\n      jump\t// in\n    tag_192:\n        /* \"https://github.com/OpenZeppelin/openzeppelin-contracts/blob/master/contracts/token/ERC20/ERC20.sol\":8726:8854  function _approve(address owner, address spender, uint256 value) internal {... */\n      pop\n      pop\n      pop\n      jump\t// out\n        /* \"https://github.com/OpenZeppelin/openzeppelin-contracts/blob/master/contracts/token/ERC20/ERC20.sol\":10415:10891  function _spendAllowance(address owner, address spender, uint256 value) internal virtual {... */\n    tag_96:\n        /* \"https://github.com/OpenZeppelin/openzeppelin-contracts/blob/master/contracts/token/ERC20/ERC20.sol\":10514:10538  uint256 currentAllowance */\n      0x00\n        /* \"https://github.com/OpenZeppelin/openzeppelin-contracts/blob/master/contracts/token/ERC20/ERC20.sol\":10541:10566  allowance(owner, spender) */\n      tag_195\n        /* \"https://github.com/OpenZeppelin/openzeppelin-contracts/blob/master/contracts/token/ERC20/ERC20.sol\":10551:10556  owner */\n      dup5\n        /* \"https://github.com/OpenZeppelin/openzeppelin-contracts/blob/master/contracts/token/ERC20/ERC20.sol\":10558:10565  spender */\n      dup5\n        /* \"https://github.com/OpenZeppelin/openzeppelin-contracts/blob/master/contracts/token/ERC20/ERC20.sol\":10541:10550  allowance */\n      tag_78\n        /* \"https://github.com/OpenZeppelin/openzeppelin-contracts/blob/master/contracts/token/ERC20/ERC20.sol\":10541:10566  allowance(owner, spender) */\n      jump\t// in\n    tag_195:\n        /* \"https://github.com/OpenZeppelin/openzeppelin-contracts/blob/master/contracts/token/ERC20/ERC20.sol\":10514:10566  uint256 currentAllowance = allowance(owner, spender) */\n      swap1\n      pop\n        /* \"https://github.com/OpenZeppelin/openzeppelin-contracts/blob/master/contracts/token/ERC20/ERC20.sol\":10599:10616  type(uint256).max */\n      0xffffffffffffffffffffffffffffffffffffffffffffffffffffffffffffffff\n        /* \"https://github.com/OpenZeppelin/openzeppelin-contracts/blob/master/contracts/token/ERC20/ERC20.sol\":10580:10596  currentAllowance */\n      dup2\n        /* \"https://github.com/OpenZeppelin/openzeppelin-contracts/blob/master/contracts/token/ERC20/ERC20.sol\":10580:10616  currentAllowance < type(uint256).max */\n      lt\n        /* \"https://github.com/OpenZeppelin/openzeppelin-contracts/blob/master/contracts/token/ERC20/ERC20.sol\":10576:10885  if (currentAllowance < type(uint256).max) {... */\n      iszero\n      tag_196\n      jumpi\n        /* \"https://github.com/OpenZeppelin/openzeppelin-contracts/blob/master/contracts/token/ERC20/ERC20.sol\":10655:10660  value */\n      dup2\n        /* \"https://github.com/OpenZeppelin/openzeppelin-contracts/blob/master/contracts/token/ERC20/ERC20.sol\":10636:10652  currentAllowance */\n      dup2\n        /* \"https://github.com/OpenZeppelin/openzeppelin-contracts/blob/master/contracts/token/ERC20/ERC20.sol\":10636:10660  currentAllowance < value */\n      lt\n        /* \"https://github.com/OpenZeppelin/openzeppelin-contracts/blob/master/contracts/token/ERC20/ERC20.sol\":10632:10762  if (currentAllowance < value) {... */\n      iszero\n      tag_197\n      jumpi\n        /* \"https://github.com/OpenZeppelin/openzeppelin-contracts/blob/master/contracts/token/ERC20/ERC20.sol\":10714:10721  spender */\n      dup3\n        /* \"https://github.com/OpenZeppelin/openzeppelin-contracts/blob/master/contracts/token/ERC20/ERC20.sol\":10723:10739  currentAllowance */\n      dup2\n        /* \"https://github.com/OpenZeppelin/openzeppelin-contracts/blob/master/contracts/token/ERC20/ERC20.sol\":10741:10746  value */\n      dup4\n        /* \"https://github.com/OpenZeppelin/openzeppelin-contracts/blob/master/contracts/token/ERC20/ERC20.sol\":10687:10747  ERC20InsufficientAllowance(spender, currentAllowance, value) */\n      mload(0x40)\n      0xfb8f41b200000000000000000000000000000000000000000000000000000000\n      dup2\n      mstore\n      0x04\n      add\n      tag_198\n      swap4\n      swap3\n      swap2\n      swap1\n      tag_199\n      jump\t// in\n    tag_198:\n      mload(0x40)\n      dup1\n      swap2\n      sub\n      swap1\n      revert\n        /* \"https://github.com/OpenZeppelin/openzeppelin-contracts/blob/master/contracts/token/ERC20/ERC20.sol\":10632:10762  if (currentAllowance < value) {... */\n    tag_197:\n        /* \"https://github.com/OpenZeppelin/openzeppelin-contracts/blob/master/contracts/token/ERC20/ERC20.sol\":10803:10860  _approve(owner, spender, currentAllowance - value, false) */\n      tag_200\n        /* \"https://github.com/OpenZeppelin/openzeppelin-contracts/blob/master/contracts/token/ERC20/ERC20.sol\":10812:10817  owner */\n      dup5\n        /* \"https://github.com/OpenZeppelin/openzeppelin-contracts/blob/master/contracts/token/ERC20/ERC20.sol\":10819:10826  spender */\n      dup5\n        /* \"https://github.com/OpenZeppelin/openzeppelin-contracts/blob/master/contracts/token/ERC20/ERC20.sol\":10847:10852  value */\n      dup5\n        /* \"https://github.com/OpenZeppelin/openzeppelin-contracts/blob/master/contracts/token/ERC20/ERC20.sol\":10828:10844  currentAllowance */\n      dup5\n        /* \"https://github.com/OpenZeppelin/openzeppelin-contracts/blob/master/contracts/token/ERC20/ERC20.sol\":10828:10852  currentAllowance - value */\n      sub\n        /* \"https://github.com/OpenZeppelin/openzeppelin-contracts/blob/master/contracts/token/ERC20/ERC20.sol\":10854:10859  false */\n      0x00\n        /* \"https://github.com/OpenZeppelin/openzeppelin-contracts/blob/master/contracts/token/ERC20/ERC20.sol\":10803:10811  _approve */\n      tag_193\n        /* \"https://github.com/OpenZeppelin/openzeppelin-contracts/blob/master/contracts/token/ERC20/ERC20.sol\":10803:10860  _approve(owner, spender, currentAllowance - value, false) */\n      jump\t// in\n    tag_200:\n        /* \"https://github.com/OpenZeppelin/openzeppelin-contracts/blob/master/contracts/token/ERC20/ERC20.sol\":10576:10885  if (currentAllowance < type(uint256).max) {... */\n    tag_196:\n        /* \"https://github.com/OpenZeppelin/openzeppelin-contracts/blob/master/contracts/token/ERC20/ERC20.sol\":10504:10891  {... */\n      pop\n        /* \"https://github.com/OpenZeppelin/openzeppelin-contracts/blob/master/contracts/token/ERC20/ERC20.sol\":10415:10891  function _spendAllowance(address owner, address spender, uint256 value) internal virtual {... */\n      pop\n      pop\n      pop\n      jump\t// out\n        /* \"https://github.com/OpenZeppelin/openzeppelin-contracts/blob/master/contracts/token/ERC20/ERC20.sol\":5393:5693  function _transfer(address from, address to, uint256 value) internal {... */\n    tag_98:\n        /* \"https://github.com/OpenZeppelin/openzeppelin-contracts/blob/master/contracts/token/ERC20/ERC20.sol\":5492:5493  0 */\n      0x00\n        /* \"https://github.com/OpenZeppelin/openzeppelin-contracts/blob/master/contracts/token/ERC20/ERC20.sol\":5476:5494  from == address(0) */\n      0xffffffffffffffffffffffffffffffffffffffff\n      and\n        /* \"https://github.com/OpenZeppelin/openzeppelin-contracts/blob/master/contracts/token/ERC20/ERC20.sol\":5476:5480  from */\n      dup4\n        /* \"https://github.com/OpenZeppelin/openzeppelin-contracts/blob/master/contracts/token/ERC20/ERC20.sol\":5476:5494  from == address(0) */\n      0xffffffffffffffffffffffffffffffffffffffff\n      and\n      sub\n        /* \"https://github.com/OpenZeppelin/openzeppelin-contracts/blob/master/contracts/token/ERC20/ERC20.sol\":5472:5558  if (from == address(0)) {... */\n      tag_202\n      jumpi\n        /* \"https://github.com/OpenZeppelin/openzeppelin-contracts/blob/master/contracts/token/ERC20/ERC20.sol\":5544:5545  0 */\n      0x00\n        /* \"https://github.com/OpenZeppelin/openzeppelin-contracts/blob/master/contracts/token/ERC20/ERC20.sol\":5517:5547  ERC20InvalidSender(address(0)) */\n      mload(0x40)\n      0x96c6fd1e00000000000000000000000000000000000000000000000000000000\n      dup2\n      mstore\n      0x04\n      add\n      tag_203\n      swap2\n      swap1\n      tag_204\n      jump\t// in\n    tag_203:\n      mload(0x40)\n      dup1\n      swap2\n      sub\n      swap1\n      revert\n        /* \"https://github.com/OpenZeppelin/openzeppelin-contracts/blob/master/contracts/token/ERC20/ERC20.sol\":5472:5558  if (from == address(0)) {... */\n    tag_202:\n        /* \"https://github.com/OpenZeppelin/openzeppelin-contracts/blob/master/contracts/token/ERC20/ERC20.sol\":5585:5586  0 */\n      0x00\n        /* \"https://github.com/OpenZeppelin/openzeppelin-contracts/blob/master/contracts/token/ERC20/ERC20.sol\":5571:5587  to == address(0) */\n      0xffffffffffffffffffffffffffffffffffffffff\n      and\n        /* \"https://github.com/OpenZeppelin/openzeppelin-contracts/blob/master/contracts/token/ERC20/ERC20.sol\":5571:5573  to */\n      dup3\n        /* \"https://github.com/OpenZeppelin/openzeppelin-contracts/blob/master/contracts/token/ERC20/ERC20.sol\":5571:5587  to == address(0) */\n      0xffffffffffffffffffffffffffffffffffffffff\n      and\n      sub\n        /* \"https://github.com/OpenZeppelin/openzeppelin-contracts/blob/master/contracts/token/ERC20/ERC20.sol\":5567:5653  if (to == address(0)) {... */\n      tag_205\n      jumpi\n        /* \"https://github.com/OpenZeppelin/openzeppelin-contracts/blob/master/contracts/token/ERC20/ERC20.sol\":5639:5640  0 */\n      0x00\n        /* \"https://github.com/OpenZeppelin/openzeppelin-contracts/blob/master/contracts/token/ERC20/ERC20.sol\":5610:5642  ERC20InvalidReceiver(address(0)) */\n      mload(0x40)\n      0xec442f0500000000000000000000000000000000000000000000000000000000\n      dup2\n      mstore\n      0x04\n      add\n      tag_206\n      swap2\n      swap1\n      tag_204\n      jump\t// in\n    tag_206:\n      mload(0x40)\n      dup1\n      swap2\n      sub\n      swap1\n      revert\n        /* \"https://github.com/OpenZeppelin/openzeppelin-contracts/blob/master/contracts/token/ERC20/ERC20.sol\":5567:5653  if (to == address(0)) {... */\n    tag_205:\n        /* \"https://github.com/OpenZeppelin/openzeppelin-contracts/blob/master/contracts/token/ERC20/ERC20.sol\":5662:5686  _update(from, to, value) */\n      tag_207\n        /* \"https://github.com/OpenZeppelin/openzeppelin-contracts/blob/master/contracts/token/ERC20/ERC20.sol\":5670:5674  from */\n      dup4\n        /* \"https://github.com/OpenZeppelin/openzeppelin-contracts/blob/master/contracts/token/ERC20/ERC20.sol\":5676:5678  to */\n      dup4\n        /* \"https://github.com/OpenZeppelin/openzeppelin-contracts/blob/master/contracts/token/ERC20/ERC20.sol\":5680:5685  value */\n      dup4\n        /* \"https://github.com/OpenZeppelin/openzeppelin-contracts/blob/master/contracts/token/ERC20/ERC20.sol\":5662:5669  _update */\n      tag_208\n        /* \"https://github.com/OpenZeppelin/openzeppelin-contracts/blob/master/contracts/token/ERC20/ERC20.sol\":5662:5686  _update(from, to, value) */\n      jump\t// in\n    tag_207:\n        /* \"https://github.com/OpenZeppelin/openzeppelin-contracts/blob/master/contracts/token/ERC20/ERC20.sol\":5393:5693  function _transfer(address from, address to, uint256 value) internal {... */\n      pop\n      pop\n      pop\n      jump\t// out\n        /* \"https://github.com/OpenZeppelin/openzeppelin-contracts/blob/master/contracts/token/ERC20/ERC20.sol\":7458:7666  function _mint(address account, uint256 value) internal {... */\n    tag_110:\n        /* \"https://github.com/OpenZeppelin/openzeppelin-contracts/blob/master/contracts/token/ERC20/ERC20.sol\":7547:7548  0 */\n      0x00\n        /* \"https://github.com/OpenZeppelin/openzeppelin-contracts/blob/master/contracts/token/ERC20/ERC20.sol\":7528:7549  account == address(0) */\n      0xffffffffffffffffffffffffffffffffffffffff\n      and\n        /* \"https://github.com/OpenZeppelin/openzeppelin-contracts/blob/master/contracts/token/ERC20/ERC20.sol\":7528:7535  account */\n      dup3\n        /* \"https://github.com/OpenZeppelin/openzeppelin-contracts/blob/master/contracts/token/ERC20/ERC20.sol\":7528:7549  account == address(0) */\n      0xffffffffffffffffffffffffffffffffffffffff\n      and\n      sub\n        /* \"https://github.com/OpenZeppelin/openzeppelin-contracts/blob/master/contracts/token/ERC20/ERC20.sol\":7524:7615  if (account == address(0)) {... */\n      tag_210\n      jumpi\n        /* \"https://github.com/OpenZeppelin/openzeppelin-contracts/blob/master/contracts/token/ERC20/ERC20.sol\":7601:7602  0 */\n      0x00\n        /* \"https://github.com/OpenZeppelin/openzeppelin-contracts/blob/master/contracts/token/ERC20/ERC20.sol\":7572:7604  ERC20InvalidReceiver(address(0)) */\n      mload(0x40)\n      0xec442f0500000000000000000000000000000000000000000000000000000000\n      dup2\n      mstore\n      0x04\n      add\n      tag_211\n      swap2\n      swap1\n      tag_204\n      jump\t// in\n    tag_211:\n      mload(0x40)\n      dup1\n      swap2\n      sub\n      swap1\n      revert\n        /* \"https://github.com/OpenZeppelin/openzeppelin-contracts/blob/master/contracts/token/ERC20/ERC20.sol\":7524:7615  if (account == address(0)) {... */\n    tag_210:\n        /* \"https://github.com/OpenZeppelin/openzeppelin-contracts/blob/master/contracts/token/ERC20/ERC20.sol\":7624:7659  _update(address(0), account, value) */\n      tag_212\n        /* \"https://github.com/OpenZeppelin/openzeppelin-contracts/blob/master/contracts/token/ERC20/ERC20.sol\":7640:7641  0 */\n      0x00\n        /* \"https://github.com/OpenZeppelin/openzeppelin-contracts/blob/master/contracts/token/ERC20/ERC20.sol\":7644:7651  account */\n      dup4\n        /* \"https://github.com/OpenZeppelin/openzeppelin-contracts/blob/master/contracts/token/ERC20/ERC20.sol\":7653:7658  value */\n      dup4\n        /* \"https://github.com/OpenZeppelin/openzeppelin-contracts/blob/master/contracts/token/ERC20/ERC20.sol\":7624:7631  _update */\n      tag_208\n        /* \"https://github.com/OpenZeppelin/openzeppelin-contracts/blob/master/contracts/token/ERC20/ERC20.sol\":7624:7659  _update(address(0), account, value) */\n      jump\t// in\n    tag_212:\n        /* \"https://github.com/OpenZeppelin/openzeppelin-contracts/blob/master/contracts/token/ERC20/ERC20.sol\":7458:7666  function _mint(address account, uint256 value) internal {... */\n      pop\n      pop\n      jump\t// out\n        /* \"https://github.com/OpenZeppelin/openzeppelin-contracts/blob/master/contracts/utils/structs/EnumerableSet.sol\":8844:9009  function contains(AddressSet storage set, address value) internal view returns (bool) {... */\n    tag_137:\n        /* \"https://github.com/OpenZeppelin/openzeppelin-contracts/blob/master/contracts/utils/structs/EnumerableSet.sol\":8924:8928  bool */\n      0x00\n        /* \"https://github.com/OpenZeppelin/openzeppelin-contracts/blob/master/contracts/utils/structs/EnumerableSet.sol\":8947:9002  _contains(set._inner, bytes32(uint256(uint160(value)))) */\n      tag_214\n        /* \"https://github.com/OpenZeppelin/openzeppelin-contracts/blob/master/contracts/utils/structs/EnumerableSet.sol\":8957:8960  set */\n      dup4\n        /* \"https://github.com/OpenZeppelin/openzeppelin-contracts/blob/master/contracts/utils/structs/EnumerableSet.sol\":8957:8967  set._inner */\n      0x00\n      add\n        /* \"https://github.com/OpenZeppelin/openzeppelin-contracts/blob/master/contracts/utils/structs/EnumerableSet.sol\":8993:8998  value */\n      dup4\n        /* \"https://github.com/OpenZeppelin/openzeppelin-contracts/blob/master/contracts/utils/structs/EnumerableSet.sol\":8977:9000  uint256(uint160(value)) */\n      0xffffffffffffffffffffffffffffffffffffffff\n      and\n        /* \"https://github.com/OpenZeppelin/openzeppelin-contracts/blob/master/contracts/utils/structs/EnumerableSet.sol\":8969:9001  bytes32(uint256(uint160(value))) */\n      0x00\n      shl\n        /* \"https://github.com/OpenZeppelin/openzeppelin-contracts/blob/master/contracts/utils/structs/EnumerableSet.sol\":8947:8956  _contains */\n      tag_215\n        /* \"https://github.com/OpenZeppelin/openzeppelin-contracts/blob/master/contracts/utils/structs/EnumerableSet.sol\":8947:9002  _contains(set._inner, bytes32(uint256(uint160(value)))) */\n      jump\t// in\n    tag_214:\n        /* \"https://github.com/OpenZeppelin/openzeppelin-contracts/blob/master/contracts/utils/structs/EnumerableSet.sol\":8940:9002  return _contains(set._inner, bytes32(uint256(uint160(value)))) */\n      swap1\n      pop\n        /* \"https://github.com/OpenZeppelin/openzeppelin-contracts/blob/master/contracts/utils/structs/EnumerableSet.sol\":8844:9009  function contains(AddressSet storage set, address value) internal view returns (bool) {... */\n      swap3\n      swap2\n      pop\n      pop\n      jump\t// out\n        /* \"https://github.com/OpenZeppelin/openzeppelin-contracts/blob/master/contracts/utils/structs/EnumerableSet.sol\":8289:8439  function add(AddressSet storage set, address value) internal returns (bool) {... */\n    tag_144:\n        /* \"https://github.com/OpenZeppelin/openzeppelin-contracts/blob/master/contracts/utils/structs/EnumerableSet.sol\":8359:8363  bool */\n      0x00\n        /* \"https://github.com/OpenZeppelin/openzeppelin-contracts/blob/master/contracts/utils/structs/EnumerableSet.sol\":8382:8432  _add(set._inner, bytes32(uint256(uint160(value)))) */\n      tag_217\n        /* \"https://github.com/OpenZeppelin/openzeppelin-contracts/blob/master/contracts/utils/structs/EnumerableSet.sol\":8387:8390  set */\n      dup4\n        /* \"https://github.com/OpenZeppelin/openzeppelin-contracts/blob/master/contracts/utils/structs/EnumerableSet.sol\":8387:8397  set._inner */\n      0x00\n      add\n        /* \"https://github.com/OpenZeppelin/openzeppelin-contracts/blob/master/contracts/utils/structs/EnumerableSet.sol\":8423:8428  value */\n      dup4\n        /* \"https://github.com/OpenZeppelin/openzeppelin-contracts/blob/master/contracts/utils/structs/EnumerableSet.sol\":8407:8430  uint256(uint160(value)) */\n      0xffffffffffffffffffffffffffffffffffffffff\n      and\n        /* \"https://github.com/OpenZeppelin/openzeppelin-contracts/blob/master/contracts/utils/structs/EnumerableSet.sol\":8399:8431  bytes32(uint256(uint160(value))) */\n      0x00\n      shl\n        /* \"https://github.com/OpenZeppelin/openzeppelin-contracts/blob/master/contracts/utils/structs/EnumerableSet.sol\":8382:8386  _add */\n      tag_218\n        /* \"https://github.com/OpenZeppelin/openzeppelin-contracts/blob/master/contracts/utils/structs/EnumerableSet.sol\":8382:8432  _add(set._inner, bytes32(uint256(uint160(value)))) */\n      jump\t// in\n    tag_217:\n        /* \"https://github.com/OpenZeppelin/openzeppelin-contracts/blob/master/contracts/utils/structs/EnumerableSet.sol\":8375:8432  return _add(set._inner, bytes32(uint256(uint160(value)))) */\n      swap1\n      pop\n        /* \"https://github.com/OpenZeppelin/openzeppelin-contracts/blob/master/contracts/utils/structs/EnumerableSet.sol\":8289:8439  function add(AddressSet storage set, address value) internal returns (bool) {... */\n      swap3\n      swap2\n      pop\n      pop\n      jump\t// out\n        /* \"https://github.com/OpenZeppelin/openzeppelin-contracts/blob/master/contracts/token/ERC20/ERC20.sol\":9701:10133  function _approve(address owner, address spender, uint256 value, bool emitEvent) internal virtual {... */\n    tag_193:\n        /* \"https://github.com/OpenZeppelin/openzeppelin-contracts/blob/master/contracts/token/ERC20/ERC20.sol\":9830:9831  0 */\n      0x00\n        /* \"https://github.com/OpenZeppelin/openzeppelin-contracts/blob/master/contracts/token/ERC20/ERC20.sol\":9813:9832  owner == address(0) */\n      0xffffffffffffffffffffffffffffffffffffffff\n      and\n        /* \"https://github.com/OpenZeppelin/openzeppelin-contracts/blob/master/contracts/token/ERC20/ERC20.sol\":9813:9818  owner */\n      dup5\n        /* \"https://github.com/OpenZeppelin/openzeppelin-contracts/blob/master/contracts/token/ERC20/ERC20.sol\":9813:9832  owner == address(0) */\n      0xffffffffffffffffffffffffffffffffffffffff\n      and\n      sub\n        /* \"https://github.com/OpenZeppelin/openzeppelin-contracts/blob/master/contracts/token/ERC20/ERC20.sol\":9809:9898  if (owner == address(0)) {... */\n      tag_220\n      jumpi\n        /* \"https://github.com/OpenZeppelin/openzeppelin-contracts/blob/master/contracts/token/ERC20/ERC20.sol\":9884:9885  0 */\n      0x00\n        /* \"https://github.com/OpenZeppelin/openzeppelin-contracts/blob/master/contracts/token/ERC20/ERC20.sol\":9855:9887  ERC20InvalidApprover(address(0)) */\n      mload(0x40)\n      0xe602df0500000000000000000000000000000000000000000000000000000000\n      dup2\n      mstore\n      0x04\n      add\n      tag_221\n      swap2\n      swap1\n      tag_204\n      jump\t// in\n    tag_221:\n      mload(0x40)\n      dup1\n      swap2\n      sub\n      swap1\n      revert\n        /* \"https://github.com/OpenZeppelin/openzeppelin-contracts/blob/master/contracts/token/ERC20/ERC20.sol\":9809:9898  if (owner == address(0)) {... */\n    tag_220:\n        /* \"https://github.com/OpenZeppelin/openzeppelin-contracts/blob/master/contracts/token/ERC20/ERC20.sol\":9930:9931  0 */\n      0x00\n        /* \"https://github.com/OpenZeppelin/openzeppelin-contracts/blob/master/contracts/token/ERC20/ERC20.sol\":9911:9932  spender == address(0) */\n      0xffffffffffffffffffffffffffffffffffffffff\n      and\n        /* \"https://github.com/OpenZeppelin/openzeppelin-contracts/blob/master/contracts/token/ERC20/ERC20.sol\":9911:9918  spender */\n      dup4\n        /* \"https://github.com/OpenZeppelin/openzeppelin-contracts/blob/master/contracts/token/ERC20/ERC20.sol\":9911:9932  spender == address(0) */\n      0xffffffffffffffffffffffffffffffffffffffff\n      and\n      sub\n        /* \"https://github.com/OpenZeppelin/openzeppelin-contracts/blob/master/contracts/token/ERC20/ERC20.sol\":9907:9997  if (spender == address(0)) {... */\n      tag_222\n      jumpi\n        /* \"https://github.com/OpenZeppelin/openzeppelin-contracts/blob/master/contracts/token/ERC20/ERC20.sol\":9983:9984  0 */\n      0x00\n        /* \"https://github.com/OpenZeppelin/openzeppelin-contracts/blob/master/contracts/token/ERC20/ERC20.sol\":9955:9986  ERC20InvalidSpender(address(0)) */\n      mload(0x40)\n      0x94280d6200000000000000000000000000000000000000000000000000000000\n      dup2\n      mstore\n      0x04\n      add\n      tag_223\n      swap2\n      swap1\n      tag_204\n      jump\t// in\n    tag_223:\n      mload(0x40)\n      dup1\n      swap2\n      sub\n      swap1\n      revert\n        /* \"https://github.com/OpenZeppelin/openzeppelin-contracts/blob/master/contracts/token/ERC20/ERC20.sol\":9907:9997  if (spender == address(0)) {... */\n    tag_222:\n        /* \"https://github.com/OpenZeppelin/openzeppelin-contracts/blob/master/contracts/token/ERC20/ERC20.sol\":10036:10041  value */\n      dup2\n        /* \"https://github.com/OpenZeppelin/openzeppelin-contracts/blob/master/contracts/token/ERC20/ERC20.sol\":10006:10017  _allowances */\n      0x01\n        /* \"https://github.com/OpenZeppelin/openzeppelin-contracts/blob/master/contracts/token/ERC20/ERC20.sol\":10006:10024  _allowances[owner] */\n      0x00\n        /* \"https://github.com/OpenZeppelin/openzeppelin-contracts/blob/master/contracts/token/ERC20/ERC20.sol\":10018:10023  owner */\n      dup7\n        /* \"https://github.com/OpenZeppelin/openzeppelin-contracts/blob/master/contracts/token/ERC20/ERC20.sol\":10006:10024  _allowances[owner] */\n      0xffffffffffffffffffffffffffffffffffffffff\n      and\n      0xffffffffffffffffffffffffffffffffffffffff\n      and\n      dup2\n      mstore\n      0x20\n      add\n      swap1\n      dup2\n      mstore\n      0x20\n      add\n      0x00\n      keccak256\n        /* \"https://github.com/OpenZeppelin/openzeppelin-contracts/blob/master/contracts/token/ERC20/ERC20.sol\":10006:10033  _allowances[owner][spender] */\n      0x00\n        /* \"https://github.com/OpenZeppelin/openzeppelin-contracts/blob/master/contracts/token/ERC20/ERC20.sol\":10025:10032  spender */\n      dup6\n        /* \"https://github.com/OpenZeppelin/openzeppelin-contracts/blob/master/contracts/token/ERC20/ERC20.sol\":10006:10033  _allowances[owner][spender] */\n      0xffffffffffffffffffffffffffffffffffffffff\n      and\n      0xffffffffffffffffffffffffffffffffffffffff\n      and\n      dup2\n      mstore\n      0x20\n      add\n      swap1\n      dup2\n      mstore\n      0x20\n      add\n      0x00\n      keccak256\n        /* \"https://github.com/OpenZeppelin/openzeppelin-contracts/blob/master/contracts/token/ERC20/ERC20.sol\":10006:10041  _allowances[owner][spender] = value */\n      dup2\n      swap1\n      sstore\n      pop\n        /* \"https://github.com/OpenZeppelin/openzeppelin-contracts/blob/master/contracts/token/ERC20/ERC20.sol\":10055:10064  emitEvent */\n      dup1\n        /* \"https://github.com/OpenZeppelin/openzeppelin-contracts/blob/master/contracts/token/ERC20/ERC20.sol\":10051:10127  if (emitEvent) {... */\n      iszero\n      tag_224\n      jumpi\n        /* \"https://github.com/OpenZeppelin/openzeppelin-contracts/blob/master/contracts/token/ERC20/ERC20.sol\":10101:10108  spender */\n      dup3\n        /* \"https://github.com/OpenZeppelin/openzeppelin-contracts/blob/master/contracts/token/ERC20/ERC20.sol\":10085:10116  Approval(owner, spender, value) */\n      0xffffffffffffffffffffffffffffffffffffffff\n      and\n        /* \"https://github.com/OpenZeppelin/openzeppelin-contracts/blob/master/contracts/token/ERC20/ERC20.sol\":10094:10099  owner */\n      dup5\n        /* \"https://github.com/OpenZeppelin/openzeppelin-contracts/blob/master/contracts/token/ERC20/ERC20.sol\":10085:10116  Approval(owner, spender, value) */\n      0xffffffffffffffffffffffffffffffffffffffff\n      and\n      0x8c5be1e5ebec7d5bd14f71427d1e84f3dd0314c0f7b2291e5b200ac8c7c3b925\n        /* \"https://github.com/OpenZeppelin/openzeppelin-contracts/blob/master/contracts/token/ERC20/ERC20.sol\":10110:10115  value */\n      dup5\n        /* \"https://github.com/OpenZeppelin/openzeppelin-contracts/blob/master/contracts/token/ERC20/ERC20.sol\":10085:10116  Approval(owner, spender, value) */\n      mload(0x40)\n      tag_225\n      swap2\n      swap1\n      tag_33\n      jump\t// in\n    tag_225:\n      mload(0x40)\n      dup1\n      swap2\n      sub\n      swap1\n      log3\n        /* \"https://github.com/OpenZeppelin/openzeppelin-contracts/blob/master/contracts/token/ERC20/ERC20.sol\":10051:10127  if (emitEvent) {... */\n    tag_224:\n        /* \"https://github.com/OpenZeppelin/openzeppelin-contracts/blob/master/contracts/token/ERC20/ERC20.sol\":9701:10133  function _approve(address owner, address spender, uint256 value, bool emitEvent) internal virtual {... */\n      pop\n      pop\n      pop\n      pop\n      jump\t// out\n        /* \"https://github.com/OpenZeppelin/openzeppelin-contracts/blob/master/contracts/token/ERC20/ERC20.sol\":6008:7115  function _update(address from, address to, uint256 value) internal virtual {... */\n    tag_208:\n        /* \"https://github.com/OpenZeppelin/openzeppelin-contracts/blob/master/contracts/token/ERC20/ERC20.sol\":6113:6114  0 */\n      0x00\n        /* \"https://github.com/OpenZeppelin/openzeppelin-contracts/blob/master/contracts/token/ERC20/ERC20.sol\":6097:6115  from == address(0) */\n      0xffffffffffffffffffffffffffffffffffffffff\n      and\n        /* \"https://github.com/OpenZeppelin/openzeppelin-contracts/blob/master/contracts/token/ERC20/ERC20.sol\":6097:6101  from */\n      dup4\n        /* \"https://github.com/OpenZeppelin/openzeppelin-contracts/blob/master/contracts/token/ERC20/ERC20.sol\":6097:6115  from == address(0) */\n      0xffffffffffffffffffffffffffffffffffffffff\n      and\n      sub\n        /* \"https://github.com/OpenZeppelin/openzeppelin-contracts/blob/master/contracts/token/ERC20/ERC20.sol\":6093:6633  if (from == address(0)) {... */\n      tag_227\n      jumpi\n        /* \"https://github.com/OpenZeppelin/openzeppelin-contracts/blob/master/contracts/token/ERC20/ERC20.sol\":6249:6254  value */\n      dup1\n        /* \"https://github.com/OpenZeppelin/openzeppelin-contracts/blob/master/contracts/token/ERC20/ERC20.sol\":6233:6245  _totalSupply */\n      0x02\n      0x00\n        /* \"https://github.com/OpenZeppelin/openzeppelin-contracts/blob/master/contracts/token/ERC20/ERC20.sol\":6233:6254  _totalSupply += value */\n      dup3\n      dup3\n      sload\n      tag_228\n      swap2\n      swap1\n      tag_152\n      jump\t// in\n    tag_228:\n      swap3\n      pop\n      pop\n      dup2\n      swap1\n      sstore\n      pop\n        /* \"https://github.com/OpenZeppelin/openzeppelin-contracts/blob/master/contracts/token/ERC20/ERC20.sol\":6093:6633  if (from == address(0)) {... */\n      jump(tag_229)\n    tag_227:\n        /* \"https://github.com/OpenZeppelin/openzeppelin-contracts/blob/master/contracts/token/ERC20/ERC20.sol\":6285:6304  uint256 fromBalance */\n      0x00\n        /* \"https://github.com/OpenZeppelin/openzeppelin-contracts/blob/master/contracts/token/ERC20/ERC20.sol\":6307:6316  _balances */\n      dup1\n        /* \"https://github.com/OpenZeppelin/openzeppelin-contracts/blob/master/contracts/token/ERC20/ERC20.sol\":6307:6322  _balances[from] */\n      0x00\n        /* \"https://github.com/OpenZeppelin/openzeppelin-contracts/blob/master/contracts/token/ERC20/ERC20.sol\":6317:6321  from */\n      dup6\n        /* \"https://github.com/OpenZeppelin/openzeppelin-contracts/blob/master/contracts/token/ERC20/ERC20.sol\":6307:6322  _balances[from] */\n      0xffffffffffffffffffffffffffffffffffffffff\n      and\n      0xffffffffffffffffffffffffffffffffffffffff\n      and\n      dup2\n      mstore\n      0x20\n      add\n      swap1\n      dup2\n      mstore\n      0x20\n      add\n      0x00\n      keccak256\n      sload\n        /* \"https://github.com/OpenZeppelin/openzeppelin-contracts/blob/master/contracts/token/ERC20/ERC20.sol\":6285:6322  uint256 fromBalance = _balances[from] */\n      swap1\n      pop\n        /* \"https://github.com/OpenZeppelin/openzeppelin-contracts/blob/master/contracts/token/ERC20/ERC20.sol\":6354:6359  value */\n      dup2\n        /* \"https://github.com/OpenZeppelin/openzeppelin-contracts/blob/master/contracts/token/ERC20/ERC20.sol\":6340:6351  fromBalance */\n      dup2\n        /* \"https://github.com/OpenZeppelin/openzeppelin-contracts/blob/master/contracts/token/ERC20/ERC20.sol\":6340:6359  fromBalance < value */\n      lt\n        /* \"https://github.com/OpenZeppelin/openzeppelin-contracts/blob/master/contracts/token/ERC20/ERC20.sol\":6336:6451  if (fromBalance < value) {... */\n      iszero\n      tag_230\n      jumpi\n        /* \"https://github.com/OpenZeppelin/openzeppelin-contracts/blob/master/contracts/token/ERC20/ERC20.sol\":6411:6415  from */\n      dup4\n        /* \"https://github.com/OpenZeppelin/openzeppelin-contracts/blob/master/contracts/token/ERC20/ERC20.sol\":6417:6428  fromBalance */\n      dup2\n        /* \"https://github.com/OpenZeppelin/openzeppelin-contracts/blob/master/contracts/token/ERC20/ERC20.sol\":6430:6435  value */\n      dup4\n        /* \"https://github.com/OpenZeppelin/openzeppelin-contracts/blob/master/contracts/token/ERC20/ERC20.sol\":6386:6436  ERC20InsufficientBalance(from, fromBalance, value) */\n      mload(0x40)\n      0xe450d38c00000000000000000000000000000000000000000000000000000000\n      dup2\n      mstore\n      0x04\n      add\n      tag_231\n      swap4\n      swap3\n      swap2\n      swap1\n      tag_199\n      jump\t// in\n    tag_231:\n      mload(0x40)\n      dup1\n      swap2\n      sub\n      swap1\n      revert\n        /* \"https://github.com/OpenZeppelin/openzeppelin-contracts/blob/master/contracts/token/ERC20/ERC20.sol\":6336:6451  if (fromBalance < value) {... */\n    tag_230:\n        /* \"https://github.com/OpenZeppelin/openzeppelin-contracts/blob/master/contracts/token/ERC20/ERC20.sol\":6603:6608  value */\n      dup2\n        /* \"https://github.com/OpenZeppelin/openzeppelin-contracts/blob/master/contracts/token/ERC20/ERC20.sol\":6589:6600  fromBalance */\n      dup2\n        /* \"https://github.com/OpenZeppelin/openzeppelin-contracts/blob/master/contracts/token/ERC20/ERC20.sol\":6589:6608  fromBalance - value */\n      sub\n        /* \"https://github.com/OpenZeppelin/openzeppelin-contracts/blob/master/contracts/token/ERC20/ERC20.sol\":6571:6580  _balances */\n      0x00\n        /* \"https://github.com/OpenZeppelin/openzeppelin-contracts/blob/master/contracts/token/ERC20/ERC20.sol\":6571:6586  _balances[from] */\n      dup1\n        /* \"https://github.com/OpenZeppelin/openzeppelin-contracts/blob/master/contracts/token/ERC20/ERC20.sol\":6581:6585  from */\n      dup7\n        /* \"https://github.com/OpenZeppelin/openzeppelin-contracts/blob/master/contracts/token/ERC20/ERC20.sol\":6571:6586  _balances[from] */\n      0xffffffffffffffffffffffffffffffffffffffff\n      and\n      0xffffffffffffffffffffffffffffffffffffffff\n      and\n      dup2\n      mstore\n      0x20\n      add\n      swap1\n      dup2\n      mstore\n      0x20\n      add\n      0x00\n      keccak256\n        /* \"https://github.com/OpenZeppelin/openzeppelin-contracts/blob/master/contracts/token/ERC20/ERC20.sol\":6571:6608  _balances[from] = fromBalance - value */\n      dup2\n      swap1\n      sstore\n      pop\n        /* \"https://github.com/OpenZeppelin/openzeppelin-contracts/blob/master/contracts/token/ERC20/ERC20.sol\":6271:6633  {... */\n      pop\n        /* \"https://github.com/OpenZeppelin/openzeppelin-contracts/blob/master/contracts/token/ERC20/ERC20.sol\":6093:6633  if (from == address(0)) {... */\n    tag_229:\n        /* \"https://github.com/OpenZeppelin/openzeppelin-contracts/blob/master/contracts/token/ERC20/ERC20.sol\":6661:6662  0 */\n      0x00\n        /* \"https://github.com/OpenZeppelin/openzeppelin-contracts/blob/master/contracts/token/ERC20/ERC20.sol\":6647:6663  to == address(0) */\n      0xffffffffffffffffffffffffffffffffffffffff\n      and\n        /* \"https://github.com/OpenZeppelin/openzeppelin-contracts/blob/master/contracts/token/ERC20/ERC20.sol\":6647:6649  to */\n      dup3\n        /* \"https://github.com/OpenZeppelin/openzeppelin-contracts/blob/master/contracts/token/ERC20/ERC20.sol\":6647:6663  to == address(0) */\n      0xffffffffffffffffffffffffffffffffffffffff\n      and\n      sub\n        /* \"https://github.com/OpenZeppelin/openzeppelin-contracts/blob/master/contracts/token/ERC20/ERC20.sol\":6643:7068  if (to == address(0)) {... */\n      tag_232\n      jumpi\n        /* \"https://github.com/OpenZeppelin/openzeppelin-contracts/blob/master/contracts/token/ERC20/ERC20.sol\":6826:6831  value */\n      dup1\n        /* \"https://github.com/OpenZeppelin/openzeppelin-contracts/blob/master/contracts/token/ERC20/ERC20.sol\":6810:6822  _totalSupply */\n      0x02\n      0x00\n        /* \"https://github.com/OpenZeppelin/openzeppelin-contracts/blob/master/contracts/token/ERC20/ERC20.sol\":6810:6831  _totalSupply -= value */\n      dup3\n      dup3\n      sload\n      sub\n      swap3\n      pop\n      pop\n      dup2\n      swap1\n      sstore\n      pop\n        /* \"https://github.com/OpenZeppelin/openzeppelin-contracts/blob/master/contracts/token/ERC20/ERC20.sol\":6643:7068  if (to == address(0)) {... */\n      jump(tag_233)\n    tag_232:\n        /* \"https://github.com/OpenZeppelin/openzeppelin-contracts/blob/master/contracts/token/ERC20/ERC20.sol\":7038:7043  value */\n      dup1\n        /* \"https://github.com/OpenZeppelin/openzeppelin-contracts/blob/master/contracts/token/ERC20/ERC20.sol\":7021:7030  _balances */\n      0x00\n        /* \"https://github.com/OpenZeppelin/openzeppelin-contracts/blob/master/contracts/token/ERC20/ERC20.sol\":7021:7034  _balances[to] */\n      dup1\n        /* \"https://github.com/OpenZeppelin/openzeppelin-contracts/blob/master/contracts/token/ERC20/ERC20.sol\":7031:7033  to */\n      dup5\n        /* \"https://github.com/OpenZeppelin/openzeppelin-contracts/blob/master/contracts/token/ERC20/ERC20.sol\":7021:7034  _balances[to] */\n      0xffffffffffffffffffffffffffffffffffffffff\n      and\n      0xffffffffffffffffffffffffffffffffffffffff\n      and\n      dup2\n      mstore\n      0x20\n      add\n      swap1\n      dup2\n      mstore\n      0x20\n      add\n      0x00\n      keccak256\n      0x00\n        /* \"https://github.com/OpenZeppelin/openzeppelin-contracts/blob/master/contracts/token/ERC20/ERC20.sol\":7021:7043  _balances[to] += value */\n      dup3\n      dup3\n      sload\n      add\n      swap3\n      pop\n      pop\n      dup2\n      swap1\n      sstore\n      pop\n        /* \"https://github.com/OpenZeppelin/openzeppelin-contracts/blob/master/contracts/token/ERC20/ERC20.sol\":6643:7068  if (to == address(0)) {... */\n    tag_233:\n        /* \"https://github.com/OpenZeppelin/openzeppelin-contracts/blob/master/contracts/token/ERC20/ERC20.sol\":7098:7100  to */\n      dup2\n        /* \"https://github.com/OpenZeppelin/openzeppelin-contracts/blob/master/contracts/token/ERC20/ERC20.sol\":7083:7108  Transfer(from, to, value) */\n      0xffffffffffffffffffffffffffffffffffffffff\n      and\n        /* \"https://github.com/OpenZeppelin/openzeppelin-contracts/blob/master/contracts/token/ERC20/ERC20.sol\":7092:7096  from */\n      dup4\n        /* \"https://github.com/OpenZeppelin/openzeppelin-contracts/blob/master/contracts/token/ERC20/ERC20.sol\":7083:7108  Transfer(from, to, value) */\n      0xffffffffffffffffffffffffffffffffffffffff\n      and\n      0xddf252ad1be2c89b69c2b068fc378daa952ba7f163c4a11628f55a4df523b3ef\n        /* \"https://github.com/OpenZeppelin/openzeppelin-contracts/blob/master/contracts/token/ERC20/ERC20.sol\":7102:7107  value */\n      dup4\n        /* \"https://github.com/OpenZeppelin/openzeppelin-contracts/blob/master/contracts/token/ERC20/ERC20.sol\":7083:7108  Transfer(from, to, value) */\n      mload(0x40)\n      tag_234\n      swap2\n      swap1\n      tag_33\n      jump\t// in\n    tag_234:\n      mload(0x40)\n      dup1\n      swap2\n      sub\n      swap1\n      log3\n        /* \"https://github.com/OpenZeppelin/openzeppelin-contracts/blob/master/contracts/token/ERC20/ERC20.sol\":6008:7115  function _update(address from, address to, uint256 value) internal virtual {... */\n      pop\n      pop\n      pop\n      jump\t// out\n        /* \"https://github.com/OpenZeppelin/openzeppelin-contracts/blob/master/contracts/utils/structs/EnumerableSet.sol\":4264:4393  function _contains(Set storage set, bytes32 value) private view returns (bool) {... */\n    tag_215:\n        /* \"https://github.com/OpenZeppelin/openzeppelin-contracts/blob/master/contracts/utils/structs/EnumerableSet.sol\":4337:4341  bool */\n      0x00\n        /* \"https://github.com/OpenZeppelin/openzeppelin-contracts/blob/master/contracts/utils/structs/EnumerableSet.sol\":4385:4386  0 */\n      dup1\n        /* \"https://github.com/OpenZeppelin/openzeppelin-contracts/blob/master/contracts/utils/structs/EnumerableSet.sol\":4360:4363  set */\n      dup4\n        /* \"https://github.com/OpenZeppelin/openzeppelin-contracts/blob/master/contracts/utils/structs/EnumerableSet.sol\":4360:4374  set._positions */\n      0x01\n      add\n        /* \"https://github.com/OpenZeppelin/openzeppelin-contracts/blob/master/contracts/utils/structs/EnumerableSet.sol\":4360:4381  set._positions[value] */\n      0x00\n        /* \"https://github.com/OpenZeppelin/openzeppelin-contracts/blob/master/contracts/utils/structs/EnumerableSet.sol\":4375:4380  value */\n      dup5\n        /* \"https://github.com/OpenZeppelin/openzeppelin-contracts/blob/master/contracts/utils/structs/EnumerableSet.sol\":4360:4381  set._positions[value] */\n      dup2\n      mstore\n      0x20\n      add\n      swap1\n      dup2\n      mstore\n      0x20\n      add\n      0x00\n      keccak256\n      sload\n        /* \"https://github.com/OpenZeppelin/openzeppelin-contracts/blob/master/contracts/utils/structs/EnumerableSet.sol\":4360:4386  set._positions[value] != 0 */\n      eq\n      iszero\n        /* \"https://github.com/OpenZeppelin/openzeppelin-contracts/blob/master/contracts/utils/structs/EnumerableSet.sol\":4353:4386  return set._positions[value] != 0 */\n      swap1\n      pop\n        /* \"https://github.com/OpenZeppelin/openzeppelin-contracts/blob/master/contracts/utils/structs/EnumerableSet.sol\":4264:4393  function _contains(Set storage set, bytes32 value) private view returns (bool) {... */\n      swap3\n      swap2\n      pop\n      pop\n      jump\t// out\n        /* \"https://github.com/OpenZeppelin/openzeppelin-contracts/blob/master/contracts/utils/structs/EnumerableSet.sol\":2241:2647  function _add(Set storage set, bytes32 value) private returns (bool) {... */\n    tag_218:\n        /* \"https://github.com/OpenZeppelin/openzeppelin-contracts/blob/master/contracts/utils/structs/EnumerableSet.sol\":2304:2308  bool */\n      0x00\n        /* \"https://github.com/OpenZeppelin/openzeppelin-contracts/blob/master/contracts/utils/structs/EnumerableSet.sol\":2325:2346  _contains(set, value) */\n      tag_237\n        /* \"https://github.com/OpenZeppelin/openzeppelin-contracts/blob/master/contracts/utils/structs/EnumerableSet.sol\":2335:2338  set */\n      dup4\n        /* \"https://github.com/OpenZeppelin/openzeppelin-contracts/blob/master/contracts/utils/structs/EnumerableSet.sol\":2340:2345  value */\n      dup4\n        /* \"https://github.com/OpenZeppelin/openzeppelin-contracts/blob/master/contracts/utils/structs/EnumerableSet.sol\":2325:2334  _contains */\n      tag_215\n        /* \"https://github.com/OpenZeppelin/openzeppelin-contracts/blob/master/contracts/utils/structs/EnumerableSet.sol\":2325:2346  _contains(set, value) */\n      jump\t// in\n    tag_237:\n        /* \"https://github.com/OpenZeppelin/openzeppelin-contracts/blob/master/contracts/utils/structs/EnumerableSet.sol\":2320:2641  if (!_contains(set, value)) {... */\n      tag_238\n      jumpi\n        /* \"https://github.com/OpenZeppelin/openzeppelin-contracts/blob/master/contracts/utils/structs/EnumerableSet.sol\":2362:2365  set */\n      dup3\n        /* \"https://github.com/OpenZeppelin/openzeppelin-contracts/blob/master/contracts/utils/structs/EnumerableSet.sol\":2362:2373  set._values */\n      0x00\n      add\n        /* \"https://github.com/OpenZeppelin/openzeppelin-contracts/blob/master/contracts/utils/structs/EnumerableSet.sol\":2379:2384  value */\n      dup3\n        /* \"https://github.com/OpenZeppelin/openzeppelin-contracts/blob/master/contracts/utils/structs/EnumerableSet.sol\":2362:2385  set._values.push(value) */\n      swap1\n      dup1\n      0x01\n      dup2\n      sload\n      add\n      dup1\n      dup3\n      sstore\n      dup1\n      swap2\n      pop\n      pop\n      0x01\n      swap1\n      sub\n      swap1\n      0x00\n      mstore\n      keccak256(0x00, 0x20)\n      add\n      0x00\n      swap1\n      swap2\n      swap1\n      swap2\n      swap1\n      swap2\n      pop\n      sstore\n        /* \"https://github.com/OpenZeppelin/openzeppelin-contracts/blob/master/contracts/utils/structs/EnumerableSet.sol\":2544:2547  set */\n      dup3\n        /* \"https://github.com/OpenZeppelin/openzeppelin-contracts/blob/master/contracts/utils/structs/EnumerableSet.sol\":2544:2555  set._values */\n      0x00\n      add\n        /* \"https://github.com/OpenZeppelin/openzeppelin-contracts/blob/master/contracts/utils/structs/EnumerableSet.sol\":2544:2562  set._values.length */\n      dup1\n      sload\n      swap1\n      pop\n        /* \"https://github.com/OpenZeppelin/openzeppelin-contracts/blob/master/contracts/utils/structs/EnumerableSet.sol\":2520:2523  set */\n      dup4\n        /* \"https://github.com/OpenZeppelin/openzeppelin-contracts/blob/master/contracts/utils/structs/EnumerableSet.sol\":2520:2534  set._positions */\n      0x01\n      add\n        /* \"https://github.com/OpenZeppelin/openzeppelin-contracts/blob/master/contracts/utils/structs/EnumerableSet.sol\":2520:2541  set._positions[value] */\n      0x00\n        /* \"https://github.com/OpenZeppelin/openzeppelin-contracts/blob/master/contracts/utils/structs/EnumerableSet.sol\":2535:2540  value */\n      dup5\n        /* \"https://github.com/OpenZeppelin/openzeppelin-contracts/blob/master/contracts/utils/structs/EnumerableSet.sol\":2520:2541  set._positions[value] */\n      dup2\n      mstore\n      0x20\n      add\n      swap1\n      dup2\n      mstore\n      0x20\n      add\n      0x00\n      keccak256\n        /* \"https://github.com/OpenZeppelin/openzeppelin-contracts/blob/master/contracts/utils/structs/EnumerableSet.sol\":2520:2562  set._positions[value] = set._values.length */\n      dup2\n      swap1\n      sstore\n      pop\n        /* \"https://github.com/OpenZeppelin/openzeppelin-contracts/blob/master/contracts/utils/structs/EnumerableSet.sol\":2583:2587  true */\n      0x01\n        /* \"https://github.com/OpenZeppelin/openzeppelin-contracts/blob/master/contracts/utils/structs/EnumerableSet.sol\":2576:2587  return true */\n      swap1\n      pop\n      jump(tag_236)\n        /* \"https://github.com/OpenZeppelin/openzeppelin-contracts/blob/master/contracts/utils/structs/EnumerableSet.sol\":2320:2641  if (!_contains(set, value)) {... */\n    tag_238:\n        /* \"https://github.com/OpenZeppelin/openzeppelin-contracts/blob/master/contracts/utils/structs/EnumerableSet.sol\":2625:2630  false */\n      0x00\n        /* \"https://github.com/OpenZeppelin/openzeppelin-contracts/blob/master/contracts/utils/structs/EnumerableSet.sol\":2618:2630  return false */\n      swap1\n      pop\n        /* \"https://github.com/OpenZeppelin/openzeppelin-contracts/blob/master/contracts/utils/structs/EnumerableSet.sol\":2241:2647  function _add(Set storage set, bytes32 value) private returns (bool) {... */\n    tag_236:\n      swap3\n      swap2\n      pop\n      pop\n      jump\t// out\n    tag_176:\n      mload(0x40)\n      dup1\n      0x0100\n      add\n      0x40\n      mstore\n      dup1\n      0x60\n      dup2\n      mstore\n      0x20\n      add\n      0x00\n      dup2\n      mstore\n      0x20\n      add\n      0x00\n      dup2\n      mstore\n      0x20\n      add\n      0x00\n      dup2\n      mstore\n      0x20\n      add\n      0x00\n      dup2\n      mstore\n      0x20\n      add\n      0x00\n      dup2\n      mstore\n      0x20\n      add\n      iszero(iszero(0x00))\n      dup2\n      mstore\n      0x20\n      add\n      iszero(iszero(0x00))\n      dup2\n      mstore\n      pop\n      swap1\n      jump\t// out\n        /* \"#utility.yul\":7:106   */\n    tag_241:\n        /* \"#utility.yul\":59:65   */\n      0x00\n        /* \"#utility.yul\":93:98   */\n      dup2\n        /* \"#utility.yul\":87:99   */\n      mload\n        /* \"#utility.yul\":77:99   */\n      swap1\n      pop\n        /* \"#utility.yul\":7:106   */\n      swap2\n      swap1\n      pop\n      jump\t// out\n        /* \"#utility.yul\":112:281   */\n    tag_242:\n        /* \"#utility.yul\":196:207   */\n      0x00\n        /* \"#utility.yul\":230:236   */\n      dup3\n        /* \"#utility.yul\":225:228   */\n      dup3\n        /* \"#utility.yul\":218:237   */\n      mstore\n        /* \"#utility.yul\":270:274   */\n      0x20\n        /* \"#utility.yul\":265:268   */\n      dup3\n        /* \"#utility.yul\":261:275   */\n      add\n        /* \"#utility.yul\":246:275   */\n      swap1\n      pop\n        /* \"#utility.yul\":112:281   */\n      swap3\n      swap2\n      pop\n      pop\n      jump\t// out\n        /* \"#utility.yul\":287:426   */\n    tag_243:\n        /* \"#utility.yul\":376:382   */\n      dup3\n        /* \"#utility.yul\":371:374   */\n      dup2\n        /* \"#utility.yul\":366:369   */\n      dup4\n        /* \"#utility.yul\":360:383   */\n      mcopy\n        /* \"#utility.yul\":417:418   */\n      0x00\n        /* \"#utility.yul\":408:414   */\n      dup4\n        /* \"#utility.yul\":403:406   */\n      dup4\n        /* \"#utility.yul\":399:415   */\n      add\n        /* \"#utility.yul\":392:419   */\n      mstore\n        /* \"#utility.yul\":287:426   */\n      pop\n      pop\n      pop\n      jump\t// out\n        /* \"#utility.yul\":432:534   */\n    tag_244:\n        /* \"#utility.yul\":473:479   */\n      0x00\n        /* \"#utility.yul\":524:526   */\n      0x1f\n        /* \"#utility.yul\":520:527   */\n      not\n        /* \"#utility.yul\":515:517   */\n      0x1f\n        /* \"#utility.yul\":508:513   */\n      dup4\n        /* \"#utility.yul\":504:518   */\n      add\n        /* \"#utility.yul\":500:528   */\n      and\n        /* \"#utility.yul\":490:528   */\n      swap1\n      pop\n        /* \"#utility.yul\":432:534   */\n      swap2\n      swap1\n      pop\n      jump\t// out\n        /* \"#utility.yul\":540:917   */\n    tag_245:\n        /* \"#utility.yul\":628:631   */\n      0x00\n        /* \"#utility.yul\":656:695   */\n      tag_310\n        /* \"#utility.yul\":689:694   */\n      dup3\n        /* \"#utility.yul\":656:695   */\n      tag_241\n      jump\t// in\n    tag_310:\n        /* \"#utility.yul\":711:782   */\n      tag_311\n        /* \"#utility.yul\":775:781   */\n      dup2\n        /* \"#utility.yul\":770:773   */\n      dup6\n        /* \"#utility.yul\":711:782   */\n      tag_242\n      jump\t// in\n    tag_311:\n        /* \"#utility.yul\":704:782   */\n      swap4\n      pop\n        /* \"#utility.yul\":791:856   */\n      tag_312\n        /* \"#utility.yul\":849:855   */\n      dup2\n        /* \"#utility.yul\":844:847   */\n      dup6\n        /* \"#utility.yul\":837:841   */\n      0x20\n        /* \"#utility.yul\":830:835   */\n      dup7\n        /* \"#utility.yul\":826:842   */\n      add\n        /* \"#utility.yul\":791:856   */\n      tag_243\n      jump\t// in\n    tag_312:\n        /* \"#utility.yul\":881:910   */\n      tag_313\n        /* \"#utility.yul\":903:909   */\n      dup2\n        /* \"#utility.yul\":881:910   */\n      tag_244\n      jump\t// in\n    tag_313:\n        /* \"#utility.yul\":876:879   */\n      dup5\n        /* \"#utility.yul\":872:911   */\n      add\n        /* \"#utility.yul\":865:911   */\n      swap2\n      pop\n        /* \"#utility.yul\":632:917   */\n      pop\n        /* \"#utility.yul\":540:917   */\n      swap3\n      swap2\n      pop\n      pop\n      jump\t// out\n        /* \"#utility.yul\":923:1236   */\n    tag_23:\n        /* \"#utility.yul\":1036:1040   */\n      0x00\n        /* \"#utility.yul\":1074:1076   */\n      0x20\n        /* \"#utility.yul\":1063:1072   */\n      dup3\n        /* \"#utility.yul\":1059:1077   */\n      add\n        /* \"#utility.yul\":1051:1077   */\n      swap1\n      pop\n        /* \"#utility.yul\":1123:1132   */\n      dup2\n        /* \"#utility.yul\":1117:1121   */\n      dup2\n        /* \"#utility.yul\":1113:1133   */\n      sub\n        /* \"#utility.yul\":1109:1110   */\n      0x00\n        /* \"#utility.yul\":1098:1107   */\n      dup4\n        /* \"#utility.yul\":1094:1111   */\n      add\n        /* \"#utility.yul\":1087:1134   */\n      mstore\n        /* \"#utility.yul\":1151:1229   */\n      tag_315\n        /* \"#utility.yul\":1224:1228   */\n      dup2\n        /* \"#utility.yul\":1215:1221   */\n      dup5\n        /* \"#utility.yul\":1151:1229   */\n      tag_245\n      jump\t// in\n    tag_315:\n        /* \"#utility.yul\":1143:1229   */\n      swap1\n      pop\n        /* \"#utility.yul\":923:1236   */\n      swap3\n      swap2\n      pop\n      pop\n      jump\t// out\n        /* \"#utility.yul\":1242:1317   */\n    tag_246:\n        /* \"#utility.yul\":1275:1281   */\n      0x00\n        /* \"#utility.yul\":1308:1310   */\n      0x40\n        /* \"#utility.yul\":1302:1311   */\n      mload\n        /* \"#utility.yul\":1292:1311   */\n      swap1\n      pop\n        /* \"#utility.yul\":1242:1317   */\n      swap1\n      jump\t// out\n        /* \"#utility.yul\":1323:1440   */\n    tag_247:\n        /* \"#utility.yul\":1432:1433   */\n      0x00\n        /* \"#utility.yul\":1429:1430   */\n      dup1\n        /* \"#utility.yul\":1422:1434   */\n      revert\n        /* \"#utility.yul\":1446:1563   */\n    tag_248:\n        /* \"#utility.yul\":1555:1556   */\n      0x00\n        /* \"#utility.yul\":1552:1553   */\n      dup1\n        /* \"#utility.yul\":1545:1557   */\n      revert\n        /* \"#utility.yul\":1569:1695   */\n    tag_249:\n        /* \"#utility.yul\":1606:1613   */\n      0x00\n        /* \"#utility.yul\":1646:1688   */\n      0xffffffffffffffffffffffffffffffffffffffff\n        /* \"#utility.yul\":1639:1644   */\n      dup3\n        /* \"#utility.yul\":1635:1689   */\n      and\n        /* \"#utility.yul\":1624:1689   */\n      swap1\n      pop\n        /* \"#utility.yul\":1569:1695   */\n      swap2\n      swap1\n      pop\n      jump\t// out\n        /* \"#utility.yul\":1701:1797   */\n    tag_250:\n        /* \"#utility.yul\":1738:1745   */\n      0x00\n        /* \"#utility.yul\":1767:1791   */\n      tag_321\n        /* \"#utility.yul\":1785:1790   */\n      dup3\n        /* \"#utility.yul\":1767:1791   */\n      tag_249\n      jump\t// in\n    tag_321:\n        /* \"#utility.yul\":1756:1791   */\n      swap1\n      pop\n        /* \"#utility.yul\":1701:1797   */\n      swap2\n      swap1\n      pop\n      jump\t// out\n        /* \"#utility.yul\":1803:1925   */\n    tag_251:\n        /* \"#utility.yul\":1876:1900   */\n      tag_323\n        /* \"#utility.yul\":1894:1899   */\n      dup2\n        /* \"#utility.yul\":1876:1900   */\n      tag_250\n      jump\t// in\n    tag_323:\n        /* \"#utility.yul\":1869:1874   */\n      dup2\n        /* \"#utility.yul\":1866:1901   */\n      eq\n        /* \"#utility.yul\":1856:1919   */\n      tag_324\n      jumpi\n        /* \"#utility.yul\":1915:1916   */\n      0x00\n        /* \"#utility.yul\":1912:1913   */\n      dup1\n        /* \"#utility.yul\":1905:1917   */\n      revert\n        /* \"#utility.yul\":1856:1919   */\n    tag_324:\n        /* \"#utility.yul\":1803:1925   */\n      pop\n      jump\t// out\n        /* \"#utility.yul\":1931:2070   */\n    tag_252:\n        /* \"#utility.yul\":1977:1982   */\n      0x00\n        /* \"#utility.yul\":2015:2021   */\n      dup2\n        /* \"#utility.yul\":2002:2022   */\n      calldataload\n        /* \"#utility.yul\":1993:2022   */\n      swap1\n      pop\n        /* \"#utility.yul\":2031:2064   */\n      tag_326\n        /* \"#utility.yul\":2058:2063   */\n      dup2\n        /* \"#utility.yul\":2031:2064   */\n      tag_251\n      jump\t// in\n    tag_326:\n        /* \"#utility.yul\":1931:2070   */\n      swap3\n      swap2\n      pop\n      pop\n      jump\t// out\n        /* \"#utility.yul\":2076:2153   */\n    tag_253:\n        /* \"#utility.yul\":2113:2120   */\n      0x00\n        /* \"#utility.yul\":2142:2147   */\n      dup2\n        /* \"#utility.yul\":2131:2147   */\n      swap1\n      pop\n        /* \"#utility.yul\":2076:2153   */\n      swap2\n      swap1\n      pop\n      jump\t// out\n        /* \"#utility.yul\":2159:2281   */\n    tag_254:\n        /* \"#utility.yul\":2232:2256   */\n      tag_329\n        /* \"#utility.yul\":2250:2255   */\n      dup2\n        /* \"#utility.yul\":2232:2256   */\n      tag_253\n      jump\t// in\n    tag_329:\n        /* \"#utility.yul\":2225:2230   */\n      dup2\n        /* \"#utility.yul\":2222:2257   */\n      eq\n        /* \"#utility.yul\":2212:2275   */\n      tag_330\n      jumpi\n        /* \"#utility.yul\":2271:2272   */\n      0x00\n        /* \"#utility.yul\":2268:2269   */\n      dup1\n        /* \"#utility.yul\":2261:2273   */\n      revert\n        /* \"#utility.yul\":2212:2275   */\n    tag_330:\n        /* \"#utility.yul\":2159:2281   */\n      pop\n      jump\t// out\n        /* \"#utility.yul\":2287:2426   */\n    tag_255:\n        /* \"#utility.yul\":2333:2338   */\n      0x00\n        /* \"#utility.yul\":2371:2377   */\n      dup2\n        /* \"#utility.yul\":2358:2378   */\n      calldataload\n        /* \"#utility.yul\":2349:2378   */\n      swap1\n      pop\n        /* \"#utility.yul\":2387:2420   */\n      tag_332\n        /* \"#utility.yul\":2414:2419   */\n      dup2\n        /* \"#utility.yul\":2387:2420   */\n      tag_254\n      jump\t// in\n    tag_332:\n        /* \"#utility.yul\":2287:2426   */\n      swap3\n      swap2\n      pop\n      pop\n      jump\t// out\n        /* \"#utility.yul\":2432:2906   */\n    tag_26:\n        /* \"#utility.yul\":2500:2506   */\n      0x00\n        /* \"#utility.yul\":2508:2514   */\n      dup1\n        /* \"#utility.yul\":2557:2559   */\n      0x40\n        /* \"#utility.yul\":2545:2554   */\n      dup4\n        /* \"#utility.yul\":2536:2543   */\n      dup6\n        /* \"#utility.yul\":2532:2555   */\n      sub\n        /* \"#utility.yul\":2528:2560   */\n      slt\n        /* \"#utility.yul\":2525:2644   */\n      iszero\n      tag_334\n      jumpi\n        /* \"#utility.yul\":2563:2642   */\n      tag_335\n      tag_247\n      jump\t// in\n    tag_335:\n        /* \"#utility.yul\":2525:2644   */\n    tag_334:\n        /* \"#utility.yul\":2683:2684   */\n      0x00\n        /* \"#utility.yul\":2708:2761   */\n      tag_336\n        /* \"#utility.yul\":2753:2760   */\n      dup6\n        /* \"#utility.yul\":2744:2750   */\n      dup3\n        /* \"#utility.yul\":2733:2742   */\n      dup7\n        /* \"#utility.yul\":2729:2751   */\n      add\n        /* \"#utility.yul\":2708:2761   */\n      tag_252\n      jump\t// in\n    tag_336:\n        /* \"#utility.yul\":2698:2761   */\n      swap3\n      pop\n        /* \"#utility.yul\":2654:2771   */\n      pop\n        /* \"#utility.yul\":2810:2812   */\n      0x20\n        /* \"#utility.yul\":2836:2889   */\n      tag_337\n        /* \"#utility.yul\":2881:2888   */\n      dup6\n        /* \"#utility.yul\":2872:2878   */\n      dup3\n        /* \"#utility.yul\":2861:2870   */\n      dup7\n        /* \"#utility.yul\":2857:2879   */\n      add\n        /* \"#utility.yul\":2836:2889   */\n      tag_255\n      jump\t// in\n    tag_337:\n        /* \"#utility.yul\":2826:2889   */\n      swap2\n      pop\n        /* \"#utility.yul\":2781:2899   */\n      pop\n        /* \"#utility.yul\":2432:2906   */\n      swap3\n      pop\n      swap3\n      swap1\n      pop\n      jump\t// out\n        /* \"#utility.yul\":2912:3002   */\n    tag_256:\n        /* \"#utility.yul\":2946:2953   */\n      0x00\n        /* \"#utility.yul\":2989:2994   */\n      dup2\n        /* \"#utility.yul\":2982:2995   */\n      iszero\n        /* \"#utility.yul\":2975:2996   */\n      iszero\n        /* \"#utility.yul\":2964:2996   */\n      swap1\n      pop\n        /* \"#utility.yul\":2912:3002   */\n      swap2\n      swap1\n      pop\n      jump\t// out\n        /* \"#utility.yul\":3008:3117   */\n    tag_257:\n        /* \"#utility.yul\":3089:3110   */\n      tag_340\n        /* \"#utility.yul\":3104:3109   */\n      dup2\n        /* \"#utility.yul\":3089:3110   */\n      tag_256\n      jump\t// in\n    tag_340:\n        /* \"#utility.yul\":3084:3087   */\n      dup3\n        /* \"#utility.yul\":3077:3111   */\n      mstore\n        /* \"#utility.yul\":3008:3117   */\n      pop\n      pop\n      jump\t// out\n        /* \"#utility.yul\":3123:3333   */\n    tag_29:\n        /* \"#utility.yul\":3210:3214   */\n      0x00\n        /* \"#utility.yul\":3248:3250   */\n      0x20\n        /* \"#utility.yul\":3237:3246   */\n      dup3\n        /* \"#utility.yul\":3233:3251   */\n      add\n        /* \"#utility.yul\":3225:3251   */\n      swap1\n      pop\n        /* \"#utility.yul\":3261:3326   */\n      tag_342\n        /* \"#utility.yul\":3323:3324   */\n      0x00\n        /* \"#utility.yul\":3312:3321   */\n      dup4\n        /* \"#utility.yul\":3308:3325   */\n      add\n        /* \"#utility.yul\":3299:3305   */\n      dup5\n        /* \"#utility.yul\":3261:3326   */\n      tag_257\n      jump\t// in\n    tag_342:\n        /* \"#utility.yul\":3123:3333   */\n      swap3\n      swap2\n      pop\n      pop\n      jump\t// out\n        /* \"#utility.yul\":3339:3457   */\n    tag_258:\n        /* \"#utility.yul\":3426:3450   */\n      tag_344\n        /* \"#utility.yul\":3444:3449   */\n      dup2\n        /* \"#utility.yul\":3426:3450   */\n      tag_253\n      jump\t// in\n    tag_344:\n        /* \"#utility.yul\":3421:3424   */\n      dup3\n        /* \"#utility.yul\":3414:3451   */\n      mstore\n        /* \"#utility.yul\":3339:3457   */\n      pop\n      pop\n      jump\t// out\n        /* \"#utility.yul\":3463:3685   */\n    tag_33:\n        /* \"#utility.yul\":3556:3560   */\n      0x00\n        /* \"#utility.yul\":3594:3596   */\n      0x20\n        /* \"#utility.yul\":3583:3592   */\n      dup3\n        /* \"#utility.yul\":3579:3597   */\n      add\n        /* \"#utility.yul\":3571:3597   */\n      swap1\n      pop\n        /* \"#utility.yul\":3607:3678   */\n      tag_346\n        /* \"#utility.yul\":3675:3676   */\n      0x00\n        /* \"#utility.yul\":3664:3673   */\n      dup4\n        /* \"#utility.yul\":3660:3677   */\n      add\n        /* \"#utility.yul\":3651:3657   */\n      dup5\n        /* \"#utility.yul\":3607:3678   */\n      tag_258\n      jump\t// in\n    tag_346:\n        /* \"#utility.yul\":3463:3685   */\n      swap3\n      swap2\n      pop\n      pop\n      jump\t// out\n        /* \"#utility.yul\":3691:4310   */\n    tag_36:\n        /* \"#utility.yul\":3768:3774   */\n      0x00\n        /* \"#utility.yul\":3776:3782   */\n      dup1\n        /* \"#utility.yul\":3784:3790   */\n      0x00\n        /* \"#utility.yul\":3833:3835   */\n      0x60\n        /* \"#utility.yul\":3821:3830   */\n      dup5\n        /* \"#utility.yul\":3812:3819   */\n      dup7\n        /* \"#utility.yul\":3808:3831   */\n      sub\n        /* \"#utility.yul\":3804:3836   */\n      slt\n        /* \"#utility.yul\":3801:3920   */\n      iszero\n      tag_348\n      jumpi\n        /* \"#utility.yul\":3839:3918   */\n      tag_349\n      tag_247\n      jump\t// in\n    tag_349:\n        /* \"#utility.yul\":3801:3920   */\n    tag_348:\n        /* \"#utility.yul\":3959:3960   */\n      0x00\n        /* \"#utility.yul\":3984:4037   */\n      tag_350\n        /* \"#utility.yul\":4029:4036   */\n      dup7\n        /* \"#utility.yul\":4020:4026   */\n      dup3\n        /* \"#utility.yul\":4009:4018   */\n      dup8\n        /* \"#utility.yul\":4005:4027   */\n      add\n        /* \"#utility.yul\":3984:4037   */\n      tag_252\n      jump\t// in\n    tag_350:\n        /* \"#utility.yul\":3974:4037   */\n      swap4\n      pop\n        /* \"#utility.yul\":3930:4047   */\n      pop\n        /* \"#utility.yul\":4086:4088   */\n      0x20\n        /* \"#utility.yul\":4112:4165   */\n      tag_351\n        /* \"#utility.yul\":4157:4164   */\n      dup7\n        /* \"#utility.yul\":4148:4154   */\n      dup3\n        /* \"#utility.yul\":4137:4146   */\n      dup8\n        /* \"#utility.yul\":4133:4155   */\n      add\n        /* \"#utility.yul\":4112:4165   */\n      tag_252\n      jump\t// in\n    tag_351:\n        /* \"#utility.yul\":4102:4165   */\n      swap3\n      pop\n        /* \"#utility.yul\":4057:4175   */\n      pop\n        /* \"#utility.yul\":4214:4216   */\n      0x40\n        /* \"#utility.yul\":4240:4293   */\n      tag_352\n        /* \"#utility.yul\":4285:4292   */\n      dup7\n        /* \"#utility.yul\":4276:4282   */\n      dup3\n        /* \"#utility.yul\":4265:4274   */\n      dup8\n        /* \"#utility.yul\":4261:4283   */\n      add\n        /* \"#utility.yul\":4240:4293   */\n      tag_255\n      jump\t// in\n    tag_352:\n        /* \"#utility.yul\":4230:4293   */\n      swap2\n      pop\n        /* \"#utility.yul\":4185:4303   */\n      pop\n        /* \"#utility.yul\":3691:4310   */\n      swap3\n      pop\n      swap3\n      pop\n      swap3\n      jump\t// out\n        /* \"#utility.yul\":4316:4402   */\n    tag_259:\n        /* \"#utility.yul\":4351:4358   */\n      0x00\n        /* \"#utility.yul\":4391:4395   */\n      0xff\n        /* \"#utility.yul\":4384:4389   */\n      dup3\n        /* \"#utility.yul\":4380:4396   */\n      and\n        /* \"#utility.yul\":4369:4396   */\n      swap1\n      pop\n        /* \"#utility.yul\":4316:4402   */\n      swap2\n      swap1\n      pop\n      jump\t// out\n        /* \"#utility.yul\":4408:4520   */\n    tag_260:\n        /* \"#utility.yul\":4491:4513   */\n      tag_355\n        /* \"#utility.yul\":4507:4512   */\n      dup2\n        /* \"#utility.yul\":4491:4513   */\n      tag_259\n      jump\t// in\n    tag_355:\n        /* \"#utility.yul\":4486:4489   */\n      dup3\n        /* \"#utility.yul\":4479:4514   */\n      mstore\n        /* \"#utility.yul\":4408:4520   */\n      pop\n      pop\n      jump\t// out\n        /* \"#utility.yul\":4526:4740   */\n    tag_42:\n        /* \"#utility.yul\":4615:4619   */\n      0x00\n        /* \"#utility.yul\":4653:4655   */\n      0x20\n        /* \"#utility.yul\":4642:4651   */\n      dup3\n        /* \"#utility.yul\":4638:4656   */\n      add\n        /* \"#utility.yul\":4630:4656   */\n      swap1\n      pop\n        /* \"#utility.yul\":4666:4733   */\n      tag_357\n        /* \"#utility.yul\":4730:4731   */\n      0x00\n        /* \"#utility.yul\":4719:4728   */\n      dup4\n        /* \"#utility.yul\":4715:4732   */\n      add\n        /* \"#utility.yul\":4706:4712   */\n      dup5\n        /* \"#utility.yul\":4666:4733   */\n      tag_260\n      jump\t// in\n    tag_357:\n        /* \"#utility.yul\":4526:4740   */\n      swap3\n      swap2\n      pop\n      pop\n      jump\t// out\n        /* \"#utility.yul\":4746:5075   */\n    tag_47:\n        /* \"#utility.yul\":4805:4811   */\n      0x00\n        /* \"#utility.yul\":4854:4856   */\n      0x20\n        /* \"#utility.yul\":4842:4851   */\n      dup3\n        /* \"#utility.yul\":4833:4840   */\n      dup5\n        /* \"#utility.yul\":4829:4852   */\n      sub\n        /* \"#utility.yul\":4825:4857   */\n      slt\n        /* \"#utility.yul\":4822:4941   */\n      iszero\n      tag_359\n      jumpi\n        /* \"#utility.yul\":4860:4939   */\n      tag_360\n      tag_247\n      jump\t// in\n    tag_360:\n        /* \"#utility.yul\":4822:4941   */\n    tag_359:\n        /* \"#utility.yul\":4980:4981   */\n      0x00\n        /* \"#utility.yul\":5005:5058   */\n      tag_361\n        /* \"#utility.yul\":5050:5057   */\n      dup5\n        /* \"#utility.yul\":5041:5047   */\n      dup3\n        /* \"#utility.yul\":5030:5039   */\n      dup6\n        /* \"#utility.yul\":5026:5048   */\n      add\n        /* \"#utility.yul\":5005:5058   */\n      tag_252\n      jump\t// in\n    tag_361:\n        /* \"#utility.yul\":4995:5058   */\n      swap2\n      pop\n        /* \"#utility.yul\":4951:5068   */\n      pop\n        /* \"#utility.yul\":4746:5075   */\n      swap3\n      swap2\n      pop\n      pop\n      jump\t// out\n        /* \"#utility.yul\":5081:5198   */\n    tag_261:\n        /* \"#utility.yul\":5190:5191   */\n      0x00\n        /* \"#utility.yul\":5187:5188   */\n      dup1\n        /* \"#utility.yul\":5180:5192   */\n      revert\n        /* \"#utility.yul\":5204:5321   */\n    tag_262:\n        /* \"#utility.yul\":5313:5314   */\n      0x00\n        /* \"#utility.yul\":5310:5311   */\n      dup1\n        /* \"#utility.yul\":5303:5315   */\n      revert\n        /* \"#utility.yul\":5327:5507   */\n    tag_263:\n        /* \"#utility.yul\":5375:5452   */\n      0x4e487b7100000000000000000000000000000000000000000000000000000000\n        /* \"#utility.yul\":5372:5373   */\n      0x00\n        /* \"#utility.yul\":5365:5453   */\n      mstore\n        /* \"#utility.yul\":5472:5476   */\n      0x41\n        /* \"#utility.yul\":5469:5470   */\n      0x04\n        /* \"#utility.yul\":5462:5477   */\n      mstore\n        /* \"#utility.yul\":5496:5500   */\n      0x24\n        /* \"#utility.yul\":5493:5494   */\n      0x00\n        /* \"#utility.yul\":5486:5501   */\n      revert\n        /* \"#utility.yul\":5513:5794   */\n    tag_264:\n        /* \"#utility.yul\":5596:5623   */\n      tag_366\n        /* \"#utility.yul\":5618:5622   */\n      dup3\n        /* \"#utility.yul\":5596:5623   */\n      tag_244\n      jump\t// in\n    tag_366:\n        /* \"#utility.yul\":5588:5594   */\n      dup2\n        /* \"#utility.yul\":5584:5624   */\n      add\n        /* \"#utility.yul\":5726:5732   */\n      dup2\n        /* \"#utility.yul\":5714:5724   */\n      dup2\n        /* \"#utility.yul\":5711:5733   */\n      lt\n        /* \"#utility.yul\":5690:5708   */\n      0xffffffffffffffff\n        /* \"#utility.yul\":5678:5688   */\n      dup3\n        /* \"#utility.yul\":5675:5709   */\n      gt\n        /* \"#utility.yul\":5672:5734   */\n      or\n        /* \"#utility.yul\":5669:5757   */\n      iszero\n      tag_367\n      jumpi\n        /* \"#utility.yul\":5737:5755   */\n      tag_368\n      tag_263\n      jump\t// in\n    tag_368:\n        /* \"#utility.yul\":5669:5757   */\n    tag_367:\n        /* \"#utility.yul\":5777:5787   */\n      dup1\n        /* \"#utility.yul\":5773:5775   */\n      0x40\n        /* \"#utility.yul\":5766:5788   */\n      mstore\n        /* \"#utility.yul\":5556:5794   */\n      pop\n        /* \"#utility.yul\":5513:5794   */\n      pop\n      pop\n      jump\t// out\n        /* \"#utility.yul\":5800:5929   */\n    tag_265:\n        /* \"#utility.yul\":5834:5840   */\n      0x00\n        /* \"#utility.yul\":5861:5881   */\n      tag_370\n      tag_246\n      jump\t// in\n    tag_370:\n        /* \"#utility.yul\":5851:5881   */\n      swap1\n      pop\n        /* \"#utility.yul\":5890:5923   */\n      tag_371\n        /* \"#utility.yul\":5918:5922   */\n      dup3\n        /* \"#utility.yul\":5910:5916   */\n      dup3\n        /* \"#utility.yul\":5890:5923   */\n      tag_264\n      jump\t// in\n    tag_371:\n        /* \"#utility.yul\":5800:5929   */\n      swap2\n      swap1\n      pop\n      jump\t// out\n        /* \"#utility.yul\":5935:6243   */\n    tag_266:\n        /* \"#utility.yul\":5997:6001   */\n      0x00\n        /* \"#utility.yul\":6087:6105   */\n      0xffffffffffffffff\n        /* \"#utility.yul\":6079:6085   */\n      dup3\n        /* \"#utility.yul\":6076:6106   */\n      gt\n        /* \"#utility.yul\":6073:6129   */\n      iszero\n      tag_373\n      jumpi\n        /* \"#utility.yul\":6109:6127   */\n      tag_374\n      tag_263\n      jump\t// in\n    tag_374:\n        /* \"#utility.yul\":6073:6129   */\n    tag_373:\n        /* \"#utility.yul\":6147:6176   */\n      tag_375\n        /* \"#utility.yul\":6169:6175   */\n      dup3\n        /* \"#utility.yul\":6147:6176   */\n      tag_244\n      jump\t// in\n    tag_375:\n        /* \"#utility.yul\":6139:6176   */\n      swap1\n      pop\n        /* \"#utility.yul\":6231:6235   */\n      0x20\n        /* \"#utility.yul\":6225:6229   */\n      dup2\n        /* \"#utility.yul\":6221:6236   */\n      add\n        /* \"#utility.yul\":6213:6236   */\n      swap1\n      pop\n        /* \"#utility.yul\":5935:6243   */\n      swap2\n      swap1\n      pop\n      jump\t// out\n        /* \"#utility.yul\":6249:6397   */\n    tag_267:\n        /* \"#utility.yul\":6347:6353   */\n      dup3\n        /* \"#utility.yul\":6342:6345   */\n      dup2\n        /* \"#utility.yul\":6337:6340   */\n      dup4\n        /* \"#utility.yul\":6324:6354   */\n      calldatacopy\n        /* \"#utility.yul\":6388:6389   */\n      0x00\n        /* \"#utility.yul\":6379:6385   */\n      dup4\n        /* \"#utility.yul\":6374:6377   */\n      dup4\n        /* \"#utility.yul\":6370:6386   */\n      add\n        /* \"#utility.yul\":6363:6390   */\n      mstore\n        /* \"#utility.yul\":6249:6397   */\n      pop\n      pop\n      pop\n      jump\t// out\n        /* \"#utility.yul\":6403:6828   */\n    tag_268:\n        /* \"#utility.yul\":6481:6486   */\n      0x00\n        /* \"#utility.yul\":6506:6572   */\n      tag_378\n        /* \"#utility.yul\":6522:6571   */\n      tag_379\n        /* \"#utility.yul\":6564:6570   */\n      dup5\n        /* \"#utility.yul\":6522:6571   */\n      tag_266\n      jump\t// in\n    tag_379:\n        /* \"#utility.yul\":6506:6572   */\n      tag_265\n      jump\t// in\n    tag_378:\n        /* \"#utility.yul\":6497:6572   */\n      swap1\n      pop\n        /* \"#utility.yul\":6595:6601   */\n      dup3\n        /* \"#utility.yul\":6588:6593   */\n      dup2\n        /* \"#utility.yul\":6581:6602   */\n      mstore\n        /* \"#utility.yul\":6633:6637   */\n      0x20\n        /* \"#utility.yul\":6626:6631   */\n      dup2\n        /* \"#utility.yul\":6622:6638   */\n      add\n        /* \"#utility.yul\":6671:6674   */\n      dup5\n        /* \"#utility.yul\":6662:6668   */\n      dup5\n        /* \"#utility.yul\":6657:6660   */\n      dup5\n        /* \"#utility.yul\":6653:6669   */\n      add\n        /* \"#utility.yul\":6650:6675   */\n      gt\n        /* \"#utility.yul\":6647:6759   */\n      iszero\n      tag_380\n      jumpi\n        /* \"#utility.yul\":6678:6757   */\n      tag_381\n      tag_262\n      jump\t// in\n    tag_381:\n        /* \"#utility.yul\":6647:6759   */\n    tag_380:\n        /* \"#utility.yul\":6768:6822   */\n      tag_382\n        /* \"#utility.yul\":6815:6821   */\n      dup5\n        /* \"#utility.yul\":6810:6813   */\n      dup3\n        /* \"#utility.yul\":6805:6808   */\n      dup6\n        /* \"#utility.yul\":6768:6822   */\n      tag_267\n      jump\t// in\n    tag_382:\n        /* \"#utility.yul\":6487:6828   */\n      pop\n        /* \"#utility.yul\":6403:6828   */\n      swap4\n      swap3\n      pop\n      pop\n      pop\n      jump\t// out\n        /* \"#utility.yul\":6848:7188   */\n    tag_269:\n        /* \"#utility.yul\":6904:6909   */\n      0x00\n        /* \"#utility.yul\":6953:6956   */\n      dup3\n        /* \"#utility.yul\":6946:6950   */\n      0x1f\n        /* \"#utility.yul\":6938:6944   */\n      dup4\n        /* \"#utility.yul\":6934:6951   */\n      add\n        /* \"#utility.yul\":6930:6957   */\n      slt\n        /* \"#utility.yul\":6920:7042   */\n      tag_384\n      jumpi\n        /* \"#utility.yul\":6961:7040   */\n      tag_385\n      tag_261\n      jump\t// in\n    tag_385:\n        /* \"#utility.yul\":6920:7042   */\n    tag_384:\n        /* \"#utility.yul\":7078:7084   */\n      dup2\n        /* \"#utility.yul\":7065:7085   */\n      calldataload\n        /* \"#utility.yul\":7103:7182   */\n      tag_386\n        /* \"#utility.yul\":7178:7181   */\n      dup5\n        /* \"#utility.yul\":7170:7176   */\n      dup3\n        /* \"#utility.yul\":7163:7167   */\n      0x20\n        /* \"#utility.yul\":7155:7161   */\n      dup7\n        /* \"#utility.yul\":7151:7168   */\n      add\n        /* \"#utility.yul\":7103:7182   */\n      tag_268\n      jump\t// in\n    tag_386:\n        /* \"#utility.yul\":7094:7182   */\n      swap2\n      pop\n        /* \"#utility.yul\":6910:7188   */\n      pop\n        /* \"#utility.yul\":6848:7188   */\n      swap3\n      swap2\n      pop\n      pop\n      jump\t// out\n        /* \"#utility.yul\":7194:7848   */\n    tag_52:\n        /* \"#utility.yul\":7272:7278   */\n      0x00\n        /* \"#utility.yul\":7280:7286   */\n      dup1\n        /* \"#utility.yul\":7329:7331   */\n      0x40\n        /* \"#utility.yul\":7317:7326   */\n      dup4\n        /* \"#utility.yul\":7308:7315   */\n      dup6\n        /* \"#utility.yul\":7304:7327   */\n      sub\n        /* \"#utility.yul\":7300:7332   */\n      slt\n        /* \"#utility.yul\":7297:7416   */\n      iszero\n      tag_388\n      jumpi\n        /* \"#utility.yul\":7335:7414   */\n      tag_389\n      tag_247\n      jump\t// in\n    tag_389:\n        /* \"#utility.yul\":7297:7416   */\n    tag_388:\n        /* \"#utility.yul\":7483:7484   */\n      0x00\n        /* \"#utility.yul\":7472:7481   */\n      dup4\n        /* \"#utility.yul\":7468:7485   */\n      add\n        /* \"#utility.yul\":7455:7486   */\n      calldataload\n        /* \"#utility.yul\":7513:7531   */\n      0xffffffffffffffff\n        /* \"#utility.yul\":7505:7511   */\n      dup2\n        /* \"#utility.yul\":7502:7532   */\n      gt\n        /* \"#utility.yul\":7499:7616   */\n      iszero\n      tag_390\n      jumpi\n        /* \"#utility.yul\":7535:7614   */\n      tag_391\n      tag_248\n      jump\t// in\n    tag_391:\n        /* \"#utility.yul\":7499:7616   */\n    tag_390:\n        /* \"#utility.yul\":7640:7703   */\n      tag_392\n        /* \"#utility.yul\":7695:7702   */\n      dup6\n        /* \"#utility.yul\":7686:7692   */\n      dup3\n        /* \"#utility.yul\":7675:7684   */\n      dup7\n        /* \"#utility.yul\":7671:7693   */\n      add\n        /* \"#utility.yul\":7640:7703   */\n      tag_269\n      jump\t// in\n    tag_392:\n        /* \"#utility.yul\":7630:7703   */\n      swap3\n      pop\n        /* \"#utility.yul\":7426:7713   */\n      pop\n        /* \"#utility.yul\":7752:7754   */\n      0x20\n        /* \"#utility.yul\":7778:7831   */\n      tag_393\n        /* \"#utility.yul\":7823:7830   */\n      dup6\n        /* \"#utility.yul\":7814:7820   */\n      dup3\n        /* \"#utility.yul\":7803:7812   */\n      dup7\n        /* \"#utility.yul\":7799:7821   */\n      add\n        /* \"#utility.yul\":7778:7831   */\n      tag_255\n      jump\t// in\n    tag_393:\n        /* \"#utility.yul\":7768:7831   */\n      swap2\n      pop\n        /* \"#utility.yul\":7723:7841   */\n      pop\n        /* \"#utility.yul\":7194:7848   */\n      swap3\n      pop\n      swap3\n      swap1\n      pop\n      jump\t// out\n        /* \"#utility.yul\":7854:7960   */\n    tag_270:\n        /* \"#utility.yul\":7934:7935   */\n      0x03\n        /* \"#utility.yul\":7927:7932   */\n      dup2\n        /* \"#utility.yul\":7924:7936   */\n      lt\n        /* \"#utility.yul\":7914:7954   */\n      tag_395\n      jumpi\n        /* \"#utility.yul\":7950:7951   */\n      0x00\n        /* \"#utility.yul\":7947:7948   */\n      dup1\n        /* \"#utility.yul\":7940:7952   */\n      revert\n        /* \"#utility.yul\":7914:7954   */\n    tag_395:\n        /* \"#utility.yul\":7854:7960   */\n      pop\n      jump\t// out\n        /* \"#utility.yul\":7966:8119   */\n    tag_271:\n        /* \"#utility.yul\":8019:8024   */\n      0x00\n        /* \"#utility.yul\":8057:8063   */\n      dup2\n        /* \"#utility.yul\":8044:8064   */\n      calldataload\n        /* \"#utility.yul\":8035:8064   */\n      swap1\n      pop\n        /* \"#utility.yul\":8073:8113   */\n      tag_397\n        /* \"#utility.yul\":8107:8112   */\n      dup2\n        /* \"#utility.yul\":8073:8113   */\n      tag_270\n      jump\t// in\n    tag_397:\n        /* \"#utility.yul\":7966:8119   */\n      swap3\n      swap2\n      pop\n      pop\n      jump\t// out\n        /* \"#utility.yul\":8125:8613   */\n    tag_57:\n        /* \"#utility.yul\":8200:8206   */\n      0x00\n        /* \"#utility.yul\":8208:8214   */\n      dup1\n        /* \"#utility.yul\":8257:8259   */\n      0x40\n        /* \"#utility.yul\":8245:8254   */\n      dup4\n        /* \"#utility.yul\":8236:8243   */\n      dup6\n        /* \"#utility.yul\":8232:8255   */\n      sub\n        /* \"#utility.yul\":8228:8260   */\n      slt\n        /* \"#utility.yul\":8225:8344   */\n      iszero\n      tag_399\n      jumpi\n        /* \"#utility.yul\":8263:8342   */\n      tag_400\n      tag_247\n      jump\t// in\n    tag_400:\n        /* \"#utility.yul\":8225:8344   */\n    tag_399:\n        /* \"#utility.yul\":8383:8384   */\n      0x00\n        /* \"#utility.yul\":8408:8461   */\n      tag_401\n        /* \"#utility.yul\":8453:8460   */\n      dup6\n        /* \"#utility.yul\":8444:8450   */\n      dup3\n        /* \"#utility.yul\":8433:8442   */\n      dup7\n        /* \"#utility.yul\":8429:8451   */\n      add\n        /* \"#utility.yul\":8408:8461   */\n      tag_255\n      jump\t// in\n    tag_401:\n        /* \"#utility.yul\":8398:8461   */\n      swap3\n      pop\n        /* \"#utility.yul\":8354:8471   */\n      pop\n        /* \"#utility.yul\":8510:8512   */\n      0x20\n        /* \"#utility.yul\":8536:8596   */\n      tag_402\n        /* \"#utility.yul\":8588:8595   */\n      dup6\n        /* \"#utility.yul\":8579:8585   */\n      dup3\n        /* \"#utility.yul\":8568:8577   */\n      dup7\n        /* \"#utility.yul\":8564:8586   */\n      add\n        /* \"#utility.yul\":8536:8596   */\n      tag_271\n      jump\t// in\n    tag_402:\n        /* \"#utility.yul\":8526:8596   */\n      swap2\n      pop\n        /* \"#utility.yul\":8481:8606   */\n      pop\n        /* \"#utility.yul\":8125:8613   */\n      swap3\n      pop\n      swap3\n      swap1\n      pop\n      jump\t// out\n        /* \"#utility.yul\":8619:8948   */\n    tag_64:\n        /* \"#utility.yul\":8678:8684   */\n      0x00\n        /* \"#utility.yul\":8727:8729   */\n      0x20\n        /* \"#utility.yul\":8715:8724   */\n      dup3\n        /* \"#utility.yul\":8706:8713   */\n      dup5\n        /* \"#utility.yul\":8702:8725   */\n      sub\n        /* \"#utility.yul\":8698:8730   */\n      slt\n        /* \"#utility.yul\":8695:8814   */\n      iszero\n      tag_404\n      jumpi\n        /* \"#utility.yul\":8733:8812   */\n      tag_405\n      tag_247\n      jump\t// in\n    tag_405:\n        /* \"#utility.yul\":8695:8814   */\n    tag_404:\n        /* \"#utility.yul\":8853:8854   */\n      0x00\n        /* \"#utility.yul\":8878:8931   */\n      tag_406\n        /* \"#utility.yul\":8923:8930   */\n      dup5\n        /* \"#utility.yul\":8914:8920   */\n      dup3\n        /* \"#utility.yul\":8903:8912   */\n      dup6\n        /* \"#utility.yul\":8899:8921   */\n      add\n        /* \"#utility.yul\":8878:8931   */\n      tag_255\n      jump\t// in\n    tag_406:\n        /* \"#utility.yul\":8868:8931   */\n      swap2\n      pop\n        /* \"#utility.yul\":8824:8941   */\n      pop\n        /* \"#utility.yul\":8619:8948   */\n      swap3\n      swap2\n      pop\n      pop\n      jump\t// out\n        /* \"#utility.yul\":8954:9113   */\n    tag_272:\n        /* \"#utility.yul\":9028:9039   */\n      0x00\n        /* \"#utility.yul\":9062:9068   */\n      dup3\n        /* \"#utility.yul\":9057:9060   */\n      dup3\n        /* \"#utility.yul\":9050:9069   */\n      mstore\n        /* \"#utility.yul\":9102:9106   */\n      0x20\n        /* \"#utility.yul\":9097:9100   */\n      dup3\n        /* \"#utility.yul\":9093:9107   */\n      add\n        /* \"#utility.yul\":9078:9107   */\n      swap1\n      pop\n        /* \"#utility.yul\":8954:9113   */\n      swap3\n      swap2\n      pop\n      pop\n      jump\t// out\n        /* \"#utility.yul\":9119:9476   */\n    tag_273:\n        /* \"#utility.yul\":9197:9200   */\n      0x00\n        /* \"#utility.yul\":9225:9264   */\n      tag_409\n        /* \"#utility.yul\":9258:9263   */\n      dup3\n        /* \"#utility.yul\":9225:9264   */\n      tag_241\n      jump\t// in\n    tag_409:\n        /* \"#utility.yul\":9280:9341   */\n      tag_410\n        /* \"#utility.yul\":9334:9340   */\n      dup2\n        /* \"#utility.yul\":9329:9332   */\n      dup6\n        /* \"#utility.yul\":9280:9341   */\n      tag_272\n      jump\t// in\n    tag_410:\n        /* \"#utility.yul\":9273:9341   */\n      swap4\n      pop\n        /* \"#utility.yul\":9350:9415   */\n      tag_411\n        /* \"#utility.yul\":9408:9414   */\n      dup2\n        /* \"#utility.yul\":9403:9406   */\n      dup6\n        /* \"#utility.yul\":9396:9400   */\n      0x20\n        /* \"#utility.yul\":9389:9394   */\n      dup7\n        /* \"#utility.yul\":9385:9401   */\n      add\n        /* \"#utility.yul\":9350:9415   */\n      tag_243\n      jump\t// in\n    tag_411:\n        /* \"#utility.yul\":9440:9469   */\n      tag_412\n        /* \"#utility.yul\":9462:9468   */\n      dup2\n        /* \"#utility.yul\":9440:9469   */\n      tag_244\n      jump\t// in\n    tag_412:\n        /* \"#utility.yul\":9435:9438   */\n      dup5\n        /* \"#utility.yul\":9431:9470   */\n      add\n        /* \"#utility.yul\":9424:9470   */\n      swap2\n      pop\n        /* \"#utility.yul\":9201:9476   */\n      pop\n        /* \"#utility.yul\":9119:9476   */\n      swap3\n      swap2\n      pop\n      pop\n      jump\t// out\n        /* \"#utility.yul\":9482:9590   */\n    tag_274:\n        /* \"#utility.yul\":9559:9583   */\n      tag_414\n        /* \"#utility.yul\":9577:9582   */\n      dup2\n        /* \"#utility.yul\":9559:9583   */\n      tag_253\n      jump\t// in\n    tag_414:\n        /* \"#utility.yul\":9554:9557   */\n      dup3\n        /* \"#utility.yul\":9547:9584   */\n      mstore\n        /* \"#utility.yul\":9482:9590   */\n      pop\n      pop\n      jump\t// out\n        /* \"#utility.yul\":9596:9695   */\n    tag_275:\n        /* \"#utility.yul\":9667:9688   */\n      tag_416\n        /* \"#utility.yul\":9682:9687   */\n      dup2\n        /* \"#utility.yul\":9667:9688   */\n      tag_256\n      jump\t// in\n    tag_416:\n        /* \"#utility.yul\":9662:9665   */\n      dup3\n        /* \"#utility.yul\":9655:9689   */\n      mstore\n        /* \"#utility.yul\":9596:9695   */\n      pop\n      pop\n      jump\t// out\n        /* \"#utility.yul\":9775:11452   */\n    tag_276:\n        /* \"#utility.yul\":9894:9897   */\n      0x00\n        /* \"#utility.yul\":9930:9936   */\n      0x0100\n        /* \"#utility.yul\":9925:9928   */\n      dup4\n        /* \"#utility.yul\":9921:9937   */\n      add\n        /* \"#utility.yul\":10024:10028   */\n      0x00\n        /* \"#utility.yul\":10017:10022   */\n      dup4\n        /* \"#utility.yul\":10013:10029   */\n      add\n        /* \"#utility.yul\":10007:10030   */\n      mload\n        /* \"#utility.yul\":10077:10080   */\n      dup5\n        /* \"#utility.yul\":10071:10075   */\n      dup3\n        /* \"#utility.yul\":10067:10081   */\n      sub\n        /* \"#utility.yul\":10060:10064   */\n      0x00\n        /* \"#utility.yul\":10055:10058   */\n      dup7\n        /* \"#utility.yul\":10051:10065   */\n      add\n        /* \"#utility.yul\":10044:10082   */\n      mstore\n        /* \"#utility.yul\":10103:10176   */\n      tag_418\n        /* \"#utility.yul\":10171:10175   */\n      dup3\n        /* \"#utility.yul\":10157:10169   */\n      dup3\n        /* \"#utility.yul\":10103:10176   */\n      tag_273\n      jump\t// in\n    tag_418:\n        /* \"#utility.yul\":10095:10176   */\n      swap2\n      pop\n        /* \"#utility.yul\":9947:10187   */\n      pop\n        /* \"#utility.yul\":10273:10277   */\n      0x20\n        /* \"#utility.yul\":10266:10271   */\n      dup4\n        /* \"#utility.yul\":10262:10278   */\n      add\n        /* \"#utility.yul\":10256:10279   */\n      mload\n        /* \"#utility.yul\":10292:10355   */\n      tag_419\n        /* \"#utility.yul\":10349:10353   */\n      0x20\n        /* \"#utility.yul\":10344:10347   */\n      dup7\n        /* \"#utility.yul\":10340:10354   */\n      add\n        /* \"#utility.yul\":10326:10338   */\n      dup3\n        /* \"#utility.yul\":10292:10355   */\n      tag_274\n      jump\t// in\n    tag_419:\n        /* \"#utility.yul\":10197:10365   */\n      pop\n        /* \"#utility.yul\":10455:10459   */\n      0x40\n        /* \"#utility.yul\":10448:10453   */\n      dup4\n        /* \"#utility.yul\":10444:10460   */\n      add\n        /* \"#utility.yul\":10438:10461   */\n      mload\n        /* \"#utility.yul\":10474:10537   */\n      tag_420\n        /* \"#utility.yul\":10531:10535   */\n      0x40\n        /* \"#utility.yul\":10526:10529   */\n      dup7\n        /* \"#utility.yul\":10522:10536   */\n      add\n        /* \"#utility.yul\":10508:10520   */\n      dup3\n        /* \"#utility.yul\":10474:10537   */\n      tag_274\n      jump\t// in\n    tag_420:\n        /* \"#utility.yul\":10375:10547   */\n      pop\n        /* \"#utility.yul\":10637:10641   */\n      0x60\n        /* \"#utility.yul\":10630:10635   */\n      dup4\n        /* \"#utility.yul\":10626:10642   */\n      add\n        /* \"#utility.yul\":10620:10643   */\n      mload\n        /* \"#utility.yul\":10656:10719   */\n      tag_421\n        /* \"#utility.yul\":10713:10717   */\n      0x60\n        /* \"#utility.yul\":10708:10711   */\n      dup7\n        /* \"#utility.yul\":10704:10718   */\n      add\n        /* \"#utility.yul\":10690:10702   */\n      dup3\n        /* \"#utility.yul\":10656:10719   */\n      tag_274\n      jump\t// in\n    tag_421:\n        /* \"#utility.yul\":10557:10729   */\n      pop\n        /* \"#utility.yul\":10817:10821   */\n      0x80\n        /* \"#utility.yul\":10810:10815   */\n      dup4\n        /* \"#utility.yul\":10806:10822   */\n      add\n        /* \"#utility.yul\":10800:10823   */\n      mload\n        /* \"#utility.yul\":10836:10899   */\n      tag_422\n        /* \"#utility.yul\":10893:10897   */\n      0x80\n        /* \"#utility.yul\":10888:10891   */\n      dup7\n        /* \"#utility.yul\":10884:10898   */\n      add\n        /* \"#utility.yul\":10870:10882   */\n      dup3\n        /* \"#utility.yul\":10836:10899   */\n      tag_274\n      jump\t// in\n    tag_422:\n        /* \"#utility.yul\":10739:10909   */\n      pop\n        /* \"#utility.yul\":10993:10997   */\n      0xa0\n        /* \"#utility.yul\":10986:10991   */\n      dup4\n        /* \"#utility.yul\":10982:10998   */\n      add\n        /* \"#utility.yul\":10976:10999   */\n      mload\n        /* \"#utility.yul\":11012:11075   */\n      tag_423\n        /* \"#utility.yul\":11069:11073   */\n      0xa0\n        /* \"#utility.yul\":11064:11067   */\n      dup7\n        /* \"#utility.yul\":11060:11074   */\n      add\n        /* \"#utility.yul\":11046:11058   */\n      dup3\n        /* \"#utility.yul\":11012:11075   */\n      tag_274\n      jump\t// in\n    tag_423:\n        /* \"#utility.yul\":10919:11085   */\n      pop\n        /* \"#utility.yul\":11169:11173   */\n      0xc0\n        /* \"#utility.yul\":11162:11167   */\n      dup4\n        /* \"#utility.yul\":11158:11174   */\n      add\n        /* \"#utility.yul\":11152:11175   */\n      mload\n        /* \"#utility.yul\":11188:11245   */\n      tag_424\n        /* \"#utility.yul\":11239:11243   */\n      0xc0\n        /* \"#utility.yul\":11234:11237   */\n      dup7\n        /* \"#utility.yul\":11230:11244   */\n      add\n        /* \"#utility.yul\":11216:11228   */\n      dup3\n        /* \"#utility.yul\":11188:11245   */\n      tag_275\n      jump\t// in\n    tag_424:\n        /* \"#utility.yul\":11095:11255   */\n      pop\n        /* \"#utility.yul\":11339:11343   */\n      0xe0\n        /* \"#utility.yul\":11332:11337   */\n      dup4\n        /* \"#utility.yul\":11328:11344   */\n      add\n        /* \"#utility.yul\":11322:11345   */\n      mload\n        /* \"#utility.yul\":11358:11415   */\n      tag_425\n        /* \"#utility.yul\":11409:11413   */\n      0xe0\n        /* \"#utility.yul\":11404:11407   */\n      dup7\n        /* \"#utility.yul\":11400:11414   */\n      add\n        /* \"#utility.yul\":11386:11398   */\n      dup3\n        /* \"#utility.yul\":11358:11415   */\n      tag_275\n      jump\t// in\n    tag_425:\n        /* \"#utility.yul\":11265:11425   */\n      pop\n        /* \"#utility.yul\":11442:11446   */\n      dup1\n        /* \"#utility.yul\":11435:11446   */\n      swap2\n      pop\n        /* \"#utility.yul\":9899:11452   */\n      pop\n        /* \"#utility.yul\":9775:11452   */\n      swap3\n      swap2\n      pop\n      pop\n      jump\t// out\n        /* \"#utility.yul\":11458:11831   */\n    tag_67:\n        /* \"#utility.yul\":11601:11605   */\n      0x00\n        /* \"#utility.yul\":11639:11641   */\n      0x20\n        /* \"#utility.yul\":11628:11637   */\n      dup3\n        /* \"#utility.yul\":11624:11642   */\n      add\n        /* \"#utility.yul\":11616:11642   */\n      swap1\n      pop\n        /* \"#utility.yul\":11688:11697   */\n      dup2\n        /* \"#utility.yul\":11682:11686   */\n      dup2\n        /* \"#utility.yul\":11678:11698   */\n      sub\n        /* \"#utility.yul\":11674:11675   */\n      0x00\n        /* \"#utility.yul\":11663:11672   */\n      dup4\n        /* \"#utility.yul\":11659:11676   */\n      add\n        /* \"#utility.yul\":11652:11699   */\n      mstore\n        /* \"#utility.yul\":11716:11824   */\n      tag_427\n        /* \"#utility.yul\":11819:11823   */\n      dup2\n        /* \"#utility.yul\":11810:11816   */\n      dup5\n        /* \"#utility.yul\":11716:11824   */\n      tag_276\n      jump\t// in\n    tag_427:\n        /* \"#utility.yul\":11708:11824   */\n      swap1\n      pop\n        /* \"#utility.yul\":11458:11831   */\n      swap3\n      swap2\n      pop\n      pop\n      jump\t// out\n        /* \"#utility.yul\":11837:12311   */\n    tag_77:\n        /* \"#utility.yul\":11905:11911   */\n      0x00\n        /* \"#utility.yul\":11913:11919   */\n      dup1\n        /* \"#utility.yul\":11962:11964   */\n      0x40\n        /* \"#utility.yul\":11950:11959   */\n      dup4\n        /* \"#utility.yul\":11941:11948   */\n      dup6\n        /* \"#utility.yul\":11937:11960   */\n      sub\n        /* \"#utility.yul\":11933:11965   */\n      slt\n        /* \"#utility.yul\":11930:12049   */\n      iszero\n      tag_429\n      jumpi\n        /* \"#utility.yul\":11968:12047   */\n      tag_430\n      tag_247\n      jump\t// in\n    tag_430:\n        /* \"#utility.yul\":11930:12049   */\n    tag_429:\n        /* \"#utility.yul\":12088:12089   */\n      0x00\n        /* \"#utility.yul\":12113:12166   */\n      tag_431\n        /* \"#utility.yul\":12158:12165   */\n      dup6\n        /* \"#utility.yul\":12149:12155   */\n      dup3\n        /* \"#utility.yul\":12138:12147   */\n      dup7\n        /* \"#utility.yul\":12134:12156   */\n      add\n        /* \"#utility.yul\":12113:12166   */\n      tag_252\n      jump\t// in\n    tag_431:\n        /* \"#utility.yul\":12103:12166   */\n      swap3\n      pop\n        /* \"#utility.yul\":12059:12176   */\n      pop\n        /* \"#utility.yul\":12215:12217   */\n      0x20\n        /* \"#utility.yul\":12241:12294   */\n      tag_432\n        /* \"#utility.yul\":12286:12293   */\n      dup6\n        /* \"#utility.yul\":12277:12283   */\n      dup3\n        /* \"#utility.yul\":12266:12275   */\n      dup7\n        /* \"#utility.yul\":12262:12284   */\n      add\n        /* \"#utility.yul\":12241:12294   */\n      tag_252\n      jump\t// in\n    tag_432:\n        /* \"#utility.yul\":12231:12294   */\n      swap2\n      pop\n        /* \"#utility.yul\":12186:12304   */\n      pop\n        /* \"#utility.yul\":11837:12311   */\n      swap3\n      pop\n      swap3\n      swap1\n      pop\n      jump\t// out\n        /* \"#utility.yul\":12317:12497   */\n    tag_277:\n        /* \"#utility.yul\":12365:12442   */\n      0x4e487b7100000000000000000000000000000000000000000000000000000000\n        /* \"#utility.yul\":12362:12363   */\n      0x00\n        /* \"#utility.yul\":12355:12443   */\n      mstore\n        /* \"#utility.yul\":12462:12466   */\n      0x22\n        /* \"#utility.yul\":12459:12460   */\n      0x04\n        /* \"#utility.yul\":12452:12467   */\n      mstore\n        /* \"#utility.yul\":12486:12490   */\n      0x24\n        /* \"#utility.yul\":12483:12484   */\n      0x00\n        /* \"#utility.yul\":12476:12491   */\n      revert\n        /* \"#utility.yul\":12503:12823   */\n    tag_82:\n        /* \"#utility.yul\":12547:12553   */\n      0x00\n        /* \"#utility.yul\":12584:12585   */\n      0x02\n        /* \"#utility.yul\":12578:12582   */\n      dup3\n        /* \"#utility.yul\":12574:12586   */\n      div\n        /* \"#utility.yul\":12564:12586   */\n      swap1\n      pop\n        /* \"#utility.yul\":12631:12632   */\n      0x01\n        /* \"#utility.yul\":12625:12629   */\n      dup3\n        /* \"#utility.yul\":12621:12633   */\n      and\n        /* \"#utility.yul\":12652:12670   */\n      dup1\n        /* \"#utility.yul\":12642:12723   */\n      tag_435\n      jumpi\n        /* \"#utility.yul\":12708:12712   */\n      0x7f\n        /* \"#utility.yul\":12700:12706   */\n      dup3\n        /* \"#utility.yul\":12696:12713   */\n      and\n        /* \"#utility.yul\":12686:12713   */\n      swap2\n      pop\n        /* \"#utility.yul\":12642:12723   */\n    tag_435:\n        /* \"#utility.yul\":12770:12772   */\n      0x20\n        /* \"#utility.yul\":12762:12768   */\n      dup3\n        /* \"#utility.yul\":12759:12773   */\n      lt\n        /* \"#utility.yul\":12739:12757   */\n      dup2\n        /* \"#utility.yul\":12736:12774   */\n      sub\n        /* \"#utility.yul\":12733:12817   */\n      tag_436\n      jumpi\n        /* \"#utility.yul\":12789:12807   */\n      tag_437\n      tag_277\n      jump\t// in\n    tag_437:\n        /* \"#utility.yul\":12733:12817   */\n    tag_436:\n        /* \"#utility.yul\":12554:12823   */\n      pop\n        /* \"#utility.yul\":12503:12823   */\n      swap2\n      swap1\n      pop\n      jump\t// out\n        /* \"#utility.yul\":12829:13009   */\n    tag_278:\n        /* \"#utility.yul\":12877:12954   */\n      0x4e487b7100000000000000000000000000000000000000000000000000000000\n        /* \"#utility.yul\":12874:12875   */\n      0x00\n        /* \"#utility.yul\":12867:12955   */\n      mstore\n        /* \"#utility.yul\":12974:12978   */\n      0x11\n        /* \"#utility.yul\":12971:12972   */\n      0x04\n        /* \"#utility.yul\":12964:12979   */\n      mstore\n        /* \"#utility.yul\":12998:13002   */\n      0x24\n        /* \"#utility.yul\":12995:12996   */\n      0x00\n        /* \"#utility.yul\":12988:13003   */\n      revert\n        /* \"#utility.yul\":13015:13117   */\n    tag_279:\n        /* \"#utility.yul\":13057:13065   */\n      0x00\n        /* \"#utility.yul\":13104:13109   */\n      dup2\n        /* \"#utility.yul\":13101:13102   */\n      0x01\n        /* \"#utility.yul\":13097:13110   */\n      shr\n        /* \"#utility.yul\":13076:13110   */\n      swap1\n      pop\n        /* \"#utility.yul\":13015:13117   */\n      swap2\n      swap1\n      pop\n      jump\t// out\n        /* \"#utility.yul\":13123:13971   */\n    tag_280:\n        /* \"#utility.yul\":13184:13189   */\n      0x00\n        /* \"#utility.yul\":13191:13195   */\n      dup1\n        /* \"#utility.yul\":13215:13221   */\n      dup3\n        /* \"#utility.yul\":13206:13221   */\n      swap2\n      pop\n        /* \"#utility.yul\":13239:13244   */\n      dup4\n        /* \"#utility.yul\":13230:13244   */\n      swap1\n      pop\n        /* \"#utility.yul\":13253:13965   */\n    tag_441:\n        /* \"#utility.yul\":13274:13275   */\n      0x01\n        /* \"#utility.yul\":13264:13272   */\n      dup6\n        /* \"#utility.yul\":13261:13276   */\n      gt\n        /* \"#utility.yul\":13253:13965   */\n      iszero\n      tag_443\n      jumpi\n        /* \"#utility.yul\":13369:13373   */\n      dup1\n        /* \"#utility.yul\":13364:13367   */\n      dup7\n        /* \"#utility.yul\":13360:13374   */\n      div\n        /* \"#utility.yul\":13354:13358   */\n      dup2\n        /* \"#utility.yul\":13351:13375   */\n      gt\n        /* \"#utility.yul\":13348:13398   */\n      iszero\n      tag_444\n      jumpi\n        /* \"#utility.yul\":13378:13396   */\n      tag_445\n      tag_278\n      jump\t// in\n    tag_445:\n        /* \"#utility.yul\":13348:13398   */\n    tag_444:\n        /* \"#utility.yul\":13428:13429   */\n      0x01\n        /* \"#utility.yul\":13418:13426   */\n      dup6\n        /* \"#utility.yul\":13414:13430   */\n      and\n        /* \"#utility.yul\":13411:13862   */\n      iszero\n      tag_446\n      jumpi\n        /* \"#utility.yul\":13843:13847   */\n      dup1\n        /* \"#utility.yul\":13836:13841   */\n      dup3\n        /* \"#utility.yul\":13832:13848   */\n      mul\n        /* \"#utility.yul\":13823:13848   */\n      swap2\n      pop\n        /* \"#utility.yul\":13411:13862   */\n    tag_446:\n        /* \"#utility.yul\":13893:13897   */\n      dup1\n        /* \"#utility.yul\":13887:13891   */\n      dup2\n        /* \"#utility.yul\":13883:13898   */\n      mul\n        /* \"#utility.yul\":13875:13898   */\n      swap1\n      pop\n        /* \"#utility.yul\":13923:13955   */\n      tag_447\n        /* \"#utility.yul\":13946:13954   */\n      dup6\n        /* \"#utility.yul\":13923:13955   */\n      tag_279\n      jump\t// in\n    tag_447:\n        /* \"#utility.yul\":13911:13955   */\n      swap5\n      pop\n        /* \"#utility.yul\":13253:13965   */\n      jump(tag_441)\n    tag_443:\n        /* \"#utility.yul\":13123:13971   */\n      swap5\n      pop\n      swap5\n      swap3\n      pop\n      pop\n      pop\n      jump\t// out\n        /* \"#utility.yul\":13977:15050   */\n    tag_281:\n        /* \"#utility.yul\":14031:14036   */\n      0x00\n        /* \"#utility.yul\":14222:14230   */\n      dup3\n        /* \"#utility.yul\":14212:14252   */\n      tag_449\n      jumpi\n        /* \"#utility.yul\":14243:14244   */\n      0x01\n        /* \"#utility.yul\":14234:14244   */\n      swap1\n      pop\n        /* \"#utility.yul\":14245:14250   */\n      jump(tag_448)\n        /* \"#utility.yul\":14212:14252   */\n    tag_449:\n        /* \"#utility.yul\":14271:14275   */\n      dup2\n        /* \"#utility.yul\":14261:14297   */\n      tag_450\n      jumpi\n        /* \"#utility.yul\":14288:14289   */\n      0x00\n        /* \"#utility.yul\":14279:14289   */\n      swap1\n      pop\n        /* \"#utility.yul\":14290:14295   */\n      jump(tag_448)\n        /* \"#utility.yul\":14261:14297   */\n    tag_450:\n        /* \"#utility.yul\":14357:14361   */\n      dup2\n        /* \"#utility.yul\":14405:14406   */\n      0x01\n        /* \"#utility.yul\":14400:14427   */\n      dup2\n      eq\n      tag_452\n      jumpi\n        /* \"#utility.yul\":14441:14442   */\n      0x02\n        /* \"#utility.yul\":14436:14627   */\n      dup2\n      eq\n      tag_453\n      jumpi\n        /* \"#utility.yul\":14350:14627   */\n      jump(tag_451)\n        /* \"#utility.yul\":14400:14427   */\n    tag_452:\n        /* \"#utility.yul\":14418:14419   */\n      0x01\n        /* \"#utility.yul\":14409:14419   */\n      swap2\n      pop\n        /* \"#utility.yul\":14420:14425   */\n      pop\n      jump(tag_448)\n        /* \"#utility.yul\":14436:14627   */\n    tag_453:\n        /* \"#utility.yul\":14481:14484   */\n      0xff\n        /* \"#utility.yul\":14471:14479   */\n      dup5\n        /* \"#utility.yul\":14468:14485   */\n      gt\n        /* \"#utility.yul\":14465:14508   */\n      iszero\n      tag_454\n      jumpi\n        /* \"#utility.yul\":14488:14506   */\n      tag_455\n      tag_278\n      jump\t// in\n    tag_455:\n        /* \"#utility.yul\":14465:14508   */\n    tag_454:\n        /* \"#utility.yul\":14537:14545   */\n      dup4\n        /* \"#utility.yul\":14534:14535   */\n      0x02\n        /* \"#utility.yul\":14530:14546   */\n      exp\n        /* \"#utility.yul\":14521:14546   */\n      swap2\n      pop\n        /* \"#utility.yul\":14572:14575   */\n      dup5\n        /* \"#utility.yul\":14565:14570   */\n      dup3\n        /* \"#utility.yul\":14562:14576   */\n      gt\n        /* \"#utility.yul\":14559:14599   */\n      iszero\n      tag_456\n      jumpi\n        /* \"#utility.yul\":14579:14597   */\n      tag_457\n      tag_278\n      jump\t// in\n    tag_457:\n        /* \"#utility.yul\":14559:14599   */\n    tag_456:\n        /* \"#utility.yul\":14612:14617   */\n      pop\n      jump(tag_448)\n        /* \"#utility.yul\":14350:14627   */\n    tag_451:\n      pop\n        /* \"#utility.yul\":14736:14738   */\n      0x20\n        /* \"#utility.yul\":14726:14734   */\n      dup4\n        /* \"#utility.yul\":14723:14739   */\n      lt\n        /* \"#utility.yul\":14717:14720   */\n      0x0133\n        /* \"#utility.yul\":14711:14715   */\n      dup4\n        /* \"#utility.yul\":14708:14721   */\n      lt\n        /* \"#utility.yul\":14704:14740   */\n      and\n        /* \"#utility.yul\":14686:14688   */\n      0x4e\n        /* \"#utility.yul\":14676:14684   */\n      dup5\n        /* \"#utility.yul\":14673:14689   */\n      lt\n        /* \"#utility.yul\":14668:14670   */\n      0x0b\n        /* \"#utility.yul\":14662:14666   */\n      dup5\n        /* \"#utility.yul\":14659:14671   */\n      lt\n        /* \"#utility.yul\":14655:14690   */\n      and\n        /* \"#utility.yul\":14639:14750   */\n      or\n        /* \"#utility.yul\":14636:14882   */\n      iszero\n      tag_458\n      jumpi\n        /* \"#utility.yul\":14792:14800   */\n      dup3\n        /* \"#utility.yul\":14786:14790   */\n      dup3\n        /* \"#utility.yul\":14782:14801   */\n      exp\n        /* \"#utility.yul\":14773:14801   */\n      swap1\n      pop\n        /* \"#utility.yul\":14827:14830   */\n      dup4\n        /* \"#utility.yul\":14820:14825   */\n      dup2\n        /* \"#utility.yul\":14817:14831   */\n      gt\n        /* \"#utility.yul\":14814:14854   */\n      iszero\n      tag_459\n      jumpi\n        /* \"#utility.yul\":14834:14852   */\n      tag_460\n      tag_278\n      jump\t// in\n    tag_460:\n        /* \"#utility.yul\":14814:14854   */\n    tag_459:\n        /* \"#utility.yul\":14867:14872   */\n      jump(tag_448)\n        /* \"#utility.yul\":14636:14882   */\n    tag_458:\n        /* \"#utility.yul\":14907:14949   */\n      tag_461\n        /* \"#utility.yul\":14945:14948   */\n      dup5\n        /* \"#utility.yul\":14935:14943   */\n      dup5\n        /* \"#utility.yul\":14929:14933   */\n      dup5\n        /* \"#utility.yul\":14926:14927   */\n      0x01\n        /* \"#utility.yul\":14907:14949   */\n      tag_280\n      jump\t// in\n    tag_461:\n        /* \"#utility.yul\":14892:14949   */\n      swap3\n      pop\n      swap1\n      pop\n        /* \"#utility.yul\":14981:14985   */\n      dup2\n        /* \"#utility.yul\":14976:14979   */\n      dup5\n        /* \"#utility.yul\":14972:14986   */\n      div\n        /* \"#utility.yul\":14965:14970   */\n      dup2\n        /* \"#utility.yul\":14962:14987   */\n      gt\n        /* \"#utility.yul\":14959:15010   */\n      iszero\n      tag_462\n      jumpi\n        /* \"#utility.yul\":14990:15008   */\n      tag_463\n      tag_278\n      jump\t// in\n    tag_463:\n        /* \"#utility.yul\":14959:15010   */\n    tag_462:\n        /* \"#utility.yul\":15039:15043   */\n      dup2\n        /* \"#utility.yul\":15032:15037   */\n      dup2\n        /* \"#utility.yul\":15028:15044   */\n      mul\n        /* \"#utility.yul\":15019:15044   */\n      swap1\n      pop\n        /* \"#utility.yul\":13977:15050   */\n    tag_448:\n      swap4\n      swap3\n      pop\n      pop\n      pop\n      jump\t// out\n        /* \"#utility.yul\":15056:15337   */\n    tag_107:\n        /* \"#utility.yul\":15114:15119   */\n      0x00\n        /* \"#utility.yul\":15138:15161   */\n      tag_465\n        /* \"#utility.yul\":15156:15160   */\n      dup3\n        /* \"#utility.yul\":15138:15161   */\n      tag_253\n      jump\t// in\n    tag_465:\n        /* \"#utility.yul\":15130:15161   */\n      swap2\n      pop\n        /* \"#utility.yul\":15182:15207   */\n      tag_466\n        /* \"#utility.yul\":15198:15206   */\n      dup4\n        /* \"#utility.yul\":15182:15207   */\n      tag_259\n      jump\t// in\n    tag_466:\n        /* \"#utility.yul\":15170:15207   */\n      swap3\n      pop\n        /* \"#utility.yul\":15226:15330   */\n      tag_467\n        /* \"#utility.yul\":15263:15329   */\n      0xffffffffffffffffffffffffffffffffffffffffffffffffffffffffffffffff\n        /* \"#utility.yul\":15253:15261   */\n      dup5\n        /* \"#utility.yul\":15247:15251   */\n      dup5\n        /* \"#utility.yul\":15226:15330   */\n      tag_281\n      jump\t// in\n    tag_467:\n        /* \"#utility.yul\":15217:15330   */\n      swap1\n      pop\n        /* \"#utility.yul\":15056:15337   */\n      swap3\n      swap2\n      pop\n      pop\n      jump\t// out\n        /* \"#utility.yul\":15343:15753   */\n    tag_109:\n        /* \"#utility.yul\":15383:15390   */\n      0x00\n        /* \"#utility.yul\":15406:15426   */\n      tag_469\n        /* \"#utility.yul\":15424:15425   */\n      dup3\n        /* \"#utility.yul\":15406:15426   */\n      tag_253\n      jump\t// in\n    tag_469:\n        /* \"#utility.yul\":15401:15426   */\n      swap2\n      pop\n        /* \"#utility.yul\":15440:15460   */\n      tag_470\n        /* \"#utility.yul\":15458:15459   */\n      dup4\n        /* \"#utility.yul\":15440:15460   */\n      tag_253\n      jump\t// in\n    tag_470:\n        /* \"#utility.yul\":15435:15460   */\n      swap3\n      pop\n        /* \"#utility.yul\":15495:15496   */\n      dup3\n        /* \"#utility.yul\":15492:15493   */\n      dup3\n        /* \"#utility.yul\":15488:15497   */\n      mul\n        /* \"#utility.yul\":15517:15547   */\n      tag_471\n        /* \"#utility.yul\":15535:15546   */\n      dup2\n        /* \"#utility.yul\":15517:15547   */\n      tag_253\n      jump\t// in\n    tag_471:\n        /* \"#utility.yul\":15506:15547   */\n      swap2\n      pop\n        /* \"#utility.yul\":15696:15697   */\n      dup3\n        /* \"#utility.yul\":15687:15694   */\n      dup3\n        /* \"#utility.yul\":15683:15698   */\n      div\n        /* \"#utility.yul\":15680:15681   */\n      dup5\n        /* \"#utility.yul\":15677:15699   */\n      eq\n        /* \"#utility.yul\":15657:15658   */\n      dup4\n        /* \"#utility.yul\":15650:15659   */\n      iszero\n        /* \"#utility.yul\":15630:15713   */\n      or\n        /* \"#utility.yul\":15607:15746   */\n      tag_472\n      jumpi\n        /* \"#utility.yul\":15726:15744   */\n      tag_473\n      tag_278\n      jump\t// in\n    tag_473:\n        /* \"#utility.yul\":15607:15746   */\n    tag_472:\n        /* \"#utility.yul\":15391:15753   */\n      pop\n        /* \"#utility.yul\":15343:15753   */\n      swap3\n      swap2\n      pop\n      pop\n      jump\t// out\n        /* \"#utility.yul\":15759:15921   */\n    tag_282:\n        /* \"#utility.yul\":15899:15913   */\n      0x4e6f546f6b656e7348656c640000000000000000000000000000000000000000\n        /* \"#utility.yul\":15895:15896   */\n      0x00\n        /* \"#utility.yul\":15887:15893   */\n      dup3\n        /* \"#utility.yul\":15883:15897   */\n      add\n        /* \"#utility.yul\":15876:15914   */\n      mstore\n        /* \"#utility.yul\":15759:15921   */\n      pop\n      jump\t// out\n        /* \"#utility.yul\":15927:16293   */\n    tag_283:\n        /* \"#utility.yul\":16069:16072   */\n      0x00\n        /* \"#utility.yul\":16090:16157   */\n      tag_476\n        /* \"#utility.yul\":16154:16156   */\n      0x0c\n        /* \"#utility.yul\":16149:16152   */\n      dup4\n        /* \"#utility.yul\":16090:16157   */\n      tag_242\n      jump\t// in\n    tag_476:\n        /* \"#utility.yul\":16083:16157   */\n      swap2\n      pop\n        /* \"#utility.yul\":16166:16259   */\n      tag_477\n        /* \"#utility.yul\":16255:16258   */\n      dup3\n        /* \"#utility.yul\":16166:16259   */\n      tag_282\n      jump\t// in\n    tag_477:\n        /* \"#utility.yul\":16284:16286   */\n      0x20\n        /* \"#utility.yul\":16279:16282   */\n      dup3\n        /* \"#utility.yul\":16275:16287   */\n      add\n        /* \"#utility.yul\":16268:16287   */\n      swap1\n      pop\n        /* \"#utility.yul\":15927:16293   */\n      swap2\n      swap1\n      pop\n      jump\t// out\n        /* \"#utility.yul\":16299:16718   */\n    tag_116:\n        /* \"#utility.yul\":16465:16469   */\n      0x00\n        /* \"#utility.yul\":16503:16505   */\n      0x20\n        /* \"#utility.yul\":16492:16501   */\n      dup3\n        /* \"#utility.yul\":16488:16506   */\n      add\n        /* \"#utility.yul\":16480:16506   */\n      swap1\n      pop\n        /* \"#utility.yul\":16552:16561   */\n      dup2\n        /* \"#utility.yul\":16546:16550   */\n      dup2\n        /* \"#utility.yul\":16542:16562   */\n      sub\n        /* \"#utility.yul\":16538:16539   */\n      0x00\n        /* \"#utility.yul\":16527:16536   */\n      dup4\n        /* \"#utility.yul\":16523:16540   */\n      add\n        /* \"#utility.yul\":16516:16563   */\n      mstore\n        /* \"#utility.yul\":16580:16711   */\n      tag_479\n        /* \"#utility.yul\":16706:16710   */\n      dup2\n        /* \"#utility.yul\":16580:16711   */\n      tag_283\n      jump\t// in\n    tag_479:\n        /* \"#utility.yul\":16572:16711   */\n      swap1\n      pop\n        /* \"#utility.yul\":16299:16718   */\n      swap2\n      swap1\n      pop\n      jump\t// out\n        /* \"#utility.yul\":16724:16887   */\n    tag_284:\n        /* \"#utility.yul\":16864:16879   */\n      0x51756f72756d546f6f4869676800000000000000000000000000000000000000\n        /* \"#utility.yul\":16860:16861   */\n      0x00\n        /* \"#utility.yul\":16852:16858   */\n      dup3\n        /* \"#utility.yul\":16848:16862   */\n      add\n        /* \"#utility.yul\":16841:16880   */\n      mstore\n        /* \"#utility.yul\":16724:16887   */\n      pop\n      jump\t// out\n        /* \"#utility.yul\":16893:17259   */\n    tag_285:\n        /* \"#utility.yul\":17035:17038   */\n      0x00\n        /* \"#utility.yul\":17056:17123   */\n      tag_482\n        /* \"#utility.yul\":17120:17122   */\n      0x0d\n        /* \"#utility.yul\":17115:17118   */\n      dup4\n        /* \"#utility.yul\":17056:17123   */\n      tag_242\n      jump\t// in\n    tag_482:\n        /* \"#utility.yul\":17049:17123   */\n      swap2\n      pop\n        /* \"#utility.yul\":17132:17225   */\n      tag_483\n        /* \"#utility.yul\":17221:17224   */\n      dup3\n        /* \"#utility.yul\":17132:17225   */\n      tag_284\n      jump\t// in\n    tag_483:\n        /* \"#utility.yul\":17250:17252   */\n      0x20\n        /* \"#utility.yul\":17245:17248   */\n      dup3\n        /* \"#utility.yul\":17241:17253   */\n      add\n        /* \"#utility.yul\":17234:17253   */\n      swap1\n      pop\n        /* \"#utility.yul\":16893:17259   */\n      swap2\n      swap1\n      pop\n      jump\t// out\n        /* \"#utility.yul\":17265:17684   */\n    tag_120:\n        /* \"#utility.yul\":17431:17435   */\n      0x00\n        /* \"#utility.yul\":17469:17471   */\n      0x20\n        /* \"#utility.yul\":17458:17467   */\n      dup3\n        /* \"#utility.yul\":17454:17472   */\n      add\n        /* \"#utility.yul\":17446:17472   */\n      swap1\n      pop\n        /* \"#utility.yul\":17518:17527   */\n      dup2\n        /* \"#utility.yul\":17512:17516   */\n      dup2\n        /* \"#utility.yul\":17508:17528   */\n      sub\n        /* \"#utility.yul\":17504:17505   */\n      0x00\n        /* \"#utility.yul\":17493:17502   */\n      dup4\n        /* \"#utility.yul\":17489:17506   */\n      add\n        /* \"#utility.yul\":17482:17529   */\n      mstore\n        /* \"#utility.yul\":17546:17677   */\n      tag_485\n        /* \"#utility.yul\":17672:17676   */\n      dup2\n        /* \"#utility.yul\":17546:17677   */\n      tag_285\n      jump\t// in\n    tag_485:\n        /* \"#utility.yul\":17538:17677   */\n      swap1\n      pop\n        /* \"#utility.yul\":17265:17684   */\n      swap2\n      swap1\n      pop\n      jump\t// out\n        /* \"#utility.yul\":17690:17884   */\n    tag_123:\n        /* \"#utility.yul\":17730:17734   */\n      0x00\n        /* \"#utility.yul\":17750:17770   */\n      tag_487\n        /* \"#utility.yul\":17768:17769   */\n      dup3\n        /* \"#utility.yul\":17750:17770   */\n      tag_253\n      jump\t// in\n    tag_487:\n        /* \"#utility.yul\":17745:17770   */\n      swap2\n      pop\n        /* \"#utility.yul\":17784:17804   */\n      tag_488\n        /* \"#utility.yul\":17802:17803   */\n      dup4\n        /* \"#utility.yul\":17784:17804   */\n      tag_253\n      jump\t// in\n    tag_488:\n        /* \"#utility.yul\":17779:17804   */\n      swap3\n      pop\n        /* \"#utility.yul\":17828:17829   */\n      dup3\n        /* \"#utility.yul\":17825:17826   */\n      dup3\n        /* \"#utility.yul\":17821:17830   */\n      sub\n        /* \"#utility.yul\":17813:17830   */\n      swap1\n      pop\n        /* \"#utility.yul\":17852:17853   */\n      dup2\n        /* \"#utility.yul\":17846:17850   */\n      dup2\n        /* \"#utility.yul\":17843:17854   */\n      gt\n        /* \"#utility.yul\":17840:17877   */\n      iszero\n      tag_489\n      jumpi\n        /* \"#utility.yul\":17857:17875   */\n      tag_490\n      tag_278\n      jump\t// in\n    tag_490:\n        /* \"#utility.yul\":17840:17877   */\n    tag_489:\n        /* \"#utility.yul\":17690:17884   */\n      swap3\n      swap2\n      pop\n      pop\n      jump\t// out\n        /* \"#utility.yul\":17890:18070   */\n    tag_126:\n        /* \"#utility.yul\":17938:18015   */\n      0x4e487b7100000000000000000000000000000000000000000000000000000000\n        /* \"#utility.yul\":17935:17936   */\n      0x00\n        /* \"#utility.yul\":17928:18016   */\n      mstore\n        /* \"#utility.yul\":18035:18039   */\n      0x32\n        /* \"#utility.yul\":18032:18033   */\n      0x04\n        /* \"#utility.yul\":18025:18040   */\n      mstore\n        /* \"#utility.yul\":18059:18063   */\n      0x24\n        /* \"#utility.yul\":18056:18057   */\n      0x00\n        /* \"#utility.yul\":18049:18064   */\n      revert\n        /* \"#utility.yul\":18076:18217   */\n    tag_286:\n        /* \"#utility.yul\":18125:18129   */\n      0x00\n        /* \"#utility.yul\":18148:18151   */\n      dup2\n        /* \"#utility.yul\":18140:18151   */\n      swap1\n      pop\n        /* \"#utility.yul\":18171:18174   */\n      dup2\n        /* \"#utility.yul\":18168:18169   */\n      0x00\n        /* \"#utility.yul\":18161:18175   */\n      mstore\n        /* \"#utility.yul\":18205:18209   */\n      0x20\n        /* \"#utility.yul\":18202:18203   */\n      0x00\n        /* \"#utility.yul\":18192:18210   */\n      keccak256\n        /* \"#utility.yul\":18184:18210   */\n      swap1\n      pop\n        /* \"#utility.yul\":18076:18217   */\n      swap2\n      swap1\n      pop\n      jump\t// out\n        /* \"#utility.yul\":18223:18316   */\n    tag_287:\n        /* \"#utility.yul\":18260:18266   */\n      0x00\n        /* \"#utility.yul\":18307:18309   */\n      0x20\n        /* \"#utility.yul\":18302:18304   */\n      0x1f\n        /* \"#utility.yul\":18295:18300   */\n      dup4\n        /* \"#utility.yul\":18291:18305   */\n      add\n        /* \"#utility.yul\":18287:18310   */\n      div\n        /* \"#utility.yul\":18277:18310   */\n      swap1\n      pop\n        /* \"#utility.yul\":18223:18316   */\n      swap2\n      swap1\n      pop\n      jump\t// out\n        /* \"#utility.yul\":18322:18429   */\n    tag_288:\n        /* \"#utility.yul\":18366:18374   */\n      0x00\n        /* \"#utility.yul\":18416:18421   */\n      dup3\n        /* \"#utility.yul\":18410:18414   */\n      dup3\n        /* \"#utility.yul\":18406:18422   */\n      shl\n        /* \"#utility.yul\":18385:18422   */\n      swap1\n      pop\n        /* \"#utility.yul\":18322:18429   */\n      swap3\n      swap2\n      pop\n      pop\n      jump\t// out\n        /* \"#utility.yul\":18435:18828   */\n    tag_289:\n        /* \"#utility.yul\":18504:18510   */\n      0x00\n        /* \"#utility.yul\":18554:18555   */\n      0x08\n        /* \"#utility.yul\":18542:18552   */\n      dup4\n        /* \"#utility.yul\":18538:18556   */\n      mul\n        /* \"#utility.yul\":18577:18674   */\n      tag_496\n        /* \"#utility.yul\":18607:18673   */\n      0xffffffffffffffffffffffffffffffffffffffffffffffffffffffffffffffff\n        /* \"#utility.yul\":18596:18605   */\n      dup3\n        /* \"#utility.yul\":18577:18674   */\n      tag_288\n      jump\t// in\n    tag_496:\n        /* \"#utility.yul\":18695:18734   */\n      tag_497\n        /* \"#utility.yul\":18725:18733   */\n      dup7\n        /* \"#utility.yul\":18714:18723   */\n      dup4\n        /* \"#utility.yul\":18695:18734   */\n      tag_288\n      jump\t// in\n    tag_497:\n        /* \"#utility.yul\":18683:18734   */\n      swap6\n      pop\n        /* \"#utility.yul\":18767:18771   */\n      dup1\n        /* \"#utility.yul\":18763:18772   */\n      not\n        /* \"#utility.yul\":18756:18761   */\n      dup5\n        /* \"#utility.yul\":18752:18773   */\n      and\n        /* \"#utility.yul\":18743:18773   */\n      swap4\n      pop\n        /* \"#utility.yul\":18816:18820   */\n      dup1\n        /* \"#utility.yul\":18806:18814   */\n      dup7\n        /* \"#utility.yul\":18802:18821   */\n      and\n        /* \"#utility.yul\":18795:18800   */\n      dup5\n        /* \"#utility.yul\":18792:18822   */\n      or\n        /* \"#utility.yul\":18782:18822   */\n      swap3\n      pop\n        /* \"#utility.yul\":18511:18828   */\n      pop\n      pop\n        /* \"#utility.yul\":18435:18828   */\n      swap4\n      swap3\n      pop\n      pop\n      pop\n      jump\t// out\n        /* \"#utility.yul\":18834:18894   */\n    tag_290:\n        /* \"#utility.yul\":18862:18865   */\n      0x00\n        /* \"#utility.yul\":18883:18888   */\n      dup2\n        /* \"#utility.yul\":18876:18888   */\n      swap1\n      pop\n        /* \"#utility.yul\":18834:18894   */\n      swap2\n      swap1\n      pop\n      jump\t// out\n        /* \"#utility.yul\":18900:19042   */\n    tag_291:\n        /* \"#utility.yul\":18950:18959   */\n      0x00\n        /* \"#utility.yul\":18983:19036   */\n      tag_500\n        /* \"#utility.yul\":19001:19035   */\n      tag_501\n        /* \"#utility.yul\":19010:19034   */\n      tag_502\n        /* \"#utility.yul\":19028:19033   */\n      dup5\n        /* \"#utility.yul\":19010:19034   */\n      tag_253\n      jump\t// in\n    tag_502:\n        /* \"#utility.yul\":19001:19035   */\n      tag_290\n      jump\t// in\n    tag_501:\n        /* \"#utility.yul\":18983:19036   */\n      tag_253\n      jump\t// in\n    tag_500:\n        /* \"#utility.yul\":18970:19036   */\n      swap1\n      pop\n        /* \"#utility.yul\":18900:19042   */\n      swap2\n      swap1\n      pop\n      jump\t// out\n        /* \"#utility.yul\":19048:19123   */\n    tag_292:\n        /* \"#utility.yul\":19091:19094   */\n      0x00\n        /* \"#utility.yul\":19112:19117   */\n      dup2\n        /* \"#utility.yul\":19105:19117   */\n      swap1\n      pop\n        /* \"#utility.yul\":19048:19123   */\n      swap2\n      swap1\n      pop\n      jump\t// out\n        /* \"#utility.yul\":19129:19398   */\n    tag_293:\n        /* \"#utility.yul\":19239:19278   */\n      tag_505\n        /* \"#utility.yul\":19270:19277   */\n      dup4\n        /* \"#utility.yul\":19239:19278   */\n      tag_291\n      jump\t// in\n    tag_505:\n        /* \"#utility.yul\":19300:19391   */\n      tag_506\n        /* \"#utility.yul\":19349:19390   */\n      tag_507\n        /* \"#utility.yul\":19373:19389   */\n      dup3\n        /* \"#utility.yul\":19349:19390   */\n      tag_292\n      jump\t// in\n    tag_507:\n        /* \"#utility.yul\":19341:19347   */\n      dup5\n        /* \"#utility.yul\":19334:19338   */\n      dup5\n        /* \"#utility.yul\":19328:19339   */\n      sload\n        /* \"#utility.yul\":19300:19391   */\n      tag_289\n      jump\t// in\n    tag_506:\n        /* \"#utility.yul\":19294:19298   */\n      dup3\n        /* \"#utility.yul\":19287:19392   */\n      sstore\n        /* \"#utility.yul\":19205:19398   */\n      pop\n        /* \"#utility.yul\":19129:19398   */\n      pop\n      pop\n      pop\n      jump\t// out\n        /* \"#utility.yul\":19404:19477   */\n    tag_294:\n        /* \"#utility.yul\":19449:19452   */\n      0x00\n        /* \"#utility.yul\":19404:19477   */\n      swap1\n      jump\t// out\n        /* \"#utility.yul\":19483:19672   */\n    tag_295:\n        /* \"#utility.yul\":19560:19592   */\n      tag_510\n      tag_294\n      jump\t// in\n    tag_510:\n        /* \"#utility.yul\":19601:19666   */\n      tag_511\n        /* \"#utility.yul\":19659:19665   */\n      dup2\n        /* \"#utility.yul\":19651:19657   */\n      dup5\n        /* \"#utility.yul\":19645:19649   */\n      dup5\n        /* \"#utility.yul\":19601:19666   */\n      tag_293\n      jump\t// in\n    tag_511:\n        /* \"#utility.yul\":19536:19672   */\n      pop\n        /* \"#utility.yul\":19483:19672   */\n      pop\n      pop\n      jump\t// out\n        /* \"#utility.yul\":19678:19864   */\n    tag_296:\n        /* \"#utility.yul\":19738:19858   */\n    tag_513:\n        /* \"#utility.yul\":19755:19758   */\n      dup2\n        /* \"#utility.yul\":19748:19753   */\n      dup2\n        /* \"#utility.yul\":19745:19759   */\n      lt\n        /* \"#utility.yul\":19738:19858   */\n      iszero\n      tag_515\n      jumpi\n        /* \"#utility.yul\":19809:19848   */\n      tag_516\n        /* \"#utility.yul\":19846:19847   */\n      0x00\n        /* \"#utility.yul\":19839:19844   */\n      dup3\n        /* \"#utility.yul\":19809:19848   */\n      tag_295\n      jump\t// in\n    tag_516:\n        /* \"#utility.yul\":19782:19783   */\n      0x01\n        /* \"#utility.yul\":19775:19780   */\n      dup2\n        /* \"#utility.yul\":19771:19784   */\n      add\n        /* \"#utility.yul\":19762:19784   */\n      swap1\n      pop\n        /* \"#utility.yul\":19738:19858   */\n      jump(tag_513)\n    tag_515:\n        /* \"#utility.yul\":19678:19864   */\n      pop\n      pop\n      jump\t// out\n        /* \"#utility.yul\":19870:20413   */\n    tag_297:\n        /* \"#utility.yul\":19971:19973   */\n      0x1f\n        /* \"#utility.yul\":19966:19969   */\n      dup3\n        /* \"#utility.yul\":19963:19974   */\n      gt\n        /* \"#utility.yul\":19960:20406   */\n      iszero\n      tag_518\n      jumpi\n        /* \"#utility.yul\":20005:20043   */\n      tag_519\n        /* \"#utility.yul\":20037:20042   */\n      dup2\n        /* \"#utility.yul\":20005:20043   */\n      tag_286\n      jump\t// in\n    tag_519:\n        /* \"#utility.yul\":20089:20118   */\n      tag_520\n        /* \"#utility.yul\":20107:20117   */\n      dup5\n        /* \"#utility.yul\":20089:20118   */\n      tag_287\n      jump\t// in\n    tag_520:\n        /* \"#utility.yul\":20079:20087   */\n      dup2\n        /* \"#utility.yul\":20075:20119   */\n      add\n        /* \"#utility.yul\":20272:20274   */\n      0x20\n        /* \"#utility.yul\":20260:20270   */\n      dup6\n        /* \"#utility.yul\":20257:20275   */\n      lt\n        /* \"#utility.yul\":20254:20303   */\n      iszero\n      tag_521\n      jumpi\n        /* \"#utility.yul\":20293:20301   */\n      dup2\n        /* \"#utility.yul\":20278:20301   */\n      swap1\n      pop\n        /* \"#utility.yul\":20254:20303   */\n    tag_521:\n        /* \"#utility.yul\":20316:20396   */\n      tag_522\n        /* \"#utility.yul\":20372:20394   */\n      tag_523\n        /* \"#utility.yul\":20390:20393   */\n      dup6\n        /* \"#utility.yul\":20372:20394   */\n      tag_287\n      jump\t// in\n    tag_523:\n        /* \"#utility.yul\":20362:20370   */\n      dup4\n        /* \"#utility.yul\":20358:20395   */\n      add\n        /* \"#utility.yul\":20345:20356   */\n      dup3\n        /* \"#utility.yul\":20316:20396   */\n      tag_296\n      jump\t// in\n    tag_522:\n        /* \"#utility.yul\":19975:20406   */\n      pop\n      pop\n        /* \"#utility.yul\":19960:20406   */\n    tag_518:\n        /* \"#utility.yul\":19870:20413   */\n      pop\n      pop\n      pop\n      jump\t// out\n        /* \"#utility.yul\":20419:20536   */\n    tag_298:\n        /* \"#utility.yul\":20473:20481   */\n      0x00\n        /* \"#utility.yul\":20523:20528   */\n      dup3\n        /* \"#utility.yul\":20517:20521   */\n      dup3\n        /* \"#utility.yul\":20513:20529   */\n      shr\n        /* \"#utility.yul\":20492:20529   */\n      swap1\n      pop\n        /* \"#utility.yul\":20419:20536   */\n      swap3\n      swap2\n      pop\n      pop\n      jump\t// out\n        /* \"#utility.yul\":20542:20711   */\n    tag_299:\n        /* \"#utility.yul\":20586:20592   */\n      0x00\n        /* \"#utility.yul\":20619:20670   */\n      tag_526\n        /* \"#utility.yul\":20667:20668   */\n      0x00\n        /* \"#utility.yul\":20663:20669   */\n      not\n        /* \"#utility.yul\":20655:20660   */\n      dup5\n        /* \"#utility.yul\":20652:20653   */\n      0x08\n        /* \"#utility.yul\":20648:20661   */\n      mul\n        /* \"#utility.yul\":20619:20670   */\n      tag_298\n      jump\t// in\n    tag_526:\n        /* \"#utility.yul\":20615:20671   */\n      not\n        /* \"#utility.yul\":20700:20704   */\n      dup1\n        /* \"#utility.yul\":20694:20698   */\n      dup4\n        /* \"#utility.yul\":20690:20705   */\n      and\n        /* \"#utility.yul\":20680:20705   */\n      swap2\n      pop\n        /* \"#utility.yul\":20593:20711   */\n      pop\n        /* \"#utility.yul\":20542:20711   */\n      swap3\n      swap2\n      pop\n      pop\n      jump\t// out\n        /* \"#utility.yul\":20716:21011   */\n    tag_300:\n        /* \"#utility.yul\":20792:20796   */\n      0x00\n        /* \"#utility.yul\":20938:20967   */\n      tag_528\n        /* \"#utility.yul\":20963:20966   */\n      dup4\n        /* \"#utility.yul\":20957:20961   */\n      dup4\n        /* \"#utility.yul\":20938:20967   */\n      tag_299\n      jump\t// in\n    tag_528:\n        /* \"#utility.yul\":20930:20967   */\n      swap2\n      pop\n        /* \"#utility.yul\":21000:21003   */\n      dup3\n        /* \"#utility.yul\":20997:20998   */\n      0x02\n        /* \"#utility.yul\":20993:21004   */\n      mul\n        /* \"#utility.yul\":20987:20991   */\n      dup3\n        /* \"#utility.yul\":20984:21005   */\n      or\n        /* \"#utility.yul\":20976:21005   */\n      swap1\n      pop\n        /* \"#utility.yul\":20716:21011   */\n      swap3\n      swap2\n      pop\n      pop\n      jump\t// out\n        /* \"#utility.yul\":21016:22411   */\n    tag_129:\n        /* \"#utility.yul\":21133:21170   */\n      tag_530\n        /* \"#utility.yul\":21166:21169   */\n      dup3\n        /* \"#utility.yul\":21133:21170   */\n      tag_241\n      jump\t// in\n    tag_530:\n        /* \"#utility.yul\":21235:21253   */\n      0xffffffffffffffff\n        /* \"#utility.yul\":21227:21233   */\n      dup2\n        /* \"#utility.yul\":21224:21254   */\n      gt\n        /* \"#utility.yul\":21221:21277   */\n      iszero\n      tag_531\n      jumpi\n        /* \"#utility.yul\":21257:21275   */\n      tag_532\n      tag_263\n      jump\t// in\n    tag_532:\n        /* \"#utility.yul\":21221:21277   */\n    tag_531:\n        /* \"#utility.yul\":21301:21339   */\n      tag_533\n        /* \"#utility.yul\":21333:21337   */\n      dup3\n        /* \"#utility.yul\":21327:21338   */\n      sload\n        /* \"#utility.yul\":21301:21339   */\n      tag_82\n      jump\t// in\n    tag_533:\n        /* \"#utility.yul\":21386:21453   */\n      tag_534\n        /* \"#utility.yul\":21446:21452   */\n      dup3\n        /* \"#utility.yul\":21438:21444   */\n      dup3\n        /* \"#utility.yul\":21432:21436   */\n      dup6\n        /* \"#utility.yul\":21386:21453   */\n      tag_297\n      jump\t// in\n    tag_534:\n        /* \"#utility.yul\":21480:21481   */\n      0x00\n        /* \"#utility.yul\":21504:21508   */\n      0x20\n        /* \"#utility.yul\":21491:21508   */\n      swap1\n      pop\n        /* \"#utility.yul\":21536:21538   */\n      0x1f\n        /* \"#utility.yul\":21528:21534   */\n      dup4\n        /* \"#utility.yul\":21525:21539   */\n      gt\n        /* \"#utility.yul\":21553:21554   */\n      0x01\n        /* \"#utility.yul\":21548:22166   */\n      dup2\n      eq\n      tag_536\n      jumpi\n        /* \"#utility.yul\":22210:22211   */\n      0x00\n        /* \"#utility.yul\":22227:22233   */\n      dup5\n        /* \"#utility.yul\":22224:22301   */\n      iszero\n      tag_537\n      jumpi\n        /* \"#utility.yul\":22276:22285   */\n      dup3\n        /* \"#utility.yul\":22271:22274   */\n      dup8\n        /* \"#utility.yul\":22267:22286   */\n      add\n        /* \"#utility.yul\":22261:22287   */\n      mload\n        /* \"#utility.yul\":22252:22287   */\n      swap1\n      pop\n        /* \"#utility.yul\":22224:22301   */\n    tag_537:\n        /* \"#utility.yul\":22327:22394   */\n      tag_538\n        /* \"#utility.yul\":22387:22393   */\n      dup6\n        /* \"#utility.yul\":22380:22385   */\n      dup3\n        /* \"#utility.yul\":22327:22394   */\n      tag_300\n      jump\t// in\n    tag_538:\n        /* \"#utility.yul\":22321:22325   */\n      dup7\n        /* \"#utility.yul\":22314:22395   */\n      sstore\n        /* \"#utility.yul\":22183:22405   */\n      pop\n        /* \"#utility.yul\":21518:22405   */\n      jump(tag_535)\n        /* \"#utility.yul\":21548:22166   */\n    tag_536:\n        /* \"#utility.yul\":21600:21604   */\n      0x1f\n        /* \"#utility.yul\":21596:21605   */\n      not\n        /* \"#utility.yul\":21588:21594   */\n      dup5\n        /* \"#utility.yul\":21584:21606   */\n      and\n        /* \"#utility.yul\":21634:21671   */\n      tag_539\n        /* \"#utility.yul\":21666:21670   */\n      dup7\n        /* \"#utility.yul\":21634:21671   */\n      tag_286\n      jump\t// in\n    tag_539:\n        /* \"#utility.yul\":21693:21694   */\n      0x00\n        /* \"#utility.yul\":21707:21915   */\n    tag_540:\n        /* \"#utility.yul\":21721:21728   */\n      dup3\n        /* \"#utility.yul\":21718:21719   */\n      dup2\n        /* \"#utility.yul\":21715:21729   */\n      lt\n        /* \"#utility.yul\":21707:21915   */\n      iszero\n      tag_542\n      jumpi\n        /* \"#utility.yul\":21800:21809   */\n      dup5\n        /* \"#utility.yul\":21795:21798   */\n      dup10\n        /* \"#utility.yul\":21791:21810   */\n      add\n        /* \"#utility.yul\":21785:21811   */\n      mload\n        /* \"#utility.yul\":21777:21783   */\n      dup3\n        /* \"#utility.yul\":21770:21812   */\n      sstore\n        /* \"#utility.yul\":21851:21852   */\n      0x01\n        /* \"#utility.yul\":21843:21849   */\n      dup3\n        /* \"#utility.yul\":21839:21853   */\n      add\n        /* \"#utility.yul\":21829:21853   */\n      swap2\n      pop\n        /* \"#utility.yul\":21898:21900   */\n      0x20\n        /* \"#utility.yul\":21887:21896   */\n      dup6\n        /* \"#utility.yul\":21883:21901   */\n      add\n        /* \"#utility.yul\":21870:21901   */\n      swap5\n      pop\n        /* \"#utility.yul\":21744:21748   */\n      0x20\n        /* \"#utility.yul\":21741:21742   */\n      dup2\n        /* \"#utility.yul\":21737:21749   */\n      add\n        /* \"#utility.yul\":21732:21749   */\n      swap1\n      pop\n        /* \"#utility.yul\":21707:21915   */\n      jump(tag_540)\n    tag_542:\n        /* \"#utility.yul\":21943:21949   */\n      dup7\n        /* \"#utility.yul\":21934:21941   */\n      dup4\n        /* \"#utility.yul\":21931:21950   */\n      lt\n        /* \"#utility.yul\":21928:22107   */\n      iszero\n      tag_543\n      jumpi\n        /* \"#utility.yul\":22001:22010   */\n      dup5\n        /* \"#utility.yul\":21996:21999   */\n      dup10\n        /* \"#utility.yul\":21992:22011   */\n      add\n        /* \"#utility.yul\":21986:22012   */\n      mload\n        /* \"#utility.yul\":22044:22092   */\n      tag_544\n        /* \"#utility.yul\":22086:22090   */\n      0x1f\n        /* \"#utility.yul\":22078:22084   */\n      dup10\n        /* \"#utility.yul\":22074:22091   */\n      and\n        /* \"#utility.yul\":22063:22072   */\n      dup3\n        /* \"#utility.yul\":22044:22092   */\n      tag_299\n      jump\t// in\n    tag_544:\n        /* \"#utility.yul\":22036:22042   */\n      dup4\n        /* \"#utility.yul\":22029:22093   */\n      sstore\n        /* \"#utility.yul\":21951:22107   */\n      pop\n        /* \"#utility.yul\":21928:22107   */\n    tag_543:\n        /* \"#utility.yul\":22153:22154   */\n      0x01\n        /* \"#utility.yul\":22149:22150   */\n      0x02\n        /* \"#utility.yul\":22141:22147   */\n      dup9\n        /* \"#utility.yul\":22137:22151   */\n      mul\n        /* \"#utility.yul\":22133:22155   */\n      add\n        /* \"#utility.yul\":22127:22131   */\n      dup9\n        /* \"#utility.yul\":22120:22156   */\n      sstore\n        /* \"#utility.yul\":21555:22166   */\n      pop\n      pop\n      pop\n        /* \"#utility.yul\":21518:22405   */\n    tag_535:\n      pop\n        /* \"#utility.yul\":21108:22411   */\n      pop\n      pop\n      pop\n        /* \"#utility.yul\":21016:22411   */\n      pop\n      pop\n      jump\t// out\n        /* \"#utility.yul\":22417:22584   */\n    tag_301:\n        /* \"#utility.yul\":22557:22576   */\n      0x4e6f20746f6b656e7320746f20766f7465000000000000000000000000000000\n        /* \"#utility.yul\":22553:22554   */\n      0x00\n        /* \"#utility.yul\":22545:22551   */\n      dup3\n        /* \"#utility.yul\":22541:22555   */\n      add\n        /* \"#utility.yul\":22534:22577   */\n      mstore\n        /* \"#utility.yul\":22417:22584   */\n      pop\n      jump\t// out\n        /* \"#utility.yul\":22590:22956   */\n    tag_302:\n        /* \"#utility.yul\":22732:22735   */\n      0x00\n        /* \"#utility.yul\":22753:22820   */\n      tag_547\n        /* \"#utility.yul\":22817:22819   */\n      0x11\n        /* \"#utility.yul\":22812:22815   */\n      dup4\n        /* \"#utility.yul\":22753:22820   */\n      tag_242\n      jump\t// in\n    tag_547:\n        /* \"#utility.yul\":22746:22820   */\n      swap2\n      pop\n        /* \"#utility.yul\":22829:22922   */\n      tag_548\n        /* \"#utility.yul\":22918:22921   */\n      dup3\n        /* \"#utility.yul\":22829:22922   */\n      tag_301\n      jump\t// in\n    tag_548:\n        /* \"#utility.yul\":22947:22949   */\n      0x20\n        /* \"#utility.yul\":22942:22945   */\n      dup3\n        /* \"#utility.yul\":22938:22950   */\n      add\n        /* \"#utility.yul\":22931:22950   */\n      swap1\n      pop\n        /* \"#utility.yul\":22590:22956   */\n      swap2\n      swap1\n      pop\n      jump\t// out\n        /* \"#utility.yul\":22962:23381   */\n    tag_142:\n        /* \"#utility.yul\":23128:23132   */\n      0x00\n        /* \"#utility.yul\":23166:23168   */\n      0x20\n        /* \"#utility.yul\":23155:23164   */\n      dup3\n        /* \"#utility.yul\":23151:23169   */\n      add\n        /* \"#utility.yul\":23143:23169   */\n      swap1\n      pop\n        /* \"#utility.yul\":23215:23224   */\n      dup2\n        /* \"#utility.yul\":23209:23213   */\n      dup2\n        /* \"#utility.yul\":23205:23225   */\n      sub\n        /* \"#utility.yul\":23201:23202   */\n      0x00\n        /* \"#utility.yul\":23190:23199   */\n      dup4\n        /* \"#utility.yul\":23186:23203   */\n      add\n        /* \"#utility.yul\":23179:23226   */\n      mstore\n        /* \"#utility.yul\":23243:23374   */\n      tag_550\n        /* \"#utility.yul\":23369:23373   */\n      dup2\n        /* \"#utility.yul\":23243:23374   */\n      tag_302\n      jump\t// in\n    tag_550:\n        /* \"#utility.yul\":23235:23374   */\n      swap1\n      pop\n        /* \"#utility.yul\":22962:23381   */\n      swap2\n      swap1\n      pop\n      jump\t// out\n        /* \"#utility.yul\":23387:23567   */\n    tag_147:\n        /* \"#utility.yul\":23435:23512   */\n      0x4e487b7100000000000000000000000000000000000000000000000000000000\n        /* \"#utility.yul\":23432:23433   */\n      0x00\n        /* \"#utility.yul\":23425:23513   */\n      mstore\n        /* \"#utility.yul\":23532:23536   */\n      0x21\n        /* \"#utility.yul\":23529:23530   */\n      0x04\n        /* \"#utility.yul\":23522:23537   */\n      mstore\n        /* \"#utility.yul\":23556:23560   */\n      0x24\n        /* \"#utility.yul\":23553:23554   */\n      0x00\n        /* \"#utility.yul\":23546:23561   */\n      revert\n        /* \"#utility.yul\":23573:23764   */\n    tag_152:\n        /* \"#utility.yul\":23613:23616   */\n      0x00\n        /* \"#utility.yul\":23632:23652   */\n      tag_553\n        /* \"#utility.yul\":23650:23651   */\n      dup3\n        /* \"#utility.yul\":23632:23652   */\n      tag_253\n      jump\t// in\n    tag_553:\n        /* \"#utility.yul\":23627:23652   */\n      swap2\n      pop\n        /* \"#utility.yul\":23666:23686   */\n      tag_554\n        /* \"#utility.yul\":23684:23685   */\n      dup4\n        /* \"#utility.yul\":23666:23686   */\n      tag_253\n      jump\t// in\n    tag_554:\n        /* \"#utility.yul\":23661:23686   */\n      swap3\n      pop\n        /* \"#utility.yul\":23709:23710   */\n      dup3\n        /* \"#utility.yul\":23706:23707   */\n      dup3\n        /* \"#utility.yul\":23702:23711   */\n      add\n        /* \"#utility.yul\":23695:23711   */\n      swap1\n      pop\n        /* \"#utility.yul\":23730:23733   */\n      dup1\n        /* \"#utility.yul\":23727:23728   */\n      dup3\n        /* \"#utility.yul\":23724:23734   */\n      gt\n        /* \"#utility.yul\":23721:23757   */\n      iszero\n      tag_555\n      jumpi\n        /* \"#utility.yul\":23737:23755   */\n      tag_556\n      tag_278\n      jump\t// in\n    tag_556:\n        /* \"#utility.yul\":23721:23757   */\n    tag_555:\n        /* \"#utility.yul\":23573:23764   */\n      swap3\n      swap2\n      pop\n      pop\n      jump\t// out\n        /* \"#utility.yul\":23770:23888   */\n    tag_303:\n        /* \"#utility.yul\":23857:23881   */\n      tag_558\n        /* \"#utility.yul\":23875:23880   */\n      dup2\n        /* \"#utility.yul\":23857:23881   */\n      tag_250\n      jump\t// in\n    tag_558:\n        /* \"#utility.yul\":23852:23855   */\n      dup3\n        /* \"#utility.yul\":23845:23882   */\n      mstore\n        /* \"#utility.yul\":23770:23888   */\n      pop\n      pop\n      jump\t// out\n        /* \"#utility.yul\":23894:24336   */\n    tag_199:\n        /* \"#utility.yul\":24043:24047   */\n      0x00\n        /* \"#utility.yul\":24081:24083   */\n      0x60\n        /* \"#utility.yul\":24070:24079   */\n      dup3\n        /* \"#utility.yul\":24066:24084   */\n      add\n        /* \"#utility.yul\":24058:24084   */\n      swap1\n      pop\n        /* \"#utility.yul\":24094:24165   */\n      tag_560\n        /* \"#utility.yul\":24162:24163   */\n      0x00\n        /* \"#utility.yul\":24151:24160   */\n      dup4\n        /* \"#utility.yul\":24147:24164   */\n      add\n        /* \"#utility.yul\":24138:24144   */\n      dup7\n        /* \"#utility.yul\":24094:24165   */\n      tag_303\n      jump\t// in\n    tag_560:\n        /* \"#utility.yul\":24175:24247   */\n      tag_561\n        /* \"#utility.yul\":24243:24245   */\n      0x20\n        /* \"#utility.yul\":24232:24241   */\n      dup4\n        /* \"#utility.yul\":24228:24246   */\n      add\n        /* \"#utility.yul\":24219:24225   */\n      dup6\n        /* \"#utility.yul\":24175:24247   */\n      tag_258\n      jump\t// in\n    tag_561:\n        /* \"#utility.yul\":24257:24329   */\n      tag_562\n        /* \"#utility.yul\":24325:24327   */\n      0x40\n        /* \"#utility.yul\":24314:24323   */\n      dup4\n        /* \"#utility.yul\":24310:24328   */\n      add\n        /* \"#utility.yul\":24301:24307   */\n      dup5\n        /* \"#utility.yul\":24257:24329   */\n      tag_258\n      jump\t// in\n    tag_562:\n        /* \"#utility.yul\":23894:24336   */\n      swap5\n      swap4\n      pop\n      pop\n      pop\n      pop\n      jump\t// out\n        /* \"#utility.yul\":24342:24564   */\n    tag_204:\n        /* \"#utility.yul\":24435:24439   */\n      0x00\n        /* \"#utility.yul\":24473:24475   */\n      0x20\n        /* \"#utility.yul\":24462:24471   */\n      dup3\n        /* \"#utility.yul\":24458:24476   */\n      add\n        /* \"#utility.yul\":24450:24476   */\n      swap1\n      pop\n        /* \"#utility.yul\":24486:24557   */\n      tag_564\n        /* \"#utility.yul\":24554:24555   */\n      0x00\n        /* \"#utility.yul\":24543:24552   */\n      dup4\n        /* \"#utility.yul\":24539:24556   */\n      add\n        /* \"#utility.yul\":24530:24536   */\n      dup5\n        /* \"#utility.yul\":24486:24557   */\n      tag_303\n      jump\t// in\n    tag_564:\n        /* \"#utility.yul\":24342:24564   */\n      swap3\n      swap2\n      pop\n      pop\n      jump\t// out\n\n    auxdata: 0xa26469706673582212208cf199e778450d3a865054a6db70142b45235942dd91fffe03fd36f14d03de1464736f6c634300081a0033\n}\n",
				"bytecode": {
					"linkReferences": {},
					"object": "60806040526100126100e060201b60201c565b600a61001e91906104f7565b620f424061002c9190610541565b60055534801561003a575f80fd5b506040518060400160405280600d81526020017f5765696768746564546f6b656e000000000000000000000000000000000000008152506040518060400160405280600281526020017f575400000000000000000000000000000000000000000000000000000000000081525081600390816100b691906107b3565b5080600490816100c691906107b3565b5050506100db336005546100e860201b60201c565b61096a565b5f6012905090565b5f73ffffffffffffffffffffffffffffffffffffffff168273ffffffffffffffffffffffffffffffffffffffff1603610158575f6040517fec442f0500000000000000000000000000000000000000000000000000000000815260040161014f91906108c1565b60405180910390fd5b6101695f838361016d60201b60201c565b5050565b5f73ffffffffffffffffffffffffffffffffffffffff168373ffffffffffffffffffffffffffffffffffffffff16036101bd578060025f8282546101b191906108da565b9250508190555061028b565b5f805f8573ffffffffffffffffffffffffffffffffffffffff1673ffffffffffffffffffffffffffffffffffffffff1681526020019081526020015f2054905081811015610246578381836040517fe450d38c00000000000000000000000000000000000000000000000000000000815260040161023d9392919061091c565b60405180910390fd5b8181035f808673ffffffffffffffffffffffffffffffffffffffff1673ffffffffffffffffffffffffffffffffffffffff1681526020019081526020015f2081905550505b5f73ffffffffffffffffffffffffffffffffffffffff168273ffffffffffffffffffffffffffffffffffffffff16036102d2578060025f828254039250508190555061031c565b805f808473ffffffffffffffffffffffffffffffffffffffff1673ffffffffffffffffffffffffffffffffffffffff1681526020019081526020015f205f82825401925050819055505b8173ffffffffffffffffffffffffffffffffffffffff168373ffffffffffffffffffffffffffffffffffffffff167fddf252ad1be2c89b69c2b068fc378daa952ba7f163c4a11628f55a4df523b3ef836040516103799190610951565b60405180910390a3505050565b7f4e487b71000000000000000000000000000000000000000000000000000000005f52601160045260245ffd5b5f8160011c9050919050565b5f808291508390505b6001851115610408578086048111156103e4576103e3610386565b5b60018516156103f35780820291505b8081029050610401856103b3565b94506103c8565b94509492505050565b5f8261042057600190506104db565b8161042d575f90506104db565b8160018114610443576002811461044d5761047c565b60019150506104db565b60ff84111561045f5761045e610386565b5b8360020a91508482111561047657610475610386565b5b506104db565b5060208310610133831016604e8410600b84101617156104b15782820a9050838111156104ac576104ab610386565b5b6104db565b6104be84848460016103bf565b925090508184048111156104d5576104d4610386565b5b81810290505b9392505050565b5f819050919050565b5f60ff82169050919050565b5f610501826104e2565b915061050c836104eb565b92506105397fffffffffffffffffffffffffffffffffffffffffffffffffffffffffffffffff8484610411565b905092915050565b5f61054b826104e2565b9150610556836104e2565b9250828202610564816104e2565b9150828204841483151761057b5761057a610386565b5b5092915050565b5f81519050919050565b7f4e487b71000000000000000000000000000000000000000000000000000000005f52604160045260245ffd5b7f4e487b71000000000000000000000000000000000000000000000000000000005f52602260045260245ffd5b5f60028204905060018216806105fd57607f821691505b6020821081036106105761060f6105b9565b5b50919050565b5f819050815f5260205f209050919050565b5f6020601f8301049050919050565b5f82821b905092915050565b5f600883026106727fffffffffffffffffffffffffffffffffffffffffffffffffffffffffffffffff82610637565b61067c8683610637565b95508019841693508086168417925050509392505050565b5f819050919050565b5f6106b76106b26106ad846104e2565b610694565b6104e2565b9050919050565b5f819050919050565b6106d08361069d565b6106e46106dc826106be565b848454610643565b825550505050565b5f90565b6106f86106ec565b6107038184846106c7565b505050565b5b818110156107265761071b5f826106f0565b600181019050610709565b5050565b601f82111561076b5761073c81610616565b61074584610628565b81016020851015610754578190505b61076861076085610628565b830182610708565b50505b505050565b5f82821c905092915050565b5f61078b5f1984600802610770565b1980831691505092915050565b5f6107a3838361077c565b9150826002028217905092915050565b6107bc82610582565b67ffffffffffffffff8111156107d5576107d461058c565b5b6107df82546105e6565b6107ea82828561072a565b5f60209050601f83116001811461081b575f8415610809578287015190505b6108138582610798565b86555061087a565b601f19841661082986610616565b5f5b828110156108505784890151825560018201915060208501945060208101905061082b565b8683101561086d5784890151610869601f89168261077c565b8355505b6001600288020188555050505b505050505050565b5f73ffffffffffffffffffffffffffffffffffffffff82169050919050565b5f6108ab82610882565b9050919050565b6108bb816108a1565b82525050565b5f6020820190506108d45f8301846108b2565b92915050565b5f6108e4826104e2565b91506108ef836104e2565b925082820190508082111561090757610906610386565b5b92915050565b610916816104e2565b82525050565b5f60608201905061092f5f8301866108b2565b61093c602083018561090d565b610949604083018461090d565b949350505050565b5f6020820190506109645f83018461090d565b92915050565b612016806109775f395ff3fe608060405234801561000f575f80fd5b50600436106100e8575f3560e01c80638615d8551161008a578063976b311311610064578063976b31131461024a578063a9059cbb1461027a578063d5abeb01146102aa578063dd62ed3e146102c8576100e8565b80638615d855146101e0578063943e82161461021057806395d89b411461022c576100e8565b806323b872dd116100c657806323b872dd14610158578063313ce567146101885780634e71d92d146101a657806370a08231146101b0576100e8565b806306fdde03146100ec578063095ea7b31461010a57806318160ddd1461013a575b5f80fd5b6100f46102f8565b6040516101019190611352565b60405180910390f35b610124600480360381019061011f9190611410565b610388565b6040516101319190611468565b60405180910390f35b6101426103aa565b60405161014f9190611490565b60405180910390f35b610172600480360381019061016d91906114a9565b6103b3565b60405161017f9190611468565b60405180910390f35b6101906103e1565b60405161019d9190611514565b60405180910390f35b6101ae6103e9565b005b6101ca60048036038101906101c5919061152d565b61052c565b6040516101d79190611490565b60405180910390f35b6101fa60048036038101906101f59190611684565b610571565b6040516102079190611490565b60405180910390f35b61022a60048036038101906102259190611701565b6106e7565b005b610234610952565b6040516102419190611352565b60405180910390f35b610264600480360381019061025f919061173f565b6109e2565b604051610271919061187d565b60405180910390f35b610294600480360381019061028f9190611410565b610b12565b6040516102a19190611468565b60405180910390f35b6102b2610b34565b6040516102bf9190611490565b60405180910390f35b6102e260048036038101906102dd919061189d565b610b3a565b6040516102ef9190611490565b60405180910390f35b60606003805461030790611908565b80601f016020809104026020016040519081016040528092919081815260200182805461033390611908565b801561037e5780601f106103555761010080835404028352916020019161037e565b820191905f5260205f20905b81548152906001019060200180831161036157829003601f168201915b5050505050905090565b5f80610392610bbc565b905061039f818585610bc3565b600191505092915050565b5f600254905090565b5f806103bd610bbc565b90506103ca858285610bd5565b6103d5858585610c68565b60019150509392505050565b5f6012905090565b60075f3373ffffffffffffffffffffffffffffffffffffffff1673ffffffffffffffffffffffffffffffffffffffff1681526020019081526020015f205f9054906101000a900460ff161561046a576040517f0b1327a600000000000000000000000000000000000000000000000000000000815260040160405180910390fd5b6005546104756103aa565b106104ac576040517fcbe2483100000000000000000000000000000000000000000000000000000000815260040160405180910390fd5b6104d5336104b86103e1565b600a6104c49190611a94565b60646104d09190611ade565b610d58565b600160075f3373ffffffffffffffffffffffffffffffffffffffff1673ffffffffffffffffffffffffffffffffffffffff1681526020019081526020015f205f6101000a81548160ff021916908315150217905550565b5f805f8373ffffffffffffffffffffffffffffffffffffffff1673ffffffffffffffffffffffffffffffffffffffff1681526020019081526020015f20549050919050565b5f8061057c3361052c565b116105bc576040517f08c379a00000000000000000000000000000000000000000000000000000000081526004016105b390611b69565b60405180910390fd5b6105c46103aa565b821115610606576040517f08c379a00000000000000000000000000000000000000000000000000000000081526004016105fd90611bd1565b60405180910390fd5b600660018160018154018082558091505003905f5260205f209050505f600660016006805490506106379190611bef565b8154811061064857610647611c22565b5b905f5260205f2090600902019050838160020190816106679190611dec565b508281600701819055505f81600301819055505f81600401819055505f81600501819055505f81600601819055505f816008015f6101000a81548160ff0219169083151502179055505f8160080160016101000a81548160ff02191690831515021790555060016006805490506106de9190611bef565b91505092915050565b5f600683815481106106fc576106fb611c22565b5b905f5260205f20906009020190508060080160019054906101000a900460ff1615610753576040517f66b6cb4a00000000000000000000000000000000000000000000000000000000815260040160405180910390fd5b61076833825f01610dd790919063ffffffff16565b1561079f576040517f7c9a1cf900000000000000000000000000000000000000000000000000000000815260040160405180910390fd5b5f6107a93361052c565b90505f81116107ed576040517f08c379a00000000000000000000000000000000000000000000000000000000081526004016107e490611f05565b60405180910390fd5b61080233835f01610e0490919063ffffffff16565b506001600281111561081757610816611f23565b5b83600281111561082a57610829611f23565b5b0361084e5780826003015f8282546108429190611f50565b925050819055506108e0565b5f600281111561086157610860611f23565b5b83600281111561087457610873611f23565b5b036108985780826004015f82825461088c9190611f50565b925050819055506108df565b6002808111156108ab576108aa611f23565b5b8360028111156108be576108bd611f23565b5b036108de5780826005015f8282546108d69190611f50565b925050819055505b5b5b80826006015f8282546108f39190611f50565b92505081905550816007015482600601541061094c5760018260080160016101000a81548160ff0219169083151502179055508160040154826003015411826008015f6101000a81548160ff0219169083151502179055505b50505050565b60606004805461096190611908565b80601f016020809104026020016040519081016040528092919081815260200182805461098d90611908565b80156109d85780601f106109af576101008083540402835291602001916109d8565b820191905f5260205f20905b8154815290600101906020018083116109bb57829003601f168201915b5050505050905090565b6109ea6112a0565b5f600683815481106109ff576109fe611c22565b5b905f5260205f2090600902019050604051806101000160405280826002018054610a2890611908565b80601f0160208091040260200160405190810160405280929190818152602001828054610a5490611908565b8015610a9f5780601f10610a7657610100808354040283529160200191610a9f565b820191905f5260205f20905b815481529060010190602001808311610a8257829003601f168201915b505050505081526020018260030154815260200182600401548152602001826005015481526020018260060154815260200182600701548152602001826008015f9054906101000a900460ff16151581526020018260080160019054906101000a900460ff161515815250915050919050565b5f80610b1c610bbc565b9050610b29818585610c68565b600191505092915050565b60055481565b5f60015f8473ffffffffffffffffffffffffffffffffffffffff1673ffffffffffffffffffffffffffffffffffffffff1681526020019081526020015f205f8373ffffffffffffffffffffffffffffffffffffffff1673ffffffffffffffffffffffffffffffffffffffff1681526020019081526020015f2054905092915050565b5f33905090565b610bd08383836001610e31565b505050565b5f610be08484610b3a565b90507fffffffffffffffffffffffffffffffffffffffffffffffffffffffffffffffff811015610c625781811015610c53578281836040517ffb8f41b2000000000000000000000000000000000000000000000000000000008152600401610c4a93929190611f92565b60405180910390fd5b610c6184848484035f610e31565b5b50505050565b5f73ffffffffffffffffffffffffffffffffffffffff168373ffffffffffffffffffffffffffffffffffffffff1603610cd8575f6040517f96c6fd1e000000000000000000000000000000000000000000000000000000008152600401610ccf9190611fc7565b60405180910390fd5b5f73ffffffffffffffffffffffffffffffffffffffff168273ffffffffffffffffffffffffffffffffffffffff1603610d48575f6040517fec442f05000000000000000000000000000000000000000000000000000000008152600401610d3f9190611fc7565b60405180910390fd5b610d53838383611000565b505050565b5f73ffffffffffffffffffffffffffffffffffffffff168273ffffffffffffffffffffffffffffffffffffffff1603610dc8575f6040517fec442f05000000000000000000000000000000000000000000000000000000008152600401610dbf9190611fc7565b60405180910390fd5b610dd35f8383611000565b5050565b5f610dfc835f018373ffffffffffffffffffffffffffffffffffffffff165f1b611219565b905092915050565b5f610e29835f018373ffffffffffffffffffffffffffffffffffffffff165f1b611239565b905092915050565b5f73ffffffffffffffffffffffffffffffffffffffff168473ffffffffffffffffffffffffffffffffffffffff1603610ea1575f6040517fe602df05000000000000000000000000000000000000000000000000000000008152600401610e989190611fc7565b60405180910390fd5b5f73ffffffffffffffffffffffffffffffffffffffff168373ffffffffffffffffffffffffffffffffffffffff1603610f11575f6040517f94280d62000000000000000000000000000000000000000000000000000000008152600401610f089190611fc7565b60405180910390fd5b8160015f8673ffffffffffffffffffffffffffffffffffffffff1673ffffffffffffffffffffffffffffffffffffffff1681526020019081526020015f205f8573ffffffffffffffffffffffffffffffffffffffff1673ffffffffffffffffffffffffffffffffffffffff1681526020019081526020015f20819055508015610ffa578273ffffffffffffffffffffffffffffffffffffffff168473ffffffffffffffffffffffffffffffffffffffff167f8c5be1e5ebec7d5bd14f71427d1e84f3dd0314c0f7b2291e5b200ac8c7c3b92584604051610ff19190611490565b60405180910390a35b50505050565b5f73ffffffffffffffffffffffffffffffffffffffff168373ffffffffffffffffffffffffffffffffffffffff1603611050578060025f8282546110449190611f50565b9250508190555061111e565b5f805f8573ffffffffffffffffffffffffffffffffffffffff1673ffffffffffffffffffffffffffffffffffffffff1681526020019081526020015f20549050818110156110d9578381836040517fe450d38c0000000000000000000000000000000000000000000000000000000081526004016110d093929190611f92565b60405180910390fd5b8181035f808673ffffffffffffffffffffffffffffffffffffffff1673ffffffffffffffffffffffffffffffffffffffff1681526020019081526020015f2081905550505b5f73ffffffffffffffffffffffffffffffffffffffff168273ffffffffffffffffffffffffffffffffffffffff1603611165578060025f82825403925050819055506111af565b805f808473ffffffffffffffffffffffffffffffffffffffff1673ffffffffffffffffffffffffffffffffffffffff1681526020019081526020015f205f82825401925050819055505b8173ffffffffffffffffffffffffffffffffffffffff168373ffffffffffffffffffffffffffffffffffffffff167fddf252ad1be2c89b69c2b068fc378daa952ba7f163c4a11628f55a4df523b3ef8360405161120c9190611490565b60405180910390a3505050565b5f80836001015f8481526020019081526020015f20541415905092915050565b5f6112448383611219565b61129657825f0182908060018154018082558091505060019003905f5260205f20015f9091909190915055825f0180549050836001015f8481526020019081526020015f20819055506001905061129a565b5f90505b92915050565b604051806101000160405280606081526020015f81526020015f81526020015f81526020015f81526020015f81526020015f151581526020015f151581525090565b5f81519050919050565b5f82825260208201905092915050565b8281835e5f83830152505050565b5f601f19601f8301169050919050565b5f611324826112e2565b61132e81856112ec565b935061133e8185602086016112fc565b6113478161130a565b840191505092915050565b5f6020820190508181035f83015261136a818461131a565b905092915050565b5f604051905090565b5f80fd5b5f80fd5b5f73ffffffffffffffffffffffffffffffffffffffff82169050919050565b5f6113ac82611383565b9050919050565b6113bc816113a2565b81146113c6575f80fd5b50565b5f813590506113d7816113b3565b92915050565b5f819050919050565b6113ef816113dd565b81146113f9575f80fd5b50565b5f8135905061140a816113e6565b92915050565b5f80604083850312156114265761142561137b565b5b5f611433858286016113c9565b9250506020611444858286016113fc565b9150509250929050565b5f8115159050919050565b6114628161144e565b82525050565b5f60208201905061147b5f830184611459565b92915050565b61148a816113dd565b82525050565b5f6020820190506114a35f830184611481565b92915050565b5f805f606084860312156114c0576114bf61137b565b5b5f6114cd868287016113c9565b93505060206114de868287016113c9565b92505060406114ef868287016113fc565b9150509250925092565b5f60ff82169050919050565b61150e816114f9565b82525050565b5f6020820190506115275f830184611505565b92915050565b5f602082840312156115425761154161137b565b5b5f61154f848285016113c9565b91505092915050565b5f80fd5b5f80fd5b7f4e487b71000000000000000000000000000000000000000000000000000000005f52604160045260245ffd5b6115968261130a565b810181811067ffffffffffffffff821117156115b5576115b4611560565b5b80604052505050565b5f6115c7611372565b90506115d3828261158d565b919050565b5f67ffffffffffffffff8211156115f2576115f1611560565b5b6115fb8261130a565b9050602081019050919050565b828183375f83830152505050565b5f611628611623846115d8565b6115be565b9050828152602081018484840111156116445761164361155c565b5b61164f848285611608565b509392505050565b5f82601f83011261166b5761166a611558565b5b813561167b848260208601611616565b91505092915050565b5f806040838503121561169a5761169961137b565b5b5f83013567ffffffffffffffff8111156116b7576116b661137f565b5b6116c385828601611657565b92505060206116d4858286016113fc565b9150509250929050565b600381106116ea575f80fd5b50565b5f813590506116fb816116de565b92915050565b5f80604083850312156117175761171661137b565b5b5f611724858286016113fc565b9250506020611735858286016116ed565b9150509250929050565b5f602082840312156117545761175361137b565b5b5f611761848285016113fc565b91505092915050565b5f82825260208201905092915050565b5f611784826112e2565b61178e818561176a565b935061179e8185602086016112fc565b6117a78161130a565b840191505092915050565b6117bb816113dd565b82525050565b6117ca8161144e565b82525050565b5f61010083015f8301518482035f8601526117eb828261177a565b915050602083015161180060208601826117b2565b50604083015161181360408601826117b2565b50606083015161182660608601826117b2565b50608083015161183960808601826117b2565b5060a083015161184c60a08601826117b2565b5060c083015161185f60c08601826117c1565b5060e083015161187260e08601826117c1565b508091505092915050565b5f6020820190508181035f83015261189581846117d0565b905092915050565b5f80604083850312156118b3576118b261137b565b5b5f6118c0858286016113c9565b92505060206118d1858286016113c9565b9150509250929050565b7f4e487b71000000000000000000000000000000000000000000000000000000005f52602260045260245ffd5b5f600282049050600182168061191f57607f821691505b602082108103611932576119316118db565b5b50919050565b7f4e487b71000000000000000000000000000000000000000000000000000000005f52601160045260245ffd5b5f8160011c9050919050565b5f808291508390505b60018511156119ba5780860481111561199657611995611938565b5b60018516156119a55780820291505b80810290506119b385611965565b945061197a565b94509492505050565b5f826119d25760019050611a8d565b816119df575f9050611a8d565b81600181146119f557600281146119ff57611a2e565b6001915050611a8d565b60ff841115611a1157611a10611938565b5b8360020a915084821115611a2857611a27611938565b5b50611a8d565b5060208310610133831016604e8410600b8410161715611a635782820a905083811115611a5e57611a5d611938565b5b611a8d565b611a708484846001611971565b92509050818404811115611a8757611a86611938565b5b81810290505b9392505050565b5f611a9e826113dd565b9150611aa9836114f9565b9250611ad67fffffffffffffffffffffffffffffffffffffffffffffffffffffffffffffffff84846119c3565b905092915050565b5f611ae8826113dd565b9150611af3836113dd565b9250828202611b01816113dd565b91508282048414831517611b1857611b17611938565b5b5092915050565b7f4e6f546f6b656e7348656c6400000000000000000000000000000000000000005f82015250565b5f611b53600c836112ec565b9150611b5e82611b1f565b602082019050919050565b5f6020820190508181035f830152611b8081611b47565b9050919050565b7f51756f72756d546f6f48696768000000000000000000000000000000000000005f82015250565b5f611bbb600d836112ec565b9150611bc682611b87565b602082019050919050565b5f6020820190508181035f830152611be881611baf565b9050919050565b5f611bf9826113dd565b9150611c04836113dd565b9250828203905081811115611c1c57611c1b611938565b5b92915050565b7f4e487b71000000000000000000000000000000000000000000000000000000005f52603260045260245ffd5b5f819050815f5260205f209050919050565b5f6020601f8301049050919050565b5f82821b905092915050565b5f60088302611cab7fffffffffffffffffffffffffffffffffffffffffffffffffffffffffffffffff82611c70565b611cb58683611c70565b95508019841693508086168417925050509392505050565b5f819050919050565b5f611cf0611ceb611ce6846113dd565b611ccd565b6113dd565b9050919050565b5f819050919050565b611d0983611cd6565b611d1d611d1582611cf7565b848454611c7c565b825550505050565b5f90565b611d31611d25565b611d3c818484611d00565b505050565b5b81811015611d5f57611d545f82611d29565b600181019050611d42565b5050565b601f821115611da457611d7581611c4f565b611d7e84611c61565b81016020851015611d8d578190505b611da1611d9985611c61565b830182611d41565b50505b505050565b5f82821c905092915050565b5f611dc45f1984600802611da9565b1980831691505092915050565b5f611ddc8383611db5565b9150826002028217905092915050565b611df5826112e2565b67ffffffffffffffff811115611e0e57611e0d611560565b5b611e188254611908565b611e23828285611d63565b5f60209050601f831160018114611e54575f8415611e42578287015190505b611e4c8582611dd1565b865550611eb3565b601f198416611e6286611c4f565b5f5b82811015611e8957848901518255600182019150602085019450602081019050611e64565b86831015611ea65784890151611ea2601f891682611db5565b8355505b6001600288020188555050505b505050505050565b7f4e6f20746f6b656e7320746f20766f74650000000000000000000000000000005f82015250565b5f611eef6011836112ec565b9150611efa82611ebb565b602082019050919050565b5f6020820190508181035f830152611f1c81611ee3565b9050919050565b7f4e487b71000000000000000000000000000000000000000000000000000000005f52602160045260245ffd5b5f611f5a826113dd565b9150611f65836113dd565b9250828201905080821115611f7d57611f7c611938565b5b92915050565b611f8c816113a2565b82525050565b5f606082019050611fa55f830186611f83565b611fb26020830185611481565b611fbf6040830184611481565b949350505050565b5f602082019050611fda5f830184611f83565b9291505056fea26469706673582212208cf199e778450d3a865054a6db70142b45235942dd91fffe03fd36f14d03de1464736f6c634300081a0033",
					"opcodes": "PUSH1 0x80 PUSH1 0x40 MSTORE PUSH2 0x12 PUSH2 0xE0 PUSH1 0x20 SHL PUSH1 0x20 SHR JUMP JUMPDEST PUSH1 0xA PUSH2 0x1E SWAP2 SWAP1 PUSH2 0x4F7 JUMP JUMPDEST PUSH3 0xF4240 PUSH2 0x2C SWAP2 SWAP1 PUSH2 0x541 JUMP JUMPDEST PUSH1 0x5 SSTORE CALLVALUE DUP1 ISZERO PUSH2 0x3A JUMPI PUSH0 DUP1 REVERT JUMPDEST POP PUSH1 0x40 MLOAD DUP1 PUSH1 0x40 ADD PUSH1 0x40 MSTORE DUP1 PUSH1 0xD DUP2 MSTORE PUSH1 0x20 ADD PUSH32 0x5765696768746564546F6B656E00000000000000000000000000000000000000 DUP2 MSTORE POP PUSH1 0x40 MLOAD DUP1 PUSH1 0x40 ADD PUSH1 0x40 MSTORE DUP1 PUSH1 0x2 DUP2 MSTORE PUSH1 0x20 ADD PUSH32 0x5754000000000000000000000000000000000000000000000000000000000000 DUP2 MSTORE POP DUP2 PUSH1 0x3 SWAP1 DUP2 PUSH2 0xB6 SWAP2 SWAP1 PUSH2 0x7B3 JUMP JUMPDEST POP DUP1 PUSH1 0x4 SWAP1 DUP2 PUSH2 0xC6 SWAP2 SWAP1 PUSH2 0x7B3 JUMP JUMPDEST POP POP POP PUSH2 0xDB CALLER PUSH1 0x5 SLOAD PUSH2 0xE8 PUSH1 0x20 SHL PUSH1 0x20 SHR JUMP JUMPDEST PUSH2 0x96A JUMP JUMPDEST PUSH0 PUSH1 0x12 SWAP1 POP SWAP1 JUMP JUMPDEST PUSH0 PUSH20 0xFFFFFFFFFFFFFFFFFFFFFFFFFFFFFFFFFFFFFFFF AND DUP3 PUSH20 0xFFFFFFFFFFFFFFFFFFFFFFFFFFFFFFFFFFFFFFFF AND SUB PUSH2 0x158 JUMPI PUSH0 PUSH1 0x40 MLOAD PUSH32 0xEC442F0500000000000000000000000000000000000000000000000000000000 DUP2 MSTORE PUSH1 0x4 ADD PUSH2 0x14F SWAP2 SWAP1 PUSH2 0x8C1 JUMP JUMPDEST PUSH1 0x40 MLOAD DUP1 SWAP2 SUB SWAP1 REVERT JUMPDEST PUSH2 0x169 PUSH0 DUP4 DUP4 PUSH2 0x16D PUSH1 0x20 SHL PUSH1 0x20 SHR JUMP JUMPDEST POP POP JUMP JUMPDEST PUSH0 PUSH20 0xFFFFFFFFFFFFFFFFFFFFFFFFFFFFFFFFFFFFFFFF AND DUP4 PUSH20 0xFFFFFFFFFFFFFFFFFFFFFFFFFFFFFFFFFFFFFFFF AND SUB PUSH2 0x1BD JUMPI DUP1 PUSH1 0x2 PUSH0 DUP3 DUP3 SLOAD PUSH2 0x1B1 SWAP2 SWAP1 PUSH2 0x8DA JUMP JUMPDEST SWAP3 POP POP DUP2 SWAP1 SSTORE POP PUSH2 0x28B JUMP JUMPDEST PUSH0 DUP1 PUSH0 DUP6 PUSH20 0xFFFFFFFFFFFFFFFFFFFFFFFFFFFFFFFFFFFFFFFF AND PUSH20 0xFFFFFFFFFFFFFFFFFFFFFFFFFFFFFFFFFFFFFFFF AND DUP2 MSTORE PUSH1 0x20 ADD SWAP1 DUP2 MSTORE PUSH1 0x20 ADD PUSH0 KECCAK256 SLOAD SWAP1 POP DUP2 DUP2 LT ISZERO PUSH2 0x246 JUMPI DUP4 DUP2 DUP4 PUSH1 0x40 MLOAD PUSH32 0xE450D38C00000000000000000000000000000000000000000000000000000000 DUP2 MSTORE PUSH1 0x4 ADD PUSH2 0x23D SWAP4 SWAP3 SWAP2 SWAP1 PUSH2 0x91C JUMP JUMPDEST PUSH1 0x40 MLOAD DUP1 SWAP2 SUB SWAP1 REVERT JUMPDEST DUP2 DUP2 SUB PUSH0 DUP1 DUP7 PUSH20 0xFFFFFFFFFFFFFFFFFFFFFFFFFFFFFFFFFFFFFFFF AND PUSH20 0xFFFFFFFFFFFFFFFFFFFFFFFFFFFFFFFFFFFFFFFF AND DUP2 MSTORE PUSH1 0x20 ADD SWAP1 DUP2 MSTORE PUSH1 0x20 ADD PUSH0 KECCAK256 DUP2 SWAP1 SSTORE POP POP JUMPDEST PUSH0 PUSH20 0xFFFFFFFFFFFFFFFFFFFFFFFFFFFFFFFFFFFFFFFF AND DUP3 PUSH20 0xFFFFFFFFFFFFFFFFFFFFFFFFFFFFFFFFFFFFFFFF AND SUB PUSH2 0x2D2 JUMPI DUP1 PUSH1 0x2 PUSH0 DUP3 DUP3 SLOAD SUB SWAP3 POP POP DUP2 SWAP1 SSTORE POP PUSH2 0x31C JUMP JUMPDEST DUP1 PUSH0 DUP1 DUP5 PUSH20 0xFFFFFFFFFFFFFFFFFFFFFFFFFFFFFFFFFFFFFFFF AND PUSH20 0xFFFFFFFFFFFFFFFFFFFFFFFFFFFFFFFFFFFFFFFF AND DUP2 MSTORE PUSH1 0x20 ADD SWAP1 DUP2 MSTORE PUSH1 0x20 ADD PUSH0 KECCAK256 PUSH0 DUP3 DUP3 SLOAD ADD SWAP3 POP POP DUP2 SWAP1 SSTORE POP JUMPDEST DUP2 PUSH20 0xFFFFFFFFFFFFFFFFFFFFFFFFFFFFFFFFFFFFFFFF AND DUP4 PUSH20 0xFFFFFFFFFFFFFFFFFFFFFFFFFFFFFFFFFFFFFFFF AND PUSH32 0xDDF252AD1BE2C89B69C2B068FC378DAA952BA7F163C4A11628F55A4DF523B3EF DUP4 PUSH1 0x40 MLOAD PUSH2 0x379 SWAP2 SWAP1 PUSH2 0x951 JUMP JUMPDEST PUSH1 0x40 MLOAD DUP1 SWAP2 SUB SWAP1 LOG3 POP POP POP JUMP JUMPDEST PUSH32 0x4E487B7100000000000000000000000000000000000000000000000000000000 PUSH0 MSTORE PUSH1 0x11 PUSH1 0x4 MSTORE PUSH1 0x24 PUSH0 REVERT JUMPDEST PUSH0 DUP2 PUSH1 0x1 SHR SWAP1 POP SWAP2 SWAP1 POP JUMP JUMPDEST PUSH0 DUP1 DUP3 SWAP2 POP DUP4 SWAP1 POP JUMPDEST PUSH1 0x1 DUP6 GT ISZERO PUSH2 0x408 JUMPI DUP1 DUP7 DIV DUP2 GT ISZERO PUSH2 0x3E4 JUMPI PUSH2 0x3E3 PUSH2 0x386 JUMP JUMPDEST JUMPDEST PUSH1 0x1 DUP6 AND ISZERO PUSH2 0x3F3 JUMPI DUP1 DUP3 MUL SWAP2 POP JUMPDEST DUP1 DUP2 MUL SWAP1 POP PUSH2 0x401 DUP6 PUSH2 0x3B3 JUMP JUMPDEST SWAP5 POP PUSH2 0x3C8 JUMP JUMPDEST SWAP5 POP SWAP5 SWAP3 POP POP POP JUMP JUMPDEST PUSH0 DUP3 PUSH2 0x420 JUMPI PUSH1 0x1 SWAP1 POP PUSH2 0x4DB JUMP JUMPDEST DUP2 PUSH2 0x42D JUMPI PUSH0 SWAP1 POP PUSH2 0x4DB JUMP JUMPDEST DUP2 PUSH1 0x1 DUP2 EQ PUSH2 0x443 JUMPI PUSH1 0x2 DUP2 EQ PUSH2 0x44D JUMPI PUSH2 0x47C JUMP JUMPDEST PUSH1 0x1 SWAP2 POP POP PUSH2 0x4DB JUMP JUMPDEST PUSH1 0xFF DUP5 GT ISZERO PUSH2 0x45F JUMPI PUSH2 0x45E PUSH2 0x386 JUMP JUMPDEST JUMPDEST DUP4 PUSH1 0x2 EXP SWAP2 POP DUP5 DUP3 GT ISZERO PUSH2 0x476 JUMPI PUSH2 0x475 PUSH2 0x386 JUMP JUMPDEST JUMPDEST POP PUSH2 0x4DB JUMP JUMPDEST POP PUSH1 0x20 DUP4 LT PUSH2 0x133 DUP4 LT AND PUSH1 0x4E DUP5 LT PUSH1 0xB DUP5 LT AND OR ISZERO PUSH2 0x4B1 JUMPI DUP3 DUP3 EXP SWAP1 POP DUP4 DUP2 GT ISZERO PUSH2 0x4AC JUMPI PUSH2 0x4AB PUSH2 0x386 JUMP JUMPDEST JUMPDEST PUSH2 0x4DB JUMP JUMPDEST PUSH2 0x4BE DUP5 DUP5 DUP5 PUSH1 0x1 PUSH2 0x3BF JUMP JUMPDEST SWAP3 POP SWAP1 POP DUP2 DUP5 DIV DUP2 GT ISZERO PUSH2 0x4D5 JUMPI PUSH2 0x4D4 PUSH2 0x386 JUMP JUMPDEST JUMPDEST DUP2 DUP2 MUL SWAP1 POP JUMPDEST SWAP4 SWAP3 POP POP POP JUMP JUMPDEST PUSH0 DUP2 SWAP1 POP SWAP2 SWAP1 POP JUMP JUMPDEST PUSH0 PUSH1 0xFF DUP3 AND SWAP1 POP SWAP2 SWAP1 POP JUMP JUMPDEST PUSH0 PUSH2 0x501 DUP3 PUSH2 0x4E2 JUMP JUMPDEST SWAP2 POP PUSH2 0x50C DUP4 PUSH2 0x4EB JUMP JUMPDEST SWAP3 POP PUSH2 0x539 PUSH32 0xFFFFFFFFFFFFFFFFFFFFFFFFFFFFFFFFFFFFFFFFFFFFFFFFFFFFFFFFFFFFFFFF DUP5 DUP5 PUSH2 0x411 JUMP JUMPDEST SWAP1 POP SWAP3 SWAP2 POP POP JUMP JUMPDEST PUSH0 PUSH2 0x54B DUP3 PUSH2 0x4E2 JUMP JUMPDEST SWAP2 POP PUSH2 0x556 DUP4 PUSH2 0x4E2 JUMP JUMPDEST SWAP3 POP DUP3 DUP3 MUL PUSH2 0x564 DUP2 PUSH2 0x4E2 JUMP JUMPDEST SWAP2 POP DUP3 DUP3 DIV DUP5 EQ DUP4 ISZERO OR PUSH2 0x57B JUMPI PUSH2 0x57A PUSH2 0x386 JUMP JUMPDEST JUMPDEST POP SWAP3 SWAP2 POP POP JUMP JUMPDEST PUSH0 DUP2 MLOAD SWAP1 POP SWAP2 SWAP1 POP JUMP JUMPDEST PUSH32 0x4E487B7100000000000000000000000000000000000000000000000000000000 PUSH0 MSTORE PUSH1 0x41 PUSH1 0x4 MSTORE PUSH1 0x24 PUSH0 REVERT JUMPDEST PUSH32 0x4E487B7100000000000000000000000000000000000000000000000000000000 PUSH0 MSTORE PUSH1 0x22 PUSH1 0x4 MSTORE PUSH1 0x24 PUSH0 REVERT JUMPDEST PUSH0 PUSH1 0x2 DUP3 DIV SWAP1 POP PUSH1 0x1 DUP3 AND DUP1 PUSH2 0x5FD JUMPI PUSH1 0x7F DUP3 AND SWAP2 POP JUMPDEST PUSH1 0x20 DUP3 LT DUP2 SUB PUSH2 0x610 JUMPI PUSH2 0x60F PUSH2 0x5B9 JUMP JUMPDEST JUMPDEST POP SWAP2 SWAP1 POP JUMP JUMPDEST PUSH0 DUP2 SWAP1 POP DUP2 PUSH0 MSTORE PUSH1 0x20 PUSH0 KECCAK256 SWAP1 POP SWAP2 SWAP1 POP JUMP JUMPDEST PUSH0 PUSH1 0x20 PUSH1 0x1F DUP4 ADD DIV SWAP1 POP SWAP2 SWAP1 POP JUMP JUMPDEST PUSH0 DUP3 DUP3 SHL SWAP1 POP SWAP3 SWAP2 POP POP JUMP JUMPDEST PUSH0 PUSH1 0x8 DUP4 MUL PUSH2 0x672 PUSH32 0xFFFFFFFFFFFFFFFFFFFFFFFFFFFFFFFFFFFFFFFFFFFFFFFFFFFFFFFFFFFFFFFF DUP3 PUSH2 0x637 JUMP JUMPDEST PUSH2 0x67C DUP7 DUP4 PUSH2 0x637 JUMP JUMPDEST SWAP6 POP DUP1 NOT DUP5 AND SWAP4 POP DUP1 DUP7 AND DUP5 OR SWAP3 POP POP POP SWAP4 SWAP3 POP POP POP JUMP JUMPDEST PUSH0 DUP2 SWAP1 POP SWAP2 SWAP1 POP JUMP JUMPDEST PUSH0 PUSH2 0x6B7 PUSH2 0x6B2 PUSH2 0x6AD DUP5 PUSH2 0x4E2 JUMP JUMPDEST PUSH2 0x694 JUMP JUMPDEST PUSH2 0x4E2 JUMP JUMPDEST SWAP1 POP SWAP2 SWAP1 POP JUMP JUMPDEST PUSH0 DUP2 SWAP1 POP SWAP2 SWAP1 POP JUMP JUMPDEST PUSH2 0x6D0 DUP4 PUSH2 0x69D JUMP JUMPDEST PUSH2 0x6E4 PUSH2 0x6DC DUP3 PUSH2 0x6BE JUMP JUMPDEST DUP5 DUP5 SLOAD PUSH2 0x643 JUMP JUMPDEST DUP3 SSTORE POP POP POP POP JUMP JUMPDEST PUSH0 SWAP1 JUMP JUMPDEST PUSH2 0x6F8 PUSH2 0x6EC JUMP JUMPDEST PUSH2 0x703 DUP2 DUP5 DUP5 PUSH2 0x6C7 JUMP JUMPDEST POP POP POP JUMP JUMPDEST JUMPDEST DUP2 DUP2 LT ISZERO PUSH2 0x726 JUMPI PUSH2 0x71B PUSH0 DUP3 PUSH2 0x6F0 JUMP JUMPDEST PUSH1 0x1 DUP2 ADD SWAP1 POP PUSH2 0x709 JUMP JUMPDEST POP POP JUMP JUMPDEST PUSH1 0x1F DUP3 GT ISZERO PUSH2 0x76B JUMPI PUSH2 0x73C DUP2 PUSH2 0x616 JUMP JUMPDEST PUSH2 0x745 DUP5 PUSH2 0x628 JUMP JUMPDEST DUP2 ADD PUSH1 0x20 DUP6 LT ISZERO PUSH2 0x754 JUMPI DUP2 SWAP1 POP JUMPDEST PUSH2 0x768 PUSH2 0x760 DUP6 PUSH2 0x628 JUMP JUMPDEST DUP4 ADD DUP3 PUSH2 0x708 JUMP JUMPDEST POP POP JUMPDEST POP POP POP JUMP JUMPDEST PUSH0 DUP3 DUP3 SHR SWAP1 POP SWAP3 SWAP2 POP POP JUMP JUMPDEST PUSH0 PUSH2 0x78B PUSH0 NOT DUP5 PUSH1 0x8 MUL PUSH2 0x770 JUMP JUMPDEST NOT DUP1 DUP4 AND SWAP2 POP POP SWAP3 SWAP2 POP POP JUMP JUMPDEST PUSH0 PUSH2 0x7A3 DUP4 DUP4 PUSH2 0x77C JUMP JUMPDEST SWAP2 POP DUP3 PUSH1 0x2 MUL DUP3 OR SWAP1 POP SWAP3 SWAP2 POP POP JUMP JUMPDEST PUSH2 0x7BC DUP3 PUSH2 0x582 JUMP JUMPDEST PUSH8 0xFFFFFFFFFFFFFFFF DUP2 GT ISZERO PUSH2 0x7D5 JUMPI PUSH2 0x7D4 PUSH2 0x58C JUMP JUMPDEST JUMPDEST PUSH2 0x7DF DUP3 SLOAD PUSH2 0x5E6 JUMP JUMPDEST PUSH2 0x7EA DUP3 DUP3 DUP6 PUSH2 0x72A JUMP JUMPDEST PUSH0 PUSH1 0x20 SWAP1 POP PUSH1 0x1F DUP4 GT PUSH1 0x1 DUP2 EQ PUSH2 0x81B JUMPI PUSH0 DUP5 ISZERO PUSH2 0x809 JUMPI DUP3 DUP8 ADD MLOAD SWAP1 POP JUMPDEST PUSH2 0x813 DUP6 DUP3 PUSH2 0x798 JUMP JUMPDEST DUP7 SSTORE POP PUSH2 0x87A JUMP JUMPDEST PUSH1 0x1F NOT DUP5 AND PUSH2 0x829 DUP7 PUSH2 0x616 JUMP JUMPDEST PUSH0 JUMPDEST DUP3 DUP2 LT ISZERO PUSH2 0x850 JUMPI DUP5 DUP10 ADD MLOAD DUP3 SSTORE PUSH1 0x1 DUP3 ADD SWAP2 POP PUSH1 0x20 DUP6 ADD SWAP5 POP PUSH1 0x20 DUP2 ADD SWAP1 POP PUSH2 0x82B JUMP JUMPDEST DUP7 DUP4 LT ISZERO PUSH2 0x86D JUMPI DUP5 DUP10 ADD MLOAD PUSH2 0x869 PUSH1 0x1F DUP10 AND DUP3 PUSH2 0x77C JUMP JUMPDEST DUP4 SSTORE POP JUMPDEST PUSH1 0x1 PUSH1 0x2 DUP9 MUL ADD DUP9 SSTORE POP POP POP JUMPDEST POP POP POP POP POP POP JUMP JUMPDEST PUSH0 PUSH20 0xFFFFFFFFFFFFFFFFFFFFFFFFFFFFFFFFFFFFFFFF DUP3 AND SWAP1 POP SWAP2 SWAP1 POP JUMP JUMPDEST PUSH0 PUSH2 0x8AB DUP3 PUSH2 0x882 JUMP JUMPDEST SWAP1 POP SWAP2 SWAP1 POP JUMP JUMPDEST PUSH2 0x8BB DUP2 PUSH2 0x8A1 JUMP JUMPDEST DUP3 MSTORE POP POP JUMP JUMPDEST PUSH0 PUSH1 0x20 DUP3 ADD SWAP1 POP PUSH2 0x8D4 PUSH0 DUP4 ADD DUP5 PUSH2 0x8B2 JUMP JUMPDEST SWAP3 SWAP2 POP POP JUMP JUMPDEST PUSH0 PUSH2 0x8E4 DUP3 PUSH2 0x4E2 JUMP JUMPDEST SWAP2 POP PUSH2 0x8EF DUP4 PUSH2 0x4E2 JUMP JUMPDEST SWAP3 POP DUP3 DUP3 ADD SWAP1 POP DUP1 DUP3 GT ISZERO PUSH2 0x907 JUMPI PUSH2 0x906 PUSH2 0x386 JUMP JUMPDEST JUMPDEST SWAP3 SWAP2 POP POP JUMP JUMPDEST PUSH2 0x916 DUP2 PUSH2 0x4E2 JUMP JUMPDEST DUP3 MSTORE POP POP JUMP JUMPDEST PUSH0 PUSH1 0x60 DUP3 ADD SWAP1 POP PUSH2 0x92F PUSH0 DUP4 ADD DUP7 PUSH2 0x8B2 JUMP JUMPDEST PUSH2 0x93C PUSH1 0x20 DUP4 ADD DUP6 PUSH2 0x90D JUMP JUMPDEST PUSH2 0x949 PUSH1 0x40 DUP4 ADD DUP5 PUSH2 0x90D JUMP JUMPDEST SWAP5 SWAP4 POP POP POP POP JUMP JUMPDEST PUSH0 PUSH1 0x20 DUP3 ADD SWAP1 POP PUSH2 0x964 PUSH0 DUP4 ADD DUP5 PUSH2 0x90D JUMP JUMPDEST SWAP3 SWAP2 POP POP JUMP JUMPDEST PUSH2 0x2016 DUP1 PUSH2 0x977 PUSH0 CODECOPY PUSH0 RETURN INVALID PUSH1 0x80 PUSH1 0x40 MSTORE CALLVALUE DUP1 ISZERO PUSH2 0xF JUMPI PUSH0 DUP1 REVERT JUMPDEST POP PUSH1 0x4 CALLDATASIZE LT PUSH2 0xE8 JUMPI PUSH0 CALLDATALOAD PUSH1 0xE0 SHR DUP1 PUSH4 0x8615D855 GT PUSH2 0x8A JUMPI DUP1 PUSH4 0x976B3113 GT PUSH2 0x64 JUMPI DUP1 PUSH4 0x976B3113 EQ PUSH2 0x24A JUMPI DUP1 PUSH4 0xA9059CBB EQ PUSH2 0x27A JUMPI DUP1 PUSH4 0xD5ABEB01 EQ PUSH2 0x2AA JUMPI DUP1 PUSH4 0xDD62ED3E EQ PUSH2 0x2C8 JUMPI PUSH2 0xE8 JUMP JUMPDEST DUP1 PUSH4 0x8615D855 EQ PUSH2 0x1E0 JUMPI DUP1 PUSH4 0x943E8216 EQ PUSH2 0x210 JUMPI DUP1 PUSH4 0x95D89B41 EQ PUSH2 0x22C JUMPI PUSH2 0xE8 JUMP JUMPDEST DUP1 PUSH4 0x23B872DD GT PUSH2 0xC6 JUMPI DUP1 PUSH4 0x23B872DD EQ PUSH2 0x158 JUMPI DUP1 PUSH4 0x313CE567 EQ PUSH2 0x188 JUMPI DUP1 PUSH4 0x4E71D92D EQ PUSH2 0x1A6 JUMPI DUP1 PUSH4 0x70A08231 EQ PUSH2 0x1B0 JUMPI PUSH2 0xE8 JUMP JUMPDEST DUP1 PUSH4 0x6FDDE03 EQ PUSH2 0xEC JUMPI DUP1 PUSH4 0x95EA7B3 EQ PUSH2 0x10A JUMPI DUP1 PUSH4 0x18160DDD EQ PUSH2 0x13A JUMPI JUMPDEST PUSH0 DUP1 REVERT JUMPDEST PUSH2 0xF4 PUSH2 0x2F8 JUMP JUMPDEST PUSH1 0x40 MLOAD PUSH2 0x101 SWAP2 SWAP1 PUSH2 0x1352 JUMP JUMPDEST PUSH1 0x40 MLOAD DUP1 SWAP2 SUB SWAP1 RETURN JUMPDEST PUSH2 0x124 PUSH1 0x4 DUP1 CALLDATASIZE SUB DUP2 ADD SWAP1 PUSH2 0x11F SWAP2 SWAP1 PUSH2 0x1410 JUMP JUMPDEST PUSH2 0x388 JUMP JUMPDEST PUSH1 0x40 MLOAD PUSH2 0x131 SWAP2 SWAP1 PUSH2 0x1468 JUMP JUMPDEST PUSH1 0x40 MLOAD DUP1 SWAP2 SUB SWAP1 RETURN JUMPDEST PUSH2 0x142 PUSH2 0x3AA JUMP JUMPDEST PUSH1 0x40 MLOAD PUSH2 0x14F SWAP2 SWAP1 PUSH2 0x1490 JUMP JUMPDEST PUSH1 0x40 MLOAD DUP1 SWAP2 SUB SWAP1 RETURN JUMPDEST PUSH2 0x172 PUSH1 0x4 DUP1 CALLDATASIZE SUB DUP2 ADD SWAP1 PUSH2 0x16D SWAP2 SWAP1 PUSH2 0x14A9 JUMP JUMPDEST PUSH2 0x3B3 JUMP JUMPDEST PUSH1 0x40 MLOAD PUSH2 0x17F SWAP2 SWAP1 PUSH2 0x1468 JUMP JUMPDEST PUSH1 0x40 MLOAD DUP1 SWAP2 SUB SWAP1 RETURN JUMPDEST PUSH2 0x190 PUSH2 0x3E1 JUMP JUMPDEST PUSH1 0x40 MLOAD PUSH2 0x19D SWAP2 SWAP1 PUSH2 0x1514 JUMP JUMPDEST PUSH1 0x40 MLOAD DUP1 SWAP2 SUB SWAP1 RETURN JUMPDEST PUSH2 0x1AE PUSH2 0x3E9 JUMP JUMPDEST STOP JUMPDEST PUSH2 0x1CA PUSH1 0x4 DUP1 CALLDATASIZE SUB DUP2 ADD SWAP1 PUSH2 0x1C5 SWAP2 SWAP1 PUSH2 0x152D JUMP JUMPDEST PUSH2 0x52C JUMP JUMPDEST PUSH1 0x40 MLOAD PUSH2 0x1D7 SWAP2 SWAP1 PUSH2 0x1490 JUMP JUMPDEST PUSH1 0x40 MLOAD DUP1 SWAP2 SUB SWAP1 RETURN JUMPDEST PUSH2 0x1FA PUSH1 0x4 DUP1 CALLDATASIZE SUB DUP2 ADD SWAP1 PUSH2 0x1F5 SWAP2 SWAP1 PUSH2 0x1684 JUMP JUMPDEST PUSH2 0x571 JUMP JUMPDEST PUSH1 0x40 MLOAD PUSH2 0x207 SWAP2 SWAP1 PUSH2 0x1490 JUMP JUMPDEST PUSH1 0x40 MLOAD DUP1 SWAP2 SUB SWAP1 RETURN JUMPDEST PUSH2 0x22A PUSH1 0x4 DUP1 CALLDATASIZE SUB DUP2 ADD SWAP1 PUSH2 0x225 SWAP2 SWAP1 PUSH2 0x1701 JUMP JUMPDEST PUSH2 0x6E7 JUMP JUMPDEST STOP JUMPDEST PUSH2 0x234 PUSH2 0x952 JUMP JUMPDEST PUSH1 0x40 MLOAD PUSH2 0x241 SWAP2 SWAP1 PUSH2 0x1352 JUMP JUMPDEST PUSH1 0x40 MLOAD DUP1 SWAP2 SUB SWAP1 RETURN JUMPDEST PUSH2 0x264 PUSH1 0x4 DUP1 CALLDATASIZE SUB DUP2 ADD SWAP1 PUSH2 0x25F SWAP2 SWAP1 PUSH2 0x173F JUMP JUMPDEST PUSH2 0x9E2 JUMP JUMPDEST PUSH1 0x40 MLOAD PUSH2 0x271 SWAP2 SWAP1 PUSH2 0x187D JUMP JUMPDEST PUSH1 0x40 MLOAD DUP1 SWAP2 SUB SWAP1 RETURN JUMPDEST PUSH2 0x294 PUSH1 0x4 DUP1 CALLDATASIZE SUB DUP2 ADD SWAP1 PUSH2 0x28F SWAP2 SWAP1 PUSH2 0x1410 JUMP JUMPDEST PUSH2 0xB12 JUMP JUMPDEST PUSH1 0x40 MLOAD PUSH2 0x2A1 SWAP2 SWAP1 PUSH2 0x1468 JUMP JUMPDEST PUSH1 0x40 MLOAD DUP1 SWAP2 SUB SWAP1 RETURN JUMPDEST PUSH2 0x2B2 PUSH2 0xB34 JUMP JUMPDEST PUSH1 0x40 MLOAD PUSH2 0x2BF SWAP2 SWAP1 PUSH2 0x1490 JUMP JUMPDEST PUSH1 0x40 MLOAD DUP1 SWAP2 SUB SWAP1 RETURN JUMPDEST PUSH2 0x2E2 PUSH1 0x4 DUP1 CALLDATASIZE SUB DUP2 ADD SWAP1 PUSH2 0x2DD SWAP2 SWAP1 PUSH2 0x189D JUMP JUMPDEST PUSH2 0xB3A JUMP JUMPDEST PUSH1 0x40 MLOAD PUSH2 0x2EF SWAP2 SWAP1 PUSH2 0x1490 JUMP JUMPDEST PUSH1 0x40 MLOAD DUP1 SWAP2 SUB SWAP1 RETURN JUMPDEST PUSH1 0x60 PUSH1 0x3 DUP1 SLOAD PUSH2 0x307 SWAP1 PUSH2 0x1908 JUMP JUMPDEST DUP1 PUSH1 0x1F ADD PUSH1 0x20 DUP1 SWAP2 DIV MUL PUSH1 0x20 ADD PUSH1 0x40 MLOAD SWAP1 DUP2 ADD PUSH1 0x40 MSTORE DUP1 SWAP3 SWAP2 SWAP1 DUP2 DUP2 MSTORE PUSH1 0x20 ADD DUP3 DUP1 SLOAD PUSH2 0x333 SWAP1 PUSH2 0x1908 JUMP JUMPDEST DUP1 ISZERO PUSH2 0x37E JUMPI DUP1 PUSH1 0x1F LT PUSH2 0x355 JUMPI PUSH2 0x100 DUP1 DUP4 SLOAD DIV MUL DUP4 MSTORE SWAP2 PUSH1 0x20 ADD SWAP2 PUSH2 0x37E JUMP JUMPDEST DUP3 ADD SWAP2 SWAP1 PUSH0 MSTORE PUSH1 0x20 PUSH0 KECCAK256 SWAP1 JUMPDEST DUP2 SLOAD DUP2 MSTORE SWAP1 PUSH1 0x1 ADD SWAP1 PUSH1 0x20 ADD DUP1 DUP4 GT PUSH2 0x361 JUMPI DUP3 SWAP1 SUB PUSH1 0x1F AND DUP3 ADD SWAP2 JUMPDEST POP POP POP POP POP SWAP1 POP SWAP1 JUMP JUMPDEST PUSH0 DUP1 PUSH2 0x392 PUSH2 0xBBC JUMP JUMPDEST SWAP1 POP PUSH2 0x39F DUP2 DUP6 DUP6 PUSH2 0xBC3 JUMP JUMPDEST PUSH1 0x1 SWAP2 POP POP SWAP3 SWAP2 POP POP JUMP JUMPDEST PUSH0 PUSH1 0x2 SLOAD SWAP1 POP SWAP1 JUMP JUMPDEST PUSH0 DUP1 PUSH2 0x3BD PUSH2 0xBBC JUMP JUMPDEST SWAP1 POP PUSH2 0x3CA DUP6 DUP3 DUP6 PUSH2 0xBD5 JUMP JUMPDEST PUSH2 0x3D5 DUP6 DUP6 DUP6 PUSH2 0xC68 JUMP JUMPDEST PUSH1 0x1 SWAP2 POP POP SWAP4 SWAP3 POP POP POP JUMP JUMPDEST PUSH0 PUSH1 0x12 SWAP1 POP SWAP1 JUMP JUMPDEST PUSH1 0x7 PUSH0 CALLER PUSH20 0xFFFFFFFFFFFFFFFFFFFFFFFFFFFFFFFFFFFFFFFF AND PUSH20 0xFFFFFFFFFFFFFFFFFFFFFFFFFFFFFFFFFFFFFFFF AND DUP2 MSTORE PUSH1 0x20 ADD SWAP1 DUP2 MSTORE PUSH1 0x20 ADD PUSH0 KECCAK256 PUSH0 SWAP1 SLOAD SWAP1 PUSH2 0x100 EXP SWAP1 DIV PUSH1 0xFF AND ISZERO PUSH2 0x46A JUMPI PUSH1 0x40 MLOAD PUSH32 0xB1327A600000000000000000000000000000000000000000000000000000000 DUP2 MSTORE PUSH1 0x4 ADD PUSH1 0x40 MLOAD DUP1 SWAP2 SUB SWAP1 REVERT JUMPDEST PUSH1 0x5 SLOAD PUSH2 0x475 PUSH2 0x3AA JUMP JUMPDEST LT PUSH2 0x4AC JUMPI PUSH1 0x40 MLOAD PUSH32 0xCBE2483100000000000000000000000000000000000000000000000000000000 DUP2 MSTORE PUSH1 0x4 ADD PUSH1 0x40 MLOAD DUP1 SWAP2 SUB SWAP1 REVERT JUMPDEST PUSH2 0x4D5 CALLER PUSH2 0x4B8 PUSH2 0x3E1 JUMP JUMPDEST PUSH1 0xA PUSH2 0x4C4 SWAP2 SWAP1 PUSH2 0x1A94 JUMP JUMPDEST PUSH1 0x64 PUSH2 0x4D0 SWAP2 SWAP1 PUSH2 0x1ADE JUMP JUMPDEST PUSH2 0xD58 JUMP JUMPDEST PUSH1 0x1 PUSH1 0x7 PUSH0 CALLER PUSH20 0xFFFFFFFFFFFFFFFFFFFFFFFFFFFFFFFFFFFFFFFF AND PUSH20 0xFFFFFFFFFFFFFFFFFFFFFFFFFFFFFFFFFFFFFFFF AND DUP2 MSTORE PUSH1 0x20 ADD SWAP1 DUP2 MSTORE PUSH1 0x20 ADD PUSH0 KECCAK256 PUSH0 PUSH2 0x100 EXP DUP2 SLOAD DUP2 PUSH1 0xFF MUL NOT AND SWAP1 DUP4 ISZERO ISZERO MUL OR SWAP1 SSTORE POP JUMP JUMPDEST PUSH0 DUP1 PUSH0 DUP4 PUSH20 0xFFFFFFFFFFFFFFFFFFFFFFFFFFFFFFFFFFFFFFFF AND PUSH20 0xFFFFFFFFFFFFFFFFFFFFFFFFFFFFFFFFFFFFFFFF AND DUP2 MSTORE PUSH1 0x20 ADD SWAP1 DUP2 MSTORE PUSH1 0x20 ADD PUSH0 KECCAK256 SLOAD SWAP1 POP SWAP2 SWAP1 POP JUMP JUMPDEST PUSH0 DUP1 PUSH2 0x57C CALLER PUSH2 0x52C JUMP JUMPDEST GT PUSH2 0x5BC JUMPI PUSH1 0x40 MLOAD PUSH32 0x8C379A000000000000000000000000000000000000000000000000000000000 DUP2 MSTORE PUSH1 0x4 ADD PUSH2 0x5B3 SWAP1 PUSH2 0x1B69 JUMP JUMPDEST PUSH1 0x40 MLOAD DUP1 SWAP2 SUB SWAP1 REVERT JUMPDEST PUSH2 0x5C4 PUSH2 0x3AA JUMP JUMPDEST DUP3 GT ISZERO PUSH2 0x606 JUMPI PUSH1 0x40 MLOAD PUSH32 0x8C379A000000000000000000000000000000000000000000000000000000000 DUP2 MSTORE PUSH1 0x4 ADD PUSH2 0x5FD SWAP1 PUSH2 0x1BD1 JUMP JUMPDEST PUSH1 0x40 MLOAD DUP1 SWAP2 SUB SWAP1 REVERT JUMPDEST PUSH1 0x6 PUSH1 0x1 DUP2 PUSH1 0x1 DUP2 SLOAD ADD DUP1 DUP3 SSTORE DUP1 SWAP2 POP POP SUB SWAP1 PUSH0 MSTORE PUSH1 0x20 PUSH0 KECCAK256 SWAP1 POP POP PUSH0 PUSH1 0x6 PUSH1 0x1 PUSH1 0x6 DUP1 SLOAD SWAP1 POP PUSH2 0x637 SWAP2 SWAP1 PUSH2 0x1BEF JUMP JUMPDEST DUP2 SLOAD DUP2 LT PUSH2 0x648 JUMPI PUSH2 0x647 PUSH2 0x1C22 JUMP JUMPDEST JUMPDEST SWAP1 PUSH0 MSTORE PUSH1 0x20 PUSH0 KECCAK256 SWAP1 PUSH1 0x9 MUL ADD SWAP1 POP DUP4 DUP2 PUSH1 0x2 ADD SWAP1 DUP2 PUSH2 0x667 SWAP2 SWAP1 PUSH2 0x1DEC JUMP JUMPDEST POP DUP3 DUP2 PUSH1 0x7 ADD DUP2 SWAP1 SSTORE POP PUSH0 DUP2 PUSH1 0x3 ADD DUP2 SWAP1 SSTORE POP PUSH0 DUP2 PUSH1 0x4 ADD DUP2 SWAP1 SSTORE POP PUSH0 DUP2 PUSH1 0x5 ADD DUP2 SWAP1 SSTORE POP PUSH0 DUP2 PUSH1 0x6 ADD DUP2 SWAP1 SSTORE POP PUSH0 DUP2 PUSH1 0x8 ADD PUSH0 PUSH2 0x100 EXP DUP2 SLOAD DUP2 PUSH1 0xFF MUL NOT AND SWAP1 DUP4 ISZERO ISZERO MUL OR SWAP1 SSTORE POP PUSH0 DUP2 PUSH1 0x8 ADD PUSH1 0x1 PUSH2 0x100 EXP DUP2 SLOAD DUP2 PUSH1 0xFF MUL NOT AND SWAP1 DUP4 ISZERO ISZERO MUL OR SWAP1 SSTORE POP PUSH1 0x1 PUSH1 0x6 DUP1 SLOAD SWAP1 POP PUSH2 0x6DE SWAP2 SWAP1 PUSH2 0x1BEF JUMP JUMPDEST SWAP2 POP POP SWAP3 SWAP2 POP POP JUMP JUMPDEST PUSH0 PUSH1 0x6 DUP4 DUP2 SLOAD DUP2 LT PUSH2 0x6FC JUMPI PUSH2 0x6FB PUSH2 0x1C22 JUMP JUMPDEST JUMPDEST SWAP1 PUSH0 MSTORE PUSH1 0x20 PUSH0 KECCAK256 SWAP1 PUSH1 0x9 MUL ADD SWAP1 POP DUP1 PUSH1 0x8 ADD PUSH1 0x1 SWAP1 SLOAD SWAP1 PUSH2 0x100 EXP SWAP1 DIV PUSH1 0xFF AND ISZERO PUSH2 0x753 JUMPI PUSH1 0x40 MLOAD PUSH32 0x66B6CB4A00000000000000000000000000000000000000000000000000000000 DUP2 MSTORE PUSH1 0x4 ADD PUSH1 0x40 MLOAD DUP1 SWAP2 SUB SWAP1 REVERT JUMPDEST PUSH2 0x768 CALLER DUP3 PUSH0 ADD PUSH2 0xDD7 SWAP1 SWAP2 SWAP1 PUSH4 0xFFFFFFFF AND JUMP JUMPDEST ISZERO PUSH2 0x79F JUMPI PUSH1 0x40 MLOAD PUSH32 0x7C9A1CF900000000000000000000000000000000000000000000000000000000 DUP2 MSTORE PUSH1 0x4 ADD PUSH1 0x40 MLOAD DUP1 SWAP2 SUB SWAP1 REVERT JUMPDEST PUSH0 PUSH2 0x7A9 CALLER PUSH2 0x52C JUMP JUMPDEST SWAP1 POP PUSH0 DUP2 GT PUSH2 0x7ED JUMPI PUSH1 0x40 MLOAD PUSH32 0x8C379A000000000000000000000000000000000000000000000000000000000 DUP2 MSTORE PUSH1 0x4 ADD PUSH2 0x7E4 SWAP1 PUSH2 0x1F05 JUMP JUMPDEST PUSH1 0x40 MLOAD DUP1 SWAP2 SUB SWAP1 REVERT JUMPDEST PUSH2 0x802 CALLER DUP4 PUSH0 ADD PUSH2 0xE04 SWAP1 SWAP2 SWAP1 PUSH4 0xFFFFFFFF AND JUMP JUMPDEST POP PUSH1 0x1 PUSH1 0x2 DUP2 GT ISZERO PUSH2 0x817 JUMPI PUSH2 0x816 PUSH2 0x1F23 JUMP JUMPDEST JUMPDEST DUP4 PUSH1 0x2 DUP2 GT ISZERO PUSH2 0x82A JUMPI PUSH2 0x829 PUSH2 0x1F23 JUMP JUMPDEST JUMPDEST SUB PUSH2 0x84E JUMPI DUP1 DUP3 PUSH1 0x3 ADD PUSH0 DUP3 DUP3 SLOAD PUSH2 0x842 SWAP2 SWAP1 PUSH2 0x1F50 JUMP JUMPDEST SWAP3 POP POP DUP2 SWAP1 SSTORE POP PUSH2 0x8E0 JUMP JUMPDEST PUSH0 PUSH1 0x2 DUP2 GT ISZERO PUSH2 0x861 JUMPI PUSH2 0x860 PUSH2 0x1F23 JUMP JUMPDEST JUMPDEST DUP4 PUSH1 0x2 DUP2 GT ISZERO PUSH2 0x874 JUMPI PUSH2 0x873 PUSH2 0x1F23 JUMP JUMPDEST JUMPDEST SUB PUSH2 0x898 JUMPI DUP1 DUP3 PUSH1 0x4 ADD PUSH0 DUP3 DUP3 SLOAD PUSH2 0x88C SWAP2 SWAP1 PUSH2 0x1F50 JUMP JUMPDEST SWAP3 POP POP DUP2 SWAP1 SSTORE POP PUSH2 0x8DF JUMP JUMPDEST PUSH1 0x2 DUP1 DUP2 GT ISZERO PUSH2 0x8AB JUMPI PUSH2 0x8AA PUSH2 0x1F23 JUMP JUMPDEST JUMPDEST DUP4 PUSH1 0x2 DUP2 GT ISZERO PUSH2 0x8BE JUMPI PUSH2 0x8BD PUSH2 0x1F23 JUMP JUMPDEST JUMPDEST SUB PUSH2 0x8DE JUMPI DUP1 DUP3 PUSH1 0x5 ADD PUSH0 DUP3 DUP3 SLOAD PUSH2 0x8D6 SWAP2 SWAP1 PUSH2 0x1F50 JUMP JUMPDEST SWAP3 POP POP DUP2 SWAP1 SSTORE POP JUMPDEST JUMPDEST JUMPDEST DUP1 DUP3 PUSH1 0x6 ADD PUSH0 DUP3 DUP3 SLOAD PUSH2 0x8F3 SWAP2 SWAP1 PUSH2 0x1F50 JUMP JUMPDEST SWAP3 POP POP DUP2 SWAP1 SSTORE POP DUP2 PUSH1 0x7 ADD SLOAD DUP3 PUSH1 0x6 ADD SLOAD LT PUSH2 0x94C JUMPI PUSH1 0x1 DUP3 PUSH1 0x8 ADD PUSH1 0x1 PUSH2 0x100 EXP DUP2 SLOAD DUP2 PUSH1 0xFF MUL NOT AND SWAP1 DUP4 ISZERO ISZERO MUL OR SWAP1 SSTORE POP DUP2 PUSH1 0x4 ADD SLOAD DUP3 PUSH1 0x3 ADD SLOAD GT DUP3 PUSH1 0x8 ADD PUSH0 PUSH2 0x100 EXP DUP2 SLOAD DUP2 PUSH1 0xFF MUL NOT AND SWAP1 DUP4 ISZERO ISZERO MUL OR SWAP1 SSTORE POP JUMPDEST POP POP POP POP JUMP JUMPDEST PUSH1 0x60 PUSH1 0x4 DUP1 SLOAD PUSH2 0x961 SWAP1 PUSH2 0x1908 JUMP JUMPDEST DUP1 PUSH1 0x1F ADD PUSH1 0x20 DUP1 SWAP2 DIV MUL PUSH1 0x20 ADD PUSH1 0x40 MLOAD SWAP1 DUP2 ADD PUSH1 0x40 MSTORE DUP1 SWAP3 SWAP2 SWAP1 DUP2 DUP2 MSTORE PUSH1 0x20 ADD DUP3 DUP1 SLOAD PUSH2 0x98D SWAP1 PUSH2 0x1908 JUMP JUMPDEST DUP1 ISZERO PUSH2 0x9D8 JUMPI DUP1 PUSH1 0x1F LT PUSH2 0x9AF JUMPI PUSH2 0x100 DUP1 DUP4 SLOAD DIV MUL DUP4 MSTORE SWAP2 PUSH1 0x20 ADD SWAP2 PUSH2 0x9D8 JUMP JUMPDEST DUP3 ADD SWAP2 SWAP1 PUSH0 MSTORE PUSH1 0x20 PUSH0 KECCAK256 SWAP1 JUMPDEST DUP2 SLOAD DUP2 MSTORE SWAP1 PUSH1 0x1 ADD SWAP1 PUSH1 0x20 ADD DUP1 DUP4 GT PUSH2 0x9BB JUMPI DUP3 SWAP1 SUB PUSH1 0x1F AND DUP3 ADD SWAP2 JUMPDEST POP POP POP POP POP SWAP1 POP SWAP1 JUMP JUMPDEST PUSH2 0x9EA PUSH2 0x12A0 JUMP JUMPDEST PUSH0 PUSH1 0x6 DUP4 DUP2 SLOAD DUP2 LT PUSH2 0x9FF JUMPI PUSH2 0x9FE PUSH2 0x1C22 JUMP JUMPDEST JUMPDEST SWAP1 PUSH0 MSTORE PUSH1 0x20 PUSH0 KECCAK256 SWAP1 PUSH1 0x9 MUL ADD SWAP1 POP PUSH1 0x40 MLOAD DUP1 PUSH2 0x100 ADD PUSH1 0x40 MSTORE DUP1 DUP3 PUSH1 0x2 ADD DUP1 SLOAD PUSH2 0xA28 SWAP1 PUSH2 0x1908 JUMP JUMPDEST DUP1 PUSH1 0x1F ADD PUSH1 0x20 DUP1 SWAP2 DIV MUL PUSH1 0x20 ADD PUSH1 0x40 MLOAD SWAP1 DUP2 ADD PUSH1 0x40 MSTORE DUP1 SWAP3 SWAP2 SWAP1 DUP2 DUP2 MSTORE PUSH1 0x20 ADD DUP3 DUP1 SLOAD PUSH2 0xA54 SWAP1 PUSH2 0x1908 JUMP JUMPDEST DUP1 ISZERO PUSH2 0xA9F JUMPI DUP1 PUSH1 0x1F LT PUSH2 0xA76 JUMPI PUSH2 0x100 DUP1 DUP4 SLOAD DIV MUL DUP4 MSTORE SWAP2 PUSH1 0x20 ADD SWAP2 PUSH2 0xA9F JUMP JUMPDEST DUP3 ADD SWAP2 SWAP1 PUSH0 MSTORE PUSH1 0x20 PUSH0 KECCAK256 SWAP1 JUMPDEST DUP2 SLOAD DUP2 MSTORE SWAP1 PUSH1 0x1 ADD SWAP1 PUSH1 0x20 ADD DUP1 DUP4 GT PUSH2 0xA82 JUMPI DUP3 SWAP1 SUB PUSH1 0x1F AND DUP3 ADD SWAP2 JUMPDEST POP POP POP POP POP DUP2 MSTORE PUSH1 0x20 ADD DUP3 PUSH1 0x3 ADD SLOAD DUP2 MSTORE PUSH1 0x20 ADD DUP3 PUSH1 0x4 ADD SLOAD DUP2 MSTORE PUSH1 0x20 ADD DUP3 PUSH1 0x5 ADD SLOAD DUP2 MSTORE PUSH1 0x20 ADD DUP3 PUSH1 0x6 ADD SLOAD DUP2 MSTORE PUSH1 0x20 ADD DUP3 PUSH1 0x7 ADD SLOAD DUP2 MSTORE PUSH1 0x20 ADD DUP3 PUSH1 0x8 ADD PUSH0 SWAP1 SLOAD SWAP1 PUSH2 0x100 EXP SWAP1 DIV PUSH1 0xFF AND ISZERO ISZERO DUP2 MSTORE PUSH1 0x20 ADD DUP3 PUSH1 0x8 ADD PUSH1 0x1 SWAP1 SLOAD SWAP1 PUSH2 0x100 EXP SWAP1 DIV PUSH1 0xFF AND ISZERO ISZERO DUP2 MSTORE POP SWAP2 POP POP SWAP2 SWAP1 POP JUMP JUMPDEST PUSH0 DUP1 PUSH2 0xB1C PUSH2 0xBBC JUMP JUMPDEST SWAP1 POP PUSH2 0xB29 DUP2 DUP6 DUP6 PUSH2 0xC68 JUMP JUMPDEST PUSH1 0x1 SWAP2 POP POP SWAP3 SWAP2 POP POP JUMP JUMPDEST PUSH1 0x5 SLOAD DUP2 JUMP JUMPDEST PUSH0 PUSH1 0x1 PUSH0 DUP5 PUSH20 0xFFFFFFFFFFFFFFFFFFFFFFFFFFFFFFFFFFFFFFFF AND PUSH20 0xFFFFFFFFFFFFFFFFFFFFFFFFFFFFFFFFFFFFFFFF AND DUP2 MSTORE PUSH1 0x20 ADD SWAP1 DUP2 MSTORE PUSH1 0x20 ADD PUSH0 KECCAK256 PUSH0 DUP4 PUSH20 0xFFFFFFFFFFFFFFFFFFFFFFFFFFFFFFFFFFFFFFFF AND PUSH20 0xFFFFFFFFFFFFFFFFFFFFFFFFFFFFFFFFFFFFFFFF AND DUP2 MSTORE PUSH1 0x20 ADD SWAP1 DUP2 MSTORE PUSH1 0x20 ADD PUSH0 KECCAK256 SLOAD SWAP1 POP SWAP3 SWAP2 POP POP JUMP JUMPDEST PUSH0 CALLER SWAP1 POP SWAP1 JUMP JUMPDEST PUSH2 0xBD0 DUP4 DUP4 DUP4 PUSH1 0x1 PUSH2 0xE31 JUMP JUMPDEST POP POP POP JUMP JUMPDEST PUSH0 PUSH2 0xBE0 DUP5 DUP5 PUSH2 0xB3A JUMP JUMPDEST SWAP1 POP PUSH32 0xFFFFFFFFFFFFFFFFFFFFFFFFFFFFFFFFFFFFFFFFFFFFFFFFFFFFFFFFFFFFFFFF DUP2 LT ISZERO PUSH2 0xC62 JUMPI DUP2 DUP2 LT ISZERO PUSH2 0xC53 JUMPI DUP3 DUP2 DUP4 PUSH1 0x40 MLOAD PUSH32 0xFB8F41B200000000000000000000000000000000000000000000000000000000 DUP2 MSTORE PUSH1 0x4 ADD PUSH2 0xC4A SWAP4 SWAP3 SWAP2 SWAP1 PUSH2 0x1F92 JUMP JUMPDEST PUSH1 0x40 MLOAD DUP1 SWAP2 SUB SWAP1 REVERT JUMPDEST PUSH2 0xC61 DUP5 DUP5 DUP5 DUP5 SUB PUSH0 PUSH2 0xE31 JUMP JUMPDEST JUMPDEST POP POP POP POP JUMP JUMPDEST PUSH0 PUSH20 0xFFFFFFFFFFFFFFFFFFFFFFFFFFFFFFFFFFFFFFFF AND DUP4 PUSH20 0xFFFFFFFFFFFFFFFFFFFFFFFFFFFFFFFFFFFFFFFF AND SUB PUSH2 0xCD8 JUMPI PUSH0 PUSH1 0x40 MLOAD PUSH32 0x96C6FD1E00000000000000000000000000000000000000000000000000000000 DUP2 MSTORE PUSH1 0x4 ADD PUSH2 0xCCF SWAP2 SWAP1 PUSH2 0x1FC7 JUMP JUMPDEST PUSH1 0x40 MLOAD DUP1 SWAP2 SUB SWAP1 REVERT JUMPDEST PUSH0 PUSH20 0xFFFFFFFFFFFFFFFFFFFFFFFFFFFFFFFFFFFFFFFF AND DUP3 PUSH20 0xFFFFFFFFFFFFFFFFFFFFFFFFFFFFFFFFFFFFFFFF AND SUB PUSH2 0xD48 JUMPI PUSH0 PUSH1 0x40 MLOAD PUSH32 0xEC442F0500000000000000000000000000000000000000000000000000000000 DUP2 MSTORE PUSH1 0x4 ADD PUSH2 0xD3F SWAP2 SWAP1 PUSH2 0x1FC7 JUMP JUMPDEST PUSH1 0x40 MLOAD DUP1 SWAP2 SUB SWAP1 REVERT JUMPDEST PUSH2 0xD53 DUP4 DUP4 DUP4 PUSH2 0x1000 JUMP JUMPDEST POP POP POP JUMP JUMPDEST PUSH0 PUSH20 0xFFFFFFFFFFFFFFFFFFFFFFFFFFFFFFFFFFFFFFFF AND DUP3 PUSH20 0xFFFFFFFFFFFFFFFFFFFFFFFFFFFFFFFFFFFFFFFF AND SUB PUSH2 0xDC8 JUMPI PUSH0 PUSH1 0x40 MLOAD PUSH32 0xEC442F0500000000000000000000000000000000000000000000000000000000 DUP2 MSTORE PUSH1 0x4 ADD PUSH2 0xDBF SWAP2 SWAP1 PUSH2 0x1FC7 JUMP JUMPDEST PUSH1 0x40 MLOAD DUP1 SWAP2 SUB SWAP1 REVERT JUMPDEST PUSH2 0xDD3 PUSH0 DUP4 DUP4 PUSH2 0x1000 JUMP JUMPDEST POP POP JUMP JUMPDEST PUSH0 PUSH2 0xDFC DUP4 PUSH0 ADD DUP4 PUSH20 0xFFFFFFFFFFFFFFFFFFFFFFFFFFFFFFFFFFFFFFFF AND PUSH0 SHL PUSH2 0x1219 JUMP JUMPDEST SWAP1 POP SWAP3 SWAP2 POP POP JUMP JUMPDEST PUSH0 PUSH2 0xE29 DUP4 PUSH0 ADD DUP4 PUSH20 0xFFFFFFFFFFFFFFFFFFFFFFFFFFFFFFFFFFFFFFFF AND PUSH0 SHL PUSH2 0x1239 JUMP JUMPDEST SWAP1 POP SWAP3 SWAP2 POP POP JUMP JUMPDEST PUSH0 PUSH20 0xFFFFFFFFFFFFFFFFFFFFFFFFFFFFFFFFFFFFFFFF AND DUP5 PUSH20 0xFFFFFFFFFFFFFFFFFFFFFFFFFFFFFFFFFFFFFFFF AND SUB PUSH2 0xEA1 JUMPI PUSH0 PUSH1 0x40 MLOAD PUSH32 0xE602DF0500000000000000000000000000000000000000000000000000000000 DUP2 MSTORE PUSH1 0x4 ADD PUSH2 0xE98 SWAP2 SWAP1 PUSH2 0x1FC7 JUMP JUMPDEST PUSH1 0x40 MLOAD DUP1 SWAP2 SUB SWAP1 REVERT JUMPDEST PUSH0 PUSH20 0xFFFFFFFFFFFFFFFFFFFFFFFFFFFFFFFFFFFFFFFF AND DUP4 PUSH20 0xFFFFFFFFFFFFFFFFFFFFFFFFFFFFFFFFFFFFFFFF AND SUB PUSH2 0xF11 JUMPI PUSH0 PUSH1 0x40 MLOAD PUSH32 0x94280D6200000000000000000000000000000000000000000000000000000000 DUP2 MSTORE PUSH1 0x4 ADD PUSH2 0xF08 SWAP2 SWAP1 PUSH2 0x1FC7 JUMP JUMPDEST PUSH1 0x40 MLOAD DUP1 SWAP2 SUB SWAP1 REVERT JUMPDEST DUP2 PUSH1 0x1 PUSH0 DUP7 PUSH20 0xFFFFFFFFFFFFFFFFFFFFFFFFFFFFFFFFFFFFFFFF AND PUSH20 0xFFFFFFFFFFFFFFFFFFFFFFFFFFFFFFFFFFFFFFFF AND DUP2 MSTORE PUSH1 0x20 ADD SWAP1 DUP2 MSTORE PUSH1 0x20 ADD PUSH0 KECCAK256 PUSH0 DUP6 PUSH20 0xFFFFFFFFFFFFFFFFFFFFFFFFFFFFFFFFFFFFFFFF AND PUSH20 0xFFFFFFFFFFFFFFFFFFFFFFFFFFFFFFFFFFFFFFFF AND DUP2 MSTORE PUSH1 0x20 ADD SWAP1 DUP2 MSTORE PUSH1 0x20 ADD PUSH0 KECCAK256 DUP2 SWAP1 SSTORE POP DUP1 ISZERO PUSH2 0xFFA JUMPI DUP3 PUSH20 0xFFFFFFFFFFFFFFFFFFFFFFFFFFFFFFFFFFFFFFFF AND DUP5 PUSH20 0xFFFFFFFFFFFFFFFFFFFFFFFFFFFFFFFFFFFFFFFF AND PUSH32 0x8C5BE1E5EBEC7D5BD14F71427D1E84F3DD0314C0F7B2291E5B200AC8C7C3B925 DUP5 PUSH1 0x40 MLOAD PUSH2 0xFF1 SWAP2 SWAP1 PUSH2 0x1490 JUMP JUMPDEST PUSH1 0x40 MLOAD DUP1 SWAP2 SUB SWAP1 LOG3 JUMPDEST POP POP POP POP JUMP JUMPDEST PUSH0 PUSH20 0xFFFFFFFFFFFFFFFFFFFFFFFFFFFFFFFFFFFFFFFF AND DUP4 PUSH20 0xFFFFFFFFFFFFFFFFFFFFFFFFFFFFFFFFFFFFFFFF AND SUB PUSH2 0x1050 JUMPI DUP1 PUSH1 0x2 PUSH0 DUP3 DUP3 SLOAD PUSH2 0x1044 SWAP2 SWAP1 PUSH2 0x1F50 JUMP JUMPDEST SWAP3 POP POP DUP2 SWAP1 SSTORE POP PUSH2 0x111E JUMP JUMPDEST PUSH0 DUP1 PUSH0 DUP6 PUSH20 0xFFFFFFFFFFFFFFFFFFFFFFFFFFFFFFFFFFFFFFFF AND PUSH20 0xFFFFFFFFFFFFFFFFFFFFFFFFFFFFFFFFFFFFFFFF AND DUP2 MSTORE PUSH1 0x20 ADD SWAP1 DUP2 MSTORE PUSH1 0x20 ADD PUSH0 KECCAK256 SLOAD SWAP1 POP DUP2 DUP2 LT ISZERO PUSH2 0x10D9 JUMPI DUP4 DUP2 DUP4 PUSH1 0x40 MLOAD PUSH32 0xE450D38C00000000000000000000000000000000000000000000000000000000 DUP2 MSTORE PUSH1 0x4 ADD PUSH2 0x10D0 SWAP4 SWAP3 SWAP2 SWAP1 PUSH2 0x1F92 JUMP JUMPDEST PUSH1 0x40 MLOAD DUP1 SWAP2 SUB SWAP1 REVERT JUMPDEST DUP2 DUP2 SUB PUSH0 DUP1 DUP7 PUSH20 0xFFFFFFFFFFFFFFFFFFFFFFFFFFFFFFFFFFFFFFFF AND PUSH20 0xFFFFFFFFFFFFFFFFFFFFFFFFFFFFFFFFFFFFFFFF AND DUP2 MSTORE PUSH1 0x20 ADD SWAP1 DUP2 MSTORE PUSH1 0x20 ADD PUSH0 KECCAK256 DUP2 SWAP1 SSTORE POP POP JUMPDEST PUSH0 PUSH20 0xFFFFFFFFFFFFFFFFFFFFFFFFFFFFFFFFFFFFFFFF AND DUP3 PUSH20 0xFFFFFFFFFFFFFFFFFFFFFFFFFFFFFFFFFFFFFFFF AND SUB PUSH2 0x1165 JUMPI DUP1 PUSH1 0x2 PUSH0 DUP3 DUP3 SLOAD SUB SWAP3 POP POP DUP2 SWAP1 SSTORE POP PUSH2 0x11AF JUMP JUMPDEST DUP1 PUSH0 DUP1 DUP5 PUSH20 0xFFFFFFFFFFFFFFFFFFFFFFFFFFFFFFFFFFFFFFFF AND PUSH20 0xFFFFFFFFFFFFFFFFFFFFFFFFFFFFFFFFFFFFFFFF AND DUP2 MSTORE PUSH1 0x20 ADD SWAP1 DUP2 MSTORE PUSH1 0x20 ADD PUSH0 KECCAK256 PUSH0 DUP3 DUP3 SLOAD ADD SWAP3 POP POP DUP2 SWAP1 SSTORE POP JUMPDEST DUP2 PUSH20 0xFFFFFFFFFFFFFFFFFFFFFFFFFFFFFFFFFFFFFFFF AND DUP4 PUSH20 0xFFFFFFFFFFFFFFFFFFFFFFFFFFFFFFFFFFFFFFFF AND PUSH32 0xDDF252AD1BE2C89B69C2B068FC378DAA952BA7F163C4A11628F55A4DF523B3EF DUP4 PUSH1 0x40 MLOAD PUSH2 0x120C SWAP2 SWAP1 PUSH2 0x1490 JUMP JUMPDEST PUSH1 0x40 MLOAD DUP1 SWAP2 SUB SWAP1 LOG3 POP POP POP JUMP JUMPDEST PUSH0 DUP1 DUP4 PUSH1 0x1 ADD PUSH0 DUP5 DUP2 MSTORE PUSH1 0x20 ADD SWAP1 DUP2 MSTORE PUSH1 0x20 ADD PUSH0 KECCAK256 SLOAD EQ ISZERO SWAP1 POP SWAP3 SWAP2 POP POP JUMP JUMPDEST PUSH0 PUSH2 0x1244 DUP4 DUP4 PUSH2 0x1219 JUMP JUMPDEST PUSH2 0x1296 JUMPI DUP3 PUSH0 ADD DUP3 SWAP1 DUP1 PUSH1 0x1 DUP2 SLOAD ADD DUP1 DUP3 SSTORE DUP1 SWAP2 POP POP PUSH1 0x1 SWAP1 SUB SWAP1 PUSH0 MSTORE PUSH1 0x20 PUSH0 KECCAK256 ADD PUSH0 SWAP1 SWAP2 SWAP1 SWAP2 SWAP1 SWAP2 POP SSTORE DUP3 PUSH0 ADD DUP1 SLOAD SWAP1 POP DUP4 PUSH1 0x1 ADD PUSH0 DUP5 DUP2 MSTORE PUSH1 0x20 ADD SWAP1 DUP2 MSTORE PUSH1 0x20 ADD PUSH0 KECCAK256 DUP2 SWAP1 SSTORE POP PUSH1 0x1 SWAP1 POP PUSH2 0x129A JUMP JUMPDEST PUSH0 SWAP1 POP JUMPDEST SWAP3 SWAP2 POP POP JUMP JUMPDEST PUSH1 0x40 MLOAD DUP1 PUSH2 0x100 ADD PUSH1 0x40 MSTORE DUP1 PUSH1 0x60 DUP2 MSTORE PUSH1 0x20 ADD PUSH0 DUP2 MSTORE PUSH1 0x20 ADD PUSH0 DUP2 MSTORE PUSH1 0x20 ADD PUSH0 DUP2 MSTORE PUSH1 0x20 ADD PUSH0 DUP2 MSTORE PUSH1 0x20 ADD PUSH0 DUP2 MSTORE PUSH1 0x20 ADD PUSH0 ISZERO ISZERO DUP2 MSTORE PUSH1 0x20 ADD PUSH0 ISZERO ISZERO DUP2 MSTORE POP SWAP1 JUMP JUMPDEST PUSH0 DUP2 MLOAD SWAP1 POP SWAP2 SWAP1 POP JUMP JUMPDEST PUSH0 DUP3 DUP3 MSTORE PUSH1 0x20 DUP3 ADD SWAP1 POP SWAP3 SWAP2 POP POP JUMP JUMPDEST DUP3 DUP2 DUP4 MCOPY PUSH0 DUP4 DUP4 ADD MSTORE POP POP POP JUMP JUMPDEST PUSH0 PUSH1 0x1F NOT PUSH1 0x1F DUP4 ADD AND SWAP1 POP SWAP2 SWAP1 POP JUMP JUMPDEST PUSH0 PUSH2 0x1324 DUP3 PUSH2 0x12E2 JUMP JUMPDEST PUSH2 0x132E DUP2 DUP6 PUSH2 0x12EC JUMP JUMPDEST SWAP4 POP PUSH2 0x133E DUP2 DUP6 PUSH1 0x20 DUP7 ADD PUSH2 0x12FC JUMP JUMPDEST PUSH2 0x1347 DUP2 PUSH2 0x130A JUMP JUMPDEST DUP5 ADD SWAP2 POP POP SWAP3 SWAP2 POP POP JUMP JUMPDEST PUSH0 PUSH1 0x20 DUP3 ADD SWAP1 POP DUP2 DUP2 SUB PUSH0 DUP4 ADD MSTORE PUSH2 0x136A DUP2 DUP5 PUSH2 0x131A JUMP JUMPDEST SWAP1 POP SWAP3 SWAP2 POP POP JUMP JUMPDEST PUSH0 PUSH1 0x40 MLOAD SWAP1 POP SWAP1 JUMP JUMPDEST PUSH0 DUP1 REVERT JUMPDEST PUSH0 DUP1 REVERT JUMPDEST PUSH0 PUSH20 0xFFFFFFFFFFFFFFFFFFFFFFFFFFFFFFFFFFFFFFFF DUP3 AND SWAP1 POP SWAP2 SWAP1 POP JUMP JUMPDEST PUSH0 PUSH2 0x13AC DUP3 PUSH2 0x1383 JUMP JUMPDEST SWAP1 POP SWAP2 SWAP1 POP JUMP JUMPDEST PUSH2 0x13BC DUP2 PUSH2 0x13A2 JUMP JUMPDEST DUP2 EQ PUSH2 0x13C6 JUMPI PUSH0 DUP1 REVERT JUMPDEST POP JUMP JUMPDEST PUSH0 DUP2 CALLDATALOAD SWAP1 POP PUSH2 0x13D7 DUP2 PUSH2 0x13B3 JUMP JUMPDEST SWAP3 SWAP2 POP POP JUMP JUMPDEST PUSH0 DUP2 SWAP1 POP SWAP2 SWAP1 POP JUMP JUMPDEST PUSH2 0x13EF DUP2 PUSH2 0x13DD JUMP JUMPDEST DUP2 EQ PUSH2 0x13F9 JUMPI PUSH0 DUP1 REVERT JUMPDEST POP JUMP JUMPDEST PUSH0 DUP2 CALLDATALOAD SWAP1 POP PUSH2 0x140A DUP2 PUSH2 0x13E6 JUMP JUMPDEST SWAP3 SWAP2 POP POP JUMP JUMPDEST PUSH0 DUP1 PUSH1 0x40 DUP4 DUP6 SUB SLT ISZERO PUSH2 0x1426 JUMPI PUSH2 0x1425 PUSH2 0x137B JUMP JUMPDEST JUMPDEST PUSH0 PUSH2 0x1433 DUP6 DUP3 DUP7 ADD PUSH2 0x13C9 JUMP JUMPDEST SWAP3 POP POP PUSH1 0x20 PUSH2 0x1444 DUP6 DUP3 DUP7 ADD PUSH2 0x13FC JUMP JUMPDEST SWAP2 POP POP SWAP3 POP SWAP3 SWAP1 POP JUMP JUMPDEST PUSH0 DUP2 ISZERO ISZERO SWAP1 POP SWAP2 SWAP1 POP JUMP JUMPDEST PUSH2 0x1462 DUP2 PUSH2 0x144E JUMP JUMPDEST DUP3 MSTORE POP POP JUMP JUMPDEST PUSH0 PUSH1 0x20 DUP3 ADD SWAP1 POP PUSH2 0x147B PUSH0 DUP4 ADD DUP5 PUSH2 0x1459 JUMP JUMPDEST SWAP3 SWAP2 POP POP JUMP JUMPDEST PUSH2 0x148A DUP2 PUSH2 0x13DD JUMP JUMPDEST DUP3 MSTORE POP POP JUMP JUMPDEST PUSH0 PUSH1 0x20 DUP3 ADD SWAP1 POP PUSH2 0x14A3 PUSH0 DUP4 ADD DUP5 PUSH2 0x1481 JUMP JUMPDEST SWAP3 SWAP2 POP POP JUMP JUMPDEST PUSH0 DUP1 PUSH0 PUSH1 0x60 DUP5 DUP7 SUB SLT ISZERO PUSH2 0x14C0 JUMPI PUSH2 0x14BF PUSH2 0x137B JUMP JUMPDEST JUMPDEST PUSH0 PUSH2 0x14CD DUP7 DUP3 DUP8 ADD PUSH2 0x13C9 JUMP JUMPDEST SWAP4 POP POP PUSH1 0x20 PUSH2 0x14DE DUP7 DUP3 DUP8 ADD PUSH2 0x13C9 JUMP JUMPDEST SWAP3 POP POP PUSH1 0x40 PUSH2 0x14EF DUP7 DUP3 DUP8 ADD PUSH2 0x13FC JUMP JUMPDEST SWAP2 POP POP SWAP3 POP SWAP3 POP SWAP3 JUMP JUMPDEST PUSH0 PUSH1 0xFF DUP3 AND SWAP1 POP SWAP2 SWAP1 POP JUMP JUMPDEST PUSH2 0x150E DUP2 PUSH2 0x14F9 JUMP JUMPDEST DUP3 MSTORE POP POP JUMP JUMPDEST PUSH0 PUSH1 0x20 DUP3 ADD SWAP1 POP PUSH2 0x1527 PUSH0 DUP4 ADD DUP5 PUSH2 0x1505 JUMP JUMPDEST SWAP3 SWAP2 POP POP JUMP JUMPDEST PUSH0 PUSH1 0x20 DUP3 DUP5 SUB SLT ISZERO PUSH2 0x1542 JUMPI PUSH2 0x1541 PUSH2 0x137B JUMP JUMPDEST JUMPDEST PUSH0 PUSH2 0x154F DUP5 DUP3 DUP6 ADD PUSH2 0x13C9 JUMP JUMPDEST SWAP2 POP POP SWAP3 SWAP2 POP POP JUMP JUMPDEST PUSH0 DUP1 REVERT JUMPDEST PUSH0 DUP1 REVERT JUMPDEST PUSH32 0x4E487B7100000000000000000000000000000000000000000000000000000000 PUSH0 MSTORE PUSH1 0x41 PUSH1 0x4 MSTORE PUSH1 0x24 PUSH0 REVERT JUMPDEST PUSH2 0x1596 DUP3 PUSH2 0x130A JUMP JUMPDEST DUP2 ADD DUP2 DUP2 LT PUSH8 0xFFFFFFFFFFFFFFFF DUP3 GT OR ISZERO PUSH2 0x15B5 JUMPI PUSH2 0x15B4 PUSH2 0x1560 JUMP JUMPDEST JUMPDEST DUP1 PUSH1 0x40 MSTORE POP POP POP JUMP JUMPDEST PUSH0 PUSH2 0x15C7 PUSH2 0x1372 JUMP JUMPDEST SWAP1 POP PUSH2 0x15D3 DUP3 DUP3 PUSH2 0x158D JUMP JUMPDEST SWAP2 SWAP1 POP JUMP JUMPDEST PUSH0 PUSH8 0xFFFFFFFFFFFFFFFF DUP3 GT ISZERO PUSH2 0x15F2 JUMPI PUSH2 0x15F1 PUSH2 0x1560 JUMP JUMPDEST JUMPDEST PUSH2 0x15FB DUP3 PUSH2 0x130A JUMP JUMPDEST SWAP1 POP PUSH1 0x20 DUP2 ADD SWAP1 POP SWAP2 SWAP1 POP JUMP JUMPDEST DUP3 DUP2 DUP4 CALLDATACOPY PUSH0 DUP4 DUP4 ADD MSTORE POP POP POP JUMP JUMPDEST PUSH0 PUSH2 0x1628 PUSH2 0x1623 DUP5 PUSH2 0x15D8 JUMP JUMPDEST PUSH2 0x15BE JUMP JUMPDEST SWAP1 POP DUP3 DUP2 MSTORE PUSH1 0x20 DUP2 ADD DUP5 DUP5 DUP5 ADD GT ISZERO PUSH2 0x1644 JUMPI PUSH2 0x1643 PUSH2 0x155C JUMP JUMPDEST JUMPDEST PUSH2 0x164F DUP5 DUP3 DUP6 PUSH2 0x1608 JUMP JUMPDEST POP SWAP4 SWAP3 POP POP POP JUMP JUMPDEST PUSH0 DUP3 PUSH1 0x1F DUP4 ADD SLT PUSH2 0x166B JUMPI PUSH2 0x166A PUSH2 0x1558 JUMP JUMPDEST JUMPDEST DUP2 CALLDATALOAD PUSH2 0x167B DUP5 DUP3 PUSH1 0x20 DUP7 ADD PUSH2 0x1616 JUMP JUMPDEST SWAP2 POP POP SWAP3 SWAP2 POP POP JUMP JUMPDEST PUSH0 DUP1 PUSH1 0x40 DUP4 DUP6 SUB SLT ISZERO PUSH2 0x169A JUMPI PUSH2 0x1699 PUSH2 0x137B JUMP JUMPDEST JUMPDEST PUSH0 DUP4 ADD CALLDATALOAD PUSH8 0xFFFFFFFFFFFFFFFF DUP2 GT ISZERO PUSH2 0x16B7 JUMPI PUSH2 0x16B6 PUSH2 0x137F JUMP JUMPDEST JUMPDEST PUSH2 0x16C3 DUP6 DUP3 DUP7 ADD PUSH2 0x1657 JUMP JUMPDEST SWAP3 POP POP PUSH1 0x20 PUSH2 0x16D4 DUP6 DUP3 DUP7 ADD PUSH2 0x13FC JUMP JUMPDEST SWAP2 POP POP SWAP3 POP SWAP3 SWAP1 POP JUMP JUMPDEST PUSH1 0x3 DUP2 LT PUSH2 0x16EA JUMPI PUSH0 DUP1 REVERT JUMPDEST POP JUMP JUMPDEST PUSH0 DUP2 CALLDATALOAD SWAP1 POP PUSH2 0x16FB DUP2 PUSH2 0x16DE JUMP JUMPDEST SWAP3 SWAP2 POP POP JUMP JUMPDEST PUSH0 DUP1 PUSH1 0x40 DUP4 DUP6 SUB SLT ISZERO PUSH2 0x1717 JUMPI PUSH2 0x1716 PUSH2 0x137B JUMP JUMPDEST JUMPDEST PUSH0 PUSH2 0x1724 DUP6 DUP3 DUP7 ADD PUSH2 0x13FC JUMP JUMPDEST SWAP3 POP POP PUSH1 0x20 PUSH2 0x1735 DUP6 DUP3 DUP7 ADD PUSH2 0x16ED JUMP JUMPDEST SWAP2 POP POP SWAP3 POP SWAP3 SWAP1 POP JUMP JUMPDEST PUSH0 PUSH1 0x20 DUP3 DUP5 SUB SLT ISZERO PUSH2 0x1754 JUMPI PUSH2 0x1753 PUSH2 0x137B JUMP JUMPDEST JUMPDEST PUSH0 PUSH2 0x1761 DUP5 DUP3 DUP6 ADD PUSH2 0x13FC JUMP JUMPDEST SWAP2 POP POP SWAP3 SWAP2 POP POP JUMP JUMPDEST PUSH0 DUP3 DUP3 MSTORE PUSH1 0x20 DUP3 ADD SWAP1 POP SWAP3 SWAP2 POP POP JUMP JUMPDEST PUSH0 PUSH2 0x1784 DUP3 PUSH2 0x12E2 JUMP JUMPDEST PUSH2 0x178E DUP2 DUP6 PUSH2 0x176A JUMP JUMPDEST SWAP4 POP PUSH2 0x179E DUP2 DUP6 PUSH1 0x20 DUP7 ADD PUSH2 0x12FC JUMP JUMPDEST PUSH2 0x17A7 DUP2 PUSH2 0x130A JUMP JUMPDEST DUP5 ADD SWAP2 POP POP SWAP3 SWAP2 POP POP JUMP JUMPDEST PUSH2 0x17BB DUP2 PUSH2 0x13DD JUMP JUMPDEST DUP3 MSTORE POP POP JUMP JUMPDEST PUSH2 0x17CA DUP2 PUSH2 0x144E JUMP JUMPDEST DUP3 MSTORE POP POP JUMP JUMPDEST PUSH0 PUSH2 0x100 DUP4 ADD PUSH0 DUP4 ADD MLOAD DUP5 DUP3 SUB PUSH0 DUP7 ADD MSTORE PUSH2 0x17EB DUP3 DUP3 PUSH2 0x177A JUMP JUMPDEST SWAP2 POP POP PUSH1 0x20 DUP4 ADD MLOAD PUSH2 0x1800 PUSH1 0x20 DUP7 ADD DUP3 PUSH2 0x17B2 JUMP JUMPDEST POP PUSH1 0x40 DUP4 ADD MLOAD PUSH2 0x1813 PUSH1 0x40 DUP7 ADD DUP3 PUSH2 0x17B2 JUMP JUMPDEST POP PUSH1 0x60 DUP4 ADD MLOAD PUSH2 0x1826 PUSH1 0x60 DUP7 ADD DUP3 PUSH2 0x17B2 JUMP JUMPDEST POP PUSH1 0x80 DUP4 ADD MLOAD PUSH2 0x1839 PUSH1 0x80 DUP7 ADD DUP3 PUSH2 0x17B2 JUMP JUMPDEST POP PUSH1 0xA0 DUP4 ADD MLOAD PUSH2 0x184C PUSH1 0xA0 DUP7 ADD DUP3 PUSH2 0x17B2 JUMP JUMPDEST POP PUSH1 0xC0 DUP4 ADD MLOAD PUSH2 0x185F PUSH1 0xC0 DUP7 ADD DUP3 PUSH2 0x17C1 JUMP JUMPDEST POP PUSH1 0xE0 DUP4 ADD MLOAD PUSH2 0x1872 PUSH1 0xE0 DUP7 ADD DUP3 PUSH2 0x17C1 JUMP JUMPDEST POP DUP1 SWAP2 POP POP SWAP3 SWAP2 POP POP JUMP JUMPDEST PUSH0 PUSH1 0x20 DUP3 ADD SWAP1 POP DUP2 DUP2 SUB PUSH0 DUP4 ADD MSTORE PUSH2 0x1895 DUP2 DUP5 PUSH2 0x17D0 JUMP JUMPDEST SWAP1 POP SWAP3 SWAP2 POP POP JUMP JUMPDEST PUSH0 DUP1 PUSH1 0x40 DUP4 DUP6 SUB SLT ISZERO PUSH2 0x18B3 JUMPI PUSH2 0x18B2 PUSH2 0x137B JUMP JUMPDEST JUMPDEST PUSH0 PUSH2 0x18C0 DUP6 DUP3 DUP7 ADD PUSH2 0x13C9 JUMP JUMPDEST SWAP3 POP POP PUSH1 0x20 PUSH2 0x18D1 DUP6 DUP3 DUP7 ADD PUSH2 0x13C9 JUMP JUMPDEST SWAP2 POP POP SWAP3 POP SWAP3 SWAP1 POP JUMP JUMPDEST PUSH32 0x4E487B7100000000000000000000000000000000000000000000000000000000 PUSH0 MSTORE PUSH1 0x22 PUSH1 0x4 MSTORE PUSH1 0x24 PUSH0 REVERT JUMPDEST PUSH0 PUSH1 0x2 DUP3 DIV SWAP1 POP PUSH1 0x1 DUP3 AND DUP1 PUSH2 0x191F JUMPI PUSH1 0x7F DUP3 AND SWAP2 POP JUMPDEST PUSH1 0x20 DUP3 LT DUP2 SUB PUSH2 0x1932 JUMPI PUSH2 0x1931 PUSH2 0x18DB JUMP JUMPDEST JUMPDEST POP SWAP2 SWAP1 POP JUMP JUMPDEST PUSH32 0x4E487B7100000000000000000000000000000000000000000000000000000000 PUSH0 MSTORE PUSH1 0x11 PUSH1 0x4 MSTORE PUSH1 0x24 PUSH0 REVERT JUMPDEST PUSH0 DUP2 PUSH1 0x1 SHR SWAP1 POP SWAP2 SWAP1 POP JUMP JUMPDEST PUSH0 DUP1 DUP3 SWAP2 POP DUP4 SWAP1 POP JUMPDEST PUSH1 0x1 DUP6 GT ISZERO PUSH2 0x19BA JUMPI DUP1 DUP7 DIV DUP2 GT ISZERO PUSH2 0x1996 JUMPI PUSH2 0x1995 PUSH2 0x1938 JUMP JUMPDEST JUMPDEST PUSH1 0x1 DUP6 AND ISZERO PUSH2 0x19A5 JUMPI DUP1 DUP3 MUL SWAP2 POP JUMPDEST DUP1 DUP2 MUL SWAP1 POP PUSH2 0x19B3 DUP6 PUSH2 0x1965 JUMP JUMPDEST SWAP5 POP PUSH2 0x197A JUMP JUMPDEST SWAP5 POP SWAP5 SWAP3 POP POP POP JUMP JUMPDEST PUSH0 DUP3 PUSH2 0x19D2 JUMPI PUSH1 0x1 SWAP1 POP PUSH2 0x1A8D JUMP JUMPDEST DUP2 PUSH2 0x19DF JUMPI PUSH0 SWAP1 POP PUSH2 0x1A8D JUMP JUMPDEST DUP2 PUSH1 0x1 DUP2 EQ PUSH2 0x19F5 JUMPI PUSH1 0x2 DUP2 EQ PUSH2 0x19FF JUMPI PUSH2 0x1A2E JUMP JUMPDEST PUSH1 0x1 SWAP2 POP POP PUSH2 0x1A8D JUMP JUMPDEST PUSH1 0xFF DUP5 GT ISZERO PUSH2 0x1A11 JUMPI PUSH2 0x1A10 PUSH2 0x1938 JUMP JUMPDEST JUMPDEST DUP4 PUSH1 0x2 EXP SWAP2 POP DUP5 DUP3 GT ISZERO PUSH2 0x1A28 JUMPI PUSH2 0x1A27 PUSH2 0x1938 JUMP JUMPDEST JUMPDEST POP PUSH2 0x1A8D JUMP JUMPDEST POP PUSH1 0x20 DUP4 LT PUSH2 0x133 DUP4 LT AND PUSH1 0x4E DUP5 LT PUSH1 0xB DUP5 LT AND OR ISZERO PUSH2 0x1A63 JUMPI DUP3 DUP3 EXP SWAP1 POP DUP4 DUP2 GT ISZERO PUSH2 0x1A5E JUMPI PUSH2 0x1A5D PUSH2 0x1938 JUMP JUMPDEST JUMPDEST PUSH2 0x1A8D JUMP JUMPDEST PUSH2 0x1A70 DUP5 DUP5 DUP5 PUSH1 0x1 PUSH2 0x1971 JUMP JUMPDEST SWAP3 POP SWAP1 POP DUP2 DUP5 DIV DUP2 GT ISZERO PUSH2 0x1A87 JUMPI PUSH2 0x1A86 PUSH2 0x1938 JUMP JUMPDEST JUMPDEST DUP2 DUP2 MUL SWAP1 POP JUMPDEST SWAP4 SWAP3 POP POP POP JUMP JUMPDEST PUSH0 PUSH2 0x1A9E DUP3 PUSH2 0x13DD JUMP JUMPDEST SWAP2 POP PUSH2 0x1AA9 DUP4 PUSH2 0x14F9 JUMP JUMPDEST SWAP3 POP PUSH2 0x1AD6 PUSH32 0xFFFFFFFFFFFFFFFFFFFFFFFFFFFFFFFFFFFFFFFFFFFFFFFFFFFFFFFFFFFFFFFF DUP5 DUP5 PUSH2 0x19C3 JUMP JUMPDEST SWAP1 POP SWAP3 SWAP2 POP POP JUMP JUMPDEST PUSH0 PUSH2 0x1AE8 DUP3 PUSH2 0x13DD JUMP JUMPDEST SWAP2 POP PUSH2 0x1AF3 DUP4 PUSH2 0x13DD JUMP JUMPDEST SWAP3 POP DUP3 DUP3 MUL PUSH2 0x1B01 DUP2 PUSH2 0x13DD JUMP JUMPDEST SWAP2 POP DUP3 DUP3 DIV DUP5 EQ DUP4 ISZERO OR PUSH2 0x1B18 JUMPI PUSH2 0x1B17 PUSH2 0x1938 JUMP JUMPDEST JUMPDEST POP SWAP3 SWAP2 POP POP JUMP JUMPDEST PUSH32 0x4E6F546F6B656E7348656C640000000000000000000000000000000000000000 PUSH0 DUP3 ADD MSTORE POP JUMP JUMPDEST PUSH0 PUSH2 0x1B53 PUSH1 0xC DUP4 PUSH2 0x12EC JUMP JUMPDEST SWAP2 POP PUSH2 0x1B5E DUP3 PUSH2 0x1B1F JUMP JUMPDEST PUSH1 0x20 DUP3 ADD SWAP1 POP SWAP2 SWAP1 POP JUMP JUMPDEST PUSH0 PUSH1 0x20 DUP3 ADD SWAP1 POP DUP2 DUP2 SUB PUSH0 DUP4 ADD MSTORE PUSH2 0x1B80 DUP2 PUSH2 0x1B47 JUMP JUMPDEST SWAP1 POP SWAP2 SWAP1 POP JUMP JUMPDEST PUSH32 0x51756F72756D546F6F4869676800000000000000000000000000000000000000 PUSH0 DUP3 ADD MSTORE POP JUMP JUMPDEST PUSH0 PUSH2 0x1BBB PUSH1 0xD DUP4 PUSH2 0x12EC JUMP JUMPDEST SWAP2 POP PUSH2 0x1BC6 DUP3 PUSH2 0x1B87 JUMP JUMPDEST PUSH1 0x20 DUP3 ADD SWAP1 POP SWAP2 SWAP1 POP JUMP JUMPDEST PUSH0 PUSH1 0x20 DUP3 ADD SWAP1 POP DUP2 DUP2 SUB PUSH0 DUP4 ADD MSTORE PUSH2 0x1BE8 DUP2 PUSH2 0x1BAF JUMP JUMPDEST SWAP1 POP SWAP2 SWAP1 POP JUMP JUMPDEST PUSH0 PUSH2 0x1BF9 DUP3 PUSH2 0x13DD JUMP JUMPDEST SWAP2 POP PUSH2 0x1C04 DUP4 PUSH2 0x13DD JUMP JUMPDEST SWAP3 POP DUP3 DUP3 SUB SWAP1 POP DUP2 DUP2 GT ISZERO PUSH2 0x1C1C JUMPI PUSH2 0x1C1B PUSH2 0x1938 JUMP JUMPDEST JUMPDEST SWAP3 SWAP2 POP POP JUMP JUMPDEST PUSH32 0x4E487B7100000000000000000000000000000000000000000000000000000000 PUSH0 MSTORE PUSH1 0x32 PUSH1 0x4 MSTORE PUSH1 0x24 PUSH0 REVERT JUMPDEST PUSH0 DUP2 SWAP1 POP DUP2 PUSH0 MSTORE PUSH1 0x20 PUSH0 KECCAK256 SWAP1 POP SWAP2 SWAP1 POP JUMP JUMPDEST PUSH0 PUSH1 0x20 PUSH1 0x1F DUP4 ADD DIV SWAP1 POP SWAP2 SWAP1 POP JUMP JUMPDEST PUSH0 DUP3 DUP3 SHL SWAP1 POP SWAP3 SWAP2 POP POP JUMP JUMPDEST PUSH0 PUSH1 0x8 DUP4 MUL PUSH2 0x1CAB PUSH32 0xFFFFFFFFFFFFFFFFFFFFFFFFFFFFFFFFFFFFFFFFFFFFFFFFFFFFFFFFFFFFFFFF DUP3 PUSH2 0x1C70 JUMP JUMPDEST PUSH2 0x1CB5 DUP7 DUP4 PUSH2 0x1C70 JUMP JUMPDEST SWAP6 POP DUP1 NOT DUP5 AND SWAP4 POP DUP1 DUP7 AND DUP5 OR SWAP3 POP POP POP SWAP4 SWAP3 POP POP POP JUMP JUMPDEST PUSH0 DUP2 SWAP1 POP SWAP2 SWAP1 POP JUMP JUMPDEST PUSH0 PUSH2 0x1CF0 PUSH2 0x1CEB PUSH2 0x1CE6 DUP5 PUSH2 0x13DD JUMP JUMPDEST PUSH2 0x1CCD JUMP JUMPDEST PUSH2 0x13DD JUMP JUMPDEST SWAP1 POP SWAP2 SWAP1 POP JUMP JUMPDEST PUSH0 DUP2 SWAP1 POP SWAP2 SWAP1 POP JUMP JUMPDEST PUSH2 0x1D09 DUP4 PUSH2 0x1CD6 JUMP JUMPDEST PUSH2 0x1D1D PUSH2 0x1D15 DUP3 PUSH2 0x1CF7 JUMP JUMPDEST DUP5 DUP5 SLOAD PUSH2 0x1C7C JUMP JUMPDEST DUP3 SSTORE POP POP POP POP JUMP JUMPDEST PUSH0 SWAP1 JUMP JUMPDEST PUSH2 0x1D31 PUSH2 0x1D25 JUMP JUMPDEST PUSH2 0x1D3C DUP2 DUP5 DUP5 PUSH2 0x1D00 JUMP JUMPDEST POP POP POP JUMP JUMPDEST JUMPDEST DUP2 DUP2 LT ISZERO PUSH2 0x1D5F JUMPI PUSH2 0x1D54 PUSH0 DUP3 PUSH2 0x1D29 JUMP JUMPDEST PUSH1 0x1 DUP2 ADD SWAP1 POP PUSH2 0x1D42 JUMP JUMPDEST POP POP JUMP JUMPDEST PUSH1 0x1F DUP3 GT ISZERO PUSH2 0x1DA4 JUMPI PUSH2 0x1D75 DUP2 PUSH2 0x1C4F JUMP JUMPDEST PUSH2 0x1D7E DUP5 PUSH2 0x1C61 JUMP JUMPDEST DUP2 ADD PUSH1 0x20 DUP6 LT ISZERO PUSH2 0x1D8D JUMPI DUP2 SWAP1 POP JUMPDEST PUSH2 0x1DA1 PUSH2 0x1D99 DUP6 PUSH2 0x1C61 JUMP JUMPDEST DUP4 ADD DUP3 PUSH2 0x1D41 JUMP JUMPDEST POP POP JUMPDEST POP POP POP JUMP JUMPDEST PUSH0 DUP3 DUP3 SHR SWAP1 POP SWAP3 SWAP2 POP POP JUMP JUMPDEST PUSH0 PUSH2 0x1DC4 PUSH0 NOT DUP5 PUSH1 0x8 MUL PUSH2 0x1DA9 JUMP JUMPDEST NOT DUP1 DUP4 AND SWAP2 POP POP SWAP3 SWAP2 POP POP JUMP JUMPDEST PUSH0 PUSH2 0x1DDC DUP4 DUP4 PUSH2 0x1DB5 JUMP JUMPDEST SWAP2 POP DUP3 PUSH1 0x2 MUL DUP3 OR SWAP1 POP SWAP3 SWAP2 POP POP JUMP JUMPDEST PUSH2 0x1DF5 DUP3 PUSH2 0x12E2 JUMP JUMPDEST PUSH8 0xFFFFFFFFFFFFFFFF DUP2 GT ISZERO PUSH2 0x1E0E JUMPI PUSH2 0x1E0D PUSH2 0x1560 JUMP JUMPDEST JUMPDEST PUSH2 0x1E18 DUP3 SLOAD PUSH2 0x1908 JUMP JUMPDEST PUSH2 0x1E23 DUP3 DUP3 DUP6 PUSH2 0x1D63 JUMP JUMPDEST PUSH0 PUSH1 0x20 SWAP1 POP PUSH1 0x1F DUP4 GT PUSH1 0x1 DUP2 EQ PUSH2 0x1E54 JUMPI PUSH0 DUP5 ISZERO PUSH2 0x1E42 JUMPI DUP3 DUP8 ADD MLOAD SWAP1 POP JUMPDEST PUSH2 0x1E4C DUP6 DUP3 PUSH2 0x1DD1 JUMP JUMPDEST DUP7 SSTORE POP PUSH2 0x1EB3 JUMP JUMPDEST PUSH1 0x1F NOT DUP5 AND PUSH2 0x1E62 DUP7 PUSH2 0x1C4F JUMP JUMPDEST PUSH0 JUMPDEST DUP3 DUP2 LT ISZERO PUSH2 0x1E89 JUMPI DUP5 DUP10 ADD MLOAD DUP3 SSTORE PUSH1 0x1 DUP3 ADD SWAP2 POP PUSH1 0x20 DUP6 ADD SWAP5 POP PUSH1 0x20 DUP2 ADD SWAP1 POP PUSH2 0x1E64 JUMP JUMPDEST DUP7 DUP4 LT ISZERO PUSH2 0x1EA6 JUMPI DUP5 DUP10 ADD MLOAD PUSH2 0x1EA2 PUSH1 0x1F DUP10 AND DUP3 PUSH2 0x1DB5 JUMP JUMPDEST DUP4 SSTORE POP JUMPDEST PUSH1 0x1 PUSH1 0x2 DUP9 MUL ADD DUP9 SSTORE POP POP POP JUMPDEST POP POP POP POP POP POP JUMP JUMPDEST PUSH32 0x4E6F20746F6B656E7320746F20766F7465000000000000000000000000000000 PUSH0 DUP3 ADD MSTORE POP JUMP JUMPDEST PUSH0 PUSH2 0x1EEF PUSH1 0x11 DUP4 PUSH2 0x12EC JUMP JUMPDEST SWAP2 POP PUSH2 0x1EFA DUP3 PUSH2 0x1EBB JUMP JUMPDEST PUSH1 0x20 DUP3 ADD SWAP1 POP SWAP2 SWAP1 POP JUMP JUMPDEST PUSH0 PUSH1 0x20 DUP3 ADD SWAP1 POP DUP2 DUP2 SUB PUSH0 DUP4 ADD MSTORE PUSH2 0x1F1C DUP2 PUSH2 0x1EE3 JUMP JUMPDEST SWAP1 POP SWAP2 SWAP1 POP JUMP JUMPDEST PUSH32 0x4E487B7100000000000000000000000000000000000000000000000000000000 PUSH0 MSTORE PUSH1 0x21 PUSH1 0x4 MSTORE PUSH1 0x24 PUSH0 REVERT JUMPDEST PUSH0 PUSH2 0x1F5A DUP3 PUSH2 0x13DD JUMP JUMPDEST SWAP2 POP PUSH2 0x1F65 DUP4 PUSH2 0x13DD JUMP JUMPDEST SWAP3 POP DUP3 DUP3 ADD SWAP1 POP DUP1 DUP3 GT ISZERO PUSH2 0x1F7D JUMPI PUSH2 0x1F7C PUSH2 0x1938 JUMP JUMPDEST JUMPDEST SWAP3 SWAP2 POP POP JUMP JUMPDEST PUSH2 0x1F8C DUP2 PUSH2 0x13A2 JUMP JUMPDEST DUP3 MSTORE POP POP JUMP JUMPDEST PUSH0 PUSH1 0x60 DUP3 ADD SWAP1 POP PUSH2 0x1FA5 PUSH0 DUP4 ADD DUP7 PUSH2 0x1F83 JUMP JUMPDEST PUSH2 0x1FB2 PUSH1 0x20 DUP4 ADD DUP6 PUSH2 0x1481 JUMP JUMPDEST PUSH2 0x1FBF PUSH1 0x40 DUP4 ADD DUP5 PUSH2 0x1481 JUMP JUMPDEST SWAP5 SWAP4 POP POP POP POP JUMP JUMPDEST PUSH0 PUSH1 0x20 DUP3 ADD SWAP1 POP PUSH2 0x1FDA PUSH0 DUP4 ADD DUP5 PUSH2 0x1F83 JUMP JUMPDEST SWAP3 SWAP2 POP POP JUMP INVALID LOG2 PUSH5 0x6970667358 0x22 SLT KECCAK256 DUP13 CALL SWAP10 0xE7 PUSH25 0x450D3A865054A6DB70142B45235942DD91FFFE03FD36F14D03 0xDE EQ PUSH5 0x736F6C6343 STOP ADDMOD BYTE STOP CALLER "
				},
				"gasEstimates": {
					"creation": {
						"codeDepositCost": "1642800",
						"executionCost": "infinite",
						"totalCost": "infinite"
					},
					"external": {
						"allowance(address,address)": "infinite",
						"approve(address,uint256)": "infinite",
						"balanceOf(address)": "2918",
						"claim()": "infinite",
						"createIssue(string,uint256)": "infinite",
						"decimals()": "383",
						"getIssue(uint256)": "infinite",
						"maxSupply()": "2491",
						"name()": "infinite",
						"symbol()": "infinite",
						"totalSupply()": "2500",
						"transfer(address,uint256)": "infinite",
						"transferFrom(address,address,uint256)": "infinite",
						"vote(uint256,uint8)": "infinite"
					}
				},
				"methodIdentifiers": {
					"allowance(address,address)": "dd62ed3e",
					"approve(address,uint256)": "095ea7b3",
					"balanceOf(address)": "70a08231",
					"claim()": "4e71d92d",
					"createIssue(string,uint256)": "8615d855",
					"decimals()": "313ce567",
					"getIssue(uint256)": "976b3113",
					"maxSupply()": "d5abeb01",
					"name()": "06fdde03",
					"symbol()": "95d89b41",
					"totalSupply()": "18160ddd",
					"transfer(address,uint256)": "a9059cbb",
					"transferFrom(address,address,uint256)": "23b872dd",
					"vote(uint256,uint8)": "943e8216"
				}
			},
			"storageLayout": {
				"storage": [
					{
						"astId": 544,
						"contract": "contracts/erc20base.sol:WeightedVoting",
						"label": "_balances",
						"offset": 0,
						"slot": "0",
						"type": "t_mapping(t_address,t_uint256)"
					},
					{
						"astId": 550,
						"contract": "contracts/erc20base.sol:WeightedVoting",
						"label": "_allowances",
						"offset": 0,
						"slot": "1",
						"type": "t_mapping(t_address,t_mapping(t_address,t_uint256))"
					},
					{
						"astId": 552,
						"contract": "contracts/erc20base.sol:WeightedVoting",
						"label": "_totalSupply",
						"offset": 0,
						"slot": "2",
						"type": "t_uint256"
					},
					{
						"astId": 554,
						"contract": "contracts/erc20base.sol:WeightedVoting",
						"label": "_name",
						"offset": 0,
						"slot": "3",
						"type": "t_string_storage"
					},
					{
						"astId": 556,
						"contract": "contracts/erc20base.sol:WeightedVoting",
						"label": "_symbol",
						"offset": 0,
						"slot": "4",
						"type": "t_string_storage"
					},
					{
						"astId": 18,
						"contract": "contracts/erc20base.sol:WeightedVoting",
						"label": "maxSupply",
						"offset": 0,
						"slot": "5",
						"type": "t_uint256"
					},
					{
						"astId": 77,
						"contract": "contracts/erc20base.sol:WeightedVoting",
						"label": "issues",
						"offset": 0,
						"slot": "6",
						"type": "t_array(t_struct(Issue)52_storage)dyn_storage"
					},
					{
						"astId": 81,
						"contract": "contracts/erc20base.sol:WeightedVoting",
						"label": "hasClaimed",
						"offset": 0,
						"slot": "7",
						"type": "t_mapping(t_address,t_bool)"
					}
				],
				"types": {
					"t_address": {
						"encoding": "inplace",
						"label": "address",
						"numberOfBytes": "20"
					},
					"t_array(t_bytes32)dyn_storage": {
						"base": "t_bytes32",
						"encoding": "dynamic_array",
						"label": "bytes32[]",
						"numberOfBytes": "32"
					},
					"t_array(t_struct(Issue)52_storage)dyn_storage": {
						"base": "t_struct(Issue)52_storage",
						"encoding": "dynamic_array",
						"label": "struct WeightedVoting.Issue[]",
						"numberOfBytes": "32"
					},
					"t_bool": {
						"encoding": "inplace",
						"label": "bool",
						"numberOfBytes": "1"
					},
					"t_bytes32": {
						"encoding": "inplace",
						"label": "bytes32",
						"numberOfBytes": "32"
					},
					"t_mapping(t_address,t_bool)": {
						"encoding": "mapping",
						"key": "t_address",
						"label": "mapping(address => bool)",
						"numberOfBytes": "32",
						"value": "t_bool"
					},
					"t_mapping(t_address,t_mapping(t_address,t_uint256))": {
						"encoding": "mapping",
						"key": "t_address",
						"label": "mapping(address => mapping(address => uint256))",
						"numberOfBytes": "32",
						"value": "t_mapping(t_address,t_uint256)"
					},
					"t_mapping(t_address,t_uint256)": {
						"encoding": "mapping",
						"key": "t_address",
						"label": "mapping(address => uint256)",
						"numberOfBytes": "32",
						"value": "t_uint256"
					},
					"t_mapping(t_bytes32,t_uint256)": {
						"encoding": "mapping",
						"key": "t_bytes32",
						"label": "mapping(bytes32 => uint256)",
						"numberOfBytes": "32",
						"value": "t_uint256"
					},
					"t_string_storage": {
						"encoding": "bytes",
						"label": "string",
						"numberOfBytes": "32"
					},
					"t_struct(AddressSet)1496_storage": {
						"encoding": "inplace",
						"label": "struct EnumerableSet.AddressSet",
						"members": [
							{
								"astId": 1495,
								"contract": "contracts/erc20base.sol:WeightedVoting",
								"label": "_inner",
								"offset": 0,
								"slot": "0",
								"type": "t_struct(Set)1181_storage"
							}
						],
						"numberOfBytes": "64"
					},
					"t_struct(Issue)52_storage": {
						"encoding": "inplace",
						"label": "struct WeightedVoting.Issue",
						"members": [
							{
								"astId": 35,
								"contract": "contracts/erc20base.sol:WeightedVoting",
								"label": "voters",
								"offset": 0,
								"slot": "0",
								"type": "t_struct(AddressSet)1496_storage"
							},
							{
								"astId": 37,
								"contract": "contracts/erc20base.sol:WeightedVoting",
								"label": "issueDesc",
								"offset": 0,
								"slot": "2",
								"type": "t_string_storage"
							},
							{
								"astId": 39,
								"contract": "contracts/erc20base.sol:WeightedVoting",
								"label": "votesFor",
								"offset": 0,
								"slot": "3",
								"type": "t_uint256"
							},
							{
								"astId": 41,
								"contract": "contracts/erc20base.sol:WeightedVoting",
								"label": "votesAgainst",
								"offset": 0,
								"slot": "4",
								"type": "t_uint256"
							},
							{
								"astId": 43,
								"contract": "contracts/erc20base.sol:WeightedVoting",
								"label": "votesAbstain",
								"offset": 0,
								"slot": "5",
								"type": "t_uint256"
							},
							{
								"astId": 45,
								"contract": "contracts/erc20base.sol:WeightedVoting",
								"label": "totalVotes",
								"offset": 0,
								"slot": "6",
								"type": "t_uint256"
							},
							{
								"astId": 47,
								"contract": "contracts/erc20base.sol:WeightedVoting",
								"label": "quorum",
								"offset": 0,
								"slot": "7",
								"type": "t_uint256"
							},
							{
								"astId": 49,
								"contract": "contracts/erc20base.sol:WeightedVoting",
								"label": "passed",
								"offset": 0,
								"slot": "8",
								"type": "t_bool"
							},
							{
								"astId": 51,
								"contract": "contracts/erc20base.sol:WeightedVoting",
								"label": "closed",
								"offset": 1,
								"slot": "8",
								"type": "t_bool"
							}
						],
						"numberOfBytes": "288"
					},
					"t_struct(Set)1181_storage": {
						"encoding": "inplace",
						"label": "struct EnumerableSet.Set",
						"members": [
							{
								"astId": 1176,
								"contract": "contracts/erc20base.sol:WeightedVoting",
								"label": "_values",
								"offset": 0,
								"slot": "0",
								"type": "t_array(t_bytes32)dyn_storage"
							},
							{
								"astId": 1180,
								"contract": "contracts/erc20base.sol:WeightedVoting",
								"label": "_positions",
								"offset": 0,
								"slot": "1",
								"type": "t_mapping(t_bytes32,t_uint256)"
							}
						],
						"numberOfBytes": "64"
					},
					"t_uint256": {
						"encoding": "inplace",
						"label": "uint256",
						"numberOfBytes": "32"
					}
				}
			},
			"userdoc": {
				"kind": "user",
				"methods": {},
				"version": 1
			}
		}
	}
}