{
	"contracts/sender.sol": {
		"checkOwner": {
			"abi": [
				{
					"inputs": [],
					"stateMutability": "nonpayable",
					"type": "constructor"
				},
				{
					"inputs": [
						{
							"internalType": "address",
							"name": "",
							"type": "address"
						}
					],
					"name": "InavlidOwner",
					"type": "error"
				},
				{
					"inputs": [
						{
							"internalType": "string",
							"name": "name",
							"type": "string"
						}
					],
					"name": "changeUser",
					"outputs": [
						{
							"internalType": "string",
							"name": "",
							"type": "string"
						},
						{
							"internalType": "string",
							"name": "",
							"type": "string"
						},
						{
							"internalType": "string",
							"name": "",
							"type": "string"
						}
					],
					"stateMutability": "view",
					"type": "function"
				}
			],
			"devdoc": {
				"kind": "dev",
				"methods": {},
				"version": 1
			},
			"evm": {
				"assembly": "    /* \"contracts/sender.sol\":58:486  contract checkOwner{... */\n  mstore(0x40, 0x80)\n    /* \"contracts/sender.sol\":102:148  constructor(){... */\n  callvalue\n  dup1\n  iszero\n  tag_1\n  jumpi\n  0x00\n  dup1\n  revert\ntag_1:\n  pop\n    /* \"contracts/sender.sol\":125:130  owner */\n  0x00\n    /* \"contracts/sender.sol\":125:141  owner=msg.sender */\n  dup1\n  sload\n  not(sub(shl(0xa0, 0x01), 0x01))\n  and\n    /* \"contracts/sender.sol\":131:141  msg.sender */\n  caller\n    /* \"contracts/sender.sol\":125:141  owner=msg.sender */\n  or\n  swap1\n  sstore\n    /* \"contracts/sender.sol\":58:486  contract checkOwner{... */\n  dataSize(sub_0)\n  dup1\n  dataOffset(sub_0)\n  0x00\n  codecopy\n  0x00\n  return\nstop\n\nsub_0: assembly {\n        /* \"contracts/sender.sol\":58:486  contract checkOwner{... */\n      mstore(0x40, 0x80)\n      callvalue\n      dup1\n      iszero\n      tag_1\n      jumpi\n      0x00\n      dup1\n      revert\n    tag_1:\n      pop\n      jumpi(tag_2, lt(calldatasize, 0x04))\n      shr(0xe0, calldataload(0x00))\n      dup1\n      0x9c301cef\n      eq\n      tag_3\n      jumpi\n    tag_2:\n      0x00\n      dup1\n      revert\n        /* \"contracts/sender.sol\":313:484  function changeUser(string memory name) external view  onlyOwner returns (string memory,string memory,string memory){... */\n    tag_3:\n      tag_4\n      tag_5\n      calldatasize\n      0x04\n      tag_6\n      jump\t// in\n    tag_5:\n      tag_7\n      jump\t// in\n    tag_4:\n      mload(0x40)\n      tag_8\n      swap4\n      swap3\n      swap2\n      swap1\n      tag_9\n      jump\t// in\n    tag_8:\n      mload(0x40)\n      dup1\n      swap2\n      sub\n      swap1\n      return\n    tag_7:\n        /* \"contracts/sender.sol\":229:234  owner */\n      sload(0x00)\n        /* \"contracts/sender.sol\":387:400  string memory */\n      0x60\n      swap1\n      dup2\n      swap1\n      dup2\n      swap1\n      sub(shl(0xa0, 0x01), 0x01)\n        /* \"contracts/sender.sol\":229:234  owner */\n      and\n        /* \"contracts/sender.sol\":217:227  msg.sender */\n      caller\n        /* \"contracts/sender.sol\":217:234  msg.sender!=owner */\n      eq\n        /* \"contracts/sender.sol\":214:291  if(msg.sender!=owner){... */\n      tag_11\n      jumpi\n        /* \"contracts/sender.sol\":256:280  InavlidOwner(msg.sender) */\n      mload(0x40)\n      shl(0xe0, 0xaf5d7c6f)\n      dup2\n      mstore\n        /* \"contracts/sender.sol\":269:279  msg.sender */\n      caller\n        /* \"contracts/sender.sol\":256:280  InavlidOwner(msg.sender) */\n      0x04\n      dup3\n      add\n        /* \"#utility.yul\":2087:2138   */\n      mstore\n        /* \"#utility.yul\":2060:2078   */\n      0x24\n      add\n        /* \"contracts/sender.sol\":256:280  InavlidOwner(msg.sender) */\n      mload(0x40)\n      dup1\n      swap2\n      sub\n      swap1\n      revert\n        /* \"contracts/sender.sol\":214:291  if(msg.sender!=owner){... */\n    tag_11:\n      pop\n      pop\n        /* \"contracts/sender.sol\":439:477  return (\"only \",name, \"can edit this\") */\n      0x40\n      dup1\n      mload\n      dup1\n      dup3\n      add\n      dup3\n      mstore\n      0x05\n      dup2\n      mstore\n      shl(0xdd, 0x037b7363c9)\n      0x20\n      dup1\n      dup4\n      add\n      swap2\n      swap1\n      swap2\n      mstore\n      dup3\n      mload\n      dup1\n      dup5\n      add\n      swap1\n      swap4\n      mstore\n      0x0d\n      dup4\n      mstore\n      shl(0x98, 0x63616e20656469742074686973)\n      swap1\n      dup4\n      add\n      mstore\n      swap4\n      swap1\n      swap2\n      pop\n        /* \"contracts/sender.sol\":313:484  function changeUser(string memory name) external view  onlyOwner returns (string memory,string memory,string memory){... */\n      jump\t// out\n        /* \"#utility.yul\":14:141   */\n    tag_15:\n        /* \"#utility.yul\":75:85   */\n      0x4e487b71\n        /* \"#utility.yul\":70:73   */\n      0xe0\n        /* \"#utility.yul\":66:86   */\n      shl\n        /* \"#utility.yul\":63:64   */\n      0x00\n        /* \"#utility.yul\":56:87   */\n      mstore\n        /* \"#utility.yul\":106:110   */\n      0x41\n        /* \"#utility.yul\":103:104   */\n      0x04\n        /* \"#utility.yul\":96:111   */\n      mstore\n        /* \"#utility.yul\":130:134   */\n      0x24\n        /* \"#utility.yul\":127:128   */\n      0x00\n        /* \"#utility.yul\":120:135   */\n      revert\n        /* \"#utility.yul\":146:1091   */\n    tag_6:\n        /* \"#utility.yul\":215:221   */\n      0x00\n        /* \"#utility.yul\":268:270   */\n      0x20\n        /* \"#utility.yul\":256:265   */\n      dup3\n        /* \"#utility.yul\":247:254   */\n      dup5\n        /* \"#utility.yul\":243:266   */\n      sub\n        /* \"#utility.yul\":239:271   */\n      slt\n        /* \"#utility.yul\":236:288   */\n      iszero\n      tag_20\n      jumpi\n        /* \"#utility.yul\":284:285   */\n      0x00\n        /* \"#utility.yul\":281:282   */\n      dup1\n        /* \"#utility.yul\":274:286   */\n      revert\n        /* \"#utility.yul\":236:288   */\n    tag_20:\n        /* \"#utility.yul\":324:333   */\n      dup2\n        /* \"#utility.yul\":311:334   */\n      calldataload\n        /* \"#utility.yul\":357:375   */\n      0xffffffffffffffff\n        /* \"#utility.yul\":349:355   */\n      dup2\n        /* \"#utility.yul\":346:376   */\n      gt\n        /* \"#utility.yul\":343:393   */\n      iszero\n      tag_21\n      jumpi\n        /* \"#utility.yul\":389:390   */\n      0x00\n        /* \"#utility.yul\":386:387   */\n      dup1\n        /* \"#utility.yul\":379:391   */\n      revert\n        /* \"#utility.yul\":343:393   */\n    tag_21:\n        /* \"#utility.yul\":412:434   */\n      dup3\n      add\n        /* \"#utility.yul\":465:469   */\n      0x1f\n        /* \"#utility.yul\":457:470   */\n      dup2\n      add\n        /* \"#utility.yul\":453:480   */\n      dup5\n      sgt\n        /* \"#utility.yul\":443:498   */\n      tag_22\n      jumpi\n        /* \"#utility.yul\":494:495   */\n      0x00\n        /* \"#utility.yul\":491:492   */\n      dup1\n        /* \"#utility.yul\":484:496   */\n      revert\n        /* \"#utility.yul\":443:498   */\n    tag_22:\n        /* \"#utility.yul\":534:536   */\n      dup1\n        /* \"#utility.yul\":521:537   */\n      calldataload\n        /* \"#utility.yul\":560:578   */\n      0xffffffffffffffff\n        /* \"#utility.yul\":552:558   */\n      dup2\n        /* \"#utility.yul\":549:579   */\n      gt\n        /* \"#utility.yul\":546:602   */\n      iszero\n      tag_24\n      jumpi\n        /* \"#utility.yul\":582:600   */\n      tag_24\n      tag_15\n      jump\t// in\n    tag_24:\n        /* \"#utility.yul\":631:633   */\n      0x40\n        /* \"#utility.yul\":625:634   */\n      mload\n        /* \"#utility.yul\":723:725   */\n      0x1f\n        /* \"#utility.yul\":685:702   */\n      dup3\n      add\n      not(0x1f)\n        /* \"#utility.yul\":681:712   */\n      swap1\n      dup2\n      and\n        /* \"#utility.yul\":714:716   */\n      0x3f\n        /* \"#utility.yul\":677:717   */\n      add\n        /* \"#utility.yul\":673:727   */\n      and\n        /* \"#utility.yul\":661:728   */\n      dup2\n      add\n        /* \"#utility.yul\":758:776   */\n      0xffffffffffffffff\n        /* \"#utility.yul\":743:777   */\n      dup2\n      gt\n        /* \"#utility.yul\":779:801   */\n      dup3\n      dup3\n      lt\n        /* \"#utility.yul\":740:802   */\n      or\n        /* \"#utility.yul\":737:825   */\n      iszero\n      tag_26\n      jumpi\n        /* \"#utility.yul\":805:823   */\n      tag_26\n      tag_15\n      jump\t// in\n    tag_26:\n        /* \"#utility.yul\":841:843   */\n      0x40\n        /* \"#utility.yul\":834:856   */\n      mstore\n        /* \"#utility.yul\":865:887   */\n      dup2\n      dup2\n      mstore\n        /* \"#utility.yul\":906:921   */\n      dup3\n      dup3\n      add\n        /* \"#utility.yul\":923:925   */\n      0x20\n        /* \"#utility.yul\":902:926   */\n      add\n        /* \"#utility.yul\":899:936   */\n      dup7\n      lt\n        /* \"#utility.yul\":896:953   */\n      iszero\n      tag_27\n      jumpi\n        /* \"#utility.yul\":949:950   */\n      0x00\n        /* \"#utility.yul\":946:947   */\n      dup1\n        /* \"#utility.yul\":939:951   */\n      revert\n        /* \"#utility.yul\":896:953   */\n    tag_27:\n        /* \"#utility.yul\":1005:1011   */\n      dup2\n        /* \"#utility.yul\":1000:1002   */\n      0x20\n        /* \"#utility.yul\":996:998   */\n      dup5\n        /* \"#utility.yul\":992:1003   */\n      add\n        /* \"#utility.yul\":987:989   */\n      0x20\n        /* \"#utility.yul\":979:985   */\n      dup4\n        /* \"#utility.yul\":975:990   */\n      add\n        /* \"#utility.yul\":962:1012   */\n      calldatacopy\n        /* \"#utility.yul\":1058:1059   */\n      0x00\n        /* \"#utility.yul\":1032:1051   */\n      swap2\n      dup2\n      add\n        /* \"#utility.yul\":1053:1055   */\n      0x20\n        /* \"#utility.yul\":1028:1056   */\n      add\n        /* \"#utility.yul\":1021:1060   */\n      swap2\n      swap1\n      swap2\n      mstore\n        /* \"#utility.yul\":1036:1042   */\n      swap5\n        /* \"#utility.yul\":146:1091   */\n      swap4\n      pop\n      pop\n      pop\n      pop\n      jump\t// out\n        /* \"#utility.yul\":1096:1385   */\n    tag_16:\n        /* \"#utility.yul\":1138:1141   */\n      0x00\n        /* \"#utility.yul\":1176:1181   */\n      dup2\n        /* \"#utility.yul\":1170:1182   */\n      mload\n        /* \"#utility.yul\":1203:1209   */\n      dup1\n        /* \"#utility.yul\":1198:1201   */\n      dup5\n        /* \"#utility.yul\":1191:1210   */\n      mstore\n        /* \"#utility.yul\":1259:1265   */\n      dup1\n        /* \"#utility.yul\":1252:1256   */\n      0x20\n        /* \"#utility.yul\":1245:1250   */\n      dup5\n        /* \"#utility.yul\":1241:1257   */\n      add\n        /* \"#utility.yul\":1234:1238   */\n      0x20\n        /* \"#utility.yul\":1229:1232   */\n      dup7\n        /* \"#utility.yul\":1225:1239   */\n      add\n        /* \"#utility.yul\":1219:1266   */\n      mcopy\n        /* \"#utility.yul\":1311:1312   */\n      0x00\n        /* \"#utility.yul\":1304:1308   */\n      0x20\n        /* \"#utility.yul\":1295:1301   */\n      dup3\n        /* \"#utility.yul\":1290:1293   */\n      dup7\n        /* \"#utility.yul\":1286:1302   */\n      add\n        /* \"#utility.yul\":1282:1309   */\n      add\n        /* \"#utility.yul\":1275:1313   */\n      mstore\n        /* \"#utility.yul\":1374:1378   */\n      0x20\n        /* \"#utility.yul\":1367:1369   */\n      0x1f\n        /* \"#utility.yul\":1363:1370   */\n      not\n        /* \"#utility.yul\":1358:1360   */\n      0x1f\n        /* \"#utility.yul\":1350:1356   */\n      dup4\n        /* \"#utility.yul\":1346:1361   */\n      add\n        /* \"#utility.yul\":1342:1371   */\n      and\n        /* \"#utility.yul\":1337:1340   */\n      dup6\n        /* \"#utility.yul\":1333:1372   */\n      add\n        /* \"#utility.yul\":1329:1379   */\n      add\n        /* \"#utility.yul\":1322:1379   */\n      swap2\n      pop\n      pop\n        /* \"#utility.yul\":1096:1385   */\n      swap3\n      swap2\n      pop\n      pop\n      jump\t// out\n        /* \"#utility.yul\":1390:1936   */\n    tag_9:\n        /* \"#utility.yul\":1635:1637   */\n      0x60\n        /* \"#utility.yul\":1624:1633   */\n      dup2\n        /* \"#utility.yul\":1617:1638   */\n      mstore\n        /* \"#utility.yul\":1598:1602   */\n      0x00\n        /* \"#utility.yul\":1661:1706   */\n      tag_30\n        /* \"#utility.yul\":1702:1704   */\n      0x60\n        /* \"#utility.yul\":1691:1700   */\n      dup4\n        /* \"#utility.yul\":1687:1705   */\n      add\n        /* \"#utility.yul\":1679:1685   */\n      dup7\n        /* \"#utility.yul\":1661:1706   */\n      tag_16\n      jump\t// in\n    tag_30:\n        /* \"#utility.yul\":1754:1763   */\n      dup3\n        /* \"#utility.yul\":1746:1752   */\n      dup2\n        /* \"#utility.yul\":1742:1764   */\n      sub\n        /* \"#utility.yul\":1737:1739   */\n      0x20\n        /* \"#utility.yul\":1726:1735   */\n      dup5\n        /* \"#utility.yul\":1722:1740   */\n      add\n        /* \"#utility.yul\":1715:1765   */\n      mstore\n        /* \"#utility.yul\":1788:1821   */\n      tag_31\n        /* \"#utility.yul\":1814:1820   */\n      dup2\n        /* \"#utility.yul\":1806:1812   */\n      dup7\n        /* \"#utility.yul\":1788:1821   */\n      tag_16\n      jump\t// in\n    tag_31:\n        /* \"#utility.yul\":1774:1821   */\n      swap1\n      pop\n        /* \"#utility.yul\":1869:1878   */\n      dup3\n        /* \"#utility.yul\":1861:1867   */\n      dup2\n        /* \"#utility.yul\":1857:1879   */\n      sub\n        /* \"#utility.yul\":1852:1854   */\n      0x40\n        /* \"#utility.yul\":1841:1850   */\n      dup5\n        /* \"#utility.yul\":1837:1855   */\n      add\n        /* \"#utility.yul\":1830:1880   */\n      mstore\n        /* \"#utility.yul\":1897:1930   */\n      tag_32\n        /* \"#utility.yul\":1923:1929   */\n      dup2\n        /* \"#utility.yul\":1915:1921   */\n      dup6\n        /* \"#utility.yul\":1897:1930   */\n      tag_16\n      jump\t// in\n    tag_32:\n        /* \"#utility.yul\":1889:1930   */\n      swap7\n        /* \"#utility.yul\":1390:1936   */\n      swap6\n      pop\n      pop\n      pop\n      pop\n      pop\n      pop\n      jump\t// out\n\n    auxdata: 0xa264697066735822122057c04f98b0e4c1f108767d478b4f2f14544a8cb332d08098d41a1e300abf178c64736f6c634300081a0033\n}\n",
				"bytecode": {
					"linkReferences": {},
					"object": "6080604052348015600e575f80fd5b505f80546001600160a01b031916331790556102448061002d5f395ff3fe608060405234801561000f575f80fd5b5060043610610029575f3560e01c80639c301cef1461002d575b5f80fd5b61004061003b3660046100eb565b610058565b60405161004f939291906101cc565b60405180910390f35b5f54606090819081906001600160a01b0316331461008f5760405163af5d7c6f60e01b815233600482015260240160405180910390fd5b50506040805180820182526005815264037b7363c960dd1b6020808301919091528251808401909352600d83526c63616e2065646974207468697360981b9083015293909150565b634e487b7160e01b5f52604160045260245ffd5b5f602082840312156100fb575f80fd5b813567ffffffffffffffff811115610111575f80fd5b8201601f81018413610121575f80fd5b803567ffffffffffffffff81111561013b5761013b6100d7565b604051601f8201601f19908116603f0116810167ffffffffffffffff8111828210171561016a5761016a6100d7565b604052818152828201602001861015610181575f80fd5b816020840160208301375f91810160200191909152949350505050565b5f81518084528060208401602086015e5f602082860101526020601f19601f83011685010191505092915050565b606081525f6101de606083018661019e565b82810360208401526101f0818661019e565b90508281036040840152610204818561019e565b969550505050505056fea264697066735822122057c04f98b0e4c1f108767d478b4f2f14544a8cb332d08098d41a1e300abf178c64736f6c634300081a0033",
					"opcodes": "PUSH1 0x80 PUSH1 0x40 MSTORE CALLVALUE DUP1 ISZERO PUSH1 0xE JUMPI PUSH0 DUP1 REVERT JUMPDEST POP PUSH0 DUP1 SLOAD PUSH1 0x1 PUSH1 0x1 PUSH1 0xA0 SHL SUB NOT AND CALLER OR SWAP1 SSTORE PUSH2 0x244 DUP1 PUSH2 0x2D PUSH0 CODECOPY PUSH0 RETURN INVALID PUSH1 0x80 PUSH1 0x40 MSTORE CALLVALUE DUP1 ISZERO PUSH2 0xF JUMPI PUSH0 DUP1 REVERT JUMPDEST POP PUSH1 0x4 CALLDATASIZE LT PUSH2 0x29 JUMPI PUSH0 CALLDATALOAD PUSH1 0xE0 SHR DUP1 PUSH4 0x9C301CEF EQ PUSH2 0x2D JUMPI JUMPDEST PUSH0 DUP1 REVERT JUMPDEST PUSH2 0x40 PUSH2 0x3B CALLDATASIZE PUSH1 0x4 PUSH2 0xEB JUMP JUMPDEST PUSH2 0x58 JUMP JUMPDEST PUSH1 0x40 MLOAD PUSH2 0x4F SWAP4 SWAP3 SWAP2 SWAP1 PUSH2 0x1CC JUMP JUMPDEST PUSH1 0x40 MLOAD DUP1 SWAP2 SUB SWAP1 RETURN JUMPDEST PUSH0 SLOAD PUSH1 0x60 SWAP1 DUP2 SWAP1 DUP2 SWAP1 PUSH1 0x1 PUSH1 0x1 PUSH1 0xA0 SHL SUB AND CALLER EQ PUSH2 0x8F JUMPI PUSH1 0x40 MLOAD PUSH4 0xAF5D7C6F PUSH1 0xE0 SHL DUP2 MSTORE CALLER PUSH1 0x4 DUP3 ADD MSTORE PUSH1 0x24 ADD PUSH1 0x40 MLOAD DUP1 SWAP2 SUB SWAP1 REVERT JUMPDEST POP POP PUSH1 0x40 DUP1 MLOAD DUP1 DUP3 ADD DUP3 MSTORE PUSH1 0x5 DUP2 MSTORE PUSH5 0x37B7363C9 PUSH1 0xDD SHL PUSH1 0x20 DUP1 DUP4 ADD SWAP2 SWAP1 SWAP2 MSTORE DUP3 MLOAD DUP1 DUP5 ADD SWAP1 SWAP4 MSTORE PUSH1 0xD DUP4 MSTORE PUSH13 0x63616E20656469742074686973 PUSH1 0x98 SHL SWAP1 DUP4 ADD MSTORE SWAP4 SWAP1 SWAP2 POP JUMP JUMPDEST PUSH4 0x4E487B71 PUSH1 0xE0 SHL PUSH0 MSTORE PUSH1 0x41 PUSH1 0x4 MSTORE PUSH1 0x24 PUSH0 REVERT JUMPDEST PUSH0 PUSH1 0x20 DUP3 DUP5 SUB SLT ISZERO PUSH2 0xFB JUMPI PUSH0 DUP1 REVERT JUMPDEST DUP2 CALLDATALOAD PUSH8 0xFFFFFFFFFFFFFFFF DUP2 GT ISZERO PUSH2 0x111 JUMPI PUSH0 DUP1 REVERT JUMPDEST DUP3 ADD PUSH1 0x1F DUP2 ADD DUP5 SGT PUSH2 0x121 JUMPI PUSH0 DUP1 REVERT JUMPDEST DUP1 CALLDATALOAD PUSH8 0xFFFFFFFFFFFFFFFF DUP2 GT ISZERO PUSH2 0x13B JUMPI PUSH2 0x13B PUSH2 0xD7 JUMP JUMPDEST PUSH1 0x40 MLOAD PUSH1 0x1F DUP3 ADD PUSH1 0x1F NOT SWAP1 DUP2 AND PUSH1 0x3F ADD AND DUP2 ADD PUSH8 0xFFFFFFFFFFFFFFFF DUP2 GT DUP3 DUP3 LT OR ISZERO PUSH2 0x16A JUMPI PUSH2 0x16A PUSH2 0xD7 JUMP JUMPDEST PUSH1 0x40 MSTORE DUP2 DUP2 MSTORE DUP3 DUP3 ADD PUSH1 0x20 ADD DUP7 LT ISZERO PUSH2 0x181 JUMPI PUSH0 DUP1 REVERT JUMPDEST DUP2 PUSH1 0x20 DUP5 ADD PUSH1 0x20 DUP4 ADD CALLDATACOPY PUSH0 SWAP2 DUP2 ADD PUSH1 0x20 ADD SWAP2 SWAP1 SWAP2 MSTORE SWAP5 SWAP4 POP POP POP POP JUMP JUMPDEST PUSH0 DUP2 MLOAD DUP1 DUP5 MSTORE DUP1 PUSH1 0x20 DUP5 ADD PUSH1 0x20 DUP7 ADD MCOPY PUSH0 PUSH1 0x20 DUP3 DUP7 ADD ADD MSTORE PUSH1 0x20 PUSH1 0x1F NOT PUSH1 0x1F DUP4 ADD AND DUP6 ADD ADD SWAP2 POP POP SWAP3 SWAP2 POP POP JUMP JUMPDEST PUSH1 0x60 DUP2 MSTORE PUSH0 PUSH2 0x1DE PUSH1 0x60 DUP4 ADD DUP7 PUSH2 0x19E JUMP JUMPDEST DUP3 DUP2 SUB PUSH1 0x20 DUP5 ADD MSTORE PUSH2 0x1F0 DUP2 DUP7 PUSH2 0x19E JUMP JUMPDEST SWAP1 POP DUP3 DUP2 SUB PUSH1 0x40 DUP5 ADD MSTORE PUSH2 0x204 DUP2 DUP6 PUSH2 0x19E JUMP JUMPDEST SWAP7 SWAP6 POP POP POP POP POP POP JUMP INVALID LOG2 PUSH5 0x6970667358 0x22 SLT KECCAK256 JUMPI 0xC0 0x4F SWAP9 0xB0 0xE4 0xC1 CALL ADDMOD PUSH23 0x7D478B4F2F14544A8CB332D08098D41A1E300ABF178C64 PUSH20 0x6F6C634300081A00330000000000000000000000 "
				},
				"gasEstimates": {
					"creation": {
						"codeDepositCost": "116000",
						"executionCost": "24397",
						"totalCost": "140397"
					},
					"external": {
						"changeUser(string)": "infinite"
					}
				},
				"methodIdentifiers": {
					"changeUser(string)": "9c301cef"
				}
			},
			"storageLayout": {
				"storage": [
					{
						"astId": 3,
						"contract": "contracts/sender.sol:checkOwner",
						"label": "owner",
						"offset": 0,
						"slot": "0",
						"type": "t_address"
					}
				],
				"types": {
					"t_address": {
						"encoding": "inplace",
						"label": "address",
						"numberOfBytes": "20"
					}
				}
			},
			"userdoc": {
				"kind": "user",
				"methods": {},
				"version": 1
			}
		}
	}
}