{
	"contracts/effct.sol": {
		"TriviaBase": {
			"abi": [
				{
					"inputs": [],
					"name": "InsufficientContractBalance",
					"type": "error"
				},
				{
					"anonymous": false,
					"inputs": [
						{
							"indexed": false,
							"internalType": "address[3]",
							"name": "winners",
							"type": "address[3]"
						},
						{
							"indexed": false,
							"internalType": "uint256[3]",
							"name": "rewards",
							"type": "uint256[3]"
						}
					],
					"name": "RewardsDistributed",
					"type": "event"
				},
				{
					"inputs": [
						{
							"internalType": "address[3]",
							"name": "_users",
							"type": "address[3]"
						}
					],
					"name": "sndRewards",
					"outputs": [],
					"stateMutability": "nonpayable",
					"type": "function"
				}
			],
			"devdoc": {
				"kind": "dev",
				"methods": {},
				"version": 1
			},
			"evm": {
				"assembly": "    /* \"contracts/effct.sol\":337:1434  contract TriviaBase {... */\n  mstore(0x40, 0xc0)\n    /* \"contracts/effct.sol\":405:447  0x1241676d45b1Cb5B573b6258C4A838e149A1D191 */\n  0x1241676d45b1cb5b573b6258c4a838e149a1d191\n    /* \"contracts/effct.sol\":363:447  address private immutable usdcMockToken = 0x1241676d45b1Cb5B573b6258C4A838e149A1D191 */\n  0xffffffffffffffffffffffffffffffffffffffff\n  and\n  0x80\n  swap1\n  0xffffffffffffffffffffffffffffffffffffffff\n  and\n  dup2\n  mstore\n  pop\n    /* \"contracts/effct.sol\":487:529  0x52c043C7120d7DA35fFdDF6C5c2359d503ceE5F8 */\n  0x52c043c7120d7da35ffddf6c5c2359d503cee5f8\n    /* \"contracts/effct.sol\":453:529  address private immutable admin = 0x52c043C7120d7DA35fFdDF6C5c2359d503ceE5F8 */\n  0xffffffffffffffffffffffffffffffffffffffff\n  and\n  0xa0\n  swap1\n  0xffffffffffffffffffffffffffffffffffffffff\n  and\n  dup2\n  mstore\n  pop\n    /* \"contracts/effct.sol\":337:1434  contract TriviaBase {... */\n  callvalue\n  dup1\n  iszero\n  tag_1\n  jumpi\n  0x00\n  dup1\n  revert\ntag_1:\n  pop\n  mload(0x80)\n  mload(0xa0)\n  codecopy(0x00, dataOffset(sub_0), dataSize(sub_0))\n  0x00\n  assignImmutable(\"0x75bcc28b7fac24eeec9856ca179c749c015847969c966f0a0315f3d435961b2d\")\n  0x00\n  assignImmutable(\"0xaaf3f8a03bf981e82bfa1e6e69fda395c89cda31e9dff74038d977f68cce1756\")\n  return(0x00, dataSize(sub_0))\nstop\n\nsub_0: assembly {\n        /* \"contracts/effct.sol\":337:1434  contract TriviaBase {... */\n      mstore(0x40, 0x80)\n      callvalue\n      dup1\n      iszero\n      tag_1\n      jumpi\n      0x00\n      dup1\n      revert\n    tag_1:\n      pop\n      jumpi(tag_2, lt(calldatasize, 0x04))\n      shr(0xe0, calldataload(0x00))\n      dup1\n      0x1192549f\n      eq\n      tag_3\n      jumpi\n    tag_2:\n      0x00\n      dup1\n      revert\n        /* \"contracts/effct.sol\":647:1325  function sndRewards(address[3] memory _users) external onlyAddress {... */\n    tag_3:\n      tag_4\n      0x04\n      dup1\n      calldatasize\n      sub\n      dup2\n      add\n      swap1\n      tag_5\n      swap2\n      swap1\n      tag_6\n      jump\t// in\n    tag_5:\n      tag_7\n      jump\t// in\n    tag_4:\n      stop\n    tag_7:\n        /* \"contracts/effct.sol\":1386:1391  admin */\n      immutable(\"0x75bcc28b7fac24eeec9856ca179c749c015847969c966f0a0315f3d435961b2d\")\n        /* \"contracts/effct.sol\":1372:1391  msg.sender == admin */\n      0xffffffffffffffffffffffffffffffffffffffff\n      and\n        /* \"contracts/effct.sol\":1372:1382  msg.sender */\n      caller\n        /* \"contracts/effct.sol\":1372:1391  msg.sender == admin */\n      0xffffffffffffffffffffffffffffffffffffffff\n      and\n      eq\n        /* \"contracts/effct.sol\":1364:1414  require(msg.sender == admin, \"Only admin wallet!\") */\n      tag_9\n      jumpi\n      mload(0x40)\n      0x08c379a000000000000000000000000000000000000000000000000000000000\n      dup2\n      mstore\n      0x04\n      add\n      tag_10\n      swap1\n      tag_11\n      jump\t// in\n    tag_10:\n      mload(0x40)\n      dup1\n      swap2\n      sub\n      swap1\n      revert\n    tag_9:\n        /* \"contracts/effct.sol\":724:744  uint contractRewards */\n      0x00\n        /* \"contracts/effct.sol\":754:767  usdcMockToken */\n      immutable(\"0xaaf3f8a03bf981e82bfa1e6e69fda395c89cda31e9dff74038d977f68cce1756\")\n        /* \"contracts/effct.sol\":747:778  IERC20(usdcMockToken).balanceOf */\n      0xffffffffffffffffffffffffffffffffffffffff\n      and\n      0x70a08231\n        /* \"contracts/effct.sol\":787:791  this */\n      address\n        /* \"contracts/effct.sol\":747:793  IERC20(usdcMockToken).balanceOf(address(this)) */\n      mload(0x40)\n      dup3\n      0xffffffff\n      and\n      0xe0\n      shl\n      dup2\n      mstore\n      0x04\n      add\n      tag_13\n      swap2\n      swap1\n      tag_14\n      jump\t// in\n    tag_13:\n      0x20\n      mload(0x40)\n      dup1\n      dup4\n      sub\n      dup2\n      dup7\n      gas\n      staticcall\n      iszero\n      dup1\n      iszero\n      tag_16\n      jumpi\n      returndatasize\n      0x00\n      dup1\n      returndatacopy\n      revert(0x00, returndatasize)\n    tag_16:\n      pop\n      pop\n      pop\n      pop\n      mload(0x40)\n      returndatasize\n      not(0x1f)\n      0x1f\n      dup3\n      add\n      and\n      dup3\n      add\n      dup1\n      0x40\n      mstore\n      pop\n      dup2\n      add\n      swap1\n      tag_17\n      swap2\n      swap1\n      tag_18\n      jump\t// in\n    tag_17:\n        /* \"contracts/effct.sol\":724:793  uint contractRewards = IERC20(usdcMockToken).balanceOf(address(this)) */\n      swap1\n      pop\n        /* \"contracts/effct.sol\":826:827  0 */\n      0x00\n        /* \"contracts/effct.sol\":807:822  contractRewards */\n      dup2\n        /* \"contracts/effct.sol\":807:827  contractRewards == 0 */\n      sub\n        /* \"contracts/effct.sol\":803:865  if (contractRewards == 0) revert InsufficientContractBalance() */\n      tag_19\n      jumpi\n        /* \"contracts/effct.sol\":836:865  InsufficientContractBalance() */\n      mload(0x40)\n      0x786e0a9900000000000000000000000000000000000000000000000000000000\n      dup2\n      mstore\n      0x04\n      add\n      mload(0x40)\n      dup1\n      swap2\n      sub\n      swap1\n      revert\n        /* \"contracts/effct.sol\":803:865  if (contractRewards == 0) revert InsufficientContractBalance() */\n    tag_19:\n        /* \"contracts/effct.sol\":876:898  uint[3] memory rewards */\n      0x00\n        /* \"contracts/effct.sol\":876:1036  uint[3] memory rewards = [... */\n      mload(0x40)\n      dup1\n      0x60\n      add\n      0x40\n      mstore\n      dup1\n        /* \"contracts/effct.sol\":940:943  100 */\n      0x64\n        /* \"contracts/effct.sol\":921:936  contractRewards */\n      dup5\n        /* \"contracts/effct.sol\":916:918  58 */\n      0x3a\n        /* \"contracts/effct.sol\":916:936  58 * contractRewards */\n      tag_20\n      swap2\n      swap1\n      tag_21\n      jump\t// in\n    tag_20:\n        /* \"contracts/effct.sol\":915:943  (58 * contractRewards) / 100 */\n      tag_22\n      swap2\n      swap1\n      tag_23\n      jump\t// in\n    tag_22:\n        /* \"contracts/effct.sol\":876:1036  uint[3] memory rewards = [... */\n      dup2\n      mstore\n      0x20\n      add\n        /* \"contracts/effct.sol\":982:985  100 */\n      0x64\n        /* \"contracts/effct.sol\":963:978  contractRewards */\n      dup5\n        /* \"contracts/effct.sol\":958:960  29 */\n      0x1d\n        /* \"contracts/effct.sol\":958:978  29 * contractRewards */\n      tag_24\n      swap2\n      swap1\n      tag_21\n      jump\t// in\n    tag_24:\n        /* \"contracts/effct.sol\":957:985  (29 * contractRewards) / 100 */\n      tag_25\n      swap2\n      swap1\n      tag_23\n      jump\t// in\n    tag_25:\n        /* \"contracts/effct.sol\":876:1036  uint[3] memory rewards = [... */\n      dup2\n      mstore\n      0x20\n      add\n        /* \"contracts/effct.sol\":1023:1026  100 */\n      0x64\n        /* \"contracts/effct.sol\":1004:1019  contractRewards */\n      dup5\n        /* \"contracts/effct.sol\":1000:1001  9 */\n      0x09\n        /* \"contracts/effct.sol\":1000:1019  9 * contractRewards */\n      tag_26\n      swap2\n      swap1\n      tag_21\n      jump\t// in\n    tag_26:\n        /* \"contracts/effct.sol\":999:1026  (9 * contractRewards) / 100 */\n      tag_27\n      swap2\n      swap1\n      tag_23\n      jump\t// in\n    tag_27:\n        /* \"contracts/effct.sol\":876:1036  uint[3] memory rewards = [... */\n      dup2\n      mstore\n      pop\n      swap1\n      pop\n        /* \"contracts/effct.sol\":1046:1062  uint adminreward */\n      0x00\n        /* \"contracts/effct.sol\":1088:1091  100 */\n      0x64\n        /* \"contracts/effct.sol\":1069:1084  contractRewards */\n      dup4\n        /* \"contracts/effct.sol\":1065:1066  4 */\n      0x04\n        /* \"contracts/effct.sol\":1065:1084  4 * contractRewards */\n      tag_28\n      swap2\n      swap1\n      tag_21\n      jump\t// in\n    tag_28:\n        /* \"contracts/effct.sol\":1064:1091  (4 * contractRewards) / 100 */\n      tag_29\n      swap2\n      swap1\n      tag_23\n      jump\t// in\n    tag_29:\n        /* \"contracts/effct.sol\":1046:1091  uint adminreward= (4 * contractRewards) / 100 */\n      swap1\n      pop\n        /* \"contracts/effct.sol\":1107:1113  uint i */\n      0x00\n        /* \"contracts/effct.sol\":1102:1209  for (uint i = 0; i < 3; i++) {... */\n    tag_30:\n        /* \"contracts/effct.sol\":1123:1124  3 */\n      0x03\n        /* \"contracts/effct.sol\":1119:1120  i */\n      dup2\n        /* \"contracts/effct.sol\":1119:1124  i < 3 */\n      lt\n        /* \"contracts/effct.sol\":1102:1209  for (uint i = 0; i < 3; i++) {... */\n      iszero\n      tag_31\n      jumpi\n        /* \"contracts/effct.sol\":1152:1165  usdcMockToken */\n      immutable(\"0xaaf3f8a03bf981e82bfa1e6e69fda395c89cda31e9dff74038d977f68cce1756\")\n        /* \"contracts/effct.sol\":1145:1175  IERC20(usdcMockToken).transfer */\n      0xffffffffffffffffffffffffffffffffffffffff\n      and\n      0xa9059cbb\n        /* \"contracts/effct.sol\":1176:1182  _users */\n      dup7\n        /* \"contracts/effct.sol\":1183:1184  i */\n      dup4\n        /* \"contracts/effct.sol\":1176:1185  _users[i] */\n      0x03\n      dup2\n      lt\n      tag_33\n      jumpi\n      tag_34\n      tag_35\n      jump\t// in\n    tag_34:\n    tag_33:\n      0x20\n      mul\n      add\n      mload\n        /* \"contracts/effct.sol\":1187:1194  rewards */\n      dup6\n        /* \"contracts/effct.sol\":1195:1196  i */\n      dup5\n        /* \"contracts/effct.sol\":1187:1197  rewards[i] */\n      0x03\n      dup2\n      lt\n      tag_36\n      jumpi\n      tag_37\n      tag_35\n      jump\t// in\n    tag_37:\n    tag_36:\n      0x20\n      mul\n      add\n      mload\n        /* \"contracts/effct.sol\":1145:1198  IERC20(usdcMockToken).transfer(_users[i], rewards[i]) */\n      mload(0x40)\n      dup4\n      0xffffffff\n      and\n      0xe0\n      shl\n      dup2\n      mstore\n      0x04\n      add\n      tag_38\n      swap3\n      swap2\n      swap1\n      tag_39\n      jump\t// in\n    tag_38:\n      0x20\n      mload(0x40)\n      dup1\n      dup4\n      sub\n      dup2\n      0x00\n      dup8\n      gas\n      call\n      iszero\n      dup1\n      iszero\n      tag_41\n      jumpi\n      returndatasize\n      0x00\n      dup1\n      returndatacopy\n      revert(0x00, returndatasize)\n    tag_41:\n      pop\n      pop\n      pop\n      pop\n      mload(0x40)\n      returndatasize\n      not(0x1f)\n      0x1f\n      dup3\n      add\n      and\n      dup3\n      add\n      dup1\n      0x40\n      mstore\n      pop\n      dup2\n      add\n      swap1\n      tag_42\n      swap2\n      swap1\n      tag_43\n      jump\t// in\n    tag_42:\n      pop\n        /* \"contracts/effct.sol\":1126:1129  i++ */\n      dup1\n      dup1\n      0x01\n      add\n      swap2\n      pop\n      pop\n        /* \"contracts/effct.sol\":1102:1209  for (uint i = 0; i < 3; i++) {... */\n      jump(tag_30)\n    tag_31:\n      pop\n        /* \"contracts/effct.sol\":1225:1238  usdcMockToken */\n      immutable(\"0xaaf3f8a03bf981e82bfa1e6e69fda395c89cda31e9dff74038d977f68cce1756\")\n        /* \"contracts/effct.sol\":1218:1248  IERC20(usdcMockToken).transfer */\n      0xffffffffffffffffffffffffffffffffffffffff\n      and\n      0xa9059cbb\n        /* \"contracts/effct.sol\":1249:1254  admin */\n      immutable(\"0x75bcc28b7fac24eeec9856ca179c749c015847969c966f0a0315f3d435961b2d\")\n        /* \"contracts/effct.sol\":1256:1267  adminreward */\n      dup4\n        /* \"contracts/effct.sol\":1218:1268  IERC20(usdcMockToken).transfer(admin, adminreward) */\n      mload(0x40)\n      dup4\n      0xffffffff\n      and\n      0xe0\n      shl\n      dup2\n      mstore\n      0x04\n      add\n      tag_44\n      swap3\n      swap2\n      swap1\n      tag_39\n      jump\t// in\n    tag_44:\n      0x20\n      mload(0x40)\n      dup1\n      dup4\n      sub\n      dup2\n      0x00\n      dup8\n      gas\n      call\n      iszero\n      dup1\n      iszero\n      tag_46\n      jumpi\n      returndatasize\n      0x00\n      dup1\n      returndatacopy\n      revert(0x00, returndatasize)\n    tag_46:\n      pop\n      pop\n      pop\n      pop\n      mload(0x40)\n      returndatasize\n      not(0x1f)\n      0x1f\n      dup3\n      add\n      and\n      dup3\n      add\n      dup1\n      0x40\n      mstore\n      pop\n      dup2\n      add\n      swap1\n      tag_47\n      swap2\n      swap1\n      tag_43\n      jump\t// in\n    tag_47:\n      pop\n        /* \"contracts/effct.sol\":1283:1318  RewardsDistributed(_users, rewards) */\n      0x6b6ef27261dfd975a881981cb28adc6afe7963673c859bce73d79e0e09be34b0\n        /* \"contracts/effct.sol\":1302:1308  _users */\n      dup5\n        /* \"contracts/effct.sol\":1310:1317  rewards */\n      dup4\n        /* \"contracts/effct.sol\":1283:1318  RewardsDistributed(_users, rewards) */\n      mload(0x40)\n      tag_48\n      swap3\n      swap2\n      swap1\n      tag_49\n      jump\t// in\n    tag_48:\n      mload(0x40)\n      dup1\n      swap2\n      sub\n      swap1\n      log1\n        /* \"contracts/effct.sol\":714:1325  {... */\n      pop\n      pop\n      pop\n        /* \"contracts/effct.sol\":647:1325  function sndRewards(address[3] memory _users) external onlyAddress {... */\n      pop\n      jump\t// out\n        /* \"#utility.yul\":7:82   */\n    tag_50:\n        /* \"#utility.yul\":40:46   */\n      0x00\n        /* \"#utility.yul\":73:75   */\n      0x40\n        /* \"#utility.yul\":67:76   */\n      mload\n        /* \"#utility.yul\":57:76   */\n      swap1\n      pop\n        /* \"#utility.yul\":7:82   */\n      swap1\n      jump\t// out\n        /* \"#utility.yul\":88:205   */\n    tag_51:\n        /* \"#utility.yul\":197:198   */\n      0x00\n        /* \"#utility.yul\":194:195   */\n      dup1\n        /* \"#utility.yul\":187:199   */\n      revert\n        /* \"#utility.yul\":334:451   */\n    tag_53:\n        /* \"#utility.yul\":443:444   */\n      0x00\n        /* \"#utility.yul\":440:441   */\n      dup1\n        /* \"#utility.yul\":433:445   */\n      revert\n        /* \"#utility.yul\":457:559   */\n    tag_54:\n        /* \"#utility.yul\":498:504   */\n      0x00\n        /* \"#utility.yul\":549:551   */\n      0x1f\n        /* \"#utility.yul\":545:552   */\n      not\n        /* \"#utility.yul\":540:542   */\n      0x1f\n        /* \"#utility.yul\":533:538   */\n      dup4\n        /* \"#utility.yul\":529:543   */\n      add\n        /* \"#utility.yul\":525:553   */\n      and\n        /* \"#utility.yul\":515:553   */\n      swap1\n      pop\n        /* \"#utility.yul\":457:559   */\n      swap2\n      swap1\n      pop\n      jump\t// out\n        /* \"#utility.yul\":565:745   */\n    tag_55:\n        /* \"#utility.yul\":613:690   */\n      0x4e487b7100000000000000000000000000000000000000000000000000000000\n        /* \"#utility.yul\":610:611   */\n      0x00\n        /* \"#utility.yul\":603:691   */\n      mstore\n        /* \"#utility.yul\":710:714   */\n      0x41\n        /* \"#utility.yul\":707:708   */\n      0x04\n        /* \"#utility.yul\":700:715   */\n      mstore\n        /* \"#utility.yul\":734:738   */\n      0x24\n        /* \"#utility.yul\":731:732   */\n      0x00\n        /* \"#utility.yul\":724:739   */\n      revert\n        /* \"#utility.yul\":751:1032   */\n    tag_56:\n        /* \"#utility.yul\":834:861   */\n      tag_101\n        /* \"#utility.yul\":856:860   */\n      dup3\n        /* \"#utility.yul\":834:861   */\n      tag_54\n      jump\t// in\n    tag_101:\n        /* \"#utility.yul\":826:832   */\n      dup2\n        /* \"#utility.yul\":822:862   */\n      add\n        /* \"#utility.yul\":964:970   */\n      dup2\n        /* \"#utility.yul\":952:962   */\n      dup2\n        /* \"#utility.yul\":949:971   */\n      lt\n        /* \"#utility.yul\":928:946   */\n      0xffffffffffffffff\n        /* \"#utility.yul\":916:926   */\n      dup3\n        /* \"#utility.yul\":913:947   */\n      gt\n        /* \"#utility.yul\":910:972   */\n      or\n        /* \"#utility.yul\":907:995   */\n      iszero\n      tag_102\n      jumpi\n        /* \"#utility.yul\":975:993   */\n      tag_103\n      tag_55\n      jump\t// in\n    tag_103:\n        /* \"#utility.yul\":907:995   */\n    tag_102:\n        /* \"#utility.yul\":1015:1025   */\n      dup1\n        /* \"#utility.yul\":1011:1013   */\n      0x40\n        /* \"#utility.yul\":1004:1026   */\n      mstore\n        /* \"#utility.yul\":794:1032   */\n      pop\n        /* \"#utility.yul\":751:1032   */\n      pop\n      pop\n      jump\t// out\n        /* \"#utility.yul\":1038:1167   */\n    tag_57:\n        /* \"#utility.yul\":1072:1078   */\n      0x00\n        /* \"#utility.yul\":1099:1119   */\n      tag_105\n      tag_50\n      jump\t// in\n    tag_105:\n        /* \"#utility.yul\":1089:1119   */\n      swap1\n      pop\n        /* \"#utility.yul\":1128:1161   */\n      tag_106\n        /* \"#utility.yul\":1156:1160   */\n      dup3\n        /* \"#utility.yul\":1148:1154   */\n      dup3\n        /* \"#utility.yul\":1128:1161   */\n      tag_56\n      jump\t// in\n    tag_106:\n        /* \"#utility.yul\":1038:1167   */\n      swap2\n      swap1\n      pop\n      jump\t// out\n        /* \"#utility.yul\":1173:1422   */\n    tag_58:\n        /* \"#utility.yul\":1248:1252   */\n      0x00\n        /* \"#utility.yul\":1338:1356   */\n      0xffffffffffffffff\n        /* \"#utility.yul\":1330:1336   */\n      dup3\n        /* \"#utility.yul\":1327:1357   */\n      gt\n        /* \"#utility.yul\":1324:1380   */\n      iszero\n      tag_108\n      jumpi\n        /* \"#utility.yul\":1360:1378   */\n      tag_109\n      tag_55\n      jump\t// in\n    tag_109:\n        /* \"#utility.yul\":1324:1380   */\n    tag_108:\n        /* \"#utility.yul\":1410:1414   */\n      0x20\n        /* \"#utility.yul\":1402:1408   */\n      dup3\n        /* \"#utility.yul\":1398:1415   */\n      mul\n        /* \"#utility.yul\":1390:1415   */\n      swap1\n      pop\n        /* \"#utility.yul\":1173:1422   */\n      swap2\n      swap1\n      pop\n      jump\t// out\n        /* \"#utility.yul\":1428:1545   */\n    tag_59:\n        /* \"#utility.yul\":1537:1538   */\n      0x00\n        /* \"#utility.yul\":1534:1535   */\n      dup1\n        /* \"#utility.yul\":1527:1539   */\n      revert\n        /* \"#utility.yul\":1551:1677   */\n    tag_60:\n        /* \"#utility.yul\":1588:1595   */\n      0x00\n        /* \"#utility.yul\":1628:1670   */\n      0xffffffffffffffffffffffffffffffffffffffff\n        /* \"#utility.yul\":1621:1626   */\n      dup3\n        /* \"#utility.yul\":1617:1671   */\n      and\n        /* \"#utility.yul\":1606:1671   */\n      swap1\n      pop\n        /* \"#utility.yul\":1551:1677   */\n      swap2\n      swap1\n      pop\n      jump\t// out\n        /* \"#utility.yul\":1683:1779   */\n    tag_61:\n        /* \"#utility.yul\":1720:1727   */\n      0x00\n        /* \"#utility.yul\":1749:1773   */\n      tag_113\n        /* \"#utility.yul\":1767:1772   */\n      dup3\n        /* \"#utility.yul\":1749:1773   */\n      tag_60\n      jump\t// in\n    tag_113:\n        /* \"#utility.yul\":1738:1773   */\n      swap1\n      pop\n        /* \"#utility.yul\":1683:1779   */\n      swap2\n      swap1\n      pop\n      jump\t// out\n        /* \"#utility.yul\":1785:1907   */\n    tag_62:\n        /* \"#utility.yul\":1858:1882   */\n      tag_115\n        /* \"#utility.yul\":1876:1881   */\n      dup2\n        /* \"#utility.yul\":1858:1882   */\n      tag_61\n      jump\t// in\n    tag_115:\n        /* \"#utility.yul\":1851:1856   */\n      dup2\n        /* \"#utility.yul\":1848:1883   */\n      eq\n        /* \"#utility.yul\":1838:1901   */\n      tag_116\n      jumpi\n        /* \"#utility.yul\":1897:1898   */\n      0x00\n        /* \"#utility.yul\":1894:1895   */\n      dup1\n        /* \"#utility.yul\":1887:1899   */\n      revert\n        /* \"#utility.yul\":1838:1901   */\n    tag_116:\n        /* \"#utility.yul\":1785:1907   */\n      pop\n      jump\t// out\n        /* \"#utility.yul\":1913:2052   */\n    tag_63:\n        /* \"#utility.yul\":1959:1964   */\n      0x00\n        /* \"#utility.yul\":1997:2003   */\n      dup2\n        /* \"#utility.yul\":1984:2004   */\n      calldataload\n        /* \"#utility.yul\":1975:2004   */\n      swap1\n      pop\n        /* \"#utility.yul\":2013:2046   */\n      tag_118\n        /* \"#utility.yul\":2040:2045   */\n      dup2\n        /* \"#utility.yul\":2013:2046   */\n      tag_62\n      jump\t// in\n    tag_118:\n        /* \"#utility.yul\":1913:2052   */\n      swap3\n      swap2\n      pop\n      pop\n      jump\t// out\n        /* \"#utility.yul\":2076:2719   */\n    tag_64:\n        /* \"#utility.yul\":2170:2175   */\n      0x00\n        /* \"#utility.yul\":2195:2274   */\n      tag_120\n        /* \"#utility.yul\":2211:2273   */\n      tag_121\n        /* \"#utility.yul\":2266:2272   */\n      dup5\n        /* \"#utility.yul\":2211:2273   */\n      tag_58\n      jump\t// in\n    tag_121:\n        /* \"#utility.yul\":2195:2274   */\n      tag_57\n      jump\t// in\n    tag_120:\n        /* \"#utility.yul\":2186:2274   */\n      swap1\n      pop\n        /* \"#utility.yul\":2294:2299   */\n      dup1\n        /* \"#utility.yul\":2347:2351   */\n      0x20\n        /* \"#utility.yul\":2339:2345   */\n      dup5\n        /* \"#utility.yul\":2335:2352   */\n      mul\n        /* \"#utility.yul\":2327:2333   */\n      dup4\n        /* \"#utility.yul\":2323:2353   */\n      add\n        /* \"#utility.yul\":2376:2379   */\n      dup6\n        /* \"#utility.yul\":2368:2374   */\n      dup2\n        /* \"#utility.yul\":2365:2380   */\n      gt\n        /* \"#utility.yul\":2362:2484   */\n      iszero\n      tag_122\n      jumpi\n        /* \"#utility.yul\":2395:2474   */\n      tag_123\n      tag_59\n      jump\t// in\n    tag_123:\n        /* \"#utility.yul\":2362:2484   */\n    tag_122:\n        /* \"#utility.yul\":2510:2516   */\n      dup4\n        /* \"#utility.yul\":2493:2713   */\n    tag_124:\n        /* \"#utility.yul\":2527:2533   */\n      dup2\n        /* \"#utility.yul\":2522:2525   */\n      dup2\n        /* \"#utility.yul\":2519:2534   */\n      lt\n        /* \"#utility.yul\":2493:2713   */\n      iszero\n      tag_126\n      jumpi\n        /* \"#utility.yul\":2602:2605   */\n      dup1\n        /* \"#utility.yul\":2631:2668   */\n      tag_127\n        /* \"#utility.yul\":2664:2667   */\n      dup9\n        /* \"#utility.yul\":2652:2662   */\n      dup3\n        /* \"#utility.yul\":2631:2668   */\n      tag_63\n      jump\t// in\n    tag_127:\n        /* \"#utility.yul\":2626:2629   */\n      dup5\n        /* \"#utility.yul\":2619:2669   */\n      mstore\n        /* \"#utility.yul\":2698:2702   */\n      0x20\n        /* \"#utility.yul\":2693:2696   */\n      dup5\n        /* \"#utility.yul\":2689:2703   */\n      add\n        /* \"#utility.yul\":2682:2703   */\n      swap4\n      pop\n        /* \"#utility.yul\":2569:2713   */\n      pop\n        /* \"#utility.yul\":2553:2557   */\n      0x20\n        /* \"#utility.yul\":2548:2551   */\n      dup2\n        /* \"#utility.yul\":2544:2558   */\n      add\n        /* \"#utility.yul\":2537:2558   */\n      swap1\n      pop\n        /* \"#utility.yul\":2493:2713   */\n      jump(tag_124)\n    tag_126:\n        /* \"#utility.yul\":2497:2518   */\n      pop\n        /* \"#utility.yul\":2176:2719   */\n      pop\n      pop\n        /* \"#utility.yul\":2076:2719   */\n      swap4\n      swap3\n      pop\n      pop\n      pop\n      jump\t// out\n        /* \"#utility.yul\":2743:3082   */\n    tag_65:\n        /* \"#utility.yul\":2812:2817   */\n      0x00\n        /* \"#utility.yul\":2861:2864   */\n      dup3\n        /* \"#utility.yul\":2854:2858   */\n      0x1f\n        /* \"#utility.yul\":2846:2852   */\n      dup4\n        /* \"#utility.yul\":2842:2859   */\n      add\n        /* \"#utility.yul\":2838:2865   */\n      slt\n        /* \"#utility.yul\":2828:2950   */\n      tag_129\n      jumpi\n        /* \"#utility.yul\":2869:2948   */\n      tag_130\n      tag_53\n      jump\t// in\n    tag_130:\n        /* \"#utility.yul\":2828:2950   */\n    tag_129:\n        /* \"#utility.yul\":2973:2977   */\n      0x03\n        /* \"#utility.yul\":2995:3076   */\n      tag_131\n        /* \"#utility.yul\":3072:3075   */\n      dup5\n        /* \"#utility.yul\":3064:3070   */\n      dup3\n        /* \"#utility.yul\":3056:3062   */\n      dup6\n        /* \"#utility.yul\":2995:3076   */\n      tag_64\n      jump\t// in\n    tag_131:\n        /* \"#utility.yul\":2986:3076   */\n      swap2\n      pop\n        /* \"#utility.yul\":2818:3082   */\n      pop\n        /* \"#utility.yul\":2743:3082   */\n      swap3\n      swap2\n      pop\n      pop\n      jump\t// out\n        /* \"#utility.yul\":3088:3463   */\n    tag_6:\n        /* \"#utility.yul\":3170:3176   */\n      0x00\n        /* \"#utility.yul\":3219:3221   */\n      0x60\n        /* \"#utility.yul\":3207:3216   */\n      dup3\n        /* \"#utility.yul\":3198:3205   */\n      dup5\n        /* \"#utility.yul\":3194:3217   */\n      sub\n        /* \"#utility.yul\":3190:3222   */\n      slt\n        /* \"#utility.yul\":3187:3306   */\n      iszero\n      tag_133\n      jumpi\n        /* \"#utility.yul\":3225:3304   */\n      tag_134\n      tag_51\n      jump\t// in\n    tag_134:\n        /* \"#utility.yul\":3187:3306   */\n    tag_133:\n        /* \"#utility.yul\":3345:3346   */\n      0x00\n        /* \"#utility.yul\":3370:3446   */\n      tag_135\n        /* \"#utility.yul\":3438:3445   */\n      dup5\n        /* \"#utility.yul\":3429:3435   */\n      dup3\n        /* \"#utility.yul\":3418:3427   */\n      dup6\n        /* \"#utility.yul\":3414:3436   */\n      add\n        /* \"#utility.yul\":3370:3446   */\n      tag_65\n      jump\t// in\n    tag_135:\n        /* \"#utility.yul\":3360:3446   */\n      swap2\n      pop\n        /* \"#utility.yul\":3316:3456   */\n      pop\n        /* \"#utility.yul\":3088:3463   */\n      swap3\n      swap2\n      pop\n      pop\n      jump\t// out\n        /* \"#utility.yul\":3469:3638   */\n    tag_66:\n        /* \"#utility.yul\":3553:3564   */\n      0x00\n        /* \"#utility.yul\":3587:3593   */\n      dup3\n        /* \"#utility.yul\":3582:3585   */\n      dup3\n        /* \"#utility.yul\":3575:3594   */\n      mstore\n        /* \"#utility.yul\":3627:3631   */\n      0x20\n        /* \"#utility.yul\":3622:3625   */\n      dup3\n        /* \"#utility.yul\":3618:3632   */\n      add\n        /* \"#utility.yul\":3603:3632   */\n      swap1\n      pop\n        /* \"#utility.yul\":3469:3638   */\n      swap3\n      swap2\n      pop\n      pop\n      jump\t// out\n        /* \"#utility.yul\":3644:3812   */\n    tag_67:\n        /* \"#utility.yul\":3784:3804   */\n      0x4f6e6c792061646d696e2077616c6c6574210000000000000000000000000000\n        /* \"#utility.yul\":3780:3781   */\n      0x00\n        /* \"#utility.yul\":3772:3778   */\n      dup3\n        /* \"#utility.yul\":3768:3782   */\n      add\n        /* \"#utility.yul\":3761:3805   */\n      mstore\n        /* \"#utility.yul\":3644:3812   */\n      pop\n      jump\t// out\n        /* \"#utility.yul\":3818:4184   */\n    tag_68:\n        /* \"#utility.yul\":3960:3963   */\n      0x00\n        /* \"#utility.yul\":3981:4048   */\n      tag_139\n        /* \"#utility.yul\":4045:4047   */\n      0x12\n        /* \"#utility.yul\":4040:4043   */\n      dup4\n        /* \"#utility.yul\":3981:4048   */\n      tag_66\n      jump\t// in\n    tag_139:\n        /* \"#utility.yul\":3974:4048   */\n      swap2\n      pop\n        /* \"#utility.yul\":4057:4150   */\n      tag_140\n        /* \"#utility.yul\":4146:4149   */\n      dup3\n        /* \"#utility.yul\":4057:4150   */\n      tag_67\n      jump\t// in\n    tag_140:\n        /* \"#utility.yul\":4175:4177   */\n      0x20\n        /* \"#utility.yul\":4170:4173   */\n      dup3\n        /* \"#utility.yul\":4166:4178   */\n      add\n        /* \"#utility.yul\":4159:4178   */\n      swap1\n      pop\n        /* \"#utility.yul\":3818:4184   */\n      swap2\n      swap1\n      pop\n      jump\t// out\n        /* \"#utility.yul\":4190:4609   */\n    tag_11:\n        /* \"#utility.yul\":4356:4360   */\n      0x00\n        /* \"#utility.yul\":4394:4396   */\n      0x20\n        /* \"#utility.yul\":4383:4392   */\n      dup3\n        /* \"#utility.yul\":4379:4397   */\n      add\n        /* \"#utility.yul\":4371:4397   */\n      swap1\n      pop\n        /* \"#utility.yul\":4443:4452   */\n      dup2\n        /* \"#utility.yul\":4437:4441   */\n      dup2\n        /* \"#utility.yul\":4433:4453   */\n      sub\n        /* \"#utility.yul\":4429:4430   */\n      0x00\n        /* \"#utility.yul\":4418:4427   */\n      dup4\n        /* \"#utility.yul\":4414:4431   */\n      add\n        /* \"#utility.yul\":4407:4454   */\n      mstore\n        /* \"#utility.yul\":4471:4602   */\n      tag_142\n        /* \"#utility.yul\":4597:4601   */\n      dup2\n        /* \"#utility.yul\":4471:4602   */\n      tag_68\n      jump\t// in\n    tag_142:\n        /* \"#utility.yul\":4463:4602   */\n      swap1\n      pop\n        /* \"#utility.yul\":4190:4609   */\n      swap2\n      swap1\n      pop\n      jump\t// out\n        /* \"#utility.yul\":4615:4733   */\n    tag_69:\n        /* \"#utility.yul\":4702:4726   */\n      tag_144\n        /* \"#utility.yul\":4720:4725   */\n      dup2\n        /* \"#utility.yul\":4702:4726   */\n      tag_61\n      jump\t// in\n    tag_144:\n        /* \"#utility.yul\":4697:4700   */\n      dup3\n        /* \"#utility.yul\":4690:4727   */\n      mstore\n        /* \"#utility.yul\":4615:4733   */\n      pop\n      pop\n      jump\t// out\n        /* \"#utility.yul\":4739:4961   */\n    tag_14:\n        /* \"#utility.yul\":4832:4836   */\n      0x00\n        /* \"#utility.yul\":4870:4872   */\n      0x20\n        /* \"#utility.yul\":4859:4868   */\n      dup3\n        /* \"#utility.yul\":4855:4873   */\n      add\n        /* \"#utility.yul\":4847:4873   */\n      swap1\n      pop\n        /* \"#utility.yul\":4883:4954   */\n      tag_146\n        /* \"#utility.yul\":4951:4952   */\n      0x00\n        /* \"#utility.yul\":4940:4949   */\n      dup4\n        /* \"#utility.yul\":4936:4953   */\n      add\n        /* \"#utility.yul\":4927:4933   */\n      dup5\n        /* \"#utility.yul\":4883:4954   */\n      tag_69\n      jump\t// in\n    tag_146:\n        /* \"#utility.yul\":4739:4961   */\n      swap3\n      swap2\n      pop\n      pop\n      jump\t// out\n        /* \"#utility.yul\":4967:5044   */\n    tag_70:\n        /* \"#utility.yul\":5004:5011   */\n      0x00\n        /* \"#utility.yul\":5033:5038   */\n      dup2\n        /* \"#utility.yul\":5022:5038   */\n      swap1\n      pop\n        /* \"#utility.yul\":4967:5044   */\n      swap2\n      swap1\n      pop\n      jump\t// out\n        /* \"#utility.yul\":5050:5172   */\n    tag_71:\n        /* \"#utility.yul\":5123:5147   */\n      tag_149\n        /* \"#utility.yul\":5141:5146   */\n      dup2\n        /* \"#utility.yul\":5123:5147   */\n      tag_70\n      jump\t// in\n    tag_149:\n        /* \"#utility.yul\":5116:5121   */\n      dup2\n        /* \"#utility.yul\":5113:5148   */\n      eq\n        /* \"#utility.yul\":5103:5166   */\n      tag_150\n      jumpi\n        /* \"#utility.yul\":5162:5163   */\n      0x00\n        /* \"#utility.yul\":5159:5160   */\n      dup1\n        /* \"#utility.yul\":5152:5164   */\n      revert\n        /* \"#utility.yul\":5103:5166   */\n    tag_150:\n        /* \"#utility.yul\":5050:5172   */\n      pop\n      jump\t// out\n        /* \"#utility.yul\":5178:5321   */\n    tag_72:\n        /* \"#utility.yul\":5235:5240   */\n      0x00\n        /* \"#utility.yul\":5266:5272   */\n      dup2\n        /* \"#utility.yul\":5260:5273   */\n      mload\n        /* \"#utility.yul\":5251:5273   */\n      swap1\n      pop\n        /* \"#utility.yul\":5282:5315   */\n      tag_152\n        /* \"#utility.yul\":5309:5314   */\n      dup2\n        /* \"#utility.yul\":5282:5315   */\n      tag_71\n      jump\t// in\n    tag_152:\n        /* \"#utility.yul\":5178:5321   */\n      swap3\n      swap2\n      pop\n      pop\n      jump\t// out\n        /* \"#utility.yul\":5327:5678   */\n    tag_18:\n        /* \"#utility.yul\":5397:5403   */\n      0x00\n        /* \"#utility.yul\":5446:5448   */\n      0x20\n        /* \"#utility.yul\":5434:5443   */\n      dup3\n        /* \"#utility.yul\":5425:5432   */\n      dup5\n        /* \"#utility.yul\":5421:5444   */\n      sub\n        /* \"#utility.yul\":5417:5449   */\n      slt\n        /* \"#utility.yul\":5414:5533   */\n      iszero\n      tag_154\n      jumpi\n        /* \"#utility.yul\":5452:5531   */\n      tag_155\n      tag_51\n      jump\t// in\n    tag_155:\n        /* \"#utility.yul\":5414:5533   */\n    tag_154:\n        /* \"#utility.yul\":5572:5573   */\n      0x00\n        /* \"#utility.yul\":5597:5661   */\n      tag_156\n        /* \"#utility.yul\":5653:5660   */\n      dup5\n        /* \"#utility.yul\":5644:5650   */\n      dup3\n        /* \"#utility.yul\":5633:5642   */\n      dup6\n        /* \"#utility.yul\":5629:5651   */\n      add\n        /* \"#utility.yul\":5597:5661   */\n      tag_72\n      jump\t// in\n    tag_156:\n        /* \"#utility.yul\":5587:5661   */\n      swap2\n      pop\n        /* \"#utility.yul\":5543:5671   */\n      pop\n        /* \"#utility.yul\":5327:5678   */\n      swap3\n      swap2\n      pop\n      pop\n      jump\t// out\n        /* \"#utility.yul\":5684:5864   */\n    tag_73:\n        /* \"#utility.yul\":5732:5809   */\n      0x4e487b7100000000000000000000000000000000000000000000000000000000\n        /* \"#utility.yul\":5729:5730   */\n      0x00\n        /* \"#utility.yul\":5722:5810   */\n      mstore\n        /* \"#utility.yul\":5829:5833   */\n      0x11\n        /* \"#utility.yul\":5826:5827   */\n      0x04\n        /* \"#utility.yul\":5819:5834   */\n      mstore\n        /* \"#utility.yul\":5853:5857   */\n      0x24\n        /* \"#utility.yul\":5850:5851   */\n      0x00\n        /* \"#utility.yul\":5843:5858   */\n      revert\n        /* \"#utility.yul\":5870:6280   */\n    tag_21:\n        /* \"#utility.yul\":5910:5917   */\n      0x00\n        /* \"#utility.yul\":5933:5953   */\n      tag_159\n        /* \"#utility.yul\":5951:5952   */\n      dup3\n        /* \"#utility.yul\":5933:5953   */\n      tag_70\n      jump\t// in\n    tag_159:\n        /* \"#utility.yul\":5928:5953   */\n      swap2\n      pop\n        /* \"#utility.yul\":5967:5987   */\n      tag_160\n        /* \"#utility.yul\":5985:5986   */\n      dup4\n        /* \"#utility.yul\":5967:5987   */\n      tag_70\n      jump\t// in\n    tag_160:\n        /* \"#utility.yul\":5962:5987   */\n      swap3\n      pop\n        /* \"#utility.yul\":6022:6023   */\n      dup3\n        /* \"#utility.yul\":6019:6020   */\n      dup3\n        /* \"#utility.yul\":6015:6024   */\n      mul\n        /* \"#utility.yul\":6044:6074   */\n      tag_161\n        /* \"#utility.yul\":6062:6073   */\n      dup2\n        /* \"#utility.yul\":6044:6074   */\n      tag_70\n      jump\t// in\n    tag_161:\n        /* \"#utility.yul\":6033:6074   */\n      swap2\n      pop\n        /* \"#utility.yul\":6223:6224   */\n      dup3\n        /* \"#utility.yul\":6214:6221   */\n      dup3\n        /* \"#utility.yul\":6210:6225   */\n      div\n        /* \"#utility.yul\":6207:6208   */\n      dup5\n        /* \"#utility.yul\":6204:6226   */\n      eq\n        /* \"#utility.yul\":6184:6185   */\n      dup4\n        /* \"#utility.yul\":6177:6186   */\n      iszero\n        /* \"#utility.yul\":6157:6240   */\n      or\n        /* \"#utility.yul\":6134:6273   */\n      tag_162\n      jumpi\n        /* \"#utility.yul\":6253:6271   */\n      tag_163\n      tag_73\n      jump\t// in\n    tag_163:\n        /* \"#utility.yul\":6134:6273   */\n    tag_162:\n        /* \"#utility.yul\":5918:6280   */\n      pop\n        /* \"#utility.yul\":5870:6280   */\n      swap3\n      swap2\n      pop\n      pop\n      jump\t// out\n        /* \"#utility.yul\":6286:6466   */\n    tag_74:\n        /* \"#utility.yul\":6334:6411   */\n      0x4e487b7100000000000000000000000000000000000000000000000000000000\n        /* \"#utility.yul\":6331:6332   */\n      0x00\n        /* \"#utility.yul\":6324:6412   */\n      mstore\n        /* \"#utility.yul\":6431:6435   */\n      0x12\n        /* \"#utility.yul\":6428:6429   */\n      0x04\n        /* \"#utility.yul\":6421:6436   */\n      mstore\n        /* \"#utility.yul\":6455:6459   */\n      0x24\n        /* \"#utility.yul\":6452:6453   */\n      0x00\n        /* \"#utility.yul\":6445:6460   */\n      revert\n        /* \"#utility.yul\":6472:6657   */\n    tag_23:\n        /* \"#utility.yul\":6512:6513   */\n      0x00\n        /* \"#utility.yul\":6529:6549   */\n      tag_166\n        /* \"#utility.yul\":6547:6548   */\n      dup3\n        /* \"#utility.yul\":6529:6549   */\n      tag_70\n      jump\t// in\n    tag_166:\n        /* \"#utility.yul\":6524:6549   */\n      swap2\n      pop\n        /* \"#utility.yul\":6563:6583   */\n      tag_167\n        /* \"#utility.yul\":6581:6582   */\n      dup4\n        /* \"#utility.yul\":6563:6583   */\n      tag_70\n      jump\t// in\n    tag_167:\n        /* \"#utility.yul\":6558:6583   */\n      swap3\n      pop\n        /* \"#utility.yul\":6602:6603   */\n      dup3\n        /* \"#utility.yul\":6592:6627   */\n      tag_168\n      jumpi\n        /* \"#utility.yul\":6607:6625   */\n      tag_169\n      tag_74\n      jump\t// in\n    tag_169:\n        /* \"#utility.yul\":6592:6627   */\n    tag_168:\n        /* \"#utility.yul\":6649:6650   */\n      dup3\n        /* \"#utility.yul\":6646:6647   */\n      dup3\n        /* \"#utility.yul\":6642:6651   */\n      div\n        /* \"#utility.yul\":6637:6651   */\n      swap1\n      pop\n        /* \"#utility.yul\":6472:6657   */\n      swap3\n      swap2\n      pop\n      pop\n      jump\t// out\n        /* \"#utility.yul\":6663:6843   */\n    tag_35:\n        /* \"#utility.yul\":6711:6788   */\n      0x4e487b7100000000000000000000000000000000000000000000000000000000\n        /* \"#utility.yul\":6708:6709   */\n      0x00\n        /* \"#utility.yul\":6701:6789   */\n      mstore\n        /* \"#utility.yul\":6808:6812   */\n      0x32\n        /* \"#utility.yul\":6805:6806   */\n      0x04\n        /* \"#utility.yul\":6798:6813   */\n      mstore\n        /* \"#utility.yul\":6832:6836   */\n      0x24\n        /* \"#utility.yul\":6829:6830   */\n      0x00\n        /* \"#utility.yul\":6822:6837   */\n      revert\n        /* \"#utility.yul\":6849:6967   */\n    tag_75:\n        /* \"#utility.yul\":6936:6960   */\n      tag_172\n        /* \"#utility.yul\":6954:6959   */\n      dup2\n        /* \"#utility.yul\":6936:6960   */\n      tag_70\n      jump\t// in\n    tag_172:\n        /* \"#utility.yul\":6931:6934   */\n      dup3\n        /* \"#utility.yul\":6924:6961   */\n      mstore\n        /* \"#utility.yul\":6849:6967   */\n      pop\n      pop\n      jump\t// out\n        /* \"#utility.yul\":6973:7305   */\n    tag_39:\n        /* \"#utility.yul\":7094:7098   */\n      0x00\n        /* \"#utility.yul\":7132:7134   */\n      0x40\n        /* \"#utility.yul\":7121:7130   */\n      dup3\n        /* \"#utility.yul\":7117:7135   */\n      add\n        /* \"#utility.yul\":7109:7135   */\n      swap1\n      pop\n        /* \"#utility.yul\":7145:7216   */\n      tag_174\n        /* \"#utility.yul\":7213:7214   */\n      0x00\n        /* \"#utility.yul\":7202:7211   */\n      dup4\n        /* \"#utility.yul\":7198:7215   */\n      add\n        /* \"#utility.yul\":7189:7195   */\n      dup6\n        /* \"#utility.yul\":7145:7216   */\n      tag_69\n      jump\t// in\n    tag_174:\n        /* \"#utility.yul\":7226:7298   */\n      tag_175\n        /* \"#utility.yul\":7294:7296   */\n      0x20\n        /* \"#utility.yul\":7283:7292   */\n      dup4\n        /* \"#utility.yul\":7279:7297   */\n      add\n        /* \"#utility.yul\":7270:7276   */\n      dup5\n        /* \"#utility.yul\":7226:7298   */\n      tag_75\n      jump\t// in\n    tag_175:\n        /* \"#utility.yul\":6973:7305   */\n      swap4\n      swap3\n      pop\n      pop\n      pop\n      jump\t// out\n        /* \"#utility.yul\":7311:7401   */\n    tag_76:\n        /* \"#utility.yul\":7345:7352   */\n      0x00\n        /* \"#utility.yul\":7388:7393   */\n      dup2\n        /* \"#utility.yul\":7381:7394   */\n      iszero\n        /* \"#utility.yul\":7374:7395   */\n      iszero\n        /* \"#utility.yul\":7363:7395   */\n      swap1\n      pop\n        /* \"#utility.yul\":7311:7401   */\n      swap2\n      swap1\n      pop\n      jump\t// out\n        /* \"#utility.yul\":7407:7523   */\n    tag_77:\n        /* \"#utility.yul\":7477:7498   */\n      tag_178\n        /* \"#utility.yul\":7492:7497   */\n      dup2\n        /* \"#utility.yul\":7477:7498   */\n      tag_76\n      jump\t// in\n    tag_178:\n        /* \"#utility.yul\":7470:7475   */\n      dup2\n        /* \"#utility.yul\":7467:7499   */\n      eq\n        /* \"#utility.yul\":7457:7517   */\n      tag_179\n      jumpi\n        /* \"#utility.yul\":7513:7514   */\n      0x00\n        /* \"#utility.yul\":7510:7511   */\n      dup1\n        /* \"#utility.yul\":7503:7515   */\n      revert\n        /* \"#utility.yul\":7457:7517   */\n    tag_179:\n        /* \"#utility.yul\":7407:7523   */\n      pop\n      jump\t// out\n        /* \"#utility.yul\":7529:7666   */\n    tag_78:\n        /* \"#utility.yul\":7583:7588   */\n      0x00\n        /* \"#utility.yul\":7614:7620   */\n      dup2\n        /* \"#utility.yul\":7608:7621   */\n      mload\n        /* \"#utility.yul\":7599:7621   */\n      swap1\n      pop\n        /* \"#utility.yul\":7630:7660   */\n      tag_181\n        /* \"#utility.yul\":7654:7659   */\n      dup2\n        /* \"#utility.yul\":7630:7660   */\n      tag_77\n      jump\t// in\n    tag_181:\n        /* \"#utility.yul\":7529:7666   */\n      swap3\n      swap2\n      pop\n      pop\n      jump\t// out\n        /* \"#utility.yul\":7672:8017   */\n    tag_43:\n        /* \"#utility.yul\":7739:7745   */\n      0x00\n        /* \"#utility.yul\":7788:7790   */\n      0x20\n        /* \"#utility.yul\":7776:7785   */\n      dup3\n        /* \"#utility.yul\":7767:7774   */\n      dup5\n        /* \"#utility.yul\":7763:7786   */\n      sub\n        /* \"#utility.yul\":7759:7791   */\n      slt\n        /* \"#utility.yul\":7756:7875   */\n      iszero\n      tag_183\n      jumpi\n        /* \"#utility.yul\":7794:7873   */\n      tag_184\n      tag_51\n      jump\t// in\n    tag_184:\n        /* \"#utility.yul\":7756:7875   */\n    tag_183:\n        /* \"#utility.yul\":7914:7915   */\n      0x00\n        /* \"#utility.yul\":7939:8000   */\n      tag_185\n        /* \"#utility.yul\":7992:7999   */\n      dup5\n        /* \"#utility.yul\":7983:7989   */\n      dup3\n        /* \"#utility.yul\":7972:7981   */\n      dup6\n        /* \"#utility.yul\":7968:7990   */\n      add\n        /* \"#utility.yul\":7939:8000   */\n      tag_78\n      jump\t// in\n    tag_185:\n        /* \"#utility.yul\":7929:8000   */\n      swap2\n      pop\n        /* \"#utility.yul\":7885:8010   */\n      pop\n        /* \"#utility.yul\":7672:8017   */\n      swap3\n      swap2\n      pop\n      pop\n      jump\t// out\n        /* \"#utility.yul\":8023:8127   */\n    tag_79:\n        /* \"#utility.yul\":8088:8094   */\n      0x00\n        /* \"#utility.yul\":8116:8120   */\n      0x03\n        /* \"#utility.yul\":8106:8120   */\n      swap1\n      pop\n        /* \"#utility.yul\":8023:8127   */\n      swap2\n      swap1\n      pop\n      jump\t// out\n        /* \"#utility.yul\":8133:8276   */\n    tag_80:\n        /* \"#utility.yul\":8230:8241   */\n      0x00\n        /* \"#utility.yul\":8267:8270   */\n      dup2\n        /* \"#utility.yul\":8252:8270   */\n      swap1\n      pop\n        /* \"#utility.yul\":8133:8276   */\n      swap3\n      swap2\n      pop\n      pop\n      jump\t// out\n        /* \"#utility.yul\":8282:8380   */\n    tag_81:\n        /* \"#utility.yul\":8347:8351   */\n      0x00\n        /* \"#utility.yul\":8370:8373   */\n      dup2\n        /* \"#utility.yul\":8362:8373   */\n      swap1\n      pop\n        /* \"#utility.yul\":8282:8380   */\n      swap2\n      swap1\n      pop\n      jump\t// out\n        /* \"#utility.yul\":8386:8494   */\n    tag_82:\n        /* \"#utility.yul\":8463:8487   */\n      tag_190\n        /* \"#utility.yul\":8481:8486   */\n      dup2\n        /* \"#utility.yul\":8463:8487   */\n      tag_61\n      jump\t// in\n    tag_190:\n        /* \"#utility.yul\":8458:8461   */\n      dup3\n        /* \"#utility.yul\":8451:8488   */\n      mstore\n        /* \"#utility.yul\":8386:8494   */\n      pop\n      pop\n      jump\t// out\n        /* \"#utility.yul\":8500:8679   */\n    tag_83:\n        /* \"#utility.yul\":8569:8579   */\n      0x00\n        /* \"#utility.yul\":8590:8636   */\n      tag_192\n        /* \"#utility.yul\":8632:8635   */\n      dup4\n        /* \"#utility.yul\":8624:8630   */\n      dup4\n        /* \"#utility.yul\":8590:8636   */\n      tag_82\n      jump\t// in\n    tag_192:\n        /* \"#utility.yul\":8668:8672   */\n      0x20\n        /* \"#utility.yul\":8663:8666   */\n      dup4\n        /* \"#utility.yul\":8659:8673   */\n      add\n        /* \"#utility.yul\":8645:8673   */\n      swap1\n      pop\n        /* \"#utility.yul\":8500:8679   */\n      swap3\n      swap2\n      pop\n      pop\n      jump\t// out\n        /* \"#utility.yul\":8685:8796   */\n    tag_84:\n        /* \"#utility.yul\":8753:8757   */\n      0x00\n        /* \"#utility.yul\":8785:8789   */\n      0x20\n        /* \"#utility.yul\":8780:8783   */\n      dup3\n        /* \"#utility.yul\":8776:8790   */\n      add\n        /* \"#utility.yul\":8768:8790   */\n      swap1\n      pop\n        /* \"#utility.yul\":8685:8796   */\n      swap2\n      swap1\n      pop\n      jump\t// out\n        /* \"#utility.yul\":8834:9528   */\n    tag_85:\n        /* \"#utility.yul\":8970:9022   */\n      tag_195\n        /* \"#utility.yul\":9016:9021   */\n      dup2\n        /* \"#utility.yul\":8970:9022   */\n      tag_79\n      jump\t// in\n    tag_195:\n        /* \"#utility.yul\":9038:9122   */\n      tag_196\n        /* \"#utility.yul\":9115:9121   */\n      dup2\n        /* \"#utility.yul\":9110:9113   */\n      dup5\n        /* \"#utility.yul\":9038:9122   */\n      tag_80\n      jump\t// in\n    tag_196:\n        /* \"#utility.yul\":9031:9122   */\n      swap3\n      pop\n        /* \"#utility.yul\":9146:9200   */\n      tag_197\n        /* \"#utility.yul\":9194:9199   */\n      dup3\n        /* \"#utility.yul\":9146:9200   */\n      tag_81\n      jump\t// in\n    tag_197:\n        /* \"#utility.yul\":9223:9230   */\n      dup1\n        /* \"#utility.yul\":9254:9255   */\n      0x00\n        /* \"#utility.yul\":9239:9521   */\n    tag_198:\n        /* \"#utility.yul\":9264:9270   */\n      dup4\n        /* \"#utility.yul\":9261:9262   */\n      dup2\n        /* \"#utility.yul\":9258:9271   */\n      lt\n        /* \"#utility.yul\":9239:9521   */\n      iszero\n      tag_200\n      jumpi\n        /* \"#utility.yul\":9340:9346   */\n      dup2\n        /* \"#utility.yul\":9334:9347   */\n      mload\n        /* \"#utility.yul\":9367:9430   */\n      tag_201\n        /* \"#utility.yul\":9426:9429   */\n      dup8\n        /* \"#utility.yul\":9411:9424   */\n      dup3\n        /* \"#utility.yul\":9367:9430   */\n      tag_83\n      jump\t// in\n    tag_201:\n        /* \"#utility.yul\":9360:9430   */\n      swap7\n      pop\n        /* \"#utility.yul\":9453:9511   */\n      tag_202\n        /* \"#utility.yul\":9504:9510   */\n      dup4\n        /* \"#utility.yul\":9453:9511   */\n      tag_84\n      jump\t// in\n    tag_202:\n        /* \"#utility.yul\":9443:9511   */\n      swap3\n      pop\n        /* \"#utility.yul\":9299:9521   */\n      pop\n        /* \"#utility.yul\":9286:9287   */\n      0x01\n        /* \"#utility.yul\":9283:9284   */\n      dup2\n        /* \"#utility.yul\":9279:9288   */\n      add\n        /* \"#utility.yul\":9274:9288   */\n      swap1\n      pop\n        /* \"#utility.yul\":9239:9521   */\n      jump(tag_198)\n    tag_200:\n        /* \"#utility.yul\":9243:9257   */\n      pop\n        /* \"#utility.yul\":8946:9528   */\n      pop\n      pop\n      pop\n        /* \"#utility.yul\":8834:9528   */\n      pop\n      pop\n      jump\t// out\n        /* \"#utility.yul\":9534:9638   */\n    tag_86:\n        /* \"#utility.yul\":9599:9605   */\n      0x00\n        /* \"#utility.yul\":9627:9631   */\n      0x03\n        /* \"#utility.yul\":9617:9631   */\n      swap1\n      pop\n        /* \"#utility.yul\":9534:9638   */\n      swap2\n      swap1\n      pop\n      jump\t// out\n        /* \"#utility.yul\":9644:9787   */\n    tag_87:\n        /* \"#utility.yul\":9741:9752   */\n      0x00\n        /* \"#utility.yul\":9778:9781   */\n      dup2\n        /* \"#utility.yul\":9763:9781   */\n      swap1\n      pop\n        /* \"#utility.yul\":9644:9787   */\n      swap3\n      swap2\n      pop\n      pop\n      jump\t// out\n        /* \"#utility.yul\":9793:9891   */\n    tag_88:\n        /* \"#utility.yul\":9858:9862   */\n      0x00\n        /* \"#utility.yul\":9881:9884   */\n      dup2\n        /* \"#utility.yul\":9873:9884   */\n      swap1\n      pop\n        /* \"#utility.yul\":9793:9891   */\n      swap2\n      swap1\n      pop\n      jump\t// out\n        /* \"#utility.yul\":9897:10005   */\n    tag_89:\n        /* \"#utility.yul\":9974:9998   */\n      tag_207\n        /* \"#utility.yul\":9992:9997   */\n      dup2\n        /* \"#utility.yul\":9974:9998   */\n      tag_70\n      jump\t// in\n    tag_207:\n        /* \"#utility.yul\":9969:9972   */\n      dup3\n        /* \"#utility.yul\":9962:9999   */\n      mstore\n        /* \"#utility.yul\":9897:10005   */\n      pop\n      pop\n      jump\t// out\n        /* \"#utility.yul\":10011:10190   */\n    tag_90:\n        /* \"#utility.yul\":10080:10090   */\n      0x00\n        /* \"#utility.yul\":10101:10147   */\n      tag_209\n        /* \"#utility.yul\":10143:10146   */\n      dup4\n        /* \"#utility.yul\":10135:10141   */\n      dup4\n        /* \"#utility.yul\":10101:10147   */\n      tag_89\n      jump\t// in\n    tag_209:\n        /* \"#utility.yul\":10179:10183   */\n      0x20\n        /* \"#utility.yul\":10174:10177   */\n      dup4\n        /* \"#utility.yul\":10170:10184   */\n      add\n        /* \"#utility.yul\":10156:10184   */\n      swap1\n      pop\n        /* \"#utility.yul\":10011:10190   */\n      swap3\n      swap2\n      pop\n      pop\n      jump\t// out\n        /* \"#utility.yul\":10196:10307   */\n    tag_91:\n        /* \"#utility.yul\":10264:10268   */\n      0x00\n        /* \"#utility.yul\":10296:10300   */\n      0x20\n        /* \"#utility.yul\":10291:10294   */\n      dup3\n        /* \"#utility.yul\":10287:10301   */\n      add\n        /* \"#utility.yul\":10279:10301   */\n      swap1\n      pop\n        /* \"#utility.yul\":10196:10307   */\n      swap2\n      swap1\n      pop\n      jump\t// out\n        /* \"#utility.yul\":10345:11039   */\n    tag_92:\n        /* \"#utility.yul\":10481:10533   */\n      tag_212\n        /* \"#utility.yul\":10527:10532   */\n      dup2\n        /* \"#utility.yul\":10481:10533   */\n      tag_86\n      jump\t// in\n    tag_212:\n        /* \"#utility.yul\":10549:10633   */\n      tag_213\n        /* \"#utility.yul\":10626:10632   */\n      dup2\n        /* \"#utility.yul\":10621:10624   */\n      dup5\n        /* \"#utility.yul\":10549:10633   */\n      tag_87\n      jump\t// in\n    tag_213:\n        /* \"#utility.yul\":10542:10633   */\n      swap3\n      pop\n        /* \"#utility.yul\":10657:10711   */\n      tag_214\n        /* \"#utility.yul\":10705:10710   */\n      dup3\n        /* \"#utility.yul\":10657:10711   */\n      tag_88\n      jump\t// in\n    tag_214:\n        /* \"#utility.yul\":10734:10741   */\n      dup1\n        /* \"#utility.yul\":10765:10766   */\n      0x00\n        /* \"#utility.yul\":10750:11032   */\n    tag_215:\n        /* \"#utility.yul\":10775:10781   */\n      dup4\n        /* \"#utility.yul\":10772:10773   */\n      dup2\n        /* \"#utility.yul\":10769:10782   */\n      lt\n        /* \"#utility.yul\":10750:11032   */\n      iszero\n      tag_217\n      jumpi\n        /* \"#utility.yul\":10851:10857   */\n      dup2\n        /* \"#utility.yul\":10845:10858   */\n      mload\n        /* \"#utility.yul\":10878:10941   */\n      tag_218\n        /* \"#utility.yul\":10937:10940   */\n      dup8\n        /* \"#utility.yul\":10922:10935   */\n      dup3\n        /* \"#utility.yul\":10878:10941   */\n      tag_90\n      jump\t// in\n    tag_218:\n        /* \"#utility.yul\":10871:10941   */\n      swap7\n      pop\n        /* \"#utility.yul\":10964:11022   */\n      tag_219\n        /* \"#utility.yul\":11015:11021   */\n      dup4\n        /* \"#utility.yul\":10964:11022   */\n      tag_91\n      jump\t// in\n    tag_219:\n        /* \"#utility.yul\":10954:11022   */\n      swap3\n      pop\n        /* \"#utility.yul\":10810:11032   */\n      pop\n        /* \"#utility.yul\":10797:10798   */\n      0x01\n        /* \"#utility.yul\":10794:10795   */\n      dup2\n        /* \"#utility.yul\":10790:10799   */\n      add\n        /* \"#utility.yul\":10785:10799   */\n      swap1\n      pop\n        /* \"#utility.yul\":10750:11032   */\n      jump(tag_215)\n    tag_217:\n        /* \"#utility.yul\":10754:10768   */\n      pop\n        /* \"#utility.yul\":10457:11039   */\n      pop\n      pop\n      pop\n        /* \"#utility.yul\":10345:11039   */\n      pop\n      pop\n      jump\t// out\n        /* \"#utility.yul\":11045:11562   */\n    tag_49:\n        /* \"#utility.yul\":11258:11262   */\n      0x00\n        /* \"#utility.yul\":11296:11299   */\n      0xc0\n        /* \"#utility.yul\":11285:11294   */\n      dup3\n        /* \"#utility.yul\":11281:11300   */\n      add\n        /* \"#utility.yul\":11273:11300   */\n      swap1\n      pop\n        /* \"#utility.yul\":11310:11427   */\n      tag_221\n        /* \"#utility.yul\":11424:11425   */\n      0x00\n        /* \"#utility.yul\":11413:11422   */\n      dup4\n        /* \"#utility.yul\":11409:11426   */\n      add\n        /* \"#utility.yul\":11400:11406   */\n      dup6\n        /* \"#utility.yul\":11310:11427   */\n      tag_85\n      jump\t// in\n    tag_221:\n        /* \"#utility.yul\":11437:11555   */\n      tag_222\n        /* \"#utility.yul\":11551:11553   */\n      0x60\n        /* \"#utility.yul\":11540:11549   */\n      dup4\n        /* \"#utility.yul\":11536:11554   */\n      add\n        /* \"#utility.yul\":11527:11533   */\n      dup5\n        /* \"#utility.yul\":11437:11555   */\n      tag_92\n      jump\t// in\n    tag_222:\n        /* \"#utility.yul\":11045:11562   */\n      swap4\n      swap3\n      pop\n      pop\n      pop\n      jump\t// out\n\n    auxdata: 0xa264697066735822122073c017dc7014a001f29c42bac2a8c789254d0be50c3dc613ad739dee495b534964736f6c634300081a0033\n}\n",
				"bytecode": {
					"linkReferences": {},
					"object": "60c0604052731241676d45b1cb5b573b6258c4a838e149a1d19173ffffffffffffffffffffffffffffffffffffffff1660809073ffffffffffffffffffffffffffffffffffffffff168152507352c043c7120d7da35ffddf6c5c2359d503cee5f873ffffffffffffffffffffffffffffffffffffffff1660a09073ffffffffffffffffffffffffffffffffffffffff1681525034801561009d575f80fd5b5060805160a051610a0e6100d25f395f8181604b015261034e01525f818160da0152818161023a01526103120152610a0e5ff3fe608060405234801561000f575f80fd5b5060043610610029575f3560e01c80631192549f1461002d575b5f80fd5b610047600480360381019061004291906105b0565b610049565b005b7f000000000000000000000000000000000000000000000000000000000000000073ffffffffffffffffffffffffffffffffffffffff163373ffffffffffffffffffffffffffffffffffffffff16146100d7576040517f08c379a00000000000000000000000000000000000000000000000000000000081526004016100ce90610635565b60405180910390fd5b5f7f000000000000000000000000000000000000000000000000000000000000000073ffffffffffffffffffffffffffffffffffffffff166370a08231306040518263ffffffff1660e01b81526004016101319190610662565b602060405180830381865afa15801561014c573d5f803e3d5ffd5b505050506040513d601f19601f8201168201806040525081019061017091906106ae565b90505f81036101ab576040517f786e0a9900000000000000000000000000000000000000000000000000000000815260040160405180910390fd5b5f6040518060600160405280606484603a6101c69190610706565b6101d09190610774565b8152602001606484601d6101e49190610706565b6101ee9190610774565b815260200160648460096102029190610706565b61020c9190610774565b81525090505f60648360046102219190610706565b61022b9190610774565b90505f5b600381101561030f577f000000000000000000000000000000000000000000000000000000000000000073ffffffffffffffffffffffffffffffffffffffff1663a9059cbb868360038110610287576102866107a4565b5b602002015185846003811061029f5761029e6107a4565b5b60200201516040518363ffffffff1660e01b81526004016102c19291906107e0565b6020604051808303815f875af11580156102dd573d5f803e3d5ffd5b505050506040513d601f19601f82011682018060405250810190610301919061083c565b50808060010191505061022f565b507f000000000000000000000000000000000000000000000000000000000000000073ffffffffffffffffffffffffffffffffffffffff1663a9059cbb7f0000000000000000000000000000000000000000000000000000000000000000836040518363ffffffff1660e01b815260040161038b9291906107e0565b6020604051808303815f875af11580156103a7573d5f803e3d5ffd5b505050506040513d601f19601f820116820180604052508101906103cb919061083c565b507f6b6ef27261dfd975a881981cb28adc6afe7963673c859bce73d79e0e09be34b084836040516103fd9291906109b1565b60405180910390a150505050565b5f604051905090565b5f80fd5b5f80fd5b5f601f19601f8301169050919050565b7f4e487b71000000000000000000000000000000000000000000000000000000005f52604160045260245ffd5b6104628261041c565b810181811067ffffffffffffffff821117156104815761048061042c565b5b80604052505050565b5f61049361040b565b905061049f8282610459565b919050565b5f67ffffffffffffffff8211156104be576104bd61042c565b5b602082029050919050565b5f80fd5b5f73ffffffffffffffffffffffffffffffffffffffff82169050919050565b5f6104f6826104cd565b9050919050565b610506816104ec565b8114610510575f80fd5b50565b5f81359050610521816104fd565b92915050565b5f610539610534846104a4565b61048a565b90508060208402830185811115610553576105526104c9565b5b835b8181101561057c57806105688882610513565b845260208401935050602081019050610555565b5050509392505050565b5f82601f83011261059a57610599610418565b5b60036105a7848285610527565b91505092915050565b5f606082840312156105c5576105c4610414565b5b5f6105d284828501610586565b91505092915050565b5f82825260208201905092915050565b7f4f6e6c792061646d696e2077616c6c65742100000000000000000000000000005f82015250565b5f61061f6012836105db565b915061062a826105eb565b602082019050919050565b5f6020820190508181035f83015261064c81610613565b9050919050565b61065c816104ec565b82525050565b5f6020820190506106755f830184610653565b92915050565b5f819050919050565b61068d8161067b565b8114610697575f80fd5b50565b5f815190506106a881610684565b92915050565b5f602082840312156106c3576106c2610414565b5b5f6106d08482850161069a565b91505092915050565b7f4e487b71000000000000000000000000000000000000000000000000000000005f52601160045260245ffd5b5f6107108261067b565b915061071b8361067b565b92508282026107298161067b565b915082820484148315176107405761073f6106d9565b5b5092915050565b7f4e487b71000000000000000000000000000000000000000000000000000000005f52601260045260245ffd5b5f61077e8261067b565b91506107898361067b565b92508261079957610798610747565b5b828204905092915050565b7f4e487b71000000000000000000000000000000000000000000000000000000005f52603260045260245ffd5b6107da8161067b565b82525050565b5f6040820190506107f35f830185610653565b61080060208301846107d1565b9392505050565b5f8115159050919050565b61081b81610807565b8114610825575f80fd5b50565b5f8151905061083681610812565b92915050565b5f6020828403121561085157610850610414565b5b5f61085e84828501610828565b91505092915050565b5f60039050919050565b5f81905092915050565b5f819050919050565b61088d816104ec565b82525050565b5f61089e8383610884565b60208301905092915050565b5f602082019050919050565b6108bf81610867565b6108c98184610871565b92506108d48261087b565b805f5b838110156109045781516108eb8782610893565b96506108f6836108aa565b9250506001810190506108d7565b505050505050565b5f60039050919050565b5f81905092915050565b5f819050919050565b6109328161067b565b82525050565b5f6109438383610929565b60208301905092915050565b5f602082019050919050565b6109648161090c565b61096e8184610916565b925061097982610920565b805f5b838110156109a95781516109908782610938565b965061099b8361094f565b92505060018101905061097c565b505050505050565b5f60c0820190506109c45f8301856108b6565b6109d1606083018461095b565b939250505056fea264697066735822122073c017dc7014a001f29c42bac2a8c789254d0be50c3dc613ad739dee495b534964736f6c634300081a0033",
					"opcodes": "PUSH1 0xC0 PUSH1 0x40 MSTORE PUSH20 0x1241676D45B1CB5B573B6258C4A838E149A1D191 PUSH20 0xFFFFFFFFFFFFFFFFFFFFFFFFFFFFFFFFFFFFFFFF AND PUSH1 0x80 SWAP1 PUSH20 0xFFFFFFFFFFFFFFFFFFFFFFFFFFFFFFFFFFFFFFFF AND DUP2 MSTORE POP PUSH20 0x52C043C7120D7DA35FFDDF6C5C2359D503CEE5F8 PUSH20 0xFFFFFFFFFFFFFFFFFFFFFFFFFFFFFFFFFFFFFFFF AND PUSH1 0xA0 SWAP1 PUSH20 0xFFFFFFFFFFFFFFFFFFFFFFFFFFFFFFFFFFFFFFFF AND DUP2 MSTORE POP CALLVALUE DUP1 ISZERO PUSH2 0x9D JUMPI PUSH0 DUP1 REVERT JUMPDEST POP PUSH1 0x80 MLOAD PUSH1 0xA0 MLOAD PUSH2 0xA0E PUSH2 0xD2 PUSH0 CODECOPY PUSH0 DUP2 DUP2 PUSH1 0x4B ADD MSTORE PUSH2 0x34E ADD MSTORE PUSH0 DUP2 DUP2 PUSH1 0xDA ADD MSTORE DUP2 DUP2 PUSH2 0x23A ADD MSTORE PUSH2 0x312 ADD MSTORE PUSH2 0xA0E PUSH0 RETURN INVALID PUSH1 0x80 PUSH1 0x40 MSTORE CALLVALUE DUP1 ISZERO PUSH2 0xF JUMPI PUSH0 DUP1 REVERT JUMPDEST POP PUSH1 0x4 CALLDATASIZE LT PUSH2 0x29 JUMPI PUSH0 CALLDATALOAD PUSH1 0xE0 SHR DUP1 PUSH4 0x1192549F EQ PUSH2 0x2D JUMPI JUMPDEST PUSH0 DUP1 REVERT JUMPDEST PUSH2 0x47 PUSH1 0x4 DUP1 CALLDATASIZE SUB DUP2 ADD SWAP1 PUSH2 0x42 SWAP2 SWAP1 PUSH2 0x5B0 JUMP JUMPDEST PUSH2 0x49 JUMP JUMPDEST STOP JUMPDEST PUSH32 0x0 PUSH20 0xFFFFFFFFFFFFFFFFFFFFFFFFFFFFFFFFFFFFFFFF AND CALLER PUSH20 0xFFFFFFFFFFFFFFFFFFFFFFFFFFFFFFFFFFFFFFFF AND EQ PUSH2 0xD7 JUMPI PUSH1 0x40 MLOAD PUSH32 0x8C379A000000000000000000000000000000000000000000000000000000000 DUP2 MSTORE PUSH1 0x4 ADD PUSH2 0xCE SWAP1 PUSH2 0x635 JUMP JUMPDEST PUSH1 0x40 MLOAD DUP1 SWAP2 SUB SWAP1 REVERT JUMPDEST PUSH0 PUSH32 0x0 PUSH20 0xFFFFFFFFFFFFFFFFFFFFFFFFFFFFFFFFFFFFFFFF AND PUSH4 0x70A08231 ADDRESS PUSH1 0x40 MLOAD DUP3 PUSH4 0xFFFFFFFF AND PUSH1 0xE0 SHL DUP2 MSTORE PUSH1 0x4 ADD PUSH2 0x131 SWAP2 SWAP1 PUSH2 0x662 JUMP JUMPDEST PUSH1 0x20 PUSH1 0x40 MLOAD DUP1 DUP4 SUB DUP2 DUP7 GAS STATICCALL ISZERO DUP1 ISZERO PUSH2 0x14C JUMPI RETURNDATASIZE PUSH0 DUP1 RETURNDATACOPY RETURNDATASIZE PUSH0 REVERT JUMPDEST POP POP POP POP PUSH1 0x40 MLOAD RETURNDATASIZE PUSH1 0x1F NOT PUSH1 0x1F DUP3 ADD AND DUP3 ADD DUP1 PUSH1 0x40 MSTORE POP DUP2 ADD SWAP1 PUSH2 0x170 SWAP2 SWAP1 PUSH2 0x6AE JUMP JUMPDEST SWAP1 POP PUSH0 DUP2 SUB PUSH2 0x1AB JUMPI PUSH1 0x40 MLOAD PUSH32 0x786E0A9900000000000000000000000000000000000000000000000000000000 DUP2 MSTORE PUSH1 0x4 ADD PUSH1 0x40 MLOAD DUP1 SWAP2 SUB SWAP1 REVERT JUMPDEST PUSH0 PUSH1 0x40 MLOAD DUP1 PUSH1 0x60 ADD PUSH1 0x40 MSTORE DUP1 PUSH1 0x64 DUP5 PUSH1 0x3A PUSH2 0x1C6 SWAP2 SWAP1 PUSH2 0x706 JUMP JUMPDEST PUSH2 0x1D0 SWAP2 SWAP1 PUSH2 0x774 JUMP JUMPDEST DUP2 MSTORE PUSH1 0x20 ADD PUSH1 0x64 DUP5 PUSH1 0x1D PUSH2 0x1E4 SWAP2 SWAP1 PUSH2 0x706 JUMP JUMPDEST PUSH2 0x1EE SWAP2 SWAP1 PUSH2 0x774 JUMP JUMPDEST DUP2 MSTORE PUSH1 0x20 ADD PUSH1 0x64 DUP5 PUSH1 0x9 PUSH2 0x202 SWAP2 SWAP1 PUSH2 0x706 JUMP JUMPDEST PUSH2 0x20C SWAP2 SWAP1 PUSH2 0x774 JUMP JUMPDEST DUP2 MSTORE POP SWAP1 POP PUSH0 PUSH1 0x64 DUP4 PUSH1 0x4 PUSH2 0x221 SWAP2 SWAP1 PUSH2 0x706 JUMP JUMPDEST PUSH2 0x22B SWAP2 SWAP1 PUSH2 0x774 JUMP JUMPDEST SWAP1 POP PUSH0 JUMPDEST PUSH1 0x3 DUP2 LT ISZERO PUSH2 0x30F JUMPI PUSH32 0x0 PUSH20 0xFFFFFFFFFFFFFFFFFFFFFFFFFFFFFFFFFFFFFFFF AND PUSH4 0xA9059CBB DUP7 DUP4 PUSH1 0x3 DUP2 LT PUSH2 0x287 JUMPI PUSH2 0x286 PUSH2 0x7A4 JUMP JUMPDEST JUMPDEST PUSH1 0x20 MUL ADD MLOAD DUP6 DUP5 PUSH1 0x3 DUP2 LT PUSH2 0x29F JUMPI PUSH2 0x29E PUSH2 0x7A4 JUMP JUMPDEST JUMPDEST PUSH1 0x20 MUL ADD MLOAD PUSH1 0x40 MLOAD DUP4 PUSH4 0xFFFFFFFF AND PUSH1 0xE0 SHL DUP2 MSTORE PUSH1 0x4 ADD PUSH2 0x2C1 SWAP3 SWAP2 SWAP1 PUSH2 0x7E0 JUMP JUMPDEST PUSH1 0x20 PUSH1 0x40 MLOAD DUP1 DUP4 SUB DUP2 PUSH0 DUP8 GAS CALL ISZERO DUP1 ISZERO PUSH2 0x2DD JUMPI RETURNDATASIZE PUSH0 DUP1 RETURNDATACOPY RETURNDATASIZE PUSH0 REVERT JUMPDEST POP POP POP POP PUSH1 0x40 MLOAD RETURNDATASIZE PUSH1 0x1F NOT PUSH1 0x1F DUP3 ADD AND DUP3 ADD DUP1 PUSH1 0x40 MSTORE POP DUP2 ADD SWAP1 PUSH2 0x301 SWAP2 SWAP1 PUSH2 0x83C JUMP JUMPDEST POP DUP1 DUP1 PUSH1 0x1 ADD SWAP2 POP POP PUSH2 0x22F JUMP JUMPDEST POP PUSH32 0x0 PUSH20 0xFFFFFFFFFFFFFFFFFFFFFFFFFFFFFFFFFFFFFFFF AND PUSH4 0xA9059CBB PUSH32 0x0 DUP4 PUSH1 0x40 MLOAD DUP4 PUSH4 0xFFFFFFFF AND PUSH1 0xE0 SHL DUP2 MSTORE PUSH1 0x4 ADD PUSH2 0x38B SWAP3 SWAP2 SWAP1 PUSH2 0x7E0 JUMP JUMPDEST PUSH1 0x20 PUSH1 0x40 MLOAD DUP1 DUP4 SUB DUP2 PUSH0 DUP8 GAS CALL ISZERO DUP1 ISZERO PUSH2 0x3A7 JUMPI RETURNDATASIZE PUSH0 DUP1 RETURNDATACOPY RETURNDATASIZE PUSH0 REVERT JUMPDEST POP POP POP POP PUSH1 0x40 MLOAD RETURNDATASIZE PUSH1 0x1F NOT PUSH1 0x1F DUP3 ADD AND DUP3 ADD DUP1 PUSH1 0x40 MSTORE POP DUP2 ADD SWAP1 PUSH2 0x3CB SWAP2 SWAP1 PUSH2 0x83C JUMP JUMPDEST POP PUSH32 0x6B6EF27261DFD975A881981CB28ADC6AFE7963673C859BCE73D79E0E09BE34B0 DUP5 DUP4 PUSH1 0x40 MLOAD PUSH2 0x3FD SWAP3 SWAP2 SWAP1 PUSH2 0x9B1 JUMP JUMPDEST PUSH1 0x40 MLOAD DUP1 SWAP2 SUB SWAP1 LOG1 POP POP POP POP JUMP JUMPDEST PUSH0 PUSH1 0x40 MLOAD SWAP1 POP SWAP1 JUMP JUMPDEST PUSH0 DUP1 REVERT JUMPDEST PUSH0 DUP1 REVERT JUMPDEST PUSH0 PUSH1 0x1F NOT PUSH1 0x1F DUP4 ADD AND SWAP1 POP SWAP2 SWAP1 POP JUMP JUMPDEST PUSH32 0x4E487B7100000000000000000000000000000000000000000000000000000000 PUSH0 MSTORE PUSH1 0x41 PUSH1 0x4 MSTORE PUSH1 0x24 PUSH0 REVERT JUMPDEST PUSH2 0x462 DUP3 PUSH2 0x41C JUMP JUMPDEST DUP2 ADD DUP2 DUP2 LT PUSH8 0xFFFFFFFFFFFFFFFF DUP3 GT OR ISZERO PUSH2 0x481 JUMPI PUSH2 0x480 PUSH2 0x42C JUMP JUMPDEST JUMPDEST DUP1 PUSH1 0x40 MSTORE POP POP POP JUMP JUMPDEST PUSH0 PUSH2 0x493 PUSH2 0x40B JUMP JUMPDEST SWAP1 POP PUSH2 0x49F DUP3 DUP3 PUSH2 0x459 JUMP JUMPDEST SWAP2 SWAP1 POP JUMP JUMPDEST PUSH0 PUSH8 0xFFFFFFFFFFFFFFFF DUP3 GT ISZERO PUSH2 0x4BE JUMPI PUSH2 0x4BD PUSH2 0x42C JUMP JUMPDEST JUMPDEST PUSH1 0x20 DUP3 MUL SWAP1 POP SWAP2 SWAP1 POP JUMP JUMPDEST PUSH0 DUP1 REVERT JUMPDEST PUSH0 PUSH20 0xFFFFFFFFFFFFFFFFFFFFFFFFFFFFFFFFFFFFFFFF DUP3 AND SWAP1 POP SWAP2 SWAP1 POP JUMP JUMPDEST PUSH0 PUSH2 0x4F6 DUP3 PUSH2 0x4CD JUMP JUMPDEST SWAP1 POP SWAP2 SWAP1 POP JUMP JUMPDEST PUSH2 0x506 DUP2 PUSH2 0x4EC JUMP JUMPDEST DUP2 EQ PUSH2 0x510 JUMPI PUSH0 DUP1 REVERT JUMPDEST POP JUMP JUMPDEST PUSH0 DUP2 CALLDATALOAD SWAP1 POP PUSH2 0x521 DUP2 PUSH2 0x4FD JUMP JUMPDEST SWAP3 SWAP2 POP POP JUMP JUMPDEST PUSH0 PUSH2 0x539 PUSH2 0x534 DUP5 PUSH2 0x4A4 JUMP JUMPDEST PUSH2 0x48A JUMP JUMPDEST SWAP1 POP DUP1 PUSH1 0x20 DUP5 MUL DUP4 ADD DUP6 DUP2 GT ISZERO PUSH2 0x553 JUMPI PUSH2 0x552 PUSH2 0x4C9 JUMP JUMPDEST JUMPDEST DUP4 JUMPDEST DUP2 DUP2 LT ISZERO PUSH2 0x57C JUMPI DUP1 PUSH2 0x568 DUP9 DUP3 PUSH2 0x513 JUMP JUMPDEST DUP5 MSTORE PUSH1 0x20 DUP5 ADD SWAP4 POP POP PUSH1 0x20 DUP2 ADD SWAP1 POP PUSH2 0x555 JUMP JUMPDEST POP POP POP SWAP4 SWAP3 POP POP POP JUMP JUMPDEST PUSH0 DUP3 PUSH1 0x1F DUP4 ADD SLT PUSH2 0x59A JUMPI PUSH2 0x599 PUSH2 0x418 JUMP JUMPDEST JUMPDEST PUSH1 0x3 PUSH2 0x5A7 DUP5 DUP3 DUP6 PUSH2 0x527 JUMP JUMPDEST SWAP2 POP POP SWAP3 SWAP2 POP POP JUMP JUMPDEST PUSH0 PUSH1 0x60 DUP3 DUP5 SUB SLT ISZERO PUSH2 0x5C5 JUMPI PUSH2 0x5C4 PUSH2 0x414 JUMP JUMPDEST JUMPDEST PUSH0 PUSH2 0x5D2 DUP5 DUP3 DUP6 ADD PUSH2 0x586 JUMP JUMPDEST SWAP2 POP POP SWAP3 SWAP2 POP POP JUMP JUMPDEST PUSH0 DUP3 DUP3 MSTORE PUSH1 0x20 DUP3 ADD SWAP1 POP SWAP3 SWAP2 POP POP JUMP JUMPDEST PUSH32 0x4F6E6C792061646D696E2077616C6C6574210000000000000000000000000000 PUSH0 DUP3 ADD MSTORE POP JUMP JUMPDEST PUSH0 PUSH2 0x61F PUSH1 0x12 DUP4 PUSH2 0x5DB JUMP JUMPDEST SWAP2 POP PUSH2 0x62A DUP3 PUSH2 0x5EB JUMP JUMPDEST PUSH1 0x20 DUP3 ADD SWAP1 POP SWAP2 SWAP1 POP JUMP JUMPDEST PUSH0 PUSH1 0x20 DUP3 ADD SWAP1 POP DUP2 DUP2 SUB PUSH0 DUP4 ADD MSTORE PUSH2 0x64C DUP2 PUSH2 0x613 JUMP JUMPDEST SWAP1 POP SWAP2 SWAP1 POP JUMP JUMPDEST PUSH2 0x65C DUP2 PUSH2 0x4EC JUMP JUMPDEST DUP3 MSTORE POP POP JUMP JUMPDEST PUSH0 PUSH1 0x20 DUP3 ADD SWAP1 POP PUSH2 0x675 PUSH0 DUP4 ADD DUP5 PUSH2 0x653 JUMP JUMPDEST SWAP3 SWAP2 POP POP JUMP JUMPDEST PUSH0 DUP2 SWAP1 POP SWAP2 SWAP1 POP JUMP JUMPDEST PUSH2 0x68D DUP2 PUSH2 0x67B JUMP JUMPDEST DUP2 EQ PUSH2 0x697 JUMPI PUSH0 DUP1 REVERT JUMPDEST POP JUMP JUMPDEST PUSH0 DUP2 MLOAD SWAP1 POP PUSH2 0x6A8 DUP2 PUSH2 0x684 JUMP JUMPDEST SWAP3 SWAP2 POP POP JUMP JUMPDEST PUSH0 PUSH1 0x20 DUP3 DUP5 SUB SLT ISZERO PUSH2 0x6C3 JUMPI PUSH2 0x6C2 PUSH2 0x414 JUMP JUMPDEST JUMPDEST PUSH0 PUSH2 0x6D0 DUP5 DUP3 DUP6 ADD PUSH2 0x69A JUMP JUMPDEST SWAP2 POP POP SWAP3 SWAP2 POP POP JUMP JUMPDEST PUSH32 0x4E487B7100000000000000000000000000000000000000000000000000000000 PUSH0 MSTORE PUSH1 0x11 PUSH1 0x4 MSTORE PUSH1 0x24 PUSH0 REVERT JUMPDEST PUSH0 PUSH2 0x710 DUP3 PUSH2 0x67B JUMP JUMPDEST SWAP2 POP PUSH2 0x71B DUP4 PUSH2 0x67B JUMP JUMPDEST SWAP3 POP DUP3 DUP3 MUL PUSH2 0x729 DUP2 PUSH2 0x67B JUMP JUMPDEST SWAP2 POP DUP3 DUP3 DIV DUP5 EQ DUP4 ISZERO OR PUSH2 0x740 JUMPI PUSH2 0x73F PUSH2 0x6D9 JUMP JUMPDEST JUMPDEST POP SWAP3 SWAP2 POP POP JUMP JUMPDEST PUSH32 0x4E487B7100000000000000000000000000000000000000000000000000000000 PUSH0 MSTORE PUSH1 0x12 PUSH1 0x4 MSTORE PUSH1 0x24 PUSH0 REVERT JUMPDEST PUSH0 PUSH2 0x77E DUP3 PUSH2 0x67B JUMP JUMPDEST SWAP2 POP PUSH2 0x789 DUP4 PUSH2 0x67B JUMP JUMPDEST SWAP3 POP DUP3 PUSH2 0x799 JUMPI PUSH2 0x798 PUSH2 0x747 JUMP JUMPDEST JUMPDEST DUP3 DUP3 DIV SWAP1 POP SWAP3 SWAP2 POP POP JUMP JUMPDEST PUSH32 0x4E487B7100000000000000000000000000000000000000000000000000000000 PUSH0 MSTORE PUSH1 0x32 PUSH1 0x4 MSTORE PUSH1 0x24 PUSH0 REVERT JUMPDEST PUSH2 0x7DA DUP2 PUSH2 0x67B JUMP JUMPDEST DUP3 MSTORE POP POP JUMP JUMPDEST PUSH0 PUSH1 0x40 DUP3 ADD SWAP1 POP PUSH2 0x7F3 PUSH0 DUP4 ADD DUP6 PUSH2 0x653 JUMP JUMPDEST PUSH2 0x800 PUSH1 0x20 DUP4 ADD DUP5 PUSH2 0x7D1 JUMP JUMPDEST SWAP4 SWAP3 POP POP POP JUMP JUMPDEST PUSH0 DUP2 ISZERO ISZERO SWAP1 POP SWAP2 SWAP1 POP JUMP JUMPDEST PUSH2 0x81B DUP2 PUSH2 0x807 JUMP JUMPDEST DUP2 EQ PUSH2 0x825 JUMPI PUSH0 DUP1 REVERT JUMPDEST POP JUMP JUMPDEST PUSH0 DUP2 MLOAD SWAP1 POP PUSH2 0x836 DUP2 PUSH2 0x812 JUMP JUMPDEST SWAP3 SWAP2 POP POP JUMP JUMPDEST PUSH0 PUSH1 0x20 DUP3 DUP5 SUB SLT ISZERO PUSH2 0x851 JUMPI PUSH2 0x850 PUSH2 0x414 JUMP JUMPDEST JUMPDEST PUSH0 PUSH2 0x85E DUP5 DUP3 DUP6 ADD PUSH2 0x828 JUMP JUMPDEST SWAP2 POP POP SWAP3 SWAP2 POP POP JUMP JUMPDEST PUSH0 PUSH1 0x3 SWAP1 POP SWAP2 SWAP1 POP JUMP JUMPDEST PUSH0 DUP2 SWAP1 POP SWAP3 SWAP2 POP POP JUMP JUMPDEST PUSH0 DUP2 SWAP1 POP SWAP2 SWAP1 POP JUMP JUMPDEST PUSH2 0x88D DUP2 PUSH2 0x4EC JUMP JUMPDEST DUP3 MSTORE POP POP JUMP JUMPDEST PUSH0 PUSH2 0x89E DUP4 DUP4 PUSH2 0x884 JUMP JUMPDEST PUSH1 0x20 DUP4 ADD SWAP1 POP SWAP3 SWAP2 POP POP JUMP JUMPDEST PUSH0 PUSH1 0x20 DUP3 ADD SWAP1 POP SWAP2 SWAP1 POP JUMP JUMPDEST PUSH2 0x8BF DUP2 PUSH2 0x867 JUMP JUMPDEST PUSH2 0x8C9 DUP2 DUP5 PUSH2 0x871 JUMP JUMPDEST SWAP3 POP PUSH2 0x8D4 DUP3 PUSH2 0x87B JUMP JUMPDEST DUP1 PUSH0 JUMPDEST DUP4 DUP2 LT ISZERO PUSH2 0x904 JUMPI DUP2 MLOAD PUSH2 0x8EB DUP8 DUP3 PUSH2 0x893 JUMP JUMPDEST SWAP7 POP PUSH2 0x8F6 DUP4 PUSH2 0x8AA JUMP JUMPDEST SWAP3 POP POP PUSH1 0x1 DUP2 ADD SWAP1 POP PUSH2 0x8D7 JUMP JUMPDEST POP POP POP POP POP POP JUMP JUMPDEST PUSH0 PUSH1 0x3 SWAP1 POP SWAP2 SWAP1 POP JUMP JUMPDEST PUSH0 DUP2 SWAP1 POP SWAP3 SWAP2 POP POP JUMP JUMPDEST PUSH0 DUP2 SWAP1 POP SWAP2 SWAP1 POP JUMP JUMPDEST PUSH2 0x932 DUP2 PUSH2 0x67B JUMP JUMPDEST DUP3 MSTORE POP POP JUMP JUMPDEST PUSH0 PUSH2 0x943 DUP4 DUP4 PUSH2 0x929 JUMP JUMPDEST PUSH1 0x20 DUP4 ADD SWAP1 POP SWAP3 SWAP2 POP POP JUMP JUMPDEST PUSH0 PUSH1 0x20 DUP3 ADD SWAP1 POP SWAP2 SWAP1 POP JUMP JUMPDEST PUSH2 0x964 DUP2 PUSH2 0x90C JUMP JUMPDEST PUSH2 0x96E DUP2 DUP5 PUSH2 0x916 JUMP JUMPDEST SWAP3 POP PUSH2 0x979 DUP3 PUSH2 0x920 JUMP JUMPDEST DUP1 PUSH0 JUMPDEST DUP4 DUP2 LT ISZERO PUSH2 0x9A9 JUMPI DUP2 MLOAD PUSH2 0x990 DUP8 DUP3 PUSH2 0x938 JUMP JUMPDEST SWAP7 POP PUSH2 0x99B DUP4 PUSH2 0x94F JUMP JUMPDEST SWAP3 POP POP PUSH1 0x1 DUP2 ADD SWAP1 POP PUSH2 0x97C JUMP JUMPDEST POP POP POP POP POP POP JUMP JUMPDEST PUSH0 PUSH1 0xC0 DUP3 ADD SWAP1 POP PUSH2 0x9C4 PUSH0 DUP4 ADD DUP6 PUSH2 0x8B6 JUMP JUMPDEST PUSH2 0x9D1 PUSH1 0x60 DUP4 ADD DUP5 PUSH2 0x95B JUMP JUMPDEST SWAP4 SWAP3 POP POP POP JUMP INVALID LOG2 PUSH5 0x6970667358 0x22 SLT KECCAK256 PUSH20 0xC017DC7014A001F29C42BAC2A8C789254D0BE50C RETURNDATASIZE 0xC6 SGT 0xAD PUSH20 0x9DEE495B534964736F6C634300081A0033000000 "
				},
				"gasEstimates": {
					"creation": {
						"codeDepositCost": "514800",
						"executionCost": "infinite",
						"totalCost": "infinite"
					},
					"external": {
						"sndRewards(address[3])": "infinite"
					}
				},
				"methodIdentifiers": {
					"sndRewards(address[3])": "1192549f"
				}
			},
			"storageLayout": {
				"storage": [],
				"types": null
			},
			"userdoc": {
				"kind": "user",
				"methods": {},
				"version": 1
			}
		}
	}
}