{
	"contracts/EmStorage.sol": {
		"EmployeeStorage": {
			"abi": [
				{
					"inputs": [
						{
							"internalType": "uint16",
							"name": "_shares",
							"type": "uint16"
						},
						{
							"internalType": "string",
							"name": "_name",
							"type": "string"
						},
						{
							"internalType": "uint32",
							"name": "_salary",
							"type": "uint32"
						},
						{
							"internalType": "uint256",
							"name": "_idNumber",
							"type": "uint256"
						}
					],
					"stateMutability": "nonpayable",
					"type": "constructor"
				},
				{
					"inputs": [
						{
							"internalType": "uint256",
							"name": "total",
							"type": "uint256"
						}
					],
					"name": "TooManyShares",
					"type": "error"
				},
				{
					"inputs": [
						{
							"internalType": "uint256",
							"name": "_slot",
							"type": "uint256"
						}
					],
					"name": "checkForPacking",
					"outputs": [
						{
							"internalType": "uint256",
							"name": "r",
							"type": "uint256"
						}
					],
					"stateMutability": "view",
					"type": "function"
				},
				{
					"inputs": [],
					"name": "debugResetShares",
					"outputs": [],
					"stateMutability": "nonpayable",
					"type": "function"
				},
				{
					"inputs": [
						{
							"internalType": "uint16",
							"name": "_newShares",
							"type": "uint16"
						}
					],
					"name": "grantShares",
					"outputs": [],
					"stateMutability": "nonpayable",
					"type": "function"
				},
				{
					"inputs": [],
					"name": "idNumber",
					"outputs": [
						{
							"internalType": "uint256",
							"name": "",
							"type": "uint256"
						}
					],
					"stateMutability": "view",
					"type": "function"
				},
				{
					"inputs": [],
					"name": "name",
					"outputs": [
						{
							"internalType": "string",
							"name": "",
							"type": "string"
						}
					],
					"stateMutability": "view",
					"type": "function"
				},
				{
					"inputs": [],
					"name": "viewSalary",
					"outputs": [
						{
							"internalType": "uint32",
							"name": "",
							"type": "uint32"
						}
					],
					"stateMutability": "view",
					"type": "function"
				},
				{
					"inputs": [],
					"name": "viewShares",
					"outputs": [
						{
							"internalType": "uint16",
							"name": "",
							"type": "uint16"
						}
					],
					"stateMutability": "view",
					"type": "function"
				}
			],
			"devdoc": {
				"kind": "dev",
				"methods": {},
				"version": 1
			},
			"evm": {
				"assembly": "    /* \"contracts/EmStorage.sol\":57:1040  contract EmployeeStorage{... */\n  mstore(0x40, 0x80)\n    /* \"contracts/EmStorage.sol\":191:405  constructor(uint16 _shares, string memory _name, uint32 _salary, uint _idNumber){... */\n  callvalue\n  dup1\n  iszero\n  tag_1\n  jumpi\n  0x00\n  dup1\n  revert\ntag_1:\n  pop\n  mload(0x40)\n  sub(codesize, bytecodeSize)\n  dup1\n  bytecodeSize\n  dup4\n  codecopy\n  dup2\n  add\n  0x40\n  dup2\n  swap1\n  mstore\n  tag_2\n  swap2\n  tag_3\n  jump\t// in\ntag_2:\n    /* \"contracts/EmStorage.sol\":281:287  shares */\n  0x00\n    /* \"contracts/EmStorage.sol\":281:295  shares=_shares */\n  dup1\n  sload\n  not(0xffff)\n  and\n  0xffff\n  dup7\n  and\n  or\n  swap1\n  sstore\n    /* \"contracts/EmStorage.sol\":305:309  name */\n  0x02\n    /* \"contracts/EmStorage.sol\":305:315  name=_name */\n  tag_6\n    /* \"contracts/EmStorage.sol\":310:315  _name */\n  dup5\n    /* \"contracts/EmStorage.sol\":305:309  name */\n  dup3\n    /* \"contracts/EmStorage.sol\":305:315  name=_name */\n  tag_7\n  jump\t// in\ntag_6:\n  pop\n    /* \"contracts/EmStorage.sol\":325:331  salary */\n  0x00\n    /* \"contracts/EmStorage.sol\":325:339  salary=_salary */\n  dup1\n  sload\n  0xffffffff\n  swap1\n  swap4\n  and\n  0x010000\n  mul\n  not(0xffffffff0000)\n  swap1\n  swap4\n  and\n  swap3\n  swap1\n  swap3\n  or\n  swap1\n  swap2\n  sstore\n  0x01\n    /* \"contracts/EmStorage.sol\":349:367  idNumber=_idNumber */\n  sstore\n  pop\n    /* \"contracts/EmStorage.sol\":57:1040  contract EmployeeStorage{... */\n  tag_15\n  swap1\n  pop\n  jump\n    /* \"#utility.yul\":14:141   */\ntag_9:\n    /* \"#utility.yul\":75:85   */\n  0x4e487b71\n    /* \"#utility.yul\":70:73   */\n  0xe0\n    /* \"#utility.yul\":66:86   */\n  shl\n    /* \"#utility.yul\":63:64   */\n  0x00\n    /* \"#utility.yul\":56:87   */\n  mstore\n    /* \"#utility.yul\":106:110   */\n  0x41\n    /* \"#utility.yul\":103:104   */\n  0x04\n    /* \"#utility.yul\":96:111   */\n  mstore\n    /* \"#utility.yul\":130:134   */\n  0x24\n    /* \"#utility.yul\":127:128   */\n  0x00\n    /* \"#utility.yul\":120:135   */\n  revert\n    /* \"#utility.yul\":146:313   */\ntag_10:\n    /* \"#utility.yul\":224:237   */\n  dup1\n  mload\n    /* \"#utility.yul\":277:287   */\n  0xffffffff\n    /* \"#utility.yul\":266:288   */\n  dup2\n  and\n    /* \"#utility.yul\":256:289   */\n  dup2\n  eq\n    /* \"#utility.yul\":246:307   */\n  tag_18\n  jumpi\n    /* \"#utility.yul\":303:304   */\n  0x00\n    /* \"#utility.yul\":300:301   */\n  dup1\n    /* \"#utility.yul\":293:305   */\n  revert\n    /* \"#utility.yul\":246:307   */\ntag_18:\n    /* \"#utility.yul\":146:313   */\n  swap2\n  swap1\n  pop\n  jump\t// out\n    /* \"#utility.yul\":318:1603   */\ntag_3:\n    /* \"#utility.yul\":423:429   */\n  0x00\n    /* \"#utility.yul\":431:437   */\n  dup1\n    /* \"#utility.yul\":439:445   */\n  0x00\n    /* \"#utility.yul\":447:453   */\n  dup1\n    /* \"#utility.yul\":500:503   */\n  0x80\n    /* \"#utility.yul\":488:497   */\n  dup6\n    /* \"#utility.yul\":479:486   */\n  dup8\n    /* \"#utility.yul\":475:498   */\n  sub\n    /* \"#utility.yul\":471:504   */\n  slt\n    /* \"#utility.yul\":468:521   */\n  iszero\n  tag_20\n  jumpi\n    /* \"#utility.yul\":517:518   */\n  0x00\n    /* \"#utility.yul\":514:515   */\n  dup1\n    /* \"#utility.yul\":507:519   */\n  revert\n    /* \"#utility.yul\":468:521   */\ntag_20:\n    /* \"#utility.yul\":549:558   */\n  dup5\n    /* \"#utility.yul\":543:559   */\n  mload\n    /* \"#utility.yul\":599:605   */\n  0xffff\n    /* \"#utility.yul\":592:597   */\n  dup2\n    /* \"#utility.yul\":588:606   */\n  and\n    /* \"#utility.yul\":581:586   */\n  dup2\n    /* \"#utility.yul\":578:607   */\n  eq\n    /* \"#utility.yul\":568:625   */\n  tag_21\n  jumpi\n    /* \"#utility.yul\":621:622   */\n  0x00\n    /* \"#utility.yul\":618:619   */\n  dup1\n    /* \"#utility.yul\":611:623   */\n  revert\n    /* \"#utility.yul\":568:625   */\ntag_21:\n    /* \"#utility.yul\":693:695   */\n  0x20\n    /* \"#utility.yul\":678:696   */\n  dup7\n  add\n    /* \"#utility.yul\":672:697   */\n  mload\n    /* \"#utility.yul\":644:649   */\n  swap1\n  swap5\n  pop\n  sub(shl(0x40, 0x01), 0x01)\n    /* \"#utility.yul\":709:739   */\n  dup2\n  gt\n    /* \"#utility.yul\":706:756   */\n  iszero\n  tag_22\n  jumpi\n    /* \"#utility.yul\":752:753   */\n  0x00\n    /* \"#utility.yul\":749:750   */\n  dup1\n    /* \"#utility.yul\":742:754   */\n  revert\n    /* \"#utility.yul\":706:756   */\ntag_22:\n    /* \"#utility.yul\":775:797   */\n  dup6\n  add\n    /* \"#utility.yul\":828:832   */\n  0x1f\n    /* \"#utility.yul\":820:833   */\n  dup2\n  add\n    /* \"#utility.yul\":816:843   */\n  dup8\n  sgt\n    /* \"#utility.yul\":806:861   */\n  tag_23\n  jumpi\n    /* \"#utility.yul\":857:858   */\n  0x00\n    /* \"#utility.yul\":854:855   */\n  dup1\n    /* \"#utility.yul\":847:859   */\n  revert\n    /* \"#utility.yul\":806:861   */\ntag_23:\n    /* \"#utility.yul\":884:893   */\n  dup1\n  mload\n  sub(shl(0x40, 0x01), 0x01)\n    /* \"#utility.yul\":905:935   */\n  dup2\n  gt\n    /* \"#utility.yul\":902:958   */\n  iszero\n  tag_25\n  jumpi\n    /* \"#utility.yul\":938:956   */\n  tag_25\n  tag_9\n  jump\t// in\ntag_25:\n    /* \"#utility.yul\":987:989   */\n  0x40\n    /* \"#utility.yul\":981:990   */\n  mload\n    /* \"#utility.yul\":1079:1081   */\n  0x1f\n    /* \"#utility.yul\":1041:1058   */\n  dup3\n  add\n  not(0x1f)\n    /* \"#utility.yul\":1037:1068   */\n  swap1\n  dup2\n  and\n    /* \"#utility.yul\":1070:1072   */\n  0x3f\n    /* \"#utility.yul\":1033:1073   */\n  add\n    /* \"#utility.yul\":1029:1083   */\n  and\n    /* \"#utility.yul\":1017:1084   */\n  dup2\n  add\n  sub(shl(0x40, 0x01), 0x01)\n    /* \"#utility.yul\":1099:1133   */\n  dup2\n  gt\n    /* \"#utility.yul\":1135:1157   */\n  dup3\n  dup3\n  lt\n    /* \"#utility.yul\":1096:1158   */\n  or\n    /* \"#utility.yul\":1093:1181   */\n  iszero\n  tag_27\n  jumpi\n    /* \"#utility.yul\":1161:1179   */\n  tag_27\n  tag_9\n  jump\t// in\ntag_27:\n    /* \"#utility.yul\":1197:1199   */\n  0x40\n    /* \"#utility.yul\":1190:1212   */\n  mstore\n    /* \"#utility.yul\":1221:1243   */\n  dup2\n  dup2\n  mstore\n    /* \"#utility.yul\":1262:1277   */\n  dup3\n  dup3\n  add\n    /* \"#utility.yul\":1279:1281   */\n  0x20\n    /* \"#utility.yul\":1258:1282   */\n  add\n    /* \"#utility.yul\":1255:1292   */\n  dup10\n  lt\n    /* \"#utility.yul\":1252:1309   */\n  iszero\n  tag_28\n  jumpi\n    /* \"#utility.yul\":1305:1306   */\n  0x00\n    /* \"#utility.yul\":1302:1303   */\n  dup1\n    /* \"#utility.yul\":1295:1307   */\n  revert\n    /* \"#utility.yul\":1252:1309   */\ntag_28:\n    /* \"#utility.yul\":1354:1360   */\n  dup2\n    /* \"#utility.yul\":1349:1351   */\n  0x20\n    /* \"#utility.yul\":1345:1347   */\n  dup5\n    /* \"#utility.yul\":1341:1352   */\n  add\n    /* \"#utility.yul\":1336:1338   */\n  0x20\n    /* \"#utility.yul\":1328:1334   */\n  dup4\n    /* \"#utility.yul\":1324:1339   */\n  add\n    /* \"#utility.yul\":1318:1361   */\n  mcopy\n    /* \"#utility.yul\":1407:1408   */\n  0x00\n    /* \"#utility.yul\":1402:1404   */\n  0x20\n    /* \"#utility.yul\":1393:1399   */\n  dup4\n    /* \"#utility.yul\":1385:1391   */\n  dup4\n    /* \"#utility.yul\":1381:1400   */\n  add\n    /* \"#utility.yul\":1377:1405   */\n  add\n    /* \"#utility.yul\":1370:1409   */\n  mstore\n    /* \"#utility.yul\":1428:1434   */\n  dup1\n    /* \"#utility.yul\":1418:1434   */\n  swap6\n  pop\n  pop\n  pop\n  pop\n    /* \"#utility.yul\":1453:1501   */\n  tag_29\n    /* \"#utility.yul\":1497:1499   */\n  0x40\n    /* \"#utility.yul\":1486:1495   */\n  dup7\n    /* \"#utility.yul\":1482:1500   */\n  add\n    /* \"#utility.yul\":1453:1501   */\n  tag_10\n  jump\t// in\ntag_29:\n    /* \"#utility.yul\":1567:1569   */\n  0x60\n    /* \"#utility.yul\":1552:1570   */\n  swap6\n  swap1\n  swap6\n  add\n    /* \"#utility.yul\":1546:1571   */\n  mload\n    /* \"#utility.yul\":318:1603   */\n  swap4\n  swap7\n  swap3\n  swap6\n  pop\n  pop\n  pop\n  jump\t// out\n    /* \"#utility.yul\":1608:1988   */\ntag_11:\n    /* \"#utility.yul\":1687:1688   */\n  0x01\n    /* \"#utility.yul\":1683:1695   */\n  dup2\n  dup2\n  shr\n  swap1\n    /* \"#utility.yul\":1730:1742   */\n  dup3\n  and\n  dup1\n    /* \"#utility.yul\":1751:1812   */\n  tag_31\n  jumpi\n    /* \"#utility.yul\":1805:1809   */\n  0x7f\n    /* \"#utility.yul\":1797:1803   */\n  dup3\n    /* \"#utility.yul\":1793:1810   */\n  and\n    /* \"#utility.yul\":1783:1810   */\n  swap2\n  pop\n    /* \"#utility.yul\":1751:1812   */\ntag_31:\n    /* \"#utility.yul\":1858:1860   */\n  0x20\n    /* \"#utility.yul\":1850:1856   */\n  dup3\n    /* \"#utility.yul\":1847:1861   */\n  lt\n    /* \"#utility.yul\":1827:1845   */\n  dup2\n    /* \"#utility.yul\":1824:1862   */\n  sub\n    /* \"#utility.yul\":1821:1982   */\n  tag_32\n  jumpi\n    /* \"#utility.yul\":1904:1914   */\n  0x4e487b71\n    /* \"#utility.yul\":1899:1902   */\n  0xe0\n    /* \"#utility.yul\":1895:1915   */\n  shl\n    /* \"#utility.yul\":1892:1893   */\n  0x00\n    /* \"#utility.yul\":1885:1916   */\n  mstore\n    /* \"#utility.yul\":1939:1943   */\n  0x22\n    /* \"#utility.yul\":1936:1937   */\n  0x04\n    /* \"#utility.yul\":1929:1944   */\n  mstore\n    /* \"#utility.yul\":1967:1971   */\n  0x24\n    /* \"#utility.yul\":1964:1965   */\n  0x00\n    /* \"#utility.yul\":1957:1972   */\n  revert\n    /* \"#utility.yul\":1821:1982   */\ntag_32:\n  pop\n    /* \"#utility.yul\":1608:1988   */\n  swap2\n  swap1\n  pop\n  jump\t// out\n    /* \"#utility.yul\":2119:2637   */\ntag_13:\n    /* \"#utility.yul\":2221:2223   */\n  0x1f\n    /* \"#utility.yul\":2216:2219   */\n  dup3\n    /* \"#utility.yul\":2213:2224   */\n  gt\n    /* \"#utility.yul\":2210:2631   */\n  iszero\n  tag_35\n  jumpi\n    /* \"#utility.yul\":2257:2262   */\n  dup1\n    /* \"#utility.yul\":2254:2255   */\n  0x00\n    /* \"#utility.yul\":2247:2263   */\n  mstore\n    /* \"#utility.yul\":2301:2305   */\n  0x20\n    /* \"#utility.yul\":2298:2299   */\n  0x00\n    /* \"#utility.yul\":2288:2306   */\n  keccak256\n    /* \"#utility.yul\":2371:2373   */\n  0x1f\n    /* \"#utility.yul\":2359:2369   */\n  dup5\n    /* \"#utility.yul\":2355:2374   */\n  add\n    /* \"#utility.yul\":2352:2353   */\n  0x05\n    /* \"#utility.yul\":2348:2375   */\n  shr\n    /* \"#utility.yul\":2342:2346   */\n  dup2\n    /* \"#utility.yul\":2338:2376   */\n  add\n    /* \"#utility.yul\":2407:2411   */\n  0x20\n    /* \"#utility.yul\":2395:2405   */\n  dup6\n    /* \"#utility.yul\":2392:2412   */\n  lt\n    /* \"#utility.yul\":2389:2436   */\n  iszero\n  tag_36\n  jumpi\n  pop\n    /* \"#utility.yul\":2430:2434   */\n  dup1\n    /* \"#utility.yul\":2389:2436   */\ntag_36:\n    /* \"#utility.yul\":2485:2487   */\n  0x1f\n    /* \"#utility.yul\":2480:2483   */\n  dup5\n    /* \"#utility.yul\":2476:2488   */\n  add\n    /* \"#utility.yul\":2473:2474   */\n  0x05\n    /* \"#utility.yul\":2469:2489   */\n  shr\n    /* \"#utility.yul\":2463:2467   */\n  dup3\n    /* \"#utility.yul\":2459:2490   */\n  add\n    /* \"#utility.yul\":2449:2490   */\n  swap2\n  pop\n    /* \"#utility.yul\":2540:2621   */\ntag_37:\n    /* \"#utility.yul\":2558:2560   */\n  dup2\n    /* \"#utility.yul\":2551:2556   */\n  dup2\n    /* \"#utility.yul\":2548:2561   */\n  lt\n    /* \"#utility.yul\":2540:2621   */\n  iszero\n  tag_39\n  jumpi\n    /* \"#utility.yul\":2617:2618   */\n  0x00\n    /* \"#utility.yul\":2603:2619   */\n  dup2\n  sstore\n    /* \"#utility.yul\":2584:2585   */\n  0x01\n    /* \"#utility.yul\":2573:2586   */\n  add\n    /* \"#utility.yul\":2540:2621   */\n  jump(tag_37)\ntag_39:\n    /* \"#utility.yul\":2544:2547   */\n  pop\n  pop\n    /* \"#utility.yul\":2210:2631   */\ntag_35:\n    /* \"#utility.yul\":2119:2637   */\n  pop\n  pop\n  pop\n  jump\t// out\n    /* \"#utility.yul\":2813:4112   */\ntag_7:\n    /* \"#utility.yul\":2933:2943   */\n  dup2\n  mload\n  sub(shl(0x40, 0x01), 0x01)\n    /* \"#utility.yul\":2955:2985   */\n  dup2\n  gt\n    /* \"#utility.yul\":2952:3008   */\n  iszero\n  tag_43\n  jumpi\n    /* \"#utility.yul\":2988:3006   */\n  tag_43\n  tag_9\n  jump\t// in\ntag_43:\n    /* \"#utility.yul\":3017:3114   */\n  tag_44\n    /* \"#utility.yul\":3107:3113   */\n  dup2\n    /* \"#utility.yul\":3067:3105   */\n  tag_45\n    /* \"#utility.yul\":3099:3103   */\n  dup5\n    /* \"#utility.yul\":3093:3104   */\n  sload\n    /* \"#utility.yul\":3067:3105   */\n  tag_11\n  jump\t// in\ntag_45:\n    /* \"#utility.yul\":3061:3065   */\n  dup5\n    /* \"#utility.yul\":3017:3114   */\n  tag_13\n  jump\t// in\ntag_44:\n    /* \"#utility.yul\":3163:3167   */\n  0x20\n    /* \"#utility.yul\":3194:3196   */\n  0x1f\n    /* \"#utility.yul\":3183:3197   */\n  dup3\n  gt\n    /* \"#utility.yul\":3211:3212   */\n  0x01\n    /* \"#utility.yul\":3206:3855   */\n  dup2\n  eq\n  tag_47\n  jumpi\n    /* \"#utility.yul\":3899:3900   */\n  0x00\n    /* \"#utility.yul\":3916:3922   */\n  dup4\n    /* \"#utility.yul\":3913:4002   */\n  iszero\n  tag_48\n  jumpi\n  pop\n    /* \"#utility.yul\":3968:3987   */\n  dup5\n  dup3\n  add\n    /* \"#utility.yul\":3962:3988   */\n  mload\n    /* \"#utility.yul\":3913:4002   */\ntag_48:\n  not(0x00)\n    /* \"#utility.yul\":2770:2771   */\n  0x03\n    /* \"#utility.yul\":2766:2777   */\n  dup6\n  swap1\n  shl\n    /* \"#utility.yul\":2762:2786   */\n  shr\n    /* \"#utility.yul\":2758:2787   */\n  not\n    /* \"#utility.yul\":2748:2788   */\n  and\n    /* \"#utility.yul\":2794:2795   */\n  0x01\n    /* \"#utility.yul\":2790:2801   */\n  dup5\n  swap1\n  shl\n    /* \"#utility.yul\":2745:2802   */\n  or\n    /* \"#utility.yul\":4015:4096   */\n  dup5\n  sstore\n    /* \"#utility.yul\":3176:4106   */\n  jump(tag_39)\n    /* \"#utility.yul\":3206:3855   */\ntag_47:\n    /* \"#utility.yul\":2066:2067   */\n  0x00\n    /* \"#utility.yul\":2059:2073   */\n  dup5\n  dup2\n  mstore\n    /* \"#utility.yul\":2103:2107   */\n  0x20\n    /* \"#utility.yul\":2090:2108   */\n  dup2\n  keccak256\n  not(0x1f)\n    /* \"#utility.yul\":3242:3262   */\n  dup6\n  and\n  swap2\n    /* \"#utility.yul\":3360:3582   */\ntag_51:\n    /* \"#utility.yul\":3374:3381   */\n  dup3\n    /* \"#utility.yul\":3371:3372   */\n  dup2\n    /* \"#utility.yul\":3368:3382   */\n  lt\n    /* \"#utility.yul\":3360:3582   */\n  iszero\n  tag_53\n  jumpi\n    /* \"#utility.yul\":3456:3475   */\n  dup8\n  dup6\n  add\n    /* \"#utility.yul\":3450:3476   */\n  mload\n    /* \"#utility.yul\":3435:3477   */\n  dup3\n  sstore\n    /* \"#utility.yul\":3563:3567   */\n  0x20\n    /* \"#utility.yul\":3548:3568   */\n  swap5\n  dup6\n  add\n  swap5\n    /* \"#utility.yul\":3516:3517   */\n  0x01\n    /* \"#utility.yul\":3504:3518   */\n  swap1\n  swap3\n  add\n  swap2\n    /* \"#utility.yul\":3390:3402   */\n  add\n    /* \"#utility.yul\":3360:3582   */\n  jump(tag_51)\ntag_53:\n    /* \"#utility.yul\":3364:3367   */\n  pop\n    /* \"#utility.yul\":3610:3616   */\n  dup5\n    /* \"#utility.yul\":3601:3608   */\n  dup3\n    /* \"#utility.yul\":3598:3617   */\n  lt\n    /* \"#utility.yul\":3595:3796   */\n  iszero\n  tag_54\n  jumpi\n    /* \"#utility.yul\":3671:3690   */\n  dup7\n  dup5\n  add\n    /* \"#utility.yul\":3665:3691   */\n  mload\n  not(0x00)\n    /* \"#utility.yul\":3754:3755   */\n  0x03\n    /* \"#utility.yul\":3750:3764   */\n  dup8\n  swap1\n  shl\n    /* \"#utility.yul\":3766:3769   */\n  0xf8\n    /* \"#utility.yul\":3746:3770   */\n  and\n    /* \"#utility.yul\":3742:3779   */\n  shr\n    /* \"#utility.yul\":3738:3780   */\n  not\n    /* \"#utility.yul\":3723:3781   */\n  and\n    /* \"#utility.yul\":3708:3782   */\n  dup2\n  sstore\n    /* \"#utility.yul\":3595:3796   */\ntag_54:\n  pop\n  pop\n  pop\n  pop\n    /* \"#utility.yul\":3842:3843   */\n  0x01\n    /* \"#utility.yul\":3826:3840   */\n  swap1\n  dup2\n  shl\n    /* \"#utility.yul\":3822:3844   */\n  add\n    /* \"#utility.yul\":3809:3845   */\n  swap1\n  sstore\n  pop\n    /* \"#utility.yul\":2813:4112   */\n  jump\t// out\ntag_15:\n    /* \"contracts/EmStorage.sol\":57:1040  contract EmployeeStorage{... */\n  dataSize(sub_0)\n  dup1\n  dataOffset(sub_0)\n  0x00\n  codecopy\n  0x00\n  return\nstop\n\nsub_0: assembly {\n        /* \"contracts/EmStorage.sol\":57:1040  contract EmployeeStorage{... */\n      mstore(0x40, 0x80)\n      callvalue\n      dup1\n      iszero\n      tag_1\n      jumpi\n      0x00\n      dup1\n      revert\n    tag_1:\n      pop\n      jumpi(tag_2, lt(calldatasize, 0x04))\n      shr(0xe0, calldataload(0x00))\n      dup1\n      0x4c764809\n      gt\n      tag_10\n      jumpi\n      dup1\n      0x4c764809\n      eq\n      tag_6\n      jumpi\n      dup1\n      0x52c98689\n      eq\n      tag_7\n      jumpi\n      dup1\n      0x6d45e2a5\n      eq\n      tag_8\n      jumpi\n      dup1\n      0x8f6a861a\n      eq\n      tag_9\n      jumpi\n      0x00\n      dup1\n      revert\n    tag_10:\n      dup1\n      0x06fdde03\n      eq\n      tag_3\n      jumpi\n      dup1\n      0x3f83ea3b\n      eq\n      tag_4\n      jumpi\n      dup1\n      0x49574402\n      eq\n      tag_5\n      jumpi\n    tag_2:\n      0x00\n      dup1\n      revert\n        /* \"contracts/EmStorage.sol\":167:185  string public name */\n    tag_3:\n      tag_11\n      tag_12\n      jump\t// in\n    tag_11:\n      mload(0x40)\n      tag_13\n      swap2\n      swap1\n      tag_14\n      jump\t// in\n    tag_13:\n      mload(0x40)\n      dup1\n      swap2\n      sub\n      swap1\n      return\n        /* \"contracts/EmStorage.sol\":141:161  uint public idNumber */\n    tag_4:\n      tag_15\n      sload(0x01)\n      dup2\n      jump\n    tag_15:\n      mload(0x40)\n        /* \"#utility.yul\":583:608   */\n      swap1\n      dup2\n      mstore\n        /* \"#utility.yul\":571:573   */\n      0x20\n        /* \"#utility.yul\":556:574   */\n      add\n        /* \"contracts/EmStorage.sol\":141:161  uint public idNumber */\n      tag_13\n        /* \"#utility.yul\":437:614   */\n      jump\n        /* \"contracts/EmStorage.sol\":410:491  function viewSalary() public view  returns (uint32){... */\n    tag_5:\n        /* \"contracts/EmStorage.sol\":454:460  uint32 */\n      0x00\n        /* \"contracts/EmStorage.sol\":478:484  salary */\n      sload\n      0x010000\n      swap1\n      div\n      0xffffffff\n      and\n        /* \"contracts/EmStorage.sol\":410:491  function viewSalary() public view  returns (uint32){... */\n      mload(0x40)\n        /* \"#utility.yul\":793:803   */\n      0xffffffff\n        /* \"#utility.yul\":781:804   */\n      swap1\n      swap2\n      and\n        /* \"#utility.yul\":763:805   */\n      dup2\n      mstore\n        /* \"#utility.yul\":751:753   */\n      0x20\n        /* \"#utility.yul\":736:754   */\n      add\n        /* \"contracts/EmStorage.sol\":410:491  function viewSalary() public view  returns (uint32){... */\n      tag_13\n        /* \"#utility.yul\":619:811   */\n      jump\n        /* \"contracts/EmStorage.sol\":973:1038  function debugResetShares() public {... */\n    tag_6:\n      tag_23\n        /* \"contracts/EmStorage.sol\":1018:1024  shares */\n      0x00\n        /* \"contracts/EmStorage.sol\":1018:1031  shares = 1000 */\n      dup1\n      sload\n      not(0xffff)\n      and\n        /* \"contracts/EmStorage.sol\":1027:1031  1000 */\n      0x03e8\n        /* \"contracts/EmStorage.sol\":1018:1031  shares = 1000 */\n      or\n      swap1\n      sstore\n        /* \"contracts/EmStorage.sol\":973:1038  function debugResetShares() public {... */\n      jump\n    tag_23:\n      stop\n        /* \"contracts/EmStorage.sol\":618:830  function grantShares(uint16 _newShares) public {... */\n    tag_7:\n      tag_23\n      tag_26\n      calldatasize\n      0x04\n      tag_27\n      jump\t// in\n    tag_26:\n      tag_28\n      jump\t// in\n        /* \"contracts/EmStorage.sol\":496:576  function viewShares()public view  returns (uint16){... */\n    tag_8:\n        /* \"contracts/EmStorage.sol\":539:545  uint16 */\n      0x00\n        /* \"contracts/EmStorage.sol\":563:569  shares */\n      sload\n        /* \"contracts/EmStorage.sol\":496:576  function viewShares()public view  returns (uint16){... */\n      mload(0x40)\n        /* \"contracts/EmStorage.sol\":563:569  shares */\n      0xffff\n      swap1\n      swap2\n      and\n        /* \"#utility.yul\":1237:1275   */\n      dup2\n      mstore\n        /* \"#utility.yul\":1225:1227   */\n      0x20\n        /* \"#utility.yul\":1210:1228   */\n      add\n        /* \"contracts/EmStorage.sol\":496:576  function viewShares()public view  returns (uint16){... */\n      tag_13\n        /* \"#utility.yul\":1093:1281   */\n      jump\n        /* \"contracts/EmStorage.sol\":835:968  function checkForPacking(uint _slot) public view returns (uint r) {... */\n    tag_9:\n      tag_15\n      tag_34\n      calldatasize\n      0x04\n      tag_35\n      jump\t// in\n    tag_34:\n        /* \"contracts/EmStorage.sol\":939:952  sload (_slot) */\n      sload\n      swap1\n        /* \"contracts/EmStorage.sol\":835:968  function checkForPacking(uint _slot) public view returns (uint r) {... */\n      jump\n        /* \"contracts/EmStorage.sol\":167:185  string public name */\n    tag_12:\n      0x02\n      dup1\n      sload\n      tag_38\n      swap1\n      tag_39\n      jump\t// in\n    tag_38:\n      dup1\n      0x1f\n      add\n      0x20\n      dup1\n      swap2\n      div\n      mul\n      0x20\n      add\n      mload(0x40)\n      swap1\n      dup2\n      add\n      0x40\n      mstore\n      dup1\n      swap3\n      swap2\n      swap1\n      dup2\n      dup2\n      mstore\n      0x20\n      add\n      dup3\n      dup1\n      sload\n      tag_40\n      swap1\n      tag_39\n      jump\t// in\n    tag_40:\n      dup1\n      iszero\n      tag_41\n      jumpi\n      dup1\n      0x1f\n      lt\n      tag_42\n      jumpi\n      0x0100\n      dup1\n      dup4\n      sload\n      div\n      mul\n      dup4\n      mstore\n      swap2\n      0x20\n      add\n      swap2\n      jump(tag_41)\n    tag_42:\n      dup3\n      add\n      swap2\n      swap1\n      0x00\n      mstore\n      keccak256(0x00, 0x20)\n      swap1\n    tag_43:\n      dup2\n      sload\n      dup2\n      mstore\n      swap1\n      0x01\n      add\n      swap1\n      0x20\n      add\n      dup1\n      dup4\n      gt\n      tag_43\n      jumpi\n      dup3\n      swap1\n      sub\n      0x1f\n      and\n      dup3\n      add\n      swap2\n    tag_41:\n      pop\n      pop\n      pop\n      pop\n      pop\n      dup2\n      jump\t// out\n        /* \"contracts/EmStorage.sol\":618:830  function grantShares(uint16 _newShares) public {... */\n    tag_28:\n        /* \"contracts/EmStorage.sol\":694:698  5000 */\n      0x1388\n        /* \"contracts/EmStorage.sol\":683:693  _newShares */\n      dup2\n        /* \"contracts/EmStorage.sol\":683:698  _newShares<5000 */\n      0xffff\n      and\n      lt\n        /* \"contracts/EmStorage.sol\":675:718  require(_newShares<5000, \"Too many shares\") */\n      tag_47\n      jumpi\n      mload(0x40)\n      shl(0xe5, 0x461bcd)\n      dup2\n      mstore\n        /* \"#utility.yul\":2058:2060   */\n      0x20\n        /* \"contracts/EmStorage.sol\":675:718  require(_newShares<5000, \"Too many shares\") */\n      0x04\n      dup3\n      add\n        /* \"#utility.yul\":2040:2061   */\n      mstore\n        /* \"#utility.yul\":2097:2099   */\n      0x0f\n        /* \"#utility.yul\":2077:2095   */\n      0x24\n      dup3\n      add\n        /* \"#utility.yul\":2070:2100   */\n      mstore\n      shl(0x88, 0x546f6f206d616e7920736861726573)\n        /* \"#utility.yul\":2116:2134   */\n      0x44\n      dup3\n      add\n        /* \"#utility.yul\":2109:2154   */\n      mstore\n        /* \"#utility.yul\":2171:2189   */\n      0x64\n      add\n        /* \"contracts/EmStorage.sol\":675:718  require(_newShares<5000, \"Too many shares\") */\n    tag_48:\n      mload(0x40)\n      dup1\n      swap2\n      sub\n      swap1\n      revert\n    tag_47:\n        /* \"contracts/EmStorage.sol\":728:734  shares */\n      0x00\n        /* \"contracts/EmStorage.sol\":728:746  shares+=_newShares */\n      dup1\n      sload\n        /* \"contracts/EmStorage.sol\":736:746  _newShares */\n      dup3\n      swap2\n        /* \"contracts/EmStorage.sol\":728:734  shares */\n      swap1\n      dup2\n      swap1\n        /* \"contracts/EmStorage.sol\":728:746  shares+=_newShares */\n      tag_50\n      swap1\n        /* \"contracts/EmStorage.sol\":736:746  _newShares */\n      dup5\n      swap1\n        /* \"contracts/EmStorage.sol\":728:746  shares+=_newShares */\n      0xffff\n      and\n      tag_51\n      jump\t// in\n    tag_50:\n      swap3\n      pop\n      0x0100\n      exp\n      dup2\n      sload\n      dup2\n      0xffff\n      mul\n      not\n      and\n      swap1\n      dup4\n      0xffff\n      and\n      mul\n      or\n      swap1\n      sstore\n      pop\n        /* \"contracts/EmStorage.sol\":766:770  5000 */\n      0x1388\n        /* \"contracts/EmStorage.sol\":759:765  shares */\n      0x00\n      dup1\n      sload\n      swap1\n      0x0100\n      exp\n      swap1\n      div\n      0xffff\n      and\n        /* \"contracts/EmStorage.sol\":759:770  shares>5000 */\n      0xffff\n      and\n      gt\n        /* \"contracts/EmStorage.sol\":756:824  if(shares>5000){... */\n      iszero\n      tag_52\n      jumpi\n        /* \"contracts/EmStorage.sol\":806:812  shares */\n      sload(0x00)\n        /* \"contracts/EmStorage.sol\":792:813  TooManyShares(shares) */\n      mload(0x40)\n      shl(0xe0, 0x0f7d4109)\n      dup2\n      mstore\n        /* \"contracts/EmStorage.sol\":806:812  shares */\n      0xffff\n      swap1\n      swap2\n      and\n        /* \"contracts/EmStorage.sol\":792:813  TooManyShares(shares) */\n      0x04\n      dup3\n      add\n        /* \"#utility.yul\":1237:1275   */\n      mstore\n        /* \"#utility.yul\":1210:1228   */\n      0x24\n      add\n        /* \"contracts/EmStorage.sol\":792:813  TooManyShares(shares) */\n      tag_48\n        /* \"#utility.yul\":1093:1281   */\n      jump\n        /* \"contracts/EmStorage.sol\":756:824  if(shares>5000){... */\n    tag_52:\n        /* \"contracts/EmStorage.sol\":618:830  function grantShares(uint16 _newShares) public {... */\n      pop\n      jump\t// out\n        /* \"#utility.yul\":14:432   */\n    tag_14:\n        /* \"#utility.yul\":163:165   */\n      0x20\n        /* \"#utility.yul\":152:161   */\n      dup2\n        /* \"#utility.yul\":145:166   */\n      mstore\n        /* \"#utility.yul\":126:130   */\n      0x00\n        /* \"#utility.yul\":195:201   */\n      dup3\n        /* \"#utility.yul\":189:202   */\n      mload\n        /* \"#utility.yul\":238:244   */\n      dup1\n        /* \"#utility.yul\":233:235   */\n      0x20\n        /* \"#utility.yul\":222:231   */\n      dup5\n        /* \"#utility.yul\":218:236   */\n      add\n        /* \"#utility.yul\":211:245   */\n      mstore\n        /* \"#utility.yul\":297:303   */\n      dup1\n        /* \"#utility.yul\":292:294   */\n      0x20\n        /* \"#utility.yul\":284:290   */\n      dup6\n        /* \"#utility.yul\":280:295   */\n      add\n        /* \"#utility.yul\":275:277   */\n      0x40\n        /* \"#utility.yul\":264:273   */\n      dup6\n        /* \"#utility.yul\":260:278   */\n      add\n        /* \"#utility.yul\":254:304   */\n      mcopy\n        /* \"#utility.yul\":353:354   */\n      0x00\n        /* \"#utility.yul\":348:350   */\n      0x40\n        /* \"#utility.yul\":339:345   */\n      dup3\n        /* \"#utility.yul\":328:337   */\n      dup6\n        /* \"#utility.yul\":324:346   */\n      add\n        /* \"#utility.yul\":320:351   */\n      add\n        /* \"#utility.yul\":313:355   */\n      mstore\n        /* \"#utility.yul\":423:425   */\n      0x40\n        /* \"#utility.yul\":416:418   */\n      0x1f\n        /* \"#utility.yul\":412:419   */\n      not\n        /* \"#utility.yul\":407:409   */\n      0x1f\n        /* \"#utility.yul\":399:405   */\n      dup4\n        /* \"#utility.yul\":395:410   */\n      add\n        /* \"#utility.yul\":391:420   */\n      and\n        /* \"#utility.yul\":380:389   */\n      dup5\n        /* \"#utility.yul\":376:421   */\n      add\n        /* \"#utility.yul\":372:426   */\n      add\n        /* \"#utility.yul\":364:426   */\n      swap2\n      pop\n      pop\n        /* \"#utility.yul\":14:432   */\n      swap3\n      swap2\n      pop\n      pop\n      jump\t// out\n        /* \"#utility.yul\":816:1088   */\n    tag_27:\n        /* \"#utility.yul\":874:880   */\n      0x00\n        /* \"#utility.yul\":927:929   */\n      0x20\n        /* \"#utility.yul\":915:924   */\n      dup3\n        /* \"#utility.yul\":906:913   */\n      dup5\n        /* \"#utility.yul\":902:925   */\n      sub\n        /* \"#utility.yul\":898:930   */\n      slt\n        /* \"#utility.yul\":895:947   */\n      iszero\n      tag_62\n      jumpi\n        /* \"#utility.yul\":943:944   */\n      0x00\n        /* \"#utility.yul\":940:941   */\n      dup1\n        /* \"#utility.yul\":933:945   */\n      revert\n        /* \"#utility.yul\":895:947   */\n    tag_62:\n        /* \"#utility.yul\":982:991   */\n      dup2\n        /* \"#utility.yul\":969:992   */\n      calldataload\n        /* \"#utility.yul\":1032:1038   */\n      0xffff\n        /* \"#utility.yul\":1025:1030   */\n      dup2\n        /* \"#utility.yul\":1021:1039   */\n      and\n        /* \"#utility.yul\":1014:1019   */\n      dup2\n        /* \"#utility.yul\":1011:1040   */\n      eq\n        /* \"#utility.yul\":1001:1058   */\n      tag_63\n      jumpi\n        /* \"#utility.yul\":1054:1055   */\n      0x00\n        /* \"#utility.yul\":1051:1052   */\n      dup1\n        /* \"#utility.yul\":1044:1056   */\n      revert\n        /* \"#utility.yul\":1001:1058   */\n    tag_63:\n        /* \"#utility.yul\":1077:1082   */\n      swap4\n        /* \"#utility.yul\":816:1088   */\n      swap3\n      pop\n      pop\n      pop\n      jump\t// out\n        /* \"#utility.yul\":1286:1466   */\n    tag_35:\n        /* \"#utility.yul\":1345:1351   */\n      0x00\n        /* \"#utility.yul\":1398:1400   */\n      0x20\n        /* \"#utility.yul\":1386:1395   */\n      dup3\n        /* \"#utility.yul\":1377:1384   */\n      dup5\n        /* \"#utility.yul\":1373:1396   */\n      sub\n        /* \"#utility.yul\":1369:1401   */\n      slt\n        /* \"#utility.yul\":1366:1418   */\n      iszero\n      tag_66\n      jumpi\n        /* \"#utility.yul\":1414:1415   */\n      0x00\n        /* \"#utility.yul\":1411:1412   */\n      dup1\n        /* \"#utility.yul\":1404:1416   */\n      revert\n        /* \"#utility.yul\":1366:1418   */\n    tag_66:\n      pop\n        /* \"#utility.yul\":1437:1460   */\n      calldataload\n      swap2\n        /* \"#utility.yul\":1286:1466   */\n      swap1\n      pop\n      jump\t// out\n        /* \"#utility.yul\":1471:1851   */\n    tag_39:\n        /* \"#utility.yul\":1550:1551   */\n      0x01\n        /* \"#utility.yul\":1546:1558   */\n      dup2\n      dup2\n      shr\n      swap1\n        /* \"#utility.yul\":1593:1605   */\n      dup3\n      and\n      dup1\n        /* \"#utility.yul\":1614:1675   */\n      tag_68\n      jumpi\n        /* \"#utility.yul\":1668:1672   */\n      0x7f\n        /* \"#utility.yul\":1660:1666   */\n      dup3\n        /* \"#utility.yul\":1656:1673   */\n      and\n        /* \"#utility.yul\":1646:1673   */\n      swap2\n      pop\n        /* \"#utility.yul\":1614:1675   */\n    tag_68:\n        /* \"#utility.yul\":1721:1723   */\n      0x20\n        /* \"#utility.yul\":1713:1719   */\n      dup3\n        /* \"#utility.yul\":1710:1724   */\n      lt\n        /* \"#utility.yul\":1690:1708   */\n      dup2\n        /* \"#utility.yul\":1687:1725   */\n      sub\n        /* \"#utility.yul\":1684:1845   */\n      tag_69\n      jumpi\n        /* \"#utility.yul\":1767:1777   */\n      0x4e487b71\n        /* \"#utility.yul\":1762:1765   */\n      0xe0\n        /* \"#utility.yul\":1758:1778   */\n      shl\n        /* \"#utility.yul\":1755:1756   */\n      0x00\n        /* \"#utility.yul\":1748:1779   */\n      mstore\n        /* \"#utility.yul\":1802:1806   */\n      0x22\n        /* \"#utility.yul\":1799:1800   */\n      0x04\n        /* \"#utility.yul\":1792:1807   */\n      mstore\n        /* \"#utility.yul\":1830:1834   */\n      0x24\n        /* \"#utility.yul\":1827:1828   */\n      0x00\n        /* \"#utility.yul\":1820:1835   */\n      revert\n        /* \"#utility.yul\":1684:1845   */\n    tag_69:\n      pop\n        /* \"#utility.yul\":1471:1851   */\n      swap2\n      swap1\n      pop\n      jump\t// out\n        /* \"#utility.yul\":2200:2452   */\n    tag_51:\n        /* \"#utility.yul\":2291:2297   */\n      0xffff\n        /* \"#utility.yul\":2268:2282   */\n      dup2\n      dup2\n      and\n        /* \"#utility.yul\":2284:2298   */\n      dup4\n      dup3\n      and\n        /* \"#utility.yul\":2264:2299   */\n      add\n      swap1\n        /* \"#utility.yul\":2311:2326   */\n      dup2\n      gt\n        /* \"#utility.yul\":2308:2446   */\n      iszero\n      tag_72\n      jumpi\n        /* \"#utility.yul\":2368:2378   */\n      0x4e487b71\n        /* \"#utility.yul\":2363:2366   */\n      0xe0\n        /* \"#utility.yul\":2359:2379   */\n      shl\n        /* \"#utility.yul\":2356:2357   */\n      0x00\n        /* \"#utility.yul\":2349:2380   */\n      mstore\n        /* \"#utility.yul\":2403:2407   */\n      0x11\n        /* \"#utility.yul\":2400:2401   */\n      0x04\n        /* \"#utility.yul\":2393:2408   */\n      mstore\n        /* \"#utility.yul\":2431:2435   */\n      0x24\n        /* \"#utility.yul\":2428:2429   */\n      0x00\n        /* \"#utility.yul\":2421:2436   */\n      revert\n        /* \"#utility.yul\":2308:2446   */\n    tag_72:\n        /* \"#utility.yul\":2200:2452   */\n      swap3\n      swap2\n      pop\n      pop\n      jump\t// out\n\n    auxdata: 0xa2646970667358221220e46120ee4a15238abd9fca1f6ee8b5975556d9c2258b95930d30cff2c906a9f064736f6c634300081a0033\n}\n",
				"bytecode": {
					"linkReferences": {},
					"object": "608060405234801561000f575f80fd5b5060405161064c38038061064c83398101604081905261002e916100a4565b5f805461ffff191661ffff8616179055600261004a8482610209565b505f805463ffffffff909316620100000265ffffffff00001990931692909217909155600155506102c39050565b634e487b7160e01b5f52604160045260245ffd5b805163ffffffff8116811461009f575f80fd5b919050565b5f805f80608085870312156100b7575f80fd5b845161ffff811681146100c8575f80fd5b60208601519094506001600160401b038111156100e3575f80fd5b8501601f810187136100f3575f80fd5b80516001600160401b0381111561010c5761010c610078565b604051601f8201601f19908116603f011681016001600160401b038111828210171561013a5761013a610078565b604052818152828201602001891015610151575f80fd5b8160208401602083015e5f602083830101528095505050506101756040860161008c565b6060959095015193969295505050565b600181811c9082168061019957607f821691505b6020821081036101b757634e487b7160e01b5f52602260045260245ffd5b50919050565b601f82111561020457805f5260205f20601f840160051c810160208510156101e25750805b601f840160051c820191505b81811015610201575f81556001016101ee565b50505b505050565b81516001600160401b0381111561022257610222610078565b610236816102308454610185565b846101bd565b6020601f821160018114610268575f83156102515750848201515b5f19600385901b1c1916600184901b178455610201565b5f84815260208120601f198516915b828110156102975787850151825560209485019460019092019101610277565b50848210156102b457868401515f19600387901b60f8161c191681555b50505050600190811b01905550565b61037c806102d05f395ff3fe608060405234801561000f575f80fd5b506004361061007a575f3560e01c80634c764809116100585780634c764809146100d657806352c98689146100eb5780636d45e2a5146100fe5780638f6a861a14610113575f80fd5b806306fdde031461007e5780633f83ea3b1461009c57806349574402146100b3575b5f80fd5b610086610125565b604051610093919061026e565b60405180910390f35b6100a560015481565b604051908152602001610093565b5f5462010000900463ffffffff1660405163ffffffff9091168152602001610093565b6100e95f805461ffff19166103e8179055565b005b6100e96100f93660046102a3565b6101b1565b5f5460405161ffff9091168152602001610093565b6100a56101213660046102cb565b5490565b60028054610132906102e2565b80601f016020809104026020016040519081016040528092919081815260200182805461015e906102e2565b80156101a95780601f10610180576101008083540402835291602001916101a9565b820191905f5260205f20905b81548152906001019060200180831161018c57829003601f168201915b505050505081565b6113888161ffff16106101fd5760405162461bcd60e51b815260206004820152600f60248201526e546f6f206d616e792073686172657360881b60448201526064015b60405180910390fd5b5f8054829190819061021490849061ffff1661031a565b92506101000a81548161ffff021916908361ffff1602179055506113885f8054906101000a900461ffff1661ffff16111561026b575f54604051630f7d410960e01b815261ffff90911660048201526024016101f4565b50565b602081525f82518060208401528060208501604085015e5f604082850101526040601f19601f83011684010191505092915050565b5f602082840312156102b3575f80fd5b813561ffff811681146102c4575f80fd5b9392505050565b5f602082840312156102db575f80fd5b5035919050565b600181811c908216806102f657607f821691505b60208210810361031457634e487b7160e01b5f52602260045260245ffd5b50919050565b61ffff818116838216019081111561034057634e487b7160e01b5f52601160045260245ffd5b9291505056fea2646970667358221220e46120ee4a15238abd9fca1f6ee8b5975556d9c2258b95930d30cff2c906a9f064736f6c634300081a0033",
					"opcodes": "PUSH1 0x80 PUSH1 0x40 MSTORE CALLVALUE DUP1 ISZERO PUSH2 0xF JUMPI PUSH0 DUP1 REVERT JUMPDEST POP PUSH1 0x40 MLOAD PUSH2 0x64C CODESIZE SUB DUP1 PUSH2 0x64C DUP4 CODECOPY DUP2 ADD PUSH1 0x40 DUP2 SWAP1 MSTORE PUSH2 0x2E SWAP2 PUSH2 0xA4 JUMP JUMPDEST PUSH0 DUP1 SLOAD PUSH2 0xFFFF NOT AND PUSH2 0xFFFF DUP7 AND OR SWAP1 SSTORE PUSH1 0x2 PUSH2 0x4A DUP5 DUP3 PUSH2 0x209 JUMP JUMPDEST POP PUSH0 DUP1 SLOAD PUSH4 0xFFFFFFFF SWAP1 SWAP4 AND PUSH3 0x10000 MUL PUSH6 0xFFFFFFFF0000 NOT SWAP1 SWAP4 AND SWAP3 SWAP1 SWAP3 OR SWAP1 SWAP2 SSTORE PUSH1 0x1 SSTORE POP PUSH2 0x2C3 SWAP1 POP JUMP JUMPDEST PUSH4 0x4E487B71 PUSH1 0xE0 SHL PUSH0 MSTORE PUSH1 0x41 PUSH1 0x4 MSTORE PUSH1 0x24 PUSH0 REVERT JUMPDEST DUP1 MLOAD PUSH4 0xFFFFFFFF DUP2 AND DUP2 EQ PUSH2 0x9F JUMPI PUSH0 DUP1 REVERT JUMPDEST SWAP2 SWAP1 POP JUMP JUMPDEST PUSH0 DUP1 PUSH0 DUP1 PUSH1 0x80 DUP6 DUP8 SUB SLT ISZERO PUSH2 0xB7 JUMPI PUSH0 DUP1 REVERT JUMPDEST DUP5 MLOAD PUSH2 0xFFFF DUP2 AND DUP2 EQ PUSH2 0xC8 JUMPI PUSH0 DUP1 REVERT JUMPDEST PUSH1 0x20 DUP7 ADD MLOAD SWAP1 SWAP5 POP PUSH1 0x1 PUSH1 0x1 PUSH1 0x40 SHL SUB DUP2 GT ISZERO PUSH2 0xE3 JUMPI PUSH0 DUP1 REVERT JUMPDEST DUP6 ADD PUSH1 0x1F DUP2 ADD DUP8 SGT PUSH2 0xF3 JUMPI PUSH0 DUP1 REVERT JUMPDEST DUP1 MLOAD PUSH1 0x1 PUSH1 0x1 PUSH1 0x40 SHL SUB DUP2 GT ISZERO PUSH2 0x10C JUMPI PUSH2 0x10C PUSH2 0x78 JUMP JUMPDEST PUSH1 0x40 MLOAD PUSH1 0x1F DUP3 ADD PUSH1 0x1F NOT SWAP1 DUP2 AND PUSH1 0x3F ADD AND DUP2 ADD PUSH1 0x1 PUSH1 0x1 PUSH1 0x40 SHL SUB DUP2 GT DUP3 DUP3 LT OR ISZERO PUSH2 0x13A JUMPI PUSH2 0x13A PUSH2 0x78 JUMP JUMPDEST PUSH1 0x40 MSTORE DUP2 DUP2 MSTORE DUP3 DUP3 ADD PUSH1 0x20 ADD DUP10 LT ISZERO PUSH2 0x151 JUMPI PUSH0 DUP1 REVERT JUMPDEST DUP2 PUSH1 0x20 DUP5 ADD PUSH1 0x20 DUP4 ADD MCOPY PUSH0 PUSH1 0x20 DUP4 DUP4 ADD ADD MSTORE DUP1 SWAP6 POP POP POP POP PUSH2 0x175 PUSH1 0x40 DUP7 ADD PUSH2 0x8C JUMP JUMPDEST PUSH1 0x60 SWAP6 SWAP1 SWAP6 ADD MLOAD SWAP4 SWAP7 SWAP3 SWAP6 POP POP POP JUMP JUMPDEST PUSH1 0x1 DUP2 DUP2 SHR SWAP1 DUP3 AND DUP1 PUSH2 0x199 JUMPI PUSH1 0x7F DUP3 AND SWAP2 POP JUMPDEST PUSH1 0x20 DUP3 LT DUP2 SUB PUSH2 0x1B7 JUMPI PUSH4 0x4E487B71 PUSH1 0xE0 SHL PUSH0 MSTORE PUSH1 0x22 PUSH1 0x4 MSTORE PUSH1 0x24 PUSH0 REVERT JUMPDEST POP SWAP2 SWAP1 POP JUMP JUMPDEST PUSH1 0x1F DUP3 GT ISZERO PUSH2 0x204 JUMPI DUP1 PUSH0 MSTORE PUSH1 0x20 PUSH0 KECCAK256 PUSH1 0x1F DUP5 ADD PUSH1 0x5 SHR DUP2 ADD PUSH1 0x20 DUP6 LT ISZERO PUSH2 0x1E2 JUMPI POP DUP1 JUMPDEST PUSH1 0x1F DUP5 ADD PUSH1 0x5 SHR DUP3 ADD SWAP2 POP JUMPDEST DUP2 DUP2 LT ISZERO PUSH2 0x201 JUMPI PUSH0 DUP2 SSTORE PUSH1 0x1 ADD PUSH2 0x1EE JUMP JUMPDEST POP POP JUMPDEST POP POP POP JUMP JUMPDEST DUP2 MLOAD PUSH1 0x1 PUSH1 0x1 PUSH1 0x40 SHL SUB DUP2 GT ISZERO PUSH2 0x222 JUMPI PUSH2 0x222 PUSH2 0x78 JUMP JUMPDEST PUSH2 0x236 DUP2 PUSH2 0x230 DUP5 SLOAD PUSH2 0x185 JUMP JUMPDEST DUP5 PUSH2 0x1BD JUMP JUMPDEST PUSH1 0x20 PUSH1 0x1F DUP3 GT PUSH1 0x1 DUP2 EQ PUSH2 0x268 JUMPI PUSH0 DUP4 ISZERO PUSH2 0x251 JUMPI POP DUP5 DUP3 ADD MLOAD JUMPDEST PUSH0 NOT PUSH1 0x3 DUP6 SWAP1 SHL SHR NOT AND PUSH1 0x1 DUP5 SWAP1 SHL OR DUP5 SSTORE PUSH2 0x201 JUMP JUMPDEST PUSH0 DUP5 DUP2 MSTORE PUSH1 0x20 DUP2 KECCAK256 PUSH1 0x1F NOT DUP6 AND SWAP2 JUMPDEST DUP3 DUP2 LT ISZERO PUSH2 0x297 JUMPI DUP8 DUP6 ADD MLOAD DUP3 SSTORE PUSH1 0x20 SWAP5 DUP6 ADD SWAP5 PUSH1 0x1 SWAP1 SWAP3 ADD SWAP2 ADD PUSH2 0x277 JUMP JUMPDEST POP DUP5 DUP3 LT ISZERO PUSH2 0x2B4 JUMPI DUP7 DUP5 ADD MLOAD PUSH0 NOT PUSH1 0x3 DUP8 SWAP1 SHL PUSH1 0xF8 AND SHR NOT AND DUP2 SSTORE JUMPDEST POP POP POP POP PUSH1 0x1 SWAP1 DUP2 SHL ADD SWAP1 SSTORE POP JUMP JUMPDEST PUSH2 0x37C DUP1 PUSH2 0x2D0 PUSH0 CODECOPY PUSH0 RETURN INVALID PUSH1 0x80 PUSH1 0x40 MSTORE CALLVALUE DUP1 ISZERO PUSH2 0xF JUMPI PUSH0 DUP1 REVERT JUMPDEST POP PUSH1 0x4 CALLDATASIZE LT PUSH2 0x7A JUMPI PUSH0 CALLDATALOAD PUSH1 0xE0 SHR DUP1 PUSH4 0x4C764809 GT PUSH2 0x58 JUMPI DUP1 PUSH4 0x4C764809 EQ PUSH2 0xD6 JUMPI DUP1 PUSH4 0x52C98689 EQ PUSH2 0xEB JUMPI DUP1 PUSH4 0x6D45E2A5 EQ PUSH2 0xFE JUMPI DUP1 PUSH4 0x8F6A861A EQ PUSH2 0x113 JUMPI PUSH0 DUP1 REVERT JUMPDEST DUP1 PUSH4 0x6FDDE03 EQ PUSH2 0x7E JUMPI DUP1 PUSH4 0x3F83EA3B EQ PUSH2 0x9C JUMPI DUP1 PUSH4 0x49574402 EQ PUSH2 0xB3 JUMPI JUMPDEST PUSH0 DUP1 REVERT JUMPDEST PUSH2 0x86 PUSH2 0x125 JUMP JUMPDEST PUSH1 0x40 MLOAD PUSH2 0x93 SWAP2 SWAP1 PUSH2 0x26E JUMP JUMPDEST PUSH1 0x40 MLOAD DUP1 SWAP2 SUB SWAP1 RETURN JUMPDEST PUSH2 0xA5 PUSH1 0x1 SLOAD DUP2 JUMP JUMPDEST PUSH1 0x40 MLOAD SWAP1 DUP2 MSTORE PUSH1 0x20 ADD PUSH2 0x93 JUMP JUMPDEST PUSH0 SLOAD PUSH3 0x10000 SWAP1 DIV PUSH4 0xFFFFFFFF AND PUSH1 0x40 MLOAD PUSH4 0xFFFFFFFF SWAP1 SWAP2 AND DUP2 MSTORE PUSH1 0x20 ADD PUSH2 0x93 JUMP JUMPDEST PUSH2 0xE9 PUSH0 DUP1 SLOAD PUSH2 0xFFFF NOT AND PUSH2 0x3E8 OR SWAP1 SSTORE JUMP JUMPDEST STOP JUMPDEST PUSH2 0xE9 PUSH2 0xF9 CALLDATASIZE PUSH1 0x4 PUSH2 0x2A3 JUMP JUMPDEST PUSH2 0x1B1 JUMP JUMPDEST PUSH0 SLOAD PUSH1 0x40 MLOAD PUSH2 0xFFFF SWAP1 SWAP2 AND DUP2 MSTORE PUSH1 0x20 ADD PUSH2 0x93 JUMP JUMPDEST PUSH2 0xA5 PUSH2 0x121 CALLDATASIZE PUSH1 0x4 PUSH2 0x2CB JUMP JUMPDEST SLOAD SWAP1 JUMP JUMPDEST PUSH1 0x2 DUP1 SLOAD PUSH2 0x132 SWAP1 PUSH2 0x2E2 JUMP JUMPDEST DUP1 PUSH1 0x1F ADD PUSH1 0x20 DUP1 SWAP2 DIV MUL PUSH1 0x20 ADD PUSH1 0x40 MLOAD SWAP1 DUP2 ADD PUSH1 0x40 MSTORE DUP1 SWAP3 SWAP2 SWAP1 DUP2 DUP2 MSTORE PUSH1 0x20 ADD DUP3 DUP1 SLOAD PUSH2 0x15E SWAP1 PUSH2 0x2E2 JUMP JUMPDEST DUP1 ISZERO PUSH2 0x1A9 JUMPI DUP1 PUSH1 0x1F LT PUSH2 0x180 JUMPI PUSH2 0x100 DUP1 DUP4 SLOAD DIV MUL DUP4 MSTORE SWAP2 PUSH1 0x20 ADD SWAP2 PUSH2 0x1A9 JUMP JUMPDEST DUP3 ADD SWAP2 SWAP1 PUSH0 MSTORE PUSH1 0x20 PUSH0 KECCAK256 SWAP1 JUMPDEST DUP2 SLOAD DUP2 MSTORE SWAP1 PUSH1 0x1 ADD SWAP1 PUSH1 0x20 ADD DUP1 DUP4 GT PUSH2 0x18C JUMPI DUP3 SWAP1 SUB PUSH1 0x1F AND DUP3 ADD SWAP2 JUMPDEST POP POP POP POP POP DUP2 JUMP JUMPDEST PUSH2 0x1388 DUP2 PUSH2 0xFFFF AND LT PUSH2 0x1FD JUMPI PUSH1 0x40 MLOAD PUSH3 0x461BCD PUSH1 0xE5 SHL DUP2 MSTORE PUSH1 0x20 PUSH1 0x4 DUP3 ADD MSTORE PUSH1 0xF PUSH1 0x24 DUP3 ADD MSTORE PUSH15 0x546F6F206D616E7920736861726573 PUSH1 0x88 SHL PUSH1 0x44 DUP3 ADD MSTORE PUSH1 0x64 ADD JUMPDEST PUSH1 0x40 MLOAD DUP1 SWAP2 SUB SWAP1 REVERT JUMPDEST PUSH0 DUP1 SLOAD DUP3 SWAP2 SWAP1 DUP2 SWAP1 PUSH2 0x214 SWAP1 DUP5 SWAP1 PUSH2 0xFFFF AND PUSH2 0x31A JUMP JUMPDEST SWAP3 POP PUSH2 0x100 EXP DUP2 SLOAD DUP2 PUSH2 0xFFFF MUL NOT AND SWAP1 DUP4 PUSH2 0xFFFF AND MUL OR SWAP1 SSTORE POP PUSH2 0x1388 PUSH0 DUP1 SLOAD SWAP1 PUSH2 0x100 EXP SWAP1 DIV PUSH2 0xFFFF AND PUSH2 0xFFFF AND GT ISZERO PUSH2 0x26B JUMPI PUSH0 SLOAD PUSH1 0x40 MLOAD PUSH4 0xF7D4109 PUSH1 0xE0 SHL DUP2 MSTORE PUSH2 0xFFFF SWAP1 SWAP2 AND PUSH1 0x4 DUP3 ADD MSTORE PUSH1 0x24 ADD PUSH2 0x1F4 JUMP JUMPDEST POP JUMP JUMPDEST PUSH1 0x20 DUP2 MSTORE PUSH0 DUP3 MLOAD DUP1 PUSH1 0x20 DUP5 ADD MSTORE DUP1 PUSH1 0x20 DUP6 ADD PUSH1 0x40 DUP6 ADD MCOPY PUSH0 PUSH1 0x40 DUP3 DUP6 ADD ADD MSTORE PUSH1 0x40 PUSH1 0x1F NOT PUSH1 0x1F DUP4 ADD AND DUP5 ADD ADD SWAP2 POP POP SWAP3 SWAP2 POP POP JUMP JUMPDEST PUSH0 PUSH1 0x20 DUP3 DUP5 SUB SLT ISZERO PUSH2 0x2B3 JUMPI PUSH0 DUP1 REVERT JUMPDEST DUP2 CALLDATALOAD PUSH2 0xFFFF DUP2 AND DUP2 EQ PUSH2 0x2C4 JUMPI PUSH0 DUP1 REVERT JUMPDEST SWAP4 SWAP3 POP POP POP JUMP JUMPDEST PUSH0 PUSH1 0x20 DUP3 DUP5 SUB SLT ISZERO PUSH2 0x2DB JUMPI PUSH0 DUP1 REVERT JUMPDEST POP CALLDATALOAD SWAP2 SWAP1 POP JUMP JUMPDEST PUSH1 0x1 DUP2 DUP2 SHR SWAP1 DUP3 AND DUP1 PUSH2 0x2F6 JUMPI PUSH1 0x7F DUP3 AND SWAP2 POP JUMPDEST PUSH1 0x20 DUP3 LT DUP2 SUB PUSH2 0x314 JUMPI PUSH4 0x4E487B71 PUSH1 0xE0 SHL PUSH0 MSTORE PUSH1 0x22 PUSH1 0x4 MSTORE PUSH1 0x24 PUSH0 REVERT JUMPDEST POP SWAP2 SWAP1 POP JUMP JUMPDEST PUSH2 0xFFFF DUP2 DUP2 AND DUP4 DUP3 AND ADD SWAP1 DUP2 GT ISZERO PUSH2 0x340 JUMPI PUSH4 0x4E487B71 PUSH1 0xE0 SHL PUSH0 MSTORE PUSH1 0x11 PUSH1 0x4 MSTORE PUSH1 0x24 PUSH0 REVERT JUMPDEST SWAP3 SWAP2 POP POP JUMP INVALID LOG2 PUSH5 0x6970667358 0x22 SLT KECCAK256 0xE4 PUSH2 0x20EE BLOBBASEFEE ISZERO 0x23 DUP11 0xBD SWAP16 0xCA 0x1F PUSH15 0xE8B5975556D9C2258B95930D30CFF2 0xC9 MOD 0xA9 CREATE PUSH5 0x736F6C6343 STOP ADDMOD BYTE STOP CALLER "
				},
				"gasEstimates": {
					"creation": {
						"codeDepositCost": "178400",
						"executionCost": "infinite",
						"totalCost": "infinite"
					},
					"external": {
						"checkForPacking(uint256)": "2433",
						"debugResetShares()": "24354",
						"grantShares(uint16)": "31132",
						"idNumber()": "2317",
						"name()": "infinite",
						"viewSalary()": "2349",
						"viewShares()": "2331"
					}
				},
				"methodIdentifiers": {
					"checkForPacking(uint256)": "8f6a861a",
					"debugResetShares()": "4c764809",
					"grantShares(uint16)": "52c98689",
					"idNumber()": "3f83ea3b",
					"name()": "06fdde03",
					"viewSalary()": "49574402",
					"viewShares()": "6d45e2a5"
				}
			},
			"storageLayout": {
				"storage": [
					{
						"astId": 3,
						"contract": "contracts/EmStorage.sol:EmployeeStorage",
						"label": "shares",
						"offset": 0,
						"slot": "0",
						"type": "t_uint16"
					},
					{
						"astId": 5,
						"contract": "contracts/EmStorage.sol:EmployeeStorage",
						"label": "salary",
						"offset": 2,
						"slot": "0",
						"type": "t_uint32"
					},
					{
						"astId": 7,
						"contract": "contracts/EmStorage.sol:EmployeeStorage",
						"label": "idNumber",
						"offset": 0,
						"slot": "1",
						"type": "t_uint256"
					},
					{
						"astId": 9,
						"contract": "contracts/EmStorage.sol:EmployeeStorage",
						"label": "name",
						"offset": 0,
						"slot": "2",
						"type": "t_string_storage"
					}
				],
				"types": {
					"t_string_storage": {
						"encoding": "bytes",
						"label": "string",
						"numberOfBytes": "32"
					},
					"t_uint16": {
						"encoding": "inplace",
						"label": "uint16",
						"numberOfBytes": "2"
					},
					"t_uint256": {
						"encoding": "inplace",
						"label": "uint256",
						"numberOfBytes": "32"
					},
					"t_uint32": {
						"encoding": "inplace",
						"label": "uint32",
						"numberOfBytes": "4"
					}
				}
			},
			"userdoc": {
				"kind": "user",
				"methods": {},
				"version": 1
			}
		}
	}
}