{
	"contracts/duationclaim.sol": {
		"DurationTest": {
			"abi": [
				{
					"inputs": [
						{
							"internalType": "string",
							"name": "",
							"type": "string"
						}
					],
					"name": "DuplicateUserAdded",
					"type": "error"
				},
				{
					"inputs": [
						{
							"internalType": "address",
							"name": "_user",
							"type": "address"
						}
					],
					"name": "AddEligibleUser",
					"outputs": [],
					"stateMutability": "nonpayable",
					"type": "function"
				},
				{
					"inputs": [
						{
							"internalType": "address[]",
							"name": "_users",
							"type": "address[]"
						}
					],
					"name": "AddMultipleEliglibleUser",
					"outputs": [],
					"stateMutability": "nonpayable",
					"type": "function"
				},
				{
					"inputs": [
						{
							"internalType": "address",
							"name": "_user",
							"type": "address"
						}
					],
					"name": "RemoveEligibleUser",
					"outputs": [],
					"stateMutability": "nonpayable",
					"type": "function"
				},
				{
					"inputs": [],
					"name": "lis",
					"outputs": [
						{
							"internalType": "address[]",
							"name": "",
							"type": "address[]"
						}
					],
					"stateMutability": "view",
					"type": "function"
				},
				{
					"inputs": [
						{
							"internalType": "address",
							"name": "_user",
							"type": "address"
						}
					],
					"name": "returndf",
					"outputs": [
						{
							"internalType": "bool",
							"name": "",
							"type": "bool"
						}
					],
					"stateMutability": "view",
					"type": "function"
				}
			],
			"devdoc": {
				"kind": "dev",
				"methods": {},
				"version": 1
			},
			"evm": {
				"assembly": "    /* \"contracts/duationclaim.sol\":60:1967  contract DurationTest{... */\n  mstore(0x40, 0xa0)\n    /* \"contracts/duationclaim.sol\":122:164  0x5B38Da6a701c568545dCfcB03FcB875f56beddC4 */\n  0x5b38da6a701c568545dcfcb03fcb875f56beddc4\n    /* \"contracts/duationclaim.sol\":88:164  address immutable private admin = 0x5B38Da6a701c568545dCfcB03FcB875f56beddC4 */\n  0xffffffffffffffffffffffffffffffffffffffff\n  and\n  0x80\n  swap1\n  0xffffffffffffffffffffffffffffffffffffffff\n  and\n  dup2\n  mstore\n  pop\n    /* \"contracts/duationclaim.sol\":60:1967  contract DurationTest{... */\n  callvalue\n  dup1\n  iszero\n  tag_1\n  jumpi\n  0x00\n  dup1\n  revert\ntag_1:\n  pop\n  mload(0x80)\n  codecopy(0x00, dataOffset(sub_0), dataSize(sub_0))\n  0x00\n  assignImmutable(\"0x13600b294191fc92924bb3ce4b969c1e7e2bab8f4c93c3fc6d0a51733df3c060\")\n  return(0x00, dataSize(sub_0))\nstop\n\nsub_0: assembly {\n        /* \"contracts/duationclaim.sol\":60:1967  contract DurationTest{... */\n      mstore(0x40, 0x80)\n      callvalue\n      dup1\n      iszero\n      tag_1\n      jumpi\n      0x00\n      dup1\n      revert\n    tag_1:\n      pop\n      jumpi(tag_2, lt(calldatasize, 0x04))\n      shr(0xe0, calldataload(0x00))\n      dup1\n      0x5e0ca3b9\n      eq\n      tag_3\n      jumpi\n      dup1\n      0x7a6d918e\n      eq\n      tag_4\n      jumpi\n      dup1\n      0x7eca453d\n      eq\n      tag_5\n      jumpi\n      dup1\n      0xb70cbe35\n      eq\n      tag_6\n      jumpi\n      dup1\n      0xb7f7e6f0\n      eq\n      tag_7\n      jumpi\n    tag_2:\n      0x00\n      dup1\n      revert\n        /* \"contracts/duationclaim.sol\":878:1359  function RemoveEligibleUser(address _user) external {... */\n    tag_3:\n      tag_8\n      0x04\n      dup1\n      calldatasize\n      sub\n      dup2\n      add\n      swap1\n      tag_9\n      swap2\n      swap1\n      tag_10\n      jump\t// in\n    tag_9:\n      tag_11\n      jump\t// in\n    tag_8:\n      stop\n        /* \"contracts/duationclaim.sol\":287:529  function AddEligibleUser(address _user) external onlyAdmin{... */\n    tag_4:\n      tag_12\n      0x04\n      dup1\n      calldatasize\n      sub\n      dup2\n      add\n      swap1\n      tag_13\n      swap2\n      swap1\n      tag_10\n      jump\t// in\n    tag_13:\n      tag_14\n      jump\t// in\n    tag_12:\n      stop\n        /* \"contracts/duationclaim.sol\":1639:1732  function lis() external view returns(address[] memory){... */\n    tag_5:\n      tag_15\n      tag_16\n      jump\t// in\n    tag_15:\n      mload(0x40)\n      tag_17\n      swap2\n      swap1\n      tag_18\n      jump\t// in\n    tag_17:\n      mload(0x40)\n      dup1\n      swap2\n      sub\n      swap1\n      return\n        /* \"contracts/duationclaim.sol\":1738:1842  function returndf(address _user) external view returns(bool) {... */\n    tag_6:\n      tag_19\n      0x04\n      dup1\n      calldatasize\n      sub\n      dup2\n      add\n      swap1\n      tag_20\n      swap2\n      swap1\n      tag_10\n      jump\t// in\n    tag_20:\n      tag_21\n      jump\t// in\n    tag_19:\n      mload(0x40)\n      tag_22\n      swap2\n      swap1\n      tag_23\n      jump\t// in\n    tag_22:\n      mload(0x40)\n      dup1\n      swap2\n      sub\n      swap1\n      return\n        /* \"contracts/duationclaim.sol\":535:871  function AddMultipleEliglibleUser(address[] memory _users) external  onlyAdmin{... */\n    tag_7:\n      tag_24\n      0x04\n      dup1\n      calldatasize\n      sub\n      dup2\n      add\n      swap1\n      tag_25\n      swap2\n      swap1\n      tag_26\n      jump\t// in\n    tag_25:\n      tag_27\n      jump\t// in\n    tag_24:\n      stop\n        /* \"contracts/duationclaim.sol\":878:1359  function RemoveEligibleUser(address _user) external {... */\n    tag_11:\n        /* \"contracts/duationclaim.sol\":940:949  uint _len */\n      0x00\n        /* \"contracts/duationclaim.sol\":952:967  EligibleUserArr */\n      0x01\n        /* \"contracts/duationclaim.sol\":952:974  EligibleUserArr.length */\n      dup1\n      sload\n      swap1\n      pop\n        /* \"contracts/duationclaim.sol\":940:974  uint _len = EligibleUserArr.length */\n      swap1\n      pop\n        /* \"contracts/duationclaim.sol\":990:998  uint16 i */\n      0x00\n        /* \"contracts/duationclaim.sol\":985:1317  for( uint16 i; i < _len; i++){... */\n    tag_29:\n        /* \"contracts/duationclaim.sol\":1004:1008  _len */\n      dup2\n        /* \"contracts/duationclaim.sol\":1000:1001  i */\n      dup2\n        /* \"contracts/duationclaim.sol\":1000:1008  i < _len */\n      0xffff\n      and\n      lt\n        /* \"contracts/duationclaim.sol\":985:1317  for( uint16 i; i < _len; i++){... */\n      iszero\n      tag_30\n      jumpi\n        /* \"contracts/duationclaim.sol\":1074:1079  _user */\n      dup3\n        /* \"contracts/duationclaim.sol\":1052:1079  EligibleUserArr[i] == _user */\n      0xffffffffffffffffffffffffffffffffffffffff\n      and\n        /* \"contracts/duationclaim.sol\":1052:1067  EligibleUserArr */\n      0x01\n        /* \"contracts/duationclaim.sol\":1068:1069  i */\n      dup3\n        /* \"contracts/duationclaim.sol\":1052:1070  EligibleUserArr[i] */\n      0xffff\n      and\n      dup2\n      sload\n      dup2\n      lt\n      tag_32\n      jumpi\n      tag_33\n      tag_34\n      jump\t// in\n    tag_33:\n    tag_32:\n      swap1\n      0x00\n      mstore\n      keccak256(0x00, 0x20)\n      add\n      0x00\n      swap1\n      sload\n      swap1\n      0x0100\n      exp\n      swap1\n      div\n      0xffffffffffffffffffffffffffffffffffffffff\n      and\n        /* \"contracts/duationclaim.sol\":1052:1079  EligibleUserArr[i] == _user */\n      0xffffffffffffffffffffffffffffffffffffffff\n      and\n      sub\n        /* \"contracts/duationclaim.sol\":1048:1307  if( EligibleUserArr[i] == _user ){... */\n      tag_36\n      jumpi\n        /* \"contracts/duationclaim.sol\":1139:1147  uint16 j */\n      0x00\n        /* \"contracts/duationclaim.sol\":1150:1151  i */\n      dup2\n        /* \"contracts/duationclaim.sol\":1139:1151  uint16 j = i */\n      swap1\n      pop\n        /* \"contracts/duationclaim.sol\":1133:1254  for ( uint16 j = i; j < _len - 1; j++ ){... */\n    tag_37:\n        /* \"contracts/duationclaim.sol\":1164:1165  1 */\n      0x01\n        /* \"contracts/duationclaim.sol\":1157:1161  _len */\n      dup4\n        /* \"contracts/duationclaim.sol\":1157:1165  _len - 1 */\n      tag_40\n      swap2\n      swap1\n      tag_41\n      jump\t// in\n    tag_40:\n        /* \"contracts/duationclaim.sol\":1153:1154  j */\n      dup2\n        /* \"contracts/duationclaim.sol\":1153:1165  j < _len - 1 */\n      0xffff\n      and\n      lt\n        /* \"contracts/duationclaim.sol\":1133:1254  for ( uint16 j = i; j < _len - 1; j++ ){... */\n      iszero\n      tag_38\n      jumpi\n        /* \"contracts/duationclaim.sol\":1215:1230  EligibleUserArr */\n      0x01\n        /* \"contracts/duationclaim.sol\":1233:1234  1 */\n      dup1\n        /* \"contracts/duationclaim.sol\":1231:1232  j */\n      dup3\n        /* \"contracts/duationclaim.sol\":1231:1234  j+1 */\n      tag_42\n      swap2\n      swap1\n      tag_43\n      jump\t// in\n    tag_42:\n        /* \"contracts/duationclaim.sol\":1215:1235  EligibleUserArr[j+1] */\n      0xffff\n      and\n      dup2\n      sload\n      dup2\n      lt\n      tag_44\n      jumpi\n      tag_45\n      tag_34\n      jump\t// in\n    tag_45:\n    tag_44:\n      swap1\n      0x00\n      mstore\n      keccak256(0x00, 0x20)\n      add\n      0x00\n      swap1\n      sload\n      swap1\n      0x0100\n      exp\n      swap1\n      div\n      0xffffffffffffffffffffffffffffffffffffffff\n      and\n        /* \"contracts/duationclaim.sol\":1194:1209  EligibleUserArr */\n      0x01\n        /* \"contracts/duationclaim.sol\":1210:1211  j */\n      dup3\n        /* \"contracts/duationclaim.sol\":1194:1212  EligibleUserArr[j] */\n      0xffff\n      and\n      dup2\n      sload\n      dup2\n      lt\n      tag_47\n      jumpi\n      tag_48\n      tag_34\n      jump\t// in\n    tag_48:\n    tag_47:\n      swap1\n      0x00\n      mstore\n      keccak256(0x00, 0x20)\n      add\n      0x00\n        /* \"contracts/duationclaim.sol\":1194:1235  EligibleUserArr[j] = EligibleUserArr[j+1] */\n      0x0100\n      exp\n      dup2\n      sload\n      dup2\n      0xffffffffffffffffffffffffffffffffffffffff\n      mul\n      not\n      and\n      swap1\n      dup4\n      0xffffffffffffffffffffffffffffffffffffffff\n      and\n      mul\n      or\n      swap1\n      sstore\n      pop\n        /* \"contracts/duationclaim.sol\":1167:1170  j++ */\n      dup1\n      dup1\n      tag_50\n      swap1\n      tag_51\n      jump\t// in\n    tag_50:\n      swap2\n      pop\n      pop\n        /* \"contracts/duationclaim.sol\":1133:1254  for ( uint16 j = i; j < _len - 1; j++ ){... */\n      jump(tag_37)\n    tag_38:\n      pop\n        /* \"contracts/duationclaim.sol\":1271:1286  EligibleUserArr */\n      0x01\n        /* \"contracts/duationclaim.sol\":1271:1292  EligibleUserArr.pop() */\n      dup1\n      sload\n      dup1\n      tag_52\n      jumpi\n      tag_53\n      tag_54\n      jump\t// in\n    tag_53:\n    tag_52:\n      0x01\n      swap1\n      sub\n      dup2\n      dup2\n      swap1\n      0x00\n      mstore\n      keccak256(0x00, 0x20)\n      add\n      exp(0x0100, 0x00)\n      dup2\n      sload\n      swap1\n      0xffffffffffffffffffffffffffffffffffffffff\n      mul\n      not\n      and\n      swap1\n      sstore\n      swap1\n      sstore\n        /* \"contracts/duationclaim.sol\":1048:1307  if( EligibleUserArr[i] == _user ){... */\n    tag_36:\n        /* \"contracts/duationclaim.sol\":1010:1013  i++ */\n      dup1\n      dup1\n      tag_56\n      swap1\n      tag_51\n      jump\t// in\n    tag_56:\n      swap2\n      pop\n      pop\n        /* \"contracts/duationclaim.sol\":985:1317  for( uint16 i; i < _len; i++){... */\n      jump(tag_29)\n    tag_30:\n      pop\n        /* \"contracts/duationclaim.sol\":1333:1345  EligibleUser */\n      0x00\n        /* \"contracts/duationclaim.sol\":1333:1352  EligibleUser[_user] */\n      dup1\n        /* \"contracts/duationclaim.sol\":1346:1351  _user */\n      dup4\n        /* \"contracts/duationclaim.sol\":1333:1352  EligibleUser[_user] */\n      0xffffffffffffffffffffffffffffffffffffffff\n      and\n      0xffffffffffffffffffffffffffffffffffffffff\n      and\n      dup2\n      mstore\n      0x20\n      add\n      swap1\n      dup2\n      mstore\n      0x20\n      add\n      0x00\n      keccak256\n      0x00\n        /* \"contracts/duationclaim.sol\":1326:1352  delete EligibleUser[_user] */\n      0x0100\n      exp\n      dup2\n      sload\n      swap1\n      0xff\n      mul\n      not\n      and\n      swap1\n      sstore\n        /* \"contracts/duationclaim.sol\":930:1359  {... */\n      pop\n        /* \"contracts/duationclaim.sol\":878:1359  function RemoveEligibleUser(address _user) external {... */\n      pop\n      jump\t// out\n        /* \"contracts/duationclaim.sol\":287:529  function AddEligibleUser(address _user) external onlyAdmin{... */\n    tag_14:\n        /* \"contracts/duationclaim.sol\":1896:1906  msg.sender */\n      caller\n        /* \"contracts/duationclaim.sol\":1887:1906  admin == msg.sender */\n      0xffffffffffffffffffffffffffffffffffffffff\n      and\n        /* \"contracts/duationclaim.sol\":1887:1892  admin */\n      immutable(\"0x13600b294191fc92924bb3ce4b969c1e7e2bab8f4c93c3fc6d0a51733df3c060\")\n        /* \"contracts/duationclaim.sol\":1887:1906  admin == msg.sender */\n      0xffffffffffffffffffffffffffffffffffffffff\n      and\n      eq\n        /* \"contracts/duationclaim.sol\":1879:1946  require(admin == msg.sender, \"only admin can invoke this function\") */\n      tag_58\n      jumpi\n      mload(0x40)\n      0x08c379a000000000000000000000000000000000000000000000000000000000\n      dup2\n      mstore\n      0x04\n      add\n      tag_59\n      swap1\n      tag_60\n      jump\t// in\n    tag_59:\n      mload(0x40)\n      dup1\n      swap2\n      sub\n      swap1\n      revert\n    tag_58:\n        /* \"contracts/duationclaim.sol\":358:370  EligibleUser */\n      0x00\n        /* \"contracts/duationclaim.sol\":358:377  EligibleUser[_user] */\n      dup1\n        /* \"contracts/duationclaim.sol\":371:376  _user */\n      dup3\n        /* \"contracts/duationclaim.sol\":358:377  EligibleUser[_user] */\n      0xffffffffffffffffffffffffffffffffffffffff\n      and\n      0xffffffffffffffffffffffffffffffffffffffff\n      and\n      dup2\n      mstore\n      0x20\n      add\n      swap1\n      dup2\n      mstore\n      0x20\n      add\n      0x00\n      keccak256\n      0x00\n      swap1\n      sload\n      swap1\n      0x0100\n      exp\n      swap1\n      div\n      0xff\n      and\n        /* \"contracts/duationclaim.sol\":355:442  if(EligibleUser[_user]){... */\n      iszero\n      tag_62\n      jumpi\n        /* \"contracts/duationclaim.sol\":399:431  DuplicateUserAdded(\"User exist\") */\n      mload(0x40)\n      0x0e64c65800000000000000000000000000000000000000000000000000000000\n      dup2\n      mstore\n      0x04\n      add\n      tag_63\n      swap1\n      tag_64\n      jump\t// in\n    tag_63:\n      mload(0x40)\n      dup1\n      swap2\n      sub\n      swap1\n      revert\n        /* \"contracts/duationclaim.sol\":355:442  if(EligibleUser[_user]){... */\n    tag_62:\n        /* \"contracts/duationclaim.sol\":477:481  true */\n      0x01\n        /* \"contracts/duationclaim.sol\":455:467  EligibleUser */\n      0x00\n        /* \"contracts/duationclaim.sol\":455:474  EligibleUser[_user] */\n      dup1\n        /* \"contracts/duationclaim.sol\":468:473  _user */\n      dup4\n        /* \"contracts/duationclaim.sol\":455:474  EligibleUser[_user] */\n      0xffffffffffffffffffffffffffffffffffffffff\n      and\n      0xffffffffffffffffffffffffffffffffffffffff\n      and\n      dup2\n      mstore\n      0x20\n      add\n      swap1\n      dup2\n      mstore\n      0x20\n      add\n      0x00\n      keccak256\n      0x00\n        /* \"contracts/duationclaim.sol\":455:481  EligibleUser[_user] = true */\n      0x0100\n      exp\n      dup2\n      sload\n      dup2\n      0xff\n      mul\n      not\n      and\n      swap1\n      dup4\n      iszero\n      iszero\n      mul\n      or\n      swap1\n      sstore\n      pop\n        /* \"contracts/duationclaim.sol\":495:510  EligibleUserArr */\n      0x01\n        /* \"contracts/duationclaim.sol\":516:521  _user */\n      dup2\n        /* \"contracts/duationclaim.sol\":495:522  EligibleUserArr.push(_user) */\n      swap1\n      dup1\n      0x01\n      dup2\n      sload\n      add\n      dup1\n      dup3\n      sstore\n      dup1\n      swap2\n      pop\n      pop\n      0x01\n      swap1\n      sub\n      swap1\n      0x00\n      mstore\n      keccak256(0x00, 0x20)\n      add\n      0x00\n      swap1\n      swap2\n      swap1\n      swap2\n      swap1\n      swap2\n      0x0100\n      exp\n      dup2\n      sload\n      dup2\n      0xffffffffffffffffffffffffffffffffffffffff\n      mul\n      not\n      and\n      swap1\n      dup4\n      0xffffffffffffffffffffffffffffffffffffffff\n      and\n      mul\n      or\n      swap1\n      sstore\n      pop\n        /* \"contracts/duationclaim.sol\":287:529  function AddEligibleUser(address _user) external onlyAdmin{... */\n      pop\n      jump\t// out\n        /* \"contracts/duationclaim.sol\":1639:1732  function lis() external view returns(address[] memory){... */\n    tag_16:\n        /* \"contracts/duationclaim.sol\":1676:1692  address[] memory */\n      0x60\n        /* \"contracts/duationclaim.sol\":1710:1725  EligibleUserArr */\n      0x01\n        /* \"contracts/duationclaim.sol\":1703:1725  return EligibleUserArr */\n      dup1\n      sload\n      dup1\n      0x20\n      mul\n      0x20\n      add\n      mload(0x40)\n      swap1\n      dup2\n      add\n      0x40\n      mstore\n      dup1\n      swap3\n      swap2\n      swap1\n      dup2\n      dup2\n      mstore\n      0x20\n      add\n      dup3\n      dup1\n      sload\n      dup1\n      iszero\n      tag_67\n      jumpi\n      0x20\n      mul\n      dup3\n      add\n      swap2\n      swap1\n      0x00\n      mstore\n      keccak256(0x00, 0x20)\n      swap1\n    tag_68:\n      dup2\n      0x00\n      swap1\n      sload\n      swap1\n      0x0100\n      exp\n      swap1\n      div\n      0xffffffffffffffffffffffffffffffffffffffff\n      and\n      0xffffffffffffffffffffffffffffffffffffffff\n      and\n      dup2\n      mstore\n      0x20\n      add\n      swap1\n      0x01\n      add\n      swap1\n      dup1\n      dup4\n      gt\n      tag_68\n      jumpi\n    tag_67:\n      pop\n      pop\n      pop\n      pop\n      pop\n      swap1\n      pop\n        /* \"contracts/duationclaim.sol\":1639:1732  function lis() external view returns(address[] memory){... */\n      swap1\n      jump\t// out\n        /* \"contracts/duationclaim.sol\":1738:1842  function returndf(address _user) external view returns(bool) {... */\n    tag_21:\n        /* \"contracts/duationclaim.sol\":1793:1797  bool */\n      0x00\n        /* \"contracts/duationclaim.sol\":1816:1828  EligibleUser */\n      dup1\n        /* \"contracts/duationclaim.sol\":1816:1835  EligibleUser[_user] */\n      0x00\n        /* \"contracts/duationclaim.sol\":1829:1834  _user */\n      dup4\n        /* \"contracts/duationclaim.sol\":1816:1835  EligibleUser[_user] */\n      0xffffffffffffffffffffffffffffffffffffffff\n      and\n      0xffffffffffffffffffffffffffffffffffffffff\n      and\n      dup2\n      mstore\n      0x20\n      add\n      swap1\n      dup2\n      mstore\n      0x20\n      add\n      0x00\n      keccak256\n      0x00\n      swap1\n      sload\n      swap1\n      0x0100\n      exp\n      swap1\n      div\n      0xff\n      and\n        /* \"contracts/duationclaim.sol\":1809:1835  return EligibleUser[_user] */\n      swap1\n      pop\n        /* \"contracts/duationclaim.sol\":1738:1842  function returndf(address _user) external view returns(bool) {... */\n      swap2\n      swap1\n      pop\n      jump\t// out\n        /* \"contracts/duationclaim.sol\":535:871  function AddMultipleEliglibleUser(address[] memory _users) external  onlyAdmin{... */\n    tag_27:\n        /* \"contracts/duationclaim.sol\":1896:1906  msg.sender */\n      caller\n        /* \"contracts/duationclaim.sol\":1887:1906  admin == msg.sender */\n      0xffffffffffffffffffffffffffffffffffffffff\n      and\n        /* \"contracts/duationclaim.sol\":1887:1892  admin */\n      immutable(\"0x13600b294191fc92924bb3ce4b969c1e7e2bab8f4c93c3fc6d0a51733df3c060\")\n        /* \"contracts/duationclaim.sol\":1887:1906  admin == msg.sender */\n      0xffffffffffffffffffffffffffffffffffffffff\n      and\n      eq\n        /* \"contracts/duationclaim.sol\":1879:1946  require(admin == msg.sender, \"only admin can invoke this function\") */\n      tag_71\n      jumpi\n      mload(0x40)\n      0x08c379a000000000000000000000000000000000000000000000000000000000\n      dup2\n      mstore\n      0x04\n      add\n      tag_72\n      swap1\n      tag_60\n      jump\t// in\n    tag_72:\n      mload(0x40)\n      dup1\n      swap2\n      sub\n      swap1\n      revert\n    tag_71:\n        /* \"contracts/duationclaim.sol\":628:636  uint16 i */\n      0x00\n        /* \"contracts/duationclaim.sol\":623:857  for( uint16 i; i < _users.length; i++){... */\n    tag_74:\n        /* \"contracts/duationclaim.sol\":642:648  _users */\n      dup2\n        /* \"contracts/duationclaim.sol\":642:655  _users.length */\n      mload\n        /* \"contracts/duationclaim.sol\":638:639  i */\n      dup2\n        /* \"contracts/duationclaim.sol\":638:655  i < _users.length */\n      0xffff\n      and\n      lt\n        /* \"contracts/duationclaim.sol\":623:857  for( uint16 i; i < _users.length; i++){... */\n      iszero\n      tag_75\n      jumpi\n        /* \"contracts/duationclaim.sol\":692:704  EligibleUser */\n      0x00\n        /* \"contracts/duationclaim.sol\":692:715  EligibleUser[_users[i]] */\n      dup1\n        /* \"contracts/duationclaim.sol\":705:711  _users */\n      dup4\n        /* \"contracts/duationclaim.sol\":712:713  i */\n      dup4\n        /* \"contracts/duationclaim.sol\":705:714  _users[i] */\n      0xffff\n      and\n      dup2\n      mload\n      dup2\n      lt\n      tag_77\n      jumpi\n      tag_78\n      tag_34\n      jump\t// in\n    tag_78:\n    tag_77:\n      0x20\n      mul\n      0x20\n      add\n      add\n      mload\n        /* \"contracts/duationclaim.sol\":692:715  EligibleUser[_users[i]] */\n      0xffffffffffffffffffffffffffffffffffffffff\n      and\n      0xffffffffffffffffffffffffffffffffffffffff\n      and\n      dup2\n      mstore\n      0x20\n      add\n      swap1\n      dup2\n      mstore\n      0x20\n      add\n      0x00\n      keccak256\n      0x00\n      swap1\n      sload\n      swap1\n      0x0100\n      exp\n      swap1\n      div\n      0xff\n      and\n        /* \"contracts/duationclaim.sol\":734:742  continue */\n      tag_76\n        /* \"contracts/duationclaim.sol\":689:757  if(EligibleUser[_users[i]]){... */\n      jumpi\n        /* \"contracts/duationclaim.sol\":797:801  true */\n      0x01\n        /* \"contracts/duationclaim.sol\":771:783  EligibleUser */\n      0x00\n        /* \"contracts/duationclaim.sol\":771:794  EligibleUser[_users[i]] */\n      dup1\n        /* \"contracts/duationclaim.sol\":784:790  _users */\n      dup5\n        /* \"contracts/duationclaim.sol\":791:792  i */\n      dup5\n        /* \"contracts/duationclaim.sol\":784:793  _users[i] */\n      0xffff\n      and\n      dup2\n      mload\n      dup2\n      lt\n      tag_80\n      jumpi\n      tag_81\n      tag_34\n      jump\t// in\n    tag_81:\n    tag_80:\n      0x20\n      mul\n      0x20\n      add\n      add\n      mload\n        /* \"contracts/duationclaim.sol\":771:794  EligibleUser[_users[i]] */\n      0xffffffffffffffffffffffffffffffffffffffff\n      and\n      0xffffffffffffffffffffffffffffffffffffffff\n      and\n      dup2\n      mstore\n      0x20\n      add\n      swap1\n      dup2\n      mstore\n      0x20\n      add\n      0x00\n      keccak256\n      0x00\n        /* \"contracts/duationclaim.sol\":771:801  EligibleUser[_users[i]] = true */\n      0x0100\n      exp\n      dup2\n      sload\n      dup2\n      0xff\n      mul\n      not\n      and\n      swap1\n      dup4\n      iszero\n      iszero\n      mul\n      or\n      swap1\n      sstore\n      pop\n        /* \"contracts/duationclaim.sol\":815:830  EligibleUserArr */\n      0x01\n        /* \"contracts/duationclaim.sol\":836:842  _users */\n      dup3\n        /* \"contracts/duationclaim.sol\":843:844  i */\n      dup3\n        /* \"contracts/duationclaim.sol\":836:845  _users[i] */\n      0xffff\n      and\n      dup2\n      mload\n      dup2\n      lt\n      tag_82\n      jumpi\n      tag_83\n      tag_34\n      jump\t// in\n    tag_83:\n    tag_82:\n      0x20\n      mul\n      0x20\n      add\n      add\n      mload\n        /* \"contracts/duationclaim.sol\":815:846  EligibleUserArr.push(_users[i]) */\n      swap1\n      dup1\n      0x01\n      dup2\n      sload\n      add\n      dup1\n      dup3\n      sstore\n      dup1\n      swap2\n      pop\n      pop\n      0x01\n      swap1\n      sub\n      swap1\n      0x00\n      mstore\n      keccak256(0x00, 0x20)\n      add\n      0x00\n      swap1\n      swap2\n      swap1\n      swap2\n      swap1\n      swap2\n      0x0100\n      exp\n      dup2\n      sload\n      dup2\n      0xffffffffffffffffffffffffffffffffffffffff\n      mul\n      not\n      and\n      swap1\n      dup4\n      0xffffffffffffffffffffffffffffffffffffffff\n      and\n      mul\n      or\n      swap1\n      sstore\n      pop\n        /* \"contracts/duationclaim.sol\":623:857  for( uint16 i; i < _users.length; i++){... */\n    tag_76:\n        /* \"contracts/duationclaim.sol\":657:660  i++ */\n      dup1\n      dup1\n      tag_85\n      swap1\n      tag_51\n      jump\t// in\n    tag_85:\n      swap2\n      pop\n      pop\n        /* \"contracts/duationclaim.sol\":623:857  for( uint16 i; i < _users.length; i++){... */\n      jump(tag_74)\n    tag_75:\n      pop\n        /* \"contracts/duationclaim.sol\":535:871  function AddMultipleEliglibleUser(address[] memory _users) external  onlyAdmin{... */\n      pop\n      jump\t// out\n        /* \"#utility.yul\":7:82   */\n    tag_86:\n        /* \"#utility.yul\":40:46   */\n      0x00\n        /* \"#utility.yul\":73:75   */\n      0x40\n        /* \"#utility.yul\":67:76   */\n      mload\n        /* \"#utility.yul\":57:76   */\n      swap1\n      pop\n        /* \"#utility.yul\":7:82   */\n      swap1\n      jump\t// out\n        /* \"#utility.yul\":88:205   */\n    tag_87:\n        /* \"#utility.yul\":197:198   */\n      0x00\n        /* \"#utility.yul\":194:195   */\n      dup1\n        /* \"#utility.yul\":187:199   */\n      revert\n        /* \"#utility.yul\":211:328   */\n    tag_88:\n        /* \"#utility.yul\":320:321   */\n      0x00\n        /* \"#utility.yul\":317:318   */\n      dup1\n        /* \"#utility.yul\":310:322   */\n      revert\n        /* \"#utility.yul\":334:460   */\n    tag_89:\n        /* \"#utility.yul\":371:378   */\n      0x00\n        /* \"#utility.yul\":411:453   */\n      0xffffffffffffffffffffffffffffffffffffffff\n        /* \"#utility.yul\":404:409   */\n      dup3\n        /* \"#utility.yul\":400:454   */\n      and\n        /* \"#utility.yul\":389:454   */\n      swap1\n      pop\n        /* \"#utility.yul\":334:460   */\n      swap2\n      swap1\n      pop\n      jump\t// out\n        /* \"#utility.yul\":466:562   */\n    tag_90:\n        /* \"#utility.yul\":503:510   */\n      0x00\n        /* \"#utility.yul\":532:556   */\n      tag_125\n        /* \"#utility.yul\":550:555   */\n      dup3\n        /* \"#utility.yul\":532:556   */\n      tag_89\n      jump\t// in\n    tag_125:\n        /* \"#utility.yul\":521:556   */\n      swap1\n      pop\n        /* \"#utility.yul\":466:562   */\n      swap2\n      swap1\n      pop\n      jump\t// out\n        /* \"#utility.yul\":568:690   */\n    tag_91:\n        /* \"#utility.yul\":641:665   */\n      tag_127\n        /* \"#utility.yul\":659:664   */\n      dup2\n        /* \"#utility.yul\":641:665   */\n      tag_90\n      jump\t// in\n    tag_127:\n        /* \"#utility.yul\":634:639   */\n      dup2\n        /* \"#utility.yul\":631:666   */\n      eq\n        /* \"#utility.yul\":621:684   */\n      tag_128\n      jumpi\n        /* \"#utility.yul\":680:681   */\n      0x00\n        /* \"#utility.yul\":677:678   */\n      dup1\n        /* \"#utility.yul\":670:682   */\n      revert\n        /* \"#utility.yul\":621:684   */\n    tag_128:\n        /* \"#utility.yul\":568:690   */\n      pop\n      jump\t// out\n        /* \"#utility.yul\":696:835   */\n    tag_92:\n        /* \"#utility.yul\":742:747   */\n      0x00\n        /* \"#utility.yul\":780:786   */\n      dup2\n        /* \"#utility.yul\":767:787   */\n      calldataload\n        /* \"#utility.yul\":758:787   */\n      swap1\n      pop\n        /* \"#utility.yul\":796:829   */\n      tag_130\n        /* \"#utility.yul\":823:828   */\n      dup2\n        /* \"#utility.yul\":796:829   */\n      tag_91\n      jump\t// in\n    tag_130:\n        /* \"#utility.yul\":696:835   */\n      swap3\n      swap2\n      pop\n      pop\n      jump\t// out\n        /* \"#utility.yul\":841:1170   */\n    tag_10:\n        /* \"#utility.yul\":900:906   */\n      0x00\n        /* \"#utility.yul\":949:951   */\n      0x20\n        /* \"#utility.yul\":937:946   */\n      dup3\n        /* \"#utility.yul\":928:935   */\n      dup5\n        /* \"#utility.yul\":924:947   */\n      sub\n        /* \"#utility.yul\":920:952   */\n      slt\n        /* \"#utility.yul\":917:1036   */\n      iszero\n      tag_132\n      jumpi\n        /* \"#utility.yul\":955:1034   */\n      tag_133\n      tag_87\n      jump\t// in\n    tag_133:\n        /* \"#utility.yul\":917:1036   */\n    tag_132:\n        /* \"#utility.yul\":1075:1076   */\n      0x00\n        /* \"#utility.yul\":1100:1153   */\n      tag_134\n        /* \"#utility.yul\":1145:1152   */\n      dup5\n        /* \"#utility.yul\":1136:1142   */\n      dup3\n        /* \"#utility.yul\":1125:1134   */\n      dup6\n        /* \"#utility.yul\":1121:1143   */\n      add\n        /* \"#utility.yul\":1100:1153   */\n      tag_92\n      jump\t// in\n    tag_134:\n        /* \"#utility.yul\":1090:1153   */\n      swap2\n      pop\n        /* \"#utility.yul\":1046:1163   */\n      pop\n        /* \"#utility.yul\":841:1170   */\n      swap3\n      swap2\n      pop\n      pop\n      jump\t// out\n        /* \"#utility.yul\":1176:1290   */\n    tag_93:\n        /* \"#utility.yul\":1243:1249   */\n      0x00\n        /* \"#utility.yul\":1277:1282   */\n      dup2\n        /* \"#utility.yul\":1271:1283   */\n      mload\n        /* \"#utility.yul\":1261:1283   */\n      swap1\n      pop\n        /* \"#utility.yul\":1176:1290   */\n      swap2\n      swap1\n      pop\n      jump\t// out\n        /* \"#utility.yul\":1296:1480   */\n    tag_94:\n        /* \"#utility.yul\":1395:1406   */\n      0x00\n        /* \"#utility.yul\":1429:1435   */\n      dup3\n        /* \"#utility.yul\":1424:1427   */\n      dup3\n        /* \"#utility.yul\":1417:1436   */\n      mstore\n        /* \"#utility.yul\":1469:1473   */\n      0x20\n        /* \"#utility.yul\":1464:1467   */\n      dup3\n        /* \"#utility.yul\":1460:1474   */\n      add\n        /* \"#utility.yul\":1445:1474   */\n      swap1\n      pop\n        /* \"#utility.yul\":1296:1480   */\n      swap3\n      swap2\n      pop\n      pop\n      jump\t// out\n        /* \"#utility.yul\":1486:1618   */\n    tag_95:\n        /* \"#utility.yul\":1553:1557   */\n      0x00\n        /* \"#utility.yul\":1576:1579   */\n      dup2\n        /* \"#utility.yul\":1568:1579   */\n      swap1\n      pop\n        /* \"#utility.yul\":1606:1610   */\n      0x20\n        /* \"#utility.yul\":1601:1604   */\n      dup3\n        /* \"#utility.yul\":1597:1611   */\n      add\n        /* \"#utility.yul\":1589:1611   */\n      swap1\n      pop\n        /* \"#utility.yul\":1486:1618   */\n      swap2\n      swap1\n      pop\n      jump\t// out\n        /* \"#utility.yul\":1624:1732   */\n    tag_96:\n        /* \"#utility.yul\":1701:1725   */\n      tag_139\n        /* \"#utility.yul\":1719:1724   */\n      dup2\n        /* \"#utility.yul\":1701:1725   */\n      tag_90\n      jump\t// in\n    tag_139:\n        /* \"#utility.yul\":1696:1699   */\n      dup3\n        /* \"#utility.yul\":1689:1726   */\n      mstore\n        /* \"#utility.yul\":1624:1732   */\n      pop\n      pop\n      jump\t// out\n        /* \"#utility.yul\":1738:1917   */\n    tag_97:\n        /* \"#utility.yul\":1807:1817   */\n      0x00\n        /* \"#utility.yul\":1828:1874   */\n      tag_141\n        /* \"#utility.yul\":1870:1873   */\n      dup4\n        /* \"#utility.yul\":1862:1868   */\n      dup4\n        /* \"#utility.yul\":1828:1874   */\n      tag_96\n      jump\t// in\n    tag_141:\n        /* \"#utility.yul\":1906:1910   */\n      0x20\n        /* \"#utility.yul\":1901:1904   */\n      dup4\n        /* \"#utility.yul\":1897:1911   */\n      add\n        /* \"#utility.yul\":1883:1911   */\n      swap1\n      pop\n        /* \"#utility.yul\":1738:1917   */\n      swap3\n      swap2\n      pop\n      pop\n      jump\t// out\n        /* \"#utility.yul\":1923:2036   */\n    tag_98:\n        /* \"#utility.yul\":1993:1997   */\n      0x00\n        /* \"#utility.yul\":2025:2029   */\n      0x20\n        /* \"#utility.yul\":2020:2023   */\n      dup3\n        /* \"#utility.yul\":2016:2030   */\n      add\n        /* \"#utility.yul\":2008:2030   */\n      swap1\n      pop\n        /* \"#utility.yul\":1923:2036   */\n      swap2\n      swap1\n      pop\n      jump\t// out\n        /* \"#utility.yul\":2072:2804   */\n    tag_99:\n        /* \"#utility.yul\":2191:2194   */\n      0x00\n        /* \"#utility.yul\":2220:2274   */\n      tag_144\n        /* \"#utility.yul\":2268:2273   */\n      dup3\n        /* \"#utility.yul\":2220:2274   */\n      tag_93\n      jump\t// in\n    tag_144:\n        /* \"#utility.yul\":2290:2376   */\n      tag_145\n        /* \"#utility.yul\":2369:2375   */\n      dup2\n        /* \"#utility.yul\":2364:2367   */\n      dup6\n        /* \"#utility.yul\":2290:2376   */\n      tag_94\n      jump\t// in\n    tag_145:\n        /* \"#utility.yul\":2283:2376   */\n      swap4\n      pop\n        /* \"#utility.yul\":2400:2456   */\n      tag_146\n        /* \"#utility.yul\":2450:2455   */\n      dup4\n        /* \"#utility.yul\":2400:2456   */\n      tag_95\n      jump\t// in\n    tag_146:\n        /* \"#utility.yul\":2479:2486   */\n      dup1\n        /* \"#utility.yul\":2510:2511   */\n      0x00\n        /* \"#utility.yul\":2495:2779   */\n    tag_147:\n        /* \"#utility.yul\":2520:2526   */\n      dup4\n        /* \"#utility.yul\":2517:2518   */\n      dup2\n        /* \"#utility.yul\":2514:2527   */\n      lt\n        /* \"#utility.yul\":2495:2779   */\n      iszero\n      tag_149\n      jumpi\n        /* \"#utility.yul\":2596:2602   */\n      dup2\n        /* \"#utility.yul\":2590:2603   */\n      mload\n        /* \"#utility.yul\":2623:2686   */\n      tag_150\n        /* \"#utility.yul\":2682:2685   */\n      dup9\n        /* \"#utility.yul\":2667:2680   */\n      dup3\n        /* \"#utility.yul\":2623:2686   */\n      tag_97\n      jump\t// in\n    tag_150:\n        /* \"#utility.yul\":2616:2686   */\n      swap8\n      pop\n        /* \"#utility.yul\":2709:2769   */\n      tag_151\n        /* \"#utility.yul\":2762:2768   */\n      dup4\n        /* \"#utility.yul\":2709:2769   */\n      tag_98\n      jump\t// in\n    tag_151:\n        /* \"#utility.yul\":2699:2769   */\n      swap3\n      pop\n        /* \"#utility.yul\":2555:2779   */\n      pop\n        /* \"#utility.yul\":2542:2543   */\n      0x01\n        /* \"#utility.yul\":2539:2540   */\n      dup2\n        /* \"#utility.yul\":2535:2544   */\n      add\n        /* \"#utility.yul\":2530:2544   */\n      swap1\n      pop\n        /* \"#utility.yul\":2495:2779   */\n      jump(tag_147)\n    tag_149:\n        /* \"#utility.yul\":2499:2513   */\n      pop\n        /* \"#utility.yul\":2795:2798   */\n      dup6\n        /* \"#utility.yul\":2788:2798   */\n      swap4\n      pop\n        /* \"#utility.yul\":2196:2804   */\n      pop\n      pop\n      pop\n        /* \"#utility.yul\":2072:2804   */\n      swap3\n      swap2\n      pop\n      pop\n      jump\t// out\n        /* \"#utility.yul\":2810:3183   */\n    tag_18:\n        /* \"#utility.yul\":2953:2957   */\n      0x00\n        /* \"#utility.yul\":2991:2993   */\n      0x20\n        /* \"#utility.yul\":2980:2989   */\n      dup3\n        /* \"#utility.yul\":2976:2994   */\n      add\n        /* \"#utility.yul\":2968:2994   */\n      swap1\n      pop\n        /* \"#utility.yul\":3040:3049   */\n      dup2\n        /* \"#utility.yul\":3034:3038   */\n      dup2\n        /* \"#utility.yul\":3030:3050   */\n      sub\n        /* \"#utility.yul\":3026:3027   */\n      0x00\n        /* \"#utility.yul\":3015:3024   */\n      dup4\n        /* \"#utility.yul\":3011:3028   */\n      add\n        /* \"#utility.yul\":3004:3051   */\n      mstore\n        /* \"#utility.yul\":3068:3176   */\n      tag_153\n        /* \"#utility.yul\":3171:3175   */\n      dup2\n        /* \"#utility.yul\":3162:3168   */\n      dup5\n        /* \"#utility.yul\":3068:3176   */\n      tag_99\n      jump\t// in\n    tag_153:\n        /* \"#utility.yul\":3060:3176   */\n      swap1\n      pop\n        /* \"#utility.yul\":2810:3183   */\n      swap3\n      swap2\n      pop\n      pop\n      jump\t// out\n        /* \"#utility.yul\":3189:3279   */\n    tag_100:\n        /* \"#utility.yul\":3223:3230   */\n      0x00\n        /* \"#utility.yul\":3266:3271   */\n      dup2\n        /* \"#utility.yul\":3259:3272   */\n      iszero\n        /* \"#utility.yul\":3252:3273   */\n      iszero\n        /* \"#utility.yul\":3241:3273   */\n      swap1\n      pop\n        /* \"#utility.yul\":3189:3279   */\n      swap2\n      swap1\n      pop\n      jump\t// out\n        /* \"#utility.yul\":3285:3394   */\n    tag_101:\n        /* \"#utility.yul\":3366:3387   */\n      tag_156\n        /* \"#utility.yul\":3381:3386   */\n      dup2\n        /* \"#utility.yul\":3366:3387   */\n      tag_100\n      jump\t// in\n    tag_156:\n        /* \"#utility.yul\":3361:3364   */\n      dup3\n        /* \"#utility.yul\":3354:3388   */\n      mstore\n        /* \"#utility.yul\":3285:3394   */\n      pop\n      pop\n      jump\t// out\n        /* \"#utility.yul\":3400:3610   */\n    tag_23:\n        /* \"#utility.yul\":3487:3491   */\n      0x00\n        /* \"#utility.yul\":3525:3527   */\n      0x20\n        /* \"#utility.yul\":3514:3523   */\n      dup3\n        /* \"#utility.yul\":3510:3528   */\n      add\n        /* \"#utility.yul\":3502:3528   */\n      swap1\n      pop\n        /* \"#utility.yul\":3538:3603   */\n      tag_158\n        /* \"#utility.yul\":3600:3601   */\n      0x00\n        /* \"#utility.yul\":3589:3598   */\n      dup4\n        /* \"#utility.yul\":3585:3602   */\n      add\n        /* \"#utility.yul\":3576:3582   */\n      dup5\n        /* \"#utility.yul\":3538:3603   */\n      tag_101\n      jump\t// in\n    tag_158:\n        /* \"#utility.yul\":3400:3610   */\n      swap3\n      swap2\n      pop\n      pop\n      jump\t// out\n        /* \"#utility.yul\":3616:3733   */\n    tag_102:\n        /* \"#utility.yul\":3725:3726   */\n      0x00\n        /* \"#utility.yul\":3722:3723   */\n      dup1\n        /* \"#utility.yul\":3715:3727   */\n      revert\n        /* \"#utility.yul\":3739:3841   */\n    tag_103:\n        /* \"#utility.yul\":3780:3786   */\n      0x00\n        /* \"#utility.yul\":3831:3833   */\n      0x1f\n        /* \"#utility.yul\":3827:3834   */\n      not\n        /* \"#utility.yul\":3822:3824   */\n      0x1f\n        /* \"#utility.yul\":3815:3820   */\n      dup4\n        /* \"#utility.yul\":3811:3825   */\n      add\n        /* \"#utility.yul\":3807:3835   */\n      and\n        /* \"#utility.yul\":3797:3835   */\n      swap1\n      pop\n        /* \"#utility.yul\":3739:3841   */\n      swap2\n      swap1\n      pop\n      jump\t// out\n        /* \"#utility.yul\":3847:4027   */\n    tag_104:\n        /* \"#utility.yul\":3895:3972   */\n      0x4e487b7100000000000000000000000000000000000000000000000000000000\n        /* \"#utility.yul\":3892:3893   */\n      0x00\n        /* \"#utility.yul\":3885:3973   */\n      mstore\n        /* \"#utility.yul\":3992:3996   */\n      0x41\n        /* \"#utility.yul\":3989:3990   */\n      0x04\n        /* \"#utility.yul\":3982:3997   */\n      mstore\n        /* \"#utility.yul\":4016:4020   */\n      0x24\n        /* \"#utility.yul\":4013:4014   */\n      0x00\n        /* \"#utility.yul\":4006:4021   */\n      revert\n        /* \"#utility.yul\":4033:4314   */\n    tag_105:\n        /* \"#utility.yul\":4116:4143   */\n      tag_163\n        /* \"#utility.yul\":4138:4142   */\n      dup3\n        /* \"#utility.yul\":4116:4143   */\n      tag_103\n      jump\t// in\n    tag_163:\n        /* \"#utility.yul\":4108:4114   */\n      dup2\n        /* \"#utility.yul\":4104:4144   */\n      add\n        /* \"#utility.yul\":4246:4252   */\n      dup2\n        /* \"#utility.yul\":4234:4244   */\n      dup2\n        /* \"#utility.yul\":4231:4253   */\n      lt\n        /* \"#utility.yul\":4210:4228   */\n      0xffffffffffffffff\n        /* \"#utility.yul\":4198:4208   */\n      dup3\n        /* \"#utility.yul\":4195:4229   */\n      gt\n        /* \"#utility.yul\":4192:4254   */\n      or\n        /* \"#utility.yul\":4189:4277   */\n      iszero\n      tag_164\n      jumpi\n        /* \"#utility.yul\":4257:4275   */\n      tag_165\n      tag_104\n      jump\t// in\n    tag_165:\n        /* \"#utility.yul\":4189:4277   */\n    tag_164:\n        /* \"#utility.yul\":4297:4307   */\n      dup1\n        /* \"#utility.yul\":4293:4295   */\n      0x40\n        /* \"#utility.yul\":4286:4308   */\n      mstore\n        /* \"#utility.yul\":4076:4314   */\n      pop\n        /* \"#utility.yul\":4033:4314   */\n      pop\n      pop\n      jump\t// out\n        /* \"#utility.yul\":4320:4449   */\n    tag_106:\n        /* \"#utility.yul\":4354:4360   */\n      0x00\n        /* \"#utility.yul\":4381:4401   */\n      tag_167\n      tag_86\n      jump\t// in\n    tag_167:\n        /* \"#utility.yul\":4371:4401   */\n      swap1\n      pop\n        /* \"#utility.yul\":4410:4443   */\n      tag_168\n        /* \"#utility.yul\":4438:4442   */\n      dup3\n        /* \"#utility.yul\":4430:4436   */\n      dup3\n        /* \"#utility.yul\":4410:4443   */\n      tag_105\n      jump\t// in\n    tag_168:\n        /* \"#utility.yul\":4320:4449   */\n      swap2\n      swap1\n      pop\n      jump\t// out\n        /* \"#utility.yul\":4455:4766   */\n    tag_107:\n        /* \"#utility.yul\":4532:4536   */\n      0x00\n        /* \"#utility.yul\":4622:4640   */\n      0xffffffffffffffff\n        /* \"#utility.yul\":4614:4620   */\n      dup3\n        /* \"#utility.yul\":4611:4641   */\n      gt\n        /* \"#utility.yul\":4608:4664   */\n      iszero\n      tag_170\n      jumpi\n        /* \"#utility.yul\":4644:4662   */\n      tag_171\n      tag_104\n      jump\t// in\n    tag_171:\n        /* \"#utility.yul\":4608:4664   */\n    tag_170:\n        /* \"#utility.yul\":4694:4698   */\n      0x20\n        /* \"#utility.yul\":4686:4692   */\n      dup3\n        /* \"#utility.yul\":4682:4699   */\n      mul\n        /* \"#utility.yul\":4674:4699   */\n      swap1\n      pop\n        /* \"#utility.yul\":4754:4758   */\n      0x20\n        /* \"#utility.yul\":4748:4752   */\n      dup2\n        /* \"#utility.yul\":4744:4759   */\n      add\n        /* \"#utility.yul\":4736:4759   */\n      swap1\n      pop\n        /* \"#utility.yul\":4455:4766   */\n      swap2\n      swap1\n      pop\n      jump\t// out\n        /* \"#utility.yul\":4772:4889   */\n    tag_108:\n        /* \"#utility.yul\":4881:4882   */\n      0x00\n        /* \"#utility.yul\":4878:4879   */\n      dup1\n        /* \"#utility.yul\":4871:4883   */\n      revert\n        /* \"#utility.yul\":4912:5622   */\n    tag_109:\n        /* \"#utility.yul\":5008:5013   */\n      0x00\n        /* \"#utility.yul\":5033:5114   */\n      tag_174\n        /* \"#utility.yul\":5049:5113   */\n      tag_175\n        /* \"#utility.yul\":5106:5112   */\n      dup5\n        /* \"#utility.yul\":5049:5113   */\n      tag_107\n      jump\t// in\n    tag_175:\n        /* \"#utility.yul\":5033:5114   */\n      tag_106\n      jump\t// in\n    tag_174:\n        /* \"#utility.yul\":5024:5114   */\n      swap1\n      pop\n        /* \"#utility.yul\":5134:5139   */\n      dup1\n        /* \"#utility.yul\":5163:5169   */\n      dup4\n        /* \"#utility.yul\":5156:5161   */\n      dup3\n        /* \"#utility.yul\":5149:5170   */\n      mstore\n        /* \"#utility.yul\":5197:5201   */\n      0x20\n        /* \"#utility.yul\":5190:5195   */\n      dup3\n        /* \"#utility.yul\":5186:5202   */\n      add\n        /* \"#utility.yul\":5179:5202   */\n      swap1\n      pop\n        /* \"#utility.yul\":5250:5254   */\n      0x20\n        /* \"#utility.yul\":5242:5248   */\n      dup5\n        /* \"#utility.yul\":5238:5255   */\n      mul\n        /* \"#utility.yul\":5230:5236   */\n      dup4\n        /* \"#utility.yul\":5226:5256   */\n      add\n        /* \"#utility.yul\":5279:5282   */\n      dup6\n        /* \"#utility.yul\":5271:5277   */\n      dup2\n        /* \"#utility.yul\":5268:5283   */\n      gt\n        /* \"#utility.yul\":5265:5387   */\n      iszero\n      tag_176\n      jumpi\n        /* \"#utility.yul\":5298:5377   */\n      tag_177\n      tag_108\n      jump\t// in\n    tag_177:\n        /* \"#utility.yul\":5265:5387   */\n    tag_176:\n        /* \"#utility.yul\":5413:5419   */\n      dup4\n        /* \"#utility.yul\":5396:5616   */\n    tag_178:\n        /* \"#utility.yul\":5430:5436   */\n      dup2\n        /* \"#utility.yul\":5425:5428   */\n      dup2\n        /* \"#utility.yul\":5422:5437   */\n      lt\n        /* \"#utility.yul\":5396:5616   */\n      iszero\n      tag_180\n      jumpi\n        /* \"#utility.yul\":5505:5508   */\n      dup1\n        /* \"#utility.yul\":5534:5571   */\n      tag_181\n        /* \"#utility.yul\":5567:5570   */\n      dup9\n        /* \"#utility.yul\":5555:5565   */\n      dup3\n        /* \"#utility.yul\":5534:5571   */\n      tag_92\n      jump\t// in\n    tag_181:\n        /* \"#utility.yul\":5529:5532   */\n      dup5\n        /* \"#utility.yul\":5522:5572   */\n      mstore\n        /* \"#utility.yul\":5601:5605   */\n      0x20\n        /* \"#utility.yul\":5596:5599   */\n      dup5\n        /* \"#utility.yul\":5592:5606   */\n      add\n        /* \"#utility.yul\":5585:5606   */\n      swap4\n      pop\n        /* \"#utility.yul\":5472:5616   */\n      pop\n        /* \"#utility.yul\":5456:5460   */\n      0x20\n        /* \"#utility.yul\":5451:5454   */\n      dup2\n        /* \"#utility.yul\":5447:5461   */\n      add\n        /* \"#utility.yul\":5440:5461   */\n      swap1\n      pop\n        /* \"#utility.yul\":5396:5616   */\n      jump(tag_178)\n    tag_180:\n        /* \"#utility.yul\":5400:5421   */\n      pop\n        /* \"#utility.yul\":5014:5622   */\n      pop\n      pop\n        /* \"#utility.yul\":4912:5622   */\n      swap4\n      swap3\n      pop\n      pop\n      pop\n      jump\t// out\n        /* \"#utility.yul\":5645:6015   */\n    tag_110:\n        /* \"#utility.yul\":5716:5721   */\n      0x00\n        /* \"#utility.yul\":5765:5768   */\n      dup3\n        /* \"#utility.yul\":5758:5762   */\n      0x1f\n        /* \"#utility.yul\":5750:5756   */\n      dup4\n        /* \"#utility.yul\":5746:5763   */\n      add\n        /* \"#utility.yul\":5742:5769   */\n      slt\n        /* \"#utility.yul\":5732:5854   */\n      tag_183\n      jumpi\n        /* \"#utility.yul\":5773:5852   */\n      tag_184\n      tag_102\n      jump\t// in\n    tag_184:\n        /* \"#utility.yul\":5732:5854   */\n    tag_183:\n        /* \"#utility.yul\":5890:5896   */\n      dup2\n        /* \"#utility.yul\":5877:5897   */\n      calldataload\n        /* \"#utility.yul\":5915:6009   */\n      tag_185\n        /* \"#utility.yul\":6005:6008   */\n      dup5\n        /* \"#utility.yul\":5997:6003   */\n      dup3\n        /* \"#utility.yul\":5990:5994   */\n      0x20\n        /* \"#utility.yul\":5982:5988   */\n      dup7\n        /* \"#utility.yul\":5978:5995   */\n      add\n        /* \"#utility.yul\":5915:6009   */\n      tag_109\n      jump\t// in\n    tag_185:\n        /* \"#utility.yul\":5906:6009   */\n      swap2\n      pop\n        /* \"#utility.yul\":5722:6015   */\n      pop\n        /* \"#utility.yul\":5645:6015   */\n      swap3\n      swap2\n      pop\n      pop\n      jump\t// out\n        /* \"#utility.yul\":6021:6560   */\n    tag_26:\n        /* \"#utility.yul\":6105:6111   */\n      0x00\n        /* \"#utility.yul\":6154:6156   */\n      0x20\n        /* \"#utility.yul\":6142:6151   */\n      dup3\n        /* \"#utility.yul\":6133:6140   */\n      dup5\n        /* \"#utility.yul\":6129:6152   */\n      sub\n        /* \"#utility.yul\":6125:6157   */\n      slt\n        /* \"#utility.yul\":6122:6241   */\n      iszero\n      tag_187\n      jumpi\n        /* \"#utility.yul\":6160:6239   */\n      tag_188\n      tag_87\n      jump\t// in\n    tag_188:\n        /* \"#utility.yul\":6122:6241   */\n    tag_187:\n        /* \"#utility.yul\":6308:6309   */\n      0x00\n        /* \"#utility.yul\":6297:6306   */\n      dup3\n        /* \"#utility.yul\":6293:6310   */\n      add\n        /* \"#utility.yul\":6280:6311   */\n      calldataload\n        /* \"#utility.yul\":6338:6356   */\n      0xffffffffffffffff\n        /* \"#utility.yul\":6330:6336   */\n      dup2\n        /* \"#utility.yul\":6327:6357   */\n      gt\n        /* \"#utility.yul\":6324:6441   */\n      iszero\n      tag_189\n      jumpi\n        /* \"#utility.yul\":6360:6439   */\n      tag_190\n      tag_88\n      jump\t// in\n    tag_190:\n        /* \"#utility.yul\":6324:6441   */\n    tag_189:\n        /* \"#utility.yul\":6465:6543   */\n      tag_191\n        /* \"#utility.yul\":6535:6542   */\n      dup5\n        /* \"#utility.yul\":6526:6532   */\n      dup3\n        /* \"#utility.yul\":6515:6524   */\n      dup6\n        /* \"#utility.yul\":6511:6533   */\n      add\n        /* \"#utility.yul\":6465:6543   */\n      tag_110\n      jump\t// in\n    tag_191:\n        /* \"#utility.yul\":6455:6543   */\n      swap2\n      pop\n        /* \"#utility.yul\":6251:6553   */\n      pop\n        /* \"#utility.yul\":6021:6560   */\n      swap3\n      swap2\n      pop\n      pop\n      jump\t// out\n        /* \"#utility.yul\":6566:6746   */\n    tag_34:\n        /* \"#utility.yul\":6614:6691   */\n      0x4e487b7100000000000000000000000000000000000000000000000000000000\n        /* \"#utility.yul\":6611:6612   */\n      0x00\n        /* \"#utility.yul\":6604:6692   */\n      mstore\n        /* \"#utility.yul\":6711:6715   */\n      0x32\n        /* \"#utility.yul\":6708:6709   */\n      0x04\n        /* \"#utility.yul\":6701:6716   */\n      mstore\n        /* \"#utility.yul\":6735:6739   */\n      0x24\n        /* \"#utility.yul\":6732:6733   */\n      0x00\n        /* \"#utility.yul\":6725:6740   */\n      revert\n        /* \"#utility.yul\":6752:6829   */\n    tag_111:\n        /* \"#utility.yul\":6789:6796   */\n      0x00\n        /* \"#utility.yul\":6818:6823   */\n      dup2\n        /* \"#utility.yul\":6807:6823   */\n      swap1\n      pop\n        /* \"#utility.yul\":6752:6829   */\n      swap2\n      swap1\n      pop\n      jump\t// out\n        /* \"#utility.yul\":6835:7015   */\n    tag_112:\n        /* \"#utility.yul\":6883:6960   */\n      0x4e487b7100000000000000000000000000000000000000000000000000000000\n        /* \"#utility.yul\":6880:6881   */\n      0x00\n        /* \"#utility.yul\":6873:6961   */\n      mstore\n        /* \"#utility.yul\":6980:6984   */\n      0x11\n        /* \"#utility.yul\":6977:6978   */\n      0x04\n        /* \"#utility.yul\":6970:6985   */\n      mstore\n        /* \"#utility.yul\":7004:7008   */\n      0x24\n        /* \"#utility.yul\":7001:7002   */\n      0x00\n        /* \"#utility.yul\":6994:7009   */\n      revert\n        /* \"#utility.yul\":7021:7215   */\n    tag_41:\n        /* \"#utility.yul\":7061:7065   */\n      0x00\n        /* \"#utility.yul\":7081:7101   */\n      tag_196\n        /* \"#utility.yul\":7099:7100   */\n      dup3\n        /* \"#utility.yul\":7081:7101   */\n      tag_111\n      jump\t// in\n    tag_196:\n        /* \"#utility.yul\":7076:7101   */\n      swap2\n      pop\n        /* \"#utility.yul\":7115:7135   */\n      tag_197\n        /* \"#utility.yul\":7133:7134   */\n      dup4\n        /* \"#utility.yul\":7115:7135   */\n      tag_111\n      jump\t// in\n    tag_197:\n        /* \"#utility.yul\":7110:7135   */\n      swap3\n      pop\n        /* \"#utility.yul\":7159:7160   */\n      dup3\n        /* \"#utility.yul\":7156:7157   */\n      dup3\n        /* \"#utility.yul\":7152:7161   */\n      sub\n        /* \"#utility.yul\":7144:7161   */\n      swap1\n      pop\n        /* \"#utility.yul\":7183:7184   */\n      dup2\n        /* \"#utility.yul\":7177:7181   */\n      dup2\n        /* \"#utility.yul\":7174:7185   */\n      gt\n        /* \"#utility.yul\":7171:7208   */\n      iszero\n      tag_198\n      jumpi\n        /* \"#utility.yul\":7188:7206   */\n      tag_199\n      tag_112\n      jump\t// in\n    tag_199:\n        /* \"#utility.yul\":7171:7208   */\n    tag_198:\n        /* \"#utility.yul\":7021:7215   */\n      swap3\n      swap2\n      pop\n      pop\n      jump\t// out\n        /* \"#utility.yul\":7221:7310   */\n    tag_113:\n        /* \"#utility.yul\":7257:7264   */\n      0x00\n        /* \"#utility.yul\":7297:7303   */\n      0xffff\n        /* \"#utility.yul\":7290:7295   */\n      dup3\n        /* \"#utility.yul\":7286:7304   */\n      and\n        /* \"#utility.yul\":7275:7304   */\n      swap1\n      pop\n        /* \"#utility.yul\":7221:7310   */\n      swap2\n      swap1\n      pop\n      jump\t// out\n        /* \"#utility.yul\":7316:7509   */\n    tag_43:\n        /* \"#utility.yul\":7355:7358   */\n      0x00\n        /* \"#utility.yul\":7374:7393   */\n      tag_202\n        /* \"#utility.yul\":7391:7392   */\n      dup3\n        /* \"#utility.yul\":7374:7393   */\n      tag_113\n      jump\t// in\n    tag_202:\n        /* \"#utility.yul\":7369:7393   */\n      swap2\n      pop\n        /* \"#utility.yul\":7407:7426   */\n      tag_203\n        /* \"#utility.yul\":7424:7425   */\n      dup4\n        /* \"#utility.yul\":7407:7426   */\n      tag_113\n      jump\t// in\n    tag_203:\n        /* \"#utility.yul\":7402:7426   */\n      swap3\n      pop\n        /* \"#utility.yul\":7449:7450   */\n      dup3\n        /* \"#utility.yul\":7446:7447   */\n      dup3\n        /* \"#utility.yul\":7442:7451   */\n      add\n        /* \"#utility.yul\":7435:7451   */\n      swap1\n      pop\n        /* \"#utility.yul\":7472:7478   */\n      0xffff\n        /* \"#utility.yul\":7467:7470   */\n      dup2\n        /* \"#utility.yul\":7464:7479   */\n      gt\n        /* \"#utility.yul\":7461:7502   */\n      iszero\n      tag_204\n      jumpi\n        /* \"#utility.yul\":7482:7500   */\n      tag_205\n      tag_112\n      jump\t// in\n    tag_205:\n        /* \"#utility.yul\":7461:7502   */\n    tag_204:\n        /* \"#utility.yul\":7316:7509   */\n      swap3\n      swap2\n      pop\n      pop\n      jump\t// out\n        /* \"#utility.yul\":7515:7686   */\n    tag_51:\n        /* \"#utility.yul\":7553:7556   */\n      0x00\n        /* \"#utility.yul\":7576:7599   */\n      tag_207\n        /* \"#utility.yul\":7593:7598   */\n      dup3\n        /* \"#utility.yul\":7576:7599   */\n      tag_113\n      jump\t// in\n    tag_207:\n        /* \"#utility.yul\":7567:7599   */\n      swap2\n      pop\n        /* \"#utility.yul\":7621:7627   */\n      0xffff\n        /* \"#utility.yul\":7614:7619   */\n      dup3\n        /* \"#utility.yul\":7611:7628   */\n      sub\n        /* \"#utility.yul\":7608:7651   */\n      tag_208\n      jumpi\n        /* \"#utility.yul\":7631:7649   */\n      tag_209\n      tag_112\n      jump\t// in\n    tag_209:\n        /* \"#utility.yul\":7608:7651   */\n    tag_208:\n        /* \"#utility.yul\":7678:7679   */\n      0x01\n        /* \"#utility.yul\":7671:7676   */\n      dup3\n        /* \"#utility.yul\":7667:7680   */\n      add\n        /* \"#utility.yul\":7660:7680   */\n      swap1\n      pop\n        /* \"#utility.yul\":7515:7686   */\n      swap2\n      swap1\n      pop\n      jump\t// out\n        /* \"#utility.yul\":7692:7872   */\n    tag_54:\n        /* \"#utility.yul\":7740:7817   */\n      0x4e487b7100000000000000000000000000000000000000000000000000000000\n        /* \"#utility.yul\":7737:7738   */\n      0x00\n        /* \"#utility.yul\":7730:7818   */\n      mstore\n        /* \"#utility.yul\":7837:7841   */\n      0x31\n        /* \"#utility.yul\":7834:7835   */\n      0x04\n        /* \"#utility.yul\":7827:7842   */\n      mstore\n        /* \"#utility.yul\":7861:7865   */\n      0x24\n        /* \"#utility.yul\":7858:7859   */\n      0x00\n        /* \"#utility.yul\":7851:7866   */\n      revert\n        /* \"#utility.yul\":7878:8047   */\n    tag_114:\n        /* \"#utility.yul\":7962:7973   */\n      0x00\n        /* \"#utility.yul\":7996:8002   */\n      dup3\n        /* \"#utility.yul\":7991:7994   */\n      dup3\n        /* \"#utility.yul\":7984:8003   */\n      mstore\n        /* \"#utility.yul\":8036:8040   */\n      0x20\n        /* \"#utility.yul\":8031:8034   */\n      dup3\n        /* \"#utility.yul\":8027:8041   */\n      add\n        /* \"#utility.yul\":8012:8041   */\n      swap1\n      pop\n        /* \"#utility.yul\":7878:8047   */\n      swap3\n      swap2\n      pop\n      pop\n      jump\t// out\n        /* \"#utility.yul\":8053:8275   */\n    tag_115:\n        /* \"#utility.yul\":8193:8227   */\n      0x6f6e6c792061646d696e2063616e20696e766f6b6520746869732066756e6374\n        /* \"#utility.yul\":8189:8190   */\n      0x00\n        /* \"#utility.yul\":8181:8187   */\n      dup3\n        /* \"#utility.yul\":8177:8191   */\n      add\n        /* \"#utility.yul\":8170:8228   */\n      mstore\n        /* \"#utility.yul\":8262:8267   */\n      0x696f6e0000000000000000000000000000000000000000000000000000000000\n        /* \"#utility.yul\":8257:8259   */\n      0x20\n        /* \"#utility.yul\":8249:8255   */\n      dup3\n        /* \"#utility.yul\":8245:8260   */\n      add\n        /* \"#utility.yul\":8238:8268   */\n      mstore\n        /* \"#utility.yul\":8053:8275   */\n      pop\n      jump\t// out\n        /* \"#utility.yul\":8281:8647   */\n    tag_116:\n        /* \"#utility.yul\":8423:8426   */\n      0x00\n        /* \"#utility.yul\":8444:8511   */\n      tag_214\n        /* \"#utility.yul\":8508:8510   */\n      0x23\n        /* \"#utility.yul\":8503:8506   */\n      dup4\n        /* \"#utility.yul\":8444:8511   */\n      tag_114\n      jump\t// in\n    tag_214:\n        /* \"#utility.yul\":8437:8511   */\n      swap2\n      pop\n        /* \"#utility.yul\":8520:8613   */\n      tag_215\n        /* \"#utility.yul\":8609:8612   */\n      dup3\n        /* \"#utility.yul\":8520:8613   */\n      tag_115\n      jump\t// in\n    tag_215:\n        /* \"#utility.yul\":8638:8640   */\n      0x40\n        /* \"#utility.yul\":8633:8636   */\n      dup3\n        /* \"#utility.yul\":8629:8641   */\n      add\n        /* \"#utility.yul\":8622:8641   */\n      swap1\n      pop\n        /* \"#utility.yul\":8281:8647   */\n      swap2\n      swap1\n      pop\n      jump\t// out\n        /* \"#utility.yul\":8653:9072   */\n    tag_60:\n        /* \"#utility.yul\":8819:8823   */\n      0x00\n        /* \"#utility.yul\":8857:8859   */\n      0x20\n        /* \"#utility.yul\":8846:8855   */\n      dup3\n        /* \"#utility.yul\":8842:8860   */\n      add\n        /* \"#utility.yul\":8834:8860   */\n      swap1\n      pop\n        /* \"#utility.yul\":8906:8915   */\n      dup2\n        /* \"#utility.yul\":8900:8904   */\n      dup2\n        /* \"#utility.yul\":8896:8916   */\n      sub\n        /* \"#utility.yul\":8892:8893   */\n      0x00\n        /* \"#utility.yul\":8881:8890   */\n      dup4\n        /* \"#utility.yul\":8877:8894   */\n      add\n        /* \"#utility.yul\":8870:8917   */\n      mstore\n        /* \"#utility.yul\":8934:9065   */\n      tag_217\n        /* \"#utility.yul\":9060:9064   */\n      dup2\n        /* \"#utility.yul\":8934:9065   */\n      tag_116\n      jump\t// in\n    tag_217:\n        /* \"#utility.yul\":8926:9065   */\n      swap1\n      pop\n        /* \"#utility.yul\":8653:9072   */\n      swap2\n      swap1\n      pop\n      jump\t// out\n        /* \"#utility.yul\":9078:9238   */\n    tag_117:\n        /* \"#utility.yul\":9218:9230   */\n      0x5573657220657869737400000000000000000000000000000000000000000000\n        /* \"#utility.yul\":9214:9215   */\n      0x00\n        /* \"#utility.yul\":9206:9212   */\n      dup3\n        /* \"#utility.yul\":9202:9216   */\n      add\n        /* \"#utility.yul\":9195:9231   */\n      mstore\n        /* \"#utility.yul\":9078:9238   */\n      pop\n      jump\t// out\n        /* \"#utility.yul\":9244:9610   */\n    tag_118:\n        /* \"#utility.yul\":9386:9389   */\n      0x00\n        /* \"#utility.yul\":9407:9474   */\n      tag_220\n        /* \"#utility.yul\":9471:9473   */\n      0x0a\n        /* \"#utility.yul\":9466:9469   */\n      dup4\n        /* \"#utility.yul\":9407:9474   */\n      tag_114\n      jump\t// in\n    tag_220:\n        /* \"#utility.yul\":9400:9474   */\n      swap2\n      pop\n        /* \"#utility.yul\":9483:9576   */\n      tag_221\n        /* \"#utility.yul\":9572:9575   */\n      dup3\n        /* \"#utility.yul\":9483:9576   */\n      tag_117\n      jump\t// in\n    tag_221:\n        /* \"#utility.yul\":9601:9603   */\n      0x20\n        /* \"#utility.yul\":9596:9599   */\n      dup3\n        /* \"#utility.yul\":9592:9604   */\n      add\n        /* \"#utility.yul\":9585:9604   */\n      swap1\n      pop\n        /* \"#utility.yul\":9244:9610   */\n      swap2\n      swap1\n      pop\n      jump\t// out\n        /* \"#utility.yul\":9616:10035   */\n    tag_64:\n        /* \"#utility.yul\":9782:9786   */\n      0x00\n        /* \"#utility.yul\":9820:9822   */\n      0x20\n        /* \"#utility.yul\":9809:9818   */\n      dup3\n        /* \"#utility.yul\":9805:9823   */\n      add\n        /* \"#utility.yul\":9797:9823   */\n      swap1\n      pop\n        /* \"#utility.yul\":9869:9878   */\n      dup2\n        /* \"#utility.yul\":9863:9867   */\n      dup2\n        /* \"#utility.yul\":9859:9879   */\n      sub\n        /* \"#utility.yul\":9855:9856   */\n      0x00\n        /* \"#utility.yul\":9844:9853   */\n      dup4\n        /* \"#utility.yul\":9840:9857   */\n      add\n        /* \"#utility.yul\":9833:9880   */\n      mstore\n        /* \"#utility.yul\":9897:10028   */\n      tag_223\n        /* \"#utility.yul\":10023:10027   */\n      dup2\n        /* \"#utility.yul\":9897:10028   */\n      tag_118\n      jump\t// in\n    tag_223:\n        /* \"#utility.yul\":9889:10028   */\n      swap1\n      pop\n        /* \"#utility.yul\":9616:10035   */\n      swap2\n      swap1\n      pop\n      jump\t// out\n\n    auxdata: 0xa264697066735822122002b7bb6958cefb3e67531196c91823693c8b73c064bfb6167fea45a7f5f7035a64736f6c634300081a0033\n}\n",
				"bytecode": {
					"linkReferences": {},
					"object": "60a0604052735b38da6a701c568545dcfcb03fcb875f56beddc473ffffffffffffffffffffffffffffffffffffffff1660809073ffffffffffffffffffffffffffffffffffffffff168152503480156055575f80fd5b50608051610d606100755f395f818161031e01526105c80152610d605ff3fe608060405234801561000f575f80fd5b5060043610610055575f3560e01c80635e0ca3b9146100595780637a6d918e146100755780637eca453d14610091578063b70cbe35146100af578063b7f7e6f0146100df575b5f80fd5b610073600480360381019061006e919061082a565b6100fb565b005b61008f600480360381019061008a919061082a565b610305565b005b6100996104d3565b6040516100a6919061090c565b60405180910390f35b6100c960048036038101906100c4919061082a565b61055e565b6040516100d69190610946565b60405180910390f35b6100f960048036038101906100f49190610aaf565b6105af565b005b5f60018054905090505f5b818161ffff1610156102b5578273ffffffffffffffffffffffffffffffffffffffff1660018261ffff168154811061014157610140610af6565b5b905f5260205f20015f9054906101000a900473ffffffffffffffffffffffffffffffffffffffff1673ffffffffffffffffffffffffffffffffffffffff16036102a2575f8190505b6001836101969190610b59565b8161ffff16101561025c57600180826101af9190610b99565b61ffff16815481106101c4576101c3610af6565b5b905f5260205f20015f9054906101000a900473ffffffffffffffffffffffffffffffffffffffff1660018261ffff168154811061020457610203610af6565b5b905f5260205f20015f6101000a81548173ffffffffffffffffffffffffffffffffffffffff021916908373ffffffffffffffffffffffffffffffffffffffff160217905550808061025490610bce565b915050610189565b50600180548061026f5761026e610bf7565b5b600190038181905f5260205f20015f6101000a81549073ffffffffffffffffffffffffffffffffffffffff021916905590555b80806102ad90610bce565b915050610106565b505f808373ffffffffffffffffffffffffffffffffffffffff1673ffffffffffffffffffffffffffffffffffffffff1681526020019081526020015f205f6101000a81549060ff02191690555050565b3373ffffffffffffffffffffffffffffffffffffffff167f000000000000000000000000000000000000000000000000000000000000000073ffffffffffffffffffffffffffffffffffffffff1614610393576040517f08c379a000000000000000000000000000000000000000000000000000000000815260040161038a90610ca4565b60405180910390fd5b5f808273ffffffffffffffffffffffffffffffffffffffff1673ffffffffffffffffffffffffffffffffffffffff1681526020019081526020015f205f9054906101000a900460ff161561041c576040517f0e64c65800000000000000000000000000000000000000000000000000000000815260040161041390610d0c565b60405180910390fd5b60015f808373ffffffffffffffffffffffffffffffffffffffff1673ffffffffffffffffffffffffffffffffffffffff1681526020019081526020015f205f6101000a81548160ff021916908315150217905550600181908060018154018082558091505060019003905f5260205f20015f9091909190916101000a81548173ffffffffffffffffffffffffffffffffffffffff021916908373ffffffffffffffffffffffffffffffffffffffff16021790555050565b6060600180548060200260200160405190810160405280929190818152602001828054801561055457602002820191905f5260205f20905b815f9054906101000a900473ffffffffffffffffffffffffffffffffffffffff1673ffffffffffffffffffffffffffffffffffffffff168152602001906001019080831161050b575b5050505050905090565b5f805f8373ffffffffffffffffffffffffffffffffffffffff1673ffffffffffffffffffffffffffffffffffffffff1681526020019081526020015f205f9054906101000a900460ff169050919050565b3373ffffffffffffffffffffffffffffffffffffffff167f000000000000000000000000000000000000000000000000000000000000000073ffffffffffffffffffffffffffffffffffffffff161461063d576040517f08c379a000000000000000000000000000000000000000000000000000000000815260040161063490610ca4565b60405180910390fd5b5f5b81518161ffff1610156107bb575f80838361ffff168151811061066557610664610af6565b5b602002602001015173ffffffffffffffffffffffffffffffffffffffff1673ffffffffffffffffffffffffffffffffffffffff1681526020019081526020015f205f9054906101000a900460ff166107a85760015f80848461ffff16815181106106d2576106d1610af6565b5b602002602001015173ffffffffffffffffffffffffffffffffffffffff1673ffffffffffffffffffffffffffffffffffffffff1681526020019081526020015f205f6101000a81548160ff0219169083151502179055506001828261ffff168151811061074257610741610af6565b5b6020026020010151908060018154018082558091505060019003905f5260205f20015f9091909190916101000a81548173ffffffffffffffffffffffffffffffffffffffff021916908373ffffffffffffffffffffffffffffffffffffffff1602179055505b80806107b390610bce565b91505061063f565b5050565b5f604051905090565b5f80fd5b5f80fd5b5f73ffffffffffffffffffffffffffffffffffffffff82169050919050565b5f6107f9826107d0565b9050919050565b610809816107ef565b8114610813575f80fd5b50565b5f8135905061082481610800565b92915050565b5f6020828403121561083f5761083e6107c8565b5b5f61084c84828501610816565b91505092915050565b5f81519050919050565b5f82825260208201905092915050565b5f819050602082019050919050565b610887816107ef565b82525050565b5f610898838361087e565b60208301905092915050565b5f602082019050919050565b5f6108ba82610855565b6108c4818561085f565b93506108cf8361086f565b805f5b838110156108ff5781516108e6888261088d565b97506108f1836108a4565b9250506001810190506108d2565b5085935050505092915050565b5f6020820190508181035f83015261092481846108b0565b905092915050565b5f8115159050919050565b6109408161092c565b82525050565b5f6020820190506109595f830184610937565b92915050565b5f80fd5b5f601f19601f8301169050919050565b7f4e487b71000000000000000000000000000000000000000000000000000000005f52604160045260245ffd5b6109a982610963565b810181811067ffffffffffffffff821117156109c8576109c7610973565b5b80604052505050565b5f6109da6107bf565b90506109e682826109a0565b919050565b5f67ffffffffffffffff821115610a0557610a04610973565b5b602082029050602081019050919050565b5f80fd5b5f610a2c610a27846109eb565b6109d1565b90508083825260208201905060208402830185811115610a4f57610a4e610a16565b5b835b81811015610a785780610a648882610816565b845260208401935050602081019050610a51565b5050509392505050565b5f82601f830112610a9657610a9561095f565b5b8135610aa6848260208601610a1a565b91505092915050565b5f60208284031215610ac457610ac36107c8565b5b5f82013567ffffffffffffffff811115610ae157610ae06107cc565b5b610aed84828501610a82565b91505092915050565b7f4e487b71000000000000000000000000000000000000000000000000000000005f52603260045260245ffd5b5f819050919050565b7f4e487b71000000000000000000000000000000000000000000000000000000005f52601160045260245ffd5b5f610b6382610b23565b9150610b6e83610b23565b9250828203905081811115610b8657610b85610b2c565b5b92915050565b5f61ffff82169050919050565b5f610ba382610b8c565b9150610bae83610b8c565b9250828201905061ffff811115610bc857610bc7610b2c565b5b92915050565b5f610bd882610b8c565b915061ffff8203610bec57610beb610b2c565b5b600182019050919050565b7f4e487b71000000000000000000000000000000000000000000000000000000005f52603160045260245ffd5b5f82825260208201905092915050565b7f6f6e6c792061646d696e2063616e20696e766f6b6520746869732066756e63745f8201527f696f6e0000000000000000000000000000000000000000000000000000000000602082015250565b5f610c8e602383610c24565b9150610c9982610c34565b604082019050919050565b5f6020820190508181035f830152610cbb81610c82565b9050919050565b7f55736572206578697374000000000000000000000000000000000000000000005f82015250565b5f610cf6600a83610c24565b9150610d0182610cc2565b602082019050919050565b5f6020820190508181035f830152610d2381610cea565b905091905056fea264697066735822122002b7bb6958cefb3e67531196c91823693c8b73c064bfb6167fea45a7f5f7035a64736f6c634300081a0033",
					"opcodes": "PUSH1 0xA0 PUSH1 0x40 MSTORE PUSH20 0x5B38DA6A701C568545DCFCB03FCB875F56BEDDC4 PUSH20 0xFFFFFFFFFFFFFFFFFFFFFFFFFFFFFFFFFFFFFFFF AND PUSH1 0x80 SWAP1 PUSH20 0xFFFFFFFFFFFFFFFFFFFFFFFFFFFFFFFFFFFFFFFF AND DUP2 MSTORE POP CALLVALUE DUP1 ISZERO PUSH1 0x55 JUMPI PUSH0 DUP1 REVERT JUMPDEST POP PUSH1 0x80 MLOAD PUSH2 0xD60 PUSH2 0x75 PUSH0 CODECOPY PUSH0 DUP2 DUP2 PUSH2 0x31E ADD MSTORE PUSH2 0x5C8 ADD MSTORE PUSH2 0xD60 PUSH0 RETURN INVALID PUSH1 0x80 PUSH1 0x40 MSTORE CALLVALUE DUP1 ISZERO PUSH2 0xF JUMPI PUSH0 DUP1 REVERT JUMPDEST POP PUSH1 0x4 CALLDATASIZE LT PUSH2 0x55 JUMPI PUSH0 CALLDATALOAD PUSH1 0xE0 SHR DUP1 PUSH4 0x5E0CA3B9 EQ PUSH2 0x59 JUMPI DUP1 PUSH4 0x7A6D918E EQ PUSH2 0x75 JUMPI DUP1 PUSH4 0x7ECA453D EQ PUSH2 0x91 JUMPI DUP1 PUSH4 0xB70CBE35 EQ PUSH2 0xAF JUMPI DUP1 PUSH4 0xB7F7E6F0 EQ PUSH2 0xDF JUMPI JUMPDEST PUSH0 DUP1 REVERT JUMPDEST PUSH2 0x73 PUSH1 0x4 DUP1 CALLDATASIZE SUB DUP2 ADD SWAP1 PUSH2 0x6E SWAP2 SWAP1 PUSH2 0x82A JUMP JUMPDEST PUSH2 0xFB JUMP JUMPDEST STOP JUMPDEST PUSH2 0x8F PUSH1 0x4 DUP1 CALLDATASIZE SUB DUP2 ADD SWAP1 PUSH2 0x8A SWAP2 SWAP1 PUSH2 0x82A JUMP JUMPDEST PUSH2 0x305 JUMP JUMPDEST STOP JUMPDEST PUSH2 0x99 PUSH2 0x4D3 JUMP JUMPDEST PUSH1 0x40 MLOAD PUSH2 0xA6 SWAP2 SWAP1 PUSH2 0x90C JUMP JUMPDEST PUSH1 0x40 MLOAD DUP1 SWAP2 SUB SWAP1 RETURN JUMPDEST PUSH2 0xC9 PUSH1 0x4 DUP1 CALLDATASIZE SUB DUP2 ADD SWAP1 PUSH2 0xC4 SWAP2 SWAP1 PUSH2 0x82A JUMP JUMPDEST PUSH2 0x55E JUMP JUMPDEST PUSH1 0x40 MLOAD PUSH2 0xD6 SWAP2 SWAP1 PUSH2 0x946 JUMP JUMPDEST PUSH1 0x40 MLOAD DUP1 SWAP2 SUB SWAP1 RETURN JUMPDEST PUSH2 0xF9 PUSH1 0x4 DUP1 CALLDATASIZE SUB DUP2 ADD SWAP1 PUSH2 0xF4 SWAP2 SWAP1 PUSH2 0xAAF JUMP JUMPDEST PUSH2 0x5AF JUMP JUMPDEST STOP JUMPDEST PUSH0 PUSH1 0x1 DUP1 SLOAD SWAP1 POP SWAP1 POP PUSH0 JUMPDEST DUP2 DUP2 PUSH2 0xFFFF AND LT ISZERO PUSH2 0x2B5 JUMPI DUP3 PUSH20 0xFFFFFFFFFFFFFFFFFFFFFFFFFFFFFFFFFFFFFFFF AND PUSH1 0x1 DUP3 PUSH2 0xFFFF AND DUP2 SLOAD DUP2 LT PUSH2 0x141 JUMPI PUSH2 0x140 PUSH2 0xAF6 JUMP JUMPDEST JUMPDEST SWAP1 PUSH0 MSTORE PUSH1 0x20 PUSH0 KECCAK256 ADD PUSH0 SWAP1 SLOAD SWAP1 PUSH2 0x100 EXP SWAP1 DIV PUSH20 0xFFFFFFFFFFFFFFFFFFFFFFFFFFFFFFFFFFFFFFFF AND PUSH20 0xFFFFFFFFFFFFFFFFFFFFFFFFFFFFFFFFFFFFFFFF AND SUB PUSH2 0x2A2 JUMPI PUSH0 DUP2 SWAP1 POP JUMPDEST PUSH1 0x1 DUP4 PUSH2 0x196 SWAP2 SWAP1 PUSH2 0xB59 JUMP JUMPDEST DUP2 PUSH2 0xFFFF AND LT ISZERO PUSH2 0x25C JUMPI PUSH1 0x1 DUP1 DUP3 PUSH2 0x1AF SWAP2 SWAP1 PUSH2 0xB99 JUMP JUMPDEST PUSH2 0xFFFF AND DUP2 SLOAD DUP2 LT PUSH2 0x1C4 JUMPI PUSH2 0x1C3 PUSH2 0xAF6 JUMP JUMPDEST JUMPDEST SWAP1 PUSH0 MSTORE PUSH1 0x20 PUSH0 KECCAK256 ADD PUSH0 SWAP1 SLOAD SWAP1 PUSH2 0x100 EXP SWAP1 DIV PUSH20 0xFFFFFFFFFFFFFFFFFFFFFFFFFFFFFFFFFFFFFFFF AND PUSH1 0x1 DUP3 PUSH2 0xFFFF AND DUP2 SLOAD DUP2 LT PUSH2 0x204 JUMPI PUSH2 0x203 PUSH2 0xAF6 JUMP JUMPDEST JUMPDEST SWAP1 PUSH0 MSTORE PUSH1 0x20 PUSH0 KECCAK256 ADD PUSH0 PUSH2 0x100 EXP DUP2 SLOAD DUP2 PUSH20 0xFFFFFFFFFFFFFFFFFFFFFFFFFFFFFFFFFFFFFFFF MUL NOT AND SWAP1 DUP4 PUSH20 0xFFFFFFFFFFFFFFFFFFFFFFFFFFFFFFFFFFFFFFFF AND MUL OR SWAP1 SSTORE POP DUP1 DUP1 PUSH2 0x254 SWAP1 PUSH2 0xBCE JUMP JUMPDEST SWAP2 POP POP PUSH2 0x189 JUMP JUMPDEST POP PUSH1 0x1 DUP1 SLOAD DUP1 PUSH2 0x26F JUMPI PUSH2 0x26E PUSH2 0xBF7 JUMP JUMPDEST JUMPDEST PUSH1 0x1 SWAP1 SUB DUP2 DUP2 SWAP1 PUSH0 MSTORE PUSH1 0x20 PUSH0 KECCAK256 ADD PUSH0 PUSH2 0x100 EXP DUP2 SLOAD SWAP1 PUSH20 0xFFFFFFFFFFFFFFFFFFFFFFFFFFFFFFFFFFFFFFFF MUL NOT AND SWAP1 SSTORE SWAP1 SSTORE JUMPDEST DUP1 DUP1 PUSH2 0x2AD SWAP1 PUSH2 0xBCE JUMP JUMPDEST SWAP2 POP POP PUSH2 0x106 JUMP JUMPDEST POP PUSH0 DUP1 DUP4 PUSH20 0xFFFFFFFFFFFFFFFFFFFFFFFFFFFFFFFFFFFFFFFF AND PUSH20 0xFFFFFFFFFFFFFFFFFFFFFFFFFFFFFFFFFFFFFFFF AND DUP2 MSTORE PUSH1 0x20 ADD SWAP1 DUP2 MSTORE PUSH1 0x20 ADD PUSH0 KECCAK256 PUSH0 PUSH2 0x100 EXP DUP2 SLOAD SWAP1 PUSH1 0xFF MUL NOT AND SWAP1 SSTORE POP POP JUMP JUMPDEST CALLER PUSH20 0xFFFFFFFFFFFFFFFFFFFFFFFFFFFFFFFFFFFFFFFF AND PUSH32 0x0 PUSH20 0xFFFFFFFFFFFFFFFFFFFFFFFFFFFFFFFFFFFFFFFF AND EQ PUSH2 0x393 JUMPI PUSH1 0x40 MLOAD PUSH32 0x8C379A000000000000000000000000000000000000000000000000000000000 DUP2 MSTORE PUSH1 0x4 ADD PUSH2 0x38A SWAP1 PUSH2 0xCA4 JUMP JUMPDEST PUSH1 0x40 MLOAD DUP1 SWAP2 SUB SWAP1 REVERT JUMPDEST PUSH0 DUP1 DUP3 PUSH20 0xFFFFFFFFFFFFFFFFFFFFFFFFFFFFFFFFFFFFFFFF AND PUSH20 0xFFFFFFFFFFFFFFFFFFFFFFFFFFFFFFFFFFFFFFFF AND DUP2 MSTORE PUSH1 0x20 ADD SWAP1 DUP2 MSTORE PUSH1 0x20 ADD PUSH0 KECCAK256 PUSH0 SWAP1 SLOAD SWAP1 PUSH2 0x100 EXP SWAP1 DIV PUSH1 0xFF AND ISZERO PUSH2 0x41C JUMPI PUSH1 0x40 MLOAD PUSH32 0xE64C65800000000000000000000000000000000000000000000000000000000 DUP2 MSTORE PUSH1 0x4 ADD PUSH2 0x413 SWAP1 PUSH2 0xD0C JUMP JUMPDEST PUSH1 0x40 MLOAD DUP1 SWAP2 SUB SWAP1 REVERT JUMPDEST PUSH1 0x1 PUSH0 DUP1 DUP4 PUSH20 0xFFFFFFFFFFFFFFFFFFFFFFFFFFFFFFFFFFFFFFFF AND PUSH20 0xFFFFFFFFFFFFFFFFFFFFFFFFFFFFFFFFFFFFFFFF AND DUP2 MSTORE PUSH1 0x20 ADD SWAP1 DUP2 MSTORE PUSH1 0x20 ADD PUSH0 KECCAK256 PUSH0 PUSH2 0x100 EXP DUP2 SLOAD DUP2 PUSH1 0xFF MUL NOT AND SWAP1 DUP4 ISZERO ISZERO MUL OR SWAP1 SSTORE POP PUSH1 0x1 DUP2 SWAP1 DUP1 PUSH1 0x1 DUP2 SLOAD ADD DUP1 DUP3 SSTORE DUP1 SWAP2 POP POP PUSH1 0x1 SWAP1 SUB SWAP1 PUSH0 MSTORE PUSH1 0x20 PUSH0 KECCAK256 ADD PUSH0 SWAP1 SWAP2 SWAP1 SWAP2 SWAP1 SWAP2 PUSH2 0x100 EXP DUP2 SLOAD DUP2 PUSH20 0xFFFFFFFFFFFFFFFFFFFFFFFFFFFFFFFFFFFFFFFF MUL NOT AND SWAP1 DUP4 PUSH20 0xFFFFFFFFFFFFFFFFFFFFFFFFFFFFFFFFFFFFFFFF AND MUL OR SWAP1 SSTORE POP POP JUMP JUMPDEST PUSH1 0x60 PUSH1 0x1 DUP1 SLOAD DUP1 PUSH1 0x20 MUL PUSH1 0x20 ADD PUSH1 0x40 MLOAD SWAP1 DUP2 ADD PUSH1 0x40 MSTORE DUP1 SWAP3 SWAP2 SWAP1 DUP2 DUP2 MSTORE PUSH1 0x20 ADD DUP3 DUP1 SLOAD DUP1 ISZERO PUSH2 0x554 JUMPI PUSH1 0x20 MUL DUP3 ADD SWAP2 SWAP1 PUSH0 MSTORE PUSH1 0x20 PUSH0 KECCAK256 SWAP1 JUMPDEST DUP2 PUSH0 SWAP1 SLOAD SWAP1 PUSH2 0x100 EXP SWAP1 DIV PUSH20 0xFFFFFFFFFFFFFFFFFFFFFFFFFFFFFFFFFFFFFFFF AND PUSH20 0xFFFFFFFFFFFFFFFFFFFFFFFFFFFFFFFFFFFFFFFF AND DUP2 MSTORE PUSH1 0x20 ADD SWAP1 PUSH1 0x1 ADD SWAP1 DUP1 DUP4 GT PUSH2 0x50B JUMPI JUMPDEST POP POP POP POP POP SWAP1 POP SWAP1 JUMP JUMPDEST PUSH0 DUP1 PUSH0 DUP4 PUSH20 0xFFFFFFFFFFFFFFFFFFFFFFFFFFFFFFFFFFFFFFFF AND PUSH20 0xFFFFFFFFFFFFFFFFFFFFFFFFFFFFFFFFFFFFFFFF AND DUP2 MSTORE PUSH1 0x20 ADD SWAP1 DUP2 MSTORE PUSH1 0x20 ADD PUSH0 KECCAK256 PUSH0 SWAP1 SLOAD SWAP1 PUSH2 0x100 EXP SWAP1 DIV PUSH1 0xFF AND SWAP1 POP SWAP2 SWAP1 POP JUMP JUMPDEST CALLER PUSH20 0xFFFFFFFFFFFFFFFFFFFFFFFFFFFFFFFFFFFFFFFF AND PUSH32 0x0 PUSH20 0xFFFFFFFFFFFFFFFFFFFFFFFFFFFFFFFFFFFFFFFF AND EQ PUSH2 0x63D JUMPI PUSH1 0x40 MLOAD PUSH32 0x8C379A000000000000000000000000000000000000000000000000000000000 DUP2 MSTORE PUSH1 0x4 ADD PUSH2 0x634 SWAP1 PUSH2 0xCA4 JUMP JUMPDEST PUSH1 0x40 MLOAD DUP1 SWAP2 SUB SWAP1 REVERT JUMPDEST PUSH0 JUMPDEST DUP2 MLOAD DUP2 PUSH2 0xFFFF AND LT ISZERO PUSH2 0x7BB JUMPI PUSH0 DUP1 DUP4 DUP4 PUSH2 0xFFFF AND DUP2 MLOAD DUP2 LT PUSH2 0x665 JUMPI PUSH2 0x664 PUSH2 0xAF6 JUMP JUMPDEST JUMPDEST PUSH1 0x20 MUL PUSH1 0x20 ADD ADD MLOAD PUSH20 0xFFFFFFFFFFFFFFFFFFFFFFFFFFFFFFFFFFFFFFFF AND PUSH20 0xFFFFFFFFFFFFFFFFFFFFFFFFFFFFFFFFFFFFFFFF AND DUP2 MSTORE PUSH1 0x20 ADD SWAP1 DUP2 MSTORE PUSH1 0x20 ADD PUSH0 KECCAK256 PUSH0 SWAP1 SLOAD SWAP1 PUSH2 0x100 EXP SWAP1 DIV PUSH1 0xFF AND PUSH2 0x7A8 JUMPI PUSH1 0x1 PUSH0 DUP1 DUP5 DUP5 PUSH2 0xFFFF AND DUP2 MLOAD DUP2 LT PUSH2 0x6D2 JUMPI PUSH2 0x6D1 PUSH2 0xAF6 JUMP JUMPDEST JUMPDEST PUSH1 0x20 MUL PUSH1 0x20 ADD ADD MLOAD PUSH20 0xFFFFFFFFFFFFFFFFFFFFFFFFFFFFFFFFFFFFFFFF AND PUSH20 0xFFFFFFFFFFFFFFFFFFFFFFFFFFFFFFFFFFFFFFFF AND DUP2 MSTORE PUSH1 0x20 ADD SWAP1 DUP2 MSTORE PUSH1 0x20 ADD PUSH0 KECCAK256 PUSH0 PUSH2 0x100 EXP DUP2 SLOAD DUP2 PUSH1 0xFF MUL NOT AND SWAP1 DUP4 ISZERO ISZERO MUL OR SWAP1 SSTORE POP PUSH1 0x1 DUP3 DUP3 PUSH2 0xFFFF AND DUP2 MLOAD DUP2 LT PUSH2 0x742 JUMPI PUSH2 0x741 PUSH2 0xAF6 JUMP JUMPDEST JUMPDEST PUSH1 0x20 MUL PUSH1 0x20 ADD ADD MLOAD SWAP1 DUP1 PUSH1 0x1 DUP2 SLOAD ADD DUP1 DUP3 SSTORE DUP1 SWAP2 POP POP PUSH1 0x1 SWAP1 SUB SWAP1 PUSH0 MSTORE PUSH1 0x20 PUSH0 KECCAK256 ADD PUSH0 SWAP1 SWAP2 SWAP1 SWAP2 SWAP1 SWAP2 PUSH2 0x100 EXP DUP2 SLOAD DUP2 PUSH20 0xFFFFFFFFFFFFFFFFFFFFFFFFFFFFFFFFFFFFFFFF MUL NOT AND SWAP1 DUP4 PUSH20 0xFFFFFFFFFFFFFFFFFFFFFFFFFFFFFFFFFFFFFFFF AND MUL OR SWAP1 SSTORE POP JUMPDEST DUP1 DUP1 PUSH2 0x7B3 SWAP1 PUSH2 0xBCE JUMP JUMPDEST SWAP2 POP POP PUSH2 0x63F JUMP JUMPDEST POP POP JUMP JUMPDEST PUSH0 PUSH1 0x40 MLOAD SWAP1 POP SWAP1 JUMP JUMPDEST PUSH0 DUP1 REVERT JUMPDEST PUSH0 DUP1 REVERT JUMPDEST PUSH0 PUSH20 0xFFFFFFFFFFFFFFFFFFFFFFFFFFFFFFFFFFFFFFFF DUP3 AND SWAP1 POP SWAP2 SWAP1 POP JUMP JUMPDEST PUSH0 PUSH2 0x7F9 DUP3 PUSH2 0x7D0 JUMP JUMPDEST SWAP1 POP SWAP2 SWAP1 POP JUMP JUMPDEST PUSH2 0x809 DUP2 PUSH2 0x7EF JUMP JUMPDEST DUP2 EQ PUSH2 0x813 JUMPI PUSH0 DUP1 REVERT JUMPDEST POP JUMP JUMPDEST PUSH0 DUP2 CALLDATALOAD SWAP1 POP PUSH2 0x824 DUP2 PUSH2 0x800 JUMP JUMPDEST SWAP3 SWAP2 POP POP JUMP JUMPDEST PUSH0 PUSH1 0x20 DUP3 DUP5 SUB SLT ISZERO PUSH2 0x83F JUMPI PUSH2 0x83E PUSH2 0x7C8 JUMP JUMPDEST JUMPDEST PUSH0 PUSH2 0x84C DUP5 DUP3 DUP6 ADD PUSH2 0x816 JUMP JUMPDEST SWAP2 POP POP SWAP3 SWAP2 POP POP JUMP JUMPDEST PUSH0 DUP2 MLOAD SWAP1 POP SWAP2 SWAP1 POP JUMP JUMPDEST PUSH0 DUP3 DUP3 MSTORE PUSH1 0x20 DUP3 ADD SWAP1 POP SWAP3 SWAP2 POP POP JUMP JUMPDEST PUSH0 DUP2 SWAP1 POP PUSH1 0x20 DUP3 ADD SWAP1 POP SWAP2 SWAP1 POP JUMP JUMPDEST PUSH2 0x887 DUP2 PUSH2 0x7EF JUMP JUMPDEST DUP3 MSTORE POP POP JUMP JUMPDEST PUSH0 PUSH2 0x898 DUP4 DUP4 PUSH2 0x87E JUMP JUMPDEST PUSH1 0x20 DUP4 ADD SWAP1 POP SWAP3 SWAP2 POP POP JUMP JUMPDEST PUSH0 PUSH1 0x20 DUP3 ADD SWAP1 POP SWAP2 SWAP1 POP JUMP JUMPDEST PUSH0 PUSH2 0x8BA DUP3 PUSH2 0x855 JUMP JUMPDEST PUSH2 0x8C4 DUP2 DUP6 PUSH2 0x85F JUMP JUMPDEST SWAP4 POP PUSH2 0x8CF DUP4 PUSH2 0x86F JUMP JUMPDEST DUP1 PUSH0 JUMPDEST DUP4 DUP2 LT ISZERO PUSH2 0x8FF JUMPI DUP2 MLOAD PUSH2 0x8E6 DUP9 DUP3 PUSH2 0x88D JUMP JUMPDEST SWAP8 POP PUSH2 0x8F1 DUP4 PUSH2 0x8A4 JUMP JUMPDEST SWAP3 POP POP PUSH1 0x1 DUP2 ADD SWAP1 POP PUSH2 0x8D2 JUMP JUMPDEST POP DUP6 SWAP4 POP POP POP POP SWAP3 SWAP2 POP POP JUMP JUMPDEST PUSH0 PUSH1 0x20 DUP3 ADD SWAP1 POP DUP2 DUP2 SUB PUSH0 DUP4 ADD MSTORE PUSH2 0x924 DUP2 DUP5 PUSH2 0x8B0 JUMP JUMPDEST SWAP1 POP SWAP3 SWAP2 POP POP JUMP JUMPDEST PUSH0 DUP2 ISZERO ISZERO SWAP1 POP SWAP2 SWAP1 POP JUMP JUMPDEST PUSH2 0x940 DUP2 PUSH2 0x92C JUMP JUMPDEST DUP3 MSTORE POP POP JUMP JUMPDEST PUSH0 PUSH1 0x20 DUP3 ADD SWAP1 POP PUSH2 0x959 PUSH0 DUP4 ADD DUP5 PUSH2 0x937 JUMP JUMPDEST SWAP3 SWAP2 POP POP JUMP JUMPDEST PUSH0 DUP1 REVERT JUMPDEST PUSH0 PUSH1 0x1F NOT PUSH1 0x1F DUP4 ADD AND SWAP1 POP SWAP2 SWAP1 POP JUMP JUMPDEST PUSH32 0x4E487B7100000000000000000000000000000000000000000000000000000000 PUSH0 MSTORE PUSH1 0x41 PUSH1 0x4 MSTORE PUSH1 0x24 PUSH0 REVERT JUMPDEST PUSH2 0x9A9 DUP3 PUSH2 0x963 JUMP JUMPDEST DUP2 ADD DUP2 DUP2 LT PUSH8 0xFFFFFFFFFFFFFFFF DUP3 GT OR ISZERO PUSH2 0x9C8 JUMPI PUSH2 0x9C7 PUSH2 0x973 JUMP JUMPDEST JUMPDEST DUP1 PUSH1 0x40 MSTORE POP POP POP JUMP JUMPDEST PUSH0 PUSH2 0x9DA PUSH2 0x7BF JUMP JUMPDEST SWAP1 POP PUSH2 0x9E6 DUP3 DUP3 PUSH2 0x9A0 JUMP JUMPDEST SWAP2 SWAP1 POP JUMP JUMPDEST PUSH0 PUSH8 0xFFFFFFFFFFFFFFFF DUP3 GT ISZERO PUSH2 0xA05 JUMPI PUSH2 0xA04 PUSH2 0x973 JUMP JUMPDEST JUMPDEST PUSH1 0x20 DUP3 MUL SWAP1 POP PUSH1 0x20 DUP2 ADD SWAP1 POP SWAP2 SWAP1 POP JUMP JUMPDEST PUSH0 DUP1 REVERT JUMPDEST PUSH0 PUSH2 0xA2C PUSH2 0xA27 DUP5 PUSH2 0x9EB JUMP JUMPDEST PUSH2 0x9D1 JUMP JUMPDEST SWAP1 POP DUP1 DUP4 DUP3 MSTORE PUSH1 0x20 DUP3 ADD SWAP1 POP PUSH1 0x20 DUP5 MUL DUP4 ADD DUP6 DUP2 GT ISZERO PUSH2 0xA4F JUMPI PUSH2 0xA4E PUSH2 0xA16 JUMP JUMPDEST JUMPDEST DUP4 JUMPDEST DUP2 DUP2 LT ISZERO PUSH2 0xA78 JUMPI DUP1 PUSH2 0xA64 DUP9 DUP3 PUSH2 0x816 JUMP JUMPDEST DUP5 MSTORE PUSH1 0x20 DUP5 ADD SWAP4 POP POP PUSH1 0x20 DUP2 ADD SWAP1 POP PUSH2 0xA51 JUMP JUMPDEST POP POP POP SWAP4 SWAP3 POP POP POP JUMP JUMPDEST PUSH0 DUP3 PUSH1 0x1F DUP4 ADD SLT PUSH2 0xA96 JUMPI PUSH2 0xA95 PUSH2 0x95F JUMP JUMPDEST JUMPDEST DUP2 CALLDATALOAD PUSH2 0xAA6 DUP5 DUP3 PUSH1 0x20 DUP7 ADD PUSH2 0xA1A JUMP JUMPDEST SWAP2 POP POP SWAP3 SWAP2 POP POP JUMP JUMPDEST PUSH0 PUSH1 0x20 DUP3 DUP5 SUB SLT ISZERO PUSH2 0xAC4 JUMPI PUSH2 0xAC3 PUSH2 0x7C8 JUMP JUMPDEST JUMPDEST PUSH0 DUP3 ADD CALLDATALOAD PUSH8 0xFFFFFFFFFFFFFFFF DUP2 GT ISZERO PUSH2 0xAE1 JUMPI PUSH2 0xAE0 PUSH2 0x7CC JUMP JUMPDEST JUMPDEST PUSH2 0xAED DUP5 DUP3 DUP6 ADD PUSH2 0xA82 JUMP JUMPDEST SWAP2 POP POP SWAP3 SWAP2 POP POP JUMP JUMPDEST PUSH32 0x4E487B7100000000000000000000000000000000000000000000000000000000 PUSH0 MSTORE PUSH1 0x32 PUSH1 0x4 MSTORE PUSH1 0x24 PUSH0 REVERT JUMPDEST PUSH0 DUP2 SWAP1 POP SWAP2 SWAP1 POP JUMP JUMPDEST PUSH32 0x4E487B7100000000000000000000000000000000000000000000000000000000 PUSH0 MSTORE PUSH1 0x11 PUSH1 0x4 MSTORE PUSH1 0x24 PUSH0 REVERT JUMPDEST PUSH0 PUSH2 0xB63 DUP3 PUSH2 0xB23 JUMP JUMPDEST SWAP2 POP PUSH2 0xB6E DUP4 PUSH2 0xB23 JUMP JUMPDEST SWAP3 POP DUP3 DUP3 SUB SWAP1 POP DUP2 DUP2 GT ISZERO PUSH2 0xB86 JUMPI PUSH2 0xB85 PUSH2 0xB2C JUMP JUMPDEST JUMPDEST SWAP3 SWAP2 POP POP JUMP JUMPDEST PUSH0 PUSH2 0xFFFF DUP3 AND SWAP1 POP SWAP2 SWAP1 POP JUMP JUMPDEST PUSH0 PUSH2 0xBA3 DUP3 PUSH2 0xB8C JUMP JUMPDEST SWAP2 POP PUSH2 0xBAE DUP4 PUSH2 0xB8C JUMP JUMPDEST SWAP3 POP DUP3 DUP3 ADD SWAP1 POP PUSH2 0xFFFF DUP2 GT ISZERO PUSH2 0xBC8 JUMPI PUSH2 0xBC7 PUSH2 0xB2C JUMP JUMPDEST JUMPDEST SWAP3 SWAP2 POP POP JUMP JUMPDEST PUSH0 PUSH2 0xBD8 DUP3 PUSH2 0xB8C JUMP JUMPDEST SWAP2 POP PUSH2 0xFFFF DUP3 SUB PUSH2 0xBEC JUMPI PUSH2 0xBEB PUSH2 0xB2C JUMP JUMPDEST JUMPDEST PUSH1 0x1 DUP3 ADD SWAP1 POP SWAP2 SWAP1 POP JUMP JUMPDEST PUSH32 0x4E487B7100000000000000000000000000000000000000000000000000000000 PUSH0 MSTORE PUSH1 0x31 PUSH1 0x4 MSTORE PUSH1 0x24 PUSH0 REVERT JUMPDEST PUSH0 DUP3 DUP3 MSTORE PUSH1 0x20 DUP3 ADD SWAP1 POP SWAP3 SWAP2 POP POP JUMP JUMPDEST PUSH32 0x6F6E6C792061646D696E2063616E20696E766F6B6520746869732066756E6374 PUSH0 DUP3 ADD MSTORE PUSH32 0x696F6E0000000000000000000000000000000000000000000000000000000000 PUSH1 0x20 DUP3 ADD MSTORE POP JUMP JUMPDEST PUSH0 PUSH2 0xC8E PUSH1 0x23 DUP4 PUSH2 0xC24 JUMP JUMPDEST SWAP2 POP PUSH2 0xC99 DUP3 PUSH2 0xC34 JUMP JUMPDEST PUSH1 0x40 DUP3 ADD SWAP1 POP SWAP2 SWAP1 POP JUMP JUMPDEST PUSH0 PUSH1 0x20 DUP3 ADD SWAP1 POP DUP2 DUP2 SUB PUSH0 DUP4 ADD MSTORE PUSH2 0xCBB DUP2 PUSH2 0xC82 JUMP JUMPDEST SWAP1 POP SWAP2 SWAP1 POP JUMP JUMPDEST PUSH32 0x5573657220657869737400000000000000000000000000000000000000000000 PUSH0 DUP3 ADD MSTORE POP JUMP JUMPDEST PUSH0 PUSH2 0xCF6 PUSH1 0xA DUP4 PUSH2 0xC24 JUMP JUMPDEST SWAP2 POP PUSH2 0xD01 DUP3 PUSH2 0xCC2 JUMP JUMPDEST PUSH1 0x20 DUP3 ADD SWAP1 POP SWAP2 SWAP1 POP JUMP JUMPDEST PUSH0 PUSH1 0x20 DUP3 ADD SWAP1 POP DUP2 DUP2 SUB PUSH0 DUP4 ADD MSTORE PUSH2 0xD23 DUP2 PUSH2 0xCEA JUMP JUMPDEST SWAP1 POP SWAP2 SWAP1 POP JUMP INVALID LOG2 PUSH5 0x6970667358 0x22 SLT KECCAK256 MUL 0xB7 0xBB PUSH10 0x58CEFB3E67531196C918 0x23 PUSH10 0x3C8B73C064BFB6167FEA GASLIMIT 0xA7 CREATE2 0xF7 SUB GAS PUSH5 0x736F6C6343 STOP ADDMOD BYTE STOP CALLER "
				},
				"gasEstimates": {
					"creation": {
						"codeDepositCost": "684800",
						"executionCost": "infinite",
						"totalCost": "infinite"
					},
					"external": {
						"AddEligibleUser(address)": "infinite",
						"AddMultipleEliglibleUser(address[])": "infinite",
						"RemoveEligibleUser(address)": "infinite",
						"lis()": "infinite",
						"returndf(address)": "2914"
					}
				},
				"methodIdentifiers": {
					"AddEligibleUser(address)": "7a6d918e",
					"AddMultipleEliglibleUser(address[])": "b7f7e6f0",
					"RemoveEligibleUser(address)": "5e0ca3b9",
					"lis()": "7eca453d",
					"returndf(address)": "b70cbe35"
				}
			},
			"storageLayout": {
				"storage": [
					{
						"astId": 8,
						"contract": "contracts/duationclaim.sol:DurationTest",
						"label": "EligibleUser",
						"offset": 0,
						"slot": "0",
						"type": "t_mapping(t_address,t_bool)"
					},
					{
						"astId": 11,
						"contract": "contracts/duationclaim.sol:DurationTest",
						"label": "EligibleUserArr",
						"offset": 0,
						"slot": "1",
						"type": "t_array(t_address)dyn_storage"
					}
				],
				"types": {
					"t_address": {
						"encoding": "inplace",
						"label": "address",
						"numberOfBytes": "20"
					},
					"t_array(t_address)dyn_storage": {
						"base": "t_address",
						"encoding": "dynamic_array",
						"label": "address[]",
						"numberOfBytes": "32"
					},
					"t_bool": {
						"encoding": "inplace",
						"label": "bool",
						"numberOfBytes": "1"
					},
					"t_mapping(t_address,t_bool)": {
						"encoding": "mapping",
						"key": "t_address",
						"label": "mapping(address => bool)",
						"numberOfBytes": "32",
						"value": "t_bool"
					}
				}
			},
			"userdoc": {
				"kind": "user",
				"methods": {},
				"version": 1
			}
		}
	}
}