{
	"contracts/duationclaim.sol": {
		"DurationTest": {
			"abi": [
				{
					"inputs": [
						{
							"internalType": "string",
							"name": "",
							"type": "string"
						}
					],
					"name": "DuplicateUserAdded",
					"type": "error"
				},
				{
					"inputs": [
						{
							"internalType": "address",
							"name": "_user",
							"type": "address"
						}
					],
					"name": "AddEligibleUser",
					"outputs": [],
					"stateMutability": "nonpayable",
					"type": "function"
				},
				{
					"inputs": [
						{
							"internalType": "address[]",
							"name": "_users",
							"type": "address[]"
						}
					],
					"name": "AddMultipleEliglibleUser",
					"outputs": [],
					"stateMutability": "nonpayable",
					"type": "function"
				},
				{
					"inputs": [
						{
							"internalType": "address",
							"name": "_user",
							"type": "address"
						}
					],
					"name": "RemoveEligibleUser",
					"outputs": [],
					"stateMutability": "nonpayable",
					"type": "function"
				},
				{
					"inputs": [],
					"name": "lis",
					"outputs": [
						{
							"internalType": "address[]",
							"name": "",
							"type": "address[]"
						}
					],
					"stateMutability": "view",
					"type": "function"
				},
				{
					"inputs": [
						{
							"internalType": "address",
							"name": "_user",
							"type": "address"
						}
					],
					"name": "returndf",
					"outputs": [
						{
							"internalType": "bool",
							"name": "",
							"type": "bool"
						}
					],
					"stateMutability": "view",
					"type": "function"
				},
				{
					"inputs": [],
					"name": "testClaim",
					"outputs": [],
					"stateMutability": "nonpayable",
					"type": "function"
				}
			],
			"devdoc": {
				"kind": "dev",
				"methods": {},
				"version": 1
			},
			"evm": {
				"assembly": "    /* \"contracts/duationclaim.sol\":60:2010  contract DurationTest{... */\n  mstore(0x40, 0xa0)\n    /* \"contracts/duationclaim.sol\":122:164  0x5B38Da6a701c568545dCfcB03FcB875f56beddC4 */\n  0x5b38da6a701c568545dcfcb03fcb875f56beddc4\n    /* \"contracts/duationclaim.sol\":88:164  address immutable private admin = 0x5B38Da6a701c568545dCfcB03FcB875f56beddC4 */\n  0xffffffffffffffffffffffffffffffffffffffff\n  and\n  0x80\n  swap1\n  0xffffffffffffffffffffffffffffffffffffffff\n  and\n  dup2\n  mstore\n  pop\n    /* \"contracts/duationclaim.sol\":60:2010  contract DurationTest{... */\n  callvalue\n  dup1\n  iszero\n  tag_1\n  jumpi\n  0x00\n  dup1\n  revert\ntag_1:\n  pop\n  mload(0x80)\n  codecopy(0x00, dataOffset(sub_0), dataSize(sub_0))\n  0x00\n  assignImmutable(\"0x13600b294191fc92924bb3ce4b969c1e7e2bab8f4c93c3fc6d0a51733df3c060\")\n  return(0x00, dataSize(sub_0))\nstop\n\nsub_0: assembly {\n        /* \"contracts/duationclaim.sol\":60:2010  contract DurationTest{... */\n      mstore(0x40, 0x80)\n      callvalue\n      dup1\n      iszero\n      tag_1\n      jumpi\n      0x00\n      dup1\n      revert\n    tag_1:\n      pop\n      jumpi(tag_2, lt(calldatasize, 0x04))\n      shr(0xe0, calldataload(0x00))\n      dup1\n      0x5e0ca3b9\n      eq\n      tag_3\n      jumpi\n      dup1\n      0x7a6d918e\n      eq\n      tag_4\n      jumpi\n      dup1\n      0x7eca453d\n      eq\n      tag_5\n      jumpi\n      dup1\n      0xb70cbe35\n      eq\n      tag_6\n      jumpi\n      dup1\n      0xb7f7e6f0\n      eq\n      tag_7\n      jumpi\n      dup1\n      0xf33cf57b\n      eq\n      tag_8\n      jumpi\n    tag_2:\n      0x00\n      dup1\n      revert\n        /* \"contracts/duationclaim.sol\":877:1358  function RemoveEligibleUser(address _user) external {... */\n    tag_3:\n      tag_9\n      0x04\n      dup1\n      calldatasize\n      sub\n      dup2\n      add\n      swap1\n      tag_10\n      swap2\n      swap1\n      tag_11\n      jump\t// in\n    tag_10:\n      tag_12\n      jump\t// in\n    tag_9:\n      stop\n        /* \"contracts/duationclaim.sol\":286:528  function AddEligibleUser(address _user) external onlyAdmin{... */\n    tag_4:\n      tag_13\n      0x04\n      dup1\n      calldatasize\n      sub\n      dup2\n      add\n      swap1\n      tag_14\n      swap2\n      swap1\n      tag_11\n      jump\t// in\n    tag_14:\n      tag_15\n      jump\t// in\n    tag_13:\n      stop\n        /* \"contracts/duationclaim.sol\":1682:1775  function lis() external view returns(address[] memory){... */\n    tag_5:\n      tag_16\n      tag_17\n      jump\t// in\n    tag_16:\n      mload(0x40)\n      tag_18\n      swap2\n      swap1\n      tag_19\n      jump\t// in\n    tag_18:\n      mload(0x40)\n      dup1\n      swap2\n      sub\n      swap1\n      return\n        /* \"contracts/duationclaim.sol\":1781:1885  function returndf(address _user) external view returns(bool) {... */\n    tag_6:\n      tag_20\n      0x04\n      dup1\n      calldatasize\n      sub\n      dup2\n      add\n      swap1\n      tag_21\n      swap2\n      swap1\n      tag_11\n      jump\t// in\n    tag_21:\n      tag_22\n      jump\t// in\n    tag_20:\n      mload(0x40)\n      tag_23\n      swap2\n      swap1\n      tag_24\n      jump\t// in\n    tag_23:\n      mload(0x40)\n      dup1\n      swap2\n      sub\n      swap1\n      return\n        /* \"contracts/duationclaim.sol\":534:870  function AddMultipleEliglibleUser(address[] memory _users) external  onlyAdmin{... */\n    tag_7:\n      tag_25\n      0x04\n      dup1\n      calldatasize\n      sub\n      dup2\n      add\n      swap1\n      tag_26\n      swap2\n      swap1\n      tag_27\n      jump\t// in\n    tag_26:\n      tag_28\n      jump\t// in\n    tag_25:\n      stop\n        /* \"contracts/duationclaim.sol\":1364:1401  function testClaim() external{... */\n    tag_8:\n      tag_29\n      tag_30\n      jump\t// in\n    tag_29:\n      stop\n        /* \"contracts/duationclaim.sol\":877:1358  function RemoveEligibleUser(address _user) external {... */\n    tag_12:\n        /* \"contracts/duationclaim.sol\":939:948  uint _len */\n      0x00\n        /* \"contracts/duationclaim.sol\":951:966  EligibleUserArr */\n      0x01\n        /* \"contracts/duationclaim.sol\":951:973  EligibleUserArr.length */\n      dup1\n      sload\n      swap1\n      pop\n        /* \"contracts/duationclaim.sol\":939:973  uint _len = EligibleUserArr.length */\n      swap1\n      pop\n        /* \"contracts/duationclaim.sol\":989:997  uint16 i */\n      0x00\n        /* \"contracts/duationclaim.sol\":984:1316  for( uint16 i; i < _len; i++){... */\n    tag_32:\n        /* \"contracts/duationclaim.sol\":1003:1007  _len */\n      dup2\n        /* \"contracts/duationclaim.sol\":999:1000  i */\n      dup2\n        /* \"contracts/duationclaim.sol\":999:1007  i < _len */\n      0xffff\n      and\n      lt\n        /* \"contracts/duationclaim.sol\":984:1316  for( uint16 i; i < _len; i++){... */\n      iszero\n      tag_33\n      jumpi\n        /* \"contracts/duationclaim.sol\":1073:1078  _user */\n      dup3\n        /* \"contracts/duationclaim.sol\":1051:1078  EligibleUserArr[i] == _user */\n      0xffffffffffffffffffffffffffffffffffffffff\n      and\n        /* \"contracts/duationclaim.sol\":1051:1066  EligibleUserArr */\n      0x01\n        /* \"contracts/duationclaim.sol\":1067:1068  i */\n      dup3\n        /* \"contracts/duationclaim.sol\":1051:1069  EligibleUserArr[i] */\n      0xffff\n      and\n      dup2\n      sload\n      dup2\n      lt\n      tag_35\n      jumpi\n      tag_36\n      tag_37\n      jump\t// in\n    tag_36:\n    tag_35:\n      swap1\n      0x00\n      mstore\n      keccak256(0x00, 0x20)\n      add\n      0x00\n      swap1\n      sload\n      swap1\n      0x0100\n      exp\n      swap1\n      div\n      0xffffffffffffffffffffffffffffffffffffffff\n      and\n        /* \"contracts/duationclaim.sol\":1051:1078  EligibleUserArr[i] == _user */\n      0xffffffffffffffffffffffffffffffffffffffff\n      and\n      sub\n        /* \"contracts/duationclaim.sol\":1047:1306  if( EligibleUserArr[i] == _user ){... */\n      tag_39\n      jumpi\n        /* \"contracts/duationclaim.sol\":1138:1146  uint16 j */\n      0x00\n        /* \"contracts/duationclaim.sol\":1149:1150  i */\n      dup2\n        /* \"contracts/duationclaim.sol\":1138:1150  uint16 j = i */\n      swap1\n      pop\n        /* \"contracts/duationclaim.sol\":1132:1253  for ( uint16 j = i; j < _len - 1; j++ ){... */\n    tag_40:\n        /* \"contracts/duationclaim.sol\":1163:1164  1 */\n      0x01\n        /* \"contracts/duationclaim.sol\":1156:1160  _len */\n      dup4\n        /* \"contracts/duationclaim.sol\":1156:1164  _len - 1 */\n      tag_43\n      swap2\n      swap1\n      tag_44\n      jump\t// in\n    tag_43:\n        /* \"contracts/duationclaim.sol\":1152:1153  j */\n      dup2\n        /* \"contracts/duationclaim.sol\":1152:1164  j < _len - 1 */\n      0xffff\n      and\n      lt\n        /* \"contracts/duationclaim.sol\":1132:1253  for ( uint16 j = i; j < _len - 1; j++ ){... */\n      iszero\n      tag_41\n      jumpi\n        /* \"contracts/duationclaim.sol\":1214:1229  EligibleUserArr */\n      0x01\n        /* \"contracts/duationclaim.sol\":1232:1233  1 */\n      dup1\n        /* \"contracts/duationclaim.sol\":1230:1231  j */\n      dup3\n        /* \"contracts/duationclaim.sol\":1230:1233  j+1 */\n      tag_45\n      swap2\n      swap1\n      tag_46\n      jump\t// in\n    tag_45:\n        /* \"contracts/duationclaim.sol\":1214:1234  EligibleUserArr[j+1] */\n      0xffff\n      and\n      dup2\n      sload\n      dup2\n      lt\n      tag_47\n      jumpi\n      tag_48\n      tag_37\n      jump\t// in\n    tag_48:\n    tag_47:\n      swap1\n      0x00\n      mstore\n      keccak256(0x00, 0x20)\n      add\n      0x00\n      swap1\n      sload\n      swap1\n      0x0100\n      exp\n      swap1\n      div\n      0xffffffffffffffffffffffffffffffffffffffff\n      and\n        /* \"contracts/duationclaim.sol\":1193:1208  EligibleUserArr */\n      0x01\n        /* \"contracts/duationclaim.sol\":1209:1210  j */\n      dup3\n        /* \"contracts/duationclaim.sol\":1193:1211  EligibleUserArr[j] */\n      0xffff\n      and\n      dup2\n      sload\n      dup2\n      lt\n      tag_50\n      jumpi\n      tag_51\n      tag_37\n      jump\t// in\n    tag_51:\n    tag_50:\n      swap1\n      0x00\n      mstore\n      keccak256(0x00, 0x20)\n      add\n      0x00\n        /* \"contracts/duationclaim.sol\":1193:1234  EligibleUserArr[j] = EligibleUserArr[j+1] */\n      0x0100\n      exp\n      dup2\n      sload\n      dup2\n      0xffffffffffffffffffffffffffffffffffffffff\n      mul\n      not\n      and\n      swap1\n      dup4\n      0xffffffffffffffffffffffffffffffffffffffff\n      and\n      mul\n      or\n      swap1\n      sstore\n      pop\n        /* \"contracts/duationclaim.sol\":1166:1169  j++ */\n      dup1\n      dup1\n      tag_53\n      swap1\n      tag_54\n      jump\t// in\n    tag_53:\n      swap2\n      pop\n      pop\n        /* \"contracts/duationclaim.sol\":1132:1253  for ( uint16 j = i; j < _len - 1; j++ ){... */\n      jump(tag_40)\n    tag_41:\n      pop\n        /* \"contracts/duationclaim.sol\":1270:1285  EligibleUserArr */\n      0x01\n        /* \"contracts/duationclaim.sol\":1270:1291  EligibleUserArr.pop() */\n      dup1\n      sload\n      dup1\n      tag_55\n      jumpi\n      tag_56\n      tag_57\n      jump\t// in\n    tag_56:\n    tag_55:\n      0x01\n      swap1\n      sub\n      dup2\n      dup2\n      swap1\n      0x00\n      mstore\n      keccak256(0x00, 0x20)\n      add\n      exp(0x0100, 0x00)\n      dup2\n      sload\n      swap1\n      0xffffffffffffffffffffffffffffffffffffffff\n      mul\n      not\n      and\n      swap1\n      sstore\n      swap1\n      sstore\n        /* \"contracts/duationclaim.sol\":1047:1306  if( EligibleUserArr[i] == _user ){... */\n    tag_39:\n        /* \"contracts/duationclaim.sol\":1009:1012  i++ */\n      dup1\n      dup1\n      tag_59\n      swap1\n      tag_54\n      jump\t// in\n    tag_59:\n      swap2\n      pop\n      pop\n        /* \"contracts/duationclaim.sol\":984:1316  for( uint16 i; i < _len; i++){... */\n      jump(tag_32)\n    tag_33:\n      pop\n        /* \"contracts/duationclaim.sol\":1332:1344  EligibleUser */\n      0x00\n        /* \"contracts/duationclaim.sol\":1332:1351  EligibleUser[_user] */\n      dup1\n        /* \"contracts/duationclaim.sol\":1345:1350  _user */\n      dup4\n        /* \"contracts/duationclaim.sol\":1332:1351  EligibleUser[_user] */\n      0xffffffffffffffffffffffffffffffffffffffff\n      and\n      0xffffffffffffffffffffffffffffffffffffffff\n      and\n      dup2\n      mstore\n      0x20\n      add\n      swap1\n      dup2\n      mstore\n      0x20\n      add\n      0x00\n      keccak256\n      0x00\n        /* \"contracts/duationclaim.sol\":1325:1351  delete EligibleUser[_user] */\n      0x0100\n      exp\n      dup2\n      sload\n      swap1\n      0xff\n      mul\n      not\n      and\n      swap1\n      sstore\n        /* \"contracts/duationclaim.sol\":929:1358  {... */\n      pop\n        /* \"contracts/duationclaim.sol\":877:1358  function RemoveEligibleUser(address _user) external {... */\n      pop\n      jump\t// out\n        /* \"contracts/duationclaim.sol\":286:528  function AddEligibleUser(address _user) external onlyAdmin{... */\n    tag_15:\n        /* \"contracts/duationclaim.sol\":1939:1949  msg.sender */\n      caller\n        /* \"contracts/duationclaim.sol\":1930:1949  admin == msg.sender */\n      0xffffffffffffffffffffffffffffffffffffffff\n      and\n        /* \"contracts/duationclaim.sol\":1930:1935  admin */\n      immutable(\"0x13600b294191fc92924bb3ce4b969c1e7e2bab8f4c93c3fc6d0a51733df3c060\")\n        /* \"contracts/duationclaim.sol\":1930:1949  admin == msg.sender */\n      0xffffffffffffffffffffffffffffffffffffffff\n      and\n      eq\n        /* \"contracts/duationclaim.sol\":1922:1989  require(admin == msg.sender, \"only admin can invoke this function\") */\n      tag_61\n      jumpi\n      mload(0x40)\n      0x08c379a000000000000000000000000000000000000000000000000000000000\n      dup2\n      mstore\n      0x04\n      add\n      tag_62\n      swap1\n      tag_63\n      jump\t// in\n    tag_62:\n      mload(0x40)\n      dup1\n      swap2\n      sub\n      swap1\n      revert\n    tag_61:\n        /* \"contracts/duationclaim.sol\":357:369  EligibleUser */\n      0x00\n        /* \"contracts/duationclaim.sol\":357:376  EligibleUser[_user] */\n      dup1\n        /* \"contracts/duationclaim.sol\":370:375  _user */\n      dup3\n        /* \"contracts/duationclaim.sol\":357:376  EligibleUser[_user] */\n      0xffffffffffffffffffffffffffffffffffffffff\n      and\n      0xffffffffffffffffffffffffffffffffffffffff\n      and\n      dup2\n      mstore\n      0x20\n      add\n      swap1\n      dup2\n      mstore\n      0x20\n      add\n      0x00\n      keccak256\n      0x00\n      swap1\n      sload\n      swap1\n      0x0100\n      exp\n      swap1\n      div\n      0xff\n      and\n        /* \"contracts/duationclaim.sol\":354:441  if(EligibleUser[_user]){... */\n      iszero\n      tag_65\n      jumpi\n        /* \"contracts/duationclaim.sol\":398:430  DuplicateUserAdded(\"User exist\") */\n      mload(0x40)\n      0x0e64c65800000000000000000000000000000000000000000000000000000000\n      dup2\n      mstore\n      0x04\n      add\n      tag_66\n      swap1\n      tag_67\n      jump\t// in\n    tag_66:\n      mload(0x40)\n      dup1\n      swap2\n      sub\n      swap1\n      revert\n        /* \"contracts/duationclaim.sol\":354:441  if(EligibleUser[_user]){... */\n    tag_65:\n        /* \"contracts/duationclaim.sol\":476:480  true */\n      0x01\n        /* \"contracts/duationclaim.sol\":454:466  EligibleUser */\n      0x00\n        /* \"contracts/duationclaim.sol\":454:473  EligibleUser[_user] */\n      dup1\n        /* \"contracts/duationclaim.sol\":467:472  _user */\n      dup4\n        /* \"contracts/duationclaim.sol\":454:473  EligibleUser[_user] */\n      0xffffffffffffffffffffffffffffffffffffffff\n      and\n      0xffffffffffffffffffffffffffffffffffffffff\n      and\n      dup2\n      mstore\n      0x20\n      add\n      swap1\n      dup2\n      mstore\n      0x20\n      add\n      0x00\n      keccak256\n      0x00\n        /* \"contracts/duationclaim.sol\":454:480  EligibleUser[_user] = true */\n      0x0100\n      exp\n      dup2\n      sload\n      dup2\n      0xff\n      mul\n      not\n      and\n      swap1\n      dup4\n      iszero\n      iszero\n      mul\n      or\n      swap1\n      sstore\n      pop\n        /* \"contracts/duationclaim.sol\":494:509  EligibleUserArr */\n      0x01\n        /* \"contracts/duationclaim.sol\":515:520  _user */\n      dup2\n        /* \"contracts/duationclaim.sol\":494:521  EligibleUserArr.push(_user) */\n      swap1\n      dup1\n      0x01\n      dup2\n      sload\n      add\n      dup1\n      dup3\n      sstore\n      dup1\n      swap2\n      pop\n      pop\n      0x01\n      swap1\n      sub\n      swap1\n      0x00\n      mstore\n      keccak256(0x00, 0x20)\n      add\n      0x00\n      swap1\n      swap2\n      swap1\n      swap2\n      swap1\n      swap2\n      0x0100\n      exp\n      dup2\n      sload\n      dup2\n      0xffffffffffffffffffffffffffffffffffffffff\n      mul\n      not\n      and\n      swap1\n      dup4\n      0xffffffffffffffffffffffffffffffffffffffff\n      and\n      mul\n      or\n      swap1\n      sstore\n      pop\n        /* \"contracts/duationclaim.sol\":286:528  function AddEligibleUser(address _user) external onlyAdmin{... */\n      pop\n      jump\t// out\n        /* \"contracts/duationclaim.sol\":1682:1775  function lis() external view returns(address[] memory){... */\n    tag_17:\n        /* \"contracts/duationclaim.sol\":1719:1735  address[] memory */\n      0x60\n        /* \"contracts/duationclaim.sol\":1753:1768  EligibleUserArr */\n      0x01\n        /* \"contracts/duationclaim.sol\":1746:1768  return EligibleUserArr */\n      dup1\n      sload\n      dup1\n      0x20\n      mul\n      0x20\n      add\n      mload(0x40)\n      swap1\n      dup2\n      add\n      0x40\n      mstore\n      dup1\n      swap3\n      swap2\n      swap1\n      dup2\n      dup2\n      mstore\n      0x20\n      add\n      dup3\n      dup1\n      sload\n      dup1\n      iszero\n      tag_70\n      jumpi\n      0x20\n      mul\n      dup3\n      add\n      swap2\n      swap1\n      0x00\n      mstore\n      keccak256(0x00, 0x20)\n      swap1\n    tag_71:\n      dup2\n      0x00\n      swap1\n      sload\n      swap1\n      0x0100\n      exp\n      swap1\n      div\n      0xffffffffffffffffffffffffffffffffffffffff\n      and\n      0xffffffffffffffffffffffffffffffffffffffff\n      and\n      dup2\n      mstore\n      0x20\n      add\n      swap1\n      0x01\n      add\n      swap1\n      dup1\n      dup4\n      gt\n      tag_71\n      jumpi\n    tag_70:\n      pop\n      pop\n      pop\n      pop\n      pop\n      swap1\n      pop\n        /* \"contracts/duationclaim.sol\":1682:1775  function lis() external view returns(address[] memory){... */\n      swap1\n      jump\t// out\n        /* \"contracts/duationclaim.sol\":1781:1885  function returndf(address _user) external view returns(bool) {... */\n    tag_22:\n        /* \"contracts/duationclaim.sol\":1836:1840  bool */\n      0x00\n        /* \"contracts/duationclaim.sol\":1859:1871  EligibleUser */\n      dup1\n        /* \"contracts/duationclaim.sol\":1859:1878  EligibleUser[_user] */\n      0x00\n        /* \"contracts/duationclaim.sol\":1872:1877  _user */\n      dup4\n        /* \"contracts/duationclaim.sol\":1859:1878  EligibleUser[_user] */\n      0xffffffffffffffffffffffffffffffffffffffff\n      and\n      0xffffffffffffffffffffffffffffffffffffffff\n      and\n      dup2\n      mstore\n      0x20\n      add\n      swap1\n      dup2\n      mstore\n      0x20\n      add\n      0x00\n      keccak256\n      0x00\n      swap1\n      sload\n      swap1\n      0x0100\n      exp\n      swap1\n      div\n      0xff\n      and\n        /* \"contracts/duationclaim.sol\":1852:1878  return EligibleUser[_user] */\n      swap1\n      pop\n        /* \"contracts/duationclaim.sol\":1781:1885  function returndf(address _user) external view returns(bool) {... */\n      swap2\n      swap1\n      pop\n      jump\t// out\n        /* \"contracts/duationclaim.sol\":534:870  function AddMultipleEliglibleUser(address[] memory _users) external  onlyAdmin{... */\n    tag_28:\n        /* \"contracts/duationclaim.sol\":1939:1949  msg.sender */\n      caller\n        /* \"contracts/duationclaim.sol\":1930:1949  admin == msg.sender */\n      0xffffffffffffffffffffffffffffffffffffffff\n      and\n        /* \"contracts/duationclaim.sol\":1930:1935  admin */\n      immutable(\"0x13600b294191fc92924bb3ce4b969c1e7e2bab8f4c93c3fc6d0a51733df3c060\")\n        /* \"contracts/duationclaim.sol\":1930:1949  admin == msg.sender */\n      0xffffffffffffffffffffffffffffffffffffffff\n      and\n      eq\n        /* \"contracts/duationclaim.sol\":1922:1989  require(admin == msg.sender, \"only admin can invoke this function\") */\n      tag_74\n      jumpi\n      mload(0x40)\n      0x08c379a000000000000000000000000000000000000000000000000000000000\n      dup2\n      mstore\n      0x04\n      add\n      tag_75\n      swap1\n      tag_63\n      jump\t// in\n    tag_75:\n      mload(0x40)\n      dup1\n      swap2\n      sub\n      swap1\n      revert\n    tag_74:\n        /* \"contracts/duationclaim.sol\":627:635  uint16 i */\n      0x00\n        /* \"contracts/duationclaim.sol\":622:856  for( uint16 i; i < _users.length; i++){... */\n    tag_77:\n        /* \"contracts/duationclaim.sol\":641:647  _users */\n      dup2\n        /* \"contracts/duationclaim.sol\":641:654  _users.length */\n      mload\n        /* \"contracts/duationclaim.sol\":637:638  i */\n      dup2\n        /* \"contracts/duationclaim.sol\":637:654  i < _users.length */\n      0xffff\n      and\n      lt\n        /* \"contracts/duationclaim.sol\":622:856  for( uint16 i; i < _users.length; i++){... */\n      iszero\n      tag_78\n      jumpi\n        /* \"contracts/duationclaim.sol\":691:703  EligibleUser */\n      0x00\n        /* \"contracts/duationclaim.sol\":691:714  EligibleUser[_users[i]] */\n      dup1\n        /* \"contracts/duationclaim.sol\":704:710  _users */\n      dup4\n        /* \"contracts/duationclaim.sol\":711:712  i */\n      dup4\n        /* \"contracts/duationclaim.sol\":704:713  _users[i] */\n      0xffff\n      and\n      dup2\n      mload\n      dup2\n      lt\n      tag_80\n      jumpi\n      tag_81\n      tag_37\n      jump\t// in\n    tag_81:\n    tag_80:\n      0x20\n      mul\n      0x20\n      add\n      add\n      mload\n        /* \"contracts/duationclaim.sol\":691:714  EligibleUser[_users[i]] */\n      0xffffffffffffffffffffffffffffffffffffffff\n      and\n      0xffffffffffffffffffffffffffffffffffffffff\n      and\n      dup2\n      mstore\n      0x20\n      add\n      swap1\n      dup2\n      mstore\n      0x20\n      add\n      0x00\n      keccak256\n      0x00\n      swap1\n      sload\n      swap1\n      0x0100\n      exp\n      swap1\n      div\n      0xff\n      and\n        /* \"contracts/duationclaim.sol\":733:741  continue */\n      tag_79\n        /* \"contracts/duationclaim.sol\":688:756  if(EligibleUser[_users[i]]){... */\n      jumpi\n        /* \"contracts/duationclaim.sol\":796:800  true */\n      0x01\n        /* \"contracts/duationclaim.sol\":770:782  EligibleUser */\n      0x00\n        /* \"contracts/duationclaim.sol\":770:793  EligibleUser[_users[i]] */\n      dup1\n        /* \"contracts/duationclaim.sol\":783:789  _users */\n      dup5\n        /* \"contracts/duationclaim.sol\":790:791  i */\n      dup5\n        /* \"contracts/duationclaim.sol\":783:792  _users[i] */\n      0xffff\n      and\n      dup2\n      mload\n      dup2\n      lt\n      tag_83\n      jumpi\n      tag_84\n      tag_37\n      jump\t// in\n    tag_84:\n    tag_83:\n      0x20\n      mul\n      0x20\n      add\n      add\n      mload\n        /* \"contracts/duationclaim.sol\":770:793  EligibleUser[_users[i]] */\n      0xffffffffffffffffffffffffffffffffffffffff\n      and\n      0xffffffffffffffffffffffffffffffffffffffff\n      and\n      dup2\n      mstore\n      0x20\n      add\n      swap1\n      dup2\n      mstore\n      0x20\n      add\n      0x00\n      keccak256\n      0x00\n        /* \"contracts/duationclaim.sol\":770:800  EligibleUser[_users[i]] = true */\n      0x0100\n      exp\n      dup2\n      sload\n      dup2\n      0xff\n      mul\n      not\n      and\n      swap1\n      dup4\n      iszero\n      iszero\n      mul\n      or\n      swap1\n      sstore\n      pop\n        /* \"contracts/duationclaim.sol\":814:829  EligibleUserArr */\n      0x01\n        /* \"contracts/duationclaim.sol\":835:841  _users */\n      dup3\n        /* \"contracts/duationclaim.sol\":842:843  i */\n      dup3\n        /* \"contracts/duationclaim.sol\":835:844  _users[i] */\n      0xffff\n      and\n      dup2\n      mload\n      dup2\n      lt\n      tag_85\n      jumpi\n      tag_86\n      tag_37\n      jump\t// in\n    tag_86:\n    tag_85:\n      0x20\n      mul\n      0x20\n      add\n      add\n      mload\n        /* \"contracts/duationclaim.sol\":814:845  EligibleUserArr.push(_users[i]) */\n      swap1\n      dup1\n      0x01\n      dup2\n      sload\n      add\n      dup1\n      dup3\n      sstore\n      dup1\n      swap2\n      pop\n      pop\n      0x01\n      swap1\n      sub\n      swap1\n      0x00\n      mstore\n      keccak256(0x00, 0x20)\n      add\n      0x00\n      swap1\n      swap2\n      swap1\n      swap2\n      swap1\n      swap2\n      0x0100\n      exp\n      dup2\n      sload\n      dup2\n      0xffffffffffffffffffffffffffffffffffffffff\n      mul\n      not\n      and\n      swap1\n      dup4\n      0xffffffffffffffffffffffffffffffffffffffff\n      and\n      mul\n      or\n      swap1\n      sstore\n      pop\n        /* \"contracts/duationclaim.sol\":622:856  for( uint16 i; i < _users.length; i++){... */\n    tag_79:\n        /* \"contracts/duationclaim.sol\":656:659  i++ */\n      dup1\n      dup1\n      tag_88\n      swap1\n      tag_54\n      jump\t// in\n    tag_88:\n      swap2\n      pop\n      pop\n        /* \"contracts/duationclaim.sol\":622:856  for( uint16 i; i < _users.length; i++){... */\n      jump(tag_77)\n    tag_78:\n      pop\n        /* \"contracts/duationclaim.sol\":534:870  function AddMultipleEliglibleUser(address[] memory _users) external  onlyAdmin{... */\n      pop\n      jump\t// out\n        /* \"contracts/duationclaim.sol\":1364:1401  function testClaim() external{... */\n    tag_30:\n      jump\t// out\n        /* \"#utility.yul\":7:82   */\n    tag_90:\n        /* \"#utility.yul\":40:46   */\n      0x00\n        /* \"#utility.yul\":73:75   */\n      0x40\n        /* \"#utility.yul\":67:76   */\n      mload\n        /* \"#utility.yul\":57:76   */\n      swap1\n      pop\n        /* \"#utility.yul\":7:82   */\n      swap1\n      jump\t// out\n        /* \"#utility.yul\":88:205   */\n    tag_91:\n        /* \"#utility.yul\":197:198   */\n      0x00\n        /* \"#utility.yul\":194:195   */\n      dup1\n        /* \"#utility.yul\":187:199   */\n      revert\n        /* \"#utility.yul\":211:328   */\n    tag_92:\n        /* \"#utility.yul\":320:321   */\n      0x00\n        /* \"#utility.yul\":317:318   */\n      dup1\n        /* \"#utility.yul\":310:322   */\n      revert\n        /* \"#utility.yul\":334:460   */\n    tag_93:\n        /* \"#utility.yul\":371:378   */\n      0x00\n        /* \"#utility.yul\":411:453   */\n      0xffffffffffffffffffffffffffffffffffffffff\n        /* \"#utility.yul\":404:409   */\n      dup3\n        /* \"#utility.yul\":400:454   */\n      and\n        /* \"#utility.yul\":389:454   */\n      swap1\n      pop\n        /* \"#utility.yul\":334:460   */\n      swap2\n      swap1\n      pop\n      jump\t// out\n        /* \"#utility.yul\":466:562   */\n    tag_94:\n        /* \"#utility.yul\":503:510   */\n      0x00\n        /* \"#utility.yul\":532:556   */\n      tag_129\n        /* \"#utility.yul\":550:555   */\n      dup3\n        /* \"#utility.yul\":532:556   */\n      tag_93\n      jump\t// in\n    tag_129:\n        /* \"#utility.yul\":521:556   */\n      swap1\n      pop\n        /* \"#utility.yul\":466:562   */\n      swap2\n      swap1\n      pop\n      jump\t// out\n        /* \"#utility.yul\":568:690   */\n    tag_95:\n        /* \"#utility.yul\":641:665   */\n      tag_131\n        /* \"#utility.yul\":659:664   */\n      dup2\n        /* \"#utility.yul\":641:665   */\n      tag_94\n      jump\t// in\n    tag_131:\n        /* \"#utility.yul\":634:639   */\n      dup2\n        /* \"#utility.yul\":631:666   */\n      eq\n        /* \"#utility.yul\":621:684   */\n      tag_132\n      jumpi\n        /* \"#utility.yul\":680:681   */\n      0x00\n        /* \"#utility.yul\":677:678   */\n      dup1\n        /* \"#utility.yul\":670:682   */\n      revert\n        /* \"#utility.yul\":621:684   */\n    tag_132:\n        /* \"#utility.yul\":568:690   */\n      pop\n      jump\t// out\n        /* \"#utility.yul\":696:835   */\n    tag_96:\n        /* \"#utility.yul\":742:747   */\n      0x00\n        /* \"#utility.yul\":780:786   */\n      dup2\n        /* \"#utility.yul\":767:787   */\n      calldataload\n        /* \"#utility.yul\":758:787   */\n      swap1\n      pop\n        /* \"#utility.yul\":796:829   */\n      tag_134\n        /* \"#utility.yul\":823:828   */\n      dup2\n        /* \"#utility.yul\":796:829   */\n      tag_95\n      jump\t// in\n    tag_134:\n        /* \"#utility.yul\":696:835   */\n      swap3\n      swap2\n      pop\n      pop\n      jump\t// out\n        /* \"#utility.yul\":841:1170   */\n    tag_11:\n        /* \"#utility.yul\":900:906   */\n      0x00\n        /* \"#utility.yul\":949:951   */\n      0x20\n        /* \"#utility.yul\":937:946   */\n      dup3\n        /* \"#utility.yul\":928:935   */\n      dup5\n        /* \"#utility.yul\":924:947   */\n      sub\n        /* \"#utility.yul\":920:952   */\n      slt\n        /* \"#utility.yul\":917:1036   */\n      iszero\n      tag_136\n      jumpi\n        /* \"#utility.yul\":955:1034   */\n      tag_137\n      tag_91\n      jump\t// in\n    tag_137:\n        /* \"#utility.yul\":917:1036   */\n    tag_136:\n        /* \"#utility.yul\":1075:1076   */\n      0x00\n        /* \"#utility.yul\":1100:1153   */\n      tag_138\n        /* \"#utility.yul\":1145:1152   */\n      dup5\n        /* \"#utility.yul\":1136:1142   */\n      dup3\n        /* \"#utility.yul\":1125:1134   */\n      dup6\n        /* \"#utility.yul\":1121:1143   */\n      add\n        /* \"#utility.yul\":1100:1153   */\n      tag_96\n      jump\t// in\n    tag_138:\n        /* \"#utility.yul\":1090:1153   */\n      swap2\n      pop\n        /* \"#utility.yul\":1046:1163   */\n      pop\n        /* \"#utility.yul\":841:1170   */\n      swap3\n      swap2\n      pop\n      pop\n      jump\t// out\n        /* \"#utility.yul\":1176:1290   */\n    tag_97:\n        /* \"#utility.yul\":1243:1249   */\n      0x00\n        /* \"#utility.yul\":1277:1282   */\n      dup2\n        /* \"#utility.yul\":1271:1283   */\n      mload\n        /* \"#utility.yul\":1261:1283   */\n      swap1\n      pop\n        /* \"#utility.yul\":1176:1290   */\n      swap2\n      swap1\n      pop\n      jump\t// out\n        /* \"#utility.yul\":1296:1480   */\n    tag_98:\n        /* \"#utility.yul\":1395:1406   */\n      0x00\n        /* \"#utility.yul\":1429:1435   */\n      dup3\n        /* \"#utility.yul\":1424:1427   */\n      dup3\n        /* \"#utility.yul\":1417:1436   */\n      mstore\n        /* \"#utility.yul\":1469:1473   */\n      0x20\n        /* \"#utility.yul\":1464:1467   */\n      dup3\n        /* \"#utility.yul\":1460:1474   */\n      add\n        /* \"#utility.yul\":1445:1474   */\n      swap1\n      pop\n        /* \"#utility.yul\":1296:1480   */\n      swap3\n      swap2\n      pop\n      pop\n      jump\t// out\n        /* \"#utility.yul\":1486:1618   */\n    tag_99:\n        /* \"#utility.yul\":1553:1557   */\n      0x00\n        /* \"#utility.yul\":1576:1579   */\n      dup2\n        /* \"#utility.yul\":1568:1579   */\n      swap1\n      pop\n        /* \"#utility.yul\":1606:1610   */\n      0x20\n        /* \"#utility.yul\":1601:1604   */\n      dup3\n        /* \"#utility.yul\":1597:1611   */\n      add\n        /* \"#utility.yul\":1589:1611   */\n      swap1\n      pop\n        /* \"#utility.yul\":1486:1618   */\n      swap2\n      swap1\n      pop\n      jump\t// out\n        /* \"#utility.yul\":1624:1732   */\n    tag_100:\n        /* \"#utility.yul\":1701:1725   */\n      tag_143\n        /* \"#utility.yul\":1719:1724   */\n      dup2\n        /* \"#utility.yul\":1701:1725   */\n      tag_94\n      jump\t// in\n    tag_143:\n        /* \"#utility.yul\":1696:1699   */\n      dup3\n        /* \"#utility.yul\":1689:1726   */\n      mstore\n        /* \"#utility.yul\":1624:1732   */\n      pop\n      pop\n      jump\t// out\n        /* \"#utility.yul\":1738:1917   */\n    tag_101:\n        /* \"#utility.yul\":1807:1817   */\n      0x00\n        /* \"#utility.yul\":1828:1874   */\n      tag_145\n        /* \"#utility.yul\":1870:1873   */\n      dup4\n        /* \"#utility.yul\":1862:1868   */\n      dup4\n        /* \"#utility.yul\":1828:1874   */\n      tag_100\n      jump\t// in\n    tag_145:\n        /* \"#utility.yul\":1906:1910   */\n      0x20\n        /* \"#utility.yul\":1901:1904   */\n      dup4\n        /* \"#utility.yul\":1897:1911   */\n      add\n        /* \"#utility.yul\":1883:1911   */\n      swap1\n      pop\n        /* \"#utility.yul\":1738:1917   */\n      swap3\n      swap2\n      pop\n      pop\n      jump\t// out\n        /* \"#utility.yul\":1923:2036   */\n    tag_102:\n        /* \"#utility.yul\":1993:1997   */\n      0x00\n        /* \"#utility.yul\":2025:2029   */\n      0x20\n        /* \"#utility.yul\":2020:2023   */\n      dup3\n        /* \"#utility.yul\":2016:2030   */\n      add\n        /* \"#utility.yul\":2008:2030   */\n      swap1\n      pop\n        /* \"#utility.yul\":1923:2036   */\n      swap2\n      swap1\n      pop\n      jump\t// out\n        /* \"#utility.yul\":2072:2804   */\n    tag_103:\n        /* \"#utility.yul\":2191:2194   */\n      0x00\n        /* \"#utility.yul\":2220:2274   */\n      tag_148\n        /* \"#utility.yul\":2268:2273   */\n      dup3\n        /* \"#utility.yul\":2220:2274   */\n      tag_97\n      jump\t// in\n    tag_148:\n        /* \"#utility.yul\":2290:2376   */\n      tag_149\n        /* \"#utility.yul\":2369:2375   */\n      dup2\n        /* \"#utility.yul\":2364:2367   */\n      dup6\n        /* \"#utility.yul\":2290:2376   */\n      tag_98\n      jump\t// in\n    tag_149:\n        /* \"#utility.yul\":2283:2376   */\n      swap4\n      pop\n        /* \"#utility.yul\":2400:2456   */\n      tag_150\n        /* \"#utility.yul\":2450:2455   */\n      dup4\n        /* \"#utility.yul\":2400:2456   */\n      tag_99\n      jump\t// in\n    tag_150:\n        /* \"#utility.yul\":2479:2486   */\n      dup1\n        /* \"#utility.yul\":2510:2511   */\n      0x00\n        /* \"#utility.yul\":2495:2779   */\n    tag_151:\n        /* \"#utility.yul\":2520:2526   */\n      dup4\n        /* \"#utility.yul\":2517:2518   */\n      dup2\n        /* \"#utility.yul\":2514:2527   */\n      lt\n        /* \"#utility.yul\":2495:2779   */\n      iszero\n      tag_153\n      jumpi\n        /* \"#utility.yul\":2596:2602   */\n      dup2\n        /* \"#utility.yul\":2590:2603   */\n      mload\n        /* \"#utility.yul\":2623:2686   */\n      tag_154\n        /* \"#utility.yul\":2682:2685   */\n      dup9\n        /* \"#utility.yul\":2667:2680   */\n      dup3\n        /* \"#utility.yul\":2623:2686   */\n      tag_101\n      jump\t// in\n    tag_154:\n        /* \"#utility.yul\":2616:2686   */\n      swap8\n      pop\n        /* \"#utility.yul\":2709:2769   */\n      tag_155\n        /* \"#utility.yul\":2762:2768   */\n      dup4\n        /* \"#utility.yul\":2709:2769   */\n      tag_102\n      jump\t// in\n    tag_155:\n        /* \"#utility.yul\":2699:2769   */\n      swap3\n      pop\n        /* \"#utility.yul\":2555:2779   */\n      pop\n        /* \"#utility.yul\":2542:2543   */\n      0x01\n        /* \"#utility.yul\":2539:2540   */\n      dup2\n        /* \"#utility.yul\":2535:2544   */\n      add\n        /* \"#utility.yul\":2530:2544   */\n      swap1\n      pop\n        /* \"#utility.yul\":2495:2779   */\n      jump(tag_151)\n    tag_153:\n        /* \"#utility.yul\":2499:2513   */\n      pop\n        /* \"#utility.yul\":2795:2798   */\n      dup6\n        /* \"#utility.yul\":2788:2798   */\n      swap4\n      pop\n        /* \"#utility.yul\":2196:2804   */\n      pop\n      pop\n      pop\n        /* \"#utility.yul\":2072:2804   */\n      swap3\n      swap2\n      pop\n      pop\n      jump\t// out\n        /* \"#utility.yul\":2810:3183   */\n    tag_19:\n        /* \"#utility.yul\":2953:2957   */\n      0x00\n        /* \"#utility.yul\":2991:2993   */\n      0x20\n        /* \"#utility.yul\":2980:2989   */\n      dup3\n        /* \"#utility.yul\":2976:2994   */\n      add\n        /* \"#utility.yul\":2968:2994   */\n      swap1\n      pop\n        /* \"#utility.yul\":3040:3049   */\n      dup2\n        /* \"#utility.yul\":3034:3038   */\n      dup2\n        /* \"#utility.yul\":3030:3050   */\n      sub\n        /* \"#utility.yul\":3026:3027   */\n      0x00\n        /* \"#utility.yul\":3015:3024   */\n      dup4\n        /* \"#utility.yul\":3011:3028   */\n      add\n        /* \"#utility.yul\":3004:3051   */\n      mstore\n        /* \"#utility.yul\":3068:3176   */\n      tag_157\n        /* \"#utility.yul\":3171:3175   */\n      dup2\n        /* \"#utility.yul\":3162:3168   */\n      dup5\n        /* \"#utility.yul\":3068:3176   */\n      tag_103\n      jump\t// in\n    tag_157:\n        /* \"#utility.yul\":3060:3176   */\n      swap1\n      pop\n        /* \"#utility.yul\":2810:3183   */\n      swap3\n      swap2\n      pop\n      pop\n      jump\t// out\n        /* \"#utility.yul\":3189:3279   */\n    tag_104:\n        /* \"#utility.yul\":3223:3230   */\n      0x00\n        /* \"#utility.yul\":3266:3271   */\n      dup2\n        /* \"#utility.yul\":3259:3272   */\n      iszero\n        /* \"#utility.yul\":3252:3273   */\n      iszero\n        /* \"#utility.yul\":3241:3273   */\n      swap1\n      pop\n        /* \"#utility.yul\":3189:3279   */\n      swap2\n      swap1\n      pop\n      jump\t// out\n        /* \"#utility.yul\":3285:3394   */\n    tag_105:\n        /* \"#utility.yul\":3366:3387   */\n      tag_160\n        /* \"#utility.yul\":3381:3386   */\n      dup2\n        /* \"#utility.yul\":3366:3387   */\n      tag_104\n      jump\t// in\n    tag_160:\n        /* \"#utility.yul\":3361:3364   */\n      dup3\n        /* \"#utility.yul\":3354:3388   */\n      mstore\n        /* \"#utility.yul\":3285:3394   */\n      pop\n      pop\n      jump\t// out\n        /* \"#utility.yul\":3400:3610   */\n    tag_24:\n        /* \"#utility.yul\":3487:3491   */\n      0x00\n        /* \"#utility.yul\":3525:3527   */\n      0x20\n        /* \"#utility.yul\":3514:3523   */\n      dup3\n        /* \"#utility.yul\":3510:3528   */\n      add\n        /* \"#utility.yul\":3502:3528   */\n      swap1\n      pop\n        /* \"#utility.yul\":3538:3603   */\n      tag_162\n        /* \"#utility.yul\":3600:3601   */\n      0x00\n        /* \"#utility.yul\":3589:3598   */\n      dup4\n        /* \"#utility.yul\":3585:3602   */\n      add\n        /* \"#utility.yul\":3576:3582   */\n      dup5\n        /* \"#utility.yul\":3538:3603   */\n      tag_105\n      jump\t// in\n    tag_162:\n        /* \"#utility.yul\":3400:3610   */\n      swap3\n      swap2\n      pop\n      pop\n      jump\t// out\n        /* \"#utility.yul\":3616:3733   */\n    tag_106:\n        /* \"#utility.yul\":3725:3726   */\n      0x00\n        /* \"#utility.yul\":3722:3723   */\n      dup1\n        /* \"#utility.yul\":3715:3727   */\n      revert\n        /* \"#utility.yul\":3739:3841   */\n    tag_107:\n        /* \"#utility.yul\":3780:3786   */\n      0x00\n        /* \"#utility.yul\":3831:3833   */\n      0x1f\n        /* \"#utility.yul\":3827:3834   */\n      not\n        /* \"#utility.yul\":3822:3824   */\n      0x1f\n        /* \"#utility.yul\":3815:3820   */\n      dup4\n        /* \"#utility.yul\":3811:3825   */\n      add\n        /* \"#utility.yul\":3807:3835   */\n      and\n        /* \"#utility.yul\":3797:3835   */\n      swap1\n      pop\n        /* \"#utility.yul\":3739:3841   */\n      swap2\n      swap1\n      pop\n      jump\t// out\n        /* \"#utility.yul\":3847:4027   */\n    tag_108:\n        /* \"#utility.yul\":3895:3972   */\n      0x4e487b7100000000000000000000000000000000000000000000000000000000\n        /* \"#utility.yul\":3892:3893   */\n      0x00\n        /* \"#utility.yul\":3885:3973   */\n      mstore\n        /* \"#utility.yul\":3992:3996   */\n      0x41\n        /* \"#utility.yul\":3989:3990   */\n      0x04\n        /* \"#utility.yul\":3982:3997   */\n      mstore\n        /* \"#utility.yul\":4016:4020   */\n      0x24\n        /* \"#utility.yul\":4013:4014   */\n      0x00\n        /* \"#utility.yul\":4006:4021   */\n      revert\n        /* \"#utility.yul\":4033:4314   */\n    tag_109:\n        /* \"#utility.yul\":4116:4143   */\n      tag_167\n        /* \"#utility.yul\":4138:4142   */\n      dup3\n        /* \"#utility.yul\":4116:4143   */\n      tag_107\n      jump\t// in\n    tag_167:\n        /* \"#utility.yul\":4108:4114   */\n      dup2\n        /* \"#utility.yul\":4104:4144   */\n      add\n        /* \"#utility.yul\":4246:4252   */\n      dup2\n        /* \"#utility.yul\":4234:4244   */\n      dup2\n        /* \"#utility.yul\":4231:4253   */\n      lt\n        /* \"#utility.yul\":4210:4228   */\n      0xffffffffffffffff\n        /* \"#utility.yul\":4198:4208   */\n      dup3\n        /* \"#utility.yul\":4195:4229   */\n      gt\n        /* \"#utility.yul\":4192:4254   */\n      or\n        /* \"#utility.yul\":4189:4277   */\n      iszero\n      tag_168\n      jumpi\n        /* \"#utility.yul\":4257:4275   */\n      tag_169\n      tag_108\n      jump\t// in\n    tag_169:\n        /* \"#utility.yul\":4189:4277   */\n    tag_168:\n        /* \"#utility.yul\":4297:4307   */\n      dup1\n        /* \"#utility.yul\":4293:4295   */\n      0x40\n        /* \"#utility.yul\":4286:4308   */\n      mstore\n        /* \"#utility.yul\":4076:4314   */\n      pop\n        /* \"#utility.yul\":4033:4314   */\n      pop\n      pop\n      jump\t// out\n        /* \"#utility.yul\":4320:4449   */\n    tag_110:\n        /* \"#utility.yul\":4354:4360   */\n      0x00\n        /* \"#utility.yul\":4381:4401   */\n      tag_171\n      tag_90\n      jump\t// in\n    tag_171:\n        /* \"#utility.yul\":4371:4401   */\n      swap1\n      pop\n        /* \"#utility.yul\":4410:4443   */\n      tag_172\n        /* \"#utility.yul\":4438:4442   */\n      dup3\n        /* \"#utility.yul\":4430:4436   */\n      dup3\n        /* \"#utility.yul\":4410:4443   */\n      tag_109\n      jump\t// in\n    tag_172:\n        /* \"#utility.yul\":4320:4449   */\n      swap2\n      swap1\n      pop\n      jump\t// out\n        /* \"#utility.yul\":4455:4766   */\n    tag_111:\n        /* \"#utility.yul\":4532:4536   */\n      0x00\n        /* \"#utility.yul\":4622:4640   */\n      0xffffffffffffffff\n        /* \"#utility.yul\":4614:4620   */\n      dup3\n        /* \"#utility.yul\":4611:4641   */\n      gt\n        /* \"#utility.yul\":4608:4664   */\n      iszero\n      tag_174\n      jumpi\n        /* \"#utility.yul\":4644:4662   */\n      tag_175\n      tag_108\n      jump\t// in\n    tag_175:\n        /* \"#utility.yul\":4608:4664   */\n    tag_174:\n        /* \"#utility.yul\":4694:4698   */\n      0x20\n        /* \"#utility.yul\":4686:4692   */\n      dup3\n        /* \"#utility.yul\":4682:4699   */\n      mul\n        /* \"#utility.yul\":4674:4699   */\n      swap1\n      pop\n        /* \"#utility.yul\":4754:4758   */\n      0x20\n        /* \"#utility.yul\":4748:4752   */\n      dup2\n        /* \"#utility.yul\":4744:4759   */\n      add\n        /* \"#utility.yul\":4736:4759   */\n      swap1\n      pop\n        /* \"#utility.yul\":4455:4766   */\n      swap2\n      swap1\n      pop\n      jump\t// out\n        /* \"#utility.yul\":4772:4889   */\n    tag_112:\n        /* \"#utility.yul\":4881:4882   */\n      0x00\n        /* \"#utility.yul\":4878:4879   */\n      dup1\n        /* \"#utility.yul\":4871:4883   */\n      revert\n        /* \"#utility.yul\":4912:5622   */\n    tag_113:\n        /* \"#utility.yul\":5008:5013   */\n      0x00\n        /* \"#utility.yul\":5033:5114   */\n      tag_178\n        /* \"#utility.yul\":5049:5113   */\n      tag_179\n        /* \"#utility.yul\":5106:5112   */\n      dup5\n        /* \"#utility.yul\":5049:5113   */\n      tag_111\n      jump\t// in\n    tag_179:\n        /* \"#utility.yul\":5033:5114   */\n      tag_110\n      jump\t// in\n    tag_178:\n        /* \"#utility.yul\":5024:5114   */\n      swap1\n      pop\n        /* \"#utility.yul\":5134:5139   */\n      dup1\n        /* \"#utility.yul\":5163:5169   */\n      dup4\n        /* \"#utility.yul\":5156:5161   */\n      dup3\n        /* \"#utility.yul\":5149:5170   */\n      mstore\n        /* \"#utility.yul\":5197:5201   */\n      0x20\n        /* \"#utility.yul\":5190:5195   */\n      dup3\n        /* \"#utility.yul\":5186:5202   */\n      add\n        /* \"#utility.yul\":5179:5202   */\n      swap1\n      pop\n        /* \"#utility.yul\":5250:5254   */\n      0x20\n        /* \"#utility.yul\":5242:5248   */\n      dup5\n        /* \"#utility.yul\":5238:5255   */\n      mul\n        /* \"#utility.yul\":5230:5236   */\n      dup4\n        /* \"#utility.yul\":5226:5256   */\n      add\n        /* \"#utility.yul\":5279:5282   */\n      dup6\n        /* \"#utility.yul\":5271:5277   */\n      dup2\n        /* \"#utility.yul\":5268:5283   */\n      gt\n        /* \"#utility.yul\":5265:5387   */\n      iszero\n      tag_180\n      jumpi\n        /* \"#utility.yul\":5298:5377   */\n      tag_181\n      tag_112\n      jump\t// in\n    tag_181:\n        /* \"#utility.yul\":5265:5387   */\n    tag_180:\n        /* \"#utility.yul\":5413:5419   */\n      dup4\n        /* \"#utility.yul\":5396:5616   */\n    tag_182:\n        /* \"#utility.yul\":5430:5436   */\n      dup2\n        /* \"#utility.yul\":5425:5428   */\n      dup2\n        /* \"#utility.yul\":5422:5437   */\n      lt\n        /* \"#utility.yul\":5396:5616   */\n      iszero\n      tag_184\n      jumpi\n        /* \"#utility.yul\":5505:5508   */\n      dup1\n        /* \"#utility.yul\":5534:5571   */\n      tag_185\n        /* \"#utility.yul\":5567:5570   */\n      dup9\n        /* \"#utility.yul\":5555:5565   */\n      dup3\n        /* \"#utility.yul\":5534:5571   */\n      tag_96\n      jump\t// in\n    tag_185:\n        /* \"#utility.yul\":5529:5532   */\n      dup5\n        /* \"#utility.yul\":5522:5572   */\n      mstore\n        /* \"#utility.yul\":5601:5605   */\n      0x20\n        /* \"#utility.yul\":5596:5599   */\n      dup5\n        /* \"#utility.yul\":5592:5606   */\n      add\n        /* \"#utility.yul\":5585:5606   */\n      swap4\n      pop\n        /* \"#utility.yul\":5472:5616   */\n      pop\n        /* \"#utility.yul\":5456:5460   */\n      0x20\n        /* \"#utility.yul\":5451:5454   */\n      dup2\n        /* \"#utility.yul\":5447:5461   */\n      add\n        /* \"#utility.yul\":5440:5461   */\n      swap1\n      pop\n        /* \"#utility.yul\":5396:5616   */\n      jump(tag_182)\n    tag_184:\n        /* \"#utility.yul\":5400:5421   */\n      pop\n        /* \"#utility.yul\":5014:5622   */\n      pop\n      pop\n        /* \"#utility.yul\":4912:5622   */\n      swap4\n      swap3\n      pop\n      pop\n      pop\n      jump\t// out\n        /* \"#utility.yul\":5645:6015   */\n    tag_114:\n        /* \"#utility.yul\":5716:5721   */\n      0x00\n        /* \"#utility.yul\":5765:5768   */\n      dup3\n        /* \"#utility.yul\":5758:5762   */\n      0x1f\n        /* \"#utility.yul\":5750:5756   */\n      dup4\n        /* \"#utility.yul\":5746:5763   */\n      add\n        /* \"#utility.yul\":5742:5769   */\n      slt\n        /* \"#utility.yul\":5732:5854   */\n      tag_187\n      jumpi\n        /* \"#utility.yul\":5773:5852   */\n      tag_188\n      tag_106\n      jump\t// in\n    tag_188:\n        /* \"#utility.yul\":5732:5854   */\n    tag_187:\n        /* \"#utility.yul\":5890:5896   */\n      dup2\n        /* \"#utility.yul\":5877:5897   */\n      calldataload\n        /* \"#utility.yul\":5915:6009   */\n      tag_189\n        /* \"#utility.yul\":6005:6008   */\n      dup5\n        /* \"#utility.yul\":5997:6003   */\n      dup3\n        /* \"#utility.yul\":5990:5994   */\n      0x20\n        /* \"#utility.yul\":5982:5988   */\n      dup7\n        /* \"#utility.yul\":5978:5995   */\n      add\n        /* \"#utility.yul\":5915:6009   */\n      tag_113\n      jump\t// in\n    tag_189:\n        /* \"#utility.yul\":5906:6009   */\n      swap2\n      pop\n        /* \"#utility.yul\":5722:6015   */\n      pop\n        /* \"#utility.yul\":5645:6015   */\n      swap3\n      swap2\n      pop\n      pop\n      jump\t// out\n        /* \"#utility.yul\":6021:6560   */\n    tag_27:\n        /* \"#utility.yul\":6105:6111   */\n      0x00\n        /* \"#utility.yul\":6154:6156   */\n      0x20\n        /* \"#utility.yul\":6142:6151   */\n      dup3\n        /* \"#utility.yul\":6133:6140   */\n      dup5\n        /* \"#utility.yul\":6129:6152   */\n      sub\n        /* \"#utility.yul\":6125:6157   */\n      slt\n        /* \"#utility.yul\":6122:6241   */\n      iszero\n      tag_191\n      jumpi\n        /* \"#utility.yul\":6160:6239   */\n      tag_192\n      tag_91\n      jump\t// in\n    tag_192:\n        /* \"#utility.yul\":6122:6241   */\n    tag_191:\n        /* \"#utility.yul\":6308:6309   */\n      0x00\n        /* \"#utility.yul\":6297:6306   */\n      dup3\n        /* \"#utility.yul\":6293:6310   */\n      add\n        /* \"#utility.yul\":6280:6311   */\n      calldataload\n        /* \"#utility.yul\":6338:6356   */\n      0xffffffffffffffff\n        /* \"#utility.yul\":6330:6336   */\n      dup2\n        /* \"#utility.yul\":6327:6357   */\n      gt\n        /* \"#utility.yul\":6324:6441   */\n      iszero\n      tag_193\n      jumpi\n        /* \"#utility.yul\":6360:6439   */\n      tag_194\n      tag_92\n      jump\t// in\n    tag_194:\n        /* \"#utility.yul\":6324:6441   */\n    tag_193:\n        /* \"#utility.yul\":6465:6543   */\n      tag_195\n        /* \"#utility.yul\":6535:6542   */\n      dup5\n        /* \"#utility.yul\":6526:6532   */\n      dup3\n        /* \"#utility.yul\":6515:6524   */\n      dup6\n        /* \"#utility.yul\":6511:6533   */\n      add\n        /* \"#utility.yul\":6465:6543   */\n      tag_114\n      jump\t// in\n    tag_195:\n        /* \"#utility.yul\":6455:6543   */\n      swap2\n      pop\n        /* \"#utility.yul\":6251:6553   */\n      pop\n        /* \"#utility.yul\":6021:6560   */\n      swap3\n      swap2\n      pop\n      pop\n      jump\t// out\n        /* \"#utility.yul\":6566:6746   */\n    tag_37:\n        /* \"#utility.yul\":6614:6691   */\n      0x4e487b7100000000000000000000000000000000000000000000000000000000\n        /* \"#utility.yul\":6611:6612   */\n      0x00\n        /* \"#utility.yul\":6604:6692   */\n      mstore\n        /* \"#utility.yul\":6711:6715   */\n      0x32\n        /* \"#utility.yul\":6708:6709   */\n      0x04\n        /* \"#utility.yul\":6701:6716   */\n      mstore\n        /* \"#utility.yul\":6735:6739   */\n      0x24\n        /* \"#utility.yul\":6732:6733   */\n      0x00\n        /* \"#utility.yul\":6725:6740   */\n      revert\n        /* \"#utility.yul\":6752:6829   */\n    tag_115:\n        /* \"#utility.yul\":6789:6796   */\n      0x00\n        /* \"#utility.yul\":6818:6823   */\n      dup2\n        /* \"#utility.yul\":6807:6823   */\n      swap1\n      pop\n        /* \"#utility.yul\":6752:6829   */\n      swap2\n      swap1\n      pop\n      jump\t// out\n        /* \"#utility.yul\":6835:7015   */\n    tag_116:\n        /* \"#utility.yul\":6883:6960   */\n      0x4e487b7100000000000000000000000000000000000000000000000000000000\n        /* \"#utility.yul\":6880:6881   */\n      0x00\n        /* \"#utility.yul\":6873:6961   */\n      mstore\n        /* \"#utility.yul\":6980:6984   */\n      0x11\n        /* \"#utility.yul\":6977:6978   */\n      0x04\n        /* \"#utility.yul\":6970:6985   */\n      mstore\n        /* \"#utility.yul\":7004:7008   */\n      0x24\n        /* \"#utility.yul\":7001:7002   */\n      0x00\n        /* \"#utility.yul\":6994:7009   */\n      revert\n        /* \"#utility.yul\":7021:7215   */\n    tag_44:\n        /* \"#utility.yul\":7061:7065   */\n      0x00\n        /* \"#utility.yul\":7081:7101   */\n      tag_200\n        /* \"#utility.yul\":7099:7100   */\n      dup3\n        /* \"#utility.yul\":7081:7101   */\n      tag_115\n      jump\t// in\n    tag_200:\n        /* \"#utility.yul\":7076:7101   */\n      swap2\n      pop\n        /* \"#utility.yul\":7115:7135   */\n      tag_201\n        /* \"#utility.yul\":7133:7134   */\n      dup4\n        /* \"#utility.yul\":7115:7135   */\n      tag_115\n      jump\t// in\n    tag_201:\n        /* \"#utility.yul\":7110:7135   */\n      swap3\n      pop\n        /* \"#utility.yul\":7159:7160   */\n      dup3\n        /* \"#utility.yul\":7156:7157   */\n      dup3\n        /* \"#utility.yul\":7152:7161   */\n      sub\n        /* \"#utility.yul\":7144:7161   */\n      swap1\n      pop\n        /* \"#utility.yul\":7183:7184   */\n      dup2\n        /* \"#utility.yul\":7177:7181   */\n      dup2\n        /* \"#utility.yul\":7174:7185   */\n      gt\n        /* \"#utility.yul\":7171:7208   */\n      iszero\n      tag_202\n      jumpi\n        /* \"#utility.yul\":7188:7206   */\n      tag_203\n      tag_116\n      jump\t// in\n    tag_203:\n        /* \"#utility.yul\":7171:7208   */\n    tag_202:\n        /* \"#utility.yul\":7021:7215   */\n      swap3\n      swap2\n      pop\n      pop\n      jump\t// out\n        /* \"#utility.yul\":7221:7310   */\n    tag_117:\n        /* \"#utility.yul\":7257:7264   */\n      0x00\n        /* \"#utility.yul\":7297:7303   */\n      0xffff\n        /* \"#utility.yul\":7290:7295   */\n      dup3\n        /* \"#utility.yul\":7286:7304   */\n      and\n        /* \"#utility.yul\":7275:7304   */\n      swap1\n      pop\n        /* \"#utility.yul\":7221:7310   */\n      swap2\n      swap1\n      pop\n      jump\t// out\n        /* \"#utility.yul\":7316:7509   */\n    tag_46:\n        /* \"#utility.yul\":7355:7358   */\n      0x00\n        /* \"#utility.yul\":7374:7393   */\n      tag_206\n        /* \"#utility.yul\":7391:7392   */\n      dup3\n        /* \"#utility.yul\":7374:7393   */\n      tag_117\n      jump\t// in\n    tag_206:\n        /* \"#utility.yul\":7369:7393   */\n      swap2\n      pop\n        /* \"#utility.yul\":7407:7426   */\n      tag_207\n        /* \"#utility.yul\":7424:7425   */\n      dup4\n        /* \"#utility.yul\":7407:7426   */\n      tag_117\n      jump\t// in\n    tag_207:\n        /* \"#utility.yul\":7402:7426   */\n      swap3\n      pop\n        /* \"#utility.yul\":7449:7450   */\n      dup3\n        /* \"#utility.yul\":7446:7447   */\n      dup3\n        /* \"#utility.yul\":7442:7451   */\n      add\n        /* \"#utility.yul\":7435:7451   */\n      swap1\n      pop\n        /* \"#utility.yul\":7472:7478   */\n      0xffff\n        /* \"#utility.yul\":7467:7470   */\n      dup2\n        /* \"#utility.yul\":7464:7479   */\n      gt\n        /* \"#utility.yul\":7461:7502   */\n      iszero\n      tag_208\n      jumpi\n        /* \"#utility.yul\":7482:7500   */\n      tag_209\n      tag_116\n      jump\t// in\n    tag_209:\n        /* \"#utility.yul\":7461:7502   */\n    tag_208:\n        /* \"#utility.yul\":7316:7509   */\n      swap3\n      swap2\n      pop\n      pop\n      jump\t// out\n        /* \"#utility.yul\":7515:7686   */\n    tag_54:\n        /* \"#utility.yul\":7553:7556   */\n      0x00\n        /* \"#utility.yul\":7576:7599   */\n      tag_211\n        /* \"#utility.yul\":7593:7598   */\n      dup3\n        /* \"#utility.yul\":7576:7599   */\n      tag_117\n      jump\t// in\n    tag_211:\n        /* \"#utility.yul\":7567:7599   */\n      swap2\n      pop\n        /* \"#utility.yul\":7621:7627   */\n      0xffff\n        /* \"#utility.yul\":7614:7619   */\n      dup3\n        /* \"#utility.yul\":7611:7628   */\n      sub\n        /* \"#utility.yul\":7608:7651   */\n      tag_212\n      jumpi\n        /* \"#utility.yul\":7631:7649   */\n      tag_213\n      tag_116\n      jump\t// in\n    tag_213:\n        /* \"#utility.yul\":7608:7651   */\n    tag_212:\n        /* \"#utility.yul\":7678:7679   */\n      0x01\n        /* \"#utility.yul\":7671:7676   */\n      dup3\n        /* \"#utility.yul\":7667:7680   */\n      add\n        /* \"#utility.yul\":7660:7680   */\n      swap1\n      pop\n        /* \"#utility.yul\":7515:7686   */\n      swap2\n      swap1\n      pop\n      jump\t// out\n        /* \"#utility.yul\":7692:7872   */\n    tag_57:\n        /* \"#utility.yul\":7740:7817   */\n      0x4e487b7100000000000000000000000000000000000000000000000000000000\n        /* \"#utility.yul\":7737:7738   */\n      0x00\n        /* \"#utility.yul\":7730:7818   */\n      mstore\n        /* \"#utility.yul\":7837:7841   */\n      0x31\n        /* \"#utility.yul\":7834:7835   */\n      0x04\n        /* \"#utility.yul\":7827:7842   */\n      mstore\n        /* \"#utility.yul\":7861:7865   */\n      0x24\n        /* \"#utility.yul\":7858:7859   */\n      0x00\n        /* \"#utility.yul\":7851:7866   */\n      revert\n        /* \"#utility.yul\":7878:8047   */\n    tag_118:\n        /* \"#utility.yul\":7962:7973   */\n      0x00\n        /* \"#utility.yul\":7996:8002   */\n      dup3\n        /* \"#utility.yul\":7991:7994   */\n      dup3\n        /* \"#utility.yul\":7984:8003   */\n      mstore\n        /* \"#utility.yul\":8036:8040   */\n      0x20\n        /* \"#utility.yul\":8031:8034   */\n      dup3\n        /* \"#utility.yul\":8027:8041   */\n      add\n        /* \"#utility.yul\":8012:8041   */\n      swap1\n      pop\n        /* \"#utility.yul\":7878:8047   */\n      swap3\n      swap2\n      pop\n      pop\n      jump\t// out\n        /* \"#utility.yul\":8053:8275   */\n    tag_119:\n        /* \"#utility.yul\":8193:8227   */\n      0x6f6e6c792061646d696e2063616e20696e766f6b6520746869732066756e6374\n        /* \"#utility.yul\":8189:8190   */\n      0x00\n        /* \"#utility.yul\":8181:8187   */\n      dup3\n        /* \"#utility.yul\":8177:8191   */\n      add\n        /* \"#utility.yul\":8170:8228   */\n      mstore\n        /* \"#utility.yul\":8262:8267   */\n      0x696f6e0000000000000000000000000000000000000000000000000000000000\n        /* \"#utility.yul\":8257:8259   */\n      0x20\n        /* \"#utility.yul\":8249:8255   */\n      dup3\n        /* \"#utility.yul\":8245:8260   */\n      add\n        /* \"#utility.yul\":8238:8268   */\n      mstore\n        /* \"#utility.yul\":8053:8275   */\n      pop\n      jump\t// out\n        /* \"#utility.yul\":8281:8647   */\n    tag_120:\n        /* \"#utility.yul\":8423:8426   */\n      0x00\n        /* \"#utility.yul\":8444:8511   */\n      tag_218\n        /* \"#utility.yul\":8508:8510   */\n      0x23\n        /* \"#utility.yul\":8503:8506   */\n      dup4\n        /* \"#utility.yul\":8444:8511   */\n      tag_118\n      jump\t// in\n    tag_218:\n        /* \"#utility.yul\":8437:8511   */\n      swap2\n      pop\n        /* \"#utility.yul\":8520:8613   */\n      tag_219\n        /* \"#utility.yul\":8609:8612   */\n      dup3\n        /* \"#utility.yul\":8520:8613   */\n      tag_119\n      jump\t// in\n    tag_219:\n        /* \"#utility.yul\":8638:8640   */\n      0x40\n        /* \"#utility.yul\":8633:8636   */\n      dup3\n        /* \"#utility.yul\":8629:8641   */\n      add\n        /* \"#utility.yul\":8622:8641   */\n      swap1\n      pop\n        /* \"#utility.yul\":8281:8647   */\n      swap2\n      swap1\n      pop\n      jump\t// out\n        /* \"#utility.yul\":8653:9072   */\n    tag_63:\n        /* \"#utility.yul\":8819:8823   */\n      0x00\n        /* \"#utility.yul\":8857:8859   */\n      0x20\n        /* \"#utility.yul\":8846:8855   */\n      dup3\n        /* \"#utility.yul\":8842:8860   */\n      add\n        /* \"#utility.yul\":8834:8860   */\n      swap1\n      pop\n        /* \"#utility.yul\":8906:8915   */\n      dup2\n        /* \"#utility.yul\":8900:8904   */\n      dup2\n        /* \"#utility.yul\":8896:8916   */\n      sub\n        /* \"#utility.yul\":8892:8893   */\n      0x00\n        /* \"#utility.yul\":8881:8890   */\n      dup4\n        /* \"#utility.yul\":8877:8894   */\n      add\n        /* \"#utility.yul\":8870:8917   */\n      mstore\n        /* \"#utility.yul\":8934:9065   */\n      tag_221\n        /* \"#utility.yul\":9060:9064   */\n      dup2\n        /* \"#utility.yul\":8934:9065   */\n      tag_120\n      jump\t// in\n    tag_221:\n        /* \"#utility.yul\":8926:9065   */\n      swap1\n      pop\n        /* \"#utility.yul\":8653:9072   */\n      swap2\n      swap1\n      pop\n      jump\t// out\n        /* \"#utility.yul\":9078:9238   */\n    tag_121:\n        /* \"#utility.yul\":9218:9230   */\n      0x5573657220657869737400000000000000000000000000000000000000000000\n        /* \"#utility.yul\":9214:9215   */\n      0x00\n        /* \"#utility.yul\":9206:9212   */\n      dup3\n        /* \"#utility.yul\":9202:9216   */\n      add\n        /* \"#utility.yul\":9195:9231   */\n      mstore\n        /* \"#utility.yul\":9078:9238   */\n      pop\n      jump\t// out\n        /* \"#utility.yul\":9244:9610   */\n    tag_122:\n        /* \"#utility.yul\":9386:9389   */\n      0x00\n        /* \"#utility.yul\":9407:9474   */\n      tag_224\n        /* \"#utility.yul\":9471:9473   */\n      0x0a\n        /* \"#utility.yul\":9466:9469   */\n      dup4\n        /* \"#utility.yul\":9407:9474   */\n      tag_118\n      jump\t// in\n    tag_224:\n        /* \"#utility.yul\":9400:9474   */\n      swap2\n      pop\n        /* \"#utility.yul\":9483:9576   */\n      tag_225\n        /* \"#utility.yul\":9572:9575   */\n      dup3\n        /* \"#utility.yul\":9483:9576   */\n      tag_121\n      jump\t// in\n    tag_225:\n        /* \"#utility.yul\":9601:9603   */\n      0x20\n        /* \"#utility.yul\":9596:9599   */\n      dup3\n        /* \"#utility.yul\":9592:9604   */\n      add\n        /* \"#utility.yul\":9585:9604   */\n      swap1\n      pop\n        /* \"#utility.yul\":9244:9610   */\n      swap2\n      swap1\n      pop\n      jump\t// out\n        /* \"#utility.yul\":9616:10035   */\n    tag_67:\n        /* \"#utility.yul\":9782:9786   */\n      0x00\n        /* \"#utility.yul\":9820:9822   */\n      0x20\n        /* \"#utility.yul\":9809:9818   */\n      dup3\n        /* \"#utility.yul\":9805:9823   */\n      add\n        /* \"#utility.yul\":9797:9823   */\n      swap1\n      pop\n        /* \"#utility.yul\":9869:9878   */\n      dup2\n        /* \"#utility.yul\":9863:9867   */\n      dup2\n        /* \"#utility.yul\":9859:9879   */\n      sub\n        /* \"#utility.yul\":9855:9856   */\n      0x00\n        /* \"#utility.yul\":9844:9853   */\n      dup4\n        /* \"#utility.yul\":9840:9857   */\n      add\n        /* \"#utility.yul\":9833:9880   */\n      mstore\n        /* \"#utility.yul\":9897:10028   */\n      tag_227\n        /* \"#utility.yul\":10023:10027   */\n      dup2\n        /* \"#utility.yul\":9897:10028   */\n      tag_122\n      jump\t// in\n    tag_227:\n        /* \"#utility.yul\":9889:10028   */\n      swap1\n      pop\n        /* \"#utility.yul\":9616:10035   */\n      swap2\n      swap1\n      pop\n      jump\t// out\n\n    auxdata: 0xa26469706673582212205579c04d5d0833b0ab573d577619963c2704999642edc9234ca742185181e4be64736f6c634300081a0033\n}\n",
				"bytecode": {
					"linkReferences": {},
					"object": "60a0604052735b38da6a701c568545dcfcb03fcb875f56beddc473ffffffffffffffffffffffffffffffffffffffff1660809073ffffffffffffffffffffffffffffffffffffffff168152503480156055575f80fd5b50608051610d776100755f395f818161033301526105dd0152610d775ff3fe608060405234801561000f575f80fd5b5060043610610060575f3560e01c80635e0ca3b9146100645780637a6d918e146100805780637eca453d1461009c578063b70cbe35146100ba578063b7f7e6f0146100ea578063f33cf57b14610106575b5f80fd5b61007e60048036038101906100799190610841565b610110565b005b61009a60048036038101906100959190610841565b61031a565b005b6100a46104e8565b6040516100b19190610923565b60405180910390f35b6100d460048036038101906100cf9190610841565b610573565b6040516100e1919061095d565b60405180910390f35b61010460048036038101906100ff9190610ac6565b6105c4565b005b61010e6107d4565b005b5f60018054905090505f5b818161ffff1610156102ca578273ffffffffffffffffffffffffffffffffffffffff1660018261ffff168154811061015657610155610b0d565b5b905f5260205f20015f9054906101000a900473ffffffffffffffffffffffffffffffffffffffff1673ffffffffffffffffffffffffffffffffffffffff16036102b7575f8190505b6001836101ab9190610b70565b8161ffff16101561027157600180826101c49190610bb0565b61ffff16815481106101d9576101d8610b0d565b5b905f5260205f20015f9054906101000a900473ffffffffffffffffffffffffffffffffffffffff1660018261ffff168154811061021957610218610b0d565b5b905f5260205f20015f6101000a81548173ffffffffffffffffffffffffffffffffffffffff021916908373ffffffffffffffffffffffffffffffffffffffff160217905550808061026990610be5565b91505061019e565b50600180548061028457610283610c0e565b5b600190038181905f5260205f20015f6101000a81549073ffffffffffffffffffffffffffffffffffffffff021916905590555b80806102c290610be5565b91505061011b565b505f808373ffffffffffffffffffffffffffffffffffffffff1673ffffffffffffffffffffffffffffffffffffffff1681526020019081526020015f205f6101000a81549060ff02191690555050565b3373ffffffffffffffffffffffffffffffffffffffff167f000000000000000000000000000000000000000000000000000000000000000073ffffffffffffffffffffffffffffffffffffffff16146103a8576040517f08c379a000000000000000000000000000000000000000000000000000000000815260040161039f90610cbb565b60405180910390fd5b5f808273ffffffffffffffffffffffffffffffffffffffff1673ffffffffffffffffffffffffffffffffffffffff1681526020019081526020015f205f9054906101000a900460ff1615610431576040517f0e64c65800000000000000000000000000000000000000000000000000000000815260040161042890610d23565b60405180910390fd5b60015f808373ffffffffffffffffffffffffffffffffffffffff1673ffffffffffffffffffffffffffffffffffffffff1681526020019081526020015f205f6101000a81548160ff021916908315150217905550600181908060018154018082558091505060019003905f5260205f20015f9091909190916101000a81548173ffffffffffffffffffffffffffffffffffffffff021916908373ffffffffffffffffffffffffffffffffffffffff16021790555050565b6060600180548060200260200160405190810160405280929190818152602001828054801561056957602002820191905f5260205f20905b815f9054906101000a900473ffffffffffffffffffffffffffffffffffffffff1673ffffffffffffffffffffffffffffffffffffffff1681526020019060010190808311610520575b5050505050905090565b5f805f8373ffffffffffffffffffffffffffffffffffffffff1673ffffffffffffffffffffffffffffffffffffffff1681526020019081526020015f205f9054906101000a900460ff169050919050565b3373ffffffffffffffffffffffffffffffffffffffff167f000000000000000000000000000000000000000000000000000000000000000073ffffffffffffffffffffffffffffffffffffffff1614610652576040517f08c379a000000000000000000000000000000000000000000000000000000000815260040161064990610cbb565b60405180910390fd5b5f5b81518161ffff1610156107d0575f80838361ffff168151811061067a57610679610b0d565b5b602002602001015173ffffffffffffffffffffffffffffffffffffffff1673ffffffffffffffffffffffffffffffffffffffff1681526020019081526020015f205f9054906101000a900460ff166107bd5760015f80848461ffff16815181106106e7576106e6610b0d565b5b602002602001015173ffffffffffffffffffffffffffffffffffffffff1673ffffffffffffffffffffffffffffffffffffffff1681526020019081526020015f205f6101000a81548160ff0219169083151502179055506001828261ffff168151811061075757610756610b0d565b5b6020026020010151908060018154018082558091505060019003905f5260205f20015f9091909190916101000a81548173ffffffffffffffffffffffffffffffffffffffff021916908373ffffffffffffffffffffffffffffffffffffffff1602179055505b80806107c890610be5565b915050610654565b5050565b565b5f604051905090565b5f80fd5b5f80fd5b5f73ffffffffffffffffffffffffffffffffffffffff82169050919050565b5f610810826107e7565b9050919050565b61082081610806565b811461082a575f80fd5b50565b5f8135905061083b81610817565b92915050565b5f60208284031215610856576108556107df565b5b5f6108638482850161082d565b91505092915050565b5f81519050919050565b5f82825260208201905092915050565b5f819050602082019050919050565b61089e81610806565b82525050565b5f6108af8383610895565b60208301905092915050565b5f602082019050919050565b5f6108d18261086c565b6108db8185610876565b93506108e683610886565b805f5b838110156109165781516108fd88826108a4565b9750610908836108bb565b9250506001810190506108e9565b5085935050505092915050565b5f6020820190508181035f83015261093b81846108c7565b905092915050565b5f8115159050919050565b61095781610943565b82525050565b5f6020820190506109705f83018461094e565b92915050565b5f80fd5b5f601f19601f8301169050919050565b7f4e487b71000000000000000000000000000000000000000000000000000000005f52604160045260245ffd5b6109c08261097a565b810181811067ffffffffffffffff821117156109df576109de61098a565b5b80604052505050565b5f6109f16107d6565b90506109fd82826109b7565b919050565b5f67ffffffffffffffff821115610a1c57610a1b61098a565b5b602082029050602081019050919050565b5f80fd5b5f610a43610a3e84610a02565b6109e8565b90508083825260208201905060208402830185811115610a6657610a65610a2d565b5b835b81811015610a8f5780610a7b888261082d565b845260208401935050602081019050610a68565b5050509392505050565b5f82601f830112610aad57610aac610976565b5b8135610abd848260208601610a31565b91505092915050565b5f60208284031215610adb57610ada6107df565b5b5f82013567ffffffffffffffff811115610af857610af76107e3565b5b610b0484828501610a99565b91505092915050565b7f4e487b71000000000000000000000000000000000000000000000000000000005f52603260045260245ffd5b5f819050919050565b7f4e487b71000000000000000000000000000000000000000000000000000000005f52601160045260245ffd5b5f610b7a82610b3a565b9150610b8583610b3a565b9250828203905081811115610b9d57610b9c610b43565b5b92915050565b5f61ffff82169050919050565b5f610bba82610ba3565b9150610bc583610ba3565b9250828201905061ffff811115610bdf57610bde610b43565b5b92915050565b5f610bef82610ba3565b915061ffff8203610c0357610c02610b43565b5b600182019050919050565b7f4e487b71000000000000000000000000000000000000000000000000000000005f52603160045260245ffd5b5f82825260208201905092915050565b7f6f6e6c792061646d696e2063616e20696e766f6b6520746869732066756e63745f8201527f696f6e0000000000000000000000000000000000000000000000000000000000602082015250565b5f610ca5602383610c3b565b9150610cb082610c4b565b604082019050919050565b5f6020820190508181035f830152610cd281610c99565b9050919050565b7f55736572206578697374000000000000000000000000000000000000000000005f82015250565b5f610d0d600a83610c3b565b9150610d1882610cd9565b602082019050919050565b5f6020820190508181035f830152610d3a81610d01565b905091905056fea26469706673582212205579c04d5d0833b0ab573d577619963c2704999642edc9234ca742185181e4be64736f6c634300081a0033",
					"opcodes": "PUSH1 0xA0 PUSH1 0x40 MSTORE PUSH20 0x5B38DA6A701C568545DCFCB03FCB875F56BEDDC4 PUSH20 0xFFFFFFFFFFFFFFFFFFFFFFFFFFFFFFFFFFFFFFFF AND PUSH1 0x80 SWAP1 PUSH20 0xFFFFFFFFFFFFFFFFFFFFFFFFFFFFFFFFFFFFFFFF AND DUP2 MSTORE POP CALLVALUE DUP1 ISZERO PUSH1 0x55 JUMPI PUSH0 DUP1 REVERT JUMPDEST POP PUSH1 0x80 MLOAD PUSH2 0xD77 PUSH2 0x75 PUSH0 CODECOPY PUSH0 DUP2 DUP2 PUSH2 0x333 ADD MSTORE PUSH2 0x5DD ADD MSTORE PUSH2 0xD77 PUSH0 RETURN INVALID PUSH1 0x80 PUSH1 0x40 MSTORE CALLVALUE DUP1 ISZERO PUSH2 0xF JUMPI PUSH0 DUP1 REVERT JUMPDEST POP PUSH1 0x4 CALLDATASIZE LT PUSH2 0x60 JUMPI PUSH0 CALLDATALOAD PUSH1 0xE0 SHR DUP1 PUSH4 0x5E0CA3B9 EQ PUSH2 0x64 JUMPI DUP1 PUSH4 0x7A6D918E EQ PUSH2 0x80 JUMPI DUP1 PUSH4 0x7ECA453D EQ PUSH2 0x9C JUMPI DUP1 PUSH4 0xB70CBE35 EQ PUSH2 0xBA JUMPI DUP1 PUSH4 0xB7F7E6F0 EQ PUSH2 0xEA JUMPI DUP1 PUSH4 0xF33CF57B EQ PUSH2 0x106 JUMPI JUMPDEST PUSH0 DUP1 REVERT JUMPDEST PUSH2 0x7E PUSH1 0x4 DUP1 CALLDATASIZE SUB DUP2 ADD SWAP1 PUSH2 0x79 SWAP2 SWAP1 PUSH2 0x841 JUMP JUMPDEST PUSH2 0x110 JUMP JUMPDEST STOP JUMPDEST PUSH2 0x9A PUSH1 0x4 DUP1 CALLDATASIZE SUB DUP2 ADD SWAP1 PUSH2 0x95 SWAP2 SWAP1 PUSH2 0x841 JUMP JUMPDEST PUSH2 0x31A JUMP JUMPDEST STOP JUMPDEST PUSH2 0xA4 PUSH2 0x4E8 JUMP JUMPDEST PUSH1 0x40 MLOAD PUSH2 0xB1 SWAP2 SWAP1 PUSH2 0x923 JUMP JUMPDEST PUSH1 0x40 MLOAD DUP1 SWAP2 SUB SWAP1 RETURN JUMPDEST PUSH2 0xD4 PUSH1 0x4 DUP1 CALLDATASIZE SUB DUP2 ADD SWAP1 PUSH2 0xCF SWAP2 SWAP1 PUSH2 0x841 JUMP JUMPDEST PUSH2 0x573 JUMP JUMPDEST PUSH1 0x40 MLOAD PUSH2 0xE1 SWAP2 SWAP1 PUSH2 0x95D JUMP JUMPDEST PUSH1 0x40 MLOAD DUP1 SWAP2 SUB SWAP1 RETURN JUMPDEST PUSH2 0x104 PUSH1 0x4 DUP1 CALLDATASIZE SUB DUP2 ADD SWAP1 PUSH2 0xFF SWAP2 SWAP1 PUSH2 0xAC6 JUMP JUMPDEST PUSH2 0x5C4 JUMP JUMPDEST STOP JUMPDEST PUSH2 0x10E PUSH2 0x7D4 JUMP JUMPDEST STOP JUMPDEST PUSH0 PUSH1 0x1 DUP1 SLOAD SWAP1 POP SWAP1 POP PUSH0 JUMPDEST DUP2 DUP2 PUSH2 0xFFFF AND LT ISZERO PUSH2 0x2CA JUMPI DUP3 PUSH20 0xFFFFFFFFFFFFFFFFFFFFFFFFFFFFFFFFFFFFFFFF AND PUSH1 0x1 DUP3 PUSH2 0xFFFF AND DUP2 SLOAD DUP2 LT PUSH2 0x156 JUMPI PUSH2 0x155 PUSH2 0xB0D JUMP JUMPDEST JUMPDEST SWAP1 PUSH0 MSTORE PUSH1 0x20 PUSH0 KECCAK256 ADD PUSH0 SWAP1 SLOAD SWAP1 PUSH2 0x100 EXP SWAP1 DIV PUSH20 0xFFFFFFFFFFFFFFFFFFFFFFFFFFFFFFFFFFFFFFFF AND PUSH20 0xFFFFFFFFFFFFFFFFFFFFFFFFFFFFFFFFFFFFFFFF AND SUB PUSH2 0x2B7 JUMPI PUSH0 DUP2 SWAP1 POP JUMPDEST PUSH1 0x1 DUP4 PUSH2 0x1AB SWAP2 SWAP1 PUSH2 0xB70 JUMP JUMPDEST DUP2 PUSH2 0xFFFF AND LT ISZERO PUSH2 0x271 JUMPI PUSH1 0x1 DUP1 DUP3 PUSH2 0x1C4 SWAP2 SWAP1 PUSH2 0xBB0 JUMP JUMPDEST PUSH2 0xFFFF AND DUP2 SLOAD DUP2 LT PUSH2 0x1D9 JUMPI PUSH2 0x1D8 PUSH2 0xB0D JUMP JUMPDEST JUMPDEST SWAP1 PUSH0 MSTORE PUSH1 0x20 PUSH0 KECCAK256 ADD PUSH0 SWAP1 SLOAD SWAP1 PUSH2 0x100 EXP SWAP1 DIV PUSH20 0xFFFFFFFFFFFFFFFFFFFFFFFFFFFFFFFFFFFFFFFF AND PUSH1 0x1 DUP3 PUSH2 0xFFFF AND DUP2 SLOAD DUP2 LT PUSH2 0x219 JUMPI PUSH2 0x218 PUSH2 0xB0D JUMP JUMPDEST JUMPDEST SWAP1 PUSH0 MSTORE PUSH1 0x20 PUSH0 KECCAK256 ADD PUSH0 PUSH2 0x100 EXP DUP2 SLOAD DUP2 PUSH20 0xFFFFFFFFFFFFFFFFFFFFFFFFFFFFFFFFFFFFFFFF MUL NOT AND SWAP1 DUP4 PUSH20 0xFFFFFFFFFFFFFFFFFFFFFFFFFFFFFFFFFFFFFFFF AND MUL OR SWAP1 SSTORE POP DUP1 DUP1 PUSH2 0x269 SWAP1 PUSH2 0xBE5 JUMP JUMPDEST SWAP2 POP POP PUSH2 0x19E JUMP JUMPDEST POP PUSH1 0x1 DUP1 SLOAD DUP1 PUSH2 0x284 JUMPI PUSH2 0x283 PUSH2 0xC0E JUMP JUMPDEST JUMPDEST PUSH1 0x1 SWAP1 SUB DUP2 DUP2 SWAP1 PUSH0 MSTORE PUSH1 0x20 PUSH0 KECCAK256 ADD PUSH0 PUSH2 0x100 EXP DUP2 SLOAD SWAP1 PUSH20 0xFFFFFFFFFFFFFFFFFFFFFFFFFFFFFFFFFFFFFFFF MUL NOT AND SWAP1 SSTORE SWAP1 SSTORE JUMPDEST DUP1 DUP1 PUSH2 0x2C2 SWAP1 PUSH2 0xBE5 JUMP JUMPDEST SWAP2 POP POP PUSH2 0x11B JUMP JUMPDEST POP PUSH0 DUP1 DUP4 PUSH20 0xFFFFFFFFFFFFFFFFFFFFFFFFFFFFFFFFFFFFFFFF AND PUSH20 0xFFFFFFFFFFFFFFFFFFFFFFFFFFFFFFFFFFFFFFFF AND DUP2 MSTORE PUSH1 0x20 ADD SWAP1 DUP2 MSTORE PUSH1 0x20 ADD PUSH0 KECCAK256 PUSH0 PUSH2 0x100 EXP DUP2 SLOAD SWAP1 PUSH1 0xFF MUL NOT AND SWAP1 SSTORE POP POP JUMP JUMPDEST CALLER PUSH20 0xFFFFFFFFFFFFFFFFFFFFFFFFFFFFFFFFFFFFFFFF AND PUSH32 0x0 PUSH20 0xFFFFFFFFFFFFFFFFFFFFFFFFFFFFFFFFFFFFFFFF AND EQ PUSH2 0x3A8 JUMPI PUSH1 0x40 MLOAD PUSH32 0x8C379A000000000000000000000000000000000000000000000000000000000 DUP2 MSTORE PUSH1 0x4 ADD PUSH2 0x39F SWAP1 PUSH2 0xCBB JUMP JUMPDEST PUSH1 0x40 MLOAD DUP1 SWAP2 SUB SWAP1 REVERT JUMPDEST PUSH0 DUP1 DUP3 PUSH20 0xFFFFFFFFFFFFFFFFFFFFFFFFFFFFFFFFFFFFFFFF AND PUSH20 0xFFFFFFFFFFFFFFFFFFFFFFFFFFFFFFFFFFFFFFFF AND DUP2 MSTORE PUSH1 0x20 ADD SWAP1 DUP2 MSTORE PUSH1 0x20 ADD PUSH0 KECCAK256 PUSH0 SWAP1 SLOAD SWAP1 PUSH2 0x100 EXP SWAP1 DIV PUSH1 0xFF AND ISZERO PUSH2 0x431 JUMPI PUSH1 0x40 MLOAD PUSH32 0xE64C65800000000000000000000000000000000000000000000000000000000 DUP2 MSTORE PUSH1 0x4 ADD PUSH2 0x428 SWAP1 PUSH2 0xD23 JUMP JUMPDEST PUSH1 0x40 MLOAD DUP1 SWAP2 SUB SWAP1 REVERT JUMPDEST PUSH1 0x1 PUSH0 DUP1 DUP4 PUSH20 0xFFFFFFFFFFFFFFFFFFFFFFFFFFFFFFFFFFFFFFFF AND PUSH20 0xFFFFFFFFFFFFFFFFFFFFFFFFFFFFFFFFFFFFFFFF AND DUP2 MSTORE PUSH1 0x20 ADD SWAP1 DUP2 MSTORE PUSH1 0x20 ADD PUSH0 KECCAK256 PUSH0 PUSH2 0x100 EXP DUP2 SLOAD DUP2 PUSH1 0xFF MUL NOT AND SWAP1 DUP4 ISZERO ISZERO MUL OR SWAP1 SSTORE POP PUSH1 0x1 DUP2 SWAP1 DUP1 PUSH1 0x1 DUP2 SLOAD ADD DUP1 DUP3 SSTORE DUP1 SWAP2 POP POP PUSH1 0x1 SWAP1 SUB SWAP1 PUSH0 MSTORE PUSH1 0x20 PUSH0 KECCAK256 ADD PUSH0 SWAP1 SWAP2 SWAP1 SWAP2 SWAP1 SWAP2 PUSH2 0x100 EXP DUP2 SLOAD DUP2 PUSH20 0xFFFFFFFFFFFFFFFFFFFFFFFFFFFFFFFFFFFFFFFF MUL NOT AND SWAP1 DUP4 PUSH20 0xFFFFFFFFFFFFFFFFFFFFFFFFFFFFFFFFFFFFFFFF AND MUL OR SWAP1 SSTORE POP POP JUMP JUMPDEST PUSH1 0x60 PUSH1 0x1 DUP1 SLOAD DUP1 PUSH1 0x20 MUL PUSH1 0x20 ADD PUSH1 0x40 MLOAD SWAP1 DUP2 ADD PUSH1 0x40 MSTORE DUP1 SWAP3 SWAP2 SWAP1 DUP2 DUP2 MSTORE PUSH1 0x20 ADD DUP3 DUP1 SLOAD DUP1 ISZERO PUSH2 0x569 JUMPI PUSH1 0x20 MUL DUP3 ADD SWAP2 SWAP1 PUSH0 MSTORE PUSH1 0x20 PUSH0 KECCAK256 SWAP1 JUMPDEST DUP2 PUSH0 SWAP1 SLOAD SWAP1 PUSH2 0x100 EXP SWAP1 DIV PUSH20 0xFFFFFFFFFFFFFFFFFFFFFFFFFFFFFFFFFFFFFFFF AND PUSH20 0xFFFFFFFFFFFFFFFFFFFFFFFFFFFFFFFFFFFFFFFF AND DUP2 MSTORE PUSH1 0x20 ADD SWAP1 PUSH1 0x1 ADD SWAP1 DUP1 DUP4 GT PUSH2 0x520 JUMPI JUMPDEST POP POP POP POP POP SWAP1 POP SWAP1 JUMP JUMPDEST PUSH0 DUP1 PUSH0 DUP4 PUSH20 0xFFFFFFFFFFFFFFFFFFFFFFFFFFFFFFFFFFFFFFFF AND PUSH20 0xFFFFFFFFFFFFFFFFFFFFFFFFFFFFFFFFFFFFFFFF AND DUP2 MSTORE PUSH1 0x20 ADD SWAP1 DUP2 MSTORE PUSH1 0x20 ADD PUSH0 KECCAK256 PUSH0 SWAP1 SLOAD SWAP1 PUSH2 0x100 EXP SWAP1 DIV PUSH1 0xFF AND SWAP1 POP SWAP2 SWAP1 POP JUMP JUMPDEST CALLER PUSH20 0xFFFFFFFFFFFFFFFFFFFFFFFFFFFFFFFFFFFFFFFF AND PUSH32 0x0 PUSH20 0xFFFFFFFFFFFFFFFFFFFFFFFFFFFFFFFFFFFFFFFF AND EQ PUSH2 0x652 JUMPI PUSH1 0x40 MLOAD PUSH32 0x8C379A000000000000000000000000000000000000000000000000000000000 DUP2 MSTORE PUSH1 0x4 ADD PUSH2 0x649 SWAP1 PUSH2 0xCBB JUMP JUMPDEST PUSH1 0x40 MLOAD DUP1 SWAP2 SUB SWAP1 REVERT JUMPDEST PUSH0 JUMPDEST DUP2 MLOAD DUP2 PUSH2 0xFFFF AND LT ISZERO PUSH2 0x7D0 JUMPI PUSH0 DUP1 DUP4 DUP4 PUSH2 0xFFFF AND DUP2 MLOAD DUP2 LT PUSH2 0x67A JUMPI PUSH2 0x679 PUSH2 0xB0D JUMP JUMPDEST JUMPDEST PUSH1 0x20 MUL PUSH1 0x20 ADD ADD MLOAD PUSH20 0xFFFFFFFFFFFFFFFFFFFFFFFFFFFFFFFFFFFFFFFF AND PUSH20 0xFFFFFFFFFFFFFFFFFFFFFFFFFFFFFFFFFFFFFFFF AND DUP2 MSTORE PUSH1 0x20 ADD SWAP1 DUP2 MSTORE PUSH1 0x20 ADD PUSH0 KECCAK256 PUSH0 SWAP1 SLOAD SWAP1 PUSH2 0x100 EXP SWAP1 DIV PUSH1 0xFF AND PUSH2 0x7BD JUMPI PUSH1 0x1 PUSH0 DUP1 DUP5 DUP5 PUSH2 0xFFFF AND DUP2 MLOAD DUP2 LT PUSH2 0x6E7 JUMPI PUSH2 0x6E6 PUSH2 0xB0D JUMP JUMPDEST JUMPDEST PUSH1 0x20 MUL PUSH1 0x20 ADD ADD MLOAD PUSH20 0xFFFFFFFFFFFFFFFFFFFFFFFFFFFFFFFFFFFFFFFF AND PUSH20 0xFFFFFFFFFFFFFFFFFFFFFFFFFFFFFFFFFFFFFFFF AND DUP2 MSTORE PUSH1 0x20 ADD SWAP1 DUP2 MSTORE PUSH1 0x20 ADD PUSH0 KECCAK256 PUSH0 PUSH2 0x100 EXP DUP2 SLOAD DUP2 PUSH1 0xFF MUL NOT AND SWAP1 DUP4 ISZERO ISZERO MUL OR SWAP1 SSTORE POP PUSH1 0x1 DUP3 DUP3 PUSH2 0xFFFF AND DUP2 MLOAD DUP2 LT PUSH2 0x757 JUMPI PUSH2 0x756 PUSH2 0xB0D JUMP JUMPDEST JUMPDEST PUSH1 0x20 MUL PUSH1 0x20 ADD ADD MLOAD SWAP1 DUP1 PUSH1 0x1 DUP2 SLOAD ADD DUP1 DUP3 SSTORE DUP1 SWAP2 POP POP PUSH1 0x1 SWAP1 SUB SWAP1 PUSH0 MSTORE PUSH1 0x20 PUSH0 KECCAK256 ADD PUSH0 SWAP1 SWAP2 SWAP1 SWAP2 SWAP1 SWAP2 PUSH2 0x100 EXP DUP2 SLOAD DUP2 PUSH20 0xFFFFFFFFFFFFFFFFFFFFFFFFFFFFFFFFFFFFFFFF MUL NOT AND SWAP1 DUP4 PUSH20 0xFFFFFFFFFFFFFFFFFFFFFFFFFFFFFFFFFFFFFFFF AND MUL OR SWAP1 SSTORE POP JUMPDEST DUP1 DUP1 PUSH2 0x7C8 SWAP1 PUSH2 0xBE5 JUMP JUMPDEST SWAP2 POP POP PUSH2 0x654 JUMP JUMPDEST POP POP JUMP JUMPDEST JUMP JUMPDEST PUSH0 PUSH1 0x40 MLOAD SWAP1 POP SWAP1 JUMP JUMPDEST PUSH0 DUP1 REVERT JUMPDEST PUSH0 DUP1 REVERT JUMPDEST PUSH0 PUSH20 0xFFFFFFFFFFFFFFFFFFFFFFFFFFFFFFFFFFFFFFFF DUP3 AND SWAP1 POP SWAP2 SWAP1 POP JUMP JUMPDEST PUSH0 PUSH2 0x810 DUP3 PUSH2 0x7E7 JUMP JUMPDEST SWAP1 POP SWAP2 SWAP1 POP JUMP JUMPDEST PUSH2 0x820 DUP2 PUSH2 0x806 JUMP JUMPDEST DUP2 EQ PUSH2 0x82A JUMPI PUSH0 DUP1 REVERT JUMPDEST POP JUMP JUMPDEST PUSH0 DUP2 CALLDATALOAD SWAP1 POP PUSH2 0x83B DUP2 PUSH2 0x817 JUMP JUMPDEST SWAP3 SWAP2 POP POP JUMP JUMPDEST PUSH0 PUSH1 0x20 DUP3 DUP5 SUB SLT ISZERO PUSH2 0x856 JUMPI PUSH2 0x855 PUSH2 0x7DF JUMP JUMPDEST JUMPDEST PUSH0 PUSH2 0x863 DUP5 DUP3 DUP6 ADD PUSH2 0x82D JUMP JUMPDEST SWAP2 POP POP SWAP3 SWAP2 POP POP JUMP JUMPDEST PUSH0 DUP2 MLOAD SWAP1 POP SWAP2 SWAP1 POP JUMP JUMPDEST PUSH0 DUP3 DUP3 MSTORE PUSH1 0x20 DUP3 ADD SWAP1 POP SWAP3 SWAP2 POP POP JUMP JUMPDEST PUSH0 DUP2 SWAP1 POP PUSH1 0x20 DUP3 ADD SWAP1 POP SWAP2 SWAP1 POP JUMP JUMPDEST PUSH2 0x89E DUP2 PUSH2 0x806 JUMP JUMPDEST DUP3 MSTORE POP POP JUMP JUMPDEST PUSH0 PUSH2 0x8AF DUP4 DUP4 PUSH2 0x895 JUMP JUMPDEST PUSH1 0x20 DUP4 ADD SWAP1 POP SWAP3 SWAP2 POP POP JUMP JUMPDEST PUSH0 PUSH1 0x20 DUP3 ADD SWAP1 POP SWAP2 SWAP1 POP JUMP JUMPDEST PUSH0 PUSH2 0x8D1 DUP3 PUSH2 0x86C JUMP JUMPDEST PUSH2 0x8DB DUP2 DUP6 PUSH2 0x876 JUMP JUMPDEST SWAP4 POP PUSH2 0x8E6 DUP4 PUSH2 0x886 JUMP JUMPDEST DUP1 PUSH0 JUMPDEST DUP4 DUP2 LT ISZERO PUSH2 0x916 JUMPI DUP2 MLOAD PUSH2 0x8FD DUP9 DUP3 PUSH2 0x8A4 JUMP JUMPDEST SWAP8 POP PUSH2 0x908 DUP4 PUSH2 0x8BB JUMP JUMPDEST SWAP3 POP POP PUSH1 0x1 DUP2 ADD SWAP1 POP PUSH2 0x8E9 JUMP JUMPDEST POP DUP6 SWAP4 POP POP POP POP SWAP3 SWAP2 POP POP JUMP JUMPDEST PUSH0 PUSH1 0x20 DUP3 ADD SWAP1 POP DUP2 DUP2 SUB PUSH0 DUP4 ADD MSTORE PUSH2 0x93B DUP2 DUP5 PUSH2 0x8C7 JUMP JUMPDEST SWAP1 POP SWAP3 SWAP2 POP POP JUMP JUMPDEST PUSH0 DUP2 ISZERO ISZERO SWAP1 POP SWAP2 SWAP1 POP JUMP JUMPDEST PUSH2 0x957 DUP2 PUSH2 0x943 JUMP JUMPDEST DUP3 MSTORE POP POP JUMP JUMPDEST PUSH0 PUSH1 0x20 DUP3 ADD SWAP1 POP PUSH2 0x970 PUSH0 DUP4 ADD DUP5 PUSH2 0x94E JUMP JUMPDEST SWAP3 SWAP2 POP POP JUMP JUMPDEST PUSH0 DUP1 REVERT JUMPDEST PUSH0 PUSH1 0x1F NOT PUSH1 0x1F DUP4 ADD AND SWAP1 POP SWAP2 SWAP1 POP JUMP JUMPDEST PUSH32 0x4E487B7100000000000000000000000000000000000000000000000000000000 PUSH0 MSTORE PUSH1 0x41 PUSH1 0x4 MSTORE PUSH1 0x24 PUSH0 REVERT JUMPDEST PUSH2 0x9C0 DUP3 PUSH2 0x97A JUMP JUMPDEST DUP2 ADD DUP2 DUP2 LT PUSH8 0xFFFFFFFFFFFFFFFF DUP3 GT OR ISZERO PUSH2 0x9DF JUMPI PUSH2 0x9DE PUSH2 0x98A JUMP JUMPDEST JUMPDEST DUP1 PUSH1 0x40 MSTORE POP POP POP JUMP JUMPDEST PUSH0 PUSH2 0x9F1 PUSH2 0x7D6 JUMP JUMPDEST SWAP1 POP PUSH2 0x9FD DUP3 DUP3 PUSH2 0x9B7 JUMP JUMPDEST SWAP2 SWAP1 POP JUMP JUMPDEST PUSH0 PUSH8 0xFFFFFFFFFFFFFFFF DUP3 GT ISZERO PUSH2 0xA1C JUMPI PUSH2 0xA1B PUSH2 0x98A JUMP JUMPDEST JUMPDEST PUSH1 0x20 DUP3 MUL SWAP1 POP PUSH1 0x20 DUP2 ADD SWAP1 POP SWAP2 SWAP1 POP JUMP JUMPDEST PUSH0 DUP1 REVERT JUMPDEST PUSH0 PUSH2 0xA43 PUSH2 0xA3E DUP5 PUSH2 0xA02 JUMP JUMPDEST PUSH2 0x9E8 JUMP JUMPDEST SWAP1 POP DUP1 DUP4 DUP3 MSTORE PUSH1 0x20 DUP3 ADD SWAP1 POP PUSH1 0x20 DUP5 MUL DUP4 ADD DUP6 DUP2 GT ISZERO PUSH2 0xA66 JUMPI PUSH2 0xA65 PUSH2 0xA2D JUMP JUMPDEST JUMPDEST DUP4 JUMPDEST DUP2 DUP2 LT ISZERO PUSH2 0xA8F JUMPI DUP1 PUSH2 0xA7B DUP9 DUP3 PUSH2 0x82D JUMP JUMPDEST DUP5 MSTORE PUSH1 0x20 DUP5 ADD SWAP4 POP POP PUSH1 0x20 DUP2 ADD SWAP1 POP PUSH2 0xA68 JUMP JUMPDEST POP POP POP SWAP4 SWAP3 POP POP POP JUMP JUMPDEST PUSH0 DUP3 PUSH1 0x1F DUP4 ADD SLT PUSH2 0xAAD JUMPI PUSH2 0xAAC PUSH2 0x976 JUMP JUMPDEST JUMPDEST DUP2 CALLDATALOAD PUSH2 0xABD DUP5 DUP3 PUSH1 0x20 DUP7 ADD PUSH2 0xA31 JUMP JUMPDEST SWAP2 POP POP SWAP3 SWAP2 POP POP JUMP JUMPDEST PUSH0 PUSH1 0x20 DUP3 DUP5 SUB SLT ISZERO PUSH2 0xADB JUMPI PUSH2 0xADA PUSH2 0x7DF JUMP JUMPDEST JUMPDEST PUSH0 DUP3 ADD CALLDATALOAD PUSH8 0xFFFFFFFFFFFFFFFF DUP2 GT ISZERO PUSH2 0xAF8 JUMPI PUSH2 0xAF7 PUSH2 0x7E3 JUMP JUMPDEST JUMPDEST PUSH2 0xB04 DUP5 DUP3 DUP6 ADD PUSH2 0xA99 JUMP JUMPDEST SWAP2 POP POP SWAP3 SWAP2 POP POP JUMP JUMPDEST PUSH32 0x4E487B7100000000000000000000000000000000000000000000000000000000 PUSH0 MSTORE PUSH1 0x32 PUSH1 0x4 MSTORE PUSH1 0x24 PUSH0 REVERT JUMPDEST PUSH0 DUP2 SWAP1 POP SWAP2 SWAP1 POP JUMP JUMPDEST PUSH32 0x4E487B7100000000000000000000000000000000000000000000000000000000 PUSH0 MSTORE PUSH1 0x11 PUSH1 0x4 MSTORE PUSH1 0x24 PUSH0 REVERT JUMPDEST PUSH0 PUSH2 0xB7A DUP3 PUSH2 0xB3A JUMP JUMPDEST SWAP2 POP PUSH2 0xB85 DUP4 PUSH2 0xB3A JUMP JUMPDEST SWAP3 POP DUP3 DUP3 SUB SWAP1 POP DUP2 DUP2 GT ISZERO PUSH2 0xB9D JUMPI PUSH2 0xB9C PUSH2 0xB43 JUMP JUMPDEST JUMPDEST SWAP3 SWAP2 POP POP JUMP JUMPDEST PUSH0 PUSH2 0xFFFF DUP3 AND SWAP1 POP SWAP2 SWAP1 POP JUMP JUMPDEST PUSH0 PUSH2 0xBBA DUP3 PUSH2 0xBA3 JUMP JUMPDEST SWAP2 POP PUSH2 0xBC5 DUP4 PUSH2 0xBA3 JUMP JUMPDEST SWAP3 POP DUP3 DUP3 ADD SWAP1 POP PUSH2 0xFFFF DUP2 GT ISZERO PUSH2 0xBDF JUMPI PUSH2 0xBDE PUSH2 0xB43 JUMP JUMPDEST JUMPDEST SWAP3 SWAP2 POP POP JUMP JUMPDEST PUSH0 PUSH2 0xBEF DUP3 PUSH2 0xBA3 JUMP JUMPDEST SWAP2 POP PUSH2 0xFFFF DUP3 SUB PUSH2 0xC03 JUMPI PUSH2 0xC02 PUSH2 0xB43 JUMP JUMPDEST JUMPDEST PUSH1 0x1 DUP3 ADD SWAP1 POP SWAP2 SWAP1 POP JUMP JUMPDEST PUSH32 0x4E487B7100000000000000000000000000000000000000000000000000000000 PUSH0 MSTORE PUSH1 0x31 PUSH1 0x4 MSTORE PUSH1 0x24 PUSH0 REVERT JUMPDEST PUSH0 DUP3 DUP3 MSTORE PUSH1 0x20 DUP3 ADD SWAP1 POP SWAP3 SWAP2 POP POP JUMP JUMPDEST PUSH32 0x6F6E6C792061646D696E2063616E20696E766F6B6520746869732066756E6374 PUSH0 DUP3 ADD MSTORE PUSH32 0x696F6E0000000000000000000000000000000000000000000000000000000000 PUSH1 0x20 DUP3 ADD MSTORE POP JUMP JUMPDEST PUSH0 PUSH2 0xCA5 PUSH1 0x23 DUP4 PUSH2 0xC3B JUMP JUMPDEST SWAP2 POP PUSH2 0xCB0 DUP3 PUSH2 0xC4B JUMP JUMPDEST PUSH1 0x40 DUP3 ADD SWAP1 POP SWAP2 SWAP1 POP JUMP JUMPDEST PUSH0 PUSH1 0x20 DUP3 ADD SWAP1 POP DUP2 DUP2 SUB PUSH0 DUP4 ADD MSTORE PUSH2 0xCD2 DUP2 PUSH2 0xC99 JUMP JUMPDEST SWAP1 POP SWAP2 SWAP1 POP JUMP JUMPDEST PUSH32 0x5573657220657869737400000000000000000000000000000000000000000000 PUSH0 DUP3 ADD MSTORE POP JUMP JUMPDEST PUSH0 PUSH2 0xD0D PUSH1 0xA DUP4 PUSH2 0xC3B JUMP JUMPDEST SWAP2 POP PUSH2 0xD18 DUP3 PUSH2 0xCD9 JUMP JUMPDEST PUSH1 0x20 DUP3 ADD SWAP1 POP SWAP2 SWAP1 POP JUMP JUMPDEST PUSH0 PUSH1 0x20 DUP3 ADD SWAP1 POP DUP2 DUP2 SUB PUSH0 DUP4 ADD MSTORE PUSH2 0xD3A DUP2 PUSH2 0xD01 JUMP JUMPDEST SWAP1 POP SWAP2 SWAP1 POP JUMP INVALID LOG2 PUSH5 0x6970667358 0x22 SLT KECCAK256 SSTORE PUSH26 0xC04D5D0833B0AB573D577619963C2704999642EDC9234CA74218 MLOAD DUP2 0xE4 0xBE PUSH5 0x736F6C6343 STOP ADDMOD BYTE STOP CALLER "
				},
				"gasEstimates": {
					"creation": {
						"codeDepositCost": "689400",
						"executionCost": "infinite",
						"totalCost": "infinite"
					},
					"external": {
						"AddEligibleUser(address)": "infinite",
						"AddMultipleEliglibleUser(address[])": "infinite",
						"RemoveEligibleUser(address)": "infinite",
						"lis()": "infinite",
						"returndf(address)": "2914",
						"testClaim()": "231"
					}
				},
				"methodIdentifiers": {
					"AddEligibleUser(address)": "7a6d918e",
					"AddMultipleEliglibleUser(address[])": "b7f7e6f0",
					"RemoveEligibleUser(address)": "5e0ca3b9",
					"lis()": "7eca453d",
					"returndf(address)": "b70cbe35",
					"testClaim()": "f33cf57b"
				}
			},
			"storageLayout": {
				"storage": [
					{
						"astId": 8,
						"contract": "contracts/duationclaim.sol:DurationTest",
						"label": "EligibleUser",
						"offset": 0,
						"slot": "0",
						"type": "t_mapping(t_address,t_bool)"
					},
					{
						"astId": 11,
						"contract": "contracts/duationclaim.sol:DurationTest",
						"label": "EligibleUserArr",
						"offset": 0,
						"slot": "1",
						"type": "t_array(t_address)dyn_storage"
					}
				],
				"types": {
					"t_address": {
						"encoding": "inplace",
						"label": "address",
						"numberOfBytes": "20"
					},
					"t_array(t_address)dyn_storage": {
						"base": "t_address",
						"encoding": "dynamic_array",
						"label": "address[]",
						"numberOfBytes": "32"
					},
					"t_bool": {
						"encoding": "inplace",
						"label": "bool",
						"numberOfBytes": "1"
					},
					"t_mapping(t_address,t_bool)": {
						"encoding": "mapping",
						"key": "t_address",
						"label": "mapping(address => bool)",
						"numberOfBytes": "32",
						"value": "t_bool"
					}
				}
			},
			"userdoc": {
				"kind": "user",
				"methods": {},
				"version": 1
			}
		}
	}
}