{
	"contracts/durationv2.sol": {
		"DurationTest": {
			"abi": [
				{
					"inputs": [],
					"stateMutability": "nonpayable",
					"type": "constructor"
				},
				{
					"inputs": [
						{
							"internalType": "string",
							"name": "",
							"type": "string"
						}
					],
					"name": "DuplicateUserAdded",
					"type": "error"
				},
				{
					"inputs": [
						{
							"internalType": "string",
							"name": "",
							"type": "string"
						}
					],
					"name": "IneligibleUsers",
					"type": "error"
				},
				{
					"inputs": [
						{
							"internalType": "address",
							"name": "_user",
							"type": "address"
						}
					],
					"name": "AddEligibleUser",
					"outputs": [],
					"stateMutability": "nonpayable",
					"type": "function"
				},
				{
					"inputs": [
						{
							"internalType": "address[]",
							"name": "_users",
							"type": "address[]"
						}
					],
					"name": "AddMultipleEliglibleUser",
					"outputs": [],
					"stateMutability": "nonpayable",
					"type": "function"
				},
				{
					"inputs": [
						{
							"internalType": "address",
							"name": "_user",
							"type": "address"
						}
					],
					"name": "RemoveEligibleUser",
					"outputs": [],
					"stateMutability": "nonpayable",
					"type": "function"
				},
				{
					"inputs": [],
					"name": "lis",
					"outputs": [
						{
							"internalType": "address[]",
							"name": "",
							"type": "address[]"
						}
					],
					"stateMutability": "view",
					"type": "function"
				},
				{
					"inputs": [
						{
							"internalType": "address",
							"name": "_user",
							"type": "address"
						}
					],
					"name": "returndf",
					"outputs": [
						{
							"internalType": "uint256",
							"name": "",
							"type": "uint256"
						}
					],
					"stateMutability": "view",
					"type": "function"
				},
				{
					"inputs": [],
					"name": "test5minsClaim",
					"outputs": [
						{
							"internalType": "uint256",
							"name": "",
							"type": "uint256"
						}
					],
					"stateMutability": "nonpayable",
					"type": "function"
				},
				{
					"inputs": [],
					"name": "testClaim",
					"outputs": [
						{
							"internalType": "uint256",
							"name": "",
							"type": "uint256"
						}
					],
					"stateMutability": "nonpayable",
					"type": "function"
				}
			],
			"devdoc": {
				"kind": "dev",
				"methods": {},
				"version": 1
			},
			"evm": {
				"assembly": "    /* \"contracts/durationv2.sol\":236:3643  contract DurationTest {... */\n  mstore(0x40, 0xc0)\n    /* \"contracts/durationv2.sol\":370:372  90 */\n  0x5a\n    /* \"contracts/durationv2.sol\":346:372  uint private magicNum = 90 */\n  0x00\n  sstore\n    /* \"contracts/durationv2.sol\":379:494  constructor() {... */\n  callvalue\n  dup1\n  iszero\n  tag_1\n  jumpi\n  0x00\n  dup1\n  revert\ntag_1:\n  pop\n    /* \"contracts/durationv2.sol\":411:453  0x5B38Da6a701c568545dCfcB03FcB875f56beddC4 */\n  0x5b38da6a701c568545dcfcb03fcb875f56beddc4\n    /* \"contracts/durationv2.sol\":403:453  admin = 0x5B38Da6a701c568545dCfcB03FcB875f56beddC4 */\n  0xffffffffffffffffffffffffffffffffffffffff\n  and\n  0x80\n  dup2\n  0xffffffffffffffffffffffffffffffffffffffff\n  and\n  dup2\n  mstore\n  pop\n  pop\n    /* \"contracts/durationv2.sol\":479:487  10 weeks */\n  0x5c4900\n    /* \"contracts/durationv2.sol\":463:487  DurationWeeks = 10 weeks */\n  0xa0\n  dup2\n  dup2\n  mstore\n  pop\n  pop\n    /* \"contracts/durationv2.sol\":236:3643  contract DurationTest {... */\n  mload(0x80)\n  mload(0xa0)\n  codecopy(0x00, dataOffset(sub_0), dataSize(sub_0))\n  0x00\n  assignImmutable(\"0xd4d1a59767271eefdc7830a772b9732a11d503531d972ab8c981a6b1c0e666e5\")\n  0x00\n  assignImmutable(\"0x731dc163f73d31d8c68f9917ce4ff967753939f70432973c04fd2c2a48148607\")\n  return(0x00, dataSize(sub_0))\nstop\n\nsub_0: assembly {\n        /* \"contracts/durationv2.sol\":236:3643  contract DurationTest {... */\n      mstore(0x40, 0x80)\n      callvalue\n      dup1\n      iszero\n      tag_1\n      jumpi\n      0x00\n      dup1\n      revert\n    tag_1:\n      pop\n      jumpi(tag_2, lt(calldatasize, 0x04))\n      shr(0xe0, calldataload(0x00))\n      dup1\n      0xb70cbe35\n      gt\n      tag_10\n      jumpi\n      dup1\n      0xb70cbe35\n      eq\n      tag_6\n      jumpi\n      dup1\n      0xb7f7e6f0\n      eq\n      tag_7\n      jumpi\n      dup1\n      0xc8804c71\n      eq\n      tag_8\n      jumpi\n      dup1\n      0xf33cf57b\n      eq\n      tag_9\n      jumpi\n      jump(tag_2)\n    tag_10:\n      dup1\n      0x5e0ca3b9\n      eq\n      tag_3\n      jumpi\n      dup1\n      0x7a6d918e\n      eq\n      tag_4\n      jumpi\n      dup1\n      0x7eca453d\n      eq\n      tag_5\n      jumpi\n    tag_2:\n      0x00\n      dup1\n      revert\n        /* \"contracts/durationv2.sol\":1240:1726  function RemoveEligibleUser(address _user) external {... */\n    tag_3:\n      tag_11\n      0x04\n      dup1\n      calldatasize\n      sub\n      dup2\n      add\n      swap1\n      tag_12\n      swap2\n      swap1\n      tag_13\n      jump\t// in\n    tag_12:\n      tag_14\n      jump\t// in\n    tag_11:\n      stop\n        /* \"contracts/durationv2.sol\":652:890  function AddEligibleUser(address _user) external onlyAdmin {... */\n    tag_4:\n      tag_15\n      0x04\n      dup1\n      calldatasize\n      sub\n      dup2\n      add\n      swap1\n      tag_16\n      swap2\n      swap1\n      tag_13\n      jump\t// in\n    tag_16:\n      tag_17\n      jump\t// in\n    tag_15:\n      stop\n        /* \"contracts/durationv2.sol\":3310:3405  function lis() external view returns (address[] memory) {... */\n    tag_5:\n      tag_18\n      tag_19\n      jump\t// in\n    tag_18:\n      mload(0x40)\n      tag_20\n      swap2\n      swap1\n      tag_21\n      jump\t// in\n    tag_20:\n      mload(0x40)\n      dup1\n      swap2\n      sub\n      swap1\n      return\n        /* \"contracts/durationv2.sol\":3411:3519  function returndf(address _user) external view returns (uint256) {... */\n    tag_6:\n      tag_22\n      0x04\n      dup1\n      calldatasize\n      sub\n      dup2\n      add\n      swap1\n      tag_23\n      swap2\n      swap1\n      tag_13\n      jump\t// in\n    tag_23:\n      tag_24\n      jump\t// in\n    tag_22:\n      mload(0x40)\n      tag_25\n      swap2\n      swap1\n      tag_26\n      jump\t// in\n    tag_25:\n      mload(0x40)\n      dup1\n      swap2\n      sub\n      swap1\n      return\n        /* \"contracts/durationv2.sol\":896:1234  function AddMultipleEliglibleUser(address[] memory _users)... */\n    tag_7:\n      tag_27\n      0x04\n      dup1\n      calldatasize\n      sub\n      dup2\n      add\n      swap1\n      tag_28\n      swap2\n      swap1\n      tag_29\n      jump\t// in\n    tag_28:\n      tag_30\n      jump\t// in\n    tag_27:\n      stop\n        /* \"contracts/durationv2.sol\":1736:2133  function test5minsClaim() external returns (uint256) {... */\n    tag_8:\n      tag_31\n      tag_32\n      jump\t// in\n    tag_31:\n      mload(0x40)\n      tag_33\n      swap2\n      swap1\n      tag_26\n      jump\t// in\n    tag_33:\n      mload(0x40)\n      dup1\n      swap2\n      sub\n      swap1\n      return\n        /* \"contracts/durationv2.sol\":2139:3029  function testClaim() external returns (uint256) {... */\n    tag_9:\n      tag_34\n      tag_35\n      jump\t// in\n    tag_34:\n      mload(0x40)\n      tag_36\n      swap2\n      swap1\n      tag_26\n      jump\t// in\n    tag_36:\n      mload(0x40)\n      dup1\n      swap2\n      sub\n      swap1\n      return\n        /* \"contracts/durationv2.sol\":1240:1726  function RemoveEligibleUser(address _user) external {... */\n    tag_14:\n        /* \"contracts/durationv2.sol\":1302:1314  uint256 _len */\n      0x00\n        /* \"contracts/durationv2.sol\":1317:1332  EligibleUserArr */\n      0x02\n        /* \"contracts/durationv2.sol\":1317:1339  EligibleUserArr.length */\n      dup1\n      sload\n      swap1\n      pop\n        /* \"contracts/durationv2.sol\":1302:1339  uint256 _len = EligibleUserArr.length */\n      swap1\n      pop\n        /* \"contracts/durationv2.sol\":1355:1363  uint16 i */\n      0x00\n        /* \"contracts/durationv2.sol\":1350:1684  for (uint16 i; i < _len; i++) {... */\n    tag_38:\n        /* \"contracts/durationv2.sol\":1369:1373  _len */\n      dup2\n        /* \"contracts/durationv2.sol\":1365:1366  i */\n      dup2\n        /* \"contracts/durationv2.sol\":1365:1373  i < _len */\n      0xffff\n      and\n      lt\n        /* \"contracts/durationv2.sol\":1350:1684  for (uint16 i; i < _len; i++) {... */\n      iszero\n      tag_39\n      jumpi\n        /* \"contracts/durationv2.sol\":1440:1445  _user */\n      dup3\n        /* \"contracts/durationv2.sol\":1418:1445  EligibleUserArr[i] == _user */\n      0xffffffffffffffffffffffffffffffffffffffff\n      and\n        /* \"contracts/durationv2.sol\":1418:1433  EligibleUserArr */\n      0x02\n        /* \"contracts/durationv2.sol\":1434:1435  i */\n      dup3\n        /* \"contracts/durationv2.sol\":1418:1436  EligibleUserArr[i] */\n      0xffff\n      and\n      dup2\n      sload\n      dup2\n      lt\n      tag_41\n      jumpi\n      tag_42\n      tag_43\n      jump\t// in\n    tag_42:\n    tag_41:\n      swap1\n      0x00\n      mstore\n      keccak256(0x00, 0x20)\n      add\n      0x00\n      swap1\n      sload\n      swap1\n      0x0100\n      exp\n      swap1\n      div\n      0xffffffffffffffffffffffffffffffffffffffff\n      and\n        /* \"contracts/durationv2.sol\":1418:1445  EligibleUserArr[i] == _user */\n      0xffffffffffffffffffffffffffffffffffffffff\n      and\n      sub\n        /* \"contracts/durationv2.sol\":1414:1674  if (EligibleUserArr[i] == _user) {... */\n      tag_45\n      jumpi\n        /* \"contracts/durationv2.sol\":1504:1512  uint16 j */\n      0x00\n        /* \"contracts/durationv2.sol\":1515:1516  i */\n      dup2\n        /* \"contracts/durationv2.sol\":1504:1516  uint16 j = i */\n      swap1\n      pop\n        /* \"contracts/durationv2.sol\":1499:1621  for (uint16 j = i; j < _len - 1; j++) {... */\n    tag_46:\n        /* \"contracts/durationv2.sol\":1529:1530  1 */\n      0x01\n        /* \"contracts/durationv2.sol\":1522:1526  _len */\n      dup4\n        /* \"contracts/durationv2.sol\":1522:1530  _len - 1 */\n      tag_49\n      swap2\n      swap1\n      tag_50\n      jump\t// in\n    tag_49:\n        /* \"contracts/durationv2.sol\":1518:1519  j */\n      dup2\n        /* \"contracts/durationv2.sol\":1518:1530  j < _len - 1 */\n      0xffff\n      and\n      lt\n        /* \"contracts/durationv2.sol\":1499:1621  for (uint16 j = i; j < _len - 1; j++) {... */\n      iszero\n      tag_47\n      jumpi\n        /* \"contracts/durationv2.sol\":1580:1595  EligibleUserArr */\n      0x02\n        /* \"contracts/durationv2.sol\":1600:1601  1 */\n      0x01\n        /* \"contracts/durationv2.sol\":1596:1597  j */\n      dup3\n        /* \"contracts/durationv2.sol\":1596:1601  j + 1 */\n      tag_51\n      swap2\n      swap1\n      tag_52\n      jump\t// in\n    tag_51:\n        /* \"contracts/durationv2.sol\":1580:1602  EligibleUserArr[j + 1] */\n      0xffff\n      and\n      dup2\n      sload\n      dup2\n      lt\n      tag_53\n      jumpi\n      tag_54\n      tag_43\n      jump\t// in\n    tag_54:\n    tag_53:\n      swap1\n      0x00\n      mstore\n      keccak256(0x00, 0x20)\n      add\n      0x00\n      swap1\n      sload\n      swap1\n      0x0100\n      exp\n      swap1\n      div\n      0xffffffffffffffffffffffffffffffffffffffff\n      and\n        /* \"contracts/durationv2.sol\":1559:1574  EligibleUserArr */\n      0x02\n        /* \"contracts/durationv2.sol\":1575:1576  j */\n      dup3\n        /* \"contracts/durationv2.sol\":1559:1577  EligibleUserArr[j] */\n      0xffff\n      and\n      dup2\n      sload\n      dup2\n      lt\n      tag_56\n      jumpi\n      tag_57\n      tag_43\n      jump\t// in\n    tag_57:\n    tag_56:\n      swap1\n      0x00\n      mstore\n      keccak256(0x00, 0x20)\n      add\n      0x00\n        /* \"contracts/durationv2.sol\":1559:1602  EligibleUserArr[j] = EligibleUserArr[j + 1] */\n      0x0100\n      exp\n      dup2\n      sload\n      dup2\n      0xffffffffffffffffffffffffffffffffffffffff\n      mul\n      not\n      and\n      swap1\n      dup4\n      0xffffffffffffffffffffffffffffffffffffffff\n      and\n      mul\n      or\n      swap1\n      sstore\n      pop\n        /* \"contracts/durationv2.sol\":1532:1535  j++ */\n      dup1\n      dup1\n      tag_59\n      swap1\n      tag_60\n      jump\t// in\n    tag_59:\n      swap2\n      pop\n      pop\n        /* \"contracts/durationv2.sol\":1499:1621  for (uint16 j = i; j < _len - 1; j++) {... */\n      jump(tag_46)\n    tag_47:\n      pop\n        /* \"contracts/durationv2.sol\":1638:1653  EligibleUserArr */\n      0x02\n        /* \"contracts/durationv2.sol\":1638:1659  EligibleUserArr.pop() */\n      dup1\n      sload\n      dup1\n      tag_61\n      jumpi\n      tag_62\n      tag_63\n      jump\t// in\n    tag_62:\n    tag_61:\n      0x01\n      swap1\n      sub\n      dup2\n      dup2\n      swap1\n      0x00\n      mstore\n      keccak256(0x00, 0x20)\n      add\n      exp(0x0100, 0x00)\n      dup2\n      sload\n      swap1\n      0xffffffffffffffffffffffffffffffffffffffff\n      mul\n      not\n      and\n      swap1\n      sstore\n      swap1\n      sstore\n        /* \"contracts/durationv2.sol\":1414:1674  if (EligibleUserArr[i] == _user) {... */\n    tag_45:\n        /* \"contracts/durationv2.sol\":1375:1378  i++ */\n      dup1\n      dup1\n      tag_65\n      swap1\n      tag_60\n      jump\t// in\n    tag_65:\n      swap2\n      pop\n      pop\n        /* \"contracts/durationv2.sol\":1350:1684  for (uint16 i; i < _len; i++) {... */\n      jump(tag_38)\n    tag_39:\n      pop\n        /* \"contracts/durationv2.sol\":1700:1712  EligibleUser */\n      0x01\n        /* \"contracts/durationv2.sol\":1700:1719  EligibleUser[_user] */\n      0x00\n        /* \"contracts/durationv2.sol\":1713:1718  _user */\n      dup4\n        /* \"contracts/durationv2.sol\":1700:1719  EligibleUser[_user] */\n      0xffffffffffffffffffffffffffffffffffffffff\n      and\n      0xffffffffffffffffffffffffffffffffffffffff\n      and\n      dup2\n      mstore\n      0x20\n      add\n      swap1\n      dup2\n      mstore\n      0x20\n      add\n      0x00\n      keccak256\n        /* \"contracts/durationv2.sol\":1693:1719  delete EligibleUser[_user] */\n      0x00\n      swap1\n      sstore\n        /* \"contracts/durationv2.sol\":1292:1726  {... */\n      pop\n        /* \"contracts/durationv2.sol\":1240:1726  function RemoveEligibleUser(address _user) external {... */\n      pop\n      jump\t// out\n        /* \"contracts/durationv2.sol\":652:890  function AddEligibleUser(address _user) external onlyAdmin {... */\n    tag_17:\n        /* \"contracts/durationv2.sol\":3573:3583  msg.sender */\n      caller\n        /* \"contracts/durationv2.sol\":3564:3583  admin == msg.sender */\n      0xffffffffffffffffffffffffffffffffffffffff\n      and\n        /* \"contracts/durationv2.sol\":3564:3569  admin */\n      immutable(\"0x731dc163f73d31d8c68f9917ce4ff967753939f70432973c04fd2c2a48148607\")\n        /* \"contracts/durationv2.sol\":3564:3583  admin == msg.sender */\n      0xffffffffffffffffffffffffffffffffffffffff\n      and\n      eq\n        /* \"contracts/durationv2.sol\":3556:3623  require(admin == msg.sender, \"only admin can invoke this function\") */\n      tag_67\n      jumpi\n      mload(0x40)\n      0x08c379a000000000000000000000000000000000000000000000000000000000\n      dup2\n      mstore\n      0x04\n      add\n      tag_68\n      swap1\n      tag_69\n      jump\t// in\n    tag_68:\n      mload(0x40)\n      dup1\n      swap2\n      sub\n      swap1\n      revert\n    tag_67:\n        /* \"contracts/durationv2.sol\":747:748  0 */\n      0x00\n        /* \"contracts/durationv2.sol\":725:737  EligibleUser */\n      0x01\n        /* \"contracts/durationv2.sol\":725:744  EligibleUser[_user] */\n      0x00\n        /* \"contracts/durationv2.sol\":738:743  _user */\n      dup4\n        /* \"contracts/durationv2.sol\":725:744  EligibleUser[_user] */\n      0xffffffffffffffffffffffffffffffffffffffff\n      and\n      0xffffffffffffffffffffffffffffffffffffffff\n      and\n      dup2\n      mstore\n      0x20\n      add\n      swap1\n      dup2\n      mstore\n      0x20\n      add\n      0x00\n      keccak256\n      sload\n        /* \"contracts/durationv2.sol\":725:748  EligibleUser[_user] > 0 */\n      gt\n        /* \"contracts/durationv2.sol\":721:814  if (EligibleUser[_user] > 0) {... */\n      iszero\n      tag_71\n      jumpi\n        /* \"contracts/durationv2.sol\":771:803  DuplicateUserAdded(\"User exist\") */\n      mload(0x40)\n      0x0e64c65800000000000000000000000000000000000000000000000000000000\n      dup2\n      mstore\n      0x04\n      add\n      tag_72\n      swap1\n      tag_73\n      jump\t// in\n    tag_72:\n      mload(0x40)\n      dup1\n      swap2\n      sub\n      swap1\n      revert\n        /* \"contracts/durationv2.sol\":721:814  if (EligibleUser[_user] > 0) {... */\n    tag_71:\n        /* \"contracts/durationv2.sol\":845:846  1 */\n      0x01\n        /* \"contracts/durationv2.sol\":823:835  EligibleUser */\n      dup1\n        /* \"contracts/durationv2.sol\":823:842  EligibleUser[_user] */\n      0x00\n        /* \"contracts/durationv2.sol\":836:841  _user */\n      dup4\n        /* \"contracts/durationv2.sol\":823:842  EligibleUser[_user] */\n      0xffffffffffffffffffffffffffffffffffffffff\n      and\n      0xffffffffffffffffffffffffffffffffffffffff\n      and\n      dup2\n      mstore\n      0x20\n      add\n      swap1\n      dup2\n      mstore\n      0x20\n      add\n      0x00\n      keccak256\n        /* \"contracts/durationv2.sol\":823:846  EligibleUser[_user] = 1 */\n      dup2\n      swap1\n      sstore\n      pop\n        /* \"contracts/durationv2.sol\":856:871  EligibleUserArr */\n      0x02\n        /* \"contracts/durationv2.sol\":877:882  _user */\n      dup2\n        /* \"contracts/durationv2.sol\":856:883  EligibleUserArr.push(_user) */\n      swap1\n      dup1\n      0x01\n      dup2\n      sload\n      add\n      dup1\n      dup3\n      sstore\n      dup1\n      swap2\n      pop\n      pop\n      0x01\n      swap1\n      sub\n      swap1\n      0x00\n      mstore\n      keccak256(0x00, 0x20)\n      add\n      0x00\n      swap1\n      swap2\n      swap1\n      swap2\n      swap1\n      swap2\n      0x0100\n      exp\n      dup2\n      sload\n      dup2\n      0xffffffffffffffffffffffffffffffffffffffff\n      mul\n      not\n      and\n      swap1\n      dup4\n      0xffffffffffffffffffffffffffffffffffffffff\n      and\n      mul\n      or\n      swap1\n      sstore\n      pop\n        /* \"contracts/durationv2.sol\":652:890  function AddEligibleUser(address _user) external onlyAdmin {... */\n      pop\n      jump\t// out\n        /* \"contracts/durationv2.sol\":3310:3405  function lis() external view returns (address[] memory) {... */\n    tag_19:\n        /* \"contracts/durationv2.sol\":3348:3364  address[] memory */\n      0x60\n        /* \"contracts/durationv2.sol\":3383:3398  EligibleUserArr */\n      0x02\n        /* \"contracts/durationv2.sol\":3376:3398  return EligibleUserArr */\n      dup1\n      sload\n      dup1\n      0x20\n      mul\n      0x20\n      add\n      mload(0x40)\n      swap1\n      dup2\n      add\n      0x40\n      mstore\n      dup1\n      swap3\n      swap2\n      swap1\n      dup2\n      dup2\n      mstore\n      0x20\n      add\n      dup3\n      dup1\n      sload\n      dup1\n      iszero\n      tag_76\n      jumpi\n      0x20\n      mul\n      dup3\n      add\n      swap2\n      swap1\n      0x00\n      mstore\n      keccak256(0x00, 0x20)\n      swap1\n    tag_77:\n      dup2\n      0x00\n      swap1\n      sload\n      swap1\n      0x0100\n      exp\n      swap1\n      div\n      0xffffffffffffffffffffffffffffffffffffffff\n      and\n      0xffffffffffffffffffffffffffffffffffffffff\n      and\n      dup2\n      mstore\n      0x20\n      add\n      swap1\n      0x01\n      add\n      swap1\n      dup1\n      dup4\n      gt\n      tag_77\n      jumpi\n    tag_76:\n      pop\n      pop\n      pop\n      pop\n      pop\n      swap1\n      pop\n        /* \"contracts/durationv2.sol\":3310:3405  function lis() external view returns (address[] memory) {... */\n      swap1\n      jump\t// out\n        /* \"contracts/durationv2.sol\":3411:3519  function returndf(address _user) external view returns (uint256) {... */\n    tag_24:\n        /* \"contracts/durationv2.sol\":3467:3474  uint256 */\n      0x00\n        /* \"contracts/durationv2.sol\":3493:3505  EligibleUser */\n      0x01\n        /* \"contracts/durationv2.sol\":3493:3512  EligibleUser[_user] */\n      0x00\n        /* \"contracts/durationv2.sol\":3506:3511  _user */\n      dup4\n        /* \"contracts/durationv2.sol\":3493:3512  EligibleUser[_user] */\n      0xffffffffffffffffffffffffffffffffffffffff\n      and\n      0xffffffffffffffffffffffffffffffffffffffff\n      and\n      dup2\n      mstore\n      0x20\n      add\n      swap1\n      dup2\n      mstore\n      0x20\n      add\n      0x00\n      keccak256\n      sload\n        /* \"contracts/durationv2.sol\":3486:3512  return EligibleUser[_user] */\n      swap1\n      pop\n        /* \"contracts/durationv2.sol\":3411:3519  function returndf(address _user) external view returns (uint256) {... */\n      swap2\n      swap1\n      pop\n      jump\t// out\n        /* \"contracts/durationv2.sol\":896:1234  function AddMultipleEliglibleUser(address[] memory _users)... */\n    tag_30:\n        /* \"contracts/durationv2.sol\":3573:3583  msg.sender */\n      caller\n        /* \"contracts/durationv2.sol\":3564:3583  admin == msg.sender */\n      0xffffffffffffffffffffffffffffffffffffffff\n      and\n        /* \"contracts/durationv2.sol\":3564:3569  admin */\n      immutable(\"0x731dc163f73d31d8c68f9917ce4ff967753939f70432973c04fd2c2a48148607\")\n        /* \"contracts/durationv2.sol\":3564:3583  admin == msg.sender */\n      0xffffffffffffffffffffffffffffffffffffffff\n      and\n      eq\n        /* \"contracts/durationv2.sol\":3556:3623  require(admin == msg.sender, \"only admin can invoke this function\") */\n      tag_80\n      jumpi\n      mload(0x40)\n      0x08c379a000000000000000000000000000000000000000000000000000000000\n      dup2\n      mstore\n      0x04\n      add\n      tag_81\n      swap1\n      tag_69\n      jump\t// in\n    tag_81:\n      mload(0x40)\n      dup1\n      swap2\n      sub\n      swap1\n      revert\n    tag_80:\n        /* \"contracts/durationv2.sol\":1009:1017  uint16 i */\n      0x00\n        /* \"contracts/durationv2.sol\":1004:1228  for (uint16 i; i < _users.length; i++) {... */\n    tag_83:\n        /* \"contracts/durationv2.sol\":1023:1029  _users */\n      dup2\n        /* \"contracts/durationv2.sol\":1023:1036  _users.length */\n      mload\n        /* \"contracts/durationv2.sol\":1019:1020  i */\n      dup2\n        /* \"contracts/durationv2.sol\":1019:1036  i < _users.length */\n      0xffff\n      and\n      lt\n        /* \"contracts/durationv2.sol\":1004:1228  for (uint16 i; i < _users.length; i++) {... */\n      iszero\n      tag_84\n      jumpi\n        /* \"contracts/durationv2.sol\":1087:1088  0 */\n      0x00\n        /* \"contracts/durationv2.sol\":1061:1073  EligibleUser */\n      0x01\n        /* \"contracts/durationv2.sol\":1061:1084  EligibleUser[_users[i]] */\n      0x00\n        /* \"contracts/durationv2.sol\":1074:1080  _users */\n      dup5\n        /* \"contracts/durationv2.sol\":1081:1082  i */\n      dup5\n        /* \"contracts/durationv2.sol\":1074:1083  _users[i] */\n      0xffff\n      and\n      dup2\n      mload\n      dup2\n      lt\n      tag_86\n      jumpi\n      tag_87\n      tag_43\n      jump\t// in\n    tag_87:\n    tag_86:\n      0x20\n      mul\n      0x20\n      add\n      add\n      mload\n        /* \"contracts/durationv2.sol\":1061:1084  EligibleUser[_users[i]] */\n      0xffffffffffffffffffffffffffffffffffffffff\n      and\n      0xffffffffffffffffffffffffffffffffffffffff\n      and\n      dup2\n      mstore\n      0x20\n      add\n      swap1\n      dup2\n      mstore\n      0x20\n      add\n      0x00\n      keccak256\n      sload\n        /* \"contracts/durationv2.sol\":1061:1088  EligibleUser[_users[i]] > 0 */\n      gt\n        /* \"contracts/durationv2.sol\":1108:1116  continue */\n      tag_85\n        /* \"contracts/durationv2.sol\":1057:1131  if (EligibleUser[_users[i]] > 0) {... */\n      jumpi\n        /* \"contracts/durationv2.sol\":1171:1172  1 */\n      0x01\n        /* \"contracts/durationv2.sol\":1145:1157  EligibleUser */\n      dup1\n        /* \"contracts/durationv2.sol\":1145:1168  EligibleUser[_users[i]] */\n      0x00\n        /* \"contracts/durationv2.sol\":1158:1164  _users */\n      dup5\n        /* \"contracts/durationv2.sol\":1165:1166  i */\n      dup5\n        /* \"contracts/durationv2.sol\":1158:1167  _users[i] */\n      0xffff\n      and\n      dup2\n      mload\n      dup2\n      lt\n      tag_89\n      jumpi\n      tag_90\n      tag_43\n      jump\t// in\n    tag_90:\n    tag_89:\n      0x20\n      mul\n      0x20\n      add\n      add\n      mload\n        /* \"contracts/durationv2.sol\":1145:1168  EligibleUser[_users[i]] */\n      0xffffffffffffffffffffffffffffffffffffffff\n      and\n      0xffffffffffffffffffffffffffffffffffffffff\n      and\n      dup2\n      mstore\n      0x20\n      add\n      swap1\n      dup2\n      mstore\n      0x20\n      add\n      0x00\n      keccak256\n        /* \"contracts/durationv2.sol\":1145:1172  EligibleUser[_users[i]] = 1 */\n      dup2\n      swap1\n      sstore\n      pop\n        /* \"contracts/durationv2.sol\":1186:1201  EligibleUserArr */\n      0x02\n        /* \"contracts/durationv2.sol\":1207:1213  _users */\n      dup3\n        /* \"contracts/durationv2.sol\":1214:1215  i */\n      dup3\n        /* \"contracts/durationv2.sol\":1207:1216  _users[i] */\n      0xffff\n      and\n      dup2\n      mload\n      dup2\n      lt\n      tag_91\n      jumpi\n      tag_92\n      tag_43\n      jump\t// in\n    tag_92:\n    tag_91:\n      0x20\n      mul\n      0x20\n      add\n      add\n      mload\n        /* \"contracts/durationv2.sol\":1186:1217  EligibleUserArr.push(_users[i]) */\n      swap1\n      dup1\n      0x01\n      dup2\n      sload\n      add\n      dup1\n      dup3\n      sstore\n      dup1\n      swap2\n      pop\n      pop\n      0x01\n      swap1\n      sub\n      swap1\n      0x00\n      mstore\n      keccak256(0x00, 0x20)\n      add\n      0x00\n      swap1\n      swap2\n      swap1\n      swap2\n      swap1\n      swap2\n      0x0100\n      exp\n      dup2\n      sload\n      dup2\n      0xffffffffffffffffffffffffffffffffffffffff\n      mul\n      not\n      and\n      swap1\n      dup4\n      0xffffffffffffffffffffffffffffffffffffffff\n      and\n      mul\n      or\n      swap1\n      sstore\n      pop\n        /* \"contracts/durationv2.sol\":1004:1228  for (uint16 i; i < _users.length; i++) {... */\n    tag_85:\n        /* \"contracts/durationv2.sol\":1038:1041  i++ */\n      dup1\n      dup1\n      tag_94\n      swap1\n      tag_60\n      jump\t// in\n    tag_94:\n      swap2\n      pop\n      pop\n        /* \"contracts/durationv2.sol\":1004:1228  for (uint16 i; i < _users.length; i++) {... */\n      jump(tag_83)\n    tag_84:\n      pop\n        /* \"contracts/durationv2.sol\":896:1234  function AddMultipleEliglibleUser(address[] memory _users)... */\n      pop\n      jump\t// out\n        /* \"contracts/durationv2.sol\":1736:2133  function test5minsClaim() external returns (uint256) {... */\n    tag_32:\n        /* \"contracts/durationv2.sol\":1780:1787  uint256 */\n      0x00\n        /* \"contracts/durationv2.sol\":1832:1833  0 */\n      dup1\n        /* \"contracts/durationv2.sol\":1804:1816  EligibleUser */\n      0x01\n        /* \"contracts/durationv2.sol\":1804:1828  EligibleUser[msg.sender] */\n      0x00\n        /* \"contracts/durationv2.sol\":1817:1827  msg.sender */\n      caller\n        /* \"contracts/durationv2.sol\":1804:1828  EligibleUser[msg.sender] */\n      0xffffffffffffffffffffffffffffffffffffffff\n      and\n      0xffffffffffffffffffffffffffffffffffffffff\n      and\n      dup2\n      mstore\n      0x20\n      add\n      swap1\n      dup2\n      mstore\n      0x20\n      add\n      0x00\n      keccak256\n      sload\n        /* \"contracts/durationv2.sol\":1804:1833  EligibleUser[msg.sender] == 0 */\n      sub\n        /* \"contracts/durationv2.sol\":1800:1907  if (EligibleUser[msg.sender] == 0) {... */\n      tag_96\n      jumpi\n        /* \"contracts/durationv2.sol\":1856:1896  IneligibleUsers(\"Not an eligible user!\") */\n      mload(0x40)\n      0x066badb300000000000000000000000000000000000000000000000000000000\n      dup2\n      mstore\n      0x04\n      add\n      tag_97\n      swap1\n      tag_98\n      jump\t// in\n    tag_97:\n      mload(0x40)\n      dup1\n      swap2\n      sub\n      swap1\n      revert\n        /* \"contracts/durationv2.sol\":1800:1907  if (EligibleUser[msg.sender] == 0) {... */\n    tag_96:\n        /* \"contracts/durationv2.sol\":1917:1934  uint256 _lastTime */\n      0x00\n        /* \"contracts/durationv2.sol\":1979:1980  1 */\n      0x01\n        /* \"contracts/durationv2.sol\":1965:1974  5 minutes */\n      0x012c\n        /* \"contracts/durationv2.sol\":1938:1950  EligibleUser */\n      0x01\n        /* \"contracts/durationv2.sol\":1938:1962  EligibleUser[msg.sender] */\n      0x00\n        /* \"contracts/durationv2.sol\":1951:1961  msg.sender */\n      caller\n        /* \"contracts/durationv2.sol\":1938:1962  EligibleUser[msg.sender] */\n      0xffffffffffffffffffffffffffffffffffffffff\n      and\n      0xffffffffffffffffffffffffffffffffffffffff\n      and\n      dup2\n      mstore\n      0x20\n      add\n      swap1\n      dup2\n      mstore\n      0x20\n      add\n      0x00\n      keccak256\n      sload\n        /* \"contracts/durationv2.sol\":1938:1974  EligibleUser[msg.sender] + 5 minutes */\n      tag_99\n      swap2\n      swap1\n      tag_100\n      jump\t// in\n    tag_99:\n        /* \"contracts/durationv2.sol\":1937:1980  (EligibleUser[msg.sender] + 5 minutes ) - 1 */\n      tag_101\n      swap2\n      swap1\n      tag_50\n      jump\t// in\n    tag_101:\n        /* \"contracts/durationv2.sol\":1917:1980  uint256 _lastTime = (EligibleUser[msg.sender] + 5 minutes ) - 1 */\n      swap1\n      pop\n        /* \"contracts/durationv2.sol\":2019:2028  _lastTime */\n      dup1\n        /* \"contracts/durationv2.sol\":2000:2015  block.timestamp */\n      timestamp\n        /* \"contracts/durationv2.sol\":2000:2028  block.timestamp >= _lastTime */\n      lt\n      iszero\n        /* \"contracts/durationv2.sol\":1991:2054  require( block.timestamp >= _lastTime, \"claimm after 5 mins!\" ) */\n      tag_102\n      jumpi\n      mload(0x40)\n      0x08c379a000000000000000000000000000000000000000000000000000000000\n      dup2\n      mstore\n      0x04\n      add\n      tag_103\n      swap1\n      tag_104\n      jump\t// in\n    tag_103:\n      mload(0x40)\n      dup1\n      swap2\n      sub\n      swap1\n      revert\n    tag_102:\n        /* \"contracts/durationv2.sol\":2092:2107  block.timestamp */\n      timestamp\n        /* \"contracts/durationv2.sol\":2065:2077  EligibleUser */\n      0x01\n        /* \"contracts/durationv2.sol\":2065:2089  EligibleUser[msg.sender] */\n      0x00\n        /* \"contracts/durationv2.sol\":2078:2088  msg.sender */\n      caller\n        /* \"contracts/durationv2.sol\":2065:2089  EligibleUser[msg.sender] */\n      0xffffffffffffffffffffffffffffffffffffffff\n      and\n      0xffffffffffffffffffffffffffffffffffffffff\n      and\n      dup2\n      mstore\n      0x20\n      add\n      swap1\n      dup2\n      mstore\n      0x20\n      add\n      0x00\n      keccak256\n        /* \"contracts/durationv2.sol\":2065:2107  EligibleUser[msg.sender] = block.timestamp */\n      dup2\n      swap1\n      sstore\n      pop\n        /* \"contracts/durationv2.sol\":2125:2126  0 */\n      0x00\n        /* \"contracts/durationv2.sol\":2118:2126  return 0 */\n      swap2\n      pop\n      pop\n        /* \"contracts/durationv2.sol\":1736:2133  function test5minsClaim() external returns (uint256) {... */\n      swap1\n      jump\t// out\n        /* \"contracts/durationv2.sol\":2139:3029  function testClaim() external returns (uint256) {... */\n    tag_35:\n        /* \"contracts/durationv2.sol\":2178:2185  uint256 */\n      0x00\n        /* \"contracts/durationv2.sol\":2197:2211  uint _lastTime */\n      dup1\n        /* \"contracts/durationv2.sol\":2221:2236  uint _totalUser */\n      0x00\n        /* \"contracts/durationv2.sol\":2239:2254  EligibleUserArr */\n      0x02\n        /* \"contracts/durationv2.sol\":2239:2261  EligibleUserArr.length */\n      dup1\n      sload\n      swap1\n      pop\n        /* \"contracts/durationv2.sol\":2221:2261  uint _totalUser = EligibleUserArr.length */\n      swap1\n      pop\n        /* \"contracts/durationv2.sol\":2303:2304  0 */\n      0x00\n        /* \"contracts/durationv2.sol\":2275:2287  EligibleUser */\n      0x01\n        /* \"contracts/durationv2.sol\":2275:2299  EligibleUser[msg.sender] */\n      0x00\n        /* \"contracts/durationv2.sol\":2288:2298  msg.sender */\n      caller\n        /* \"contracts/durationv2.sol\":2275:2299  EligibleUser[msg.sender] */\n      0xffffffffffffffffffffffffffffffffffffffff\n      and\n      0xffffffffffffffffffffffffffffffffffffffff\n      and\n      dup2\n      mstore\n      0x20\n      add\n      swap1\n      dup2\n      mstore\n      0x20\n      add\n      0x00\n      keccak256\n      sload\n        /* \"contracts/durationv2.sol\":2275:2304  EligibleUser[msg.sender] == 0 */\n      sub\n        /* \"contracts/durationv2.sol\":2271:2378  if (EligibleUser[msg.sender] == 0) {... */\n      tag_106\n      jumpi\n        /* \"contracts/durationv2.sol\":2327:2367  IneligibleUsers(\"Not an eligible user!\") */\n      mload(0x40)\n      0x066badb300000000000000000000000000000000000000000000000000000000\n      dup2\n      mstore\n      0x04\n      add\n      tag_107\n      swap1\n      tag_98\n      jump\t// in\n    tag_107:\n      mload(0x40)\n      dup1\n      swap2\n      sub\n      swap1\n      revert\n        /* \"contracts/durationv2.sol\":2271:2378  if (EligibleUser[msg.sender] == 0) {... */\n    tag_106:\n        /* \"contracts/durationv2.sol\":2420:2421  1 */\n      0x01\n        /* \"contracts/durationv2.sol\":2392:2404  EligibleUser */\n      dup1\n        /* \"contracts/durationv2.sol\":2392:2416  EligibleUser[msg.sender] */\n      0x00\n        /* \"contracts/durationv2.sol\":2405:2415  msg.sender */\n      caller\n        /* \"contracts/durationv2.sol\":2392:2416  EligibleUser[msg.sender] */\n      0xffffffffffffffffffffffffffffffffffffffff\n      and\n      0xffffffffffffffffffffffffffffffffffffffff\n      and\n      dup2\n      mstore\n      0x20\n      add\n      swap1\n      dup2\n      mstore\n      0x20\n      add\n      0x00\n      keccak256\n      sload\n        /* \"contracts/durationv2.sol\":2392:2421  EligibleUser[msg.sender] == 1 */\n      sub\n        /* \"contracts/durationv2.sol\":2388:2539  if( EligibleUser[msg.sender] == 1 ){... */\n      tag_108\n      jumpi\n        /* \"contracts/durationv2.sol\":2527:2528  1 */\n      0x01\n        /* \"contracts/durationv2.sol\":2516:2523  1 weeks */\n      0x093a80\n        /* \"contracts/durationv2.sol\":2489:2501  EligibleUser */\n      0x01\n        /* \"contracts/durationv2.sol\":2489:2513  EligibleUser[msg.sender] */\n      0x00\n        /* \"contracts/durationv2.sol\":2502:2512  msg.sender */\n      caller\n        /* \"contracts/durationv2.sol\":2489:2513  EligibleUser[msg.sender] */\n      0xffffffffffffffffffffffffffffffffffffffff\n      and\n      0xffffffffffffffffffffffffffffffffffffffff\n      and\n      dup2\n      mstore\n      0x20\n      add\n      swap1\n      dup2\n      mstore\n      0x20\n      add\n      0x00\n      keccak256\n      sload\n        /* \"contracts/durationv2.sol\":2489:2523  EligibleUser[msg.sender] + 1 weeks */\n      tag_109\n      swap2\n      swap1\n      tag_100\n      jump\t// in\n    tag_109:\n        /* \"contracts/durationv2.sol\":2488:2528  (EligibleUser[msg.sender] + 1 weeks) - 1 */\n      tag_110\n      swap2\n      swap1\n      tag_50\n      jump\t// in\n    tag_110:\n        /* \"contracts/durationv2.sol\":2476:2528  _lastTime = (EligibleUser[msg.sender] + 1 weeks) - 1 */\n      swap2\n      pop\n        /* \"contracts/durationv2.sol\":2388:2539  if( EligibleUser[msg.sender] == 1 ){... */\n    tag_108:\n        /* \"contracts/durationv2.sol\":2589:2596  1 weeks */\n      0x093a80\n        /* \"contracts/durationv2.sol\":2562:2574  EligibleUser */\n      0x01\n        /* \"contracts/durationv2.sol\":2562:2586  EligibleUser[msg.sender] */\n      0x00\n        /* \"contracts/durationv2.sol\":2575:2585  msg.sender */\n      caller\n        /* \"contracts/durationv2.sol\":2562:2586  EligibleUser[msg.sender] */\n      0xffffffffffffffffffffffffffffffffffffffff\n      and\n      0xffffffffffffffffffffffffffffffffffffffff\n      and\n      dup2\n      mstore\n      0x20\n      add\n      swap1\n      dup2\n      mstore\n      0x20\n      add\n      0x00\n      keccak256\n      sload\n        /* \"contracts/durationv2.sol\":2562:2596  EligibleUser[msg.sender] + 1 weeks */\n      tag_111\n      swap2\n      swap1\n      tag_100\n      jump\t// in\n    tag_111:\n        /* \"contracts/durationv2.sol\":2549:2597  _lastTime = (EligibleUser[msg.sender] + 1 weeks) */\n      swap2\n      pop\n        /* \"contracts/durationv2.sol\":2636:2645  _lastTime */\n      dup2\n        /* \"contracts/durationv2.sol\":2617:2632  block.timestamp */\n      timestamp\n        /* \"contracts/durationv2.sol\":2617:2645  block.timestamp >= _lastTime */\n      lt\n      iszero\n        /* \"contracts/durationv2.sol\":2608:2664  require( block.timestamp >= _lastTime, \"Once per week\" ) */\n      tag_112\n      jumpi\n      mload(0x40)\n      0x08c379a000000000000000000000000000000000000000000000000000000000\n      dup2\n      mstore\n      0x04\n      add\n      tag_113\n      swap1\n      tag_114\n      jump\t// in\n    tag_113:\n      mload(0x40)\n      dup1\n      swap2\n      sub\n      swap1\n      revert\n    tag_112:\n        /* \"contracts/durationv2.sol\":2730:2731  0 */\n      0x00\n        /* \"contracts/durationv2.sol\":2698:2699  3 */\n      0x03\n        /* \"contracts/durationv2.sol\":2683:2712  IERC20(address(3) ).balanceOf */\n      0xffffffffffffffffffffffffffffffffffffffff\n      and\n      0x70a08231\n        /* \"contracts/durationv2.sol\":2721:2725  this */\n      address\n        /* \"contracts/durationv2.sol\":2683:2727  IERC20(address(3) ).balanceOf(address(this)) */\n      mload(0x40)\n      dup3\n      0xffffffff\n      and\n      0xe0\n      shl\n      dup2\n      mstore\n      0x04\n      add\n      tag_115\n      swap2\n      swap1\n      tag_116\n      jump\t// in\n    tag_115:\n      0x20\n      mload(0x40)\n      dup1\n      dup4\n      sub\n      dup2\n      dup7\n      gas\n      staticcall\n      iszero\n      dup1\n      iszero\n      tag_118\n      jumpi\n      returndatasize\n      0x00\n      dup1\n      returndatacopy\n      revert(0x00, returndatasize)\n    tag_118:\n      pop\n      pop\n      pop\n      pop\n      mload(0x40)\n      returndatasize\n      not(0x1f)\n      0x1f\n      dup3\n      add\n      and\n      dup3\n      add\n      dup1\n      0x40\n      mstore\n      pop\n      dup2\n      add\n      swap1\n      tag_119\n      swap2\n      swap1\n      tag_120\n      jump\t// in\n    tag_119:\n        /* \"contracts/durationv2.sol\":2683:2731  IERC20(address(3) ).balanceOf(address(this)) > 0 */\n      gt\n        /* \"contracts/durationv2.sol\":2674:2733  require( IERC20(address(3) ).balanceOf(address(this)) > 0 ) */\n      tag_121\n      jumpi\n      0x00\n      dup1\n      revert\n    tag_121:\n        /* \"contracts/durationv2.sol\":2850:2867  uint each_portion */\n      0x00\n        /* \"contracts/durationv2.sol\":2875:2885  _totalUser */\n      dup2\n        /* \"contracts/durationv2.sol\":2870:2872  10 */\n      0x0a\n        /* \"contracts/durationv2.sol\":2870:2885  10 / _totalUser */\n      tag_122\n      swap2\n      swap1\n      tag_123\n      jump\t// in\n    tag_122:\n        /* \"contracts/durationv2.sol\":2850:2885  uint each_portion = 10 / _totalUser */\n      swap1\n      pop\n        /* \"contracts/durationv2.sol\":2911:2912  3 */\n      0x03\n        /* \"contracts/durationv2.sol\":2896:2924  IERC20(address(3) ).transfer */\n      0xffffffffffffffffffffffffffffffffffffffff\n      and\n      0xa9059cbb\n        /* \"contracts/durationv2.sol\":2925:2935  msg.sender */\n      caller\n        /* \"contracts/durationv2.sol\":2937:2949  each_portion */\n      dup4\n        /* \"contracts/durationv2.sol\":2896:2950  IERC20(address(3) ).transfer(msg.sender, each_portion) */\n      mload(0x40)\n      dup4\n      0xffffffff\n      and\n      0xe0\n      shl\n      dup2\n      mstore\n      0x04\n      add\n      tag_124\n      swap3\n      swap2\n      swap1\n      tag_125\n      jump\t// in\n    tag_124:\n      0x20\n      mload(0x40)\n      dup1\n      dup4\n      sub\n      dup2\n      0x00\n      dup8\n      gas\n      call\n      iszero\n      dup1\n      iszero\n      tag_127\n      jumpi\n      returndatasize\n      0x00\n      dup1\n      returndatacopy\n      revert(0x00, returndatasize)\n    tag_127:\n      pop\n      pop\n      pop\n      pop\n      mload(0x40)\n      returndatasize\n      not(0x1f)\n      0x1f\n      dup3\n      add\n      and\n      dup3\n      add\n      dup1\n      0x40\n      mstore\n      pop\n      dup2\n      add\n      swap1\n      tag_128\n      swap2\n      swap1\n      tag_129\n      jump\t// in\n    tag_128:\n      pop\n        /* \"contracts/durationv2.sol\":2988:3003  block.timestamp */\n      timestamp\n        /* \"contracts/durationv2.sol\":2961:2973  EligibleUser */\n      0x01\n        /* \"contracts/durationv2.sol\":2961:2985  EligibleUser[msg.sender] */\n      0x00\n        /* \"contracts/durationv2.sol\":2974:2984  msg.sender */\n      caller\n        /* \"contracts/durationv2.sol\":2961:2985  EligibleUser[msg.sender] */\n      0xffffffffffffffffffffffffffffffffffffffff\n      and\n      0xffffffffffffffffffffffffffffffffffffffff\n      and\n      dup2\n      mstore\n      0x20\n      add\n      swap1\n      dup2\n      mstore\n      0x20\n      add\n      0x00\n      keccak256\n        /* \"contracts/durationv2.sol\":2961:3003  EligibleUser[msg.sender] = block.timestamp */\n      dup2\n      swap1\n      sstore\n      pop\n        /* \"contracts/durationv2.sol\":3021:3022  0 */\n      0x00\n        /* \"contracts/durationv2.sol\":3014:3022  return 0 */\n      swap4\n      pop\n      pop\n      pop\n      pop\n        /* \"contracts/durationv2.sol\":2139:3029  function testClaim() external returns (uint256) {... */\n      swap1\n      jump\t// out\n        /* \"#utility.yul\":7:82   */\n    tag_130:\n        /* \"#utility.yul\":40:46   */\n      0x00\n        /* \"#utility.yul\":73:75   */\n      0x40\n        /* \"#utility.yul\":67:76   */\n      mload\n        /* \"#utility.yul\":57:76   */\n      swap1\n      pop\n        /* \"#utility.yul\":7:82   */\n      swap1\n      jump\t// out\n        /* \"#utility.yul\":88:205   */\n    tag_131:\n        /* \"#utility.yul\":197:198   */\n      0x00\n        /* \"#utility.yul\":194:195   */\n      dup1\n        /* \"#utility.yul\":187:199   */\n      revert\n        /* \"#utility.yul\":211:328   */\n    tag_132:\n        /* \"#utility.yul\":320:321   */\n      0x00\n        /* \"#utility.yul\":317:318   */\n      dup1\n        /* \"#utility.yul\":310:322   */\n      revert\n        /* \"#utility.yul\":334:460   */\n    tag_133:\n        /* \"#utility.yul\":371:378   */\n      0x00\n        /* \"#utility.yul\":411:453   */\n      0xffffffffffffffffffffffffffffffffffffffff\n        /* \"#utility.yul\":404:409   */\n      dup3\n        /* \"#utility.yul\":400:454   */\n      and\n        /* \"#utility.yul\":389:454   */\n      swap1\n      pop\n        /* \"#utility.yul\":334:460   */\n      swap2\n      swap1\n      pop\n      jump\t// out\n        /* \"#utility.yul\":466:562   */\n    tag_134:\n        /* \"#utility.yul\":503:510   */\n      0x00\n        /* \"#utility.yul\":532:556   */\n      tag_181\n        /* \"#utility.yul\":550:555   */\n      dup3\n        /* \"#utility.yul\":532:556   */\n      tag_133\n      jump\t// in\n    tag_181:\n        /* \"#utility.yul\":521:556   */\n      swap1\n      pop\n        /* \"#utility.yul\":466:562   */\n      swap2\n      swap1\n      pop\n      jump\t// out\n        /* \"#utility.yul\":568:690   */\n    tag_135:\n        /* \"#utility.yul\":641:665   */\n      tag_183\n        /* \"#utility.yul\":659:664   */\n      dup2\n        /* \"#utility.yul\":641:665   */\n      tag_134\n      jump\t// in\n    tag_183:\n        /* \"#utility.yul\":634:639   */\n      dup2\n        /* \"#utility.yul\":631:666   */\n      eq\n        /* \"#utility.yul\":621:684   */\n      tag_184\n      jumpi\n        /* \"#utility.yul\":680:681   */\n      0x00\n        /* \"#utility.yul\":677:678   */\n      dup1\n        /* \"#utility.yul\":670:682   */\n      revert\n        /* \"#utility.yul\":621:684   */\n    tag_184:\n        /* \"#utility.yul\":568:690   */\n      pop\n      jump\t// out\n        /* \"#utility.yul\":696:835   */\n    tag_136:\n        /* \"#utility.yul\":742:747   */\n      0x00\n        /* \"#utility.yul\":780:786   */\n      dup2\n        /* \"#utility.yul\":767:787   */\n      calldataload\n        /* \"#utility.yul\":758:787   */\n      swap1\n      pop\n        /* \"#utility.yul\":796:829   */\n      tag_186\n        /* \"#utility.yul\":823:828   */\n      dup2\n        /* \"#utility.yul\":796:829   */\n      tag_135\n      jump\t// in\n    tag_186:\n        /* \"#utility.yul\":696:835   */\n      swap3\n      swap2\n      pop\n      pop\n      jump\t// out\n        /* \"#utility.yul\":841:1170   */\n    tag_13:\n        /* \"#utility.yul\":900:906   */\n      0x00\n        /* \"#utility.yul\":949:951   */\n      0x20\n        /* \"#utility.yul\":937:946   */\n      dup3\n        /* \"#utility.yul\":928:935   */\n      dup5\n        /* \"#utility.yul\":924:947   */\n      sub\n        /* \"#utility.yul\":920:952   */\n      slt\n        /* \"#utility.yul\":917:1036   */\n      iszero\n      tag_188\n      jumpi\n        /* \"#utility.yul\":955:1034   */\n      tag_189\n      tag_131\n      jump\t// in\n    tag_189:\n        /* \"#utility.yul\":917:1036   */\n    tag_188:\n        /* \"#utility.yul\":1075:1076   */\n      0x00\n        /* \"#utility.yul\":1100:1153   */\n      tag_190\n        /* \"#utility.yul\":1145:1152   */\n      dup5\n        /* \"#utility.yul\":1136:1142   */\n      dup3\n        /* \"#utility.yul\":1125:1134   */\n      dup6\n        /* \"#utility.yul\":1121:1143   */\n      add\n        /* \"#utility.yul\":1100:1153   */\n      tag_136\n      jump\t// in\n    tag_190:\n        /* \"#utility.yul\":1090:1153   */\n      swap2\n      pop\n        /* \"#utility.yul\":1046:1163   */\n      pop\n        /* \"#utility.yul\":841:1170   */\n      swap3\n      swap2\n      pop\n      pop\n      jump\t// out\n        /* \"#utility.yul\":1176:1290   */\n    tag_137:\n        /* \"#utility.yul\":1243:1249   */\n      0x00\n        /* \"#utility.yul\":1277:1282   */\n      dup2\n        /* \"#utility.yul\":1271:1283   */\n      mload\n        /* \"#utility.yul\":1261:1283   */\n      swap1\n      pop\n        /* \"#utility.yul\":1176:1290   */\n      swap2\n      swap1\n      pop\n      jump\t// out\n        /* \"#utility.yul\":1296:1480   */\n    tag_138:\n        /* \"#utility.yul\":1395:1406   */\n      0x00\n        /* \"#utility.yul\":1429:1435   */\n      dup3\n        /* \"#utility.yul\":1424:1427   */\n      dup3\n        /* \"#utility.yul\":1417:1436   */\n      mstore\n        /* \"#utility.yul\":1469:1473   */\n      0x20\n        /* \"#utility.yul\":1464:1467   */\n      dup3\n        /* \"#utility.yul\":1460:1474   */\n      add\n        /* \"#utility.yul\":1445:1474   */\n      swap1\n      pop\n        /* \"#utility.yul\":1296:1480   */\n      swap3\n      swap2\n      pop\n      pop\n      jump\t// out\n        /* \"#utility.yul\":1486:1618   */\n    tag_139:\n        /* \"#utility.yul\":1553:1557   */\n      0x00\n        /* \"#utility.yul\":1576:1579   */\n      dup2\n        /* \"#utility.yul\":1568:1579   */\n      swap1\n      pop\n        /* \"#utility.yul\":1606:1610   */\n      0x20\n        /* \"#utility.yul\":1601:1604   */\n      dup3\n        /* \"#utility.yul\":1597:1611   */\n      add\n        /* \"#utility.yul\":1589:1611   */\n      swap1\n      pop\n        /* \"#utility.yul\":1486:1618   */\n      swap2\n      swap1\n      pop\n      jump\t// out\n        /* \"#utility.yul\":1624:1732   */\n    tag_140:\n        /* \"#utility.yul\":1701:1725   */\n      tag_195\n        /* \"#utility.yul\":1719:1724   */\n      dup2\n        /* \"#utility.yul\":1701:1725   */\n      tag_134\n      jump\t// in\n    tag_195:\n        /* \"#utility.yul\":1696:1699   */\n      dup3\n        /* \"#utility.yul\":1689:1726   */\n      mstore\n        /* \"#utility.yul\":1624:1732   */\n      pop\n      pop\n      jump\t// out\n        /* \"#utility.yul\":1738:1917   */\n    tag_141:\n        /* \"#utility.yul\":1807:1817   */\n      0x00\n        /* \"#utility.yul\":1828:1874   */\n      tag_197\n        /* \"#utility.yul\":1870:1873   */\n      dup4\n        /* \"#utility.yul\":1862:1868   */\n      dup4\n        /* \"#utility.yul\":1828:1874   */\n      tag_140\n      jump\t// in\n    tag_197:\n        /* \"#utility.yul\":1906:1910   */\n      0x20\n        /* \"#utility.yul\":1901:1904   */\n      dup4\n        /* \"#utility.yul\":1897:1911   */\n      add\n        /* \"#utility.yul\":1883:1911   */\n      swap1\n      pop\n        /* \"#utility.yul\":1738:1917   */\n      swap3\n      swap2\n      pop\n      pop\n      jump\t// out\n        /* \"#utility.yul\":1923:2036   */\n    tag_142:\n        /* \"#utility.yul\":1993:1997   */\n      0x00\n        /* \"#utility.yul\":2025:2029   */\n      0x20\n        /* \"#utility.yul\":2020:2023   */\n      dup3\n        /* \"#utility.yul\":2016:2030   */\n      add\n        /* \"#utility.yul\":2008:2030   */\n      swap1\n      pop\n        /* \"#utility.yul\":1923:2036   */\n      swap2\n      swap1\n      pop\n      jump\t// out\n        /* \"#utility.yul\":2072:2804   */\n    tag_143:\n        /* \"#utility.yul\":2191:2194   */\n      0x00\n        /* \"#utility.yul\":2220:2274   */\n      tag_200\n        /* \"#utility.yul\":2268:2273   */\n      dup3\n        /* \"#utility.yul\":2220:2274   */\n      tag_137\n      jump\t// in\n    tag_200:\n        /* \"#utility.yul\":2290:2376   */\n      tag_201\n        /* \"#utility.yul\":2369:2375   */\n      dup2\n        /* \"#utility.yul\":2364:2367   */\n      dup6\n        /* \"#utility.yul\":2290:2376   */\n      tag_138\n      jump\t// in\n    tag_201:\n        /* \"#utility.yul\":2283:2376   */\n      swap4\n      pop\n        /* \"#utility.yul\":2400:2456   */\n      tag_202\n        /* \"#utility.yul\":2450:2455   */\n      dup4\n        /* \"#utility.yul\":2400:2456   */\n      tag_139\n      jump\t// in\n    tag_202:\n        /* \"#utility.yul\":2479:2486   */\n      dup1\n        /* \"#utility.yul\":2510:2511   */\n      0x00\n        /* \"#utility.yul\":2495:2779   */\n    tag_203:\n        /* \"#utility.yul\":2520:2526   */\n      dup4\n        /* \"#utility.yul\":2517:2518   */\n      dup2\n        /* \"#utility.yul\":2514:2527   */\n      lt\n        /* \"#utility.yul\":2495:2779   */\n      iszero\n      tag_205\n      jumpi\n        /* \"#utility.yul\":2596:2602   */\n      dup2\n        /* \"#utility.yul\":2590:2603   */\n      mload\n        /* \"#utility.yul\":2623:2686   */\n      tag_206\n        /* \"#utility.yul\":2682:2685   */\n      dup9\n        /* \"#utility.yul\":2667:2680   */\n      dup3\n        /* \"#utility.yul\":2623:2686   */\n      tag_141\n      jump\t// in\n    tag_206:\n        /* \"#utility.yul\":2616:2686   */\n      swap8\n      pop\n        /* \"#utility.yul\":2709:2769   */\n      tag_207\n        /* \"#utility.yul\":2762:2768   */\n      dup4\n        /* \"#utility.yul\":2709:2769   */\n      tag_142\n      jump\t// in\n    tag_207:\n        /* \"#utility.yul\":2699:2769   */\n      swap3\n      pop\n        /* \"#utility.yul\":2555:2779   */\n      pop\n        /* \"#utility.yul\":2542:2543   */\n      0x01\n        /* \"#utility.yul\":2539:2540   */\n      dup2\n        /* \"#utility.yul\":2535:2544   */\n      add\n        /* \"#utility.yul\":2530:2544   */\n      swap1\n      pop\n        /* \"#utility.yul\":2495:2779   */\n      jump(tag_203)\n    tag_205:\n        /* \"#utility.yul\":2499:2513   */\n      pop\n        /* \"#utility.yul\":2795:2798   */\n      dup6\n        /* \"#utility.yul\":2788:2798   */\n      swap4\n      pop\n        /* \"#utility.yul\":2196:2804   */\n      pop\n      pop\n      pop\n        /* \"#utility.yul\":2072:2804   */\n      swap3\n      swap2\n      pop\n      pop\n      jump\t// out\n        /* \"#utility.yul\":2810:3183   */\n    tag_21:\n        /* \"#utility.yul\":2953:2957   */\n      0x00\n        /* \"#utility.yul\":2991:2993   */\n      0x20\n        /* \"#utility.yul\":2980:2989   */\n      dup3\n        /* \"#utility.yul\":2976:2994   */\n      add\n        /* \"#utility.yul\":2968:2994   */\n      swap1\n      pop\n        /* \"#utility.yul\":3040:3049   */\n      dup2\n        /* \"#utility.yul\":3034:3038   */\n      dup2\n        /* \"#utility.yul\":3030:3050   */\n      sub\n        /* \"#utility.yul\":3026:3027   */\n      0x00\n        /* \"#utility.yul\":3015:3024   */\n      dup4\n        /* \"#utility.yul\":3011:3028   */\n      add\n        /* \"#utility.yul\":3004:3051   */\n      mstore\n        /* \"#utility.yul\":3068:3176   */\n      tag_209\n        /* \"#utility.yul\":3171:3175   */\n      dup2\n        /* \"#utility.yul\":3162:3168   */\n      dup5\n        /* \"#utility.yul\":3068:3176   */\n      tag_143\n      jump\t// in\n    tag_209:\n        /* \"#utility.yul\":3060:3176   */\n      swap1\n      pop\n        /* \"#utility.yul\":2810:3183   */\n      swap3\n      swap2\n      pop\n      pop\n      jump\t// out\n        /* \"#utility.yul\":3189:3266   */\n    tag_144:\n        /* \"#utility.yul\":3226:3233   */\n      0x00\n        /* \"#utility.yul\":3255:3260   */\n      dup2\n        /* \"#utility.yul\":3244:3260   */\n      swap1\n      pop\n        /* \"#utility.yul\":3189:3266   */\n      swap2\n      swap1\n      pop\n      jump\t// out\n        /* \"#utility.yul\":3272:3390   */\n    tag_145:\n        /* \"#utility.yul\":3359:3383   */\n      tag_212\n        /* \"#utility.yul\":3377:3382   */\n      dup2\n        /* \"#utility.yul\":3359:3383   */\n      tag_144\n      jump\t// in\n    tag_212:\n        /* \"#utility.yul\":3354:3357   */\n      dup3\n        /* \"#utility.yul\":3347:3384   */\n      mstore\n        /* \"#utility.yul\":3272:3390   */\n      pop\n      pop\n      jump\t// out\n        /* \"#utility.yul\":3396:3618   */\n    tag_26:\n        /* \"#utility.yul\":3489:3493   */\n      0x00\n        /* \"#utility.yul\":3527:3529   */\n      0x20\n        /* \"#utility.yul\":3516:3525   */\n      dup3\n        /* \"#utility.yul\":3512:3530   */\n      add\n        /* \"#utility.yul\":3504:3530   */\n      swap1\n      pop\n        /* \"#utility.yul\":3540:3611   */\n      tag_214\n        /* \"#utility.yul\":3608:3609   */\n      0x00\n        /* \"#utility.yul\":3597:3606   */\n      dup4\n        /* \"#utility.yul\":3593:3610   */\n      add\n        /* \"#utility.yul\":3584:3590   */\n      dup5\n        /* \"#utility.yul\":3540:3611   */\n      tag_145\n      jump\t// in\n    tag_214:\n        /* \"#utility.yul\":3396:3618   */\n      swap3\n      swap2\n      pop\n      pop\n      jump\t// out\n        /* \"#utility.yul\":3624:3741   */\n    tag_146:\n        /* \"#utility.yul\":3733:3734   */\n      0x00\n        /* \"#utility.yul\":3730:3731   */\n      dup1\n        /* \"#utility.yul\":3723:3735   */\n      revert\n        /* \"#utility.yul\":3747:3849   */\n    tag_147:\n        /* \"#utility.yul\":3788:3794   */\n      0x00\n        /* \"#utility.yul\":3839:3841   */\n      0x1f\n        /* \"#utility.yul\":3835:3842   */\n      not\n        /* \"#utility.yul\":3830:3832   */\n      0x1f\n        /* \"#utility.yul\":3823:3828   */\n      dup4\n        /* \"#utility.yul\":3819:3833   */\n      add\n        /* \"#utility.yul\":3815:3843   */\n      and\n        /* \"#utility.yul\":3805:3843   */\n      swap1\n      pop\n        /* \"#utility.yul\":3747:3849   */\n      swap2\n      swap1\n      pop\n      jump\t// out\n        /* \"#utility.yul\":3855:4035   */\n    tag_148:\n        /* \"#utility.yul\":3903:3980   */\n      0x4e487b7100000000000000000000000000000000000000000000000000000000\n        /* \"#utility.yul\":3900:3901   */\n      0x00\n        /* \"#utility.yul\":3893:3981   */\n      mstore\n        /* \"#utility.yul\":4000:4004   */\n      0x41\n        /* \"#utility.yul\":3997:3998   */\n      0x04\n        /* \"#utility.yul\":3990:4005   */\n      mstore\n        /* \"#utility.yul\":4024:4028   */\n      0x24\n        /* \"#utility.yul\":4021:4022   */\n      0x00\n        /* \"#utility.yul\":4014:4029   */\n      revert\n        /* \"#utility.yul\":4041:4322   */\n    tag_149:\n        /* \"#utility.yul\":4124:4151   */\n      tag_219\n        /* \"#utility.yul\":4146:4150   */\n      dup3\n        /* \"#utility.yul\":4124:4151   */\n      tag_147\n      jump\t// in\n    tag_219:\n        /* \"#utility.yul\":4116:4122   */\n      dup2\n        /* \"#utility.yul\":4112:4152   */\n      add\n        /* \"#utility.yul\":4254:4260   */\n      dup2\n        /* \"#utility.yul\":4242:4252   */\n      dup2\n        /* \"#utility.yul\":4239:4261   */\n      lt\n        /* \"#utility.yul\":4218:4236   */\n      0xffffffffffffffff\n        /* \"#utility.yul\":4206:4216   */\n      dup3\n        /* \"#utility.yul\":4203:4237   */\n      gt\n        /* \"#utility.yul\":4200:4262   */\n      or\n        /* \"#utility.yul\":4197:4285   */\n      iszero\n      tag_220\n      jumpi\n        /* \"#utility.yul\":4265:4283   */\n      tag_221\n      tag_148\n      jump\t// in\n    tag_221:\n        /* \"#utility.yul\":4197:4285   */\n    tag_220:\n        /* \"#utility.yul\":4305:4315   */\n      dup1\n        /* \"#utility.yul\":4301:4303   */\n      0x40\n        /* \"#utility.yul\":4294:4316   */\n      mstore\n        /* \"#utility.yul\":4084:4322   */\n      pop\n        /* \"#utility.yul\":4041:4322   */\n      pop\n      pop\n      jump\t// out\n        /* \"#utility.yul\":4328:4457   */\n    tag_150:\n        /* \"#utility.yul\":4362:4368   */\n      0x00\n        /* \"#utility.yul\":4389:4409   */\n      tag_223\n      tag_130\n      jump\t// in\n    tag_223:\n        /* \"#utility.yul\":4379:4409   */\n      swap1\n      pop\n        /* \"#utility.yul\":4418:4451   */\n      tag_224\n        /* \"#utility.yul\":4446:4450   */\n      dup3\n        /* \"#utility.yul\":4438:4444   */\n      dup3\n        /* \"#utility.yul\":4418:4451   */\n      tag_149\n      jump\t// in\n    tag_224:\n        /* \"#utility.yul\":4328:4457   */\n      swap2\n      swap1\n      pop\n      jump\t// out\n        /* \"#utility.yul\":4463:4774   */\n    tag_151:\n        /* \"#utility.yul\":4540:4544   */\n      0x00\n        /* \"#utility.yul\":4630:4648   */\n      0xffffffffffffffff\n        /* \"#utility.yul\":4622:4628   */\n      dup3\n        /* \"#utility.yul\":4619:4649   */\n      gt\n        /* \"#utility.yul\":4616:4672   */\n      iszero\n      tag_226\n      jumpi\n        /* \"#utility.yul\":4652:4670   */\n      tag_227\n      tag_148\n      jump\t// in\n    tag_227:\n        /* \"#utility.yul\":4616:4672   */\n    tag_226:\n        /* \"#utility.yul\":4702:4706   */\n      0x20\n        /* \"#utility.yul\":4694:4700   */\n      dup3\n        /* \"#utility.yul\":4690:4707   */\n      mul\n        /* \"#utility.yul\":4682:4707   */\n      swap1\n      pop\n        /* \"#utility.yul\":4762:4766   */\n      0x20\n        /* \"#utility.yul\":4756:4760   */\n      dup2\n        /* \"#utility.yul\":4752:4767   */\n      add\n        /* \"#utility.yul\":4744:4767   */\n      swap1\n      pop\n        /* \"#utility.yul\":4463:4774   */\n      swap2\n      swap1\n      pop\n      jump\t// out\n        /* \"#utility.yul\":4780:4897   */\n    tag_152:\n        /* \"#utility.yul\":4889:4890   */\n      0x00\n        /* \"#utility.yul\":4886:4887   */\n      dup1\n        /* \"#utility.yul\":4879:4891   */\n      revert\n        /* \"#utility.yul\":4920:5630   */\n    tag_153:\n        /* \"#utility.yul\":5016:5021   */\n      0x00\n        /* \"#utility.yul\":5041:5122   */\n      tag_230\n        /* \"#utility.yul\":5057:5121   */\n      tag_231\n        /* \"#utility.yul\":5114:5120   */\n      dup5\n        /* \"#utility.yul\":5057:5121   */\n      tag_151\n      jump\t// in\n    tag_231:\n        /* \"#utility.yul\":5041:5122   */\n      tag_150\n      jump\t// in\n    tag_230:\n        /* \"#utility.yul\":5032:5122   */\n      swap1\n      pop\n        /* \"#utility.yul\":5142:5147   */\n      dup1\n        /* \"#utility.yul\":5171:5177   */\n      dup4\n        /* \"#utility.yul\":5164:5169   */\n      dup3\n        /* \"#utility.yul\":5157:5178   */\n      mstore\n        /* \"#utility.yul\":5205:5209   */\n      0x20\n        /* \"#utility.yul\":5198:5203   */\n      dup3\n        /* \"#utility.yul\":5194:5210   */\n      add\n        /* \"#utility.yul\":5187:5210   */\n      swap1\n      pop\n        /* \"#utility.yul\":5258:5262   */\n      0x20\n        /* \"#utility.yul\":5250:5256   */\n      dup5\n        /* \"#utility.yul\":5246:5263   */\n      mul\n        /* \"#utility.yul\":5238:5244   */\n      dup4\n        /* \"#utility.yul\":5234:5264   */\n      add\n        /* \"#utility.yul\":5287:5290   */\n      dup6\n        /* \"#utility.yul\":5279:5285   */\n      dup2\n        /* \"#utility.yul\":5276:5291   */\n      gt\n        /* \"#utility.yul\":5273:5395   */\n      iszero\n      tag_232\n      jumpi\n        /* \"#utility.yul\":5306:5385   */\n      tag_233\n      tag_152\n      jump\t// in\n    tag_233:\n        /* \"#utility.yul\":5273:5395   */\n    tag_232:\n        /* \"#utility.yul\":5421:5427   */\n      dup4\n        /* \"#utility.yul\":5404:5624   */\n    tag_234:\n        /* \"#utility.yul\":5438:5444   */\n      dup2\n        /* \"#utility.yul\":5433:5436   */\n      dup2\n        /* \"#utility.yul\":5430:5445   */\n      lt\n        /* \"#utility.yul\":5404:5624   */\n      iszero\n      tag_236\n      jumpi\n        /* \"#utility.yul\":5513:5516   */\n      dup1\n        /* \"#utility.yul\":5542:5579   */\n      tag_237\n        /* \"#utility.yul\":5575:5578   */\n      dup9\n        /* \"#utility.yul\":5563:5573   */\n      dup3\n        /* \"#utility.yul\":5542:5579   */\n      tag_136\n      jump\t// in\n    tag_237:\n        /* \"#utility.yul\":5537:5540   */\n      dup5\n        /* \"#utility.yul\":5530:5580   */\n      mstore\n        /* \"#utility.yul\":5609:5613   */\n      0x20\n        /* \"#utility.yul\":5604:5607   */\n      dup5\n        /* \"#utility.yul\":5600:5614   */\n      add\n        /* \"#utility.yul\":5593:5614   */\n      swap4\n      pop\n        /* \"#utility.yul\":5480:5624   */\n      pop\n        /* \"#utility.yul\":5464:5468   */\n      0x20\n        /* \"#utility.yul\":5459:5462   */\n      dup2\n        /* \"#utility.yul\":5455:5469   */\n      add\n        /* \"#utility.yul\":5448:5469   */\n      swap1\n      pop\n        /* \"#utility.yul\":5404:5624   */\n      jump(tag_234)\n    tag_236:\n        /* \"#utility.yul\":5408:5429   */\n      pop\n        /* \"#utility.yul\":5022:5630   */\n      pop\n      pop\n        /* \"#utility.yul\":4920:5630   */\n      swap4\n      swap3\n      pop\n      pop\n      pop\n      jump\t// out\n        /* \"#utility.yul\":5653:6023   */\n    tag_154:\n        /* \"#utility.yul\":5724:5729   */\n      0x00\n        /* \"#utility.yul\":5773:5776   */\n      dup3\n        /* \"#utility.yul\":5766:5770   */\n      0x1f\n        /* \"#utility.yul\":5758:5764   */\n      dup4\n        /* \"#utility.yul\":5754:5771   */\n      add\n        /* \"#utility.yul\":5750:5777   */\n      slt\n        /* \"#utility.yul\":5740:5862   */\n      tag_239\n      jumpi\n        /* \"#utility.yul\":5781:5860   */\n      tag_240\n      tag_146\n      jump\t// in\n    tag_240:\n        /* \"#utility.yul\":5740:5862   */\n    tag_239:\n        /* \"#utility.yul\":5898:5904   */\n      dup2\n        /* \"#utility.yul\":5885:5905   */\n      calldataload\n        /* \"#utility.yul\":5923:6017   */\n      tag_241\n        /* \"#utility.yul\":6013:6016   */\n      dup5\n        /* \"#utility.yul\":6005:6011   */\n      dup3\n        /* \"#utility.yul\":5998:6002   */\n      0x20\n        /* \"#utility.yul\":5990:5996   */\n      dup7\n        /* \"#utility.yul\":5986:6003   */\n      add\n        /* \"#utility.yul\":5923:6017   */\n      tag_153\n      jump\t// in\n    tag_241:\n        /* \"#utility.yul\":5914:6017   */\n      swap2\n      pop\n        /* \"#utility.yul\":5730:6023   */\n      pop\n        /* \"#utility.yul\":5653:6023   */\n      swap3\n      swap2\n      pop\n      pop\n      jump\t// out\n        /* \"#utility.yul\":6029:6568   */\n    tag_29:\n        /* \"#utility.yul\":6113:6119   */\n      0x00\n        /* \"#utility.yul\":6162:6164   */\n      0x20\n        /* \"#utility.yul\":6150:6159   */\n      dup3\n        /* \"#utility.yul\":6141:6148   */\n      dup5\n        /* \"#utility.yul\":6137:6160   */\n      sub\n        /* \"#utility.yul\":6133:6165   */\n      slt\n        /* \"#utility.yul\":6130:6249   */\n      iszero\n      tag_243\n      jumpi\n        /* \"#utility.yul\":6168:6247   */\n      tag_244\n      tag_131\n      jump\t// in\n    tag_244:\n        /* \"#utility.yul\":6130:6249   */\n    tag_243:\n        /* \"#utility.yul\":6316:6317   */\n      0x00\n        /* \"#utility.yul\":6305:6314   */\n      dup3\n        /* \"#utility.yul\":6301:6318   */\n      add\n        /* \"#utility.yul\":6288:6319   */\n      calldataload\n        /* \"#utility.yul\":6346:6364   */\n      0xffffffffffffffff\n        /* \"#utility.yul\":6338:6344   */\n      dup2\n        /* \"#utility.yul\":6335:6365   */\n      gt\n        /* \"#utility.yul\":6332:6449   */\n      iszero\n      tag_245\n      jumpi\n        /* \"#utility.yul\":6368:6447   */\n      tag_246\n      tag_132\n      jump\t// in\n    tag_246:\n        /* \"#utility.yul\":6332:6449   */\n    tag_245:\n        /* \"#utility.yul\":6473:6551   */\n      tag_247\n        /* \"#utility.yul\":6543:6550   */\n      dup5\n        /* \"#utility.yul\":6534:6540   */\n      dup3\n        /* \"#utility.yul\":6523:6532   */\n      dup6\n        /* \"#utility.yul\":6519:6541   */\n      add\n        /* \"#utility.yul\":6473:6551   */\n      tag_154\n      jump\t// in\n    tag_247:\n        /* \"#utility.yul\":6463:6551   */\n      swap2\n      pop\n        /* \"#utility.yul\":6259:6561   */\n      pop\n        /* \"#utility.yul\":6029:6568   */\n      swap3\n      swap2\n      pop\n      pop\n      jump\t// out\n        /* \"#utility.yul\":6574:6754   */\n    tag_43:\n        /* \"#utility.yul\":6622:6699   */\n      0x4e487b7100000000000000000000000000000000000000000000000000000000\n        /* \"#utility.yul\":6619:6620   */\n      0x00\n        /* \"#utility.yul\":6612:6700   */\n      mstore\n        /* \"#utility.yul\":6719:6723   */\n      0x32\n        /* \"#utility.yul\":6716:6717   */\n      0x04\n        /* \"#utility.yul\":6709:6724   */\n      mstore\n        /* \"#utility.yul\":6743:6747   */\n      0x24\n        /* \"#utility.yul\":6740:6741   */\n      0x00\n        /* \"#utility.yul\":6733:6748   */\n      revert\n        /* \"#utility.yul\":6760:6940   */\n    tag_155:\n        /* \"#utility.yul\":6808:6885   */\n      0x4e487b7100000000000000000000000000000000000000000000000000000000\n        /* \"#utility.yul\":6805:6806   */\n      0x00\n        /* \"#utility.yul\":6798:6886   */\n      mstore\n        /* \"#utility.yul\":6905:6909   */\n      0x11\n        /* \"#utility.yul\":6902:6903   */\n      0x04\n        /* \"#utility.yul\":6895:6910   */\n      mstore\n        /* \"#utility.yul\":6929:6933   */\n      0x24\n        /* \"#utility.yul\":6926:6927   */\n      0x00\n        /* \"#utility.yul\":6919:6934   */\n      revert\n        /* \"#utility.yul\":6946:7140   */\n    tag_50:\n        /* \"#utility.yul\":6986:6990   */\n      0x00\n        /* \"#utility.yul\":7006:7026   */\n      tag_251\n        /* \"#utility.yul\":7024:7025   */\n      dup3\n        /* \"#utility.yul\":7006:7026   */\n      tag_144\n      jump\t// in\n    tag_251:\n        /* \"#utility.yul\":7001:7026   */\n      swap2\n      pop\n        /* \"#utility.yul\":7040:7060   */\n      tag_252\n        /* \"#utility.yul\":7058:7059   */\n      dup4\n        /* \"#utility.yul\":7040:7060   */\n      tag_144\n      jump\t// in\n    tag_252:\n        /* \"#utility.yul\":7035:7060   */\n      swap3\n      pop\n        /* \"#utility.yul\":7084:7085   */\n      dup3\n        /* \"#utility.yul\":7081:7082   */\n      dup3\n        /* \"#utility.yul\":7077:7086   */\n      sub\n        /* \"#utility.yul\":7069:7086   */\n      swap1\n      pop\n        /* \"#utility.yul\":7108:7109   */\n      dup2\n        /* \"#utility.yul\":7102:7106   */\n      dup2\n        /* \"#utility.yul\":7099:7110   */\n      gt\n        /* \"#utility.yul\":7096:7133   */\n      iszero\n      tag_253\n      jumpi\n        /* \"#utility.yul\":7113:7131   */\n      tag_254\n      tag_155\n      jump\t// in\n    tag_254:\n        /* \"#utility.yul\":7096:7133   */\n    tag_253:\n        /* \"#utility.yul\":6946:7140   */\n      swap3\n      swap2\n      pop\n      pop\n      jump\t// out\n        /* \"#utility.yul\":7146:7235   */\n    tag_156:\n        /* \"#utility.yul\":7182:7189   */\n      0x00\n        /* \"#utility.yul\":7222:7228   */\n      0xffff\n        /* \"#utility.yul\":7215:7220   */\n      dup3\n        /* \"#utility.yul\":7211:7229   */\n      and\n        /* \"#utility.yul\":7200:7229   */\n      swap1\n      pop\n        /* \"#utility.yul\":7146:7235   */\n      swap2\n      swap1\n      pop\n      jump\t// out\n        /* \"#utility.yul\":7241:7434   */\n    tag_52:\n        /* \"#utility.yul\":7280:7283   */\n      0x00\n        /* \"#utility.yul\":7299:7318   */\n      tag_257\n        /* \"#utility.yul\":7316:7317   */\n      dup3\n        /* \"#utility.yul\":7299:7318   */\n      tag_156\n      jump\t// in\n    tag_257:\n        /* \"#utility.yul\":7294:7318   */\n      swap2\n      pop\n        /* \"#utility.yul\":7332:7351   */\n      tag_258\n        /* \"#utility.yul\":7349:7350   */\n      dup4\n        /* \"#utility.yul\":7332:7351   */\n      tag_156\n      jump\t// in\n    tag_258:\n        /* \"#utility.yul\":7327:7351   */\n      swap3\n      pop\n        /* \"#utility.yul\":7374:7375   */\n      dup3\n        /* \"#utility.yul\":7371:7372   */\n      dup3\n        /* \"#utility.yul\":7367:7376   */\n      add\n        /* \"#utility.yul\":7360:7376   */\n      swap1\n      pop\n        /* \"#utility.yul\":7397:7403   */\n      0xffff\n        /* \"#utility.yul\":7392:7395   */\n      dup2\n        /* \"#utility.yul\":7389:7404   */\n      gt\n        /* \"#utility.yul\":7386:7427   */\n      iszero\n      tag_259\n      jumpi\n        /* \"#utility.yul\":7407:7425   */\n      tag_260\n      tag_155\n      jump\t// in\n    tag_260:\n        /* \"#utility.yul\":7386:7427   */\n    tag_259:\n        /* \"#utility.yul\":7241:7434   */\n      swap3\n      swap2\n      pop\n      pop\n      jump\t// out\n        /* \"#utility.yul\":7440:7611   */\n    tag_60:\n        /* \"#utility.yul\":7478:7481   */\n      0x00\n        /* \"#utility.yul\":7501:7524   */\n      tag_262\n        /* \"#utility.yul\":7518:7523   */\n      dup3\n        /* \"#utility.yul\":7501:7524   */\n      tag_156\n      jump\t// in\n    tag_262:\n        /* \"#utility.yul\":7492:7524   */\n      swap2\n      pop\n        /* \"#utility.yul\":7546:7552   */\n      0xffff\n        /* \"#utility.yul\":7539:7544   */\n      dup3\n        /* \"#utility.yul\":7536:7553   */\n      sub\n        /* \"#utility.yul\":7533:7576   */\n      tag_263\n      jumpi\n        /* \"#utility.yul\":7556:7574   */\n      tag_264\n      tag_155\n      jump\t// in\n    tag_264:\n        /* \"#utility.yul\":7533:7576   */\n    tag_263:\n        /* \"#utility.yul\":7603:7604   */\n      0x01\n        /* \"#utility.yul\":7596:7601   */\n      dup3\n        /* \"#utility.yul\":7592:7605   */\n      add\n        /* \"#utility.yul\":7585:7605   */\n      swap1\n      pop\n        /* \"#utility.yul\":7440:7611   */\n      swap2\n      swap1\n      pop\n      jump\t// out\n        /* \"#utility.yul\":7617:7797   */\n    tag_63:\n        /* \"#utility.yul\":7665:7742   */\n      0x4e487b7100000000000000000000000000000000000000000000000000000000\n        /* \"#utility.yul\":7662:7663   */\n      0x00\n        /* \"#utility.yul\":7655:7743   */\n      mstore\n        /* \"#utility.yul\":7762:7766   */\n      0x31\n        /* \"#utility.yul\":7759:7760   */\n      0x04\n        /* \"#utility.yul\":7752:7767   */\n      mstore\n        /* \"#utility.yul\":7786:7790   */\n      0x24\n        /* \"#utility.yul\":7783:7784   */\n      0x00\n        /* \"#utility.yul\":7776:7791   */\n      revert\n        /* \"#utility.yul\":7803:7972   */\n    tag_157:\n        /* \"#utility.yul\":7887:7898   */\n      0x00\n        /* \"#utility.yul\":7921:7927   */\n      dup3\n        /* \"#utility.yul\":7916:7919   */\n      dup3\n        /* \"#utility.yul\":7909:7928   */\n      mstore\n        /* \"#utility.yul\":7961:7965   */\n      0x20\n        /* \"#utility.yul\":7956:7959   */\n      dup3\n        /* \"#utility.yul\":7952:7966   */\n      add\n        /* \"#utility.yul\":7937:7966   */\n      swap1\n      pop\n        /* \"#utility.yul\":7803:7972   */\n      swap3\n      swap2\n      pop\n      pop\n      jump\t// out\n        /* \"#utility.yul\":7978:8200   */\n    tag_158:\n        /* \"#utility.yul\":8118:8152   */\n      0x6f6e6c792061646d696e2063616e20696e766f6b6520746869732066756e6374\n        /* \"#utility.yul\":8114:8115   */\n      0x00\n        /* \"#utility.yul\":8106:8112   */\n      dup3\n        /* \"#utility.yul\":8102:8116   */\n      add\n        /* \"#utility.yul\":8095:8153   */\n      mstore\n        /* \"#utility.yul\":8187:8192   */\n      0x696f6e0000000000000000000000000000000000000000000000000000000000\n        /* \"#utility.yul\":8182:8184   */\n      0x20\n        /* \"#utility.yul\":8174:8180   */\n      dup3\n        /* \"#utility.yul\":8170:8185   */\n      add\n        /* \"#utility.yul\":8163:8193   */\n      mstore\n        /* \"#utility.yul\":7978:8200   */\n      pop\n      jump\t// out\n        /* \"#utility.yul\":8206:8572   */\n    tag_159:\n        /* \"#utility.yul\":8348:8351   */\n      0x00\n        /* \"#utility.yul\":8369:8436   */\n      tag_269\n        /* \"#utility.yul\":8433:8435   */\n      0x23\n        /* \"#utility.yul\":8428:8431   */\n      dup4\n        /* \"#utility.yul\":8369:8436   */\n      tag_157\n      jump\t// in\n    tag_269:\n        /* \"#utility.yul\":8362:8436   */\n      swap2\n      pop\n        /* \"#utility.yul\":8445:8538   */\n      tag_270\n        /* \"#utility.yul\":8534:8537   */\n      dup3\n        /* \"#utility.yul\":8445:8538   */\n      tag_158\n      jump\t// in\n    tag_270:\n        /* \"#utility.yul\":8563:8565   */\n      0x40\n        /* \"#utility.yul\":8558:8561   */\n      dup3\n        /* \"#utility.yul\":8554:8566   */\n      add\n        /* \"#utility.yul\":8547:8566   */\n      swap1\n      pop\n        /* \"#utility.yul\":8206:8572   */\n      swap2\n      swap1\n      pop\n      jump\t// out\n        /* \"#utility.yul\":8578:8997   */\n    tag_69:\n        /* \"#utility.yul\":8744:8748   */\n      0x00\n        /* \"#utility.yul\":8782:8784   */\n      0x20\n        /* \"#utility.yul\":8771:8780   */\n      dup3\n        /* \"#utility.yul\":8767:8785   */\n      add\n        /* \"#utility.yul\":8759:8785   */\n      swap1\n      pop\n        /* \"#utility.yul\":8831:8840   */\n      dup2\n        /* \"#utility.yul\":8825:8829   */\n      dup2\n        /* \"#utility.yul\":8821:8841   */\n      sub\n        /* \"#utility.yul\":8817:8818   */\n      0x00\n        /* \"#utility.yul\":8806:8815   */\n      dup4\n        /* \"#utility.yul\":8802:8819   */\n      add\n        /* \"#utility.yul\":8795:8842   */\n      mstore\n        /* \"#utility.yul\":8859:8990   */\n      tag_272\n        /* \"#utility.yul\":8985:8989   */\n      dup2\n        /* \"#utility.yul\":8859:8990   */\n      tag_159\n      jump\t// in\n    tag_272:\n        /* \"#utility.yul\":8851:8990   */\n      swap1\n      pop\n        /* \"#utility.yul\":8578:8997   */\n      swap2\n      swap1\n      pop\n      jump\t// out\n        /* \"#utility.yul\":9003:9163   */\n    tag_160:\n        /* \"#utility.yul\":9143:9155   */\n      0x5573657220657869737400000000000000000000000000000000000000000000\n        /* \"#utility.yul\":9139:9140   */\n      0x00\n        /* \"#utility.yul\":9131:9137   */\n      dup3\n        /* \"#utility.yul\":9127:9141   */\n      add\n        /* \"#utility.yul\":9120:9156   */\n      mstore\n        /* \"#utility.yul\":9003:9163   */\n      pop\n      jump\t// out\n        /* \"#utility.yul\":9169:9535   */\n    tag_161:\n        /* \"#utility.yul\":9311:9314   */\n      0x00\n        /* \"#utility.yul\":9332:9399   */\n      tag_275\n        /* \"#utility.yul\":9396:9398   */\n      0x0a\n        /* \"#utility.yul\":9391:9394   */\n      dup4\n        /* \"#utility.yul\":9332:9399   */\n      tag_157\n      jump\t// in\n    tag_275:\n        /* \"#utility.yul\":9325:9399   */\n      swap2\n      pop\n        /* \"#utility.yul\":9408:9501   */\n      tag_276\n        /* \"#utility.yul\":9497:9500   */\n      dup3\n        /* \"#utility.yul\":9408:9501   */\n      tag_160\n      jump\t// in\n    tag_276:\n        /* \"#utility.yul\":9526:9528   */\n      0x20\n        /* \"#utility.yul\":9521:9524   */\n      dup3\n        /* \"#utility.yul\":9517:9529   */\n      add\n        /* \"#utility.yul\":9510:9529   */\n      swap1\n      pop\n        /* \"#utility.yul\":9169:9535   */\n      swap2\n      swap1\n      pop\n      jump\t// out\n        /* \"#utility.yul\":9541:9960   */\n    tag_73:\n        /* \"#utility.yul\":9707:9711   */\n      0x00\n        /* \"#utility.yul\":9745:9747   */\n      0x20\n        /* \"#utility.yul\":9734:9743   */\n      dup3\n        /* \"#utility.yul\":9730:9748   */\n      add\n        /* \"#utility.yul\":9722:9748   */\n      swap1\n      pop\n        /* \"#utility.yul\":9794:9803   */\n      dup2\n        /* \"#utility.yul\":9788:9792   */\n      dup2\n        /* \"#utility.yul\":9784:9804   */\n      sub\n        /* \"#utility.yul\":9780:9781   */\n      0x00\n        /* \"#utility.yul\":9769:9778   */\n      dup4\n        /* \"#utility.yul\":9765:9782   */\n      add\n        /* \"#utility.yul\":9758:9805   */\n      mstore\n        /* \"#utility.yul\":9822:9953   */\n      tag_278\n        /* \"#utility.yul\":9948:9952   */\n      dup2\n        /* \"#utility.yul\":9822:9953   */\n      tag_161\n      jump\t// in\n    tag_278:\n        /* \"#utility.yul\":9814:9953   */\n      swap1\n      pop\n        /* \"#utility.yul\":9541:9960   */\n      swap2\n      swap1\n      pop\n      jump\t// out\n        /* \"#utility.yul\":9966:10137   */\n    tag_162:\n        /* \"#utility.yul\":10106:10129   */\n      0x4e6f7420616e20656c696769626c652075736572210000000000000000000000\n        /* \"#utility.yul\":10102:10103   */\n      0x00\n        /* \"#utility.yul\":10094:10100   */\n      dup3\n        /* \"#utility.yul\":10090:10104   */\n      add\n        /* \"#utility.yul\":10083:10130   */\n      mstore\n        /* \"#utility.yul\":9966:10137   */\n      pop\n      jump\t// out\n        /* \"#utility.yul\":10143:10509   */\n    tag_163:\n        /* \"#utility.yul\":10285:10288   */\n      0x00\n        /* \"#utility.yul\":10306:10373   */\n      tag_281\n        /* \"#utility.yul\":10370:10372   */\n      0x15\n        /* \"#utility.yul\":10365:10368   */\n      dup4\n        /* \"#utility.yul\":10306:10373   */\n      tag_157\n      jump\t// in\n    tag_281:\n        /* \"#utility.yul\":10299:10373   */\n      swap2\n      pop\n        /* \"#utility.yul\":10382:10475   */\n      tag_282\n        /* \"#utility.yul\":10471:10474   */\n      dup3\n        /* \"#utility.yul\":10382:10475   */\n      tag_162\n      jump\t// in\n    tag_282:\n        /* \"#utility.yul\":10500:10502   */\n      0x20\n        /* \"#utility.yul\":10495:10498   */\n      dup3\n        /* \"#utility.yul\":10491:10503   */\n      add\n        /* \"#utility.yul\":10484:10503   */\n      swap1\n      pop\n        /* \"#utility.yul\":10143:10509   */\n      swap2\n      swap1\n      pop\n      jump\t// out\n        /* \"#utility.yul\":10515:10934   */\n    tag_98:\n        /* \"#utility.yul\":10681:10685   */\n      0x00\n        /* \"#utility.yul\":10719:10721   */\n      0x20\n        /* \"#utility.yul\":10708:10717   */\n      dup3\n        /* \"#utility.yul\":10704:10722   */\n      add\n        /* \"#utility.yul\":10696:10722   */\n      swap1\n      pop\n        /* \"#utility.yul\":10768:10777   */\n      dup2\n        /* \"#utility.yul\":10762:10766   */\n      dup2\n        /* \"#utility.yul\":10758:10778   */\n      sub\n        /* \"#utility.yul\":10754:10755   */\n      0x00\n        /* \"#utility.yul\":10743:10752   */\n      dup4\n        /* \"#utility.yul\":10739:10756   */\n      add\n        /* \"#utility.yul\":10732:10779   */\n      mstore\n        /* \"#utility.yul\":10796:10927   */\n      tag_284\n        /* \"#utility.yul\":10922:10926   */\n      dup2\n        /* \"#utility.yul\":10796:10927   */\n      tag_163\n      jump\t// in\n    tag_284:\n        /* \"#utility.yul\":10788:10927   */\n      swap1\n      pop\n        /* \"#utility.yul\":10515:10934   */\n      swap2\n      swap1\n      pop\n      jump\t// out\n        /* \"#utility.yul\":10940:11131   */\n    tag_100:\n        /* \"#utility.yul\":10980:10983   */\n      0x00\n        /* \"#utility.yul\":10999:11019   */\n      tag_286\n        /* \"#utility.yul\":11017:11018   */\n      dup3\n        /* \"#utility.yul\":10999:11019   */\n      tag_144\n      jump\t// in\n    tag_286:\n        /* \"#utility.yul\":10994:11019   */\n      swap2\n      pop\n        /* \"#utility.yul\":11033:11053   */\n      tag_287\n        /* \"#utility.yul\":11051:11052   */\n      dup4\n        /* \"#utility.yul\":11033:11053   */\n      tag_144\n      jump\t// in\n    tag_287:\n        /* \"#utility.yul\":11028:11053   */\n      swap3\n      pop\n        /* \"#utility.yul\":11076:11077   */\n      dup3\n        /* \"#utility.yul\":11073:11074   */\n      dup3\n        /* \"#utility.yul\":11069:11078   */\n      add\n        /* \"#utility.yul\":11062:11078   */\n      swap1\n      pop\n        /* \"#utility.yul\":11097:11100   */\n      dup1\n        /* \"#utility.yul\":11094:11095   */\n      dup3\n        /* \"#utility.yul\":11091:11101   */\n      gt\n        /* \"#utility.yul\":11088:11124   */\n      iszero\n      tag_288\n      jumpi\n        /* \"#utility.yul\":11104:11122   */\n      tag_289\n      tag_155\n      jump\t// in\n    tag_289:\n        /* \"#utility.yul\":11088:11124   */\n    tag_288:\n        /* \"#utility.yul\":10940:11131   */\n      swap3\n      swap2\n      pop\n      pop\n      jump\t// out\n        /* \"#utility.yul\":11137:11307   */\n    tag_164:\n        /* \"#utility.yul\":11277:11299   */\n      0x636c61696d6d2061667465722035206d696e7321000000000000000000000000\n        /* \"#utility.yul\":11273:11274   */\n      0x00\n        /* \"#utility.yul\":11265:11271   */\n      dup3\n        /* \"#utility.yul\":11261:11275   */\n      add\n        /* \"#utility.yul\":11254:11300   */\n      mstore\n        /* \"#utility.yul\":11137:11307   */\n      pop\n      jump\t// out\n        /* \"#utility.yul\":11313:11679   */\n    tag_165:\n        /* \"#utility.yul\":11455:11458   */\n      0x00\n        /* \"#utility.yul\":11476:11543   */\n      tag_292\n        /* \"#utility.yul\":11540:11542   */\n      0x14\n        /* \"#utility.yul\":11535:11538   */\n      dup4\n        /* \"#utility.yul\":11476:11543   */\n      tag_157\n      jump\t// in\n    tag_292:\n        /* \"#utility.yul\":11469:11543   */\n      swap2\n      pop\n        /* \"#utility.yul\":11552:11645   */\n      tag_293\n        /* \"#utility.yul\":11641:11644   */\n      dup3\n        /* \"#utility.yul\":11552:11645   */\n      tag_164\n      jump\t// in\n    tag_293:\n        /* \"#utility.yul\":11670:11672   */\n      0x20\n        /* \"#utility.yul\":11665:11668   */\n      dup3\n        /* \"#utility.yul\":11661:11673   */\n      add\n        /* \"#utility.yul\":11654:11673   */\n      swap1\n      pop\n        /* \"#utility.yul\":11313:11679   */\n      swap2\n      swap1\n      pop\n      jump\t// out\n        /* \"#utility.yul\":11685:12104   */\n    tag_104:\n        /* \"#utility.yul\":11851:11855   */\n      0x00\n        /* \"#utility.yul\":11889:11891   */\n      0x20\n        /* \"#utility.yul\":11878:11887   */\n      dup3\n        /* \"#utility.yul\":11874:11892   */\n      add\n        /* \"#utility.yul\":11866:11892   */\n      swap1\n      pop\n        /* \"#utility.yul\":11938:11947   */\n      dup2\n        /* \"#utility.yul\":11932:11936   */\n      dup2\n        /* \"#utility.yul\":11928:11948   */\n      sub\n        /* \"#utility.yul\":11924:11925   */\n      0x00\n        /* \"#utility.yul\":11913:11922   */\n      dup4\n        /* \"#utility.yul\":11909:11926   */\n      add\n        /* \"#utility.yul\":11902:11949   */\n      mstore\n        /* \"#utility.yul\":11966:12097   */\n      tag_295\n        /* \"#utility.yul\":12092:12096   */\n      dup2\n        /* \"#utility.yul\":11966:12097   */\n      tag_165\n      jump\t// in\n    tag_295:\n        /* \"#utility.yul\":11958:12097   */\n      swap1\n      pop\n        /* \"#utility.yul\":11685:12104   */\n      swap2\n      swap1\n      pop\n      jump\t// out\n        /* \"#utility.yul\":12110:12273   */\n    tag_166:\n        /* \"#utility.yul\":12250:12265   */\n      0x4f6e636520706572207765656b00000000000000000000000000000000000000\n        /* \"#utility.yul\":12246:12247   */\n      0x00\n        /* \"#utility.yul\":12238:12244   */\n      dup3\n        /* \"#utility.yul\":12234:12248   */\n      add\n        /* \"#utility.yul\":12227:12266   */\n      mstore\n        /* \"#utility.yul\":12110:12273   */\n      pop\n      jump\t// out\n        /* \"#utility.yul\":12279:12645   */\n    tag_167:\n        /* \"#utility.yul\":12421:12424   */\n      0x00\n        /* \"#utility.yul\":12442:12509   */\n      tag_298\n        /* \"#utility.yul\":12506:12508   */\n      0x0d\n        /* \"#utility.yul\":12501:12504   */\n      dup4\n        /* \"#utility.yul\":12442:12509   */\n      tag_157\n      jump\t// in\n    tag_298:\n        /* \"#utility.yul\":12435:12509   */\n      swap2\n      pop\n        /* \"#utility.yul\":12518:12611   */\n      tag_299\n        /* \"#utility.yul\":12607:12610   */\n      dup3\n        /* \"#utility.yul\":12518:12611   */\n      tag_166\n      jump\t// in\n    tag_299:\n        /* \"#utility.yul\":12636:12638   */\n      0x20\n        /* \"#utility.yul\":12631:12634   */\n      dup3\n        /* \"#utility.yul\":12627:12639   */\n      add\n        /* \"#utility.yul\":12620:12639   */\n      swap1\n      pop\n        /* \"#utility.yul\":12279:12645   */\n      swap2\n      swap1\n      pop\n      jump\t// out\n        /* \"#utility.yul\":12651:13070   */\n    tag_114:\n        /* \"#utility.yul\":12817:12821   */\n      0x00\n        /* \"#utility.yul\":12855:12857   */\n      0x20\n        /* \"#utility.yul\":12844:12853   */\n      dup3\n        /* \"#utility.yul\":12840:12858   */\n      add\n        /* \"#utility.yul\":12832:12858   */\n      swap1\n      pop\n        /* \"#utility.yul\":12904:12913   */\n      dup2\n        /* \"#utility.yul\":12898:12902   */\n      dup2\n        /* \"#utility.yul\":12894:12914   */\n      sub\n        /* \"#utility.yul\":12890:12891   */\n      0x00\n        /* \"#utility.yul\":12879:12888   */\n      dup4\n        /* \"#utility.yul\":12875:12892   */\n      add\n        /* \"#utility.yul\":12868:12915   */\n      mstore\n        /* \"#utility.yul\":12932:13063   */\n      tag_301\n        /* \"#utility.yul\":13058:13062   */\n      dup2\n        /* \"#utility.yul\":12932:13063   */\n      tag_167\n      jump\t// in\n    tag_301:\n        /* \"#utility.yul\":12924:13063   */\n      swap1\n      pop\n        /* \"#utility.yul\":12651:13070   */\n      swap2\n      swap1\n      pop\n      jump\t// out\n        /* \"#utility.yul\":13076:13194   */\n    tag_168:\n        /* \"#utility.yul\":13163:13187   */\n      tag_303\n        /* \"#utility.yul\":13181:13186   */\n      dup2\n        /* \"#utility.yul\":13163:13187   */\n      tag_134\n      jump\t// in\n    tag_303:\n        /* \"#utility.yul\":13158:13161   */\n      dup3\n        /* \"#utility.yul\":13151:13188   */\n      mstore\n        /* \"#utility.yul\":13076:13194   */\n      pop\n      pop\n      jump\t// out\n        /* \"#utility.yul\":13200:13422   */\n    tag_116:\n        /* \"#utility.yul\":13293:13297   */\n      0x00\n        /* \"#utility.yul\":13331:13333   */\n      0x20\n        /* \"#utility.yul\":13320:13329   */\n      dup3\n        /* \"#utility.yul\":13316:13334   */\n      add\n        /* \"#utility.yul\":13308:13334   */\n      swap1\n      pop\n        /* \"#utility.yul\":13344:13415   */\n      tag_305\n        /* \"#utility.yul\":13412:13413   */\n      0x00\n        /* \"#utility.yul\":13401:13410   */\n      dup4\n        /* \"#utility.yul\":13397:13414   */\n      add\n        /* \"#utility.yul\":13388:13394   */\n      dup5\n        /* \"#utility.yul\":13344:13415   */\n      tag_168\n      jump\t// in\n    tag_305:\n        /* \"#utility.yul\":13200:13422   */\n      swap3\n      swap2\n      pop\n      pop\n      jump\t// out\n        /* \"#utility.yul\":13428:13550   */\n    tag_169:\n        /* \"#utility.yul\":13501:13525   */\n      tag_307\n        /* \"#utility.yul\":13519:13524   */\n      dup2\n        /* \"#utility.yul\":13501:13525   */\n      tag_144\n      jump\t// in\n    tag_307:\n        /* \"#utility.yul\":13494:13499   */\n      dup2\n        /* \"#utility.yul\":13491:13526   */\n      eq\n        /* \"#utility.yul\":13481:13544   */\n      tag_308\n      jumpi\n        /* \"#utility.yul\":13540:13541   */\n      0x00\n        /* \"#utility.yul\":13537:13538   */\n      dup1\n        /* \"#utility.yul\":13530:13542   */\n      revert\n        /* \"#utility.yul\":13481:13544   */\n    tag_308:\n        /* \"#utility.yul\":13428:13550   */\n      pop\n      jump\t// out\n        /* \"#utility.yul\":13556:13699   */\n    tag_170:\n        /* \"#utility.yul\":13613:13618   */\n      0x00\n        /* \"#utility.yul\":13644:13650   */\n      dup2\n        /* \"#utility.yul\":13638:13651   */\n      mload\n        /* \"#utility.yul\":13629:13651   */\n      swap1\n      pop\n        /* \"#utility.yul\":13660:13693   */\n      tag_310\n        /* \"#utility.yul\":13687:13692   */\n      dup2\n        /* \"#utility.yul\":13660:13693   */\n      tag_169\n      jump\t// in\n    tag_310:\n        /* \"#utility.yul\":13556:13699   */\n      swap3\n      swap2\n      pop\n      pop\n      jump\t// out\n        /* \"#utility.yul\":13705:14056   */\n    tag_120:\n        /* \"#utility.yul\":13775:13781   */\n      0x00\n        /* \"#utility.yul\":13824:13826   */\n      0x20\n        /* \"#utility.yul\":13812:13821   */\n      dup3\n        /* \"#utility.yul\":13803:13810   */\n      dup5\n        /* \"#utility.yul\":13799:13822   */\n      sub\n        /* \"#utility.yul\":13795:13827   */\n      slt\n        /* \"#utility.yul\":13792:13911   */\n      iszero\n      tag_312\n      jumpi\n        /* \"#utility.yul\":13830:13909   */\n      tag_313\n      tag_131\n      jump\t// in\n    tag_313:\n        /* \"#utility.yul\":13792:13911   */\n    tag_312:\n        /* \"#utility.yul\":13950:13951   */\n      0x00\n        /* \"#utility.yul\":13975:14039   */\n      tag_314\n        /* \"#utility.yul\":14031:14038   */\n      dup5\n        /* \"#utility.yul\":14022:14028   */\n      dup3\n        /* \"#utility.yul\":14011:14020   */\n      dup6\n        /* \"#utility.yul\":14007:14029   */\n      add\n        /* \"#utility.yul\":13975:14039   */\n      tag_170\n      jump\t// in\n    tag_314:\n        /* \"#utility.yul\":13965:14039   */\n      swap2\n      pop\n        /* \"#utility.yul\":13921:14049   */\n      pop\n        /* \"#utility.yul\":13705:14056   */\n      swap3\n      swap2\n      pop\n      pop\n      jump\t// out\n        /* \"#utility.yul\":14062:14242   */\n    tag_171:\n        /* \"#utility.yul\":14110:14187   */\n      0x4e487b7100000000000000000000000000000000000000000000000000000000\n        /* \"#utility.yul\":14107:14108   */\n      0x00\n        /* \"#utility.yul\":14100:14188   */\n      mstore\n        /* \"#utility.yul\":14207:14211   */\n      0x12\n        /* \"#utility.yul\":14204:14205   */\n      0x04\n        /* \"#utility.yul\":14197:14212   */\n      mstore\n        /* \"#utility.yul\":14231:14235   */\n      0x24\n        /* \"#utility.yul\":14228:14229   */\n      0x00\n        /* \"#utility.yul\":14221:14236   */\n      revert\n        /* \"#utility.yul\":14248:14433   */\n    tag_123:\n        /* \"#utility.yul\":14288:14289   */\n      0x00\n        /* \"#utility.yul\":14305:14325   */\n      tag_317\n        /* \"#utility.yul\":14323:14324   */\n      dup3\n        /* \"#utility.yul\":14305:14325   */\n      tag_144\n      jump\t// in\n    tag_317:\n        /* \"#utility.yul\":14300:14325   */\n      swap2\n      pop\n        /* \"#utility.yul\":14339:14359   */\n      tag_318\n        /* \"#utility.yul\":14357:14358   */\n      dup4\n        /* \"#utility.yul\":14339:14359   */\n      tag_144\n      jump\t// in\n    tag_318:\n        /* \"#utility.yul\":14334:14359   */\n      swap3\n      pop\n        /* \"#utility.yul\":14378:14379   */\n      dup3\n        /* \"#utility.yul\":14368:14403   */\n      tag_319\n      jumpi\n        /* \"#utility.yul\":14383:14401   */\n      tag_320\n      tag_171\n      jump\t// in\n    tag_320:\n        /* \"#utility.yul\":14368:14403   */\n    tag_319:\n        /* \"#utility.yul\":14425:14426   */\n      dup3\n        /* \"#utility.yul\":14422:14423   */\n      dup3\n        /* \"#utility.yul\":14418:14427   */\n      div\n        /* \"#utility.yul\":14413:14427   */\n      swap1\n      pop\n        /* \"#utility.yul\":14248:14433   */\n      swap3\n      swap2\n      pop\n      pop\n      jump\t// out\n        /* \"#utility.yul\":14439:14771   */\n    tag_125:\n        /* \"#utility.yul\":14560:14564   */\n      0x00\n        /* \"#utility.yul\":14598:14600   */\n      0x40\n        /* \"#utility.yul\":14587:14596   */\n      dup3\n        /* \"#utility.yul\":14583:14601   */\n      add\n        /* \"#utility.yul\":14575:14601   */\n      swap1\n      pop\n        /* \"#utility.yul\":14611:14682   */\n      tag_322\n        /* \"#utility.yul\":14679:14680   */\n      0x00\n        /* \"#utility.yul\":14668:14677   */\n      dup4\n        /* \"#utility.yul\":14664:14681   */\n      add\n        /* \"#utility.yul\":14655:14661   */\n      dup6\n        /* \"#utility.yul\":14611:14682   */\n      tag_168\n      jump\t// in\n    tag_322:\n        /* \"#utility.yul\":14692:14764   */\n      tag_323\n        /* \"#utility.yul\":14760:14762   */\n      0x20\n        /* \"#utility.yul\":14749:14758   */\n      dup4\n        /* \"#utility.yul\":14745:14763   */\n      add\n        /* \"#utility.yul\":14736:14742   */\n      dup5\n        /* \"#utility.yul\":14692:14764   */\n      tag_145\n      jump\t// in\n    tag_323:\n        /* \"#utility.yul\":14439:14771   */\n      swap4\n      swap3\n      pop\n      pop\n      pop\n      jump\t// out\n        /* \"#utility.yul\":14777:14867   */\n    tag_172:\n        /* \"#utility.yul\":14811:14818   */\n      0x00\n        /* \"#utility.yul\":14854:14859   */\n      dup2\n        /* \"#utility.yul\":14847:14860   */\n      iszero\n        /* \"#utility.yul\":14840:14861   */\n      iszero\n        /* \"#utility.yul\":14829:14861   */\n      swap1\n      pop\n        /* \"#utility.yul\":14777:14867   */\n      swap2\n      swap1\n      pop\n      jump\t// out\n        /* \"#utility.yul\":14873:14989   */\n    tag_173:\n        /* \"#utility.yul\":14943:14964   */\n      tag_326\n        /* \"#utility.yul\":14958:14963   */\n      dup2\n        /* \"#utility.yul\":14943:14964   */\n      tag_172\n      jump\t// in\n    tag_326:\n        /* \"#utility.yul\":14936:14941   */\n      dup2\n        /* \"#utility.yul\":14933:14965   */\n      eq\n        /* \"#utility.yul\":14923:14983   */\n      tag_327\n      jumpi\n        /* \"#utility.yul\":14979:14980   */\n      0x00\n        /* \"#utility.yul\":14976:14977   */\n      dup1\n        /* \"#utility.yul\":14969:14981   */\n      revert\n        /* \"#utility.yul\":14923:14983   */\n    tag_327:\n        /* \"#utility.yul\":14873:14989   */\n      pop\n      jump\t// out\n        /* \"#utility.yul\":14995:15132   */\n    tag_174:\n        /* \"#utility.yul\":15049:15054   */\n      0x00\n        /* \"#utility.yul\":15080:15086   */\n      dup2\n        /* \"#utility.yul\":15074:15087   */\n      mload\n        /* \"#utility.yul\":15065:15087   */\n      swap1\n      pop\n        /* \"#utility.yul\":15096:15126   */\n      tag_329\n        /* \"#utility.yul\":15120:15125   */\n      dup2\n        /* \"#utility.yul\":15096:15126   */\n      tag_173\n      jump\t// in\n    tag_329:\n        /* \"#utility.yul\":14995:15132   */\n      swap3\n      swap2\n      pop\n      pop\n      jump\t// out\n        /* \"#utility.yul\":15138:15483   */\n    tag_129:\n        /* \"#utility.yul\":15205:15211   */\n      0x00\n        /* \"#utility.yul\":15254:15256   */\n      0x20\n        /* \"#utility.yul\":15242:15251   */\n      dup3\n        /* \"#utility.yul\":15233:15240   */\n      dup5\n        /* \"#utility.yul\":15229:15252   */\n      sub\n        /* \"#utility.yul\":15225:15257   */\n      slt\n        /* \"#utility.yul\":15222:15341   */\n      iszero\n      tag_331\n      jumpi\n        /* \"#utility.yul\":15260:15339   */\n      tag_332\n      tag_131\n      jump\t// in\n    tag_332:\n        /* \"#utility.yul\":15222:15341   */\n    tag_331:\n        /* \"#utility.yul\":15380:15381   */\n      0x00\n        /* \"#utility.yul\":15405:15466   */\n      tag_333\n        /* \"#utility.yul\":15458:15465   */\n      dup5\n        /* \"#utility.yul\":15449:15455   */\n      dup3\n        /* \"#utility.yul\":15438:15447   */\n      dup6\n        /* \"#utility.yul\":15434:15456   */\n      add\n        /* \"#utility.yul\":15405:15466   */\n      tag_174\n      jump\t// in\n    tag_333:\n        /* \"#utility.yul\":15395:15466   */\n      swap2\n      pop\n        /* \"#utility.yul\":15351:15476   */\n      pop\n        /* \"#utility.yul\":15138:15483   */\n      swap3\n      swap2\n      pop\n      pop\n      jump\t// out\n\n    auxdata: 0xa2646970667358221220046fb6db5fb186af8e113369826ce9f2e40d9c061a6b1508a6d7a09a2ce39f5664736f6c634300081a0033\n}\n",
				"bytecode": {
					"linkReferences": {},
					"object": "60c0604052605a5f553480156012575f80fd5b50735b38da6a701c568545dcfcb03fcb875f56beddc473ffffffffffffffffffffffffffffffffffffffff1660808173ffffffffffffffffffffffffffffffffffffffff1681525050625c490060a0818152505060805160a0516114b361008b5f395f50505f818161037601526105fa01526114b35ff3fe608060405234801561000f575f80fd5b506004361061007b575f3560e01c8063b70cbe3511610059578063b70cbe35146100d5578063b7f7e6f014610105578063c8804c7114610121578063f33cf57b1461013f5761007b565b80635e0ca3b91461007f5780637a6d918e1461009b5780637eca453d146100b7575b5f80fd5b61009960048036038101906100949190610cbc565b61015d565b005b6100b560048036038101906100b09190610cbc565b61035d565b005b6100bf610510565b6040516100cc9190610d9e565b60405180910390f35b6100ef60048036038101906100ea9190610cbc565b61059b565b6040516100fc9190610dd6565b60405180910390f35b61011f600480360381019061011a9190610f3f565b6105e1565b005b6101296107d6565b6040516101369190610dd6565b60405180910390f35b61014761093c565b6040516101549190610dd6565b60405180910390f35b5f60028054905090505f5b818161ffff161015610318578273ffffffffffffffffffffffffffffffffffffffff1660028261ffff16815481106101a3576101a2610f86565b5b905f5260205f20015f9054906101000a900473ffffffffffffffffffffffffffffffffffffffff1673ffffffffffffffffffffffffffffffffffffffff1603610305575f8190505b6001836101f89190610fe0565b8161ffff1610156102bf5760026001826102129190611020565b61ffff168154811061022757610226610f86565b5b905f5260205f20015f9054906101000a900473ffffffffffffffffffffffffffffffffffffffff1660028261ffff168154811061026757610266610f86565b5b905f5260205f20015f6101000a81548173ffffffffffffffffffffffffffffffffffffffff021916908373ffffffffffffffffffffffffffffffffffffffff16021790555080806102b790611055565b9150506101eb565b5060028054806102d2576102d161107e565b5b600190038181905f5260205f20015f6101000a81549073ffffffffffffffffffffffffffffffffffffffff021916905590555b808061031090611055565b915050610168565b5060015f8373ffffffffffffffffffffffffffffffffffffffff1673ffffffffffffffffffffffffffffffffffffffff1681526020019081526020015f205f90555050565b3373ffffffffffffffffffffffffffffffffffffffff167f000000000000000000000000000000000000000000000000000000000000000073ffffffffffffffffffffffffffffffffffffffff16146103eb576040517f08c379a00000000000000000000000000000000000000000000000000000000081526004016103e29061112b565b60405180910390fd5b5f60015f8373ffffffffffffffffffffffffffffffffffffffff1673ffffffffffffffffffffffffffffffffffffffff1681526020019081526020015f2054111561046b576040517f0e64c65800000000000000000000000000000000000000000000000000000000815260040161046290611193565b60405180910390fd5b6001805f8373ffffffffffffffffffffffffffffffffffffffff1673ffffffffffffffffffffffffffffffffffffffff1681526020019081526020015f2081905550600281908060018154018082558091505060019003905f5260205f20015f9091909190916101000a81548173ffffffffffffffffffffffffffffffffffffffff021916908373ffffffffffffffffffffffffffffffffffffffff16021790555050565b6060600280548060200260200160405190810160405280929190818152602001828054801561059157602002820191905f5260205f20905b815f9054906101000a900473ffffffffffffffffffffffffffffffffffffffff1673ffffffffffffffffffffffffffffffffffffffff1681526020019060010190808311610548575b5050505050905090565b5f60015f8373ffffffffffffffffffffffffffffffffffffffff1673ffffffffffffffffffffffffffffffffffffffff1681526020019081526020015f20549050919050565b3373ffffffffffffffffffffffffffffffffffffffff167f000000000000000000000000000000000000000000000000000000000000000073ffffffffffffffffffffffffffffffffffffffff161461066f576040517f08c379a00000000000000000000000000000000000000000000000000000000081526004016106669061112b565b60405180910390fd5b5f5b81518161ffff1610156107d2575f60015f848461ffff168151811061069957610698610f86565b5b602002602001015173ffffffffffffffffffffffffffffffffffffffff1673ffffffffffffffffffffffffffffffffffffffff1681526020019081526020015f2054116107bf576001805f848461ffff16815181106106fb576106fa610f86565b5b602002602001015173ffffffffffffffffffffffffffffffffffffffff1673ffffffffffffffffffffffffffffffffffffffff1681526020019081526020015f20819055506002828261ffff168151811061075957610758610f86565b5b6020026020010151908060018154018082558091505060019003905f5260205f20015f9091909190916101000a81548173ffffffffffffffffffffffffffffffffffffffff021916908373ffffffffffffffffffffffffffffffffffffffff1602179055505b80806107ca90611055565b915050610671565b5050565b5f8060015f3373ffffffffffffffffffffffffffffffffffffffff1673ffffffffffffffffffffffffffffffffffffffff1681526020019081526020015f205403610856576040517f066badb300000000000000000000000000000000000000000000000000000000815260040161084d906111fb565b60405180910390fd5b5f600161012c60015f3373ffffffffffffffffffffffffffffffffffffffff1673ffffffffffffffffffffffffffffffffffffffff1681526020019081526020015f20546108a49190611219565b6108ae9190610fe0565b9050804210156108f3576040517f08c379a00000000000000000000000000000000000000000000000000000000081526004016108ea90611296565b60405180910390fd5b4260015f3373ffffffffffffffffffffffffffffffffffffffff1673ffffffffffffffffffffffffffffffffffffffff1681526020019081526020015f20819055505f91505090565b5f805f60028054905090505f60015f3373ffffffffffffffffffffffffffffffffffffffff1673ffffffffffffffffffffffffffffffffffffffff1681526020019081526020015f2054036109c6576040517f066badb30000000000000000000000000000000000000000000000000000000081526004016109bd906111fb565b60405180910390fd5b6001805f3373ffffffffffffffffffffffffffffffffffffffff1673ffffffffffffffffffffffffffffffffffffffff1681526020019081526020015f205403610a6557600162093a8060015f3373ffffffffffffffffffffffffffffffffffffffff1673ffffffffffffffffffffffffffffffffffffffff1681526020019081526020015f2054610a589190611219565b610a629190610fe0565b91505b62093a8060015f3373ffffffffffffffffffffffffffffffffffffffff1673ffffffffffffffffffffffffffffffffffffffff1681526020019081526020015f2054610ab19190611219565b915081421015610af6576040517f08c379a0000000000000000000000000000000000000000000000000000000008152600401610aed906112fe565b60405180910390fd5b5f600373ffffffffffffffffffffffffffffffffffffffff166370a08231306040518263ffffffff1660e01b8152600401610b31919061132b565b602060405180830381865afa158015610b4c573d5f803e3d5ffd5b505050506040513d601f19601f82011682018060405250810190610b70919061136e565b11610b79575f80fd5b5f81600a610b8791906113c6565b9050600373ffffffffffffffffffffffffffffffffffffffff1663a9059cbb33836040518363ffffffff1660e01b8152600401610bc59291906113f6565b6020604051808303815f875af1158015610be1573d5f803e3d5ffd5b505050506040513d601f19601f82011682018060405250810190610c059190611452565b504260015f3373ffffffffffffffffffffffffffffffffffffffff1673ffffffffffffffffffffffffffffffffffffffff1681526020019081526020015f20819055505f935050505090565b5f604051905090565b5f80fd5b5f80fd5b5f73ffffffffffffffffffffffffffffffffffffffff82169050919050565b5f610c8b82610c62565b9050919050565b610c9b81610c81565b8114610ca5575f80fd5b50565b5f81359050610cb681610c92565b92915050565b5f60208284031215610cd157610cd0610c5a565b5b5f610cde84828501610ca8565b91505092915050565b5f81519050919050565b5f82825260208201905092915050565b5f819050602082019050919050565b610d1981610c81565b82525050565b5f610d2a8383610d10565b60208301905092915050565b5f602082019050919050565b5f610d4c82610ce7565b610d568185610cf1565b9350610d6183610d01565b805f5b83811015610d91578151610d788882610d1f565b9750610d8383610d36565b925050600181019050610d64565b5085935050505092915050565b5f6020820190508181035f830152610db68184610d42565b905092915050565b5f819050919050565b610dd081610dbe565b82525050565b5f602082019050610de95f830184610dc7565b92915050565b5f80fd5b5f601f19601f8301169050919050565b7f4e487b71000000000000000000000000000000000000000000000000000000005f52604160045260245ffd5b610e3982610df3565b810181811067ffffffffffffffff82111715610e5857610e57610e03565b5b80604052505050565b5f610e6a610c51565b9050610e768282610e30565b919050565b5f67ffffffffffffffff821115610e9557610e94610e03565b5b602082029050602081019050919050565b5f80fd5b5f610ebc610eb784610e7b565b610e61565b90508083825260208201905060208402830185811115610edf57610ede610ea6565b5b835b81811015610f085780610ef48882610ca8565b845260208401935050602081019050610ee1565b5050509392505050565b5f82601f830112610f2657610f25610def565b5b8135610f36848260208601610eaa565b91505092915050565b5f60208284031215610f5457610f53610c5a565b5b5f82013567ffffffffffffffff811115610f7157610f70610c5e565b5b610f7d84828501610f12565b91505092915050565b7f4e487b71000000000000000000000000000000000000000000000000000000005f52603260045260245ffd5b7f4e487b71000000000000000000000000000000000000000000000000000000005f52601160045260245ffd5b5f610fea82610dbe565b9150610ff583610dbe565b925082820390508181111561100d5761100c610fb3565b5b92915050565b5f61ffff82169050919050565b5f61102a82611013565b915061103583611013565b9250828201905061ffff81111561104f5761104e610fb3565b5b92915050565b5f61105f82611013565b915061ffff820361107357611072610fb3565b5b600182019050919050565b7f4e487b71000000000000000000000000000000000000000000000000000000005f52603160045260245ffd5b5f82825260208201905092915050565b7f6f6e6c792061646d696e2063616e20696e766f6b6520746869732066756e63745f8201527f696f6e0000000000000000000000000000000000000000000000000000000000602082015250565b5f6111156023836110ab565b9150611120826110bb565b604082019050919050565b5f6020820190508181035f83015261114281611109565b9050919050565b7f55736572206578697374000000000000000000000000000000000000000000005f82015250565b5f61117d600a836110ab565b915061118882611149565b602082019050919050565b5f6020820190508181035f8301526111aa81611171565b9050919050565b7f4e6f7420616e20656c696769626c6520757365722100000000000000000000005f82015250565b5f6111e56015836110ab565b91506111f0826111b1565b602082019050919050565b5f6020820190508181035f830152611212816111d9565b9050919050565b5f61122382610dbe565b915061122e83610dbe565b925082820190508082111561124657611245610fb3565b5b92915050565b7f636c61696d6d2061667465722035206d696e73210000000000000000000000005f82015250565b5f6112806014836110ab565b915061128b8261124c565b602082019050919050565b5f6020820190508181035f8301526112ad81611274565b9050919050565b7f4f6e636520706572207765656b000000000000000000000000000000000000005f82015250565b5f6112e8600d836110ab565b91506112f3826112b4565b602082019050919050565b5f6020820190508181035f830152611315816112dc565b9050919050565b61132581610c81565b82525050565b5f60208201905061133e5f83018461131c565b92915050565b61134d81610dbe565b8114611357575f80fd5b50565b5f8151905061136881611344565b92915050565b5f6020828403121561138357611382610c5a565b5b5f6113908482850161135a565b91505092915050565b7f4e487b71000000000000000000000000000000000000000000000000000000005f52601260045260245ffd5b5f6113d082610dbe565b91506113db83610dbe565b9250826113eb576113ea611399565b5b828204905092915050565b5f6040820190506114095f83018561131c565b6114166020830184610dc7565b9392505050565b5f8115159050919050565b6114318161141d565b811461143b575f80fd5b50565b5f8151905061144c81611428565b92915050565b5f6020828403121561146757611466610c5a565b5b5f6114748482850161143e565b9150509291505056fea2646970667358221220046fb6db5fb186af8e113369826ce9f2e40d9c061a6b1508a6d7a09a2ce39f5664736f6c634300081a0033",
					"opcodes": "PUSH1 0xC0 PUSH1 0x40 MSTORE PUSH1 0x5A PUSH0 SSTORE CALLVALUE DUP1 ISZERO PUSH1 0x12 JUMPI PUSH0 DUP1 REVERT JUMPDEST POP PUSH20 0x5B38DA6A701C568545DCFCB03FCB875F56BEDDC4 PUSH20 0xFFFFFFFFFFFFFFFFFFFFFFFFFFFFFFFFFFFFFFFF AND PUSH1 0x80 DUP2 PUSH20 0xFFFFFFFFFFFFFFFFFFFFFFFFFFFFFFFFFFFFFFFF AND DUP2 MSTORE POP POP PUSH3 0x5C4900 PUSH1 0xA0 DUP2 DUP2 MSTORE POP POP PUSH1 0x80 MLOAD PUSH1 0xA0 MLOAD PUSH2 0x14B3 PUSH2 0x8B PUSH0 CODECOPY PUSH0 POP POP PUSH0 DUP2 DUP2 PUSH2 0x376 ADD MSTORE PUSH2 0x5FA ADD MSTORE PUSH2 0x14B3 PUSH0 RETURN INVALID PUSH1 0x80 PUSH1 0x40 MSTORE CALLVALUE DUP1 ISZERO PUSH2 0xF JUMPI PUSH0 DUP1 REVERT JUMPDEST POP PUSH1 0x4 CALLDATASIZE LT PUSH2 0x7B JUMPI PUSH0 CALLDATALOAD PUSH1 0xE0 SHR DUP1 PUSH4 0xB70CBE35 GT PUSH2 0x59 JUMPI DUP1 PUSH4 0xB70CBE35 EQ PUSH2 0xD5 JUMPI DUP1 PUSH4 0xB7F7E6F0 EQ PUSH2 0x105 JUMPI DUP1 PUSH4 0xC8804C71 EQ PUSH2 0x121 JUMPI DUP1 PUSH4 0xF33CF57B EQ PUSH2 0x13F JUMPI PUSH2 0x7B JUMP JUMPDEST DUP1 PUSH4 0x5E0CA3B9 EQ PUSH2 0x7F JUMPI DUP1 PUSH4 0x7A6D918E EQ PUSH2 0x9B JUMPI DUP1 PUSH4 0x7ECA453D EQ PUSH2 0xB7 JUMPI JUMPDEST PUSH0 DUP1 REVERT JUMPDEST PUSH2 0x99 PUSH1 0x4 DUP1 CALLDATASIZE SUB DUP2 ADD SWAP1 PUSH2 0x94 SWAP2 SWAP1 PUSH2 0xCBC JUMP JUMPDEST PUSH2 0x15D JUMP JUMPDEST STOP JUMPDEST PUSH2 0xB5 PUSH1 0x4 DUP1 CALLDATASIZE SUB DUP2 ADD SWAP1 PUSH2 0xB0 SWAP2 SWAP1 PUSH2 0xCBC JUMP JUMPDEST PUSH2 0x35D JUMP JUMPDEST STOP JUMPDEST PUSH2 0xBF PUSH2 0x510 JUMP JUMPDEST PUSH1 0x40 MLOAD PUSH2 0xCC SWAP2 SWAP1 PUSH2 0xD9E JUMP JUMPDEST PUSH1 0x40 MLOAD DUP1 SWAP2 SUB SWAP1 RETURN JUMPDEST PUSH2 0xEF PUSH1 0x4 DUP1 CALLDATASIZE SUB DUP2 ADD SWAP1 PUSH2 0xEA SWAP2 SWAP1 PUSH2 0xCBC JUMP JUMPDEST PUSH2 0x59B JUMP JUMPDEST PUSH1 0x40 MLOAD PUSH2 0xFC SWAP2 SWAP1 PUSH2 0xDD6 JUMP JUMPDEST PUSH1 0x40 MLOAD DUP1 SWAP2 SUB SWAP1 RETURN JUMPDEST PUSH2 0x11F PUSH1 0x4 DUP1 CALLDATASIZE SUB DUP2 ADD SWAP1 PUSH2 0x11A SWAP2 SWAP1 PUSH2 0xF3F JUMP JUMPDEST PUSH2 0x5E1 JUMP JUMPDEST STOP JUMPDEST PUSH2 0x129 PUSH2 0x7D6 JUMP JUMPDEST PUSH1 0x40 MLOAD PUSH2 0x136 SWAP2 SWAP1 PUSH2 0xDD6 JUMP JUMPDEST PUSH1 0x40 MLOAD DUP1 SWAP2 SUB SWAP1 RETURN JUMPDEST PUSH2 0x147 PUSH2 0x93C JUMP JUMPDEST PUSH1 0x40 MLOAD PUSH2 0x154 SWAP2 SWAP1 PUSH2 0xDD6 JUMP JUMPDEST PUSH1 0x40 MLOAD DUP1 SWAP2 SUB SWAP1 RETURN JUMPDEST PUSH0 PUSH1 0x2 DUP1 SLOAD SWAP1 POP SWAP1 POP PUSH0 JUMPDEST DUP2 DUP2 PUSH2 0xFFFF AND LT ISZERO PUSH2 0x318 JUMPI DUP3 PUSH20 0xFFFFFFFFFFFFFFFFFFFFFFFFFFFFFFFFFFFFFFFF AND PUSH1 0x2 DUP3 PUSH2 0xFFFF AND DUP2 SLOAD DUP2 LT PUSH2 0x1A3 JUMPI PUSH2 0x1A2 PUSH2 0xF86 JUMP JUMPDEST JUMPDEST SWAP1 PUSH0 MSTORE PUSH1 0x20 PUSH0 KECCAK256 ADD PUSH0 SWAP1 SLOAD SWAP1 PUSH2 0x100 EXP SWAP1 DIV PUSH20 0xFFFFFFFFFFFFFFFFFFFFFFFFFFFFFFFFFFFFFFFF AND PUSH20 0xFFFFFFFFFFFFFFFFFFFFFFFFFFFFFFFFFFFFFFFF AND SUB PUSH2 0x305 JUMPI PUSH0 DUP2 SWAP1 POP JUMPDEST PUSH1 0x1 DUP4 PUSH2 0x1F8 SWAP2 SWAP1 PUSH2 0xFE0 JUMP JUMPDEST DUP2 PUSH2 0xFFFF AND LT ISZERO PUSH2 0x2BF JUMPI PUSH1 0x2 PUSH1 0x1 DUP3 PUSH2 0x212 SWAP2 SWAP1 PUSH2 0x1020 JUMP JUMPDEST PUSH2 0xFFFF AND DUP2 SLOAD DUP2 LT PUSH2 0x227 JUMPI PUSH2 0x226 PUSH2 0xF86 JUMP JUMPDEST JUMPDEST SWAP1 PUSH0 MSTORE PUSH1 0x20 PUSH0 KECCAK256 ADD PUSH0 SWAP1 SLOAD SWAP1 PUSH2 0x100 EXP SWAP1 DIV PUSH20 0xFFFFFFFFFFFFFFFFFFFFFFFFFFFFFFFFFFFFFFFF AND PUSH1 0x2 DUP3 PUSH2 0xFFFF AND DUP2 SLOAD DUP2 LT PUSH2 0x267 JUMPI PUSH2 0x266 PUSH2 0xF86 JUMP JUMPDEST JUMPDEST SWAP1 PUSH0 MSTORE PUSH1 0x20 PUSH0 KECCAK256 ADD PUSH0 PUSH2 0x100 EXP DUP2 SLOAD DUP2 PUSH20 0xFFFFFFFFFFFFFFFFFFFFFFFFFFFFFFFFFFFFFFFF MUL NOT AND SWAP1 DUP4 PUSH20 0xFFFFFFFFFFFFFFFFFFFFFFFFFFFFFFFFFFFFFFFF AND MUL OR SWAP1 SSTORE POP DUP1 DUP1 PUSH2 0x2B7 SWAP1 PUSH2 0x1055 JUMP JUMPDEST SWAP2 POP POP PUSH2 0x1EB JUMP JUMPDEST POP PUSH1 0x2 DUP1 SLOAD DUP1 PUSH2 0x2D2 JUMPI PUSH2 0x2D1 PUSH2 0x107E JUMP JUMPDEST JUMPDEST PUSH1 0x1 SWAP1 SUB DUP2 DUP2 SWAP1 PUSH0 MSTORE PUSH1 0x20 PUSH0 KECCAK256 ADD PUSH0 PUSH2 0x100 EXP DUP2 SLOAD SWAP1 PUSH20 0xFFFFFFFFFFFFFFFFFFFFFFFFFFFFFFFFFFFFFFFF MUL NOT AND SWAP1 SSTORE SWAP1 SSTORE JUMPDEST DUP1 DUP1 PUSH2 0x310 SWAP1 PUSH2 0x1055 JUMP JUMPDEST SWAP2 POP POP PUSH2 0x168 JUMP JUMPDEST POP PUSH1 0x1 PUSH0 DUP4 PUSH20 0xFFFFFFFFFFFFFFFFFFFFFFFFFFFFFFFFFFFFFFFF AND PUSH20 0xFFFFFFFFFFFFFFFFFFFFFFFFFFFFFFFFFFFFFFFF AND DUP2 MSTORE PUSH1 0x20 ADD SWAP1 DUP2 MSTORE PUSH1 0x20 ADD PUSH0 KECCAK256 PUSH0 SWAP1 SSTORE POP POP JUMP JUMPDEST CALLER PUSH20 0xFFFFFFFFFFFFFFFFFFFFFFFFFFFFFFFFFFFFFFFF AND PUSH32 0x0 PUSH20 0xFFFFFFFFFFFFFFFFFFFFFFFFFFFFFFFFFFFFFFFF AND EQ PUSH2 0x3EB JUMPI PUSH1 0x40 MLOAD PUSH32 0x8C379A000000000000000000000000000000000000000000000000000000000 DUP2 MSTORE PUSH1 0x4 ADD PUSH2 0x3E2 SWAP1 PUSH2 0x112B JUMP JUMPDEST PUSH1 0x40 MLOAD DUP1 SWAP2 SUB SWAP1 REVERT JUMPDEST PUSH0 PUSH1 0x1 PUSH0 DUP4 PUSH20 0xFFFFFFFFFFFFFFFFFFFFFFFFFFFFFFFFFFFFFFFF AND PUSH20 0xFFFFFFFFFFFFFFFFFFFFFFFFFFFFFFFFFFFFFFFF AND DUP2 MSTORE PUSH1 0x20 ADD SWAP1 DUP2 MSTORE PUSH1 0x20 ADD PUSH0 KECCAK256 SLOAD GT ISZERO PUSH2 0x46B JUMPI PUSH1 0x40 MLOAD PUSH32 0xE64C65800000000000000000000000000000000000000000000000000000000 DUP2 MSTORE PUSH1 0x4 ADD PUSH2 0x462 SWAP1 PUSH2 0x1193 JUMP JUMPDEST PUSH1 0x40 MLOAD DUP1 SWAP2 SUB SWAP1 REVERT JUMPDEST PUSH1 0x1 DUP1 PUSH0 DUP4 PUSH20 0xFFFFFFFFFFFFFFFFFFFFFFFFFFFFFFFFFFFFFFFF AND PUSH20 0xFFFFFFFFFFFFFFFFFFFFFFFFFFFFFFFFFFFFFFFF AND DUP2 MSTORE PUSH1 0x20 ADD SWAP1 DUP2 MSTORE PUSH1 0x20 ADD PUSH0 KECCAK256 DUP2 SWAP1 SSTORE POP PUSH1 0x2 DUP2 SWAP1 DUP1 PUSH1 0x1 DUP2 SLOAD ADD DUP1 DUP3 SSTORE DUP1 SWAP2 POP POP PUSH1 0x1 SWAP1 SUB SWAP1 PUSH0 MSTORE PUSH1 0x20 PUSH0 KECCAK256 ADD PUSH0 SWAP1 SWAP2 SWAP1 SWAP2 SWAP1 SWAP2 PUSH2 0x100 EXP DUP2 SLOAD DUP2 PUSH20 0xFFFFFFFFFFFFFFFFFFFFFFFFFFFFFFFFFFFFFFFF MUL NOT AND SWAP1 DUP4 PUSH20 0xFFFFFFFFFFFFFFFFFFFFFFFFFFFFFFFFFFFFFFFF AND MUL OR SWAP1 SSTORE POP POP JUMP JUMPDEST PUSH1 0x60 PUSH1 0x2 DUP1 SLOAD DUP1 PUSH1 0x20 MUL PUSH1 0x20 ADD PUSH1 0x40 MLOAD SWAP1 DUP2 ADD PUSH1 0x40 MSTORE DUP1 SWAP3 SWAP2 SWAP1 DUP2 DUP2 MSTORE PUSH1 0x20 ADD DUP3 DUP1 SLOAD DUP1 ISZERO PUSH2 0x591 JUMPI PUSH1 0x20 MUL DUP3 ADD SWAP2 SWAP1 PUSH0 MSTORE PUSH1 0x20 PUSH0 KECCAK256 SWAP1 JUMPDEST DUP2 PUSH0 SWAP1 SLOAD SWAP1 PUSH2 0x100 EXP SWAP1 DIV PUSH20 0xFFFFFFFFFFFFFFFFFFFFFFFFFFFFFFFFFFFFFFFF AND PUSH20 0xFFFFFFFFFFFFFFFFFFFFFFFFFFFFFFFFFFFFFFFF AND DUP2 MSTORE PUSH1 0x20 ADD SWAP1 PUSH1 0x1 ADD SWAP1 DUP1 DUP4 GT PUSH2 0x548 JUMPI JUMPDEST POP POP POP POP POP SWAP1 POP SWAP1 JUMP JUMPDEST PUSH0 PUSH1 0x1 PUSH0 DUP4 PUSH20 0xFFFFFFFFFFFFFFFFFFFFFFFFFFFFFFFFFFFFFFFF AND PUSH20 0xFFFFFFFFFFFFFFFFFFFFFFFFFFFFFFFFFFFFFFFF AND DUP2 MSTORE PUSH1 0x20 ADD SWAP1 DUP2 MSTORE PUSH1 0x20 ADD PUSH0 KECCAK256 SLOAD SWAP1 POP SWAP2 SWAP1 POP JUMP JUMPDEST CALLER PUSH20 0xFFFFFFFFFFFFFFFFFFFFFFFFFFFFFFFFFFFFFFFF AND PUSH32 0x0 PUSH20 0xFFFFFFFFFFFFFFFFFFFFFFFFFFFFFFFFFFFFFFFF AND EQ PUSH2 0x66F JUMPI PUSH1 0x40 MLOAD PUSH32 0x8C379A000000000000000000000000000000000000000000000000000000000 DUP2 MSTORE PUSH1 0x4 ADD PUSH2 0x666 SWAP1 PUSH2 0x112B JUMP JUMPDEST PUSH1 0x40 MLOAD DUP1 SWAP2 SUB SWAP1 REVERT JUMPDEST PUSH0 JUMPDEST DUP2 MLOAD DUP2 PUSH2 0xFFFF AND LT ISZERO PUSH2 0x7D2 JUMPI PUSH0 PUSH1 0x1 PUSH0 DUP5 DUP5 PUSH2 0xFFFF AND DUP2 MLOAD DUP2 LT PUSH2 0x699 JUMPI PUSH2 0x698 PUSH2 0xF86 JUMP JUMPDEST JUMPDEST PUSH1 0x20 MUL PUSH1 0x20 ADD ADD MLOAD PUSH20 0xFFFFFFFFFFFFFFFFFFFFFFFFFFFFFFFFFFFFFFFF AND PUSH20 0xFFFFFFFFFFFFFFFFFFFFFFFFFFFFFFFFFFFFFFFF AND DUP2 MSTORE PUSH1 0x20 ADD SWAP1 DUP2 MSTORE PUSH1 0x20 ADD PUSH0 KECCAK256 SLOAD GT PUSH2 0x7BF JUMPI PUSH1 0x1 DUP1 PUSH0 DUP5 DUP5 PUSH2 0xFFFF AND DUP2 MLOAD DUP2 LT PUSH2 0x6FB JUMPI PUSH2 0x6FA PUSH2 0xF86 JUMP JUMPDEST JUMPDEST PUSH1 0x20 MUL PUSH1 0x20 ADD ADD MLOAD PUSH20 0xFFFFFFFFFFFFFFFFFFFFFFFFFFFFFFFFFFFFFFFF AND PUSH20 0xFFFFFFFFFFFFFFFFFFFFFFFFFFFFFFFFFFFFFFFF AND DUP2 MSTORE PUSH1 0x20 ADD SWAP1 DUP2 MSTORE PUSH1 0x20 ADD PUSH0 KECCAK256 DUP2 SWAP1 SSTORE POP PUSH1 0x2 DUP3 DUP3 PUSH2 0xFFFF AND DUP2 MLOAD DUP2 LT PUSH2 0x759 JUMPI PUSH2 0x758 PUSH2 0xF86 JUMP JUMPDEST JUMPDEST PUSH1 0x20 MUL PUSH1 0x20 ADD ADD MLOAD SWAP1 DUP1 PUSH1 0x1 DUP2 SLOAD ADD DUP1 DUP3 SSTORE DUP1 SWAP2 POP POP PUSH1 0x1 SWAP1 SUB SWAP1 PUSH0 MSTORE PUSH1 0x20 PUSH0 KECCAK256 ADD PUSH0 SWAP1 SWAP2 SWAP1 SWAP2 SWAP1 SWAP2 PUSH2 0x100 EXP DUP2 SLOAD DUP2 PUSH20 0xFFFFFFFFFFFFFFFFFFFFFFFFFFFFFFFFFFFFFFFF MUL NOT AND SWAP1 DUP4 PUSH20 0xFFFFFFFFFFFFFFFFFFFFFFFFFFFFFFFFFFFFFFFF AND MUL OR SWAP1 SSTORE POP JUMPDEST DUP1 DUP1 PUSH2 0x7CA SWAP1 PUSH2 0x1055 JUMP JUMPDEST SWAP2 POP POP PUSH2 0x671 JUMP JUMPDEST POP POP JUMP JUMPDEST PUSH0 DUP1 PUSH1 0x1 PUSH0 CALLER PUSH20 0xFFFFFFFFFFFFFFFFFFFFFFFFFFFFFFFFFFFFFFFF AND PUSH20 0xFFFFFFFFFFFFFFFFFFFFFFFFFFFFFFFFFFFFFFFF AND DUP2 MSTORE PUSH1 0x20 ADD SWAP1 DUP2 MSTORE PUSH1 0x20 ADD PUSH0 KECCAK256 SLOAD SUB PUSH2 0x856 JUMPI PUSH1 0x40 MLOAD PUSH32 0x66BADB300000000000000000000000000000000000000000000000000000000 DUP2 MSTORE PUSH1 0x4 ADD PUSH2 0x84D SWAP1 PUSH2 0x11FB JUMP JUMPDEST PUSH1 0x40 MLOAD DUP1 SWAP2 SUB SWAP1 REVERT JUMPDEST PUSH0 PUSH1 0x1 PUSH2 0x12C PUSH1 0x1 PUSH0 CALLER PUSH20 0xFFFFFFFFFFFFFFFFFFFFFFFFFFFFFFFFFFFFFFFF AND PUSH20 0xFFFFFFFFFFFFFFFFFFFFFFFFFFFFFFFFFFFFFFFF AND DUP2 MSTORE PUSH1 0x20 ADD SWAP1 DUP2 MSTORE PUSH1 0x20 ADD PUSH0 KECCAK256 SLOAD PUSH2 0x8A4 SWAP2 SWAP1 PUSH2 0x1219 JUMP JUMPDEST PUSH2 0x8AE SWAP2 SWAP1 PUSH2 0xFE0 JUMP JUMPDEST SWAP1 POP DUP1 TIMESTAMP LT ISZERO PUSH2 0x8F3 JUMPI PUSH1 0x40 MLOAD PUSH32 0x8C379A000000000000000000000000000000000000000000000000000000000 DUP2 MSTORE PUSH1 0x4 ADD PUSH2 0x8EA SWAP1 PUSH2 0x1296 JUMP JUMPDEST PUSH1 0x40 MLOAD DUP1 SWAP2 SUB SWAP1 REVERT JUMPDEST TIMESTAMP PUSH1 0x1 PUSH0 CALLER PUSH20 0xFFFFFFFFFFFFFFFFFFFFFFFFFFFFFFFFFFFFFFFF AND PUSH20 0xFFFFFFFFFFFFFFFFFFFFFFFFFFFFFFFFFFFFFFFF AND DUP2 MSTORE PUSH1 0x20 ADD SWAP1 DUP2 MSTORE PUSH1 0x20 ADD PUSH0 KECCAK256 DUP2 SWAP1 SSTORE POP PUSH0 SWAP2 POP POP SWAP1 JUMP JUMPDEST PUSH0 DUP1 PUSH0 PUSH1 0x2 DUP1 SLOAD SWAP1 POP SWAP1 POP PUSH0 PUSH1 0x1 PUSH0 CALLER PUSH20 0xFFFFFFFFFFFFFFFFFFFFFFFFFFFFFFFFFFFFFFFF AND PUSH20 0xFFFFFFFFFFFFFFFFFFFFFFFFFFFFFFFFFFFFFFFF AND DUP2 MSTORE PUSH1 0x20 ADD SWAP1 DUP2 MSTORE PUSH1 0x20 ADD PUSH0 KECCAK256 SLOAD SUB PUSH2 0x9C6 JUMPI PUSH1 0x40 MLOAD PUSH32 0x66BADB300000000000000000000000000000000000000000000000000000000 DUP2 MSTORE PUSH1 0x4 ADD PUSH2 0x9BD SWAP1 PUSH2 0x11FB JUMP JUMPDEST PUSH1 0x40 MLOAD DUP1 SWAP2 SUB SWAP1 REVERT JUMPDEST PUSH1 0x1 DUP1 PUSH0 CALLER PUSH20 0xFFFFFFFFFFFFFFFFFFFFFFFFFFFFFFFFFFFFFFFF AND PUSH20 0xFFFFFFFFFFFFFFFFFFFFFFFFFFFFFFFFFFFFFFFF AND DUP2 MSTORE PUSH1 0x20 ADD SWAP1 DUP2 MSTORE PUSH1 0x20 ADD PUSH0 KECCAK256 SLOAD SUB PUSH2 0xA65 JUMPI PUSH1 0x1 PUSH3 0x93A80 PUSH1 0x1 PUSH0 CALLER PUSH20 0xFFFFFFFFFFFFFFFFFFFFFFFFFFFFFFFFFFFFFFFF AND PUSH20 0xFFFFFFFFFFFFFFFFFFFFFFFFFFFFFFFFFFFFFFFF AND DUP2 MSTORE PUSH1 0x20 ADD SWAP1 DUP2 MSTORE PUSH1 0x20 ADD PUSH0 KECCAK256 SLOAD PUSH2 0xA58 SWAP2 SWAP1 PUSH2 0x1219 JUMP JUMPDEST PUSH2 0xA62 SWAP2 SWAP1 PUSH2 0xFE0 JUMP JUMPDEST SWAP2 POP JUMPDEST PUSH3 0x93A80 PUSH1 0x1 PUSH0 CALLER PUSH20 0xFFFFFFFFFFFFFFFFFFFFFFFFFFFFFFFFFFFFFFFF AND PUSH20 0xFFFFFFFFFFFFFFFFFFFFFFFFFFFFFFFFFFFFFFFF AND DUP2 MSTORE PUSH1 0x20 ADD SWAP1 DUP2 MSTORE PUSH1 0x20 ADD PUSH0 KECCAK256 SLOAD PUSH2 0xAB1 SWAP2 SWAP1 PUSH2 0x1219 JUMP JUMPDEST SWAP2 POP DUP2 TIMESTAMP LT ISZERO PUSH2 0xAF6 JUMPI PUSH1 0x40 MLOAD PUSH32 0x8C379A000000000000000000000000000000000000000000000000000000000 DUP2 MSTORE PUSH1 0x4 ADD PUSH2 0xAED SWAP1 PUSH2 0x12FE JUMP JUMPDEST PUSH1 0x40 MLOAD DUP1 SWAP2 SUB SWAP1 REVERT JUMPDEST PUSH0 PUSH1 0x3 PUSH20 0xFFFFFFFFFFFFFFFFFFFFFFFFFFFFFFFFFFFFFFFF AND PUSH4 0x70A08231 ADDRESS PUSH1 0x40 MLOAD DUP3 PUSH4 0xFFFFFFFF AND PUSH1 0xE0 SHL DUP2 MSTORE PUSH1 0x4 ADD PUSH2 0xB31 SWAP2 SWAP1 PUSH2 0x132B JUMP JUMPDEST PUSH1 0x20 PUSH1 0x40 MLOAD DUP1 DUP4 SUB DUP2 DUP7 GAS STATICCALL ISZERO DUP1 ISZERO PUSH2 0xB4C JUMPI RETURNDATASIZE PUSH0 DUP1 RETURNDATACOPY RETURNDATASIZE PUSH0 REVERT JUMPDEST POP POP POP POP PUSH1 0x40 MLOAD RETURNDATASIZE PUSH1 0x1F NOT PUSH1 0x1F DUP3 ADD AND DUP3 ADD DUP1 PUSH1 0x40 MSTORE POP DUP2 ADD SWAP1 PUSH2 0xB70 SWAP2 SWAP1 PUSH2 0x136E JUMP JUMPDEST GT PUSH2 0xB79 JUMPI PUSH0 DUP1 REVERT JUMPDEST PUSH0 DUP2 PUSH1 0xA PUSH2 0xB87 SWAP2 SWAP1 PUSH2 0x13C6 JUMP JUMPDEST SWAP1 POP PUSH1 0x3 PUSH20 0xFFFFFFFFFFFFFFFFFFFFFFFFFFFFFFFFFFFFFFFF AND PUSH4 0xA9059CBB CALLER DUP4 PUSH1 0x40 MLOAD DUP4 PUSH4 0xFFFFFFFF AND PUSH1 0xE0 SHL DUP2 MSTORE PUSH1 0x4 ADD PUSH2 0xBC5 SWAP3 SWAP2 SWAP1 PUSH2 0x13F6 JUMP JUMPDEST PUSH1 0x20 PUSH1 0x40 MLOAD DUP1 DUP4 SUB DUP2 PUSH0 DUP8 GAS CALL ISZERO DUP1 ISZERO PUSH2 0xBE1 JUMPI RETURNDATASIZE PUSH0 DUP1 RETURNDATACOPY RETURNDATASIZE PUSH0 REVERT JUMPDEST POP POP POP POP PUSH1 0x40 MLOAD RETURNDATASIZE PUSH1 0x1F NOT PUSH1 0x1F DUP3 ADD AND DUP3 ADD DUP1 PUSH1 0x40 MSTORE POP DUP2 ADD SWAP1 PUSH2 0xC05 SWAP2 SWAP1 PUSH2 0x1452 JUMP JUMPDEST POP TIMESTAMP PUSH1 0x1 PUSH0 CALLER PUSH20 0xFFFFFFFFFFFFFFFFFFFFFFFFFFFFFFFFFFFFFFFF AND PUSH20 0xFFFFFFFFFFFFFFFFFFFFFFFFFFFFFFFFFFFFFFFF AND DUP2 MSTORE PUSH1 0x20 ADD SWAP1 DUP2 MSTORE PUSH1 0x20 ADD PUSH0 KECCAK256 DUP2 SWAP1 SSTORE POP PUSH0 SWAP4 POP POP POP POP SWAP1 JUMP JUMPDEST PUSH0 PUSH1 0x40 MLOAD SWAP1 POP SWAP1 JUMP JUMPDEST PUSH0 DUP1 REVERT JUMPDEST PUSH0 DUP1 REVERT JUMPDEST PUSH0 PUSH20 0xFFFFFFFFFFFFFFFFFFFFFFFFFFFFFFFFFFFFFFFF DUP3 AND SWAP1 POP SWAP2 SWAP1 POP JUMP JUMPDEST PUSH0 PUSH2 0xC8B DUP3 PUSH2 0xC62 JUMP JUMPDEST SWAP1 POP SWAP2 SWAP1 POP JUMP JUMPDEST PUSH2 0xC9B DUP2 PUSH2 0xC81 JUMP JUMPDEST DUP2 EQ PUSH2 0xCA5 JUMPI PUSH0 DUP1 REVERT JUMPDEST POP JUMP JUMPDEST PUSH0 DUP2 CALLDATALOAD SWAP1 POP PUSH2 0xCB6 DUP2 PUSH2 0xC92 JUMP JUMPDEST SWAP3 SWAP2 POP POP JUMP JUMPDEST PUSH0 PUSH1 0x20 DUP3 DUP5 SUB SLT ISZERO PUSH2 0xCD1 JUMPI PUSH2 0xCD0 PUSH2 0xC5A JUMP JUMPDEST JUMPDEST PUSH0 PUSH2 0xCDE DUP5 DUP3 DUP6 ADD PUSH2 0xCA8 JUMP JUMPDEST SWAP2 POP POP SWAP3 SWAP2 POP POP JUMP JUMPDEST PUSH0 DUP2 MLOAD SWAP1 POP SWAP2 SWAP1 POP JUMP JUMPDEST PUSH0 DUP3 DUP3 MSTORE PUSH1 0x20 DUP3 ADD SWAP1 POP SWAP3 SWAP2 POP POP JUMP JUMPDEST PUSH0 DUP2 SWAP1 POP PUSH1 0x20 DUP3 ADD SWAP1 POP SWAP2 SWAP1 POP JUMP JUMPDEST PUSH2 0xD19 DUP2 PUSH2 0xC81 JUMP JUMPDEST DUP3 MSTORE POP POP JUMP JUMPDEST PUSH0 PUSH2 0xD2A DUP4 DUP4 PUSH2 0xD10 JUMP JUMPDEST PUSH1 0x20 DUP4 ADD SWAP1 POP SWAP3 SWAP2 POP POP JUMP JUMPDEST PUSH0 PUSH1 0x20 DUP3 ADD SWAP1 POP SWAP2 SWAP1 POP JUMP JUMPDEST PUSH0 PUSH2 0xD4C DUP3 PUSH2 0xCE7 JUMP JUMPDEST PUSH2 0xD56 DUP2 DUP6 PUSH2 0xCF1 JUMP JUMPDEST SWAP4 POP PUSH2 0xD61 DUP4 PUSH2 0xD01 JUMP JUMPDEST DUP1 PUSH0 JUMPDEST DUP4 DUP2 LT ISZERO PUSH2 0xD91 JUMPI DUP2 MLOAD PUSH2 0xD78 DUP9 DUP3 PUSH2 0xD1F JUMP JUMPDEST SWAP8 POP PUSH2 0xD83 DUP4 PUSH2 0xD36 JUMP JUMPDEST SWAP3 POP POP PUSH1 0x1 DUP2 ADD SWAP1 POP PUSH2 0xD64 JUMP JUMPDEST POP DUP6 SWAP4 POP POP POP POP SWAP3 SWAP2 POP POP JUMP JUMPDEST PUSH0 PUSH1 0x20 DUP3 ADD SWAP1 POP DUP2 DUP2 SUB PUSH0 DUP4 ADD MSTORE PUSH2 0xDB6 DUP2 DUP5 PUSH2 0xD42 JUMP JUMPDEST SWAP1 POP SWAP3 SWAP2 POP POP JUMP JUMPDEST PUSH0 DUP2 SWAP1 POP SWAP2 SWAP1 POP JUMP JUMPDEST PUSH2 0xDD0 DUP2 PUSH2 0xDBE JUMP JUMPDEST DUP3 MSTORE POP POP JUMP JUMPDEST PUSH0 PUSH1 0x20 DUP3 ADD SWAP1 POP PUSH2 0xDE9 PUSH0 DUP4 ADD DUP5 PUSH2 0xDC7 JUMP JUMPDEST SWAP3 SWAP2 POP POP JUMP JUMPDEST PUSH0 DUP1 REVERT JUMPDEST PUSH0 PUSH1 0x1F NOT PUSH1 0x1F DUP4 ADD AND SWAP1 POP SWAP2 SWAP1 POP JUMP JUMPDEST PUSH32 0x4E487B7100000000000000000000000000000000000000000000000000000000 PUSH0 MSTORE PUSH1 0x41 PUSH1 0x4 MSTORE PUSH1 0x24 PUSH0 REVERT JUMPDEST PUSH2 0xE39 DUP3 PUSH2 0xDF3 JUMP JUMPDEST DUP2 ADD DUP2 DUP2 LT PUSH8 0xFFFFFFFFFFFFFFFF DUP3 GT OR ISZERO PUSH2 0xE58 JUMPI PUSH2 0xE57 PUSH2 0xE03 JUMP JUMPDEST JUMPDEST DUP1 PUSH1 0x40 MSTORE POP POP POP JUMP JUMPDEST PUSH0 PUSH2 0xE6A PUSH2 0xC51 JUMP JUMPDEST SWAP1 POP PUSH2 0xE76 DUP3 DUP3 PUSH2 0xE30 JUMP JUMPDEST SWAP2 SWAP1 POP JUMP JUMPDEST PUSH0 PUSH8 0xFFFFFFFFFFFFFFFF DUP3 GT ISZERO PUSH2 0xE95 JUMPI PUSH2 0xE94 PUSH2 0xE03 JUMP JUMPDEST JUMPDEST PUSH1 0x20 DUP3 MUL SWAP1 POP PUSH1 0x20 DUP2 ADD SWAP1 POP SWAP2 SWAP1 POP JUMP JUMPDEST PUSH0 DUP1 REVERT JUMPDEST PUSH0 PUSH2 0xEBC PUSH2 0xEB7 DUP5 PUSH2 0xE7B JUMP JUMPDEST PUSH2 0xE61 JUMP JUMPDEST SWAP1 POP DUP1 DUP4 DUP3 MSTORE PUSH1 0x20 DUP3 ADD SWAP1 POP PUSH1 0x20 DUP5 MUL DUP4 ADD DUP6 DUP2 GT ISZERO PUSH2 0xEDF JUMPI PUSH2 0xEDE PUSH2 0xEA6 JUMP JUMPDEST JUMPDEST DUP4 JUMPDEST DUP2 DUP2 LT ISZERO PUSH2 0xF08 JUMPI DUP1 PUSH2 0xEF4 DUP9 DUP3 PUSH2 0xCA8 JUMP JUMPDEST DUP5 MSTORE PUSH1 0x20 DUP5 ADD SWAP4 POP POP PUSH1 0x20 DUP2 ADD SWAP1 POP PUSH2 0xEE1 JUMP JUMPDEST POP POP POP SWAP4 SWAP3 POP POP POP JUMP JUMPDEST PUSH0 DUP3 PUSH1 0x1F DUP4 ADD SLT PUSH2 0xF26 JUMPI PUSH2 0xF25 PUSH2 0xDEF JUMP JUMPDEST JUMPDEST DUP2 CALLDATALOAD PUSH2 0xF36 DUP5 DUP3 PUSH1 0x20 DUP7 ADD PUSH2 0xEAA JUMP JUMPDEST SWAP2 POP POP SWAP3 SWAP2 POP POP JUMP JUMPDEST PUSH0 PUSH1 0x20 DUP3 DUP5 SUB SLT ISZERO PUSH2 0xF54 JUMPI PUSH2 0xF53 PUSH2 0xC5A JUMP JUMPDEST JUMPDEST PUSH0 DUP3 ADD CALLDATALOAD PUSH8 0xFFFFFFFFFFFFFFFF DUP2 GT ISZERO PUSH2 0xF71 JUMPI PUSH2 0xF70 PUSH2 0xC5E JUMP JUMPDEST JUMPDEST PUSH2 0xF7D DUP5 DUP3 DUP6 ADD PUSH2 0xF12 JUMP JUMPDEST SWAP2 POP POP SWAP3 SWAP2 POP POP JUMP JUMPDEST PUSH32 0x4E487B7100000000000000000000000000000000000000000000000000000000 PUSH0 MSTORE PUSH1 0x32 PUSH1 0x4 MSTORE PUSH1 0x24 PUSH0 REVERT JUMPDEST PUSH32 0x4E487B7100000000000000000000000000000000000000000000000000000000 PUSH0 MSTORE PUSH1 0x11 PUSH1 0x4 MSTORE PUSH1 0x24 PUSH0 REVERT JUMPDEST PUSH0 PUSH2 0xFEA DUP3 PUSH2 0xDBE JUMP JUMPDEST SWAP2 POP PUSH2 0xFF5 DUP4 PUSH2 0xDBE JUMP JUMPDEST SWAP3 POP DUP3 DUP3 SUB SWAP1 POP DUP2 DUP2 GT ISZERO PUSH2 0x100D JUMPI PUSH2 0x100C PUSH2 0xFB3 JUMP JUMPDEST JUMPDEST SWAP3 SWAP2 POP POP JUMP JUMPDEST PUSH0 PUSH2 0xFFFF DUP3 AND SWAP1 POP SWAP2 SWAP1 POP JUMP JUMPDEST PUSH0 PUSH2 0x102A DUP3 PUSH2 0x1013 JUMP JUMPDEST SWAP2 POP PUSH2 0x1035 DUP4 PUSH2 0x1013 JUMP JUMPDEST SWAP3 POP DUP3 DUP3 ADD SWAP1 POP PUSH2 0xFFFF DUP2 GT ISZERO PUSH2 0x104F JUMPI PUSH2 0x104E PUSH2 0xFB3 JUMP JUMPDEST JUMPDEST SWAP3 SWAP2 POP POP JUMP JUMPDEST PUSH0 PUSH2 0x105F DUP3 PUSH2 0x1013 JUMP JUMPDEST SWAP2 POP PUSH2 0xFFFF DUP3 SUB PUSH2 0x1073 JUMPI PUSH2 0x1072 PUSH2 0xFB3 JUMP JUMPDEST JUMPDEST PUSH1 0x1 DUP3 ADD SWAP1 POP SWAP2 SWAP1 POP JUMP JUMPDEST PUSH32 0x4E487B7100000000000000000000000000000000000000000000000000000000 PUSH0 MSTORE PUSH1 0x31 PUSH1 0x4 MSTORE PUSH1 0x24 PUSH0 REVERT JUMPDEST PUSH0 DUP3 DUP3 MSTORE PUSH1 0x20 DUP3 ADD SWAP1 POP SWAP3 SWAP2 POP POP JUMP JUMPDEST PUSH32 0x6F6E6C792061646D696E2063616E20696E766F6B6520746869732066756E6374 PUSH0 DUP3 ADD MSTORE PUSH32 0x696F6E0000000000000000000000000000000000000000000000000000000000 PUSH1 0x20 DUP3 ADD MSTORE POP JUMP JUMPDEST PUSH0 PUSH2 0x1115 PUSH1 0x23 DUP4 PUSH2 0x10AB JUMP JUMPDEST SWAP2 POP PUSH2 0x1120 DUP3 PUSH2 0x10BB JUMP JUMPDEST PUSH1 0x40 DUP3 ADD SWAP1 POP SWAP2 SWAP1 POP JUMP JUMPDEST PUSH0 PUSH1 0x20 DUP3 ADD SWAP1 POP DUP2 DUP2 SUB PUSH0 DUP4 ADD MSTORE PUSH2 0x1142 DUP2 PUSH2 0x1109 JUMP JUMPDEST SWAP1 POP SWAP2 SWAP1 POP JUMP JUMPDEST PUSH32 0x5573657220657869737400000000000000000000000000000000000000000000 PUSH0 DUP3 ADD MSTORE POP JUMP JUMPDEST PUSH0 PUSH2 0x117D PUSH1 0xA DUP4 PUSH2 0x10AB JUMP JUMPDEST SWAP2 POP PUSH2 0x1188 DUP3 PUSH2 0x1149 JUMP JUMPDEST PUSH1 0x20 DUP3 ADD SWAP1 POP SWAP2 SWAP1 POP JUMP JUMPDEST PUSH0 PUSH1 0x20 DUP3 ADD SWAP1 POP DUP2 DUP2 SUB PUSH0 DUP4 ADD MSTORE PUSH2 0x11AA DUP2 PUSH2 0x1171 JUMP JUMPDEST SWAP1 POP SWAP2 SWAP1 POP JUMP JUMPDEST PUSH32 0x4E6F7420616E20656C696769626C652075736572210000000000000000000000 PUSH0 DUP3 ADD MSTORE POP JUMP JUMPDEST PUSH0 PUSH2 0x11E5 PUSH1 0x15 DUP4 PUSH2 0x10AB JUMP JUMPDEST SWAP2 POP PUSH2 0x11F0 DUP3 PUSH2 0x11B1 JUMP JUMPDEST PUSH1 0x20 DUP3 ADD SWAP1 POP SWAP2 SWAP1 POP JUMP JUMPDEST PUSH0 PUSH1 0x20 DUP3 ADD SWAP1 POP DUP2 DUP2 SUB PUSH0 DUP4 ADD MSTORE PUSH2 0x1212 DUP2 PUSH2 0x11D9 JUMP JUMPDEST SWAP1 POP SWAP2 SWAP1 POP JUMP JUMPDEST PUSH0 PUSH2 0x1223 DUP3 PUSH2 0xDBE JUMP JUMPDEST SWAP2 POP PUSH2 0x122E DUP4 PUSH2 0xDBE JUMP JUMPDEST SWAP3 POP DUP3 DUP3 ADD SWAP1 POP DUP1 DUP3 GT ISZERO PUSH2 0x1246 JUMPI PUSH2 0x1245 PUSH2 0xFB3 JUMP JUMPDEST JUMPDEST SWAP3 SWAP2 POP POP JUMP JUMPDEST PUSH32 0x636C61696D6D2061667465722035206D696E7321000000000000000000000000 PUSH0 DUP3 ADD MSTORE POP JUMP JUMPDEST PUSH0 PUSH2 0x1280 PUSH1 0x14 DUP4 PUSH2 0x10AB JUMP JUMPDEST SWAP2 POP PUSH2 0x128B DUP3 PUSH2 0x124C JUMP JUMPDEST PUSH1 0x20 DUP3 ADD SWAP1 POP SWAP2 SWAP1 POP JUMP JUMPDEST PUSH0 PUSH1 0x20 DUP3 ADD SWAP1 POP DUP2 DUP2 SUB PUSH0 DUP4 ADD MSTORE PUSH2 0x12AD DUP2 PUSH2 0x1274 JUMP JUMPDEST SWAP1 POP SWAP2 SWAP1 POP JUMP JUMPDEST PUSH32 0x4F6E636520706572207765656B00000000000000000000000000000000000000 PUSH0 DUP3 ADD MSTORE POP JUMP JUMPDEST PUSH0 PUSH2 0x12E8 PUSH1 0xD DUP4 PUSH2 0x10AB JUMP JUMPDEST SWAP2 POP PUSH2 0x12F3 DUP3 PUSH2 0x12B4 JUMP JUMPDEST PUSH1 0x20 DUP3 ADD SWAP1 POP SWAP2 SWAP1 POP JUMP JUMPDEST PUSH0 PUSH1 0x20 DUP3 ADD SWAP1 POP DUP2 DUP2 SUB PUSH0 DUP4 ADD MSTORE PUSH2 0x1315 DUP2 PUSH2 0x12DC JUMP JUMPDEST SWAP1 POP SWAP2 SWAP1 POP JUMP JUMPDEST PUSH2 0x1325 DUP2 PUSH2 0xC81 JUMP JUMPDEST DUP3 MSTORE POP POP JUMP JUMPDEST PUSH0 PUSH1 0x20 DUP3 ADD SWAP1 POP PUSH2 0x133E PUSH0 DUP4 ADD DUP5 PUSH2 0x131C JUMP JUMPDEST SWAP3 SWAP2 POP POP JUMP JUMPDEST PUSH2 0x134D DUP2 PUSH2 0xDBE JUMP JUMPDEST DUP2 EQ PUSH2 0x1357 JUMPI PUSH0 DUP1 REVERT JUMPDEST POP JUMP JUMPDEST PUSH0 DUP2 MLOAD SWAP1 POP PUSH2 0x1368 DUP2 PUSH2 0x1344 JUMP JUMPDEST SWAP3 SWAP2 POP POP JUMP JUMPDEST PUSH0 PUSH1 0x20 DUP3 DUP5 SUB SLT ISZERO PUSH2 0x1383 JUMPI PUSH2 0x1382 PUSH2 0xC5A JUMP JUMPDEST JUMPDEST PUSH0 PUSH2 0x1390 DUP5 DUP3 DUP6 ADD PUSH2 0x135A JUMP JUMPDEST SWAP2 POP POP SWAP3 SWAP2 POP POP JUMP JUMPDEST PUSH32 0x4E487B7100000000000000000000000000000000000000000000000000000000 PUSH0 MSTORE PUSH1 0x12 PUSH1 0x4 MSTORE PUSH1 0x24 PUSH0 REVERT JUMPDEST PUSH0 PUSH2 0x13D0 DUP3 PUSH2 0xDBE JUMP JUMPDEST SWAP2 POP PUSH2 0x13DB DUP4 PUSH2 0xDBE JUMP JUMPDEST SWAP3 POP DUP3 PUSH2 0x13EB JUMPI PUSH2 0x13EA PUSH2 0x1399 JUMP JUMPDEST JUMPDEST DUP3 DUP3 DIV SWAP1 POP SWAP3 SWAP2 POP POP JUMP JUMPDEST PUSH0 PUSH1 0x40 DUP3 ADD SWAP1 POP PUSH2 0x1409 PUSH0 DUP4 ADD DUP6 PUSH2 0x131C JUMP JUMPDEST PUSH2 0x1416 PUSH1 0x20 DUP4 ADD DUP5 PUSH2 0xDC7 JUMP JUMPDEST SWAP4 SWAP3 POP POP POP JUMP JUMPDEST PUSH0 DUP2 ISZERO ISZERO SWAP1 POP SWAP2 SWAP1 POP JUMP JUMPDEST PUSH2 0x1431 DUP2 PUSH2 0x141D JUMP JUMPDEST DUP2 EQ PUSH2 0x143B JUMPI PUSH0 DUP1 REVERT JUMPDEST POP JUMP JUMPDEST PUSH0 DUP2 MLOAD SWAP1 POP PUSH2 0x144C DUP2 PUSH2 0x1428 JUMP JUMPDEST SWAP3 SWAP2 POP POP JUMP JUMPDEST PUSH0 PUSH1 0x20 DUP3 DUP5 SUB SLT ISZERO PUSH2 0x1467 JUMPI PUSH2 0x1466 PUSH2 0xC5A JUMP JUMPDEST JUMPDEST PUSH0 PUSH2 0x1474 DUP5 DUP3 DUP6 ADD PUSH2 0x143E JUMP JUMPDEST SWAP2 POP POP SWAP3 SWAP2 POP POP JUMP INVALID LOG2 PUSH5 0x6970667358 0x22 SLT KECCAK256 DIV PUSH16 0xB6DB5FB186AF8E113369826CE9F2E40D SWAP13 MOD BYTE PUSH12 0x1508A6D7A09A2CE39F566473 PUSH16 0x6C634300081A00330000000000000000 "
				},
				"gasEstimates": {
					"creation": {
						"codeDepositCost": "1059800",
						"executionCost": "infinite",
						"totalCost": "infinite"
					},
					"external": {
						"AddEligibleUser(address)": "infinite",
						"AddMultipleEliglibleUser(address[])": "infinite",
						"RemoveEligibleUser(address)": "infinite",
						"lis()": "infinite",
						"returndf(address)": "2829",
						"test5minsClaim()": "infinite",
						"testClaim()": "infinite"
					}
				},
				"methodIdentifiers": {
					"AddEligibleUser(address)": "7a6d918e",
					"AddMultipleEliglibleUser(address[])": "b7f7e6f0",
					"RemoveEligibleUser(address)": "5e0ca3b9",
					"lis()": "7eca453d",
					"returndf(address)": "b70cbe35",
					"test5minsClaim()": "c8804c71",
					"testClaim()": "f33cf57b"
				}
			},
			"storageLayout": {
				"storage": [
					{
						"astId": 25,
						"contract": "contracts/durationv2.sol:DurationTest",
						"label": "magicNum",
						"offset": 0,
						"slot": "0",
						"type": "t_uint256"
					},
					{
						"astId": 41,
						"contract": "contracts/durationv2.sol:DurationTest",
						"label": "EligibleUser",
						"offset": 0,
						"slot": "1",
						"type": "t_mapping(t_address,t_uint256)"
					},
					{
						"astId": 44,
						"contract": "contracts/durationv2.sol:DurationTest",
						"label": "EligibleUserArr",
						"offset": 0,
						"slot": "2",
						"type": "t_array(t_address)dyn_storage"
					}
				],
				"types": {
					"t_address": {
						"encoding": "inplace",
						"label": "address",
						"numberOfBytes": "20"
					},
					"t_array(t_address)dyn_storage": {
						"base": "t_address",
						"encoding": "dynamic_array",
						"label": "address[]",
						"numberOfBytes": "32"
					},
					"t_mapping(t_address,t_uint256)": {
						"encoding": "mapping",
						"key": "t_address",
						"label": "mapping(address => uint256)",
						"numberOfBytes": "32",
						"value": "t_uint256"
					},
					"t_uint256": {
						"encoding": "inplace",
						"label": "uint256",
						"numberOfBytes": "32"
					}
				}
			},
			"userdoc": {
				"kind": "user",
				"methods": {},
				"version": 1
			}
		}
	}
}