{
	"contracts/BasicMath.sol": {
		"BasicMath": {
			"abi": [
				{
					"inputs": [
						{
							"internalType": "uint256",
							"name": "_a",
							"type": "uint256"
						},
						{
							"internalType": "uint256",
							"name": "_b",
							"type": "uint256"
						}
					],
					"name": "adder",
					"outputs": [
						{
							"internalType": "uint256",
							"name": "sum",
							"type": "uint256"
						},
						{
							"internalType": "bool",
							"name": "error",
							"type": "bool"
						}
					],
					"stateMutability": "pure",
					"type": "function"
				},
				{
					"inputs": [
						{
							"internalType": "uint256",
							"name": "_a",
							"type": "uint256"
						},
						{
							"internalType": "uint256",
							"name": "_b",
							"type": "uint256"
						}
					],
					"name": "subtractor",
					"outputs": [
						{
							"internalType": "uint256",
							"name": "differ",
							"type": "uint256"
						},
						{
							"internalType": "bool",
							"name": "error",
							"type": "bool"
						}
					],
					"stateMutability": "pure",
					"type": "function"
				}
			],
			"devdoc": {
				"kind": "dev",
				"methods": {},
				"version": 1
			},
			"evm": {
				"assembly": "    /* \"contracts/BasicMath.sol\":56:504  contract BasicMath{... */\n  mstore(0x40, 0x80)\n  callvalue\n  dup1\n  iszero\n  tag_1\n  jumpi\n  0x00\n  dup1\n  revert\ntag_1:\n  pop\n  dataSize(sub_0)\n  dup1\n  dataOffset(sub_0)\n  0x00\n  codecopy\n  0x00\n  return\nstop\n\nsub_0: assembly {\n        /* \"contracts/BasicMath.sol\":56:504  contract BasicMath{... */\n      mstore(0x40, 0x80)\n      callvalue\n      dup1\n      iszero\n      tag_1\n      jumpi\n      0x00\n      dup1\n      revert\n    tag_1:\n      pop\n      jumpi(tag_2, lt(calldatasize, 0x04))\n      shr(0xe0, calldataload(0x00))\n      dup1\n      0x06b034e9\n      eq\n      tag_3\n      jumpi\n      dup1\n      0x5270312a\n      eq\n      tag_4\n      jumpi\n    tag_2:\n      0x00\n      dup1\n      revert\n        /* \"contracts/BasicMath.sol\":80:310  function adder(uint _a, uint _b) public pure returns (uint sum, bool error){... */\n    tag_3:\n      tag_5\n      tag_6\n      calldatasize\n      0x04\n      tag_7\n      jump\t// in\n    tag_6:\n      tag_8\n      jump\t// in\n    tag_5:\n      0x40\n      dup1\n      mload\n        /* \"#utility.yul\":435:460   */\n      swap3\n      dup4\n      mstore\n        /* \"#utility.yul\":503:517   */\n      swap1\n      iszero\n        /* \"#utility.yul\":496:518   */\n      iszero\n        /* \"#utility.yul\":491:493   */\n      0x20\n        /* \"#utility.yul\":476:494   */\n      dup4\n      add\n        /* \"#utility.yul\":469:519   */\n      mstore\n        /* \"#utility.yul\":408:426   */\n      add\n        /* \"contracts/BasicMath.sol\":80:310  function adder(uint _a, uint _b) public pure returns (uint sum, bool error){... */\n      mload(0x40)\n      dup1\n      swap2\n      sub\n      swap1\n      return\n        /* \"contracts/BasicMath.sol\":315:502  function subtractor(uint _a, uint _b) public pure returns (uint differ,bool error){... */\n    tag_4:\n      tag_5\n      tag_12\n      calldatasize\n      0x04\n      tag_7\n      jump\t// in\n    tag_12:\n      tag_13\n      jump\t// in\n        /* \"contracts/BasicMath.sol\":80:310  function adder(uint _a, uint _b) public pure returns (uint sum, bool error){... */\n    tag_8:\n        /* \"contracts/BasicMath.sol\":134:142  uint sum */\n      0x00\n      dup1\n        /* \"contracts/BasicMath.sol\":197:202  _a+_b */\n      dup4\n      dup4\n      add\n        /* \"contracts/BasicMath.sol\":218:226  smm <= 0 */\n      dup1\n        /* \"contracts/BasicMath.sol\":213:269  if ( smm <= 0 ){... */\n      tag_16\n      jumpi\n        /* \"contracts/BasicMath.sol\":250:251  0 */\n      0x00\n        /* \"contracts/BasicMath.sol\":253:257  true */\n      0x01\n        /* \"contracts/BasicMath.sol\":242:258  return (0, true) */\n      swap3\n      pop\n      swap3\n      pop\n      pop\n      jump(tag_15)\n        /* \"contracts/BasicMath.sol\":213:269  if ( smm <= 0 ){... */\n    tag_16:\n        /* \"contracts/BasicMath.sol\":286:293  _a + _b */\n      tag_17\n        /* \"contracts/BasicMath.sol\":291:293  _b */\n      dup5\n        /* \"contracts/BasicMath.sol\":286:288  _a */\n      dup7\n        /* \"contracts/BasicMath.sol\":286:293  _a + _b */\n      tag_18\n      jump\t// in\n    tag_17:\n        /* \"contracts/BasicMath.sol\":296:301  false */\n      0x00\n        /* \"contracts/BasicMath.sol\":278:303  return (_a + _b , false ) */\n      swap3\n      pop\n      swap3\n      pop\n      pop\n        /* \"contracts/BasicMath.sol\":80:310  function adder(uint _a, uint _b) public pure returns (uint sum, bool error){... */\n    tag_15:\n      swap3\n      pop\n      swap3\n      swap1\n      pop\n      jump\t// out\n        /* \"contracts/BasicMath.sol\":315:502  function subtractor(uint _a, uint _b) public pure returns (uint differ,bool error){... */\n    tag_13:\n        /* \"contracts/BasicMath.sol\":374:385  uint differ */\n      0x00\n        /* \"contracts/BasicMath.sol\":386:396  bool error */\n      dup1\n        /* \"contracts/BasicMath.sol\":416:418  _a */\n      dup4\n        /* \"contracts/BasicMath.sol\":411:413  _b */\n      dup4\n        /* \"contracts/BasicMath.sol\":411:418  _b > _a */\n      gt\n        /* \"contracts/BasicMath.sol\":407:461  if( _b > _a ){... */\n      iszero\n      tag_20\n      jumpi\n      pop\n        /* \"contracts/BasicMath.sol\":442:443  0 */\n      0x00\n      swap1\n      pop\n        /* \"contracts/BasicMath.sol\":445:449  true */\n      0x01\n        /* \"contracts/BasicMath.sol\":434:450  return (0, true) */\n      jump(tag_15)\n        /* \"contracts/BasicMath.sol\":407:461  if( _b > _a ){... */\n    tag_20:\n        /* \"contracts/BasicMath.sol\":478:485  _a - _b */\n      tag_21\n        /* \"contracts/BasicMath.sol\":483:485  _b */\n      dup4\n        /* \"contracts/BasicMath.sol\":478:480  _a */\n      dup6\n        /* \"contracts/BasicMath.sol\":478:485  _a - _b */\n      tag_22\n      jump\t// in\n    tag_21:\n        /* \"contracts/BasicMath.sol\":470:495  return( _a - _b , false ) */\n      swap5\n        /* \"contracts/BasicMath.sol\":488:493  false */\n      0x00\n      swap5\n      pop\n        /* \"contracts/BasicMath.sol\":315:502  function subtractor(uint _a, uint _b) public pure returns (uint differ,bool error){... */\n      swap3\n      pop\n      pop\n      pop\n      jump\t// out\n        /* \"#utility.yul\":14:262   */\n    tag_7:\n        /* \"#utility.yul\":82:88   */\n      0x00\n        /* \"#utility.yul\":90:96   */\n      dup1\n        /* \"#utility.yul\":143:145   */\n      0x40\n        /* \"#utility.yul\":131:140   */\n      dup4\n        /* \"#utility.yul\":122:129   */\n      dup6\n        /* \"#utility.yul\":118:141   */\n      sub\n        /* \"#utility.yul\":114:146   */\n      slt\n        /* \"#utility.yul\":111:163   */\n      iszero\n      tag_26\n      jumpi\n        /* \"#utility.yul\":159:160   */\n      0x00\n        /* \"#utility.yul\":156:157   */\n      dup1\n        /* \"#utility.yul\":149:161   */\n      revert\n        /* \"#utility.yul\":111:163   */\n    tag_26:\n      pop\n      pop\n        /* \"#utility.yul\":182:205   */\n      dup1\n      calldataload\n      swap3\n        /* \"#utility.yul\":252:254   */\n      0x20\n        /* \"#utility.yul\":237:255   */\n      swap1\n      swap2\n      add\n        /* \"#utility.yul\":224:256   */\n      calldataload\n      swap2\n      pop\n        /* \"#utility.yul\":14:262   */\n      jump\t// out\n        /* \"#utility.yul\":530:657   */\n    tag_23:\n        /* \"#utility.yul\":591:601   */\n      0x4e487b71\n        /* \"#utility.yul\":586:589   */\n      0xe0\n        /* \"#utility.yul\":582:602   */\n      shl\n        /* \"#utility.yul\":579:580   */\n      0x00\n        /* \"#utility.yul\":572:603   */\n      mstore\n        /* \"#utility.yul\":622:626   */\n      0x11\n        /* \"#utility.yul\":619:620   */\n      0x04\n        /* \"#utility.yul\":612:627   */\n      mstore\n        /* \"#utility.yul\":646:650   */\n      0x24\n        /* \"#utility.yul\":643:644   */\n      0x00\n        /* \"#utility.yul\":636:651   */\n      revert\n        /* \"#utility.yul\":662:787   */\n    tag_18:\n        /* \"#utility.yul\":727:736   */\n      dup1\n      dup3\n      add\n        /* \"#utility.yul\":748:758   */\n      dup1\n      dup3\n      gt\n        /* \"#utility.yul\":745:781   */\n      iszero\n      tag_31\n      jumpi\n        /* \"#utility.yul\":761:779   */\n      tag_31\n      tag_23\n      jump\t// in\n    tag_31:\n        /* \"#utility.yul\":662:787   */\n      swap3\n      swap2\n      pop\n      pop\n      jump\t// out\n        /* \"#utility.yul\":792:920   */\n    tag_22:\n        /* \"#utility.yul\":859:868   */\n      dup2\n      dup2\n      sub\n        /* \"#utility.yul\":880:891   */\n      dup2\n      dup2\n      gt\n        /* \"#utility.yul\":877:914   */\n      iszero\n      tag_31\n      jumpi\n        /* \"#utility.yul\":894:912   */\n      tag_31\n      tag_23\n      jump\t// in\n\n    auxdata: 0xa264697066735822122005ffd35557033a5e3487380d734c57f68ff5ce25c4743d4ea760c8ade91fbaf864736f6c63430008110033\n}\n",
				"bytecode": {
					"linkReferences": {},
					"object": "608060405234801561001057600080fd5b50610172806100206000396000f3fe608060405234801561001057600080fd5b50600436106100365760003560e01c806306b034e91461003b5780635270312a14610067575b600080fd5b61004e6100493660046100d8565b61007a565b6040805192835290151560208301520160405180910390f35b61004e6100753660046100d8565b6100ac565b60008083830180610093576000600192509250506100a5565b61009d8486610110565b600092509250505b9250929050565b600080838311156100c357506000905060016100a5565b6100cd8385610129565b946000945092505050565b600080604083850312156100eb57600080fd5b50508035926020909101359150565b634e487b7160e01b600052601160045260246000fd5b80820180821115610123576101236100fa565b92915050565b81810381811115610123576101236100fa56fea264697066735822122005ffd35557033a5e3487380d734c57f68ff5ce25c4743d4ea760c8ade91fbaf864736f6c63430008110033",
					"opcodes": "PUSH1 0x80 PUSH1 0x40 MSTORE CALLVALUE DUP1 ISZERO PUSH2 0x10 JUMPI PUSH1 0x0 DUP1 REVERT JUMPDEST POP PUSH2 0x172 DUP1 PUSH2 0x20 PUSH1 0x0 CODECOPY PUSH1 0x0 RETURN INVALID PUSH1 0x80 PUSH1 0x40 MSTORE CALLVALUE DUP1 ISZERO PUSH2 0x10 JUMPI PUSH1 0x0 DUP1 REVERT JUMPDEST POP PUSH1 0x4 CALLDATASIZE LT PUSH2 0x36 JUMPI PUSH1 0x0 CALLDATALOAD PUSH1 0xE0 SHR DUP1 PUSH4 0x6B034E9 EQ PUSH2 0x3B JUMPI DUP1 PUSH4 0x5270312A EQ PUSH2 0x67 JUMPI JUMPDEST PUSH1 0x0 DUP1 REVERT JUMPDEST PUSH2 0x4E PUSH2 0x49 CALLDATASIZE PUSH1 0x4 PUSH2 0xD8 JUMP JUMPDEST PUSH2 0x7A JUMP JUMPDEST PUSH1 0x40 DUP1 MLOAD SWAP3 DUP4 MSTORE SWAP1 ISZERO ISZERO PUSH1 0x20 DUP4 ADD MSTORE ADD PUSH1 0x40 MLOAD DUP1 SWAP2 SUB SWAP1 RETURN JUMPDEST PUSH2 0x4E PUSH2 0x75 CALLDATASIZE PUSH1 0x4 PUSH2 0xD8 JUMP JUMPDEST PUSH2 0xAC JUMP JUMPDEST PUSH1 0x0 DUP1 DUP4 DUP4 ADD DUP1 PUSH2 0x93 JUMPI PUSH1 0x0 PUSH1 0x1 SWAP3 POP SWAP3 POP POP PUSH2 0xA5 JUMP JUMPDEST PUSH2 0x9D DUP5 DUP7 PUSH2 0x110 JUMP JUMPDEST PUSH1 0x0 SWAP3 POP SWAP3 POP POP JUMPDEST SWAP3 POP SWAP3 SWAP1 POP JUMP JUMPDEST PUSH1 0x0 DUP1 DUP4 DUP4 GT ISZERO PUSH2 0xC3 JUMPI POP PUSH1 0x0 SWAP1 POP PUSH1 0x1 PUSH2 0xA5 JUMP JUMPDEST PUSH2 0xCD DUP4 DUP6 PUSH2 0x129 JUMP JUMPDEST SWAP5 PUSH1 0x0 SWAP5 POP SWAP3 POP POP POP JUMP JUMPDEST PUSH1 0x0 DUP1 PUSH1 0x40 DUP4 DUP6 SUB SLT ISZERO PUSH2 0xEB JUMPI PUSH1 0x0 DUP1 REVERT JUMPDEST POP POP DUP1 CALLDATALOAD SWAP3 PUSH1 0x20 SWAP1 SWAP2 ADD CALLDATALOAD SWAP2 POP JUMP JUMPDEST PUSH4 0x4E487B71 PUSH1 0xE0 SHL PUSH1 0x0 MSTORE PUSH1 0x11 PUSH1 0x4 MSTORE PUSH1 0x24 PUSH1 0x0 REVERT JUMPDEST DUP1 DUP3 ADD DUP1 DUP3 GT ISZERO PUSH2 0x123 JUMPI PUSH2 0x123 PUSH2 0xFA JUMP JUMPDEST SWAP3 SWAP2 POP POP JUMP JUMPDEST DUP2 DUP2 SUB DUP2 DUP2 GT ISZERO PUSH2 0x123 JUMPI PUSH2 0x123 PUSH2 0xFA JUMP INVALID LOG2 PUSH5 0x6970667358 0x22 SLT KECCAK256 SDIV SELFDESTRUCT 0xD3 SSTORE JUMPI SUB GASPRICE 0x5E CALLVALUE DUP8 CODESIZE 0xD PUSH20 0x4C57F68FF5CE25C4743D4EA760C8ADE91FBAF864 PUSH20 0x6F6C634300081100330000000000000000000000 "
				},
				"gasEstimates": {
					"creation": {
						"codeDepositCost": "74000",
						"executionCost": "123",
						"totalCost": "74123"
					},
					"external": {
						"adder(uint256,uint256)": "427",
						"subtractor(uint256,uint256)": "440"
					}
				},
				"methodIdentifiers": {
					"adder(uint256,uint256)": "06b034e9",
					"subtractor(uint256,uint256)": "5270312a"
				}
			},
			"storageLayout": {
				"storage": [],
				"types": null
			},
			"userdoc": {
				"kind": "user",
				"methods": {},
				"version": 1
			}
		}
	}
}