{
	"contracts/Structs.sol": {
		"Struct": {
			"abi": [
				{
					"inputs": [
						{
							"internalType": "address",
							"name": "",
							"type": "address"
						}
					],
					"name": "NotFound",
					"type": "error"
				},
				{
					"inputs": [
						{
							"internalType": "address",
							"name": "",
							"type": "address"
						}
					],
					"name": "assignPerson",
					"outputs": [
						{
							"internalType": "string",
							"name": "name",
							"type": "string"
						},
						{
							"internalType": "uint8",
							"name": "age",
							"type": "uint8"
						},
						{
							"internalType": "bool",
							"name": "exists",
							"type": "bool"
						}
					],
					"stateMutability": "view",
					"type": "function"
				},
				{
					"inputs": [
						{
							"internalType": "string",
							"name": "option",
							"type": "string"
						},
						{
							"internalType": "address",
							"name": "addr",
							"type": "address"
						}
					],
					"name": "showMessage",
					"outputs": [
						{
							"internalType": "string",
							"name": "name",
							"type": "string"
						},
						{
							"internalType": "uint8",
							"name": "",
							"type": "uint8"
						}
					],
					"stateMutability": "view",
					"type": "function"
				},
				{
					"inputs": [
						{
							"internalType": "string",
							"name": "name",
							"type": "string"
						},
						{
							"internalType": "uint8",
							"name": "age",
							"type": "uint8"
						}
					],
					"name": "sstrFunc",
					"outputs": [],
					"stateMutability": "nonpayable",
					"type": "function"
				}
			],
			"devdoc": {
				"kind": "dev",
				"methods": {},
				"version": 1
			},
			"evm": {
				"assembly": "    /* \"contracts/Structs.sol\":58:1067  contract Struct{... */\n  mstore(0x40, 0x80)\n  callvalue\n  dup1\n  iszero\n  tag_1\n  jumpi\n  0x00\n  dup1\n  revert\ntag_1:\n  pop\n  dataSize(sub_0)\n  dup1\n  dataOffset(sub_0)\n  0x00\n  codecopy\n  0x00\n  return\nstop\n\nsub_0: assembly {\n        /* \"contracts/Structs.sol\":58:1067  contract Struct{... */\n      mstore(0x40, 0x80)\n      callvalue\n      dup1\n      iszero\n      tag_1\n      jumpi\n      0x00\n      dup1\n      revert\n    tag_1:\n      pop\n      jumpi(tag_2, lt(calldatasize, 0x04))\n      shr(0xe0, calldataload(0x00))\n      dup1\n      0x19342f71\n      eq\n      tag_3\n      jumpi\n      dup1\n      0x68d99d53\n      eq\n      tag_4\n      jumpi\n      dup1\n      0x94a08c0a\n      eq\n      tag_5\n      jumpi\n    tag_2:\n      0x00\n      dup1\n      revert\n        /* \"contracts/Structs.sol\":217:385  function sstrFunc(string memory name, uint8 age) external{... */\n    tag_3:\n      tag_6\n      tag_7\n      calldatasize\n      0x04\n      tag_8\n      jump\t// in\n    tag_7:\n      tag_9\n      jump\t// in\n    tag_6:\n      stop\n        /* \"contracts/Structs.sol\":165:211  mapping(address => Person) public assignPerson */\n    tag_4:\n      tag_10\n      tag_11\n      calldatasize\n      0x04\n      tag_12\n      jump\t// in\n    tag_11:\n      tag_13\n      jump\t// in\n    tag_10:\n      mload(0x40)\n      tag_14\n      swap4\n      swap3\n      swap2\n      swap1\n      tag_15\n      jump\t// in\n    tag_14:\n      mload(0x40)\n      dup1\n      swap2\n      sub\n      swap1\n      return\n        /* \"contracts/Structs.sol\":419:1065  function showMessage(string memory option, address addr) external view returns(string memory name, uint8){... */\n    tag_5:\n      tag_16\n      tag_17\n      calldatasize\n      0x04\n      tag_18\n      jump\t// in\n    tag_17:\n      tag_19\n      jump\t// in\n    tag_16:\n      mload(0x40)\n      tag_14\n      swap3\n      swap2\n      swap1\n      tag_21\n      jump\t// in\n        /* \"contracts/Structs.sol\":217:385  function sstrFunc(string memory name, uint8 age) external{... */\n    tag_9:\n        /* \"contracts/Structs.sol\":309:331  Person(name,age, true) */\n      0x40\n      dup1\n      mload\n      0x60\n      dup2\n      add\n      dup3\n      mstore\n      dup4\n      dup2\n      mstore\n      0xff\n      dup4\n      and\n      0x20\n      dup1\n      dup4\n      add\n      swap2\n      swap1\n      swap2\n      mstore\n        /* \"contracts/Structs.sol\":326:330  true */\n      0x01\n        /* \"contracts/Structs.sol\":309:331  Person(name,age, true) */\n      dup3\n      dup5\n      add\n      mstore\n        /* \"contracts/Structs.sol\":297:307  msg.sender */\n      caller\n      0x00\n        /* \"contracts/Structs.sol\":284:308  assignPerson[msg.sender] */\n      swap1\n      dup2\n      mstore\n      swap1\n      dup2\n      swap1\n      mstore\n      swap2\n      swap1\n      swap2\n      keccak256\n        /* \"contracts/Structs.sol\":284:331  assignPerson[msg.sender]=Person(name,age, true) */\n      dup2\n      mload\n        /* \"contracts/Structs.sol\":284:308  assignPerson[msg.sender] */\n      dup2\n      swap1\n        /* \"contracts/Structs.sol\":284:331  assignPerson[msg.sender]=Person(name,age, true) */\n      tag_23\n      swap1\n        /* \"contracts/Structs.sol\":284:308  assignPerson[msg.sender] */\n      dup3\n        /* \"contracts/Structs.sol\":284:331  assignPerson[msg.sender]=Person(name,age, true) */\n      tag_24\n      jump\t// in\n    tag_23:\n      pop\n      0x20\n      dup3\n      add\n      mload\n      0x01\n      swap1\n      swap2\n      add\n      dup1\n      sload\n      0x40\n      swap1\n      swap4\n      add\n      mload\n      iszero\n      iszero\n      0x0100\n      mul\n      not(0xffff)\n      swap1\n      swap4\n      and\n      0xff\n      swap1\n      swap3\n      and\n      swap2\n      swap1\n      swap2\n      or\n      swap2\n      swap1\n      swap2\n      or\n      swap1\n      sstore\n      pop\n      pop\n        /* \"contracts/Structs.sol\":217:385  function sstrFunc(string memory name, uint8 age) external{... */\n      jump\t// out\n        /* \"contracts/Structs.sol\":165:211  mapping(address => Person) public assignPerson */\n    tag_13:\n      0x00\n      0x20\n      dup2\n      swap1\n      mstore\n      swap1\n      dup2\n      mstore\n      0x40\n      swap1\n      keccak256\n      dup1\n      sload\n      dup2\n      swap1\n      tag_25\n      swap1\n      tag_26\n      jump\t// in\n    tag_25:\n      dup1\n      0x1f\n      add\n      0x20\n      dup1\n      swap2\n      div\n      mul\n      0x20\n      add\n      mload(0x40)\n      swap1\n      dup2\n      add\n      0x40\n      mstore\n      dup1\n      swap3\n      swap2\n      swap1\n      dup2\n      dup2\n      mstore\n      0x20\n      add\n      dup3\n      dup1\n      sload\n      tag_27\n      swap1\n      tag_26\n      jump\t// in\n    tag_27:\n      dup1\n      iszero\n      tag_28\n      jumpi\n      dup1\n      0x1f\n      lt\n      tag_29\n      jumpi\n      0x0100\n      dup1\n      dup4\n      sload\n      div\n      mul\n      dup4\n      mstore\n      swap2\n      0x20\n      add\n      swap2\n      jump(tag_28)\n    tag_29:\n      dup3\n      add\n      swap2\n      swap1\n      0x00\n      mstore\n      keccak256(0x00, 0x20)\n      swap1\n    tag_30:\n      dup2\n      sload\n      dup2\n      mstore\n      swap1\n      0x01\n      add\n      swap1\n      0x20\n      add\n      dup1\n      dup4\n      gt\n      tag_30\n      jumpi\n      dup3\n      swap1\n      sub\n      0x1f\n      and\n      dup3\n      add\n      swap2\n    tag_28:\n      pop\n      pop\n      pop\n      0x01\n      swap1\n      swap4\n      add\n      sload\n      swap2\n      swap3\n      pop\n      pop\n      0xff\n      dup1\n      dup3\n      and\n      swap2\n      0x0100\n      swap1\n      div\n      and\n      dup4\n      jump\t// out\n        /* \"contracts/Structs.sol\":419:1065  function showMessage(string memory option, address addr) external view returns(string memory name, uint8){... */\n    tag_19:\n      sub(shl(0xa0, 0x01), 0x01)\n        /* \"contracts/Structs.sol\":538:556  assignPerson[addr] */\n      dup2\n      and\n        /* \"contracts/Structs.sol\":518:523  uint8 */\n      0x00\n        /* \"contracts/Structs.sol\":538:556  assignPerson[addr] */\n      swap1\n      dup2\n      mstore\n      0x20\n      dup2\n      swap1\n      mstore\n      0x40\n      dup2\n      keccak256\n        /* \"contracts/Structs.sol\":538:563  assignPerson[addr].exists */\n      0x01\n      add\n      sload\n        /* \"contracts/Structs.sol\":498:516  string memory name */\n      0x60\n      swap2\n        /* \"contracts/Structs.sol\":518:523  uint8 */\n      swap1\n        /* \"contracts/Structs.sol\":538:563  assignPerson[addr].exists */\n      0x0100\n      swap1\n      div\n      0xff\n      and\n        /* \"contracts/Structs.sol\":534:1059  if(!assignPerson[addr].exists){... */\n      tag_32\n      jumpi\n        /* \"contracts/Structs.sol\":585:599  NotFound(addr) */\n      mload(0x40)\n      shl(0xe1, 0x4b2990ed)\n      dup2\n      mstore\n      sub(shl(0xa0, 0x01), 0x01)\n        /* \"#utility.yul\":5785:5817   */\n      dup5\n      and\n        /* \"contracts/Structs.sol\":585:599  NotFound(addr) */\n      0x04\n      dup3\n      add\n        /* \"#utility.yul\":5767:5818   */\n      mstore\n        /* \"#utility.yul\":5740:5758   */\n      0x24\n      add\n        /* \"contracts/Structs.sol\":585:599  NotFound(addr) */\n      mload(0x40)\n      dup1\n      swap2\n      sub\n      swap1\n      revert\n        /* \"contracts/Structs.sol\":534:1059  if(!assignPerson[addr].exists){... */\n    tag_32:\n        /* \"contracts/Structs.sol\":674:698  abi.encodePacked(\"name\") */\n      mload(0x40)\n      shl(0xe0, 0x6e616d65)\n      0x20\n      dup3\n      add\n        /* \"#utility.yul\":6031:6050   */\n      mstore\n        /* \"#utility.yul\":6066:6077   */\n      0x24\n      add\n        /* \"contracts/Structs.sol\":674:698  abi.encodePacked(\"name\") */\n      mload(0x40)\n      0x20\n      dup2\n      dup4\n      sub\n      sub\n      dup2\n      mstore\n      swap1\n      0x40\n      mstore\n        /* \"contracts/Structs.sol\":664:699  keccak256(abi.encodePacked(\"name\")) */\n      dup1\n      mload\n      swap1\n      0x20\n      add\n      keccak256\n        /* \"contracts/Structs.sol\":654:660  option */\n      dup5\n        /* \"contracts/Structs.sol\":637:661  abi.encodePacked(option) */\n      add(0x20, mload(0x40))\n      tag_38\n      swap2\n      swap1\n      tag_39\n      jump\t// in\n    tag_38:\n      mload(0x40)\n      0x20\n      dup2\n      dup4\n      sub\n      sub\n      dup2\n      mstore\n      swap1\n      0x40\n      mstore\n        /* \"contracts/Structs.sol\":627:662  keccak256(abi.encodePacked(option)) */\n      dup1\n      mload\n      swap1\n      0x20\n      add\n      keccak256\n        /* \"contracts/Structs.sol\":627:699  keccak256(abi.encodePacked(option))==keccak256(abi.encodePacked(\"name\")) */\n      sub\n        /* \"contracts/Structs.sol\":624:1059  if(keccak256(abi.encodePacked(option))==keccak256(abi.encodePacked(\"name\"))){... */\n      tag_40\n      jumpi\n      sub(shl(0xa0, 0x01), 0x01)\n        /* \"contracts/Structs.sol\":736:754  assignPerson[addr] */\n      dup4\n      and\n        /* \"contracts/Structs.sol\":714:735  string memory rtrName */\n      0x00\n        /* \"contracts/Structs.sol\":736:754  assignPerson[addr] */\n      swap1\n      dup2\n      mstore\n      0x20\n      dup2\n      swap1\n      mstore\n      0x40\n      dup2\n      keccak256\n        /* \"contracts/Structs.sol\":714:759  string memory rtrName=assignPerson[addr].name */\n      dup1\n      sload\n      tag_41\n      swap1\n      tag_26\n      jump\t// in\n    tag_41:\n      dup1\n      0x1f\n      add\n      0x20\n      dup1\n      swap2\n      div\n      mul\n      0x20\n      add\n      mload(0x40)\n      swap1\n      dup2\n      add\n      0x40\n      mstore\n      dup1\n      swap3\n      swap2\n      swap1\n      dup2\n      dup2\n      mstore\n      0x20\n      add\n      dup3\n      dup1\n      sload\n      tag_42\n      swap1\n      tag_26\n      jump\t// in\n    tag_42:\n      dup1\n      iszero\n      tag_43\n      jumpi\n      dup1\n      0x1f\n      lt\n      tag_44\n      jumpi\n      0x0100\n      dup1\n      dup4\n      sload\n      div\n      mul\n      dup4\n      mstore\n      swap2\n      0x20\n      add\n      swap2\n      jump(tag_43)\n    tag_44:\n      dup3\n      add\n      swap2\n      swap1\n      0x00\n      mstore\n      keccak256(0x00, 0x20)\n      swap1\n    tag_45:\n      dup2\n      sload\n      dup2\n      mstore\n      swap1\n      0x01\n      add\n      swap1\n      0x20\n      add\n      dup1\n      dup4\n      gt\n      tag_45\n      jumpi\n      dup3\n      swap1\n      sub\n      0x1f\n      and\n      dup3\n      add\n      swap2\n    tag_43:\n      pop\n      swap4\n      swap7\n      pop\n        /* \"contracts/Structs.sol\":790:791  0 */\n      0x00\n      swap6\n      pop\n        /* \"contracts/Structs.sol\":773:792  return (rtrName, 0) */\n      tag_51\n      swap5\n      pop\n      pop\n      pop\n      pop\n      pop\n      jump\n        /* \"contracts/Structs.sol\":624:1059  if(keccak256(abi.encodePacked(option))==keccak256(abi.encodePacked(\"name\"))){... */\n    tag_40:\n        /* \"contracts/Structs.sol\":867:890  abi.encodePacked(\"age\") */\n      mload(0x40)\n      shl(0xe8, 0x616765)\n      0x20\n      dup3\n      add\n        /* \"#utility.yul\":6598:6616   */\n      mstore\n        /* \"#utility.yul\":6632:6643   */\n      0x23\n      add\n        /* \"contracts/Structs.sol\":867:890  abi.encodePacked(\"age\") */\n      mload(0x40)\n      0x20\n      dup2\n      dup4\n      sub\n      sub\n      dup2\n      mstore\n      swap1\n      0x40\n      mstore\n        /* \"contracts/Structs.sol\":857:891  keccak256(abi.encodePacked(\"age\")) */\n      dup1\n      mload\n      swap1\n      0x20\n      add\n      keccak256\n        /* \"contracts/Structs.sol\":847:853  option */\n      dup5\n        /* \"contracts/Structs.sol\":830:854  abi.encodePacked(option) */\n      add(0x20, mload(0x40))\n      tag_49\n      swap2\n      swap1\n      tag_39\n      jump\t// in\n    tag_49:\n      mload(0x40)\n      0x20\n      dup2\n      dup4\n      sub\n      sub\n      dup2\n      mstore\n      swap1\n      0x40\n      mstore\n        /* \"contracts/Structs.sol\":820:855  keccak256(abi.encodePacked(option)) */\n      dup1\n      mload\n      swap1\n      0x20\n      add\n      keccak256\n        /* \"contracts/Structs.sol\":820:891  keccak256(abi.encodePacked(option))==keccak256(abi.encodePacked(\"age\")) */\n      sub\n        /* \"contracts/Structs.sol\":817:1059  if(keccak256(abi.encodePacked(option))==keccak256(abi.encodePacked(\"age\"))){... */\n      tag_50\n      jumpi\n      pop\n      pop\n      sub(shl(0xa0, 0x01), 0x01)\n        /* \"contracts/Structs.sol\":919:937  assignPerson[addr] */\n      dup2\n      and\n        /* \"contracts/Structs.sol\":906:918  uint8 rtrAge */\n      0x00\n        /* \"contracts/Structs.sol\":919:937  assignPerson[addr] */\n      swap1\n      dup2\n      mstore\n      0x20\n      dup2\n      dup2\n      mstore\n      0x40\n      dup1\n      dup4\n      keccak256\n        /* \"contracts/Structs.sol\":919:941  assignPerson[addr].age */\n      0x01\n      add\n      sload\n        /* \"contracts/Structs.sol\":955:974  return (\"\", rtrAge) */\n      dup2\n      mload\n      swap3\n      dup4\n      add\n      swap1\n      swap2\n      mstore\n      swap2\n      dup2\n      mstore\n      swap1\n        /* \"contracts/Structs.sol\":919:941  assignPerson[addr].age */\n      0xff\n      and\n        /* \"contracts/Structs.sol\":955:974  return (\"\", rtrAge) */\n      jump(tag_51)\n        /* \"contracts/Structs.sol\":817:1059  if(keccak256(abi.encodePacked(option))==keccak256(abi.encodePacked(\"age\"))){... */\n    tag_50:\n      pop\n      pop\n        /* \"contracts/Structs.sol\":1021:1048  return (\"pick a option\", 0) */\n      0x40\n      dup1\n      mload\n      dup1\n      dup3\n      add\n      swap1\n      swap2\n      mstore\n      0x0d\n      dup2\n      mstore\n      shl(0x99, 0x3834b1b590309037b83a34b7b7)\n      0x20\n      dup3\n      add\n      mstore\n        /* \"contracts/Structs.sol\":1046:1047  0 */\n      0x00\n        /* \"contracts/Structs.sol\":817:1059  if(keccak256(abi.encodePacked(option))==keccak256(abi.encodePacked(\"age\"))){... */\n    tag_51:\n        /* \"contracts/Structs.sol\":419:1065  function showMessage(string memory option, address addr) external view returns(string memory name, uint8){... */\n      swap3\n      pop\n      swap3\n      swap1\n      pop\n      jump\t// out\n        /* \"#utility.yul\":14:141   */\n    tag_52:\n        /* \"#utility.yul\":75:85   */\n      0x4e487b71\n        /* \"#utility.yul\":70:73   */\n      0xe0\n        /* \"#utility.yul\":66:86   */\n      shl\n        /* \"#utility.yul\":63:64   */\n      0x00\n        /* \"#utility.yul\":56:87   */\n      mstore\n        /* \"#utility.yul\":106:110   */\n      0x41\n        /* \"#utility.yul\":103:104   */\n      0x04\n        /* \"#utility.yul\":96:111   */\n      mstore\n        /* \"#utility.yul\":130:134   */\n      0x24\n        /* \"#utility.yul\":127:128   */\n      0x00\n        /* \"#utility.yul\":120:135   */\n      revert\n        /* \"#utility.yul\":146:872   */\n    tag_53:\n        /* \"#utility.yul\":189:194   */\n      0x00\n        /* \"#utility.yul\":242:245   */\n      dup3\n        /* \"#utility.yul\":235:239   */\n      0x1f\n        /* \"#utility.yul\":227:233   */\n      dup4\n        /* \"#utility.yul\":223:240   */\n      add\n        /* \"#utility.yul\":219:246   */\n      slt\n        /* \"#utility.yul\":209:264   */\n      tag_62\n      jumpi\n        /* \"#utility.yul\":260:261   */\n      0x00\n        /* \"#utility.yul\":257:258   */\n      dup1\n        /* \"#utility.yul\":250:262   */\n      revert\n        /* \"#utility.yul\":209:264   */\n    tag_62:\n        /* \"#utility.yul\":300:306   */\n      dup2\n        /* \"#utility.yul\":287:307   */\n      calldataload\n        /* \"#utility.yul\":330:348   */\n      0xffffffffffffffff\n        /* \"#utility.yul\":322:328   */\n      dup2\n        /* \"#utility.yul\":319:349   */\n      gt\n        /* \"#utility.yul\":316:372   */\n      iszero\n      tag_64\n      jumpi\n        /* \"#utility.yul\":352:370   */\n      tag_64\n      tag_52\n      jump\t// in\n    tag_64:\n        /* \"#utility.yul\":401:403   */\n      0x40\n        /* \"#utility.yul\":395:404   */\n      mload\n        /* \"#utility.yul\":493:495   */\n      0x1f\n        /* \"#utility.yul\":455:472   */\n      dup3\n      add\n      not(0x1f)\n        /* \"#utility.yul\":451:482   */\n      swap1\n      dup2\n      and\n        /* \"#utility.yul\":484:486   */\n      0x3f\n        /* \"#utility.yul\":447:487   */\n      add\n        /* \"#utility.yul\":443:497   */\n      and\n        /* \"#utility.yul\":431:498   */\n      dup2\n      add\n        /* \"#utility.yul\":528:546   */\n      0xffffffffffffffff\n        /* \"#utility.yul\":513:547   */\n      dup2\n      gt\n        /* \"#utility.yul\":549:571   */\n      dup3\n      dup3\n      lt\n        /* \"#utility.yul\":510:572   */\n      or\n        /* \"#utility.yul\":507:595   */\n      iszero\n      tag_66\n      jumpi\n        /* \"#utility.yul\":575:593   */\n      tag_66\n      tag_52\n      jump\t// in\n    tag_66:\n        /* \"#utility.yul\":611:613   */\n      0x40\n        /* \"#utility.yul\":604:626   */\n      mstore\n        /* \"#utility.yul\":635:657   */\n      dup2\n      dup2\n      mstore\n        /* \"#utility.yul\":676:695   */\n      dup4\n      dup3\n      add\n        /* \"#utility.yul\":697:701   */\n      0x20\n        /* \"#utility.yul\":672:702   */\n      add\n        /* \"#utility.yul\":669:708   */\n      dup6\n      lt\n        /* \"#utility.yul\":666:725   */\n      iszero\n      tag_67\n      jumpi\n        /* \"#utility.yul\":721:722   */\n      0x00\n        /* \"#utility.yul\":718:719   */\n      dup1\n        /* \"#utility.yul\":711:723   */\n      revert\n        /* \"#utility.yul\":666:725   */\n    tag_67:\n        /* \"#utility.yul\":785:791   */\n      dup2\n        /* \"#utility.yul\":778:782   */\n      0x20\n        /* \"#utility.yul\":770:776   */\n      dup6\n        /* \"#utility.yul\":766:783   */\n      add\n        /* \"#utility.yul\":759:763   */\n      0x20\n        /* \"#utility.yul\":751:757   */\n      dup4\n        /* \"#utility.yul\":747:764   */\n      add\n        /* \"#utility.yul\":734:792   */\n      calldatacopy\n        /* \"#utility.yul\":840:841   */\n      0x00\n        /* \"#utility.yul\":812:831   */\n      swap2\n      dup2\n      add\n        /* \"#utility.yul\":833:837   */\n      0x20\n        /* \"#utility.yul\":808:838   */\n      add\n        /* \"#utility.yul\":801:842   */\n      swap2\n      swap1\n      swap2\n      mstore\n        /* \"#utility.yul\":816:822   */\n      swap4\n        /* \"#utility.yul\":146:872   */\n      swap3\n      pop\n      pop\n      pop\n      jump\t// out\n        /* \"#utility.yul\":877:1356   */\n    tag_8:\n        /* \"#utility.yul\":953:959   */\n      0x00\n        /* \"#utility.yul\":961:967   */\n      dup1\n        /* \"#utility.yul\":1014:1016   */\n      0x40\n        /* \"#utility.yul\":1002:1011   */\n      dup4\n        /* \"#utility.yul\":993:1000   */\n      dup6\n        /* \"#utility.yul\":989:1012   */\n      sub\n        /* \"#utility.yul\":985:1017   */\n      slt\n        /* \"#utility.yul\":982:1034   */\n      iszero\n      tag_69\n      jumpi\n        /* \"#utility.yul\":1030:1031   */\n      0x00\n        /* \"#utility.yul\":1027:1028   */\n      dup1\n        /* \"#utility.yul\":1020:1032   */\n      revert\n        /* \"#utility.yul\":982:1034   */\n    tag_69:\n        /* \"#utility.yul\":1070:1079   */\n      dup3\n        /* \"#utility.yul\":1057:1080   */\n      calldataload\n        /* \"#utility.yul\":1103:1121   */\n      0xffffffffffffffff\n        /* \"#utility.yul\":1095:1101   */\n      dup2\n        /* \"#utility.yul\":1092:1122   */\n      gt\n        /* \"#utility.yul\":1089:1139   */\n      iszero\n      tag_70\n      jumpi\n        /* \"#utility.yul\":1135:1136   */\n      0x00\n        /* \"#utility.yul\":1132:1133   */\n      dup1\n        /* \"#utility.yul\":1125:1137   */\n      revert\n        /* \"#utility.yul\":1089:1139   */\n    tag_70:\n        /* \"#utility.yul\":1158:1208   */\n      tag_71\n        /* \"#utility.yul\":1200:1207   */\n      dup6\n        /* \"#utility.yul\":1191:1197   */\n      dup3\n        /* \"#utility.yul\":1180:1189   */\n      dup7\n        /* \"#utility.yul\":1176:1198   */\n      add\n        /* \"#utility.yul\":1158:1208   */\n      tag_53\n      jump\t// in\n    tag_71:\n        /* \"#utility.yul\":1148:1208   */\n      swap3\n      pop\n      pop\n        /* \"#utility.yul\":1258:1260   */\n      0x20\n        /* \"#utility.yul\":1247:1256   */\n      dup4\n        /* \"#utility.yul\":1243:1261   */\n      add\n        /* \"#utility.yul\":1230:1262   */\n      calldataload\n        /* \"#utility.yul\":1302:1306   */\n      0xff\n        /* \"#utility.yul\":1295:1300   */\n      dup2\n        /* \"#utility.yul\":1291:1307   */\n      and\n        /* \"#utility.yul\":1284:1289   */\n      dup2\n        /* \"#utility.yul\":1281:1308   */\n      eq\n        /* \"#utility.yul\":1271:1326   */\n      tag_72\n      jumpi\n        /* \"#utility.yul\":1322:1323   */\n      0x00\n        /* \"#utility.yul\":1319:1320   */\n      dup1\n        /* \"#utility.yul\":1312:1324   */\n      revert\n        /* \"#utility.yul\":1271:1326   */\n    tag_72:\n        /* \"#utility.yul\":1345:1350   */\n      dup1\n        /* \"#utility.yul\":1335:1350   */\n      swap2\n      pop\n      pop\n        /* \"#utility.yul\":877:1356   */\n      swap3\n      pop\n      swap3\n      swap1\n      pop\n      jump\t// out\n        /* \"#utility.yul\":1361:1534   */\n    tag_54:\n        /* \"#utility.yul\":1429:1449   */\n      dup1\n      calldataload\n      sub(shl(0xa0, 0x01), 0x01)\n        /* \"#utility.yul\":1478:1509   */\n      dup2\n      and\n        /* \"#utility.yul\":1468:1510   */\n      dup2\n      eq\n        /* \"#utility.yul\":1458:1528   */\n      tag_74\n      jumpi\n        /* \"#utility.yul\":1524:1525   */\n      0x00\n        /* \"#utility.yul\":1521:1522   */\n      dup1\n        /* \"#utility.yul\":1514:1526   */\n      revert\n        /* \"#utility.yul\":1458:1528   */\n    tag_74:\n        /* \"#utility.yul\":1361:1534   */\n      swap2\n      swap1\n      pop\n      jump\t// out\n        /* \"#utility.yul\":1539:1725   */\n    tag_12:\n        /* \"#utility.yul\":1598:1604   */\n      0x00\n        /* \"#utility.yul\":1651:1653   */\n      0x20\n        /* \"#utility.yul\":1639:1648   */\n      dup3\n        /* \"#utility.yul\":1630:1637   */\n      dup5\n        /* \"#utility.yul\":1626:1649   */\n      sub\n        /* \"#utility.yul\":1622:1654   */\n      slt\n        /* \"#utility.yul\":1619:1671   */\n      iszero\n      tag_76\n      jumpi\n        /* \"#utility.yul\":1667:1668   */\n      0x00\n        /* \"#utility.yul\":1664:1665   */\n      dup1\n        /* \"#utility.yul\":1657:1669   */\n      revert\n        /* \"#utility.yul\":1619:1671   */\n    tag_76:\n        /* \"#utility.yul\":1690:1719   */\n      tag_77\n        /* \"#utility.yul\":1709:1718   */\n      dup3\n        /* \"#utility.yul\":1690:1719   */\n      tag_54\n      jump\t// in\n    tag_77:\n        /* \"#utility.yul\":1680:1719   */\n      swap4\n        /* \"#utility.yul\":1539:1725   */\n      swap3\n      pop\n      pop\n      pop\n      jump\t// out\n        /* \"#utility.yul\":1730:2019   */\n    tag_55:\n        /* \"#utility.yul\":1772:1775   */\n      0x00\n        /* \"#utility.yul\":1810:1815   */\n      dup2\n        /* \"#utility.yul\":1804:1816   */\n      mload\n        /* \"#utility.yul\":1837:1843   */\n      dup1\n        /* \"#utility.yul\":1832:1835   */\n      dup5\n        /* \"#utility.yul\":1825:1844   */\n      mstore\n        /* \"#utility.yul\":1893:1899   */\n      dup1\n        /* \"#utility.yul\":1886:1890   */\n      0x20\n        /* \"#utility.yul\":1879:1884   */\n      dup5\n        /* \"#utility.yul\":1875:1891   */\n      add\n        /* \"#utility.yul\":1868:1872   */\n      0x20\n        /* \"#utility.yul\":1863:1866   */\n      dup7\n        /* \"#utility.yul\":1859:1873   */\n      add\n        /* \"#utility.yul\":1853:1900   */\n      mcopy\n        /* \"#utility.yul\":1945:1946   */\n      0x00\n        /* \"#utility.yul\":1938:1942   */\n      0x20\n        /* \"#utility.yul\":1929:1935   */\n      dup3\n        /* \"#utility.yul\":1924:1927   */\n      dup7\n        /* \"#utility.yul\":1920:1936   */\n      add\n        /* \"#utility.yul\":1916:1943   */\n      add\n        /* \"#utility.yul\":1909:1947   */\n      mstore\n        /* \"#utility.yul\":2008:2012   */\n      0x20\n        /* \"#utility.yul\":2001:2003   */\n      0x1f\n        /* \"#utility.yul\":1997:2004   */\n      not\n        /* \"#utility.yul\":1992:1994   */\n      0x1f\n        /* \"#utility.yul\":1984:1990   */\n      dup4\n        /* \"#utility.yul\":1980:1995   */\n      add\n        /* \"#utility.yul\":1976:2005   */\n      and\n        /* \"#utility.yul\":1971:1974   */\n      dup6\n        /* \"#utility.yul\":1967:2006   */\n      add\n        /* \"#utility.yul\":1963:2013   */\n      add\n        /* \"#utility.yul\":1956:2013   */\n      swap2\n      pop\n      pop\n        /* \"#utility.yul\":1730:2019   */\n      swap3\n      swap2\n      pop\n      pop\n      jump\t// out\n        /* \"#utility.yul\":2024:2403   */\n    tag_15:\n        /* \"#utility.yul\":2219:2221   */\n      0x60\n        /* \"#utility.yul\":2208:2217   */\n      dup2\n        /* \"#utility.yul\":2201:2222   */\n      mstore\n        /* \"#utility.yul\":2182:2186   */\n      0x00\n        /* \"#utility.yul\":2239:2284   */\n      tag_80\n        /* \"#utility.yul\":2280:2282   */\n      0x60\n        /* \"#utility.yul\":2269:2278   */\n      dup4\n        /* \"#utility.yul\":2265:2283   */\n      add\n        /* \"#utility.yul\":2257:2263   */\n      dup7\n        /* \"#utility.yul\":2239:2284   */\n      tag_55\n      jump\t// in\n    tag_80:\n        /* \"#utility.yul\":2332:2336   */\n      0xff\n        /* \"#utility.yul\":2320:2337   */\n      swap5\n      swap1\n      swap5\n      and\n        /* \"#utility.yul\":2315:2317   */\n      0x20\n        /* \"#utility.yul\":2300:2318   */\n      dup4\n      add\n        /* \"#utility.yul\":2293:2338   */\n      mstore\n      pop\n        /* \"#utility.yul\":2381:2395   */\n      swap1\n      iszero\n        /* \"#utility.yul\":2374:2396   */\n      iszero\n        /* \"#utility.yul\":2369:2371   */\n      0x40\n        /* \"#utility.yul\":2354:2372   */\n      swap1\n      swap2\n      add\n        /* \"#utility.yul\":2347:2397   */\n      mstore\n        /* \"#utility.yul\":2231:2284   */\n      swap2\n        /* \"#utility.yul\":2024:2403   */\n      swap1\n      pop\n      jump\t// out\n        /* \"#utility.yul\":2408:2804   */\n    tag_18:\n        /* \"#utility.yul\":2486:2492   */\n      0x00\n        /* \"#utility.yul\":2494:2500   */\n      dup1\n        /* \"#utility.yul\":2547:2549   */\n      0x40\n        /* \"#utility.yul\":2535:2544   */\n      dup4\n        /* \"#utility.yul\":2526:2533   */\n      dup6\n        /* \"#utility.yul\":2522:2545   */\n      sub\n        /* \"#utility.yul\":2518:2550   */\n      slt\n        /* \"#utility.yul\":2515:2567   */\n      iszero\n      tag_82\n      jumpi\n        /* \"#utility.yul\":2563:2564   */\n      0x00\n        /* \"#utility.yul\":2560:2561   */\n      dup1\n        /* \"#utility.yul\":2553:2565   */\n      revert\n        /* \"#utility.yul\":2515:2567   */\n    tag_82:\n        /* \"#utility.yul\":2603:2612   */\n      dup3\n        /* \"#utility.yul\":2590:2613   */\n      calldataload\n        /* \"#utility.yul\":2636:2654   */\n      0xffffffffffffffff\n        /* \"#utility.yul\":2628:2634   */\n      dup2\n        /* \"#utility.yul\":2625:2655   */\n      gt\n        /* \"#utility.yul\":2622:2672   */\n      iszero\n      tag_83\n      jumpi\n        /* \"#utility.yul\":2668:2669   */\n      0x00\n        /* \"#utility.yul\":2665:2666   */\n      dup1\n        /* \"#utility.yul\":2658:2670   */\n      revert\n        /* \"#utility.yul\":2622:2672   */\n    tag_83:\n        /* \"#utility.yul\":2691:2741   */\n      tag_84\n        /* \"#utility.yul\":2733:2740   */\n      dup6\n        /* \"#utility.yul\":2724:2730   */\n      dup3\n        /* \"#utility.yul\":2713:2722   */\n      dup7\n        /* \"#utility.yul\":2709:2731   */\n      add\n        /* \"#utility.yul\":2691:2741   */\n      tag_53\n      jump\t// in\n    tag_84:\n        /* \"#utility.yul\":2681:2741   */\n      swap3\n      pop\n      pop\n        /* \"#utility.yul\":2760:2798   */\n      tag_85\n        /* \"#utility.yul\":2794:2796   */\n      0x20\n        /* \"#utility.yul\":2783:2792   */\n      dup5\n        /* \"#utility.yul\":2779:2797   */\n      add\n        /* \"#utility.yul\":2760:2798   */\n      tag_54\n      jump\t// in\n    tag_85:\n        /* \"#utility.yul\":2750:2798   */\n      swap1\n      pop\n        /* \"#utility.yul\":2408:2804   */\n      swap3\n      pop\n      swap3\n      swap1\n      pop\n      jump\t// out\n        /* \"#utility.yul\":2809:3107   */\n    tag_21:\n        /* \"#utility.yul\":2982:2984   */\n      0x40\n        /* \"#utility.yul\":2971:2980   */\n      dup2\n        /* \"#utility.yul\":2964:2985   */\n      mstore\n        /* \"#utility.yul\":2945:2949   */\n      0x00\n        /* \"#utility.yul\":3002:3047   */\n      tag_87\n        /* \"#utility.yul\":3043:3045   */\n      0x40\n        /* \"#utility.yul\":3032:3041   */\n      dup4\n        /* \"#utility.yul\":3028:3046   */\n      add\n        /* \"#utility.yul\":3020:3026   */\n      dup6\n        /* \"#utility.yul\":3002:3047   */\n      tag_55\n      jump\t// in\n    tag_87:\n        /* \"#utility.yul\":2994:3047   */\n      swap1\n      pop\n        /* \"#utility.yul\":3095:3099   */\n      0xff\n        /* \"#utility.yul\":3087:3093   */\n      dup4\n        /* \"#utility.yul\":3083:3100   */\n      and\n        /* \"#utility.yul\":3078:3080   */\n      0x20\n        /* \"#utility.yul\":3067:3076   */\n      dup4\n        /* \"#utility.yul\":3063:3081   */\n      add\n        /* \"#utility.yul\":3056:3101   */\n      mstore\n        /* \"#utility.yul\":2809:3107   */\n      swap4\n      swap3\n      pop\n      pop\n      pop\n      jump\t// out\n        /* \"#utility.yul\":3112:3492   */\n    tag_26:\n        /* \"#utility.yul\":3191:3192   */\n      0x01\n        /* \"#utility.yul\":3187:3199   */\n      dup2\n      dup2\n      shr\n      swap1\n        /* \"#utility.yul\":3234:3246   */\n      dup3\n      and\n      dup1\n        /* \"#utility.yul\":3255:3316   */\n      tag_89\n      jumpi\n        /* \"#utility.yul\":3309:3313   */\n      0x7f\n        /* \"#utility.yul\":3301:3307   */\n      dup3\n        /* \"#utility.yul\":3297:3314   */\n      and\n        /* \"#utility.yul\":3287:3314   */\n      swap2\n      pop\n        /* \"#utility.yul\":3255:3316   */\n    tag_89:\n        /* \"#utility.yul\":3362:3364   */\n      0x20\n        /* \"#utility.yul\":3354:3360   */\n      dup3\n        /* \"#utility.yul\":3351:3365   */\n      lt\n        /* \"#utility.yul\":3331:3349   */\n      dup2\n        /* \"#utility.yul\":3328:3366   */\n      sub\n        /* \"#utility.yul\":3325:3486   */\n      tag_90\n      jumpi\n        /* \"#utility.yul\":3408:3418   */\n      0x4e487b71\n        /* \"#utility.yul\":3403:3406   */\n      0xe0\n        /* \"#utility.yul\":3399:3419   */\n      shl\n        /* \"#utility.yul\":3396:3397   */\n      0x00\n        /* \"#utility.yul\":3389:3420   */\n      mstore\n        /* \"#utility.yul\":3443:3447   */\n      0x22\n        /* \"#utility.yul\":3440:3441   */\n      0x04\n        /* \"#utility.yul\":3433:3448   */\n      mstore\n        /* \"#utility.yul\":3471:3475   */\n      0x24\n        /* \"#utility.yul\":3468:3469   */\n      0x00\n        /* \"#utility.yul\":3461:3476   */\n      revert\n        /* \"#utility.yul\":3325:3486   */\n    tag_90:\n      pop\n        /* \"#utility.yul\":3112:3492   */\n      swap2\n      swap1\n      pop\n      jump\t// out\n        /* \"#utility.yul\":3623:4141   */\n    tag_57:\n        /* \"#utility.yul\":3725:3727   */\n      0x1f\n        /* \"#utility.yul\":3720:3723   */\n      dup3\n        /* \"#utility.yul\":3717:3728   */\n      gt\n        /* \"#utility.yul\":3714:4135   */\n      iszero\n      tag_93\n      jumpi\n        /* \"#utility.yul\":3761:3766   */\n      dup1\n        /* \"#utility.yul\":3758:3759   */\n      0x00\n        /* \"#utility.yul\":3751:3767   */\n      mstore\n        /* \"#utility.yul\":3805:3809   */\n      0x20\n        /* \"#utility.yul\":3802:3803   */\n      0x00\n        /* \"#utility.yul\":3792:3810   */\n      keccak256\n        /* \"#utility.yul\":3875:3877   */\n      0x1f\n        /* \"#utility.yul\":3863:3873   */\n      dup5\n        /* \"#utility.yul\":3859:3878   */\n      add\n        /* \"#utility.yul\":3856:3857   */\n      0x05\n        /* \"#utility.yul\":3852:3879   */\n      shr\n        /* \"#utility.yul\":3846:3850   */\n      dup2\n        /* \"#utility.yul\":3842:3880   */\n      add\n        /* \"#utility.yul\":3911:3915   */\n      0x20\n        /* \"#utility.yul\":3899:3909   */\n      dup6\n        /* \"#utility.yul\":3896:3916   */\n      lt\n        /* \"#utility.yul\":3893:3940   */\n      iszero\n      tag_94\n      jumpi\n      pop\n        /* \"#utility.yul\":3934:3938   */\n      dup1\n        /* \"#utility.yul\":3893:3940   */\n    tag_94:\n        /* \"#utility.yul\":3989:3991   */\n      0x1f\n        /* \"#utility.yul\":3984:3987   */\n      dup5\n        /* \"#utility.yul\":3980:3992   */\n      add\n        /* \"#utility.yul\":3977:3978   */\n      0x05\n        /* \"#utility.yul\":3973:3993   */\n      shr\n        /* \"#utility.yul\":3967:3971   */\n      dup3\n        /* \"#utility.yul\":3963:3994   */\n      add\n        /* \"#utility.yul\":3953:3994   */\n      swap2\n      pop\n        /* \"#utility.yul\":4044:4125   */\n    tag_95:\n        /* \"#utility.yul\":4062:4064   */\n      dup2\n        /* \"#utility.yul\":4055:4060   */\n      dup2\n        /* \"#utility.yul\":4052:4065   */\n      lt\n        /* \"#utility.yul\":4044:4125   */\n      iszero\n      tag_97\n      jumpi\n        /* \"#utility.yul\":4121:4122   */\n      0x00\n        /* \"#utility.yul\":4107:4123   */\n      dup2\n      sstore\n        /* \"#utility.yul\":4088:4089   */\n      0x01\n        /* \"#utility.yul\":4077:4090   */\n      add\n        /* \"#utility.yul\":4044:4125   */\n      jump(tag_95)\n    tag_97:\n        /* \"#utility.yul\":4048:4051   */\n      pop\n      pop\n        /* \"#utility.yul\":3714:4135   */\n    tag_93:\n        /* \"#utility.yul\":3623:4141   */\n      pop\n      pop\n      pop\n      jump\t// out\n        /* \"#utility.yul\":4317:5616   */\n    tag_24:\n        /* \"#utility.yul\":4443:4446   */\n      dup2\n        /* \"#utility.yul\":4437:4447   */\n      mload\n        /* \"#utility.yul\":4470:4488   */\n      0xffffffffffffffff\n        /* \"#utility.yul\":4462:4468   */\n      dup2\n        /* \"#utility.yul\":4459:4489   */\n      gt\n        /* \"#utility.yul\":4456:4512   */\n      iszero\n      tag_101\n      jumpi\n        /* \"#utility.yul\":4492:4510   */\n      tag_101\n      tag_52\n      jump\t// in\n    tag_101:\n        /* \"#utility.yul\":4521:4618   */\n      tag_102\n        /* \"#utility.yul\":4611:4617   */\n      dup2\n        /* \"#utility.yul\":4571:4609   */\n      tag_103\n        /* \"#utility.yul\":4603:4607   */\n      dup5\n        /* \"#utility.yul\":4597:4608   */\n      sload\n        /* \"#utility.yul\":4571:4609   */\n      tag_26\n      jump\t// in\n    tag_103:\n        /* \"#utility.yul\":4565:4569   */\n      dup5\n        /* \"#utility.yul\":4521:4618   */\n      tag_57\n      jump\t// in\n    tag_102:\n        /* \"#utility.yul\":4667:4671   */\n      0x20\n        /* \"#utility.yul\":4698:4700   */\n      0x1f\n        /* \"#utility.yul\":4687:4701   */\n      dup3\n      gt\n        /* \"#utility.yul\":4715:4716   */\n      0x01\n        /* \"#utility.yul\":4710:5359   */\n      dup2\n      eq\n      tag_105\n      jumpi\n        /* \"#utility.yul\":5403:5404   */\n      0x00\n        /* \"#utility.yul\":5420:5426   */\n      dup4\n        /* \"#utility.yul\":5417:5506   */\n      iszero\n      tag_106\n      jumpi\n      pop\n        /* \"#utility.yul\":5472:5491   */\n      dup5\n      dup3\n      add\n        /* \"#utility.yul\":5466:5492   */\n      mload\n        /* \"#utility.yul\":5417:5506   */\n    tag_106:\n      not(0x00)\n        /* \"#utility.yul\":4274:4275   */\n      0x03\n        /* \"#utility.yul\":4270:4281   */\n      dup6\n      swap1\n      shl\n        /* \"#utility.yul\":4266:4290   */\n      shr\n        /* \"#utility.yul\":4262:4291   */\n      not\n        /* \"#utility.yul\":4252:4292   */\n      and\n        /* \"#utility.yul\":4298:4299   */\n      0x01\n        /* \"#utility.yul\":4294:4305   */\n      dup5\n      swap1\n      shl\n        /* \"#utility.yul\":4249:4306   */\n      or\n        /* \"#utility.yul\":5519:5600   */\n      dup5\n      sstore\n        /* \"#utility.yul\":4680:5610   */\n      jump(tag_97)\n        /* \"#utility.yul\":4710:5359   */\n    tag_105:\n        /* \"#utility.yul\":3570:3571   */\n      0x00\n        /* \"#utility.yul\":3563:3577   */\n      dup5\n      dup2\n      mstore\n        /* \"#utility.yul\":3607:3611   */\n      0x20\n        /* \"#utility.yul\":3594:3612   */\n      dup2\n      keccak256\n      not(0x1f)\n        /* \"#utility.yul\":4746:4766   */\n      dup6\n      and\n      swap2\n        /* \"#utility.yul\":4864:5086   */\n    tag_109:\n        /* \"#utility.yul\":4878:4885   */\n      dup3\n        /* \"#utility.yul\":4875:4876   */\n      dup2\n        /* \"#utility.yul\":4872:4886   */\n      lt\n        /* \"#utility.yul\":4864:5086   */\n      iszero\n      tag_111\n      jumpi\n        /* \"#utility.yul\":4960:4979   */\n      dup8\n      dup6\n      add\n        /* \"#utility.yul\":4954:4980   */\n      mload\n        /* \"#utility.yul\":4939:4981   */\n      dup3\n      sstore\n        /* \"#utility.yul\":5067:5071   */\n      0x20\n        /* \"#utility.yul\":5052:5072   */\n      swap5\n      dup6\n      add\n      swap5\n        /* \"#utility.yul\":5020:5021   */\n      0x01\n        /* \"#utility.yul\":5008:5022   */\n      swap1\n      swap3\n      add\n      swap2\n        /* \"#utility.yul\":4894:4906   */\n      add\n        /* \"#utility.yul\":4864:5086   */\n      jump(tag_109)\n    tag_111:\n        /* \"#utility.yul\":4868:4871   */\n      pop\n        /* \"#utility.yul\":5114:5120   */\n      dup5\n        /* \"#utility.yul\":5105:5112   */\n      dup3\n        /* \"#utility.yul\":5102:5121   */\n      lt\n        /* \"#utility.yul\":5099:5300   */\n      iszero\n      tag_112\n      jumpi\n        /* \"#utility.yul\":5175:5194   */\n      dup7\n      dup5\n      add\n        /* \"#utility.yul\":5169:5195   */\n      mload\n      not(0x00)\n        /* \"#utility.yul\":5258:5259   */\n      0x03\n        /* \"#utility.yul\":5254:5268   */\n      dup8\n      swap1\n      shl\n        /* \"#utility.yul\":5270:5273   */\n      0xf8\n        /* \"#utility.yul\":5250:5274   */\n      and\n        /* \"#utility.yul\":5246:5283   */\n      shr\n        /* \"#utility.yul\":5242:5284   */\n      not\n        /* \"#utility.yul\":5227:5285   */\n      and\n        /* \"#utility.yul\":5212:5286   */\n      dup2\n      sstore\n        /* \"#utility.yul\":5099:5300   */\n    tag_112:\n      pop\n      pop\n      pop\n      pop\n        /* \"#utility.yul\":5346:5347   */\n      0x01\n        /* \"#utility.yul\":5330:5344   */\n      swap1\n      dup2\n      shl\n        /* \"#utility.yul\":5326:5348   */\n      add\n        /* \"#utility.yul\":5313:5349   */\n      swap1\n      sstore\n      pop\n        /* \"#utility.yul\":4317:5616   */\n      jump\t// out\n        /* \"#utility.yul\":6088:6391   */\n    tag_39:\n        /* \"#utility.yul\":6219:6222   */\n      0x00\n        /* \"#utility.yul\":6257:6263   */\n      dup3\n        /* \"#utility.yul\":6251:6264   */\n      mload\n        /* \"#utility.yul\":6303:6309   */\n      dup1\n        /* \"#utility.yul\":6296:6300   */\n      0x20\n        /* \"#utility.yul\":6288:6294   */\n      dup6\n        /* \"#utility.yul\":6284:6301   */\n      add\n        /* \"#utility.yul\":6279:6282   */\n      dup5\n        /* \"#utility.yul\":6273:6310   */\n      mcopy\n        /* \"#utility.yul\":6365:6366   */\n      0x00\n        /* \"#utility.yul\":6329:6345   */\n      swap3\n      add\n        /* \"#utility.yul\":6354:6367   */\n      swap2\n      dup3\n      mstore\n      pop\n        /* \"#utility.yul\":6329:6345   */\n      swap2\n        /* \"#utility.yul\":6088:6391   */\n      swap1\n      pop\n      jump\t// out\n\n    auxdata: 0xa2646970667358221220c019f51dea14025e63cfc8851bce75386f395814ba06e315c80394c9c187c89d64736f6c634300081a0033\n}\n",
				"bytecode": {
					"linkReferences": {},
					"object": "6080604052348015600e575f80fd5b506107498061001c5f395ff3fe608060405234801561000f575f80fd5b506004361061003f575f3560e01c806319342f711461004357806368d99d531461005857806394a08c0a14610083575b5f80fd5b610056610051366004610466565b6100a4565b005b61006b6100663660046104d5565b610112565b60405161007a93929190610523565b60405180910390f35b61009661009136600461054f565b6101bf565b60405161007a92919061059a565b6040805160608101825283815260ff8316602080830191909152600182840152335f9081529081905291909120815181906100df9082610642565b5060208201516001909101805460409093015115156101000261ffff1990931660ff909216919091179190911790555050565b5f6020819052908152604090208054819061012c906105be565b80601f0160208091040260200160405190810160405280929190818152602001828054610158906105be565b80156101a35780601f1061017a576101008083540402835291602001916101a3565b820191905f5260205f20905b81548152906001019060200180831161018657829003601f168201915b5050506001909301549192505060ff8082169161010090041683565b6001600160a01b0381165f9081526020819052604081206001015460609190610100900460ff1661021257604051634b2990ed60e11b81526001600160a01b038416600482015260240160405180910390fd5b604051636e616d6560e01b6020820152602401604051602081830303815290604052805190602001208460405160200161024c91906106fd565b6040516020818303038152906040528051906020012003610312576001600160a01b0383165f9081526020819052604081208054610289906105be565b80601f01602080910402602001604051908101604052809291908181526020018280546102b5906105be565b80156103005780601f106102d757610100808354040283529160200191610300565b820191905f5260205f20905b8154815290600101906020018083116102e357829003601f168201915b509396505f95506103c0945050505050565b6040516261676560e81b6020820152602301604051602081830303815290604052805190602001208460405160200161034b91906106fd565b60405160208183030381529060405280519060200120036103985750506001600160a01b0381165f908152602081815260408083206001015481519283019091529181529060ff166103c0565b505060408051808201909152600d81526c3834b1b590309037b83a34b7b760991b60208201525f5b9250929050565b634e487b7160e01b5f52604160045260245ffd5b5f82601f8301126103ea575f80fd5b813567ffffffffffffffff811115610404576104046103c7565b604051601f8201601f19908116603f0116810167ffffffffffffffff81118282101715610433576104336103c7565b60405281815283820160200185101561044a575f80fd5b816020850160208301375f918101602001919091529392505050565b5f8060408385031215610477575f80fd5b823567ffffffffffffffff81111561048d575f80fd5b610499858286016103db565b925050602083013560ff811681146104af575f80fd5b809150509250929050565b80356001600160a01b03811681146104d0575f80fd5b919050565b5f602082840312156104e5575f80fd5b6104ee826104ba565b9392505050565b5f81518084528060208401602086015e5f602082860101526020601f19601f83011685010191505092915050565b606081525f61053560608301866104f5565b60ff94909416602083015250901515604090910152919050565b5f8060408385031215610560575f80fd5b823567ffffffffffffffff811115610576575f80fd5b610582858286016103db565b925050610591602084016104ba565b90509250929050565b604081525f6105ac60408301856104f5565b905060ff831660208301529392505050565b600181811c908216806105d257607f821691505b6020821081036105f057634e487b7160e01b5f52602260045260245ffd5b50919050565b601f82111561063d57805f5260205f20601f840160051c8101602085101561061b5750805b601f840160051c820191505b8181101561063a575f8155600101610627565b50505b505050565b815167ffffffffffffffff81111561065c5761065c6103c7565b6106708161066a84546105be565b846105f6565b6020601f8211600181146106a2575f831561068b5750848201515b5f19600385901b1c1916600184901b17845561063a565b5f84815260208120601f198516915b828110156106d157878501518255602094850194600190920191016106b1565b50848210156106ee57868401515f19600387901b60f8161c191681555b50505050600190811b01905550565b5f82518060208501845e5f92019182525091905056fea2646970667358221220c019f51dea14025e63cfc8851bce75386f395814ba06e315c80394c9c187c89d64736f6c634300081a0033",
					"opcodes": "PUSH1 0x80 PUSH1 0x40 MSTORE CALLVALUE DUP1 ISZERO PUSH1 0xE JUMPI PUSH0 DUP1 REVERT JUMPDEST POP PUSH2 0x749 DUP1 PUSH2 0x1C PUSH0 CODECOPY PUSH0 RETURN INVALID PUSH1 0x80 PUSH1 0x40 MSTORE CALLVALUE DUP1 ISZERO PUSH2 0xF JUMPI PUSH0 DUP1 REVERT JUMPDEST POP PUSH1 0x4 CALLDATASIZE LT PUSH2 0x3F JUMPI PUSH0 CALLDATALOAD PUSH1 0xE0 SHR DUP1 PUSH4 0x19342F71 EQ PUSH2 0x43 JUMPI DUP1 PUSH4 0x68D99D53 EQ PUSH2 0x58 JUMPI DUP1 PUSH4 0x94A08C0A EQ PUSH2 0x83 JUMPI JUMPDEST PUSH0 DUP1 REVERT JUMPDEST PUSH2 0x56 PUSH2 0x51 CALLDATASIZE PUSH1 0x4 PUSH2 0x466 JUMP JUMPDEST PUSH2 0xA4 JUMP JUMPDEST STOP JUMPDEST PUSH2 0x6B PUSH2 0x66 CALLDATASIZE PUSH1 0x4 PUSH2 0x4D5 JUMP JUMPDEST PUSH2 0x112 JUMP JUMPDEST PUSH1 0x40 MLOAD PUSH2 0x7A SWAP4 SWAP3 SWAP2 SWAP1 PUSH2 0x523 JUMP JUMPDEST PUSH1 0x40 MLOAD DUP1 SWAP2 SUB SWAP1 RETURN JUMPDEST PUSH2 0x96 PUSH2 0x91 CALLDATASIZE PUSH1 0x4 PUSH2 0x54F JUMP JUMPDEST PUSH2 0x1BF JUMP JUMPDEST PUSH1 0x40 MLOAD PUSH2 0x7A SWAP3 SWAP2 SWAP1 PUSH2 0x59A JUMP JUMPDEST PUSH1 0x40 DUP1 MLOAD PUSH1 0x60 DUP2 ADD DUP3 MSTORE DUP4 DUP2 MSTORE PUSH1 0xFF DUP4 AND PUSH1 0x20 DUP1 DUP4 ADD SWAP2 SWAP1 SWAP2 MSTORE PUSH1 0x1 DUP3 DUP5 ADD MSTORE CALLER PUSH0 SWAP1 DUP2 MSTORE SWAP1 DUP2 SWAP1 MSTORE SWAP2 SWAP1 SWAP2 KECCAK256 DUP2 MLOAD DUP2 SWAP1 PUSH2 0xDF SWAP1 DUP3 PUSH2 0x642 JUMP JUMPDEST POP PUSH1 0x20 DUP3 ADD MLOAD PUSH1 0x1 SWAP1 SWAP2 ADD DUP1 SLOAD PUSH1 0x40 SWAP1 SWAP4 ADD MLOAD ISZERO ISZERO PUSH2 0x100 MUL PUSH2 0xFFFF NOT SWAP1 SWAP4 AND PUSH1 0xFF SWAP1 SWAP3 AND SWAP2 SWAP1 SWAP2 OR SWAP2 SWAP1 SWAP2 OR SWAP1 SSTORE POP POP JUMP JUMPDEST PUSH0 PUSH1 0x20 DUP2 SWAP1 MSTORE SWAP1 DUP2 MSTORE PUSH1 0x40 SWAP1 KECCAK256 DUP1 SLOAD DUP2 SWAP1 PUSH2 0x12C SWAP1 PUSH2 0x5BE JUMP JUMPDEST DUP1 PUSH1 0x1F ADD PUSH1 0x20 DUP1 SWAP2 DIV MUL PUSH1 0x20 ADD PUSH1 0x40 MLOAD SWAP1 DUP2 ADD PUSH1 0x40 MSTORE DUP1 SWAP3 SWAP2 SWAP1 DUP2 DUP2 MSTORE PUSH1 0x20 ADD DUP3 DUP1 SLOAD PUSH2 0x158 SWAP1 PUSH2 0x5BE JUMP JUMPDEST DUP1 ISZERO PUSH2 0x1A3 JUMPI DUP1 PUSH1 0x1F LT PUSH2 0x17A JUMPI PUSH2 0x100 DUP1 DUP4 SLOAD DIV MUL DUP4 MSTORE SWAP2 PUSH1 0x20 ADD SWAP2 PUSH2 0x1A3 JUMP JUMPDEST DUP3 ADD SWAP2 SWAP1 PUSH0 MSTORE PUSH1 0x20 PUSH0 KECCAK256 SWAP1 JUMPDEST DUP2 SLOAD DUP2 MSTORE SWAP1 PUSH1 0x1 ADD SWAP1 PUSH1 0x20 ADD DUP1 DUP4 GT PUSH2 0x186 JUMPI DUP3 SWAP1 SUB PUSH1 0x1F AND DUP3 ADD SWAP2 JUMPDEST POP POP POP PUSH1 0x1 SWAP1 SWAP4 ADD SLOAD SWAP2 SWAP3 POP POP PUSH1 0xFF DUP1 DUP3 AND SWAP2 PUSH2 0x100 SWAP1 DIV AND DUP4 JUMP JUMPDEST PUSH1 0x1 PUSH1 0x1 PUSH1 0xA0 SHL SUB DUP2 AND PUSH0 SWAP1 DUP2 MSTORE PUSH1 0x20 DUP2 SWAP1 MSTORE PUSH1 0x40 DUP2 KECCAK256 PUSH1 0x1 ADD SLOAD PUSH1 0x60 SWAP2 SWAP1 PUSH2 0x100 SWAP1 DIV PUSH1 0xFF AND PUSH2 0x212 JUMPI PUSH1 0x40 MLOAD PUSH4 0x4B2990ED PUSH1 0xE1 SHL DUP2 MSTORE PUSH1 0x1 PUSH1 0x1 PUSH1 0xA0 SHL SUB DUP5 AND PUSH1 0x4 DUP3 ADD MSTORE PUSH1 0x24 ADD PUSH1 0x40 MLOAD DUP1 SWAP2 SUB SWAP1 REVERT JUMPDEST PUSH1 0x40 MLOAD PUSH4 0x6E616D65 PUSH1 0xE0 SHL PUSH1 0x20 DUP3 ADD MSTORE PUSH1 0x24 ADD PUSH1 0x40 MLOAD PUSH1 0x20 DUP2 DUP4 SUB SUB DUP2 MSTORE SWAP1 PUSH1 0x40 MSTORE DUP1 MLOAD SWAP1 PUSH1 0x20 ADD KECCAK256 DUP5 PUSH1 0x40 MLOAD PUSH1 0x20 ADD PUSH2 0x24C SWAP2 SWAP1 PUSH2 0x6FD JUMP JUMPDEST PUSH1 0x40 MLOAD PUSH1 0x20 DUP2 DUP4 SUB SUB DUP2 MSTORE SWAP1 PUSH1 0x40 MSTORE DUP1 MLOAD SWAP1 PUSH1 0x20 ADD KECCAK256 SUB PUSH2 0x312 JUMPI PUSH1 0x1 PUSH1 0x1 PUSH1 0xA0 SHL SUB DUP4 AND PUSH0 SWAP1 DUP2 MSTORE PUSH1 0x20 DUP2 SWAP1 MSTORE PUSH1 0x40 DUP2 KECCAK256 DUP1 SLOAD PUSH2 0x289 SWAP1 PUSH2 0x5BE JUMP JUMPDEST DUP1 PUSH1 0x1F ADD PUSH1 0x20 DUP1 SWAP2 DIV MUL PUSH1 0x20 ADD PUSH1 0x40 MLOAD SWAP1 DUP2 ADD PUSH1 0x40 MSTORE DUP1 SWAP3 SWAP2 SWAP1 DUP2 DUP2 MSTORE PUSH1 0x20 ADD DUP3 DUP1 SLOAD PUSH2 0x2B5 SWAP1 PUSH2 0x5BE JUMP JUMPDEST DUP1 ISZERO PUSH2 0x300 JUMPI DUP1 PUSH1 0x1F LT PUSH2 0x2D7 JUMPI PUSH2 0x100 DUP1 DUP4 SLOAD DIV MUL DUP4 MSTORE SWAP2 PUSH1 0x20 ADD SWAP2 PUSH2 0x300 JUMP JUMPDEST DUP3 ADD SWAP2 SWAP1 PUSH0 MSTORE PUSH1 0x20 PUSH0 KECCAK256 SWAP1 JUMPDEST DUP2 SLOAD DUP2 MSTORE SWAP1 PUSH1 0x1 ADD SWAP1 PUSH1 0x20 ADD DUP1 DUP4 GT PUSH2 0x2E3 JUMPI DUP3 SWAP1 SUB PUSH1 0x1F AND DUP3 ADD SWAP2 JUMPDEST POP SWAP4 SWAP7 POP PUSH0 SWAP6 POP PUSH2 0x3C0 SWAP5 POP POP POP POP POP JUMP JUMPDEST PUSH1 0x40 MLOAD PUSH3 0x616765 PUSH1 0xE8 SHL PUSH1 0x20 DUP3 ADD MSTORE PUSH1 0x23 ADD PUSH1 0x40 MLOAD PUSH1 0x20 DUP2 DUP4 SUB SUB DUP2 MSTORE SWAP1 PUSH1 0x40 MSTORE DUP1 MLOAD SWAP1 PUSH1 0x20 ADD KECCAK256 DUP5 PUSH1 0x40 MLOAD PUSH1 0x20 ADD PUSH2 0x34B SWAP2 SWAP1 PUSH2 0x6FD JUMP JUMPDEST PUSH1 0x40 MLOAD PUSH1 0x20 DUP2 DUP4 SUB SUB DUP2 MSTORE SWAP1 PUSH1 0x40 MSTORE DUP1 MLOAD SWAP1 PUSH1 0x20 ADD KECCAK256 SUB PUSH2 0x398 JUMPI POP POP PUSH1 0x1 PUSH1 0x1 PUSH1 0xA0 SHL SUB DUP2 AND PUSH0 SWAP1 DUP2 MSTORE PUSH1 0x20 DUP2 DUP2 MSTORE PUSH1 0x40 DUP1 DUP4 KECCAK256 PUSH1 0x1 ADD SLOAD DUP2 MLOAD SWAP3 DUP4 ADD SWAP1 SWAP2 MSTORE SWAP2 DUP2 MSTORE SWAP1 PUSH1 0xFF AND PUSH2 0x3C0 JUMP JUMPDEST POP POP PUSH1 0x40 DUP1 MLOAD DUP1 DUP3 ADD SWAP1 SWAP2 MSTORE PUSH1 0xD DUP2 MSTORE PUSH13 0x3834B1B590309037B83A34B7B7 PUSH1 0x99 SHL PUSH1 0x20 DUP3 ADD MSTORE PUSH0 JUMPDEST SWAP3 POP SWAP3 SWAP1 POP JUMP JUMPDEST PUSH4 0x4E487B71 PUSH1 0xE0 SHL PUSH0 MSTORE PUSH1 0x41 PUSH1 0x4 MSTORE PUSH1 0x24 PUSH0 REVERT JUMPDEST PUSH0 DUP3 PUSH1 0x1F DUP4 ADD SLT PUSH2 0x3EA JUMPI PUSH0 DUP1 REVERT JUMPDEST DUP2 CALLDATALOAD PUSH8 0xFFFFFFFFFFFFFFFF DUP2 GT ISZERO PUSH2 0x404 JUMPI PUSH2 0x404 PUSH2 0x3C7 JUMP JUMPDEST PUSH1 0x40 MLOAD PUSH1 0x1F DUP3 ADD PUSH1 0x1F NOT SWAP1 DUP2 AND PUSH1 0x3F ADD AND DUP2 ADD PUSH8 0xFFFFFFFFFFFFFFFF DUP2 GT DUP3 DUP3 LT OR ISZERO PUSH2 0x433 JUMPI PUSH2 0x433 PUSH2 0x3C7 JUMP JUMPDEST PUSH1 0x40 MSTORE DUP2 DUP2 MSTORE DUP4 DUP3 ADD PUSH1 0x20 ADD DUP6 LT ISZERO PUSH2 0x44A JUMPI PUSH0 DUP1 REVERT JUMPDEST DUP2 PUSH1 0x20 DUP6 ADD PUSH1 0x20 DUP4 ADD CALLDATACOPY PUSH0 SWAP2 DUP2 ADD PUSH1 0x20 ADD SWAP2 SWAP1 SWAP2 MSTORE SWAP4 SWAP3 POP POP POP JUMP JUMPDEST PUSH0 DUP1 PUSH1 0x40 DUP4 DUP6 SUB SLT ISZERO PUSH2 0x477 JUMPI PUSH0 DUP1 REVERT JUMPDEST DUP3 CALLDATALOAD PUSH8 0xFFFFFFFFFFFFFFFF DUP2 GT ISZERO PUSH2 0x48D JUMPI PUSH0 DUP1 REVERT JUMPDEST PUSH2 0x499 DUP6 DUP3 DUP7 ADD PUSH2 0x3DB JUMP JUMPDEST SWAP3 POP POP PUSH1 0x20 DUP4 ADD CALLDATALOAD PUSH1 0xFF DUP2 AND DUP2 EQ PUSH2 0x4AF JUMPI PUSH0 DUP1 REVERT JUMPDEST DUP1 SWAP2 POP POP SWAP3 POP SWAP3 SWAP1 POP JUMP JUMPDEST DUP1 CALLDATALOAD PUSH1 0x1 PUSH1 0x1 PUSH1 0xA0 SHL SUB DUP2 AND DUP2 EQ PUSH2 0x4D0 JUMPI PUSH0 DUP1 REVERT JUMPDEST SWAP2 SWAP1 POP JUMP JUMPDEST PUSH0 PUSH1 0x20 DUP3 DUP5 SUB SLT ISZERO PUSH2 0x4E5 JUMPI PUSH0 DUP1 REVERT JUMPDEST PUSH2 0x4EE DUP3 PUSH2 0x4BA JUMP JUMPDEST SWAP4 SWAP3 POP POP POP JUMP JUMPDEST PUSH0 DUP2 MLOAD DUP1 DUP5 MSTORE DUP1 PUSH1 0x20 DUP5 ADD PUSH1 0x20 DUP7 ADD MCOPY PUSH0 PUSH1 0x20 DUP3 DUP7 ADD ADD MSTORE PUSH1 0x20 PUSH1 0x1F NOT PUSH1 0x1F DUP4 ADD AND DUP6 ADD ADD SWAP2 POP POP SWAP3 SWAP2 POP POP JUMP JUMPDEST PUSH1 0x60 DUP2 MSTORE PUSH0 PUSH2 0x535 PUSH1 0x60 DUP4 ADD DUP7 PUSH2 0x4F5 JUMP JUMPDEST PUSH1 0xFF SWAP5 SWAP1 SWAP5 AND PUSH1 0x20 DUP4 ADD MSTORE POP SWAP1 ISZERO ISZERO PUSH1 0x40 SWAP1 SWAP2 ADD MSTORE SWAP2 SWAP1 POP JUMP JUMPDEST PUSH0 DUP1 PUSH1 0x40 DUP4 DUP6 SUB SLT ISZERO PUSH2 0x560 JUMPI PUSH0 DUP1 REVERT JUMPDEST DUP3 CALLDATALOAD PUSH8 0xFFFFFFFFFFFFFFFF DUP2 GT ISZERO PUSH2 0x576 JUMPI PUSH0 DUP1 REVERT JUMPDEST PUSH2 0x582 DUP6 DUP3 DUP7 ADD PUSH2 0x3DB JUMP JUMPDEST SWAP3 POP POP PUSH2 0x591 PUSH1 0x20 DUP5 ADD PUSH2 0x4BA JUMP JUMPDEST SWAP1 POP SWAP3 POP SWAP3 SWAP1 POP JUMP JUMPDEST PUSH1 0x40 DUP2 MSTORE PUSH0 PUSH2 0x5AC PUSH1 0x40 DUP4 ADD DUP6 PUSH2 0x4F5 JUMP JUMPDEST SWAP1 POP PUSH1 0xFF DUP4 AND PUSH1 0x20 DUP4 ADD MSTORE SWAP4 SWAP3 POP POP POP JUMP JUMPDEST PUSH1 0x1 DUP2 DUP2 SHR SWAP1 DUP3 AND DUP1 PUSH2 0x5D2 JUMPI PUSH1 0x7F DUP3 AND SWAP2 POP JUMPDEST PUSH1 0x20 DUP3 LT DUP2 SUB PUSH2 0x5F0 JUMPI PUSH4 0x4E487B71 PUSH1 0xE0 SHL PUSH0 MSTORE PUSH1 0x22 PUSH1 0x4 MSTORE PUSH1 0x24 PUSH0 REVERT JUMPDEST POP SWAP2 SWAP1 POP JUMP JUMPDEST PUSH1 0x1F DUP3 GT ISZERO PUSH2 0x63D JUMPI DUP1 PUSH0 MSTORE PUSH1 0x20 PUSH0 KECCAK256 PUSH1 0x1F DUP5 ADD PUSH1 0x5 SHR DUP2 ADD PUSH1 0x20 DUP6 LT ISZERO PUSH2 0x61B JUMPI POP DUP1 JUMPDEST PUSH1 0x1F DUP5 ADD PUSH1 0x5 SHR DUP3 ADD SWAP2 POP JUMPDEST DUP2 DUP2 LT ISZERO PUSH2 0x63A JUMPI PUSH0 DUP2 SSTORE PUSH1 0x1 ADD PUSH2 0x627 JUMP JUMPDEST POP POP JUMPDEST POP POP POP JUMP JUMPDEST DUP2 MLOAD PUSH8 0xFFFFFFFFFFFFFFFF DUP2 GT ISZERO PUSH2 0x65C JUMPI PUSH2 0x65C PUSH2 0x3C7 JUMP JUMPDEST PUSH2 0x670 DUP2 PUSH2 0x66A DUP5 SLOAD PUSH2 0x5BE JUMP JUMPDEST DUP5 PUSH2 0x5F6 JUMP JUMPDEST PUSH1 0x20 PUSH1 0x1F DUP3 GT PUSH1 0x1 DUP2 EQ PUSH2 0x6A2 JUMPI PUSH0 DUP4 ISZERO PUSH2 0x68B JUMPI POP DUP5 DUP3 ADD MLOAD JUMPDEST PUSH0 NOT PUSH1 0x3 DUP6 SWAP1 SHL SHR NOT AND PUSH1 0x1 DUP5 SWAP1 SHL OR DUP5 SSTORE PUSH2 0x63A JUMP JUMPDEST PUSH0 DUP5 DUP2 MSTORE PUSH1 0x20 DUP2 KECCAK256 PUSH1 0x1F NOT DUP6 AND SWAP2 JUMPDEST DUP3 DUP2 LT ISZERO PUSH2 0x6D1 JUMPI DUP8 DUP6 ADD MLOAD DUP3 SSTORE PUSH1 0x20 SWAP5 DUP6 ADD SWAP5 PUSH1 0x1 SWAP1 SWAP3 ADD SWAP2 ADD PUSH2 0x6B1 JUMP JUMPDEST POP DUP5 DUP3 LT ISZERO PUSH2 0x6EE JUMPI DUP7 DUP5 ADD MLOAD PUSH0 NOT PUSH1 0x3 DUP8 SWAP1 SHL PUSH1 0xF8 AND SHR NOT AND DUP2 SSTORE JUMPDEST POP POP POP POP PUSH1 0x1 SWAP1 DUP2 SHL ADD SWAP1 SSTORE POP JUMP JUMPDEST PUSH0 DUP3 MLOAD DUP1 PUSH1 0x20 DUP6 ADD DUP5 MCOPY PUSH0 SWAP3 ADD SWAP2 DUP3 MSTORE POP SWAP2 SWAP1 POP JUMP INVALID LOG2 PUSH5 0x6970667358 0x22 SLT KECCAK256 0xC0 NOT CREATE2 SAR 0xEA EQ MUL MCOPY PUSH4 0xCFC8851B 0xCE PUSH22 0x386F395814BA06E315C80394C9C187C89D64736F6C63 NUMBER STOP ADDMOD BYTE STOP CALLER "
				},
				"gasEstimates": {
					"creation": {
						"codeDepositCost": "373000",
						"executionCost": "409",
						"totalCost": "373409"
					},
					"external": {
						"assignPerson(address)": "infinite",
						"showMessage(string,address)": "infinite",
						"sstrFunc(string,uint8)": "infinite"
					}
				},
				"methodIdentifiers": {
					"assignPerson(address)": "68d99d53",
					"showMessage(string,address)": "94a08c0a",
					"sstrFunc(string,uint8)": "19342f71"
				}
			},
			"storageLayout": {
				"storage": [
					{
						"astId": 13,
						"contract": "contracts/Structs.sol:Struct",
						"label": "assignPerson",
						"offset": 0,
						"slot": "0",
						"type": "t_mapping(t_address,t_struct(Person)8_storage)"
					}
				],
				"types": {
					"t_address": {
						"encoding": "inplace",
						"label": "address",
						"numberOfBytes": "20"
					},
					"t_bool": {
						"encoding": "inplace",
						"label": "bool",
						"numberOfBytes": "1"
					},
					"t_mapping(t_address,t_struct(Person)8_storage)": {
						"encoding": "mapping",
						"key": "t_address",
						"label": "mapping(address => struct Struct.Person)",
						"numberOfBytes": "32",
						"value": "t_struct(Person)8_storage"
					},
					"t_string_storage": {
						"encoding": "bytes",
						"label": "string",
						"numberOfBytes": "32"
					},
					"t_struct(Person)8_storage": {
						"encoding": "inplace",
						"label": "struct Struct.Person",
						"members": [
							{
								"astId": 3,
								"contract": "contracts/Structs.sol:Struct",
								"label": "name",
								"offset": 0,
								"slot": "0",
								"type": "t_string_storage"
							},
							{
								"astId": 5,
								"contract": "contracts/Structs.sol:Struct",
								"label": "age",
								"offset": 0,
								"slot": "1",
								"type": "t_uint8"
							},
							{
								"astId": 7,
								"contract": "contracts/Structs.sol:Struct",
								"label": "exists",
								"offset": 1,
								"slot": "1",
								"type": "t_bool"
							}
						],
						"numberOfBytes": "64"
					},
					"t_uint8": {
						"encoding": "inplace",
						"label": "uint8",
						"numberOfBytes": "1"
					}
				}
			},
			"userdoc": {
				"kind": "user",
				"methods": {},
				"version": 1
			}
		}
	}
}