{
	"contracts/build_bounty/prototype/auto_swap_build.sol": {
		"AutoSwapDonation": {
			"abi": [
				{
					"inputs": [
						{
							"internalType": "address",
							"name": "_token",
							"type": "address"
						},
						{
							"internalType": "address",
							"name": "_swapRouter",
							"type": "address"
						},
						{
							"internalType": "uint24",
							"name": "_swapFee",
							"type": "uint24"
						}
					],
					"stateMutability": "nonpayable",
					"type": "constructor"
				},
				{
					"inputs": [
						{
							"internalType": "address",
							"name": "owner",
							"type": "address"
						}
					],
					"name": "OwnableInvalidOwner",
					"type": "error"
				},
				{
					"inputs": [
						{
							"internalType": "address",
							"name": "account",
							"type": "address"
						}
					],
					"name": "OwnableUnauthorizedAccount",
					"type": "error"
				},
				{
					"anonymous": false,
					"inputs": [
						{
							"indexed": true,
							"internalType": "address",
							"name": "donor",
							"type": "address"
						},
						{
							"indexed": false,
							"internalType": "uint256",
							"name": "ethAmount",
							"type": "uint256"
						}
					],
					"name": "DonationReceived",
					"type": "event"
				},
				{
					"anonymous": false,
					"inputs": [
						{
							"indexed": true,
							"internalType": "address",
							"name": "previousOwner",
							"type": "address"
						},
						{
							"indexed": true,
							"internalType": "address",
							"name": "newOwner",
							"type": "address"
						}
					],
					"name": "OwnershipTransferred",
					"type": "event"
				},
				{
					"anonymous": false,
					"inputs": [
						{
							"indexed": false,
							"internalType": "uint256",
							"name": "amountIn",
							"type": "uint256"
						},
						{
							"indexed": false,
							"internalType": "uint256",
							"name": "amountOut",
							"type": "uint256"
						}
					],
					"name": "SwapExecuted",
					"type": "event"
				},
				{
					"anonymous": false,
					"inputs": [
						{
							"indexed": true,
							"internalType": "address",
							"name": "to",
							"type": "address"
						},
						{
							"indexed": true,
							"internalType": "address",
							"name": "token",
							"type": "address"
						},
						{
							"indexed": false,
							"internalType": "uint256",
							"name": "amount",
							"type": "uint256"
						}
					],
					"name": "Withdraw",
					"type": "event"
				},
				{
					"inputs": [],
					"name": "donate",
					"outputs": [],
					"stateMutability": "payable",
					"type": "function"
				},
				{
					"inputs": [],
					"name": "owner",
					"outputs": [
						{
							"internalType": "address",
							"name": "",
							"type": "address"
						}
					],
					"stateMutability": "view",
					"type": "function"
				},
				{
					"inputs": [],
					"name": "renounceOwnership",
					"outputs": [],
					"stateMutability": "nonpayable",
					"type": "function"
				},
				{
					"inputs": [
						{
							"internalType": "uint24",
							"name": "_newFee",
							"type": "uint24"
						}
					],
					"name": "setSwapFee",
					"outputs": [],
					"stateMutability": "nonpayable",
					"type": "function"
				},
				{
					"inputs": [],
					"name": "swapFee",
					"outputs": [
						{
							"internalType": "uint24",
							"name": "",
							"type": "uint24"
						}
					],
					"stateMutability": "view",
					"type": "function"
				},
				{
					"inputs": [],
					"name": "swapRouter",
					"outputs": [
						{
							"internalType": "contract ISwapRouter",
							"name": "",
							"type": "address"
						}
					],
					"stateMutability": "view",
					"type": "function"
				},
				{
					"inputs": [],
					"name": "token",
					"outputs": [
						{
							"internalType": "contract ERC20",
							"name": "",
							"type": "address"
						}
					],
					"stateMutability": "view",
					"type": "function"
				},
				{
					"inputs": [
						{
							"internalType": "address",
							"name": "newOwner",
							"type": "address"
						}
					],
					"name": "transferOwnership",
					"outputs": [],
					"stateMutability": "nonpayable",
					"type": "function"
				},
				{
					"inputs": [
						{
							"internalType": "address",
							"name": "_token",
							"type": "address"
						},
						{
							"internalType": "uint256",
							"name": "_amount",
							"type": "uint256"
						}
					],
					"name": "withdraw",
					"outputs": [],
					"stateMutability": "nonpayable",
					"type": "function"
				},
				{
					"inputs": [
						{
							"internalType": "uint256",
							"name": "_amount",
							"type": "uint256"
						}
					],
					"name": "withdrawWETH",
					"outputs": [],
					"stateMutability": "nonpayable",
					"type": "function"
				},
				{
					"stateMutability": "payable",
					"type": "receive"
				}
			],
			"devdoc": {
				"errors": {
					"OwnableInvalidOwner(address)": [
						{
							"details": "The owner is not a valid owner account. (eg. `address(0)`)"
						}
					],
					"OwnableUnauthorizedAccount(address)": [
						{
							"details": "The caller account is not authorized to perform an operation."
						}
					]
				},
				"kind": "dev",
				"methods": {
					"owner()": {
						"details": "Returns the address of the current owner."
					},
					"renounceOwnership()": {
						"details": "Leaves the contract without owner. It will not be possible to call `onlyOwner` functions. Can only be called by the current owner. NOTE: Renouncing ownership will leave the contract without an owner, thereby disabling any functionality that is only available to the owner."
					},
					"transferOwnership(address)": {
						"details": "Transfers ownership of the contract to a new account (`newOwner`). Can only be called by the current owner."
					}
				},
				"version": 1
			},
			"evm": {
				"assembly": "    /* \"contracts/build_bounty/prototype/auto_swap_build.sol\":502:2717  contract AutoSwapDonation is Ownable {... */\n  mstore(0x40, 0xc0)\n    /* \"contracts/build_bounty/prototype/auto_swap_build.sol\":944:1142  constructor(address _token, address _swapRouter, uint24 _swapFee)Ownable(msg.sender) {... */\n  callvalue\n  dup1\n  iszero\n  tag_1\n  jumpi\n  0x00\n  dup1\n  revert\ntag_1:\n  pop\n  mload(0x40)\n  sub(codesize, bytecodeSize)\n  dup1\n  bytecodeSize\n  dup4\n  codecopy\n  dup2\n  dup2\n  add\n  0x40\n  mstore\n  dup2\n  add\n  swap1\n  tag_2\n  swap2\n  swap1\n  tag_3\n  jump\t// in\ntag_2:\n    /* \"contracts/build_bounty/prototype/auto_swap_build.sol\":1017:1027  msg.sender */\n  caller\n    /* \"@openzeppelin/contracts/access/Ownable.sol\":1297:1298  0 */\n  0x00\n    /* \"@openzeppelin/contracts/access/Ownable.sol\":1273:1299  initialOwner == address(0) */\n  0xffffffffffffffffffffffffffffffffffffffff\n  and\n    /* \"@openzeppelin/contracts/access/Ownable.sol\":1273:1285  initialOwner */\n  dup2\n    /* \"@openzeppelin/contracts/access/Ownable.sol\":1273:1299  initialOwner == address(0) */\n  0xffffffffffffffffffffffffffffffffffffffff\n  and\n  sub\n    /* \"@openzeppelin/contracts/access/Ownable.sol\":1269:1364  if (initialOwner == address(0)) {... */\n  tag_7\n  jumpi\n    /* \"@openzeppelin/contracts/access/Ownable.sol\":1350:1351  0 */\n  0x00\n    /* \"@openzeppelin/contracts/access/Ownable.sol\":1322:1353  OwnableInvalidOwner(address(0)) */\n  mload(0x40)\n  0x1e4fbdf700000000000000000000000000000000000000000000000000000000\n  dup2\n  mstore\n  0x04\n  add\n  tag_8\n  swap2\n  swap1\n  tag_9\n  jump\t// in\ntag_8:\n  mload(0x40)\n  dup1\n  swap2\n  sub\n  swap1\n  revert\n    /* \"@openzeppelin/contracts/access/Ownable.sol\":1269:1364  if (initialOwner == address(0)) {... */\ntag_7:\n    /* \"@openzeppelin/contracts/access/Ownable.sol\":1373:1405  _transferOwnership(initialOwner) */\n  tag_10\n    /* \"@openzeppelin/contracts/access/Ownable.sol\":1392:1404  initialOwner */\n  dup2\n    /* \"@openzeppelin/contracts/access/Ownable.sol\":1373:1391  _transferOwnership */\n  shl(0x20, tag_11)\n    /* \"@openzeppelin/contracts/access/Ownable.sol\":1373:1405  _transferOwnership(initialOwner) */\n  0x20\n  shr\n  jump\t// in\ntag_10:\n    /* \"@openzeppelin/contracts/access/Ownable.sol\":1225:1412  constructor(address initialOwner) {... */\n  pop\n    /* \"contracts/build_bounty/prototype/auto_swap_build.sol\":1064:1075  _swapRouter */\n  dup2\n    /* \"contracts/build_bounty/prototype/auto_swap_build.sol\":1039:1076  swapRouter = ISwapRouter(_swapRouter) */\n  0xffffffffffffffffffffffffffffffffffffffff\n  and\n  0x80\n  dup2\n  0xffffffffffffffffffffffffffffffffffffffff\n  and\n  dup2\n  mstore\n  pop\n  pop\n    /* \"contracts/build_bounty/prototype/auto_swap_build.sol\":1100:1106  _token */\n  dup3\n    /* \"contracts/build_bounty/prototype/auto_swap_build.sol\":1086:1107  token = ERC20(_token) */\n  0xffffffffffffffffffffffffffffffffffffffff\n  and\n  0xa0\n  dup2\n  0xffffffffffffffffffffffffffffffffffffffff\n  and\n  dup2\n  mstore\n  pop\n  pop\n    /* \"contracts/build_bounty/prototype/auto_swap_build.sol\":1127:1135  _swapFee */\n  dup1\n    /* \"contracts/build_bounty/prototype/auto_swap_build.sol\":1117:1124  swapFee */\n  0x00\n  0x14\n    /* \"contracts/build_bounty/prototype/auto_swap_build.sol\":1117:1135  swapFee = _swapFee */\n  0x0100\n  exp\n  dup2\n  sload\n  dup2\n  0xffffff\n  mul\n  not\n  and\n  swap1\n  dup4\n  0xffffff\n  and\n  mul\n  or\n  swap1\n  sstore\n  pop\n    /* \"contracts/build_bounty/prototype/auto_swap_build.sol\":944:1142  constructor(address _token, address _swapRouter, uint24 _swapFee)Ownable(msg.sender) {... */\n  pop\n  pop\n  pop\n    /* \"contracts/build_bounty/prototype/auto_swap_build.sol\":502:2717  contract AutoSwapDonation is Ownable {... */\n  jump(tag_13)\n    /* \"@openzeppelin/contracts/access/Ownable.sol\":2912:3099  function _transferOwnership(address newOwner) internal virtual {... */\ntag_11:\n    /* \"@openzeppelin/contracts/access/Ownable.sol\":2985:3001  address oldOwner */\n  0x00\n    /* \"@openzeppelin/contracts/access/Ownable.sol\":3004:3010  _owner */\n  dup1\n  0x00\n  swap1\n  sload\n  swap1\n  0x0100\n  exp\n  swap1\n  div\n  0xffffffffffffffffffffffffffffffffffffffff\n  and\n    /* \"@openzeppelin/contracts/access/Ownable.sol\":2985:3010  address oldOwner = _owner */\n  swap1\n  pop\n    /* \"@openzeppelin/contracts/access/Ownable.sol\":3029:3037  newOwner */\n  dup2\n    /* \"@openzeppelin/contracts/access/Ownable.sol\":3020:3026  _owner */\n  0x00\n  dup1\n    /* \"@openzeppelin/contracts/access/Ownable.sol\":3020:3037  _owner = newOwner */\n  0x0100\n  exp\n  dup2\n  sload\n  dup2\n  0xffffffffffffffffffffffffffffffffffffffff\n  mul\n  not\n  and\n  swap1\n  dup4\n  0xffffffffffffffffffffffffffffffffffffffff\n  and\n  mul\n  or\n  swap1\n  sstore\n  pop\n    /* \"@openzeppelin/contracts/access/Ownable.sol\":3083:3091  newOwner */\n  dup2\n    /* \"@openzeppelin/contracts/access/Ownable.sol\":3052:3092  OwnershipTransferred(oldOwner, newOwner) */\n  0xffffffffffffffffffffffffffffffffffffffff\n  and\n    /* \"@openzeppelin/contracts/access/Ownable.sol\":3073:3081  oldOwner */\n  dup2\n    /* \"@openzeppelin/contracts/access/Ownable.sol\":3052:3092  OwnershipTransferred(oldOwner, newOwner) */\n  0xffffffffffffffffffffffffffffffffffffffff\n  and\n  0x8be0079c531659141344cd1fd0a4f28419497f9722a3daafe3b4186f6b6457e0\n  mload(0x40)\n  mload(0x40)\n  dup1\n  swap2\n  sub\n  swap1\n  log3\n    /* \"@openzeppelin/contracts/access/Ownable.sol\":2975:3099  {... */\n  pop\n    /* \"@openzeppelin/contracts/access/Ownable.sol\":2912:3099  function _transferOwnership(address newOwner) internal virtual {... */\n  pop\n  jump\t// out\n    /* \"#utility.yul\":88:205   */\ntag_16:\n    /* \"#utility.yul\":197:198   */\n  0x00\n    /* \"#utility.yul\":194:195   */\n  dup1\n    /* \"#utility.yul\":187:199   */\n  revert\n    /* \"#utility.yul\":334:460   */\ntag_18:\n    /* \"#utility.yul\":371:378   */\n  0x00\n    /* \"#utility.yul\":411:453   */\n  0xffffffffffffffffffffffffffffffffffffffff\n    /* \"#utility.yul\":404:409   */\n  dup3\n    /* \"#utility.yul\":400:454   */\n  and\n    /* \"#utility.yul\":389:454   */\n  swap1\n  pop\n    /* \"#utility.yul\":334:460   */\n  swap2\n  swap1\n  pop\n  jump\t// out\n    /* \"#utility.yul\":466:562   */\ntag_19:\n    /* \"#utility.yul\":503:510   */\n  0x00\n    /* \"#utility.yul\":532:556   */\n  tag_32\n    /* \"#utility.yul\":550:555   */\n  dup3\n    /* \"#utility.yul\":532:556   */\n  tag_18\n  jump\t// in\ntag_32:\n    /* \"#utility.yul\":521:556   */\n  swap1\n  pop\n    /* \"#utility.yul\":466:562   */\n  swap2\n  swap1\n  pop\n  jump\t// out\n    /* \"#utility.yul\":568:690   */\ntag_20:\n    /* \"#utility.yul\":641:665   */\n  tag_34\n    /* \"#utility.yul\":659:664   */\n  dup2\n    /* \"#utility.yul\":641:665   */\n  tag_19\n  jump\t// in\ntag_34:\n    /* \"#utility.yul\":634:639   */\n  dup2\n    /* \"#utility.yul\":631:666   */\n  eq\n    /* \"#utility.yul\":621:684   */\n  tag_35\n  jumpi\n    /* \"#utility.yul\":680:681   */\n  0x00\n    /* \"#utility.yul\":677:678   */\n  dup1\n    /* \"#utility.yul\":670:682   */\n  revert\n    /* \"#utility.yul\":621:684   */\ntag_35:\n    /* \"#utility.yul\":568:690   */\n  pop\n  jump\t// out\n    /* \"#utility.yul\":696:839   */\ntag_21:\n    /* \"#utility.yul\":753:758   */\n  0x00\n    /* \"#utility.yul\":784:790   */\n  dup2\n    /* \"#utility.yul\":778:791   */\n  mload\n    /* \"#utility.yul\":769:791   */\n  swap1\n  pop\n    /* \"#utility.yul\":800:833   */\n  tag_37\n    /* \"#utility.yul\":827:832   */\n  dup2\n    /* \"#utility.yul\":800:833   */\n  tag_20\n  jump\t// in\ntag_37:\n    /* \"#utility.yul\":696:839   */\n  swap3\n  swap2\n  pop\n  pop\n  jump\t// out\n    /* \"#utility.yul\":845:936   */\ntag_22:\n    /* \"#utility.yul\":881:888   */\n  0x00\n    /* \"#utility.yul\":921:929   */\n  0xffffff\n    /* \"#utility.yul\":914:919   */\n  dup3\n    /* \"#utility.yul\":910:930   */\n  and\n    /* \"#utility.yul\":899:930   */\n  swap1\n  pop\n    /* \"#utility.yul\":845:936   */\n  swap2\n  swap1\n  pop\n  jump\t// out\n    /* \"#utility.yul\":942:1062   */\ntag_23:\n    /* \"#utility.yul\":1014:1037   */\n  tag_40\n    /* \"#utility.yul\":1031:1036   */\n  dup2\n    /* \"#utility.yul\":1014:1037   */\n  tag_22\n  jump\t// in\ntag_40:\n    /* \"#utility.yul\":1007:1012   */\n  dup2\n    /* \"#utility.yul\":1004:1038   */\n  eq\n    /* \"#utility.yul\":994:1056   */\n  tag_41\n  jumpi\n    /* \"#utility.yul\":1052:1053   */\n  0x00\n    /* \"#utility.yul\":1049:1050   */\n  dup1\n    /* \"#utility.yul\":1042:1054   */\n  revert\n    /* \"#utility.yul\":994:1056   */\ntag_41:\n    /* \"#utility.yul\":942:1062   */\n  pop\n  jump\t// out\n    /* \"#utility.yul\":1068:1209   */\ntag_24:\n    /* \"#utility.yul\":1124:1129   */\n  0x00\n    /* \"#utility.yul\":1155:1161   */\n  dup2\n    /* \"#utility.yul\":1149:1162   */\n  mload\n    /* \"#utility.yul\":1140:1162   */\n  swap1\n  pop\n    /* \"#utility.yul\":1171:1203   */\n  tag_43\n    /* \"#utility.yul\":1197:1202   */\n  dup2\n    /* \"#utility.yul\":1171:1203   */\n  tag_23\n  jump\t// in\ntag_43:\n    /* \"#utility.yul\":1068:1209   */\n  swap3\n  swap2\n  pop\n  pop\n  jump\t// out\n    /* \"#utility.yul\":1215:1876   */\ntag_3:\n    /* \"#utility.yul\":1302:1308   */\n  0x00\n    /* \"#utility.yul\":1310:1316   */\n  dup1\n    /* \"#utility.yul\":1318:1324   */\n  0x00\n    /* \"#utility.yul\":1367:1369   */\n  0x60\n    /* \"#utility.yul\":1355:1364   */\n  dup5\n    /* \"#utility.yul\":1346:1353   */\n  dup7\n    /* \"#utility.yul\":1342:1365   */\n  sub\n    /* \"#utility.yul\":1338:1370   */\n  slt\n    /* \"#utility.yul\":1335:1454   */\n  iszero\n  tag_45\n  jumpi\n    /* \"#utility.yul\":1373:1452   */\n  tag_46\n  tag_16\n  jump\t// in\ntag_46:\n    /* \"#utility.yul\":1335:1454   */\ntag_45:\n    /* \"#utility.yul\":1493:1494   */\n  0x00\n    /* \"#utility.yul\":1518:1582   */\n  tag_47\n    /* \"#utility.yul\":1574:1581   */\n  dup7\n    /* \"#utility.yul\":1565:1571   */\n  dup3\n    /* \"#utility.yul\":1554:1563   */\n  dup8\n    /* \"#utility.yul\":1550:1572   */\n  add\n    /* \"#utility.yul\":1518:1582   */\n  tag_21\n  jump\t// in\ntag_47:\n    /* \"#utility.yul\":1508:1582   */\n  swap4\n  pop\n    /* \"#utility.yul\":1464:1592   */\n  pop\n    /* \"#utility.yul\":1631:1633   */\n  0x20\n    /* \"#utility.yul\":1657:1721   */\n  tag_48\n    /* \"#utility.yul\":1713:1720   */\n  dup7\n    /* \"#utility.yul\":1704:1710   */\n  dup3\n    /* \"#utility.yul\":1693:1702   */\n  dup8\n    /* \"#utility.yul\":1689:1711   */\n  add\n    /* \"#utility.yul\":1657:1721   */\n  tag_21\n  jump\t// in\ntag_48:\n    /* \"#utility.yul\":1647:1721   */\n  swap3\n  pop\n    /* \"#utility.yul\":1602:1731   */\n  pop\n    /* \"#utility.yul\":1770:1772   */\n  0x40\n    /* \"#utility.yul\":1796:1859   */\n  tag_49\n    /* \"#utility.yul\":1851:1858   */\n  dup7\n    /* \"#utility.yul\":1842:1848   */\n  dup3\n    /* \"#utility.yul\":1831:1840   */\n  dup8\n    /* \"#utility.yul\":1827:1849   */\n  add\n    /* \"#utility.yul\":1796:1859   */\n  tag_24\n  jump\t// in\ntag_49:\n    /* \"#utility.yul\":1786:1859   */\n  swap2\n  pop\n    /* \"#utility.yul\":1741:1869   */\n  pop\n    /* \"#utility.yul\":1215:1876   */\n  swap3\n  pop\n  swap3\n  pop\n  swap3\n  jump\t// out\n    /* \"#utility.yul\":1882:2000   */\ntag_25:\n    /* \"#utility.yul\":1969:1993   */\n  tag_51\n    /* \"#utility.yul\":1987:1992   */\n  dup2\n    /* \"#utility.yul\":1969:1993   */\n  tag_19\n  jump\t// in\ntag_51:\n    /* \"#utility.yul\":1964:1967   */\n  dup3\n    /* \"#utility.yul\":1957:1994   */\n  mstore\n    /* \"#utility.yul\":1882:2000   */\n  pop\n  pop\n  jump\t// out\n    /* \"#utility.yul\":2006:2228   */\ntag_9:\n    /* \"#utility.yul\":2099:2103   */\n  0x00\n    /* \"#utility.yul\":2137:2139   */\n  0x20\n    /* \"#utility.yul\":2126:2135   */\n  dup3\n    /* \"#utility.yul\":2122:2140   */\n  add\n    /* \"#utility.yul\":2114:2140   */\n  swap1\n  pop\n    /* \"#utility.yul\":2150:2221   */\n  tag_53\n    /* \"#utility.yul\":2218:2219   */\n  0x00\n    /* \"#utility.yul\":2207:2216   */\n  dup4\n    /* \"#utility.yul\":2203:2220   */\n  add\n    /* \"#utility.yul\":2194:2200   */\n  dup5\n    /* \"#utility.yul\":2150:2221   */\n  tag_25\n  jump\t// in\ntag_53:\n    /* \"#utility.yul\":2006:2228   */\n  swap3\n  swap2\n  pop\n  pop\n  jump\t// out\n    /* \"contracts/build_bounty/prototype/auto_swap_build.sol\":502:2717  contract AutoSwapDonation is Ownable {... */\ntag_13:\n  mload(0x80)\n  mload(0xa0)\n  codecopy(0x00, dataOffset(sub_0), dataSize(sub_0))\n  0x00\n  assignImmutable(\"0xd42f94ef3d2e62346988d2d58c999f56371dc7993a3ad4f92e0d3796c93f6830\")\n  0x00\n  assignImmutable(\"0x63f1589d04b1acca2eee17c7e4fcd27604d0b1130abe91a01e0f895b7d990172\")\n  return(0x00, dataSize(sub_0))\nstop\n\nsub_0: assembly {\n        /* \"contracts/build_bounty/prototype/auto_swap_build.sol\":502:2717  contract AutoSwapDonation is Ownable {... */\n      mstore(0x40, 0x80)\n      jumpi(tag_1, lt(calldatasize, 0x04))\n      shr(0xe0, calldataload(0x00))\n      dup1\n      0xed88c68e\n      gt\n      tag_13\n      jumpi\n      dup1\n      0xed88c68e\n      eq\n      tag_8\n      jumpi\n      dup1\n      0xf2fde38b\n      eq\n      tag_9\n      jumpi\n      dup1\n      0xf3fef3a3\n      eq\n      tag_10\n      jumpi\n      dup1\n      0xfc0c546a\n      eq\n      tag_11\n      jumpi\n      dup1\n      0xfc4dd333\n      eq\n      tag_12\n      jumpi\n      jump(tag_2)\n    tag_13:\n      dup1\n      0x54cf2aeb\n      eq\n      tag_3\n      jumpi\n      dup1\n      0x715018a6\n      eq\n      tag_4\n      jumpi\n      dup1\n      0x8da5cb5b\n      eq\n      tag_5\n      jumpi\n      dup1\n      0xc31c9c07\n      eq\n      tag_6\n      jumpi\n      dup1\n      0xe4c3a8f8\n      eq\n      tag_7\n      jumpi\n      jump(tag_2)\n    tag_1:\n      jumpi(tag_2, calldatasize)\n        /* \"contracts/build_bounty/prototype/auto_swap_build.sol\":2681:2708  _swapETHForToken(msg.value) */\n      tag_16\n        /* \"contracts/build_bounty/prototype/auto_swap_build.sol\":2698:2707  msg.value */\n      callvalue\n        /* \"contracts/build_bounty/prototype/auto_swap_build.sol\":2681:2697  _swapETHForToken */\n      tag_17\n        /* \"contracts/build_bounty/prototype/auto_swap_build.sol\":2681:2708  _swapETHForToken(msg.value) */\n      jump\t// in\n    tag_16:\n        /* \"contracts/build_bounty/prototype/auto_swap_build.sol\":502:2717  contract AutoSwapDonation is Ownable {... */\n      stop\n    tag_2:\n      0x00\n      dup1\n      revert\n        /* \"contracts/build_bounty/prototype/auto_swap_build.sol\":705:726  uint24 public swapFee */\n    tag_3:\n      callvalue\n      dup1\n      iszero\n      tag_18\n      jumpi\n      0x00\n      dup1\n      revert\n    tag_18:\n      pop\n      tag_19\n      tag_20\n      jump\t// in\n    tag_19:\n      mload(0x40)\n      tag_21\n      swap2\n      swap1\n      tag_22\n      jump\t// in\n    tag_21:\n      mload(0x40)\n      dup1\n      swap2\n      sub\n      swap1\n      return\n        /* \"@openzeppelin/contracts/access/Ownable.sol\":2293:2394  function renounceOwnership() public virtual onlyOwner {... */\n    tag_4:\n      callvalue\n      dup1\n      iszero\n      tag_23\n      jumpi\n      0x00\n      dup1\n      revert\n    tag_23:\n      pop\n      tag_24\n      tag_25\n      jump\t// in\n    tag_24:\n      stop\n        /* \"@openzeppelin/contracts/access/Ownable.sol\":1638:1723  function owner() public view virtual returns (address) {... */\n    tag_5:\n      callvalue\n      dup1\n      iszero\n      tag_26\n      jumpi\n      0x00\n      dup1\n      revert\n    tag_26:\n      pop\n      tag_27\n      tag_28\n      jump\t// in\n    tag_27:\n      mload(0x40)\n      tag_29\n      swap2\n      swap1\n      tag_30\n      jump\t// in\n    tag_29:\n      mload(0x40)\n      dup1\n      swap2\n      sub\n      swap1\n      return\n        /* \"contracts/build_bounty/prototype/auto_swap_build.sol\":545:584  ISwapRouter public immutable swapRouter */\n    tag_6:\n      callvalue\n      dup1\n      iszero\n      tag_31\n      jumpi\n      0x00\n      dup1\n      revert\n    tag_31:\n      pop\n      tag_32\n      tag_33\n      jump\t// in\n    tag_32:\n      mload(0x40)\n      tag_34\n      swap2\n      swap1\n      tag_35\n      jump\t// in\n    tag_34:\n      mload(0x40)\n      dup1\n      swap2\n      sub\n      swap1\n      return\n        /* \"contracts/build_bounty/prototype/auto_swap_build.sol\":2552:2639  function setSwapFee(uint24 _newFee) public onlyOwner {... */\n    tag_7:\n      callvalue\n      dup1\n      iszero\n      tag_36\n      jumpi\n      0x00\n      dup1\n      revert\n    tag_36:\n      pop\n      tag_37\n      0x04\n      dup1\n      calldatasize\n      sub\n      dup2\n      add\n      swap1\n      tag_38\n      swap2\n      swap1\n      tag_39\n      jump\t// in\n    tag_38:\n      tag_40\n      jump\t// in\n    tag_37:\n      stop\n        /* \"contracts/build_bounty/prototype/auto_swap_build.sol\":1147:1278  function donate() public payable {... */\n    tag_8:\n      tag_41\n      tag_42\n      jump\t// in\n    tag_41:\n      stop\n        /* \"@openzeppelin/contracts/access/Ownable.sol\":2543:2758  function transferOwnership(address newOwner) public virtual onlyOwner {... */\n    tag_9:\n      callvalue\n      dup1\n      iszero\n      tag_43\n      jumpi\n      0x00\n      dup1\n      revert\n    tag_43:\n      pop\n      tag_44\n      0x04\n      dup1\n      calldatasize\n      sub\n      dup2\n      add\n      swap1\n      tag_45\n      swap2\n      swap1\n      tag_46\n      jump\t// in\n    tag_45:\n      tag_47\n      jump\t// in\n    tag_44:\n      stop\n        /* \"contracts/build_bounty/prototype/auto_swap_build.sol\":1992:2338  function withdraw(address _token, uint256 _amount) public onlyOwner {... */\n    tag_10:\n      callvalue\n      dup1\n      iszero\n      tag_48\n      jumpi\n      0x00\n      dup1\n      revert\n    tag_48:\n      pop\n      tag_49\n      0x04\n      dup1\n      calldatasize\n      sub\n      dup2\n      add\n      swap1\n      tag_50\n      swap2\n      swap1\n      tag_51\n      jump\t// in\n    tag_50:\n      tag_52\n      jump\t// in\n    tag_49:\n      stop\n        /* \"contracts/build_bounty/prototype/auto_swap_build.sol\":590:618  ERC20 public immutable token */\n    tag_11:\n      callvalue\n      dup1\n      iszero\n      tag_53\n      jumpi\n      0x00\n      dup1\n      revert\n    tag_53:\n      pop\n      tag_54\n      tag_55\n      jump\t// in\n    tag_54:\n      mload(0x40)\n      tag_56\n      swap2\n      swap1\n      tag_57\n      jump\t// in\n    tag_56:\n      mload(0x40)\n      dup1\n      swap2\n      sub\n      swap1\n      return\n        /* \"contracts/build_bounty/prototype/auto_swap_build.sol\":2344:2546  function withdrawWETH(uint256 _amount) public onlyOwner {... */\n    tag_12:\n      callvalue\n      dup1\n      iszero\n      tag_58\n      jumpi\n      0x00\n      dup1\n      revert\n    tag_58:\n      pop\n      tag_59\n      0x04\n      dup1\n      calldatasize\n      sub\n      dup2\n      add\n      swap1\n      tag_60\n      swap2\n      swap1\n      tag_61\n      jump\t// in\n    tag_60:\n      tag_62\n      jump\t// in\n    tag_59:\n      stop\n        /* \"contracts/build_bounty/prototype/auto_swap_build.sol\":1284:1986  function _swapETHForToken(uint256 amount) internal {... */\n    tag_17:\n        /* \"contracts/build_bounty/prototype/auto_swap_build.sol\":1362:1363  0 */\n      0x00\n        /* \"contracts/build_bounty/prototype/auto_swap_build.sol\":1353:1359  amount */\n      dup2\n        /* \"contracts/build_bounty/prototype/auto_swap_build.sol\":1353:1363  amount > 0 */\n      gt\n        /* \"contracts/build_bounty/prototype/auto_swap_build.sol\":1345:1381  require(amount > 0, \"Must send ETH\") */\n      tag_64\n      jumpi\n      mload(0x40)\n      0x08c379a000000000000000000000000000000000000000000000000000000000\n      dup2\n      mstore\n      0x04\n      add\n      tag_65\n      swap1\n      tag_66\n      jump\t// in\n    tag_65:\n      mload(0x40)\n      dup1\n      swap2\n      sub\n      swap1\n      revert\n    tag_64:\n        /* \"contracts/build_bounty/prototype/auto_swap_build.sol\":657:699  0x4200000000000000000000000000000000000006 */\n      0x4200000000000000000000000000000000000006\n        /* \"contracts/build_bounty/prototype/auto_swap_build.sol\":1392:1413  IWETH9(WETH9).deposit */\n      0xffffffffffffffffffffffffffffffffffffffff\n      and\n      0xd0e30db0\n        /* \"contracts/build_bounty/prototype/auto_swap_build.sol\":1421:1427  amount */\n      dup3\n        /* \"contracts/build_bounty/prototype/auto_swap_build.sol\":1392:1430  IWETH9(WETH9).deposit{value: amount}() */\n      mload(0x40)\n      dup3\n      0xffffffff\n      and\n      0xe0\n      shl\n      dup2\n      mstore\n      0x04\n      add\n      0x00\n      mload(0x40)\n      dup1\n      dup4\n      sub\n      dup2\n      dup6\n      dup9\n      dup1\n      extcodesize\n      iszero\n      dup1\n      iszero\n      tag_67\n      jumpi\n      0x00\n      dup1\n      revert\n    tag_67:\n      pop\n      gas\n      call\n      iszero\n      dup1\n      iszero\n      tag_69\n      jumpi\n      returndatasize\n      0x00\n      dup1\n      returndatacopy\n      revert(0x00, returndatasize)\n    tag_69:\n      pop\n      pop\n      pop\n      pop\n      pop\n        /* \"contracts/build_bounty/prototype/auto_swap_build.sol\":657:699  0x4200000000000000000000000000000000000006 */\n      0x4200000000000000000000000000000000000006\n        /* \"contracts/build_bounty/prototype/auto_swap_build.sol\":1440:1461  IWETH9(WETH9).approve */\n      0xffffffffffffffffffffffffffffffffffffffff\n      and\n      0x095ea7b3\n        /* \"contracts/build_bounty/prototype/auto_swap_build.sol\":1470:1480  swapRouter */\n      immutable(\"0x63f1589d04b1acca2eee17c7e4fcd27604d0b1130abe91a01e0f895b7d990172\")\n        /* \"contracts/build_bounty/prototype/auto_swap_build.sol\":1483:1489  amount */\n      dup4\n        /* \"contracts/build_bounty/prototype/auto_swap_build.sol\":1440:1490  IWETH9(WETH9).approve(address(swapRouter), amount) */\n      mload(0x40)\n      dup4\n      0xffffffff\n      and\n      0xe0\n      shl\n      dup2\n      mstore\n      0x04\n      add\n      tag_70\n      swap3\n      swap2\n      swap1\n      tag_71\n      jump\t// in\n    tag_70:\n      0x20\n      mload(0x40)\n      dup1\n      dup4\n      sub\n      dup2\n      0x00\n      dup8\n      gas\n      call\n      iszero\n      dup1\n      iszero\n      tag_73\n      jumpi\n      returndatasize\n      0x00\n      dup1\n      returndatacopy\n      revert(0x00, returndatasize)\n    tag_73:\n      pop\n      pop\n      pop\n      pop\n      mload(0x40)\n      returndatasize\n      not(0x1f)\n      0x1f\n      dup3\n      add\n      and\n      dup3\n      add\n      dup1\n      0x40\n      mstore\n      pop\n      dup2\n      add\n      swap1\n      tag_74\n      swap2\n      swap1\n      tag_75\n      jump\t// in\n    tag_74:\n      pop\n        /* \"contracts/build_bounty/prototype/auto_swap_build.sol\":1501:1549  ISwapRouter.ExactInputSingleParams memory params */\n      0x00\n        /* \"contracts/build_bounty/prototype/auto_swap_build.sol\":1552:1867  ISwapRouter.ExactInputSingleParams({... */\n      mload(0x40)\n      dup1\n      0x0100\n      add\n      0x40\n      mstore\n      dup1\n        /* \"contracts/build_bounty/prototype/auto_swap_build.sol\":657:699  0x4200000000000000000000000000000000000006 */\n      0x4200000000000000000000000000000000000006\n        /* \"contracts/build_bounty/prototype/auto_swap_build.sol\":1552:1867  ISwapRouter.ExactInputSingleParams({... */\n      0xffffffffffffffffffffffffffffffffffffffff\n      and\n      dup2\n      mstore\n      0x20\n      add\n        /* \"contracts/build_bounty/prototype/auto_swap_build.sol\":1647:1652  token */\n      immutable(\"0xd42f94ef3d2e62346988d2d58c999f56371dc7993a3ad4f92e0d3796c93f6830\")\n        /* \"contracts/build_bounty/prototype/auto_swap_build.sol\":1552:1867  ISwapRouter.ExactInputSingleParams({... */\n      0xffffffffffffffffffffffffffffffffffffffff\n      and\n      dup2\n      mstore\n      0x20\n      add\n        /* \"contracts/build_bounty/prototype/auto_swap_build.sol\":1672:1679  swapFee */\n      0x00\n      0x14\n      swap1\n      sload\n      swap1\n      0x0100\n      exp\n      swap1\n      div\n      0xffffff\n      and\n        /* \"contracts/build_bounty/prototype/auto_swap_build.sol\":1552:1867  ISwapRouter.ExactInputSingleParams({... */\n      0xffffff\n      and\n      dup2\n      mstore\n      0x20\n      add\n        /* \"contracts/build_bounty/prototype/auto_swap_build.sol\":1704:1714  msg.sender */\n      caller\n        /* \"contracts/build_bounty/prototype/auto_swap_build.sol\":1552:1867  ISwapRouter.ExactInputSingleParams({... */\n      0xffffffffffffffffffffffffffffffffffffffff\n      and\n      dup2\n      mstore\n      0x20\n      add\n        /* \"contracts/build_bounty/prototype/auto_swap_build.sol\":1756:1759  300 */\n      0x012c\n        /* \"contracts/build_bounty/prototype/auto_swap_build.sol\":1738:1753  block.timestamp */\n      timestamp\n        /* \"contracts/build_bounty/prototype/auto_swap_build.sol\":1738:1759  block.timestamp + 300 */\n      tag_76\n      swap2\n      swap1\n      tag_77\n      jump\t// in\n    tag_76:\n        /* \"contracts/build_bounty/prototype/auto_swap_build.sol\":1552:1867  ISwapRouter.ExactInputSingleParams({... */\n      dup2\n      mstore\n      0x20\n      add\n        /* \"contracts/build_bounty/prototype/auto_swap_build.sol\":1783:1789  amount */\n      dup4\n        /* \"contracts/build_bounty/prototype/auto_swap_build.sol\":1552:1867  ISwapRouter.ExactInputSingleParams({... */\n      dup2\n      mstore\n      0x20\n      add\n        /* \"contracts/build_bounty/prototype/auto_swap_build.sol\":1821:1822  0 */\n      0x00\n        /* \"contracts/build_bounty/prototype/auto_swap_build.sol\":1552:1867  ISwapRouter.ExactInputSingleParams({... */\n      dup2\n      mstore\n      0x20\n      add\n        /* \"contracts/build_bounty/prototype/auto_swap_build.sol\":1855:1856  0 */\n      0x00\n        /* \"contracts/build_bounty/prototype/auto_swap_build.sol\":1552:1867  ISwapRouter.ExactInputSingleParams({... */\n      0xffffffffffffffffffffffffffffffffffffffff\n      and\n      dup2\n      mstore\n      pop\n        /* \"contracts/build_bounty/prototype/auto_swap_build.sol\":1501:1867  ISwapRouter.ExactInputSingleParams memory params = ISwapRouter.ExactInputSingleParams({... */\n      swap1\n      pop\n        /* \"contracts/build_bounty/prototype/auto_swap_build.sol\":1878:1895  uint256 amountOut */\n      0x00\n        /* \"contracts/build_bounty/prototype/auto_swap_build.sol\":1898:1908  swapRouter */\n      immutable(\"0x63f1589d04b1acca2eee17c7e4fcd27604d0b1130abe91a01e0f895b7d990172\")\n        /* \"contracts/build_bounty/prototype/auto_swap_build.sol\":1898:1925  swapRouter.exactInputSingle */\n      0xffffffffffffffffffffffffffffffffffffffff\n      and\n      0x414bf389\n        /* \"contracts/build_bounty/prototype/auto_swap_build.sol\":1926:1932  params */\n      dup4\n        /* \"contracts/build_bounty/prototype/auto_swap_build.sol\":1898:1933  swapRouter.exactInputSingle(params) */\n      mload(0x40)\n      dup3\n      0xffffffff\n      and\n      0xe0\n      shl\n      dup2\n      mstore\n      0x04\n      add\n      tag_78\n      swap2\n      swap1\n      tag_79\n      jump\t// in\n    tag_78:\n      0x20\n      mload(0x40)\n      dup1\n      dup4\n      sub\n      dup2\n      0x00\n      dup8\n      gas\n      call\n      iszero\n      dup1\n      iszero\n      tag_81\n      jumpi\n      returndatasize\n      0x00\n      dup1\n      returndatacopy\n      revert(0x00, returndatasize)\n    tag_81:\n      pop\n      pop\n      pop\n      pop\n      mload(0x40)\n      returndatasize\n      not(0x1f)\n      0x1f\n      dup3\n      add\n      and\n      dup3\n      add\n      dup1\n      0x40\n      mstore\n      pop\n      dup2\n      add\n      swap1\n      tag_82\n      swap2\n      swap1\n      tag_83\n      jump\t// in\n    tag_82:\n        /* \"contracts/build_bounty/prototype/auto_swap_build.sol\":1878:1933  uint256 amountOut = swapRouter.exactInputSingle(params) */\n      swap1\n      pop\n        /* \"contracts/build_bounty/prototype/auto_swap_build.sol\":1948:1979  SwapExecuted(amount, amountOut) */\n      0x4f73e5828387c436ef01a51b03853873e76d7a5551556837d452cbeb6f285cb5\n        /* \"contracts/build_bounty/prototype/auto_swap_build.sol\":1961:1967  amount */\n      dup4\n        /* \"contracts/build_bounty/prototype/auto_swap_build.sol\":1969:1978  amountOut */\n      dup3\n        /* \"contracts/build_bounty/prototype/auto_swap_build.sol\":1948:1979  SwapExecuted(amount, amountOut) */\n      mload(0x40)\n      tag_84\n      swap3\n      swap2\n      swap1\n      tag_85\n      jump\t// in\n    tag_84:\n      mload(0x40)\n      dup1\n      swap2\n      sub\n      swap1\n      log1\n        /* \"contracts/build_bounty/prototype/auto_swap_build.sol\":1335:1986  {... */\n      pop\n      pop\n        /* \"contracts/build_bounty/prototype/auto_swap_build.sol\":1284:1986  function _swapETHForToken(uint256 amount) internal {... */\n      pop\n      jump\t// out\n        /* \"contracts/build_bounty/prototype/auto_swap_build.sol\":705:726  uint24 public swapFee */\n    tag_20:\n      0x00\n      0x14\n      swap1\n      sload\n      swap1\n      0x0100\n      exp\n      swap1\n      div\n      0xffffff\n      and\n      dup2\n      jump\t// out\n        /* \"@openzeppelin/contracts/access/Ownable.sol\":2293:2394  function renounceOwnership() public virtual onlyOwner {... */\n    tag_25:\n        /* \"@openzeppelin/contracts/access/Ownable.sol\":1531:1544  _checkOwner() */\n      tag_87\n        /* \"@openzeppelin/contracts/access/Ownable.sol\":1531:1542  _checkOwner */\n      tag_88\n        /* \"@openzeppelin/contracts/access/Ownable.sol\":1531:1544  _checkOwner() */\n      jump\t// in\n    tag_87:\n        /* \"@openzeppelin/contracts/access/Ownable.sol\":2357:2387  _transferOwnership(address(0)) */\n      tag_90\n        /* \"@openzeppelin/contracts/access/Ownable.sol\":2384:2385  0 */\n      0x00\n        /* \"@openzeppelin/contracts/access/Ownable.sol\":2357:2375  _transferOwnership */\n      tag_91\n        /* \"@openzeppelin/contracts/access/Ownable.sol\":2357:2387  _transferOwnership(address(0)) */\n      jump\t// in\n    tag_90:\n        /* \"@openzeppelin/contracts/access/Ownable.sol\":2293:2394  function renounceOwnership() public virtual onlyOwner {... */\n      jump\t// out\n        /* \"@openzeppelin/contracts/access/Ownable.sol\":1638:1723  function owner() public view virtual returns (address) {... */\n    tag_28:\n        /* \"@openzeppelin/contracts/access/Ownable.sol\":1684:1691  address */\n      0x00\n        /* \"@openzeppelin/contracts/access/Ownable.sol\":1710:1716  _owner */\n      dup1\n      0x00\n      swap1\n      sload\n      swap1\n      0x0100\n      exp\n      swap1\n      div\n      0xffffffffffffffffffffffffffffffffffffffff\n      and\n        /* \"@openzeppelin/contracts/access/Ownable.sol\":1703:1716  return _owner */\n      swap1\n      pop\n        /* \"@openzeppelin/contracts/access/Ownable.sol\":1638:1723  function owner() public view virtual returns (address) {... */\n      swap1\n      jump\t// out\n        /* \"contracts/build_bounty/prototype/auto_swap_build.sol\":545:584  ISwapRouter public immutable swapRouter */\n    tag_33:\n      immutable(\"0x63f1589d04b1acca2eee17c7e4fcd27604d0b1130abe91a01e0f895b7d990172\")\n      dup2\n      jump\t// out\n        /* \"contracts/build_bounty/prototype/auto_swap_build.sol\":2552:2639  function setSwapFee(uint24 _newFee) public onlyOwner {... */\n    tag_40:\n        /* \"@openzeppelin/contracts/access/Ownable.sol\":1531:1544  _checkOwner() */\n      tag_94\n        /* \"@openzeppelin/contracts/access/Ownable.sol\":1531:1542  _checkOwner */\n      tag_88\n        /* \"@openzeppelin/contracts/access/Ownable.sol\":1531:1544  _checkOwner() */\n      jump\t// in\n    tag_94:\n        /* \"contracts/build_bounty/prototype/auto_swap_build.sol\":2625:2632  _newFee */\n      dup1\n        /* \"contracts/build_bounty/prototype/auto_swap_build.sol\":2615:2622  swapFee */\n      0x00\n      0x14\n        /* \"contracts/build_bounty/prototype/auto_swap_build.sol\":2615:2632  swapFee = _newFee */\n      0x0100\n      exp\n      dup2\n      sload\n      dup2\n      0xffffff\n      mul\n      not\n      and\n      swap1\n      dup4\n      0xffffff\n      and\n      mul\n      or\n      swap1\n      sstore\n      pop\n        /* \"contracts/build_bounty/prototype/auto_swap_build.sol\":2552:2639  function setSwapFee(uint24 _newFee) public onlyOwner {... */\n      pop\n      jump\t// out\n        /* \"contracts/build_bounty/prototype/auto_swap_build.sol\":1147:1278  function donate() public payable {... */\n    tag_42:\n        /* \"contracts/build_bounty/prototype/auto_swap_build.sol\":1190:1217  _swapETHForToken(msg.value) */\n      tag_97\n        /* \"contracts/build_bounty/prototype/auto_swap_build.sol\":1207:1216  msg.value */\n      callvalue\n        /* \"contracts/build_bounty/prototype/auto_swap_build.sol\":1190:1206  _swapETHForToken */\n      tag_17\n        /* \"contracts/build_bounty/prototype/auto_swap_build.sol\":1190:1217  _swapETHForToken(msg.value) */\n      jump\t// in\n    tag_97:\n        /* \"contracts/build_bounty/prototype/auto_swap_build.sol\":1249:1259  msg.sender */\n      caller\n        /* \"contracts/build_bounty/prototype/auto_swap_build.sol\":1232:1271  DonationReceived(msg.sender, msg.value) */\n      0xffffffffffffffffffffffffffffffffffffffff\n      and\n      0x264f630d9efa0d07053a31163641d9fcc0adafc9d9e76f1c37c2ce3a558d2c52\n        /* \"contracts/build_bounty/prototype/auto_swap_build.sol\":1261:1270  msg.value */\n      callvalue\n        /* \"contracts/build_bounty/prototype/auto_swap_build.sol\":1232:1271  DonationReceived(msg.sender, msg.value) */\n      mload(0x40)\n      tag_98\n      swap2\n      swap1\n      tag_99\n      jump\t// in\n    tag_98:\n      mload(0x40)\n      dup1\n      swap2\n      sub\n      swap1\n      log2\n        /* \"contracts/build_bounty/prototype/auto_swap_build.sol\":1147:1278  function donate() public payable {... */\n      jump\t// out\n        /* \"@openzeppelin/contracts/access/Ownable.sol\":2543:2758  function transferOwnership(address newOwner) public virtual onlyOwner {... */\n    tag_47:\n        /* \"@openzeppelin/contracts/access/Ownable.sol\":1531:1544  _checkOwner() */\n      tag_101\n        /* \"@openzeppelin/contracts/access/Ownable.sol\":1531:1542  _checkOwner */\n      tag_88\n        /* \"@openzeppelin/contracts/access/Ownable.sol\":1531:1544  _checkOwner() */\n      jump\t// in\n    tag_101:\n        /* \"@openzeppelin/contracts/access/Ownable.sol\":2647:2648  0 */\n      0x00\n        /* \"@openzeppelin/contracts/access/Ownable.sol\":2627:2649  newOwner == address(0) */\n      0xffffffffffffffffffffffffffffffffffffffff\n      and\n        /* \"@openzeppelin/contracts/access/Ownable.sol\":2627:2635  newOwner */\n      dup2\n        /* \"@openzeppelin/contracts/access/Ownable.sol\":2627:2649  newOwner == address(0) */\n      0xffffffffffffffffffffffffffffffffffffffff\n      and\n      sub\n        /* \"@openzeppelin/contracts/access/Ownable.sol\":2623:2714  if (newOwner == address(0)) {... */\n      tag_103\n      jumpi\n        /* \"@openzeppelin/contracts/access/Ownable.sol\":2700:2701  0 */\n      0x00\n        /* \"@openzeppelin/contracts/access/Ownable.sol\":2672:2703  OwnableInvalidOwner(address(0)) */\n      mload(0x40)\n      0x1e4fbdf700000000000000000000000000000000000000000000000000000000\n      dup2\n      mstore\n      0x04\n      add\n      tag_104\n      swap2\n      swap1\n      tag_30\n      jump\t// in\n    tag_104:\n      mload(0x40)\n      dup1\n      swap2\n      sub\n      swap1\n      revert\n        /* \"@openzeppelin/contracts/access/Ownable.sol\":2623:2714  if (newOwner == address(0)) {... */\n    tag_103:\n        /* \"@openzeppelin/contracts/access/Ownable.sol\":2723:2751  _transferOwnership(newOwner) */\n      tag_105\n        /* \"@openzeppelin/contracts/access/Ownable.sol\":2742:2750  newOwner */\n      dup2\n        /* \"@openzeppelin/contracts/access/Ownable.sol\":2723:2741  _transferOwnership */\n      tag_91\n        /* \"@openzeppelin/contracts/access/Ownable.sol\":2723:2751  _transferOwnership(newOwner) */\n      jump\t// in\n    tag_105:\n        /* \"@openzeppelin/contracts/access/Ownable.sol\":2543:2758  function transferOwnership(address newOwner) public virtual onlyOwner {... */\n      pop\n      jump\t// out\n        /* \"contracts/build_bounty/prototype/auto_swap_build.sol\":1992:2338  function withdraw(address _token, uint256 _amount) public onlyOwner {... */\n    tag_52:\n        /* \"@openzeppelin/contracts/access/Ownable.sol\":1531:1544  _checkOwner() */\n      tag_107\n        /* \"@openzeppelin/contracts/access/Ownable.sol\":1531:1542  _checkOwner */\n      tag_88\n        /* \"@openzeppelin/contracts/access/Ownable.sol\":1531:1544  _checkOwner() */\n      jump\t// in\n    tag_107:\n        /* \"contracts/build_bounty/prototype/auto_swap_build.sol\":2096:2101  token */\n      immutable(\"0xd42f94ef3d2e62346988d2d58c999f56371dc7993a3ad4f92e0d3796c93f6830\")\n        /* \"contracts/build_bounty/prototype/auto_swap_build.sol\":2078:2102  _token != address(token) */\n      0xffffffffffffffffffffffffffffffffffffffff\n      and\n        /* \"contracts/build_bounty/prototype/auto_swap_build.sol\":2078:2084  _token */\n      dup3\n        /* \"contracts/build_bounty/prototype/auto_swap_build.sol\":2078:2102  _token != address(token) */\n      0xffffffffffffffffffffffffffffffffffffffff\n      and\n      sub\n        /* \"contracts/build_bounty/prototype/auto_swap_build.sol\":2070:2140  require(_token != address(token), \"Cannot withdraw the target token.\") */\n      tag_109\n      jumpi\n      mload(0x40)\n      0x08c379a000000000000000000000000000000000000000000000000000000000\n      dup2\n      mstore\n      0x04\n      add\n      tag_110\n      swap1\n      tag_111\n      jump\t// in\n    tag_110:\n      mload(0x40)\n      dup1\n      swap2\n      sub\n      swap1\n      revert\n    tag_109:\n        /* \"contracts/build_bounty/prototype/auto_swap_build.sol\":657:699  0x4200000000000000000000000000000000000006 */\n      0x4200000000000000000000000000000000000006\n        /* \"contracts/build_bounty/prototype/auto_swap_build.sol\":2158:2173  _token != WETH9 */\n      0xffffffffffffffffffffffffffffffffffffffff\n      and\n        /* \"contracts/build_bounty/prototype/auto_swap_build.sol\":2158:2164  _token */\n      dup3\n        /* \"contracts/build_bounty/prototype/auto_swap_build.sol\":2158:2173  _token != WETH9 */\n      0xffffffffffffffffffffffffffffffffffffffff\n      and\n      sub\n        /* \"contracts/build_bounty/prototype/auto_swap_build.sol\":2150:2226  require(_token != WETH9, \"Cannot withdraw WETH9 directly, use withdrawWETH\") */\n      tag_112\n      jumpi\n      mload(0x40)\n      0x08c379a000000000000000000000000000000000000000000000000000000000\n      dup2\n      mstore\n      0x04\n      add\n      tag_113\n      swap1\n      tag_114\n      jump\t// in\n    tag_113:\n      mload(0x40)\n      dup1\n      swap2\n      sub\n      swap1\n      revert\n    tag_112:\n        /* \"contracts/build_bounty/prototype/auto_swap_build.sol\":2242:2248  _token */\n      dup2\n        /* \"contracts/build_bounty/prototype/auto_swap_build.sol\":2236:2258  ERC20(_token).transfer */\n      0xffffffffffffffffffffffffffffffffffffffff\n      and\n      0xa9059cbb\n        /* \"contracts/build_bounty/prototype/auto_swap_build.sol\":2259:2269  msg.sender */\n      caller\n        /* \"contracts/build_bounty/prototype/auto_swap_build.sol\":2271:2278  _amount */\n      dup4\n        /* \"contracts/build_bounty/prototype/auto_swap_build.sol\":2236:2279  ERC20(_token).transfer(msg.sender, _amount) */\n      mload(0x40)\n      dup4\n      0xffffffff\n      and\n      0xe0\n      shl\n      dup2\n      mstore\n      0x04\n      add\n      tag_115\n      swap3\n      swap2\n      swap1\n      tag_71\n      jump\t// in\n    tag_115:\n      0x20\n      mload(0x40)\n      dup1\n      dup4\n      sub\n      dup2\n      0x00\n      dup8\n      gas\n      call\n      iszero\n      dup1\n      iszero\n      tag_117\n      jumpi\n      returndatasize\n      0x00\n      dup1\n      returndatacopy\n      revert(0x00, returndatasize)\n    tag_117:\n      pop\n      pop\n      pop\n      pop\n      mload(0x40)\n      returndatasize\n      not(0x1f)\n      0x1f\n      dup3\n      add\n      and\n      dup3\n      add\n      dup1\n      0x40\n      mstore\n      pop\n      dup2\n      add\n      swap1\n      tag_118\n      swap2\n      swap1\n      tag_75\n      jump\t// in\n    tag_118:\n      pop\n        /* \"contracts/build_bounty/prototype/auto_swap_build.sol\":2315:2321  _token */\n      dup2\n        /* \"contracts/build_bounty/prototype/auto_swap_build.sol\":2294:2331  Withdraw(msg.sender, _token, _amount) */\n      0xffffffffffffffffffffffffffffffffffffffff\n      and\n        /* \"contracts/build_bounty/prototype/auto_swap_build.sol\":2303:2313  msg.sender */\n      caller\n        /* \"contracts/build_bounty/prototype/auto_swap_build.sol\":2294:2331  Withdraw(msg.sender, _token, _amount) */\n      0xffffffffffffffffffffffffffffffffffffffff\n      and\n      0x9b1bfa7fa9ee420a16e124f794c35ac9f90472acc99140eb2f6447c714cad8eb\n        /* \"contracts/build_bounty/prototype/auto_swap_build.sol\":2323:2330  _amount */\n      dup4\n        /* \"contracts/build_bounty/prototype/auto_swap_build.sol\":2294:2331  Withdraw(msg.sender, _token, _amount) */\n      mload(0x40)\n      tag_119\n      swap2\n      swap1\n      tag_99\n      jump\t// in\n    tag_119:\n      mload(0x40)\n      dup1\n      swap2\n      sub\n      swap1\n      log3\n        /* \"contracts/build_bounty/prototype/auto_swap_build.sol\":1992:2338  function withdraw(address _token, uint256 _amount) public onlyOwner {... */\n      pop\n      pop\n      jump\t// out\n        /* \"contracts/build_bounty/prototype/auto_swap_build.sol\":590:618  ERC20 public immutable token */\n    tag_55:\n      immutable(\"0xd42f94ef3d2e62346988d2d58c999f56371dc7993a3ad4f92e0d3796c93f6830\")\n      dup2\n      jump\t// out\n        /* \"contracts/build_bounty/prototype/auto_swap_build.sol\":2344:2546  function withdrawWETH(uint256 _amount) public onlyOwner {... */\n    tag_62:\n        /* \"@openzeppelin/contracts/access/Ownable.sol\":1531:1544  _checkOwner() */\n      tag_121\n        /* \"@openzeppelin/contracts/access/Ownable.sol\":1531:1542  _checkOwner */\n      tag_88\n        /* \"@openzeppelin/contracts/access/Ownable.sol\":1531:1544  _checkOwner() */\n      jump\t// in\n    tag_121:\n        /* \"contracts/build_bounty/prototype/auto_swap_build.sol\":657:699  0x4200000000000000000000000000000000000006 */\n      0x4200000000000000000000000000000000000006\n        /* \"contracts/build_bounty/prototype/auto_swap_build.sol\":2410:2432  IWETH9(WETH9).withdraw */\n      0xffffffffffffffffffffffffffffffffffffffff\n      and\n      0x2e1a7d4d\n        /* \"contracts/build_bounty/prototype/auto_swap_build.sol\":2433:2440  _amount */\n      dup3\n        /* \"contracts/build_bounty/prototype/auto_swap_build.sol\":2410:2441  IWETH9(WETH9).withdraw(_amount) */\n      mload(0x40)\n      dup3\n      0xffffffff\n      and\n      0xe0\n      shl\n      dup2\n      mstore\n      0x04\n      add\n      tag_123\n      swap2\n      swap1\n      tag_99\n      jump\t// in\n    tag_123:\n      0x00\n      mload(0x40)\n      dup1\n      dup4\n      sub\n      dup2\n      0x00\n      dup8\n      dup1\n      extcodesize\n      iszero\n      dup1\n      iszero\n      tag_124\n      jumpi\n      0x00\n      dup1\n      revert\n    tag_124:\n      pop\n      gas\n      call\n      iszero\n      dup1\n      iszero\n      tag_126\n      jumpi\n      returndatasize\n      0x00\n      dup1\n      returndatacopy\n      revert(0x00, returndatasize)\n    tag_126:\n      pop\n      pop\n      pop\n      pop\n        /* \"contracts/build_bounty/prototype/auto_swap_build.sol\":2459:2469  msg.sender */\n      caller\n        /* \"contracts/build_bounty/prototype/auto_swap_build.sol\":2451:2479  payable(msg.sender).transfer */\n      0xffffffffffffffffffffffffffffffffffffffff\n      and\n        /* \"contracts/build_bounty/prototype/auto_swap_build.sol\":2451:2488  payable(msg.sender).transfer(_amount) */\n      0x08fc\n        /* \"contracts/build_bounty/prototype/auto_swap_build.sol\":2480:2487  _amount */\n      dup3\n        /* \"contracts/build_bounty/prototype/auto_swap_build.sol\":2451:2488  payable(msg.sender).transfer(_amount) */\n      swap1\n      dup2\n      iszero\n      mul\n      swap1\n      mload(0x40)\n      0x00\n      mload(0x40)\n      dup1\n      dup4\n      sub\n      dup2\n      dup6\n      dup9\n      dup9\n      call\n      swap4\n      pop\n      pop\n      pop\n      pop\n      iszero\n      dup1\n      iszero\n      tag_128\n      jumpi\n      returndatasize\n      0x00\n      dup1\n      returndatacopy\n      revert(0x00, returndatasize)\n    tag_128:\n      pop\n        /* \"contracts/build_bounty/prototype/auto_swap_build.sol\":657:699  0x4200000000000000000000000000000000000006 */\n      0x4200000000000000000000000000000000000006\n        /* \"contracts/build_bounty/prototype/auto_swap_build.sol\":2503:2539  Withdraw(msg.sender, WETH9, _amount) */\n      0xffffffffffffffffffffffffffffffffffffffff\n      and\n        /* \"contracts/build_bounty/prototype/auto_swap_build.sol\":2512:2522  msg.sender */\n      caller\n        /* \"contracts/build_bounty/prototype/auto_swap_build.sol\":2503:2539  Withdraw(msg.sender, WETH9, _amount) */\n      0xffffffffffffffffffffffffffffffffffffffff\n      and\n      0x9b1bfa7fa9ee420a16e124f794c35ac9f90472acc99140eb2f6447c714cad8eb\n        /* \"contracts/build_bounty/prototype/auto_swap_build.sol\":2531:2538  _amount */\n      dup4\n        /* \"contracts/build_bounty/prototype/auto_swap_build.sol\":2503:2539  Withdraw(msg.sender, WETH9, _amount) */\n      mload(0x40)\n      tag_129\n      swap2\n      swap1\n      tag_99\n      jump\t// in\n    tag_129:\n      mload(0x40)\n      dup1\n      swap2\n      sub\n      swap1\n      log3\n        /* \"contracts/build_bounty/prototype/auto_swap_build.sol\":2344:2546  function withdrawWETH(uint256 _amount) public onlyOwner {... */\n      pop\n      jump\t// out\n        /* \"@openzeppelin/contracts/access/Ownable.sol\":1796:1958  function _checkOwner() internal view virtual {... */\n    tag_88:\n        /* \"@openzeppelin/contracts/access/Ownable.sol\":1866:1878  _msgSender() */\n      tag_131\n        /* \"@openzeppelin/contracts/access/Ownable.sol\":1866:1876  _msgSender */\n      tag_132\n        /* \"@openzeppelin/contracts/access/Ownable.sol\":1866:1878  _msgSender() */\n      jump\t// in\n    tag_131:\n        /* \"@openzeppelin/contracts/access/Ownable.sol\":1855:1878  owner() != _msgSender() */\n      0xffffffffffffffffffffffffffffffffffffffff\n      and\n        /* \"@openzeppelin/contracts/access/Ownable.sol\":1855:1862  owner() */\n      tag_133\n        /* \"@openzeppelin/contracts/access/Ownable.sol\":1855:1860  owner */\n      tag_28\n        /* \"@openzeppelin/contracts/access/Ownable.sol\":1855:1862  owner() */\n      jump\t// in\n    tag_133:\n        /* \"@openzeppelin/contracts/access/Ownable.sol\":1855:1878  owner() != _msgSender() */\n      0xffffffffffffffffffffffffffffffffffffffff\n      and\n      eq\n        /* \"@openzeppelin/contracts/access/Ownable.sol\":1851:1952  if (owner() != _msgSender()) {... */\n      tag_134\n      jumpi\n        /* \"@openzeppelin/contracts/access/Ownable.sol\":1928:1940  _msgSender() */\n      tag_135\n        /* \"@openzeppelin/contracts/access/Ownable.sol\":1928:1938  _msgSender */\n      tag_132\n        /* \"@openzeppelin/contracts/access/Ownable.sol\":1928:1940  _msgSender() */\n      jump\t// in\n    tag_135:\n        /* \"@openzeppelin/contracts/access/Ownable.sol\":1901:1941  OwnableUnauthorizedAccount(_msgSender()) */\n      mload(0x40)\n      0x118cdaa700000000000000000000000000000000000000000000000000000000\n      dup2\n      mstore\n      0x04\n      add\n      tag_136\n      swap2\n      swap1\n      tag_30\n      jump\t// in\n    tag_136:\n      mload(0x40)\n      dup1\n      swap2\n      sub\n      swap1\n      revert\n        /* \"@openzeppelin/contracts/access/Ownable.sol\":1851:1952  if (owner() != _msgSender()) {... */\n    tag_134:\n        /* \"@openzeppelin/contracts/access/Ownable.sol\":1796:1958  function _checkOwner() internal view virtual {... */\n      jump\t// out\n        /* \"@openzeppelin/contracts/access/Ownable.sol\":2912:3099  function _transferOwnership(address newOwner) internal virtual {... */\n    tag_91:\n        /* \"@openzeppelin/contracts/access/Ownable.sol\":2985:3001  address oldOwner */\n      0x00\n        /* \"@openzeppelin/contracts/access/Ownable.sol\":3004:3010  _owner */\n      dup1\n      0x00\n      swap1\n      sload\n      swap1\n      0x0100\n      exp\n      swap1\n      div\n      0xffffffffffffffffffffffffffffffffffffffff\n      and\n        /* \"@openzeppelin/contracts/access/Ownable.sol\":2985:3010  address oldOwner = _owner */\n      swap1\n      pop\n        /* \"@openzeppelin/contracts/access/Ownable.sol\":3029:3037  newOwner */\n      dup2\n        /* \"@openzeppelin/contracts/access/Ownable.sol\":3020:3026  _owner */\n      0x00\n      dup1\n        /* \"@openzeppelin/contracts/access/Ownable.sol\":3020:3037  _owner = newOwner */\n      0x0100\n      exp\n      dup2\n      sload\n      dup2\n      0xffffffffffffffffffffffffffffffffffffffff\n      mul\n      not\n      and\n      swap1\n      dup4\n      0xffffffffffffffffffffffffffffffffffffffff\n      and\n      mul\n      or\n      swap1\n      sstore\n      pop\n        /* \"@openzeppelin/contracts/access/Ownable.sol\":3083:3091  newOwner */\n      dup2\n        /* \"@openzeppelin/contracts/access/Ownable.sol\":3052:3092  OwnershipTransferred(oldOwner, newOwner) */\n      0xffffffffffffffffffffffffffffffffffffffff\n      and\n        /* \"@openzeppelin/contracts/access/Ownable.sol\":3073:3081  oldOwner */\n      dup2\n        /* \"@openzeppelin/contracts/access/Ownable.sol\":3052:3092  OwnershipTransferred(oldOwner, newOwner) */\n      0xffffffffffffffffffffffffffffffffffffffff\n      and\n      0x8be0079c531659141344cd1fd0a4f28419497f9722a3daafe3b4186f6b6457e0\n      mload(0x40)\n      mload(0x40)\n      dup1\n      swap2\n      sub\n      swap1\n      log3\n        /* \"@openzeppelin/contracts/access/Ownable.sol\":2975:3099  {... */\n      pop\n        /* \"@openzeppelin/contracts/access/Ownable.sol\":2912:3099  function _transferOwnership(address newOwner) internal virtual {... */\n      pop\n      jump\t// out\n        /* \"@openzeppelin/contracts/utils/Context.sol\":656:752  function _msgSender() internal view virtual returns (address) {... */\n    tag_132:\n        /* \"@openzeppelin/contracts/utils/Context.sol\":709:716  address */\n      0x00\n        /* \"@openzeppelin/contracts/utils/Context.sol\":735:745  msg.sender */\n      caller\n        /* \"@openzeppelin/contracts/utils/Context.sol\":728:745  return msg.sender */\n      swap1\n      pop\n        /* \"@openzeppelin/contracts/utils/Context.sol\":656:752  function _msgSender() internal view virtual returns (address) {... */\n      swap1\n      jump\t// out\n        /* \"#utility.yul\":7:98   */\n    tag_139:\n        /* \"#utility.yul\":43:50   */\n      0x00\n        /* \"#utility.yul\":83:91   */\n      0xffffff\n        /* \"#utility.yul\":76:81   */\n      dup3\n        /* \"#utility.yul\":72:92   */\n      and\n        /* \"#utility.yul\":61:92   */\n      swap1\n      pop\n        /* \"#utility.yul\":7:98   */\n      swap2\n      swap1\n      pop\n      jump\t// out\n        /* \"#utility.yul\":104:219   */\n    tag_140:\n        /* \"#utility.yul\":189:212   */\n      tag_182\n        /* \"#utility.yul\":206:211   */\n      dup2\n        /* \"#utility.yul\":189:212   */\n      tag_139\n      jump\t// in\n    tag_182:\n        /* \"#utility.yul\":184:187   */\n      dup3\n        /* \"#utility.yul\":177:213   */\n      mstore\n        /* \"#utility.yul\":104:219   */\n      pop\n      pop\n      jump\t// out\n        /* \"#utility.yul\":225:443   */\n    tag_22:\n        /* \"#utility.yul\":316:320   */\n      0x00\n        /* \"#utility.yul\":354:356   */\n      0x20\n        /* \"#utility.yul\":343:352   */\n      dup3\n        /* \"#utility.yul\":339:357   */\n      add\n        /* \"#utility.yul\":331:357   */\n      swap1\n      pop\n        /* \"#utility.yul\":367:436   */\n      tag_184\n        /* \"#utility.yul\":433:434   */\n      0x00\n        /* \"#utility.yul\":422:431   */\n      dup4\n        /* \"#utility.yul\":418:435   */\n      add\n        /* \"#utility.yul\":409:415   */\n      dup5\n        /* \"#utility.yul\":367:436   */\n      tag_140\n      jump\t// in\n    tag_184:\n        /* \"#utility.yul\":225:443   */\n      swap3\n      swap2\n      pop\n      pop\n      jump\t// out\n        /* \"#utility.yul\":449:575   */\n    tag_141:\n        /* \"#utility.yul\":486:493   */\n      0x00\n        /* \"#utility.yul\":526:568   */\n      0xffffffffffffffffffffffffffffffffffffffff\n        /* \"#utility.yul\":519:524   */\n      dup3\n        /* \"#utility.yul\":515:569   */\n      and\n        /* \"#utility.yul\":504:569   */\n      swap1\n      pop\n        /* \"#utility.yul\":449:575   */\n      swap2\n      swap1\n      pop\n      jump\t// out\n        /* \"#utility.yul\":581:677   */\n    tag_142:\n        /* \"#utility.yul\":618:625   */\n      0x00\n        /* \"#utility.yul\":647:671   */\n      tag_187\n        /* \"#utility.yul\":665:670   */\n      dup3\n        /* \"#utility.yul\":647:671   */\n      tag_141\n      jump\t// in\n    tag_187:\n        /* \"#utility.yul\":636:671   */\n      swap1\n      pop\n        /* \"#utility.yul\":581:677   */\n      swap2\n      swap1\n      pop\n      jump\t// out\n        /* \"#utility.yul\":683:801   */\n    tag_143:\n        /* \"#utility.yul\":770:794   */\n      tag_189\n        /* \"#utility.yul\":788:793   */\n      dup2\n        /* \"#utility.yul\":770:794   */\n      tag_142\n      jump\t// in\n    tag_189:\n        /* \"#utility.yul\":765:768   */\n      dup3\n        /* \"#utility.yul\":758:795   */\n      mstore\n        /* \"#utility.yul\":683:801   */\n      pop\n      pop\n      jump\t// out\n        /* \"#utility.yul\":807:1029   */\n    tag_30:\n        /* \"#utility.yul\":900:904   */\n      0x00\n        /* \"#utility.yul\":938:940   */\n      0x20\n        /* \"#utility.yul\":927:936   */\n      dup3\n        /* \"#utility.yul\":923:941   */\n      add\n        /* \"#utility.yul\":915:941   */\n      swap1\n      pop\n        /* \"#utility.yul\":951:1022   */\n      tag_191\n        /* \"#utility.yul\":1019:1020   */\n      0x00\n        /* \"#utility.yul\":1008:1017   */\n      dup4\n        /* \"#utility.yul\":1004:1021   */\n      add\n        /* \"#utility.yul\":995:1001   */\n      dup5\n        /* \"#utility.yul\":951:1022   */\n      tag_143\n      jump\t// in\n    tag_191:\n        /* \"#utility.yul\":807:1029   */\n      swap3\n      swap2\n      pop\n      pop\n      jump\t// out\n        /* \"#utility.yul\":1035:1095   */\n    tag_144:\n        /* \"#utility.yul\":1063:1066   */\n      0x00\n        /* \"#utility.yul\":1084:1089   */\n      dup2\n        /* \"#utility.yul\":1077:1089   */\n      swap1\n      pop\n        /* \"#utility.yul\":1035:1095   */\n      swap2\n      swap1\n      pop\n      jump\t// out\n        /* \"#utility.yul\":1101:1243   */\n    tag_145:\n        /* \"#utility.yul\":1151:1160   */\n      0x00\n        /* \"#utility.yul\":1184:1237   */\n      tag_194\n        /* \"#utility.yul\":1202:1236   */\n      tag_195\n        /* \"#utility.yul\":1211:1235   */\n      tag_196\n        /* \"#utility.yul\":1229:1234   */\n      dup5\n        /* \"#utility.yul\":1211:1235   */\n      tag_141\n      jump\t// in\n    tag_196:\n        /* \"#utility.yul\":1202:1236   */\n      tag_144\n      jump\t// in\n    tag_195:\n        /* \"#utility.yul\":1184:1237   */\n      tag_141\n      jump\t// in\n    tag_194:\n        /* \"#utility.yul\":1171:1237   */\n      swap1\n      pop\n        /* \"#utility.yul\":1101:1243   */\n      swap2\n      swap1\n      pop\n      jump\t// out\n        /* \"#utility.yul\":1249:1375   */\n    tag_146:\n        /* \"#utility.yul\":1299:1308   */\n      0x00\n        /* \"#utility.yul\":1332:1369   */\n      tag_198\n        /* \"#utility.yul\":1363:1368   */\n      dup3\n        /* \"#utility.yul\":1332:1369   */\n      tag_145\n      jump\t// in\n    tag_198:\n        /* \"#utility.yul\":1319:1369   */\n      swap1\n      pop\n        /* \"#utility.yul\":1249:1375   */\n      swap2\n      swap1\n      pop\n      jump\t// out\n        /* \"#utility.yul\":1381:1527   */\n    tag_147:\n        /* \"#utility.yul\":1451:1460   */\n      0x00\n        /* \"#utility.yul\":1484:1521   */\n      tag_200\n        /* \"#utility.yul\":1515:1520   */\n      dup3\n        /* \"#utility.yul\":1484:1521   */\n      tag_146\n      jump\t// in\n    tag_200:\n        /* \"#utility.yul\":1471:1521   */\n      swap1\n      pop\n        /* \"#utility.yul\":1381:1527   */\n      swap2\n      swap1\n      pop\n      jump\t// out\n        /* \"#utility.yul\":1533:1704   */\n    tag_148:\n        /* \"#utility.yul\":1640:1697   */\n      tag_202\n        /* \"#utility.yul\":1691:1696   */\n      dup2\n        /* \"#utility.yul\":1640:1697   */\n      tag_147\n      jump\t// in\n    tag_202:\n        /* \"#utility.yul\":1635:1638   */\n      dup3\n        /* \"#utility.yul\":1628:1698   */\n      mstore\n        /* \"#utility.yul\":1533:1704   */\n      pop\n      pop\n      jump\t// out\n        /* \"#utility.yul\":1710:1972   */\n    tag_35:\n        /* \"#utility.yul\":1823:1827   */\n      0x00\n        /* \"#utility.yul\":1861:1863   */\n      0x20\n        /* \"#utility.yul\":1850:1859   */\n      dup3\n        /* \"#utility.yul\":1846:1864   */\n      add\n        /* \"#utility.yul\":1838:1864   */\n      swap1\n      pop\n        /* \"#utility.yul\":1874:1965   */\n      tag_204\n        /* \"#utility.yul\":1962:1963   */\n      0x00\n        /* \"#utility.yul\":1951:1960   */\n      dup4\n        /* \"#utility.yul\":1947:1964   */\n      add\n        /* \"#utility.yul\":1938:1944   */\n      dup5\n        /* \"#utility.yul\":1874:1965   */\n      tag_148\n      jump\t// in\n    tag_204:\n        /* \"#utility.yul\":1710:1972   */\n      swap3\n      swap2\n      pop\n      pop\n      jump\t// out\n        /* \"#utility.yul\":2059:2176   */\n    tag_150:\n        /* \"#utility.yul\":2168:2169   */\n      0x00\n        /* \"#utility.yul\":2165:2166   */\n      dup1\n        /* \"#utility.yul\":2158:2170   */\n      revert\n        /* \"#utility.yul\":2305:2425   */\n    tag_152:\n        /* \"#utility.yul\":2377:2400   */\n      tag_209\n        /* \"#utility.yul\":2394:2399   */\n      dup2\n        /* \"#utility.yul\":2377:2400   */\n      tag_139\n      jump\t// in\n    tag_209:\n        /* \"#utility.yul\":2370:2375   */\n      dup2\n        /* \"#utility.yul\":2367:2401   */\n      eq\n        /* \"#utility.yul\":2357:2419   */\n      tag_210\n      jumpi\n        /* \"#utility.yul\":2415:2416   */\n      0x00\n        /* \"#utility.yul\":2412:2413   */\n      dup1\n        /* \"#utility.yul\":2405:2417   */\n      revert\n        /* \"#utility.yul\":2357:2419   */\n    tag_210:\n        /* \"#utility.yul\":2305:2425   */\n      pop\n      jump\t// out\n        /* \"#utility.yul\":2431:2568   */\n    tag_153:\n        /* \"#utility.yul\":2476:2481   */\n      0x00\n        /* \"#utility.yul\":2514:2520   */\n      dup2\n        /* \"#utility.yul\":2501:2521   */\n      calldataload\n        /* \"#utility.yul\":2492:2521   */\n      swap1\n      pop\n        /* \"#utility.yul\":2530:2562   */\n      tag_212\n        /* \"#utility.yul\":2556:2561   */\n      dup2\n        /* \"#utility.yul\":2530:2562   */\n      tag_152\n      jump\t// in\n    tag_212:\n        /* \"#utility.yul\":2431:2568   */\n      swap3\n      swap2\n      pop\n      pop\n      jump\t// out\n        /* \"#utility.yul\":2574:2901   */\n    tag_39:\n        /* \"#utility.yul\":2632:2638   */\n      0x00\n        /* \"#utility.yul\":2681:2683   */\n      0x20\n        /* \"#utility.yul\":2669:2678   */\n      dup3\n        /* \"#utility.yul\":2660:2667   */\n      dup5\n        /* \"#utility.yul\":2656:2679   */\n      sub\n        /* \"#utility.yul\":2652:2684   */\n      slt\n        /* \"#utility.yul\":2649:2768   */\n      iszero\n      tag_214\n      jumpi\n        /* \"#utility.yul\":2687:2766   */\n      tag_215\n      tag_150\n      jump\t// in\n    tag_215:\n        /* \"#utility.yul\":2649:2768   */\n    tag_214:\n        /* \"#utility.yul\":2807:2808   */\n      0x00\n        /* \"#utility.yul\":2832:2884   */\n      tag_216\n        /* \"#utility.yul\":2876:2883   */\n      dup5\n        /* \"#utility.yul\":2867:2873   */\n      dup3\n        /* \"#utility.yul\":2856:2865   */\n      dup6\n        /* \"#utility.yul\":2852:2874   */\n      add\n        /* \"#utility.yul\":2832:2884   */\n      tag_153\n      jump\t// in\n    tag_216:\n        /* \"#utility.yul\":2822:2884   */\n      swap2\n      pop\n        /* \"#utility.yul\":2778:2894   */\n      pop\n        /* \"#utility.yul\":2574:2901   */\n      swap3\n      swap2\n      pop\n      pop\n      jump\t// out\n        /* \"#utility.yul\":2907:3029   */\n    tag_154:\n        /* \"#utility.yul\":2980:3004   */\n      tag_218\n        /* \"#utility.yul\":2998:3003   */\n      dup2\n        /* \"#utility.yul\":2980:3004   */\n      tag_142\n      jump\t// in\n    tag_218:\n        /* \"#utility.yul\":2973:2978   */\n      dup2\n        /* \"#utility.yul\":2970:3005   */\n      eq\n        /* \"#utility.yul\":2960:3023   */\n      tag_219\n      jumpi\n        /* \"#utility.yul\":3019:3020   */\n      0x00\n        /* \"#utility.yul\":3016:3017   */\n      dup1\n        /* \"#utility.yul\":3009:3021   */\n      revert\n        /* \"#utility.yul\":2960:3023   */\n    tag_219:\n        /* \"#utility.yul\":2907:3029   */\n      pop\n      jump\t// out\n        /* \"#utility.yul\":3035:3174   */\n    tag_155:\n        /* \"#utility.yul\":3081:3086   */\n      0x00\n        /* \"#utility.yul\":3119:3125   */\n      dup2\n        /* \"#utility.yul\":3106:3126   */\n      calldataload\n        /* \"#utility.yul\":3097:3126   */\n      swap1\n      pop\n        /* \"#utility.yul\":3135:3168   */\n      tag_221\n        /* \"#utility.yul\":3162:3167   */\n      dup2\n        /* \"#utility.yul\":3135:3168   */\n      tag_154\n      jump\t// in\n    tag_221:\n        /* \"#utility.yul\":3035:3174   */\n      swap3\n      swap2\n      pop\n      pop\n      jump\t// out\n        /* \"#utility.yul\":3180:3509   */\n    tag_46:\n        /* \"#utility.yul\":3239:3245   */\n      0x00\n        /* \"#utility.yul\":3288:3290   */\n      0x20\n        /* \"#utility.yul\":3276:3285   */\n      dup3\n        /* \"#utility.yul\":3267:3274   */\n      dup5\n        /* \"#utility.yul\":3263:3286   */\n      sub\n        /* \"#utility.yul\":3259:3291   */\n      slt\n        /* \"#utility.yul\":3256:3375   */\n      iszero\n      tag_223\n      jumpi\n        /* \"#utility.yul\":3294:3373   */\n      tag_224\n      tag_150\n      jump\t// in\n    tag_224:\n        /* \"#utility.yul\":3256:3375   */\n    tag_223:\n        /* \"#utility.yul\":3414:3415   */\n      0x00\n        /* \"#utility.yul\":3439:3492   */\n      tag_225\n        /* \"#utility.yul\":3484:3491   */\n      dup5\n        /* \"#utility.yul\":3475:3481   */\n      dup3\n        /* \"#utility.yul\":3464:3473   */\n      dup6\n        /* \"#utility.yul\":3460:3482   */\n      add\n        /* \"#utility.yul\":3439:3492   */\n      tag_155\n      jump\t// in\n    tag_225:\n        /* \"#utility.yul\":3429:3492   */\n      swap2\n      pop\n        /* \"#utility.yul\":3385:3502   */\n      pop\n        /* \"#utility.yul\":3180:3509   */\n      swap3\n      swap2\n      pop\n      pop\n      jump\t// out\n        /* \"#utility.yul\":3515:3592   */\n    tag_156:\n        /* \"#utility.yul\":3552:3559   */\n      0x00\n        /* \"#utility.yul\":3581:3586   */\n      dup2\n        /* \"#utility.yul\":3570:3586   */\n      swap1\n      pop\n        /* \"#utility.yul\":3515:3592   */\n      swap2\n      swap1\n      pop\n      jump\t// out\n        /* \"#utility.yul\":3598:3720   */\n    tag_157:\n        /* \"#utility.yul\":3671:3695   */\n      tag_228\n        /* \"#utility.yul\":3689:3694   */\n      dup2\n        /* \"#utility.yul\":3671:3695   */\n      tag_156\n      jump\t// in\n    tag_228:\n        /* \"#utility.yul\":3664:3669   */\n      dup2\n        /* \"#utility.yul\":3661:3696   */\n      eq\n        /* \"#utility.yul\":3651:3714   */\n      tag_229\n      jumpi\n        /* \"#utility.yul\":3710:3711   */\n      0x00\n        /* \"#utility.yul\":3707:3708   */\n      dup1\n        /* \"#utility.yul\":3700:3712   */\n      revert\n        /* \"#utility.yul\":3651:3714   */\n    tag_229:\n        /* \"#utility.yul\":3598:3720   */\n      pop\n      jump\t// out\n        /* \"#utility.yul\":3726:3865   */\n    tag_158:\n        /* \"#utility.yul\":3772:3777   */\n      0x00\n        /* \"#utility.yul\":3810:3816   */\n      dup2\n        /* \"#utility.yul\":3797:3817   */\n      calldataload\n        /* \"#utility.yul\":3788:3817   */\n      swap1\n      pop\n        /* \"#utility.yul\":3826:3859   */\n      tag_231\n        /* \"#utility.yul\":3853:3858   */\n      dup2\n        /* \"#utility.yul\":3826:3859   */\n      tag_157\n      jump\t// in\n    tag_231:\n        /* \"#utility.yul\":3726:3865   */\n      swap3\n      swap2\n      pop\n      pop\n      jump\t// out\n        /* \"#utility.yul\":3871:4345   */\n    tag_51:\n        /* \"#utility.yul\":3939:3945   */\n      0x00\n        /* \"#utility.yul\":3947:3953   */\n      dup1\n        /* \"#utility.yul\":3996:3998   */\n      0x40\n        /* \"#utility.yul\":3984:3993   */\n      dup4\n        /* \"#utility.yul\":3975:3982   */\n      dup6\n        /* \"#utility.yul\":3971:3994   */\n      sub\n        /* \"#utility.yul\":3967:3999   */\n      slt\n        /* \"#utility.yul\":3964:4083   */\n      iszero\n      tag_233\n      jumpi\n        /* \"#utility.yul\":4002:4081   */\n      tag_234\n      tag_150\n      jump\t// in\n    tag_234:\n        /* \"#utility.yul\":3964:4083   */\n    tag_233:\n        /* \"#utility.yul\":4122:4123   */\n      0x00\n        /* \"#utility.yul\":4147:4200   */\n      tag_235\n        /* \"#utility.yul\":4192:4199   */\n      dup6\n        /* \"#utility.yul\":4183:4189   */\n      dup3\n        /* \"#utility.yul\":4172:4181   */\n      dup7\n        /* \"#utility.yul\":4168:4190   */\n      add\n        /* \"#utility.yul\":4147:4200   */\n      tag_155\n      jump\t// in\n    tag_235:\n        /* \"#utility.yul\":4137:4200   */\n      swap3\n      pop\n        /* \"#utility.yul\":4093:4210   */\n      pop\n        /* \"#utility.yul\":4249:4251   */\n      0x20\n        /* \"#utility.yul\":4275:4328   */\n      tag_236\n        /* \"#utility.yul\":4320:4327   */\n      dup6\n        /* \"#utility.yul\":4311:4317   */\n      dup3\n        /* \"#utility.yul\":4300:4309   */\n      dup7\n        /* \"#utility.yul\":4296:4318   */\n      add\n        /* \"#utility.yul\":4275:4328   */\n      tag_158\n      jump\t// in\n    tag_236:\n        /* \"#utility.yul\":4265:4328   */\n      swap2\n      pop\n        /* \"#utility.yul\":4220:4338   */\n      pop\n        /* \"#utility.yul\":3871:4345   */\n      swap3\n      pop\n      swap3\n      swap1\n      pop\n      jump\t// out\n        /* \"#utility.yul\":4351:4490   */\n    tag_159:\n        /* \"#utility.yul\":4414:4423   */\n      0x00\n        /* \"#utility.yul\":4447:4484   */\n      tag_238\n        /* \"#utility.yul\":4478:4483   */\n      dup3\n        /* \"#utility.yul\":4447:4484   */\n      tag_146\n      jump\t// in\n    tag_238:\n        /* \"#utility.yul\":4434:4484   */\n      swap1\n      pop\n        /* \"#utility.yul\":4351:4490   */\n      swap2\n      swap1\n      pop\n      jump\t// out\n        /* \"#utility.yul\":4496:4653   */\n    tag_160:\n        /* \"#utility.yul\":4596:4646   */\n      tag_240\n        /* \"#utility.yul\":4640:4645   */\n      dup2\n        /* \"#utility.yul\":4596:4646   */\n      tag_159\n      jump\t// in\n    tag_240:\n        /* \"#utility.yul\":4591:4594   */\n      dup3\n        /* \"#utility.yul\":4584:4647   */\n      mstore\n        /* \"#utility.yul\":4496:4653   */\n      pop\n      pop\n      jump\t// out\n        /* \"#utility.yul\":4659:4907   */\n    tag_57:\n        /* \"#utility.yul\":4765:4769   */\n      0x00\n        /* \"#utility.yul\":4803:4805   */\n      0x20\n        /* \"#utility.yul\":4792:4801   */\n      dup3\n        /* \"#utility.yul\":4788:4806   */\n      add\n        /* \"#utility.yul\":4780:4806   */\n      swap1\n      pop\n        /* \"#utility.yul\":4816:4900   */\n      tag_242\n        /* \"#utility.yul\":4897:4898   */\n      0x00\n        /* \"#utility.yul\":4886:4895   */\n      dup4\n        /* \"#utility.yul\":4882:4899   */\n      add\n        /* \"#utility.yul\":4873:4879   */\n      dup5\n        /* \"#utility.yul\":4816:4900   */\n      tag_160\n      jump\t// in\n    tag_242:\n        /* \"#utility.yul\":4659:4907   */\n      swap3\n      swap2\n      pop\n      pop\n      jump\t// out\n        /* \"#utility.yul\":4913:5242   */\n    tag_61:\n        /* \"#utility.yul\":4972:4978   */\n      0x00\n        /* \"#utility.yul\":5021:5023   */\n      0x20\n        /* \"#utility.yul\":5009:5018   */\n      dup3\n        /* \"#utility.yul\":5000:5007   */\n      dup5\n        /* \"#utility.yul\":4996:5019   */\n      sub\n        /* \"#utility.yul\":4992:5024   */\n      slt\n        /* \"#utility.yul\":4989:5108   */\n      iszero\n      tag_244\n      jumpi\n        /* \"#utility.yul\":5027:5106   */\n      tag_245\n      tag_150\n      jump\t// in\n    tag_245:\n        /* \"#utility.yul\":4989:5108   */\n    tag_244:\n        /* \"#utility.yul\":5147:5148   */\n      0x00\n        /* \"#utility.yul\":5172:5225   */\n      tag_246\n        /* \"#utility.yul\":5217:5224   */\n      dup5\n        /* \"#utility.yul\":5208:5214   */\n      dup3\n        /* \"#utility.yul\":5197:5206   */\n      dup6\n        /* \"#utility.yul\":5193:5215   */\n      add\n        /* \"#utility.yul\":5172:5225   */\n      tag_158\n      jump\t// in\n    tag_246:\n        /* \"#utility.yul\":5162:5225   */\n      swap2\n      pop\n        /* \"#utility.yul\":5118:5235   */\n      pop\n        /* \"#utility.yul\":4913:5242   */\n      swap3\n      swap2\n      pop\n      pop\n      jump\t// out\n        /* \"#utility.yul\":5248:5417   */\n    tag_161:\n        /* \"#utility.yul\":5332:5343   */\n      0x00\n        /* \"#utility.yul\":5366:5372   */\n      dup3\n        /* \"#utility.yul\":5361:5364   */\n      dup3\n        /* \"#utility.yul\":5354:5373   */\n      mstore\n        /* \"#utility.yul\":5406:5410   */\n      0x20\n        /* \"#utility.yul\":5401:5404   */\n      dup3\n        /* \"#utility.yul\":5397:5411   */\n      add\n        /* \"#utility.yul\":5382:5411   */\n      swap1\n      pop\n        /* \"#utility.yul\":5248:5417   */\n      swap3\n      swap2\n      pop\n      pop\n      jump\t// out\n        /* \"#utility.yul\":5423:5586   */\n    tag_162:\n        /* \"#utility.yul\":5563:5578   */\n      0x4d7573742073656e642045544800000000000000000000000000000000000000\n        /* \"#utility.yul\":5559:5560   */\n      0x00\n        /* \"#utility.yul\":5551:5557   */\n      dup3\n        /* \"#utility.yul\":5547:5561   */\n      add\n        /* \"#utility.yul\":5540:5579   */\n      mstore\n        /* \"#utility.yul\":5423:5586   */\n      pop\n      jump\t// out\n        /* \"#utility.yul\":5592:5958   */\n    tag_163:\n        /* \"#utility.yul\":5734:5737   */\n      0x00\n        /* \"#utility.yul\":5755:5822   */\n      tag_250\n        /* \"#utility.yul\":5819:5821   */\n      0x0d\n        /* \"#utility.yul\":5814:5817   */\n      dup4\n        /* \"#utility.yul\":5755:5822   */\n      tag_161\n      jump\t// in\n    tag_250:\n        /* \"#utility.yul\":5748:5822   */\n      swap2\n      pop\n        /* \"#utility.yul\":5831:5924   */\n      tag_251\n        /* \"#utility.yul\":5920:5923   */\n      dup3\n        /* \"#utility.yul\":5831:5924   */\n      tag_162\n      jump\t// in\n    tag_251:\n        /* \"#utility.yul\":5949:5951   */\n      0x20\n        /* \"#utility.yul\":5944:5947   */\n      dup3\n        /* \"#utility.yul\":5940:5952   */\n      add\n        /* \"#utility.yul\":5933:5952   */\n      swap1\n      pop\n        /* \"#utility.yul\":5592:5958   */\n      swap2\n      swap1\n      pop\n      jump\t// out\n        /* \"#utility.yul\":5964:6383   */\n    tag_66:\n        /* \"#utility.yul\":6130:6134   */\n      0x00\n        /* \"#utility.yul\":6168:6170   */\n      0x20\n        /* \"#utility.yul\":6157:6166   */\n      dup3\n        /* \"#utility.yul\":6153:6171   */\n      add\n        /* \"#utility.yul\":6145:6171   */\n      swap1\n      pop\n        /* \"#utility.yul\":6217:6226   */\n      dup2\n        /* \"#utility.yul\":6211:6215   */\n      dup2\n        /* \"#utility.yul\":6207:6227   */\n      sub\n        /* \"#utility.yul\":6203:6204   */\n      0x00\n        /* \"#utility.yul\":6192:6201   */\n      dup4\n        /* \"#utility.yul\":6188:6205   */\n      add\n        /* \"#utility.yul\":6181:6228   */\n      mstore\n        /* \"#utility.yul\":6245:6376   */\n      tag_253\n        /* \"#utility.yul\":6371:6375   */\n      dup2\n        /* \"#utility.yul\":6245:6376   */\n      tag_163\n      jump\t// in\n    tag_253:\n        /* \"#utility.yul\":6237:6376   */\n      swap1\n      pop\n        /* \"#utility.yul\":5964:6383   */\n      swap2\n      swap1\n      pop\n      jump\t// out\n        /* \"#utility.yul\":6389:6507   */\n    tag_164:\n        /* \"#utility.yul\":6476:6500   */\n      tag_255\n        /* \"#utility.yul\":6494:6499   */\n      dup2\n        /* \"#utility.yul\":6476:6500   */\n      tag_156\n      jump\t// in\n    tag_255:\n        /* \"#utility.yul\":6471:6474   */\n      dup3\n        /* \"#utility.yul\":6464:6501   */\n      mstore\n        /* \"#utility.yul\":6389:6507   */\n      pop\n      pop\n      jump\t// out\n        /* \"#utility.yul\":6513:6845   */\n    tag_71:\n        /* \"#utility.yul\":6634:6638   */\n      0x00\n        /* \"#utility.yul\":6672:6674   */\n      0x40\n        /* \"#utility.yul\":6661:6670   */\n      dup3\n        /* \"#utility.yul\":6657:6675   */\n      add\n        /* \"#utility.yul\":6649:6675   */\n      swap1\n      pop\n        /* \"#utility.yul\":6685:6756   */\n      tag_257\n        /* \"#utility.yul\":6753:6754   */\n      0x00\n        /* \"#utility.yul\":6742:6751   */\n      dup4\n        /* \"#utility.yul\":6738:6755   */\n      add\n        /* \"#utility.yul\":6729:6735   */\n      dup6\n        /* \"#utility.yul\":6685:6756   */\n      tag_143\n      jump\t// in\n    tag_257:\n        /* \"#utility.yul\":6766:6838   */\n      tag_258\n        /* \"#utility.yul\":6834:6836   */\n      0x20\n        /* \"#utility.yul\":6823:6832   */\n      dup4\n        /* \"#utility.yul\":6819:6837   */\n      add\n        /* \"#utility.yul\":6810:6816   */\n      dup5\n        /* \"#utility.yul\":6766:6838   */\n      tag_164\n      jump\t// in\n    tag_258:\n        /* \"#utility.yul\":6513:6845   */\n      swap4\n      swap3\n      pop\n      pop\n      pop\n      jump\t// out\n        /* \"#utility.yul\":6851:6941   */\n    tag_165:\n        /* \"#utility.yul\":6885:6892   */\n      0x00\n        /* \"#utility.yul\":6928:6933   */\n      dup2\n        /* \"#utility.yul\":6921:6934   */\n      iszero\n        /* \"#utility.yul\":6914:6935   */\n      iszero\n        /* \"#utility.yul\":6903:6935   */\n      swap1\n      pop\n        /* \"#utility.yul\":6851:6941   */\n      swap2\n      swap1\n      pop\n      jump\t// out\n        /* \"#utility.yul\":6947:7063   */\n    tag_166:\n        /* \"#utility.yul\":7017:7038   */\n      tag_261\n        /* \"#utility.yul\":7032:7037   */\n      dup2\n        /* \"#utility.yul\":7017:7038   */\n      tag_165\n      jump\t// in\n    tag_261:\n        /* \"#utility.yul\":7010:7015   */\n      dup2\n        /* \"#utility.yul\":7007:7039   */\n      eq\n        /* \"#utility.yul\":6997:7057   */\n      tag_262\n      jumpi\n        /* \"#utility.yul\":7053:7054   */\n      0x00\n        /* \"#utility.yul\":7050:7051   */\n      dup1\n        /* \"#utility.yul\":7043:7055   */\n      revert\n        /* \"#utility.yul\":6997:7057   */\n    tag_262:\n        /* \"#utility.yul\":6947:7063   */\n      pop\n      jump\t// out\n        /* \"#utility.yul\":7069:7206   */\n    tag_167:\n        /* \"#utility.yul\":7123:7128   */\n      0x00\n        /* \"#utility.yul\":7154:7160   */\n      dup2\n        /* \"#utility.yul\":7148:7161   */\n      mload\n        /* \"#utility.yul\":7139:7161   */\n      swap1\n      pop\n        /* \"#utility.yul\":7170:7200   */\n      tag_264\n        /* \"#utility.yul\":7194:7199   */\n      dup2\n        /* \"#utility.yul\":7170:7200   */\n      tag_166\n      jump\t// in\n    tag_264:\n        /* \"#utility.yul\":7069:7206   */\n      swap3\n      swap2\n      pop\n      pop\n      jump\t// out\n        /* \"#utility.yul\":7212:7557   */\n    tag_75:\n        /* \"#utility.yul\":7279:7285   */\n      0x00\n        /* \"#utility.yul\":7328:7330   */\n      0x20\n        /* \"#utility.yul\":7316:7325   */\n      dup3\n        /* \"#utility.yul\":7307:7314   */\n      dup5\n        /* \"#utility.yul\":7303:7326   */\n      sub\n        /* \"#utility.yul\":7299:7331   */\n      slt\n        /* \"#utility.yul\":7296:7415   */\n      iszero\n      tag_266\n      jumpi\n        /* \"#utility.yul\":7334:7413   */\n      tag_267\n      tag_150\n      jump\t// in\n    tag_267:\n        /* \"#utility.yul\":7296:7415   */\n    tag_266:\n        /* \"#utility.yul\":7454:7455   */\n      0x00\n        /* \"#utility.yul\":7479:7540   */\n      tag_268\n        /* \"#utility.yul\":7532:7539   */\n      dup5\n        /* \"#utility.yul\":7523:7529   */\n      dup3\n        /* \"#utility.yul\":7512:7521   */\n      dup6\n        /* \"#utility.yul\":7508:7530   */\n      add\n        /* \"#utility.yul\":7479:7540   */\n      tag_167\n      jump\t// in\n    tag_268:\n        /* \"#utility.yul\":7469:7540   */\n      swap2\n      pop\n        /* \"#utility.yul\":7425:7550   */\n      pop\n        /* \"#utility.yul\":7212:7557   */\n      swap3\n      swap2\n      pop\n      pop\n      jump\t// out\n        /* \"#utility.yul\":7563:7743   */\n    tag_168:\n        /* \"#utility.yul\":7611:7688   */\n      0x4e487b7100000000000000000000000000000000000000000000000000000000\n        /* \"#utility.yul\":7608:7609   */\n      0x00\n        /* \"#utility.yul\":7601:7689   */\n      mstore\n        /* \"#utility.yul\":7708:7712   */\n      0x11\n        /* \"#utility.yul\":7705:7706   */\n      0x04\n        /* \"#utility.yul\":7698:7713   */\n      mstore\n        /* \"#utility.yul\":7732:7736   */\n      0x24\n        /* \"#utility.yul\":7729:7730   */\n      0x00\n        /* \"#utility.yul\":7722:7737   */\n      revert\n        /* \"#utility.yul\":7749:7940   */\n    tag_77:\n        /* \"#utility.yul\":7789:7792   */\n      0x00\n        /* \"#utility.yul\":7808:7828   */\n      tag_271\n        /* \"#utility.yul\":7826:7827   */\n      dup3\n        /* \"#utility.yul\":7808:7828   */\n      tag_156\n      jump\t// in\n    tag_271:\n        /* \"#utility.yul\":7803:7828   */\n      swap2\n      pop\n        /* \"#utility.yul\":7842:7862   */\n      tag_272\n        /* \"#utility.yul\":7860:7861   */\n      dup4\n        /* \"#utility.yul\":7842:7862   */\n      tag_156\n      jump\t// in\n    tag_272:\n        /* \"#utility.yul\":7837:7862   */\n      swap3\n      pop\n        /* \"#utility.yul\":7885:7886   */\n      dup3\n        /* \"#utility.yul\":7882:7883   */\n      dup3\n        /* \"#utility.yul\":7878:7887   */\n      add\n        /* \"#utility.yul\":7871:7887   */\n      swap1\n      pop\n        /* \"#utility.yul\":7906:7909   */\n      dup1\n        /* \"#utility.yul\":7903:7904   */\n      dup3\n        /* \"#utility.yul\":7900:7910   */\n      gt\n        /* \"#utility.yul\":7897:7933   */\n      iszero\n      tag_273\n      jumpi\n        /* \"#utility.yul\":7913:7931   */\n      tag_274\n      tag_168\n      jump\t// in\n    tag_274:\n        /* \"#utility.yul\":7897:7933   */\n    tag_273:\n        /* \"#utility.yul\":7749:7940   */\n      swap3\n      swap2\n      pop\n      pop\n      jump\t// out\n        /* \"#utility.yul\":7946:8054   */\n    tag_169:\n        /* \"#utility.yul\":8023:8047   */\n      tag_276\n        /* \"#utility.yul\":8041:8046   */\n      dup2\n        /* \"#utility.yul\":8023:8047   */\n      tag_142\n      jump\t// in\n    tag_276:\n        /* \"#utility.yul\":8018:8021   */\n      dup3\n        /* \"#utility.yul\":8011:8048   */\n      mstore\n        /* \"#utility.yul\":7946:8054   */\n      pop\n      pop\n      jump\t// out\n        /* \"#utility.yul\":8060:8165   */\n    tag_170:\n        /* \"#utility.yul\":8135:8158   */\n      tag_278\n        /* \"#utility.yul\":8152:8157   */\n      dup2\n        /* \"#utility.yul\":8135:8158   */\n      tag_139\n      jump\t// in\n    tag_278:\n        /* \"#utility.yul\":8130:8133   */\n      dup3\n        /* \"#utility.yul\":8123:8159   */\n      mstore\n        /* \"#utility.yul\":8060:8165   */\n      pop\n      pop\n      jump\t// out\n        /* \"#utility.yul\":8171:8279   */\n    tag_171:\n        /* \"#utility.yul\":8248:8272   */\n      tag_280\n        /* \"#utility.yul\":8266:8271   */\n      dup2\n        /* \"#utility.yul\":8248:8272   */\n      tag_156\n      jump\t// in\n    tag_280:\n        /* \"#utility.yul\":8243:8246   */\n      dup3\n        /* \"#utility.yul\":8236:8273   */\n      mstore\n        /* \"#utility.yul\":8171:8279   */\n      pop\n      pop\n      jump\t// out\n        /* \"#utility.yul\":8285:8393   */\n    tag_172:\n        /* \"#utility.yul\":8362:8386   */\n      tag_282\n        /* \"#utility.yul\":8380:8385   */\n      dup2\n        /* \"#utility.yul\":8362:8386   */\n      tag_141\n      jump\t// in\n    tag_282:\n        /* \"#utility.yul\":8357:8360   */\n      dup3\n        /* \"#utility.yul\":8350:8387   */\n      mstore\n        /* \"#utility.yul\":8285:8393   */\n      pop\n      pop\n      jump\t// out\n        /* \"#utility.yul\":8493:10116   */\n    tag_173:\n        /* \"#utility.yul\":8668:8674   */\n      0x0100\n        /* \"#utility.yul\":8663:8666   */\n      dup3\n        /* \"#utility.yul\":8659:8675   */\n      add\n        /* \"#utility.yul\":8760:8764   */\n      0x00\n        /* \"#utility.yul\":8753:8758   */\n      dup3\n        /* \"#utility.yul\":8749:8765   */\n      add\n        /* \"#utility.yul\":8743:8766   */\n      mload\n        /* \"#utility.yul\":8779:8842   */\n      tag_284\n        /* \"#utility.yul\":8836:8840   */\n      0x00\n        /* \"#utility.yul\":8831:8834   */\n      dup6\n        /* \"#utility.yul\":8827:8841   */\n      add\n        /* \"#utility.yul\":8813:8825   */\n      dup3\n        /* \"#utility.yul\":8779:8842   */\n      tag_169\n      jump\t// in\n    tag_284:\n        /* \"#utility.yul\":8685:8852   */\n      pop\n        /* \"#utility.yul\":8938:8942   */\n      0x20\n        /* \"#utility.yul\":8931:8936   */\n      dup3\n        /* \"#utility.yul\":8927:8943   */\n      add\n        /* \"#utility.yul\":8921:8944   */\n      mload\n        /* \"#utility.yul\":8957:9020   */\n      tag_285\n        /* \"#utility.yul\":9014:9018   */\n      0x20\n        /* \"#utility.yul\":9009:9012   */\n      dup6\n        /* \"#utility.yul\":9005:9019   */\n      add\n        /* \"#utility.yul\":8991:9003   */\n      dup3\n        /* \"#utility.yul\":8957:9020   */\n      tag_169\n      jump\t// in\n    tag_285:\n        /* \"#utility.yul\":8862:9030   */\n      pop\n        /* \"#utility.yul\":9111:9115   */\n      0x40\n        /* \"#utility.yul\":9104:9109   */\n      dup3\n        /* \"#utility.yul\":9100:9116   */\n      add\n        /* \"#utility.yul\":9094:9117   */\n      mload\n        /* \"#utility.yul\":9130:9191   */\n      tag_286\n        /* \"#utility.yul\":9185:9189   */\n      0x40\n        /* \"#utility.yul\":9180:9183   */\n      dup6\n        /* \"#utility.yul\":9176:9190   */\n      add\n        /* \"#utility.yul\":9162:9174   */\n      dup3\n        /* \"#utility.yul\":9130:9191   */\n      tag_170\n      jump\t// in\n    tag_286:\n        /* \"#utility.yul\":9040:9201   */\n      pop\n        /* \"#utility.yul\":9288:9292   */\n      0x60\n        /* \"#utility.yul\":9281:9286   */\n      dup3\n        /* \"#utility.yul\":9277:9293   */\n      add\n        /* \"#utility.yul\":9271:9294   */\n      mload\n        /* \"#utility.yul\":9307:9370   */\n      tag_287\n        /* \"#utility.yul\":9364:9368   */\n      0x60\n        /* \"#utility.yul\":9359:9362   */\n      dup6\n        /* \"#utility.yul\":9355:9369   */\n      add\n        /* \"#utility.yul\":9341:9353   */\n      dup3\n        /* \"#utility.yul\":9307:9370   */\n      tag_169\n      jump\t// in\n    tag_287:\n        /* \"#utility.yul\":9211:9380   */\n      pop\n        /* \"#utility.yul\":9466:9470   */\n      0x80\n        /* \"#utility.yul\":9459:9464   */\n      dup3\n        /* \"#utility.yul\":9455:9471   */\n      add\n        /* \"#utility.yul\":9449:9472   */\n      mload\n        /* \"#utility.yul\":9485:9548   */\n      tag_288\n        /* \"#utility.yul\":9542:9546   */\n      0x80\n        /* \"#utility.yul\":9537:9540   */\n      dup6\n        /* \"#utility.yul\":9533:9547   */\n      add\n        /* \"#utility.yul\":9519:9531   */\n      dup3\n        /* \"#utility.yul\":9485:9548   */\n      tag_171\n      jump\t// in\n    tag_288:\n        /* \"#utility.yul\":9390:9558   */\n      pop\n        /* \"#utility.yul\":9644:9648   */\n      0xa0\n        /* \"#utility.yul\":9637:9642   */\n      dup3\n        /* \"#utility.yul\":9633:9649   */\n      add\n        /* \"#utility.yul\":9627:9650   */\n      mload\n        /* \"#utility.yul\":9663:9726   */\n      tag_289\n        /* \"#utility.yul\":9720:9724   */\n      0xa0\n        /* \"#utility.yul\":9715:9718   */\n      dup6\n        /* \"#utility.yul\":9711:9725   */\n      add\n        /* \"#utility.yul\":9697:9709   */\n      dup3\n        /* \"#utility.yul\":9663:9726   */\n      tag_171\n      jump\t// in\n    tag_289:\n        /* \"#utility.yul\":9568:9736   */\n      pop\n        /* \"#utility.yul\":9830:9834   */\n      0xc0\n        /* \"#utility.yul\":9823:9828   */\n      dup3\n        /* \"#utility.yul\":9819:9835   */\n      add\n        /* \"#utility.yul\":9813:9836   */\n      mload\n        /* \"#utility.yul\":9849:9912   */\n      tag_290\n        /* \"#utility.yul\":9906:9910   */\n      0xc0\n        /* \"#utility.yul\":9901:9904   */\n      dup6\n        /* \"#utility.yul\":9897:9911   */\n      add\n        /* \"#utility.yul\":9883:9895   */\n      dup3\n        /* \"#utility.yul\":9849:9912   */\n      tag_171\n      jump\t// in\n    tag_290:\n        /* \"#utility.yul\":9746:9922   */\n      pop\n        /* \"#utility.yul\":10017:10021   */\n      0xe0\n        /* \"#utility.yul\":10010:10015   */\n      dup3\n        /* \"#utility.yul\":10006:10022   */\n      add\n        /* \"#utility.yul\":10000:10023   */\n      mload\n        /* \"#utility.yul\":10036:10099   */\n      tag_291\n        /* \"#utility.yul\":10093:10097   */\n      0xe0\n        /* \"#utility.yul\":10088:10091   */\n      dup6\n        /* \"#utility.yul\":10084:10098   */\n      add\n        /* \"#utility.yul\":10070:10082   */\n      dup3\n        /* \"#utility.yul\":10036:10099   */\n      tag_172\n      jump\t// in\n    tag_291:\n        /* \"#utility.yul\":9932:10109   */\n      pop\n        /* \"#utility.yul\":8637:10116   */\n      pop\n        /* \"#utility.yul\":8493:10116   */\n      pop\n      pop\n      jump\t// out\n        /* \"#utility.yul\":10122:10501   */\n    tag_79:\n        /* \"#utility.yul\":10293:10297   */\n      0x00\n        /* \"#utility.yul\":10331:10334   */\n      0x0100\n        /* \"#utility.yul\":10320:10329   */\n      dup3\n        /* \"#utility.yul\":10316:10335   */\n      add\n        /* \"#utility.yul\":10308:10335   */\n      swap1\n      pop\n        /* \"#utility.yul\":10345:10494   */\n      tag_293\n        /* \"#utility.yul\":10491:10492   */\n      0x00\n        /* \"#utility.yul\":10480:10489   */\n      dup4\n        /* \"#utility.yul\":10476:10493   */\n      add\n        /* \"#utility.yul\":10467:10473   */\n      dup5\n        /* \"#utility.yul\":10345:10494   */\n      tag_173\n      jump\t// in\n    tag_293:\n        /* \"#utility.yul\":10122:10501   */\n      swap3\n      swap2\n      pop\n      pop\n      jump\t// out\n        /* \"#utility.yul\":10507:10650   */\n    tag_174:\n        /* \"#utility.yul\":10564:10569   */\n      0x00\n        /* \"#utility.yul\":10595:10601   */\n      dup2\n        /* \"#utility.yul\":10589:10602   */\n      mload\n        /* \"#utility.yul\":10580:10602   */\n      swap1\n      pop\n        /* \"#utility.yul\":10611:10644   */\n      tag_295\n        /* \"#utility.yul\":10638:10643   */\n      dup2\n        /* \"#utility.yul\":10611:10644   */\n      tag_157\n      jump\t// in\n    tag_295:\n        /* \"#utility.yul\":10507:10650   */\n      swap3\n      swap2\n      pop\n      pop\n      jump\t// out\n        /* \"#utility.yul\":10656:11007   */\n    tag_83:\n        /* \"#utility.yul\":10726:10732   */\n      0x00\n        /* \"#utility.yul\":10775:10777   */\n      0x20\n        /* \"#utility.yul\":10763:10772   */\n      dup3\n        /* \"#utility.yul\":10754:10761   */\n      dup5\n        /* \"#utility.yul\":10750:10773   */\n      sub\n        /* \"#utility.yul\":10746:10778   */\n      slt\n        /* \"#utility.yul\":10743:10862   */\n      iszero\n      tag_297\n      jumpi\n        /* \"#utility.yul\":10781:10860   */\n      tag_298\n      tag_150\n      jump\t// in\n    tag_298:\n        /* \"#utility.yul\":10743:10862   */\n    tag_297:\n        /* \"#utility.yul\":10901:10902   */\n      0x00\n        /* \"#utility.yul\":10926:10990   */\n      tag_299\n        /* \"#utility.yul\":10982:10989   */\n      dup5\n        /* \"#utility.yul\":10973:10979   */\n      dup3\n        /* \"#utility.yul\":10962:10971   */\n      dup6\n        /* \"#utility.yul\":10958:10980   */\n      add\n        /* \"#utility.yul\":10926:10990   */\n      tag_174\n      jump\t// in\n    tag_299:\n        /* \"#utility.yul\":10916:10990   */\n      swap2\n      pop\n        /* \"#utility.yul\":10872:11000   */\n      pop\n        /* \"#utility.yul\":10656:11007   */\n      swap3\n      swap2\n      pop\n      pop\n      jump\t// out\n        /* \"#utility.yul\":11013:11345   */\n    tag_85:\n        /* \"#utility.yul\":11134:11138   */\n      0x00\n        /* \"#utility.yul\":11172:11174   */\n      0x40\n        /* \"#utility.yul\":11161:11170   */\n      dup3\n        /* \"#utility.yul\":11157:11175   */\n      add\n        /* \"#utility.yul\":11149:11175   */\n      swap1\n      pop\n        /* \"#utility.yul\":11185:11256   */\n      tag_301\n        /* \"#utility.yul\":11253:11254   */\n      0x00\n        /* \"#utility.yul\":11242:11251   */\n      dup4\n        /* \"#utility.yul\":11238:11255   */\n      add\n        /* \"#utility.yul\":11229:11235   */\n      dup6\n        /* \"#utility.yul\":11185:11256   */\n      tag_164\n      jump\t// in\n    tag_301:\n        /* \"#utility.yul\":11266:11338   */\n      tag_302\n        /* \"#utility.yul\":11334:11336   */\n      0x20\n        /* \"#utility.yul\":11323:11332   */\n      dup4\n        /* \"#utility.yul\":11319:11337   */\n      add\n        /* \"#utility.yul\":11310:11316   */\n      dup5\n        /* \"#utility.yul\":11266:11338   */\n      tag_164\n      jump\t// in\n    tag_302:\n        /* \"#utility.yul\":11013:11345   */\n      swap4\n      swap3\n      pop\n      pop\n      pop\n      jump\t// out\n        /* \"#utility.yul\":11351:11573   */\n    tag_99:\n        /* \"#utility.yul\":11444:11448   */\n      0x00\n        /* \"#utility.yul\":11482:11484   */\n      0x20\n        /* \"#utility.yul\":11471:11480   */\n      dup3\n        /* \"#utility.yul\":11467:11485   */\n      add\n        /* \"#utility.yul\":11459:11485   */\n      swap1\n      pop\n        /* \"#utility.yul\":11495:11566   */\n      tag_304\n        /* \"#utility.yul\":11563:11564   */\n      0x00\n        /* \"#utility.yul\":11552:11561   */\n      dup4\n        /* \"#utility.yul\":11548:11565   */\n      add\n        /* \"#utility.yul\":11539:11545   */\n      dup5\n        /* \"#utility.yul\":11495:11566   */\n      tag_164\n      jump\t// in\n    tag_304:\n        /* \"#utility.yul\":11351:11573   */\n      swap3\n      swap2\n      pop\n      pop\n      jump\t// out\n        /* \"#utility.yul\":11579:11799   */\n    tag_175:\n        /* \"#utility.yul\":11719:11753   */\n      0x43616e6e6f74207769746864726177207468652074617267657420746f6b656e\n        /* \"#utility.yul\":11715:11716   */\n      0x00\n        /* \"#utility.yul\":11707:11713   */\n      dup3\n        /* \"#utility.yul\":11703:11717   */\n      add\n        /* \"#utility.yul\":11696:11754   */\n      mstore\n        /* \"#utility.yul\":11788:11791   */\n      0x2e00000000000000000000000000000000000000000000000000000000000000\n        /* \"#utility.yul\":11783:11785   */\n      0x20\n        /* \"#utility.yul\":11775:11781   */\n      dup3\n        /* \"#utility.yul\":11771:11786   */\n      add\n        /* \"#utility.yul\":11764:11792   */\n      mstore\n        /* \"#utility.yul\":11579:11799   */\n      pop\n      jump\t// out\n        /* \"#utility.yul\":11805:12171   */\n    tag_176:\n        /* \"#utility.yul\":11947:11950   */\n      0x00\n        /* \"#utility.yul\":11968:12035   */\n      tag_307\n        /* \"#utility.yul\":12032:12034   */\n      0x21\n        /* \"#utility.yul\":12027:12030   */\n      dup4\n        /* \"#utility.yul\":11968:12035   */\n      tag_161\n      jump\t// in\n    tag_307:\n        /* \"#utility.yul\":11961:12035   */\n      swap2\n      pop\n        /* \"#utility.yul\":12044:12137   */\n      tag_308\n        /* \"#utility.yul\":12133:12136   */\n      dup3\n        /* \"#utility.yul\":12044:12137   */\n      tag_175\n      jump\t// in\n    tag_308:\n        /* \"#utility.yul\":12162:12164   */\n      0x40\n        /* \"#utility.yul\":12157:12160   */\n      dup3\n        /* \"#utility.yul\":12153:12165   */\n      add\n        /* \"#utility.yul\":12146:12165   */\n      swap1\n      pop\n        /* \"#utility.yul\":11805:12171   */\n      swap2\n      swap1\n      pop\n      jump\t// out\n        /* \"#utility.yul\":12177:12596   */\n    tag_111:\n        /* \"#utility.yul\":12343:12347   */\n      0x00\n        /* \"#utility.yul\":12381:12383   */\n      0x20\n        /* \"#utility.yul\":12370:12379   */\n      dup3\n        /* \"#utility.yul\":12366:12384   */\n      add\n        /* \"#utility.yul\":12358:12384   */\n      swap1\n      pop\n        /* \"#utility.yul\":12430:12439   */\n      dup2\n        /* \"#utility.yul\":12424:12428   */\n      dup2\n        /* \"#utility.yul\":12420:12440   */\n      sub\n        /* \"#utility.yul\":12416:12417   */\n      0x00\n        /* \"#utility.yul\":12405:12414   */\n      dup4\n        /* \"#utility.yul\":12401:12418   */\n      add\n        /* \"#utility.yul\":12394:12441   */\n      mstore\n        /* \"#utility.yul\":12458:12589   */\n      tag_310\n        /* \"#utility.yul\":12584:12588   */\n      dup2\n        /* \"#utility.yul\":12458:12589   */\n      tag_176\n      jump\t// in\n    tag_310:\n        /* \"#utility.yul\":12450:12589   */\n      swap1\n      pop\n        /* \"#utility.yul\":12177:12596   */\n      swap2\n      swap1\n      pop\n      jump\t// out\n        /* \"#utility.yul\":12602:12837   */\n    tag_177:\n        /* \"#utility.yul\":12742:12776   */\n      0x43616e6e6f74207769746864726177205745544839206469726563746c792c20\n        /* \"#utility.yul\":12738:12739   */\n      0x00\n        /* \"#utility.yul\":12730:12736   */\n      dup3\n        /* \"#utility.yul\":12726:12740   */\n      add\n        /* \"#utility.yul\":12719:12777   */\n      mstore\n        /* \"#utility.yul\":12811:12829   */\n      0x7573652077697468647261775745544800000000000000000000000000000000\n        /* \"#utility.yul\":12806:12808   */\n      0x20\n        /* \"#utility.yul\":12798:12804   */\n      dup3\n        /* \"#utility.yul\":12794:12809   */\n      add\n        /* \"#utility.yul\":12787:12830   */\n      mstore\n        /* \"#utility.yul\":12602:12837   */\n      pop\n      jump\t// out\n        /* \"#utility.yul\":12843:13209   */\n    tag_178:\n        /* \"#utility.yul\":12985:12988   */\n      0x00\n        /* \"#utility.yul\":13006:13073   */\n      tag_313\n        /* \"#utility.yul\":13070:13072   */\n      0x30\n        /* \"#utility.yul\":13065:13068   */\n      dup4\n        /* \"#utility.yul\":13006:13073   */\n      tag_161\n      jump\t// in\n    tag_313:\n        /* \"#utility.yul\":12999:13073   */\n      swap2\n      pop\n        /* \"#utility.yul\":13082:13175   */\n      tag_314\n        /* \"#utility.yul\":13171:13174   */\n      dup3\n        /* \"#utility.yul\":13082:13175   */\n      tag_177\n      jump\t// in\n    tag_314:\n        /* \"#utility.yul\":13200:13202   */\n      0x40\n        /* \"#utility.yul\":13195:13198   */\n      dup3\n        /* \"#utility.yul\":13191:13203   */\n      add\n        /* \"#utility.yul\":13184:13203   */\n      swap1\n      pop\n        /* \"#utility.yul\":12843:13209   */\n      swap2\n      swap1\n      pop\n      jump\t// out\n        /* \"#utility.yul\":13215:13634   */\n    tag_114:\n        /* \"#utility.yul\":13381:13385   */\n      0x00\n        /* \"#utility.yul\":13419:13421   */\n      0x20\n        /* \"#utility.yul\":13408:13417   */\n      dup3\n        /* \"#utility.yul\":13404:13422   */\n      add\n        /* \"#utility.yul\":13396:13422   */\n      swap1\n      pop\n        /* \"#utility.yul\":13468:13477   */\n      dup2\n        /* \"#utility.yul\":13462:13466   */\n      dup2\n        /* \"#utility.yul\":13458:13478   */\n      sub\n        /* \"#utility.yul\":13454:13455   */\n      0x00\n        /* \"#utility.yul\":13443:13452   */\n      dup4\n        /* \"#utility.yul\":13439:13456   */\n      add\n        /* \"#utility.yul\":13432:13479   */\n      mstore\n        /* \"#utility.yul\":13496:13627   */\n      tag_316\n        /* \"#utility.yul\":13622:13626   */\n      dup2\n        /* \"#utility.yul\":13496:13627   */\n      tag_178\n      jump\t// in\n    tag_316:\n        /* \"#utility.yul\":13488:13627   */\n      swap1\n      pop\n        /* \"#utility.yul\":13215:13634   */\n      swap2\n      swap1\n      pop\n      jump\t// out\n\n    auxdata: 0xa264697066735822122069b368b22ecc3b59547182fca88e25396aa7fe96aae6a22590b46935173c8b7764736f6c634300081a0033\n}\n",
				"bytecode": {
					"linkReferences": {},
					"object": "60c060405234801561000f575f80fd5b5060405161156838038061156883398181016040528101906100319190610297565b335f73ffffffffffffffffffffffffffffffffffffffff168173ffffffffffffffffffffffffffffffffffffffff16036100a2575f6040517f1e4fbdf700000000000000000000000000000000000000000000000000000000815260040161009991906102f6565b60405180910390fd5b6100b18161014060201b60201c565b508173ffffffffffffffffffffffffffffffffffffffff1660808173ffffffffffffffffffffffffffffffffffffffff16815250508273ffffffffffffffffffffffffffffffffffffffff1660a08173ffffffffffffffffffffffffffffffffffffffff1681525050805f60146101000a81548162ffffff021916908362ffffff16021790555050505061030f565b5f805f9054906101000a900473ffffffffffffffffffffffffffffffffffffffff169050815f806101000a81548173ffffffffffffffffffffffffffffffffffffffff021916908373ffffffffffffffffffffffffffffffffffffffff1602179055508173ffffffffffffffffffffffffffffffffffffffff168173ffffffffffffffffffffffffffffffffffffffff167f8be0079c531659141344cd1fd0a4f28419497f9722a3daafe3b4186f6b6457e060405160405180910390a35050565b5f80fd5b5f73ffffffffffffffffffffffffffffffffffffffff82169050919050565b5f61022e82610205565b9050919050565b61023e81610224565b8114610248575f80fd5b50565b5f8151905061025981610235565b92915050565b5f62ffffff82169050919050565b6102768161025f565b8114610280575f80fd5b50565b5f815190506102918161026d565b92915050565b5f805f606084860312156102ae576102ad610201565b5b5f6102bb8682870161024b565b93505060206102cc8682870161024b565b92505060406102dd86828701610283565b9150509250925092565b6102f081610224565b82525050565b5f6020820190506103095f8301846102e7565b92915050565b60805160a05161121c61034c5f395f81816103b2015281816106ba01526108af01525f81816102f5015281816104610152610588015261121c5ff3fe608060405260043610610094575f3560e01c8063ed88c68e11610058578063ed88c68e14610164578063f2fde38b1461016e578063f3fef3a314610196578063fc0c546a146101be578063fc4dd333146101e8576100a4565b806354cf2aeb146100a8578063715018a6146100d25780638da5cb5b146100e8578063c31c9c0714610112578063e4c3a8f81461013c576100a4565b366100a4576100a234610210565b005b5f80fd5b3480156100b3575f80fd5b506100bc610538565b6040516100c99190610b7f565b60405180910390f35b3480156100dd575f80fd5b506100e661054c565b005b3480156100f3575f80fd5b506100fc61055f565b6040516101099190610bd7565b60405180910390f35b34801561011d575f80fd5b50610126610586565b6040516101339190610c4b565b60405180910390f35b348015610147575f80fd5b50610162600480360381019061015d9190610c92565b6105aa565b005b61016c6105d3565b005b348015610179575f80fd5b50610194600480360381019061018f9190610ce7565b61062c565b005b3480156101a1575f80fd5b506101bc60048036038101906101b79190610d45565b6106b0565b005b3480156101c9575f80fd5b506101d26108ad565b6040516101df9190610da3565b60405180910390f35b3480156101f3575f80fd5b5061020e60048036038101906102099190610dbc565b6108d1565b005b5f8111610252576040517f08c379a000000000000000000000000000000000000000000000000000000000815260040161024990610e41565b60405180910390fd5b73420000000000000000000000000000000000000673ffffffffffffffffffffffffffffffffffffffff1663d0e30db0826040518263ffffffff1660e01b81526004015f604051808303818588803b1580156102ac575f80fd5b505af11580156102be573d5f803e3d5ffd5b505050505073420000000000000000000000000000000000000673ffffffffffffffffffffffffffffffffffffffff1663095ea7b37f0000000000000000000000000000000000000000000000000000000000000000836040518363ffffffff1660e01b8152600401610332929190610e6e565b6020604051808303815f875af115801561034e573d5f803e3d5ffd5b505050506040513d601f19601f820116820180604052508101906103729190610eca565b505f60405180610100016040528073420000000000000000000000000000000000000673ffffffffffffffffffffffffffffffffffffffff1681526020017f000000000000000000000000000000000000000000000000000000000000000073ffffffffffffffffffffffffffffffffffffffff1681526020015f60149054906101000a900462ffffff1662ffffff1681526020013373ffffffffffffffffffffffffffffffffffffffff16815260200161012c426104319190610f22565b81526020018381526020015f81526020015f73ffffffffffffffffffffffffffffffffffffffff1681525090505f7f000000000000000000000000000000000000000000000000000000000000000073ffffffffffffffffffffffffffffffffffffffff1663414bf389836040518263ffffffff1660e01b81526004016104b89190611031565b6020604051808303815f875af11580156104d4573d5f803e3d5ffd5b505050506040513d601f19601f820116820180604052508101906104f8919061105f565b90507f4f73e5828387c436ef01a51b03853873e76d7a5551556837d452cbeb6f285cb5838260405161052b92919061108a565b60405180910390a1505050565b5f60149054906101000a900462ffffff1681565b610554610a13565b61055d5f610a9a565b565b5f805f9054906101000a900473ffffffffffffffffffffffffffffffffffffffff16905090565b7f000000000000000000000000000000000000000000000000000000000000000081565b6105b2610a13565b805f60146101000a81548162ffffff021916908362ffffff16021790555050565b6105dc34610210565b3373ffffffffffffffffffffffffffffffffffffffff167f264f630d9efa0d07053a31163641d9fcc0adafc9d9e76f1c37c2ce3a558d2c523460405161062291906110b1565b60405180910390a2565b610634610a13565b5f73ffffffffffffffffffffffffffffffffffffffff168173ffffffffffffffffffffffffffffffffffffffff16036106a4575f6040517f1e4fbdf700000000000000000000000000000000000000000000000000000000815260040161069b9190610bd7565b60405180910390fd5b6106ad81610a9a565b50565b6106b8610a13565b7f000000000000000000000000000000000000000000000000000000000000000073ffffffffffffffffffffffffffffffffffffffff168273ffffffffffffffffffffffffffffffffffffffff1603610746576040517f08c379a000000000000000000000000000000000000000000000000000000000815260040161073d9061113a565b60405180910390fd5b73420000000000000000000000000000000000000673ffffffffffffffffffffffffffffffffffffffff168273ffffffffffffffffffffffffffffffffffffffff16036107c8576040517f08c379a00000000000000000000000000000000000000000000000000000000081526004016107bf906111c8565b60405180910390fd5b8173ffffffffffffffffffffffffffffffffffffffff1663a9059cbb33836040518363ffffffff1660e01b8152600401610803929190610e6e565b6020604051808303815f875af115801561081f573d5f803e3d5ffd5b505050506040513d601f19601f820116820180604052508101906108439190610eca565b508173ffffffffffffffffffffffffffffffffffffffff163373ffffffffffffffffffffffffffffffffffffffff167f9b1bfa7fa9ee420a16e124f794c35ac9f90472acc99140eb2f6447c714cad8eb836040516108a191906110b1565b60405180910390a35050565b7f000000000000000000000000000000000000000000000000000000000000000081565b6108d9610a13565b73420000000000000000000000000000000000000673ffffffffffffffffffffffffffffffffffffffff16632e1a7d4d826040518263ffffffff1660e01b815260040161092691906110b1565b5f604051808303815f87803b15801561093d575f80fd5b505af115801561094f573d5f803e3d5ffd5b505050503373ffffffffffffffffffffffffffffffffffffffff166108fc8290811502906040515f60405180830381858888f19350505050158015610996573d5f803e3d5ffd5b5073420000000000000000000000000000000000000673ffffffffffffffffffffffffffffffffffffffff163373ffffffffffffffffffffffffffffffffffffffff167f9b1bfa7fa9ee420a16e124f794c35ac9f90472acc99140eb2f6447c714cad8eb83604051610a0891906110b1565b60405180910390a350565b610a1b610b5b565b73ffffffffffffffffffffffffffffffffffffffff16610a3961055f565b73ffffffffffffffffffffffffffffffffffffffff1614610a9857610a5c610b5b565b6040517f118cdaa7000000000000000000000000000000000000000000000000000000008152600401610a8f9190610bd7565b60405180910390fd5b565b5f805f9054906101000a900473ffffffffffffffffffffffffffffffffffffffff169050815f806101000a81548173ffffffffffffffffffffffffffffffffffffffff021916908373ffffffffffffffffffffffffffffffffffffffff1602179055508173ffffffffffffffffffffffffffffffffffffffff168173ffffffffffffffffffffffffffffffffffffffff167f8be0079c531659141344cd1fd0a4f28419497f9722a3daafe3b4186f6b6457e060405160405180910390a35050565b5f33905090565b5f62ffffff82169050919050565b610b7981610b62565b82525050565b5f602082019050610b925f830184610b70565b92915050565b5f73ffffffffffffffffffffffffffffffffffffffff82169050919050565b5f610bc182610b98565b9050919050565b610bd181610bb7565b82525050565b5f602082019050610bea5f830184610bc8565b92915050565b5f819050919050565b5f610c13610c0e610c0984610b98565b610bf0565b610b98565b9050919050565b5f610c2482610bf9565b9050919050565b5f610c3582610c1a565b9050919050565b610c4581610c2b565b82525050565b5f602082019050610c5e5f830184610c3c565b92915050565b5f80fd5b610c7181610b62565b8114610c7b575f80fd5b50565b5f81359050610c8c81610c68565b92915050565b5f60208284031215610ca757610ca6610c64565b5b5f610cb484828501610c7e565b91505092915050565b610cc681610bb7565b8114610cd0575f80fd5b50565b5f81359050610ce181610cbd565b92915050565b5f60208284031215610cfc57610cfb610c64565b5b5f610d0984828501610cd3565b91505092915050565b5f819050919050565b610d2481610d12565b8114610d2e575f80fd5b50565b5f81359050610d3f81610d1b565b92915050565b5f8060408385031215610d5b57610d5a610c64565b5b5f610d6885828601610cd3565b9250506020610d7985828601610d31565b9150509250929050565b5f610d8d82610c1a565b9050919050565b610d9d81610d83565b82525050565b5f602082019050610db65f830184610d94565b92915050565b5f60208284031215610dd157610dd0610c64565b5b5f610dde84828501610d31565b91505092915050565b5f82825260208201905092915050565b7f4d7573742073656e6420455448000000000000000000000000000000000000005f82015250565b5f610e2b600d83610de7565b9150610e3682610df7565b602082019050919050565b5f6020820190508181035f830152610e5881610e1f565b9050919050565b610e6881610d12565b82525050565b5f604082019050610e815f830185610bc8565b610e8e6020830184610e5f565b9392505050565b5f8115159050919050565b610ea981610e95565b8114610eb3575f80fd5b50565b5f81519050610ec481610ea0565b92915050565b5f60208284031215610edf57610ede610c64565b5b5f610eec84828501610eb6565b91505092915050565b7f4e487b71000000000000000000000000000000000000000000000000000000005f52601160045260245ffd5b5f610f2c82610d12565b9150610f3783610d12565b9250828201905080821115610f4f57610f4e610ef5565b5b92915050565b610f5e81610bb7565b82525050565b610f6d81610b62565b82525050565b610f7c81610d12565b82525050565b610f8b81610b98565b82525050565b61010082015f820151610fa65f850182610f55565b506020820151610fb96020850182610f55565b506040820151610fcc6040850182610f64565b506060820151610fdf6060850182610f55565b506080820151610ff26080850182610f73565b5060a082015161100560a0850182610f73565b5060c082015161101860c0850182610f73565b5060e082015161102b60e0850182610f82565b50505050565b5f610100820190506110455f830184610f91565b92915050565b5f8151905061105981610d1b565b92915050565b5f6020828403121561107457611073610c64565b5b5f6110818482850161104b565b91505092915050565b5f60408201905061109d5f830185610e5f565b6110aa6020830184610e5f565b9392505050565b5f6020820190506110c45f830184610e5f565b92915050565b7f43616e6e6f74207769746864726177207468652074617267657420746f6b656e5f8201527f2e00000000000000000000000000000000000000000000000000000000000000602082015250565b5f611124602183610de7565b915061112f826110ca565b604082019050919050565b5f6020820190508181035f83015261115181611118565b9050919050565b7f43616e6e6f74207769746864726177205745544839206469726563746c792c205f8201527f7573652077697468647261775745544800000000000000000000000000000000602082015250565b5f6111b2603083610de7565b91506111bd82611158565b604082019050919050565b5f6020820190508181035f8301526111df816111a6565b905091905056fea264697066735822122069b368b22ecc3b59547182fca88e25396aa7fe96aae6a22590b46935173c8b7764736f6c634300081a0033",
					"opcodes": "PUSH1 0xC0 PUSH1 0x40 MSTORE CALLVALUE DUP1 ISZERO PUSH2 0xF JUMPI PUSH0 DUP1 REVERT JUMPDEST POP PUSH1 0x40 MLOAD PUSH2 0x1568 CODESIZE SUB DUP1 PUSH2 0x1568 DUP4 CODECOPY DUP2 DUP2 ADD PUSH1 0x40 MSTORE DUP2 ADD SWAP1 PUSH2 0x31 SWAP2 SWAP1 PUSH2 0x297 JUMP JUMPDEST CALLER PUSH0 PUSH20 0xFFFFFFFFFFFFFFFFFFFFFFFFFFFFFFFFFFFFFFFF AND DUP2 PUSH20 0xFFFFFFFFFFFFFFFFFFFFFFFFFFFFFFFFFFFFFFFF AND SUB PUSH2 0xA2 JUMPI PUSH0 PUSH1 0x40 MLOAD PUSH32 0x1E4FBDF700000000000000000000000000000000000000000000000000000000 DUP2 MSTORE PUSH1 0x4 ADD PUSH2 0x99 SWAP2 SWAP1 PUSH2 0x2F6 JUMP JUMPDEST PUSH1 0x40 MLOAD DUP1 SWAP2 SUB SWAP1 REVERT JUMPDEST PUSH2 0xB1 DUP2 PUSH2 0x140 PUSH1 0x20 SHL PUSH1 0x20 SHR JUMP JUMPDEST POP DUP2 PUSH20 0xFFFFFFFFFFFFFFFFFFFFFFFFFFFFFFFFFFFFFFFF AND PUSH1 0x80 DUP2 PUSH20 0xFFFFFFFFFFFFFFFFFFFFFFFFFFFFFFFFFFFFFFFF AND DUP2 MSTORE POP POP DUP3 PUSH20 0xFFFFFFFFFFFFFFFFFFFFFFFFFFFFFFFFFFFFFFFF AND PUSH1 0xA0 DUP2 PUSH20 0xFFFFFFFFFFFFFFFFFFFFFFFFFFFFFFFFFFFFFFFF AND DUP2 MSTORE POP POP DUP1 PUSH0 PUSH1 0x14 PUSH2 0x100 EXP DUP2 SLOAD DUP2 PUSH3 0xFFFFFF MUL NOT AND SWAP1 DUP4 PUSH3 0xFFFFFF AND MUL OR SWAP1 SSTORE POP POP POP POP PUSH2 0x30F JUMP JUMPDEST PUSH0 DUP1 PUSH0 SWAP1 SLOAD SWAP1 PUSH2 0x100 EXP SWAP1 DIV PUSH20 0xFFFFFFFFFFFFFFFFFFFFFFFFFFFFFFFFFFFFFFFF AND SWAP1 POP DUP2 PUSH0 DUP1 PUSH2 0x100 EXP DUP2 SLOAD DUP2 PUSH20 0xFFFFFFFFFFFFFFFFFFFFFFFFFFFFFFFFFFFFFFFF MUL NOT AND SWAP1 DUP4 PUSH20 0xFFFFFFFFFFFFFFFFFFFFFFFFFFFFFFFFFFFFFFFF AND MUL OR SWAP1 SSTORE POP DUP2 PUSH20 0xFFFFFFFFFFFFFFFFFFFFFFFFFFFFFFFFFFFFFFFF AND DUP2 PUSH20 0xFFFFFFFFFFFFFFFFFFFFFFFFFFFFFFFFFFFFFFFF AND PUSH32 0x8BE0079C531659141344CD1FD0A4F28419497F9722A3DAAFE3B4186F6B6457E0 PUSH1 0x40 MLOAD PUSH1 0x40 MLOAD DUP1 SWAP2 SUB SWAP1 LOG3 POP POP JUMP JUMPDEST PUSH0 DUP1 REVERT JUMPDEST PUSH0 PUSH20 0xFFFFFFFFFFFFFFFFFFFFFFFFFFFFFFFFFFFFFFFF DUP3 AND SWAP1 POP SWAP2 SWAP1 POP JUMP JUMPDEST PUSH0 PUSH2 0x22E DUP3 PUSH2 0x205 JUMP JUMPDEST SWAP1 POP SWAP2 SWAP1 POP JUMP JUMPDEST PUSH2 0x23E DUP2 PUSH2 0x224 JUMP JUMPDEST DUP2 EQ PUSH2 0x248 JUMPI PUSH0 DUP1 REVERT JUMPDEST POP JUMP JUMPDEST PUSH0 DUP2 MLOAD SWAP1 POP PUSH2 0x259 DUP2 PUSH2 0x235 JUMP JUMPDEST SWAP3 SWAP2 POP POP JUMP JUMPDEST PUSH0 PUSH3 0xFFFFFF DUP3 AND SWAP1 POP SWAP2 SWAP1 POP JUMP JUMPDEST PUSH2 0x276 DUP2 PUSH2 0x25F JUMP JUMPDEST DUP2 EQ PUSH2 0x280 JUMPI PUSH0 DUP1 REVERT JUMPDEST POP JUMP JUMPDEST PUSH0 DUP2 MLOAD SWAP1 POP PUSH2 0x291 DUP2 PUSH2 0x26D JUMP JUMPDEST SWAP3 SWAP2 POP POP JUMP JUMPDEST PUSH0 DUP1 PUSH0 PUSH1 0x60 DUP5 DUP7 SUB SLT ISZERO PUSH2 0x2AE JUMPI PUSH2 0x2AD PUSH2 0x201 JUMP JUMPDEST JUMPDEST PUSH0 PUSH2 0x2BB DUP7 DUP3 DUP8 ADD PUSH2 0x24B JUMP JUMPDEST SWAP4 POP POP PUSH1 0x20 PUSH2 0x2CC DUP7 DUP3 DUP8 ADD PUSH2 0x24B JUMP JUMPDEST SWAP3 POP POP PUSH1 0x40 PUSH2 0x2DD DUP7 DUP3 DUP8 ADD PUSH2 0x283 JUMP JUMPDEST SWAP2 POP POP SWAP3 POP SWAP3 POP SWAP3 JUMP JUMPDEST PUSH2 0x2F0 DUP2 PUSH2 0x224 JUMP JUMPDEST DUP3 MSTORE POP POP JUMP JUMPDEST PUSH0 PUSH1 0x20 DUP3 ADD SWAP1 POP PUSH2 0x309 PUSH0 DUP4 ADD DUP5 PUSH2 0x2E7 JUMP JUMPDEST SWAP3 SWAP2 POP POP JUMP JUMPDEST PUSH1 0x80 MLOAD PUSH1 0xA0 MLOAD PUSH2 0x121C PUSH2 0x34C PUSH0 CODECOPY PUSH0 DUP2 DUP2 PUSH2 0x3B2 ADD MSTORE DUP2 DUP2 PUSH2 0x6BA ADD MSTORE PUSH2 0x8AF ADD MSTORE PUSH0 DUP2 DUP2 PUSH2 0x2F5 ADD MSTORE DUP2 DUP2 PUSH2 0x461 ADD MSTORE PUSH2 0x588 ADD MSTORE PUSH2 0x121C PUSH0 RETURN INVALID PUSH1 0x80 PUSH1 0x40 MSTORE PUSH1 0x4 CALLDATASIZE LT PUSH2 0x94 JUMPI PUSH0 CALLDATALOAD PUSH1 0xE0 SHR DUP1 PUSH4 0xED88C68E GT PUSH2 0x58 JUMPI DUP1 PUSH4 0xED88C68E EQ PUSH2 0x164 JUMPI DUP1 PUSH4 0xF2FDE38B EQ PUSH2 0x16E JUMPI DUP1 PUSH4 0xF3FEF3A3 EQ PUSH2 0x196 JUMPI DUP1 PUSH4 0xFC0C546A EQ PUSH2 0x1BE JUMPI DUP1 PUSH4 0xFC4DD333 EQ PUSH2 0x1E8 JUMPI PUSH2 0xA4 JUMP JUMPDEST DUP1 PUSH4 0x54CF2AEB EQ PUSH2 0xA8 JUMPI DUP1 PUSH4 0x715018A6 EQ PUSH2 0xD2 JUMPI DUP1 PUSH4 0x8DA5CB5B EQ PUSH2 0xE8 JUMPI DUP1 PUSH4 0xC31C9C07 EQ PUSH2 0x112 JUMPI DUP1 PUSH4 0xE4C3A8F8 EQ PUSH2 0x13C JUMPI PUSH2 0xA4 JUMP JUMPDEST CALLDATASIZE PUSH2 0xA4 JUMPI PUSH2 0xA2 CALLVALUE PUSH2 0x210 JUMP JUMPDEST STOP JUMPDEST PUSH0 DUP1 REVERT JUMPDEST CALLVALUE DUP1 ISZERO PUSH2 0xB3 JUMPI PUSH0 DUP1 REVERT JUMPDEST POP PUSH2 0xBC PUSH2 0x538 JUMP JUMPDEST PUSH1 0x40 MLOAD PUSH2 0xC9 SWAP2 SWAP1 PUSH2 0xB7F JUMP JUMPDEST PUSH1 0x40 MLOAD DUP1 SWAP2 SUB SWAP1 RETURN JUMPDEST CALLVALUE DUP1 ISZERO PUSH2 0xDD JUMPI PUSH0 DUP1 REVERT JUMPDEST POP PUSH2 0xE6 PUSH2 0x54C JUMP JUMPDEST STOP JUMPDEST CALLVALUE DUP1 ISZERO PUSH2 0xF3 JUMPI PUSH0 DUP1 REVERT JUMPDEST POP PUSH2 0xFC PUSH2 0x55F JUMP JUMPDEST PUSH1 0x40 MLOAD PUSH2 0x109 SWAP2 SWAP1 PUSH2 0xBD7 JUMP JUMPDEST PUSH1 0x40 MLOAD DUP1 SWAP2 SUB SWAP1 RETURN JUMPDEST CALLVALUE DUP1 ISZERO PUSH2 0x11D JUMPI PUSH0 DUP1 REVERT JUMPDEST POP PUSH2 0x126 PUSH2 0x586 JUMP JUMPDEST PUSH1 0x40 MLOAD PUSH2 0x133 SWAP2 SWAP1 PUSH2 0xC4B JUMP JUMPDEST PUSH1 0x40 MLOAD DUP1 SWAP2 SUB SWAP1 RETURN JUMPDEST CALLVALUE DUP1 ISZERO PUSH2 0x147 JUMPI PUSH0 DUP1 REVERT JUMPDEST POP PUSH2 0x162 PUSH1 0x4 DUP1 CALLDATASIZE SUB DUP2 ADD SWAP1 PUSH2 0x15D SWAP2 SWAP1 PUSH2 0xC92 JUMP JUMPDEST PUSH2 0x5AA JUMP JUMPDEST STOP JUMPDEST PUSH2 0x16C PUSH2 0x5D3 JUMP JUMPDEST STOP JUMPDEST CALLVALUE DUP1 ISZERO PUSH2 0x179 JUMPI PUSH0 DUP1 REVERT JUMPDEST POP PUSH2 0x194 PUSH1 0x4 DUP1 CALLDATASIZE SUB DUP2 ADD SWAP1 PUSH2 0x18F SWAP2 SWAP1 PUSH2 0xCE7 JUMP JUMPDEST PUSH2 0x62C JUMP JUMPDEST STOP JUMPDEST CALLVALUE DUP1 ISZERO PUSH2 0x1A1 JUMPI PUSH0 DUP1 REVERT JUMPDEST POP PUSH2 0x1BC PUSH1 0x4 DUP1 CALLDATASIZE SUB DUP2 ADD SWAP1 PUSH2 0x1B7 SWAP2 SWAP1 PUSH2 0xD45 JUMP JUMPDEST PUSH2 0x6B0 JUMP JUMPDEST STOP JUMPDEST CALLVALUE DUP1 ISZERO PUSH2 0x1C9 JUMPI PUSH0 DUP1 REVERT JUMPDEST POP PUSH2 0x1D2 PUSH2 0x8AD JUMP JUMPDEST PUSH1 0x40 MLOAD PUSH2 0x1DF SWAP2 SWAP1 PUSH2 0xDA3 JUMP JUMPDEST PUSH1 0x40 MLOAD DUP1 SWAP2 SUB SWAP1 RETURN JUMPDEST CALLVALUE DUP1 ISZERO PUSH2 0x1F3 JUMPI PUSH0 DUP1 REVERT JUMPDEST POP PUSH2 0x20E PUSH1 0x4 DUP1 CALLDATASIZE SUB DUP2 ADD SWAP1 PUSH2 0x209 SWAP2 SWAP1 PUSH2 0xDBC JUMP JUMPDEST PUSH2 0x8D1 JUMP JUMPDEST STOP JUMPDEST PUSH0 DUP2 GT PUSH2 0x252 JUMPI PUSH1 0x40 MLOAD PUSH32 0x8C379A000000000000000000000000000000000000000000000000000000000 DUP2 MSTORE PUSH1 0x4 ADD PUSH2 0x249 SWAP1 PUSH2 0xE41 JUMP JUMPDEST PUSH1 0x40 MLOAD DUP1 SWAP2 SUB SWAP1 REVERT JUMPDEST PUSH20 0x4200000000000000000000000000000000000006 PUSH20 0xFFFFFFFFFFFFFFFFFFFFFFFFFFFFFFFFFFFFFFFF AND PUSH4 0xD0E30DB0 DUP3 PUSH1 0x40 MLOAD DUP3 PUSH4 0xFFFFFFFF AND PUSH1 0xE0 SHL DUP2 MSTORE PUSH1 0x4 ADD PUSH0 PUSH1 0x40 MLOAD DUP1 DUP4 SUB DUP2 DUP6 DUP9 DUP1 EXTCODESIZE ISZERO DUP1 ISZERO PUSH2 0x2AC JUMPI PUSH0 DUP1 REVERT JUMPDEST POP GAS CALL ISZERO DUP1 ISZERO PUSH2 0x2BE JUMPI RETURNDATASIZE PUSH0 DUP1 RETURNDATACOPY RETURNDATASIZE PUSH0 REVERT JUMPDEST POP POP POP POP POP PUSH20 0x4200000000000000000000000000000000000006 PUSH20 0xFFFFFFFFFFFFFFFFFFFFFFFFFFFFFFFFFFFFFFFF AND PUSH4 0x95EA7B3 PUSH32 0x0 DUP4 PUSH1 0x40 MLOAD DUP4 PUSH4 0xFFFFFFFF AND PUSH1 0xE0 SHL DUP2 MSTORE PUSH1 0x4 ADD PUSH2 0x332 SWAP3 SWAP2 SWAP1 PUSH2 0xE6E JUMP JUMPDEST PUSH1 0x20 PUSH1 0x40 MLOAD DUP1 DUP4 SUB DUP2 PUSH0 DUP8 GAS CALL ISZERO DUP1 ISZERO PUSH2 0x34E JUMPI RETURNDATASIZE PUSH0 DUP1 RETURNDATACOPY RETURNDATASIZE PUSH0 REVERT JUMPDEST POP POP POP POP PUSH1 0x40 MLOAD RETURNDATASIZE PUSH1 0x1F NOT PUSH1 0x1F DUP3 ADD AND DUP3 ADD DUP1 PUSH1 0x40 MSTORE POP DUP2 ADD SWAP1 PUSH2 0x372 SWAP2 SWAP1 PUSH2 0xECA JUMP JUMPDEST POP PUSH0 PUSH1 0x40 MLOAD DUP1 PUSH2 0x100 ADD PUSH1 0x40 MSTORE DUP1 PUSH20 0x4200000000000000000000000000000000000006 PUSH20 0xFFFFFFFFFFFFFFFFFFFFFFFFFFFFFFFFFFFFFFFF AND DUP2 MSTORE PUSH1 0x20 ADD PUSH32 0x0 PUSH20 0xFFFFFFFFFFFFFFFFFFFFFFFFFFFFFFFFFFFFFFFF AND DUP2 MSTORE PUSH1 0x20 ADD PUSH0 PUSH1 0x14 SWAP1 SLOAD SWAP1 PUSH2 0x100 EXP SWAP1 DIV PUSH3 0xFFFFFF AND PUSH3 0xFFFFFF AND DUP2 MSTORE PUSH1 0x20 ADD CALLER PUSH20 0xFFFFFFFFFFFFFFFFFFFFFFFFFFFFFFFFFFFFFFFF AND DUP2 MSTORE PUSH1 0x20 ADD PUSH2 0x12C TIMESTAMP PUSH2 0x431 SWAP2 SWAP1 PUSH2 0xF22 JUMP JUMPDEST DUP2 MSTORE PUSH1 0x20 ADD DUP4 DUP2 MSTORE PUSH1 0x20 ADD PUSH0 DUP2 MSTORE PUSH1 0x20 ADD PUSH0 PUSH20 0xFFFFFFFFFFFFFFFFFFFFFFFFFFFFFFFFFFFFFFFF AND DUP2 MSTORE POP SWAP1 POP PUSH0 PUSH32 0x0 PUSH20 0xFFFFFFFFFFFFFFFFFFFFFFFFFFFFFFFFFFFFFFFF AND PUSH4 0x414BF389 DUP4 PUSH1 0x40 MLOAD DUP3 PUSH4 0xFFFFFFFF AND PUSH1 0xE0 SHL DUP2 MSTORE PUSH1 0x4 ADD PUSH2 0x4B8 SWAP2 SWAP1 PUSH2 0x1031 JUMP JUMPDEST PUSH1 0x20 PUSH1 0x40 MLOAD DUP1 DUP4 SUB DUP2 PUSH0 DUP8 GAS CALL ISZERO DUP1 ISZERO PUSH2 0x4D4 JUMPI RETURNDATASIZE PUSH0 DUP1 RETURNDATACOPY RETURNDATASIZE PUSH0 REVERT JUMPDEST POP POP POP POP PUSH1 0x40 MLOAD RETURNDATASIZE PUSH1 0x1F NOT PUSH1 0x1F DUP3 ADD AND DUP3 ADD DUP1 PUSH1 0x40 MSTORE POP DUP2 ADD SWAP1 PUSH2 0x4F8 SWAP2 SWAP1 PUSH2 0x105F JUMP JUMPDEST SWAP1 POP PUSH32 0x4F73E5828387C436EF01A51B03853873E76D7A5551556837D452CBEB6F285CB5 DUP4 DUP3 PUSH1 0x40 MLOAD PUSH2 0x52B SWAP3 SWAP2 SWAP1 PUSH2 0x108A JUMP JUMPDEST PUSH1 0x40 MLOAD DUP1 SWAP2 SUB SWAP1 LOG1 POP POP POP JUMP JUMPDEST PUSH0 PUSH1 0x14 SWAP1 SLOAD SWAP1 PUSH2 0x100 EXP SWAP1 DIV PUSH3 0xFFFFFF AND DUP2 JUMP JUMPDEST PUSH2 0x554 PUSH2 0xA13 JUMP JUMPDEST PUSH2 0x55D PUSH0 PUSH2 0xA9A JUMP JUMPDEST JUMP JUMPDEST PUSH0 DUP1 PUSH0 SWAP1 SLOAD SWAP1 PUSH2 0x100 EXP SWAP1 DIV PUSH20 0xFFFFFFFFFFFFFFFFFFFFFFFFFFFFFFFFFFFFFFFF AND SWAP1 POP SWAP1 JUMP JUMPDEST PUSH32 0x0 DUP2 JUMP JUMPDEST PUSH2 0x5B2 PUSH2 0xA13 JUMP JUMPDEST DUP1 PUSH0 PUSH1 0x14 PUSH2 0x100 EXP DUP2 SLOAD DUP2 PUSH3 0xFFFFFF MUL NOT AND SWAP1 DUP4 PUSH3 0xFFFFFF AND MUL OR SWAP1 SSTORE POP POP JUMP JUMPDEST PUSH2 0x5DC CALLVALUE PUSH2 0x210 JUMP JUMPDEST CALLER PUSH20 0xFFFFFFFFFFFFFFFFFFFFFFFFFFFFFFFFFFFFFFFF AND PUSH32 0x264F630D9EFA0D07053A31163641D9FCC0ADAFC9D9E76F1C37C2CE3A558D2C52 CALLVALUE PUSH1 0x40 MLOAD PUSH2 0x622 SWAP2 SWAP1 PUSH2 0x10B1 JUMP JUMPDEST PUSH1 0x40 MLOAD DUP1 SWAP2 SUB SWAP1 LOG2 JUMP JUMPDEST PUSH2 0x634 PUSH2 0xA13 JUMP JUMPDEST PUSH0 PUSH20 0xFFFFFFFFFFFFFFFFFFFFFFFFFFFFFFFFFFFFFFFF AND DUP2 PUSH20 0xFFFFFFFFFFFFFFFFFFFFFFFFFFFFFFFFFFFFFFFF AND SUB PUSH2 0x6A4 JUMPI PUSH0 PUSH1 0x40 MLOAD PUSH32 0x1E4FBDF700000000000000000000000000000000000000000000000000000000 DUP2 MSTORE PUSH1 0x4 ADD PUSH2 0x69B SWAP2 SWAP1 PUSH2 0xBD7 JUMP JUMPDEST PUSH1 0x40 MLOAD DUP1 SWAP2 SUB SWAP1 REVERT JUMPDEST PUSH2 0x6AD DUP2 PUSH2 0xA9A JUMP JUMPDEST POP JUMP JUMPDEST PUSH2 0x6B8 PUSH2 0xA13 JUMP JUMPDEST PUSH32 0x0 PUSH20 0xFFFFFFFFFFFFFFFFFFFFFFFFFFFFFFFFFFFFFFFF AND DUP3 PUSH20 0xFFFFFFFFFFFFFFFFFFFFFFFFFFFFFFFFFFFFFFFF AND SUB PUSH2 0x746 JUMPI PUSH1 0x40 MLOAD PUSH32 0x8C379A000000000000000000000000000000000000000000000000000000000 DUP2 MSTORE PUSH1 0x4 ADD PUSH2 0x73D SWAP1 PUSH2 0x113A JUMP JUMPDEST PUSH1 0x40 MLOAD DUP1 SWAP2 SUB SWAP1 REVERT JUMPDEST PUSH20 0x4200000000000000000000000000000000000006 PUSH20 0xFFFFFFFFFFFFFFFFFFFFFFFFFFFFFFFFFFFFFFFF AND DUP3 PUSH20 0xFFFFFFFFFFFFFFFFFFFFFFFFFFFFFFFFFFFFFFFF AND SUB PUSH2 0x7C8 JUMPI PUSH1 0x40 MLOAD PUSH32 0x8C379A000000000000000000000000000000000000000000000000000000000 DUP2 MSTORE PUSH1 0x4 ADD PUSH2 0x7BF SWAP1 PUSH2 0x11C8 JUMP JUMPDEST PUSH1 0x40 MLOAD DUP1 SWAP2 SUB SWAP1 REVERT JUMPDEST DUP2 PUSH20 0xFFFFFFFFFFFFFFFFFFFFFFFFFFFFFFFFFFFFFFFF AND PUSH4 0xA9059CBB CALLER DUP4 PUSH1 0x40 MLOAD DUP4 PUSH4 0xFFFFFFFF AND PUSH1 0xE0 SHL DUP2 MSTORE PUSH1 0x4 ADD PUSH2 0x803 SWAP3 SWAP2 SWAP1 PUSH2 0xE6E JUMP JUMPDEST PUSH1 0x20 PUSH1 0x40 MLOAD DUP1 DUP4 SUB DUP2 PUSH0 DUP8 GAS CALL ISZERO DUP1 ISZERO PUSH2 0x81F JUMPI RETURNDATASIZE PUSH0 DUP1 RETURNDATACOPY RETURNDATASIZE PUSH0 REVERT JUMPDEST POP POP POP POP PUSH1 0x40 MLOAD RETURNDATASIZE PUSH1 0x1F NOT PUSH1 0x1F DUP3 ADD AND DUP3 ADD DUP1 PUSH1 0x40 MSTORE POP DUP2 ADD SWAP1 PUSH2 0x843 SWAP2 SWAP1 PUSH2 0xECA JUMP JUMPDEST POP DUP2 PUSH20 0xFFFFFFFFFFFFFFFFFFFFFFFFFFFFFFFFFFFFFFFF AND CALLER PUSH20 0xFFFFFFFFFFFFFFFFFFFFFFFFFFFFFFFFFFFFFFFF AND PUSH32 0x9B1BFA7FA9EE420A16E124F794C35AC9F90472ACC99140EB2F6447C714CAD8EB DUP4 PUSH1 0x40 MLOAD PUSH2 0x8A1 SWAP2 SWAP1 PUSH2 0x10B1 JUMP JUMPDEST PUSH1 0x40 MLOAD DUP1 SWAP2 SUB SWAP1 LOG3 POP POP JUMP JUMPDEST PUSH32 0x0 DUP2 JUMP JUMPDEST PUSH2 0x8D9 PUSH2 0xA13 JUMP JUMPDEST PUSH20 0x4200000000000000000000000000000000000006 PUSH20 0xFFFFFFFFFFFFFFFFFFFFFFFFFFFFFFFFFFFFFFFF AND PUSH4 0x2E1A7D4D DUP3 PUSH1 0x40 MLOAD DUP3 PUSH4 0xFFFFFFFF AND PUSH1 0xE0 SHL DUP2 MSTORE PUSH1 0x4 ADD PUSH2 0x926 SWAP2 SWAP1 PUSH2 0x10B1 JUMP JUMPDEST PUSH0 PUSH1 0x40 MLOAD DUP1 DUP4 SUB DUP2 PUSH0 DUP8 DUP1 EXTCODESIZE ISZERO DUP1 ISZERO PUSH2 0x93D JUMPI PUSH0 DUP1 REVERT JUMPDEST POP GAS CALL ISZERO DUP1 ISZERO PUSH2 0x94F JUMPI RETURNDATASIZE PUSH0 DUP1 RETURNDATACOPY RETURNDATASIZE PUSH0 REVERT JUMPDEST POP POP POP POP CALLER PUSH20 0xFFFFFFFFFFFFFFFFFFFFFFFFFFFFFFFFFFFFFFFF AND PUSH2 0x8FC DUP3 SWAP1 DUP2 ISZERO MUL SWAP1 PUSH1 0x40 MLOAD PUSH0 PUSH1 0x40 MLOAD DUP1 DUP4 SUB DUP2 DUP6 DUP9 DUP9 CALL SWAP4 POP POP POP POP ISZERO DUP1 ISZERO PUSH2 0x996 JUMPI RETURNDATASIZE PUSH0 DUP1 RETURNDATACOPY RETURNDATASIZE PUSH0 REVERT JUMPDEST POP PUSH20 0x4200000000000000000000000000000000000006 PUSH20 0xFFFFFFFFFFFFFFFFFFFFFFFFFFFFFFFFFFFFFFFF AND CALLER PUSH20 0xFFFFFFFFFFFFFFFFFFFFFFFFFFFFFFFFFFFFFFFF AND PUSH32 0x9B1BFA7FA9EE420A16E124F794C35AC9F90472ACC99140EB2F6447C714CAD8EB DUP4 PUSH1 0x40 MLOAD PUSH2 0xA08 SWAP2 SWAP1 PUSH2 0x10B1 JUMP JUMPDEST PUSH1 0x40 MLOAD DUP1 SWAP2 SUB SWAP1 LOG3 POP JUMP JUMPDEST PUSH2 0xA1B PUSH2 0xB5B JUMP JUMPDEST PUSH20 0xFFFFFFFFFFFFFFFFFFFFFFFFFFFFFFFFFFFFFFFF AND PUSH2 0xA39 PUSH2 0x55F JUMP JUMPDEST PUSH20 0xFFFFFFFFFFFFFFFFFFFFFFFFFFFFFFFFFFFFFFFF AND EQ PUSH2 0xA98 JUMPI PUSH2 0xA5C PUSH2 0xB5B JUMP JUMPDEST PUSH1 0x40 MLOAD PUSH32 0x118CDAA700000000000000000000000000000000000000000000000000000000 DUP2 MSTORE PUSH1 0x4 ADD PUSH2 0xA8F SWAP2 SWAP1 PUSH2 0xBD7 JUMP JUMPDEST PUSH1 0x40 MLOAD DUP1 SWAP2 SUB SWAP1 REVERT JUMPDEST JUMP JUMPDEST PUSH0 DUP1 PUSH0 SWAP1 SLOAD SWAP1 PUSH2 0x100 EXP SWAP1 DIV PUSH20 0xFFFFFFFFFFFFFFFFFFFFFFFFFFFFFFFFFFFFFFFF AND SWAP1 POP DUP2 PUSH0 DUP1 PUSH2 0x100 EXP DUP2 SLOAD DUP2 PUSH20 0xFFFFFFFFFFFFFFFFFFFFFFFFFFFFFFFFFFFFFFFF MUL NOT AND SWAP1 DUP4 PUSH20 0xFFFFFFFFFFFFFFFFFFFFFFFFFFFFFFFFFFFFFFFF AND MUL OR SWAP1 SSTORE POP DUP2 PUSH20 0xFFFFFFFFFFFFFFFFFFFFFFFFFFFFFFFFFFFFFFFF AND DUP2 PUSH20 0xFFFFFFFFFFFFFFFFFFFFFFFFFFFFFFFFFFFFFFFF AND PUSH32 0x8BE0079C531659141344CD1FD0A4F28419497F9722A3DAAFE3B4186F6B6457E0 PUSH1 0x40 MLOAD PUSH1 0x40 MLOAD DUP1 SWAP2 SUB SWAP1 LOG3 POP POP JUMP JUMPDEST PUSH0 CALLER SWAP1 POP SWAP1 JUMP JUMPDEST PUSH0 PUSH3 0xFFFFFF DUP3 AND SWAP1 POP SWAP2 SWAP1 POP JUMP JUMPDEST PUSH2 0xB79 DUP2 PUSH2 0xB62 JUMP JUMPDEST DUP3 MSTORE POP POP JUMP JUMPDEST PUSH0 PUSH1 0x20 DUP3 ADD SWAP1 POP PUSH2 0xB92 PUSH0 DUP4 ADD DUP5 PUSH2 0xB70 JUMP JUMPDEST SWAP3 SWAP2 POP POP JUMP JUMPDEST PUSH0 PUSH20 0xFFFFFFFFFFFFFFFFFFFFFFFFFFFFFFFFFFFFFFFF DUP3 AND SWAP1 POP SWAP2 SWAP1 POP JUMP JUMPDEST PUSH0 PUSH2 0xBC1 DUP3 PUSH2 0xB98 JUMP JUMPDEST SWAP1 POP SWAP2 SWAP1 POP JUMP JUMPDEST PUSH2 0xBD1 DUP2 PUSH2 0xBB7 JUMP JUMPDEST DUP3 MSTORE POP POP JUMP JUMPDEST PUSH0 PUSH1 0x20 DUP3 ADD SWAP1 POP PUSH2 0xBEA PUSH0 DUP4 ADD DUP5 PUSH2 0xBC8 JUMP JUMPDEST SWAP3 SWAP2 POP POP JUMP JUMPDEST PUSH0 DUP2 SWAP1 POP SWAP2 SWAP1 POP JUMP JUMPDEST PUSH0 PUSH2 0xC13 PUSH2 0xC0E PUSH2 0xC09 DUP5 PUSH2 0xB98 JUMP JUMPDEST PUSH2 0xBF0 JUMP JUMPDEST PUSH2 0xB98 JUMP JUMPDEST SWAP1 POP SWAP2 SWAP1 POP JUMP JUMPDEST PUSH0 PUSH2 0xC24 DUP3 PUSH2 0xBF9 JUMP JUMPDEST SWAP1 POP SWAP2 SWAP1 POP JUMP JUMPDEST PUSH0 PUSH2 0xC35 DUP3 PUSH2 0xC1A JUMP JUMPDEST SWAP1 POP SWAP2 SWAP1 POP JUMP JUMPDEST PUSH2 0xC45 DUP2 PUSH2 0xC2B JUMP JUMPDEST DUP3 MSTORE POP POP JUMP JUMPDEST PUSH0 PUSH1 0x20 DUP3 ADD SWAP1 POP PUSH2 0xC5E PUSH0 DUP4 ADD DUP5 PUSH2 0xC3C JUMP JUMPDEST SWAP3 SWAP2 POP POP JUMP JUMPDEST PUSH0 DUP1 REVERT JUMPDEST PUSH2 0xC71 DUP2 PUSH2 0xB62 JUMP JUMPDEST DUP2 EQ PUSH2 0xC7B JUMPI PUSH0 DUP1 REVERT JUMPDEST POP JUMP JUMPDEST PUSH0 DUP2 CALLDATALOAD SWAP1 POP PUSH2 0xC8C DUP2 PUSH2 0xC68 JUMP JUMPDEST SWAP3 SWAP2 POP POP JUMP JUMPDEST PUSH0 PUSH1 0x20 DUP3 DUP5 SUB SLT ISZERO PUSH2 0xCA7 JUMPI PUSH2 0xCA6 PUSH2 0xC64 JUMP JUMPDEST JUMPDEST PUSH0 PUSH2 0xCB4 DUP5 DUP3 DUP6 ADD PUSH2 0xC7E JUMP JUMPDEST SWAP2 POP POP SWAP3 SWAP2 POP POP JUMP JUMPDEST PUSH2 0xCC6 DUP2 PUSH2 0xBB7 JUMP JUMPDEST DUP2 EQ PUSH2 0xCD0 JUMPI PUSH0 DUP1 REVERT JUMPDEST POP JUMP JUMPDEST PUSH0 DUP2 CALLDATALOAD SWAP1 POP PUSH2 0xCE1 DUP2 PUSH2 0xCBD JUMP JUMPDEST SWAP3 SWAP2 POP POP JUMP JUMPDEST PUSH0 PUSH1 0x20 DUP3 DUP5 SUB SLT ISZERO PUSH2 0xCFC JUMPI PUSH2 0xCFB PUSH2 0xC64 JUMP JUMPDEST JUMPDEST PUSH0 PUSH2 0xD09 DUP5 DUP3 DUP6 ADD PUSH2 0xCD3 JUMP JUMPDEST SWAP2 POP POP SWAP3 SWAP2 POP POP JUMP JUMPDEST PUSH0 DUP2 SWAP1 POP SWAP2 SWAP1 POP JUMP JUMPDEST PUSH2 0xD24 DUP2 PUSH2 0xD12 JUMP JUMPDEST DUP2 EQ PUSH2 0xD2E JUMPI PUSH0 DUP1 REVERT JUMPDEST POP JUMP JUMPDEST PUSH0 DUP2 CALLDATALOAD SWAP1 POP PUSH2 0xD3F DUP2 PUSH2 0xD1B JUMP JUMPDEST SWAP3 SWAP2 POP POP JUMP JUMPDEST PUSH0 DUP1 PUSH1 0x40 DUP4 DUP6 SUB SLT ISZERO PUSH2 0xD5B JUMPI PUSH2 0xD5A PUSH2 0xC64 JUMP JUMPDEST JUMPDEST PUSH0 PUSH2 0xD68 DUP6 DUP3 DUP7 ADD PUSH2 0xCD3 JUMP JUMPDEST SWAP3 POP POP PUSH1 0x20 PUSH2 0xD79 DUP6 DUP3 DUP7 ADD PUSH2 0xD31 JUMP JUMPDEST SWAP2 POP POP SWAP3 POP SWAP3 SWAP1 POP JUMP JUMPDEST PUSH0 PUSH2 0xD8D DUP3 PUSH2 0xC1A JUMP JUMPDEST SWAP1 POP SWAP2 SWAP1 POP JUMP JUMPDEST PUSH2 0xD9D DUP2 PUSH2 0xD83 JUMP JUMPDEST DUP3 MSTORE POP POP JUMP JUMPDEST PUSH0 PUSH1 0x20 DUP3 ADD SWAP1 POP PUSH2 0xDB6 PUSH0 DUP4 ADD DUP5 PUSH2 0xD94 JUMP JUMPDEST SWAP3 SWAP2 POP POP JUMP JUMPDEST PUSH0 PUSH1 0x20 DUP3 DUP5 SUB SLT ISZERO PUSH2 0xDD1 JUMPI PUSH2 0xDD0 PUSH2 0xC64 JUMP JUMPDEST JUMPDEST PUSH0 PUSH2 0xDDE DUP5 DUP3 DUP6 ADD PUSH2 0xD31 JUMP JUMPDEST SWAP2 POP POP SWAP3 SWAP2 POP POP JUMP JUMPDEST PUSH0 DUP3 DUP3 MSTORE PUSH1 0x20 DUP3 ADD SWAP1 POP SWAP3 SWAP2 POP POP JUMP JUMPDEST PUSH32 0x4D7573742073656E642045544800000000000000000000000000000000000000 PUSH0 DUP3 ADD MSTORE POP JUMP JUMPDEST PUSH0 PUSH2 0xE2B PUSH1 0xD DUP4 PUSH2 0xDE7 JUMP JUMPDEST SWAP2 POP PUSH2 0xE36 DUP3 PUSH2 0xDF7 JUMP JUMPDEST PUSH1 0x20 DUP3 ADD SWAP1 POP SWAP2 SWAP1 POP JUMP JUMPDEST PUSH0 PUSH1 0x20 DUP3 ADD SWAP1 POP DUP2 DUP2 SUB PUSH0 DUP4 ADD MSTORE PUSH2 0xE58 DUP2 PUSH2 0xE1F JUMP JUMPDEST SWAP1 POP SWAP2 SWAP1 POP JUMP JUMPDEST PUSH2 0xE68 DUP2 PUSH2 0xD12 JUMP JUMPDEST DUP3 MSTORE POP POP JUMP JUMPDEST PUSH0 PUSH1 0x40 DUP3 ADD SWAP1 POP PUSH2 0xE81 PUSH0 DUP4 ADD DUP6 PUSH2 0xBC8 JUMP JUMPDEST PUSH2 0xE8E PUSH1 0x20 DUP4 ADD DUP5 PUSH2 0xE5F JUMP JUMPDEST SWAP4 SWAP3 POP POP POP JUMP JUMPDEST PUSH0 DUP2 ISZERO ISZERO SWAP1 POP SWAP2 SWAP1 POP JUMP JUMPDEST PUSH2 0xEA9 DUP2 PUSH2 0xE95 JUMP JUMPDEST DUP2 EQ PUSH2 0xEB3 JUMPI PUSH0 DUP1 REVERT JUMPDEST POP JUMP JUMPDEST PUSH0 DUP2 MLOAD SWAP1 POP PUSH2 0xEC4 DUP2 PUSH2 0xEA0 JUMP JUMPDEST SWAP3 SWAP2 POP POP JUMP JUMPDEST PUSH0 PUSH1 0x20 DUP3 DUP5 SUB SLT ISZERO PUSH2 0xEDF JUMPI PUSH2 0xEDE PUSH2 0xC64 JUMP JUMPDEST JUMPDEST PUSH0 PUSH2 0xEEC DUP5 DUP3 DUP6 ADD PUSH2 0xEB6 JUMP JUMPDEST SWAP2 POP POP SWAP3 SWAP2 POP POP JUMP JUMPDEST PUSH32 0x4E487B7100000000000000000000000000000000000000000000000000000000 PUSH0 MSTORE PUSH1 0x11 PUSH1 0x4 MSTORE PUSH1 0x24 PUSH0 REVERT JUMPDEST PUSH0 PUSH2 0xF2C DUP3 PUSH2 0xD12 JUMP JUMPDEST SWAP2 POP PUSH2 0xF37 DUP4 PUSH2 0xD12 JUMP JUMPDEST SWAP3 POP DUP3 DUP3 ADD SWAP1 POP DUP1 DUP3 GT ISZERO PUSH2 0xF4F JUMPI PUSH2 0xF4E PUSH2 0xEF5 JUMP JUMPDEST JUMPDEST SWAP3 SWAP2 POP POP JUMP JUMPDEST PUSH2 0xF5E DUP2 PUSH2 0xBB7 JUMP JUMPDEST DUP3 MSTORE POP POP JUMP JUMPDEST PUSH2 0xF6D DUP2 PUSH2 0xB62 JUMP JUMPDEST DUP3 MSTORE POP POP JUMP JUMPDEST PUSH2 0xF7C DUP2 PUSH2 0xD12 JUMP JUMPDEST DUP3 MSTORE POP POP JUMP JUMPDEST PUSH2 0xF8B DUP2 PUSH2 0xB98 JUMP JUMPDEST DUP3 MSTORE POP POP JUMP JUMPDEST PUSH2 0x100 DUP3 ADD PUSH0 DUP3 ADD MLOAD PUSH2 0xFA6 PUSH0 DUP6 ADD DUP3 PUSH2 0xF55 JUMP JUMPDEST POP PUSH1 0x20 DUP3 ADD MLOAD PUSH2 0xFB9 PUSH1 0x20 DUP6 ADD DUP3 PUSH2 0xF55 JUMP JUMPDEST POP PUSH1 0x40 DUP3 ADD MLOAD PUSH2 0xFCC PUSH1 0x40 DUP6 ADD DUP3 PUSH2 0xF64 JUMP JUMPDEST POP PUSH1 0x60 DUP3 ADD MLOAD PUSH2 0xFDF PUSH1 0x60 DUP6 ADD DUP3 PUSH2 0xF55 JUMP JUMPDEST POP PUSH1 0x80 DUP3 ADD MLOAD PUSH2 0xFF2 PUSH1 0x80 DUP6 ADD DUP3 PUSH2 0xF73 JUMP JUMPDEST POP PUSH1 0xA0 DUP3 ADD MLOAD PUSH2 0x1005 PUSH1 0xA0 DUP6 ADD DUP3 PUSH2 0xF73 JUMP JUMPDEST POP PUSH1 0xC0 DUP3 ADD MLOAD PUSH2 0x1018 PUSH1 0xC0 DUP6 ADD DUP3 PUSH2 0xF73 JUMP JUMPDEST POP PUSH1 0xE0 DUP3 ADD MLOAD PUSH2 0x102B PUSH1 0xE0 DUP6 ADD DUP3 PUSH2 0xF82 JUMP JUMPDEST POP POP POP POP JUMP JUMPDEST PUSH0 PUSH2 0x100 DUP3 ADD SWAP1 POP PUSH2 0x1045 PUSH0 DUP4 ADD DUP5 PUSH2 0xF91 JUMP JUMPDEST SWAP3 SWAP2 POP POP JUMP JUMPDEST PUSH0 DUP2 MLOAD SWAP1 POP PUSH2 0x1059 DUP2 PUSH2 0xD1B JUMP JUMPDEST SWAP3 SWAP2 POP POP JUMP JUMPDEST PUSH0 PUSH1 0x20 DUP3 DUP5 SUB SLT ISZERO PUSH2 0x1074 JUMPI PUSH2 0x1073 PUSH2 0xC64 JUMP JUMPDEST JUMPDEST PUSH0 PUSH2 0x1081 DUP5 DUP3 DUP6 ADD PUSH2 0x104B JUMP JUMPDEST SWAP2 POP POP SWAP3 SWAP2 POP POP JUMP JUMPDEST PUSH0 PUSH1 0x40 DUP3 ADD SWAP1 POP PUSH2 0x109D PUSH0 DUP4 ADD DUP6 PUSH2 0xE5F JUMP JUMPDEST PUSH2 0x10AA PUSH1 0x20 DUP4 ADD DUP5 PUSH2 0xE5F JUMP JUMPDEST SWAP4 SWAP3 POP POP POP JUMP JUMPDEST PUSH0 PUSH1 0x20 DUP3 ADD SWAP1 POP PUSH2 0x10C4 PUSH0 DUP4 ADD DUP5 PUSH2 0xE5F JUMP JUMPDEST SWAP3 SWAP2 POP POP JUMP JUMPDEST PUSH32 0x43616E6E6F74207769746864726177207468652074617267657420746F6B656E PUSH0 DUP3 ADD MSTORE PUSH32 0x2E00000000000000000000000000000000000000000000000000000000000000 PUSH1 0x20 DUP3 ADD MSTORE POP JUMP JUMPDEST PUSH0 PUSH2 0x1124 PUSH1 0x21 DUP4 PUSH2 0xDE7 JUMP JUMPDEST SWAP2 POP PUSH2 0x112F DUP3 PUSH2 0x10CA JUMP JUMPDEST PUSH1 0x40 DUP3 ADD SWAP1 POP SWAP2 SWAP1 POP JUMP JUMPDEST PUSH0 PUSH1 0x20 DUP3 ADD SWAP1 POP DUP2 DUP2 SUB PUSH0 DUP4 ADD MSTORE PUSH2 0x1151 DUP2 PUSH2 0x1118 JUMP JUMPDEST SWAP1 POP SWAP2 SWAP1 POP JUMP JUMPDEST PUSH32 0x43616E6E6F74207769746864726177205745544839206469726563746C792C20 PUSH0 DUP3 ADD MSTORE PUSH32 0x7573652077697468647261775745544800000000000000000000000000000000 PUSH1 0x20 DUP3 ADD MSTORE POP JUMP JUMPDEST PUSH0 PUSH2 0x11B2 PUSH1 0x30 DUP4 PUSH2 0xDE7 JUMP JUMPDEST SWAP2 POP PUSH2 0x11BD DUP3 PUSH2 0x1158 JUMP JUMPDEST PUSH1 0x40 DUP3 ADD SWAP1 POP SWAP2 SWAP1 POP JUMP JUMPDEST PUSH0 PUSH1 0x20 DUP3 ADD SWAP1 POP DUP2 DUP2 SUB PUSH0 DUP4 ADD MSTORE PUSH2 0x11DF DUP2 PUSH2 0x11A6 JUMP JUMPDEST SWAP1 POP SWAP2 SWAP1 POP JUMP INVALID LOG2 PUSH5 0x6970667358 0x22 SLT KECCAK256 PUSH10 0xB368B22ECC3B59547182 0xFC 0xA8 DUP15 0x25 CODECOPY PUSH11 0xA7FE96AAE6A22590B46935 OR EXTCODECOPY DUP12 PUSH24 0x64736F6C634300081A003300000000000000000000000000 "
				},
				"gasEstimates": {
					"creation": {
						"codeDepositCost": "927200",
						"executionCost": "infinite",
						"totalCost": "infinite"
					},
					"external": {
						"donate()": "infinite",
						"owner()": "2560",
						"renounceOwnership()": "infinite",
						"setSwapFee(uint24)": "infinite",
						"swapFee()": "2517",
						"swapRouter()": "infinite",
						"token()": "infinite",
						"transferOwnership(address)": "infinite",
						"withdraw(address,uint256)": "infinite",
						"withdrawWETH(uint256)": "infinite"
					},
					"internal": {
						"_swapETHForToken(uint256)": "infinite"
					}
				},
				"methodIdentifiers": {
					"donate()": "ed88c68e",
					"owner()": "8da5cb5b",
					"renounceOwnership()": "715018a6",
					"setSwapFee(uint24)": "e4c3a8f8",
					"swapFee()": "54cf2aeb",
					"swapRouter()": "c31c9c07",
					"token()": "fc0c546a",
					"transferOwnership(address)": "f2fde38b",
					"withdraw(address,uint256)": "f3fef3a3",
					"withdrawWETH(uint256)": "fc4dd333"
				}
			},
			"storageLayout": {
				"storage": [
					{
						"astId": 8,
						"contract": "contracts/build_bounty/prototype/auto_swap_build.sol:AutoSwapDonation",
						"label": "_owner",
						"offset": 0,
						"slot": "0",
						"type": "t_address"
					},
					{
						"astId": 1092,
						"contract": "contracts/build_bounty/prototype/auto_swap_build.sol:AutoSwapDonation",
						"label": "swapFee",
						"offset": 20,
						"slot": "0",
						"type": "t_uint24"
					}
				],
				"types": {
					"t_address": {
						"encoding": "inplace",
						"label": "address",
						"numberOfBytes": "20"
					},
					"t_uint24": {
						"encoding": "inplace",
						"label": "uint24",
						"numberOfBytes": "3"
					}
				}
			},
			"userdoc": {
				"kind": "user",
				"methods": {},
				"version": 1
			}
		}
	}
}