{
	"contracts/build_bounty/prototype/auto_swap_build.sol": {
		"LiquidityContract": {
			"abi": [
				{
					"inputs": [
						{
							"internalType": "address",
							"name": "_token",
							"type": "address"
						}
					],
					"stateMutability": "nonpayable",
					"type": "constructor"
				},
				{
					"inputs": [],
					"name": "MustSendETH",
					"type": "error"
				},
				{
					"inputs": [],
					"name": "MustSpecifyTokenAmount",
					"type": "error"
				},
				{
					"inputs": [],
					"name": "UNISWAP_V2_FACTORY",
					"outputs": [
						{
							"internalType": "address",
							"name": "",
							"type": "address"
						}
					],
					"stateMutability": "view",
					"type": "function"
				},
				{
					"inputs": [],
					"name": "UNISWAP_V2_ROUTER",
					"outputs": [
						{
							"internalType": "address",
							"name": "",
							"type": "address"
						}
					],
					"stateMutability": "view",
					"type": "function"
				},
				{
					"inputs": [
						{
							"internalType": "uint256",
							"name": "amountTokenDesired",
							"type": "uint256"
						}
					],
					"name": "addLiquidityETH",
					"outputs": [],
					"stateMutability": "payable",
					"type": "function"
				},
				{
					"inputs": [],
					"name": "getTokenAddress",
					"outputs": [
						{
							"internalType": "address",
							"name": "",
							"type": "address"
						}
					],
					"stateMutability": "view",
					"type": "function"
				},
				{
					"inputs": [],
					"name": "memeToken",
					"outputs": [
						{
							"internalType": "address",
							"name": "",
							"type": "address"
						}
					],
					"stateMutability": "view",
					"type": "function"
				},
				{
					"inputs": [],
					"name": "pair",
					"outputs": [
						{
							"internalType": "address",
							"name": "",
							"type": "address"
						}
					],
					"stateMutability": "view",
					"type": "function"
				},
				{
					"inputs": [],
					"name": "swapETHForMeme",
					"outputs": [],
					"stateMutability": "payable",
					"type": "function"
				},
				{
					"inputs": [
						{
							"internalType": "uint256",
							"name": "amountIn",
							"type": "uint256"
						}
					],
					"name": "swapMemeForETH",
					"outputs": [],
					"stateMutability": "nonpayable",
					"type": "function"
				},
				{
					"inputs": [],
					"name": "uniswapRouter",
					"outputs": [
						{
							"internalType": "contract IUniswapV2Router",
							"name": "",
							"type": "address"
						}
					],
					"stateMutability": "view",
					"type": "function"
				},
				{
					"inputs": [],
					"name": "weth",
					"outputs": [
						{
							"internalType": "address",
							"name": "",
							"type": "address"
						}
					],
					"stateMutability": "view",
					"type": "function"
				},
				{
					"stateMutability": "payable",
					"type": "receive"
				}
			],
			"devdoc": {
				"kind": "dev",
				"methods": {},
				"version": 1
			},
			"evm": {
				"assembly": "    /* \"contracts/build_bounty/prototype/auto_swap_build.sol\":1391:4927  contract LiquidityContract{... */\n  mstore(0x40, 0x80)\n    /* \"contracts/build_bounty/prototype/auto_swap_build.sol\":1712:1754  0x0a0E0FccC2c799845214E8E5583E44479EC02a23 */\n  0x0a0e0fccc2c799845214e8e5583e44479ec02a23\n    /* \"contracts/build_bounty/prototype/auto_swap_build.sol\":1685:1754  address public memeToken = 0x0a0E0FccC2c799845214E8E5583E44479EC02a23 */\n  0x00\n  dup1\n  0x0100\n  exp\n  dup2\n  sload\n  dup2\n  0xffffffffffffffffffffffffffffffffffffffff\n  mul\n  not\n  and\n  swap1\n  dup4\n  0xffffffffffffffffffffffffffffffffffffffff\n  and\n  mul\n  or\n  swap1\n  sstore\n  pop\n    /* \"contracts/build_bounty/prototype/auto_swap_build.sol\":1854:2206  constructor(address _token) {... */\n  callvalue\n  dup1\n  iszero\n  tag_1\n  jumpi\n  0x00\n  dup1\n  revert\ntag_1:\n  pop\n  mload(0x40)\n  sub(codesize, bytecodeSize)\n  dup1\n  bytecodeSize\n  dup4\n  codecopy\n  dup2\n  dup2\n  add\n  0x40\n  mstore\n  dup2\n  add\n  swap1\n  tag_2\n  swap2\n  swap1\n  tag_3\n  jump\t// in\ntag_2:\n    /* \"contracts/build_bounty/prototype/auto_swap_build.sol\":1937:1943  _token */\n  dup1\n    /* \"contracts/build_bounty/prototype/auto_swap_build.sol\":1925:1934  memeToken */\n  0x00\n  dup1\n    /* \"contracts/build_bounty/prototype/auto_swap_build.sol\":1925:1943  memeToken = _token */\n  0x0100\n  exp\n  dup2\n  sload\n  dup2\n  0xffffffffffffffffffffffffffffffffffffffff\n  mul\n  not\n  and\n  swap1\n  dup4\n  0xffffffffffffffffffffffffffffffffffffffff\n  and\n  mul\n  or\n  swap1\n  sstore\n  pop\n    /* \"contracts/build_bounty/prototype/auto_swap_build.sol\":1480:1522  0x050E797f3625EC8785265e1d9BDd4799b97528A1 */\n  0x050e797f3625ec8785265e1d9bdd4799b97528a1\n    /* \"contracts/build_bounty/prototype/auto_swap_build.sol\":1953:1966  uniswapRouter */\n  0x03\n  0x00\n    /* \"contracts/build_bounty/prototype/auto_swap_build.sol\":1953:2004  uniswapRouter = IUniswapV2Router(UNISWAP_V2_ROUTER) */\n  0x0100\n  exp\n  dup2\n  sload\n  dup2\n  0xffffffffffffffffffffffffffffffffffffffff\n  mul\n  not\n  and\n  swap1\n  dup4\n  0xffffffffffffffffffffffffffffffffffffffff\n  and\n  mul\n  or\n  swap1\n  sstore\n  pop\n    /* \"contracts/build_bounty/prototype/auto_swap_build.sol\":2022:2035  uniswapRouter */\n  0x03\n  0x00\n  swap1\n  sload\n  swap1\n  0x0100\n  exp\n  swap1\n  div\n  0xffffffffffffffffffffffffffffffffffffffff\n  and\n    /* \"contracts/build_bounty/prototype/auto_swap_build.sol\":2022:2040  uniswapRouter.WETH */\n  0xffffffffffffffffffffffffffffffffffffffff\n  and\n  0xad5c4648\n    /* \"contracts/build_bounty/prototype/auto_swap_build.sol\":2022:2042  uniswapRouter.WETH() */\n  mload(0x40)\n  dup2\n  0xffffffff\n  and\n  0xe0\n  shl\n  dup2\n  mstore\n  0x04\n  add\n  0x20\n  mload(0x40)\n  dup1\n  dup4\n  sub\n  dup2\n  dup7\n  gas\n  staticcall\n  iszero\n  dup1\n  iszero\n  tag_7\n  jumpi\n  returndatasize\n  0x00\n  dup1\n  returndatacopy\n  revert(0x00, returndatasize)\ntag_7:\n  pop\n  pop\n  pop\n  pop\n  mload(0x40)\n  returndatasize\n  not(0x1f)\n  0x1f\n  dup3\n  add\n  and\n  dup3\n  add\n  dup1\n  0x40\n  mstore\n  pop\n  dup2\n  add\n  swap1\n  tag_8\n  swap2\n  swap1\n  tag_3\n  jump\t// in\ntag_8:\n    /* \"contracts/build_bounty/prototype/auto_swap_build.sol\":2015:2019  weth */\n  0x02\n  0x00\n    /* \"contracts/build_bounty/prototype/auto_swap_build.sol\":2015:2042  weth = uniswapRouter.WETH() */\n  0x0100\n  exp\n  dup2\n  sload\n  dup2\n  0xffffffffffffffffffffffffffffffffffffffff\n  mul\n  not\n  and\n  swap1\n  dup4\n  0xffffffffffffffffffffffffffffffffffffffff\n  and\n  mul\n  or\n  swap1\n  sstore\n  pop\n    /* \"contracts/build_bounty/prototype/auto_swap_build.sol\":2060:2069  memeToken */\n  0x00\n  dup1\n  sload\n  swap1\n  0x0100\n  exp\n  swap1\n  div\n  0xffffffffffffffffffffffffffffffffffffffff\n  and\n    /* \"contracts/build_bounty/prototype/auto_swap_build.sol\":2053:2078  IERC20(memeToken).approve */\n  0xffffffffffffffffffffffffffffffffffffffff\n  and\n  0x095ea7b3\n    /* \"contracts/build_bounty/prototype/auto_swap_build.sol\":1480:1522  0x050E797f3625EC8785265e1d9BDd4799b97528A1 */\n  0x050e797f3625ec8785265e1d9bdd4799b97528a1\n    /* \"contracts/build_bounty/prototype/auto_swap_build.sol\":2098:2115  type(uint256).max */\n  0xffffffffffffffffffffffffffffffffffffffffffffffffffffffffffffffff\n    /* \"contracts/build_bounty/prototype/auto_swap_build.sol\":2053:2116  IERC20(memeToken).approve(UNISWAP_V2_ROUTER, type(uint256).max) */\n  mload(0x40)\n  dup4\n  0xffffffff\n  and\n  0xe0\n  shl\n  dup2\n  mstore\n  0x04\n  add\n  tag_9\n  swap3\n  swap2\n  swap1\n  tag_10\n  jump\t// in\ntag_9:\n  0x20\n  mload(0x40)\n  dup1\n  dup4\n  sub\n  dup2\n  0x00\n  dup8\n  gas\n  call\n  iszero\n  dup1\n  iszero\n  tag_12\n  jumpi\n  returndatasize\n  0x00\n  dup1\n  returndatacopy\n  revert(0x00, returndatasize)\ntag_12:\n  pop\n  pop\n  pop\n  pop\n  mload(0x40)\n  returndatasize\n  not(0x1f)\n  0x1f\n  dup3\n  add\n  and\n  dup3\n  add\n  dup1\n  0x40\n  mstore\n  pop\n  dup2\n  add\n  swap1\n  tag_13\n  swap2\n  swap1\n  tag_14\n  jump\t// in\ntag_13:\n  pop\n    /* \"contracts/build_bounty/prototype/auto_swap_build.sol\":1574:1616  0x9fBFa493EC98694256D171171487B9D47D849Ba9 */\n  0x9fbfa493ec98694256d171171487b9d47d849ba9\n    /* \"contracts/build_bounty/prototype/auto_swap_build.sol\":2134:2182  IUniswapV2Factory(UNISWAP_V2_FACTORY).createPair */\n  0xffffffffffffffffffffffffffffffffffffffff\n  and\n  0xc9c65396\n    /* \"contracts/build_bounty/prototype/auto_swap_build.sol\":2183:2192  memeToken */\n  0x00\n  dup1\n  sload\n  swap1\n  0x0100\n  exp\n  swap1\n  div\n  0xffffffffffffffffffffffffffffffffffffffff\n  and\n    /* \"contracts/build_bounty/prototype/auto_swap_build.sol\":2194:2198  weth */\n  0x02\n  0x00\n  swap1\n  sload\n  swap1\n  0x0100\n  exp\n  swap1\n  div\n  0xffffffffffffffffffffffffffffffffffffffff\n  and\n    /* \"contracts/build_bounty/prototype/auto_swap_build.sol\":2134:2199  IUniswapV2Factory(UNISWAP_V2_FACTORY).createPair(memeToken, weth) */\n  mload(0x40)\n  dup4\n  0xffffffff\n  and\n  0xe0\n  shl\n  dup2\n  mstore\n  0x04\n  add\n  tag_15\n  swap3\n  swap2\n  swap1\n  tag_16\n  jump\t// in\ntag_15:\n  0x20\n  mload(0x40)\n  dup1\n  dup4\n  sub\n  dup2\n  0x00\n  dup8\n  gas\n  call\n  iszero\n  dup1\n  iszero\n  tag_18\n  jumpi\n  returndatasize\n  0x00\n  dup1\n  returndatacopy\n  revert(0x00, returndatasize)\ntag_18:\n  pop\n  pop\n  pop\n  pop\n  mload(0x40)\n  returndatasize\n  not(0x1f)\n  0x1f\n  dup3\n  add\n  and\n  dup3\n  add\n  dup1\n  0x40\n  mstore\n  pop\n  dup2\n  add\n  swap1\n  tag_19\n  swap2\n  swap1\n  tag_3\n  jump\t// in\ntag_19:\n    /* \"contracts/build_bounty/prototype/auto_swap_build.sol\":2127:2131  pair */\n  0x01\n  0x00\n    /* \"contracts/build_bounty/prototype/auto_swap_build.sol\":2127:2199  pair = IUniswapV2Factory(UNISWAP_V2_FACTORY).createPair(memeToken, weth) */\n  0x0100\n  exp\n  dup2\n  sload\n  dup2\n  0xffffffffffffffffffffffffffffffffffffffff\n  mul\n  not\n  and\n  swap1\n  dup4\n  0xffffffffffffffffffffffffffffffffffffffff\n  and\n  mul\n  or\n  swap1\n  sstore\n  pop\n    /* \"contracts/build_bounty/prototype/auto_swap_build.sol\":1854:2206  constructor(address _token) {... */\n  pop\n    /* \"contracts/build_bounty/prototype/auto_swap_build.sol\":1391:4927  contract LiquidityContract{... */\n  jump(tag_20)\n    /* \"#utility.yul\":88:205   */\ntag_22:\n    /* \"#utility.yul\":197:198   */\n  0x00\n    /* \"#utility.yul\":194:195   */\n  dup1\n    /* \"#utility.yul\":187:199   */\n  revert\n    /* \"#utility.yul\":334:460   */\ntag_24:\n    /* \"#utility.yul\":371:378   */\n  0x00\n    /* \"#utility.yul\":411:453   */\n  0xffffffffffffffffffffffffffffffffffffffff\n    /* \"#utility.yul\":404:409   */\n  dup3\n    /* \"#utility.yul\":400:454   */\n  and\n    /* \"#utility.yul\":389:454   */\n  swap1\n  pop\n    /* \"#utility.yul\":334:460   */\n  swap2\n  swap1\n  pop\n  jump\t// out\n    /* \"#utility.yul\":466:562   */\ntag_25:\n    /* \"#utility.yul\":503:510   */\n  0x00\n    /* \"#utility.yul\":532:556   */\n  tag_40\n    /* \"#utility.yul\":550:555   */\n  dup3\n    /* \"#utility.yul\":532:556   */\n  tag_24\n  jump\t// in\ntag_40:\n    /* \"#utility.yul\":521:556   */\n  swap1\n  pop\n    /* \"#utility.yul\":466:562   */\n  swap2\n  swap1\n  pop\n  jump\t// out\n    /* \"#utility.yul\":568:690   */\ntag_26:\n    /* \"#utility.yul\":641:665   */\n  tag_42\n    /* \"#utility.yul\":659:664   */\n  dup2\n    /* \"#utility.yul\":641:665   */\n  tag_25\n  jump\t// in\ntag_42:\n    /* \"#utility.yul\":634:639   */\n  dup2\n    /* \"#utility.yul\":631:666   */\n  eq\n    /* \"#utility.yul\":621:684   */\n  tag_43\n  jumpi\n    /* \"#utility.yul\":680:681   */\n  0x00\n    /* \"#utility.yul\":677:678   */\n  dup1\n    /* \"#utility.yul\":670:682   */\n  revert\n    /* \"#utility.yul\":621:684   */\ntag_43:\n    /* \"#utility.yul\":568:690   */\n  pop\n  jump\t// out\n    /* \"#utility.yul\":696:839   */\ntag_27:\n    /* \"#utility.yul\":753:758   */\n  0x00\n    /* \"#utility.yul\":784:790   */\n  dup2\n    /* \"#utility.yul\":778:791   */\n  mload\n    /* \"#utility.yul\":769:791   */\n  swap1\n  pop\n    /* \"#utility.yul\":800:833   */\n  tag_45\n    /* \"#utility.yul\":827:832   */\n  dup2\n    /* \"#utility.yul\":800:833   */\n  tag_26\n  jump\t// in\ntag_45:\n    /* \"#utility.yul\":696:839   */\n  swap3\n  swap2\n  pop\n  pop\n  jump\t// out\n    /* \"#utility.yul\":845:1196   */\ntag_3:\n    /* \"#utility.yul\":915:921   */\n  0x00\n    /* \"#utility.yul\":964:966   */\n  0x20\n    /* \"#utility.yul\":952:961   */\n  dup3\n    /* \"#utility.yul\":943:950   */\n  dup5\n    /* \"#utility.yul\":939:962   */\n  sub\n    /* \"#utility.yul\":935:967   */\n  slt\n    /* \"#utility.yul\":932:1051   */\n  iszero\n  tag_47\n  jumpi\n    /* \"#utility.yul\":970:1049   */\n  tag_48\n  tag_22\n  jump\t// in\ntag_48:\n    /* \"#utility.yul\":932:1051   */\ntag_47:\n    /* \"#utility.yul\":1090:1091   */\n  0x00\n    /* \"#utility.yul\":1115:1179   */\n  tag_49\n    /* \"#utility.yul\":1171:1178   */\n  dup5\n    /* \"#utility.yul\":1162:1168   */\n  dup3\n    /* \"#utility.yul\":1151:1160   */\n  dup6\n    /* \"#utility.yul\":1147:1169   */\n  add\n    /* \"#utility.yul\":1115:1179   */\n  tag_27\n  jump\t// in\ntag_49:\n    /* \"#utility.yul\":1105:1179   */\n  swap2\n  pop\n    /* \"#utility.yul\":1061:1189   */\n  pop\n    /* \"#utility.yul\":845:1196   */\n  swap3\n  swap2\n  pop\n  pop\n  jump\t// out\n    /* \"#utility.yul\":1202:1320   */\ntag_28:\n    /* \"#utility.yul\":1289:1313   */\n  tag_51\n    /* \"#utility.yul\":1307:1312   */\n  dup2\n    /* \"#utility.yul\":1289:1313   */\n  tag_25\n  jump\t// in\ntag_51:\n    /* \"#utility.yul\":1284:1287   */\n  dup3\n    /* \"#utility.yul\":1277:1314   */\n  mstore\n    /* \"#utility.yul\":1202:1320   */\n  pop\n  pop\n  jump\t// out\n    /* \"#utility.yul\":1326:1403   */\ntag_29:\n    /* \"#utility.yul\":1363:1370   */\n  0x00\n    /* \"#utility.yul\":1392:1397   */\n  dup2\n    /* \"#utility.yul\":1381:1397   */\n  swap1\n  pop\n    /* \"#utility.yul\":1326:1403   */\n  swap2\n  swap1\n  pop\n  jump\t// out\n    /* \"#utility.yul\":1409:1527   */\ntag_30:\n    /* \"#utility.yul\":1496:1520   */\n  tag_54\n    /* \"#utility.yul\":1514:1519   */\n  dup2\n    /* \"#utility.yul\":1496:1520   */\n  tag_29\n  jump\t// in\ntag_54:\n    /* \"#utility.yul\":1491:1494   */\n  dup3\n    /* \"#utility.yul\":1484:1521   */\n  mstore\n    /* \"#utility.yul\":1409:1527   */\n  pop\n  pop\n  jump\t// out\n    /* \"#utility.yul\":1533:1865   */\ntag_10:\n    /* \"#utility.yul\":1654:1658   */\n  0x00\n    /* \"#utility.yul\":1692:1694   */\n  0x40\n    /* \"#utility.yul\":1681:1690   */\n  dup3\n    /* \"#utility.yul\":1677:1695   */\n  add\n    /* \"#utility.yul\":1669:1695   */\n  swap1\n  pop\n    /* \"#utility.yul\":1705:1776   */\n  tag_56\n    /* \"#utility.yul\":1773:1774   */\n  0x00\n    /* \"#utility.yul\":1762:1771   */\n  dup4\n    /* \"#utility.yul\":1758:1775   */\n  add\n    /* \"#utility.yul\":1749:1755   */\n  dup6\n    /* \"#utility.yul\":1705:1776   */\n  tag_28\n  jump\t// in\ntag_56:\n    /* \"#utility.yul\":1786:1858   */\n  tag_57\n    /* \"#utility.yul\":1854:1856   */\n  0x20\n    /* \"#utility.yul\":1843:1852   */\n  dup4\n    /* \"#utility.yul\":1839:1857   */\n  add\n    /* \"#utility.yul\":1830:1836   */\n  dup5\n    /* \"#utility.yul\":1786:1858   */\n  tag_30\n  jump\t// in\ntag_57:\n    /* \"#utility.yul\":1533:1865   */\n  swap4\n  swap3\n  pop\n  pop\n  pop\n  jump\t// out\n    /* \"#utility.yul\":1871:1961   */\ntag_31:\n    /* \"#utility.yul\":1905:1912   */\n  0x00\n    /* \"#utility.yul\":1948:1953   */\n  dup2\n    /* \"#utility.yul\":1941:1954   */\n  iszero\n    /* \"#utility.yul\":1934:1955   */\n  iszero\n    /* \"#utility.yul\":1923:1955   */\n  swap1\n  pop\n    /* \"#utility.yul\":1871:1961   */\n  swap2\n  swap1\n  pop\n  jump\t// out\n    /* \"#utility.yul\":1967:2083   */\ntag_32:\n    /* \"#utility.yul\":2037:2058   */\n  tag_60\n    /* \"#utility.yul\":2052:2057   */\n  dup2\n    /* \"#utility.yul\":2037:2058   */\n  tag_31\n  jump\t// in\ntag_60:\n    /* \"#utility.yul\":2030:2035   */\n  dup2\n    /* \"#utility.yul\":2027:2059   */\n  eq\n    /* \"#utility.yul\":2017:2077   */\n  tag_61\n  jumpi\n    /* \"#utility.yul\":2073:2074   */\n  0x00\n    /* \"#utility.yul\":2070:2071   */\n  dup1\n    /* \"#utility.yul\":2063:2075   */\n  revert\n    /* \"#utility.yul\":2017:2077   */\ntag_61:\n    /* \"#utility.yul\":1967:2083   */\n  pop\n  jump\t// out\n    /* \"#utility.yul\":2089:2226   */\ntag_33:\n    /* \"#utility.yul\":2143:2148   */\n  0x00\n    /* \"#utility.yul\":2174:2180   */\n  dup2\n    /* \"#utility.yul\":2168:2181   */\n  mload\n    /* \"#utility.yul\":2159:2181   */\n  swap1\n  pop\n    /* \"#utility.yul\":2190:2220   */\n  tag_63\n    /* \"#utility.yul\":2214:2219   */\n  dup2\n    /* \"#utility.yul\":2190:2220   */\n  tag_32\n  jump\t// in\ntag_63:\n    /* \"#utility.yul\":2089:2226   */\n  swap3\n  swap2\n  pop\n  pop\n  jump\t// out\n    /* \"#utility.yul\":2232:2577   */\ntag_14:\n    /* \"#utility.yul\":2299:2305   */\n  0x00\n    /* \"#utility.yul\":2348:2350   */\n  0x20\n    /* \"#utility.yul\":2336:2345   */\n  dup3\n    /* \"#utility.yul\":2327:2334   */\n  dup5\n    /* \"#utility.yul\":2323:2346   */\n  sub\n    /* \"#utility.yul\":2319:2351   */\n  slt\n    /* \"#utility.yul\":2316:2435   */\n  iszero\n  tag_65\n  jumpi\n    /* \"#utility.yul\":2354:2433   */\n  tag_66\n  tag_22\n  jump\t// in\ntag_66:\n    /* \"#utility.yul\":2316:2435   */\ntag_65:\n    /* \"#utility.yul\":2474:2475   */\n  0x00\n    /* \"#utility.yul\":2499:2560   */\n  tag_67\n    /* \"#utility.yul\":2552:2559   */\n  dup5\n    /* \"#utility.yul\":2543:2549   */\n  dup3\n    /* \"#utility.yul\":2532:2541   */\n  dup6\n    /* \"#utility.yul\":2528:2550   */\n  add\n    /* \"#utility.yul\":2499:2560   */\n  tag_33\n  jump\t// in\ntag_67:\n    /* \"#utility.yul\":2489:2560   */\n  swap2\n  pop\n    /* \"#utility.yul\":2445:2570   */\n  pop\n    /* \"#utility.yul\":2232:2577   */\n  swap3\n  swap2\n  pop\n  pop\n  jump\t// out\n    /* \"#utility.yul\":2583:2915   */\ntag_16:\n    /* \"#utility.yul\":2704:2708   */\n  0x00\n    /* \"#utility.yul\":2742:2744   */\n  0x40\n    /* \"#utility.yul\":2731:2740   */\n  dup3\n    /* \"#utility.yul\":2727:2745   */\n  add\n    /* \"#utility.yul\":2719:2745   */\n  swap1\n  pop\n    /* \"#utility.yul\":2755:2826   */\n  tag_69\n    /* \"#utility.yul\":2823:2824   */\n  0x00\n    /* \"#utility.yul\":2812:2821   */\n  dup4\n    /* \"#utility.yul\":2808:2825   */\n  add\n    /* \"#utility.yul\":2799:2805   */\n  dup6\n    /* \"#utility.yul\":2755:2826   */\n  tag_28\n  jump\t// in\ntag_69:\n    /* \"#utility.yul\":2836:2908   */\n  tag_70\n    /* \"#utility.yul\":2904:2906   */\n  0x20\n    /* \"#utility.yul\":2893:2902   */\n  dup4\n    /* \"#utility.yul\":2889:2907   */\n  add\n    /* \"#utility.yul\":2880:2886   */\n  dup5\n    /* \"#utility.yul\":2836:2908   */\n  tag_28\n  jump\t// in\ntag_70:\n    /* \"#utility.yul\":2583:2915   */\n  swap4\n  swap3\n  pop\n  pop\n  pop\n  jump\t// out\n    /* \"contracts/build_bounty/prototype/auto_swap_build.sol\":1391:4927  contract LiquidityContract{... */\ntag_20:\n  dataSize(sub_0)\n  dup1\n  dataOffset(sub_0)\n  0x00\n  codecopy\n  0x00\n  return\nstop\n\nsub_0: assembly {\n        /* \"contracts/build_bounty/prototype/auto_swap_build.sol\":1391:4927  contract LiquidityContract{... */\n      mstore(0x40, 0x80)\n      jumpi(tag_1, lt(calldatasize, 0x04))\n      shr(0xe0, calldataload(0x00))\n      dup1\n      0x97b3d8ca\n      gt\n      tag_13\n      jumpi\n      dup1\n      0x97b3d8ca\n      eq\n      tag_8\n      jumpi\n      dup1\n      0x99d8fae3\n      eq\n      tag_9\n      jumpi\n      dup1\n      0xa82ed9ec\n      eq\n      tag_10\n      jumpi\n      dup1\n      0xa8aa1b31\n      eq\n      tag_11\n      jumpi\n      dup1\n      0xd06d04cc\n      eq\n      tag_12\n      jumpi\n      jump(tag_2)\n    tag_13:\n      dup1\n      0x10fe9ae8\n      eq\n      tag_3\n      jumpi\n      dup1\n      0x3fc8cef3\n      eq\n      tag_4\n      jumpi\n      dup1\n      0x66dc34a7\n      eq\n      tag_5\n      jumpi\n      dup1\n      0x735de9f7\n      eq\n      tag_6\n      jumpi\n      dup1\n      0x972598e7\n      eq\n      tag_7\n      jumpi\n      jump(tag_2)\n    tag_1:\n      jumpi(tag_2, calldatasize)\n      stop\n    tag_2:\n      0x00\n      dup1\n      revert\n        /* \"contracts/build_bounty/prototype/auto_swap_build.sol\":2707:2799  function getTokenAddress() external view returns (address) {... */\n    tag_3:\n      callvalue\n      dup1\n      iszero\n      tag_16\n      jumpi\n      0x00\n      dup1\n      revert\n    tag_16:\n      pop\n      tag_17\n      tag_18\n      jump\t// in\n    tag_17:\n      mload(0x40)\n      tag_19\n      swap2\n      swap1\n      tag_20\n      jump\t// in\n    tag_19:\n      mload(0x40)\n      dup1\n      swap2\n      sub\n      swap1\n      return\n        /* \"contracts/build_bounty/prototype/auto_swap_build.sol\":1785:1804  address public weth */\n    tag_4:\n      callvalue\n      dup1\n      iszero\n      tag_21\n      jumpi\n      0x00\n      dup1\n      revert\n    tag_21:\n      pop\n      tag_22\n      tag_23\n      jump\t// in\n    tag_22:\n      mload(0x40)\n      tag_24\n      swap2\n      swap1\n      tag_20\n      jump\t// in\n    tag_24:\n      mload(0x40)\n      dup1\n      swap2\n      sub\n      swap1\n      return\n        /* \"contracts/build_bounty/prototype/auto_swap_build.sol\":2836:3484  function swapMemeForETH(... */\n    tag_5:\n      callvalue\n      dup1\n      iszero\n      tag_25\n      jumpi\n      0x00\n      dup1\n      revert\n    tag_25:\n      pop\n      tag_26\n      0x04\n      dup1\n      calldatasize\n      sub\n      dup2\n      add\n      swap1\n      tag_27\n      swap2\n      swap1\n      tag_28\n      jump\t// in\n    tag_27:\n      tag_29\n      jump\t// in\n    tag_26:\n      stop\n        /* \"contracts/build_bounty/prototype/auto_swap_build.sol\":1810:1847  IUniswapV2Router public uniswapRouter */\n    tag_6:\n      callvalue\n      dup1\n      iszero\n      tag_30\n      jumpi\n      0x00\n      dup1\n      revert\n    tag_30:\n      pop\n      tag_31\n      tag_32\n      jump\t// in\n    tag_31:\n      mload(0x40)\n      tag_33\n      swap2\n      swap1\n      tag_34\n      jump\t// in\n    tag_33:\n      mload(0x40)\n      dup1\n      swap2\n      sub\n      swap1\n      return\n        /* \"contracts/build_bounty/prototype/auto_swap_build.sol\":1685:1754  address public memeToken = 0x0a0E0FccC2c799845214E8E5583E44479EC02a23 */\n    tag_7:\n      callvalue\n      dup1\n      iszero\n      tag_35\n      jumpi\n      0x00\n      dup1\n      revert\n    tag_35:\n      pop\n      tag_36\n      tag_37\n      jump\t// in\n    tag_36:\n      mload(0x40)\n      tag_38\n      swap2\n      swap1\n      tag_20\n      jump\t// in\n    tag_38:\n      mload(0x40)\n      dup1\n      swap2\n      sub\n      swap1\n      return\n        /* \"contracts/build_bounty/prototype/auto_swap_build.sol\":2243:2701  function swapETHForMeme() external payable {... */\n    tag_8:\n      tag_39\n      tag_40\n      jump\t// in\n    tag_39:\n      stop\n        /* \"contracts/build_bounty/prototype/auto_swap_build.sol\":1529:1616  address public constant UNISWAP_V2_FACTORY = 0x9fBFa493EC98694256D171171487B9D47D849Ba9 */\n    tag_9:\n      callvalue\n      dup1\n      iszero\n      tag_41\n      jumpi\n      0x00\n      dup1\n      revert\n    tag_41:\n      pop\n      tag_42\n      tag_43\n      jump\t// in\n    tag_42:\n      mload(0x40)\n      tag_44\n      swap2\n      swap1\n      tag_20\n      jump\t// in\n    tag_44:\n      mload(0x40)\n      dup1\n      swap2\n      sub\n      swap1\n      return\n        /* \"contracts/build_bounty/prototype/auto_swap_build.sol\":1428:1522  address public constant UNISWAP_V2_ROUTER =... */\n    tag_10:\n      callvalue\n      dup1\n      iszero\n      tag_45\n      jumpi\n      0x00\n      dup1\n      revert\n    tag_45:\n      pop\n      tag_46\n      tag_47\n      jump\t// in\n    tag_46:\n      mload(0x40)\n      tag_48\n      swap2\n      swap1\n      tag_20\n      jump\t// in\n    tag_48:\n      mload(0x40)\n      dup1\n      swap2\n      sub\n      swap1\n      return\n        /* \"contracts/build_bounty/prototype/auto_swap_build.sol\":1760:1779  address public pair */\n    tag_11:\n      callvalue\n      dup1\n      iszero\n      tag_49\n      jumpi\n      0x00\n      dup1\n      revert\n    tag_49:\n      pop\n      tag_50\n      tag_51\n      jump\t// in\n    tag_50:\n      mload(0x40)\n      tag_52\n      swap2\n      swap1\n      tag_20\n      jump\t// in\n    tag_52:\n      mload(0x40)\n      dup1\n      swap2\n      sub\n      swap1\n      return\n        /* \"contracts/build_bounty/prototype/auto_swap_build.sol\":3542:4168  function addLiquidityETH(... */\n    tag_12:\n      tag_53\n      0x04\n      dup1\n      calldatasize\n      sub\n      dup2\n      add\n      swap1\n      tag_54\n      swap2\n      swap1\n      tag_28\n      jump\t// in\n    tag_54:\n      tag_55\n      jump\t// in\n    tag_53:\n      stop\n        /* \"contracts/build_bounty/prototype/auto_swap_build.sol\":2707:2799  function getTokenAddress() external view returns (address) {... */\n    tag_18:\n        /* \"contracts/build_bounty/prototype/auto_swap_build.sol\":2757:2764  address */\n      0x00\n        /* \"contracts/build_bounty/prototype/auto_swap_build.sol\":2783:2792  memeToken */\n      dup1\n      0x00\n      swap1\n      sload\n      swap1\n      0x0100\n      exp\n      swap1\n      div\n      0xffffffffffffffffffffffffffffffffffffffff\n      and\n        /* \"contracts/build_bounty/prototype/auto_swap_build.sol\":2776:2792  return memeToken */\n      swap1\n      pop\n        /* \"contracts/build_bounty/prototype/auto_swap_build.sol\":2707:2799  function getTokenAddress() external view returns (address) {... */\n      swap1\n      jump\t// out\n        /* \"contracts/build_bounty/prototype/auto_swap_build.sol\":1785:1804  address public weth */\n    tag_23:\n      0x02\n      0x00\n      swap1\n      sload\n      swap1\n      0x0100\n      exp\n      swap1\n      div\n      0xffffffffffffffffffffffffffffffffffffffff\n      and\n      dup2\n      jump\t// out\n        /* \"contracts/build_bounty/prototype/auto_swap_build.sol\":2836:3484  function swapMemeForETH(... */\n    tag_29:\n        /* \"contracts/build_bounty/prototype/auto_swap_build.sol\":2927:2928  0 */\n      0x00\n        /* \"contracts/build_bounty/prototype/auto_swap_build.sol\":2915:2923  amountIn */\n      dup2\n        /* \"contracts/build_bounty/prototype/auto_swap_build.sol\":2915:2928  amountIn <= 0 */\n      gt\n        /* \"contracts/build_bounty/prototype/auto_swap_build.sol\":2911:2961  if (amountIn <= 0) revert MustSpecifyTokenAmount() */\n      tag_58\n      jumpi\n        /* \"contracts/build_bounty/prototype/auto_swap_build.sol\":2937:2961  MustSpecifyTokenAmount() */\n      mload(0x40)\n      0xd8767d00000000000000000000000000000000000000000000000000000000\n      dup2\n      mstore\n      0x04\n      add\n      mload(0x40)\n      dup1\n      swap2\n      sub\n      swap1\n      revert\n        /* \"contracts/build_bounty/prototype/auto_swap_build.sol\":2911:2961  if (amountIn <= 0) revert MustSpecifyTokenAmount() */\n    tag_58:\n        /* \"contracts/build_bounty/prototype/auto_swap_build.sol\":2972:2993  address[] memory path */\n      0x60\n        /* \"contracts/build_bounty/prototype/auto_swap_build.sol\":3024:3025  2 */\n      0x02\n        /* \"contracts/build_bounty/prototype/auto_swap_build.sol\":3010:3026  new address[](2) */\n      0xffffffffffffffff\n      dup2\n      gt\n      iszero\n      tag_59\n      jumpi\n      tag_60\n      tag_61\n      jump\t// in\n    tag_60:\n    tag_59:\n      mload(0x40)\n      swap1\n      dup1\n      dup3\n      mstore\n      dup1\n      0x20\n      mul\n      0x20\n      add\n      dup3\n      add\n      0x40\n      mstore\n      dup1\n      iszero\n      tag_62\n      jumpi\n      dup2\n      0x20\n      add\n      0x20\n      dup3\n      mul\n      dup1\n      calldatasize\n      dup4\n      calldatacopy\n      dup1\n      dup3\n      add\n      swap2\n      pop\n      pop\n      swap1\n      pop\n    tag_62:\n      pop\n        /* \"contracts/build_bounty/prototype/auto_swap_build.sol\":3003:3026  path = new address[](2) */\n      swap1\n      pop\n        /* \"contracts/build_bounty/prototype/auto_swap_build.sol\":3047:3056  memeToken */\n      0x00\n      dup1\n      sload\n      swap1\n      0x0100\n      exp\n      swap1\n      div\n      0xffffffffffffffffffffffffffffffffffffffff\n      and\n        /* \"contracts/build_bounty/prototype/auto_swap_build.sol\":3037:3041  path */\n      dup2\n        /* \"contracts/build_bounty/prototype/auto_swap_build.sol\":3042:3043  0 */\n      0x00\n        /* \"contracts/build_bounty/prototype/auto_swap_build.sol\":3037:3044  path[0] */\n      dup2\n      mload\n      dup2\n      lt\n      tag_63\n      jumpi\n      tag_64\n      tag_65\n      jump\t// in\n    tag_64:\n    tag_63:\n      0x20\n      mul\n      0x20\n      add\n      add\n        /* \"contracts/build_bounty/prototype/auto_swap_build.sol\":3037:3056  path[0] = memeToken */\n      swap1\n      0xffffffffffffffffffffffffffffffffffffffff\n      and\n      swap1\n      dup2\n      0xffffffffffffffffffffffffffffffffffffffff\n      and\n      dup2\n      mstore\n      pop\n      pop\n        /* \"contracts/build_bounty/prototype/auto_swap_build.sol\":3098:3102  weth */\n      0x02\n      0x00\n      swap1\n      sload\n      swap1\n      0x0100\n      exp\n      swap1\n      div\n      0xffffffffffffffffffffffffffffffffffffffff\n      and\n        /* \"contracts/build_bounty/prototype/auto_swap_build.sol\":3088:3092  path */\n      dup2\n        /* \"contracts/build_bounty/prototype/auto_swap_build.sol\":3093:3094  1 */\n      0x01\n        /* \"contracts/build_bounty/prototype/auto_swap_build.sol\":3088:3095  path[1] */\n      dup2\n      mload\n      dup2\n      lt\n      tag_66\n      jumpi\n      tag_67\n      tag_65\n      jump\t// in\n    tag_67:\n    tag_66:\n      0x20\n      mul\n      0x20\n      add\n      add\n        /* \"contracts/build_bounty/prototype/auto_swap_build.sol\":3088:3102  path[1] = weth */\n      swap1\n      0xffffffffffffffffffffffffffffffffffffffff\n      and\n      swap1\n      dup2\n      0xffffffffffffffffffffffffffffffffffffffff\n      and\n      dup2\n      mstore\n      pop\n      pop\n        /* \"contracts/build_bounty/prototype/auto_swap_build.sol\":3195:3204  memeToken */\n      0x00\n      dup1\n      sload\n      swap1\n      0x0100\n      exp\n      swap1\n      div\n      0xffffffffffffffffffffffffffffffffffffffff\n      and\n        /* \"contracts/build_bounty/prototype/auto_swap_build.sol\":3188:3218  IERC20(memeToken).transferFrom */\n      0xffffffffffffffffffffffffffffffffffffffff\n      and\n      0x23b872dd\n        /* \"contracts/build_bounty/prototype/auto_swap_build.sol\":3219:3229  msg.sender */\n      caller\n        /* \"contracts/build_bounty/prototype/auto_swap_build.sol\":3239:3243  this */\n      address\n        /* \"contracts/build_bounty/prototype/auto_swap_build.sol\":3246:3254  amountIn */\n      dup6\n        /* \"contracts/build_bounty/prototype/auto_swap_build.sol\":3188:3255  IERC20(memeToken).transferFrom(msg.sender, address(this), amountIn) */\n      mload(0x40)\n      dup5\n      0xffffffff\n      and\n      0xe0\n      shl\n      dup2\n      mstore\n      0x04\n      add\n      tag_68\n      swap4\n      swap3\n      swap2\n      swap1\n      tag_69\n      jump\t// in\n    tag_68:\n      0x20\n      mload(0x40)\n      dup1\n      dup4\n      sub\n      dup2\n      0x00\n      dup8\n      gas\n      call\n      iszero\n      dup1\n      iszero\n      tag_71\n      jumpi\n      returndatasize\n      0x00\n      dup1\n      returndatacopy\n      revert(0x00, returndatasize)\n    tag_71:\n      pop\n      pop\n      pop\n      pop\n      mload(0x40)\n      returndatasize\n      not(0x1f)\n      0x1f\n      dup3\n      add\n      and\n      dup3\n      add\n      dup1\n      0x40\n      mstore\n      pop\n      dup2\n      add\n      swap1\n      tag_72\n      swap2\n      swap1\n      tag_73\n      jump\t// in\n    tag_72:\n      pop\n        /* \"contracts/build_bounty/prototype/auto_swap_build.sol\":3294:3307  uniswapRouter */\n      0x03\n      0x00\n      swap1\n      sload\n      swap1\n      0x0100\n      exp\n      swap1\n      div\n      0xffffffffffffffffffffffffffffffffffffffff\n      and\n        /* \"contracts/build_bounty/prototype/auto_swap_build.sol\":3294:3329  uniswapRouter.swapExactTokensForETH */\n      0xffffffffffffffffffffffffffffffffffffffff\n      and\n      0x18cbafe5\n        /* \"contracts/build_bounty/prototype/auto_swap_build.sol\":3343:3351  amountIn */\n      dup4\n        /* \"contracts/build_bounty/prototype/auto_swap_build.sol\":3365:3366  0 */\n      0x00\n        /* \"contracts/build_bounty/prototype/auto_swap_build.sol\":3380:3384  path */\n      dup5\n        /* \"contracts/build_bounty/prototype/auto_swap_build.sol\":3398:3408  msg.sender */\n      caller\n        /* \"contracts/build_bounty/prototype/auto_swap_build.sol\":3464:3467  360 */\n      0x0168\n        /* \"contracts/build_bounty/prototype/auto_swap_build.sol\":3446:3461  block.timestamp */\n      timestamp\n        /* \"contracts/build_bounty/prototype/auto_swap_build.sol\":3446:3467  block.timestamp + 360 */\n      tag_74\n      swap2\n      swap1\n      tag_75\n      jump\t// in\n    tag_74:\n        /* \"contracts/build_bounty/prototype/auto_swap_build.sol\":3294:3477  uniswapRouter.swapExactTokensForETH(... */\n      mload(0x40)\n      dup7\n      0xffffffff\n      and\n      0xe0\n      shl\n      dup2\n      mstore\n      0x04\n      add\n      tag_76\n      swap6\n      swap5\n      swap4\n      swap3\n      swap2\n      swap1\n      tag_77\n      jump\t// in\n    tag_76:\n      0x00\n      mload(0x40)\n      dup1\n      dup4\n      sub\n      dup2\n      0x00\n      dup8\n      gas\n      call\n      iszero\n      dup1\n      iszero\n      tag_79\n      jumpi\n      returndatasize\n      0x00\n      dup1\n      returndatacopy\n      revert(0x00, returndatasize)\n    tag_79:\n      pop\n      pop\n      pop\n      pop\n      mload(0x40)\n      returndatasize\n      0x00\n      dup3\n      returndatacopy\n      returndatasize\n      not(0x1f)\n      0x1f\n      dup3\n      add\n      and\n      dup3\n      add\n      dup1\n      0x40\n      mstore\n      pop\n      dup2\n      add\n      swap1\n      tag_80\n      swap2\n      swap1\n      tag_81\n      jump\t// in\n    tag_80:\n      pop\n        /* \"contracts/build_bounty/prototype/auto_swap_build.sol\":2901:3484  {... */\n      pop\n        /* \"contracts/build_bounty/prototype/auto_swap_build.sol\":2836:3484  function swapMemeForETH(... */\n      pop\n      jump\t// out\n        /* \"contracts/build_bounty/prototype/auto_swap_build.sol\":1810:1847  IUniswapV2Router public uniswapRouter */\n    tag_32:\n      0x03\n      0x00\n      swap1\n      sload\n      swap1\n      0x0100\n      exp\n      swap1\n      div\n      0xffffffffffffffffffffffffffffffffffffffff\n      and\n      dup2\n      jump\t// out\n        /* \"contracts/build_bounty/prototype/auto_swap_build.sol\":1685:1754  address public memeToken = 0x0a0E0FccC2c799845214E8E5583E44479EC02a23 */\n    tag_37:\n      0x00\n      dup1\n      sload\n      swap1\n      0x0100\n      exp\n      swap1\n      div\n      0xffffffffffffffffffffffffffffffffffffffff\n      and\n      dup2\n      jump\t// out\n        /* \"contracts/build_bounty/prototype/auto_swap_build.sol\":2243:2701  function swapETHForMeme() external payable {... */\n    tag_40:\n        /* \"contracts/build_bounty/prototype/auto_swap_build.sol\":2313:2314  0 */\n      0x00\n        /* \"contracts/build_bounty/prototype/auto_swap_build.sol\":2300:2309  msg.value */\n      callvalue\n        /* \"contracts/build_bounty/prototype/auto_swap_build.sol\":2300:2314  msg.value <= 0 */\n      gt\n        /* \"contracts/build_bounty/prototype/auto_swap_build.sol\":2296:2336  if (msg.value <= 0) revert MustSendETH() */\n      tag_83\n      jumpi\n        /* \"contracts/build_bounty/prototype/auto_swap_build.sol\":2323:2336  MustSendETH() */\n      mload(0x40)\n      0xd73ab2e100000000000000000000000000000000000000000000000000000000\n      dup2\n      mstore\n      0x04\n      add\n      mload(0x40)\n      dup1\n      swap2\n      sub\n      swap1\n      revert\n        /* \"contracts/build_bounty/prototype/auto_swap_build.sol\":2296:2336  if (msg.value <= 0) revert MustSendETH() */\n    tag_83:\n        /* \"contracts/build_bounty/prototype/auto_swap_build.sol\":2347:2368  address[] memory path */\n      0x60\n        /* \"contracts/build_bounty/prototype/auto_swap_build.sol\":2399:2400  2 */\n      0x02\n        /* \"contracts/build_bounty/prototype/auto_swap_build.sol\":2385:2401  new address[](2) */\n      0xffffffffffffffff\n      dup2\n      gt\n      iszero\n      tag_84\n      jumpi\n      tag_85\n      tag_61\n      jump\t// in\n    tag_85:\n    tag_84:\n      mload(0x40)\n      swap1\n      dup1\n      dup3\n      mstore\n      dup1\n      0x20\n      mul\n      0x20\n      add\n      dup3\n      add\n      0x40\n      mstore\n      dup1\n      iszero\n      tag_86\n      jumpi\n      dup2\n      0x20\n      add\n      0x20\n      dup3\n      mul\n      dup1\n      calldatasize\n      dup4\n      calldatacopy\n      dup1\n      dup3\n      add\n      swap2\n      pop\n      pop\n      swap1\n      pop\n    tag_86:\n      pop\n        /* \"contracts/build_bounty/prototype/auto_swap_build.sol\":2378:2401  path = new address[](2) */\n      swap1\n      pop\n        /* \"contracts/build_bounty/prototype/auto_swap_build.sol\":2422:2426  weth */\n      0x02\n      0x00\n      swap1\n      sload\n      swap1\n      0x0100\n      exp\n      swap1\n      div\n      0xffffffffffffffffffffffffffffffffffffffff\n      and\n        /* \"contracts/build_bounty/prototype/auto_swap_build.sol\":2412:2416  path */\n      dup2\n        /* \"contracts/build_bounty/prototype/auto_swap_build.sol\":2417:2418  0 */\n      0x00\n        /* \"contracts/build_bounty/prototype/auto_swap_build.sol\":2412:2419  path[0] */\n      dup2\n      mload\n      dup2\n      lt\n      tag_87\n      jumpi\n      tag_88\n      tag_65\n      jump\t// in\n    tag_88:\n    tag_87:\n      0x20\n      mul\n      0x20\n      add\n      add\n        /* \"contracts/build_bounty/prototype/auto_swap_build.sol\":2412:2426  path[0] = weth */\n      swap1\n      0xffffffffffffffffffffffffffffffffffffffff\n      and\n      swap1\n      dup2\n      0xffffffffffffffffffffffffffffffffffffffff\n      and\n      dup2\n      mstore\n      pop\n      pop\n        /* \"contracts/build_bounty/prototype/auto_swap_build.sol\":2465:2474  memeToken */\n      0x00\n      dup1\n      sload\n      swap1\n      0x0100\n      exp\n      swap1\n      div\n      0xffffffffffffffffffffffffffffffffffffffff\n      and\n        /* \"contracts/build_bounty/prototype/auto_swap_build.sol\":2455:2459  path */\n      dup2\n        /* \"contracts/build_bounty/prototype/auto_swap_build.sol\":2460:2461  1 */\n      0x01\n        /* \"contracts/build_bounty/prototype/auto_swap_build.sol\":2455:2462  path[1] */\n      dup2\n      mload\n      dup2\n      lt\n      tag_89\n      jumpi\n      tag_90\n      tag_65\n      jump\t// in\n    tag_90:\n    tag_89:\n      0x20\n      mul\n      0x20\n      add\n      add\n        /* \"contracts/build_bounty/prototype/auto_swap_build.sol\":2455:2474  path[1] = memeToken */\n      swap1\n      0xffffffffffffffffffffffffffffffffffffffff\n      and\n      swap1\n      dup2\n      0xffffffffffffffffffffffffffffffffffffffff\n      and\n      dup2\n      mstore\n      pop\n      pop\n        /* \"contracts/build_bounty/prototype/auto_swap_build.sol\":2507:2520  uniswapRouter */\n      0x03\n      0x00\n      swap1\n      sload\n      swap1\n      0x0100\n      exp\n      swap1\n      div\n      0xffffffffffffffffffffffffffffffffffffffff\n      and\n        /* \"contracts/build_bounty/prototype/auto_swap_build.sol\":2507:2542  uniswapRouter.swapExactETHForTokens */\n      0xffffffffffffffffffffffffffffffffffffffff\n      and\n      0x7ff36ab5\n        /* \"contracts/build_bounty/prototype/auto_swap_build.sol\":2550:2559  msg.value */\n      callvalue\n        /* \"contracts/build_bounty/prototype/auto_swap_build.sol\":2574:2575  0 */\n      0x00\n        /* \"contracts/build_bounty/prototype/auto_swap_build.sol\":2589:2593  path */\n      dup5\n        /* \"contracts/build_bounty/prototype/auto_swap_build.sol\":2607:2617  msg.sender */\n      caller\n        /* \"contracts/build_bounty/prototype/auto_swap_build.sol\":2681:2684  360 */\n      0x0168\n        /* \"contracts/build_bounty/prototype/auto_swap_build.sol\":2663:2678  block.timestamp */\n      timestamp\n        /* \"contracts/build_bounty/prototype/auto_swap_build.sol\":2663:2684  block.timestamp + 360 */\n      tag_91\n      swap2\n      swap1\n      tag_75\n      jump\t// in\n    tag_91:\n        /* \"contracts/build_bounty/prototype/auto_swap_build.sol\":2507:2694  uniswapRouter.swapExactETHForTokens{value: msg.value}(... */\n      mload(0x40)\n      dup7\n      0xffffffff\n      and\n      0xe0\n      shl\n      dup2\n      mstore\n      0x04\n      add\n      tag_92\n      swap5\n      swap4\n      swap3\n      swap2\n      swap1\n      tag_93\n      jump\t// in\n    tag_92:\n      0x00\n      mload(0x40)\n      dup1\n      dup4\n      sub\n      dup2\n      dup6\n      dup9\n      gas\n      call\n      iszero\n      dup1\n      iszero\n      tag_95\n      jumpi\n      returndatasize\n      0x00\n      dup1\n      returndatacopy\n      revert(0x00, returndatasize)\n    tag_95:\n      pop\n      pop\n      pop\n      pop\n      pop\n      mload(0x40)\n      returndatasize\n      0x00\n      dup3\n      returndatacopy\n      returndatasize\n      not(0x1f)\n      0x1f\n      dup3\n      add\n      and\n      dup3\n      add\n      dup1\n      0x40\n      mstore\n      pop\n      dup2\n      add\n      swap1\n      tag_96\n      swap2\n      swap1\n      tag_81\n      jump\t// in\n    tag_96:\n      pop\n        /* \"contracts/build_bounty/prototype/auto_swap_build.sol\":2286:2701  {... */\n      pop\n        /* \"contracts/build_bounty/prototype/auto_swap_build.sol\":2243:2701  function swapETHForMeme() external payable {... */\n      jump\t// out\n        /* \"contracts/build_bounty/prototype/auto_swap_build.sol\":1529:1616  address public constant UNISWAP_V2_FACTORY = 0x9fBFa493EC98694256D171171487B9D47D849Ba9 */\n    tag_43:\n        /* \"contracts/build_bounty/prototype/auto_swap_build.sol\":1574:1616  0x9fBFa493EC98694256D171171487B9D47D849Ba9 */\n      0x9fbfa493ec98694256d171171487b9d47d849ba9\n        /* \"contracts/build_bounty/prototype/auto_swap_build.sol\":1529:1616  address public constant UNISWAP_V2_FACTORY = 0x9fBFa493EC98694256D171171487B9D47D849Ba9 */\n      dup2\n      jump\t// out\n        /* \"contracts/build_bounty/prototype/auto_swap_build.sol\":1428:1522  address public constant UNISWAP_V2_ROUTER =... */\n    tag_47:\n        /* \"contracts/build_bounty/prototype/auto_swap_build.sol\":1480:1522  0x050E797f3625EC8785265e1d9BDd4799b97528A1 */\n      0x050e797f3625ec8785265e1d9bdd4799b97528a1\n        /* \"contracts/build_bounty/prototype/auto_swap_build.sol\":1428:1522  address public constant UNISWAP_V2_ROUTER =... */\n      dup2\n      jump\t// out\n        /* \"contracts/build_bounty/prototype/auto_swap_build.sol\":1760:1779  address public pair */\n    tag_51:\n      0x01\n      0x00\n      swap1\n      sload\n      swap1\n      0x0100\n      exp\n      swap1\n      div\n      0xffffffffffffffffffffffffffffffffffffffff\n      and\n      dup2\n      jump\t// out\n        /* \"contracts/build_bounty/prototype/auto_swap_build.sol\":3542:4168  function addLiquidityETH(... */\n    tag_55:\n        /* \"contracts/build_bounty/prototype/auto_swap_build.sol\":3653:3654  0 */\n      0x00\n        /* \"contracts/build_bounty/prototype/auto_swap_build.sol\":3640:3649  msg.value */\n      callvalue\n        /* \"contracts/build_bounty/prototype/auto_swap_build.sol\":3640:3654  msg.value <= 0 */\n      gt\n        /* \"contracts/build_bounty/prototype/auto_swap_build.sol\":3636:3676  if (msg.value <= 0) revert MustSendETH() */\n      tag_98\n      jumpi\n        /* \"contracts/build_bounty/prototype/auto_swap_build.sol\":3663:3676  MustSendETH() */\n      mload(0x40)\n      0xd73ab2e100000000000000000000000000000000000000000000000000000000\n      dup2\n      mstore\n      0x04\n      add\n      mload(0x40)\n      dup1\n      swap2\n      sub\n      swap1\n      revert\n        /* \"contracts/build_bounty/prototype/auto_swap_build.sol\":3636:3676  if (msg.value <= 0) revert MustSendETH() */\n    tag_98:\n        /* \"contracts/build_bounty/prototype/auto_swap_build.sol\":3713:3714  0 */\n      0x00\n        /* \"contracts/build_bounty/prototype/auto_swap_build.sol\":3691:3709  amountTokenDesired */\n      dup2\n        /* \"contracts/build_bounty/prototype/auto_swap_build.sol\":3691:3714  amountTokenDesired <= 0 */\n      gt\n        /* \"contracts/build_bounty/prototype/auto_swap_build.sol\":3687:3747  if (amountTokenDesired <= 0) revert MustSpecifyTokenAmount() */\n      tag_99\n      jumpi\n        /* \"contracts/build_bounty/prototype/auto_swap_build.sol\":3723:3747  MustSpecifyTokenAmount() */\n      mload(0x40)\n      0xd8767d00000000000000000000000000000000000000000000000000000000\n      dup2\n      mstore\n      0x04\n      add\n      mload(0x40)\n      dup1\n      swap2\n      sub\n      swap1\n      revert\n        /* \"contracts/build_bounty/prototype/auto_swap_build.sol\":3687:3747  if (amountTokenDesired <= 0) revert MustSpecifyTokenAmount() */\n    tag_99:\n        /* \"contracts/build_bounty/prototype/auto_swap_build.sol\":3824:3833  memeToken */\n      0x00\n      dup1\n      sload\n      swap1\n      0x0100\n      exp\n      swap1\n      div\n      0xffffffffffffffffffffffffffffffffffffffff\n      and\n        /* \"contracts/build_bounty/prototype/auto_swap_build.sol\":3817:3847  IERC20(memeToken).transferFrom */\n      0xffffffffffffffffffffffffffffffffffffffff\n      and\n      0x23b872dd\n        /* \"contracts/build_bounty/prototype/auto_swap_build.sol\":3848:3858  msg.sender */\n      caller\n        /* \"contracts/build_bounty/prototype/auto_swap_build.sol\":3868:3872  this */\n      address\n        /* \"contracts/build_bounty/prototype/auto_swap_build.sol\":3875:3893  amountTokenDesired */\n      dup5\n        /* \"contracts/build_bounty/prototype/auto_swap_build.sol\":3817:3894  IERC20(memeToken).transferFrom(msg.sender, address(this), amountTokenDesired) */\n      mload(0x40)\n      dup5\n      0xffffffff\n      and\n      0xe0\n      shl\n      dup2\n      mstore\n      0x04\n      add\n      tag_100\n      swap4\n      swap3\n      swap2\n      swap1\n      tag_69\n      jump\t// in\n    tag_100:\n      0x20\n      mload(0x40)\n      dup1\n      dup4\n      sub\n      dup2\n      0x00\n      dup8\n      gas\n      call\n      iszero\n      dup1\n      iszero\n      tag_102\n      jumpi\n      returndatasize\n      0x00\n      dup1\n      returndatacopy\n      revert(0x00, returndatasize)\n    tag_102:\n      pop\n      pop\n      pop\n      pop\n      mload(0x40)\n      returndatasize\n      not(0x1f)\n      0x1f\n      dup3\n      add\n      and\n      dup3\n      add\n      dup1\n      0x40\n      mstore\n      pop\n      dup2\n      add\n      swap1\n      tag_103\n      swap2\n      swap1\n      tag_73\n      jump\t// in\n    tag_103:\n      pop\n        /* \"contracts/build_bounty/prototype/auto_swap_build.sol\":3930:3943  uniswapRouter */\n      0x03\n      0x00\n      swap1\n      sload\n      swap1\n      0x0100\n      exp\n      swap1\n      div\n      0xffffffffffffffffffffffffffffffffffffffff\n      and\n        /* \"contracts/build_bounty/prototype/auto_swap_build.sol\":3930:3959  uniswapRouter.addLiquidityETH */\n      0xffffffffffffffffffffffffffffffffffffffff\n      and\n      0xf305d719\n        /* \"contracts/build_bounty/prototype/auto_swap_build.sol\":3967:3976  msg.value */\n      callvalue\n        /* \"contracts/build_bounty/prototype/auto_swap_build.sol\":3991:4000  memeToken */\n      0x00\n      dup1\n      sload\n      swap1\n      0x0100\n      exp\n      swap1\n      div\n      0xffffffffffffffffffffffffffffffffffffffff\n      and\n        /* \"contracts/build_bounty/prototype/auto_swap_build.sol\":4014:4032  amountTokenDesired */\n      dup5\n        /* \"contracts/build_bounty/prototype/auto_swap_build.sol\":4046:4047  0 */\n      0x00\n        /* \"contracts/build_bounty/prototype/auto_swap_build.sol\":4061:4062  0 */\n      dup1\n        /* \"contracts/build_bounty/prototype/auto_swap_build.sol\":4076:4086  msg.sender */\n      caller\n        /* \"contracts/build_bounty/prototype/auto_swap_build.sol\":4148:4151  360 */\n      0x0168\n        /* \"contracts/build_bounty/prototype/auto_swap_build.sol\":4130:4145  block.timestamp */\n      timestamp\n        /* \"contracts/build_bounty/prototype/auto_swap_build.sol\":4130:4151  block.timestamp + 360 */\n      tag_104\n      swap2\n      swap1\n      tag_75\n      jump\t// in\n    tag_104:\n        /* \"contracts/build_bounty/prototype/auto_swap_build.sol\":3930:4161  uniswapRouter.addLiquidityETH{value: msg.value}(... */\n      mload(0x40)\n      dup9\n      0xffffffff\n      and\n      0xe0\n      shl\n      dup2\n      mstore\n      0x04\n      add\n      tag_105\n      swap7\n      swap6\n      swap5\n      swap4\n      swap3\n      swap2\n      swap1\n      tag_106\n      jump\t// in\n    tag_105:\n      0x60\n      mload(0x40)\n      dup1\n      dup4\n      sub\n      dup2\n      dup6\n      dup9\n      gas\n      call\n      iszero\n      dup1\n      iszero\n      tag_108\n      jumpi\n      returndatasize\n      0x00\n      dup1\n      returndatacopy\n      revert(0x00, returndatasize)\n    tag_108:\n      pop\n      pop\n      pop\n      pop\n      pop\n      mload(0x40)\n      returndatasize\n      not(0x1f)\n      0x1f\n      dup3\n      add\n      and\n      dup3\n      add\n      dup1\n      0x40\n      mstore\n      pop\n      dup2\n      add\n      swap1\n      tag_109\n      swap2\n      swap1\n      tag_110\n      jump\t// in\n    tag_109:\n      pop\n      pop\n      pop\n        /* \"contracts/build_bounty/prototype/auto_swap_build.sol\":3542:4168  function addLiquidityETH(... */\n      pop\n      jump\t// out\n        /* \"#utility.yul\":7:133   */\n    tag_111:\n        /* \"#utility.yul\":44:51   */\n      0x00\n        /* \"#utility.yul\":84:126   */\n      0xffffffffffffffffffffffffffffffffffffffff\n        /* \"#utility.yul\":77:82   */\n      dup3\n        /* \"#utility.yul\":73:127   */\n      and\n        /* \"#utility.yul\":62:127   */\n      swap1\n      pop\n        /* \"#utility.yul\":7:133   */\n      swap2\n      swap1\n      pop\n      jump\t// out\n        /* \"#utility.yul\":139:235   */\n    tag_112:\n        /* \"#utility.yul\":176:183   */\n      0x00\n        /* \"#utility.yul\":205:229   */\n      tag_152\n        /* \"#utility.yul\":223:228   */\n      dup3\n        /* \"#utility.yul\":205:229   */\n      tag_111\n      jump\t// in\n    tag_152:\n        /* \"#utility.yul\":194:229   */\n      swap1\n      pop\n        /* \"#utility.yul\":139:235   */\n      swap2\n      swap1\n      pop\n      jump\t// out\n        /* \"#utility.yul\":241:359   */\n    tag_113:\n        /* \"#utility.yul\":328:352   */\n      tag_154\n        /* \"#utility.yul\":346:351   */\n      dup2\n        /* \"#utility.yul\":328:352   */\n      tag_112\n      jump\t// in\n    tag_154:\n        /* \"#utility.yul\":323:326   */\n      dup3\n        /* \"#utility.yul\":316:353   */\n      mstore\n        /* \"#utility.yul\":241:359   */\n      pop\n      pop\n      jump\t// out\n        /* \"#utility.yul\":365:587   */\n    tag_20:\n        /* \"#utility.yul\":458:462   */\n      0x00\n        /* \"#utility.yul\":496:498   */\n      0x20\n        /* \"#utility.yul\":485:494   */\n      dup3\n        /* \"#utility.yul\":481:499   */\n      add\n        /* \"#utility.yul\":473:499   */\n      swap1\n      pop\n        /* \"#utility.yul\":509:580   */\n      tag_156\n        /* \"#utility.yul\":577:578   */\n      0x00\n        /* \"#utility.yul\":566:575   */\n      dup4\n        /* \"#utility.yul\":562:579   */\n      add\n        /* \"#utility.yul\":553:559   */\n      dup5\n        /* \"#utility.yul\":509:580   */\n      tag_113\n      jump\t// in\n    tag_156:\n        /* \"#utility.yul\":365:587   */\n      swap3\n      swap2\n      pop\n      pop\n      jump\t// out\n        /* \"#utility.yul\":593:668   */\n    tag_114:\n        /* \"#utility.yul\":626:632   */\n      0x00\n        /* \"#utility.yul\":659:661   */\n      0x40\n        /* \"#utility.yul\":653:662   */\n      mload\n        /* \"#utility.yul\":643:662   */\n      swap1\n      pop\n        /* \"#utility.yul\":593:668   */\n      swap1\n      jump\t// out\n        /* \"#utility.yul\":674:791   */\n    tag_115:\n        /* \"#utility.yul\":783:784   */\n      0x00\n        /* \"#utility.yul\":780:781   */\n      dup1\n        /* \"#utility.yul\":773:785   */\n      revert\n        /* \"#utility.yul\":797:914   */\n    tag_116:\n        /* \"#utility.yul\":906:907   */\n      0x00\n        /* \"#utility.yul\":903:904   */\n      dup1\n        /* \"#utility.yul\":896:908   */\n      revert\n        /* \"#utility.yul\":920:997   */\n    tag_117:\n        /* \"#utility.yul\":957:964   */\n      0x00\n        /* \"#utility.yul\":986:991   */\n      dup2\n        /* \"#utility.yul\":975:991   */\n      swap1\n      pop\n        /* \"#utility.yul\":920:997   */\n      swap2\n      swap1\n      pop\n      jump\t// out\n        /* \"#utility.yul\":1003:1125   */\n    tag_118:\n        /* \"#utility.yul\":1076:1100   */\n      tag_162\n        /* \"#utility.yul\":1094:1099   */\n      dup2\n        /* \"#utility.yul\":1076:1100   */\n      tag_117\n      jump\t// in\n    tag_162:\n        /* \"#utility.yul\":1069:1074   */\n      dup2\n        /* \"#utility.yul\":1066:1101   */\n      eq\n        /* \"#utility.yul\":1056:1119   */\n      tag_163\n      jumpi\n        /* \"#utility.yul\":1115:1116   */\n      0x00\n        /* \"#utility.yul\":1112:1113   */\n      dup1\n        /* \"#utility.yul\":1105:1117   */\n      revert\n        /* \"#utility.yul\":1056:1119   */\n    tag_163:\n        /* \"#utility.yul\":1003:1125   */\n      pop\n      jump\t// out\n        /* \"#utility.yul\":1131:1270   */\n    tag_119:\n        /* \"#utility.yul\":1177:1182   */\n      0x00\n        /* \"#utility.yul\":1215:1221   */\n      dup2\n        /* \"#utility.yul\":1202:1222   */\n      calldataload\n        /* \"#utility.yul\":1193:1222   */\n      swap1\n      pop\n        /* \"#utility.yul\":1231:1264   */\n      tag_165\n        /* \"#utility.yul\":1258:1263   */\n      dup2\n        /* \"#utility.yul\":1231:1264   */\n      tag_118\n      jump\t// in\n    tag_165:\n        /* \"#utility.yul\":1131:1270   */\n      swap3\n      swap2\n      pop\n      pop\n      jump\t// out\n        /* \"#utility.yul\":1276:1605   */\n    tag_28:\n        /* \"#utility.yul\":1335:1341   */\n      0x00\n        /* \"#utility.yul\":1384:1386   */\n      0x20\n        /* \"#utility.yul\":1372:1381   */\n      dup3\n        /* \"#utility.yul\":1363:1370   */\n      dup5\n        /* \"#utility.yul\":1359:1382   */\n      sub\n        /* \"#utility.yul\":1355:1387   */\n      slt\n        /* \"#utility.yul\":1352:1471   */\n      iszero\n      tag_167\n      jumpi\n        /* \"#utility.yul\":1390:1469   */\n      tag_168\n      tag_115\n      jump\t// in\n    tag_168:\n        /* \"#utility.yul\":1352:1471   */\n    tag_167:\n        /* \"#utility.yul\":1510:1511   */\n      0x00\n        /* \"#utility.yul\":1535:1588   */\n      tag_169\n        /* \"#utility.yul\":1580:1587   */\n      dup5\n        /* \"#utility.yul\":1571:1577   */\n      dup3\n        /* \"#utility.yul\":1560:1569   */\n      dup6\n        /* \"#utility.yul\":1556:1578   */\n      add\n        /* \"#utility.yul\":1535:1588   */\n      tag_119\n      jump\t// in\n    tag_169:\n        /* \"#utility.yul\":1525:1588   */\n      swap2\n      pop\n        /* \"#utility.yul\":1481:1598   */\n      pop\n        /* \"#utility.yul\":1276:1605   */\n      swap3\n      swap2\n      pop\n      pop\n      jump\t// out\n        /* \"#utility.yul\":1611:1671   */\n    tag_120:\n        /* \"#utility.yul\":1639:1642   */\n      0x00\n        /* \"#utility.yul\":1660:1665   */\n      dup2\n        /* \"#utility.yul\":1653:1665   */\n      swap1\n      pop\n        /* \"#utility.yul\":1611:1671   */\n      swap2\n      swap1\n      pop\n      jump\t// out\n        /* \"#utility.yul\":1677:1819   */\n    tag_121:\n        /* \"#utility.yul\":1727:1736   */\n      0x00\n        /* \"#utility.yul\":1760:1813   */\n      tag_172\n        /* \"#utility.yul\":1778:1812   */\n      tag_173\n        /* \"#utility.yul\":1787:1811   */\n      tag_174\n        /* \"#utility.yul\":1805:1810   */\n      dup5\n        /* \"#utility.yul\":1787:1811   */\n      tag_111\n      jump\t// in\n    tag_174:\n        /* \"#utility.yul\":1778:1812   */\n      tag_120\n      jump\t// in\n    tag_173:\n        /* \"#utility.yul\":1760:1813   */\n      tag_111\n      jump\t// in\n    tag_172:\n        /* \"#utility.yul\":1747:1813   */\n      swap1\n      pop\n        /* \"#utility.yul\":1677:1819   */\n      swap2\n      swap1\n      pop\n      jump\t// out\n        /* \"#utility.yul\":1825:1951   */\n    tag_122:\n        /* \"#utility.yul\":1875:1884   */\n      0x00\n        /* \"#utility.yul\":1908:1945   */\n      tag_176\n        /* \"#utility.yul\":1939:1944   */\n      dup3\n        /* \"#utility.yul\":1908:1945   */\n      tag_121\n      jump\t// in\n    tag_176:\n        /* \"#utility.yul\":1895:1945   */\n      swap1\n      pop\n        /* \"#utility.yul\":1825:1951   */\n      swap2\n      swap1\n      pop\n      jump\t// out\n        /* \"#utility.yul\":1957:2108   */\n    tag_123:\n        /* \"#utility.yul\":2032:2041   */\n      0x00\n        /* \"#utility.yul\":2065:2102   */\n      tag_178\n        /* \"#utility.yul\":2096:2101   */\n      dup3\n        /* \"#utility.yul\":2065:2102   */\n      tag_122\n      jump\t// in\n    tag_178:\n        /* \"#utility.yul\":2052:2102   */\n      swap1\n      pop\n        /* \"#utility.yul\":1957:2108   */\n      swap2\n      swap1\n      pop\n      jump\t// out\n        /* \"#utility.yul\":2114:2295   */\n    tag_124:\n        /* \"#utility.yul\":2226:2288   */\n      tag_180\n        /* \"#utility.yul\":2282:2287   */\n      dup2\n        /* \"#utility.yul\":2226:2288   */\n      tag_123\n      jump\t// in\n    tag_180:\n        /* \"#utility.yul\":2221:2224   */\n      dup3\n        /* \"#utility.yul\":2214:2289   */\n      mstore\n        /* \"#utility.yul\":2114:2295   */\n      pop\n      pop\n      jump\t// out\n        /* \"#utility.yul\":2301:2573   */\n    tag_34:\n        /* \"#utility.yul\":2419:2423   */\n      0x00\n        /* \"#utility.yul\":2457:2459   */\n      0x20\n        /* \"#utility.yul\":2446:2455   */\n      dup3\n        /* \"#utility.yul\":2442:2460   */\n      add\n        /* \"#utility.yul\":2434:2460   */\n      swap1\n      pop\n        /* \"#utility.yul\":2470:2566   */\n      tag_182\n        /* \"#utility.yul\":2563:2564   */\n      0x00\n        /* \"#utility.yul\":2552:2561   */\n      dup4\n        /* \"#utility.yul\":2548:2565   */\n      add\n        /* \"#utility.yul\":2539:2545   */\n      dup5\n        /* \"#utility.yul\":2470:2566   */\n      tag_124\n      jump\t// in\n    tag_182:\n        /* \"#utility.yul\":2301:2573   */\n      swap3\n      swap2\n      pop\n      pop\n      jump\t// out\n        /* \"#utility.yul\":2579:2759   */\n    tag_61:\n        /* \"#utility.yul\":2627:2704   */\n      0x4e487b7100000000000000000000000000000000000000000000000000000000\n        /* \"#utility.yul\":2624:2625   */\n      0x00\n        /* \"#utility.yul\":2617:2705   */\n      mstore\n        /* \"#utility.yul\":2724:2728   */\n      0x41\n        /* \"#utility.yul\":2721:2722   */\n      0x04\n        /* \"#utility.yul\":2714:2729   */\n      mstore\n        /* \"#utility.yul\":2748:2752   */\n      0x24\n        /* \"#utility.yul\":2745:2746   */\n      0x00\n        /* \"#utility.yul\":2738:2753   */\n      revert\n        /* \"#utility.yul\":2765:2945   */\n    tag_65:\n        /* \"#utility.yul\":2813:2890   */\n      0x4e487b7100000000000000000000000000000000000000000000000000000000\n        /* \"#utility.yul\":2810:2811   */\n      0x00\n        /* \"#utility.yul\":2803:2891   */\n      mstore\n        /* \"#utility.yul\":2910:2914   */\n      0x32\n        /* \"#utility.yul\":2907:2908   */\n      0x04\n        /* \"#utility.yul\":2900:2915   */\n      mstore\n        /* \"#utility.yul\":2934:2938   */\n      0x24\n        /* \"#utility.yul\":2931:2932   */\n      0x00\n        /* \"#utility.yul\":2924:2939   */\n      revert\n        /* \"#utility.yul\":2951:3069   */\n    tag_125:\n        /* \"#utility.yul\":3038:3062   */\n      tag_186\n        /* \"#utility.yul\":3056:3061   */\n      dup2\n        /* \"#utility.yul\":3038:3062   */\n      tag_117\n      jump\t// in\n    tag_186:\n        /* \"#utility.yul\":3033:3036   */\n      dup3\n        /* \"#utility.yul\":3026:3063   */\n      mstore\n        /* \"#utility.yul\":2951:3069   */\n      pop\n      pop\n      jump\t// out\n        /* \"#utility.yul\":3075:3517   */\n    tag_69:\n        /* \"#utility.yul\":3224:3228   */\n      0x00\n        /* \"#utility.yul\":3262:3264   */\n      0x60\n        /* \"#utility.yul\":3251:3260   */\n      dup3\n        /* \"#utility.yul\":3247:3265   */\n      add\n        /* \"#utility.yul\":3239:3265   */\n      swap1\n      pop\n        /* \"#utility.yul\":3275:3346   */\n      tag_188\n        /* \"#utility.yul\":3343:3344   */\n      0x00\n        /* \"#utility.yul\":3332:3341   */\n      dup4\n        /* \"#utility.yul\":3328:3345   */\n      add\n        /* \"#utility.yul\":3319:3325   */\n      dup7\n        /* \"#utility.yul\":3275:3346   */\n      tag_113\n      jump\t// in\n    tag_188:\n        /* \"#utility.yul\":3356:3428   */\n      tag_189\n        /* \"#utility.yul\":3424:3426   */\n      0x20\n        /* \"#utility.yul\":3413:3422   */\n      dup4\n        /* \"#utility.yul\":3409:3427   */\n      add\n        /* \"#utility.yul\":3400:3406   */\n      dup6\n        /* \"#utility.yul\":3356:3428   */\n      tag_113\n      jump\t// in\n    tag_189:\n        /* \"#utility.yul\":3438:3510   */\n      tag_190\n        /* \"#utility.yul\":3506:3508   */\n      0x40\n        /* \"#utility.yul\":3495:3504   */\n      dup4\n        /* \"#utility.yul\":3491:3509   */\n      add\n        /* \"#utility.yul\":3482:3488   */\n      dup5\n        /* \"#utility.yul\":3438:3510   */\n      tag_125\n      jump\t// in\n    tag_190:\n        /* \"#utility.yul\":3075:3517   */\n      swap5\n      swap4\n      pop\n      pop\n      pop\n      pop\n      jump\t// out\n        /* \"#utility.yul\":3523:3613   */\n    tag_126:\n        /* \"#utility.yul\":3557:3564   */\n      0x00\n        /* \"#utility.yul\":3600:3605   */\n      dup2\n        /* \"#utility.yul\":3593:3606   */\n      iszero\n        /* \"#utility.yul\":3586:3607   */\n      iszero\n        /* \"#utility.yul\":3575:3607   */\n      swap1\n      pop\n        /* \"#utility.yul\":3523:3613   */\n      swap2\n      swap1\n      pop\n      jump\t// out\n        /* \"#utility.yul\":3619:3735   */\n    tag_127:\n        /* \"#utility.yul\":3689:3710   */\n      tag_193\n        /* \"#utility.yul\":3704:3709   */\n      dup2\n        /* \"#utility.yul\":3689:3710   */\n      tag_126\n      jump\t// in\n    tag_193:\n        /* \"#utility.yul\":3682:3687   */\n      dup2\n        /* \"#utility.yul\":3679:3711   */\n      eq\n        /* \"#utility.yul\":3669:3729   */\n      tag_194\n      jumpi\n        /* \"#utility.yul\":3725:3726   */\n      0x00\n        /* \"#utility.yul\":3722:3723   */\n      dup1\n        /* \"#utility.yul\":3715:3727   */\n      revert\n        /* \"#utility.yul\":3669:3729   */\n    tag_194:\n        /* \"#utility.yul\":3619:3735   */\n      pop\n      jump\t// out\n        /* \"#utility.yul\":3741:3878   */\n    tag_128:\n        /* \"#utility.yul\":3795:3800   */\n      0x00\n        /* \"#utility.yul\":3826:3832   */\n      dup2\n        /* \"#utility.yul\":3820:3833   */\n      mload\n        /* \"#utility.yul\":3811:3833   */\n      swap1\n      pop\n        /* \"#utility.yul\":3842:3872   */\n      tag_196\n        /* \"#utility.yul\":3866:3871   */\n      dup2\n        /* \"#utility.yul\":3842:3872   */\n      tag_127\n      jump\t// in\n    tag_196:\n        /* \"#utility.yul\":3741:3878   */\n      swap3\n      swap2\n      pop\n      pop\n      jump\t// out\n        /* \"#utility.yul\":3884:4229   */\n    tag_73:\n        /* \"#utility.yul\":3951:3957   */\n      0x00\n        /* \"#utility.yul\":4000:4002   */\n      0x20\n        /* \"#utility.yul\":3988:3997   */\n      dup3\n        /* \"#utility.yul\":3979:3986   */\n      dup5\n        /* \"#utility.yul\":3975:3998   */\n      sub\n        /* \"#utility.yul\":3971:4003   */\n      slt\n        /* \"#utility.yul\":3968:4087   */\n      iszero\n      tag_198\n      jumpi\n        /* \"#utility.yul\":4006:4085   */\n      tag_199\n      tag_115\n      jump\t// in\n    tag_199:\n        /* \"#utility.yul\":3968:4087   */\n    tag_198:\n        /* \"#utility.yul\":4126:4127   */\n      0x00\n        /* \"#utility.yul\":4151:4212   */\n      tag_200\n        /* \"#utility.yul\":4204:4211   */\n      dup5\n        /* \"#utility.yul\":4195:4201   */\n      dup3\n        /* \"#utility.yul\":4184:4193   */\n      dup6\n        /* \"#utility.yul\":4180:4202   */\n      add\n        /* \"#utility.yul\":4151:4212   */\n      tag_128\n      jump\t// in\n    tag_200:\n        /* \"#utility.yul\":4141:4212   */\n      swap2\n      pop\n        /* \"#utility.yul\":4097:4222   */\n      pop\n        /* \"#utility.yul\":3884:4229   */\n      swap3\n      swap2\n      pop\n      pop\n      jump\t// out\n        /* \"#utility.yul\":4235:4415   */\n    tag_129:\n        /* \"#utility.yul\":4283:4360   */\n      0x4e487b7100000000000000000000000000000000000000000000000000000000\n        /* \"#utility.yul\":4280:4281   */\n      0x00\n        /* \"#utility.yul\":4273:4361   */\n      mstore\n        /* \"#utility.yul\":4380:4384   */\n      0x11\n        /* \"#utility.yul\":4377:4378   */\n      0x04\n        /* \"#utility.yul\":4370:4385   */\n      mstore\n        /* \"#utility.yul\":4404:4408   */\n      0x24\n        /* \"#utility.yul\":4401:4402   */\n      0x00\n        /* \"#utility.yul\":4394:4409   */\n      revert\n        /* \"#utility.yul\":4421:4612   */\n    tag_75:\n        /* \"#utility.yul\":4461:4464   */\n      0x00\n        /* \"#utility.yul\":4480:4500   */\n      tag_203\n        /* \"#utility.yul\":4498:4499   */\n      dup3\n        /* \"#utility.yul\":4480:4500   */\n      tag_117\n      jump\t// in\n    tag_203:\n        /* \"#utility.yul\":4475:4500   */\n      swap2\n      pop\n        /* \"#utility.yul\":4514:4534   */\n      tag_204\n        /* \"#utility.yul\":4532:4533   */\n      dup4\n        /* \"#utility.yul\":4514:4534   */\n      tag_117\n      jump\t// in\n    tag_204:\n        /* \"#utility.yul\":4509:4534   */\n      swap3\n      pop\n        /* \"#utility.yul\":4557:4558   */\n      dup3\n        /* \"#utility.yul\":4554:4555   */\n      dup3\n        /* \"#utility.yul\":4550:4559   */\n      add\n        /* \"#utility.yul\":4543:4559   */\n      swap1\n      pop\n        /* \"#utility.yul\":4578:4581   */\n      dup1\n        /* \"#utility.yul\":4575:4576   */\n      dup3\n        /* \"#utility.yul\":4572:4582   */\n      gt\n        /* \"#utility.yul\":4569:4605   */\n      iszero\n      tag_205\n      jumpi\n        /* \"#utility.yul\":4585:4603   */\n      tag_206\n      tag_129\n      jump\t// in\n    tag_206:\n        /* \"#utility.yul\":4569:4605   */\n    tag_205:\n        /* \"#utility.yul\":4421:4612   */\n      swap3\n      swap2\n      pop\n      pop\n      jump\t// out\n        /* \"#utility.yul\":4618:4703   */\n    tag_130:\n        /* \"#utility.yul\":4663:4670   */\n      0x00\n        /* \"#utility.yul\":4692:4697   */\n      dup2\n        /* \"#utility.yul\":4681:4697   */\n      swap1\n      pop\n        /* \"#utility.yul\":4618:4703   */\n      swap2\n      swap1\n      pop\n      jump\t// out\n        /* \"#utility.yul\":4709:4867   */\n    tag_131:\n        /* \"#utility.yul\":4767:4776   */\n      0x00\n        /* \"#utility.yul\":4800:4861   */\n      tag_209\n        /* \"#utility.yul\":4818:4860   */\n      tag_210\n        /* \"#utility.yul\":4827:4859   */\n      tag_211\n        /* \"#utility.yul\":4853:4858   */\n      dup5\n        /* \"#utility.yul\":4827:4859   */\n      tag_130\n      jump\t// in\n    tag_211:\n        /* \"#utility.yul\":4818:4860   */\n      tag_120\n      jump\t// in\n    tag_210:\n        /* \"#utility.yul\":4800:4861   */\n      tag_117\n      jump\t// in\n    tag_209:\n        /* \"#utility.yul\":4787:4861   */\n      swap1\n      pop\n        /* \"#utility.yul\":4709:4867   */\n      swap2\n      swap1\n      pop\n      jump\t// out\n        /* \"#utility.yul\":4873:5020   */\n    tag_132:\n        /* \"#utility.yul\":4968:5013   */\n      tag_213\n        /* \"#utility.yul\":5007:5012   */\n      dup2\n        /* \"#utility.yul\":4968:5013   */\n      tag_131\n      jump\t// in\n    tag_213:\n        /* \"#utility.yul\":4963:4966   */\n      dup3\n        /* \"#utility.yul\":4956:5014   */\n      mstore\n        /* \"#utility.yul\":4873:5020   */\n      pop\n      pop\n      jump\t// out\n        /* \"#utility.yul\":5026:5140   */\n    tag_133:\n        /* \"#utility.yul\":5093:5099   */\n      0x00\n        /* \"#utility.yul\":5127:5132   */\n      dup2\n        /* \"#utility.yul\":5121:5133   */\n      mload\n        /* \"#utility.yul\":5111:5133   */\n      swap1\n      pop\n        /* \"#utility.yul\":5026:5140   */\n      swap2\n      swap1\n      pop\n      jump\t// out\n        /* \"#utility.yul\":5146:5330   */\n    tag_134:\n        /* \"#utility.yul\":5245:5256   */\n      0x00\n        /* \"#utility.yul\":5279:5285   */\n      dup3\n        /* \"#utility.yul\":5274:5277   */\n      dup3\n        /* \"#utility.yul\":5267:5286   */\n      mstore\n        /* \"#utility.yul\":5319:5323   */\n      0x20\n        /* \"#utility.yul\":5314:5317   */\n      dup3\n        /* \"#utility.yul\":5310:5324   */\n      add\n        /* \"#utility.yul\":5295:5324   */\n      swap1\n      pop\n        /* \"#utility.yul\":5146:5330   */\n      swap3\n      swap2\n      pop\n      pop\n      jump\t// out\n        /* \"#utility.yul\":5336:5468   */\n    tag_135:\n        /* \"#utility.yul\":5403:5407   */\n      0x00\n        /* \"#utility.yul\":5426:5429   */\n      dup2\n        /* \"#utility.yul\":5418:5429   */\n      swap1\n      pop\n        /* \"#utility.yul\":5456:5460   */\n      0x20\n        /* \"#utility.yul\":5451:5454   */\n      dup3\n        /* \"#utility.yul\":5447:5461   */\n      add\n        /* \"#utility.yul\":5439:5461   */\n      swap1\n      pop\n        /* \"#utility.yul\":5336:5468   */\n      swap2\n      swap1\n      pop\n      jump\t// out\n        /* \"#utility.yul\":5474:5582   */\n    tag_136:\n        /* \"#utility.yul\":5551:5575   */\n      tag_218\n        /* \"#utility.yul\":5569:5574   */\n      dup2\n        /* \"#utility.yul\":5551:5575   */\n      tag_112\n      jump\t// in\n    tag_218:\n        /* \"#utility.yul\":5546:5549   */\n      dup3\n        /* \"#utility.yul\":5539:5576   */\n      mstore\n        /* \"#utility.yul\":5474:5582   */\n      pop\n      pop\n      jump\t// out\n        /* \"#utility.yul\":5588:5767   */\n    tag_137:\n        /* \"#utility.yul\":5657:5667   */\n      0x00\n        /* \"#utility.yul\":5678:5724   */\n      tag_220\n        /* \"#utility.yul\":5720:5723   */\n      dup4\n        /* \"#utility.yul\":5712:5718   */\n      dup4\n        /* \"#utility.yul\":5678:5724   */\n      tag_136\n      jump\t// in\n    tag_220:\n        /* \"#utility.yul\":5756:5760   */\n      0x20\n        /* \"#utility.yul\":5751:5754   */\n      dup4\n        /* \"#utility.yul\":5747:5761   */\n      add\n        /* \"#utility.yul\":5733:5761   */\n      swap1\n      pop\n        /* \"#utility.yul\":5588:5767   */\n      swap3\n      swap2\n      pop\n      pop\n      jump\t// out\n        /* \"#utility.yul\":5773:5886   */\n    tag_138:\n        /* \"#utility.yul\":5843:5847   */\n      0x00\n        /* \"#utility.yul\":5875:5879   */\n      0x20\n        /* \"#utility.yul\":5870:5873   */\n      dup3\n        /* \"#utility.yul\":5866:5880   */\n      add\n        /* \"#utility.yul\":5858:5880   */\n      swap1\n      pop\n        /* \"#utility.yul\":5773:5886   */\n      swap2\n      swap1\n      pop\n      jump\t// out\n        /* \"#utility.yul\":5922:6654   */\n    tag_139:\n        /* \"#utility.yul\":6041:6044   */\n      0x00\n        /* \"#utility.yul\":6070:6124   */\n      tag_223\n        /* \"#utility.yul\":6118:6123   */\n      dup3\n        /* \"#utility.yul\":6070:6124   */\n      tag_133\n      jump\t// in\n    tag_223:\n        /* \"#utility.yul\":6140:6226   */\n      tag_224\n        /* \"#utility.yul\":6219:6225   */\n      dup2\n        /* \"#utility.yul\":6214:6217   */\n      dup6\n        /* \"#utility.yul\":6140:6226   */\n      tag_134\n      jump\t// in\n    tag_224:\n        /* \"#utility.yul\":6133:6226   */\n      swap4\n      pop\n        /* \"#utility.yul\":6250:6306   */\n      tag_225\n        /* \"#utility.yul\":6300:6305   */\n      dup4\n        /* \"#utility.yul\":6250:6306   */\n      tag_135\n      jump\t// in\n    tag_225:\n        /* \"#utility.yul\":6329:6336   */\n      dup1\n        /* \"#utility.yul\":6360:6361   */\n      0x00\n        /* \"#utility.yul\":6345:6629   */\n    tag_226:\n        /* \"#utility.yul\":6370:6376   */\n      dup4\n        /* \"#utility.yul\":6367:6368   */\n      dup2\n        /* \"#utility.yul\":6364:6377   */\n      lt\n        /* \"#utility.yul\":6345:6629   */\n      iszero\n      tag_228\n      jumpi\n        /* \"#utility.yul\":6446:6452   */\n      dup2\n        /* \"#utility.yul\":6440:6453   */\n      mload\n        /* \"#utility.yul\":6473:6536   */\n      tag_229\n        /* \"#utility.yul\":6532:6535   */\n      dup9\n        /* \"#utility.yul\":6517:6530   */\n      dup3\n        /* \"#utility.yul\":6473:6536   */\n      tag_137\n      jump\t// in\n    tag_229:\n        /* \"#utility.yul\":6466:6536   */\n      swap8\n      pop\n        /* \"#utility.yul\":6559:6619   */\n      tag_230\n        /* \"#utility.yul\":6612:6618   */\n      dup4\n        /* \"#utility.yul\":6559:6619   */\n      tag_138\n      jump\t// in\n    tag_230:\n        /* \"#utility.yul\":6549:6619   */\n      swap3\n      pop\n        /* \"#utility.yul\":6405:6629   */\n      pop\n        /* \"#utility.yul\":6392:6393   */\n      0x01\n        /* \"#utility.yul\":6389:6390   */\n      dup2\n        /* \"#utility.yul\":6385:6394   */\n      add\n        /* \"#utility.yul\":6380:6394   */\n      swap1\n      pop\n        /* \"#utility.yul\":6345:6629   */\n      jump(tag_226)\n    tag_228:\n        /* \"#utility.yul\":6349:6363   */\n      pop\n        /* \"#utility.yul\":6645:6648   */\n      dup6\n        /* \"#utility.yul\":6638:6648   */\n      swap4\n      pop\n        /* \"#utility.yul\":6046:6654   */\n      pop\n      pop\n      pop\n        /* \"#utility.yul\":5922:6654   */\n      swap3\n      swap2\n      pop\n      pop\n      jump\t// out\n        /* \"#utility.yul\":6660:7491   */\n    tag_77:\n        /* \"#utility.yul\":6923:6927   */\n      0x00\n        /* \"#utility.yul\":6961:6964   */\n      0xa0\n        /* \"#utility.yul\":6950:6959   */\n      dup3\n        /* \"#utility.yul\":6946:6965   */\n      add\n        /* \"#utility.yul\":6938:6965   */\n      swap1\n      pop\n        /* \"#utility.yul\":6975:7046   */\n      tag_232\n        /* \"#utility.yul\":7043:7044   */\n      0x00\n        /* \"#utility.yul\":7032:7041   */\n      dup4\n        /* \"#utility.yul\":7028:7045   */\n      add\n        /* \"#utility.yul\":7019:7025   */\n      dup9\n        /* \"#utility.yul\":6975:7046   */\n      tag_125\n      jump\t// in\n    tag_232:\n        /* \"#utility.yul\":7056:7136   */\n      tag_233\n        /* \"#utility.yul\":7132:7134   */\n      0x20\n        /* \"#utility.yul\":7121:7130   */\n      dup4\n        /* \"#utility.yul\":7117:7135   */\n      add\n        /* \"#utility.yul\":7108:7114   */\n      dup8\n        /* \"#utility.yul\":7056:7136   */\n      tag_132\n      jump\t// in\n    tag_233:\n        /* \"#utility.yul\":7183:7192   */\n      dup2\n        /* \"#utility.yul\":7177:7181   */\n      dup2\n        /* \"#utility.yul\":7173:7193   */\n      sub\n        /* \"#utility.yul\":7168:7170   */\n      0x40\n        /* \"#utility.yul\":7157:7166   */\n      dup4\n        /* \"#utility.yul\":7153:7171   */\n      add\n        /* \"#utility.yul\":7146:7194   */\n      mstore\n        /* \"#utility.yul\":7211:7319   */\n      tag_234\n        /* \"#utility.yul\":7314:7318   */\n      dup2\n        /* \"#utility.yul\":7305:7311   */\n      dup7\n        /* \"#utility.yul\":7211:7319   */\n      tag_139\n      jump\t// in\n    tag_234:\n        /* \"#utility.yul\":7203:7319   */\n      swap1\n      pop\n        /* \"#utility.yul\":7329:7401   */\n      tag_235\n        /* \"#utility.yul\":7397:7399   */\n      0x60\n        /* \"#utility.yul\":7386:7395   */\n      dup4\n        /* \"#utility.yul\":7382:7400   */\n      add\n        /* \"#utility.yul\":7373:7379   */\n      dup6\n        /* \"#utility.yul\":7329:7401   */\n      tag_113\n      jump\t// in\n    tag_235:\n        /* \"#utility.yul\":7411:7484   */\n      tag_236\n        /* \"#utility.yul\":7479:7482   */\n      0x80\n        /* \"#utility.yul\":7468:7477   */\n      dup4\n        /* \"#utility.yul\":7464:7483   */\n      add\n        /* \"#utility.yul\":7455:7461   */\n      dup5\n        /* \"#utility.yul\":7411:7484   */\n      tag_125\n      jump\t// in\n    tag_236:\n        /* \"#utility.yul\":6660:7491   */\n      swap7\n      swap6\n      pop\n      pop\n      pop\n      pop\n      pop\n      pop\n      jump\t// out\n        /* \"#utility.yul\":7497:7614   */\n    tag_140:\n        /* \"#utility.yul\":7606:7607   */\n      0x00\n        /* \"#utility.yul\":7603:7604   */\n      dup1\n        /* \"#utility.yul\":7596:7608   */\n      revert\n        /* \"#utility.yul\":7620:7722   */\n    tag_141:\n        /* \"#utility.yul\":7661:7667   */\n      0x00\n        /* \"#utility.yul\":7712:7714   */\n      0x1f\n        /* \"#utility.yul\":7708:7715   */\n      not\n        /* \"#utility.yul\":7703:7705   */\n      0x1f\n        /* \"#utility.yul\":7696:7701   */\n      dup4\n        /* \"#utility.yul\":7692:7706   */\n      add\n        /* \"#utility.yul\":7688:7716   */\n      and\n        /* \"#utility.yul\":7678:7716   */\n      swap1\n      pop\n        /* \"#utility.yul\":7620:7722   */\n      swap2\n      swap1\n      pop\n      jump\t// out\n        /* \"#utility.yul\":7728:8009   */\n    tag_142:\n        /* \"#utility.yul\":7811:7838   */\n      tag_240\n        /* \"#utility.yul\":7833:7837   */\n      dup3\n        /* \"#utility.yul\":7811:7838   */\n      tag_141\n      jump\t// in\n    tag_240:\n        /* \"#utility.yul\":7803:7809   */\n      dup2\n        /* \"#utility.yul\":7799:7839   */\n      add\n        /* \"#utility.yul\":7941:7947   */\n      dup2\n        /* \"#utility.yul\":7929:7939   */\n      dup2\n        /* \"#utility.yul\":7926:7948   */\n      lt\n        /* \"#utility.yul\":7905:7923   */\n      0xffffffffffffffff\n        /* \"#utility.yul\":7893:7903   */\n      dup3\n        /* \"#utility.yul\":7890:7924   */\n      gt\n        /* \"#utility.yul\":7887:7949   */\n      or\n        /* \"#utility.yul\":7884:7972   */\n      iszero\n      tag_241\n      jumpi\n        /* \"#utility.yul\":7952:7970   */\n      tag_242\n      tag_61\n      jump\t// in\n    tag_242:\n        /* \"#utility.yul\":7884:7972   */\n    tag_241:\n        /* \"#utility.yul\":7992:8002   */\n      dup1\n        /* \"#utility.yul\":7988:7990   */\n      0x40\n        /* \"#utility.yul\":7981:8003   */\n      mstore\n        /* \"#utility.yul\":7771:8009   */\n      pop\n        /* \"#utility.yul\":7728:8009   */\n      pop\n      pop\n      jump\t// out\n        /* \"#utility.yul\":8015:8144   */\n    tag_143:\n        /* \"#utility.yul\":8049:8055   */\n      0x00\n        /* \"#utility.yul\":8076:8096   */\n      tag_244\n      tag_114\n      jump\t// in\n    tag_244:\n        /* \"#utility.yul\":8066:8096   */\n      swap1\n      pop\n        /* \"#utility.yul\":8105:8138   */\n      tag_245\n        /* \"#utility.yul\":8133:8137   */\n      dup3\n        /* \"#utility.yul\":8125:8131   */\n      dup3\n        /* \"#utility.yul\":8105:8138   */\n      tag_142\n      jump\t// in\n    tag_245:\n        /* \"#utility.yul\":8015:8144   */\n      swap2\n      swap1\n      pop\n      jump\t// out\n        /* \"#utility.yul\":8150:8461   */\n    tag_144:\n        /* \"#utility.yul\":8227:8231   */\n      0x00\n        /* \"#utility.yul\":8317:8335   */\n      0xffffffffffffffff\n        /* \"#utility.yul\":8309:8315   */\n      dup3\n        /* \"#utility.yul\":8306:8336   */\n      gt\n        /* \"#utility.yul\":8303:8359   */\n      iszero\n      tag_247\n      jumpi\n        /* \"#utility.yul\":8339:8357   */\n      tag_248\n      tag_61\n      jump\t// in\n    tag_248:\n        /* \"#utility.yul\":8303:8359   */\n    tag_247:\n        /* \"#utility.yul\":8389:8393   */\n      0x20\n        /* \"#utility.yul\":8381:8387   */\n      dup3\n        /* \"#utility.yul\":8377:8394   */\n      mul\n        /* \"#utility.yul\":8369:8394   */\n      swap1\n      pop\n        /* \"#utility.yul\":8449:8453   */\n      0x20\n        /* \"#utility.yul\":8443:8447   */\n      dup2\n        /* \"#utility.yul\":8439:8454   */\n      add\n        /* \"#utility.yul\":8431:8454   */\n      swap1\n      pop\n        /* \"#utility.yul\":8150:8461   */\n      swap2\n      swap1\n      pop\n      jump\t// out\n        /* \"#utility.yul\":8467:8584   */\n    tag_145:\n        /* \"#utility.yul\":8576:8577   */\n      0x00\n        /* \"#utility.yul\":8573:8574   */\n      dup1\n        /* \"#utility.yul\":8566:8578   */\n      revert\n        /* \"#utility.yul\":8590:8733   */\n    tag_146:\n        /* \"#utility.yul\":8647:8652   */\n      0x00\n        /* \"#utility.yul\":8678:8684   */\n      dup2\n        /* \"#utility.yul\":8672:8685   */\n      mload\n        /* \"#utility.yul\":8663:8685   */\n      swap1\n      pop\n        /* \"#utility.yul\":8694:8727   */\n      tag_251\n        /* \"#utility.yul\":8721:8726   */\n      dup2\n        /* \"#utility.yul\":8694:8727   */\n      tag_118\n      jump\t// in\n    tag_251:\n        /* \"#utility.yul\":8590:8733   */\n      swap3\n      swap2\n      pop\n      pop\n      jump\t// out\n        /* \"#utility.yul\":8756:9488   */\n    tag_147:\n        /* \"#utility.yul\":8863:8868   */\n      0x00\n        /* \"#utility.yul\":8888:8969   */\n      tag_253\n        /* \"#utility.yul\":8904:8968   */\n      tag_254\n        /* \"#utility.yul\":8961:8967   */\n      dup5\n        /* \"#utility.yul\":8904:8968   */\n      tag_144\n      jump\t// in\n    tag_254:\n        /* \"#utility.yul\":8888:8969   */\n      tag_143\n      jump\t// in\n    tag_253:\n        /* \"#utility.yul\":8879:8969   */\n      swap1\n      pop\n        /* \"#utility.yul\":8989:8994   */\n      dup1\n        /* \"#utility.yul\":9018:9024   */\n      dup4\n        /* \"#utility.yul\":9011:9016   */\n      dup3\n        /* \"#utility.yul\":9004:9025   */\n      mstore\n        /* \"#utility.yul\":9052:9056   */\n      0x20\n        /* \"#utility.yul\":9045:9050   */\n      dup3\n        /* \"#utility.yul\":9041:9057   */\n      add\n        /* \"#utility.yul\":9034:9057   */\n      swap1\n      pop\n        /* \"#utility.yul\":9105:9109   */\n      0x20\n        /* \"#utility.yul\":9097:9103   */\n      dup5\n        /* \"#utility.yul\":9093:9110   */\n      mul\n        /* \"#utility.yul\":9085:9091   */\n      dup4\n        /* \"#utility.yul\":9081:9111   */\n      add\n        /* \"#utility.yul\":9134:9137   */\n      dup6\n        /* \"#utility.yul\":9126:9132   */\n      dup2\n        /* \"#utility.yul\":9123:9138   */\n      gt\n        /* \"#utility.yul\":9120:9242   */\n      iszero\n      tag_255\n      jumpi\n        /* \"#utility.yul\":9153:9232   */\n      tag_256\n      tag_145\n      jump\t// in\n    tag_256:\n        /* \"#utility.yul\":9120:9242   */\n    tag_255:\n        /* \"#utility.yul\":9268:9274   */\n      dup4\n        /* \"#utility.yul\":9251:9482   */\n    tag_257:\n        /* \"#utility.yul\":9285:9291   */\n      dup2\n        /* \"#utility.yul\":9280:9283   */\n      dup2\n        /* \"#utility.yul\":9277:9292   */\n      lt\n        /* \"#utility.yul\":9251:9482   */\n      iszero\n      tag_259\n      jumpi\n        /* \"#utility.yul\":9360:9363   */\n      dup1\n        /* \"#utility.yul\":9389:9437   */\n      tag_260\n        /* \"#utility.yul\":9433:9436   */\n      dup9\n        /* \"#utility.yul\":9421:9431   */\n      dup3\n        /* \"#utility.yul\":9389:9437   */\n      tag_146\n      jump\t// in\n    tag_260:\n        /* \"#utility.yul\":9384:9387   */\n      dup5\n        /* \"#utility.yul\":9377:9438   */\n      mstore\n        /* \"#utility.yul\":9467:9471   */\n      0x20\n        /* \"#utility.yul\":9462:9465   */\n      dup5\n        /* \"#utility.yul\":9458:9472   */\n      add\n        /* \"#utility.yul\":9451:9472   */\n      swap4\n      pop\n        /* \"#utility.yul\":9327:9482   */\n      pop\n        /* \"#utility.yul\":9311:9315   */\n      0x20\n        /* \"#utility.yul\":9306:9309   */\n      dup2\n        /* \"#utility.yul\":9302:9316   */\n      add\n        /* \"#utility.yul\":9295:9316   */\n      swap1\n      pop\n        /* \"#utility.yul\":9251:9482   */\n      jump(tag_257)\n    tag_259:\n        /* \"#utility.yul\":9255:9276   */\n      pop\n        /* \"#utility.yul\":8869:9488   */\n      pop\n      pop\n        /* \"#utility.yul\":8756:9488   */\n      swap4\n      swap3\n      pop\n      pop\n      pop\n      jump\t// out\n        /* \"#utility.yul\":9511:9896   */\n    tag_148:\n        /* \"#utility.yul\":9593:9598   */\n      0x00\n        /* \"#utility.yul\":9642:9645   */\n      dup3\n        /* \"#utility.yul\":9635:9639   */\n      0x1f\n        /* \"#utility.yul\":9627:9633   */\n      dup4\n        /* \"#utility.yul\":9623:9640   */\n      add\n        /* \"#utility.yul\":9619:9646   */\n      slt\n        /* \"#utility.yul\":9609:9731   */\n      tag_262\n      jumpi\n        /* \"#utility.yul\":9650:9729   */\n      tag_263\n      tag_140\n      jump\t// in\n    tag_263:\n        /* \"#utility.yul\":9609:9731   */\n    tag_262:\n        /* \"#utility.yul\":9760:9766   */\n      dup2\n        /* \"#utility.yul\":9754:9767   */\n      mload\n        /* \"#utility.yul\":9785:9890   */\n      tag_264\n        /* \"#utility.yul\":9886:9889   */\n      dup5\n        /* \"#utility.yul\":9878:9884   */\n      dup3\n        /* \"#utility.yul\":9871:9875   */\n      0x20\n        /* \"#utility.yul\":9863:9869   */\n      dup7\n        /* \"#utility.yul\":9859:9876   */\n      add\n        /* \"#utility.yul\":9785:9890   */\n      tag_147\n      jump\t// in\n    tag_264:\n        /* \"#utility.yul\":9776:9890   */\n      swap2\n      pop\n        /* \"#utility.yul\":9599:9896   */\n      pop\n        /* \"#utility.yul\":9511:9896   */\n      swap3\n      swap2\n      pop\n      pop\n      jump\t// out\n        /* \"#utility.yul\":9902:10456   */\n    tag_81:\n        /* \"#utility.yul\":9997:10003   */\n      0x00\n        /* \"#utility.yul\":10046:10048   */\n      0x20\n        /* \"#utility.yul\":10034:10043   */\n      dup3\n        /* \"#utility.yul\":10025:10032   */\n      dup5\n        /* \"#utility.yul\":10021:10044   */\n      sub\n        /* \"#utility.yul\":10017:10049   */\n      slt\n        /* \"#utility.yul\":10014:10133   */\n      iszero\n      tag_266\n      jumpi\n        /* \"#utility.yul\":10052:10131   */\n      tag_267\n      tag_115\n      jump\t// in\n    tag_267:\n        /* \"#utility.yul\":10014:10133   */\n    tag_266:\n        /* \"#utility.yul\":10193:10194   */\n      0x00\n        /* \"#utility.yul\":10182:10191   */\n      dup3\n        /* \"#utility.yul\":10178:10195   */\n      add\n        /* \"#utility.yul\":10172:10196   */\n      mload\n        /* \"#utility.yul\":10223:10241   */\n      0xffffffffffffffff\n        /* \"#utility.yul\":10215:10221   */\n      dup2\n        /* \"#utility.yul\":10212:10242   */\n      gt\n        /* \"#utility.yul\":10209:10326   */\n      iszero\n      tag_268\n      jumpi\n        /* \"#utility.yul\":10245:10324   */\n      tag_269\n      tag_116\n      jump\t// in\n    tag_269:\n        /* \"#utility.yul\":10209:10326   */\n    tag_268:\n        /* \"#utility.yul\":10350:10439   */\n      tag_270\n        /* \"#utility.yul\":10431:10438   */\n      dup5\n        /* \"#utility.yul\":10422:10428   */\n      dup3\n        /* \"#utility.yul\":10411:10420   */\n      dup6\n        /* \"#utility.yul\":10407:10429   */\n      add\n        /* \"#utility.yul\":10350:10439   */\n      tag_148\n      jump\t// in\n    tag_270:\n        /* \"#utility.yul\":10340:10439   */\n      swap2\n      pop\n        /* \"#utility.yul\":10143:10449   */\n      pop\n        /* \"#utility.yul\":9902:10456   */\n      swap3\n      swap2\n      pop\n      pop\n      jump\t// out\n        /* \"#utility.yul\":10462:11182   */\n    tag_93:\n        /* \"#utility.yul\":10697:10701   */\n      0x00\n        /* \"#utility.yul\":10735:10738   */\n      0x80\n        /* \"#utility.yul\":10724:10733   */\n      dup3\n        /* \"#utility.yul\":10720:10739   */\n      add\n        /* \"#utility.yul\":10712:10739   */\n      swap1\n      pop\n        /* \"#utility.yul\":10749:10828   */\n      tag_272\n        /* \"#utility.yul\":10825:10826   */\n      0x00\n        /* \"#utility.yul\":10814:10823   */\n      dup4\n        /* \"#utility.yul\":10810:10827   */\n      add\n        /* \"#utility.yul\":10801:10807   */\n      dup8\n        /* \"#utility.yul\":10749:10828   */\n      tag_132\n      jump\t// in\n    tag_272:\n        /* \"#utility.yul\":10875:10884   */\n      dup2\n        /* \"#utility.yul\":10869:10873   */\n      dup2\n        /* \"#utility.yul\":10865:10885   */\n      sub\n        /* \"#utility.yul\":10860:10862   */\n      0x20\n        /* \"#utility.yul\":10849:10858   */\n      dup4\n        /* \"#utility.yul\":10845:10863   */\n      add\n        /* \"#utility.yul\":10838:10886   */\n      mstore\n        /* \"#utility.yul\":10903:11011   */\n      tag_273\n        /* \"#utility.yul\":11006:11010   */\n      dup2\n        /* \"#utility.yul\":10997:11003   */\n      dup7\n        /* \"#utility.yul\":10903:11011   */\n      tag_139\n      jump\t// in\n    tag_273:\n        /* \"#utility.yul\":10895:11011   */\n      swap1\n      pop\n        /* \"#utility.yul\":11021:11093   */\n      tag_274\n        /* \"#utility.yul\":11089:11091   */\n      0x40\n        /* \"#utility.yul\":11078:11087   */\n      dup4\n        /* \"#utility.yul\":11074:11092   */\n      add\n        /* \"#utility.yul\":11065:11071   */\n      dup6\n        /* \"#utility.yul\":11021:11093   */\n      tag_113\n      jump\t// in\n    tag_274:\n        /* \"#utility.yul\":11103:11175   */\n      tag_275\n        /* \"#utility.yul\":11171:11173   */\n      0x60\n        /* \"#utility.yul\":11160:11169   */\n      dup4\n        /* \"#utility.yul\":11156:11174   */\n      add\n        /* \"#utility.yul\":11147:11153   */\n      dup5\n        /* \"#utility.yul\":11103:11175   */\n      tag_125\n      jump\t// in\n    tag_275:\n        /* \"#utility.yul\":10462:11182   */\n      swap6\n      swap5\n      pop\n      pop\n      pop\n      pop\n      pop\n      jump\t// out\n        /* \"#utility.yul\":11188:11995   */\n    tag_106:\n        /* \"#utility.yul\":11437:11441   */\n      0x00\n        /* \"#utility.yul\":11475:11478   */\n      0xc0\n        /* \"#utility.yul\":11464:11473   */\n      dup3\n        /* \"#utility.yul\":11460:11479   */\n      add\n        /* \"#utility.yul\":11452:11479   */\n      swap1\n      pop\n        /* \"#utility.yul\":11489:11560   */\n      tag_277\n        /* \"#utility.yul\":11557:11558   */\n      0x00\n        /* \"#utility.yul\":11546:11555   */\n      dup4\n        /* \"#utility.yul\":11542:11559   */\n      add\n        /* \"#utility.yul\":11533:11539   */\n      dup10\n        /* \"#utility.yul\":11489:11560   */\n      tag_113\n      jump\t// in\n    tag_277:\n        /* \"#utility.yul\":11570:11642   */\n      tag_278\n        /* \"#utility.yul\":11638:11640   */\n      0x20\n        /* \"#utility.yul\":11627:11636   */\n      dup4\n        /* \"#utility.yul\":11623:11641   */\n      add\n        /* \"#utility.yul\":11614:11620   */\n      dup9\n        /* \"#utility.yul\":11570:11642   */\n      tag_125\n      jump\t// in\n    tag_278:\n        /* \"#utility.yul\":11652:11732   */\n      tag_279\n        /* \"#utility.yul\":11728:11730   */\n      0x40\n        /* \"#utility.yul\":11717:11726   */\n      dup4\n        /* \"#utility.yul\":11713:11731   */\n      add\n        /* \"#utility.yul\":11704:11710   */\n      dup8\n        /* \"#utility.yul\":11652:11732   */\n      tag_132\n      jump\t// in\n    tag_279:\n        /* \"#utility.yul\":11742:11822   */\n      tag_280\n        /* \"#utility.yul\":11818:11820   */\n      0x60\n        /* \"#utility.yul\":11807:11816   */\n      dup4\n        /* \"#utility.yul\":11803:11821   */\n      add\n        /* \"#utility.yul\":11794:11800   */\n      dup7\n        /* \"#utility.yul\":11742:11822   */\n      tag_132\n      jump\t// in\n    tag_280:\n        /* \"#utility.yul\":11832:11905   */\n      tag_281\n        /* \"#utility.yul\":11900:11903   */\n      0x80\n        /* \"#utility.yul\":11889:11898   */\n      dup4\n        /* \"#utility.yul\":11885:11904   */\n      add\n        /* \"#utility.yul\":11876:11882   */\n      dup6\n        /* \"#utility.yul\":11832:11905   */\n      tag_113\n      jump\t// in\n    tag_281:\n        /* \"#utility.yul\":11915:11988   */\n      tag_282\n        /* \"#utility.yul\":11983:11986   */\n      0xa0\n        /* \"#utility.yul\":11972:11981   */\n      dup4\n        /* \"#utility.yul\":11968:11987   */\n      add\n        /* \"#utility.yul\":11959:11965   */\n      dup5\n        /* \"#utility.yul\":11915:11988   */\n      tag_125\n      jump\t// in\n    tag_282:\n        /* \"#utility.yul\":11188:11995   */\n      swap8\n      swap7\n      pop\n      pop\n      pop\n      pop\n      pop\n      pop\n      pop\n      jump\t// out\n        /* \"#utility.yul\":12001:12664   */\n    tag_110:\n        /* \"#utility.yul\":12089:12095   */\n      0x00\n        /* \"#utility.yul\":12097:12103   */\n      dup1\n        /* \"#utility.yul\":12105:12111   */\n      0x00\n        /* \"#utility.yul\":12154:12156   */\n      0x60\n        /* \"#utility.yul\":12142:12151   */\n      dup5\n        /* \"#utility.yul\":12133:12140   */\n      dup7\n        /* \"#utility.yul\":12129:12152   */\n      sub\n        /* \"#utility.yul\":12125:12157   */\n      slt\n        /* \"#utility.yul\":12122:12241   */\n      iszero\n      tag_284\n      jumpi\n        /* \"#utility.yul\":12160:12239   */\n      tag_285\n      tag_115\n      jump\t// in\n    tag_285:\n        /* \"#utility.yul\":12122:12241   */\n    tag_284:\n        /* \"#utility.yul\":12280:12281   */\n      0x00\n        /* \"#utility.yul\":12305:12369   */\n      tag_286\n        /* \"#utility.yul\":12361:12368   */\n      dup7\n        /* \"#utility.yul\":12352:12358   */\n      dup3\n        /* \"#utility.yul\":12341:12350   */\n      dup8\n        /* \"#utility.yul\":12337:12359   */\n      add\n        /* \"#utility.yul\":12305:12369   */\n      tag_146\n      jump\t// in\n    tag_286:\n        /* \"#utility.yul\":12295:12369   */\n      swap4\n      pop\n        /* \"#utility.yul\":12251:12379   */\n      pop\n        /* \"#utility.yul\":12418:12420   */\n      0x20\n        /* \"#utility.yul\":12444:12508   */\n      tag_287\n        /* \"#utility.yul\":12500:12507   */\n      dup7\n        /* \"#utility.yul\":12491:12497   */\n      dup3\n        /* \"#utility.yul\":12480:12489   */\n      dup8\n        /* \"#utility.yul\":12476:12498   */\n      add\n        /* \"#utility.yul\":12444:12508   */\n      tag_146\n      jump\t// in\n    tag_287:\n        /* \"#utility.yul\":12434:12508   */\n      swap3\n      pop\n        /* \"#utility.yul\":12389:12518   */\n      pop\n        /* \"#utility.yul\":12557:12559   */\n      0x40\n        /* \"#utility.yul\":12583:12647   */\n      tag_288\n        /* \"#utility.yul\":12639:12646   */\n      dup7\n        /* \"#utility.yul\":12630:12636   */\n      dup3\n        /* \"#utility.yul\":12619:12628   */\n      dup8\n        /* \"#utility.yul\":12615:12637   */\n      add\n        /* \"#utility.yul\":12583:12647   */\n      tag_146\n      jump\t// in\n    tag_288:\n        /* \"#utility.yul\":12573:12647   */\n      swap2\n      pop\n        /* \"#utility.yul\":12528:12657   */\n      pop\n        /* \"#utility.yul\":12001:12664   */\n      swap3\n      pop\n      swap3\n      pop\n      swap3\n      jump\t// out\n\n    auxdata: 0xa2646970667358221220a16287be9ecce31a1f22f4c1a5ad5a264410ac271462dc42b9148558b918e1da64736f6c634300081a0033\n}\n",
				"bytecode": {
					"linkReferences": {},
					"object": "6080604052730a0e0fccc2c799845214e8e5583e44479ec02a235f806101000a81548173ffffffffffffffffffffffffffffffffffffffff021916908373ffffffffffffffffffffffffffffffffffffffff160217905550348015610062575f80fd5b5060405161157338038061157383398181016040528101906100849190610425565b805f806101000a81548173ffffffffffffffffffffffffffffffffffffffff021916908373ffffffffffffffffffffffffffffffffffffffff16021790555073050e797f3625ec8785265e1d9bdd4799b97528a160035f6101000a81548173ffffffffffffffffffffffffffffffffffffffff021916908373ffffffffffffffffffffffffffffffffffffffff16021790555060035f9054906101000a900473ffffffffffffffffffffffffffffffffffffffff1673ffffffffffffffffffffffffffffffffffffffff1663ad5c46486040518163ffffffff1660e01b8152600401602060405180830381865afa158015610181573d5f803e3d5ffd5b505050506040513d601f19601f820116820180604052508101906101a59190610425565b60025f6101000a81548173ffffffffffffffffffffffffffffffffffffffff021916908373ffffffffffffffffffffffffffffffffffffffff1602179055505f8054906101000a900473ffffffffffffffffffffffffffffffffffffffff1673ffffffffffffffffffffffffffffffffffffffff1663095ea7b373050e797f3625ec8785265e1d9bdd4799b97528a17fffffffffffffffffffffffffffffffffffffffffffffffffffffffffffffffff6040518363ffffffff1660e01b8152600401610272929190610477565b6020604051808303815f875af115801561028e573d5f803e3d5ffd5b505050506040513d601f19601f820116820180604052508101906102b291906104d3565b50739fbfa493ec98694256d171171487b9d47d849ba973ffffffffffffffffffffffffffffffffffffffff1663c9c653965f8054906101000a900473ffffffffffffffffffffffffffffffffffffffff1660025f9054906101000a900473ffffffffffffffffffffffffffffffffffffffff166040518363ffffffff1660e01b81526004016103429291906104fe565b6020604051808303815f875af115801561035e573d5f803e3d5ffd5b505050506040513d601f19601f820116820180604052508101906103829190610425565b60015f6101000a81548173ffffffffffffffffffffffffffffffffffffffff021916908373ffffffffffffffffffffffffffffffffffffffff16021790555050610525565b5f80fd5b5f73ffffffffffffffffffffffffffffffffffffffff82169050919050565b5f6103f4826103cb565b9050919050565b610404816103ea565b811461040e575f80fd5b50565b5f8151905061041f816103fb565b92915050565b5f6020828403121561043a576104396103c7565b5b5f61044784828501610411565b91505092915050565b610459816103ea565b82525050565b5f819050919050565b6104718161045f565b82525050565b5f60408201905061048a5f830185610450565b6104976020830184610468565b9392505050565b5f8115159050919050565b6104b28161049e565b81146104bc575f80fd5b50565b5f815190506104cd816104a9565b92915050565b5f602082840312156104e8576104e76103c7565b5b5f6104f5848285016104bf565b91505092915050565b5f6040820190506105115f830185610450565b61051e6020830184610450565b9392505050565b611041806105325f395ff3fe608060405260043610610094575f3560e01c806397b3d8ca1161005857806397b3d8ca1461016f57806399d8fae314610179578063a82ed9ec146101a3578063a8aa1b31146101cd578063d06d04cc146101f75761009b565b806310fe9ae81461009f5780633fc8cef3146100c957806366dc34a7146100f3578063735de9f71461011b578063972598e7146101455761009b565b3661009b57005b5f80fd5b3480156100aa575f80fd5b506100b3610213565b6040516100c091906109f2565b60405180910390f35b3480156100d4575f80fd5b506100dd61023a565b6040516100ea91906109f2565b60405180910390f35b3480156100fe575f80fd5b5061011960048036038101906101149190610a4f565b61025f565b005b348015610126575f80fd5b5061012f610516565b60405161013c9190610ad5565b60405180910390f35b348015610150575f80fd5b5061015961053b565b60405161016691906109f2565b60405180910390f35b61017761055e565b005b348015610184575f80fd5b5061018d610778565b60405161019a91906109f2565b60405180910390f35b3480156101ae575f80fd5b506101b7610790565b6040516101c491906109f2565b60405180910390f35b3480156101d8575f80fd5b506101e16107a8565b6040516101ee91906109f2565b60405180910390f35b610211600480360381019061020c9190610a4f565b6107cd565b005b5f805f9054906101000a900473ffffffffffffffffffffffffffffffffffffffff16905090565b60025f9054906101000a900473ffffffffffffffffffffffffffffffffffffffff1681565b5f8111610297576040517ed8767d00000000000000000000000000000000000000000000000000000000815260040160405180910390fd5b6060600267ffffffffffffffff8111156102b4576102b3610aee565b5b6040519080825280602002602001820160405280156102e25781602001602082028036833780820191505090505b5090505f8054906101000a900473ffffffffffffffffffffffffffffffffffffffff16815f8151811061031857610317610b1b565b5b602002602001019073ffffffffffffffffffffffffffffffffffffffff16908173ffffffffffffffffffffffffffffffffffffffff168152505060025f9054906101000a900473ffffffffffffffffffffffffffffffffffffffff168160018151811061038857610387610b1b565b5b602002602001019073ffffffffffffffffffffffffffffffffffffffff16908173ffffffffffffffffffffffffffffffffffffffff16815250505f8054906101000a900473ffffffffffffffffffffffffffffffffffffffff1673ffffffffffffffffffffffffffffffffffffffff166323b872dd3330856040518463ffffffff1660e01b815260040161041e93929190610b57565b6020604051808303815f875af115801561043a573d5f803e3d5ffd5b505050506040513d601f19601f8201168201806040525081019061045e9190610bc1565b5060035f9054906101000a900473ffffffffffffffffffffffffffffffffffffffff1673ffffffffffffffffffffffffffffffffffffffff166318cbafe5835f8433610168426104ae9190610c19565b6040518663ffffffff1660e01b81526004016104ce959493929190610d3c565b5f604051808303815f875af11580156104e9573d5f803e3d5ffd5b505050506040513d5f823e3d601f19601f820116820180604052508101906105119190610ecb565b505050565b60035f9054906101000a900473ffffffffffffffffffffffffffffffffffffffff1681565b5f8054906101000a900473ffffffffffffffffffffffffffffffffffffffff1681565b5f3411610597576040517fd73ab2e100000000000000000000000000000000000000000000000000000000815260040160405180910390fd5b6060600267ffffffffffffffff8111156105b4576105b3610aee565b5b6040519080825280602002602001820160405280156105e25781602001602082028036833780820191505090505b50905060025f9054906101000a900473ffffffffffffffffffffffffffffffffffffffff16815f8151811061061a57610619610b1b565b5b602002602001019073ffffffffffffffffffffffffffffffffffffffff16908173ffffffffffffffffffffffffffffffffffffffff16815250505f8054906101000a900473ffffffffffffffffffffffffffffffffffffffff168160018151811061068857610687610b1b565b5b602002602001019073ffffffffffffffffffffffffffffffffffffffff16908173ffffffffffffffffffffffffffffffffffffffff168152505060035f9054906101000a900473ffffffffffffffffffffffffffffffffffffffff1673ffffffffffffffffffffffffffffffffffffffff16637ff36ab5345f8433610168426107119190610c19565b6040518663ffffffff1660e01b81526004016107309493929190610f12565b5f6040518083038185885af115801561074b573d5f803e3d5ffd5b50505050506040513d5f823e3d601f19601f820116820180604052508101906107749190610ecb565b5050565b739fbfa493ec98694256d171171487b9d47d849ba981565b73050e797f3625ec8785265e1d9bdd4799b97528a181565b60015f9054906101000a900473ffffffffffffffffffffffffffffffffffffffff1681565b5f3411610806576040517fd73ab2e100000000000000000000000000000000000000000000000000000000815260040160405180910390fd5b5f811161083e576040517ed8767d00000000000000000000000000000000000000000000000000000000815260040160405180910390fd5b5f8054906101000a900473ffffffffffffffffffffffffffffffffffffffff1673ffffffffffffffffffffffffffffffffffffffff166323b872dd3330846040518463ffffffff1660e01b815260040161089a93929190610b57565b6020604051808303815f875af11580156108b6573d5f803e3d5ffd5b505050506040513d601f19601f820116820180604052508101906108da9190610bc1565b5060035f9054906101000a900473ffffffffffffffffffffffffffffffffffffffff1673ffffffffffffffffffffffffffffffffffffffff1663f305d719345f8054906101000a900473ffffffffffffffffffffffffffffffffffffffff16845f80336101684261094b9190610c19565b6040518863ffffffff1660e01b815260040161096c96959493929190610f5c565b60606040518083038185885af1158015610988573d5f803e3d5ffd5b50505050506040513d601f19601f820116820180604052508101906109ad9190610fbb565b50505050565b5f73ffffffffffffffffffffffffffffffffffffffff82169050919050565b5f6109dc826109b3565b9050919050565b6109ec816109d2565b82525050565b5f602082019050610a055f8301846109e3565b92915050565b5f604051905090565b5f80fd5b5f80fd5b5f819050919050565b610a2e81610a1c565b8114610a38575f80fd5b50565b5f81359050610a4981610a25565b92915050565b5f60208284031215610a6457610a63610a14565b5b5f610a7184828501610a3b565b91505092915050565b5f819050919050565b5f610a9d610a98610a93846109b3565b610a7a565b6109b3565b9050919050565b5f610aae82610a83565b9050919050565b5f610abf82610aa4565b9050919050565b610acf81610ab5565b82525050565b5f602082019050610ae85f830184610ac6565b92915050565b7f4e487b71000000000000000000000000000000000000000000000000000000005f52604160045260245ffd5b7f4e487b71000000000000000000000000000000000000000000000000000000005f52603260045260245ffd5b610b5181610a1c565b82525050565b5f606082019050610b6a5f8301866109e3565b610b7760208301856109e3565b610b846040830184610b48565b949350505050565b5f8115159050919050565b610ba081610b8c565b8114610baa575f80fd5b50565b5f81519050610bbb81610b97565b92915050565b5f60208284031215610bd657610bd5610a14565b5b5f610be384828501610bad565b91505092915050565b7f4e487b71000000000000000000000000000000000000000000000000000000005f52601160045260245ffd5b5f610c2382610a1c565b9150610c2e83610a1c565b9250828201905080821115610c4657610c45610bec565b5b92915050565b5f819050919050565b5f610c6f610c6a610c6584610c4c565b610a7a565b610a1c565b9050919050565b610c7f81610c55565b82525050565b5f81519050919050565b5f82825260208201905092915050565b5f819050602082019050919050565b610cb7816109d2565b82525050565b5f610cc88383610cae565b60208301905092915050565b5f602082019050919050565b5f610cea82610c85565b610cf48185610c8f565b9350610cff83610c9f565b805f5b83811015610d2f578151610d168882610cbd565b9750610d2183610cd4565b925050600181019050610d02565b5085935050505092915050565b5f60a082019050610d4f5f830188610b48565b610d5c6020830187610c76565b8181036040830152610d6e8186610ce0565b9050610d7d60608301856109e3565b610d8a6080830184610b48565b9695505050505050565b5f80fd5b5f601f19601f8301169050919050565b610db182610d98565b810181811067ffffffffffffffff82111715610dd057610dcf610aee565b5b80604052505050565b5f610de2610a0b565b9050610dee8282610da8565b919050565b5f67ffffffffffffffff821115610e0d57610e0c610aee565b5b602082029050602081019050919050565b5f80fd5b5f81519050610e3081610a25565b92915050565b5f610e48610e4384610df3565b610dd9565b90508083825260208201905060208402830185811115610e6b57610e6a610e1e565b5b835b81811015610e945780610e808882610e22565b845260208401935050602081019050610e6d565b5050509392505050565b5f82601f830112610eb257610eb1610d94565b5b8151610ec2848260208601610e36565b91505092915050565b5f60208284031215610ee057610edf610a14565b5b5f82015167ffffffffffffffff811115610efd57610efc610a18565b5b610f0984828501610e9e565b91505092915050565b5f608082019050610f255f830187610c76565b8181036020830152610f378186610ce0565b9050610f4660408301856109e3565b610f536060830184610b48565b95945050505050565b5f60c082019050610f6f5f8301896109e3565b610f7c6020830188610b48565b610f896040830187610c76565b610f966060830186610c76565b610fa360808301856109e3565b610fb060a0830184610b48565b979650505050505050565b5f805f60608486031215610fd257610fd1610a14565b5b5f610fdf86828701610e22565b9350506020610ff086828701610e22565b925050604061100186828701610e22565b915050925092509256fea2646970667358221220a16287be9ecce31a1f22f4c1a5ad5a264410ac271462dc42b9148558b918e1da64736f6c634300081a0033",
					"opcodes": "PUSH1 0x80 PUSH1 0x40 MSTORE PUSH20 0xA0E0FCCC2C799845214E8E5583E44479EC02A23 PUSH0 DUP1 PUSH2 0x100 EXP DUP2 SLOAD DUP2 PUSH20 0xFFFFFFFFFFFFFFFFFFFFFFFFFFFFFFFFFFFFFFFF MUL NOT AND SWAP1 DUP4 PUSH20 0xFFFFFFFFFFFFFFFFFFFFFFFFFFFFFFFFFFFFFFFF AND MUL OR SWAP1 SSTORE POP CALLVALUE DUP1 ISZERO PUSH2 0x62 JUMPI PUSH0 DUP1 REVERT JUMPDEST POP PUSH1 0x40 MLOAD PUSH2 0x1573 CODESIZE SUB DUP1 PUSH2 0x1573 DUP4 CODECOPY DUP2 DUP2 ADD PUSH1 0x40 MSTORE DUP2 ADD SWAP1 PUSH2 0x84 SWAP2 SWAP1 PUSH2 0x425 JUMP JUMPDEST DUP1 PUSH0 DUP1 PUSH2 0x100 EXP DUP2 SLOAD DUP2 PUSH20 0xFFFFFFFFFFFFFFFFFFFFFFFFFFFFFFFFFFFFFFFF MUL NOT AND SWAP1 DUP4 PUSH20 0xFFFFFFFFFFFFFFFFFFFFFFFFFFFFFFFFFFFFFFFF AND MUL OR SWAP1 SSTORE POP PUSH20 0x50E797F3625EC8785265E1D9BDD4799B97528A1 PUSH1 0x3 PUSH0 PUSH2 0x100 EXP DUP2 SLOAD DUP2 PUSH20 0xFFFFFFFFFFFFFFFFFFFFFFFFFFFFFFFFFFFFFFFF MUL NOT AND SWAP1 DUP4 PUSH20 0xFFFFFFFFFFFFFFFFFFFFFFFFFFFFFFFFFFFFFFFF AND MUL OR SWAP1 SSTORE POP PUSH1 0x3 PUSH0 SWAP1 SLOAD SWAP1 PUSH2 0x100 EXP SWAP1 DIV PUSH20 0xFFFFFFFFFFFFFFFFFFFFFFFFFFFFFFFFFFFFFFFF AND PUSH20 0xFFFFFFFFFFFFFFFFFFFFFFFFFFFFFFFFFFFFFFFF AND PUSH4 0xAD5C4648 PUSH1 0x40 MLOAD DUP2 PUSH4 0xFFFFFFFF AND PUSH1 0xE0 SHL DUP2 MSTORE PUSH1 0x4 ADD PUSH1 0x20 PUSH1 0x40 MLOAD DUP1 DUP4 SUB DUP2 DUP7 GAS STATICCALL ISZERO DUP1 ISZERO PUSH2 0x181 JUMPI RETURNDATASIZE PUSH0 DUP1 RETURNDATACOPY RETURNDATASIZE PUSH0 REVERT JUMPDEST POP POP POP POP PUSH1 0x40 MLOAD RETURNDATASIZE PUSH1 0x1F NOT PUSH1 0x1F DUP3 ADD AND DUP3 ADD DUP1 PUSH1 0x40 MSTORE POP DUP2 ADD SWAP1 PUSH2 0x1A5 SWAP2 SWAP1 PUSH2 0x425 JUMP JUMPDEST PUSH1 0x2 PUSH0 PUSH2 0x100 EXP DUP2 SLOAD DUP2 PUSH20 0xFFFFFFFFFFFFFFFFFFFFFFFFFFFFFFFFFFFFFFFF MUL NOT AND SWAP1 DUP4 PUSH20 0xFFFFFFFFFFFFFFFFFFFFFFFFFFFFFFFFFFFFFFFF AND MUL OR SWAP1 SSTORE POP PUSH0 DUP1 SLOAD SWAP1 PUSH2 0x100 EXP SWAP1 DIV PUSH20 0xFFFFFFFFFFFFFFFFFFFFFFFFFFFFFFFFFFFFFFFF AND PUSH20 0xFFFFFFFFFFFFFFFFFFFFFFFFFFFFFFFFFFFFFFFF AND PUSH4 0x95EA7B3 PUSH20 0x50E797F3625EC8785265E1D9BDD4799B97528A1 PUSH32 0xFFFFFFFFFFFFFFFFFFFFFFFFFFFFFFFFFFFFFFFFFFFFFFFFFFFFFFFFFFFFFFFF PUSH1 0x40 MLOAD DUP4 PUSH4 0xFFFFFFFF AND PUSH1 0xE0 SHL DUP2 MSTORE PUSH1 0x4 ADD PUSH2 0x272 SWAP3 SWAP2 SWAP1 PUSH2 0x477 JUMP JUMPDEST PUSH1 0x20 PUSH1 0x40 MLOAD DUP1 DUP4 SUB DUP2 PUSH0 DUP8 GAS CALL ISZERO DUP1 ISZERO PUSH2 0x28E JUMPI RETURNDATASIZE PUSH0 DUP1 RETURNDATACOPY RETURNDATASIZE PUSH0 REVERT JUMPDEST POP POP POP POP PUSH1 0x40 MLOAD RETURNDATASIZE PUSH1 0x1F NOT PUSH1 0x1F DUP3 ADD AND DUP3 ADD DUP1 PUSH1 0x40 MSTORE POP DUP2 ADD SWAP1 PUSH2 0x2B2 SWAP2 SWAP1 PUSH2 0x4D3 JUMP JUMPDEST POP PUSH20 0x9FBFA493EC98694256D171171487B9D47D849BA9 PUSH20 0xFFFFFFFFFFFFFFFFFFFFFFFFFFFFFFFFFFFFFFFF AND PUSH4 0xC9C65396 PUSH0 DUP1 SLOAD SWAP1 PUSH2 0x100 EXP SWAP1 DIV PUSH20 0xFFFFFFFFFFFFFFFFFFFFFFFFFFFFFFFFFFFFFFFF AND PUSH1 0x2 PUSH0 SWAP1 SLOAD SWAP1 PUSH2 0x100 EXP SWAP1 DIV PUSH20 0xFFFFFFFFFFFFFFFFFFFFFFFFFFFFFFFFFFFFFFFF AND PUSH1 0x40 MLOAD DUP4 PUSH4 0xFFFFFFFF AND PUSH1 0xE0 SHL DUP2 MSTORE PUSH1 0x4 ADD PUSH2 0x342 SWAP3 SWAP2 SWAP1 PUSH2 0x4FE JUMP JUMPDEST PUSH1 0x20 PUSH1 0x40 MLOAD DUP1 DUP4 SUB DUP2 PUSH0 DUP8 GAS CALL ISZERO DUP1 ISZERO PUSH2 0x35E JUMPI RETURNDATASIZE PUSH0 DUP1 RETURNDATACOPY RETURNDATASIZE PUSH0 REVERT JUMPDEST POP POP POP POP PUSH1 0x40 MLOAD RETURNDATASIZE PUSH1 0x1F NOT PUSH1 0x1F DUP3 ADD AND DUP3 ADD DUP1 PUSH1 0x40 MSTORE POP DUP2 ADD SWAP1 PUSH2 0x382 SWAP2 SWAP1 PUSH2 0x425 JUMP JUMPDEST PUSH1 0x1 PUSH0 PUSH2 0x100 EXP DUP2 SLOAD DUP2 PUSH20 0xFFFFFFFFFFFFFFFFFFFFFFFFFFFFFFFFFFFFFFFF MUL NOT AND SWAP1 DUP4 PUSH20 0xFFFFFFFFFFFFFFFFFFFFFFFFFFFFFFFFFFFFFFFF AND MUL OR SWAP1 SSTORE POP POP PUSH2 0x525 JUMP JUMPDEST PUSH0 DUP1 REVERT JUMPDEST PUSH0 PUSH20 0xFFFFFFFFFFFFFFFFFFFFFFFFFFFFFFFFFFFFFFFF DUP3 AND SWAP1 POP SWAP2 SWAP1 POP JUMP JUMPDEST PUSH0 PUSH2 0x3F4 DUP3 PUSH2 0x3CB JUMP JUMPDEST SWAP1 POP SWAP2 SWAP1 POP JUMP JUMPDEST PUSH2 0x404 DUP2 PUSH2 0x3EA JUMP JUMPDEST DUP2 EQ PUSH2 0x40E JUMPI PUSH0 DUP1 REVERT JUMPDEST POP JUMP JUMPDEST PUSH0 DUP2 MLOAD SWAP1 POP PUSH2 0x41F DUP2 PUSH2 0x3FB JUMP JUMPDEST SWAP3 SWAP2 POP POP JUMP JUMPDEST PUSH0 PUSH1 0x20 DUP3 DUP5 SUB SLT ISZERO PUSH2 0x43A JUMPI PUSH2 0x439 PUSH2 0x3C7 JUMP JUMPDEST JUMPDEST PUSH0 PUSH2 0x447 DUP5 DUP3 DUP6 ADD PUSH2 0x411 JUMP JUMPDEST SWAP2 POP POP SWAP3 SWAP2 POP POP JUMP JUMPDEST PUSH2 0x459 DUP2 PUSH2 0x3EA JUMP JUMPDEST DUP3 MSTORE POP POP JUMP JUMPDEST PUSH0 DUP2 SWAP1 POP SWAP2 SWAP1 POP JUMP JUMPDEST PUSH2 0x471 DUP2 PUSH2 0x45F JUMP JUMPDEST DUP3 MSTORE POP POP JUMP JUMPDEST PUSH0 PUSH1 0x40 DUP3 ADD SWAP1 POP PUSH2 0x48A PUSH0 DUP4 ADD DUP6 PUSH2 0x450 JUMP JUMPDEST PUSH2 0x497 PUSH1 0x20 DUP4 ADD DUP5 PUSH2 0x468 JUMP JUMPDEST SWAP4 SWAP3 POP POP POP JUMP JUMPDEST PUSH0 DUP2 ISZERO ISZERO SWAP1 POP SWAP2 SWAP1 POP JUMP JUMPDEST PUSH2 0x4B2 DUP2 PUSH2 0x49E JUMP JUMPDEST DUP2 EQ PUSH2 0x4BC JUMPI PUSH0 DUP1 REVERT JUMPDEST POP JUMP JUMPDEST PUSH0 DUP2 MLOAD SWAP1 POP PUSH2 0x4CD DUP2 PUSH2 0x4A9 JUMP JUMPDEST SWAP3 SWAP2 POP POP JUMP JUMPDEST PUSH0 PUSH1 0x20 DUP3 DUP5 SUB SLT ISZERO PUSH2 0x4E8 JUMPI PUSH2 0x4E7 PUSH2 0x3C7 JUMP JUMPDEST JUMPDEST PUSH0 PUSH2 0x4F5 DUP5 DUP3 DUP6 ADD PUSH2 0x4BF JUMP JUMPDEST SWAP2 POP POP SWAP3 SWAP2 POP POP JUMP JUMPDEST PUSH0 PUSH1 0x40 DUP3 ADD SWAP1 POP PUSH2 0x511 PUSH0 DUP4 ADD DUP6 PUSH2 0x450 JUMP JUMPDEST PUSH2 0x51E PUSH1 0x20 DUP4 ADD DUP5 PUSH2 0x450 JUMP JUMPDEST SWAP4 SWAP3 POP POP POP JUMP JUMPDEST PUSH2 0x1041 DUP1 PUSH2 0x532 PUSH0 CODECOPY PUSH0 RETURN INVALID PUSH1 0x80 PUSH1 0x40 MSTORE PUSH1 0x4 CALLDATASIZE LT PUSH2 0x94 JUMPI PUSH0 CALLDATALOAD PUSH1 0xE0 SHR DUP1 PUSH4 0x97B3D8CA GT PUSH2 0x58 JUMPI DUP1 PUSH4 0x97B3D8CA EQ PUSH2 0x16F JUMPI DUP1 PUSH4 0x99D8FAE3 EQ PUSH2 0x179 JUMPI DUP1 PUSH4 0xA82ED9EC EQ PUSH2 0x1A3 JUMPI DUP1 PUSH4 0xA8AA1B31 EQ PUSH2 0x1CD JUMPI DUP1 PUSH4 0xD06D04CC EQ PUSH2 0x1F7 JUMPI PUSH2 0x9B JUMP JUMPDEST DUP1 PUSH4 0x10FE9AE8 EQ PUSH2 0x9F JUMPI DUP1 PUSH4 0x3FC8CEF3 EQ PUSH2 0xC9 JUMPI DUP1 PUSH4 0x66DC34A7 EQ PUSH2 0xF3 JUMPI DUP1 PUSH4 0x735DE9F7 EQ PUSH2 0x11B JUMPI DUP1 PUSH4 0x972598E7 EQ PUSH2 0x145 JUMPI PUSH2 0x9B JUMP JUMPDEST CALLDATASIZE PUSH2 0x9B JUMPI STOP JUMPDEST PUSH0 DUP1 REVERT JUMPDEST CALLVALUE DUP1 ISZERO PUSH2 0xAA JUMPI PUSH0 DUP1 REVERT JUMPDEST POP PUSH2 0xB3 PUSH2 0x213 JUMP JUMPDEST PUSH1 0x40 MLOAD PUSH2 0xC0 SWAP2 SWAP1 PUSH2 0x9F2 JUMP JUMPDEST PUSH1 0x40 MLOAD DUP1 SWAP2 SUB SWAP1 RETURN JUMPDEST CALLVALUE DUP1 ISZERO PUSH2 0xD4 JUMPI PUSH0 DUP1 REVERT JUMPDEST POP PUSH2 0xDD PUSH2 0x23A JUMP JUMPDEST PUSH1 0x40 MLOAD PUSH2 0xEA SWAP2 SWAP1 PUSH2 0x9F2 JUMP JUMPDEST PUSH1 0x40 MLOAD DUP1 SWAP2 SUB SWAP1 RETURN JUMPDEST CALLVALUE DUP1 ISZERO PUSH2 0xFE JUMPI PUSH0 DUP1 REVERT JUMPDEST POP PUSH2 0x119 PUSH1 0x4 DUP1 CALLDATASIZE SUB DUP2 ADD SWAP1 PUSH2 0x114 SWAP2 SWAP1 PUSH2 0xA4F JUMP JUMPDEST PUSH2 0x25F JUMP JUMPDEST STOP JUMPDEST CALLVALUE DUP1 ISZERO PUSH2 0x126 JUMPI PUSH0 DUP1 REVERT JUMPDEST POP PUSH2 0x12F PUSH2 0x516 JUMP JUMPDEST PUSH1 0x40 MLOAD PUSH2 0x13C SWAP2 SWAP1 PUSH2 0xAD5 JUMP JUMPDEST PUSH1 0x40 MLOAD DUP1 SWAP2 SUB SWAP1 RETURN JUMPDEST CALLVALUE DUP1 ISZERO PUSH2 0x150 JUMPI PUSH0 DUP1 REVERT JUMPDEST POP PUSH2 0x159 PUSH2 0x53B JUMP JUMPDEST PUSH1 0x40 MLOAD PUSH2 0x166 SWAP2 SWAP1 PUSH2 0x9F2 JUMP JUMPDEST PUSH1 0x40 MLOAD DUP1 SWAP2 SUB SWAP1 RETURN JUMPDEST PUSH2 0x177 PUSH2 0x55E JUMP JUMPDEST STOP JUMPDEST CALLVALUE DUP1 ISZERO PUSH2 0x184 JUMPI PUSH0 DUP1 REVERT JUMPDEST POP PUSH2 0x18D PUSH2 0x778 JUMP JUMPDEST PUSH1 0x40 MLOAD PUSH2 0x19A SWAP2 SWAP1 PUSH2 0x9F2 JUMP JUMPDEST PUSH1 0x40 MLOAD DUP1 SWAP2 SUB SWAP1 RETURN JUMPDEST CALLVALUE DUP1 ISZERO PUSH2 0x1AE JUMPI PUSH0 DUP1 REVERT JUMPDEST POP PUSH2 0x1B7 PUSH2 0x790 JUMP JUMPDEST PUSH1 0x40 MLOAD PUSH2 0x1C4 SWAP2 SWAP1 PUSH2 0x9F2 JUMP JUMPDEST PUSH1 0x40 MLOAD DUP1 SWAP2 SUB SWAP1 RETURN JUMPDEST CALLVALUE DUP1 ISZERO PUSH2 0x1D8 JUMPI PUSH0 DUP1 REVERT JUMPDEST POP PUSH2 0x1E1 PUSH2 0x7A8 JUMP JUMPDEST PUSH1 0x40 MLOAD PUSH2 0x1EE SWAP2 SWAP1 PUSH2 0x9F2 JUMP JUMPDEST PUSH1 0x40 MLOAD DUP1 SWAP2 SUB SWAP1 RETURN JUMPDEST PUSH2 0x211 PUSH1 0x4 DUP1 CALLDATASIZE SUB DUP2 ADD SWAP1 PUSH2 0x20C SWAP2 SWAP1 PUSH2 0xA4F JUMP JUMPDEST PUSH2 0x7CD JUMP JUMPDEST STOP JUMPDEST PUSH0 DUP1 PUSH0 SWAP1 SLOAD SWAP1 PUSH2 0x100 EXP SWAP1 DIV PUSH20 0xFFFFFFFFFFFFFFFFFFFFFFFFFFFFFFFFFFFFFFFF AND SWAP1 POP SWAP1 JUMP JUMPDEST PUSH1 0x2 PUSH0 SWAP1 SLOAD SWAP1 PUSH2 0x100 EXP SWAP1 DIV PUSH20 0xFFFFFFFFFFFFFFFFFFFFFFFFFFFFFFFFFFFFFFFF AND DUP2 JUMP JUMPDEST PUSH0 DUP2 GT PUSH2 0x297 JUMPI PUSH1 0x40 MLOAD PUSH31 0xD8767D00000000000000000000000000000000000000000000000000000000 DUP2 MSTORE PUSH1 0x4 ADD PUSH1 0x40 MLOAD DUP1 SWAP2 SUB SWAP1 REVERT JUMPDEST PUSH1 0x60 PUSH1 0x2 PUSH8 0xFFFFFFFFFFFFFFFF DUP2 GT ISZERO PUSH2 0x2B4 JUMPI PUSH2 0x2B3 PUSH2 0xAEE JUMP JUMPDEST JUMPDEST PUSH1 0x40 MLOAD SWAP1 DUP1 DUP3 MSTORE DUP1 PUSH1 0x20 MUL PUSH1 0x20 ADD DUP3 ADD PUSH1 0x40 MSTORE DUP1 ISZERO PUSH2 0x2E2 JUMPI DUP2 PUSH1 0x20 ADD PUSH1 0x20 DUP3 MUL DUP1 CALLDATASIZE DUP4 CALLDATACOPY DUP1 DUP3 ADD SWAP2 POP POP SWAP1 POP JUMPDEST POP SWAP1 POP PUSH0 DUP1 SLOAD SWAP1 PUSH2 0x100 EXP SWAP1 DIV PUSH20 0xFFFFFFFFFFFFFFFFFFFFFFFFFFFFFFFFFFFFFFFF AND DUP2 PUSH0 DUP2 MLOAD DUP2 LT PUSH2 0x318 JUMPI PUSH2 0x317 PUSH2 0xB1B JUMP JUMPDEST JUMPDEST PUSH1 0x20 MUL PUSH1 0x20 ADD ADD SWAP1 PUSH20 0xFFFFFFFFFFFFFFFFFFFFFFFFFFFFFFFFFFFFFFFF AND SWAP1 DUP2 PUSH20 0xFFFFFFFFFFFFFFFFFFFFFFFFFFFFFFFFFFFFFFFF AND DUP2 MSTORE POP POP PUSH1 0x2 PUSH0 SWAP1 SLOAD SWAP1 PUSH2 0x100 EXP SWAP1 DIV PUSH20 0xFFFFFFFFFFFFFFFFFFFFFFFFFFFFFFFFFFFFFFFF AND DUP2 PUSH1 0x1 DUP2 MLOAD DUP2 LT PUSH2 0x388 JUMPI PUSH2 0x387 PUSH2 0xB1B JUMP JUMPDEST JUMPDEST PUSH1 0x20 MUL PUSH1 0x20 ADD ADD SWAP1 PUSH20 0xFFFFFFFFFFFFFFFFFFFFFFFFFFFFFFFFFFFFFFFF AND SWAP1 DUP2 PUSH20 0xFFFFFFFFFFFFFFFFFFFFFFFFFFFFFFFFFFFFFFFF AND DUP2 MSTORE POP POP PUSH0 DUP1 SLOAD SWAP1 PUSH2 0x100 EXP SWAP1 DIV PUSH20 0xFFFFFFFFFFFFFFFFFFFFFFFFFFFFFFFFFFFFFFFF AND PUSH20 0xFFFFFFFFFFFFFFFFFFFFFFFFFFFFFFFFFFFFFFFF AND PUSH4 0x23B872DD CALLER ADDRESS DUP6 PUSH1 0x40 MLOAD DUP5 PUSH4 0xFFFFFFFF AND PUSH1 0xE0 SHL DUP2 MSTORE PUSH1 0x4 ADD PUSH2 0x41E SWAP4 SWAP3 SWAP2 SWAP1 PUSH2 0xB57 JUMP JUMPDEST PUSH1 0x20 PUSH1 0x40 MLOAD DUP1 DUP4 SUB DUP2 PUSH0 DUP8 GAS CALL ISZERO DUP1 ISZERO PUSH2 0x43A JUMPI RETURNDATASIZE PUSH0 DUP1 RETURNDATACOPY RETURNDATASIZE PUSH0 REVERT JUMPDEST POP POP POP POP PUSH1 0x40 MLOAD RETURNDATASIZE PUSH1 0x1F NOT PUSH1 0x1F DUP3 ADD AND DUP3 ADD DUP1 PUSH1 0x40 MSTORE POP DUP2 ADD SWAP1 PUSH2 0x45E SWAP2 SWAP1 PUSH2 0xBC1 JUMP JUMPDEST POP PUSH1 0x3 PUSH0 SWAP1 SLOAD SWAP1 PUSH2 0x100 EXP SWAP1 DIV PUSH20 0xFFFFFFFFFFFFFFFFFFFFFFFFFFFFFFFFFFFFFFFF AND PUSH20 0xFFFFFFFFFFFFFFFFFFFFFFFFFFFFFFFFFFFFFFFF AND PUSH4 0x18CBAFE5 DUP4 PUSH0 DUP5 CALLER PUSH2 0x168 TIMESTAMP PUSH2 0x4AE SWAP2 SWAP1 PUSH2 0xC19 JUMP JUMPDEST PUSH1 0x40 MLOAD DUP7 PUSH4 0xFFFFFFFF AND PUSH1 0xE0 SHL DUP2 MSTORE PUSH1 0x4 ADD PUSH2 0x4CE SWAP6 SWAP5 SWAP4 SWAP3 SWAP2 SWAP1 PUSH2 0xD3C JUMP JUMPDEST PUSH0 PUSH1 0x40 MLOAD DUP1 DUP4 SUB DUP2 PUSH0 DUP8 GAS CALL ISZERO DUP1 ISZERO PUSH2 0x4E9 JUMPI RETURNDATASIZE PUSH0 DUP1 RETURNDATACOPY RETURNDATASIZE PUSH0 REVERT JUMPDEST POP POP POP POP PUSH1 0x40 MLOAD RETURNDATASIZE PUSH0 DUP3 RETURNDATACOPY RETURNDATASIZE PUSH1 0x1F NOT PUSH1 0x1F DUP3 ADD AND DUP3 ADD DUP1 PUSH1 0x40 MSTORE POP DUP2 ADD SWAP1 PUSH2 0x511 SWAP2 SWAP1 PUSH2 0xECB JUMP JUMPDEST POP POP POP JUMP JUMPDEST PUSH1 0x3 PUSH0 SWAP1 SLOAD SWAP1 PUSH2 0x100 EXP SWAP1 DIV PUSH20 0xFFFFFFFFFFFFFFFFFFFFFFFFFFFFFFFFFFFFFFFF AND DUP2 JUMP JUMPDEST PUSH0 DUP1 SLOAD SWAP1 PUSH2 0x100 EXP SWAP1 DIV PUSH20 0xFFFFFFFFFFFFFFFFFFFFFFFFFFFFFFFFFFFFFFFF AND DUP2 JUMP JUMPDEST PUSH0 CALLVALUE GT PUSH2 0x597 JUMPI PUSH1 0x40 MLOAD PUSH32 0xD73AB2E100000000000000000000000000000000000000000000000000000000 DUP2 MSTORE PUSH1 0x4 ADD PUSH1 0x40 MLOAD DUP1 SWAP2 SUB SWAP1 REVERT JUMPDEST PUSH1 0x60 PUSH1 0x2 PUSH8 0xFFFFFFFFFFFFFFFF DUP2 GT ISZERO PUSH2 0x5B4 JUMPI PUSH2 0x5B3 PUSH2 0xAEE JUMP JUMPDEST JUMPDEST PUSH1 0x40 MLOAD SWAP1 DUP1 DUP3 MSTORE DUP1 PUSH1 0x20 MUL PUSH1 0x20 ADD DUP3 ADD PUSH1 0x40 MSTORE DUP1 ISZERO PUSH2 0x5E2 JUMPI DUP2 PUSH1 0x20 ADD PUSH1 0x20 DUP3 MUL DUP1 CALLDATASIZE DUP4 CALLDATACOPY DUP1 DUP3 ADD SWAP2 POP POP SWAP1 POP JUMPDEST POP SWAP1 POP PUSH1 0x2 PUSH0 SWAP1 SLOAD SWAP1 PUSH2 0x100 EXP SWAP1 DIV PUSH20 0xFFFFFFFFFFFFFFFFFFFFFFFFFFFFFFFFFFFFFFFF AND DUP2 PUSH0 DUP2 MLOAD DUP2 LT PUSH2 0x61A JUMPI PUSH2 0x619 PUSH2 0xB1B JUMP JUMPDEST JUMPDEST PUSH1 0x20 MUL PUSH1 0x20 ADD ADD SWAP1 PUSH20 0xFFFFFFFFFFFFFFFFFFFFFFFFFFFFFFFFFFFFFFFF AND SWAP1 DUP2 PUSH20 0xFFFFFFFFFFFFFFFFFFFFFFFFFFFFFFFFFFFFFFFF AND DUP2 MSTORE POP POP PUSH0 DUP1 SLOAD SWAP1 PUSH2 0x100 EXP SWAP1 DIV PUSH20 0xFFFFFFFFFFFFFFFFFFFFFFFFFFFFFFFFFFFFFFFF AND DUP2 PUSH1 0x1 DUP2 MLOAD DUP2 LT PUSH2 0x688 JUMPI PUSH2 0x687 PUSH2 0xB1B JUMP JUMPDEST JUMPDEST PUSH1 0x20 MUL PUSH1 0x20 ADD ADD SWAP1 PUSH20 0xFFFFFFFFFFFFFFFFFFFFFFFFFFFFFFFFFFFFFFFF AND SWAP1 DUP2 PUSH20 0xFFFFFFFFFFFFFFFFFFFFFFFFFFFFFFFFFFFFFFFF AND DUP2 MSTORE POP POP PUSH1 0x3 PUSH0 SWAP1 SLOAD SWAP1 PUSH2 0x100 EXP SWAP1 DIV PUSH20 0xFFFFFFFFFFFFFFFFFFFFFFFFFFFFFFFFFFFFFFFF AND PUSH20 0xFFFFFFFFFFFFFFFFFFFFFFFFFFFFFFFFFFFFFFFF AND PUSH4 0x7FF36AB5 CALLVALUE PUSH0 DUP5 CALLER PUSH2 0x168 TIMESTAMP PUSH2 0x711 SWAP2 SWAP1 PUSH2 0xC19 JUMP JUMPDEST PUSH1 0x40 MLOAD DUP7 PUSH4 0xFFFFFFFF AND PUSH1 0xE0 SHL DUP2 MSTORE PUSH1 0x4 ADD PUSH2 0x730 SWAP5 SWAP4 SWAP3 SWAP2 SWAP1 PUSH2 0xF12 JUMP JUMPDEST PUSH0 PUSH1 0x40 MLOAD DUP1 DUP4 SUB DUP2 DUP6 DUP9 GAS CALL ISZERO DUP1 ISZERO PUSH2 0x74B JUMPI RETURNDATASIZE PUSH0 DUP1 RETURNDATACOPY RETURNDATASIZE PUSH0 REVERT JUMPDEST POP POP POP POP POP PUSH1 0x40 MLOAD RETURNDATASIZE PUSH0 DUP3 RETURNDATACOPY RETURNDATASIZE PUSH1 0x1F NOT PUSH1 0x1F DUP3 ADD AND DUP3 ADD DUP1 PUSH1 0x40 MSTORE POP DUP2 ADD SWAP1 PUSH2 0x774 SWAP2 SWAP1 PUSH2 0xECB JUMP JUMPDEST POP POP JUMP JUMPDEST PUSH20 0x9FBFA493EC98694256D171171487B9D47D849BA9 DUP2 JUMP JUMPDEST PUSH20 0x50E797F3625EC8785265E1D9BDD4799B97528A1 DUP2 JUMP JUMPDEST PUSH1 0x1 PUSH0 SWAP1 SLOAD SWAP1 PUSH2 0x100 EXP SWAP1 DIV PUSH20 0xFFFFFFFFFFFFFFFFFFFFFFFFFFFFFFFFFFFFFFFF AND DUP2 JUMP JUMPDEST PUSH0 CALLVALUE GT PUSH2 0x806 JUMPI PUSH1 0x40 MLOAD PUSH32 0xD73AB2E100000000000000000000000000000000000000000000000000000000 DUP2 MSTORE PUSH1 0x4 ADD PUSH1 0x40 MLOAD DUP1 SWAP2 SUB SWAP1 REVERT JUMPDEST PUSH0 DUP2 GT PUSH2 0x83E JUMPI PUSH1 0x40 MLOAD PUSH31 0xD8767D00000000000000000000000000000000000000000000000000000000 DUP2 MSTORE PUSH1 0x4 ADD PUSH1 0x40 MLOAD DUP1 SWAP2 SUB SWAP1 REVERT JUMPDEST PUSH0 DUP1 SLOAD SWAP1 PUSH2 0x100 EXP SWAP1 DIV PUSH20 0xFFFFFFFFFFFFFFFFFFFFFFFFFFFFFFFFFFFFFFFF AND PUSH20 0xFFFFFFFFFFFFFFFFFFFFFFFFFFFFFFFFFFFFFFFF AND PUSH4 0x23B872DD CALLER ADDRESS DUP5 PUSH1 0x40 MLOAD DUP5 PUSH4 0xFFFFFFFF AND PUSH1 0xE0 SHL DUP2 MSTORE PUSH1 0x4 ADD PUSH2 0x89A SWAP4 SWAP3 SWAP2 SWAP1 PUSH2 0xB57 JUMP JUMPDEST PUSH1 0x20 PUSH1 0x40 MLOAD DUP1 DUP4 SUB DUP2 PUSH0 DUP8 GAS CALL ISZERO DUP1 ISZERO PUSH2 0x8B6 JUMPI RETURNDATASIZE PUSH0 DUP1 RETURNDATACOPY RETURNDATASIZE PUSH0 REVERT JUMPDEST POP POP POP POP PUSH1 0x40 MLOAD RETURNDATASIZE PUSH1 0x1F NOT PUSH1 0x1F DUP3 ADD AND DUP3 ADD DUP1 PUSH1 0x40 MSTORE POP DUP2 ADD SWAP1 PUSH2 0x8DA SWAP2 SWAP1 PUSH2 0xBC1 JUMP JUMPDEST POP PUSH1 0x3 PUSH0 SWAP1 SLOAD SWAP1 PUSH2 0x100 EXP SWAP1 DIV PUSH20 0xFFFFFFFFFFFFFFFFFFFFFFFFFFFFFFFFFFFFFFFF AND PUSH20 0xFFFFFFFFFFFFFFFFFFFFFFFFFFFFFFFFFFFFFFFF AND PUSH4 0xF305D719 CALLVALUE PUSH0 DUP1 SLOAD SWAP1 PUSH2 0x100 EXP SWAP1 DIV PUSH20 0xFFFFFFFFFFFFFFFFFFFFFFFFFFFFFFFFFFFFFFFF AND DUP5 PUSH0 DUP1 CALLER PUSH2 0x168 TIMESTAMP PUSH2 0x94B SWAP2 SWAP1 PUSH2 0xC19 JUMP JUMPDEST PUSH1 0x40 MLOAD DUP9 PUSH4 0xFFFFFFFF AND PUSH1 0xE0 SHL DUP2 MSTORE PUSH1 0x4 ADD PUSH2 0x96C SWAP7 SWAP6 SWAP5 SWAP4 SWAP3 SWAP2 SWAP1 PUSH2 0xF5C JUMP JUMPDEST PUSH1 0x60 PUSH1 0x40 MLOAD DUP1 DUP4 SUB DUP2 DUP6 DUP9 GAS CALL ISZERO DUP1 ISZERO PUSH2 0x988 JUMPI RETURNDATASIZE PUSH0 DUP1 RETURNDATACOPY RETURNDATASIZE PUSH0 REVERT JUMPDEST POP POP POP POP POP PUSH1 0x40 MLOAD RETURNDATASIZE PUSH1 0x1F NOT PUSH1 0x1F DUP3 ADD AND DUP3 ADD DUP1 PUSH1 0x40 MSTORE POP DUP2 ADD SWAP1 PUSH2 0x9AD SWAP2 SWAP1 PUSH2 0xFBB JUMP JUMPDEST POP POP POP POP JUMP JUMPDEST PUSH0 PUSH20 0xFFFFFFFFFFFFFFFFFFFFFFFFFFFFFFFFFFFFFFFF DUP3 AND SWAP1 POP SWAP2 SWAP1 POP JUMP JUMPDEST PUSH0 PUSH2 0x9DC DUP3 PUSH2 0x9B3 JUMP JUMPDEST SWAP1 POP SWAP2 SWAP1 POP JUMP JUMPDEST PUSH2 0x9EC DUP2 PUSH2 0x9D2 JUMP JUMPDEST DUP3 MSTORE POP POP JUMP JUMPDEST PUSH0 PUSH1 0x20 DUP3 ADD SWAP1 POP PUSH2 0xA05 PUSH0 DUP4 ADD DUP5 PUSH2 0x9E3 JUMP JUMPDEST SWAP3 SWAP2 POP POP JUMP JUMPDEST PUSH0 PUSH1 0x40 MLOAD SWAP1 POP SWAP1 JUMP JUMPDEST PUSH0 DUP1 REVERT JUMPDEST PUSH0 DUP1 REVERT JUMPDEST PUSH0 DUP2 SWAP1 POP SWAP2 SWAP1 POP JUMP JUMPDEST PUSH2 0xA2E DUP2 PUSH2 0xA1C JUMP JUMPDEST DUP2 EQ PUSH2 0xA38 JUMPI PUSH0 DUP1 REVERT JUMPDEST POP JUMP JUMPDEST PUSH0 DUP2 CALLDATALOAD SWAP1 POP PUSH2 0xA49 DUP2 PUSH2 0xA25 JUMP JUMPDEST SWAP3 SWAP2 POP POP JUMP JUMPDEST PUSH0 PUSH1 0x20 DUP3 DUP5 SUB SLT ISZERO PUSH2 0xA64 JUMPI PUSH2 0xA63 PUSH2 0xA14 JUMP JUMPDEST JUMPDEST PUSH0 PUSH2 0xA71 DUP5 DUP3 DUP6 ADD PUSH2 0xA3B JUMP JUMPDEST SWAP2 POP POP SWAP3 SWAP2 POP POP JUMP JUMPDEST PUSH0 DUP2 SWAP1 POP SWAP2 SWAP1 POP JUMP JUMPDEST PUSH0 PUSH2 0xA9D PUSH2 0xA98 PUSH2 0xA93 DUP5 PUSH2 0x9B3 JUMP JUMPDEST PUSH2 0xA7A JUMP JUMPDEST PUSH2 0x9B3 JUMP JUMPDEST SWAP1 POP SWAP2 SWAP1 POP JUMP JUMPDEST PUSH0 PUSH2 0xAAE DUP3 PUSH2 0xA83 JUMP JUMPDEST SWAP1 POP SWAP2 SWAP1 POP JUMP JUMPDEST PUSH0 PUSH2 0xABF DUP3 PUSH2 0xAA4 JUMP JUMPDEST SWAP1 POP SWAP2 SWAP1 POP JUMP JUMPDEST PUSH2 0xACF DUP2 PUSH2 0xAB5 JUMP JUMPDEST DUP3 MSTORE POP POP JUMP JUMPDEST PUSH0 PUSH1 0x20 DUP3 ADD SWAP1 POP PUSH2 0xAE8 PUSH0 DUP4 ADD DUP5 PUSH2 0xAC6 JUMP JUMPDEST SWAP3 SWAP2 POP POP JUMP JUMPDEST PUSH32 0x4E487B7100000000000000000000000000000000000000000000000000000000 PUSH0 MSTORE PUSH1 0x41 PUSH1 0x4 MSTORE PUSH1 0x24 PUSH0 REVERT JUMPDEST PUSH32 0x4E487B7100000000000000000000000000000000000000000000000000000000 PUSH0 MSTORE PUSH1 0x32 PUSH1 0x4 MSTORE PUSH1 0x24 PUSH0 REVERT JUMPDEST PUSH2 0xB51 DUP2 PUSH2 0xA1C JUMP JUMPDEST DUP3 MSTORE POP POP JUMP JUMPDEST PUSH0 PUSH1 0x60 DUP3 ADD SWAP1 POP PUSH2 0xB6A PUSH0 DUP4 ADD DUP7 PUSH2 0x9E3 JUMP JUMPDEST PUSH2 0xB77 PUSH1 0x20 DUP4 ADD DUP6 PUSH2 0x9E3 JUMP JUMPDEST PUSH2 0xB84 PUSH1 0x40 DUP4 ADD DUP5 PUSH2 0xB48 JUMP JUMPDEST SWAP5 SWAP4 POP POP POP POP JUMP JUMPDEST PUSH0 DUP2 ISZERO ISZERO SWAP1 POP SWAP2 SWAP1 POP JUMP JUMPDEST PUSH2 0xBA0 DUP2 PUSH2 0xB8C JUMP JUMPDEST DUP2 EQ PUSH2 0xBAA JUMPI PUSH0 DUP1 REVERT JUMPDEST POP JUMP JUMPDEST PUSH0 DUP2 MLOAD SWAP1 POP PUSH2 0xBBB DUP2 PUSH2 0xB97 JUMP JUMPDEST SWAP3 SWAP2 POP POP JUMP JUMPDEST PUSH0 PUSH1 0x20 DUP3 DUP5 SUB SLT ISZERO PUSH2 0xBD6 JUMPI PUSH2 0xBD5 PUSH2 0xA14 JUMP JUMPDEST JUMPDEST PUSH0 PUSH2 0xBE3 DUP5 DUP3 DUP6 ADD PUSH2 0xBAD JUMP JUMPDEST SWAP2 POP POP SWAP3 SWAP2 POP POP JUMP JUMPDEST PUSH32 0x4E487B7100000000000000000000000000000000000000000000000000000000 PUSH0 MSTORE PUSH1 0x11 PUSH1 0x4 MSTORE PUSH1 0x24 PUSH0 REVERT JUMPDEST PUSH0 PUSH2 0xC23 DUP3 PUSH2 0xA1C JUMP JUMPDEST SWAP2 POP PUSH2 0xC2E DUP4 PUSH2 0xA1C JUMP JUMPDEST SWAP3 POP DUP3 DUP3 ADD SWAP1 POP DUP1 DUP3 GT ISZERO PUSH2 0xC46 JUMPI PUSH2 0xC45 PUSH2 0xBEC JUMP JUMPDEST JUMPDEST SWAP3 SWAP2 POP POP JUMP JUMPDEST PUSH0 DUP2 SWAP1 POP SWAP2 SWAP1 POP JUMP JUMPDEST PUSH0 PUSH2 0xC6F PUSH2 0xC6A PUSH2 0xC65 DUP5 PUSH2 0xC4C JUMP JUMPDEST PUSH2 0xA7A JUMP JUMPDEST PUSH2 0xA1C JUMP JUMPDEST SWAP1 POP SWAP2 SWAP1 POP JUMP JUMPDEST PUSH2 0xC7F DUP2 PUSH2 0xC55 JUMP JUMPDEST DUP3 MSTORE POP POP JUMP JUMPDEST PUSH0 DUP2 MLOAD SWAP1 POP SWAP2 SWAP1 POP JUMP JUMPDEST PUSH0 DUP3 DUP3 MSTORE PUSH1 0x20 DUP3 ADD SWAP1 POP SWAP3 SWAP2 POP POP JUMP JUMPDEST PUSH0 DUP2 SWAP1 POP PUSH1 0x20 DUP3 ADD SWAP1 POP SWAP2 SWAP1 POP JUMP JUMPDEST PUSH2 0xCB7 DUP2 PUSH2 0x9D2 JUMP JUMPDEST DUP3 MSTORE POP POP JUMP JUMPDEST PUSH0 PUSH2 0xCC8 DUP4 DUP4 PUSH2 0xCAE JUMP JUMPDEST PUSH1 0x20 DUP4 ADD SWAP1 POP SWAP3 SWAP2 POP POP JUMP JUMPDEST PUSH0 PUSH1 0x20 DUP3 ADD SWAP1 POP SWAP2 SWAP1 POP JUMP JUMPDEST PUSH0 PUSH2 0xCEA DUP3 PUSH2 0xC85 JUMP JUMPDEST PUSH2 0xCF4 DUP2 DUP6 PUSH2 0xC8F JUMP JUMPDEST SWAP4 POP PUSH2 0xCFF DUP4 PUSH2 0xC9F JUMP JUMPDEST DUP1 PUSH0 JUMPDEST DUP4 DUP2 LT ISZERO PUSH2 0xD2F JUMPI DUP2 MLOAD PUSH2 0xD16 DUP9 DUP3 PUSH2 0xCBD JUMP JUMPDEST SWAP8 POP PUSH2 0xD21 DUP4 PUSH2 0xCD4 JUMP JUMPDEST SWAP3 POP POP PUSH1 0x1 DUP2 ADD SWAP1 POP PUSH2 0xD02 JUMP JUMPDEST POP DUP6 SWAP4 POP POP POP POP SWAP3 SWAP2 POP POP JUMP JUMPDEST PUSH0 PUSH1 0xA0 DUP3 ADD SWAP1 POP PUSH2 0xD4F PUSH0 DUP4 ADD DUP9 PUSH2 0xB48 JUMP JUMPDEST PUSH2 0xD5C PUSH1 0x20 DUP4 ADD DUP8 PUSH2 0xC76 JUMP JUMPDEST DUP2 DUP2 SUB PUSH1 0x40 DUP4 ADD MSTORE PUSH2 0xD6E DUP2 DUP7 PUSH2 0xCE0 JUMP JUMPDEST SWAP1 POP PUSH2 0xD7D PUSH1 0x60 DUP4 ADD DUP6 PUSH2 0x9E3 JUMP JUMPDEST PUSH2 0xD8A PUSH1 0x80 DUP4 ADD DUP5 PUSH2 0xB48 JUMP JUMPDEST SWAP7 SWAP6 POP POP POP POP POP POP JUMP JUMPDEST PUSH0 DUP1 REVERT JUMPDEST PUSH0 PUSH1 0x1F NOT PUSH1 0x1F DUP4 ADD AND SWAP1 POP SWAP2 SWAP1 POP JUMP JUMPDEST PUSH2 0xDB1 DUP3 PUSH2 0xD98 JUMP JUMPDEST DUP2 ADD DUP2 DUP2 LT PUSH8 0xFFFFFFFFFFFFFFFF DUP3 GT OR ISZERO PUSH2 0xDD0 JUMPI PUSH2 0xDCF PUSH2 0xAEE JUMP JUMPDEST JUMPDEST DUP1 PUSH1 0x40 MSTORE POP POP POP JUMP JUMPDEST PUSH0 PUSH2 0xDE2 PUSH2 0xA0B JUMP JUMPDEST SWAP1 POP PUSH2 0xDEE DUP3 DUP3 PUSH2 0xDA8 JUMP JUMPDEST SWAP2 SWAP1 POP JUMP JUMPDEST PUSH0 PUSH8 0xFFFFFFFFFFFFFFFF DUP3 GT ISZERO PUSH2 0xE0D JUMPI PUSH2 0xE0C PUSH2 0xAEE JUMP JUMPDEST JUMPDEST PUSH1 0x20 DUP3 MUL SWAP1 POP PUSH1 0x20 DUP2 ADD SWAP1 POP SWAP2 SWAP1 POP JUMP JUMPDEST PUSH0 DUP1 REVERT JUMPDEST PUSH0 DUP2 MLOAD SWAP1 POP PUSH2 0xE30 DUP2 PUSH2 0xA25 JUMP JUMPDEST SWAP3 SWAP2 POP POP JUMP JUMPDEST PUSH0 PUSH2 0xE48 PUSH2 0xE43 DUP5 PUSH2 0xDF3 JUMP JUMPDEST PUSH2 0xDD9 JUMP JUMPDEST SWAP1 POP DUP1 DUP4 DUP3 MSTORE PUSH1 0x20 DUP3 ADD SWAP1 POP PUSH1 0x20 DUP5 MUL DUP4 ADD DUP6 DUP2 GT ISZERO PUSH2 0xE6B JUMPI PUSH2 0xE6A PUSH2 0xE1E JUMP JUMPDEST JUMPDEST DUP4 JUMPDEST DUP2 DUP2 LT ISZERO PUSH2 0xE94 JUMPI DUP1 PUSH2 0xE80 DUP9 DUP3 PUSH2 0xE22 JUMP JUMPDEST DUP5 MSTORE PUSH1 0x20 DUP5 ADD SWAP4 POP POP PUSH1 0x20 DUP2 ADD SWAP1 POP PUSH2 0xE6D JUMP JUMPDEST POP POP POP SWAP4 SWAP3 POP POP POP JUMP JUMPDEST PUSH0 DUP3 PUSH1 0x1F DUP4 ADD SLT PUSH2 0xEB2 JUMPI PUSH2 0xEB1 PUSH2 0xD94 JUMP JUMPDEST JUMPDEST DUP2 MLOAD PUSH2 0xEC2 DUP5 DUP3 PUSH1 0x20 DUP7 ADD PUSH2 0xE36 JUMP JUMPDEST SWAP2 POP POP SWAP3 SWAP2 POP POP JUMP JUMPDEST PUSH0 PUSH1 0x20 DUP3 DUP5 SUB SLT ISZERO PUSH2 0xEE0 JUMPI PUSH2 0xEDF PUSH2 0xA14 JUMP JUMPDEST JUMPDEST PUSH0 DUP3 ADD MLOAD PUSH8 0xFFFFFFFFFFFFFFFF DUP2 GT ISZERO PUSH2 0xEFD JUMPI PUSH2 0xEFC PUSH2 0xA18 JUMP JUMPDEST JUMPDEST PUSH2 0xF09 DUP5 DUP3 DUP6 ADD PUSH2 0xE9E JUMP JUMPDEST SWAP2 POP POP SWAP3 SWAP2 POP POP JUMP JUMPDEST PUSH0 PUSH1 0x80 DUP3 ADD SWAP1 POP PUSH2 0xF25 PUSH0 DUP4 ADD DUP8 PUSH2 0xC76 JUMP JUMPDEST DUP2 DUP2 SUB PUSH1 0x20 DUP4 ADD MSTORE PUSH2 0xF37 DUP2 DUP7 PUSH2 0xCE0 JUMP JUMPDEST SWAP1 POP PUSH2 0xF46 PUSH1 0x40 DUP4 ADD DUP6 PUSH2 0x9E3 JUMP JUMPDEST PUSH2 0xF53 PUSH1 0x60 DUP4 ADD DUP5 PUSH2 0xB48 JUMP JUMPDEST SWAP6 SWAP5 POP POP POP POP POP JUMP JUMPDEST PUSH0 PUSH1 0xC0 DUP3 ADD SWAP1 POP PUSH2 0xF6F PUSH0 DUP4 ADD DUP10 PUSH2 0x9E3 JUMP JUMPDEST PUSH2 0xF7C PUSH1 0x20 DUP4 ADD DUP9 PUSH2 0xB48 JUMP JUMPDEST PUSH2 0xF89 PUSH1 0x40 DUP4 ADD DUP8 PUSH2 0xC76 JUMP JUMPDEST PUSH2 0xF96 PUSH1 0x60 DUP4 ADD DUP7 PUSH2 0xC76 JUMP JUMPDEST PUSH2 0xFA3 PUSH1 0x80 DUP4 ADD DUP6 PUSH2 0x9E3 JUMP JUMPDEST PUSH2 0xFB0 PUSH1 0xA0 DUP4 ADD DUP5 PUSH2 0xB48 JUMP JUMPDEST SWAP8 SWAP7 POP POP POP POP POP POP POP JUMP JUMPDEST PUSH0 DUP1 PUSH0 PUSH1 0x60 DUP5 DUP7 SUB SLT ISZERO PUSH2 0xFD2 JUMPI PUSH2 0xFD1 PUSH2 0xA14 JUMP JUMPDEST JUMPDEST PUSH0 PUSH2 0xFDF DUP7 DUP3 DUP8 ADD PUSH2 0xE22 JUMP JUMPDEST SWAP4 POP POP PUSH1 0x20 PUSH2 0xFF0 DUP7 DUP3 DUP8 ADD PUSH2 0xE22 JUMP JUMPDEST SWAP3 POP POP PUSH1 0x40 PUSH2 0x1001 DUP7 DUP3 DUP8 ADD PUSH2 0xE22 JUMP JUMPDEST SWAP2 POP POP SWAP3 POP SWAP3 POP SWAP3 JUMP INVALID LOG2 PUSH5 0x6970667358 0x22 SLT KECCAK256 LOG1 PUSH3 0x87BE9E 0xCC 0xE3 BYTE 0x1F 0x22 DELEGATECALL 0xC1 0xA5 0xAD GAS 0x26 PREVRANDAO LT 0xAC 0x27 EQ PUSH3 0xDC42B9 EQ DUP6 PC 0xB9 XOR 0xE1 0xDA PUSH5 0x736F6C6343 STOP ADDMOD BYTE STOP CALLER "
				},
				"gasEstimates": {
					"creation": {
						"codeDepositCost": "832200",
						"executionCost": "infinite",
						"totalCost": "infinite"
					},
					"external": {
						"UNISWAP_V2_FACTORY()": "395",
						"UNISWAP_V2_ROUTER()": "417",
						"addLiquidityETH(uint256)": "infinite",
						"getTokenAddress()": "2516",
						"memeToken()": "2594",
						"pair()": "2574",
						"swapETHForMeme()": "infinite",
						"swapMemeForETH(uint256)": "infinite",
						"uniswapRouter()": "infinite",
						"weth()": "2531"
					}
				},
				"methodIdentifiers": {
					"UNISWAP_V2_FACTORY()": "99d8fae3",
					"UNISWAP_V2_ROUTER()": "a82ed9ec",
					"addLiquidityETH(uint256)": "d06d04cc",
					"getTokenAddress()": "10fe9ae8",
					"memeToken()": "972598e7",
					"pair()": "a8aa1b31",
					"swapETHForMeme()": "97b3d8ca",
					"swapMemeForETH(uint256)": "66dc34a7",
					"uniswapRouter()": "735de9f7",
					"weth()": "3fc8cef3"
				}
			},
			"storageLayout": {
				"storage": [
					{
						"astId": 803,
						"contract": "contracts/build_bounty/prototype/auto_swap_build.sol:LiquidityContract",
						"label": "memeToken",
						"offset": 0,
						"slot": "0",
						"type": "t_address"
					},
					{
						"astId": 805,
						"contract": "contracts/build_bounty/prototype/auto_swap_build.sol:LiquidityContract",
						"label": "pair",
						"offset": 0,
						"slot": "1",
						"type": "t_address"
					},
					{
						"astId": 807,
						"contract": "contracts/build_bounty/prototype/auto_swap_build.sol:LiquidityContract",
						"label": "weth",
						"offset": 0,
						"slot": "2",
						"type": "t_address"
					},
					{
						"astId": 810,
						"contract": "contracts/build_bounty/prototype/auto_swap_build.sol:LiquidityContract",
						"label": "uniswapRouter",
						"offset": 0,
						"slot": "3",
						"type": "t_contract(IUniswapV2Router)1206"
					}
				],
				"types": {
					"t_address": {
						"encoding": "inplace",
						"label": "address",
						"numberOfBytes": "20"
					},
					"t_contract(IUniswapV2Router)1206": {
						"encoding": "inplace",
						"label": "contract IUniswapV2Router",
						"numberOfBytes": "20"
					}
				}
			},
			"userdoc": {
				"kind": "user",
				"methods": {},
				"version": 1
			}
		}
	}
}