{
	"contracts/build_bounty/prototype/durationv2.sol": {
		"DurationTest": {
			"abi": [
				{
					"inputs": [],
					"stateMutability": "nonpayable",
					"type": "constructor"
				},
				{
					"inputs": [
						{
							"internalType": "string",
							"name": "",
							"type": "string"
						}
					],
					"name": "DuplicateUserAdded",
					"type": "error"
				},
				{
					"inputs": [
						{
							"internalType": "string",
							"name": "",
							"type": "string"
						}
					],
					"name": "IneligibleUser",
					"type": "error"
				},
				{
					"inputs": [
						{
							"internalType": "address",
							"name": "_user",
							"type": "address"
						}
					],
					"name": "AddEligibleUser",
					"outputs": [],
					"stateMutability": "nonpayable",
					"type": "function"
				},
				{
					"inputs": [
						{
							"internalType": "address[]",
							"name": "_users",
							"type": "address[]"
						}
					],
					"name": "AddMultipleEliglibleUser",
					"outputs": [],
					"stateMutability": "nonpayable",
					"type": "function"
				},
				{
					"inputs": [],
					"name": "ReadOnlyBalance4Dev",
					"outputs": [
						{
							"internalType": "uint256",
							"name": "",
							"type": "uint256"
						}
					],
					"stateMutability": "view",
					"type": "function"
				},
				{
					"inputs": [
						{
							"internalType": "address",
							"name": "_user",
							"type": "address"
						}
					],
					"name": "RemoveEligibleUser",
					"outputs": [],
					"stateMutability": "nonpayable",
					"type": "function"
				},
				{
					"inputs": [],
					"name": "lis",
					"outputs": [
						{
							"internalType": "address[]",
							"name": "",
							"type": "address[]"
						}
					],
					"stateMutability": "view",
					"type": "function"
				},
				{
					"inputs": [
						{
							"internalType": "address",
							"name": "_user",
							"type": "address"
						}
					],
					"name": "returndf",
					"outputs": [
						{
							"internalType": "uint256",
							"name": "",
							"type": "uint256"
						}
					],
					"stateMutability": "view",
					"type": "function"
				},
				{
					"inputs": [],
					"name": "test5minsClaim",
					"outputs": [
						{
							"internalType": "uint256",
							"name": "",
							"type": "uint256"
						}
					],
					"stateMutability": "nonpayable",
					"type": "function"
				},
				{
					"inputs": [],
					"name": "testClaim",
					"outputs": [
						{
							"internalType": "uint256",
							"name": "",
							"type": "uint256"
						}
					],
					"stateMutability": "nonpayable",
					"type": "function"
				}
			],
			"devdoc": {
				"kind": "dev",
				"methods": {},
				"version": 1
			},
			"evm": {
				"assembly": "    /* \"contracts/build_bounty/prototype/durationv2.sol\":314:4795  contract DurationTest {... */\n  mstore(0x40, 0x0100)\n    /* \"contracts/build_bounty/prototype/durationv2.sol\":495:698  constructor() {... */\n  callvalue\n  dup1\n  iszero\n  tag_1\n  jumpi\n  0x00\n  dup1\n  revert\ntag_1:\n  pop\n    /* \"contracts/build_bounty/prototype/durationv2.sol\":527:569  0x5B38Da6a701c568545dCfcB03FcB875f56beddC4 */\n  0x5b38da6a701c568545dcfcb03fcb875f56beddc4\n    /* \"contracts/build_bounty/prototype/durationv2.sol\":519:569  admin = 0x5B38Da6a701c568545dCfcB03FcB875f56beddC4 */\n  0xffffffffffffffffffffffffffffffffffffffff\n  and\n  0x80\n  dup2\n  0xffffffffffffffffffffffffffffffffffffffff\n  and\n  dup2\n  mstore\n  pop\n  pop\n    /* \"contracts/build_bounty/prototype/durationv2.sol\":592:634  0xa1fFfD1Ae86153799DB6C8c9C0e57602545b280e */\n  0xa1fffd1ae86153799db6c8c9c0e57602545b280e\n    /* \"contracts/build_bounty/prototype/durationv2.sol\":579:634  MOCK_BUILD = 0xa1fFfD1Ae86153799DB6C8c9C0e57602545b280e */\n  0xffffffffffffffffffffffffffffffffffffffff\n  and\n  0xc0\n  dup2\n  0xffffffffffffffffffffffffffffffffffffffff\n  and\n  dup2\n  mstore\n  pop\n  pop\n    /* \"contracts/build_bounty/prototype/durationv2.sol\":658:663  10**7 */\n  0x989680\n    /* \"contracts/build_bounty/prototype/durationv2.sol\":644:663  POOL_AMOUNT = 10**7 */\n  0xe0\n  dup2\n  dup2\n  mstore\n  pop\n  pop\n    /* \"contracts/build_bounty/prototype/durationv2.sol\":683:691  10 weeks */\n  0x5c4900\n    /* \"contracts/build_bounty/prototype/durationv2.sol\":674:691  PERIOD = 10 weeks */\n  0xa0\n  dup2\n  dup2\n  mstore\n  pop\n  pop\n    /* \"contracts/build_bounty/prototype/durationv2.sol\":314:4795  contract DurationTest {... */\n  mload(0x80)\n  mload(0xa0)\n  mload(0xc0)\n  mload(0xe0)\n  codecopy(0x00, dataOffset(sub_0), dataSize(sub_0))\n  0x00\n  assignImmutable(\"0x9cce9eb03c9f29c6481fca9f0f942b15bef0bbbc47fda0ddb44df157019835d9\")\n  0x00\n  assignImmutable(\"0x6585423cb6456b1d4957f6454d2f004f0c4f58d53a00082412d5c2ef4b1b31fd\")\n  0x00\n  assignImmutable(\"0xd4d1a59767271eefdc7830a772b9732a11d503531d972ab8c981a6b1c0e666e5\")\n  0x00\n  assignImmutable(\"0x731dc163f73d31d8c68f9917ce4ff967753939f70432973c04fd2c2a48148607\")\n  return(0x00, dataSize(sub_0))\nstop\n\nsub_0: assembly {\n        /* \"contracts/build_bounty/prototype/durationv2.sol\":314:4795  contract DurationTest {... */\n      mstore(0x40, 0x80)\n      callvalue\n      dup1\n      iszero\n      tag_1\n      jumpi\n      0x00\n      dup1\n      revert\n    tag_1:\n      pop\n      jumpi(tag_2, lt(calldatasize, 0x04))\n      shr(0xe0, calldataload(0x00))\n      dup1\n      0xb7f7e6f0\n      gt\n      tag_11\n      jumpi\n      dup1\n      0xb7f7e6f0\n      eq\n      tag_7\n      jumpi\n      dup1\n      0xc8804c71\n      eq\n      tag_8\n      jumpi\n      dup1\n      0xf33cf57b\n      eq\n      tag_9\n      jumpi\n      dup1\n      0xf615a3f7\n      eq\n      tag_10\n      jumpi\n      jump(tag_2)\n    tag_11:\n      dup1\n      0x5e0ca3b9\n      eq\n      tag_3\n      jumpi\n      dup1\n      0x7a6d918e\n      eq\n      tag_4\n      jumpi\n      dup1\n      0x7eca453d\n      eq\n      tag_5\n      jumpi\n      dup1\n      0xb70cbe35\n      eq\n      tag_6\n      jumpi\n    tag_2:\n      0x00\n      dup1\n      revert\n        /* \"contracts/build_bounty/prototype/durationv2.sol\":1444:1986  function RemoveEligibleUser(address _user) external onlyAdmin {... */\n    tag_3:\n      tag_12\n      0x04\n      dup1\n      calldatasize\n      sub\n      dup2\n      add\n      swap1\n      tag_13\n      swap2\n      swap1\n      tag_14\n      jump\t// in\n    tag_13:\n      tag_15\n      jump\t// in\n    tag_12:\n      stop\n        /* \"contracts/build_bounty/prototype/durationv2.sol\":855:1094  function AddEligibleUser(address _user) external onlyAdmin {... */\n    tag_4:\n      tag_16\n      0x04\n      dup1\n      calldatasize\n      sub\n      dup2\n      add\n      swap1\n      tag_17\n      swap2\n      swap1\n      tag_14\n      jump\t// in\n    tag_17:\n      tag_18\n      jump\t// in\n    tag_16:\n      stop\n        /* \"contracts/build_bounty/prototype/durationv2.sol\":4317:4412  function lis() external view returns (address[] memory) {... */\n    tag_5:\n      tag_19\n      tag_20\n      jump\t// in\n    tag_19:\n      mload(0x40)\n      tag_21\n      swap2\n      swap1\n      tag_22\n      jump\t// in\n    tag_21:\n      mload(0x40)\n      dup1\n      swap2\n      sub\n      swap1\n      return\n        /* \"contracts/build_bounty/prototype/durationv2.sol\":4563:4671  function returndf(address _user) external view returns (uint256) {... */\n    tag_6:\n      tag_23\n      0x04\n      dup1\n      calldatasize\n      sub\n      dup2\n      add\n      swap1\n      tag_24\n      swap2\n      swap1\n      tag_14\n      jump\t// in\n    tag_24:\n      tag_25\n      jump\t// in\n    tag_23:\n      mload(0x40)\n      tag_26\n      swap2\n      swap1\n      tag_27\n      jump\t// in\n    tag_26:\n      mload(0x40)\n      dup1\n      swap2\n      sub\n      swap1\n      return\n        /* \"contracts/build_bounty/prototype/durationv2.sol\":1100:1438  function AddMultipleEliglibleUser(address[] memory _users)... */\n    tag_7:\n      tag_28\n      0x04\n      dup1\n      calldatasize\n      sub\n      dup2\n      add\n      swap1\n      tag_29\n      swap2\n      swap1\n      tag_30\n      jump\t// in\n    tag_29:\n      tag_31\n      jump\t// in\n    tag_28:\n      stop\n        /* \"contracts/build_bounty/prototype/durationv2.sol\":2124:3086  function test5minsClaim() external returns (uint256) {... */\n    tag_8:\n      tag_32\n      tag_33\n      jump\t// in\n    tag_32:\n      mload(0x40)\n      tag_34\n      swap2\n      swap1\n      tag_27\n      jump\t// in\n    tag_34:\n      mload(0x40)\n      dup1\n      swap2\n      sub\n      swap1\n      return\n        /* \"contracts/build_bounty/prototype/durationv2.sol\":3092:4036  function testClaim() external returns (uint256) {... */\n    tag_9:\n      tag_35\n      tag_36\n      jump\t// in\n    tag_35:\n      mload(0x40)\n      tag_37\n      swap2\n      swap1\n      tag_27\n      jump\t// in\n    tag_37:\n      mload(0x40)\n      dup1\n      swap2\n      sub\n      swap1\n      return\n        /* \"contracts/build_bounty/prototype/durationv2.sol\":4418:4557  function ReadOnlyBalance4Dev() external view returns (uint256) {... */\n    tag_10:\n      tag_38\n      tag_39\n      jump\t// in\n    tag_38:\n      mload(0x40)\n      tag_40\n      swap2\n      swap1\n      tag_27\n      jump\t// in\n    tag_40:\n      mload(0x40)\n      dup1\n      swap2\n      sub\n      swap1\n      return\n        /* \"contracts/build_bounty/prototype/durationv2.sol\":1444:1986  function RemoveEligibleUser(address _user) external onlyAdmin {... */\n    tag_15:\n        /* \"contracts/build_bounty/prototype/durationv2.sol\":4725:4735  msg.sender */\n      caller\n        /* \"contracts/build_bounty/prototype/durationv2.sol\":4716:4735  admin == msg.sender */\n      0xffffffffffffffffffffffffffffffffffffffff\n      and\n        /* \"contracts/build_bounty/prototype/durationv2.sol\":4716:4721  admin */\n      immutable(\"0x731dc163f73d31d8c68f9917ce4ff967753939f70432973c04fd2c2a48148607\")\n        /* \"contracts/build_bounty/prototype/durationv2.sol\":4716:4735  admin == msg.sender */\n      0xffffffffffffffffffffffffffffffffffffffff\n      and\n      eq\n        /* \"contracts/build_bounty/prototype/durationv2.sol\":4708:4775  require(admin == msg.sender, \"only admin can invoke this function\") */\n      tag_42\n      jumpi\n      mload(0x40)\n      0x08c379a000000000000000000000000000000000000000000000000000000000\n      dup2\n      mstore\n      0x04\n      add\n      tag_43\n      swap1\n      tag_44\n      jump\t// in\n    tag_43:\n      mload(0x40)\n      dup1\n      swap2\n      sub\n      swap1\n      revert\n    tag_42:\n        /* \"contracts/build_bounty/prototype/durationv2.sol\":1516:1528  uint256 _len */\n      0x00\n        /* \"contracts/build_bounty/prototype/durationv2.sol\":1531:1546  EligibleUserArr */\n      0x01\n        /* \"contracts/build_bounty/prototype/durationv2.sol\":1531:1553  EligibleUserArr.length */\n      dup1\n      sload\n      swap1\n      pop\n        /* \"contracts/build_bounty/prototype/durationv2.sol\":1516:1553  uint256 _len = EligibleUserArr.length */\n      swap1\n      pop\n        /* \"contracts/build_bounty/prototype/durationv2.sol\":1571:1583  EligibleUser */\n      0x00\n        /* \"contracts/build_bounty/prototype/durationv2.sol\":1571:1590  EligibleUser[_user] */\n      dup1\n        /* \"contracts/build_bounty/prototype/durationv2.sol\":1584:1589  _user */\n      dup4\n        /* \"contracts/build_bounty/prototype/durationv2.sol\":1571:1590  EligibleUser[_user] */\n      0xffffffffffffffffffffffffffffffffffffffff\n      and\n      0xffffffffffffffffffffffffffffffffffffffff\n      and\n      dup2\n      mstore\n      0x20\n      add\n      swap1\n      dup2\n      mstore\n      0x20\n      add\n      0x00\n      keccak256\n        /* \"contracts/build_bounty/prototype/durationv2.sol\":1564:1590  delete EligibleUser[_user] */\n      0x00\n      swap1\n      sstore\n        /* \"contracts/build_bounty/prototype/durationv2.sol\":1606:1614  uint16 i */\n      0x00\n        /* \"contracts/build_bounty/prototype/durationv2.sol\":1601:1979  for (uint16 i; i < _len; i++) {... */\n    tag_46:\n        /* \"contracts/build_bounty/prototype/durationv2.sol\":1620:1624  _len */\n      dup2\n        /* \"contracts/build_bounty/prototype/durationv2.sol\":1616:1617  i */\n      dup2\n        /* \"contracts/build_bounty/prototype/durationv2.sol\":1616:1624  i < _len */\n      0xffff\n      and\n      lt\n        /* \"contracts/build_bounty/prototype/durationv2.sol\":1601:1979  for (uint16 i; i < _len; i++) {... */\n      iszero\n      tag_47\n      jumpi\n        /* \"contracts/build_bounty/prototype/durationv2.sol\":1691:1696  _user */\n      dup3\n        /* \"contracts/build_bounty/prototype/durationv2.sol\":1669:1696  EligibleUserArr[i] == _user */\n      0xffffffffffffffffffffffffffffffffffffffff\n      and\n        /* \"contracts/build_bounty/prototype/durationv2.sol\":1669:1684  EligibleUserArr */\n      0x01\n        /* \"contracts/build_bounty/prototype/durationv2.sol\":1685:1686  i */\n      dup3\n        /* \"contracts/build_bounty/prototype/durationv2.sol\":1669:1687  EligibleUserArr[i] */\n      0xffff\n      and\n      dup2\n      sload\n      dup2\n      lt\n      tag_49\n      jumpi\n      tag_50\n      tag_51\n      jump\t// in\n    tag_50:\n    tag_49:\n      swap1\n      0x00\n      mstore\n      keccak256(0x00, 0x20)\n      add\n      0x00\n      swap1\n      sload\n      swap1\n      0x0100\n      exp\n      swap1\n      div\n      0xffffffffffffffffffffffffffffffffffffffff\n      and\n        /* \"contracts/build_bounty/prototype/durationv2.sol\":1669:1696  EligibleUserArr[i] == _user */\n      0xffffffffffffffffffffffffffffffffffffffff\n      and\n      sub\n        /* \"contracts/build_bounty/prototype/durationv2.sol\":1665:1969  if (EligibleUserArr[i] == _user) {... */\n      tag_53\n      jumpi\n        /* \"contracts/build_bounty/prototype/durationv2.sol\":1745:1753  uint16 j */\n      0x00\n        /* \"contracts/build_bounty/prototype/durationv2.sol\":1756:1757  i */\n      dup2\n        /* \"contracts/build_bounty/prototype/durationv2.sol\":1745:1757  uint16 j = i */\n      swap1\n      pop\n        /* \"contracts/build_bounty/prototype/durationv2.sol\":1740:1862  for (uint16 j = i; j < _len - 1; j++) {... */\n    tag_54:\n        /* \"contracts/build_bounty/prototype/durationv2.sol\":1770:1771  1 */\n      0x01\n        /* \"contracts/build_bounty/prototype/durationv2.sol\":1763:1767  _len */\n      dup4\n        /* \"contracts/build_bounty/prototype/durationv2.sol\":1763:1771  _len - 1 */\n      tag_57\n      swap2\n      swap1\n      tag_58\n      jump\t// in\n    tag_57:\n        /* \"contracts/build_bounty/prototype/durationv2.sol\":1759:1760  j */\n      dup2\n        /* \"contracts/build_bounty/prototype/durationv2.sol\":1759:1771  j < _len - 1 */\n      0xffff\n      and\n      lt\n        /* \"contracts/build_bounty/prototype/durationv2.sol\":1740:1862  for (uint16 j = i; j < _len - 1; j++) {... */\n      iszero\n      tag_55\n      jumpi\n        /* \"contracts/build_bounty/prototype/durationv2.sol\":1821:1836  EligibleUserArr */\n      0x01\n        /* \"contracts/build_bounty/prototype/durationv2.sol\":1841:1842  1 */\n      dup1\n        /* \"contracts/build_bounty/prototype/durationv2.sol\":1837:1838  j */\n      dup3\n        /* \"contracts/build_bounty/prototype/durationv2.sol\":1837:1842  j + 1 */\n      tag_59\n      swap2\n      swap1\n      tag_60\n      jump\t// in\n    tag_59:\n        /* \"contracts/build_bounty/prototype/durationv2.sol\":1821:1843  EligibleUserArr[j + 1] */\n      0xffff\n      and\n      dup2\n      sload\n      dup2\n      lt\n      tag_61\n      jumpi\n      tag_62\n      tag_51\n      jump\t// in\n    tag_62:\n    tag_61:\n      swap1\n      0x00\n      mstore\n      keccak256(0x00, 0x20)\n      add\n      0x00\n      swap1\n      sload\n      swap1\n      0x0100\n      exp\n      swap1\n      div\n      0xffffffffffffffffffffffffffffffffffffffff\n      and\n        /* \"contracts/build_bounty/prototype/durationv2.sol\":1800:1815  EligibleUserArr */\n      0x01\n        /* \"contracts/build_bounty/prototype/durationv2.sol\":1816:1817  j */\n      dup3\n        /* \"contracts/build_bounty/prototype/durationv2.sol\":1800:1818  EligibleUserArr[j] */\n      0xffff\n      and\n      dup2\n      sload\n      dup2\n      lt\n      tag_64\n      jumpi\n      tag_65\n      tag_51\n      jump\t// in\n    tag_65:\n    tag_64:\n      swap1\n      0x00\n      mstore\n      keccak256(0x00, 0x20)\n      add\n      0x00\n        /* \"contracts/build_bounty/prototype/durationv2.sol\":1800:1843  EligibleUserArr[j] = EligibleUserArr[j + 1] */\n      0x0100\n      exp\n      dup2\n      sload\n      dup2\n      0xffffffffffffffffffffffffffffffffffffffff\n      mul\n      not\n      and\n      swap1\n      dup4\n      0xffffffffffffffffffffffffffffffffffffffff\n      and\n      mul\n      or\n      swap1\n      sstore\n      pop\n        /* \"contracts/build_bounty/prototype/durationv2.sol\":1773:1776  j++ */\n      dup1\n      dup1\n      tag_67\n      swap1\n      tag_68\n      jump\t// in\n    tag_67:\n      swap2\n      pop\n      pop\n        /* \"contracts/build_bounty/prototype/durationv2.sol\":1740:1862  for (uint16 j = i; j < _len - 1; j++) {... */\n      jump(tag_54)\n    tag_55:\n      pop\n        /* \"contracts/build_bounty/prototype/durationv2.sol\":1910:1925  EligibleUserArr */\n      0x01\n        /* \"contracts/build_bounty/prototype/durationv2.sol\":1910:1931  EligibleUserArr.pop() */\n      dup1\n      sload\n      dup1\n      tag_69\n      jumpi\n      tag_70\n      tag_71\n      jump\t// in\n    tag_70:\n    tag_69:\n      0x01\n      swap1\n      sub\n      dup2\n      dup2\n      swap1\n      0x00\n      mstore\n      keccak256(0x00, 0x20)\n      add\n      exp(0x0100, 0x00)\n      dup2\n      sload\n      swap1\n      0xffffffffffffffffffffffffffffffffffffffff\n      mul\n      not\n      and\n      swap1\n      sstore\n      swap1\n      sstore\n        /* \"contracts/build_bounty/prototype/durationv2.sol\":1949:1954  break */\n      jump(tag_47)\n        /* \"contracts/build_bounty/prototype/durationv2.sol\":1665:1969  if (EligibleUserArr[i] == _user) {... */\n    tag_53:\n        /* \"contracts/build_bounty/prototype/durationv2.sol\":1626:1629  i++ */\n      dup1\n      dup1\n      tag_73\n      swap1\n      tag_68\n      jump\t// in\n    tag_73:\n      swap2\n      pop\n      pop\n        /* \"contracts/build_bounty/prototype/durationv2.sol\":1601:1979  for (uint16 i; i < _len; i++) {... */\n      jump(tag_46)\n    tag_47:\n      pop\n        /* \"contracts/build_bounty/prototype/durationv2.sol\":1506:1986  {... */\n      pop\n        /* \"contracts/build_bounty/prototype/durationv2.sol\":1444:1986  function RemoveEligibleUser(address _user) external onlyAdmin {... */\n      pop\n      jump\t// out\n        /* \"contracts/build_bounty/prototype/durationv2.sol\":855:1094  function AddEligibleUser(address _user) external onlyAdmin {... */\n    tag_18:\n        /* \"contracts/build_bounty/prototype/durationv2.sol\":4725:4735  msg.sender */\n      caller\n        /* \"contracts/build_bounty/prototype/durationv2.sol\":4716:4735  admin == msg.sender */\n      0xffffffffffffffffffffffffffffffffffffffff\n      and\n        /* \"contracts/build_bounty/prototype/durationv2.sol\":4716:4721  admin */\n      immutable(\"0x731dc163f73d31d8c68f9917ce4ff967753939f70432973c04fd2c2a48148607\")\n        /* \"contracts/build_bounty/prototype/durationv2.sol\":4716:4735  admin == msg.sender */\n      0xffffffffffffffffffffffffffffffffffffffff\n      and\n      eq\n        /* \"contracts/build_bounty/prototype/durationv2.sol\":4708:4775  require(admin == msg.sender, \"only admin can invoke this function\") */\n      tag_75\n      jumpi\n      mload(0x40)\n      0x08c379a000000000000000000000000000000000000000000000000000000000\n      dup2\n      mstore\n      0x04\n      add\n      tag_76\n      swap1\n      tag_44\n      jump\t// in\n    tag_76:\n      mload(0x40)\n      dup1\n      swap2\n      sub\n      swap1\n      revert\n    tag_75:\n        /* \"contracts/build_bounty/prototype/durationv2.sol\":950:951  0 */\n      0x00\n        /* \"contracts/build_bounty/prototype/durationv2.sol\":928:940  EligibleUser */\n      dup1\n        /* \"contracts/build_bounty/prototype/durationv2.sol\":928:947  EligibleUser[_user] */\n      0x00\n        /* \"contracts/build_bounty/prototype/durationv2.sol\":941:946  _user */\n      dup4\n        /* \"contracts/build_bounty/prototype/durationv2.sol\":928:947  EligibleUser[_user] */\n      0xffffffffffffffffffffffffffffffffffffffff\n      and\n      0xffffffffffffffffffffffffffffffffffffffff\n      and\n      dup2\n      mstore\n      0x20\n      add\n      swap1\n      dup2\n      mstore\n      0x20\n      add\n      0x00\n      keccak256\n      sload\n        /* \"contracts/build_bounty/prototype/durationv2.sol\":928:951  EligibleUser[_user] > 0 */\n      gt\n        /* \"contracts/build_bounty/prototype/durationv2.sol\":924:1017  if (EligibleUser[_user] > 0) {... */\n      iszero\n      tag_78\n      jumpi\n        /* \"contracts/build_bounty/prototype/durationv2.sol\":974:1006  DuplicateUserAdded(\"User exist\") */\n      mload(0x40)\n      0x0e64c65800000000000000000000000000000000000000000000000000000000\n      dup2\n      mstore\n      0x04\n      add\n      tag_79\n      swap1\n      tag_80\n      jump\t// in\n    tag_79:\n      mload(0x40)\n      dup1\n      swap2\n      sub\n      swap1\n      revert\n        /* \"contracts/build_bounty/prototype/durationv2.sol\":924:1017  if (EligibleUser[_user] > 0) {... */\n    tag_78:\n        /* \"contracts/build_bounty/prototype/durationv2.sol\":1049:1050  1 */\n      0x01\n        /* \"contracts/build_bounty/prototype/durationv2.sol\":1027:1039  EligibleUser */\n      0x00\n        /* \"contracts/build_bounty/prototype/durationv2.sol\":1027:1046  EligibleUser[_user] */\n      dup1\n        /* \"contracts/build_bounty/prototype/durationv2.sol\":1040:1045  _user */\n      dup4\n        /* \"contracts/build_bounty/prototype/durationv2.sol\":1027:1046  EligibleUser[_user] */\n      0xffffffffffffffffffffffffffffffffffffffff\n      and\n      0xffffffffffffffffffffffffffffffffffffffff\n      and\n      dup2\n      mstore\n      0x20\n      add\n      swap1\n      dup2\n      mstore\n      0x20\n      add\n      0x00\n      keccak256\n        /* \"contracts/build_bounty/prototype/durationv2.sol\":1027:1050  EligibleUser[_user] = 1 */\n      dup2\n      swap1\n      sstore\n      pop\n        /* \"contracts/build_bounty/prototype/durationv2.sol\":1060:1075  EligibleUserArr */\n      0x01\n        /* \"contracts/build_bounty/prototype/durationv2.sol\":1081:1086  _user */\n      dup2\n        /* \"contracts/build_bounty/prototype/durationv2.sol\":1060:1087  EligibleUserArr.push(_user) */\n      swap1\n      dup1\n      0x01\n      dup2\n      sload\n      add\n      dup1\n      dup3\n      sstore\n      dup1\n      swap2\n      pop\n      pop\n      0x01\n      swap1\n      sub\n      swap1\n      0x00\n      mstore\n      keccak256(0x00, 0x20)\n      add\n      0x00\n      swap1\n      swap2\n      swap1\n      swap2\n      swap1\n      swap2\n      0x0100\n      exp\n      dup2\n      sload\n      dup2\n      0xffffffffffffffffffffffffffffffffffffffff\n      mul\n      not\n      and\n      swap1\n      dup4\n      0xffffffffffffffffffffffffffffffffffffffff\n      and\n      mul\n      or\n      swap1\n      sstore\n      pop\n        /* \"contracts/build_bounty/prototype/durationv2.sol\":855:1094  function AddEligibleUser(address _user) external onlyAdmin {... */\n      pop\n      jump\t// out\n        /* \"contracts/build_bounty/prototype/durationv2.sol\":4317:4412  function lis() external view returns (address[] memory) {... */\n    tag_20:\n        /* \"contracts/build_bounty/prototype/durationv2.sol\":4355:4371  address[] memory */\n      0x60\n        /* \"contracts/build_bounty/prototype/durationv2.sol\":4390:4405  EligibleUserArr */\n      0x01\n        /* \"contracts/build_bounty/prototype/durationv2.sol\":4383:4405  return EligibleUserArr */\n      dup1\n      sload\n      dup1\n      0x20\n      mul\n      0x20\n      add\n      mload(0x40)\n      swap1\n      dup2\n      add\n      0x40\n      mstore\n      dup1\n      swap3\n      swap2\n      swap1\n      dup2\n      dup2\n      mstore\n      0x20\n      add\n      dup3\n      dup1\n      sload\n      dup1\n      iszero\n      tag_83\n      jumpi\n      0x20\n      mul\n      dup3\n      add\n      swap2\n      swap1\n      0x00\n      mstore\n      keccak256(0x00, 0x20)\n      swap1\n    tag_84:\n      dup2\n      0x00\n      swap1\n      sload\n      swap1\n      0x0100\n      exp\n      swap1\n      div\n      0xffffffffffffffffffffffffffffffffffffffff\n      and\n      0xffffffffffffffffffffffffffffffffffffffff\n      and\n      dup2\n      mstore\n      0x20\n      add\n      swap1\n      0x01\n      add\n      swap1\n      dup1\n      dup4\n      gt\n      tag_84\n      jumpi\n    tag_83:\n      pop\n      pop\n      pop\n      pop\n      pop\n      swap1\n      pop\n        /* \"contracts/build_bounty/prototype/durationv2.sol\":4317:4412  function lis() external view returns (address[] memory) {... */\n      swap1\n      jump\t// out\n        /* \"contracts/build_bounty/prototype/durationv2.sol\":4563:4671  function returndf(address _user) external view returns (uint256) {... */\n    tag_25:\n        /* \"contracts/build_bounty/prototype/durationv2.sol\":4619:4626  uint256 */\n      0x00\n        /* \"contracts/build_bounty/prototype/durationv2.sol\":4645:4657  EligibleUser */\n      dup1\n        /* \"contracts/build_bounty/prototype/durationv2.sol\":4645:4664  EligibleUser[_user] */\n      0x00\n        /* \"contracts/build_bounty/prototype/durationv2.sol\":4658:4663  _user */\n      dup4\n        /* \"contracts/build_bounty/prototype/durationv2.sol\":4645:4664  EligibleUser[_user] */\n      0xffffffffffffffffffffffffffffffffffffffff\n      and\n      0xffffffffffffffffffffffffffffffffffffffff\n      and\n      dup2\n      mstore\n      0x20\n      add\n      swap1\n      dup2\n      mstore\n      0x20\n      add\n      0x00\n      keccak256\n      sload\n        /* \"contracts/build_bounty/prototype/durationv2.sol\":4638:4664  return EligibleUser[_user] */\n      swap1\n      pop\n        /* \"contracts/build_bounty/prototype/durationv2.sol\":4563:4671  function returndf(address _user) external view returns (uint256) {... */\n      swap2\n      swap1\n      pop\n      jump\t// out\n        /* \"contracts/build_bounty/prototype/durationv2.sol\":1100:1438  function AddMultipleEliglibleUser(address[] memory _users)... */\n    tag_31:\n        /* \"contracts/build_bounty/prototype/durationv2.sol\":4725:4735  msg.sender */\n      caller\n        /* \"contracts/build_bounty/prototype/durationv2.sol\":4716:4735  admin == msg.sender */\n      0xffffffffffffffffffffffffffffffffffffffff\n      and\n        /* \"contracts/build_bounty/prototype/durationv2.sol\":4716:4721  admin */\n      immutable(\"0x731dc163f73d31d8c68f9917ce4ff967753939f70432973c04fd2c2a48148607\")\n        /* \"contracts/build_bounty/prototype/durationv2.sol\":4716:4735  admin == msg.sender */\n      0xffffffffffffffffffffffffffffffffffffffff\n      and\n      eq\n        /* \"contracts/build_bounty/prototype/durationv2.sol\":4708:4775  require(admin == msg.sender, \"only admin can invoke this function\") */\n      tag_87\n      jumpi\n      mload(0x40)\n      0x08c379a000000000000000000000000000000000000000000000000000000000\n      dup2\n      mstore\n      0x04\n      add\n      tag_88\n      swap1\n      tag_44\n      jump\t// in\n    tag_88:\n      mload(0x40)\n      dup1\n      swap2\n      sub\n      swap1\n      revert\n    tag_87:\n        /* \"contracts/build_bounty/prototype/durationv2.sol\":1213:1221  uint16 i */\n      0x00\n        /* \"contracts/build_bounty/prototype/durationv2.sol\":1208:1432  for (uint16 i; i < _users.length; i++) {... */\n    tag_90:\n        /* \"contracts/build_bounty/prototype/durationv2.sol\":1227:1233  _users */\n      dup2\n        /* \"contracts/build_bounty/prototype/durationv2.sol\":1227:1240  _users.length */\n      mload\n        /* \"contracts/build_bounty/prototype/durationv2.sol\":1223:1224  i */\n      dup2\n        /* \"contracts/build_bounty/prototype/durationv2.sol\":1223:1240  i < _users.length */\n      0xffff\n      and\n      lt\n        /* \"contracts/build_bounty/prototype/durationv2.sol\":1208:1432  for (uint16 i; i < _users.length; i++) {... */\n      iszero\n      tag_91\n      jumpi\n        /* \"contracts/build_bounty/prototype/durationv2.sol\":1291:1292  0 */\n      0x00\n        /* \"contracts/build_bounty/prototype/durationv2.sol\":1265:1277  EligibleUser */\n      dup1\n        /* \"contracts/build_bounty/prototype/durationv2.sol\":1265:1288  EligibleUser[_users[i]] */\n      0x00\n        /* \"contracts/build_bounty/prototype/durationv2.sol\":1278:1284  _users */\n      dup5\n        /* \"contracts/build_bounty/prototype/durationv2.sol\":1285:1286  i */\n      dup5\n        /* \"contracts/build_bounty/prototype/durationv2.sol\":1278:1287  _users[i] */\n      0xffff\n      and\n      dup2\n      mload\n      dup2\n      lt\n      tag_93\n      jumpi\n      tag_94\n      tag_51\n      jump\t// in\n    tag_94:\n    tag_93:\n      0x20\n      mul\n      0x20\n      add\n      add\n      mload\n        /* \"contracts/build_bounty/prototype/durationv2.sol\":1265:1288  EligibleUser[_users[i]] */\n      0xffffffffffffffffffffffffffffffffffffffff\n      and\n      0xffffffffffffffffffffffffffffffffffffffff\n      and\n      dup2\n      mstore\n      0x20\n      add\n      swap1\n      dup2\n      mstore\n      0x20\n      add\n      0x00\n      keccak256\n      sload\n        /* \"contracts/build_bounty/prototype/durationv2.sol\":1265:1292  EligibleUser[_users[i]] > 0 */\n      gt\n        /* \"contracts/build_bounty/prototype/durationv2.sol\":1312:1320  continue */\n      tag_92\n        /* \"contracts/build_bounty/prototype/durationv2.sol\":1261:1335  if (EligibleUser[_users[i]] > 0) {... */\n      jumpi\n        /* \"contracts/build_bounty/prototype/durationv2.sol\":1375:1376  1 */\n      0x01\n        /* \"contracts/build_bounty/prototype/durationv2.sol\":1349:1361  EligibleUser */\n      0x00\n        /* \"contracts/build_bounty/prototype/durationv2.sol\":1349:1372  EligibleUser[_users[i]] */\n      dup1\n        /* \"contracts/build_bounty/prototype/durationv2.sol\":1362:1368  _users */\n      dup5\n        /* \"contracts/build_bounty/prototype/durationv2.sol\":1369:1370  i */\n      dup5\n        /* \"contracts/build_bounty/prototype/durationv2.sol\":1362:1371  _users[i] */\n      0xffff\n      and\n      dup2\n      mload\n      dup2\n      lt\n      tag_96\n      jumpi\n      tag_97\n      tag_51\n      jump\t// in\n    tag_97:\n    tag_96:\n      0x20\n      mul\n      0x20\n      add\n      add\n      mload\n        /* \"contracts/build_bounty/prototype/durationv2.sol\":1349:1372  EligibleUser[_users[i]] */\n      0xffffffffffffffffffffffffffffffffffffffff\n      and\n      0xffffffffffffffffffffffffffffffffffffffff\n      and\n      dup2\n      mstore\n      0x20\n      add\n      swap1\n      dup2\n      mstore\n      0x20\n      add\n      0x00\n      keccak256\n        /* \"contracts/build_bounty/prototype/durationv2.sol\":1349:1376  EligibleUser[_users[i]] = 1 */\n      dup2\n      swap1\n      sstore\n      pop\n        /* \"contracts/build_bounty/prototype/durationv2.sol\":1390:1405  EligibleUserArr */\n      0x01\n        /* \"contracts/build_bounty/prototype/durationv2.sol\":1411:1417  _users */\n      dup3\n        /* \"contracts/build_bounty/prototype/durationv2.sol\":1418:1419  i */\n      dup3\n        /* \"contracts/build_bounty/prototype/durationv2.sol\":1411:1420  _users[i] */\n      0xffff\n      and\n      dup2\n      mload\n      dup2\n      lt\n      tag_98\n      jumpi\n      tag_99\n      tag_51\n      jump\t// in\n    tag_99:\n    tag_98:\n      0x20\n      mul\n      0x20\n      add\n      add\n      mload\n        /* \"contracts/build_bounty/prototype/durationv2.sol\":1390:1421  EligibleUserArr.push(_users[i]) */\n      swap1\n      dup1\n      0x01\n      dup2\n      sload\n      add\n      dup1\n      dup3\n      sstore\n      dup1\n      swap2\n      pop\n      pop\n      0x01\n      swap1\n      sub\n      swap1\n      0x00\n      mstore\n      keccak256(0x00, 0x20)\n      add\n      0x00\n      swap1\n      swap2\n      swap1\n      swap2\n      swap1\n      swap2\n      0x0100\n      exp\n      dup2\n      sload\n      dup2\n      0xffffffffffffffffffffffffffffffffffffffff\n      mul\n      not\n      and\n      swap1\n      dup4\n      0xffffffffffffffffffffffffffffffffffffffff\n      and\n      mul\n      or\n      swap1\n      sstore\n      pop\n        /* \"contracts/build_bounty/prototype/durationv2.sol\":1208:1432  for (uint16 i; i < _users.length; i++) {... */\n    tag_92:\n        /* \"contracts/build_bounty/prototype/durationv2.sol\":1242:1245  i++ */\n      dup1\n      dup1\n      tag_101\n      swap1\n      tag_68\n      jump\t// in\n    tag_101:\n      swap2\n      pop\n      pop\n        /* \"contracts/build_bounty/prototype/durationv2.sol\":1208:1432  for (uint16 i; i < _users.length; i++) {... */\n      jump(tag_90)\n    tag_91:\n      pop\n        /* \"contracts/build_bounty/prototype/durationv2.sol\":1100:1438  function AddMultipleEliglibleUser(address[] memory _users)... */\n      pop\n      jump\t// out\n        /* \"contracts/build_bounty/prototype/durationv2.sol\":2124:3086  function test5minsClaim() external returns (uint256) {... */\n    tag_33:\n        /* \"contracts/build_bounty/prototype/durationv2.sol\":2168:2175  uint256 */\n      0x00\n        /* \"contracts/build_bounty/prototype/durationv2.sol\":2187:2204  uint256 _lastTime */\n      dup1\n        /* \"contracts/build_bounty/prototype/durationv2.sol\":2214:2232  uint256 _totalUser */\n      0x00\n        /* \"contracts/build_bounty/prototype/durationv2.sol\":2235:2250  EligibleUserArr */\n      0x01\n        /* \"contracts/build_bounty/prototype/durationv2.sol\":2235:2257  EligibleUserArr.length */\n      dup1\n      sload\n      swap1\n      pop\n        /* \"contracts/build_bounty/prototype/durationv2.sol\":2214:2257  uint256 _totalUser = EligibleUserArr.length */\n      swap1\n      pop\n        /* \"contracts/build_bounty/prototype/durationv2.sol\":2299:2300  0 */\n      0x00\n        /* \"contracts/build_bounty/prototype/durationv2.sol\":2271:2283  EligibleUser */\n      dup1\n        /* \"contracts/build_bounty/prototype/durationv2.sol\":2271:2295  EligibleUser[msg.sender] */\n      0x00\n        /* \"contracts/build_bounty/prototype/durationv2.sol\":2284:2294  msg.sender */\n      caller\n        /* \"contracts/build_bounty/prototype/durationv2.sol\":2271:2295  EligibleUser[msg.sender] */\n      0xffffffffffffffffffffffffffffffffffffffff\n      and\n      0xffffffffffffffffffffffffffffffffffffffff\n      and\n      dup2\n      mstore\n      0x20\n      add\n      swap1\n      dup2\n      mstore\n      0x20\n      add\n      0x00\n      keccak256\n      sload\n        /* \"contracts/build_bounty/prototype/durationv2.sol\":2271:2300  EligibleUser[msg.sender] == 0 */\n      sub\n        /* \"contracts/build_bounty/prototype/durationv2.sol\":2267:2373  if (EligibleUser[msg.sender] == 0) {... */\n      tag_103\n      jumpi\n        /* \"contracts/build_bounty/prototype/durationv2.sol\":2323:2362  IneligibleUser(\"Not an eligible user!\") */\n      mload(0x40)\n      0xb8fdf0b000000000000000000000000000000000000000000000000000000000\n      dup2\n      mstore\n      0x04\n      add\n      tag_104\n      swap1\n      tag_105\n      jump\t// in\n    tag_104:\n      mload(0x40)\n      dup1\n      swap2\n      sub\n      swap1\n      revert\n        /* \"contracts/build_bounty/prototype/durationv2.sol\":2267:2373  if (EligibleUser[msg.sender] == 0) {... */\n    tag_103:\n        /* \"contracts/build_bounty/prototype/durationv2.sol\":2415:2416  1 */\n      0x01\n        /* \"contracts/build_bounty/prototype/durationv2.sol\":2387:2399  EligibleUser */\n      0x00\n        /* \"contracts/build_bounty/prototype/durationv2.sol\":2387:2411  EligibleUser[msg.sender] */\n      dup1\n        /* \"contracts/build_bounty/prototype/durationv2.sol\":2400:2410  msg.sender */\n      caller\n        /* \"contracts/build_bounty/prototype/durationv2.sol\":2387:2411  EligibleUser[msg.sender] */\n      0xffffffffffffffffffffffffffffffffffffffff\n      and\n      0xffffffffffffffffffffffffffffffffffffffff\n      and\n      dup2\n      mstore\n      0x20\n      add\n      swap1\n      dup2\n      mstore\n      0x20\n      add\n      0x00\n      keccak256\n      sload\n        /* \"contracts/build_bounty/prototype/durationv2.sol\":2387:2416  EligibleUser[msg.sender] == 1 */\n      sub\n        /* \"contracts/build_bounty/prototype/durationv2.sol\":2383:2536  if (EligibleUser[msg.sender] == 1) {... */\n      tag_106\n      jumpi\n        /* \"contracts/build_bounty/prototype/durationv2.sol\":2524:2525  1 */\n      0x01\n        /* \"contracts/build_bounty/prototype/durationv2.sol\":2511:2520  5 minutes */\n      0x012c\n        /* \"contracts/build_bounty/prototype/durationv2.sol\":2484:2496  EligibleUser */\n      0x00\n        /* \"contracts/build_bounty/prototype/durationv2.sol\":2484:2508  EligibleUser[msg.sender] */\n      dup1\n        /* \"contracts/build_bounty/prototype/durationv2.sol\":2497:2507  msg.sender */\n      caller\n        /* \"contracts/build_bounty/prototype/durationv2.sol\":2484:2508  EligibleUser[msg.sender] */\n      0xffffffffffffffffffffffffffffffffffffffff\n      and\n      0xffffffffffffffffffffffffffffffffffffffff\n      and\n      dup2\n      mstore\n      0x20\n      add\n      swap1\n      dup2\n      mstore\n      0x20\n      add\n      0x00\n      keccak256\n      sload\n        /* \"contracts/build_bounty/prototype/durationv2.sol\":2484:2520  EligibleUser[msg.sender] + 5 minutes */\n      tag_107\n      swap2\n      swap1\n      tag_108\n      jump\t// in\n    tag_107:\n        /* \"contracts/build_bounty/prototype/durationv2.sol\":2483:2525  (EligibleUser[msg.sender] + 5 minutes) - 1 */\n      tag_109\n      swap2\n      swap1\n      tag_58\n      jump\t// in\n    tag_109:\n        /* \"contracts/build_bounty/prototype/durationv2.sol\":2471:2525  _lastTime = (EligibleUser[msg.sender] + 5 minutes) - 1 */\n      swap2\n      pop\n        /* \"contracts/build_bounty/prototype/durationv2.sol\":2383:2536  if (EligibleUser[msg.sender] == 1) {... */\n    tag_106:\n        /* \"contracts/build_bounty/prototype/durationv2.sol\":2587:2596  5 minutes */\n      0x012c\n        /* \"contracts/build_bounty/prototype/durationv2.sol\":2559:2571  EligibleUser */\n      0x00\n        /* \"contracts/build_bounty/prototype/durationv2.sol\":2559:2583  EligibleUser[msg.sender] */\n      dup1\n        /* \"contracts/build_bounty/prototype/durationv2.sol\":2572:2582  msg.sender */\n      caller\n        /* \"contracts/build_bounty/prototype/durationv2.sol\":2559:2583  EligibleUser[msg.sender] */\n      0xffffffffffffffffffffffffffffffffffffffff\n      and\n      0xffffffffffffffffffffffffffffffffffffffff\n      and\n      dup2\n      mstore\n      0x20\n      add\n      swap1\n      dup2\n      mstore\n      0x20\n      add\n      0x00\n      keccak256\n      sload\n        /* \"contracts/build_bounty/prototype/durationv2.sol\":2559:2596  EligibleUser[msg.sender] +  5 minutes */\n      tag_110\n      swap2\n      swap1\n      tag_108\n      jump\t// in\n    tag_110:\n        /* \"contracts/build_bounty/prototype/durationv2.sol\":2546:2597  _lastTime = (EligibleUser[msg.sender] +  5 minutes) */\n      swap2\n      pop\n        /* \"contracts/build_bounty/prototype/durationv2.sol\":2635:2644  _lastTime */\n      dup2\n        /* \"contracts/build_bounty/prototype/durationv2.sol\":2616:2631  block.timestamp */\n      timestamp\n        /* \"contracts/build_bounty/prototype/durationv2.sol\":2616:2644  block.timestamp >= _lastTime */\n      lt\n      iszero\n        /* \"contracts/build_bounty/prototype/durationv2.sol\":2608:2670  require(block.timestamp >= _lastTime, \"Claim after 5 minutes\") */\n      tag_111\n      jumpi\n      mload(0x40)\n      0x08c379a000000000000000000000000000000000000000000000000000000000\n      dup2\n      mstore\n      0x04\n      add\n      tag_112\n      swap1\n      tag_113\n      jump\t// in\n    tag_112:\n      mload(0x40)\n      dup1\n      swap2\n      sub\n      swap1\n      revert\n    tag_111:\n        /* \"contracts/build_bounty/prototype/durationv2.sol\":2747:2748  0 */\n      0x00\n        /* \"contracts/build_bounty/prototype/durationv2.sol\":2708:2718  MOCK_BUILD */\n      immutable(\"0x6585423cb6456b1d4957f6454d2f004f0c4f58d53a00082412d5c2ef4b1b31fd\")\n        /* \"contracts/build_bounty/prototype/durationv2.sol\":2701:2729  IERC20(MOCK_BUILD).balanceOf */\n      0xffffffffffffffffffffffffffffffffffffffff\n      and\n      0x70a08231\n        /* \"contracts/build_bounty/prototype/durationv2.sol\":2738:2742  this */\n      address\n        /* \"contracts/build_bounty/prototype/durationv2.sol\":2701:2744  IERC20(MOCK_BUILD).balanceOf(address(this)) */\n      mload(0x40)\n      dup3\n      0xffffffff\n      and\n      0xe0\n      shl\n      dup2\n      mstore\n      0x04\n      add\n      tag_114\n      swap2\n      swap1\n      tag_115\n      jump\t// in\n    tag_114:\n      0x20\n      mload(0x40)\n      dup1\n      dup4\n      sub\n      dup2\n      dup7\n      gas\n      staticcall\n      iszero\n      dup1\n      iszero\n      tag_117\n      jumpi\n      returndatasize\n      0x00\n      dup1\n      returndatacopy\n      revert(0x00, returndatasize)\n    tag_117:\n      pop\n      pop\n      pop\n      pop\n      mload(0x40)\n      returndatasize\n      not(0x1f)\n      0x1f\n      dup3\n      add\n      and\n      dup3\n      add\n      dup1\n      0x40\n      mstore\n      pop\n      dup2\n      add\n      swap1\n      tag_118\n      swap2\n      swap1\n      tag_119\n      jump\t// in\n    tag_118:\n        /* \"contracts/build_bounty/prototype/durationv2.sol\":2701:2748  IERC20(MOCK_BUILD).balanceOf(address(this)) > 0 */\n      gt\n        /* \"contracts/build_bounty/prototype/durationv2.sol\":2680:2786  require(... */\n      tag_120\n      jumpi\n      mload(0x40)\n      0x08c379a000000000000000000000000000000000000000000000000000000000\n      dup2\n      mstore\n      0x04\n      add\n      tag_121\n      swap1\n      tag_122\n      jump\t// in\n    tag_121:\n      mload(0x40)\n      dup1\n      swap2\n      sub\n      swap1\n      revert\n    tag_120:\n        /* \"contracts/build_bounty/prototype/durationv2.sol\":2906:2926  uint256 each_portion */\n      0x00\n        /* \"contracts/build_bounty/prototype/durationv2.sol\":2934:2944  _totalUser */\n      dup2\n        /* \"contracts/build_bounty/prototype/durationv2.sol\":2929:2931  10 */\n      0x0a\n        /* \"contracts/build_bounty/prototype/durationv2.sol\":2929:2944  10 / _totalUser */\n      tag_123\n      swap2\n      swap1\n      tag_124\n      jump\t// in\n    tag_123:\n        /* \"contracts/build_bounty/prototype/durationv2.sol\":2906:2944  uint256 each_portion = 10 / _totalUser */\n      swap1\n      pop\n        /* \"contracts/build_bounty/prototype/durationv2.sol\":2962:2972  MOCK_BUILD */\n      immutable(\"0x6585423cb6456b1d4957f6454d2f004f0c4f58d53a00082412d5c2ef4b1b31fd\")\n        /* \"contracts/build_bounty/prototype/durationv2.sol\":2955:2982  IERC20(MOCK_BUILD).transfer */\n      0xffffffffffffffffffffffffffffffffffffffff\n      and\n      0xa9059cbb\n        /* \"contracts/build_bounty/prototype/durationv2.sol\":2983:2993  msg.sender */\n      caller\n        /* \"contracts/build_bounty/prototype/durationv2.sol\":2995:3007  each_portion */\n      dup4\n        /* \"contracts/build_bounty/prototype/durationv2.sol\":2955:3008  IERC20(MOCK_BUILD).transfer(msg.sender, each_portion) */\n      mload(0x40)\n      dup4\n      0xffffffff\n      and\n      0xe0\n      shl\n      dup2\n      mstore\n      0x04\n      add\n      tag_125\n      swap3\n      swap2\n      swap1\n      tag_126\n      jump\t// in\n    tag_125:\n      0x20\n      mload(0x40)\n      dup1\n      dup4\n      sub\n      dup2\n      0x00\n      dup8\n      gas\n      call\n      iszero\n      dup1\n      iszero\n      tag_128\n      jumpi\n      returndatasize\n      0x00\n      dup1\n      returndatacopy\n      revert(0x00, returndatasize)\n    tag_128:\n      pop\n      pop\n      pop\n      pop\n      mload(0x40)\n      returndatasize\n      not(0x1f)\n      0x1f\n      dup3\n      add\n      and\n      dup3\n      add\n      dup1\n      0x40\n      mstore\n      pop\n      dup2\n      add\n      swap1\n      tag_129\n      swap2\n      swap1\n      tag_130\n      jump\t// in\n    tag_129:\n      pop\n        /* \"contracts/build_bounty/prototype/durationv2.sol\":3046:3061  block.timestamp */\n      timestamp\n        /* \"contracts/build_bounty/prototype/durationv2.sol\":3019:3031  EligibleUser */\n      0x00\n        /* \"contracts/build_bounty/prototype/durationv2.sol\":3019:3043  EligibleUser[msg.sender] */\n      dup1\n        /* \"contracts/build_bounty/prototype/durationv2.sol\":3032:3042  msg.sender */\n      caller\n        /* \"contracts/build_bounty/prototype/durationv2.sol\":3019:3043  EligibleUser[msg.sender] */\n      0xffffffffffffffffffffffffffffffffffffffff\n      and\n      0xffffffffffffffffffffffffffffffffffffffff\n      and\n      dup2\n      mstore\n      0x20\n      add\n      swap1\n      dup2\n      mstore\n      0x20\n      add\n      0x00\n      keccak256\n        /* \"contracts/build_bounty/prototype/durationv2.sol\":3019:3061  EligibleUser[msg.sender] = block.timestamp */\n      dup2\n      swap1\n      sstore\n      pop\n        /* \"contracts/build_bounty/prototype/durationv2.sol\":3078:3079  0 */\n      0x00\n        /* \"contracts/build_bounty/prototype/durationv2.sol\":3071:3079  return 0 */\n      swap4\n      pop\n      pop\n      pop\n      pop\n        /* \"contracts/build_bounty/prototype/durationv2.sol\":2124:3086  function test5minsClaim() external returns (uint256) {... */\n      swap1\n      jump\t// out\n        /* \"contracts/build_bounty/prototype/durationv2.sol\":3092:4036  function testClaim() external returns (uint256) {... */\n    tag_36:\n        /* \"contracts/build_bounty/prototype/durationv2.sol\":3131:3138  uint256 */\n      0x00\n        /* \"contracts/build_bounty/prototype/durationv2.sol\":3150:3167  uint256 _lastTime */\n      dup1\n        /* \"contracts/build_bounty/prototype/durationv2.sol\":3177:3195  uint256 _totalUser */\n      0x00\n        /* \"contracts/build_bounty/prototype/durationv2.sol\":3198:3213  EligibleUserArr */\n      0x01\n        /* \"contracts/build_bounty/prototype/durationv2.sol\":3198:3220  EligibleUserArr.length */\n      dup1\n      sload\n      swap1\n      pop\n        /* \"contracts/build_bounty/prototype/durationv2.sol\":3177:3220  uint256 _totalUser = EligibleUserArr.length */\n      swap1\n      pop\n        /* \"contracts/build_bounty/prototype/durationv2.sol\":3262:3263  0 */\n      0x00\n        /* \"contracts/build_bounty/prototype/durationv2.sol\":3234:3246  EligibleUser */\n      dup1\n        /* \"contracts/build_bounty/prototype/durationv2.sol\":3234:3258  EligibleUser[msg.sender] */\n      0x00\n        /* \"contracts/build_bounty/prototype/durationv2.sol\":3247:3257  msg.sender */\n      caller\n        /* \"contracts/build_bounty/prototype/durationv2.sol\":3234:3258  EligibleUser[msg.sender] */\n      0xffffffffffffffffffffffffffffffffffffffff\n      and\n      0xffffffffffffffffffffffffffffffffffffffff\n      and\n      dup2\n      mstore\n      0x20\n      add\n      swap1\n      dup2\n      mstore\n      0x20\n      add\n      0x00\n      keccak256\n      sload\n        /* \"contracts/build_bounty/prototype/durationv2.sol\":3234:3263  EligibleUser[msg.sender] == 0 */\n      sub\n        /* \"contracts/build_bounty/prototype/durationv2.sol\":3230:3336  if (EligibleUser[msg.sender] == 0) {... */\n      tag_132\n      jumpi\n        /* \"contracts/build_bounty/prototype/durationv2.sol\":3286:3325  IneligibleUser(\"Not an eligible user!\") */\n      mload(0x40)\n      0xb8fdf0b000000000000000000000000000000000000000000000000000000000\n      dup2\n      mstore\n      0x04\n      add\n      tag_133\n      swap1\n      tag_105\n      jump\t// in\n    tag_133:\n      mload(0x40)\n      dup1\n      swap2\n      sub\n      swap1\n      revert\n        /* \"contracts/build_bounty/prototype/durationv2.sol\":3230:3336  if (EligibleUser[msg.sender] == 0) {... */\n    tag_132:\n        /* \"contracts/build_bounty/prototype/durationv2.sol\":3378:3379  1 */\n      0x01\n        /* \"contracts/build_bounty/prototype/durationv2.sol\":3350:3362  EligibleUser */\n      0x00\n        /* \"contracts/build_bounty/prototype/durationv2.sol\":3350:3374  EligibleUser[msg.sender] */\n      dup1\n        /* \"contracts/build_bounty/prototype/durationv2.sol\":3363:3373  msg.sender */\n      caller\n        /* \"contracts/build_bounty/prototype/durationv2.sol\":3350:3374  EligibleUser[msg.sender] */\n      0xffffffffffffffffffffffffffffffffffffffff\n      and\n      0xffffffffffffffffffffffffffffffffffffffff\n      and\n      dup2\n      mstore\n      0x20\n      add\n      swap1\n      dup2\n      mstore\n      0x20\n      add\n      0x00\n      keccak256\n      sload\n        /* \"contracts/build_bounty/prototype/durationv2.sol\":3350:3379  EligibleUser[msg.sender] == 1 */\n      sub\n        /* \"contracts/build_bounty/prototype/durationv2.sol\":3346:3497  if (EligibleUser[msg.sender] == 1) {... */\n      tag_134\n      jumpi\n        /* \"contracts/build_bounty/prototype/durationv2.sol\":3485:3486  1 */\n      0x01\n        /* \"contracts/build_bounty/prototype/durationv2.sol\":3474:3481  1 weeks */\n      0x093a80\n        /* \"contracts/build_bounty/prototype/durationv2.sol\":3447:3459  EligibleUser */\n      0x00\n        /* \"contracts/build_bounty/prototype/durationv2.sol\":3447:3471  EligibleUser[msg.sender] */\n      dup1\n        /* \"contracts/build_bounty/prototype/durationv2.sol\":3460:3470  msg.sender */\n      caller\n        /* \"contracts/build_bounty/prototype/durationv2.sol\":3447:3471  EligibleUser[msg.sender] */\n      0xffffffffffffffffffffffffffffffffffffffff\n      and\n      0xffffffffffffffffffffffffffffffffffffffff\n      and\n      dup2\n      mstore\n      0x20\n      add\n      swap1\n      dup2\n      mstore\n      0x20\n      add\n      0x00\n      keccak256\n      sload\n        /* \"contracts/build_bounty/prototype/durationv2.sol\":3447:3481  EligibleUser[msg.sender] + 1 weeks */\n      tag_135\n      swap2\n      swap1\n      tag_108\n      jump\t// in\n    tag_135:\n        /* \"contracts/build_bounty/prototype/durationv2.sol\":3446:3486  (EligibleUser[msg.sender] + 1 weeks) - 1 */\n      tag_136\n      swap2\n      swap1\n      tag_58\n      jump\t// in\n    tag_136:\n        /* \"contracts/build_bounty/prototype/durationv2.sol\":3434:3486  _lastTime = (EligibleUser[msg.sender] + 1 weeks) - 1 */\n      swap2\n      pop\n        /* \"contracts/build_bounty/prototype/durationv2.sol\":3346:3497  if (EligibleUser[msg.sender] == 1) {... */\n    tag_134:\n        /* \"contracts/build_bounty/prototype/durationv2.sol\":3547:3554  1 weeks */\n      0x093a80\n        /* \"contracts/build_bounty/prototype/durationv2.sol\":3520:3532  EligibleUser */\n      0x00\n        /* \"contracts/build_bounty/prototype/durationv2.sol\":3520:3544  EligibleUser[msg.sender] */\n      dup1\n        /* \"contracts/build_bounty/prototype/durationv2.sol\":3533:3543  msg.sender */\n      caller\n        /* \"contracts/build_bounty/prototype/durationv2.sol\":3520:3544  EligibleUser[msg.sender] */\n      0xffffffffffffffffffffffffffffffffffffffff\n      and\n      0xffffffffffffffffffffffffffffffffffffffff\n      and\n      dup2\n      mstore\n      0x20\n      add\n      swap1\n      dup2\n      mstore\n      0x20\n      add\n      0x00\n      keccak256\n      sload\n        /* \"contracts/build_bounty/prototype/durationv2.sol\":3520:3554  EligibleUser[msg.sender] + 1 weeks */\n      tag_137\n      swap2\n      swap1\n      tag_108\n      jump\t// in\n    tag_137:\n        /* \"contracts/build_bounty/prototype/durationv2.sol\":3507:3555  _lastTime = (EligibleUser[msg.sender] + 1 weeks) */\n      swap2\n      pop\n        /* \"contracts/build_bounty/prototype/durationv2.sol\":3593:3602  _lastTime */\n      dup2\n        /* \"contracts/build_bounty/prototype/durationv2.sol\":3574:3589  block.timestamp */\n      timestamp\n        /* \"contracts/build_bounty/prototype/durationv2.sol\":3574:3602  block.timestamp >= _lastTime */\n      lt\n      iszero\n        /* \"contracts/build_bounty/prototype/durationv2.sol\":3566:3620  require(block.timestamp >= _lastTime, \"Once per week\") */\n      tag_138\n      jumpi\n      mload(0x40)\n      0x08c379a000000000000000000000000000000000000000000000000000000000\n      dup2\n      mstore\n      0x04\n      add\n      tag_139\n      swap1\n      tag_140\n      jump\t// in\n    tag_139:\n      mload(0x40)\n      dup1\n      swap2\n      sub\n      swap1\n      revert\n    tag_138:\n        /* \"contracts/build_bounty/prototype/durationv2.sol\":3697:3698  0 */\n      0x00\n        /* \"contracts/build_bounty/prototype/durationv2.sol\":3658:3668  MOCK_BUILD */\n      immutable(\"0x6585423cb6456b1d4957f6454d2f004f0c4f58d53a00082412d5c2ef4b1b31fd\")\n        /* \"contracts/build_bounty/prototype/durationv2.sol\":3651:3679  IERC20(MOCK_BUILD).balanceOf */\n      0xffffffffffffffffffffffffffffffffffffffff\n      and\n      0x70a08231\n        /* \"contracts/build_bounty/prototype/durationv2.sol\":3688:3692  this */\n      address\n        /* \"contracts/build_bounty/prototype/durationv2.sol\":3651:3694  IERC20(MOCK_BUILD).balanceOf(address(this)) */\n      mload(0x40)\n      dup3\n      0xffffffff\n      and\n      0xe0\n      shl\n      dup2\n      mstore\n      0x04\n      add\n      tag_141\n      swap2\n      swap1\n      tag_115\n      jump\t// in\n    tag_141:\n      0x20\n      mload(0x40)\n      dup1\n      dup4\n      sub\n      dup2\n      dup7\n      gas\n      staticcall\n      iszero\n      dup1\n      iszero\n      tag_143\n      jumpi\n      returndatasize\n      0x00\n      dup1\n      returndatacopy\n      revert(0x00, returndatasize)\n    tag_143:\n      pop\n      pop\n      pop\n      pop\n      mload(0x40)\n      returndatasize\n      not(0x1f)\n      0x1f\n      dup3\n      add\n      and\n      dup3\n      add\n      dup1\n      0x40\n      mstore\n      pop\n      dup2\n      add\n      swap1\n      tag_144\n      swap2\n      swap1\n      tag_119\n      jump\t// in\n    tag_144:\n        /* \"contracts/build_bounty/prototype/durationv2.sol\":3651:3698  IERC20(MOCK_BUILD).balanceOf(address(this)) > 0 */\n      gt\n        /* \"contracts/build_bounty/prototype/durationv2.sol\":3630:3736  require(... */\n      tag_145\n      jumpi\n      mload(0x40)\n      0x08c379a000000000000000000000000000000000000000000000000000000000\n      dup2\n      mstore\n      0x04\n      add\n      tag_146\n      swap1\n      tag_122\n      jump\t// in\n    tag_146:\n      mload(0x40)\n      dup1\n      swap2\n      sub\n      swap1\n      revert\n    tag_145:\n        /* \"contracts/build_bounty/prototype/durationv2.sol\":3856:3876  uint256 each_portion */\n      0x00\n        /* \"contracts/build_bounty/prototype/durationv2.sol\":3884:3894  _totalUser */\n      dup2\n        /* \"contracts/build_bounty/prototype/durationv2.sol\":3879:3881  10 */\n      0x0a\n        /* \"contracts/build_bounty/prototype/durationv2.sol\":3879:3894  10 / _totalUser */\n      tag_147\n      swap2\n      swap1\n      tag_124\n      jump\t// in\n    tag_147:\n        /* \"contracts/build_bounty/prototype/durationv2.sol\":3856:3894  uint256 each_portion = 10 / _totalUser */\n      swap1\n      pop\n        /* \"contracts/build_bounty/prototype/durationv2.sol\":3912:3922  MOCK_BUILD */\n      immutable(\"0x6585423cb6456b1d4957f6454d2f004f0c4f58d53a00082412d5c2ef4b1b31fd\")\n        /* \"contracts/build_bounty/prototype/durationv2.sol\":3905:3932  IERC20(MOCK_BUILD).transfer */\n      0xffffffffffffffffffffffffffffffffffffffff\n      and\n      0xa9059cbb\n        /* \"contracts/build_bounty/prototype/durationv2.sol\":3933:3943  msg.sender */\n      caller\n        /* \"contracts/build_bounty/prototype/durationv2.sol\":3945:3957  each_portion */\n      dup4\n        /* \"contracts/build_bounty/prototype/durationv2.sol\":3905:3958  IERC20(MOCK_BUILD).transfer(msg.sender, each_portion) */\n      mload(0x40)\n      dup4\n      0xffffffff\n      and\n      0xe0\n      shl\n      dup2\n      mstore\n      0x04\n      add\n      tag_148\n      swap3\n      swap2\n      swap1\n      tag_126\n      jump\t// in\n    tag_148:\n      0x20\n      mload(0x40)\n      dup1\n      dup4\n      sub\n      dup2\n      0x00\n      dup8\n      gas\n      call\n      iszero\n      dup1\n      iszero\n      tag_150\n      jumpi\n      returndatasize\n      0x00\n      dup1\n      returndatacopy\n      revert(0x00, returndatasize)\n    tag_150:\n      pop\n      pop\n      pop\n      pop\n      mload(0x40)\n      returndatasize\n      not(0x1f)\n      0x1f\n      dup3\n      add\n      and\n      dup3\n      add\n      dup1\n      0x40\n      mstore\n      pop\n      dup2\n      add\n      swap1\n      tag_151\n      swap2\n      swap1\n      tag_130\n      jump\t// in\n    tag_151:\n      pop\n        /* \"contracts/build_bounty/prototype/durationv2.sol\":3996:4011  block.timestamp */\n      timestamp\n        /* \"contracts/build_bounty/prototype/durationv2.sol\":3969:3981  EligibleUser */\n      0x00\n        /* \"contracts/build_bounty/prototype/durationv2.sol\":3969:3993  EligibleUser[msg.sender] */\n      dup1\n        /* \"contracts/build_bounty/prototype/durationv2.sol\":3982:3992  msg.sender */\n      caller\n        /* \"contracts/build_bounty/prototype/durationv2.sol\":3969:3993  EligibleUser[msg.sender] */\n      0xffffffffffffffffffffffffffffffffffffffff\n      and\n      0xffffffffffffffffffffffffffffffffffffffff\n      and\n      dup2\n      mstore\n      0x20\n      add\n      swap1\n      dup2\n      mstore\n      0x20\n      add\n      0x00\n      keccak256\n        /* \"contracts/build_bounty/prototype/durationv2.sol\":3969:4011  EligibleUser[msg.sender] = block.timestamp */\n      dup2\n      swap1\n      sstore\n      pop\n        /* \"contracts/build_bounty/prototype/durationv2.sol\":4028:4029  0 */\n      0x00\n        /* \"contracts/build_bounty/prototype/durationv2.sol\":4021:4029  return 0 */\n      swap4\n      pop\n      pop\n      pop\n      pop\n        /* \"contracts/build_bounty/prototype/durationv2.sol\":3092:4036  function testClaim() external returns (uint256) {... */\n      swap1\n      jump\t// out\n        /* \"contracts/build_bounty/prototype/durationv2.sol\":4418:4557  function ReadOnlyBalance4Dev() external view returns (uint256) {... */\n    tag_39:\n        /* \"contracts/build_bounty/prototype/durationv2.sol\":4472:4479  uint256 */\n      0x00\n        /* \"contracts/build_bounty/prototype/durationv2.sol\":4544:4550  10**18 */\n      0x0de0b6b3a7640000\n        /* \"contracts/build_bounty/prototype/durationv2.sol\":4505:4515  MOCK_BUILD */\n      immutable(\"0x6585423cb6456b1d4957f6454d2f004f0c4f58d53a00082412d5c2ef4b1b31fd\")\n        /* \"contracts/build_bounty/prototype/durationv2.sol\":4498:4526  IERC20(MOCK_BUILD).balanceOf */\n      0xffffffffffffffffffffffffffffffffffffffff\n      and\n      0x70a08231\n        /* \"contracts/build_bounty/prototype/durationv2.sol\":4535:4539  this */\n      address\n        /* \"contracts/build_bounty/prototype/durationv2.sol\":4498:4541  IERC20(MOCK_BUILD).balanceOf(address(this)) */\n      mload(0x40)\n      dup3\n      0xffffffff\n      and\n      0xe0\n      shl\n      dup2\n      mstore\n      0x04\n      add\n      tag_153\n      swap2\n      swap1\n      tag_115\n      jump\t// in\n    tag_153:\n      0x20\n      mload(0x40)\n      dup1\n      dup4\n      sub\n      dup2\n      dup7\n      gas\n      staticcall\n      iszero\n      dup1\n      iszero\n      tag_155\n      jumpi\n      returndatasize\n      0x00\n      dup1\n      returndatacopy\n      revert(0x00, returndatasize)\n    tag_155:\n      pop\n      pop\n      pop\n      pop\n      mload(0x40)\n      returndatasize\n      not(0x1f)\n      0x1f\n      dup3\n      add\n      and\n      dup3\n      add\n      dup1\n      0x40\n      mstore\n      pop\n      dup2\n      add\n      swap1\n      tag_156\n      swap2\n      swap1\n      tag_119\n      jump\t// in\n    tag_156:\n        /* \"contracts/build_bounty/prototype/durationv2.sol\":4498:4550  IERC20(MOCK_BUILD).balanceOf(address(this)) / 10**18 */\n      tag_157\n      swap2\n      swap1\n      tag_124\n      jump\t// in\n    tag_157:\n        /* \"contracts/build_bounty/prototype/durationv2.sol\":4491:4550  return IERC20(MOCK_BUILD).balanceOf(address(this)) / 10**18 */\n      swap1\n      pop\n        /* \"contracts/build_bounty/prototype/durationv2.sol\":4418:4557  function ReadOnlyBalance4Dev() external view returns (uint256) {... */\n      swap1\n      jump\t// out\n        /* \"#utility.yul\":7:82   */\n    tag_158:\n        /* \"#utility.yul\":40:46   */\n      0x00\n        /* \"#utility.yul\":73:75   */\n      0x40\n        /* \"#utility.yul\":67:76   */\n      mload\n        /* \"#utility.yul\":57:76   */\n      swap1\n      pop\n        /* \"#utility.yul\":7:82   */\n      swap1\n      jump\t// out\n        /* \"#utility.yul\":88:205   */\n    tag_159:\n        /* \"#utility.yul\":197:198   */\n      0x00\n        /* \"#utility.yul\":194:195   */\n      dup1\n        /* \"#utility.yul\":187:199   */\n      revert\n        /* \"#utility.yul\":211:328   */\n    tag_160:\n        /* \"#utility.yul\":320:321   */\n      0x00\n        /* \"#utility.yul\":317:318   */\n      dup1\n        /* \"#utility.yul\":310:322   */\n      revert\n        /* \"#utility.yul\":334:460   */\n    tag_161:\n        /* \"#utility.yul\":371:378   */\n      0x00\n        /* \"#utility.yul\":411:453   */\n      0xffffffffffffffffffffffffffffffffffffffff\n        /* \"#utility.yul\":404:409   */\n      dup3\n        /* \"#utility.yul\":400:454   */\n      and\n        /* \"#utility.yul\":389:454   */\n      swap1\n      pop\n        /* \"#utility.yul\":334:460   */\n      swap2\n      swap1\n      pop\n      jump\t// out\n        /* \"#utility.yul\":466:562   */\n    tag_162:\n        /* \"#utility.yul\":503:510   */\n      0x00\n        /* \"#utility.yul\":532:556   */\n      tag_211\n        /* \"#utility.yul\":550:555   */\n      dup3\n        /* \"#utility.yul\":532:556   */\n      tag_161\n      jump\t// in\n    tag_211:\n        /* \"#utility.yul\":521:556   */\n      swap1\n      pop\n        /* \"#utility.yul\":466:562   */\n      swap2\n      swap1\n      pop\n      jump\t// out\n        /* \"#utility.yul\":568:690   */\n    tag_163:\n        /* \"#utility.yul\":641:665   */\n      tag_213\n        /* \"#utility.yul\":659:664   */\n      dup2\n        /* \"#utility.yul\":641:665   */\n      tag_162\n      jump\t// in\n    tag_213:\n        /* \"#utility.yul\":634:639   */\n      dup2\n        /* \"#utility.yul\":631:666   */\n      eq\n        /* \"#utility.yul\":621:684   */\n      tag_214\n      jumpi\n        /* \"#utility.yul\":680:681   */\n      0x00\n        /* \"#utility.yul\":677:678   */\n      dup1\n        /* \"#utility.yul\":670:682   */\n      revert\n        /* \"#utility.yul\":621:684   */\n    tag_214:\n        /* \"#utility.yul\":568:690   */\n      pop\n      jump\t// out\n        /* \"#utility.yul\":696:835   */\n    tag_164:\n        /* \"#utility.yul\":742:747   */\n      0x00\n        /* \"#utility.yul\":780:786   */\n      dup2\n        /* \"#utility.yul\":767:787   */\n      calldataload\n        /* \"#utility.yul\":758:787   */\n      swap1\n      pop\n        /* \"#utility.yul\":796:829   */\n      tag_216\n        /* \"#utility.yul\":823:828   */\n      dup2\n        /* \"#utility.yul\":796:829   */\n      tag_163\n      jump\t// in\n    tag_216:\n        /* \"#utility.yul\":696:835   */\n      swap3\n      swap2\n      pop\n      pop\n      jump\t// out\n        /* \"#utility.yul\":841:1170   */\n    tag_14:\n        /* \"#utility.yul\":900:906   */\n      0x00\n        /* \"#utility.yul\":949:951   */\n      0x20\n        /* \"#utility.yul\":937:946   */\n      dup3\n        /* \"#utility.yul\":928:935   */\n      dup5\n        /* \"#utility.yul\":924:947   */\n      sub\n        /* \"#utility.yul\":920:952   */\n      slt\n        /* \"#utility.yul\":917:1036   */\n      iszero\n      tag_218\n      jumpi\n        /* \"#utility.yul\":955:1034   */\n      tag_219\n      tag_159\n      jump\t// in\n    tag_219:\n        /* \"#utility.yul\":917:1036   */\n    tag_218:\n        /* \"#utility.yul\":1075:1076   */\n      0x00\n        /* \"#utility.yul\":1100:1153   */\n      tag_220\n        /* \"#utility.yul\":1145:1152   */\n      dup5\n        /* \"#utility.yul\":1136:1142   */\n      dup3\n        /* \"#utility.yul\":1125:1134   */\n      dup6\n        /* \"#utility.yul\":1121:1143   */\n      add\n        /* \"#utility.yul\":1100:1153   */\n      tag_164\n      jump\t// in\n    tag_220:\n        /* \"#utility.yul\":1090:1153   */\n      swap2\n      pop\n        /* \"#utility.yul\":1046:1163   */\n      pop\n        /* \"#utility.yul\":841:1170   */\n      swap3\n      swap2\n      pop\n      pop\n      jump\t// out\n        /* \"#utility.yul\":1176:1290   */\n    tag_165:\n        /* \"#utility.yul\":1243:1249   */\n      0x00\n        /* \"#utility.yul\":1277:1282   */\n      dup2\n        /* \"#utility.yul\":1271:1283   */\n      mload\n        /* \"#utility.yul\":1261:1283   */\n      swap1\n      pop\n        /* \"#utility.yul\":1176:1290   */\n      swap2\n      swap1\n      pop\n      jump\t// out\n        /* \"#utility.yul\":1296:1480   */\n    tag_166:\n        /* \"#utility.yul\":1395:1406   */\n      0x00\n        /* \"#utility.yul\":1429:1435   */\n      dup3\n        /* \"#utility.yul\":1424:1427   */\n      dup3\n        /* \"#utility.yul\":1417:1436   */\n      mstore\n        /* \"#utility.yul\":1469:1473   */\n      0x20\n        /* \"#utility.yul\":1464:1467   */\n      dup3\n        /* \"#utility.yul\":1460:1474   */\n      add\n        /* \"#utility.yul\":1445:1474   */\n      swap1\n      pop\n        /* \"#utility.yul\":1296:1480   */\n      swap3\n      swap2\n      pop\n      pop\n      jump\t// out\n        /* \"#utility.yul\":1486:1618   */\n    tag_167:\n        /* \"#utility.yul\":1553:1557   */\n      0x00\n        /* \"#utility.yul\":1576:1579   */\n      dup2\n        /* \"#utility.yul\":1568:1579   */\n      swap1\n      pop\n        /* \"#utility.yul\":1606:1610   */\n      0x20\n        /* \"#utility.yul\":1601:1604   */\n      dup3\n        /* \"#utility.yul\":1597:1611   */\n      add\n        /* \"#utility.yul\":1589:1611   */\n      swap1\n      pop\n        /* \"#utility.yul\":1486:1618   */\n      swap2\n      swap1\n      pop\n      jump\t// out\n        /* \"#utility.yul\":1624:1732   */\n    tag_168:\n        /* \"#utility.yul\":1701:1725   */\n      tag_225\n        /* \"#utility.yul\":1719:1724   */\n      dup2\n        /* \"#utility.yul\":1701:1725   */\n      tag_162\n      jump\t// in\n    tag_225:\n        /* \"#utility.yul\":1696:1699   */\n      dup3\n        /* \"#utility.yul\":1689:1726   */\n      mstore\n        /* \"#utility.yul\":1624:1732   */\n      pop\n      pop\n      jump\t// out\n        /* \"#utility.yul\":1738:1917   */\n    tag_169:\n        /* \"#utility.yul\":1807:1817   */\n      0x00\n        /* \"#utility.yul\":1828:1874   */\n      tag_227\n        /* \"#utility.yul\":1870:1873   */\n      dup4\n        /* \"#utility.yul\":1862:1868   */\n      dup4\n        /* \"#utility.yul\":1828:1874   */\n      tag_168\n      jump\t// in\n    tag_227:\n        /* \"#utility.yul\":1906:1910   */\n      0x20\n        /* \"#utility.yul\":1901:1904   */\n      dup4\n        /* \"#utility.yul\":1897:1911   */\n      add\n        /* \"#utility.yul\":1883:1911   */\n      swap1\n      pop\n        /* \"#utility.yul\":1738:1917   */\n      swap3\n      swap2\n      pop\n      pop\n      jump\t// out\n        /* \"#utility.yul\":1923:2036   */\n    tag_170:\n        /* \"#utility.yul\":1993:1997   */\n      0x00\n        /* \"#utility.yul\":2025:2029   */\n      0x20\n        /* \"#utility.yul\":2020:2023   */\n      dup3\n        /* \"#utility.yul\":2016:2030   */\n      add\n        /* \"#utility.yul\":2008:2030   */\n      swap1\n      pop\n        /* \"#utility.yul\":1923:2036   */\n      swap2\n      swap1\n      pop\n      jump\t// out\n        /* \"#utility.yul\":2072:2804   */\n    tag_171:\n        /* \"#utility.yul\":2191:2194   */\n      0x00\n        /* \"#utility.yul\":2220:2274   */\n      tag_230\n        /* \"#utility.yul\":2268:2273   */\n      dup3\n        /* \"#utility.yul\":2220:2274   */\n      tag_165\n      jump\t// in\n    tag_230:\n        /* \"#utility.yul\":2290:2376   */\n      tag_231\n        /* \"#utility.yul\":2369:2375   */\n      dup2\n        /* \"#utility.yul\":2364:2367   */\n      dup6\n        /* \"#utility.yul\":2290:2376   */\n      tag_166\n      jump\t// in\n    tag_231:\n        /* \"#utility.yul\":2283:2376   */\n      swap4\n      pop\n        /* \"#utility.yul\":2400:2456   */\n      tag_232\n        /* \"#utility.yul\":2450:2455   */\n      dup4\n        /* \"#utility.yul\":2400:2456   */\n      tag_167\n      jump\t// in\n    tag_232:\n        /* \"#utility.yul\":2479:2486   */\n      dup1\n        /* \"#utility.yul\":2510:2511   */\n      0x00\n        /* \"#utility.yul\":2495:2779   */\n    tag_233:\n        /* \"#utility.yul\":2520:2526   */\n      dup4\n        /* \"#utility.yul\":2517:2518   */\n      dup2\n        /* \"#utility.yul\":2514:2527   */\n      lt\n        /* \"#utility.yul\":2495:2779   */\n      iszero\n      tag_235\n      jumpi\n        /* \"#utility.yul\":2596:2602   */\n      dup2\n        /* \"#utility.yul\":2590:2603   */\n      mload\n        /* \"#utility.yul\":2623:2686   */\n      tag_236\n        /* \"#utility.yul\":2682:2685   */\n      dup9\n        /* \"#utility.yul\":2667:2680   */\n      dup3\n        /* \"#utility.yul\":2623:2686   */\n      tag_169\n      jump\t// in\n    tag_236:\n        /* \"#utility.yul\":2616:2686   */\n      swap8\n      pop\n        /* \"#utility.yul\":2709:2769   */\n      tag_237\n        /* \"#utility.yul\":2762:2768   */\n      dup4\n        /* \"#utility.yul\":2709:2769   */\n      tag_170\n      jump\t// in\n    tag_237:\n        /* \"#utility.yul\":2699:2769   */\n      swap3\n      pop\n        /* \"#utility.yul\":2555:2779   */\n      pop\n        /* \"#utility.yul\":2542:2543   */\n      0x01\n        /* \"#utility.yul\":2539:2540   */\n      dup2\n        /* \"#utility.yul\":2535:2544   */\n      add\n        /* \"#utility.yul\":2530:2544   */\n      swap1\n      pop\n        /* \"#utility.yul\":2495:2779   */\n      jump(tag_233)\n    tag_235:\n        /* \"#utility.yul\":2499:2513   */\n      pop\n        /* \"#utility.yul\":2795:2798   */\n      dup6\n        /* \"#utility.yul\":2788:2798   */\n      swap4\n      pop\n        /* \"#utility.yul\":2196:2804   */\n      pop\n      pop\n      pop\n        /* \"#utility.yul\":2072:2804   */\n      swap3\n      swap2\n      pop\n      pop\n      jump\t// out\n        /* \"#utility.yul\":2810:3183   */\n    tag_22:\n        /* \"#utility.yul\":2953:2957   */\n      0x00\n        /* \"#utility.yul\":2991:2993   */\n      0x20\n        /* \"#utility.yul\":2980:2989   */\n      dup3\n        /* \"#utility.yul\":2976:2994   */\n      add\n        /* \"#utility.yul\":2968:2994   */\n      swap1\n      pop\n        /* \"#utility.yul\":3040:3049   */\n      dup2\n        /* \"#utility.yul\":3034:3038   */\n      dup2\n        /* \"#utility.yul\":3030:3050   */\n      sub\n        /* \"#utility.yul\":3026:3027   */\n      0x00\n        /* \"#utility.yul\":3015:3024   */\n      dup4\n        /* \"#utility.yul\":3011:3028   */\n      add\n        /* \"#utility.yul\":3004:3051   */\n      mstore\n        /* \"#utility.yul\":3068:3176   */\n      tag_239\n        /* \"#utility.yul\":3171:3175   */\n      dup2\n        /* \"#utility.yul\":3162:3168   */\n      dup5\n        /* \"#utility.yul\":3068:3176   */\n      tag_171\n      jump\t// in\n    tag_239:\n        /* \"#utility.yul\":3060:3176   */\n      swap1\n      pop\n        /* \"#utility.yul\":2810:3183   */\n      swap3\n      swap2\n      pop\n      pop\n      jump\t// out\n        /* \"#utility.yul\":3189:3266   */\n    tag_172:\n        /* \"#utility.yul\":3226:3233   */\n      0x00\n        /* \"#utility.yul\":3255:3260   */\n      dup2\n        /* \"#utility.yul\":3244:3260   */\n      swap1\n      pop\n        /* \"#utility.yul\":3189:3266   */\n      swap2\n      swap1\n      pop\n      jump\t// out\n        /* \"#utility.yul\":3272:3390   */\n    tag_173:\n        /* \"#utility.yul\":3359:3383   */\n      tag_242\n        /* \"#utility.yul\":3377:3382   */\n      dup2\n        /* \"#utility.yul\":3359:3383   */\n      tag_172\n      jump\t// in\n    tag_242:\n        /* \"#utility.yul\":3354:3357   */\n      dup3\n        /* \"#utility.yul\":3347:3384   */\n      mstore\n        /* \"#utility.yul\":3272:3390   */\n      pop\n      pop\n      jump\t// out\n        /* \"#utility.yul\":3396:3618   */\n    tag_27:\n        /* \"#utility.yul\":3489:3493   */\n      0x00\n        /* \"#utility.yul\":3527:3529   */\n      0x20\n        /* \"#utility.yul\":3516:3525   */\n      dup3\n        /* \"#utility.yul\":3512:3530   */\n      add\n        /* \"#utility.yul\":3504:3530   */\n      swap1\n      pop\n        /* \"#utility.yul\":3540:3611   */\n      tag_244\n        /* \"#utility.yul\":3608:3609   */\n      0x00\n        /* \"#utility.yul\":3597:3606   */\n      dup4\n        /* \"#utility.yul\":3593:3610   */\n      add\n        /* \"#utility.yul\":3584:3590   */\n      dup5\n        /* \"#utility.yul\":3540:3611   */\n      tag_173\n      jump\t// in\n    tag_244:\n        /* \"#utility.yul\":3396:3618   */\n      swap3\n      swap2\n      pop\n      pop\n      jump\t// out\n        /* \"#utility.yul\":3624:3741   */\n    tag_174:\n        /* \"#utility.yul\":3733:3734   */\n      0x00\n        /* \"#utility.yul\":3730:3731   */\n      dup1\n        /* \"#utility.yul\":3723:3735   */\n      revert\n        /* \"#utility.yul\":3747:3849   */\n    tag_175:\n        /* \"#utility.yul\":3788:3794   */\n      0x00\n        /* \"#utility.yul\":3839:3841   */\n      0x1f\n        /* \"#utility.yul\":3835:3842   */\n      not\n        /* \"#utility.yul\":3830:3832   */\n      0x1f\n        /* \"#utility.yul\":3823:3828   */\n      dup4\n        /* \"#utility.yul\":3819:3833   */\n      add\n        /* \"#utility.yul\":3815:3843   */\n      and\n        /* \"#utility.yul\":3805:3843   */\n      swap1\n      pop\n        /* \"#utility.yul\":3747:3849   */\n      swap2\n      swap1\n      pop\n      jump\t// out\n        /* \"#utility.yul\":3855:4035   */\n    tag_176:\n        /* \"#utility.yul\":3903:3980   */\n      0x4e487b7100000000000000000000000000000000000000000000000000000000\n        /* \"#utility.yul\":3900:3901   */\n      0x00\n        /* \"#utility.yul\":3893:3981   */\n      mstore\n        /* \"#utility.yul\":4000:4004   */\n      0x41\n        /* \"#utility.yul\":3997:3998   */\n      0x04\n        /* \"#utility.yul\":3990:4005   */\n      mstore\n        /* \"#utility.yul\":4024:4028   */\n      0x24\n        /* \"#utility.yul\":4021:4022   */\n      0x00\n        /* \"#utility.yul\":4014:4029   */\n      revert\n        /* \"#utility.yul\":4041:4322   */\n    tag_177:\n        /* \"#utility.yul\":4124:4151   */\n      tag_249\n        /* \"#utility.yul\":4146:4150   */\n      dup3\n        /* \"#utility.yul\":4124:4151   */\n      tag_175\n      jump\t// in\n    tag_249:\n        /* \"#utility.yul\":4116:4122   */\n      dup2\n        /* \"#utility.yul\":4112:4152   */\n      add\n        /* \"#utility.yul\":4254:4260   */\n      dup2\n        /* \"#utility.yul\":4242:4252   */\n      dup2\n        /* \"#utility.yul\":4239:4261   */\n      lt\n        /* \"#utility.yul\":4218:4236   */\n      0xffffffffffffffff\n        /* \"#utility.yul\":4206:4216   */\n      dup3\n        /* \"#utility.yul\":4203:4237   */\n      gt\n        /* \"#utility.yul\":4200:4262   */\n      or\n        /* \"#utility.yul\":4197:4285   */\n      iszero\n      tag_250\n      jumpi\n        /* \"#utility.yul\":4265:4283   */\n      tag_251\n      tag_176\n      jump\t// in\n    tag_251:\n        /* \"#utility.yul\":4197:4285   */\n    tag_250:\n        /* \"#utility.yul\":4305:4315   */\n      dup1\n        /* \"#utility.yul\":4301:4303   */\n      0x40\n        /* \"#utility.yul\":4294:4316   */\n      mstore\n        /* \"#utility.yul\":4084:4322   */\n      pop\n        /* \"#utility.yul\":4041:4322   */\n      pop\n      pop\n      jump\t// out\n        /* \"#utility.yul\":4328:4457   */\n    tag_178:\n        /* \"#utility.yul\":4362:4368   */\n      0x00\n        /* \"#utility.yul\":4389:4409   */\n      tag_253\n      tag_158\n      jump\t// in\n    tag_253:\n        /* \"#utility.yul\":4379:4409   */\n      swap1\n      pop\n        /* \"#utility.yul\":4418:4451   */\n      tag_254\n        /* \"#utility.yul\":4446:4450   */\n      dup3\n        /* \"#utility.yul\":4438:4444   */\n      dup3\n        /* \"#utility.yul\":4418:4451   */\n      tag_177\n      jump\t// in\n    tag_254:\n        /* \"#utility.yul\":4328:4457   */\n      swap2\n      swap1\n      pop\n      jump\t// out\n        /* \"#utility.yul\":4463:4774   */\n    tag_179:\n        /* \"#utility.yul\":4540:4544   */\n      0x00\n        /* \"#utility.yul\":4630:4648   */\n      0xffffffffffffffff\n        /* \"#utility.yul\":4622:4628   */\n      dup3\n        /* \"#utility.yul\":4619:4649   */\n      gt\n        /* \"#utility.yul\":4616:4672   */\n      iszero\n      tag_256\n      jumpi\n        /* \"#utility.yul\":4652:4670   */\n      tag_257\n      tag_176\n      jump\t// in\n    tag_257:\n        /* \"#utility.yul\":4616:4672   */\n    tag_256:\n        /* \"#utility.yul\":4702:4706   */\n      0x20\n        /* \"#utility.yul\":4694:4700   */\n      dup3\n        /* \"#utility.yul\":4690:4707   */\n      mul\n        /* \"#utility.yul\":4682:4707   */\n      swap1\n      pop\n        /* \"#utility.yul\":4762:4766   */\n      0x20\n        /* \"#utility.yul\":4756:4760   */\n      dup2\n        /* \"#utility.yul\":4752:4767   */\n      add\n        /* \"#utility.yul\":4744:4767   */\n      swap1\n      pop\n        /* \"#utility.yul\":4463:4774   */\n      swap2\n      swap1\n      pop\n      jump\t// out\n        /* \"#utility.yul\":4780:4897   */\n    tag_180:\n        /* \"#utility.yul\":4889:4890   */\n      0x00\n        /* \"#utility.yul\":4886:4887   */\n      dup1\n        /* \"#utility.yul\":4879:4891   */\n      revert\n        /* \"#utility.yul\":4920:5630   */\n    tag_181:\n        /* \"#utility.yul\":5016:5021   */\n      0x00\n        /* \"#utility.yul\":5041:5122   */\n      tag_260\n        /* \"#utility.yul\":5057:5121   */\n      tag_261\n        /* \"#utility.yul\":5114:5120   */\n      dup5\n        /* \"#utility.yul\":5057:5121   */\n      tag_179\n      jump\t// in\n    tag_261:\n        /* \"#utility.yul\":5041:5122   */\n      tag_178\n      jump\t// in\n    tag_260:\n        /* \"#utility.yul\":5032:5122   */\n      swap1\n      pop\n        /* \"#utility.yul\":5142:5147   */\n      dup1\n        /* \"#utility.yul\":5171:5177   */\n      dup4\n        /* \"#utility.yul\":5164:5169   */\n      dup3\n        /* \"#utility.yul\":5157:5178   */\n      mstore\n        /* \"#utility.yul\":5205:5209   */\n      0x20\n        /* \"#utility.yul\":5198:5203   */\n      dup3\n        /* \"#utility.yul\":5194:5210   */\n      add\n        /* \"#utility.yul\":5187:5210   */\n      swap1\n      pop\n        /* \"#utility.yul\":5258:5262   */\n      0x20\n        /* \"#utility.yul\":5250:5256   */\n      dup5\n        /* \"#utility.yul\":5246:5263   */\n      mul\n        /* \"#utility.yul\":5238:5244   */\n      dup4\n        /* \"#utility.yul\":5234:5264   */\n      add\n        /* \"#utility.yul\":5287:5290   */\n      dup6\n        /* \"#utility.yul\":5279:5285   */\n      dup2\n        /* \"#utility.yul\":5276:5291   */\n      gt\n        /* \"#utility.yul\":5273:5395   */\n      iszero\n      tag_262\n      jumpi\n        /* \"#utility.yul\":5306:5385   */\n      tag_263\n      tag_180\n      jump\t// in\n    tag_263:\n        /* \"#utility.yul\":5273:5395   */\n    tag_262:\n        /* \"#utility.yul\":5421:5427   */\n      dup4\n        /* \"#utility.yul\":5404:5624   */\n    tag_264:\n        /* \"#utility.yul\":5438:5444   */\n      dup2\n        /* \"#utility.yul\":5433:5436   */\n      dup2\n        /* \"#utility.yul\":5430:5445   */\n      lt\n        /* \"#utility.yul\":5404:5624   */\n      iszero\n      tag_266\n      jumpi\n        /* \"#utility.yul\":5513:5516   */\n      dup1\n        /* \"#utility.yul\":5542:5579   */\n      tag_267\n        /* \"#utility.yul\":5575:5578   */\n      dup9\n        /* \"#utility.yul\":5563:5573   */\n      dup3\n        /* \"#utility.yul\":5542:5579   */\n      tag_164\n      jump\t// in\n    tag_267:\n        /* \"#utility.yul\":5537:5540   */\n      dup5\n        /* \"#utility.yul\":5530:5580   */\n      mstore\n        /* \"#utility.yul\":5609:5613   */\n      0x20\n        /* \"#utility.yul\":5604:5607   */\n      dup5\n        /* \"#utility.yul\":5600:5614   */\n      add\n        /* \"#utility.yul\":5593:5614   */\n      swap4\n      pop\n        /* \"#utility.yul\":5480:5624   */\n      pop\n        /* \"#utility.yul\":5464:5468   */\n      0x20\n        /* \"#utility.yul\":5459:5462   */\n      dup2\n        /* \"#utility.yul\":5455:5469   */\n      add\n        /* \"#utility.yul\":5448:5469   */\n      swap1\n      pop\n        /* \"#utility.yul\":5404:5624   */\n      jump(tag_264)\n    tag_266:\n        /* \"#utility.yul\":5408:5429   */\n      pop\n        /* \"#utility.yul\":5022:5630   */\n      pop\n      pop\n        /* \"#utility.yul\":4920:5630   */\n      swap4\n      swap3\n      pop\n      pop\n      pop\n      jump\t// out\n        /* \"#utility.yul\":5653:6023   */\n    tag_182:\n        /* \"#utility.yul\":5724:5729   */\n      0x00\n        /* \"#utility.yul\":5773:5776   */\n      dup3\n        /* \"#utility.yul\":5766:5770   */\n      0x1f\n        /* \"#utility.yul\":5758:5764   */\n      dup4\n        /* \"#utility.yul\":5754:5771   */\n      add\n        /* \"#utility.yul\":5750:5777   */\n      slt\n        /* \"#utility.yul\":5740:5862   */\n      tag_269\n      jumpi\n        /* \"#utility.yul\":5781:5860   */\n      tag_270\n      tag_174\n      jump\t// in\n    tag_270:\n        /* \"#utility.yul\":5740:5862   */\n    tag_269:\n        /* \"#utility.yul\":5898:5904   */\n      dup2\n        /* \"#utility.yul\":5885:5905   */\n      calldataload\n        /* \"#utility.yul\":5923:6017   */\n      tag_271\n        /* \"#utility.yul\":6013:6016   */\n      dup5\n        /* \"#utility.yul\":6005:6011   */\n      dup3\n        /* \"#utility.yul\":5998:6002   */\n      0x20\n        /* \"#utility.yul\":5990:5996   */\n      dup7\n        /* \"#utility.yul\":5986:6003   */\n      add\n        /* \"#utility.yul\":5923:6017   */\n      tag_181\n      jump\t// in\n    tag_271:\n        /* \"#utility.yul\":5914:6017   */\n      swap2\n      pop\n        /* \"#utility.yul\":5730:6023   */\n      pop\n        /* \"#utility.yul\":5653:6023   */\n      swap3\n      swap2\n      pop\n      pop\n      jump\t// out\n        /* \"#utility.yul\":6029:6568   */\n    tag_30:\n        /* \"#utility.yul\":6113:6119   */\n      0x00\n        /* \"#utility.yul\":6162:6164   */\n      0x20\n        /* \"#utility.yul\":6150:6159   */\n      dup3\n        /* \"#utility.yul\":6141:6148   */\n      dup5\n        /* \"#utility.yul\":6137:6160   */\n      sub\n        /* \"#utility.yul\":6133:6165   */\n      slt\n        /* \"#utility.yul\":6130:6249   */\n      iszero\n      tag_273\n      jumpi\n        /* \"#utility.yul\":6168:6247   */\n      tag_274\n      tag_159\n      jump\t// in\n    tag_274:\n        /* \"#utility.yul\":6130:6249   */\n    tag_273:\n        /* \"#utility.yul\":6316:6317   */\n      0x00\n        /* \"#utility.yul\":6305:6314   */\n      dup3\n        /* \"#utility.yul\":6301:6318   */\n      add\n        /* \"#utility.yul\":6288:6319   */\n      calldataload\n        /* \"#utility.yul\":6346:6364   */\n      0xffffffffffffffff\n        /* \"#utility.yul\":6338:6344   */\n      dup2\n        /* \"#utility.yul\":6335:6365   */\n      gt\n        /* \"#utility.yul\":6332:6449   */\n      iszero\n      tag_275\n      jumpi\n        /* \"#utility.yul\":6368:6447   */\n      tag_276\n      tag_160\n      jump\t// in\n    tag_276:\n        /* \"#utility.yul\":6332:6449   */\n    tag_275:\n        /* \"#utility.yul\":6473:6551   */\n      tag_277\n        /* \"#utility.yul\":6543:6550   */\n      dup5\n        /* \"#utility.yul\":6534:6540   */\n      dup3\n        /* \"#utility.yul\":6523:6532   */\n      dup6\n        /* \"#utility.yul\":6519:6541   */\n      add\n        /* \"#utility.yul\":6473:6551   */\n      tag_182\n      jump\t// in\n    tag_277:\n        /* \"#utility.yul\":6463:6551   */\n      swap2\n      pop\n        /* \"#utility.yul\":6259:6561   */\n      pop\n        /* \"#utility.yul\":6029:6568   */\n      swap3\n      swap2\n      pop\n      pop\n      jump\t// out\n        /* \"#utility.yul\":6574:6743   */\n    tag_183:\n        /* \"#utility.yul\":6658:6669   */\n      0x00\n        /* \"#utility.yul\":6692:6698   */\n      dup3\n        /* \"#utility.yul\":6687:6690   */\n      dup3\n        /* \"#utility.yul\":6680:6699   */\n      mstore\n        /* \"#utility.yul\":6732:6736   */\n      0x20\n        /* \"#utility.yul\":6727:6730   */\n      dup3\n        /* \"#utility.yul\":6723:6737   */\n      add\n        /* \"#utility.yul\":6708:6737   */\n      swap1\n      pop\n        /* \"#utility.yul\":6574:6743   */\n      swap3\n      swap2\n      pop\n      pop\n      jump\t// out\n        /* \"#utility.yul\":6749:6971   */\n    tag_184:\n        /* \"#utility.yul\":6889:6923   */\n      0x6f6e6c792061646d696e2063616e20696e766f6b6520746869732066756e6374\n        /* \"#utility.yul\":6885:6886   */\n      0x00\n        /* \"#utility.yul\":6877:6883   */\n      dup3\n        /* \"#utility.yul\":6873:6887   */\n      add\n        /* \"#utility.yul\":6866:6924   */\n      mstore\n        /* \"#utility.yul\":6958:6963   */\n      0x696f6e0000000000000000000000000000000000000000000000000000000000\n        /* \"#utility.yul\":6953:6955   */\n      0x20\n        /* \"#utility.yul\":6945:6951   */\n      dup3\n        /* \"#utility.yul\":6941:6956   */\n      add\n        /* \"#utility.yul\":6934:6964   */\n      mstore\n        /* \"#utility.yul\":6749:6971   */\n      pop\n      jump\t// out\n        /* \"#utility.yul\":6977:7343   */\n    tag_185:\n        /* \"#utility.yul\":7119:7122   */\n      0x00\n        /* \"#utility.yul\":7140:7207   */\n      tag_281\n        /* \"#utility.yul\":7204:7206   */\n      0x23\n        /* \"#utility.yul\":7199:7202   */\n      dup4\n        /* \"#utility.yul\":7140:7207   */\n      tag_183\n      jump\t// in\n    tag_281:\n        /* \"#utility.yul\":7133:7207   */\n      swap2\n      pop\n        /* \"#utility.yul\":7216:7309   */\n      tag_282\n        /* \"#utility.yul\":7305:7308   */\n      dup3\n        /* \"#utility.yul\":7216:7309   */\n      tag_184\n      jump\t// in\n    tag_282:\n        /* \"#utility.yul\":7334:7336   */\n      0x40\n        /* \"#utility.yul\":7329:7332   */\n      dup3\n        /* \"#utility.yul\":7325:7337   */\n      add\n        /* \"#utility.yul\":7318:7337   */\n      swap1\n      pop\n        /* \"#utility.yul\":6977:7343   */\n      swap2\n      swap1\n      pop\n      jump\t// out\n        /* \"#utility.yul\":7349:7768   */\n    tag_44:\n        /* \"#utility.yul\":7515:7519   */\n      0x00\n        /* \"#utility.yul\":7553:7555   */\n      0x20\n        /* \"#utility.yul\":7542:7551   */\n      dup3\n        /* \"#utility.yul\":7538:7556   */\n      add\n        /* \"#utility.yul\":7530:7556   */\n      swap1\n      pop\n        /* \"#utility.yul\":7602:7611   */\n      dup2\n        /* \"#utility.yul\":7596:7600   */\n      dup2\n        /* \"#utility.yul\":7592:7612   */\n      sub\n        /* \"#utility.yul\":7588:7589   */\n      0x00\n        /* \"#utility.yul\":7577:7586   */\n      dup4\n        /* \"#utility.yul\":7573:7590   */\n      add\n        /* \"#utility.yul\":7566:7613   */\n      mstore\n        /* \"#utility.yul\":7630:7761   */\n      tag_284\n        /* \"#utility.yul\":7756:7760   */\n      dup2\n        /* \"#utility.yul\":7630:7761   */\n      tag_185\n      jump\t// in\n    tag_284:\n        /* \"#utility.yul\":7622:7761   */\n      swap1\n      pop\n        /* \"#utility.yul\":7349:7768   */\n      swap2\n      swap1\n      pop\n      jump\t// out\n        /* \"#utility.yul\":7774:7954   */\n    tag_51:\n        /* \"#utility.yul\":7822:7899   */\n      0x4e487b7100000000000000000000000000000000000000000000000000000000\n        /* \"#utility.yul\":7819:7820   */\n      0x00\n        /* \"#utility.yul\":7812:7900   */\n      mstore\n        /* \"#utility.yul\":7919:7923   */\n      0x32\n        /* \"#utility.yul\":7916:7917   */\n      0x04\n        /* \"#utility.yul\":7909:7924   */\n      mstore\n        /* \"#utility.yul\":7943:7947   */\n      0x24\n        /* \"#utility.yul\":7940:7941   */\n      0x00\n        /* \"#utility.yul\":7933:7948   */\n      revert\n        /* \"#utility.yul\":7960:8140   */\n    tag_186:\n        /* \"#utility.yul\":8008:8085   */\n      0x4e487b7100000000000000000000000000000000000000000000000000000000\n        /* \"#utility.yul\":8005:8006   */\n      0x00\n        /* \"#utility.yul\":7998:8086   */\n      mstore\n        /* \"#utility.yul\":8105:8109   */\n      0x11\n        /* \"#utility.yul\":8102:8103   */\n      0x04\n        /* \"#utility.yul\":8095:8110   */\n      mstore\n        /* \"#utility.yul\":8129:8133   */\n      0x24\n        /* \"#utility.yul\":8126:8127   */\n      0x00\n        /* \"#utility.yul\":8119:8134   */\n      revert\n        /* \"#utility.yul\":8146:8340   */\n    tag_58:\n        /* \"#utility.yul\":8186:8190   */\n      0x00\n        /* \"#utility.yul\":8206:8226   */\n      tag_288\n        /* \"#utility.yul\":8224:8225   */\n      dup3\n        /* \"#utility.yul\":8206:8226   */\n      tag_172\n      jump\t// in\n    tag_288:\n        /* \"#utility.yul\":8201:8226   */\n      swap2\n      pop\n        /* \"#utility.yul\":8240:8260   */\n      tag_289\n        /* \"#utility.yul\":8258:8259   */\n      dup4\n        /* \"#utility.yul\":8240:8260   */\n      tag_172\n      jump\t// in\n    tag_289:\n        /* \"#utility.yul\":8235:8260   */\n      swap3\n      pop\n        /* \"#utility.yul\":8284:8285   */\n      dup3\n        /* \"#utility.yul\":8281:8282   */\n      dup3\n        /* \"#utility.yul\":8277:8286   */\n      sub\n        /* \"#utility.yul\":8269:8286   */\n      swap1\n      pop\n        /* \"#utility.yul\":8308:8309   */\n      dup2\n        /* \"#utility.yul\":8302:8306   */\n      dup2\n        /* \"#utility.yul\":8299:8310   */\n      gt\n        /* \"#utility.yul\":8296:8333   */\n      iszero\n      tag_290\n      jumpi\n        /* \"#utility.yul\":8313:8331   */\n      tag_291\n      tag_186\n      jump\t// in\n    tag_291:\n        /* \"#utility.yul\":8296:8333   */\n    tag_290:\n        /* \"#utility.yul\":8146:8340   */\n      swap3\n      swap2\n      pop\n      pop\n      jump\t// out\n        /* \"#utility.yul\":8346:8435   */\n    tag_187:\n        /* \"#utility.yul\":8382:8389   */\n      0x00\n        /* \"#utility.yul\":8422:8428   */\n      0xffff\n        /* \"#utility.yul\":8415:8420   */\n      dup3\n        /* \"#utility.yul\":8411:8429   */\n      and\n        /* \"#utility.yul\":8400:8429   */\n      swap1\n      pop\n        /* \"#utility.yul\":8346:8435   */\n      swap2\n      swap1\n      pop\n      jump\t// out\n        /* \"#utility.yul\":8441:8634   */\n    tag_60:\n        /* \"#utility.yul\":8480:8483   */\n      0x00\n        /* \"#utility.yul\":8499:8518   */\n      tag_294\n        /* \"#utility.yul\":8516:8517   */\n      dup3\n        /* \"#utility.yul\":8499:8518   */\n      tag_187\n      jump\t// in\n    tag_294:\n        /* \"#utility.yul\":8494:8518   */\n      swap2\n      pop\n        /* \"#utility.yul\":8532:8551   */\n      tag_295\n        /* \"#utility.yul\":8549:8550   */\n      dup4\n        /* \"#utility.yul\":8532:8551   */\n      tag_187\n      jump\t// in\n    tag_295:\n        /* \"#utility.yul\":8527:8551   */\n      swap3\n      pop\n        /* \"#utility.yul\":8574:8575   */\n      dup3\n        /* \"#utility.yul\":8571:8572   */\n      dup3\n        /* \"#utility.yul\":8567:8576   */\n      add\n        /* \"#utility.yul\":8560:8576   */\n      swap1\n      pop\n        /* \"#utility.yul\":8597:8603   */\n      0xffff\n        /* \"#utility.yul\":8592:8595   */\n      dup2\n        /* \"#utility.yul\":8589:8604   */\n      gt\n        /* \"#utility.yul\":8586:8627   */\n      iszero\n      tag_296\n      jumpi\n        /* \"#utility.yul\":8607:8625   */\n      tag_297\n      tag_186\n      jump\t// in\n    tag_297:\n        /* \"#utility.yul\":8586:8627   */\n    tag_296:\n        /* \"#utility.yul\":8441:8634   */\n      swap3\n      swap2\n      pop\n      pop\n      jump\t// out\n        /* \"#utility.yul\":8640:8811   */\n    tag_68:\n        /* \"#utility.yul\":8678:8681   */\n      0x00\n        /* \"#utility.yul\":8701:8724   */\n      tag_299\n        /* \"#utility.yul\":8718:8723   */\n      dup3\n        /* \"#utility.yul\":8701:8724   */\n      tag_187\n      jump\t// in\n    tag_299:\n        /* \"#utility.yul\":8692:8724   */\n      swap2\n      pop\n        /* \"#utility.yul\":8746:8752   */\n      0xffff\n        /* \"#utility.yul\":8739:8744   */\n      dup3\n        /* \"#utility.yul\":8736:8753   */\n      sub\n        /* \"#utility.yul\":8733:8776   */\n      tag_300\n      jumpi\n        /* \"#utility.yul\":8756:8774   */\n      tag_301\n      tag_186\n      jump\t// in\n    tag_301:\n        /* \"#utility.yul\":8733:8776   */\n    tag_300:\n        /* \"#utility.yul\":8803:8804   */\n      0x01\n        /* \"#utility.yul\":8796:8801   */\n      dup3\n        /* \"#utility.yul\":8792:8805   */\n      add\n        /* \"#utility.yul\":8785:8805   */\n      swap1\n      pop\n        /* \"#utility.yul\":8640:8811   */\n      swap2\n      swap1\n      pop\n      jump\t// out\n        /* \"#utility.yul\":8817:8997   */\n    tag_71:\n        /* \"#utility.yul\":8865:8942   */\n      0x4e487b7100000000000000000000000000000000000000000000000000000000\n        /* \"#utility.yul\":8862:8863   */\n      0x00\n        /* \"#utility.yul\":8855:8943   */\n      mstore\n        /* \"#utility.yul\":8962:8966   */\n      0x31\n        /* \"#utility.yul\":8959:8960   */\n      0x04\n        /* \"#utility.yul\":8952:8967   */\n      mstore\n        /* \"#utility.yul\":8986:8990   */\n      0x24\n        /* \"#utility.yul\":8983:8984   */\n      0x00\n        /* \"#utility.yul\":8976:8991   */\n      revert\n        /* \"#utility.yul\":9003:9163   */\n    tag_188:\n        /* \"#utility.yul\":9143:9155   */\n      0x5573657220657869737400000000000000000000000000000000000000000000\n        /* \"#utility.yul\":9139:9140   */\n      0x00\n        /* \"#utility.yul\":9131:9137   */\n      dup3\n        /* \"#utility.yul\":9127:9141   */\n      add\n        /* \"#utility.yul\":9120:9156   */\n      mstore\n        /* \"#utility.yul\":9003:9163   */\n      pop\n      jump\t// out\n        /* \"#utility.yul\":9169:9535   */\n    tag_189:\n        /* \"#utility.yul\":9311:9314   */\n      0x00\n        /* \"#utility.yul\":9332:9399   */\n      tag_305\n        /* \"#utility.yul\":9396:9398   */\n      0x0a\n        /* \"#utility.yul\":9391:9394   */\n      dup4\n        /* \"#utility.yul\":9332:9399   */\n      tag_183\n      jump\t// in\n    tag_305:\n        /* \"#utility.yul\":9325:9399   */\n      swap2\n      pop\n        /* \"#utility.yul\":9408:9501   */\n      tag_306\n        /* \"#utility.yul\":9497:9500   */\n      dup3\n        /* \"#utility.yul\":9408:9501   */\n      tag_188\n      jump\t// in\n    tag_306:\n        /* \"#utility.yul\":9526:9528   */\n      0x20\n        /* \"#utility.yul\":9521:9524   */\n      dup3\n        /* \"#utility.yul\":9517:9529   */\n      add\n        /* \"#utility.yul\":9510:9529   */\n      swap1\n      pop\n        /* \"#utility.yul\":9169:9535   */\n      swap2\n      swap1\n      pop\n      jump\t// out\n        /* \"#utility.yul\":9541:9960   */\n    tag_80:\n        /* \"#utility.yul\":9707:9711   */\n      0x00\n        /* \"#utility.yul\":9745:9747   */\n      0x20\n        /* \"#utility.yul\":9734:9743   */\n      dup3\n        /* \"#utility.yul\":9730:9748   */\n      add\n        /* \"#utility.yul\":9722:9748   */\n      swap1\n      pop\n        /* \"#utility.yul\":9794:9803   */\n      dup2\n        /* \"#utility.yul\":9788:9792   */\n      dup2\n        /* \"#utility.yul\":9784:9804   */\n      sub\n        /* \"#utility.yul\":9780:9781   */\n      0x00\n        /* \"#utility.yul\":9769:9778   */\n      dup4\n        /* \"#utility.yul\":9765:9782   */\n      add\n        /* \"#utility.yul\":9758:9805   */\n      mstore\n        /* \"#utility.yul\":9822:9953   */\n      tag_308\n        /* \"#utility.yul\":9948:9952   */\n      dup2\n        /* \"#utility.yul\":9822:9953   */\n      tag_189\n      jump\t// in\n    tag_308:\n        /* \"#utility.yul\":9814:9953   */\n      swap1\n      pop\n        /* \"#utility.yul\":9541:9960   */\n      swap2\n      swap1\n      pop\n      jump\t// out\n        /* \"#utility.yul\":9966:10137   */\n    tag_190:\n        /* \"#utility.yul\":10106:10129   */\n      0x4e6f7420616e20656c696769626c652075736572210000000000000000000000\n        /* \"#utility.yul\":10102:10103   */\n      0x00\n        /* \"#utility.yul\":10094:10100   */\n      dup3\n        /* \"#utility.yul\":10090:10104   */\n      add\n        /* \"#utility.yul\":10083:10130   */\n      mstore\n        /* \"#utility.yul\":9966:10137   */\n      pop\n      jump\t// out\n        /* \"#utility.yul\":10143:10509   */\n    tag_191:\n        /* \"#utility.yul\":10285:10288   */\n      0x00\n        /* \"#utility.yul\":10306:10373   */\n      tag_311\n        /* \"#utility.yul\":10370:10372   */\n      0x15\n        /* \"#utility.yul\":10365:10368   */\n      dup4\n        /* \"#utility.yul\":10306:10373   */\n      tag_183\n      jump\t// in\n    tag_311:\n        /* \"#utility.yul\":10299:10373   */\n      swap2\n      pop\n        /* \"#utility.yul\":10382:10475   */\n      tag_312\n        /* \"#utility.yul\":10471:10474   */\n      dup3\n        /* \"#utility.yul\":10382:10475   */\n      tag_190\n      jump\t// in\n    tag_312:\n        /* \"#utility.yul\":10500:10502   */\n      0x20\n        /* \"#utility.yul\":10495:10498   */\n      dup3\n        /* \"#utility.yul\":10491:10503   */\n      add\n        /* \"#utility.yul\":10484:10503   */\n      swap1\n      pop\n        /* \"#utility.yul\":10143:10509   */\n      swap2\n      swap1\n      pop\n      jump\t// out\n        /* \"#utility.yul\":10515:10934   */\n    tag_105:\n        /* \"#utility.yul\":10681:10685   */\n      0x00\n        /* \"#utility.yul\":10719:10721   */\n      0x20\n        /* \"#utility.yul\":10708:10717   */\n      dup3\n        /* \"#utility.yul\":10704:10722   */\n      add\n        /* \"#utility.yul\":10696:10722   */\n      swap1\n      pop\n        /* \"#utility.yul\":10768:10777   */\n      dup2\n        /* \"#utility.yul\":10762:10766   */\n      dup2\n        /* \"#utility.yul\":10758:10778   */\n      sub\n        /* \"#utility.yul\":10754:10755   */\n      0x00\n        /* \"#utility.yul\":10743:10752   */\n      dup4\n        /* \"#utility.yul\":10739:10756   */\n      add\n        /* \"#utility.yul\":10732:10779   */\n      mstore\n        /* \"#utility.yul\":10796:10927   */\n      tag_314\n        /* \"#utility.yul\":10922:10926   */\n      dup2\n        /* \"#utility.yul\":10796:10927   */\n      tag_191\n      jump\t// in\n    tag_314:\n        /* \"#utility.yul\":10788:10927   */\n      swap1\n      pop\n        /* \"#utility.yul\":10515:10934   */\n      swap2\n      swap1\n      pop\n      jump\t// out\n        /* \"#utility.yul\":10940:11131   */\n    tag_108:\n        /* \"#utility.yul\":10980:10983   */\n      0x00\n        /* \"#utility.yul\":10999:11019   */\n      tag_316\n        /* \"#utility.yul\":11017:11018   */\n      dup3\n        /* \"#utility.yul\":10999:11019   */\n      tag_172\n      jump\t// in\n    tag_316:\n        /* \"#utility.yul\":10994:11019   */\n      swap2\n      pop\n        /* \"#utility.yul\":11033:11053   */\n      tag_317\n        /* \"#utility.yul\":11051:11052   */\n      dup4\n        /* \"#utility.yul\":11033:11053   */\n      tag_172\n      jump\t// in\n    tag_317:\n        /* \"#utility.yul\":11028:11053   */\n      swap3\n      pop\n        /* \"#utility.yul\":11076:11077   */\n      dup3\n        /* \"#utility.yul\":11073:11074   */\n      dup3\n        /* \"#utility.yul\":11069:11078   */\n      add\n        /* \"#utility.yul\":11062:11078   */\n      swap1\n      pop\n        /* \"#utility.yul\":11097:11100   */\n      dup1\n        /* \"#utility.yul\":11094:11095   */\n      dup3\n        /* \"#utility.yul\":11091:11101   */\n      gt\n        /* \"#utility.yul\":11088:11124   */\n      iszero\n      tag_318\n      jumpi\n        /* \"#utility.yul\":11104:11122   */\n      tag_319\n      tag_186\n      jump\t// in\n    tag_319:\n        /* \"#utility.yul\":11088:11124   */\n    tag_318:\n        /* \"#utility.yul\":10940:11131   */\n      swap3\n      swap2\n      pop\n      pop\n      jump\t// out\n        /* \"#utility.yul\":11137:11308   */\n    tag_192:\n        /* \"#utility.yul\":11277:11300   */\n      0x436c61696d2061667465722035206d696e757465730000000000000000000000\n        /* \"#utility.yul\":11273:11274   */\n      0x00\n        /* \"#utility.yul\":11265:11271   */\n      dup3\n        /* \"#utility.yul\":11261:11275   */\n      add\n        /* \"#utility.yul\":11254:11301   */\n      mstore\n        /* \"#utility.yul\":11137:11308   */\n      pop\n      jump\t// out\n        /* \"#utility.yul\":11314:11680   */\n    tag_193:\n        /* \"#utility.yul\":11456:11459   */\n      0x00\n        /* \"#utility.yul\":11477:11544   */\n      tag_322\n        /* \"#utility.yul\":11541:11543   */\n      0x15\n        /* \"#utility.yul\":11536:11539   */\n      dup4\n        /* \"#utility.yul\":11477:11544   */\n      tag_183\n      jump\t// in\n    tag_322:\n        /* \"#utility.yul\":11470:11544   */\n      swap2\n      pop\n        /* \"#utility.yul\":11553:11646   */\n      tag_323\n        /* \"#utility.yul\":11642:11645   */\n      dup3\n        /* \"#utility.yul\":11553:11646   */\n      tag_192\n      jump\t// in\n    tag_323:\n        /* \"#utility.yul\":11671:11673   */\n      0x20\n        /* \"#utility.yul\":11666:11669   */\n      dup3\n        /* \"#utility.yul\":11662:11674   */\n      add\n        /* \"#utility.yul\":11655:11674   */\n      swap1\n      pop\n        /* \"#utility.yul\":11314:11680   */\n      swap2\n      swap1\n      pop\n      jump\t// out\n        /* \"#utility.yul\":11686:12105   */\n    tag_113:\n        /* \"#utility.yul\":11852:11856   */\n      0x00\n        /* \"#utility.yul\":11890:11892   */\n      0x20\n        /* \"#utility.yul\":11879:11888   */\n      dup3\n        /* \"#utility.yul\":11875:11893   */\n      add\n        /* \"#utility.yul\":11867:11893   */\n      swap1\n      pop\n        /* \"#utility.yul\":11939:11948   */\n      dup2\n        /* \"#utility.yul\":11933:11937   */\n      dup2\n        /* \"#utility.yul\":11929:11949   */\n      sub\n        /* \"#utility.yul\":11925:11926   */\n      0x00\n        /* \"#utility.yul\":11914:11923   */\n      dup4\n        /* \"#utility.yul\":11910:11927   */\n      add\n        /* \"#utility.yul\":11903:11950   */\n      mstore\n        /* \"#utility.yul\":11967:12098   */\n      tag_325\n        /* \"#utility.yul\":12093:12097   */\n      dup2\n        /* \"#utility.yul\":11967:12098   */\n      tag_193\n      jump\t// in\n    tag_325:\n        /* \"#utility.yul\":11959:12098   */\n      swap1\n      pop\n        /* \"#utility.yul\":11686:12105   */\n      swap2\n      swap1\n      pop\n      jump\t// out\n        /* \"#utility.yul\":12111:12229   */\n    tag_194:\n        /* \"#utility.yul\":12198:12222   */\n      tag_327\n        /* \"#utility.yul\":12216:12221   */\n      dup2\n        /* \"#utility.yul\":12198:12222   */\n      tag_162\n      jump\t// in\n    tag_327:\n        /* \"#utility.yul\":12193:12196   */\n      dup3\n        /* \"#utility.yul\":12186:12223   */\n      mstore\n        /* \"#utility.yul\":12111:12229   */\n      pop\n      pop\n      jump\t// out\n        /* \"#utility.yul\":12235:12457   */\n    tag_115:\n        /* \"#utility.yul\":12328:12332   */\n      0x00\n        /* \"#utility.yul\":12366:12368   */\n      0x20\n        /* \"#utility.yul\":12355:12364   */\n      dup3\n        /* \"#utility.yul\":12351:12369   */\n      add\n        /* \"#utility.yul\":12343:12369   */\n      swap1\n      pop\n        /* \"#utility.yul\":12379:12450   */\n      tag_329\n        /* \"#utility.yul\":12447:12448   */\n      0x00\n        /* \"#utility.yul\":12436:12445   */\n      dup4\n        /* \"#utility.yul\":12432:12449   */\n      add\n        /* \"#utility.yul\":12423:12429   */\n      dup5\n        /* \"#utility.yul\":12379:12450   */\n      tag_194\n      jump\t// in\n    tag_329:\n        /* \"#utility.yul\":12235:12457   */\n      swap3\n      swap2\n      pop\n      pop\n      jump\t// out\n        /* \"#utility.yul\":12463:12585   */\n    tag_195:\n        /* \"#utility.yul\":12536:12560   */\n      tag_331\n        /* \"#utility.yul\":12554:12559   */\n      dup2\n        /* \"#utility.yul\":12536:12560   */\n      tag_172\n      jump\t// in\n    tag_331:\n        /* \"#utility.yul\":12529:12534   */\n      dup2\n        /* \"#utility.yul\":12526:12561   */\n      eq\n        /* \"#utility.yul\":12516:12579   */\n      tag_332\n      jumpi\n        /* \"#utility.yul\":12575:12576   */\n      0x00\n        /* \"#utility.yul\":12572:12573   */\n      dup1\n        /* \"#utility.yul\":12565:12577   */\n      revert\n        /* \"#utility.yul\":12516:12579   */\n    tag_332:\n        /* \"#utility.yul\":12463:12585   */\n      pop\n      jump\t// out\n        /* \"#utility.yul\":12591:12734   */\n    tag_196:\n        /* \"#utility.yul\":12648:12653   */\n      0x00\n        /* \"#utility.yul\":12679:12685   */\n      dup2\n        /* \"#utility.yul\":12673:12686   */\n      mload\n        /* \"#utility.yul\":12664:12686   */\n      swap1\n      pop\n        /* \"#utility.yul\":12695:12728   */\n      tag_334\n        /* \"#utility.yul\":12722:12727   */\n      dup2\n        /* \"#utility.yul\":12695:12728   */\n      tag_195\n      jump\t// in\n    tag_334:\n        /* \"#utility.yul\":12591:12734   */\n      swap3\n      swap2\n      pop\n      pop\n      jump\t// out\n        /* \"#utility.yul\":12740:13091   */\n    tag_119:\n        /* \"#utility.yul\":12810:12816   */\n      0x00\n        /* \"#utility.yul\":12859:12861   */\n      0x20\n        /* \"#utility.yul\":12847:12856   */\n      dup3\n        /* \"#utility.yul\":12838:12845   */\n      dup5\n        /* \"#utility.yul\":12834:12857   */\n      sub\n        /* \"#utility.yul\":12830:12862   */\n      slt\n        /* \"#utility.yul\":12827:12946   */\n      iszero\n      tag_336\n      jumpi\n        /* \"#utility.yul\":12865:12944   */\n      tag_337\n      tag_159\n      jump\t// in\n    tag_337:\n        /* \"#utility.yul\":12827:12946   */\n    tag_336:\n        /* \"#utility.yul\":12985:12986   */\n      0x00\n        /* \"#utility.yul\":13010:13074   */\n      tag_338\n        /* \"#utility.yul\":13066:13073   */\n      dup5\n        /* \"#utility.yul\":13057:13063   */\n      dup3\n        /* \"#utility.yul\":13046:13055   */\n      dup6\n        /* \"#utility.yul\":13042:13064   */\n      add\n        /* \"#utility.yul\":13010:13074   */\n      tag_196\n      jump\t// in\n    tag_338:\n        /* \"#utility.yul\":13000:13074   */\n      swap2\n      pop\n        /* \"#utility.yul\":12956:13084   */\n      pop\n        /* \"#utility.yul\":12740:13091   */\n      swap3\n      swap2\n      pop\n      pop\n      jump\t// out\n        /* \"#utility.yul\":13097:13259   */\n    tag_197:\n        /* \"#utility.yul\":13237:13251   */\n      0x456d707479207661756c74210000000000000000000000000000000000000000\n        /* \"#utility.yul\":13233:13234   */\n      0x00\n        /* \"#utility.yul\":13225:13231   */\n      dup3\n        /* \"#utility.yul\":13221:13235   */\n      add\n        /* \"#utility.yul\":13214:13252   */\n      mstore\n        /* \"#utility.yul\":13097:13259   */\n      pop\n      jump\t// out\n        /* \"#utility.yul\":13265:13631   */\n    tag_198:\n        /* \"#utility.yul\":13407:13410   */\n      0x00\n        /* \"#utility.yul\":13428:13495   */\n      tag_341\n        /* \"#utility.yul\":13492:13494   */\n      0x0c\n        /* \"#utility.yul\":13487:13490   */\n      dup4\n        /* \"#utility.yul\":13428:13495   */\n      tag_183\n      jump\t// in\n    tag_341:\n        /* \"#utility.yul\":13421:13495   */\n      swap2\n      pop\n        /* \"#utility.yul\":13504:13597   */\n      tag_342\n        /* \"#utility.yul\":13593:13596   */\n      dup3\n        /* \"#utility.yul\":13504:13597   */\n      tag_197\n      jump\t// in\n    tag_342:\n        /* \"#utility.yul\":13622:13624   */\n      0x20\n        /* \"#utility.yul\":13617:13620   */\n      dup3\n        /* \"#utility.yul\":13613:13625   */\n      add\n        /* \"#utility.yul\":13606:13625   */\n      swap1\n      pop\n        /* \"#utility.yul\":13265:13631   */\n      swap2\n      swap1\n      pop\n      jump\t// out\n        /* \"#utility.yul\":13637:14056   */\n    tag_122:\n        /* \"#utility.yul\":13803:13807   */\n      0x00\n        /* \"#utility.yul\":13841:13843   */\n      0x20\n        /* \"#utility.yul\":13830:13839   */\n      dup3\n        /* \"#utility.yul\":13826:13844   */\n      add\n        /* \"#utility.yul\":13818:13844   */\n      swap1\n      pop\n        /* \"#utility.yul\":13890:13899   */\n      dup2\n        /* \"#utility.yul\":13884:13888   */\n      dup2\n        /* \"#utility.yul\":13880:13900   */\n      sub\n        /* \"#utility.yul\":13876:13877   */\n      0x00\n        /* \"#utility.yul\":13865:13874   */\n      dup4\n        /* \"#utility.yul\":13861:13878   */\n      add\n        /* \"#utility.yul\":13854:13901   */\n      mstore\n        /* \"#utility.yul\":13918:14049   */\n      tag_344\n        /* \"#utility.yul\":14044:14048   */\n      dup2\n        /* \"#utility.yul\":13918:14049   */\n      tag_198\n      jump\t// in\n    tag_344:\n        /* \"#utility.yul\":13910:14049   */\n      swap1\n      pop\n        /* \"#utility.yul\":13637:14056   */\n      swap2\n      swap1\n      pop\n      jump\t// out\n        /* \"#utility.yul\":14062:14242   */\n    tag_199:\n        /* \"#utility.yul\":14110:14187   */\n      0x4e487b7100000000000000000000000000000000000000000000000000000000\n        /* \"#utility.yul\":14107:14108   */\n      0x00\n        /* \"#utility.yul\":14100:14188   */\n      mstore\n        /* \"#utility.yul\":14207:14211   */\n      0x12\n        /* \"#utility.yul\":14204:14205   */\n      0x04\n        /* \"#utility.yul\":14197:14212   */\n      mstore\n        /* \"#utility.yul\":14231:14235   */\n      0x24\n        /* \"#utility.yul\":14228:14229   */\n      0x00\n        /* \"#utility.yul\":14221:14236   */\n      revert\n        /* \"#utility.yul\":14248:14433   */\n    tag_124:\n        /* \"#utility.yul\":14288:14289   */\n      0x00\n        /* \"#utility.yul\":14305:14325   */\n      tag_347\n        /* \"#utility.yul\":14323:14324   */\n      dup3\n        /* \"#utility.yul\":14305:14325   */\n      tag_172\n      jump\t// in\n    tag_347:\n        /* \"#utility.yul\":14300:14325   */\n      swap2\n      pop\n        /* \"#utility.yul\":14339:14359   */\n      tag_348\n        /* \"#utility.yul\":14357:14358   */\n      dup4\n        /* \"#utility.yul\":14339:14359   */\n      tag_172\n      jump\t// in\n    tag_348:\n        /* \"#utility.yul\":14334:14359   */\n      swap3\n      pop\n        /* \"#utility.yul\":14378:14379   */\n      dup3\n        /* \"#utility.yul\":14368:14403   */\n      tag_349\n      jumpi\n        /* \"#utility.yul\":14383:14401   */\n      tag_350\n      tag_199\n      jump\t// in\n    tag_350:\n        /* \"#utility.yul\":14368:14403   */\n    tag_349:\n        /* \"#utility.yul\":14425:14426   */\n      dup3\n        /* \"#utility.yul\":14422:14423   */\n      dup3\n        /* \"#utility.yul\":14418:14427   */\n      div\n        /* \"#utility.yul\":14413:14427   */\n      swap1\n      pop\n        /* \"#utility.yul\":14248:14433   */\n      swap3\n      swap2\n      pop\n      pop\n      jump\t// out\n        /* \"#utility.yul\":14439:14771   */\n    tag_126:\n        /* \"#utility.yul\":14560:14564   */\n      0x00\n        /* \"#utility.yul\":14598:14600   */\n      0x40\n        /* \"#utility.yul\":14587:14596   */\n      dup3\n        /* \"#utility.yul\":14583:14601   */\n      add\n        /* \"#utility.yul\":14575:14601   */\n      swap1\n      pop\n        /* \"#utility.yul\":14611:14682   */\n      tag_352\n        /* \"#utility.yul\":14679:14680   */\n      0x00\n        /* \"#utility.yul\":14668:14677   */\n      dup4\n        /* \"#utility.yul\":14664:14681   */\n      add\n        /* \"#utility.yul\":14655:14661   */\n      dup6\n        /* \"#utility.yul\":14611:14682   */\n      tag_194\n      jump\t// in\n    tag_352:\n        /* \"#utility.yul\":14692:14764   */\n      tag_353\n        /* \"#utility.yul\":14760:14762   */\n      0x20\n        /* \"#utility.yul\":14749:14758   */\n      dup4\n        /* \"#utility.yul\":14745:14763   */\n      add\n        /* \"#utility.yul\":14736:14742   */\n      dup5\n        /* \"#utility.yul\":14692:14764   */\n      tag_173\n      jump\t// in\n    tag_353:\n        /* \"#utility.yul\":14439:14771   */\n      swap4\n      swap3\n      pop\n      pop\n      pop\n      jump\t// out\n        /* \"#utility.yul\":14777:14867   */\n    tag_200:\n        /* \"#utility.yul\":14811:14818   */\n      0x00\n        /* \"#utility.yul\":14854:14859   */\n      dup2\n        /* \"#utility.yul\":14847:14860   */\n      iszero\n        /* \"#utility.yul\":14840:14861   */\n      iszero\n        /* \"#utility.yul\":14829:14861   */\n      swap1\n      pop\n        /* \"#utility.yul\":14777:14867   */\n      swap2\n      swap1\n      pop\n      jump\t// out\n        /* \"#utility.yul\":14873:14989   */\n    tag_201:\n        /* \"#utility.yul\":14943:14964   */\n      tag_356\n        /* \"#utility.yul\":14958:14963   */\n      dup2\n        /* \"#utility.yul\":14943:14964   */\n      tag_200\n      jump\t// in\n    tag_356:\n        /* \"#utility.yul\":14936:14941   */\n      dup2\n        /* \"#utility.yul\":14933:14965   */\n      eq\n        /* \"#utility.yul\":14923:14983   */\n      tag_357\n      jumpi\n        /* \"#utility.yul\":14979:14980   */\n      0x00\n        /* \"#utility.yul\":14976:14977   */\n      dup1\n        /* \"#utility.yul\":14969:14981   */\n      revert\n        /* \"#utility.yul\":14923:14983   */\n    tag_357:\n        /* \"#utility.yul\":14873:14989   */\n      pop\n      jump\t// out\n        /* \"#utility.yul\":14995:15132   */\n    tag_202:\n        /* \"#utility.yul\":15049:15054   */\n      0x00\n        /* \"#utility.yul\":15080:15086   */\n      dup2\n        /* \"#utility.yul\":15074:15087   */\n      mload\n        /* \"#utility.yul\":15065:15087   */\n      swap1\n      pop\n        /* \"#utility.yul\":15096:15126   */\n      tag_359\n        /* \"#utility.yul\":15120:15125   */\n      dup2\n        /* \"#utility.yul\":15096:15126   */\n      tag_201\n      jump\t// in\n    tag_359:\n        /* \"#utility.yul\":14995:15132   */\n      swap3\n      swap2\n      pop\n      pop\n      jump\t// out\n        /* \"#utility.yul\":15138:15483   */\n    tag_130:\n        /* \"#utility.yul\":15205:15211   */\n      0x00\n        /* \"#utility.yul\":15254:15256   */\n      0x20\n        /* \"#utility.yul\":15242:15251   */\n      dup3\n        /* \"#utility.yul\":15233:15240   */\n      dup5\n        /* \"#utility.yul\":15229:15252   */\n      sub\n        /* \"#utility.yul\":15225:15257   */\n      slt\n        /* \"#utility.yul\":15222:15341   */\n      iszero\n      tag_361\n      jumpi\n        /* \"#utility.yul\":15260:15339   */\n      tag_362\n      tag_159\n      jump\t// in\n    tag_362:\n        /* \"#utility.yul\":15222:15341   */\n    tag_361:\n        /* \"#utility.yul\":15380:15381   */\n      0x00\n        /* \"#utility.yul\":15405:15466   */\n      tag_363\n        /* \"#utility.yul\":15458:15465   */\n      dup5\n        /* \"#utility.yul\":15449:15455   */\n      dup3\n        /* \"#utility.yul\":15438:15447   */\n      dup6\n        /* \"#utility.yul\":15434:15456   */\n      add\n        /* \"#utility.yul\":15405:15466   */\n      tag_202\n      jump\t// in\n    tag_363:\n        /* \"#utility.yul\":15395:15466   */\n      swap2\n      pop\n        /* \"#utility.yul\":15351:15476   */\n      pop\n        /* \"#utility.yul\":15138:15483   */\n      swap3\n      swap2\n      pop\n      pop\n      jump\t// out\n        /* \"#utility.yul\":15489:15652   */\n    tag_203:\n        /* \"#utility.yul\":15629:15644   */\n      0x4f6e636520706572207765656b00000000000000000000000000000000000000\n        /* \"#utility.yul\":15625:15626   */\n      0x00\n        /* \"#utility.yul\":15617:15623   */\n      dup3\n        /* \"#utility.yul\":15613:15627   */\n      add\n        /* \"#utility.yul\":15606:15645   */\n      mstore\n        /* \"#utility.yul\":15489:15652   */\n      pop\n      jump\t// out\n        /* \"#utility.yul\":15658:16024   */\n    tag_204:\n        /* \"#utility.yul\":15800:15803   */\n      0x00\n        /* \"#utility.yul\":15821:15888   */\n      tag_366\n        /* \"#utility.yul\":15885:15887   */\n      0x0d\n        /* \"#utility.yul\":15880:15883   */\n      dup4\n        /* \"#utility.yul\":15821:15888   */\n      tag_183\n      jump\t// in\n    tag_366:\n        /* \"#utility.yul\":15814:15888   */\n      swap2\n      pop\n        /* \"#utility.yul\":15897:15990   */\n      tag_367\n        /* \"#utility.yul\":15986:15989   */\n      dup3\n        /* \"#utility.yul\":15897:15990   */\n      tag_203\n      jump\t// in\n    tag_367:\n        /* \"#utility.yul\":16015:16017   */\n      0x20\n        /* \"#utility.yul\":16010:16013   */\n      dup3\n        /* \"#utility.yul\":16006:16018   */\n      add\n        /* \"#utility.yul\":15999:16018   */\n      swap1\n      pop\n        /* \"#utility.yul\":15658:16024   */\n      swap2\n      swap1\n      pop\n      jump\t// out\n        /* \"#utility.yul\":16030:16449   */\n    tag_140:\n        /* \"#utility.yul\":16196:16200   */\n      0x00\n        /* \"#utility.yul\":16234:16236   */\n      0x20\n        /* \"#utility.yul\":16223:16232   */\n      dup3\n        /* \"#utility.yul\":16219:16237   */\n      add\n        /* \"#utility.yul\":16211:16237   */\n      swap1\n      pop\n        /* \"#utility.yul\":16283:16292   */\n      dup2\n        /* \"#utility.yul\":16277:16281   */\n      dup2\n        /* \"#utility.yul\":16273:16293   */\n      sub\n        /* \"#utility.yul\":16269:16270   */\n      0x00\n        /* \"#utility.yul\":16258:16267   */\n      dup4\n        /* \"#utility.yul\":16254:16271   */\n      add\n        /* \"#utility.yul\":16247:16294   */\n      mstore\n        /* \"#utility.yul\":16311:16442   */\n      tag_369\n        /* \"#utility.yul\":16437:16441   */\n      dup2\n        /* \"#utility.yul\":16311:16442   */\n      tag_204\n      jump\t// in\n    tag_369:\n        /* \"#utility.yul\":16303:16442   */\n      swap1\n      pop\n        /* \"#utility.yul\":16030:16449   */\n      swap2\n      swap1\n      pop\n      jump\t// out\n\n    auxdata: 0xa2646970667358221220d4c29f0a8e257730ca1a25e3b68dc23a5b7724976b31c8a587a9323975046a3d64736f6c634300081a0033\n}\n",
				"bytecode": {
					"linkReferences": {},
					"object": "610100604052348015610010575f80fd5b50735b38da6a701c568545dcfcb03fcb875f56beddc473ffffffffffffffffffffffffffffffffffffffff1660808173ffffffffffffffffffffffffffffffffffffffff168152505073a1fffd1ae86153799db6c8c9c0e57602545b280e73ffffffffffffffffffffffffffffffffffffffff1660c08173ffffffffffffffffffffffffffffffffffffffff16815250506298968060e08181525050625c490060a0818152505060805160a05160c05160e05161191161010e5f395f50505f8181610a4401528181610b2c01528181610dca01528181610eb20152610fa201525f50505f818161019f0152818161042f01526106b101526119115ff3fe608060405234801561000f575f80fd5b5060043610610086575f3560e01c8063b7f7e6f011610059578063b7f7e6f014610110578063c8804c711461012c578063f33cf57b1461014a578063f615a3f71461016857610086565b80635e0ca3b91461008a5780637a6d918e146100a65780637eca453d146100c2578063b70cbe35146100e0575b5f80fd5b6100a4600480360381019061009f91906110b2565b610186565b005b6100c060048036038101906100bb91906110b2565b610416565b005b6100ca6105c8565b6040516100d79190611194565b60405180910390f35b6100fa60048036038101906100f591906110b2565b610653565b60405161010791906111cc565b60405180910390f35b61012a60048036038101906101259190611335565b610698565b005b61013461088c565b60405161014191906111cc565b60405180910390f35b610152610c10565b60405161015f91906111cc565b60405180910390f35b610170610f96565b60405161017d91906111cc565b60405180910390f35b3373ffffffffffffffffffffffffffffffffffffffff167f000000000000000000000000000000000000000000000000000000000000000073ffffffffffffffffffffffffffffffffffffffff1614610214576040517f08c379a000000000000000000000000000000000000000000000000000000000815260040161020b906113fc565b60405180910390fd5b5f60018054905090505f808373ffffffffffffffffffffffffffffffffffffffff1673ffffffffffffffffffffffffffffffffffffffff1681526020019081526020015f205f90555f5b818161ffff161015610411578273ffffffffffffffffffffffffffffffffffffffff1660018261ffff16815481106102995761029861141a565b5b905f5260205f20015f9054906101000a900473ffffffffffffffffffffffffffffffffffffffff1673ffffffffffffffffffffffffffffffffffffffff16036103fe575f8190505b6001836102ee9190611474565b8161ffff1610156103b4576001808261030791906114b4565b61ffff168154811061031c5761031b61141a565b5b905f5260205f20015f9054906101000a900473ffffffffffffffffffffffffffffffffffffffff1660018261ffff168154811061035c5761035b61141a565b5b905f5260205f20015f6101000a81548173ffffffffffffffffffffffffffffffffffffffff021916908373ffffffffffffffffffffffffffffffffffffffff16021790555080806103ac906114e9565b9150506102e1565b5060018054806103c7576103c6611512565b5b600190038181905f5260205f20015f6101000a81549073ffffffffffffffffffffffffffffffffffffffff02191690559055610411565b8080610409906114e9565b91505061025e565b505050565b3373ffffffffffffffffffffffffffffffffffffffff167f000000000000000000000000000000000000000000000000000000000000000073ffffffffffffffffffffffffffffffffffffffff16146104a4576040517f08c379a000000000000000000000000000000000000000000000000000000000815260040161049b906113fc565b60405180910390fd5b5f805f8373ffffffffffffffffffffffffffffffffffffffff1673ffffffffffffffffffffffffffffffffffffffff1681526020019081526020015f20541115610523576040517f0e64c65800000000000000000000000000000000000000000000000000000000815260040161051a90611589565b60405180910390fd5b60015f808373ffffffffffffffffffffffffffffffffffffffff1673ffffffffffffffffffffffffffffffffffffffff1681526020019081526020015f2081905550600181908060018154018082558091505060019003905f5260205f20015f9091909190916101000a81548173ffffffffffffffffffffffffffffffffffffffff021916908373ffffffffffffffffffffffffffffffffffffffff16021790555050565b6060600180548060200260200160405190810160405280929190818152602001828054801561064957602002820191905f5260205f20905b815f9054906101000a900473ffffffffffffffffffffffffffffffffffffffff1673ffffffffffffffffffffffffffffffffffffffff1681526020019060010190808311610600575b5050505050905090565b5f805f8373ffffffffffffffffffffffffffffffffffffffff1673ffffffffffffffffffffffffffffffffffffffff1681526020019081526020015f20549050919050565b3373ffffffffffffffffffffffffffffffffffffffff167f000000000000000000000000000000000000000000000000000000000000000073ffffffffffffffffffffffffffffffffffffffff1614610726576040517f08c379a000000000000000000000000000000000000000000000000000000000815260040161071d906113fc565b60405180910390fd5b5f5b81518161ffff161015610888575f805f848461ffff168151811061074f5761074e61141a565b5b602002602001015173ffffffffffffffffffffffffffffffffffffffff1673ffffffffffffffffffffffffffffffffffffffff1681526020019081526020015f2054116108755760015f80848461ffff16815181106107b1576107b061141a565b5b602002602001015173ffffffffffffffffffffffffffffffffffffffff1673ffffffffffffffffffffffffffffffffffffffff1681526020019081526020015f20819055506001828261ffff168151811061080f5761080e61141a565b5b6020026020010151908060018154018082558091505060019003905f5260205f20015f9091909190916101000a81548173ffffffffffffffffffffffffffffffffffffffff021916908373ffffffffffffffffffffffffffffffffffffffff1602179055505b8080610880906114e9565b915050610728565b5050565b5f805f60018054905090505f805f3373ffffffffffffffffffffffffffffffffffffffff1673ffffffffffffffffffffffffffffffffffffffff1681526020019081526020015f205403610915576040517fb8fdf0b000000000000000000000000000000000000000000000000000000000815260040161090c906115f1565b60405180910390fd5b60015f803373ffffffffffffffffffffffffffffffffffffffff1673ffffffffffffffffffffffffffffffffffffffff1681526020019081526020015f2054036109b257600161012c5f803373ffffffffffffffffffffffffffffffffffffffff1673ffffffffffffffffffffffffffffffffffffffff1681526020019081526020015f20546109a5919061160f565b6109af9190611474565b91505b61012c5f803373ffffffffffffffffffffffffffffffffffffffff1673ffffffffffffffffffffffffffffffffffffffff1681526020019081526020015f20546109fc919061160f565b915081421015610a41576040517f08c379a0000000000000000000000000000000000000000000000000000000008152600401610a389061168c565b60405180910390fd5b5f7f000000000000000000000000000000000000000000000000000000000000000073ffffffffffffffffffffffffffffffffffffffff166370a08231306040518263ffffffff1660e01b8152600401610a9b91906116b9565b602060405180830381865afa158015610ab6573d5f803e3d5ffd5b505050506040513d601f19601f82011682018060405250810190610ada91906116fc565b11610b1a576040517f08c379a0000000000000000000000000000000000000000000000000000000008152600401610b1190611771565b60405180910390fd5b5f81600a610b2891906117bc565b90507f000000000000000000000000000000000000000000000000000000000000000073ffffffffffffffffffffffffffffffffffffffff1663a9059cbb33836040518363ffffffff1660e01b8152600401610b859291906117ec565b6020604051808303815f875af1158015610ba1573d5f803e3d5ffd5b505050506040513d601f19601f82011682018060405250810190610bc59190611848565b50425f803373ffffffffffffffffffffffffffffffffffffffff1673ffffffffffffffffffffffffffffffffffffffff1681526020019081526020015f20819055505f935050505090565b5f805f60018054905090505f805f3373ffffffffffffffffffffffffffffffffffffffff1673ffffffffffffffffffffffffffffffffffffffff1681526020019081526020015f205403610c99576040517fb8fdf0b0000000000000000000000000000000000000000000000000000000008152600401610c90906115f1565b60405180910390fd5b60015f803373ffffffffffffffffffffffffffffffffffffffff1673ffffffffffffffffffffffffffffffffffffffff1681526020019081526020015f205403610d3757600162093a805f803373ffffffffffffffffffffffffffffffffffffffff1673ffffffffffffffffffffffffffffffffffffffff1681526020019081526020015f2054610d2a919061160f565b610d349190611474565b91505b62093a805f803373ffffffffffffffffffffffffffffffffffffffff1673ffffffffffffffffffffffffffffffffffffffff1681526020019081526020015f2054610d82919061160f565b915081421015610dc7576040517f08c379a0000000000000000000000000000000000000000000000000000000008152600401610dbe906118bd565b60405180910390fd5b5f7f000000000000000000000000000000000000000000000000000000000000000073ffffffffffffffffffffffffffffffffffffffff166370a08231306040518263ffffffff1660e01b8152600401610e2191906116b9565b602060405180830381865afa158015610e3c573d5f803e3d5ffd5b505050506040513d601f19601f82011682018060405250810190610e6091906116fc565b11610ea0576040517f08c379a0000000000000000000000000000000000000000000000000000000008152600401610e9790611771565b60405180910390fd5b5f81600a610eae91906117bc565b90507f000000000000000000000000000000000000000000000000000000000000000073ffffffffffffffffffffffffffffffffffffffff1663a9059cbb33836040518363ffffffff1660e01b8152600401610f0b9291906117ec565b6020604051808303815f875af1158015610f27573d5f803e3d5ffd5b505050506040513d601f19601f82011682018060405250810190610f4b9190611848565b50425f803373ffffffffffffffffffffffffffffffffffffffff1673ffffffffffffffffffffffffffffffffffffffff1681526020019081526020015f20819055505f935050505090565b5f670de0b6b3a76400007f000000000000000000000000000000000000000000000000000000000000000073ffffffffffffffffffffffffffffffffffffffff166370a08231306040518263ffffffff1660e01b8152600401610ff991906116b9565b602060405180830381865afa158015611014573d5f803e3d5ffd5b505050506040513d601f19601f8201168201806040525081019061103891906116fc565b61104291906117bc565b905090565b5f604051905090565b5f80fd5b5f80fd5b5f73ffffffffffffffffffffffffffffffffffffffff82169050919050565b5f61108182611058565b9050919050565b61109181611077565b811461109b575f80fd5b50565b5f813590506110ac81611088565b92915050565b5f602082840312156110c7576110c6611050565b5b5f6110d48482850161109e565b91505092915050565b5f81519050919050565b5f82825260208201905092915050565b5f819050602082019050919050565b61110f81611077565b82525050565b5f6111208383611106565b60208301905092915050565b5f602082019050919050565b5f611142826110dd565b61114c81856110e7565b9350611157836110f7565b805f5b8381101561118757815161116e8882611115565b97506111798361112c565b92505060018101905061115a565b5085935050505092915050565b5f6020820190508181035f8301526111ac8184611138565b905092915050565b5f819050919050565b6111c6816111b4565b82525050565b5f6020820190506111df5f8301846111bd565b92915050565b5f80fd5b5f601f19601f8301169050919050565b7f4e487b71000000000000000000000000000000000000000000000000000000005f52604160045260245ffd5b61122f826111e9565b810181811067ffffffffffffffff8211171561124e5761124d6111f9565b5b80604052505050565b5f611260611047565b905061126c8282611226565b919050565b5f67ffffffffffffffff82111561128b5761128a6111f9565b5b602082029050602081019050919050565b5f80fd5b5f6112b26112ad84611271565b611257565b905080838252602082019050602084028301858111156112d5576112d461129c565b5b835b818110156112fe57806112ea888261109e565b8452602084019350506020810190506112d7565b5050509392505050565b5f82601f83011261131c5761131b6111e5565b5b813561132c8482602086016112a0565b91505092915050565b5f6020828403121561134a57611349611050565b5b5f82013567ffffffffffffffff81111561136757611366611054565b5b61137384828501611308565b91505092915050565b5f82825260208201905092915050565b7f6f6e6c792061646d696e2063616e20696e766f6b6520746869732066756e63745f8201527f696f6e0000000000000000000000000000000000000000000000000000000000602082015250565b5f6113e660238361137c565b91506113f18261138c565b604082019050919050565b5f6020820190508181035f830152611413816113da565b9050919050565b7f4e487b71000000000000000000000000000000000000000000000000000000005f52603260045260245ffd5b7f4e487b71000000000000000000000000000000000000000000000000000000005f52601160045260245ffd5b5f61147e826111b4565b9150611489836111b4565b92508282039050818111156114a1576114a0611447565b5b92915050565b5f61ffff82169050919050565b5f6114be826114a7565b91506114c9836114a7565b9250828201905061ffff8111156114e3576114e2611447565b5b92915050565b5f6114f3826114a7565b915061ffff820361150757611506611447565b5b600182019050919050565b7f4e487b71000000000000000000000000000000000000000000000000000000005f52603160045260245ffd5b7f55736572206578697374000000000000000000000000000000000000000000005f82015250565b5f611573600a8361137c565b915061157e8261153f565b602082019050919050565b5f6020820190508181035f8301526115a081611567565b9050919050565b7f4e6f7420616e20656c696769626c6520757365722100000000000000000000005f82015250565b5f6115db60158361137c565b91506115e6826115a7565b602082019050919050565b5f6020820190508181035f830152611608816115cf565b9050919050565b5f611619826111b4565b9150611624836111b4565b925082820190508082111561163c5761163b611447565b5b92915050565b7f436c61696d2061667465722035206d696e7574657300000000000000000000005f82015250565b5f61167660158361137c565b915061168182611642565b602082019050919050565b5f6020820190508181035f8301526116a38161166a565b9050919050565b6116b381611077565b82525050565b5f6020820190506116cc5f8301846116aa565b92915050565b6116db816111b4565b81146116e5575f80fd5b50565b5f815190506116f6816116d2565b92915050565b5f6020828403121561171157611710611050565b5b5f61171e848285016116e8565b91505092915050565b7f456d707479207661756c742100000000000000000000000000000000000000005f82015250565b5f61175b600c8361137c565b915061176682611727565b602082019050919050565b5f6020820190508181035f8301526117888161174f565b9050919050565b7f4e487b71000000000000000000000000000000000000000000000000000000005f52601260045260245ffd5b5f6117c6826111b4565b91506117d1836111b4565b9250826117e1576117e061178f565b5b828204905092915050565b5f6040820190506117ff5f8301856116aa565b61180c60208301846111bd565b9392505050565b5f8115159050919050565b61182781611813565b8114611831575f80fd5b50565b5f815190506118428161181e565b92915050565b5f6020828403121561185d5761185c611050565b5b5f61186a84828501611834565b91505092915050565b7f4f6e636520706572207765656b000000000000000000000000000000000000005f82015250565b5f6118a7600d8361137c565b91506118b282611873565b602082019050919050565b5f6020820190508181035f8301526118d48161189b565b905091905056fea2646970667358221220d4c29f0a8e257730ca1a25e3b68dc23a5b7724976b31c8a587a9323975046a3d64736f6c634300081a0033",
					"opcodes": "PUSH2 0x100 PUSH1 0x40 MSTORE CALLVALUE DUP1 ISZERO PUSH2 0x10 JUMPI PUSH0 DUP1 REVERT JUMPDEST POP PUSH20 0x5B38DA6A701C568545DCFCB03FCB875F56BEDDC4 PUSH20 0xFFFFFFFFFFFFFFFFFFFFFFFFFFFFFFFFFFFFFFFF AND PUSH1 0x80 DUP2 PUSH20 0xFFFFFFFFFFFFFFFFFFFFFFFFFFFFFFFFFFFFFFFF AND DUP2 MSTORE POP POP PUSH20 0xA1FFFD1AE86153799DB6C8C9C0E57602545B280E PUSH20 0xFFFFFFFFFFFFFFFFFFFFFFFFFFFFFFFFFFFFFFFF AND PUSH1 0xC0 DUP2 PUSH20 0xFFFFFFFFFFFFFFFFFFFFFFFFFFFFFFFFFFFFFFFF AND DUP2 MSTORE POP POP PUSH3 0x989680 PUSH1 0xE0 DUP2 DUP2 MSTORE POP POP PUSH3 0x5C4900 PUSH1 0xA0 DUP2 DUP2 MSTORE POP POP PUSH1 0x80 MLOAD PUSH1 0xA0 MLOAD PUSH1 0xC0 MLOAD PUSH1 0xE0 MLOAD PUSH2 0x1911 PUSH2 0x10E PUSH0 CODECOPY PUSH0 POP POP PUSH0 DUP2 DUP2 PUSH2 0xA44 ADD MSTORE DUP2 DUP2 PUSH2 0xB2C ADD MSTORE DUP2 DUP2 PUSH2 0xDCA ADD MSTORE DUP2 DUP2 PUSH2 0xEB2 ADD MSTORE PUSH2 0xFA2 ADD MSTORE PUSH0 POP POP PUSH0 DUP2 DUP2 PUSH2 0x19F ADD MSTORE DUP2 DUP2 PUSH2 0x42F ADD MSTORE PUSH2 0x6B1 ADD MSTORE PUSH2 0x1911 PUSH0 RETURN INVALID PUSH1 0x80 PUSH1 0x40 MSTORE CALLVALUE DUP1 ISZERO PUSH2 0xF JUMPI PUSH0 DUP1 REVERT JUMPDEST POP PUSH1 0x4 CALLDATASIZE LT PUSH2 0x86 JUMPI PUSH0 CALLDATALOAD PUSH1 0xE0 SHR DUP1 PUSH4 0xB7F7E6F0 GT PUSH2 0x59 JUMPI DUP1 PUSH4 0xB7F7E6F0 EQ PUSH2 0x110 JUMPI DUP1 PUSH4 0xC8804C71 EQ PUSH2 0x12C JUMPI DUP1 PUSH4 0xF33CF57B EQ PUSH2 0x14A JUMPI DUP1 PUSH4 0xF615A3F7 EQ PUSH2 0x168 JUMPI PUSH2 0x86 JUMP JUMPDEST DUP1 PUSH4 0x5E0CA3B9 EQ PUSH2 0x8A JUMPI DUP1 PUSH4 0x7A6D918E EQ PUSH2 0xA6 JUMPI DUP1 PUSH4 0x7ECA453D EQ PUSH2 0xC2 JUMPI DUP1 PUSH4 0xB70CBE35 EQ PUSH2 0xE0 JUMPI JUMPDEST PUSH0 DUP1 REVERT JUMPDEST PUSH2 0xA4 PUSH1 0x4 DUP1 CALLDATASIZE SUB DUP2 ADD SWAP1 PUSH2 0x9F SWAP2 SWAP1 PUSH2 0x10B2 JUMP JUMPDEST PUSH2 0x186 JUMP JUMPDEST STOP JUMPDEST PUSH2 0xC0 PUSH1 0x4 DUP1 CALLDATASIZE SUB DUP2 ADD SWAP1 PUSH2 0xBB SWAP2 SWAP1 PUSH2 0x10B2 JUMP JUMPDEST PUSH2 0x416 JUMP JUMPDEST STOP JUMPDEST PUSH2 0xCA PUSH2 0x5C8 JUMP JUMPDEST PUSH1 0x40 MLOAD PUSH2 0xD7 SWAP2 SWAP1 PUSH2 0x1194 JUMP JUMPDEST PUSH1 0x40 MLOAD DUP1 SWAP2 SUB SWAP1 RETURN JUMPDEST PUSH2 0xFA PUSH1 0x4 DUP1 CALLDATASIZE SUB DUP2 ADD SWAP1 PUSH2 0xF5 SWAP2 SWAP1 PUSH2 0x10B2 JUMP JUMPDEST PUSH2 0x653 JUMP JUMPDEST PUSH1 0x40 MLOAD PUSH2 0x107 SWAP2 SWAP1 PUSH2 0x11CC JUMP JUMPDEST PUSH1 0x40 MLOAD DUP1 SWAP2 SUB SWAP1 RETURN JUMPDEST PUSH2 0x12A PUSH1 0x4 DUP1 CALLDATASIZE SUB DUP2 ADD SWAP1 PUSH2 0x125 SWAP2 SWAP1 PUSH2 0x1335 JUMP JUMPDEST PUSH2 0x698 JUMP JUMPDEST STOP JUMPDEST PUSH2 0x134 PUSH2 0x88C JUMP JUMPDEST PUSH1 0x40 MLOAD PUSH2 0x141 SWAP2 SWAP1 PUSH2 0x11CC JUMP JUMPDEST PUSH1 0x40 MLOAD DUP1 SWAP2 SUB SWAP1 RETURN JUMPDEST PUSH2 0x152 PUSH2 0xC10 JUMP JUMPDEST PUSH1 0x40 MLOAD PUSH2 0x15F SWAP2 SWAP1 PUSH2 0x11CC JUMP JUMPDEST PUSH1 0x40 MLOAD DUP1 SWAP2 SUB SWAP1 RETURN JUMPDEST PUSH2 0x170 PUSH2 0xF96 JUMP JUMPDEST PUSH1 0x40 MLOAD PUSH2 0x17D SWAP2 SWAP1 PUSH2 0x11CC JUMP JUMPDEST PUSH1 0x40 MLOAD DUP1 SWAP2 SUB SWAP1 RETURN JUMPDEST CALLER PUSH20 0xFFFFFFFFFFFFFFFFFFFFFFFFFFFFFFFFFFFFFFFF AND PUSH32 0x0 PUSH20 0xFFFFFFFFFFFFFFFFFFFFFFFFFFFFFFFFFFFFFFFF AND EQ PUSH2 0x214 JUMPI PUSH1 0x40 MLOAD PUSH32 0x8C379A000000000000000000000000000000000000000000000000000000000 DUP2 MSTORE PUSH1 0x4 ADD PUSH2 0x20B SWAP1 PUSH2 0x13FC JUMP JUMPDEST PUSH1 0x40 MLOAD DUP1 SWAP2 SUB SWAP1 REVERT JUMPDEST PUSH0 PUSH1 0x1 DUP1 SLOAD SWAP1 POP SWAP1 POP PUSH0 DUP1 DUP4 PUSH20 0xFFFFFFFFFFFFFFFFFFFFFFFFFFFFFFFFFFFFFFFF AND PUSH20 0xFFFFFFFFFFFFFFFFFFFFFFFFFFFFFFFFFFFFFFFF AND DUP2 MSTORE PUSH1 0x20 ADD SWAP1 DUP2 MSTORE PUSH1 0x20 ADD PUSH0 KECCAK256 PUSH0 SWAP1 SSTORE PUSH0 JUMPDEST DUP2 DUP2 PUSH2 0xFFFF AND LT ISZERO PUSH2 0x411 JUMPI DUP3 PUSH20 0xFFFFFFFFFFFFFFFFFFFFFFFFFFFFFFFFFFFFFFFF AND PUSH1 0x1 DUP3 PUSH2 0xFFFF AND DUP2 SLOAD DUP2 LT PUSH2 0x299 JUMPI PUSH2 0x298 PUSH2 0x141A JUMP JUMPDEST JUMPDEST SWAP1 PUSH0 MSTORE PUSH1 0x20 PUSH0 KECCAK256 ADD PUSH0 SWAP1 SLOAD SWAP1 PUSH2 0x100 EXP SWAP1 DIV PUSH20 0xFFFFFFFFFFFFFFFFFFFFFFFFFFFFFFFFFFFFFFFF AND PUSH20 0xFFFFFFFFFFFFFFFFFFFFFFFFFFFFFFFFFFFFFFFF AND SUB PUSH2 0x3FE JUMPI PUSH0 DUP2 SWAP1 POP JUMPDEST PUSH1 0x1 DUP4 PUSH2 0x2EE SWAP2 SWAP1 PUSH2 0x1474 JUMP JUMPDEST DUP2 PUSH2 0xFFFF AND LT ISZERO PUSH2 0x3B4 JUMPI PUSH1 0x1 DUP1 DUP3 PUSH2 0x307 SWAP2 SWAP1 PUSH2 0x14B4 JUMP JUMPDEST PUSH2 0xFFFF AND DUP2 SLOAD DUP2 LT PUSH2 0x31C JUMPI PUSH2 0x31B PUSH2 0x141A JUMP JUMPDEST JUMPDEST SWAP1 PUSH0 MSTORE PUSH1 0x20 PUSH0 KECCAK256 ADD PUSH0 SWAP1 SLOAD SWAP1 PUSH2 0x100 EXP SWAP1 DIV PUSH20 0xFFFFFFFFFFFFFFFFFFFFFFFFFFFFFFFFFFFFFFFF AND PUSH1 0x1 DUP3 PUSH2 0xFFFF AND DUP2 SLOAD DUP2 LT PUSH2 0x35C JUMPI PUSH2 0x35B PUSH2 0x141A JUMP JUMPDEST JUMPDEST SWAP1 PUSH0 MSTORE PUSH1 0x20 PUSH0 KECCAK256 ADD PUSH0 PUSH2 0x100 EXP DUP2 SLOAD DUP2 PUSH20 0xFFFFFFFFFFFFFFFFFFFFFFFFFFFFFFFFFFFFFFFF MUL NOT AND SWAP1 DUP4 PUSH20 0xFFFFFFFFFFFFFFFFFFFFFFFFFFFFFFFFFFFFFFFF AND MUL OR SWAP1 SSTORE POP DUP1 DUP1 PUSH2 0x3AC SWAP1 PUSH2 0x14E9 JUMP JUMPDEST SWAP2 POP POP PUSH2 0x2E1 JUMP JUMPDEST POP PUSH1 0x1 DUP1 SLOAD DUP1 PUSH2 0x3C7 JUMPI PUSH2 0x3C6 PUSH2 0x1512 JUMP JUMPDEST JUMPDEST PUSH1 0x1 SWAP1 SUB DUP2 DUP2 SWAP1 PUSH0 MSTORE PUSH1 0x20 PUSH0 KECCAK256 ADD PUSH0 PUSH2 0x100 EXP DUP2 SLOAD SWAP1 PUSH20 0xFFFFFFFFFFFFFFFFFFFFFFFFFFFFFFFFFFFFFFFF MUL NOT AND SWAP1 SSTORE SWAP1 SSTORE PUSH2 0x411 JUMP JUMPDEST DUP1 DUP1 PUSH2 0x409 SWAP1 PUSH2 0x14E9 JUMP JUMPDEST SWAP2 POP POP PUSH2 0x25E JUMP JUMPDEST POP POP POP JUMP JUMPDEST CALLER PUSH20 0xFFFFFFFFFFFFFFFFFFFFFFFFFFFFFFFFFFFFFFFF AND PUSH32 0x0 PUSH20 0xFFFFFFFFFFFFFFFFFFFFFFFFFFFFFFFFFFFFFFFF AND EQ PUSH2 0x4A4 JUMPI PUSH1 0x40 MLOAD PUSH32 0x8C379A000000000000000000000000000000000000000000000000000000000 DUP2 MSTORE PUSH1 0x4 ADD PUSH2 0x49B SWAP1 PUSH2 0x13FC JUMP JUMPDEST PUSH1 0x40 MLOAD DUP1 SWAP2 SUB SWAP1 REVERT JUMPDEST PUSH0 DUP1 PUSH0 DUP4 PUSH20 0xFFFFFFFFFFFFFFFFFFFFFFFFFFFFFFFFFFFFFFFF AND PUSH20 0xFFFFFFFFFFFFFFFFFFFFFFFFFFFFFFFFFFFFFFFF AND DUP2 MSTORE PUSH1 0x20 ADD SWAP1 DUP2 MSTORE PUSH1 0x20 ADD PUSH0 KECCAK256 SLOAD GT ISZERO PUSH2 0x523 JUMPI PUSH1 0x40 MLOAD PUSH32 0xE64C65800000000000000000000000000000000000000000000000000000000 DUP2 MSTORE PUSH1 0x4 ADD PUSH2 0x51A SWAP1 PUSH2 0x1589 JUMP JUMPDEST PUSH1 0x40 MLOAD DUP1 SWAP2 SUB SWAP1 REVERT JUMPDEST PUSH1 0x1 PUSH0 DUP1 DUP4 PUSH20 0xFFFFFFFFFFFFFFFFFFFFFFFFFFFFFFFFFFFFFFFF AND PUSH20 0xFFFFFFFFFFFFFFFFFFFFFFFFFFFFFFFFFFFFFFFF AND DUP2 MSTORE PUSH1 0x20 ADD SWAP1 DUP2 MSTORE PUSH1 0x20 ADD PUSH0 KECCAK256 DUP2 SWAP1 SSTORE POP PUSH1 0x1 DUP2 SWAP1 DUP1 PUSH1 0x1 DUP2 SLOAD ADD DUP1 DUP3 SSTORE DUP1 SWAP2 POP POP PUSH1 0x1 SWAP1 SUB SWAP1 PUSH0 MSTORE PUSH1 0x20 PUSH0 KECCAK256 ADD PUSH0 SWAP1 SWAP2 SWAP1 SWAP2 SWAP1 SWAP2 PUSH2 0x100 EXP DUP2 SLOAD DUP2 PUSH20 0xFFFFFFFFFFFFFFFFFFFFFFFFFFFFFFFFFFFFFFFF MUL NOT AND SWAP1 DUP4 PUSH20 0xFFFFFFFFFFFFFFFFFFFFFFFFFFFFFFFFFFFFFFFF AND MUL OR SWAP1 SSTORE POP POP JUMP JUMPDEST PUSH1 0x60 PUSH1 0x1 DUP1 SLOAD DUP1 PUSH1 0x20 MUL PUSH1 0x20 ADD PUSH1 0x40 MLOAD SWAP1 DUP2 ADD PUSH1 0x40 MSTORE DUP1 SWAP3 SWAP2 SWAP1 DUP2 DUP2 MSTORE PUSH1 0x20 ADD DUP3 DUP1 SLOAD DUP1 ISZERO PUSH2 0x649 JUMPI PUSH1 0x20 MUL DUP3 ADD SWAP2 SWAP1 PUSH0 MSTORE PUSH1 0x20 PUSH0 KECCAK256 SWAP1 JUMPDEST DUP2 PUSH0 SWAP1 SLOAD SWAP1 PUSH2 0x100 EXP SWAP1 DIV PUSH20 0xFFFFFFFFFFFFFFFFFFFFFFFFFFFFFFFFFFFFFFFF AND PUSH20 0xFFFFFFFFFFFFFFFFFFFFFFFFFFFFFFFFFFFFFFFF AND DUP2 MSTORE PUSH1 0x20 ADD SWAP1 PUSH1 0x1 ADD SWAP1 DUP1 DUP4 GT PUSH2 0x600 JUMPI JUMPDEST POP POP POP POP POP SWAP1 POP SWAP1 JUMP JUMPDEST PUSH0 DUP1 PUSH0 DUP4 PUSH20 0xFFFFFFFFFFFFFFFFFFFFFFFFFFFFFFFFFFFFFFFF AND PUSH20 0xFFFFFFFFFFFFFFFFFFFFFFFFFFFFFFFFFFFFFFFF AND DUP2 MSTORE PUSH1 0x20 ADD SWAP1 DUP2 MSTORE PUSH1 0x20 ADD PUSH0 KECCAK256 SLOAD SWAP1 POP SWAP2 SWAP1 POP JUMP JUMPDEST CALLER PUSH20 0xFFFFFFFFFFFFFFFFFFFFFFFFFFFFFFFFFFFFFFFF AND PUSH32 0x0 PUSH20 0xFFFFFFFFFFFFFFFFFFFFFFFFFFFFFFFFFFFFFFFF AND EQ PUSH2 0x726 JUMPI PUSH1 0x40 MLOAD PUSH32 0x8C379A000000000000000000000000000000000000000000000000000000000 DUP2 MSTORE PUSH1 0x4 ADD PUSH2 0x71D SWAP1 PUSH2 0x13FC JUMP JUMPDEST PUSH1 0x40 MLOAD DUP1 SWAP2 SUB SWAP1 REVERT JUMPDEST PUSH0 JUMPDEST DUP2 MLOAD DUP2 PUSH2 0xFFFF AND LT ISZERO PUSH2 0x888 JUMPI PUSH0 DUP1 PUSH0 DUP5 DUP5 PUSH2 0xFFFF AND DUP2 MLOAD DUP2 LT PUSH2 0x74F JUMPI PUSH2 0x74E PUSH2 0x141A JUMP JUMPDEST JUMPDEST PUSH1 0x20 MUL PUSH1 0x20 ADD ADD MLOAD PUSH20 0xFFFFFFFFFFFFFFFFFFFFFFFFFFFFFFFFFFFFFFFF AND PUSH20 0xFFFFFFFFFFFFFFFFFFFFFFFFFFFFFFFFFFFFFFFF AND DUP2 MSTORE PUSH1 0x20 ADD SWAP1 DUP2 MSTORE PUSH1 0x20 ADD PUSH0 KECCAK256 SLOAD GT PUSH2 0x875 JUMPI PUSH1 0x1 PUSH0 DUP1 DUP5 DUP5 PUSH2 0xFFFF AND DUP2 MLOAD DUP2 LT PUSH2 0x7B1 JUMPI PUSH2 0x7B0 PUSH2 0x141A JUMP JUMPDEST JUMPDEST PUSH1 0x20 MUL PUSH1 0x20 ADD ADD MLOAD PUSH20 0xFFFFFFFFFFFFFFFFFFFFFFFFFFFFFFFFFFFFFFFF AND PUSH20 0xFFFFFFFFFFFFFFFFFFFFFFFFFFFFFFFFFFFFFFFF AND DUP2 MSTORE PUSH1 0x20 ADD SWAP1 DUP2 MSTORE PUSH1 0x20 ADD PUSH0 KECCAK256 DUP2 SWAP1 SSTORE POP PUSH1 0x1 DUP3 DUP3 PUSH2 0xFFFF AND DUP2 MLOAD DUP2 LT PUSH2 0x80F JUMPI PUSH2 0x80E PUSH2 0x141A JUMP JUMPDEST JUMPDEST PUSH1 0x20 MUL PUSH1 0x20 ADD ADD MLOAD SWAP1 DUP1 PUSH1 0x1 DUP2 SLOAD ADD DUP1 DUP3 SSTORE DUP1 SWAP2 POP POP PUSH1 0x1 SWAP1 SUB SWAP1 PUSH0 MSTORE PUSH1 0x20 PUSH0 KECCAK256 ADD PUSH0 SWAP1 SWAP2 SWAP1 SWAP2 SWAP1 SWAP2 PUSH2 0x100 EXP DUP2 SLOAD DUP2 PUSH20 0xFFFFFFFFFFFFFFFFFFFFFFFFFFFFFFFFFFFFFFFF MUL NOT AND SWAP1 DUP4 PUSH20 0xFFFFFFFFFFFFFFFFFFFFFFFFFFFFFFFFFFFFFFFF AND MUL OR SWAP1 SSTORE POP JUMPDEST DUP1 DUP1 PUSH2 0x880 SWAP1 PUSH2 0x14E9 JUMP JUMPDEST SWAP2 POP POP PUSH2 0x728 JUMP JUMPDEST POP POP JUMP JUMPDEST PUSH0 DUP1 PUSH0 PUSH1 0x1 DUP1 SLOAD SWAP1 POP SWAP1 POP PUSH0 DUP1 PUSH0 CALLER PUSH20 0xFFFFFFFFFFFFFFFFFFFFFFFFFFFFFFFFFFFFFFFF AND PUSH20 0xFFFFFFFFFFFFFFFFFFFFFFFFFFFFFFFFFFFFFFFF AND DUP2 MSTORE PUSH1 0x20 ADD SWAP1 DUP2 MSTORE PUSH1 0x20 ADD PUSH0 KECCAK256 SLOAD SUB PUSH2 0x915 JUMPI PUSH1 0x40 MLOAD PUSH32 0xB8FDF0B000000000000000000000000000000000000000000000000000000000 DUP2 MSTORE PUSH1 0x4 ADD PUSH2 0x90C SWAP1 PUSH2 0x15F1 JUMP JUMPDEST PUSH1 0x40 MLOAD DUP1 SWAP2 SUB SWAP1 REVERT JUMPDEST PUSH1 0x1 PUSH0 DUP1 CALLER PUSH20 0xFFFFFFFFFFFFFFFFFFFFFFFFFFFFFFFFFFFFFFFF AND PUSH20 0xFFFFFFFFFFFFFFFFFFFFFFFFFFFFFFFFFFFFFFFF AND DUP2 MSTORE PUSH1 0x20 ADD SWAP1 DUP2 MSTORE PUSH1 0x20 ADD PUSH0 KECCAK256 SLOAD SUB PUSH2 0x9B2 JUMPI PUSH1 0x1 PUSH2 0x12C PUSH0 DUP1 CALLER PUSH20 0xFFFFFFFFFFFFFFFFFFFFFFFFFFFFFFFFFFFFFFFF AND PUSH20 0xFFFFFFFFFFFFFFFFFFFFFFFFFFFFFFFFFFFFFFFF AND DUP2 MSTORE PUSH1 0x20 ADD SWAP1 DUP2 MSTORE PUSH1 0x20 ADD PUSH0 KECCAK256 SLOAD PUSH2 0x9A5 SWAP2 SWAP1 PUSH2 0x160F JUMP JUMPDEST PUSH2 0x9AF SWAP2 SWAP1 PUSH2 0x1474 JUMP JUMPDEST SWAP2 POP JUMPDEST PUSH2 0x12C PUSH0 DUP1 CALLER PUSH20 0xFFFFFFFFFFFFFFFFFFFFFFFFFFFFFFFFFFFFFFFF AND PUSH20 0xFFFFFFFFFFFFFFFFFFFFFFFFFFFFFFFFFFFFFFFF AND DUP2 MSTORE PUSH1 0x20 ADD SWAP1 DUP2 MSTORE PUSH1 0x20 ADD PUSH0 KECCAK256 SLOAD PUSH2 0x9FC SWAP2 SWAP1 PUSH2 0x160F JUMP JUMPDEST SWAP2 POP DUP2 TIMESTAMP LT ISZERO PUSH2 0xA41 JUMPI PUSH1 0x40 MLOAD PUSH32 0x8C379A000000000000000000000000000000000000000000000000000000000 DUP2 MSTORE PUSH1 0x4 ADD PUSH2 0xA38 SWAP1 PUSH2 0x168C JUMP JUMPDEST PUSH1 0x40 MLOAD DUP1 SWAP2 SUB SWAP1 REVERT JUMPDEST PUSH0 PUSH32 0x0 PUSH20 0xFFFFFFFFFFFFFFFFFFFFFFFFFFFFFFFFFFFFFFFF AND PUSH4 0x70A08231 ADDRESS PUSH1 0x40 MLOAD DUP3 PUSH4 0xFFFFFFFF AND PUSH1 0xE0 SHL DUP2 MSTORE PUSH1 0x4 ADD PUSH2 0xA9B SWAP2 SWAP1 PUSH2 0x16B9 JUMP JUMPDEST PUSH1 0x20 PUSH1 0x40 MLOAD DUP1 DUP4 SUB DUP2 DUP7 GAS STATICCALL ISZERO DUP1 ISZERO PUSH2 0xAB6 JUMPI RETURNDATASIZE PUSH0 DUP1 RETURNDATACOPY RETURNDATASIZE PUSH0 REVERT JUMPDEST POP POP POP POP PUSH1 0x40 MLOAD RETURNDATASIZE PUSH1 0x1F NOT PUSH1 0x1F DUP3 ADD AND DUP3 ADD DUP1 PUSH1 0x40 MSTORE POP DUP2 ADD SWAP1 PUSH2 0xADA SWAP2 SWAP1 PUSH2 0x16FC JUMP JUMPDEST GT PUSH2 0xB1A JUMPI PUSH1 0x40 MLOAD PUSH32 0x8C379A000000000000000000000000000000000000000000000000000000000 DUP2 MSTORE PUSH1 0x4 ADD PUSH2 0xB11 SWAP1 PUSH2 0x1771 JUMP JUMPDEST PUSH1 0x40 MLOAD DUP1 SWAP2 SUB SWAP1 REVERT JUMPDEST PUSH0 DUP2 PUSH1 0xA PUSH2 0xB28 SWAP2 SWAP1 PUSH2 0x17BC JUMP JUMPDEST SWAP1 POP PUSH32 0x0 PUSH20 0xFFFFFFFFFFFFFFFFFFFFFFFFFFFFFFFFFFFFFFFF AND PUSH4 0xA9059CBB CALLER DUP4 PUSH1 0x40 MLOAD DUP4 PUSH4 0xFFFFFFFF AND PUSH1 0xE0 SHL DUP2 MSTORE PUSH1 0x4 ADD PUSH2 0xB85 SWAP3 SWAP2 SWAP1 PUSH2 0x17EC JUMP JUMPDEST PUSH1 0x20 PUSH1 0x40 MLOAD DUP1 DUP4 SUB DUP2 PUSH0 DUP8 GAS CALL ISZERO DUP1 ISZERO PUSH2 0xBA1 JUMPI RETURNDATASIZE PUSH0 DUP1 RETURNDATACOPY RETURNDATASIZE PUSH0 REVERT JUMPDEST POP POP POP POP PUSH1 0x40 MLOAD RETURNDATASIZE PUSH1 0x1F NOT PUSH1 0x1F DUP3 ADD AND DUP3 ADD DUP1 PUSH1 0x40 MSTORE POP DUP2 ADD SWAP1 PUSH2 0xBC5 SWAP2 SWAP1 PUSH2 0x1848 JUMP JUMPDEST POP TIMESTAMP PUSH0 DUP1 CALLER PUSH20 0xFFFFFFFFFFFFFFFFFFFFFFFFFFFFFFFFFFFFFFFF AND PUSH20 0xFFFFFFFFFFFFFFFFFFFFFFFFFFFFFFFFFFFFFFFF AND DUP2 MSTORE PUSH1 0x20 ADD SWAP1 DUP2 MSTORE PUSH1 0x20 ADD PUSH0 KECCAK256 DUP2 SWAP1 SSTORE POP PUSH0 SWAP4 POP POP POP POP SWAP1 JUMP JUMPDEST PUSH0 DUP1 PUSH0 PUSH1 0x1 DUP1 SLOAD SWAP1 POP SWAP1 POP PUSH0 DUP1 PUSH0 CALLER PUSH20 0xFFFFFFFFFFFFFFFFFFFFFFFFFFFFFFFFFFFFFFFF AND PUSH20 0xFFFFFFFFFFFFFFFFFFFFFFFFFFFFFFFFFFFFFFFF AND DUP2 MSTORE PUSH1 0x20 ADD SWAP1 DUP2 MSTORE PUSH1 0x20 ADD PUSH0 KECCAK256 SLOAD SUB PUSH2 0xC99 JUMPI PUSH1 0x40 MLOAD PUSH32 0xB8FDF0B000000000000000000000000000000000000000000000000000000000 DUP2 MSTORE PUSH1 0x4 ADD PUSH2 0xC90 SWAP1 PUSH2 0x15F1 JUMP JUMPDEST PUSH1 0x40 MLOAD DUP1 SWAP2 SUB SWAP1 REVERT JUMPDEST PUSH1 0x1 PUSH0 DUP1 CALLER PUSH20 0xFFFFFFFFFFFFFFFFFFFFFFFFFFFFFFFFFFFFFFFF AND PUSH20 0xFFFFFFFFFFFFFFFFFFFFFFFFFFFFFFFFFFFFFFFF AND DUP2 MSTORE PUSH1 0x20 ADD SWAP1 DUP2 MSTORE PUSH1 0x20 ADD PUSH0 KECCAK256 SLOAD SUB PUSH2 0xD37 JUMPI PUSH1 0x1 PUSH3 0x93A80 PUSH0 DUP1 CALLER PUSH20 0xFFFFFFFFFFFFFFFFFFFFFFFFFFFFFFFFFFFFFFFF AND PUSH20 0xFFFFFFFFFFFFFFFFFFFFFFFFFFFFFFFFFFFFFFFF AND DUP2 MSTORE PUSH1 0x20 ADD SWAP1 DUP2 MSTORE PUSH1 0x20 ADD PUSH0 KECCAK256 SLOAD PUSH2 0xD2A SWAP2 SWAP1 PUSH2 0x160F JUMP JUMPDEST PUSH2 0xD34 SWAP2 SWAP1 PUSH2 0x1474 JUMP JUMPDEST SWAP2 POP JUMPDEST PUSH3 0x93A80 PUSH0 DUP1 CALLER PUSH20 0xFFFFFFFFFFFFFFFFFFFFFFFFFFFFFFFFFFFFFFFF AND PUSH20 0xFFFFFFFFFFFFFFFFFFFFFFFFFFFFFFFFFFFFFFFF AND DUP2 MSTORE PUSH1 0x20 ADD SWAP1 DUP2 MSTORE PUSH1 0x20 ADD PUSH0 KECCAK256 SLOAD PUSH2 0xD82 SWAP2 SWAP1 PUSH2 0x160F JUMP JUMPDEST SWAP2 POP DUP2 TIMESTAMP LT ISZERO PUSH2 0xDC7 JUMPI PUSH1 0x40 MLOAD PUSH32 0x8C379A000000000000000000000000000000000000000000000000000000000 DUP2 MSTORE PUSH1 0x4 ADD PUSH2 0xDBE SWAP1 PUSH2 0x18BD JUMP JUMPDEST PUSH1 0x40 MLOAD DUP1 SWAP2 SUB SWAP1 REVERT JUMPDEST PUSH0 PUSH32 0x0 PUSH20 0xFFFFFFFFFFFFFFFFFFFFFFFFFFFFFFFFFFFFFFFF AND PUSH4 0x70A08231 ADDRESS PUSH1 0x40 MLOAD DUP3 PUSH4 0xFFFFFFFF AND PUSH1 0xE0 SHL DUP2 MSTORE PUSH1 0x4 ADD PUSH2 0xE21 SWAP2 SWAP1 PUSH2 0x16B9 JUMP JUMPDEST PUSH1 0x20 PUSH1 0x40 MLOAD DUP1 DUP4 SUB DUP2 DUP7 GAS STATICCALL ISZERO DUP1 ISZERO PUSH2 0xE3C JUMPI RETURNDATASIZE PUSH0 DUP1 RETURNDATACOPY RETURNDATASIZE PUSH0 REVERT JUMPDEST POP POP POP POP PUSH1 0x40 MLOAD RETURNDATASIZE PUSH1 0x1F NOT PUSH1 0x1F DUP3 ADD AND DUP3 ADD DUP1 PUSH1 0x40 MSTORE POP DUP2 ADD SWAP1 PUSH2 0xE60 SWAP2 SWAP1 PUSH2 0x16FC JUMP JUMPDEST GT PUSH2 0xEA0 JUMPI PUSH1 0x40 MLOAD PUSH32 0x8C379A000000000000000000000000000000000000000000000000000000000 DUP2 MSTORE PUSH1 0x4 ADD PUSH2 0xE97 SWAP1 PUSH2 0x1771 JUMP JUMPDEST PUSH1 0x40 MLOAD DUP1 SWAP2 SUB SWAP1 REVERT JUMPDEST PUSH0 DUP2 PUSH1 0xA PUSH2 0xEAE SWAP2 SWAP1 PUSH2 0x17BC JUMP JUMPDEST SWAP1 POP PUSH32 0x0 PUSH20 0xFFFFFFFFFFFFFFFFFFFFFFFFFFFFFFFFFFFFFFFF AND PUSH4 0xA9059CBB CALLER DUP4 PUSH1 0x40 MLOAD DUP4 PUSH4 0xFFFFFFFF AND PUSH1 0xE0 SHL DUP2 MSTORE PUSH1 0x4 ADD PUSH2 0xF0B SWAP3 SWAP2 SWAP1 PUSH2 0x17EC JUMP JUMPDEST PUSH1 0x20 PUSH1 0x40 MLOAD DUP1 DUP4 SUB DUP2 PUSH0 DUP8 GAS CALL ISZERO DUP1 ISZERO PUSH2 0xF27 JUMPI RETURNDATASIZE PUSH0 DUP1 RETURNDATACOPY RETURNDATASIZE PUSH0 REVERT JUMPDEST POP POP POP POP PUSH1 0x40 MLOAD RETURNDATASIZE PUSH1 0x1F NOT PUSH1 0x1F DUP3 ADD AND DUP3 ADD DUP1 PUSH1 0x40 MSTORE POP DUP2 ADD SWAP1 PUSH2 0xF4B SWAP2 SWAP1 PUSH2 0x1848 JUMP JUMPDEST POP TIMESTAMP PUSH0 DUP1 CALLER PUSH20 0xFFFFFFFFFFFFFFFFFFFFFFFFFFFFFFFFFFFFFFFF AND PUSH20 0xFFFFFFFFFFFFFFFFFFFFFFFFFFFFFFFFFFFFFFFF AND DUP2 MSTORE PUSH1 0x20 ADD SWAP1 DUP2 MSTORE PUSH1 0x20 ADD PUSH0 KECCAK256 DUP2 SWAP1 SSTORE POP PUSH0 SWAP4 POP POP POP POP SWAP1 JUMP JUMPDEST PUSH0 PUSH8 0xDE0B6B3A7640000 PUSH32 0x0 PUSH20 0xFFFFFFFFFFFFFFFFFFFFFFFFFFFFFFFFFFFFFFFF AND PUSH4 0x70A08231 ADDRESS PUSH1 0x40 MLOAD DUP3 PUSH4 0xFFFFFFFF AND PUSH1 0xE0 SHL DUP2 MSTORE PUSH1 0x4 ADD PUSH2 0xFF9 SWAP2 SWAP1 PUSH2 0x16B9 JUMP JUMPDEST PUSH1 0x20 PUSH1 0x40 MLOAD DUP1 DUP4 SUB DUP2 DUP7 GAS STATICCALL ISZERO DUP1 ISZERO PUSH2 0x1014 JUMPI RETURNDATASIZE PUSH0 DUP1 RETURNDATACOPY RETURNDATASIZE PUSH0 REVERT JUMPDEST POP POP POP POP PUSH1 0x40 MLOAD RETURNDATASIZE PUSH1 0x1F NOT PUSH1 0x1F DUP3 ADD AND DUP3 ADD DUP1 PUSH1 0x40 MSTORE POP DUP2 ADD SWAP1 PUSH2 0x1038 SWAP2 SWAP1 PUSH2 0x16FC JUMP JUMPDEST PUSH2 0x1042 SWAP2 SWAP1 PUSH2 0x17BC JUMP JUMPDEST SWAP1 POP SWAP1 JUMP JUMPDEST PUSH0 PUSH1 0x40 MLOAD SWAP1 POP SWAP1 JUMP JUMPDEST PUSH0 DUP1 REVERT JUMPDEST PUSH0 DUP1 REVERT JUMPDEST PUSH0 PUSH20 0xFFFFFFFFFFFFFFFFFFFFFFFFFFFFFFFFFFFFFFFF DUP3 AND SWAP1 POP SWAP2 SWAP1 POP JUMP JUMPDEST PUSH0 PUSH2 0x1081 DUP3 PUSH2 0x1058 JUMP JUMPDEST SWAP1 POP SWAP2 SWAP1 POP JUMP JUMPDEST PUSH2 0x1091 DUP2 PUSH2 0x1077 JUMP JUMPDEST DUP2 EQ PUSH2 0x109B JUMPI PUSH0 DUP1 REVERT JUMPDEST POP JUMP JUMPDEST PUSH0 DUP2 CALLDATALOAD SWAP1 POP PUSH2 0x10AC DUP2 PUSH2 0x1088 JUMP JUMPDEST SWAP3 SWAP2 POP POP JUMP JUMPDEST PUSH0 PUSH1 0x20 DUP3 DUP5 SUB SLT ISZERO PUSH2 0x10C7 JUMPI PUSH2 0x10C6 PUSH2 0x1050 JUMP JUMPDEST JUMPDEST PUSH0 PUSH2 0x10D4 DUP5 DUP3 DUP6 ADD PUSH2 0x109E JUMP JUMPDEST SWAP2 POP POP SWAP3 SWAP2 POP POP JUMP JUMPDEST PUSH0 DUP2 MLOAD SWAP1 POP SWAP2 SWAP1 POP JUMP JUMPDEST PUSH0 DUP3 DUP3 MSTORE PUSH1 0x20 DUP3 ADD SWAP1 POP SWAP3 SWAP2 POP POP JUMP JUMPDEST PUSH0 DUP2 SWAP1 POP PUSH1 0x20 DUP3 ADD SWAP1 POP SWAP2 SWAP1 POP JUMP JUMPDEST PUSH2 0x110F DUP2 PUSH2 0x1077 JUMP JUMPDEST DUP3 MSTORE POP POP JUMP JUMPDEST PUSH0 PUSH2 0x1120 DUP4 DUP4 PUSH2 0x1106 JUMP JUMPDEST PUSH1 0x20 DUP4 ADD SWAP1 POP SWAP3 SWAP2 POP POP JUMP JUMPDEST PUSH0 PUSH1 0x20 DUP3 ADD SWAP1 POP SWAP2 SWAP1 POP JUMP JUMPDEST PUSH0 PUSH2 0x1142 DUP3 PUSH2 0x10DD JUMP JUMPDEST PUSH2 0x114C DUP2 DUP6 PUSH2 0x10E7 JUMP JUMPDEST SWAP4 POP PUSH2 0x1157 DUP4 PUSH2 0x10F7 JUMP JUMPDEST DUP1 PUSH0 JUMPDEST DUP4 DUP2 LT ISZERO PUSH2 0x1187 JUMPI DUP2 MLOAD PUSH2 0x116E DUP9 DUP3 PUSH2 0x1115 JUMP JUMPDEST SWAP8 POP PUSH2 0x1179 DUP4 PUSH2 0x112C JUMP JUMPDEST SWAP3 POP POP PUSH1 0x1 DUP2 ADD SWAP1 POP PUSH2 0x115A JUMP JUMPDEST POP DUP6 SWAP4 POP POP POP POP SWAP3 SWAP2 POP POP JUMP JUMPDEST PUSH0 PUSH1 0x20 DUP3 ADD SWAP1 POP DUP2 DUP2 SUB PUSH0 DUP4 ADD MSTORE PUSH2 0x11AC DUP2 DUP5 PUSH2 0x1138 JUMP JUMPDEST SWAP1 POP SWAP3 SWAP2 POP POP JUMP JUMPDEST PUSH0 DUP2 SWAP1 POP SWAP2 SWAP1 POP JUMP JUMPDEST PUSH2 0x11C6 DUP2 PUSH2 0x11B4 JUMP JUMPDEST DUP3 MSTORE POP POP JUMP JUMPDEST PUSH0 PUSH1 0x20 DUP3 ADD SWAP1 POP PUSH2 0x11DF PUSH0 DUP4 ADD DUP5 PUSH2 0x11BD JUMP JUMPDEST SWAP3 SWAP2 POP POP JUMP JUMPDEST PUSH0 DUP1 REVERT JUMPDEST PUSH0 PUSH1 0x1F NOT PUSH1 0x1F DUP4 ADD AND SWAP1 POP SWAP2 SWAP1 POP JUMP JUMPDEST PUSH32 0x4E487B7100000000000000000000000000000000000000000000000000000000 PUSH0 MSTORE PUSH1 0x41 PUSH1 0x4 MSTORE PUSH1 0x24 PUSH0 REVERT JUMPDEST PUSH2 0x122F DUP3 PUSH2 0x11E9 JUMP JUMPDEST DUP2 ADD DUP2 DUP2 LT PUSH8 0xFFFFFFFFFFFFFFFF DUP3 GT OR ISZERO PUSH2 0x124E JUMPI PUSH2 0x124D PUSH2 0x11F9 JUMP JUMPDEST JUMPDEST DUP1 PUSH1 0x40 MSTORE POP POP POP JUMP JUMPDEST PUSH0 PUSH2 0x1260 PUSH2 0x1047 JUMP JUMPDEST SWAP1 POP PUSH2 0x126C DUP3 DUP3 PUSH2 0x1226 JUMP JUMPDEST SWAP2 SWAP1 POP JUMP JUMPDEST PUSH0 PUSH8 0xFFFFFFFFFFFFFFFF DUP3 GT ISZERO PUSH2 0x128B JUMPI PUSH2 0x128A PUSH2 0x11F9 JUMP JUMPDEST JUMPDEST PUSH1 0x20 DUP3 MUL SWAP1 POP PUSH1 0x20 DUP2 ADD SWAP1 POP SWAP2 SWAP1 POP JUMP JUMPDEST PUSH0 DUP1 REVERT JUMPDEST PUSH0 PUSH2 0x12B2 PUSH2 0x12AD DUP5 PUSH2 0x1271 JUMP JUMPDEST PUSH2 0x1257 JUMP JUMPDEST SWAP1 POP DUP1 DUP4 DUP3 MSTORE PUSH1 0x20 DUP3 ADD SWAP1 POP PUSH1 0x20 DUP5 MUL DUP4 ADD DUP6 DUP2 GT ISZERO PUSH2 0x12D5 JUMPI PUSH2 0x12D4 PUSH2 0x129C JUMP JUMPDEST JUMPDEST DUP4 JUMPDEST DUP2 DUP2 LT ISZERO PUSH2 0x12FE JUMPI DUP1 PUSH2 0x12EA DUP9 DUP3 PUSH2 0x109E JUMP JUMPDEST DUP5 MSTORE PUSH1 0x20 DUP5 ADD SWAP4 POP POP PUSH1 0x20 DUP2 ADD SWAP1 POP PUSH2 0x12D7 JUMP JUMPDEST POP POP POP SWAP4 SWAP3 POP POP POP JUMP JUMPDEST PUSH0 DUP3 PUSH1 0x1F DUP4 ADD SLT PUSH2 0x131C JUMPI PUSH2 0x131B PUSH2 0x11E5 JUMP JUMPDEST JUMPDEST DUP2 CALLDATALOAD PUSH2 0x132C DUP5 DUP3 PUSH1 0x20 DUP7 ADD PUSH2 0x12A0 JUMP JUMPDEST SWAP2 POP POP SWAP3 SWAP2 POP POP JUMP JUMPDEST PUSH0 PUSH1 0x20 DUP3 DUP5 SUB SLT ISZERO PUSH2 0x134A JUMPI PUSH2 0x1349 PUSH2 0x1050 JUMP JUMPDEST JUMPDEST PUSH0 DUP3 ADD CALLDATALOAD PUSH8 0xFFFFFFFFFFFFFFFF DUP2 GT ISZERO PUSH2 0x1367 JUMPI PUSH2 0x1366 PUSH2 0x1054 JUMP JUMPDEST JUMPDEST PUSH2 0x1373 DUP5 DUP3 DUP6 ADD PUSH2 0x1308 JUMP JUMPDEST SWAP2 POP POP SWAP3 SWAP2 POP POP JUMP JUMPDEST PUSH0 DUP3 DUP3 MSTORE PUSH1 0x20 DUP3 ADD SWAP1 POP SWAP3 SWAP2 POP POP JUMP JUMPDEST PUSH32 0x6F6E6C792061646D696E2063616E20696E766F6B6520746869732066756E6374 PUSH0 DUP3 ADD MSTORE PUSH32 0x696F6E0000000000000000000000000000000000000000000000000000000000 PUSH1 0x20 DUP3 ADD MSTORE POP JUMP JUMPDEST PUSH0 PUSH2 0x13E6 PUSH1 0x23 DUP4 PUSH2 0x137C JUMP JUMPDEST SWAP2 POP PUSH2 0x13F1 DUP3 PUSH2 0x138C JUMP JUMPDEST PUSH1 0x40 DUP3 ADD SWAP1 POP SWAP2 SWAP1 POP JUMP JUMPDEST PUSH0 PUSH1 0x20 DUP3 ADD SWAP1 POP DUP2 DUP2 SUB PUSH0 DUP4 ADD MSTORE PUSH2 0x1413 DUP2 PUSH2 0x13DA JUMP JUMPDEST SWAP1 POP SWAP2 SWAP1 POP JUMP JUMPDEST PUSH32 0x4E487B7100000000000000000000000000000000000000000000000000000000 PUSH0 MSTORE PUSH1 0x32 PUSH1 0x4 MSTORE PUSH1 0x24 PUSH0 REVERT JUMPDEST PUSH32 0x4E487B7100000000000000000000000000000000000000000000000000000000 PUSH0 MSTORE PUSH1 0x11 PUSH1 0x4 MSTORE PUSH1 0x24 PUSH0 REVERT JUMPDEST PUSH0 PUSH2 0x147E DUP3 PUSH2 0x11B4 JUMP JUMPDEST SWAP2 POP PUSH2 0x1489 DUP4 PUSH2 0x11B4 JUMP JUMPDEST SWAP3 POP DUP3 DUP3 SUB SWAP1 POP DUP2 DUP2 GT ISZERO PUSH2 0x14A1 JUMPI PUSH2 0x14A0 PUSH2 0x1447 JUMP JUMPDEST JUMPDEST SWAP3 SWAP2 POP POP JUMP JUMPDEST PUSH0 PUSH2 0xFFFF DUP3 AND SWAP1 POP SWAP2 SWAP1 POP JUMP JUMPDEST PUSH0 PUSH2 0x14BE DUP3 PUSH2 0x14A7 JUMP JUMPDEST SWAP2 POP PUSH2 0x14C9 DUP4 PUSH2 0x14A7 JUMP JUMPDEST SWAP3 POP DUP3 DUP3 ADD SWAP1 POP PUSH2 0xFFFF DUP2 GT ISZERO PUSH2 0x14E3 JUMPI PUSH2 0x14E2 PUSH2 0x1447 JUMP JUMPDEST JUMPDEST SWAP3 SWAP2 POP POP JUMP JUMPDEST PUSH0 PUSH2 0x14F3 DUP3 PUSH2 0x14A7 JUMP JUMPDEST SWAP2 POP PUSH2 0xFFFF DUP3 SUB PUSH2 0x1507 JUMPI PUSH2 0x1506 PUSH2 0x1447 JUMP JUMPDEST JUMPDEST PUSH1 0x1 DUP3 ADD SWAP1 POP SWAP2 SWAP1 POP JUMP JUMPDEST PUSH32 0x4E487B7100000000000000000000000000000000000000000000000000000000 PUSH0 MSTORE PUSH1 0x31 PUSH1 0x4 MSTORE PUSH1 0x24 PUSH0 REVERT JUMPDEST PUSH32 0x5573657220657869737400000000000000000000000000000000000000000000 PUSH0 DUP3 ADD MSTORE POP JUMP JUMPDEST PUSH0 PUSH2 0x1573 PUSH1 0xA DUP4 PUSH2 0x137C JUMP JUMPDEST SWAP2 POP PUSH2 0x157E DUP3 PUSH2 0x153F JUMP JUMPDEST PUSH1 0x20 DUP3 ADD SWAP1 POP SWAP2 SWAP1 POP JUMP JUMPDEST PUSH0 PUSH1 0x20 DUP3 ADD SWAP1 POP DUP2 DUP2 SUB PUSH0 DUP4 ADD MSTORE PUSH2 0x15A0 DUP2 PUSH2 0x1567 JUMP JUMPDEST SWAP1 POP SWAP2 SWAP1 POP JUMP JUMPDEST PUSH32 0x4E6F7420616E20656C696769626C652075736572210000000000000000000000 PUSH0 DUP3 ADD MSTORE POP JUMP JUMPDEST PUSH0 PUSH2 0x15DB PUSH1 0x15 DUP4 PUSH2 0x137C JUMP JUMPDEST SWAP2 POP PUSH2 0x15E6 DUP3 PUSH2 0x15A7 JUMP JUMPDEST PUSH1 0x20 DUP3 ADD SWAP1 POP SWAP2 SWAP1 POP JUMP JUMPDEST PUSH0 PUSH1 0x20 DUP3 ADD SWAP1 POP DUP2 DUP2 SUB PUSH0 DUP4 ADD MSTORE PUSH2 0x1608 DUP2 PUSH2 0x15CF JUMP JUMPDEST SWAP1 POP SWAP2 SWAP1 POP JUMP JUMPDEST PUSH0 PUSH2 0x1619 DUP3 PUSH2 0x11B4 JUMP JUMPDEST SWAP2 POP PUSH2 0x1624 DUP4 PUSH2 0x11B4 JUMP JUMPDEST SWAP3 POP DUP3 DUP3 ADD SWAP1 POP DUP1 DUP3 GT ISZERO PUSH2 0x163C JUMPI PUSH2 0x163B PUSH2 0x1447 JUMP JUMPDEST JUMPDEST SWAP3 SWAP2 POP POP JUMP JUMPDEST PUSH32 0x436C61696D2061667465722035206D696E757465730000000000000000000000 PUSH0 DUP3 ADD MSTORE POP JUMP JUMPDEST PUSH0 PUSH2 0x1676 PUSH1 0x15 DUP4 PUSH2 0x137C JUMP JUMPDEST SWAP2 POP PUSH2 0x1681 DUP3 PUSH2 0x1642 JUMP JUMPDEST PUSH1 0x20 DUP3 ADD SWAP1 POP SWAP2 SWAP1 POP JUMP JUMPDEST PUSH0 PUSH1 0x20 DUP3 ADD SWAP1 POP DUP2 DUP2 SUB PUSH0 DUP4 ADD MSTORE PUSH2 0x16A3 DUP2 PUSH2 0x166A JUMP JUMPDEST SWAP1 POP SWAP2 SWAP1 POP JUMP JUMPDEST PUSH2 0x16B3 DUP2 PUSH2 0x1077 JUMP JUMPDEST DUP3 MSTORE POP POP JUMP JUMPDEST PUSH0 PUSH1 0x20 DUP3 ADD SWAP1 POP PUSH2 0x16CC PUSH0 DUP4 ADD DUP5 PUSH2 0x16AA JUMP JUMPDEST SWAP3 SWAP2 POP POP JUMP JUMPDEST PUSH2 0x16DB DUP2 PUSH2 0x11B4 JUMP JUMPDEST DUP2 EQ PUSH2 0x16E5 JUMPI PUSH0 DUP1 REVERT JUMPDEST POP JUMP JUMPDEST PUSH0 DUP2 MLOAD SWAP1 POP PUSH2 0x16F6 DUP2 PUSH2 0x16D2 JUMP JUMPDEST SWAP3 SWAP2 POP POP JUMP JUMPDEST PUSH0 PUSH1 0x20 DUP3 DUP5 SUB SLT ISZERO PUSH2 0x1711 JUMPI PUSH2 0x1710 PUSH2 0x1050 JUMP JUMPDEST JUMPDEST PUSH0 PUSH2 0x171E DUP5 DUP3 DUP6 ADD PUSH2 0x16E8 JUMP JUMPDEST SWAP2 POP POP SWAP3 SWAP2 POP POP JUMP JUMPDEST PUSH32 0x456D707479207661756C74210000000000000000000000000000000000000000 PUSH0 DUP3 ADD MSTORE POP JUMP JUMPDEST PUSH0 PUSH2 0x175B PUSH1 0xC DUP4 PUSH2 0x137C JUMP JUMPDEST SWAP2 POP PUSH2 0x1766 DUP3 PUSH2 0x1727 JUMP JUMPDEST PUSH1 0x20 DUP3 ADD SWAP1 POP SWAP2 SWAP1 POP JUMP JUMPDEST PUSH0 PUSH1 0x20 DUP3 ADD SWAP1 POP DUP2 DUP2 SUB PUSH0 DUP4 ADD MSTORE PUSH2 0x1788 DUP2 PUSH2 0x174F JUMP JUMPDEST SWAP1 POP SWAP2 SWAP1 POP JUMP JUMPDEST PUSH32 0x4E487B7100000000000000000000000000000000000000000000000000000000 PUSH0 MSTORE PUSH1 0x12 PUSH1 0x4 MSTORE PUSH1 0x24 PUSH0 REVERT JUMPDEST PUSH0 PUSH2 0x17C6 DUP3 PUSH2 0x11B4 JUMP JUMPDEST SWAP2 POP PUSH2 0x17D1 DUP4 PUSH2 0x11B4 JUMP JUMPDEST SWAP3 POP DUP3 PUSH2 0x17E1 JUMPI PUSH2 0x17E0 PUSH2 0x178F JUMP JUMPDEST JUMPDEST DUP3 DUP3 DIV SWAP1 POP SWAP3 SWAP2 POP POP JUMP JUMPDEST PUSH0 PUSH1 0x40 DUP3 ADD SWAP1 POP PUSH2 0x17FF PUSH0 DUP4 ADD DUP6 PUSH2 0x16AA JUMP JUMPDEST PUSH2 0x180C PUSH1 0x20 DUP4 ADD DUP5 PUSH2 0x11BD JUMP JUMPDEST SWAP4 SWAP3 POP POP POP JUMP JUMPDEST PUSH0 DUP2 ISZERO ISZERO SWAP1 POP SWAP2 SWAP1 POP JUMP JUMPDEST PUSH2 0x1827 DUP2 PUSH2 0x1813 JUMP JUMPDEST DUP2 EQ PUSH2 0x1831 JUMPI PUSH0 DUP1 REVERT JUMPDEST POP JUMP JUMPDEST PUSH0 DUP2 MLOAD SWAP1 POP PUSH2 0x1842 DUP2 PUSH2 0x181E JUMP JUMPDEST SWAP3 SWAP2 POP POP JUMP JUMPDEST PUSH0 PUSH1 0x20 DUP3 DUP5 SUB SLT ISZERO PUSH2 0x185D JUMPI PUSH2 0x185C PUSH2 0x1050 JUMP JUMPDEST JUMPDEST PUSH0 PUSH2 0x186A DUP5 DUP3 DUP6 ADD PUSH2 0x1834 JUMP JUMPDEST SWAP2 POP POP SWAP3 SWAP2 POP POP JUMP JUMPDEST PUSH32 0x4F6E636520706572207765656B00000000000000000000000000000000000000 PUSH0 DUP3 ADD MSTORE POP JUMP JUMPDEST PUSH0 PUSH2 0x18A7 PUSH1 0xD DUP4 PUSH2 0x137C JUMP JUMPDEST SWAP2 POP PUSH2 0x18B2 DUP3 PUSH2 0x1873 JUMP JUMPDEST PUSH1 0x20 DUP3 ADD SWAP1 POP SWAP2 SWAP1 POP JUMP JUMPDEST PUSH0 PUSH1 0x20 DUP3 ADD SWAP1 POP DUP2 DUP2 SUB PUSH0 DUP4 ADD MSTORE PUSH2 0x18D4 DUP2 PUSH2 0x189B JUMP JUMPDEST SWAP1 POP SWAP2 SWAP1 POP JUMP INVALID LOG2 PUSH5 0x6970667358 0x22 SLT KECCAK256 0xD4 0xC2 SWAP16 EXP DUP15 0x25 PUSH24 0x30CA1A25E3B68DC23A5B7724976B31C8A587A9323975046A RETURNDATASIZE PUSH5 0x736F6C6343 STOP ADDMOD BYTE STOP CALLER "
				},
				"gasEstimates": {
					"creation": {
						"codeDepositCost": "1283400",
						"executionCost": "infinite",
						"totalCost": "infinite"
					},
					"external": {
						"AddEligibleUser(address)": "infinite",
						"AddMultipleEliglibleUser(address[])": "infinite",
						"ReadOnlyBalance4Dev()": "infinite",
						"RemoveEligibleUser(address)": "infinite",
						"lis()": "infinite",
						"returndf(address)": "2896",
						"test5minsClaim()": "infinite",
						"testClaim()": "infinite"
					}
				},
				"methodIdentifiers": {
					"AddEligibleUser(address)": "7a6d918e",
					"AddMultipleEliglibleUser(address[])": "b7f7e6f0",
					"ReadOnlyBalance4Dev()": "f615a3f7",
					"RemoveEligibleUser(address)": "5e0ca3b9",
					"lis()": "7eca453d",
					"returndf(address)": "b70cbe35",
					"test5minsClaim()": "c8804c71",
					"testClaim()": "f33cf57b"
				}
			},
			"storageLayout": {
				"storage": [
					{
						"astId": 52,
						"contract": "contracts/build_bounty/prototype/durationv2.sol:DurationTest",
						"label": "EligibleUser",
						"offset": 0,
						"slot": "0",
						"type": "t_mapping(t_address,t_uint256)"
					},
					{
						"astId": 55,
						"contract": "contracts/build_bounty/prototype/durationv2.sol:DurationTest",
						"label": "EligibleUserArr",
						"offset": 0,
						"slot": "1",
						"type": "t_array(t_address)dyn_storage"
					}
				],
				"types": {
					"t_address": {
						"encoding": "inplace",
						"label": "address",
						"numberOfBytes": "20"
					},
					"t_array(t_address)dyn_storage": {
						"base": "t_address",
						"encoding": "dynamic_array",
						"label": "address[]",
						"numberOfBytes": "32"
					},
					"t_mapping(t_address,t_uint256)": {
						"encoding": "mapping",
						"key": "t_address",
						"label": "mapping(address => uint256)",
						"numberOfBytes": "32",
						"value": "t_uint256"
					},
					"t_uint256": {
						"encoding": "inplace",
						"label": "uint256",
						"numberOfBytes": "32"
					}
				}
			},
			"userdoc": {
				"kind": "user",
				"methods": {},
				"version": 1
			}
		}
	}
}