{
	"data": {
		"bytecode": {
			"linkReferences": {},
			"object": "60c060405234801561000f575f80fd5b50604051610934380380610934833981810160405281019061003191906100d9565b8073ffffffffffffffffffffffffffffffffffffffff1660808173ffffffffffffffffffffffffffffffffffffffff1681525050670de0b6b3a764000060a0818152505050610104565b5f80fd5b5f73ffffffffffffffffffffffffffffffffffffffff82169050919050565b5f6100a88261007f565b9050919050565b6100b88161009e565b81146100c2575f80fd5b50565b5f815190506100d3816100af565b92915050565b5f602082840312156100ee576100ed61007b565b5b5f6100fb848285016100c5565b91505092915050565b60805160a0516107e661014e5f395f818161012a015281816101f2015261040f01525f8181608c0152818161014b01528181610220015281816102fa01526103d201526107e65ff3fe608060405234801561000f575f80fd5b506004361061003f575f3560e01c80630768725d1461004357806321c9c63c14610061578063903e577d1461007f575b5f80fd5b61004b610089565b60405161005891906104b4565b60405180910390f35b610069610127565b60405161007691906104b4565b60405180910390f35b6100876101f0565b005b5f7f000000000000000000000000000000000000000000000000000000000000000073ffffffffffffffffffffffffffffffffffffffff166370a08231306040518263ffffffff1660e01b81526004016100e3919061050c565b602060405180830381865afa1580156100fe573d5f803e3d5ffd5b505050506040513d601f19601f820116820180604052508101906101229190610553565b905090565b5f7f00000000000000000000000000000000000000000000000000000000000000007f000000000000000000000000000000000000000000000000000000000000000073ffffffffffffffffffffffffffffffffffffffff166370a08231306040518263ffffffff1660e01b81526004016101a2919061050c565b602060405180830381865afa1580156101bd573d5f803e3d5ffd5b505050506040513d601f19601f820116820180604052508101906101e19190610553565b6101eb91906105d8565b905090565b7f000000000000000000000000000000000000000000000000000000000000000061271061021e9190610608565b7f000000000000000000000000000000000000000000000000000000000000000073ffffffffffffffffffffffffffffffffffffffff166370a08231336040518263ffffffff1660e01b8152600401610277919061050c565b602060405180830381865afa158015610292573d5f803e3d5ffd5b505050506040513d601f19601f820116820180604052508101906102b69190610553565b11156102f7576040517f08c379a00000000000000000000000000000000000000000000000000000000081526004016102ee906106a3565b60405180910390fd5b5f7f000000000000000000000000000000000000000000000000000000000000000073ffffffffffffffffffffffffffffffffffffffff166370a08231306040518263ffffffff1660e01b8152600401610351919061050c565b602060405180830381865afa15801561036c573d5f803e3d5ffd5b505050506040513d601f19601f820116820180604052508101906103909190610553565b116103d0576040517f08c379a00000000000000000000000000000000000000000000000000000000081526004016103c79061070b565b60405180910390fd5b7f000000000000000000000000000000000000000000000000000000000000000073ffffffffffffffffffffffffffffffffffffffff1663a9059cbb337f00000000000000000000000000000000000000000000000000000000000000006298968061043c9190610608565b6040518363ffffffff1660e01b8152600401610459929190610729565b6020604051808303815f875af1158015610475573d5f803e3d5ffd5b505050506040513d601f19601f820116820180604052508101906104999190610785565b50565b5f819050919050565b6104ae8161049c565b82525050565b5f6020820190506104c75f8301846104a5565b92915050565b5f73ffffffffffffffffffffffffffffffffffffffff82169050919050565b5f6104f6826104cd565b9050919050565b610506816104ec565b82525050565b5f60208201905061051f5f8301846104fd565b92915050565b5f80fd5b6105328161049c565b811461053c575f80fd5b50565b5f8151905061054d81610529565b92915050565b5f6020828403121561056857610567610525565b5b5f6105758482850161053f565b91505092915050565b7f4e487b71000000000000000000000000000000000000000000000000000000005f52601260045260245ffd5b7f4e487b71000000000000000000000000000000000000000000000000000000005f52601160045260245ffd5b5f6105e28261049c565b91506105ed8361049c565b9250826105fd576105fc61057e565b5b828204905092915050565b5f6106128261049c565b915061061d8361049c565b925082820261062b8161049c565b91508282048414831517610642576106416105ab565b5b5092915050565b5f82825260208201905092915050565b7f686f6c64696e6720746f6f206d616e7920746f6b656e210000000000000000005f82015250565b5f61068d601783610649565b915061069882610659565b602082019050919050565b5f6020820190508181035f8301526106ba81610681565b9050919050565b7f456d707479207661756c742100000000000000000000000000000000000000005f82015250565b5f6106f5600c83610649565b9150610700826106c1565b602082019050919050565b5f6020820190508181035f830152610722816106e9565b9050919050565b5f60408201905061073c5f8301856104fd565b61074960208301846104a5565b9392505050565b5f8115159050919050565b61076481610750565b811461076e575f80fd5b50565b5f8151905061077f8161075b565b92915050565b5f6020828403121561079a57610799610525565b5b5f6107a784828501610771565b9150509291505056fea2646970667358221220b3e5a68caa567425f200f5d48f5f5e867030a71690505aff6139cd4a08f676ef64736f6c634300081a0033",
			"opcodes": "PUSH1 0xC0 PUSH1 0x40 MSTORE CALLVALUE DUP1 ISZERO PUSH2 0xF JUMPI PUSH0 DUP1 REVERT JUMPDEST POP PUSH1 0x40 MLOAD PUSH2 0x934 CODESIZE SUB DUP1 PUSH2 0x934 DUP4 CODECOPY DUP2 DUP2 ADD PUSH1 0x40 MSTORE DUP2 ADD SWAP1 PUSH2 0x31 SWAP2 SWAP1 PUSH2 0xD9 JUMP JUMPDEST DUP1 PUSH20 0xFFFFFFFFFFFFFFFFFFFFFFFFFFFFFFFFFFFFFFFF AND PUSH1 0x80 DUP2 PUSH20 0xFFFFFFFFFFFFFFFFFFFFFFFFFFFFFFFFFFFFFFFF AND DUP2 MSTORE POP POP PUSH8 0xDE0B6B3A7640000 PUSH1 0xA0 DUP2 DUP2 MSTORE POP POP POP PUSH2 0x104 JUMP JUMPDEST PUSH0 DUP1 REVERT JUMPDEST PUSH0 PUSH20 0xFFFFFFFFFFFFFFFFFFFFFFFFFFFFFFFFFFFFFFFF DUP3 AND SWAP1 POP SWAP2 SWAP1 POP JUMP JUMPDEST PUSH0 PUSH2 0xA8 DUP3 PUSH2 0x7F JUMP JUMPDEST SWAP1 POP SWAP2 SWAP1 POP JUMP JUMPDEST PUSH2 0xB8 DUP2 PUSH2 0x9E JUMP JUMPDEST DUP2 EQ PUSH2 0xC2 JUMPI PUSH0 DUP1 REVERT JUMPDEST POP JUMP JUMPDEST PUSH0 DUP2 MLOAD SWAP1 POP PUSH2 0xD3 DUP2 PUSH2 0xAF JUMP JUMPDEST SWAP3 SWAP2 POP POP JUMP JUMPDEST PUSH0 PUSH1 0x20 DUP3 DUP5 SUB SLT ISZERO PUSH2 0xEE JUMPI PUSH2 0xED PUSH2 0x7B JUMP JUMPDEST JUMPDEST PUSH0 PUSH2 0xFB DUP5 DUP3 DUP6 ADD PUSH2 0xC5 JUMP JUMPDEST SWAP2 POP POP SWAP3 SWAP2 POP POP JUMP JUMPDEST PUSH1 0x80 MLOAD PUSH1 0xA0 MLOAD PUSH2 0x7E6 PUSH2 0x14E PUSH0 CODECOPY PUSH0 DUP2 DUP2 PUSH2 0x12A ADD MSTORE DUP2 DUP2 PUSH2 0x1F2 ADD MSTORE PUSH2 0x40F ADD MSTORE PUSH0 DUP2 DUP2 PUSH1 0x8C ADD MSTORE DUP2 DUP2 PUSH2 0x14B ADD MSTORE DUP2 DUP2 PUSH2 0x220 ADD MSTORE DUP2 DUP2 PUSH2 0x2FA ADD MSTORE PUSH2 0x3D2 ADD MSTORE PUSH2 0x7E6 PUSH0 RETURN INVALID PUSH1 0x80 PUSH1 0x40 MSTORE CALLVALUE DUP1 ISZERO PUSH2 0xF JUMPI PUSH0 DUP1 REVERT JUMPDEST POP PUSH1 0x4 CALLDATASIZE LT PUSH2 0x3F JUMPI PUSH0 CALLDATALOAD PUSH1 0xE0 SHR DUP1 PUSH4 0x768725D EQ PUSH2 0x43 JUMPI DUP1 PUSH4 0x21C9C63C EQ PUSH2 0x61 JUMPI DUP1 PUSH4 0x903E577D EQ PUSH2 0x7F JUMPI JUMPDEST PUSH0 DUP1 REVERT JUMPDEST PUSH2 0x4B PUSH2 0x89 JUMP JUMPDEST PUSH1 0x40 MLOAD PUSH2 0x58 SWAP2 SWAP1 PUSH2 0x4B4 JUMP JUMPDEST PUSH1 0x40 MLOAD DUP1 SWAP2 SUB SWAP1 RETURN JUMPDEST PUSH2 0x69 PUSH2 0x127 JUMP JUMPDEST PUSH1 0x40 MLOAD PUSH2 0x76 SWAP2 SWAP1 PUSH2 0x4B4 JUMP JUMPDEST PUSH1 0x40 MLOAD DUP1 SWAP2 SUB SWAP1 RETURN JUMPDEST PUSH2 0x87 PUSH2 0x1F0 JUMP JUMPDEST STOP JUMPDEST PUSH0 PUSH32 0x0 PUSH20 0xFFFFFFFFFFFFFFFFFFFFFFFFFFFFFFFFFFFFFFFF AND PUSH4 0x70A08231 ADDRESS PUSH1 0x40 MLOAD DUP3 PUSH4 0xFFFFFFFF AND PUSH1 0xE0 SHL DUP2 MSTORE PUSH1 0x4 ADD PUSH2 0xE3 SWAP2 SWAP1 PUSH2 0x50C JUMP JUMPDEST PUSH1 0x20 PUSH1 0x40 MLOAD DUP1 DUP4 SUB DUP2 DUP7 GAS STATICCALL ISZERO DUP1 ISZERO PUSH2 0xFE JUMPI RETURNDATASIZE PUSH0 DUP1 RETURNDATACOPY RETURNDATASIZE PUSH0 REVERT JUMPDEST POP POP POP POP PUSH1 0x40 MLOAD RETURNDATASIZE PUSH1 0x1F NOT PUSH1 0x1F DUP3 ADD AND DUP3 ADD DUP1 PUSH1 0x40 MSTORE POP DUP2 ADD SWAP1 PUSH2 0x122 SWAP2 SWAP1 PUSH2 0x553 JUMP JUMPDEST SWAP1 POP SWAP1 JUMP JUMPDEST PUSH0 PUSH32 0x0 PUSH32 0x0 PUSH20 0xFFFFFFFFFFFFFFFFFFFFFFFFFFFFFFFFFFFFFFFF AND PUSH4 0x70A08231 ADDRESS PUSH1 0x40 MLOAD DUP3 PUSH4 0xFFFFFFFF AND PUSH1 0xE0 SHL DUP2 MSTORE PUSH1 0x4 ADD PUSH2 0x1A2 SWAP2 SWAP1 PUSH2 0x50C JUMP JUMPDEST PUSH1 0x20 PUSH1 0x40 MLOAD DUP1 DUP4 SUB DUP2 DUP7 GAS STATICCALL ISZERO DUP1 ISZERO PUSH2 0x1BD JUMPI RETURNDATASIZE PUSH0 DUP1 RETURNDATACOPY RETURNDATASIZE PUSH0 REVERT JUMPDEST POP POP POP POP PUSH1 0x40 MLOAD RETURNDATASIZE PUSH1 0x1F NOT PUSH1 0x1F DUP3 ADD AND DUP3 ADD DUP1 PUSH1 0x40 MSTORE POP DUP2 ADD SWAP1 PUSH2 0x1E1 SWAP2 SWAP1 PUSH2 0x553 JUMP JUMPDEST PUSH2 0x1EB SWAP2 SWAP1 PUSH2 0x5D8 JUMP JUMPDEST SWAP1 POP SWAP1 JUMP JUMPDEST PUSH32 0x0 PUSH2 0x2710 PUSH2 0x21E SWAP2 SWAP1 PUSH2 0x608 JUMP JUMPDEST PUSH32 0x0 PUSH20 0xFFFFFFFFFFFFFFFFFFFFFFFFFFFFFFFFFFFFFFFF AND PUSH4 0x70A08231 CALLER PUSH1 0x40 MLOAD DUP3 PUSH4 0xFFFFFFFF AND PUSH1 0xE0 SHL DUP2 MSTORE PUSH1 0x4 ADD PUSH2 0x277 SWAP2 SWAP1 PUSH2 0x50C JUMP JUMPDEST PUSH1 0x20 PUSH1 0x40 MLOAD DUP1 DUP4 SUB DUP2 DUP7 GAS STATICCALL ISZERO DUP1 ISZERO PUSH2 0x292 JUMPI RETURNDATASIZE PUSH0 DUP1 RETURNDATACOPY RETURNDATASIZE PUSH0 REVERT JUMPDEST POP POP POP POP PUSH1 0x40 MLOAD RETURNDATASIZE PUSH1 0x1F NOT PUSH1 0x1F DUP3 ADD AND DUP3 ADD DUP1 PUSH1 0x40 MSTORE POP DUP2 ADD SWAP1 PUSH2 0x2B6 SWAP2 SWAP1 PUSH2 0x553 JUMP JUMPDEST GT ISZERO PUSH2 0x2F7 JUMPI PUSH1 0x40 MLOAD PUSH32 0x8C379A000000000000000000000000000000000000000000000000000000000 DUP2 MSTORE PUSH1 0x4 ADD PUSH2 0x2EE SWAP1 PUSH2 0x6A3 JUMP JUMPDEST PUSH1 0x40 MLOAD DUP1 SWAP2 SUB SWAP1 REVERT JUMPDEST PUSH0 PUSH32 0x0 PUSH20 0xFFFFFFFFFFFFFFFFFFFFFFFFFFFFFFFFFFFFFFFF AND PUSH4 0x70A08231 ADDRESS PUSH1 0x40 MLOAD DUP3 PUSH4 0xFFFFFFFF AND PUSH1 0xE0 SHL DUP2 MSTORE PUSH1 0x4 ADD PUSH2 0x351 SWAP2 SWAP1 PUSH2 0x50C JUMP JUMPDEST PUSH1 0x20 PUSH1 0x40 MLOAD DUP1 DUP4 SUB DUP2 DUP7 GAS STATICCALL ISZERO DUP1 ISZERO PUSH2 0x36C JUMPI RETURNDATASIZE PUSH0 DUP1 RETURNDATACOPY RETURNDATASIZE PUSH0 REVERT JUMPDEST POP POP POP POP PUSH1 0x40 MLOAD RETURNDATASIZE PUSH1 0x1F NOT PUSH1 0x1F DUP3 ADD AND DUP3 ADD DUP1 PUSH1 0x40 MSTORE POP DUP2 ADD SWAP1 PUSH2 0x390 SWAP2 SWAP1 PUSH2 0x553 JUMP JUMPDEST GT PUSH2 0x3D0 JUMPI PUSH1 0x40 MLOAD PUSH32 0x8C379A000000000000000000000000000000000000000000000000000000000 DUP2 MSTORE PUSH1 0x4 ADD PUSH2 0x3C7 SWAP1 PUSH2 0x70B JUMP JUMPDEST PUSH1 0x40 MLOAD DUP1 SWAP2 SUB SWAP1 REVERT JUMPDEST PUSH32 0x0 PUSH20 0xFFFFFFFFFFFFFFFFFFFFFFFFFFFFFFFFFFFFFFFF AND PUSH4 0xA9059CBB CALLER PUSH32 0x0 PUSH3 0x989680 PUSH2 0x43C SWAP2 SWAP1 PUSH2 0x608 JUMP JUMPDEST PUSH1 0x40 MLOAD DUP4 PUSH4 0xFFFFFFFF AND PUSH1 0xE0 SHL DUP2 MSTORE PUSH1 0x4 ADD PUSH2 0x459 SWAP3 SWAP2 SWAP1 PUSH2 0x729 JUMP JUMPDEST PUSH1 0x20 PUSH1 0x40 MLOAD DUP1 DUP4 SUB DUP2 PUSH0 DUP8 GAS CALL ISZERO DUP1 ISZERO PUSH2 0x475 JUMPI RETURNDATASIZE PUSH0 DUP1 RETURNDATACOPY RETURNDATASIZE PUSH0 REVERT JUMPDEST POP POP POP POP PUSH1 0x40 MLOAD RETURNDATASIZE PUSH1 0x1F NOT PUSH1 0x1F DUP3 ADD AND DUP3 ADD DUP1 PUSH1 0x40 MSTORE POP DUP2 ADD SWAP1 PUSH2 0x499 SWAP2 SWAP1 PUSH2 0x785 JUMP JUMPDEST POP JUMP JUMPDEST PUSH0 DUP2 SWAP1 POP SWAP2 SWAP1 POP JUMP JUMPDEST PUSH2 0x4AE DUP2 PUSH2 0x49C JUMP JUMPDEST DUP3 MSTORE POP POP JUMP JUMPDEST PUSH0 PUSH1 0x20 DUP3 ADD SWAP1 POP PUSH2 0x4C7 PUSH0 DUP4 ADD DUP5 PUSH2 0x4A5 JUMP JUMPDEST SWAP3 SWAP2 POP POP JUMP JUMPDEST PUSH0 PUSH20 0xFFFFFFFFFFFFFFFFFFFFFFFFFFFFFFFFFFFFFFFF DUP3 AND SWAP1 POP SWAP2 SWAP1 POP JUMP JUMPDEST PUSH0 PUSH2 0x4F6 DUP3 PUSH2 0x4CD JUMP JUMPDEST SWAP1 POP SWAP2 SWAP1 POP JUMP JUMPDEST PUSH2 0x506 DUP2 PUSH2 0x4EC JUMP JUMPDEST DUP3 MSTORE POP POP JUMP JUMPDEST PUSH0 PUSH1 0x20 DUP3 ADD SWAP1 POP PUSH2 0x51F PUSH0 DUP4 ADD DUP5 PUSH2 0x4FD JUMP JUMPDEST SWAP3 SWAP2 POP POP JUMP JUMPDEST PUSH0 DUP1 REVERT JUMPDEST PUSH2 0x532 DUP2 PUSH2 0x49C JUMP JUMPDEST DUP2 EQ PUSH2 0x53C JUMPI PUSH0 DUP1 REVERT JUMPDEST POP JUMP JUMPDEST PUSH0 DUP2 MLOAD SWAP1 POP PUSH2 0x54D DUP2 PUSH2 0x529 JUMP JUMPDEST SWAP3 SWAP2 POP POP JUMP JUMPDEST PUSH0 PUSH1 0x20 DUP3 DUP5 SUB SLT ISZERO PUSH2 0x568 JUMPI PUSH2 0x567 PUSH2 0x525 JUMP JUMPDEST JUMPDEST PUSH0 PUSH2 0x575 DUP5 DUP3 DUP6 ADD PUSH2 0x53F JUMP JUMPDEST SWAP2 POP POP SWAP3 SWAP2 POP POP JUMP JUMPDEST PUSH32 0x4E487B7100000000000000000000000000000000000000000000000000000000 PUSH0 MSTORE PUSH1 0x12 PUSH1 0x4 MSTORE PUSH1 0x24 PUSH0 REVERT JUMPDEST PUSH32 0x4E487B7100000000000000000000000000000000000000000000000000000000 PUSH0 MSTORE PUSH1 0x11 PUSH1 0x4 MSTORE PUSH1 0x24 PUSH0 REVERT JUMPDEST PUSH0 PUSH2 0x5E2 DUP3 PUSH2 0x49C JUMP JUMPDEST SWAP2 POP PUSH2 0x5ED DUP4 PUSH2 0x49C JUMP JUMPDEST SWAP3 POP DUP3 PUSH2 0x5FD JUMPI PUSH2 0x5FC PUSH2 0x57E JUMP JUMPDEST JUMPDEST DUP3 DUP3 DIV SWAP1 POP SWAP3 SWAP2 POP POP JUMP JUMPDEST PUSH0 PUSH2 0x612 DUP3 PUSH2 0x49C JUMP JUMPDEST SWAP2 POP PUSH2 0x61D DUP4 PUSH2 0x49C JUMP JUMPDEST SWAP3 POP DUP3 DUP3 MUL PUSH2 0x62B DUP2 PUSH2 0x49C JUMP JUMPDEST SWAP2 POP DUP3 DUP3 DIV DUP5 EQ DUP4 ISZERO OR PUSH2 0x642 JUMPI PUSH2 0x641 PUSH2 0x5AB JUMP JUMPDEST JUMPDEST POP SWAP3 SWAP2 POP POP JUMP JUMPDEST PUSH0 DUP3 DUP3 MSTORE PUSH1 0x20 DUP3 ADD SWAP1 POP SWAP3 SWAP2 POP POP JUMP JUMPDEST PUSH32 0x686F6C64696E6720746F6F206D616E7920746F6B656E21000000000000000000 PUSH0 DUP3 ADD MSTORE POP JUMP JUMPDEST PUSH0 PUSH2 0x68D PUSH1 0x17 DUP4 PUSH2 0x649 JUMP JUMPDEST SWAP2 POP PUSH2 0x698 DUP3 PUSH2 0x659 JUMP JUMPDEST PUSH1 0x20 DUP3 ADD SWAP1 POP SWAP2 SWAP1 POP JUMP JUMPDEST PUSH0 PUSH1 0x20 DUP3 ADD SWAP1 POP DUP2 DUP2 SUB PUSH0 DUP4 ADD MSTORE PUSH2 0x6BA DUP2 PUSH2 0x681 JUMP JUMPDEST SWAP1 POP SWAP2 SWAP1 POP JUMP JUMPDEST PUSH32 0x456D707479207661756C74210000000000000000000000000000000000000000 PUSH0 DUP3 ADD MSTORE POP JUMP JUMPDEST PUSH0 PUSH2 0x6F5 PUSH1 0xC DUP4 PUSH2 0x649 JUMP JUMPDEST SWAP2 POP PUSH2 0x700 DUP3 PUSH2 0x6C1 JUMP JUMPDEST PUSH1 0x20 DUP3 ADD SWAP1 POP SWAP2 SWAP1 POP JUMP JUMPDEST PUSH0 PUSH1 0x20 DUP3 ADD SWAP1 POP DUP2 DUP2 SUB PUSH0 DUP4 ADD MSTORE PUSH2 0x722 DUP2 PUSH2 0x6E9 JUMP JUMPDEST SWAP1 POP SWAP2 SWAP1 POP JUMP JUMPDEST PUSH0 PUSH1 0x40 DUP3 ADD SWAP1 POP PUSH2 0x73C PUSH0 DUP4 ADD DUP6 PUSH2 0x4FD JUMP JUMPDEST PUSH2 0x749 PUSH1 0x20 DUP4 ADD DUP5 PUSH2 0x4A5 JUMP JUMPDEST SWAP4 SWAP3 POP POP POP JUMP JUMPDEST PUSH0 DUP2 ISZERO ISZERO SWAP1 POP SWAP2 SWAP1 POP JUMP JUMPDEST PUSH2 0x764 DUP2 PUSH2 0x750 JUMP JUMPDEST DUP2 EQ PUSH2 0x76E JUMPI PUSH0 DUP1 REVERT JUMPDEST POP JUMP JUMPDEST PUSH0 DUP2 MLOAD SWAP1 POP PUSH2 0x77F DUP2 PUSH2 0x75B JUMP JUMPDEST SWAP3 SWAP2 POP POP JUMP JUMPDEST PUSH0 PUSH1 0x20 DUP3 DUP5 SUB SLT ISZERO PUSH2 0x79A JUMPI PUSH2 0x799 PUSH2 0x525 JUMP JUMPDEST JUMPDEST PUSH0 PUSH2 0x7A7 DUP5 DUP3 DUP6 ADD PUSH2 0x771 JUMP JUMPDEST SWAP2 POP POP SWAP3 SWAP2 POP POP JUMP INVALID LOG2 PUSH5 0x6970667358 0x22 SLT KECCAK256 0xB3 0xE5 0xA6 DUP13 0xAA JUMP PUSH21 0x25F200F5D48F5F5E867030A71690505AFF6139CD4A ADDMOD 0xF6 PUSH23 0xEF64736F6C634300081A00330000000000000000000000 "
		},
		"gasEstimates": {
			"creation": {
				"codeDepositCost": "404400",
				"executionCost": "infinite",
				"totalCost": "infinite"
			},
			"external": {
				"BalanceFaucet()": "infinite",
				"ClaimFaucet()": "infinite",
				"ReadOnly4DevBalanceFaucet()": "infinite"
			}
		},
		"methodIdentifiers": {
			"BalanceFaucet()": "0768725d",
			"ClaimFaucet()": "903e577d",
			"ReadOnly4DevBalanceFaucet()": "21c9c63c"
		}
	},
	"abi": [
		{
			"inputs": [
				{
					"internalType": "address",
					"name": "mock_build_ca",
					"type": "address"
				}
			],
			"stateMutability": "nonpayable",
			"type": "constructor"
		},
		{
			"inputs": [],
			"name": "BalanceFaucet",
			"outputs": [
				{
					"internalType": "uint256",
					"name": "",
					"type": "uint256"
				}
			],
			"stateMutability": "view",
			"type": "function"
		},
		{
			"inputs": [],
			"name": "ClaimFaucet",
			"outputs": [],
			"stateMutability": "nonpayable",
			"type": "function"
		},
		{
			"inputs": [],
			"name": "ReadOnly4DevBalanceFaucet",
			"outputs": [
				{
					"internalType": "uint256",
					"name": "",
					"type": "uint256"
				}
			],
			"stateMutability": "view",
			"type": "function"
		}
	]
}