{
	"data": {
		"bytecode": {
			"linkReferences": {},
			"object": "60806040526040518060a00160405280600160ff168152602001600260ff168152602001600360ff168152602001600460ff168152602001600560ff168152505f906005604c929190605c565b503480156057575f80fd5b5060c0565b828054828255905f5260205f209081019282156098579160200282015b828111156097578251829060ff169055916020019190600101906079565b5b50905060a3919060a7565b5090565b5b8082111560bc575f815f90555060010160a8565b5090565b61035c806100cd5f395ff3fe608060405234801561000f575f80fd5b5060043610610033575f3560e01c8062ebdbaf146100375780634412e74514610055575b5f80fd5b61003f610073565b60405161004c91906101ae565b60405180910390f35b61005d61018b565b60405161006a91906101ae565b60405180910390f35b5f805f8054905067ffffffffffffffff811115610093576100926101c7565b5b6040519080825280602002602001820160405280156100c15781602001602082028036833780820191505090505b5090505f805b5f805490508160ff161015610167575f60025f8360ff16815481106100ef576100ee6101f4565b5b905f5260205f200154610102919061024e565b03610154575f8160ff168154811061011d5761011c6101f4565b5b905f5260205f200154838381518110610139576101386101f4565b5b6020026020010181815250508180610150906102ab565b9250505b808061015f906102fe565b9150506100c7565b508160018151811061017c5761017b6101f4565b5b60200260200101519250505090565b5f8080549050905090565b5f819050919050565b6101a881610196565b82525050565b5f6020820190506101c15f83018461019f565b92915050565b7f4e487b71000000000000000000000000000000000000000000000000000000005f52604160045260245ffd5b7f4e487b71000000000000000000000000000000000000000000000000000000005f52603260045260245ffd5b7f4e487b71000000000000000000000000000000000000000000000000000000005f52601260045260245ffd5b5f61025882610196565b915061026383610196565b92508261027357610272610221565b5b828206905092915050565b7f4e487b71000000000000000000000000000000000000000000000000000000005f52601160045260245ffd5b5f6102b582610196565b91507fffffffffffffffffffffffffffffffffffffffffffffffffffffffffffffffff82036102e7576102e661027e565b5b600182019050919050565b5f60ff82169050919050565b5f610308826102f2565b915060ff820361031b5761031a61027e565b5b60018201905091905056fea26469706673582212203b7226ddb49c549022d2e4d5204cc41c697bf0605bf70fd51d2968ce3afcc89464736f6c634300081a0033",
			"opcodes": "PUSH1 0x80 PUSH1 0x40 MSTORE PUSH1 0x40 MLOAD DUP1 PUSH1 0xA0 ADD PUSH1 0x40 MSTORE DUP1 PUSH1 0x1 PUSH1 0xFF AND DUP2 MSTORE PUSH1 0x20 ADD PUSH1 0x2 PUSH1 0xFF AND DUP2 MSTORE PUSH1 0x20 ADD PUSH1 0x3 PUSH1 0xFF AND DUP2 MSTORE PUSH1 0x20 ADD PUSH1 0x4 PUSH1 0xFF AND DUP2 MSTORE PUSH1 0x20 ADD PUSH1 0x5 PUSH1 0xFF AND DUP2 MSTORE POP PUSH0 SWAP1 PUSH1 0x5 PUSH1 0x4C SWAP3 SWAP2 SWAP1 PUSH1 0x5C JUMP JUMPDEST POP CALLVALUE DUP1 ISZERO PUSH1 0x57 JUMPI PUSH0 DUP1 REVERT JUMPDEST POP PUSH1 0xC0 JUMP JUMPDEST DUP3 DUP1 SLOAD DUP3 DUP3 SSTORE SWAP1 PUSH0 MSTORE PUSH1 0x20 PUSH0 KECCAK256 SWAP1 DUP2 ADD SWAP3 DUP3 ISZERO PUSH1 0x98 JUMPI SWAP2 PUSH1 0x20 MUL DUP3 ADD JUMPDEST DUP3 DUP2 GT ISZERO PUSH1 0x97 JUMPI DUP3 MLOAD DUP3 SWAP1 PUSH1 0xFF AND SWAP1 SSTORE SWAP2 PUSH1 0x20 ADD SWAP2 SWAP1 PUSH1 0x1 ADD SWAP1 PUSH1 0x79 JUMP JUMPDEST JUMPDEST POP SWAP1 POP PUSH1 0xA3 SWAP2 SWAP1 PUSH1 0xA7 JUMP JUMPDEST POP SWAP1 JUMP JUMPDEST JUMPDEST DUP1 DUP3 GT ISZERO PUSH1 0xBC JUMPI PUSH0 DUP2 PUSH0 SWAP1 SSTORE POP PUSH1 0x1 ADD PUSH1 0xA8 JUMP JUMPDEST POP SWAP1 JUMP JUMPDEST PUSH2 0x35C DUP1 PUSH2 0xCD PUSH0 CODECOPY PUSH0 RETURN INVALID PUSH1 0x80 PUSH1 0x40 MSTORE CALLVALUE DUP1 ISZERO PUSH2 0xF JUMPI PUSH0 DUP1 REVERT JUMPDEST POP PUSH1 0x4 CALLDATASIZE LT PUSH2 0x33 JUMPI PUSH0 CALLDATALOAD PUSH1 0xE0 SHR DUP1 PUSH3 0xEBDBAF EQ PUSH2 0x37 JUMPI DUP1 PUSH4 0x4412E745 EQ PUSH2 0x55 JUMPI JUMPDEST PUSH0 DUP1 REVERT JUMPDEST PUSH2 0x3F PUSH2 0x73 JUMP JUMPDEST PUSH1 0x40 MLOAD PUSH2 0x4C SWAP2 SWAP1 PUSH2 0x1AE JUMP JUMPDEST PUSH1 0x40 MLOAD DUP1 SWAP2 SUB SWAP1 RETURN JUMPDEST PUSH2 0x5D PUSH2 0x18B JUMP JUMPDEST PUSH1 0x40 MLOAD PUSH2 0x6A SWAP2 SWAP1 PUSH2 0x1AE JUMP JUMPDEST PUSH1 0x40 MLOAD DUP1 SWAP2 SUB SWAP1 RETURN JUMPDEST PUSH0 DUP1 PUSH0 DUP1 SLOAD SWAP1 POP PUSH8 0xFFFFFFFFFFFFFFFF DUP2 GT ISZERO PUSH2 0x93 JUMPI PUSH2 0x92 PUSH2 0x1C7 JUMP JUMPDEST JUMPDEST PUSH1 0x40 MLOAD SWAP1 DUP1 DUP3 MSTORE DUP1 PUSH1 0x20 MUL PUSH1 0x20 ADD DUP3 ADD PUSH1 0x40 MSTORE DUP1 ISZERO PUSH2 0xC1 JUMPI DUP2 PUSH1 0x20 ADD PUSH1 0x20 DUP3 MUL DUP1 CALLDATASIZE DUP4 CALLDATACOPY DUP1 DUP3 ADD SWAP2 POP POP SWAP1 POP JUMPDEST POP SWAP1 POP PUSH0 DUP1 JUMPDEST PUSH0 DUP1 SLOAD SWAP1 POP DUP2 PUSH1 0xFF AND LT ISZERO PUSH2 0x167 JUMPI PUSH0 PUSH1 0x2 PUSH0 DUP4 PUSH1 0xFF AND DUP2 SLOAD DUP2 LT PUSH2 0xEF JUMPI PUSH2 0xEE PUSH2 0x1F4 JUMP JUMPDEST JUMPDEST SWAP1 PUSH0 MSTORE PUSH1 0x20 PUSH0 KECCAK256 ADD SLOAD PUSH2 0x102 SWAP2 SWAP1 PUSH2 0x24E JUMP JUMPDEST SUB PUSH2 0x154 JUMPI PUSH0 DUP2 PUSH1 0xFF AND DUP2 SLOAD DUP2 LT PUSH2 0x11D JUMPI PUSH2 0x11C PUSH2 0x1F4 JUMP JUMPDEST JUMPDEST SWAP1 PUSH0 MSTORE PUSH1 0x20 PUSH0 KECCAK256 ADD SLOAD DUP4 DUP4 DUP2 MLOAD DUP2 LT PUSH2 0x139 JUMPI PUSH2 0x138 PUSH2 0x1F4 JUMP JUMPDEST JUMPDEST PUSH1 0x20 MUL PUSH1 0x20 ADD ADD DUP2 DUP2 MSTORE POP POP DUP2 DUP1 PUSH2 0x150 SWAP1 PUSH2 0x2AB JUMP JUMPDEST SWAP3 POP POP JUMPDEST DUP1 DUP1 PUSH2 0x15F SWAP1 PUSH2 0x2FE JUMP JUMPDEST SWAP2 POP POP PUSH2 0xC7 JUMP JUMPDEST POP DUP2 PUSH1 0x1 DUP2 MLOAD DUP2 LT PUSH2 0x17C JUMPI PUSH2 0x17B PUSH2 0x1F4 JUMP JUMPDEST JUMPDEST PUSH1 0x20 MUL PUSH1 0x20 ADD ADD MLOAD SWAP3 POP POP POP SWAP1 JUMP JUMPDEST PUSH0 DUP1 DUP1 SLOAD SWAP1 POP SWAP1 POP SWAP1 JUMP JUMPDEST PUSH0 DUP2 SWAP1 POP SWAP2 SWAP1 POP JUMP JUMPDEST PUSH2 0x1A8 DUP2 PUSH2 0x196 JUMP JUMPDEST DUP3 MSTORE POP POP JUMP JUMPDEST PUSH0 PUSH1 0x20 DUP3 ADD SWAP1 POP PUSH2 0x1C1 PUSH0 DUP4 ADD DUP5 PUSH2 0x19F JUMP JUMPDEST SWAP3 SWAP2 POP POP JUMP JUMPDEST PUSH32 0x4E487B7100000000000000000000000000000000000000000000000000000000 PUSH0 MSTORE PUSH1 0x41 PUSH1 0x4 MSTORE PUSH1 0x24 PUSH0 REVERT JUMPDEST PUSH32 0x4E487B7100000000000000000000000000000000000000000000000000000000 PUSH0 MSTORE PUSH1 0x32 PUSH1 0x4 MSTORE PUSH1 0x24 PUSH0 REVERT JUMPDEST PUSH32 0x4E487B7100000000000000000000000000000000000000000000000000000000 PUSH0 MSTORE PUSH1 0x12 PUSH1 0x4 MSTORE PUSH1 0x24 PUSH0 REVERT JUMPDEST PUSH0 PUSH2 0x258 DUP3 PUSH2 0x196 JUMP JUMPDEST SWAP2 POP PUSH2 0x263 DUP4 PUSH2 0x196 JUMP JUMPDEST SWAP3 POP DUP3 PUSH2 0x273 JUMPI PUSH2 0x272 PUSH2 0x221 JUMP JUMPDEST JUMPDEST DUP3 DUP3 MOD SWAP1 POP SWAP3 SWAP2 POP POP JUMP JUMPDEST PUSH32 0x4E487B7100000000000000000000000000000000000000000000000000000000 PUSH0 MSTORE PUSH1 0x11 PUSH1 0x4 MSTORE PUSH1 0x24 PUSH0 REVERT JUMPDEST PUSH0 PUSH2 0x2B5 DUP3 PUSH2 0x196 JUMP JUMPDEST SWAP2 POP PUSH32 0xFFFFFFFFFFFFFFFFFFFFFFFFFFFFFFFFFFFFFFFFFFFFFFFFFFFFFFFFFFFFFFFF DUP3 SUB PUSH2 0x2E7 JUMPI PUSH2 0x2E6 PUSH2 0x27E JUMP JUMPDEST JUMPDEST PUSH1 0x1 DUP3 ADD SWAP1 POP SWAP2 SWAP1 POP JUMP JUMPDEST PUSH0 PUSH1 0xFF DUP3 AND SWAP1 POP SWAP2 SWAP1 POP JUMP JUMPDEST PUSH0 PUSH2 0x308 DUP3 PUSH2 0x2F2 JUMP JUMPDEST SWAP2 POP PUSH1 0xFF DUP3 SUB PUSH2 0x31B JUMPI PUSH2 0x31A PUSH2 0x27E JUMP JUMPDEST JUMPDEST PUSH1 0x1 DUP3 ADD SWAP1 POP SWAP2 SWAP1 POP JUMP INVALID LOG2 PUSH5 0x6970667358 0x22 SLT KECCAK256 EXTCODESIZE PUSH19 0x26DDB49C549022D2E4D5204CC41C697BF0605B 0xF7 0xF 0xD5 SAR 0x29 PUSH9 0xCE3AFCC89464736F6C PUSH4 0x4300081A STOP CALLER "
		},
		"gasEstimates": {
			"creation": {
				"codeDepositCost": "172000",
				"executionCost": "infinite",
				"totalCost": "infinite"
			},
			"external": {
				"loopArr()": "infinite",
				"showArry()": "2440"
			}
		},
		"methodIdentifiers": {
			"loopArr()": "00ebdbaf",
			"showArry()": "4412e745"
		}
	},
	"abi": [
		{
			"inputs": [],
			"name": "loopArr",
			"outputs": [
				{
					"internalType": "uint256",
					"name": "",
					"type": "uint256"
				}
			],
			"stateMutability": "view",
			"type": "function"
		},
		{
			"inputs": [],
			"name": "showArry",
			"outputs": [
				{
					"internalType": "uint256",
					"name": "",
					"type": "uint256"
				}
			],
			"stateMutability": "view",
			"type": "function"
		}
	]
}