{
	"data": {
		"bytecode": {
			"linkReferences": {},
			"object": "608060405234801561001057600080fd5b50610172806100206000396000f3fe608060405234801561001057600080fd5b50600436106100365760003560e01c806306b034e91461003b5780635270312a14610067575b600080fd5b61004e6100493660046100d8565b61007a565b6040805192835290151560208301520160405180910390f35b61004e6100753660046100d8565b6100ac565b60008083830180610093576000600192509250506100a5565b61009d8486610110565b600092509250505b9250929050565b600080838311156100c357506000905060016100a5565b6100cd8385610129565b946000945092505050565b600080604083850312156100eb57600080fd5b50508035926020909101359150565b634e487b7160e01b600052601160045260246000fd5b80820180821115610123576101236100fa565b92915050565b81810381811115610123576101236100fa56fea264697066735822122005ffd35557033a5e3487380d734c57f68ff5ce25c4743d4ea760c8ade91fbaf864736f6c63430008110033",
			"opcodes": "PUSH1 0x80 PUSH1 0x40 MSTORE CALLVALUE DUP1 ISZERO PUSH2 0x10 JUMPI PUSH1 0x0 DUP1 REVERT JUMPDEST POP PUSH2 0x172 DUP1 PUSH2 0x20 PUSH1 0x0 CODECOPY PUSH1 0x0 RETURN INVALID PUSH1 0x80 PUSH1 0x40 MSTORE CALLVALUE DUP1 ISZERO PUSH2 0x10 JUMPI PUSH1 0x0 DUP1 REVERT JUMPDEST POP PUSH1 0x4 CALLDATASIZE LT PUSH2 0x36 JUMPI PUSH1 0x0 CALLDATALOAD PUSH1 0xE0 SHR DUP1 PUSH4 0x6B034E9 EQ PUSH2 0x3B JUMPI DUP1 PUSH4 0x5270312A EQ PUSH2 0x67 JUMPI JUMPDEST PUSH1 0x0 DUP1 REVERT JUMPDEST PUSH2 0x4E PUSH2 0x49 CALLDATASIZE PUSH1 0x4 PUSH2 0xD8 JUMP JUMPDEST PUSH2 0x7A JUMP JUMPDEST PUSH1 0x40 DUP1 MLOAD SWAP3 DUP4 MSTORE SWAP1 ISZERO ISZERO PUSH1 0x20 DUP4 ADD MSTORE ADD PUSH1 0x40 MLOAD DUP1 SWAP2 SUB SWAP1 RETURN JUMPDEST PUSH2 0x4E PUSH2 0x75 CALLDATASIZE PUSH1 0x4 PUSH2 0xD8 JUMP JUMPDEST PUSH2 0xAC JUMP JUMPDEST PUSH1 0x0 DUP1 DUP4 DUP4 ADD DUP1 PUSH2 0x93 JUMPI PUSH1 0x0 PUSH1 0x1 SWAP3 POP SWAP3 POP POP PUSH2 0xA5 JUMP JUMPDEST PUSH2 0x9D DUP5 DUP7 PUSH2 0x110 JUMP JUMPDEST PUSH1 0x0 SWAP3 POP SWAP3 POP POP JUMPDEST SWAP3 POP SWAP3 SWAP1 POP JUMP JUMPDEST PUSH1 0x0 DUP1 DUP4 DUP4 GT ISZERO PUSH2 0xC3 JUMPI POP PUSH1 0x0 SWAP1 POP PUSH1 0x1 PUSH2 0xA5 JUMP JUMPDEST PUSH2 0xCD DUP4 DUP6 PUSH2 0x129 JUMP JUMPDEST SWAP5 PUSH1 0x0 SWAP5 POP SWAP3 POP POP POP JUMP JUMPDEST PUSH1 0x0 DUP1 PUSH1 0x40 DUP4 DUP6 SUB SLT ISZERO PUSH2 0xEB JUMPI PUSH1 0x0 DUP1 REVERT JUMPDEST POP POP DUP1 CALLDATALOAD SWAP3 PUSH1 0x20 SWAP1 SWAP2 ADD CALLDATALOAD SWAP2 POP JUMP JUMPDEST PUSH4 0x4E487B71 PUSH1 0xE0 SHL PUSH1 0x0 MSTORE PUSH1 0x11 PUSH1 0x4 MSTORE PUSH1 0x24 PUSH1 0x0 REVERT JUMPDEST DUP1 DUP3 ADD DUP1 DUP3 GT ISZERO PUSH2 0x123 JUMPI PUSH2 0x123 PUSH2 0xFA JUMP JUMPDEST SWAP3 SWAP2 POP POP JUMP JUMPDEST DUP2 DUP2 SUB DUP2 DUP2 GT ISZERO PUSH2 0x123 JUMPI PUSH2 0x123 PUSH2 0xFA JUMP INVALID LOG2 PUSH5 0x6970667358 0x22 SLT KECCAK256 SDIV SELFDESTRUCT 0xD3 SSTORE JUMPI SUB GASPRICE 0x5E CALLVALUE DUP8 CODESIZE 0xD PUSH20 0x4C57F68FF5CE25C4743D4EA760C8ADE91FBAF864 PUSH20 0x6F6C634300081100330000000000000000000000 "
		},
		"gasEstimates": {
			"creation": {
				"codeDepositCost": "74000",
				"executionCost": "123",
				"totalCost": "74123"
			},
			"external": {
				"adder(uint256,uint256)": "427",
				"subtractor(uint256,uint256)": "440"
			}
		},
		"methodIdentifiers": {
			"adder(uint256,uint256)": "06b034e9",
			"subtractor(uint256,uint256)": "5270312a"
		}
	},
	"abi": [
		{
			"inputs": [
				{
					"internalType": "uint256",
					"name": "_a",
					"type": "uint256"
				},
				{
					"internalType": "uint256",
					"name": "_b",
					"type": "uint256"
				}
			],
			"name": "adder",
			"outputs": [
				{
					"internalType": "uint256",
					"name": "sum",
					"type": "uint256"
				},
				{
					"internalType": "bool",
					"name": "error",
					"type": "bool"
				}
			],
			"stateMutability": "pure",
			"type": "function"
		},
		{
			"inputs": [
				{
					"internalType": "uint256",
					"name": "_a",
					"type": "uint256"
				},
				{
					"internalType": "uint256",
					"name": "_b",
					"type": "uint256"
				}
			],
			"name": "subtractor",
			"outputs": [
				{
					"internalType": "uint256",
					"name": "differ",
					"type": "uint256"
				},
				{
					"internalType": "bool",
					"name": "error",
					"type": "bool"
				}
			],
			"stateMutability": "pure",
			"type": "function"
		}
	]
}