{
	"data": {
		"bytecode": {
			"linkReferences": {},
			"object": "6080604052348015600e575f80fd5b5060e78061001b5f395ff3fe6080604052348015600e575f80fd5b50600436106026575f3560e01c8063026ecaa314602a575b5f80fd5b60306044565b604051603b9190607c565b60405180910390f35b6060607760408051808201909152601581527468656c6c6f20776f726c64206d657373616765203160581b602082015290565b905090565b602081525f82518060208401528060208501604085015e5f604082850101526040601f19601f8301168401019150509291505056fea2646970667358221220320ee6441fdf00169eb50be16794e28e832f2f2525be02564230f3e1d9dac16b64736f6c634300081a0033",
			"opcodes": "PUSH1 0x80 PUSH1 0x40 MSTORE CALLVALUE DUP1 ISZERO PUSH1 0xE JUMPI PUSH0 DUP1 REVERT JUMPDEST POP PUSH1 0xE7 DUP1 PUSH2 0x1B PUSH0 CODECOPY PUSH0 RETURN INVALID PUSH1 0x80 PUSH1 0x40 MSTORE CALLVALUE DUP1 ISZERO PUSH1 0xE JUMPI PUSH0 DUP1 REVERT JUMPDEST POP PUSH1 0x4 CALLDATASIZE LT PUSH1 0x26 JUMPI PUSH0 CALLDATALOAD PUSH1 0xE0 SHR DUP1 PUSH4 0x26ECAA3 EQ PUSH1 0x2A JUMPI JUMPDEST PUSH0 DUP1 REVERT JUMPDEST PUSH1 0x30 PUSH1 0x44 JUMP JUMPDEST PUSH1 0x40 MLOAD PUSH1 0x3B SWAP2 SWAP1 PUSH1 0x7C JUMP JUMPDEST PUSH1 0x40 MLOAD DUP1 SWAP2 SUB SWAP1 RETURN JUMPDEST PUSH1 0x60 PUSH1 0x77 PUSH1 0x40 DUP1 MLOAD DUP1 DUP3 ADD SWAP1 SWAP2 MSTORE PUSH1 0x15 DUP2 MSTORE PUSH21 0x68656C6C6F20776F726C64206D6573736167652031 PUSH1 0x58 SHL PUSH1 0x20 DUP3 ADD MSTORE SWAP1 JUMP JUMPDEST SWAP1 POP SWAP1 JUMP JUMPDEST PUSH1 0x20 DUP2 MSTORE PUSH0 DUP3 MLOAD DUP1 PUSH1 0x20 DUP5 ADD MSTORE DUP1 PUSH1 0x20 DUP6 ADD PUSH1 0x40 DUP6 ADD MCOPY PUSH0 PUSH1 0x40 DUP3 DUP6 ADD ADD MSTORE PUSH1 0x40 PUSH1 0x1F NOT PUSH1 0x1F DUP4 ADD AND DUP5 ADD ADD SWAP2 POP POP SWAP3 SWAP2 POP POP JUMP INVALID LOG2 PUSH5 0x6970667358 0x22 SLT KECCAK256 ORIGIN 0xE 0xE6 PREVRANDAO 0x1F 0xDF STOP AND SWAP15 0xB5 SIGNEXTEND 0xE1 PUSH8 0x94E28E832F2F2525 0xBE MUL JUMP TIMESTAMP ADDRESS RETURN 0xE1 0xD9 0xDA 0xC1 PUSH12 0x64736F6C634300081A003300 "
		},
		"gasEstimates": {
			"creation": {
				"codeDepositCost": "46200",
				"executionCost": "97",
				"totalCost": "46297"
			},
			"external": {
				"MessageB()": "infinite"
			}
		},
		"methodIdentifiers": {
			"MessageB()": "026ecaa3"
		}
	},
	"abi": [
		{
			"inputs": [],
			"name": "MessageB",
			"outputs": [
				{
					"internalType": "string",
					"name": "message",
					"type": "string"
				}
			],
			"stateMutability": "pure",
			"type": "function"
		}
	]
}