{
	"data": {
		"bytecode": {
			"linkReferences": {},
			"object": "6080604052348015600e575f80fd5b5060405161015f38038061015f833981016040819052602b916040565b5f91909155600155600255610820600355606a565b5f805f606084860312156051575f80fd5b5050815160208301516040909301519094929350919050565b60e9806100765f395ff3fe6080604052348015600e575f80fd5b50600436106044575f3560e01c80633f83ea3b14604857806359a7b3fe1460615780635cdee0c0146069578063f5895a0a14606f575b5f80fd5b604f5f5481565b60405190815260200160405180910390f35b604f60025481565b604f6077565b604f60015481565b5f60025460035460869190608b565b905090565b808202811582820484141760ad57634e487b7160e01b5f52601160045260245ffd5b9291505056fea26469706673582212207440990b54d6c2831c9bdb7d8621c918bd00b2f9f7a6db313e63dabd60dc46f764736f6c634300081a0033",
			"opcodes": "PUSH1 0x80 PUSH1 0x40 MSTORE CALLVALUE DUP1 ISZERO PUSH1 0xE JUMPI PUSH0 DUP1 REVERT JUMPDEST POP PUSH1 0x40 MLOAD PUSH2 0x15F CODESIZE SUB DUP1 PUSH2 0x15F DUP4 CODECOPY DUP2 ADD PUSH1 0x40 DUP2 SWAP1 MSTORE PUSH1 0x2B SWAP2 PUSH1 0x40 JUMP JUMPDEST PUSH0 SWAP2 SWAP1 SWAP2 SSTORE PUSH1 0x1 SSTORE PUSH1 0x2 SSTORE PUSH2 0x820 PUSH1 0x3 SSTORE PUSH1 0x6A JUMP JUMPDEST PUSH0 DUP1 PUSH0 PUSH1 0x60 DUP5 DUP7 SUB SLT ISZERO PUSH1 0x51 JUMPI PUSH0 DUP1 REVERT JUMPDEST POP POP DUP2 MLOAD PUSH1 0x20 DUP4 ADD MLOAD PUSH1 0x40 SWAP1 SWAP4 ADD MLOAD SWAP1 SWAP5 SWAP3 SWAP4 POP SWAP2 SWAP1 POP JUMP JUMPDEST PUSH1 0xE9 DUP1 PUSH2 0x76 PUSH0 CODECOPY PUSH0 RETURN INVALID PUSH1 0x80 PUSH1 0x40 MSTORE CALLVALUE DUP1 ISZERO PUSH1 0xE JUMPI PUSH0 DUP1 REVERT JUMPDEST POP PUSH1 0x4 CALLDATASIZE LT PUSH1 0x44 JUMPI PUSH0 CALLDATALOAD PUSH1 0xE0 SHR DUP1 PUSH4 0x3F83EA3B EQ PUSH1 0x48 JUMPI DUP1 PUSH4 0x59A7B3FE EQ PUSH1 0x61 JUMPI DUP1 PUSH4 0x5CDEE0C0 EQ PUSH1 0x69 JUMPI DUP1 PUSH4 0xF5895A0A EQ PUSH1 0x6F JUMPI JUMPDEST PUSH0 DUP1 REVERT JUMPDEST PUSH1 0x4F PUSH0 SLOAD DUP2 JUMP JUMPDEST PUSH1 0x40 MLOAD SWAP1 DUP2 MSTORE PUSH1 0x20 ADD PUSH1 0x40 MLOAD DUP1 SWAP2 SUB SWAP1 RETURN JUMPDEST PUSH1 0x4F PUSH1 0x2 SLOAD DUP2 JUMP JUMPDEST PUSH1 0x4F PUSH1 0x77 JUMP JUMPDEST PUSH1 0x4F PUSH1 0x1 SLOAD DUP2 JUMP JUMPDEST PUSH0 PUSH1 0x2 SLOAD PUSH1 0x3 SLOAD PUSH1 0x86 SWAP2 SWAP1 PUSH1 0x8B JUMP JUMPDEST SWAP1 POP SWAP1 JUMP JUMPDEST DUP1 DUP3 MUL DUP2 ISZERO DUP3 DUP3 DIV DUP5 EQ OR PUSH1 0xAD JUMPI PUSH4 0x4E487B71 PUSH1 0xE0 SHL PUSH0 MSTORE PUSH1 0x11 PUSH1 0x4 MSTORE PUSH1 0x24 PUSH0 REVERT JUMPDEST SWAP3 SWAP2 POP POP JUMP INVALID LOG2 PUSH5 0x6970667358 0x22 SLT KECCAK256 PUSH21 0x40990B54D6C2831C9BDB7D8621C918BD00B2F9F7A6 0xDB BALANCE RETURNDATACOPY PUSH4 0xDABD60DC CHAINID 0xF7 PUSH5 0x736F6C6343 STOP ADDMOD BYTE STOP CALLER "
		},
		"gasEstimates": {
			"creation": {
				"codeDepositCost": "46600",
				"executionCost": "infinite",
				"totalCost": "infinite"
			},
			"external": {
				"getAnnualCost()": "4517",
				"hourlyRate()": "2282",
				"idNumber()": "2259",
				"managerId()": "2326"
			}
		},
		"methodIdentifiers": {
			"getAnnualCost()": "5cdee0c0",
			"hourlyRate()": "59a7b3fe",
			"idNumber()": "3f83ea3b",
			"managerId()": "f5895a0a"
		}
	},
	"abi": [
		{
			"inputs": [
				{
					"internalType": "uint256",
					"name": "_hourlyrate",
					"type": "uint256"
				},
				{
					"internalType": "uint256",
					"name": "_idnum",
					"type": "uint256"
				},
				{
					"internalType": "uint256",
					"name": "_managerId",
					"type": "uint256"
				}
			],
			"stateMutability": "nonpayable",
			"type": "constructor"
		},
		{
			"inputs": [],
			"name": "getAnnualCost",
			"outputs": [
				{
					"internalType": "uint256",
					"name": "_total",
					"type": "uint256"
				}
			],
			"stateMutability": "view",
			"type": "function"
		},
		{
			"inputs": [],
			"name": "hourlyRate",
			"outputs": [
				{
					"internalType": "uint256",
					"name": "",
					"type": "uint256"
				}
			],
			"stateMutability": "view",
			"type": "function"
		},
		{
			"inputs": [],
			"name": "idNumber",
			"outputs": [
				{
					"internalType": "uint256",
					"name": "",
					"type": "uint256"
				}
			],
			"stateMutability": "view",
			"type": "function"
		},
		{
			"inputs": [],
			"name": "managerId",
			"outputs": [
				{
					"internalType": "uint256",
					"name": "",
					"type": "uint256"
				}
			],
			"stateMutability": "view",
			"type": "function"
		}
	]
}