{
	"data": {
		"bytecode": {
			"linkReferences": {},
			"object": "6080604052348015600e575f80fd5b5060fa8061001b5f395ff3fe6080604052348015600e575f80fd5b50600436106026575f3560e01c8063ef3ea18a14602a575b5f80fd5b6040805180820182525f81526060602091820152815180830183526014815282518084018452600681526511985c99595960d21b8184015291810191909152905160739190607c565b60405180910390f35b60208152815160208201525f602083015160408084015280518060608501528060208301608086015e5f608082860101526080601f19601f830116850101925050509291505056fea264697066735822122011d3cccd65e62fc4772ddfce1d2debb17846ddc815e06b9a254d3c70d9f4726964736f6c634300081a0033",
			"opcodes": "PUSH1 0x80 PUSH1 0x40 MSTORE CALLVALUE DUP1 ISZERO PUSH1 0xE JUMPI PUSH0 DUP1 REVERT JUMPDEST POP PUSH1 0xFA DUP1 PUSH2 0x1B PUSH0 CODECOPY PUSH0 RETURN INVALID PUSH1 0x80 PUSH1 0x40 MSTORE CALLVALUE DUP1 ISZERO PUSH1 0xE JUMPI PUSH0 DUP1 REVERT JUMPDEST POP PUSH1 0x4 CALLDATASIZE LT PUSH1 0x26 JUMPI PUSH0 CALLDATALOAD PUSH1 0xE0 SHR DUP1 PUSH4 0xEF3EA18A EQ PUSH1 0x2A JUMPI JUMPDEST PUSH0 DUP1 REVERT JUMPDEST PUSH1 0x40 DUP1 MLOAD DUP1 DUP3 ADD DUP3 MSTORE PUSH0 DUP2 MSTORE PUSH1 0x60 PUSH1 0x20 SWAP2 DUP3 ADD MSTORE DUP2 MLOAD DUP1 DUP4 ADD DUP4 MSTORE PUSH1 0x14 DUP2 MSTORE DUP3 MLOAD DUP1 DUP5 ADD DUP5 MSTORE PUSH1 0x6 DUP2 MSTORE PUSH6 0x11985C995959 PUSH1 0xD2 SHL DUP2 DUP5 ADD MSTORE SWAP2 DUP2 ADD SWAP2 SWAP1 SWAP2 MSTORE SWAP1 MLOAD PUSH1 0x73 SWAP2 SWAP1 PUSH1 0x7C JUMP JUMPDEST PUSH1 0x40 MLOAD DUP1 SWAP2 SUB SWAP1 RETURN JUMPDEST PUSH1 0x20 DUP2 MSTORE DUP2 MLOAD PUSH1 0x20 DUP3 ADD MSTORE PUSH0 PUSH1 0x20 DUP4 ADD MLOAD PUSH1 0x40 DUP1 DUP5 ADD MSTORE DUP1 MLOAD DUP1 PUSH1 0x60 DUP6 ADD MSTORE DUP1 PUSH1 0x20 DUP4 ADD PUSH1 0x80 DUP7 ADD MCOPY PUSH0 PUSH1 0x80 DUP3 DUP7 ADD ADD MSTORE PUSH1 0x80 PUSH1 0x1F NOT PUSH1 0x1F DUP4 ADD AND DUP6 ADD ADD SWAP3 POP POP POP SWAP3 SWAP2 POP POP JUMP INVALID LOG2 PUSH5 0x6970667358 0x22 SLT KECCAK256 GT 0xD3 0xCC 0xCD PUSH6 0xE62FC4772DDF 0xCE SAR 0x2D 0xEB 0xB1 PUSH25 0x46DDC815E06B9A254D3C70D9F4726964736F6C634300081A00 CALLER "
		},
		"gasEstimates": {
			"creation": {
				"codeDepositCost": "50000",
				"executionCost": "97",
				"totalCost": "50097"
			},
			"external": {
				"Rtrn()": "infinite"
			}
		},
		"methodIdentifiers": {
			"Rtrn()": "ef3ea18a"
		}
	},
	"abi": [
		{
			"inputs": [],
			"name": "Rtrn",
			"outputs": [
				{
					"components": [
						{
							"internalType": "uint256",
							"name": "age",
							"type": "uint256"
						},
						{
							"internalType": "string",
							"name": "person",
							"type": "string"
						}
					],
					"internalType": "struct lkTup.LkTp",
					"name": "",
					"type": "tuple"
				}
			],
			"stateMutability": "pure",
			"type": "function"
		}
	]
}