{
	"data": {
		"bytecode": {
			"linkReferences": {},
			"object": "6080604052348015600e575f80fd5b5060fc8061001b5f395ff3fe6080604052348015600e575f80fd5b50600436106030575f3560e01c80637d60103a146034578063a596d3c8146072575b5f80fd5b6070603f36600460b0565b5f80546001810182559080527f290decd9548b62a8d60345a988386fc84ba6bc95484008f6362f93160ef3e5630155565b005b6070607c5f80607e565b565b5080545f8255905f5260205f209081019060979190609a565b50565b5b8082111560ac575f8155600101609b565b5090565b5f6020828403121560bf575f80fd5b503591905056fea26469706673582212208d2a9fbbe6326bab62fd15db0baa53fce1886b0e5b25e665a6fdc791361718fd64736f6c634300081a0033",
			"opcodes": "PUSH1 0x80 PUSH1 0x40 MSTORE CALLVALUE DUP1 ISZERO PUSH1 0xE JUMPI PUSH0 DUP1 REVERT JUMPDEST POP PUSH1 0xFC DUP1 PUSH2 0x1B PUSH0 CODECOPY PUSH0 RETURN INVALID PUSH1 0x80 PUSH1 0x40 MSTORE CALLVALUE DUP1 ISZERO PUSH1 0xE JUMPI PUSH0 DUP1 REVERT JUMPDEST POP PUSH1 0x4 CALLDATASIZE LT PUSH1 0x30 JUMPI PUSH0 CALLDATALOAD PUSH1 0xE0 SHR DUP1 PUSH4 0x7D60103A EQ PUSH1 0x34 JUMPI DUP1 PUSH4 0xA596D3C8 EQ PUSH1 0x72 JUMPI JUMPDEST PUSH0 DUP1 REVERT JUMPDEST PUSH1 0x70 PUSH1 0x3F CALLDATASIZE PUSH1 0x4 PUSH1 0xB0 JUMP JUMPDEST PUSH0 DUP1 SLOAD PUSH1 0x1 DUP2 ADD DUP3 SSTORE SWAP1 DUP1 MSTORE PUSH32 0x290DECD9548B62A8D60345A988386FC84BA6BC95484008F6362F93160EF3E563 ADD SSTORE JUMP JUMPDEST STOP JUMPDEST PUSH1 0x70 PUSH1 0x7C PUSH0 DUP1 PUSH1 0x7E JUMP JUMPDEST JUMP JUMPDEST POP DUP1 SLOAD PUSH0 DUP3 SSTORE SWAP1 PUSH0 MSTORE PUSH1 0x20 PUSH0 KECCAK256 SWAP1 DUP2 ADD SWAP1 PUSH1 0x97 SWAP2 SWAP1 PUSH1 0x9A JUMP JUMPDEST POP JUMP JUMPDEST JUMPDEST DUP1 DUP3 GT ISZERO PUSH1 0xAC JUMPI PUSH0 DUP2 SSTORE PUSH1 0x1 ADD PUSH1 0x9B JUMP JUMPDEST POP SWAP1 JUMP JUMPDEST PUSH0 PUSH1 0x20 DUP3 DUP5 SUB SLT ISZERO PUSH1 0xBF JUMPI PUSH0 DUP1 REVERT JUMPDEST POP CALLDATALOAD SWAP2 SWAP1 POP JUMP INVALID LOG2 PUSH5 0x6970667358 0x22 SLT KECCAK256 DUP14 0x2A SWAP16 0xBB 0xE6 ORIGIN PUSH12 0xAB62FD15DB0BAA53FCE1886B 0xE JUMPDEST 0x25 0xE6 PUSH6 0xA6FDC7913617 XOR REVERT PUSH5 0x736F6C6343 STOP ADDMOD BYTE STOP CALLER "
		},
		"gasEstimates": {
			"creation": {
				"codeDepositCost": "50400",
				"executionCost": "97",
				"totalCost": "50497"
			},
			"external": {
				"AddReport(uint256)": "46517",
				"resetReports()": "infinite"
			}
		},
		"methodIdentifiers": {
			"AddReport(uint256)": "7d60103a",
			"resetReports()": "a596d3c8"
		}
	},
	"abi": [
		{
			"inputs": [
				{
					"internalType": "uint256",
					"name": "_idNum",
					"type": "uint256"
				}
			],
			"name": "AddReport",
			"outputs": [],
			"stateMutability": "nonpayable",
			"type": "function"
		},
		{
			"inputs": [],
			"name": "resetReports",
			"outputs": [],
			"stateMutability": "nonpayable",
			"type": "function"
		}
	]
}