{
	"data": {
		"bytecode": {
			"linkReferences": {},
			"object": "6080604052348015600e575f80fd5b5060405161011e38038061011e833981016040819052602b91603a565b5f929092556001556002556064565b5f805f60608486031215604b575f80fd5b5050815160208301516040909301519094929350919050565b60ae806100705f395ff3fe6080604052348015600e575f80fd5b50600436106044575f3560e01c80633f83ea3b14604857806350dca6ab1460615780635cdee0c0146069578063f5895a0a146070575b5f80fd5b604f5f5481565b60405190815260200160405180910390f35b604f60025481565b600254604f565b604f6001548156fea2646970667358221220f22366500e62e0441717e865c6a8862548f04084c9119b3d4ba57e79248496f064736f6c634300081a0033",
			"opcodes": "PUSH1 0x80 PUSH1 0x40 MSTORE CALLVALUE DUP1 ISZERO PUSH1 0xE JUMPI PUSH0 DUP1 REVERT JUMPDEST POP PUSH1 0x40 MLOAD PUSH2 0x11E CODESIZE SUB DUP1 PUSH2 0x11E DUP4 CODECOPY DUP2 ADD PUSH1 0x40 DUP2 SWAP1 MSTORE PUSH1 0x2B SWAP2 PUSH1 0x3A JUMP JUMPDEST PUSH0 SWAP3 SWAP1 SWAP3 SSTORE PUSH1 0x1 SSTORE PUSH1 0x2 SSTORE PUSH1 0x64 JUMP JUMPDEST PUSH0 DUP1 PUSH0 PUSH1 0x60 DUP5 DUP7 SUB SLT ISZERO PUSH1 0x4B JUMPI PUSH0 DUP1 REVERT JUMPDEST POP POP DUP2 MLOAD PUSH1 0x20 DUP4 ADD MLOAD PUSH1 0x40 SWAP1 SWAP4 ADD MLOAD SWAP1 SWAP5 SWAP3 SWAP4 POP SWAP2 SWAP1 POP JUMP JUMPDEST PUSH1 0xAE DUP1 PUSH2 0x70 PUSH0 CODECOPY PUSH0 RETURN INVALID PUSH1 0x80 PUSH1 0x40 MSTORE CALLVALUE DUP1 ISZERO PUSH1 0xE JUMPI PUSH0 DUP1 REVERT JUMPDEST POP PUSH1 0x4 CALLDATASIZE LT PUSH1 0x44 JUMPI PUSH0 CALLDATALOAD PUSH1 0xE0 SHR DUP1 PUSH4 0x3F83EA3B EQ PUSH1 0x48 JUMPI DUP1 PUSH4 0x50DCA6AB EQ PUSH1 0x61 JUMPI DUP1 PUSH4 0x5CDEE0C0 EQ PUSH1 0x69 JUMPI DUP1 PUSH4 0xF5895A0A EQ PUSH1 0x70 JUMPI JUMPDEST PUSH0 DUP1 REVERT JUMPDEST PUSH1 0x4F PUSH0 SLOAD DUP2 JUMP JUMPDEST PUSH1 0x40 MLOAD SWAP1 DUP2 MSTORE PUSH1 0x20 ADD PUSH1 0x40 MLOAD DUP1 SWAP2 SUB SWAP1 RETURN JUMPDEST PUSH1 0x4F PUSH1 0x2 SLOAD DUP2 JUMP JUMPDEST PUSH1 0x2 SLOAD PUSH1 0x4F JUMP JUMPDEST PUSH1 0x4F PUSH1 0x1 SLOAD DUP2 JUMP INVALID LOG2 PUSH5 0x6970667358 0x22 SLT KECCAK256 CALLCODE 0x23 PUSH7 0x500E62E0441717 0xE8 PUSH6 0xC6A8862548F0 BLOCKHASH DUP5 0xC9 GT SWAP12 RETURNDATASIZE 0x4B 0xA5 PUSH31 0x79248496F064736F6C634300081A0033000000000000000000000000000000 "
		},
		"gasEstimates": {
			"creation": {
				"codeDepositCost": "34800",
				"executionCost": "infinite",
				"totalCost": "infinite"
			},
			"external": {
				"annualSalary()": "2282",
				"getAnnualCost()": "2301",
				"idNumber()": "2259",
				"managerId()": "2326"
			}
		},
		"methodIdentifiers": {
			"annualSalary()": "50dca6ab",
			"getAnnualCost()": "5cdee0c0",
			"idNumber()": "3f83ea3b",
			"managerId()": "f5895a0a"
		}
	},
	"abi": [
		{
			"inputs": [
				{
					"internalType": "uint256",
					"name": "_idnum",
					"type": "uint256"
				},
				{
					"internalType": "uint256",
					"name": "_managerId",
					"type": "uint256"
				},
				{
					"internalType": "uint256",
					"name": "_annualSal",
					"type": "uint256"
				}
			],
			"stateMutability": "nonpayable",
			"type": "constructor"
		},
		{
			"inputs": [],
			"name": "annualSalary",
			"outputs": [
				{
					"internalType": "uint256",
					"name": "",
					"type": "uint256"
				}
			],
			"stateMutability": "view",
			"type": "function"
		},
		{
			"inputs": [],
			"name": "getAnnualCost",
			"outputs": [
				{
					"internalType": "uint256",
					"name": "",
					"type": "uint256"
				}
			],
			"stateMutability": "view",
			"type": "function"
		},
		{
			"inputs": [],
			"name": "idNumber",
			"outputs": [
				{
					"internalType": "uint256",
					"name": "",
					"type": "uint256"
				}
			],
			"stateMutability": "view",
			"type": "function"
		},
		{
			"inputs": [],
			"name": "managerId",
			"outputs": [
				{
					"internalType": "uint256",
					"name": "",
					"type": "uint256"
				}
			],
			"stateMutability": "view",
			"type": "function"
		}
	]
}