{
	"data": {
		"bytecode": {
			"linkReferences": {},
			"object": "6080604052348015600e575f80fd5b50604051610172380380610172833981016040819052602b916045565b5f919091556001556002819055610820600355600455606f565b5f805f606084860312156056575f80fd5b5050815160208301516040909301519094929350919050565b60f78061007b5f395ff3fe6080604052348015600e575f80fd5b5060043610604e575f3560e01c80630411e7941460525780633f83ea3b14606857806359a7b3fe14606f5780635cdee0c0146077578063f5895a0a14607d575b5f80fd5b6002545b60405190815260200160405180910390f35b60565f5481565b605660025481565b60566085565b605660015481565b5f600254600354609491906099565b905090565b808202811582820484141760bb57634e487b7160e01b5f52601160045260245ffd5b9291505056fea26469706673582212203e25943e8012f3ceac25432786c381b19b49cb52de79c3658d898ccbc85847ba64736f6c634300081a0033",
			"opcodes": "PUSH1 0x80 PUSH1 0x40 MSTORE CALLVALUE DUP1 ISZERO PUSH1 0xE JUMPI PUSH0 DUP1 REVERT JUMPDEST POP PUSH1 0x40 MLOAD PUSH2 0x172 CODESIZE SUB DUP1 PUSH2 0x172 DUP4 CODECOPY DUP2 ADD PUSH1 0x40 DUP2 SWAP1 MSTORE PUSH1 0x2B SWAP2 PUSH1 0x45 JUMP JUMPDEST PUSH0 SWAP2 SWAP1 SWAP2 SSTORE PUSH1 0x1 SSTORE PUSH1 0x2 DUP2 SWAP1 SSTORE PUSH2 0x820 PUSH1 0x3 SSTORE PUSH1 0x4 SSTORE PUSH1 0x6F JUMP JUMPDEST PUSH0 DUP1 PUSH0 PUSH1 0x60 DUP5 DUP7 SUB SLT ISZERO PUSH1 0x56 JUMPI PUSH0 DUP1 REVERT JUMPDEST POP POP DUP2 MLOAD PUSH1 0x20 DUP4 ADD MLOAD PUSH1 0x40 SWAP1 SWAP4 ADD MLOAD SWAP1 SWAP5 SWAP3 SWAP4 POP SWAP2 SWAP1 POP JUMP JUMPDEST PUSH1 0xF7 DUP1 PUSH2 0x7B PUSH0 CODECOPY PUSH0 RETURN INVALID PUSH1 0x80 PUSH1 0x40 MSTORE CALLVALUE DUP1 ISZERO PUSH1 0xE JUMPI PUSH0 DUP1 REVERT JUMPDEST POP PUSH1 0x4 CALLDATASIZE LT PUSH1 0x4E JUMPI PUSH0 CALLDATALOAD PUSH1 0xE0 SHR DUP1 PUSH4 0x411E794 EQ PUSH1 0x52 JUMPI DUP1 PUSH4 0x3F83EA3B EQ PUSH1 0x68 JUMPI DUP1 PUSH4 0x59A7B3FE EQ PUSH1 0x6F JUMPI DUP1 PUSH4 0x5CDEE0C0 EQ PUSH1 0x77 JUMPI DUP1 PUSH4 0xF5895A0A EQ PUSH1 0x7D JUMPI JUMPDEST PUSH0 DUP1 REVERT JUMPDEST PUSH1 0x2 SLOAD JUMPDEST PUSH1 0x40 MLOAD SWAP1 DUP2 MSTORE PUSH1 0x20 ADD PUSH1 0x40 MLOAD DUP1 SWAP2 SUB SWAP1 RETURN JUMPDEST PUSH1 0x56 PUSH0 SLOAD DUP2 JUMP JUMPDEST PUSH1 0x56 PUSH1 0x2 SLOAD DUP2 JUMP JUMPDEST PUSH1 0x56 PUSH1 0x85 JUMP JUMPDEST PUSH1 0x56 PUSH1 0x1 SLOAD DUP2 JUMP JUMPDEST PUSH0 PUSH1 0x2 SLOAD PUSH1 0x3 SLOAD PUSH1 0x94 SWAP2 SWAP1 PUSH1 0x99 JUMP JUMPDEST SWAP1 POP SWAP1 JUMP JUMPDEST DUP1 DUP3 MUL DUP2 ISZERO DUP3 DUP3 DIV DUP5 EQ OR PUSH1 0xBB JUMPI PUSH4 0x4E487B71 PUSH1 0xE0 SHL PUSH0 MSTORE PUSH1 0x11 PUSH1 0x4 MSTORE PUSH1 0x24 PUSH0 REVERT JUMPDEST SWAP3 SWAP2 POP POP JUMP INVALID LOG2 PUSH5 0x6970667358 0x22 SLT KECCAK256 RETURNDATACOPY 0x25 SWAP5 RETURNDATACOPY DUP1 SLT RETURN 0xCE 0xAC 0x25 NUMBER 0x27 DUP7 0xC3 DUP2 0xB1 SWAP12 BLOBHASH 0xCB MSTORE 0xDE PUSH26 0xC3658D898CCBC85847BA64736F6C634300081A00330000000000 "
		},
		"gasEstimates": {
			"creation": {
				"codeDepositCost": "49400",
				"executionCost": "infinite",
				"totalCost": "infinite"
			},
			"external": {
				"getAnnualCost()": "4539",
				"getAnnualHourly()": "2246",
				"hourlyRate()": "2304",
				"idNumber()": "2281",
				"managerId()": "2348"
			}
		},
		"methodIdentifiers": {
			"getAnnualCost()": "5cdee0c0",
			"getAnnualHourly()": "0411e794",
			"hourlyRate()": "59a7b3fe",
			"idNumber()": "3f83ea3b",
			"managerId()": "f5895a0a"
		}
	},
	"abi": [
		{
			"inputs": [
				{
					"internalType": "uint256",
					"name": "_hourlyRate",
					"type": "uint256"
				},
				{
					"internalType": "uint256",
					"name": "_salesId",
					"type": "uint256"
				},
				{
					"internalType": "uint256",
					"name": "_salesManId",
					"type": "uint256"
				}
			],
			"stateMutability": "nonpayable",
			"type": "constructor"
		},
		{
			"inputs": [],
			"name": "getAnnualCost",
			"outputs": [
				{
					"internalType": "uint256",
					"name": "_total",
					"type": "uint256"
				}
			],
			"stateMutability": "view",
			"type": "function"
		},
		{
			"inputs": [],
			"name": "getAnnualHourly",
			"outputs": [
				{
					"internalType": "uint256",
					"name": "",
					"type": "uint256"
				}
			],
			"stateMutability": "view",
			"type": "function"
		},
		{
			"inputs": [],
			"name": "hourlyRate",
			"outputs": [
				{
					"internalType": "uint256",
					"name": "",
					"type": "uint256"
				}
			],
			"stateMutability": "view",
			"type": "function"
		},
		{
			"inputs": [],
			"name": "idNumber",
			"outputs": [
				{
					"internalType": "uint256",
					"name": "",
					"type": "uint256"
				}
			],
			"stateMutability": "view",
			"type": "function"
		},
		{
			"inputs": [],
			"name": "managerId",
			"outputs": [
				{
					"internalType": "uint256",
					"name": "",
					"type": "uint256"
				}
			],
			"stateMutability": "view",
			"type": "function"
		}
	]
}