{
	"data": {
		"bytecode": {
			"linkReferences": {},
			"object": "6080604052348015600e575f80fd5b50610b3d8061001c5f395ff3fe608060405234801561000f575f80fd5b5060043610610034575f3560e01c80633ec6b9d9146100385780633edda03114610069575b5f80fd5b610052600480360381019061004d919061052c565b610085565b604051610060929190610612565b60405180910390f35b610083600480360381019061007e9190610673565b61029d565b005b60605f805b5f8054905081101561025a57836040516020016100a79190610765565b604051602081830303815290604052805190602001205f82815481106100d0576100cf61077b565b5b905f5260205f20016040516020016100e89190610897565b604051602081830303815290604052805190602001200361024d5760025f6001838154811061011a5761011961077b565b5b905f5260205f20015f9054906101000a900473ffffffffffffffffffffffffffffffffffffffff1673ffffffffffffffffffffffffffffffffffffffff1673ffffffffffffffffffffffffffffffffffffffff1681526020019081526020015f205f01600182815481106101915761019061077b565b5b905f5260205f20015f9054906101000a900473ffffffffffffffffffffffffffffffffffffffff168180546101c5906107d5565b80601f01602080910402602001604051908101604052809291908181526020018280546101f1906107d5565b801561023c5780601f106102135761010080835404028352916020019161023c565b820191905f5260205f20905b81548152906001019060200180831161021f57829003601f168201915b505050505091509250925050610298565b808060010191505061008a565b50336040518060400160405280600981526020017f6e6f7420666f756e64000000000000000000000000000000000000000000000081525090915091505b915091565b60405180608001604052808581526020018481526020018381526020018281525060025f3373ffffffffffffffffffffffffffffffffffffffff1673ffffffffffffffffffffffffffffffffffffffff1681526020019081526020015f205f820151815f01908161030e9190610a38565b5060208201518160010190816103249190610a38565b506040820151816002015560608201518160030190816103449190610a38565b509050505f81908060018154018082558091505060019003905f5260205f20015f9091909190915090816103789190610a38565b50600133908060018154018082558091505060019003905f5260205f20015f9091909190916101000a81548173ffffffffffffffffffffffffffffffffffffffff021916908373ffffffffffffffffffffffffffffffffffffffff16021790555050505050565b5f604051905090565b5f80fd5b5f80fd5b5f80fd5b5f80fd5b5f601f19601f8301169050919050565b7f4e487b71000000000000000000000000000000000000000000000000000000005f52604160045260245ffd5b61043e826103f8565b810181811067ffffffffffffffff8211171561045d5761045c610408565b5b80604052505050565b5f61046f6103df565b905061047b8282610435565b919050565b5f67ffffffffffffffff82111561049a57610499610408565b5b6104a3826103f8565b9050602081019050919050565b828183375f83830152505050565b5f6104d06104cb84610480565b610466565b9050828152602081018484840111156104ec576104eb6103f4565b5b6104f78482856104b0565b509392505050565b5f82601f830112610513576105126103f0565b5b81356105238482602086016104be565b91505092915050565b5f60208284031215610541576105406103e8565b5b5f82013567ffffffffffffffff81111561055e5761055d6103ec565b5b61056a848285016104ff565b91505092915050565b5f81519050919050565b5f82825260208201905092915050565b8281835e5f83830152505050565b5f6105a582610573565b6105af818561057d565b93506105bf81856020860161058d565b6105c8816103f8565b840191505092915050565b5f73ffffffffffffffffffffffffffffffffffffffff82169050919050565b5f6105fc826105d3565b9050919050565b61060c816105f2565b82525050565b5f6040820190508181035f83015261062a818561059b565b90506106396020830184610603565b9392505050565b5f819050919050565b61065281610640565b811461065c575f80fd5b50565b5f8135905061066d81610649565b92915050565b5f805f806080858703121561068b5761068a6103e8565b5b5f85013567ffffffffffffffff8111156106a8576106a76103ec565b5b6106b4878288016104ff565b945050602085013567ffffffffffffffff8111156106d5576106d46103ec565b5b6106e1878288016104ff565b93505060406106f28782880161065f565b925050606085013567ffffffffffffffff811115610713576107126103ec565b5b61071f878288016104ff565b91505092959194509250565b5f81905092915050565b5f61073f82610573565b610749818561072b565b935061075981856020860161058d565b80840191505092915050565b5f6107708284610735565b915081905092915050565b7f4e487b71000000000000000000000000000000000000000000000000000000005f52603260045260245ffd5b7f4e487b71000000000000000000000000000000000000000000000000000000005f52602260045260245ffd5b5f60028204905060018216806107ec57607f821691505b6020821081036107ff576107fe6107a8565b5b50919050565b5f819050815f5260205f209050919050565b5f8154610823816107d5565b61082d818661072b565b9450600182165f8114610847576001811461085c5761088e565b60ff198316865281151582028601935061088e565b61086585610805565b5f5b8381101561088657815481890152600182019150602081019050610867565b838801955050505b50505092915050565b5f6108a28284610817565b915081905092915050565b5f6020601f8301049050919050565b5f82821b905092915050565b5f600883026108f77fffffffffffffffffffffffffffffffffffffffffffffffffffffffffffffffff826108bc565b61090186836108bc565b95508019841693508086168417925050509392505050565b5f819050919050565b5f61093c61093761093284610640565b610919565b610640565b9050919050565b5f819050919050565b61095583610922565b61096961096182610943565b8484546108c8565b825550505050565b5f90565b61097d610971565b61098881848461094c565b505050565b5b818110156109ab576109a05f82610975565b60018101905061098e565b5050565b601f8211156109f0576109c181610805565b6109ca846108ad565b810160208510156109d9578190505b6109ed6109e5856108ad565b83018261098d565b50505b505050565b5f82821c905092915050565b5f610a105f19846008026109f5565b1980831691505092915050565b5f610a288383610a01565b9150826002028217905092915050565b610a4182610573565b67ffffffffffffffff811115610a5a57610a59610408565b5b610a6482546107d5565b610a6f8282856109af565b5f60209050601f831160018114610aa0575f8415610a8e578287015190505b610a988582610a1d565b865550610aff565b601f198416610aae86610805565b5f5b82811015610ad557848901518255600182019150602085019450602081019050610ab0565b86831015610af25784890151610aee601f891682610a01565b8355505b6001600288020188555050505b50505050505056fea26469706673582212209ed627b340fe2d939b13138422dba1f652da8fffc4626218c809d9b79a809d6364736f6c634300081a0033",
			"opcodes": "PUSH1 0x80 PUSH1 0x40 MSTORE CALLVALUE DUP1 ISZERO PUSH1 0xE JUMPI PUSH0 DUP1 REVERT JUMPDEST POP PUSH2 0xB3D DUP1 PUSH2 0x1C PUSH0 CODECOPY PUSH0 RETURN INVALID PUSH1 0x80 PUSH1 0x40 MSTORE CALLVALUE DUP1 ISZERO PUSH2 0xF JUMPI PUSH0 DUP1 REVERT JUMPDEST POP PUSH1 0x4 CALLDATASIZE LT PUSH2 0x34 JUMPI PUSH0 CALLDATALOAD PUSH1 0xE0 SHR DUP1 PUSH4 0x3EC6B9D9 EQ PUSH2 0x38 JUMPI DUP1 PUSH4 0x3EDDA031 EQ PUSH2 0x69 JUMPI JUMPDEST PUSH0 DUP1 REVERT JUMPDEST PUSH2 0x52 PUSH1 0x4 DUP1 CALLDATASIZE SUB DUP2 ADD SWAP1 PUSH2 0x4D SWAP2 SWAP1 PUSH2 0x52C JUMP JUMPDEST PUSH2 0x85 JUMP JUMPDEST PUSH1 0x40 MLOAD PUSH2 0x60 SWAP3 SWAP2 SWAP1 PUSH2 0x612 JUMP JUMPDEST PUSH1 0x40 MLOAD DUP1 SWAP2 SUB SWAP1 RETURN JUMPDEST PUSH2 0x83 PUSH1 0x4 DUP1 CALLDATASIZE SUB DUP2 ADD SWAP1 PUSH2 0x7E SWAP2 SWAP1 PUSH2 0x673 JUMP JUMPDEST PUSH2 0x29D JUMP JUMPDEST STOP JUMPDEST PUSH1 0x60 PUSH0 DUP1 JUMPDEST PUSH0 DUP1 SLOAD SWAP1 POP DUP2 LT ISZERO PUSH2 0x25A JUMPI DUP4 PUSH1 0x40 MLOAD PUSH1 0x20 ADD PUSH2 0xA7 SWAP2 SWAP1 PUSH2 0x765 JUMP JUMPDEST PUSH1 0x40 MLOAD PUSH1 0x20 DUP2 DUP4 SUB SUB DUP2 MSTORE SWAP1 PUSH1 0x40 MSTORE DUP1 MLOAD SWAP1 PUSH1 0x20 ADD KECCAK256 PUSH0 DUP3 DUP2 SLOAD DUP2 LT PUSH2 0xD0 JUMPI PUSH2 0xCF PUSH2 0x77B JUMP JUMPDEST JUMPDEST SWAP1 PUSH0 MSTORE PUSH1 0x20 PUSH0 KECCAK256 ADD PUSH1 0x40 MLOAD PUSH1 0x20 ADD PUSH2 0xE8 SWAP2 SWAP1 PUSH2 0x897 JUMP JUMPDEST PUSH1 0x40 MLOAD PUSH1 0x20 DUP2 DUP4 SUB SUB DUP2 MSTORE SWAP1 PUSH1 0x40 MSTORE DUP1 MLOAD SWAP1 PUSH1 0x20 ADD KECCAK256 SUB PUSH2 0x24D JUMPI PUSH1 0x2 PUSH0 PUSH1 0x1 DUP4 DUP2 SLOAD DUP2 LT PUSH2 0x11A JUMPI PUSH2 0x119 PUSH2 0x77B JUMP JUMPDEST JUMPDEST SWAP1 PUSH0 MSTORE PUSH1 0x20 PUSH0 KECCAK256 ADD PUSH0 SWAP1 SLOAD SWAP1 PUSH2 0x100 EXP SWAP1 DIV PUSH20 0xFFFFFFFFFFFFFFFFFFFFFFFFFFFFFFFFFFFFFFFF AND PUSH20 0xFFFFFFFFFFFFFFFFFFFFFFFFFFFFFFFFFFFFFFFF AND PUSH20 0xFFFFFFFFFFFFFFFFFFFFFFFFFFFFFFFFFFFFFFFF AND DUP2 MSTORE PUSH1 0x20 ADD SWAP1 DUP2 MSTORE PUSH1 0x20 ADD PUSH0 KECCAK256 PUSH0 ADD PUSH1 0x1 DUP3 DUP2 SLOAD DUP2 LT PUSH2 0x191 JUMPI PUSH2 0x190 PUSH2 0x77B JUMP JUMPDEST JUMPDEST SWAP1 PUSH0 MSTORE PUSH1 0x20 PUSH0 KECCAK256 ADD PUSH0 SWAP1 SLOAD SWAP1 PUSH2 0x100 EXP SWAP1 DIV PUSH20 0xFFFFFFFFFFFFFFFFFFFFFFFFFFFFFFFFFFFFFFFF AND DUP2 DUP1 SLOAD PUSH2 0x1C5 SWAP1 PUSH2 0x7D5 JUMP JUMPDEST DUP1 PUSH1 0x1F ADD PUSH1 0x20 DUP1 SWAP2 DIV MUL PUSH1 0x20 ADD PUSH1 0x40 MLOAD SWAP1 DUP2 ADD PUSH1 0x40 MSTORE DUP1 SWAP3 SWAP2 SWAP1 DUP2 DUP2 MSTORE PUSH1 0x20 ADD DUP3 DUP1 SLOAD PUSH2 0x1F1 SWAP1 PUSH2 0x7D5 JUMP JUMPDEST DUP1 ISZERO PUSH2 0x23C JUMPI DUP1 PUSH1 0x1F LT PUSH2 0x213 JUMPI PUSH2 0x100 DUP1 DUP4 SLOAD DIV MUL DUP4 MSTORE SWAP2 PUSH1 0x20 ADD SWAP2 PUSH2 0x23C JUMP JUMPDEST DUP3 ADD SWAP2 SWAP1 PUSH0 MSTORE PUSH1 0x20 PUSH0 KECCAK256 SWAP1 JUMPDEST DUP2 SLOAD DUP2 MSTORE SWAP1 PUSH1 0x1 ADD SWAP1 PUSH1 0x20 ADD DUP1 DUP4 GT PUSH2 0x21F JUMPI DUP3 SWAP1 SUB PUSH1 0x1F AND DUP3 ADD SWAP2 JUMPDEST POP POP POP POP POP SWAP2 POP SWAP3 POP SWAP3 POP POP PUSH2 0x298 JUMP JUMPDEST DUP1 DUP1 PUSH1 0x1 ADD SWAP2 POP POP PUSH2 0x8A JUMP JUMPDEST POP CALLER PUSH1 0x40 MLOAD DUP1 PUSH1 0x40 ADD PUSH1 0x40 MSTORE DUP1 PUSH1 0x9 DUP2 MSTORE PUSH1 0x20 ADD PUSH32 0x6E6F7420666F756E640000000000000000000000000000000000000000000000 DUP2 MSTORE POP SWAP1 SWAP2 POP SWAP2 POP JUMPDEST SWAP2 POP SWAP2 JUMP JUMPDEST PUSH1 0x40 MLOAD DUP1 PUSH1 0x80 ADD PUSH1 0x40 MSTORE DUP1 DUP6 DUP2 MSTORE PUSH1 0x20 ADD DUP5 DUP2 MSTORE PUSH1 0x20 ADD DUP4 DUP2 MSTORE PUSH1 0x20 ADD DUP3 DUP2 MSTORE POP PUSH1 0x2 PUSH0 CALLER PUSH20 0xFFFFFFFFFFFFFFFFFFFFFFFFFFFFFFFFFFFFFFFF AND PUSH20 0xFFFFFFFFFFFFFFFFFFFFFFFFFFFFFFFFFFFFFFFF AND DUP2 MSTORE PUSH1 0x20 ADD SWAP1 DUP2 MSTORE PUSH1 0x20 ADD PUSH0 KECCAK256 PUSH0 DUP3 ADD MLOAD DUP2 PUSH0 ADD SWAP1 DUP2 PUSH2 0x30E SWAP2 SWAP1 PUSH2 0xA38 JUMP JUMPDEST POP PUSH1 0x20 DUP3 ADD MLOAD DUP2 PUSH1 0x1 ADD SWAP1 DUP2 PUSH2 0x324 SWAP2 SWAP1 PUSH2 0xA38 JUMP JUMPDEST POP PUSH1 0x40 DUP3 ADD MLOAD DUP2 PUSH1 0x2 ADD SSTORE PUSH1 0x60 DUP3 ADD MLOAD DUP2 PUSH1 0x3 ADD SWAP1 DUP2 PUSH2 0x344 SWAP2 SWAP1 PUSH2 0xA38 JUMP JUMPDEST POP SWAP1 POP POP PUSH0 DUP2 SWAP1 DUP1 PUSH1 0x1 DUP2 SLOAD ADD DUP1 DUP3 SSTORE DUP1 SWAP2 POP POP PUSH1 0x1 SWAP1 SUB SWAP1 PUSH0 MSTORE PUSH1 0x20 PUSH0 KECCAK256 ADD PUSH0 SWAP1 SWAP2 SWAP1 SWAP2 SWAP1 SWAP2 POP SWAP1 DUP2 PUSH2 0x378 SWAP2 SWAP1 PUSH2 0xA38 JUMP JUMPDEST POP PUSH1 0x1 CALLER SWAP1 DUP1 PUSH1 0x1 DUP2 SLOAD ADD DUP1 DUP3 SSTORE DUP1 SWAP2 POP POP PUSH1 0x1 SWAP1 SUB SWAP1 PUSH0 MSTORE PUSH1 0x20 PUSH0 KECCAK256 ADD PUSH0 SWAP1 SWAP2 SWAP1 SWAP2 SWAP1 SWAP2 PUSH2 0x100 EXP DUP2 SLOAD DUP2 PUSH20 0xFFFFFFFFFFFFFFFFFFFFFFFFFFFFFFFFFFFFFFFF MUL NOT AND SWAP1 DUP4 PUSH20 0xFFFFFFFFFFFFFFFFFFFFFFFFFFFFFFFFFFFFFFFF AND MUL OR SWAP1 SSTORE POP POP POP POP POP JUMP JUMPDEST PUSH0 PUSH1 0x40 MLOAD SWAP1 POP SWAP1 JUMP JUMPDEST PUSH0 DUP1 REVERT JUMPDEST PUSH0 DUP1 REVERT JUMPDEST PUSH0 DUP1 REVERT JUMPDEST PUSH0 DUP1 REVERT JUMPDEST PUSH0 PUSH1 0x1F NOT PUSH1 0x1F DUP4 ADD AND SWAP1 POP SWAP2 SWAP1 POP JUMP JUMPDEST PUSH32 0x4E487B7100000000000000000000000000000000000000000000000000000000 PUSH0 MSTORE PUSH1 0x41 PUSH1 0x4 MSTORE PUSH1 0x24 PUSH0 REVERT JUMPDEST PUSH2 0x43E DUP3 PUSH2 0x3F8 JUMP JUMPDEST DUP2 ADD DUP2 DUP2 LT PUSH8 0xFFFFFFFFFFFFFFFF DUP3 GT OR ISZERO PUSH2 0x45D JUMPI PUSH2 0x45C PUSH2 0x408 JUMP JUMPDEST JUMPDEST DUP1 PUSH1 0x40 MSTORE POP POP POP JUMP JUMPDEST PUSH0 PUSH2 0x46F PUSH2 0x3DF JUMP JUMPDEST SWAP1 POP PUSH2 0x47B DUP3 DUP3 PUSH2 0x435 JUMP JUMPDEST SWAP2 SWAP1 POP JUMP JUMPDEST PUSH0 PUSH8 0xFFFFFFFFFFFFFFFF DUP3 GT ISZERO PUSH2 0x49A JUMPI PUSH2 0x499 PUSH2 0x408 JUMP JUMPDEST JUMPDEST PUSH2 0x4A3 DUP3 PUSH2 0x3F8 JUMP JUMPDEST SWAP1 POP PUSH1 0x20 DUP2 ADD SWAP1 POP SWAP2 SWAP1 POP JUMP JUMPDEST DUP3 DUP2 DUP4 CALLDATACOPY PUSH0 DUP4 DUP4 ADD MSTORE POP POP POP JUMP JUMPDEST PUSH0 PUSH2 0x4D0 PUSH2 0x4CB DUP5 PUSH2 0x480 JUMP JUMPDEST PUSH2 0x466 JUMP JUMPDEST SWAP1 POP DUP3 DUP2 MSTORE PUSH1 0x20 DUP2 ADD DUP5 DUP5 DUP5 ADD GT ISZERO PUSH2 0x4EC JUMPI PUSH2 0x4EB PUSH2 0x3F4 JUMP JUMPDEST JUMPDEST PUSH2 0x4F7 DUP5 DUP3 DUP6 PUSH2 0x4B0 JUMP JUMPDEST POP SWAP4 SWAP3 POP POP POP JUMP JUMPDEST PUSH0 DUP3 PUSH1 0x1F DUP4 ADD SLT PUSH2 0x513 JUMPI PUSH2 0x512 PUSH2 0x3F0 JUMP JUMPDEST JUMPDEST DUP2 CALLDATALOAD PUSH2 0x523 DUP5 DUP3 PUSH1 0x20 DUP7 ADD PUSH2 0x4BE JUMP JUMPDEST SWAP2 POP POP SWAP3 SWAP2 POP POP JUMP JUMPDEST PUSH0 PUSH1 0x20 DUP3 DUP5 SUB SLT ISZERO PUSH2 0x541 JUMPI PUSH2 0x540 PUSH2 0x3E8 JUMP JUMPDEST JUMPDEST PUSH0 DUP3 ADD CALLDATALOAD PUSH8 0xFFFFFFFFFFFFFFFF DUP2 GT ISZERO PUSH2 0x55E JUMPI PUSH2 0x55D PUSH2 0x3EC JUMP JUMPDEST JUMPDEST PUSH2 0x56A DUP5 DUP3 DUP6 ADD PUSH2 0x4FF JUMP JUMPDEST SWAP2 POP POP SWAP3 SWAP2 POP POP JUMP JUMPDEST PUSH0 DUP2 MLOAD SWAP1 POP SWAP2 SWAP1 POP JUMP JUMPDEST PUSH0 DUP3 DUP3 MSTORE PUSH1 0x20 DUP3 ADD SWAP1 POP SWAP3 SWAP2 POP POP JUMP JUMPDEST DUP3 DUP2 DUP4 MCOPY PUSH0 DUP4 DUP4 ADD MSTORE POP POP POP JUMP JUMPDEST PUSH0 PUSH2 0x5A5 DUP3 PUSH2 0x573 JUMP JUMPDEST PUSH2 0x5AF DUP2 DUP6 PUSH2 0x57D JUMP JUMPDEST SWAP4 POP PUSH2 0x5BF DUP2 DUP6 PUSH1 0x20 DUP7 ADD PUSH2 0x58D JUMP JUMPDEST PUSH2 0x5C8 DUP2 PUSH2 0x3F8 JUMP JUMPDEST DUP5 ADD SWAP2 POP POP SWAP3 SWAP2 POP POP JUMP JUMPDEST PUSH0 PUSH20 0xFFFFFFFFFFFFFFFFFFFFFFFFFFFFFFFFFFFFFFFF DUP3 AND SWAP1 POP SWAP2 SWAP1 POP JUMP JUMPDEST PUSH0 PUSH2 0x5FC DUP3 PUSH2 0x5D3 JUMP JUMPDEST SWAP1 POP SWAP2 SWAP1 POP JUMP JUMPDEST PUSH2 0x60C DUP2 PUSH2 0x5F2 JUMP JUMPDEST DUP3 MSTORE POP POP JUMP JUMPDEST PUSH0 PUSH1 0x40 DUP3 ADD SWAP1 POP DUP2 DUP2 SUB PUSH0 DUP4 ADD MSTORE PUSH2 0x62A DUP2 DUP6 PUSH2 0x59B JUMP JUMPDEST SWAP1 POP PUSH2 0x639 PUSH1 0x20 DUP4 ADD DUP5 PUSH2 0x603 JUMP JUMPDEST SWAP4 SWAP3 POP POP POP JUMP JUMPDEST PUSH0 DUP2 SWAP1 POP SWAP2 SWAP1 POP JUMP JUMPDEST PUSH2 0x652 DUP2 PUSH2 0x640 JUMP JUMPDEST DUP2 EQ PUSH2 0x65C JUMPI PUSH0 DUP1 REVERT JUMPDEST POP JUMP JUMPDEST PUSH0 DUP2 CALLDATALOAD SWAP1 POP PUSH2 0x66D DUP2 PUSH2 0x649 JUMP JUMPDEST SWAP3 SWAP2 POP POP JUMP JUMPDEST PUSH0 DUP1 PUSH0 DUP1 PUSH1 0x80 DUP6 DUP8 SUB SLT ISZERO PUSH2 0x68B JUMPI PUSH2 0x68A PUSH2 0x3E8 JUMP JUMPDEST JUMPDEST PUSH0 DUP6 ADD CALLDATALOAD PUSH8 0xFFFFFFFFFFFFFFFF DUP2 GT ISZERO PUSH2 0x6A8 JUMPI PUSH2 0x6A7 PUSH2 0x3EC JUMP JUMPDEST JUMPDEST PUSH2 0x6B4 DUP8 DUP3 DUP9 ADD PUSH2 0x4FF JUMP JUMPDEST SWAP5 POP POP PUSH1 0x20 DUP6 ADD CALLDATALOAD PUSH8 0xFFFFFFFFFFFFFFFF DUP2 GT ISZERO PUSH2 0x6D5 JUMPI PUSH2 0x6D4 PUSH2 0x3EC JUMP JUMPDEST JUMPDEST PUSH2 0x6E1 DUP8 DUP3 DUP9 ADD PUSH2 0x4FF JUMP JUMPDEST SWAP4 POP POP PUSH1 0x40 PUSH2 0x6F2 DUP8 DUP3 DUP9 ADD PUSH2 0x65F JUMP JUMPDEST SWAP3 POP POP PUSH1 0x60 DUP6 ADD CALLDATALOAD PUSH8 0xFFFFFFFFFFFFFFFF DUP2 GT ISZERO PUSH2 0x713 JUMPI PUSH2 0x712 PUSH2 0x3EC JUMP JUMPDEST JUMPDEST PUSH2 0x71F DUP8 DUP3 DUP9 ADD PUSH2 0x4FF JUMP JUMPDEST SWAP2 POP POP SWAP3 SWAP6 SWAP2 SWAP5 POP SWAP3 POP JUMP JUMPDEST PUSH0 DUP2 SWAP1 POP SWAP3 SWAP2 POP POP JUMP JUMPDEST PUSH0 PUSH2 0x73F DUP3 PUSH2 0x573 JUMP JUMPDEST PUSH2 0x749 DUP2 DUP6 PUSH2 0x72B JUMP JUMPDEST SWAP4 POP PUSH2 0x759 DUP2 DUP6 PUSH1 0x20 DUP7 ADD PUSH2 0x58D JUMP JUMPDEST DUP1 DUP5 ADD SWAP2 POP POP SWAP3 SWAP2 POP POP JUMP JUMPDEST PUSH0 PUSH2 0x770 DUP3 DUP5 PUSH2 0x735 JUMP JUMPDEST SWAP2 POP DUP2 SWAP1 POP SWAP3 SWAP2 POP POP JUMP JUMPDEST PUSH32 0x4E487B7100000000000000000000000000000000000000000000000000000000 PUSH0 MSTORE PUSH1 0x32 PUSH1 0x4 MSTORE PUSH1 0x24 PUSH0 REVERT JUMPDEST PUSH32 0x4E487B7100000000000000000000000000000000000000000000000000000000 PUSH0 MSTORE PUSH1 0x22 PUSH1 0x4 MSTORE PUSH1 0x24 PUSH0 REVERT JUMPDEST PUSH0 PUSH1 0x2 DUP3 DIV SWAP1 POP PUSH1 0x1 DUP3 AND DUP1 PUSH2 0x7EC JUMPI PUSH1 0x7F DUP3 AND SWAP2 POP JUMPDEST PUSH1 0x20 DUP3 LT DUP2 SUB PUSH2 0x7FF JUMPI PUSH2 0x7FE PUSH2 0x7A8 JUMP JUMPDEST JUMPDEST POP SWAP2 SWAP1 POP JUMP JUMPDEST PUSH0 DUP2 SWAP1 POP DUP2 PUSH0 MSTORE PUSH1 0x20 PUSH0 KECCAK256 SWAP1 POP SWAP2 SWAP1 POP JUMP JUMPDEST PUSH0 DUP2 SLOAD PUSH2 0x823 DUP2 PUSH2 0x7D5 JUMP JUMPDEST PUSH2 0x82D DUP2 DUP7 PUSH2 0x72B JUMP JUMPDEST SWAP5 POP PUSH1 0x1 DUP3 AND PUSH0 DUP2 EQ PUSH2 0x847 JUMPI PUSH1 0x1 DUP2 EQ PUSH2 0x85C JUMPI PUSH2 0x88E JUMP JUMPDEST PUSH1 0xFF NOT DUP4 AND DUP7 MSTORE DUP2 ISZERO ISZERO DUP3 MUL DUP7 ADD SWAP4 POP PUSH2 0x88E JUMP JUMPDEST PUSH2 0x865 DUP6 PUSH2 0x805 JUMP JUMPDEST PUSH0 JUMPDEST DUP4 DUP2 LT ISZERO PUSH2 0x886 JUMPI DUP2 SLOAD DUP2 DUP10 ADD MSTORE PUSH1 0x1 DUP3 ADD SWAP2 POP PUSH1 0x20 DUP2 ADD SWAP1 POP PUSH2 0x867 JUMP JUMPDEST DUP4 DUP9 ADD SWAP6 POP POP POP JUMPDEST POP POP POP SWAP3 SWAP2 POP POP JUMP JUMPDEST PUSH0 PUSH2 0x8A2 DUP3 DUP5 PUSH2 0x817 JUMP JUMPDEST SWAP2 POP DUP2 SWAP1 POP SWAP3 SWAP2 POP POP JUMP JUMPDEST PUSH0 PUSH1 0x20 PUSH1 0x1F DUP4 ADD DIV SWAP1 POP SWAP2 SWAP1 POP JUMP JUMPDEST PUSH0 DUP3 DUP3 SHL SWAP1 POP SWAP3 SWAP2 POP POP JUMP JUMPDEST PUSH0 PUSH1 0x8 DUP4 MUL PUSH2 0x8F7 PUSH32 0xFFFFFFFFFFFFFFFFFFFFFFFFFFFFFFFFFFFFFFFFFFFFFFFFFFFFFFFFFFFFFFFF DUP3 PUSH2 0x8BC JUMP JUMPDEST PUSH2 0x901 DUP7 DUP4 PUSH2 0x8BC JUMP JUMPDEST SWAP6 POP DUP1 NOT DUP5 AND SWAP4 POP DUP1 DUP7 AND DUP5 OR SWAP3 POP POP POP SWAP4 SWAP3 POP POP POP JUMP JUMPDEST PUSH0 DUP2 SWAP1 POP SWAP2 SWAP1 POP JUMP JUMPDEST PUSH0 PUSH2 0x93C PUSH2 0x937 PUSH2 0x932 DUP5 PUSH2 0x640 JUMP JUMPDEST PUSH2 0x919 JUMP JUMPDEST PUSH2 0x640 JUMP JUMPDEST SWAP1 POP SWAP2 SWAP1 POP JUMP JUMPDEST PUSH0 DUP2 SWAP1 POP SWAP2 SWAP1 POP JUMP JUMPDEST PUSH2 0x955 DUP4 PUSH2 0x922 JUMP JUMPDEST PUSH2 0x969 PUSH2 0x961 DUP3 PUSH2 0x943 JUMP JUMPDEST DUP5 DUP5 SLOAD PUSH2 0x8C8 JUMP JUMPDEST DUP3 SSTORE POP POP POP POP JUMP JUMPDEST PUSH0 SWAP1 JUMP JUMPDEST PUSH2 0x97D PUSH2 0x971 JUMP JUMPDEST PUSH2 0x988 DUP2 DUP5 DUP5 PUSH2 0x94C JUMP JUMPDEST POP POP POP JUMP JUMPDEST JUMPDEST DUP2 DUP2 LT ISZERO PUSH2 0x9AB JUMPI PUSH2 0x9A0 PUSH0 DUP3 PUSH2 0x975 JUMP JUMPDEST PUSH1 0x1 DUP2 ADD SWAP1 POP PUSH2 0x98E JUMP JUMPDEST POP POP JUMP JUMPDEST PUSH1 0x1F DUP3 GT ISZERO PUSH2 0x9F0 JUMPI PUSH2 0x9C1 DUP2 PUSH2 0x805 JUMP JUMPDEST PUSH2 0x9CA DUP5 PUSH2 0x8AD JUMP JUMPDEST DUP2 ADD PUSH1 0x20 DUP6 LT ISZERO PUSH2 0x9D9 JUMPI DUP2 SWAP1 POP JUMPDEST PUSH2 0x9ED PUSH2 0x9E5 DUP6 PUSH2 0x8AD JUMP JUMPDEST DUP4 ADD DUP3 PUSH2 0x98D JUMP JUMPDEST POP POP JUMPDEST POP POP POP JUMP JUMPDEST PUSH0 DUP3 DUP3 SHR SWAP1 POP SWAP3 SWAP2 POP POP JUMP JUMPDEST PUSH0 PUSH2 0xA10 PUSH0 NOT DUP5 PUSH1 0x8 MUL PUSH2 0x9F5 JUMP JUMPDEST NOT DUP1 DUP4 AND SWAP2 POP POP SWAP3 SWAP2 POP POP JUMP JUMPDEST PUSH0 PUSH2 0xA28 DUP4 DUP4 PUSH2 0xA01 JUMP JUMPDEST SWAP2 POP DUP3 PUSH1 0x2 MUL DUP3 OR SWAP1 POP SWAP3 SWAP2 POP POP JUMP JUMPDEST PUSH2 0xA41 DUP3 PUSH2 0x573 JUMP JUMPDEST PUSH8 0xFFFFFFFFFFFFFFFF DUP2 GT ISZERO PUSH2 0xA5A JUMPI PUSH2 0xA59 PUSH2 0x408 JUMP JUMPDEST JUMPDEST PUSH2 0xA64 DUP3 SLOAD PUSH2 0x7D5 JUMP JUMPDEST PUSH2 0xA6F DUP3 DUP3 DUP6 PUSH2 0x9AF JUMP JUMPDEST PUSH0 PUSH1 0x20 SWAP1 POP PUSH1 0x1F DUP4 GT PUSH1 0x1 DUP2 EQ PUSH2 0xAA0 JUMPI PUSH0 DUP5 ISZERO PUSH2 0xA8E JUMPI DUP3 DUP8 ADD MLOAD SWAP1 POP JUMPDEST PUSH2 0xA98 DUP6 DUP3 PUSH2 0xA1D JUMP JUMPDEST DUP7 SSTORE POP PUSH2 0xAFF JUMP JUMPDEST PUSH1 0x1F NOT DUP5 AND PUSH2 0xAAE DUP7 PUSH2 0x805 JUMP JUMPDEST PUSH0 JUMPDEST DUP3 DUP2 LT ISZERO PUSH2 0xAD5 JUMPI DUP5 DUP10 ADD MLOAD DUP3 SSTORE PUSH1 0x1 DUP3 ADD SWAP2 POP PUSH1 0x20 DUP6 ADD SWAP5 POP PUSH1 0x20 DUP2 ADD SWAP1 POP PUSH2 0xAB0 JUMP JUMPDEST DUP7 DUP4 LT ISZERO PUSH2 0xAF2 JUMPI DUP5 DUP10 ADD MLOAD PUSH2 0xAEE PUSH1 0x1F DUP10 AND DUP3 PUSH2 0xA01 JUMP JUMPDEST DUP4 SSTORE POP JUMPDEST PUSH1 0x1 PUSH1 0x2 DUP9 MUL ADD DUP9 SSTORE POP POP POP JUMPDEST POP POP POP POP POP POP JUMP INVALID LOG2 PUSH5 0x6970667358 0x22 SLT KECCAK256 SWAP15 0xD6 0x27 0xB3 BLOCKHASH INVALID 0x2D SWAP4 SWAP12 SGT SGT DUP5 0x22 0xDB LOG1 0xF6 MSTORE 0xDA DUP16 SELFDESTRUCT 0xC4 PUSH3 0x6218C8 MULMOD 0xD9 0xB7 SWAP11 DUP1 SWAP14 PUSH4 0x64736F6C PUSH4 0x4300081A STOP CALLER "
		},
		"gasEstimates": {
			"creation": {
				"codeDepositCost": "575400",
				"executionCost": "604",
				"totalCost": "576004"
			},
			"external": {
				"addUser(string,string,uint256,string)": "infinite",
				"showWitUId(string)": "infinite"
			}
		},
		"methodIdentifiers": {
			"addUser(string,string,uint256,string)": "3edda031",
			"showWitUId(string)": "3ec6b9d9"
		}
	},
	"abi": [
		{
			"inputs": [
				{
					"internalType": "string",
					"name": "_name",
					"type": "string"
				},
				{
					"internalType": "string",
					"name": "_gender",
					"type": "string"
				},
				{
					"internalType": "uint256",
					"name": "_age",
					"type": "uint256"
				},
				{
					"internalType": "string",
					"name": "_uid",
					"type": "string"
				}
			],
			"name": "addUser",
			"outputs": [],
			"stateMutability": "nonpayable",
			"type": "function"
		},
		{
			"inputs": [
				{
					"internalType": "string",
					"name": "_uid",
					"type": "string"
				}
			],
			"name": "showWitUId",
			"outputs": [
				{
					"internalType": "string",
					"name": "userName",
					"type": "string"
				},
				{
					"internalType": "address",
					"name": "userAddress",
					"type": "address"
				}
			],
			"stateMutability": "view",
			"type": "function"
		}
	]
}