{
	"data": {
		"bytecode": {
			"linkReferences": {},
			"object": "60c060405234801561000f575f80fd5b50604051610b76380380610b76833981810160405281019061003191906100fe565b8173ffffffffffffffffffffffffffffffffffffffff1660808173ffffffffffffffffffffffffffffffffffffffff16815250508073ffffffffffffffffffffffffffffffffffffffff1660a08173ffffffffffffffffffffffffffffffffffffffff1681525050505061013c565b5f80fd5b5f73ffffffffffffffffffffffffffffffffffffffff82169050919050565b5f6100cd826100a4565b9050919050565b6100dd816100c3565b81146100e7575f80fd5b50565b5f815190506100f8816100d4565b92915050565b5f8060408385031215610114576101136100a0565b5b5f610121858286016100ea565b9250506020610132858286016100ea565b9150509250929050565b60805160a051610a056101715f395f6103e401525f818160c5015281816102090152818161031f01526103430152610a055ff3fe608060405234801561000f575f80fd5b506004361061004a575f3560e01c80631192549f1461004e57806335e40a441461006a578063d3e6260114610088578063f851a440146100a4575b5f80fd5b610068600480360381019061006391906105ab565b6100c2565b005b61007261031d565b60405161007f91906105e5565b60405180910390f35b6100a2600480360381019061009d9190610631565b610341565b005b6100ac6103e2565b6040516100b991906105e5565b60405180910390f35b5f7f000000000000000000000000000000000000000000000000000000000000000073ffffffffffffffffffffffffffffffffffffffff166370a08231306040518263ffffffff1660e01b815260040161011c91906105e5565b602060405180830381865afa158015610137573d5f803e3d5ffd5b505050506040513d601f19601f8201168201806040525081019061015b9190610670565b90505f8103610196576040517f786e0a9900000000000000000000000000000000000000000000000000000000815260040160405180910390fd5b5f6040518060600160405280606484603a6101b191906106c8565b6101bb9190610736565b8152602001606484601d6101cf91906106c8565b6101d99190610736565b815260200160648460096101ed91906106c8565b6101f79190610736565b81525090505f5b60038110156102de577f000000000000000000000000000000000000000000000000000000000000000073ffffffffffffffffffffffffffffffffffffffff1663a9059cbb85836003811061025657610255610766565b5b602002015184846003811061026e5761026d610766565b5b60200201516040518363ffffffff1660e01b81526004016102909291906107a2565b6020604051808303815f875af11580156102ac573d5f803e3d5ffd5b505050506040513d601f19601f820116820180604052508101906102d091906107fe565b5080806001019150506101fe565b507f6b6ef27261dfd975a881981cb28adc6afe7963673c859bce73d79e0e09be34b08382604051610310929190610973565b60405180910390a1505050565b7f000000000000000000000000000000000000000000000000000000000000000081565b7f000000000000000000000000000000000000000000000000000000000000000073ffffffffffffffffffffffffffffffffffffffff166323b872dd3330846040518463ffffffff1660e01b815260040161039e9392919061099a565b6020604051808303815f875af11580156103ba573d5f803e3d5ffd5b505050506040513d601f19601f820116820180604052508101906103de91906107fe565b5050565b7f000000000000000000000000000000000000000000000000000000000000000081565b5f604051905090565b5f80fd5b5f80fd5b5f601f19601f8301169050919050565b7f4e487b71000000000000000000000000000000000000000000000000000000005f52604160045260245ffd5b61045d82610417565b810181811067ffffffffffffffff8211171561047c5761047b610427565b5b80604052505050565b5f61048e610406565b905061049a8282610454565b919050565b5f67ffffffffffffffff8211156104b9576104b8610427565b5b602082029050919050565b5f80fd5b5f73ffffffffffffffffffffffffffffffffffffffff82169050919050565b5f6104f1826104c8565b9050919050565b610501816104e7565b811461050b575f80fd5b50565b5f8135905061051c816104f8565b92915050565b5f61053461052f8461049f565b610485565b9050806020840283018581111561054e5761054d6104c4565b5b835b818110156105775780610563888261050e565b845260208401935050602081019050610550565b5050509392505050565b5f82601f83011261059557610594610413565b5b60036105a2848285610522565b91505092915050565b5f606082840312156105c0576105bf61040f565b5b5f6105cd84828501610581565b91505092915050565b6105df816104e7565b82525050565b5f6020820190506105f85f8301846105d6565b92915050565b5f819050919050565b610610816105fe565b811461061a575f80fd5b50565b5f8135905061062b81610607565b92915050565b5f602082840312156106465761064561040f565b5b5f6106538482850161061d565b91505092915050565b5f8151905061066a81610607565b92915050565b5f602082840312156106855761068461040f565b5b5f6106928482850161065c565b91505092915050565b7f4e487b71000000000000000000000000000000000000000000000000000000005f52601160045260245ffd5b5f6106d2826105fe565b91506106dd836105fe565b92508282026106eb816105fe565b915082820484148315176107025761070161069b565b5b5092915050565b7f4e487b71000000000000000000000000000000000000000000000000000000005f52601260045260245ffd5b5f610740826105fe565b915061074b836105fe565b92508261075b5761075a610709565b5b828204905092915050565b7f4e487b71000000000000000000000000000000000000000000000000000000005f52603260045260245ffd5b61079c816105fe565b82525050565b5f6040820190506107b55f8301856105d6565b6107c26020830184610793565b9392505050565b5f8115159050919050565b6107dd816107c9565b81146107e7575f80fd5b50565b5f815190506107f8816107d4565b92915050565b5f602082840312156108135761081261040f565b5b5f610820848285016107ea565b91505092915050565b5f60039050919050565b5f81905092915050565b5f819050919050565b61084f816104e7565b82525050565b5f6108608383610846565b60208301905092915050565b5f602082019050919050565b61088181610829565b61088b8184610833565b92506108968261083d565b805f5b838110156108c65781516108ad8782610855565b96506108b88361086c565b925050600181019050610899565b505050505050565b5f60039050919050565b5f81905092915050565b5f819050919050565b6108f4816105fe565b82525050565b5f61090583836108eb565b60208301905092915050565b5f602082019050919050565b610926816108ce565b61093081846108d8565b925061093b826108e2565b805f5b8381101561096b57815161095287826108fa565b965061095d83610911565b92505060018101905061093e565b505050505050565b5f60c0820190506109865f830185610878565b610993606083018461091d565b9392505050565b5f6060820190506109ad5f8301866105d6565b6109ba60208301856105d6565b6109c76040830184610793565b94935050505056fea2646970667358221220d49888ccd8bf5e95554d5647913d9864c612a24b42644a8f604d11b5ded6183864736f6c634300081a0033",
			"opcodes": "PUSH1 0xC0 PUSH1 0x40 MSTORE CALLVALUE DUP1 ISZERO PUSH2 0xF JUMPI PUSH0 DUP1 REVERT JUMPDEST POP PUSH1 0x40 MLOAD PUSH2 0xB76 CODESIZE SUB DUP1 PUSH2 0xB76 DUP4 CODECOPY DUP2 DUP2 ADD PUSH1 0x40 MSTORE DUP2 ADD SWAP1 PUSH2 0x31 SWAP2 SWAP1 PUSH2 0xFE JUMP JUMPDEST DUP2 PUSH20 0xFFFFFFFFFFFFFFFFFFFFFFFFFFFFFFFFFFFFFFFF AND PUSH1 0x80 DUP2 PUSH20 0xFFFFFFFFFFFFFFFFFFFFFFFFFFFFFFFFFFFFFFFF AND DUP2 MSTORE POP POP DUP1 PUSH20 0xFFFFFFFFFFFFFFFFFFFFFFFFFFFFFFFFFFFFFFFF AND PUSH1 0xA0 DUP2 PUSH20 0xFFFFFFFFFFFFFFFFFFFFFFFFFFFFFFFFFFFFFFFF AND DUP2 MSTORE POP POP POP POP PUSH2 0x13C JUMP JUMPDEST PUSH0 DUP1 REVERT JUMPDEST PUSH0 PUSH20 0xFFFFFFFFFFFFFFFFFFFFFFFFFFFFFFFFFFFFFFFF DUP3 AND SWAP1 POP SWAP2 SWAP1 POP JUMP JUMPDEST PUSH0 PUSH2 0xCD DUP3 PUSH2 0xA4 JUMP JUMPDEST SWAP1 POP SWAP2 SWAP1 POP JUMP JUMPDEST PUSH2 0xDD DUP2 PUSH2 0xC3 JUMP JUMPDEST DUP2 EQ PUSH2 0xE7 JUMPI PUSH0 DUP1 REVERT JUMPDEST POP JUMP JUMPDEST PUSH0 DUP2 MLOAD SWAP1 POP PUSH2 0xF8 DUP2 PUSH2 0xD4 JUMP JUMPDEST SWAP3 SWAP2 POP POP JUMP JUMPDEST PUSH0 DUP1 PUSH1 0x40 DUP4 DUP6 SUB SLT ISZERO PUSH2 0x114 JUMPI PUSH2 0x113 PUSH2 0xA0 JUMP JUMPDEST JUMPDEST PUSH0 PUSH2 0x121 DUP6 DUP3 DUP7 ADD PUSH2 0xEA JUMP JUMPDEST SWAP3 POP POP PUSH1 0x20 PUSH2 0x132 DUP6 DUP3 DUP7 ADD PUSH2 0xEA JUMP JUMPDEST SWAP2 POP POP SWAP3 POP SWAP3 SWAP1 POP JUMP JUMPDEST PUSH1 0x80 MLOAD PUSH1 0xA0 MLOAD PUSH2 0xA05 PUSH2 0x171 PUSH0 CODECOPY PUSH0 PUSH2 0x3E4 ADD MSTORE PUSH0 DUP2 DUP2 PUSH1 0xC5 ADD MSTORE DUP2 DUP2 PUSH2 0x209 ADD MSTORE DUP2 DUP2 PUSH2 0x31F ADD MSTORE PUSH2 0x343 ADD MSTORE PUSH2 0xA05 PUSH0 RETURN INVALID PUSH1 0x80 PUSH1 0x40 MSTORE CALLVALUE DUP1 ISZERO PUSH2 0xF JUMPI PUSH0 DUP1 REVERT JUMPDEST POP PUSH1 0x4 CALLDATASIZE LT PUSH2 0x4A JUMPI PUSH0 CALLDATALOAD PUSH1 0xE0 SHR DUP1 PUSH4 0x1192549F EQ PUSH2 0x4E JUMPI DUP1 PUSH4 0x35E40A44 EQ PUSH2 0x6A JUMPI DUP1 PUSH4 0xD3E62601 EQ PUSH2 0x88 JUMPI DUP1 PUSH4 0xF851A440 EQ PUSH2 0xA4 JUMPI JUMPDEST PUSH0 DUP1 REVERT JUMPDEST PUSH2 0x68 PUSH1 0x4 DUP1 CALLDATASIZE SUB DUP2 ADD SWAP1 PUSH2 0x63 SWAP2 SWAP1 PUSH2 0x5AB JUMP JUMPDEST PUSH2 0xC2 JUMP JUMPDEST STOP JUMPDEST PUSH2 0x72 PUSH2 0x31D JUMP JUMPDEST PUSH1 0x40 MLOAD PUSH2 0x7F SWAP2 SWAP1 PUSH2 0x5E5 JUMP JUMPDEST PUSH1 0x40 MLOAD DUP1 SWAP2 SUB SWAP1 RETURN JUMPDEST PUSH2 0xA2 PUSH1 0x4 DUP1 CALLDATASIZE SUB DUP2 ADD SWAP1 PUSH2 0x9D SWAP2 SWAP1 PUSH2 0x631 JUMP JUMPDEST PUSH2 0x341 JUMP JUMPDEST STOP JUMPDEST PUSH2 0xAC PUSH2 0x3E2 JUMP JUMPDEST PUSH1 0x40 MLOAD PUSH2 0xB9 SWAP2 SWAP1 PUSH2 0x5E5 JUMP JUMPDEST PUSH1 0x40 MLOAD DUP1 SWAP2 SUB SWAP1 RETURN JUMPDEST PUSH0 PUSH32 0x0 PUSH20 0xFFFFFFFFFFFFFFFFFFFFFFFFFFFFFFFFFFFFFFFF AND PUSH4 0x70A08231 ADDRESS PUSH1 0x40 MLOAD DUP3 PUSH4 0xFFFFFFFF AND PUSH1 0xE0 SHL DUP2 MSTORE PUSH1 0x4 ADD PUSH2 0x11C SWAP2 SWAP1 PUSH2 0x5E5 JUMP JUMPDEST PUSH1 0x20 PUSH1 0x40 MLOAD DUP1 DUP4 SUB DUP2 DUP7 GAS STATICCALL ISZERO DUP1 ISZERO PUSH2 0x137 JUMPI RETURNDATASIZE PUSH0 DUP1 RETURNDATACOPY RETURNDATASIZE PUSH0 REVERT JUMPDEST POP POP POP POP PUSH1 0x40 MLOAD RETURNDATASIZE PUSH1 0x1F NOT PUSH1 0x1F DUP3 ADD AND DUP3 ADD DUP1 PUSH1 0x40 MSTORE POP DUP2 ADD SWAP1 PUSH2 0x15B SWAP2 SWAP1 PUSH2 0x670 JUMP JUMPDEST SWAP1 POP PUSH0 DUP2 SUB PUSH2 0x196 JUMPI PUSH1 0x40 MLOAD PUSH32 0x786E0A9900000000000000000000000000000000000000000000000000000000 DUP2 MSTORE PUSH1 0x4 ADD PUSH1 0x40 MLOAD DUP1 SWAP2 SUB SWAP1 REVERT JUMPDEST PUSH0 PUSH1 0x40 MLOAD DUP1 PUSH1 0x60 ADD PUSH1 0x40 MSTORE DUP1 PUSH1 0x64 DUP5 PUSH1 0x3A PUSH2 0x1B1 SWAP2 SWAP1 PUSH2 0x6C8 JUMP JUMPDEST PUSH2 0x1BB SWAP2 SWAP1 PUSH2 0x736 JUMP JUMPDEST DUP2 MSTORE PUSH1 0x20 ADD PUSH1 0x64 DUP5 PUSH1 0x1D PUSH2 0x1CF SWAP2 SWAP1 PUSH2 0x6C8 JUMP JUMPDEST PUSH2 0x1D9 SWAP2 SWAP1 PUSH2 0x736 JUMP JUMPDEST DUP2 MSTORE PUSH1 0x20 ADD PUSH1 0x64 DUP5 PUSH1 0x9 PUSH2 0x1ED SWAP2 SWAP1 PUSH2 0x6C8 JUMP JUMPDEST PUSH2 0x1F7 SWAP2 SWAP1 PUSH2 0x736 JUMP JUMPDEST DUP2 MSTORE POP SWAP1 POP PUSH0 JUMPDEST PUSH1 0x3 DUP2 LT ISZERO PUSH2 0x2DE JUMPI PUSH32 0x0 PUSH20 0xFFFFFFFFFFFFFFFFFFFFFFFFFFFFFFFFFFFFFFFF AND PUSH4 0xA9059CBB DUP6 DUP4 PUSH1 0x3 DUP2 LT PUSH2 0x256 JUMPI PUSH2 0x255 PUSH2 0x766 JUMP JUMPDEST JUMPDEST PUSH1 0x20 MUL ADD MLOAD DUP5 DUP5 PUSH1 0x3 DUP2 LT PUSH2 0x26E JUMPI PUSH2 0x26D PUSH2 0x766 JUMP JUMPDEST JUMPDEST PUSH1 0x20 MUL ADD MLOAD PUSH1 0x40 MLOAD DUP4 PUSH4 0xFFFFFFFF AND PUSH1 0xE0 SHL DUP2 MSTORE PUSH1 0x4 ADD PUSH2 0x290 SWAP3 SWAP2 SWAP1 PUSH2 0x7A2 JUMP JUMPDEST PUSH1 0x20 PUSH1 0x40 MLOAD DUP1 DUP4 SUB DUP2 PUSH0 DUP8 GAS CALL ISZERO DUP1 ISZERO PUSH2 0x2AC JUMPI RETURNDATASIZE PUSH0 DUP1 RETURNDATACOPY RETURNDATASIZE PUSH0 REVERT JUMPDEST POP POP POP POP PUSH1 0x40 MLOAD RETURNDATASIZE PUSH1 0x1F NOT PUSH1 0x1F DUP3 ADD AND DUP3 ADD DUP1 PUSH1 0x40 MSTORE POP DUP2 ADD SWAP1 PUSH2 0x2D0 SWAP2 SWAP1 PUSH2 0x7FE JUMP JUMPDEST POP DUP1 DUP1 PUSH1 0x1 ADD SWAP2 POP POP PUSH2 0x1FE JUMP JUMPDEST POP PUSH32 0x6B6EF27261DFD975A881981CB28ADC6AFE7963673C859BCE73D79E0E09BE34B0 DUP4 DUP3 PUSH1 0x40 MLOAD PUSH2 0x310 SWAP3 SWAP2 SWAP1 PUSH2 0x973 JUMP JUMPDEST PUSH1 0x40 MLOAD DUP1 SWAP2 SUB SWAP1 LOG1 POP POP POP JUMP JUMPDEST PUSH32 0x0 DUP2 JUMP JUMPDEST PUSH32 0x0 PUSH20 0xFFFFFFFFFFFFFFFFFFFFFFFFFFFFFFFFFFFFFFFF AND PUSH4 0x23B872DD CALLER ADDRESS DUP5 PUSH1 0x40 MLOAD DUP5 PUSH4 0xFFFFFFFF AND PUSH1 0xE0 SHL DUP2 MSTORE PUSH1 0x4 ADD PUSH2 0x39E SWAP4 SWAP3 SWAP2 SWAP1 PUSH2 0x99A JUMP JUMPDEST PUSH1 0x20 PUSH1 0x40 MLOAD DUP1 DUP4 SUB DUP2 PUSH0 DUP8 GAS CALL ISZERO DUP1 ISZERO PUSH2 0x3BA JUMPI RETURNDATASIZE PUSH0 DUP1 RETURNDATACOPY RETURNDATASIZE PUSH0 REVERT JUMPDEST POP POP POP POP PUSH1 0x40 MLOAD RETURNDATASIZE PUSH1 0x1F NOT PUSH1 0x1F DUP3 ADD AND DUP3 ADD DUP1 PUSH1 0x40 MSTORE POP DUP2 ADD SWAP1 PUSH2 0x3DE SWAP2 SWAP1 PUSH2 0x7FE JUMP JUMPDEST POP POP JUMP JUMPDEST PUSH32 0x0 DUP2 JUMP JUMPDEST PUSH0 PUSH1 0x40 MLOAD SWAP1 POP SWAP1 JUMP JUMPDEST PUSH0 DUP1 REVERT JUMPDEST PUSH0 DUP1 REVERT JUMPDEST PUSH0 PUSH1 0x1F NOT PUSH1 0x1F DUP4 ADD AND SWAP1 POP SWAP2 SWAP1 POP JUMP JUMPDEST PUSH32 0x4E487B7100000000000000000000000000000000000000000000000000000000 PUSH0 MSTORE PUSH1 0x41 PUSH1 0x4 MSTORE PUSH1 0x24 PUSH0 REVERT JUMPDEST PUSH2 0x45D DUP3 PUSH2 0x417 JUMP JUMPDEST DUP2 ADD DUP2 DUP2 LT PUSH8 0xFFFFFFFFFFFFFFFF DUP3 GT OR ISZERO PUSH2 0x47C JUMPI PUSH2 0x47B PUSH2 0x427 JUMP JUMPDEST JUMPDEST DUP1 PUSH1 0x40 MSTORE POP POP POP JUMP JUMPDEST PUSH0 PUSH2 0x48E PUSH2 0x406 JUMP JUMPDEST SWAP1 POP PUSH2 0x49A DUP3 DUP3 PUSH2 0x454 JUMP JUMPDEST SWAP2 SWAP1 POP JUMP JUMPDEST PUSH0 PUSH8 0xFFFFFFFFFFFFFFFF DUP3 GT ISZERO PUSH2 0x4B9 JUMPI PUSH2 0x4B8 PUSH2 0x427 JUMP JUMPDEST JUMPDEST PUSH1 0x20 DUP3 MUL SWAP1 POP SWAP2 SWAP1 POP JUMP JUMPDEST PUSH0 DUP1 REVERT JUMPDEST PUSH0 PUSH20 0xFFFFFFFFFFFFFFFFFFFFFFFFFFFFFFFFFFFFFFFF DUP3 AND SWAP1 POP SWAP2 SWAP1 POP JUMP JUMPDEST PUSH0 PUSH2 0x4F1 DUP3 PUSH2 0x4C8 JUMP JUMPDEST SWAP1 POP SWAP2 SWAP1 POP JUMP JUMPDEST PUSH2 0x501 DUP2 PUSH2 0x4E7 JUMP JUMPDEST DUP2 EQ PUSH2 0x50B JUMPI PUSH0 DUP1 REVERT JUMPDEST POP JUMP JUMPDEST PUSH0 DUP2 CALLDATALOAD SWAP1 POP PUSH2 0x51C DUP2 PUSH2 0x4F8 JUMP JUMPDEST SWAP3 SWAP2 POP POP JUMP JUMPDEST PUSH0 PUSH2 0x534 PUSH2 0x52F DUP5 PUSH2 0x49F JUMP JUMPDEST PUSH2 0x485 JUMP JUMPDEST SWAP1 POP DUP1 PUSH1 0x20 DUP5 MUL DUP4 ADD DUP6 DUP2 GT ISZERO PUSH2 0x54E JUMPI PUSH2 0x54D PUSH2 0x4C4 JUMP JUMPDEST JUMPDEST DUP4 JUMPDEST DUP2 DUP2 LT ISZERO PUSH2 0x577 JUMPI DUP1 PUSH2 0x563 DUP9 DUP3 PUSH2 0x50E JUMP JUMPDEST DUP5 MSTORE PUSH1 0x20 DUP5 ADD SWAP4 POP POP PUSH1 0x20 DUP2 ADD SWAP1 POP PUSH2 0x550 JUMP JUMPDEST POP POP POP SWAP4 SWAP3 POP POP POP JUMP JUMPDEST PUSH0 DUP3 PUSH1 0x1F DUP4 ADD SLT PUSH2 0x595 JUMPI PUSH2 0x594 PUSH2 0x413 JUMP JUMPDEST JUMPDEST PUSH1 0x3 PUSH2 0x5A2 DUP5 DUP3 DUP6 PUSH2 0x522 JUMP JUMPDEST SWAP2 POP POP SWAP3 SWAP2 POP POP JUMP JUMPDEST PUSH0 PUSH1 0x60 DUP3 DUP5 SUB SLT ISZERO PUSH2 0x5C0 JUMPI PUSH2 0x5BF PUSH2 0x40F JUMP JUMPDEST JUMPDEST PUSH0 PUSH2 0x5CD DUP5 DUP3 DUP6 ADD PUSH2 0x581 JUMP JUMPDEST SWAP2 POP POP SWAP3 SWAP2 POP POP JUMP JUMPDEST PUSH2 0x5DF DUP2 PUSH2 0x4E7 JUMP JUMPDEST DUP3 MSTORE POP POP JUMP JUMPDEST PUSH0 PUSH1 0x20 DUP3 ADD SWAP1 POP PUSH2 0x5F8 PUSH0 DUP4 ADD DUP5 PUSH2 0x5D6 JUMP JUMPDEST SWAP3 SWAP2 POP POP JUMP JUMPDEST PUSH0 DUP2 SWAP1 POP SWAP2 SWAP1 POP JUMP JUMPDEST PUSH2 0x610 DUP2 PUSH2 0x5FE JUMP JUMPDEST DUP2 EQ PUSH2 0x61A JUMPI PUSH0 DUP1 REVERT JUMPDEST POP JUMP JUMPDEST PUSH0 DUP2 CALLDATALOAD SWAP1 POP PUSH2 0x62B DUP2 PUSH2 0x607 JUMP JUMPDEST SWAP3 SWAP2 POP POP JUMP JUMPDEST PUSH0 PUSH1 0x20 DUP3 DUP5 SUB SLT ISZERO PUSH2 0x646 JUMPI PUSH2 0x645 PUSH2 0x40F JUMP JUMPDEST JUMPDEST PUSH0 PUSH2 0x653 DUP5 DUP3 DUP6 ADD PUSH2 0x61D JUMP JUMPDEST SWAP2 POP POP SWAP3 SWAP2 POP POP JUMP JUMPDEST PUSH0 DUP2 MLOAD SWAP1 POP PUSH2 0x66A DUP2 PUSH2 0x607 JUMP JUMPDEST SWAP3 SWAP2 POP POP JUMP JUMPDEST PUSH0 PUSH1 0x20 DUP3 DUP5 SUB SLT ISZERO PUSH2 0x685 JUMPI PUSH2 0x684 PUSH2 0x40F JUMP JUMPDEST JUMPDEST PUSH0 PUSH2 0x692 DUP5 DUP3 DUP6 ADD PUSH2 0x65C JUMP JUMPDEST SWAP2 POP POP SWAP3 SWAP2 POP POP JUMP JUMPDEST PUSH32 0x4E487B7100000000000000000000000000000000000000000000000000000000 PUSH0 MSTORE PUSH1 0x11 PUSH1 0x4 MSTORE PUSH1 0x24 PUSH0 REVERT JUMPDEST PUSH0 PUSH2 0x6D2 DUP3 PUSH2 0x5FE JUMP JUMPDEST SWAP2 POP PUSH2 0x6DD DUP4 PUSH2 0x5FE JUMP JUMPDEST SWAP3 POP DUP3 DUP3 MUL PUSH2 0x6EB DUP2 PUSH2 0x5FE JUMP JUMPDEST SWAP2 POP DUP3 DUP3 DIV DUP5 EQ DUP4 ISZERO OR PUSH2 0x702 JUMPI PUSH2 0x701 PUSH2 0x69B JUMP JUMPDEST JUMPDEST POP SWAP3 SWAP2 POP POP JUMP JUMPDEST PUSH32 0x4E487B7100000000000000000000000000000000000000000000000000000000 PUSH0 MSTORE PUSH1 0x12 PUSH1 0x4 MSTORE PUSH1 0x24 PUSH0 REVERT JUMPDEST PUSH0 PUSH2 0x740 DUP3 PUSH2 0x5FE JUMP JUMPDEST SWAP2 POP PUSH2 0x74B DUP4 PUSH2 0x5FE JUMP JUMPDEST SWAP3 POP DUP3 PUSH2 0x75B JUMPI PUSH2 0x75A PUSH2 0x709 JUMP JUMPDEST JUMPDEST DUP3 DUP3 DIV SWAP1 POP SWAP3 SWAP2 POP POP JUMP JUMPDEST PUSH32 0x4E487B7100000000000000000000000000000000000000000000000000000000 PUSH0 MSTORE PUSH1 0x32 PUSH1 0x4 MSTORE PUSH1 0x24 PUSH0 REVERT JUMPDEST PUSH2 0x79C DUP2 PUSH2 0x5FE JUMP JUMPDEST DUP3 MSTORE POP POP JUMP JUMPDEST PUSH0 PUSH1 0x40 DUP3 ADD SWAP1 POP PUSH2 0x7B5 PUSH0 DUP4 ADD DUP6 PUSH2 0x5D6 JUMP JUMPDEST PUSH2 0x7C2 PUSH1 0x20 DUP4 ADD DUP5 PUSH2 0x793 JUMP JUMPDEST SWAP4 SWAP3 POP POP POP JUMP JUMPDEST PUSH0 DUP2 ISZERO ISZERO SWAP1 POP SWAP2 SWAP1 POP JUMP JUMPDEST PUSH2 0x7DD DUP2 PUSH2 0x7C9 JUMP JUMPDEST DUP2 EQ PUSH2 0x7E7 JUMPI PUSH0 DUP1 REVERT JUMPDEST POP JUMP JUMPDEST PUSH0 DUP2 MLOAD SWAP1 POP PUSH2 0x7F8 DUP2 PUSH2 0x7D4 JUMP JUMPDEST SWAP3 SWAP2 POP POP JUMP JUMPDEST PUSH0 PUSH1 0x20 DUP3 DUP5 SUB SLT ISZERO PUSH2 0x813 JUMPI PUSH2 0x812 PUSH2 0x40F JUMP JUMPDEST JUMPDEST PUSH0 PUSH2 0x820 DUP5 DUP3 DUP6 ADD PUSH2 0x7EA JUMP JUMPDEST SWAP2 POP POP SWAP3 SWAP2 POP POP JUMP JUMPDEST PUSH0 PUSH1 0x3 SWAP1 POP SWAP2 SWAP1 POP JUMP JUMPDEST PUSH0 DUP2 SWAP1 POP SWAP3 SWAP2 POP POP JUMP JUMPDEST PUSH0 DUP2 SWAP1 POP SWAP2 SWAP1 POP JUMP JUMPDEST PUSH2 0x84F DUP2 PUSH2 0x4E7 JUMP JUMPDEST DUP3 MSTORE POP POP JUMP JUMPDEST PUSH0 PUSH2 0x860 DUP4 DUP4 PUSH2 0x846 JUMP JUMPDEST PUSH1 0x20 DUP4 ADD SWAP1 POP SWAP3 SWAP2 POP POP JUMP JUMPDEST PUSH0 PUSH1 0x20 DUP3 ADD SWAP1 POP SWAP2 SWAP1 POP JUMP JUMPDEST PUSH2 0x881 DUP2 PUSH2 0x829 JUMP JUMPDEST PUSH2 0x88B DUP2 DUP5 PUSH2 0x833 JUMP JUMPDEST SWAP3 POP PUSH2 0x896 DUP3 PUSH2 0x83D JUMP JUMPDEST DUP1 PUSH0 JUMPDEST DUP4 DUP2 LT ISZERO PUSH2 0x8C6 JUMPI DUP2 MLOAD PUSH2 0x8AD DUP8 DUP3 PUSH2 0x855 JUMP JUMPDEST SWAP7 POP PUSH2 0x8B8 DUP4 PUSH2 0x86C JUMP JUMPDEST SWAP3 POP POP PUSH1 0x1 DUP2 ADD SWAP1 POP PUSH2 0x899 JUMP JUMPDEST POP POP POP POP POP POP JUMP JUMPDEST PUSH0 PUSH1 0x3 SWAP1 POP SWAP2 SWAP1 POP JUMP JUMPDEST PUSH0 DUP2 SWAP1 POP SWAP3 SWAP2 POP POP JUMP JUMPDEST PUSH0 DUP2 SWAP1 POP SWAP2 SWAP1 POP JUMP JUMPDEST PUSH2 0x8F4 DUP2 PUSH2 0x5FE JUMP JUMPDEST DUP3 MSTORE POP POP JUMP JUMPDEST PUSH0 PUSH2 0x905 DUP4 DUP4 PUSH2 0x8EB JUMP JUMPDEST PUSH1 0x20 DUP4 ADD SWAP1 POP SWAP3 SWAP2 POP POP JUMP JUMPDEST PUSH0 PUSH1 0x20 DUP3 ADD SWAP1 POP SWAP2 SWAP1 POP JUMP JUMPDEST PUSH2 0x926 DUP2 PUSH2 0x8CE JUMP JUMPDEST PUSH2 0x930 DUP2 DUP5 PUSH2 0x8D8 JUMP JUMPDEST SWAP3 POP PUSH2 0x93B DUP3 PUSH2 0x8E2 JUMP JUMPDEST DUP1 PUSH0 JUMPDEST DUP4 DUP2 LT ISZERO PUSH2 0x96B JUMPI DUP2 MLOAD PUSH2 0x952 DUP8 DUP3 PUSH2 0x8FA JUMP JUMPDEST SWAP7 POP PUSH2 0x95D DUP4 PUSH2 0x911 JUMP JUMPDEST SWAP3 POP POP PUSH1 0x1 DUP2 ADD SWAP1 POP PUSH2 0x93E JUMP JUMPDEST POP POP POP POP POP POP JUMP JUMPDEST PUSH0 PUSH1 0xC0 DUP3 ADD SWAP1 POP PUSH2 0x986 PUSH0 DUP4 ADD DUP6 PUSH2 0x878 JUMP JUMPDEST PUSH2 0x993 PUSH1 0x60 DUP4 ADD DUP5 PUSH2 0x91D JUMP JUMPDEST SWAP4 SWAP3 POP POP POP JUMP JUMPDEST PUSH0 PUSH1 0x60 DUP3 ADD SWAP1 POP PUSH2 0x9AD PUSH0 DUP4 ADD DUP7 PUSH2 0x5D6 JUMP JUMPDEST PUSH2 0x9BA PUSH1 0x20 DUP4 ADD DUP6 PUSH2 0x5D6 JUMP JUMPDEST PUSH2 0x9C7 PUSH1 0x40 DUP4 ADD DUP5 PUSH2 0x793 JUMP JUMPDEST SWAP5 SWAP4 POP POP POP POP JUMP INVALID LOG2 PUSH5 0x6970667358 0x22 SLT KECCAK256 0xD4 SWAP9 DUP9 0xCC 0xD8 0xBF MCOPY SWAP6 SSTORE 0x4D JUMP SELFBALANCE SWAP2 RETURNDATASIZE SWAP9 PUSH5 0xC612A24B42 PUSH5 0x4A8F604D11 0xB5 0xDE 0xD6 XOR CODESIZE PUSH5 0x736F6C6343 STOP ADDMOD BYTE STOP CALLER "
		},
		"gasEstimates": {
			"creation": {
				"codeDepositCost": "513000",
				"executionCost": "infinite",
				"totalCost": "infinite"
			},
			"external": {
				"admin()": "infinite",
				"sndRewards(address[3])": "infinite",
				"transferFunctionUsdc(uint256)": "infinite",
				"usdcMockToken()": "infinite"
			}
		},
		"methodIdentifiers": {
			"admin()": "f851a440",
			"sndRewards(address[3])": "1192549f",
			"transferFunctionUsdc(uint256)": "d3e62601",
			"usdcMockToken()": "35e40a44"
		}
	},
	"abi": [
		{
			"inputs": [
				{
					"internalType": "address",
					"name": "_usdcMockToken",
					"type": "address"
				},
				{
					"internalType": "address",
					"name": "_admin",
					"type": "address"
				}
			],
			"stateMutability": "nonpayable",
			"type": "constructor"
		},
		{
			"inputs": [],
			"name": "InsufficientContractBalance",
			"type": "error"
		},
		{
			"anonymous": false,
			"inputs": [
				{
					"indexed": false,
					"internalType": "address[3]",
					"name": "winners",
					"type": "address[3]"
				},
				{
					"indexed": false,
					"internalType": "uint256[3]",
					"name": "rewards",
					"type": "uint256[3]"
				}
			],
			"name": "RewardsDistributed",
			"type": "event"
		},
		{
			"inputs": [],
			"name": "admin",
			"outputs": [
				{
					"internalType": "address",
					"name": "",
					"type": "address"
				}
			],
			"stateMutability": "view",
			"type": "function"
		},
		{
			"inputs": [
				{
					"internalType": "address[3]",
					"name": "_users",
					"type": "address[3]"
				}
			],
			"name": "sndRewards",
			"outputs": [],
			"stateMutability": "nonpayable",
			"type": "function"
		},
		{
			"inputs": [
				{
					"internalType": "uint256",
					"name": "_amount",
					"type": "uint256"
				}
			],
			"name": "transferFunctionUsdc",
			"outputs": [],
			"stateMutability": "nonpayable",
			"type": "function"
		},
		{
			"inputs": [],
			"name": "usdcMockToken",
			"outputs": [
				{
					"internalType": "address",
					"name": "",
					"type": "address"
				}
			],
			"stateMutability": "view",
			"type": "function"
		}
	]
}