{
	"contracts/base/jik.sol": {
		"createMessageMore": {
			"abi": [
				{
					"inputs": [
						{
							"internalType": "string",
							"name": "_name",
							"type": "string"
						}
					],
					"name": "creator",
					"outputs": [
						{
							"internalType": "address",
							"name": "",
							"type": "address"
						}
					],
					"stateMutability": "nonpayable",
					"type": "function"
				}
			],
			"devdoc": {
				"kind": "dev",
				"methods": {},
				"version": 1
			},
			"evm": {
				"assembly": "    /* \"contracts/base/jik.sol\":399:633  contract createMessageMore{... */\n  mstore(0x40, 0x80)\n    /* \"contracts/base/jik.sol\":468:478  msg.sender */\n  caller\n    /* \"contracts/base/jik.sol\":451:478  address _owner_= msg.sender */\n  0x01\n  exp(0x0100, 0x00)\n  dup2\n  sload\n  dup2\n  0xffffffffffffffffffffffffffffffffffffffff\n  mul\n  not\n  and\n  swap1\n  dup4\n  0xffffffffffffffffffffffffffffffffffffffff\n  and\n  mul\n  or\n  swap1\n  sstore\n  pop\n    /* \"contracts/base/jik.sol\":399:633  contract createMessageMore{... */\n  callvalue\n  dup1\n  iszero\n  tag_1\n  jumpi\n  0x00\n  dup1\n  revert\ntag_1:\n  pop\n  dataSize(sub_0)\n  dup1\n  dataOffset(sub_0)\n  0x00\n  codecopy\n  0x00\n  return\nstop\n\nsub_0: assembly {\n        /* \"contracts/base/jik.sol\":399:633  contract createMessageMore{... */\n      mstore(0x40, 0x80)\n      callvalue\n      dup1\n      iszero\n      tag_1\n      jumpi\n      0x00\n      dup1\n      revert\n    tag_1:\n      pop\n      jumpi(tag_2, lt(calldatasize, 0x04))\n      shr(0xe0, calldataload(0x00))\n      dup1\n      0xbf82a6ac\n      eq\n      tag_3\n      jumpi\n    tag_2:\n      0x00\n      dup1\n      revert\n        /* \"contracts/base/jik.sol\":484:631  function creator(string memory _name) external returns(address){... */\n    tag_3:\n      tag_4\n      0x04\n      dup1\n      calldatasize\n      sub\n      dup2\n      add\n      swap1\n      tag_5\n      swap2\n      swap1\n      tag_6\n      jump\t// in\n    tag_5:\n      tag_7\n      jump\t// in\n    tag_4:\n      mload(0x40)\n      tag_8\n      swap2\n      swap1\n      tag_9\n      jump\t// in\n    tag_8:\n      mload(0x40)\n      dup1\n      swap2\n      sub\n      swap1\n      return\n    tag_7:\n        /* \"contracts/base/jik.sol\":539:546  address */\n      0x00\n        /* \"contracts/base/jik.sol\":578:583  _name */\n      dup2\n        /* \"contracts/base/jik.sol\":585:592  _owner_ */\n      0x01\n      0x00\n      swap1\n      sload\n      swap1\n      0x0100\n      exp\n      swap1\n      div\n      0xffffffffffffffffffffffffffffffffffffffff\n      and\n        /* \"contracts/base/jik.sol\":565:593  new CreateMe(_name, _owner_) */\n      mload(0x40)\n      tag_11\n      swap1\n      tag_12\n      jump\t// in\n    tag_11:\n      tag_13\n      swap3\n      swap2\n      swap1\n      tag_14\n      jump\t// in\n    tag_13:\n      mload(0x40)\n      dup1\n      swap2\n      sub\n      swap1\n      0x00\n      create\n      dup1\n      iszero\n      dup1\n      iszero\n      tag_15\n      jumpi\n      returndatasize\n      0x00\n      dup1\n      returndatacopy\n      revert(0x00, returndatasize)\n    tag_15:\n      pop\n        /* \"contracts/base/jik.sol\":557:562  hello */\n      0x00\n      dup1\n        /* \"contracts/base/jik.sol\":557:593  hello = new CreateMe(_name, _owner_) */\n      0x0100\n      exp\n      dup2\n      sload\n      dup2\n      0xffffffffffffffffffffffffffffffffffffffff\n      mul\n      not\n      and\n      swap1\n      dup4\n      0xffffffffffffffffffffffffffffffffffffffff\n      and\n      mul\n      or\n      swap1\n      sstore\n      pop\n        /* \"contracts/base/jik.sol\":618:623  hello */\n      0x00\n      dup1\n      sload\n      swap1\n      0x0100\n      exp\n      swap1\n      div\n      0xffffffffffffffffffffffffffffffffffffffff\n      and\n        /* \"contracts/base/jik.sol\":603:624  return address(hello) */\n      swap1\n      pop\n        /* \"contracts/base/jik.sol\":484:631  function creator(string memory _name) external returns(address){... */\n      swap2\n      swap1\n      pop\n      jump\t// out\n    tag_12:\n      dataSize(sub_0)\n      dup1\n      dataOffset(sub_0)\n      dup4\n      codecopy\n      add\n      swap1\n      jump\t// out\n        /* \"#utility.yul\":7:82   */\n    tag_16:\n        /* \"#utility.yul\":40:46   */\n      0x00\n        /* \"#utility.yul\":73:75   */\n      0x40\n        /* \"#utility.yul\":67:76   */\n      mload\n        /* \"#utility.yul\":57:76   */\n      swap1\n      pop\n        /* \"#utility.yul\":7:82   */\n      swap1\n      jump\t// out\n        /* \"#utility.yul\":88:205   */\n    tag_17:\n        /* \"#utility.yul\":197:198   */\n      0x00\n        /* \"#utility.yul\":194:195   */\n      dup1\n        /* \"#utility.yul\":187:199   */\n      revert\n        /* \"#utility.yul\":211:328   */\n    tag_18:\n        /* \"#utility.yul\":320:321   */\n      0x00\n        /* \"#utility.yul\":317:318   */\n      dup1\n        /* \"#utility.yul\":310:322   */\n      revert\n        /* \"#utility.yul\":334:451   */\n    tag_19:\n        /* \"#utility.yul\":443:444   */\n      0x00\n        /* \"#utility.yul\":440:441   */\n      dup1\n        /* \"#utility.yul\":433:445   */\n      revert\n        /* \"#utility.yul\":457:574   */\n    tag_20:\n        /* \"#utility.yul\":566:567   */\n      0x00\n        /* \"#utility.yul\":563:564   */\n      dup1\n        /* \"#utility.yul\":556:568   */\n      revert\n        /* \"#utility.yul\":580:682   */\n    tag_21:\n        /* \"#utility.yul\":621:627   */\n      0x00\n        /* \"#utility.yul\":672:674   */\n      0x1f\n        /* \"#utility.yul\":668:675   */\n      not\n        /* \"#utility.yul\":663:665   */\n      0x1f\n        /* \"#utility.yul\":656:661   */\n      dup4\n        /* \"#utility.yul\":652:666   */\n      add\n        /* \"#utility.yul\":648:676   */\n      and\n        /* \"#utility.yul\":638:676   */\n      swap1\n      pop\n        /* \"#utility.yul\":580:682   */\n      swap2\n      swap1\n      pop\n      jump\t// out\n        /* \"#utility.yul\":688:868   */\n    tag_22:\n        /* \"#utility.yul\":736:813   */\n      0x4e487b7100000000000000000000000000000000000000000000000000000000\n        /* \"#utility.yul\":733:734   */\n      0x00\n        /* \"#utility.yul\":726:814   */\n      mstore\n        /* \"#utility.yul\":833:837   */\n      0x41\n        /* \"#utility.yul\":830:831   */\n      0x04\n        /* \"#utility.yul\":823:838   */\n      mstore\n        /* \"#utility.yul\":857:861   */\n      0x24\n        /* \"#utility.yul\":854:855   */\n      0x00\n        /* \"#utility.yul\":847:862   */\n      revert\n        /* \"#utility.yul\":874:1155   */\n    tag_23:\n        /* \"#utility.yul\":957:984   */\n      tag_45\n        /* \"#utility.yul\":979:983   */\n      dup3\n        /* \"#utility.yul\":957:984   */\n      tag_21\n      jump\t// in\n    tag_45:\n        /* \"#utility.yul\":949:955   */\n      dup2\n        /* \"#utility.yul\":945:985   */\n      add\n        /* \"#utility.yul\":1087:1093   */\n      dup2\n        /* \"#utility.yul\":1075:1085   */\n      dup2\n        /* \"#utility.yul\":1072:1094   */\n      lt\n        /* \"#utility.yul\":1051:1069   */\n      0xffffffffffffffff\n        /* \"#utility.yul\":1039:1049   */\n      dup3\n        /* \"#utility.yul\":1036:1070   */\n      gt\n        /* \"#utility.yul\":1033:1095   */\n      or\n        /* \"#utility.yul\":1030:1118   */\n      iszero\n      tag_46\n      jumpi\n        /* \"#utility.yul\":1098:1116   */\n      tag_47\n      tag_22\n      jump\t// in\n    tag_47:\n        /* \"#utility.yul\":1030:1118   */\n    tag_46:\n        /* \"#utility.yul\":1138:1148   */\n      dup1\n        /* \"#utility.yul\":1134:1136   */\n      0x40\n        /* \"#utility.yul\":1127:1149   */\n      mstore\n        /* \"#utility.yul\":917:1155   */\n      pop\n        /* \"#utility.yul\":874:1155   */\n      pop\n      pop\n      jump\t// out\n        /* \"#utility.yul\":1161:1290   */\n    tag_24:\n        /* \"#utility.yul\":1195:1201   */\n      0x00\n        /* \"#utility.yul\":1222:1242   */\n      tag_49\n      tag_16\n      jump\t// in\n    tag_49:\n        /* \"#utility.yul\":1212:1242   */\n      swap1\n      pop\n        /* \"#utility.yul\":1251:1284   */\n      tag_50\n        /* \"#utility.yul\":1279:1283   */\n      dup3\n        /* \"#utility.yul\":1271:1277   */\n      dup3\n        /* \"#utility.yul\":1251:1284   */\n      tag_23\n      jump\t// in\n    tag_50:\n        /* \"#utility.yul\":1161:1290   */\n      swap2\n      swap1\n      pop\n      jump\t// out\n        /* \"#utility.yul\":1296:1604   */\n    tag_25:\n        /* \"#utility.yul\":1358:1362   */\n      0x00\n        /* \"#utility.yul\":1448:1466   */\n      0xffffffffffffffff\n        /* \"#utility.yul\":1440:1446   */\n      dup3\n        /* \"#utility.yul\":1437:1467   */\n      gt\n        /* \"#utility.yul\":1434:1490   */\n      iszero\n      tag_52\n      jumpi\n        /* \"#utility.yul\":1470:1488   */\n      tag_53\n      tag_22\n      jump\t// in\n    tag_53:\n        /* \"#utility.yul\":1434:1490   */\n    tag_52:\n        /* \"#utility.yul\":1508:1537   */\n      tag_54\n        /* \"#utility.yul\":1530:1536   */\n      dup3\n        /* \"#utility.yul\":1508:1537   */\n      tag_21\n      jump\t// in\n    tag_54:\n        /* \"#utility.yul\":1500:1537   */\n      swap1\n      pop\n        /* \"#utility.yul\":1592:1596   */\n      0x20\n        /* \"#utility.yul\":1586:1590   */\n      dup2\n        /* \"#utility.yul\":1582:1597   */\n      add\n        /* \"#utility.yul\":1574:1597   */\n      swap1\n      pop\n        /* \"#utility.yul\":1296:1604   */\n      swap2\n      swap1\n      pop\n      jump\t// out\n        /* \"#utility.yul\":1610:1758   */\n    tag_26:\n        /* \"#utility.yul\":1708:1714   */\n      dup3\n        /* \"#utility.yul\":1703:1706   */\n      dup2\n        /* \"#utility.yul\":1698:1701   */\n      dup4\n        /* \"#utility.yul\":1685:1715   */\n      calldatacopy\n        /* \"#utility.yul\":1749:1750   */\n      0x00\n        /* \"#utility.yul\":1740:1746   */\n      dup4\n        /* \"#utility.yul\":1735:1738   */\n      dup4\n        /* \"#utility.yul\":1731:1747   */\n      add\n        /* \"#utility.yul\":1724:1751   */\n      mstore\n        /* \"#utility.yul\":1610:1758   */\n      pop\n      pop\n      pop\n      jump\t// out\n        /* \"#utility.yul\":1764:2189   */\n    tag_27:\n        /* \"#utility.yul\":1842:1847   */\n      0x00\n        /* \"#utility.yul\":1867:1933   */\n      tag_57\n        /* \"#utility.yul\":1883:1932   */\n      tag_58\n        /* \"#utility.yul\":1925:1931   */\n      dup5\n        /* \"#utility.yul\":1883:1932   */\n      tag_25\n      jump\t// in\n    tag_58:\n        /* \"#utility.yul\":1867:1933   */\n      tag_24\n      jump\t// in\n    tag_57:\n        /* \"#utility.yul\":1858:1933   */\n      swap1\n      pop\n        /* \"#utility.yul\":1956:1962   */\n      dup3\n        /* \"#utility.yul\":1949:1954   */\n      dup2\n        /* \"#utility.yul\":1942:1963   */\n      mstore\n        /* \"#utility.yul\":1994:1998   */\n      0x20\n        /* \"#utility.yul\":1987:1992   */\n      dup2\n        /* \"#utility.yul\":1983:1999   */\n      add\n        /* \"#utility.yul\":2032:2035   */\n      dup5\n        /* \"#utility.yul\":2023:2029   */\n      dup5\n        /* \"#utility.yul\":2018:2021   */\n      dup5\n        /* \"#utility.yul\":2014:2030   */\n      add\n        /* \"#utility.yul\":2011:2036   */\n      gt\n        /* \"#utility.yul\":2008:2120   */\n      iszero\n      tag_59\n      jumpi\n        /* \"#utility.yul\":2039:2118   */\n      tag_60\n      tag_20\n      jump\t// in\n    tag_60:\n        /* \"#utility.yul\":2008:2120   */\n    tag_59:\n        /* \"#utility.yul\":2129:2183   */\n      tag_61\n        /* \"#utility.yul\":2176:2182   */\n      dup5\n        /* \"#utility.yul\":2171:2174   */\n      dup3\n        /* \"#utility.yul\":2166:2169   */\n      dup6\n        /* \"#utility.yul\":2129:2183   */\n      tag_26\n      jump\t// in\n    tag_61:\n        /* \"#utility.yul\":1848:2189   */\n      pop\n        /* \"#utility.yul\":1764:2189   */\n      swap4\n      swap3\n      pop\n      pop\n      pop\n      jump\t// out\n        /* \"#utility.yul\":2209:2549   */\n    tag_28:\n        /* \"#utility.yul\":2265:2270   */\n      0x00\n        /* \"#utility.yul\":2314:2317   */\n      dup3\n        /* \"#utility.yul\":2307:2311   */\n      0x1f\n        /* \"#utility.yul\":2299:2305   */\n      dup4\n        /* \"#utility.yul\":2295:2312   */\n      add\n        /* \"#utility.yul\":2291:2318   */\n      slt\n        /* \"#utility.yul\":2281:2403   */\n      tag_63\n      jumpi\n        /* \"#utility.yul\":2322:2401   */\n      tag_64\n      tag_19\n      jump\t// in\n    tag_64:\n        /* \"#utility.yul\":2281:2403   */\n    tag_63:\n        /* \"#utility.yul\":2439:2445   */\n      dup2\n        /* \"#utility.yul\":2426:2446   */\n      calldataload\n        /* \"#utility.yul\":2464:2543   */\n      tag_65\n        /* \"#utility.yul\":2539:2542   */\n      dup5\n        /* \"#utility.yul\":2531:2537   */\n      dup3\n        /* \"#utility.yul\":2524:2528   */\n      0x20\n        /* \"#utility.yul\":2516:2522   */\n      dup7\n        /* \"#utility.yul\":2512:2529   */\n      add\n        /* \"#utility.yul\":2464:2543   */\n      tag_27\n      jump\t// in\n    tag_65:\n        /* \"#utility.yul\":2455:2543   */\n      swap2\n      pop\n        /* \"#utility.yul\":2271:2549   */\n      pop\n        /* \"#utility.yul\":2209:2549   */\n      swap3\n      swap2\n      pop\n      pop\n      jump\t// out\n        /* \"#utility.yul\":2555:3064   */\n    tag_6:\n        /* \"#utility.yul\":2624:2630   */\n      0x00\n        /* \"#utility.yul\":2673:2675   */\n      0x20\n        /* \"#utility.yul\":2661:2670   */\n      dup3\n        /* \"#utility.yul\":2652:2659   */\n      dup5\n        /* \"#utility.yul\":2648:2671   */\n      sub\n        /* \"#utility.yul\":2644:2676   */\n      slt\n        /* \"#utility.yul\":2641:2760   */\n      iszero\n      tag_67\n      jumpi\n        /* \"#utility.yul\":2679:2758   */\n      tag_68\n      tag_17\n      jump\t// in\n    tag_68:\n        /* \"#utility.yul\":2641:2760   */\n    tag_67:\n        /* \"#utility.yul\":2827:2828   */\n      0x00\n        /* \"#utility.yul\":2816:2825   */\n      dup3\n        /* \"#utility.yul\":2812:2829   */\n      add\n        /* \"#utility.yul\":2799:2830   */\n      calldataload\n        /* \"#utility.yul\":2857:2875   */\n      0xffffffffffffffff\n        /* \"#utility.yul\":2849:2855   */\n      dup2\n        /* \"#utility.yul\":2846:2876   */\n      gt\n        /* \"#utility.yul\":2843:2960   */\n      iszero\n      tag_69\n      jumpi\n        /* \"#utility.yul\":2879:2958   */\n      tag_70\n      tag_18\n      jump\t// in\n    tag_70:\n        /* \"#utility.yul\":2843:2960   */\n    tag_69:\n        /* \"#utility.yul\":2984:3047   */\n      tag_71\n        /* \"#utility.yul\":3039:3046   */\n      dup5\n        /* \"#utility.yul\":3030:3036   */\n      dup3\n        /* \"#utility.yul\":3019:3028   */\n      dup6\n        /* \"#utility.yul\":3015:3037   */\n      add\n        /* \"#utility.yul\":2984:3047   */\n      tag_28\n      jump\t// in\n    tag_71:\n        /* \"#utility.yul\":2974:3047   */\n      swap2\n      pop\n        /* \"#utility.yul\":2770:3057   */\n      pop\n        /* \"#utility.yul\":2555:3064   */\n      swap3\n      swap2\n      pop\n      pop\n      jump\t// out\n        /* \"#utility.yul\":3070:3196   */\n    tag_29:\n        /* \"#utility.yul\":3107:3114   */\n      0x00\n        /* \"#utility.yul\":3147:3189   */\n      0xffffffffffffffffffffffffffffffffffffffff\n        /* \"#utility.yul\":3140:3145   */\n      dup3\n        /* \"#utility.yul\":3136:3190   */\n      and\n        /* \"#utility.yul\":3125:3190   */\n      swap1\n      pop\n        /* \"#utility.yul\":3070:3196   */\n      swap2\n      swap1\n      pop\n      jump\t// out\n        /* \"#utility.yul\":3202:3298   */\n    tag_30:\n        /* \"#utility.yul\":3239:3246   */\n      0x00\n        /* \"#utility.yul\":3268:3292   */\n      tag_74\n        /* \"#utility.yul\":3286:3291   */\n      dup3\n        /* \"#utility.yul\":3268:3292   */\n      tag_29\n      jump\t// in\n    tag_74:\n        /* \"#utility.yul\":3257:3292   */\n      swap1\n      pop\n        /* \"#utility.yul\":3202:3298   */\n      swap2\n      swap1\n      pop\n      jump\t// out\n        /* \"#utility.yul\":3304:3422   */\n    tag_31:\n        /* \"#utility.yul\":3391:3415   */\n      tag_76\n        /* \"#utility.yul\":3409:3414   */\n      dup2\n        /* \"#utility.yul\":3391:3415   */\n      tag_30\n      jump\t// in\n    tag_76:\n        /* \"#utility.yul\":3386:3389   */\n      dup3\n        /* \"#utility.yul\":3379:3416   */\n      mstore\n        /* \"#utility.yul\":3304:3422   */\n      pop\n      pop\n      jump\t// out\n        /* \"#utility.yul\":3428:3650   */\n    tag_9:\n        /* \"#utility.yul\":3521:3525   */\n      0x00\n        /* \"#utility.yul\":3559:3561   */\n      0x20\n        /* \"#utility.yul\":3548:3557   */\n      dup3\n        /* \"#utility.yul\":3544:3562   */\n      add\n        /* \"#utility.yul\":3536:3562   */\n      swap1\n      pop\n        /* \"#utility.yul\":3572:3643   */\n      tag_78\n        /* \"#utility.yul\":3640:3641   */\n      0x00\n        /* \"#utility.yul\":3629:3638   */\n      dup4\n        /* \"#utility.yul\":3625:3642   */\n      add\n        /* \"#utility.yul\":3616:3622   */\n      dup5\n        /* \"#utility.yul\":3572:3643   */\n      tag_31\n      jump\t// in\n    tag_78:\n        /* \"#utility.yul\":3428:3650   */\n      swap3\n      swap2\n      pop\n      pop\n      jump\t// out\n        /* \"#utility.yul\":3656:3755   */\n    tag_32:\n        /* \"#utility.yul\":3708:3714   */\n      0x00\n        /* \"#utility.yul\":3742:3747   */\n      dup2\n        /* \"#utility.yul\":3736:3748   */\n      mload\n        /* \"#utility.yul\":3726:3748   */\n      swap1\n      pop\n        /* \"#utility.yul\":3656:3755   */\n      swap2\n      swap1\n      pop\n      jump\t// out\n        /* \"#utility.yul\":3761:3930   */\n    tag_33:\n        /* \"#utility.yul\":3845:3856   */\n      0x00\n        /* \"#utility.yul\":3879:3885   */\n      dup3\n        /* \"#utility.yul\":3874:3877   */\n      dup3\n        /* \"#utility.yul\":3867:3886   */\n      mstore\n        /* \"#utility.yul\":3919:3923   */\n      0x20\n        /* \"#utility.yul\":3914:3917   */\n      dup3\n        /* \"#utility.yul\":3910:3924   */\n      add\n        /* \"#utility.yul\":3895:3924   */\n      swap1\n      pop\n        /* \"#utility.yul\":3761:3930   */\n      swap3\n      swap2\n      pop\n      pop\n      jump\t// out\n        /* \"#utility.yul\":3936:4075   */\n    tag_34:\n        /* \"#utility.yul\":4025:4031   */\n      dup3\n        /* \"#utility.yul\":4020:4023   */\n      dup2\n        /* \"#utility.yul\":4015:4018   */\n      dup4\n        /* \"#utility.yul\":4009:4032   */\n      mcopy\n        /* \"#utility.yul\":4066:4067   */\n      0x00\n        /* \"#utility.yul\":4057:4063   */\n      dup4\n        /* \"#utility.yul\":4052:4055   */\n      dup4\n        /* \"#utility.yul\":4048:4064   */\n      add\n        /* \"#utility.yul\":4041:4068   */\n      mstore\n        /* \"#utility.yul\":3936:4075   */\n      pop\n      pop\n      pop\n      jump\t// out\n        /* \"#utility.yul\":4081:4458   */\n    tag_35:\n        /* \"#utility.yul\":4169:4172   */\n      0x00\n        /* \"#utility.yul\":4197:4236   */\n      tag_83\n        /* \"#utility.yul\":4230:4235   */\n      dup3\n        /* \"#utility.yul\":4197:4236   */\n      tag_32\n      jump\t// in\n    tag_83:\n        /* \"#utility.yul\":4252:4323   */\n      tag_84\n        /* \"#utility.yul\":4316:4322   */\n      dup2\n        /* \"#utility.yul\":4311:4314   */\n      dup6\n        /* \"#utility.yul\":4252:4323   */\n      tag_33\n      jump\t// in\n    tag_84:\n        /* \"#utility.yul\":4245:4323   */\n      swap4\n      pop\n        /* \"#utility.yul\":4332:4397   */\n      tag_85\n        /* \"#utility.yul\":4390:4396   */\n      dup2\n        /* \"#utility.yul\":4385:4388   */\n      dup6\n        /* \"#utility.yul\":4378:4382   */\n      0x20\n        /* \"#utility.yul\":4371:4376   */\n      dup7\n        /* \"#utility.yul\":4367:4383   */\n      add\n        /* \"#utility.yul\":4332:4397   */\n      tag_34\n      jump\t// in\n    tag_85:\n        /* \"#utility.yul\":4422:4451   */\n      tag_86\n        /* \"#utility.yul\":4444:4450   */\n      dup2\n        /* \"#utility.yul\":4422:4451   */\n      tag_21\n      jump\t// in\n    tag_86:\n        /* \"#utility.yul\":4417:4420   */\n      dup5\n        /* \"#utility.yul\":4413:4452   */\n      add\n        /* \"#utility.yul\":4406:4452   */\n      swap2\n      pop\n        /* \"#utility.yul\":4173:4458   */\n      pop\n        /* \"#utility.yul\":4081:4458   */\n      swap3\n      swap2\n      pop\n      pop\n      jump\t// out\n        /* \"#utility.yul\":4464:4887   */\n    tag_14:\n        /* \"#utility.yul\":4605:4609   */\n      0x00\n        /* \"#utility.yul\":4643:4645   */\n      0x40\n        /* \"#utility.yul\":4632:4641   */\n      dup3\n        /* \"#utility.yul\":4628:4646   */\n      add\n        /* \"#utility.yul\":4620:4646   */\n      swap1\n      pop\n        /* \"#utility.yul\":4692:4701   */\n      dup2\n        /* \"#utility.yul\":4686:4690   */\n      dup2\n        /* \"#utility.yul\":4682:4702   */\n      sub\n        /* \"#utility.yul\":4678:4679   */\n      0x00\n        /* \"#utility.yul\":4667:4676   */\n      dup4\n        /* \"#utility.yul\":4663:4680   */\n      add\n        /* \"#utility.yul\":4656:4703   */\n      mstore\n        /* \"#utility.yul\":4720:4798   */\n      tag_88\n        /* \"#utility.yul\":4793:4797   */\n      dup2\n        /* \"#utility.yul\":4784:4790   */\n      dup6\n        /* \"#utility.yul\":4720:4798   */\n      tag_35\n      jump\t// in\n    tag_88:\n        /* \"#utility.yul\":4712:4798   */\n      swap1\n      pop\n        /* \"#utility.yul\":4808:4880   */\n      tag_89\n        /* \"#utility.yul\":4876:4878   */\n      0x20\n        /* \"#utility.yul\":4865:4874   */\n      dup4\n        /* \"#utility.yul\":4861:4879   */\n      add\n        /* \"#utility.yul\":4852:4858   */\n      dup5\n        /* \"#utility.yul\":4808:4880   */\n      tag_31\n      jump\t// in\n    tag_89:\n        /* \"#utility.yul\":4464:4887   */\n      swap4\n      swap3\n      pop\n      pop\n      pop\n      jump\t// out\n    stop\n\n    sub_0: assembly {\n            /* \"contracts/base/jik.sol\":60:398  contract CreateMe{... */\n          mstore(0x40, 0x80)\n            /* \"contracts/base/jik.sol\":121:224  constructor(string memory _name, address _owner){... */\n          callvalue\n          dup1\n          iszero\n          tag_1\n          jumpi\n          0x00\n          dup1\n          revert\n        tag_1:\n          pop\n          mload(0x40)\n          sub(codesize, bytecodeSize)\n          dup1\n          bytecodeSize\n          dup4\n          codecopy\n          dup2\n          dup2\n          add\n          0x40\n          mstore\n          dup2\n          add\n          swap1\n          tag_2\n          swap2\n          swap1\n          tag_3\n          jump\t// in\n        tag_2:\n            /* \"contracts/base/jik.sol\":186:191  _name */\n          dup2\n            /* \"contracts/base/jik.sol\":179:183  name */\n          0x00\n            /* \"contracts/base/jik.sol\":179:191  name = _name */\n          swap1\n          dup2\n          tag_6\n          swap2\n          swap1\n          tag_7\n          jump\t// in\n        tag_6:\n          pop\n            /* \"contracts/base/jik.sol\":211:217  _owner */\n          dup1\n            /* \"contracts/base/jik.sol\":201:208  nmowner */\n          0x01\n          0x00\n            /* \"contracts/base/jik.sol\":201:217  nmowner = _owner */\n          0x0100\n          exp\n          dup2\n          sload\n          dup2\n          0xffffffffffffffffffffffffffffffffffffffff\n          mul\n          not\n          and\n          swap1\n          dup4\n          0xffffffffffffffffffffffffffffffffffffffff\n          and\n          mul\n          or\n          swap1\n          sstore\n          pop\n            /* \"contracts/base/jik.sol\":121:224  constructor(string memory _name, address _owner){... */\n          pop\n          pop\n            /* \"contracts/base/jik.sol\":60:398  contract CreateMe{... */\n          jump(tag_8)\n            /* \"#utility.yul\":7:82   */\n        tag_9:\n            /* \"#utility.yul\":40:46   */\n          0x00\n            /* \"#utility.yul\":73:75   */\n          0x40\n            /* \"#utility.yul\":67:76   */\n          mload\n            /* \"#utility.yul\":57:76   */\n          swap1\n          pop\n            /* \"#utility.yul\":7:82   */\n          swap1\n          jump\t// out\n            /* \"#utility.yul\":88:205   */\n        tag_10:\n            /* \"#utility.yul\":197:198   */\n          0x00\n            /* \"#utility.yul\":194:195   */\n          dup1\n            /* \"#utility.yul\":187:199   */\n          revert\n            /* \"#utility.yul\":211:328   */\n        tag_11:\n            /* \"#utility.yul\":320:321   */\n          0x00\n            /* \"#utility.yul\":317:318   */\n          dup1\n            /* \"#utility.yul\":310:322   */\n          revert\n            /* \"#utility.yul\":334:451   */\n        tag_12:\n            /* \"#utility.yul\":443:444   */\n          0x00\n            /* \"#utility.yul\":440:441   */\n          dup1\n            /* \"#utility.yul\":433:445   */\n          revert\n            /* \"#utility.yul\":457:574   */\n        tag_13:\n            /* \"#utility.yul\":566:567   */\n          0x00\n            /* \"#utility.yul\":563:564   */\n          dup1\n            /* \"#utility.yul\":556:568   */\n          revert\n            /* \"#utility.yul\":580:682   */\n        tag_14:\n            /* \"#utility.yul\":621:627   */\n          0x00\n            /* \"#utility.yul\":672:674   */\n          0x1f\n            /* \"#utility.yul\":668:675   */\n          not\n            /* \"#utility.yul\":663:665   */\n          0x1f\n            /* \"#utility.yul\":656:661   */\n          dup4\n            /* \"#utility.yul\":652:666   */\n          add\n            /* \"#utility.yul\":648:676   */\n          and\n            /* \"#utility.yul\":638:676   */\n          swap1\n          pop\n            /* \"#utility.yul\":580:682   */\n          swap2\n          swap1\n          pop\n          jump\t// out\n            /* \"#utility.yul\":688:868   */\n        tag_15:\n            /* \"#utility.yul\":736:813   */\n          0x4e487b7100000000000000000000000000000000000000000000000000000000\n            /* \"#utility.yul\":733:734   */\n          0x00\n            /* \"#utility.yul\":726:814   */\n          mstore\n            /* \"#utility.yul\":833:837   */\n          0x41\n            /* \"#utility.yul\":830:831   */\n          0x04\n            /* \"#utility.yul\":823:838   */\n          mstore\n            /* \"#utility.yul\":857:861   */\n          0x24\n            /* \"#utility.yul\":854:855   */\n          0x00\n            /* \"#utility.yul\":847:862   */\n          revert\n            /* \"#utility.yul\":874:1155   */\n        tag_16:\n            /* \"#utility.yul\":957:984   */\n          tag_54\n            /* \"#utility.yul\":979:983   */\n          dup3\n            /* \"#utility.yul\":957:984   */\n          tag_14\n          jump\t// in\n        tag_54:\n            /* \"#utility.yul\":949:955   */\n          dup2\n            /* \"#utility.yul\":945:985   */\n          add\n            /* \"#utility.yul\":1087:1093   */\n          dup2\n            /* \"#utility.yul\":1075:1085   */\n          dup2\n            /* \"#utility.yul\":1072:1094   */\n          lt\n            /* \"#utility.yul\":1051:1069   */\n          0xffffffffffffffff\n            /* \"#utility.yul\":1039:1049   */\n          dup3\n            /* \"#utility.yul\":1036:1070   */\n          gt\n            /* \"#utility.yul\":1033:1095   */\n          or\n            /* \"#utility.yul\":1030:1118   */\n          iszero\n          tag_55\n          jumpi\n            /* \"#utility.yul\":1098:1116   */\n          tag_56\n          tag_15\n          jump\t// in\n        tag_56:\n            /* \"#utility.yul\":1030:1118   */\n        tag_55:\n            /* \"#utility.yul\":1138:1148   */\n          dup1\n            /* \"#utility.yul\":1134:1136   */\n          0x40\n            /* \"#utility.yul\":1127:1149   */\n          mstore\n            /* \"#utility.yul\":917:1155   */\n          pop\n            /* \"#utility.yul\":874:1155   */\n          pop\n          pop\n          jump\t// out\n            /* \"#utility.yul\":1161:1290   */\n        tag_17:\n            /* \"#utility.yul\":1195:1201   */\n          0x00\n            /* \"#utility.yul\":1222:1242   */\n          tag_58\n          tag_9\n          jump\t// in\n        tag_58:\n            /* \"#utility.yul\":1212:1242   */\n          swap1\n          pop\n            /* \"#utility.yul\":1251:1284   */\n          tag_59\n            /* \"#utility.yul\":1279:1283   */\n          dup3\n            /* \"#utility.yul\":1271:1277   */\n          dup3\n            /* \"#utility.yul\":1251:1284   */\n          tag_16\n          jump\t// in\n        tag_59:\n            /* \"#utility.yul\":1161:1290   */\n          swap2\n          swap1\n          pop\n          jump\t// out\n            /* \"#utility.yul\":1296:1604   */\n        tag_18:\n            /* \"#utility.yul\":1358:1362   */\n          0x00\n            /* \"#utility.yul\":1448:1466   */\n          0xffffffffffffffff\n            /* \"#utility.yul\":1440:1446   */\n          dup3\n            /* \"#utility.yul\":1437:1467   */\n          gt\n            /* \"#utility.yul\":1434:1490   */\n          iszero\n          tag_61\n          jumpi\n            /* \"#utility.yul\":1470:1488   */\n          tag_62\n          tag_15\n          jump\t// in\n        tag_62:\n            /* \"#utility.yul\":1434:1490   */\n        tag_61:\n            /* \"#utility.yul\":1508:1537   */\n          tag_63\n            /* \"#utility.yul\":1530:1536   */\n          dup3\n            /* \"#utility.yul\":1508:1537   */\n          tag_14\n          jump\t// in\n        tag_63:\n            /* \"#utility.yul\":1500:1537   */\n          swap1\n          pop\n            /* \"#utility.yul\":1592:1596   */\n          0x20\n            /* \"#utility.yul\":1586:1590   */\n          dup2\n            /* \"#utility.yul\":1582:1597   */\n          add\n            /* \"#utility.yul\":1574:1597   */\n          swap1\n          pop\n            /* \"#utility.yul\":1296:1604   */\n          swap2\n          swap1\n          pop\n          jump\t// out\n            /* \"#utility.yul\":1610:1749   */\n        tag_19:\n            /* \"#utility.yul\":1699:1705   */\n          dup3\n            /* \"#utility.yul\":1694:1697   */\n          dup2\n            /* \"#utility.yul\":1689:1692   */\n          dup4\n            /* \"#utility.yul\":1683:1706   */\n          mcopy\n            /* \"#utility.yul\":1740:1741   */\n          0x00\n            /* \"#utility.yul\":1731:1737   */\n          dup4\n            /* \"#utility.yul\":1726:1729   */\n          dup4\n            /* \"#utility.yul\":1722:1738   */\n          add\n            /* \"#utility.yul\":1715:1742   */\n          mstore\n            /* \"#utility.yul\":1610:1749   */\n          pop\n          pop\n          pop\n          jump\t// out\n            /* \"#utility.yul\":1755:2189   */\n        tag_20:\n            /* \"#utility.yul\":1844:1849   */\n          0x00\n            /* \"#utility.yul\":1869:1935   */\n          tag_66\n            /* \"#utility.yul\":1885:1934   */\n          tag_67\n            /* \"#utility.yul\":1927:1933   */\n          dup5\n            /* \"#utility.yul\":1885:1934   */\n          tag_18\n          jump\t// in\n        tag_67:\n            /* \"#utility.yul\":1869:1935   */\n          tag_17\n          jump\t// in\n        tag_66:\n            /* \"#utility.yul\":1860:1935   */\n          swap1\n          pop\n            /* \"#utility.yul\":1958:1964   */\n          dup3\n            /* \"#utility.yul\":1951:1956   */\n          dup2\n            /* \"#utility.yul\":1944:1965   */\n          mstore\n            /* \"#utility.yul\":1996:2000   */\n          0x20\n            /* \"#utility.yul\":1989:1994   */\n          dup2\n            /* \"#utility.yul\":1985:2001   */\n          add\n            /* \"#utility.yul\":2034:2037   */\n          dup5\n            /* \"#utility.yul\":2025:2031   */\n          dup5\n            /* \"#utility.yul\":2020:2023   */\n          dup5\n            /* \"#utility.yul\":2016:2032   */\n          add\n            /* \"#utility.yul\":2013:2038   */\n          gt\n            /* \"#utility.yul\":2010:2122   */\n          iszero\n          tag_68\n          jumpi\n            /* \"#utility.yul\":2041:2120   */\n          tag_69\n          tag_13\n          jump\t// in\n        tag_69:\n            /* \"#utility.yul\":2010:2122   */\n        tag_68:\n            /* \"#utility.yul\":2131:2183   */\n          tag_70\n            /* \"#utility.yul\":2176:2182   */\n          dup5\n            /* \"#utility.yul\":2171:2174   */\n          dup3\n            /* \"#utility.yul\":2166:2169   */\n          dup6\n            /* \"#utility.yul\":2131:2183   */\n          tag_19\n          jump\t// in\n        tag_70:\n            /* \"#utility.yul\":1850:2189   */\n          pop\n            /* \"#utility.yul\":1755:2189   */\n          swap4\n          swap3\n          pop\n          pop\n          pop\n          jump\t// out\n            /* \"#utility.yul\":2209:2564   */\n        tag_21:\n            /* \"#utility.yul\":2276:2281   */\n          0x00\n            /* \"#utility.yul\":2325:2328   */\n          dup3\n            /* \"#utility.yul\":2318:2322   */\n          0x1f\n            /* \"#utility.yul\":2310:2316   */\n          dup4\n            /* \"#utility.yul\":2306:2323   */\n          add\n            /* \"#utility.yul\":2302:2329   */\n          slt\n            /* \"#utility.yul\":2292:2414   */\n          tag_72\n          jumpi\n            /* \"#utility.yul\":2333:2412   */\n          tag_73\n          tag_12\n          jump\t// in\n        tag_73:\n            /* \"#utility.yul\":2292:2414   */\n        tag_72:\n            /* \"#utility.yul\":2443:2449   */\n          dup2\n            /* \"#utility.yul\":2437:2450   */\n          mload\n            /* \"#utility.yul\":2468:2558   */\n          tag_74\n            /* \"#utility.yul\":2554:2557   */\n          dup5\n            /* \"#utility.yul\":2546:2552   */\n          dup3\n            /* \"#utility.yul\":2539:2543   */\n          0x20\n            /* \"#utility.yul\":2531:2537   */\n          dup7\n            /* \"#utility.yul\":2527:2544   */\n          add\n            /* \"#utility.yul\":2468:2558   */\n          tag_20\n          jump\t// in\n        tag_74:\n            /* \"#utility.yul\":2459:2558   */\n          swap2\n          pop\n            /* \"#utility.yul\":2282:2564   */\n          pop\n            /* \"#utility.yul\":2209:2564   */\n          swap3\n          swap2\n          pop\n          pop\n          jump\t// out\n            /* \"#utility.yul\":2570:2696   */\n        tag_22:\n            /* \"#utility.yul\":2607:2614   */\n          0x00\n            /* \"#utility.yul\":2647:2689   */\n          0xffffffffffffffffffffffffffffffffffffffff\n            /* \"#utility.yul\":2640:2645   */\n          dup3\n            /* \"#utility.yul\":2636:2690   */\n          and\n            /* \"#utility.yul\":2625:2690   */\n          swap1\n          pop\n            /* \"#utility.yul\":2570:2696   */\n          swap2\n          swap1\n          pop\n          jump\t// out\n            /* \"#utility.yul\":2702:2798   */\n        tag_23:\n            /* \"#utility.yul\":2739:2746   */\n          0x00\n            /* \"#utility.yul\":2768:2792   */\n          tag_77\n            /* \"#utility.yul\":2786:2791   */\n          dup3\n            /* \"#utility.yul\":2768:2792   */\n          tag_22\n          jump\t// in\n        tag_77:\n            /* \"#utility.yul\":2757:2792   */\n          swap1\n          pop\n            /* \"#utility.yul\":2702:2798   */\n          swap2\n          swap1\n          pop\n          jump\t// out\n            /* \"#utility.yul\":2804:2926   */\n        tag_24:\n            /* \"#utility.yul\":2877:2901   */\n          tag_79\n            /* \"#utility.yul\":2895:2900   */\n          dup2\n            /* \"#utility.yul\":2877:2901   */\n          tag_23\n          jump\t// in\n        tag_79:\n            /* \"#utility.yul\":2870:2875   */\n          dup2\n            /* \"#utility.yul\":2867:2902   */\n          eq\n            /* \"#utility.yul\":2857:2920   */\n          tag_80\n          jumpi\n            /* \"#utility.yul\":2916:2917   */\n          0x00\n            /* \"#utility.yul\":2913:2914   */\n          dup1\n            /* \"#utility.yul\":2906:2918   */\n          revert\n            /* \"#utility.yul\":2857:2920   */\n        tag_80:\n            /* \"#utility.yul\":2804:2926   */\n          pop\n          jump\t// out\n            /* \"#utility.yul\":2932:3075   */\n        tag_25:\n            /* \"#utility.yul\":2989:2994   */\n          0x00\n            /* \"#utility.yul\":3020:3026   */\n          dup2\n            /* \"#utility.yul\":3014:3027   */\n          mload\n            /* \"#utility.yul\":3005:3027   */\n          swap1\n          pop\n            /* \"#utility.yul\":3036:3069   */\n          tag_82\n            /* \"#utility.yul\":3063:3068   */\n          dup2\n            /* \"#utility.yul\":3036:3069   */\n          tag_24\n          jump\t// in\n        tag_82:\n            /* \"#utility.yul\":2932:3075   */\n          swap3\n          swap2\n          pop\n          pop\n          jump\t// out\n            /* \"#utility.yul\":3081:3761   */\n        tag_3:\n            /* \"#utility.yul\":3170:3176   */\n          0x00\n            /* \"#utility.yul\":3178:3184   */\n          dup1\n            /* \"#utility.yul\":3227:3229   */\n          0x40\n            /* \"#utility.yul\":3215:3224   */\n          dup4\n            /* \"#utility.yul\":3206:3213   */\n          dup6\n            /* \"#utility.yul\":3202:3225   */\n          sub\n            /* \"#utility.yul\":3198:3230   */\n          slt\n            /* \"#utility.yul\":3195:3314   */\n          iszero\n          tag_84\n          jumpi\n            /* \"#utility.yul\":3233:3312   */\n          tag_85\n          tag_10\n          jump\t// in\n        tag_85:\n            /* \"#utility.yul\":3195:3314   */\n        tag_84:\n            /* \"#utility.yul\":3374:3375   */\n          0x00\n            /* \"#utility.yul\":3363:3372   */\n          dup4\n            /* \"#utility.yul\":3359:3376   */\n          add\n            /* \"#utility.yul\":3353:3377   */\n          mload\n            /* \"#utility.yul\":3404:3422   */\n          0xffffffffffffffff\n            /* \"#utility.yul\":3396:3402   */\n          dup2\n            /* \"#utility.yul\":3393:3423   */\n          gt\n            /* \"#utility.yul\":3390:3507   */\n          iszero\n          tag_86\n          jumpi\n            /* \"#utility.yul\":3426:3505   */\n          tag_87\n          tag_11\n          jump\t// in\n        tag_87:\n            /* \"#utility.yul\":3390:3507   */\n        tag_86:\n            /* \"#utility.yul\":3531:3605   */\n          tag_88\n            /* \"#utility.yul\":3597:3604   */\n          dup6\n            /* \"#utility.yul\":3588:3594   */\n          dup3\n            /* \"#utility.yul\":3577:3586   */\n          dup7\n            /* \"#utility.yul\":3573:3595   */\n          add\n            /* \"#utility.yul\":3531:3605   */\n          tag_21\n          jump\t// in\n        tag_88:\n            /* \"#utility.yul\":3521:3605   */\n          swap3\n          pop\n            /* \"#utility.yul\":3324:3615   */\n          pop\n            /* \"#utility.yul\":3654:3656   */\n          0x20\n            /* \"#utility.yul\":3680:3744   */\n          tag_89\n            /* \"#utility.yul\":3736:3743   */\n          dup6\n            /* \"#utility.yul\":3727:3733   */\n          dup3\n            /* \"#utility.yul\":3716:3725   */\n          dup7\n            /* \"#utility.yul\":3712:3734   */\n          add\n            /* \"#utility.yul\":3680:3744   */\n          tag_25\n          jump\t// in\n        tag_89:\n            /* \"#utility.yul\":3670:3744   */\n          swap2\n          pop\n            /* \"#utility.yul\":3625:3754   */\n          pop\n            /* \"#utility.yul\":3081:3761   */\n          swap3\n          pop\n          swap3\n          swap1\n          pop\n          jump\t// out\n            /* \"#utility.yul\":3767:3866   */\n        tag_26:\n            /* \"#utility.yul\":3819:3825   */\n          0x00\n            /* \"#utility.yul\":3853:3858   */\n          dup2\n            /* \"#utility.yul\":3847:3859   */\n          mload\n            /* \"#utility.yul\":3837:3859   */\n          swap1\n          pop\n            /* \"#utility.yul\":3767:3866   */\n          swap2\n          swap1\n          pop\n          jump\t// out\n            /* \"#utility.yul\":3872:4052   */\n        tag_27:\n            /* \"#utility.yul\":3920:3997   */\n          0x4e487b7100000000000000000000000000000000000000000000000000000000\n            /* \"#utility.yul\":3917:3918   */\n          0x00\n            /* \"#utility.yul\":3910:3998   */\n          mstore\n            /* \"#utility.yul\":4017:4021   */\n          0x22\n            /* \"#utility.yul\":4014:4015   */\n          0x04\n            /* \"#utility.yul\":4007:4022   */\n          mstore\n            /* \"#utility.yul\":4041:4045   */\n          0x24\n            /* \"#utility.yul\":4038:4039   */\n          0x00\n            /* \"#utility.yul\":4031:4046   */\n          revert\n            /* \"#utility.yul\":4058:4378   */\n        tag_28:\n            /* \"#utility.yul\":4102:4108   */\n          0x00\n            /* \"#utility.yul\":4139:4140   */\n          0x02\n            /* \"#utility.yul\":4133:4137   */\n          dup3\n            /* \"#utility.yul\":4129:4141   */\n          div\n            /* \"#utility.yul\":4119:4141   */\n          swap1\n          pop\n            /* \"#utility.yul\":4186:4187   */\n          0x01\n            /* \"#utility.yul\":4180:4184   */\n          dup3\n            /* \"#utility.yul\":4176:4188   */\n          and\n            /* \"#utility.yul\":4207:4225   */\n          dup1\n            /* \"#utility.yul\":4197:4278   */\n          tag_93\n          jumpi\n            /* \"#utility.yul\":4263:4267   */\n          0x7f\n            /* \"#utility.yul\":4255:4261   */\n          dup3\n            /* \"#utility.yul\":4251:4268   */\n          and\n            /* \"#utility.yul\":4241:4268   */\n          swap2\n          pop\n            /* \"#utility.yul\":4197:4278   */\n        tag_93:\n            /* \"#utility.yul\":4325:4327   */\n          0x20\n            /* \"#utility.yul\":4317:4323   */\n          dup3\n            /* \"#utility.yul\":4314:4328   */\n          lt\n            /* \"#utility.yul\":4294:4312   */\n          dup2\n            /* \"#utility.yul\":4291:4329   */\n          sub\n            /* \"#utility.yul\":4288:4372   */\n          tag_94\n          jumpi\n            /* \"#utility.yul\":4344:4362   */\n          tag_95\n          tag_27\n          jump\t// in\n        tag_95:\n            /* \"#utility.yul\":4288:4372   */\n        tag_94:\n            /* \"#utility.yul\":4109:4378   */\n          pop\n            /* \"#utility.yul\":4058:4378   */\n          swap2\n          swap1\n          pop\n          jump\t// out\n            /* \"#utility.yul\":4384:4525   */\n        tag_29:\n            /* \"#utility.yul\":4433:4437   */\n          0x00\n            /* \"#utility.yul\":4456:4459   */\n          dup2\n            /* \"#utility.yul\":4448:4459   */\n          swap1\n          pop\n            /* \"#utility.yul\":4479:4482   */\n          dup2\n            /* \"#utility.yul\":4476:4477   */\n          0x00\n            /* \"#utility.yul\":4469:4483   */\n          mstore\n            /* \"#utility.yul\":4513:4517   */\n          0x20\n            /* \"#utility.yul\":4510:4511   */\n          0x00\n            /* \"#utility.yul\":4500:4518   */\n          keccak256\n            /* \"#utility.yul\":4492:4518   */\n          swap1\n          pop\n            /* \"#utility.yul\":4384:4525   */\n          swap2\n          swap1\n          pop\n          jump\t// out\n            /* \"#utility.yul\":4531:4624   */\n        tag_30:\n            /* \"#utility.yul\":4568:4574   */\n          0x00\n            /* \"#utility.yul\":4615:4617   */\n          0x20\n            /* \"#utility.yul\":4610:4612   */\n          0x1f\n            /* \"#utility.yul\":4603:4608   */\n          dup4\n            /* \"#utility.yul\":4599:4613   */\n          add\n            /* \"#utility.yul\":4595:4618   */\n          div\n            /* \"#utility.yul\":4585:4618   */\n          swap1\n          pop\n            /* \"#utility.yul\":4531:4624   */\n          swap2\n          swap1\n          pop\n          jump\t// out\n            /* \"#utility.yul\":4630:4737   */\n        tag_31:\n            /* \"#utility.yul\":4674:4682   */\n          0x00\n            /* \"#utility.yul\":4724:4729   */\n          dup3\n            /* \"#utility.yul\":4718:4722   */\n          dup3\n            /* \"#utility.yul\":4714:4730   */\n          shl\n            /* \"#utility.yul\":4693:4730   */\n          swap1\n          pop\n            /* \"#utility.yul\":4630:4737   */\n          swap3\n          swap2\n          pop\n          pop\n          jump\t// out\n            /* \"#utility.yul\":4743:5136   */\n        tag_32:\n            /* \"#utility.yul\":4812:4818   */\n          0x00\n            /* \"#utility.yul\":4862:4863   */\n          0x08\n            /* \"#utility.yul\":4850:4860   */\n          dup4\n            /* \"#utility.yul\":4846:4864   */\n          mul\n            /* \"#utility.yul\":4885:4982   */\n          tag_100\n            /* \"#utility.yul\":4915:4981   */\n          0xffffffffffffffffffffffffffffffffffffffffffffffffffffffffffffffff\n            /* \"#utility.yul\":4904:4913   */\n          dup3\n            /* \"#utility.yul\":4885:4982   */\n          tag_31\n          jump\t// in\n        tag_100:\n            /* \"#utility.yul\":5003:5042   */\n          tag_101\n            /* \"#utility.yul\":5033:5041   */\n          dup7\n            /* \"#utility.yul\":5022:5031   */\n          dup4\n            /* \"#utility.yul\":5003:5042   */\n          tag_31\n          jump\t// in\n        tag_101:\n            /* \"#utility.yul\":4991:5042   */\n          swap6\n          pop\n            /* \"#utility.yul\":5075:5079   */\n          dup1\n            /* \"#utility.yul\":5071:5080   */\n          not\n            /* \"#utility.yul\":5064:5069   */\n          dup5\n            /* \"#utility.yul\":5060:5081   */\n          and\n            /* \"#utility.yul\":5051:5081   */\n          swap4\n          pop\n            /* \"#utility.yul\":5124:5128   */\n          dup1\n            /* \"#utility.yul\":5114:5122   */\n          dup7\n            /* \"#utility.yul\":5110:5129   */\n          and\n            /* \"#utility.yul\":5103:5108   */\n          dup5\n            /* \"#utility.yul\":5100:5130   */\n          or\n            /* \"#utility.yul\":5090:5130   */\n          swap3\n          pop\n            /* \"#utility.yul\":4819:5136   */\n          pop\n          pop\n            /* \"#utility.yul\":4743:5136   */\n          swap4\n          swap3\n          pop\n          pop\n          pop\n          jump\t// out\n            /* \"#utility.yul\":5142:5219   */\n        tag_33:\n            /* \"#utility.yul\":5179:5186   */\n          0x00\n            /* \"#utility.yul\":5208:5213   */\n          dup2\n            /* \"#utility.yul\":5197:5213   */\n          swap1\n          pop\n            /* \"#utility.yul\":5142:5219   */\n          swap2\n          swap1\n          pop\n          jump\t// out\n            /* \"#utility.yul\":5225:5285   */\n        tag_34:\n            /* \"#utility.yul\":5253:5256   */\n          0x00\n            /* \"#utility.yul\":5274:5279   */\n          dup2\n            /* \"#utility.yul\":5267:5279   */\n          swap1\n          pop\n            /* \"#utility.yul\":5225:5285   */\n          swap2\n          swap1\n          pop\n          jump\t// out\n            /* \"#utility.yul\":5291:5433   */\n        tag_35:\n            /* \"#utility.yul\":5341:5350   */\n          0x00\n            /* \"#utility.yul\":5374:5427   */\n          tag_105\n            /* \"#utility.yul\":5392:5426   */\n          tag_106\n            /* \"#utility.yul\":5401:5425   */\n          tag_107\n            /* \"#utility.yul\":5419:5424   */\n          dup5\n            /* \"#utility.yul\":5401:5425   */\n          tag_33\n          jump\t// in\n        tag_107:\n            /* \"#utility.yul\":5392:5426   */\n          tag_34\n          jump\t// in\n        tag_106:\n            /* \"#utility.yul\":5374:5427   */\n          tag_33\n          jump\t// in\n        tag_105:\n            /* \"#utility.yul\":5361:5427   */\n          swap1\n          pop\n            /* \"#utility.yul\":5291:5433   */\n          swap2\n          swap1\n          pop\n          jump\t// out\n            /* \"#utility.yul\":5439:5514   */\n        tag_36:\n            /* \"#utility.yul\":5482:5485   */\n          0x00\n            /* \"#utility.yul\":5503:5508   */\n          dup2\n            /* \"#utility.yul\":5496:5508   */\n          swap1\n          pop\n            /* \"#utility.yul\":5439:5514   */\n          swap2\n          swap1\n          pop\n          jump\t// out\n            /* \"#utility.yul\":5520:5789   */\n        tag_37:\n            /* \"#utility.yul\":5630:5669   */\n          tag_110\n            /* \"#utility.yul\":5661:5668   */\n          dup4\n            /* \"#utility.yul\":5630:5669   */\n          tag_35\n          jump\t// in\n        tag_110:\n            /* \"#utility.yul\":5691:5782   */\n          tag_111\n            /* \"#utility.yul\":5740:5781   */\n          tag_112\n            /* \"#utility.yul\":5764:5780   */\n          dup3\n            /* \"#utility.yul\":5740:5781   */\n          tag_36\n          jump\t// in\n        tag_112:\n            /* \"#utility.yul\":5732:5738   */\n          dup5\n            /* \"#utility.yul\":5725:5729   */\n          dup5\n            /* \"#utility.yul\":5719:5730   */\n          sload\n            /* \"#utility.yul\":5691:5782   */\n          tag_32\n          jump\t// in\n        tag_111:\n            /* \"#utility.yul\":5685:5689   */\n          dup3\n            /* \"#utility.yul\":5678:5783   */\n          sstore\n            /* \"#utility.yul\":5596:5789   */\n          pop\n            /* \"#utility.yul\":5520:5789   */\n          pop\n          pop\n          pop\n          jump\t// out\n            /* \"#utility.yul\":5795:5868   */\n        tag_38:\n            /* \"#utility.yul\":5840:5843   */\n          0x00\n            /* \"#utility.yul\":5795:5868   */\n          swap1\n          jump\t// out\n            /* \"#utility.yul\":5874:6063   */\n        tag_39:\n            /* \"#utility.yul\":5951:5983   */\n          tag_115\n          tag_38\n          jump\t// in\n        tag_115:\n            /* \"#utility.yul\":5992:6057   */\n          tag_116\n            /* \"#utility.yul\":6050:6056   */\n          dup2\n            /* \"#utility.yul\":6042:6048   */\n          dup5\n            /* \"#utility.yul\":6036:6040   */\n          dup5\n            /* \"#utility.yul\":5992:6057   */\n          tag_37\n          jump\t// in\n        tag_116:\n            /* \"#utility.yul\":5927:6063   */\n          pop\n            /* \"#utility.yul\":5874:6063   */\n          pop\n          pop\n          jump\t// out\n            /* \"#utility.yul\":6069:6255   */\n        tag_40:\n            /* \"#utility.yul\":6129:6249   */\n        tag_118:\n            /* \"#utility.yul\":6146:6149   */\n          dup2\n            /* \"#utility.yul\":6139:6144   */\n          dup2\n            /* \"#utility.yul\":6136:6150   */\n          lt\n            /* \"#utility.yul\":6129:6249   */\n          iszero\n          tag_120\n          jumpi\n            /* \"#utility.yul\":6200:6239   */\n          tag_121\n            /* \"#utility.yul\":6237:6238   */\n          0x00\n            /* \"#utility.yul\":6230:6235   */\n          dup3\n            /* \"#utility.yul\":6200:6239   */\n          tag_39\n          jump\t// in\n        tag_121:\n            /* \"#utility.yul\":6173:6174   */\n          0x01\n            /* \"#utility.yul\":6166:6171   */\n          dup2\n            /* \"#utility.yul\":6162:6175   */\n          add\n            /* \"#utility.yul\":6153:6175   */\n          swap1\n          pop\n            /* \"#utility.yul\":6129:6249   */\n          jump(tag_118)\n        tag_120:\n            /* \"#utility.yul\":6069:6255   */\n          pop\n          pop\n          jump\t// out\n            /* \"#utility.yul\":6261:6804   */\n        tag_41:\n            /* \"#utility.yul\":6362:6364   */\n          0x1f\n            /* \"#utility.yul\":6357:6360   */\n          dup3\n            /* \"#utility.yul\":6354:6365   */\n          gt\n            /* \"#utility.yul\":6351:6797   */\n          iszero\n          tag_123\n          jumpi\n            /* \"#utility.yul\":6396:6434   */\n          tag_124\n            /* \"#utility.yul\":6428:6433   */\n          dup2\n            /* \"#utility.yul\":6396:6434   */\n          tag_29\n          jump\t// in\n        tag_124:\n            /* \"#utility.yul\":6480:6509   */\n          tag_125\n            /* \"#utility.yul\":6498:6508   */\n          dup5\n            /* \"#utility.yul\":6480:6509   */\n          tag_30\n          jump\t// in\n        tag_125:\n            /* \"#utility.yul\":6470:6478   */\n          dup2\n            /* \"#utility.yul\":6466:6510   */\n          add\n            /* \"#utility.yul\":6663:6665   */\n          0x20\n            /* \"#utility.yul\":6651:6661   */\n          dup6\n            /* \"#utility.yul\":6648:6666   */\n          lt\n            /* \"#utility.yul\":6645:6694   */\n          iszero\n          tag_126\n          jumpi\n            /* \"#utility.yul\":6684:6692   */\n          dup2\n            /* \"#utility.yul\":6669:6692   */\n          swap1\n          pop\n            /* \"#utility.yul\":6645:6694   */\n        tag_126:\n            /* \"#utility.yul\":6707:6787   */\n          tag_127\n            /* \"#utility.yul\":6763:6785   */\n          tag_128\n            /* \"#utility.yul\":6781:6784   */\n          dup6\n            /* \"#utility.yul\":6763:6785   */\n          tag_30\n          jump\t// in\n        tag_128:\n            /* \"#utility.yul\":6753:6761   */\n          dup4\n            /* \"#utility.yul\":6749:6786   */\n          add\n            /* \"#utility.yul\":6736:6747   */\n          dup3\n            /* \"#utility.yul\":6707:6787   */\n          tag_40\n          jump\t// in\n        tag_127:\n            /* \"#utility.yul\":6366:6797   */\n          pop\n          pop\n            /* \"#utility.yul\":6351:6797   */\n        tag_123:\n            /* \"#utility.yul\":6261:6804   */\n          pop\n          pop\n          pop\n          jump\t// out\n            /* \"#utility.yul\":6810:6927   */\n        tag_42:\n            /* \"#utility.yul\":6864:6872   */\n          0x00\n            /* \"#utility.yul\":6914:6919   */\n          dup3\n            /* \"#utility.yul\":6908:6912   */\n          dup3\n            /* \"#utility.yul\":6904:6920   */\n          shr\n            /* \"#utility.yul\":6883:6920   */\n          swap1\n          pop\n            /* \"#utility.yul\":6810:6927   */\n          swap3\n          swap2\n          pop\n          pop\n          jump\t// out\n            /* \"#utility.yul\":6933:7102   */\n        tag_43:\n            /* \"#utility.yul\":6977:6983   */\n          0x00\n            /* \"#utility.yul\":7010:7061   */\n          tag_131\n            /* \"#utility.yul\":7058:7059   */\n          0x00\n            /* \"#utility.yul\":7054:7060   */\n          not\n            /* \"#utility.yul\":7046:7051   */\n          dup5\n            /* \"#utility.yul\":7043:7044   */\n          0x08\n            /* \"#utility.yul\":7039:7052   */\n          mul\n            /* \"#utility.yul\":7010:7061   */\n          tag_42\n          jump\t// in\n        tag_131:\n            /* \"#utility.yul\":7006:7062   */\n          not\n            /* \"#utility.yul\":7091:7095   */\n          dup1\n            /* \"#utility.yul\":7085:7089   */\n          dup4\n            /* \"#utility.yul\":7081:7096   */\n          and\n            /* \"#utility.yul\":7071:7096   */\n          swap2\n          pop\n            /* \"#utility.yul\":6984:7102   */\n          pop\n            /* \"#utility.yul\":6933:7102   */\n          swap3\n          swap2\n          pop\n          pop\n          jump\t// out\n            /* \"#utility.yul\":7107:7402   */\n        tag_44:\n            /* \"#utility.yul\":7183:7187   */\n          0x00\n            /* \"#utility.yul\":7329:7358   */\n          tag_133\n            /* \"#utility.yul\":7354:7357   */\n          dup4\n            /* \"#utility.yul\":7348:7352   */\n          dup4\n            /* \"#utility.yul\":7329:7358   */\n          tag_43\n          jump\t// in\n        tag_133:\n            /* \"#utility.yul\":7321:7358   */\n          swap2\n          pop\n            /* \"#utility.yul\":7391:7394   */\n          dup3\n            /* \"#utility.yul\":7388:7389   */\n          0x02\n            /* \"#utility.yul\":7384:7395   */\n          mul\n            /* \"#utility.yul\":7378:7382   */\n          dup3\n            /* \"#utility.yul\":7375:7396   */\n          or\n            /* \"#utility.yul\":7367:7396   */\n          swap1\n          pop\n            /* \"#utility.yul\":7107:7402   */\n          swap3\n          swap2\n          pop\n          pop\n          jump\t// out\n            /* \"#utility.yul\":7407:8802   */\n        tag_7:\n            /* \"#utility.yul\":7524:7561   */\n          tag_135\n            /* \"#utility.yul\":7557:7560   */\n          dup3\n            /* \"#utility.yul\":7524:7561   */\n          tag_26\n          jump\t// in\n        tag_135:\n            /* \"#utility.yul\":7626:7644   */\n          0xffffffffffffffff\n            /* \"#utility.yul\":7618:7624   */\n          dup2\n            /* \"#utility.yul\":7615:7645   */\n          gt\n            /* \"#utility.yul\":7612:7668   */\n          iszero\n          tag_136\n          jumpi\n            /* \"#utility.yul\":7648:7666   */\n          tag_137\n          tag_15\n          jump\t// in\n        tag_137:\n            /* \"#utility.yul\":7612:7668   */\n        tag_136:\n            /* \"#utility.yul\":7692:7730   */\n          tag_138\n            /* \"#utility.yul\":7724:7728   */\n          dup3\n            /* \"#utility.yul\":7718:7729   */\n          sload\n            /* \"#utility.yul\":7692:7730   */\n          tag_28\n          jump\t// in\n        tag_138:\n            /* \"#utility.yul\":7777:7844   */\n          tag_139\n            /* \"#utility.yul\":7837:7843   */\n          dup3\n            /* \"#utility.yul\":7829:7835   */\n          dup3\n            /* \"#utility.yul\":7823:7827   */\n          dup6\n            /* \"#utility.yul\":7777:7844   */\n          tag_41\n          jump\t// in\n        tag_139:\n            /* \"#utility.yul\":7871:7872   */\n          0x00\n            /* \"#utility.yul\":7895:7899   */\n          0x20\n            /* \"#utility.yul\":7882:7899   */\n          swap1\n          pop\n            /* \"#utility.yul\":7927:7929   */\n          0x1f\n            /* \"#utility.yul\":7919:7925   */\n          dup4\n            /* \"#utility.yul\":7916:7930   */\n          gt\n            /* \"#utility.yul\":7944:7945   */\n          0x01\n            /* \"#utility.yul\":7939:8557   */\n          dup2\n          eq\n          tag_141\n          jumpi\n            /* \"#utility.yul\":8601:8602   */\n          0x00\n            /* \"#utility.yul\":8618:8624   */\n          dup5\n            /* \"#utility.yul\":8615:8692   */\n          iszero\n          tag_142\n          jumpi\n            /* \"#utility.yul\":8667:8676   */\n          dup3\n            /* \"#utility.yul\":8662:8665   */\n          dup8\n            /* \"#utility.yul\":8658:8677   */\n          add\n            /* \"#utility.yul\":8652:8678   */\n          mload\n            /* \"#utility.yul\":8643:8678   */\n          swap1\n          pop\n            /* \"#utility.yul\":8615:8692   */\n        tag_142:\n            /* \"#utility.yul\":8718:8785   */\n          tag_143\n            /* \"#utility.yul\":8778:8784   */\n          dup6\n            /* \"#utility.yul\":8771:8776   */\n          dup3\n            /* \"#utility.yul\":8718:8785   */\n          tag_44\n          jump\t// in\n        tag_143:\n            /* \"#utility.yul\":8712:8716   */\n          dup7\n            /* \"#utility.yul\":8705:8786   */\n          sstore\n            /* \"#utility.yul\":8574:8796   */\n          pop\n            /* \"#utility.yul\":7909:8796   */\n          jump(tag_140)\n            /* \"#utility.yul\":7939:8557   */\n        tag_141:\n            /* \"#utility.yul\":7991:7995   */\n          0x1f\n            /* \"#utility.yul\":7987:7996   */\n          not\n            /* \"#utility.yul\":7979:7985   */\n          dup5\n            /* \"#utility.yul\":7975:7997   */\n          and\n            /* \"#utility.yul\":8025:8062   */\n          tag_144\n            /* \"#utility.yul\":8057:8061   */\n          dup7\n            /* \"#utility.yul\":8025:8062   */\n          tag_29\n          jump\t// in\n        tag_144:\n            /* \"#utility.yul\":8084:8085   */\n          0x00\n            /* \"#utility.yul\":8098:8306   */\n        tag_145:\n            /* \"#utility.yul\":8112:8119   */\n          dup3\n            /* \"#utility.yul\":8109:8110   */\n          dup2\n            /* \"#utility.yul\":8106:8120   */\n          lt\n            /* \"#utility.yul\":8098:8306   */\n          iszero\n          tag_147\n          jumpi\n            /* \"#utility.yul\":8191:8200   */\n          dup5\n            /* \"#utility.yul\":8186:8189   */\n          dup10\n            /* \"#utility.yul\":8182:8201   */\n          add\n            /* \"#utility.yul\":8176:8202   */\n          mload\n            /* \"#utility.yul\":8168:8174   */\n          dup3\n            /* \"#utility.yul\":8161:8203   */\n          sstore\n            /* \"#utility.yul\":8242:8243   */\n          0x01\n            /* \"#utility.yul\":8234:8240   */\n          dup3\n            /* \"#utility.yul\":8230:8244   */\n          add\n            /* \"#utility.yul\":8220:8244   */\n          swap2\n          pop\n            /* \"#utility.yul\":8289:8291   */\n          0x20\n            /* \"#utility.yul\":8278:8287   */\n          dup6\n            /* \"#utility.yul\":8274:8292   */\n          add\n            /* \"#utility.yul\":8261:8292   */\n          swap5\n          pop\n            /* \"#utility.yul\":8135:8139   */\n          0x20\n            /* \"#utility.yul\":8132:8133   */\n          dup2\n            /* \"#utility.yul\":8128:8140   */\n          add\n            /* \"#utility.yul\":8123:8140   */\n          swap1\n          pop\n            /* \"#utility.yul\":8098:8306   */\n          jump(tag_145)\n        tag_147:\n            /* \"#utility.yul\":8334:8340   */\n          dup7\n            /* \"#utility.yul\":8325:8332   */\n          dup4\n            /* \"#utility.yul\":8322:8341   */\n          lt\n            /* \"#utility.yul\":8319:8498   */\n          iszero\n          tag_148\n          jumpi\n            /* \"#utility.yul\":8392:8401   */\n          dup5\n            /* \"#utility.yul\":8387:8390   */\n          dup10\n            /* \"#utility.yul\":8383:8402   */\n          add\n            /* \"#utility.yul\":8377:8403   */\n          mload\n            /* \"#utility.yul\":8435:8483   */\n          tag_149\n            /* \"#utility.yul\":8477:8481   */\n          0x1f\n            /* \"#utility.yul\":8469:8475   */\n          dup10\n            /* \"#utility.yul\":8465:8482   */\n          and\n            /* \"#utility.yul\":8454:8463   */\n          dup3\n            /* \"#utility.yul\":8435:8483   */\n          tag_43\n          jump\t// in\n        tag_149:\n            /* \"#utility.yul\":8427:8433   */\n          dup4\n            /* \"#utility.yul\":8420:8484   */\n          sstore\n            /* \"#utility.yul\":8342:8498   */\n          pop\n            /* \"#utility.yul\":8319:8498   */\n        tag_148:\n            /* \"#utility.yul\":8544:8545   */\n          0x01\n            /* \"#utility.yul\":8540:8541   */\n          0x02\n            /* \"#utility.yul\":8532:8538   */\n          dup9\n            /* \"#utility.yul\":8528:8542   */\n          mul\n            /* \"#utility.yul\":8524:8546   */\n          add\n            /* \"#utility.yul\":8518:8522   */\n          dup9\n            /* \"#utility.yul\":8511:8547   */\n          sstore\n            /* \"#utility.yul\":7946:8557   */\n          pop\n          pop\n          pop\n            /* \"#utility.yul\":7909:8796   */\n        tag_140:\n          pop\n            /* \"#utility.yul\":7499:8802   */\n          pop\n          pop\n          pop\n            /* \"#utility.yul\":7407:8802   */\n          pop\n          pop\n          jump\t// out\n            /* \"contracts/base/jik.sol\":60:398  contract CreateMe{... */\n        tag_8:\n          dataSize(sub_0)\n          dup1\n          dataOffset(sub_0)\n          0x00\n          codecopy\n          0x00\n          return\n        stop\n\n        sub_0: assembly {\n                /* \"contracts/base/jik.sol\":60:398  contract CreateMe{... */\n              mstore(0x40, 0x80)\n              callvalue\n              dup1\n              iszero\n              tag_1\n              jumpi\n              0x00\n              dup1\n              revert\n            tag_1:\n              pop\n              jumpi(tag_2, lt(calldatasize, 0x04))\n              shr(0xe0, calldataload(0x00))\n              dup1\n              0x510a890f\n              eq\n              tag_3\n              jumpi\n            tag_2:\n              0x00\n              dup1\n              revert\n                /* \"contracts/base/jik.sol\":229:396  function HelloMessage() external view returns(string memory){... */\n            tag_3:\n              tag_4\n              tag_5\n              jump\t// in\n            tag_4:\n              mload(0x40)\n              tag_6\n              swap2\n              swap1\n              tag_7\n              jump\t// in\n            tag_6:\n              mload(0x40)\n              dup1\n              swap2\n              sub\n              swap1\n              return\n            tag_5:\n                /* \"contracts/base/jik.sol\":275:288  string memory */\n              0x60\n                /* \"contracts/base/jik.sol\":320:327  nmowner */\n              0x01\n              0x00\n              swap1\n              sload\n              swap1\n              0x0100\n              exp\n              swap1\n              div\n              0xffffffffffffffffffffffffffffffffffffffff\n              and\n                /* \"contracts/base/jik.sol\":307:327  msg.sender== nmowner */\n              0xffffffffffffffffffffffffffffffffffffffff\n              and\n                /* \"contracts/base/jik.sol\":307:317  msg.sender */\n              caller\n                /* \"contracts/base/jik.sol\":307:327  msg.sender== nmowner */\n              0xffffffffffffffffffffffffffffffffffffffff\n              and\n              eq\n                /* \"contracts/base/jik.sol\":299:342  require(msg.sender== nmowner, \"not owner!\") */\n              tag_9\n              jumpi\n              mload(0x40)\n              0x08c379a000000000000000000000000000000000000000000000000000000000\n              dup2\n              mstore\n              0x04\n              add\n              tag_10\n              swap1\n              tag_11\n              jump\t// in\n            tag_10:\n              mload(0x40)\n              dup1\n              swap2\n              sub\n              swap1\n              revert\n            tag_9:\n                /* \"contracts/base/jik.sol\":383:387  name */\n              0x00\n                /* \"contracts/base/jik.sol\":360:388  string.concat(\"hello \",name) */\n              add(0x20, mload(0x40))\n              tag_12\n              swap2\n              swap1\n              tag_13\n              jump\t// in\n            tag_12:\n              mload(0x40)\n              0x20\n              dup2\n              dup4\n              sub\n              sub\n              dup2\n              mstore\n              swap1\n              0x40\n              mstore\n                /* \"contracts/base/jik.sol\":352:389  return (string.concat(\"hello \",name)) */\n              swap1\n              pop\n                /* \"contracts/base/jik.sol\":229:396  function HelloMessage() external view returns(string memory){... */\n              swap1\n              jump\t// out\n                /* \"#utility.yul\":7:106   */\n            tag_14:\n                /* \"#utility.yul\":59:65   */\n              0x00\n                /* \"#utility.yul\":93:98   */\n              dup2\n                /* \"#utility.yul\":87:99   */\n              mload\n                /* \"#utility.yul\":77:99   */\n              swap1\n              pop\n                /* \"#utility.yul\":7:106   */\n              swap2\n              swap1\n              pop\n              jump\t// out\n                /* \"#utility.yul\":112:281   */\n            tag_15:\n                /* \"#utility.yul\":196:207   */\n              0x00\n                /* \"#utility.yul\":230:236   */\n              dup3\n                /* \"#utility.yul\":225:228   */\n              dup3\n                /* \"#utility.yul\":218:237   */\n              mstore\n                /* \"#utility.yul\":270:274   */\n              0x20\n                /* \"#utility.yul\":265:268   */\n              dup3\n                /* \"#utility.yul\":261:275   */\n              add\n                /* \"#utility.yul\":246:275   */\n              swap1\n              pop\n                /* \"#utility.yul\":112:281   */\n              swap3\n              swap2\n              pop\n              pop\n              jump\t// out\n                /* \"#utility.yul\":287:426   */\n            tag_16:\n                /* \"#utility.yul\":376:382   */\n              dup3\n                /* \"#utility.yul\":371:374   */\n              dup2\n                /* \"#utility.yul\":366:369   */\n              dup4\n                /* \"#utility.yul\":360:383   */\n              mcopy\n                /* \"#utility.yul\":417:418   */\n              0x00\n                /* \"#utility.yul\":408:414   */\n              dup4\n                /* \"#utility.yul\":403:406   */\n              dup4\n                /* \"#utility.yul\":399:415   */\n              add\n                /* \"#utility.yul\":392:419   */\n              mstore\n                /* \"#utility.yul\":287:426   */\n              pop\n              pop\n              pop\n              jump\t// out\n                /* \"#utility.yul\":432:534   */\n            tag_17:\n                /* \"#utility.yul\":473:479   */\n              0x00\n                /* \"#utility.yul\":524:526   */\n              0x1f\n                /* \"#utility.yul\":520:527   */\n              not\n                /* \"#utility.yul\":515:517   */\n              0x1f\n                /* \"#utility.yul\":508:513   */\n              dup4\n                /* \"#utility.yul\":504:518   */\n              add\n                /* \"#utility.yul\":500:528   */\n              and\n                /* \"#utility.yul\":490:528   */\n              swap1\n              pop\n                /* \"#utility.yul\":432:534   */\n              swap2\n              swap1\n              pop\n              jump\t// out\n                /* \"#utility.yul\":540:917   */\n            tag_18:\n                /* \"#utility.yul\":628:631   */\n              0x00\n                /* \"#utility.yul\":656:695   */\n              tag_33\n                /* \"#utility.yul\":689:694   */\n              dup3\n                /* \"#utility.yul\":656:695   */\n              tag_14\n              jump\t// in\n            tag_33:\n                /* \"#utility.yul\":711:782   */\n              tag_34\n                /* \"#utility.yul\":775:781   */\n              dup2\n                /* \"#utility.yul\":770:773   */\n              dup6\n                /* \"#utility.yul\":711:782   */\n              tag_15\n              jump\t// in\n            tag_34:\n                /* \"#utility.yul\":704:782   */\n              swap4\n              pop\n                /* \"#utility.yul\":791:856   */\n              tag_35\n                /* \"#utility.yul\":849:855   */\n              dup2\n                /* \"#utility.yul\":844:847   */\n              dup6\n                /* \"#utility.yul\":837:841   */\n              0x20\n                /* \"#utility.yul\":830:835   */\n              dup7\n                /* \"#utility.yul\":826:842   */\n              add\n                /* \"#utility.yul\":791:856   */\n              tag_16\n              jump\t// in\n            tag_35:\n                /* \"#utility.yul\":881:910   */\n              tag_36\n                /* \"#utility.yul\":903:909   */\n              dup2\n                /* \"#utility.yul\":881:910   */\n              tag_17\n              jump\t// in\n            tag_36:\n                /* \"#utility.yul\":876:879   */\n              dup5\n                /* \"#utility.yul\":872:911   */\n              add\n                /* \"#utility.yul\":865:911   */\n              swap2\n              pop\n                /* \"#utility.yul\":632:917   */\n              pop\n                /* \"#utility.yul\":540:917   */\n              swap3\n              swap2\n              pop\n              pop\n              jump\t// out\n                /* \"#utility.yul\":923:1236   */\n            tag_7:\n                /* \"#utility.yul\":1036:1040   */\n              0x00\n                /* \"#utility.yul\":1074:1076   */\n              0x20\n                /* \"#utility.yul\":1063:1072   */\n              dup3\n                /* \"#utility.yul\":1059:1077   */\n              add\n                /* \"#utility.yul\":1051:1077   */\n              swap1\n              pop\n                /* \"#utility.yul\":1123:1132   */\n              dup2\n                /* \"#utility.yul\":1117:1121   */\n              dup2\n                /* \"#utility.yul\":1113:1133   */\n              sub\n                /* \"#utility.yul\":1109:1110   */\n              0x00\n                /* \"#utility.yul\":1098:1107   */\n              dup4\n                /* \"#utility.yul\":1094:1111   */\n              add\n                /* \"#utility.yul\":1087:1134   */\n              mstore\n                /* \"#utility.yul\":1151:1229   */\n              tag_38\n                /* \"#utility.yul\":1224:1228   */\n              dup2\n                /* \"#utility.yul\":1215:1221   */\n              dup5\n                /* \"#utility.yul\":1151:1229   */\n              tag_18\n              jump\t// in\n            tag_38:\n                /* \"#utility.yul\":1143:1229   */\n              swap1\n              pop\n                /* \"#utility.yul\":923:1236   */\n              swap3\n              swap2\n              pop\n              pop\n              jump\t// out\n                /* \"#utility.yul\":1242:1402   */\n            tag_19:\n                /* \"#utility.yul\":1382:1394   */\n              0x6e6f74206f776e65722100000000000000000000000000000000000000000000\n                /* \"#utility.yul\":1378:1379   */\n              0x00\n                /* \"#utility.yul\":1370:1376   */\n              dup3\n                /* \"#utility.yul\":1366:1380   */\n              add\n                /* \"#utility.yul\":1359:1395   */\n              mstore\n                /* \"#utility.yul\":1242:1402   */\n              pop\n              jump\t// out\n                /* \"#utility.yul\":1408:1774   */\n            tag_20:\n                /* \"#utility.yul\":1550:1553   */\n              0x00\n                /* \"#utility.yul\":1571:1638   */\n              tag_41\n                /* \"#utility.yul\":1635:1637   */\n              0x0a\n                /* \"#utility.yul\":1630:1633   */\n              dup4\n                /* \"#utility.yul\":1571:1638   */\n              tag_15\n              jump\t// in\n            tag_41:\n                /* \"#utility.yul\":1564:1638   */\n              swap2\n              pop\n                /* \"#utility.yul\":1647:1740   */\n              tag_42\n                /* \"#utility.yul\":1736:1739   */\n              dup3\n                /* \"#utility.yul\":1647:1740   */\n              tag_19\n              jump\t// in\n            tag_42:\n                /* \"#utility.yul\":1765:1767   */\n              0x20\n                /* \"#utility.yul\":1760:1763   */\n              dup3\n                /* \"#utility.yul\":1756:1768   */\n              add\n                /* \"#utility.yul\":1749:1768   */\n              swap1\n              pop\n                /* \"#utility.yul\":1408:1774   */\n              swap2\n              swap1\n              pop\n              jump\t// out\n                /* \"#utility.yul\":1780:2199   */\n            tag_11:\n                /* \"#utility.yul\":1946:1950   */\n              0x00\n                /* \"#utility.yul\":1984:1986   */\n              0x20\n                /* \"#utility.yul\":1973:1982   */\n              dup3\n                /* \"#utility.yul\":1969:1987   */\n              add\n                /* \"#utility.yul\":1961:1987   */\n              swap1\n              pop\n                /* \"#utility.yul\":2033:2042   */\n              dup2\n                /* \"#utility.yul\":2027:2031   */\n              dup2\n                /* \"#utility.yul\":2023:2043   */\n              sub\n                /* \"#utility.yul\":2019:2020   */\n              0x00\n                /* \"#utility.yul\":2008:2017   */\n              dup4\n                /* \"#utility.yul\":2004:2021   */\n              add\n                /* \"#utility.yul\":1997:2044   */\n              mstore\n                /* \"#utility.yul\":2061:2192   */\n              tag_44\n                /* \"#utility.yul\":2187:2191   */\n              dup2\n                /* \"#utility.yul\":2061:2192   */\n              tag_20\n              jump\t// in\n            tag_44:\n                /* \"#utility.yul\":2053:2192   */\n              swap1\n              pop\n                /* \"#utility.yul\":1780:2199   */\n              swap2\n              swap1\n              pop\n              jump\t// out\n                /* \"#utility.yul\":2205:2388   */\n            tag_21:\n                /* \"#utility.yul\":2373:2381   */\n              0x68656c6c6f200000000000000000000000000000000000000000000000000000\n                /* \"#utility.yul\":2368:2371   */\n              dup2\n                /* \"#utility.yul\":2361:2382   */\n              mstore\n                /* \"#utility.yul\":2205:2388   */\n              pop\n              jump\t// out\n                /* \"#utility.yul\":2394:2574   */\n            tag_22:\n                /* \"#utility.yul\":2442:2519   */\n              0x4e487b7100000000000000000000000000000000000000000000000000000000\n                /* \"#utility.yul\":2439:2440   */\n              0x00\n                /* \"#utility.yul\":2432:2520   */\n              mstore\n                /* \"#utility.yul\":2539:2543   */\n              0x22\n                /* \"#utility.yul\":2536:2537   */\n              0x04\n                /* \"#utility.yul\":2529:2544   */\n              mstore\n                /* \"#utility.yul\":2563:2567   */\n              0x24\n                /* \"#utility.yul\":2560:2561   */\n              0x00\n                /* \"#utility.yul\":2553:2568   */\n              revert\n                /* \"#utility.yul\":2580:2900   */\n            tag_23:\n                /* \"#utility.yul\":2624:2630   */\n              0x00\n                /* \"#utility.yul\":2661:2662   */\n              0x02\n                /* \"#utility.yul\":2655:2659   */\n              dup3\n                /* \"#utility.yul\":2651:2663   */\n              div\n                /* \"#utility.yul\":2641:2663   */\n              swap1\n              pop\n                /* \"#utility.yul\":2708:2709   */\n              0x01\n                /* \"#utility.yul\":2702:2706   */\n              dup3\n                /* \"#utility.yul\":2698:2710   */\n              and\n                /* \"#utility.yul\":2729:2747   */\n              dup1\n                /* \"#utility.yul\":2719:2800   */\n              tag_48\n              jumpi\n                /* \"#utility.yul\":2785:2789   */\n              0x7f\n                /* \"#utility.yul\":2777:2783   */\n              dup3\n                /* \"#utility.yul\":2773:2790   */\n              and\n                /* \"#utility.yul\":2763:2790   */\n              swap2\n              pop\n                /* \"#utility.yul\":2719:2800   */\n            tag_48:\n                /* \"#utility.yul\":2847:2849   */\n              0x20\n                /* \"#utility.yul\":2839:2845   */\n              dup3\n                /* \"#utility.yul\":2836:2850   */\n              lt\n                /* \"#utility.yul\":2816:2834   */\n              dup2\n                /* \"#utility.yul\":2813:2851   */\n              sub\n                /* \"#utility.yul\":2810:2894   */\n              tag_49\n              jumpi\n                /* \"#utility.yul\":2866:2884   */\n              tag_50\n              tag_22\n              jump\t// in\n            tag_50:\n                /* \"#utility.yul\":2810:2894   */\n            tag_49:\n                /* \"#utility.yul\":2631:2900   */\n              pop\n                /* \"#utility.yul\":2580:2900   */\n              swap2\n              swap1\n              pop\n              jump\t// out\n                /* \"#utility.yul\":2906:3054   */\n            tag_24:\n                /* \"#utility.yul\":3008:3019   */\n              0x00\n                /* \"#utility.yul\":3045:3048   */\n              dup2\n                /* \"#utility.yul\":3030:3048   */\n              swap1\n              pop\n                /* \"#utility.yul\":2906:3054   */\n              swap3\n              swap2\n              pop\n              pop\n              jump\t// out\n                /* \"#utility.yul\":3060:3201   */\n            tag_25:\n                /* \"#utility.yul\":3109:3113   */\n              0x00\n                /* \"#utility.yul\":3132:3135   */\n              dup2\n                /* \"#utility.yul\":3124:3135   */\n              swap1\n              pop\n                /* \"#utility.yul\":3155:3158   */\n              dup2\n                /* \"#utility.yul\":3152:3153   */\n              0x00\n                /* \"#utility.yul\":3145:3159   */\n              mstore\n                /* \"#utility.yul\":3189:3193   */\n              0x20\n                /* \"#utility.yul\":3186:3187   */\n              0x00\n                /* \"#utility.yul\":3176:3194   */\n              keccak256\n                /* \"#utility.yul\":3168:3194   */\n              swap1\n              pop\n                /* \"#utility.yul\":3060:3201   */\n              swap2\n              swap1\n              pop\n              jump\t// out\n                /* \"#utility.yul\":3231:4105   */\n            tag_26:\n                /* \"#utility.yul\":3334:3337   */\n              0x00\n                /* \"#utility.yul\":3371:3376   */\n              dup2\n                /* \"#utility.yul\":3365:3377   */\n              sload\n                /* \"#utility.yul\":3400:3436   */\n              tag_54\n                /* \"#utility.yul\":3426:3435   */\n              dup2\n                /* \"#utility.yul\":3400:3436   */\n              tag_23\n              jump\t// in\n            tag_54:\n                /* \"#utility.yul\":3452:3541   */\n              tag_55\n                /* \"#utility.yul\":3534:3540   */\n              dup2\n                /* \"#utility.yul\":3529:3532   */\n              dup7\n                /* \"#utility.yul\":3452:3541   */\n              tag_24\n              jump\t// in\n            tag_55:\n                /* \"#utility.yul\":3445:3541   */\n              swap5\n              pop\n                /* \"#utility.yul\":3572:3573   */\n              0x01\n                /* \"#utility.yul\":3561:3570   */\n              dup3\n                /* \"#utility.yul\":3557:3574   */\n              and\n                /* \"#utility.yul\":3588:3589   */\n              0x00\n                /* \"#utility.yul\":3583:3749   */\n              dup2\n              eq\n              tag_57\n              jumpi\n                /* \"#utility.yul\":3763:3764   */\n              0x01\n                /* \"#utility.yul\":3758:4099   */\n              dup2\n              eq\n              tag_58\n              jumpi\n                /* \"#utility.yul\":3550:4099   */\n              jump(tag_56)\n                /* \"#utility.yul\":3583:3749   */\n            tag_57:\n                /* \"#utility.yul\":3667:3671   */\n              0xff\n                /* \"#utility.yul\":3663:3672   */\n              not\n                /* \"#utility.yul\":3652:3661   */\n              dup4\n                /* \"#utility.yul\":3648:3673   */\n              and\n                /* \"#utility.yul\":3643:3646   */\n              dup7\n                /* \"#utility.yul\":3636:3674   */\n              mstore\n                /* \"#utility.yul\":3729:3735   */\n              dup2\n                /* \"#utility.yul\":3722:3736   */\n              iszero\n                /* \"#utility.yul\":3715:3737   */\n              iszero\n                /* \"#utility.yul\":3707:3713   */\n              dup3\n                /* \"#utility.yul\":3703:3738   */\n              mul\n                /* \"#utility.yul\":3698:3701   */\n              dup7\n                /* \"#utility.yul\":3694:3739   */\n              add\n                /* \"#utility.yul\":3687:3739   */\n              swap4\n              pop\n                /* \"#utility.yul\":3583:3749   */\n              jump(tag_56)\n                /* \"#utility.yul\":3758:4099   */\n            tag_58:\n                /* \"#utility.yul\":3825:3863   */\n              tag_59\n                /* \"#utility.yul\":3857:3862   */\n              dup6\n                /* \"#utility.yul\":3825:3863   */\n              tag_25\n              jump\t// in\n            tag_59:\n                /* \"#utility.yul\":3885:3886   */\n              0x00\n                /* \"#utility.yul\":3899:4053   */\n            tag_60:\n                /* \"#utility.yul\":3913:3919   */\n              dup4\n                /* \"#utility.yul\":3910:3911   */\n              dup2\n                /* \"#utility.yul\":3907:3920   */\n              lt\n                /* \"#utility.yul\":3899:4053   */\n              iszero\n              tag_62\n              jumpi\n                /* \"#utility.yul\":3987:3994   */\n              dup2\n                /* \"#utility.yul\":3981:3995   */\n              sload\n                /* \"#utility.yul\":3977:3978   */\n              dup2\n                /* \"#utility.yul\":3972:3975   */\n              dup10\n                /* \"#utility.yul\":3968:3979   */\n              add\n                /* \"#utility.yul\":3961:3996   */\n              mstore\n                /* \"#utility.yul\":4037:4038   */\n              0x01\n                /* \"#utility.yul\":4028:4035   */\n              dup3\n                /* \"#utility.yul\":4024:4039   */\n              add\n                /* \"#utility.yul\":4013:4039   */\n              swap2\n              pop\n                /* \"#utility.yul\":3935:3939   */\n              0x20\n                /* \"#utility.yul\":3932:3933   */\n              dup2\n                /* \"#utility.yul\":3928:3940   */\n              add\n                /* \"#utility.yul\":3923:3940   */\n              swap1\n              pop\n                /* \"#utility.yul\":3899:4053   */\n              jump(tag_60)\n            tag_62:\n                /* \"#utility.yul\":4082:4088   */\n              dup4\n                /* \"#utility.yul\":4077:4080   */\n              dup9\n                /* \"#utility.yul\":4073:4089   */\n              add\n                /* \"#utility.yul\":4066:4089   */\n              swap6\n              pop\n                /* \"#utility.yul\":3765:4099   */\n              pop\n              pop\n                /* \"#utility.yul\":3550:4099   */\n            tag_56:\n              pop\n                /* \"#utility.yul\":3338:4105   */\n              pop\n              pop\n                /* \"#utility.yul\":3231:4105   */\n              swap3\n              swap2\n              pop\n              pop\n              jump\t// out\n                /* \"#utility.yul\":4111:4644   */\n            tag_13:\n                /* \"#utility.yul\":4330:4333   */\n              0x00\n                /* \"#utility.yul\":4345:4482   */\n              tag_64\n                /* \"#utility.yul\":4478:4481   */\n              dup3\n                /* \"#utility.yul\":4345:4482   */\n              tag_21\n              jump\t// in\n            tag_64:\n                /* \"#utility.yul\":4507:4508   */\n              0x06\n                /* \"#utility.yul\":4502:4505   */\n              dup3\n                /* \"#utility.yul\":4498:4509   */\n              add\n                /* \"#utility.yul\":4491:4509   */\n              swap2\n              pop\n                /* \"#utility.yul\":4526:4618   */\n              tag_65\n                /* \"#utility.yul\":4614:4617   */\n              dup3\n                /* \"#utility.yul\":4605:4611   */\n              dup5\n                /* \"#utility.yul\":4526:4618   */\n              tag_26\n              jump\t// in\n            tag_65:\n                /* \"#utility.yul\":4519:4618   */\n              swap2\n              pop\n                /* \"#utility.yul\":4635:4638   */\n              dup2\n                /* \"#utility.yul\":4628:4638   */\n              swap1\n              pop\n                /* \"#utility.yul\":4111:4644   */\n              swap3\n              swap2\n              pop\n              pop\n              jump\t// out\n\n            auxdata: 0xa26469706673582212200d957befc1284606bfb92439d5fc4d8d45f3e18113d1cb81e6f0908fcc5a2e7964736f6c634300081a0033\n        }\n    }\n\n    auxdata: 0xa2646970667358221220f72953f287236e38b0e74c105c00d0d5d08e8cf6f125ef2e308667de120dce1864736f6c634300081a0033\n}\n",
				"bytecode": {
					"linkReferences": {},
					"object": "60806040523360015f6101000a81548173ffffffffffffffffffffffffffffffffffffffff021916908373ffffffffffffffffffffffffffffffffffffffff160217905550348015604e575f80fd5b50610cb88061005c5f395ff3fe608060405234801561000f575f80fd5b5060043610610029575f3560e01c8063bf82a6ac1461002d575b5f80fd5b61004760048036038101906100429190610271565b61005d565b60405161005491906102f7565b60405180910390f35b5f8160015f9054906101000a900473ffffffffffffffffffffffffffffffffffffffff1660405161008d90610117565b610098929190610370565b604051809103905ff0801580156100b1573d5f803e3d5ffd5b505f806101000a81548173ffffffffffffffffffffffffffffffffffffffff021916908373ffffffffffffffffffffffffffffffffffffffff1602179055505f8054906101000a900473ffffffffffffffffffffffffffffffffffffffff169050919050565b6108e48061039f83390190565b5f604051905090565b5f80fd5b5f80fd5b5f80fd5b5f80fd5b5f601f19601f8301169050919050565b7f4e487b71000000000000000000000000000000000000000000000000000000005f52604160045260245ffd5b6101838261013d565b810181811067ffffffffffffffff821117156101a2576101a161014d565b5b80604052505050565b5f6101b4610124565b90506101c0828261017a565b919050565b5f67ffffffffffffffff8211156101df576101de61014d565b5b6101e88261013d565b9050602081019050919050565b828183375f83830152505050565b5f610215610210846101c5565b6101ab565b90508281526020810184848401111561023157610230610139565b5b61023c8482856101f5565b509392505050565b5f82601f83011261025857610257610135565b5b8135610268848260208601610203565b91505092915050565b5f602082840312156102865761028561012d565b5b5f82013567ffffffffffffffff8111156102a3576102a2610131565b5b6102af84828501610244565b91505092915050565b5f73ffffffffffffffffffffffffffffffffffffffff82169050919050565b5f6102e1826102b8565b9050919050565b6102f1816102d7565b82525050565b5f60208201905061030a5f8301846102e8565b92915050565b5f81519050919050565b5f82825260208201905092915050565b8281835e5f83830152505050565b5f61034282610310565b61034c818561031a565b935061035c81856020860161032a565b6103658161013d565b840191505092915050565b5f6040820190508181035f8301526103888185610338565b905061039760208301846102e8565b939250505056fe608060405234801561000f575f80fd5b506040516108e43803806108e48339818101604052810190610031919061022e565b815f908161003f9190610495565b508060015f6101000a81548173ffffffffffffffffffffffffffffffffffffffff021916908373ffffffffffffffffffffffffffffffffffffffff1602179055505050610564565b5f604051905090565b5f80fd5b5f80fd5b5f80fd5b5f80fd5b5f601f19601f8301169050919050565b7f4e487b71000000000000000000000000000000000000000000000000000000005f52604160045260245ffd5b6100e6826100a0565b810181811067ffffffffffffffff82111715610105576101046100b0565b5b80604052505050565b5f610117610087565b905061012382826100dd565b919050565b5f67ffffffffffffffff821115610142576101416100b0565b5b61014b826100a0565b9050602081019050919050565b8281835e5f83830152505050565b5f61017861017384610128565b61010e565b9050828152602081018484840111156101945761019361009c565b5b61019f848285610158565b509392505050565b5f82601f8301126101bb576101ba610098565b5b81516101cb848260208601610166565b91505092915050565b5f73ffffffffffffffffffffffffffffffffffffffff82169050919050565b5f6101fd826101d4565b9050919050565b61020d816101f3565b8114610217575f80fd5b50565b5f8151905061022881610204565b92915050565b5f806040838503121561024457610243610090565b5b5f83015167ffffffffffffffff81111561026157610260610094565b5b61026d858286016101a7565b925050602061027e8582860161021a565b9150509250929050565b5f81519050919050565b7f4e487b71000000000000000000000000000000000000000000000000000000005f52602260045260245ffd5b5f60028204905060018216806102d657607f821691505b6020821081036102e9576102e8610292565b5b50919050565b5f819050815f5260205f209050919050565b5f6020601f8301049050919050565b5f82821b905092915050565b5f6008830261034b7fffffffffffffffffffffffffffffffffffffffffffffffffffffffffffffffff82610310565b6103558683610310565b95508019841693508086168417925050509392505050565b5f819050919050565b5f819050919050565b5f61039961039461038f8461036d565b610376565b61036d565b9050919050565b5f819050919050565b6103b28361037f565b6103c66103be826103a0565b84845461031c565b825550505050565b5f90565b6103da6103ce565b6103e58184846103a9565b505050565b5b81811015610408576103fd5f826103d2565b6001810190506103eb565b5050565b601f82111561044d5761041e816102ef565b61042784610301565b81016020851015610436578190505b61044a61044285610301565b8301826103ea565b50505b505050565b5f82821c905092915050565b5f61046d5f1984600802610452565b1980831691505092915050565b5f610485838361045e565b9150826002028217905092915050565b61049e82610288565b67ffffffffffffffff8111156104b7576104b66100b0565b5b6104c182546102bf565b6104cc82828561040c565b5f60209050601f8311600181146104fd575f84156104eb578287015190505b6104f5858261047a565b86555061055c565b601f19841661050b866102ef565b5f5b828110156105325784890151825560018201915060208501945060208101905061050d565b8683101561054f578489015161054b601f89168261045e565b8355505b6001600288020188555050505b505050505050565b610373806105715f395ff3fe608060405234801561000f575f80fd5b5060043610610029575f3560e01c8063510a890f1461002d575b5f80fd5b61003561004b565b6040516100429190610171565b60405180910390f35b606060015f9054906101000a900473ffffffffffffffffffffffffffffffffffffffff1673ffffffffffffffffffffffffffffffffffffffff163373ffffffffffffffffffffffffffffffffffffffff16146100dc576040517f08c379a00000000000000000000000000000000000000000000000000000000081526004016100d3906101db565b60405180910390fd5b5f6040516020016100ed9190610318565b604051602081830303815290604052905090565b5f81519050919050565b5f82825260208201905092915050565b8281835e5f83830152505050565b5f601f19601f8301169050919050565b5f61014382610101565b61014d818561010b565b935061015d81856020860161011b565b61016681610129565b840191505092915050565b5f6020820190508181035f8301526101898184610139565b905092915050565b7f6e6f74206f776e657221000000000000000000000000000000000000000000005f82015250565b5f6101c5600a8361010b565b91506101d082610191565b602082019050919050565b5f6020820190508181035f8301526101f2816101b9565b9050919050565b7f68656c6c6f200000000000000000000000000000000000000000000000000000815250565b7f4e487b71000000000000000000000000000000000000000000000000000000005f52602260045260245ffd5b5f600282049050600182168061026357607f821691505b6020821081036102765761027561021f565b5b50919050565b5f81905092915050565b5f819050815f5260205f209050919050565b5f81546102a48161024c565b6102ae818661027c565b9450600182165f81146102c857600181146102dd5761030f565b60ff198316865281151582028601935061030f565b6102e685610286565b5f5b83811015610307578154818901526001820191506020810190506102e8565b838801955050505b50505092915050565b5f610322826101f9565b6006820191506103328284610298565b91508190509291505056fea26469706673582212200d957befc1284606bfb92439d5fc4d8d45f3e18113d1cb81e6f0908fcc5a2e7964736f6c634300081a0033a2646970667358221220f72953f287236e38b0e74c105c00d0d5d08e8cf6f125ef2e308667de120dce1864736f6c634300081a0033",
					"opcodes": "PUSH1 0x80 PUSH1 0x40 MSTORE CALLER PUSH1 0x1 PUSH0 PUSH2 0x100 EXP DUP2 SLOAD DUP2 PUSH20 0xFFFFFFFFFFFFFFFFFFFFFFFFFFFFFFFFFFFFFFFF MUL NOT AND SWAP1 DUP4 PUSH20 0xFFFFFFFFFFFFFFFFFFFFFFFFFFFFFFFFFFFFFFFF AND MUL OR SWAP1 SSTORE POP CALLVALUE DUP1 ISZERO PUSH1 0x4E JUMPI PUSH0 DUP1 REVERT JUMPDEST POP PUSH2 0xCB8 DUP1 PUSH2 0x5C PUSH0 CODECOPY PUSH0 RETURN INVALID PUSH1 0x80 PUSH1 0x40 MSTORE CALLVALUE DUP1 ISZERO PUSH2 0xF JUMPI PUSH0 DUP1 REVERT JUMPDEST POP PUSH1 0x4 CALLDATASIZE LT PUSH2 0x29 JUMPI PUSH0 CALLDATALOAD PUSH1 0xE0 SHR DUP1 PUSH4 0xBF82A6AC EQ PUSH2 0x2D JUMPI JUMPDEST PUSH0 DUP1 REVERT JUMPDEST PUSH2 0x47 PUSH1 0x4 DUP1 CALLDATASIZE SUB DUP2 ADD SWAP1 PUSH2 0x42 SWAP2 SWAP1 PUSH2 0x271 JUMP JUMPDEST PUSH2 0x5D JUMP JUMPDEST PUSH1 0x40 MLOAD PUSH2 0x54 SWAP2 SWAP1 PUSH2 0x2F7 JUMP JUMPDEST PUSH1 0x40 MLOAD DUP1 SWAP2 SUB SWAP1 RETURN JUMPDEST PUSH0 DUP2 PUSH1 0x1 PUSH0 SWAP1 SLOAD SWAP1 PUSH2 0x100 EXP SWAP1 DIV PUSH20 0xFFFFFFFFFFFFFFFFFFFFFFFFFFFFFFFFFFFFFFFF AND PUSH1 0x40 MLOAD PUSH2 0x8D SWAP1 PUSH2 0x117 JUMP JUMPDEST PUSH2 0x98 SWAP3 SWAP2 SWAP1 PUSH2 0x370 JUMP JUMPDEST PUSH1 0x40 MLOAD DUP1 SWAP2 SUB SWAP1 PUSH0 CREATE DUP1 ISZERO DUP1 ISZERO PUSH2 0xB1 JUMPI RETURNDATASIZE PUSH0 DUP1 RETURNDATACOPY RETURNDATASIZE PUSH0 REVERT JUMPDEST POP PUSH0 DUP1 PUSH2 0x100 EXP DUP2 SLOAD DUP2 PUSH20 0xFFFFFFFFFFFFFFFFFFFFFFFFFFFFFFFFFFFFFFFF MUL NOT AND SWAP1 DUP4 PUSH20 0xFFFFFFFFFFFFFFFFFFFFFFFFFFFFFFFFFFFFFFFF AND MUL OR SWAP1 SSTORE POP PUSH0 DUP1 SLOAD SWAP1 PUSH2 0x100 EXP SWAP1 DIV PUSH20 0xFFFFFFFFFFFFFFFFFFFFFFFFFFFFFFFFFFFFFFFF AND SWAP1 POP SWAP2 SWAP1 POP JUMP JUMPDEST PUSH2 0x8E4 DUP1 PUSH2 0x39F DUP4 CODECOPY ADD SWAP1 JUMP JUMPDEST PUSH0 PUSH1 0x40 MLOAD SWAP1 POP SWAP1 JUMP JUMPDEST PUSH0 DUP1 REVERT JUMPDEST PUSH0 DUP1 REVERT JUMPDEST PUSH0 DUP1 REVERT JUMPDEST PUSH0 DUP1 REVERT JUMPDEST PUSH0 PUSH1 0x1F NOT PUSH1 0x1F DUP4 ADD AND SWAP1 POP SWAP2 SWAP1 POP JUMP JUMPDEST PUSH32 0x4E487B7100000000000000000000000000000000000000000000000000000000 PUSH0 MSTORE PUSH1 0x41 PUSH1 0x4 MSTORE PUSH1 0x24 PUSH0 REVERT JUMPDEST PUSH2 0x183 DUP3 PUSH2 0x13D JUMP JUMPDEST DUP2 ADD DUP2 DUP2 LT PUSH8 0xFFFFFFFFFFFFFFFF DUP3 GT OR ISZERO PUSH2 0x1A2 JUMPI PUSH2 0x1A1 PUSH2 0x14D JUMP JUMPDEST JUMPDEST DUP1 PUSH1 0x40 MSTORE POP POP POP JUMP JUMPDEST PUSH0 PUSH2 0x1B4 PUSH2 0x124 JUMP JUMPDEST SWAP1 POP PUSH2 0x1C0 DUP3 DUP3 PUSH2 0x17A JUMP JUMPDEST SWAP2 SWAP1 POP JUMP JUMPDEST PUSH0 PUSH8 0xFFFFFFFFFFFFFFFF DUP3 GT ISZERO PUSH2 0x1DF JUMPI PUSH2 0x1DE PUSH2 0x14D JUMP JUMPDEST JUMPDEST PUSH2 0x1E8 DUP3 PUSH2 0x13D JUMP JUMPDEST SWAP1 POP PUSH1 0x20 DUP2 ADD SWAP1 POP SWAP2 SWAP1 POP JUMP JUMPDEST DUP3 DUP2 DUP4 CALLDATACOPY PUSH0 DUP4 DUP4 ADD MSTORE POP POP POP JUMP JUMPDEST PUSH0 PUSH2 0x215 PUSH2 0x210 DUP5 PUSH2 0x1C5 JUMP JUMPDEST PUSH2 0x1AB JUMP JUMPDEST SWAP1 POP DUP3 DUP2 MSTORE PUSH1 0x20 DUP2 ADD DUP5 DUP5 DUP5 ADD GT ISZERO PUSH2 0x231 JUMPI PUSH2 0x230 PUSH2 0x139 JUMP JUMPDEST JUMPDEST PUSH2 0x23C DUP5 DUP3 DUP6 PUSH2 0x1F5 JUMP JUMPDEST POP SWAP4 SWAP3 POP POP POP JUMP JUMPDEST PUSH0 DUP3 PUSH1 0x1F DUP4 ADD SLT PUSH2 0x258 JUMPI PUSH2 0x257 PUSH2 0x135 JUMP JUMPDEST JUMPDEST DUP2 CALLDATALOAD PUSH2 0x268 DUP5 DUP3 PUSH1 0x20 DUP7 ADD PUSH2 0x203 JUMP JUMPDEST SWAP2 POP POP SWAP3 SWAP2 POP POP JUMP JUMPDEST PUSH0 PUSH1 0x20 DUP3 DUP5 SUB SLT ISZERO PUSH2 0x286 JUMPI PUSH2 0x285 PUSH2 0x12D JUMP JUMPDEST JUMPDEST PUSH0 DUP3 ADD CALLDATALOAD PUSH8 0xFFFFFFFFFFFFFFFF DUP2 GT ISZERO PUSH2 0x2A3 JUMPI PUSH2 0x2A2 PUSH2 0x131 JUMP JUMPDEST JUMPDEST PUSH2 0x2AF DUP5 DUP3 DUP6 ADD PUSH2 0x244 JUMP JUMPDEST SWAP2 POP POP SWAP3 SWAP2 POP POP JUMP JUMPDEST PUSH0 PUSH20 0xFFFFFFFFFFFFFFFFFFFFFFFFFFFFFFFFFFFFFFFF DUP3 AND SWAP1 POP SWAP2 SWAP1 POP JUMP JUMPDEST PUSH0 PUSH2 0x2E1 DUP3 PUSH2 0x2B8 JUMP JUMPDEST SWAP1 POP SWAP2 SWAP1 POP JUMP JUMPDEST PUSH2 0x2F1 DUP2 PUSH2 0x2D7 JUMP JUMPDEST DUP3 MSTORE POP POP JUMP JUMPDEST PUSH0 PUSH1 0x20 DUP3 ADD SWAP1 POP PUSH2 0x30A PUSH0 DUP4 ADD DUP5 PUSH2 0x2E8 JUMP JUMPDEST SWAP3 SWAP2 POP POP JUMP JUMPDEST PUSH0 DUP2 MLOAD SWAP1 POP SWAP2 SWAP1 POP JUMP JUMPDEST PUSH0 DUP3 DUP3 MSTORE PUSH1 0x20 DUP3 ADD SWAP1 POP SWAP3 SWAP2 POP POP JUMP JUMPDEST DUP3 DUP2 DUP4 MCOPY PUSH0 DUP4 DUP4 ADD MSTORE POP POP POP JUMP JUMPDEST PUSH0 PUSH2 0x342 DUP3 PUSH2 0x310 JUMP JUMPDEST PUSH2 0x34C DUP2 DUP6 PUSH2 0x31A JUMP JUMPDEST SWAP4 POP PUSH2 0x35C DUP2 DUP6 PUSH1 0x20 DUP7 ADD PUSH2 0x32A JUMP JUMPDEST PUSH2 0x365 DUP2 PUSH2 0x13D JUMP JUMPDEST DUP5 ADD SWAP2 POP POP SWAP3 SWAP2 POP POP JUMP JUMPDEST PUSH0 PUSH1 0x40 DUP3 ADD SWAP1 POP DUP2 DUP2 SUB PUSH0 DUP4 ADD MSTORE PUSH2 0x388 DUP2 DUP6 PUSH2 0x338 JUMP JUMPDEST SWAP1 POP PUSH2 0x397 PUSH1 0x20 DUP4 ADD DUP5 PUSH2 0x2E8 JUMP JUMPDEST SWAP4 SWAP3 POP POP POP JUMP INVALID PUSH1 0x80 PUSH1 0x40 MSTORE CALLVALUE DUP1 ISZERO PUSH2 0xF JUMPI PUSH0 DUP1 REVERT JUMPDEST POP PUSH1 0x40 MLOAD PUSH2 0x8E4 CODESIZE SUB DUP1 PUSH2 0x8E4 DUP4 CODECOPY DUP2 DUP2 ADD PUSH1 0x40 MSTORE DUP2 ADD SWAP1 PUSH2 0x31 SWAP2 SWAP1 PUSH2 0x22E JUMP JUMPDEST DUP2 PUSH0 SWAP1 DUP2 PUSH2 0x3F SWAP2 SWAP1 PUSH2 0x495 JUMP JUMPDEST POP DUP1 PUSH1 0x1 PUSH0 PUSH2 0x100 EXP DUP2 SLOAD DUP2 PUSH20 0xFFFFFFFFFFFFFFFFFFFFFFFFFFFFFFFFFFFFFFFF MUL NOT AND SWAP1 DUP4 PUSH20 0xFFFFFFFFFFFFFFFFFFFFFFFFFFFFFFFFFFFFFFFF AND MUL OR SWAP1 SSTORE POP POP POP PUSH2 0x564 JUMP JUMPDEST PUSH0 PUSH1 0x40 MLOAD SWAP1 POP SWAP1 JUMP JUMPDEST PUSH0 DUP1 REVERT JUMPDEST PUSH0 DUP1 REVERT JUMPDEST PUSH0 DUP1 REVERT JUMPDEST PUSH0 DUP1 REVERT JUMPDEST PUSH0 PUSH1 0x1F NOT PUSH1 0x1F DUP4 ADD AND SWAP1 POP SWAP2 SWAP1 POP JUMP JUMPDEST PUSH32 0x4E487B7100000000000000000000000000000000000000000000000000000000 PUSH0 MSTORE PUSH1 0x41 PUSH1 0x4 MSTORE PUSH1 0x24 PUSH0 REVERT JUMPDEST PUSH2 0xE6 DUP3 PUSH2 0xA0 JUMP JUMPDEST DUP2 ADD DUP2 DUP2 LT PUSH8 0xFFFFFFFFFFFFFFFF DUP3 GT OR ISZERO PUSH2 0x105 JUMPI PUSH2 0x104 PUSH2 0xB0 JUMP JUMPDEST JUMPDEST DUP1 PUSH1 0x40 MSTORE POP POP POP JUMP JUMPDEST PUSH0 PUSH2 0x117 PUSH2 0x87 JUMP JUMPDEST SWAP1 POP PUSH2 0x123 DUP3 DUP3 PUSH2 0xDD JUMP JUMPDEST SWAP2 SWAP1 POP JUMP JUMPDEST PUSH0 PUSH8 0xFFFFFFFFFFFFFFFF DUP3 GT ISZERO PUSH2 0x142 JUMPI PUSH2 0x141 PUSH2 0xB0 JUMP JUMPDEST JUMPDEST PUSH2 0x14B DUP3 PUSH2 0xA0 JUMP JUMPDEST SWAP1 POP PUSH1 0x20 DUP2 ADD SWAP1 POP SWAP2 SWAP1 POP JUMP JUMPDEST DUP3 DUP2 DUP4 MCOPY PUSH0 DUP4 DUP4 ADD MSTORE POP POP POP JUMP JUMPDEST PUSH0 PUSH2 0x178 PUSH2 0x173 DUP5 PUSH2 0x128 JUMP JUMPDEST PUSH2 0x10E JUMP JUMPDEST SWAP1 POP DUP3 DUP2 MSTORE PUSH1 0x20 DUP2 ADD DUP5 DUP5 DUP5 ADD GT ISZERO PUSH2 0x194 JUMPI PUSH2 0x193 PUSH2 0x9C JUMP JUMPDEST JUMPDEST PUSH2 0x19F DUP5 DUP3 DUP6 PUSH2 0x158 JUMP JUMPDEST POP SWAP4 SWAP3 POP POP POP JUMP JUMPDEST PUSH0 DUP3 PUSH1 0x1F DUP4 ADD SLT PUSH2 0x1BB JUMPI PUSH2 0x1BA PUSH2 0x98 JUMP JUMPDEST JUMPDEST DUP2 MLOAD PUSH2 0x1CB DUP5 DUP3 PUSH1 0x20 DUP7 ADD PUSH2 0x166 JUMP JUMPDEST SWAP2 POP POP SWAP3 SWAP2 POP POP JUMP JUMPDEST PUSH0 PUSH20 0xFFFFFFFFFFFFFFFFFFFFFFFFFFFFFFFFFFFFFFFF DUP3 AND SWAP1 POP SWAP2 SWAP1 POP JUMP JUMPDEST PUSH0 PUSH2 0x1FD DUP3 PUSH2 0x1D4 JUMP JUMPDEST SWAP1 POP SWAP2 SWAP1 POP JUMP JUMPDEST PUSH2 0x20D DUP2 PUSH2 0x1F3 JUMP JUMPDEST DUP2 EQ PUSH2 0x217 JUMPI PUSH0 DUP1 REVERT JUMPDEST POP JUMP JUMPDEST PUSH0 DUP2 MLOAD SWAP1 POP PUSH2 0x228 DUP2 PUSH2 0x204 JUMP JUMPDEST SWAP3 SWAP2 POP POP JUMP JUMPDEST PUSH0 DUP1 PUSH1 0x40 DUP4 DUP6 SUB SLT ISZERO PUSH2 0x244 JUMPI PUSH2 0x243 PUSH2 0x90 JUMP JUMPDEST JUMPDEST PUSH0 DUP4 ADD MLOAD PUSH8 0xFFFFFFFFFFFFFFFF DUP2 GT ISZERO PUSH2 0x261 JUMPI PUSH2 0x260 PUSH2 0x94 JUMP JUMPDEST JUMPDEST PUSH2 0x26D DUP6 DUP3 DUP7 ADD PUSH2 0x1A7 JUMP JUMPDEST SWAP3 POP POP PUSH1 0x20 PUSH2 0x27E DUP6 DUP3 DUP7 ADD PUSH2 0x21A JUMP JUMPDEST SWAP2 POP POP SWAP3 POP SWAP3 SWAP1 POP JUMP JUMPDEST PUSH0 DUP2 MLOAD SWAP1 POP SWAP2 SWAP1 POP JUMP JUMPDEST PUSH32 0x4E487B7100000000000000000000000000000000000000000000000000000000 PUSH0 MSTORE PUSH1 0x22 PUSH1 0x4 MSTORE PUSH1 0x24 PUSH0 REVERT JUMPDEST PUSH0 PUSH1 0x2 DUP3 DIV SWAP1 POP PUSH1 0x1 DUP3 AND DUP1 PUSH2 0x2D6 JUMPI PUSH1 0x7F DUP3 AND SWAP2 POP JUMPDEST PUSH1 0x20 DUP3 LT DUP2 SUB PUSH2 0x2E9 JUMPI PUSH2 0x2E8 PUSH2 0x292 JUMP JUMPDEST JUMPDEST POP SWAP2 SWAP1 POP JUMP JUMPDEST PUSH0 DUP2 SWAP1 POP DUP2 PUSH0 MSTORE PUSH1 0x20 PUSH0 KECCAK256 SWAP1 POP SWAP2 SWAP1 POP JUMP JUMPDEST PUSH0 PUSH1 0x20 PUSH1 0x1F DUP4 ADD DIV SWAP1 POP SWAP2 SWAP1 POP JUMP JUMPDEST PUSH0 DUP3 DUP3 SHL SWAP1 POP SWAP3 SWAP2 POP POP JUMP JUMPDEST PUSH0 PUSH1 0x8 DUP4 MUL PUSH2 0x34B PUSH32 0xFFFFFFFFFFFFFFFFFFFFFFFFFFFFFFFFFFFFFFFFFFFFFFFFFFFFFFFFFFFFFFFF DUP3 PUSH2 0x310 JUMP JUMPDEST PUSH2 0x355 DUP7 DUP4 PUSH2 0x310 JUMP JUMPDEST SWAP6 POP DUP1 NOT DUP5 AND SWAP4 POP DUP1 DUP7 AND DUP5 OR SWAP3 POP POP POP SWAP4 SWAP3 POP POP POP JUMP JUMPDEST PUSH0 DUP2 SWAP1 POP SWAP2 SWAP1 POP JUMP JUMPDEST PUSH0 DUP2 SWAP1 POP SWAP2 SWAP1 POP JUMP JUMPDEST PUSH0 PUSH2 0x399 PUSH2 0x394 PUSH2 0x38F DUP5 PUSH2 0x36D JUMP JUMPDEST PUSH2 0x376 JUMP JUMPDEST PUSH2 0x36D JUMP JUMPDEST SWAP1 POP SWAP2 SWAP1 POP JUMP JUMPDEST PUSH0 DUP2 SWAP1 POP SWAP2 SWAP1 POP JUMP JUMPDEST PUSH2 0x3B2 DUP4 PUSH2 0x37F JUMP JUMPDEST PUSH2 0x3C6 PUSH2 0x3BE DUP3 PUSH2 0x3A0 JUMP JUMPDEST DUP5 DUP5 SLOAD PUSH2 0x31C JUMP JUMPDEST DUP3 SSTORE POP POP POP POP JUMP JUMPDEST PUSH0 SWAP1 JUMP JUMPDEST PUSH2 0x3DA PUSH2 0x3CE JUMP JUMPDEST PUSH2 0x3E5 DUP2 DUP5 DUP5 PUSH2 0x3A9 JUMP JUMPDEST POP POP POP JUMP JUMPDEST JUMPDEST DUP2 DUP2 LT ISZERO PUSH2 0x408 JUMPI PUSH2 0x3FD PUSH0 DUP3 PUSH2 0x3D2 JUMP JUMPDEST PUSH1 0x1 DUP2 ADD SWAP1 POP PUSH2 0x3EB JUMP JUMPDEST POP POP JUMP JUMPDEST PUSH1 0x1F DUP3 GT ISZERO PUSH2 0x44D JUMPI PUSH2 0x41E DUP2 PUSH2 0x2EF JUMP JUMPDEST PUSH2 0x427 DUP5 PUSH2 0x301 JUMP JUMPDEST DUP2 ADD PUSH1 0x20 DUP6 LT ISZERO PUSH2 0x436 JUMPI DUP2 SWAP1 POP JUMPDEST PUSH2 0x44A PUSH2 0x442 DUP6 PUSH2 0x301 JUMP JUMPDEST DUP4 ADD DUP3 PUSH2 0x3EA JUMP JUMPDEST POP POP JUMPDEST POP POP POP JUMP JUMPDEST PUSH0 DUP3 DUP3 SHR SWAP1 POP SWAP3 SWAP2 POP POP JUMP JUMPDEST PUSH0 PUSH2 0x46D PUSH0 NOT DUP5 PUSH1 0x8 MUL PUSH2 0x452 JUMP JUMPDEST NOT DUP1 DUP4 AND SWAP2 POP POP SWAP3 SWAP2 POP POP JUMP JUMPDEST PUSH0 PUSH2 0x485 DUP4 DUP4 PUSH2 0x45E JUMP JUMPDEST SWAP2 POP DUP3 PUSH1 0x2 MUL DUP3 OR SWAP1 POP SWAP3 SWAP2 POP POP JUMP JUMPDEST PUSH2 0x49E DUP3 PUSH2 0x288 JUMP JUMPDEST PUSH8 0xFFFFFFFFFFFFFFFF DUP2 GT ISZERO PUSH2 0x4B7 JUMPI PUSH2 0x4B6 PUSH2 0xB0 JUMP JUMPDEST JUMPDEST PUSH2 0x4C1 DUP3 SLOAD PUSH2 0x2BF JUMP JUMPDEST PUSH2 0x4CC DUP3 DUP3 DUP6 PUSH2 0x40C JUMP JUMPDEST PUSH0 PUSH1 0x20 SWAP1 POP PUSH1 0x1F DUP4 GT PUSH1 0x1 DUP2 EQ PUSH2 0x4FD JUMPI PUSH0 DUP5 ISZERO PUSH2 0x4EB JUMPI DUP3 DUP8 ADD MLOAD SWAP1 POP JUMPDEST PUSH2 0x4F5 DUP6 DUP3 PUSH2 0x47A JUMP JUMPDEST DUP7 SSTORE POP PUSH2 0x55C JUMP JUMPDEST PUSH1 0x1F NOT DUP5 AND PUSH2 0x50B DUP7 PUSH2 0x2EF JUMP JUMPDEST PUSH0 JUMPDEST DUP3 DUP2 LT ISZERO PUSH2 0x532 JUMPI DUP5 DUP10 ADD MLOAD DUP3 SSTORE PUSH1 0x1 DUP3 ADD SWAP2 POP PUSH1 0x20 DUP6 ADD SWAP5 POP PUSH1 0x20 DUP2 ADD SWAP1 POP PUSH2 0x50D JUMP JUMPDEST DUP7 DUP4 LT ISZERO PUSH2 0x54F JUMPI DUP5 DUP10 ADD MLOAD PUSH2 0x54B PUSH1 0x1F DUP10 AND DUP3 PUSH2 0x45E JUMP JUMPDEST DUP4 SSTORE POP JUMPDEST PUSH1 0x1 PUSH1 0x2 DUP9 MUL ADD DUP9 SSTORE POP POP POP JUMPDEST POP POP POP POP POP POP JUMP JUMPDEST PUSH2 0x373 DUP1 PUSH2 0x571 PUSH0 CODECOPY PUSH0 RETURN INVALID PUSH1 0x80 PUSH1 0x40 MSTORE CALLVALUE DUP1 ISZERO PUSH2 0xF JUMPI PUSH0 DUP1 REVERT JUMPDEST POP PUSH1 0x4 CALLDATASIZE LT PUSH2 0x29 JUMPI PUSH0 CALLDATALOAD PUSH1 0xE0 SHR DUP1 PUSH4 0x510A890F EQ PUSH2 0x2D JUMPI JUMPDEST PUSH0 DUP1 REVERT JUMPDEST PUSH2 0x35 PUSH2 0x4B JUMP JUMPDEST PUSH1 0x40 MLOAD PUSH2 0x42 SWAP2 SWAP1 PUSH2 0x171 JUMP JUMPDEST PUSH1 0x40 MLOAD DUP1 SWAP2 SUB SWAP1 RETURN JUMPDEST PUSH1 0x60 PUSH1 0x1 PUSH0 SWAP1 SLOAD SWAP1 PUSH2 0x100 EXP SWAP1 DIV PUSH20 0xFFFFFFFFFFFFFFFFFFFFFFFFFFFFFFFFFFFFFFFF AND PUSH20 0xFFFFFFFFFFFFFFFFFFFFFFFFFFFFFFFFFFFFFFFF AND CALLER PUSH20 0xFFFFFFFFFFFFFFFFFFFFFFFFFFFFFFFFFFFFFFFF AND EQ PUSH2 0xDC JUMPI PUSH1 0x40 MLOAD PUSH32 0x8C379A000000000000000000000000000000000000000000000000000000000 DUP2 MSTORE PUSH1 0x4 ADD PUSH2 0xD3 SWAP1 PUSH2 0x1DB JUMP JUMPDEST PUSH1 0x40 MLOAD DUP1 SWAP2 SUB SWAP1 REVERT JUMPDEST PUSH0 PUSH1 0x40 MLOAD PUSH1 0x20 ADD PUSH2 0xED SWAP2 SWAP1 PUSH2 0x318 JUMP JUMPDEST PUSH1 0x40 MLOAD PUSH1 0x20 DUP2 DUP4 SUB SUB DUP2 MSTORE SWAP1 PUSH1 0x40 MSTORE SWAP1 POP SWAP1 JUMP JUMPDEST PUSH0 DUP2 MLOAD SWAP1 POP SWAP2 SWAP1 POP JUMP JUMPDEST PUSH0 DUP3 DUP3 MSTORE PUSH1 0x20 DUP3 ADD SWAP1 POP SWAP3 SWAP2 POP POP JUMP JUMPDEST DUP3 DUP2 DUP4 MCOPY PUSH0 DUP4 DUP4 ADD MSTORE POP POP POP JUMP JUMPDEST PUSH0 PUSH1 0x1F NOT PUSH1 0x1F DUP4 ADD AND SWAP1 POP SWAP2 SWAP1 POP JUMP JUMPDEST PUSH0 PUSH2 0x143 DUP3 PUSH2 0x101 JUMP JUMPDEST PUSH2 0x14D DUP2 DUP6 PUSH2 0x10B JUMP JUMPDEST SWAP4 POP PUSH2 0x15D DUP2 DUP6 PUSH1 0x20 DUP7 ADD PUSH2 0x11B JUMP JUMPDEST PUSH2 0x166 DUP2 PUSH2 0x129 JUMP JUMPDEST DUP5 ADD SWAP2 POP POP SWAP3 SWAP2 POP POP JUMP JUMPDEST PUSH0 PUSH1 0x20 DUP3 ADD SWAP1 POP DUP2 DUP2 SUB PUSH0 DUP4 ADD MSTORE PUSH2 0x189 DUP2 DUP5 PUSH2 0x139 JUMP JUMPDEST SWAP1 POP SWAP3 SWAP2 POP POP JUMP JUMPDEST PUSH32 0x6E6F74206F776E65722100000000000000000000000000000000000000000000 PUSH0 DUP3 ADD MSTORE POP JUMP JUMPDEST PUSH0 PUSH2 0x1C5 PUSH1 0xA DUP4 PUSH2 0x10B JUMP JUMPDEST SWAP2 POP PUSH2 0x1D0 DUP3 PUSH2 0x191 JUMP JUMPDEST PUSH1 0x20 DUP3 ADD SWAP1 POP SWAP2 SWAP1 POP JUMP JUMPDEST PUSH0 PUSH1 0x20 DUP3 ADD SWAP1 POP DUP2 DUP2 SUB PUSH0 DUP4 ADD MSTORE PUSH2 0x1F2 DUP2 PUSH2 0x1B9 JUMP JUMPDEST SWAP1 POP SWAP2 SWAP1 POP JUMP JUMPDEST PUSH32 0x68656C6C6F200000000000000000000000000000000000000000000000000000 DUP2 MSTORE POP JUMP JUMPDEST PUSH32 0x4E487B7100000000000000000000000000000000000000000000000000000000 PUSH0 MSTORE PUSH1 0x22 PUSH1 0x4 MSTORE PUSH1 0x24 PUSH0 REVERT JUMPDEST PUSH0 PUSH1 0x2 DUP3 DIV SWAP1 POP PUSH1 0x1 DUP3 AND DUP1 PUSH2 0x263 JUMPI PUSH1 0x7F DUP3 AND SWAP2 POP JUMPDEST PUSH1 0x20 DUP3 LT DUP2 SUB PUSH2 0x276 JUMPI PUSH2 0x275 PUSH2 0x21F JUMP JUMPDEST JUMPDEST POP SWAP2 SWAP1 POP JUMP JUMPDEST PUSH0 DUP2 SWAP1 POP SWAP3 SWAP2 POP POP JUMP JUMPDEST PUSH0 DUP2 SWAP1 POP DUP2 PUSH0 MSTORE PUSH1 0x20 PUSH0 KECCAK256 SWAP1 POP SWAP2 SWAP1 POP JUMP JUMPDEST PUSH0 DUP2 SLOAD PUSH2 0x2A4 DUP2 PUSH2 0x24C JUMP JUMPDEST PUSH2 0x2AE DUP2 DUP7 PUSH2 0x27C JUMP JUMPDEST SWAP5 POP PUSH1 0x1 DUP3 AND PUSH0 DUP2 EQ PUSH2 0x2C8 JUMPI PUSH1 0x1 DUP2 EQ PUSH2 0x2DD JUMPI PUSH2 0x30F JUMP JUMPDEST PUSH1 0xFF NOT DUP4 AND DUP7 MSTORE DUP2 ISZERO ISZERO DUP3 MUL DUP7 ADD SWAP4 POP PUSH2 0x30F JUMP JUMPDEST PUSH2 0x2E6 DUP6 PUSH2 0x286 JUMP JUMPDEST PUSH0 JUMPDEST DUP4 DUP2 LT ISZERO PUSH2 0x307 JUMPI DUP2 SLOAD DUP2 DUP10 ADD MSTORE PUSH1 0x1 DUP3 ADD SWAP2 POP PUSH1 0x20 DUP2 ADD SWAP1 POP PUSH2 0x2E8 JUMP JUMPDEST DUP4 DUP9 ADD SWAP6 POP POP POP JUMPDEST POP POP POP SWAP3 SWAP2 POP POP JUMP JUMPDEST PUSH0 PUSH2 0x322 DUP3 PUSH2 0x1F9 JUMP JUMPDEST PUSH1 0x6 DUP3 ADD SWAP2 POP PUSH2 0x332 DUP3 DUP5 PUSH2 0x298 JUMP JUMPDEST SWAP2 POP DUP2 SWAP1 POP SWAP3 SWAP2 POP POP JUMP INVALID LOG2 PUSH5 0x6970667358 0x22 SLT KECCAK256 0xD SWAP6 PUSH28 0xEFC1284606BFB92439D5FC4D8D45F3E18113D1CB81E6F0908FCC5A2E PUSH26 0x64736F6C634300081A0033A2646970667358221220F72953F287 0x23 PUSH15 0x38B0E74C105C00D0D5D08E8CF6F125 0xEF 0x2E ADDRESS DUP7 PUSH8 0xDE120DCE1864736F PUSH13 0x634300081A0033000000000000 "
				},
				"gasEstimates": {
					"creation": {
						"codeDepositCost": "651200",
						"executionCost": "24946",
						"totalCost": "676146"
					},
					"external": {
						"creator(string)": "infinite"
					}
				},
				"methodIdentifiers": {
					"creator(string)": "bf82a6ac"
				}
			},
			"storageLayout": {
				"storage": [
					{
						"astId": 47,
						"contract": "contracts/base/jik.sol:createMessageMore",
						"label": "hello",
						"offset": 0,
						"slot": "0",
						"type": "t_contract(CreateMe)44"
					},
					{
						"astId": 51,
						"contract": "contracts/base/jik.sol:createMessageMore",
						"label": "_owner_",
						"offset": 0,
						"slot": "1",
						"type": "t_address"
					}
				],
				"types": {
					"t_address": {
						"encoding": "inplace",
						"label": "address",
						"numberOfBytes": "20"
					},
					"t_contract(CreateMe)44": {
						"encoding": "inplace",
						"label": "contract CreateMe",
						"numberOfBytes": "20"
					}
				}
			},
			"userdoc": {
				"kind": "user",
				"methods": {},
				"version": 1
			}
		}
	}
}