{
	"contracts/import/flat.sol": {
		"Main": {
			"abi": [
				{
					"inputs": [],
					"name": "getHaiku",
					"outputs": [
						{
							"components": [
								{
									"internalType": "string",
									"name": "line1",
									"type": "string"
								},
								{
									"internalType": "string",
									"name": "line2",
									"type": "string"
								},
								{
									"internalType": "string",
									"name": "line3",
									"type": "string"
								}
							],
							"internalType": "struct SillyStringUtils.Haiku",
							"name": "",
							"type": "tuple"
						}
					],
					"stateMutability": "view",
					"type": "function"
				},
				{
					"inputs": [],
					"name": "haiku",
					"outputs": [
						{
							"internalType": "string",
							"name": "line1",
							"type": "string"
						},
						{
							"internalType": "string",
							"name": "line2",
							"type": "string"
						},
						{
							"internalType": "string",
							"name": "line3",
							"type": "string"
						}
					],
					"stateMutability": "view",
					"type": "function"
				},
				{
					"inputs": [
						{
							"internalType": "string",
							"name": "_a",
							"type": "string"
						},
						{
							"internalType": "string",
							"name": "_b",
							"type": "string"
						},
						{
							"internalType": "string",
							"name": "_c",
							"type": "string"
						}
					],
					"name": "saveHaiku",
					"outputs": [
						{
							"components": [
								{
									"internalType": "string",
									"name": "line1",
									"type": "string"
								},
								{
									"internalType": "string",
									"name": "line2",
									"type": "string"
								},
								{
									"internalType": "string",
									"name": "line3",
									"type": "string"
								}
							],
							"internalType": "struct SillyStringUtils.Haiku",
							"name": "",
							"type": "tuple"
						}
					],
					"stateMutability": "nonpayable",
					"type": "function"
				},
				{
					"inputs": [],
					"name": "shruggieHaiku",
					"outputs": [
						{
							"components": [
								{
									"internalType": "string",
									"name": "line1",
									"type": "string"
								},
								{
									"internalType": "string",
									"name": "line2",
									"type": "string"
								},
								{
									"internalType": "string",
									"name": "line3",
									"type": "string"
								}
							],
							"internalType": "struct SillyStringUtils.Haiku",
							"name": "",
							"type": "tuple"
						}
					],
					"stateMutability": "view",
					"type": "function"
				}
			],
			"devdoc": {
				"kind": "dev",
				"methods": {},
				"version": 1
			},
			"evm": {
				"assembly": "    /* \"contracts/import/flat.sol\":669:1468  contract Main{... */\n  mstore(0x40, 0x80)\n  callvalue\n  dup1\n  iszero\n  tag_1\n  jumpi\n  0x00\n  dup1\n  revert\ntag_1:\n  pop\n  dataSize(sub_0)\n  dup1\n  dataOffset(sub_0)\n  0x00\n  codecopy\n  0x00\n  return\nstop\n\nsub_0: assembly {\n        /* \"contracts/import/flat.sol\":669:1468  contract Main{... */\n      mstore(0x40, 0x80)\n      callvalue\n      dup1\n      iszero\n      tag_1\n      jumpi\n      0x00\n      dup1\n      revert\n    tag_1:\n      pop\n      jumpi(tag_2, lt(calldatasize, 0x04))\n      shr(0xe0, calldataload(0x00))\n      dup1\n      0x25eb69a9\n      eq\n      tag_3\n      jumpi\n      dup1\n      0x583dc769\n      eq\n      tag_4\n      jumpi\n      dup1\n      0x728d3c07\n      eq\n      tag_5\n      jumpi\n      dup1\n      0x8346cbef\n      eq\n      tag_6\n      jumpi\n    tag_2:\n      0x00\n      dup1\n      revert\n        /* \"contracts/import/flat.sol\":1092:1244  function getHaiku() public view returns (SillyStringUtils.Haiku memory){... */\n    tag_3:\n      tag_7\n      tag_8\n      jump\t// in\n    tag_7:\n      mload(0x40)\n      tag_9\n      swap2\n      swap1\n      tag_10\n      jump\t// in\n    tag_9:\n      mload(0x40)\n      dup1\n      swap2\n      sub\n      swap1\n      return\n        /* \"contracts/import/flat.sol\":894:1087  function saveHaiku(string memory _a,string memory _b,string memory _c) public returns(SillyStringUtils.Haiku memory){... */\n    tag_4:\n      tag_7\n      tag_12\n      calldatasize\n      0x04\n      tag_13\n      jump\t// in\n    tag_12:\n      tag_14\n      jump\t// in\n        /* \"contracts/import/flat.sol\":722:757  SillyStringUtils.Haiku public haiku */\n    tag_5:\n      tag_16\n      tag_17\n      jump\t// in\n    tag_16:\n      mload(0x40)\n      tag_9\n      swap4\n      swap3\n      swap2\n      swap1\n      tag_19\n      jump\t// in\n        /* \"contracts/import/flat.sol\":1249:1466  function shruggieHaiku() public view returns (SillyStringUtils.Haiku memory) {... */\n    tag_6:\n      tag_7\n      tag_21\n      jump\t// in\n        /* \"contracts/import/flat.sol\":1092:1244  function getHaiku() public view returns (SillyStringUtils.Haiku memory){... */\n    tag_8:\n        /* \"contracts/import/flat.sol\":1133:1162  SillyStringUtils.Haiku memory */\n      tag_23\n      mload(0x40)\n      dup1\n      0x60\n      add\n      0x40\n      mstore\n      dup1\n      0x60\n      dup2\n      mstore\n      0x20\n      add\n      0x60\n      dup2\n      mstore\n      0x20\n      add\n      0x60\n      dup2\n      mstore\n      pop\n      swap1\n      jump\n    tag_23:\n        /* \"contracts/import/flat.sol\":1230:1235  haiku */\n      0x00\n        /* \"contracts/import/flat.sol\":1223:1235  return haiku */\n      mload(0x40)\n      dup1\n      0x60\n      add\n      0x40\n      mstore\n      swap1\n      dup2\n      0x00\n      dup3\n      add\n      dup1\n      sload\n      tag_26\n      swap1\n      tag_27\n      jump\t// in\n    tag_26:\n      dup1\n      0x1f\n      add\n      0x20\n      dup1\n      swap2\n      div\n      mul\n      0x20\n      add\n      mload(0x40)\n      swap1\n      dup2\n      add\n      0x40\n      mstore\n      dup1\n      swap3\n      swap2\n      swap1\n      dup2\n      dup2\n      mstore\n      0x20\n      add\n      dup3\n      dup1\n      sload\n      tag_28\n      swap1\n      tag_27\n      jump\t// in\n    tag_28:\n      dup1\n      iszero\n      tag_29\n      jumpi\n      dup1\n      0x1f\n      lt\n      tag_30\n      jumpi\n      0x0100\n      dup1\n      dup4\n      sload\n      div\n      mul\n      dup4\n      mstore\n      swap2\n      0x20\n      add\n      swap2\n      jump(tag_29)\n    tag_30:\n      dup3\n      add\n      swap2\n      swap1\n      0x00\n      mstore\n      keccak256(0x00, 0x20)\n      swap1\n    tag_31:\n      dup2\n      sload\n      dup2\n      mstore\n      swap1\n      0x01\n      add\n      swap1\n      0x20\n      add\n      dup1\n      dup4\n      gt\n      tag_31\n      jumpi\n      dup3\n      swap1\n      sub\n      0x1f\n      and\n      dup3\n      add\n      swap2\n    tag_29:\n      pop\n      pop\n      pop\n      pop\n      pop\n      dup2\n      mstore\n      0x20\n      add\n      0x01\n      dup3\n      add\n      dup1\n      sload\n      tag_32\n      swap1\n      tag_27\n      jump\t// in\n    tag_32:\n      dup1\n      0x1f\n      add\n      0x20\n      dup1\n      swap2\n      div\n      mul\n      0x20\n      add\n      mload(0x40)\n      swap1\n      dup2\n      add\n      0x40\n      mstore\n      dup1\n      swap3\n      swap2\n      swap1\n      dup2\n      dup2\n      mstore\n      0x20\n      add\n      dup3\n      dup1\n      sload\n      tag_33\n      swap1\n      tag_27\n      jump\t// in\n    tag_33:\n      dup1\n      iszero\n      tag_34\n      jumpi\n      dup1\n      0x1f\n      lt\n      tag_35\n      jumpi\n      0x0100\n      dup1\n      dup4\n      sload\n      div\n      mul\n      dup4\n      mstore\n      swap2\n      0x20\n      add\n      swap2\n      jump(tag_34)\n    tag_35:\n      dup3\n      add\n      swap2\n      swap1\n      0x00\n      mstore\n      keccak256(0x00, 0x20)\n      swap1\n    tag_36:\n      dup2\n      sload\n      dup2\n      mstore\n      swap1\n      0x01\n      add\n      swap1\n      0x20\n      add\n      dup1\n      dup4\n      gt\n      tag_36\n      jumpi\n      dup3\n      swap1\n      sub\n      0x1f\n      and\n      dup3\n      add\n      swap2\n    tag_34:\n      pop\n      pop\n      pop\n      pop\n      pop\n      dup2\n      mstore\n      0x20\n      add\n      0x02\n      dup3\n      add\n      dup1\n      sload\n      tag_37\n      swap1\n      tag_27\n      jump\t// in\n    tag_37:\n      dup1\n      0x1f\n      add\n      0x20\n      dup1\n      swap2\n      div\n      mul\n      0x20\n      add\n      mload(0x40)\n      swap1\n      dup2\n      add\n      0x40\n      mstore\n      dup1\n      swap3\n      swap2\n      swap1\n      dup2\n      dup2\n      mstore\n      0x20\n      add\n      dup3\n      dup1\n      sload\n      tag_38\n      swap1\n      tag_27\n      jump\t// in\n    tag_38:\n      dup1\n      iszero\n      tag_39\n      jumpi\n      dup1\n      0x1f\n      lt\n      tag_40\n      jumpi\n      0x0100\n      dup1\n      dup4\n      sload\n      div\n      mul\n      dup4\n      mstore\n      swap2\n      0x20\n      add\n      swap2\n      jump(tag_39)\n    tag_40:\n      dup3\n      add\n      swap2\n      swap1\n      0x00\n      mstore\n      keccak256(0x00, 0x20)\n      swap1\n    tag_41:\n      dup2\n      sload\n      dup2\n      mstore\n      swap1\n      0x01\n      add\n      swap1\n      0x20\n      add\n      dup1\n      dup4\n      gt\n      tag_41\n      jumpi\n      dup3\n      swap1\n      sub\n      0x1f\n      and\n      dup3\n      add\n      swap2\n    tag_39:\n      pop\n      pop\n      pop\n      pop\n      pop\n      dup2\n      mstore\n      pop\n      pop\n      swap1\n      pop\n        /* \"contracts/import/flat.sol\":1092:1244  function getHaiku() public view returns (SillyStringUtils.Haiku memory){... */\n      swap1\n      jump\t// out\n        /* \"contracts/import/flat.sol\":894:1087  function saveHaiku(string memory _a,string memory _b,string memory _c) public returns(SillyStringUtils.Haiku memory){... */\n    tag_14:\n        /* \"contracts/import/flat.sol\":980:1009  SillyStringUtils.Haiku memory */\n      tag_42\n      mload(0x40)\n      dup1\n      0x60\n      add\n      0x40\n      mstore\n      dup1\n      0x60\n      dup2\n      mstore\n      0x20\n      add\n      0x60\n      dup2\n      mstore\n      0x20\n      add\n      0x60\n      dup2\n      mstore\n      pop\n      swap1\n      jump\n    tag_42:\n        /* \"contracts/import/flat.sol\":1026:1058  SillyStringUtils.Haiku(_a,_b,_c) */\n      0x40\n      dup1\n      mload\n      0x60\n      dup2\n      add\n      dup3\n      mstore\n      dup6\n      dup2\n      mstore\n      0x20\n      dup2\n      add\n      dup6\n      swap1\n      mstore\n      swap1\n      dup2\n      add\n      dup4\n      swap1\n      mstore\n      0x00\n      dup1\n        /* \"contracts/import/flat.sol\":1020:1058  haiku=SillyStringUtils.Haiku(_a,_b,_c) */\n      tag_44\n        /* \"contracts/import/flat.sol\":1049:1051  _a */\n      dup8\n      dup3\n        /* \"contracts/import/flat.sol\":1020:1058  haiku=SillyStringUtils.Haiku(_a,_b,_c) */\n      tag_45\n      jump\t// in\n    tag_44:\n      pop\n      0x20\n      dup3\n      add\n      mload\n      0x01\n      dup3\n      add\n      swap1\n      tag_46\n      swap1\n      dup3\n      tag_45\n      jump\t// in\n    tag_46:\n      pop\n      0x40\n      dup3\n      add\n      mload\n      0x02\n      dup3\n      add\n      swap1\n      tag_47\n      swap1\n      dup3\n      tag_45\n      jump\t// in\n    tag_47:\n      pop\n      swap1\n      pop\n      pop\n        /* \"contracts/import/flat.sol\":1075:1080  haiku */\n      0x00\n        /* \"contracts/import/flat.sol\":1068:1080  return haiku */\n      mload(0x40)\n      dup1\n      0x60\n      add\n      0x40\n      mstore\n      swap1\n      dup2\n      0x00\n      dup3\n      add\n      dup1\n      sload\n      tag_48\n      swap1\n      tag_27\n      jump\t// in\n    tag_48:\n      dup1\n      0x1f\n      add\n      0x20\n      dup1\n      swap2\n      div\n      mul\n      0x20\n      add\n      mload(0x40)\n      swap1\n      dup2\n      add\n      0x40\n      mstore\n      dup1\n      swap3\n      swap2\n      swap1\n      dup2\n      dup2\n      mstore\n      0x20\n      add\n      dup3\n      dup1\n      sload\n      tag_49\n      swap1\n      tag_27\n      jump\t// in\n    tag_49:\n      dup1\n      iszero\n      tag_50\n      jumpi\n      dup1\n      0x1f\n      lt\n      tag_51\n      jumpi\n      0x0100\n      dup1\n      dup4\n      sload\n      div\n      mul\n      dup4\n      mstore\n      swap2\n      0x20\n      add\n      swap2\n      jump(tag_50)\n    tag_51:\n      dup3\n      add\n      swap2\n      swap1\n      0x00\n      mstore\n      keccak256(0x00, 0x20)\n      swap1\n    tag_52:\n      dup2\n      sload\n      dup2\n      mstore\n      swap1\n      0x01\n      add\n      swap1\n      0x20\n      add\n      dup1\n      dup4\n      gt\n      tag_52\n      jumpi\n      dup3\n      swap1\n      sub\n      0x1f\n      and\n      dup3\n      add\n      swap2\n    tag_50:\n      pop\n      pop\n      pop\n      pop\n      pop\n      dup2\n      mstore\n      0x20\n      add\n      0x01\n      dup3\n      add\n      dup1\n      sload\n      tag_53\n      swap1\n      tag_27\n      jump\t// in\n    tag_53:\n      dup1\n      0x1f\n      add\n      0x20\n      dup1\n      swap2\n      div\n      mul\n      0x20\n      add\n      mload(0x40)\n      swap1\n      dup2\n      add\n      0x40\n      mstore\n      dup1\n      swap3\n      swap2\n      swap1\n      dup2\n      dup2\n      mstore\n      0x20\n      add\n      dup3\n      dup1\n      sload\n      tag_54\n      swap1\n      tag_27\n      jump\t// in\n    tag_54:\n      dup1\n      iszero\n      tag_55\n      jumpi\n      dup1\n      0x1f\n      lt\n      tag_56\n      jumpi\n      0x0100\n      dup1\n      dup4\n      sload\n      div\n      mul\n      dup4\n      mstore\n      swap2\n      0x20\n      add\n      swap2\n      jump(tag_55)\n    tag_56:\n      dup3\n      add\n      swap2\n      swap1\n      0x00\n      mstore\n      keccak256(0x00, 0x20)\n      swap1\n    tag_57:\n      dup2\n      sload\n      dup2\n      mstore\n      swap1\n      0x01\n      add\n      swap1\n      0x20\n      add\n      dup1\n      dup4\n      gt\n      tag_57\n      jumpi\n      dup3\n      swap1\n      sub\n      0x1f\n      and\n      dup3\n      add\n      swap2\n    tag_55:\n      pop\n      pop\n      pop\n      pop\n      pop\n      dup2\n      mstore\n      0x20\n      add\n      0x02\n      dup3\n      add\n      dup1\n      sload\n      tag_58\n      swap1\n      tag_27\n      jump\t// in\n    tag_58:\n      dup1\n      0x1f\n      add\n      0x20\n      dup1\n      swap2\n      div\n      mul\n      0x20\n      add\n      mload(0x40)\n      swap1\n      dup2\n      add\n      0x40\n      mstore\n      dup1\n      swap3\n      swap2\n      swap1\n      dup2\n      dup2\n      mstore\n      0x20\n      add\n      dup3\n      dup1\n      sload\n      tag_59\n      swap1\n      tag_27\n      jump\t// in\n    tag_59:\n      dup1\n      iszero\n      tag_60\n      jumpi\n      dup1\n      0x1f\n      lt\n      tag_61\n      jumpi\n      0x0100\n      dup1\n      dup4\n      sload\n      div\n      mul\n      dup4\n      mstore\n      swap2\n      0x20\n      add\n      swap2\n      jump(tag_60)\n    tag_61:\n      dup3\n      add\n      swap2\n      swap1\n      0x00\n      mstore\n      keccak256(0x00, 0x20)\n      swap1\n    tag_62:\n      dup2\n      sload\n      dup2\n      mstore\n      swap1\n      0x01\n      add\n      swap1\n      0x20\n      add\n      dup1\n      dup4\n      gt\n      tag_62\n      jumpi\n      dup3\n      swap1\n      sub\n      0x1f\n      and\n      dup3\n      add\n      swap2\n    tag_60:\n      pop\n      pop\n      pop\n      pop\n      pop\n      dup2\n      mstore\n      pop\n      pop\n      swap1\n      pop\n        /* \"contracts/import/flat.sol\":894:1087  function saveHaiku(string memory _a,string memory _b,string memory _c) public returns(SillyStringUtils.Haiku memory){... */\n      swap4\n      swap3\n      pop\n      pop\n      pop\n      jump\t// out\n        /* \"contracts/import/flat.sol\":722:757  SillyStringUtils.Haiku public haiku */\n    tag_17:\n      0x00\n      dup1\n      sload\n      dup2\n      swap1\n      tag_63\n      swap1\n      tag_27\n      jump\t// in\n    tag_63:\n      dup1\n      0x1f\n      add\n      0x20\n      dup1\n      swap2\n      div\n      mul\n      0x20\n      add\n      mload(0x40)\n      swap1\n      dup2\n      add\n      0x40\n      mstore\n      dup1\n      swap3\n      swap2\n      swap1\n      dup2\n      dup2\n      mstore\n      0x20\n      add\n      dup3\n      dup1\n      sload\n      tag_64\n      swap1\n      tag_27\n      jump\t// in\n    tag_64:\n      dup1\n      iszero\n      tag_65\n      jumpi\n      dup1\n      0x1f\n      lt\n      tag_66\n      jumpi\n      0x0100\n      dup1\n      dup4\n      sload\n      div\n      mul\n      dup4\n      mstore\n      swap2\n      0x20\n      add\n      swap2\n      jump(tag_65)\n    tag_66:\n      dup3\n      add\n      swap2\n      swap1\n      0x00\n      mstore\n      keccak256(0x00, 0x20)\n      swap1\n    tag_67:\n      dup2\n      sload\n      dup2\n      mstore\n      swap1\n      0x01\n      add\n      swap1\n      0x20\n      add\n      dup1\n      dup4\n      gt\n      tag_67\n      jumpi\n      dup3\n      swap1\n      sub\n      0x1f\n      and\n      dup3\n      add\n      swap2\n    tag_65:\n      pop\n      pop\n      pop\n      pop\n      pop\n      swap1\n      dup1\n      0x01\n      add\n      dup1\n      sload\n      tag_68\n      swap1\n      tag_27\n      jump\t// in\n    tag_68:\n      dup1\n      0x1f\n      add\n      0x20\n      dup1\n      swap2\n      div\n      mul\n      0x20\n      add\n      mload(0x40)\n      swap1\n      dup2\n      add\n      0x40\n      mstore\n      dup1\n      swap3\n      swap2\n      swap1\n      dup2\n      dup2\n      mstore\n      0x20\n      add\n      dup3\n      dup1\n      sload\n      tag_69\n      swap1\n      tag_27\n      jump\t// in\n    tag_69:\n      dup1\n      iszero\n      tag_70\n      jumpi\n      dup1\n      0x1f\n      lt\n      tag_71\n      jumpi\n      0x0100\n      dup1\n      dup4\n      sload\n      div\n      mul\n      dup4\n      mstore\n      swap2\n      0x20\n      add\n      swap2\n      jump(tag_70)\n    tag_71:\n      dup3\n      add\n      swap2\n      swap1\n      0x00\n      mstore\n      keccak256(0x00, 0x20)\n      swap1\n    tag_72:\n      dup2\n      sload\n      dup2\n      mstore\n      swap1\n      0x01\n      add\n      swap1\n      0x20\n      add\n      dup1\n      dup4\n      gt\n      tag_72\n      jumpi\n      dup3\n      swap1\n      sub\n      0x1f\n      and\n      dup3\n      add\n      swap2\n    tag_70:\n      pop\n      pop\n      pop\n      pop\n      pop\n      swap1\n      dup1\n      0x02\n      add\n      dup1\n      sload\n      tag_73\n      swap1\n      tag_27\n      jump\t// in\n    tag_73:\n      dup1\n      0x1f\n      add\n      0x20\n      dup1\n      swap2\n      div\n      mul\n      0x20\n      add\n      mload(0x40)\n      swap1\n      dup2\n      add\n      0x40\n      mstore\n      dup1\n      swap3\n      swap2\n      swap1\n      dup2\n      dup2\n      mstore\n      0x20\n      add\n      dup3\n      dup1\n      sload\n      tag_74\n      swap1\n      tag_27\n      jump\t// in\n    tag_74:\n      dup1\n      iszero\n      tag_75\n      jumpi\n      dup1\n      0x1f\n      lt\n      tag_76\n      jumpi\n      0x0100\n      dup1\n      dup4\n      sload\n      div\n      mul\n      dup4\n      mstore\n      swap2\n      0x20\n      add\n      swap2\n      jump(tag_75)\n    tag_76:\n      dup3\n      add\n      swap2\n      swap1\n      0x00\n      mstore\n      keccak256(0x00, 0x20)\n      swap1\n    tag_77:\n      dup2\n      sload\n      dup2\n      mstore\n      swap1\n      0x01\n      add\n      swap1\n      0x20\n      add\n      dup1\n      dup4\n      gt\n      tag_77\n      jumpi\n      dup3\n      swap1\n      sub\n      0x1f\n      and\n      dup3\n      add\n      swap2\n    tag_75:\n      pop\n      pop\n      pop\n      pop\n      pop\n      swap1\n      pop\n      dup4\n      jump\t// out\n        /* \"contracts/import/flat.sol\":1249:1466  function shruggieHaiku() public view returns (SillyStringUtils.Haiku memory) {... */\n    tag_21:\n        /* \"contracts/import/flat.sol\":1295:1324  SillyStringUtils.Haiku memory */\n      tag_78\n      mload(0x40)\n      dup1\n      0x60\n      add\n      0x40\n      mstore\n      dup1\n      0x60\n      dup2\n      mstore\n      0x20\n      add\n      0x60\n      dup2\n      mstore\n      0x20\n      add\n      0x60\n      dup2\n      mstore\n      pop\n      swap1\n      jump\n    tag_78:\n        /* \"contracts/import/flat.sol\":1336:1371  SillyStringUtils.Haiku memory ToAdd */\n      0x00\n        /* \"contracts/import/flat.sol\":1372:1377  haiku */\n      dup1\n        /* \"contracts/import/flat.sol\":1336:1377  SillyStringUtils.Haiku memory ToAdd=haiku */\n      mload(0x40)\n      dup1\n      0x60\n      add\n      0x40\n      mstore\n      swap1\n      dup2\n      0x00\n      dup3\n      add\n      dup1\n      sload\n      tag_80\n      swap1\n      tag_27\n      jump\t// in\n    tag_80:\n      dup1\n      0x1f\n      add\n      0x20\n      dup1\n      swap2\n      div\n      mul\n      0x20\n      add\n      mload(0x40)\n      swap1\n      dup2\n      add\n      0x40\n      mstore\n      dup1\n      swap3\n      swap2\n      swap1\n      dup2\n      dup2\n      mstore\n      0x20\n      add\n      dup3\n      dup1\n      sload\n      tag_81\n      swap1\n      tag_27\n      jump\t// in\n    tag_81:\n      dup1\n      iszero\n      tag_82\n      jumpi\n      dup1\n      0x1f\n      lt\n      tag_83\n      jumpi\n      0x0100\n      dup1\n      dup4\n      sload\n      div\n      mul\n      dup4\n      mstore\n      swap2\n      0x20\n      add\n      swap2\n      jump(tag_82)\n    tag_83:\n      dup3\n      add\n      swap2\n      swap1\n      0x00\n      mstore\n      keccak256(0x00, 0x20)\n      swap1\n    tag_84:\n      dup2\n      sload\n      dup2\n      mstore\n      swap1\n      0x01\n      add\n      swap1\n      0x20\n      add\n      dup1\n      dup4\n      gt\n      tag_84\n      jumpi\n      dup3\n      swap1\n      sub\n      0x1f\n      and\n      dup3\n      add\n      swap2\n    tag_82:\n      pop\n      pop\n      pop\n      pop\n      pop\n      dup2\n      mstore\n      0x20\n      add\n      0x01\n      dup3\n      add\n      dup1\n      sload\n      tag_85\n      swap1\n      tag_27\n      jump\t// in\n    tag_85:\n      dup1\n      0x1f\n      add\n      0x20\n      dup1\n      swap2\n      div\n      mul\n      0x20\n      add\n      mload(0x40)\n      swap1\n      dup2\n      add\n      0x40\n      mstore\n      dup1\n      swap3\n      swap2\n      swap1\n      dup2\n      dup2\n      mstore\n      0x20\n      add\n      dup3\n      dup1\n      sload\n      tag_86\n      swap1\n      tag_27\n      jump\t// in\n    tag_86:\n      dup1\n      iszero\n      tag_87\n      jumpi\n      dup1\n      0x1f\n      lt\n      tag_88\n      jumpi\n      0x0100\n      dup1\n      dup4\n      sload\n      div\n      mul\n      dup4\n      mstore\n      swap2\n      0x20\n      add\n      swap2\n      jump(tag_87)\n    tag_88:\n      dup3\n      add\n      swap2\n      swap1\n      0x00\n      mstore\n      keccak256(0x00, 0x20)\n      swap1\n    tag_89:\n      dup2\n      sload\n      dup2\n      mstore\n      swap1\n      0x01\n      add\n      swap1\n      0x20\n      add\n      dup1\n      dup4\n      gt\n      tag_89\n      jumpi\n      dup3\n      swap1\n      sub\n      0x1f\n      and\n      dup3\n      add\n      swap2\n    tag_87:\n      pop\n      pop\n      pop\n      pop\n      pop\n      dup2\n      mstore\n      0x20\n      add\n      0x02\n      dup3\n      add\n      dup1\n      sload\n      tag_90\n      swap1\n      tag_27\n      jump\t// in\n    tag_90:\n      dup1\n      0x1f\n      add\n      0x20\n      dup1\n      swap2\n      div\n      mul\n      0x20\n      add\n      mload(0x40)\n      swap1\n      dup2\n      add\n      0x40\n      mstore\n      dup1\n      swap3\n      swap2\n      swap1\n      dup2\n      dup2\n      mstore\n      0x20\n      add\n      dup3\n      dup1\n      sload\n      tag_91\n      swap1\n      tag_27\n      jump\t// in\n    tag_91:\n      dup1\n      iszero\n      tag_92\n      jumpi\n      dup1\n      0x1f\n      lt\n      tag_93\n      jumpi\n      0x0100\n      dup1\n      dup4\n      sload\n      div\n      mul\n      dup4\n      mstore\n      swap2\n      0x20\n      add\n      swap2\n      jump(tag_92)\n    tag_93:\n      dup3\n      add\n      swap2\n      swap1\n      0x00\n      mstore\n      keccak256(0x00, 0x20)\n      swap1\n    tag_94:\n      dup2\n      sload\n      dup2\n      mstore\n      swap1\n      0x01\n      add\n      swap1\n      0x20\n      add\n      dup1\n      dup4\n      gt\n      tag_94\n      jumpi\n      dup3\n      swap1\n      sub\n      0x1f\n      and\n      dup3\n      add\n      swap2\n    tag_92:\n      pop\n      pop\n      pop\n      pop\n      pop\n      dup2\n      mstore\n      pop\n      pop\n      swap1\n      pop\n        /* \"contracts/import/flat.sol\":1399:1437  SillyStringUtils.shruggie(haiku.line3) */\n      tag_95\n        /* \"contracts/import/flat.sol\":1425:1430  haiku */\n      0x00\n        /* \"contracts/import/flat.sol\":1425:1436  haiku.line3 */\n      0x02\n      add\n        /* \"contracts/import/flat.sol\":1399:1437  SillyStringUtils.shruggie(haiku.line3) */\n      dup1\n      sload\n      tag_96\n      swap1\n      tag_27\n      jump\t// in\n    tag_96:\n      dup1\n      0x1f\n      add\n      0x20\n      dup1\n      swap2\n      div\n      mul\n      0x20\n      add\n      mload(0x40)\n      swap1\n      dup2\n      add\n      0x40\n      mstore\n      dup1\n      swap3\n      swap2\n      swap1\n      dup2\n      dup2\n      mstore\n      0x20\n      add\n      dup3\n      dup1\n      sload\n      tag_97\n      swap1\n      tag_27\n      jump\t// in\n    tag_97:\n      dup1\n      iszero\n      tag_98\n      jumpi\n      dup1\n      0x1f\n      lt\n      tag_99\n      jumpi\n      0x0100\n      dup1\n      dup4\n      sload\n      div\n      mul\n      dup4\n      mstore\n      swap2\n      0x20\n      add\n      swap2\n      jump(tag_98)\n    tag_99:\n      dup3\n      add\n      swap2\n      swap1\n      0x00\n      mstore\n      keccak256(0x00, 0x20)\n      swap1\n    tag_100:\n      dup2\n      sload\n      dup2\n      mstore\n      swap1\n      0x01\n      add\n      swap1\n      0x20\n      add\n      dup1\n      dup4\n      gt\n      tag_100\n      jumpi\n      dup3\n      swap1\n      sub\n      0x1f\n      and\n      dup3\n      add\n      swap2\n    tag_98:\n      pop\n      pop\n      pop\n      pop\n      pop\n        /* \"contracts/import/flat.sol\":1399:1424  SillyStringUtils.shruggie */\n      tag_101\n        /* \"contracts/import/flat.sol\":1399:1437  SillyStringUtils.shruggie(haiku.line3) */\n      jump\t// in\n    tag_95:\n        /* \"contracts/import/flat.sol\":1387:1398  ToAdd.line3 */\n      0x40\n      dup3\n      add\n        /* \"contracts/import/flat.sol\":1387:1437  ToAdd.line3=SillyStringUtils.shruggie(haiku.line3) */\n      mstore\n        /* \"contracts/import/flat.sol\":1387:1392  ToAdd */\n      swap2\n        /* \"contracts/import/flat.sol\":1249:1466  function shruggieHaiku() public view returns (SillyStringUtils.Haiku memory) {... */\n      swap1\n      pop\n      jump\t// out\n        /* \"contracts/import/flat.sol\":360:499  function shruggie(string memory _input) internal pure returns (string memory) {... */\n    tag_101:\n        /* \"contracts/import/flat.sol\":423:436  string memory */\n      0x60\n        /* \"contracts/import/flat.sol\":469:475  _input */\n      dup2\n        /* \"contracts/import/flat.sol\":455:492  string.concat(_input, unicode\" 🤷\") */\n      add(0x20, mload(0x40))\n      tag_103\n      swap2\n      swap1\n      tag_104\n      jump\t// in\n    tag_103:\n      mload(0x40)\n      0x20\n      dup2\n      dup4\n      sub\n      sub\n      dup2\n      mstore\n      swap1\n      0x40\n      mstore\n        /* \"contracts/import/flat.sol\":448:492  return string.concat(_input, unicode\" 🤷\") */\n      swap1\n      pop\n        /* \"contracts/import/flat.sol\":360:499  function shruggie(string memory _input) internal pure returns (string memory) {... */\n      swap2\n      swap1\n      pop\n      jump\t// out\n        /* \"#utility.yul\":14:264   */\n    tag_105:\n        /* \"#utility.yul\":99:100   */\n      0x00\n        /* \"#utility.yul\":109:222   */\n    tag_114:\n        /* \"#utility.yul\":123:129   */\n      dup4\n        /* \"#utility.yul\":120:121   */\n      dup2\n        /* \"#utility.yul\":117:130   */\n      lt\n        /* \"#utility.yul\":109:222   */\n      iszero\n      tag_116\n      jumpi\n        /* \"#utility.yul\":199:210   */\n      dup2\n      dup2\n      add\n        /* \"#utility.yul\":193:211   */\n      mload\n        /* \"#utility.yul\":180:191   */\n      dup4\n      dup3\n      add\n        /* \"#utility.yul\":173:212   */\n      mstore\n        /* \"#utility.yul\":145:147   */\n      0x20\n        /* \"#utility.yul\":138:148   */\n      add\n        /* \"#utility.yul\":109:222   */\n      jump(tag_114)\n    tag_116:\n      pop\n      pop\n        /* \"#utility.yul\":256:257   */\n      0x00\n        /* \"#utility.yul\":238:254   */\n      swap2\n      add\n        /* \"#utility.yul\":231:258   */\n      mstore\n        /* \"#utility.yul\":14:264   */\n      jump\t// out\n        /* \"#utility.yul\":269:540   */\n    tag_106:\n        /* \"#utility.yul\":311:314   */\n      0x00\n        /* \"#utility.yul\":349:354   */\n      dup2\n        /* \"#utility.yul\":343:355   */\n      mload\n        /* \"#utility.yul\":376:382   */\n      dup1\n        /* \"#utility.yul\":371:374   */\n      dup5\n        /* \"#utility.yul\":364:383   */\n      mstore\n        /* \"#utility.yul\":392:468   */\n      tag_118\n        /* \"#utility.yul\":461:467   */\n      dup2\n        /* \"#utility.yul\":454:458   */\n      0x20\n        /* \"#utility.yul\":449:452   */\n      dup7\n        /* \"#utility.yul\":445:459   */\n      add\n        /* \"#utility.yul\":438:442   */\n      0x20\n        /* \"#utility.yul\":431:436   */\n      dup7\n        /* \"#utility.yul\":427:443   */\n      add\n        /* \"#utility.yul\":392:468   */\n      tag_105\n      jump\t// in\n    tag_118:\n        /* \"#utility.yul\":522:524   */\n      0x1f\n        /* \"#utility.yul\":501:516   */\n      add\n      not(0x1f)\n        /* \"#utility.yul\":497:526   */\n      and\n        /* \"#utility.yul\":488:527   */\n      swap3\n      swap1\n      swap3\n      add\n        /* \"#utility.yul\":529:533   */\n      0x20\n        /* \"#utility.yul\":484:534   */\n      add\n      swap3\n        /* \"#utility.yul\":269:540   */\n      swap2\n      pop\n      pop\n      jump\t// out\n        /* \"#utility.yul\":545:1273   */\n    tag_10:\n        /* \"#utility.yul\":714:716   */\n      0x20\n        /* \"#utility.yul\":703:712   */\n      dup2\n        /* \"#utility.yul\":696:717   */\n      mstore\n        /* \"#utility.yul\":677:681   */\n      0x00\n        /* \"#utility.yul\":752:758   */\n      dup3\n        /* \"#utility.yul\":746:759   */\n      mload\n        /* \"#utility.yul\":795:799   */\n      0x60\n        /* \"#utility.yul\":790:792   */\n      0x20\n        /* \"#utility.yul\":779:788   */\n      dup5\n        /* \"#utility.yul\":775:793   */\n      add\n        /* \"#utility.yul\":768:800   */\n      mstore\n        /* \"#utility.yul\":823:875   */\n      tag_120\n        /* \"#utility.yul\":870:873   */\n      0x80\n        /* \"#utility.yul\":859:868   */\n      dup5\n        /* \"#utility.yul\":855:874   */\n      add\n        /* \"#utility.yul\":841:853   */\n      dup3\n        /* \"#utility.yul\":823:875   */\n      tag_106\n      jump\t// in\n    tag_120:\n        /* \"#utility.yul\":809:875   */\n      swap1\n      pop\n        /* \"#utility.yul\":924:926   */\n      0x20\n        /* \"#utility.yul\":916:922   */\n      dup5\n        /* \"#utility.yul\":912:927   */\n      add\n        /* \"#utility.yul\":906:928   */\n      mload\n        /* \"#utility.yul\":951:953   */\n      0x1f\n        /* \"#utility.yul\":947:954   */\n      not\n        /* \"#utility.yul\":1018:1020   */\n      dup1\n        /* \"#utility.yul\":1006:1015   */\n      dup6\n        /* \"#utility.yul\":998:1004   */\n      dup5\n        /* \"#utility.yul\":994:1016   */\n      sub\n        /* \"#utility.yul\":990:1021   */\n      add\n        /* \"#utility.yul\":985:987   */\n      0x40\n        /* \"#utility.yul\":974:983   */\n      dup7\n        /* \"#utility.yul\":970:988   */\n      add\n        /* \"#utility.yul\":963:1022   */\n      mstore\n        /* \"#utility.yul\":1045:1086   */\n      tag_121\n        /* \"#utility.yul\":1079:1085   */\n      dup4\n        /* \"#utility.yul\":1063:1077   */\n      dup4\n        /* \"#utility.yul\":1045:1086   */\n      tag_106\n      jump\t// in\n    tag_121:\n        /* \"#utility.yul\":1031:1086   */\n      swap3\n      pop\n        /* \"#utility.yul\":1135:1137   */\n      0x40\n        /* \"#utility.yul\":1127:1133   */\n      dup7\n        /* \"#utility.yul\":1123:1138   */\n      add\n        /* \"#utility.yul\":1117:1139   */\n      mload\n        /* \"#utility.yul\":1095:1139   */\n      swap2\n      pop\n        /* \"#utility.yul\":1205:1207   */\n      dup1\n        /* \"#utility.yul\":1193:1202   */\n      dup6\n        /* \"#utility.yul\":1185:1191   */\n      dup5\n        /* \"#utility.yul\":1181:1203   */\n      sub\n        /* \"#utility.yul\":1177:1208   */\n      add\n        /* \"#utility.yul\":1170:1174   */\n      0x60\n        /* \"#utility.yul\":1159:1168   */\n      dup7\n        /* \"#utility.yul\":1155:1175   */\n      add\n        /* \"#utility.yul\":1148:1209   */\n      mstore\n      pop\n        /* \"#utility.yul\":1226:1267   */\n      tag_122\n        /* \"#utility.yul\":1260:1266   */\n      dup3\n        /* \"#utility.yul\":1244:1258   */\n      dup3\n        /* \"#utility.yul\":1226:1267   */\n      tag_106\n      jump\t// in\n    tag_122:\n        /* \"#utility.yul\":1218:1267   */\n      swap6\n        /* \"#utility.yul\":545:1273   */\n      swap5\n      pop\n      pop\n      pop\n      pop\n      pop\n      jump\t// out\n        /* \"#utility.yul\":1278:1405   */\n    tag_107:\n        /* \"#utility.yul\":1339:1349   */\n      0x4e487b71\n        /* \"#utility.yul\":1334:1337   */\n      0xe0\n        /* \"#utility.yul\":1330:1350   */\n      shl\n        /* \"#utility.yul\":1327:1328   */\n      0x00\n        /* \"#utility.yul\":1320:1351   */\n      mstore\n        /* \"#utility.yul\":1370:1374   */\n      0x41\n        /* \"#utility.yul\":1367:1368   */\n      0x04\n        /* \"#utility.yul\":1360:1375   */\n      mstore\n        /* \"#utility.yul\":1394:1398   */\n      0x24\n        /* \"#utility.yul\":1391:1392   */\n      0x00\n        /* \"#utility.yul\":1384:1399   */\n      revert\n        /* \"#utility.yul\":1410:2129   */\n    tag_108:\n        /* \"#utility.yul\":1453:1458   */\n      0x00\n        /* \"#utility.yul\":1506:1509   */\n      dup3\n        /* \"#utility.yul\":1499:1503   */\n      0x1f\n        /* \"#utility.yul\":1491:1497   */\n      dup4\n        /* \"#utility.yul\":1487:1504   */\n      add\n        /* \"#utility.yul\":1483:1510   */\n      slt\n        /* \"#utility.yul\":1473:1528   */\n      tag_125\n      jumpi\n        /* \"#utility.yul\":1524:1525   */\n      0x00\n        /* \"#utility.yul\":1521:1522   */\n      dup1\n        /* \"#utility.yul\":1514:1526   */\n      revert\n        /* \"#utility.yul\":1473:1528   */\n    tag_125:\n        /* \"#utility.yul\":1560:1566   */\n      dup2\n        /* \"#utility.yul\":1547:1567   */\n      calldataload\n        /* \"#utility.yul\":1586:1604   */\n      0xffffffffffffffff\n        /* \"#utility.yul\":1623:1625   */\n      dup1\n        /* \"#utility.yul\":1619:1621   */\n      dup3\n        /* \"#utility.yul\":1616:1626   */\n      gt\n        /* \"#utility.yul\":1613:1649   */\n      iszero\n      tag_127\n      jumpi\n        /* \"#utility.yul\":1629:1647   */\n      tag_127\n      tag_107\n      jump\t// in\n    tag_127:\n        /* \"#utility.yul\":1704:1706   */\n      0x40\n        /* \"#utility.yul\":1698:1707   */\n      mload\n        /* \"#utility.yul\":1672:1674   */\n      0x1f\n        /* \"#utility.yul\":1758:1771   */\n      dup4\n      add\n      not(0x1f)\n        /* \"#utility.yul\":1754:1776   */\n      swap1\n      dup2\n      and\n        /* \"#utility.yul\":1778:1780   */\n      0x3f\n        /* \"#utility.yul\":1750:1781   */\n      add\n        /* \"#utility.yul\":1746:1786   */\n      and\n        /* \"#utility.yul\":1734:1787   */\n      dup2\n      add\n      swap1\n        /* \"#utility.yul\":1802:1820   */\n      dup3\n      dup3\n      gt\n        /* \"#utility.yul\":1822:1844   */\n      dup2\n      dup4\n      lt\n        /* \"#utility.yul\":1799:1845   */\n      or\n        /* \"#utility.yul\":1796:1868   */\n      iszero\n      tag_129\n      jumpi\n        /* \"#utility.yul\":1848:1866   */\n      tag_129\n      tag_107\n      jump\t// in\n    tag_129:\n        /* \"#utility.yul\":1888:1898   */\n      dup2\n        /* \"#utility.yul\":1884:1886   */\n      0x40\n        /* \"#utility.yul\":1877:1899   */\n      mstore\n        /* \"#utility.yul\":1923:1925   */\n      dup4\n        /* \"#utility.yul\":1915:1921   */\n      dup2\n        /* \"#utility.yul\":1908:1926   */\n      mstore\n        /* \"#utility.yul\":1969:1972   */\n      dup7\n        /* \"#utility.yul\":1962:1966   */\n      0x20\n        /* \"#utility.yul\":1957:1959   */\n      dup6\n        /* \"#utility.yul\":1949:1955   */\n      dup9\n        /* \"#utility.yul\":1945:1960   */\n      add\n        /* \"#utility.yul\":1941:1967   */\n      add\n        /* \"#utility.yul\":1938:1973   */\n      gt\n        /* \"#utility.yul\":1935:1990   */\n      iszero\n      tag_130\n      jumpi\n        /* \"#utility.yul\":1986:1987   */\n      0x00\n        /* \"#utility.yul\":1983:1984   */\n      dup1\n        /* \"#utility.yul\":1976:1988   */\n      revert\n        /* \"#utility.yul\":1935:1990   */\n    tag_130:\n        /* \"#utility.yul\":2050:2052   */\n      dup4\n        /* \"#utility.yul\":2043:2047   */\n      0x20\n        /* \"#utility.yul\":2035:2041   */\n      dup8\n        /* \"#utility.yul\":2031:2048   */\n      add\n        /* \"#utility.yul\":2024:2028   */\n      0x20\n        /* \"#utility.yul\":2016:2022   */\n      dup4\n        /* \"#utility.yul\":2012:2029   */\n      add\n        /* \"#utility.yul\":1999:2053   */\n      calldatacopy\n        /* \"#utility.yul\":2097:2098   */\n      0x00\n        /* \"#utility.yul\":2090:2094   */\n      0x20\n        /* \"#utility.yul\":2085:2087   */\n      dup6\n        /* \"#utility.yul\":2077:2083   */\n      dup4\n        /* \"#utility.yul\":2073:2088   */\n      add\n        /* \"#utility.yul\":2069:2095   */\n      add\n        /* \"#utility.yul\":2062:2099   */\n      mstore\n        /* \"#utility.yul\":2117:2123   */\n      dup1\n        /* \"#utility.yul\":2108:2123   */\n      swap5\n      pop\n      pop\n      pop\n      pop\n      pop\n        /* \"#utility.yul\":1410:2129   */\n      swap3\n      swap2\n      pop\n      pop\n      jump\t// out\n        /* \"#utility.yul\":2134:2877   */\n    tag_13:\n        /* \"#utility.yul\":2241:2247   */\n      0x00\n        /* \"#utility.yul\":2249:2255   */\n      dup1\n        /* \"#utility.yul\":2257:2263   */\n      0x00\n        /* \"#utility.yul\":2310:2312   */\n      0x60\n        /* \"#utility.yul\":2298:2307   */\n      dup5\n        /* \"#utility.yul\":2289:2296   */\n      dup7\n        /* \"#utility.yul\":2285:2308   */\n      sub\n        /* \"#utility.yul\":2281:2313   */\n      slt\n        /* \"#utility.yul\":2278:2330   */\n      iszero\n      tag_132\n      jumpi\n        /* \"#utility.yul\":2326:2327   */\n      0x00\n        /* \"#utility.yul\":2323:2324   */\n      dup1\n        /* \"#utility.yul\":2316:2328   */\n      revert\n        /* \"#utility.yul\":2278:2330   */\n    tag_132:\n        /* \"#utility.yul\":2366:2375   */\n      dup4\n        /* \"#utility.yul\":2353:2376   */\n      calldataload\n        /* \"#utility.yul\":2395:2413   */\n      0xffffffffffffffff\n        /* \"#utility.yul\":2436:2438   */\n      dup1\n        /* \"#utility.yul\":2428:2434   */\n      dup3\n        /* \"#utility.yul\":2425:2439   */\n      gt\n        /* \"#utility.yul\":2422:2456   */\n      iszero\n      tag_133\n      jumpi\n        /* \"#utility.yul\":2452:2453   */\n      0x00\n        /* \"#utility.yul\":2449:2450   */\n      dup1\n        /* \"#utility.yul\":2442:2454   */\n      revert\n        /* \"#utility.yul\":2422:2456   */\n    tag_133:\n        /* \"#utility.yul\":2475:2525   */\n      tag_134\n        /* \"#utility.yul\":2517:2524   */\n      dup8\n        /* \"#utility.yul\":2508:2514   */\n      dup4\n        /* \"#utility.yul\":2497:2506   */\n      dup9\n        /* \"#utility.yul\":2493:2515   */\n      add\n        /* \"#utility.yul\":2475:2525   */\n      tag_108\n      jump\t// in\n    tag_134:\n        /* \"#utility.yul\":2465:2525   */\n      swap5\n      pop\n        /* \"#utility.yul\":2578:2580   */\n      0x20\n        /* \"#utility.yul\":2567:2576   */\n      dup7\n        /* \"#utility.yul\":2563:2581   */\n      add\n        /* \"#utility.yul\":2550:2582   */\n      calldataload\n        /* \"#utility.yul\":2534:2582   */\n      swap2\n      pop\n        /* \"#utility.yul\":2607:2609   */\n      dup1\n        /* \"#utility.yul\":2597:2605   */\n      dup3\n        /* \"#utility.yul\":2594:2610   */\n      gt\n        /* \"#utility.yul\":2591:2627   */\n      iszero\n      tag_135\n      jumpi\n        /* \"#utility.yul\":2623:2624   */\n      0x00\n        /* \"#utility.yul\":2620:2621   */\n      dup1\n        /* \"#utility.yul\":2613:2625   */\n      revert\n        /* \"#utility.yul\":2591:2627   */\n    tag_135:\n        /* \"#utility.yul\":2646:2698   */\n      tag_136\n        /* \"#utility.yul\":2690:2697   */\n      dup8\n        /* \"#utility.yul\":2679:2687   */\n      dup4\n        /* \"#utility.yul\":2668:2677   */\n      dup9\n        /* \"#utility.yul\":2664:2688   */\n      add\n        /* \"#utility.yul\":2646:2698   */\n      tag_108\n      jump\t// in\n    tag_136:\n        /* \"#utility.yul\":2636:2698   */\n      swap4\n      pop\n        /* \"#utility.yul\":2751:2753   */\n      0x40\n        /* \"#utility.yul\":2740:2749   */\n      dup7\n        /* \"#utility.yul\":2736:2754   */\n      add\n        /* \"#utility.yul\":2723:2755   */\n      calldataload\n        /* \"#utility.yul\":2707:2755   */\n      swap2\n      pop\n        /* \"#utility.yul\":2780:2782   */\n      dup1\n        /* \"#utility.yul\":2770:2778   */\n      dup3\n        /* \"#utility.yul\":2767:2783   */\n      gt\n        /* \"#utility.yul\":2764:2800   */\n      iszero\n      tag_137\n      jumpi\n        /* \"#utility.yul\":2796:2797   */\n      0x00\n        /* \"#utility.yul\":2793:2794   */\n      dup1\n        /* \"#utility.yul\":2786:2798   */\n      revert\n        /* \"#utility.yul\":2764:2800   */\n    tag_137:\n      pop\n        /* \"#utility.yul\":2819:2871   */\n      tag_138\n        /* \"#utility.yul\":2863:2870   */\n      dup7\n        /* \"#utility.yul\":2852:2860   */\n      dup3\n        /* \"#utility.yul\":2841:2850   */\n      dup8\n        /* \"#utility.yul\":2837:2861   */\n      add\n        /* \"#utility.yul\":2819:2871   */\n      tag_108\n      jump\t// in\n    tag_138:\n        /* \"#utility.yul\":2809:2871   */\n      swap2\n      pop\n      pop\n        /* \"#utility.yul\":2134:2877   */\n      swap3\n      pop\n      swap3\n      pop\n      swap3\n      jump\t// out\n        /* \"#utility.yul\":2882:3428   */\n    tag_19:\n        /* \"#utility.yul\":3127:3129   */\n      0x60\n        /* \"#utility.yul\":3116:3125   */\n      dup2\n        /* \"#utility.yul\":3109:3130   */\n      mstore\n        /* \"#utility.yul\":3090:3094   */\n      0x00\n        /* \"#utility.yul\":3153:3198   */\n      tag_140\n        /* \"#utility.yul\":3194:3196   */\n      0x60\n        /* \"#utility.yul\":3183:3192   */\n      dup4\n        /* \"#utility.yul\":3179:3197   */\n      add\n        /* \"#utility.yul\":3171:3177   */\n      dup7\n        /* \"#utility.yul\":3153:3198   */\n      tag_106\n      jump\t// in\n    tag_140:\n        /* \"#utility.yul\":3246:3255   */\n      dup3\n        /* \"#utility.yul\":3238:3244   */\n      dup2\n        /* \"#utility.yul\":3234:3256   */\n      sub\n        /* \"#utility.yul\":3229:3231   */\n      0x20\n        /* \"#utility.yul\":3218:3227   */\n      dup5\n        /* \"#utility.yul\":3214:3232   */\n      add\n        /* \"#utility.yul\":3207:3257   */\n      mstore\n        /* \"#utility.yul\":3280:3313   */\n      tag_141\n        /* \"#utility.yul\":3306:3312   */\n      dup2\n        /* \"#utility.yul\":3298:3304   */\n      dup7\n        /* \"#utility.yul\":3280:3313   */\n      tag_106\n      jump\t// in\n    tag_141:\n        /* \"#utility.yul\":3266:3313   */\n      swap1\n      pop\n        /* \"#utility.yul\":3361:3370   */\n      dup3\n        /* \"#utility.yul\":3353:3359   */\n      dup2\n        /* \"#utility.yul\":3349:3371   */\n      sub\n        /* \"#utility.yul\":3344:3346   */\n      0x40\n        /* \"#utility.yul\":3333:3342   */\n      dup5\n        /* \"#utility.yul\":3329:3347   */\n      add\n        /* \"#utility.yul\":3322:3372   */\n      mstore\n        /* \"#utility.yul\":3389:3422   */\n      tag_142\n        /* \"#utility.yul\":3415:3421   */\n      dup2\n        /* \"#utility.yul\":3407:3413   */\n      dup6\n        /* \"#utility.yul\":3389:3422   */\n      tag_106\n      jump\t// in\n    tag_142:\n        /* \"#utility.yul\":3381:3422   */\n      swap7\n        /* \"#utility.yul\":2882:3428   */\n      swap6\n      pop\n      pop\n      pop\n      pop\n      pop\n      pop\n      jump\t// out\n        /* \"#utility.yul\":3433:3813   */\n    tag_27:\n        /* \"#utility.yul\":3512:3513   */\n      0x01\n        /* \"#utility.yul\":3508:3520   */\n      dup2\n      dup2\n      shr\n      swap1\n        /* \"#utility.yul\":3555:3567   */\n      dup3\n      and\n      dup1\n        /* \"#utility.yul\":3576:3637   */\n      tag_144\n      jumpi\n        /* \"#utility.yul\":3630:3634   */\n      0x7f\n        /* \"#utility.yul\":3622:3628   */\n      dup3\n        /* \"#utility.yul\":3618:3635   */\n      and\n        /* \"#utility.yul\":3608:3635   */\n      swap2\n      pop\n        /* \"#utility.yul\":3576:3637   */\n    tag_144:\n        /* \"#utility.yul\":3683:3685   */\n      0x20\n        /* \"#utility.yul\":3675:3681   */\n      dup3\n        /* \"#utility.yul\":3672:3686   */\n      lt\n        /* \"#utility.yul\":3652:3670   */\n      dup2\n        /* \"#utility.yul\":3649:3687   */\n      sub\n        /* \"#utility.yul\":3646:3807   */\n      tag_145\n      jumpi\n        /* \"#utility.yul\":3729:3739   */\n      0x4e487b71\n        /* \"#utility.yul\":3724:3727   */\n      0xe0\n        /* \"#utility.yul\":3720:3740   */\n      shl\n        /* \"#utility.yul\":3717:3718   */\n      0x00\n        /* \"#utility.yul\":3710:3741   */\n      mstore\n        /* \"#utility.yul\":3764:3768   */\n      0x22\n        /* \"#utility.yul\":3761:3762   */\n      0x04\n        /* \"#utility.yul\":3754:3769   */\n      mstore\n        /* \"#utility.yul\":3792:3796   */\n      0x24\n        /* \"#utility.yul\":3789:3790   */\n      0x00\n        /* \"#utility.yul\":3782:3797   */\n      revert\n        /* \"#utility.yul\":3646:3807   */\n    tag_145:\n      pop\n        /* \"#utility.yul\":3433:3813   */\n      swap2\n      swap1\n      pop\n      jump\t// out\n        /* \"#utility.yul\":3944:4489   */\n    tag_110:\n        /* \"#utility.yul\":4046:4048   */\n      0x1f\n        /* \"#utility.yul\":4041:4044   */\n      dup3\n        /* \"#utility.yul\":4038:4049   */\n      gt\n        /* \"#utility.yul\":4035:4483   */\n      iszero\n      tag_148\n      jumpi\n        /* \"#utility.yul\":4082:4083   */\n      0x00\n        /* \"#utility.yul\":4107:4112   */\n      dup2\n        /* \"#utility.yul\":4103:4105   */\n      dup2\n        /* \"#utility.yul\":4096:4113   */\n      mstore\n        /* \"#utility.yul\":4152:4156   */\n      0x20\n        /* \"#utility.yul\":4148:4150   */\n      dup2\n        /* \"#utility.yul\":4138:4157   */\n      keccak256\n        /* \"#utility.yul\":4222:4224   */\n      0x1f\n        /* \"#utility.yul\":4210:4220   */\n      dup6\n        /* \"#utility.yul\":4206:4225   */\n      add\n        /* \"#utility.yul\":4203:4204   */\n      0x05\n        /* \"#utility.yul\":4199:4226   */\n      shr\n        /* \"#utility.yul\":4193:4197   */\n      dup2\n        /* \"#utility.yul\":4189:4227   */\n      add\n        /* \"#utility.yul\":4258:4262   */\n      0x20\n        /* \"#utility.yul\":4246:4256   */\n      dup7\n        /* \"#utility.yul\":4243:4263   */\n      lt\n        /* \"#utility.yul\":4240:4287   */\n      iszero\n      tag_149\n      jumpi\n      pop\n        /* \"#utility.yul\":4281:4285   */\n      dup1\n        /* \"#utility.yul\":4240:4287   */\n    tag_149:\n        /* \"#utility.yul\":4336:4338   */\n      0x1f\n        /* \"#utility.yul\":4331:4334   */\n      dup6\n        /* \"#utility.yul\":4327:4339   */\n      add\n        /* \"#utility.yul\":4324:4325   */\n      0x05\n        /* \"#utility.yul\":4320:4340   */\n      shr\n        /* \"#utility.yul\":4314:4318   */\n      dup3\n        /* \"#utility.yul\":4310:4341   */\n      add\n        /* \"#utility.yul\":4300:4341   */\n      swap2\n      pop\n        /* \"#utility.yul\":4391:4473   */\n    tag_150:\n        /* \"#utility.yul\":4409:4411   */\n      dup2\n        /* \"#utility.yul\":4402:4407   */\n      dup2\n        /* \"#utility.yul\":4399:4412   */\n      lt\n        /* \"#utility.yul\":4391:4473   */\n      iszero\n      tag_152\n      jumpi\n        /* \"#utility.yul\":4454:4471   */\n      dup3\n      dup2\n      sstore\n        /* \"#utility.yul\":4435:4436   */\n      0x01\n        /* \"#utility.yul\":4424:4437   */\n      add\n        /* \"#utility.yul\":4391:4473   */\n      jump(tag_150)\n    tag_152:\n        /* \"#utility.yul\":4395:4398   */\n      pop\n      pop\n      pop\n        /* \"#utility.yul\":4035:4483   */\n    tag_148:\n        /* \"#utility.yul\":3944:4489   */\n      pop\n      pop\n      pop\n      jump\t// out\n        /* \"#utility.yul\":4665:6017   */\n    tag_45:\n        /* \"#utility.yul\":4791:4794   */\n      dup2\n        /* \"#utility.yul\":4785:4795   */\n      mload\n        /* \"#utility.yul\":4818:4836   */\n      0xffffffffffffffff\n        /* \"#utility.yul\":4810:4816   */\n      dup2\n        /* \"#utility.yul\":4807:4837   */\n      gt\n        /* \"#utility.yul\":4804:4860   */\n      iszero\n      tag_156\n      jumpi\n        /* \"#utility.yul\":4840:4858   */\n      tag_156\n      tag_107\n      jump\t// in\n    tag_156:\n        /* \"#utility.yul\":4869:4966   */\n      tag_157\n        /* \"#utility.yul\":4959:4965   */\n      dup2\n        /* \"#utility.yul\":4919:4957   */\n      tag_158\n        /* \"#utility.yul\":4951:4955   */\n      dup5\n        /* \"#utility.yul\":4945:4956   */\n      sload\n        /* \"#utility.yul\":4919:4957   */\n      tag_27\n      jump\t// in\n    tag_158:\n        /* \"#utility.yul\":4913:4917   */\n      dup5\n        /* \"#utility.yul\":4869:4966   */\n      tag_110\n      jump\t// in\n    tag_157:\n        /* \"#utility.yul\":5021:5025   */\n      0x20\n      dup1\n        /* \"#utility.yul\":5085:5087   */\n      0x1f\n        /* \"#utility.yul\":5074:5088   */\n      dup4\n      gt\n        /* \"#utility.yul\":5102:5103   */\n      0x01\n        /* \"#utility.yul\":5097:5760   */\n      dup2\n      eq\n      tag_160\n      jumpi\n        /* \"#utility.yul\":5804:5805   */\n      0x00\n        /* \"#utility.yul\":5821:5827   */\n      dup5\n        /* \"#utility.yul\":5818:5907   */\n      iszero\n      tag_161\n      jumpi\n      pop\n        /* \"#utility.yul\":5873:5892   */\n      dup6\n      dup4\n      add\n        /* \"#utility.yul\":5867:5893   */\n      mload\n        /* \"#utility.yul\":5818:5907   */\n    tag_161:\n      not(0x00)\n        /* \"#utility.yul\":4622:4623   */\n      0x03\n        /* \"#utility.yul\":4618:4629   */\n      dup7\n      swap1\n      shl\n        /* \"#utility.yul\":4614:4638   */\n      shr\n        /* \"#utility.yul\":4610:4639   */\n      not\n        /* \"#utility.yul\":4600:4640   */\n      and\n        /* \"#utility.yul\":4646:4647   */\n      0x01\n        /* \"#utility.yul\":4642:4653   */\n      dup6\n      swap1\n      shl\n        /* \"#utility.yul\":4597:4654   */\n      or\n        /* \"#utility.yul\":5920:6001   */\n      dup6\n      sstore\n        /* \"#utility.yul\":5067:6011   */\n      jump(tag_152)\n        /* \"#utility.yul\":5097:5760   */\n    tag_160:\n        /* \"#utility.yul\":3891:3892   */\n      0x00\n        /* \"#utility.yul\":3884:3898   */\n      dup6\n      dup2\n      mstore\n        /* \"#utility.yul\":3928:3932   */\n      0x20\n        /* \"#utility.yul\":3915:3933   */\n      dup2\n      keccak256\n      not(0x1f)\n        /* \"#utility.yul\":5133:5153   */\n      dup7\n      and\n      swap2\n        /* \"#utility.yul\":5251:5487   */\n    tag_164:\n        /* \"#utility.yul\":5265:5272   */\n      dup3\n        /* \"#utility.yul\":5262:5263   */\n      dup2\n        /* \"#utility.yul\":5259:5273   */\n      lt\n        /* \"#utility.yul\":5251:5487   */\n      iszero\n      tag_166\n      jumpi\n        /* \"#utility.yul\":5354:5373   */\n      dup9\n      dup7\n      add\n        /* \"#utility.yul\":5348:5374   */\n      mload\n        /* \"#utility.yul\":5333:5375   */\n      dup3\n      sstore\n        /* \"#utility.yul\":5446:5473   */\n      swap5\n      dup5\n      add\n      swap5\n        /* \"#utility.yul\":5414:5415   */\n      0x01\n        /* \"#utility.yul\":5402:5416   */\n      swap1\n      swap2\n      add\n      swap1\n        /* \"#utility.yul\":5281:5300   */\n      dup5\n      add\n        /* \"#utility.yul\":5251:5487   */\n      jump(tag_164)\n    tag_166:\n        /* \"#utility.yul\":5255:5258   */\n      pop\n        /* \"#utility.yul\":5515:5521   */\n      dup6\n        /* \"#utility.yul\":5506:5513   */\n      dup3\n        /* \"#utility.yul\":5503:5522   */\n      lt\n        /* \"#utility.yul\":5500:5701   */\n      iszero\n      tag_167\n      jumpi\n        /* \"#utility.yul\":5576:5595   */\n      dup8\n      dup6\n      add\n        /* \"#utility.yul\":5570:5596   */\n      mload\n      not(0x00)\n        /* \"#utility.yul\":5659:5660   */\n      0x03\n        /* \"#utility.yul\":5655:5669   */\n      dup9\n      swap1\n      shl\n        /* \"#utility.yul\":5671:5674   */\n      0xf8\n        /* \"#utility.yul\":5651:5675   */\n      and\n        /* \"#utility.yul\":5647:5684   */\n      shr\n        /* \"#utility.yul\":5643:5685   */\n      not\n        /* \"#utility.yul\":5628:5686   */\n      and\n        /* \"#utility.yul\":5613:5687   */\n      dup2\n      sstore\n        /* \"#utility.yul\":5500:5701   */\n    tag_167:\n      pop\n      pop\n      pop\n      pop\n      pop\n        /* \"#utility.yul\":5747:5748   */\n      0x01\n        /* \"#utility.yul\":5731:5745   */\n      swap1\n      dup2\n      shl\n        /* \"#utility.yul\":5727:5749   */\n      add\n        /* \"#utility.yul\":5714:5750   */\n      swap1\n      sstore\n      pop\n        /* \"#utility.yul\":4665:6017   */\n      jump\t// out\n        /* \"#utility.yul\":6022:6482   */\n    tag_104:\n        /* \"#utility.yul\":6243:6246   */\n      0x00\n        /* \"#utility.yul\":6281:6287   */\n      dup3\n        /* \"#utility.yul\":6275:6288   */\n      mload\n        /* \"#utility.yul\":6297:6363   */\n      tag_169\n        /* \"#utility.yul\":6356:6362   */\n      dup2\n        /* \"#utility.yul\":6351:6354   */\n      dup5\n        /* \"#utility.yul\":6344:6348   */\n      0x20\n        /* \"#utility.yul\":6336:6342   */\n      dup8\n        /* \"#utility.yul\":6332:6349   */\n      add\n        /* \"#utility.yul\":6297:6363   */\n      tag_105\n      jump\t// in\n    tag_169:\n      shl(0xd8, 0x20f09fa4b7)\n        /* \"#utility.yul\":6385:6401   */\n      swap3\n      add\n        /* \"#utility.yul\":6410:6447   */\n      swap2\n      dup3\n      mstore\n      pop\n        /* \"#utility.yul\":6474:6475   */\n      0x05\n        /* \"#utility.yul\":6463:6476   */\n      add\n      swap2\n        /* \"#utility.yul\":6022:6482   */\n      swap1\n      pop\n      jump\t// out\n\n    auxdata: 0xa2646970667358221220847426e91bf08d6a2f7c7a52be343e380609d4ce995be5a4550126a3773ef15f64736f6c63430008110033\n}\n",
				"bytecode": {
					"linkReferences": {},
					"object": "608060405234801561001057600080fd5b50610cfa806100206000396000f3fe608060405234801561001057600080fd5b506004361061004c5760003560e01c806325eb69a914610051578063583dc7691461006f578063728d3c07146100825780638346cbef14610099575b600080fd5b6100596100a1565b6040516100669190610983565b60405180910390f35b61005961007d366004610a87565b61028d565b61008a6104d2565b60405161006693929190610b0f565b610059610680565b6100c560405180606001604052806060815260200160608152602001606081525090565b60006040518060600160405290816000820180546100e290610b52565b80601f016020809104026020016040519081016040528092919081815260200182805461010e90610b52565b801561015b5780601f106101305761010080835404028352916020019161015b565b820191906000526020600020905b81548152906001019060200180831161013e57829003601f168201915b5050505050815260200160018201805461017490610b52565b80601f01602080910402602001604051908101604052809291908181526020018280546101a090610b52565b80156101ed5780601f106101c2576101008083540402835291602001916101ed565b820191906000526020600020905b8154815290600101906020018083116101d057829003601f168201915b5050505050815260200160028201805461020690610b52565b80601f016020809104026020016040519081016040528092919081815260200182805461023290610b52565b801561027f5780601f106102545761010080835404028352916020019161027f565b820191906000526020600020905b81548152906001019060200180831161026257829003601f168201915b505050505081525050905090565b6102b160405180606001604052806060815260200160608152602001606081525090565b60408051606081018252858152602081018590529081018390526000806102d88782610bdb565b50602082015160018201906102ed9082610bdb565b50604082015160028201906103029082610bdb565b50905050600060405180606001604052908160008201805461032390610b52565b80601f016020809104026020016040519081016040528092919081815260200182805461034f90610b52565b801561039c5780601f106103715761010080835404028352916020019161039c565b820191906000526020600020905b81548152906001019060200180831161037f57829003601f168201915b505050505081526020016001820180546103b590610b52565b80601f01602080910402602001604051908101604052809291908181526020018280546103e190610b52565b801561042e5780601f106104035761010080835404028352916020019161042e565b820191906000526020600020905b81548152906001019060200180831161041157829003601f168201915b5050505050815260200160028201805461044790610b52565b80601f016020809104026020016040519081016040528092919081815260200182805461047390610b52565b80156104c05780601f10610495576101008083540402835291602001916104c0565b820191906000526020600020905b8154815290600101906020018083116104a357829003601f168201915b50505050508152505090509392505050565b6000805481906104e190610b52565b80601f016020809104026020016040519081016040528092919081815260200182805461050d90610b52565b801561055a5780601f1061052f5761010080835404028352916020019161055a565b820191906000526020600020905b81548152906001019060200180831161053d57829003601f168201915b50505050509080600101805461056f90610b52565b80601f016020809104026020016040519081016040528092919081815260200182805461059b90610b52565b80156105e85780601f106105bd576101008083540402835291602001916105e8565b820191906000526020600020905b8154815290600101906020018083116105cb57829003601f168201915b5050505050908060020180546105fd90610b52565b80601f016020809104026020016040519081016040528092919081815260200182805461062990610b52565b80156106765780601f1061064b57610100808354040283529160200191610676565b820191906000526020600020905b81548152906001019060200180831161065957829003601f168201915b5050505050905083565b6106a460405180606001604052806060815260200160608152602001606081525090565b6000806040518060600160405290816000820180546106c290610b52565b80601f01602080910402602001604051908101604052809291908181526020018280546106ee90610b52565b801561073b5780601f106107105761010080835404028352916020019161073b565b820191906000526020600020905b81548152906001019060200180831161071e57829003601f168201915b5050505050815260200160018201805461075490610b52565b80601f016020809104026020016040519081016040528092919081815260200182805461078090610b52565b80156107cd5780601f106107a2576101008083540402835291602001916107cd565b820191906000526020600020905b8154815290600101906020018083116107b057829003601f168201915b505050505081526020016002820180546107e690610b52565b80601f016020809104026020016040519081016040528092919081815260200182805461081290610b52565b801561085f5780601f106108345761010080835404028352916020019161085f565b820191906000526020600020905b81548152906001019060200180831161084257829003601f168201915b50505050508152505090506109006000600201805461087d90610b52565b80601f01602080910402602001604051908101604052809291908181526020018280546108a990610b52565b80156108f65780601f106108cb576101008083540402835291602001916108f6565b820191906000526020600020905b8154815290600101906020018083116108d957829003601f168201915b505050505061090a565b6040820152919050565b60608160405160200161091d9190610c9b565b6040516020818303038152906040529050919050565b60005b8381101561094e578181015183820152602001610936565b50506000910152565b6000815180845261096f816020860160208601610933565b601f01601f19169290920160200192915050565b60208152600082516060602084015261099f6080840182610957565b90506020840151601f19808584030160408601526109bd8383610957565b92506040860151915080858403016060860152506109db8282610957565b95945050505050565b634e487b7160e01b600052604160045260246000fd5b600082601f830112610a0b57600080fd5b813567ffffffffffffffff80821115610a2657610a266109e4565b604051601f8301601f19908116603f01168101908282118183101715610a4e57610a4e6109e4565b81604052838152866020858801011115610a6757600080fd5b836020870160208301376000602085830101528094505050505092915050565b600080600060608486031215610a9c57600080fd5b833567ffffffffffffffff80821115610ab457600080fd5b610ac0878388016109fa565b94506020860135915080821115610ad657600080fd5b610ae2878388016109fa565b93506040860135915080821115610af857600080fd5b50610b05868287016109fa565b9150509250925092565b606081526000610b226060830186610957565b8281036020840152610b348186610957565b90508281036040840152610b488185610957565b9695505050505050565b600181811c90821680610b6657607f821691505b602082108103610b8657634e487b7160e01b600052602260045260246000fd5b50919050565b601f821115610bd657600081815260208120601f850160051c81016020861015610bb35750805b601f850160051c820191505b81811015610bd257828155600101610bbf565b5050505b505050565b815167ffffffffffffffff811115610bf557610bf56109e4565b610c0981610c038454610b52565b84610b8c565b602080601f831160018114610c3e5760008415610c265750858301515b600019600386901b1c1916600185901b178555610bd2565b600085815260208120601f198616915b82811015610c6d57888601518255948401946001909101908401610c4e565b5085821015610c8b5787850151600019600388901b60f8161c191681555b5050505050600190811b01905550565b60008251610cad818460208701610933565b6420f09fa4b760d81b92019182525060050191905056fea2646970667358221220847426e91bf08d6a2f7c7a52be343e380609d4ce995be5a4550126a3773ef15f64736f6c63430008110033",
					"opcodes": "PUSH1 0x80 PUSH1 0x40 MSTORE CALLVALUE DUP1 ISZERO PUSH2 0x10 JUMPI PUSH1 0x0 DUP1 REVERT JUMPDEST POP PUSH2 0xCFA DUP1 PUSH2 0x20 PUSH1 0x0 CODECOPY PUSH1 0x0 RETURN INVALID PUSH1 0x80 PUSH1 0x40 MSTORE CALLVALUE DUP1 ISZERO PUSH2 0x10 JUMPI PUSH1 0x0 DUP1 REVERT JUMPDEST POP PUSH1 0x4 CALLDATASIZE LT PUSH2 0x4C JUMPI PUSH1 0x0 CALLDATALOAD PUSH1 0xE0 SHR DUP1 PUSH4 0x25EB69A9 EQ PUSH2 0x51 JUMPI DUP1 PUSH4 0x583DC769 EQ PUSH2 0x6F JUMPI DUP1 PUSH4 0x728D3C07 EQ PUSH2 0x82 JUMPI DUP1 PUSH4 0x8346CBEF EQ PUSH2 0x99 JUMPI JUMPDEST PUSH1 0x0 DUP1 REVERT JUMPDEST PUSH2 0x59 PUSH2 0xA1 JUMP JUMPDEST PUSH1 0x40 MLOAD PUSH2 0x66 SWAP2 SWAP1 PUSH2 0x983 JUMP JUMPDEST PUSH1 0x40 MLOAD DUP1 SWAP2 SUB SWAP1 RETURN JUMPDEST PUSH2 0x59 PUSH2 0x7D CALLDATASIZE PUSH1 0x4 PUSH2 0xA87 JUMP JUMPDEST PUSH2 0x28D JUMP JUMPDEST PUSH2 0x8A PUSH2 0x4D2 JUMP JUMPDEST PUSH1 0x40 MLOAD PUSH2 0x66 SWAP4 SWAP3 SWAP2 SWAP1 PUSH2 0xB0F JUMP JUMPDEST PUSH2 0x59 PUSH2 0x680 JUMP JUMPDEST PUSH2 0xC5 PUSH1 0x40 MLOAD DUP1 PUSH1 0x60 ADD PUSH1 0x40 MSTORE DUP1 PUSH1 0x60 DUP2 MSTORE PUSH1 0x20 ADD PUSH1 0x60 DUP2 MSTORE PUSH1 0x20 ADD PUSH1 0x60 DUP2 MSTORE POP SWAP1 JUMP JUMPDEST PUSH1 0x0 PUSH1 0x40 MLOAD DUP1 PUSH1 0x60 ADD PUSH1 0x40 MSTORE SWAP1 DUP2 PUSH1 0x0 DUP3 ADD DUP1 SLOAD PUSH2 0xE2 SWAP1 PUSH2 0xB52 JUMP JUMPDEST DUP1 PUSH1 0x1F ADD PUSH1 0x20 DUP1 SWAP2 DIV MUL PUSH1 0x20 ADD PUSH1 0x40 MLOAD SWAP1 DUP2 ADD PUSH1 0x40 MSTORE DUP1 SWAP3 SWAP2 SWAP1 DUP2 DUP2 MSTORE PUSH1 0x20 ADD DUP3 DUP1 SLOAD PUSH2 0x10E SWAP1 PUSH2 0xB52 JUMP JUMPDEST DUP1 ISZERO PUSH2 0x15B JUMPI DUP1 PUSH1 0x1F LT PUSH2 0x130 JUMPI PUSH2 0x100 DUP1 DUP4 SLOAD DIV MUL DUP4 MSTORE SWAP2 PUSH1 0x20 ADD SWAP2 PUSH2 0x15B JUMP JUMPDEST DUP3 ADD SWAP2 SWAP1 PUSH1 0x0 MSTORE PUSH1 0x20 PUSH1 0x0 KECCAK256 SWAP1 JUMPDEST DUP2 SLOAD DUP2 MSTORE SWAP1 PUSH1 0x1 ADD SWAP1 PUSH1 0x20 ADD DUP1 DUP4 GT PUSH2 0x13E JUMPI DUP3 SWAP1 SUB PUSH1 0x1F AND DUP3 ADD SWAP2 JUMPDEST POP POP POP POP POP DUP2 MSTORE PUSH1 0x20 ADD PUSH1 0x1 DUP3 ADD DUP1 SLOAD PUSH2 0x174 SWAP1 PUSH2 0xB52 JUMP JUMPDEST DUP1 PUSH1 0x1F ADD PUSH1 0x20 DUP1 SWAP2 DIV MUL PUSH1 0x20 ADD PUSH1 0x40 MLOAD SWAP1 DUP2 ADD PUSH1 0x40 MSTORE DUP1 SWAP3 SWAP2 SWAP1 DUP2 DUP2 MSTORE PUSH1 0x20 ADD DUP3 DUP1 SLOAD PUSH2 0x1A0 SWAP1 PUSH2 0xB52 JUMP JUMPDEST DUP1 ISZERO PUSH2 0x1ED JUMPI DUP1 PUSH1 0x1F LT PUSH2 0x1C2 JUMPI PUSH2 0x100 DUP1 DUP4 SLOAD DIV MUL DUP4 MSTORE SWAP2 PUSH1 0x20 ADD SWAP2 PUSH2 0x1ED JUMP JUMPDEST DUP3 ADD SWAP2 SWAP1 PUSH1 0x0 MSTORE PUSH1 0x20 PUSH1 0x0 KECCAK256 SWAP1 JUMPDEST DUP2 SLOAD DUP2 MSTORE SWAP1 PUSH1 0x1 ADD SWAP1 PUSH1 0x20 ADD DUP1 DUP4 GT PUSH2 0x1D0 JUMPI DUP3 SWAP1 SUB PUSH1 0x1F AND DUP3 ADD SWAP2 JUMPDEST POP POP POP POP POP DUP2 MSTORE PUSH1 0x20 ADD PUSH1 0x2 DUP3 ADD DUP1 SLOAD PUSH2 0x206 SWAP1 PUSH2 0xB52 JUMP JUMPDEST DUP1 PUSH1 0x1F ADD PUSH1 0x20 DUP1 SWAP2 DIV MUL PUSH1 0x20 ADD PUSH1 0x40 MLOAD SWAP1 DUP2 ADD PUSH1 0x40 MSTORE DUP1 SWAP3 SWAP2 SWAP1 DUP2 DUP2 MSTORE PUSH1 0x20 ADD DUP3 DUP1 SLOAD PUSH2 0x232 SWAP1 PUSH2 0xB52 JUMP JUMPDEST DUP1 ISZERO PUSH2 0x27F JUMPI DUP1 PUSH1 0x1F LT PUSH2 0x254 JUMPI PUSH2 0x100 DUP1 DUP4 SLOAD DIV MUL DUP4 MSTORE SWAP2 PUSH1 0x20 ADD SWAP2 PUSH2 0x27F JUMP JUMPDEST DUP3 ADD SWAP2 SWAP1 PUSH1 0x0 MSTORE PUSH1 0x20 PUSH1 0x0 KECCAK256 SWAP1 JUMPDEST DUP2 SLOAD DUP2 MSTORE SWAP1 PUSH1 0x1 ADD SWAP1 PUSH1 0x20 ADD DUP1 DUP4 GT PUSH2 0x262 JUMPI DUP3 SWAP1 SUB PUSH1 0x1F AND DUP3 ADD SWAP2 JUMPDEST POP POP POP POP POP DUP2 MSTORE POP POP SWAP1 POP SWAP1 JUMP JUMPDEST PUSH2 0x2B1 PUSH1 0x40 MLOAD DUP1 PUSH1 0x60 ADD PUSH1 0x40 MSTORE DUP1 PUSH1 0x60 DUP2 MSTORE PUSH1 0x20 ADD PUSH1 0x60 DUP2 MSTORE PUSH1 0x20 ADD PUSH1 0x60 DUP2 MSTORE POP SWAP1 JUMP JUMPDEST PUSH1 0x40 DUP1 MLOAD PUSH1 0x60 DUP2 ADD DUP3 MSTORE DUP6 DUP2 MSTORE PUSH1 0x20 DUP2 ADD DUP6 SWAP1 MSTORE SWAP1 DUP2 ADD DUP4 SWAP1 MSTORE PUSH1 0x0 DUP1 PUSH2 0x2D8 DUP8 DUP3 PUSH2 0xBDB JUMP JUMPDEST POP PUSH1 0x20 DUP3 ADD MLOAD PUSH1 0x1 DUP3 ADD SWAP1 PUSH2 0x2ED SWAP1 DUP3 PUSH2 0xBDB JUMP JUMPDEST POP PUSH1 0x40 DUP3 ADD MLOAD PUSH1 0x2 DUP3 ADD SWAP1 PUSH2 0x302 SWAP1 DUP3 PUSH2 0xBDB JUMP JUMPDEST POP SWAP1 POP POP PUSH1 0x0 PUSH1 0x40 MLOAD DUP1 PUSH1 0x60 ADD PUSH1 0x40 MSTORE SWAP1 DUP2 PUSH1 0x0 DUP3 ADD DUP1 SLOAD PUSH2 0x323 SWAP1 PUSH2 0xB52 JUMP JUMPDEST DUP1 PUSH1 0x1F ADD PUSH1 0x20 DUP1 SWAP2 DIV MUL PUSH1 0x20 ADD PUSH1 0x40 MLOAD SWAP1 DUP2 ADD PUSH1 0x40 MSTORE DUP1 SWAP3 SWAP2 SWAP1 DUP2 DUP2 MSTORE PUSH1 0x20 ADD DUP3 DUP1 SLOAD PUSH2 0x34F SWAP1 PUSH2 0xB52 JUMP JUMPDEST DUP1 ISZERO PUSH2 0x39C JUMPI DUP1 PUSH1 0x1F LT PUSH2 0x371 JUMPI PUSH2 0x100 DUP1 DUP4 SLOAD DIV MUL DUP4 MSTORE SWAP2 PUSH1 0x20 ADD SWAP2 PUSH2 0x39C JUMP JUMPDEST DUP3 ADD SWAP2 SWAP1 PUSH1 0x0 MSTORE PUSH1 0x20 PUSH1 0x0 KECCAK256 SWAP1 JUMPDEST DUP2 SLOAD DUP2 MSTORE SWAP1 PUSH1 0x1 ADD SWAP1 PUSH1 0x20 ADD DUP1 DUP4 GT PUSH2 0x37F JUMPI DUP3 SWAP1 SUB PUSH1 0x1F AND DUP3 ADD SWAP2 JUMPDEST POP POP POP POP POP DUP2 MSTORE PUSH1 0x20 ADD PUSH1 0x1 DUP3 ADD DUP1 SLOAD PUSH2 0x3B5 SWAP1 PUSH2 0xB52 JUMP JUMPDEST DUP1 PUSH1 0x1F ADD PUSH1 0x20 DUP1 SWAP2 DIV MUL PUSH1 0x20 ADD PUSH1 0x40 MLOAD SWAP1 DUP2 ADD PUSH1 0x40 MSTORE DUP1 SWAP3 SWAP2 SWAP1 DUP2 DUP2 MSTORE PUSH1 0x20 ADD DUP3 DUP1 SLOAD PUSH2 0x3E1 SWAP1 PUSH2 0xB52 JUMP JUMPDEST DUP1 ISZERO PUSH2 0x42E JUMPI DUP1 PUSH1 0x1F LT PUSH2 0x403 JUMPI PUSH2 0x100 DUP1 DUP4 SLOAD DIV MUL DUP4 MSTORE SWAP2 PUSH1 0x20 ADD SWAP2 PUSH2 0x42E JUMP JUMPDEST DUP3 ADD SWAP2 SWAP1 PUSH1 0x0 MSTORE PUSH1 0x20 PUSH1 0x0 KECCAK256 SWAP1 JUMPDEST DUP2 SLOAD DUP2 MSTORE SWAP1 PUSH1 0x1 ADD SWAP1 PUSH1 0x20 ADD DUP1 DUP4 GT PUSH2 0x411 JUMPI DUP3 SWAP1 SUB PUSH1 0x1F AND DUP3 ADD SWAP2 JUMPDEST POP POP POP POP POP DUP2 MSTORE PUSH1 0x20 ADD PUSH1 0x2 DUP3 ADD DUP1 SLOAD PUSH2 0x447 SWAP1 PUSH2 0xB52 JUMP JUMPDEST DUP1 PUSH1 0x1F ADD PUSH1 0x20 DUP1 SWAP2 DIV MUL PUSH1 0x20 ADD PUSH1 0x40 MLOAD SWAP1 DUP2 ADD PUSH1 0x40 MSTORE DUP1 SWAP3 SWAP2 SWAP1 DUP2 DUP2 MSTORE PUSH1 0x20 ADD DUP3 DUP1 SLOAD PUSH2 0x473 SWAP1 PUSH2 0xB52 JUMP JUMPDEST DUP1 ISZERO PUSH2 0x4C0 JUMPI DUP1 PUSH1 0x1F LT PUSH2 0x495 JUMPI PUSH2 0x100 DUP1 DUP4 SLOAD DIV MUL DUP4 MSTORE SWAP2 PUSH1 0x20 ADD SWAP2 PUSH2 0x4C0 JUMP JUMPDEST DUP3 ADD SWAP2 SWAP1 PUSH1 0x0 MSTORE PUSH1 0x20 PUSH1 0x0 KECCAK256 SWAP1 JUMPDEST DUP2 SLOAD DUP2 MSTORE SWAP1 PUSH1 0x1 ADD SWAP1 PUSH1 0x20 ADD DUP1 DUP4 GT PUSH2 0x4A3 JUMPI DUP3 SWAP1 SUB PUSH1 0x1F AND DUP3 ADD SWAP2 JUMPDEST POP POP POP POP POP DUP2 MSTORE POP POP SWAP1 POP SWAP4 SWAP3 POP POP POP JUMP JUMPDEST PUSH1 0x0 DUP1 SLOAD DUP2 SWAP1 PUSH2 0x4E1 SWAP1 PUSH2 0xB52 JUMP JUMPDEST DUP1 PUSH1 0x1F ADD PUSH1 0x20 DUP1 SWAP2 DIV MUL PUSH1 0x20 ADD PUSH1 0x40 MLOAD SWAP1 DUP2 ADD PUSH1 0x40 MSTORE DUP1 SWAP3 SWAP2 SWAP1 DUP2 DUP2 MSTORE PUSH1 0x20 ADD DUP3 DUP1 SLOAD PUSH2 0x50D SWAP1 PUSH2 0xB52 JUMP JUMPDEST DUP1 ISZERO PUSH2 0x55A JUMPI DUP1 PUSH1 0x1F LT PUSH2 0x52F JUMPI PUSH2 0x100 DUP1 DUP4 SLOAD DIV MUL DUP4 MSTORE SWAP2 PUSH1 0x20 ADD SWAP2 PUSH2 0x55A JUMP JUMPDEST DUP3 ADD SWAP2 SWAP1 PUSH1 0x0 MSTORE PUSH1 0x20 PUSH1 0x0 KECCAK256 SWAP1 JUMPDEST DUP2 SLOAD DUP2 MSTORE SWAP1 PUSH1 0x1 ADD SWAP1 PUSH1 0x20 ADD DUP1 DUP4 GT PUSH2 0x53D JUMPI DUP3 SWAP1 SUB PUSH1 0x1F AND DUP3 ADD SWAP2 JUMPDEST POP POP POP POP POP SWAP1 DUP1 PUSH1 0x1 ADD DUP1 SLOAD PUSH2 0x56F SWAP1 PUSH2 0xB52 JUMP JUMPDEST DUP1 PUSH1 0x1F ADD PUSH1 0x20 DUP1 SWAP2 DIV MUL PUSH1 0x20 ADD PUSH1 0x40 MLOAD SWAP1 DUP2 ADD PUSH1 0x40 MSTORE DUP1 SWAP3 SWAP2 SWAP1 DUP2 DUP2 MSTORE PUSH1 0x20 ADD DUP3 DUP1 SLOAD PUSH2 0x59B SWAP1 PUSH2 0xB52 JUMP JUMPDEST DUP1 ISZERO PUSH2 0x5E8 JUMPI DUP1 PUSH1 0x1F LT PUSH2 0x5BD JUMPI PUSH2 0x100 DUP1 DUP4 SLOAD DIV MUL DUP4 MSTORE SWAP2 PUSH1 0x20 ADD SWAP2 PUSH2 0x5E8 JUMP JUMPDEST DUP3 ADD SWAP2 SWAP1 PUSH1 0x0 MSTORE PUSH1 0x20 PUSH1 0x0 KECCAK256 SWAP1 JUMPDEST DUP2 SLOAD DUP2 MSTORE SWAP1 PUSH1 0x1 ADD SWAP1 PUSH1 0x20 ADD DUP1 DUP4 GT PUSH2 0x5CB JUMPI DUP3 SWAP1 SUB PUSH1 0x1F AND DUP3 ADD SWAP2 JUMPDEST POP POP POP POP POP SWAP1 DUP1 PUSH1 0x2 ADD DUP1 SLOAD PUSH2 0x5FD SWAP1 PUSH2 0xB52 JUMP JUMPDEST DUP1 PUSH1 0x1F ADD PUSH1 0x20 DUP1 SWAP2 DIV MUL PUSH1 0x20 ADD PUSH1 0x40 MLOAD SWAP1 DUP2 ADD PUSH1 0x40 MSTORE DUP1 SWAP3 SWAP2 SWAP1 DUP2 DUP2 MSTORE PUSH1 0x20 ADD DUP3 DUP1 SLOAD PUSH2 0x629 SWAP1 PUSH2 0xB52 JUMP JUMPDEST DUP1 ISZERO PUSH2 0x676 JUMPI DUP1 PUSH1 0x1F LT PUSH2 0x64B JUMPI PUSH2 0x100 DUP1 DUP4 SLOAD DIV MUL DUP4 MSTORE SWAP2 PUSH1 0x20 ADD SWAP2 PUSH2 0x676 JUMP JUMPDEST DUP3 ADD SWAP2 SWAP1 PUSH1 0x0 MSTORE PUSH1 0x20 PUSH1 0x0 KECCAK256 SWAP1 JUMPDEST DUP2 SLOAD DUP2 MSTORE SWAP1 PUSH1 0x1 ADD SWAP1 PUSH1 0x20 ADD DUP1 DUP4 GT PUSH2 0x659 JUMPI DUP3 SWAP1 SUB PUSH1 0x1F AND DUP3 ADD SWAP2 JUMPDEST POP POP POP POP POP SWAP1 POP DUP4 JUMP JUMPDEST PUSH2 0x6A4 PUSH1 0x40 MLOAD DUP1 PUSH1 0x60 ADD PUSH1 0x40 MSTORE DUP1 PUSH1 0x60 DUP2 MSTORE PUSH1 0x20 ADD PUSH1 0x60 DUP2 MSTORE PUSH1 0x20 ADD PUSH1 0x60 DUP2 MSTORE POP SWAP1 JUMP JUMPDEST PUSH1 0x0 DUP1 PUSH1 0x40 MLOAD DUP1 PUSH1 0x60 ADD PUSH1 0x40 MSTORE SWAP1 DUP2 PUSH1 0x0 DUP3 ADD DUP1 SLOAD PUSH2 0x6C2 SWAP1 PUSH2 0xB52 JUMP JUMPDEST DUP1 PUSH1 0x1F ADD PUSH1 0x20 DUP1 SWAP2 DIV MUL PUSH1 0x20 ADD PUSH1 0x40 MLOAD SWAP1 DUP2 ADD PUSH1 0x40 MSTORE DUP1 SWAP3 SWAP2 SWAP1 DUP2 DUP2 MSTORE PUSH1 0x20 ADD DUP3 DUP1 SLOAD PUSH2 0x6EE SWAP1 PUSH2 0xB52 JUMP JUMPDEST DUP1 ISZERO PUSH2 0x73B JUMPI DUP1 PUSH1 0x1F LT PUSH2 0x710 JUMPI PUSH2 0x100 DUP1 DUP4 SLOAD DIV MUL DUP4 MSTORE SWAP2 PUSH1 0x20 ADD SWAP2 PUSH2 0x73B JUMP JUMPDEST DUP3 ADD SWAP2 SWAP1 PUSH1 0x0 MSTORE PUSH1 0x20 PUSH1 0x0 KECCAK256 SWAP1 JUMPDEST DUP2 SLOAD DUP2 MSTORE SWAP1 PUSH1 0x1 ADD SWAP1 PUSH1 0x20 ADD DUP1 DUP4 GT PUSH2 0x71E JUMPI DUP3 SWAP1 SUB PUSH1 0x1F AND DUP3 ADD SWAP2 JUMPDEST POP POP POP POP POP DUP2 MSTORE PUSH1 0x20 ADD PUSH1 0x1 DUP3 ADD DUP1 SLOAD PUSH2 0x754 SWAP1 PUSH2 0xB52 JUMP JUMPDEST DUP1 PUSH1 0x1F ADD PUSH1 0x20 DUP1 SWAP2 DIV MUL PUSH1 0x20 ADD PUSH1 0x40 MLOAD SWAP1 DUP2 ADD PUSH1 0x40 MSTORE DUP1 SWAP3 SWAP2 SWAP1 DUP2 DUP2 MSTORE PUSH1 0x20 ADD DUP3 DUP1 SLOAD PUSH2 0x780 SWAP1 PUSH2 0xB52 JUMP JUMPDEST DUP1 ISZERO PUSH2 0x7CD JUMPI DUP1 PUSH1 0x1F LT PUSH2 0x7A2 JUMPI PUSH2 0x100 DUP1 DUP4 SLOAD DIV MUL DUP4 MSTORE SWAP2 PUSH1 0x20 ADD SWAP2 PUSH2 0x7CD JUMP JUMPDEST DUP3 ADD SWAP2 SWAP1 PUSH1 0x0 MSTORE PUSH1 0x20 PUSH1 0x0 KECCAK256 SWAP1 JUMPDEST DUP2 SLOAD DUP2 MSTORE SWAP1 PUSH1 0x1 ADD SWAP1 PUSH1 0x20 ADD DUP1 DUP4 GT PUSH2 0x7B0 JUMPI DUP3 SWAP1 SUB PUSH1 0x1F AND DUP3 ADD SWAP2 JUMPDEST POP POP POP POP POP DUP2 MSTORE PUSH1 0x20 ADD PUSH1 0x2 DUP3 ADD DUP1 SLOAD PUSH2 0x7E6 SWAP1 PUSH2 0xB52 JUMP JUMPDEST DUP1 PUSH1 0x1F ADD PUSH1 0x20 DUP1 SWAP2 DIV MUL PUSH1 0x20 ADD PUSH1 0x40 MLOAD SWAP1 DUP2 ADD PUSH1 0x40 MSTORE DUP1 SWAP3 SWAP2 SWAP1 DUP2 DUP2 MSTORE PUSH1 0x20 ADD DUP3 DUP1 SLOAD PUSH2 0x812 SWAP1 PUSH2 0xB52 JUMP JUMPDEST DUP1 ISZERO PUSH2 0x85F JUMPI DUP1 PUSH1 0x1F LT PUSH2 0x834 JUMPI PUSH2 0x100 DUP1 DUP4 SLOAD DIV MUL DUP4 MSTORE SWAP2 PUSH1 0x20 ADD SWAP2 PUSH2 0x85F JUMP JUMPDEST DUP3 ADD SWAP2 SWAP1 PUSH1 0x0 MSTORE PUSH1 0x20 PUSH1 0x0 KECCAK256 SWAP1 JUMPDEST DUP2 SLOAD DUP2 MSTORE SWAP1 PUSH1 0x1 ADD SWAP1 PUSH1 0x20 ADD DUP1 DUP4 GT PUSH2 0x842 JUMPI DUP3 SWAP1 SUB PUSH1 0x1F AND DUP3 ADD SWAP2 JUMPDEST POP POP POP POP POP DUP2 MSTORE POP POP SWAP1 POP PUSH2 0x900 PUSH1 0x0 PUSH1 0x2 ADD DUP1 SLOAD PUSH2 0x87D SWAP1 PUSH2 0xB52 JUMP JUMPDEST DUP1 PUSH1 0x1F ADD PUSH1 0x20 DUP1 SWAP2 DIV MUL PUSH1 0x20 ADD PUSH1 0x40 MLOAD SWAP1 DUP2 ADD PUSH1 0x40 MSTORE DUP1 SWAP3 SWAP2 SWAP1 DUP2 DUP2 MSTORE PUSH1 0x20 ADD DUP3 DUP1 SLOAD PUSH2 0x8A9 SWAP1 PUSH2 0xB52 JUMP JUMPDEST DUP1 ISZERO PUSH2 0x8F6 JUMPI DUP1 PUSH1 0x1F LT PUSH2 0x8CB JUMPI PUSH2 0x100 DUP1 DUP4 SLOAD DIV MUL DUP4 MSTORE SWAP2 PUSH1 0x20 ADD SWAP2 PUSH2 0x8F6 JUMP JUMPDEST DUP3 ADD SWAP2 SWAP1 PUSH1 0x0 MSTORE PUSH1 0x20 PUSH1 0x0 KECCAK256 SWAP1 JUMPDEST DUP2 SLOAD DUP2 MSTORE SWAP1 PUSH1 0x1 ADD SWAP1 PUSH1 0x20 ADD DUP1 DUP4 GT PUSH2 0x8D9 JUMPI DUP3 SWAP1 SUB PUSH1 0x1F AND DUP3 ADD SWAP2 JUMPDEST POP POP POP POP POP PUSH2 0x90A JUMP JUMPDEST PUSH1 0x40 DUP3 ADD MSTORE SWAP2 SWAP1 POP JUMP JUMPDEST PUSH1 0x60 DUP2 PUSH1 0x40 MLOAD PUSH1 0x20 ADD PUSH2 0x91D SWAP2 SWAP1 PUSH2 0xC9B JUMP JUMPDEST PUSH1 0x40 MLOAD PUSH1 0x20 DUP2 DUP4 SUB SUB DUP2 MSTORE SWAP1 PUSH1 0x40 MSTORE SWAP1 POP SWAP2 SWAP1 POP JUMP JUMPDEST PUSH1 0x0 JUMPDEST DUP4 DUP2 LT ISZERO PUSH2 0x94E JUMPI DUP2 DUP2 ADD MLOAD DUP4 DUP3 ADD MSTORE PUSH1 0x20 ADD PUSH2 0x936 JUMP JUMPDEST POP POP PUSH1 0x0 SWAP2 ADD MSTORE JUMP JUMPDEST PUSH1 0x0 DUP2 MLOAD DUP1 DUP5 MSTORE PUSH2 0x96F DUP2 PUSH1 0x20 DUP7 ADD PUSH1 0x20 DUP7 ADD PUSH2 0x933 JUMP JUMPDEST PUSH1 0x1F ADD PUSH1 0x1F NOT AND SWAP3 SWAP1 SWAP3 ADD PUSH1 0x20 ADD SWAP3 SWAP2 POP POP JUMP JUMPDEST PUSH1 0x20 DUP2 MSTORE PUSH1 0x0 DUP3 MLOAD PUSH1 0x60 PUSH1 0x20 DUP5 ADD MSTORE PUSH2 0x99F PUSH1 0x80 DUP5 ADD DUP3 PUSH2 0x957 JUMP JUMPDEST SWAP1 POP PUSH1 0x20 DUP5 ADD MLOAD PUSH1 0x1F NOT DUP1 DUP6 DUP5 SUB ADD PUSH1 0x40 DUP7 ADD MSTORE PUSH2 0x9BD DUP4 DUP4 PUSH2 0x957 JUMP JUMPDEST SWAP3 POP PUSH1 0x40 DUP7 ADD MLOAD SWAP2 POP DUP1 DUP6 DUP5 SUB ADD PUSH1 0x60 DUP7 ADD MSTORE POP PUSH2 0x9DB DUP3 DUP3 PUSH2 0x957 JUMP JUMPDEST SWAP6 SWAP5 POP POP POP POP POP JUMP JUMPDEST PUSH4 0x4E487B71 PUSH1 0xE0 SHL PUSH1 0x0 MSTORE PUSH1 0x41 PUSH1 0x4 MSTORE PUSH1 0x24 PUSH1 0x0 REVERT JUMPDEST PUSH1 0x0 DUP3 PUSH1 0x1F DUP4 ADD SLT PUSH2 0xA0B JUMPI PUSH1 0x0 DUP1 REVERT JUMPDEST DUP2 CALLDATALOAD PUSH8 0xFFFFFFFFFFFFFFFF DUP1 DUP3 GT ISZERO PUSH2 0xA26 JUMPI PUSH2 0xA26 PUSH2 0x9E4 JUMP JUMPDEST PUSH1 0x40 MLOAD PUSH1 0x1F DUP4 ADD PUSH1 0x1F NOT SWAP1 DUP2 AND PUSH1 0x3F ADD AND DUP2 ADD SWAP1 DUP3 DUP3 GT DUP2 DUP4 LT OR ISZERO PUSH2 0xA4E JUMPI PUSH2 0xA4E PUSH2 0x9E4 JUMP JUMPDEST DUP2 PUSH1 0x40 MSTORE DUP4 DUP2 MSTORE DUP7 PUSH1 0x20 DUP6 DUP9 ADD ADD GT ISZERO PUSH2 0xA67 JUMPI PUSH1 0x0 DUP1 REVERT JUMPDEST DUP4 PUSH1 0x20 DUP8 ADD PUSH1 0x20 DUP4 ADD CALLDATACOPY PUSH1 0x0 PUSH1 0x20 DUP6 DUP4 ADD ADD MSTORE DUP1 SWAP5 POP POP POP POP POP SWAP3 SWAP2 POP POP JUMP JUMPDEST PUSH1 0x0 DUP1 PUSH1 0x0 PUSH1 0x60 DUP5 DUP7 SUB SLT ISZERO PUSH2 0xA9C JUMPI PUSH1 0x0 DUP1 REVERT JUMPDEST DUP4 CALLDATALOAD PUSH8 0xFFFFFFFFFFFFFFFF DUP1 DUP3 GT ISZERO PUSH2 0xAB4 JUMPI PUSH1 0x0 DUP1 REVERT JUMPDEST PUSH2 0xAC0 DUP8 DUP4 DUP9 ADD PUSH2 0x9FA JUMP JUMPDEST SWAP5 POP PUSH1 0x20 DUP7 ADD CALLDATALOAD SWAP2 POP DUP1 DUP3 GT ISZERO PUSH2 0xAD6 JUMPI PUSH1 0x0 DUP1 REVERT JUMPDEST PUSH2 0xAE2 DUP8 DUP4 DUP9 ADD PUSH2 0x9FA JUMP JUMPDEST SWAP4 POP PUSH1 0x40 DUP7 ADD CALLDATALOAD SWAP2 POP DUP1 DUP3 GT ISZERO PUSH2 0xAF8 JUMPI PUSH1 0x0 DUP1 REVERT JUMPDEST POP PUSH2 0xB05 DUP7 DUP3 DUP8 ADD PUSH2 0x9FA JUMP JUMPDEST SWAP2 POP POP SWAP3 POP SWAP3 POP SWAP3 JUMP JUMPDEST PUSH1 0x60 DUP2 MSTORE PUSH1 0x0 PUSH2 0xB22 PUSH1 0x60 DUP4 ADD DUP7 PUSH2 0x957 JUMP JUMPDEST DUP3 DUP2 SUB PUSH1 0x20 DUP5 ADD MSTORE PUSH2 0xB34 DUP2 DUP7 PUSH2 0x957 JUMP JUMPDEST SWAP1 POP DUP3 DUP2 SUB PUSH1 0x40 DUP5 ADD MSTORE PUSH2 0xB48 DUP2 DUP6 PUSH2 0x957 JUMP JUMPDEST SWAP7 SWAP6 POP POP POP POP POP POP JUMP JUMPDEST PUSH1 0x1 DUP2 DUP2 SHR SWAP1 DUP3 AND DUP1 PUSH2 0xB66 JUMPI PUSH1 0x7F DUP3 AND SWAP2 POP JUMPDEST PUSH1 0x20 DUP3 LT DUP2 SUB PUSH2 0xB86 JUMPI PUSH4 0x4E487B71 PUSH1 0xE0 SHL PUSH1 0x0 MSTORE PUSH1 0x22 PUSH1 0x4 MSTORE PUSH1 0x24 PUSH1 0x0 REVERT JUMPDEST POP SWAP2 SWAP1 POP JUMP JUMPDEST PUSH1 0x1F DUP3 GT ISZERO PUSH2 0xBD6 JUMPI PUSH1 0x0 DUP2 DUP2 MSTORE PUSH1 0x20 DUP2 KECCAK256 PUSH1 0x1F DUP6 ADD PUSH1 0x5 SHR DUP2 ADD PUSH1 0x20 DUP7 LT ISZERO PUSH2 0xBB3 JUMPI POP DUP1 JUMPDEST PUSH1 0x1F DUP6 ADD PUSH1 0x5 SHR DUP3 ADD SWAP2 POP JUMPDEST DUP2 DUP2 LT ISZERO PUSH2 0xBD2 JUMPI DUP3 DUP2 SSTORE PUSH1 0x1 ADD PUSH2 0xBBF JUMP JUMPDEST POP POP POP JUMPDEST POP POP POP JUMP JUMPDEST DUP2 MLOAD PUSH8 0xFFFFFFFFFFFFFFFF DUP2 GT ISZERO PUSH2 0xBF5 JUMPI PUSH2 0xBF5 PUSH2 0x9E4 JUMP JUMPDEST PUSH2 0xC09 DUP2 PUSH2 0xC03 DUP5 SLOAD PUSH2 0xB52 JUMP JUMPDEST DUP5 PUSH2 0xB8C JUMP JUMPDEST PUSH1 0x20 DUP1 PUSH1 0x1F DUP4 GT PUSH1 0x1 DUP2 EQ PUSH2 0xC3E JUMPI PUSH1 0x0 DUP5 ISZERO PUSH2 0xC26 JUMPI POP DUP6 DUP4 ADD MLOAD JUMPDEST PUSH1 0x0 NOT PUSH1 0x3 DUP7 SWAP1 SHL SHR NOT AND PUSH1 0x1 DUP6 SWAP1 SHL OR DUP6 SSTORE PUSH2 0xBD2 JUMP JUMPDEST PUSH1 0x0 DUP6 DUP2 MSTORE PUSH1 0x20 DUP2 KECCAK256 PUSH1 0x1F NOT DUP7 AND SWAP2 JUMPDEST DUP3 DUP2 LT ISZERO PUSH2 0xC6D JUMPI DUP9 DUP7 ADD MLOAD DUP3 SSTORE SWAP5 DUP5 ADD SWAP5 PUSH1 0x1 SWAP1 SWAP2 ADD SWAP1 DUP5 ADD PUSH2 0xC4E JUMP JUMPDEST POP DUP6 DUP3 LT ISZERO PUSH2 0xC8B JUMPI DUP8 DUP6 ADD MLOAD PUSH1 0x0 NOT PUSH1 0x3 DUP9 SWAP1 SHL PUSH1 0xF8 AND SHR NOT AND DUP2 SSTORE JUMPDEST POP POP POP POP POP PUSH1 0x1 SWAP1 DUP2 SHL ADD SWAP1 SSTORE POP JUMP JUMPDEST PUSH1 0x0 DUP3 MLOAD PUSH2 0xCAD DUP2 DUP5 PUSH1 0x20 DUP8 ADD PUSH2 0x933 JUMP JUMPDEST PUSH5 0x20F09FA4B7 PUSH1 0xD8 SHL SWAP3 ADD SWAP2 DUP3 MSTORE POP PUSH1 0x5 ADD SWAP2 SWAP1 POP JUMP INVALID LOG2 PUSH5 0x6970667358 0x22 SLT KECCAK256 DUP5 PUSH21 0x26E91BF08D6A2F7C7A52BE343E380609D4CE995BE5 LOG4 SSTORE ADD 0x26 LOG3 PUSH24 0x3EF15F64736F6C6343000811003300000000000000000000 "
				},
				"gasEstimates": {
					"creation": {
						"codeDepositCost": "664400",
						"executionCost": "696",
						"totalCost": "665096"
					},
					"external": {
						"getHaiku()": "infinite",
						"haiku()": "infinite",
						"saveHaiku(string,string,string)": "infinite",
						"shruggieHaiku()": "infinite"
					}
				},
				"methodIdentifiers": {
					"getHaiku()": "25eb69a9",
					"haiku()": "728d3c07",
					"saveHaiku(string,string,string)": "583dc769",
					"shruggieHaiku()": "8346cbef"
				}
			},
			"storageLayout": {
				"storage": [
					{
						"astId": 29,
						"contract": "contracts/import/flat.sol:Main",
						"label": "haiku",
						"offset": 0,
						"slot": "0",
						"type": "t_struct(Haiku)8_storage"
					}
				],
				"types": {
					"t_string_storage": {
						"encoding": "bytes",
						"label": "string",
						"numberOfBytes": "32"
					},
					"t_struct(Haiku)8_storage": {
						"encoding": "inplace",
						"label": "struct SillyStringUtils.Haiku",
						"members": [
							{
								"astId": 3,
								"contract": "contracts/import/flat.sol:Main",
								"label": "line1",
								"offset": 0,
								"slot": "0",
								"type": "t_string_storage"
							},
							{
								"astId": 5,
								"contract": "contracts/import/flat.sol:Main",
								"label": "line2",
								"offset": 0,
								"slot": "1",
								"type": "t_string_storage"
							},
							{
								"astId": 7,
								"contract": "contracts/import/flat.sol:Main",
								"label": "line3",
								"offset": 0,
								"slot": "2",
								"type": "t_string_storage"
							}
						],
						"numberOfBytes": "96"
					}
				}
			},
			"userdoc": {
				"kind": "user",
				"methods": {},
				"version": 1
			}
		}
	}
}