{
	"contracts/import/import.sol": {
		"Zip": {
			"abi": [
				{
					"inputs": [],
					"name": "_add",
					"outputs": [],
					"stateMutability": "nonpayable",
					"type": "function"
				}
			],
			"devdoc": {
				"kind": "dev",
				"methods": {},
				"version": 1
			},
			"evm": {
				"assembly": "    /* \"contracts/import/import.sol\":177:335  contract Zip{... */\n  mstore(0x40, 0x80)\n  callvalue\n  dup1\n  iszero\n  tag_1\n  jumpi\n  0x00\n  dup1\n  revert\ntag_1:\n  pop\n  dataSize(sub_0)\n  dup1\n  dataOffset(sub_0)\n  0x00\n  codecopy\n  0x00\n  return\nstop\n\nsub_0: assembly {\n        /* \"contracts/import/import.sol\":177:335  contract Zip{... */\n      mstore(0x40, 0x80)\n      callvalue\n      dup1\n      iszero\n      tag_1\n      jumpi\n      0x00\n      dup1\n      revert\n    tag_1:\n      pop\n      jumpi(tag_2, lt(calldatasize, 0x04))\n      shr(0xe0, calldataload(0x00))\n      dup1\n      0xe28b7c3e\n      eq\n      tag_3\n      jumpi\n    tag_2:\n      0x00\n      dup1\n      revert\n        /* \"contracts/import/import.sol\":295:333  function _add() external  {... */\n    tag_3:\n      stop\n\n    auxdata: 0xa264697066735822122008c9f7d673bd6486799df5ca3d4b11237e40f715abe1c44d53f4a034cb6afb3964736f6c634300081a0033\n}\n",
				"bytecode": {
					"linkReferences": {},
					"object": "6080604052348015600e575f80fd5b50606280601a5f395ff3fe6080604052348015600e575f80fd5b50600436106026575f3560e01c8063e28b7c3e14602a575b5f80fd5b00fea264697066735822122008c9f7d673bd6486799df5ca3d4b11237e40f715abe1c44d53f4a034cb6afb3964736f6c634300081a0033",
					"opcodes": "PUSH1 0x80 PUSH1 0x40 MSTORE CALLVALUE DUP1 ISZERO PUSH1 0xE JUMPI PUSH0 DUP1 REVERT JUMPDEST POP PUSH1 0x62 DUP1 PUSH1 0x1A PUSH0 CODECOPY PUSH0 RETURN INVALID PUSH1 0x80 PUSH1 0x40 MSTORE CALLVALUE DUP1 ISZERO PUSH1 0xE JUMPI PUSH0 DUP1 REVERT JUMPDEST POP PUSH1 0x4 CALLDATASIZE LT PUSH1 0x26 JUMPI PUSH0 CALLDATALOAD PUSH1 0xE0 SHR DUP1 PUSH4 0xE28B7C3E EQ PUSH1 0x2A JUMPI JUMPDEST PUSH0 DUP1 REVERT JUMPDEST STOP INVALID LOG2 PUSH5 0x6970667358 0x22 SLT KECCAK256 ADDMOD 0xC9 0xF7 0xD6 PUSH20 0xBD6486799DF5CA3D4B11237E40F715ABE1C44D53 DELEGATECALL LOG0 CALLVALUE 0xCB PUSH11 0xFB3964736F6C634300081A STOP CALLER "
				},
				"deployedBytecode": {
					"immutableReferences": {},
					"linkReferences": {},
					"object": "6080604052348015600e575f80fd5b50600436106026575f3560e01c8063e28b7c3e14602a575b5f80fd5b00fea264697066735822122008c9f7d673bd6486799df5ca3d4b11237e40f715abe1c44d53f4a034cb6afb3964736f6c634300081a0033",
					"opcodes": "PUSH1 0x80 PUSH1 0x40 MSTORE CALLVALUE DUP1 ISZERO PUSH1 0xE JUMPI PUSH0 DUP1 REVERT JUMPDEST POP PUSH1 0x4 CALLDATASIZE LT PUSH1 0x26 JUMPI PUSH0 CALLDATALOAD PUSH1 0xE0 SHR DUP1 PUSH4 0xE28B7C3E EQ PUSH1 0x2A JUMPI JUMPDEST PUSH0 DUP1 REVERT JUMPDEST STOP INVALID LOG2 PUSH5 0x6970667358 0x22 SLT KECCAK256 ADDMOD 0xC9 0xF7 0xD6 PUSH20 0xBD6486799DF5CA3D4B11237E40F715ABE1C44D53 DELEGATECALL LOG0 CALLVALUE 0xCB PUSH11 0xFB3964736F6C634300081A STOP CALLER "
				},
				"gasEstimates": {
					"creation": {
						"codeDepositCost": "19600",
						"executionCost": "73",
						"totalCost": "19673"
					},
					"external": {
						"_add()": "97"
					}
				},
				"methodIdentifiers": {
					"_add()": "e28b7c3e"
				}
			},
			"storageLayout": {
				"storage": [
					{
						"astId": 9,
						"contract": "contracts/import/import.sol:Zip",
						"label": "_user",
						"offset": 0,
						"slot": "0",
						"type": "t_struct(AddressSet)340_storage"
					}
				],
				"types": {
					"t_array(t_bytes32)dyn_storage": {
						"base": "t_bytes32",
						"encoding": "dynamic_array",
						"label": "bytes32[]",
						"numberOfBytes": "32"
					},
					"t_bytes32": {
						"encoding": "inplace",
						"label": "bytes32",
						"numberOfBytes": "32"
					},
					"t_mapping(t_bytes32,t_uint256)": {
						"encoding": "mapping",
						"key": "t_bytes32",
						"label": "mapping(bytes32 => uint256)",
						"numberOfBytes": "32",
						"value": "t_uint256"
					},
					"t_struct(AddressSet)340_storage": {
						"encoding": "inplace",
						"label": "struct EnumerableSet.AddressSet",
						"members": [
							{
								"astId": 339,
								"contract": "contracts/import/import.sol:Zip",
								"label": "_inner",
								"offset": 0,
								"slot": "0",
								"type": "t_struct(Set)25_storage"
							}
						],
						"numberOfBytes": "64"
					},
					"t_struct(Set)25_storage": {
						"encoding": "inplace",
						"label": "struct EnumerableSet.Set",
						"members": [
							{
								"astId": 20,
								"contract": "contracts/import/import.sol:Zip",
								"label": "_values",
								"offset": 0,
								"slot": "0",
								"type": "t_array(t_bytes32)dyn_storage"
							},
							{
								"astId": 24,
								"contract": "contracts/import/import.sol:Zip",
								"label": "_positions",
								"offset": 0,
								"slot": "1",
								"type": "t_mapping(t_bytes32,t_uint256)"
							}
						],
						"numberOfBytes": "64"
					},
					"t_uint256": {
						"encoding": "inplace",
						"label": "uint256",
						"numberOfBytes": "32"
					}
				}
			},
			"userdoc": {
				"kind": "user",
				"methods": {},
				"version": 1
			}
		}
	}
}