{
	"contracts/foldOwner/addressBook.sol": {
		"AddressBook": {
			"abi": [
				{
					"inputs": [
						{
							"internalType": "address",
							"name": "_owner",
							"type": "address"
						}
					],
					"stateMutability": "nonpayable",
					"type": "constructor"
				},
				{
					"inputs": [
						{
							"internalType": "uint256",
							"name": "",
							"type": "uint256"
						}
					],
					"name": "ContactNotFound",
					"type": "error"
				},
				{
					"inputs": [
						{
							"internalType": "address",
							"name": "owner",
							"type": "address"
						}
					],
					"name": "OwnableInvalidOwner",
					"type": "error"
				},
				{
					"inputs": [
						{
							"internalType": "address",
							"name": "account",
							"type": "address"
						}
					],
					"name": "OwnableUnauthorizedAccount",
					"type": "error"
				},
				{
					"anonymous": false,
					"inputs": [
						{
							"indexed": true,
							"internalType": "address",
							"name": "previousOwner",
							"type": "address"
						},
						{
							"indexed": true,
							"internalType": "address",
							"name": "newOwner",
							"type": "address"
						}
					],
					"name": "OwnershipTransferred",
					"type": "event"
				},
				{
					"inputs": [
						{
							"internalType": "uint256",
							"name": "_id",
							"type": "uint256"
						},
						{
							"internalType": "string",
							"name": "_firstName",
							"type": "string"
						},
						{
							"internalType": "string",
							"name": "_lastName",
							"type": "string"
						},
						{
							"internalType": "uint256",
							"name": "_phoneNumbers",
							"type": "uint256"
						}
					],
					"name": "addContact",
					"outputs": [],
					"stateMutability": "nonpayable",
					"type": "function"
				},
				{
					"inputs": [
						{
							"internalType": "uint256",
							"name": "_id",
							"type": "uint256"
						}
					],
					"name": "deleteContact",
					"outputs": [],
					"stateMutability": "nonpayable",
					"type": "function"
				},
				{
					"inputs": [],
					"name": "owner",
					"outputs": [
						{
							"internalType": "address",
							"name": "",
							"type": "address"
						}
					],
					"stateMutability": "view",
					"type": "function"
				},
				{
					"inputs": [],
					"name": "renounceOwnership",
					"outputs": [],
					"stateMutability": "nonpayable",
					"type": "function"
				},
				{
					"inputs": [
						{
							"internalType": "address",
							"name": "newOwner",
							"type": "address"
						}
					],
					"name": "transferOwnership",
					"outputs": [],
					"stateMutability": "nonpayable",
					"type": "function"
				}
			],
			"devdoc": {
				"errors": {
					"OwnableInvalidOwner(address)": [
						{
							"details": "The owner is not a valid owner account. (eg. `address(0)`)"
						}
					],
					"OwnableUnauthorizedAccount(address)": [
						{
							"details": "The caller account is not authorized to perform an operation."
						}
					]
				},
				"kind": "dev",
				"methods": {
					"owner()": {
						"details": "Returns the address of the current owner."
					},
					"renounceOwnership()": {
						"details": "Leaves the contract without owner. It will not be possible to call `onlyOwner` functions. Can only be called by the current owner. NOTE: Renouncing ownership will leave the contract without an owner, thereby disabling any functionality that is only available to the owner."
					},
					"transferOwnership(address)": {
						"details": "Transfers ownership of the contract to a new account (`newOwner`). Can only be called by the current owner."
					}
				},
				"version": 1
			},
			"evm": {
				"assembly": "    /* \"contracts/foldOwner/addressBook.sol\":161:1836  contract AddressBook is Ownable{... */\n  mstore(0x40, 0x80)\n    /* \"contracts/foldOwner/addressBook.sol\":416:492  constructor(address _owner)Ownable(_owner){... */\n  callvalue\n  dup1\n  iszero\n  tag_1\n  jumpi\n  0x00\n  dup1\n  revert\ntag_1:\n  pop\n  mload(0x40)\n  sub(codesize, bytecodeSize)\n  dup1\n  bytecodeSize\n  dup4\n  codecopy\n  dup2\n  dup2\n  add\n  0x40\n  mstore\n  dup2\n  add\n  swap1\n  tag_2\n  swap2\n  swap1\n  tag_3\n  jump\t// in\ntag_2:\n    /* \"contracts/foldOwner/addressBook.sol\":451:457  _owner */\n  dup1\n    /* \"https://github.com/dxfareed/openzeppelin-contracts/blob/master/contracts/access/Ownable.sol\":1297:1298  0 */\n  0x00\n    /* \"https://github.com/dxfareed/openzeppelin-contracts/blob/master/contracts/access/Ownable.sol\":1273:1299  initialOwner == address(0) */\n  0xffffffffffffffffffffffffffffffffffffffff\n  and\n    /* \"https://github.com/dxfareed/openzeppelin-contracts/blob/master/contracts/access/Ownable.sol\":1273:1285  initialOwner */\n  dup2\n    /* \"https://github.com/dxfareed/openzeppelin-contracts/blob/master/contracts/access/Ownable.sol\":1273:1299  initialOwner == address(0) */\n  0xffffffffffffffffffffffffffffffffffffffff\n  and\n  sub\n    /* \"https://github.com/dxfareed/openzeppelin-contracts/blob/master/contracts/access/Ownable.sol\":1269:1364  if (initialOwner == address(0)) {... */\n  tag_7\n  jumpi\n    /* \"https://github.com/dxfareed/openzeppelin-contracts/blob/master/contracts/access/Ownable.sol\":1350:1351  0 */\n  0x00\n    /* \"https://github.com/dxfareed/openzeppelin-contracts/blob/master/contracts/access/Ownable.sol\":1322:1353  OwnableInvalidOwner(address(0)) */\n  mload(0x40)\n  0x1e4fbdf700000000000000000000000000000000000000000000000000000000\n  dup2\n  mstore\n  0x04\n  add\n  tag_8\n  swap2\n  swap1\n  tag_9\n  jump\t// in\ntag_8:\n  mload(0x40)\n  dup1\n  swap2\n  sub\n  swap1\n  revert\n    /* \"https://github.com/dxfareed/openzeppelin-contracts/blob/master/contracts/access/Ownable.sol\":1269:1364  if (initialOwner == address(0)) {... */\ntag_7:\n    /* \"https://github.com/dxfareed/openzeppelin-contracts/blob/master/contracts/access/Ownable.sol\":1373:1405  _transferOwnership(initialOwner) */\n  tag_10\n    /* \"https://github.com/dxfareed/openzeppelin-contracts/blob/master/contracts/access/Ownable.sol\":1392:1404  initialOwner */\n  dup2\n    /* \"https://github.com/dxfareed/openzeppelin-contracts/blob/master/contracts/access/Ownable.sol\":1373:1391  _transferOwnership */\n  shl(0x20, tag_11)\n    /* \"https://github.com/dxfareed/openzeppelin-contracts/blob/master/contracts/access/Ownable.sol\":1373:1405  _transferOwnership(initialOwner) */\n  0x20\n  shr\n  jump\t// in\ntag_10:\n    /* \"https://github.com/dxfareed/openzeppelin-contracts/blob/master/contracts/access/Ownable.sol\":1225:1412  constructor(address initialOwner) {... */\n  pop\n    /* \"contracts/foldOwner/addressBook.sol\":416:492  constructor(address _owner)Ownable(_owner){... */\n  pop\n    /* \"contracts/foldOwner/addressBook.sol\":161:1836  contract AddressBook is Ownable{... */\n  jump(tag_13)\n    /* \"https://github.com/dxfareed/openzeppelin-contracts/blob/master/contracts/access/Ownable.sol\":2912:3099  function _transferOwnership(address newOwner) internal virtual {... */\ntag_11:\n    /* \"https://github.com/dxfareed/openzeppelin-contracts/blob/master/contracts/access/Ownable.sol\":2985:3001  address oldOwner */\n  0x00\n    /* \"https://github.com/dxfareed/openzeppelin-contracts/blob/master/contracts/access/Ownable.sol\":3004:3010  _owner */\n  dup1\n  0x00\n  swap1\n  sload\n  swap1\n  0x0100\n  exp\n  swap1\n  div\n  0xffffffffffffffffffffffffffffffffffffffff\n  and\n    /* \"https://github.com/dxfareed/openzeppelin-contracts/blob/master/contracts/access/Ownable.sol\":2985:3010  address oldOwner = _owner */\n  swap1\n  pop\n    /* \"https://github.com/dxfareed/openzeppelin-contracts/blob/master/contracts/access/Ownable.sol\":3029:3037  newOwner */\n  dup2\n    /* \"https://github.com/dxfareed/openzeppelin-contracts/blob/master/contracts/access/Ownable.sol\":3020:3026  _owner */\n  0x00\n  dup1\n    /* \"https://github.com/dxfareed/openzeppelin-contracts/blob/master/contracts/access/Ownable.sol\":3020:3037  _owner = newOwner */\n  0x0100\n  exp\n  dup2\n  sload\n  dup2\n  0xffffffffffffffffffffffffffffffffffffffff\n  mul\n  not\n  and\n  swap1\n  dup4\n  0xffffffffffffffffffffffffffffffffffffffff\n  and\n  mul\n  or\n  swap1\n  sstore\n  pop\n    /* \"https://github.com/dxfareed/openzeppelin-contracts/blob/master/contracts/access/Ownable.sol\":3083:3091  newOwner */\n  dup2\n    /* \"https://github.com/dxfareed/openzeppelin-contracts/blob/master/contracts/access/Ownable.sol\":3052:3092  OwnershipTransferred(oldOwner, newOwner) */\n  0xffffffffffffffffffffffffffffffffffffffff\n  and\n    /* \"https://github.com/dxfareed/openzeppelin-contracts/blob/master/contracts/access/Ownable.sol\":3073:3081  oldOwner */\n  dup2\n    /* \"https://github.com/dxfareed/openzeppelin-contracts/blob/master/contracts/access/Ownable.sol\":3052:3092  OwnershipTransferred(oldOwner, newOwner) */\n  0xffffffffffffffffffffffffffffffffffffffff\n  and\n  0x8be0079c531659141344cd1fd0a4f28419497f9722a3daafe3b4186f6b6457e0\n  mload(0x40)\n  mload(0x40)\n  dup1\n  swap2\n  sub\n  swap1\n  log3\n    /* \"https://github.com/dxfareed/openzeppelin-contracts/blob/master/contracts/access/Ownable.sol\":2975:3099  {... */\n  pop\n    /* \"https://github.com/dxfareed/openzeppelin-contracts/blob/master/contracts/access/Ownable.sol\":2912:3099  function _transferOwnership(address newOwner) internal virtual {... */\n  pop\n  jump\t// out\n    /* \"#utility.yul\":88:205   */\ntag_16:\n    /* \"#utility.yul\":197:198   */\n  0x00\n    /* \"#utility.yul\":194:195   */\n  dup1\n    /* \"#utility.yul\":187:199   */\n  revert\n    /* \"#utility.yul\":334:460   */\ntag_18:\n    /* \"#utility.yul\":371:378   */\n  0x00\n    /* \"#utility.yul\":411:453   */\n  0xffffffffffffffffffffffffffffffffffffffff\n    /* \"#utility.yul\":404:409   */\n  dup3\n    /* \"#utility.yul\":400:454   */\n  and\n    /* \"#utility.yul\":389:454   */\n  swap1\n  pop\n    /* \"#utility.yul\":334:460   */\n  swap2\n  swap1\n  pop\n  jump\t// out\n    /* \"#utility.yul\":466:562   */\ntag_19:\n    /* \"#utility.yul\":503:510   */\n  0x00\n    /* \"#utility.yul\":532:556   */\n  tag_29\n    /* \"#utility.yul\":550:555   */\n  dup3\n    /* \"#utility.yul\":532:556   */\n  tag_18\n  jump\t// in\ntag_29:\n    /* \"#utility.yul\":521:556   */\n  swap1\n  pop\n    /* \"#utility.yul\":466:562   */\n  swap2\n  swap1\n  pop\n  jump\t// out\n    /* \"#utility.yul\":568:690   */\ntag_20:\n    /* \"#utility.yul\":641:665   */\n  tag_31\n    /* \"#utility.yul\":659:664   */\n  dup2\n    /* \"#utility.yul\":641:665   */\n  tag_19\n  jump\t// in\ntag_31:\n    /* \"#utility.yul\":634:639   */\n  dup2\n    /* \"#utility.yul\":631:666   */\n  eq\n    /* \"#utility.yul\":621:684   */\n  tag_32\n  jumpi\n    /* \"#utility.yul\":680:681   */\n  0x00\n    /* \"#utility.yul\":677:678   */\n  dup1\n    /* \"#utility.yul\":670:682   */\n  revert\n    /* \"#utility.yul\":621:684   */\ntag_32:\n    /* \"#utility.yul\":568:690   */\n  pop\n  jump\t// out\n    /* \"#utility.yul\":696:839   */\ntag_21:\n    /* \"#utility.yul\":753:758   */\n  0x00\n    /* \"#utility.yul\":784:790   */\n  dup2\n    /* \"#utility.yul\":778:791   */\n  mload\n    /* \"#utility.yul\":769:791   */\n  swap1\n  pop\n    /* \"#utility.yul\":800:833   */\n  tag_34\n    /* \"#utility.yul\":827:832   */\n  dup2\n    /* \"#utility.yul\":800:833   */\n  tag_20\n  jump\t// in\ntag_34:\n    /* \"#utility.yul\":696:839   */\n  swap3\n  swap2\n  pop\n  pop\n  jump\t// out\n    /* \"#utility.yul\":845:1196   */\ntag_3:\n    /* \"#utility.yul\":915:921   */\n  0x00\n    /* \"#utility.yul\":964:966   */\n  0x20\n    /* \"#utility.yul\":952:961   */\n  dup3\n    /* \"#utility.yul\":943:950   */\n  dup5\n    /* \"#utility.yul\":939:962   */\n  sub\n    /* \"#utility.yul\":935:967   */\n  slt\n    /* \"#utility.yul\":932:1051   */\n  iszero\n  tag_36\n  jumpi\n    /* \"#utility.yul\":970:1049   */\n  tag_37\n  tag_16\n  jump\t// in\ntag_37:\n    /* \"#utility.yul\":932:1051   */\ntag_36:\n    /* \"#utility.yul\":1090:1091   */\n  0x00\n    /* \"#utility.yul\":1115:1179   */\n  tag_38\n    /* \"#utility.yul\":1171:1178   */\n  dup5\n    /* \"#utility.yul\":1162:1168   */\n  dup3\n    /* \"#utility.yul\":1151:1160   */\n  dup6\n    /* \"#utility.yul\":1147:1169   */\n  add\n    /* \"#utility.yul\":1115:1179   */\n  tag_21\n  jump\t// in\ntag_38:\n    /* \"#utility.yul\":1105:1179   */\n  swap2\n  pop\n    /* \"#utility.yul\":1061:1189   */\n  pop\n    /* \"#utility.yul\":845:1196   */\n  swap3\n  swap2\n  pop\n  pop\n  jump\t// out\n    /* \"#utility.yul\":1202:1320   */\ntag_22:\n    /* \"#utility.yul\":1289:1313   */\n  tag_40\n    /* \"#utility.yul\":1307:1312   */\n  dup2\n    /* \"#utility.yul\":1289:1313   */\n  tag_19\n  jump\t// in\ntag_40:\n    /* \"#utility.yul\":1284:1287   */\n  dup3\n    /* \"#utility.yul\":1277:1314   */\n  mstore\n    /* \"#utility.yul\":1202:1320   */\n  pop\n  pop\n  jump\t// out\n    /* \"#utility.yul\":1326:1548   */\ntag_9:\n    /* \"#utility.yul\":1419:1423   */\n  0x00\n    /* \"#utility.yul\":1457:1459   */\n  0x20\n    /* \"#utility.yul\":1446:1455   */\n  dup3\n    /* \"#utility.yul\":1442:1460   */\n  add\n    /* \"#utility.yul\":1434:1460   */\n  swap1\n  pop\n    /* \"#utility.yul\":1470:1541   */\n  tag_42\n    /* \"#utility.yul\":1538:1539   */\n  0x00\n    /* \"#utility.yul\":1527:1536   */\n  dup4\n    /* \"#utility.yul\":1523:1540   */\n  add\n    /* \"#utility.yul\":1514:1520   */\n  dup5\n    /* \"#utility.yul\":1470:1541   */\n  tag_22\n  jump\t// in\ntag_42:\n    /* \"#utility.yul\":1326:1548   */\n  swap3\n  swap2\n  pop\n  pop\n  jump\t// out\n    /* \"contracts/foldOwner/addressBook.sol\":161:1836  contract AddressBook is Ownable{... */\ntag_13:\n  dataSize(sub_0)\n  dup1\n  dataOffset(sub_0)\n  0x00\n  codecopy\n  0x00\n  return\nstop\n\nsub_0: assembly {\n        /* \"contracts/foldOwner/addressBook.sol\":161:1836  contract AddressBook is Ownable{... */\n      mstore(0x40, 0x80)\n      callvalue\n      dup1\n      iszero\n      tag_1\n      jumpi\n      0x00\n      dup1\n      revert\n    tag_1:\n      pop\n      jumpi(tag_2, lt(calldatasize, 0x04))\n      shr(0xe0, calldataload(0x00))\n      dup1\n      0x715018a6\n      eq\n      tag_3\n      jumpi\n      dup1\n      0x8da5cb5b\n      eq\n      tag_4\n      jumpi\n      dup1\n      0xb9ed6fca\n      eq\n      tag_5\n      jumpi\n      dup1\n      0xdc670f88\n      eq\n      tag_6\n      jumpi\n      dup1\n      0xf2fde38b\n      eq\n      tag_7\n      jumpi\n    tag_2:\n      0x00\n      dup1\n      revert\n        /* \"https://github.com/dxfareed/openzeppelin-contracts/blob/master/contracts/access/Ownable.sol\":2293:2394  function renounceOwnership() public virtual onlyOwner {... */\n    tag_3:\n      tag_8\n      tag_9\n      jump\t// in\n    tag_8:\n      stop\n        /* \"https://github.com/dxfareed/openzeppelin-contracts/blob/master/contracts/access/Ownable.sol\":1638:1723  function owner() public view virtual returns (address) {... */\n    tag_4:\n      tag_10\n      tag_11\n      jump\t// in\n    tag_10:\n      mload(0x40)\n      tag_12\n      swap2\n      swap1\n      tag_13\n      jump\t// in\n    tag_12:\n      mload(0x40)\n      dup1\n      swap2\n      sub\n      swap1\n      return\n        /* \"contracts/foldOwner/addressBook.sol\":748:1274  function deleteContact(uint _id) external onlyOwner /*returns(uint _ii)*/ {... */\n    tag_5:\n      tag_14\n      0x04\n      dup1\n      calldatasize\n      sub\n      dup2\n      add\n      swap1\n      tag_15\n      swap2\n      swap1\n      tag_16\n      jump\t// in\n    tag_15:\n      tag_17\n      jump\t// in\n    tag_14:\n      stop\n        /* \"contracts/foldOwner/addressBook.sol\":522:743  function addContact(uint _id,string memory _firstName,string memory _lastName,uint _phoneNumbers) external onlyOwner {... */\n    tag_6:\n      tag_18\n      0x04\n      dup1\n      calldatasize\n      sub\n      dup2\n      add\n      swap1\n      tag_19\n      swap2\n      swap1\n      tag_20\n      jump\t// in\n    tag_19:\n      tag_21\n      jump\t// in\n    tag_18:\n      stop\n        /* \"https://github.com/dxfareed/openzeppelin-contracts/blob/master/contracts/access/Ownable.sol\":2543:2758  function transferOwnership(address newOwner) public virtual onlyOwner {... */\n    tag_7:\n      tag_22\n      0x04\n      dup1\n      calldatasize\n      sub\n      dup2\n      add\n      swap1\n      tag_23\n      swap2\n      swap1\n      tag_24\n      jump\t// in\n    tag_23:\n      tag_25\n      jump\t// in\n    tag_22:\n      stop\n        /* \"https://github.com/dxfareed/openzeppelin-contracts/blob/master/contracts/access/Ownable.sol\":2293:2394  function renounceOwnership() public virtual onlyOwner {... */\n    tag_9:\n        /* \"https://github.com/dxfareed/openzeppelin-contracts/blob/master/contracts/access/Ownable.sol\":1531:1544  _checkOwner() */\n      tag_27\n        /* \"https://github.com/dxfareed/openzeppelin-contracts/blob/master/contracts/access/Ownable.sol\":1531:1542  _checkOwner */\n      tag_28\n        /* \"https://github.com/dxfareed/openzeppelin-contracts/blob/master/contracts/access/Ownable.sol\":1531:1544  _checkOwner() */\n      jump\t// in\n    tag_27:\n        /* \"https://github.com/dxfareed/openzeppelin-contracts/blob/master/contracts/access/Ownable.sol\":2357:2387  _transferOwnership(address(0)) */\n      tag_30\n        /* \"https://github.com/dxfareed/openzeppelin-contracts/blob/master/contracts/access/Ownable.sol\":2384:2385  0 */\n      0x00\n        /* \"https://github.com/dxfareed/openzeppelin-contracts/blob/master/contracts/access/Ownable.sol\":2357:2375  _transferOwnership */\n      tag_31\n        /* \"https://github.com/dxfareed/openzeppelin-contracts/blob/master/contracts/access/Ownable.sol\":2357:2387  _transferOwnership(address(0)) */\n      jump\t// in\n    tag_30:\n        /* \"https://github.com/dxfareed/openzeppelin-contracts/blob/master/contracts/access/Ownable.sol\":2293:2394  function renounceOwnership() public virtual onlyOwner {... */\n      jump\t// out\n        /* \"https://github.com/dxfareed/openzeppelin-contracts/blob/master/contracts/access/Ownable.sol\":1638:1723  function owner() public view virtual returns (address) {... */\n    tag_11:\n        /* \"https://github.com/dxfareed/openzeppelin-contracts/blob/master/contracts/access/Ownable.sol\":1684:1691  address */\n      0x00\n        /* \"https://github.com/dxfareed/openzeppelin-contracts/blob/master/contracts/access/Ownable.sol\":1710:1716  _owner */\n      dup1\n      0x00\n      swap1\n      sload\n      swap1\n      0x0100\n      exp\n      swap1\n      div\n      0xffffffffffffffffffffffffffffffffffffffff\n      and\n        /* \"https://github.com/dxfareed/openzeppelin-contracts/blob/master/contracts/access/Ownable.sol\":1703:1716  return _owner */\n      swap1\n      pop\n        /* \"https://github.com/dxfareed/openzeppelin-contracts/blob/master/contracts/access/Ownable.sol\":1638:1723  function owner() public view virtual returns (address) {... */\n      swap1\n      jump\t// out\n        /* \"contracts/foldOwner/addressBook.sol\":748:1274  function deleteContact(uint _id) external onlyOwner /*returns(uint _ii)*/ {... */\n    tag_17:\n        /* \"https://github.com/dxfareed/openzeppelin-contracts/blob/master/contracts/access/Ownable.sol\":1531:1544  _checkOwner() */\n      tag_34\n        /* \"https://github.com/dxfareed/openzeppelin-contracts/blob/master/contracts/access/Ownable.sol\":1531:1542  _checkOwner */\n      tag_28\n        /* \"https://github.com/dxfareed/openzeppelin-contracts/blob/master/contracts/access/Ownable.sol\":1531:1544  _checkOwner() */\n      jump\t// in\n    tag_34:\n        /* \"contracts/foldOwner/addressBook.sol\":835:841  uint i */\n      0x00\n        /* \"contracts/foldOwner/addressBook.sol\":831:991  for(uint i=0; i<contacts.length; i++){... */\n    tag_36:\n        /* \"contracts/foldOwner/addressBook.sol\":847:855  contacts */\n      0x01\n        /* \"contracts/foldOwner/addressBook.sol\":847:862  contacts.length */\n      dup1\n      sload\n      swap1\n      pop\n        /* \"contracts/foldOwner/addressBook.sol\":845:846  i */\n      dup2\n        /* \"contracts/foldOwner/addressBook.sol\":845:862  i<contacts.length */\n      lt\n        /* \"contracts/foldOwner/addressBook.sol\":831:991  for(uint i=0; i<contacts.length; i++){... */\n      iszero\n      tag_37\n      jumpi\n        /* \"contracts/foldOwner/addressBook.sol\":902:905  _id */\n      dup2\n        /* \"contracts/foldOwner/addressBook.sol\":886:894  contacts */\n      0x01\n        /* \"contracts/foldOwner/addressBook.sol\":895:896  i */\n      dup3\n        /* \"contracts/foldOwner/addressBook.sol\":886:897  contacts[i] */\n      dup2\n      sload\n      dup2\n      lt\n      tag_39\n      jumpi\n      tag_40\n      tag_41\n      jump\t// in\n    tag_40:\n    tag_39:\n      swap1\n      0x00\n      mstore\n      keccak256(0x00, 0x20)\n      swap1\n      0x04\n      mul\n      add\n        /* \"contracts/foldOwner/addressBook.sol\":886:900  contacts[i].id */\n      0x00\n      add\n      sload\n        /* \"contracts/foldOwner/addressBook.sol\":886:905  contacts[i].id==_id */\n      sub\n        /* \"contracts/foldOwner/addressBook.sol\":883:981  if(contacts[i].id==_id){... */\n      tag_43\n      jumpi\n        /* \"contracts/foldOwner/addressBook.sol\":931:939  contacts */\n      0x01\n        /* \"contracts/foldOwner/addressBook.sol\":940:941  i */\n      dup2\n        /* \"contracts/foldOwner/addressBook.sol\":931:942  contacts[i] */\n      dup2\n      sload\n      dup2\n      lt\n      tag_44\n      jumpi\n      tag_45\n      tag_41\n      jump\t// in\n    tag_45:\n    tag_44:\n      swap1\n      0x00\n      mstore\n      keccak256(0x00, 0x20)\n      swap1\n      0x04\n      mul\n      add\n      0x00\n        /* \"contracts/foldOwner/addressBook.sol\":924:942  delete contacts[i] */\n      dup1\n      dup3\n      add\n      0x00\n      swap1\n      sstore\n      0x01\n      dup3\n      add\n      0x00\n      tag_47\n      swap2\n      swap1\n      tag_48\n      jump\t// in\n    tag_47:\n      0x02\n      dup3\n      add\n      0x00\n      tag_49\n      swap2\n      swap1\n      tag_48\n      jump\t// in\n    tag_49:\n      0x03\n      dup3\n      add\n      0x00\n      swap1\n      sstore\n      pop\n      pop\n        /* \"contracts/foldOwner/addressBook.sol\":960:967  return; */\n      pop\n      jump(tag_35)\n        /* \"contracts/foldOwner/addressBook.sol\":883:981  if(contacts[i].id==_id){... */\n    tag_43:\n        /* \"contracts/foldOwner/addressBook.sol\":864:867  i++ */\n      dup1\n      dup1\n      0x01\n      add\n      swap2\n      pop\n      pop\n        /* \"contracts/foldOwner/addressBook.sol\":831:991  for(uint i=0; i<contacts.length; i++){... */\n      jump(tag_36)\n    tag_37:\n      pop\n        /* \"contracts/foldOwner/addressBook.sol\":1023:1026  _id */\n      dup1\n        /* \"contracts/foldOwner/addressBook.sol\":1007:1027  ContactNotFound(_id) */\n      mload(0x40)\n      0xf55dec0000000000000000000000000000000000000000000000000000000000\n      dup2\n      mstore\n      0x04\n      add\n      tag_50\n      swap2\n      swap1\n      tag_51\n      jump\t// in\n    tag_50:\n      mload(0x40)\n      dup1\n      swap2\n      sub\n      swap1\n      revert\n        /* \"https://github.com/dxfareed/openzeppelin-contracts/blob/master/contracts/access/Ownable.sol\":1554:1555  _ */\n    tag_35:\n        /* \"contracts/foldOwner/addressBook.sol\":748:1274  function deleteContact(uint _id) external onlyOwner /*returns(uint _ii)*/ {... */\n      pop\n      jump\t// out\n        /* \"contracts/foldOwner/addressBook.sol\":522:743  function addContact(uint _id,string memory _firstName,string memory _lastName,uint _phoneNumbers) external onlyOwner {... */\n    tag_21:\n        /* \"https://github.com/dxfareed/openzeppelin-contracts/blob/master/contracts/access/Ownable.sol\":1531:1544  _checkOwner() */\n      tag_53\n        /* \"https://github.com/dxfareed/openzeppelin-contracts/blob/master/contracts/access/Ownable.sol\":1531:1542  _checkOwner */\n      tag_28\n        /* \"https://github.com/dxfareed/openzeppelin-contracts/blob/master/contracts/access/Ownable.sol\":1531:1544  _checkOwner() */\n      jump\t// in\n    tag_53:\n        /* \"contracts/foldOwner/addressBook.sol\":649:657  contacts */\n      0x01\n        /* \"contracts/foldOwner/addressBook.sol\":676:726  Contact(_id, _firstName, _lastName, _phoneNumbers) */\n      mload(0x40)\n      dup1\n      0x80\n      add\n      0x40\n      mstore\n      dup1\n        /* \"contracts/foldOwner/addressBook.sol\":684:687  _id */\n      dup7\n        /* \"contracts/foldOwner/addressBook.sol\":676:726  Contact(_id, _firstName, _lastName, _phoneNumbers) */\n      dup2\n      mstore\n      0x20\n      add\n        /* \"contracts/foldOwner/addressBook.sol\":689:699  _firstName */\n      dup6\n        /* \"contracts/foldOwner/addressBook.sol\":676:726  Contact(_id, _firstName, _lastName, _phoneNumbers) */\n      dup2\n      mstore\n      0x20\n      add\n        /* \"contracts/foldOwner/addressBook.sol\":701:710  _lastName */\n      dup5\n        /* \"contracts/foldOwner/addressBook.sol\":676:726  Contact(_id, _firstName, _lastName, _phoneNumbers) */\n      dup2\n      mstore\n      0x20\n      add\n        /* \"contracts/foldOwner/addressBook.sol\":712:725  _phoneNumbers */\n      dup4\n        /* \"contracts/foldOwner/addressBook.sol\":676:726  Contact(_id, _firstName, _lastName, _phoneNumbers) */\n      dup2\n      mstore\n      pop\n        /* \"contracts/foldOwner/addressBook.sol\":649:736  contacts.push(... */\n      swap1\n      dup1\n      0x01\n      dup2\n      sload\n      add\n      dup1\n      dup3\n      sstore\n      dup1\n      swap2\n      pop\n      pop\n      0x01\n      swap1\n      sub\n      swap1\n      0x00\n      mstore\n      keccak256(0x00, 0x20)\n      swap1\n      0x04\n      mul\n      add\n      0x00\n      swap1\n      swap2\n      swap1\n      swap2\n      swap1\n      swap2\n      pop\n      0x00\n      dup3\n      add\n      mload\n      dup2\n      0x00\n      add\n      sstore\n      0x20\n      dup3\n      add\n      mload\n      dup2\n      0x01\n      add\n      swap1\n      dup2\n      tag_56\n      swap2\n      swap1\n      tag_57\n      jump\t// in\n    tag_56:\n      pop\n      0x40\n      dup3\n      add\n      mload\n      dup2\n      0x02\n      add\n      swap1\n      dup2\n      tag_58\n      swap2\n      swap1\n      tag_57\n      jump\t// in\n    tag_58:\n      pop\n      0x60\n      dup3\n      add\n      mload\n      dup2\n      0x03\n      add\n      sstore\n      pop\n      pop\n        /* \"contracts/foldOwner/addressBook.sol\":522:743  function addContact(uint _id,string memory _firstName,string memory _lastName,uint _phoneNumbers) external onlyOwner {... */\n      pop\n      pop\n      pop\n      pop\n      jump\t// out\n        /* \"https://github.com/dxfareed/openzeppelin-contracts/blob/master/contracts/access/Ownable.sol\":2543:2758  function transferOwnership(address newOwner) public virtual onlyOwner {... */\n    tag_25:\n        /* \"https://github.com/dxfareed/openzeppelin-contracts/blob/master/contracts/access/Ownable.sol\":1531:1544  _checkOwner() */\n      tag_60\n        /* \"https://github.com/dxfareed/openzeppelin-contracts/blob/master/contracts/access/Ownable.sol\":1531:1542  _checkOwner */\n      tag_28\n        /* \"https://github.com/dxfareed/openzeppelin-contracts/blob/master/contracts/access/Ownable.sol\":1531:1544  _checkOwner() */\n      jump\t// in\n    tag_60:\n        /* \"https://github.com/dxfareed/openzeppelin-contracts/blob/master/contracts/access/Ownable.sol\":2647:2648  0 */\n      0x00\n        /* \"https://github.com/dxfareed/openzeppelin-contracts/blob/master/contracts/access/Ownable.sol\":2627:2649  newOwner == address(0) */\n      0xffffffffffffffffffffffffffffffffffffffff\n      and\n        /* \"https://github.com/dxfareed/openzeppelin-contracts/blob/master/contracts/access/Ownable.sol\":2627:2635  newOwner */\n      dup2\n        /* \"https://github.com/dxfareed/openzeppelin-contracts/blob/master/contracts/access/Ownable.sol\":2627:2649  newOwner == address(0) */\n      0xffffffffffffffffffffffffffffffffffffffff\n      and\n      sub\n        /* \"https://github.com/dxfareed/openzeppelin-contracts/blob/master/contracts/access/Ownable.sol\":2623:2714  if (newOwner == address(0)) {... */\n      tag_62\n      jumpi\n        /* \"https://github.com/dxfareed/openzeppelin-contracts/blob/master/contracts/access/Ownable.sol\":2700:2701  0 */\n      0x00\n        /* \"https://github.com/dxfareed/openzeppelin-contracts/blob/master/contracts/access/Ownable.sol\":2672:2703  OwnableInvalidOwner(address(0)) */\n      mload(0x40)\n      0x1e4fbdf700000000000000000000000000000000000000000000000000000000\n      dup2\n      mstore\n      0x04\n      add\n      tag_63\n      swap2\n      swap1\n      tag_13\n      jump\t// in\n    tag_63:\n      mload(0x40)\n      dup1\n      swap2\n      sub\n      swap1\n      revert\n        /* \"https://github.com/dxfareed/openzeppelin-contracts/blob/master/contracts/access/Ownable.sol\":2623:2714  if (newOwner == address(0)) {... */\n    tag_62:\n        /* \"https://github.com/dxfareed/openzeppelin-contracts/blob/master/contracts/access/Ownable.sol\":2723:2751  _transferOwnership(newOwner) */\n      tag_64\n        /* \"https://github.com/dxfareed/openzeppelin-contracts/blob/master/contracts/access/Ownable.sol\":2742:2750  newOwner */\n      dup2\n        /* \"https://github.com/dxfareed/openzeppelin-contracts/blob/master/contracts/access/Ownable.sol\":2723:2741  _transferOwnership */\n      tag_31\n        /* \"https://github.com/dxfareed/openzeppelin-contracts/blob/master/contracts/access/Ownable.sol\":2723:2751  _transferOwnership(newOwner) */\n      jump\t// in\n    tag_64:\n        /* \"https://github.com/dxfareed/openzeppelin-contracts/blob/master/contracts/access/Ownable.sol\":2543:2758  function transferOwnership(address newOwner) public virtual onlyOwner {... */\n      pop\n      jump\t// out\n        /* \"https://github.com/dxfareed/openzeppelin-contracts/blob/master/contracts/access/Ownable.sol\":1796:1958  function _checkOwner() internal view virtual {... */\n    tag_28:\n        /* \"https://github.com/dxfareed/openzeppelin-contracts/blob/master/contracts/access/Ownable.sol\":1866:1878  _msgSender() */\n      tag_66\n        /* \"https://github.com/dxfareed/openzeppelin-contracts/blob/master/contracts/access/Ownable.sol\":1866:1876  _msgSender */\n      tag_67\n        /* \"https://github.com/dxfareed/openzeppelin-contracts/blob/master/contracts/access/Ownable.sol\":1866:1878  _msgSender() */\n      jump\t// in\n    tag_66:\n        /* \"https://github.com/dxfareed/openzeppelin-contracts/blob/master/contracts/access/Ownable.sol\":1855:1878  owner() != _msgSender() */\n      0xffffffffffffffffffffffffffffffffffffffff\n      and\n        /* \"https://github.com/dxfareed/openzeppelin-contracts/blob/master/contracts/access/Ownable.sol\":1855:1862  owner() */\n      tag_68\n        /* \"https://github.com/dxfareed/openzeppelin-contracts/blob/master/contracts/access/Ownable.sol\":1855:1860  owner */\n      tag_11\n        /* \"https://github.com/dxfareed/openzeppelin-contracts/blob/master/contracts/access/Ownable.sol\":1855:1862  owner() */\n      jump\t// in\n    tag_68:\n        /* \"https://github.com/dxfareed/openzeppelin-contracts/blob/master/contracts/access/Ownable.sol\":1855:1878  owner() != _msgSender() */\n      0xffffffffffffffffffffffffffffffffffffffff\n      and\n      eq\n        /* \"https://github.com/dxfareed/openzeppelin-contracts/blob/master/contracts/access/Ownable.sol\":1851:1952  if (owner() != _msgSender()) {... */\n      tag_69\n      jumpi\n        /* \"https://github.com/dxfareed/openzeppelin-contracts/blob/master/contracts/access/Ownable.sol\":1928:1940  _msgSender() */\n      tag_70\n        /* \"https://github.com/dxfareed/openzeppelin-contracts/blob/master/contracts/access/Ownable.sol\":1928:1938  _msgSender */\n      tag_67\n        /* \"https://github.com/dxfareed/openzeppelin-contracts/blob/master/contracts/access/Ownable.sol\":1928:1940  _msgSender() */\n      jump\t// in\n    tag_70:\n        /* \"https://github.com/dxfareed/openzeppelin-contracts/blob/master/contracts/access/Ownable.sol\":1901:1941  OwnableUnauthorizedAccount(_msgSender()) */\n      mload(0x40)\n      0x118cdaa700000000000000000000000000000000000000000000000000000000\n      dup2\n      mstore\n      0x04\n      add\n      tag_71\n      swap2\n      swap1\n      tag_13\n      jump\t// in\n    tag_71:\n      mload(0x40)\n      dup1\n      swap2\n      sub\n      swap1\n      revert\n        /* \"https://github.com/dxfareed/openzeppelin-contracts/blob/master/contracts/access/Ownable.sol\":1851:1952  if (owner() != _msgSender()) {... */\n    tag_69:\n        /* \"https://github.com/dxfareed/openzeppelin-contracts/blob/master/contracts/access/Ownable.sol\":1796:1958  function _checkOwner() internal view virtual {... */\n      jump\t// out\n        /* \"https://github.com/dxfareed/openzeppelin-contracts/blob/master/contracts/access/Ownable.sol\":2912:3099  function _transferOwnership(address newOwner) internal virtual {... */\n    tag_31:\n        /* \"https://github.com/dxfareed/openzeppelin-contracts/blob/master/contracts/access/Ownable.sol\":2985:3001  address oldOwner */\n      0x00\n        /* \"https://github.com/dxfareed/openzeppelin-contracts/blob/master/contracts/access/Ownable.sol\":3004:3010  _owner */\n      dup1\n      0x00\n      swap1\n      sload\n      swap1\n      0x0100\n      exp\n      swap1\n      div\n      0xffffffffffffffffffffffffffffffffffffffff\n      and\n        /* \"https://github.com/dxfareed/openzeppelin-contracts/blob/master/contracts/access/Ownable.sol\":2985:3010  address oldOwner = _owner */\n      swap1\n      pop\n        /* \"https://github.com/dxfareed/openzeppelin-contracts/blob/master/contracts/access/Ownable.sol\":3029:3037  newOwner */\n      dup2\n        /* \"https://github.com/dxfareed/openzeppelin-contracts/blob/master/contracts/access/Ownable.sol\":3020:3026  _owner */\n      0x00\n      dup1\n        /* \"https://github.com/dxfareed/openzeppelin-contracts/blob/master/contracts/access/Ownable.sol\":3020:3037  _owner = newOwner */\n      0x0100\n      exp\n      dup2\n      sload\n      dup2\n      0xffffffffffffffffffffffffffffffffffffffff\n      mul\n      not\n      and\n      swap1\n      dup4\n      0xffffffffffffffffffffffffffffffffffffffff\n      and\n      mul\n      or\n      swap1\n      sstore\n      pop\n        /* \"https://github.com/dxfareed/openzeppelin-contracts/blob/master/contracts/access/Ownable.sol\":3083:3091  newOwner */\n      dup2\n        /* \"https://github.com/dxfareed/openzeppelin-contracts/blob/master/contracts/access/Ownable.sol\":3052:3092  OwnershipTransferred(oldOwner, newOwner) */\n      0xffffffffffffffffffffffffffffffffffffffff\n      and\n        /* \"https://github.com/dxfareed/openzeppelin-contracts/blob/master/contracts/access/Ownable.sol\":3073:3081  oldOwner */\n      dup2\n        /* \"https://github.com/dxfareed/openzeppelin-contracts/blob/master/contracts/access/Ownable.sol\":3052:3092  OwnershipTransferred(oldOwner, newOwner) */\n      0xffffffffffffffffffffffffffffffffffffffff\n      and\n      0x8be0079c531659141344cd1fd0a4f28419497f9722a3daafe3b4186f6b6457e0\n      mload(0x40)\n      mload(0x40)\n      dup1\n      swap2\n      sub\n      swap1\n      log3\n        /* \"https://github.com/dxfareed/openzeppelin-contracts/blob/master/contracts/access/Ownable.sol\":2975:3099  {... */\n      pop\n        /* \"https://github.com/dxfareed/openzeppelin-contracts/blob/master/contracts/access/Ownable.sol\":2912:3099  function _transferOwnership(address newOwner) internal virtual {... */\n      pop\n      jump\t// out\n        /* \"https://github.com/dxfareed/openzeppelin-contracts/blob/master/contracts/utils/Context.sol\":656:752  function _msgSender() internal view virtual returns (address) {... */\n    tag_67:\n        /* \"https://github.com/dxfareed/openzeppelin-contracts/blob/master/contracts/utils/Context.sol\":709:716  address */\n      0x00\n        /* \"https://github.com/dxfareed/openzeppelin-contracts/blob/master/contracts/utils/Context.sol\":735:745  msg.sender */\n      caller\n        /* \"https://github.com/dxfareed/openzeppelin-contracts/blob/master/contracts/utils/Context.sol\":728:745  return msg.sender */\n      swap1\n      pop\n        /* \"https://github.com/dxfareed/openzeppelin-contracts/blob/master/contracts/utils/Context.sol\":656:752  function _msgSender() internal view virtual returns (address) {... */\n      swap1\n      jump\t// out\n    tag_48:\n      pop\n      dup1\n      sload\n      tag_74\n      swap1\n      tag_75\n      jump\t// in\n    tag_74:\n      0x00\n      dup3\n      sstore\n      dup1\n      0x1f\n      lt\n      tag_77\n      jumpi\n      pop\n      jump(tag_76)\n    tag_77:\n      0x1f\n      add\n      0x20\n      swap1\n      div\n      swap1\n      0x00\n      mstore\n      keccak256(0x00, 0x20)\n      swap1\n      dup2\n      add\n      swap1\n      tag_78\n      swap2\n      swap1\n      tag_79\n      jump\t// in\n    tag_78:\n    tag_76:\n      pop\n      jump\t// out\n    tag_79:\n    tag_80:\n      dup1\n      dup3\n      gt\n      iszero\n      tag_81\n      jumpi\n      0x00\n      dup2\n      0x00\n      swap1\n      sstore\n      pop\n      0x01\n      add\n      jump(tag_80)\n    tag_81:\n      pop\n      swap1\n      jump\t// out\n        /* \"#utility.yul\":7:133   */\n    tag_82:\n        /* \"#utility.yul\":44:51   */\n      0x00\n        /* \"#utility.yul\":84:126   */\n      0xffffffffffffffffffffffffffffffffffffffff\n        /* \"#utility.yul\":77:82   */\n      dup3\n        /* \"#utility.yul\":73:127   */\n      and\n        /* \"#utility.yul\":62:127   */\n      swap1\n      pop\n        /* \"#utility.yul\":7:133   */\n      swap2\n      swap1\n      pop\n      jump\t// out\n        /* \"#utility.yul\":139:235   */\n    tag_83:\n        /* \"#utility.yul\":176:183   */\n      0x00\n        /* \"#utility.yul\":205:229   */\n      tag_124\n        /* \"#utility.yul\":223:228   */\n      dup3\n        /* \"#utility.yul\":205:229   */\n      tag_82\n      jump\t// in\n    tag_124:\n        /* \"#utility.yul\":194:229   */\n      swap1\n      pop\n        /* \"#utility.yul\":139:235   */\n      swap2\n      swap1\n      pop\n      jump\t// out\n        /* \"#utility.yul\":241:359   */\n    tag_84:\n        /* \"#utility.yul\":328:352   */\n      tag_126\n        /* \"#utility.yul\":346:351   */\n      dup2\n        /* \"#utility.yul\":328:352   */\n      tag_83\n      jump\t// in\n    tag_126:\n        /* \"#utility.yul\":323:326   */\n      dup3\n        /* \"#utility.yul\":316:353   */\n      mstore\n        /* \"#utility.yul\":241:359   */\n      pop\n      pop\n      jump\t// out\n        /* \"#utility.yul\":365:587   */\n    tag_13:\n        /* \"#utility.yul\":458:462   */\n      0x00\n        /* \"#utility.yul\":496:498   */\n      0x20\n        /* \"#utility.yul\":485:494   */\n      dup3\n        /* \"#utility.yul\":481:499   */\n      add\n        /* \"#utility.yul\":473:499   */\n      swap1\n      pop\n        /* \"#utility.yul\":509:580   */\n      tag_128\n        /* \"#utility.yul\":577:578   */\n      0x00\n        /* \"#utility.yul\":566:575   */\n      dup4\n        /* \"#utility.yul\":562:579   */\n      add\n        /* \"#utility.yul\":553:559   */\n      dup5\n        /* \"#utility.yul\":509:580   */\n      tag_84\n      jump\t// in\n    tag_128:\n        /* \"#utility.yul\":365:587   */\n      swap3\n      swap2\n      pop\n      pop\n      jump\t// out\n        /* \"#utility.yul\":593:668   */\n    tag_85:\n        /* \"#utility.yul\":626:632   */\n      0x00\n        /* \"#utility.yul\":659:661   */\n      0x40\n        /* \"#utility.yul\":653:662   */\n      mload\n        /* \"#utility.yul\":643:662   */\n      swap1\n      pop\n        /* \"#utility.yul\":593:668   */\n      swap1\n      jump\t// out\n        /* \"#utility.yul\":674:791   */\n    tag_86:\n        /* \"#utility.yul\":783:784   */\n      0x00\n        /* \"#utility.yul\":780:781   */\n      dup1\n        /* \"#utility.yul\":773:785   */\n      revert\n        /* \"#utility.yul\":797:914   */\n    tag_87:\n        /* \"#utility.yul\":906:907   */\n      0x00\n        /* \"#utility.yul\":903:904   */\n      dup1\n        /* \"#utility.yul\":896:908   */\n      revert\n        /* \"#utility.yul\":920:997   */\n    tag_88:\n        /* \"#utility.yul\":957:964   */\n      0x00\n        /* \"#utility.yul\":986:991   */\n      dup2\n        /* \"#utility.yul\":975:991   */\n      swap1\n      pop\n        /* \"#utility.yul\":920:997   */\n      swap2\n      swap1\n      pop\n      jump\t// out\n        /* \"#utility.yul\":1003:1125   */\n    tag_89:\n        /* \"#utility.yul\":1076:1100   */\n      tag_134\n        /* \"#utility.yul\":1094:1099   */\n      dup2\n        /* \"#utility.yul\":1076:1100   */\n      tag_88\n      jump\t// in\n    tag_134:\n        /* \"#utility.yul\":1069:1074   */\n      dup2\n        /* \"#utility.yul\":1066:1101   */\n      eq\n        /* \"#utility.yul\":1056:1119   */\n      tag_135\n      jumpi\n        /* \"#utility.yul\":1115:1116   */\n      0x00\n        /* \"#utility.yul\":1112:1113   */\n      dup1\n        /* \"#utility.yul\":1105:1117   */\n      revert\n        /* \"#utility.yul\":1056:1119   */\n    tag_135:\n        /* \"#utility.yul\":1003:1125   */\n      pop\n      jump\t// out\n        /* \"#utility.yul\":1131:1270   */\n    tag_90:\n        /* \"#utility.yul\":1177:1182   */\n      0x00\n        /* \"#utility.yul\":1215:1221   */\n      dup2\n        /* \"#utility.yul\":1202:1222   */\n      calldataload\n        /* \"#utility.yul\":1193:1222   */\n      swap1\n      pop\n        /* \"#utility.yul\":1231:1264   */\n      tag_137\n        /* \"#utility.yul\":1258:1263   */\n      dup2\n        /* \"#utility.yul\":1231:1264   */\n      tag_89\n      jump\t// in\n    tag_137:\n        /* \"#utility.yul\":1131:1270   */\n      swap3\n      swap2\n      pop\n      pop\n      jump\t// out\n        /* \"#utility.yul\":1276:1605   */\n    tag_16:\n        /* \"#utility.yul\":1335:1341   */\n      0x00\n        /* \"#utility.yul\":1384:1386   */\n      0x20\n        /* \"#utility.yul\":1372:1381   */\n      dup3\n        /* \"#utility.yul\":1363:1370   */\n      dup5\n        /* \"#utility.yul\":1359:1382   */\n      sub\n        /* \"#utility.yul\":1355:1387   */\n      slt\n        /* \"#utility.yul\":1352:1471   */\n      iszero\n      tag_139\n      jumpi\n        /* \"#utility.yul\":1390:1469   */\n      tag_140\n      tag_86\n      jump\t// in\n    tag_140:\n        /* \"#utility.yul\":1352:1471   */\n    tag_139:\n        /* \"#utility.yul\":1510:1511   */\n      0x00\n        /* \"#utility.yul\":1535:1588   */\n      tag_141\n        /* \"#utility.yul\":1580:1587   */\n      dup5\n        /* \"#utility.yul\":1571:1577   */\n      dup3\n        /* \"#utility.yul\":1560:1569   */\n      dup6\n        /* \"#utility.yul\":1556:1578   */\n      add\n        /* \"#utility.yul\":1535:1588   */\n      tag_90\n      jump\t// in\n    tag_141:\n        /* \"#utility.yul\":1525:1588   */\n      swap2\n      pop\n        /* \"#utility.yul\":1481:1598   */\n      pop\n        /* \"#utility.yul\":1276:1605   */\n      swap3\n      swap2\n      pop\n      pop\n      jump\t// out\n        /* \"#utility.yul\":1611:1728   */\n    tag_91:\n        /* \"#utility.yul\":1720:1721   */\n      0x00\n        /* \"#utility.yul\":1717:1718   */\n      dup1\n        /* \"#utility.yul\":1710:1722   */\n      revert\n        /* \"#utility.yul\":1734:1851   */\n    tag_92:\n        /* \"#utility.yul\":1843:1844   */\n      0x00\n        /* \"#utility.yul\":1840:1841   */\n      dup1\n        /* \"#utility.yul\":1833:1845   */\n      revert\n        /* \"#utility.yul\":1857:1959   */\n    tag_93:\n        /* \"#utility.yul\":1898:1904   */\n      0x00\n        /* \"#utility.yul\":1949:1951   */\n      0x1f\n        /* \"#utility.yul\":1945:1952   */\n      not\n        /* \"#utility.yul\":1940:1942   */\n      0x1f\n        /* \"#utility.yul\":1933:1938   */\n      dup4\n        /* \"#utility.yul\":1929:1943   */\n      add\n        /* \"#utility.yul\":1925:1953   */\n      and\n        /* \"#utility.yul\":1915:1953   */\n      swap1\n      pop\n        /* \"#utility.yul\":1857:1959   */\n      swap2\n      swap1\n      pop\n      jump\t// out\n        /* \"#utility.yul\":1965:2145   */\n    tag_94:\n        /* \"#utility.yul\":2013:2090   */\n      0x4e487b7100000000000000000000000000000000000000000000000000000000\n        /* \"#utility.yul\":2010:2011   */\n      0x00\n        /* \"#utility.yul\":2003:2091   */\n      mstore\n        /* \"#utility.yul\":2110:2114   */\n      0x41\n        /* \"#utility.yul\":2107:2108   */\n      0x04\n        /* \"#utility.yul\":2100:2115   */\n      mstore\n        /* \"#utility.yul\":2134:2138   */\n      0x24\n        /* \"#utility.yul\":2131:2132   */\n      0x00\n        /* \"#utility.yul\":2124:2139   */\n      revert\n        /* \"#utility.yul\":2151:2432   */\n    tag_95:\n        /* \"#utility.yul\":2234:2261   */\n      tag_147\n        /* \"#utility.yul\":2256:2260   */\n      dup3\n        /* \"#utility.yul\":2234:2261   */\n      tag_93\n      jump\t// in\n    tag_147:\n        /* \"#utility.yul\":2226:2232   */\n      dup2\n        /* \"#utility.yul\":2222:2262   */\n      add\n        /* \"#utility.yul\":2364:2370   */\n      dup2\n        /* \"#utility.yul\":2352:2362   */\n      dup2\n        /* \"#utility.yul\":2349:2371   */\n      lt\n        /* \"#utility.yul\":2328:2346   */\n      0xffffffffffffffff\n        /* \"#utility.yul\":2316:2326   */\n      dup3\n        /* \"#utility.yul\":2313:2347   */\n      gt\n        /* \"#utility.yul\":2310:2372   */\n      or\n        /* \"#utility.yul\":2307:2395   */\n      iszero\n      tag_148\n      jumpi\n        /* \"#utility.yul\":2375:2393   */\n      tag_149\n      tag_94\n      jump\t// in\n    tag_149:\n        /* \"#utility.yul\":2307:2395   */\n    tag_148:\n        /* \"#utility.yul\":2415:2425   */\n      dup1\n        /* \"#utility.yul\":2411:2413   */\n      0x40\n        /* \"#utility.yul\":2404:2426   */\n      mstore\n        /* \"#utility.yul\":2194:2432   */\n      pop\n        /* \"#utility.yul\":2151:2432   */\n      pop\n      pop\n      jump\t// out\n        /* \"#utility.yul\":2438:2567   */\n    tag_96:\n        /* \"#utility.yul\":2472:2478   */\n      0x00\n        /* \"#utility.yul\":2499:2519   */\n      tag_151\n      tag_85\n      jump\t// in\n    tag_151:\n        /* \"#utility.yul\":2489:2519   */\n      swap1\n      pop\n        /* \"#utility.yul\":2528:2561   */\n      tag_152\n        /* \"#utility.yul\":2556:2560   */\n      dup3\n        /* \"#utility.yul\":2548:2554   */\n      dup3\n        /* \"#utility.yul\":2528:2561   */\n      tag_95\n      jump\t// in\n    tag_152:\n        /* \"#utility.yul\":2438:2567   */\n      swap2\n      swap1\n      pop\n      jump\t// out\n        /* \"#utility.yul\":2573:2881   */\n    tag_97:\n        /* \"#utility.yul\":2635:2639   */\n      0x00\n        /* \"#utility.yul\":2725:2743   */\n      0xffffffffffffffff\n        /* \"#utility.yul\":2717:2723   */\n      dup3\n        /* \"#utility.yul\":2714:2744   */\n      gt\n        /* \"#utility.yul\":2711:2767   */\n      iszero\n      tag_154\n      jumpi\n        /* \"#utility.yul\":2747:2765   */\n      tag_155\n      tag_94\n      jump\t// in\n    tag_155:\n        /* \"#utility.yul\":2711:2767   */\n    tag_154:\n        /* \"#utility.yul\":2785:2814   */\n      tag_156\n        /* \"#utility.yul\":2807:2813   */\n      dup3\n        /* \"#utility.yul\":2785:2814   */\n      tag_93\n      jump\t// in\n    tag_156:\n        /* \"#utility.yul\":2777:2814   */\n      swap1\n      pop\n        /* \"#utility.yul\":2869:2873   */\n      0x20\n        /* \"#utility.yul\":2863:2867   */\n      dup2\n        /* \"#utility.yul\":2859:2874   */\n      add\n        /* \"#utility.yul\":2851:2874   */\n      swap1\n      pop\n        /* \"#utility.yul\":2573:2881   */\n      swap2\n      swap1\n      pop\n      jump\t// out\n        /* \"#utility.yul\":2887:3035   */\n    tag_98:\n        /* \"#utility.yul\":2985:2991   */\n      dup3\n        /* \"#utility.yul\":2980:2983   */\n      dup2\n        /* \"#utility.yul\":2975:2978   */\n      dup4\n        /* \"#utility.yul\":2962:2992   */\n      calldatacopy\n        /* \"#utility.yul\":3026:3027   */\n      0x00\n        /* \"#utility.yul\":3017:3023   */\n      dup4\n        /* \"#utility.yul\":3012:3015   */\n      dup4\n        /* \"#utility.yul\":3008:3024   */\n      add\n        /* \"#utility.yul\":3001:3028   */\n      mstore\n        /* \"#utility.yul\":2887:3035   */\n      pop\n      pop\n      pop\n      jump\t// out\n        /* \"#utility.yul\":3041:3466   */\n    tag_99:\n        /* \"#utility.yul\":3119:3124   */\n      0x00\n        /* \"#utility.yul\":3144:3210   */\n      tag_159\n        /* \"#utility.yul\":3160:3209   */\n      tag_160\n        /* \"#utility.yul\":3202:3208   */\n      dup5\n        /* \"#utility.yul\":3160:3209   */\n      tag_97\n      jump\t// in\n    tag_160:\n        /* \"#utility.yul\":3144:3210   */\n      tag_96\n      jump\t// in\n    tag_159:\n        /* \"#utility.yul\":3135:3210   */\n      swap1\n      pop\n        /* \"#utility.yul\":3233:3239   */\n      dup3\n        /* \"#utility.yul\":3226:3231   */\n      dup2\n        /* \"#utility.yul\":3219:3240   */\n      mstore\n        /* \"#utility.yul\":3271:3275   */\n      0x20\n        /* \"#utility.yul\":3264:3269   */\n      dup2\n        /* \"#utility.yul\":3260:3276   */\n      add\n        /* \"#utility.yul\":3309:3312   */\n      dup5\n        /* \"#utility.yul\":3300:3306   */\n      dup5\n        /* \"#utility.yul\":3295:3298   */\n      dup5\n        /* \"#utility.yul\":3291:3307   */\n      add\n        /* \"#utility.yul\":3288:3313   */\n      gt\n        /* \"#utility.yul\":3285:3397   */\n      iszero\n      tag_161\n      jumpi\n        /* \"#utility.yul\":3316:3395   */\n      tag_162\n      tag_92\n      jump\t// in\n    tag_162:\n        /* \"#utility.yul\":3285:3397   */\n    tag_161:\n        /* \"#utility.yul\":3406:3460   */\n      tag_163\n        /* \"#utility.yul\":3453:3459   */\n      dup5\n        /* \"#utility.yul\":3448:3451   */\n      dup3\n        /* \"#utility.yul\":3443:3446   */\n      dup6\n        /* \"#utility.yul\":3406:3460   */\n      tag_98\n      jump\t// in\n    tag_163:\n        /* \"#utility.yul\":3125:3466   */\n      pop\n        /* \"#utility.yul\":3041:3466   */\n      swap4\n      swap3\n      pop\n      pop\n      pop\n      jump\t// out\n        /* \"#utility.yul\":3486:3826   */\n    tag_100:\n        /* \"#utility.yul\":3542:3547   */\n      0x00\n        /* \"#utility.yul\":3591:3594   */\n      dup3\n        /* \"#utility.yul\":3584:3588   */\n      0x1f\n        /* \"#utility.yul\":3576:3582   */\n      dup4\n        /* \"#utility.yul\":3572:3589   */\n      add\n        /* \"#utility.yul\":3568:3595   */\n      slt\n        /* \"#utility.yul\":3558:3680   */\n      tag_165\n      jumpi\n        /* \"#utility.yul\":3599:3678   */\n      tag_166\n      tag_91\n      jump\t// in\n    tag_166:\n        /* \"#utility.yul\":3558:3680   */\n    tag_165:\n        /* \"#utility.yul\":3716:3722   */\n      dup2\n        /* \"#utility.yul\":3703:3723   */\n      calldataload\n        /* \"#utility.yul\":3741:3820   */\n      tag_167\n        /* \"#utility.yul\":3816:3819   */\n      dup5\n        /* \"#utility.yul\":3808:3814   */\n      dup3\n        /* \"#utility.yul\":3801:3805   */\n      0x20\n        /* \"#utility.yul\":3793:3799   */\n      dup7\n        /* \"#utility.yul\":3789:3806   */\n      add\n        /* \"#utility.yul\":3741:3820   */\n      tag_99\n      jump\t// in\n    tag_167:\n        /* \"#utility.yul\":3732:3820   */\n      swap2\n      pop\n        /* \"#utility.yul\":3548:3826   */\n      pop\n        /* \"#utility.yul\":3486:3826   */\n      swap3\n      swap2\n      pop\n      pop\n      jump\t// out\n        /* \"#utility.yul\":3832:4957   */\n    tag_20:\n        /* \"#utility.yul\":3938:3944   */\n      0x00\n        /* \"#utility.yul\":3946:3952   */\n      dup1\n        /* \"#utility.yul\":3954:3960   */\n      0x00\n        /* \"#utility.yul\":3962:3968   */\n      dup1\n        /* \"#utility.yul\":4011:4014   */\n      0x80\n        /* \"#utility.yul\":3999:4008   */\n      dup6\n        /* \"#utility.yul\":3990:3997   */\n      dup8\n        /* \"#utility.yul\":3986:4009   */\n      sub\n        /* \"#utility.yul\":3982:4015   */\n      slt\n        /* \"#utility.yul\":3979:4099   */\n      iszero\n      tag_169\n      jumpi\n        /* \"#utility.yul\":4018:4097   */\n      tag_170\n      tag_86\n      jump\t// in\n    tag_170:\n        /* \"#utility.yul\":3979:4099   */\n    tag_169:\n        /* \"#utility.yul\":4138:4139   */\n      0x00\n        /* \"#utility.yul\":4163:4216   */\n      tag_171\n        /* \"#utility.yul\":4208:4215   */\n      dup8\n        /* \"#utility.yul\":4199:4205   */\n      dup3\n        /* \"#utility.yul\":4188:4197   */\n      dup9\n        /* \"#utility.yul\":4184:4206   */\n      add\n        /* \"#utility.yul\":4163:4216   */\n      tag_90\n      jump\t// in\n    tag_171:\n        /* \"#utility.yul\":4153:4216   */\n      swap5\n      pop\n        /* \"#utility.yul\":4109:4226   */\n      pop\n        /* \"#utility.yul\":4293:4295   */\n      0x20\n        /* \"#utility.yul\":4282:4291   */\n      dup6\n        /* \"#utility.yul\":4278:4296   */\n      add\n        /* \"#utility.yul\":4265:4297   */\n      calldataload\n        /* \"#utility.yul\":4324:4342   */\n      0xffffffffffffffff\n        /* \"#utility.yul\":4316:4322   */\n      dup2\n        /* \"#utility.yul\":4313:4343   */\n      gt\n        /* \"#utility.yul\":4310:4427   */\n      iszero\n      tag_172\n      jumpi\n        /* \"#utility.yul\":4346:4425   */\n      tag_173\n      tag_87\n      jump\t// in\n    tag_173:\n        /* \"#utility.yul\":4310:4427   */\n    tag_172:\n        /* \"#utility.yul\":4451:4514   */\n      tag_174\n        /* \"#utility.yul\":4506:4513   */\n      dup8\n        /* \"#utility.yul\":4497:4503   */\n      dup3\n        /* \"#utility.yul\":4486:4495   */\n      dup9\n        /* \"#utility.yul\":4482:4504   */\n      add\n        /* \"#utility.yul\":4451:4514   */\n      tag_100\n      jump\t// in\n    tag_174:\n        /* \"#utility.yul\":4441:4514   */\n      swap4\n      pop\n        /* \"#utility.yul\":4236:4524   */\n      pop\n        /* \"#utility.yul\":4591:4593   */\n      0x40\n        /* \"#utility.yul\":4580:4589   */\n      dup6\n        /* \"#utility.yul\":4576:4594   */\n      add\n        /* \"#utility.yul\":4563:4595   */\n      calldataload\n        /* \"#utility.yul\":4622:4640   */\n      0xffffffffffffffff\n        /* \"#utility.yul\":4614:4620   */\n      dup2\n        /* \"#utility.yul\":4611:4641   */\n      gt\n        /* \"#utility.yul\":4608:4725   */\n      iszero\n      tag_175\n      jumpi\n        /* \"#utility.yul\":4644:4723   */\n      tag_176\n      tag_87\n      jump\t// in\n    tag_176:\n        /* \"#utility.yul\":4608:4725   */\n    tag_175:\n        /* \"#utility.yul\":4749:4812   */\n      tag_177\n        /* \"#utility.yul\":4804:4811   */\n      dup8\n        /* \"#utility.yul\":4795:4801   */\n      dup3\n        /* \"#utility.yul\":4784:4793   */\n      dup9\n        /* \"#utility.yul\":4780:4802   */\n      add\n        /* \"#utility.yul\":4749:4812   */\n      tag_100\n      jump\t// in\n    tag_177:\n        /* \"#utility.yul\":4739:4812   */\n      swap3\n      pop\n        /* \"#utility.yul\":4534:4822   */\n      pop\n        /* \"#utility.yul\":4861:4863   */\n      0x60\n        /* \"#utility.yul\":4887:4940   */\n      tag_178\n        /* \"#utility.yul\":4932:4939   */\n      dup8\n        /* \"#utility.yul\":4923:4929   */\n      dup3\n        /* \"#utility.yul\":4912:4921   */\n      dup9\n        /* \"#utility.yul\":4908:4930   */\n      add\n        /* \"#utility.yul\":4887:4940   */\n      tag_90\n      jump\t// in\n    tag_178:\n        /* \"#utility.yul\":4877:4940   */\n      swap2\n      pop\n        /* \"#utility.yul\":4832:4950   */\n      pop\n        /* \"#utility.yul\":3832:4957   */\n      swap3\n      swap6\n      swap2\n      swap5\n      pop\n      swap3\n      pop\n      jump\t// out\n        /* \"#utility.yul\":4963:5085   */\n    tag_101:\n        /* \"#utility.yul\":5036:5060   */\n      tag_180\n        /* \"#utility.yul\":5054:5059   */\n      dup2\n        /* \"#utility.yul\":5036:5060   */\n      tag_83\n      jump\t// in\n    tag_180:\n        /* \"#utility.yul\":5029:5034   */\n      dup2\n        /* \"#utility.yul\":5026:5061   */\n      eq\n        /* \"#utility.yul\":5016:5079   */\n      tag_181\n      jumpi\n        /* \"#utility.yul\":5075:5076   */\n      0x00\n        /* \"#utility.yul\":5072:5073   */\n      dup1\n        /* \"#utility.yul\":5065:5077   */\n      revert\n        /* \"#utility.yul\":5016:5079   */\n    tag_181:\n        /* \"#utility.yul\":4963:5085   */\n      pop\n      jump\t// out\n        /* \"#utility.yul\":5091:5230   */\n    tag_102:\n        /* \"#utility.yul\":5137:5142   */\n      0x00\n        /* \"#utility.yul\":5175:5181   */\n      dup2\n        /* \"#utility.yul\":5162:5182   */\n      calldataload\n        /* \"#utility.yul\":5153:5182   */\n      swap1\n      pop\n        /* \"#utility.yul\":5191:5224   */\n      tag_183\n        /* \"#utility.yul\":5218:5223   */\n      dup2\n        /* \"#utility.yul\":5191:5224   */\n      tag_101\n      jump\t// in\n    tag_183:\n        /* \"#utility.yul\":5091:5230   */\n      swap3\n      swap2\n      pop\n      pop\n      jump\t// out\n        /* \"#utility.yul\":5236:5565   */\n    tag_24:\n        /* \"#utility.yul\":5295:5301   */\n      0x00\n        /* \"#utility.yul\":5344:5346   */\n      0x20\n        /* \"#utility.yul\":5332:5341   */\n      dup3\n        /* \"#utility.yul\":5323:5330   */\n      dup5\n        /* \"#utility.yul\":5319:5342   */\n      sub\n        /* \"#utility.yul\":5315:5347   */\n      slt\n        /* \"#utility.yul\":5312:5431   */\n      iszero\n      tag_185\n      jumpi\n        /* \"#utility.yul\":5350:5429   */\n      tag_186\n      tag_86\n      jump\t// in\n    tag_186:\n        /* \"#utility.yul\":5312:5431   */\n    tag_185:\n        /* \"#utility.yul\":5470:5471   */\n      0x00\n        /* \"#utility.yul\":5495:5548   */\n      tag_187\n        /* \"#utility.yul\":5540:5547   */\n      dup5\n        /* \"#utility.yul\":5531:5537   */\n      dup3\n        /* \"#utility.yul\":5520:5529   */\n      dup6\n        /* \"#utility.yul\":5516:5538   */\n      add\n        /* \"#utility.yul\":5495:5548   */\n      tag_102\n      jump\t// in\n    tag_187:\n        /* \"#utility.yul\":5485:5548   */\n      swap2\n      pop\n        /* \"#utility.yul\":5441:5558   */\n      pop\n        /* \"#utility.yul\":5236:5565   */\n      swap3\n      swap2\n      pop\n      pop\n      jump\t// out\n        /* \"#utility.yul\":5571:5751   */\n    tag_41:\n        /* \"#utility.yul\":5619:5696   */\n      0x4e487b7100000000000000000000000000000000000000000000000000000000\n        /* \"#utility.yul\":5616:5617   */\n      0x00\n        /* \"#utility.yul\":5609:5697   */\n      mstore\n        /* \"#utility.yul\":5716:5720   */\n      0x32\n        /* \"#utility.yul\":5713:5714   */\n      0x04\n        /* \"#utility.yul\":5706:5721   */\n      mstore\n        /* \"#utility.yul\":5740:5744   */\n      0x24\n        /* \"#utility.yul\":5737:5738   */\n      0x00\n        /* \"#utility.yul\":5730:5745   */\n      revert\n        /* \"#utility.yul\":5757:5875   */\n    tag_103:\n        /* \"#utility.yul\":5844:5868   */\n      tag_190\n        /* \"#utility.yul\":5862:5867   */\n      dup2\n        /* \"#utility.yul\":5844:5868   */\n      tag_88\n      jump\t// in\n    tag_190:\n        /* \"#utility.yul\":5839:5842   */\n      dup3\n        /* \"#utility.yul\":5832:5869   */\n      mstore\n        /* \"#utility.yul\":5757:5875   */\n      pop\n      pop\n      jump\t// out\n        /* \"#utility.yul\":5881:6103   */\n    tag_51:\n        /* \"#utility.yul\":5974:5978   */\n      0x00\n        /* \"#utility.yul\":6012:6014   */\n      0x20\n        /* \"#utility.yul\":6001:6010   */\n      dup3\n        /* \"#utility.yul\":5997:6015   */\n      add\n        /* \"#utility.yul\":5989:6015   */\n      swap1\n      pop\n        /* \"#utility.yul\":6025:6096   */\n      tag_192\n        /* \"#utility.yul\":6093:6094   */\n      0x00\n        /* \"#utility.yul\":6082:6091   */\n      dup4\n        /* \"#utility.yul\":6078:6095   */\n      add\n        /* \"#utility.yul\":6069:6075   */\n      dup5\n        /* \"#utility.yul\":6025:6096   */\n      tag_103\n      jump\t// in\n    tag_192:\n        /* \"#utility.yul\":5881:6103   */\n      swap3\n      swap2\n      pop\n      pop\n      jump\t// out\n        /* \"#utility.yul\":6109:6208   */\n    tag_104:\n        /* \"#utility.yul\":6161:6167   */\n      0x00\n        /* \"#utility.yul\":6195:6200   */\n      dup2\n        /* \"#utility.yul\":6189:6201   */\n      mload\n        /* \"#utility.yul\":6179:6201   */\n      swap1\n      pop\n        /* \"#utility.yul\":6109:6208   */\n      swap2\n      swap1\n      pop\n      jump\t// out\n        /* \"#utility.yul\":6214:6394   */\n    tag_105:\n        /* \"#utility.yul\":6262:6339   */\n      0x4e487b7100000000000000000000000000000000000000000000000000000000\n        /* \"#utility.yul\":6259:6260   */\n      0x00\n        /* \"#utility.yul\":6252:6340   */\n      mstore\n        /* \"#utility.yul\":6359:6363   */\n      0x22\n        /* \"#utility.yul\":6356:6357   */\n      0x04\n        /* \"#utility.yul\":6349:6364   */\n      mstore\n        /* \"#utility.yul\":6383:6387   */\n      0x24\n        /* \"#utility.yul\":6380:6381   */\n      0x00\n        /* \"#utility.yul\":6373:6388   */\n      revert\n        /* \"#utility.yul\":6400:6720   */\n    tag_75:\n        /* \"#utility.yul\":6444:6450   */\n      0x00\n        /* \"#utility.yul\":6481:6482   */\n      0x02\n        /* \"#utility.yul\":6475:6479   */\n      dup3\n        /* \"#utility.yul\":6471:6483   */\n      div\n        /* \"#utility.yul\":6461:6483   */\n      swap1\n      pop\n        /* \"#utility.yul\":6528:6529   */\n      0x01\n        /* \"#utility.yul\":6522:6526   */\n      dup3\n        /* \"#utility.yul\":6518:6530   */\n      and\n        /* \"#utility.yul\":6549:6567   */\n      dup1\n        /* \"#utility.yul\":6539:6620   */\n      tag_196\n      jumpi\n        /* \"#utility.yul\":6605:6609   */\n      0x7f\n        /* \"#utility.yul\":6597:6603   */\n      dup3\n        /* \"#utility.yul\":6593:6610   */\n      and\n        /* \"#utility.yul\":6583:6610   */\n      swap2\n      pop\n        /* \"#utility.yul\":6539:6620   */\n    tag_196:\n        /* \"#utility.yul\":6667:6669   */\n      0x20\n        /* \"#utility.yul\":6659:6665   */\n      dup3\n        /* \"#utility.yul\":6656:6670   */\n      lt\n        /* \"#utility.yul\":6636:6654   */\n      dup2\n        /* \"#utility.yul\":6633:6671   */\n      sub\n        /* \"#utility.yul\":6630:6714   */\n      tag_197\n      jumpi\n        /* \"#utility.yul\":6686:6704   */\n      tag_198\n      tag_105\n      jump\t// in\n    tag_198:\n        /* \"#utility.yul\":6630:6714   */\n    tag_197:\n        /* \"#utility.yul\":6451:6720   */\n      pop\n        /* \"#utility.yul\":6400:6720   */\n      swap2\n      swap1\n      pop\n      jump\t// out\n        /* \"#utility.yul\":6726:6867   */\n    tag_106:\n        /* \"#utility.yul\":6775:6779   */\n      0x00\n        /* \"#utility.yul\":6798:6801   */\n      dup2\n        /* \"#utility.yul\":6790:6801   */\n      swap1\n      pop\n        /* \"#utility.yul\":6821:6824   */\n      dup2\n        /* \"#utility.yul\":6818:6819   */\n      0x00\n        /* \"#utility.yul\":6811:6825   */\n      mstore\n        /* \"#utility.yul\":6855:6859   */\n      0x20\n        /* \"#utility.yul\":6852:6853   */\n      0x00\n        /* \"#utility.yul\":6842:6860   */\n      keccak256\n        /* \"#utility.yul\":6834:6860   */\n      swap1\n      pop\n        /* \"#utility.yul\":6726:6867   */\n      swap2\n      swap1\n      pop\n      jump\t// out\n        /* \"#utility.yul\":6873:6966   */\n    tag_107:\n        /* \"#utility.yul\":6910:6916   */\n      0x00\n        /* \"#utility.yul\":6957:6959   */\n      0x20\n        /* \"#utility.yul\":6952:6954   */\n      0x1f\n        /* \"#utility.yul\":6945:6950   */\n      dup4\n        /* \"#utility.yul\":6941:6955   */\n      add\n        /* \"#utility.yul\":6937:6960   */\n      div\n        /* \"#utility.yul\":6927:6960   */\n      swap1\n      pop\n        /* \"#utility.yul\":6873:6966   */\n      swap2\n      swap1\n      pop\n      jump\t// out\n        /* \"#utility.yul\":6972:7079   */\n    tag_108:\n        /* \"#utility.yul\":7016:7024   */\n      0x00\n        /* \"#utility.yul\":7066:7071   */\n      dup3\n        /* \"#utility.yul\":7060:7064   */\n      dup3\n        /* \"#utility.yul\":7056:7072   */\n      shl\n        /* \"#utility.yul\":7035:7072   */\n      swap1\n      pop\n        /* \"#utility.yul\":6972:7079   */\n      swap3\n      swap2\n      pop\n      pop\n      jump\t// out\n        /* \"#utility.yul\":7085:7478   */\n    tag_109:\n        /* \"#utility.yul\":7154:7160   */\n      0x00\n        /* \"#utility.yul\":7204:7205   */\n      0x08\n        /* \"#utility.yul\":7192:7202   */\n      dup4\n        /* \"#utility.yul\":7188:7206   */\n      mul\n        /* \"#utility.yul\":7227:7324   */\n      tag_203\n        /* \"#utility.yul\":7257:7323   */\n      0xffffffffffffffffffffffffffffffffffffffffffffffffffffffffffffffff\n        /* \"#utility.yul\":7246:7255   */\n      dup3\n        /* \"#utility.yul\":7227:7324   */\n      tag_108\n      jump\t// in\n    tag_203:\n        /* \"#utility.yul\":7345:7384   */\n      tag_204\n        /* \"#utility.yul\":7375:7383   */\n      dup7\n        /* \"#utility.yul\":7364:7373   */\n      dup4\n        /* \"#utility.yul\":7345:7384   */\n      tag_108\n      jump\t// in\n    tag_204:\n        /* \"#utility.yul\":7333:7384   */\n      swap6\n      pop\n        /* \"#utility.yul\":7417:7421   */\n      dup1\n        /* \"#utility.yul\":7413:7422   */\n      not\n        /* \"#utility.yul\":7406:7411   */\n      dup5\n        /* \"#utility.yul\":7402:7423   */\n      and\n        /* \"#utility.yul\":7393:7423   */\n      swap4\n      pop\n        /* \"#utility.yul\":7466:7470   */\n      dup1\n        /* \"#utility.yul\":7456:7464   */\n      dup7\n        /* \"#utility.yul\":7452:7471   */\n      and\n        /* \"#utility.yul\":7445:7450   */\n      dup5\n        /* \"#utility.yul\":7442:7472   */\n      or\n        /* \"#utility.yul\":7432:7472   */\n      swap3\n      pop\n        /* \"#utility.yul\":7161:7478   */\n      pop\n      pop\n        /* \"#utility.yul\":7085:7478   */\n      swap4\n      swap3\n      pop\n      pop\n      pop\n      jump\t// out\n        /* \"#utility.yul\":7484:7544   */\n    tag_110:\n        /* \"#utility.yul\":7512:7515   */\n      0x00\n        /* \"#utility.yul\":7533:7538   */\n      dup2\n        /* \"#utility.yul\":7526:7538   */\n      swap1\n      pop\n        /* \"#utility.yul\":7484:7544   */\n      swap2\n      swap1\n      pop\n      jump\t// out\n        /* \"#utility.yul\":7550:7692   */\n    tag_111:\n        /* \"#utility.yul\":7600:7609   */\n      0x00\n        /* \"#utility.yul\":7633:7686   */\n      tag_207\n        /* \"#utility.yul\":7651:7685   */\n      tag_208\n        /* \"#utility.yul\":7660:7684   */\n      tag_209\n        /* \"#utility.yul\":7678:7683   */\n      dup5\n        /* \"#utility.yul\":7660:7684   */\n      tag_88\n      jump\t// in\n    tag_209:\n        /* \"#utility.yul\":7651:7685   */\n      tag_110\n      jump\t// in\n    tag_208:\n        /* \"#utility.yul\":7633:7686   */\n      tag_88\n      jump\t// in\n    tag_207:\n        /* \"#utility.yul\":7620:7686   */\n      swap1\n      pop\n        /* \"#utility.yul\":7550:7692   */\n      swap2\n      swap1\n      pop\n      jump\t// out\n        /* \"#utility.yul\":7698:7773   */\n    tag_112:\n        /* \"#utility.yul\":7741:7744   */\n      0x00\n        /* \"#utility.yul\":7762:7767   */\n      dup2\n        /* \"#utility.yul\":7755:7767   */\n      swap1\n      pop\n        /* \"#utility.yul\":7698:7773   */\n      swap2\n      swap1\n      pop\n      jump\t// out\n        /* \"#utility.yul\":7779:8048   */\n    tag_113:\n        /* \"#utility.yul\":7889:7928   */\n      tag_212\n        /* \"#utility.yul\":7920:7927   */\n      dup4\n        /* \"#utility.yul\":7889:7928   */\n      tag_111\n      jump\t// in\n    tag_212:\n        /* \"#utility.yul\":7950:8041   */\n      tag_213\n        /* \"#utility.yul\":7999:8040   */\n      tag_214\n        /* \"#utility.yul\":8023:8039   */\n      dup3\n        /* \"#utility.yul\":7999:8040   */\n      tag_112\n      jump\t// in\n    tag_214:\n        /* \"#utility.yul\":7991:7997   */\n      dup5\n        /* \"#utility.yul\":7984:7988   */\n      dup5\n        /* \"#utility.yul\":7978:7989   */\n      sload\n        /* \"#utility.yul\":7950:8041   */\n      tag_109\n      jump\t// in\n    tag_213:\n        /* \"#utility.yul\":7944:7948   */\n      dup3\n        /* \"#utility.yul\":7937:8042   */\n      sstore\n        /* \"#utility.yul\":7855:8048   */\n      pop\n        /* \"#utility.yul\":7779:8048   */\n      pop\n      pop\n      pop\n      jump\t// out\n        /* \"#utility.yul\":8054:8127   */\n    tag_114:\n        /* \"#utility.yul\":8099:8102   */\n      0x00\n        /* \"#utility.yul\":8054:8127   */\n      swap1\n      jump\t// out\n        /* \"#utility.yul\":8133:8322   */\n    tag_115:\n        /* \"#utility.yul\":8210:8242   */\n      tag_217\n      tag_114\n      jump\t// in\n    tag_217:\n        /* \"#utility.yul\":8251:8316   */\n      tag_218\n        /* \"#utility.yul\":8309:8315   */\n      dup2\n        /* \"#utility.yul\":8301:8307   */\n      dup5\n        /* \"#utility.yul\":8295:8299   */\n      dup5\n        /* \"#utility.yul\":8251:8316   */\n      tag_113\n      jump\t// in\n    tag_218:\n        /* \"#utility.yul\":8186:8322   */\n      pop\n        /* \"#utility.yul\":8133:8322   */\n      pop\n      pop\n      jump\t// out\n        /* \"#utility.yul\":8328:8514   */\n    tag_116:\n        /* \"#utility.yul\":8388:8508   */\n    tag_220:\n        /* \"#utility.yul\":8405:8408   */\n      dup2\n        /* \"#utility.yul\":8398:8403   */\n      dup2\n        /* \"#utility.yul\":8395:8409   */\n      lt\n        /* \"#utility.yul\":8388:8508   */\n      iszero\n      tag_222\n      jumpi\n        /* \"#utility.yul\":8459:8498   */\n      tag_223\n        /* \"#utility.yul\":8496:8497   */\n      0x00\n        /* \"#utility.yul\":8489:8494   */\n      dup3\n        /* \"#utility.yul\":8459:8498   */\n      tag_115\n      jump\t// in\n    tag_223:\n        /* \"#utility.yul\":8432:8433   */\n      0x01\n        /* \"#utility.yul\":8425:8430   */\n      dup2\n        /* \"#utility.yul\":8421:8434   */\n      add\n        /* \"#utility.yul\":8412:8434   */\n      swap1\n      pop\n        /* \"#utility.yul\":8388:8508   */\n      jump(tag_220)\n    tag_222:\n        /* \"#utility.yul\":8328:8514   */\n      pop\n      pop\n      jump\t// out\n        /* \"#utility.yul\":8520:9063   */\n    tag_117:\n        /* \"#utility.yul\":8621:8623   */\n      0x1f\n        /* \"#utility.yul\":8616:8619   */\n      dup3\n        /* \"#utility.yul\":8613:8624   */\n      gt\n        /* \"#utility.yul\":8610:9056   */\n      iszero\n      tag_225\n      jumpi\n        /* \"#utility.yul\":8655:8693   */\n      tag_226\n        /* \"#utility.yul\":8687:8692   */\n      dup2\n        /* \"#utility.yul\":8655:8693   */\n      tag_106\n      jump\t// in\n    tag_226:\n        /* \"#utility.yul\":8739:8768   */\n      tag_227\n        /* \"#utility.yul\":8757:8767   */\n      dup5\n        /* \"#utility.yul\":8739:8768   */\n      tag_107\n      jump\t// in\n    tag_227:\n        /* \"#utility.yul\":8729:8737   */\n      dup2\n        /* \"#utility.yul\":8725:8769   */\n      add\n        /* \"#utility.yul\":8922:8924   */\n      0x20\n        /* \"#utility.yul\":8910:8920   */\n      dup6\n        /* \"#utility.yul\":8907:8925   */\n      lt\n        /* \"#utility.yul\":8904:8953   */\n      iszero\n      tag_228\n      jumpi\n        /* \"#utility.yul\":8943:8951   */\n      dup2\n        /* \"#utility.yul\":8928:8951   */\n      swap1\n      pop\n        /* \"#utility.yul\":8904:8953   */\n    tag_228:\n        /* \"#utility.yul\":8966:9046   */\n      tag_229\n        /* \"#utility.yul\":9022:9044   */\n      tag_230\n        /* \"#utility.yul\":9040:9043   */\n      dup6\n        /* \"#utility.yul\":9022:9044   */\n      tag_107\n      jump\t// in\n    tag_230:\n        /* \"#utility.yul\":9012:9020   */\n      dup4\n        /* \"#utility.yul\":9008:9045   */\n      add\n        /* \"#utility.yul\":8995:9006   */\n      dup3\n        /* \"#utility.yul\":8966:9046   */\n      tag_116\n      jump\t// in\n    tag_229:\n        /* \"#utility.yul\":8625:9056   */\n      pop\n      pop\n        /* \"#utility.yul\":8610:9056   */\n    tag_225:\n        /* \"#utility.yul\":8520:9063   */\n      pop\n      pop\n      pop\n      jump\t// out\n        /* \"#utility.yul\":9069:9186   */\n    tag_118:\n        /* \"#utility.yul\":9123:9131   */\n      0x00\n        /* \"#utility.yul\":9173:9178   */\n      dup3\n        /* \"#utility.yul\":9167:9171   */\n      dup3\n        /* \"#utility.yul\":9163:9179   */\n      shr\n        /* \"#utility.yul\":9142:9179   */\n      swap1\n      pop\n        /* \"#utility.yul\":9069:9186   */\n      swap3\n      swap2\n      pop\n      pop\n      jump\t// out\n        /* \"#utility.yul\":9192:9361   */\n    tag_119:\n        /* \"#utility.yul\":9236:9242   */\n      0x00\n        /* \"#utility.yul\":9269:9320   */\n      tag_233\n        /* \"#utility.yul\":9317:9318   */\n      0x00\n        /* \"#utility.yul\":9313:9319   */\n      not\n        /* \"#utility.yul\":9305:9310   */\n      dup5\n        /* \"#utility.yul\":9302:9303   */\n      0x08\n        /* \"#utility.yul\":9298:9311   */\n      mul\n        /* \"#utility.yul\":9269:9320   */\n      tag_118\n      jump\t// in\n    tag_233:\n        /* \"#utility.yul\":9265:9321   */\n      not\n        /* \"#utility.yul\":9350:9354   */\n      dup1\n        /* \"#utility.yul\":9344:9348   */\n      dup4\n        /* \"#utility.yul\":9340:9355   */\n      and\n        /* \"#utility.yul\":9330:9355   */\n      swap2\n      pop\n        /* \"#utility.yul\":9243:9361   */\n      pop\n        /* \"#utility.yul\":9192:9361   */\n      swap3\n      swap2\n      pop\n      pop\n      jump\t// out\n        /* \"#utility.yul\":9366:9661   */\n    tag_120:\n        /* \"#utility.yul\":9442:9446   */\n      0x00\n        /* \"#utility.yul\":9588:9617   */\n      tag_235\n        /* \"#utility.yul\":9613:9616   */\n      dup4\n        /* \"#utility.yul\":9607:9611   */\n      dup4\n        /* \"#utility.yul\":9588:9617   */\n      tag_119\n      jump\t// in\n    tag_235:\n        /* \"#utility.yul\":9580:9617   */\n      swap2\n      pop\n        /* \"#utility.yul\":9650:9653   */\n      dup3\n        /* \"#utility.yul\":9647:9648   */\n      0x02\n        /* \"#utility.yul\":9643:9654   */\n      mul\n        /* \"#utility.yul\":9637:9641   */\n      dup3\n        /* \"#utility.yul\":9634:9655   */\n      or\n        /* \"#utility.yul\":9626:9655   */\n      swap1\n      pop\n        /* \"#utility.yul\":9366:9661   */\n      swap3\n      swap2\n      pop\n      pop\n      jump\t// out\n        /* \"#utility.yul\":9666:11061   */\n    tag_57:\n        /* \"#utility.yul\":9783:9820   */\n      tag_237\n        /* \"#utility.yul\":9816:9819   */\n      dup3\n        /* \"#utility.yul\":9783:9820   */\n      tag_104\n      jump\t// in\n    tag_237:\n        /* \"#utility.yul\":9885:9903   */\n      0xffffffffffffffff\n        /* \"#utility.yul\":9877:9883   */\n      dup2\n        /* \"#utility.yul\":9874:9904   */\n      gt\n        /* \"#utility.yul\":9871:9927   */\n      iszero\n      tag_238\n      jumpi\n        /* \"#utility.yul\":9907:9925   */\n      tag_239\n      tag_94\n      jump\t// in\n    tag_239:\n        /* \"#utility.yul\":9871:9927   */\n    tag_238:\n        /* \"#utility.yul\":9951:9989   */\n      tag_240\n        /* \"#utility.yul\":9983:9987   */\n      dup3\n        /* \"#utility.yul\":9977:9988   */\n      sload\n        /* \"#utility.yul\":9951:9989   */\n      tag_75\n      jump\t// in\n    tag_240:\n        /* \"#utility.yul\":10036:10103   */\n      tag_241\n        /* \"#utility.yul\":10096:10102   */\n      dup3\n        /* \"#utility.yul\":10088:10094   */\n      dup3\n        /* \"#utility.yul\":10082:10086   */\n      dup6\n        /* \"#utility.yul\":10036:10103   */\n      tag_117\n      jump\t// in\n    tag_241:\n        /* \"#utility.yul\":10130:10131   */\n      0x00\n        /* \"#utility.yul\":10154:10158   */\n      0x20\n        /* \"#utility.yul\":10141:10158   */\n      swap1\n      pop\n        /* \"#utility.yul\":10186:10188   */\n      0x1f\n        /* \"#utility.yul\":10178:10184   */\n      dup4\n        /* \"#utility.yul\":10175:10189   */\n      gt\n        /* \"#utility.yul\":10203:10204   */\n      0x01\n        /* \"#utility.yul\":10198:10816   */\n      dup2\n      eq\n      tag_243\n      jumpi\n        /* \"#utility.yul\":10860:10861   */\n      0x00\n        /* \"#utility.yul\":10877:10883   */\n      dup5\n        /* \"#utility.yul\":10874:10951   */\n      iszero\n      tag_244\n      jumpi\n        /* \"#utility.yul\":10926:10935   */\n      dup3\n        /* \"#utility.yul\":10921:10924   */\n      dup8\n        /* \"#utility.yul\":10917:10936   */\n      add\n        /* \"#utility.yul\":10911:10937   */\n      mload\n        /* \"#utility.yul\":10902:10937   */\n      swap1\n      pop\n        /* \"#utility.yul\":10874:10951   */\n    tag_244:\n        /* \"#utility.yul\":10977:11044   */\n      tag_245\n        /* \"#utility.yul\":11037:11043   */\n      dup6\n        /* \"#utility.yul\":11030:11035   */\n      dup3\n        /* \"#utility.yul\":10977:11044   */\n      tag_120\n      jump\t// in\n    tag_245:\n        /* \"#utility.yul\":10971:10975   */\n      dup7\n        /* \"#utility.yul\":10964:11045   */\n      sstore\n        /* \"#utility.yul\":10833:11055   */\n      pop\n        /* \"#utility.yul\":10168:11055   */\n      jump(tag_242)\n        /* \"#utility.yul\":10198:10816   */\n    tag_243:\n        /* \"#utility.yul\":10250:10254   */\n      0x1f\n        /* \"#utility.yul\":10246:10255   */\n      not\n        /* \"#utility.yul\":10238:10244   */\n      dup5\n        /* \"#utility.yul\":10234:10256   */\n      and\n        /* \"#utility.yul\":10284:10321   */\n      tag_246\n        /* \"#utility.yul\":10316:10320   */\n      dup7\n        /* \"#utility.yul\":10284:10321   */\n      tag_106\n      jump\t// in\n    tag_246:\n        /* \"#utility.yul\":10343:10344   */\n      0x00\n        /* \"#utility.yul\":10357:10565   */\n    tag_247:\n        /* \"#utility.yul\":10371:10378   */\n      dup3\n        /* \"#utility.yul\":10368:10369   */\n      dup2\n        /* \"#utility.yul\":10365:10379   */\n      lt\n        /* \"#utility.yul\":10357:10565   */\n      iszero\n      tag_249\n      jumpi\n        /* \"#utility.yul\":10450:10459   */\n      dup5\n        /* \"#utility.yul\":10445:10448   */\n      dup10\n        /* \"#utility.yul\":10441:10460   */\n      add\n        /* \"#utility.yul\":10435:10461   */\n      mload\n        /* \"#utility.yul\":10427:10433   */\n      dup3\n        /* \"#utility.yul\":10420:10462   */\n      sstore\n        /* \"#utility.yul\":10501:10502   */\n      0x01\n        /* \"#utility.yul\":10493:10499   */\n      dup3\n        /* \"#utility.yul\":10489:10503   */\n      add\n        /* \"#utility.yul\":10479:10503   */\n      swap2\n      pop\n        /* \"#utility.yul\":10548:10550   */\n      0x20\n        /* \"#utility.yul\":10537:10546   */\n      dup6\n        /* \"#utility.yul\":10533:10551   */\n      add\n        /* \"#utility.yul\":10520:10551   */\n      swap5\n      pop\n        /* \"#utility.yul\":10394:10398   */\n      0x20\n        /* \"#utility.yul\":10391:10392   */\n      dup2\n        /* \"#utility.yul\":10387:10399   */\n      add\n        /* \"#utility.yul\":10382:10399   */\n      swap1\n      pop\n        /* \"#utility.yul\":10357:10565   */\n      jump(tag_247)\n    tag_249:\n        /* \"#utility.yul\":10593:10599   */\n      dup7\n        /* \"#utility.yul\":10584:10591   */\n      dup4\n        /* \"#utility.yul\":10581:10600   */\n      lt\n        /* \"#utility.yul\":10578:10757   */\n      iszero\n      tag_250\n      jumpi\n        /* \"#utility.yul\":10651:10660   */\n      dup5\n        /* \"#utility.yul\":10646:10649   */\n      dup10\n        /* \"#utility.yul\":10642:10661   */\n      add\n        /* \"#utility.yul\":10636:10662   */\n      mload\n        /* \"#utility.yul\":10694:10742   */\n      tag_251\n        /* \"#utility.yul\":10736:10740   */\n      0x1f\n        /* \"#utility.yul\":10728:10734   */\n      dup10\n        /* \"#utility.yul\":10724:10741   */\n      and\n        /* \"#utility.yul\":10713:10722   */\n      dup3\n        /* \"#utility.yul\":10694:10742   */\n      tag_119\n      jump\t// in\n    tag_251:\n        /* \"#utility.yul\":10686:10692   */\n      dup4\n        /* \"#utility.yul\":10679:10743   */\n      sstore\n        /* \"#utility.yul\":10601:10757   */\n      pop\n        /* \"#utility.yul\":10578:10757   */\n    tag_250:\n        /* \"#utility.yul\":10803:10804   */\n      0x01\n        /* \"#utility.yul\":10799:10800   */\n      0x02\n        /* \"#utility.yul\":10791:10797   */\n      dup9\n        /* \"#utility.yul\":10787:10801   */\n      mul\n        /* \"#utility.yul\":10783:10805   */\n      add\n        /* \"#utility.yul\":10777:10781   */\n      dup9\n        /* \"#utility.yul\":10770:10806   */\n      sstore\n        /* \"#utility.yul\":10205:10816   */\n      pop\n      pop\n      pop\n        /* \"#utility.yul\":10168:11055   */\n    tag_242:\n      pop\n        /* \"#utility.yul\":9758:11061   */\n      pop\n      pop\n      pop\n        /* \"#utility.yul\":9666:11061   */\n      pop\n      pop\n      jump\t// out\n\n    auxdata: 0xa2646970667358221220f1bf7629fee065478919b5e9b4a0826505ff679bdd595e8372b39999aa9d5b2464736f6c634300081a0033\n}\n",
				"bytecode": {
					"linkReferences": {},
					"object": "608060405234801561000f575f80fd5b50604051610d3c380380610d3c833981810160405281019061003191906101d7565b805f73ffffffffffffffffffffffffffffffffffffffff168173ffffffffffffffffffffffffffffffffffffffff16036100a2575f6040517f1e4fbdf70000000000000000000000000000000000000000000000000000000081526004016100999190610211565b60405180910390fd5b6100b1816100b860201b60201c565b505061022a565b5f805f9054906101000a900473ffffffffffffffffffffffffffffffffffffffff169050815f806101000a81548173ffffffffffffffffffffffffffffffffffffffff021916908373ffffffffffffffffffffffffffffffffffffffff1602179055508173ffffffffffffffffffffffffffffffffffffffff168173ffffffffffffffffffffffffffffffffffffffff167f8be0079c531659141344cd1fd0a4f28419497f9722a3daafe3b4186f6b6457e060405160405180910390a35050565b5f80fd5b5f73ffffffffffffffffffffffffffffffffffffffff82169050919050565b5f6101a68261017d565b9050919050565b6101b68161019c565b81146101c0575f80fd5b50565b5f815190506101d1816101ad565b92915050565b5f602082840312156101ec576101eb610179565b5b5f6101f9848285016101c3565b91505092915050565b61020b8161019c565b82525050565b5f6020820190506102245f830184610202565b92915050565b610b05806102375f395ff3fe608060405234801561000f575f80fd5b5060043610610055575f3560e01c8063715018a6146100595780638da5cb5b14610063578063b9ed6fca14610081578063dc670f881461009d578063f2fde38b146100b9575b5f80fd5b6100616100d5565b005b61006b6100e8565b60405161007891906104f2565b60405180910390f35b61009b6004803603810190610096919061054f565b61010f565b005b6100b760048036038101906100b291906106b6565b6101f1565b005b6100d360048036038101906100ce919061077c565b610288565b005b6100dd61030c565b6100e65f610393565b565b5f805f9054906101000a900473ffffffffffffffffffffffffffffffffffffffff16905090565b61011761030c565b5f5b6001805490508110156101b057816001828154811061013b5761013a6107a7565b5b905f5260205f2090600402015f0154036101a35760018181548110610163576101626107a7565b5b905f5260205f2090600402015f8082015f9055600182015f610185919061045b565b600282015f610194919061045b565b600382015f90555050506101ee565b8080600101915050610119565b50806040517ff55dec000000000000000000000000000000000000000000000000000000000081526004016101e591906107e3565b60405180910390fd5b50565b6101f961030c565b6001604051806080016040528086815260200185815260200184815260200183815250908060018154018082558091505060019003905f5260205f2090600402015f909190919091505f820151815f0155602082015181600101908161025f9190610a00565b5060408201518160020190816102759190610a00565b5060608201518160030155505050505050565b61029061030c565b5f73ffffffffffffffffffffffffffffffffffffffff168173ffffffffffffffffffffffffffffffffffffffff1603610300575f6040517f1e4fbdf70000000000000000000000000000000000000000000000000000000081526004016102f791906104f2565b60405180910390fd5b61030981610393565b50565b610314610454565b73ffffffffffffffffffffffffffffffffffffffff166103326100e8565b73ffffffffffffffffffffffffffffffffffffffff161461039157610355610454565b6040517f118cdaa700000000000000000000000000000000000000000000000000000000815260040161038891906104f2565b60405180910390fd5b565b5f805f9054906101000a900473ffffffffffffffffffffffffffffffffffffffff169050815f806101000a81548173ffffffffffffffffffffffffffffffffffffffff021916908373ffffffffffffffffffffffffffffffffffffffff1602179055508173ffffffffffffffffffffffffffffffffffffffff168173ffffffffffffffffffffffffffffffffffffffff167f8be0079c531659141344cd1fd0a4f28419497f9722a3daafe3b4186f6b6457e060405160405180910390a35050565b5f33905090565b50805461046790610833565b5f825580601f106104785750610495565b601f0160209004905f5260205f20908101906104949190610498565b5b50565b5b808211156104af575f815f905550600101610499565b5090565b5f73ffffffffffffffffffffffffffffffffffffffff82169050919050565b5f6104dc826104b3565b9050919050565b6104ec816104d2565b82525050565b5f6020820190506105055f8301846104e3565b92915050565b5f604051905090565b5f80fd5b5f80fd5b5f819050919050565b61052e8161051c565b8114610538575f80fd5b50565b5f8135905061054981610525565b92915050565b5f6020828403121561056457610563610514565b5b5f6105718482850161053b565b91505092915050565b5f80fd5b5f80fd5b5f601f19601f8301169050919050565b7f4e487b71000000000000000000000000000000000000000000000000000000005f52604160045260245ffd5b6105c882610582565b810181811067ffffffffffffffff821117156105e7576105e6610592565b5b80604052505050565b5f6105f961050b565b905061060582826105bf565b919050565b5f67ffffffffffffffff82111561062457610623610592565b5b61062d82610582565b9050602081019050919050565b828183375f83830152505050565b5f61065a6106558461060a565b6105f0565b9050828152602081018484840111156106765761067561057e565b5b61068184828561063a565b509392505050565b5f82601f83011261069d5761069c61057a565b5b81356106ad848260208601610648565b91505092915050565b5f805f80608085870312156106ce576106cd610514565b5b5f6106db8782880161053b565b945050602085013567ffffffffffffffff8111156106fc576106fb610518565b5b61070887828801610689565b935050604085013567ffffffffffffffff81111561072957610728610518565b5b61073587828801610689565b92505060606107468782880161053b565b91505092959194509250565b61075b816104d2565b8114610765575f80fd5b50565b5f8135905061077681610752565b92915050565b5f6020828403121561079157610790610514565b5b5f61079e84828501610768565b91505092915050565b7f4e487b71000000000000000000000000000000000000000000000000000000005f52603260045260245ffd5b6107dd8161051c565b82525050565b5f6020820190506107f65f8301846107d4565b92915050565b5f81519050919050565b7f4e487b71000000000000000000000000000000000000000000000000000000005f52602260045260245ffd5b5f600282049050600182168061084a57607f821691505b60208210810361085d5761085c610806565b5b50919050565b5f819050815f5260205f209050919050565b5f6020601f8301049050919050565b5f82821b905092915050565b5f600883026108bf7fffffffffffffffffffffffffffffffffffffffffffffffffffffffffffffffff82610884565b6108c98683610884565b95508019841693508086168417925050509392505050565b5f819050919050565b5f6109046108ff6108fa8461051c565b6108e1565b61051c565b9050919050565b5f819050919050565b61091d836108ea565b6109316109298261090b565b848454610890565b825550505050565b5f90565b610945610939565b610950818484610914565b505050565b5b81811015610973576109685f8261093d565b600181019050610956565b5050565b601f8211156109b85761098981610863565b61099284610875565b810160208510156109a1578190505b6109b56109ad85610875565b830182610955565b50505b505050565b5f82821c905092915050565b5f6109d85f19846008026109bd565b1980831691505092915050565b5f6109f083836109c9565b9150826002028217905092915050565b610a09826107fc565b67ffffffffffffffff811115610a2257610a21610592565b5b610a2c8254610833565b610a37828285610977565b5f60209050601f831160018114610a68575f8415610a56578287015190505b610a6085826109e5565b865550610ac7565b601f198416610a7686610863565b5f5b82811015610a9d57848901518255600182019150602085019450602081019050610a78565b86831015610aba5784890151610ab6601f8916826109c9565b8355505b6001600288020188555050505b50505050505056fea2646970667358221220f1bf7629fee065478919b5e9b4a0826505ff679bdd595e8372b39999aa9d5b2464736f6c634300081a0033",
					"opcodes": "PUSH1 0x80 PUSH1 0x40 MSTORE CALLVALUE DUP1 ISZERO PUSH2 0xF JUMPI PUSH0 DUP1 REVERT JUMPDEST POP PUSH1 0x40 MLOAD PUSH2 0xD3C CODESIZE SUB DUP1 PUSH2 0xD3C DUP4 CODECOPY DUP2 DUP2 ADD PUSH1 0x40 MSTORE DUP2 ADD SWAP1 PUSH2 0x31 SWAP2 SWAP1 PUSH2 0x1D7 JUMP JUMPDEST DUP1 PUSH0 PUSH20 0xFFFFFFFFFFFFFFFFFFFFFFFFFFFFFFFFFFFFFFFF AND DUP2 PUSH20 0xFFFFFFFFFFFFFFFFFFFFFFFFFFFFFFFFFFFFFFFF AND SUB PUSH2 0xA2 JUMPI PUSH0 PUSH1 0x40 MLOAD PUSH32 0x1E4FBDF700000000000000000000000000000000000000000000000000000000 DUP2 MSTORE PUSH1 0x4 ADD PUSH2 0x99 SWAP2 SWAP1 PUSH2 0x211 JUMP JUMPDEST PUSH1 0x40 MLOAD DUP1 SWAP2 SUB SWAP1 REVERT JUMPDEST PUSH2 0xB1 DUP2 PUSH2 0xB8 PUSH1 0x20 SHL PUSH1 0x20 SHR JUMP JUMPDEST POP POP PUSH2 0x22A JUMP JUMPDEST PUSH0 DUP1 PUSH0 SWAP1 SLOAD SWAP1 PUSH2 0x100 EXP SWAP1 DIV PUSH20 0xFFFFFFFFFFFFFFFFFFFFFFFFFFFFFFFFFFFFFFFF AND SWAP1 POP DUP2 PUSH0 DUP1 PUSH2 0x100 EXP DUP2 SLOAD DUP2 PUSH20 0xFFFFFFFFFFFFFFFFFFFFFFFFFFFFFFFFFFFFFFFF MUL NOT AND SWAP1 DUP4 PUSH20 0xFFFFFFFFFFFFFFFFFFFFFFFFFFFFFFFFFFFFFFFF AND MUL OR SWAP1 SSTORE POP DUP2 PUSH20 0xFFFFFFFFFFFFFFFFFFFFFFFFFFFFFFFFFFFFFFFF AND DUP2 PUSH20 0xFFFFFFFFFFFFFFFFFFFFFFFFFFFFFFFFFFFFFFFF AND PUSH32 0x8BE0079C531659141344CD1FD0A4F28419497F9722A3DAAFE3B4186F6B6457E0 PUSH1 0x40 MLOAD PUSH1 0x40 MLOAD DUP1 SWAP2 SUB SWAP1 LOG3 POP POP JUMP JUMPDEST PUSH0 DUP1 REVERT JUMPDEST PUSH0 PUSH20 0xFFFFFFFFFFFFFFFFFFFFFFFFFFFFFFFFFFFFFFFF DUP3 AND SWAP1 POP SWAP2 SWAP1 POP JUMP JUMPDEST PUSH0 PUSH2 0x1A6 DUP3 PUSH2 0x17D JUMP JUMPDEST SWAP1 POP SWAP2 SWAP1 POP JUMP JUMPDEST PUSH2 0x1B6 DUP2 PUSH2 0x19C JUMP JUMPDEST DUP2 EQ PUSH2 0x1C0 JUMPI PUSH0 DUP1 REVERT JUMPDEST POP JUMP JUMPDEST PUSH0 DUP2 MLOAD SWAP1 POP PUSH2 0x1D1 DUP2 PUSH2 0x1AD JUMP JUMPDEST SWAP3 SWAP2 POP POP JUMP JUMPDEST PUSH0 PUSH1 0x20 DUP3 DUP5 SUB SLT ISZERO PUSH2 0x1EC JUMPI PUSH2 0x1EB PUSH2 0x179 JUMP JUMPDEST JUMPDEST PUSH0 PUSH2 0x1F9 DUP5 DUP3 DUP6 ADD PUSH2 0x1C3 JUMP JUMPDEST SWAP2 POP POP SWAP3 SWAP2 POP POP JUMP JUMPDEST PUSH2 0x20B DUP2 PUSH2 0x19C JUMP JUMPDEST DUP3 MSTORE POP POP JUMP JUMPDEST PUSH0 PUSH1 0x20 DUP3 ADD SWAP1 POP PUSH2 0x224 PUSH0 DUP4 ADD DUP5 PUSH2 0x202 JUMP JUMPDEST SWAP3 SWAP2 POP POP JUMP JUMPDEST PUSH2 0xB05 DUP1 PUSH2 0x237 PUSH0 CODECOPY PUSH0 RETURN INVALID PUSH1 0x80 PUSH1 0x40 MSTORE CALLVALUE DUP1 ISZERO PUSH2 0xF JUMPI PUSH0 DUP1 REVERT JUMPDEST POP PUSH1 0x4 CALLDATASIZE LT PUSH2 0x55 JUMPI PUSH0 CALLDATALOAD PUSH1 0xE0 SHR DUP1 PUSH4 0x715018A6 EQ PUSH2 0x59 JUMPI DUP1 PUSH4 0x8DA5CB5B EQ PUSH2 0x63 JUMPI DUP1 PUSH4 0xB9ED6FCA EQ PUSH2 0x81 JUMPI DUP1 PUSH4 0xDC670F88 EQ PUSH2 0x9D JUMPI DUP1 PUSH4 0xF2FDE38B EQ PUSH2 0xB9 JUMPI JUMPDEST PUSH0 DUP1 REVERT JUMPDEST PUSH2 0x61 PUSH2 0xD5 JUMP JUMPDEST STOP JUMPDEST PUSH2 0x6B PUSH2 0xE8 JUMP JUMPDEST PUSH1 0x40 MLOAD PUSH2 0x78 SWAP2 SWAP1 PUSH2 0x4F2 JUMP JUMPDEST PUSH1 0x40 MLOAD DUP1 SWAP2 SUB SWAP1 RETURN JUMPDEST PUSH2 0x9B PUSH1 0x4 DUP1 CALLDATASIZE SUB DUP2 ADD SWAP1 PUSH2 0x96 SWAP2 SWAP1 PUSH2 0x54F JUMP JUMPDEST PUSH2 0x10F JUMP JUMPDEST STOP JUMPDEST PUSH2 0xB7 PUSH1 0x4 DUP1 CALLDATASIZE SUB DUP2 ADD SWAP1 PUSH2 0xB2 SWAP2 SWAP1 PUSH2 0x6B6 JUMP JUMPDEST PUSH2 0x1F1 JUMP JUMPDEST STOP JUMPDEST PUSH2 0xD3 PUSH1 0x4 DUP1 CALLDATASIZE SUB DUP2 ADD SWAP1 PUSH2 0xCE SWAP2 SWAP1 PUSH2 0x77C JUMP JUMPDEST PUSH2 0x288 JUMP JUMPDEST STOP JUMPDEST PUSH2 0xDD PUSH2 0x30C JUMP JUMPDEST PUSH2 0xE6 PUSH0 PUSH2 0x393 JUMP JUMPDEST JUMP JUMPDEST PUSH0 DUP1 PUSH0 SWAP1 SLOAD SWAP1 PUSH2 0x100 EXP SWAP1 DIV PUSH20 0xFFFFFFFFFFFFFFFFFFFFFFFFFFFFFFFFFFFFFFFF AND SWAP1 POP SWAP1 JUMP JUMPDEST PUSH2 0x117 PUSH2 0x30C JUMP JUMPDEST PUSH0 JUMPDEST PUSH1 0x1 DUP1 SLOAD SWAP1 POP DUP2 LT ISZERO PUSH2 0x1B0 JUMPI DUP2 PUSH1 0x1 DUP3 DUP2 SLOAD DUP2 LT PUSH2 0x13B JUMPI PUSH2 0x13A PUSH2 0x7A7 JUMP JUMPDEST JUMPDEST SWAP1 PUSH0 MSTORE PUSH1 0x20 PUSH0 KECCAK256 SWAP1 PUSH1 0x4 MUL ADD PUSH0 ADD SLOAD SUB PUSH2 0x1A3 JUMPI PUSH1 0x1 DUP2 DUP2 SLOAD DUP2 LT PUSH2 0x163 JUMPI PUSH2 0x162 PUSH2 0x7A7 JUMP JUMPDEST JUMPDEST SWAP1 PUSH0 MSTORE PUSH1 0x20 PUSH0 KECCAK256 SWAP1 PUSH1 0x4 MUL ADD PUSH0 DUP1 DUP3 ADD PUSH0 SWAP1 SSTORE PUSH1 0x1 DUP3 ADD PUSH0 PUSH2 0x185 SWAP2 SWAP1 PUSH2 0x45B JUMP JUMPDEST PUSH1 0x2 DUP3 ADD PUSH0 PUSH2 0x194 SWAP2 SWAP1 PUSH2 0x45B JUMP JUMPDEST PUSH1 0x3 DUP3 ADD PUSH0 SWAP1 SSTORE POP POP POP PUSH2 0x1EE JUMP JUMPDEST DUP1 DUP1 PUSH1 0x1 ADD SWAP2 POP POP PUSH2 0x119 JUMP JUMPDEST POP DUP1 PUSH1 0x40 MLOAD PUSH32 0xF55DEC0000000000000000000000000000000000000000000000000000000000 DUP2 MSTORE PUSH1 0x4 ADD PUSH2 0x1E5 SWAP2 SWAP1 PUSH2 0x7E3 JUMP JUMPDEST PUSH1 0x40 MLOAD DUP1 SWAP2 SUB SWAP1 REVERT JUMPDEST POP JUMP JUMPDEST PUSH2 0x1F9 PUSH2 0x30C JUMP JUMPDEST PUSH1 0x1 PUSH1 0x40 MLOAD DUP1 PUSH1 0x80 ADD PUSH1 0x40 MSTORE DUP1 DUP7 DUP2 MSTORE PUSH1 0x20 ADD DUP6 DUP2 MSTORE PUSH1 0x20 ADD DUP5 DUP2 MSTORE PUSH1 0x20 ADD DUP4 DUP2 MSTORE POP SWAP1 DUP1 PUSH1 0x1 DUP2 SLOAD ADD DUP1 DUP3 SSTORE DUP1 SWAP2 POP POP PUSH1 0x1 SWAP1 SUB SWAP1 PUSH0 MSTORE PUSH1 0x20 PUSH0 KECCAK256 SWAP1 PUSH1 0x4 MUL ADD PUSH0 SWAP1 SWAP2 SWAP1 SWAP2 SWAP1 SWAP2 POP PUSH0 DUP3 ADD MLOAD DUP2 PUSH0 ADD SSTORE PUSH1 0x20 DUP3 ADD MLOAD DUP2 PUSH1 0x1 ADD SWAP1 DUP2 PUSH2 0x25F SWAP2 SWAP1 PUSH2 0xA00 JUMP JUMPDEST POP PUSH1 0x40 DUP3 ADD MLOAD DUP2 PUSH1 0x2 ADD SWAP1 DUP2 PUSH2 0x275 SWAP2 SWAP1 PUSH2 0xA00 JUMP JUMPDEST POP PUSH1 0x60 DUP3 ADD MLOAD DUP2 PUSH1 0x3 ADD SSTORE POP POP POP POP POP POP JUMP JUMPDEST PUSH2 0x290 PUSH2 0x30C JUMP JUMPDEST PUSH0 PUSH20 0xFFFFFFFFFFFFFFFFFFFFFFFFFFFFFFFFFFFFFFFF AND DUP2 PUSH20 0xFFFFFFFFFFFFFFFFFFFFFFFFFFFFFFFFFFFFFFFF AND SUB PUSH2 0x300 JUMPI PUSH0 PUSH1 0x40 MLOAD PUSH32 0x1E4FBDF700000000000000000000000000000000000000000000000000000000 DUP2 MSTORE PUSH1 0x4 ADD PUSH2 0x2F7 SWAP2 SWAP1 PUSH2 0x4F2 JUMP JUMPDEST PUSH1 0x40 MLOAD DUP1 SWAP2 SUB SWAP1 REVERT JUMPDEST PUSH2 0x309 DUP2 PUSH2 0x393 JUMP JUMPDEST POP JUMP JUMPDEST PUSH2 0x314 PUSH2 0x454 JUMP JUMPDEST PUSH20 0xFFFFFFFFFFFFFFFFFFFFFFFFFFFFFFFFFFFFFFFF AND PUSH2 0x332 PUSH2 0xE8 JUMP JUMPDEST PUSH20 0xFFFFFFFFFFFFFFFFFFFFFFFFFFFFFFFFFFFFFFFF AND EQ PUSH2 0x391 JUMPI PUSH2 0x355 PUSH2 0x454 JUMP JUMPDEST PUSH1 0x40 MLOAD PUSH32 0x118CDAA700000000000000000000000000000000000000000000000000000000 DUP2 MSTORE PUSH1 0x4 ADD PUSH2 0x388 SWAP2 SWAP1 PUSH2 0x4F2 JUMP JUMPDEST PUSH1 0x40 MLOAD DUP1 SWAP2 SUB SWAP1 REVERT JUMPDEST JUMP JUMPDEST PUSH0 DUP1 PUSH0 SWAP1 SLOAD SWAP1 PUSH2 0x100 EXP SWAP1 DIV PUSH20 0xFFFFFFFFFFFFFFFFFFFFFFFFFFFFFFFFFFFFFFFF AND SWAP1 POP DUP2 PUSH0 DUP1 PUSH2 0x100 EXP DUP2 SLOAD DUP2 PUSH20 0xFFFFFFFFFFFFFFFFFFFFFFFFFFFFFFFFFFFFFFFF MUL NOT AND SWAP1 DUP4 PUSH20 0xFFFFFFFFFFFFFFFFFFFFFFFFFFFFFFFFFFFFFFFF AND MUL OR SWAP1 SSTORE POP DUP2 PUSH20 0xFFFFFFFFFFFFFFFFFFFFFFFFFFFFFFFFFFFFFFFF AND DUP2 PUSH20 0xFFFFFFFFFFFFFFFFFFFFFFFFFFFFFFFFFFFFFFFF AND PUSH32 0x8BE0079C531659141344CD1FD0A4F28419497F9722A3DAAFE3B4186F6B6457E0 PUSH1 0x40 MLOAD PUSH1 0x40 MLOAD DUP1 SWAP2 SUB SWAP1 LOG3 POP POP JUMP JUMPDEST PUSH0 CALLER SWAP1 POP SWAP1 JUMP JUMPDEST POP DUP1 SLOAD PUSH2 0x467 SWAP1 PUSH2 0x833 JUMP JUMPDEST PUSH0 DUP3 SSTORE DUP1 PUSH1 0x1F LT PUSH2 0x478 JUMPI POP PUSH2 0x495 JUMP JUMPDEST PUSH1 0x1F ADD PUSH1 0x20 SWAP1 DIV SWAP1 PUSH0 MSTORE PUSH1 0x20 PUSH0 KECCAK256 SWAP1 DUP2 ADD SWAP1 PUSH2 0x494 SWAP2 SWAP1 PUSH2 0x498 JUMP JUMPDEST JUMPDEST POP JUMP JUMPDEST JUMPDEST DUP1 DUP3 GT ISZERO PUSH2 0x4AF JUMPI PUSH0 DUP2 PUSH0 SWAP1 SSTORE POP PUSH1 0x1 ADD PUSH2 0x499 JUMP JUMPDEST POP SWAP1 JUMP JUMPDEST PUSH0 PUSH20 0xFFFFFFFFFFFFFFFFFFFFFFFFFFFFFFFFFFFFFFFF DUP3 AND SWAP1 POP SWAP2 SWAP1 POP JUMP JUMPDEST PUSH0 PUSH2 0x4DC DUP3 PUSH2 0x4B3 JUMP JUMPDEST SWAP1 POP SWAP2 SWAP1 POP JUMP JUMPDEST PUSH2 0x4EC DUP2 PUSH2 0x4D2 JUMP JUMPDEST DUP3 MSTORE POP POP JUMP JUMPDEST PUSH0 PUSH1 0x20 DUP3 ADD SWAP1 POP PUSH2 0x505 PUSH0 DUP4 ADD DUP5 PUSH2 0x4E3 JUMP JUMPDEST SWAP3 SWAP2 POP POP JUMP JUMPDEST PUSH0 PUSH1 0x40 MLOAD SWAP1 POP SWAP1 JUMP JUMPDEST PUSH0 DUP1 REVERT JUMPDEST PUSH0 DUP1 REVERT JUMPDEST PUSH0 DUP2 SWAP1 POP SWAP2 SWAP1 POP JUMP JUMPDEST PUSH2 0x52E DUP2 PUSH2 0x51C JUMP JUMPDEST DUP2 EQ PUSH2 0x538 JUMPI PUSH0 DUP1 REVERT JUMPDEST POP JUMP JUMPDEST PUSH0 DUP2 CALLDATALOAD SWAP1 POP PUSH2 0x549 DUP2 PUSH2 0x525 JUMP JUMPDEST SWAP3 SWAP2 POP POP JUMP JUMPDEST PUSH0 PUSH1 0x20 DUP3 DUP5 SUB SLT ISZERO PUSH2 0x564 JUMPI PUSH2 0x563 PUSH2 0x514 JUMP JUMPDEST JUMPDEST PUSH0 PUSH2 0x571 DUP5 DUP3 DUP6 ADD PUSH2 0x53B JUMP JUMPDEST SWAP2 POP POP SWAP3 SWAP2 POP POP JUMP JUMPDEST PUSH0 DUP1 REVERT JUMPDEST PUSH0 DUP1 REVERT JUMPDEST PUSH0 PUSH1 0x1F NOT PUSH1 0x1F DUP4 ADD AND SWAP1 POP SWAP2 SWAP1 POP JUMP JUMPDEST PUSH32 0x4E487B7100000000000000000000000000000000000000000000000000000000 PUSH0 MSTORE PUSH1 0x41 PUSH1 0x4 MSTORE PUSH1 0x24 PUSH0 REVERT JUMPDEST PUSH2 0x5C8 DUP3 PUSH2 0x582 JUMP JUMPDEST DUP2 ADD DUP2 DUP2 LT PUSH8 0xFFFFFFFFFFFFFFFF DUP3 GT OR ISZERO PUSH2 0x5E7 JUMPI PUSH2 0x5E6 PUSH2 0x592 JUMP JUMPDEST JUMPDEST DUP1 PUSH1 0x40 MSTORE POP POP POP JUMP JUMPDEST PUSH0 PUSH2 0x5F9 PUSH2 0x50B JUMP JUMPDEST SWAP1 POP PUSH2 0x605 DUP3 DUP3 PUSH2 0x5BF JUMP JUMPDEST SWAP2 SWAP1 POP JUMP JUMPDEST PUSH0 PUSH8 0xFFFFFFFFFFFFFFFF DUP3 GT ISZERO PUSH2 0x624 JUMPI PUSH2 0x623 PUSH2 0x592 JUMP JUMPDEST JUMPDEST PUSH2 0x62D DUP3 PUSH2 0x582 JUMP JUMPDEST SWAP1 POP PUSH1 0x20 DUP2 ADD SWAP1 POP SWAP2 SWAP1 POP JUMP JUMPDEST DUP3 DUP2 DUP4 CALLDATACOPY PUSH0 DUP4 DUP4 ADD MSTORE POP POP POP JUMP JUMPDEST PUSH0 PUSH2 0x65A PUSH2 0x655 DUP5 PUSH2 0x60A JUMP JUMPDEST PUSH2 0x5F0 JUMP JUMPDEST SWAP1 POP DUP3 DUP2 MSTORE PUSH1 0x20 DUP2 ADD DUP5 DUP5 DUP5 ADD GT ISZERO PUSH2 0x676 JUMPI PUSH2 0x675 PUSH2 0x57E JUMP JUMPDEST JUMPDEST PUSH2 0x681 DUP5 DUP3 DUP6 PUSH2 0x63A JUMP JUMPDEST POP SWAP4 SWAP3 POP POP POP JUMP JUMPDEST PUSH0 DUP3 PUSH1 0x1F DUP4 ADD SLT PUSH2 0x69D JUMPI PUSH2 0x69C PUSH2 0x57A JUMP JUMPDEST JUMPDEST DUP2 CALLDATALOAD PUSH2 0x6AD DUP5 DUP3 PUSH1 0x20 DUP7 ADD PUSH2 0x648 JUMP JUMPDEST SWAP2 POP POP SWAP3 SWAP2 POP POP JUMP JUMPDEST PUSH0 DUP1 PUSH0 DUP1 PUSH1 0x80 DUP6 DUP8 SUB SLT ISZERO PUSH2 0x6CE JUMPI PUSH2 0x6CD PUSH2 0x514 JUMP JUMPDEST JUMPDEST PUSH0 PUSH2 0x6DB DUP8 DUP3 DUP9 ADD PUSH2 0x53B JUMP JUMPDEST SWAP5 POP POP PUSH1 0x20 DUP6 ADD CALLDATALOAD PUSH8 0xFFFFFFFFFFFFFFFF DUP2 GT ISZERO PUSH2 0x6FC JUMPI PUSH2 0x6FB PUSH2 0x518 JUMP JUMPDEST JUMPDEST PUSH2 0x708 DUP8 DUP3 DUP9 ADD PUSH2 0x689 JUMP JUMPDEST SWAP4 POP POP PUSH1 0x40 DUP6 ADD CALLDATALOAD PUSH8 0xFFFFFFFFFFFFFFFF DUP2 GT ISZERO PUSH2 0x729 JUMPI PUSH2 0x728 PUSH2 0x518 JUMP JUMPDEST JUMPDEST PUSH2 0x735 DUP8 DUP3 DUP9 ADD PUSH2 0x689 JUMP JUMPDEST SWAP3 POP POP PUSH1 0x60 PUSH2 0x746 DUP8 DUP3 DUP9 ADD PUSH2 0x53B JUMP JUMPDEST SWAP2 POP POP SWAP3 SWAP6 SWAP2 SWAP5 POP SWAP3 POP JUMP JUMPDEST PUSH2 0x75B DUP2 PUSH2 0x4D2 JUMP JUMPDEST DUP2 EQ PUSH2 0x765 JUMPI PUSH0 DUP1 REVERT JUMPDEST POP JUMP JUMPDEST PUSH0 DUP2 CALLDATALOAD SWAP1 POP PUSH2 0x776 DUP2 PUSH2 0x752 JUMP JUMPDEST SWAP3 SWAP2 POP POP JUMP JUMPDEST PUSH0 PUSH1 0x20 DUP3 DUP5 SUB SLT ISZERO PUSH2 0x791 JUMPI PUSH2 0x790 PUSH2 0x514 JUMP JUMPDEST JUMPDEST PUSH0 PUSH2 0x79E DUP5 DUP3 DUP6 ADD PUSH2 0x768 JUMP JUMPDEST SWAP2 POP POP SWAP3 SWAP2 POP POP JUMP JUMPDEST PUSH32 0x4E487B7100000000000000000000000000000000000000000000000000000000 PUSH0 MSTORE PUSH1 0x32 PUSH1 0x4 MSTORE PUSH1 0x24 PUSH0 REVERT JUMPDEST PUSH2 0x7DD DUP2 PUSH2 0x51C JUMP JUMPDEST DUP3 MSTORE POP POP JUMP JUMPDEST PUSH0 PUSH1 0x20 DUP3 ADD SWAP1 POP PUSH2 0x7F6 PUSH0 DUP4 ADD DUP5 PUSH2 0x7D4 JUMP JUMPDEST SWAP3 SWAP2 POP POP JUMP JUMPDEST PUSH0 DUP2 MLOAD SWAP1 POP SWAP2 SWAP1 POP JUMP JUMPDEST PUSH32 0x4E487B7100000000000000000000000000000000000000000000000000000000 PUSH0 MSTORE PUSH1 0x22 PUSH1 0x4 MSTORE PUSH1 0x24 PUSH0 REVERT JUMPDEST PUSH0 PUSH1 0x2 DUP3 DIV SWAP1 POP PUSH1 0x1 DUP3 AND DUP1 PUSH2 0x84A JUMPI PUSH1 0x7F DUP3 AND SWAP2 POP JUMPDEST PUSH1 0x20 DUP3 LT DUP2 SUB PUSH2 0x85D JUMPI PUSH2 0x85C PUSH2 0x806 JUMP JUMPDEST JUMPDEST POP SWAP2 SWAP1 POP JUMP JUMPDEST PUSH0 DUP2 SWAP1 POP DUP2 PUSH0 MSTORE PUSH1 0x20 PUSH0 KECCAK256 SWAP1 POP SWAP2 SWAP1 POP JUMP JUMPDEST PUSH0 PUSH1 0x20 PUSH1 0x1F DUP4 ADD DIV SWAP1 POP SWAP2 SWAP1 POP JUMP JUMPDEST PUSH0 DUP3 DUP3 SHL SWAP1 POP SWAP3 SWAP2 POP POP JUMP JUMPDEST PUSH0 PUSH1 0x8 DUP4 MUL PUSH2 0x8BF PUSH32 0xFFFFFFFFFFFFFFFFFFFFFFFFFFFFFFFFFFFFFFFFFFFFFFFFFFFFFFFFFFFFFFFF DUP3 PUSH2 0x884 JUMP JUMPDEST PUSH2 0x8C9 DUP7 DUP4 PUSH2 0x884 JUMP JUMPDEST SWAP6 POP DUP1 NOT DUP5 AND SWAP4 POP DUP1 DUP7 AND DUP5 OR SWAP3 POP POP POP SWAP4 SWAP3 POP POP POP JUMP JUMPDEST PUSH0 DUP2 SWAP1 POP SWAP2 SWAP1 POP JUMP JUMPDEST PUSH0 PUSH2 0x904 PUSH2 0x8FF PUSH2 0x8FA DUP5 PUSH2 0x51C JUMP JUMPDEST PUSH2 0x8E1 JUMP JUMPDEST PUSH2 0x51C JUMP JUMPDEST SWAP1 POP SWAP2 SWAP1 POP JUMP JUMPDEST PUSH0 DUP2 SWAP1 POP SWAP2 SWAP1 POP JUMP JUMPDEST PUSH2 0x91D DUP4 PUSH2 0x8EA JUMP JUMPDEST PUSH2 0x931 PUSH2 0x929 DUP3 PUSH2 0x90B JUMP JUMPDEST DUP5 DUP5 SLOAD PUSH2 0x890 JUMP JUMPDEST DUP3 SSTORE POP POP POP POP JUMP JUMPDEST PUSH0 SWAP1 JUMP JUMPDEST PUSH2 0x945 PUSH2 0x939 JUMP JUMPDEST PUSH2 0x950 DUP2 DUP5 DUP5 PUSH2 0x914 JUMP JUMPDEST POP POP POP JUMP JUMPDEST JUMPDEST DUP2 DUP2 LT ISZERO PUSH2 0x973 JUMPI PUSH2 0x968 PUSH0 DUP3 PUSH2 0x93D JUMP JUMPDEST PUSH1 0x1 DUP2 ADD SWAP1 POP PUSH2 0x956 JUMP JUMPDEST POP POP JUMP JUMPDEST PUSH1 0x1F DUP3 GT ISZERO PUSH2 0x9B8 JUMPI PUSH2 0x989 DUP2 PUSH2 0x863 JUMP JUMPDEST PUSH2 0x992 DUP5 PUSH2 0x875 JUMP JUMPDEST DUP2 ADD PUSH1 0x20 DUP6 LT ISZERO PUSH2 0x9A1 JUMPI DUP2 SWAP1 POP JUMPDEST PUSH2 0x9B5 PUSH2 0x9AD DUP6 PUSH2 0x875 JUMP JUMPDEST DUP4 ADD DUP3 PUSH2 0x955 JUMP JUMPDEST POP POP JUMPDEST POP POP POP JUMP JUMPDEST PUSH0 DUP3 DUP3 SHR SWAP1 POP SWAP3 SWAP2 POP POP JUMP JUMPDEST PUSH0 PUSH2 0x9D8 PUSH0 NOT DUP5 PUSH1 0x8 MUL PUSH2 0x9BD JUMP JUMPDEST NOT DUP1 DUP4 AND SWAP2 POP POP SWAP3 SWAP2 POP POP JUMP JUMPDEST PUSH0 PUSH2 0x9F0 DUP4 DUP4 PUSH2 0x9C9 JUMP JUMPDEST SWAP2 POP DUP3 PUSH1 0x2 MUL DUP3 OR SWAP1 POP SWAP3 SWAP2 POP POP JUMP JUMPDEST PUSH2 0xA09 DUP3 PUSH2 0x7FC JUMP JUMPDEST PUSH8 0xFFFFFFFFFFFFFFFF DUP2 GT ISZERO PUSH2 0xA22 JUMPI PUSH2 0xA21 PUSH2 0x592 JUMP JUMPDEST JUMPDEST PUSH2 0xA2C DUP3 SLOAD PUSH2 0x833 JUMP JUMPDEST PUSH2 0xA37 DUP3 DUP3 DUP6 PUSH2 0x977 JUMP JUMPDEST PUSH0 PUSH1 0x20 SWAP1 POP PUSH1 0x1F DUP4 GT PUSH1 0x1 DUP2 EQ PUSH2 0xA68 JUMPI PUSH0 DUP5 ISZERO PUSH2 0xA56 JUMPI DUP3 DUP8 ADD MLOAD SWAP1 POP JUMPDEST PUSH2 0xA60 DUP6 DUP3 PUSH2 0x9E5 JUMP JUMPDEST DUP7 SSTORE POP PUSH2 0xAC7 JUMP JUMPDEST PUSH1 0x1F NOT DUP5 AND PUSH2 0xA76 DUP7 PUSH2 0x863 JUMP JUMPDEST PUSH0 JUMPDEST DUP3 DUP2 LT ISZERO PUSH2 0xA9D JUMPI DUP5 DUP10 ADD MLOAD DUP3 SSTORE PUSH1 0x1 DUP3 ADD SWAP2 POP PUSH1 0x20 DUP6 ADD SWAP5 POP PUSH1 0x20 DUP2 ADD SWAP1 POP PUSH2 0xA78 JUMP JUMPDEST DUP7 DUP4 LT ISZERO PUSH2 0xABA JUMPI DUP5 DUP10 ADD MLOAD PUSH2 0xAB6 PUSH1 0x1F DUP10 AND DUP3 PUSH2 0x9C9 JUMP JUMPDEST DUP4 SSTORE POP JUMPDEST PUSH1 0x1 PUSH1 0x2 DUP9 MUL ADD DUP9 SSTORE POP POP POP JUMPDEST POP POP POP POP POP POP JUMP INVALID LOG2 PUSH5 0x6970667358 0x22 SLT KECCAK256 CALL 0xBF PUSH23 0x29FEE065478919B5E9B4A0826505FF679BDD595E8372B3 SWAP10 SWAP10 0xAA SWAP14 JUMPDEST 0x24 PUSH5 0x736F6C6343 STOP ADDMOD BYTE STOP CALLER "
				},
				"gasEstimates": {
					"creation": {
						"codeDepositCost": "564200",
						"executionCost": "infinite",
						"totalCost": "infinite"
					},
					"external": {
						"addContact(uint256,string,string,uint256)": "infinite",
						"deleteContact(uint256)": "infinite",
						"owner()": "2515",
						"renounceOwnership()": "infinite",
						"transferOwnership(address)": "infinite"
					},
					"internal": {
						"getAllContacts()": "infinite",
						"getContact(uint256)": "infinite"
					}
				},
				"methodIdentifiers": {
					"addContact(uint256,string,string,uint256)": "dc670f88",
					"deleteContact(uint256)": "b9ed6fca",
					"owner()": "8da5cb5b",
					"renounceOwnership()": "715018a6",
					"transferOwnership(address)": "f2fde38b"
				}
			},
			"storageLayout": {
				"storage": [
					{
						"astId": 174,
						"contract": "contracts/foldOwner/addressBook.sol:AddressBook",
						"label": "_owner",
						"offset": 0,
						"slot": "0",
						"type": "t_address"
					},
					{
						"astId": 30,
						"contract": "contracts/foldOwner/addressBook.sol:AddressBook",
						"label": "contacts",
						"offset": 0,
						"slot": "1",
						"type": "t_array(t_struct(Contact)13_storage)dyn_storage"
					}
				],
				"types": {
					"t_address": {
						"encoding": "inplace",
						"label": "address",
						"numberOfBytes": "20"
					},
					"t_array(t_struct(Contact)13_storage)dyn_storage": {
						"base": "t_struct(Contact)13_storage",
						"encoding": "dynamic_array",
						"label": "struct AddressBook.Contact[]",
						"numberOfBytes": "32"
					},
					"t_string_storage": {
						"encoding": "bytes",
						"label": "string",
						"numberOfBytes": "32"
					},
					"t_struct(Contact)13_storage": {
						"encoding": "inplace",
						"label": "struct AddressBook.Contact",
						"members": [
							{
								"astId": 6,
								"contract": "contracts/foldOwner/addressBook.sol:AddressBook",
								"label": "id",
								"offset": 0,
								"slot": "0",
								"type": "t_uint256"
							},
							{
								"astId": 8,
								"contract": "contracts/foldOwner/addressBook.sol:AddressBook",
								"label": "firstName",
								"offset": 0,
								"slot": "1",
								"type": "t_string_storage"
							},
							{
								"astId": 10,
								"contract": "contracts/foldOwner/addressBook.sol:AddressBook",
								"label": "lastName",
								"offset": 0,
								"slot": "2",
								"type": "t_string_storage"
							},
							{
								"astId": 12,
								"contract": "contracts/foldOwner/addressBook.sol:AddressBook",
								"label": "phoneNumbers",
								"offset": 0,
								"slot": "3",
								"type": "t_uint256"
							}
						],
						"numberOfBytes": "128"
					},
					"t_uint256": {
						"encoding": "inplace",
						"label": "uint256",
						"numberOfBytes": "32"
					}
				}
			},
			"userdoc": {
				"kind": "user",
				"methods": {},
				"version": 1
			}
		}
	}
}