{
	"data": {
		"bytecode": {
			"linkReferences": {},
			"object": "60a060405273cca2e78b0c4fc5a784eca73d4a24ac47f8a8695673ffffffffffffffffffffffffffffffffffffffff1660809073ffffffffffffffffffffffffffffffffffffffff168152503480156055575f80fd5b5060805161028a61006d5f395f6052015261028a5ff3fe608060405234801561000f575f80fd5b5060043610610029575f3560e01c8063c313889c1461002d575b5f80fd5b61003561004b565b60405161004291906101fc565b60405180910390f35b5f806100767f00000000000000000000000000000000000000000000000000000000000000006100b6565b90507f456f613c0980b2ac67372535d8b1cd435b82dc1d50d713328c70ca9a28ccb1af816040516100a791906101fc565b60405180910390a18091505090565b5f6100c1825f6100c8565b9050919050565b5f814710156101105747826040517fcf47918100000000000000000000000000000000000000000000000000000000815260040161010792919061022d565b60405180910390fd5b763d602d80600a3d3981f3363d3d373d3d3d363d730000008360601b60e81c175f526e5af43d82803e903d91602b57fd5bf38360781b176020526037600983f090505f73ffffffffffffffffffffffffffffffffffffffff168173ffffffffffffffffffffffffffffffffffffffff16036101b7576040517fb06ebf3d00000000000000000000000000000000000000000000000000000000815260040160405180910390fd5b92915050565b5f73ffffffffffffffffffffffffffffffffffffffff82169050919050565b5f6101e6826101bd565b9050919050565b6101f6816101dc565b82525050565b5f60208201905061020f5f8301846101ed565b92915050565b5f819050919050565b61022781610215565b82525050565b5f6040820190506102405f83018561021e565b61024d602083018461021e565b939250505056fea2646970667358221220b8fe72807eeff9cadf717ac860fc836ba917c04f4d95623a3ad31cf62783d27764736f6c634300081a0033",
			"opcodes": "PUSH1 0xA0 PUSH1 0x40 MSTORE PUSH20 0xCCA2E78B0C4FC5A784ECA73D4A24AC47F8A86956 PUSH20 0xFFFFFFFFFFFFFFFFFFFFFFFFFFFFFFFFFFFFFFFF AND PUSH1 0x80 SWAP1 PUSH20 0xFFFFFFFFFFFFFFFFFFFFFFFFFFFFFFFFFFFFFFFF AND DUP2 MSTORE POP CALLVALUE DUP1 ISZERO PUSH1 0x55 JUMPI PUSH0 DUP1 REVERT JUMPDEST POP PUSH1 0x80 MLOAD PUSH2 0x28A PUSH2 0x6D PUSH0 CODECOPY PUSH0 PUSH1 0x52 ADD MSTORE PUSH2 0x28A PUSH0 RETURN INVALID PUSH1 0x80 PUSH1 0x40 MSTORE CALLVALUE DUP1 ISZERO PUSH2 0xF JUMPI PUSH0 DUP1 REVERT JUMPDEST POP PUSH1 0x4 CALLDATASIZE LT PUSH2 0x29 JUMPI PUSH0 CALLDATALOAD PUSH1 0xE0 SHR DUP1 PUSH4 0xC313889C EQ PUSH2 0x2D JUMPI JUMPDEST PUSH0 DUP1 REVERT JUMPDEST PUSH2 0x35 PUSH2 0x4B JUMP JUMPDEST PUSH1 0x40 MLOAD PUSH2 0x42 SWAP2 SWAP1 PUSH2 0x1FC JUMP JUMPDEST PUSH1 0x40 MLOAD DUP1 SWAP2 SUB SWAP1 RETURN JUMPDEST PUSH0 DUP1 PUSH2 0x76 PUSH32 0x0 PUSH2 0xB6 JUMP JUMPDEST SWAP1 POP PUSH32 0x456F613C0980B2AC67372535D8B1CD435B82DC1D50D713328C70CA9A28CCB1AF DUP2 PUSH1 0x40 MLOAD PUSH2 0xA7 SWAP2 SWAP1 PUSH2 0x1FC JUMP JUMPDEST PUSH1 0x40 MLOAD DUP1 SWAP2 SUB SWAP1 LOG1 DUP1 SWAP2 POP POP SWAP1 JUMP JUMPDEST PUSH0 PUSH2 0xC1 DUP3 PUSH0 PUSH2 0xC8 JUMP JUMPDEST SWAP1 POP SWAP2 SWAP1 POP JUMP JUMPDEST PUSH0 DUP2 SELFBALANCE LT ISZERO PUSH2 0x110 JUMPI SELFBALANCE DUP3 PUSH1 0x40 MLOAD PUSH32 0xCF47918100000000000000000000000000000000000000000000000000000000 DUP2 MSTORE PUSH1 0x4 ADD PUSH2 0x107 SWAP3 SWAP2 SWAP1 PUSH2 0x22D JUMP JUMPDEST PUSH1 0x40 MLOAD DUP1 SWAP2 SUB SWAP1 REVERT JUMPDEST PUSH23 0x3D602D80600A3D3981F3363D3D373D3D3D363D73000000 DUP4 PUSH1 0x60 SHL PUSH1 0xE8 SHR OR PUSH0 MSTORE PUSH15 0x5AF43D82803E903D91602B57FD5BF3 DUP4 PUSH1 0x78 SHL OR PUSH1 0x20 MSTORE PUSH1 0x37 PUSH1 0x9 DUP4 CREATE SWAP1 POP PUSH0 PUSH20 0xFFFFFFFFFFFFFFFFFFFFFFFFFFFFFFFFFFFFFFFF AND DUP2 PUSH20 0xFFFFFFFFFFFFFFFFFFFFFFFFFFFFFFFFFFFFFFFF AND SUB PUSH2 0x1B7 JUMPI PUSH1 0x40 MLOAD PUSH32 0xB06EBF3D00000000000000000000000000000000000000000000000000000000 DUP2 MSTORE PUSH1 0x4 ADD PUSH1 0x40 MLOAD DUP1 SWAP2 SUB SWAP1 REVERT JUMPDEST SWAP3 SWAP2 POP POP JUMP JUMPDEST PUSH0 PUSH20 0xFFFFFFFFFFFFFFFFFFFFFFFFFFFFFFFFFFFFFFFF DUP3 AND SWAP1 POP SWAP2 SWAP1 POP JUMP JUMPDEST PUSH0 PUSH2 0x1E6 DUP3 PUSH2 0x1BD JUMP JUMPDEST SWAP1 POP SWAP2 SWAP1 POP JUMP JUMPDEST PUSH2 0x1F6 DUP2 PUSH2 0x1DC JUMP JUMPDEST DUP3 MSTORE POP POP JUMP JUMPDEST PUSH0 PUSH1 0x20 DUP3 ADD SWAP1 POP PUSH2 0x20F PUSH0 DUP4 ADD DUP5 PUSH2 0x1ED JUMP JUMPDEST SWAP3 SWAP2 POP POP JUMP JUMPDEST PUSH0 DUP2 SWAP1 POP SWAP2 SWAP1 POP JUMP JUMPDEST PUSH2 0x227 DUP2 PUSH2 0x215 JUMP JUMPDEST DUP3 MSTORE POP POP JUMP JUMPDEST PUSH0 PUSH1 0x40 DUP3 ADD SWAP1 POP PUSH2 0x240 PUSH0 DUP4 ADD DUP6 PUSH2 0x21E JUMP JUMPDEST PUSH2 0x24D PUSH1 0x20 DUP4 ADD DUP5 PUSH2 0x21E JUMP JUMPDEST SWAP4 SWAP3 POP POP POP JUMP INVALID LOG2 PUSH5 0x6970667358 0x22 SLT KECCAK256 0xB8 INVALID PUSH19 0x807EEFF9CADF717AC860FC836BA917C04F4D95 PUSH3 0x3A3AD3 SHR 0xF6 0x27 DUP4 0xD2 PUSH24 0x64736F6C634300081A003300000000000000000000000000 "
		},
		"gasEstimates": {
			"creation": {
				"codeDepositCost": "130000",
				"executionCost": "infinite",
				"totalCost": "infinite"
			},
			"external": {
				"createTriviaContract()": "infinite"
			}
		},
		"methodIdentifiers": {
			"createTriviaContract()": "c313889c"
		}
	},
	"abi": [
		{
			"inputs": [],
			"name": "FailedDeployment",
			"type": "error"
		},
		{
			"inputs": [
				{
					"internalType": "uint256",
					"name": "balance",
					"type": "uint256"
				},
				{
					"internalType": "uint256",
					"name": "needed",
					"type": "uint256"
				}
			],
			"name": "InsufficientBalance",
			"type": "error"
		},
		{
			"anonymous": false,
			"inputs": [
				{
					"indexed": false,
					"internalType": "address",
					"name": "_TriviaBase",
					"type": "address"
				}
			],
			"name": "EmitNewTriviaContract",
			"type": "event"
		},
		{
			"inputs": [],
			"name": "createTriviaContract",
			"outputs": [
				{
					"internalType": "address",
					"name": "",
					"type": "address"
				}
			],
			"stateMutability": "nonpayable",
			"type": "function"
		}
	]
}