{
	"contracts/flibber/test.sol": {
		"EthBridge": {
			"abi": [
				{
					"inputs": [],
					"stateMutability": "nonpayable",
					"type": "constructor"
				},
				{
					"inputs": [],
					"name": "ECDSAInvalidSignature",
					"type": "error"
				},
				{
					"inputs": [
						{
							"internalType": "uint256",
							"name": "length",
							"type": "uint256"
						}
					],
					"name": "ECDSAInvalidSignatureLength",
					"type": "error"
				},
				{
					"inputs": [
						{
							"internalType": "bytes32",
							"name": "s",
							"type": "bytes32"
						}
					],
					"name": "ECDSAInvalidSignatureS",
					"type": "error"
				},
				{
					"inputs": [],
					"name": "ReentrancyGuardReentrantCall",
					"type": "error"
				},
				{
					"anonymous": false,
					"inputs": [
						{
							"indexed": true,
							"internalType": "address",
							"name": "user",
							"type": "address"
						},
						{
							"indexed": true,
							"internalType": "address",
							"name": "relayer",
							"type": "address"
						},
						{
							"indexed": false,
							"internalType": "uint256",
							"name": "usdcAmount",
							"type": "uint256"
						},
						{
							"indexed": false,
							"internalType": "uint256",
							"name": "fee",
							"type": "uint256"
						},
						{
							"indexed": false,
							"internalType": "uint256",
							"name": "nonce",
							"type": "uint256"
						}
					],
					"name": "MetaTransactionExecuted",
					"type": "event"
				},
				{
					"anonymous": false,
					"inputs": [
						{
							"indexed": true,
							"internalType": "address",
							"name": "user",
							"type": "address"
						},
						{
							"indexed": false,
							"internalType": "uint256",
							"name": "amount",
							"type": "uint256"
						},
						{
							"indexed": false,
							"internalType": "uint256",
							"name": "timestamp",
							"type": "uint256"
						}
					],
					"name": "TokensLocked",
					"type": "event"
				},
				{
					"inputs": [],
					"name": "admin",
					"outputs": [
						{
							"internalType": "address",
							"name": "",
							"type": "address"
						}
					],
					"stateMutability": "view",
					"type": "function"
				},
				{
					"inputs": [
						{
							"internalType": "uint256",
							"name": "usdcAmount",
							"type": "uint256"
						}
					],
					"name": "bridgeTokens",
					"outputs": [],
					"stateMutability": "nonpayable",
					"type": "function"
				},
				{
					"inputs": [
						{
							"internalType": "address",
							"name": "user",
							"type": "address"
						},
						{
							"internalType": "uint256",
							"name": "usdcAmount",
							"type": "uint256"
						},
						{
							"internalType": "uint256",
							"name": "fee",
							"type": "uint256"
						},
						{
							"internalType": "uint256",
							"name": "nonce",
							"type": "uint256"
						},
						{
							"internalType": "bytes",
							"name": "signature",
							"type": "bytes"
						}
					],
					"name": "bridgeTokensMeta",
					"outputs": [],
					"stateMutability": "nonpayable",
					"type": "function"
				},
				{
					"inputs": [
						{
							"internalType": "address",
							"name": "",
							"type": "address"
						}
					],
					"name": "deposits",
					"outputs": [
						{
							"internalType": "uint256",
							"name": "",
							"type": "uint256"
						}
					],
					"stateMutability": "view",
					"type": "function"
				},
				{
					"inputs": [],
					"name": "fib",
					"outputs": [
						{
							"internalType": "contract IERC20",
							"name": "",
							"type": "address"
						}
					],
					"stateMutability": "view",
					"type": "function"
				},
				{
					"inputs": [],
					"name": "fibFee",
					"outputs": [
						{
							"internalType": "uint256",
							"name": "",
							"type": "uint256"
						}
					],
					"stateMutability": "view",
					"type": "function"
				},
				{
					"inputs": [
						{
							"internalType": "address",
							"name": "",
							"type": "address"
						}
					],
					"name": "nonces",
					"outputs": [
						{
							"internalType": "uint256",
							"name": "",
							"type": "uint256"
						}
					],
					"stateMutability": "view",
					"type": "function"
				},
				{
					"inputs": [
						{
							"internalType": "uint256",
							"name": "newFee",
							"type": "uint256"
						}
					],
					"name": "updateFibFee",
					"outputs": [],
					"stateMutability": "nonpayable",
					"type": "function"
				},
				{
					"inputs": [],
					"name": "usdc",
					"outputs": [
						{
							"internalType": "contract IERC20",
							"name": "",
							"type": "address"
						}
					],
					"stateMutability": "view",
					"type": "function"
				}
			],
			"devdoc": {
				"errors": {
					"ECDSAInvalidSignature()": [
						{
							"details": "The signature derives the `address(0)`."
						}
					],
					"ECDSAInvalidSignatureLength(uint256)": [
						{
							"details": "The signature has an invalid length."
						}
					],
					"ECDSAInvalidSignatureS(bytes32)": [
						{
							"details": "The signature has an S value that is in the upper half order."
						}
					],
					"ReentrancyGuardReentrantCall()": [
						{
							"details": "Unauthorized reentrant call."
						}
					]
				},
				"kind": "dev",
				"methods": {},
				"version": 1
			},
			"evm": {
				"assembly": "    /* \"contracts/flibber/test.sol\":1298:5294  contract EthBridge is ReentrancyGuard {... */\n  mstore(0x40, 0x80)\n    /* \"contracts/flibber/test.sol\":1492:1534  0x1241676d45b1Cb5B573b6258C4A838e149A1D191 */\n  0x1241676d45b1cb5b573b6258c4a838e149a1d191\n    /* \"contracts/flibber/test.sol\":1464:1535  IERC20 public usdc = IERC20(0x1241676d45b1Cb5B573b6258C4A838e149A1D191) */\n  0x02\n  exp(0x0100, 0x00)\n  dup2\n  sload\n  dup2\n  0xffffffffffffffffffffffffffffffffffffffff\n  mul\n  not\n  and\n  swap1\n  dup4\n  0xffffffffffffffffffffffffffffffffffffffff\n  and\n  mul\n  or\n  swap1\n  sstore\n  pop\n    /* \"contracts/flibber/test.sol\":1590:1632  0x132Ca3eff205D1f01A71e3D2E41B00056AF5c64E */\n  0x132ca3eff205d1f01a71e3d2e41b00056af5c64e\n    /* \"contracts/flibber/test.sol\":1562:1633  IERC20 public fib  = IERC20(0x132Ca3eff205D1f01A71e3D2E41B00056AF5c64E) */\n  0x03\n  exp(0x0100, 0x00)\n  dup2\n  sload\n  dup2\n  0xffffffffffffffffffffffffffffffffffffffff\n  mul\n  not\n  and\n  swap1\n  dup4\n  0xffffffffffffffffffffffffffffffffffffffff\n  and\n  mul\n  or\n  swap1\n  sstore\n  pop\n    /* \"contracts/flibber/test.sol\":1781:1792  10 * 10**18 */\n  0x8ac7230489e80000\n    /* \"contracts/flibber/test.sol\":1757:1792  uint256 public fibFee = 10 * 10**18 */\n  0x04\n  sstore\n    /* \"contracts/flibber/test.sol\":2351:2400  constructor() {... */\n  callvalue\n  dup1\n  iszero\n  tag_1\n  jumpi\n  0x00\n  dup1\n  revert\ntag_1:\n  pop\n    /* \"contracts/flibber/test.sol\":226:227  1 */\n  0x01\n    /* \"contracts/flibber/test.sol\":415:422  _status */\n  0x00\n    /* \"contracts/flibber/test.sol\":415:436  _status = NOT_ENTERED */\n  dup2\n  swap1\n  sstore\n  pop\n    /* \"contracts/flibber/test.sol\":2383:2393  msg.sender */\n  caller\n    /* \"contracts/flibber/test.sol\":2375:2380  admin */\n  0x01\n  0x00\n    /* \"contracts/flibber/test.sol\":2375:2393  admin = msg.sender */\n  0x0100\n  exp\n  dup2\n  sload\n  dup2\n  0xffffffffffffffffffffffffffffffffffffffff\n  mul\n  not\n  and\n  swap1\n  dup4\n  0xffffffffffffffffffffffffffffffffffffffff\n  and\n  mul\n  or\n  swap1\n  sstore\n  pop\n    /* \"contracts/flibber/test.sol\":1298:5294  contract EthBridge is ReentrancyGuard {... */\n  dataSize(sub_0)\n  dup1\n  dataOffset(sub_0)\n  0x00\n  codecopy\n  0x00\n  return\nstop\n\nsub_0: assembly {\n        /* \"contracts/flibber/test.sol\":1298:5294  contract EthBridge is ReentrancyGuard {... */\n      mstore(0x40, 0x80)\n      callvalue\n      dup1\n      iszero\n      tag_1\n      jumpi\n      0x00\n      dup1\n      revert\n    tag_1:\n      pop\n      jumpi(tag_2, lt(calldatasize, 0x04))\n      shr(0xe0, calldataload(0x00))\n      dup1\n      0x70e5a898\n      gt\n      tag_12\n      jumpi\n      dup1\n      0x70e5a898\n      eq\n      tag_7\n      jumpi\n      dup1\n      0x7ecebe00\n      eq\n      tag_8\n      jumpi\n      dup1\n      0x9246aa9a\n      eq\n      tag_9\n      jumpi\n      dup1\n      0xf851a440\n      eq\n      tag_10\n      jumpi\n      dup1\n      0xfc7e286d\n      eq\n      tag_11\n      jumpi\n      jump(tag_2)\n    tag_12:\n      dup1\n      0x3e413bee\n      eq\n      tag_3\n      jumpi\n      dup1\n      0x50b42065\n      eq\n      tag_4\n      jumpi\n      dup1\n      0x5448e8c4\n      eq\n      tag_5\n      jumpi\n      dup1\n      0x69ce1e3e\n      eq\n      tag_6\n      jumpi\n    tag_2:\n      0x00\n      dup1\n      revert\n        /* \"contracts/flibber/test.sol\":1464:1535  IERC20 public usdc = IERC20(0x1241676d45b1Cb5B573b6258C4A838e149A1D191) */\n    tag_3:\n      tag_13\n      tag_14\n      jump\t// in\n    tag_13:\n      mload(0x40)\n      tag_15\n      swap2\n      swap1\n      tag_16\n      jump\t// in\n    tag_15:\n      mload(0x40)\n      dup1\n      swap2\n      sub\n      swap1\n      return\n        /* \"contracts/flibber/test.sol\":4817:4963  function updateFibFee(uint256 newFee) external {... */\n    tag_4:\n      tag_17\n      0x04\n      dup1\n      calldatasize\n      sub\n      dup2\n      add\n      swap1\n      tag_18\n      swap2\n      swap1\n      tag_19\n      jump\t// in\n    tag_18:\n      tag_20\n      jump\t// in\n    tag_17:\n      stop\n        /* \"contracts/flibber/test.sol\":1757:1792  uint256 public fibFee = 10 * 10**18 */\n    tag_5:\n      tag_21\n      tag_22\n      jump\t// in\n    tag_21:\n      mload(0x40)\n      tag_23\n      swap2\n      swap1\n      tag_24\n      jump\t// in\n    tag_23:\n      mload(0x40)\n      dup1\n      swap2\n      sub\n      swap1\n      return\n        /* \"contracts/flibber/test.sol\":3480:4746  function bridgeTokensMeta(... */\n    tag_6:\n      tag_25\n      0x04\n      dup1\n      calldatasize\n      sub\n      dup2\n      add\n      swap1\n      tag_26\n      swap2\n      swap1\n      tag_27\n      jump\t// in\n    tag_26:\n      tag_28\n      jump\t// in\n    tag_25:\n      stop\n        /* \"contracts/flibber/test.sol\":2566:3266  function bridgeTokens(uint256 usdcAmount) external nonReentrant {... */\n    tag_7:\n      tag_29\n      0x04\n      dup1\n      calldatasize\n      sub\n      dup2\n      add\n      swap1\n      tag_30\n      swap2\n      swap1\n      tag_19\n      jump\t// in\n    tag_30:\n      tag_31\n      jump\t// in\n    tag_29:\n      stop\n        /* \"contracts/flibber/test.sol\":1977:2018  mapping(address => uint256) public nonces */\n    tag_8:\n      tag_32\n      0x04\n      dup1\n      calldatasize\n      sub\n      dup2\n      add\n      swap1\n      tag_33\n      swap2\n      swap1\n      tag_34\n      jump\t// in\n    tag_33:\n      tag_35\n      jump\t// in\n    tag_32:\n      mload(0x40)\n      tag_36\n      swap2\n      swap1\n      tag_24\n      jump\t// in\n    tag_36:\n      mload(0x40)\n      dup1\n      swap2\n      sub\n      swap1\n      return\n        /* \"contracts/flibber/test.sol\":1562:1633  IERC20 public fib  = IERC20(0x132Ca3eff205D1f01A71e3D2E41B00056AF5c64E) */\n    tag_9:\n      tag_37\n      tag_38\n      jump\t// in\n    tag_37:\n      mload(0x40)\n      tag_39\n      swap2\n      swap1\n      tag_16\n      jump\t// in\n    tag_39:\n      mload(0x40)\n      dup1\n      swap2\n      sub\n      swap1\n      return\n        /* \"contracts/flibber/test.sol\":1372:1392  address public admin */\n    tag_10:\n      tag_40\n      tag_41\n      jump\t// in\n    tag_40:\n      mload(0x40)\n      tag_42\n      swap2\n      swap1\n      tag_43\n      jump\t// in\n    tag_42:\n      mload(0x40)\n      dup1\n      swap2\n      sub\n      swap1\n      return\n        /* \"contracts/flibber/test.sol\":1859:1902  mapping(address => uint256) public deposits */\n    tag_11:\n      tag_44\n      0x04\n      dup1\n      calldatasize\n      sub\n      dup2\n      add\n      swap1\n      tag_45\n      swap2\n      swap1\n      tag_34\n      jump\t// in\n    tag_45:\n      tag_46\n      jump\t// in\n    tag_44:\n      mload(0x40)\n      tag_47\n      swap2\n      swap1\n      tag_24\n      jump\t// in\n    tag_47:\n      mload(0x40)\n      dup1\n      swap2\n      sub\n      swap1\n      return\n        /* \"contracts/flibber/test.sol\":1464:1535  IERC20 public usdc = IERC20(0x1241676d45b1Cb5B573b6258C4A838e149A1D191) */\n    tag_14:\n      0x02\n      0x00\n      swap1\n      sload\n      swap1\n      0x0100\n      exp\n      swap1\n      div\n      0xffffffffffffffffffffffffffffffffffffffff\n      and\n      dup2\n      jump\t// out\n        /* \"contracts/flibber/test.sol\":4817:4963  function updateFibFee(uint256 newFee) external {... */\n    tag_20:\n        /* \"contracts/flibber/test.sol\":4896:4901  admin */\n      0x01\n      0x00\n      swap1\n      sload\n      swap1\n      0x0100\n      exp\n      swap1\n      div\n      0xffffffffffffffffffffffffffffffffffffffff\n      and\n        /* \"contracts/flibber/test.sol\":4882:4901  msg.sender == admin */\n      0xffffffffffffffffffffffffffffffffffffffff\n      and\n        /* \"contracts/flibber/test.sol\":4882:4892  msg.sender */\n      caller\n        /* \"contracts/flibber/test.sol\":4882:4901  msg.sender == admin */\n      0xffffffffffffffffffffffffffffffffffffffff\n      and\n      eq\n        /* \"contracts/flibber/test.sol\":4874:4931  require(msg.sender == admin, \"Only admin can update fee\") */\n      tag_49\n      jumpi\n      mload(0x40)\n      0x08c379a000000000000000000000000000000000000000000000000000000000\n      dup2\n      mstore\n      0x04\n      add\n      tag_50\n      swap1\n      tag_51\n      jump\t// in\n    tag_50:\n      mload(0x40)\n      dup1\n      swap2\n      sub\n      swap1\n      revert\n    tag_49:\n        /* \"contracts/flibber/test.sol\":4950:4956  newFee */\n      dup1\n        /* \"contracts/flibber/test.sol\":4941:4947  fibFee */\n      0x04\n        /* \"contracts/flibber/test.sol\":4941:4956  fibFee = newFee */\n      dup2\n      swap1\n      sstore\n      pop\n        /* \"contracts/flibber/test.sol\":4817:4963  function updateFibFee(uint256 newFee) external {... */\n      pop\n      jump\t// out\n        /* \"contracts/flibber/test.sol\":1757:1792  uint256 public fibFee = 10 * 10**18 */\n    tag_22:\n      sload(0x04)\n      dup2\n      jump\t// out\n        /* \"contracts/flibber/test.sol\":3480:4746  function bridgeTokensMeta(... */\n    tag_28:\n        /* \"contracts/flibber/test.sol\":576:597  _nonReentrantBefore() */\n      tag_53\n        /* \"contracts/flibber/test.sol\":576:595  _nonReentrantBefore */\n      tag_54\n        /* \"contracts/flibber/test.sol\":576:597  _nonReentrantBefore() */\n      jump\t// in\n    tag_53:\n        /* \"contracts/flibber/test.sol\":3691:3692  0 */\n      0x00\n        /* \"contracts/flibber/test.sol\":3678:3688  usdcAmount */\n      dup5\n        /* \"contracts/flibber/test.sol\":3678:3692  usdcAmount > 0 */\n      gt\n        /* \"contracts/flibber/test.sol\":3670:3715  require(usdcAmount > 0, \"Amount must be > 0\") */\n      tag_56\n      jumpi\n      mload(0x40)\n      0x08c379a000000000000000000000000000000000000000000000000000000000\n      dup2\n      mstore\n      0x04\n      add\n      tag_57\n      swap1\n      tag_58\n      jump\t// in\n    tag_57:\n      mload(0x40)\n      dup1\n      swap2\n      sub\n      swap1\n      revert\n    tag_56:\n        /* \"contracts/flibber/test.sol\":3742:3748  nonces */\n      0x06\n        /* \"contracts/flibber/test.sol\":3742:3754  nonces[user] */\n      0x00\n        /* \"contracts/flibber/test.sol\":3749:3753  user */\n      dup7\n        /* \"contracts/flibber/test.sol\":3742:3754  nonces[user] */\n      0xffffffffffffffffffffffffffffffffffffffff\n      and\n      0xffffffffffffffffffffffffffffffffffffffff\n      and\n      dup2\n      mstore\n      0x20\n      add\n      swap1\n      dup2\n      mstore\n      0x20\n      add\n      0x00\n      keccak256\n      sload\n        /* \"contracts/flibber/test.sol\":3733:3738  nonce */\n      dup3\n        /* \"contracts/flibber/test.sol\":3733:3754  nonce == nonces[user] */\n      eq\n        /* \"contracts/flibber/test.sol\":3725:3772  require(nonce == nonces[user], \"Invalid nonce\") */\n      tag_59\n      jumpi\n      mload(0x40)\n      0x08c379a000000000000000000000000000000000000000000000000000000000\n      dup2\n      mstore\n      0x04\n      add\n      tag_60\n      swap1\n      tag_61\n      jump\t// in\n    tag_60:\n      mload(0x40)\n      dup1\n      swap2\n      sub\n      swap1\n      revert\n    tag_59:\n        /* \"contracts/flibber/test.sol\":3881:3900  bytes32 messageHash */\n      0x00\n        /* \"contracts/flibber/test.sol\":3930:3934  user */\n      dup6\n        /* \"contracts/flibber/test.sol\":3936:3946  usdcAmount */\n      dup6\n        /* \"contracts/flibber/test.sol\":3948:3951  fee */\n      dup6\n        /* \"contracts/flibber/test.sol\":3953:3958  nonce */\n      dup6\n        /* \"contracts/flibber/test.sol\":3968:3972  this */\n      address\n        /* \"contracts/flibber/test.sol\":3913:3974  abi.encodePacked(user, usdcAmount, fee, nonce, address(this)) */\n      add(0x20, mload(0x40))\n      tag_62\n      swap6\n      swap5\n      swap4\n      swap3\n      swap2\n      swap1\n      tag_63\n      jump\t// in\n    tag_62:\n      mload(0x40)\n      0x20\n      dup2\n      dup4\n      sub\n      sub\n      dup2\n      mstore\n      swap1\n      0x40\n      mstore\n        /* \"contracts/flibber/test.sol\":3903:3975  keccak256(abi.encodePacked(user, usdcAmount, fee, nonce, address(this))) */\n      dup1\n      mload\n      swap1\n      0x20\n      add\n      keccak256\n        /* \"contracts/flibber/test.sol\":3881:3975  bytes32 messageHash = keccak256(abi.encodePacked(user, usdcAmount, fee, nonce, address(this))) */\n      swap1\n      pop\n        /* \"contracts/flibber/test.sol\":4064:4092  bytes32 ethSignedMessageHash */\n      0x00\n        /* \"contracts/flibber/test.sol\":4095:4131  getEthSignedMessageHash(messageHash) */\n      tag_64\n        /* \"contracts/flibber/test.sol\":4119:4130  messageHash */\n      dup3\n        /* \"contracts/flibber/test.sol\":4095:4118  getEthSignedMessageHash */\n      tag_65\n        /* \"contracts/flibber/test.sol\":4095:4131  getEthSignedMessageHash(messageHash) */\n      jump\t// in\n    tag_64:\n        /* \"contracts/flibber/test.sol\":4064:4131  bytes32 ethSignedMessageHash = getEthSignedMessageHash(messageHash) */\n      swap1\n      pop\n        /* \"contracts/flibber/test.sol\":4243:4247  user */\n      dup7\n        /* \"contracts/flibber/test.sol\":4200:4247  ethSignedMessageHash.recover(signature) == user */\n      0xffffffffffffffffffffffffffffffffffffffff\n      and\n        /* \"contracts/flibber/test.sol\":4200:4239  ethSignedMessageHash.recover(signature) */\n      tag_66\n        /* \"contracts/flibber/test.sol\":4229:4238  signature */\n      dup5\n        /* \"contracts/flibber/test.sol\":4200:4220  ethSignedMessageHash */\n      dup4\n        /* \"contracts/flibber/test.sol\":4200:4228  ethSignedMessageHash.recover */\n      tag_67\n      swap1\n        /* \"contracts/flibber/test.sol\":4200:4239  ethSignedMessageHash.recover(signature) */\n      swap2\n      swap1\n      0xffffffff\n      and\n      jump\t// in\n    tag_66:\n        /* \"contracts/flibber/test.sol\":4200:4247  ethSignedMessageHash.recover(signature) == user */\n      0xffffffffffffffffffffffffffffffffffffffff\n      and\n      eq\n        /* \"contracts/flibber/test.sol\":4192:4269  require(ethSignedMessageHash.recover(signature) == user, \"Invalid signature\") */\n      tag_68\n      jumpi\n      mload(0x40)\n      0x08c379a000000000000000000000000000000000000000000000000000000000\n      dup2\n      mstore\n      0x04\n      add\n      tag_69\n      swap1\n      tag_70\n      jump\t// in\n    tag_69:\n      mload(0x40)\n      dup1\n      swap2\n      sub\n      swap1\n      revert\n    tag_68:\n        /* \"contracts/flibber/test.sol\":4337:4343  nonces */\n      0x06\n        /* \"contracts/flibber/test.sol\":4337:4349  nonces[user] */\n      0x00\n        /* \"contracts/flibber/test.sol\":4344:4348  user */\n      dup9\n        /* \"contracts/flibber/test.sol\":4337:4349  nonces[user] */\n      0xffffffffffffffffffffffffffffffffffffffff\n      and\n      0xffffffffffffffffffffffffffffffffffffffff\n      and\n      dup2\n      mstore\n      0x20\n      add\n      swap1\n      dup2\n      mstore\n      0x20\n      add\n      0x00\n      keccak256\n      0x00\n        /* \"contracts/flibber/test.sol\":4337:4351  nonces[user]++ */\n      dup2\n      sload\n      dup1\n      swap3\n      swap2\n      swap1\n      tag_71\n      swap1\n      tag_72\n      jump\t// in\n    tag_71:\n      swap2\n      swap1\n      pop\n      sstore\n      pop\n        /* \"contracts/flibber/test.sol\":4410:4413  fib */\n      0x03\n      0x00\n      swap1\n      sload\n      swap1\n      0x0100\n      exp\n      swap1\n      div\n      0xffffffffffffffffffffffffffffffffffffffff\n      and\n        /* \"contracts/flibber/test.sol\":4410:4426  fib.transferFrom */\n      0xffffffffffffffffffffffffffffffffffffffff\n      and\n      0x23b872dd\n        /* \"contracts/flibber/test.sol\":4427:4431  user */\n      dup9\n        /* \"contracts/flibber/test.sol\":4433:4438  admin */\n      0x01\n      0x00\n      swap1\n      sload\n      swap1\n      0x0100\n      exp\n      swap1\n      div\n      0xffffffffffffffffffffffffffffffffffffffff\n      and\n        /* \"contracts/flibber/test.sol\":4440:4443  fee */\n      dup9\n        /* \"contracts/flibber/test.sol\":4410:4444  fib.transferFrom(user, admin, fee) */\n      mload(0x40)\n      dup5\n      0xffffffff\n      and\n      0xe0\n      shl\n      dup2\n      mstore\n      0x04\n      add\n      tag_73\n      swap4\n      swap3\n      swap2\n      swap1\n      tag_74\n      jump\t// in\n    tag_73:\n      0x20\n      mload(0x40)\n      dup1\n      dup4\n      sub\n      dup2\n      0x00\n      dup8\n      gas\n      call\n      iszero\n      dup1\n      iszero\n      tag_76\n      jumpi\n      returndatasize\n      0x00\n      dup1\n      returndatacopy\n      revert(0x00, returndatasize)\n    tag_76:\n      pop\n      pop\n      pop\n      pop\n      mload(0x40)\n      returndatasize\n      not(0x1f)\n      0x1f\n      dup3\n      add\n      and\n      dup3\n      add\n      dup1\n      0x40\n      mstore\n      pop\n      dup2\n      add\n      swap1\n      tag_77\n      swap2\n      swap1\n      tag_78\n      jump\t// in\n    tag_77:\n        /* \"contracts/flibber/test.sol\":4402:4472  require(fib.transferFrom(user, admin, fee), \"FIB fee transfer failed\") */\n      tag_79\n      jumpi\n      mload(0x40)\n      0x08c379a000000000000000000000000000000000000000000000000000000000\n      dup2\n      mstore\n      0x04\n      add\n      tag_80\n      swap1\n      tag_81\n      jump\t// in\n    tag_80:\n      mload(0x40)\n      dup1\n      swap2\n      sub\n      swap1\n      revert\n    tag_79:\n        /* \"contracts/flibber/test.sol\":4545:4549  usdc */\n      0x02\n      0x00\n      swap1\n      sload\n      swap1\n      0x0100\n      exp\n      swap1\n      div\n      0xffffffffffffffffffffffffffffffffffffffff\n      and\n        /* \"contracts/flibber/test.sol\":4545:4562  usdc.transferFrom */\n      0xffffffffffffffffffffffffffffffffffffffff\n      and\n      0x23b872dd\n        /* \"contracts/flibber/test.sol\":4563:4567  user */\n      dup9\n        /* \"contracts/flibber/test.sol\":4577:4581  this */\n      address\n        /* \"contracts/flibber/test.sol\":4584:4594  usdcAmount */\n      dup10\n        /* \"contracts/flibber/test.sol\":4545:4595  usdc.transferFrom(user, address(this), usdcAmount) */\n      mload(0x40)\n      dup5\n      0xffffffff\n      and\n      0xe0\n      shl\n      dup2\n      mstore\n      0x04\n      add\n      tag_82\n      swap4\n      swap3\n      swap2\n      swap1\n      tag_74\n      jump\t// in\n    tag_82:\n      0x20\n      mload(0x40)\n      dup1\n      dup4\n      sub\n      dup2\n      0x00\n      dup8\n      gas\n      call\n      iszero\n      dup1\n      iszero\n      tag_84\n      jumpi\n      returndatasize\n      0x00\n      dup1\n      returndatacopy\n      revert(0x00, returndatasize)\n    tag_84:\n      pop\n      pop\n      pop\n      pop\n      mload(0x40)\n      returndatasize\n      not(0x1f)\n      0x1f\n      dup3\n      add\n      and\n      dup3\n      add\n      dup1\n      0x40\n      mstore\n      pop\n      dup2\n      add\n      swap1\n      tag_85\n      swap2\n      swap1\n      tag_78\n      jump\t// in\n    tag_85:\n        /* \"contracts/flibber/test.sol\":4537:4620  require(usdc.transferFrom(user, address(this), usdcAmount), \"USDC transfer failed\") */\n      tag_86\n      jumpi\n      mload(0x40)\n      0x08c379a000000000000000000000000000000000000000000000000000000000\n      dup2\n      mstore\n      0x04\n      add\n      tag_87\n      swap1\n      tag_88\n      jump\t// in\n    tag_87:\n      mload(0x40)\n      dup1\n      swap2\n      sub\n      swap1\n      revert\n    tag_86:\n        /* \"contracts/flibber/test.sol\":4649:4659  usdcAmount */\n      dup6\n        /* \"contracts/flibber/test.sol\":4631:4639  deposits */\n      0x05\n        /* \"contracts/flibber/test.sol\":4631:4645  deposits[user] */\n      0x00\n        /* \"contracts/flibber/test.sol\":4640:4644  user */\n      dup10\n        /* \"contracts/flibber/test.sol\":4631:4645  deposits[user] */\n      0xffffffffffffffffffffffffffffffffffffffff\n      and\n      0xffffffffffffffffffffffffffffffffffffffff\n      and\n      dup2\n      mstore\n      0x20\n      add\n      swap1\n      dup2\n      mstore\n      0x20\n      add\n      0x00\n      keccak256\n      0x00\n        /* \"contracts/flibber/test.sol\":4631:4659  deposits[user] += usdcAmount */\n      dup3\n      dup3\n      sload\n      tag_89\n      swap2\n      swap1\n      tag_90\n      jump\t// in\n    tag_89:\n      swap3\n      pop\n      pop\n      dup2\n      swap1\n      sstore\n      pop\n        /* \"contracts/flibber/test.sol\":4704:4714  msg.sender */\n      caller\n        /* \"contracts/flibber/test.sol\":4674:4739  MetaTransactionExecuted(user, msg.sender, usdcAmount, fee, nonce) */\n      0xffffffffffffffffffffffffffffffffffffffff\n      and\n        /* \"contracts/flibber/test.sol\":4698:4702  user */\n      dup8\n        /* \"contracts/flibber/test.sol\":4674:4739  MetaTransactionExecuted(user, msg.sender, usdcAmount, fee, nonce) */\n      0xffffffffffffffffffffffffffffffffffffffff\n      and\n      0x5ff973aa502225ea0c12eb7db88b004b0a0708a49e3369d50f92d806d178b824\n        /* \"contracts/flibber/test.sol\":4716:4726  usdcAmount */\n      dup9\n        /* \"contracts/flibber/test.sol\":4728:4731  fee */\n      dup9\n        /* \"contracts/flibber/test.sol\":4733:4738  nonce */\n      dup9\n        /* \"contracts/flibber/test.sol\":4674:4739  MetaTransactionExecuted(user, msg.sender, usdcAmount, fee, nonce) */\n      mload(0x40)\n      tag_91\n      swap4\n      swap3\n      swap2\n      swap1\n      tag_92\n      jump\t// in\n    tag_91:\n      mload(0x40)\n      dup1\n      swap2\n      sub\n      swap1\n      log3\n        /* \"contracts/flibber/test.sol\":3660:4746  {... */\n      pop\n      pop\n        /* \"contracts/flibber/test.sol\":618:638  _nonReentrantAfter() */\n      tag_93\n        /* \"contracts/flibber/test.sol\":618:636  _nonReentrantAfter */\n      tag_94\n        /* \"contracts/flibber/test.sol\":618:638  _nonReentrantAfter() */\n      jump\t// in\n    tag_93:\n        /* \"contracts/flibber/test.sol\":3480:4746  function bridgeTokensMeta(... */\n      pop\n      pop\n      pop\n      pop\n      pop\n      jump\t// out\n        /* \"contracts/flibber/test.sol\":2566:3266  function bridgeTokens(uint256 usdcAmount) external nonReentrant {... */\n    tag_31:\n        /* \"contracts/flibber/test.sol\":576:597  _nonReentrantBefore() */\n      tag_96\n        /* \"contracts/flibber/test.sol\":576:595  _nonReentrantBefore */\n      tag_54\n        /* \"contracts/flibber/test.sol\":576:597  _nonReentrantBefore() */\n      jump\t// in\n    tag_96:\n        /* \"contracts/flibber/test.sol\":2661:2662  0 */\n      0x00\n        /* \"contracts/flibber/test.sol\":2648:2658  usdcAmount */\n      dup2\n        /* \"contracts/flibber/test.sol\":2648:2662  usdcAmount > 0 */\n      gt\n        /* \"contracts/flibber/test.sol\":2640:2685  require(usdcAmount > 0, \"Amount must be > 0\") */\n      tag_98\n      jumpi\n      mload(0x40)\n      0x08c379a000000000000000000000000000000000000000000000000000000000\n      dup2\n      mstore\n      0x04\n      add\n      tag_99\n      swap1\n      tag_58\n      jump\t// in\n    tag_99:\n      mload(0x40)\n      dup1\n      swap2\n      sub\n      swap1\n      revert\n    tag_98:\n        /* \"contracts/flibber/test.sol\":2790:2793  fib */\n      0x03\n      0x00\n      swap1\n      sload\n      swap1\n      0x0100\n      exp\n      swap1\n      div\n      0xffffffffffffffffffffffffffffffffffffffff\n      and\n        /* \"contracts/flibber/test.sol\":2790:2806  fib.transferFrom */\n      0xffffffffffffffffffffffffffffffffffffffff\n      and\n      0x23b872dd\n        /* \"contracts/flibber/test.sol\":2807:2817  msg.sender */\n      caller\n        /* \"contracts/flibber/test.sol\":2819:2824  admin */\n      0x01\n      0x00\n      swap1\n      sload\n      swap1\n      0x0100\n      exp\n      swap1\n      div\n      0xffffffffffffffffffffffffffffffffffffffff\n      and\n        /* \"contracts/flibber/test.sol\":2826:2832  fibFee */\n      sload(0x04)\n        /* \"contracts/flibber/test.sol\":2790:2833  fib.transferFrom(msg.sender, admin, fibFee) */\n      mload(0x40)\n      dup5\n      0xffffffff\n      and\n      0xe0\n      shl\n      dup2\n      mstore\n      0x04\n      add\n      tag_100\n      swap4\n      swap3\n      swap2\n      swap1\n      tag_74\n      jump\t// in\n    tag_100:\n      0x20\n      mload(0x40)\n      dup1\n      dup4\n      sub\n      dup2\n      0x00\n      dup8\n      gas\n      call\n      iszero\n      dup1\n      iszero\n      tag_102\n      jumpi\n      returndatasize\n      0x00\n      dup1\n      returndatacopy\n      revert(0x00, returndatasize)\n    tag_102:\n      pop\n      pop\n      pop\n      pop\n      mload(0x40)\n      returndatasize\n      not(0x1f)\n      0x1f\n      dup3\n      add\n      and\n      dup3\n      add\n      dup1\n      0x40\n      mstore\n      pop\n      dup2\n      add\n      swap1\n      tag_103\n      swap2\n      swap1\n      tag_78\n      jump\t// in\n    tag_103:\n        /* \"contracts/flibber/test.sol\":2782:2861  require(fib.transferFrom(msg.sender, admin, fibFee), \"FIB fee transfer failed\") */\n      tag_104\n      jumpi\n      mload(0x40)\n      0x08c379a000000000000000000000000000000000000000000000000000000000\n      dup2\n      mstore\n      0x04\n      add\n      tag_105\n      swap1\n      tag_81\n      jump\t// in\n    tag_105:\n      mload(0x40)\n      dup1\n      swap2\n      sub\n      swap1\n      revert\n    tag_104:\n        /* \"contracts/flibber/test.sol\":2965:2969  usdc */\n      0x02\n      0x00\n      swap1\n      sload\n      swap1\n      0x0100\n      exp\n      swap1\n      div\n      0xffffffffffffffffffffffffffffffffffffffff\n      and\n        /* \"contracts/flibber/test.sol\":2965:2982  usdc.transferFrom */\n      0xffffffffffffffffffffffffffffffffffffffff\n      and\n      0x23b872dd\n        /* \"contracts/flibber/test.sol\":2983:2993  msg.sender */\n      caller\n        /* \"contracts/flibber/test.sol\":3003:3007  this */\n      address\n        /* \"contracts/flibber/test.sol\":3010:3020  usdcAmount */\n      dup5\n        /* \"contracts/flibber/test.sol\":2965:3021  usdc.transferFrom(msg.sender, address(this), usdcAmount) */\n      mload(0x40)\n      dup5\n      0xffffffff\n      and\n      0xe0\n      shl\n      dup2\n      mstore\n      0x04\n      add\n      tag_106\n      swap4\n      swap3\n      swap2\n      swap1\n      tag_74\n      jump\t// in\n    tag_106:\n      0x20\n      mload(0x40)\n      dup1\n      dup4\n      sub\n      dup2\n      0x00\n      dup8\n      gas\n      call\n      iszero\n      dup1\n      iszero\n      tag_108\n      jumpi\n      returndatasize\n      0x00\n      dup1\n      returndatacopy\n      revert(0x00, returndatasize)\n    tag_108:\n      pop\n      pop\n      pop\n      pop\n      mload(0x40)\n      returndatasize\n      not(0x1f)\n      0x1f\n      dup3\n      add\n      and\n      dup3\n      add\n      dup1\n      0x40\n      mstore\n      pop\n      dup2\n      add\n      swap1\n      tag_109\n      swap2\n      swap1\n      tag_78\n      jump\t// in\n    tag_109:\n        /* \"contracts/flibber/test.sol\":2957:3046  require(usdc.transferFrom(msg.sender, address(this), usdcAmount), \"USDC transfer failed\") */\n      tag_110\n      jumpi\n      mload(0x40)\n      0x08c379a000000000000000000000000000000000000000000000000000000000\n      dup2\n      mstore\n      0x04\n      add\n      tag_111\n      swap1\n      tag_88\n      jump\t// in\n    tag_111:\n      mload(0x40)\n      dup1\n      swap2\n      sub\n      swap1\n      revert\n    tag_110:\n        /* \"contracts/flibber/test.sol\":3081:3091  usdcAmount */\n      dup1\n        /* \"contracts/flibber/test.sol\":3057:3065  deposits */\n      0x05\n        /* \"contracts/flibber/test.sol\":3057:3077  deposits[msg.sender] */\n      0x00\n        /* \"contracts/flibber/test.sol\":3066:3076  msg.sender */\n      caller\n        /* \"contracts/flibber/test.sol\":3057:3077  deposits[msg.sender] */\n      0xffffffffffffffffffffffffffffffffffffffff\n      and\n      0xffffffffffffffffffffffffffffffffffffffff\n      and\n      dup2\n      mstore\n      0x20\n      add\n      swap1\n      dup2\n      mstore\n      0x20\n      add\n      0x00\n      keccak256\n      0x00\n        /* \"contracts/flibber/test.sol\":3057:3091  deposits[msg.sender] += usdcAmount */\n      dup3\n      dup3\n      sload\n      tag_112\n      swap2\n      swap1\n      tag_90\n      jump\t// in\n    tag_112:\n      swap3\n      pop\n      pop\n      dup2\n      swap1\n      sstore\n      pop\n        /* \"contracts/flibber/test.sol\":3219:3229  msg.sender */\n      caller\n        /* \"contracts/flibber/test.sol\":3206:3259  TokensLocked(msg.sender, usdcAmount, block.timestamp) */\n      0xffffffffffffffffffffffffffffffffffffffff\n      and\n      0xd741e738a23fd18a03a26522320d9fc6cac1fed483e215ea9150fbc2fc43385d\n        /* \"contracts/flibber/test.sol\":3231:3241  usdcAmount */\n      dup3\n        /* \"contracts/flibber/test.sol\":3243:3258  block.timestamp */\n      timestamp\n        /* \"contracts/flibber/test.sol\":3206:3259  TokensLocked(msg.sender, usdcAmount, block.timestamp) */\n      mload(0x40)\n      tag_113\n      swap3\n      swap2\n      swap1\n      tag_114\n      jump\t// in\n    tag_113:\n      mload(0x40)\n      dup1\n      swap2\n      sub\n      swap1\n      log2\n        /* \"contracts/flibber/test.sol\":618:638  _nonReentrantAfter() */\n      tag_115\n        /* \"contracts/flibber/test.sol\":618:636  _nonReentrantAfter */\n      tag_94\n        /* \"contracts/flibber/test.sol\":618:638  _nonReentrantAfter() */\n      jump\t// in\n    tag_115:\n        /* \"contracts/flibber/test.sol\":2566:3266  function bridgeTokens(uint256 usdcAmount) external nonReentrant {... */\n      pop\n      jump\t// out\n        /* \"contracts/flibber/test.sol\":1977:2018  mapping(address => uint256) public nonces */\n    tag_35:\n      mstore(0x20, 0x06)\n      dup1\n      0x00\n      mstore\n      keccak256(0x00, 0x40)\n      0x00\n      swap2\n      pop\n      swap1\n      pop\n      sload\n      dup2\n      jump\t// out\n        /* \"contracts/flibber/test.sol\":1562:1633  IERC20 public fib  = IERC20(0x132Ca3eff205D1f01A71e3D2E41B00056AF5c64E) */\n    tag_38:\n      0x03\n      0x00\n      swap1\n      sload\n      swap1\n      0x0100\n      exp\n      swap1\n      div\n      0xffffffffffffffffffffffffffffffffffffffff\n      and\n      dup2\n      jump\t// out\n        /* \"contracts/flibber/test.sol\":1372:1392  address public admin */\n    tag_41:\n      0x01\n      0x00\n      swap1\n      sload\n      swap1\n      0x0100\n      exp\n      swap1\n      div\n      0xffffffffffffffffffffffffffffffffffffffff\n      and\n      dup2\n      jump\t// out\n        /* \"contracts/flibber/test.sol\":1859:1902  mapping(address => uint256) public deposits */\n    tag_46:\n      mstore(0x20, 0x05)\n      dup1\n      0x00\n      mstore\n      keccak256(0x00, 0x40)\n      0x00\n      swap2\n      pop\n      swap1\n      pop\n      sload\n      dup2\n      jump\t// out\n        /* \"contracts/flibber/test.sol\":651:819  function _nonReentrantBefore() private {... */\n    tag_54:\n        /* \"contracts/flibber/test.sol\":268:269  2 */\n      0x02\n        /* \"contracts/flibber/test.sol\":704:711  _status */\n      sload(0x00)\n        /* \"contracts/flibber/test.sol\":704:722  _status == ENTERED */\n      sub\n        /* \"contracts/flibber/test.sol\":700:786  if (_status == ENTERED) {... */\n      tag_117\n      jumpi\n        /* \"contracts/flibber/test.sol\":745:775  ReentrancyGuardReentrantCall() */\n      mload(0x40)\n      0x3ee5aeb500000000000000000000000000000000000000000000000000000000\n      dup2\n      mstore\n      0x04\n      add\n      mload(0x40)\n      dup1\n      swap2\n      sub\n      swap1\n      revert\n        /* \"contracts/flibber/test.sol\":700:786  if (_status == ENTERED) {... */\n    tag_117:\n        /* \"contracts/flibber/test.sol\":268:269  2 */\n      0x02\n        /* \"contracts/flibber/test.sol\":795:802  _status */\n      0x00\n        /* \"contracts/flibber/test.sol\":795:812  _status = ENTERED */\n      dup2\n      swap1\n      sstore\n      pop\n        /* \"contracts/flibber/test.sol\":651:819  function _nonReentrantBefore() private {... */\n      jump\t// out\n        /* \"contracts/flibber/test.sol\":5043:5292  function getEthSignedMessageHash(bytes32 messageHash) internal pure returns (bytes32) {... */\n    tag_65:\n        /* \"contracts/flibber/test.sol\":5120:5127  bytes32 */\n      0x00\n        /* \"contracts/flibber/test.sol\":5272:5283  messageHash */\n      dup2\n        /* \"contracts/flibber/test.sol\":5219:5284  abi.encodePacked(\"\\x19Ethereum Signed Message:\\n32\", messageHash) */\n      add(0x20, mload(0x40))\n      tag_119\n      swap2\n      swap1\n      tag_120\n      jump\t// in\n    tag_119:\n      mload(0x40)\n      0x20\n      dup2\n      dup4\n      sub\n      sub\n      dup2\n      mstore\n      swap1\n      0x40\n      mstore\n        /* \"contracts/flibber/test.sol\":5209:5285  keccak256(abi.encodePacked(\"\\x19Ethereum Signed Message:\\n32\", messageHash)) */\n      dup1\n      mload\n      swap1\n      0x20\n      add\n      keccak256\n        /* \"contracts/flibber/test.sol\":5202:5285  return keccak256(abi.encodePacked(\"\\x19Ethereum Signed Message:\\n32\", messageHash)) */\n      swap1\n      pop\n        /* \"contracts/flibber/test.sol\":5043:5292  function getEthSignedMessageHash(bytes32 messageHash) internal pure returns (bytes32) {... */\n      swap2\n      swap1\n      pop\n      jump\t// out\n        /* \"https://github.com/OpenZeppelin/openzeppelin-contracts/blob/master/contracts/utils/cryptography/ECDSA.sol\":3714:3969  function recover(bytes32 hash, bytes memory signature) internal pure returns (address) {... */\n    tag_67:\n        /* \"https://github.com/OpenZeppelin/openzeppelin-contracts/blob/master/contracts/utils/cryptography/ECDSA.sol\":3792:3799  address */\n      0x00\n        /* \"https://github.com/OpenZeppelin/openzeppelin-contracts/blob/master/contracts/utils/cryptography/ECDSA.sol\":3812:3829  address recovered */\n      dup1\n        /* \"https://github.com/OpenZeppelin/openzeppelin-contracts/blob/master/contracts/utils/cryptography/ECDSA.sol\":3831:3849  RecoverError error */\n      0x00\n        /* \"https://github.com/OpenZeppelin/openzeppelin-contracts/blob/master/contracts/utils/cryptography/ECDSA.sol\":3851:3867  bytes32 errorArg */\n      dup1\n        /* \"https://github.com/OpenZeppelin/openzeppelin-contracts/blob/master/contracts/utils/cryptography/ECDSA.sol\":3871:3898  tryRecover(hash, signature) */\n      tag_122\n        /* \"https://github.com/OpenZeppelin/openzeppelin-contracts/blob/master/contracts/utils/cryptography/ECDSA.sol\":3882:3886  hash */\n      dup7\n        /* \"https://github.com/OpenZeppelin/openzeppelin-contracts/blob/master/contracts/utils/cryptography/ECDSA.sol\":3888:3897  signature */\n      dup7\n        /* \"https://github.com/OpenZeppelin/openzeppelin-contracts/blob/master/contracts/utils/cryptography/ECDSA.sol\":3871:3881  tryRecover */\n      tag_123\n        /* \"https://github.com/OpenZeppelin/openzeppelin-contracts/blob/master/contracts/utils/cryptography/ECDSA.sol\":3871:3898  tryRecover(hash, signature) */\n      jump\t// in\n    tag_122:\n        /* \"https://github.com/OpenZeppelin/openzeppelin-contracts/blob/master/contracts/utils/cryptography/ECDSA.sol\":3811:3898  (address recovered, RecoverError error, bytes32 errorArg) = tryRecover(hash, signature) */\n      swap3\n      pop\n      swap3\n      pop\n      swap3\n      pop\n        /* \"https://github.com/OpenZeppelin/openzeppelin-contracts/blob/master/contracts/utils/cryptography/ECDSA.sol\":3908:3936  _throwError(error, errorArg) */\n      tag_124\n        /* \"https://github.com/OpenZeppelin/openzeppelin-contracts/blob/master/contracts/utils/cryptography/ECDSA.sol\":3920:3925  error */\n      dup3\n        /* \"https://github.com/OpenZeppelin/openzeppelin-contracts/blob/master/contracts/utils/cryptography/ECDSA.sol\":3927:3935  errorArg */\n      dup3\n        /* \"https://github.com/OpenZeppelin/openzeppelin-contracts/blob/master/contracts/utils/cryptography/ECDSA.sol\":3908:3919  _throwError */\n      tag_125\n        /* \"https://github.com/OpenZeppelin/openzeppelin-contracts/blob/master/contracts/utils/cryptography/ECDSA.sol\":3908:3936  _throwError(error, errorArg) */\n      jump\t// in\n    tag_124:\n        /* \"https://github.com/OpenZeppelin/openzeppelin-contracts/blob/master/contracts/utils/cryptography/ECDSA.sol\":3953:3962  recovered */\n      dup3\n        /* \"https://github.com/OpenZeppelin/openzeppelin-contracts/blob/master/contracts/utils/cryptography/ECDSA.sol\":3946:3962  return recovered */\n      swap4\n      pop\n      pop\n      pop\n      pop\n        /* \"https://github.com/OpenZeppelin/openzeppelin-contracts/blob/master/contracts/utils/cryptography/ECDSA.sol\":3714:3969  function recover(bytes32 hash, bytes memory signature) internal pure returns (address) {... */\n      swap3\n      swap2\n      pop\n      pop\n      jump\t// out\n        /* \"contracts/flibber/test.sol\":825:901  function _nonReentrantAfter() private {... */\n    tag_94:\n        /* \"contracts/flibber/test.sol\":226:227  1 */\n      0x01\n        /* \"contracts/flibber/test.sol\":873:880  _status */\n      0x00\n        /* \"contracts/flibber/test.sol\":873:894  _status = NOT_ENTERED */\n      dup2\n      swap1\n      sstore\n      pop\n        /* \"contracts/flibber/test.sol\":825:901  function _nonReentrantAfter() private {... */\n      jump\t// out\n        /* \"https://github.com/OpenZeppelin/openzeppelin-contracts/blob/master/contracts/utils/cryptography/ECDSA.sol\":2129:2907  function tryRecover(... */\n    tag_123:\n        /* \"https://github.com/OpenZeppelin/openzeppelin-contracts/blob/master/contracts/utils/cryptography/ECDSA.sol\":2232:2249  address recovered */\n      0x00\n        /* \"https://github.com/OpenZeppelin/openzeppelin-contracts/blob/master/contracts/utils/cryptography/ECDSA.sol\":2251:2267  RecoverError err */\n      dup1\n        /* \"https://github.com/OpenZeppelin/openzeppelin-contracts/blob/master/contracts/utils/cryptography/ECDSA.sol\":2269:2283  bytes32 errArg */\n      0x00\n        /* \"https://github.com/OpenZeppelin/openzeppelin-contracts/blob/master/contracts/utils/cryptography/ECDSA.sol\":2319:2321  65 */\n      0x41\n        /* \"https://github.com/OpenZeppelin/openzeppelin-contracts/blob/master/contracts/utils/cryptography/ECDSA.sol\":2299:2308  signature */\n      dup5\n        /* \"https://github.com/OpenZeppelin/openzeppelin-contracts/blob/master/contracts/utils/cryptography/ECDSA.sol\":2299:2315  signature.length */\n      mload\n        /* \"https://github.com/OpenZeppelin/openzeppelin-contracts/blob/master/contracts/utils/cryptography/ECDSA.sol\":2299:2321  signature.length == 65 */\n      sub\n        /* \"https://github.com/OpenZeppelin/openzeppelin-contracts/blob/master/contracts/utils/cryptography/ECDSA.sol\":2295:2901  if (signature.length == 65) {... */\n      tag_128\n      jumpi\n        /* \"https://github.com/OpenZeppelin/openzeppelin-contracts/blob/master/contracts/utils/cryptography/ECDSA.sol\":2337:2346  bytes32 r */\n      0x00\n        /* \"https://github.com/OpenZeppelin/openzeppelin-contracts/blob/master/contracts/utils/cryptography/ECDSA.sol\":2360:2369  bytes32 s */\n      dup1\n        /* \"https://github.com/OpenZeppelin/openzeppelin-contracts/blob/master/contracts/utils/cryptography/ECDSA.sol\":2383:2390  uint8 v */\n      0x00\n        /* \"https://github.com/OpenZeppelin/openzeppelin-contracts/blob/master/contracts/utils/cryptography/ECDSA.sol\":2604:2608  0x20 */\n      0x20\n        /* \"https://github.com/OpenZeppelin/openzeppelin-contracts/blob/master/contracts/utils/cryptography/ECDSA.sol\":2593:2602  signature */\n      dup8\n        /* \"https://github.com/OpenZeppelin/openzeppelin-contracts/blob/master/contracts/utils/cryptography/ECDSA.sol\":2589:2609  add(signature, 0x20) */\n      add\n        /* \"https://github.com/OpenZeppelin/openzeppelin-contracts/blob/master/contracts/utils/cryptography/ECDSA.sol\":2583:2610  mload(add(signature, 0x20)) */\n      mload\n        /* \"https://github.com/OpenZeppelin/openzeppelin-contracts/blob/master/contracts/utils/cryptography/ECDSA.sol\":2578:2610  r := mload(add(signature, 0x20)) */\n      swap3\n      pop\n        /* \"https://github.com/OpenZeppelin/openzeppelin-contracts/blob/master/contracts/utils/cryptography/ECDSA.sol\":2653:2657  0x40 */\n      0x40\n        /* \"https://github.com/OpenZeppelin/openzeppelin-contracts/blob/master/contracts/utils/cryptography/ECDSA.sol\":2642:2651  signature */\n      dup8\n        /* \"https://github.com/OpenZeppelin/openzeppelin-contracts/blob/master/contracts/utils/cryptography/ECDSA.sol\":2638:2658  add(signature, 0x40) */\n      add\n        /* \"https://github.com/OpenZeppelin/openzeppelin-contracts/blob/master/contracts/utils/cryptography/ECDSA.sol\":2632:2659  mload(add(signature, 0x40)) */\n      mload\n        /* \"https://github.com/OpenZeppelin/openzeppelin-contracts/blob/master/contracts/utils/cryptography/ECDSA.sol\":2627:2659  s := mload(add(signature, 0x40)) */\n      swap2\n      pop\n        /* \"https://github.com/OpenZeppelin/openzeppelin-contracts/blob/master/contracts/utils/cryptography/ECDSA.sol\":2710:2714  0x60 */\n      0x60\n        /* \"https://github.com/OpenZeppelin/openzeppelin-contracts/blob/master/contracts/utils/cryptography/ECDSA.sol\":2699:2708  signature */\n      dup8\n        /* \"https://github.com/OpenZeppelin/openzeppelin-contracts/blob/master/contracts/utils/cryptography/ECDSA.sol\":2695:2715  add(signature, 0x60) */\n      add\n        /* \"https://github.com/OpenZeppelin/openzeppelin-contracts/blob/master/contracts/utils/cryptography/ECDSA.sol\":2689:2716  mload(add(signature, 0x60)) */\n      mload\n        /* \"https://github.com/OpenZeppelin/openzeppelin-contracts/blob/master/contracts/utils/cryptography/ECDSA.sol\":2686:2687  0 */\n      0x00\n        /* \"https://github.com/OpenZeppelin/openzeppelin-contracts/blob/master/contracts/utils/cryptography/ECDSA.sol\":2681:2717  byte(0, mload(add(signature, 0x60))) */\n      byte\n        /* \"https://github.com/OpenZeppelin/openzeppelin-contracts/blob/master/contracts/utils/cryptography/ECDSA.sol\":2676:2717  v := byte(0, mload(add(signature, 0x60))) */\n      swap1\n      pop\n        /* \"https://github.com/OpenZeppelin/openzeppelin-contracts/blob/master/contracts/utils/cryptography/ECDSA.sol\":2751:2776  tryRecover(hash, v, r, s) */\n      tag_129\n        /* \"https://github.com/OpenZeppelin/openzeppelin-contracts/blob/master/contracts/utils/cryptography/ECDSA.sol\":2762:2766  hash */\n      dup9\n        /* \"https://github.com/OpenZeppelin/openzeppelin-contracts/blob/master/contracts/utils/cryptography/ECDSA.sol\":2768:2769  v */\n      dup3\n        /* \"https://github.com/OpenZeppelin/openzeppelin-contracts/blob/master/contracts/utils/cryptography/ECDSA.sol\":2771:2772  r */\n      dup6\n        /* \"https://github.com/OpenZeppelin/openzeppelin-contracts/blob/master/contracts/utils/cryptography/ECDSA.sol\":2774:2775  s */\n      dup6\n        /* \"https://github.com/OpenZeppelin/openzeppelin-contracts/blob/master/contracts/utils/cryptography/ECDSA.sol\":2751:2761  tryRecover */\n      tag_130\n        /* \"https://github.com/OpenZeppelin/openzeppelin-contracts/blob/master/contracts/utils/cryptography/ECDSA.sol\":2751:2776  tryRecover(hash, v, r, s) */\n      jump\t// in\n    tag_129:\n        /* \"https://github.com/OpenZeppelin/openzeppelin-contracts/blob/master/contracts/utils/cryptography/ECDSA.sol\":2744:2776  return tryRecover(hash, v, r, s) */\n      swap6\n      pop\n      swap6\n      pop\n      swap6\n      pop\n      pop\n      pop\n      pop\n      jump(tag_127)\n        /* \"https://github.com/OpenZeppelin/openzeppelin-contracts/blob/master/contracts/utils/cryptography/ECDSA.sol\":2295:2901  if (signature.length == 65) {... */\n    tag_128:\n        /* \"https://github.com/OpenZeppelin/openzeppelin-contracts/blob/master/contracts/utils/cryptography/ECDSA.sol\":2823:2824  0 */\n      0x00\n        /* \"https://github.com/OpenZeppelin/openzeppelin-contracts/blob/master/contracts/utils/cryptography/ECDSA.sol\":2827:2862  RecoverError.InvalidSignatureLength */\n      0x02\n        /* \"https://github.com/OpenZeppelin/openzeppelin-contracts/blob/master/contracts/utils/cryptography/ECDSA.sol\":2872:2881  signature */\n      dup6\n        /* \"https://github.com/OpenZeppelin/openzeppelin-contracts/blob/master/contracts/utils/cryptography/ECDSA.sol\":2872:2888  signature.length */\n      mload\n        /* \"https://github.com/OpenZeppelin/openzeppelin-contracts/blob/master/contracts/utils/cryptography/ECDSA.sol\":2864:2889  bytes32(signature.length) */\n      0x00\n      shl\n        /* \"https://github.com/OpenZeppelin/openzeppelin-contracts/blob/master/contracts/utils/cryptography/ECDSA.sol\":2807:2890  return (address(0), RecoverError.InvalidSignatureLength, bytes32(signature.length)) */\n      swap3\n      pop\n      swap3\n      pop\n      swap3\n      pop\n        /* \"https://github.com/OpenZeppelin/openzeppelin-contracts/blob/master/contracts/utils/cryptography/ECDSA.sol\":2129:2907  function tryRecover(... */\n    tag_127:\n      swap3\n      pop\n      swap3\n      pop\n      swap3\n      jump\t// out\n        /* \"https://github.com/OpenZeppelin/openzeppelin-contracts/blob/master/contracts/utils/cryptography/ECDSA.sol\":7280:7812  function _throwError(RecoverError error, bytes32 errorArg) private pure {... */\n    tag_125:\n        /* \"https://github.com/OpenZeppelin/openzeppelin-contracts/blob/master/contracts/utils/cryptography/ECDSA.sol\":7375:7395  RecoverError.NoError */\n      0x00\n        /* \"https://github.com/OpenZeppelin/openzeppelin-contracts/blob/master/contracts/utils/cryptography/ECDSA.sol\":7366:7395  error == RecoverError.NoError */\n      0x03\n      dup2\n      gt\n      iszero\n      tag_133\n      jumpi\n      tag_134\n      tag_135\n      jump\t// in\n    tag_134:\n    tag_133:\n        /* \"https://github.com/OpenZeppelin/openzeppelin-contracts/blob/master/contracts/utils/cryptography/ECDSA.sol\":7366:7371  error */\n      dup3\n        /* \"https://github.com/OpenZeppelin/openzeppelin-contracts/blob/master/contracts/utils/cryptography/ECDSA.sol\":7366:7395  error == RecoverError.NoError */\n      0x03\n      dup2\n      gt\n      iszero\n      tag_136\n      jumpi\n      tag_137\n      tag_135\n      jump\t// in\n    tag_137:\n    tag_136:\n      sub\n        /* \"https://github.com/OpenZeppelin/openzeppelin-contracts/blob/master/contracts/utils/cryptography/ECDSA.sol\":7362:7806  if (error == RecoverError.NoError) {... */\n      iszero\n        /* \"https://github.com/OpenZeppelin/openzeppelin-contracts/blob/master/contracts/utils/cryptography/ECDSA.sol\":7411:7418  return; */\n      tag_132\n        /* \"https://github.com/OpenZeppelin/openzeppelin-contracts/blob/master/contracts/utils/cryptography/ECDSA.sol\":7362:7806  if (error == RecoverError.NoError) {... */\n      jumpi\n        /* \"https://github.com/OpenZeppelin/openzeppelin-contracts/blob/master/contracts/utils/cryptography/ECDSA.sol\":7471:7500  RecoverError.InvalidSignature */\n      0x01\n        /* \"https://github.com/OpenZeppelin/openzeppelin-contracts/blob/master/contracts/utils/cryptography/ECDSA.sol\":7462:7500  error == RecoverError.InvalidSignature */\n      0x03\n      dup2\n      gt\n      iszero\n      tag_140\n      jumpi\n      tag_141\n      tag_135\n      jump\t// in\n    tag_141:\n    tag_140:\n        /* \"https://github.com/OpenZeppelin/openzeppelin-contracts/blob/master/contracts/utils/cryptography/ECDSA.sol\":7462:7467  error */\n      dup3\n        /* \"https://github.com/OpenZeppelin/openzeppelin-contracts/blob/master/contracts/utils/cryptography/ECDSA.sol\":7462:7500  error == RecoverError.InvalidSignature */\n      0x03\n      dup2\n      gt\n      iszero\n      tag_142\n      jumpi\n      tag_143\n      tag_135\n      jump\t// in\n    tag_143:\n    tag_142:\n      sub\n        /* \"https://github.com/OpenZeppelin/openzeppelin-contracts/blob/master/contracts/utils/cryptography/ECDSA.sol\":7458:7806  if (error == RecoverError.InvalidSignature) {... */\n      tag_144\n      jumpi\n        /* \"https://github.com/OpenZeppelin/openzeppelin-contracts/blob/master/contracts/utils/cryptography/ECDSA.sol\":7523:7546  ECDSAInvalidSignature() */\n      mload(0x40)\n      0xf645eedf00000000000000000000000000000000000000000000000000000000\n      dup2\n      mstore\n      0x04\n      add\n      mload(0x40)\n      dup1\n      swap2\n      sub\n      swap1\n      revert\n        /* \"https://github.com/OpenZeppelin/openzeppelin-contracts/blob/master/contracts/utils/cryptography/ECDSA.sol\":7458:7806  if (error == RecoverError.InvalidSignature) {... */\n    tag_144:\n        /* \"https://github.com/OpenZeppelin/openzeppelin-contracts/blob/master/contracts/utils/cryptography/ECDSA.sol\":7576:7611  RecoverError.InvalidSignatureLength */\n      0x02\n        /* \"https://github.com/OpenZeppelin/openzeppelin-contracts/blob/master/contracts/utils/cryptography/ECDSA.sol\":7567:7611  error == RecoverError.InvalidSignatureLength */\n      0x03\n      dup2\n      gt\n      iszero\n      tag_146\n      jumpi\n      tag_147\n      tag_135\n      jump\t// in\n    tag_147:\n    tag_146:\n        /* \"https://github.com/OpenZeppelin/openzeppelin-contracts/blob/master/contracts/utils/cryptography/ECDSA.sol\":7567:7572  error */\n      dup3\n        /* \"https://github.com/OpenZeppelin/openzeppelin-contracts/blob/master/contracts/utils/cryptography/ECDSA.sol\":7567:7611  error == RecoverError.InvalidSignatureLength */\n      0x03\n      dup2\n      gt\n      iszero\n      tag_148\n      jumpi\n      tag_149\n      tag_135\n      jump\t// in\n    tag_149:\n    tag_148:\n      sub\n        /* \"https://github.com/OpenZeppelin/openzeppelin-contracts/blob/master/contracts/utils/cryptography/ECDSA.sol\":7563:7806  if (error == RecoverError.InvalidSignatureLength) {... */\n      tag_150\n      jumpi\n        /* \"https://github.com/OpenZeppelin/openzeppelin-contracts/blob/master/contracts/utils/cryptography/ECDSA.sol\":7670:7678  errorArg */\n      dup1\n        /* \"https://github.com/OpenZeppelin/openzeppelin-contracts/blob/master/contracts/utils/cryptography/ECDSA.sol\":7662:7679  uint256(errorArg) */\n      0x00\n      shr\n        /* \"https://github.com/OpenZeppelin/openzeppelin-contracts/blob/master/contracts/utils/cryptography/ECDSA.sol\":7634:7680  ECDSAInvalidSignatureLength(uint256(errorArg)) */\n      mload(0x40)\n      0xfce698f700000000000000000000000000000000000000000000000000000000\n      dup2\n      mstore\n      0x04\n      add\n      tag_151\n      swap2\n      swap1\n      tag_24\n      jump\t// in\n    tag_151:\n      mload(0x40)\n      dup1\n      swap2\n      sub\n      swap1\n      revert\n        /* \"https://github.com/OpenZeppelin/openzeppelin-contracts/blob/master/contracts/utils/cryptography/ECDSA.sol\":7563:7806  if (error == RecoverError.InvalidSignatureLength) {... */\n    tag_150:\n        /* \"https://github.com/OpenZeppelin/openzeppelin-contracts/blob/master/contracts/utils/cryptography/ECDSA.sol\":7710:7740  RecoverError.InvalidSignatureS */\n      0x03\n        /* \"https://github.com/OpenZeppelin/openzeppelin-contracts/blob/master/contracts/utils/cryptography/ECDSA.sol\":7701:7740  error == RecoverError.InvalidSignatureS */\n      dup1\n      dup2\n      gt\n      iszero\n      tag_153\n      jumpi\n      tag_154\n      tag_135\n      jump\t// in\n    tag_154:\n    tag_153:\n        /* \"https://github.com/OpenZeppelin/openzeppelin-contracts/blob/master/contracts/utils/cryptography/ECDSA.sol\":7701:7706  error */\n      dup3\n        /* \"https://github.com/OpenZeppelin/openzeppelin-contracts/blob/master/contracts/utils/cryptography/ECDSA.sol\":7701:7740  error == RecoverError.InvalidSignatureS */\n      0x03\n      dup2\n      gt\n      iszero\n      tag_155\n      jumpi\n      tag_156\n      tag_135\n      jump\t// in\n    tag_156:\n    tag_155:\n      sub\n        /* \"https://github.com/OpenZeppelin/openzeppelin-contracts/blob/master/contracts/utils/cryptography/ECDSA.sol\":7697:7806  if (error == RecoverError.InvalidSignatureS) {... */\n      tag_157\n      jumpi\n        /* \"https://github.com/OpenZeppelin/openzeppelin-contracts/blob/master/contracts/utils/cryptography/ECDSA.sol\":7786:7794  errorArg */\n      dup1\n        /* \"https://github.com/OpenZeppelin/openzeppelin-contracts/blob/master/contracts/utils/cryptography/ECDSA.sol\":7763:7795  ECDSAInvalidSignatureS(errorArg) */\n      mload(0x40)\n      0xd78bce0c00000000000000000000000000000000000000000000000000000000\n      dup2\n      mstore\n      0x04\n      add\n      tag_158\n      swap2\n      swap1\n      tag_159\n      jump\t// in\n    tag_158:\n      mload(0x40)\n      dup1\n      swap2\n      sub\n      swap1\n      revert\n        /* \"https://github.com/OpenZeppelin/openzeppelin-contracts/blob/master/contracts/utils/cryptography/ECDSA.sol\":7697:7806  if (error == RecoverError.InvalidSignatureS) {... */\n    tag_157:\n        /* \"https://github.com/OpenZeppelin/openzeppelin-contracts/blob/master/contracts/utils/cryptography/ECDSA.sol\":7280:7812  function _throwError(RecoverError error, bytes32 errorArg) private pure {... */\n    tag_132:\n      pop\n      pop\n      jump\t// out\n        /* \"https://github.com/OpenZeppelin/openzeppelin-contracts/blob/master/contracts/utils/cryptography/ECDSA.sol\":5203:6754  function tryRecover(... */\n    tag_130:\n        /* \"https://github.com/OpenZeppelin/openzeppelin-contracts/blob/master/contracts/utils/cryptography/ECDSA.sol\":5329:5346  address recovered */\n      0x00\n        /* \"https://github.com/OpenZeppelin/openzeppelin-contracts/blob/master/contracts/utils/cryptography/ECDSA.sol\":5348:5364  RecoverError err */\n      dup1\n        /* \"https://github.com/OpenZeppelin/openzeppelin-contracts/blob/master/contracts/utils/cryptography/ECDSA.sol\":5366:5380  bytes32 errArg */\n      0x00\n        /* \"https://github.com/OpenZeppelin/openzeppelin-contracts/blob/master/contracts/utils/cryptography/ECDSA.sol\":6283:6349  0x7FFFFFFFFFFFFFFFFFFFFFFFFFFFFFFF5D576E7357A4501DDFE92F46681B20A0 */\n      0x7fffffffffffffffffffffffffffffff5d576e7357a4501ddfe92f46681b20a0\n        /* \"https://github.com/OpenZeppelin/openzeppelin-contracts/blob/master/contracts/utils/cryptography/ECDSA.sol\":6278:6279  s */\n      dup5\n        /* \"https://github.com/OpenZeppelin/openzeppelin-contracts/blob/master/contracts/utils/cryptography/ECDSA.sol\":6270:6280  uint256(s) */\n      0x00\n      shr\n        /* \"https://github.com/OpenZeppelin/openzeppelin-contracts/blob/master/contracts/utils/cryptography/ECDSA.sol\":6270:6349  uint256(s) > 0x7FFFFFFFFFFFFFFFFFFFFFFFFFFFFFFF5D576E7357A4501DDFE92F46681B20A0 */\n      gt\n        /* \"https://github.com/OpenZeppelin/openzeppelin-contracts/blob/master/contracts/utils/cryptography/ECDSA.sol\":6266:6430  if (uint256(s) > 0x7FFFFFFFFFFFFFFFFFFFFFFFFFFFFFFF5D576E7357A4501DDFE92F46681B20A0) {... */\n      iszero\n      tag_161\n      jumpi\n        /* \"https://github.com/OpenZeppelin/openzeppelin-contracts/blob/master/contracts/utils/cryptography/ECDSA.sol\":6381:6382  0 */\n      0x00\n        /* \"https://github.com/OpenZeppelin/openzeppelin-contracts/blob/master/contracts/utils/cryptography/ECDSA.sol\":6385:6415  RecoverError.InvalidSignatureS */\n      0x03\n        /* \"https://github.com/OpenZeppelin/openzeppelin-contracts/blob/master/contracts/utils/cryptography/ECDSA.sol\":6417:6418  s */\n      dup6\n        /* \"https://github.com/OpenZeppelin/openzeppelin-contracts/blob/master/contracts/utils/cryptography/ECDSA.sol\":6365:6419  return (address(0), RecoverError.InvalidSignatureS, s) */\n      swap3\n      pop\n      swap3\n      pop\n      swap3\n      pop\n      jump(tag_160)\n        /* \"https://github.com/OpenZeppelin/openzeppelin-contracts/blob/master/contracts/utils/cryptography/ECDSA.sol\":6266:6430  if (uint256(s) > 0x7FFFFFFFFFFFFFFFFFFFFFFFFFFFFFFF5D576E7357A4501DDFE92F46681B20A0) {... */\n    tag_161:\n        /* \"https://github.com/OpenZeppelin/openzeppelin-contracts/blob/master/contracts/utils/cryptography/ECDSA.sol\":6524:6538  address signer */\n      0x00\n        /* \"https://github.com/OpenZeppelin/openzeppelin-contracts/blob/master/contracts/utils/cryptography/ECDSA.sol\":6541:6565  ecrecover(hash, v, r, s) */\n      0x01\n        /* \"https://github.com/OpenZeppelin/openzeppelin-contracts/blob/master/contracts/utils/cryptography/ECDSA.sol\":6551:6555  hash */\n      dup9\n        /* \"https://github.com/OpenZeppelin/openzeppelin-contracts/blob/master/contracts/utils/cryptography/ECDSA.sol\":6557:6558  v */\n      dup9\n        /* \"https://github.com/OpenZeppelin/openzeppelin-contracts/blob/master/contracts/utils/cryptography/ECDSA.sol\":6560:6561  r */\n      dup9\n        /* \"https://github.com/OpenZeppelin/openzeppelin-contracts/blob/master/contracts/utils/cryptography/ECDSA.sol\":6563:6564  s */\n      dup9\n        /* \"https://github.com/OpenZeppelin/openzeppelin-contracts/blob/master/contracts/utils/cryptography/ECDSA.sol\":6541:6565  ecrecover(hash, v, r, s) */\n      mload(0x40)\n      0x00\n      dup2\n      mstore\n      0x20\n      add\n      0x40\n      mstore\n      mload(0x40)\n      tag_162\n      swap5\n      swap4\n      swap3\n      swap2\n      swap1\n      tag_163\n      jump\t// in\n    tag_162:\n      0x20\n      mload(0x40)\n      0x20\n      dup2\n      sub\n      swap1\n      dup1\n      dup5\n      sub\n      swap1\n      dup6\n      gas\n      staticcall\n      iszero\n      dup1\n      iszero\n      tag_165\n      jumpi\n      returndatasize\n      0x00\n      dup1\n      returndatacopy\n      revert(0x00, returndatasize)\n    tag_165:\n      pop\n      pop\n      pop\n      mload(sub(mload(0x40), 0x20))\n        /* \"https://github.com/OpenZeppelin/openzeppelin-contracts/blob/master/contracts/utils/cryptography/ECDSA.sol\":6524:6565  address signer = ecrecover(hash, v, r, s) */\n      swap1\n      pop\n        /* \"https://github.com/OpenZeppelin/openzeppelin-contracts/blob/master/contracts/utils/cryptography/ECDSA.sol\":6597:6598  0 */\n      0x00\n        /* \"https://github.com/OpenZeppelin/openzeppelin-contracts/blob/master/contracts/utils/cryptography/ECDSA.sol\":6579:6599  signer == address(0) */\n      0xffffffffffffffffffffffffffffffffffffffff\n      and\n        /* \"https://github.com/OpenZeppelin/openzeppelin-contracts/blob/master/contracts/utils/cryptography/ECDSA.sol\":6579:6585  signer */\n      dup2\n        /* \"https://github.com/OpenZeppelin/openzeppelin-contracts/blob/master/contracts/utils/cryptography/ECDSA.sol\":6579:6599  signer == address(0) */\n      0xffffffffffffffffffffffffffffffffffffffff\n      and\n      sub\n        /* \"https://github.com/OpenZeppelin/openzeppelin-contracts/blob/master/contracts/utils/cryptography/ECDSA.sol\":6575:6688  if (signer == address(0)) {... */\n      tag_166\n      jumpi\n        /* \"https://github.com/OpenZeppelin/openzeppelin-contracts/blob/master/contracts/utils/cryptography/ECDSA.sol\":6631:6632  0 */\n      0x00\n        /* \"https://github.com/OpenZeppelin/openzeppelin-contracts/blob/master/contracts/utils/cryptography/ECDSA.sol\":6635:6664  RecoverError.InvalidSignature */\n      0x01\n        /* \"https://github.com/OpenZeppelin/openzeppelin-contracts/blob/master/contracts/utils/cryptography/ECDSA.sol\":6674:6675  0 */\n      0x00\n        /* \"https://github.com/OpenZeppelin/openzeppelin-contracts/blob/master/contracts/utils/cryptography/ECDSA.sol\":6666:6676  bytes32(0) */\n      dup1\n      shl\n        /* \"https://github.com/OpenZeppelin/openzeppelin-contracts/blob/master/contracts/utils/cryptography/ECDSA.sol\":6615:6677  return (address(0), RecoverError.InvalidSignature, bytes32(0)) */\n      swap4\n      pop\n      swap4\n      pop\n      swap4\n      pop\n      pop\n      jump(tag_160)\n        /* \"https://github.com/OpenZeppelin/openzeppelin-contracts/blob/master/contracts/utils/cryptography/ECDSA.sol\":6575:6688  if (signer == address(0)) {... */\n    tag_166:\n        /* \"https://github.com/OpenZeppelin/openzeppelin-contracts/blob/master/contracts/utils/cryptography/ECDSA.sol\":6706:6712  signer */\n      dup1\n        /* \"https://github.com/OpenZeppelin/openzeppelin-contracts/blob/master/contracts/utils/cryptography/ECDSA.sol\":6714:6734  RecoverError.NoError */\n      0x00\n        /* \"https://github.com/OpenZeppelin/openzeppelin-contracts/blob/master/contracts/utils/cryptography/ECDSA.sol\":6744:6745  0 */\n      dup1\n        /* \"https://github.com/OpenZeppelin/openzeppelin-contracts/blob/master/contracts/utils/cryptography/ECDSA.sol\":6736:6746  bytes32(0) */\n      0x00\n      shl\n        /* \"https://github.com/OpenZeppelin/openzeppelin-contracts/blob/master/contracts/utils/cryptography/ECDSA.sol\":6698:6747  return (signer, RecoverError.NoError, bytes32(0)) */\n      swap4\n      pop\n      swap4\n      pop\n      swap4\n      pop\n      pop\n        /* \"https://github.com/OpenZeppelin/openzeppelin-contracts/blob/master/contracts/utils/cryptography/ECDSA.sol\":5203:6754  function tryRecover(... */\n    tag_160:\n      swap5\n      pop\n      swap5\n      pop\n      swap5\n      swap2\n      pop\n      pop\n      jump\t// out\n        /* \"#utility.yul\":7:133   */\n    tag_167:\n        /* \"#utility.yul\":44:51   */\n      0x00\n        /* \"#utility.yul\":84:126   */\n      0xffffffffffffffffffffffffffffffffffffffff\n        /* \"#utility.yul\":77:82   */\n      dup3\n        /* \"#utility.yul\":73:127   */\n      and\n        /* \"#utility.yul\":62:127   */\n      swap1\n      pop\n        /* \"#utility.yul\":7:133   */\n      swap2\n      swap1\n      pop\n      jump\t// out\n        /* \"#utility.yul\":139:199   */\n    tag_168:\n        /* \"#utility.yul\":167:170   */\n      0x00\n        /* \"#utility.yul\":188:193   */\n      dup2\n        /* \"#utility.yul\":181:193   */\n      swap1\n      pop\n        /* \"#utility.yul\":139:199   */\n      swap2\n      swap1\n      pop\n      jump\t// out\n        /* \"#utility.yul\":205:347   */\n    tag_169:\n        /* \"#utility.yul\":255:264   */\n      0x00\n        /* \"#utility.yul\":288:341   */\n      tag_230\n        /* \"#utility.yul\":306:340   */\n      tag_231\n        /* \"#utility.yul\":315:339   */\n      tag_232\n        /* \"#utility.yul\":333:338   */\n      dup5\n        /* \"#utility.yul\":315:339   */\n      tag_167\n      jump\t// in\n    tag_232:\n        /* \"#utility.yul\":306:340   */\n      tag_168\n      jump\t// in\n    tag_231:\n        /* \"#utility.yul\":288:341   */\n      tag_167\n      jump\t// in\n    tag_230:\n        /* \"#utility.yul\":275:341   */\n      swap1\n      pop\n        /* \"#utility.yul\":205:347   */\n      swap2\n      swap1\n      pop\n      jump\t// out\n        /* \"#utility.yul\":353:479   */\n    tag_170:\n        /* \"#utility.yul\":403:412   */\n      0x00\n        /* \"#utility.yul\":436:473   */\n      tag_234\n        /* \"#utility.yul\":467:472   */\n      dup3\n        /* \"#utility.yul\":436:473   */\n      tag_169\n      jump\t// in\n    tag_234:\n        /* \"#utility.yul\":423:473   */\n      swap1\n      pop\n        /* \"#utility.yul\":353:479   */\n      swap2\n      swap1\n      pop\n      jump\t// out\n        /* \"#utility.yul\":485:625   */\n    tag_171:\n        /* \"#utility.yul\":549:558   */\n      0x00\n        /* \"#utility.yul\":582:619   */\n      tag_236\n        /* \"#utility.yul\":613:618   */\n      dup3\n        /* \"#utility.yul\":582:619   */\n      tag_170\n      jump\t// in\n    tag_236:\n        /* \"#utility.yul\":569:619   */\n      swap1\n      pop\n        /* \"#utility.yul\":485:625   */\n      swap2\n      swap1\n      pop\n      jump\t// out\n        /* \"#utility.yul\":631:790   */\n    tag_172:\n        /* \"#utility.yul\":732:783   */\n      tag_238\n        /* \"#utility.yul\":777:782   */\n      dup2\n        /* \"#utility.yul\":732:783   */\n      tag_171\n      jump\t// in\n    tag_238:\n        /* \"#utility.yul\":727:730   */\n      dup3\n        /* \"#utility.yul\":720:784   */\n      mstore\n        /* \"#utility.yul\":631:790   */\n      pop\n      pop\n      jump\t// out\n        /* \"#utility.yul\":796:1046   */\n    tag_16:\n        /* \"#utility.yul\":903:907   */\n      0x00\n        /* \"#utility.yul\":941:943   */\n      0x20\n        /* \"#utility.yul\":930:939   */\n      dup3\n        /* \"#utility.yul\":926:944   */\n      add\n        /* \"#utility.yul\":918:944   */\n      swap1\n      pop\n        /* \"#utility.yul\":954:1039   */\n      tag_240\n        /* \"#utility.yul\":1036:1037   */\n      0x00\n        /* \"#utility.yul\":1025:1034   */\n      dup4\n        /* \"#utility.yul\":1021:1038   */\n      add\n        /* \"#utility.yul\":1012:1018   */\n      dup5\n        /* \"#utility.yul\":954:1039   */\n      tag_172\n      jump\t// in\n    tag_240:\n        /* \"#utility.yul\":796:1046   */\n      swap3\n      swap2\n      pop\n      pop\n      jump\t// out\n        /* \"#utility.yul\":1052:1127   */\n    tag_173:\n        /* \"#utility.yul\":1085:1091   */\n      0x00\n        /* \"#utility.yul\":1118:1120   */\n      0x40\n        /* \"#utility.yul\":1112:1121   */\n      mload\n        /* \"#utility.yul\":1102:1121   */\n      swap1\n      pop\n        /* \"#utility.yul\":1052:1127   */\n      swap1\n      jump\t// out\n        /* \"#utility.yul\":1133:1250   */\n    tag_174:\n        /* \"#utility.yul\":1242:1243   */\n      0x00\n        /* \"#utility.yul\":1239:1240   */\n      dup1\n        /* \"#utility.yul\":1232:1244   */\n      revert\n        /* \"#utility.yul\":1256:1373   */\n    tag_175:\n        /* \"#utility.yul\":1365:1366   */\n      0x00\n        /* \"#utility.yul\":1362:1363   */\n      dup1\n        /* \"#utility.yul\":1355:1367   */\n      revert\n        /* \"#utility.yul\":1379:1456   */\n    tag_176:\n        /* \"#utility.yul\":1416:1423   */\n      0x00\n        /* \"#utility.yul\":1445:1450   */\n      dup2\n        /* \"#utility.yul\":1434:1450   */\n      swap1\n      pop\n        /* \"#utility.yul\":1379:1456   */\n      swap2\n      swap1\n      pop\n      jump\t// out\n        /* \"#utility.yul\":1462:1584   */\n    tag_177:\n        /* \"#utility.yul\":1535:1559   */\n      tag_246\n        /* \"#utility.yul\":1553:1558   */\n      dup2\n        /* \"#utility.yul\":1535:1559   */\n      tag_176\n      jump\t// in\n    tag_246:\n        /* \"#utility.yul\":1528:1533   */\n      dup2\n        /* \"#utility.yul\":1525:1560   */\n      eq\n        /* \"#utility.yul\":1515:1578   */\n      tag_247\n      jumpi\n        /* \"#utility.yul\":1574:1575   */\n      0x00\n        /* \"#utility.yul\":1571:1572   */\n      dup1\n        /* \"#utility.yul\":1564:1576   */\n      revert\n        /* \"#utility.yul\":1515:1578   */\n    tag_247:\n        /* \"#utility.yul\":1462:1584   */\n      pop\n      jump\t// out\n        /* \"#utility.yul\":1590:1729   */\n    tag_178:\n        /* \"#utility.yul\":1636:1641   */\n      0x00\n        /* \"#utility.yul\":1674:1680   */\n      dup2\n        /* \"#utility.yul\":1661:1681   */\n      calldataload\n        /* \"#utility.yul\":1652:1681   */\n      swap1\n      pop\n        /* \"#utility.yul\":1690:1723   */\n      tag_249\n        /* \"#utility.yul\":1717:1722   */\n      dup2\n        /* \"#utility.yul\":1690:1723   */\n      tag_177\n      jump\t// in\n    tag_249:\n        /* \"#utility.yul\":1590:1729   */\n      swap3\n      swap2\n      pop\n      pop\n      jump\t// out\n        /* \"#utility.yul\":1735:2064   */\n    tag_19:\n        /* \"#utility.yul\":1794:1800   */\n      0x00\n        /* \"#utility.yul\":1843:1845   */\n      0x20\n        /* \"#utility.yul\":1831:1840   */\n      dup3\n        /* \"#utility.yul\":1822:1829   */\n      dup5\n        /* \"#utility.yul\":1818:1841   */\n      sub\n        /* \"#utility.yul\":1814:1846   */\n      slt\n        /* \"#utility.yul\":1811:1930   */\n      iszero\n      tag_251\n      jumpi\n        /* \"#utility.yul\":1849:1928   */\n      tag_252\n      tag_174\n      jump\t// in\n    tag_252:\n        /* \"#utility.yul\":1811:1930   */\n    tag_251:\n        /* \"#utility.yul\":1969:1970   */\n      0x00\n        /* \"#utility.yul\":1994:2047   */\n      tag_253\n        /* \"#utility.yul\":2039:2046   */\n      dup5\n        /* \"#utility.yul\":2030:2036   */\n      dup3\n        /* \"#utility.yul\":2019:2028   */\n      dup6\n        /* \"#utility.yul\":2015:2037   */\n      add\n        /* \"#utility.yul\":1994:2047   */\n      tag_178\n      jump\t// in\n    tag_253:\n        /* \"#utility.yul\":1984:2047   */\n      swap2\n      pop\n        /* \"#utility.yul\":1940:2057   */\n      pop\n        /* \"#utility.yul\":1735:2064   */\n      swap3\n      swap2\n      pop\n      pop\n      jump\t// out\n        /* \"#utility.yul\":2070:2188   */\n    tag_179:\n        /* \"#utility.yul\":2157:2181   */\n      tag_255\n        /* \"#utility.yul\":2175:2180   */\n      dup2\n        /* \"#utility.yul\":2157:2181   */\n      tag_176\n      jump\t// in\n    tag_255:\n        /* \"#utility.yul\":2152:2155   */\n      dup3\n        /* \"#utility.yul\":2145:2182   */\n      mstore\n        /* \"#utility.yul\":2070:2188   */\n      pop\n      pop\n      jump\t// out\n        /* \"#utility.yul\":2194:2416   */\n    tag_24:\n        /* \"#utility.yul\":2287:2291   */\n      0x00\n        /* \"#utility.yul\":2325:2327   */\n      0x20\n        /* \"#utility.yul\":2314:2323   */\n      dup3\n        /* \"#utility.yul\":2310:2328   */\n      add\n        /* \"#utility.yul\":2302:2328   */\n      swap1\n      pop\n        /* \"#utility.yul\":2338:2409   */\n      tag_257\n        /* \"#utility.yul\":2406:2407   */\n      0x00\n        /* \"#utility.yul\":2395:2404   */\n      dup4\n        /* \"#utility.yul\":2391:2408   */\n      add\n        /* \"#utility.yul\":2382:2388   */\n      dup5\n        /* \"#utility.yul\":2338:2409   */\n      tag_179\n      jump\t// in\n    tag_257:\n        /* \"#utility.yul\":2194:2416   */\n      swap3\n      swap2\n      pop\n      pop\n      jump\t// out\n        /* \"#utility.yul\":2422:2518   */\n    tag_180:\n        /* \"#utility.yul\":2459:2466   */\n      0x00\n        /* \"#utility.yul\":2488:2512   */\n      tag_259\n        /* \"#utility.yul\":2506:2511   */\n      dup3\n        /* \"#utility.yul\":2488:2512   */\n      tag_167\n      jump\t// in\n    tag_259:\n        /* \"#utility.yul\":2477:2512   */\n      swap1\n      pop\n        /* \"#utility.yul\":2422:2518   */\n      swap2\n      swap1\n      pop\n      jump\t// out\n        /* \"#utility.yul\":2524:2646   */\n    tag_181:\n        /* \"#utility.yul\":2597:2621   */\n      tag_261\n        /* \"#utility.yul\":2615:2620   */\n      dup2\n        /* \"#utility.yul\":2597:2621   */\n      tag_180\n      jump\t// in\n    tag_261:\n        /* \"#utility.yul\":2590:2595   */\n      dup2\n        /* \"#utility.yul\":2587:2622   */\n      eq\n        /* \"#utility.yul\":2577:2640   */\n      tag_262\n      jumpi\n        /* \"#utility.yul\":2636:2637   */\n      0x00\n        /* \"#utility.yul\":2633:2634   */\n      dup1\n        /* \"#utility.yul\":2626:2638   */\n      revert\n        /* \"#utility.yul\":2577:2640   */\n    tag_262:\n        /* \"#utility.yul\":2524:2646   */\n      pop\n      jump\t// out\n        /* \"#utility.yul\":2652:2791   */\n    tag_182:\n        /* \"#utility.yul\":2698:2703   */\n      0x00\n        /* \"#utility.yul\":2736:2742   */\n      dup2\n        /* \"#utility.yul\":2723:2743   */\n      calldataload\n        /* \"#utility.yul\":2714:2743   */\n      swap1\n      pop\n        /* \"#utility.yul\":2752:2785   */\n      tag_264\n        /* \"#utility.yul\":2779:2784   */\n      dup2\n        /* \"#utility.yul\":2752:2785   */\n      tag_181\n      jump\t// in\n    tag_264:\n        /* \"#utility.yul\":2652:2791   */\n      swap3\n      swap2\n      pop\n      pop\n      jump\t// out\n        /* \"#utility.yul\":2797:2914   */\n    tag_183:\n        /* \"#utility.yul\":2906:2907   */\n      0x00\n        /* \"#utility.yul\":2903:2904   */\n      dup1\n        /* \"#utility.yul\":2896:2908   */\n      revert\n        /* \"#utility.yul\":2920:3037   */\n    tag_184:\n        /* \"#utility.yul\":3029:3030   */\n      0x00\n        /* \"#utility.yul\":3026:3027   */\n      dup1\n        /* \"#utility.yul\":3019:3031   */\n      revert\n        /* \"#utility.yul\":3043:3145   */\n    tag_185:\n        /* \"#utility.yul\":3084:3090   */\n      0x00\n        /* \"#utility.yul\":3135:3137   */\n      0x1f\n        /* \"#utility.yul\":3131:3138   */\n      not\n        /* \"#utility.yul\":3126:3128   */\n      0x1f\n        /* \"#utility.yul\":3119:3124   */\n      dup4\n        /* \"#utility.yul\":3115:3129   */\n      add\n        /* \"#utility.yul\":3111:3139   */\n      and\n        /* \"#utility.yul\":3101:3139   */\n      swap1\n      pop\n        /* \"#utility.yul\":3043:3145   */\n      swap2\n      swap1\n      pop\n      jump\t// out\n        /* \"#utility.yul\":3151:3331   */\n    tag_186:\n        /* \"#utility.yul\":3199:3276   */\n      0x4e487b7100000000000000000000000000000000000000000000000000000000\n        /* \"#utility.yul\":3196:3197   */\n      0x00\n        /* \"#utility.yul\":3189:3277   */\n      mstore\n        /* \"#utility.yul\":3296:3300   */\n      0x41\n        /* \"#utility.yul\":3293:3294   */\n      0x04\n        /* \"#utility.yul\":3286:3301   */\n      mstore\n        /* \"#utility.yul\":3320:3324   */\n      0x24\n        /* \"#utility.yul\":3317:3318   */\n      0x00\n        /* \"#utility.yul\":3310:3325   */\n      revert\n        /* \"#utility.yul\":3337:3618   */\n    tag_187:\n        /* \"#utility.yul\":3420:3447   */\n      tag_270\n        /* \"#utility.yul\":3442:3446   */\n      dup3\n        /* \"#utility.yul\":3420:3447   */\n      tag_185\n      jump\t// in\n    tag_270:\n        /* \"#utility.yul\":3412:3418   */\n      dup2\n        /* \"#utility.yul\":3408:3448   */\n      add\n        /* \"#utility.yul\":3550:3556   */\n      dup2\n        /* \"#utility.yul\":3538:3548   */\n      dup2\n        /* \"#utility.yul\":3535:3557   */\n      lt\n        /* \"#utility.yul\":3514:3532   */\n      0xffffffffffffffff\n        /* \"#utility.yul\":3502:3512   */\n      dup3\n        /* \"#utility.yul\":3499:3533   */\n      gt\n        /* \"#utility.yul\":3496:3558   */\n      or\n        /* \"#utility.yul\":3493:3581   */\n      iszero\n      tag_271\n      jumpi\n        /* \"#utility.yul\":3561:3579   */\n      tag_272\n      tag_186\n      jump\t// in\n    tag_272:\n        /* \"#utility.yul\":3493:3581   */\n    tag_271:\n        /* \"#utility.yul\":3601:3611   */\n      dup1\n        /* \"#utility.yul\":3597:3599   */\n      0x40\n        /* \"#utility.yul\":3590:3612   */\n      mstore\n        /* \"#utility.yul\":3380:3618   */\n      pop\n        /* \"#utility.yul\":3337:3618   */\n      pop\n      pop\n      jump\t// out\n        /* \"#utility.yul\":3624:3753   */\n    tag_188:\n        /* \"#utility.yul\":3658:3664   */\n      0x00\n        /* \"#utility.yul\":3685:3705   */\n      tag_274\n      tag_173\n      jump\t// in\n    tag_274:\n        /* \"#utility.yul\":3675:3705   */\n      swap1\n      pop\n        /* \"#utility.yul\":3714:3747   */\n      tag_275\n        /* \"#utility.yul\":3742:3746   */\n      dup3\n        /* \"#utility.yul\":3734:3740   */\n      dup3\n        /* \"#utility.yul\":3714:3747   */\n      tag_187\n      jump\t// in\n    tag_275:\n        /* \"#utility.yul\":3624:3753   */\n      swap2\n      swap1\n      pop\n      jump\t// out\n        /* \"#utility.yul\":3759:4066   */\n    tag_189:\n        /* \"#utility.yul\":3820:3824   */\n      0x00\n        /* \"#utility.yul\":3910:3928   */\n      0xffffffffffffffff\n        /* \"#utility.yul\":3902:3908   */\n      dup3\n        /* \"#utility.yul\":3899:3929   */\n      gt\n        /* \"#utility.yul\":3896:3952   */\n      iszero\n      tag_277\n      jumpi\n        /* \"#utility.yul\":3932:3950   */\n      tag_278\n      tag_186\n      jump\t// in\n    tag_278:\n        /* \"#utility.yul\":3896:3952   */\n    tag_277:\n        /* \"#utility.yul\":3970:3999   */\n      tag_279\n        /* \"#utility.yul\":3992:3998   */\n      dup3\n        /* \"#utility.yul\":3970:3999   */\n      tag_185\n      jump\t// in\n    tag_279:\n        /* \"#utility.yul\":3962:3999   */\n      swap1\n      pop\n        /* \"#utility.yul\":4054:4058   */\n      0x20\n        /* \"#utility.yul\":4048:4052   */\n      dup2\n        /* \"#utility.yul\":4044:4059   */\n      add\n        /* \"#utility.yul\":4036:4059   */\n      swap1\n      pop\n        /* \"#utility.yul\":3759:4066   */\n      swap2\n      swap1\n      pop\n      jump\t// out\n        /* \"#utility.yul\":4072:4220   */\n    tag_190:\n        /* \"#utility.yul\":4170:4176   */\n      dup3\n        /* \"#utility.yul\":4165:4168   */\n      dup2\n        /* \"#utility.yul\":4160:4163   */\n      dup4\n        /* \"#utility.yul\":4147:4177   */\n      calldatacopy\n        /* \"#utility.yul\":4211:4212   */\n      0x00\n        /* \"#utility.yul\":4202:4208   */\n      dup4\n        /* \"#utility.yul\":4197:4200   */\n      dup4\n        /* \"#utility.yul\":4193:4209   */\n      add\n        /* \"#utility.yul\":4186:4213   */\n      mstore\n        /* \"#utility.yul\":4072:4220   */\n      pop\n      pop\n      pop\n      jump\t// out\n        /* \"#utility.yul\":4226:4649   */\n    tag_191:\n        /* \"#utility.yul\":4303:4308   */\n      0x00\n        /* \"#utility.yul\":4328:4393   */\n      tag_282\n        /* \"#utility.yul\":4344:4392   */\n      tag_283\n        /* \"#utility.yul\":4385:4391   */\n      dup5\n        /* \"#utility.yul\":4344:4392   */\n      tag_189\n      jump\t// in\n    tag_283:\n        /* \"#utility.yul\":4328:4393   */\n      tag_188\n      jump\t// in\n    tag_282:\n        /* \"#utility.yul\":4319:4393   */\n      swap1\n      pop\n        /* \"#utility.yul\":4416:4422   */\n      dup3\n        /* \"#utility.yul\":4409:4414   */\n      dup2\n        /* \"#utility.yul\":4402:4423   */\n      mstore\n        /* \"#utility.yul\":4454:4458   */\n      0x20\n        /* \"#utility.yul\":4447:4452   */\n      dup2\n        /* \"#utility.yul\":4443:4459   */\n      add\n        /* \"#utility.yul\":4492:4495   */\n      dup5\n        /* \"#utility.yul\":4483:4489   */\n      dup5\n        /* \"#utility.yul\":4478:4481   */\n      dup5\n        /* \"#utility.yul\":4474:4490   */\n      add\n        /* \"#utility.yul\":4471:4496   */\n      gt\n        /* \"#utility.yul\":4468:4580   */\n      iszero\n      tag_284\n      jumpi\n        /* \"#utility.yul\":4499:4578   */\n      tag_285\n      tag_184\n      jump\t// in\n    tag_285:\n        /* \"#utility.yul\":4468:4580   */\n    tag_284:\n        /* \"#utility.yul\":4589:4643   */\n      tag_286\n        /* \"#utility.yul\":4636:4642   */\n      dup5\n        /* \"#utility.yul\":4631:4634   */\n      dup3\n        /* \"#utility.yul\":4626:4629   */\n      dup6\n        /* \"#utility.yul\":4589:4643   */\n      tag_190\n      jump\t// in\n    tag_286:\n        /* \"#utility.yul\":4309:4649   */\n      pop\n        /* \"#utility.yul\":4226:4649   */\n      swap4\n      swap3\n      pop\n      pop\n      pop\n      jump\t// out\n        /* \"#utility.yul\":4668:5006   */\n    tag_192:\n        /* \"#utility.yul\":4723:4728   */\n      0x00\n        /* \"#utility.yul\":4772:4775   */\n      dup3\n        /* \"#utility.yul\":4765:4769   */\n      0x1f\n        /* \"#utility.yul\":4757:4763   */\n      dup4\n        /* \"#utility.yul\":4753:4770   */\n      add\n        /* \"#utility.yul\":4749:4776   */\n      slt\n        /* \"#utility.yul\":4739:4861   */\n      tag_288\n      jumpi\n        /* \"#utility.yul\":4780:4859   */\n      tag_289\n      tag_183\n      jump\t// in\n    tag_289:\n        /* \"#utility.yul\":4739:4861   */\n    tag_288:\n        /* \"#utility.yul\":4897:4903   */\n      dup2\n        /* \"#utility.yul\":4884:4904   */\n      calldataload\n        /* \"#utility.yul\":4922:5000   */\n      tag_290\n        /* \"#utility.yul\":4996:4999   */\n      dup5\n        /* \"#utility.yul\":4988:4994   */\n      dup3\n        /* \"#utility.yul\":4981:4985   */\n      0x20\n        /* \"#utility.yul\":4973:4979   */\n      dup7\n        /* \"#utility.yul\":4969:4986   */\n      add\n        /* \"#utility.yul\":4922:5000   */\n      tag_191\n      jump\t// in\n    tag_290:\n        /* \"#utility.yul\":4913:5000   */\n      swap2\n      pop\n        /* \"#utility.yul\":4729:5006   */\n      pop\n        /* \"#utility.yul\":4668:5006   */\n      swap3\n      swap2\n      pop\n      pop\n      jump\t// out\n        /* \"#utility.yul\":5012:6101   */\n    tag_27:\n        /* \"#utility.yul\":5116:5122   */\n      0x00\n        /* \"#utility.yul\":5124:5130   */\n      dup1\n        /* \"#utility.yul\":5132:5138   */\n      0x00\n        /* \"#utility.yul\":5140:5146   */\n      dup1\n        /* \"#utility.yul\":5148:5154   */\n      0x00\n        /* \"#utility.yul\":5197:5200   */\n      0xa0\n        /* \"#utility.yul\":5185:5194   */\n      dup7\n        /* \"#utility.yul\":5176:5183   */\n      dup9\n        /* \"#utility.yul\":5172:5195   */\n      sub\n        /* \"#utility.yul\":5168:5201   */\n      slt\n        /* \"#utility.yul\":5165:5285   */\n      iszero\n      tag_292\n      jumpi\n        /* \"#utility.yul\":5204:5283   */\n      tag_293\n      tag_174\n      jump\t// in\n    tag_293:\n        /* \"#utility.yul\":5165:5285   */\n    tag_292:\n        /* \"#utility.yul\":5324:5325   */\n      0x00\n        /* \"#utility.yul\":5349:5402   */\n      tag_294\n        /* \"#utility.yul\":5394:5401   */\n      dup9\n        /* \"#utility.yul\":5385:5391   */\n      dup3\n        /* \"#utility.yul\":5374:5383   */\n      dup10\n        /* \"#utility.yul\":5370:5392   */\n      add\n        /* \"#utility.yul\":5349:5402   */\n      tag_182\n      jump\t// in\n    tag_294:\n        /* \"#utility.yul\":5339:5402   */\n      swap6\n      pop\n        /* \"#utility.yul\":5295:5412   */\n      pop\n        /* \"#utility.yul\":5451:5453   */\n      0x20\n        /* \"#utility.yul\":5477:5530   */\n      tag_295\n        /* \"#utility.yul\":5522:5529   */\n      dup9\n        /* \"#utility.yul\":5513:5519   */\n      dup3\n        /* \"#utility.yul\":5502:5511   */\n      dup10\n        /* \"#utility.yul\":5498:5520   */\n      add\n        /* \"#utility.yul\":5477:5530   */\n      tag_178\n      jump\t// in\n    tag_295:\n        /* \"#utility.yul\":5467:5530   */\n      swap5\n      pop\n        /* \"#utility.yul\":5422:5540   */\n      pop\n        /* \"#utility.yul\":5579:5581   */\n      0x40\n        /* \"#utility.yul\":5605:5658   */\n      tag_296\n        /* \"#utility.yul\":5650:5657   */\n      dup9\n        /* \"#utility.yul\":5641:5647   */\n      dup3\n        /* \"#utility.yul\":5630:5639   */\n      dup10\n        /* \"#utility.yul\":5626:5648   */\n      add\n        /* \"#utility.yul\":5605:5658   */\n      tag_178\n      jump\t// in\n    tag_296:\n        /* \"#utility.yul\":5595:5658   */\n      swap4\n      pop\n        /* \"#utility.yul\":5550:5668   */\n      pop\n        /* \"#utility.yul\":5707:5709   */\n      0x60\n        /* \"#utility.yul\":5733:5786   */\n      tag_297\n        /* \"#utility.yul\":5778:5785   */\n      dup9\n        /* \"#utility.yul\":5769:5775   */\n      dup3\n        /* \"#utility.yul\":5758:5767   */\n      dup10\n        /* \"#utility.yul\":5754:5776   */\n      add\n        /* \"#utility.yul\":5733:5786   */\n      tag_178\n      jump\t// in\n    tag_297:\n        /* \"#utility.yul\":5723:5786   */\n      swap3\n      pop\n        /* \"#utility.yul\":5678:5796   */\n      pop\n        /* \"#utility.yul\":5863:5866   */\n      0x80\n        /* \"#utility.yul\":5852:5861   */\n      dup7\n        /* \"#utility.yul\":5848:5867   */\n      add\n        /* \"#utility.yul\":5835:5868   */\n      calldataload\n        /* \"#utility.yul\":5895:5913   */\n      0xffffffffffffffff\n        /* \"#utility.yul\":5887:5893   */\n      dup2\n        /* \"#utility.yul\":5884:5914   */\n      gt\n        /* \"#utility.yul\":5881:5998   */\n      iszero\n      tag_298\n      jumpi\n        /* \"#utility.yul\":5917:5996   */\n      tag_299\n      tag_175\n      jump\t// in\n    tag_299:\n        /* \"#utility.yul\":5881:5998   */\n    tag_298:\n        /* \"#utility.yul\":6022:6084   */\n      tag_300\n        /* \"#utility.yul\":6076:6083   */\n      dup9\n        /* \"#utility.yul\":6067:6073   */\n      dup3\n        /* \"#utility.yul\":6056:6065   */\n      dup10\n        /* \"#utility.yul\":6052:6074   */\n      add\n        /* \"#utility.yul\":6022:6084   */\n      tag_192\n      jump\t// in\n    tag_300:\n        /* \"#utility.yul\":6012:6084   */\n      swap2\n      pop\n        /* \"#utility.yul\":5806:6094   */\n      pop\n        /* \"#utility.yul\":5012:6101   */\n      swap3\n      swap6\n      pop\n      swap3\n      swap6\n      swap1\n      swap4\n      pop\n      jump\t// out\n        /* \"#utility.yul\":6107:6436   */\n    tag_34:\n        /* \"#utility.yul\":6166:6172   */\n      0x00\n        /* \"#utility.yul\":6215:6217   */\n      0x20\n        /* \"#utility.yul\":6203:6212   */\n      dup3\n        /* \"#utility.yul\":6194:6201   */\n      dup5\n        /* \"#utility.yul\":6190:6213   */\n      sub\n        /* \"#utility.yul\":6186:6218   */\n      slt\n        /* \"#utility.yul\":6183:6302   */\n      iszero\n      tag_302\n      jumpi\n        /* \"#utility.yul\":6221:6300   */\n      tag_303\n      tag_174\n      jump\t// in\n    tag_303:\n        /* \"#utility.yul\":6183:6302   */\n    tag_302:\n        /* \"#utility.yul\":6341:6342   */\n      0x00\n        /* \"#utility.yul\":6366:6419   */\n      tag_304\n        /* \"#utility.yul\":6411:6418   */\n      dup5\n        /* \"#utility.yul\":6402:6408   */\n      dup3\n        /* \"#utility.yul\":6391:6400   */\n      dup6\n        /* \"#utility.yul\":6387:6409   */\n      add\n        /* \"#utility.yul\":6366:6419   */\n      tag_182\n      jump\t// in\n    tag_304:\n        /* \"#utility.yul\":6356:6419   */\n      swap2\n      pop\n        /* \"#utility.yul\":6312:6429   */\n      pop\n        /* \"#utility.yul\":6107:6436   */\n      swap3\n      swap2\n      pop\n      pop\n      jump\t// out\n        /* \"#utility.yul\":6442:6560   */\n    tag_193:\n        /* \"#utility.yul\":6529:6553   */\n      tag_306\n        /* \"#utility.yul\":6547:6552   */\n      dup2\n        /* \"#utility.yul\":6529:6553   */\n      tag_180\n      jump\t// in\n    tag_306:\n        /* \"#utility.yul\":6524:6527   */\n      dup3\n        /* \"#utility.yul\":6517:6554   */\n      mstore\n        /* \"#utility.yul\":6442:6560   */\n      pop\n      pop\n      jump\t// out\n        /* \"#utility.yul\":6566:6788   */\n    tag_43:\n        /* \"#utility.yul\":6659:6663   */\n      0x00\n        /* \"#utility.yul\":6697:6699   */\n      0x20\n        /* \"#utility.yul\":6686:6695   */\n      dup3\n        /* \"#utility.yul\":6682:6700   */\n      add\n        /* \"#utility.yul\":6674:6700   */\n      swap1\n      pop\n        /* \"#utility.yul\":6710:6781   */\n      tag_308\n        /* \"#utility.yul\":6778:6779   */\n      0x00\n        /* \"#utility.yul\":6767:6776   */\n      dup4\n        /* \"#utility.yul\":6763:6780   */\n      add\n        /* \"#utility.yul\":6754:6760   */\n      dup5\n        /* \"#utility.yul\":6710:6781   */\n      tag_193\n      jump\t// in\n    tag_308:\n        /* \"#utility.yul\":6566:6788   */\n      swap3\n      swap2\n      pop\n      pop\n      jump\t// out\n        /* \"#utility.yul\":6794:6963   */\n    tag_194:\n        /* \"#utility.yul\":6878:6889   */\n      0x00\n        /* \"#utility.yul\":6912:6918   */\n      dup3\n        /* \"#utility.yul\":6907:6910   */\n      dup3\n        /* \"#utility.yul\":6900:6919   */\n      mstore\n        /* \"#utility.yul\":6952:6956   */\n      0x20\n        /* \"#utility.yul\":6947:6950   */\n      dup3\n        /* \"#utility.yul\":6943:6957   */\n      add\n        /* \"#utility.yul\":6928:6957   */\n      swap1\n      pop\n        /* \"#utility.yul\":6794:6963   */\n      swap3\n      swap2\n      pop\n      pop\n      jump\t// out\n        /* \"#utility.yul\":6969:7144   */\n    tag_195:\n        /* \"#utility.yul\":7109:7136   */\n      0x4f6e6c792061646d696e2063616e207570646174652066656500000000000000\n        /* \"#utility.yul\":7105:7106   */\n      0x00\n        /* \"#utility.yul\":7097:7103   */\n      dup3\n        /* \"#utility.yul\":7093:7107   */\n      add\n        /* \"#utility.yul\":7086:7137   */\n      mstore\n        /* \"#utility.yul\":6969:7144   */\n      pop\n      jump\t// out\n        /* \"#utility.yul\":7150:7516   */\n    tag_196:\n        /* \"#utility.yul\":7292:7295   */\n      0x00\n        /* \"#utility.yul\":7313:7380   */\n      tag_312\n        /* \"#utility.yul\":7377:7379   */\n      0x19\n        /* \"#utility.yul\":7372:7375   */\n      dup4\n        /* \"#utility.yul\":7313:7380   */\n      tag_194\n      jump\t// in\n    tag_312:\n        /* \"#utility.yul\":7306:7380   */\n      swap2\n      pop\n        /* \"#utility.yul\":7389:7482   */\n      tag_313\n        /* \"#utility.yul\":7478:7481   */\n      dup3\n        /* \"#utility.yul\":7389:7482   */\n      tag_195\n      jump\t// in\n    tag_313:\n        /* \"#utility.yul\":7507:7509   */\n      0x20\n        /* \"#utility.yul\":7502:7505   */\n      dup3\n        /* \"#utility.yul\":7498:7510   */\n      add\n        /* \"#utility.yul\":7491:7510   */\n      swap1\n      pop\n        /* \"#utility.yul\":7150:7516   */\n      swap2\n      swap1\n      pop\n      jump\t// out\n        /* \"#utility.yul\":7522:7941   */\n    tag_51:\n        /* \"#utility.yul\":7688:7692   */\n      0x00\n        /* \"#utility.yul\":7726:7728   */\n      0x20\n        /* \"#utility.yul\":7715:7724   */\n      dup3\n        /* \"#utility.yul\":7711:7729   */\n      add\n        /* \"#utility.yul\":7703:7729   */\n      swap1\n      pop\n        /* \"#utility.yul\":7775:7784   */\n      dup2\n        /* \"#utility.yul\":7769:7773   */\n      dup2\n        /* \"#utility.yul\":7765:7785   */\n      sub\n        /* \"#utility.yul\":7761:7762   */\n      0x00\n        /* \"#utility.yul\":7750:7759   */\n      dup4\n        /* \"#utility.yul\":7746:7763   */\n      add\n        /* \"#utility.yul\":7739:7786   */\n      mstore\n        /* \"#utility.yul\":7803:7934   */\n      tag_315\n        /* \"#utility.yul\":7929:7933   */\n      dup2\n        /* \"#utility.yul\":7803:7934   */\n      tag_196\n      jump\t// in\n    tag_315:\n        /* \"#utility.yul\":7795:7934   */\n      swap1\n      pop\n        /* \"#utility.yul\":7522:7941   */\n      swap2\n      swap1\n      pop\n      jump\t// out\n        /* \"#utility.yul\":7947:8115   */\n    tag_197:\n        /* \"#utility.yul\":8087:8107   */\n      0x416d6f756e74206d757374206265203e20300000000000000000000000000000\n        /* \"#utility.yul\":8083:8084   */\n      0x00\n        /* \"#utility.yul\":8075:8081   */\n      dup3\n        /* \"#utility.yul\":8071:8085   */\n      add\n        /* \"#utility.yul\":8064:8108   */\n      mstore\n        /* \"#utility.yul\":7947:8115   */\n      pop\n      jump\t// out\n        /* \"#utility.yul\":8121:8487   */\n    tag_198:\n        /* \"#utility.yul\":8263:8266   */\n      0x00\n        /* \"#utility.yul\":8284:8351   */\n      tag_318\n        /* \"#utility.yul\":8348:8350   */\n      0x12\n        /* \"#utility.yul\":8343:8346   */\n      dup4\n        /* \"#utility.yul\":8284:8351   */\n      tag_194\n      jump\t// in\n    tag_318:\n        /* \"#utility.yul\":8277:8351   */\n      swap2\n      pop\n        /* \"#utility.yul\":8360:8453   */\n      tag_319\n        /* \"#utility.yul\":8449:8452   */\n      dup3\n        /* \"#utility.yul\":8360:8453   */\n      tag_197\n      jump\t// in\n    tag_319:\n        /* \"#utility.yul\":8478:8480   */\n      0x20\n        /* \"#utility.yul\":8473:8476   */\n      dup3\n        /* \"#utility.yul\":8469:8481   */\n      add\n        /* \"#utility.yul\":8462:8481   */\n      swap1\n      pop\n        /* \"#utility.yul\":8121:8487   */\n      swap2\n      swap1\n      pop\n      jump\t// out\n        /* \"#utility.yul\":8493:8912   */\n    tag_58:\n        /* \"#utility.yul\":8659:8663   */\n      0x00\n        /* \"#utility.yul\":8697:8699   */\n      0x20\n        /* \"#utility.yul\":8686:8695   */\n      dup3\n        /* \"#utility.yul\":8682:8700   */\n      add\n        /* \"#utility.yul\":8674:8700   */\n      swap1\n      pop\n        /* \"#utility.yul\":8746:8755   */\n      dup2\n        /* \"#utility.yul\":8740:8744   */\n      dup2\n        /* \"#utility.yul\":8736:8756   */\n      sub\n        /* \"#utility.yul\":8732:8733   */\n      0x00\n        /* \"#utility.yul\":8721:8730   */\n      dup4\n        /* \"#utility.yul\":8717:8734   */\n      add\n        /* \"#utility.yul\":8710:8757   */\n      mstore\n        /* \"#utility.yul\":8774:8905   */\n      tag_321\n        /* \"#utility.yul\":8900:8904   */\n      dup2\n        /* \"#utility.yul\":8774:8905   */\n      tag_198\n      jump\t// in\n    tag_321:\n        /* \"#utility.yul\":8766:8905   */\n      swap1\n      pop\n        /* \"#utility.yul\":8493:8912   */\n      swap2\n      swap1\n      pop\n      jump\t// out\n        /* \"#utility.yul\":8918:9081   */\n    tag_199:\n        /* \"#utility.yul\":9058:9073   */\n      0x496e76616c6964206e6f6e636500000000000000000000000000000000000000\n        /* \"#utility.yul\":9054:9055   */\n      0x00\n        /* \"#utility.yul\":9046:9052   */\n      dup3\n        /* \"#utility.yul\":9042:9056   */\n      add\n        /* \"#utility.yul\":9035:9074   */\n      mstore\n        /* \"#utility.yul\":8918:9081   */\n      pop\n      jump\t// out\n        /* \"#utility.yul\":9087:9453   */\n    tag_200:\n        /* \"#utility.yul\":9229:9232   */\n      0x00\n        /* \"#utility.yul\":9250:9317   */\n      tag_324\n        /* \"#utility.yul\":9314:9316   */\n      0x0d\n        /* \"#utility.yul\":9309:9312   */\n      dup4\n        /* \"#utility.yul\":9250:9317   */\n      tag_194\n      jump\t// in\n    tag_324:\n        /* \"#utility.yul\":9243:9317   */\n      swap2\n      pop\n        /* \"#utility.yul\":9326:9419   */\n      tag_325\n        /* \"#utility.yul\":9415:9418   */\n      dup3\n        /* \"#utility.yul\":9326:9419   */\n      tag_199\n      jump\t// in\n    tag_325:\n        /* \"#utility.yul\":9444:9446   */\n      0x20\n        /* \"#utility.yul\":9439:9442   */\n      dup3\n        /* \"#utility.yul\":9435:9447   */\n      add\n        /* \"#utility.yul\":9428:9447   */\n      swap1\n      pop\n        /* \"#utility.yul\":9087:9453   */\n      swap2\n      swap1\n      pop\n      jump\t// out\n        /* \"#utility.yul\":9459:9878   */\n    tag_61:\n        /* \"#utility.yul\":9625:9629   */\n      0x00\n        /* \"#utility.yul\":9663:9665   */\n      0x20\n        /* \"#utility.yul\":9652:9661   */\n      dup3\n        /* \"#utility.yul\":9648:9666   */\n      add\n        /* \"#utility.yul\":9640:9666   */\n      swap1\n      pop\n        /* \"#utility.yul\":9712:9721   */\n      dup2\n        /* \"#utility.yul\":9706:9710   */\n      dup2\n        /* \"#utility.yul\":9702:9722   */\n      sub\n        /* \"#utility.yul\":9698:9699   */\n      0x00\n        /* \"#utility.yul\":9687:9696   */\n      dup4\n        /* \"#utility.yul\":9683:9700   */\n      add\n        /* \"#utility.yul\":9676:9723   */\n      mstore\n        /* \"#utility.yul\":9740:9871   */\n      tag_327\n        /* \"#utility.yul\":9866:9870   */\n      dup2\n        /* \"#utility.yul\":9740:9871   */\n      tag_200\n      jump\t// in\n    tag_327:\n        /* \"#utility.yul\":9732:9871   */\n      swap1\n      pop\n        /* \"#utility.yul\":9459:9878   */\n      swap2\n      swap1\n      pop\n      jump\t// out\n        /* \"#utility.yul\":9884:9978   */\n    tag_201:\n        /* \"#utility.yul\":9917:9925   */\n      0x00\n        /* \"#utility.yul\":9965:9970   */\n      dup2\n        /* \"#utility.yul\":9961:9963   */\n      0x60\n        /* \"#utility.yul\":9957:9971   */\n      shl\n        /* \"#utility.yul\":9936:9971   */\n      swap1\n      pop\n        /* \"#utility.yul\":9884:9978   */\n      swap2\n      swap1\n      pop\n      jump\t// out\n        /* \"#utility.yul\":9984:10078   */\n    tag_202:\n        /* \"#utility.yul\":10023:10030   */\n      0x00\n        /* \"#utility.yul\":10052:10072   */\n      tag_330\n        /* \"#utility.yul\":10066:10071   */\n      dup3\n        /* \"#utility.yul\":10052:10072   */\n      tag_201\n      jump\t// in\n    tag_330:\n        /* \"#utility.yul\":10041:10072   */\n      swap1\n      pop\n        /* \"#utility.yul\":9984:10078   */\n      swap2\n      swap1\n      pop\n      jump\t// out\n        /* \"#utility.yul\":10084:10184   */\n    tag_203:\n        /* \"#utility.yul\":10123:10130   */\n      0x00\n        /* \"#utility.yul\":10152:10178   */\n      tag_332\n        /* \"#utility.yul\":10172:10177   */\n      dup3\n        /* \"#utility.yul\":10152:10178   */\n      tag_202\n      jump\t// in\n    tag_332:\n        /* \"#utility.yul\":10141:10178   */\n      swap1\n      pop\n        /* \"#utility.yul\":10084:10184   */\n      swap2\n      swap1\n      pop\n      jump\t// out\n        /* \"#utility.yul\":10190:10347   */\n    tag_204:\n        /* \"#utility.yul\":10295:10340   */\n      tag_334\n        /* \"#utility.yul\":10315:10339   */\n      tag_335\n        /* \"#utility.yul\":10333:10338   */\n      dup3\n        /* \"#utility.yul\":10315:10339   */\n      tag_180\n      jump\t// in\n    tag_335:\n        /* \"#utility.yul\":10295:10340   */\n      tag_203\n      jump\t// in\n    tag_334:\n        /* \"#utility.yul\":10290:10293   */\n      dup3\n        /* \"#utility.yul\":10283:10341   */\n      mstore\n        /* \"#utility.yul\":10190:10347   */\n      pop\n      pop\n      jump\t// out\n        /* \"#utility.yul\":10353:10432   */\n    tag_205:\n        /* \"#utility.yul\":10392:10399   */\n      0x00\n        /* \"#utility.yul\":10421:10426   */\n      dup2\n        /* \"#utility.yul\":10410:10426   */\n      swap1\n      pop\n        /* \"#utility.yul\":10353:10432   */\n      swap2\n      swap1\n      pop\n      jump\t// out\n        /* \"#utility.yul\":10438:10595   */\n    tag_206:\n        /* \"#utility.yul\":10543:10588   */\n      tag_338\n        /* \"#utility.yul\":10563:10587   */\n      tag_339\n        /* \"#utility.yul\":10581:10586   */\n      dup3\n        /* \"#utility.yul\":10563:10587   */\n      tag_176\n      jump\t// in\n    tag_339:\n        /* \"#utility.yul\":10543:10588   */\n      tag_205\n      jump\t// in\n    tag_338:\n        /* \"#utility.yul\":10538:10541   */\n      dup3\n        /* \"#utility.yul\":10531:10589   */\n      mstore\n        /* \"#utility.yul\":10438:10595   */\n      pop\n      pop\n      jump\t// out\n        /* \"#utility.yul\":10601:11421   */\n    tag_63:\n        /* \"#utility.yul\":10825:10828   */\n      0x00\n        /* \"#utility.yul\":10840:10915   */\n      tag_341\n        /* \"#utility.yul\":10911:10914   */\n      dup3\n        /* \"#utility.yul\":10902:10908   */\n      dup9\n        /* \"#utility.yul\":10840:10915   */\n      tag_204\n      jump\t// in\n    tag_341:\n        /* \"#utility.yul\":10940:10942   */\n      0x14\n        /* \"#utility.yul\":10935:10938   */\n      dup3\n        /* \"#utility.yul\":10931:10943   */\n      add\n        /* \"#utility.yul\":10924:10943   */\n      swap2\n      pop\n        /* \"#utility.yul\":10953:11028   */\n      tag_342\n        /* \"#utility.yul\":11024:11027   */\n      dup3\n        /* \"#utility.yul\":11015:11021   */\n      dup8\n        /* \"#utility.yul\":10953:11028   */\n      tag_206\n      jump\t// in\n    tag_342:\n        /* \"#utility.yul\":11053:11055   */\n      0x20\n        /* \"#utility.yul\":11048:11051   */\n      dup3\n        /* \"#utility.yul\":11044:11056   */\n      add\n        /* \"#utility.yul\":11037:11056   */\n      swap2\n      pop\n        /* \"#utility.yul\":11066:11141   */\n      tag_343\n        /* \"#utility.yul\":11137:11140   */\n      dup3\n        /* \"#utility.yul\":11128:11134   */\n      dup7\n        /* \"#utility.yul\":11066:11141   */\n      tag_206\n      jump\t// in\n    tag_343:\n        /* \"#utility.yul\":11166:11168   */\n      0x20\n        /* \"#utility.yul\":11161:11164   */\n      dup3\n        /* \"#utility.yul\":11157:11169   */\n      add\n        /* \"#utility.yul\":11150:11169   */\n      swap2\n      pop\n        /* \"#utility.yul\":11179:11254   */\n      tag_344\n        /* \"#utility.yul\":11250:11253   */\n      dup3\n        /* \"#utility.yul\":11241:11247   */\n      dup6\n        /* \"#utility.yul\":11179:11254   */\n      tag_206\n      jump\t// in\n    tag_344:\n        /* \"#utility.yul\":11279:11281   */\n      0x20\n        /* \"#utility.yul\":11274:11277   */\n      dup3\n        /* \"#utility.yul\":11270:11282   */\n      add\n        /* \"#utility.yul\":11263:11282   */\n      swap2\n      pop\n        /* \"#utility.yul\":11292:11367   */\n      tag_345\n        /* \"#utility.yul\":11363:11366   */\n      dup3\n        /* \"#utility.yul\":11354:11360   */\n      dup5\n        /* \"#utility.yul\":11292:11367   */\n      tag_204\n      jump\t// in\n    tag_345:\n        /* \"#utility.yul\":11392:11394   */\n      0x14\n        /* \"#utility.yul\":11387:11390   */\n      dup3\n        /* \"#utility.yul\":11383:11395   */\n      add\n        /* \"#utility.yul\":11376:11395   */\n      swap2\n      pop\n        /* \"#utility.yul\":11412:11415   */\n      dup2\n        /* \"#utility.yul\":11405:11415   */\n      swap1\n      pop\n        /* \"#utility.yul\":10601:11421   */\n      swap7\n      swap6\n      pop\n      pop\n      pop\n      pop\n      pop\n      pop\n      jump\t// out\n        /* \"#utility.yul\":11427:11594   */\n    tag_207:\n        /* \"#utility.yul\":11567:11586   */\n      0x496e76616c6964207369676e6174757265000000000000000000000000000000\n        /* \"#utility.yul\":11563:11564   */\n      0x00\n        /* \"#utility.yul\":11555:11561   */\n      dup3\n        /* \"#utility.yul\":11551:11565   */\n      add\n        /* \"#utility.yul\":11544:11587   */\n      mstore\n        /* \"#utility.yul\":11427:11594   */\n      pop\n      jump\t// out\n        /* \"#utility.yul\":11600:11966   */\n    tag_208:\n        /* \"#utility.yul\":11742:11745   */\n      0x00\n        /* \"#utility.yul\":11763:11830   */\n      tag_348\n        /* \"#utility.yul\":11827:11829   */\n      0x11\n        /* \"#utility.yul\":11822:11825   */\n      dup4\n        /* \"#utility.yul\":11763:11830   */\n      tag_194\n      jump\t// in\n    tag_348:\n        /* \"#utility.yul\":11756:11830   */\n      swap2\n      pop\n        /* \"#utility.yul\":11839:11932   */\n      tag_349\n        /* \"#utility.yul\":11928:11931   */\n      dup3\n        /* \"#utility.yul\":11839:11932   */\n      tag_207\n      jump\t// in\n    tag_349:\n        /* \"#utility.yul\":11957:11959   */\n      0x20\n        /* \"#utility.yul\":11952:11955   */\n      dup3\n        /* \"#utility.yul\":11948:11960   */\n      add\n        /* \"#utility.yul\":11941:11960   */\n      swap1\n      pop\n        /* \"#utility.yul\":11600:11966   */\n      swap2\n      swap1\n      pop\n      jump\t// out\n        /* \"#utility.yul\":11972:12391   */\n    tag_70:\n        /* \"#utility.yul\":12138:12142   */\n      0x00\n        /* \"#utility.yul\":12176:12178   */\n      0x20\n        /* \"#utility.yul\":12165:12174   */\n      dup3\n        /* \"#utility.yul\":12161:12179   */\n      add\n        /* \"#utility.yul\":12153:12179   */\n      swap1\n      pop\n        /* \"#utility.yul\":12225:12234   */\n      dup2\n        /* \"#utility.yul\":12219:12223   */\n      dup2\n        /* \"#utility.yul\":12215:12235   */\n      sub\n        /* \"#utility.yul\":12211:12212   */\n      0x00\n        /* \"#utility.yul\":12200:12209   */\n      dup4\n        /* \"#utility.yul\":12196:12213   */\n      add\n        /* \"#utility.yul\":12189:12236   */\n      mstore\n        /* \"#utility.yul\":12253:12384   */\n      tag_351\n        /* \"#utility.yul\":12379:12383   */\n      dup2\n        /* \"#utility.yul\":12253:12384   */\n      tag_208\n      jump\t// in\n    tag_351:\n        /* \"#utility.yul\":12245:12384   */\n      swap1\n      pop\n        /* \"#utility.yul\":11972:12391   */\n      swap2\n      swap1\n      pop\n      jump\t// out\n        /* \"#utility.yul\":12397:12577   */\n    tag_209:\n        /* \"#utility.yul\":12445:12522   */\n      0x4e487b7100000000000000000000000000000000000000000000000000000000\n        /* \"#utility.yul\":12442:12443   */\n      0x00\n        /* \"#utility.yul\":12435:12523   */\n      mstore\n        /* \"#utility.yul\":12542:12546   */\n      0x11\n        /* \"#utility.yul\":12539:12540   */\n      0x04\n        /* \"#utility.yul\":12532:12547   */\n      mstore\n        /* \"#utility.yul\":12566:12570   */\n      0x24\n        /* \"#utility.yul\":12563:12564   */\n      0x00\n        /* \"#utility.yul\":12556:12571   */\n      revert\n        /* \"#utility.yul\":12583:12816   */\n    tag_72:\n        /* \"#utility.yul\":12622:12625   */\n      0x00\n        /* \"#utility.yul\":12645:12669   */\n      tag_354\n        /* \"#utility.yul\":12663:12668   */\n      dup3\n        /* \"#utility.yul\":12645:12669   */\n      tag_176\n      jump\t// in\n    tag_354:\n        /* \"#utility.yul\":12636:12669   */\n      swap2\n      pop\n        /* \"#utility.yul\":12691:12757   */\n      0xffffffffffffffffffffffffffffffffffffffffffffffffffffffffffffffff\n        /* \"#utility.yul\":12684:12689   */\n      dup3\n        /* \"#utility.yul\":12681:12758   */\n      sub\n        /* \"#utility.yul\":12678:12781   */\n      tag_355\n      jumpi\n        /* \"#utility.yul\":12761:12779   */\n      tag_356\n      tag_209\n      jump\t// in\n    tag_356:\n        /* \"#utility.yul\":12678:12781   */\n    tag_355:\n        /* \"#utility.yul\":12808:12809   */\n      0x01\n        /* \"#utility.yul\":12801:12806   */\n      dup3\n        /* \"#utility.yul\":12797:12810   */\n      add\n        /* \"#utility.yul\":12790:12810   */\n      swap1\n      pop\n        /* \"#utility.yul\":12583:12816   */\n      swap2\n      swap1\n      pop\n      jump\t// out\n        /* \"#utility.yul\":12822:13264   */\n    tag_74:\n        /* \"#utility.yul\":12971:12975   */\n      0x00\n        /* \"#utility.yul\":13009:13011   */\n      0x60\n        /* \"#utility.yul\":12998:13007   */\n      dup3\n        /* \"#utility.yul\":12994:13012   */\n      add\n        /* \"#utility.yul\":12986:13012   */\n      swap1\n      pop\n        /* \"#utility.yul\":13022:13093   */\n      tag_358\n        /* \"#utility.yul\":13090:13091   */\n      0x00\n        /* \"#utility.yul\":13079:13088   */\n      dup4\n        /* \"#utility.yul\":13075:13092   */\n      add\n        /* \"#utility.yul\":13066:13072   */\n      dup7\n        /* \"#utility.yul\":13022:13093   */\n      tag_193\n      jump\t// in\n    tag_358:\n        /* \"#utility.yul\":13103:13175   */\n      tag_359\n        /* \"#utility.yul\":13171:13173   */\n      0x20\n        /* \"#utility.yul\":13160:13169   */\n      dup4\n        /* \"#utility.yul\":13156:13174   */\n      add\n        /* \"#utility.yul\":13147:13153   */\n      dup6\n        /* \"#utility.yul\":13103:13175   */\n      tag_193\n      jump\t// in\n    tag_359:\n        /* \"#utility.yul\":13185:13257   */\n      tag_360\n        /* \"#utility.yul\":13253:13255   */\n      0x40\n        /* \"#utility.yul\":13242:13251   */\n      dup4\n        /* \"#utility.yul\":13238:13256   */\n      add\n        /* \"#utility.yul\":13229:13235   */\n      dup5\n        /* \"#utility.yul\":13185:13257   */\n      tag_179\n      jump\t// in\n    tag_360:\n        /* \"#utility.yul\":12822:13264   */\n      swap5\n      swap4\n      pop\n      pop\n      pop\n      pop\n      jump\t// out\n        /* \"#utility.yul\":13270:13360   */\n    tag_210:\n        /* \"#utility.yul\":13304:13311   */\n      0x00\n        /* \"#utility.yul\":13347:13352   */\n      dup2\n        /* \"#utility.yul\":13340:13353   */\n      iszero\n        /* \"#utility.yul\":13333:13354   */\n      iszero\n        /* \"#utility.yul\":13322:13354   */\n      swap1\n      pop\n        /* \"#utility.yul\":13270:13360   */\n      swap2\n      swap1\n      pop\n      jump\t// out\n        /* \"#utility.yul\":13366:13482   */\n    tag_211:\n        /* \"#utility.yul\":13436:13457   */\n      tag_363\n        /* \"#utility.yul\":13451:13456   */\n      dup2\n        /* \"#utility.yul\":13436:13457   */\n      tag_210\n      jump\t// in\n    tag_363:\n        /* \"#utility.yul\":13429:13434   */\n      dup2\n        /* \"#utility.yul\":13426:13458   */\n      eq\n        /* \"#utility.yul\":13416:13476   */\n      tag_364\n      jumpi\n        /* \"#utility.yul\":13472:13473   */\n      0x00\n        /* \"#utility.yul\":13469:13470   */\n      dup1\n        /* \"#utility.yul\":13462:13474   */\n      revert\n        /* \"#utility.yul\":13416:13476   */\n    tag_364:\n        /* \"#utility.yul\":13366:13482   */\n      pop\n      jump\t// out\n        /* \"#utility.yul\":13488:13625   */\n    tag_212:\n        /* \"#utility.yul\":13542:13547   */\n      0x00\n        /* \"#utility.yul\":13573:13579   */\n      dup2\n        /* \"#utility.yul\":13567:13580   */\n      mload\n        /* \"#utility.yul\":13558:13580   */\n      swap1\n      pop\n        /* \"#utility.yul\":13589:13619   */\n      tag_366\n        /* \"#utility.yul\":13613:13618   */\n      dup2\n        /* \"#utility.yul\":13589:13619   */\n      tag_211\n      jump\t// in\n    tag_366:\n        /* \"#utility.yul\":13488:13625   */\n      swap3\n      swap2\n      pop\n      pop\n      jump\t// out\n        /* \"#utility.yul\":13631:13976   */\n    tag_78:\n        /* \"#utility.yul\":13698:13704   */\n      0x00\n        /* \"#utility.yul\":13747:13749   */\n      0x20\n        /* \"#utility.yul\":13735:13744   */\n      dup3\n        /* \"#utility.yul\":13726:13733   */\n      dup5\n        /* \"#utility.yul\":13722:13745   */\n      sub\n        /* \"#utility.yul\":13718:13750   */\n      slt\n        /* \"#utility.yul\":13715:13834   */\n      iszero\n      tag_368\n      jumpi\n        /* \"#utility.yul\":13753:13832   */\n      tag_369\n      tag_174\n      jump\t// in\n    tag_369:\n        /* \"#utility.yul\":13715:13834   */\n    tag_368:\n        /* \"#utility.yul\":13873:13874   */\n      0x00\n        /* \"#utility.yul\":13898:13959   */\n      tag_370\n        /* \"#utility.yul\":13951:13958   */\n      dup5\n        /* \"#utility.yul\":13942:13948   */\n      dup3\n        /* \"#utility.yul\":13931:13940   */\n      dup6\n        /* \"#utility.yul\":13927:13949   */\n      add\n        /* \"#utility.yul\":13898:13959   */\n      tag_212\n      jump\t// in\n    tag_370:\n        /* \"#utility.yul\":13888:13959   */\n      swap2\n      pop\n        /* \"#utility.yul\":13844:13969   */\n      pop\n        /* \"#utility.yul\":13631:13976   */\n      swap3\n      swap2\n      pop\n      pop\n      jump\t// out\n        /* \"#utility.yul\":13982:14155   */\n    tag_213:\n        /* \"#utility.yul\":14122:14147   */\n      0x46494220666565207472616e73666572206661696c6564000000000000000000\n        /* \"#utility.yul\":14118:14119   */\n      0x00\n        /* \"#utility.yul\":14110:14116   */\n      dup3\n        /* \"#utility.yul\":14106:14120   */\n      add\n        /* \"#utility.yul\":14099:14148   */\n      mstore\n        /* \"#utility.yul\":13982:14155   */\n      pop\n      jump\t// out\n        /* \"#utility.yul\":14161:14527   */\n    tag_214:\n        /* \"#utility.yul\":14303:14306   */\n      0x00\n        /* \"#utility.yul\":14324:14391   */\n      tag_373\n        /* \"#utility.yul\":14388:14390   */\n      0x17\n        /* \"#utility.yul\":14383:14386   */\n      dup4\n        /* \"#utility.yul\":14324:14391   */\n      tag_194\n      jump\t// in\n    tag_373:\n        /* \"#utility.yul\":14317:14391   */\n      swap2\n      pop\n        /* \"#utility.yul\":14400:14493   */\n      tag_374\n        /* \"#utility.yul\":14489:14492   */\n      dup3\n        /* \"#utility.yul\":14400:14493   */\n      tag_213\n      jump\t// in\n    tag_374:\n        /* \"#utility.yul\":14518:14520   */\n      0x20\n        /* \"#utility.yul\":14513:14516   */\n      dup3\n        /* \"#utility.yul\":14509:14521   */\n      add\n        /* \"#utility.yul\":14502:14521   */\n      swap1\n      pop\n        /* \"#utility.yul\":14161:14527   */\n      swap2\n      swap1\n      pop\n      jump\t// out\n        /* \"#utility.yul\":14533:14952   */\n    tag_81:\n        /* \"#utility.yul\":14699:14703   */\n      0x00\n        /* \"#utility.yul\":14737:14739   */\n      0x20\n        /* \"#utility.yul\":14726:14735   */\n      dup3\n        /* \"#utility.yul\":14722:14740   */\n      add\n        /* \"#utility.yul\":14714:14740   */\n      swap1\n      pop\n        /* \"#utility.yul\":14786:14795   */\n      dup2\n        /* \"#utility.yul\":14780:14784   */\n      dup2\n        /* \"#utility.yul\":14776:14796   */\n      sub\n        /* \"#utility.yul\":14772:14773   */\n      0x00\n        /* \"#utility.yul\":14761:14770   */\n      dup4\n        /* \"#utility.yul\":14757:14774   */\n      add\n        /* \"#utility.yul\":14750:14797   */\n      mstore\n        /* \"#utility.yul\":14814:14945   */\n      tag_376\n        /* \"#utility.yul\":14940:14944   */\n      dup2\n        /* \"#utility.yul\":14814:14945   */\n      tag_214\n      jump\t// in\n    tag_376:\n        /* \"#utility.yul\":14806:14945   */\n      swap1\n      pop\n        /* \"#utility.yul\":14533:14952   */\n      swap2\n      swap1\n      pop\n      jump\t// out\n        /* \"#utility.yul\":14958:15128   */\n    tag_215:\n        /* \"#utility.yul\":15098:15120   */\n      0x55534443207472616e73666572206661696c6564000000000000000000000000\n        /* \"#utility.yul\":15094:15095   */\n      0x00\n        /* \"#utility.yul\":15086:15092   */\n      dup3\n        /* \"#utility.yul\":15082:15096   */\n      add\n        /* \"#utility.yul\":15075:15121   */\n      mstore\n        /* \"#utility.yul\":14958:15128   */\n      pop\n      jump\t// out\n        /* \"#utility.yul\":15134:15500   */\n    tag_216:\n        /* \"#utility.yul\":15276:15279   */\n      0x00\n        /* \"#utility.yul\":15297:15364   */\n      tag_379\n        /* \"#utility.yul\":15361:15363   */\n      0x14\n        /* \"#utility.yul\":15356:15359   */\n      dup4\n        /* \"#utility.yul\":15297:15364   */\n      tag_194\n      jump\t// in\n    tag_379:\n        /* \"#utility.yul\":15290:15364   */\n      swap2\n      pop\n        /* \"#utility.yul\":15373:15466   */\n      tag_380\n        /* \"#utility.yul\":15462:15465   */\n      dup3\n        /* \"#utility.yul\":15373:15466   */\n      tag_215\n      jump\t// in\n    tag_380:\n        /* \"#utility.yul\":15491:15493   */\n      0x20\n        /* \"#utility.yul\":15486:15489   */\n      dup3\n        /* \"#utility.yul\":15482:15494   */\n      add\n        /* \"#utility.yul\":15475:15494   */\n      swap1\n      pop\n        /* \"#utility.yul\":15134:15500   */\n      swap2\n      swap1\n      pop\n      jump\t// out\n        /* \"#utility.yul\":15506:15925   */\n    tag_88:\n        /* \"#utility.yul\":15672:15676   */\n      0x00\n        /* \"#utility.yul\":15710:15712   */\n      0x20\n        /* \"#utility.yul\":15699:15708   */\n      dup3\n        /* \"#utility.yul\":15695:15713   */\n      add\n        /* \"#utility.yul\":15687:15713   */\n      swap1\n      pop\n        /* \"#utility.yul\":15759:15768   */\n      dup2\n        /* \"#utility.yul\":15753:15757   */\n      dup2\n        /* \"#utility.yul\":15749:15769   */\n      sub\n        /* \"#utility.yul\":15745:15746   */\n      0x00\n        /* \"#utility.yul\":15734:15743   */\n      dup4\n        /* \"#utility.yul\":15730:15747   */\n      add\n        /* \"#utility.yul\":15723:15770   */\n      mstore\n        /* \"#utility.yul\":15787:15918   */\n      tag_382\n        /* \"#utility.yul\":15913:15917   */\n      dup2\n        /* \"#utility.yul\":15787:15918   */\n      tag_216\n      jump\t// in\n    tag_382:\n        /* \"#utility.yul\":15779:15918   */\n      swap1\n      pop\n        /* \"#utility.yul\":15506:15925   */\n      swap2\n      swap1\n      pop\n      jump\t// out\n        /* \"#utility.yul\":15931:16122   */\n    tag_90:\n        /* \"#utility.yul\":15971:15974   */\n      0x00\n        /* \"#utility.yul\":15990:16010   */\n      tag_384\n        /* \"#utility.yul\":16008:16009   */\n      dup3\n        /* \"#utility.yul\":15990:16010   */\n      tag_176\n      jump\t// in\n    tag_384:\n        /* \"#utility.yul\":15985:16010   */\n      swap2\n      pop\n        /* \"#utility.yul\":16024:16044   */\n      tag_385\n        /* \"#utility.yul\":16042:16043   */\n      dup4\n        /* \"#utility.yul\":16024:16044   */\n      tag_176\n      jump\t// in\n    tag_385:\n        /* \"#utility.yul\":16019:16044   */\n      swap3\n      pop\n        /* \"#utility.yul\":16067:16068   */\n      dup3\n        /* \"#utility.yul\":16064:16065   */\n      dup3\n        /* \"#utility.yul\":16060:16069   */\n      add\n        /* \"#utility.yul\":16053:16069   */\n      swap1\n      pop\n        /* \"#utility.yul\":16088:16091   */\n      dup1\n        /* \"#utility.yul\":16085:16086   */\n      dup3\n        /* \"#utility.yul\":16082:16092   */\n      gt\n        /* \"#utility.yul\":16079:16115   */\n      iszero\n      tag_386\n      jumpi\n        /* \"#utility.yul\":16095:16113   */\n      tag_387\n      tag_209\n      jump\t// in\n    tag_387:\n        /* \"#utility.yul\":16079:16115   */\n    tag_386:\n        /* \"#utility.yul\":15931:16122   */\n      swap3\n      swap2\n      pop\n      pop\n      jump\t// out\n        /* \"#utility.yul\":16128:16570   */\n    tag_92:\n        /* \"#utility.yul\":16277:16281   */\n      0x00\n        /* \"#utility.yul\":16315:16317   */\n      0x60\n        /* \"#utility.yul\":16304:16313   */\n      dup3\n        /* \"#utility.yul\":16300:16318   */\n      add\n        /* \"#utility.yul\":16292:16318   */\n      swap1\n      pop\n        /* \"#utility.yul\":16328:16399   */\n      tag_389\n        /* \"#utility.yul\":16396:16397   */\n      0x00\n        /* \"#utility.yul\":16385:16394   */\n      dup4\n        /* \"#utility.yul\":16381:16398   */\n      add\n        /* \"#utility.yul\":16372:16378   */\n      dup7\n        /* \"#utility.yul\":16328:16399   */\n      tag_179\n      jump\t// in\n    tag_389:\n        /* \"#utility.yul\":16409:16481   */\n      tag_390\n        /* \"#utility.yul\":16477:16479   */\n      0x20\n        /* \"#utility.yul\":16466:16475   */\n      dup4\n        /* \"#utility.yul\":16462:16480   */\n      add\n        /* \"#utility.yul\":16453:16459   */\n      dup6\n        /* \"#utility.yul\":16409:16481   */\n      tag_179\n      jump\t// in\n    tag_390:\n        /* \"#utility.yul\":16491:16563   */\n      tag_391\n        /* \"#utility.yul\":16559:16561   */\n      0x40\n        /* \"#utility.yul\":16548:16557   */\n      dup4\n        /* \"#utility.yul\":16544:16562   */\n      add\n        /* \"#utility.yul\":16535:16541   */\n      dup5\n        /* \"#utility.yul\":16491:16563   */\n      tag_179\n      jump\t// in\n    tag_391:\n        /* \"#utility.yul\":16128:16570   */\n      swap5\n      swap4\n      pop\n      pop\n      pop\n      pop\n      jump\t// out\n        /* \"#utility.yul\":16576:16908   */\n    tag_114:\n        /* \"#utility.yul\":16697:16701   */\n      0x00\n        /* \"#utility.yul\":16735:16737   */\n      0x40\n        /* \"#utility.yul\":16724:16733   */\n      dup3\n        /* \"#utility.yul\":16720:16738   */\n      add\n        /* \"#utility.yul\":16712:16738   */\n      swap1\n      pop\n        /* \"#utility.yul\":16748:16819   */\n      tag_393\n        /* \"#utility.yul\":16816:16817   */\n      0x00\n        /* \"#utility.yul\":16805:16814   */\n      dup4\n        /* \"#utility.yul\":16801:16818   */\n      add\n        /* \"#utility.yul\":16792:16798   */\n      dup6\n        /* \"#utility.yul\":16748:16819   */\n      tag_179\n      jump\t// in\n    tag_393:\n        /* \"#utility.yul\":16829:16901   */\n      tag_394\n        /* \"#utility.yul\":16897:16899   */\n      0x20\n        /* \"#utility.yul\":16886:16895   */\n      dup4\n        /* \"#utility.yul\":16882:16900   */\n      add\n        /* \"#utility.yul\":16873:16879   */\n      dup5\n        /* \"#utility.yul\":16829:16901   */\n      tag_179\n      jump\t// in\n    tag_394:\n        /* \"#utility.yul\":16576:16908   */\n      swap4\n      swap3\n      pop\n      pop\n      pop\n      jump\t// out\n        /* \"#utility.yul\":16914:17062   */\n    tag_217:\n        /* \"#utility.yul\":17016:17027   */\n      0x00\n        /* \"#utility.yul\":17053:17056   */\n      dup2\n        /* \"#utility.yul\":17038:17056   */\n      swap1\n      pop\n        /* \"#utility.yul\":16914:17062   */\n      swap3\n      swap2\n      pop\n      pop\n      jump\t// out\n        /* \"#utility.yul\":17068:17282   */\n    tag_218:\n        /* \"#utility.yul\":17208:17274   */\n      0x19457468657265756d205369676e6564204d6573736167653a0a333200000000\n        /* \"#utility.yul\":17204:17205   */\n      0x00\n        /* \"#utility.yul\":17196:17202   */\n      dup3\n        /* \"#utility.yul\":17192:17206   */\n      add\n        /* \"#utility.yul\":17185:17275   */\n      mstore\n        /* \"#utility.yul\":17068:17282   */\n      pop\n      jump\t// out\n        /* \"#utility.yul\":17288:17690   */\n    tag_219:\n        /* \"#utility.yul\":17448:17451   */\n      0x00\n        /* \"#utility.yul\":17469:17554   */\n      tag_398\n        /* \"#utility.yul\":17551:17553   */\n      0x1c\n        /* \"#utility.yul\":17546:17549   */\n      dup4\n        /* \"#utility.yul\":17469:17554   */\n      tag_217\n      jump\t// in\n    tag_398:\n        /* \"#utility.yul\":17462:17554   */\n      swap2\n      pop\n        /* \"#utility.yul\":17563:17656   */\n      tag_399\n        /* \"#utility.yul\":17652:17655   */\n      dup3\n        /* \"#utility.yul\":17563:17656   */\n      tag_218\n      jump\t// in\n    tag_399:\n        /* \"#utility.yul\":17681:17683   */\n      0x1c\n        /* \"#utility.yul\":17676:17679   */\n      dup3\n        /* \"#utility.yul\":17672:17684   */\n      add\n        /* \"#utility.yul\":17665:17684   */\n      swap1\n      pop\n        /* \"#utility.yul\":17288:17690   */\n      swap2\n      swap1\n      pop\n      jump\t// out\n        /* \"#utility.yul\":17696:17773   */\n    tag_220:\n        /* \"#utility.yul\":17733:17740   */\n      0x00\n        /* \"#utility.yul\":17762:17767   */\n      dup2\n        /* \"#utility.yul\":17751:17767   */\n      swap1\n      pop\n        /* \"#utility.yul\":17696:17773   */\n      swap2\n      swap1\n      pop\n      jump\t// out\n        /* \"#utility.yul\":17779:17858   */\n    tag_221:\n        /* \"#utility.yul\":17818:17825   */\n      0x00\n        /* \"#utility.yul\":17847:17852   */\n      dup2\n        /* \"#utility.yul\":17836:17852   */\n      swap1\n      pop\n        /* \"#utility.yul\":17779:17858   */\n      swap2\n      swap1\n      pop\n      jump\t// out\n        /* \"#utility.yul\":17864:18021   */\n    tag_222:\n        /* \"#utility.yul\":17969:18014   */\n      tag_403\n        /* \"#utility.yul\":17989:18013   */\n      tag_404\n        /* \"#utility.yul\":18007:18012   */\n      dup3\n        /* \"#utility.yul\":17989:18013   */\n      tag_220\n      jump\t// in\n    tag_404:\n        /* \"#utility.yul\":17969:18014   */\n      tag_221\n      jump\t// in\n    tag_403:\n        /* \"#utility.yul\":17964:17967   */\n      dup3\n        /* \"#utility.yul\":17957:18015   */\n      mstore\n        /* \"#utility.yul\":17864:18021   */\n      pop\n      pop\n      jump\t// out\n        /* \"#utility.yul\":18027:18549   */\n    tag_120:\n        /* \"#utility.yul\":18240:18243   */\n      0x00\n        /* \"#utility.yul\":18262:18410   */\n      tag_406\n        /* \"#utility.yul\":18406:18409   */\n      dup3\n        /* \"#utility.yul\":18262:18410   */\n      tag_219\n      jump\t// in\n    tag_406:\n        /* \"#utility.yul\":18255:18410   */\n      swap2\n      pop\n        /* \"#utility.yul\":18420:18495   */\n      tag_407\n        /* \"#utility.yul\":18491:18494   */\n      dup3\n        /* \"#utility.yul\":18482:18488   */\n      dup5\n        /* \"#utility.yul\":18420:18495   */\n      tag_222\n      jump\t// in\n    tag_407:\n        /* \"#utility.yul\":18520:18522   */\n      0x20\n        /* \"#utility.yul\":18515:18518   */\n      dup3\n        /* \"#utility.yul\":18511:18523   */\n      add\n        /* \"#utility.yul\":18504:18523   */\n      swap2\n      pop\n        /* \"#utility.yul\":18540:18543   */\n      dup2\n        /* \"#utility.yul\":18533:18543   */\n      swap1\n      pop\n        /* \"#utility.yul\":18027:18549   */\n      swap3\n      swap2\n      pop\n      pop\n      jump\t// out\n        /* \"#utility.yul\":18555:18735   */\n    tag_135:\n        /* \"#utility.yul\":18603:18680   */\n      0x4e487b7100000000000000000000000000000000000000000000000000000000\n        /* \"#utility.yul\":18600:18601   */\n      0x00\n        /* \"#utility.yul\":18593:18681   */\n      mstore\n        /* \"#utility.yul\":18700:18704   */\n      0x21\n        /* \"#utility.yul\":18697:18698   */\n      0x04\n        /* \"#utility.yul\":18690:18705   */\n      mstore\n        /* \"#utility.yul\":18724:18728   */\n      0x24\n        /* \"#utility.yul\":18721:18722   */\n      0x00\n        /* \"#utility.yul\":18714:18729   */\n      revert\n        /* \"#utility.yul\":18741:18859   */\n    tag_223:\n        /* \"#utility.yul\":18828:18852   */\n      tag_410\n        /* \"#utility.yul\":18846:18851   */\n      dup2\n        /* \"#utility.yul\":18828:18852   */\n      tag_220\n      jump\t// in\n    tag_410:\n        /* \"#utility.yul\":18823:18826   */\n      dup3\n        /* \"#utility.yul\":18816:18853   */\n      mstore\n        /* \"#utility.yul\":18741:18859   */\n      pop\n      pop\n      jump\t// out\n        /* \"#utility.yul\":18865:19087   */\n    tag_159:\n        /* \"#utility.yul\":18958:18962   */\n      0x00\n        /* \"#utility.yul\":18996:18998   */\n      0x20\n        /* \"#utility.yul\":18985:18994   */\n      dup3\n        /* \"#utility.yul\":18981:18999   */\n      add\n        /* \"#utility.yul\":18973:18999   */\n      swap1\n      pop\n        /* \"#utility.yul\":19009:19080   */\n      tag_412\n        /* \"#utility.yul\":19077:19078   */\n      0x00\n        /* \"#utility.yul\":19066:19075   */\n      dup4\n        /* \"#utility.yul\":19062:19079   */\n      add\n        /* \"#utility.yul\":19053:19059   */\n      dup5\n        /* \"#utility.yul\":19009:19080   */\n      tag_223\n      jump\t// in\n    tag_412:\n        /* \"#utility.yul\":18865:19087   */\n      swap3\n      swap2\n      pop\n      pop\n      jump\t// out\n        /* \"#utility.yul\":19093:19179   */\n    tag_224:\n        /* \"#utility.yul\":19128:19135   */\n      0x00\n        /* \"#utility.yul\":19168:19172   */\n      0xff\n        /* \"#utility.yul\":19161:19166   */\n      dup3\n        /* \"#utility.yul\":19157:19173   */\n      and\n        /* \"#utility.yul\":19146:19173   */\n      swap1\n      pop\n        /* \"#utility.yul\":19093:19179   */\n      swap2\n      swap1\n      pop\n      jump\t// out\n        /* \"#utility.yul\":19185:19297   */\n    tag_225:\n        /* \"#utility.yul\":19268:19290   */\n      tag_415\n        /* \"#utility.yul\":19284:19289   */\n      dup2\n        /* \"#utility.yul\":19268:19290   */\n      tag_224\n      jump\t// in\n    tag_415:\n        /* \"#utility.yul\":19263:19266   */\n      dup3\n        /* \"#utility.yul\":19256:19291   */\n      mstore\n        /* \"#utility.yul\":19185:19297   */\n      pop\n      pop\n      jump\t// out\n        /* \"#utility.yul\":19303:19848   */\n    tag_163:\n        /* \"#utility.yul\":19476:19480   */\n      0x00\n        /* \"#utility.yul\":19514:19517   */\n      0x80\n        /* \"#utility.yul\":19503:19512   */\n      dup3\n        /* \"#utility.yul\":19499:19518   */\n      add\n        /* \"#utility.yul\":19491:19518   */\n      swap1\n      pop\n        /* \"#utility.yul\":19528:19599   */\n      tag_417\n        /* \"#utility.yul\":19596:19597   */\n      0x00\n        /* \"#utility.yul\":19585:19594   */\n      dup4\n        /* \"#utility.yul\":19581:19598   */\n      add\n        /* \"#utility.yul\":19572:19578   */\n      dup8\n        /* \"#utility.yul\":19528:19599   */\n      tag_223\n      jump\t// in\n    tag_417:\n        /* \"#utility.yul\":19609:19677   */\n      tag_418\n        /* \"#utility.yul\":19673:19675   */\n      0x20\n        /* \"#utility.yul\":19662:19671   */\n      dup4\n        /* \"#utility.yul\":19658:19676   */\n      add\n        /* \"#utility.yul\":19649:19655   */\n      dup7\n        /* \"#utility.yul\":19609:19677   */\n      tag_225\n      jump\t// in\n    tag_418:\n        /* \"#utility.yul\":19687:19759   */\n      tag_419\n        /* \"#utility.yul\":19755:19757   */\n      0x40\n        /* \"#utility.yul\":19744:19753   */\n      dup4\n        /* \"#utility.yul\":19740:19758   */\n      add\n        /* \"#utility.yul\":19731:19737   */\n      dup6\n        /* \"#utility.yul\":19687:19759   */\n      tag_223\n      jump\t// in\n    tag_419:\n        /* \"#utility.yul\":19769:19841   */\n      tag_420\n        /* \"#utility.yul\":19837:19839   */\n      0x60\n        /* \"#utility.yul\":19826:19835   */\n      dup4\n        /* \"#utility.yul\":19822:19840   */\n      add\n        /* \"#utility.yul\":19813:19819   */\n      dup5\n        /* \"#utility.yul\":19769:19841   */\n      tag_223\n      jump\t// in\n    tag_420:\n        /* \"#utility.yul\":19303:19848   */\n      swap6\n      swap5\n      pop\n      pop\n      pop\n      pop\n      pop\n      jump\t// out\n\n    auxdata: 0xa264697066735822122075bd44d6c03c454cb1b3a4c2f39e4c526d388d6fab6609a47914b3f856b9f7c164736f6c634300081a0033\n}\n",
				"bytecode": {
					"linkReferences": {},
					"object": "6080604052731241676d45b1cb5b573b6258c4a838e149a1d19160025f6101000a81548173ffffffffffffffffffffffffffffffffffffffff021916908373ffffffffffffffffffffffffffffffffffffffff16021790555073132ca3eff205d1f01a71e3d2e41b00056af5c64e60035f6101000a81548173ffffffffffffffffffffffffffffffffffffffff021916908373ffffffffffffffffffffffffffffffffffffffff160217905550678ac7230489e800006004553480156100c3575f80fd5b5060015f819055503360015f6101000a81548173ffffffffffffffffffffffffffffffffffffffff021916908373ffffffffffffffffffffffffffffffffffffffff160217905550611780806101185f395ff3fe608060405234801561000f575f80fd5b5060043610610091575f3560e01c806370e5a8981161006457806370e5a898146101095780637ecebe00146101255780639246aa9a14610155578063f851a44014610173578063fc7e286d1461019157610091565b80633e413bee1461009557806350b42065146100b35780635448e8c4146100cf57806369ce1e3e146100ed575b5f80fd5b61009d6101c1565b6040516100aa9190610e0d565b60405180910390f35b6100cd60048036038101906100c89190610e6a565b6101e6565b005b6100d761027f565b6040516100e49190610ea4565b60405180910390f35b61010760048036038101906101029190611034565b610285565b005b610123600480360381019061011e9190610e6a565b610706565b005b61013f600480360381019061013a91906110c7565b6109db565b60405161014c9190610ea4565b60405180910390f35b61015d6109f0565b60405161016a9190610e0d565b60405180910390f35b61017b610a15565b6040516101889190611101565b60405180910390f35b6101ab60048036038101906101a691906110c7565b610a3a565b6040516101b89190610ea4565b60405180910390f35b60025f9054906101000a900473ffffffffffffffffffffffffffffffffffffffff1681565b60015f9054906101000a900473ffffffffffffffffffffffffffffffffffffffff1673ffffffffffffffffffffffffffffffffffffffff163373ffffffffffffffffffffffffffffffffffffffff1614610275576040517f08c379a000000000000000000000000000000000000000000000000000000000815260040161026c90611174565b60405180910390fd5b8060048190555050565b60045481565b61028d610a4f565b5f84116102cf576040517f08c379a00000000000000000000000000000000000000000000000000000000081526004016102c6906111dc565b60405180910390fd5b60065f8673ffffffffffffffffffffffffffffffffffffffff1673ffffffffffffffffffffffffffffffffffffffff1681526020019081526020015f2054821461034e576040517f08c379a000000000000000000000000000000000000000000000000000000000815260040161034590611244565b60405180910390fd5b5f85858585306040516020016103689594939291906112c7565b6040516020818303038152906040528051906020012090505f61038a82610a93565b90508673ffffffffffffffffffffffffffffffffffffffff166103b68483610ac290919063ffffffff16565b73ffffffffffffffffffffffffffffffffffffffff161461040c576040517f08c379a00000000000000000000000000000000000000000000000000000000081526004016104039061136f565b60405180910390fd5b60065f8873ffffffffffffffffffffffffffffffffffffffff1673ffffffffffffffffffffffffffffffffffffffff1681526020019081526020015f205f815480929190610459906113ba565b919050555060035f9054906101000a900473ffffffffffffffffffffffffffffffffffffffff1673ffffffffffffffffffffffffffffffffffffffff166323b872dd8860015f9054906101000a900473ffffffffffffffffffffffffffffffffffffffff16886040518463ffffffff1660e01b81526004016104dd93929190611401565b6020604051808303815f875af11580156104f9573d5f803e3d5ffd5b505050506040513d601f19601f8201168201806040525081019061051d919061146b565b61055c576040517f08c379a0000000000000000000000000000000000000000000000000000000008152600401610553906114e0565b60405180910390fd5b60025f9054906101000a900473ffffffffffffffffffffffffffffffffffffffff1673ffffffffffffffffffffffffffffffffffffffff166323b872dd8830896040518463ffffffff1660e01b81526004016105ba93929190611401565b6020604051808303815f875af11580156105d6573d5f803e3d5ffd5b505050506040513d601f19601f820116820180604052508101906105fa919061146b565b610639576040517f08c379a000000000000000000000000000000000000000000000000000000000815260040161063090611548565b60405180910390fd5b8560055f8973ffffffffffffffffffffffffffffffffffffffff1673ffffffffffffffffffffffffffffffffffffffff1681526020019081526020015f205f8282546106859190611566565b925050819055503373ffffffffffffffffffffffffffffffffffffffff168773ffffffffffffffffffffffffffffffffffffffff167f5ff973aa502225ea0c12eb7db88b004b0a0708a49e3369d50f92d806d178b8248888886040516106ed93929190611599565b60405180910390a350506106ff610aec565b5050505050565b61070e610a4f565b5f8111610750576040517f08c379a0000000000000000000000000000000000000000000000000000000008152600401610747906111dc565b60405180910390fd5b60035f9054906101000a900473ffffffffffffffffffffffffffffffffffffffff1673ffffffffffffffffffffffffffffffffffffffff166323b872dd3360015f9054906101000a900473ffffffffffffffffffffffffffffffffffffffff166004546040518463ffffffff1660e01b81526004016107d193929190611401565b6020604051808303815f875af11580156107ed573d5f803e3d5ffd5b505050506040513d601f19601f82011682018060405250810190610811919061146b565b610850576040517f08c379a0000000000000000000000000000000000000000000000000000000008152600401610847906114e0565b60405180910390fd5b60025f9054906101000a900473ffffffffffffffffffffffffffffffffffffffff1673ffffffffffffffffffffffffffffffffffffffff166323b872dd3330846040518463ffffffff1660e01b81526004016108ae93929190611401565b6020604051808303815f875af11580156108ca573d5f803e3d5ffd5b505050506040513d601f19601f820116820180604052508101906108ee919061146b565b61092d576040517f08c379a000000000000000000000000000000000000000000000000000000000815260040161092490611548565b60405180910390fd5b8060055f3373ffffffffffffffffffffffffffffffffffffffff1673ffffffffffffffffffffffffffffffffffffffff1681526020019081526020015f205f8282546109799190611566565b925050819055503373ffffffffffffffffffffffffffffffffffffffff167fd741e738a23fd18a03a26522320d9fc6cac1fed483e215ea9150fbc2fc43385d82426040516109c89291906115ce565b60405180910390a26109d8610aec565b50565b6006602052805f5260405f205f915090505481565b60035f9054906101000a900473ffffffffffffffffffffffffffffffffffffffff1681565b60015f9054906101000a900473ffffffffffffffffffffffffffffffffffffffff1681565b6005602052805f5260405f205f915090505481565b60025f5403610a8a576040517f3ee5aeb500000000000000000000000000000000000000000000000000000000815260040160405180910390fd5b60025f81905550565b5f81604051602001610aa59190611672565b604051602081830303815290604052805190602001209050919050565b5f805f80610ad08686610af5565b925092509250610ae08282610b4a565b82935050505092915050565b60015f81905550565b5f805f6041845103610b35575f805f602087015192506040870151915060608701515f1a9050610b2788828585610cac565b955095509550505050610b43565b5f600285515f1b9250925092505b9250925092565b5f6003811115610b5d57610b5c611697565b5b826003811115610b7057610b6f611697565b5b0315610ca85760016003811115610b8a57610b89611697565b5b826003811115610b9d57610b9c611697565b5b03610bd4576040517ff645eedf00000000000000000000000000000000000000000000000000000000815260040160405180910390fd5b60026003811115610be857610be7611697565b5b826003811115610bfb57610bfa611697565b5b03610c3f57805f1c6040517ffce698f7000000000000000000000000000000000000000000000000000000008152600401610c369190610ea4565b60405180910390fd5b600380811115610c5257610c51611697565b5b826003811115610c6557610c64611697565b5b03610ca757806040517fd78bce0c000000000000000000000000000000000000000000000000000000008152600401610c9e91906116d3565b60405180910390fd5b5b5050565b5f805f7f7fffffffffffffffffffffffffffffff5d576e7357a4501ddfe92f46681b20a0845f1c1115610ce8575f600385925092509250610d89565b5f6001888888886040515f8152602001604052604051610d0b9493929190611707565b6020604051602081039080840390855afa158015610d2b573d5f803e3d5ffd5b5050506020604051035190505f73ffffffffffffffffffffffffffffffffffffffff168173ffffffffffffffffffffffffffffffffffffffff1603610d7c575f60015f801b93509350935050610d89565b805f805f1b935093509350505b9450945094915050565b5f73ffffffffffffffffffffffffffffffffffffffff82169050919050565b5f819050919050565b5f610dd5610dd0610dcb84610d93565b610db2565b610d93565b9050919050565b5f610de682610dbb565b9050919050565b5f610df782610ddc565b9050919050565b610e0781610ded565b82525050565b5f602082019050610e205f830184610dfe565b92915050565b5f604051905090565b5f80fd5b5f80fd5b5f819050919050565b610e4981610e37565b8114610e53575f80fd5b50565b5f81359050610e6481610e40565b92915050565b5f60208284031215610e7f57610e7e610e2f565b5b5f610e8c84828501610e56565b91505092915050565b610e9e81610e37565b82525050565b5f602082019050610eb75f830184610e95565b92915050565b5f610ec782610d93565b9050919050565b610ed781610ebd565b8114610ee1575f80fd5b50565b5f81359050610ef281610ece565b92915050565b5f80fd5b5f80fd5b5f601f19601f8301169050919050565b7f4e487b71000000000000000000000000000000000000000000000000000000005f52604160045260245ffd5b610f4682610f00565b810181811067ffffffffffffffff82111715610f6557610f64610f10565b5b80604052505050565b5f610f77610e26565b9050610f838282610f3d565b919050565b5f67ffffffffffffffff821115610fa257610fa1610f10565b5b610fab82610f00565b9050602081019050919050565b828183375f83830152505050565b5f610fd8610fd384610f88565b610f6e565b905082815260208101848484011115610ff457610ff3610efc565b5b610fff848285610fb8565b509392505050565b5f82601f83011261101b5761101a610ef8565b5b813561102b848260208601610fc6565b91505092915050565b5f805f805f60a0868803121561104d5761104c610e2f565b5b5f61105a88828901610ee4565b955050602061106b88828901610e56565b945050604061107c88828901610e56565b935050606061108d88828901610e56565b925050608086013567ffffffffffffffff8111156110ae576110ad610e33565b5b6110ba88828901611007565b9150509295509295909350565b5f602082840312156110dc576110db610e2f565b5b5f6110e984828501610ee4565b91505092915050565b6110fb81610ebd565b82525050565b5f6020820190506111145f8301846110f2565b92915050565b5f82825260208201905092915050565b7f4f6e6c792061646d696e2063616e2075706461746520666565000000000000005f82015250565b5f61115e60198361111a565b91506111698261112a565b602082019050919050565b5f6020820190508181035f83015261118b81611152565b9050919050565b7f416d6f756e74206d757374206265203e203000000000000000000000000000005f82015250565b5f6111c660128361111a565b91506111d182611192565b602082019050919050565b5f6020820190508181035f8301526111f3816111ba565b9050919050565b7f496e76616c6964206e6f6e6365000000000000000000000000000000000000005f82015250565b5f61122e600d8361111a565b9150611239826111fa565b602082019050919050565b5f6020820190508181035f83015261125b81611222565b9050919050565b5f8160601b9050919050565b5f61127882611262565b9050919050565b5f6112898261126e565b9050919050565b6112a161129c82610ebd565b61127f565b82525050565b5f819050919050565b6112c16112bc82610e37565b6112a7565b82525050565b5f6112d28288611290565b6014820191506112e282876112b0565b6020820191506112f282866112b0565b60208201915061130282856112b0565b6020820191506113128284611290565b6014820191508190509695505050505050565b7f496e76616c6964207369676e61747572650000000000000000000000000000005f82015250565b5f61135960118361111a565b915061136482611325565b602082019050919050565b5f6020820190508181035f8301526113868161134d565b9050919050565b7f4e487b71000000000000000000000000000000000000000000000000000000005f52601160045260245ffd5b5f6113c482610e37565b91507fffffffffffffffffffffffffffffffffffffffffffffffffffffffffffffffff82036113f6576113f561138d565b5b600182019050919050565b5f6060820190506114145f8301866110f2565b61142160208301856110f2565b61142e6040830184610e95565b949350505050565b5f8115159050919050565b61144a81611436565b8114611454575f80fd5b50565b5f8151905061146581611441565b92915050565b5f602082840312156114805761147f610e2f565b5b5f61148d84828501611457565b91505092915050565b7f46494220666565207472616e73666572206661696c65640000000000000000005f82015250565b5f6114ca60178361111a565b91506114d582611496565b602082019050919050565b5f6020820190508181035f8301526114f7816114be565b9050919050565b7f55534443207472616e73666572206661696c65640000000000000000000000005f82015250565b5f61153260148361111a565b915061153d826114fe565b602082019050919050565b5f6020820190508181035f83015261155f81611526565b9050919050565b5f61157082610e37565b915061157b83610e37565b92508282019050808211156115935761159261138d565b5b92915050565b5f6060820190506115ac5f830186610e95565b6115b96020830185610e95565b6115c66040830184610e95565b949350505050565b5f6040820190506115e15f830185610e95565b6115ee6020830184610e95565b9392505050565b5f81905092915050565b7f19457468657265756d205369676e6564204d6573736167653a0a3332000000005f82015250565b5f611633601c836115f5565b915061163e826115ff565b601c82019050919050565b5f819050919050565b5f819050919050565b61166c61166782611649565b611652565b82525050565b5f61167c82611627565b9150611688828461165b565b60208201915081905092915050565b7f4e487b71000000000000000000000000000000000000000000000000000000005f52602160045260245ffd5b6116cd81611649565b82525050565b5f6020820190506116e65f8301846116c4565b92915050565b5f60ff82169050919050565b611701816116ec565b82525050565b5f60808201905061171a5f8301876116c4565b61172760208301866116f8565b61173460408301856116c4565b61174160608301846116c4565b9594505050505056fea264697066735822122075bd44d6c03c454cb1b3a4c2f39e4c526d388d6fab6609a47914b3f856b9f7c164736f6c634300081a0033",
					"opcodes": "PUSH1 0x80 PUSH1 0x40 MSTORE PUSH20 0x1241676D45B1CB5B573B6258C4A838E149A1D191 PUSH1 0x2 PUSH0 PUSH2 0x100 EXP DUP2 SLOAD DUP2 PUSH20 0xFFFFFFFFFFFFFFFFFFFFFFFFFFFFFFFFFFFFFFFF MUL NOT AND SWAP1 DUP4 PUSH20 0xFFFFFFFFFFFFFFFFFFFFFFFFFFFFFFFFFFFFFFFF AND MUL OR SWAP1 SSTORE POP PUSH20 0x132CA3EFF205D1F01A71E3D2E41B00056AF5C64E PUSH1 0x3 PUSH0 PUSH2 0x100 EXP DUP2 SLOAD DUP2 PUSH20 0xFFFFFFFFFFFFFFFFFFFFFFFFFFFFFFFFFFFFFFFF MUL NOT AND SWAP1 DUP4 PUSH20 0xFFFFFFFFFFFFFFFFFFFFFFFFFFFFFFFFFFFFFFFF AND MUL OR SWAP1 SSTORE POP PUSH8 0x8AC7230489E80000 PUSH1 0x4 SSTORE CALLVALUE DUP1 ISZERO PUSH2 0xC3 JUMPI PUSH0 DUP1 REVERT JUMPDEST POP PUSH1 0x1 PUSH0 DUP2 SWAP1 SSTORE POP CALLER PUSH1 0x1 PUSH0 PUSH2 0x100 EXP DUP2 SLOAD DUP2 PUSH20 0xFFFFFFFFFFFFFFFFFFFFFFFFFFFFFFFFFFFFFFFF MUL NOT AND SWAP1 DUP4 PUSH20 0xFFFFFFFFFFFFFFFFFFFFFFFFFFFFFFFFFFFFFFFF AND MUL OR SWAP1 SSTORE POP PUSH2 0x1780 DUP1 PUSH2 0x118 PUSH0 CODECOPY PUSH0 RETURN INVALID PUSH1 0x80 PUSH1 0x40 MSTORE CALLVALUE DUP1 ISZERO PUSH2 0xF JUMPI PUSH0 DUP1 REVERT JUMPDEST POP PUSH1 0x4 CALLDATASIZE LT PUSH2 0x91 JUMPI PUSH0 CALLDATALOAD PUSH1 0xE0 SHR DUP1 PUSH4 0x70E5A898 GT PUSH2 0x64 JUMPI DUP1 PUSH4 0x70E5A898 EQ PUSH2 0x109 JUMPI DUP1 PUSH4 0x7ECEBE00 EQ PUSH2 0x125 JUMPI DUP1 PUSH4 0x9246AA9A EQ PUSH2 0x155 JUMPI DUP1 PUSH4 0xF851A440 EQ PUSH2 0x173 JUMPI DUP1 PUSH4 0xFC7E286D EQ PUSH2 0x191 JUMPI PUSH2 0x91 JUMP JUMPDEST DUP1 PUSH4 0x3E413BEE EQ PUSH2 0x95 JUMPI DUP1 PUSH4 0x50B42065 EQ PUSH2 0xB3 JUMPI DUP1 PUSH4 0x5448E8C4 EQ PUSH2 0xCF JUMPI DUP1 PUSH4 0x69CE1E3E EQ PUSH2 0xED JUMPI JUMPDEST PUSH0 DUP1 REVERT JUMPDEST PUSH2 0x9D PUSH2 0x1C1 JUMP JUMPDEST PUSH1 0x40 MLOAD PUSH2 0xAA SWAP2 SWAP1 PUSH2 0xE0D JUMP JUMPDEST PUSH1 0x40 MLOAD DUP1 SWAP2 SUB SWAP1 RETURN JUMPDEST PUSH2 0xCD PUSH1 0x4 DUP1 CALLDATASIZE SUB DUP2 ADD SWAP1 PUSH2 0xC8 SWAP2 SWAP1 PUSH2 0xE6A JUMP JUMPDEST PUSH2 0x1E6 JUMP JUMPDEST STOP JUMPDEST PUSH2 0xD7 PUSH2 0x27F JUMP JUMPDEST PUSH1 0x40 MLOAD PUSH2 0xE4 SWAP2 SWAP1 PUSH2 0xEA4 JUMP JUMPDEST PUSH1 0x40 MLOAD DUP1 SWAP2 SUB SWAP1 RETURN JUMPDEST PUSH2 0x107 PUSH1 0x4 DUP1 CALLDATASIZE SUB DUP2 ADD SWAP1 PUSH2 0x102 SWAP2 SWAP1 PUSH2 0x1034 JUMP JUMPDEST PUSH2 0x285 JUMP JUMPDEST STOP JUMPDEST PUSH2 0x123 PUSH1 0x4 DUP1 CALLDATASIZE SUB DUP2 ADD SWAP1 PUSH2 0x11E SWAP2 SWAP1 PUSH2 0xE6A JUMP JUMPDEST PUSH2 0x706 JUMP JUMPDEST STOP JUMPDEST PUSH2 0x13F PUSH1 0x4 DUP1 CALLDATASIZE SUB DUP2 ADD SWAP1 PUSH2 0x13A SWAP2 SWAP1 PUSH2 0x10C7 JUMP JUMPDEST PUSH2 0x9DB JUMP JUMPDEST PUSH1 0x40 MLOAD PUSH2 0x14C SWAP2 SWAP1 PUSH2 0xEA4 JUMP JUMPDEST PUSH1 0x40 MLOAD DUP1 SWAP2 SUB SWAP1 RETURN JUMPDEST PUSH2 0x15D PUSH2 0x9F0 JUMP JUMPDEST PUSH1 0x40 MLOAD PUSH2 0x16A SWAP2 SWAP1 PUSH2 0xE0D JUMP JUMPDEST PUSH1 0x40 MLOAD DUP1 SWAP2 SUB SWAP1 RETURN JUMPDEST PUSH2 0x17B PUSH2 0xA15 JUMP JUMPDEST PUSH1 0x40 MLOAD PUSH2 0x188 SWAP2 SWAP1 PUSH2 0x1101 JUMP JUMPDEST PUSH1 0x40 MLOAD DUP1 SWAP2 SUB SWAP1 RETURN JUMPDEST PUSH2 0x1AB PUSH1 0x4 DUP1 CALLDATASIZE SUB DUP2 ADD SWAP1 PUSH2 0x1A6 SWAP2 SWAP1 PUSH2 0x10C7 JUMP JUMPDEST PUSH2 0xA3A JUMP JUMPDEST PUSH1 0x40 MLOAD PUSH2 0x1B8 SWAP2 SWAP1 PUSH2 0xEA4 JUMP JUMPDEST PUSH1 0x40 MLOAD DUP1 SWAP2 SUB SWAP1 RETURN JUMPDEST PUSH1 0x2 PUSH0 SWAP1 SLOAD SWAP1 PUSH2 0x100 EXP SWAP1 DIV PUSH20 0xFFFFFFFFFFFFFFFFFFFFFFFFFFFFFFFFFFFFFFFF AND DUP2 JUMP JUMPDEST PUSH1 0x1 PUSH0 SWAP1 SLOAD SWAP1 PUSH2 0x100 EXP SWAP1 DIV PUSH20 0xFFFFFFFFFFFFFFFFFFFFFFFFFFFFFFFFFFFFFFFF AND PUSH20 0xFFFFFFFFFFFFFFFFFFFFFFFFFFFFFFFFFFFFFFFF AND CALLER PUSH20 0xFFFFFFFFFFFFFFFFFFFFFFFFFFFFFFFFFFFFFFFF AND EQ PUSH2 0x275 JUMPI PUSH1 0x40 MLOAD PUSH32 0x8C379A000000000000000000000000000000000000000000000000000000000 DUP2 MSTORE PUSH1 0x4 ADD PUSH2 0x26C SWAP1 PUSH2 0x1174 JUMP JUMPDEST PUSH1 0x40 MLOAD DUP1 SWAP2 SUB SWAP1 REVERT JUMPDEST DUP1 PUSH1 0x4 DUP2 SWAP1 SSTORE POP POP JUMP JUMPDEST PUSH1 0x4 SLOAD DUP2 JUMP JUMPDEST PUSH2 0x28D PUSH2 0xA4F JUMP JUMPDEST PUSH0 DUP5 GT PUSH2 0x2CF JUMPI PUSH1 0x40 MLOAD PUSH32 0x8C379A000000000000000000000000000000000000000000000000000000000 DUP2 MSTORE PUSH1 0x4 ADD PUSH2 0x2C6 SWAP1 PUSH2 0x11DC JUMP JUMPDEST PUSH1 0x40 MLOAD DUP1 SWAP2 SUB SWAP1 REVERT JUMPDEST PUSH1 0x6 PUSH0 DUP7 PUSH20 0xFFFFFFFFFFFFFFFFFFFFFFFFFFFFFFFFFFFFFFFF AND PUSH20 0xFFFFFFFFFFFFFFFFFFFFFFFFFFFFFFFFFFFFFFFF AND DUP2 MSTORE PUSH1 0x20 ADD SWAP1 DUP2 MSTORE PUSH1 0x20 ADD PUSH0 KECCAK256 SLOAD DUP3 EQ PUSH2 0x34E JUMPI PUSH1 0x40 MLOAD PUSH32 0x8C379A000000000000000000000000000000000000000000000000000000000 DUP2 MSTORE PUSH1 0x4 ADD PUSH2 0x345 SWAP1 PUSH2 0x1244 JUMP JUMPDEST PUSH1 0x40 MLOAD DUP1 SWAP2 SUB SWAP1 REVERT JUMPDEST PUSH0 DUP6 DUP6 DUP6 DUP6 ADDRESS PUSH1 0x40 MLOAD PUSH1 0x20 ADD PUSH2 0x368 SWAP6 SWAP5 SWAP4 SWAP3 SWAP2 SWAP1 PUSH2 0x12C7 JUMP JUMPDEST PUSH1 0x40 MLOAD PUSH1 0x20 DUP2 DUP4 SUB SUB DUP2 MSTORE SWAP1 PUSH1 0x40 MSTORE DUP1 MLOAD SWAP1 PUSH1 0x20 ADD KECCAK256 SWAP1 POP PUSH0 PUSH2 0x38A DUP3 PUSH2 0xA93 JUMP JUMPDEST SWAP1 POP DUP7 PUSH20 0xFFFFFFFFFFFFFFFFFFFFFFFFFFFFFFFFFFFFFFFF AND PUSH2 0x3B6 DUP5 DUP4 PUSH2 0xAC2 SWAP1 SWAP2 SWAP1 PUSH4 0xFFFFFFFF AND JUMP JUMPDEST PUSH20 0xFFFFFFFFFFFFFFFFFFFFFFFFFFFFFFFFFFFFFFFF AND EQ PUSH2 0x40C JUMPI PUSH1 0x40 MLOAD PUSH32 0x8C379A000000000000000000000000000000000000000000000000000000000 DUP2 MSTORE PUSH1 0x4 ADD PUSH2 0x403 SWAP1 PUSH2 0x136F JUMP JUMPDEST PUSH1 0x40 MLOAD DUP1 SWAP2 SUB SWAP1 REVERT JUMPDEST PUSH1 0x6 PUSH0 DUP9 PUSH20 0xFFFFFFFFFFFFFFFFFFFFFFFFFFFFFFFFFFFFFFFF AND PUSH20 0xFFFFFFFFFFFFFFFFFFFFFFFFFFFFFFFFFFFFFFFF AND DUP2 MSTORE PUSH1 0x20 ADD SWAP1 DUP2 MSTORE PUSH1 0x20 ADD PUSH0 KECCAK256 PUSH0 DUP2 SLOAD DUP1 SWAP3 SWAP2 SWAP1 PUSH2 0x459 SWAP1 PUSH2 0x13BA JUMP JUMPDEST SWAP2 SWAP1 POP SSTORE POP PUSH1 0x3 PUSH0 SWAP1 SLOAD SWAP1 PUSH2 0x100 EXP SWAP1 DIV PUSH20 0xFFFFFFFFFFFFFFFFFFFFFFFFFFFFFFFFFFFFFFFF AND PUSH20 0xFFFFFFFFFFFFFFFFFFFFFFFFFFFFFFFFFFFFFFFF AND PUSH4 0x23B872DD DUP9 PUSH1 0x1 PUSH0 SWAP1 SLOAD SWAP1 PUSH2 0x100 EXP SWAP1 DIV PUSH20 0xFFFFFFFFFFFFFFFFFFFFFFFFFFFFFFFFFFFFFFFF AND DUP9 PUSH1 0x40 MLOAD DUP5 PUSH4 0xFFFFFFFF AND PUSH1 0xE0 SHL DUP2 MSTORE PUSH1 0x4 ADD PUSH2 0x4DD SWAP4 SWAP3 SWAP2 SWAP1 PUSH2 0x1401 JUMP JUMPDEST PUSH1 0x20 PUSH1 0x40 MLOAD DUP1 DUP4 SUB DUP2 PUSH0 DUP8 GAS CALL ISZERO DUP1 ISZERO PUSH2 0x4F9 JUMPI RETURNDATASIZE PUSH0 DUP1 RETURNDATACOPY RETURNDATASIZE PUSH0 REVERT JUMPDEST POP POP POP POP PUSH1 0x40 MLOAD RETURNDATASIZE PUSH1 0x1F NOT PUSH1 0x1F DUP3 ADD AND DUP3 ADD DUP1 PUSH1 0x40 MSTORE POP DUP2 ADD SWAP1 PUSH2 0x51D SWAP2 SWAP1 PUSH2 0x146B JUMP JUMPDEST PUSH2 0x55C JUMPI PUSH1 0x40 MLOAD PUSH32 0x8C379A000000000000000000000000000000000000000000000000000000000 DUP2 MSTORE PUSH1 0x4 ADD PUSH2 0x553 SWAP1 PUSH2 0x14E0 JUMP JUMPDEST PUSH1 0x40 MLOAD DUP1 SWAP2 SUB SWAP1 REVERT JUMPDEST PUSH1 0x2 PUSH0 SWAP1 SLOAD SWAP1 PUSH2 0x100 EXP SWAP1 DIV PUSH20 0xFFFFFFFFFFFFFFFFFFFFFFFFFFFFFFFFFFFFFFFF AND PUSH20 0xFFFFFFFFFFFFFFFFFFFFFFFFFFFFFFFFFFFFFFFF AND PUSH4 0x23B872DD DUP9 ADDRESS DUP10 PUSH1 0x40 MLOAD DUP5 PUSH4 0xFFFFFFFF AND PUSH1 0xE0 SHL DUP2 MSTORE PUSH1 0x4 ADD PUSH2 0x5BA SWAP4 SWAP3 SWAP2 SWAP1 PUSH2 0x1401 JUMP JUMPDEST PUSH1 0x20 PUSH1 0x40 MLOAD DUP1 DUP4 SUB DUP2 PUSH0 DUP8 GAS CALL ISZERO DUP1 ISZERO PUSH2 0x5D6 JUMPI RETURNDATASIZE PUSH0 DUP1 RETURNDATACOPY RETURNDATASIZE PUSH0 REVERT JUMPDEST POP POP POP POP PUSH1 0x40 MLOAD RETURNDATASIZE PUSH1 0x1F NOT PUSH1 0x1F DUP3 ADD AND DUP3 ADD DUP1 PUSH1 0x40 MSTORE POP DUP2 ADD SWAP1 PUSH2 0x5FA SWAP2 SWAP1 PUSH2 0x146B JUMP JUMPDEST PUSH2 0x639 JUMPI PUSH1 0x40 MLOAD PUSH32 0x8C379A000000000000000000000000000000000000000000000000000000000 DUP2 MSTORE PUSH1 0x4 ADD PUSH2 0x630 SWAP1 PUSH2 0x1548 JUMP JUMPDEST PUSH1 0x40 MLOAD DUP1 SWAP2 SUB SWAP1 REVERT JUMPDEST DUP6 PUSH1 0x5 PUSH0 DUP10 PUSH20 0xFFFFFFFFFFFFFFFFFFFFFFFFFFFFFFFFFFFFFFFF AND PUSH20 0xFFFFFFFFFFFFFFFFFFFFFFFFFFFFFFFFFFFFFFFF AND DUP2 MSTORE PUSH1 0x20 ADD SWAP1 DUP2 MSTORE PUSH1 0x20 ADD PUSH0 KECCAK256 PUSH0 DUP3 DUP3 SLOAD PUSH2 0x685 SWAP2 SWAP1 PUSH2 0x1566 JUMP JUMPDEST SWAP3 POP POP DUP2 SWAP1 SSTORE POP CALLER PUSH20 0xFFFFFFFFFFFFFFFFFFFFFFFFFFFFFFFFFFFFFFFF AND DUP8 PUSH20 0xFFFFFFFFFFFFFFFFFFFFFFFFFFFFFFFFFFFFFFFF AND PUSH32 0x5FF973AA502225EA0C12EB7DB88B004B0A0708A49E3369D50F92D806D178B824 DUP9 DUP9 DUP9 PUSH1 0x40 MLOAD PUSH2 0x6ED SWAP4 SWAP3 SWAP2 SWAP1 PUSH2 0x1599 JUMP JUMPDEST PUSH1 0x40 MLOAD DUP1 SWAP2 SUB SWAP1 LOG3 POP POP PUSH2 0x6FF PUSH2 0xAEC JUMP JUMPDEST POP POP POP POP POP JUMP JUMPDEST PUSH2 0x70E PUSH2 0xA4F JUMP JUMPDEST PUSH0 DUP2 GT PUSH2 0x750 JUMPI PUSH1 0x40 MLOAD PUSH32 0x8C379A000000000000000000000000000000000000000000000000000000000 DUP2 MSTORE PUSH1 0x4 ADD PUSH2 0x747 SWAP1 PUSH2 0x11DC JUMP JUMPDEST PUSH1 0x40 MLOAD DUP1 SWAP2 SUB SWAP1 REVERT JUMPDEST PUSH1 0x3 PUSH0 SWAP1 SLOAD SWAP1 PUSH2 0x100 EXP SWAP1 DIV PUSH20 0xFFFFFFFFFFFFFFFFFFFFFFFFFFFFFFFFFFFFFFFF AND PUSH20 0xFFFFFFFFFFFFFFFFFFFFFFFFFFFFFFFFFFFFFFFF AND PUSH4 0x23B872DD CALLER PUSH1 0x1 PUSH0 SWAP1 SLOAD SWAP1 PUSH2 0x100 EXP SWAP1 DIV PUSH20 0xFFFFFFFFFFFFFFFFFFFFFFFFFFFFFFFFFFFFFFFF AND PUSH1 0x4 SLOAD PUSH1 0x40 MLOAD DUP5 PUSH4 0xFFFFFFFF AND PUSH1 0xE0 SHL DUP2 MSTORE PUSH1 0x4 ADD PUSH2 0x7D1 SWAP4 SWAP3 SWAP2 SWAP1 PUSH2 0x1401 JUMP JUMPDEST PUSH1 0x20 PUSH1 0x40 MLOAD DUP1 DUP4 SUB DUP2 PUSH0 DUP8 GAS CALL ISZERO DUP1 ISZERO PUSH2 0x7ED JUMPI RETURNDATASIZE PUSH0 DUP1 RETURNDATACOPY RETURNDATASIZE PUSH0 REVERT JUMPDEST POP POP POP POP PUSH1 0x40 MLOAD RETURNDATASIZE PUSH1 0x1F NOT PUSH1 0x1F DUP3 ADD AND DUP3 ADD DUP1 PUSH1 0x40 MSTORE POP DUP2 ADD SWAP1 PUSH2 0x811 SWAP2 SWAP1 PUSH2 0x146B JUMP JUMPDEST PUSH2 0x850 JUMPI PUSH1 0x40 MLOAD PUSH32 0x8C379A000000000000000000000000000000000000000000000000000000000 DUP2 MSTORE PUSH1 0x4 ADD PUSH2 0x847 SWAP1 PUSH2 0x14E0 JUMP JUMPDEST PUSH1 0x40 MLOAD DUP1 SWAP2 SUB SWAP1 REVERT JUMPDEST PUSH1 0x2 PUSH0 SWAP1 SLOAD SWAP1 PUSH2 0x100 EXP SWAP1 DIV PUSH20 0xFFFFFFFFFFFFFFFFFFFFFFFFFFFFFFFFFFFFFFFF AND PUSH20 0xFFFFFFFFFFFFFFFFFFFFFFFFFFFFFFFFFFFFFFFF AND PUSH4 0x23B872DD CALLER ADDRESS DUP5 PUSH1 0x40 MLOAD DUP5 PUSH4 0xFFFFFFFF AND PUSH1 0xE0 SHL DUP2 MSTORE PUSH1 0x4 ADD PUSH2 0x8AE SWAP4 SWAP3 SWAP2 SWAP1 PUSH2 0x1401 JUMP JUMPDEST PUSH1 0x20 PUSH1 0x40 MLOAD DUP1 DUP4 SUB DUP2 PUSH0 DUP8 GAS CALL ISZERO DUP1 ISZERO PUSH2 0x8CA JUMPI RETURNDATASIZE PUSH0 DUP1 RETURNDATACOPY RETURNDATASIZE PUSH0 REVERT JUMPDEST POP POP POP POP PUSH1 0x40 MLOAD RETURNDATASIZE PUSH1 0x1F NOT PUSH1 0x1F DUP3 ADD AND DUP3 ADD DUP1 PUSH1 0x40 MSTORE POP DUP2 ADD SWAP1 PUSH2 0x8EE SWAP2 SWAP1 PUSH2 0x146B JUMP JUMPDEST PUSH2 0x92D JUMPI PUSH1 0x40 MLOAD PUSH32 0x8C379A000000000000000000000000000000000000000000000000000000000 DUP2 MSTORE PUSH1 0x4 ADD PUSH2 0x924 SWAP1 PUSH2 0x1548 JUMP JUMPDEST PUSH1 0x40 MLOAD DUP1 SWAP2 SUB SWAP1 REVERT JUMPDEST DUP1 PUSH1 0x5 PUSH0 CALLER PUSH20 0xFFFFFFFFFFFFFFFFFFFFFFFFFFFFFFFFFFFFFFFF AND PUSH20 0xFFFFFFFFFFFFFFFFFFFFFFFFFFFFFFFFFFFFFFFF AND DUP2 MSTORE PUSH1 0x20 ADD SWAP1 DUP2 MSTORE PUSH1 0x20 ADD PUSH0 KECCAK256 PUSH0 DUP3 DUP3 SLOAD PUSH2 0x979 SWAP2 SWAP1 PUSH2 0x1566 JUMP JUMPDEST SWAP3 POP POP DUP2 SWAP1 SSTORE POP CALLER PUSH20 0xFFFFFFFFFFFFFFFFFFFFFFFFFFFFFFFFFFFFFFFF AND PUSH32 0xD741E738A23FD18A03A26522320D9FC6CAC1FED483E215EA9150FBC2FC43385D DUP3 TIMESTAMP PUSH1 0x40 MLOAD PUSH2 0x9C8 SWAP3 SWAP2 SWAP1 PUSH2 0x15CE JUMP JUMPDEST PUSH1 0x40 MLOAD DUP1 SWAP2 SUB SWAP1 LOG2 PUSH2 0x9D8 PUSH2 0xAEC JUMP JUMPDEST POP JUMP JUMPDEST PUSH1 0x6 PUSH1 0x20 MSTORE DUP1 PUSH0 MSTORE PUSH1 0x40 PUSH0 KECCAK256 PUSH0 SWAP2 POP SWAP1 POP SLOAD DUP2 JUMP JUMPDEST PUSH1 0x3 PUSH0 SWAP1 SLOAD SWAP1 PUSH2 0x100 EXP SWAP1 DIV PUSH20 0xFFFFFFFFFFFFFFFFFFFFFFFFFFFFFFFFFFFFFFFF AND DUP2 JUMP JUMPDEST PUSH1 0x1 PUSH0 SWAP1 SLOAD SWAP1 PUSH2 0x100 EXP SWAP1 DIV PUSH20 0xFFFFFFFFFFFFFFFFFFFFFFFFFFFFFFFFFFFFFFFF AND DUP2 JUMP JUMPDEST PUSH1 0x5 PUSH1 0x20 MSTORE DUP1 PUSH0 MSTORE PUSH1 0x40 PUSH0 KECCAK256 PUSH0 SWAP2 POP SWAP1 POP SLOAD DUP2 JUMP JUMPDEST PUSH1 0x2 PUSH0 SLOAD SUB PUSH2 0xA8A JUMPI PUSH1 0x40 MLOAD PUSH32 0x3EE5AEB500000000000000000000000000000000000000000000000000000000 DUP2 MSTORE PUSH1 0x4 ADD PUSH1 0x40 MLOAD DUP1 SWAP2 SUB SWAP1 REVERT JUMPDEST PUSH1 0x2 PUSH0 DUP2 SWAP1 SSTORE POP JUMP JUMPDEST PUSH0 DUP2 PUSH1 0x40 MLOAD PUSH1 0x20 ADD PUSH2 0xAA5 SWAP2 SWAP1 PUSH2 0x1672 JUMP JUMPDEST PUSH1 0x40 MLOAD PUSH1 0x20 DUP2 DUP4 SUB SUB DUP2 MSTORE SWAP1 PUSH1 0x40 MSTORE DUP1 MLOAD SWAP1 PUSH1 0x20 ADD KECCAK256 SWAP1 POP SWAP2 SWAP1 POP JUMP JUMPDEST PUSH0 DUP1 PUSH0 DUP1 PUSH2 0xAD0 DUP7 DUP7 PUSH2 0xAF5 JUMP JUMPDEST SWAP3 POP SWAP3 POP SWAP3 POP PUSH2 0xAE0 DUP3 DUP3 PUSH2 0xB4A JUMP JUMPDEST DUP3 SWAP4 POP POP POP POP SWAP3 SWAP2 POP POP JUMP JUMPDEST PUSH1 0x1 PUSH0 DUP2 SWAP1 SSTORE POP JUMP JUMPDEST PUSH0 DUP1 PUSH0 PUSH1 0x41 DUP5 MLOAD SUB PUSH2 0xB35 JUMPI PUSH0 DUP1 PUSH0 PUSH1 0x20 DUP8 ADD MLOAD SWAP3 POP PUSH1 0x40 DUP8 ADD MLOAD SWAP2 POP PUSH1 0x60 DUP8 ADD MLOAD PUSH0 BYTE SWAP1 POP PUSH2 0xB27 DUP9 DUP3 DUP6 DUP6 PUSH2 0xCAC JUMP JUMPDEST SWAP6 POP SWAP6 POP SWAP6 POP POP POP POP PUSH2 0xB43 JUMP JUMPDEST PUSH0 PUSH1 0x2 DUP6 MLOAD PUSH0 SHL SWAP3 POP SWAP3 POP SWAP3 POP JUMPDEST SWAP3 POP SWAP3 POP SWAP3 JUMP JUMPDEST PUSH0 PUSH1 0x3 DUP2 GT ISZERO PUSH2 0xB5D JUMPI PUSH2 0xB5C PUSH2 0x1697 JUMP JUMPDEST JUMPDEST DUP3 PUSH1 0x3 DUP2 GT ISZERO PUSH2 0xB70 JUMPI PUSH2 0xB6F PUSH2 0x1697 JUMP JUMPDEST JUMPDEST SUB ISZERO PUSH2 0xCA8 JUMPI PUSH1 0x1 PUSH1 0x3 DUP2 GT ISZERO PUSH2 0xB8A JUMPI PUSH2 0xB89 PUSH2 0x1697 JUMP JUMPDEST JUMPDEST DUP3 PUSH1 0x3 DUP2 GT ISZERO PUSH2 0xB9D JUMPI PUSH2 0xB9C PUSH2 0x1697 JUMP JUMPDEST JUMPDEST SUB PUSH2 0xBD4 JUMPI PUSH1 0x40 MLOAD PUSH32 0xF645EEDF00000000000000000000000000000000000000000000000000000000 DUP2 MSTORE PUSH1 0x4 ADD PUSH1 0x40 MLOAD DUP1 SWAP2 SUB SWAP1 REVERT JUMPDEST PUSH1 0x2 PUSH1 0x3 DUP2 GT ISZERO PUSH2 0xBE8 JUMPI PUSH2 0xBE7 PUSH2 0x1697 JUMP JUMPDEST JUMPDEST DUP3 PUSH1 0x3 DUP2 GT ISZERO PUSH2 0xBFB JUMPI PUSH2 0xBFA PUSH2 0x1697 JUMP JUMPDEST JUMPDEST SUB PUSH2 0xC3F JUMPI DUP1 PUSH0 SHR PUSH1 0x40 MLOAD PUSH32 0xFCE698F700000000000000000000000000000000000000000000000000000000 DUP2 MSTORE PUSH1 0x4 ADD PUSH2 0xC36 SWAP2 SWAP1 PUSH2 0xEA4 JUMP JUMPDEST PUSH1 0x40 MLOAD DUP1 SWAP2 SUB SWAP1 REVERT JUMPDEST PUSH1 0x3 DUP1 DUP2 GT ISZERO PUSH2 0xC52 JUMPI PUSH2 0xC51 PUSH2 0x1697 JUMP JUMPDEST JUMPDEST DUP3 PUSH1 0x3 DUP2 GT ISZERO PUSH2 0xC65 JUMPI PUSH2 0xC64 PUSH2 0x1697 JUMP JUMPDEST JUMPDEST SUB PUSH2 0xCA7 JUMPI DUP1 PUSH1 0x40 MLOAD PUSH32 0xD78BCE0C00000000000000000000000000000000000000000000000000000000 DUP2 MSTORE PUSH1 0x4 ADD PUSH2 0xC9E SWAP2 SWAP1 PUSH2 0x16D3 JUMP JUMPDEST PUSH1 0x40 MLOAD DUP1 SWAP2 SUB SWAP1 REVERT JUMPDEST JUMPDEST POP POP JUMP JUMPDEST PUSH0 DUP1 PUSH0 PUSH32 0x7FFFFFFFFFFFFFFFFFFFFFFFFFFFFFFF5D576E7357A4501DDFE92F46681B20A0 DUP5 PUSH0 SHR GT ISZERO PUSH2 0xCE8 JUMPI PUSH0 PUSH1 0x3 DUP6 SWAP3 POP SWAP3 POP SWAP3 POP PUSH2 0xD89 JUMP JUMPDEST PUSH0 PUSH1 0x1 DUP9 DUP9 DUP9 DUP9 PUSH1 0x40 MLOAD PUSH0 DUP2 MSTORE PUSH1 0x20 ADD PUSH1 0x40 MSTORE PUSH1 0x40 MLOAD PUSH2 0xD0B SWAP5 SWAP4 SWAP3 SWAP2 SWAP1 PUSH2 0x1707 JUMP JUMPDEST PUSH1 0x20 PUSH1 0x40 MLOAD PUSH1 0x20 DUP2 SUB SWAP1 DUP1 DUP5 SUB SWAP1 DUP6 GAS STATICCALL ISZERO DUP1 ISZERO PUSH2 0xD2B JUMPI RETURNDATASIZE PUSH0 DUP1 RETURNDATACOPY RETURNDATASIZE PUSH0 REVERT JUMPDEST POP POP POP PUSH1 0x20 PUSH1 0x40 MLOAD SUB MLOAD SWAP1 POP PUSH0 PUSH20 0xFFFFFFFFFFFFFFFFFFFFFFFFFFFFFFFFFFFFFFFF AND DUP2 PUSH20 0xFFFFFFFFFFFFFFFFFFFFFFFFFFFFFFFFFFFFFFFF AND SUB PUSH2 0xD7C JUMPI PUSH0 PUSH1 0x1 PUSH0 DUP1 SHL SWAP4 POP SWAP4 POP SWAP4 POP POP PUSH2 0xD89 JUMP JUMPDEST DUP1 PUSH0 DUP1 PUSH0 SHL SWAP4 POP SWAP4 POP SWAP4 POP POP JUMPDEST SWAP5 POP SWAP5 POP SWAP5 SWAP2 POP POP JUMP JUMPDEST PUSH0 PUSH20 0xFFFFFFFFFFFFFFFFFFFFFFFFFFFFFFFFFFFFFFFF DUP3 AND SWAP1 POP SWAP2 SWAP1 POP JUMP JUMPDEST PUSH0 DUP2 SWAP1 POP SWAP2 SWAP1 POP JUMP JUMPDEST PUSH0 PUSH2 0xDD5 PUSH2 0xDD0 PUSH2 0xDCB DUP5 PUSH2 0xD93 JUMP JUMPDEST PUSH2 0xDB2 JUMP JUMPDEST PUSH2 0xD93 JUMP JUMPDEST SWAP1 POP SWAP2 SWAP1 POP JUMP JUMPDEST PUSH0 PUSH2 0xDE6 DUP3 PUSH2 0xDBB JUMP JUMPDEST SWAP1 POP SWAP2 SWAP1 POP JUMP JUMPDEST PUSH0 PUSH2 0xDF7 DUP3 PUSH2 0xDDC JUMP JUMPDEST SWAP1 POP SWAP2 SWAP1 POP JUMP JUMPDEST PUSH2 0xE07 DUP2 PUSH2 0xDED JUMP JUMPDEST DUP3 MSTORE POP POP JUMP JUMPDEST PUSH0 PUSH1 0x20 DUP3 ADD SWAP1 POP PUSH2 0xE20 PUSH0 DUP4 ADD DUP5 PUSH2 0xDFE JUMP JUMPDEST SWAP3 SWAP2 POP POP JUMP JUMPDEST PUSH0 PUSH1 0x40 MLOAD SWAP1 POP SWAP1 JUMP JUMPDEST PUSH0 DUP1 REVERT JUMPDEST PUSH0 DUP1 REVERT JUMPDEST PUSH0 DUP2 SWAP1 POP SWAP2 SWAP1 POP JUMP JUMPDEST PUSH2 0xE49 DUP2 PUSH2 0xE37 JUMP JUMPDEST DUP2 EQ PUSH2 0xE53 JUMPI PUSH0 DUP1 REVERT JUMPDEST POP JUMP JUMPDEST PUSH0 DUP2 CALLDATALOAD SWAP1 POP PUSH2 0xE64 DUP2 PUSH2 0xE40 JUMP JUMPDEST SWAP3 SWAP2 POP POP JUMP JUMPDEST PUSH0 PUSH1 0x20 DUP3 DUP5 SUB SLT ISZERO PUSH2 0xE7F JUMPI PUSH2 0xE7E PUSH2 0xE2F JUMP JUMPDEST JUMPDEST PUSH0 PUSH2 0xE8C DUP5 DUP3 DUP6 ADD PUSH2 0xE56 JUMP JUMPDEST SWAP2 POP POP SWAP3 SWAP2 POP POP JUMP JUMPDEST PUSH2 0xE9E DUP2 PUSH2 0xE37 JUMP JUMPDEST DUP3 MSTORE POP POP JUMP JUMPDEST PUSH0 PUSH1 0x20 DUP3 ADD SWAP1 POP PUSH2 0xEB7 PUSH0 DUP4 ADD DUP5 PUSH2 0xE95 JUMP JUMPDEST SWAP3 SWAP2 POP POP JUMP JUMPDEST PUSH0 PUSH2 0xEC7 DUP3 PUSH2 0xD93 JUMP JUMPDEST SWAP1 POP SWAP2 SWAP1 POP JUMP JUMPDEST PUSH2 0xED7 DUP2 PUSH2 0xEBD JUMP JUMPDEST DUP2 EQ PUSH2 0xEE1 JUMPI PUSH0 DUP1 REVERT JUMPDEST POP JUMP JUMPDEST PUSH0 DUP2 CALLDATALOAD SWAP1 POP PUSH2 0xEF2 DUP2 PUSH2 0xECE JUMP JUMPDEST SWAP3 SWAP2 POP POP JUMP JUMPDEST PUSH0 DUP1 REVERT JUMPDEST PUSH0 DUP1 REVERT JUMPDEST PUSH0 PUSH1 0x1F NOT PUSH1 0x1F DUP4 ADD AND SWAP1 POP SWAP2 SWAP1 POP JUMP JUMPDEST PUSH32 0x4E487B7100000000000000000000000000000000000000000000000000000000 PUSH0 MSTORE PUSH1 0x41 PUSH1 0x4 MSTORE PUSH1 0x24 PUSH0 REVERT JUMPDEST PUSH2 0xF46 DUP3 PUSH2 0xF00 JUMP JUMPDEST DUP2 ADD DUP2 DUP2 LT PUSH8 0xFFFFFFFFFFFFFFFF DUP3 GT OR ISZERO PUSH2 0xF65 JUMPI PUSH2 0xF64 PUSH2 0xF10 JUMP JUMPDEST JUMPDEST DUP1 PUSH1 0x40 MSTORE POP POP POP JUMP JUMPDEST PUSH0 PUSH2 0xF77 PUSH2 0xE26 JUMP JUMPDEST SWAP1 POP PUSH2 0xF83 DUP3 DUP3 PUSH2 0xF3D JUMP JUMPDEST SWAP2 SWAP1 POP JUMP JUMPDEST PUSH0 PUSH8 0xFFFFFFFFFFFFFFFF DUP3 GT ISZERO PUSH2 0xFA2 JUMPI PUSH2 0xFA1 PUSH2 0xF10 JUMP JUMPDEST JUMPDEST PUSH2 0xFAB DUP3 PUSH2 0xF00 JUMP JUMPDEST SWAP1 POP PUSH1 0x20 DUP2 ADD SWAP1 POP SWAP2 SWAP1 POP JUMP JUMPDEST DUP3 DUP2 DUP4 CALLDATACOPY PUSH0 DUP4 DUP4 ADD MSTORE POP POP POP JUMP JUMPDEST PUSH0 PUSH2 0xFD8 PUSH2 0xFD3 DUP5 PUSH2 0xF88 JUMP JUMPDEST PUSH2 0xF6E JUMP JUMPDEST SWAP1 POP DUP3 DUP2 MSTORE PUSH1 0x20 DUP2 ADD DUP5 DUP5 DUP5 ADD GT ISZERO PUSH2 0xFF4 JUMPI PUSH2 0xFF3 PUSH2 0xEFC JUMP JUMPDEST JUMPDEST PUSH2 0xFFF DUP5 DUP3 DUP6 PUSH2 0xFB8 JUMP JUMPDEST POP SWAP4 SWAP3 POP POP POP JUMP JUMPDEST PUSH0 DUP3 PUSH1 0x1F DUP4 ADD SLT PUSH2 0x101B JUMPI PUSH2 0x101A PUSH2 0xEF8 JUMP JUMPDEST JUMPDEST DUP2 CALLDATALOAD PUSH2 0x102B DUP5 DUP3 PUSH1 0x20 DUP7 ADD PUSH2 0xFC6 JUMP JUMPDEST SWAP2 POP POP SWAP3 SWAP2 POP POP JUMP JUMPDEST PUSH0 DUP1 PUSH0 DUP1 PUSH0 PUSH1 0xA0 DUP7 DUP9 SUB SLT ISZERO PUSH2 0x104D JUMPI PUSH2 0x104C PUSH2 0xE2F JUMP JUMPDEST JUMPDEST PUSH0 PUSH2 0x105A DUP9 DUP3 DUP10 ADD PUSH2 0xEE4 JUMP JUMPDEST SWAP6 POP POP PUSH1 0x20 PUSH2 0x106B DUP9 DUP3 DUP10 ADD PUSH2 0xE56 JUMP JUMPDEST SWAP5 POP POP PUSH1 0x40 PUSH2 0x107C DUP9 DUP3 DUP10 ADD PUSH2 0xE56 JUMP JUMPDEST SWAP4 POP POP PUSH1 0x60 PUSH2 0x108D DUP9 DUP3 DUP10 ADD PUSH2 0xE56 JUMP JUMPDEST SWAP3 POP POP PUSH1 0x80 DUP7 ADD CALLDATALOAD PUSH8 0xFFFFFFFFFFFFFFFF DUP2 GT ISZERO PUSH2 0x10AE JUMPI PUSH2 0x10AD PUSH2 0xE33 JUMP JUMPDEST JUMPDEST PUSH2 0x10BA DUP9 DUP3 DUP10 ADD PUSH2 0x1007 JUMP JUMPDEST SWAP2 POP POP SWAP3 SWAP6 POP SWAP3 SWAP6 SWAP1 SWAP4 POP JUMP JUMPDEST PUSH0 PUSH1 0x20 DUP3 DUP5 SUB SLT ISZERO PUSH2 0x10DC JUMPI PUSH2 0x10DB PUSH2 0xE2F JUMP JUMPDEST JUMPDEST PUSH0 PUSH2 0x10E9 DUP5 DUP3 DUP6 ADD PUSH2 0xEE4 JUMP JUMPDEST SWAP2 POP POP SWAP3 SWAP2 POP POP JUMP JUMPDEST PUSH2 0x10FB DUP2 PUSH2 0xEBD JUMP JUMPDEST DUP3 MSTORE POP POP JUMP JUMPDEST PUSH0 PUSH1 0x20 DUP3 ADD SWAP1 POP PUSH2 0x1114 PUSH0 DUP4 ADD DUP5 PUSH2 0x10F2 JUMP JUMPDEST SWAP3 SWAP2 POP POP JUMP JUMPDEST PUSH0 DUP3 DUP3 MSTORE PUSH1 0x20 DUP3 ADD SWAP1 POP SWAP3 SWAP2 POP POP JUMP JUMPDEST PUSH32 0x4F6E6C792061646D696E2063616E207570646174652066656500000000000000 PUSH0 DUP3 ADD MSTORE POP JUMP JUMPDEST PUSH0 PUSH2 0x115E PUSH1 0x19 DUP4 PUSH2 0x111A JUMP JUMPDEST SWAP2 POP PUSH2 0x1169 DUP3 PUSH2 0x112A JUMP JUMPDEST PUSH1 0x20 DUP3 ADD SWAP1 POP SWAP2 SWAP1 POP JUMP JUMPDEST PUSH0 PUSH1 0x20 DUP3 ADD SWAP1 POP DUP2 DUP2 SUB PUSH0 DUP4 ADD MSTORE PUSH2 0x118B DUP2 PUSH2 0x1152 JUMP JUMPDEST SWAP1 POP SWAP2 SWAP1 POP JUMP JUMPDEST PUSH32 0x416D6F756E74206D757374206265203E20300000000000000000000000000000 PUSH0 DUP3 ADD MSTORE POP JUMP JUMPDEST PUSH0 PUSH2 0x11C6 PUSH1 0x12 DUP4 PUSH2 0x111A JUMP JUMPDEST SWAP2 POP PUSH2 0x11D1 DUP3 PUSH2 0x1192 JUMP JUMPDEST PUSH1 0x20 DUP3 ADD SWAP1 POP SWAP2 SWAP1 POP JUMP JUMPDEST PUSH0 PUSH1 0x20 DUP3 ADD SWAP1 POP DUP2 DUP2 SUB PUSH0 DUP4 ADD MSTORE PUSH2 0x11F3 DUP2 PUSH2 0x11BA JUMP JUMPDEST SWAP1 POP SWAP2 SWAP1 POP JUMP JUMPDEST PUSH32 0x496E76616C6964206E6F6E636500000000000000000000000000000000000000 PUSH0 DUP3 ADD MSTORE POP JUMP JUMPDEST PUSH0 PUSH2 0x122E PUSH1 0xD DUP4 PUSH2 0x111A JUMP JUMPDEST SWAP2 POP PUSH2 0x1239 DUP3 PUSH2 0x11FA JUMP JUMPDEST PUSH1 0x20 DUP3 ADD SWAP1 POP SWAP2 SWAP1 POP JUMP JUMPDEST PUSH0 PUSH1 0x20 DUP3 ADD SWAP1 POP DUP2 DUP2 SUB PUSH0 DUP4 ADD MSTORE PUSH2 0x125B DUP2 PUSH2 0x1222 JUMP JUMPDEST SWAP1 POP SWAP2 SWAP1 POP JUMP JUMPDEST PUSH0 DUP2 PUSH1 0x60 SHL SWAP1 POP SWAP2 SWAP1 POP JUMP JUMPDEST PUSH0 PUSH2 0x1278 DUP3 PUSH2 0x1262 JUMP JUMPDEST SWAP1 POP SWAP2 SWAP1 POP JUMP JUMPDEST PUSH0 PUSH2 0x1289 DUP3 PUSH2 0x126E JUMP JUMPDEST SWAP1 POP SWAP2 SWAP1 POP JUMP JUMPDEST PUSH2 0x12A1 PUSH2 0x129C DUP3 PUSH2 0xEBD JUMP JUMPDEST PUSH2 0x127F JUMP JUMPDEST DUP3 MSTORE POP POP JUMP JUMPDEST PUSH0 DUP2 SWAP1 POP SWAP2 SWAP1 POP JUMP JUMPDEST PUSH2 0x12C1 PUSH2 0x12BC DUP3 PUSH2 0xE37 JUMP JUMPDEST PUSH2 0x12A7 JUMP JUMPDEST DUP3 MSTORE POP POP JUMP JUMPDEST PUSH0 PUSH2 0x12D2 DUP3 DUP9 PUSH2 0x1290 JUMP JUMPDEST PUSH1 0x14 DUP3 ADD SWAP2 POP PUSH2 0x12E2 DUP3 DUP8 PUSH2 0x12B0 JUMP JUMPDEST PUSH1 0x20 DUP3 ADD SWAP2 POP PUSH2 0x12F2 DUP3 DUP7 PUSH2 0x12B0 JUMP JUMPDEST PUSH1 0x20 DUP3 ADD SWAP2 POP PUSH2 0x1302 DUP3 DUP6 PUSH2 0x12B0 JUMP JUMPDEST PUSH1 0x20 DUP3 ADD SWAP2 POP PUSH2 0x1312 DUP3 DUP5 PUSH2 0x1290 JUMP JUMPDEST PUSH1 0x14 DUP3 ADD SWAP2 POP DUP2 SWAP1 POP SWAP7 SWAP6 POP POP POP POP POP POP JUMP JUMPDEST PUSH32 0x496E76616C6964207369676E6174757265000000000000000000000000000000 PUSH0 DUP3 ADD MSTORE POP JUMP JUMPDEST PUSH0 PUSH2 0x1359 PUSH1 0x11 DUP4 PUSH2 0x111A JUMP JUMPDEST SWAP2 POP PUSH2 0x1364 DUP3 PUSH2 0x1325 JUMP JUMPDEST PUSH1 0x20 DUP3 ADD SWAP1 POP SWAP2 SWAP1 POP JUMP JUMPDEST PUSH0 PUSH1 0x20 DUP3 ADD SWAP1 POP DUP2 DUP2 SUB PUSH0 DUP4 ADD MSTORE PUSH2 0x1386 DUP2 PUSH2 0x134D JUMP JUMPDEST SWAP1 POP SWAP2 SWAP1 POP JUMP JUMPDEST PUSH32 0x4E487B7100000000000000000000000000000000000000000000000000000000 PUSH0 MSTORE PUSH1 0x11 PUSH1 0x4 MSTORE PUSH1 0x24 PUSH0 REVERT JUMPDEST PUSH0 PUSH2 0x13C4 DUP3 PUSH2 0xE37 JUMP JUMPDEST SWAP2 POP PUSH32 0xFFFFFFFFFFFFFFFFFFFFFFFFFFFFFFFFFFFFFFFFFFFFFFFFFFFFFFFFFFFFFFFF DUP3 SUB PUSH2 0x13F6 JUMPI PUSH2 0x13F5 PUSH2 0x138D JUMP JUMPDEST JUMPDEST PUSH1 0x1 DUP3 ADD SWAP1 POP SWAP2 SWAP1 POP JUMP JUMPDEST PUSH0 PUSH1 0x60 DUP3 ADD SWAP1 POP PUSH2 0x1414 PUSH0 DUP4 ADD DUP7 PUSH2 0x10F2 JUMP JUMPDEST PUSH2 0x1421 PUSH1 0x20 DUP4 ADD DUP6 PUSH2 0x10F2 JUMP JUMPDEST PUSH2 0x142E PUSH1 0x40 DUP4 ADD DUP5 PUSH2 0xE95 JUMP JUMPDEST SWAP5 SWAP4 POP POP POP POP JUMP JUMPDEST PUSH0 DUP2 ISZERO ISZERO SWAP1 POP SWAP2 SWAP1 POP JUMP JUMPDEST PUSH2 0x144A DUP2 PUSH2 0x1436 JUMP JUMPDEST DUP2 EQ PUSH2 0x1454 JUMPI PUSH0 DUP1 REVERT JUMPDEST POP JUMP JUMPDEST PUSH0 DUP2 MLOAD SWAP1 POP PUSH2 0x1465 DUP2 PUSH2 0x1441 JUMP JUMPDEST SWAP3 SWAP2 POP POP JUMP JUMPDEST PUSH0 PUSH1 0x20 DUP3 DUP5 SUB SLT ISZERO PUSH2 0x1480 JUMPI PUSH2 0x147F PUSH2 0xE2F JUMP JUMPDEST JUMPDEST PUSH0 PUSH2 0x148D DUP5 DUP3 DUP6 ADD PUSH2 0x1457 JUMP JUMPDEST SWAP2 POP POP SWAP3 SWAP2 POP POP JUMP JUMPDEST PUSH32 0x46494220666565207472616E73666572206661696C6564000000000000000000 PUSH0 DUP3 ADD MSTORE POP JUMP JUMPDEST PUSH0 PUSH2 0x14CA PUSH1 0x17 DUP4 PUSH2 0x111A JUMP JUMPDEST SWAP2 POP PUSH2 0x14D5 DUP3 PUSH2 0x1496 JUMP JUMPDEST PUSH1 0x20 DUP3 ADD SWAP1 POP SWAP2 SWAP1 POP JUMP JUMPDEST PUSH0 PUSH1 0x20 DUP3 ADD SWAP1 POP DUP2 DUP2 SUB PUSH0 DUP4 ADD MSTORE PUSH2 0x14F7 DUP2 PUSH2 0x14BE JUMP JUMPDEST SWAP1 POP SWAP2 SWAP1 POP JUMP JUMPDEST PUSH32 0x55534443207472616E73666572206661696C6564000000000000000000000000 PUSH0 DUP3 ADD MSTORE POP JUMP JUMPDEST PUSH0 PUSH2 0x1532 PUSH1 0x14 DUP4 PUSH2 0x111A JUMP JUMPDEST SWAP2 POP PUSH2 0x153D DUP3 PUSH2 0x14FE JUMP JUMPDEST PUSH1 0x20 DUP3 ADD SWAP1 POP SWAP2 SWAP1 POP JUMP JUMPDEST PUSH0 PUSH1 0x20 DUP3 ADD SWAP1 POP DUP2 DUP2 SUB PUSH0 DUP4 ADD MSTORE PUSH2 0x155F DUP2 PUSH2 0x1526 JUMP JUMPDEST SWAP1 POP SWAP2 SWAP1 POP JUMP JUMPDEST PUSH0 PUSH2 0x1570 DUP3 PUSH2 0xE37 JUMP JUMPDEST SWAP2 POP PUSH2 0x157B DUP4 PUSH2 0xE37 JUMP JUMPDEST SWAP3 POP DUP3 DUP3 ADD SWAP1 POP DUP1 DUP3 GT ISZERO PUSH2 0x1593 JUMPI PUSH2 0x1592 PUSH2 0x138D JUMP JUMPDEST JUMPDEST SWAP3 SWAP2 POP POP JUMP JUMPDEST PUSH0 PUSH1 0x60 DUP3 ADD SWAP1 POP PUSH2 0x15AC PUSH0 DUP4 ADD DUP7 PUSH2 0xE95 JUMP JUMPDEST PUSH2 0x15B9 PUSH1 0x20 DUP4 ADD DUP6 PUSH2 0xE95 JUMP JUMPDEST PUSH2 0x15C6 PUSH1 0x40 DUP4 ADD DUP5 PUSH2 0xE95 JUMP JUMPDEST SWAP5 SWAP4 POP POP POP POP JUMP JUMPDEST PUSH0 PUSH1 0x40 DUP3 ADD SWAP1 POP PUSH2 0x15E1 PUSH0 DUP4 ADD DUP6 PUSH2 0xE95 JUMP JUMPDEST PUSH2 0x15EE PUSH1 0x20 DUP4 ADD DUP5 PUSH2 0xE95 JUMP JUMPDEST SWAP4 SWAP3 POP POP POP JUMP JUMPDEST PUSH0 DUP2 SWAP1 POP SWAP3 SWAP2 POP POP JUMP JUMPDEST PUSH32 0x19457468657265756D205369676E6564204D6573736167653A0A333200000000 PUSH0 DUP3 ADD MSTORE POP JUMP JUMPDEST PUSH0 PUSH2 0x1633 PUSH1 0x1C DUP4 PUSH2 0x15F5 JUMP JUMPDEST SWAP2 POP PUSH2 0x163E DUP3 PUSH2 0x15FF JUMP JUMPDEST PUSH1 0x1C DUP3 ADD SWAP1 POP SWAP2 SWAP1 POP JUMP JUMPDEST PUSH0 DUP2 SWAP1 POP SWAP2 SWAP1 POP JUMP JUMPDEST PUSH0 DUP2 SWAP1 POP SWAP2 SWAP1 POP JUMP JUMPDEST PUSH2 0x166C PUSH2 0x1667 DUP3 PUSH2 0x1649 JUMP JUMPDEST PUSH2 0x1652 JUMP JUMPDEST DUP3 MSTORE POP POP JUMP JUMPDEST PUSH0 PUSH2 0x167C DUP3 PUSH2 0x1627 JUMP JUMPDEST SWAP2 POP PUSH2 0x1688 DUP3 DUP5 PUSH2 0x165B JUMP JUMPDEST PUSH1 0x20 DUP3 ADD SWAP2 POP DUP2 SWAP1 POP SWAP3 SWAP2 POP POP JUMP JUMPDEST PUSH32 0x4E487B7100000000000000000000000000000000000000000000000000000000 PUSH0 MSTORE PUSH1 0x21 PUSH1 0x4 MSTORE PUSH1 0x24 PUSH0 REVERT JUMPDEST PUSH2 0x16CD DUP2 PUSH2 0x1649 JUMP JUMPDEST DUP3 MSTORE POP POP JUMP JUMPDEST PUSH0 PUSH1 0x20 DUP3 ADD SWAP1 POP PUSH2 0x16E6 PUSH0 DUP4 ADD DUP5 PUSH2 0x16C4 JUMP JUMPDEST SWAP3 SWAP2 POP POP JUMP JUMPDEST PUSH0 PUSH1 0xFF DUP3 AND SWAP1 POP SWAP2 SWAP1 POP JUMP JUMPDEST PUSH2 0x1701 DUP2 PUSH2 0x16EC JUMP JUMPDEST DUP3 MSTORE POP POP JUMP JUMPDEST PUSH0 PUSH1 0x80 DUP3 ADD SWAP1 POP PUSH2 0x171A PUSH0 DUP4 ADD DUP8 PUSH2 0x16C4 JUMP JUMPDEST PUSH2 0x1727 PUSH1 0x20 DUP4 ADD DUP7 PUSH2 0x16F8 JUMP JUMPDEST PUSH2 0x1734 PUSH1 0x40 DUP4 ADD DUP6 PUSH2 0x16C4 JUMP JUMPDEST PUSH2 0x1741 PUSH1 0x60 DUP4 ADD DUP5 PUSH2 0x16C4 JUMP JUMPDEST SWAP6 SWAP5 POP POP POP POP POP JUMP INVALID LOG2 PUSH5 0x6970667358 0x22 SLT KECCAK256 PUSH22 0xBD44D6C03C454CB1B3A4C2F39E4C526D388D6FAB6609 LOG4 PUSH26 0x14B3F856B9F7C164736F6C634300081A00330000000000000000 "
				},
				"gasEstimates": {
					"creation": {
						"codeDepositCost": "1203200",
						"executionCost": "118262",
						"totalCost": "1321462"
					},
					"external": {
						"admin()": "2574",
						"bridgeTokens(uint256)": "infinite",
						"bridgeTokensMeta(address,uint256,uint256,uint256,bytes)": "infinite",
						"deposits(address)": "2890",
						"fib()": "infinite",
						"fibFee()": "2470",
						"nonces(address)": "2824",
						"updateFibFee(uint256)": "24707",
						"usdc()": "infinite"
					},
					"internal": {
						"getEthSignedMessageHash(bytes32)": "infinite"
					}
				},
				"methodIdentifiers": {
					"admin()": "f851a440",
					"bridgeTokens(uint256)": "70e5a898",
					"bridgeTokensMeta(address,uint256,uint256,uint256,bytes)": "69ce1e3e",
					"deposits(address)": "fc7e286d",
					"fib()": "9246aa9a",
					"fibFee()": "5448e8c4",
					"nonces(address)": "7ecebe00",
					"updateFibFee(uint256)": "50b42065",
					"usdc()": "3e413bee"
				}
			},
			"storageLayout": {
				"storage": [
					{
						"astId": 10,
						"contract": "contracts/flibber/test.sol:EthBridge",
						"label": "_status",
						"offset": 0,
						"slot": "0",
						"type": "t_uint256"
					},
					{
						"astId": 76,
						"contract": "contracts/flibber/test.sol:EthBridge",
						"label": "admin",
						"offset": 0,
						"slot": "1",
						"type": "t_address"
					},
					{
						"astId": 82,
						"contract": "contracts/flibber/test.sol:EthBridge",
						"label": "usdc",
						"offset": 0,
						"slot": "2",
						"type": "t_contract(IERC20)411"
					},
					{
						"astId": 88,
						"contract": "contracts/flibber/test.sol:EthBridge",
						"label": "fib",
						"offset": 0,
						"slot": "3",
						"type": "t_contract(IERC20)411"
					},
					{
						"astId": 95,
						"contract": "contracts/flibber/test.sol:EthBridge",
						"label": "fibFee",
						"offset": 0,
						"slot": "4",
						"type": "t_uint256"
					},
					{
						"astId": 99,
						"contract": "contracts/flibber/test.sol:EthBridge",
						"label": "deposits",
						"offset": 0,
						"slot": "5",
						"type": "t_mapping(t_address,t_uint256)"
					},
					{
						"astId": 103,
						"contract": "contracts/flibber/test.sol:EthBridge",
						"label": "nonces",
						"offset": 0,
						"slot": "6",
						"type": "t_mapping(t_address,t_uint256)"
					}
				],
				"types": {
					"t_address": {
						"encoding": "inplace",
						"label": "address",
						"numberOfBytes": "20"
					},
					"t_contract(IERC20)411": {
						"encoding": "inplace",
						"label": "contract IERC20",
						"numberOfBytes": "20"
					},
					"t_mapping(t_address,t_uint256)": {
						"encoding": "mapping",
						"key": "t_address",
						"label": "mapping(address => uint256)",
						"numberOfBytes": "32",
						"value": "t_uint256"
					},
					"t_uint256": {
						"encoding": "inplace",
						"label": "uint256",
						"numberOfBytes": "32"
					}
				}
			},
			"userdoc": {
				"kind": "user",
				"methods": {
					"bridgeTokens(uint256)": {
						"notice": "Direct bridging function: user calls and pays gas in ETH. The user must approve this contract to spend both their USDC and $FIB tokens."
					},
					"bridgeTokensMeta(address,uint256,uint256,uint256,bytes)": {
						"notice": "Meta-Transaction bridging function: allows a relayer to submit a user's signed transaction. The user must sign the data (user address, amount, fee, nonce, contract address) off-chain."
					},
					"updateFibFee(uint256)": {
						"notice": "Admin function to update the $FIB fee if needed."
					}
				},
				"version": 1
			}
		}
	}
}