{
	"contracts/flibber/router.sol": {
		"MockRouter": {
			"abi": [
				{
					"inputs": [],
					"stateMutability": "nonpayable",
					"type": "constructor"
				},
				{
					"inputs": [],
					"name": "InsufficientFeeTokenAmount",
					"type": "error"
				},
				{
					"inputs": [],
					"name": "InvalidMsgValue",
					"type": "error"
				},
				{
					"inputs": [],
					"name": "RouterDisabled",
					"type": "error"
				},
				{
					"inputs": [
						{
							"internalType": "uint64",
							"name": "destChainSelector",
							"type": "uint64"
						}
					],
					"name": "UnsupportedDestinationChain",
					"type": "error"
				},
				{
					"inputs": [
						{
							"internalType": "uint64",
							"name": "",
							"type": "uint64"
						},
						{
							"components": [
								{
									"internalType": "bytes",
									"name": "receiver",
									"type": "bytes"
								},
								{
									"internalType": "bytes",
									"name": "data",
									"type": "bytes"
								},
								{
									"components": [
										{
											"internalType": "address",
											"name": "token",
											"type": "address"
										},
										{
											"internalType": "uint256",
											"name": "amount",
											"type": "uint256"
										}
									],
									"internalType": "struct Client.EVMTokenAmount[]",
									"name": "tokenAmounts",
									"type": "tuple[]"
								},
								{
									"internalType": "address",
									"name": "feeToken",
									"type": "address"
								},
								{
									"internalType": "bytes",
									"name": "extraArgs",
									"type": "bytes"
								}
							],
							"internalType": "struct Client.EVM2AnyMessage",
							"name": "message",
							"type": "tuple"
						}
					],
					"name": "ccipSend",
					"outputs": [
						{
							"internalType": "bytes32",
							"name": "",
							"type": "bytes32"
						}
					],
					"stateMutability": "payable",
					"type": "function"
				},
				{
					"inputs": [
						{
							"internalType": "uint64",
							"name": "",
							"type": "uint64"
						},
						{
							"components": [
								{
									"internalType": "bytes",
									"name": "receiver",
									"type": "bytes"
								},
								{
									"internalType": "bytes",
									"name": "data",
									"type": "bytes"
								},
								{
									"components": [
										{
											"internalType": "address",
											"name": "token",
											"type": "address"
										},
										{
											"internalType": "uint256",
											"name": "amount",
											"type": "uint256"
										}
									],
									"internalType": "struct Client.EVMTokenAmount[]",
									"name": "tokenAmounts",
									"type": "tuple[]"
								},
								{
									"internalType": "address",
									"name": "feeToken",
									"type": "address"
								},
								{
									"internalType": "bytes",
									"name": "extraArgs",
									"type": "bytes"
								}
							],
							"internalType": "struct Client.EVM2AnyMessage",
							"name": "",
							"type": "tuple"
						}
					],
					"name": "getFee",
					"outputs": [
						{
							"internalType": "uint256",
							"name": "",
							"type": "uint256"
						}
					],
					"stateMutability": "pure",
					"type": "function"
				},
				{
					"inputs": [
						{
							"internalType": "bytes32",
							"name": "messageId",
							"type": "bytes32"
						}
					],
					"name": "getSentMessage",
					"outputs": [
						{
							"components": [
								{
									"internalType": "bytes",
									"name": "receiver",
									"type": "bytes"
								},
								{
									"internalType": "bytes",
									"name": "data",
									"type": "bytes"
								},
								{
									"components": [
										{
											"internalType": "address",
											"name": "token",
											"type": "address"
										},
										{
											"internalType": "uint256",
											"name": "amount",
											"type": "uint256"
										}
									],
									"internalType": "struct Client.EVMTokenAmount[]",
									"name": "tokenAmounts",
									"type": "tuple[]"
								},
								{
									"internalType": "address",
									"name": "feeToken",
									"type": "address"
								},
								{
									"internalType": "bytes",
									"name": "extraArgs",
									"type": "bytes"
								}
							],
							"internalType": "struct Client.EVM2AnyMessage",
							"name": "",
							"type": "tuple"
						}
					],
					"stateMutability": "view",
					"type": "function"
				},
				{
					"inputs": [
						{
							"internalType": "uint64",
							"name": "",
							"type": "uint64"
						}
					],
					"name": "isChainSupported",
					"outputs": [
						{
							"internalType": "bool",
							"name": "",
							"type": "bool"
						}
					],
					"stateMutability": "pure",
					"type": "function"
				},
				{
					"inputs": [],
					"name": "isEnabled",
					"outputs": [
						{
							"internalType": "bool",
							"name": "",
							"type": "bool"
						}
					],
					"stateMutability": "view",
					"type": "function"
				},
				{
					"inputs": [
						{
							"internalType": "bytes32",
							"name": "",
							"type": "bytes32"
						}
					],
					"name": "sentMessages",
					"outputs": [
						{
							"internalType": "bytes",
							"name": "receiver",
							"type": "bytes"
						},
						{
							"internalType": "bytes",
							"name": "data",
							"type": "bytes"
						},
						{
							"internalType": "address",
							"name": "feeToken",
							"type": "address"
						},
						{
							"internalType": "bytes",
							"name": "extraArgs",
							"type": "bytes"
						}
					],
					"stateMutability": "view",
					"type": "function"
				},
				{
					"inputs": [],
					"name": "toggleRouter",
					"outputs": [],
					"stateMutability": "nonpayable",
					"type": "function"
				}
			],
			"devdoc": {
				"kind": "dev",
				"methods": {},
				"version": 1
			},
			"evm": {
				"assembly": "    /* \"contracts/flibber/router.sol\":199:1807  contract MockRouter is IRouterClient {... */\n  mstore(0x40, 0x80)\n    /* \"contracts/flibber/router.sol\":309:313  true */\n  0x01\n    /* \"contracts/flibber/router.sol\":285:313  bool public isEnabled = true */\n  0x00\n  exp(0x0100, 0x00)\n  dup2\n  sload\n  dup2\n  0xff\n  mul\n  not\n  and\n  swap1\n  dup4\n  iszero\n  iszero\n  mul\n  or\n  swap1\n  sstore\n  pop\n    /* \"contracts/flibber/router.sol\":419:435  constructor() {} */\n  callvalue\n  dup1\n  iszero\n  tag_1\n  jumpi\n  revert(0x00, 0x00)\ntag_1:\n  pop\n    /* \"contracts/flibber/router.sol\":199:1807  contract MockRouter is IRouterClient {... */\n  dataSize(sub_0)\n  dup1\n  dataOffset(sub_0)\n  0x00\n  codecopy\n  0x00\n  return\nstop\n\nsub_0: assembly {\n        /* \"contracts/flibber/router.sol\":199:1807  contract MockRouter is IRouterClient {... */\n      mstore(0x40, 0x80)\n      jumpi(tag_1, lt(calldatasize, 0x04))\n      shr(0xe0, calldataload(0x00))\n      dup1\n      0x6aa633b6\n      gt\n      tag_9\n      jumpi\n      dup1\n      0x6aa633b6\n      eq\n      tag_5\n      jumpi\n      dup1\n      0x82e3702d\n      eq\n      tag_6\n      jumpi\n      dup1\n      0x96f4e9f9\n      eq\n      tag_7\n      jumpi\n      dup1\n      0xa48a9058\n      eq\n      tag_8\n      jumpi\n      jump(tag_1)\n    tag_9:\n      dup1\n      0x1683d0f4\n      eq\n      tag_2\n      jumpi\n      dup1\n      0x18e8a501\n      eq\n      tag_3\n      jumpi\n      dup1\n      0x20487ded\n      eq\n      tag_4\n      jumpi\n    tag_1:\n      revert(0x00, 0x00)\n        /* \"contracts/flibber/router.sol\":1630:1805  function getSentMessage(bytes32 messageId) ... */\n    tag_2:\n      callvalue\n      dup1\n      iszero\n      tag_10\n      jumpi\n      revert(0x00, 0x00)\n    tag_10:\n      pop\n      tag_11\n      0x04\n      dup1\n      calldatasize\n      sub\n      dup2\n      add\n      swap1\n      tag_12\n      swap2\n      swap1\n      tag_13\n      jump\t// in\n    tag_12:\n      tag_14\n      jump\t// in\n    tag_11:\n      mload(0x40)\n      tag_15\n      swap2\n      swap1\n      tag_16\n      jump\t// in\n    tag_15:\n      mload(0x40)\n      dup1\n      swap2\n      sub\n      swap1\n      return\n        /* \"contracts/flibber/router.sol\":1552:1624  function toggleRouter() external {... */\n    tag_3:\n      callvalue\n      dup1\n      iszero\n      tag_17\n      jumpi\n      revert(0x00, 0x00)\n    tag_17:\n      pop\n      tag_18\n      tag_19\n      jump\t// in\n    tag_18:\n      stop\n        /* \"contracts/flibber/router.sol\":475:660  function getFee(... */\n    tag_4:\n      callvalue\n      dup1\n      iszero\n      tag_20\n      jumpi\n      revert(0x00, 0x00)\n    tag_20:\n      pop\n      tag_21\n      0x04\n      dup1\n      calldatasize\n      sub\n      dup2\n      add\n      swap1\n      tag_22\n      swap2\n      swap1\n      tag_23\n      jump\t// in\n    tag_22:\n      tag_24\n      jump\t// in\n    tag_21:\n      mload(0x40)\n      tag_25\n      swap2\n      swap1\n      tag_26\n      jump\t// in\n    tag_25:\n      mload(0x40)\n      dup1\n      swap2\n      sub\n      swap1\n      return\n        /* \"contracts/flibber/router.sol\":285:313  bool public isEnabled = true */\n    tag_5:\n      callvalue\n      dup1\n      iszero\n      tag_27\n      jumpi\n      revert(0x00, 0x00)\n    tag_27:\n      pop\n      tag_28\n      tag_29\n      jump\t// in\n    tag_28:\n      mload(0x40)\n      tag_30\n      swap2\n      swap1\n      tag_31\n      jump\t// in\n    tag_30:\n      mload(0x40)\n      dup1\n      swap2\n      sub\n      swap1\n      return\n        /* \"contracts/flibber/router.sol\":319:380  mapping(bytes32 => Client.EVM2AnyMessage) public sentMessages */\n    tag_6:\n      callvalue\n      dup1\n      iszero\n      tag_32\n      jumpi\n      revert(0x00, 0x00)\n    tag_32:\n      pop\n      tag_33\n      0x04\n      dup1\n      calldatasize\n      sub\n      dup2\n      add\n      swap1\n      tag_34\n      swap2\n      swap1\n      tag_13\n      jump\t// in\n    tag_34:\n      tag_35\n      jump\t// in\n    tag_33:\n      mload(0x40)\n      tag_36\n      swap5\n      swap4\n      swap3\n      swap2\n      swap1\n      tag_37\n      jump\t// in\n    tag_36:\n      mload(0x40)\n      dup1\n      swap2\n      sub\n      swap1\n      return\n        /* \"contracts/flibber/router.sol\":714:1309  function ccipSend(... */\n    tag_7:\n      tag_38\n      0x04\n      dup1\n      calldatasize\n      sub\n      dup2\n      add\n      swap1\n      tag_39\n      swap2\n      swap1\n      tag_23\n      jump\t// in\n    tag_39:\n      tag_40\n      jump\t// in\n    tag_38:\n      mload(0x40)\n      tag_41\n      swap2\n      swap1\n      tag_42\n      jump\t// in\n    tag_41:\n      mload(0x40)\n      dup1\n      swap2\n      sub\n      swap1\n      return\n        /* \"contracts/flibber/router.sol\":1368:1499  function isChainSupported(uint64) external pure returns (bool) {... */\n    tag_8:\n      callvalue\n      dup1\n      iszero\n      tag_43\n      jumpi\n      revert(0x00, 0x00)\n    tag_43:\n      pop\n      tag_44\n      0x04\n      dup1\n      calldatasize\n      sub\n      dup2\n      add\n      swap1\n      tag_45\n      swap2\n      swap1\n      tag_46\n      jump\t// in\n    tag_45:\n      tag_47\n      jump\t// in\n    tag_44:\n      mload(0x40)\n      tag_48\n      swap2\n      swap1\n      tag_31\n      jump\t// in\n    tag_48:\n      mload(0x40)\n      dup1\n      swap2\n      sub\n      swap1\n      return\n        /* \"contracts/flibber/router.sol\":1630:1805  function getSentMessage(bytes32 messageId) ... */\n    tag_14:\n        /* \"contracts/flibber/router.sol\":1723:1751  Client.EVM2AnyMessage memory */\n      tag_49\n      tag_50\n      jump\t// in\n    tag_49:\n        /* \"contracts/flibber/router.sol\":1775:1787  sentMessages */\n      0x01\n        /* \"contracts/flibber/router.sol\":1775:1798  sentMessages[messageId] */\n      0x00\n        /* \"contracts/flibber/router.sol\":1788:1797  messageId */\n      dup4\n        /* \"contracts/flibber/router.sol\":1775:1798  sentMessages[messageId] */\n      dup2\n      mstore\n      0x20\n      add\n      swap1\n      dup2\n      mstore\n      0x20\n      add\n      0x00\n      keccak256\n        /* \"contracts/flibber/router.sol\":1768:1798  return sentMessages[messageId] */\n      mload(0x40)\n      dup1\n      0xa0\n      add\n      0x40\n      mstore\n      swap1\n      dup2\n      0x00\n      dup3\n      add\n      dup1\n      sload\n      tag_52\n      swap1\n      tag_53\n      jump\t// in\n    tag_52:\n      dup1\n      0x1f\n      add\n      0x20\n      dup1\n      swap2\n      div\n      mul\n      0x20\n      add\n      mload(0x40)\n      swap1\n      dup2\n      add\n      0x40\n      mstore\n      dup1\n      swap3\n      swap2\n      swap1\n      dup2\n      dup2\n      mstore\n      0x20\n      add\n      dup3\n      dup1\n      sload\n      tag_54\n      swap1\n      tag_53\n      jump\t// in\n    tag_54:\n      dup1\n      iszero\n      tag_55\n      jumpi\n      dup1\n      0x1f\n      lt\n      tag_56\n      jumpi\n      0x0100\n      dup1\n      dup4\n      sload\n      div\n      mul\n      dup4\n      mstore\n      swap2\n      0x20\n      add\n      swap2\n      jump(tag_55)\n    tag_56:\n      dup3\n      add\n      swap2\n      swap1\n      0x00\n      mstore\n      keccak256(0x00, 0x20)\n      swap1\n    tag_57:\n      dup2\n      sload\n      dup2\n      mstore\n      swap1\n      0x01\n      add\n      swap1\n      0x20\n      add\n      dup1\n      dup4\n      gt\n      tag_57\n      jumpi\n      dup3\n      swap1\n      sub\n      0x1f\n      and\n      dup3\n      add\n      swap2\n    tag_55:\n      pop\n      pop\n      pop\n      pop\n      pop\n      dup2\n      mstore\n      0x20\n      add\n      0x01\n      dup3\n      add\n      dup1\n      sload\n      tag_58\n      swap1\n      tag_53\n      jump\t// in\n    tag_58:\n      dup1\n      0x1f\n      add\n      0x20\n      dup1\n      swap2\n      div\n      mul\n      0x20\n      add\n      mload(0x40)\n      swap1\n      dup2\n      add\n      0x40\n      mstore\n      dup1\n      swap3\n      swap2\n      swap1\n      dup2\n      dup2\n      mstore\n      0x20\n      add\n      dup3\n      dup1\n      sload\n      tag_59\n      swap1\n      tag_53\n      jump\t// in\n    tag_59:\n      dup1\n      iszero\n      tag_60\n      jumpi\n      dup1\n      0x1f\n      lt\n      tag_61\n      jumpi\n      0x0100\n      dup1\n      dup4\n      sload\n      div\n      mul\n      dup4\n      mstore\n      swap2\n      0x20\n      add\n      swap2\n      jump(tag_60)\n    tag_61:\n      dup3\n      add\n      swap2\n      swap1\n      0x00\n      mstore\n      keccak256(0x00, 0x20)\n      swap1\n    tag_62:\n      dup2\n      sload\n      dup2\n      mstore\n      swap1\n      0x01\n      add\n      swap1\n      0x20\n      add\n      dup1\n      dup4\n      gt\n      tag_62\n      jumpi\n      dup3\n      swap1\n      sub\n      0x1f\n      and\n      dup3\n      add\n      swap2\n    tag_60:\n      pop\n      pop\n      pop\n      pop\n      pop\n      dup2\n      mstore\n      0x20\n      add\n      0x02\n      dup3\n      add\n      dup1\n      sload\n      dup1\n      0x20\n      mul\n      0x20\n      add\n      mload(0x40)\n      swap1\n      dup2\n      add\n      0x40\n      mstore\n      dup1\n      swap3\n      swap2\n      swap1\n      dup2\n      dup2\n      mstore\n      0x20\n      add\n      0x00\n      swap1\n    tag_63:\n      dup3\n      dup3\n      lt\n      iszero\n      tag_64\n      jumpi\n      dup4\n      dup3\n      swap1\n      0x00\n      mstore\n      keccak256(0x00, 0x20)\n      swap1\n      0x02\n      mul\n      add\n      mload(0x40)\n      dup1\n      0x40\n      add\n      0x40\n      mstore\n      swap1\n      dup2\n      0x00\n      dup3\n      add\n      0x00\n      swap1\n      sload\n      swap1\n      0x0100\n      exp\n      swap1\n      div\n      0xffffffffffffffffffffffffffffffffffffffff\n      and\n      0xffffffffffffffffffffffffffffffffffffffff\n      and\n      0xffffffffffffffffffffffffffffffffffffffff\n      and\n      dup2\n      mstore\n      0x20\n      add\n      0x01\n      dup3\n      add\n      sload\n      dup2\n      mstore\n      pop\n      pop\n      dup2\n      mstore\n      0x20\n      add\n      swap1\n      0x01\n      add\n      swap1\n      jump(tag_63)\n    tag_64:\n      pop\n      pop\n      pop\n      pop\n      dup2\n      mstore\n      0x20\n      add\n      0x03\n      dup3\n      add\n      0x00\n      swap1\n      sload\n      swap1\n      0x0100\n      exp\n      swap1\n      div\n      0xffffffffffffffffffffffffffffffffffffffff\n      and\n      0xffffffffffffffffffffffffffffffffffffffff\n      and\n      0xffffffffffffffffffffffffffffffffffffffff\n      and\n      dup2\n      mstore\n      0x20\n      add\n      0x04\n      dup3\n      add\n      dup1\n      sload\n      tag_66\n      swap1\n      tag_53\n      jump\t// in\n    tag_66:\n      dup1\n      0x1f\n      add\n      0x20\n      dup1\n      swap2\n      div\n      mul\n      0x20\n      add\n      mload(0x40)\n      swap1\n      dup2\n      add\n      0x40\n      mstore\n      dup1\n      swap3\n      swap2\n      swap1\n      dup2\n      dup2\n      mstore\n      0x20\n      add\n      dup3\n      dup1\n      sload\n      tag_67\n      swap1\n      tag_53\n      jump\t// in\n    tag_67:\n      dup1\n      iszero\n      tag_68\n      jumpi\n      dup1\n      0x1f\n      lt\n      tag_69\n      jumpi\n      0x0100\n      dup1\n      dup4\n      sload\n      div\n      mul\n      dup4\n      mstore\n      swap2\n      0x20\n      add\n      swap2\n      jump(tag_68)\n    tag_69:\n      dup3\n      add\n      swap2\n      swap1\n      0x00\n      mstore\n      keccak256(0x00, 0x20)\n      swap1\n    tag_70:\n      dup2\n      sload\n      dup2\n      mstore\n      swap1\n      0x01\n      add\n      swap1\n      0x20\n      add\n      dup1\n      dup4\n      gt\n      tag_70\n      jumpi\n      dup3\n      swap1\n      sub\n      0x1f\n      and\n      dup3\n      add\n      swap2\n    tag_68:\n      pop\n      pop\n      pop\n      pop\n      pop\n      dup2\n      mstore\n      pop\n      pop\n      swap1\n      pop\n        /* \"contracts/flibber/router.sol\":1630:1805  function getSentMessage(bytes32 messageId) ... */\n      swap2\n      swap1\n      pop\n      jump\t// out\n        /* \"contracts/flibber/router.sol\":1552:1624  function toggleRouter() external {... */\n    tag_19:\n        /* \"contracts/flibber/router.sol\":1608:1617  isEnabled */\n      0x00\n      0x00\n      swap1\n      sload\n      swap1\n      0x0100\n      exp\n      swap1\n      div\n      0xff\n      and\n        /* \"contracts/flibber/router.sol\":1607:1617  !isEnabled */\n      iszero\n        /* \"contracts/flibber/router.sol\":1595:1604  isEnabled */\n      0x00\n      0x00\n        /* \"contracts/flibber/router.sol\":1595:1617  isEnabled = !isEnabled */\n      0x0100\n      exp\n      dup2\n      sload\n      dup2\n      0xff\n      mul\n      not\n      and\n      swap1\n      dup4\n      iszero\n      iszero\n      mul\n      or\n      swap1\n      sstore\n      pop\n        /* \"contracts/flibber/router.sol\":1552:1624  function toggleRouter() external {... */\n      jump\t// out\n        /* \"contracts/flibber/router.sol\":475:660  function getFee(... */\n    tag_24:\n        /* \"contracts/flibber/router.sol\":617:624  uint256 */\n      0x00\n        /* \"contracts/flibber/router.sol\":643:653  0.01 ether */\n      0x2386f26fc10000\n        /* \"contracts/flibber/router.sol\":636:653  return 0.01 ether */\n      swap1\n      pop\n        /* \"contracts/flibber/router.sol\":475:660  function getFee(... */\n      swap3\n      swap2\n      pop\n      pop\n      jump\t// out\n        /* \"contracts/flibber/router.sol\":285:313  bool public isEnabled = true */\n    tag_29:\n      0x00\n      0x00\n      swap1\n      sload\n      swap1\n      0x0100\n      exp\n      swap1\n      div\n      0xff\n      and\n      dup2\n      jump\t// out\n        /* \"contracts/flibber/router.sol\":319:380  mapping(bytes32 => Client.EVM2AnyMessage) public sentMessages */\n    tag_35:\n      mstore(0x20, 0x01)\n      dup1\n      0x00\n      mstore\n      keccak256(0x00, 0x40)\n      0x00\n      swap2\n      pop\n      swap1\n      pop\n      dup1\n      0x00\n      add\n      dup1\n      sload\n      tag_73\n      swap1\n      tag_53\n      jump\t// in\n    tag_73:\n      dup1\n      0x1f\n      add\n      0x20\n      dup1\n      swap2\n      div\n      mul\n      0x20\n      add\n      mload(0x40)\n      swap1\n      dup2\n      add\n      0x40\n      mstore\n      dup1\n      swap3\n      swap2\n      swap1\n      dup2\n      dup2\n      mstore\n      0x20\n      add\n      dup3\n      dup1\n      sload\n      tag_74\n      swap1\n      tag_53\n      jump\t// in\n    tag_74:\n      dup1\n      iszero\n      tag_75\n      jumpi\n      dup1\n      0x1f\n      lt\n      tag_76\n      jumpi\n      0x0100\n      dup1\n      dup4\n      sload\n      div\n      mul\n      dup4\n      mstore\n      swap2\n      0x20\n      add\n      swap2\n      jump(tag_75)\n    tag_76:\n      dup3\n      add\n      swap2\n      swap1\n      0x00\n      mstore\n      keccak256(0x00, 0x20)\n      swap1\n    tag_77:\n      dup2\n      sload\n      dup2\n      mstore\n      swap1\n      0x01\n      add\n      swap1\n      0x20\n      add\n      dup1\n      dup4\n      gt\n      tag_77\n      jumpi\n      dup3\n      swap1\n      sub\n      0x1f\n      and\n      dup3\n      add\n      swap2\n    tag_75:\n      pop\n      pop\n      pop\n      pop\n      pop\n      swap1\n      dup1\n      0x01\n      add\n      dup1\n      sload\n      tag_78\n      swap1\n      tag_53\n      jump\t// in\n    tag_78:\n      dup1\n      0x1f\n      add\n      0x20\n      dup1\n      swap2\n      div\n      mul\n      0x20\n      add\n      mload(0x40)\n      swap1\n      dup2\n      add\n      0x40\n      mstore\n      dup1\n      swap3\n      swap2\n      swap1\n      dup2\n      dup2\n      mstore\n      0x20\n      add\n      dup3\n      dup1\n      sload\n      tag_79\n      swap1\n      tag_53\n      jump\t// in\n    tag_79:\n      dup1\n      iszero\n      tag_80\n      jumpi\n      dup1\n      0x1f\n      lt\n      tag_81\n      jumpi\n      0x0100\n      dup1\n      dup4\n      sload\n      div\n      mul\n      dup4\n      mstore\n      swap2\n      0x20\n      add\n      swap2\n      jump(tag_80)\n    tag_81:\n      dup3\n      add\n      swap2\n      swap1\n      0x00\n      mstore\n      keccak256(0x00, 0x20)\n      swap1\n    tag_82:\n      dup2\n      sload\n      dup2\n      mstore\n      swap1\n      0x01\n      add\n      swap1\n      0x20\n      add\n      dup1\n      dup4\n      gt\n      tag_82\n      jumpi\n      dup3\n      swap1\n      sub\n      0x1f\n      and\n      dup3\n      add\n      swap2\n    tag_80:\n      pop\n      pop\n      pop\n      pop\n      pop\n      swap1\n      dup1\n      0x03\n      add\n      0x00\n      swap1\n      sload\n      swap1\n      0x0100\n      exp\n      swap1\n      div\n      0xffffffffffffffffffffffffffffffffffffffff\n      and\n      swap1\n      dup1\n      0x04\n      add\n      dup1\n      sload\n      tag_83\n      swap1\n      tag_53\n      jump\t// in\n    tag_83:\n      dup1\n      0x1f\n      add\n      0x20\n      dup1\n      swap2\n      div\n      mul\n      0x20\n      add\n      mload(0x40)\n      swap1\n      dup2\n      add\n      0x40\n      mstore\n      dup1\n      swap3\n      swap2\n      swap1\n      dup2\n      dup2\n      mstore\n      0x20\n      add\n      dup3\n      dup1\n      sload\n      tag_84\n      swap1\n      tag_53\n      jump\t// in\n    tag_84:\n      dup1\n      iszero\n      tag_85\n      jumpi\n      dup1\n      0x1f\n      lt\n      tag_86\n      jumpi\n      0x0100\n      dup1\n      dup4\n      sload\n      div\n      mul\n      dup4\n      mstore\n      swap2\n      0x20\n      add\n      swap2\n      jump(tag_85)\n    tag_86:\n      dup3\n      add\n      swap2\n      swap1\n      0x00\n      mstore\n      keccak256(0x00, 0x20)\n      swap1\n    tag_87:\n      dup2\n      sload\n      dup2\n      mstore\n      swap1\n      0x01\n      add\n      swap1\n      0x20\n      add\n      dup1\n      dup4\n      gt\n      tag_87\n      jumpi\n      dup3\n      swap1\n      sub\n      0x1f\n      and\n      dup3\n      add\n      swap2\n    tag_85:\n      pop\n      pop\n      pop\n      pop\n      pop\n      swap1\n      pop\n      dup5\n      jump\t// out\n        /* \"contracts/flibber/router.sol\":714:1309  function ccipSend(... */\n    tag_40:\n        /* \"contracts/flibber/router.sol\":857:864  bytes32 */\n      0x00\n        /* \"contracts/flibber/router.sol\":881:890  isEnabled */\n      0x00\n      0x00\n      swap1\n      sload\n      swap1\n      0x0100\n      exp\n      swap1\n      div\n      0xff\n      and\n        /* \"contracts/flibber/router.sol\":876:915  if (!isEnabled) revert RouterDisabled() */\n      tag_89\n      jumpi\n        /* \"contracts/flibber/router.sol\":899:915  RouterDisabled() */\n      mload(0x40)\n      0x96639aff00000000000000000000000000000000000000000000000000000000\n      dup2\n      mstore\n      0x04\n      add\n      mload(0x40)\n      dup1\n      swap2\n      sub\n      swap1\n      revert\n        /* \"contracts/flibber/router.sol\":876:915  if (!isEnabled) revert RouterDisabled() */\n    tag_89:\n        /* \"contracts/flibber/router.sol\":996:1013  bytes32 messageId */\n      0x00\n        /* \"contracts/flibber/router.sol\":1067:1077  msg.sender */\n      caller\n        /* \"contracts/flibber/router.sol\":1095:1102  message */\n      dup4\n        /* \"contracts/flibber/router.sol\":1120:1135  block.timestamp */\n      timestamp\n        /* \"contracts/flibber/router.sol\":1039:1149  abi.encode(... */\n      add(0x20, mload(0x40))\n      tag_90\n      swap4\n      swap3\n      swap2\n      swap1\n      tag_91\n      jump\t// in\n    tag_90:\n      mload(0x40)\n      0x20\n      dup2\n      dup4\n      sub\n      sub\n      dup2\n      mstore\n      swap1\n      0x40\n      mstore\n        /* \"contracts/flibber/router.sol\":1016:1159  keccak256(... */\n      dup1\n      mload\n      swap1\n      0x20\n      add\n      keccak256\n        /* \"contracts/flibber/router.sol\":996:1159  bytes32 messageId = keccak256(... */\n      swap1\n      pop\n        /* \"contracts/flibber/router.sol\":1260:1267  message */\n      dup3\n        /* \"contracts/flibber/router.sol\":1234:1246  sentMessages */\n      0x01\n        /* \"contracts/flibber/router.sol\":1234:1257  sentMessages[messageId] */\n      0x00\n        /* \"contracts/flibber/router.sol\":1247:1256  messageId */\n      dup4\n        /* \"contracts/flibber/router.sol\":1234:1257  sentMessages[messageId] */\n      dup2\n      mstore\n      0x20\n      add\n      swap1\n      dup2\n      mstore\n      0x20\n      add\n      0x00\n      keccak256\n        /* \"contracts/flibber/router.sol\":1234:1267  sentMessages[messageId] = message */\n      dup2\n      dup2\n      tag_92\n      swap2\n      swap1\n      tag_93\n      jump\t// in\n    tag_92:\n      swap1\n      pop\n      pop\n        /* \"contracts/flibber/router.sol\":1293:1302  messageId */\n      dup1\n        /* \"contracts/flibber/router.sol\":1286:1302  return messageId */\n      swap2\n      pop\n      pop\n        /* \"contracts/flibber/router.sol\":714:1309  function ccipSend(... */\n      swap3\n      swap2\n      pop\n      pop\n      jump\t// out\n        /* \"contracts/flibber/router.sol\":1368:1499  function isChainSupported(uint64) external pure returns (bool) {... */\n    tag_47:\n        /* \"contracts/flibber/router.sol\":1425:1429  bool */\n      0x00\n        /* \"contracts/flibber/router.sol\":1448:1452  true */\n      0x01\n        /* \"contracts/flibber/router.sol\":1441:1452  return true */\n      swap1\n      pop\n        /* \"contracts/flibber/router.sol\":1368:1499  function isChainSupported(uint64) external pure returns (bool) {... */\n      swap2\n      swap1\n      pop\n      jump\t// out\n    tag_50:\n      mload(0x40)\n      dup1\n      0xa0\n      add\n      0x40\n      mstore\n      dup1\n      0x60\n      dup2\n      mstore\n      0x20\n      add\n      0x60\n      dup2\n      mstore\n      0x20\n      add\n      0x60\n      dup2\n      mstore\n      0x20\n      add\n      and(0xffffffffffffffffffffffffffffffffffffffff, 0x00)\n      dup2\n      mstore\n      0x20\n      add\n      0x60\n      dup2\n      mstore\n      pop\n      swap1\n      jump\t// out\n        /* \"#utility.yul\":88:205   */\n    tag_96:\n        /* \"#utility.yul\":197:198   */\n      0x00\n        /* \"#utility.yul\":194:195   */\n      0x00\n        /* \"#utility.yul\":187:199   */\n      revert\n        /* \"#utility.yul\":211:328   */\n    tag_97:\n        /* \"#utility.yul\":320:321   */\n      0x00\n        /* \"#utility.yul\":317:318   */\n      0x00\n        /* \"#utility.yul\":310:322   */\n      revert\n        /* \"#utility.yul\":334:411   */\n    tag_98:\n        /* \"#utility.yul\":371:378   */\n      0x00\n        /* \"#utility.yul\":400:405   */\n      dup2\n        /* \"#utility.yul\":389:405   */\n      swap1\n      pop\n        /* \"#utility.yul\":334:411   */\n      swap2\n      swap1\n      pop\n      jump\t// out\n        /* \"#utility.yul\":417:539   */\n    tag_99:\n        /* \"#utility.yul\":490:514   */\n      tag_211\n        /* \"#utility.yul\":508:513   */\n      dup2\n        /* \"#utility.yul\":490:514   */\n      tag_98\n      jump\t// in\n    tag_211:\n        /* \"#utility.yul\":483:488   */\n      dup2\n        /* \"#utility.yul\":480:515   */\n      eq\n        /* \"#utility.yul\":470:533   */\n      tag_212\n      jumpi\n        /* \"#utility.yul\":529:530   */\n      0x00\n        /* \"#utility.yul\":526:527   */\n      0x00\n        /* \"#utility.yul\":519:531   */\n      revert\n        /* \"#utility.yul\":470:533   */\n    tag_212:\n        /* \"#utility.yul\":417:539   */\n      pop\n      jump\t// out\n        /* \"#utility.yul\":545:684   */\n    tag_100:\n        /* \"#utility.yul\":591:596   */\n      0x00\n        /* \"#utility.yul\":629:635   */\n      dup2\n        /* \"#utility.yul\":616:636   */\n      calldataload\n        /* \"#utility.yul\":607:636   */\n      swap1\n      pop\n        /* \"#utility.yul\":645:678   */\n      tag_214\n        /* \"#utility.yul\":672:677   */\n      dup2\n        /* \"#utility.yul\":645:678   */\n      tag_99\n      jump\t// in\n    tag_214:\n        /* \"#utility.yul\":545:684   */\n      swap3\n      swap2\n      pop\n      pop\n      jump\t// out\n        /* \"#utility.yul\":690:1019   */\n    tag_13:\n        /* \"#utility.yul\":749:755   */\n      0x00\n        /* \"#utility.yul\":798:800   */\n      0x20\n        /* \"#utility.yul\":786:795   */\n      dup3\n        /* \"#utility.yul\":777:784   */\n      dup5\n        /* \"#utility.yul\":773:796   */\n      sub\n        /* \"#utility.yul\":769:801   */\n      slt\n        /* \"#utility.yul\":766:885   */\n      iszero\n      tag_216\n      jumpi\n        /* \"#utility.yul\":804:883   */\n      tag_217\n      tag_96\n      jump\t// in\n    tag_217:\n        /* \"#utility.yul\":766:885   */\n    tag_216:\n        /* \"#utility.yul\":924:925   */\n      0x00\n        /* \"#utility.yul\":949:1002   */\n      tag_218\n        /* \"#utility.yul\":994:1001   */\n      dup5\n        /* \"#utility.yul\":985:991   */\n      dup3\n        /* \"#utility.yul\":974:983   */\n      dup6\n        /* \"#utility.yul\":970:992   */\n      add\n        /* \"#utility.yul\":949:1002   */\n      tag_100\n      jump\t// in\n    tag_218:\n        /* \"#utility.yul\":939:1002   */\n      swap2\n      pop\n        /* \"#utility.yul\":895:1012   */\n      pop\n        /* \"#utility.yul\":690:1019   */\n      swap3\n      swap2\n      pop\n      pop\n      jump\t// out\n        /* \"#utility.yul\":1025:1123   */\n    tag_101:\n        /* \"#utility.yul\":1076:1082   */\n      0x00\n        /* \"#utility.yul\":1110:1115   */\n      dup2\n        /* \"#utility.yul\":1104:1116   */\n      mload\n        /* \"#utility.yul\":1094:1116   */\n      swap1\n      pop\n        /* \"#utility.yul\":1025:1123   */\n      swap2\n      swap1\n      pop\n      jump\t// out\n        /* \"#utility.yul\":1129:1287   */\n    tag_102:\n        /* \"#utility.yul\":1202:1213   */\n      0x00\n        /* \"#utility.yul\":1236:1242   */\n      dup3\n        /* \"#utility.yul\":1231:1234   */\n      dup3\n        /* \"#utility.yul\":1224:1243   */\n      mstore\n        /* \"#utility.yul\":1276:1280   */\n      0x20\n        /* \"#utility.yul\":1271:1274   */\n      dup3\n        /* \"#utility.yul\":1267:1281   */\n      add\n        /* \"#utility.yul\":1252:1281   */\n      swap1\n      pop\n        /* \"#utility.yul\":1129:1287   */\n      swap3\n      swap2\n      pop\n      pop\n      jump\t// out\n        /* \"#utility.yul\":1293:1432   */\n    tag_103:\n        /* \"#utility.yul\":1382:1388   */\n      dup3\n        /* \"#utility.yul\":1377:1380   */\n      dup2\n        /* \"#utility.yul\":1372:1375   */\n      dup4\n        /* \"#utility.yul\":1366:1389   */\n      mcopy\n        /* \"#utility.yul\":1423:1424   */\n      0x00\n        /* \"#utility.yul\":1414:1420   */\n      dup4\n        /* \"#utility.yul\":1409:1412   */\n      dup4\n        /* \"#utility.yul\":1405:1421   */\n      add\n        /* \"#utility.yul\":1398:1425   */\n      mstore\n        /* \"#utility.yul\":1293:1432   */\n      pop\n      pop\n      pop\n      jump\t// out\n        /* \"#utility.yul\":1438:1540   */\n    tag_104:\n        /* \"#utility.yul\":1479:1485   */\n      0x00\n        /* \"#utility.yul\":1530:1532   */\n      0x1f\n        /* \"#utility.yul\":1526:1533   */\n      not\n        /* \"#utility.yul\":1521:1523   */\n      0x1f\n        /* \"#utility.yul\":1514:1519   */\n      dup4\n        /* \"#utility.yul\":1510:1524   */\n      add\n        /* \"#utility.yul\":1506:1534   */\n      and\n        /* \"#utility.yul\":1496:1534   */\n      swap1\n      pop\n        /* \"#utility.yul\":1438:1540   */\n      swap2\n      swap1\n      pop\n      jump\t// out\n        /* \"#utility.yul\":1546:1899   */\n    tag_105:\n        /* \"#utility.yul\":1622:1625   */\n      0x00\n        /* \"#utility.yul\":1650:1688   */\n      tag_224\n        /* \"#utility.yul\":1682:1687   */\n      dup3\n        /* \"#utility.yul\":1650:1688   */\n      tag_101\n      jump\t// in\n    tag_224:\n        /* \"#utility.yul\":1704:1764   */\n      tag_225\n        /* \"#utility.yul\":1757:1763   */\n      dup2\n        /* \"#utility.yul\":1752:1755   */\n      dup6\n        /* \"#utility.yul\":1704:1764   */\n      tag_102\n      jump\t// in\n    tag_225:\n        /* \"#utility.yul\":1697:1764   */\n      swap4\n      pop\n        /* \"#utility.yul\":1773:1838   */\n      tag_226\n        /* \"#utility.yul\":1831:1837   */\n      dup2\n        /* \"#utility.yul\":1826:1829   */\n      dup6\n        /* \"#utility.yul\":1819:1823   */\n      0x20\n        /* \"#utility.yul\":1812:1817   */\n      dup7\n        /* \"#utility.yul\":1808:1824   */\n      add\n        /* \"#utility.yul\":1773:1838   */\n      tag_103\n      jump\t// in\n    tag_226:\n        /* \"#utility.yul\":1863:1892   */\n      tag_227\n        /* \"#utility.yul\":1885:1891   */\n      dup2\n        /* \"#utility.yul\":1863:1892   */\n      tag_104\n      jump\t// in\n    tag_227:\n        /* \"#utility.yul\":1858:1861   */\n      dup5\n        /* \"#utility.yul\":1854:1893   */\n      add\n        /* \"#utility.yul\":1847:1893   */\n      swap2\n      pop\n        /* \"#utility.yul\":1626:1899   */\n      pop\n        /* \"#utility.yul\":1546:1899   */\n      swap3\n      swap2\n      pop\n      pop\n      jump\t// out\n        /* \"#utility.yul\":1905:2049   */\n    tag_106:\n        /* \"#utility.yul\":2002:2008   */\n      0x00\n        /* \"#utility.yul\":2036:2041   */\n      dup2\n        /* \"#utility.yul\":2030:2042   */\n      mload\n        /* \"#utility.yul\":2020:2042   */\n      swap1\n      pop\n        /* \"#utility.yul\":1905:2049   */\n      swap2\n      swap1\n      pop\n      jump\t// out\n        /* \"#utility.yul\":2055:2259   */\n    tag_107:\n        /* \"#utility.yul\":2174:2185   */\n      0x00\n        /* \"#utility.yul\":2208:2214   */\n      dup3\n        /* \"#utility.yul\":2203:2206   */\n      dup3\n        /* \"#utility.yul\":2196:2215   */\n      mstore\n        /* \"#utility.yul\":2248:2252   */\n      0x20\n        /* \"#utility.yul\":2243:2246   */\n      dup3\n        /* \"#utility.yul\":2239:2253   */\n      add\n        /* \"#utility.yul\":2224:2253   */\n      swap1\n      pop\n        /* \"#utility.yul\":2055:2259   */\n      swap3\n      swap2\n      pop\n      pop\n      jump\t// out\n        /* \"#utility.yul\":2265:2427   */\n    tag_108:\n        /* \"#utility.yul\":2362:2366   */\n      0x00\n        /* \"#utility.yul\":2385:2388   */\n      dup2\n        /* \"#utility.yul\":2377:2388   */\n      swap1\n      pop\n        /* \"#utility.yul\":2415:2419   */\n      0x20\n        /* \"#utility.yul\":2410:2413   */\n      dup3\n        /* \"#utility.yul\":2406:2420   */\n      add\n        /* \"#utility.yul\":2398:2420   */\n      swap1\n      pop\n        /* \"#utility.yul\":2265:2427   */\n      swap2\n      swap1\n      pop\n      jump\t// out\n        /* \"#utility.yul\":2433:2559   */\n    tag_109:\n        /* \"#utility.yul\":2470:2477   */\n      0x00\n        /* \"#utility.yul\":2510:2552   */\n      0xffffffffffffffffffffffffffffffffffffffff\n        /* \"#utility.yul\":2503:2508   */\n      dup3\n        /* \"#utility.yul\":2499:2553   */\n      and\n        /* \"#utility.yul\":2488:2553   */\n      swap1\n      pop\n        /* \"#utility.yul\":2433:2559   */\n      swap2\n      swap1\n      pop\n      jump\t// out\n        /* \"#utility.yul\":2565:2661   */\n    tag_110:\n        /* \"#utility.yul\":2602:2609   */\n      0x00\n        /* \"#utility.yul\":2631:2655   */\n      tag_233\n        /* \"#utility.yul\":2649:2654   */\n      dup3\n        /* \"#utility.yul\":2631:2655   */\n      tag_109\n      jump\t// in\n    tag_233:\n        /* \"#utility.yul\":2620:2655   */\n      swap1\n      pop\n        /* \"#utility.yul\":2565:2661   */\n      swap2\n      swap1\n      pop\n      jump\t// out\n        /* \"#utility.yul\":2667:2775   */\n    tag_111:\n        /* \"#utility.yul\":2744:2768   */\n      tag_235\n        /* \"#utility.yul\":2762:2767   */\n      dup2\n        /* \"#utility.yul\":2744:2768   */\n      tag_110\n      jump\t// in\n    tag_235:\n        /* \"#utility.yul\":2739:2742   */\n      dup3\n        /* \"#utility.yul\":2732:2769   */\n      mstore\n        /* \"#utility.yul\":2667:2775   */\n      pop\n      pop\n      jump\t// out\n        /* \"#utility.yul\":2781:2858   */\n    tag_112:\n        /* \"#utility.yul\":2818:2825   */\n      0x00\n        /* \"#utility.yul\":2847:2852   */\n      dup2\n        /* \"#utility.yul\":2836:2852   */\n      swap1\n      pop\n        /* \"#utility.yul\":2781:2858   */\n      swap2\n      swap1\n      pop\n      jump\t// out\n        /* \"#utility.yul\":2864:2972   */\n    tag_113:\n        /* \"#utility.yul\":2941:2965   */\n      tag_238\n        /* \"#utility.yul\":2959:2964   */\n      dup2\n        /* \"#utility.yul\":2941:2965   */\n      tag_112\n      jump\t// in\n    tag_238:\n        /* \"#utility.yul\":2936:2939   */\n      dup3\n        /* \"#utility.yul\":2929:2966   */\n      mstore\n        /* \"#utility.yul\":2864:2972   */\n      pop\n      pop\n      jump\t// out\n        /* \"#utility.yul\":3046:3556   */\n    tag_114:\n        /* \"#utility.yul\":3193:3197   */\n      0x40\n        /* \"#utility.yul\":3188:3191   */\n      dup3\n        /* \"#utility.yul\":3184:3198   */\n      add\n        /* \"#utility.yul\":3281:3285   */\n      0x00\n        /* \"#utility.yul\":3274:3279   */\n      dup3\n        /* \"#utility.yul\":3270:3286   */\n      add\n        /* \"#utility.yul\":3264:3287   */\n      mload\n        /* \"#utility.yul\":3300:3363   */\n      tag_240\n        /* \"#utility.yul\":3357:3361   */\n      0x00\n        /* \"#utility.yul\":3352:3355   */\n      dup6\n        /* \"#utility.yul\":3348:3362   */\n      add\n        /* \"#utility.yul\":3334:3346   */\n      dup3\n        /* \"#utility.yul\":3300:3363   */\n      tag_111\n      jump\t// in\n    tag_240:\n        /* \"#utility.yul\":3208:3373   */\n      pop\n        /* \"#utility.yul\":3457:3461   */\n      0x20\n        /* \"#utility.yul\":3450:3455   */\n      dup3\n        /* \"#utility.yul\":3446:3462   */\n      add\n        /* \"#utility.yul\":3440:3463   */\n      mload\n        /* \"#utility.yul\":3476:3539   */\n      tag_241\n        /* \"#utility.yul\":3533:3537   */\n      0x20\n        /* \"#utility.yul\":3528:3531   */\n      dup6\n        /* \"#utility.yul\":3524:3538   */\n      add\n        /* \"#utility.yul\":3510:3522   */\n      dup3\n        /* \"#utility.yul\":3476:3539   */\n      tag_113\n      jump\t// in\n    tag_241:\n        /* \"#utility.yul\":3383:3549   */\n      pop\n        /* \"#utility.yul\":3162:3556   */\n      pop\n        /* \"#utility.yul\":3046:3556   */\n      pop\n      pop\n      jump\t// out\n        /* \"#utility.yul\":3562:3861   */\n    tag_115:\n        /* \"#utility.yul\":3691:3701   */\n      0x00\n        /* \"#utility.yul\":3712:3818   */\n      tag_243\n        /* \"#utility.yul\":3814:3817   */\n      dup4\n        /* \"#utility.yul\":3806:3812   */\n      dup4\n        /* \"#utility.yul\":3712:3818   */\n      tag_114\n      jump\t// in\n    tag_243:\n        /* \"#utility.yul\":3850:3854   */\n      0x40\n        /* \"#utility.yul\":3845:3848   */\n      dup4\n        /* \"#utility.yul\":3841:3855   */\n      add\n        /* \"#utility.yul\":3827:3855   */\n      swap1\n      pop\n        /* \"#utility.yul\":3562:3861   */\n      swap3\n      swap2\n      pop\n      pop\n      jump\t// out\n        /* \"#utility.yul\":3867:4010   */\n    tag_116:\n        /* \"#utility.yul\":3967:3971   */\n      0x00\n        /* \"#utility.yul\":3999:4003   */\n      0x20\n        /* \"#utility.yul\":3994:3997   */\n      dup3\n        /* \"#utility.yul\":3990:4004   */\n      add\n        /* \"#utility.yul\":3982:4004   */\n      swap1\n      pop\n        /* \"#utility.yul\":3867:4010   */\n      swap2\n      swap1\n      pop\n      jump\t// out\n        /* \"#utility.yul\":4088:5040   */\n    tag_117:\n        /* \"#utility.yul\":4257:4260   */\n      0x00\n        /* \"#utility.yul\":4286:4370   */\n      tag_246\n        /* \"#utility.yul\":4364:4369   */\n      dup3\n        /* \"#utility.yul\":4286:4370   */\n      tag_106\n      jump\t// in\n    tag_246:\n        /* \"#utility.yul\":4386:4492   */\n      tag_247\n        /* \"#utility.yul\":4485:4491   */\n      dup2\n        /* \"#utility.yul\":4480:4483   */\n      dup6\n        /* \"#utility.yul\":4386:4492   */\n      tag_107\n      jump\t// in\n    tag_247:\n        /* \"#utility.yul\":4379:4492   */\n      swap4\n      pop\n        /* \"#utility.yul\":4516:4602   */\n      tag_248\n        /* \"#utility.yul\":4596:4601   */\n      dup4\n        /* \"#utility.yul\":4516:4602   */\n      tag_108\n      jump\t// in\n    tag_248:\n        /* \"#utility.yul\":4625:4632   */\n      dup1\n        /* \"#utility.yul\":4656:4657   */\n      0x00\n        /* \"#utility.yul\":4641:5015   */\n    tag_249:\n        /* \"#utility.yul\":4666:4672   */\n      dup4\n        /* \"#utility.yul\":4663:4664   */\n      dup2\n        /* \"#utility.yul\":4660:4673   */\n      lt\n        /* \"#utility.yul\":4641:5015   */\n      iszero\n      tag_251\n      jumpi\n        /* \"#utility.yul\":4742:4748   */\n      dup2\n        /* \"#utility.yul\":4736:4749   */\n      mload\n        /* \"#utility.yul\":4769:4892   */\n      tag_252\n        /* \"#utility.yul\":4888:4891   */\n      dup9\n        /* \"#utility.yul\":4873:4886   */\n      dup3\n        /* \"#utility.yul\":4769:4892   */\n      tag_115\n      jump\t// in\n    tag_252:\n        /* \"#utility.yul\":4762:4892   */\n      swap8\n      pop\n        /* \"#utility.yul\":4915:5005   */\n      tag_253\n        /* \"#utility.yul\":4998:5004   */\n      dup4\n        /* \"#utility.yul\":4915:5005   */\n      tag_116\n      jump\t// in\n    tag_253:\n        /* \"#utility.yul\":4905:5005   */\n      swap3\n      pop\n        /* \"#utility.yul\":4701:5015   */\n      pop\n        /* \"#utility.yul\":4688:4689   */\n      0x01\n        /* \"#utility.yul\":4685:4686   */\n      dup2\n        /* \"#utility.yul\":4681:4690   */\n      add\n        /* \"#utility.yul\":4676:4690   */\n      swap1\n      pop\n        /* \"#utility.yul\":4641:5015   */\n      jump(tag_249)\n    tag_251:\n        /* \"#utility.yul\":4645:4659   */\n      pop\n        /* \"#utility.yul\":5031:5034   */\n      dup6\n        /* \"#utility.yul\":5024:5034   */\n      swap4\n      pop\n        /* \"#utility.yul\":4262:5040   */\n      pop\n      pop\n      pop\n        /* \"#utility.yul\":4088:5040   */\n      swap3\n      swap2\n      pop\n      pop\n      jump\t// out\n        /* \"#utility.yul\":5114:6570   */\n    tag_118:\n        /* \"#utility.yul\":5243:5246   */\n      0x00\n        /* \"#utility.yul\":5279:5283   */\n      0xa0\n        /* \"#utility.yul\":5274:5277   */\n      dup4\n        /* \"#utility.yul\":5270:5284   */\n      add\n        /* \"#utility.yul\":5370:5374   */\n      0x00\n        /* \"#utility.yul\":5363:5368   */\n      dup4\n        /* \"#utility.yul\":5359:5375   */\n      add\n        /* \"#utility.yul\":5353:5376   */\n      mload\n        /* \"#utility.yul\":5423:5426   */\n      dup5\n        /* \"#utility.yul\":5417:5421   */\n      dup3\n        /* \"#utility.yul\":5413:5427   */\n      sub\n        /* \"#utility.yul\":5406:5410   */\n      0x00\n        /* \"#utility.yul\":5401:5404   */\n      dup7\n        /* \"#utility.yul\":5397:5411   */\n      add\n        /* \"#utility.yul\":5390:5428   */\n      mstore\n        /* \"#utility.yul\":5449:5520   */\n      tag_255\n        /* \"#utility.yul\":5515:5519   */\n      dup3\n        /* \"#utility.yul\":5501:5513   */\n      dup3\n        /* \"#utility.yul\":5449:5520   */\n      tag_105\n      jump\t// in\n    tag_255:\n        /* \"#utility.yul\":5441:5520   */\n      swap2\n      pop\n        /* \"#utility.yul\":5294:5531   */\n      pop\n        /* \"#utility.yul\":5613:5617   */\n      0x20\n        /* \"#utility.yul\":5606:5611   */\n      dup4\n        /* \"#utility.yul\":5602:5618   */\n      add\n        /* \"#utility.yul\":5596:5619   */\n      mload\n        /* \"#utility.yul\":5666:5669   */\n      dup5\n        /* \"#utility.yul\":5660:5664   */\n      dup3\n        /* \"#utility.yul\":5656:5670   */\n      sub\n        /* \"#utility.yul\":5649:5653   */\n      0x20\n        /* \"#utility.yul\":5644:5647   */\n      dup7\n        /* \"#utility.yul\":5640:5654   */\n      add\n        /* \"#utility.yul\":5633:5671   */\n      mstore\n        /* \"#utility.yul\":5692:5763   */\n      tag_256\n        /* \"#utility.yul\":5758:5762   */\n      dup3\n        /* \"#utility.yul\":5744:5756   */\n      dup3\n        /* \"#utility.yul\":5692:5763   */\n      tag_105\n      jump\t// in\n    tag_256:\n        /* \"#utility.yul\":5684:5763   */\n      swap2\n      pop\n        /* \"#utility.yul\":5541:5774   */\n      pop\n        /* \"#utility.yul\":5864:5868   */\n      0x40\n        /* \"#utility.yul\":5857:5862   */\n      dup4\n        /* \"#utility.yul\":5853:5869   */\n      add\n        /* \"#utility.yul\":5847:5870   */\n      mload\n        /* \"#utility.yul\":5917:5920   */\n      dup5\n        /* \"#utility.yul\":5911:5915   */\n      dup3\n        /* \"#utility.yul\":5907:5921   */\n      sub\n        /* \"#utility.yul\":5900:5904   */\n      0x40\n        /* \"#utility.yul\":5895:5898   */\n      dup7\n        /* \"#utility.yul\":5891:5905   */\n      add\n        /* \"#utility.yul\":5884:5922   */\n      mstore\n        /* \"#utility.yul\":5943:6106   */\n      tag_257\n        /* \"#utility.yul\":6101:6105   */\n      dup3\n        /* \"#utility.yul\":6087:6099   */\n      dup3\n        /* \"#utility.yul\":5943:6106   */\n      tag_117\n      jump\t// in\n    tag_257:\n        /* \"#utility.yul\":5935:6106   */\n      swap2\n      pop\n        /* \"#utility.yul\":5784:6117   */\n      pop\n        /* \"#utility.yul\":6203:6207   */\n      0x60\n        /* \"#utility.yul\":6196:6201   */\n      dup4\n        /* \"#utility.yul\":6192:6208   */\n      add\n        /* \"#utility.yul\":6186:6209   */\n      mload\n        /* \"#utility.yul\":6222:6285   */\n      tag_258\n        /* \"#utility.yul\":6279:6283   */\n      0x60\n        /* \"#utility.yul\":6274:6277   */\n      dup7\n        /* \"#utility.yul\":6270:6284   */\n      add\n        /* \"#utility.yul\":6256:6268   */\n      dup3\n        /* \"#utility.yul\":6222:6285   */\n      tag_111\n      jump\t// in\n    tag_258:\n        /* \"#utility.yul\":6127:6295   */\n      pop\n        /* \"#utility.yul\":6382:6386   */\n      0x80\n        /* \"#utility.yul\":6375:6380   */\n      dup4\n        /* \"#utility.yul\":6371:6387   */\n      add\n        /* \"#utility.yul\":6365:6388   */\n      mload\n        /* \"#utility.yul\":6435:6438   */\n      dup5\n        /* \"#utility.yul\":6429:6433   */\n      dup3\n        /* \"#utility.yul\":6425:6439   */\n      sub\n        /* \"#utility.yul\":6418:6422   */\n      0x80\n        /* \"#utility.yul\":6413:6416   */\n      dup7\n        /* \"#utility.yul\":6409:6423   */\n      add\n        /* \"#utility.yul\":6402:6440   */\n      mstore\n        /* \"#utility.yul\":6461:6532   */\n      tag_259\n        /* \"#utility.yul\":6527:6531   */\n      dup3\n        /* \"#utility.yul\":6513:6525   */\n      dup3\n        /* \"#utility.yul\":6461:6532   */\n      tag_105\n      jump\t// in\n    tag_259:\n        /* \"#utility.yul\":6453:6532   */\n      swap2\n      pop\n        /* \"#utility.yul\":6305:6543   */\n      pop\n        /* \"#utility.yul\":6560:6564   */\n      dup1\n        /* \"#utility.yul\":6553:6564   */\n      swap2\n      pop\n        /* \"#utility.yul\":5248:6570   */\n      pop\n        /* \"#utility.yul\":5114:6570   */\n      swap3\n      swap2\n      pop\n      pop\n      jump\t// out\n        /* \"#utility.yul\":6576:6969   */\n    tag_16:\n        /* \"#utility.yul\":6729:6733   */\n      0x00\n        /* \"#utility.yul\":6767:6769   */\n      0x20\n        /* \"#utility.yul\":6756:6765   */\n      dup3\n        /* \"#utility.yul\":6752:6770   */\n      add\n        /* \"#utility.yul\":6744:6770   */\n      swap1\n      pop\n        /* \"#utility.yul\":6816:6825   */\n      dup2\n        /* \"#utility.yul\":6810:6814   */\n      dup2\n        /* \"#utility.yul\":6806:6826   */\n      sub\n        /* \"#utility.yul\":6802:6803   */\n      0x00\n        /* \"#utility.yul\":6791:6800   */\n      dup4\n        /* \"#utility.yul\":6787:6804   */\n      add\n        /* \"#utility.yul\":6780:6827   */\n      mstore\n        /* \"#utility.yul\":6844:6962   */\n      tag_261\n        /* \"#utility.yul\":6957:6961   */\n      dup2\n        /* \"#utility.yul\":6948:6954   */\n      dup5\n        /* \"#utility.yul\":6844:6962   */\n      tag_118\n      jump\t// in\n    tag_261:\n        /* \"#utility.yul\":6836:6962   */\n      swap1\n      pop\n        /* \"#utility.yul\":6576:6969   */\n      swap3\n      swap2\n      pop\n      pop\n      jump\t// out\n        /* \"#utility.yul\":6975:7076   */\n    tag_119:\n        /* \"#utility.yul\":7011:7018   */\n      0x00\n        /* \"#utility.yul\":7051:7069   */\n      0xffffffffffffffff\n        /* \"#utility.yul\":7044:7049   */\n      dup3\n        /* \"#utility.yul\":7040:7070   */\n      and\n        /* \"#utility.yul\":7029:7070   */\n      swap1\n      pop\n        /* \"#utility.yul\":6975:7076   */\n      swap2\n      swap1\n      pop\n      jump\t// out\n        /* \"#utility.yul\":7082:7202   */\n    tag_120:\n        /* \"#utility.yul\":7154:7177   */\n      tag_264\n        /* \"#utility.yul\":7171:7176   */\n      dup2\n        /* \"#utility.yul\":7154:7177   */\n      tag_119\n      jump\t// in\n    tag_264:\n        /* \"#utility.yul\":7147:7152   */\n      dup2\n        /* \"#utility.yul\":7144:7178   */\n      eq\n        /* \"#utility.yul\":7134:7196   */\n      tag_265\n      jumpi\n        /* \"#utility.yul\":7192:7193   */\n      0x00\n        /* \"#utility.yul\":7189:7190   */\n      0x00\n        /* \"#utility.yul\":7182:7194   */\n      revert\n        /* \"#utility.yul\":7134:7196   */\n    tag_265:\n        /* \"#utility.yul\":7082:7202   */\n      pop\n      jump\t// out\n        /* \"#utility.yul\":7208:7345   */\n    tag_121:\n        /* \"#utility.yul\":7253:7258   */\n      0x00\n        /* \"#utility.yul\":7291:7297   */\n      dup2\n        /* \"#utility.yul\":7278:7298   */\n      calldataload\n        /* \"#utility.yul\":7269:7298   */\n      swap1\n      pop\n        /* \"#utility.yul\":7307:7339   */\n      tag_267\n        /* \"#utility.yul\":7333:7338   */\n      dup2\n        /* \"#utility.yul\":7307:7339   */\n      tag_120\n      jump\t// in\n    tag_267:\n        /* \"#utility.yul\":7208:7345   */\n      swap3\n      swap2\n      pop\n      pop\n      jump\t// out\n        /* \"#utility.yul\":7351:7468   */\n    tag_122:\n        /* \"#utility.yul\":7460:7461   */\n      0x00\n        /* \"#utility.yul\":7457:7458   */\n      0x00\n        /* \"#utility.yul\":7450:7462   */\n      revert\n        /* \"#utility.yul\":7510:7747   */\n    tag_123:\n        /* \"#utility.yul\":7588:7593   */\n      0x00\n        /* \"#utility.yul\":7629:7632   */\n      0xa0\n        /* \"#utility.yul\":7620:7626   */\n      dup3\n        /* \"#utility.yul\":7615:7618   */\n      dup5\n        /* \"#utility.yul\":7611:7627   */\n      sub\n        /* \"#utility.yul\":7607:7633   */\n      slt\n        /* \"#utility.yul\":7604:7717   */\n      iszero\n      tag_270\n      jumpi\n        /* \"#utility.yul\":7636:7715   */\n      tag_271\n      tag_122\n      jump\t// in\n    tag_271:\n        /* \"#utility.yul\":7604:7717   */\n    tag_270:\n        /* \"#utility.yul\":7735:7741   */\n      dup2\n        /* \"#utility.yul\":7726:7741   */\n      swap1\n      pop\n        /* \"#utility.yul\":7510:7747   */\n      swap3\n      swap2\n      pop\n      pop\n      jump\t// out\n        /* \"#utility.yul\":7753:8449   */\n    tag_23:\n        /* \"#utility.yul\":7852:7858   */\n      0x00\n        /* \"#utility.yul\":7860:7866   */\n      0x00\n        /* \"#utility.yul\":7909:7911   */\n      0x40\n        /* \"#utility.yul\":7897:7906   */\n      dup4\n        /* \"#utility.yul\":7888:7895   */\n      dup6\n        /* \"#utility.yul\":7884:7907   */\n      sub\n        /* \"#utility.yul\":7880:7912   */\n      slt\n        /* \"#utility.yul\":7877:7996   */\n      iszero\n      tag_273\n      jumpi\n        /* \"#utility.yul\":7915:7994   */\n      tag_274\n      tag_96\n      jump\t// in\n    tag_274:\n        /* \"#utility.yul\":7877:7996   */\n    tag_273:\n        /* \"#utility.yul\":8035:8036   */\n      0x00\n        /* \"#utility.yul\":8060:8112   */\n      tag_275\n        /* \"#utility.yul\":8104:8111   */\n      dup6\n        /* \"#utility.yul\":8095:8101   */\n      dup3\n        /* \"#utility.yul\":8084:8093   */\n      dup7\n        /* \"#utility.yul\":8080:8102   */\n      add\n        /* \"#utility.yul\":8060:8112   */\n      tag_121\n      jump\t// in\n    tag_275:\n        /* \"#utility.yul\":8050:8112   */\n      swap3\n      pop\n        /* \"#utility.yul\":8006:8122   */\n      pop\n        /* \"#utility.yul\":8189:8191   */\n      0x20\n        /* \"#utility.yul\":8178:8187   */\n      dup4\n        /* \"#utility.yul\":8174:8192   */\n      add\n        /* \"#utility.yul\":8161:8193   */\n      calldataload\n        /* \"#utility.yul\":8220:8238   */\n      0xffffffffffffffff\n        /* \"#utility.yul\":8212:8218   */\n      dup2\n        /* \"#utility.yul\":8209:8239   */\n      gt\n        /* \"#utility.yul\":8206:8323   */\n      iszero\n      tag_276\n      jumpi\n        /* \"#utility.yul\":8242:8321   */\n      tag_277\n      tag_97\n      jump\t// in\n    tag_277:\n        /* \"#utility.yul\":8206:8323   */\n    tag_276:\n        /* \"#utility.yul\":8347:8432   */\n      tag_278\n        /* \"#utility.yul\":8424:8431   */\n      dup6\n        /* \"#utility.yul\":8415:8421   */\n      dup3\n        /* \"#utility.yul\":8404:8413   */\n      dup7\n        /* \"#utility.yul\":8400:8422   */\n      add\n        /* \"#utility.yul\":8347:8432   */\n      tag_123\n      jump\t// in\n    tag_278:\n        /* \"#utility.yul\":8337:8432   */\n      swap2\n      pop\n        /* \"#utility.yul\":8132:8442   */\n      pop\n        /* \"#utility.yul\":7753:8449   */\n      swap3\n      pop\n      swap3\n      swap1\n      pop\n      jump\t// out\n        /* \"#utility.yul\":8455:8573   */\n    tag_124:\n        /* \"#utility.yul\":8542:8566   */\n      tag_280\n        /* \"#utility.yul\":8560:8565   */\n      dup2\n        /* \"#utility.yul\":8542:8566   */\n      tag_112\n      jump\t// in\n    tag_280:\n        /* \"#utility.yul\":8537:8540   */\n      dup3\n        /* \"#utility.yul\":8530:8567   */\n      mstore\n        /* \"#utility.yul\":8455:8573   */\n      pop\n      pop\n      jump\t// out\n        /* \"#utility.yul\":8579:8801   */\n    tag_26:\n        /* \"#utility.yul\":8672:8676   */\n      0x00\n        /* \"#utility.yul\":8710:8712   */\n      0x20\n        /* \"#utility.yul\":8699:8708   */\n      dup3\n        /* \"#utility.yul\":8695:8713   */\n      add\n        /* \"#utility.yul\":8687:8713   */\n      swap1\n      pop\n        /* \"#utility.yul\":8723:8794   */\n      tag_282\n        /* \"#utility.yul\":8791:8792   */\n      0x00\n        /* \"#utility.yul\":8780:8789   */\n      dup4\n        /* \"#utility.yul\":8776:8793   */\n      add\n        /* \"#utility.yul\":8767:8773   */\n      dup5\n        /* \"#utility.yul\":8723:8794   */\n      tag_124\n      jump\t// in\n    tag_282:\n        /* \"#utility.yul\":8579:8801   */\n      swap3\n      swap2\n      pop\n      pop\n      jump\t// out\n        /* \"#utility.yul\":8807:8897   */\n    tag_125:\n        /* \"#utility.yul\":8841:8848   */\n      0x00\n        /* \"#utility.yul\":8884:8889   */\n      dup2\n        /* \"#utility.yul\":8877:8890   */\n      iszero\n        /* \"#utility.yul\":8870:8891   */\n      iszero\n        /* \"#utility.yul\":8859:8891   */\n      swap1\n      pop\n        /* \"#utility.yul\":8807:8897   */\n      swap2\n      swap1\n      pop\n      jump\t// out\n        /* \"#utility.yul\":8903:9012   */\n    tag_126:\n        /* \"#utility.yul\":8984:9005   */\n      tag_285\n        /* \"#utility.yul\":8999:9004   */\n      dup2\n        /* \"#utility.yul\":8984:9005   */\n      tag_125\n      jump\t// in\n    tag_285:\n        /* \"#utility.yul\":8979:8982   */\n      dup3\n        /* \"#utility.yul\":8972:9006   */\n      mstore\n        /* \"#utility.yul\":8903:9012   */\n      pop\n      pop\n      jump\t// out\n        /* \"#utility.yul\":9018:9228   */\n    tag_31:\n        /* \"#utility.yul\":9105:9109   */\n      0x00\n        /* \"#utility.yul\":9143:9145   */\n      0x20\n        /* \"#utility.yul\":9132:9141   */\n      dup3\n        /* \"#utility.yul\":9128:9146   */\n      add\n        /* \"#utility.yul\":9120:9146   */\n      swap1\n      pop\n        /* \"#utility.yul\":9156:9221   */\n      tag_287\n        /* \"#utility.yul\":9218:9219   */\n      0x00\n        /* \"#utility.yul\":9207:9216   */\n      dup4\n        /* \"#utility.yul\":9203:9220   */\n      add\n        /* \"#utility.yul\":9194:9200   */\n      dup5\n        /* \"#utility.yul\":9156:9221   */\n      tag_126\n      jump\t// in\n    tag_287:\n        /* \"#utility.yul\":9018:9228   */\n      swap3\n      swap2\n      pop\n      pop\n      jump\t// out\n        /* \"#utility.yul\":9234:9402   */\n    tag_127:\n        /* \"#utility.yul\":9317:9328   */\n      0x00\n        /* \"#utility.yul\":9351:9357   */\n      dup3\n        /* \"#utility.yul\":9346:9349   */\n      dup3\n        /* \"#utility.yul\":9339:9358   */\n      mstore\n        /* \"#utility.yul\":9391:9395   */\n      0x20\n        /* \"#utility.yul\":9386:9389   */\n      dup3\n        /* \"#utility.yul\":9382:9396   */\n      add\n        /* \"#utility.yul\":9367:9396   */\n      swap1\n      pop\n        /* \"#utility.yul\":9234:9402   */\n      swap3\n      swap2\n      pop\n      pop\n      jump\t// out\n        /* \"#utility.yul\":9408:9781   */\n    tag_128:\n        /* \"#utility.yul\":9494:9497   */\n      0x00\n        /* \"#utility.yul\":9522:9560   */\n      tag_290\n        /* \"#utility.yul\":9554:9559   */\n      dup3\n        /* \"#utility.yul\":9522:9560   */\n      tag_101\n      jump\t// in\n    tag_290:\n        /* \"#utility.yul\":9576:9646   */\n      tag_291\n        /* \"#utility.yul\":9639:9645   */\n      dup2\n        /* \"#utility.yul\":9634:9637   */\n      dup6\n        /* \"#utility.yul\":9576:9646   */\n      tag_127\n      jump\t// in\n    tag_291:\n        /* \"#utility.yul\":9569:9646   */\n      swap4\n      pop\n        /* \"#utility.yul\":9655:9720   */\n      tag_292\n        /* \"#utility.yul\":9713:9719   */\n      dup2\n        /* \"#utility.yul\":9708:9711   */\n      dup6\n        /* \"#utility.yul\":9701:9705   */\n      0x20\n        /* \"#utility.yul\":9694:9699   */\n      dup7\n        /* \"#utility.yul\":9690:9706   */\n      add\n        /* \"#utility.yul\":9655:9720   */\n      tag_103\n      jump\t// in\n    tag_292:\n        /* \"#utility.yul\":9745:9774   */\n      tag_293\n        /* \"#utility.yul\":9767:9773   */\n      dup2\n        /* \"#utility.yul\":9745:9774   */\n      tag_104\n      jump\t// in\n    tag_293:\n        /* \"#utility.yul\":9740:9743   */\n      dup5\n        /* \"#utility.yul\":9736:9775   */\n      add\n        /* \"#utility.yul\":9729:9775   */\n      swap2\n      pop\n        /* \"#utility.yul\":9498:9781   */\n      pop\n        /* \"#utility.yul\":9408:9781   */\n      swap3\n      swap2\n      pop\n      pop\n      jump\t// out\n        /* \"#utility.yul\":9787:9905   */\n    tag_129:\n        /* \"#utility.yul\":9874:9898   */\n      tag_295\n        /* \"#utility.yul\":9892:9897   */\n      dup2\n        /* \"#utility.yul\":9874:9898   */\n      tag_110\n      jump\t// in\n    tag_295:\n        /* \"#utility.yul\":9869:9872   */\n      dup3\n        /* \"#utility.yul\":9862:9899   */\n      mstore\n        /* \"#utility.yul\":9787:9905   */\n      pop\n      pop\n      jump\t// out\n        /* \"#utility.yul\":9911:10725   */\n    tag_37:\n        /* \"#utility.yul\":10142:10146   */\n      0x00\n        /* \"#utility.yul\":10180:10183   */\n      0x80\n        /* \"#utility.yul\":10169:10178   */\n      dup3\n        /* \"#utility.yul\":10165:10184   */\n      add\n        /* \"#utility.yul\":10157:10184   */\n      swap1\n      pop\n        /* \"#utility.yul\":10230:10239   */\n      dup2\n        /* \"#utility.yul\":10224:10228   */\n      dup2\n        /* \"#utility.yul\":10220:10240   */\n      sub\n        /* \"#utility.yul\":10216:10217   */\n      0x00\n        /* \"#utility.yul\":10205:10214   */\n      dup4\n        /* \"#utility.yul\":10201:10218   */\n      add\n        /* \"#utility.yul\":10194:10241   */\n      mstore\n        /* \"#utility.yul\":10258:10334   */\n      tag_297\n        /* \"#utility.yul\":10329:10333   */\n      dup2\n        /* \"#utility.yul\":10320:10326   */\n      dup8\n        /* \"#utility.yul\":10258:10334   */\n      tag_128\n      jump\t// in\n    tag_297:\n        /* \"#utility.yul\":10250:10334   */\n      swap1\n      pop\n        /* \"#utility.yul\":10381:10390   */\n      dup2\n        /* \"#utility.yul\":10375:10379   */\n      dup2\n        /* \"#utility.yul\":10371:10391   */\n      sub\n        /* \"#utility.yul\":10366:10368   */\n      0x20\n        /* \"#utility.yul\":10355:10364   */\n      dup4\n        /* \"#utility.yul\":10351:10369   */\n      add\n        /* \"#utility.yul\":10344:10392   */\n      mstore\n        /* \"#utility.yul\":10409:10485   */\n      tag_298\n        /* \"#utility.yul\":10480:10484   */\n      dup2\n        /* \"#utility.yul\":10471:10477   */\n      dup7\n        /* \"#utility.yul\":10409:10485   */\n      tag_128\n      jump\t// in\n    tag_298:\n        /* \"#utility.yul\":10401:10485   */\n      swap1\n      pop\n        /* \"#utility.yul\":10495:10567   */\n      tag_299\n        /* \"#utility.yul\":10563:10565   */\n      0x40\n        /* \"#utility.yul\":10552:10561   */\n      dup4\n        /* \"#utility.yul\":10548:10566   */\n      add\n        /* \"#utility.yul\":10539:10545   */\n      dup6\n        /* \"#utility.yul\":10495:10567   */\n      tag_129\n      jump\t// in\n    tag_299:\n        /* \"#utility.yul\":10614:10623   */\n      dup2\n        /* \"#utility.yul\":10608:10612   */\n      dup2\n        /* \"#utility.yul\":10604:10624   */\n      sub\n        /* \"#utility.yul\":10599:10601   */\n      0x60\n        /* \"#utility.yul\":10588:10597   */\n      dup4\n        /* \"#utility.yul\":10584:10602   */\n      add\n        /* \"#utility.yul\":10577:10625   */\n      mstore\n        /* \"#utility.yul\":10642:10718   */\n      tag_300\n        /* \"#utility.yul\":10713:10717   */\n      dup2\n        /* \"#utility.yul\":10704:10710   */\n      dup5\n        /* \"#utility.yul\":10642:10718   */\n      tag_128\n      jump\t// in\n    tag_300:\n        /* \"#utility.yul\":10634:10718   */\n      swap1\n      pop\n        /* \"#utility.yul\":9911:10725   */\n      swap6\n      swap5\n      pop\n      pop\n      pop\n      pop\n      pop\n      jump\t// out\n        /* \"#utility.yul\":10731:10849   */\n    tag_130:\n        /* \"#utility.yul\":10818:10842   */\n      tag_302\n        /* \"#utility.yul\":10836:10841   */\n      dup2\n        /* \"#utility.yul\":10818:10842   */\n      tag_98\n      jump\t// in\n    tag_302:\n        /* \"#utility.yul\":10813:10816   */\n      dup3\n        /* \"#utility.yul\":10806:10843   */\n      mstore\n        /* \"#utility.yul\":10731:10849   */\n      pop\n      pop\n      jump\t// out\n        /* \"#utility.yul\":10855:11077   */\n    tag_42:\n        /* \"#utility.yul\":10948:10952   */\n      0x00\n        /* \"#utility.yul\":10986:10988   */\n      0x20\n        /* \"#utility.yul\":10975:10984   */\n      dup3\n        /* \"#utility.yul\":10971:10989   */\n      add\n        /* \"#utility.yul\":10963:10989   */\n      swap1\n      pop\n        /* \"#utility.yul\":10999:11070   */\n      tag_304\n        /* \"#utility.yul\":11067:11068   */\n      0x00\n        /* \"#utility.yul\":11056:11065   */\n      dup4\n        /* \"#utility.yul\":11052:11069   */\n      add\n        /* \"#utility.yul\":11043:11049   */\n      dup5\n        /* \"#utility.yul\":10999:11070   */\n      tag_130\n      jump\t// in\n    tag_304:\n        /* \"#utility.yul\":10855:11077   */\n      swap3\n      swap2\n      pop\n      pop\n      jump\t// out\n        /* \"#utility.yul\":11083:11410   */\n    tag_46:\n        /* \"#utility.yul\":11141:11147   */\n      0x00\n        /* \"#utility.yul\":11190:11192   */\n      0x20\n        /* \"#utility.yul\":11178:11187   */\n      dup3\n        /* \"#utility.yul\":11169:11176   */\n      dup5\n        /* \"#utility.yul\":11165:11188   */\n      sub\n        /* \"#utility.yul\":11161:11193   */\n      slt\n        /* \"#utility.yul\":11158:11277   */\n      iszero\n      tag_306\n      jumpi\n        /* \"#utility.yul\":11196:11275   */\n      tag_307\n      tag_96\n      jump\t// in\n    tag_307:\n        /* \"#utility.yul\":11158:11277   */\n    tag_306:\n        /* \"#utility.yul\":11316:11317   */\n      0x00\n        /* \"#utility.yul\":11341:11393   */\n      tag_308\n        /* \"#utility.yul\":11385:11392   */\n      dup5\n        /* \"#utility.yul\":11376:11382   */\n      dup3\n        /* \"#utility.yul\":11365:11374   */\n      dup6\n        /* \"#utility.yul\":11361:11383   */\n      add\n        /* \"#utility.yul\":11341:11393   */\n      tag_121\n      jump\t// in\n    tag_308:\n        /* \"#utility.yul\":11331:11393   */\n      swap2\n      pop\n        /* \"#utility.yul\":11287:11403   */\n      pop\n        /* \"#utility.yul\":11083:11410   */\n      swap3\n      swap2\n      pop\n      pop\n      jump\t// out\n        /* \"#utility.yul\":11416:11596   */\n    tag_131:\n        /* \"#utility.yul\":11464:11541   */\n      0x4e487b7100000000000000000000000000000000000000000000000000000000\n        /* \"#utility.yul\":11461:11462   */\n      0x00\n        /* \"#utility.yul\":11454:11542   */\n      mstore\n        /* \"#utility.yul\":11561:11565   */\n      0x22\n        /* \"#utility.yul\":11558:11559   */\n      0x04\n        /* \"#utility.yul\":11551:11566   */\n      mstore\n        /* \"#utility.yul\":11585:11589   */\n      0x24\n        /* \"#utility.yul\":11582:11583   */\n      0x00\n        /* \"#utility.yul\":11575:11590   */\n      revert\n        /* \"#utility.yul\":11602:11922   */\n    tag_53:\n        /* \"#utility.yul\":11646:11652   */\n      0x00\n        /* \"#utility.yul\":11683:11684   */\n      0x02\n        /* \"#utility.yul\":11677:11681   */\n      dup3\n        /* \"#utility.yul\":11673:11685   */\n      div\n        /* \"#utility.yul\":11663:11685   */\n      swap1\n      pop\n        /* \"#utility.yul\":11730:11731   */\n      0x01\n        /* \"#utility.yul\":11724:11728   */\n      dup3\n        /* \"#utility.yul\":11720:11732   */\n      and\n        /* \"#utility.yul\":11751:11769   */\n      dup1\n        /* \"#utility.yul\":11741:11822   */\n      tag_311\n      jumpi\n        /* \"#utility.yul\":11807:11811   */\n      0x7f\n        /* \"#utility.yul\":11799:11805   */\n      dup3\n        /* \"#utility.yul\":11795:11812   */\n      and\n        /* \"#utility.yul\":11785:11812   */\n      swap2\n      pop\n        /* \"#utility.yul\":11741:11822   */\n    tag_311:\n        /* \"#utility.yul\":11869:11871   */\n      0x20\n        /* \"#utility.yul\":11861:11867   */\n      dup3\n        /* \"#utility.yul\":11858:11872   */\n      lt\n        /* \"#utility.yul\":11838:11856   */\n      dup2\n        /* \"#utility.yul\":11835:11873   */\n      sub\n        /* \"#utility.yul\":11832:11916   */\n      tag_312\n      jumpi\n        /* \"#utility.yul\":11888:11906   */\n      tag_313\n      tag_131\n      jump\t// in\n    tag_313:\n        /* \"#utility.yul\":11832:11916   */\n    tag_312:\n        /* \"#utility.yul\":11653:11922   */\n      pop\n        /* \"#utility.yul\":11602:11922   */\n      swap2\n      swap1\n      pop\n      jump\t// out\n        /* \"#utility.yul\":11928:12045   */\n    tag_132:\n        /* \"#utility.yul\":12037:12038   */\n      0x00\n        /* \"#utility.yul\":12034:12035   */\n      0x00\n        /* \"#utility.yul\":12027:12039   */\n      revert\n        /* \"#utility.yul\":12051:12168   */\n    tag_133:\n        /* \"#utility.yul\":12160:12161   */\n      0x00\n        /* \"#utility.yul\":12157:12158   */\n      0x00\n        /* \"#utility.yul\":12150:12162   */\n      revert\n        /* \"#utility.yul\":12174:12291   */\n    tag_134:\n        /* \"#utility.yul\":12283:12284   */\n      0x00\n        /* \"#utility.yul\":12280:12281   */\n      0x00\n        /* \"#utility.yul\":12273:12285   */\n      revert\n        /* \"#utility.yul\":12297:13008   */\n    tag_135:\n        /* \"#utility.yul\":12361:12366   */\n      0x00\n        /* \"#utility.yul\":12368:12374   */\n      0x00\n        /* \"#utility.yul\":12424:12427   */\n      dup4\n        /* \"#utility.yul\":12411:12428   */\n      calldataload\n        /* \"#utility.yul\":12516:12517   */\n      0x01\n        /* \"#utility.yul\":12510:12514   */\n      0x20\n        /* \"#utility.yul\":12506:12518   */\n      sub\n        /* \"#utility.yul\":12495:12503   */\n      dup5\n        /* \"#utility.yul\":12479:12493   */\n      calldatasize\n        /* \"#utility.yul\":12475:12504   */\n      sub\n        /* \"#utility.yul\":12471:12519   */\n      sub\n        /* \"#utility.yul\":12451:12469   */\n      dup2\n        /* \"#utility.yul\":12447:12520   */\n      slt\n        /* \"#utility.yul\":12437:12605   */\n      tag_318\n      jumpi\n        /* \"#utility.yul\":12524:12603   */\n      tag_319\n      tag_134\n      jump\t// in\n    tag_319:\n        /* \"#utility.yul\":12437:12605   */\n    tag_318:\n        /* \"#utility.yul\":12647:12655   */\n      dup4\n        /* \"#utility.yul\":12627:12645   */\n      dup2\n        /* \"#utility.yul\":12623:12656   */\n      add\n        /* \"#utility.yul\":12614:12656   */\n      swap3\n      pop\n        /* \"#utility.yul\":12689:12694   */\n      dup3\n        /* \"#utility.yul\":12676:12695   */\n      calldataload\n        /* \"#utility.yul\":12666:12695   */\n      swap2\n      pop\n        /* \"#utility.yul\":12724:12728   */\n      0x20\n        /* \"#utility.yul\":12717:12722   */\n      dup4\n        /* \"#utility.yul\":12713:12729   */\n      add\n        /* \"#utility.yul\":12704:12729   */\n      swap3\n      pop\n        /* \"#utility.yul\":12752:12770   */\n      0xffffffffffffffff\n        /* \"#utility.yul\":12744:12750   */\n      dup3\n        /* \"#utility.yul\":12741:12771   */\n      gt\n        /* \"#utility.yul\":12738:12855   */\n      iszero\n      tag_320\n      jumpi\n        /* \"#utility.yul\":12774:12853   */\n      tag_321\n      tag_132\n      jump\t// in\n    tag_321:\n        /* \"#utility.yul\":12738:12855   */\n    tag_320:\n        /* \"#utility.yul\":12910:12914   */\n      0x01\n        /* \"#utility.yul\":12902:12908   */\n      dup3\n        /* \"#utility.yul\":12898:12915   */\n      mul\n        /* \"#utility.yul\":12882:12896   */\n      calldatasize\n        /* \"#utility.yul\":12878:12916   */\n      sub\n        /* \"#utility.yul\":12871:12876   */\n      dup4\n        /* \"#utility.yul\":12867:12917   */\n      sgt\n        /* \"#utility.yul\":12864:13001   */\n      iszero\n      tag_322\n      jumpi\n        /* \"#utility.yul\":12920:12999   */\n      tag_323\n      tag_133\n      jump\t// in\n    tag_323:\n        /* \"#utility.yul\":12864:13001   */\n    tag_322:\n        /* \"#utility.yul\":12375:13008   */\n      pop\n        /* \"#utility.yul\":12297:13008   */\n      swap3\n      pop\n      swap3\n      swap1\n      pop\n      jump\t// out\n        /* \"#utility.yul\":13014:13162   */\n    tag_136:\n        /* \"#utility.yul\":13112:13118   */\n      dup3\n        /* \"#utility.yul\":13107:13110   */\n      dup2\n        /* \"#utility.yul\":13102:13105   */\n      dup4\n        /* \"#utility.yul\":13089:13119   */\n      calldatacopy\n        /* \"#utility.yul\":13153:13154   */\n      0x00\n        /* \"#utility.yul\":13144:13150   */\n      dup4\n        /* \"#utility.yul\":13139:13142   */\n      dup4\n        /* \"#utility.yul\":13135:13151   */\n      add\n        /* \"#utility.yul\":13128:13155   */\n      mstore\n        /* \"#utility.yul\":13014:13162   */\n      pop\n      pop\n      pop\n      jump\t// out\n        /* \"#utility.yul\":13190:13484   */\n    tag_137:\n        /* \"#utility.yul\":13276:13279   */\n      0x00\n        /* \"#utility.yul\":13297:13357   */\n      tag_326\n        /* \"#utility.yul\":13350:13356   */\n      dup4\n        /* \"#utility.yul\":13345:13348   */\n      dup6\n        /* \"#utility.yul\":13297:13357   */\n      tag_102\n      jump\t// in\n    tag_326:\n        /* \"#utility.yul\":13290:13357   */\n      swap4\n      pop\n        /* \"#utility.yul\":13367:13423   */\n      tag_327\n        /* \"#utility.yul\":13416:13422   */\n      dup4\n        /* \"#utility.yul\":13411:13414   */\n      dup6\n        /* \"#utility.yul\":13404:13409   */\n      dup5\n        /* \"#utility.yul\":13367:13423   */\n      tag_136\n      jump\t// in\n    tag_327:\n        /* \"#utility.yul\":13448:13477   */\n      tag_328\n        /* \"#utility.yul\":13470:13476   */\n      dup4\n        /* \"#utility.yul\":13448:13477   */\n      tag_104\n      jump\t// in\n    tag_328:\n        /* \"#utility.yul\":13443:13446   */\n      dup5\n        /* \"#utility.yul\":13439:13478   */\n      add\n        /* \"#utility.yul\":13432:13478   */\n      swap1\n      pop\n        /* \"#utility.yul\":13190:13484   */\n      swap4\n      swap3\n      pop\n      pop\n      pop\n      jump\t// out\n        /* \"#utility.yul\":13490:14249   */\n    tag_138:\n        /* \"#utility.yul\":13602:13607   */\n      0x00\n        /* \"#utility.yul\":13609:13615   */\n      0x00\n        /* \"#utility.yul\":13665:13668   */\n      dup4\n        /* \"#utility.yul\":13652:13669   */\n      calldataload\n        /* \"#utility.yul\":13757:13758   */\n      0x01\n        /* \"#utility.yul\":13751:13755   */\n      0x20\n        /* \"#utility.yul\":13747:13759   */\n      sub\n        /* \"#utility.yul\":13736:13744   */\n      dup5\n        /* \"#utility.yul\":13720:13734   */\n      calldatasize\n        /* \"#utility.yul\":13716:13745   */\n      sub\n        /* \"#utility.yul\":13712:13760   */\n      sub\n        /* \"#utility.yul\":13692:13710   */\n      dup2\n        /* \"#utility.yul\":13688:13761   */\n      slt\n        /* \"#utility.yul\":13678:13846   */\n      tag_330\n      jumpi\n        /* \"#utility.yul\":13765:13844   */\n      tag_331\n      tag_134\n      jump\t// in\n    tag_331:\n        /* \"#utility.yul\":13678:13846   */\n    tag_330:\n        /* \"#utility.yul\":13888:13896   */\n      dup4\n        /* \"#utility.yul\":13868:13886   */\n      dup2\n        /* \"#utility.yul\":13864:13897   */\n      add\n        /* \"#utility.yul\":13855:13897   */\n      swap3\n      pop\n        /* \"#utility.yul\":13930:13935   */\n      dup3\n        /* \"#utility.yul\":13917:13936   */\n      calldataload\n        /* \"#utility.yul\":13907:13936   */\n      swap2\n      pop\n        /* \"#utility.yul\":13965:13969   */\n      0x20\n        /* \"#utility.yul\":13958:13963   */\n      dup4\n        /* \"#utility.yul\":13954:13970   */\n      add\n        /* \"#utility.yul\":13945:13970   */\n      swap3\n      pop\n        /* \"#utility.yul\":13993:14011   */\n      0xffffffffffffffff\n        /* \"#utility.yul\":13985:13991   */\n      dup3\n        /* \"#utility.yul\":13982:14012   */\n      gt\n        /* \"#utility.yul\":13979:14096   */\n      iszero\n      tag_332\n      jumpi\n        /* \"#utility.yul\":14015:14094   */\n      tag_333\n      tag_132\n      jump\t// in\n    tag_333:\n        /* \"#utility.yul\":13979:14096   */\n    tag_332:\n        /* \"#utility.yul\":14151:14155   */\n      0x40\n        /* \"#utility.yul\":14143:14149   */\n      dup3\n        /* \"#utility.yul\":14139:14156   */\n      mul\n        /* \"#utility.yul\":14123:14137   */\n      calldatasize\n        /* \"#utility.yul\":14119:14157   */\n      sub\n        /* \"#utility.yul\":14112:14117   */\n      dup4\n        /* \"#utility.yul\":14108:14158   */\n      sgt\n        /* \"#utility.yul\":14105:14242   */\n      iszero\n      tag_334\n      jumpi\n        /* \"#utility.yul\":14161:14240   */\n      tag_335\n      tag_133\n      jump\t// in\n    tag_335:\n        /* \"#utility.yul\":14105:14242   */\n    tag_334:\n        /* \"#utility.yul\":13616:14249   */\n      pop\n        /* \"#utility.yul\":13490:14249   */\n      swap3\n      pop\n      swap3\n      swap1\n      pop\n      jump\t// out\n        /* \"#utility.yul\":14255:14389   */\n    tag_139:\n        /* \"#utility.yul\":14356:14360   */\n      0x00\n        /* \"#utility.yul\":14379:14382   */\n      dup2\n        /* \"#utility.yul\":14371:14382   */\n      swap1\n      pop\n        /* \"#utility.yul\":14255:14389   */\n      swap2\n      swap1\n      pop\n      jump\t// out\n        /* \"#utility.yul\":14395:14517   */\n    tag_140:\n        /* \"#utility.yul\":14468:14492   */\n      tag_338\n        /* \"#utility.yul\":14486:14491   */\n      dup2\n        /* \"#utility.yul\":14468:14492   */\n      tag_110\n      jump\t// in\n    tag_338:\n        /* \"#utility.yul\":14461:14466   */\n      dup2\n        /* \"#utility.yul\":14458:14493   */\n      eq\n        /* \"#utility.yul\":14448:14511   */\n      tag_339\n      jumpi\n        /* \"#utility.yul\":14507:14508   */\n      0x00\n        /* \"#utility.yul\":14504:14505   */\n      0x00\n        /* \"#utility.yul\":14497:14509   */\n      revert\n        /* \"#utility.yul\":14448:14511   */\n    tag_339:\n        /* \"#utility.yul\":14395:14517   */\n      pop\n      jump\t// out\n        /* \"#utility.yul\":14523:14662   */\n    tag_141:\n        /* \"#utility.yul\":14569:14574   */\n      0x00\n        /* \"#utility.yul\":14607:14613   */\n      dup2\n        /* \"#utility.yul\":14594:14614   */\n      calldataload\n        /* \"#utility.yul\":14585:14614   */\n      swap1\n      pop\n        /* \"#utility.yul\":14623:14656   */\n      tag_341\n        /* \"#utility.yul\":14650:14655   */\n      dup2\n        /* \"#utility.yul\":14623:14656   */\n      tag_140\n      jump\t// in\n    tag_341:\n        /* \"#utility.yul\":14523:14662   */\n      swap3\n      swap2\n      pop\n      pop\n      jump\t// out\n        /* \"#utility.yul\":14668:14790   */\n    tag_142:\n        /* \"#utility.yul\":14720:14725   */\n      0x00\n        /* \"#utility.yul\":14745:14784   */\n      tag_343\n        /* \"#utility.yul\":14780:14782   */\n      0x20\n        /* \"#utility.yul\":14775:14778   */\n      dup5\n        /* \"#utility.yul\":14771:14783   */\n      add\n        /* \"#utility.yul\":14766:14769   */\n      dup5\n        /* \"#utility.yul\":14745:14784   */\n      tag_141\n      jump\t// in\n    tag_343:\n        /* \"#utility.yul\":14736:14784   */\n      swap1\n      pop\n        /* \"#utility.yul\":14668:14790   */\n      swap3\n      swap2\n      pop\n      pop\n      jump\t// out\n        /* \"#utility.yul\":14796:14918   */\n    tag_143:\n        /* \"#utility.yul\":14869:14893   */\n      tag_345\n        /* \"#utility.yul\":14887:14892   */\n      dup2\n        /* \"#utility.yul\":14869:14893   */\n      tag_112\n      jump\t// in\n    tag_345:\n        /* \"#utility.yul\":14862:14867   */\n      dup2\n        /* \"#utility.yul\":14859:14894   */\n      eq\n        /* \"#utility.yul\":14849:14912   */\n      tag_346\n      jumpi\n        /* \"#utility.yul\":14908:14909   */\n      0x00\n        /* \"#utility.yul\":14905:14906   */\n      0x00\n        /* \"#utility.yul\":14898:14910   */\n      revert\n        /* \"#utility.yul\":14849:14912   */\n    tag_346:\n        /* \"#utility.yul\":14796:14918   */\n      pop\n      jump\t// out\n        /* \"#utility.yul\":14924:15063   */\n    tag_144:\n        /* \"#utility.yul\":14970:14975   */\n      0x00\n        /* \"#utility.yul\":15008:15014   */\n      dup2\n        /* \"#utility.yul\":14995:15015   */\n      calldataload\n        /* \"#utility.yul\":14986:15015   */\n      swap1\n      pop\n        /* \"#utility.yul\":15024:15057   */\n      tag_348\n        /* \"#utility.yul\":15051:15056   */\n      dup2\n        /* \"#utility.yul\":15024:15057   */\n      tag_143\n      jump\t// in\n    tag_348:\n        /* \"#utility.yul\":14924:15063   */\n      swap3\n      swap2\n      pop\n      pop\n      jump\t// out\n        /* \"#utility.yul\":15069:15191   */\n    tag_145:\n        /* \"#utility.yul\":15121:15126   */\n      0x00\n        /* \"#utility.yul\":15146:15185   */\n      tag_350\n        /* \"#utility.yul\":15181:15183   */\n      0x20\n        /* \"#utility.yul\":15176:15179   */\n      dup5\n        /* \"#utility.yul\":15172:15184   */\n      add\n        /* \"#utility.yul\":15167:15170   */\n      dup5\n        /* \"#utility.yul\":15146:15185   */\n      tag_144\n      jump\t// in\n    tag_350:\n        /* \"#utility.yul\":15137:15185   */\n      swap1\n      pop\n        /* \"#utility.yul\":15069:15191   */\n      swap3\n      swap2\n      pop\n      pop\n      jump\t// out\n        /* \"#utility.yul\":15265:15831   */\n    tag_146:\n        /* \"#utility.yul\":15414:15418   */\n      0x40\n        /* \"#utility.yul\":15409:15412   */\n      dup3\n        /* \"#utility.yul\":15405:15419   */\n      add\n        /* \"#utility.yul\":15485:15535   */\n      tag_352\n        /* \"#utility.yul\":15529:15533   */\n      0x00\n        /* \"#utility.yul\":15522:15527   */\n      dup4\n        /* \"#utility.yul\":15518:15534   */\n      add\n        /* \"#utility.yul\":15511:15516   */\n      dup4\n        /* \"#utility.yul\":15485:15535   */\n      tag_142\n      jump\t// in\n    tag_352:\n        /* \"#utility.yul\":15548:15611   */\n      tag_353\n        /* \"#utility.yul\":15605:15609   */\n      0x00\n        /* \"#utility.yul\":15600:15603   */\n      dup6\n        /* \"#utility.yul\":15596:15610   */\n      add\n        /* \"#utility.yul\":15582:15594   */\n      dup3\n        /* \"#utility.yul\":15548:15611   */\n      tag_111\n      jump\t// in\n    tag_353:\n        /* \"#utility.yul\":15429:15621   */\n      pop\n        /* \"#utility.yul\":15688:15738   */\n      tag_354\n        /* \"#utility.yul\":15732:15736   */\n      0x20\n        /* \"#utility.yul\":15725:15730   */\n      dup4\n        /* \"#utility.yul\":15721:15737   */\n      add\n        /* \"#utility.yul\":15714:15719   */\n      dup4\n        /* \"#utility.yul\":15688:15738   */\n      tag_145\n      jump\t// in\n    tag_354:\n        /* \"#utility.yul\":15751:15814   */\n      tag_355\n        /* \"#utility.yul\":15808:15812   */\n      0x20\n        /* \"#utility.yul\":15803:15806   */\n      dup6\n        /* \"#utility.yul\":15799:15813   */\n      add\n        /* \"#utility.yul\":15785:15797   */\n      dup3\n        /* \"#utility.yul\":15751:15814   */\n      tag_113\n      jump\t// in\n    tag_355:\n        /* \"#utility.yul\":15631:15824   */\n      pop\n        /* \"#utility.yul\":15383:15831   */\n      pop\n        /* \"#utility.yul\":15265:15831   */\n      pop\n      pop\n      jump\t// out\n        /* \"#utility.yul\":15837:16140   */\n    tag_147:\n        /* \"#utility.yul\":15968:15978   */\n      0x00\n        /* \"#utility.yul\":15989:16097   */\n      tag_357\n        /* \"#utility.yul\":16093:16096   */\n      dup4\n        /* \"#utility.yul\":16085:16091   */\n      dup4\n        /* \"#utility.yul\":15989:16097   */\n      tag_146\n      jump\t// in\n    tag_357:\n        /* \"#utility.yul\":16129:16133   */\n      0x40\n        /* \"#utility.yul\":16124:16127   */\n      dup4\n        /* \"#utility.yul\":16120:16134   */\n      add\n        /* \"#utility.yul\":16106:16134   */\n      swap1\n      pop\n        /* \"#utility.yul\":15837:16140   */\n      swap3\n      swap2\n      pop\n      pop\n      jump\t// out\n        /* \"#utility.yul\":16146:16264   */\n    tag_148:\n        /* \"#utility.yul\":16230:16235   */\n      0x00\n        /* \"#utility.yul\":16255:16258   */\n      dup3\n        /* \"#utility.yul\":16246:16258   */\n      swap1\n      pop\n        /* \"#utility.yul\":16146:16264   */\n      swap3\n      swap2\n      pop\n      pop\n      jump\t// out\n        /* \"#utility.yul\":16270:16417   */\n    tag_149:\n        /* \"#utility.yul\":16374:16378   */\n      0x00\n        /* \"#utility.yul\":16406:16410   */\n      0x40\n        /* \"#utility.yul\":16401:16404   */\n      dup3\n        /* \"#utility.yul\":16397:16411   */\n      add\n        /* \"#utility.yul\":16389:16411   */\n      swap1\n      pop\n        /* \"#utility.yul\":16270:16417   */\n      swap2\n      swap1\n      pop\n      jump\t// out\n        /* \"#utility.yul\":16495:17424   */\n    tag_150:\n        /* \"#utility.yul\":16676:16679   */\n      0x00\n        /* \"#utility.yul\":16699:16805   */\n      tag_361\n        /* \"#utility.yul\":16798:16804   */\n      dup4\n        /* \"#utility.yul\":16793:16796   */\n      dup6\n        /* \"#utility.yul\":16699:16805   */\n      tag_107\n      jump\t// in\n    tag_361:\n        /* \"#utility.yul\":16692:16805   */\n      swap4\n      pop\n        /* \"#utility.yul\":16829:16919   */\n      tag_362\n        /* \"#utility.yul\":16913:16918   */\n      dup3\n        /* \"#utility.yul\":16829:16919   */\n      tag_139\n      jump\t// in\n    tag_362:\n        /* \"#utility.yul\":16942:16949   */\n      dup1\n        /* \"#utility.yul\":16973:16974   */\n      0x00\n        /* \"#utility.yul\":16958:17399   */\n    tag_363:\n        /* \"#utility.yul\":16983:16989   */\n      dup6\n        /* \"#utility.yul\":16980:16981   */\n      dup2\n        /* \"#utility.yul\":16977:16990   */\n      lt\n        /* \"#utility.yul\":16958:17399   */\n      iszero\n      tag_365\n      jumpi\n        /* \"#utility.yul\":17053:17127   */\n      tag_366\n        /* \"#utility.yul\":17120:17126   */\n      dup3\n        /* \"#utility.yul\":17111:17118   */\n      dup5\n        /* \"#utility.yul\":17053:17127   */\n      tag_148\n      jump\t// in\n    tag_366:\n        /* \"#utility.yul\":17147:17272   */\n      tag_367\n        /* \"#utility.yul\":17268:17271   */\n      dup9\n        /* \"#utility.yul\":17253:17266   */\n      dup3\n        /* \"#utility.yul\":17147:17272   */\n      tag_147\n      jump\t// in\n    tag_367:\n        /* \"#utility.yul\":17140:17272   */\n      swap8\n      pop\n        /* \"#utility.yul\":17295:17389   */\n      tag_368\n        /* \"#utility.yul\":17382:17388   */\n      dup4\n        /* \"#utility.yul\":17295:17389   */\n      tag_149\n      jump\t// in\n    tag_368:\n        /* \"#utility.yul\":17285:17389   */\n      swap3\n      pop\n        /* \"#utility.yul\":17018:17399   */\n      pop\n        /* \"#utility.yul\":17005:17006   */\n      0x01\n        /* \"#utility.yul\":17002:17003   */\n      dup2\n        /* \"#utility.yul\":16998:17007   */\n      add\n        /* \"#utility.yul\":16993:17007   */\n      swap1\n      pop\n        /* \"#utility.yul\":16958:17399   */\n      jump(tag_363)\n    tag_365:\n        /* \"#utility.yul\":16962:16976   */\n      pop\n        /* \"#utility.yul\":17415:17418   */\n      dup6\n        /* \"#utility.yul\":17408:17418   */\n      swap3\n      pop\n        /* \"#utility.yul\":16681:17424   */\n      pop\n      pop\n        /* \"#utility.yul\":16495:17424   */\n      swap4\n      swap3\n      pop\n      pop\n      pop\n      jump\t// out\n        /* \"#utility.yul\":17498:19305   */\n    tag_151:\n        /* \"#utility.yul\":17629:17632   */\n      0x00\n        /* \"#utility.yul\":17665:17669   */\n      0xa0\n        /* \"#utility.yul\":17660:17663   */\n      dup4\n        /* \"#utility.yul\":17656:17670   */\n      add\n        /* \"#utility.yul\":17753:17814   */\n      tag_370\n        /* \"#utility.yul\":17808:17812   */\n      0x00\n        /* \"#utility.yul\":17801:17806   */\n      dup5\n        /* \"#utility.yul\":17797:17813   */\n      add\n        /* \"#utility.yul\":17790:17795   */\n      dup5\n        /* \"#utility.yul\":17753:17814   */\n      tag_135\n      jump\t// in\n    tag_370:\n        /* \"#utility.yul\":17861:17864   */\n      dup6\n        /* \"#utility.yul\":17855:17859   */\n      dup4\n        /* \"#utility.yul\":17851:17865   */\n      sub\n        /* \"#utility.yul\":17844:17848   */\n      0x00\n        /* \"#utility.yul\":17839:17842   */\n      dup8\n        /* \"#utility.yul\":17835:17849   */\n      add\n        /* \"#utility.yul\":17828:17866   */\n      mstore\n        /* \"#utility.yul\":17887:17974   */\n      tag_371\n        /* \"#utility.yul\":17969:17973   */\n      dup4\n        /* \"#utility.yul\":17955:17967   */\n      dup3\n        /* \"#utility.yul\":17941:17953   */\n      dup5\n        /* \"#utility.yul\":17887:17974   */\n      tag_137\n      jump\t// in\n    tag_371:\n        /* \"#utility.yul\":17879:17974   */\n      swap3\n      pop\n        /* \"#utility.yul\":17680:17985   */\n      pop\n      pop\n        /* \"#utility.yul\":18064:18125   */\n      tag_372\n        /* \"#utility.yul\":18119:18123   */\n      0x20\n        /* \"#utility.yul\":18112:18117   */\n      dup5\n        /* \"#utility.yul\":18108:18124   */\n      add\n        /* \"#utility.yul\":18101:18106   */\n      dup5\n        /* \"#utility.yul\":18064:18125   */\n      tag_135\n      jump\t// in\n    tag_372:\n        /* \"#utility.yul\":18172:18175   */\n      dup6\n        /* \"#utility.yul\":18166:18170   */\n      dup4\n        /* \"#utility.yul\":18162:18176   */\n      sub\n        /* \"#utility.yul\":18155:18159   */\n      0x20\n        /* \"#utility.yul\":18150:18153   */\n      dup8\n        /* \"#utility.yul\":18146:18160   */\n      add\n        /* \"#utility.yul\":18139:18177   */\n      mstore\n        /* \"#utility.yul\":18198:18285   */\n      tag_373\n        /* \"#utility.yul\":18280:18284   */\n      dup4\n        /* \"#utility.yul\":18266:18278   */\n      dup3\n        /* \"#utility.yul\":18252:18264   */\n      dup5\n        /* \"#utility.yul\":18198:18285   */\n      tag_137\n      jump\t// in\n    tag_373:\n        /* \"#utility.yul\":18190:18285   */\n      swap3\n      pop\n        /* \"#utility.yul\":17995:18296   */\n      pop\n      pop\n        /* \"#utility.yul\":18383:18492   */\n      tag_374\n        /* \"#utility.yul\":18486:18490   */\n      0x40\n        /* \"#utility.yul\":18479:18484   */\n      dup5\n        /* \"#utility.yul\":18475:18491   */\n      add\n        /* \"#utility.yul\":18468:18473   */\n      dup5\n        /* \"#utility.yul\":18383:18492   */\n      tag_138\n      jump\t// in\n    tag_374:\n        /* \"#utility.yul\":18539:18542   */\n      dup6\n        /* \"#utility.yul\":18533:18537   */\n      dup4\n        /* \"#utility.yul\":18529:18543   */\n      sub\n        /* \"#utility.yul\":18522:18526   */\n      0x40\n        /* \"#utility.yul\":18517:18520   */\n      dup8\n        /* \"#utility.yul\":18513:18527   */\n      add\n        /* \"#utility.yul\":18506:18544   */\n      mstore\n        /* \"#utility.yul\":18565:18746   */\n      tag_375\n        /* \"#utility.yul\":18741:18745   */\n      dup4\n        /* \"#utility.yul\":18727:18739   */\n      dup3\n        /* \"#utility.yul\":18713:18725   */\n      dup5\n        /* \"#utility.yul\":18565:18746   */\n      tag_150\n      jump\t// in\n    tag_375:\n        /* \"#utility.yul\":18557:18746   */\n      swap3\n      pop\n        /* \"#utility.yul\":18306:18757   */\n      pop\n      pop\n        /* \"#utility.yul\":18826:18876   */\n      tag_376\n        /* \"#utility.yul\":18870:18874   */\n      0x60\n        /* \"#utility.yul\":18863:18868   */\n      dup5\n        /* \"#utility.yul\":18859:18875   */\n      add\n        /* \"#utility.yul\":18852:18857   */\n      dup5\n        /* \"#utility.yul\":18826:18876   */\n      tag_142\n      jump\t// in\n    tag_376:\n        /* \"#utility.yul\":18889:18952   */\n      tag_377\n        /* \"#utility.yul\":18946:18950   */\n      0x60\n        /* \"#utility.yul\":18941:18944   */\n      dup7\n        /* \"#utility.yul\":18937:18951   */\n      add\n        /* \"#utility.yul\":18923:18935   */\n      dup3\n        /* \"#utility.yul\":18889:18952   */\n      tag_111\n      jump\t// in\n    tag_377:\n        /* \"#utility.yul\":18767:18962   */\n      pop\n        /* \"#utility.yul\":19046:19107   */\n      tag_378\n        /* \"#utility.yul\":19101:19105   */\n      0x80\n        /* \"#utility.yul\":19094:19099   */\n      dup5\n        /* \"#utility.yul\":19090:19106   */\n      add\n        /* \"#utility.yul\":19083:19088   */\n      dup5\n        /* \"#utility.yul\":19046:19107   */\n      tag_135\n      jump\t// in\n    tag_378:\n        /* \"#utility.yul\":19154:19157   */\n      dup6\n        /* \"#utility.yul\":19148:19152   */\n      dup4\n        /* \"#utility.yul\":19144:19158   */\n      sub\n        /* \"#utility.yul\":19137:19141   */\n      0x80\n        /* \"#utility.yul\":19132:19135   */\n      dup8\n        /* \"#utility.yul\":19128:19142   */\n      add\n        /* \"#utility.yul\":19121:19159   */\n      mstore\n        /* \"#utility.yul\":19180:19267   */\n      tag_379\n        /* \"#utility.yul\":19262:19266   */\n      dup4\n        /* \"#utility.yul\":19248:19260   */\n      dup3\n        /* \"#utility.yul\":19234:19246   */\n      dup5\n        /* \"#utility.yul\":19180:19267   */\n      tag_137\n      jump\t// in\n    tag_379:\n        /* \"#utility.yul\":19172:19267   */\n      swap3\n      pop\n        /* \"#utility.yul\":18972:19278   */\n      pop\n      pop\n        /* \"#utility.yul\":19295:19299   */\n      dup1\n        /* \"#utility.yul\":19288:19299   */\n      swap2\n      pop\n        /* \"#utility.yul\":17634:19305   */\n      pop\n        /* \"#utility.yul\":17498:19305   */\n      swap3\n      swap2\n      pop\n      pop\n      jump\t// out\n        /* \"#utility.yul\":19311:19928   */\n    tag_91:\n        /* \"#utility.yul\":19522:19526   */\n      0x00\n        /* \"#utility.yul\":19560:19562   */\n      0x60\n        /* \"#utility.yul\":19549:19558   */\n      dup3\n        /* \"#utility.yul\":19545:19563   */\n      add\n        /* \"#utility.yul\":19537:19563   */\n      swap1\n      pop\n        /* \"#utility.yul\":19573:19644   */\n      tag_381\n        /* \"#utility.yul\":19641:19642   */\n      0x00\n        /* \"#utility.yul\":19630:19639   */\n      dup4\n        /* \"#utility.yul\":19626:19643   */\n      add\n        /* \"#utility.yul\":19617:19623   */\n      dup7\n        /* \"#utility.yul\":19573:19644   */\n      tag_129\n      jump\t// in\n    tag_381:\n        /* \"#utility.yul\":19691:19700   */\n      dup2\n        /* \"#utility.yul\":19685:19689   */\n      dup2\n        /* \"#utility.yul\":19681:19701   */\n      sub\n        /* \"#utility.yul\":19676:19678   */\n      0x20\n        /* \"#utility.yul\":19665:19674   */\n      dup4\n        /* \"#utility.yul\":19661:19679   */\n      add\n        /* \"#utility.yul\":19654:19702   */\n      mstore\n        /* \"#utility.yul\":19719:19839   */\n      tag_382\n        /* \"#utility.yul\":19834:19838   */\n      dup2\n        /* \"#utility.yul\":19825:19831   */\n      dup6\n        /* \"#utility.yul\":19719:19839   */\n      tag_151\n      jump\t// in\n    tag_382:\n        /* \"#utility.yul\":19711:19839   */\n      swap1\n      pop\n        /* \"#utility.yul\":19849:19921   */\n      tag_383\n        /* \"#utility.yul\":19917:19919   */\n      0x40\n        /* \"#utility.yul\":19906:19915   */\n      dup4\n        /* \"#utility.yul\":19902:19920   */\n      add\n        /* \"#utility.yul\":19893:19899   */\n      dup5\n        /* \"#utility.yul\":19849:19921   */\n      tag_124\n      jump\t// in\n    tag_383:\n        /* \"#utility.yul\":19311:19928   */\n      swap5\n      swap4\n      pop\n      pop\n      pop\n      pop\n      jump\t// out\n        /* \"#utility.yul\":19934:20114   */\n    tag_152:\n        /* \"#utility.yul\":19982:20059   */\n      0x4e487b7100000000000000000000000000000000000000000000000000000000\n        /* \"#utility.yul\":19979:19980   */\n      0x00\n        /* \"#utility.yul\":19972:20060   */\n      mstore\n        /* \"#utility.yul\":20079:20083   */\n      0x00\n        /* \"#utility.yul\":20076:20077   */\n      0x04\n        /* \"#utility.yul\":20069:20084   */\n      mstore\n        /* \"#utility.yul\":20103:20107   */\n      0x24\n        /* \"#utility.yul\":20100:20101   */\n      0x00\n        /* \"#utility.yul\":20093:20108   */\n      revert\n        /* \"#utility.yul\":20120:20237   */\n    tag_153:\n        /* \"#utility.yul\":20229:20230   */\n      0x00\n        /* \"#utility.yul\":20226:20227   */\n      0x00\n        /* \"#utility.yul\":20219:20231   */\n      revert\n        /* \"#utility.yul\":20243:20360   */\n    tag_154:\n        /* \"#utility.yul\":20352:20353   */\n      0x00\n        /* \"#utility.yul\":20349:20350   */\n      0x00\n        /* \"#utility.yul\":20342:20354   */\n      revert\n        /* \"#utility.yul\":20366:20483   */\n    tag_155:\n        /* \"#utility.yul\":20475:20476   */\n      0x00\n        /* \"#utility.yul\":20472:20473   */\n      0x00\n        /* \"#utility.yul\":20465:20477   */\n      revert\n        /* \"#utility.yul\":20489:21213   */\n    tag_156:\n        /* \"#utility.yul\":20566:20570   */\n      0x00\n        /* \"#utility.yul\":20572:20578   */\n      0x00\n        /* \"#utility.yul\":20628:20639   */\n      dup4\n        /* \"#utility.yul\":20615:20640   */\n      calldataload\n        /* \"#utility.yul\":20728:20729   */\n      0x01\n        /* \"#utility.yul\":20722:20726   */\n      0x20\n        /* \"#utility.yul\":20718:20730   */\n      sub\n        /* \"#utility.yul\":20707:20715   */\n      dup5\n        /* \"#utility.yul\":20691:20705   */\n      calldatasize\n        /* \"#utility.yul\":20687:20716   */\n      sub\n        /* \"#utility.yul\":20683:20731   */\n      sub\n        /* \"#utility.yul\":20663:20681   */\n      dup2\n        /* \"#utility.yul\":20659:20732   */\n      slt\n        /* \"#utility.yul\":20649:20817   */\n      tag_389\n      jumpi\n        /* \"#utility.yul\":20736:20815   */\n      tag_390\n      tag_153\n      jump\t// in\n    tag_390:\n        /* \"#utility.yul\":20649:20817   */\n    tag_389:\n        /* \"#utility.yul\":20848:20866   */\n      dup1\n        /* \"#utility.yul\":20838:20846   */\n      dup5\n        /* \"#utility.yul\":20834:20867   */\n      add\n        /* \"#utility.yul\":20826:20867   */\n      swap3\n      pop\n        /* \"#utility.yul\":20900:20904   */\n      dup3\n        /* \"#utility.yul\":20887:20905   */\n      calldataload\n        /* \"#utility.yul\":20877:20905   */\n      swap2\n      pop\n        /* \"#utility.yul\":20928:20946   */\n      0xffffffffffffffff\n        /* \"#utility.yul\":20920:20926   */\n      dup3\n        /* \"#utility.yul\":20917:20947   */\n      gt\n        /* \"#utility.yul\":20914:21031   */\n      iszero\n      tag_391\n      jumpi\n        /* \"#utility.yul\":20950:21029   */\n      tag_392\n      tag_154\n      jump\t// in\n    tag_392:\n        /* \"#utility.yul\":20914:21031   */\n    tag_391:\n        /* \"#utility.yul\":21058:21060   */\n      0x20\n        /* \"#utility.yul\":21052:21056   */\n      dup4\n        /* \"#utility.yul\":21048:21061   */\n      add\n        /* \"#utility.yul\":21040:21061   */\n      swap3\n      pop\n        /* \"#utility.yul\":21115:21119   */\n      0x01\n        /* \"#utility.yul\":21107:21113   */\n      dup3\n        /* \"#utility.yul\":21103:21120   */\n      mul\n        /* \"#utility.yul\":21087:21101   */\n      calldatasize\n        /* \"#utility.yul\":21083:21121   */\n      sub\n        /* \"#utility.yul\":21077:21081   */\n      dup4\n        /* \"#utility.yul\":21073:21122   */\n      sgt\n        /* \"#utility.yul\":21070:21206   */\n      iszero\n      tag_393\n      jumpi\n        /* \"#utility.yul\":21125:21204   */\n      tag_394\n      tag_155\n      jump\t// in\n    tag_394:\n        /* \"#utility.yul\":21070:21206   */\n    tag_393:\n        /* \"#utility.yul\":20579:21213   */\n      pop\n        /* \"#utility.yul\":20489:21213   */\n      swap3\n      pop\n      swap3\n      swap1\n      pop\n      jump\t// out\n        /* \"#utility.yul\":21219:21315   */\n    tag_157:\n        /* \"#utility.yul\":21277:21283   */\n      0x00\n        /* \"#utility.yul\":21305:21308   */\n      dup3\n        /* \"#utility.yul\":21295:21308   */\n      swap1\n      pop\n        /* \"#utility.yul\":21219:21315   */\n      swap3\n      swap2\n      pop\n      pop\n      jump\t// out\n        /* \"#utility.yul\":21321:21501   */\n    tag_158:\n        /* \"#utility.yul\":21369:21446   */\n      0x4e487b7100000000000000000000000000000000000000000000000000000000\n        /* \"#utility.yul\":21366:21367   */\n      0x00\n        /* \"#utility.yul\":21359:21447   */\n      mstore\n        /* \"#utility.yul\":21466:21470   */\n      0x41\n        /* \"#utility.yul\":21463:21464   */\n      0x04\n        /* \"#utility.yul\":21456:21471   */\n      mstore\n        /* \"#utility.yul\":21490:21494   */\n      0x24\n        /* \"#utility.yul\":21487:21488   */\n      0x00\n        /* \"#utility.yul\":21480:21495   */\n      revert\n        /* \"#utility.yul\":21507:21647   */\n    tag_159:\n        /* \"#utility.yul\":21555:21559   */\n      0x00\n        /* \"#utility.yul\":21578:21581   */\n      dup2\n        /* \"#utility.yul\":21570:21581   */\n      swap1\n      pop\n        /* \"#utility.yul\":21601:21604   */\n      dup2\n        /* \"#utility.yul\":21598:21599   */\n      0x00\n        /* \"#utility.yul\":21591:21605   */\n      mstore\n        /* \"#utility.yul\":21635:21639   */\n      0x20\n        /* \"#utility.yul\":21632:21633   */\n      0x00\n        /* \"#utility.yul\":21622:21640   */\n      keccak256\n        /* \"#utility.yul\":21614:21640   */\n      swap1\n      pop\n        /* \"#utility.yul\":21507:21647   */\n      swap2\n      swap1\n      pop\n      jump\t// out\n        /* \"#utility.yul\":21653:21746   */\n    tag_160:\n        /* \"#utility.yul\":21690:21696   */\n      0x00\n        /* \"#utility.yul\":21737:21739   */\n      0x20\n        /* \"#utility.yul\":21732:21734   */\n      0x1f\n        /* \"#utility.yul\":21725:21730   */\n      dup4\n        /* \"#utility.yul\":21721:21735   */\n      add\n        /* \"#utility.yul\":21717:21740   */\n      div\n        /* \"#utility.yul\":21707:21740   */\n      swap1\n      pop\n        /* \"#utility.yul\":21653:21746   */\n      swap2\n      swap1\n      pop\n      jump\t// out\n        /* \"#utility.yul\":21752:21859   */\n    tag_161:\n        /* \"#utility.yul\":21796:21804   */\n      0x00\n        /* \"#utility.yul\":21846:21851   */\n      dup3\n        /* \"#utility.yul\":21840:21844   */\n      dup3\n        /* \"#utility.yul\":21836:21852   */\n      shl\n        /* \"#utility.yul\":21815:21852   */\n      swap1\n      pop\n        /* \"#utility.yul\":21752:21859   */\n      swap3\n      swap2\n      pop\n      pop\n      jump\t// out\n        /* \"#utility.yul\":21865:22258   */\n    tag_162:\n        /* \"#utility.yul\":21934:21940   */\n      0x00\n        /* \"#utility.yul\":21984:21985   */\n      0x08\n        /* \"#utility.yul\":21972:21982   */\n      dup4\n        /* \"#utility.yul\":21968:21986   */\n      mul\n        /* \"#utility.yul\":22007:22104   */\n      tag_401\n        /* \"#utility.yul\":22037:22103   */\n      0xffffffffffffffffffffffffffffffffffffffffffffffffffffffffffffffff\n        /* \"#utility.yul\":22026:22035   */\n      dup3\n        /* \"#utility.yul\":22007:22104   */\n      tag_161\n      jump\t// in\n    tag_401:\n        /* \"#utility.yul\":22125:22164   */\n      tag_402\n        /* \"#utility.yul\":22155:22163   */\n      dup7\n        /* \"#utility.yul\":22144:22153   */\n      dup4\n        /* \"#utility.yul\":22125:22164   */\n      tag_161\n      jump\t// in\n    tag_402:\n        /* \"#utility.yul\":22113:22164   */\n      swap6\n      pop\n        /* \"#utility.yul\":22197:22201   */\n      dup1\n        /* \"#utility.yul\":22193:22202   */\n      not\n        /* \"#utility.yul\":22186:22191   */\n      dup5\n        /* \"#utility.yul\":22182:22203   */\n      and\n        /* \"#utility.yul\":22173:22203   */\n      swap4\n      pop\n        /* \"#utility.yul\":22246:22250   */\n      dup1\n        /* \"#utility.yul\":22236:22244   */\n      dup7\n        /* \"#utility.yul\":22232:22251   */\n      and\n        /* \"#utility.yul\":22225:22230   */\n      dup5\n        /* \"#utility.yul\":22222:22252   */\n      or\n        /* \"#utility.yul\":22212:22252   */\n      swap3\n      pop\n        /* \"#utility.yul\":21941:22258   */\n      pop\n      pop\n        /* \"#utility.yul\":21865:22258   */\n      swap4\n      swap3\n      pop\n      pop\n      pop\n      jump\t// out\n        /* \"#utility.yul\":22264:22324   */\n    tag_163:\n        /* \"#utility.yul\":22292:22295   */\n      0x00\n        /* \"#utility.yul\":22313:22318   */\n      dup2\n        /* \"#utility.yul\":22306:22318   */\n      swap1\n      pop\n        /* \"#utility.yul\":22264:22324   */\n      swap2\n      swap1\n      pop\n      jump\t// out\n        /* \"#utility.yul\":22330:22472   */\n    tag_164:\n        /* \"#utility.yul\":22380:22389   */\n      0x00\n        /* \"#utility.yul\":22413:22466   */\n      tag_405\n        /* \"#utility.yul\":22431:22465   */\n      tag_406\n        /* \"#utility.yul\":22440:22464   */\n      tag_407\n        /* \"#utility.yul\":22458:22463   */\n      dup5\n        /* \"#utility.yul\":22440:22464   */\n      tag_112\n      jump\t// in\n    tag_407:\n        /* \"#utility.yul\":22431:22465   */\n      tag_163\n      jump\t// in\n    tag_406:\n        /* \"#utility.yul\":22413:22466   */\n      tag_112\n      jump\t// in\n    tag_405:\n        /* \"#utility.yul\":22400:22466   */\n      swap1\n      pop\n        /* \"#utility.yul\":22330:22472   */\n      swap2\n      swap1\n      pop\n      jump\t// out\n        /* \"#utility.yul\":22478:22553   */\n    tag_165:\n        /* \"#utility.yul\":22521:22524   */\n      0x00\n        /* \"#utility.yul\":22542:22547   */\n      dup2\n        /* \"#utility.yul\":22535:22547   */\n      swap1\n      pop\n        /* \"#utility.yul\":22478:22553   */\n      swap2\n      swap1\n      pop\n      jump\t// out\n        /* \"#utility.yul\":22559:22828   */\n    tag_166:\n        /* \"#utility.yul\":22669:22708   */\n      tag_410\n        /* \"#utility.yul\":22700:22707   */\n      dup4\n        /* \"#utility.yul\":22669:22708   */\n      tag_164\n      jump\t// in\n    tag_410:\n        /* \"#utility.yul\":22730:22821   */\n      tag_411\n        /* \"#utility.yul\":22779:22820   */\n      tag_412\n        /* \"#utility.yul\":22803:22819   */\n      dup3\n        /* \"#utility.yul\":22779:22820   */\n      tag_165\n      jump\t// in\n    tag_412:\n        /* \"#utility.yul\":22771:22777   */\n      dup5\n        /* \"#utility.yul\":22764:22768   */\n      dup5\n        /* \"#utility.yul\":22758:22769   */\n      sload\n        /* \"#utility.yul\":22730:22821   */\n      tag_162\n      jump\t// in\n    tag_411:\n        /* \"#utility.yul\":22724:22728   */\n      dup3\n        /* \"#utility.yul\":22717:22822   */\n      sstore\n        /* \"#utility.yul\":22635:22828   */\n      pop\n        /* \"#utility.yul\":22559:22828   */\n      pop\n      pop\n      pop\n      jump\t// out\n        /* \"#utility.yul\":22834:22907   */\n    tag_167:\n        /* \"#utility.yul\":22879:22882   */\n      0x00\n        /* \"#utility.yul\":22900:22901   */\n      0x00\n        /* \"#utility.yul\":22893:22901   */\n      swap1\n      pop\n        /* \"#utility.yul\":22834:22907   */\n      swap1\n      jump\t// out\n        /* \"#utility.yul\":22913:23102   */\n    tag_168:\n        /* \"#utility.yul\":22990:23022   */\n      tag_415\n      tag_167\n      jump\t// in\n    tag_415:\n        /* \"#utility.yul\":23031:23096   */\n      tag_416\n        /* \"#utility.yul\":23089:23095   */\n      dup2\n        /* \"#utility.yul\":23081:23087   */\n      dup5\n        /* \"#utility.yul\":23075:23079   */\n      dup5\n        /* \"#utility.yul\":23031:23096   */\n      tag_166\n      jump\t// in\n    tag_416:\n        /* \"#utility.yul\":22966:23102   */\n      pop\n        /* \"#utility.yul\":22913:23102   */\n      pop\n      pop\n      jump\t// out\n        /* \"#utility.yul\":23108:23294   */\n    tag_169:\n        /* \"#utility.yul\":23168:23288   */\n    tag_418:\n        /* \"#utility.yul\":23185:23188   */\n      dup2\n        /* \"#utility.yul\":23178:23183   */\n      dup2\n        /* \"#utility.yul\":23175:23189   */\n      lt\n        /* \"#utility.yul\":23168:23288   */\n      iszero\n      tag_420\n      jumpi\n        /* \"#utility.yul\":23239:23278   */\n      tag_421\n        /* \"#utility.yul\":23276:23277   */\n      0x00\n        /* \"#utility.yul\":23269:23274   */\n      dup3\n        /* \"#utility.yul\":23239:23278   */\n      tag_168\n      jump\t// in\n    tag_421:\n        /* \"#utility.yul\":23212:23213   */\n      0x01\n        /* \"#utility.yul\":23205:23210   */\n      dup2\n        /* \"#utility.yul\":23201:23214   */\n      add\n        /* \"#utility.yul\":23192:23214   */\n      swap1\n      pop\n        /* \"#utility.yul\":23168:23288   */\n      jump(tag_418)\n    tag_420:\n        /* \"#utility.yul\":23108:23294   */\n      pop\n      pop\n      jump\t// out\n        /* \"#utility.yul\":23300:23841   */\n    tag_170:\n        /* \"#utility.yul\":23400:23402   */\n      0x1f\n        /* \"#utility.yul\":23395:23398   */\n      dup3\n        /* \"#utility.yul\":23392:23403   */\n      gt\n        /* \"#utility.yul\":23389:23834   */\n      iszero\n      tag_423\n      jumpi\n        /* \"#utility.yul\":23434:23471   */\n      tag_424\n        /* \"#utility.yul\":23465:23470   */\n      dup2\n        /* \"#utility.yul\":23434:23471   */\n      tag_159\n      jump\t// in\n    tag_424:\n        /* \"#utility.yul\":23517:23546   */\n      tag_425\n        /* \"#utility.yul\":23535:23545   */\n      dup5\n        /* \"#utility.yul\":23517:23546   */\n      tag_160\n      jump\t// in\n    tag_425:\n        /* \"#utility.yul\":23507:23515   */\n      dup2\n        /* \"#utility.yul\":23503:23547   */\n      add\n        /* \"#utility.yul\":23700:23702   */\n      0x20\n        /* \"#utility.yul\":23688:23698   */\n      dup6\n        /* \"#utility.yul\":23685:23703   */\n      lt\n        /* \"#utility.yul\":23682:23731   */\n      iszero\n      tag_426\n      jumpi\n        /* \"#utility.yul\":23721:23729   */\n      dup2\n        /* \"#utility.yul\":23706:23729   */\n      swap1\n      pop\n        /* \"#utility.yul\":23682:23731   */\n    tag_426:\n        /* \"#utility.yul\":23744:23824   */\n      tag_427\n        /* \"#utility.yul\":23800:23822   */\n      tag_428\n        /* \"#utility.yul\":23818:23821   */\n      dup6\n        /* \"#utility.yul\":23800:23822   */\n      tag_160\n      jump\t// in\n    tag_428:\n        /* \"#utility.yul\":23790:23798   */\n      dup4\n        /* \"#utility.yul\":23786:23823   */\n      add\n        /* \"#utility.yul\":23773:23784   */\n      dup3\n        /* \"#utility.yul\":23744:23824   */\n      tag_169\n      jump\t// in\n    tag_427:\n        /* \"#utility.yul\":23404:23834   */\n      pop\n      pop\n        /* \"#utility.yul\":23389:23834   */\n    tag_423:\n        /* \"#utility.yul\":23300:23841   */\n      pop\n      pop\n      pop\n      jump\t// out\n        /* \"#utility.yul\":23847:23964   */\n    tag_171:\n        /* \"#utility.yul\":23901:23909   */\n      0x00\n        /* \"#utility.yul\":23951:23956   */\n      dup3\n        /* \"#utility.yul\":23945:23949   */\n      dup3\n        /* \"#utility.yul\":23941:23957   */\n      shr\n        /* \"#utility.yul\":23920:23957   */\n      swap1\n      pop\n        /* \"#utility.yul\":23847:23964   */\n      swap3\n      swap2\n      pop\n      pop\n      jump\t// out\n        /* \"#utility.yul\":23970:24139   */\n    tag_172:\n        /* \"#utility.yul\":24014:24020   */\n      0x00\n        /* \"#utility.yul\":24047:24098   */\n      tag_431\n        /* \"#utility.yul\":24095:24096   */\n      0x00\n        /* \"#utility.yul\":24091:24097   */\n      not\n        /* \"#utility.yul\":24083:24088   */\n      dup5\n        /* \"#utility.yul\":24080:24081   */\n      0x08\n        /* \"#utility.yul\":24076:24089   */\n      mul\n        /* \"#utility.yul\":24047:24098   */\n      tag_171\n      jump\t// in\n    tag_431:\n        /* \"#utility.yul\":24043:24099   */\n      not\n        /* \"#utility.yul\":24128:24132   */\n      dup1\n        /* \"#utility.yul\":24122:24126   */\n      dup4\n        /* \"#utility.yul\":24118:24133   */\n      and\n        /* \"#utility.yul\":24108:24133   */\n      swap2\n      pop\n        /* \"#utility.yul\":24021:24139   */\n      pop\n        /* \"#utility.yul\":23970:24139   */\n      swap3\n      swap2\n      pop\n      pop\n      jump\t// out\n        /* \"#utility.yul\":24144:24439   */\n    tag_173:\n        /* \"#utility.yul\":24220:24224   */\n      0x00\n        /* \"#utility.yul\":24366:24395   */\n      tag_433\n        /* \"#utility.yul\":24391:24394   */\n      dup4\n        /* \"#utility.yul\":24385:24389   */\n      dup4\n        /* \"#utility.yul\":24366:24395   */\n      tag_172\n      jump\t// in\n    tag_433:\n        /* \"#utility.yul\":24358:24395   */\n      swap2\n      pop\n        /* \"#utility.yul\":24428:24431   */\n      dup3\n        /* \"#utility.yul\":24425:24426   */\n      0x02\n        /* \"#utility.yul\":24421:24432   */\n      mul\n        /* \"#utility.yul\":24415:24419   */\n      dup3\n        /* \"#utility.yul\":24412:24433   */\n      or\n        /* \"#utility.yul\":24404:24433   */\n      swap1\n      pop\n        /* \"#utility.yul\":24144:24439   */\n      swap3\n      swap2\n      pop\n      pop\n      jump\t// out\n        /* \"#utility.yul\":24444:25842   */\n    tag_174:\n        /* \"#utility.yul\":24566:24609   */\n      tag_435\n        /* \"#utility.yul\":24605:24608   */\n      dup4\n        /* \"#utility.yul\":24600:24603   */\n      dup4\n        /* \"#utility.yul\":24566:24609   */\n      tag_157\n      jump\t// in\n    tag_435:\n        /* \"#utility.yul\":24674:24692   */\n      0xffffffffffffffff\n        /* \"#utility.yul\":24666:24672   */\n      dup2\n        /* \"#utility.yul\":24663:24693   */\n      gt\n        /* \"#utility.yul\":24660:24716   */\n      iszero\n      tag_436\n      jumpi\n        /* \"#utility.yul\":24696:24714   */\n      tag_437\n      tag_158\n      jump\t// in\n    tag_437:\n        /* \"#utility.yul\":24660:24716   */\n    tag_436:\n        /* \"#utility.yul\":24740:24778   */\n      tag_438\n        /* \"#utility.yul\":24772:24776   */\n      dup3\n        /* \"#utility.yul\":24766:24777   */\n      sload\n        /* \"#utility.yul\":24740:24778   */\n      tag_53\n      jump\t// in\n    tag_438:\n        /* \"#utility.yul\":24825:24891   */\n      tag_439\n        /* \"#utility.yul\":24884:24890   */\n      dup3\n        /* \"#utility.yul\":24876:24882   */\n      dup3\n        /* \"#utility.yul\":24870:24874   */\n      dup6\n        /* \"#utility.yul\":24825:24891   */\n      tag_170\n      jump\t// in\n    tag_439:\n        /* \"#utility.yul\":24918:24919   */\n      0x00\n        /* \"#utility.yul\":24947:24949   */\n      0x1f\n        /* \"#utility.yul\":24939:24945   */\n      dup4\n        /* \"#utility.yul\":24936:24950   */\n      gt\n        /* \"#utility.yul\":24964:24965   */\n      0x01\n        /* \"#utility.yul\":24959:25590   */\n      dup2\n      eq\n      tag_441\n      jumpi\n        /* \"#utility.yul\":25634:25635   */\n      0x00\n        /* \"#utility.yul\":25651:25657   */\n      dup5\n        /* \"#utility.yul\":25648:25732   */\n      iszero\n      tag_442\n      jumpi\n        /* \"#utility.yul\":25707:25716   */\n      dup3\n        /* \"#utility.yul\":25702:25705   */\n      dup8\n        /* \"#utility.yul\":25698:25717   */\n      add\n        /* \"#utility.yul\":25685:25718   */\n      calldataload\n        /* \"#utility.yul\":25676:25718   */\n      swap1\n      pop\n        /* \"#utility.yul\":25648:25732   */\n    tag_442:\n        /* \"#utility.yul\":25758:25825   */\n      tag_443\n        /* \"#utility.yul\":25818:25824   */\n      dup6\n        /* \"#utility.yul\":25811:25816   */\n      dup3\n        /* \"#utility.yul\":25758:25825   */\n      tag_173\n      jump\t// in\n    tag_443:\n        /* \"#utility.yul\":25752:25756   */\n      dup7\n        /* \"#utility.yul\":25745:25826   */\n      sstore\n        /* \"#utility.yul\":25607:25836   */\n      pop\n        /* \"#utility.yul\":24929:25836   */\n      jump(tag_440)\n        /* \"#utility.yul\":24959:25590   */\n    tag_441:\n        /* \"#utility.yul\":25011:25015   */\n      0x1f\n        /* \"#utility.yul\":25007:25016   */\n      not\n        /* \"#utility.yul\":24999:25005   */\n      dup5\n        /* \"#utility.yul\":24995:25017   */\n      and\n        /* \"#utility.yul\":25045:25081   */\n      tag_444\n        /* \"#utility.yul\":25076:25080   */\n      dup7\n        /* \"#utility.yul\":25045:25081   */\n      tag_159\n      jump\t// in\n    tag_444:\n        /* \"#utility.yul\":25103:25104   */\n      0x00\n        /* \"#utility.yul\":25117:25332   */\n    tag_445:\n        /* \"#utility.yul\":25131:25138   */\n      dup3\n        /* \"#utility.yul\":25128:25129   */\n      dup2\n        /* \"#utility.yul\":25125:25139   */\n      lt\n        /* \"#utility.yul\":25117:25332   */\n      iszero\n      tag_447\n      jumpi\n        /* \"#utility.yul\":25217:25226   */\n      dup5\n        /* \"#utility.yul\":25212:25215   */\n      dup10\n        /* \"#utility.yul\":25208:25227   */\n      add\n        /* \"#utility.yul\":25195:25228   */\n      calldataload\n        /* \"#utility.yul\":25187:25193   */\n      dup3\n        /* \"#utility.yul\":25180:25229   */\n      sstore\n        /* \"#utility.yul\":25268:25269   */\n      0x01\n        /* \"#utility.yul\":25260:25266   */\n      dup3\n        /* \"#utility.yul\":25256:25270   */\n      add\n        /* \"#utility.yul\":25246:25270   */\n      swap2\n      pop\n        /* \"#utility.yul\":25315:25317   */\n      0x20\n        /* \"#utility.yul\":25304:25313   */\n      dup6\n        /* \"#utility.yul\":25300:25318   */\n      add\n        /* \"#utility.yul\":25287:25318   */\n      swap5\n      pop\n        /* \"#utility.yul\":25154:25158   */\n      0x20\n        /* \"#utility.yul\":25151:25152   */\n      dup2\n        /* \"#utility.yul\":25147:25159   */\n      add\n        /* \"#utility.yul\":25142:25159   */\n      swap1\n      pop\n        /* \"#utility.yul\":25117:25332   */\n      jump(tag_445)\n    tag_447:\n        /* \"#utility.yul\":25360:25366   */\n      dup7\n        /* \"#utility.yul\":25351:25358   */\n      dup4\n        /* \"#utility.yul\":25348:25367   */\n      lt\n        /* \"#utility.yul\":25345:25531   */\n      iszero\n      tag_448\n      jumpi\n        /* \"#utility.yul\":25425:25434   */\n      dup5\n        /* \"#utility.yul\":25420:25423   */\n      dup10\n        /* \"#utility.yul\":25416:25435   */\n      add\n        /* \"#utility.yul\":25403:25436   */\n      calldataload\n        /* \"#utility.yul\":25468:25516   */\n      tag_449\n        /* \"#utility.yul\":25510:25514   */\n      0x1f\n        /* \"#utility.yul\":25502:25508   */\n      dup10\n        /* \"#utility.yul\":25498:25515   */\n      and\n        /* \"#utility.yul\":25487:25496   */\n      dup3\n        /* \"#utility.yul\":25468:25516   */\n      tag_172\n      jump\t// in\n    tag_449:\n        /* \"#utility.yul\":25460:25466   */\n      dup4\n        /* \"#utility.yul\":25453:25517   */\n      sstore\n        /* \"#utility.yul\":25368:25531   */\n      pop\n        /* \"#utility.yul\":25345:25531   */\n    tag_448:\n        /* \"#utility.yul\":25577:25578   */\n      0x01\n        /* \"#utility.yul\":25573:25574   */\n      0x02\n        /* \"#utility.yul\":25565:25571   */\n      dup9\n        /* \"#utility.yul\":25561:25575   */\n      mul\n        /* \"#utility.yul\":25557:25579   */\n      add\n        /* \"#utility.yul\":25551:25555   */\n      dup9\n        /* \"#utility.yul\":25544:25580   */\n      sstore\n        /* \"#utility.yul\":24966:25590   */\n      pop\n      pop\n      pop\n        /* \"#utility.yul\":24929:25836   */\n    tag_440:\n      pop\n        /* \"#utility.yul\":24541:25842   */\n      pop\n      pop\n      pop\n        /* \"#utility.yul\":24444:25842   */\n      pop\n      pop\n      pop\n      jump\t// out\n        /* \"#utility.yul\":25848:26063   */\n    tag_175:\n        /* \"#utility.yul\":25962:26057   */\n      tag_451\n        /* \"#utility.yul\":26049:26056   */\n      dup4\n        /* \"#utility.yul\":26040:26047   */\n      dup4\n        /* \"#utility.yul\":26034:26038   */\n      dup4\n        /* \"#utility.yul\":25962:26057   */\n      tag_174\n      jump\t// in\n    tag_451:\n        /* \"#utility.yul\":25848:26063   */\n      pop\n      pop\n      pop\n      jump\t// out\n        /* \"#utility.yul\":26069:26841   */\n    tag_176:\n        /* \"#utility.yul\":26194:26198   */\n      0x00\n        /* \"#utility.yul\":26200:26206   */\n      0x00\n        /* \"#utility.yul\":26256:26267   */\n      dup4\n        /* \"#utility.yul\":26243:26268   */\n      calldataload\n        /* \"#utility.yul\":26356:26357   */\n      0x01\n        /* \"#utility.yul\":26350:26354   */\n      0x20\n        /* \"#utility.yul\":26346:26358   */\n      sub\n        /* \"#utility.yul\":26335:26343   */\n      dup5\n        /* \"#utility.yul\":26319:26333   */\n      calldatasize\n        /* \"#utility.yul\":26315:26344   */\n      sub\n        /* \"#utility.yul\":26311:26359   */\n      sub\n        /* \"#utility.yul\":26291:26309   */\n      dup2\n        /* \"#utility.yul\":26287:26360   */\n      slt\n        /* \"#utility.yul\":26277:26445   */\n      tag_453\n      jumpi\n        /* \"#utility.yul\":26364:26443   */\n      tag_454\n      tag_153\n      jump\t// in\n    tag_454:\n        /* \"#utility.yul\":26277:26445   */\n    tag_453:\n        /* \"#utility.yul\":26476:26494   */\n      dup1\n        /* \"#utility.yul\":26466:26474   */\n      dup5\n        /* \"#utility.yul\":26462:26495   */\n      add\n        /* \"#utility.yul\":26454:26495   */\n      swap3\n      pop\n        /* \"#utility.yul\":26528:26532   */\n      dup3\n        /* \"#utility.yul\":26515:26533   */\n      calldataload\n        /* \"#utility.yul\":26505:26533   */\n      swap2\n      pop\n        /* \"#utility.yul\":26556:26574   */\n      0xffffffffffffffff\n        /* \"#utility.yul\":26548:26554   */\n      dup3\n        /* \"#utility.yul\":26545:26575   */\n      gt\n        /* \"#utility.yul\":26542:26659   */\n      iszero\n      tag_455\n      jumpi\n        /* \"#utility.yul\":26578:26657   */\n      tag_456\n      tag_154\n      jump\t// in\n    tag_456:\n        /* \"#utility.yul\":26542:26659   */\n    tag_455:\n        /* \"#utility.yul\":26686:26688   */\n      0x20\n        /* \"#utility.yul\":26680:26684   */\n      dup4\n        /* \"#utility.yul\":26676:26689   */\n      add\n        /* \"#utility.yul\":26668:26689   */\n      swap3\n      pop\n        /* \"#utility.yul\":26743:26747   */\n      0x40\n        /* \"#utility.yul\":26735:26741   */\n      dup3\n        /* \"#utility.yul\":26731:26748   */\n      mul\n        /* \"#utility.yul\":26715:26729   */\n      calldatasize\n        /* \"#utility.yul\":26711:26749   */\n      sub\n        /* \"#utility.yul\":26705:26709   */\n      dup4\n        /* \"#utility.yul\":26701:26750   */\n      sgt\n        /* \"#utility.yul\":26698:26834   */\n      iszero\n      tag_457\n      jumpi\n        /* \"#utility.yul\":26753:26832   */\n      tag_458\n      tag_155\n      jump\t// in\n    tag_458:\n        /* \"#utility.yul\":26698:26834   */\n    tag_457:\n        /* \"#utility.yul\":26207:26841   */\n      pop\n        /* \"#utility.yul\":26069:26841   */\n      swap3\n      pop\n      swap3\n      swap1\n      pop\n      jump\t// out\n        /* \"#utility.yul\":26847:26985   */\n    tag_177:\n        /* \"#utility.yul\":26938:26944   */\n      0x00\n        /* \"#utility.yul\":26972:26977   */\n      dup2\n        /* \"#utility.yul\":26966:26978   */\n      sload\n        /* \"#utility.yul\":26956:26978   */\n      swap1\n      pop\n        /* \"#utility.yul\":26847:26985   */\n      swap2\n      swap1\n      pop\n      jump\t// out\n        /* \"#utility.yul\":26991:27171   */\n    tag_178:\n        /* \"#utility.yul\":27039:27116   */\n      0x4e487b7100000000000000000000000000000000000000000000000000000000\n        /* \"#utility.yul\":27036:27037   */\n      0x00\n        /* \"#utility.yul\":27029:27117   */\n      mstore\n        /* \"#utility.yul\":27136:27140   */\n      0x11\n        /* \"#utility.yul\":27133:27134   */\n      0x04\n        /* \"#utility.yul\":27126:27141   */\n      mstore\n        /* \"#utility.yul\":27160:27164   */\n      0x24\n        /* \"#utility.yul\":27157:27158   */\n      0x00\n        /* \"#utility.yul\":27150:27165   */\n      revert\n        /* \"#utility.yul\":27177:27587   */\n    tag_179:\n        /* \"#utility.yul\":27217:27224   */\n      0x00\n        /* \"#utility.yul\":27240:27260   */\n      tag_462\n        /* \"#utility.yul\":27258:27259   */\n      dup3\n        /* \"#utility.yul\":27240:27260   */\n      tag_112\n      jump\t// in\n    tag_462:\n        /* \"#utility.yul\":27235:27260   */\n      swap2\n      pop\n        /* \"#utility.yul\":27274:27294   */\n      tag_463\n        /* \"#utility.yul\":27292:27293   */\n      dup4\n        /* \"#utility.yul\":27274:27294   */\n      tag_112\n      jump\t// in\n    tag_463:\n        /* \"#utility.yul\":27269:27294   */\n      swap3\n      pop\n        /* \"#utility.yul\":27329:27330   */\n      dup3\n        /* \"#utility.yul\":27326:27327   */\n      dup3\n        /* \"#utility.yul\":27322:27331   */\n      mul\n        /* \"#utility.yul\":27351:27381   */\n      tag_464\n        /* \"#utility.yul\":27369:27380   */\n      dup2\n        /* \"#utility.yul\":27351:27381   */\n      tag_112\n      jump\t// in\n    tag_464:\n        /* \"#utility.yul\":27340:27381   */\n      swap2\n      pop\n        /* \"#utility.yul\":27530:27531   */\n      dup3\n        /* \"#utility.yul\":27521:27528   */\n      dup3\n        /* \"#utility.yul\":27517:27532   */\n      div\n        /* \"#utility.yul\":27514:27515   */\n      dup5\n        /* \"#utility.yul\":27511:27533   */\n      eq\n        /* \"#utility.yul\":27491:27492   */\n      dup4\n        /* \"#utility.yul\":27484:27493   */\n      iszero\n        /* \"#utility.yul\":27464:27547   */\n      or\n        /* \"#utility.yul\":27441:27580   */\n      tag_465\n      jumpi\n        /* \"#utility.yul\":27560:27578   */\n      tag_466\n      tag_178\n      jump\t// in\n    tag_466:\n        /* \"#utility.yul\":27441:27580   */\n    tag_465:\n        /* \"#utility.yul\":27225:27587   */\n      pop\n        /* \"#utility.yul\":27177:27587   */\n      swap3\n      swap2\n      pop\n      pop\n      jump\t// out\n        /* \"#utility.yul\":27593:27787   */\n    tag_180:\n        /* \"#utility.yul\":27701:27705   */\n      0x00\n        /* \"#utility.yul\":27724:27730   */\n      dup2\n        /* \"#utility.yul\":27716:27730   */\n      swap1\n      pop\n        /* \"#utility.yul\":27748:27780   */\n      tag_468\n        /* \"#utility.yul\":27773:27779   */\n      dup3\n        /* \"#utility.yul\":27770:27771   */\n      0x02\n        /* \"#utility.yul\":27748:27780   */\n      tag_179\n      jump\t// in\n    tag_468:\n        /* \"#utility.yul\":27740:27780   */\n      swap1\n      pop\n        /* \"#utility.yul\":27593:27787   */\n      swap2\n      swap1\n      pop\n      jump\t// out\n        /* \"#utility.yul\":27792:27975   */\n    tag_181:\n        /* \"#utility.yul\":27883:27887   */\n      0x00\n        /* \"#utility.yul\":27906:27909   */\n      dup2\n        /* \"#utility.yul\":27898:27909   */\n      swap1\n      pop\n        /* \"#utility.yul\":27929:27932   */\n      dup2\n        /* \"#utility.yul\":27926:27927   */\n      0x00\n        /* \"#utility.yul\":27919:27933   */\n      mstore\n        /* \"#utility.yul\":27963:27967   */\n      0x20\n        /* \"#utility.yul\":27960:27961   */\n      0x00\n        /* \"#utility.yul\":27950:27968   */\n      keccak256\n        /* \"#utility.yul\":27942:27968   */\n      swap1\n      pop\n        /* \"#utility.yul\":27792:27975   */\n      swap2\n      swap1\n      pop\n      jump\t// out\n        /* \"#utility.yul\":27981:28151   */\n    tag_182:\n        /* \"#utility.yul\":28086:28087   */\n      0x00\n        /* \"#utility.yul\":28082:28083   */\n      0x00\n        /* \"#utility.yul\":28076:28080   */\n      dup3\n        /* \"#utility.yul\":28072:28084   */\n      add\n        /* \"#utility.yul\":28065:28088   */\n      sstore\n        /* \"#utility.yul\":28098:28144   */\n      tag_471\n        /* \"#utility.yul\":28142:28143   */\n      0x00\n        /* \"#utility.yul\":28138:28139   */\n      0x01\n        /* \"#utility.yul\":28132:28136   */\n      dup4\n        /* \"#utility.yul\":28128:28140   */\n      add\n        /* \"#utility.yul\":28098:28144   */\n      tag_168\n      jump\t// in\n    tag_471:\n        /* \"#utility.yul\":27981:28151   */\n      pop\n      jump\t// out\n        /* \"#utility.yul\":28157:28372   */\n    tag_183:\n        /* \"#utility.yul\":28268:28269   */\n      0x00\n        /* \"#utility.yul\":28260:28266   */\n      dup3\n        /* \"#utility.yul\":28257:28270   */\n      eq\n        /* \"#utility.yul\":28247:28294   */\n      tag_473\n      jumpi\n        /* \"#utility.yul\":28274:28292   */\n      tag_474\n      tag_152\n      jump\t// in\n    tag_474:\n        /* \"#utility.yul\":28247:28294   */\n    tag_473:\n        /* \"#utility.yul\":28303:28366   */\n      tag_475\n        /* \"#utility.yul\":28361:28365   */\n      dup2\n        /* \"#utility.yul\":28303:28366   */\n      tag_182\n      jump\t// in\n    tag_475:\n        /* \"#utility.yul\":28157:28372   */\n      pop\n      pop\n      jump\t// out\n        /* \"#utility.yul\":28378:28619   */\n    tag_184:\n        /* \"#utility.yul\":28466:28613   */\n    tag_477:\n        /* \"#utility.yul\":28483:28486   */\n      dup2\n        /* \"#utility.yul\":28476:28481   */\n      dup2\n        /* \"#utility.yul\":28473:28487   */\n      lt\n        /* \"#utility.yul\":28466:28613   */\n      iszero\n      tag_479\n      jumpi\n        /* \"#utility.yul\":28537:28603   */\n      tag_480\n        /* \"#utility.yul\":28601:28602   */\n      0x00\n        /* \"#utility.yul\":28594:28599   */\n      dup3\n        /* \"#utility.yul\":28537:28603   */\n      tag_183\n      jump\t// in\n    tag_480:\n        /* \"#utility.yul\":28510:28511   */\n      0x02\n        /* \"#utility.yul\":28503:28508   */\n      dup2\n        /* \"#utility.yul\":28499:28512   */\n      add\n        /* \"#utility.yul\":28490:28512   */\n      swap1\n      pop\n        /* \"#utility.yul\":28466:28613   */\n      jump(tag_477)\n    tag_479:\n        /* \"#utility.yul\":28378:28619   */\n      pop\n      pop\n      jump\t// out\n        /* \"#utility.yul\":28875:29691   */\n    tag_186:\n        /* \"#utility.yul\":29022:29025   */\n      dup2\n        /* \"#utility.yul\":29010:29020   */\n      dup4\n        /* \"#utility.yul\":29007:29026   */\n      lt\n        /* \"#utility.yul\":29004:29684   */\n      iszero\n      tag_484\n      jumpi\n        /* \"#utility.yul\":29113:29205   */\n      tag_485\n        /* \"#utility.yul\":29201:29204   */\n      dup3\n        /* \"#utility.yul\":29113:29205   */\n      tag_180\n      jump\t// in\n    tag_485:\n        /* \"#utility.yul\":29238:29337   */\n      tag_486\n        /* \"#utility.yul\":29326:29336   */\n      dup5\n        /* \"#utility.yul\":29238:29337   */\n      tag_180\n      jump\t// in\n    tag_486:\n        /* \"#utility.yul\":29372:29452   */\n      tag_487\n        /* \"#utility.yul\":29446:29451   */\n      dup4\n        /* \"#utility.yul\":29372:29452   */\n      tag_181\n      jump\t// in\n    tag_487:\n        /* \"#utility.yul\":29504:29516   */\n      dup2\n        /* \"#utility.yul\":29488:29502   */\n      dup2\n        /* \"#utility.yul\":29484:29517   */\n      add\n        /* \"#utility.yul\":29567:29579   */\n      dup4\n        /* \"#utility.yul\":29551:29565   */\n      dup3\n        /* \"#utility.yul\":29547:29580   */\n      add\n        /* \"#utility.yul\":29594:29674   */\n      tag_488\n        /* \"#utility.yul\":29664:29673   */\n      dup2\n        /* \"#utility.yul\":29651:29662   */\n      dup4\n        /* \"#utility.yul\":29594:29674   */\n      tag_184\n      jump\t// in\n    tag_488:\n        /* \"#utility.yul\":29027:29684   */\n      pop\n      pop\n      pop\n      pop\n      pop\n        /* \"#utility.yul\":29004:29684   */\n    tag_484:\n        /* \"#utility.yul\":28875:29691   */\n      pop\n      pop\n      pop\n      jump\t// out\n        /* \"#utility.yul\":29697:30166   */\n    tag_187:\n        /* \"#utility.yul\":29817:29837   */\n      0x010000000000000000\n        /* \"#utility.yul\":29809:29815   */\n      dup3\n        /* \"#utility.yul\":29806:29838   */\n      gt\n        /* \"#utility.yul\":29803:29881   */\n      iszero\n      tag_490\n      jumpi\n        /* \"#utility.yul\":29853:29871   */\n      tag_491\n      tag_158\n      jump\t// in\n    tag_491:\n        /* \"#utility.yul\":29803:29881   */\n    tag_490:\n        /* \"#utility.yul\":29905:29983   */\n      tag_492\n        /* \"#utility.yul\":29977:29982   */\n      dup2\n        /* \"#utility.yul\":29905:29983   */\n      tag_177\n      jump\t// in\n    tag_492:\n        /* \"#utility.yul\":30035:30041   */\n      dup3\n        /* \"#utility.yul\":30028:30033   */\n      dup3\n        /* \"#utility.yul\":30021:30042   */\n      sstore\n        /* \"#utility.yul\":30052:30159   */\n      tag_493\n        /* \"#utility.yul\":30152:30158   */\n      dup4\n        /* \"#utility.yul\":30144:30150   */\n      dup3\n        /* \"#utility.yul\":30137:30142   */\n      dup5\n        /* \"#utility.yul\":30052:30159   */\n      tag_186\n      jump\t// in\n    tag_493:\n        /* \"#utility.yul\":29793:30166   */\n      pop\n        /* \"#utility.yul\":29697:30166   */\n      pop\n      pop\n      jump\t// out\n        /* \"#utility.yul\":30171:30315   */\n    tag_188:\n        /* \"#utility.yul\":30277:30283   */\n      0x00\n        /* \"#utility.yul\":30305:30308   */\n      dup3\n        /* \"#utility.yul\":30295:30308   */\n      swap1\n      pop\n        /* \"#utility.yul\":30171:30315   */\n      swap3\n      swap2\n      pop\n      pop\n      jump\t// out\n        /* \"#utility.yul\":30321:30507   */\n    tag_189:\n        /* \"#utility.yul\":30366:30377   */\n      0x00\n        /* \"#utility.yul\":30415:30418   */\n      dup2\n        /* \"#utility.yul\":30402:30419   */\n      calldataload\n        /* \"#utility.yul\":30428:30461   */\n      tag_496\n        /* \"#utility.yul\":30455:30460   */\n      dup2\n        /* \"#utility.yul\":30428:30461   */\n      tag_140\n      jump\t// in\n    tag_496:\n        /* \"#utility.yul\":30495:30500   */\n      dup1\n        /* \"#utility.yul\":30471:30500   */\n      swap2\n      pop\n        /* \"#utility.yul\":30378:30507   */\n      pop\n        /* \"#utility.yul\":30321:30507   */\n      swap2\n      swap1\n      pop\n      jump\t// out\n        /* \"#utility.yul\":30513:30605   */\n    tag_190:\n        /* \"#utility.yul\":30545:30553   */\n      0x00\n        /* \"#utility.yul\":30592:30597   */\n      dup2\n        /* \"#utility.yul\":30589:30590   */\n      0x00\n        /* \"#utility.yul\":30585:30598   */\n      shl\n        /* \"#utility.yul\":30564:30598   */\n      swap1\n      pop\n        /* \"#utility.yul\":30513:30605   */\n      swap2\n      swap1\n      pop\n      jump\t// out\n        /* \"#utility.yul\":30611:30877   */\n    tag_191:\n        /* \"#utility.yul\":30669:30675   */\n      0x00\n        /* \"#utility.yul\":30698:30740   */\n      0xffffffffffffffffffffffffffffffffffffffff\n        /* \"#utility.yul\":30761:30783   */\n      tag_499\n        /* \"#utility.yul\":30774:30782   */\n      dup5\n        /* \"#utility.yul\":30761:30783   */\n      tag_190\n      jump\t// in\n    tag_499:\n        /* \"#utility.yul\":30749:30783   */\n      swap4\n      pop\n        /* \"#utility.yul\":30816:30820   */\n      dup1\n        /* \"#utility.yul\":30812:30821   */\n      not\n        /* \"#utility.yul\":30805:30810   */\n      dup4\n        /* \"#utility.yul\":30801:30822   */\n      and\n        /* \"#utility.yul\":30792:30822   */\n      swap3\n      pop\n        /* \"#utility.yul\":30865:30869   */\n      dup1\n        /* \"#utility.yul\":30855:30863   */\n      dup5\n        /* \"#utility.yul\":30851:30870   */\n      and\n        /* \"#utility.yul\":30844:30849   */\n      dup4\n        /* \"#utility.yul\":30841:30871   */\n      or\n        /* \"#utility.yul\":30831:30871   */\n      swap2\n      pop\n        /* \"#utility.yul\":30676:30877   */\n      pop\n        /* \"#utility.yul\":30611:30877   */\n      swap3\n      swap2\n      pop\n      pop\n      jump\t// out\n        /* \"#utility.yul\":30883:31025   */\n    tag_192:\n        /* \"#utility.yul\":30933:30942   */\n      0x00\n        /* \"#utility.yul\":30966:31019   */\n      tag_501\n        /* \"#utility.yul\":30984:31018   */\n      tag_502\n        /* \"#utility.yul\":30993:31017   */\n      tag_503\n        /* \"#utility.yul\":31011:31016   */\n      dup5\n        /* \"#utility.yul\":30993:31017   */\n      tag_109\n      jump\t// in\n    tag_503:\n        /* \"#utility.yul\":30984:31018   */\n      tag_163\n      jump\t// in\n    tag_502:\n        /* \"#utility.yul\":30966:31019   */\n      tag_109\n      jump\t// in\n    tag_501:\n        /* \"#utility.yul\":30953:31019   */\n      swap1\n      pop\n        /* \"#utility.yul\":30883:31025   */\n      swap2\n      swap1\n      pop\n      jump\t// out\n        /* \"#utility.yul\":31031:31157   */\n    tag_193:\n        /* \"#utility.yul\":31081:31090   */\n      0x00\n        /* \"#utility.yul\":31114:31151   */\n      tag_505\n        /* \"#utility.yul\":31145:31150   */\n      dup3\n        /* \"#utility.yul\":31114:31151   */\n      tag_192\n      jump\t// in\n    tag_505:\n        /* \"#utility.yul\":31101:31151   */\n      swap1\n      pop\n        /* \"#utility.yul\":31031:31157   */\n      swap2\n      swap1\n      pop\n      jump\t// out\n        /* \"#utility.yul\":31163:31289   */\n    tag_194:\n        /* \"#utility.yul\":31213:31222   */\n      0x00\n        /* \"#utility.yul\":31246:31283   */\n      tag_507\n        /* \"#utility.yul\":31277:31282   */\n      dup3\n        /* \"#utility.yul\":31246:31283   */\n      tag_193\n      jump\t// in\n    tag_507:\n        /* \"#utility.yul\":31233:31283   */\n      swap1\n      pop\n        /* \"#utility.yul\":31163:31289   */\n      swap2\n      swap1\n      pop\n      jump\t// out\n        /* \"#utility.yul\":31295:31370   */\n    tag_195:\n        /* \"#utility.yul\":31338:31341   */\n      0x00\n        /* \"#utility.yul\":31359:31364   */\n      dup2\n        /* \"#utility.yul\":31352:31364   */\n      swap1\n      pop\n        /* \"#utility.yul\":31295:31370   */\n      swap2\n      swap1\n      pop\n      jump\t// out\n        /* \"#utility.yul\":31376:31639   */\n    tag_196:\n        /* \"#utility.yul\":31487:31526   */\n      tag_510\n        /* \"#utility.yul\":31518:31525   */\n      dup3\n        /* \"#utility.yul\":31487:31526   */\n      tag_194\n      jump\t// in\n    tag_510:\n        /* \"#utility.yul\":31548:31632   */\n      tag_511\n        /* \"#utility.yul\":31590:31631   */\n      tag_512\n        /* \"#utility.yul\":31614:31630   */\n      dup3\n        /* \"#utility.yul\":31590:31631   */\n      tag_195\n      jump\t// in\n    tag_512:\n        /* \"#utility.yul\":31583:31587   */\n      dup4\n        /* \"#utility.yul\":31577:31588   */\n      sload\n        /* \"#utility.yul\":31548:31632   */\n      tag_191\n      jump\t// in\n    tag_511:\n        /* \"#utility.yul\":31542:31546   */\n      dup3\n        /* \"#utility.yul\":31535:31633   */\n      sstore\n        /* \"#utility.yul\":31453:31639   */\n      pop\n        /* \"#utility.yul\":31376:31639   */\n      pop\n      pop\n      jump\t// out\n        /* \"#utility.yul\":31645:31831   */\n    tag_197:\n        /* \"#utility.yul\":31690:31701   */\n      0x00\n        /* \"#utility.yul\":31739:31742   */\n      dup2\n        /* \"#utility.yul\":31726:31743   */\n      calldataload\n        /* \"#utility.yul\":31752:31785   */\n      tag_514\n        /* \"#utility.yul\":31779:31784   */\n      dup2\n        /* \"#utility.yul\":31752:31785   */\n      tag_143\n      jump\t// in\n    tag_514:\n        /* \"#utility.yul\":31819:31824   */\n      dup1\n        /* \"#utility.yul\":31795:31824   */\n      swap2\n      pop\n        /* \"#utility.yul\":31702:31831   */\n      pop\n        /* \"#utility.yul\":31645:31831   */\n      swap2\n      swap1\n      pop\n      jump\t// out\n        /* \"#utility.yul\":31837:32127   */\n    tag_198:\n        /* \"#utility.yul\":31895:31901   */\n      0x00\n        /* \"#utility.yul\":31924:31990   */\n      0xffffffffffffffffffffffffffffffffffffffffffffffffffffffffffffffff\n        /* \"#utility.yul\":32011:32033   */\n      tag_516\n        /* \"#utility.yul\":32024:32032   */\n      dup5\n        /* \"#utility.yul\":32011:32033   */\n      tag_190\n      jump\t// in\n    tag_516:\n        /* \"#utility.yul\":31999:32033   */\n      swap4\n      pop\n        /* \"#utility.yul\":32066:32070   */\n      dup1\n        /* \"#utility.yul\":32062:32071   */\n      not\n        /* \"#utility.yul\":32055:32060   */\n      dup4\n        /* \"#utility.yul\":32051:32072   */\n      and\n        /* \"#utility.yul\":32042:32072   */\n      swap3\n      pop\n        /* \"#utility.yul\":32115:32119   */\n      dup1\n        /* \"#utility.yul\":32105:32113   */\n      dup5\n        /* \"#utility.yul\":32101:32120   */\n      and\n        /* \"#utility.yul\":32094:32099   */\n      dup4\n        /* \"#utility.yul\":32091:32121   */\n      or\n        /* \"#utility.yul\":32081:32121   */\n      swap2\n      pop\n        /* \"#utility.yul\":31902:32127   */\n      pop\n        /* \"#utility.yul\":31837:32127   */\n      swap3\n      swap2\n      pop\n      pop\n      jump\t// out\n        /* \"#utility.yul\":32133:32396   */\n    tag_199:\n        /* \"#utility.yul\":32244:32283   */\n      tag_518\n        /* \"#utility.yul\":32275:32282   */\n      dup3\n        /* \"#utility.yul\":32244:32283   */\n      tag_164\n      jump\t// in\n    tag_518:\n        /* \"#utility.yul\":32305:32389   */\n      tag_519\n        /* \"#utility.yul\":32347:32388   */\n      tag_520\n        /* \"#utility.yul\":32371:32387   */\n      dup3\n        /* \"#utility.yul\":32347:32388   */\n      tag_165\n      jump\t// in\n    tag_520:\n        /* \"#utility.yul\":32340:32344   */\n      dup4\n        /* \"#utility.yul\":32334:32345   */\n      sload\n        /* \"#utility.yul\":32305:32389   */\n      tag_198\n      jump\t// in\n    tag_519:\n        /* \"#utility.yul\":32299:32303   */\n      dup3\n        /* \"#utility.yul\":32292:32390   */\n      sstore\n        /* \"#utility.yul\":32210:32396   */\n      pop\n        /* \"#utility.yul\":32133:32396   */\n      pop\n      pop\n      jump\t// out\n        /* \"#utility.yul\":32402:33219   */\n    tag_200:\n        /* \"#utility.yul\":32588:32589   */\n      0x00\n        /* \"#utility.yul\":32582:32586   */\n      dup2\n        /* \"#utility.yul\":32578:32590   */\n      add\n        /* \"#utility.yul\":32634:32635   */\n      0x00\n        /* \"#utility.yul\":32627:32632   */\n      dup4\n        /* \"#utility.yul\":32623:32636   */\n      add\n        /* \"#utility.yul\":32684:32696   */\n      dup1\n        /* \"#utility.yul\":32727:32769   */\n      tag_522\n        /* \"#utility.yul\":32755:32768   */\n      dup2\n        /* \"#utility.yul\":32727:32769   */\n      tag_189\n      jump\t// in\n    tag_522:\n        /* \"#utility.yul\":32710:32769   */\n      swap1\n      pop\n        /* \"#utility.yul\":32783:32862   */\n      tag_523\n        /* \"#utility.yul\":32848:32861   */\n      dup2\n        /* \"#utility.yul\":32836:32846   */\n      dup5\n        /* \"#utility.yul\":32783:32862   */\n      tag_196\n      jump\t// in\n    tag_523:\n        /* \"#utility.yul\":32545:32873   */\n      pop\n      pop\n      pop\n        /* \"#utility.yul\":32926:32927   */\n      0x01\n        /* \"#utility.yul\":32920:32924   */\n      dup2\n        /* \"#utility.yul\":32916:32928   */\n      add\n        /* \"#utility.yul\":32972:32974   */\n      0x20\n        /* \"#utility.yul\":32965:32970   */\n      dup4\n        /* \"#utility.yul\":32961:32975   */\n      add\n        /* \"#utility.yul\":33023:33035   */\n      dup1\n        /* \"#utility.yul\":33066:33108   */\n      tag_524\n        /* \"#utility.yul\":33094:33107   */\n      dup2\n        /* \"#utility.yul\":33066:33108   */\n      tag_197\n      jump\t// in\n    tag_524:\n        /* \"#utility.yul\":33049:33108   */\n      swap1\n      pop\n        /* \"#utility.yul\":33122:33201   */\n      tag_525\n        /* \"#utility.yul\":33187:33200   */\n      dup2\n        /* \"#utility.yul\":33175:33185   */\n      dup5\n        /* \"#utility.yul\":33122:33201   */\n      tag_199\n      jump\t// in\n    tag_525:\n        /* \"#utility.yul\":32883:33212   */\n      pop\n      pop\n      pop\n        /* \"#utility.yul\":32402:33219   */\n      pop\n      pop\n      jump\t// out\n        /* \"#utility.yul\":33225:33502   */\n    tag_201:\n        /* \"#utility.yul\":33372:33496   */\n      tag_527\n        /* \"#utility.yul\":33488:33495   */\n      dup3\n        /* \"#utility.yul\":33482:33486   */\n      dup3\n        /* \"#utility.yul\":33372:33496   */\n      tag_200\n      jump\t// in\n    tag_527:\n        /* \"#utility.yul\":33225:33502   */\n      pop\n      pop\n      jump\t// out\n        /* \"#utility.yul\":33508:34495   */\n    tag_202:\n        /* \"#utility.yul\":33718:33811   */\n      tag_529\n        /* \"#utility.yul\":33807:33810   */\n      dup4\n        /* \"#utility.yul\":33800:33805   */\n      dup4\n        /* \"#utility.yul\":33718:33811   */\n      tag_188\n      jump\t// in\n    tag_529:\n        /* \"#utility.yul\":33821:33906   */\n      tag_530\n        /* \"#utility.yul\":33899:33905   */\n      dup2\n        /* \"#utility.yul\":33893:33897   */\n      dup4\n        /* \"#utility.yul\":33821:33906   */\n      tag_187\n      jump\t// in\n    tag_530:\n        /* \"#utility.yul\":33930:34020   */\n      tag_531\n        /* \"#utility.yul\":34014:34019   */\n      dup4\n        /* \"#utility.yul\":33930:34020   */\n      tag_139\n      jump\t// in\n    tag_531:\n        /* \"#utility.yul\":34049:34128   */\n      tag_532\n        /* \"#utility.yul\":34123:34127   */\n      dup4\n        /* \"#utility.yul\":34049:34128   */\n      tag_181\n      jump\t// in\n    tag_532:\n        /* \"#utility.yul\":34153:34154   */\n      0x00\n        /* \"#utility.yul\":34138:34489   */\n    tag_533:\n        /* \"#utility.yul\":34163:34169   */\n      dup4\n        /* \"#utility.yul\":34160:34161   */\n      dup2\n        /* \"#utility.yul\":34157:34170   */\n      lt\n        /* \"#utility.yul\":34138:34489   */\n      iszero\n      tag_535\n      jumpi\n        /* \"#utility.yul\":34235:34241   */\n      dup3\n        /* \"#utility.yul\":34255:34392   */\n      tag_536\n        /* \"#utility.yul\":34380:34391   */\n      dup2\n        /* \"#utility.yul\":34367:34378   */\n      dup5\n        /* \"#utility.yul\":34255:34392   */\n      tag_201\n      jump\t// in\n    tag_536:\n        /* \"#utility.yul\":34428:34430   */\n      0x40\n        /* \"#utility.yul\":34420:34426   */\n      dup5\n        /* \"#utility.yul\":34416:34431   */\n      add\n        /* \"#utility.yul\":34406:34431   */\n      swap4\n      pop\n        /* \"#utility.yul\":34477:34478   */\n      0x02\n        /* \"#utility.yul\":34464:34475   */\n      dup4\n        /* \"#utility.yul\":34460:34479   */\n      add\n        /* \"#utility.yul\":34445:34479   */\n      swap3\n      pop\n        /* \"#utility.yul\":34188:34489   */\n      pop\n        /* \"#utility.yul\":34184:34185   */\n      0x01\n        /* \"#utility.yul\":34181:34182   */\n      dup2\n        /* \"#utility.yul\":34177:34186   */\n      add\n        /* \"#utility.yul\":34172:34186   */\n      swap1\n      pop\n        /* \"#utility.yul\":34138:34489   */\n      jump(tag_533)\n    tag_535:\n        /* \"#utility.yul\":34142:34156   */\n      pop\n        /* \"#utility.yul\":33693:34495   */\n      pop\n      pop\n      pop\n        /* \"#utility.yul\":33508:34495   */\n      pop\n      pop\n      pop\n      jump\t// out\n        /* \"#utility.yul\":34501:34893   */\n    tag_203:\n        /* \"#utility.yul\":34706:34887   */\n      tag_538\n        /* \"#utility.yul\":34879:34886   */\n      dup4\n        /* \"#utility.yul\":34870:34877   */\n      dup4\n        /* \"#utility.yul\":34864:34868   */\n      dup4\n        /* \"#utility.yul\":34706:34887   */\n      tag_202\n      jump\t// in\n    tag_538:\n        /* \"#utility.yul\":34501:34893   */\n      pop\n      pop\n      pop\n      jump\t// out\n        /* \"#utility.yul\":34899:36969   */\n    tag_204:\n        /* \"#utility.yul\":35085:35086   */\n      0x00\n        /* \"#utility.yul\":35079:35083   */\n      dup2\n        /* \"#utility.yul\":35075:35087   */\n      add\n        /* \"#utility.yul\":35131:35132   */\n      0x00\n        /* \"#utility.yul\":35124:35129   */\n      dup4\n        /* \"#utility.yul\":35120:35133   */\n      add\n        /* \"#utility.yul\":35196:35258   */\n      tag_540\n        /* \"#utility.yul\":35245:35257   */\n      dup2\n        /* \"#utility.yul\":35238:35243   */\n      dup6\n        /* \"#utility.yul\":35196:35258   */\n      tag_156\n      jump\t// in\n    tag_540:\n        /* \"#utility.yul\":35272:35383   */\n      tag_541\n        /* \"#utility.yul\":35369:35382   */\n      dup2\n        /* \"#utility.yul\":35354:35367   */\n      dup4\n        /* \"#utility.yul\":35342:35352   */\n      dup7\n        /* \"#utility.yul\":35272:35383   */\n      tag_175\n      jump\t// in\n    tag_541:\n        /* \"#utility.yul\":35042:35394   */\n      pop\n      pop\n      pop\n      pop\n        /* \"#utility.yul\":35447:35448   */\n      0x01\n        /* \"#utility.yul\":35441:35445   */\n      dup2\n        /* \"#utility.yul\":35437:35449   */\n      add\n        /* \"#utility.yul\":35493:35495   */\n      0x20\n        /* \"#utility.yul\":35486:35491   */\n      dup4\n        /* \"#utility.yul\":35482:35496   */\n      add\n        /* \"#utility.yul\":35559:35621   */\n      tag_542\n        /* \"#utility.yul\":35608:35620   */\n      dup2\n        /* \"#utility.yul\":35601:35606   */\n      dup6\n        /* \"#utility.yul\":35559:35621   */\n      tag_156\n      jump\t// in\n    tag_542:\n        /* \"#utility.yul\":35635:35746   */\n      tag_543\n        /* \"#utility.yul\":35732:35745   */\n      dup2\n        /* \"#utility.yul\":35717:35730   */\n      dup4\n        /* \"#utility.yul\":35705:35715   */\n      dup7\n        /* \"#utility.yul\":35635:35746   */\n      tag_175\n      jump\t// in\n    tag_543:\n        /* \"#utility.yul\":35404:35757   */\n      pop\n      pop\n      pop\n      pop\n        /* \"#utility.yul\":35810:35811   */\n      0x02\n        /* \"#utility.yul\":35804:35808   */\n      dup2\n        /* \"#utility.yul\":35800:35812   */\n      add\n        /* \"#utility.yul\":35856:35858   */\n      0x40\n        /* \"#utility.yul\":35849:35854   */\n      dup4\n        /* \"#utility.yul\":35845:35859   */\n      add\n        /* \"#utility.yul\":35922:36032   */\n      tag_544\n        /* \"#utility.yul\":36019:36031   */\n      dup2\n        /* \"#utility.yul\":36012:36017   */\n      dup6\n        /* \"#utility.yul\":35922:36032   */\n      tag_176\n      jump\t// in\n    tag_544:\n        /* \"#utility.yul\":36046:36248   */\n      tag_545\n        /* \"#utility.yul\":36234:36247   */\n      dup2\n        /* \"#utility.yul\":36219:36232   */\n      dup4\n        /* \"#utility.yul\":36207:36217   */\n      dup7\n        /* \"#utility.yul\":36046:36248   */\n      tag_203\n      jump\t// in\n    tag_545:\n        /* \"#utility.yul\":35767:36259   */\n      pop\n      pop\n      pop\n      pop\n        /* \"#utility.yul\":36312:36313   */\n      0x03\n        /* \"#utility.yul\":36306:36310   */\n      dup2\n        /* \"#utility.yul\":36302:36314   */\n      add\n        /* \"#utility.yul\":36358:36360   */\n      0x60\n        /* \"#utility.yul\":36351:36356   */\n      dup4\n        /* \"#utility.yul\":36347:36361   */\n      add\n        /* \"#utility.yul\":36409:36421   */\n      dup1\n        /* \"#utility.yul\":36452:36494   */\n      tag_546\n        /* \"#utility.yul\":36480:36493   */\n      dup2\n        /* \"#utility.yul\":36452:36494   */\n      tag_189\n      jump\t// in\n    tag_546:\n        /* \"#utility.yul\":36435:36494   */\n      swap1\n      pop\n        /* \"#utility.yul\":36508:36587   */\n      tag_547\n        /* \"#utility.yul\":36573:36586   */\n      dup2\n        /* \"#utility.yul\":36561:36571   */\n      dup5\n        /* \"#utility.yul\":36508:36587   */\n      tag_196\n      jump\t// in\n    tag_547:\n        /* \"#utility.yul\":36269:36598   */\n      pop\n      pop\n      pop\n        /* \"#utility.yul\":36651:36652   */\n      0x04\n        /* \"#utility.yul\":36645:36649   */\n      dup2\n        /* \"#utility.yul\":36641:36653   */\n      add\n        /* \"#utility.yul\":36697:36700   */\n      0x80\n        /* \"#utility.yul\":36690:36695   */\n      dup4\n        /* \"#utility.yul\":36686:36701   */\n      add\n        /* \"#utility.yul\":36764:36826   */\n      tag_548\n        /* \"#utility.yul\":36813:36825   */\n      dup2\n        /* \"#utility.yul\":36806:36811   */\n      dup6\n        /* \"#utility.yul\":36764:36826   */\n      tag_156\n      jump\t// in\n    tag_548:\n        /* \"#utility.yul\":36840:36951   */\n      tag_549\n        /* \"#utility.yul\":36937:36950   */\n      dup2\n        /* \"#utility.yul\":36922:36935   */\n      dup4\n        /* \"#utility.yul\":36910:36920   */\n      dup7\n        /* \"#utility.yul\":36840:36951   */\n      tag_175\n      jump\t// in\n    tag_549:\n        /* \"#utility.yul\":36608:36962   */\n      pop\n      pop\n      pop\n      pop\n        /* \"#utility.yul\":34899:36969   */\n      pop\n      pop\n      jump\t// out\n        /* \"#utility.yul\":36975:37252   */\n    tag_93:\n        /* \"#utility.yul\":37122:37246   */\n      tag_551\n        /* \"#utility.yul\":37238:37245   */\n      dup3\n        /* \"#utility.yul\":37232:37236   */\n      dup3\n        /* \"#utility.yul\":37122:37246   */\n      tag_204\n      jump\t// in\n    tag_551:\n        /* \"#utility.yul\":36975:37252   */\n      pop\n      pop\n      jump\t// out\n\n    auxdata: 0xa2646970667358221220767b7ed035baddb58342fad1f81662a68b9c83ebfaf7d13ae9d8c52064589d1e64736f6c634300081c0033\n}\n",
				"bytecode": {
					"linkReferences": {},
					"object": "608060405260015f5f6101000a81548160ff0219169083151502179055503480156027575f5ffd5b50611843806100355f395ff3fe60806040526004361061006f575f3560e01c80636aa633b61161004d5780636aa633b61461010157806382e3702d1461012b57806396f4e9f91461016a578063a48a90581461019a5761006f565b80631683d0f41461007357806318e8a501146100af57806320487ded146100c5575b5f5ffd5b34801561007e575f5ffd5b506100996004803603810190610094919061080d565b6101d6565b6040516100a69190610a5c565b60405180910390f35b3480156100ba575f5ffd5b506100c36104bf565b005b3480156100d0575f5ffd5b506100eb60048036038101906100e69190610adb565b6104e7565b6040516100f89190610b44565b60405180910390f35b34801561010c575f5ffd5b506101156104f8565b6040516101229190610b77565b60405180910390f35b348015610136575f5ffd5b50610151600480360381019061014c919061080d565b610509565b6040516101619493929190610be7565b60405180910390f35b610184600480360381019061017f9190610adb565b6106e6565b6040516101919190610c4e565b60405180910390f35b3480156101a5575f5ffd5b506101c060048036038101906101bb9190610c67565b610784565b6040516101cd9190610b77565b60405180910390f35b6101de61078e565b60015f8381526020019081526020015f206040518060a00160405290815f8201805461020990610cbf565b80601f016020809104026020016040519081016040528092919081815260200182805461023590610cbf565b80156102805780601f1061025757610100808354040283529160200191610280565b820191905f5260205f20905b81548152906001019060200180831161026357829003601f168201915b5050505050815260200160018201805461029990610cbf565b80601f01602080910402602001604051908101604052809291908181526020018280546102c590610cbf565b80156103105780601f106102e757610100808354040283529160200191610310565b820191905f5260205f20905b8154815290600101906020018083116102f357829003601f168201915b5050505050815260200160028201805480602002602001604051908101604052809291908181526020015f905b828210156103cb578382905f5260205f2090600202016040518060400160405290815f82015f9054906101000a900473ffffffffffffffffffffffffffffffffffffffff1673ffffffffffffffffffffffffffffffffffffffff1673ffffffffffffffffffffffffffffffffffffffff1681526020016001820154815250508152602001906001019061033d565b505050508152602001600382015f9054906101000a900473ffffffffffffffffffffffffffffffffffffffff1673ffffffffffffffffffffffffffffffffffffffff1673ffffffffffffffffffffffffffffffffffffffff16815260200160048201805461043890610cbf565b80601f016020809104026020016040519081016040528092919081815260200182805461046490610cbf565b80156104af5780601f10610486576101008083540402835291602001916104af565b820191905f5260205f20905b81548152906001019060200180831161049257829003601f168201915b5050505050815250509050919050565b5f5f9054906101000a900460ff16155f5f6101000a81548160ff021916908315150217905550565b5f662386f26fc10000905092915050565b5f5f9054906101000a900460ff1681565b6001602052805f5260405f205f91509050805f01805461052890610cbf565b80601f016020809104026020016040519081016040528092919081815260200182805461055490610cbf565b801561059f5780601f106105765761010080835404028352916020019161059f565b820191905f5260205f20905b81548152906001019060200180831161058257829003601f168201915b5050505050908060010180546105b490610cbf565b80601f01602080910402602001604051908101604052809291908181526020018280546105e090610cbf565b801561062b5780601f106106025761010080835404028352916020019161062b565b820191905f5260205f20905b81548152906001019060200180831161060e57829003601f168201915b505050505090806003015f9054906101000a900473ffffffffffffffffffffffffffffffffffffffff169080600401805461066590610cbf565b80601f016020809104026020016040519081016040528092919081815260200182805461069190610cbf565b80156106dc5780601f106106b3576101008083540402835291602001916106dc565b820191905f5260205f20905b8154815290600101906020018083116106bf57829003601f168201915b5050505050905084565b5f5f5f9054906101000a900460ff1661072b576040517f96639aff00000000000000000000000000000000000000000000000000000000815260040160405180910390fd5b5f33834260405160200161074193929190610fff565b6040516020818303038152906040528051906020012090508260015f8381526020019081526020015f20818161077791906117ff565b9050508091505092915050565b5f60019050919050565b6040518060a001604052806060815260200160608152602001606081526020015f73ffffffffffffffffffffffffffffffffffffffff168152602001606081525090565b5f5ffd5b5f5ffd5b5f819050919050565b6107ec816107da565b81146107f6575f5ffd5b50565b5f81359050610807816107e3565b92915050565b5f60208284031215610822576108216107d2565b5b5f61082f848285016107f9565b91505092915050565b5f81519050919050565b5f82825260208201905092915050565b8281835e5f83830152505050565b5f601f19601f8301169050919050565b5f61087a82610838565b6108848185610842565b9350610894818560208601610852565b61089d81610860565b840191505092915050565b5f81519050919050565b5f82825260208201905092915050565b5f819050602082019050919050565b5f73ffffffffffffffffffffffffffffffffffffffff82169050919050565b5f6108fa826108d1565b9050919050565b61090a816108f0565b82525050565b5f819050919050565b61092281610910565b82525050565b604082015f82015161093c5f850182610901565b50602082015161094f6020850182610919565b50505050565b5f6109608383610928565b60408301905092915050565b5f602082019050919050565b5f610982826108a8565b61098c81856108b2565b9350610997836108c2565b805f5b838110156109c75781516109ae8882610955565b97506109b98361096c565b92505060018101905061099a565b5085935050505092915050565b5f60a083015f8301518482035f8601526109ee8282610870565b91505060208301518482036020860152610a088282610870565b91505060408301518482036040860152610a228282610978565b9150506060830151610a376060860182610901565b5060808301518482036080860152610a4f8282610870565b9150508091505092915050565b5f6020820190508181035f830152610a7481846109d4565b905092915050565b5f67ffffffffffffffff82169050919050565b610a9881610a7c565b8114610aa2575f5ffd5b50565b5f81359050610ab381610a8f565b92915050565b5f5ffd5b5f60a08284031215610ad257610ad1610ab9565b5b81905092915050565b5f5f60408385031215610af157610af06107d2565b5b5f610afe85828601610aa5565b925050602083013567ffffffffffffffff811115610b1f57610b1e6107d6565b5b610b2b85828601610abd565b9150509250929050565b610b3e81610910565b82525050565b5f602082019050610b575f830184610b35565b92915050565b5f8115159050919050565b610b7181610b5d565b82525050565b5f602082019050610b8a5f830184610b68565b92915050565b5f82825260208201905092915050565b5f610baa82610838565b610bb48185610b90565b9350610bc4818560208601610852565b610bcd81610860565b840191505092915050565b610be1816108f0565b82525050565b5f6080820190508181035f830152610bff8187610ba0565b90508181036020830152610c138186610ba0565b9050610c226040830185610bd8565b8181036060830152610c348184610ba0565b905095945050505050565b610c48816107da565b82525050565b5f602082019050610c615f830184610c3f565b92915050565b5f60208284031215610c7c57610c7b6107d2565b5b5f610c8984828501610aa5565b91505092915050565b7f4e487b71000000000000000000000000000000000000000000000000000000005f52602260045260245ffd5b5f6002820490506001821680610cd657607f821691505b602082108103610ce957610ce8610c92565b5b50919050565b5f5ffd5b5f5ffd5b5f5ffd5b5f5f83356001602003843603038112610d1757610d16610cf7565b5b83810192508235915060208301925067ffffffffffffffff821115610d3f57610d3e610cef565b5b600182023603831315610d5557610d54610cf3565b5b509250929050565b828183375f83830152505050565b5f610d768385610842565b9350610d83838584610d5d565b610d8c83610860565b840190509392505050565b5f5f83356001602003843603038112610db357610db2610cf7565b5b83810192508235915060208301925067ffffffffffffffff821115610ddb57610dda610cef565b5b604082023603831315610df157610df0610cf3565b5b509250929050565b5f819050919050565b610e0b816108f0565b8114610e15575f5ffd5b50565b5f81359050610e2681610e02565b92915050565b5f610e3a6020840184610e18565b905092915050565b610e4b81610910565b8114610e55575f5ffd5b50565b5f81359050610e6681610e42565b92915050565b5f610e7a6020840184610e58565b905092915050565b60408201610e925f830183610e2c565b610e9e5f850182610901565b50610eac6020830183610e6c565b610eb96020850182610919565b50505050565b5f610eca8383610e82565b60408301905092915050565b5f82905092915050565b5f604082019050919050565b5f610ef783856108b2565b9350610f0282610df9565b805f5b85811015610f3a57610f178284610ed6565b610f218882610ebf565b9750610f2c83610ee0565b925050600181019050610f05565b5085925050509392505050565b5f60a08301610f585f840184610cfb565b8583035f870152610f6a838284610d6b565b92505050610f7b6020840184610cfb565b8583036020870152610f8e838284610d6b565b92505050610f9f6040840184610d97565b8583036040870152610fb2838284610eec565b92505050610fc36060840184610e2c565b610fd06060860182610901565b50610fde6080840184610cfb565b8583036080870152610ff1838284610d6b565b925050508091505092915050565b5f6060820190506110125f830186610bd8565b81810360208301526110248185610f47565b90506110336040830184610b35565b949350505050565b7f4e487b71000000000000000000000000000000000000000000000000000000005f525f60045260245ffd5b5f5ffd5b5f5ffd5b5f5ffd5b5f5f8335600160200384360303811261108f5761108e611067565b5b80840192508235915067ffffffffffffffff8211156110b1576110b061106b565b5b6020830192506001820236038313156110cd576110cc61106f565b5b509250929050565b5f82905092915050565b7f4e487b71000000000000000000000000000000000000000000000000000000005f52604160045260245ffd5b5f819050815f5260205f209050919050565b5f6020601f8301049050919050565b5f82821b905092915050565b5f600883026111687fffffffffffffffffffffffffffffffffffffffffffffffffffffffffffffffff8261112d565b611172868361112d565b95508019841693508086168417925050509392505050565b5f819050919050565b5f6111ad6111a86111a384610910565b61118a565b610910565b9050919050565b5f819050919050565b6111c683611193565b6111da6111d2826111b4565b848454611139565b825550505050565b5f5f905090565b6111f16111e2565b6111fc8184846111bd565b505050565b5b8181101561121f576112145f826111e9565b600181019050611202565b5050565b601f821115611264576112358161110c565b61123e8461111e565b8101602085101561124d578190505b6112616112598561111e565b830182611201565b50505b505050565b5f82821c905092915050565b5f6112845f1984600802611269565b1980831691505092915050565b5f61129c8383611275565b9150826002028217905092915050565b6112b683836110d5565b67ffffffffffffffff8111156112cf576112ce6110df565b5b6112d98254610cbf565b6112e4828285611223565b5f601f831160018114611311575f84156112ff578287013590505b6113098582611291565b865550611370565b601f19841661131f8661110c565b5f5b8281101561134657848901358255600182019150602085019450602081019050611321565b86831015611363578489013561135f601f891682611275565b8355505b6001600288020188555050505b50505050505050565b6113848383836112ac565b505050565b5f5f833560016020038436030381126113a5576113a4611067565b5b80840192508235915067ffffffffffffffff8211156113c7576113c661106b565b5b6020830192506040820236038313156113e3576113e261106f565b5b509250929050565b5f81549050919050565b7f4e487b71000000000000000000000000000000000000000000000000000000005f52601160045260245ffd5b5f61142c82610910565b915061143783610910565b925082820261144581610910565b9150828204841483151761145c5761145b6113f5565b5b5092915050565b5f819050611472826002611422565b9050919050565b5f819050815f5260205f209050919050565b5f5f82015561149d5f600183016111e9565b50565b5f82146114b0576114af61103b565b5b6114b98161148b565b5050565b5b818110156114db576114d05f826114a0565b6002810190506114be565b5050565b81831015611518576114f082611463565b6114f984611463565b61150283611479565b81810183820161151281836114bd565b50505050505b505050565b68010000000000000000821115611537576115366110df565b5b611540816113eb565b82825561154e8382846114df565b505050565b5f82905092915050565b5f813561156981610e02565b80915050919050565b5f815f1b9050919050565b5f73ffffffffffffffffffffffffffffffffffffffff61159c84611572565b9350801983169250808416831791505092915050565b5f6115cc6115c76115c2846108d1565b61118a565b6108d1565b9050919050565b5f6115dd826115b2565b9050919050565b5f6115ee826115d3565b9050919050565b5f819050919050565b611607826115e4565b61161a611613826115f5565b835461157d565b8255505050565b5f813561162d81610e42565b80915050919050565b5f7fffffffffffffffffffffffffffffffffffffffffffffffffffffffffffffffff61166184611572565b9350801983169250808416831791505092915050565b61168082611193565b61169361168c826111b4565b8354611636565b8255505050565b5f81015f8301806116aa8161155d565b90506116b681846115fe565b5050506001810160208301806116cb81611621565b90506116d78184611677565b5050505050565b6116e8828261169a565b5050565b6116f68383611553565b611700818361151d565b61170983610df9565b61171283611479565b5f5b8381101561173f578261172781846116de565b60408401935060028301925050600181019050611714565b50505050505050565b6117538383836116ec565b505050565b5f81015f83016117688185611073565b611773818386611379565b5050505060018101602083016117898185611073565b611794818386611379565b5050505060028101604083016117aa8185611389565b6117b5818386611748565b505050506003810160608301806117cb8161155d565b90506117d781846115fe565b50505060048101608083016117ec8185611073565b6117f7818386611379565b505050505050565b6118098282611758565b505056fea2646970667358221220767b7ed035baddb58342fad1f81662a68b9c83ebfaf7d13ae9d8c52064589d1e64736f6c634300081c0033",
					"opcodes": "PUSH1 0x80 PUSH1 0x40 MSTORE PUSH1 0x1 PUSH0 PUSH0 PUSH2 0x100 EXP DUP2 SLOAD DUP2 PUSH1 0xFF MUL NOT AND SWAP1 DUP4 ISZERO ISZERO MUL OR SWAP1 SSTORE POP CALLVALUE DUP1 ISZERO PUSH1 0x27 JUMPI PUSH0 PUSH0 REVERT JUMPDEST POP PUSH2 0x1843 DUP1 PUSH2 0x35 PUSH0 CODECOPY PUSH0 RETURN INVALID PUSH1 0x80 PUSH1 0x40 MSTORE PUSH1 0x4 CALLDATASIZE LT PUSH2 0x6F JUMPI PUSH0 CALLDATALOAD PUSH1 0xE0 SHR DUP1 PUSH4 0x6AA633B6 GT PUSH2 0x4D JUMPI DUP1 PUSH4 0x6AA633B6 EQ PUSH2 0x101 JUMPI DUP1 PUSH4 0x82E3702D EQ PUSH2 0x12B JUMPI DUP1 PUSH4 0x96F4E9F9 EQ PUSH2 0x16A JUMPI DUP1 PUSH4 0xA48A9058 EQ PUSH2 0x19A JUMPI PUSH2 0x6F JUMP JUMPDEST DUP1 PUSH4 0x1683D0F4 EQ PUSH2 0x73 JUMPI DUP1 PUSH4 0x18E8A501 EQ PUSH2 0xAF JUMPI DUP1 PUSH4 0x20487DED EQ PUSH2 0xC5 JUMPI JUMPDEST PUSH0 PUSH0 REVERT JUMPDEST CALLVALUE DUP1 ISZERO PUSH2 0x7E JUMPI PUSH0 PUSH0 REVERT JUMPDEST POP PUSH2 0x99 PUSH1 0x4 DUP1 CALLDATASIZE SUB DUP2 ADD SWAP1 PUSH2 0x94 SWAP2 SWAP1 PUSH2 0x80D JUMP JUMPDEST PUSH2 0x1D6 JUMP JUMPDEST PUSH1 0x40 MLOAD PUSH2 0xA6 SWAP2 SWAP1 PUSH2 0xA5C JUMP JUMPDEST PUSH1 0x40 MLOAD DUP1 SWAP2 SUB SWAP1 RETURN JUMPDEST CALLVALUE DUP1 ISZERO PUSH2 0xBA JUMPI PUSH0 PUSH0 REVERT JUMPDEST POP PUSH2 0xC3 PUSH2 0x4BF JUMP JUMPDEST STOP JUMPDEST CALLVALUE DUP1 ISZERO PUSH2 0xD0 JUMPI PUSH0 PUSH0 REVERT JUMPDEST POP PUSH2 0xEB PUSH1 0x4 DUP1 CALLDATASIZE SUB DUP2 ADD SWAP1 PUSH2 0xE6 SWAP2 SWAP1 PUSH2 0xADB JUMP JUMPDEST PUSH2 0x4E7 JUMP JUMPDEST PUSH1 0x40 MLOAD PUSH2 0xF8 SWAP2 SWAP1 PUSH2 0xB44 JUMP JUMPDEST PUSH1 0x40 MLOAD DUP1 SWAP2 SUB SWAP1 RETURN JUMPDEST CALLVALUE DUP1 ISZERO PUSH2 0x10C JUMPI PUSH0 PUSH0 REVERT JUMPDEST POP PUSH2 0x115 PUSH2 0x4F8 JUMP JUMPDEST PUSH1 0x40 MLOAD PUSH2 0x122 SWAP2 SWAP1 PUSH2 0xB77 JUMP JUMPDEST PUSH1 0x40 MLOAD DUP1 SWAP2 SUB SWAP1 RETURN JUMPDEST CALLVALUE DUP1 ISZERO PUSH2 0x136 JUMPI PUSH0 PUSH0 REVERT JUMPDEST POP PUSH2 0x151 PUSH1 0x4 DUP1 CALLDATASIZE SUB DUP2 ADD SWAP1 PUSH2 0x14C SWAP2 SWAP1 PUSH2 0x80D JUMP JUMPDEST PUSH2 0x509 JUMP JUMPDEST PUSH1 0x40 MLOAD PUSH2 0x161 SWAP5 SWAP4 SWAP3 SWAP2 SWAP1 PUSH2 0xBE7 JUMP JUMPDEST PUSH1 0x40 MLOAD DUP1 SWAP2 SUB SWAP1 RETURN JUMPDEST PUSH2 0x184 PUSH1 0x4 DUP1 CALLDATASIZE SUB DUP2 ADD SWAP1 PUSH2 0x17F SWAP2 SWAP1 PUSH2 0xADB JUMP JUMPDEST PUSH2 0x6E6 JUMP JUMPDEST PUSH1 0x40 MLOAD PUSH2 0x191 SWAP2 SWAP1 PUSH2 0xC4E JUMP JUMPDEST PUSH1 0x40 MLOAD DUP1 SWAP2 SUB SWAP1 RETURN JUMPDEST CALLVALUE DUP1 ISZERO PUSH2 0x1A5 JUMPI PUSH0 PUSH0 REVERT JUMPDEST POP PUSH2 0x1C0 PUSH1 0x4 DUP1 CALLDATASIZE SUB DUP2 ADD SWAP1 PUSH2 0x1BB SWAP2 SWAP1 PUSH2 0xC67 JUMP JUMPDEST PUSH2 0x784 JUMP JUMPDEST PUSH1 0x40 MLOAD PUSH2 0x1CD SWAP2 SWAP1 PUSH2 0xB77 JUMP JUMPDEST PUSH1 0x40 MLOAD DUP1 SWAP2 SUB SWAP1 RETURN JUMPDEST PUSH2 0x1DE PUSH2 0x78E JUMP JUMPDEST PUSH1 0x1 PUSH0 DUP4 DUP2 MSTORE PUSH1 0x20 ADD SWAP1 DUP2 MSTORE PUSH1 0x20 ADD PUSH0 KECCAK256 PUSH1 0x40 MLOAD DUP1 PUSH1 0xA0 ADD PUSH1 0x40 MSTORE SWAP1 DUP2 PUSH0 DUP3 ADD DUP1 SLOAD PUSH2 0x209 SWAP1 PUSH2 0xCBF JUMP JUMPDEST DUP1 PUSH1 0x1F ADD PUSH1 0x20 DUP1 SWAP2 DIV MUL PUSH1 0x20 ADD PUSH1 0x40 MLOAD SWAP1 DUP2 ADD PUSH1 0x40 MSTORE DUP1 SWAP3 SWAP2 SWAP1 DUP2 DUP2 MSTORE PUSH1 0x20 ADD DUP3 DUP1 SLOAD PUSH2 0x235 SWAP1 PUSH2 0xCBF JUMP JUMPDEST DUP1 ISZERO PUSH2 0x280 JUMPI DUP1 PUSH1 0x1F LT PUSH2 0x257 JUMPI PUSH2 0x100 DUP1 DUP4 SLOAD DIV MUL DUP4 MSTORE SWAP2 PUSH1 0x20 ADD SWAP2 PUSH2 0x280 JUMP JUMPDEST DUP3 ADD SWAP2 SWAP1 PUSH0 MSTORE PUSH1 0x20 PUSH0 KECCAK256 SWAP1 JUMPDEST DUP2 SLOAD DUP2 MSTORE SWAP1 PUSH1 0x1 ADD SWAP1 PUSH1 0x20 ADD DUP1 DUP4 GT PUSH2 0x263 JUMPI DUP3 SWAP1 SUB PUSH1 0x1F AND DUP3 ADD SWAP2 JUMPDEST POP POP POP POP POP DUP2 MSTORE PUSH1 0x20 ADD PUSH1 0x1 DUP3 ADD DUP1 SLOAD PUSH2 0x299 SWAP1 PUSH2 0xCBF JUMP JUMPDEST DUP1 PUSH1 0x1F ADD PUSH1 0x20 DUP1 SWAP2 DIV MUL PUSH1 0x20 ADD PUSH1 0x40 MLOAD SWAP1 DUP2 ADD PUSH1 0x40 MSTORE DUP1 SWAP3 SWAP2 SWAP1 DUP2 DUP2 MSTORE PUSH1 0x20 ADD DUP3 DUP1 SLOAD PUSH2 0x2C5 SWAP1 PUSH2 0xCBF JUMP JUMPDEST DUP1 ISZERO PUSH2 0x310 JUMPI DUP1 PUSH1 0x1F LT PUSH2 0x2E7 JUMPI PUSH2 0x100 DUP1 DUP4 SLOAD DIV MUL DUP4 MSTORE SWAP2 PUSH1 0x20 ADD SWAP2 PUSH2 0x310 JUMP JUMPDEST DUP3 ADD SWAP2 SWAP1 PUSH0 MSTORE PUSH1 0x20 PUSH0 KECCAK256 SWAP1 JUMPDEST DUP2 SLOAD DUP2 MSTORE SWAP1 PUSH1 0x1 ADD SWAP1 PUSH1 0x20 ADD DUP1 DUP4 GT PUSH2 0x2F3 JUMPI DUP3 SWAP1 SUB PUSH1 0x1F AND DUP3 ADD SWAP2 JUMPDEST POP POP POP POP POP DUP2 MSTORE PUSH1 0x20 ADD PUSH1 0x2 DUP3 ADD DUP1 SLOAD DUP1 PUSH1 0x20 MUL PUSH1 0x20 ADD PUSH1 0x40 MLOAD SWAP1 DUP2 ADD PUSH1 0x40 MSTORE DUP1 SWAP3 SWAP2 SWAP1 DUP2 DUP2 MSTORE PUSH1 0x20 ADD PUSH0 SWAP1 JUMPDEST DUP3 DUP3 LT ISZERO PUSH2 0x3CB JUMPI DUP4 DUP3 SWAP1 PUSH0 MSTORE PUSH1 0x20 PUSH0 KECCAK256 SWAP1 PUSH1 0x2 MUL ADD PUSH1 0x40 MLOAD DUP1 PUSH1 0x40 ADD PUSH1 0x40 MSTORE SWAP1 DUP2 PUSH0 DUP3 ADD PUSH0 SWAP1 SLOAD SWAP1 PUSH2 0x100 EXP SWAP1 DIV PUSH20 0xFFFFFFFFFFFFFFFFFFFFFFFFFFFFFFFFFFFFFFFF AND PUSH20 0xFFFFFFFFFFFFFFFFFFFFFFFFFFFFFFFFFFFFFFFF AND PUSH20 0xFFFFFFFFFFFFFFFFFFFFFFFFFFFFFFFFFFFFFFFF AND DUP2 MSTORE PUSH1 0x20 ADD PUSH1 0x1 DUP3 ADD SLOAD DUP2 MSTORE POP POP DUP2 MSTORE PUSH1 0x20 ADD SWAP1 PUSH1 0x1 ADD SWAP1 PUSH2 0x33D JUMP JUMPDEST POP POP POP POP DUP2 MSTORE PUSH1 0x20 ADD PUSH1 0x3 DUP3 ADD PUSH0 SWAP1 SLOAD SWAP1 PUSH2 0x100 EXP SWAP1 DIV PUSH20 0xFFFFFFFFFFFFFFFFFFFFFFFFFFFFFFFFFFFFFFFF AND PUSH20 0xFFFFFFFFFFFFFFFFFFFFFFFFFFFFFFFFFFFFFFFF AND PUSH20 0xFFFFFFFFFFFFFFFFFFFFFFFFFFFFFFFFFFFFFFFF AND DUP2 MSTORE PUSH1 0x20 ADD PUSH1 0x4 DUP3 ADD DUP1 SLOAD PUSH2 0x438 SWAP1 PUSH2 0xCBF JUMP JUMPDEST DUP1 PUSH1 0x1F ADD PUSH1 0x20 DUP1 SWAP2 DIV MUL PUSH1 0x20 ADD PUSH1 0x40 MLOAD SWAP1 DUP2 ADD PUSH1 0x40 MSTORE DUP1 SWAP3 SWAP2 SWAP1 DUP2 DUP2 MSTORE PUSH1 0x20 ADD DUP3 DUP1 SLOAD PUSH2 0x464 SWAP1 PUSH2 0xCBF JUMP JUMPDEST DUP1 ISZERO PUSH2 0x4AF JUMPI DUP1 PUSH1 0x1F LT PUSH2 0x486 JUMPI PUSH2 0x100 DUP1 DUP4 SLOAD DIV MUL DUP4 MSTORE SWAP2 PUSH1 0x20 ADD SWAP2 PUSH2 0x4AF JUMP JUMPDEST DUP3 ADD SWAP2 SWAP1 PUSH0 MSTORE PUSH1 0x20 PUSH0 KECCAK256 SWAP1 JUMPDEST DUP2 SLOAD DUP2 MSTORE SWAP1 PUSH1 0x1 ADD SWAP1 PUSH1 0x20 ADD DUP1 DUP4 GT PUSH2 0x492 JUMPI DUP3 SWAP1 SUB PUSH1 0x1F AND DUP3 ADD SWAP2 JUMPDEST POP POP POP POP POP DUP2 MSTORE POP POP SWAP1 POP SWAP2 SWAP1 POP JUMP JUMPDEST PUSH0 PUSH0 SWAP1 SLOAD SWAP1 PUSH2 0x100 EXP SWAP1 DIV PUSH1 0xFF AND ISZERO PUSH0 PUSH0 PUSH2 0x100 EXP DUP2 SLOAD DUP2 PUSH1 0xFF MUL NOT AND SWAP1 DUP4 ISZERO ISZERO MUL OR SWAP1 SSTORE POP JUMP JUMPDEST PUSH0 PUSH7 0x2386F26FC10000 SWAP1 POP SWAP3 SWAP2 POP POP JUMP JUMPDEST PUSH0 PUSH0 SWAP1 SLOAD SWAP1 PUSH2 0x100 EXP SWAP1 DIV PUSH1 0xFF AND DUP2 JUMP JUMPDEST PUSH1 0x1 PUSH1 0x20 MSTORE DUP1 PUSH0 MSTORE PUSH1 0x40 PUSH0 KECCAK256 PUSH0 SWAP2 POP SWAP1 POP DUP1 PUSH0 ADD DUP1 SLOAD PUSH2 0x528 SWAP1 PUSH2 0xCBF JUMP JUMPDEST DUP1 PUSH1 0x1F ADD PUSH1 0x20 DUP1 SWAP2 DIV MUL PUSH1 0x20 ADD PUSH1 0x40 MLOAD SWAP1 DUP2 ADD PUSH1 0x40 MSTORE DUP1 SWAP3 SWAP2 SWAP1 DUP2 DUP2 MSTORE PUSH1 0x20 ADD DUP3 DUP1 SLOAD PUSH2 0x554 SWAP1 PUSH2 0xCBF JUMP JUMPDEST DUP1 ISZERO PUSH2 0x59F JUMPI DUP1 PUSH1 0x1F LT PUSH2 0x576 JUMPI PUSH2 0x100 DUP1 DUP4 SLOAD DIV MUL DUP4 MSTORE SWAP2 PUSH1 0x20 ADD SWAP2 PUSH2 0x59F JUMP JUMPDEST DUP3 ADD SWAP2 SWAP1 PUSH0 MSTORE PUSH1 0x20 PUSH0 KECCAK256 SWAP1 JUMPDEST DUP2 SLOAD DUP2 MSTORE SWAP1 PUSH1 0x1 ADD SWAP1 PUSH1 0x20 ADD DUP1 DUP4 GT PUSH2 0x582 JUMPI DUP3 SWAP1 SUB PUSH1 0x1F AND DUP3 ADD SWAP2 JUMPDEST POP POP POP POP POP SWAP1 DUP1 PUSH1 0x1 ADD DUP1 SLOAD PUSH2 0x5B4 SWAP1 PUSH2 0xCBF JUMP JUMPDEST DUP1 PUSH1 0x1F ADD PUSH1 0x20 DUP1 SWAP2 DIV MUL PUSH1 0x20 ADD PUSH1 0x40 MLOAD SWAP1 DUP2 ADD PUSH1 0x40 MSTORE DUP1 SWAP3 SWAP2 SWAP1 DUP2 DUP2 MSTORE PUSH1 0x20 ADD DUP3 DUP1 SLOAD PUSH2 0x5E0 SWAP1 PUSH2 0xCBF JUMP JUMPDEST DUP1 ISZERO PUSH2 0x62B JUMPI DUP1 PUSH1 0x1F LT PUSH2 0x602 JUMPI PUSH2 0x100 DUP1 DUP4 SLOAD DIV MUL DUP4 MSTORE SWAP2 PUSH1 0x20 ADD SWAP2 PUSH2 0x62B JUMP JUMPDEST DUP3 ADD SWAP2 SWAP1 PUSH0 MSTORE PUSH1 0x20 PUSH0 KECCAK256 SWAP1 JUMPDEST DUP2 SLOAD DUP2 MSTORE SWAP1 PUSH1 0x1 ADD SWAP1 PUSH1 0x20 ADD DUP1 DUP4 GT PUSH2 0x60E JUMPI DUP3 SWAP1 SUB PUSH1 0x1F AND DUP3 ADD SWAP2 JUMPDEST POP POP POP POP POP SWAP1 DUP1 PUSH1 0x3 ADD PUSH0 SWAP1 SLOAD SWAP1 PUSH2 0x100 EXP SWAP1 DIV PUSH20 0xFFFFFFFFFFFFFFFFFFFFFFFFFFFFFFFFFFFFFFFF AND SWAP1 DUP1 PUSH1 0x4 ADD DUP1 SLOAD PUSH2 0x665 SWAP1 PUSH2 0xCBF JUMP JUMPDEST DUP1 PUSH1 0x1F ADD PUSH1 0x20 DUP1 SWAP2 DIV MUL PUSH1 0x20 ADD PUSH1 0x40 MLOAD SWAP1 DUP2 ADD PUSH1 0x40 MSTORE DUP1 SWAP3 SWAP2 SWAP1 DUP2 DUP2 MSTORE PUSH1 0x20 ADD DUP3 DUP1 SLOAD PUSH2 0x691 SWAP1 PUSH2 0xCBF JUMP JUMPDEST DUP1 ISZERO PUSH2 0x6DC JUMPI DUP1 PUSH1 0x1F LT PUSH2 0x6B3 JUMPI PUSH2 0x100 DUP1 DUP4 SLOAD DIV MUL DUP4 MSTORE SWAP2 PUSH1 0x20 ADD SWAP2 PUSH2 0x6DC JUMP JUMPDEST DUP3 ADD SWAP2 SWAP1 PUSH0 MSTORE PUSH1 0x20 PUSH0 KECCAK256 SWAP1 JUMPDEST DUP2 SLOAD DUP2 MSTORE SWAP1 PUSH1 0x1 ADD SWAP1 PUSH1 0x20 ADD DUP1 DUP4 GT PUSH2 0x6BF JUMPI DUP3 SWAP1 SUB PUSH1 0x1F AND DUP3 ADD SWAP2 JUMPDEST POP POP POP POP POP SWAP1 POP DUP5 JUMP JUMPDEST PUSH0 PUSH0 PUSH0 SWAP1 SLOAD SWAP1 PUSH2 0x100 EXP SWAP1 DIV PUSH1 0xFF AND PUSH2 0x72B JUMPI PUSH1 0x40 MLOAD PUSH32 0x96639AFF00000000000000000000000000000000000000000000000000000000 DUP2 MSTORE PUSH1 0x4 ADD PUSH1 0x40 MLOAD DUP1 SWAP2 SUB SWAP1 REVERT JUMPDEST PUSH0 CALLER DUP4 TIMESTAMP PUSH1 0x40 MLOAD PUSH1 0x20 ADD PUSH2 0x741 SWAP4 SWAP3 SWAP2 SWAP1 PUSH2 0xFFF JUMP JUMPDEST PUSH1 0x40 MLOAD PUSH1 0x20 DUP2 DUP4 SUB SUB DUP2 MSTORE SWAP1 PUSH1 0x40 MSTORE DUP1 MLOAD SWAP1 PUSH1 0x20 ADD KECCAK256 SWAP1 POP DUP3 PUSH1 0x1 PUSH0 DUP4 DUP2 MSTORE PUSH1 0x20 ADD SWAP1 DUP2 MSTORE PUSH1 0x20 ADD PUSH0 KECCAK256 DUP2 DUP2 PUSH2 0x777 SWAP2 SWAP1 PUSH2 0x17FF JUMP JUMPDEST SWAP1 POP POP DUP1 SWAP2 POP POP SWAP3 SWAP2 POP POP JUMP JUMPDEST PUSH0 PUSH1 0x1 SWAP1 POP SWAP2 SWAP1 POP JUMP JUMPDEST PUSH1 0x40 MLOAD DUP1 PUSH1 0xA0 ADD PUSH1 0x40 MSTORE DUP1 PUSH1 0x60 DUP2 MSTORE PUSH1 0x20 ADD PUSH1 0x60 DUP2 MSTORE PUSH1 0x20 ADD PUSH1 0x60 DUP2 MSTORE PUSH1 0x20 ADD PUSH0 PUSH20 0xFFFFFFFFFFFFFFFFFFFFFFFFFFFFFFFFFFFFFFFF AND DUP2 MSTORE PUSH1 0x20 ADD PUSH1 0x60 DUP2 MSTORE POP SWAP1 JUMP JUMPDEST PUSH0 PUSH0 REVERT JUMPDEST PUSH0 PUSH0 REVERT JUMPDEST PUSH0 DUP2 SWAP1 POP SWAP2 SWAP1 POP JUMP JUMPDEST PUSH2 0x7EC DUP2 PUSH2 0x7DA JUMP JUMPDEST DUP2 EQ PUSH2 0x7F6 JUMPI PUSH0 PUSH0 REVERT JUMPDEST POP JUMP JUMPDEST PUSH0 DUP2 CALLDATALOAD SWAP1 POP PUSH2 0x807 DUP2 PUSH2 0x7E3 JUMP JUMPDEST SWAP3 SWAP2 POP POP JUMP JUMPDEST PUSH0 PUSH1 0x20 DUP3 DUP5 SUB SLT ISZERO PUSH2 0x822 JUMPI PUSH2 0x821 PUSH2 0x7D2 JUMP JUMPDEST JUMPDEST PUSH0 PUSH2 0x82F DUP5 DUP3 DUP6 ADD PUSH2 0x7F9 JUMP JUMPDEST SWAP2 POP POP SWAP3 SWAP2 POP POP JUMP JUMPDEST PUSH0 DUP2 MLOAD SWAP1 POP SWAP2 SWAP1 POP JUMP JUMPDEST PUSH0 DUP3 DUP3 MSTORE PUSH1 0x20 DUP3 ADD SWAP1 POP SWAP3 SWAP2 POP POP JUMP JUMPDEST DUP3 DUP2 DUP4 MCOPY PUSH0 DUP4 DUP4 ADD MSTORE POP POP POP JUMP JUMPDEST PUSH0 PUSH1 0x1F NOT PUSH1 0x1F DUP4 ADD AND SWAP1 POP SWAP2 SWAP1 POP JUMP JUMPDEST PUSH0 PUSH2 0x87A DUP3 PUSH2 0x838 JUMP JUMPDEST PUSH2 0x884 DUP2 DUP6 PUSH2 0x842 JUMP JUMPDEST SWAP4 POP PUSH2 0x894 DUP2 DUP6 PUSH1 0x20 DUP7 ADD PUSH2 0x852 JUMP JUMPDEST PUSH2 0x89D DUP2 PUSH2 0x860 JUMP JUMPDEST DUP5 ADD SWAP2 POP POP SWAP3 SWAP2 POP POP JUMP JUMPDEST PUSH0 DUP2 MLOAD SWAP1 POP SWAP2 SWAP1 POP JUMP JUMPDEST PUSH0 DUP3 DUP3 MSTORE PUSH1 0x20 DUP3 ADD SWAP1 POP SWAP3 SWAP2 POP POP JUMP JUMPDEST PUSH0 DUP2 SWAP1 POP PUSH1 0x20 DUP3 ADD SWAP1 POP SWAP2 SWAP1 POP JUMP JUMPDEST PUSH0 PUSH20 0xFFFFFFFFFFFFFFFFFFFFFFFFFFFFFFFFFFFFFFFF DUP3 AND SWAP1 POP SWAP2 SWAP1 POP JUMP JUMPDEST PUSH0 PUSH2 0x8FA DUP3 PUSH2 0x8D1 JUMP JUMPDEST SWAP1 POP SWAP2 SWAP1 POP JUMP JUMPDEST PUSH2 0x90A DUP2 PUSH2 0x8F0 JUMP JUMPDEST DUP3 MSTORE POP POP JUMP JUMPDEST PUSH0 DUP2 SWAP1 POP SWAP2 SWAP1 POP JUMP JUMPDEST PUSH2 0x922 DUP2 PUSH2 0x910 JUMP JUMPDEST DUP3 MSTORE POP POP JUMP JUMPDEST PUSH1 0x40 DUP3 ADD PUSH0 DUP3 ADD MLOAD PUSH2 0x93C PUSH0 DUP6 ADD DUP3 PUSH2 0x901 JUMP JUMPDEST POP PUSH1 0x20 DUP3 ADD MLOAD PUSH2 0x94F PUSH1 0x20 DUP6 ADD DUP3 PUSH2 0x919 JUMP JUMPDEST POP POP POP POP JUMP JUMPDEST PUSH0 PUSH2 0x960 DUP4 DUP4 PUSH2 0x928 JUMP JUMPDEST PUSH1 0x40 DUP4 ADD SWAP1 POP SWAP3 SWAP2 POP POP JUMP JUMPDEST PUSH0 PUSH1 0x20 DUP3 ADD SWAP1 POP SWAP2 SWAP1 POP JUMP JUMPDEST PUSH0 PUSH2 0x982 DUP3 PUSH2 0x8A8 JUMP JUMPDEST PUSH2 0x98C DUP2 DUP6 PUSH2 0x8B2 JUMP JUMPDEST SWAP4 POP PUSH2 0x997 DUP4 PUSH2 0x8C2 JUMP JUMPDEST DUP1 PUSH0 JUMPDEST DUP4 DUP2 LT ISZERO PUSH2 0x9C7 JUMPI DUP2 MLOAD PUSH2 0x9AE DUP9 DUP3 PUSH2 0x955 JUMP JUMPDEST SWAP8 POP PUSH2 0x9B9 DUP4 PUSH2 0x96C JUMP JUMPDEST SWAP3 POP POP PUSH1 0x1 DUP2 ADD SWAP1 POP PUSH2 0x99A JUMP JUMPDEST POP DUP6 SWAP4 POP POP POP POP SWAP3 SWAP2 POP POP JUMP JUMPDEST PUSH0 PUSH1 0xA0 DUP4 ADD PUSH0 DUP4 ADD MLOAD DUP5 DUP3 SUB PUSH0 DUP7 ADD MSTORE PUSH2 0x9EE DUP3 DUP3 PUSH2 0x870 JUMP JUMPDEST SWAP2 POP POP PUSH1 0x20 DUP4 ADD MLOAD DUP5 DUP3 SUB PUSH1 0x20 DUP7 ADD MSTORE PUSH2 0xA08 DUP3 DUP3 PUSH2 0x870 JUMP JUMPDEST SWAP2 POP POP PUSH1 0x40 DUP4 ADD MLOAD DUP5 DUP3 SUB PUSH1 0x40 DUP7 ADD MSTORE PUSH2 0xA22 DUP3 DUP3 PUSH2 0x978 JUMP JUMPDEST SWAP2 POP POP PUSH1 0x60 DUP4 ADD MLOAD PUSH2 0xA37 PUSH1 0x60 DUP7 ADD DUP3 PUSH2 0x901 JUMP JUMPDEST POP PUSH1 0x80 DUP4 ADD MLOAD DUP5 DUP3 SUB PUSH1 0x80 DUP7 ADD MSTORE PUSH2 0xA4F DUP3 DUP3 PUSH2 0x870 JUMP JUMPDEST SWAP2 POP POP DUP1 SWAP2 POP POP SWAP3 SWAP2 POP POP JUMP JUMPDEST PUSH0 PUSH1 0x20 DUP3 ADD SWAP1 POP DUP2 DUP2 SUB PUSH0 DUP4 ADD MSTORE PUSH2 0xA74 DUP2 DUP5 PUSH2 0x9D4 JUMP JUMPDEST SWAP1 POP SWAP3 SWAP2 POP POP JUMP JUMPDEST PUSH0 PUSH8 0xFFFFFFFFFFFFFFFF DUP3 AND SWAP1 POP SWAP2 SWAP1 POP JUMP JUMPDEST PUSH2 0xA98 DUP2 PUSH2 0xA7C JUMP JUMPDEST DUP2 EQ PUSH2 0xAA2 JUMPI PUSH0 PUSH0 REVERT JUMPDEST POP JUMP JUMPDEST PUSH0 DUP2 CALLDATALOAD SWAP1 POP PUSH2 0xAB3 DUP2 PUSH2 0xA8F JUMP JUMPDEST SWAP3 SWAP2 POP POP JUMP JUMPDEST PUSH0 PUSH0 REVERT JUMPDEST PUSH0 PUSH1 0xA0 DUP3 DUP5 SUB SLT ISZERO PUSH2 0xAD2 JUMPI PUSH2 0xAD1 PUSH2 0xAB9 JUMP JUMPDEST JUMPDEST DUP2 SWAP1 POP SWAP3 SWAP2 POP POP JUMP JUMPDEST PUSH0 PUSH0 PUSH1 0x40 DUP4 DUP6 SUB SLT ISZERO PUSH2 0xAF1 JUMPI PUSH2 0xAF0 PUSH2 0x7D2 JUMP JUMPDEST JUMPDEST PUSH0 PUSH2 0xAFE DUP6 DUP3 DUP7 ADD PUSH2 0xAA5 JUMP JUMPDEST SWAP3 POP POP PUSH1 0x20 DUP4 ADD CALLDATALOAD PUSH8 0xFFFFFFFFFFFFFFFF DUP2 GT ISZERO PUSH2 0xB1F JUMPI PUSH2 0xB1E PUSH2 0x7D6 JUMP JUMPDEST JUMPDEST PUSH2 0xB2B DUP6 DUP3 DUP7 ADD PUSH2 0xABD JUMP JUMPDEST SWAP2 POP POP SWAP3 POP SWAP3 SWAP1 POP JUMP JUMPDEST PUSH2 0xB3E DUP2 PUSH2 0x910 JUMP JUMPDEST DUP3 MSTORE POP POP JUMP JUMPDEST PUSH0 PUSH1 0x20 DUP3 ADD SWAP1 POP PUSH2 0xB57 PUSH0 DUP4 ADD DUP5 PUSH2 0xB35 JUMP JUMPDEST SWAP3 SWAP2 POP POP JUMP JUMPDEST PUSH0 DUP2 ISZERO ISZERO SWAP1 POP SWAP2 SWAP1 POP JUMP JUMPDEST PUSH2 0xB71 DUP2 PUSH2 0xB5D JUMP JUMPDEST DUP3 MSTORE POP POP JUMP JUMPDEST PUSH0 PUSH1 0x20 DUP3 ADD SWAP1 POP PUSH2 0xB8A PUSH0 DUP4 ADD DUP5 PUSH2 0xB68 JUMP JUMPDEST SWAP3 SWAP2 POP POP JUMP JUMPDEST PUSH0 DUP3 DUP3 MSTORE PUSH1 0x20 DUP3 ADD SWAP1 POP SWAP3 SWAP2 POP POP JUMP JUMPDEST PUSH0 PUSH2 0xBAA DUP3 PUSH2 0x838 JUMP JUMPDEST PUSH2 0xBB4 DUP2 DUP6 PUSH2 0xB90 JUMP JUMPDEST SWAP4 POP PUSH2 0xBC4 DUP2 DUP6 PUSH1 0x20 DUP7 ADD PUSH2 0x852 JUMP JUMPDEST PUSH2 0xBCD DUP2 PUSH2 0x860 JUMP JUMPDEST DUP5 ADD SWAP2 POP POP SWAP3 SWAP2 POP POP JUMP JUMPDEST PUSH2 0xBE1 DUP2 PUSH2 0x8F0 JUMP JUMPDEST DUP3 MSTORE POP POP JUMP JUMPDEST PUSH0 PUSH1 0x80 DUP3 ADD SWAP1 POP DUP2 DUP2 SUB PUSH0 DUP4 ADD MSTORE PUSH2 0xBFF DUP2 DUP8 PUSH2 0xBA0 JUMP JUMPDEST SWAP1 POP DUP2 DUP2 SUB PUSH1 0x20 DUP4 ADD MSTORE PUSH2 0xC13 DUP2 DUP7 PUSH2 0xBA0 JUMP JUMPDEST SWAP1 POP PUSH2 0xC22 PUSH1 0x40 DUP4 ADD DUP6 PUSH2 0xBD8 JUMP JUMPDEST DUP2 DUP2 SUB PUSH1 0x60 DUP4 ADD MSTORE PUSH2 0xC34 DUP2 DUP5 PUSH2 0xBA0 JUMP JUMPDEST SWAP1 POP SWAP6 SWAP5 POP POP POP POP POP JUMP JUMPDEST PUSH2 0xC48 DUP2 PUSH2 0x7DA JUMP JUMPDEST DUP3 MSTORE POP POP JUMP JUMPDEST PUSH0 PUSH1 0x20 DUP3 ADD SWAP1 POP PUSH2 0xC61 PUSH0 DUP4 ADD DUP5 PUSH2 0xC3F JUMP JUMPDEST SWAP3 SWAP2 POP POP JUMP JUMPDEST PUSH0 PUSH1 0x20 DUP3 DUP5 SUB SLT ISZERO PUSH2 0xC7C JUMPI PUSH2 0xC7B PUSH2 0x7D2 JUMP JUMPDEST JUMPDEST PUSH0 PUSH2 0xC89 DUP5 DUP3 DUP6 ADD PUSH2 0xAA5 JUMP JUMPDEST SWAP2 POP POP SWAP3 SWAP2 POP POP JUMP JUMPDEST PUSH32 0x4E487B7100000000000000000000000000000000000000000000000000000000 PUSH0 MSTORE PUSH1 0x22 PUSH1 0x4 MSTORE PUSH1 0x24 PUSH0 REVERT JUMPDEST PUSH0 PUSH1 0x2 DUP3 DIV SWAP1 POP PUSH1 0x1 DUP3 AND DUP1 PUSH2 0xCD6 JUMPI PUSH1 0x7F DUP3 AND SWAP2 POP JUMPDEST PUSH1 0x20 DUP3 LT DUP2 SUB PUSH2 0xCE9 JUMPI PUSH2 0xCE8 PUSH2 0xC92 JUMP JUMPDEST JUMPDEST POP SWAP2 SWAP1 POP JUMP JUMPDEST PUSH0 PUSH0 REVERT JUMPDEST PUSH0 PUSH0 REVERT JUMPDEST PUSH0 PUSH0 REVERT JUMPDEST PUSH0 PUSH0 DUP4 CALLDATALOAD PUSH1 0x1 PUSH1 0x20 SUB DUP5 CALLDATASIZE SUB SUB DUP2 SLT PUSH2 0xD17 JUMPI PUSH2 0xD16 PUSH2 0xCF7 JUMP JUMPDEST JUMPDEST DUP4 DUP2 ADD SWAP3 POP DUP3 CALLDATALOAD SWAP2 POP PUSH1 0x20 DUP4 ADD SWAP3 POP PUSH8 0xFFFFFFFFFFFFFFFF DUP3 GT ISZERO PUSH2 0xD3F JUMPI PUSH2 0xD3E PUSH2 0xCEF JUMP JUMPDEST JUMPDEST PUSH1 0x1 DUP3 MUL CALLDATASIZE SUB DUP4 SGT ISZERO PUSH2 0xD55 JUMPI PUSH2 0xD54 PUSH2 0xCF3 JUMP JUMPDEST JUMPDEST POP SWAP3 POP SWAP3 SWAP1 POP JUMP JUMPDEST DUP3 DUP2 DUP4 CALLDATACOPY PUSH0 DUP4 DUP4 ADD MSTORE POP POP POP JUMP JUMPDEST PUSH0 PUSH2 0xD76 DUP4 DUP6 PUSH2 0x842 JUMP JUMPDEST SWAP4 POP PUSH2 0xD83 DUP4 DUP6 DUP5 PUSH2 0xD5D JUMP JUMPDEST PUSH2 0xD8C DUP4 PUSH2 0x860 JUMP JUMPDEST DUP5 ADD SWAP1 POP SWAP4 SWAP3 POP POP POP JUMP JUMPDEST PUSH0 PUSH0 DUP4 CALLDATALOAD PUSH1 0x1 PUSH1 0x20 SUB DUP5 CALLDATASIZE SUB SUB DUP2 SLT PUSH2 0xDB3 JUMPI PUSH2 0xDB2 PUSH2 0xCF7 JUMP JUMPDEST JUMPDEST DUP4 DUP2 ADD SWAP3 POP DUP3 CALLDATALOAD SWAP2 POP PUSH1 0x20 DUP4 ADD SWAP3 POP PUSH8 0xFFFFFFFFFFFFFFFF DUP3 GT ISZERO PUSH2 0xDDB JUMPI PUSH2 0xDDA PUSH2 0xCEF JUMP JUMPDEST JUMPDEST PUSH1 0x40 DUP3 MUL CALLDATASIZE SUB DUP4 SGT ISZERO PUSH2 0xDF1 JUMPI PUSH2 0xDF0 PUSH2 0xCF3 JUMP JUMPDEST JUMPDEST POP SWAP3 POP SWAP3 SWAP1 POP JUMP JUMPDEST PUSH0 DUP2 SWAP1 POP SWAP2 SWAP1 POP JUMP JUMPDEST PUSH2 0xE0B DUP2 PUSH2 0x8F0 JUMP JUMPDEST DUP2 EQ PUSH2 0xE15 JUMPI PUSH0 PUSH0 REVERT JUMPDEST POP JUMP JUMPDEST PUSH0 DUP2 CALLDATALOAD SWAP1 POP PUSH2 0xE26 DUP2 PUSH2 0xE02 JUMP JUMPDEST SWAP3 SWAP2 POP POP JUMP JUMPDEST PUSH0 PUSH2 0xE3A PUSH1 0x20 DUP5 ADD DUP5 PUSH2 0xE18 JUMP JUMPDEST SWAP1 POP SWAP3 SWAP2 POP POP JUMP JUMPDEST PUSH2 0xE4B DUP2 PUSH2 0x910 JUMP JUMPDEST DUP2 EQ PUSH2 0xE55 JUMPI PUSH0 PUSH0 REVERT JUMPDEST POP JUMP JUMPDEST PUSH0 DUP2 CALLDATALOAD SWAP1 POP PUSH2 0xE66 DUP2 PUSH2 0xE42 JUMP JUMPDEST SWAP3 SWAP2 POP POP JUMP JUMPDEST PUSH0 PUSH2 0xE7A PUSH1 0x20 DUP5 ADD DUP5 PUSH2 0xE58 JUMP JUMPDEST SWAP1 POP SWAP3 SWAP2 POP POP JUMP JUMPDEST PUSH1 0x40 DUP3 ADD PUSH2 0xE92 PUSH0 DUP4 ADD DUP4 PUSH2 0xE2C JUMP JUMPDEST PUSH2 0xE9E PUSH0 DUP6 ADD DUP3 PUSH2 0x901 JUMP JUMPDEST POP PUSH2 0xEAC PUSH1 0x20 DUP4 ADD DUP4 PUSH2 0xE6C JUMP JUMPDEST PUSH2 0xEB9 PUSH1 0x20 DUP6 ADD DUP3 PUSH2 0x919 JUMP JUMPDEST POP POP POP POP JUMP JUMPDEST PUSH0 PUSH2 0xECA DUP4 DUP4 PUSH2 0xE82 JUMP JUMPDEST PUSH1 0x40 DUP4 ADD SWAP1 POP SWAP3 SWAP2 POP POP JUMP JUMPDEST PUSH0 DUP3 SWAP1 POP SWAP3 SWAP2 POP POP JUMP JUMPDEST PUSH0 PUSH1 0x40 DUP3 ADD SWAP1 POP SWAP2 SWAP1 POP JUMP JUMPDEST PUSH0 PUSH2 0xEF7 DUP4 DUP6 PUSH2 0x8B2 JUMP JUMPDEST SWAP4 POP PUSH2 0xF02 DUP3 PUSH2 0xDF9 JUMP JUMPDEST DUP1 PUSH0 JUMPDEST DUP6 DUP2 LT ISZERO PUSH2 0xF3A JUMPI PUSH2 0xF17 DUP3 DUP5 PUSH2 0xED6 JUMP JUMPDEST PUSH2 0xF21 DUP9 DUP3 PUSH2 0xEBF JUMP JUMPDEST SWAP8 POP PUSH2 0xF2C DUP4 PUSH2 0xEE0 JUMP JUMPDEST SWAP3 POP POP PUSH1 0x1 DUP2 ADD SWAP1 POP PUSH2 0xF05 JUMP JUMPDEST POP DUP6 SWAP3 POP POP POP SWAP4 SWAP3 POP POP POP JUMP JUMPDEST PUSH0 PUSH1 0xA0 DUP4 ADD PUSH2 0xF58 PUSH0 DUP5 ADD DUP5 PUSH2 0xCFB JUMP JUMPDEST DUP6 DUP4 SUB PUSH0 DUP8 ADD MSTORE PUSH2 0xF6A DUP4 DUP3 DUP5 PUSH2 0xD6B JUMP JUMPDEST SWAP3 POP POP POP PUSH2 0xF7B PUSH1 0x20 DUP5 ADD DUP5 PUSH2 0xCFB JUMP JUMPDEST DUP6 DUP4 SUB PUSH1 0x20 DUP8 ADD MSTORE PUSH2 0xF8E DUP4 DUP3 DUP5 PUSH2 0xD6B JUMP JUMPDEST SWAP3 POP POP POP PUSH2 0xF9F PUSH1 0x40 DUP5 ADD DUP5 PUSH2 0xD97 JUMP JUMPDEST DUP6 DUP4 SUB PUSH1 0x40 DUP8 ADD MSTORE PUSH2 0xFB2 DUP4 DUP3 DUP5 PUSH2 0xEEC JUMP JUMPDEST SWAP3 POP POP POP PUSH2 0xFC3 PUSH1 0x60 DUP5 ADD DUP5 PUSH2 0xE2C JUMP JUMPDEST PUSH2 0xFD0 PUSH1 0x60 DUP7 ADD DUP3 PUSH2 0x901 JUMP JUMPDEST POP PUSH2 0xFDE PUSH1 0x80 DUP5 ADD DUP5 PUSH2 0xCFB JUMP JUMPDEST DUP6 DUP4 SUB PUSH1 0x80 DUP8 ADD MSTORE PUSH2 0xFF1 DUP4 DUP3 DUP5 PUSH2 0xD6B JUMP JUMPDEST SWAP3 POP POP POP DUP1 SWAP2 POP POP SWAP3 SWAP2 POP POP JUMP JUMPDEST PUSH0 PUSH1 0x60 DUP3 ADD SWAP1 POP PUSH2 0x1012 PUSH0 DUP4 ADD DUP7 PUSH2 0xBD8 JUMP JUMPDEST DUP2 DUP2 SUB PUSH1 0x20 DUP4 ADD MSTORE PUSH2 0x1024 DUP2 DUP6 PUSH2 0xF47 JUMP JUMPDEST SWAP1 POP PUSH2 0x1033 PUSH1 0x40 DUP4 ADD DUP5 PUSH2 0xB35 JUMP JUMPDEST SWAP5 SWAP4 POP POP POP POP JUMP JUMPDEST PUSH32 0x4E487B7100000000000000000000000000000000000000000000000000000000 PUSH0 MSTORE PUSH0 PUSH1 0x4 MSTORE PUSH1 0x24 PUSH0 REVERT JUMPDEST PUSH0 PUSH0 REVERT JUMPDEST PUSH0 PUSH0 REVERT JUMPDEST PUSH0 PUSH0 REVERT JUMPDEST PUSH0 PUSH0 DUP4 CALLDATALOAD PUSH1 0x1 PUSH1 0x20 SUB DUP5 CALLDATASIZE SUB SUB DUP2 SLT PUSH2 0x108F JUMPI PUSH2 0x108E PUSH2 0x1067 JUMP JUMPDEST JUMPDEST DUP1 DUP5 ADD SWAP3 POP DUP3 CALLDATALOAD SWAP2 POP PUSH8 0xFFFFFFFFFFFFFFFF DUP3 GT ISZERO PUSH2 0x10B1 JUMPI PUSH2 0x10B0 PUSH2 0x106B JUMP JUMPDEST JUMPDEST PUSH1 0x20 DUP4 ADD SWAP3 POP PUSH1 0x1 DUP3 MUL CALLDATASIZE SUB DUP4 SGT ISZERO PUSH2 0x10CD JUMPI PUSH2 0x10CC PUSH2 0x106F JUMP JUMPDEST JUMPDEST POP SWAP3 POP SWAP3 SWAP1 POP JUMP JUMPDEST PUSH0 DUP3 SWAP1 POP SWAP3 SWAP2 POP POP JUMP JUMPDEST PUSH32 0x4E487B7100000000000000000000000000000000000000000000000000000000 PUSH0 MSTORE PUSH1 0x41 PUSH1 0x4 MSTORE PUSH1 0x24 PUSH0 REVERT JUMPDEST PUSH0 DUP2 SWAP1 POP DUP2 PUSH0 MSTORE PUSH1 0x20 PUSH0 KECCAK256 SWAP1 POP SWAP2 SWAP1 POP JUMP JUMPDEST PUSH0 PUSH1 0x20 PUSH1 0x1F DUP4 ADD DIV SWAP1 POP SWAP2 SWAP1 POP JUMP JUMPDEST PUSH0 DUP3 DUP3 SHL SWAP1 POP SWAP3 SWAP2 POP POP JUMP JUMPDEST PUSH0 PUSH1 0x8 DUP4 MUL PUSH2 0x1168 PUSH32 0xFFFFFFFFFFFFFFFFFFFFFFFFFFFFFFFFFFFFFFFFFFFFFFFFFFFFFFFFFFFFFFFF DUP3 PUSH2 0x112D JUMP JUMPDEST PUSH2 0x1172 DUP7 DUP4 PUSH2 0x112D JUMP JUMPDEST SWAP6 POP DUP1 NOT DUP5 AND SWAP4 POP DUP1 DUP7 AND DUP5 OR SWAP3 POP POP POP SWAP4 SWAP3 POP POP POP JUMP JUMPDEST PUSH0 DUP2 SWAP1 POP SWAP2 SWAP1 POP JUMP JUMPDEST PUSH0 PUSH2 0x11AD PUSH2 0x11A8 PUSH2 0x11A3 DUP5 PUSH2 0x910 JUMP JUMPDEST PUSH2 0x118A JUMP JUMPDEST PUSH2 0x910 JUMP JUMPDEST SWAP1 POP SWAP2 SWAP1 POP JUMP JUMPDEST PUSH0 DUP2 SWAP1 POP SWAP2 SWAP1 POP JUMP JUMPDEST PUSH2 0x11C6 DUP4 PUSH2 0x1193 JUMP JUMPDEST PUSH2 0x11DA PUSH2 0x11D2 DUP3 PUSH2 0x11B4 JUMP JUMPDEST DUP5 DUP5 SLOAD PUSH2 0x1139 JUMP JUMPDEST DUP3 SSTORE POP POP POP POP JUMP JUMPDEST PUSH0 PUSH0 SWAP1 POP SWAP1 JUMP JUMPDEST PUSH2 0x11F1 PUSH2 0x11E2 JUMP JUMPDEST PUSH2 0x11FC DUP2 DUP5 DUP5 PUSH2 0x11BD JUMP JUMPDEST POP POP POP JUMP JUMPDEST JUMPDEST DUP2 DUP2 LT ISZERO PUSH2 0x121F JUMPI PUSH2 0x1214 PUSH0 DUP3 PUSH2 0x11E9 JUMP JUMPDEST PUSH1 0x1 DUP2 ADD SWAP1 POP PUSH2 0x1202 JUMP JUMPDEST POP POP JUMP JUMPDEST PUSH1 0x1F DUP3 GT ISZERO PUSH2 0x1264 JUMPI PUSH2 0x1235 DUP2 PUSH2 0x110C JUMP JUMPDEST PUSH2 0x123E DUP5 PUSH2 0x111E JUMP JUMPDEST DUP2 ADD PUSH1 0x20 DUP6 LT ISZERO PUSH2 0x124D JUMPI DUP2 SWAP1 POP JUMPDEST PUSH2 0x1261 PUSH2 0x1259 DUP6 PUSH2 0x111E JUMP JUMPDEST DUP4 ADD DUP3 PUSH2 0x1201 JUMP JUMPDEST POP POP JUMPDEST POP POP POP JUMP JUMPDEST PUSH0 DUP3 DUP3 SHR SWAP1 POP SWAP3 SWAP2 POP POP JUMP JUMPDEST PUSH0 PUSH2 0x1284 PUSH0 NOT DUP5 PUSH1 0x8 MUL PUSH2 0x1269 JUMP JUMPDEST NOT DUP1 DUP4 AND SWAP2 POP POP SWAP3 SWAP2 POP POP JUMP JUMPDEST PUSH0 PUSH2 0x129C DUP4 DUP4 PUSH2 0x1275 JUMP JUMPDEST SWAP2 POP DUP3 PUSH1 0x2 MUL DUP3 OR SWAP1 POP SWAP3 SWAP2 POP POP JUMP JUMPDEST PUSH2 0x12B6 DUP4 DUP4 PUSH2 0x10D5 JUMP JUMPDEST PUSH8 0xFFFFFFFFFFFFFFFF DUP2 GT ISZERO PUSH2 0x12CF JUMPI PUSH2 0x12CE PUSH2 0x10DF JUMP JUMPDEST JUMPDEST PUSH2 0x12D9 DUP3 SLOAD PUSH2 0xCBF JUMP JUMPDEST PUSH2 0x12E4 DUP3 DUP3 DUP6 PUSH2 0x1223 JUMP JUMPDEST PUSH0 PUSH1 0x1F DUP4 GT PUSH1 0x1 DUP2 EQ PUSH2 0x1311 JUMPI PUSH0 DUP5 ISZERO PUSH2 0x12FF JUMPI DUP3 DUP8 ADD CALLDATALOAD SWAP1 POP JUMPDEST PUSH2 0x1309 DUP6 DUP3 PUSH2 0x1291 JUMP JUMPDEST DUP7 SSTORE POP PUSH2 0x1370 JUMP JUMPDEST PUSH1 0x1F NOT DUP5 AND PUSH2 0x131F DUP7 PUSH2 0x110C JUMP JUMPDEST PUSH0 JUMPDEST DUP3 DUP2 LT ISZERO PUSH2 0x1346 JUMPI DUP5 DUP10 ADD CALLDATALOAD DUP3 SSTORE PUSH1 0x1 DUP3 ADD SWAP2 POP PUSH1 0x20 DUP6 ADD SWAP5 POP PUSH1 0x20 DUP2 ADD SWAP1 POP PUSH2 0x1321 JUMP JUMPDEST DUP7 DUP4 LT ISZERO PUSH2 0x1363 JUMPI DUP5 DUP10 ADD CALLDATALOAD PUSH2 0x135F PUSH1 0x1F DUP10 AND DUP3 PUSH2 0x1275 JUMP JUMPDEST DUP4 SSTORE POP JUMPDEST PUSH1 0x1 PUSH1 0x2 DUP9 MUL ADD DUP9 SSTORE POP POP POP JUMPDEST POP POP POP POP POP POP POP JUMP JUMPDEST PUSH2 0x1384 DUP4 DUP4 DUP4 PUSH2 0x12AC JUMP JUMPDEST POP POP POP JUMP JUMPDEST PUSH0 PUSH0 DUP4 CALLDATALOAD PUSH1 0x1 PUSH1 0x20 SUB DUP5 CALLDATASIZE SUB SUB DUP2 SLT PUSH2 0x13A5 JUMPI PUSH2 0x13A4 PUSH2 0x1067 JUMP JUMPDEST JUMPDEST DUP1 DUP5 ADD SWAP3 POP DUP3 CALLDATALOAD SWAP2 POP PUSH8 0xFFFFFFFFFFFFFFFF DUP3 GT ISZERO PUSH2 0x13C7 JUMPI PUSH2 0x13C6 PUSH2 0x106B JUMP JUMPDEST JUMPDEST PUSH1 0x20 DUP4 ADD SWAP3 POP PUSH1 0x40 DUP3 MUL CALLDATASIZE SUB DUP4 SGT ISZERO PUSH2 0x13E3 JUMPI PUSH2 0x13E2 PUSH2 0x106F JUMP JUMPDEST JUMPDEST POP SWAP3 POP SWAP3 SWAP1 POP JUMP JUMPDEST PUSH0 DUP2 SLOAD SWAP1 POP SWAP2 SWAP1 POP JUMP JUMPDEST PUSH32 0x4E487B7100000000000000000000000000000000000000000000000000000000 PUSH0 MSTORE PUSH1 0x11 PUSH1 0x4 MSTORE PUSH1 0x24 PUSH0 REVERT JUMPDEST PUSH0 PUSH2 0x142C DUP3 PUSH2 0x910 JUMP JUMPDEST SWAP2 POP PUSH2 0x1437 DUP4 PUSH2 0x910 JUMP JUMPDEST SWAP3 POP DUP3 DUP3 MUL PUSH2 0x1445 DUP2 PUSH2 0x910 JUMP JUMPDEST SWAP2 POP DUP3 DUP3 DIV DUP5 EQ DUP4 ISZERO OR PUSH2 0x145C JUMPI PUSH2 0x145B PUSH2 0x13F5 JUMP JUMPDEST JUMPDEST POP SWAP3 SWAP2 POP POP JUMP JUMPDEST PUSH0 DUP2 SWAP1 POP PUSH2 0x1472 DUP3 PUSH1 0x2 PUSH2 0x1422 JUMP JUMPDEST SWAP1 POP SWAP2 SWAP1 POP JUMP JUMPDEST PUSH0 DUP2 SWAP1 POP DUP2 PUSH0 MSTORE PUSH1 0x20 PUSH0 KECCAK256 SWAP1 POP SWAP2 SWAP1 POP JUMP JUMPDEST PUSH0 PUSH0 DUP3 ADD SSTORE PUSH2 0x149D PUSH0 PUSH1 0x1 DUP4 ADD PUSH2 0x11E9 JUMP JUMPDEST POP JUMP JUMPDEST PUSH0 DUP3 EQ PUSH2 0x14B0 JUMPI PUSH2 0x14AF PUSH2 0x103B JUMP JUMPDEST JUMPDEST PUSH2 0x14B9 DUP2 PUSH2 0x148B JUMP JUMPDEST POP POP JUMP JUMPDEST JUMPDEST DUP2 DUP2 LT ISZERO PUSH2 0x14DB JUMPI PUSH2 0x14D0 PUSH0 DUP3 PUSH2 0x14A0 JUMP JUMPDEST PUSH1 0x2 DUP2 ADD SWAP1 POP PUSH2 0x14BE JUMP JUMPDEST POP POP JUMP JUMPDEST DUP2 DUP4 LT ISZERO PUSH2 0x1518 JUMPI PUSH2 0x14F0 DUP3 PUSH2 0x1463 JUMP JUMPDEST PUSH2 0x14F9 DUP5 PUSH2 0x1463 JUMP JUMPDEST PUSH2 0x1502 DUP4 PUSH2 0x1479 JUMP JUMPDEST DUP2 DUP2 ADD DUP4 DUP3 ADD PUSH2 0x1512 DUP2 DUP4 PUSH2 0x14BD JUMP JUMPDEST POP POP POP POP POP JUMPDEST POP POP POP JUMP JUMPDEST PUSH9 0x10000000000000000 DUP3 GT ISZERO PUSH2 0x1537 JUMPI PUSH2 0x1536 PUSH2 0x10DF JUMP JUMPDEST JUMPDEST PUSH2 0x1540 DUP2 PUSH2 0x13EB JUMP JUMPDEST DUP3 DUP3 SSTORE PUSH2 0x154E DUP4 DUP3 DUP5 PUSH2 0x14DF JUMP JUMPDEST POP POP POP JUMP JUMPDEST PUSH0 DUP3 SWAP1 POP SWAP3 SWAP2 POP POP JUMP JUMPDEST PUSH0 DUP2 CALLDATALOAD PUSH2 0x1569 DUP2 PUSH2 0xE02 JUMP JUMPDEST DUP1 SWAP2 POP POP SWAP2 SWAP1 POP JUMP JUMPDEST PUSH0 DUP2 PUSH0 SHL SWAP1 POP SWAP2 SWAP1 POP JUMP JUMPDEST PUSH0 PUSH20 0xFFFFFFFFFFFFFFFFFFFFFFFFFFFFFFFFFFFFFFFF PUSH2 0x159C DUP5 PUSH2 0x1572 JUMP JUMPDEST SWAP4 POP DUP1 NOT DUP4 AND SWAP3 POP DUP1 DUP5 AND DUP4 OR SWAP2 POP POP SWAP3 SWAP2 POP POP JUMP JUMPDEST PUSH0 PUSH2 0x15CC PUSH2 0x15C7 PUSH2 0x15C2 DUP5 PUSH2 0x8D1 JUMP JUMPDEST PUSH2 0x118A JUMP JUMPDEST PUSH2 0x8D1 JUMP JUMPDEST SWAP1 POP SWAP2 SWAP1 POP JUMP JUMPDEST PUSH0 PUSH2 0x15DD DUP3 PUSH2 0x15B2 JUMP JUMPDEST SWAP1 POP SWAP2 SWAP1 POP JUMP JUMPDEST PUSH0 PUSH2 0x15EE DUP3 PUSH2 0x15D3 JUMP JUMPDEST SWAP1 POP SWAP2 SWAP1 POP JUMP JUMPDEST PUSH0 DUP2 SWAP1 POP SWAP2 SWAP1 POP JUMP JUMPDEST PUSH2 0x1607 DUP3 PUSH2 0x15E4 JUMP JUMPDEST PUSH2 0x161A PUSH2 0x1613 DUP3 PUSH2 0x15F5 JUMP JUMPDEST DUP4 SLOAD PUSH2 0x157D JUMP JUMPDEST DUP3 SSTORE POP POP POP JUMP JUMPDEST PUSH0 DUP2 CALLDATALOAD PUSH2 0x162D DUP2 PUSH2 0xE42 JUMP JUMPDEST DUP1 SWAP2 POP POP SWAP2 SWAP1 POP JUMP JUMPDEST PUSH0 PUSH32 0xFFFFFFFFFFFFFFFFFFFFFFFFFFFFFFFFFFFFFFFFFFFFFFFFFFFFFFFFFFFFFFFF PUSH2 0x1661 DUP5 PUSH2 0x1572 JUMP JUMPDEST SWAP4 POP DUP1 NOT DUP4 AND SWAP3 POP DUP1 DUP5 AND DUP4 OR SWAP2 POP POP SWAP3 SWAP2 POP POP JUMP JUMPDEST PUSH2 0x1680 DUP3 PUSH2 0x1193 JUMP JUMPDEST PUSH2 0x1693 PUSH2 0x168C DUP3 PUSH2 0x11B4 JUMP JUMPDEST DUP4 SLOAD PUSH2 0x1636 JUMP JUMPDEST DUP3 SSTORE POP POP POP JUMP JUMPDEST PUSH0 DUP2 ADD PUSH0 DUP4 ADD DUP1 PUSH2 0x16AA DUP2 PUSH2 0x155D JUMP JUMPDEST SWAP1 POP PUSH2 0x16B6 DUP2 DUP5 PUSH2 0x15FE JUMP JUMPDEST POP POP POP PUSH1 0x1 DUP2 ADD PUSH1 0x20 DUP4 ADD DUP1 PUSH2 0x16CB DUP2 PUSH2 0x1621 JUMP JUMPDEST SWAP1 POP PUSH2 0x16D7 DUP2 DUP5 PUSH2 0x1677 JUMP JUMPDEST POP POP POP POP POP JUMP JUMPDEST PUSH2 0x16E8 DUP3 DUP3 PUSH2 0x169A JUMP JUMPDEST POP POP JUMP JUMPDEST PUSH2 0x16F6 DUP4 DUP4 PUSH2 0x1553 JUMP JUMPDEST PUSH2 0x1700 DUP2 DUP4 PUSH2 0x151D JUMP JUMPDEST PUSH2 0x1709 DUP4 PUSH2 0xDF9 JUMP JUMPDEST PUSH2 0x1712 DUP4 PUSH2 0x1479 JUMP JUMPDEST PUSH0 JUMPDEST DUP4 DUP2 LT ISZERO PUSH2 0x173F JUMPI DUP3 PUSH2 0x1727 DUP2 DUP5 PUSH2 0x16DE JUMP JUMPDEST PUSH1 0x40 DUP5 ADD SWAP4 POP PUSH1 0x2 DUP4 ADD SWAP3 POP POP PUSH1 0x1 DUP2 ADD SWAP1 POP PUSH2 0x1714 JUMP JUMPDEST POP POP POP POP POP POP POP JUMP JUMPDEST PUSH2 0x1753 DUP4 DUP4 DUP4 PUSH2 0x16EC JUMP JUMPDEST POP POP POP JUMP JUMPDEST PUSH0 DUP2 ADD PUSH0 DUP4 ADD PUSH2 0x1768 DUP2 DUP6 PUSH2 0x1073 JUMP JUMPDEST PUSH2 0x1773 DUP2 DUP4 DUP7 PUSH2 0x1379 JUMP JUMPDEST POP POP POP POP PUSH1 0x1 DUP2 ADD PUSH1 0x20 DUP4 ADD PUSH2 0x1789 DUP2 DUP6 PUSH2 0x1073 JUMP JUMPDEST PUSH2 0x1794 DUP2 DUP4 DUP7 PUSH2 0x1379 JUMP JUMPDEST POP POP POP POP PUSH1 0x2 DUP2 ADD PUSH1 0x40 DUP4 ADD PUSH2 0x17AA DUP2 DUP6 PUSH2 0x1389 JUMP JUMPDEST PUSH2 0x17B5 DUP2 DUP4 DUP7 PUSH2 0x1748 JUMP JUMPDEST POP POP POP POP PUSH1 0x3 DUP2 ADD PUSH1 0x60 DUP4 ADD DUP1 PUSH2 0x17CB DUP2 PUSH2 0x155D JUMP JUMPDEST SWAP1 POP PUSH2 0x17D7 DUP2 DUP5 PUSH2 0x15FE JUMP JUMPDEST POP POP POP PUSH1 0x4 DUP2 ADD PUSH1 0x80 DUP4 ADD PUSH2 0x17EC DUP2 DUP6 PUSH2 0x1073 JUMP JUMPDEST PUSH2 0x17F7 DUP2 DUP4 DUP7 PUSH2 0x1379 JUMP JUMPDEST POP POP POP POP POP POP JUMP JUMPDEST PUSH2 0x1809 DUP3 DUP3 PUSH2 0x1758 JUMP JUMPDEST POP POP JUMP INVALID LOG2 PUSH5 0x6970667358 0x22 SLT KECCAK256 PUSH23 0x7B7ED035BADDB58342FAD1F81662A68B9C83EBFAF7D13A 0xE9 0xD8 0xC5 KECCAK256 PUSH5 0x589D1E6473 PUSH16 0x6C634300081C00330000000000000000 "
				},
				"gasEstimates": {
					"creation": {
						"codeDepositCost": "1242200",
						"executionCost": "25558",
						"totalCost": "1267758"
					},
					"external": {
						"ccipSend(uint64,(bytes,bytes,(address,uint256)[],address,bytes))": "infinite",
						"getFee(uint64,(bytes,bytes,(address,uint256)[],address,bytes))": "784",
						"getSentMessage(bytes32)": "infinite",
						"isChainSupported(uint64)": "671",
						"isEnabled()": "2465",
						"sentMessages(bytes32)": "infinite",
						"toggleRouter()": "26568"
					}
				},
				"methodIdentifiers": {
					"ccipSend(uint64,(bytes,bytes,(address,uint256)[],address,bytes))": "96f4e9f9",
					"getFee(uint64,(bytes,bytes,(address,uint256)[],address,bytes))": "20487ded",
					"getSentMessage(bytes32)": "1683d0f4",
					"isChainSupported(uint64)": "a48a9058",
					"isEnabled()": "6aa633b6",
					"sentMessages(bytes32)": "82e3702d",
					"toggleRouter()": "18e8a501"
				}
			},
			"storageLayout": {
				"storage": [
					{
						"astId": 131,
						"contract": "contracts/flibber/router.sol:MockRouter",
						"label": "isEnabled",
						"offset": 0,
						"slot": "0",
						"type": "t_bool"
					},
					{
						"astId": 136,
						"contract": "contracts/flibber/router.sol:MockRouter",
						"label": "sentMessages",
						"offset": 0,
						"slot": "1",
						"type": "t_mapping(t_bytes32,t_struct(EVM2AnyMessage)76_storage)"
					}
				],
				"types": {
					"t_address": {
						"encoding": "inplace",
						"label": "address",
						"numberOfBytes": "20"
					},
					"t_array(t_struct(EVMTokenAmount)50_storage)dyn_storage": {
						"base": "t_struct(EVMTokenAmount)50_storage",
						"encoding": "dynamic_array",
						"label": "struct Client.EVMTokenAmount[]",
						"numberOfBytes": "32"
					},
					"t_bool": {
						"encoding": "inplace",
						"label": "bool",
						"numberOfBytes": "1"
					},
					"t_bytes32": {
						"encoding": "inplace",
						"label": "bytes32",
						"numberOfBytes": "32"
					},
					"t_bytes_storage": {
						"encoding": "bytes",
						"label": "bytes",
						"numberOfBytes": "32"
					},
					"t_mapping(t_bytes32,t_struct(EVM2AnyMessage)76_storage)": {
						"encoding": "mapping",
						"key": "t_bytes32",
						"label": "mapping(bytes32 => struct Client.EVM2AnyMessage)",
						"numberOfBytes": "32",
						"value": "t_struct(EVM2AnyMessage)76_storage"
					},
					"t_struct(EVM2AnyMessage)76_storage": {
						"encoding": "inplace",
						"label": "struct Client.EVM2AnyMessage",
						"members": [
							{
								"astId": 65,
								"contract": "contracts/flibber/router.sol:MockRouter",
								"label": "receiver",
								"offset": 0,
								"slot": "0",
								"type": "t_bytes_storage"
							},
							{
								"astId": 67,
								"contract": "contracts/flibber/router.sol:MockRouter",
								"label": "data",
								"offset": 0,
								"slot": "1",
								"type": "t_bytes_storage"
							},
							{
								"astId": 71,
								"contract": "contracts/flibber/router.sol:MockRouter",
								"label": "tokenAmounts",
								"offset": 0,
								"slot": "2",
								"type": "t_array(t_struct(EVMTokenAmount)50_storage)dyn_storage"
							},
							{
								"astId": 73,
								"contract": "contracts/flibber/router.sol:MockRouter",
								"label": "feeToken",
								"offset": 0,
								"slot": "3",
								"type": "t_address"
							},
							{
								"astId": 75,
								"contract": "contracts/flibber/router.sol:MockRouter",
								"label": "extraArgs",
								"offset": 0,
								"slot": "4",
								"type": "t_bytes_storage"
							}
						],
						"numberOfBytes": "160"
					},
					"t_struct(EVMTokenAmount)50_storage": {
						"encoding": "inplace",
						"label": "struct Client.EVMTokenAmount",
						"members": [
							{
								"astId": 47,
								"contract": "contracts/flibber/router.sol:MockRouter",
								"label": "token",
								"offset": 0,
								"slot": "0",
								"type": "t_address"
							},
							{
								"astId": 49,
								"contract": "contracts/flibber/router.sol:MockRouter",
								"label": "amount",
								"offset": 0,
								"slot": "1",
								"type": "t_uint256"
							}
						],
						"numberOfBytes": "64"
					},
					"t_uint256": {
						"encoding": "inplace",
						"label": "uint256",
						"numberOfBytes": "32"
					}
				}
			},
			"userdoc": {
				"kind": "user",
				"methods": {},
				"version": 1
			}
		}
	}
}