{
	"contracts/flibber/flibberToken.sol": {
		"FIBToken": {
			"abi": [
				{
					"inputs": [
						{
							"internalType": "address",
							"name": "initialOwner",
							"type": "address"
						},
						{
							"internalType": "address",
							"name": "_priceFeedAddress",
							"type": "address"
						}
					],
					"stateMutability": "nonpayable",
					"type": "constructor"
				},
				{
					"inputs": [
						{
							"internalType": "address",
							"name": "spender",
							"type": "address"
						},
						{
							"internalType": "uint256",
							"name": "allowance",
							"type": "uint256"
						},
						{
							"internalType": "uint256",
							"name": "needed",
							"type": "uint256"
						}
					],
					"name": "ERC20InsufficientAllowance",
					"type": "error"
				},
				{
					"inputs": [
						{
							"internalType": "address",
							"name": "sender",
							"type": "address"
						},
						{
							"internalType": "uint256",
							"name": "balance",
							"type": "uint256"
						},
						{
							"internalType": "uint256",
							"name": "needed",
							"type": "uint256"
						}
					],
					"name": "ERC20InsufficientBalance",
					"type": "error"
				},
				{
					"inputs": [
						{
							"internalType": "address",
							"name": "approver",
							"type": "address"
						}
					],
					"name": "ERC20InvalidApprover",
					"type": "error"
				},
				{
					"inputs": [
						{
							"internalType": "address",
							"name": "receiver",
							"type": "address"
						}
					],
					"name": "ERC20InvalidReceiver",
					"type": "error"
				},
				{
					"inputs": [
						{
							"internalType": "address",
							"name": "sender",
							"type": "address"
						}
					],
					"name": "ERC20InvalidSender",
					"type": "error"
				},
				{
					"inputs": [
						{
							"internalType": "address",
							"name": "spender",
							"type": "address"
						}
					],
					"name": "ERC20InvalidSpender",
					"type": "error"
				},
				{
					"inputs": [
						{
							"internalType": "address",
							"name": "owner",
							"type": "address"
						}
					],
					"name": "OwnableInvalidOwner",
					"type": "error"
				},
				{
					"inputs": [
						{
							"internalType": "address",
							"name": "account",
							"type": "address"
						}
					],
					"name": "OwnableUnauthorizedAccount",
					"type": "error"
				},
				{
					"anonymous": false,
					"inputs": [
						{
							"indexed": true,
							"internalType": "address",
							"name": "owner",
							"type": "address"
						},
						{
							"indexed": true,
							"internalType": "address",
							"name": "spender",
							"type": "address"
						},
						{
							"indexed": false,
							"internalType": "uint256",
							"name": "value",
							"type": "uint256"
						}
					],
					"name": "Approval",
					"type": "event"
				},
				{
					"anonymous": false,
					"inputs": [
						{
							"indexed": false,
							"internalType": "address",
							"name": "recipient",
							"type": "address"
						},
						{
							"indexed": false,
							"internalType": "uint256",
							"name": "amount",
							"type": "uint256"
						}
					],
					"name": "FaucetDispensed",
					"type": "event"
				},
				{
					"anonymous": false,
					"inputs": [
						{
							"indexed": true,
							"internalType": "address",
							"name": "previousOwner",
							"type": "address"
						},
						{
							"indexed": true,
							"internalType": "address",
							"name": "newOwner",
							"type": "address"
						}
					],
					"name": "OwnershipTransferred",
					"type": "event"
				},
				{
					"anonymous": false,
					"inputs": [
						{
							"indexed": false,
							"internalType": "address",
							"name": "buyer",
							"type": "address"
						},
						{
							"indexed": false,
							"internalType": "uint256",
							"name": "amount",
							"type": "uint256"
						},
						{
							"indexed": false,
							"internalType": "uint256",
							"name": "cost",
							"type": "uint256"
						}
					],
					"name": "TokensPurchased",
					"type": "event"
				},
				{
					"anonymous": false,
					"inputs": [
						{
							"indexed": false,
							"internalType": "address",
							"name": "seller",
							"type": "address"
						},
						{
							"indexed": false,
							"internalType": "uint256",
							"name": "amount",
							"type": "uint256"
						},
						{
							"indexed": false,
							"internalType": "uint256",
							"name": "payment",
							"type": "uint256"
						}
					],
					"name": "TokensSold",
					"type": "event"
				},
				{
					"anonymous": false,
					"inputs": [
						{
							"indexed": true,
							"internalType": "address",
							"name": "from",
							"type": "address"
						},
						{
							"indexed": true,
							"internalType": "address",
							"name": "to",
							"type": "address"
						},
						{
							"indexed": false,
							"internalType": "uint256",
							"name": "value",
							"type": "uint256"
						}
					],
					"name": "Transfer",
					"type": "event"
				},
				{
					"inputs": [],
					"name": "FAUCET_AMOUNT",
					"outputs": [
						{
							"internalType": "uint256",
							"name": "",
							"type": "uint256"
						}
					],
					"stateMutability": "view",
					"type": "function"
				},
				{
					"inputs": [],
					"name": "FAUCET_COOLDOWN",
					"outputs": [
						{
							"internalType": "uint256",
							"name": "",
							"type": "uint256"
						}
					],
					"stateMutability": "view",
					"type": "function"
				},
				{
					"inputs": [],
					"name": "TOKEN_PRICE_USD",
					"outputs": [
						{
							"internalType": "uint256",
							"name": "",
							"type": "uint256"
						}
					],
					"stateMutability": "view",
					"type": "function"
				},
				{
					"inputs": [
						{
							"internalType": "address",
							"name": "owner",
							"type": "address"
						},
						{
							"internalType": "address",
							"name": "spender",
							"type": "address"
						}
					],
					"name": "allowance",
					"outputs": [
						{
							"internalType": "uint256",
							"name": "",
							"type": "uint256"
						}
					],
					"stateMutability": "view",
					"type": "function"
				},
				{
					"inputs": [
						{
							"internalType": "address",
							"name": "spender",
							"type": "address"
						},
						{
							"internalType": "uint256",
							"name": "value",
							"type": "uint256"
						}
					],
					"name": "approve",
					"outputs": [
						{
							"internalType": "bool",
							"name": "",
							"type": "bool"
						}
					],
					"stateMutability": "nonpayable",
					"type": "function"
				},
				{
					"inputs": [
						{
							"internalType": "address",
							"name": "account",
							"type": "address"
						}
					],
					"name": "balanceOf",
					"outputs": [
						{
							"internalType": "uint256",
							"name": "",
							"type": "uint256"
						}
					],
					"stateMutability": "view",
					"type": "function"
				},
				{
					"inputs": [
						{
							"internalType": "uint256",
							"name": "value",
							"type": "uint256"
						}
					],
					"name": "burn",
					"outputs": [],
					"stateMutability": "nonpayable",
					"type": "function"
				},
				{
					"inputs": [
						{
							"internalType": "address",
							"name": "account",
							"type": "address"
						},
						{
							"internalType": "uint256",
							"name": "value",
							"type": "uint256"
						}
					],
					"name": "burnFrom",
					"outputs": [],
					"stateMutability": "nonpayable",
					"type": "function"
				},
				{
					"inputs": [],
					"name": "buyTokens",
					"outputs": [],
					"stateMutability": "payable",
					"type": "function"
				},
				{
					"inputs": [],
					"name": "decimals",
					"outputs": [
						{
							"internalType": "uint8",
							"name": "",
							"type": "uint8"
						}
					],
					"stateMutability": "view",
					"type": "function"
				},
				{
					"inputs": [
						{
							"internalType": "uint256",
							"name": "amount",
							"type": "uint256"
						}
					],
					"name": "fundFaucet",
					"outputs": [],
					"stateMutability": "nonpayable",
					"type": "function"
				},
				{
					"inputs": [],
					"name": "getLatestPrice",
					"outputs": [
						{
							"internalType": "uint256",
							"name": "",
							"type": "uint256"
						}
					],
					"stateMutability": "view",
					"type": "function"
				},
				{
					"inputs": [
						{
							"internalType": "uint256",
							"name": "ethAmount",
							"type": "uint256"
						}
					],
					"name": "getTokenAmount",
					"outputs": [
						{
							"internalType": "uint256",
							"name": "",
							"type": "uint256"
						}
					],
					"stateMutability": "view",
					"type": "function"
				},
				{
					"inputs": [
						{
							"internalType": "address",
							"name": "",
							"type": "address"
						}
					],
					"name": "lastFaucetRequest",
					"outputs": [
						{
							"internalType": "uint256",
							"name": "",
							"type": "uint256"
						}
					],
					"stateMutability": "view",
					"type": "function"
				},
				{
					"inputs": [
						{
							"internalType": "address",
							"name": "to",
							"type": "address"
						},
						{
							"internalType": "uint256",
							"name": "amount",
							"type": "uint256"
						}
					],
					"name": "mint",
					"outputs": [],
					"stateMutability": "nonpayable",
					"type": "function"
				},
				{
					"inputs": [],
					"name": "name",
					"outputs": [
						{
							"internalType": "string",
							"name": "",
							"type": "string"
						}
					],
					"stateMutability": "view",
					"type": "function"
				},
				{
					"inputs": [],
					"name": "owner",
					"outputs": [
						{
							"internalType": "address",
							"name": "",
							"type": "address"
						}
					],
					"stateMutability": "view",
					"type": "function"
				},
				{
					"inputs": [],
					"name": "renounceOwnership",
					"outputs": [],
					"stateMutability": "nonpayable",
					"type": "function"
				},
				{
					"inputs": [],
					"name": "requestFaucet",
					"outputs": [],
					"stateMutability": "nonpayable",
					"type": "function"
				},
				{
					"inputs": [
						{
							"internalType": "uint256",
							"name": "tokenAmount",
							"type": "uint256"
						}
					],
					"name": "sellTokens",
					"outputs": [],
					"stateMutability": "nonpayable",
					"type": "function"
				},
				{
					"inputs": [
						{
							"internalType": "address",
							"name": "newPriceFeed",
							"type": "address"
						}
					],
					"name": "setPriceFeed",
					"outputs": [],
					"stateMutability": "nonpayable",
					"type": "function"
				},
				{
					"inputs": [],
					"name": "symbol",
					"outputs": [
						{
							"internalType": "string",
							"name": "",
							"type": "string"
						}
					],
					"stateMutability": "view",
					"type": "function"
				},
				{
					"inputs": [
						{
							"internalType": "address",
							"name": "user",
							"type": "address"
						}
					],
					"name": "timeUntilNextFaucet",
					"outputs": [
						{
							"internalType": "uint256",
							"name": "",
							"type": "uint256"
						}
					],
					"stateMutability": "view",
					"type": "function"
				},
				{
					"inputs": [],
					"name": "totalSupply",
					"outputs": [
						{
							"internalType": "uint256",
							"name": "",
							"type": "uint256"
						}
					],
					"stateMutability": "view",
					"type": "function"
				},
				{
					"inputs": [
						{
							"internalType": "address",
							"name": "to",
							"type": "address"
						},
						{
							"internalType": "uint256",
							"name": "value",
							"type": "uint256"
						}
					],
					"name": "transfer",
					"outputs": [
						{
							"internalType": "bool",
							"name": "",
							"type": "bool"
						}
					],
					"stateMutability": "nonpayable",
					"type": "function"
				},
				{
					"inputs": [
						{
							"internalType": "address",
							"name": "from",
							"type": "address"
						},
						{
							"internalType": "address",
							"name": "to",
							"type": "address"
						},
						{
							"internalType": "uint256",
							"name": "value",
							"type": "uint256"
						}
					],
					"name": "transferFrom",
					"outputs": [
						{
							"internalType": "bool",
							"name": "",
							"type": "bool"
						}
					],
					"stateMutability": "nonpayable",
					"type": "function"
				},
				{
					"inputs": [
						{
							"internalType": "address",
							"name": "newOwner",
							"type": "address"
						}
					],
					"name": "transferOwnership",
					"outputs": [],
					"stateMutability": "nonpayable",
					"type": "function"
				},
				{
					"inputs": [],
					"name": "withdrawETH",
					"outputs": [],
					"stateMutability": "nonpayable",
					"type": "function"
				},
				{
					"stateMutability": "payable",
					"type": "receive"
				}
			],
			"devdoc": {
				"errors": {
					"ERC20InsufficientAllowance(address,uint256,uint256)": [
						{
							"details": "Indicates a failure with the `spender`’s `allowance`. Used in transfers.",
							"params": {
								"allowance": "Amount of tokens a `spender` is allowed to operate with.",
								"needed": "Minimum amount required to perform a transfer.",
								"spender": "Address that may be allowed to operate on tokens without being their owner."
							}
						}
					],
					"ERC20InsufficientBalance(address,uint256,uint256)": [
						{
							"details": "Indicates an error related to the current `balance` of a `sender`. Used in transfers.",
							"params": {
								"balance": "Current balance for the interacting account.",
								"needed": "Minimum amount required to perform a transfer.",
								"sender": "Address whose tokens are being transferred."
							}
						}
					],
					"ERC20InvalidApprover(address)": [
						{
							"details": "Indicates a failure with the `approver` of a token to be approved. Used in approvals.",
							"params": {
								"approver": "Address initiating an approval operation."
							}
						}
					],
					"ERC20InvalidReceiver(address)": [
						{
							"details": "Indicates a failure with the token `receiver`. Used in transfers.",
							"params": {
								"receiver": "Address to which tokens are being transferred."
							}
						}
					],
					"ERC20InvalidSender(address)": [
						{
							"details": "Indicates a failure with the token `sender`. Used in transfers.",
							"params": {
								"sender": "Address whose tokens are being transferred."
							}
						}
					],
					"ERC20InvalidSpender(address)": [
						{
							"details": "Indicates a failure with the `spender` to be approved. Used in approvals.",
							"params": {
								"spender": "Address that may be allowed to operate on tokens without being their owner."
							}
						}
					],
					"OwnableInvalidOwner(address)": [
						{
							"details": "The owner is not a valid owner account. (eg. `address(0)`)"
						}
					],
					"OwnableUnauthorizedAccount(address)": [
						{
							"details": "The caller account is not authorized to perform an operation."
						}
					]
				},
				"events": {
					"Approval(address,address,uint256)": {
						"details": "Emitted when the allowance of a `spender` for an `owner` is set by a call to {approve}. `value` is the new allowance."
					},
					"Transfer(address,address,uint256)": {
						"details": "Emitted when `value` tokens are moved from one account (`from`) to another (`to`). Note that `value` may be zero."
					}
				},
				"kind": "dev",
				"methods": {
					"allowance(address,address)": {
						"details": "See {IERC20-allowance}."
					},
					"approve(address,uint256)": {
						"details": "See {IERC20-approve}. NOTE: If `value` is the maximum `uint256`, the allowance is not updated on `transferFrom`. This is semantically equivalent to an infinite approval. Requirements: - `spender` cannot be the zero address."
					},
					"balanceOf(address)": {
						"details": "See {IERC20-balanceOf}."
					},
					"burn(uint256)": {
						"details": "Destroys a `value` amount of tokens from the caller. See {ERC20-_burn}."
					},
					"burnFrom(address,uint256)": {
						"details": "Destroys a `value` amount of tokens from `account`, deducting from the caller's allowance. See {ERC20-_burn} and {ERC20-allowance}. Requirements: - the caller must have allowance for ``accounts``'s tokens of at least `value`."
					},
					"decimals()": {
						"details": "Returns the number of decimals used to get its user representation. For example, if `decimals` equals `2`, a balance of `505` tokens should be displayed to a user as `5.05` (`505 / 10 ** 2`). Tokens usually opt for a value of 18, imitating the relationship between Ether and Wei. This is the default value returned by this function, unless it's overridden. NOTE: This information is only used for _display_ purposes: it in no way affects any of the arithmetic of the contract, including {IERC20-balanceOf} and {IERC20-transfer}."
					},
					"name()": {
						"details": "Returns the name of the token."
					},
					"owner()": {
						"details": "Returns the address of the current owner."
					},
					"renounceOwnership()": {
						"details": "Leaves the contract without owner. It will not be possible to call `onlyOwner` functions. Can only be called by the current owner. NOTE: Renouncing ownership will leave the contract without an owner, thereby disabling any functionality that is only available to the owner."
					},
					"symbol()": {
						"details": "Returns the symbol of the token, usually a shorter version of the name."
					},
					"totalSupply()": {
						"details": "See {IERC20-totalSupply}."
					},
					"transfer(address,uint256)": {
						"details": "See {IERC20-transfer}. Requirements: - `to` cannot be the zero address. - the caller must have a balance of at least `value`."
					},
					"transferFrom(address,address,uint256)": {
						"details": "See {IERC20-transferFrom}. Skips emitting an {Approval} event indicating an allowance update. This is not required by the ERC. See {xref-ERC20-_approve-address-address-uint256-bool-}[_approve]. NOTE: Does not update the allowance if the current allowance is the maximum `uint256`. Requirements: - `from` and `to` cannot be the zero address. - `from` must have a balance of at least `value`. - the caller must have allowance for ``from``'s tokens of at least `value`."
					},
					"transferOwnership(address)": {
						"details": "Transfers ownership of the contract to a new account (`newOwner`). Can only be called by the current owner."
					}
				},
				"version": 1
			},
			"evm": {
				"assembly": "    /* \"contracts/flibber/flibberToken.sol\":327:4666  contract FIBToken is ERC20, ERC20Burnable, Ownable {... */\n  mstore(0x40, 0x80)\n    /* \"contracts/flibber/flibberToken.sol\":1018:1272  constructor(... */\n  callvalue\n  dup1\n  iszero\n  tag_1\n  jumpi\n  0x00\n  dup1\n  revert\ntag_1:\n  pop\n  mload(0x40)\n  sub(codesize, bytecodeSize)\n  dup1\n  bytecodeSize\n  dup4\n  codecopy\n  dup2\n  dup2\n  add\n  0x40\n  mstore\n  dup2\n  add\n  swap1\n  tag_2\n  swap2\n  swap1\n  tag_3\n  jump\t// in\ntag_2:\n    /* \"contracts/flibber/flibberToken.sol\":1134:1146  initialOwner */\n  dup2\n    /* \"@openzeppelin/contracts/token/ERC20/ERC20.sol\":1601:1714  constructor(string memory name_, string memory symbol_) {... */\n  mload(0x40)\n  dup1\n  0x40\n  add\n  0x40\n  mstore\n  dup1\n  0x07\n  dup2\n  mstore\n  0x20\n  add\n  0x464c494242455200000000000000000000000000000000000000000000000000\n  dup2\n  mstore\n  pop\n  mload(0x40)\n  dup1\n  0x40\n  add\n  0x40\n  mstore\n  dup1\n  0x04\n  dup2\n  mstore\n  0x20\n  add\n  0x2446494200000000000000000000000000000000000000000000000000000000\n  dup2\n  mstore\n  pop\n    /* \"@openzeppelin/contracts/token/ERC20/ERC20.sol\":1675:1680  name_ */\n  dup2\n    /* \"@openzeppelin/contracts/token/ERC20/ERC20.sol\":1667:1672  _name */\n  0x03\n    /* \"@openzeppelin/contracts/token/ERC20/ERC20.sol\":1667:1680  _name = name_ */\n  swap1\n  dup2\n  tag_8\n  swap2\n  swap1\n  tag_9\n  jump\t// in\ntag_8:\n  pop\n    /* \"@openzeppelin/contracts/token/ERC20/ERC20.sol\":1700:1707  symbol_ */\n  dup1\n    /* \"@openzeppelin/contracts/token/ERC20/ERC20.sol\":1690:1697  _symbol */\n  0x04\n    /* \"@openzeppelin/contracts/token/ERC20/ERC20.sol\":1690:1707  _symbol = symbol_ */\n  swap1\n  dup2\n  tag_10\n  swap2\n  swap1\n  tag_9\n  jump\t// in\ntag_10:\n  pop\n    /* \"@openzeppelin/contracts/token/ERC20/ERC20.sol\":1601:1714  constructor(string memory name_, string memory symbol_) {... */\n  pop\n  pop\n    /* \"@openzeppelin/contracts/access/Ownable.sol\":1297:1298  0 */\n  0x00\n    /* \"@openzeppelin/contracts/access/Ownable.sol\":1273:1299  initialOwner == address(0) */\n  0xffffffffffffffffffffffffffffffffffffffff\n  and\n    /* \"@openzeppelin/contracts/access/Ownable.sol\":1273:1285  initialOwner */\n  dup2\n    /* \"@openzeppelin/contracts/access/Ownable.sol\":1273:1299  initialOwner == address(0) */\n  0xffffffffffffffffffffffffffffffffffffffff\n  and\n  sub\n    /* \"@openzeppelin/contracts/access/Ownable.sol\":1269:1364  if (initialOwner == address(0)) {... */\n  tag_12\n  jumpi\n    /* \"@openzeppelin/contracts/access/Ownable.sol\":1350:1351  0 */\n  0x00\n    /* \"@openzeppelin/contracts/access/Ownable.sol\":1322:1353  OwnableInvalidOwner(address(0)) */\n  mload(0x40)\n  0x1e4fbdf700000000000000000000000000000000000000000000000000000000\n  dup2\n  mstore\n  0x04\n  add\n  tag_13\n  swap2\n  swap1\n  tag_14\n  jump\t// in\ntag_13:\n  mload(0x40)\n  dup1\n  swap2\n  sub\n  swap1\n  revert\n    /* \"@openzeppelin/contracts/access/Ownable.sol\":1269:1364  if (initialOwner == address(0)) {... */\ntag_12:\n    /* \"@openzeppelin/contracts/access/Ownable.sol\":1373:1405  _transferOwnership(initialOwner) */\n  tag_15\n    /* \"@openzeppelin/contracts/access/Ownable.sol\":1392:1404  initialOwner */\n  dup2\n    /* \"@openzeppelin/contracts/access/Ownable.sol\":1373:1391  _transferOwnership */\n  shl(0x20, tag_16)\n    /* \"@openzeppelin/contracts/access/Ownable.sol\":1373:1405  _transferOwnership(initialOwner) */\n  0x20\n  shr\n  jump\t// in\ntag_15:\n    /* \"@openzeppelin/contracts/access/Ownable.sol\":1225:1412  constructor(address initialOwner) {... */\n  pop\n    /* \"contracts/flibber/flibberToken.sol\":1192:1209  _priceFeedAddress */\n  dup1\n    /* \"contracts/flibber/flibberToken.sol\":1158:1167  priceFeed */\n  0x06\n  0x00\n    /* \"contracts/flibber/flibberToken.sol\":1158:1210  priceFeed = AggregatorV3Interface(_priceFeedAddress) */\n  0x0100\n  exp\n  dup2\n  sload\n  dup2\n  0xffffffffffffffffffffffffffffffffffffffff\n  mul\n  not\n  and\n  swap1\n  dup4\n  0xffffffffffffffffffffffffffffffffffffffff\n  and\n  mul\n  or\n  swap1\n  sstore\n  pop\n    /* \"contracts/flibber/flibberToken.sol\":1220:1265  _mint(msg.sender, 1000000 * 10 ** decimals()) */\n  tag_18\n    /* \"contracts/flibber/flibberToken.sol\":1226:1236  msg.sender */\n  caller\n    /* \"contracts/flibber/flibberToken.sol\":1254:1264  decimals() */\n  tag_19\n    /* \"contracts/flibber/flibberToken.sol\":1254:1262  decimals */\n  shl(0x20, tag_20)\n    /* \"contracts/flibber/flibberToken.sol\":1254:1264  decimals() */\n  0x20\n  shr\n  jump\t// in\ntag_19:\n    /* \"contracts/flibber/flibberToken.sol\":1248:1250  10 */\n  0x0a\n    /* \"contracts/flibber/flibberToken.sol\":1248:1264  10 ** decimals() */\n  tag_21\n  swap2\n  swap1\n  tag_22\n  jump\t// in\ntag_21:\n    /* \"contracts/flibber/flibberToken.sol\":1238:1245  1000000 */\n  0x0f4240\n    /* \"contracts/flibber/flibberToken.sol\":1238:1264  1000000 * 10 ** decimals() */\n  tag_23\n  swap2\n  swap1\n  tag_24\n  jump\t// in\ntag_23:\n    /* \"contracts/flibber/flibberToken.sol\":1220:1225  _mint */\n  shl(0x20, tag_25)\n    /* \"contracts/flibber/flibberToken.sol\":1220:1265  _mint(msg.sender, 1000000 * 10 ** decimals()) */\n  0x20\n  shr\n  jump\t// in\ntag_18:\n    /* \"contracts/flibber/flibberToken.sol\":1018:1272  constructor(... */\n  pop\n  pop\n    /* \"contracts/flibber/flibberToken.sol\":327:4666  contract FIBToken is ERC20, ERC20Burnable, Ownable {... */\n  jump(tag_26)\n    /* \"@openzeppelin/contracts/access/Ownable.sol\":2912:3099  function _transferOwnership(address newOwner) internal virtual {... */\ntag_16:\n    /* \"@openzeppelin/contracts/access/Ownable.sol\":2985:3001  address oldOwner */\n  0x00\n    /* \"@openzeppelin/contracts/access/Ownable.sol\":3004:3010  _owner */\n  0x05\n  0x00\n  swap1\n  sload\n  swap1\n  0x0100\n  exp\n  swap1\n  div\n  0xffffffffffffffffffffffffffffffffffffffff\n  and\n    /* \"@openzeppelin/contracts/access/Ownable.sol\":2985:3010  address oldOwner = _owner */\n  swap1\n  pop\n    /* \"@openzeppelin/contracts/access/Ownable.sol\":3029:3037  newOwner */\n  dup2\n    /* \"@openzeppelin/contracts/access/Ownable.sol\":3020:3026  _owner */\n  0x05\n  0x00\n    /* \"@openzeppelin/contracts/access/Ownable.sol\":3020:3037  _owner = newOwner */\n  0x0100\n  exp\n  dup2\n  sload\n  dup2\n  0xffffffffffffffffffffffffffffffffffffffff\n  mul\n  not\n  and\n  swap1\n  dup4\n  0xffffffffffffffffffffffffffffffffffffffff\n  and\n  mul\n  or\n  swap1\n  sstore\n  pop\n    /* \"@openzeppelin/contracts/access/Ownable.sol\":3083:3091  newOwner */\n  dup2\n    /* \"@openzeppelin/contracts/access/Ownable.sol\":3052:3092  OwnershipTransferred(oldOwner, newOwner) */\n  0xffffffffffffffffffffffffffffffffffffffff\n  and\n    /* \"@openzeppelin/contracts/access/Ownable.sol\":3073:3081  oldOwner */\n  dup2\n    /* \"@openzeppelin/contracts/access/Ownable.sol\":3052:3092  OwnershipTransferred(oldOwner, newOwner) */\n  0xffffffffffffffffffffffffffffffffffffffff\n  and\n  0x8be0079c531659141344cd1fd0a4f28419497f9722a3daafe3b4186f6b6457e0\n  mload(0x40)\n  mload(0x40)\n  dup1\n  swap2\n  sub\n  swap1\n  log3\n    /* \"@openzeppelin/contracts/access/Ownable.sol\":2975:3099  {... */\n  pop\n    /* \"@openzeppelin/contracts/access/Ownable.sol\":2912:3099  function _transferOwnership(address newOwner) internal virtual {... */\n  pop\n  jump\t// out\n    /* \"@openzeppelin/contracts/token/ERC20/ERC20.sol\":2707:2789  function decimals() public view virtual returns (uint8) {... */\ntag_20:\n    /* \"@openzeppelin/contracts/token/ERC20/ERC20.sol\":2756:2761  uint8 */\n  0x00\n    /* \"@openzeppelin/contracts/token/ERC20/ERC20.sol\":2780:2782  18 */\n  0x12\n    /* \"@openzeppelin/contracts/token/ERC20/ERC20.sol\":2773:2782  return 18 */\n  swap1\n  pop\n    /* \"@openzeppelin/contracts/token/ERC20/ERC20.sol\":2707:2789  function decimals() public view virtual returns (uint8) {... */\n  swap1\n  jump\t// out\n    /* \"@openzeppelin/contracts/token/ERC20/ERC20.sol\":7458:7666  function _mint(address account, uint256 value) internal {... */\ntag_25:\n    /* \"@openzeppelin/contracts/token/ERC20/ERC20.sol\":7547:7548  0 */\n  0x00\n    /* \"@openzeppelin/contracts/token/ERC20/ERC20.sol\":7528:7549  account == address(0) */\n  0xffffffffffffffffffffffffffffffffffffffff\n  and\n    /* \"@openzeppelin/contracts/token/ERC20/ERC20.sol\":7528:7535  account */\n  dup3\n    /* \"@openzeppelin/contracts/token/ERC20/ERC20.sol\":7528:7549  account == address(0) */\n  0xffffffffffffffffffffffffffffffffffffffff\n  and\n  sub\n    /* \"@openzeppelin/contracts/token/ERC20/ERC20.sol\":7524:7615  if (account == address(0)) {... */\n  tag_30\n  jumpi\n    /* \"@openzeppelin/contracts/token/ERC20/ERC20.sol\":7601:7602  0 */\n  0x00\n    /* \"@openzeppelin/contracts/token/ERC20/ERC20.sol\":7572:7604  ERC20InvalidReceiver(address(0)) */\n  mload(0x40)\n  0xec442f0500000000000000000000000000000000000000000000000000000000\n  dup2\n  mstore\n  0x04\n  add\n  tag_31\n  swap2\n  swap1\n  tag_14\n  jump\t// in\ntag_31:\n  mload(0x40)\n  dup1\n  swap2\n  sub\n  swap1\n  revert\n    /* \"@openzeppelin/contracts/token/ERC20/ERC20.sol\":7524:7615  if (account == address(0)) {... */\ntag_30:\n    /* \"@openzeppelin/contracts/token/ERC20/ERC20.sol\":7624:7659  _update(address(0), account, value) */\n  tag_32\n    /* \"@openzeppelin/contracts/token/ERC20/ERC20.sol\":7640:7641  0 */\n  0x00\n    /* \"@openzeppelin/contracts/token/ERC20/ERC20.sol\":7644:7651  account */\n  dup4\n    /* \"@openzeppelin/contracts/token/ERC20/ERC20.sol\":7653:7658  value */\n  dup4\n    /* \"@openzeppelin/contracts/token/ERC20/ERC20.sol\":7624:7631  _update */\n  shl(0x20, tag_33)\n    /* \"@openzeppelin/contracts/token/ERC20/ERC20.sol\":7624:7659  _update(address(0), account, value) */\n  0x20\n  shr\n  jump\t// in\ntag_32:\n    /* \"@openzeppelin/contracts/token/ERC20/ERC20.sol\":7458:7666  function _mint(address account, uint256 value) internal {... */\n  pop\n  pop\n  jump\t// out\n    /* \"@openzeppelin/contracts/token/ERC20/ERC20.sol\":6008:7115  function _update(address from, address to, uint256 value) internal virtual {... */\ntag_33:\n    /* \"@openzeppelin/contracts/token/ERC20/ERC20.sol\":6113:6114  0 */\n  0x00\n    /* \"@openzeppelin/contracts/token/ERC20/ERC20.sol\":6097:6115  from == address(0) */\n  0xffffffffffffffffffffffffffffffffffffffff\n  and\n    /* \"@openzeppelin/contracts/token/ERC20/ERC20.sol\":6097:6101  from */\n  dup4\n    /* \"@openzeppelin/contracts/token/ERC20/ERC20.sol\":6097:6115  from == address(0) */\n  0xffffffffffffffffffffffffffffffffffffffff\n  and\n  sub\n    /* \"@openzeppelin/contracts/token/ERC20/ERC20.sol\":6093:6633  if (from == address(0)) {... */\n  tag_35\n  jumpi\n    /* \"@openzeppelin/contracts/token/ERC20/ERC20.sol\":6249:6254  value */\n  dup1\n    /* \"@openzeppelin/contracts/token/ERC20/ERC20.sol\":6233:6245  _totalSupply */\n  0x02\n  0x00\n    /* \"@openzeppelin/contracts/token/ERC20/ERC20.sol\":6233:6254  _totalSupply += value */\n  dup3\n  dup3\n  sload\n  tag_36\n  swap2\n  swap1\n  tag_37\n  jump\t// in\ntag_36:\n  swap3\n  pop\n  pop\n  dup2\n  swap1\n  sstore\n  pop\n    /* \"@openzeppelin/contracts/token/ERC20/ERC20.sol\":6093:6633  if (from == address(0)) {... */\n  jump(tag_38)\ntag_35:\n    /* \"@openzeppelin/contracts/token/ERC20/ERC20.sol\":6285:6304  uint256 fromBalance */\n  0x00\n    /* \"@openzeppelin/contracts/token/ERC20/ERC20.sol\":6307:6316  _balances */\n  dup1\n    /* \"@openzeppelin/contracts/token/ERC20/ERC20.sol\":6307:6322  _balances[from] */\n  0x00\n    /* \"@openzeppelin/contracts/token/ERC20/ERC20.sol\":6317:6321  from */\n  dup6\n    /* \"@openzeppelin/contracts/token/ERC20/ERC20.sol\":6307:6322  _balances[from] */\n  0xffffffffffffffffffffffffffffffffffffffff\n  and\n  0xffffffffffffffffffffffffffffffffffffffff\n  and\n  dup2\n  mstore\n  0x20\n  add\n  swap1\n  dup2\n  mstore\n  0x20\n  add\n  0x00\n  keccak256\n  sload\n    /* \"@openzeppelin/contracts/token/ERC20/ERC20.sol\":6285:6322  uint256 fromBalance = _balances[from] */\n  swap1\n  pop\n    /* \"@openzeppelin/contracts/token/ERC20/ERC20.sol\":6354:6359  value */\n  dup2\n    /* \"@openzeppelin/contracts/token/ERC20/ERC20.sol\":6340:6351  fromBalance */\n  dup2\n    /* \"@openzeppelin/contracts/token/ERC20/ERC20.sol\":6340:6359  fromBalance < value */\n  lt\n    /* \"@openzeppelin/contracts/token/ERC20/ERC20.sol\":6336:6451  if (fromBalance < value) {... */\n  iszero\n  tag_39\n  jumpi\n    /* \"@openzeppelin/contracts/token/ERC20/ERC20.sol\":6411:6415  from */\n  dup4\n    /* \"@openzeppelin/contracts/token/ERC20/ERC20.sol\":6417:6428  fromBalance */\n  dup2\n    /* \"@openzeppelin/contracts/token/ERC20/ERC20.sol\":6430:6435  value */\n  dup4\n    /* \"@openzeppelin/contracts/token/ERC20/ERC20.sol\":6386:6436  ERC20InsufficientBalance(from, fromBalance, value) */\n  mload(0x40)\n  0xe450d38c00000000000000000000000000000000000000000000000000000000\n  dup2\n  mstore\n  0x04\n  add\n  tag_40\n  swap4\n  swap3\n  swap2\n  swap1\n  tag_41\n  jump\t// in\ntag_40:\n  mload(0x40)\n  dup1\n  swap2\n  sub\n  swap1\n  revert\n    /* \"@openzeppelin/contracts/token/ERC20/ERC20.sol\":6336:6451  if (fromBalance < value) {... */\ntag_39:\n    /* \"@openzeppelin/contracts/token/ERC20/ERC20.sol\":6603:6608  value */\n  dup2\n    /* \"@openzeppelin/contracts/token/ERC20/ERC20.sol\":6589:6600  fromBalance */\n  dup2\n    /* \"@openzeppelin/contracts/token/ERC20/ERC20.sol\":6589:6608  fromBalance - value */\n  sub\n    /* \"@openzeppelin/contracts/token/ERC20/ERC20.sol\":6571:6580  _balances */\n  0x00\n    /* \"@openzeppelin/contracts/token/ERC20/ERC20.sol\":6571:6586  _balances[from] */\n  dup1\n    /* \"@openzeppelin/contracts/token/ERC20/ERC20.sol\":6581:6585  from */\n  dup7\n    /* \"@openzeppelin/contracts/token/ERC20/ERC20.sol\":6571:6586  _balances[from] */\n  0xffffffffffffffffffffffffffffffffffffffff\n  and\n  0xffffffffffffffffffffffffffffffffffffffff\n  and\n  dup2\n  mstore\n  0x20\n  add\n  swap1\n  dup2\n  mstore\n  0x20\n  add\n  0x00\n  keccak256\n    /* \"@openzeppelin/contracts/token/ERC20/ERC20.sol\":6571:6608  _balances[from] = fromBalance - value */\n  dup2\n  swap1\n  sstore\n  pop\n    /* \"@openzeppelin/contracts/token/ERC20/ERC20.sol\":6271:6633  {... */\n  pop\n    /* \"@openzeppelin/contracts/token/ERC20/ERC20.sol\":6093:6633  if (from == address(0)) {... */\ntag_38:\n    /* \"@openzeppelin/contracts/token/ERC20/ERC20.sol\":6661:6662  0 */\n  0x00\n    /* \"@openzeppelin/contracts/token/ERC20/ERC20.sol\":6647:6663  to == address(0) */\n  0xffffffffffffffffffffffffffffffffffffffff\n  and\n    /* \"@openzeppelin/contracts/token/ERC20/ERC20.sol\":6647:6649  to */\n  dup3\n    /* \"@openzeppelin/contracts/token/ERC20/ERC20.sol\":6647:6663  to == address(0) */\n  0xffffffffffffffffffffffffffffffffffffffff\n  and\n  sub\n    /* \"@openzeppelin/contracts/token/ERC20/ERC20.sol\":6643:7068  if (to == address(0)) {... */\n  tag_42\n  jumpi\n    /* \"@openzeppelin/contracts/token/ERC20/ERC20.sol\":6826:6831  value */\n  dup1\n    /* \"@openzeppelin/contracts/token/ERC20/ERC20.sol\":6810:6822  _totalSupply */\n  0x02\n  0x00\n    /* \"@openzeppelin/contracts/token/ERC20/ERC20.sol\":6810:6831  _totalSupply -= value */\n  dup3\n  dup3\n  sload\n  sub\n  swap3\n  pop\n  pop\n  dup2\n  swap1\n  sstore\n  pop\n    /* \"@openzeppelin/contracts/token/ERC20/ERC20.sol\":6643:7068  if (to == address(0)) {... */\n  jump(tag_43)\ntag_42:\n    /* \"@openzeppelin/contracts/token/ERC20/ERC20.sol\":7038:7043  value */\n  dup1\n    /* \"@openzeppelin/contracts/token/ERC20/ERC20.sol\":7021:7030  _balances */\n  0x00\n    /* \"@openzeppelin/contracts/token/ERC20/ERC20.sol\":7021:7034  _balances[to] */\n  dup1\n    /* \"@openzeppelin/contracts/token/ERC20/ERC20.sol\":7031:7033  to */\n  dup5\n    /* \"@openzeppelin/contracts/token/ERC20/ERC20.sol\":7021:7034  _balances[to] */\n  0xffffffffffffffffffffffffffffffffffffffff\n  and\n  0xffffffffffffffffffffffffffffffffffffffff\n  and\n  dup2\n  mstore\n  0x20\n  add\n  swap1\n  dup2\n  mstore\n  0x20\n  add\n  0x00\n  keccak256\n  0x00\n    /* \"@openzeppelin/contracts/token/ERC20/ERC20.sol\":7021:7043  _balances[to] += value */\n  dup3\n  dup3\n  sload\n  add\n  swap3\n  pop\n  pop\n  dup2\n  swap1\n  sstore\n  pop\n    /* \"@openzeppelin/contracts/token/ERC20/ERC20.sol\":6643:7068  if (to == address(0)) {... */\ntag_43:\n    /* \"@openzeppelin/contracts/token/ERC20/ERC20.sol\":7098:7100  to */\n  dup2\n    /* \"@openzeppelin/contracts/token/ERC20/ERC20.sol\":7083:7108  Transfer(from, to, value) */\n  0xffffffffffffffffffffffffffffffffffffffff\n  and\n    /* \"@openzeppelin/contracts/token/ERC20/ERC20.sol\":7092:7096  from */\n  dup4\n    /* \"@openzeppelin/contracts/token/ERC20/ERC20.sol\":7083:7108  Transfer(from, to, value) */\n  0xffffffffffffffffffffffffffffffffffffffff\n  and\n  0xddf252ad1be2c89b69c2b068fc378daa952ba7f163c4a11628f55a4df523b3ef\n    /* \"@openzeppelin/contracts/token/ERC20/ERC20.sol\":7102:7107  value */\n  dup4\n    /* \"@openzeppelin/contracts/token/ERC20/ERC20.sol\":7083:7108  Transfer(from, to, value) */\n  mload(0x40)\n  tag_44\n  swap2\n  swap1\n  tag_45\n  jump\t// in\ntag_44:\n  mload(0x40)\n  dup1\n  swap2\n  sub\n  swap1\n  log3\n    /* \"@openzeppelin/contracts/token/ERC20/ERC20.sol\":6008:7115  function _update(address from, address to, uint256 value) internal virtual {... */\n  pop\n  pop\n  pop\n  jump\t// out\n    /* \"#utility.yul\":88:205   */\ntag_47:\n    /* \"#utility.yul\":197:198   */\n  0x00\n    /* \"#utility.yul\":194:195   */\n  dup1\n    /* \"#utility.yul\":187:199   */\n  revert\n    /* \"#utility.yul\":334:460   */\ntag_49:\n    /* \"#utility.yul\":371:378   */\n  0x00\n    /* \"#utility.yul\":411:453   */\n  0xffffffffffffffffffffffffffffffffffffffff\n    /* \"#utility.yul\":404:409   */\n  dup3\n    /* \"#utility.yul\":400:454   */\n  and\n    /* \"#utility.yul\":389:454   */\n  swap1\n  pop\n    /* \"#utility.yul\":334:460   */\n  swap2\n  swap1\n  pop\n  jump\t// out\n    /* \"#utility.yul\":466:562   */\ntag_50:\n    /* \"#utility.yul\":503:510   */\n  0x00\n    /* \"#utility.yul\":532:556   */\n  tag_86\n    /* \"#utility.yul\":550:555   */\n  dup3\n    /* \"#utility.yul\":532:556   */\n  tag_49\n  jump\t// in\ntag_86:\n    /* \"#utility.yul\":521:556   */\n  swap1\n  pop\n    /* \"#utility.yul\":466:562   */\n  swap2\n  swap1\n  pop\n  jump\t// out\n    /* \"#utility.yul\":568:690   */\ntag_51:\n    /* \"#utility.yul\":641:665   */\n  tag_88\n    /* \"#utility.yul\":659:664   */\n  dup2\n    /* \"#utility.yul\":641:665   */\n  tag_50\n  jump\t// in\ntag_88:\n    /* \"#utility.yul\":634:639   */\n  dup2\n    /* \"#utility.yul\":631:666   */\n  eq\n    /* \"#utility.yul\":621:684   */\n  tag_89\n  jumpi\n    /* \"#utility.yul\":680:681   */\n  0x00\n    /* \"#utility.yul\":677:678   */\n  dup1\n    /* \"#utility.yul\":670:682   */\n  revert\n    /* \"#utility.yul\":621:684   */\ntag_89:\n    /* \"#utility.yul\":568:690   */\n  pop\n  jump\t// out\n    /* \"#utility.yul\":696:839   */\ntag_52:\n    /* \"#utility.yul\":753:758   */\n  0x00\n    /* \"#utility.yul\":784:790   */\n  dup2\n    /* \"#utility.yul\":778:791   */\n  mload\n    /* \"#utility.yul\":769:791   */\n  swap1\n  pop\n    /* \"#utility.yul\":800:833   */\n  tag_91\n    /* \"#utility.yul\":827:832   */\n  dup2\n    /* \"#utility.yul\":800:833   */\n  tag_51\n  jump\t// in\ntag_91:\n    /* \"#utility.yul\":696:839   */\n  swap3\n  swap2\n  pop\n  pop\n  jump\t// out\n    /* \"#utility.yul\":845:1352   */\ntag_3:\n    /* \"#utility.yul\":924:930   */\n  0x00\n    /* \"#utility.yul\":932:938   */\n  dup1\n    /* \"#utility.yul\":981:983   */\n  0x40\n    /* \"#utility.yul\":969:978   */\n  dup4\n    /* \"#utility.yul\":960:967   */\n  dup6\n    /* \"#utility.yul\":956:979   */\n  sub\n    /* \"#utility.yul\":952:984   */\n  slt\n    /* \"#utility.yul\":949:1068   */\n  iszero\n  tag_93\n  jumpi\n    /* \"#utility.yul\":987:1066   */\n  tag_94\n  tag_47\n  jump\t// in\ntag_94:\n    /* \"#utility.yul\":949:1068   */\ntag_93:\n    /* \"#utility.yul\":1107:1108   */\n  0x00\n    /* \"#utility.yul\":1132:1196   */\n  tag_95\n    /* \"#utility.yul\":1188:1195   */\n  dup6\n    /* \"#utility.yul\":1179:1185   */\n  dup3\n    /* \"#utility.yul\":1168:1177   */\n  dup7\n    /* \"#utility.yul\":1164:1186   */\n  add\n    /* \"#utility.yul\":1132:1196   */\n  tag_52\n  jump\t// in\ntag_95:\n    /* \"#utility.yul\":1122:1196   */\n  swap3\n  pop\n    /* \"#utility.yul\":1078:1206   */\n  pop\n    /* \"#utility.yul\":1245:1247   */\n  0x20\n    /* \"#utility.yul\":1271:1335   */\n  tag_96\n    /* \"#utility.yul\":1327:1334   */\n  dup6\n    /* \"#utility.yul\":1318:1324   */\n  dup3\n    /* \"#utility.yul\":1307:1316   */\n  dup7\n    /* \"#utility.yul\":1303:1325   */\n  add\n    /* \"#utility.yul\":1271:1335   */\n  tag_52\n  jump\t// in\ntag_96:\n    /* \"#utility.yul\":1261:1335   */\n  swap2\n  pop\n    /* \"#utility.yul\":1216:1345   */\n  pop\n    /* \"#utility.yul\":845:1352   */\n  swap3\n  pop\n  swap3\n  swap1\n  pop\n  jump\t// out\n    /* \"#utility.yul\":1358:1457   */\ntag_53:\n    /* \"#utility.yul\":1410:1416   */\n  0x00\n    /* \"#utility.yul\":1444:1449   */\n  dup2\n    /* \"#utility.yul\":1438:1450   */\n  mload\n    /* \"#utility.yul\":1428:1450   */\n  swap1\n  pop\n    /* \"#utility.yul\":1358:1457   */\n  swap2\n  swap1\n  pop\n  jump\t// out\n    /* \"#utility.yul\":1463:1643   */\ntag_54:\n    /* \"#utility.yul\":1511:1588   */\n  0x4e487b7100000000000000000000000000000000000000000000000000000000\n    /* \"#utility.yul\":1508:1509   */\n  0x00\n    /* \"#utility.yul\":1501:1589   */\n  mstore\n    /* \"#utility.yul\":1608:1612   */\n  0x41\n    /* \"#utility.yul\":1605:1606   */\n  0x04\n    /* \"#utility.yul\":1598:1613   */\n  mstore\n    /* \"#utility.yul\":1632:1636   */\n  0x24\n    /* \"#utility.yul\":1629:1630   */\n  0x00\n    /* \"#utility.yul\":1622:1637   */\n  revert\n    /* \"#utility.yul\":1649:1829   */\ntag_55:\n    /* \"#utility.yul\":1697:1774   */\n  0x4e487b7100000000000000000000000000000000000000000000000000000000\n    /* \"#utility.yul\":1694:1695   */\n  0x00\n    /* \"#utility.yul\":1687:1775   */\n  mstore\n    /* \"#utility.yul\":1794:1798   */\n  0x22\n    /* \"#utility.yul\":1791:1792   */\n  0x04\n    /* \"#utility.yul\":1784:1799   */\n  mstore\n    /* \"#utility.yul\":1818:1822   */\n  0x24\n    /* \"#utility.yul\":1815:1816   */\n  0x00\n    /* \"#utility.yul\":1808:1823   */\n  revert\n    /* \"#utility.yul\":1835:2155   */\ntag_56:\n    /* \"#utility.yul\":1879:1885   */\n  0x00\n    /* \"#utility.yul\":1916:1917   */\n  0x02\n    /* \"#utility.yul\":1910:1914   */\n  dup3\n    /* \"#utility.yul\":1906:1918   */\n  div\n    /* \"#utility.yul\":1896:1918   */\n  swap1\n  pop\n    /* \"#utility.yul\":1963:1964   */\n  0x01\n    /* \"#utility.yul\":1957:1961   */\n  dup3\n    /* \"#utility.yul\":1953:1965   */\n  and\n    /* \"#utility.yul\":1984:2002   */\n  dup1\n    /* \"#utility.yul\":1974:2055   */\n  tag_101\n  jumpi\n    /* \"#utility.yul\":2040:2044   */\n  0x7f\n    /* \"#utility.yul\":2032:2038   */\n  dup3\n    /* \"#utility.yul\":2028:2045   */\n  and\n    /* \"#utility.yul\":2018:2045   */\n  swap2\n  pop\n    /* \"#utility.yul\":1974:2055   */\ntag_101:\n    /* \"#utility.yul\":2102:2104   */\n  0x20\n    /* \"#utility.yul\":2094:2100   */\n  dup3\n    /* \"#utility.yul\":2091:2105   */\n  lt\n    /* \"#utility.yul\":2071:2089   */\n  dup2\n    /* \"#utility.yul\":2068:2106   */\n  sub\n    /* \"#utility.yul\":2065:2149   */\n  tag_102\n  jumpi\n    /* \"#utility.yul\":2121:2139   */\n  tag_103\n  tag_55\n  jump\t// in\ntag_103:\n    /* \"#utility.yul\":2065:2149   */\ntag_102:\n    /* \"#utility.yul\":1886:2155   */\n  pop\n    /* \"#utility.yul\":1835:2155   */\n  swap2\n  swap1\n  pop\n  jump\t// out\n    /* \"#utility.yul\":2161:2302   */\ntag_57:\n    /* \"#utility.yul\":2210:2214   */\n  0x00\n    /* \"#utility.yul\":2233:2236   */\n  dup2\n    /* \"#utility.yul\":2225:2236   */\n  swap1\n  pop\n    /* \"#utility.yul\":2256:2259   */\n  dup2\n    /* \"#utility.yul\":2253:2254   */\n  0x00\n    /* \"#utility.yul\":2246:2260   */\n  mstore\n    /* \"#utility.yul\":2290:2294   */\n  0x20\n    /* \"#utility.yul\":2287:2288   */\n  0x00\n    /* \"#utility.yul\":2277:2295   */\n  keccak256\n    /* \"#utility.yul\":2269:2295   */\n  swap1\n  pop\n    /* \"#utility.yul\":2161:2302   */\n  swap2\n  swap1\n  pop\n  jump\t// out\n    /* \"#utility.yul\":2308:2401   */\ntag_58:\n    /* \"#utility.yul\":2345:2351   */\n  0x00\n    /* \"#utility.yul\":2392:2394   */\n  0x20\n    /* \"#utility.yul\":2387:2389   */\n  0x1f\n    /* \"#utility.yul\":2380:2385   */\n  dup4\n    /* \"#utility.yul\":2376:2390   */\n  add\n    /* \"#utility.yul\":2372:2395   */\n  div\n    /* \"#utility.yul\":2362:2395   */\n  swap1\n  pop\n    /* \"#utility.yul\":2308:2401   */\n  swap2\n  swap1\n  pop\n  jump\t// out\n    /* \"#utility.yul\":2407:2514   */\ntag_59:\n    /* \"#utility.yul\":2451:2459   */\n  0x00\n    /* \"#utility.yul\":2501:2506   */\n  dup3\n    /* \"#utility.yul\":2495:2499   */\n  dup3\n    /* \"#utility.yul\":2491:2507   */\n  shl\n    /* \"#utility.yul\":2470:2507   */\n  swap1\n  pop\n    /* \"#utility.yul\":2407:2514   */\n  swap3\n  swap2\n  pop\n  pop\n  jump\t// out\n    /* \"#utility.yul\":2520:2913   */\ntag_60:\n    /* \"#utility.yul\":2589:2595   */\n  0x00\n    /* \"#utility.yul\":2639:2640   */\n  0x08\n    /* \"#utility.yul\":2627:2637   */\n  dup4\n    /* \"#utility.yul\":2623:2641   */\n  mul\n    /* \"#utility.yul\":2662:2759   */\n  tag_108\n    /* \"#utility.yul\":2692:2758   */\n  0xffffffffffffffffffffffffffffffffffffffffffffffffffffffffffffffff\n    /* \"#utility.yul\":2681:2690   */\n  dup3\n    /* \"#utility.yul\":2662:2759   */\n  tag_59\n  jump\t// in\ntag_108:\n    /* \"#utility.yul\":2780:2819   */\n  tag_109\n    /* \"#utility.yul\":2810:2818   */\n  dup7\n    /* \"#utility.yul\":2799:2808   */\n  dup4\n    /* \"#utility.yul\":2780:2819   */\n  tag_59\n  jump\t// in\ntag_109:\n    /* \"#utility.yul\":2768:2819   */\n  swap6\n  pop\n    /* \"#utility.yul\":2852:2856   */\n  dup1\n    /* \"#utility.yul\":2848:2857   */\n  not\n    /* \"#utility.yul\":2841:2846   */\n  dup5\n    /* \"#utility.yul\":2837:2858   */\n  and\n    /* \"#utility.yul\":2828:2858   */\n  swap4\n  pop\n    /* \"#utility.yul\":2901:2905   */\n  dup1\n    /* \"#utility.yul\":2891:2899   */\n  dup7\n    /* \"#utility.yul\":2887:2906   */\n  and\n    /* \"#utility.yul\":2880:2885   */\n  dup5\n    /* \"#utility.yul\":2877:2907   */\n  or\n    /* \"#utility.yul\":2867:2907   */\n  swap3\n  pop\n    /* \"#utility.yul\":2596:2913   */\n  pop\n  pop\n    /* \"#utility.yul\":2520:2913   */\n  swap4\n  swap3\n  pop\n  pop\n  pop\n  jump\t// out\n    /* \"#utility.yul\":2919:2996   */\ntag_61:\n    /* \"#utility.yul\":2956:2963   */\n  0x00\n    /* \"#utility.yul\":2985:2990   */\n  dup2\n    /* \"#utility.yul\":2974:2990   */\n  swap1\n  pop\n    /* \"#utility.yul\":2919:2996   */\n  swap2\n  swap1\n  pop\n  jump\t// out\n    /* \"#utility.yul\":3002:3062   */\ntag_62:\n    /* \"#utility.yul\":3030:3033   */\n  0x00\n    /* \"#utility.yul\":3051:3056   */\n  dup2\n    /* \"#utility.yul\":3044:3056   */\n  swap1\n  pop\n    /* \"#utility.yul\":3002:3062   */\n  swap2\n  swap1\n  pop\n  jump\t// out\n    /* \"#utility.yul\":3068:3210   */\ntag_63:\n    /* \"#utility.yul\":3118:3127   */\n  0x00\n    /* \"#utility.yul\":3151:3204   */\n  tag_113\n    /* \"#utility.yul\":3169:3203   */\n  tag_114\n    /* \"#utility.yul\":3178:3202   */\n  tag_115\n    /* \"#utility.yul\":3196:3201   */\n  dup5\n    /* \"#utility.yul\":3178:3202   */\n  tag_61\n  jump\t// in\ntag_115:\n    /* \"#utility.yul\":3169:3203   */\n  tag_62\n  jump\t// in\ntag_114:\n    /* \"#utility.yul\":3151:3204   */\n  tag_61\n  jump\t// in\ntag_113:\n    /* \"#utility.yul\":3138:3204   */\n  swap1\n  pop\n    /* \"#utility.yul\":3068:3210   */\n  swap2\n  swap1\n  pop\n  jump\t// out\n    /* \"#utility.yul\":3216:3291   */\ntag_64:\n    /* \"#utility.yul\":3259:3262   */\n  0x00\n    /* \"#utility.yul\":3280:3285   */\n  dup2\n    /* \"#utility.yul\":3273:3285   */\n  swap1\n  pop\n    /* \"#utility.yul\":3216:3291   */\n  swap2\n  swap1\n  pop\n  jump\t// out\n    /* \"#utility.yul\":3297:3566   */\ntag_65:\n    /* \"#utility.yul\":3407:3446   */\n  tag_118\n    /* \"#utility.yul\":3438:3445   */\n  dup4\n    /* \"#utility.yul\":3407:3446   */\n  tag_63\n  jump\t// in\ntag_118:\n    /* \"#utility.yul\":3468:3559   */\n  tag_119\n    /* \"#utility.yul\":3517:3558   */\n  tag_120\n    /* \"#utility.yul\":3541:3557   */\n  dup3\n    /* \"#utility.yul\":3517:3558   */\n  tag_64\n  jump\t// in\ntag_120:\n    /* \"#utility.yul\":3509:3515   */\n  dup5\n    /* \"#utility.yul\":3502:3506   */\n  dup5\n    /* \"#utility.yul\":3496:3507   */\n  sload\n    /* \"#utility.yul\":3468:3559   */\n  tag_60\n  jump\t// in\ntag_119:\n    /* \"#utility.yul\":3462:3466   */\n  dup3\n    /* \"#utility.yul\":3455:3560   */\n  sstore\n    /* \"#utility.yul\":3373:3566   */\n  pop\n    /* \"#utility.yul\":3297:3566   */\n  pop\n  pop\n  pop\n  jump\t// out\n    /* \"#utility.yul\":3572:3645   */\ntag_66:\n    /* \"#utility.yul\":3617:3620   */\n  0x00\n    /* \"#utility.yul\":3572:3645   */\n  swap1\n  jump\t// out\n    /* \"#utility.yul\":3651:3840   */\ntag_67:\n    /* \"#utility.yul\":3728:3760   */\n  tag_123\n  tag_66\n  jump\t// in\ntag_123:\n    /* \"#utility.yul\":3769:3834   */\n  tag_124\n    /* \"#utility.yul\":3827:3833   */\n  dup2\n    /* \"#utility.yul\":3819:3825   */\n  dup5\n    /* \"#utility.yul\":3813:3817   */\n  dup5\n    /* \"#utility.yul\":3769:3834   */\n  tag_65\n  jump\t// in\ntag_124:\n    /* \"#utility.yul\":3704:3840   */\n  pop\n    /* \"#utility.yul\":3651:3840   */\n  pop\n  pop\n  jump\t// out\n    /* \"#utility.yul\":3846:4032   */\ntag_68:\n    /* \"#utility.yul\":3906:4026   */\ntag_126:\n    /* \"#utility.yul\":3923:3926   */\n  dup2\n    /* \"#utility.yul\":3916:3921   */\n  dup2\n    /* \"#utility.yul\":3913:3927   */\n  lt\n    /* \"#utility.yul\":3906:4026   */\n  iszero\n  tag_128\n  jumpi\n    /* \"#utility.yul\":3977:4016   */\n  tag_129\n    /* \"#utility.yul\":4014:4015   */\n  0x00\n    /* \"#utility.yul\":4007:4012   */\n  dup3\n    /* \"#utility.yul\":3977:4016   */\n  tag_67\n  jump\t// in\ntag_129:\n    /* \"#utility.yul\":3950:3951   */\n  0x01\n    /* \"#utility.yul\":3943:3948   */\n  dup2\n    /* \"#utility.yul\":3939:3952   */\n  add\n    /* \"#utility.yul\":3930:3952   */\n  swap1\n  pop\n    /* \"#utility.yul\":3906:4026   */\n  jump(tag_126)\ntag_128:\n    /* \"#utility.yul\":3846:4032   */\n  pop\n  pop\n  jump\t// out\n    /* \"#utility.yul\":4038:4581   */\ntag_69:\n    /* \"#utility.yul\":4139:4141   */\n  0x1f\n    /* \"#utility.yul\":4134:4137   */\n  dup3\n    /* \"#utility.yul\":4131:4142   */\n  gt\n    /* \"#utility.yul\":4128:4574   */\n  iszero\n  tag_131\n  jumpi\n    /* \"#utility.yul\":4173:4211   */\n  tag_132\n    /* \"#utility.yul\":4205:4210   */\n  dup2\n    /* \"#utility.yul\":4173:4211   */\n  tag_57\n  jump\t// in\ntag_132:\n    /* \"#utility.yul\":4257:4286   */\n  tag_133\n    /* \"#utility.yul\":4275:4285   */\n  dup5\n    /* \"#utility.yul\":4257:4286   */\n  tag_58\n  jump\t// in\ntag_133:\n    /* \"#utility.yul\":4247:4255   */\n  dup2\n    /* \"#utility.yul\":4243:4287   */\n  add\n    /* \"#utility.yul\":4440:4442   */\n  0x20\n    /* \"#utility.yul\":4428:4438   */\n  dup6\n    /* \"#utility.yul\":4425:4443   */\n  lt\n    /* \"#utility.yul\":4422:4471   */\n  iszero\n  tag_134\n  jumpi\n    /* \"#utility.yul\":4461:4469   */\n  dup2\n    /* \"#utility.yul\":4446:4469   */\n  swap1\n  pop\n    /* \"#utility.yul\":4422:4471   */\ntag_134:\n    /* \"#utility.yul\":4484:4564   */\n  tag_135\n    /* \"#utility.yul\":4540:4562   */\n  tag_136\n    /* \"#utility.yul\":4558:4561   */\n  dup6\n    /* \"#utility.yul\":4540:4562   */\n  tag_58\n  jump\t// in\ntag_136:\n    /* \"#utility.yul\":4530:4538   */\n  dup4\n    /* \"#utility.yul\":4526:4563   */\n  add\n    /* \"#utility.yul\":4513:4524   */\n  dup3\n    /* \"#utility.yul\":4484:4564   */\n  tag_68\n  jump\t// in\ntag_135:\n    /* \"#utility.yul\":4143:4574   */\n  pop\n  pop\n    /* \"#utility.yul\":4128:4574   */\ntag_131:\n    /* \"#utility.yul\":4038:4581   */\n  pop\n  pop\n  pop\n  jump\t// out\n    /* \"#utility.yul\":4587:4704   */\ntag_70:\n    /* \"#utility.yul\":4641:4649   */\n  0x00\n    /* \"#utility.yul\":4691:4696   */\n  dup3\n    /* \"#utility.yul\":4685:4689   */\n  dup3\n    /* \"#utility.yul\":4681:4697   */\n  shr\n    /* \"#utility.yul\":4660:4697   */\n  swap1\n  pop\n    /* \"#utility.yul\":4587:4704   */\n  swap3\n  swap2\n  pop\n  pop\n  jump\t// out\n    /* \"#utility.yul\":4710:4879   */\ntag_71:\n    /* \"#utility.yul\":4754:4760   */\n  0x00\n    /* \"#utility.yul\":4787:4838   */\n  tag_139\n    /* \"#utility.yul\":4835:4836   */\n  0x00\n    /* \"#utility.yul\":4831:4837   */\n  not\n    /* \"#utility.yul\":4823:4828   */\n  dup5\n    /* \"#utility.yul\":4820:4821   */\n  0x08\n    /* \"#utility.yul\":4816:4829   */\n  mul\n    /* \"#utility.yul\":4787:4838   */\n  tag_70\n  jump\t// in\ntag_139:\n    /* \"#utility.yul\":4783:4839   */\n  not\n    /* \"#utility.yul\":4868:4872   */\n  dup1\n    /* \"#utility.yul\":4862:4866   */\n  dup4\n    /* \"#utility.yul\":4858:4873   */\n  and\n    /* \"#utility.yul\":4848:4873   */\n  swap2\n  pop\n    /* \"#utility.yul\":4761:4879   */\n  pop\n    /* \"#utility.yul\":4710:4879   */\n  swap3\n  swap2\n  pop\n  pop\n  jump\t// out\n    /* \"#utility.yul\":4884:5179   */\ntag_72:\n    /* \"#utility.yul\":4960:4964   */\n  0x00\n    /* \"#utility.yul\":5106:5135   */\n  tag_141\n    /* \"#utility.yul\":5131:5134   */\n  dup4\n    /* \"#utility.yul\":5125:5129   */\n  dup4\n    /* \"#utility.yul\":5106:5135   */\n  tag_71\n  jump\t// in\ntag_141:\n    /* \"#utility.yul\":5098:5135   */\n  swap2\n  pop\n    /* \"#utility.yul\":5168:5171   */\n  dup3\n    /* \"#utility.yul\":5165:5166   */\n  0x02\n    /* \"#utility.yul\":5161:5172   */\n  mul\n    /* \"#utility.yul\":5155:5159   */\n  dup3\n    /* \"#utility.yul\":5152:5173   */\n  or\n    /* \"#utility.yul\":5144:5173   */\n  swap1\n  pop\n    /* \"#utility.yul\":4884:5179   */\n  swap3\n  swap2\n  pop\n  pop\n  jump\t// out\n    /* \"#utility.yul\":5184:6579   */\ntag_9:\n    /* \"#utility.yul\":5301:5338   */\n  tag_143\n    /* \"#utility.yul\":5334:5337   */\n  dup3\n    /* \"#utility.yul\":5301:5338   */\n  tag_53\n  jump\t// in\ntag_143:\n    /* \"#utility.yul\":5403:5421   */\n  0xffffffffffffffff\n    /* \"#utility.yul\":5395:5401   */\n  dup2\n    /* \"#utility.yul\":5392:5422   */\n  gt\n    /* \"#utility.yul\":5389:5445   */\n  iszero\n  tag_144\n  jumpi\n    /* \"#utility.yul\":5425:5443   */\n  tag_145\n  tag_54\n  jump\t// in\ntag_145:\n    /* \"#utility.yul\":5389:5445   */\ntag_144:\n    /* \"#utility.yul\":5469:5507   */\n  tag_146\n    /* \"#utility.yul\":5501:5505   */\n  dup3\n    /* \"#utility.yul\":5495:5506   */\n  sload\n    /* \"#utility.yul\":5469:5507   */\n  tag_56\n  jump\t// in\ntag_146:\n    /* \"#utility.yul\":5554:5621   */\n  tag_147\n    /* \"#utility.yul\":5614:5620   */\n  dup3\n    /* \"#utility.yul\":5606:5612   */\n  dup3\n    /* \"#utility.yul\":5600:5604   */\n  dup6\n    /* \"#utility.yul\":5554:5621   */\n  tag_69\n  jump\t// in\ntag_147:\n    /* \"#utility.yul\":5648:5649   */\n  0x00\n    /* \"#utility.yul\":5672:5676   */\n  0x20\n    /* \"#utility.yul\":5659:5676   */\n  swap1\n  pop\n    /* \"#utility.yul\":5704:5706   */\n  0x1f\n    /* \"#utility.yul\":5696:5702   */\n  dup4\n    /* \"#utility.yul\":5693:5707   */\n  gt\n    /* \"#utility.yul\":5721:5722   */\n  0x01\n    /* \"#utility.yul\":5716:6334   */\n  dup2\n  eq\n  tag_149\n  jumpi\n    /* \"#utility.yul\":6378:6379   */\n  0x00\n    /* \"#utility.yul\":6395:6401   */\n  dup5\n    /* \"#utility.yul\":6392:6469   */\n  iszero\n  tag_150\n  jumpi\n    /* \"#utility.yul\":6444:6453   */\n  dup3\n    /* \"#utility.yul\":6439:6442   */\n  dup8\n    /* \"#utility.yul\":6435:6454   */\n  add\n    /* \"#utility.yul\":6429:6455   */\n  mload\n    /* \"#utility.yul\":6420:6455   */\n  swap1\n  pop\n    /* \"#utility.yul\":6392:6469   */\ntag_150:\n    /* \"#utility.yul\":6495:6562   */\n  tag_151\n    /* \"#utility.yul\":6555:6561   */\n  dup6\n    /* \"#utility.yul\":6548:6553   */\n  dup3\n    /* \"#utility.yul\":6495:6562   */\n  tag_72\n  jump\t// in\ntag_151:\n    /* \"#utility.yul\":6489:6493   */\n  dup7\n    /* \"#utility.yul\":6482:6563   */\n  sstore\n    /* \"#utility.yul\":6351:6573   */\n  pop\n    /* \"#utility.yul\":5686:6573   */\n  jump(tag_148)\n    /* \"#utility.yul\":5716:6334   */\ntag_149:\n    /* \"#utility.yul\":5768:5772   */\n  0x1f\n    /* \"#utility.yul\":5764:5773   */\n  not\n    /* \"#utility.yul\":5756:5762   */\n  dup5\n    /* \"#utility.yul\":5752:5774   */\n  and\n    /* \"#utility.yul\":5802:5839   */\n  tag_152\n    /* \"#utility.yul\":5834:5838   */\n  dup7\n    /* \"#utility.yul\":5802:5839   */\n  tag_57\n  jump\t// in\ntag_152:\n    /* \"#utility.yul\":5861:5862   */\n  0x00\n    /* \"#utility.yul\":5875:6083   */\ntag_153:\n    /* \"#utility.yul\":5889:5896   */\n  dup3\n    /* \"#utility.yul\":5886:5887   */\n  dup2\n    /* \"#utility.yul\":5883:5897   */\n  lt\n    /* \"#utility.yul\":5875:6083   */\n  iszero\n  tag_155\n  jumpi\n    /* \"#utility.yul\":5968:5977   */\n  dup5\n    /* \"#utility.yul\":5963:5966   */\n  dup10\n    /* \"#utility.yul\":5959:5978   */\n  add\n    /* \"#utility.yul\":5953:5979   */\n  mload\n    /* \"#utility.yul\":5945:5951   */\n  dup3\n    /* \"#utility.yul\":5938:5980   */\n  sstore\n    /* \"#utility.yul\":6019:6020   */\n  0x01\n    /* \"#utility.yul\":6011:6017   */\n  dup3\n    /* \"#utility.yul\":6007:6021   */\n  add\n    /* \"#utility.yul\":5997:6021   */\n  swap2\n  pop\n    /* \"#utility.yul\":6066:6068   */\n  0x20\n    /* \"#utility.yul\":6055:6064   */\n  dup6\n    /* \"#utility.yul\":6051:6069   */\n  add\n    /* \"#utility.yul\":6038:6069   */\n  swap5\n  pop\n    /* \"#utility.yul\":5912:5916   */\n  0x20\n    /* \"#utility.yul\":5909:5910   */\n  dup2\n    /* \"#utility.yul\":5905:5917   */\n  add\n    /* \"#utility.yul\":5900:5917   */\n  swap1\n  pop\n    /* \"#utility.yul\":5875:6083   */\n  jump(tag_153)\ntag_155:\n    /* \"#utility.yul\":6111:6117   */\n  dup7\n    /* \"#utility.yul\":6102:6109   */\n  dup4\n    /* \"#utility.yul\":6099:6118   */\n  lt\n    /* \"#utility.yul\":6096:6275   */\n  iszero\n  tag_156\n  jumpi\n    /* \"#utility.yul\":6169:6178   */\n  dup5\n    /* \"#utility.yul\":6164:6167   */\n  dup10\n    /* \"#utility.yul\":6160:6179   */\n  add\n    /* \"#utility.yul\":6154:6180   */\n  mload\n    /* \"#utility.yul\":6212:6260   */\n  tag_157\n    /* \"#utility.yul\":6254:6258   */\n  0x1f\n    /* \"#utility.yul\":6246:6252   */\n  dup10\n    /* \"#utility.yul\":6242:6259   */\n  and\n    /* \"#utility.yul\":6231:6240   */\n  dup3\n    /* \"#utility.yul\":6212:6260   */\n  tag_71\n  jump\t// in\ntag_157:\n    /* \"#utility.yul\":6204:6210   */\n  dup4\n    /* \"#utility.yul\":6197:6261   */\n  sstore\n    /* \"#utility.yul\":6119:6275   */\n  pop\n    /* \"#utility.yul\":6096:6275   */\ntag_156:\n    /* \"#utility.yul\":6321:6322   */\n  0x01\n    /* \"#utility.yul\":6317:6318   */\n  0x02\n    /* \"#utility.yul\":6309:6315   */\n  dup9\n    /* \"#utility.yul\":6305:6319   */\n  mul\n    /* \"#utility.yul\":6301:6323   */\n  add\n    /* \"#utility.yul\":6295:6299   */\n  dup9\n    /* \"#utility.yul\":6288:6324   */\n  sstore\n    /* \"#utility.yul\":5723:6334   */\n  pop\n  pop\n  pop\n    /* \"#utility.yul\":5686:6573   */\ntag_148:\n  pop\n    /* \"#utility.yul\":5276:6579   */\n  pop\n  pop\n  pop\n    /* \"#utility.yul\":5184:6579   */\n  pop\n  pop\n  jump\t// out\n    /* \"#utility.yul\":6585:6703   */\ntag_73:\n    /* \"#utility.yul\":6672:6696   */\n  tag_159\n    /* \"#utility.yul\":6690:6695   */\n  dup2\n    /* \"#utility.yul\":6672:6696   */\n  tag_50\n  jump\t// in\ntag_159:\n    /* \"#utility.yul\":6667:6670   */\n  dup3\n    /* \"#utility.yul\":6660:6697   */\n  mstore\n    /* \"#utility.yul\":6585:6703   */\n  pop\n  pop\n  jump\t// out\n    /* \"#utility.yul\":6709:6931   */\ntag_14:\n    /* \"#utility.yul\":6802:6806   */\n  0x00\n    /* \"#utility.yul\":6840:6842   */\n  0x20\n    /* \"#utility.yul\":6829:6838   */\n  dup3\n    /* \"#utility.yul\":6825:6843   */\n  add\n    /* \"#utility.yul\":6817:6843   */\n  swap1\n  pop\n    /* \"#utility.yul\":6853:6924   */\n  tag_161\n    /* \"#utility.yul\":6921:6922   */\n  0x00\n    /* \"#utility.yul\":6910:6919   */\n  dup4\n    /* \"#utility.yul\":6906:6923   */\n  add\n    /* \"#utility.yul\":6897:6903   */\n  dup5\n    /* \"#utility.yul\":6853:6924   */\n  tag_73\n  jump\t// in\ntag_161:\n    /* \"#utility.yul\":6709:6931   */\n  swap3\n  swap2\n  pop\n  pop\n  jump\t// out\n    /* \"#utility.yul\":6937:7117   */\ntag_74:\n    /* \"#utility.yul\":6985:7062   */\n  0x4e487b7100000000000000000000000000000000000000000000000000000000\n    /* \"#utility.yul\":6982:6983   */\n  0x00\n    /* \"#utility.yul\":6975:7063   */\n  mstore\n    /* \"#utility.yul\":7082:7086   */\n  0x11\n    /* \"#utility.yul\":7079:7080   */\n  0x04\n    /* \"#utility.yul\":7072:7087   */\n  mstore\n    /* \"#utility.yul\":7106:7110   */\n  0x24\n    /* \"#utility.yul\":7103:7104   */\n  0x00\n    /* \"#utility.yul\":7096:7111   */\n  revert\n    /* \"#utility.yul\":7123:7225   */\ntag_75:\n    /* \"#utility.yul\":7165:7173   */\n  0x00\n    /* \"#utility.yul\":7212:7217   */\n  dup2\n    /* \"#utility.yul\":7209:7210   */\n  0x01\n    /* \"#utility.yul\":7205:7218   */\n  shr\n    /* \"#utility.yul\":7184:7218   */\n  swap1\n  pop\n    /* \"#utility.yul\":7123:7225   */\n  swap2\n  swap1\n  pop\n  jump\t// out\n    /* \"#utility.yul\":7231:8079   */\ntag_76:\n    /* \"#utility.yul\":7292:7297   */\n  0x00\n    /* \"#utility.yul\":7299:7303   */\n  dup1\n    /* \"#utility.yul\":7323:7329   */\n  dup3\n    /* \"#utility.yul\":7314:7329   */\n  swap2\n  pop\n    /* \"#utility.yul\":7347:7352   */\n  dup4\n    /* \"#utility.yul\":7338:7352   */\n  swap1\n  pop\n    /* \"#utility.yul\":7361:8073   */\ntag_165:\n    /* \"#utility.yul\":7382:7383   */\n  0x01\n    /* \"#utility.yul\":7372:7380   */\n  dup6\n    /* \"#utility.yul\":7369:7384   */\n  gt\n    /* \"#utility.yul\":7361:8073   */\n  iszero\n  tag_167\n  jumpi\n    /* \"#utility.yul\":7477:7481   */\n  dup1\n    /* \"#utility.yul\":7472:7475   */\n  dup7\n    /* \"#utility.yul\":7468:7482   */\n  div\n    /* \"#utility.yul\":7462:7466   */\n  dup2\n    /* \"#utility.yul\":7459:7483   */\n  gt\n    /* \"#utility.yul\":7456:7506   */\n  iszero\n  tag_168\n  jumpi\n    /* \"#utility.yul\":7486:7504   */\n  tag_169\n  tag_74\n  jump\t// in\ntag_169:\n    /* \"#utility.yul\":7456:7506   */\ntag_168:\n    /* \"#utility.yul\":7536:7537   */\n  0x01\n    /* \"#utility.yul\":7526:7534   */\n  dup6\n    /* \"#utility.yul\":7522:7538   */\n  and\n    /* \"#utility.yul\":7519:7970   */\n  iszero\n  tag_170\n  jumpi\n    /* \"#utility.yul\":7951:7955   */\n  dup1\n    /* \"#utility.yul\":7944:7949   */\n  dup3\n    /* \"#utility.yul\":7940:7956   */\n  mul\n    /* \"#utility.yul\":7931:7956   */\n  swap2\n  pop\n    /* \"#utility.yul\":7519:7970   */\ntag_170:\n    /* \"#utility.yul\":8001:8005   */\n  dup1\n    /* \"#utility.yul\":7995:7999   */\n  dup2\n    /* \"#utility.yul\":7991:8006   */\n  mul\n    /* \"#utility.yul\":7983:8006   */\n  swap1\n  pop\n    /* \"#utility.yul\":8031:8063   */\n  tag_171\n    /* \"#utility.yul\":8054:8062   */\n  dup6\n    /* \"#utility.yul\":8031:8063   */\n  tag_75\n  jump\t// in\ntag_171:\n    /* \"#utility.yul\":8019:8063   */\n  swap5\n  pop\n    /* \"#utility.yul\":7361:8073   */\n  jump(tag_165)\ntag_167:\n    /* \"#utility.yul\":7231:8079   */\n  swap5\n  pop\n  swap5\n  swap3\n  pop\n  pop\n  pop\n  jump\t// out\n    /* \"#utility.yul\":8085:9158   */\ntag_77:\n    /* \"#utility.yul\":8139:8144   */\n  0x00\n    /* \"#utility.yul\":8330:8338   */\n  dup3\n    /* \"#utility.yul\":8320:8360   */\n  tag_173\n  jumpi\n    /* \"#utility.yul\":8351:8352   */\n  0x01\n    /* \"#utility.yul\":8342:8352   */\n  swap1\n  pop\n    /* \"#utility.yul\":8353:8358   */\n  jump(tag_172)\n    /* \"#utility.yul\":8320:8360   */\ntag_173:\n    /* \"#utility.yul\":8379:8383   */\n  dup2\n    /* \"#utility.yul\":8369:8405   */\n  tag_174\n  jumpi\n    /* \"#utility.yul\":8396:8397   */\n  0x00\n    /* \"#utility.yul\":8387:8397   */\n  swap1\n  pop\n    /* \"#utility.yul\":8398:8403   */\n  jump(tag_172)\n    /* \"#utility.yul\":8369:8405   */\ntag_174:\n    /* \"#utility.yul\":8465:8469   */\n  dup2\n    /* \"#utility.yul\":8513:8514   */\n  0x01\n    /* \"#utility.yul\":8508:8535   */\n  dup2\n  eq\n  tag_176\n  jumpi\n    /* \"#utility.yul\":8549:8550   */\n  0x02\n    /* \"#utility.yul\":8544:8735   */\n  dup2\n  eq\n  tag_177\n  jumpi\n    /* \"#utility.yul\":8458:8735   */\n  jump(tag_175)\n    /* \"#utility.yul\":8508:8535   */\ntag_176:\n    /* \"#utility.yul\":8526:8527   */\n  0x01\n    /* \"#utility.yul\":8517:8527   */\n  swap2\n  pop\n    /* \"#utility.yul\":8528:8533   */\n  pop\n  jump(tag_172)\n    /* \"#utility.yul\":8544:8735   */\ntag_177:\n    /* \"#utility.yul\":8589:8592   */\n  0xff\n    /* \"#utility.yul\":8579:8587   */\n  dup5\n    /* \"#utility.yul\":8576:8593   */\n  gt\n    /* \"#utility.yul\":8573:8616   */\n  iszero\n  tag_178\n  jumpi\n    /* \"#utility.yul\":8596:8614   */\n  tag_179\n  tag_74\n  jump\t// in\ntag_179:\n    /* \"#utility.yul\":8573:8616   */\ntag_178:\n    /* \"#utility.yul\":8645:8653   */\n  dup4\n    /* \"#utility.yul\":8642:8643   */\n  0x02\n    /* \"#utility.yul\":8638:8654   */\n  exp\n    /* \"#utility.yul\":8629:8654   */\n  swap2\n  pop\n    /* \"#utility.yul\":8680:8683   */\n  dup5\n    /* \"#utility.yul\":8673:8678   */\n  dup3\n    /* \"#utility.yul\":8670:8684   */\n  gt\n    /* \"#utility.yul\":8667:8707   */\n  iszero\n  tag_180\n  jumpi\n    /* \"#utility.yul\":8687:8705   */\n  tag_181\n  tag_74\n  jump\t// in\ntag_181:\n    /* \"#utility.yul\":8667:8707   */\ntag_180:\n    /* \"#utility.yul\":8720:8725   */\n  pop\n  jump(tag_172)\n    /* \"#utility.yul\":8458:8735   */\ntag_175:\n  pop\n    /* \"#utility.yul\":8844:8846   */\n  0x20\n    /* \"#utility.yul\":8834:8842   */\n  dup4\n    /* \"#utility.yul\":8831:8847   */\n  lt\n    /* \"#utility.yul\":8825:8828   */\n  0x0133\n    /* \"#utility.yul\":8819:8823   */\n  dup4\n    /* \"#utility.yul\":8816:8829   */\n  lt\n    /* \"#utility.yul\":8812:8848   */\n  and\n    /* \"#utility.yul\":8794:8796   */\n  0x4e\n    /* \"#utility.yul\":8784:8792   */\n  dup5\n    /* \"#utility.yul\":8781:8797   */\n  lt\n    /* \"#utility.yul\":8776:8778   */\n  0x0b\n    /* \"#utility.yul\":8770:8774   */\n  dup5\n    /* \"#utility.yul\":8767:8779   */\n  lt\n    /* \"#utility.yul\":8763:8798   */\n  and\n    /* \"#utility.yul\":8747:8858   */\n  or\n    /* \"#utility.yul\":8744:8990   */\n  iszero\n  tag_182\n  jumpi\n    /* \"#utility.yul\":8900:8908   */\n  dup3\n    /* \"#utility.yul\":8894:8898   */\n  dup3\n    /* \"#utility.yul\":8890:8909   */\n  exp\n    /* \"#utility.yul\":8881:8909   */\n  swap1\n  pop\n    /* \"#utility.yul\":8935:8938   */\n  dup4\n    /* \"#utility.yul\":8928:8933   */\n  dup2\n    /* \"#utility.yul\":8925:8939   */\n  gt\n    /* \"#utility.yul\":8922:8962   */\n  iszero\n  tag_183\n  jumpi\n    /* \"#utility.yul\":8942:8960   */\n  tag_184\n  tag_74\n  jump\t// in\ntag_184:\n    /* \"#utility.yul\":8922:8962   */\ntag_183:\n    /* \"#utility.yul\":8975:8980   */\n  jump(tag_172)\n    /* \"#utility.yul\":8744:8990   */\ntag_182:\n    /* \"#utility.yul\":9015:9057   */\n  tag_185\n    /* \"#utility.yul\":9053:9056   */\n  dup5\n    /* \"#utility.yul\":9043:9051   */\n  dup5\n    /* \"#utility.yul\":9037:9041   */\n  dup5\n    /* \"#utility.yul\":9034:9035   */\n  0x01\n    /* \"#utility.yul\":9015:9057   */\n  tag_76\n  jump\t// in\ntag_185:\n    /* \"#utility.yul\":9000:9057   */\n  swap3\n  pop\n  swap1\n  pop\n    /* \"#utility.yul\":9089:9093   */\n  dup2\n    /* \"#utility.yul\":9084:9087   */\n  dup5\n    /* \"#utility.yul\":9080:9094   */\n  div\n    /* \"#utility.yul\":9073:9078   */\n  dup2\n    /* \"#utility.yul\":9070:9095   */\n  gt\n    /* \"#utility.yul\":9067:9118   */\n  iszero\n  tag_186\n  jumpi\n    /* \"#utility.yul\":9098:9116   */\n  tag_187\n  tag_74\n  jump\t// in\ntag_187:\n    /* \"#utility.yul\":9067:9118   */\ntag_186:\n    /* \"#utility.yul\":9147:9151   */\n  dup2\n    /* \"#utility.yul\":9140:9145   */\n  dup2\n    /* \"#utility.yul\":9136:9152   */\n  mul\n    /* \"#utility.yul\":9127:9152   */\n  swap1\n  pop\n    /* \"#utility.yul\":8085:9158   */\ntag_172:\n  swap4\n  swap3\n  pop\n  pop\n  pop\n  jump\t// out\n    /* \"#utility.yul\":9164:9250   */\ntag_78:\n    /* \"#utility.yul\":9199:9206   */\n  0x00\n    /* \"#utility.yul\":9239:9243   */\n  0xff\n    /* \"#utility.yul\":9232:9237   */\n  dup3\n    /* \"#utility.yul\":9228:9244   */\n  and\n    /* \"#utility.yul\":9217:9244   */\n  swap1\n  pop\n    /* \"#utility.yul\":9164:9250   */\n  swap2\n  swap1\n  pop\n  jump\t// out\n    /* \"#utility.yul\":9256:9537   */\ntag_22:\n    /* \"#utility.yul\":9314:9319   */\n  0x00\n    /* \"#utility.yul\":9338:9361   */\n  tag_190\n    /* \"#utility.yul\":9356:9360   */\n  dup3\n    /* \"#utility.yul\":9338:9361   */\n  tag_61\n  jump\t// in\ntag_190:\n    /* \"#utility.yul\":9330:9361   */\n  swap2\n  pop\n    /* \"#utility.yul\":9382:9407   */\n  tag_191\n    /* \"#utility.yul\":9398:9406   */\n  dup4\n    /* \"#utility.yul\":9382:9407   */\n  tag_78\n  jump\t// in\ntag_191:\n    /* \"#utility.yul\":9370:9407   */\n  swap3\n  pop\n    /* \"#utility.yul\":9426:9530   */\n  tag_192\n    /* \"#utility.yul\":9463:9529   */\n  0xffffffffffffffffffffffffffffffffffffffffffffffffffffffffffffffff\n    /* \"#utility.yul\":9453:9461   */\n  dup5\n    /* \"#utility.yul\":9447:9451   */\n  dup5\n    /* \"#utility.yul\":9426:9530   */\n  tag_77\n  jump\t// in\ntag_192:\n    /* \"#utility.yul\":9417:9530   */\n  swap1\n  pop\n    /* \"#utility.yul\":9256:9537   */\n  swap3\n  swap2\n  pop\n  pop\n  jump\t// out\n    /* \"#utility.yul\":9543:9953   */\ntag_24:\n    /* \"#utility.yul\":9583:9590   */\n  0x00\n    /* \"#utility.yul\":9606:9626   */\n  tag_194\n    /* \"#utility.yul\":9624:9625   */\n  dup3\n    /* \"#utility.yul\":9606:9626   */\n  tag_61\n  jump\t// in\ntag_194:\n    /* \"#utility.yul\":9601:9626   */\n  swap2\n  pop\n    /* \"#utility.yul\":9640:9660   */\n  tag_195\n    /* \"#utility.yul\":9658:9659   */\n  dup4\n    /* \"#utility.yul\":9640:9660   */\n  tag_61\n  jump\t// in\ntag_195:\n    /* \"#utility.yul\":9635:9660   */\n  swap3\n  pop\n    /* \"#utility.yul\":9695:9696   */\n  dup3\n    /* \"#utility.yul\":9692:9693   */\n  dup3\n    /* \"#utility.yul\":9688:9697   */\n  mul\n    /* \"#utility.yul\":9717:9747   */\n  tag_196\n    /* \"#utility.yul\":9735:9746   */\n  dup2\n    /* \"#utility.yul\":9717:9747   */\n  tag_61\n  jump\t// in\ntag_196:\n    /* \"#utility.yul\":9706:9747   */\n  swap2\n  pop\n    /* \"#utility.yul\":9896:9897   */\n  dup3\n    /* \"#utility.yul\":9887:9894   */\n  dup3\n    /* \"#utility.yul\":9883:9898   */\n  div\n    /* \"#utility.yul\":9880:9881   */\n  dup5\n    /* \"#utility.yul\":9877:9899   */\n  eq\n    /* \"#utility.yul\":9857:9858   */\n  dup4\n    /* \"#utility.yul\":9850:9859   */\n  iszero\n    /* \"#utility.yul\":9830:9913   */\n  or\n    /* \"#utility.yul\":9807:9946   */\n  tag_197\n  jumpi\n    /* \"#utility.yul\":9926:9944   */\n  tag_198\n  tag_74\n  jump\t// in\ntag_198:\n    /* \"#utility.yul\":9807:9946   */\ntag_197:\n    /* \"#utility.yul\":9591:9953   */\n  pop\n    /* \"#utility.yul\":9543:9953   */\n  swap3\n  swap2\n  pop\n  pop\n  jump\t// out\n    /* \"#utility.yul\":9959:10150   */\ntag_37:\n    /* \"#utility.yul\":9999:10002   */\n  0x00\n    /* \"#utility.yul\":10018:10038   */\n  tag_200\n    /* \"#utility.yul\":10036:10037   */\n  dup3\n    /* \"#utility.yul\":10018:10038   */\n  tag_61\n  jump\t// in\ntag_200:\n    /* \"#utility.yul\":10013:10038   */\n  swap2\n  pop\n    /* \"#utility.yul\":10052:10072   */\n  tag_201\n    /* \"#utility.yul\":10070:10071   */\n  dup4\n    /* \"#utility.yul\":10052:10072   */\n  tag_61\n  jump\t// in\ntag_201:\n    /* \"#utility.yul\":10047:10072   */\n  swap3\n  pop\n    /* \"#utility.yul\":10095:10096   */\n  dup3\n    /* \"#utility.yul\":10092:10093   */\n  dup3\n    /* \"#utility.yul\":10088:10097   */\n  add\n    /* \"#utility.yul\":10081:10097   */\n  swap1\n  pop\n    /* \"#utility.yul\":10116:10119   */\n  dup1\n    /* \"#utility.yul\":10113:10114   */\n  dup3\n    /* \"#utility.yul\":10110:10120   */\n  gt\n    /* \"#utility.yul\":10107:10143   */\n  iszero\n  tag_202\n  jumpi\n    /* \"#utility.yul\":10123:10141   */\n  tag_203\n  tag_74\n  jump\t// in\ntag_203:\n    /* \"#utility.yul\":10107:10143   */\ntag_202:\n    /* \"#utility.yul\":9959:10150   */\n  swap3\n  swap2\n  pop\n  pop\n  jump\t// out\n    /* \"#utility.yul\":10156:10274   */\ntag_79:\n    /* \"#utility.yul\":10243:10267   */\n  tag_205\n    /* \"#utility.yul\":10261:10266   */\n  dup2\n    /* \"#utility.yul\":10243:10267   */\n  tag_61\n  jump\t// in\ntag_205:\n    /* \"#utility.yul\":10238:10241   */\n  dup3\n    /* \"#utility.yul\":10231:10268   */\n  mstore\n    /* \"#utility.yul\":10156:10274   */\n  pop\n  pop\n  jump\t// out\n    /* \"#utility.yul\":10280:10722   */\ntag_41:\n    /* \"#utility.yul\":10429:10433   */\n  0x00\n    /* \"#utility.yul\":10467:10469   */\n  0x60\n    /* \"#utility.yul\":10456:10465   */\n  dup3\n    /* \"#utility.yul\":10452:10470   */\n  add\n    /* \"#utility.yul\":10444:10470   */\n  swap1\n  pop\n    /* \"#utility.yul\":10480:10551   */\n  tag_207\n    /* \"#utility.yul\":10548:10549   */\n  0x00\n    /* \"#utility.yul\":10537:10546   */\n  dup4\n    /* \"#utility.yul\":10533:10550   */\n  add\n    /* \"#utility.yul\":10524:10530   */\n  dup7\n    /* \"#utility.yul\":10480:10551   */\n  tag_73\n  jump\t// in\ntag_207:\n    /* \"#utility.yul\":10561:10633   */\n  tag_208\n    /* \"#utility.yul\":10629:10631   */\n  0x20\n    /* \"#utility.yul\":10618:10627   */\n  dup4\n    /* \"#utility.yul\":10614:10632   */\n  add\n    /* \"#utility.yul\":10605:10611   */\n  dup6\n    /* \"#utility.yul\":10561:10633   */\n  tag_79\n  jump\t// in\ntag_208:\n    /* \"#utility.yul\":10643:10715   */\n  tag_209\n    /* \"#utility.yul\":10711:10713   */\n  0x40\n    /* \"#utility.yul\":10700:10709   */\n  dup4\n    /* \"#utility.yul\":10696:10714   */\n  add\n    /* \"#utility.yul\":10687:10693   */\n  dup5\n    /* \"#utility.yul\":10643:10715   */\n  tag_79\n  jump\t// in\ntag_209:\n    /* \"#utility.yul\":10280:10722   */\n  swap5\n  swap4\n  pop\n  pop\n  pop\n  pop\n  jump\t// out\n    /* \"#utility.yul\":10728:10950   */\ntag_45:\n    /* \"#utility.yul\":10821:10825   */\n  0x00\n    /* \"#utility.yul\":10859:10861   */\n  0x20\n    /* \"#utility.yul\":10848:10857   */\n  dup3\n    /* \"#utility.yul\":10844:10862   */\n  add\n    /* \"#utility.yul\":10836:10862   */\n  swap1\n  pop\n    /* \"#utility.yul\":10872:10943   */\n  tag_211\n    /* \"#utility.yul\":10940:10941   */\n  0x00\n    /* \"#utility.yul\":10929:10938   */\n  dup4\n    /* \"#utility.yul\":10925:10942   */\n  add\n    /* \"#utility.yul\":10916:10922   */\n  dup5\n    /* \"#utility.yul\":10872:10943   */\n  tag_79\n  jump\t// in\ntag_211:\n    /* \"#utility.yul\":10728:10950   */\n  swap3\n  swap2\n  pop\n  pop\n  jump\t// out\n    /* \"contracts/flibber/flibberToken.sol\":327:4666  contract FIBToken is ERC20, ERC20Burnable, Ownable {... */\ntag_26:\n  dataSize(sub_0)\n  dup1\n  dataOffset(sub_0)\n  0x00\n  codecopy\n  0x00\n  return\nstop\n\nsub_0: assembly {\n        /* \"contracts/flibber/flibberToken.sol\":327:4666  contract FIBToken is ERC20, ERC20Burnable, Ownable {... */\n      mstore(0x40, 0x80)\n      jumpi(tag_1, lt(calldatasize, 0x04))\n      shr(0xe0, calldataload(0x00))\n      dup1\n      0x8da5cb5b\n      gt\n      tag_31\n      jumpi\n      dup1\n      0xc2507ac1\n      gt\n      tag_32\n      jumpi\n      dup1\n      0xdd62ed3e\n      gt\n      tag_33\n      jumpi\n      dup1\n      0xdd62ed3e\n      eq\n      tag_27\n      jumpi\n      dup1\n      0xe086e5ec\n      eq\n      tag_28\n      jumpi\n      dup1\n      0xf2fde38b\n      eq\n      tag_29\n      jumpi\n      dup1\n      0xf7a182f5\n      eq\n      tag_30\n      jumpi\n      jump(tag_2)\n    tag_33:\n      dup1\n      0xc2507ac1\n      eq\n      tag_24\n      jumpi\n      dup1\n      0xd0febe4c\n      eq\n      tag_25\n      jumpi\n      dup1\n      0xd5ace7ba\n      eq\n      tag_26\n      jumpi\n      jump(tag_2)\n    tag_32:\n      dup1\n      0xa9059cbb\n      gt\n      tag_34\n      jumpi\n      dup1\n      0xa9059cbb\n      eq\n      tag_20\n      jumpi\n      dup1\n      0xacde1241\n      eq\n      tag_21\n      jumpi\n      dup1\n      0xae0140b4\n      eq\n      tag_22\n      jumpi\n      dup1\n      0xb8664f59\n      eq\n      tag_23\n      jumpi\n      jump(tag_2)\n    tag_34:\n      dup1\n      0x8da5cb5b\n      eq\n      tag_17\n      jumpi\n      dup1\n      0x8e15f473\n      eq\n      tag_18\n      jumpi\n      dup1\n      0x95d89b41\n      eq\n      tag_19\n      jumpi\n      jump(tag_2)\n    tag_31:\n      dup1\n      0x6c11bcd3\n      gt\n      tag_35\n      jumpi\n      dup1\n      0x724e78da\n      gt\n      tag_36\n      jumpi\n      dup1\n      0x724e78da\n      eq\n      tag_13\n      jumpi\n      dup1\n      0x76697640\n      eq\n      tag_14\n      jumpi\n      dup1\n      0x79cc6790\n      eq\n      tag_15\n      jumpi\n      dup1\n      0x7d1d5d19\n      eq\n      tag_16\n      jumpi\n      jump(tag_2)\n    tag_36:\n      dup1\n      0x6c11bcd3\n      eq\n      tag_10\n      jumpi\n      dup1\n      0x70a08231\n      eq\n      tag_11\n      jumpi\n      dup1\n      0x715018a6\n      eq\n      tag_12\n      jumpi\n      jump(tag_2)\n    tag_35:\n      dup1\n      0x23b872dd\n      gt\n      tag_37\n      jumpi\n      dup1\n      0x23b872dd\n      eq\n      tag_6\n      jumpi\n      dup1\n      0x313ce567\n      eq\n      tag_7\n      jumpi\n      dup1\n      0x40c10f19\n      eq\n      tag_8\n      jumpi\n      dup1\n      0x42966c68\n      eq\n      tag_9\n      jumpi\n      jump(tag_2)\n    tag_37:\n      dup1\n      0x06fdde03\n      eq\n      tag_3\n      jumpi\n      dup1\n      0x095ea7b3\n      eq\n      tag_4\n      jumpi\n      dup1\n      0x18160ddd\n      eq\n      tag_5\n      jumpi\n      jump(tag_2)\n    tag_1:\n      jumpi(tag_2, calldatasize)\n      stop\n    tag_2:\n      0x00\n      dup1\n      revert\n        /* \"@openzeppelin/contracts/token/ERC20/ERC20.sol\":1779:1868  function name() public view virtual returns (string memory) {... */\n    tag_3:\n      callvalue\n      dup1\n      iszero\n      tag_40\n      jumpi\n      0x00\n      dup1\n      revert\n    tag_40:\n      pop\n      tag_41\n      tag_42\n      jump\t// in\n    tag_41:\n      mload(0x40)\n      tag_43\n      swap2\n      swap1\n      tag_44\n      jump\t// in\n    tag_43:\n      mload(0x40)\n      dup1\n      swap2\n      sub\n      swap1\n      return\n        /* \"@openzeppelin/contracts/token/ERC20/ERC20.sol\":3998:4184  function approve(address spender, uint256 value) public virtual returns (bool) {... */\n    tag_4:\n      callvalue\n      dup1\n      iszero\n      tag_45\n      jumpi\n      0x00\n      dup1\n      revert\n    tag_45:\n      pop\n      tag_46\n      0x04\n      dup1\n      calldatasize\n      sub\n      dup2\n      add\n      swap1\n      tag_47\n      swap2\n      swap1\n      tag_48\n      jump\t// in\n    tag_47:\n      tag_49\n      jump\t// in\n    tag_46:\n      mload(0x40)\n      tag_50\n      swap2\n      swap1\n      tag_51\n      jump\t// in\n    tag_50:\n      mload(0x40)\n      dup1\n      swap2\n      sub\n      swap1\n      return\n        /* \"@openzeppelin/contracts/token/ERC20/ERC20.sol\":2849:2946  function totalSupply() public view virtual returns (uint256) {... */\n    tag_5:\n      callvalue\n      dup1\n      iszero\n      tag_52\n      jumpi\n      0x00\n      dup1\n      revert\n    tag_52:\n      pop\n      tag_53\n      tag_54\n      jump\t// in\n    tag_53:\n      mload(0x40)\n      tag_55\n      swap2\n      swap1\n      tag_56\n      jump\t// in\n    tag_55:\n      mload(0x40)\n      dup1\n      swap2\n      sub\n      swap1\n      return\n        /* \"@openzeppelin/contracts/token/ERC20/ERC20.sol\":4776:5020  function transferFrom(address from, address to, uint256 value) public virtual returns (bool) {... */\n    tag_6:\n      callvalue\n      dup1\n      iszero\n      tag_57\n      jumpi\n      0x00\n      dup1\n      revert\n    tag_57:\n      pop\n      tag_58\n      0x04\n      dup1\n      calldatasize\n      sub\n      dup2\n      add\n      swap1\n      tag_59\n      swap2\n      swap1\n      tag_60\n      jump\t// in\n    tag_59:\n      tag_61\n      jump\t// in\n    tag_58:\n      mload(0x40)\n      tag_62\n      swap2\n      swap1\n      tag_51\n      jump\t// in\n    tag_62:\n      mload(0x40)\n      dup1\n      swap2\n      sub\n      swap1\n      return\n        /* \"@openzeppelin/contracts/token/ERC20/ERC20.sol\":2707:2789  function decimals() public view virtual returns (uint8) {... */\n    tag_7:\n      callvalue\n      dup1\n      iszero\n      tag_63\n      jumpi\n      0x00\n      dup1\n      revert\n    tag_63:\n      pop\n      tag_64\n      tag_65\n      jump\t// in\n    tag_64:\n      mload(0x40)\n      tag_66\n      swap2\n      swap1\n      tag_67\n      jump\t// in\n    tag_66:\n      mload(0x40)\n      dup1\n      swap2\n      sub\n      swap1\n      return\n        /* \"contracts/flibber/flibberToken.sol\":4365:4458  function mint(address to, uint256 amount) public onlyOwner {... */\n    tag_8:\n      callvalue\n      dup1\n      iszero\n      tag_68\n      jumpi\n      0x00\n      dup1\n      revert\n    tag_68:\n      pop\n      tag_69\n      0x04\n      dup1\n      calldatasize\n      sub\n      dup2\n      add\n      swap1\n      tag_70\n      swap2\n      swap1\n      tag_48\n      jump\t// in\n    tag_70:\n      tag_71\n      jump\t// in\n    tag_69:\n      stop\n        /* \"@openzeppelin/contracts/token/ERC20/extensions/ERC20Burnable.sol\":618:705  function burn(uint256 value) public virtual {... */\n    tag_9:\n      callvalue\n      dup1\n      iszero\n      tag_72\n      jumpi\n      0x00\n      dup1\n      revert\n    tag_72:\n      pop\n      tag_73\n      0x04\n      dup1\n      calldatasize\n      sub\n      dup2\n      add\n      swap1\n      tag_74\n      swap2\n      swap1\n      tag_75\n      jump\t// in\n    tag_74:\n      tag_76\n      jump\t// in\n    tag_73:\n      stop\n        /* \"contracts/flibber/flibberToken.sol\":3170:3783  function sellTokens(uint256 tokenAmount) public {... */\n    tag_10:\n      callvalue\n      dup1\n      iszero\n      tag_77\n      jumpi\n      0x00\n      dup1\n      revert\n    tag_77:\n      pop\n      tag_78\n      0x04\n      dup1\n      calldatasize\n      sub\n      dup2\n      add\n      swap1\n      tag_79\n      swap2\n      swap1\n      tag_75\n      jump\t// in\n    tag_79:\n      tag_80\n      jump\t// in\n    tag_78:\n      stop\n        /* \"@openzeppelin/contracts/token/ERC20/ERC20.sol\":3004:3120  function balanceOf(address account) public view virtual returns (uint256) {... */\n    tag_11:\n      callvalue\n      dup1\n      iszero\n      tag_81\n      jumpi\n      0x00\n      dup1\n      revert\n    tag_81:\n      pop\n      tag_82\n      0x04\n      dup1\n      calldatasize\n      sub\n      dup2\n      add\n      swap1\n      tag_83\n      swap2\n      swap1\n      tag_84\n      jump\t// in\n    tag_83:\n      tag_85\n      jump\t// in\n    tag_82:\n      mload(0x40)\n      tag_86\n      swap2\n      swap1\n      tag_56\n      jump\t// in\n    tag_86:\n      mload(0x40)\n      dup1\n      swap2\n      sub\n      swap1\n      return\n        /* \"@openzeppelin/contracts/access/Ownable.sol\":2293:2394  function renounceOwnership() public virtual onlyOwner {... */\n    tag_12:\n      callvalue\n      dup1\n      iszero\n      tag_87\n      jumpi\n      0x00\n      dup1\n      revert\n    tag_87:\n      pop\n      tag_88\n      tag_89\n      jump\t// in\n    tag_88:\n      stop\n        /* \"contracts/flibber/flibberToken.sol\":4464:4664  function setPriceFeed(address newPriceFeed) public onlyOwner {... */\n    tag_13:\n      callvalue\n      dup1\n      iszero\n      tag_90\n      jumpi\n      0x00\n      dup1\n      revert\n    tag_90:\n      pop\n      tag_91\n      0x04\n      dup1\n      calldatasize\n      sub\n      dup2\n      add\n      swap1\n      tag_92\n      swap2\n      swap1\n      tag_84\n      jump\t// in\n    tag_92:\n      tag_93\n      jump\t// in\n    tag_91:\n      stop\n        /* \"contracts/flibber/flibberToken.sol\":453:509  uint256 public constant FAUCET_AMOUNT = 9000000000000000 */\n    tag_14:\n      callvalue\n      dup1\n      iszero\n      tag_94\n      jumpi\n      0x00\n      dup1\n      revert\n    tag_94:\n      pop\n      tag_95\n      tag_96\n      jump\t// in\n    tag_95:\n      mload(0x40)\n      tag_97\n      swap2\n      swap1\n      tag_56\n      jump\t// in\n    tag_97:\n      mload(0x40)\n      dup1\n      swap2\n      sub\n      swap1\n      return\n        /* \"@openzeppelin/contracts/token/ERC20/extensions/ERC20Burnable.sol\":1021:1179  function burnFrom(address account, uint256 value) public virtual {... */\n    tag_15:\n      callvalue\n      dup1\n      iszero\n      tag_98\n      jumpi\n      0x00\n      dup1\n      revert\n    tag_98:\n      pop\n      tag_99\n      0x04\n      dup1\n      calldatasize\n      sub\n      dup2\n      add\n      swap1\n      tag_100\n      swap2\n      swap1\n      tag_48\n      jump\t// in\n    tag_100:\n      tag_101\n      jump\t// in\n    tag_99:\n      stop\n        /* \"contracts/flibber/flibberToken.sol\":557:607  uint256 public constant FAUCET_COOLDOWN = 24 hours */\n    tag_16:\n      callvalue\n      dup1\n      iszero\n      tag_102\n      jumpi\n      0x00\n      dup1\n      revert\n    tag_102:\n      pop\n      tag_103\n      tag_104\n      jump\t// in\n    tag_103:\n      mload(0x40)\n      tag_105\n      swap2\n      swap1\n      tag_56\n      jump\t// in\n    tag_105:\n      mload(0x40)\n      dup1\n      swap2\n      sub\n      swap1\n      return\n        /* \"@openzeppelin/contracts/access/Ownable.sol\":1638:1723  function owner() public view virtual returns (address) {... */\n    tag_17:\n      callvalue\n      dup1\n      iszero\n      tag_106\n      jumpi\n      0x00\n      dup1\n      revert\n    tag_106:\n      pop\n      tag_107\n      tag_108\n      jump\t// in\n    tag_107:\n      mload(0x40)\n      tag_109\n      swap2\n      swap1\n      tag_110\n      jump\t// in\n    tag_109:\n      mload(0x40)\n      dup1\n      swap2\n      sub\n      swap1\n      return\n        /* \"contracts/flibber/flibberToken.sol\":2224:2410  function getLatestPrice() public view returns (uint256) {... */\n    tag_18:\n      callvalue\n      dup1\n      iszero\n      tag_111\n      jumpi\n      0x00\n      dup1\n      revert\n    tag_111:\n      pop\n      tag_112\n      tag_113\n      jump\t// in\n    tag_112:\n      mload(0x40)\n      tag_114\n      swap2\n      swap1\n      tag_56\n      jump\t// in\n    tag_114:\n      mload(0x40)\n      dup1\n      swap2\n      sub\n      swap1\n      return\n        /* \"@openzeppelin/contracts/token/ERC20/ERC20.sol\":1981:2074  function symbol() public view virtual returns (string memory) {... */\n    tag_19:\n      callvalue\n      dup1\n      iszero\n      tag_115\n      jumpi\n      0x00\n      dup1\n      revert\n    tag_115:\n      pop\n      tag_116\n      tag_117\n      jump\t// in\n    tag_116:\n      mload(0x40)\n      tag_118\n      swap2\n      swap1\n      tag_44\n      jump\t// in\n    tag_118:\n      mload(0x40)\n      dup1\n      swap2\n      sub\n      swap1\n      return\n        /* \"@openzeppelin/contracts/token/ERC20/ERC20.sol\":3315:3493  function transfer(address to, uint256 value) public virtual returns (bool) {... */\n    tag_20:\n      callvalue\n      dup1\n      iszero\n      tag_119\n      jumpi\n      0x00\n      dup1\n      revert\n    tag_119:\n      pop\n      tag_120\n      0x04\n      dup1\n      calldatasize\n      sub\n      dup2\n      add\n      swap1\n      tag_121\n      swap2\n      swap1\n      tag_48\n      jump\t// in\n    tag_121:\n      tag_122\n      jump\t// in\n    tag_120:\n      mload(0x40)\n      tag_123\n      swap2\n      swap1\n      tag_51\n      jump\t// in\n    tag_123:\n      mload(0x40)\n      dup1\n      swap2\n      sub\n      swap1\n      return\n        /* \"contracts/flibber/flibberToken.sol\":1893:2167  function timeUntilNextFaucet(address user) public view returns (uint256) {... */\n    tag_21:\n      callvalue\n      dup1\n      iszero\n      tag_124\n      jumpi\n      0x00\n      dup1\n      revert\n    tag_124:\n      pop\n      tag_125\n      0x04\n      dup1\n      calldatasize\n      sub\n      dup2\n      add\n      swap1\n      tag_126\n      swap2\n      swap1\n      tag_84\n      jump\t// in\n    tag_126:\n      tag_127\n      jump\t// in\n    tag_125:\n      mload(0x40)\n      tag_128\n      swap2\n      swap1\n      tag_56\n      jump\t// in\n    tag_128:\n      mload(0x40)\n      dup1\n      swap2\n      sub\n      swap1\n      return\n        /* \"contracts/flibber/flibberToken.sol\":3812:4062  function fundFaucet(uint256 amount) public onlyOwner {... */\n    tag_22:\n      callvalue\n      dup1\n      iszero\n      tag_129\n      jumpi\n      0x00\n      dup1\n      revert\n    tag_129:\n      pop\n      tag_130\n      0x04\n      dup1\n      calldatasize\n      sub\n      dup2\n      add\n      swap1\n      tag_131\n      swap2\n      swap1\n      tag_75\n      jump\t// in\n    tag_131:\n      tag_132\n      jump\t// in\n    tag_130:\n      stop\n        /* \"contracts/flibber/flibberToken.sol\":1320:1833  function requestFaucet() public {... */\n    tag_23:\n      callvalue\n      dup1\n      iszero\n      tag_133\n      jumpi\n      0x00\n      dup1\n      revert\n    tag_133:\n      pop\n      tag_134\n      tag_135\n      jump\t// in\n    tag_134:\n      stop\n        /* \"contracts/flibber/flibberToken.sol\":2485:2745  function getTokenAmount(uint256 ethAmount) public view returns (uint256) {... */\n    tag_24:\n      callvalue\n      dup1\n      iszero\n      tag_136\n      jumpi\n      0x00\n      dup1\n      revert\n    tag_136:\n      pop\n      tag_137\n      0x04\n      dup1\n      calldatasize\n      sub\n      dup2\n      add\n      swap1\n      tag_138\n      swap2\n      swap1\n      tag_75\n      jump\t// in\n    tag_138:\n      tag_139\n      jump\t// in\n    tag_137:\n      mload(0x40)\n      tag_140\n      swap2\n      swap1\n      tag_56\n      jump\t// in\n    tag_140:\n      mload(0x40)\n      dup1\n      swap2\n      sub\n      swap1\n      return\n        /* \"contracts/flibber/flibberToken.sol\":2778:3132  function buyTokens() public payable {... */\n    tag_25:\n      tag_141\n      tag_142\n      jump\t// in\n    tag_141:\n      stop\n        /* \"contracts/flibber/flibberToken.sol\":735:787  mapping(address => uint256) public lastFaucetRequest */\n    tag_26:\n      callvalue\n      dup1\n      iszero\n      tag_143\n      jumpi\n      0x00\n      dup1\n      revert\n    tag_143:\n      pop\n      tag_144\n      0x04\n      dup1\n      calldatasize\n      sub\n      dup2\n      add\n      swap1\n      tag_145\n      swap2\n      swap1\n      tag_84\n      jump\t// in\n    tag_145:\n      tag_146\n      jump\t// in\n    tag_144:\n      mload(0x40)\n      tag_147\n      swap2\n      swap1\n      tag_56\n      jump\t// in\n    tag_147:\n      mload(0x40)\n      dup1\n      swap2\n      sub\n      swap1\n      return\n        /* \"@openzeppelin/contracts/token/ERC20/ERC20.sol\":3551:3691  function allowance(address owner, address spender) public view virtual returns (uint256) {... */\n    tag_27:\n      callvalue\n      dup1\n      iszero\n      tag_148\n      jumpi\n      0x00\n      dup1\n      revert\n    tag_148:\n      pop\n      tag_149\n      0x04\n      dup1\n      calldatasize\n      sub\n      dup2\n      add\n      swap1\n      tag_150\n      swap2\n      swap1\n      tag_151\n      jump\t// in\n    tag_150:\n      tag_152\n      jump\t// in\n    tag_149:\n      mload(0x40)\n      tag_153\n      swap2\n      swap1\n      tag_56\n      jump\t// in\n    tag_153:\n      mload(0x40)\n      dup1\n      swap2\n      sub\n      swap1\n      return\n        /* \"contracts/flibber/flibberToken.sol\":4167:4359  function withdrawETH() public onlyOwner {... */\n    tag_28:\n      callvalue\n      dup1\n      iszero\n      tag_154\n      jumpi\n      0x00\n      dup1\n      revert\n    tag_154:\n      pop\n      tag_155\n      tag_156\n      jump\t// in\n    tag_155:\n      stop\n        /* \"@openzeppelin/contracts/access/Ownable.sol\":2543:2758  function transferOwnership(address newOwner) public virtual onlyOwner {... */\n    tag_29:\n      callvalue\n      dup1\n      iszero\n      tag_157\n      jumpi\n      0x00\n      dup1\n      revert\n    tag_157:\n      pop\n      tag_158\n      0x04\n      dup1\n      calldatasize\n      sub\n      dup2\n      add\n      swap1\n      tag_159\n      swap2\n      swap1\n      tag_84\n      jump\t// in\n    tag_159:\n      tag_160\n      jump\t// in\n    tag_158:\n      stop\n        /* \"contracts/flibber/flibberToken.sol\":384:429  uint256 public constant TOKEN_PRICE_USD = 400 */\n    tag_30:\n      callvalue\n      dup1\n      iszero\n      tag_161\n      jumpi\n      0x00\n      dup1\n      revert\n    tag_161:\n      pop\n      tag_162\n      tag_163\n      jump\t// in\n    tag_162:\n      mload(0x40)\n      tag_164\n      swap2\n      swap1\n      tag_56\n      jump\t// in\n    tag_164:\n      mload(0x40)\n      dup1\n      swap2\n      sub\n      swap1\n      return\n        /* \"@openzeppelin/contracts/token/ERC20/ERC20.sol\":1779:1868  function name() public view virtual returns (string memory) {... */\n    tag_42:\n        /* \"@openzeppelin/contracts/token/ERC20/ERC20.sol\":1824:1837  string memory */\n      0x60\n        /* \"@openzeppelin/contracts/token/ERC20/ERC20.sol\":1856:1861  _name */\n      0x03\n        /* \"@openzeppelin/contracts/token/ERC20/ERC20.sol\":1849:1861  return _name */\n      dup1\n      sload\n      tag_166\n      swap1\n      tag_167\n      jump\t// in\n    tag_166:\n      dup1\n      0x1f\n      add\n      0x20\n      dup1\n      swap2\n      div\n      mul\n      0x20\n      add\n      mload(0x40)\n      swap1\n      dup2\n      add\n      0x40\n      mstore\n      dup1\n      swap3\n      swap2\n      swap1\n      dup2\n      dup2\n      mstore\n      0x20\n      add\n      dup3\n      dup1\n      sload\n      tag_168\n      swap1\n      tag_167\n      jump\t// in\n    tag_168:\n      dup1\n      iszero\n      tag_169\n      jumpi\n      dup1\n      0x1f\n      lt\n      tag_170\n      jumpi\n      0x0100\n      dup1\n      dup4\n      sload\n      div\n      mul\n      dup4\n      mstore\n      swap2\n      0x20\n      add\n      swap2\n      jump(tag_169)\n    tag_170:\n      dup3\n      add\n      swap2\n      swap1\n      0x00\n      mstore\n      keccak256(0x00, 0x20)\n      swap1\n    tag_171:\n      dup2\n      sload\n      dup2\n      mstore\n      swap1\n      0x01\n      add\n      swap1\n      0x20\n      add\n      dup1\n      dup4\n      gt\n      tag_171\n      jumpi\n      dup3\n      swap1\n      sub\n      0x1f\n      and\n      dup3\n      add\n      swap2\n    tag_169:\n      pop\n      pop\n      pop\n      pop\n      pop\n      swap1\n      pop\n        /* \"@openzeppelin/contracts/token/ERC20/ERC20.sol\":1779:1868  function name() public view virtual returns (string memory) {... */\n      swap1\n      jump\t// out\n        /* \"@openzeppelin/contracts/token/ERC20/ERC20.sol\":3998:4184  function approve(address spender, uint256 value) public virtual returns (bool) {... */\n    tag_49:\n        /* \"@openzeppelin/contracts/token/ERC20/ERC20.sol\":4071:4075  bool */\n      0x00\n        /* \"@openzeppelin/contracts/token/ERC20/ERC20.sol\":4087:4100  address owner */\n      dup1\n        /* \"@openzeppelin/contracts/token/ERC20/ERC20.sol\":4103:4115  _msgSender() */\n      tag_173\n        /* \"@openzeppelin/contracts/token/ERC20/ERC20.sol\":4103:4113  _msgSender */\n      tag_174\n        /* \"@openzeppelin/contracts/token/ERC20/ERC20.sol\":4103:4115  _msgSender() */\n      jump\t// in\n    tag_173:\n        /* \"@openzeppelin/contracts/token/ERC20/ERC20.sol\":4087:4115  address owner = _msgSender() */\n      swap1\n      pop\n        /* \"@openzeppelin/contracts/token/ERC20/ERC20.sol\":4125:4156  _approve(owner, spender, value) */\n      tag_175\n        /* \"@openzeppelin/contracts/token/ERC20/ERC20.sol\":4134:4139  owner */\n      dup2\n        /* \"@openzeppelin/contracts/token/ERC20/ERC20.sol\":4141:4148  spender */\n      dup6\n        /* \"@openzeppelin/contracts/token/ERC20/ERC20.sol\":4150:4155  value */\n      dup6\n        /* \"@openzeppelin/contracts/token/ERC20/ERC20.sol\":4125:4133  _approve */\n      tag_176\n        /* \"@openzeppelin/contracts/token/ERC20/ERC20.sol\":4125:4156  _approve(owner, spender, value) */\n      jump\t// in\n    tag_175:\n        /* \"@openzeppelin/contracts/token/ERC20/ERC20.sol\":4173:4177  true */\n      0x01\n        /* \"@openzeppelin/contracts/token/ERC20/ERC20.sol\":4166:4177  return true */\n      swap2\n      pop\n      pop\n        /* \"@openzeppelin/contracts/token/ERC20/ERC20.sol\":3998:4184  function approve(address spender, uint256 value) public virtual returns (bool) {... */\n      swap3\n      swap2\n      pop\n      pop\n      jump\t// out\n        /* \"@openzeppelin/contracts/token/ERC20/ERC20.sol\":2849:2946  function totalSupply() public view virtual returns (uint256) {... */\n    tag_54:\n        /* \"@openzeppelin/contracts/token/ERC20/ERC20.sol\":2901:2908  uint256 */\n      0x00\n        /* \"@openzeppelin/contracts/token/ERC20/ERC20.sol\":2927:2939  _totalSupply */\n      sload(0x02)\n        /* \"@openzeppelin/contracts/token/ERC20/ERC20.sol\":2920:2939  return _totalSupply */\n      swap1\n      pop\n        /* \"@openzeppelin/contracts/token/ERC20/ERC20.sol\":2849:2946  function totalSupply() public view virtual returns (uint256) {... */\n      swap1\n      jump\t// out\n        /* \"@openzeppelin/contracts/token/ERC20/ERC20.sol\":4776:5020  function transferFrom(address from, address to, uint256 value) public virtual returns (bool) {... */\n    tag_61:\n        /* \"@openzeppelin/contracts/token/ERC20/ERC20.sol\":4863:4867  bool */\n      0x00\n        /* \"@openzeppelin/contracts/token/ERC20/ERC20.sol\":4879:4894  address spender */\n      dup1\n        /* \"@openzeppelin/contracts/token/ERC20/ERC20.sol\":4897:4909  _msgSender() */\n      tag_179\n        /* \"@openzeppelin/contracts/token/ERC20/ERC20.sol\":4897:4907  _msgSender */\n      tag_174\n        /* \"@openzeppelin/contracts/token/ERC20/ERC20.sol\":4897:4909  _msgSender() */\n      jump\t// in\n    tag_179:\n        /* \"@openzeppelin/contracts/token/ERC20/ERC20.sol\":4879:4909  address spender = _msgSender() */\n      swap1\n      pop\n        /* \"@openzeppelin/contracts/token/ERC20/ERC20.sol\":4919:4956  _spendAllowance(from, spender, value) */\n      tag_180\n        /* \"@openzeppelin/contracts/token/ERC20/ERC20.sol\":4935:4939  from */\n      dup6\n        /* \"@openzeppelin/contracts/token/ERC20/ERC20.sol\":4941:4948  spender */\n      dup3\n        /* \"@openzeppelin/contracts/token/ERC20/ERC20.sol\":4950:4955  value */\n      dup6\n        /* \"@openzeppelin/contracts/token/ERC20/ERC20.sol\":4919:4934  _spendAllowance */\n      tag_181\n        /* \"@openzeppelin/contracts/token/ERC20/ERC20.sol\":4919:4956  _spendAllowance(from, spender, value) */\n      jump\t// in\n    tag_180:\n        /* \"@openzeppelin/contracts/token/ERC20/ERC20.sol\":4966:4992  _transfer(from, to, value) */\n      tag_182\n        /* \"@openzeppelin/contracts/token/ERC20/ERC20.sol\":4976:4980  from */\n      dup6\n        /* \"@openzeppelin/contracts/token/ERC20/ERC20.sol\":4982:4984  to */\n      dup6\n        /* \"@openzeppelin/contracts/token/ERC20/ERC20.sol\":4986:4991  value */\n      dup6\n        /* \"@openzeppelin/contracts/token/ERC20/ERC20.sol\":4966:4975  _transfer */\n      tag_183\n        /* \"@openzeppelin/contracts/token/ERC20/ERC20.sol\":4966:4992  _transfer(from, to, value) */\n      jump\t// in\n    tag_182:\n        /* \"@openzeppelin/contracts/token/ERC20/ERC20.sol\":5009:5013  true */\n      0x01\n        /* \"@openzeppelin/contracts/token/ERC20/ERC20.sol\":5002:5013  return true */\n      swap2\n      pop\n      pop\n        /* \"@openzeppelin/contracts/token/ERC20/ERC20.sol\":4776:5020  function transferFrom(address from, address to, uint256 value) public virtual returns (bool) {... */\n      swap4\n      swap3\n      pop\n      pop\n      pop\n      jump\t// out\n        /* \"@openzeppelin/contracts/token/ERC20/ERC20.sol\":2707:2789  function decimals() public view virtual returns (uint8) {... */\n    tag_65:\n        /* \"@openzeppelin/contracts/token/ERC20/ERC20.sol\":2756:2761  uint8 */\n      0x00\n        /* \"@openzeppelin/contracts/token/ERC20/ERC20.sol\":2780:2782  18 */\n      0x12\n        /* \"@openzeppelin/contracts/token/ERC20/ERC20.sol\":2773:2782  return 18 */\n      swap1\n      pop\n        /* \"@openzeppelin/contracts/token/ERC20/ERC20.sol\":2707:2789  function decimals() public view virtual returns (uint8) {... */\n      swap1\n      jump\t// out\n        /* \"contracts/flibber/flibberToken.sol\":4365:4458  function mint(address to, uint256 amount) public onlyOwner {... */\n    tag_71:\n        /* \"@openzeppelin/contracts/access/Ownable.sol\":1531:1544  _checkOwner() */\n      tag_186\n        /* \"@openzeppelin/contracts/access/Ownable.sol\":1531:1542  _checkOwner */\n      tag_187\n        /* \"@openzeppelin/contracts/access/Ownable.sol\":1531:1544  _checkOwner() */\n      jump\t// in\n    tag_186:\n        /* \"contracts/flibber/flibberToken.sol\":4434:4451  _mint(to, amount) */\n      tag_189\n        /* \"contracts/flibber/flibberToken.sol\":4440:4442  to */\n      dup3\n        /* \"contracts/flibber/flibberToken.sol\":4444:4450  amount */\n      dup3\n        /* \"contracts/flibber/flibberToken.sol\":4434:4439  _mint */\n      tag_190\n        /* \"contracts/flibber/flibberToken.sol\":4434:4451  _mint(to, amount) */\n      jump\t// in\n    tag_189:\n        /* \"contracts/flibber/flibberToken.sol\":4365:4458  function mint(address to, uint256 amount) public onlyOwner {... */\n      pop\n      pop\n      jump\t// out\n        /* \"@openzeppelin/contracts/token/ERC20/extensions/ERC20Burnable.sol\":618:705  function burn(uint256 value) public virtual {... */\n    tag_76:\n        /* \"@openzeppelin/contracts/token/ERC20/extensions/ERC20Burnable.sol\":672:698  _burn(_msgSender(), value) */\n      tag_192\n        /* \"@openzeppelin/contracts/token/ERC20/extensions/ERC20Burnable.sol\":678:690  _msgSender() */\n      tag_193\n        /* \"@openzeppelin/contracts/token/ERC20/extensions/ERC20Burnable.sol\":678:688  _msgSender */\n      tag_174\n        /* \"@openzeppelin/contracts/token/ERC20/extensions/ERC20Burnable.sol\":678:690  _msgSender() */\n      jump\t// in\n    tag_193:\n        /* \"@openzeppelin/contracts/token/ERC20/extensions/ERC20Burnable.sol\":692:697  value */\n      dup3\n        /* \"@openzeppelin/contracts/token/ERC20/extensions/ERC20Burnable.sol\":672:677  _burn */\n      tag_194\n        /* \"@openzeppelin/contracts/token/ERC20/extensions/ERC20Burnable.sol\":672:698  _burn(_msgSender(), value) */\n      jump\t// in\n    tag_192:\n        /* \"@openzeppelin/contracts/token/ERC20/extensions/ERC20Burnable.sol\":618:705  function burn(uint256 value) public virtual {... */\n      pop\n      jump\t// out\n        /* \"contracts/flibber/flibberToken.sol\":3170:3783  function sellTokens(uint256 tokenAmount) public {... */\n    tag_80:\n        /* \"contracts/flibber/flibberToken.sol\":3250:3251  0 */\n      0x00\n        /* \"contracts/flibber/flibberToken.sol\":3236:3247  tokenAmount */\n      dup2\n        /* \"contracts/flibber/flibberToken.sol\":3236:3251  tokenAmount > 0 */\n      gt\n        /* \"contracts/flibber/flibberToken.sol\":3228:3284  require(tokenAmount > 0, \"Must sell more than 0 tokens\") */\n      tag_196\n      jumpi\n      mload(0x40)\n      0x08c379a000000000000000000000000000000000000000000000000000000000\n      dup2\n      mstore\n      0x04\n      add\n      tag_197\n      swap1\n      tag_198\n      jump\t// in\n    tag_197:\n      mload(0x40)\n      dup1\n      swap2\n      sub\n      swap1\n      revert\n    tag_196:\n        /* \"contracts/flibber/flibberToken.sol\":3327:3338  tokenAmount */\n      dup1\n        /* \"contracts/flibber/flibberToken.sol\":3302:3323  balanceOf(msg.sender) */\n      tag_199\n        /* \"contracts/flibber/flibberToken.sol\":3312:3322  msg.sender */\n      caller\n        /* \"contracts/flibber/flibberToken.sol\":3302:3311  balanceOf */\n      tag_85\n        /* \"contracts/flibber/flibberToken.sol\":3302:3323  balanceOf(msg.sender) */\n      jump\t// in\n    tag_199:\n        /* \"contracts/flibber/flibberToken.sol\":3302:3338  balanceOf(msg.sender) >= tokenAmount */\n      lt\n      iszero\n        /* \"contracts/flibber/flibberToken.sol\":3294:3369  require(balanceOf(msg.sender) >= tokenAmount, \"Insufficient token balance\") */\n      tag_200\n      jumpi\n      mload(0x40)\n      0x08c379a000000000000000000000000000000000000000000000000000000000\n      dup2\n      mstore\n      0x04\n      add\n      tag_201\n      swap1\n      tag_202\n      jump\t// in\n    tag_201:\n      mload(0x40)\n      dup1\n      swap2\n      sub\n      swap1\n      revert\n    tag_200:\n        /* \"contracts/flibber/flibberToken.sol\":3380:3399  uint256 ethUsdPrice */\n      0x00\n        /* \"contracts/flibber/flibberToken.sol\":3402:3418  getLatestPrice() */\n      tag_203\n        /* \"contracts/flibber/flibberToken.sol\":3402:3416  getLatestPrice */\n      tag_113\n        /* \"contracts/flibber/flibberToken.sol\":3402:3418  getLatestPrice() */\n      jump\t// in\n    tag_203:\n        /* \"contracts/flibber/flibberToken.sol\":3380:3418  uint256 ethUsdPrice = getLatestPrice() */\n      swap1\n      pop\n        /* \"contracts/flibber/flibberToken.sol\":3428:3444  uint256 usdValue */\n      0x00\n        /* \"contracts/flibber/flibberToken.sol\":426:429  400 */\n      0x0190\n        /* \"contracts/flibber/flibberToken.sol\":3447:3458  tokenAmount */\n      dup4\n        /* \"contracts/flibber/flibberToken.sol\":3447:3476  tokenAmount * TOKEN_PRICE_USD */\n      tag_204\n      swap2\n      swap1\n      tag_205\n      jump\t// in\n    tag_204:\n        /* \"contracts/flibber/flibberToken.sol\":3428:3476  uint256 usdValue = tokenAmount * TOKEN_PRICE_USD */\n      swap1\n      pop\n        /* \"contracts/flibber/flibberToken.sol\":3486:3503  uint256 ethAmount */\n      0x00\n        /* \"contracts/flibber/flibberToken.sol\":3526:3537  ethUsdPrice */\n      dup3\n        /* \"contracts/flibber/flibberToken.sol\":3518:3522  1e18 */\n      0x0de0b6b3a7640000\n        /* \"contracts/flibber/flibberToken.sol\":3507:3515  usdValue */\n      dup4\n        /* \"contracts/flibber/flibberToken.sol\":3507:3522  usdValue * 1e18 */\n      tag_206\n      swap2\n      swap1\n      tag_205\n      jump\t// in\n    tag_206:\n        /* \"contracts/flibber/flibberToken.sol\":3506:3537  (usdValue * 1e18) / ethUsdPrice */\n      tag_207\n      swap2\n      swap1\n      tag_208\n      jump\t// in\n    tag_207:\n        /* \"contracts/flibber/flibberToken.sol\":3486:3537  uint256 ethAmount = (usdValue * 1e18) / ethUsdPrice */\n      swap1\n      pop\n        /* \"contracts/flibber/flibberToken.sol\":3581:3590  ethAmount */\n      dup1\n        /* \"contracts/flibber/flibberToken.sol\":3556:3577  address(this).balance */\n      selfbalance\n        /* \"contracts/flibber/flibberToken.sol\":3556:3590  address(this).balance >= ethAmount */\n      lt\n      iszero\n        /* \"contracts/flibber/flibberToken.sol\":3548:3624  require(address(this).balance >= ethAmount, \"Insufficient contract balance\") */\n      tag_209\n      jumpi\n      mload(0x40)\n      0x08c379a000000000000000000000000000000000000000000000000000000000\n      dup2\n      mstore\n      0x04\n      add\n      tag_210\n      swap1\n      tag_211\n      jump\t// in\n    tag_210:\n      mload(0x40)\n      dup1\n      swap2\n      sub\n      swap1\n      revert\n    tag_209:\n        /* \"contracts/flibber/flibberToken.sol\":3635:3665  _burn(msg.sender, tokenAmount) */\n      tag_212\n        /* \"contracts/flibber/flibberToken.sol\":3641:3651  msg.sender */\n      caller\n        /* \"contracts/flibber/flibberToken.sol\":3653:3664  tokenAmount */\n      dup6\n        /* \"contracts/flibber/flibberToken.sol\":3635:3640  _burn */\n      tag_194\n        /* \"contracts/flibber/flibberToken.sol\":3635:3665  _burn(msg.sender, tokenAmount) */\n      jump\t// in\n    tag_212:\n        /* \"contracts/flibber/flibberToken.sol\":3683:3693  msg.sender */\n      caller\n        /* \"contracts/flibber/flibberToken.sol\":3675:3703  payable(msg.sender).transfer */\n      0xffffffffffffffffffffffffffffffffffffffff\n      and\n        /* \"contracts/flibber/flibberToken.sol\":3675:3714  payable(msg.sender).transfer(ethAmount) */\n      0x08fc\n        /* \"contracts/flibber/flibberToken.sol\":3704:3713  ethAmount */\n      dup3\n        /* \"contracts/flibber/flibberToken.sol\":3675:3714  payable(msg.sender).transfer(ethAmount) */\n      swap1\n      dup2\n      iszero\n      mul\n      swap1\n      mload(0x40)\n      0x00\n      mload(0x40)\n      dup1\n      dup4\n      sub\n      dup2\n      dup6\n      dup9\n      dup9\n      call\n      swap4\n      pop\n      pop\n      pop\n      pop\n      iszero\n      dup1\n      iszero\n      tag_214\n      jumpi\n      returndatasize\n      0x00\n      dup1\n      returndatacopy\n      revert(0x00, returndatasize)\n    tag_214:\n      pop\n        /* \"contracts/flibber/flibberToken.sol\":3730:3776  TokensSold(msg.sender, tokenAmount, ethAmount) */\n      0x2dcf9433d75db0d8b1c172641f85e319ffe4ad22e108a95d1847ceb906e5195d\n        /* \"contracts/flibber/flibberToken.sol\":3741:3751  msg.sender */\n      caller\n        /* \"contracts/flibber/flibberToken.sol\":3753:3764  tokenAmount */\n      dup6\n        /* \"contracts/flibber/flibberToken.sol\":3766:3775  ethAmount */\n      dup4\n        /* \"contracts/flibber/flibberToken.sol\":3730:3776  TokensSold(msg.sender, tokenAmount, ethAmount) */\n      mload(0x40)\n      tag_215\n      swap4\n      swap3\n      swap2\n      swap1\n      tag_216\n      jump\t// in\n    tag_215:\n      mload(0x40)\n      dup1\n      swap2\n      sub\n      swap1\n      log1\n        /* \"contracts/flibber/flibberToken.sol\":3218:3783  {... */\n      pop\n      pop\n      pop\n        /* \"contracts/flibber/flibberToken.sol\":3170:3783  function sellTokens(uint256 tokenAmount) public {... */\n      pop\n      jump\t// out\n        /* \"@openzeppelin/contracts/token/ERC20/ERC20.sol\":3004:3120  function balanceOf(address account) public view virtual returns (uint256) {... */\n    tag_85:\n        /* \"@openzeppelin/contracts/token/ERC20/ERC20.sol\":3069:3076  uint256 */\n      0x00\n        /* \"@openzeppelin/contracts/token/ERC20/ERC20.sol\":3095:3104  _balances */\n      dup1\n        /* \"@openzeppelin/contracts/token/ERC20/ERC20.sol\":3095:3113  _balances[account] */\n      0x00\n        /* \"@openzeppelin/contracts/token/ERC20/ERC20.sol\":3105:3112  account */\n      dup4\n        /* \"@openzeppelin/contracts/token/ERC20/ERC20.sol\":3095:3113  _balances[account] */\n      0xffffffffffffffffffffffffffffffffffffffff\n      and\n      0xffffffffffffffffffffffffffffffffffffffff\n      and\n      dup2\n      mstore\n      0x20\n      add\n      swap1\n      dup2\n      mstore\n      0x20\n      add\n      0x00\n      keccak256\n      sload\n        /* \"@openzeppelin/contracts/token/ERC20/ERC20.sol\":3088:3113  return _balances[account] */\n      swap1\n      pop\n        /* \"@openzeppelin/contracts/token/ERC20/ERC20.sol\":3004:3120  function balanceOf(address account) public view virtual returns (uint256) {... */\n      swap2\n      swap1\n      pop\n      jump\t// out\n        /* \"@openzeppelin/contracts/access/Ownable.sol\":2293:2394  function renounceOwnership() public virtual onlyOwner {... */\n    tag_89:\n        /* \"@openzeppelin/contracts/access/Ownable.sol\":1531:1544  _checkOwner() */\n      tag_219\n        /* \"@openzeppelin/contracts/access/Ownable.sol\":1531:1542  _checkOwner */\n      tag_187\n        /* \"@openzeppelin/contracts/access/Ownable.sol\":1531:1544  _checkOwner() */\n      jump\t// in\n    tag_219:\n        /* \"@openzeppelin/contracts/access/Ownable.sol\":2357:2387  _transferOwnership(address(0)) */\n      tag_221\n        /* \"@openzeppelin/contracts/access/Ownable.sol\":2384:2385  0 */\n      0x00\n        /* \"@openzeppelin/contracts/access/Ownable.sol\":2357:2375  _transferOwnership */\n      tag_222\n        /* \"@openzeppelin/contracts/access/Ownable.sol\":2357:2387  _transferOwnership(address(0)) */\n      jump\t// in\n    tag_221:\n        /* \"@openzeppelin/contracts/access/Ownable.sol\":2293:2394  function renounceOwnership() public virtual onlyOwner {... */\n      jump\t// out\n        /* \"contracts/flibber/flibberToken.sol\":4464:4664  function setPriceFeed(address newPriceFeed) public onlyOwner {... */\n    tag_93:\n        /* \"@openzeppelin/contracts/access/Ownable.sol\":1531:1544  _checkOwner() */\n      tag_224\n        /* \"@openzeppelin/contracts/access/Ownable.sol\":1531:1542  _checkOwner */\n      tag_187\n        /* \"@openzeppelin/contracts/access/Ownable.sol\":1531:1544  _checkOwner() */\n      jump\t// in\n    tag_224:\n        /* \"contracts/flibber/flibberToken.sol\":4567:4568  0 */\n      0x00\n        /* \"contracts/flibber/flibberToken.sol\":4543:4569  newPriceFeed != address(0) */\n      0xffffffffffffffffffffffffffffffffffffffff\n      and\n        /* \"contracts/flibber/flibberToken.sol\":4543:4555  newPriceFeed */\n      dup2\n        /* \"contracts/flibber/flibberToken.sol\":4543:4569  newPriceFeed != address(0) */\n      0xffffffffffffffffffffffffffffffffffffffff\n      and\n      sub\n        /* \"contracts/flibber/flibberToken.sol\":4535:4600  require(newPriceFeed != address(0), \"Invalid price feed address\") */\n      tag_226\n      jumpi\n      mload(0x40)\n      0x08c379a000000000000000000000000000000000000000000000000000000000\n      dup2\n      mstore\n      0x04\n      add\n      tag_227\n      swap1\n      tag_228\n      jump\t// in\n    tag_227:\n      mload(0x40)\n      dup1\n      swap2\n      sub\n      swap1\n      revert\n    tag_226:\n        /* \"contracts/flibber/flibberToken.sol\":4644:4656  newPriceFeed */\n      dup1\n        /* \"contracts/flibber/flibberToken.sol\":4610:4619  priceFeed */\n      0x06\n      0x00\n        /* \"contracts/flibber/flibberToken.sol\":4610:4657  priceFeed = AggregatorV3Interface(newPriceFeed) */\n      0x0100\n      exp\n      dup2\n      sload\n      dup2\n      0xffffffffffffffffffffffffffffffffffffffff\n      mul\n      not\n      and\n      swap1\n      dup4\n      0xffffffffffffffffffffffffffffffffffffffff\n      and\n      mul\n      or\n      swap1\n      sstore\n      pop\n        /* \"contracts/flibber/flibberToken.sol\":4464:4664  function setPriceFeed(address newPriceFeed) public onlyOwner {... */\n      pop\n      jump\t// out\n        /* \"contracts/flibber/flibberToken.sol\":453:509  uint256 public constant FAUCET_AMOUNT = 9000000000000000 */\n    tag_96:\n        /* \"contracts/flibber/flibberToken.sol\":493:509  9000000000000000 */\n      0x1ff973cafa8000\n        /* \"contracts/flibber/flibberToken.sol\":453:509  uint256 public constant FAUCET_AMOUNT = 9000000000000000 */\n      dup2\n      jump\t// out\n        /* \"@openzeppelin/contracts/token/ERC20/extensions/ERC20Burnable.sol\":1021:1179  function burnFrom(address account, uint256 value) public virtual {... */\n    tag_101:\n        /* \"@openzeppelin/contracts/token/ERC20/extensions/ERC20Burnable.sol\":1096:1141  _spendAllowance(account, _msgSender(), value) */\n      tag_230\n        /* \"@openzeppelin/contracts/token/ERC20/extensions/ERC20Burnable.sol\":1112:1119  account */\n      dup3\n        /* \"@openzeppelin/contracts/token/ERC20/extensions/ERC20Burnable.sol\":1121:1133  _msgSender() */\n      tag_231\n        /* \"@openzeppelin/contracts/token/ERC20/extensions/ERC20Burnable.sol\":1121:1131  _msgSender */\n      tag_174\n        /* \"@openzeppelin/contracts/token/ERC20/extensions/ERC20Burnable.sol\":1121:1133  _msgSender() */\n      jump\t// in\n    tag_231:\n        /* \"@openzeppelin/contracts/token/ERC20/extensions/ERC20Burnable.sol\":1135:1140  value */\n      dup4\n        /* \"@openzeppelin/contracts/token/ERC20/extensions/ERC20Burnable.sol\":1096:1111  _spendAllowance */\n      tag_181\n        /* \"@openzeppelin/contracts/token/ERC20/extensions/ERC20Burnable.sol\":1096:1141  _spendAllowance(account, _msgSender(), value) */\n      jump\t// in\n    tag_230:\n        /* \"@openzeppelin/contracts/token/ERC20/extensions/ERC20Burnable.sol\":1151:1172  _burn(account, value) */\n      tag_232\n        /* \"@openzeppelin/contracts/token/ERC20/extensions/ERC20Burnable.sol\":1157:1164  account */\n      dup3\n        /* \"@openzeppelin/contracts/token/ERC20/extensions/ERC20Burnable.sol\":1166:1171  value */\n      dup3\n        /* \"@openzeppelin/contracts/token/ERC20/extensions/ERC20Burnable.sol\":1151:1156  _burn */\n      tag_194\n        /* \"@openzeppelin/contracts/token/ERC20/extensions/ERC20Burnable.sol\":1151:1172  _burn(account, value) */\n      jump\t// in\n    tag_232:\n        /* \"@openzeppelin/contracts/token/ERC20/extensions/ERC20Burnable.sol\":1021:1179  function burnFrom(address account, uint256 value) public virtual {... */\n      pop\n      pop\n      jump\t// out\n        /* \"contracts/flibber/flibberToken.sol\":557:607  uint256 public constant FAUCET_COOLDOWN = 24 hours */\n    tag_104:\n        /* \"contracts/flibber/flibberToken.sol\":599:607  24 hours */\n      0x015180\n        /* \"contracts/flibber/flibberToken.sol\":557:607  uint256 public constant FAUCET_COOLDOWN = 24 hours */\n      dup2\n      jump\t// out\n        /* \"@openzeppelin/contracts/access/Ownable.sol\":1638:1723  function owner() public view virtual returns (address) {... */\n    tag_108:\n        /* \"@openzeppelin/contracts/access/Ownable.sol\":1684:1691  address */\n      0x00\n        /* \"@openzeppelin/contracts/access/Ownable.sol\":1710:1716  _owner */\n      0x05\n      0x00\n      swap1\n      sload\n      swap1\n      0x0100\n      exp\n      swap1\n      div\n      0xffffffffffffffffffffffffffffffffffffffff\n      and\n        /* \"@openzeppelin/contracts/access/Ownable.sol\":1703:1716  return _owner */\n      swap1\n      pop\n        /* \"@openzeppelin/contracts/access/Ownable.sol\":1638:1723  function owner() public view virtual returns (address) {... */\n      swap1\n      jump\t// out\n        /* \"contracts/flibber/flibberToken.sol\":2224:2410  function getLatestPrice() public view returns (uint256) {... */\n    tag_113:\n        /* \"contracts/flibber/flibberToken.sol\":2271:2278  uint256 */\n      0x00\n        /* \"contracts/flibber/flibberToken.sol\":2293:2305  int256 price */\n      dup1\n        /* \"contracts/flibber/flibberToken.sol\":2312:2321  priceFeed */\n      0x06\n      0x00\n      swap1\n      sload\n      swap1\n      0x0100\n      exp\n      swap1\n      div\n      0xffffffffffffffffffffffffffffffffffffffff\n      and\n        /* \"contracts/flibber/flibberToken.sol\":2312:2337  priceFeed.latestRoundData */\n      0xffffffffffffffffffffffffffffffffffffffff\n      and\n      0xfeaf968c\n        /* \"contracts/flibber/flibberToken.sol\":2312:2339  priceFeed.latestRoundData() */\n      mload(0x40)\n      dup2\n      0xffffffff\n      and\n      0xe0\n      shl\n      dup2\n      mstore\n      0x04\n      add\n      0xa0\n      mload(0x40)\n      dup1\n      dup4\n      sub\n      dup2\n      dup7\n      gas\n      staticcall\n      iszero\n      dup1\n      iszero\n      tag_236\n      jumpi\n      returndatasize\n      0x00\n      dup1\n      returndatacopy\n      revert(0x00, returndatasize)\n    tag_236:\n      pop\n      pop\n      pop\n      pop\n      mload(0x40)\n      returndatasize\n      not(0x1f)\n      0x1f\n      dup3\n      add\n      and\n      dup3\n      add\n      dup1\n      0x40\n      mstore\n      pop\n      dup2\n      add\n      swap1\n      tag_237\n      swap2\n      swap1\n      tag_238\n      jump\t// in\n    tag_237:\n        /* \"contracts/flibber/flibberToken.sol\":2290:2339  (, int256 price,,,) = priceFeed.latestRoundData() */\n      pop\n      pop\n      pop\n      swap2\n      pop\n      pop\n        /* \"contracts/flibber/flibberToken.sol\":2373:2377  1e10 */\n      0x02540be400\n        /* \"contracts/flibber/flibberToken.sol\":2364:2369  price */\n      dup2\n        /* \"contracts/flibber/flibberToken.sol\":2356:2377  uint256(price) * 1e10 */\n      tag_239\n      swap2\n      swap1\n      tag_205\n      jump\t// in\n    tag_239:\n        /* \"contracts/flibber/flibberToken.sol\":2349:2377  return uint256(price) * 1e10 */\n      swap2\n      pop\n      pop\n        /* \"contracts/flibber/flibberToken.sol\":2224:2410  function getLatestPrice() public view returns (uint256) {... */\n      swap1\n      jump\t// out\n        /* \"@openzeppelin/contracts/token/ERC20/ERC20.sol\":1981:2074  function symbol() public view virtual returns (string memory) {... */\n    tag_117:\n        /* \"@openzeppelin/contracts/token/ERC20/ERC20.sol\":2028:2041  string memory */\n      0x60\n        /* \"@openzeppelin/contracts/token/ERC20/ERC20.sol\":2060:2067  _symbol */\n      0x04\n        /* \"@openzeppelin/contracts/token/ERC20/ERC20.sol\":2053:2067  return _symbol */\n      dup1\n      sload\n      tag_241\n      swap1\n      tag_167\n      jump\t// in\n    tag_241:\n      dup1\n      0x1f\n      add\n      0x20\n      dup1\n      swap2\n      div\n      mul\n      0x20\n      add\n      mload(0x40)\n      swap1\n      dup2\n      add\n      0x40\n      mstore\n      dup1\n      swap3\n      swap2\n      swap1\n      dup2\n      dup2\n      mstore\n      0x20\n      add\n      dup3\n      dup1\n      sload\n      tag_242\n      swap1\n      tag_167\n      jump\t// in\n    tag_242:\n      dup1\n      iszero\n      tag_243\n      jumpi\n      dup1\n      0x1f\n      lt\n      tag_244\n      jumpi\n      0x0100\n      dup1\n      dup4\n      sload\n      div\n      mul\n      dup4\n      mstore\n      swap2\n      0x20\n      add\n      swap2\n      jump(tag_243)\n    tag_244:\n      dup3\n      add\n      swap2\n      swap1\n      0x00\n      mstore\n      keccak256(0x00, 0x20)\n      swap1\n    tag_245:\n      dup2\n      sload\n      dup2\n      mstore\n      swap1\n      0x01\n      add\n      swap1\n      0x20\n      add\n      dup1\n      dup4\n      gt\n      tag_245\n      jumpi\n      dup3\n      swap1\n      sub\n      0x1f\n      and\n      dup3\n      add\n      swap2\n    tag_243:\n      pop\n      pop\n      pop\n      pop\n      pop\n      swap1\n      pop\n        /* \"@openzeppelin/contracts/token/ERC20/ERC20.sol\":1981:2074  function symbol() public view virtual returns (string memory) {... */\n      swap1\n      jump\t// out\n        /* \"@openzeppelin/contracts/token/ERC20/ERC20.sol\":3315:3493  function transfer(address to, uint256 value) public virtual returns (bool) {... */\n    tag_122:\n        /* \"@openzeppelin/contracts/token/ERC20/ERC20.sol\":3384:3388  bool */\n      0x00\n        /* \"@openzeppelin/contracts/token/ERC20/ERC20.sol\":3400:3413  address owner */\n      dup1\n        /* \"@openzeppelin/contracts/token/ERC20/ERC20.sol\":3416:3428  _msgSender() */\n      tag_247\n        /* \"@openzeppelin/contracts/token/ERC20/ERC20.sol\":3416:3426  _msgSender */\n      tag_174\n        /* \"@openzeppelin/contracts/token/ERC20/ERC20.sol\":3416:3428  _msgSender() */\n      jump\t// in\n    tag_247:\n        /* \"@openzeppelin/contracts/token/ERC20/ERC20.sol\":3400:3428  address owner = _msgSender() */\n      swap1\n      pop\n        /* \"@openzeppelin/contracts/token/ERC20/ERC20.sol\":3438:3465  _transfer(owner, to, value) */\n      tag_248\n        /* \"@openzeppelin/contracts/token/ERC20/ERC20.sol\":3448:3453  owner */\n      dup2\n        /* \"@openzeppelin/contracts/token/ERC20/ERC20.sol\":3455:3457  to */\n      dup6\n        /* \"@openzeppelin/contracts/token/ERC20/ERC20.sol\":3459:3464  value */\n      dup6\n        /* \"@openzeppelin/contracts/token/ERC20/ERC20.sol\":3438:3447  _transfer */\n      tag_183\n        /* \"@openzeppelin/contracts/token/ERC20/ERC20.sol\":3438:3465  _transfer(owner, to, value) */\n      jump\t// in\n    tag_248:\n        /* \"@openzeppelin/contracts/token/ERC20/ERC20.sol\":3482:3486  true */\n      0x01\n        /* \"@openzeppelin/contracts/token/ERC20/ERC20.sol\":3475:3486  return true */\n      swap2\n      pop\n      pop\n        /* \"@openzeppelin/contracts/token/ERC20/ERC20.sol\":3315:3493  function transfer(address to, uint256 value) public virtual returns (bool) {... */\n      swap3\n      swap2\n      pop\n      pop\n      jump\t// out\n        /* \"contracts/flibber/flibberToken.sol\":1893:2167  function timeUntilNextFaucet(address user) public view returns (uint256) {... */\n    tag_127:\n        /* \"contracts/flibber/flibberToken.sol\":1957:1964  uint256 */\n      0x00\n        /* \"contracts/flibber/flibberToken.sol\":1976:1994  uint256 timePassed */\n      dup1\n        /* \"contracts/flibber/flibberToken.sol\":2015:2032  lastFaucetRequest */\n      0x07\n        /* \"contracts/flibber/flibberToken.sol\":2015:2038  lastFaucetRequest[user] */\n      0x00\n        /* \"contracts/flibber/flibberToken.sol\":2033:2037  user */\n      dup5\n        /* \"contracts/flibber/flibberToken.sol\":2015:2038  lastFaucetRequest[user] */\n      0xffffffffffffffffffffffffffffffffffffffff\n      and\n      0xffffffffffffffffffffffffffffffffffffffff\n      and\n      dup2\n      mstore\n      0x20\n      add\n      swap1\n      dup2\n      mstore\n      0x20\n      add\n      0x00\n      keccak256\n      sload\n        /* \"contracts/flibber/flibberToken.sol\":1997:2012  block.timestamp */\n      timestamp\n        /* \"contracts/flibber/flibberToken.sol\":1997:2038  block.timestamp - lastFaucetRequest[user] */\n      tag_250\n      swap2\n      swap1\n      tag_251\n      jump\t// in\n    tag_250:\n        /* \"contracts/flibber/flibberToken.sol\":1976:2038  uint256 timePassed = block.timestamp - lastFaucetRequest[user] */\n      swap1\n      pop\n        /* \"contracts/flibber/flibberToken.sol\":599:607  24 hours */\n      0x015180\n        /* \"contracts/flibber/flibberToken.sol\":2052:2062  timePassed */\n      dup2\n        /* \"contracts/flibber/flibberToken.sol\":2052:2081  timePassed >= FAUCET_COOLDOWN */\n      lt\n        /* \"contracts/flibber/flibberToken.sol\":2048:2116  if (timePassed >= FAUCET_COOLDOWN) {... */\n      tag_252\n      jumpi\n        /* \"contracts/flibber/flibberToken.sol\":2104:2105  0 */\n      0x00\n        /* \"contracts/flibber/flibberToken.sol\":2097:2105  return 0 */\n      swap2\n      pop\n      pop\n      jump(tag_249)\n        /* \"contracts/flibber/flibberToken.sol\":2048:2116  if (timePassed >= FAUCET_COOLDOWN) {... */\n    tag_252:\n        /* \"contracts/flibber/flibberToken.sol\":2150:2160  timePassed */\n      dup1\n        /* \"contracts/flibber/flibberToken.sol\":599:607  24 hours */\n      0x015180\n        /* \"contracts/flibber/flibberToken.sol\":2132:2160  FAUCET_COOLDOWN - timePassed */\n      tag_253\n      swap2\n      swap1\n      tag_251\n      jump\t// in\n    tag_253:\n        /* \"contracts/flibber/flibberToken.sol\":2125:2160  return FAUCET_COOLDOWN - timePassed */\n      swap2\n      pop\n      pop\n        /* \"contracts/flibber/flibberToken.sol\":1893:2167  function timeUntilNextFaucet(address user) public view returns (uint256) {... */\n    tag_249:\n      swap2\n      swap1\n      pop\n      jump\t// out\n        /* \"contracts/flibber/flibberToken.sol\":3812:4062  function fundFaucet(uint256 amount) public onlyOwner {... */\n    tag_132:\n        /* \"@openzeppelin/contracts/access/Ownable.sol\":1531:1544  _checkOwner() */\n      tag_255\n        /* \"@openzeppelin/contracts/access/Ownable.sol\":1531:1542  _checkOwner */\n      tag_187\n        /* \"@openzeppelin/contracts/access/Ownable.sol\":1531:1544  _checkOwner() */\n      jump\t// in\n    tag_255:\n        /* \"contracts/flibber/flibberToken.sol\":3892:3893  0 */\n      0x00\n        /* \"contracts/flibber/flibberToken.sol\":3883:3889  amount */\n      dup2\n        /* \"contracts/flibber/flibberToken.sol\":3883:3893  amount > 0 */\n      gt\n        /* \"contracts/flibber/flibberToken.sol\":3875:3927  require(amount > 0, \"Amount must be greater than 0\") */\n      tag_257\n      jumpi\n      mload(0x40)\n      0x08c379a000000000000000000000000000000000000000000000000000000000\n      dup2\n      mstore\n      0x04\n      add\n      tag_258\n      swap1\n      tag_259\n      jump\t// in\n    tag_258:\n      mload(0x40)\n      dup1\n      swap2\n      sub\n      swap1\n      revert\n    tag_257:\n        /* \"contracts/flibber/flibberToken.sol\":3970:3976  amount */\n      dup1\n        /* \"contracts/flibber/flibberToken.sol\":3945:3966  balanceOf(msg.sender) */\n      tag_260\n        /* \"contracts/flibber/flibberToken.sol\":3955:3965  msg.sender */\n      caller\n        /* \"contracts/flibber/flibberToken.sol\":3945:3954  balanceOf */\n      tag_85\n        /* \"contracts/flibber/flibberToken.sol\":3945:3966  balanceOf(msg.sender) */\n      jump\t// in\n    tag_260:\n        /* \"contracts/flibber/flibberToken.sol\":3945:3976  balanceOf(msg.sender) >= amount */\n      lt\n      iszero\n        /* \"contracts/flibber/flibberToken.sol\":3937:4001  require(balanceOf(msg.sender) >= amount, \"Insufficient balance\") */\n      tag_261\n      jumpi\n      mload(0x40)\n      0x08c379a000000000000000000000000000000000000000000000000000000000\n      dup2\n      mstore\n      0x04\n      add\n      tag_262\n      swap1\n      tag_263\n      jump\t// in\n    tag_262:\n      mload(0x40)\n      dup1\n      swap2\n      sub\n      swap1\n      revert\n    tag_261:\n        /* \"contracts/flibber/flibberToken.sol\":4011:4055  _transfer(msg.sender, address(this), amount) */\n      tag_264\n        /* \"contracts/flibber/flibberToken.sol\":4021:4031  msg.sender */\n      caller\n        /* \"contracts/flibber/flibberToken.sol\":4041:4045  this */\n      address\n        /* \"contracts/flibber/flibberToken.sol\":4048:4054  amount */\n      dup4\n        /* \"contracts/flibber/flibberToken.sol\":4011:4020  _transfer */\n      tag_183\n        /* \"contracts/flibber/flibberToken.sol\":4011:4055  _transfer(msg.sender, address(this), amount) */\n      jump\t// in\n    tag_264:\n        /* \"contracts/flibber/flibberToken.sol\":3812:4062  function fundFaucet(uint256 amount) public onlyOwner {... */\n      pop\n      jump\t// out\n        /* \"contracts/flibber/flibberToken.sol\":1320:1833  function requestFaucet() public {... */\n    tag_135:\n        /* \"contracts/flibber/flibberToken.sol\":599:607  24 hours */\n      0x015180\n        /* \"contracts/flibber/flibberToken.sol\":1402:1419  lastFaucetRequest */\n      0x07\n        /* \"contracts/flibber/flibberToken.sol\":1402:1431  lastFaucetRequest[msg.sender] */\n      0x00\n        /* \"contracts/flibber/flibberToken.sol\":1420:1430  msg.sender */\n      caller\n        /* \"contracts/flibber/flibberToken.sol\":1402:1431  lastFaucetRequest[msg.sender] */\n      0xffffffffffffffffffffffffffffffffffffffff\n      and\n      0xffffffffffffffffffffffffffffffffffffffff\n      and\n      dup2\n      mstore\n      0x20\n      add\n      swap1\n      dup2\n      mstore\n      0x20\n      add\n      0x00\n      keccak256\n      sload\n        /* \"contracts/flibber/flibberToken.sol\":1402:1449  lastFaucetRequest[msg.sender] + FAUCET_COOLDOWN */\n      tag_266\n      swap2\n      swap1\n      tag_267\n      jump\t// in\n    tag_266:\n        /* \"contracts/flibber/flibberToken.sol\":1383:1398  block.timestamp */\n      timestamp\n        /* \"contracts/flibber/flibberToken.sol\":1383:1449  block.timestamp >= lastFaucetRequest[msg.sender] + FAUCET_COOLDOWN */\n      lt\n      iszero\n        /* \"contracts/flibber/flibberToken.sol\":1362:1519  require(... */\n      tag_268\n      jumpi\n      mload(0x40)\n      0x08c379a000000000000000000000000000000000000000000000000000000000\n      dup2\n      mstore\n      0x04\n      add\n      tag_269\n      swap1\n      tag_270\n      jump\t// in\n    tag_269:\n      mload(0x40)\n      dup1\n      swap2\n      sub\n      swap1\n      revert\n    tag_268:\n        /* \"contracts/flibber/flibberToken.sol\":493:509  9000000000000000 */\n      0x1ff973cafa8000\n        /* \"contracts/flibber/flibberToken.sol\":1559:1583  balanceOf(address(this)) */\n      tag_271\n        /* \"contracts/flibber/flibberToken.sol\":1577:1581  this */\n      address\n        /* \"contracts/flibber/flibberToken.sol\":1559:1568  balanceOf */\n      tag_85\n        /* \"contracts/flibber/flibberToken.sol\":1559:1583  balanceOf(address(this)) */\n      jump\t// in\n    tag_271:\n        /* \"contracts/flibber/flibberToken.sol\":1559:1600  balanceOf(address(this)) >= FAUCET_AMOUNT */\n      lt\n      iszero\n        /* \"contracts/flibber/flibberToken.sol\":1538:1641  require(... */\n      tag_272\n      jumpi\n      mload(0x40)\n      0x08c379a000000000000000000000000000000000000000000000000000000000\n      dup2\n      mstore\n      0x04\n      add\n      tag_273\n      swap1\n      tag_274\n      jump\t// in\n    tag_273:\n      mload(0x40)\n      dup1\n      swap2\n      sub\n      swap1\n      revert\n    tag_272:\n        /* \"contracts/flibber/flibberToken.sol\":1684:1699  block.timestamp */\n      timestamp\n        /* \"contracts/flibber/flibberToken.sol\":1652:1669  lastFaucetRequest */\n      0x07\n        /* \"contracts/flibber/flibberToken.sol\":1652:1681  lastFaucetRequest[msg.sender] */\n      0x00\n        /* \"contracts/flibber/flibberToken.sol\":1670:1680  msg.sender */\n      caller\n        /* \"contracts/flibber/flibberToken.sol\":1652:1681  lastFaucetRequest[msg.sender] */\n      0xffffffffffffffffffffffffffffffffffffffff\n      and\n      0xffffffffffffffffffffffffffffffffffffffff\n      and\n      dup2\n      mstore\n      0x20\n      add\n      swap1\n      dup2\n      mstore\n      0x20\n      add\n      0x00\n      keccak256\n        /* \"contracts/flibber/flibberToken.sol\":1652:1699  lastFaucetRequest[msg.sender] = block.timestamp */\n      dup2\n      swap1\n      sstore\n      pop\n        /* \"contracts/flibber/flibberToken.sol\":1709:1760  _transfer(address(this), msg.sender, FAUCET_AMOUNT) */\n      tag_275\n        /* \"contracts/flibber/flibberToken.sol\":1727:1731  this */\n      address\n        /* \"contracts/flibber/flibberToken.sol\":1734:1744  msg.sender */\n      caller\n        /* \"contracts/flibber/flibberToken.sol\":493:509  9000000000000000 */\n      0x1ff973cafa8000\n        /* \"contracts/flibber/flibberToken.sol\":1709:1718  _transfer */\n      tag_183\n        /* \"contracts/flibber/flibberToken.sol\":1709:1760  _transfer(address(this), msg.sender, FAUCET_AMOUNT) */\n      jump\t// in\n    tag_275:\n        /* \"contracts/flibber/flibberToken.sol\":1784:1826  FaucetDispensed(msg.sender, FAUCET_AMOUNT) */\n      0x4ccc2cb57d301275bff907df4fcc7431ca6cef9083f95cdc1098086c2360e29a\n        /* \"contracts/flibber/flibberToken.sol\":1800:1810  msg.sender */\n      caller\n        /* \"contracts/flibber/flibberToken.sol\":493:509  9000000000000000 */\n      0x1ff973cafa8000\n        /* \"contracts/flibber/flibberToken.sol\":1784:1826  FaucetDispensed(msg.sender, FAUCET_AMOUNT) */\n      mload(0x40)\n      tag_276\n      swap3\n      swap2\n      swap1\n      tag_277\n      jump\t// in\n    tag_276:\n      mload(0x40)\n      dup1\n      swap2\n      sub\n      swap1\n      log1\n        /* \"contracts/flibber/flibberToken.sol\":1320:1833  function requestFaucet() public {... */\n      jump\t// out\n        /* \"contracts/flibber/flibberToken.sol\":2485:2745  function getTokenAmount(uint256 ethAmount) public view returns (uint256) {... */\n    tag_139:\n        /* \"contracts/flibber/flibberToken.sol\":2549:2556  uint256 */\n      0x00\n        /* \"contracts/flibber/flibberToken.sol\":2568:2587  uint256 ethUsdPrice */\n      dup1\n        /* \"contracts/flibber/flibberToken.sol\":2590:2606  getLatestPrice() */\n      tag_279\n        /* \"contracts/flibber/flibberToken.sol\":2590:2604  getLatestPrice */\n      tag_113\n        /* \"contracts/flibber/flibberToken.sol\":2590:2606  getLatestPrice() */\n      jump\t// in\n    tag_279:\n        /* \"contracts/flibber/flibberToken.sol\":2568:2606  uint256 ethUsdPrice = getLatestPrice() */\n      swap1\n      pop\n        /* \"contracts/flibber/flibberToken.sol\":2616:2637  uint256 ethValueInUsd */\n      0x00\n        /* \"contracts/flibber/flibberToken.sol\":2668:2672  1e18 */\n      0x0de0b6b3a7640000\n        /* \"contracts/flibber/flibberToken.sol\":2653:2664  ethUsdPrice */\n      dup3\n        /* \"contracts/flibber/flibberToken.sol\":2641:2650  ethAmount */\n      dup6\n        /* \"contracts/flibber/flibberToken.sol\":2641:2664  ethAmount * ethUsdPrice */\n      tag_280\n      swap2\n      swap1\n      tag_205\n      jump\t// in\n    tag_280:\n        /* \"contracts/flibber/flibberToken.sol\":2640:2672  (ethAmount * ethUsdPrice) / 1e18 */\n      tag_281\n      swap2\n      swap1\n      tag_208\n      jump\t// in\n    tag_281:\n        /* \"contracts/flibber/flibberToken.sol\":2616:2672  uint256 ethValueInUsd = (ethAmount * ethUsdPrice) / 1e18 */\n      swap1\n      pop\n        /* \"contracts/flibber/flibberToken.sol\":2733:2737  1e18 */\n      0x0de0b6b3a7640000\n        /* \"contracts/flibber/flibberToken.sol\":426:429  400 */\n      0x0190\n        /* \"contracts/flibber/flibberToken.sol\":2715:2737  TOKEN_PRICE_USD * 1e18 */\n      tag_282\n      swap2\n      swap1\n      tag_205\n      jump\t// in\n    tag_282:\n        /* \"contracts/flibber/flibberToken.sol\":2706:2710  1e18 */\n      0x0de0b6b3a7640000\n        /* \"contracts/flibber/flibberToken.sol\":2690:2703  ethValueInUsd */\n      dup3\n        /* \"contracts/flibber/flibberToken.sol\":2690:2710  ethValueInUsd * 1e18 */\n      tag_283\n      swap2\n      swap1\n      tag_205\n      jump\t// in\n    tag_283:\n        /* \"contracts/flibber/flibberToken.sol\":2689:2738  (ethValueInUsd * 1e18) / (TOKEN_PRICE_USD * 1e18) */\n      tag_284\n      swap2\n      swap1\n      tag_208\n      jump\t// in\n    tag_284:\n        /* \"contracts/flibber/flibberToken.sol\":2682:2738  return (ethValueInUsd * 1e18) / (TOKEN_PRICE_USD * 1e18) */\n      swap3\n      pop\n      pop\n      pop\n        /* \"contracts/flibber/flibberToken.sol\":2485:2745  function getTokenAmount(uint256 ethAmount) public view returns (uint256) {... */\n      swap2\n      swap1\n      pop\n      jump\t// out\n        /* \"contracts/flibber/flibberToken.sol\":2778:3132  function buyTokens() public payable {... */\n    tag_142:\n        /* \"contracts/flibber/flibberToken.sol\":2844:2845  0 */\n      0x00\n        /* \"contracts/flibber/flibberToken.sol\":2832:2841  msg.value */\n      callvalue\n        /* \"contracts/flibber/flibberToken.sol\":2832:2845  msg.value > 0 */\n      gt\n        /* \"contracts/flibber/flibberToken.sol\":2824:2877  require(msg.value > 0, \"Must send ETH to buy tokens\") */\n      tag_286\n      jumpi\n      mload(0x40)\n      0x08c379a000000000000000000000000000000000000000000000000000000000\n      dup2\n      mstore\n      0x04\n      add\n      tag_287\n      swap1\n      tag_288\n      jump\t// in\n    tag_287:\n      mload(0x40)\n      dup1\n      swap2\n      sub\n      swap1\n      revert\n    tag_286:\n        /* \"contracts/flibber/flibberToken.sol\":2896:2915  uint256 tokenAmount */\n      0x00\n        /* \"contracts/flibber/flibberToken.sol\":2918:2943  getTokenAmount(msg.value) */\n      tag_289\n        /* \"contracts/flibber/flibberToken.sol\":2933:2942  msg.value */\n      callvalue\n        /* \"contracts/flibber/flibberToken.sol\":2918:2932  getTokenAmount */\n      tag_139\n        /* \"contracts/flibber/flibberToken.sol\":2918:2943  getTokenAmount(msg.value) */\n      jump\t// in\n    tag_289:\n        /* \"contracts/flibber/flibberToken.sol\":2896:2943  uint256 tokenAmount = getTokenAmount(msg.value) */\n      swap1\n      pop\n        /* \"contracts/flibber/flibberToken.sol\":2975:2976  0 */\n      0x00\n        /* \"contracts/flibber/flibberToken.sol\":2961:2972  tokenAmount */\n      dup2\n        /* \"contracts/flibber/flibberToken.sol\":2961:2976  tokenAmount > 0 */\n      gt\n        /* \"contracts/flibber/flibberToken.sol\":2953:3001  require(tokenAmount > 0, \"ETH amount too small\") */\n      tag_290\n      jumpi\n      mload(0x40)\n      0x08c379a000000000000000000000000000000000000000000000000000000000\n      dup2\n      mstore\n      0x04\n      add\n      tag_291\n      swap1\n      tag_292\n      jump\t// in\n    tag_291:\n      mload(0x40)\n      dup1\n      swap2\n      sub\n      swap1\n      revert\n    tag_290:\n        /* \"contracts/flibber/flibberToken.sol\":3020:3050  _mint(msg.sender, tokenAmount) */\n      tag_293\n        /* \"contracts/flibber/flibberToken.sol\":3026:3036  msg.sender */\n      caller\n        /* \"contracts/flibber/flibberToken.sol\":3038:3049  tokenAmount */\n      dup3\n        /* \"contracts/flibber/flibberToken.sol\":3020:3025  _mint */\n      tag_190\n        /* \"contracts/flibber/flibberToken.sol\":3020:3050  _mint(msg.sender, tokenAmount) */\n      jump\t// in\n    tag_293:\n        /* \"contracts/flibber/flibberToken.sol\":3074:3125  TokensPurchased(msg.sender, tokenAmount, msg.value) */\n      0x8fafebcaf9d154343dad25669bfa277f4fbacd7ac6b0c4fed522580e040a0f33\n        /* \"contracts/flibber/flibberToken.sol\":3090:3100  msg.sender */\n      caller\n        /* \"contracts/flibber/flibberToken.sol\":3102:3113  tokenAmount */\n      dup3\n        /* \"contracts/flibber/flibberToken.sol\":3115:3124  msg.value */\n      callvalue\n        /* \"contracts/flibber/flibberToken.sol\":3074:3125  TokensPurchased(msg.sender, tokenAmount, msg.value) */\n      mload(0x40)\n      tag_294\n      swap4\n      swap3\n      swap2\n      swap1\n      tag_216\n      jump\t// in\n    tag_294:\n      mload(0x40)\n      dup1\n      swap2\n      sub\n      swap1\n      log1\n        /* \"contracts/flibber/flibberToken.sol\":2814:3132  {... */\n      pop\n        /* \"contracts/flibber/flibberToken.sol\":2778:3132  function buyTokens() public payable {... */\n      jump\t// out\n        /* \"contracts/flibber/flibberToken.sol\":735:787  mapping(address => uint256) public lastFaucetRequest */\n    tag_146:\n      mstore(0x20, 0x07)\n      dup1\n      0x00\n      mstore\n      keccak256(0x00, 0x40)\n      0x00\n      swap2\n      pop\n      swap1\n      pop\n      sload\n      dup2\n      jump\t// out\n        /* \"@openzeppelin/contracts/token/ERC20/ERC20.sol\":3551:3691  function allowance(address owner, address spender) public view virtual returns (uint256) {... */\n    tag_152:\n        /* \"@openzeppelin/contracts/token/ERC20/ERC20.sol\":3631:3638  uint256 */\n      0x00\n        /* \"@openzeppelin/contracts/token/ERC20/ERC20.sol\":3657:3668  _allowances */\n      0x01\n        /* \"@openzeppelin/contracts/token/ERC20/ERC20.sol\":3657:3675  _allowances[owner] */\n      0x00\n        /* \"@openzeppelin/contracts/token/ERC20/ERC20.sol\":3669:3674  owner */\n      dup5\n        /* \"@openzeppelin/contracts/token/ERC20/ERC20.sol\":3657:3675  _allowances[owner] */\n      0xffffffffffffffffffffffffffffffffffffffff\n      and\n      0xffffffffffffffffffffffffffffffffffffffff\n      and\n      dup2\n      mstore\n      0x20\n      add\n      swap1\n      dup2\n      mstore\n      0x20\n      add\n      0x00\n      keccak256\n        /* \"@openzeppelin/contracts/token/ERC20/ERC20.sol\":3657:3684  _allowances[owner][spender] */\n      0x00\n        /* \"@openzeppelin/contracts/token/ERC20/ERC20.sol\":3676:3683  spender */\n      dup4\n        /* \"@openzeppelin/contracts/token/ERC20/ERC20.sol\":3657:3684  _allowances[owner][spender] */\n      0xffffffffffffffffffffffffffffffffffffffff\n      and\n      0xffffffffffffffffffffffffffffffffffffffff\n      and\n      dup2\n      mstore\n      0x20\n      add\n      swap1\n      dup2\n      mstore\n      0x20\n      add\n      0x00\n      keccak256\n      sload\n        /* \"@openzeppelin/contracts/token/ERC20/ERC20.sol\":3650:3684  return _allowances[owner][spender] */\n      swap1\n      pop\n        /* \"@openzeppelin/contracts/token/ERC20/ERC20.sol\":3551:3691  function allowance(address owner, address spender) public view virtual returns (uint256) {... */\n      swap3\n      swap2\n      pop\n      pop\n      jump\t// out\n        /* \"contracts/flibber/flibberToken.sol\":4167:4359  function withdrawETH() public onlyOwner {... */\n    tag_156:\n        /* \"@openzeppelin/contracts/access/Ownable.sol\":1531:1544  _checkOwner() */\n      tag_297\n        /* \"@openzeppelin/contracts/access/Ownable.sol\":1531:1542  _checkOwner */\n      tag_187\n        /* \"@openzeppelin/contracts/access/Ownable.sol\":1531:1544  _checkOwner() */\n      jump\t// in\n    tag_297:\n        /* \"contracts/flibber/flibberToken.sol\":4217:4232  uint256 balance */\n      0x00\n        /* \"contracts/flibber/flibberToken.sol\":4235:4256  address(this).balance */\n      selfbalance\n        /* \"contracts/flibber/flibberToken.sol\":4217:4256  uint256 balance = address(this).balance */\n      swap1\n      pop\n        /* \"contracts/flibber/flibberToken.sol\":4284:4285  0 */\n      0x00\n        /* \"contracts/flibber/flibberToken.sol\":4274:4281  balance */\n      dup2\n        /* \"contracts/flibber/flibberToken.sol\":4274:4285  balance > 0 */\n      gt\n        /* \"contracts/flibber/flibberToken.sol\":4266:4308  require(balance > 0, \"No ETH to withdraw\") */\n      tag_299\n      jumpi\n      mload(0x40)\n      0x08c379a000000000000000000000000000000000000000000000000000000000\n      dup2\n      mstore\n      0x04\n      add\n      tag_300\n      swap1\n      tag_301\n      jump\t// in\n    tag_300:\n      mload(0x40)\n      dup1\n      swap2\n      sub\n      swap1\n      revert\n    tag_299:\n        /* \"contracts/flibber/flibberToken.sol\":4326:4333  owner() */\n      tag_302\n        /* \"contracts/flibber/flibberToken.sol\":4326:4331  owner */\n      tag_108\n        /* \"contracts/flibber/flibberToken.sol\":4326:4333  owner() */\n      jump\t// in\n    tag_302:\n        /* \"contracts/flibber/flibberToken.sol\":4318:4343  payable(owner()).transfer */\n      0xffffffffffffffffffffffffffffffffffffffff\n      and\n        /* \"contracts/flibber/flibberToken.sol\":4318:4352  payable(owner()).transfer(balance) */\n      0x08fc\n        /* \"contracts/flibber/flibberToken.sol\":4344:4351  balance */\n      dup3\n        /* \"contracts/flibber/flibberToken.sol\":4318:4352  payable(owner()).transfer(balance) */\n      swap1\n      dup2\n      iszero\n      mul\n      swap1\n      mload(0x40)\n      0x00\n      mload(0x40)\n      dup1\n      dup4\n      sub\n      dup2\n      dup6\n      dup9\n      dup9\n      call\n      swap4\n      pop\n      pop\n      pop\n      pop\n      iszero\n      dup1\n      iszero\n      tag_304\n      jumpi\n      returndatasize\n      0x00\n      dup1\n      returndatacopy\n      revert(0x00, returndatasize)\n    tag_304:\n      pop\n        /* \"contracts/flibber/flibberToken.sol\":4207:4359  {... */\n      pop\n        /* \"contracts/flibber/flibberToken.sol\":4167:4359  function withdrawETH() public onlyOwner {... */\n      jump\t// out\n        /* \"@openzeppelin/contracts/access/Ownable.sol\":2543:2758  function transferOwnership(address newOwner) public virtual onlyOwner {... */\n    tag_160:\n        /* \"@openzeppelin/contracts/access/Ownable.sol\":1531:1544  _checkOwner() */\n      tag_306\n        /* \"@openzeppelin/contracts/access/Ownable.sol\":1531:1542  _checkOwner */\n      tag_187\n        /* \"@openzeppelin/contracts/access/Ownable.sol\":1531:1544  _checkOwner() */\n      jump\t// in\n    tag_306:\n        /* \"@openzeppelin/contracts/access/Ownable.sol\":2647:2648  0 */\n      0x00\n        /* \"@openzeppelin/contracts/access/Ownable.sol\":2627:2649  newOwner == address(0) */\n      0xffffffffffffffffffffffffffffffffffffffff\n      and\n        /* \"@openzeppelin/contracts/access/Ownable.sol\":2627:2635  newOwner */\n      dup2\n        /* \"@openzeppelin/contracts/access/Ownable.sol\":2627:2649  newOwner == address(0) */\n      0xffffffffffffffffffffffffffffffffffffffff\n      and\n      sub\n        /* \"@openzeppelin/contracts/access/Ownable.sol\":2623:2714  if (newOwner == address(0)) {... */\n      tag_308\n      jumpi\n        /* \"@openzeppelin/contracts/access/Ownable.sol\":2700:2701  0 */\n      0x00\n        /* \"@openzeppelin/contracts/access/Ownable.sol\":2672:2703  OwnableInvalidOwner(address(0)) */\n      mload(0x40)\n      0x1e4fbdf700000000000000000000000000000000000000000000000000000000\n      dup2\n      mstore\n      0x04\n      add\n      tag_309\n      swap2\n      swap1\n      tag_110\n      jump\t// in\n    tag_309:\n      mload(0x40)\n      dup1\n      swap2\n      sub\n      swap1\n      revert\n        /* \"@openzeppelin/contracts/access/Ownable.sol\":2623:2714  if (newOwner == address(0)) {... */\n    tag_308:\n        /* \"@openzeppelin/contracts/access/Ownable.sol\":2723:2751  _transferOwnership(newOwner) */\n      tag_310\n        /* \"@openzeppelin/contracts/access/Ownable.sol\":2742:2750  newOwner */\n      dup2\n        /* \"@openzeppelin/contracts/access/Ownable.sol\":2723:2741  _transferOwnership */\n      tag_222\n        /* \"@openzeppelin/contracts/access/Ownable.sol\":2723:2751  _transferOwnership(newOwner) */\n      jump\t// in\n    tag_310:\n        /* \"@openzeppelin/contracts/access/Ownable.sol\":2543:2758  function transferOwnership(address newOwner) public virtual onlyOwner {... */\n      pop\n      jump\t// out\n        /* \"contracts/flibber/flibberToken.sol\":384:429  uint256 public constant TOKEN_PRICE_USD = 400 */\n    tag_163:\n        /* \"contracts/flibber/flibberToken.sol\":426:429  400 */\n      0x0190\n        /* \"contracts/flibber/flibberToken.sol\":384:429  uint256 public constant TOKEN_PRICE_USD = 400 */\n      dup2\n      jump\t// out\n        /* \"@openzeppelin/contracts/utils/Context.sol\":656:752  function _msgSender() internal view virtual returns (address) {... */\n    tag_174:\n        /* \"@openzeppelin/contracts/utils/Context.sol\":709:716  address */\n      0x00\n        /* \"@openzeppelin/contracts/utils/Context.sol\":735:745  msg.sender */\n      caller\n        /* \"@openzeppelin/contracts/utils/Context.sol\":728:745  return msg.sender */\n      swap1\n      pop\n        /* \"@openzeppelin/contracts/utils/Context.sol\":656:752  function _msgSender() internal view virtual returns (address) {... */\n      swap1\n      jump\t// out\n        /* \"@openzeppelin/contracts/token/ERC20/ERC20.sol\":8726:8854  function _approve(address owner, address spender, uint256 value) internal {... */\n    tag_176:\n        /* \"@openzeppelin/contracts/token/ERC20/ERC20.sol\":8810:8847  _approve(owner, spender, value, true) */\n      tag_313\n        /* \"@openzeppelin/contracts/token/ERC20/ERC20.sol\":8819:8824  owner */\n      dup4\n        /* \"@openzeppelin/contracts/token/ERC20/ERC20.sol\":8826:8833  spender */\n      dup4\n        /* \"@openzeppelin/contracts/token/ERC20/ERC20.sol\":8835:8840  value */\n      dup4\n        /* \"@openzeppelin/contracts/token/ERC20/ERC20.sol\":8842:8846  true */\n      0x01\n        /* \"@openzeppelin/contracts/token/ERC20/ERC20.sol\":8810:8818  _approve */\n      tag_314\n        /* \"@openzeppelin/contracts/token/ERC20/ERC20.sol\":8810:8847  _approve(owner, spender, value, true) */\n      jump\t// in\n    tag_313:\n        /* \"@openzeppelin/contracts/token/ERC20/ERC20.sol\":8726:8854  function _approve(address owner, address spender, uint256 value) internal {... */\n      pop\n      pop\n      pop\n      jump\t// out\n        /* \"@openzeppelin/contracts/token/ERC20/ERC20.sol\":10415:10891  function _spendAllowance(address owner, address spender, uint256 value) internal virtual {... */\n    tag_181:\n        /* \"@openzeppelin/contracts/token/ERC20/ERC20.sol\":10514:10538  uint256 currentAllowance */\n      0x00\n        /* \"@openzeppelin/contracts/token/ERC20/ERC20.sol\":10541:10566  allowance(owner, spender) */\n      tag_316\n        /* \"@openzeppelin/contracts/token/ERC20/ERC20.sol\":10551:10556  owner */\n      dup5\n        /* \"@openzeppelin/contracts/token/ERC20/ERC20.sol\":10558:10565  spender */\n      dup5\n        /* \"@openzeppelin/contracts/token/ERC20/ERC20.sol\":10541:10550  allowance */\n      tag_152\n        /* \"@openzeppelin/contracts/token/ERC20/ERC20.sol\":10541:10566  allowance(owner, spender) */\n      jump\t// in\n    tag_316:\n        /* \"@openzeppelin/contracts/token/ERC20/ERC20.sol\":10514:10566  uint256 currentAllowance = allowance(owner, spender) */\n      swap1\n      pop\n        /* \"@openzeppelin/contracts/token/ERC20/ERC20.sol\":10599:10616  type(uint256).max */\n      0xffffffffffffffffffffffffffffffffffffffffffffffffffffffffffffffff\n        /* \"@openzeppelin/contracts/token/ERC20/ERC20.sol\":10580:10596  currentAllowance */\n      dup2\n        /* \"@openzeppelin/contracts/token/ERC20/ERC20.sol\":10580:10616  currentAllowance < type(uint256).max */\n      lt\n        /* \"@openzeppelin/contracts/token/ERC20/ERC20.sol\":10576:10885  if (currentAllowance < type(uint256).max) {... */\n      iszero\n      tag_317\n      jumpi\n        /* \"@openzeppelin/contracts/token/ERC20/ERC20.sol\":10655:10660  value */\n      dup2\n        /* \"@openzeppelin/contracts/token/ERC20/ERC20.sol\":10636:10652  currentAllowance */\n      dup2\n        /* \"@openzeppelin/contracts/token/ERC20/ERC20.sol\":10636:10660  currentAllowance < value */\n      lt\n        /* \"@openzeppelin/contracts/token/ERC20/ERC20.sol\":10632:10762  if (currentAllowance < value) {... */\n      iszero\n      tag_318\n      jumpi\n        /* \"@openzeppelin/contracts/token/ERC20/ERC20.sol\":10714:10721  spender */\n      dup3\n        /* \"@openzeppelin/contracts/token/ERC20/ERC20.sol\":10723:10739  currentAllowance */\n      dup2\n        /* \"@openzeppelin/contracts/token/ERC20/ERC20.sol\":10741:10746  value */\n      dup4\n        /* \"@openzeppelin/contracts/token/ERC20/ERC20.sol\":10687:10747  ERC20InsufficientAllowance(spender, currentAllowance, value) */\n      mload(0x40)\n      0xfb8f41b200000000000000000000000000000000000000000000000000000000\n      dup2\n      mstore\n      0x04\n      add\n      tag_319\n      swap4\n      swap3\n      swap2\n      swap1\n      tag_216\n      jump\t// in\n    tag_319:\n      mload(0x40)\n      dup1\n      swap2\n      sub\n      swap1\n      revert\n        /* \"@openzeppelin/contracts/token/ERC20/ERC20.sol\":10632:10762  if (currentAllowance < value) {... */\n    tag_318:\n        /* \"@openzeppelin/contracts/token/ERC20/ERC20.sol\":10803:10860  _approve(owner, spender, currentAllowance - value, false) */\n      tag_320\n        /* \"@openzeppelin/contracts/token/ERC20/ERC20.sol\":10812:10817  owner */\n      dup5\n        /* \"@openzeppelin/contracts/token/ERC20/ERC20.sol\":10819:10826  spender */\n      dup5\n        /* \"@openzeppelin/contracts/token/ERC20/ERC20.sol\":10847:10852  value */\n      dup5\n        /* \"@openzeppelin/contracts/token/ERC20/ERC20.sol\":10828:10844  currentAllowance */\n      dup5\n        /* \"@openzeppelin/contracts/token/ERC20/ERC20.sol\":10828:10852  currentAllowance - value */\n      sub\n        /* \"@openzeppelin/contracts/token/ERC20/ERC20.sol\":10854:10859  false */\n      0x00\n        /* \"@openzeppelin/contracts/token/ERC20/ERC20.sol\":10803:10811  _approve */\n      tag_314\n        /* \"@openzeppelin/contracts/token/ERC20/ERC20.sol\":10803:10860  _approve(owner, spender, currentAllowance - value, false) */\n      jump\t// in\n    tag_320:\n        /* \"@openzeppelin/contracts/token/ERC20/ERC20.sol\":10576:10885  if (currentAllowance < type(uint256).max) {... */\n    tag_317:\n        /* \"@openzeppelin/contracts/token/ERC20/ERC20.sol\":10504:10891  {... */\n      pop\n        /* \"@openzeppelin/contracts/token/ERC20/ERC20.sol\":10415:10891  function _spendAllowance(address owner, address spender, uint256 value) internal virtual {... */\n      pop\n      pop\n      pop\n      jump\t// out\n        /* \"@openzeppelin/contracts/token/ERC20/ERC20.sol\":5393:5693  function _transfer(address from, address to, uint256 value) internal {... */\n    tag_183:\n        /* \"@openzeppelin/contracts/token/ERC20/ERC20.sol\":5492:5493  0 */\n      0x00\n        /* \"@openzeppelin/contracts/token/ERC20/ERC20.sol\":5476:5494  from == address(0) */\n      0xffffffffffffffffffffffffffffffffffffffff\n      and\n        /* \"@openzeppelin/contracts/token/ERC20/ERC20.sol\":5476:5480  from */\n      dup4\n        /* \"@openzeppelin/contracts/token/ERC20/ERC20.sol\":5476:5494  from == address(0) */\n      0xffffffffffffffffffffffffffffffffffffffff\n      and\n      sub\n        /* \"@openzeppelin/contracts/token/ERC20/ERC20.sol\":5472:5558  if (from == address(0)) {... */\n      tag_322\n      jumpi\n        /* \"@openzeppelin/contracts/token/ERC20/ERC20.sol\":5544:5545  0 */\n      0x00\n        /* \"@openzeppelin/contracts/token/ERC20/ERC20.sol\":5517:5547  ERC20InvalidSender(address(0)) */\n      mload(0x40)\n      0x96c6fd1e00000000000000000000000000000000000000000000000000000000\n      dup2\n      mstore\n      0x04\n      add\n      tag_323\n      swap2\n      swap1\n      tag_110\n      jump\t// in\n    tag_323:\n      mload(0x40)\n      dup1\n      swap2\n      sub\n      swap1\n      revert\n        /* \"@openzeppelin/contracts/token/ERC20/ERC20.sol\":5472:5558  if (from == address(0)) {... */\n    tag_322:\n        /* \"@openzeppelin/contracts/token/ERC20/ERC20.sol\":5585:5586  0 */\n      0x00\n        /* \"@openzeppelin/contracts/token/ERC20/ERC20.sol\":5571:5587  to == address(0) */\n      0xffffffffffffffffffffffffffffffffffffffff\n      and\n        /* \"@openzeppelin/contracts/token/ERC20/ERC20.sol\":5571:5573  to */\n      dup3\n        /* \"@openzeppelin/contracts/token/ERC20/ERC20.sol\":5571:5587  to == address(0) */\n      0xffffffffffffffffffffffffffffffffffffffff\n      and\n      sub\n        /* \"@openzeppelin/contracts/token/ERC20/ERC20.sol\":5567:5653  if (to == address(0)) {... */\n      tag_324\n      jumpi\n        /* \"@openzeppelin/contracts/token/ERC20/ERC20.sol\":5639:5640  0 */\n      0x00\n        /* \"@openzeppelin/contracts/token/ERC20/ERC20.sol\":5610:5642  ERC20InvalidReceiver(address(0)) */\n      mload(0x40)\n      0xec442f0500000000000000000000000000000000000000000000000000000000\n      dup2\n      mstore\n      0x04\n      add\n      tag_325\n      swap2\n      swap1\n      tag_110\n      jump\t// in\n    tag_325:\n      mload(0x40)\n      dup1\n      swap2\n      sub\n      swap1\n      revert\n        /* \"@openzeppelin/contracts/token/ERC20/ERC20.sol\":5567:5653  if (to == address(0)) {... */\n    tag_324:\n        /* \"@openzeppelin/contracts/token/ERC20/ERC20.sol\":5662:5686  _update(from, to, value) */\n      tag_326\n        /* \"@openzeppelin/contracts/token/ERC20/ERC20.sol\":5670:5674  from */\n      dup4\n        /* \"@openzeppelin/contracts/token/ERC20/ERC20.sol\":5676:5678  to */\n      dup4\n        /* \"@openzeppelin/contracts/token/ERC20/ERC20.sol\":5680:5685  value */\n      dup4\n        /* \"@openzeppelin/contracts/token/ERC20/ERC20.sol\":5662:5669  _update */\n      tag_327\n        /* \"@openzeppelin/contracts/token/ERC20/ERC20.sol\":5662:5686  _update(from, to, value) */\n      jump\t// in\n    tag_326:\n        /* \"@openzeppelin/contracts/token/ERC20/ERC20.sol\":5393:5693  function _transfer(address from, address to, uint256 value) internal {... */\n      pop\n      pop\n      pop\n      jump\t// out\n        /* \"@openzeppelin/contracts/access/Ownable.sol\":1796:1958  function _checkOwner() internal view virtual {... */\n    tag_187:\n        /* \"@openzeppelin/contracts/access/Ownable.sol\":1866:1878  _msgSender() */\n      tag_329\n        /* \"@openzeppelin/contracts/access/Ownable.sol\":1866:1876  _msgSender */\n      tag_174\n        /* \"@openzeppelin/contracts/access/Ownable.sol\":1866:1878  _msgSender() */\n      jump\t// in\n    tag_329:\n        /* \"@openzeppelin/contracts/access/Ownable.sol\":1855:1878  owner() != _msgSender() */\n      0xffffffffffffffffffffffffffffffffffffffff\n      and\n        /* \"@openzeppelin/contracts/access/Ownable.sol\":1855:1862  owner() */\n      tag_330\n        /* \"@openzeppelin/contracts/access/Ownable.sol\":1855:1860  owner */\n      tag_108\n        /* \"@openzeppelin/contracts/access/Ownable.sol\":1855:1862  owner() */\n      jump\t// in\n    tag_330:\n        /* \"@openzeppelin/contracts/access/Ownable.sol\":1855:1878  owner() != _msgSender() */\n      0xffffffffffffffffffffffffffffffffffffffff\n      and\n      eq\n        /* \"@openzeppelin/contracts/access/Ownable.sol\":1851:1952  if (owner() != _msgSender()) {... */\n      tag_331\n      jumpi\n        /* \"@openzeppelin/contracts/access/Ownable.sol\":1928:1940  _msgSender() */\n      tag_332\n        /* \"@openzeppelin/contracts/access/Ownable.sol\":1928:1938  _msgSender */\n      tag_174\n        /* \"@openzeppelin/contracts/access/Ownable.sol\":1928:1940  _msgSender() */\n      jump\t// in\n    tag_332:\n        /* \"@openzeppelin/contracts/access/Ownable.sol\":1901:1941  OwnableUnauthorizedAccount(_msgSender()) */\n      mload(0x40)\n      0x118cdaa700000000000000000000000000000000000000000000000000000000\n      dup2\n      mstore\n      0x04\n      add\n      tag_333\n      swap2\n      swap1\n      tag_110\n      jump\t// in\n    tag_333:\n      mload(0x40)\n      dup1\n      swap2\n      sub\n      swap1\n      revert\n        /* \"@openzeppelin/contracts/access/Ownable.sol\":1851:1952  if (owner() != _msgSender()) {... */\n    tag_331:\n        /* \"@openzeppelin/contracts/access/Ownable.sol\":1796:1958  function _checkOwner() internal view virtual {... */\n      jump\t// out\n        /* \"@openzeppelin/contracts/token/ERC20/ERC20.sol\":7458:7666  function _mint(address account, uint256 value) internal {... */\n    tag_190:\n        /* \"@openzeppelin/contracts/token/ERC20/ERC20.sol\":7547:7548  0 */\n      0x00\n        /* \"@openzeppelin/contracts/token/ERC20/ERC20.sol\":7528:7549  account == address(0) */\n      0xffffffffffffffffffffffffffffffffffffffff\n      and\n        /* \"@openzeppelin/contracts/token/ERC20/ERC20.sol\":7528:7535  account */\n      dup3\n        /* \"@openzeppelin/contracts/token/ERC20/ERC20.sol\":7528:7549  account == address(0) */\n      0xffffffffffffffffffffffffffffffffffffffff\n      and\n      sub\n        /* \"@openzeppelin/contracts/token/ERC20/ERC20.sol\":7524:7615  if (account == address(0)) {... */\n      tag_335\n      jumpi\n        /* \"@openzeppelin/contracts/token/ERC20/ERC20.sol\":7601:7602  0 */\n      0x00\n        /* \"@openzeppelin/contracts/token/ERC20/ERC20.sol\":7572:7604  ERC20InvalidReceiver(address(0)) */\n      mload(0x40)\n      0xec442f0500000000000000000000000000000000000000000000000000000000\n      dup2\n      mstore\n      0x04\n      add\n      tag_336\n      swap2\n      swap1\n      tag_110\n      jump\t// in\n    tag_336:\n      mload(0x40)\n      dup1\n      swap2\n      sub\n      swap1\n      revert\n        /* \"@openzeppelin/contracts/token/ERC20/ERC20.sol\":7524:7615  if (account == address(0)) {... */\n    tag_335:\n        /* \"@openzeppelin/contracts/token/ERC20/ERC20.sol\":7624:7659  _update(address(0), account, value) */\n      tag_337\n        /* \"@openzeppelin/contracts/token/ERC20/ERC20.sol\":7640:7641  0 */\n      0x00\n        /* \"@openzeppelin/contracts/token/ERC20/ERC20.sol\":7644:7651  account */\n      dup4\n        /* \"@openzeppelin/contracts/token/ERC20/ERC20.sol\":7653:7658  value */\n      dup4\n        /* \"@openzeppelin/contracts/token/ERC20/ERC20.sol\":7624:7631  _update */\n      tag_327\n        /* \"@openzeppelin/contracts/token/ERC20/ERC20.sol\":7624:7659  _update(address(0), account, value) */\n      jump\t// in\n    tag_337:\n        /* \"@openzeppelin/contracts/token/ERC20/ERC20.sol\":7458:7666  function _mint(address account, uint256 value) internal {... */\n      pop\n      pop\n      jump\t// out\n        /* \"@openzeppelin/contracts/token/ERC20/ERC20.sol\":7984:8190  function _burn(address account, uint256 value) internal {... */\n    tag_194:\n        /* \"@openzeppelin/contracts/token/ERC20/ERC20.sol\":8073:8074  0 */\n      0x00\n        /* \"@openzeppelin/contracts/token/ERC20/ERC20.sol\":8054:8075  account == address(0) */\n      0xffffffffffffffffffffffffffffffffffffffff\n      and\n        /* \"@openzeppelin/contracts/token/ERC20/ERC20.sol\":8054:8061  account */\n      dup3\n        /* \"@openzeppelin/contracts/token/ERC20/ERC20.sol\":8054:8075  account == address(0) */\n      0xffffffffffffffffffffffffffffffffffffffff\n      and\n      sub\n        /* \"@openzeppelin/contracts/token/ERC20/ERC20.sol\":8050:8139  if (account == address(0)) {... */\n      tag_339\n      jumpi\n        /* \"@openzeppelin/contracts/token/ERC20/ERC20.sol\":8125:8126  0 */\n      0x00\n        /* \"@openzeppelin/contracts/token/ERC20/ERC20.sol\":8098:8128  ERC20InvalidSender(address(0)) */\n      mload(0x40)\n      0x96c6fd1e00000000000000000000000000000000000000000000000000000000\n      dup2\n      mstore\n      0x04\n      add\n      tag_340\n      swap2\n      swap1\n      tag_110\n      jump\t// in\n    tag_340:\n      mload(0x40)\n      dup1\n      swap2\n      sub\n      swap1\n      revert\n        /* \"@openzeppelin/contracts/token/ERC20/ERC20.sol\":8050:8139  if (account == address(0)) {... */\n    tag_339:\n        /* \"@openzeppelin/contracts/token/ERC20/ERC20.sol\":8148:8183  _update(account, address(0), value) */\n      tag_341\n        /* \"@openzeppelin/contracts/token/ERC20/ERC20.sol\":8156:8163  account */\n      dup3\n        /* \"@openzeppelin/contracts/token/ERC20/ERC20.sol\":8173:8174  0 */\n      0x00\n        /* \"@openzeppelin/contracts/token/ERC20/ERC20.sol\":8177:8182  value */\n      dup4\n        /* \"@openzeppelin/contracts/token/ERC20/ERC20.sol\":8148:8155  _update */\n      tag_327\n        /* \"@openzeppelin/contracts/token/ERC20/ERC20.sol\":8148:8183  _update(account, address(0), value) */\n      jump\t// in\n    tag_341:\n        /* \"@openzeppelin/contracts/token/ERC20/ERC20.sol\":7984:8190  function _burn(address account, uint256 value) internal {... */\n      pop\n      pop\n      jump\t// out\n        /* \"@openzeppelin/contracts/access/Ownable.sol\":2912:3099  function _transferOwnership(address newOwner) internal virtual {... */\n    tag_222:\n        /* \"@openzeppelin/contracts/access/Ownable.sol\":2985:3001  address oldOwner */\n      0x00\n        /* \"@openzeppelin/contracts/access/Ownable.sol\":3004:3010  _owner */\n      0x05\n      0x00\n      swap1\n      sload\n      swap1\n      0x0100\n      exp\n      swap1\n      div\n      0xffffffffffffffffffffffffffffffffffffffff\n      and\n        /* \"@openzeppelin/contracts/access/Ownable.sol\":2985:3010  address oldOwner = _owner */\n      swap1\n      pop\n        /* \"@openzeppelin/contracts/access/Ownable.sol\":3029:3037  newOwner */\n      dup2\n        /* \"@openzeppelin/contracts/access/Ownable.sol\":3020:3026  _owner */\n      0x05\n      0x00\n        /* \"@openzeppelin/contracts/access/Ownable.sol\":3020:3037  _owner = newOwner */\n      0x0100\n      exp\n      dup2\n      sload\n      dup2\n      0xffffffffffffffffffffffffffffffffffffffff\n      mul\n      not\n      and\n      swap1\n      dup4\n      0xffffffffffffffffffffffffffffffffffffffff\n      and\n      mul\n      or\n      swap1\n      sstore\n      pop\n        /* \"@openzeppelin/contracts/access/Ownable.sol\":3083:3091  newOwner */\n      dup2\n        /* \"@openzeppelin/contracts/access/Ownable.sol\":3052:3092  OwnershipTransferred(oldOwner, newOwner) */\n      0xffffffffffffffffffffffffffffffffffffffff\n      and\n        /* \"@openzeppelin/contracts/access/Ownable.sol\":3073:3081  oldOwner */\n      dup2\n        /* \"@openzeppelin/contracts/access/Ownable.sol\":3052:3092  OwnershipTransferred(oldOwner, newOwner) */\n      0xffffffffffffffffffffffffffffffffffffffff\n      and\n      0x8be0079c531659141344cd1fd0a4f28419497f9722a3daafe3b4186f6b6457e0\n      mload(0x40)\n      mload(0x40)\n      dup1\n      swap2\n      sub\n      swap1\n      log3\n        /* \"@openzeppelin/contracts/access/Ownable.sol\":2975:3099  {... */\n      pop\n        /* \"@openzeppelin/contracts/access/Ownable.sol\":2912:3099  function _transferOwnership(address newOwner) internal virtual {... */\n      pop\n      jump\t// out\n        /* \"@openzeppelin/contracts/token/ERC20/ERC20.sol\":9701:10133  function _approve(address owner, address spender, uint256 value, bool emitEvent) internal virtual {... */\n    tag_314:\n        /* \"@openzeppelin/contracts/token/ERC20/ERC20.sol\":9830:9831  0 */\n      0x00\n        /* \"@openzeppelin/contracts/token/ERC20/ERC20.sol\":9813:9832  owner == address(0) */\n      0xffffffffffffffffffffffffffffffffffffffff\n      and\n        /* \"@openzeppelin/contracts/token/ERC20/ERC20.sol\":9813:9818  owner */\n      dup5\n        /* \"@openzeppelin/contracts/token/ERC20/ERC20.sol\":9813:9832  owner == address(0) */\n      0xffffffffffffffffffffffffffffffffffffffff\n      and\n      sub\n        /* \"@openzeppelin/contracts/token/ERC20/ERC20.sol\":9809:9898  if (owner == address(0)) {... */\n      tag_344\n      jumpi\n        /* \"@openzeppelin/contracts/token/ERC20/ERC20.sol\":9884:9885  0 */\n      0x00\n        /* \"@openzeppelin/contracts/token/ERC20/ERC20.sol\":9855:9887  ERC20InvalidApprover(address(0)) */\n      mload(0x40)\n      0xe602df0500000000000000000000000000000000000000000000000000000000\n      dup2\n      mstore\n      0x04\n      add\n      tag_345\n      swap2\n      swap1\n      tag_110\n      jump\t// in\n    tag_345:\n      mload(0x40)\n      dup1\n      swap2\n      sub\n      swap1\n      revert\n        /* \"@openzeppelin/contracts/token/ERC20/ERC20.sol\":9809:9898  if (owner == address(0)) {... */\n    tag_344:\n        /* \"@openzeppelin/contracts/token/ERC20/ERC20.sol\":9930:9931  0 */\n      0x00\n        /* \"@openzeppelin/contracts/token/ERC20/ERC20.sol\":9911:9932  spender == address(0) */\n      0xffffffffffffffffffffffffffffffffffffffff\n      and\n        /* \"@openzeppelin/contracts/token/ERC20/ERC20.sol\":9911:9918  spender */\n      dup4\n        /* \"@openzeppelin/contracts/token/ERC20/ERC20.sol\":9911:9932  spender == address(0) */\n      0xffffffffffffffffffffffffffffffffffffffff\n      and\n      sub\n        /* \"@openzeppelin/contracts/token/ERC20/ERC20.sol\":9907:9997  if (spender == address(0)) {... */\n      tag_346\n      jumpi\n        /* \"@openzeppelin/contracts/token/ERC20/ERC20.sol\":9983:9984  0 */\n      0x00\n        /* \"@openzeppelin/contracts/token/ERC20/ERC20.sol\":9955:9986  ERC20InvalidSpender(address(0)) */\n      mload(0x40)\n      0x94280d6200000000000000000000000000000000000000000000000000000000\n      dup2\n      mstore\n      0x04\n      add\n      tag_347\n      swap2\n      swap1\n      tag_110\n      jump\t// in\n    tag_347:\n      mload(0x40)\n      dup1\n      swap2\n      sub\n      swap1\n      revert\n        /* \"@openzeppelin/contracts/token/ERC20/ERC20.sol\":9907:9997  if (spender == address(0)) {... */\n    tag_346:\n        /* \"@openzeppelin/contracts/token/ERC20/ERC20.sol\":10036:10041  value */\n      dup2\n        /* \"@openzeppelin/contracts/token/ERC20/ERC20.sol\":10006:10017  _allowances */\n      0x01\n        /* \"@openzeppelin/contracts/token/ERC20/ERC20.sol\":10006:10024  _allowances[owner] */\n      0x00\n        /* \"@openzeppelin/contracts/token/ERC20/ERC20.sol\":10018:10023  owner */\n      dup7\n        /* \"@openzeppelin/contracts/token/ERC20/ERC20.sol\":10006:10024  _allowances[owner] */\n      0xffffffffffffffffffffffffffffffffffffffff\n      and\n      0xffffffffffffffffffffffffffffffffffffffff\n      and\n      dup2\n      mstore\n      0x20\n      add\n      swap1\n      dup2\n      mstore\n      0x20\n      add\n      0x00\n      keccak256\n        /* \"@openzeppelin/contracts/token/ERC20/ERC20.sol\":10006:10033  _allowances[owner][spender] */\n      0x00\n        /* \"@openzeppelin/contracts/token/ERC20/ERC20.sol\":10025:10032  spender */\n      dup6\n        /* \"@openzeppelin/contracts/token/ERC20/ERC20.sol\":10006:10033  _allowances[owner][spender] */\n      0xffffffffffffffffffffffffffffffffffffffff\n      and\n      0xffffffffffffffffffffffffffffffffffffffff\n      and\n      dup2\n      mstore\n      0x20\n      add\n      swap1\n      dup2\n      mstore\n      0x20\n      add\n      0x00\n      keccak256\n        /* \"@openzeppelin/contracts/token/ERC20/ERC20.sol\":10006:10041  _allowances[owner][spender] = value */\n      dup2\n      swap1\n      sstore\n      pop\n        /* \"@openzeppelin/contracts/token/ERC20/ERC20.sol\":10055:10064  emitEvent */\n      dup1\n        /* \"@openzeppelin/contracts/token/ERC20/ERC20.sol\":10051:10127  if (emitEvent) {... */\n      iszero\n      tag_348\n      jumpi\n        /* \"@openzeppelin/contracts/token/ERC20/ERC20.sol\":10101:10108  spender */\n      dup3\n        /* \"@openzeppelin/contracts/token/ERC20/ERC20.sol\":10085:10116  Approval(owner, spender, value) */\n      0xffffffffffffffffffffffffffffffffffffffff\n      and\n        /* \"@openzeppelin/contracts/token/ERC20/ERC20.sol\":10094:10099  owner */\n      dup5\n        /* \"@openzeppelin/contracts/token/ERC20/ERC20.sol\":10085:10116  Approval(owner, spender, value) */\n      0xffffffffffffffffffffffffffffffffffffffff\n      and\n      0x8c5be1e5ebec7d5bd14f71427d1e84f3dd0314c0f7b2291e5b200ac8c7c3b925\n        /* \"@openzeppelin/contracts/token/ERC20/ERC20.sol\":10110:10115  value */\n      dup5\n        /* \"@openzeppelin/contracts/token/ERC20/ERC20.sol\":10085:10116  Approval(owner, spender, value) */\n      mload(0x40)\n      tag_349\n      swap2\n      swap1\n      tag_56\n      jump\t// in\n    tag_349:\n      mload(0x40)\n      dup1\n      swap2\n      sub\n      swap1\n      log3\n        /* \"@openzeppelin/contracts/token/ERC20/ERC20.sol\":10051:10127  if (emitEvent) {... */\n    tag_348:\n        /* \"@openzeppelin/contracts/token/ERC20/ERC20.sol\":9701:10133  function _approve(address owner, address spender, uint256 value, bool emitEvent) internal virtual {... */\n      pop\n      pop\n      pop\n      pop\n      jump\t// out\n        /* \"@openzeppelin/contracts/token/ERC20/ERC20.sol\":6008:7115  function _update(address from, address to, uint256 value) internal virtual {... */\n    tag_327:\n        /* \"@openzeppelin/contracts/token/ERC20/ERC20.sol\":6113:6114  0 */\n      0x00\n        /* \"@openzeppelin/contracts/token/ERC20/ERC20.sol\":6097:6115  from == address(0) */\n      0xffffffffffffffffffffffffffffffffffffffff\n      and\n        /* \"@openzeppelin/contracts/token/ERC20/ERC20.sol\":6097:6101  from */\n      dup4\n        /* \"@openzeppelin/contracts/token/ERC20/ERC20.sol\":6097:6115  from == address(0) */\n      0xffffffffffffffffffffffffffffffffffffffff\n      and\n      sub\n        /* \"@openzeppelin/contracts/token/ERC20/ERC20.sol\":6093:6633  if (from == address(0)) {... */\n      tag_351\n      jumpi\n        /* \"@openzeppelin/contracts/token/ERC20/ERC20.sol\":6249:6254  value */\n      dup1\n        /* \"@openzeppelin/contracts/token/ERC20/ERC20.sol\":6233:6245  _totalSupply */\n      0x02\n      0x00\n        /* \"@openzeppelin/contracts/token/ERC20/ERC20.sol\":6233:6254  _totalSupply += value */\n      dup3\n      dup3\n      sload\n      tag_352\n      swap2\n      swap1\n      tag_267\n      jump\t// in\n    tag_352:\n      swap3\n      pop\n      pop\n      dup2\n      swap1\n      sstore\n      pop\n        /* \"@openzeppelin/contracts/token/ERC20/ERC20.sol\":6093:6633  if (from == address(0)) {... */\n      jump(tag_353)\n    tag_351:\n        /* \"@openzeppelin/contracts/token/ERC20/ERC20.sol\":6285:6304  uint256 fromBalance */\n      0x00\n        /* \"@openzeppelin/contracts/token/ERC20/ERC20.sol\":6307:6316  _balances */\n      dup1\n        /* \"@openzeppelin/contracts/token/ERC20/ERC20.sol\":6307:6322  _balances[from] */\n      0x00\n        /* \"@openzeppelin/contracts/token/ERC20/ERC20.sol\":6317:6321  from */\n      dup6\n        /* \"@openzeppelin/contracts/token/ERC20/ERC20.sol\":6307:6322  _balances[from] */\n      0xffffffffffffffffffffffffffffffffffffffff\n      and\n      0xffffffffffffffffffffffffffffffffffffffff\n      and\n      dup2\n      mstore\n      0x20\n      add\n      swap1\n      dup2\n      mstore\n      0x20\n      add\n      0x00\n      keccak256\n      sload\n        /* \"@openzeppelin/contracts/token/ERC20/ERC20.sol\":6285:6322  uint256 fromBalance = _balances[from] */\n      swap1\n      pop\n        /* \"@openzeppelin/contracts/token/ERC20/ERC20.sol\":6354:6359  value */\n      dup2\n        /* \"@openzeppelin/contracts/token/ERC20/ERC20.sol\":6340:6351  fromBalance */\n      dup2\n        /* \"@openzeppelin/contracts/token/ERC20/ERC20.sol\":6340:6359  fromBalance < value */\n      lt\n        /* \"@openzeppelin/contracts/token/ERC20/ERC20.sol\":6336:6451  if (fromBalance < value) {... */\n      iszero\n      tag_354\n      jumpi\n        /* \"@openzeppelin/contracts/token/ERC20/ERC20.sol\":6411:6415  from */\n      dup4\n        /* \"@openzeppelin/contracts/token/ERC20/ERC20.sol\":6417:6428  fromBalance */\n      dup2\n        /* \"@openzeppelin/contracts/token/ERC20/ERC20.sol\":6430:6435  value */\n      dup4\n        /* \"@openzeppelin/contracts/token/ERC20/ERC20.sol\":6386:6436  ERC20InsufficientBalance(from, fromBalance, value) */\n      mload(0x40)\n      0xe450d38c00000000000000000000000000000000000000000000000000000000\n      dup2\n      mstore\n      0x04\n      add\n      tag_355\n      swap4\n      swap3\n      swap2\n      swap1\n      tag_216\n      jump\t// in\n    tag_355:\n      mload(0x40)\n      dup1\n      swap2\n      sub\n      swap1\n      revert\n        /* \"@openzeppelin/contracts/token/ERC20/ERC20.sol\":6336:6451  if (fromBalance < value) {... */\n    tag_354:\n        /* \"@openzeppelin/contracts/token/ERC20/ERC20.sol\":6603:6608  value */\n      dup2\n        /* \"@openzeppelin/contracts/token/ERC20/ERC20.sol\":6589:6600  fromBalance */\n      dup2\n        /* \"@openzeppelin/contracts/token/ERC20/ERC20.sol\":6589:6608  fromBalance - value */\n      sub\n        /* \"@openzeppelin/contracts/token/ERC20/ERC20.sol\":6571:6580  _balances */\n      0x00\n        /* \"@openzeppelin/contracts/token/ERC20/ERC20.sol\":6571:6586  _balances[from] */\n      dup1\n        /* \"@openzeppelin/contracts/token/ERC20/ERC20.sol\":6581:6585  from */\n      dup7\n        /* \"@openzeppelin/contracts/token/ERC20/ERC20.sol\":6571:6586  _balances[from] */\n      0xffffffffffffffffffffffffffffffffffffffff\n      and\n      0xffffffffffffffffffffffffffffffffffffffff\n      and\n      dup2\n      mstore\n      0x20\n      add\n      swap1\n      dup2\n      mstore\n      0x20\n      add\n      0x00\n      keccak256\n        /* \"@openzeppelin/contracts/token/ERC20/ERC20.sol\":6571:6608  _balances[from] = fromBalance - value */\n      dup2\n      swap1\n      sstore\n      pop\n        /* \"@openzeppelin/contracts/token/ERC20/ERC20.sol\":6271:6633  {... */\n      pop\n        /* \"@openzeppelin/contracts/token/ERC20/ERC20.sol\":6093:6633  if (from == address(0)) {... */\n    tag_353:\n        /* \"@openzeppelin/contracts/token/ERC20/ERC20.sol\":6661:6662  0 */\n      0x00\n        /* \"@openzeppelin/contracts/token/ERC20/ERC20.sol\":6647:6663  to == address(0) */\n      0xffffffffffffffffffffffffffffffffffffffff\n      and\n        /* \"@openzeppelin/contracts/token/ERC20/ERC20.sol\":6647:6649  to */\n      dup3\n        /* \"@openzeppelin/contracts/token/ERC20/ERC20.sol\":6647:6663  to == address(0) */\n      0xffffffffffffffffffffffffffffffffffffffff\n      and\n      sub\n        /* \"@openzeppelin/contracts/token/ERC20/ERC20.sol\":6643:7068  if (to == address(0)) {... */\n      tag_356\n      jumpi\n        /* \"@openzeppelin/contracts/token/ERC20/ERC20.sol\":6826:6831  value */\n      dup1\n        /* \"@openzeppelin/contracts/token/ERC20/ERC20.sol\":6810:6822  _totalSupply */\n      0x02\n      0x00\n        /* \"@openzeppelin/contracts/token/ERC20/ERC20.sol\":6810:6831  _totalSupply -= value */\n      dup3\n      dup3\n      sload\n      sub\n      swap3\n      pop\n      pop\n      dup2\n      swap1\n      sstore\n      pop\n        /* \"@openzeppelin/contracts/token/ERC20/ERC20.sol\":6643:7068  if (to == address(0)) {... */\n      jump(tag_357)\n    tag_356:\n        /* \"@openzeppelin/contracts/token/ERC20/ERC20.sol\":7038:7043  value */\n      dup1\n        /* \"@openzeppelin/contracts/token/ERC20/ERC20.sol\":7021:7030  _balances */\n      0x00\n        /* \"@openzeppelin/contracts/token/ERC20/ERC20.sol\":7021:7034  _balances[to] */\n      dup1\n        /* \"@openzeppelin/contracts/token/ERC20/ERC20.sol\":7031:7033  to */\n      dup5\n        /* \"@openzeppelin/contracts/token/ERC20/ERC20.sol\":7021:7034  _balances[to] */\n      0xffffffffffffffffffffffffffffffffffffffff\n      and\n      0xffffffffffffffffffffffffffffffffffffffff\n      and\n      dup2\n      mstore\n      0x20\n      add\n      swap1\n      dup2\n      mstore\n      0x20\n      add\n      0x00\n      keccak256\n      0x00\n        /* \"@openzeppelin/contracts/token/ERC20/ERC20.sol\":7021:7043  _balances[to] += value */\n      dup3\n      dup3\n      sload\n      add\n      swap3\n      pop\n      pop\n      dup2\n      swap1\n      sstore\n      pop\n        /* \"@openzeppelin/contracts/token/ERC20/ERC20.sol\":6643:7068  if (to == address(0)) {... */\n    tag_357:\n        /* \"@openzeppelin/contracts/token/ERC20/ERC20.sol\":7098:7100  to */\n      dup2\n        /* \"@openzeppelin/contracts/token/ERC20/ERC20.sol\":7083:7108  Transfer(from, to, value) */\n      0xffffffffffffffffffffffffffffffffffffffff\n      and\n        /* \"@openzeppelin/contracts/token/ERC20/ERC20.sol\":7092:7096  from */\n      dup4\n        /* \"@openzeppelin/contracts/token/ERC20/ERC20.sol\":7083:7108  Transfer(from, to, value) */\n      0xffffffffffffffffffffffffffffffffffffffff\n      and\n      0xddf252ad1be2c89b69c2b068fc378daa952ba7f163c4a11628f55a4df523b3ef\n        /* \"@openzeppelin/contracts/token/ERC20/ERC20.sol\":7102:7107  value */\n      dup4\n        /* \"@openzeppelin/contracts/token/ERC20/ERC20.sol\":7083:7108  Transfer(from, to, value) */\n      mload(0x40)\n      tag_358\n      swap2\n      swap1\n      tag_56\n      jump\t// in\n    tag_358:\n      mload(0x40)\n      dup1\n      swap2\n      sub\n      swap1\n      log3\n        /* \"@openzeppelin/contracts/token/ERC20/ERC20.sol\":6008:7115  function _update(address from, address to, uint256 value) internal virtual {... */\n      pop\n      pop\n      pop\n      jump\t// out\n        /* \"#utility.yul\":7:106   */\n    tag_359:\n        /* \"#utility.yul\":59:65   */\n      0x00\n        /* \"#utility.yul\":93:98   */\n      dup2\n        /* \"#utility.yul\":87:99   */\n      mload\n        /* \"#utility.yul\":77:99   */\n      swap1\n      pop\n        /* \"#utility.yul\":7:106   */\n      swap2\n      swap1\n      pop\n      jump\t// out\n        /* \"#utility.yul\":112:281   */\n    tag_360:\n        /* \"#utility.yul\":196:207   */\n      0x00\n        /* \"#utility.yul\":230:236   */\n      dup3\n        /* \"#utility.yul\":225:228   */\n      dup3\n        /* \"#utility.yul\":218:237   */\n      mstore\n        /* \"#utility.yul\":270:274   */\n      0x20\n        /* \"#utility.yul\":265:268   */\n      dup3\n        /* \"#utility.yul\":261:275   */\n      add\n        /* \"#utility.yul\":246:275   */\n      swap1\n      pop\n        /* \"#utility.yul\":112:281   */\n      swap3\n      swap2\n      pop\n      pop\n      jump\t// out\n        /* \"#utility.yul\":287:426   */\n    tag_361:\n        /* \"#utility.yul\":376:382   */\n      dup3\n        /* \"#utility.yul\":371:374   */\n      dup2\n        /* \"#utility.yul\":366:369   */\n      dup4\n        /* \"#utility.yul\":360:383   */\n      mcopy\n        /* \"#utility.yul\":417:418   */\n      0x00\n        /* \"#utility.yul\":408:414   */\n      dup4\n        /* \"#utility.yul\":403:406   */\n      dup4\n        /* \"#utility.yul\":399:415   */\n      add\n        /* \"#utility.yul\":392:419   */\n      mstore\n        /* \"#utility.yul\":287:426   */\n      pop\n      pop\n      pop\n      jump\t// out\n        /* \"#utility.yul\":432:534   */\n    tag_362:\n        /* \"#utility.yul\":473:479   */\n      0x00\n        /* \"#utility.yul\":524:526   */\n      0x1f\n        /* \"#utility.yul\":520:527   */\n      not\n        /* \"#utility.yul\":515:517   */\n      0x1f\n        /* \"#utility.yul\":508:513   */\n      dup4\n        /* \"#utility.yul\":504:518   */\n      add\n        /* \"#utility.yul\":500:528   */\n      and\n        /* \"#utility.yul\":490:528   */\n      swap1\n      pop\n        /* \"#utility.yul\":432:534   */\n      swap2\n      swap1\n      pop\n      jump\t// out\n        /* \"#utility.yul\":540:917   */\n    tag_363:\n        /* \"#utility.yul\":628:631   */\n      0x00\n        /* \"#utility.yul\":656:695   */\n      tag_418\n        /* \"#utility.yul\":689:694   */\n      dup3\n        /* \"#utility.yul\":656:695   */\n      tag_359\n      jump\t// in\n    tag_418:\n        /* \"#utility.yul\":711:782   */\n      tag_419\n        /* \"#utility.yul\":775:781   */\n      dup2\n        /* \"#utility.yul\":770:773   */\n      dup6\n        /* \"#utility.yul\":711:782   */\n      tag_360\n      jump\t// in\n    tag_419:\n        /* \"#utility.yul\":704:782   */\n      swap4\n      pop\n        /* \"#utility.yul\":791:856   */\n      tag_420\n        /* \"#utility.yul\":849:855   */\n      dup2\n        /* \"#utility.yul\":844:847   */\n      dup6\n        /* \"#utility.yul\":837:841   */\n      0x20\n        /* \"#utility.yul\":830:835   */\n      dup7\n        /* \"#utility.yul\":826:842   */\n      add\n        /* \"#utility.yul\":791:856   */\n      tag_361\n      jump\t// in\n    tag_420:\n        /* \"#utility.yul\":881:910   */\n      tag_421\n        /* \"#utility.yul\":903:909   */\n      dup2\n        /* \"#utility.yul\":881:910   */\n      tag_362\n      jump\t// in\n    tag_421:\n        /* \"#utility.yul\":876:879   */\n      dup5\n        /* \"#utility.yul\":872:911   */\n      add\n        /* \"#utility.yul\":865:911   */\n      swap2\n      pop\n        /* \"#utility.yul\":632:917   */\n      pop\n        /* \"#utility.yul\":540:917   */\n      swap3\n      swap2\n      pop\n      pop\n      jump\t// out\n        /* \"#utility.yul\":923:1236   */\n    tag_44:\n        /* \"#utility.yul\":1036:1040   */\n      0x00\n        /* \"#utility.yul\":1074:1076   */\n      0x20\n        /* \"#utility.yul\":1063:1072   */\n      dup3\n        /* \"#utility.yul\":1059:1077   */\n      add\n        /* \"#utility.yul\":1051:1077   */\n      swap1\n      pop\n        /* \"#utility.yul\":1123:1132   */\n      dup2\n        /* \"#utility.yul\":1117:1121   */\n      dup2\n        /* \"#utility.yul\":1113:1133   */\n      sub\n        /* \"#utility.yul\":1109:1110   */\n      0x00\n        /* \"#utility.yul\":1098:1107   */\n      dup4\n        /* \"#utility.yul\":1094:1111   */\n      add\n        /* \"#utility.yul\":1087:1134   */\n      mstore\n        /* \"#utility.yul\":1151:1229   */\n      tag_423\n        /* \"#utility.yul\":1224:1228   */\n      dup2\n        /* \"#utility.yul\":1215:1221   */\n      dup5\n        /* \"#utility.yul\":1151:1229   */\n      tag_363\n      jump\t// in\n    tag_423:\n        /* \"#utility.yul\":1143:1229   */\n      swap1\n      pop\n        /* \"#utility.yul\":923:1236   */\n      swap3\n      swap2\n      pop\n      pop\n      jump\t// out\n        /* \"#utility.yul\":1323:1440   */\n    tag_365:\n        /* \"#utility.yul\":1432:1433   */\n      0x00\n        /* \"#utility.yul\":1429:1430   */\n      dup1\n        /* \"#utility.yul\":1422:1434   */\n      revert\n        /* \"#utility.yul\":1569:1695   */\n    tag_367:\n        /* \"#utility.yul\":1606:1613   */\n      0x00\n        /* \"#utility.yul\":1646:1688   */\n      0xffffffffffffffffffffffffffffffffffffffff\n        /* \"#utility.yul\":1639:1644   */\n      dup3\n        /* \"#utility.yul\":1635:1689   */\n      and\n        /* \"#utility.yul\":1624:1689   */\n      swap1\n      pop\n        /* \"#utility.yul\":1569:1695   */\n      swap2\n      swap1\n      pop\n      jump\t// out\n        /* \"#utility.yul\":1701:1797   */\n    tag_368:\n        /* \"#utility.yul\":1738:1745   */\n      0x00\n        /* \"#utility.yul\":1767:1791   */\n      tag_429\n        /* \"#utility.yul\":1785:1790   */\n      dup3\n        /* \"#utility.yul\":1767:1791   */\n      tag_367\n      jump\t// in\n    tag_429:\n        /* \"#utility.yul\":1756:1791   */\n      swap1\n      pop\n        /* \"#utility.yul\":1701:1797   */\n      swap2\n      swap1\n      pop\n      jump\t// out\n        /* \"#utility.yul\":1803:1925   */\n    tag_369:\n        /* \"#utility.yul\":1876:1900   */\n      tag_431\n        /* \"#utility.yul\":1894:1899   */\n      dup2\n        /* \"#utility.yul\":1876:1900   */\n      tag_368\n      jump\t// in\n    tag_431:\n        /* \"#utility.yul\":1869:1874   */\n      dup2\n        /* \"#utility.yul\":1866:1901   */\n      eq\n        /* \"#utility.yul\":1856:1919   */\n      tag_432\n      jumpi\n        /* \"#utility.yul\":1915:1916   */\n      0x00\n        /* \"#utility.yul\":1912:1913   */\n      dup1\n        /* \"#utility.yul\":1905:1917   */\n      revert\n        /* \"#utility.yul\":1856:1919   */\n    tag_432:\n        /* \"#utility.yul\":1803:1925   */\n      pop\n      jump\t// out\n        /* \"#utility.yul\":1931:2070   */\n    tag_370:\n        /* \"#utility.yul\":1977:1982   */\n      0x00\n        /* \"#utility.yul\":2015:2021   */\n      dup2\n        /* \"#utility.yul\":2002:2022   */\n      calldataload\n        /* \"#utility.yul\":1993:2022   */\n      swap1\n      pop\n        /* \"#utility.yul\":2031:2064   */\n      tag_434\n        /* \"#utility.yul\":2058:2063   */\n      dup2\n        /* \"#utility.yul\":2031:2064   */\n      tag_369\n      jump\t// in\n    tag_434:\n        /* \"#utility.yul\":1931:2070   */\n      swap3\n      swap2\n      pop\n      pop\n      jump\t// out\n        /* \"#utility.yul\":2076:2153   */\n    tag_371:\n        /* \"#utility.yul\":2113:2120   */\n      0x00\n        /* \"#utility.yul\":2142:2147   */\n      dup2\n        /* \"#utility.yul\":2131:2147   */\n      swap1\n      pop\n        /* \"#utility.yul\":2076:2153   */\n      swap2\n      swap1\n      pop\n      jump\t// out\n        /* \"#utility.yul\":2159:2281   */\n    tag_372:\n        /* \"#utility.yul\":2232:2256   */\n      tag_437\n        /* \"#utility.yul\":2250:2255   */\n      dup2\n        /* \"#utility.yul\":2232:2256   */\n      tag_371\n      jump\t// in\n    tag_437:\n        /* \"#utility.yul\":2225:2230   */\n      dup2\n        /* \"#utility.yul\":2222:2257   */\n      eq\n        /* \"#utility.yul\":2212:2275   */\n      tag_438\n      jumpi\n        /* \"#utility.yul\":2271:2272   */\n      0x00\n        /* \"#utility.yul\":2268:2269   */\n      dup1\n        /* \"#utility.yul\":2261:2273   */\n      revert\n        /* \"#utility.yul\":2212:2275   */\n    tag_438:\n        /* \"#utility.yul\":2159:2281   */\n      pop\n      jump\t// out\n        /* \"#utility.yul\":2287:2426   */\n    tag_373:\n        /* \"#utility.yul\":2333:2338   */\n      0x00\n        /* \"#utility.yul\":2371:2377   */\n      dup2\n        /* \"#utility.yul\":2358:2378   */\n      calldataload\n        /* \"#utility.yul\":2349:2378   */\n      swap1\n      pop\n        /* \"#utility.yul\":2387:2420   */\n      tag_440\n        /* \"#utility.yul\":2414:2419   */\n      dup2\n        /* \"#utility.yul\":2387:2420   */\n      tag_372\n      jump\t// in\n    tag_440:\n        /* \"#utility.yul\":2287:2426   */\n      swap3\n      swap2\n      pop\n      pop\n      jump\t// out\n        /* \"#utility.yul\":2432:2906   */\n    tag_48:\n        /* \"#utility.yul\":2500:2506   */\n      0x00\n        /* \"#utility.yul\":2508:2514   */\n      dup1\n        /* \"#utility.yul\":2557:2559   */\n      0x40\n        /* \"#utility.yul\":2545:2554   */\n      dup4\n        /* \"#utility.yul\":2536:2543   */\n      dup6\n        /* \"#utility.yul\":2532:2555   */\n      sub\n        /* \"#utility.yul\":2528:2560   */\n      slt\n        /* \"#utility.yul\":2525:2644   */\n      iszero\n      tag_442\n      jumpi\n        /* \"#utility.yul\":2563:2642   */\n      tag_443\n      tag_365\n      jump\t// in\n    tag_443:\n        /* \"#utility.yul\":2525:2644   */\n    tag_442:\n        /* \"#utility.yul\":2683:2684   */\n      0x00\n        /* \"#utility.yul\":2708:2761   */\n      tag_444\n        /* \"#utility.yul\":2753:2760   */\n      dup6\n        /* \"#utility.yul\":2744:2750   */\n      dup3\n        /* \"#utility.yul\":2733:2742   */\n      dup7\n        /* \"#utility.yul\":2729:2751   */\n      add\n        /* \"#utility.yul\":2708:2761   */\n      tag_370\n      jump\t// in\n    tag_444:\n        /* \"#utility.yul\":2698:2761   */\n      swap3\n      pop\n        /* \"#utility.yul\":2654:2771   */\n      pop\n        /* \"#utility.yul\":2810:2812   */\n      0x20\n        /* \"#utility.yul\":2836:2889   */\n      tag_445\n        /* \"#utility.yul\":2881:2888   */\n      dup6\n        /* \"#utility.yul\":2872:2878   */\n      dup3\n        /* \"#utility.yul\":2861:2870   */\n      dup7\n        /* \"#utility.yul\":2857:2879   */\n      add\n        /* \"#utility.yul\":2836:2889   */\n      tag_373\n      jump\t// in\n    tag_445:\n        /* \"#utility.yul\":2826:2889   */\n      swap2\n      pop\n        /* \"#utility.yul\":2781:2899   */\n      pop\n        /* \"#utility.yul\":2432:2906   */\n      swap3\n      pop\n      swap3\n      swap1\n      pop\n      jump\t// out\n        /* \"#utility.yul\":2912:3002   */\n    tag_374:\n        /* \"#utility.yul\":2946:2953   */\n      0x00\n        /* \"#utility.yul\":2989:2994   */\n      dup2\n        /* \"#utility.yul\":2982:2995   */\n      iszero\n        /* \"#utility.yul\":2975:2996   */\n      iszero\n        /* \"#utility.yul\":2964:2996   */\n      swap1\n      pop\n        /* \"#utility.yul\":2912:3002   */\n      swap2\n      swap1\n      pop\n      jump\t// out\n        /* \"#utility.yul\":3008:3117   */\n    tag_375:\n        /* \"#utility.yul\":3089:3110   */\n      tag_448\n        /* \"#utility.yul\":3104:3109   */\n      dup2\n        /* \"#utility.yul\":3089:3110   */\n      tag_374\n      jump\t// in\n    tag_448:\n        /* \"#utility.yul\":3084:3087   */\n      dup3\n        /* \"#utility.yul\":3077:3111   */\n      mstore\n        /* \"#utility.yul\":3008:3117   */\n      pop\n      pop\n      jump\t// out\n        /* \"#utility.yul\":3123:3333   */\n    tag_51:\n        /* \"#utility.yul\":3210:3214   */\n      0x00\n        /* \"#utility.yul\":3248:3250   */\n      0x20\n        /* \"#utility.yul\":3237:3246   */\n      dup3\n        /* \"#utility.yul\":3233:3251   */\n      add\n        /* \"#utility.yul\":3225:3251   */\n      swap1\n      pop\n        /* \"#utility.yul\":3261:3326   */\n      tag_450\n        /* \"#utility.yul\":3323:3324   */\n      0x00\n        /* \"#utility.yul\":3312:3321   */\n      dup4\n        /* \"#utility.yul\":3308:3325   */\n      add\n        /* \"#utility.yul\":3299:3305   */\n      dup5\n        /* \"#utility.yul\":3261:3326   */\n      tag_375\n      jump\t// in\n    tag_450:\n        /* \"#utility.yul\":3123:3333   */\n      swap3\n      swap2\n      pop\n      pop\n      jump\t// out\n        /* \"#utility.yul\":3339:3457   */\n    tag_376:\n        /* \"#utility.yul\":3426:3450   */\n      tag_452\n        /* \"#utility.yul\":3444:3449   */\n      dup2\n        /* \"#utility.yul\":3426:3450   */\n      tag_371\n      jump\t// in\n    tag_452:\n        /* \"#utility.yul\":3421:3424   */\n      dup3\n        /* \"#utility.yul\":3414:3451   */\n      mstore\n        /* \"#utility.yul\":3339:3457   */\n      pop\n      pop\n      jump\t// out\n        /* \"#utility.yul\":3463:3685   */\n    tag_56:\n        /* \"#utility.yul\":3556:3560   */\n      0x00\n        /* \"#utility.yul\":3594:3596   */\n      0x20\n        /* \"#utility.yul\":3583:3592   */\n      dup3\n        /* \"#utility.yul\":3579:3597   */\n      add\n        /* \"#utility.yul\":3571:3597   */\n      swap1\n      pop\n        /* \"#utility.yul\":3607:3678   */\n      tag_454\n        /* \"#utility.yul\":3675:3676   */\n      0x00\n        /* \"#utility.yul\":3664:3673   */\n      dup4\n        /* \"#utility.yul\":3660:3677   */\n      add\n        /* \"#utility.yul\":3651:3657   */\n      dup5\n        /* \"#utility.yul\":3607:3678   */\n      tag_376\n      jump\t// in\n    tag_454:\n        /* \"#utility.yul\":3463:3685   */\n      swap3\n      swap2\n      pop\n      pop\n      jump\t// out\n        /* \"#utility.yul\":3691:4310   */\n    tag_60:\n        /* \"#utility.yul\":3768:3774   */\n      0x00\n        /* \"#utility.yul\":3776:3782   */\n      dup1\n        /* \"#utility.yul\":3784:3790   */\n      0x00\n        /* \"#utility.yul\":3833:3835   */\n      0x60\n        /* \"#utility.yul\":3821:3830   */\n      dup5\n        /* \"#utility.yul\":3812:3819   */\n      dup7\n        /* \"#utility.yul\":3808:3831   */\n      sub\n        /* \"#utility.yul\":3804:3836   */\n      slt\n        /* \"#utility.yul\":3801:3920   */\n      iszero\n      tag_456\n      jumpi\n        /* \"#utility.yul\":3839:3918   */\n      tag_457\n      tag_365\n      jump\t// in\n    tag_457:\n        /* \"#utility.yul\":3801:3920   */\n    tag_456:\n        /* \"#utility.yul\":3959:3960   */\n      0x00\n        /* \"#utility.yul\":3984:4037   */\n      tag_458\n        /* \"#utility.yul\":4029:4036   */\n      dup7\n        /* \"#utility.yul\":4020:4026   */\n      dup3\n        /* \"#utility.yul\":4009:4018   */\n      dup8\n        /* \"#utility.yul\":4005:4027   */\n      add\n        /* \"#utility.yul\":3984:4037   */\n      tag_370\n      jump\t// in\n    tag_458:\n        /* \"#utility.yul\":3974:4037   */\n      swap4\n      pop\n        /* \"#utility.yul\":3930:4047   */\n      pop\n        /* \"#utility.yul\":4086:4088   */\n      0x20\n        /* \"#utility.yul\":4112:4165   */\n      tag_459\n        /* \"#utility.yul\":4157:4164   */\n      dup7\n        /* \"#utility.yul\":4148:4154   */\n      dup3\n        /* \"#utility.yul\":4137:4146   */\n      dup8\n        /* \"#utility.yul\":4133:4155   */\n      add\n        /* \"#utility.yul\":4112:4165   */\n      tag_370\n      jump\t// in\n    tag_459:\n        /* \"#utility.yul\":4102:4165   */\n      swap3\n      pop\n        /* \"#utility.yul\":4057:4175   */\n      pop\n        /* \"#utility.yul\":4214:4216   */\n      0x40\n        /* \"#utility.yul\":4240:4293   */\n      tag_460\n        /* \"#utility.yul\":4285:4292   */\n      dup7\n        /* \"#utility.yul\":4276:4282   */\n      dup3\n        /* \"#utility.yul\":4265:4274   */\n      dup8\n        /* \"#utility.yul\":4261:4283   */\n      add\n        /* \"#utility.yul\":4240:4293   */\n      tag_373\n      jump\t// in\n    tag_460:\n        /* \"#utility.yul\":4230:4293   */\n      swap2\n      pop\n        /* \"#utility.yul\":4185:4303   */\n      pop\n        /* \"#utility.yul\":3691:4310   */\n      swap3\n      pop\n      swap3\n      pop\n      swap3\n      jump\t// out\n        /* \"#utility.yul\":4316:4402   */\n    tag_377:\n        /* \"#utility.yul\":4351:4358   */\n      0x00\n        /* \"#utility.yul\":4391:4395   */\n      0xff\n        /* \"#utility.yul\":4384:4389   */\n      dup3\n        /* \"#utility.yul\":4380:4396   */\n      and\n        /* \"#utility.yul\":4369:4396   */\n      swap1\n      pop\n        /* \"#utility.yul\":4316:4402   */\n      swap2\n      swap1\n      pop\n      jump\t// out\n        /* \"#utility.yul\":4408:4520   */\n    tag_378:\n        /* \"#utility.yul\":4491:4513   */\n      tag_463\n        /* \"#utility.yul\":4507:4512   */\n      dup2\n        /* \"#utility.yul\":4491:4513   */\n      tag_377\n      jump\t// in\n    tag_463:\n        /* \"#utility.yul\":4486:4489   */\n      dup3\n        /* \"#utility.yul\":4479:4514   */\n      mstore\n        /* \"#utility.yul\":4408:4520   */\n      pop\n      pop\n      jump\t// out\n        /* \"#utility.yul\":4526:4740   */\n    tag_67:\n        /* \"#utility.yul\":4615:4619   */\n      0x00\n        /* \"#utility.yul\":4653:4655   */\n      0x20\n        /* \"#utility.yul\":4642:4651   */\n      dup3\n        /* \"#utility.yul\":4638:4656   */\n      add\n        /* \"#utility.yul\":4630:4656   */\n      swap1\n      pop\n        /* \"#utility.yul\":4666:4733   */\n      tag_465\n        /* \"#utility.yul\":4730:4731   */\n      0x00\n        /* \"#utility.yul\":4719:4728   */\n      dup4\n        /* \"#utility.yul\":4715:4732   */\n      add\n        /* \"#utility.yul\":4706:4712   */\n      dup5\n        /* \"#utility.yul\":4666:4733   */\n      tag_378\n      jump\t// in\n    tag_465:\n        /* \"#utility.yul\":4526:4740   */\n      swap3\n      swap2\n      pop\n      pop\n      jump\t// out\n        /* \"#utility.yul\":4746:5075   */\n    tag_75:\n        /* \"#utility.yul\":4805:4811   */\n      0x00\n        /* \"#utility.yul\":4854:4856   */\n      0x20\n        /* \"#utility.yul\":4842:4851   */\n      dup3\n        /* \"#utility.yul\":4833:4840   */\n      dup5\n        /* \"#utility.yul\":4829:4852   */\n      sub\n        /* \"#utility.yul\":4825:4857   */\n      slt\n        /* \"#utility.yul\":4822:4941   */\n      iszero\n      tag_467\n      jumpi\n        /* \"#utility.yul\":4860:4939   */\n      tag_468\n      tag_365\n      jump\t// in\n    tag_468:\n        /* \"#utility.yul\":4822:4941   */\n    tag_467:\n        /* \"#utility.yul\":4980:4981   */\n      0x00\n        /* \"#utility.yul\":5005:5058   */\n      tag_469\n        /* \"#utility.yul\":5050:5057   */\n      dup5\n        /* \"#utility.yul\":5041:5047   */\n      dup3\n        /* \"#utility.yul\":5030:5039   */\n      dup6\n        /* \"#utility.yul\":5026:5048   */\n      add\n        /* \"#utility.yul\":5005:5058   */\n      tag_373\n      jump\t// in\n    tag_469:\n        /* \"#utility.yul\":4995:5058   */\n      swap2\n      pop\n        /* \"#utility.yul\":4951:5068   */\n      pop\n        /* \"#utility.yul\":4746:5075   */\n      swap3\n      swap2\n      pop\n      pop\n      jump\t// out\n        /* \"#utility.yul\":5081:5410   */\n    tag_84:\n        /* \"#utility.yul\":5140:5146   */\n      0x00\n        /* \"#utility.yul\":5189:5191   */\n      0x20\n        /* \"#utility.yul\":5177:5186   */\n      dup3\n        /* \"#utility.yul\":5168:5175   */\n      dup5\n        /* \"#utility.yul\":5164:5187   */\n      sub\n        /* \"#utility.yul\":5160:5192   */\n      slt\n        /* \"#utility.yul\":5157:5276   */\n      iszero\n      tag_471\n      jumpi\n        /* \"#utility.yul\":5195:5274   */\n      tag_472\n      tag_365\n      jump\t// in\n    tag_472:\n        /* \"#utility.yul\":5157:5276   */\n    tag_471:\n        /* \"#utility.yul\":5315:5316   */\n      0x00\n        /* \"#utility.yul\":5340:5393   */\n      tag_473\n        /* \"#utility.yul\":5385:5392   */\n      dup5\n        /* \"#utility.yul\":5376:5382   */\n      dup3\n        /* \"#utility.yul\":5365:5374   */\n      dup6\n        /* \"#utility.yul\":5361:5383   */\n      add\n        /* \"#utility.yul\":5340:5393   */\n      tag_370\n      jump\t// in\n    tag_473:\n        /* \"#utility.yul\":5330:5393   */\n      swap2\n      pop\n        /* \"#utility.yul\":5286:5403   */\n      pop\n        /* \"#utility.yul\":5081:5410   */\n      swap3\n      swap2\n      pop\n      pop\n      jump\t// out\n        /* \"#utility.yul\":5416:5534   */\n    tag_379:\n        /* \"#utility.yul\":5503:5527   */\n      tag_475\n        /* \"#utility.yul\":5521:5526   */\n      dup2\n        /* \"#utility.yul\":5503:5527   */\n      tag_368\n      jump\t// in\n    tag_475:\n        /* \"#utility.yul\":5498:5501   */\n      dup3\n        /* \"#utility.yul\":5491:5528   */\n      mstore\n        /* \"#utility.yul\":5416:5534   */\n      pop\n      pop\n      jump\t// out\n        /* \"#utility.yul\":5540:5762   */\n    tag_110:\n        /* \"#utility.yul\":5633:5637   */\n      0x00\n        /* \"#utility.yul\":5671:5673   */\n      0x20\n        /* \"#utility.yul\":5660:5669   */\n      dup3\n        /* \"#utility.yul\":5656:5674   */\n      add\n        /* \"#utility.yul\":5648:5674   */\n      swap1\n      pop\n        /* \"#utility.yul\":5684:5755   */\n      tag_477\n        /* \"#utility.yul\":5752:5753   */\n      0x00\n        /* \"#utility.yul\":5741:5750   */\n      dup4\n        /* \"#utility.yul\":5737:5754   */\n      add\n        /* \"#utility.yul\":5728:5734   */\n      dup5\n        /* \"#utility.yul\":5684:5755   */\n      tag_379\n      jump\t// in\n    tag_477:\n        /* \"#utility.yul\":5540:5762   */\n      swap3\n      swap2\n      pop\n      pop\n      jump\t// out\n        /* \"#utility.yul\":5768:6242   */\n    tag_151:\n        /* \"#utility.yul\":5836:5842   */\n      0x00\n        /* \"#utility.yul\":5844:5850   */\n      dup1\n        /* \"#utility.yul\":5893:5895   */\n      0x40\n        /* \"#utility.yul\":5881:5890   */\n      dup4\n        /* \"#utility.yul\":5872:5879   */\n      dup6\n        /* \"#utility.yul\":5868:5891   */\n      sub\n        /* \"#utility.yul\":5864:5896   */\n      slt\n        /* \"#utility.yul\":5861:5980   */\n      iszero\n      tag_479\n      jumpi\n        /* \"#utility.yul\":5899:5978   */\n      tag_480\n      tag_365\n      jump\t// in\n    tag_480:\n        /* \"#utility.yul\":5861:5980   */\n    tag_479:\n        /* \"#utility.yul\":6019:6020   */\n      0x00\n        /* \"#utility.yul\":6044:6097   */\n      tag_481\n        /* \"#utility.yul\":6089:6096   */\n      dup6\n        /* \"#utility.yul\":6080:6086   */\n      dup3\n        /* \"#utility.yul\":6069:6078   */\n      dup7\n        /* \"#utility.yul\":6065:6087   */\n      add\n        /* \"#utility.yul\":6044:6097   */\n      tag_370\n      jump\t// in\n    tag_481:\n        /* \"#utility.yul\":6034:6097   */\n      swap3\n      pop\n        /* \"#utility.yul\":5990:6107   */\n      pop\n        /* \"#utility.yul\":6146:6148   */\n      0x20\n        /* \"#utility.yul\":6172:6225   */\n      tag_482\n        /* \"#utility.yul\":6217:6224   */\n      dup6\n        /* \"#utility.yul\":6208:6214   */\n      dup3\n        /* \"#utility.yul\":6197:6206   */\n      dup7\n        /* \"#utility.yul\":6193:6215   */\n      add\n        /* \"#utility.yul\":6172:6225   */\n      tag_370\n      jump\t// in\n    tag_482:\n        /* \"#utility.yul\":6162:6225   */\n      swap2\n      pop\n        /* \"#utility.yul\":6117:6235   */\n      pop\n        /* \"#utility.yul\":5768:6242   */\n      swap3\n      pop\n      swap3\n      swap1\n      pop\n      jump\t// out\n        /* \"#utility.yul\":6248:6428   */\n    tag_380:\n        /* \"#utility.yul\":6296:6373   */\n      0x4e487b7100000000000000000000000000000000000000000000000000000000\n        /* \"#utility.yul\":6293:6294   */\n      0x00\n        /* \"#utility.yul\":6286:6374   */\n      mstore\n        /* \"#utility.yul\":6393:6397   */\n      0x22\n        /* \"#utility.yul\":6390:6391   */\n      0x04\n        /* \"#utility.yul\":6383:6398   */\n      mstore\n        /* \"#utility.yul\":6417:6421   */\n      0x24\n        /* \"#utility.yul\":6414:6415   */\n      0x00\n        /* \"#utility.yul\":6407:6422   */\n      revert\n        /* \"#utility.yul\":6434:6754   */\n    tag_167:\n        /* \"#utility.yul\":6478:6484   */\n      0x00\n        /* \"#utility.yul\":6515:6516   */\n      0x02\n        /* \"#utility.yul\":6509:6513   */\n      dup3\n        /* \"#utility.yul\":6505:6517   */\n      div\n        /* \"#utility.yul\":6495:6517   */\n      swap1\n      pop\n        /* \"#utility.yul\":6562:6563   */\n      0x01\n        /* \"#utility.yul\":6556:6560   */\n      dup3\n        /* \"#utility.yul\":6552:6564   */\n      and\n        /* \"#utility.yul\":6583:6601   */\n      dup1\n        /* \"#utility.yul\":6573:6654   */\n      tag_485\n      jumpi\n        /* \"#utility.yul\":6639:6643   */\n      0x7f\n        /* \"#utility.yul\":6631:6637   */\n      dup3\n        /* \"#utility.yul\":6627:6644   */\n      and\n        /* \"#utility.yul\":6617:6644   */\n      swap2\n      pop\n        /* \"#utility.yul\":6573:6654   */\n    tag_485:\n        /* \"#utility.yul\":6701:6703   */\n      0x20\n        /* \"#utility.yul\":6693:6699   */\n      dup3\n        /* \"#utility.yul\":6690:6704   */\n      lt\n        /* \"#utility.yul\":6670:6688   */\n      dup2\n        /* \"#utility.yul\":6667:6705   */\n      sub\n        /* \"#utility.yul\":6664:6748   */\n      tag_486\n      jumpi\n        /* \"#utility.yul\":6720:6738   */\n      tag_487\n      tag_380\n      jump\t// in\n    tag_487:\n        /* \"#utility.yul\":6664:6748   */\n    tag_486:\n        /* \"#utility.yul\":6485:6754   */\n      pop\n        /* \"#utility.yul\":6434:6754   */\n      swap2\n      swap1\n      pop\n      jump\t// out\n        /* \"#utility.yul\":6760:6938   */\n    tag_381:\n        /* \"#utility.yul\":6900:6930   */\n      0x4d7573742073656c6c206d6f7265207468616e203020746f6b656e7300000000\n        /* \"#utility.yul\":6896:6897   */\n      0x00\n        /* \"#utility.yul\":6888:6894   */\n      dup3\n        /* \"#utility.yul\":6884:6898   */\n      add\n        /* \"#utility.yul\":6877:6931   */\n      mstore\n        /* \"#utility.yul\":6760:6938   */\n      pop\n      jump\t// out\n        /* \"#utility.yul\":6944:7310   */\n    tag_382:\n        /* \"#utility.yul\":7086:7089   */\n      0x00\n        /* \"#utility.yul\":7107:7174   */\n      tag_490\n        /* \"#utility.yul\":7171:7173   */\n      0x1c\n        /* \"#utility.yul\":7166:7169   */\n      dup4\n        /* \"#utility.yul\":7107:7174   */\n      tag_360\n      jump\t// in\n    tag_490:\n        /* \"#utility.yul\":7100:7174   */\n      swap2\n      pop\n        /* \"#utility.yul\":7183:7276   */\n      tag_491\n        /* \"#utility.yul\":7272:7275   */\n      dup3\n        /* \"#utility.yul\":7183:7276   */\n      tag_381\n      jump\t// in\n    tag_491:\n        /* \"#utility.yul\":7301:7303   */\n      0x20\n        /* \"#utility.yul\":7296:7299   */\n      dup3\n        /* \"#utility.yul\":7292:7304   */\n      add\n        /* \"#utility.yul\":7285:7304   */\n      swap1\n      pop\n        /* \"#utility.yul\":6944:7310   */\n      swap2\n      swap1\n      pop\n      jump\t// out\n        /* \"#utility.yul\":7316:7735   */\n    tag_198:\n        /* \"#utility.yul\":7482:7486   */\n      0x00\n        /* \"#utility.yul\":7520:7522   */\n      0x20\n        /* \"#utility.yul\":7509:7518   */\n      dup3\n        /* \"#utility.yul\":7505:7523   */\n      add\n        /* \"#utility.yul\":7497:7523   */\n      swap1\n      pop\n        /* \"#utility.yul\":7569:7578   */\n      dup2\n        /* \"#utility.yul\":7563:7567   */\n      dup2\n        /* \"#utility.yul\":7559:7579   */\n      sub\n        /* \"#utility.yul\":7555:7556   */\n      0x00\n        /* \"#utility.yul\":7544:7553   */\n      dup4\n        /* \"#utility.yul\":7540:7557   */\n      add\n        /* \"#utility.yul\":7533:7580   */\n      mstore\n        /* \"#utility.yul\":7597:7728   */\n      tag_493\n        /* \"#utility.yul\":7723:7727   */\n      dup2\n        /* \"#utility.yul\":7597:7728   */\n      tag_382\n      jump\t// in\n    tag_493:\n        /* \"#utility.yul\":7589:7728   */\n      swap1\n      pop\n        /* \"#utility.yul\":7316:7735   */\n      swap2\n      swap1\n      pop\n      jump\t// out\n        /* \"#utility.yul\":7741:7917   */\n    tag_383:\n        /* \"#utility.yul\":7881:7909   */\n      0x496e73756666696369656e7420746f6b656e2062616c616e6365000000000000\n        /* \"#utility.yul\":7877:7878   */\n      0x00\n        /* \"#utility.yul\":7869:7875   */\n      dup3\n        /* \"#utility.yul\":7865:7879   */\n      add\n        /* \"#utility.yul\":7858:7910   */\n      mstore\n        /* \"#utility.yul\":7741:7917   */\n      pop\n      jump\t// out\n        /* \"#utility.yul\":7923:8289   */\n    tag_384:\n        /* \"#utility.yul\":8065:8068   */\n      0x00\n        /* \"#utility.yul\":8086:8153   */\n      tag_496\n        /* \"#utility.yul\":8150:8152   */\n      0x1a\n        /* \"#utility.yul\":8145:8148   */\n      dup4\n        /* \"#utility.yul\":8086:8153   */\n      tag_360\n      jump\t// in\n    tag_496:\n        /* \"#utility.yul\":8079:8153   */\n      swap2\n      pop\n        /* \"#utility.yul\":8162:8255   */\n      tag_497\n        /* \"#utility.yul\":8251:8254   */\n      dup3\n        /* \"#utility.yul\":8162:8255   */\n      tag_383\n      jump\t// in\n    tag_497:\n        /* \"#utility.yul\":8280:8282   */\n      0x20\n        /* \"#utility.yul\":8275:8278   */\n      dup3\n        /* \"#utility.yul\":8271:8283   */\n      add\n        /* \"#utility.yul\":8264:8283   */\n      swap1\n      pop\n        /* \"#utility.yul\":7923:8289   */\n      swap2\n      swap1\n      pop\n      jump\t// out\n        /* \"#utility.yul\":8295:8714   */\n    tag_202:\n        /* \"#utility.yul\":8461:8465   */\n      0x00\n        /* \"#utility.yul\":8499:8501   */\n      0x20\n        /* \"#utility.yul\":8488:8497   */\n      dup3\n        /* \"#utility.yul\":8484:8502   */\n      add\n        /* \"#utility.yul\":8476:8502   */\n      swap1\n      pop\n        /* \"#utility.yul\":8548:8557   */\n      dup2\n        /* \"#utility.yul\":8542:8546   */\n      dup2\n        /* \"#utility.yul\":8538:8558   */\n      sub\n        /* \"#utility.yul\":8534:8535   */\n      0x00\n        /* \"#utility.yul\":8523:8532   */\n      dup4\n        /* \"#utility.yul\":8519:8536   */\n      add\n        /* \"#utility.yul\":8512:8559   */\n      mstore\n        /* \"#utility.yul\":8576:8707   */\n      tag_499\n        /* \"#utility.yul\":8702:8706   */\n      dup2\n        /* \"#utility.yul\":8576:8707   */\n      tag_384\n      jump\t// in\n    tag_499:\n        /* \"#utility.yul\":8568:8707   */\n      swap1\n      pop\n        /* \"#utility.yul\":8295:8714   */\n      swap2\n      swap1\n      pop\n      jump\t// out\n        /* \"#utility.yul\":8720:8900   */\n    tag_385:\n        /* \"#utility.yul\":8768:8845   */\n      0x4e487b7100000000000000000000000000000000000000000000000000000000\n        /* \"#utility.yul\":8765:8766   */\n      0x00\n        /* \"#utility.yul\":8758:8846   */\n      mstore\n        /* \"#utility.yul\":8865:8869   */\n      0x11\n        /* \"#utility.yul\":8862:8863   */\n      0x04\n        /* \"#utility.yul\":8855:8870   */\n      mstore\n        /* \"#utility.yul\":8889:8893   */\n      0x24\n        /* \"#utility.yul\":8886:8887   */\n      0x00\n        /* \"#utility.yul\":8879:8894   */\n      revert\n        /* \"#utility.yul\":8906:9316   */\n    tag_205:\n        /* \"#utility.yul\":8946:8953   */\n      0x00\n        /* \"#utility.yul\":8969:8989   */\n      tag_502\n        /* \"#utility.yul\":8987:8988   */\n      dup3\n        /* \"#utility.yul\":8969:8989   */\n      tag_371\n      jump\t// in\n    tag_502:\n        /* \"#utility.yul\":8964:8989   */\n      swap2\n      pop\n        /* \"#utility.yul\":9003:9023   */\n      tag_503\n        /* \"#utility.yul\":9021:9022   */\n      dup4\n        /* \"#utility.yul\":9003:9023   */\n      tag_371\n      jump\t// in\n    tag_503:\n        /* \"#utility.yul\":8998:9023   */\n      swap3\n      pop\n        /* \"#utility.yul\":9058:9059   */\n      dup3\n        /* \"#utility.yul\":9055:9056   */\n      dup3\n        /* \"#utility.yul\":9051:9060   */\n      mul\n        /* \"#utility.yul\":9080:9110   */\n      tag_504\n        /* \"#utility.yul\":9098:9109   */\n      dup2\n        /* \"#utility.yul\":9080:9110   */\n      tag_371\n      jump\t// in\n    tag_504:\n        /* \"#utility.yul\":9069:9110   */\n      swap2\n      pop\n        /* \"#utility.yul\":9259:9260   */\n      dup3\n        /* \"#utility.yul\":9250:9257   */\n      dup3\n        /* \"#utility.yul\":9246:9261   */\n      div\n        /* \"#utility.yul\":9243:9244   */\n      dup5\n        /* \"#utility.yul\":9240:9262   */\n      eq\n        /* \"#utility.yul\":9220:9221   */\n      dup4\n        /* \"#utility.yul\":9213:9222   */\n      iszero\n        /* \"#utility.yul\":9193:9276   */\n      or\n        /* \"#utility.yul\":9170:9309   */\n      tag_505\n      jumpi\n        /* \"#utility.yul\":9289:9307   */\n      tag_506\n      tag_385\n      jump\t// in\n    tag_506:\n        /* \"#utility.yul\":9170:9309   */\n    tag_505:\n        /* \"#utility.yul\":8954:9316   */\n      pop\n        /* \"#utility.yul\":8906:9316   */\n      swap3\n      swap2\n      pop\n      pop\n      jump\t// out\n        /* \"#utility.yul\":9322:9502   */\n    tag_386:\n        /* \"#utility.yul\":9370:9447   */\n      0x4e487b7100000000000000000000000000000000000000000000000000000000\n        /* \"#utility.yul\":9367:9368   */\n      0x00\n        /* \"#utility.yul\":9360:9448   */\n      mstore\n        /* \"#utility.yul\":9467:9471   */\n      0x12\n        /* \"#utility.yul\":9464:9465   */\n      0x04\n        /* \"#utility.yul\":9457:9472   */\n      mstore\n        /* \"#utility.yul\":9491:9495   */\n      0x24\n        /* \"#utility.yul\":9488:9489   */\n      0x00\n        /* \"#utility.yul\":9481:9496   */\n      revert\n        /* \"#utility.yul\":9508:9693   */\n    tag_208:\n        /* \"#utility.yul\":9548:9549   */\n      0x00\n        /* \"#utility.yul\":9565:9585   */\n      tag_509\n        /* \"#utility.yul\":9583:9584   */\n      dup3\n        /* \"#utility.yul\":9565:9585   */\n      tag_371\n      jump\t// in\n    tag_509:\n        /* \"#utility.yul\":9560:9585   */\n      swap2\n      pop\n        /* \"#utility.yul\":9599:9619   */\n      tag_510\n        /* \"#utility.yul\":9617:9618   */\n      dup4\n        /* \"#utility.yul\":9599:9619   */\n      tag_371\n      jump\t// in\n    tag_510:\n        /* \"#utility.yul\":9594:9619   */\n      swap3\n      pop\n        /* \"#utility.yul\":9638:9639   */\n      dup3\n        /* \"#utility.yul\":9628:9663   */\n      tag_511\n      jumpi\n        /* \"#utility.yul\":9643:9661   */\n      tag_512\n      tag_386\n      jump\t// in\n    tag_512:\n        /* \"#utility.yul\":9628:9663   */\n    tag_511:\n        /* \"#utility.yul\":9685:9686   */\n      dup3\n        /* \"#utility.yul\":9682:9683   */\n      dup3\n        /* \"#utility.yul\":9678:9687   */\n      div\n        /* \"#utility.yul\":9673:9687   */\n      swap1\n      pop\n        /* \"#utility.yul\":9508:9693   */\n      swap3\n      swap2\n      pop\n      pop\n      jump\t// out\n        /* \"#utility.yul\":9699:9878   */\n    tag_387:\n        /* \"#utility.yul\":9839:9870   */\n      0x496e73756666696369656e7420636f6e74726163742062616c616e6365000000\n        /* \"#utility.yul\":9835:9836   */\n      0x00\n        /* \"#utility.yul\":9827:9833   */\n      dup3\n        /* \"#utility.yul\":9823:9837   */\n      add\n        /* \"#utility.yul\":9816:9871   */\n      mstore\n        /* \"#utility.yul\":9699:9878   */\n      pop\n      jump\t// out\n        /* \"#utility.yul\":9884:10250   */\n    tag_388:\n        /* \"#utility.yul\":10026:10029   */\n      0x00\n        /* \"#utility.yul\":10047:10114   */\n      tag_515\n        /* \"#utility.yul\":10111:10113   */\n      0x1d\n        /* \"#utility.yul\":10106:10109   */\n      dup4\n        /* \"#utility.yul\":10047:10114   */\n      tag_360\n      jump\t// in\n    tag_515:\n        /* \"#utility.yul\":10040:10114   */\n      swap2\n      pop\n        /* \"#utility.yul\":10123:10216   */\n      tag_516\n        /* \"#utility.yul\":10212:10215   */\n      dup3\n        /* \"#utility.yul\":10123:10216   */\n      tag_387\n      jump\t// in\n    tag_516:\n        /* \"#utility.yul\":10241:10243   */\n      0x20\n        /* \"#utility.yul\":10236:10239   */\n      dup3\n        /* \"#utility.yul\":10232:10244   */\n      add\n        /* \"#utility.yul\":10225:10244   */\n      swap1\n      pop\n        /* \"#utility.yul\":9884:10250   */\n      swap2\n      swap1\n      pop\n      jump\t// out\n        /* \"#utility.yul\":10256:10675   */\n    tag_211:\n        /* \"#utility.yul\":10422:10426   */\n      0x00\n        /* \"#utility.yul\":10460:10462   */\n      0x20\n        /* \"#utility.yul\":10449:10458   */\n      dup3\n        /* \"#utility.yul\":10445:10463   */\n      add\n        /* \"#utility.yul\":10437:10463   */\n      swap1\n      pop\n        /* \"#utility.yul\":10509:10518   */\n      dup2\n        /* \"#utility.yul\":10503:10507   */\n      dup2\n        /* \"#utility.yul\":10499:10519   */\n      sub\n        /* \"#utility.yul\":10495:10496   */\n      0x00\n        /* \"#utility.yul\":10484:10493   */\n      dup4\n        /* \"#utility.yul\":10480:10497   */\n      add\n        /* \"#utility.yul\":10473:10520   */\n      mstore\n        /* \"#utility.yul\":10537:10668   */\n      tag_518\n        /* \"#utility.yul\":10663:10667   */\n      dup2\n        /* \"#utility.yul\":10537:10668   */\n      tag_388\n      jump\t// in\n    tag_518:\n        /* \"#utility.yul\":10529:10668   */\n      swap1\n      pop\n        /* \"#utility.yul\":10256:10675   */\n      swap2\n      swap1\n      pop\n      jump\t// out\n        /* \"#utility.yul\":10681:11123   */\n    tag_216:\n        /* \"#utility.yul\":10830:10834   */\n      0x00\n        /* \"#utility.yul\":10868:10870   */\n      0x60\n        /* \"#utility.yul\":10857:10866   */\n      dup3\n        /* \"#utility.yul\":10853:10871   */\n      add\n        /* \"#utility.yul\":10845:10871   */\n      swap1\n      pop\n        /* \"#utility.yul\":10881:10952   */\n      tag_520\n        /* \"#utility.yul\":10949:10950   */\n      0x00\n        /* \"#utility.yul\":10938:10947   */\n      dup4\n        /* \"#utility.yul\":10934:10951   */\n      add\n        /* \"#utility.yul\":10925:10931   */\n      dup7\n        /* \"#utility.yul\":10881:10952   */\n      tag_379\n      jump\t// in\n    tag_520:\n        /* \"#utility.yul\":10962:11034   */\n      tag_521\n        /* \"#utility.yul\":11030:11032   */\n      0x20\n        /* \"#utility.yul\":11019:11028   */\n      dup4\n        /* \"#utility.yul\":11015:11033   */\n      add\n        /* \"#utility.yul\":11006:11012   */\n      dup6\n        /* \"#utility.yul\":10962:11034   */\n      tag_376\n      jump\t// in\n    tag_521:\n        /* \"#utility.yul\":11044:11116   */\n      tag_522\n        /* \"#utility.yul\":11112:11114   */\n      0x40\n        /* \"#utility.yul\":11101:11110   */\n      dup4\n        /* \"#utility.yul\":11097:11115   */\n      add\n        /* \"#utility.yul\":11088:11094   */\n      dup5\n        /* \"#utility.yul\":11044:11116   */\n      tag_376\n      jump\t// in\n    tag_522:\n        /* \"#utility.yul\":10681:11123   */\n      swap5\n      swap4\n      pop\n      pop\n      pop\n      pop\n      jump\t// out\n        /* \"#utility.yul\":11129:11305   */\n    tag_389:\n        /* \"#utility.yul\":11269:11297   */\n      0x496e76616c696420707269636520666565642061646472657373000000000000\n        /* \"#utility.yul\":11265:11266   */\n      0x00\n        /* \"#utility.yul\":11257:11263   */\n      dup3\n        /* \"#utility.yul\":11253:11267   */\n      add\n        /* \"#utility.yul\":11246:11298   */\n      mstore\n        /* \"#utility.yul\":11129:11305   */\n      pop\n      jump\t// out\n        /* \"#utility.yul\":11311:11677   */\n    tag_390:\n        /* \"#utility.yul\":11453:11456   */\n      0x00\n        /* \"#utility.yul\":11474:11541   */\n      tag_525\n        /* \"#utility.yul\":11538:11540   */\n      0x1a\n        /* \"#utility.yul\":11533:11536   */\n      dup4\n        /* \"#utility.yul\":11474:11541   */\n      tag_360\n      jump\t// in\n    tag_525:\n        /* \"#utility.yul\":11467:11541   */\n      swap2\n      pop\n        /* \"#utility.yul\":11550:11643   */\n      tag_526\n        /* \"#utility.yul\":11639:11642   */\n      dup3\n        /* \"#utility.yul\":11550:11643   */\n      tag_389\n      jump\t// in\n    tag_526:\n        /* \"#utility.yul\":11668:11670   */\n      0x20\n        /* \"#utility.yul\":11663:11666   */\n      dup3\n        /* \"#utility.yul\":11659:11671   */\n      add\n        /* \"#utility.yul\":11652:11671   */\n      swap1\n      pop\n        /* \"#utility.yul\":11311:11677   */\n      swap2\n      swap1\n      pop\n      jump\t// out\n        /* \"#utility.yul\":11683:12102   */\n    tag_228:\n        /* \"#utility.yul\":11849:11853   */\n      0x00\n        /* \"#utility.yul\":11887:11889   */\n      0x20\n        /* \"#utility.yul\":11876:11885   */\n      dup3\n        /* \"#utility.yul\":11872:11890   */\n      add\n        /* \"#utility.yul\":11864:11890   */\n      swap1\n      pop\n        /* \"#utility.yul\":11936:11945   */\n      dup2\n        /* \"#utility.yul\":11930:11934   */\n      dup2\n        /* \"#utility.yul\":11926:11946   */\n      sub\n        /* \"#utility.yul\":11922:11923   */\n      0x00\n        /* \"#utility.yul\":11911:11920   */\n      dup4\n        /* \"#utility.yul\":11907:11924   */\n      add\n        /* \"#utility.yul\":11900:11947   */\n      mstore\n        /* \"#utility.yul\":11964:12095   */\n      tag_528\n        /* \"#utility.yul\":12090:12094   */\n      dup2\n        /* \"#utility.yul\":11964:12095   */\n      tag_390\n      jump\t// in\n    tag_528:\n        /* \"#utility.yul\":11956:12095   */\n      swap1\n      pop\n        /* \"#utility.yul\":11683:12102   */\n      swap2\n      swap1\n      pop\n      jump\t// out\n        /* \"#utility.yul\":12108:12213   */\n    tag_391:\n        /* \"#utility.yul\":12144:12151   */\n      0x00\n        /* \"#utility.yul\":12184:12206   */\n      0xffffffffffffffffffff\n        /* \"#utility.yul\":12177:12182   */\n      dup3\n        /* \"#utility.yul\":12173:12207   */\n      and\n        /* \"#utility.yul\":12162:12207   */\n      swap1\n      pop\n        /* \"#utility.yul\":12108:12213   */\n      swap2\n      swap1\n      pop\n      jump\t// out\n        /* \"#utility.yul\":12219:12339   */\n    tag_392:\n        /* \"#utility.yul\":12291:12314   */\n      tag_531\n        /* \"#utility.yul\":12308:12313   */\n      dup2\n        /* \"#utility.yul\":12291:12314   */\n      tag_391\n      jump\t// in\n    tag_531:\n        /* \"#utility.yul\":12284:12289   */\n      dup2\n        /* \"#utility.yul\":12281:12315   */\n      eq\n        /* \"#utility.yul\":12271:12333   */\n      tag_532\n      jumpi\n        /* \"#utility.yul\":12329:12330   */\n      0x00\n        /* \"#utility.yul\":12326:12327   */\n      dup1\n        /* \"#utility.yul\":12319:12331   */\n      revert\n        /* \"#utility.yul\":12271:12333   */\n    tag_532:\n        /* \"#utility.yul\":12219:12339   */\n      pop\n      jump\t// out\n        /* \"#utility.yul\":12345:12486   */\n    tag_393:\n        /* \"#utility.yul\":12401:12406   */\n      0x00\n        /* \"#utility.yul\":12432:12438   */\n      dup2\n        /* \"#utility.yul\":12426:12439   */\n      mload\n        /* \"#utility.yul\":12417:12439   */\n      swap1\n      pop\n        /* \"#utility.yul\":12448:12480   */\n      tag_534\n        /* \"#utility.yul\":12474:12479   */\n      dup2\n        /* \"#utility.yul\":12448:12480   */\n      tag_392\n      jump\t// in\n    tag_534:\n        /* \"#utility.yul\":12345:12486   */\n      swap3\n      swap2\n      pop\n      pop\n      jump\t// out\n        /* \"#utility.yul\":12492:12568   */\n    tag_394:\n        /* \"#utility.yul\":12528:12535   */\n      0x00\n        /* \"#utility.yul\":12557:12562   */\n      dup2\n        /* \"#utility.yul\":12546:12562   */\n      swap1\n      pop\n        /* \"#utility.yul\":12492:12568   */\n      swap2\n      swap1\n      pop\n      jump\t// out\n        /* \"#utility.yul\":12574:12694   */\n    tag_395:\n        /* \"#utility.yul\":12646:12669   */\n      tag_537\n        /* \"#utility.yul\":12663:12668   */\n      dup2\n        /* \"#utility.yul\":12646:12669   */\n      tag_394\n      jump\t// in\n    tag_537:\n        /* \"#utility.yul\":12639:12644   */\n      dup2\n        /* \"#utility.yul\":12636:12670   */\n      eq\n        /* \"#utility.yul\":12626:12688   */\n      tag_538\n      jumpi\n        /* \"#utility.yul\":12684:12685   */\n      0x00\n        /* \"#utility.yul\":12681:12682   */\n      dup1\n        /* \"#utility.yul\":12674:12686   */\n      revert\n        /* \"#utility.yul\":12626:12688   */\n    tag_538:\n        /* \"#utility.yul\":12574:12694   */\n      pop\n      jump\t// out\n        /* \"#utility.yul\":12700:12841   */\n    tag_396:\n        /* \"#utility.yul\":12756:12761   */\n      0x00\n        /* \"#utility.yul\":12787:12793   */\n      dup2\n        /* \"#utility.yul\":12781:12794   */\n      mload\n        /* \"#utility.yul\":12772:12794   */\n      swap1\n      pop\n        /* \"#utility.yul\":12803:12835   */\n      tag_540\n        /* \"#utility.yul\":12829:12834   */\n      dup2\n        /* \"#utility.yul\":12803:12835   */\n      tag_395\n      jump\t// in\n    tag_540:\n        /* \"#utility.yul\":12700:12841   */\n      swap3\n      swap2\n      pop\n      pop\n      jump\t// out\n        /* \"#utility.yul\":12847:12990   */\n    tag_397:\n        /* \"#utility.yul\":12904:12909   */\n      0x00\n        /* \"#utility.yul\":12935:12941   */\n      dup2\n        /* \"#utility.yul\":12929:12942   */\n      mload\n        /* \"#utility.yul\":12920:12942   */\n      swap1\n      pop\n        /* \"#utility.yul\":12951:12984   */\n      tag_542\n        /* \"#utility.yul\":12978:12983   */\n      dup2\n        /* \"#utility.yul\":12951:12984   */\n      tag_372\n      jump\t// in\n    tag_542:\n        /* \"#utility.yul\":12847:12990   */\n      swap3\n      swap2\n      pop\n      pop\n      jump\t// out\n        /* \"#utility.yul\":12996:13967   */\n    tag_238:\n        /* \"#utility.yul\":13099:13105   */\n      0x00\n        /* \"#utility.yul\":13107:13113   */\n      dup1\n        /* \"#utility.yul\":13115:13121   */\n      0x00\n        /* \"#utility.yul\":13123:13129   */\n      dup1\n        /* \"#utility.yul\":13131:13137   */\n      0x00\n        /* \"#utility.yul\":13180:13183   */\n      0xa0\n        /* \"#utility.yul\":13168:13177   */\n      dup7\n        /* \"#utility.yul\":13159:13166   */\n      dup9\n        /* \"#utility.yul\":13155:13178   */\n      sub\n        /* \"#utility.yul\":13151:13184   */\n      slt\n        /* \"#utility.yul\":13148:13268   */\n      iszero\n      tag_544\n      jumpi\n        /* \"#utility.yul\":13187:13266   */\n      tag_545\n      tag_365\n      jump\t// in\n    tag_545:\n        /* \"#utility.yul\":13148:13268   */\n    tag_544:\n        /* \"#utility.yul\":13307:13308   */\n      0x00\n        /* \"#utility.yul\":13332:13395   */\n      tag_546\n        /* \"#utility.yul\":13387:13394   */\n      dup9\n        /* \"#utility.yul\":13378:13384   */\n      dup3\n        /* \"#utility.yul\":13367:13376   */\n      dup10\n        /* \"#utility.yul\":13363:13385   */\n      add\n        /* \"#utility.yul\":13332:13395   */\n      tag_393\n      jump\t// in\n    tag_546:\n        /* \"#utility.yul\":13322:13395   */\n      swap6\n      pop\n        /* \"#utility.yul\":13278:13405   */\n      pop\n        /* \"#utility.yul\":13444:13446   */\n      0x20\n        /* \"#utility.yul\":13470:13533   */\n      tag_547\n        /* \"#utility.yul\":13525:13532   */\n      dup9\n        /* \"#utility.yul\":13516:13522   */\n      dup3\n        /* \"#utility.yul\":13505:13514   */\n      dup10\n        /* \"#utility.yul\":13501:13523   */\n      add\n        /* \"#utility.yul\":13470:13533   */\n      tag_396\n      jump\t// in\n    tag_547:\n        /* \"#utility.yul\":13460:13533   */\n      swap5\n      pop\n        /* \"#utility.yul\":13415:13543   */\n      pop\n        /* \"#utility.yul\":13582:13584   */\n      0x40\n        /* \"#utility.yul\":13608:13672   */\n      tag_548\n        /* \"#utility.yul\":13664:13671   */\n      dup9\n        /* \"#utility.yul\":13655:13661   */\n      dup3\n        /* \"#utility.yul\":13644:13653   */\n      dup10\n        /* \"#utility.yul\":13640:13662   */\n      add\n        /* \"#utility.yul\":13608:13672   */\n      tag_397\n      jump\t// in\n    tag_548:\n        /* \"#utility.yul\":13598:13672   */\n      swap4\n      pop\n        /* \"#utility.yul\":13553:13682   */\n      pop\n        /* \"#utility.yul\":13721:13723   */\n      0x60\n        /* \"#utility.yul\":13747:13811   */\n      tag_549\n        /* \"#utility.yul\":13803:13810   */\n      dup9\n        /* \"#utility.yul\":13794:13800   */\n      dup3\n        /* \"#utility.yul\":13783:13792   */\n      dup10\n        /* \"#utility.yul\":13779:13801   */\n      add\n        /* \"#utility.yul\":13747:13811   */\n      tag_397\n      jump\t// in\n    tag_549:\n        /* \"#utility.yul\":13737:13811   */\n      swap3\n      pop\n        /* \"#utility.yul\":13692:13821   */\n      pop\n        /* \"#utility.yul\":13860:13863   */\n      0x80\n        /* \"#utility.yul\":13887:13950   */\n      tag_550\n        /* \"#utility.yul\":13942:13949   */\n      dup9\n        /* \"#utility.yul\":13933:13939   */\n      dup3\n        /* \"#utility.yul\":13922:13931   */\n      dup10\n        /* \"#utility.yul\":13918:13940   */\n      add\n        /* \"#utility.yul\":13887:13950   */\n      tag_393\n      jump\t// in\n    tag_550:\n        /* \"#utility.yul\":13877:13950   */\n      swap2\n      pop\n        /* \"#utility.yul\":13831:13960   */\n      pop\n        /* \"#utility.yul\":12996:13967   */\n      swap3\n      swap6\n      pop\n      swap3\n      swap6\n      swap1\n      swap4\n      pop\n      jump\t// out\n        /* \"#utility.yul\":13973:14167   */\n    tag_251:\n        /* \"#utility.yul\":14013:14017   */\n      0x00\n        /* \"#utility.yul\":14033:14053   */\n      tag_552\n        /* \"#utility.yul\":14051:14052   */\n      dup3\n        /* \"#utility.yul\":14033:14053   */\n      tag_371\n      jump\t// in\n    tag_552:\n        /* \"#utility.yul\":14028:14053   */\n      swap2\n      pop\n        /* \"#utility.yul\":14067:14087   */\n      tag_553\n        /* \"#utility.yul\":14085:14086   */\n      dup4\n        /* \"#utility.yul\":14067:14087   */\n      tag_371\n      jump\t// in\n    tag_553:\n        /* \"#utility.yul\":14062:14087   */\n      swap3\n      pop\n        /* \"#utility.yul\":14111:14112   */\n      dup3\n        /* \"#utility.yul\":14108:14109   */\n      dup3\n        /* \"#utility.yul\":14104:14113   */\n      sub\n        /* \"#utility.yul\":14096:14113   */\n      swap1\n      pop\n        /* \"#utility.yul\":14135:14136   */\n      dup2\n        /* \"#utility.yul\":14129:14133   */\n      dup2\n        /* \"#utility.yul\":14126:14137   */\n      gt\n        /* \"#utility.yul\":14123:14160   */\n      iszero\n      tag_554\n      jumpi\n        /* \"#utility.yul\":14140:14158   */\n      tag_555\n      tag_385\n      jump\t// in\n    tag_555:\n        /* \"#utility.yul\":14123:14160   */\n    tag_554:\n        /* \"#utility.yul\":13973:14167   */\n      swap3\n      swap2\n      pop\n      pop\n      jump\t// out\n        /* \"#utility.yul\":14173:14352   */\n    tag_398:\n        /* \"#utility.yul\":14313:14344   */\n      0x416d6f756e74206d7573742062652067726561746572207468616e2030000000\n        /* \"#utility.yul\":14309:14310   */\n      0x00\n        /* \"#utility.yul\":14301:14307   */\n      dup3\n        /* \"#utility.yul\":14297:14311   */\n      add\n        /* \"#utility.yul\":14290:14345   */\n      mstore\n        /* \"#utility.yul\":14173:14352   */\n      pop\n      jump\t// out\n        /* \"#utility.yul\":14358:14724   */\n    tag_399:\n        /* \"#utility.yul\":14500:14503   */\n      0x00\n        /* \"#utility.yul\":14521:14588   */\n      tag_558\n        /* \"#utility.yul\":14585:14587   */\n      0x1d\n        /* \"#utility.yul\":14580:14583   */\n      dup4\n        /* \"#utility.yul\":14521:14588   */\n      tag_360\n      jump\t// in\n    tag_558:\n        /* \"#utility.yul\":14514:14588   */\n      swap2\n      pop\n        /* \"#utility.yul\":14597:14690   */\n      tag_559\n        /* \"#utility.yul\":14686:14689   */\n      dup3\n        /* \"#utility.yul\":14597:14690   */\n      tag_398\n      jump\t// in\n    tag_559:\n        /* \"#utility.yul\":14715:14717   */\n      0x20\n        /* \"#utility.yul\":14710:14713   */\n      dup3\n        /* \"#utility.yul\":14706:14718   */\n      add\n        /* \"#utility.yul\":14699:14718   */\n      swap1\n      pop\n        /* \"#utility.yul\":14358:14724   */\n      swap2\n      swap1\n      pop\n      jump\t// out\n        /* \"#utility.yul\":14730:15149   */\n    tag_259:\n        /* \"#utility.yul\":14896:14900   */\n      0x00\n        /* \"#utility.yul\":14934:14936   */\n      0x20\n        /* \"#utility.yul\":14923:14932   */\n      dup3\n        /* \"#utility.yul\":14919:14937   */\n      add\n        /* \"#utility.yul\":14911:14937   */\n      swap1\n      pop\n        /* \"#utility.yul\":14983:14992   */\n      dup2\n        /* \"#utility.yul\":14977:14981   */\n      dup2\n        /* \"#utility.yul\":14973:14993   */\n      sub\n        /* \"#utility.yul\":14969:14970   */\n      0x00\n        /* \"#utility.yul\":14958:14967   */\n      dup4\n        /* \"#utility.yul\":14954:14971   */\n      add\n        /* \"#utility.yul\":14947:14994   */\n      mstore\n        /* \"#utility.yul\":15011:15142   */\n      tag_561\n        /* \"#utility.yul\":15137:15141   */\n      dup2\n        /* \"#utility.yul\":15011:15142   */\n      tag_399\n      jump\t// in\n    tag_561:\n        /* \"#utility.yul\":15003:15142   */\n      swap1\n      pop\n        /* \"#utility.yul\":14730:15149   */\n      swap2\n      swap1\n      pop\n      jump\t// out\n        /* \"#utility.yul\":15155:15325   */\n    tag_400:\n        /* \"#utility.yul\":15295:15317   */\n      0x496e73756666696369656e742062616c616e6365000000000000000000000000\n        /* \"#utility.yul\":15291:15292   */\n      0x00\n        /* \"#utility.yul\":15283:15289   */\n      dup3\n        /* \"#utility.yul\":15279:15293   */\n      add\n        /* \"#utility.yul\":15272:15318   */\n      mstore\n        /* \"#utility.yul\":15155:15325   */\n      pop\n      jump\t// out\n        /* \"#utility.yul\":15331:15697   */\n    tag_401:\n        /* \"#utility.yul\":15473:15476   */\n      0x00\n        /* \"#utility.yul\":15494:15561   */\n      tag_564\n        /* \"#utility.yul\":15558:15560   */\n      0x14\n        /* \"#utility.yul\":15553:15556   */\n      dup4\n        /* \"#utility.yul\":15494:15561   */\n      tag_360\n      jump\t// in\n    tag_564:\n        /* \"#utility.yul\":15487:15561   */\n      swap2\n      pop\n        /* \"#utility.yul\":15570:15663   */\n      tag_565\n        /* \"#utility.yul\":15659:15662   */\n      dup3\n        /* \"#utility.yul\":15570:15663   */\n      tag_400\n      jump\t// in\n    tag_565:\n        /* \"#utility.yul\":15688:15690   */\n      0x20\n        /* \"#utility.yul\":15683:15686   */\n      dup3\n        /* \"#utility.yul\":15679:15691   */\n      add\n        /* \"#utility.yul\":15672:15691   */\n      swap1\n      pop\n        /* \"#utility.yul\":15331:15697   */\n      swap2\n      swap1\n      pop\n      jump\t// out\n        /* \"#utility.yul\":15703:16122   */\n    tag_263:\n        /* \"#utility.yul\":15869:15873   */\n      0x00\n        /* \"#utility.yul\":15907:15909   */\n      0x20\n        /* \"#utility.yul\":15896:15905   */\n      dup3\n        /* \"#utility.yul\":15892:15910   */\n      add\n        /* \"#utility.yul\":15884:15910   */\n      swap1\n      pop\n        /* \"#utility.yul\":15956:15965   */\n      dup2\n        /* \"#utility.yul\":15950:15954   */\n      dup2\n        /* \"#utility.yul\":15946:15966   */\n      sub\n        /* \"#utility.yul\":15942:15943   */\n      0x00\n        /* \"#utility.yul\":15931:15940   */\n      dup4\n        /* \"#utility.yul\":15927:15944   */\n      add\n        /* \"#utility.yul\":15920:15967   */\n      mstore\n        /* \"#utility.yul\":15984:16115   */\n      tag_567\n        /* \"#utility.yul\":16110:16114   */\n      dup2\n        /* \"#utility.yul\":15984:16115   */\n      tag_401\n      jump\t// in\n    tag_567:\n        /* \"#utility.yul\":15976:16115   */\n      swap1\n      pop\n        /* \"#utility.yul\":15703:16122   */\n      swap2\n      swap1\n      pop\n      jump\t// out\n        /* \"#utility.yul\":16128:16319   */\n    tag_267:\n        /* \"#utility.yul\":16168:16171   */\n      0x00\n        /* \"#utility.yul\":16187:16207   */\n      tag_569\n        /* \"#utility.yul\":16205:16206   */\n      dup3\n        /* \"#utility.yul\":16187:16207   */\n      tag_371\n      jump\t// in\n    tag_569:\n        /* \"#utility.yul\":16182:16207   */\n      swap2\n      pop\n        /* \"#utility.yul\":16221:16241   */\n      tag_570\n        /* \"#utility.yul\":16239:16240   */\n      dup4\n        /* \"#utility.yul\":16221:16241   */\n      tag_371\n      jump\t// in\n    tag_570:\n        /* \"#utility.yul\":16216:16241   */\n      swap3\n      pop\n        /* \"#utility.yul\":16264:16265   */\n      dup3\n        /* \"#utility.yul\":16261:16262   */\n      dup3\n        /* \"#utility.yul\":16257:16266   */\n      add\n        /* \"#utility.yul\":16250:16266   */\n      swap1\n      pop\n        /* \"#utility.yul\":16285:16288   */\n      dup1\n        /* \"#utility.yul\":16282:16283   */\n      dup3\n        /* \"#utility.yul\":16279:16289   */\n      gt\n        /* \"#utility.yul\":16276:16312   */\n      iszero\n      tag_571\n      jumpi\n        /* \"#utility.yul\":16292:16310   */\n      tag_572\n      tag_385\n      jump\t// in\n    tag_572:\n        /* \"#utility.yul\":16276:16312   */\n    tag_571:\n        /* \"#utility.yul\":16128:16319   */\n      swap3\n      swap2\n      pop\n      pop\n      jump\t// out\n        /* \"#utility.yul\":16325:16556   */\n    tag_402:\n        /* \"#utility.yul\":16465:16499   */\n      0x506c65617365207761697420323420686f757273206265747765656e20666175\n        /* \"#utility.yul\":16461:16462   */\n      0x00\n        /* \"#utility.yul\":16453:16459   */\n      dup3\n        /* \"#utility.yul\":16449:16463   */\n      add\n        /* \"#utility.yul\":16442:16500   */\n      mstore\n        /* \"#utility.yul\":16534:16548   */\n      0x6365742072657175657374730000000000000000000000000000000000000000\n        /* \"#utility.yul\":16529:16531   */\n      0x20\n        /* \"#utility.yul\":16521:16527   */\n      dup3\n        /* \"#utility.yul\":16517:16532   */\n      add\n        /* \"#utility.yul\":16510:16549   */\n      mstore\n        /* \"#utility.yul\":16325:16556   */\n      pop\n      jump\t// out\n        /* \"#utility.yul\":16562:16928   */\n    tag_403:\n        /* \"#utility.yul\":16704:16707   */\n      0x00\n        /* \"#utility.yul\":16725:16792   */\n      tag_575\n        /* \"#utility.yul\":16789:16791   */\n      0x2c\n        /* \"#utility.yul\":16784:16787   */\n      dup4\n        /* \"#utility.yul\":16725:16792   */\n      tag_360\n      jump\t// in\n    tag_575:\n        /* \"#utility.yul\":16718:16792   */\n      swap2\n      pop\n        /* \"#utility.yul\":16801:16894   */\n      tag_576\n        /* \"#utility.yul\":16890:16893   */\n      dup3\n        /* \"#utility.yul\":16801:16894   */\n      tag_402\n      jump\t// in\n    tag_576:\n        /* \"#utility.yul\":16919:16921   */\n      0x40\n        /* \"#utility.yul\":16914:16917   */\n      dup3\n        /* \"#utility.yul\":16910:16922   */\n      add\n        /* \"#utility.yul\":16903:16922   */\n      swap1\n      pop\n        /* \"#utility.yul\":16562:16928   */\n      swap2\n      swap1\n      pop\n      jump\t// out\n        /* \"#utility.yul\":16934:17353   */\n    tag_270:\n        /* \"#utility.yul\":17100:17104   */\n      0x00\n        /* \"#utility.yul\":17138:17140   */\n      0x20\n        /* \"#utility.yul\":17127:17136   */\n      dup3\n        /* \"#utility.yul\":17123:17141   */\n      add\n        /* \"#utility.yul\":17115:17141   */\n      swap1\n      pop\n        /* \"#utility.yul\":17187:17196   */\n      dup2\n        /* \"#utility.yul\":17181:17185   */\n      dup2\n        /* \"#utility.yul\":17177:17197   */\n      sub\n        /* \"#utility.yul\":17173:17174   */\n      0x00\n        /* \"#utility.yul\":17162:17171   */\n      dup4\n        /* \"#utility.yul\":17158:17175   */\n      add\n        /* \"#utility.yul\":17151:17198   */\n      mstore\n        /* \"#utility.yul\":17215:17346   */\n      tag_578\n        /* \"#utility.yul\":17341:17345   */\n      dup2\n        /* \"#utility.yul\":17215:17346   */\n      tag_403\n      jump\t// in\n    tag_578:\n        /* \"#utility.yul\":17207:17346   */\n      swap1\n      pop\n        /* \"#utility.yul\":16934:17353   */\n      swap2\n      swap1\n      pop\n      jump\t// out\n        /* \"#utility.yul\":17359:17524   */\n    tag_404:\n        /* \"#utility.yul\":17499:17516   */\n      0x46617563657420697320656d7074790000000000000000000000000000000000\n        /* \"#utility.yul\":17495:17496   */\n      0x00\n        /* \"#utility.yul\":17487:17493   */\n      dup3\n        /* \"#utility.yul\":17483:17497   */\n      add\n        /* \"#utility.yul\":17476:17517   */\n      mstore\n        /* \"#utility.yul\":17359:17524   */\n      pop\n      jump\t// out\n        /* \"#utility.yul\":17530:17896   */\n    tag_405:\n        /* \"#utility.yul\":17672:17675   */\n      0x00\n        /* \"#utility.yul\":17693:17760   */\n      tag_581\n        /* \"#utility.yul\":17757:17759   */\n      0x0f\n        /* \"#utility.yul\":17752:17755   */\n      dup4\n        /* \"#utility.yul\":17693:17760   */\n      tag_360\n      jump\t// in\n    tag_581:\n        /* \"#utility.yul\":17686:17760   */\n      swap2\n      pop\n        /* \"#utility.yul\":17769:17862   */\n      tag_582\n        /* \"#utility.yul\":17858:17861   */\n      dup3\n        /* \"#utility.yul\":17769:17862   */\n      tag_404\n      jump\t// in\n    tag_582:\n        /* \"#utility.yul\":17887:17889   */\n      0x20\n        /* \"#utility.yul\":17882:17885   */\n      dup3\n        /* \"#utility.yul\":17878:17890   */\n      add\n        /* \"#utility.yul\":17871:17890   */\n      swap1\n      pop\n        /* \"#utility.yul\":17530:17896   */\n      swap2\n      swap1\n      pop\n      jump\t// out\n        /* \"#utility.yul\":17902:18321   */\n    tag_274:\n        /* \"#utility.yul\":18068:18072   */\n      0x00\n        /* \"#utility.yul\":18106:18108   */\n      0x20\n        /* \"#utility.yul\":18095:18104   */\n      dup3\n        /* \"#utility.yul\":18091:18109   */\n      add\n        /* \"#utility.yul\":18083:18109   */\n      swap1\n      pop\n        /* \"#utility.yul\":18155:18164   */\n      dup2\n        /* \"#utility.yul\":18149:18153   */\n      dup2\n        /* \"#utility.yul\":18145:18165   */\n      sub\n        /* \"#utility.yul\":18141:18142   */\n      0x00\n        /* \"#utility.yul\":18130:18139   */\n      dup4\n        /* \"#utility.yul\":18126:18143   */\n      add\n        /* \"#utility.yul\":18119:18166   */\n      mstore\n        /* \"#utility.yul\":18183:18314   */\n      tag_584\n        /* \"#utility.yul\":18309:18313   */\n      dup2\n        /* \"#utility.yul\":18183:18314   */\n      tag_405\n      jump\t// in\n    tag_584:\n        /* \"#utility.yul\":18175:18314   */\n      swap1\n      pop\n        /* \"#utility.yul\":17902:18321   */\n      swap2\n      swap1\n      pop\n      jump\t// out\n        /* \"#utility.yul\":18327:18659   */\n    tag_277:\n        /* \"#utility.yul\":18448:18452   */\n      0x00\n        /* \"#utility.yul\":18486:18488   */\n      0x40\n        /* \"#utility.yul\":18475:18484   */\n      dup3\n        /* \"#utility.yul\":18471:18489   */\n      add\n        /* \"#utility.yul\":18463:18489   */\n      swap1\n      pop\n        /* \"#utility.yul\":18499:18570   */\n      tag_586\n        /* \"#utility.yul\":18567:18568   */\n      0x00\n        /* \"#utility.yul\":18556:18565   */\n      dup4\n        /* \"#utility.yul\":18552:18569   */\n      add\n        /* \"#utility.yul\":18543:18549   */\n      dup6\n        /* \"#utility.yul\":18499:18570   */\n      tag_379\n      jump\t// in\n    tag_586:\n        /* \"#utility.yul\":18580:18652   */\n      tag_587\n        /* \"#utility.yul\":18648:18650   */\n      0x20\n        /* \"#utility.yul\":18637:18646   */\n      dup4\n        /* \"#utility.yul\":18633:18651   */\n      add\n        /* \"#utility.yul\":18624:18630   */\n      dup5\n        /* \"#utility.yul\":18580:18652   */\n      tag_376\n      jump\t// in\n    tag_587:\n        /* \"#utility.yul\":18327:18659   */\n      swap4\n      swap3\n      pop\n      pop\n      pop\n      jump\t// out\n        /* \"#utility.yul\":18665:18842   */\n    tag_406:\n        /* \"#utility.yul\":18805:18834   */\n      0x4d7573742073656e642045544820746f2062757920746f6b656e730000000000\n        /* \"#utility.yul\":18801:18802   */\n      0x00\n        /* \"#utility.yul\":18793:18799   */\n      dup3\n        /* \"#utility.yul\":18789:18803   */\n      add\n        /* \"#utility.yul\":18782:18835   */\n      mstore\n        /* \"#utility.yul\":18665:18842   */\n      pop\n      jump\t// out\n        /* \"#utility.yul\":18848:19214   */\n    tag_407:\n        /* \"#utility.yul\":18990:18993   */\n      0x00\n        /* \"#utility.yul\":19011:19078   */\n      tag_590\n        /* \"#utility.yul\":19075:19077   */\n      0x1b\n        /* \"#utility.yul\":19070:19073   */\n      dup4\n        /* \"#utility.yul\":19011:19078   */\n      tag_360\n      jump\t// in\n    tag_590:\n        /* \"#utility.yul\":19004:19078   */\n      swap2\n      pop\n        /* \"#utility.yul\":19087:19180   */\n      tag_591\n        /* \"#utility.yul\":19176:19179   */\n      dup3\n        /* \"#utility.yul\":19087:19180   */\n      tag_406\n      jump\t// in\n    tag_591:\n        /* \"#utility.yul\":19205:19207   */\n      0x20\n        /* \"#utility.yul\":19200:19203   */\n      dup3\n        /* \"#utility.yul\":19196:19208   */\n      add\n        /* \"#utility.yul\":19189:19208   */\n      swap1\n      pop\n        /* \"#utility.yul\":18848:19214   */\n      swap2\n      swap1\n      pop\n      jump\t// out\n        /* \"#utility.yul\":19220:19639   */\n    tag_288:\n        /* \"#utility.yul\":19386:19390   */\n      0x00\n        /* \"#utility.yul\":19424:19426   */\n      0x20\n        /* \"#utility.yul\":19413:19422   */\n      dup3\n        /* \"#utility.yul\":19409:19427   */\n      add\n        /* \"#utility.yul\":19401:19427   */\n      swap1\n      pop\n        /* \"#utility.yul\":19473:19482   */\n      dup2\n        /* \"#utility.yul\":19467:19471   */\n      dup2\n        /* \"#utility.yul\":19463:19483   */\n      sub\n        /* \"#utility.yul\":19459:19460   */\n      0x00\n        /* \"#utility.yul\":19448:19457   */\n      dup4\n        /* \"#utility.yul\":19444:19461   */\n      add\n        /* \"#utility.yul\":19437:19484   */\n      mstore\n        /* \"#utility.yul\":19501:19632   */\n      tag_593\n        /* \"#utility.yul\":19627:19631   */\n      dup2\n        /* \"#utility.yul\":19501:19632   */\n      tag_407\n      jump\t// in\n    tag_593:\n        /* \"#utility.yul\":19493:19632   */\n      swap1\n      pop\n        /* \"#utility.yul\":19220:19639   */\n      swap2\n      swap1\n      pop\n      jump\t// out\n        /* \"#utility.yul\":19645:19815   */\n    tag_408:\n        /* \"#utility.yul\":19785:19807   */\n      0x45544820616d6f756e7420746f6f20736d616c6c000000000000000000000000\n        /* \"#utility.yul\":19781:19782   */\n      0x00\n        /* \"#utility.yul\":19773:19779   */\n      dup3\n        /* \"#utility.yul\":19769:19783   */\n      add\n        /* \"#utility.yul\":19762:19808   */\n      mstore\n        /* \"#utility.yul\":19645:19815   */\n      pop\n      jump\t// out\n        /* \"#utility.yul\":19821:20187   */\n    tag_409:\n        /* \"#utility.yul\":19963:19966   */\n      0x00\n        /* \"#utility.yul\":19984:20051   */\n      tag_596\n        /* \"#utility.yul\":20048:20050   */\n      0x14\n        /* \"#utility.yul\":20043:20046   */\n      dup4\n        /* \"#utility.yul\":19984:20051   */\n      tag_360\n      jump\t// in\n    tag_596:\n        /* \"#utility.yul\":19977:20051   */\n      swap2\n      pop\n        /* \"#utility.yul\":20060:20153   */\n      tag_597\n        /* \"#utility.yul\":20149:20152   */\n      dup3\n        /* \"#utility.yul\":20060:20153   */\n      tag_408\n      jump\t// in\n    tag_597:\n        /* \"#utility.yul\":20178:20180   */\n      0x20\n        /* \"#utility.yul\":20173:20176   */\n      dup3\n        /* \"#utility.yul\":20169:20181   */\n      add\n        /* \"#utility.yul\":20162:20181   */\n      swap1\n      pop\n        /* \"#utility.yul\":19821:20187   */\n      swap2\n      swap1\n      pop\n      jump\t// out\n        /* \"#utility.yul\":20193:20612   */\n    tag_292:\n        /* \"#utility.yul\":20359:20363   */\n      0x00\n        /* \"#utility.yul\":20397:20399   */\n      0x20\n        /* \"#utility.yul\":20386:20395   */\n      dup3\n        /* \"#utility.yul\":20382:20400   */\n      add\n        /* \"#utility.yul\":20374:20400   */\n      swap1\n      pop\n        /* \"#utility.yul\":20446:20455   */\n      dup2\n        /* \"#utility.yul\":20440:20444   */\n      dup2\n        /* \"#utility.yul\":20436:20456   */\n      sub\n        /* \"#utility.yul\":20432:20433   */\n      0x00\n        /* \"#utility.yul\":20421:20430   */\n      dup4\n        /* \"#utility.yul\":20417:20434   */\n      add\n        /* \"#utility.yul\":20410:20457   */\n      mstore\n        /* \"#utility.yul\":20474:20605   */\n      tag_599\n        /* \"#utility.yul\":20600:20604   */\n      dup2\n        /* \"#utility.yul\":20474:20605   */\n      tag_409\n      jump\t// in\n    tag_599:\n        /* \"#utility.yul\":20466:20605   */\n      swap1\n      pop\n        /* \"#utility.yul\":20193:20612   */\n      swap2\n      swap1\n      pop\n      jump\t// out\n        /* \"#utility.yul\":20618:20786   */\n    tag_410:\n        /* \"#utility.yul\":20758:20778   */\n      0x4e6f2045544820746f2077697468647261770000000000000000000000000000\n        /* \"#utility.yul\":20754:20755   */\n      0x00\n        /* \"#utility.yul\":20746:20752   */\n      dup3\n        /* \"#utility.yul\":20742:20756   */\n      add\n        /* \"#utility.yul\":20735:20779   */\n      mstore\n        /* \"#utility.yul\":20618:20786   */\n      pop\n      jump\t// out\n        /* \"#utility.yul\":20792:21158   */\n    tag_411:\n        /* \"#utility.yul\":20934:20937   */\n      0x00\n        /* \"#utility.yul\":20955:21022   */\n      tag_602\n        /* \"#utility.yul\":21019:21021   */\n      0x12\n        /* \"#utility.yul\":21014:21017   */\n      dup4\n        /* \"#utility.yul\":20955:21022   */\n      tag_360\n      jump\t// in\n    tag_602:\n        /* \"#utility.yul\":20948:21022   */\n      swap2\n      pop\n        /* \"#utility.yul\":21031:21124   */\n      tag_603\n        /* \"#utility.yul\":21120:21123   */\n      dup3\n        /* \"#utility.yul\":21031:21124   */\n      tag_410\n      jump\t// in\n    tag_603:\n        /* \"#utility.yul\":21149:21151   */\n      0x20\n        /* \"#utility.yul\":21144:21147   */\n      dup3\n        /* \"#utility.yul\":21140:21152   */\n      add\n        /* \"#utility.yul\":21133:21152   */\n      swap1\n      pop\n        /* \"#utility.yul\":20792:21158   */\n      swap2\n      swap1\n      pop\n      jump\t// out\n        /* \"#utility.yul\":21164:21583   */\n    tag_301:\n        /* \"#utility.yul\":21330:21334   */\n      0x00\n        /* \"#utility.yul\":21368:21370   */\n      0x20\n        /* \"#utility.yul\":21357:21366   */\n      dup3\n        /* \"#utility.yul\":21353:21371   */\n      add\n        /* \"#utility.yul\":21345:21371   */\n      swap1\n      pop\n        /* \"#utility.yul\":21417:21426   */\n      dup2\n        /* \"#utility.yul\":21411:21415   */\n      dup2\n        /* \"#utility.yul\":21407:21427   */\n      sub\n        /* \"#utility.yul\":21403:21404   */\n      0x00\n        /* \"#utility.yul\":21392:21401   */\n      dup4\n        /* \"#utility.yul\":21388:21405   */\n      add\n        /* \"#utility.yul\":21381:21428   */\n      mstore\n        /* \"#utility.yul\":21445:21576   */\n      tag_605\n        /* \"#utility.yul\":21571:21575   */\n      dup2\n        /* \"#utility.yul\":21445:21576   */\n      tag_411\n      jump\t// in\n    tag_605:\n        /* \"#utility.yul\":21437:21576   */\n      swap1\n      pop\n        /* \"#utility.yul\":21164:21583   */\n      swap2\n      swap1\n      pop\n      jump\t// out\n\n    auxdata: 0xa2646970667358221220175b9d67b782a0f8282649bb21f01726efaa5978f65b9197e2f774617d4fe11b64736f6c634300081a0033\n}\n",
				"bytecode": {
					"linkReferences": {},
					"object": "608060405234801561000f575f80fd5b50604051612f9b380380612f9b83398181016040528101906100319190610585565b816040518060400160405280600781526020017f464c4942424552000000000000000000000000000000000000000000000000008152506040518060400160405280600481526020017f244649420000000000000000000000000000000000000000000000000000000081525081600390816100ad91906107fd565b5080600490816100bd91906107fd565b5050505f73ffffffffffffffffffffffffffffffffffffffff168173ffffffffffffffffffffffffffffffffffffffff1603610130575f6040517f1e4fbdf700000000000000000000000000000000000000000000000000000000815260040161012791906108db565b60405180910390fd5b61013f816101be60201b60201c565b508060065f6101000a81548173ffffffffffffffffffffffffffffffffffffffff021916908373ffffffffffffffffffffffffffffffffffffffff1602179055506101b73361019261028160201b60201c565b600a61019e9190610a5c565b620f42406101ac9190610aa6565b61028960201b60201c565b5050610b77565b5f60055f9054906101000a900473ffffffffffffffffffffffffffffffffffffffff1690508160055f6101000a81548173ffffffffffffffffffffffffffffffffffffffff021916908373ffffffffffffffffffffffffffffffffffffffff1602179055508173ffffffffffffffffffffffffffffffffffffffff168173ffffffffffffffffffffffffffffffffffffffff167f8be0079c531659141344cd1fd0a4f28419497f9722a3daafe3b4186f6b6457e060405160405180910390a35050565b5f6012905090565b5f73ffffffffffffffffffffffffffffffffffffffff168273ffffffffffffffffffffffffffffffffffffffff16036102f9575f6040517fec442f050000000000000000000000000000000000000000000000000000000081526004016102f091906108db565b60405180910390fd5b61030a5f838361030e60201b60201c565b5050565b5f73ffffffffffffffffffffffffffffffffffffffff168373ffffffffffffffffffffffffffffffffffffffff160361035e578060025f8282546103529190610ae7565b9250508190555061042c565b5f805f8573ffffffffffffffffffffffffffffffffffffffff1673ffffffffffffffffffffffffffffffffffffffff1681526020019081526020015f20549050818110156103e7578381836040517fe450d38c0000000000000000000000000000000000000000000000000000000081526004016103de93929190610b29565b60405180910390fd5b8181035f808673ffffffffffffffffffffffffffffffffffffffff1673ffffffffffffffffffffffffffffffffffffffff1681526020019081526020015f2081905550505b5f73ffffffffffffffffffffffffffffffffffffffff168273ffffffffffffffffffffffffffffffffffffffff1603610473578060025f82825403925050819055506104bd565b805f808473ffffffffffffffffffffffffffffffffffffffff1673ffffffffffffffffffffffffffffffffffffffff1681526020019081526020015f205f82825401925050819055505b8173ffffffffffffffffffffffffffffffffffffffff168373ffffffffffffffffffffffffffffffffffffffff167fddf252ad1be2c89b69c2b068fc378daa952ba7f163c4a11628f55a4df523b3ef8360405161051a9190610b5e565b60405180910390a3505050565b5f80fd5b5f73ffffffffffffffffffffffffffffffffffffffff82169050919050565b5f6105548261052b565b9050919050565b6105648161054a565b811461056e575f80fd5b50565b5f8151905061057f8161055b565b92915050565b5f806040838503121561059b5761059a610527565b5b5f6105a885828601610571565b92505060206105b985828601610571565b9150509250929050565b5f81519050919050565b7f4e487b71000000000000000000000000000000000000000000000000000000005f52604160045260245ffd5b7f4e487b71000000000000000000000000000000000000000000000000000000005f52602260045260245ffd5b5f600282049050600182168061063e57607f821691505b602082108103610651576106506105fa565b5b50919050565b5f819050815f5260205f209050919050565b5f6020601f8301049050919050565b5f82821b905092915050565b5f600883026106b37fffffffffffffffffffffffffffffffffffffffffffffffffffffffffffffffff82610678565b6106bd8683610678565b95508019841693508086168417925050509392505050565b5f819050919050565b5f819050919050565b5f6107016106fc6106f7846106d5565b6106de565b6106d5565b9050919050565b5f819050919050565b61071a836106e7565b61072e61072682610708565b848454610684565b825550505050565b5f90565b610742610736565b61074d818484610711565b505050565b5b81811015610770576107655f8261073a565b600181019050610753565b5050565b601f8211156107b55761078681610657565b61078f84610669565b8101602085101561079e578190505b6107b26107aa85610669565b830182610752565b50505b505050565b5f82821c905092915050565b5f6107d55f19846008026107ba565b1980831691505092915050565b5f6107ed83836107c6565b9150826002028217905092915050565b610806826105c3565b67ffffffffffffffff81111561081f5761081e6105cd565b5b6108298254610627565b610834828285610774565b5f60209050601f831160018114610865575f8415610853578287015190505b61085d85826107e2565b8655506108c4565b601f19841661087386610657565b5f5b8281101561089a57848901518255600182019150602085019450602081019050610875565b868310156108b757848901516108b3601f8916826107c6565b8355505b6001600288020188555050505b505050505050565b6108d58161054a565b82525050565b5f6020820190506108ee5f8301846108cc565b92915050565b7f4e487b71000000000000000000000000000000000000000000000000000000005f52601160045260245ffd5b5f8160011c9050919050565b5f808291508390505b600185111561097657808604811115610952576109516108f4565b5b60018516156109615780820291505b808102905061096f85610921565b9450610936565b94509492505050565b5f8261098e5760019050610a49565b8161099b575f9050610a49565b81600181146109b157600281146109bb576109ea565b6001915050610a49565b60ff8411156109cd576109cc6108f4565b5b8360020a9150848211156109e4576109e36108f4565b5b50610a49565b5060208310610133831016604e8410600b8410161715610a1f5782820a905083811115610a1a57610a196108f4565b5b610a49565b610a2c848484600161092d565b92509050818404811115610a4357610a426108f4565b5b81810290505b9392505050565b5f60ff82169050919050565b5f610a66826106d5565b9150610a7183610a50565b9250610a9e7fffffffffffffffffffffffffffffffffffffffffffffffffffffffffffffffff848461097f565b905092915050565b5f610ab0826106d5565b9150610abb836106d5565b9250828202610ac9816106d5565b91508282048414831517610ae057610adf6108f4565b5b5092915050565b5f610af1826106d5565b9150610afc836106d5565b9250828201905080821115610b1457610b136108f4565b5b92915050565b610b23816106d5565b82525050565b5f606082019050610b3c5f8301866108cc565b610b496020830185610b1a565b610b566040830184610b1a565b949350505050565b5f602082019050610b715f830184610b1a565b92915050565b61241780610b845f395ff3fe6080604052600436106101ba575f3560e01c80638da5cb5b116100eb578063c2507ac111610089578063dd62ed3e11610063578063dd62ed3e146105df578063e086e5ec1461061b578063f2fde38b14610631578063f7a182f514610659576101c1565b8063c2507ac11461055d578063d0febe4c14610599578063d5ace7ba146105a3576101c1565b8063a9059cbb116100c5578063a9059cbb146104a7578063acde1241146104e3578063ae0140b41461051f578063b8664f5914610547576101c1565b80638da5cb5b146104295780638e15f4731461045357806395d89b411461047d576101c1565b80636c11bcd311610158578063724e78da11610132578063724e78da1461038557806376697640146103ad57806379cc6790146103d75780637d1d5d19146103ff576101c1565b80636c11bcd31461030b57806370a0823114610333578063715018a61461036f576101c1565b806323b872dd1161019457806323b872dd14610255578063313ce5671461029157806340c10f19146102bb57806342966c68146102e3576101c1565b806306fdde03146101c5578063095ea7b3146101ef57806318160ddd1461022b576101c1565b366101c157005b5f80fd5b3480156101d0575f80fd5b506101d9610683565b6040516101e691906119d2565b60405180910390f35b3480156101fa575f80fd5b5061021560048036038101906102109190611a83565b610713565b6040516102229190611adb565b60405180910390f35b348015610236575f80fd5b5061023f610735565b60405161024c9190611b03565b60405180910390f35b348015610260575f80fd5b5061027b60048036038101906102769190611b1c565b61073e565b6040516102889190611adb565b60405180910390f35b34801561029c575f80fd5b506102a561076c565b6040516102b29190611b87565b60405180910390f35b3480156102c6575f80fd5b506102e160048036038101906102dc9190611a83565b610774565b005b3480156102ee575f80fd5b5061030960048036038101906103049190611ba0565b61078a565b005b348015610316575f80fd5b50610331600480360381019061032c9190611ba0565b61079e565b005b34801561033e575f80fd5b5061035960048036038101906103549190611bcb565b61093b565b6040516103669190611b03565b60405180910390f35b34801561037a575f80fd5b50610383610980565b005b348015610390575f80fd5b506103ab60048036038101906103a69190611bcb565b610993565b005b3480156103b8575f80fd5b506103c1610a4c565b6040516103ce9190611b03565b60405180910390f35b3480156103e2575f80fd5b506103fd60048036038101906103f89190611a83565b610a57565b005b34801561040a575f80fd5b50610413610a77565b6040516104209190611b03565b60405180910390f35b348015610434575f80fd5b5061043d610a7e565b60405161044a9190611c05565b60405180910390f35b34801561045e575f80fd5b50610467610aa6565b6040516104749190611b03565b60405180910390f35b348015610488575f80fd5b50610491610b53565b60405161049e91906119d2565b60405180910390f35b3480156104b2575f80fd5b506104cd60048036038101906104c89190611a83565b610be3565b6040516104da9190611adb565b60405180910390f35b3480156104ee575f80fd5b5061050960048036038101906105049190611bcb565b610c05565b6040516105169190611b03565b60405180910390f35b34801561052a575f80fd5b5061054560048036038101906105409190611ba0565b610c7d565b005b348015610552575f80fd5b5061055b610d20565b005b348015610568575f80fd5b50610583600480360381019061057e9190611ba0565b610e96565b6040516105909190611b03565b60405180910390f35b6105a1610f01565b005b3480156105ae575f80fd5b506105c960048036038101906105c49190611bcb565b610fd9565b6040516105d69190611b03565b60405180910390f35b3480156105ea575f80fd5b5061060560048036038101906106009190611c1e565b610fee565b6040516106129190611b03565b60405180910390f35b348015610626575f80fd5b5061062f611070565b005b34801561063c575f80fd5b5061065760048036038101906106529190611bcb565b61110c565b005b348015610664575f80fd5b5061066d611190565b60405161067a9190611b03565b60405180910390f35b60606003805461069290611c89565b80601f01602080910402602001604051908101604052809291908181526020018280546106be90611c89565b80156107095780601f106106e057610100808354040283529160200191610709565b820191905f5260205f20905b8154815290600101906020018083116106ec57829003601f168201915b5050505050905090565b5f8061071d611196565b905061072a81858561119d565b600191505092915050565b5f600254905090565b5f80610748611196565b90506107558582856111af565b610760858585611242565b60019150509392505050565b5f6012905090565b61077c611332565b61078682826113b9565b5050565b61079b610795611196565b82611438565b50565b5f81116107e0576040517f08c379a00000000000000000000000000000000000000000000000000000000081526004016107d790611d03565b60405180910390fd5b806107ea3361093b565b101561082b576040517f08c379a000000000000000000000000000000000000000000000000000000000815260040161082290611d6b565b60405180910390fd5b5f610834610aa6565b90505f610190836108459190611db6565b90505f82670de0b6b3a76400008361085d9190611db6565b6108679190611e24565b9050804710156108ac576040517f08c379a00000000000000000000000000000000000000000000000000000000081526004016108a390611e9e565b60405180910390fd5b6108b63385611438565b3373ffffffffffffffffffffffffffffffffffffffff166108fc8290811502906040515f60405180830381858888f193505050501580156108f9573d5f803e3d5ffd5b507f2dcf9433d75db0d8b1c172641f85e319ffe4ad22e108a95d1847ceb906e5195d33858360405161092d93929190611ebc565b60405180910390a150505050565b5f805f8373ffffffffffffffffffffffffffffffffffffffff1673ffffffffffffffffffffffffffffffffffffffff1681526020019081526020015f20549050919050565b610988611332565b6109915f6114b7565b565b61099b611332565b5f73ffffffffffffffffffffffffffffffffffffffff168173ffffffffffffffffffffffffffffffffffffffff1603610a09576040517f08c379a0000000000000000000000000000000000000000000000000000000008152600401610a0090611f3b565b60405180910390fd5b8060065f6101000a81548173ffffffffffffffffffffffffffffffffffffffff021916908373ffffffffffffffffffffffffffffffffffffffff16021790555050565b661ff973cafa800081565b610a6982610a63611196565b836111af565b610a738282611438565b5050565b6201518081565b5f60055f9054906101000a900473ffffffffffffffffffffffffffffffffffffffff16905090565b5f8060065f9054906101000a900473ffffffffffffffffffffffffffffffffffffffff1673ffffffffffffffffffffffffffffffffffffffff1663feaf968c6040518163ffffffff1660e01b815260040160a060405180830381865afa158015610b12573d5f803e3d5ffd5b505050506040513d601f19601f82011682018060405250810190610b369190611fdf565b5050509150506402540be40081610b4d9190611db6565b91505090565b606060048054610b6290611c89565b80601f0160208091040260200160405190810160405280929190818152602001828054610b8e90611c89565b8015610bd95780601f10610bb057610100808354040283529160200191610bd9565b820191905f5260205f20905b815481529060010190602001808311610bbc57829003601f168201915b5050505050905090565b5f80610bed611196565b9050610bfa818585611242565b600191505092915050565b5f8060075f8473ffffffffffffffffffffffffffffffffffffffff1673ffffffffffffffffffffffffffffffffffffffff1681526020019081526020015f205442610c509190612056565b9050620151808110610c65575f915050610c78565b8062015180610c749190612056565b9150505b919050565b610c85611332565b5f8111610cc7576040517f08c379a0000000000000000000000000000000000000000000000000000000008152600401610cbe906120d3565b60405180910390fd5b80610cd13361093b565b1015610d12576040517f08c379a0000000000000000000000000000000000000000000000000000000008152600401610d099061213b565b60405180910390fd5b610d1d333083611242565b50565b6201518060075f3373ffffffffffffffffffffffffffffffffffffffff1673ffffffffffffffffffffffffffffffffffffffff1681526020019081526020015f2054610d6c9190612159565b421015610dae576040517f08c379a0000000000000000000000000000000000000000000000000000000008152600401610da5906121fc565b60405180910390fd5b661ff973cafa8000610dbf3061093b565b1015610e00576040517f08c379a0000000000000000000000000000000000000000000000000000000008152600401610df790612264565b60405180910390fd5b4260075f3373ffffffffffffffffffffffffffffffffffffffff1673ffffffffffffffffffffffffffffffffffffffff1681526020019081526020015f2081905550610e543033661ff973cafa8000611242565b7f4ccc2cb57d301275bff907df4fcc7431ca6cef9083f95cdc1098086c2360e29a33661ff973cafa8000604051610e8c929190612282565b60405180910390a1565b5f80610ea0610aa6565b90505f670de0b6b3a76400008285610eb89190611db6565b610ec29190611e24565b9050670de0b6b3a7640000610190610eda9190611db6565b670de0b6b3a764000082610eee9190611db6565b610ef89190611e24565b92505050919050565b5f3411610f43576040517f08c379a0000000000000000000000000000000000000000000000000000000008152600401610f3a906122f3565b60405180910390fd5b5f610f4d34610e96565b90505f8111610f91576040517f08c379a0000000000000000000000000000000000000000000000000000000008152600401610f889061235b565b60405180910390fd5b610f9b33826113b9565b7f8fafebcaf9d154343dad25669bfa277f4fbacd7ac6b0c4fed522580e040a0f33338234604051610fce93929190611ebc565b60405180910390a150565b6007602052805f5260405f205f915090505481565b5f60015f8473ffffffffffffffffffffffffffffffffffffffff1673ffffffffffffffffffffffffffffffffffffffff1681526020019081526020015f205f8373ffffffffffffffffffffffffffffffffffffffff1673ffffffffffffffffffffffffffffffffffffffff1681526020019081526020015f2054905092915050565b611078611332565b5f4790505f81116110be576040517f08c379a00000000000000000000000000000000000000000000000000000000081526004016110b5906123c3565b60405180910390fd5b6110c6610a7e565b73ffffffffffffffffffffffffffffffffffffffff166108fc8290811502906040515f60405180830381858888f19350505050158015611108573d5f803e3d5ffd5b5050565b611114611332565b5f73ffffffffffffffffffffffffffffffffffffffff168173ffffffffffffffffffffffffffffffffffffffff1603611184575f6040517f1e4fbdf700000000000000000000000000000000000000000000000000000000815260040161117b9190611c05565b60405180910390fd5b61118d816114b7565b50565b61019081565b5f33905090565b6111aa838383600161157a565b505050565b5f6111ba8484610fee565b90507fffffffffffffffffffffffffffffffffffffffffffffffffffffffffffffffff81101561123c578181101561122d578281836040517ffb8f41b200000000000000000000000000000000000000000000000000000000815260040161122493929190611ebc565b60405180910390fd5b61123b84848484035f61157a565b5b50505050565b5f73ffffffffffffffffffffffffffffffffffffffff168373ffffffffffffffffffffffffffffffffffffffff16036112b2575f6040517f96c6fd1e0000000000000000000000000000000000000000000000000000000081526004016112a99190611c05565b60405180910390fd5b5f73ffffffffffffffffffffffffffffffffffffffff168273ffffffffffffffffffffffffffffffffffffffff1603611322575f6040517fec442f050000000000000000000000000000000000000000000000000000000081526004016113199190611c05565b60405180910390fd5b61132d838383611749565b505050565b61133a611196565b73ffffffffffffffffffffffffffffffffffffffff16611358610a7e565b73ffffffffffffffffffffffffffffffffffffffff16146113b75761137b611196565b6040517f118cdaa70000000000000000000000000000000000000000000000000000000081526004016113ae9190611c05565b60405180910390fd5b565b5f73ffffffffffffffffffffffffffffffffffffffff168273ffffffffffffffffffffffffffffffffffffffff1603611429575f6040517fec442f050000000000000000000000000000000000000000000000000000000081526004016114209190611c05565b60405180910390fd5b6114345f8383611749565b5050565b5f73ffffffffffffffffffffffffffffffffffffffff168273ffffffffffffffffffffffffffffffffffffffff16036114a8575f6040517f96c6fd1e00000000000000000000000000000000000000000000000000000000815260040161149f9190611c05565b60405180910390fd5b6114b3825f83611749565b5050565b5f60055f9054906101000a900473ffffffffffffffffffffffffffffffffffffffff1690508160055f6101000a81548173ffffffffffffffffffffffffffffffffffffffff021916908373ffffffffffffffffffffffffffffffffffffffff1602179055508173ffffffffffffffffffffffffffffffffffffffff168173ffffffffffffffffffffffffffffffffffffffff167f8be0079c531659141344cd1fd0a4f28419497f9722a3daafe3b4186f6b6457e060405160405180910390a35050565b5f73ffffffffffffffffffffffffffffffffffffffff168473ffffffffffffffffffffffffffffffffffffffff16036115ea575f6040517fe602df050000000000000000000000000000000000000000000000000000000081526004016115e19190611c05565b60405180910390fd5b5f73ffffffffffffffffffffffffffffffffffffffff168373ffffffffffffffffffffffffffffffffffffffff160361165a575f6040517f94280d620000000000000000000000000000000000000000000000000000000081526004016116519190611c05565b60405180910390fd5b8160015f8673ffffffffffffffffffffffffffffffffffffffff1673ffffffffffffffffffffffffffffffffffffffff1681526020019081526020015f205f8573ffffffffffffffffffffffffffffffffffffffff1673ffffffffffffffffffffffffffffffffffffffff1681526020019081526020015f20819055508015611743578273ffffffffffffffffffffffffffffffffffffffff168473ffffffffffffffffffffffffffffffffffffffff167f8c5be1e5ebec7d5bd14f71427d1e84f3dd0314c0f7b2291e5b200ac8c7c3b9258460405161173a9190611b03565b60405180910390a35b50505050565b5f73ffffffffffffffffffffffffffffffffffffffff168373ffffffffffffffffffffffffffffffffffffffff1603611799578060025f82825461178d9190612159565b92505081905550611867565b5f805f8573ffffffffffffffffffffffffffffffffffffffff1673ffffffffffffffffffffffffffffffffffffffff1681526020019081526020015f2054905081811015611822578381836040517fe450d38c00000000000000000000000000000000000000000000000000000000815260040161181993929190611ebc565b60405180910390fd5b8181035f808673ffffffffffffffffffffffffffffffffffffffff1673ffffffffffffffffffffffffffffffffffffffff1681526020019081526020015f2081905550505b5f73ffffffffffffffffffffffffffffffffffffffff168273ffffffffffffffffffffffffffffffffffffffff16036118ae578060025f82825403925050819055506118f8565b805f808473ffffffffffffffffffffffffffffffffffffffff1673ffffffffffffffffffffffffffffffffffffffff1681526020019081526020015f205f82825401925050819055505b8173ffffffffffffffffffffffffffffffffffffffff168373ffffffffffffffffffffffffffffffffffffffff167fddf252ad1be2c89b69c2b068fc378daa952ba7f163c4a11628f55a4df523b3ef836040516119559190611b03565b60405180910390a3505050565b5f81519050919050565b5f82825260208201905092915050565b8281835e5f83830152505050565b5f601f19601f8301169050919050565b5f6119a482611962565b6119ae818561196c565b93506119be81856020860161197c565b6119c78161198a565b840191505092915050565b5f6020820190508181035f8301526119ea818461199a565b905092915050565b5f80fd5b5f73ffffffffffffffffffffffffffffffffffffffff82169050919050565b5f611a1f826119f6565b9050919050565b611a2f81611a15565b8114611a39575f80fd5b50565b5f81359050611a4a81611a26565b92915050565b5f819050919050565b611a6281611a50565b8114611a6c575f80fd5b50565b5f81359050611a7d81611a59565b92915050565b5f8060408385031215611a9957611a986119f2565b5b5f611aa685828601611a3c565b9250506020611ab785828601611a6f565b9150509250929050565b5f8115159050919050565b611ad581611ac1565b82525050565b5f602082019050611aee5f830184611acc565b92915050565b611afd81611a50565b82525050565b5f602082019050611b165f830184611af4565b92915050565b5f805f60608486031215611b3357611b326119f2565b5b5f611b4086828701611a3c565b9350506020611b5186828701611a3c565b9250506040611b6286828701611a6f565b9150509250925092565b5f60ff82169050919050565b611b8181611b6c565b82525050565b5f602082019050611b9a5f830184611b78565b92915050565b5f60208284031215611bb557611bb46119f2565b5b5f611bc284828501611a6f565b91505092915050565b5f60208284031215611be057611bdf6119f2565b5b5f611bed84828501611a3c565b91505092915050565b611bff81611a15565b82525050565b5f602082019050611c185f830184611bf6565b92915050565b5f8060408385031215611c3457611c336119f2565b5b5f611c4185828601611a3c565b9250506020611c5285828601611a3c565b9150509250929050565b7f4e487b71000000000000000000000000000000000000000000000000000000005f52602260045260245ffd5b5f6002820490506001821680611ca057607f821691505b602082108103611cb357611cb2611c5c565b5b50919050565b7f4d7573742073656c6c206d6f7265207468616e203020746f6b656e73000000005f82015250565b5f611ced601c8361196c565b9150611cf882611cb9565b602082019050919050565b5f6020820190508181035f830152611d1a81611ce1565b9050919050565b7f496e73756666696369656e7420746f6b656e2062616c616e63650000000000005f82015250565b5f611d55601a8361196c565b9150611d6082611d21565b602082019050919050565b5f6020820190508181035f830152611d8281611d49565b9050919050565b7f4e487b71000000000000000000000000000000000000000000000000000000005f52601160045260245ffd5b5f611dc082611a50565b9150611dcb83611a50565b9250828202611dd981611a50565b91508282048414831517611df057611def611d89565b5b5092915050565b7f4e487b71000000000000000000000000000000000000000000000000000000005f52601260045260245ffd5b5f611e2e82611a50565b9150611e3983611a50565b925082611e4957611e48611df7565b5b828204905092915050565b7f496e73756666696369656e7420636f6e74726163742062616c616e63650000005f82015250565b5f611e88601d8361196c565b9150611e9382611e54565b602082019050919050565b5f6020820190508181035f830152611eb581611e7c565b9050919050565b5f606082019050611ecf5f830186611bf6565b611edc6020830185611af4565b611ee96040830184611af4565b949350505050565b7f496e76616c6964207072696365206665656420616464726573730000000000005f82015250565b5f611f25601a8361196c565b9150611f3082611ef1565b602082019050919050565b5f6020820190508181035f830152611f5281611f19565b9050919050565b5f69ffffffffffffffffffff82169050919050565b611f7781611f59565b8114611f81575f80fd5b50565b5f81519050611f9281611f6e565b92915050565b5f819050919050565b611faa81611f98565b8114611fb4575f80fd5b50565b5f81519050611fc581611fa1565b92915050565b5f81519050611fd981611a59565b92915050565b5f805f805f60a08688031215611ff857611ff76119f2565b5b5f61200588828901611f84565b955050602061201688828901611fb7565b945050604061202788828901611fcb565b935050606061203888828901611fcb565b925050608061204988828901611f84565b9150509295509295909350565b5f61206082611a50565b915061206b83611a50565b925082820390508181111561208357612082611d89565b5b92915050565b7f416d6f756e74206d7573742062652067726561746572207468616e20300000005f82015250565b5f6120bd601d8361196c565b91506120c882612089565b602082019050919050565b5f6020820190508181035f8301526120ea816120b1565b9050919050565b7f496e73756666696369656e742062616c616e63650000000000000000000000005f82015250565b5f61212560148361196c565b9150612130826120f1565b602082019050919050565b5f6020820190508181035f83015261215281612119565b9050919050565b5f61216382611a50565b915061216e83611a50565b925082820190508082111561218657612185611d89565b5b92915050565b7f506c65617365207761697420323420686f757273206265747765656e206661755f8201527f6365742072657175657374730000000000000000000000000000000000000000602082015250565b5f6121e6602c8361196c565b91506121f18261218c565b604082019050919050565b5f6020820190508181035f830152612213816121da565b9050919050565b7f46617563657420697320656d70747900000000000000000000000000000000005f82015250565b5f61224e600f8361196c565b91506122598261221a565b602082019050919050565b5f6020820190508181035f83015261227b81612242565b9050919050565b5f6040820190506122955f830185611bf6565b6122a26020830184611af4565b9392505050565b7f4d7573742073656e642045544820746f2062757920746f6b656e7300000000005f82015250565b5f6122dd601b8361196c565b91506122e8826122a9565b602082019050919050565b5f6020820190508181035f83015261230a816122d1565b9050919050565b7f45544820616d6f756e7420746f6f20736d616c6c0000000000000000000000005f82015250565b5f61234560148361196c565b915061235082612311565b602082019050919050565b5f6020820190508181035f83015261237281612339565b9050919050565b7f4e6f2045544820746f20776974686472617700000000000000000000000000005f82015250565b5f6123ad60128361196c565b91506123b882612379565b602082019050919050565b5f6020820190508181035f8301526123da816123a1565b905091905056fea2646970667358221220175b9d67b782a0f8282649bb21f01726efaa5978f65b9197e2f774617d4fe11b64736f6c634300081a0033",
					"opcodes": "PUSH1 0x80 PUSH1 0x40 MSTORE CALLVALUE DUP1 ISZERO PUSH2 0xF JUMPI PUSH0 DUP1 REVERT JUMPDEST POP PUSH1 0x40 MLOAD PUSH2 0x2F9B CODESIZE SUB DUP1 PUSH2 0x2F9B DUP4 CODECOPY DUP2 DUP2 ADD PUSH1 0x40 MSTORE DUP2 ADD SWAP1 PUSH2 0x31 SWAP2 SWAP1 PUSH2 0x585 JUMP JUMPDEST DUP2 PUSH1 0x40 MLOAD DUP1 PUSH1 0x40 ADD PUSH1 0x40 MSTORE DUP1 PUSH1 0x7 DUP2 MSTORE PUSH1 0x20 ADD PUSH32 0x464C494242455200000000000000000000000000000000000000000000000000 DUP2 MSTORE POP PUSH1 0x40 MLOAD DUP1 PUSH1 0x40 ADD PUSH1 0x40 MSTORE DUP1 PUSH1 0x4 DUP2 MSTORE PUSH1 0x20 ADD PUSH32 0x2446494200000000000000000000000000000000000000000000000000000000 DUP2 MSTORE POP DUP2 PUSH1 0x3 SWAP1 DUP2 PUSH2 0xAD SWAP2 SWAP1 PUSH2 0x7FD JUMP JUMPDEST POP DUP1 PUSH1 0x4 SWAP1 DUP2 PUSH2 0xBD SWAP2 SWAP1 PUSH2 0x7FD JUMP JUMPDEST POP POP POP PUSH0 PUSH20 0xFFFFFFFFFFFFFFFFFFFFFFFFFFFFFFFFFFFFFFFF AND DUP2 PUSH20 0xFFFFFFFFFFFFFFFFFFFFFFFFFFFFFFFFFFFFFFFF AND SUB PUSH2 0x130 JUMPI PUSH0 PUSH1 0x40 MLOAD PUSH32 0x1E4FBDF700000000000000000000000000000000000000000000000000000000 DUP2 MSTORE PUSH1 0x4 ADD PUSH2 0x127 SWAP2 SWAP1 PUSH2 0x8DB JUMP JUMPDEST PUSH1 0x40 MLOAD DUP1 SWAP2 SUB SWAP1 REVERT JUMPDEST PUSH2 0x13F DUP2 PUSH2 0x1BE PUSH1 0x20 SHL PUSH1 0x20 SHR JUMP JUMPDEST POP DUP1 PUSH1 0x6 PUSH0 PUSH2 0x100 EXP DUP2 SLOAD DUP2 PUSH20 0xFFFFFFFFFFFFFFFFFFFFFFFFFFFFFFFFFFFFFFFF MUL NOT AND SWAP1 DUP4 PUSH20 0xFFFFFFFFFFFFFFFFFFFFFFFFFFFFFFFFFFFFFFFF AND MUL OR SWAP1 SSTORE POP PUSH2 0x1B7 CALLER PUSH2 0x192 PUSH2 0x281 PUSH1 0x20 SHL PUSH1 0x20 SHR JUMP JUMPDEST PUSH1 0xA PUSH2 0x19E SWAP2 SWAP1 PUSH2 0xA5C JUMP JUMPDEST PUSH3 0xF4240 PUSH2 0x1AC SWAP2 SWAP1 PUSH2 0xAA6 JUMP JUMPDEST PUSH2 0x289 PUSH1 0x20 SHL PUSH1 0x20 SHR JUMP JUMPDEST POP POP PUSH2 0xB77 JUMP JUMPDEST PUSH0 PUSH1 0x5 PUSH0 SWAP1 SLOAD SWAP1 PUSH2 0x100 EXP SWAP1 DIV PUSH20 0xFFFFFFFFFFFFFFFFFFFFFFFFFFFFFFFFFFFFFFFF AND SWAP1 POP DUP2 PUSH1 0x5 PUSH0 PUSH2 0x100 EXP DUP2 SLOAD DUP2 PUSH20 0xFFFFFFFFFFFFFFFFFFFFFFFFFFFFFFFFFFFFFFFF MUL NOT AND SWAP1 DUP4 PUSH20 0xFFFFFFFFFFFFFFFFFFFFFFFFFFFFFFFFFFFFFFFF AND MUL OR SWAP1 SSTORE POP DUP2 PUSH20 0xFFFFFFFFFFFFFFFFFFFFFFFFFFFFFFFFFFFFFFFF AND DUP2 PUSH20 0xFFFFFFFFFFFFFFFFFFFFFFFFFFFFFFFFFFFFFFFF AND PUSH32 0x8BE0079C531659141344CD1FD0A4F28419497F9722A3DAAFE3B4186F6B6457E0 PUSH1 0x40 MLOAD PUSH1 0x40 MLOAD DUP1 SWAP2 SUB SWAP1 LOG3 POP POP JUMP JUMPDEST PUSH0 PUSH1 0x12 SWAP1 POP SWAP1 JUMP JUMPDEST PUSH0 PUSH20 0xFFFFFFFFFFFFFFFFFFFFFFFFFFFFFFFFFFFFFFFF AND DUP3 PUSH20 0xFFFFFFFFFFFFFFFFFFFFFFFFFFFFFFFFFFFFFFFF AND SUB PUSH2 0x2F9 JUMPI PUSH0 PUSH1 0x40 MLOAD PUSH32 0xEC442F0500000000000000000000000000000000000000000000000000000000 DUP2 MSTORE PUSH1 0x4 ADD PUSH2 0x2F0 SWAP2 SWAP1 PUSH2 0x8DB JUMP JUMPDEST PUSH1 0x40 MLOAD DUP1 SWAP2 SUB SWAP1 REVERT JUMPDEST PUSH2 0x30A PUSH0 DUP4 DUP4 PUSH2 0x30E PUSH1 0x20 SHL PUSH1 0x20 SHR JUMP JUMPDEST POP POP JUMP JUMPDEST PUSH0 PUSH20 0xFFFFFFFFFFFFFFFFFFFFFFFFFFFFFFFFFFFFFFFF AND DUP4 PUSH20 0xFFFFFFFFFFFFFFFFFFFFFFFFFFFFFFFFFFFFFFFF AND SUB PUSH2 0x35E JUMPI DUP1 PUSH1 0x2 PUSH0 DUP3 DUP3 SLOAD PUSH2 0x352 SWAP2 SWAP1 PUSH2 0xAE7 JUMP JUMPDEST SWAP3 POP POP DUP2 SWAP1 SSTORE POP PUSH2 0x42C JUMP JUMPDEST PUSH0 DUP1 PUSH0 DUP6 PUSH20 0xFFFFFFFFFFFFFFFFFFFFFFFFFFFFFFFFFFFFFFFF AND PUSH20 0xFFFFFFFFFFFFFFFFFFFFFFFFFFFFFFFFFFFFFFFF AND DUP2 MSTORE PUSH1 0x20 ADD SWAP1 DUP2 MSTORE PUSH1 0x20 ADD PUSH0 KECCAK256 SLOAD SWAP1 POP DUP2 DUP2 LT ISZERO PUSH2 0x3E7 JUMPI DUP4 DUP2 DUP4 PUSH1 0x40 MLOAD PUSH32 0xE450D38C00000000000000000000000000000000000000000000000000000000 DUP2 MSTORE PUSH1 0x4 ADD PUSH2 0x3DE SWAP4 SWAP3 SWAP2 SWAP1 PUSH2 0xB29 JUMP JUMPDEST PUSH1 0x40 MLOAD DUP1 SWAP2 SUB SWAP1 REVERT JUMPDEST DUP2 DUP2 SUB PUSH0 DUP1 DUP7 PUSH20 0xFFFFFFFFFFFFFFFFFFFFFFFFFFFFFFFFFFFFFFFF AND PUSH20 0xFFFFFFFFFFFFFFFFFFFFFFFFFFFFFFFFFFFFFFFF AND DUP2 MSTORE PUSH1 0x20 ADD SWAP1 DUP2 MSTORE PUSH1 0x20 ADD PUSH0 KECCAK256 DUP2 SWAP1 SSTORE POP POP JUMPDEST PUSH0 PUSH20 0xFFFFFFFFFFFFFFFFFFFFFFFFFFFFFFFFFFFFFFFF AND DUP3 PUSH20 0xFFFFFFFFFFFFFFFFFFFFFFFFFFFFFFFFFFFFFFFF AND SUB PUSH2 0x473 JUMPI DUP1 PUSH1 0x2 PUSH0 DUP3 DUP3 SLOAD SUB SWAP3 POP POP DUP2 SWAP1 SSTORE POP PUSH2 0x4BD JUMP JUMPDEST DUP1 PUSH0 DUP1 DUP5 PUSH20 0xFFFFFFFFFFFFFFFFFFFFFFFFFFFFFFFFFFFFFFFF AND PUSH20 0xFFFFFFFFFFFFFFFFFFFFFFFFFFFFFFFFFFFFFFFF AND DUP2 MSTORE PUSH1 0x20 ADD SWAP1 DUP2 MSTORE PUSH1 0x20 ADD PUSH0 KECCAK256 PUSH0 DUP3 DUP3 SLOAD ADD SWAP3 POP POP DUP2 SWAP1 SSTORE POP JUMPDEST DUP2 PUSH20 0xFFFFFFFFFFFFFFFFFFFFFFFFFFFFFFFFFFFFFFFF AND DUP4 PUSH20 0xFFFFFFFFFFFFFFFFFFFFFFFFFFFFFFFFFFFFFFFF AND PUSH32 0xDDF252AD1BE2C89B69C2B068FC378DAA952BA7F163C4A11628F55A4DF523B3EF DUP4 PUSH1 0x40 MLOAD PUSH2 0x51A SWAP2 SWAP1 PUSH2 0xB5E JUMP JUMPDEST PUSH1 0x40 MLOAD DUP1 SWAP2 SUB SWAP1 LOG3 POP POP POP JUMP JUMPDEST PUSH0 DUP1 REVERT JUMPDEST PUSH0 PUSH20 0xFFFFFFFFFFFFFFFFFFFFFFFFFFFFFFFFFFFFFFFF DUP3 AND SWAP1 POP SWAP2 SWAP1 POP JUMP JUMPDEST PUSH0 PUSH2 0x554 DUP3 PUSH2 0x52B JUMP JUMPDEST SWAP1 POP SWAP2 SWAP1 POP JUMP JUMPDEST PUSH2 0x564 DUP2 PUSH2 0x54A JUMP JUMPDEST DUP2 EQ PUSH2 0x56E JUMPI PUSH0 DUP1 REVERT JUMPDEST POP JUMP JUMPDEST PUSH0 DUP2 MLOAD SWAP1 POP PUSH2 0x57F DUP2 PUSH2 0x55B JUMP JUMPDEST SWAP3 SWAP2 POP POP JUMP JUMPDEST PUSH0 DUP1 PUSH1 0x40 DUP4 DUP6 SUB SLT ISZERO PUSH2 0x59B JUMPI PUSH2 0x59A PUSH2 0x527 JUMP JUMPDEST JUMPDEST PUSH0 PUSH2 0x5A8 DUP6 DUP3 DUP7 ADD PUSH2 0x571 JUMP JUMPDEST SWAP3 POP POP PUSH1 0x20 PUSH2 0x5B9 DUP6 DUP3 DUP7 ADD PUSH2 0x571 JUMP JUMPDEST SWAP2 POP POP SWAP3 POP SWAP3 SWAP1 POP JUMP JUMPDEST PUSH0 DUP2 MLOAD SWAP1 POP SWAP2 SWAP1 POP JUMP JUMPDEST PUSH32 0x4E487B7100000000000000000000000000000000000000000000000000000000 PUSH0 MSTORE PUSH1 0x41 PUSH1 0x4 MSTORE PUSH1 0x24 PUSH0 REVERT JUMPDEST PUSH32 0x4E487B7100000000000000000000000000000000000000000000000000000000 PUSH0 MSTORE PUSH1 0x22 PUSH1 0x4 MSTORE PUSH1 0x24 PUSH0 REVERT JUMPDEST PUSH0 PUSH1 0x2 DUP3 DIV SWAP1 POP PUSH1 0x1 DUP3 AND DUP1 PUSH2 0x63E JUMPI PUSH1 0x7F DUP3 AND SWAP2 POP JUMPDEST PUSH1 0x20 DUP3 LT DUP2 SUB PUSH2 0x651 JUMPI PUSH2 0x650 PUSH2 0x5FA JUMP JUMPDEST JUMPDEST POP SWAP2 SWAP1 POP JUMP JUMPDEST PUSH0 DUP2 SWAP1 POP DUP2 PUSH0 MSTORE PUSH1 0x20 PUSH0 KECCAK256 SWAP1 POP SWAP2 SWAP1 POP JUMP JUMPDEST PUSH0 PUSH1 0x20 PUSH1 0x1F DUP4 ADD DIV SWAP1 POP SWAP2 SWAP1 POP JUMP JUMPDEST PUSH0 DUP3 DUP3 SHL SWAP1 POP SWAP3 SWAP2 POP POP JUMP JUMPDEST PUSH0 PUSH1 0x8 DUP4 MUL PUSH2 0x6B3 PUSH32 0xFFFFFFFFFFFFFFFFFFFFFFFFFFFFFFFFFFFFFFFFFFFFFFFFFFFFFFFFFFFFFFFF DUP3 PUSH2 0x678 JUMP JUMPDEST PUSH2 0x6BD DUP7 DUP4 PUSH2 0x678 JUMP JUMPDEST SWAP6 POP DUP1 NOT DUP5 AND SWAP4 POP DUP1 DUP7 AND DUP5 OR SWAP3 POP POP POP SWAP4 SWAP3 POP POP POP JUMP JUMPDEST PUSH0 DUP2 SWAP1 POP SWAP2 SWAP1 POP JUMP JUMPDEST PUSH0 DUP2 SWAP1 POP SWAP2 SWAP1 POP JUMP JUMPDEST PUSH0 PUSH2 0x701 PUSH2 0x6FC PUSH2 0x6F7 DUP5 PUSH2 0x6D5 JUMP JUMPDEST PUSH2 0x6DE JUMP JUMPDEST PUSH2 0x6D5 JUMP JUMPDEST SWAP1 POP SWAP2 SWAP1 POP JUMP JUMPDEST PUSH0 DUP2 SWAP1 POP SWAP2 SWAP1 POP JUMP JUMPDEST PUSH2 0x71A DUP4 PUSH2 0x6E7 JUMP JUMPDEST PUSH2 0x72E PUSH2 0x726 DUP3 PUSH2 0x708 JUMP JUMPDEST DUP5 DUP5 SLOAD PUSH2 0x684 JUMP JUMPDEST DUP3 SSTORE POP POP POP POP JUMP JUMPDEST PUSH0 SWAP1 JUMP JUMPDEST PUSH2 0x742 PUSH2 0x736 JUMP JUMPDEST PUSH2 0x74D DUP2 DUP5 DUP5 PUSH2 0x711 JUMP JUMPDEST POP POP POP JUMP JUMPDEST JUMPDEST DUP2 DUP2 LT ISZERO PUSH2 0x770 JUMPI PUSH2 0x765 PUSH0 DUP3 PUSH2 0x73A JUMP JUMPDEST PUSH1 0x1 DUP2 ADD SWAP1 POP PUSH2 0x753 JUMP JUMPDEST POP POP JUMP JUMPDEST PUSH1 0x1F DUP3 GT ISZERO PUSH2 0x7B5 JUMPI PUSH2 0x786 DUP2 PUSH2 0x657 JUMP JUMPDEST PUSH2 0x78F DUP5 PUSH2 0x669 JUMP JUMPDEST DUP2 ADD PUSH1 0x20 DUP6 LT ISZERO PUSH2 0x79E JUMPI DUP2 SWAP1 POP JUMPDEST PUSH2 0x7B2 PUSH2 0x7AA DUP6 PUSH2 0x669 JUMP JUMPDEST DUP4 ADD DUP3 PUSH2 0x752 JUMP JUMPDEST POP POP JUMPDEST POP POP POP JUMP JUMPDEST PUSH0 DUP3 DUP3 SHR SWAP1 POP SWAP3 SWAP2 POP POP JUMP JUMPDEST PUSH0 PUSH2 0x7D5 PUSH0 NOT DUP5 PUSH1 0x8 MUL PUSH2 0x7BA JUMP JUMPDEST NOT DUP1 DUP4 AND SWAP2 POP POP SWAP3 SWAP2 POP POP JUMP JUMPDEST PUSH0 PUSH2 0x7ED DUP4 DUP4 PUSH2 0x7C6 JUMP JUMPDEST SWAP2 POP DUP3 PUSH1 0x2 MUL DUP3 OR SWAP1 POP SWAP3 SWAP2 POP POP JUMP JUMPDEST PUSH2 0x806 DUP3 PUSH2 0x5C3 JUMP JUMPDEST PUSH8 0xFFFFFFFFFFFFFFFF DUP2 GT ISZERO PUSH2 0x81F JUMPI PUSH2 0x81E PUSH2 0x5CD JUMP JUMPDEST JUMPDEST PUSH2 0x829 DUP3 SLOAD PUSH2 0x627 JUMP JUMPDEST PUSH2 0x834 DUP3 DUP3 DUP6 PUSH2 0x774 JUMP JUMPDEST PUSH0 PUSH1 0x20 SWAP1 POP PUSH1 0x1F DUP4 GT PUSH1 0x1 DUP2 EQ PUSH2 0x865 JUMPI PUSH0 DUP5 ISZERO PUSH2 0x853 JUMPI DUP3 DUP8 ADD MLOAD SWAP1 POP JUMPDEST PUSH2 0x85D DUP6 DUP3 PUSH2 0x7E2 JUMP JUMPDEST DUP7 SSTORE POP PUSH2 0x8C4 JUMP JUMPDEST PUSH1 0x1F NOT DUP5 AND PUSH2 0x873 DUP7 PUSH2 0x657 JUMP JUMPDEST PUSH0 JUMPDEST DUP3 DUP2 LT ISZERO PUSH2 0x89A JUMPI DUP5 DUP10 ADD MLOAD DUP3 SSTORE PUSH1 0x1 DUP3 ADD SWAP2 POP PUSH1 0x20 DUP6 ADD SWAP5 POP PUSH1 0x20 DUP2 ADD SWAP1 POP PUSH2 0x875 JUMP JUMPDEST DUP7 DUP4 LT ISZERO PUSH2 0x8B7 JUMPI DUP5 DUP10 ADD MLOAD PUSH2 0x8B3 PUSH1 0x1F DUP10 AND DUP3 PUSH2 0x7C6 JUMP JUMPDEST DUP4 SSTORE POP JUMPDEST PUSH1 0x1 PUSH1 0x2 DUP9 MUL ADD DUP9 SSTORE POP POP POP JUMPDEST POP POP POP POP POP POP JUMP JUMPDEST PUSH2 0x8D5 DUP2 PUSH2 0x54A JUMP JUMPDEST DUP3 MSTORE POP POP JUMP JUMPDEST PUSH0 PUSH1 0x20 DUP3 ADD SWAP1 POP PUSH2 0x8EE PUSH0 DUP4 ADD DUP5 PUSH2 0x8CC JUMP JUMPDEST SWAP3 SWAP2 POP POP JUMP JUMPDEST PUSH32 0x4E487B7100000000000000000000000000000000000000000000000000000000 PUSH0 MSTORE PUSH1 0x11 PUSH1 0x4 MSTORE PUSH1 0x24 PUSH0 REVERT JUMPDEST PUSH0 DUP2 PUSH1 0x1 SHR SWAP1 POP SWAP2 SWAP1 POP JUMP JUMPDEST PUSH0 DUP1 DUP3 SWAP2 POP DUP4 SWAP1 POP JUMPDEST PUSH1 0x1 DUP6 GT ISZERO PUSH2 0x976 JUMPI DUP1 DUP7 DIV DUP2 GT ISZERO PUSH2 0x952 JUMPI PUSH2 0x951 PUSH2 0x8F4 JUMP JUMPDEST JUMPDEST PUSH1 0x1 DUP6 AND ISZERO PUSH2 0x961 JUMPI DUP1 DUP3 MUL SWAP2 POP JUMPDEST DUP1 DUP2 MUL SWAP1 POP PUSH2 0x96F DUP6 PUSH2 0x921 JUMP JUMPDEST SWAP5 POP PUSH2 0x936 JUMP JUMPDEST SWAP5 POP SWAP5 SWAP3 POP POP POP JUMP JUMPDEST PUSH0 DUP3 PUSH2 0x98E JUMPI PUSH1 0x1 SWAP1 POP PUSH2 0xA49 JUMP JUMPDEST DUP2 PUSH2 0x99B JUMPI PUSH0 SWAP1 POP PUSH2 0xA49 JUMP JUMPDEST DUP2 PUSH1 0x1 DUP2 EQ PUSH2 0x9B1 JUMPI PUSH1 0x2 DUP2 EQ PUSH2 0x9BB JUMPI PUSH2 0x9EA JUMP JUMPDEST PUSH1 0x1 SWAP2 POP POP PUSH2 0xA49 JUMP JUMPDEST PUSH1 0xFF DUP5 GT ISZERO PUSH2 0x9CD JUMPI PUSH2 0x9CC PUSH2 0x8F4 JUMP JUMPDEST JUMPDEST DUP4 PUSH1 0x2 EXP SWAP2 POP DUP5 DUP3 GT ISZERO PUSH2 0x9E4 JUMPI PUSH2 0x9E3 PUSH2 0x8F4 JUMP JUMPDEST JUMPDEST POP PUSH2 0xA49 JUMP JUMPDEST POP PUSH1 0x20 DUP4 LT PUSH2 0x133 DUP4 LT AND PUSH1 0x4E DUP5 LT PUSH1 0xB DUP5 LT AND OR ISZERO PUSH2 0xA1F JUMPI DUP3 DUP3 EXP SWAP1 POP DUP4 DUP2 GT ISZERO PUSH2 0xA1A JUMPI PUSH2 0xA19 PUSH2 0x8F4 JUMP JUMPDEST JUMPDEST PUSH2 0xA49 JUMP JUMPDEST PUSH2 0xA2C DUP5 DUP5 DUP5 PUSH1 0x1 PUSH2 0x92D JUMP JUMPDEST SWAP3 POP SWAP1 POP DUP2 DUP5 DIV DUP2 GT ISZERO PUSH2 0xA43 JUMPI PUSH2 0xA42 PUSH2 0x8F4 JUMP JUMPDEST JUMPDEST DUP2 DUP2 MUL SWAP1 POP JUMPDEST SWAP4 SWAP3 POP POP POP JUMP JUMPDEST PUSH0 PUSH1 0xFF DUP3 AND SWAP1 POP SWAP2 SWAP1 POP JUMP JUMPDEST PUSH0 PUSH2 0xA66 DUP3 PUSH2 0x6D5 JUMP JUMPDEST SWAP2 POP PUSH2 0xA71 DUP4 PUSH2 0xA50 JUMP JUMPDEST SWAP3 POP PUSH2 0xA9E PUSH32 0xFFFFFFFFFFFFFFFFFFFFFFFFFFFFFFFFFFFFFFFFFFFFFFFFFFFFFFFFFFFFFFFF DUP5 DUP5 PUSH2 0x97F JUMP JUMPDEST SWAP1 POP SWAP3 SWAP2 POP POP JUMP JUMPDEST PUSH0 PUSH2 0xAB0 DUP3 PUSH2 0x6D5 JUMP JUMPDEST SWAP2 POP PUSH2 0xABB DUP4 PUSH2 0x6D5 JUMP JUMPDEST SWAP3 POP DUP3 DUP3 MUL PUSH2 0xAC9 DUP2 PUSH2 0x6D5 JUMP JUMPDEST SWAP2 POP DUP3 DUP3 DIV DUP5 EQ DUP4 ISZERO OR PUSH2 0xAE0 JUMPI PUSH2 0xADF PUSH2 0x8F4 JUMP JUMPDEST JUMPDEST POP SWAP3 SWAP2 POP POP JUMP JUMPDEST PUSH0 PUSH2 0xAF1 DUP3 PUSH2 0x6D5 JUMP JUMPDEST SWAP2 POP PUSH2 0xAFC DUP4 PUSH2 0x6D5 JUMP JUMPDEST SWAP3 POP DUP3 DUP3 ADD SWAP1 POP DUP1 DUP3 GT ISZERO PUSH2 0xB14 JUMPI PUSH2 0xB13 PUSH2 0x8F4 JUMP JUMPDEST JUMPDEST SWAP3 SWAP2 POP POP JUMP JUMPDEST PUSH2 0xB23 DUP2 PUSH2 0x6D5 JUMP JUMPDEST DUP3 MSTORE POP POP JUMP JUMPDEST PUSH0 PUSH1 0x60 DUP3 ADD SWAP1 POP PUSH2 0xB3C PUSH0 DUP4 ADD DUP7 PUSH2 0x8CC JUMP JUMPDEST PUSH2 0xB49 PUSH1 0x20 DUP4 ADD DUP6 PUSH2 0xB1A JUMP JUMPDEST PUSH2 0xB56 PUSH1 0x40 DUP4 ADD DUP5 PUSH2 0xB1A JUMP JUMPDEST SWAP5 SWAP4 POP POP POP POP JUMP JUMPDEST PUSH0 PUSH1 0x20 DUP3 ADD SWAP1 POP PUSH2 0xB71 PUSH0 DUP4 ADD DUP5 PUSH2 0xB1A JUMP JUMPDEST SWAP3 SWAP2 POP POP JUMP JUMPDEST PUSH2 0x2417 DUP1 PUSH2 0xB84 PUSH0 CODECOPY PUSH0 RETURN INVALID PUSH1 0x80 PUSH1 0x40 MSTORE PUSH1 0x4 CALLDATASIZE LT PUSH2 0x1BA JUMPI PUSH0 CALLDATALOAD PUSH1 0xE0 SHR DUP1 PUSH4 0x8DA5CB5B GT PUSH2 0xEB JUMPI DUP1 PUSH4 0xC2507AC1 GT PUSH2 0x89 JUMPI DUP1 PUSH4 0xDD62ED3E GT PUSH2 0x63 JUMPI DUP1 PUSH4 0xDD62ED3E EQ PUSH2 0x5DF JUMPI DUP1 PUSH4 0xE086E5EC EQ PUSH2 0x61B JUMPI DUP1 PUSH4 0xF2FDE38B EQ PUSH2 0x631 JUMPI DUP1 PUSH4 0xF7A182F5 EQ PUSH2 0x659 JUMPI PUSH2 0x1C1 JUMP JUMPDEST DUP1 PUSH4 0xC2507AC1 EQ PUSH2 0x55D JUMPI DUP1 PUSH4 0xD0FEBE4C EQ PUSH2 0x599 JUMPI DUP1 PUSH4 0xD5ACE7BA EQ PUSH2 0x5A3 JUMPI PUSH2 0x1C1 JUMP JUMPDEST DUP1 PUSH4 0xA9059CBB GT PUSH2 0xC5 JUMPI DUP1 PUSH4 0xA9059CBB EQ PUSH2 0x4A7 JUMPI DUP1 PUSH4 0xACDE1241 EQ PUSH2 0x4E3 JUMPI DUP1 PUSH4 0xAE0140B4 EQ PUSH2 0x51F JUMPI DUP1 PUSH4 0xB8664F59 EQ PUSH2 0x547 JUMPI PUSH2 0x1C1 JUMP JUMPDEST DUP1 PUSH4 0x8DA5CB5B EQ PUSH2 0x429 JUMPI DUP1 PUSH4 0x8E15F473 EQ PUSH2 0x453 JUMPI DUP1 PUSH4 0x95D89B41 EQ PUSH2 0x47D JUMPI PUSH2 0x1C1 JUMP JUMPDEST DUP1 PUSH4 0x6C11BCD3 GT PUSH2 0x158 JUMPI DUP1 PUSH4 0x724E78DA GT PUSH2 0x132 JUMPI DUP1 PUSH4 0x724E78DA EQ PUSH2 0x385 JUMPI DUP1 PUSH4 0x76697640 EQ PUSH2 0x3AD JUMPI DUP1 PUSH4 0x79CC6790 EQ PUSH2 0x3D7 JUMPI DUP1 PUSH4 0x7D1D5D19 EQ PUSH2 0x3FF JUMPI PUSH2 0x1C1 JUMP JUMPDEST DUP1 PUSH4 0x6C11BCD3 EQ PUSH2 0x30B JUMPI DUP1 PUSH4 0x70A08231 EQ PUSH2 0x333 JUMPI DUP1 PUSH4 0x715018A6 EQ PUSH2 0x36F JUMPI PUSH2 0x1C1 JUMP JUMPDEST DUP1 PUSH4 0x23B872DD GT PUSH2 0x194 JUMPI DUP1 PUSH4 0x23B872DD EQ PUSH2 0x255 JUMPI DUP1 PUSH4 0x313CE567 EQ PUSH2 0x291 JUMPI DUP1 PUSH4 0x40C10F19 EQ PUSH2 0x2BB JUMPI DUP1 PUSH4 0x42966C68 EQ PUSH2 0x2E3 JUMPI PUSH2 0x1C1 JUMP JUMPDEST DUP1 PUSH4 0x6FDDE03 EQ PUSH2 0x1C5 JUMPI DUP1 PUSH4 0x95EA7B3 EQ PUSH2 0x1EF JUMPI DUP1 PUSH4 0x18160DDD EQ PUSH2 0x22B JUMPI PUSH2 0x1C1 JUMP JUMPDEST CALLDATASIZE PUSH2 0x1C1 JUMPI STOP JUMPDEST PUSH0 DUP1 REVERT JUMPDEST CALLVALUE DUP1 ISZERO PUSH2 0x1D0 JUMPI PUSH0 DUP1 REVERT JUMPDEST POP PUSH2 0x1D9 PUSH2 0x683 JUMP JUMPDEST PUSH1 0x40 MLOAD PUSH2 0x1E6 SWAP2 SWAP1 PUSH2 0x19D2 JUMP JUMPDEST PUSH1 0x40 MLOAD DUP1 SWAP2 SUB SWAP1 RETURN JUMPDEST CALLVALUE DUP1 ISZERO PUSH2 0x1FA JUMPI PUSH0 DUP1 REVERT JUMPDEST POP PUSH2 0x215 PUSH1 0x4 DUP1 CALLDATASIZE SUB DUP2 ADD SWAP1 PUSH2 0x210 SWAP2 SWAP1 PUSH2 0x1A83 JUMP JUMPDEST PUSH2 0x713 JUMP JUMPDEST PUSH1 0x40 MLOAD PUSH2 0x222 SWAP2 SWAP1 PUSH2 0x1ADB JUMP JUMPDEST PUSH1 0x40 MLOAD DUP1 SWAP2 SUB SWAP1 RETURN JUMPDEST CALLVALUE DUP1 ISZERO PUSH2 0x236 JUMPI PUSH0 DUP1 REVERT JUMPDEST POP PUSH2 0x23F PUSH2 0x735 JUMP JUMPDEST PUSH1 0x40 MLOAD PUSH2 0x24C SWAP2 SWAP1 PUSH2 0x1B03 JUMP JUMPDEST PUSH1 0x40 MLOAD DUP1 SWAP2 SUB SWAP1 RETURN JUMPDEST CALLVALUE DUP1 ISZERO PUSH2 0x260 JUMPI PUSH0 DUP1 REVERT JUMPDEST POP PUSH2 0x27B PUSH1 0x4 DUP1 CALLDATASIZE SUB DUP2 ADD SWAP1 PUSH2 0x276 SWAP2 SWAP1 PUSH2 0x1B1C JUMP JUMPDEST PUSH2 0x73E JUMP JUMPDEST PUSH1 0x40 MLOAD PUSH2 0x288 SWAP2 SWAP1 PUSH2 0x1ADB JUMP JUMPDEST PUSH1 0x40 MLOAD DUP1 SWAP2 SUB SWAP1 RETURN JUMPDEST CALLVALUE DUP1 ISZERO PUSH2 0x29C JUMPI PUSH0 DUP1 REVERT JUMPDEST POP PUSH2 0x2A5 PUSH2 0x76C JUMP JUMPDEST PUSH1 0x40 MLOAD PUSH2 0x2B2 SWAP2 SWAP1 PUSH2 0x1B87 JUMP JUMPDEST PUSH1 0x40 MLOAD DUP1 SWAP2 SUB SWAP1 RETURN JUMPDEST CALLVALUE DUP1 ISZERO PUSH2 0x2C6 JUMPI PUSH0 DUP1 REVERT JUMPDEST POP PUSH2 0x2E1 PUSH1 0x4 DUP1 CALLDATASIZE SUB DUP2 ADD SWAP1 PUSH2 0x2DC SWAP2 SWAP1 PUSH2 0x1A83 JUMP JUMPDEST PUSH2 0x774 JUMP JUMPDEST STOP JUMPDEST CALLVALUE DUP1 ISZERO PUSH2 0x2EE JUMPI PUSH0 DUP1 REVERT JUMPDEST POP PUSH2 0x309 PUSH1 0x4 DUP1 CALLDATASIZE SUB DUP2 ADD SWAP1 PUSH2 0x304 SWAP2 SWAP1 PUSH2 0x1BA0 JUMP JUMPDEST PUSH2 0x78A JUMP JUMPDEST STOP JUMPDEST CALLVALUE DUP1 ISZERO PUSH2 0x316 JUMPI PUSH0 DUP1 REVERT JUMPDEST POP PUSH2 0x331 PUSH1 0x4 DUP1 CALLDATASIZE SUB DUP2 ADD SWAP1 PUSH2 0x32C SWAP2 SWAP1 PUSH2 0x1BA0 JUMP JUMPDEST PUSH2 0x79E JUMP JUMPDEST STOP JUMPDEST CALLVALUE DUP1 ISZERO PUSH2 0x33E JUMPI PUSH0 DUP1 REVERT JUMPDEST POP PUSH2 0x359 PUSH1 0x4 DUP1 CALLDATASIZE SUB DUP2 ADD SWAP1 PUSH2 0x354 SWAP2 SWAP1 PUSH2 0x1BCB JUMP JUMPDEST PUSH2 0x93B JUMP JUMPDEST PUSH1 0x40 MLOAD PUSH2 0x366 SWAP2 SWAP1 PUSH2 0x1B03 JUMP JUMPDEST PUSH1 0x40 MLOAD DUP1 SWAP2 SUB SWAP1 RETURN JUMPDEST CALLVALUE DUP1 ISZERO PUSH2 0x37A JUMPI PUSH0 DUP1 REVERT JUMPDEST POP PUSH2 0x383 PUSH2 0x980 JUMP JUMPDEST STOP JUMPDEST CALLVALUE DUP1 ISZERO PUSH2 0x390 JUMPI PUSH0 DUP1 REVERT JUMPDEST POP PUSH2 0x3AB PUSH1 0x4 DUP1 CALLDATASIZE SUB DUP2 ADD SWAP1 PUSH2 0x3A6 SWAP2 SWAP1 PUSH2 0x1BCB JUMP JUMPDEST PUSH2 0x993 JUMP JUMPDEST STOP JUMPDEST CALLVALUE DUP1 ISZERO PUSH2 0x3B8 JUMPI PUSH0 DUP1 REVERT JUMPDEST POP PUSH2 0x3C1 PUSH2 0xA4C JUMP JUMPDEST PUSH1 0x40 MLOAD PUSH2 0x3CE SWAP2 SWAP1 PUSH2 0x1B03 JUMP JUMPDEST PUSH1 0x40 MLOAD DUP1 SWAP2 SUB SWAP1 RETURN JUMPDEST CALLVALUE DUP1 ISZERO PUSH2 0x3E2 JUMPI PUSH0 DUP1 REVERT JUMPDEST POP PUSH2 0x3FD PUSH1 0x4 DUP1 CALLDATASIZE SUB DUP2 ADD SWAP1 PUSH2 0x3F8 SWAP2 SWAP1 PUSH2 0x1A83 JUMP JUMPDEST PUSH2 0xA57 JUMP JUMPDEST STOP JUMPDEST CALLVALUE DUP1 ISZERO PUSH2 0x40A JUMPI PUSH0 DUP1 REVERT JUMPDEST POP PUSH2 0x413 PUSH2 0xA77 JUMP JUMPDEST PUSH1 0x40 MLOAD PUSH2 0x420 SWAP2 SWAP1 PUSH2 0x1B03 JUMP JUMPDEST PUSH1 0x40 MLOAD DUP1 SWAP2 SUB SWAP1 RETURN JUMPDEST CALLVALUE DUP1 ISZERO PUSH2 0x434 JUMPI PUSH0 DUP1 REVERT JUMPDEST POP PUSH2 0x43D PUSH2 0xA7E JUMP JUMPDEST PUSH1 0x40 MLOAD PUSH2 0x44A SWAP2 SWAP1 PUSH2 0x1C05 JUMP JUMPDEST PUSH1 0x40 MLOAD DUP1 SWAP2 SUB SWAP1 RETURN JUMPDEST CALLVALUE DUP1 ISZERO PUSH2 0x45E JUMPI PUSH0 DUP1 REVERT JUMPDEST POP PUSH2 0x467 PUSH2 0xAA6 JUMP JUMPDEST PUSH1 0x40 MLOAD PUSH2 0x474 SWAP2 SWAP1 PUSH2 0x1B03 JUMP JUMPDEST PUSH1 0x40 MLOAD DUP1 SWAP2 SUB SWAP1 RETURN JUMPDEST CALLVALUE DUP1 ISZERO PUSH2 0x488 JUMPI PUSH0 DUP1 REVERT JUMPDEST POP PUSH2 0x491 PUSH2 0xB53 JUMP JUMPDEST PUSH1 0x40 MLOAD PUSH2 0x49E SWAP2 SWAP1 PUSH2 0x19D2 JUMP JUMPDEST PUSH1 0x40 MLOAD DUP1 SWAP2 SUB SWAP1 RETURN JUMPDEST CALLVALUE DUP1 ISZERO PUSH2 0x4B2 JUMPI PUSH0 DUP1 REVERT JUMPDEST POP PUSH2 0x4CD PUSH1 0x4 DUP1 CALLDATASIZE SUB DUP2 ADD SWAP1 PUSH2 0x4C8 SWAP2 SWAP1 PUSH2 0x1A83 JUMP JUMPDEST PUSH2 0xBE3 JUMP JUMPDEST PUSH1 0x40 MLOAD PUSH2 0x4DA SWAP2 SWAP1 PUSH2 0x1ADB JUMP JUMPDEST PUSH1 0x40 MLOAD DUP1 SWAP2 SUB SWAP1 RETURN JUMPDEST CALLVALUE DUP1 ISZERO PUSH2 0x4EE JUMPI PUSH0 DUP1 REVERT JUMPDEST POP PUSH2 0x509 PUSH1 0x4 DUP1 CALLDATASIZE SUB DUP2 ADD SWAP1 PUSH2 0x504 SWAP2 SWAP1 PUSH2 0x1BCB JUMP JUMPDEST PUSH2 0xC05 JUMP JUMPDEST PUSH1 0x40 MLOAD PUSH2 0x516 SWAP2 SWAP1 PUSH2 0x1B03 JUMP JUMPDEST PUSH1 0x40 MLOAD DUP1 SWAP2 SUB SWAP1 RETURN JUMPDEST CALLVALUE DUP1 ISZERO PUSH2 0x52A JUMPI PUSH0 DUP1 REVERT JUMPDEST POP PUSH2 0x545 PUSH1 0x4 DUP1 CALLDATASIZE SUB DUP2 ADD SWAP1 PUSH2 0x540 SWAP2 SWAP1 PUSH2 0x1BA0 JUMP JUMPDEST PUSH2 0xC7D JUMP JUMPDEST STOP JUMPDEST CALLVALUE DUP1 ISZERO PUSH2 0x552 JUMPI PUSH0 DUP1 REVERT JUMPDEST POP PUSH2 0x55B PUSH2 0xD20 JUMP JUMPDEST STOP JUMPDEST CALLVALUE DUP1 ISZERO PUSH2 0x568 JUMPI PUSH0 DUP1 REVERT JUMPDEST POP PUSH2 0x583 PUSH1 0x4 DUP1 CALLDATASIZE SUB DUP2 ADD SWAP1 PUSH2 0x57E SWAP2 SWAP1 PUSH2 0x1BA0 JUMP JUMPDEST PUSH2 0xE96 JUMP JUMPDEST PUSH1 0x40 MLOAD PUSH2 0x590 SWAP2 SWAP1 PUSH2 0x1B03 JUMP JUMPDEST PUSH1 0x40 MLOAD DUP1 SWAP2 SUB SWAP1 RETURN JUMPDEST PUSH2 0x5A1 PUSH2 0xF01 JUMP JUMPDEST STOP JUMPDEST CALLVALUE DUP1 ISZERO PUSH2 0x5AE JUMPI PUSH0 DUP1 REVERT JUMPDEST POP PUSH2 0x5C9 PUSH1 0x4 DUP1 CALLDATASIZE SUB DUP2 ADD SWAP1 PUSH2 0x5C4 SWAP2 SWAP1 PUSH2 0x1BCB JUMP JUMPDEST PUSH2 0xFD9 JUMP JUMPDEST PUSH1 0x40 MLOAD PUSH2 0x5D6 SWAP2 SWAP1 PUSH2 0x1B03 JUMP JUMPDEST PUSH1 0x40 MLOAD DUP1 SWAP2 SUB SWAP1 RETURN JUMPDEST CALLVALUE DUP1 ISZERO PUSH2 0x5EA JUMPI PUSH0 DUP1 REVERT JUMPDEST POP PUSH2 0x605 PUSH1 0x4 DUP1 CALLDATASIZE SUB DUP2 ADD SWAP1 PUSH2 0x600 SWAP2 SWAP1 PUSH2 0x1C1E JUMP JUMPDEST PUSH2 0xFEE JUMP JUMPDEST PUSH1 0x40 MLOAD PUSH2 0x612 SWAP2 SWAP1 PUSH2 0x1B03 JUMP JUMPDEST PUSH1 0x40 MLOAD DUP1 SWAP2 SUB SWAP1 RETURN JUMPDEST CALLVALUE DUP1 ISZERO PUSH2 0x626 JUMPI PUSH0 DUP1 REVERT JUMPDEST POP PUSH2 0x62F PUSH2 0x1070 JUMP JUMPDEST STOP JUMPDEST CALLVALUE DUP1 ISZERO PUSH2 0x63C JUMPI PUSH0 DUP1 REVERT JUMPDEST POP PUSH2 0x657 PUSH1 0x4 DUP1 CALLDATASIZE SUB DUP2 ADD SWAP1 PUSH2 0x652 SWAP2 SWAP1 PUSH2 0x1BCB JUMP JUMPDEST PUSH2 0x110C JUMP JUMPDEST STOP JUMPDEST CALLVALUE DUP1 ISZERO PUSH2 0x664 JUMPI PUSH0 DUP1 REVERT JUMPDEST POP PUSH2 0x66D PUSH2 0x1190 JUMP JUMPDEST PUSH1 0x40 MLOAD PUSH2 0x67A SWAP2 SWAP1 PUSH2 0x1B03 JUMP JUMPDEST PUSH1 0x40 MLOAD DUP1 SWAP2 SUB SWAP1 RETURN JUMPDEST PUSH1 0x60 PUSH1 0x3 DUP1 SLOAD PUSH2 0x692 SWAP1 PUSH2 0x1C89 JUMP JUMPDEST DUP1 PUSH1 0x1F ADD PUSH1 0x20 DUP1 SWAP2 DIV MUL PUSH1 0x20 ADD PUSH1 0x40 MLOAD SWAP1 DUP2 ADD PUSH1 0x40 MSTORE DUP1 SWAP3 SWAP2 SWAP1 DUP2 DUP2 MSTORE PUSH1 0x20 ADD DUP3 DUP1 SLOAD PUSH2 0x6BE SWAP1 PUSH2 0x1C89 JUMP JUMPDEST DUP1 ISZERO PUSH2 0x709 JUMPI DUP1 PUSH1 0x1F LT PUSH2 0x6E0 JUMPI PUSH2 0x100 DUP1 DUP4 SLOAD DIV MUL DUP4 MSTORE SWAP2 PUSH1 0x20 ADD SWAP2 PUSH2 0x709 JUMP JUMPDEST DUP3 ADD SWAP2 SWAP1 PUSH0 MSTORE PUSH1 0x20 PUSH0 KECCAK256 SWAP1 JUMPDEST DUP2 SLOAD DUP2 MSTORE SWAP1 PUSH1 0x1 ADD SWAP1 PUSH1 0x20 ADD DUP1 DUP4 GT PUSH2 0x6EC JUMPI DUP3 SWAP1 SUB PUSH1 0x1F AND DUP3 ADD SWAP2 JUMPDEST POP POP POP POP POP SWAP1 POP SWAP1 JUMP JUMPDEST PUSH0 DUP1 PUSH2 0x71D PUSH2 0x1196 JUMP JUMPDEST SWAP1 POP PUSH2 0x72A DUP2 DUP6 DUP6 PUSH2 0x119D JUMP JUMPDEST PUSH1 0x1 SWAP2 POP POP SWAP3 SWAP2 POP POP JUMP JUMPDEST PUSH0 PUSH1 0x2 SLOAD SWAP1 POP SWAP1 JUMP JUMPDEST PUSH0 DUP1 PUSH2 0x748 PUSH2 0x1196 JUMP JUMPDEST SWAP1 POP PUSH2 0x755 DUP6 DUP3 DUP6 PUSH2 0x11AF JUMP JUMPDEST PUSH2 0x760 DUP6 DUP6 DUP6 PUSH2 0x1242 JUMP JUMPDEST PUSH1 0x1 SWAP2 POP POP SWAP4 SWAP3 POP POP POP JUMP JUMPDEST PUSH0 PUSH1 0x12 SWAP1 POP SWAP1 JUMP JUMPDEST PUSH2 0x77C PUSH2 0x1332 JUMP JUMPDEST PUSH2 0x786 DUP3 DUP3 PUSH2 0x13B9 JUMP JUMPDEST POP POP JUMP JUMPDEST PUSH2 0x79B PUSH2 0x795 PUSH2 0x1196 JUMP JUMPDEST DUP3 PUSH2 0x1438 JUMP JUMPDEST POP JUMP JUMPDEST PUSH0 DUP2 GT PUSH2 0x7E0 JUMPI PUSH1 0x40 MLOAD PUSH32 0x8C379A000000000000000000000000000000000000000000000000000000000 DUP2 MSTORE PUSH1 0x4 ADD PUSH2 0x7D7 SWAP1 PUSH2 0x1D03 JUMP JUMPDEST PUSH1 0x40 MLOAD DUP1 SWAP2 SUB SWAP1 REVERT JUMPDEST DUP1 PUSH2 0x7EA CALLER PUSH2 0x93B JUMP JUMPDEST LT ISZERO PUSH2 0x82B JUMPI PUSH1 0x40 MLOAD PUSH32 0x8C379A000000000000000000000000000000000000000000000000000000000 DUP2 MSTORE PUSH1 0x4 ADD PUSH2 0x822 SWAP1 PUSH2 0x1D6B JUMP JUMPDEST PUSH1 0x40 MLOAD DUP1 SWAP2 SUB SWAP1 REVERT JUMPDEST PUSH0 PUSH2 0x834 PUSH2 0xAA6 JUMP JUMPDEST SWAP1 POP PUSH0 PUSH2 0x190 DUP4 PUSH2 0x845 SWAP2 SWAP1 PUSH2 0x1DB6 JUMP JUMPDEST SWAP1 POP PUSH0 DUP3 PUSH8 0xDE0B6B3A7640000 DUP4 PUSH2 0x85D SWAP2 SWAP1 PUSH2 0x1DB6 JUMP JUMPDEST PUSH2 0x867 SWAP2 SWAP1 PUSH2 0x1E24 JUMP JUMPDEST SWAP1 POP DUP1 SELFBALANCE LT ISZERO PUSH2 0x8AC JUMPI PUSH1 0x40 MLOAD PUSH32 0x8C379A000000000000000000000000000000000000000000000000000000000 DUP2 MSTORE PUSH1 0x4 ADD PUSH2 0x8A3 SWAP1 PUSH2 0x1E9E JUMP JUMPDEST PUSH1 0x40 MLOAD DUP1 SWAP2 SUB SWAP1 REVERT JUMPDEST PUSH2 0x8B6 CALLER DUP6 PUSH2 0x1438 JUMP JUMPDEST CALLER PUSH20 0xFFFFFFFFFFFFFFFFFFFFFFFFFFFFFFFFFFFFFFFF AND PUSH2 0x8FC DUP3 SWAP1 DUP2 ISZERO MUL SWAP1 PUSH1 0x40 MLOAD PUSH0 PUSH1 0x40 MLOAD DUP1 DUP4 SUB DUP2 DUP6 DUP9 DUP9 CALL SWAP4 POP POP POP POP ISZERO DUP1 ISZERO PUSH2 0x8F9 JUMPI RETURNDATASIZE PUSH0 DUP1 RETURNDATACOPY RETURNDATASIZE PUSH0 REVERT JUMPDEST POP PUSH32 0x2DCF9433D75DB0D8B1C172641F85E319FFE4AD22E108A95D1847CEB906E5195D CALLER DUP6 DUP4 PUSH1 0x40 MLOAD PUSH2 0x92D SWAP4 SWAP3 SWAP2 SWAP1 PUSH2 0x1EBC JUMP JUMPDEST PUSH1 0x40 MLOAD DUP1 SWAP2 SUB SWAP1 LOG1 POP POP POP POP JUMP JUMPDEST PUSH0 DUP1 PUSH0 DUP4 PUSH20 0xFFFFFFFFFFFFFFFFFFFFFFFFFFFFFFFFFFFFFFFF AND PUSH20 0xFFFFFFFFFFFFFFFFFFFFFFFFFFFFFFFFFFFFFFFF AND DUP2 MSTORE PUSH1 0x20 ADD SWAP1 DUP2 MSTORE PUSH1 0x20 ADD PUSH0 KECCAK256 SLOAD SWAP1 POP SWAP2 SWAP1 POP JUMP JUMPDEST PUSH2 0x988 PUSH2 0x1332 JUMP JUMPDEST PUSH2 0x991 PUSH0 PUSH2 0x14B7 JUMP JUMPDEST JUMP JUMPDEST PUSH2 0x99B PUSH2 0x1332 JUMP JUMPDEST PUSH0 PUSH20 0xFFFFFFFFFFFFFFFFFFFFFFFFFFFFFFFFFFFFFFFF AND DUP2 PUSH20 0xFFFFFFFFFFFFFFFFFFFFFFFFFFFFFFFFFFFFFFFF AND SUB PUSH2 0xA09 JUMPI PUSH1 0x40 MLOAD PUSH32 0x8C379A000000000000000000000000000000000000000000000000000000000 DUP2 MSTORE PUSH1 0x4 ADD PUSH2 0xA00 SWAP1 PUSH2 0x1F3B JUMP JUMPDEST PUSH1 0x40 MLOAD DUP1 SWAP2 SUB SWAP1 REVERT JUMPDEST DUP1 PUSH1 0x6 PUSH0 PUSH2 0x100 EXP DUP2 SLOAD DUP2 PUSH20 0xFFFFFFFFFFFFFFFFFFFFFFFFFFFFFFFFFFFFFFFF MUL NOT AND SWAP1 DUP4 PUSH20 0xFFFFFFFFFFFFFFFFFFFFFFFFFFFFFFFFFFFFFFFF AND MUL OR SWAP1 SSTORE POP POP JUMP JUMPDEST PUSH7 0x1FF973CAFA8000 DUP2 JUMP JUMPDEST PUSH2 0xA69 DUP3 PUSH2 0xA63 PUSH2 0x1196 JUMP JUMPDEST DUP4 PUSH2 0x11AF JUMP JUMPDEST PUSH2 0xA73 DUP3 DUP3 PUSH2 0x1438 JUMP JUMPDEST POP POP JUMP JUMPDEST PUSH3 0x15180 DUP2 JUMP JUMPDEST PUSH0 PUSH1 0x5 PUSH0 SWAP1 SLOAD SWAP1 PUSH2 0x100 EXP SWAP1 DIV PUSH20 0xFFFFFFFFFFFFFFFFFFFFFFFFFFFFFFFFFFFFFFFF AND SWAP1 POP SWAP1 JUMP JUMPDEST PUSH0 DUP1 PUSH1 0x6 PUSH0 SWAP1 SLOAD SWAP1 PUSH2 0x100 EXP SWAP1 DIV PUSH20 0xFFFFFFFFFFFFFFFFFFFFFFFFFFFFFFFFFFFFFFFF AND PUSH20 0xFFFFFFFFFFFFFFFFFFFFFFFFFFFFFFFFFFFFFFFF AND PUSH4 0xFEAF968C PUSH1 0x40 MLOAD DUP2 PUSH4 0xFFFFFFFF AND PUSH1 0xE0 SHL DUP2 MSTORE PUSH1 0x4 ADD PUSH1 0xA0 PUSH1 0x40 MLOAD DUP1 DUP4 SUB DUP2 DUP7 GAS STATICCALL ISZERO DUP1 ISZERO PUSH2 0xB12 JUMPI RETURNDATASIZE PUSH0 DUP1 RETURNDATACOPY RETURNDATASIZE PUSH0 REVERT JUMPDEST POP POP POP POP PUSH1 0x40 MLOAD RETURNDATASIZE PUSH1 0x1F NOT PUSH1 0x1F DUP3 ADD AND DUP3 ADD DUP1 PUSH1 0x40 MSTORE POP DUP2 ADD SWAP1 PUSH2 0xB36 SWAP2 SWAP1 PUSH2 0x1FDF JUMP JUMPDEST POP POP POP SWAP2 POP POP PUSH5 0x2540BE400 DUP2 PUSH2 0xB4D SWAP2 SWAP1 PUSH2 0x1DB6 JUMP JUMPDEST SWAP2 POP POP SWAP1 JUMP JUMPDEST PUSH1 0x60 PUSH1 0x4 DUP1 SLOAD PUSH2 0xB62 SWAP1 PUSH2 0x1C89 JUMP JUMPDEST DUP1 PUSH1 0x1F ADD PUSH1 0x20 DUP1 SWAP2 DIV MUL PUSH1 0x20 ADD PUSH1 0x40 MLOAD SWAP1 DUP2 ADD PUSH1 0x40 MSTORE DUP1 SWAP3 SWAP2 SWAP1 DUP2 DUP2 MSTORE PUSH1 0x20 ADD DUP3 DUP1 SLOAD PUSH2 0xB8E SWAP1 PUSH2 0x1C89 JUMP JUMPDEST DUP1 ISZERO PUSH2 0xBD9 JUMPI DUP1 PUSH1 0x1F LT PUSH2 0xBB0 JUMPI PUSH2 0x100 DUP1 DUP4 SLOAD DIV MUL DUP4 MSTORE SWAP2 PUSH1 0x20 ADD SWAP2 PUSH2 0xBD9 JUMP JUMPDEST DUP3 ADD SWAP2 SWAP1 PUSH0 MSTORE PUSH1 0x20 PUSH0 KECCAK256 SWAP1 JUMPDEST DUP2 SLOAD DUP2 MSTORE SWAP1 PUSH1 0x1 ADD SWAP1 PUSH1 0x20 ADD DUP1 DUP4 GT PUSH2 0xBBC JUMPI DUP3 SWAP1 SUB PUSH1 0x1F AND DUP3 ADD SWAP2 JUMPDEST POP POP POP POP POP SWAP1 POP SWAP1 JUMP JUMPDEST PUSH0 DUP1 PUSH2 0xBED PUSH2 0x1196 JUMP JUMPDEST SWAP1 POP PUSH2 0xBFA DUP2 DUP6 DUP6 PUSH2 0x1242 JUMP JUMPDEST PUSH1 0x1 SWAP2 POP POP SWAP3 SWAP2 POP POP JUMP JUMPDEST PUSH0 DUP1 PUSH1 0x7 PUSH0 DUP5 PUSH20 0xFFFFFFFFFFFFFFFFFFFFFFFFFFFFFFFFFFFFFFFF AND PUSH20 0xFFFFFFFFFFFFFFFFFFFFFFFFFFFFFFFFFFFFFFFF AND DUP2 MSTORE PUSH1 0x20 ADD SWAP1 DUP2 MSTORE PUSH1 0x20 ADD PUSH0 KECCAK256 SLOAD TIMESTAMP PUSH2 0xC50 SWAP2 SWAP1 PUSH2 0x2056 JUMP JUMPDEST SWAP1 POP PUSH3 0x15180 DUP2 LT PUSH2 0xC65 JUMPI PUSH0 SWAP2 POP POP PUSH2 0xC78 JUMP JUMPDEST DUP1 PUSH3 0x15180 PUSH2 0xC74 SWAP2 SWAP1 PUSH2 0x2056 JUMP JUMPDEST SWAP2 POP POP JUMPDEST SWAP2 SWAP1 POP JUMP JUMPDEST PUSH2 0xC85 PUSH2 0x1332 JUMP JUMPDEST PUSH0 DUP2 GT PUSH2 0xCC7 JUMPI PUSH1 0x40 MLOAD PUSH32 0x8C379A000000000000000000000000000000000000000000000000000000000 DUP2 MSTORE PUSH1 0x4 ADD PUSH2 0xCBE SWAP1 PUSH2 0x20D3 JUMP JUMPDEST PUSH1 0x40 MLOAD DUP1 SWAP2 SUB SWAP1 REVERT JUMPDEST DUP1 PUSH2 0xCD1 CALLER PUSH2 0x93B JUMP JUMPDEST LT ISZERO PUSH2 0xD12 JUMPI PUSH1 0x40 MLOAD PUSH32 0x8C379A000000000000000000000000000000000000000000000000000000000 DUP2 MSTORE PUSH1 0x4 ADD PUSH2 0xD09 SWAP1 PUSH2 0x213B JUMP JUMPDEST PUSH1 0x40 MLOAD DUP1 SWAP2 SUB SWAP1 REVERT JUMPDEST PUSH2 0xD1D CALLER ADDRESS DUP4 PUSH2 0x1242 JUMP JUMPDEST POP JUMP JUMPDEST PUSH3 0x15180 PUSH1 0x7 PUSH0 CALLER PUSH20 0xFFFFFFFFFFFFFFFFFFFFFFFFFFFFFFFFFFFFFFFF AND PUSH20 0xFFFFFFFFFFFFFFFFFFFFFFFFFFFFFFFFFFFFFFFF AND DUP2 MSTORE PUSH1 0x20 ADD SWAP1 DUP2 MSTORE PUSH1 0x20 ADD PUSH0 KECCAK256 SLOAD PUSH2 0xD6C SWAP2 SWAP1 PUSH2 0x2159 JUMP JUMPDEST TIMESTAMP LT ISZERO PUSH2 0xDAE JUMPI PUSH1 0x40 MLOAD PUSH32 0x8C379A000000000000000000000000000000000000000000000000000000000 DUP2 MSTORE PUSH1 0x4 ADD PUSH2 0xDA5 SWAP1 PUSH2 0x21FC JUMP JUMPDEST PUSH1 0x40 MLOAD DUP1 SWAP2 SUB SWAP1 REVERT JUMPDEST PUSH7 0x1FF973CAFA8000 PUSH2 0xDBF ADDRESS PUSH2 0x93B JUMP JUMPDEST LT ISZERO PUSH2 0xE00 JUMPI PUSH1 0x40 MLOAD PUSH32 0x8C379A000000000000000000000000000000000000000000000000000000000 DUP2 MSTORE PUSH1 0x4 ADD PUSH2 0xDF7 SWAP1 PUSH2 0x2264 JUMP JUMPDEST PUSH1 0x40 MLOAD DUP1 SWAP2 SUB SWAP1 REVERT JUMPDEST TIMESTAMP PUSH1 0x7 PUSH0 CALLER PUSH20 0xFFFFFFFFFFFFFFFFFFFFFFFFFFFFFFFFFFFFFFFF AND PUSH20 0xFFFFFFFFFFFFFFFFFFFFFFFFFFFFFFFFFFFFFFFF AND DUP2 MSTORE PUSH1 0x20 ADD SWAP1 DUP2 MSTORE PUSH1 0x20 ADD PUSH0 KECCAK256 DUP2 SWAP1 SSTORE POP PUSH2 0xE54 ADDRESS CALLER PUSH7 0x1FF973CAFA8000 PUSH2 0x1242 JUMP JUMPDEST PUSH32 0x4CCC2CB57D301275BFF907DF4FCC7431CA6CEF9083F95CDC1098086C2360E29A CALLER PUSH7 0x1FF973CAFA8000 PUSH1 0x40 MLOAD PUSH2 0xE8C SWAP3 SWAP2 SWAP1 PUSH2 0x2282 JUMP JUMPDEST PUSH1 0x40 MLOAD DUP1 SWAP2 SUB SWAP1 LOG1 JUMP JUMPDEST PUSH0 DUP1 PUSH2 0xEA0 PUSH2 0xAA6 JUMP JUMPDEST SWAP1 POP PUSH0 PUSH8 0xDE0B6B3A7640000 DUP3 DUP6 PUSH2 0xEB8 SWAP2 SWAP1 PUSH2 0x1DB6 JUMP JUMPDEST PUSH2 0xEC2 SWAP2 SWAP1 PUSH2 0x1E24 JUMP JUMPDEST SWAP1 POP PUSH8 0xDE0B6B3A7640000 PUSH2 0x190 PUSH2 0xEDA SWAP2 SWAP1 PUSH2 0x1DB6 JUMP JUMPDEST PUSH8 0xDE0B6B3A7640000 DUP3 PUSH2 0xEEE SWAP2 SWAP1 PUSH2 0x1DB6 JUMP JUMPDEST PUSH2 0xEF8 SWAP2 SWAP1 PUSH2 0x1E24 JUMP JUMPDEST SWAP3 POP POP POP SWAP2 SWAP1 POP JUMP JUMPDEST PUSH0 CALLVALUE GT PUSH2 0xF43 JUMPI PUSH1 0x40 MLOAD PUSH32 0x8C379A000000000000000000000000000000000000000000000000000000000 DUP2 MSTORE PUSH1 0x4 ADD PUSH2 0xF3A SWAP1 PUSH2 0x22F3 JUMP JUMPDEST PUSH1 0x40 MLOAD DUP1 SWAP2 SUB SWAP1 REVERT JUMPDEST PUSH0 PUSH2 0xF4D CALLVALUE PUSH2 0xE96 JUMP JUMPDEST SWAP1 POP PUSH0 DUP2 GT PUSH2 0xF91 JUMPI PUSH1 0x40 MLOAD PUSH32 0x8C379A000000000000000000000000000000000000000000000000000000000 DUP2 MSTORE PUSH1 0x4 ADD PUSH2 0xF88 SWAP1 PUSH2 0x235B JUMP JUMPDEST PUSH1 0x40 MLOAD DUP1 SWAP2 SUB SWAP1 REVERT JUMPDEST PUSH2 0xF9B CALLER DUP3 PUSH2 0x13B9 JUMP JUMPDEST PUSH32 0x8FAFEBCAF9D154343DAD25669BFA277F4FBACD7AC6B0C4FED522580E040A0F33 CALLER DUP3 CALLVALUE PUSH1 0x40 MLOAD PUSH2 0xFCE SWAP4 SWAP3 SWAP2 SWAP1 PUSH2 0x1EBC JUMP JUMPDEST PUSH1 0x40 MLOAD DUP1 SWAP2 SUB SWAP1 LOG1 POP JUMP JUMPDEST PUSH1 0x7 PUSH1 0x20 MSTORE DUP1 PUSH0 MSTORE PUSH1 0x40 PUSH0 KECCAK256 PUSH0 SWAP2 POP SWAP1 POP SLOAD DUP2 JUMP JUMPDEST PUSH0 PUSH1 0x1 PUSH0 DUP5 PUSH20 0xFFFFFFFFFFFFFFFFFFFFFFFFFFFFFFFFFFFFFFFF AND PUSH20 0xFFFFFFFFFFFFFFFFFFFFFFFFFFFFFFFFFFFFFFFF AND DUP2 MSTORE PUSH1 0x20 ADD SWAP1 DUP2 MSTORE PUSH1 0x20 ADD PUSH0 KECCAK256 PUSH0 DUP4 PUSH20 0xFFFFFFFFFFFFFFFFFFFFFFFFFFFFFFFFFFFFFFFF AND PUSH20 0xFFFFFFFFFFFFFFFFFFFFFFFFFFFFFFFFFFFFFFFF AND DUP2 MSTORE PUSH1 0x20 ADD SWAP1 DUP2 MSTORE PUSH1 0x20 ADD PUSH0 KECCAK256 SLOAD SWAP1 POP SWAP3 SWAP2 POP POP JUMP JUMPDEST PUSH2 0x1078 PUSH2 0x1332 JUMP JUMPDEST PUSH0 SELFBALANCE SWAP1 POP PUSH0 DUP2 GT PUSH2 0x10BE JUMPI PUSH1 0x40 MLOAD PUSH32 0x8C379A000000000000000000000000000000000000000000000000000000000 DUP2 MSTORE PUSH1 0x4 ADD PUSH2 0x10B5 SWAP1 PUSH2 0x23C3 JUMP JUMPDEST PUSH1 0x40 MLOAD DUP1 SWAP2 SUB SWAP1 REVERT JUMPDEST PUSH2 0x10C6 PUSH2 0xA7E JUMP JUMPDEST PUSH20 0xFFFFFFFFFFFFFFFFFFFFFFFFFFFFFFFFFFFFFFFF AND PUSH2 0x8FC DUP3 SWAP1 DUP2 ISZERO MUL SWAP1 PUSH1 0x40 MLOAD PUSH0 PUSH1 0x40 MLOAD DUP1 DUP4 SUB DUP2 DUP6 DUP9 DUP9 CALL SWAP4 POP POP POP POP ISZERO DUP1 ISZERO PUSH2 0x1108 JUMPI RETURNDATASIZE PUSH0 DUP1 RETURNDATACOPY RETURNDATASIZE PUSH0 REVERT JUMPDEST POP POP JUMP JUMPDEST PUSH2 0x1114 PUSH2 0x1332 JUMP JUMPDEST PUSH0 PUSH20 0xFFFFFFFFFFFFFFFFFFFFFFFFFFFFFFFFFFFFFFFF AND DUP2 PUSH20 0xFFFFFFFFFFFFFFFFFFFFFFFFFFFFFFFFFFFFFFFF AND SUB PUSH2 0x1184 JUMPI PUSH0 PUSH1 0x40 MLOAD PUSH32 0x1E4FBDF700000000000000000000000000000000000000000000000000000000 DUP2 MSTORE PUSH1 0x4 ADD PUSH2 0x117B SWAP2 SWAP1 PUSH2 0x1C05 JUMP JUMPDEST PUSH1 0x40 MLOAD DUP1 SWAP2 SUB SWAP1 REVERT JUMPDEST PUSH2 0x118D DUP2 PUSH2 0x14B7 JUMP JUMPDEST POP JUMP JUMPDEST PUSH2 0x190 DUP2 JUMP JUMPDEST PUSH0 CALLER SWAP1 POP SWAP1 JUMP JUMPDEST PUSH2 0x11AA DUP4 DUP4 DUP4 PUSH1 0x1 PUSH2 0x157A JUMP JUMPDEST POP POP POP JUMP JUMPDEST PUSH0 PUSH2 0x11BA DUP5 DUP5 PUSH2 0xFEE JUMP JUMPDEST SWAP1 POP PUSH32 0xFFFFFFFFFFFFFFFFFFFFFFFFFFFFFFFFFFFFFFFFFFFFFFFFFFFFFFFFFFFFFFFF DUP2 LT ISZERO PUSH2 0x123C JUMPI DUP2 DUP2 LT ISZERO PUSH2 0x122D JUMPI DUP3 DUP2 DUP4 PUSH1 0x40 MLOAD PUSH32 0xFB8F41B200000000000000000000000000000000000000000000000000000000 DUP2 MSTORE PUSH1 0x4 ADD PUSH2 0x1224 SWAP4 SWAP3 SWAP2 SWAP1 PUSH2 0x1EBC JUMP JUMPDEST PUSH1 0x40 MLOAD DUP1 SWAP2 SUB SWAP1 REVERT JUMPDEST PUSH2 0x123B DUP5 DUP5 DUP5 DUP5 SUB PUSH0 PUSH2 0x157A JUMP JUMPDEST JUMPDEST POP POP POP POP JUMP JUMPDEST PUSH0 PUSH20 0xFFFFFFFFFFFFFFFFFFFFFFFFFFFFFFFFFFFFFFFF AND DUP4 PUSH20 0xFFFFFFFFFFFFFFFFFFFFFFFFFFFFFFFFFFFFFFFF AND SUB PUSH2 0x12B2 JUMPI PUSH0 PUSH1 0x40 MLOAD PUSH32 0x96C6FD1E00000000000000000000000000000000000000000000000000000000 DUP2 MSTORE PUSH1 0x4 ADD PUSH2 0x12A9 SWAP2 SWAP1 PUSH2 0x1C05 JUMP JUMPDEST PUSH1 0x40 MLOAD DUP1 SWAP2 SUB SWAP1 REVERT JUMPDEST PUSH0 PUSH20 0xFFFFFFFFFFFFFFFFFFFFFFFFFFFFFFFFFFFFFFFF AND DUP3 PUSH20 0xFFFFFFFFFFFFFFFFFFFFFFFFFFFFFFFFFFFFFFFF AND SUB PUSH2 0x1322 JUMPI PUSH0 PUSH1 0x40 MLOAD PUSH32 0xEC442F0500000000000000000000000000000000000000000000000000000000 DUP2 MSTORE PUSH1 0x4 ADD PUSH2 0x1319 SWAP2 SWAP1 PUSH2 0x1C05 JUMP JUMPDEST PUSH1 0x40 MLOAD DUP1 SWAP2 SUB SWAP1 REVERT JUMPDEST PUSH2 0x132D DUP4 DUP4 DUP4 PUSH2 0x1749 JUMP JUMPDEST POP POP POP JUMP JUMPDEST PUSH2 0x133A PUSH2 0x1196 JUMP JUMPDEST PUSH20 0xFFFFFFFFFFFFFFFFFFFFFFFFFFFFFFFFFFFFFFFF AND PUSH2 0x1358 PUSH2 0xA7E JUMP JUMPDEST PUSH20 0xFFFFFFFFFFFFFFFFFFFFFFFFFFFFFFFFFFFFFFFF AND EQ PUSH2 0x13B7 JUMPI PUSH2 0x137B PUSH2 0x1196 JUMP JUMPDEST PUSH1 0x40 MLOAD PUSH32 0x118CDAA700000000000000000000000000000000000000000000000000000000 DUP2 MSTORE PUSH1 0x4 ADD PUSH2 0x13AE SWAP2 SWAP1 PUSH2 0x1C05 JUMP JUMPDEST PUSH1 0x40 MLOAD DUP1 SWAP2 SUB SWAP1 REVERT JUMPDEST JUMP JUMPDEST PUSH0 PUSH20 0xFFFFFFFFFFFFFFFFFFFFFFFFFFFFFFFFFFFFFFFF AND DUP3 PUSH20 0xFFFFFFFFFFFFFFFFFFFFFFFFFFFFFFFFFFFFFFFF AND SUB PUSH2 0x1429 JUMPI PUSH0 PUSH1 0x40 MLOAD PUSH32 0xEC442F0500000000000000000000000000000000000000000000000000000000 DUP2 MSTORE PUSH1 0x4 ADD PUSH2 0x1420 SWAP2 SWAP1 PUSH2 0x1C05 JUMP JUMPDEST PUSH1 0x40 MLOAD DUP1 SWAP2 SUB SWAP1 REVERT JUMPDEST PUSH2 0x1434 PUSH0 DUP4 DUP4 PUSH2 0x1749 JUMP JUMPDEST POP POP JUMP JUMPDEST PUSH0 PUSH20 0xFFFFFFFFFFFFFFFFFFFFFFFFFFFFFFFFFFFFFFFF AND DUP3 PUSH20 0xFFFFFFFFFFFFFFFFFFFFFFFFFFFFFFFFFFFFFFFF AND SUB PUSH2 0x14A8 JUMPI PUSH0 PUSH1 0x40 MLOAD PUSH32 0x96C6FD1E00000000000000000000000000000000000000000000000000000000 DUP2 MSTORE PUSH1 0x4 ADD PUSH2 0x149F SWAP2 SWAP1 PUSH2 0x1C05 JUMP JUMPDEST PUSH1 0x40 MLOAD DUP1 SWAP2 SUB SWAP1 REVERT JUMPDEST PUSH2 0x14B3 DUP3 PUSH0 DUP4 PUSH2 0x1749 JUMP JUMPDEST POP POP JUMP JUMPDEST PUSH0 PUSH1 0x5 PUSH0 SWAP1 SLOAD SWAP1 PUSH2 0x100 EXP SWAP1 DIV PUSH20 0xFFFFFFFFFFFFFFFFFFFFFFFFFFFFFFFFFFFFFFFF AND SWAP1 POP DUP2 PUSH1 0x5 PUSH0 PUSH2 0x100 EXP DUP2 SLOAD DUP2 PUSH20 0xFFFFFFFFFFFFFFFFFFFFFFFFFFFFFFFFFFFFFFFF MUL NOT AND SWAP1 DUP4 PUSH20 0xFFFFFFFFFFFFFFFFFFFFFFFFFFFFFFFFFFFFFFFF AND MUL OR SWAP1 SSTORE POP DUP2 PUSH20 0xFFFFFFFFFFFFFFFFFFFFFFFFFFFFFFFFFFFFFFFF AND DUP2 PUSH20 0xFFFFFFFFFFFFFFFFFFFFFFFFFFFFFFFFFFFFFFFF AND PUSH32 0x8BE0079C531659141344CD1FD0A4F28419497F9722A3DAAFE3B4186F6B6457E0 PUSH1 0x40 MLOAD PUSH1 0x40 MLOAD DUP1 SWAP2 SUB SWAP1 LOG3 POP POP JUMP JUMPDEST PUSH0 PUSH20 0xFFFFFFFFFFFFFFFFFFFFFFFFFFFFFFFFFFFFFFFF AND DUP5 PUSH20 0xFFFFFFFFFFFFFFFFFFFFFFFFFFFFFFFFFFFFFFFF AND SUB PUSH2 0x15EA JUMPI PUSH0 PUSH1 0x40 MLOAD PUSH32 0xE602DF0500000000000000000000000000000000000000000000000000000000 DUP2 MSTORE PUSH1 0x4 ADD PUSH2 0x15E1 SWAP2 SWAP1 PUSH2 0x1C05 JUMP JUMPDEST PUSH1 0x40 MLOAD DUP1 SWAP2 SUB SWAP1 REVERT JUMPDEST PUSH0 PUSH20 0xFFFFFFFFFFFFFFFFFFFFFFFFFFFFFFFFFFFFFFFF AND DUP4 PUSH20 0xFFFFFFFFFFFFFFFFFFFFFFFFFFFFFFFFFFFFFFFF AND SUB PUSH2 0x165A JUMPI PUSH0 PUSH1 0x40 MLOAD PUSH32 0x94280D6200000000000000000000000000000000000000000000000000000000 DUP2 MSTORE PUSH1 0x4 ADD PUSH2 0x1651 SWAP2 SWAP1 PUSH2 0x1C05 JUMP JUMPDEST PUSH1 0x40 MLOAD DUP1 SWAP2 SUB SWAP1 REVERT JUMPDEST DUP2 PUSH1 0x1 PUSH0 DUP7 PUSH20 0xFFFFFFFFFFFFFFFFFFFFFFFFFFFFFFFFFFFFFFFF AND PUSH20 0xFFFFFFFFFFFFFFFFFFFFFFFFFFFFFFFFFFFFFFFF AND DUP2 MSTORE PUSH1 0x20 ADD SWAP1 DUP2 MSTORE PUSH1 0x20 ADD PUSH0 KECCAK256 PUSH0 DUP6 PUSH20 0xFFFFFFFFFFFFFFFFFFFFFFFFFFFFFFFFFFFFFFFF AND PUSH20 0xFFFFFFFFFFFFFFFFFFFFFFFFFFFFFFFFFFFFFFFF AND DUP2 MSTORE PUSH1 0x20 ADD SWAP1 DUP2 MSTORE PUSH1 0x20 ADD PUSH0 KECCAK256 DUP2 SWAP1 SSTORE POP DUP1 ISZERO PUSH2 0x1743 JUMPI DUP3 PUSH20 0xFFFFFFFFFFFFFFFFFFFFFFFFFFFFFFFFFFFFFFFF AND DUP5 PUSH20 0xFFFFFFFFFFFFFFFFFFFFFFFFFFFFFFFFFFFFFFFF AND PUSH32 0x8C5BE1E5EBEC7D5BD14F71427D1E84F3DD0314C0F7B2291E5B200AC8C7C3B925 DUP5 PUSH1 0x40 MLOAD PUSH2 0x173A SWAP2 SWAP1 PUSH2 0x1B03 JUMP JUMPDEST PUSH1 0x40 MLOAD DUP1 SWAP2 SUB SWAP1 LOG3 JUMPDEST POP POP POP POP JUMP JUMPDEST PUSH0 PUSH20 0xFFFFFFFFFFFFFFFFFFFFFFFFFFFFFFFFFFFFFFFF AND DUP4 PUSH20 0xFFFFFFFFFFFFFFFFFFFFFFFFFFFFFFFFFFFFFFFF AND SUB PUSH2 0x1799 JUMPI DUP1 PUSH1 0x2 PUSH0 DUP3 DUP3 SLOAD PUSH2 0x178D SWAP2 SWAP1 PUSH2 0x2159 JUMP JUMPDEST SWAP3 POP POP DUP2 SWAP1 SSTORE POP PUSH2 0x1867 JUMP JUMPDEST PUSH0 DUP1 PUSH0 DUP6 PUSH20 0xFFFFFFFFFFFFFFFFFFFFFFFFFFFFFFFFFFFFFFFF AND PUSH20 0xFFFFFFFFFFFFFFFFFFFFFFFFFFFFFFFFFFFFFFFF AND DUP2 MSTORE PUSH1 0x20 ADD SWAP1 DUP2 MSTORE PUSH1 0x20 ADD PUSH0 KECCAK256 SLOAD SWAP1 POP DUP2 DUP2 LT ISZERO PUSH2 0x1822 JUMPI DUP4 DUP2 DUP4 PUSH1 0x40 MLOAD PUSH32 0xE450D38C00000000000000000000000000000000000000000000000000000000 DUP2 MSTORE PUSH1 0x4 ADD PUSH2 0x1819 SWAP4 SWAP3 SWAP2 SWAP1 PUSH2 0x1EBC JUMP JUMPDEST PUSH1 0x40 MLOAD DUP1 SWAP2 SUB SWAP1 REVERT JUMPDEST DUP2 DUP2 SUB PUSH0 DUP1 DUP7 PUSH20 0xFFFFFFFFFFFFFFFFFFFFFFFFFFFFFFFFFFFFFFFF AND PUSH20 0xFFFFFFFFFFFFFFFFFFFFFFFFFFFFFFFFFFFFFFFF AND DUP2 MSTORE PUSH1 0x20 ADD SWAP1 DUP2 MSTORE PUSH1 0x20 ADD PUSH0 KECCAK256 DUP2 SWAP1 SSTORE POP POP JUMPDEST PUSH0 PUSH20 0xFFFFFFFFFFFFFFFFFFFFFFFFFFFFFFFFFFFFFFFF AND DUP3 PUSH20 0xFFFFFFFFFFFFFFFFFFFFFFFFFFFFFFFFFFFFFFFF AND SUB PUSH2 0x18AE JUMPI DUP1 PUSH1 0x2 PUSH0 DUP3 DUP3 SLOAD SUB SWAP3 POP POP DUP2 SWAP1 SSTORE POP PUSH2 0x18F8 JUMP JUMPDEST DUP1 PUSH0 DUP1 DUP5 PUSH20 0xFFFFFFFFFFFFFFFFFFFFFFFFFFFFFFFFFFFFFFFF AND PUSH20 0xFFFFFFFFFFFFFFFFFFFFFFFFFFFFFFFFFFFFFFFF AND DUP2 MSTORE PUSH1 0x20 ADD SWAP1 DUP2 MSTORE PUSH1 0x20 ADD PUSH0 KECCAK256 PUSH0 DUP3 DUP3 SLOAD ADD SWAP3 POP POP DUP2 SWAP1 SSTORE POP JUMPDEST DUP2 PUSH20 0xFFFFFFFFFFFFFFFFFFFFFFFFFFFFFFFFFFFFFFFF AND DUP4 PUSH20 0xFFFFFFFFFFFFFFFFFFFFFFFFFFFFFFFFFFFFFFFF AND PUSH32 0xDDF252AD1BE2C89B69C2B068FC378DAA952BA7F163C4A11628F55A4DF523B3EF DUP4 PUSH1 0x40 MLOAD PUSH2 0x1955 SWAP2 SWAP1 PUSH2 0x1B03 JUMP JUMPDEST PUSH1 0x40 MLOAD DUP1 SWAP2 SUB SWAP1 LOG3 POP POP POP JUMP JUMPDEST PUSH0 DUP2 MLOAD SWAP1 POP SWAP2 SWAP1 POP JUMP JUMPDEST PUSH0 DUP3 DUP3 MSTORE PUSH1 0x20 DUP3 ADD SWAP1 POP SWAP3 SWAP2 POP POP JUMP JUMPDEST DUP3 DUP2 DUP4 MCOPY PUSH0 DUP4 DUP4 ADD MSTORE POP POP POP JUMP JUMPDEST PUSH0 PUSH1 0x1F NOT PUSH1 0x1F DUP4 ADD AND SWAP1 POP SWAP2 SWAP1 POP JUMP JUMPDEST PUSH0 PUSH2 0x19A4 DUP3 PUSH2 0x1962 JUMP JUMPDEST PUSH2 0x19AE DUP2 DUP6 PUSH2 0x196C JUMP JUMPDEST SWAP4 POP PUSH2 0x19BE DUP2 DUP6 PUSH1 0x20 DUP7 ADD PUSH2 0x197C JUMP JUMPDEST PUSH2 0x19C7 DUP2 PUSH2 0x198A JUMP JUMPDEST DUP5 ADD SWAP2 POP POP SWAP3 SWAP2 POP POP JUMP JUMPDEST PUSH0 PUSH1 0x20 DUP3 ADD SWAP1 POP DUP2 DUP2 SUB PUSH0 DUP4 ADD MSTORE PUSH2 0x19EA DUP2 DUP5 PUSH2 0x199A JUMP JUMPDEST SWAP1 POP SWAP3 SWAP2 POP POP JUMP JUMPDEST PUSH0 DUP1 REVERT JUMPDEST PUSH0 PUSH20 0xFFFFFFFFFFFFFFFFFFFFFFFFFFFFFFFFFFFFFFFF DUP3 AND SWAP1 POP SWAP2 SWAP1 POP JUMP JUMPDEST PUSH0 PUSH2 0x1A1F DUP3 PUSH2 0x19F6 JUMP JUMPDEST SWAP1 POP SWAP2 SWAP1 POP JUMP JUMPDEST PUSH2 0x1A2F DUP2 PUSH2 0x1A15 JUMP JUMPDEST DUP2 EQ PUSH2 0x1A39 JUMPI PUSH0 DUP1 REVERT JUMPDEST POP JUMP JUMPDEST PUSH0 DUP2 CALLDATALOAD SWAP1 POP PUSH2 0x1A4A DUP2 PUSH2 0x1A26 JUMP JUMPDEST SWAP3 SWAP2 POP POP JUMP JUMPDEST PUSH0 DUP2 SWAP1 POP SWAP2 SWAP1 POP JUMP JUMPDEST PUSH2 0x1A62 DUP2 PUSH2 0x1A50 JUMP JUMPDEST DUP2 EQ PUSH2 0x1A6C JUMPI PUSH0 DUP1 REVERT JUMPDEST POP JUMP JUMPDEST PUSH0 DUP2 CALLDATALOAD SWAP1 POP PUSH2 0x1A7D DUP2 PUSH2 0x1A59 JUMP JUMPDEST SWAP3 SWAP2 POP POP JUMP JUMPDEST PUSH0 DUP1 PUSH1 0x40 DUP4 DUP6 SUB SLT ISZERO PUSH2 0x1A99 JUMPI PUSH2 0x1A98 PUSH2 0x19F2 JUMP JUMPDEST JUMPDEST PUSH0 PUSH2 0x1AA6 DUP6 DUP3 DUP7 ADD PUSH2 0x1A3C JUMP JUMPDEST SWAP3 POP POP PUSH1 0x20 PUSH2 0x1AB7 DUP6 DUP3 DUP7 ADD PUSH2 0x1A6F JUMP JUMPDEST SWAP2 POP POP SWAP3 POP SWAP3 SWAP1 POP JUMP JUMPDEST PUSH0 DUP2 ISZERO ISZERO SWAP1 POP SWAP2 SWAP1 POP JUMP JUMPDEST PUSH2 0x1AD5 DUP2 PUSH2 0x1AC1 JUMP JUMPDEST DUP3 MSTORE POP POP JUMP JUMPDEST PUSH0 PUSH1 0x20 DUP3 ADD SWAP1 POP PUSH2 0x1AEE PUSH0 DUP4 ADD DUP5 PUSH2 0x1ACC JUMP JUMPDEST SWAP3 SWAP2 POP POP JUMP JUMPDEST PUSH2 0x1AFD DUP2 PUSH2 0x1A50 JUMP JUMPDEST DUP3 MSTORE POP POP JUMP JUMPDEST PUSH0 PUSH1 0x20 DUP3 ADD SWAP1 POP PUSH2 0x1B16 PUSH0 DUP4 ADD DUP5 PUSH2 0x1AF4 JUMP JUMPDEST SWAP3 SWAP2 POP POP JUMP JUMPDEST PUSH0 DUP1 PUSH0 PUSH1 0x60 DUP5 DUP7 SUB SLT ISZERO PUSH2 0x1B33 JUMPI PUSH2 0x1B32 PUSH2 0x19F2 JUMP JUMPDEST JUMPDEST PUSH0 PUSH2 0x1B40 DUP7 DUP3 DUP8 ADD PUSH2 0x1A3C JUMP JUMPDEST SWAP4 POP POP PUSH1 0x20 PUSH2 0x1B51 DUP7 DUP3 DUP8 ADD PUSH2 0x1A3C JUMP JUMPDEST SWAP3 POP POP PUSH1 0x40 PUSH2 0x1B62 DUP7 DUP3 DUP8 ADD PUSH2 0x1A6F JUMP JUMPDEST SWAP2 POP POP SWAP3 POP SWAP3 POP SWAP3 JUMP JUMPDEST PUSH0 PUSH1 0xFF DUP3 AND SWAP1 POP SWAP2 SWAP1 POP JUMP JUMPDEST PUSH2 0x1B81 DUP2 PUSH2 0x1B6C JUMP JUMPDEST DUP3 MSTORE POP POP JUMP JUMPDEST PUSH0 PUSH1 0x20 DUP3 ADD SWAP1 POP PUSH2 0x1B9A PUSH0 DUP4 ADD DUP5 PUSH2 0x1B78 JUMP JUMPDEST SWAP3 SWAP2 POP POP JUMP JUMPDEST PUSH0 PUSH1 0x20 DUP3 DUP5 SUB SLT ISZERO PUSH2 0x1BB5 JUMPI PUSH2 0x1BB4 PUSH2 0x19F2 JUMP JUMPDEST JUMPDEST PUSH0 PUSH2 0x1BC2 DUP5 DUP3 DUP6 ADD PUSH2 0x1A6F JUMP JUMPDEST SWAP2 POP POP SWAP3 SWAP2 POP POP JUMP JUMPDEST PUSH0 PUSH1 0x20 DUP3 DUP5 SUB SLT ISZERO PUSH2 0x1BE0 JUMPI PUSH2 0x1BDF PUSH2 0x19F2 JUMP JUMPDEST JUMPDEST PUSH0 PUSH2 0x1BED DUP5 DUP3 DUP6 ADD PUSH2 0x1A3C JUMP JUMPDEST SWAP2 POP POP SWAP3 SWAP2 POP POP JUMP JUMPDEST PUSH2 0x1BFF DUP2 PUSH2 0x1A15 JUMP JUMPDEST DUP3 MSTORE POP POP JUMP JUMPDEST PUSH0 PUSH1 0x20 DUP3 ADD SWAP1 POP PUSH2 0x1C18 PUSH0 DUP4 ADD DUP5 PUSH2 0x1BF6 JUMP JUMPDEST SWAP3 SWAP2 POP POP JUMP JUMPDEST PUSH0 DUP1 PUSH1 0x40 DUP4 DUP6 SUB SLT ISZERO PUSH2 0x1C34 JUMPI PUSH2 0x1C33 PUSH2 0x19F2 JUMP JUMPDEST JUMPDEST PUSH0 PUSH2 0x1C41 DUP6 DUP3 DUP7 ADD PUSH2 0x1A3C JUMP JUMPDEST SWAP3 POP POP PUSH1 0x20 PUSH2 0x1C52 DUP6 DUP3 DUP7 ADD PUSH2 0x1A3C JUMP JUMPDEST SWAP2 POP POP SWAP3 POP SWAP3 SWAP1 POP JUMP JUMPDEST PUSH32 0x4E487B7100000000000000000000000000000000000000000000000000000000 PUSH0 MSTORE PUSH1 0x22 PUSH1 0x4 MSTORE PUSH1 0x24 PUSH0 REVERT JUMPDEST PUSH0 PUSH1 0x2 DUP3 DIV SWAP1 POP PUSH1 0x1 DUP3 AND DUP1 PUSH2 0x1CA0 JUMPI PUSH1 0x7F DUP3 AND SWAP2 POP JUMPDEST PUSH1 0x20 DUP3 LT DUP2 SUB PUSH2 0x1CB3 JUMPI PUSH2 0x1CB2 PUSH2 0x1C5C JUMP JUMPDEST JUMPDEST POP SWAP2 SWAP1 POP JUMP JUMPDEST PUSH32 0x4D7573742073656C6C206D6F7265207468616E203020746F6B656E7300000000 PUSH0 DUP3 ADD MSTORE POP JUMP JUMPDEST PUSH0 PUSH2 0x1CED PUSH1 0x1C DUP4 PUSH2 0x196C JUMP JUMPDEST SWAP2 POP PUSH2 0x1CF8 DUP3 PUSH2 0x1CB9 JUMP JUMPDEST PUSH1 0x20 DUP3 ADD SWAP1 POP SWAP2 SWAP1 POP JUMP JUMPDEST PUSH0 PUSH1 0x20 DUP3 ADD SWAP1 POP DUP2 DUP2 SUB PUSH0 DUP4 ADD MSTORE PUSH2 0x1D1A DUP2 PUSH2 0x1CE1 JUMP JUMPDEST SWAP1 POP SWAP2 SWAP1 POP JUMP JUMPDEST PUSH32 0x496E73756666696369656E7420746F6B656E2062616C616E6365000000000000 PUSH0 DUP3 ADD MSTORE POP JUMP JUMPDEST PUSH0 PUSH2 0x1D55 PUSH1 0x1A DUP4 PUSH2 0x196C JUMP JUMPDEST SWAP2 POP PUSH2 0x1D60 DUP3 PUSH2 0x1D21 JUMP JUMPDEST PUSH1 0x20 DUP3 ADD SWAP1 POP SWAP2 SWAP1 POP JUMP JUMPDEST PUSH0 PUSH1 0x20 DUP3 ADD SWAP1 POP DUP2 DUP2 SUB PUSH0 DUP4 ADD MSTORE PUSH2 0x1D82 DUP2 PUSH2 0x1D49 JUMP JUMPDEST SWAP1 POP SWAP2 SWAP1 POP JUMP JUMPDEST PUSH32 0x4E487B7100000000000000000000000000000000000000000000000000000000 PUSH0 MSTORE PUSH1 0x11 PUSH1 0x4 MSTORE PUSH1 0x24 PUSH0 REVERT JUMPDEST PUSH0 PUSH2 0x1DC0 DUP3 PUSH2 0x1A50 JUMP JUMPDEST SWAP2 POP PUSH2 0x1DCB DUP4 PUSH2 0x1A50 JUMP JUMPDEST SWAP3 POP DUP3 DUP3 MUL PUSH2 0x1DD9 DUP2 PUSH2 0x1A50 JUMP JUMPDEST SWAP2 POP DUP3 DUP3 DIV DUP5 EQ DUP4 ISZERO OR PUSH2 0x1DF0 JUMPI PUSH2 0x1DEF PUSH2 0x1D89 JUMP JUMPDEST JUMPDEST POP SWAP3 SWAP2 POP POP JUMP JUMPDEST PUSH32 0x4E487B7100000000000000000000000000000000000000000000000000000000 PUSH0 MSTORE PUSH1 0x12 PUSH1 0x4 MSTORE PUSH1 0x24 PUSH0 REVERT JUMPDEST PUSH0 PUSH2 0x1E2E DUP3 PUSH2 0x1A50 JUMP JUMPDEST SWAP2 POP PUSH2 0x1E39 DUP4 PUSH2 0x1A50 JUMP JUMPDEST SWAP3 POP DUP3 PUSH2 0x1E49 JUMPI PUSH2 0x1E48 PUSH2 0x1DF7 JUMP JUMPDEST JUMPDEST DUP3 DUP3 DIV SWAP1 POP SWAP3 SWAP2 POP POP JUMP JUMPDEST PUSH32 0x496E73756666696369656E7420636F6E74726163742062616C616E6365000000 PUSH0 DUP3 ADD MSTORE POP JUMP JUMPDEST PUSH0 PUSH2 0x1E88 PUSH1 0x1D DUP4 PUSH2 0x196C JUMP JUMPDEST SWAP2 POP PUSH2 0x1E93 DUP3 PUSH2 0x1E54 JUMP JUMPDEST PUSH1 0x20 DUP3 ADD SWAP1 POP SWAP2 SWAP1 POP JUMP JUMPDEST PUSH0 PUSH1 0x20 DUP3 ADD SWAP1 POP DUP2 DUP2 SUB PUSH0 DUP4 ADD MSTORE PUSH2 0x1EB5 DUP2 PUSH2 0x1E7C JUMP JUMPDEST SWAP1 POP SWAP2 SWAP1 POP JUMP JUMPDEST PUSH0 PUSH1 0x60 DUP3 ADD SWAP1 POP PUSH2 0x1ECF PUSH0 DUP4 ADD DUP7 PUSH2 0x1BF6 JUMP JUMPDEST PUSH2 0x1EDC PUSH1 0x20 DUP4 ADD DUP6 PUSH2 0x1AF4 JUMP JUMPDEST PUSH2 0x1EE9 PUSH1 0x40 DUP4 ADD DUP5 PUSH2 0x1AF4 JUMP JUMPDEST SWAP5 SWAP4 POP POP POP POP JUMP JUMPDEST PUSH32 0x496E76616C696420707269636520666565642061646472657373000000000000 PUSH0 DUP3 ADD MSTORE POP JUMP JUMPDEST PUSH0 PUSH2 0x1F25 PUSH1 0x1A DUP4 PUSH2 0x196C JUMP JUMPDEST SWAP2 POP PUSH2 0x1F30 DUP3 PUSH2 0x1EF1 JUMP JUMPDEST PUSH1 0x20 DUP3 ADD SWAP1 POP SWAP2 SWAP1 POP JUMP JUMPDEST PUSH0 PUSH1 0x20 DUP3 ADD SWAP1 POP DUP2 DUP2 SUB PUSH0 DUP4 ADD MSTORE PUSH2 0x1F52 DUP2 PUSH2 0x1F19 JUMP JUMPDEST SWAP1 POP SWAP2 SWAP1 POP JUMP JUMPDEST PUSH0 PUSH10 0xFFFFFFFFFFFFFFFFFFFF DUP3 AND SWAP1 POP SWAP2 SWAP1 POP JUMP JUMPDEST PUSH2 0x1F77 DUP2 PUSH2 0x1F59 JUMP JUMPDEST DUP2 EQ PUSH2 0x1F81 JUMPI PUSH0 DUP1 REVERT JUMPDEST POP JUMP JUMPDEST PUSH0 DUP2 MLOAD SWAP1 POP PUSH2 0x1F92 DUP2 PUSH2 0x1F6E JUMP JUMPDEST SWAP3 SWAP2 POP POP JUMP JUMPDEST PUSH0 DUP2 SWAP1 POP SWAP2 SWAP1 POP JUMP JUMPDEST PUSH2 0x1FAA DUP2 PUSH2 0x1F98 JUMP JUMPDEST DUP2 EQ PUSH2 0x1FB4 JUMPI PUSH0 DUP1 REVERT JUMPDEST POP JUMP JUMPDEST PUSH0 DUP2 MLOAD SWAP1 POP PUSH2 0x1FC5 DUP2 PUSH2 0x1FA1 JUMP JUMPDEST SWAP3 SWAP2 POP POP JUMP JUMPDEST PUSH0 DUP2 MLOAD SWAP1 POP PUSH2 0x1FD9 DUP2 PUSH2 0x1A59 JUMP JUMPDEST SWAP3 SWAP2 POP POP JUMP JUMPDEST PUSH0 DUP1 PUSH0 DUP1 PUSH0 PUSH1 0xA0 DUP7 DUP9 SUB SLT ISZERO PUSH2 0x1FF8 JUMPI PUSH2 0x1FF7 PUSH2 0x19F2 JUMP JUMPDEST JUMPDEST PUSH0 PUSH2 0x2005 DUP9 DUP3 DUP10 ADD PUSH2 0x1F84 JUMP JUMPDEST SWAP6 POP POP PUSH1 0x20 PUSH2 0x2016 DUP9 DUP3 DUP10 ADD PUSH2 0x1FB7 JUMP JUMPDEST SWAP5 POP POP PUSH1 0x40 PUSH2 0x2027 DUP9 DUP3 DUP10 ADD PUSH2 0x1FCB JUMP JUMPDEST SWAP4 POP POP PUSH1 0x60 PUSH2 0x2038 DUP9 DUP3 DUP10 ADD PUSH2 0x1FCB JUMP JUMPDEST SWAP3 POP POP PUSH1 0x80 PUSH2 0x2049 DUP9 DUP3 DUP10 ADD PUSH2 0x1F84 JUMP JUMPDEST SWAP2 POP POP SWAP3 SWAP6 POP SWAP3 SWAP6 SWAP1 SWAP4 POP JUMP JUMPDEST PUSH0 PUSH2 0x2060 DUP3 PUSH2 0x1A50 JUMP JUMPDEST SWAP2 POP PUSH2 0x206B DUP4 PUSH2 0x1A50 JUMP JUMPDEST SWAP3 POP DUP3 DUP3 SUB SWAP1 POP DUP2 DUP2 GT ISZERO PUSH2 0x2083 JUMPI PUSH2 0x2082 PUSH2 0x1D89 JUMP JUMPDEST JUMPDEST SWAP3 SWAP2 POP POP JUMP JUMPDEST PUSH32 0x416D6F756E74206D7573742062652067726561746572207468616E2030000000 PUSH0 DUP3 ADD MSTORE POP JUMP JUMPDEST PUSH0 PUSH2 0x20BD PUSH1 0x1D DUP4 PUSH2 0x196C JUMP JUMPDEST SWAP2 POP PUSH2 0x20C8 DUP3 PUSH2 0x2089 JUMP JUMPDEST PUSH1 0x20 DUP3 ADD SWAP1 POP SWAP2 SWAP1 POP JUMP JUMPDEST PUSH0 PUSH1 0x20 DUP3 ADD SWAP1 POP DUP2 DUP2 SUB PUSH0 DUP4 ADD MSTORE PUSH2 0x20EA DUP2 PUSH2 0x20B1 JUMP JUMPDEST SWAP1 POP SWAP2 SWAP1 POP JUMP JUMPDEST PUSH32 0x496E73756666696369656E742062616C616E6365000000000000000000000000 PUSH0 DUP3 ADD MSTORE POP JUMP JUMPDEST PUSH0 PUSH2 0x2125 PUSH1 0x14 DUP4 PUSH2 0x196C JUMP JUMPDEST SWAP2 POP PUSH2 0x2130 DUP3 PUSH2 0x20F1 JUMP JUMPDEST PUSH1 0x20 DUP3 ADD SWAP1 POP SWAP2 SWAP1 POP JUMP JUMPDEST PUSH0 PUSH1 0x20 DUP3 ADD SWAP1 POP DUP2 DUP2 SUB PUSH0 DUP4 ADD MSTORE PUSH2 0x2152 DUP2 PUSH2 0x2119 JUMP JUMPDEST SWAP1 POP SWAP2 SWAP1 POP JUMP JUMPDEST PUSH0 PUSH2 0x2163 DUP3 PUSH2 0x1A50 JUMP JUMPDEST SWAP2 POP PUSH2 0x216E DUP4 PUSH2 0x1A50 JUMP JUMPDEST SWAP3 POP DUP3 DUP3 ADD SWAP1 POP DUP1 DUP3 GT ISZERO PUSH2 0x2186 JUMPI PUSH2 0x2185 PUSH2 0x1D89 JUMP JUMPDEST JUMPDEST SWAP3 SWAP2 POP POP JUMP JUMPDEST PUSH32 0x506C65617365207761697420323420686F757273206265747765656E20666175 PUSH0 DUP3 ADD MSTORE PUSH32 0x6365742072657175657374730000000000000000000000000000000000000000 PUSH1 0x20 DUP3 ADD MSTORE POP JUMP JUMPDEST PUSH0 PUSH2 0x21E6 PUSH1 0x2C DUP4 PUSH2 0x196C JUMP JUMPDEST SWAP2 POP PUSH2 0x21F1 DUP3 PUSH2 0x218C JUMP JUMPDEST PUSH1 0x40 DUP3 ADD SWAP1 POP SWAP2 SWAP1 POP JUMP JUMPDEST PUSH0 PUSH1 0x20 DUP3 ADD SWAP1 POP DUP2 DUP2 SUB PUSH0 DUP4 ADD MSTORE PUSH2 0x2213 DUP2 PUSH2 0x21DA JUMP JUMPDEST SWAP1 POP SWAP2 SWAP1 POP JUMP JUMPDEST PUSH32 0x46617563657420697320656D7074790000000000000000000000000000000000 PUSH0 DUP3 ADD MSTORE POP JUMP JUMPDEST PUSH0 PUSH2 0x224E PUSH1 0xF DUP4 PUSH2 0x196C JUMP JUMPDEST SWAP2 POP PUSH2 0x2259 DUP3 PUSH2 0x221A JUMP JUMPDEST PUSH1 0x20 DUP3 ADD SWAP1 POP SWAP2 SWAP1 POP JUMP JUMPDEST PUSH0 PUSH1 0x20 DUP3 ADD SWAP1 POP DUP2 DUP2 SUB PUSH0 DUP4 ADD MSTORE PUSH2 0x227B DUP2 PUSH2 0x2242 JUMP JUMPDEST SWAP1 POP SWAP2 SWAP1 POP JUMP JUMPDEST PUSH0 PUSH1 0x40 DUP3 ADD SWAP1 POP PUSH2 0x2295 PUSH0 DUP4 ADD DUP6 PUSH2 0x1BF6 JUMP JUMPDEST PUSH2 0x22A2 PUSH1 0x20 DUP4 ADD DUP5 PUSH2 0x1AF4 JUMP JUMPDEST SWAP4 SWAP3 POP POP POP JUMP JUMPDEST PUSH32 0x4D7573742073656E642045544820746F2062757920746F6B656E730000000000 PUSH0 DUP3 ADD MSTORE POP JUMP JUMPDEST PUSH0 PUSH2 0x22DD PUSH1 0x1B DUP4 PUSH2 0x196C JUMP JUMPDEST SWAP2 POP PUSH2 0x22E8 DUP3 PUSH2 0x22A9 JUMP JUMPDEST PUSH1 0x20 DUP3 ADD SWAP1 POP SWAP2 SWAP1 POP JUMP JUMPDEST PUSH0 PUSH1 0x20 DUP3 ADD SWAP1 POP DUP2 DUP2 SUB PUSH0 DUP4 ADD MSTORE PUSH2 0x230A DUP2 PUSH2 0x22D1 JUMP JUMPDEST SWAP1 POP SWAP2 SWAP1 POP JUMP JUMPDEST PUSH32 0x45544820616D6F756E7420746F6F20736D616C6C000000000000000000000000 PUSH0 DUP3 ADD MSTORE POP JUMP JUMPDEST PUSH0 PUSH2 0x2345 PUSH1 0x14 DUP4 PUSH2 0x196C JUMP JUMPDEST SWAP2 POP PUSH2 0x2350 DUP3 PUSH2 0x2311 JUMP JUMPDEST PUSH1 0x20 DUP3 ADD SWAP1 POP SWAP2 SWAP1 POP JUMP JUMPDEST PUSH0 PUSH1 0x20 DUP3 ADD SWAP1 POP DUP2 DUP2 SUB PUSH0 DUP4 ADD MSTORE PUSH2 0x2372 DUP2 PUSH2 0x2339 JUMP JUMPDEST SWAP1 POP SWAP2 SWAP1 POP JUMP JUMPDEST PUSH32 0x4E6F2045544820746F2077697468647261770000000000000000000000000000 PUSH0 DUP3 ADD MSTORE POP JUMP JUMPDEST PUSH0 PUSH2 0x23AD PUSH1 0x12 DUP4 PUSH2 0x196C JUMP JUMPDEST SWAP2 POP PUSH2 0x23B8 DUP3 PUSH2 0x2379 JUMP JUMPDEST PUSH1 0x20 DUP3 ADD SWAP1 POP SWAP2 SWAP1 POP JUMP JUMPDEST PUSH0 PUSH1 0x20 DUP3 ADD SWAP1 POP DUP2 DUP2 SUB PUSH0 DUP4 ADD MSTORE PUSH2 0x23DA DUP2 PUSH2 0x23A1 JUMP JUMPDEST SWAP1 POP SWAP2 SWAP1 POP JUMP INVALID LOG2 PUSH5 0x6970667358 0x22 SLT KECCAK256 OR JUMPDEST SWAP14 PUSH8 0xB782A0F8282649BB 0x21 CREATE OR 0x26 0xEF 0xAA MSIZE PUSH25 0xF65B9197E2F774617D4FE11B64736F6C634300081A00330000 "
				},
				"gasEstimates": {
					"creation": {
						"codeDepositCost": "1847800",
						"executionCost": "infinite",
						"totalCost": "infinite"
					},
					"external": {
						"FAUCET_AMOUNT()": "392",
						"FAUCET_COOLDOWN()": "436",
						"TOKEN_PRICE_USD()": "435",
						"allowance(address,address)": "infinite",
						"approve(address,uint256)": "infinite",
						"balanceOf(address)": "2897",
						"burn(uint256)": "infinite",
						"burnFrom(address,uint256)": "infinite",
						"buyTokens()": "infinite",
						"decimals()": "406",
						"fundFaucet(uint256)": "infinite",
						"getLatestPrice()": "infinite",
						"getTokenAmount(uint256)": "infinite",
						"lastFaucetRequest(address)": "2891",
						"mint(address,uint256)": "infinite",
						"name()": "infinite",
						"owner()": "2561",
						"renounceOwnership()": "infinite",
						"requestFaucet()": "infinite",
						"sellTokens(uint256)": "infinite",
						"setPriceFeed(address)": "infinite",
						"symbol()": "infinite",
						"timeUntilNextFaucet(address)": "infinite",
						"totalSupply()": "2523",
						"transfer(address,uint256)": "infinite",
						"transferFrom(address,address,uint256)": "infinite",
						"transferOwnership(address)": "infinite",
						"withdrawETH()": "infinite"
					}
				},
				"methodIdentifiers": {
					"FAUCET_AMOUNT()": "76697640",
					"FAUCET_COOLDOWN()": "7d1d5d19",
					"TOKEN_PRICE_USD()": "f7a182f5",
					"allowance(address,address)": "dd62ed3e",
					"approve(address,uint256)": "095ea7b3",
					"balanceOf(address)": "70a08231",
					"burn(uint256)": "42966c68",
					"burnFrom(address,uint256)": "79cc6790",
					"buyTokens()": "d0febe4c",
					"decimals()": "313ce567",
					"fundFaucet(uint256)": "ae0140b4",
					"getLatestPrice()": "8e15f473",
					"getTokenAmount(uint256)": "c2507ac1",
					"lastFaucetRequest(address)": "d5ace7ba",
					"mint(address,uint256)": "40c10f19",
					"name()": "06fdde03",
					"owner()": "8da5cb5b",
					"renounceOwnership()": "715018a6",
					"requestFaucet()": "b8664f59",
					"sellTokens(uint256)": "6c11bcd3",
					"setPriceFeed(address)": "724e78da",
					"symbol()": "95d89b41",
					"timeUntilNextFaucet(address)": "acde1241",
					"totalSupply()": "18160ddd",
					"transfer(address,uint256)": "a9059cbb",
					"transferFrom(address,address,uint256)": "23b872dd",
					"transferOwnership(address)": "f2fde38b",
					"withdrawETH()": "e086e5ec"
				}
			},
			"storageLayout": {
				"storage": [
					{
						"astId": 353,
						"contract": "contracts/flibber/flibberToken.sol:FIBToken",
						"label": "_balances",
						"offset": 0,
						"slot": "0",
						"type": "t_mapping(t_address,t_uint256)"
					},
					{
						"astId": 359,
						"contract": "contracts/flibber/flibberToken.sol:FIBToken",
						"label": "_allowances",
						"offset": 0,
						"slot": "1",
						"type": "t_mapping(t_address,t_mapping(t_address,t_uint256))"
					},
					{
						"astId": 361,
						"contract": "contracts/flibber/flibberToken.sol:FIBToken",
						"label": "_totalSupply",
						"offset": 0,
						"slot": "2",
						"type": "t_uint256"
					},
					{
						"astId": 363,
						"contract": "contracts/flibber/flibberToken.sol:FIBToken",
						"label": "_name",
						"offset": 0,
						"slot": "3",
						"type": "t_string_storage"
					},
					{
						"astId": 365,
						"contract": "contracts/flibber/flibberToken.sol:FIBToken",
						"label": "_symbol",
						"offset": 0,
						"slot": "4",
						"type": "t_string_storage"
					},
					{
						"astId": 54,
						"contract": "contracts/flibber/flibberToken.sol:FIBToken",
						"label": "_owner",
						"offset": 0,
						"slot": "5",
						"type": "t_address"
					},
					{
						"astId": 1049,
						"contract": "contracts/flibber/flibberToken.sol:FIBToken",
						"label": "priceFeed",
						"offset": 0,
						"slot": "6",
						"type": "t_contract(AggregatorV3Interface)45"
					},
					{
						"astId": 1053,
						"contract": "contracts/flibber/flibberToken.sol:FIBToken",
						"label": "lastFaucetRequest",
						"offset": 0,
						"slot": "7",
						"type": "t_mapping(t_address,t_uint256)"
					}
				],
				"types": {
					"t_address": {
						"encoding": "inplace",
						"label": "address",
						"numberOfBytes": "20"
					},
					"t_contract(AggregatorV3Interface)45": {
						"encoding": "inplace",
						"label": "contract AggregatorV3Interface",
						"numberOfBytes": "20"
					},
					"t_mapping(t_address,t_mapping(t_address,t_uint256))": {
						"encoding": "mapping",
						"key": "t_address",
						"label": "mapping(address => mapping(address => uint256))",
						"numberOfBytes": "32",
						"value": "t_mapping(t_address,t_uint256)"
					},
					"t_mapping(t_address,t_uint256)": {
						"encoding": "mapping",
						"key": "t_address",
						"label": "mapping(address => uint256)",
						"numberOfBytes": "32",
						"value": "t_uint256"
					},
					"t_string_storage": {
						"encoding": "bytes",
						"label": "string",
						"numberOfBytes": "32"
					},
					"t_uint256": {
						"encoding": "inplace",
						"label": "uint256",
						"numberOfBytes": "32"
					}
				}
			},
			"userdoc": {
				"kind": "user",
				"methods": {},
				"version": 1
			}
		}
	}
}